{"contracts/MvaultContract.sol":{"MvaultContract":{"abi":[{"inputs":[{"internalType":"address","name":"_usdt","type":"address"},{"internalType":"address","name":"_mvaultToken","type":"address"}],"stateMutability":"nonpayable","type":"constructor"},{"inputs":[],"name":"AlreadyActive","type":"error"},{"inputs":[],"name":"AlreadyRegistered","type":"error"},{"inputs":[],"name":"BinaryAlreadyDistributed","type":"error"},{"inputs":[],"name":"BinaryNotDistributed","type":"error"},{"inputs":[],"name":"BoardHandlerNotSet","type":"error"},{"inputs":[],"name":"InsufficientBtcPool","type":"error"},{"inputs":[],"name":"InsufficientBtcPoolForBoard","type":"error"},{"inputs":[],"name":"InsufficientRebirthPool","type":"error"},{"inputs":[],"name":"InsufficientUsdtBalance","type":"error"},{"inputs":[],"name":"InsufficientVirtualBalance","type":"error"},{"inputs":[],"name":"InvalidSponsor","type":"error"},{"inputs":[],"name":"NoOpenBinarySlot","type":"error"},{"inputs":[],"name":"NotRegistered","type":"error"},{"inputs":[{"internalType":"address","name":"owner","type":"address"}],"name":"OwnableInvalidOwner","type":"error"},{"inputs":[{"internalType":"address","name":"account","type":"address"}],"name":"OwnableUnauthorizedAccount","type":"error"},{"inputs":[],"name":"PositionTaken","type":"error"},{"inputs":[],"name":"ReentrancyGuardReentrantCall","type":"error"},{"inputs":[],"name":"TransferFailed","type":"error"},{"inputs":[],"name":"ZeroAddress","type":"error"},{"inputs":[],"name":"ZeroAmount","type":"error"},{"anonymous":false,"inputs":[{"indexed":true,"internalType":"address","name":"user","type":"address"},{"indexed":false,"internalType":"uint256","name":"mvtMinted","type":"uint256"},{"indexed":false,"internalType":"uint256","name":"grossMvt","type":"uint256"},{"indexed":false,"internalType":"uint256","name":"levelAmt","type":"uint256"},{"indexed":false,"internalType":"uint256","name":"binaryAmt","type":"uint256"},{"indexed":false,"internalType":"uint256","name":"adminAmt","type":"uint256"}],"name":"Activated","type":"event"},{"anonymous":false,"inputs":[{"indexed":true,"internalType":"address","name":"to","type":"address"},{"indexed":false,"internalType":"uint256","name":"amount","type":"uint256"}],"name":"AdminWithdraw","type":"event"},{"anonymous":false,"inputs":[{"indexed":false,"internalType":"uint256","name":"totalPool","type":"uint256"},{"indexed":false,"internalType":"uint256","name":"binary70","type":"uint256"},{"indexed":false,"internalType":"uint256","name":"powerLeg30","type":"uint256"},{"indexed":false,"internalType":"uint256","name":"totalPairs","type":"uint256"}],"name":"BinaryIncomeDistributed","type":"event"},{"anonymous":false,"inputs":[{"indexed":true,"internalType":"address","name":"user","type":"address"},{"indexed":false,"internalType":"uint256","name":"newPairs","type":"uint256"},{"indexed":false,"internalType":"uint256","name":"amount","type":"uint256"}],"name":"BinaryIncomePaid","type":"event"},{"anonymous":false,"inputs":[{"indexed":true,"internalType":"address","name":"user","type":"address"},{"indexed":false,"internalType":"uint256","name":"boardLevel","type":"uint256"},{"indexed":false,"internalType":"uint256","name":"usdtDeducted","type":"uint256"}],"name":"BoardEntered","type":"event"},{"anonymous":false,"inputs":[{"indexed":true,"internalType":"address","name":"newHandler","type":"address"}],"name":"BoardHandlerUpdated","type":"event"},{"anonymous":false,"inputs":[{"indexed":true,"internalType":"address","name":"user","type":"address"},{"indexed":false,"internalType":"uint256","name":"usdtAmount","type":"uint256"},{"indexed":false,"internalType":"uint256","name":"boardLevel","type":"uint256"}],"name":"BoardRewardCredited","type":"event"},{"anonymous":false,"inputs":[{"indexed":true,"internalType":"address","name":"user","type":"address"},{"indexed":false,"internalType":"uint256","name":"amount","type":"uint256"}],"name":"BtcPoolCredited","type":"event"},{"anonymous":false,"inputs":[{"indexed":true,"internalType":"address","name":"user","type":"address"},{"indexed":false,"internalType":"uint256","name":"amount","type":"uint256"}],"name":"BtcPoolWithdrawn","type":"event"},{"anonymous":false,"inputs":[{"indexed":true,"internalType":"address","name":"user","type":"address"},{"indexed":false,"internalType":"uint256","name":"stakeIndex","type":"uint256"},{"indexed":false,"internalType":"uint256","name":"lockedSince","type":"uint256"}],"name":"ConvertedToLocked","type":"event"},{"anonymous":false,"inputs":[{"indexed":true,"internalType":"address","name":"to","type":"address"},{"indexed":true,"internalType":"address","name":"from","type":"address"},{"indexed":false,"internalType":"uint8","name":"level","type":"uint8"},{"indexed":false,"internalType":"uint256","name":"amount","type":"uint256"}],"name":"LevelIncomePaid","type":"event"},{"anonymous":false,"inputs":[{"indexed":true,"internalType":"address","name":"upline","type":"address"},{"indexed":false,"internalType":"uint8","name":"level","type":"uint8"},{"indexed":false,"internalType":"uint256","name":"amount","type":"uint256"}],"name":"LevelIncomeSkipped","type":"event"},{"anonymous":false,"inputs":[{"indexed":false,"internalType":"address","name":"newToken","type":"address"}],"name":"MvaultTokenUpdated","type":"event"},{"anonymous":false,"inputs":[{"indexed":true,"internalType":"address","name":"user","type":"address"},{"indexed":false,"internalType":"uint256","name":"mvtAmount","type":"uint256"},{"indexed":false,"internalType":"uint256","name":"usdtNet","type":"uint256"},{"indexed":false,"internalType":"uint256","name":"usdtToBtcPool","type":"uint256"},{"indexed":false,"internalType":"uint256","name":"usdtToIncome","type":"uint256"},{"indexed":false,"internalType":"uint256","name":"usdtToRebirth","type":"uint256"}],"name":"MvtSold","type":"event"},{"anonymous":false,"inputs":[{"indexed":true,"internalType":"address","name":"previousOwner","type":"address"},{"indexed":true,"internalType":"address","name":"newOwner","type":"address"}],"name":"OwnershipTransferred","type":"event"},{"anonymous":false,"inputs":[{"indexed":false,"internalType":"uint256","name":"totalPowerLeg30","type":"uint256"},{"indexed":false,"internalType":"uint256","name":"totalPowerLegs","type":"uint256"}],"name":"PowerLegDistributed","type":"event"},{"anonymous":false,"inputs":[{"indexed":true,"internalType":"address","name":"user","type":"address"},{"indexed":false,"internalType":"uint256","name":"powerLegPoints","type":"uint256"},{"indexed":false,"internalType":"uint256","name":"amount","type":"uint256"}],"name":"PowerLegIncomePaid","type":"event"},{"anonymous":false,"inputs":[{"indexed":true,"internalType":"address","name":"user","type":"address"}],"name":"ProfileUpdated","type":"event"},{"anonymous":false,"inputs":[{"indexed":true,"internalType":"address","name":"mainAccount","type":"address"},{"indexed":true,"internalType":"address","name":"subAccount","type":"address"},{"indexed":false,"internalType":"uint256","name":"rebirthIndex","type":"uint256"}],"name":"Reborn","type":"event"},{"anonymous":false,"inputs":[{"indexed":true,"internalType":"address","name":"user","type":"address"},{"indexed":true,"internalType":"address","name":"sponsor","type":"address"},{"indexed":true,"internalType":"address","name":"binaryParent","type":"address"},{"indexed":false,"internalType":"bool","name":"placeLeft","type":"bool"}],"name":"Registered","type":"event"},{"anonymous":false,"inputs":[{"indexed":true,"internalType":"address","name":"payer","type":"address"},{"indexed":true,"internalType":"address","name":"newUser","type":"address"},{"indexed":true,"internalType":"address","name":"sponsor","type":"address"},{"indexed":false,"internalType":"bool","name":"placeLeft","type":"bool"}],"name":"RegisteredAndActivatedFor","type":"event"},{"anonymous":false,"inputs":[{"indexed":true,"internalType":"address","name":"to","type":"address"},{"indexed":false,"internalType":"uint256","name":"amount","type":"uint256"}],"name":"ReserveWithdraw","type":"event"},{"anonymous":false,"inputs":[{"indexed":true,"internalType":"address","name":"to","type":"address"},{"indexed":true,"internalType":"address","name":"from","type":"address"},{"indexed":false,"internalType":"uint8","name":"level","type":"uint8"},{"indexed":false,"internalType":"uint256","name":"mvtAmount","type":"uint256"}],"name":"StakeLevelIncomePaid","type":"event"},{"anonymous":false,"inputs":[{"indexed":true,"internalType":"address","name":"user","type":"address"},{"indexed":false,"internalType":"uint256","name":"stakeIndex","type":"uint256"},{"indexed":false,"internalType":"uint256","name":"usdtAmount","type":"uint256"},{"indexed":false,"internalType":"uint256","name":"mvtMinted","type":"uint256"},{"indexed":false,"internalType":"bool","name":"isLocked","type":"bool"}],"name":"Staked","type":"event"},{"anonymous":false,"inputs":[{"indexed":true,"internalType":"address","name":"user","type":"address"},{"indexed":false,"internalType":"uint256","name":"stakeIndex","type":"uint256"},{"indexed":false,"internalType":"uint256","name":"mvtReturned","type":"uint256"},{"indexed":false,"internalType":"uint256","name":"usdtReceived","type":"uint256"},{"indexed":false,"internalType":"uint256","name":"adminCapCut","type":"uint256"}],"name":"Unstaked","type":"event"},{"anonymous":false,"inputs":[{"indexed":true,"internalType":"address","name":"user","type":"address"},{"indexed":false,"internalType":"uint256","name":"amount","type":"uint256"}],"name":"UsdtWithdrawn","type":"event"},{"inputs":[],"name":"ADMIN_ALLOC","outputs":[{"internalType":"uint256","name":"","type":"uint256"}],"stateMutability":"view","type":"function"},{"inputs":[],"name":"BINARY_ALLOC","outputs":[{"internalType":"uint256","name":"","type":"uint256"}],"stateMutability":"view","type":"function"},{"inputs":[],"name":"BTC_POOL_RATE","outputs":[{"internalType":"uint256","name":"","type":"uint256"}],"stateMutability":"view","type":"function"},{"inputs":[],"name":"FLEX_CAP_MULT","outputs":[{"internalType":"uint256","name":"","type":"uint256"}],"stateMutability":"view","type":"function"},{"inputs":[],"name":"INCOME_LIMIT","outputs":[{"internalType":"uint256","name":"","type":"uint256"}],"stateMutability":"view","type":"function"},{"inputs":[],"name":"LEVEL_ALLOC","outputs":[{"internalType":"uint256","name":"","type":"uint256"}],"stateMutability":"view","type":"function"},{"inputs":[],"name":"LOCK_DURATION","outputs":[{"internalType":"uint256","name":"","type":"uint256"}],"stateMutability":"view","type":"function"},{"inputs":[],"name":"MIN_STAKE_USDT","outputs":[{"internalType":"uint256","name":"","type":"uint256"}],"stateMutability":"view","type":"function"},{"inputs":[],"name":"PACKAGE_PRICE","outputs":[{"internalType":"uint256","name":"","type":"uint256"}],"stateMutability":"view","type":"function"},{"inputs":[],"name":"activate","outputs":[],"stateMutability":"nonpayable","type":"function"},{"inputs":[],"name":"adminPool","outputs":[{"internalType":"uint256","name":"","type":"uint256"}],"stateMutability":"view","type":"function"},{"inputs":[{"internalType":"uint256","name":"","type":"uint256"}],"name":"allUsers","outputs":[{"internalType":"address","name":"","type":"address"}],"stateMutability":"view","type":"function"},{"inputs":[],"name":"binaryPool","outputs":[{"internalType":"uint256","name":"","type":"uint256"}],"stateMutability":"view","type":"function"},{"inputs":[{"internalType":"address","name":"","type":"address"}],"name":"boardEntryCount","outputs":[{"internalType":"uint256","name":"","type":"uint256"}],"stateMutability":"view","type":"function"},{"inputs":[],"name":"boardHandler","outputs":[{"internalType":"contract IMvaultBoardMatrix","name":"","type":"address"}],"stateMutability":"view","type":"function"},{"inputs":[{"internalType":"address","name":"_user","type":"address"}],"name":"canEnterBoard","outputs":[{"internalType":"bool","name":"eligible","type":"bool"},{"internalType":"uint256","name":"btcBalance","type":"uint256"},{"internalType":"uint256","name":"boardPrice","type":"uint256"}],"stateMutability":"view","type":"function"},{"inputs":[{"internalType":"address","name":"user","type":"address"}],"name":"canRebirth","outputs":[{"internalType":"bool","name":"eligible","type":"bool"},{"internalType":"uint256","name":"poolBalance","type":"uint256"}],"stateMutability":"view","type":"function"},{"inputs":[{"internalType":"uint256","name":"stakeIndex","type":"uint256"}],"name":"convertToLocked","outputs":[],"stateMutability":"nonpayable","type":"function"},{"inputs":[{"internalType":"address","name":"_user","type":"address"},{"internalType":"uint256","name":"_usdtAmount","type":"uint256"},{"internalType":"uint256","name":"_boardLevel","type":"uint256"}],"name":"creditBoardReward","outputs":[],"stateMutability":"nonpayable","type":"function"},{"inputs":[{"internalType":"uint256","name":"offset","type":"uint256"},{"internalType":"uint256","name":"limit","type":"uint256"}],"name":"distributeBinaryIncome","outputs":[],"stateMutability":"nonpayable","type":"function"},{"inputs":[{"internalType":"uint256","name":"offset","type":"uint256"},{"internalType":"uint256","name":"limit","type":"uint256"}],"name":"distributePowerLeg","outputs":[],"stateMutability":"nonpayable","type":"function"},{"inputs":[],"name":"enterBoardPool","outputs":[],"stateMutability":"nonpayable","type":"function"},{"inputs":[{"internalType":"address","name":"user","type":"address"}],"name":"getActiveStakes","outputs":[{"internalType":"uint256[]","name":"indices","type":"uint256[]"},{"internalType":"uint256[]","name":"mvtAmounts","type":"uint256[]"},{"internalType":"uint256[]","name":"usdtInvestedArr","type":"uint256[]"},{"internalType":"uint256[]","name":"stakedAts","type":"uint256[]"},{"internalType":"uint256[]","name":"lockedSinces","type":"uint256[]"}],"stateMutability":"view","type":"function"},{"inputs":[],"name":"getAllUsersCount","outputs":[{"internalType":"uint256","name":"","type":"uint256"}],"stateMutability":"view","type":"function"},{"inputs":[{"internalType":"uint256","name":"_level","type":"uint256"}],"name":"getBoardCurrentIndex","outputs":[{"internalType":"uint256","name":"","type":"uint256"}],"stateMutability":"view","type":"function"},{"inputs":[{"internalType":"uint256","name":"_level","type":"uint256"},{"internalType":"uint256","name":"_index","type":"uint256"}],"name":"getBoardMatrixInfo","outputs":[{"internalType":"address","name":"owner","type":"address"},{"internalType":"uint256","name":"filledCount","type":"uint256"},{"internalType":"bool","name":"completed","type":"bool"}],"stateMutability":"view","type":"function"},{"inputs":[{"internalType":"uint256","name":"_level","type":"uint256"}],"name":"getBoardPrice","outputs":[{"internalType":"uint256","name":"","type":"uint256"}],"stateMutability":"view","type":"function"},{"inputs":[{"internalType":"uint256","name":"_level","type":"uint256"}],"name":"getBoardQueueLength","outputs":[{"internalType":"uint256","name":"","type":"uint256"}],"stateMutability":"view","type":"function"},{"inputs":[{"internalType":"address","name":"u","type":"address"}],"name":"getBtcPoolInfo","outputs":[{"internalType":"uint256","name":"btcPoolBalance","type":"uint256"},{"internalType":"uint256","name":"totalBtcEarned","type":"uint256"}],"stateMutability":"view","type":"function"},{"inputs":[{"internalType":"address","name":"u","type":"address"}],"name":"getCurrentBinaryPairs","outputs":[{"internalType":"uint256","name":"currentPairs","type":"uint256"},{"internalType":"uint256","name":"newPairs","type":"uint256"}],"stateMutability":"view","type":"function"},{"inputs":[],"name":"getLockDuration","outputs":[{"internalType":"uint256","name":"","type":"uint256"}],"stateMutability":"pure","type":"function"},{"inputs":[],"name":"getMvtContractBalance","outputs":[{"internalType":"uint256","name":"","type":"uint256"}],"stateMutability":"view","type":"function"},{"inputs":[],"name":"getMvtPrice","outputs":[{"internalType":"uint256","name":"buyPrice","type":"uint256"},{"internalType":"uint256","name":"sellPrice","type":"uint256"}],"stateMutability":"view","type":"function"},{"inputs":[],"name":"getPoolBalances","outputs":[{"internalType":"uint256","name":"binary","type":"uint256"},{"internalType":"uint256","name":"reserve","type":"uint256"},{"internalType":"uint256","name":"admin","type":"uint256"}],"stateMutability":"view","type":"function"},{"inputs":[{"internalType":"address","name":"_user","type":"address"}],"name":"getProfile","outputs":[{"internalType":"string","name":"displayName","type":"string"},{"internalType":"string","name":"email","type":"string"},{"internalType":"string","name":"phone","type":"string"},{"internalType":"string","name":"country","type":"string"},{"internalType":"bool","name":"profileSet","type":"bool"}],"stateMutability":"view","type":"function"},{"inputs":[{"internalType":"address","name":"user","type":"address"},{"internalType":"uint256","name":"index","type":"uint256"}],"name":"getStake","outputs":[{"internalType":"uint256","name":"mvtAmount","type":"uint256"},{"internalType":"uint256","name":"usdtInvested","type":"uint256"},{"internalType":"uint256","name":"stakedAt","type":"uint256"},{"internalType":"uint256","name":"lockedSince","type":"uint256"},{"internalType":"bool","name":"active","type":"bool"}],"stateMutability":"view","type":"function"},{"inputs":[{"internalType":"address","name":"user","type":"address"}],"name":"getStakeCount","outputs":[{"internalType":"uint256","name":"","type":"uint256"}],"stateMutability":"view","type":"function"},{"inputs":[{"internalType":"address","name":"user","type":"address"},{"internalType":"uint256","name":"offset","type":"uint256"},{"internalType":"uint256","name":"limit","type":"uint256"}],"name":"getTransactions","outputs":[{"components":[{"internalType":"uint8","name":"txType","type":"uint8"},{"internalType":"uint32","name":"ts","type":"uint32"},{"internalType":"uint256","name":"amount","type":"uint256"},{"internalType":"uint8","name":"level","type":"uint8"},{"internalType":"address","name":"addr","type":"address"}],"internalType":"struct MvaultContract.TxRecord[]","name":"records","type":"tuple[]"},{"internalType":"uint256","name":"total","type":"uint256"}],"stateMutability":"view","type":"function"},{"inputs":[{"internalType":"address","name":"_user","type":"address"}],"name":"getUserBoardStats","outputs":[{"internalType":"uint256","name":"entries","type":"uint256"},{"internalType":"uint256","name":"totalRewards","type":"uint256"}],"stateMutability":"view","type":"function"},{"inputs":[{"internalType":"address","name":"u","type":"address"}],"name":"getUserInfo","outputs":[{"internalType":"bool","name":"isRegistered","type":"bool"},{"internalType":"bool","name":"isActive","type":"bool"},{"internalType":"address","name":"sponsor","type":"address"},{"internalType":"uint256","name":"directCount","type":"uint256"},{"internalType":"address","name":"binaryParent","type":"address"},{"internalType":"bool","name":"placedLeft","type":"bool"},{"internalType":"address","name":"leftChild","type":"address"},{"internalType":"address","name":"rightChild","type":"address"},{"internalType":"uint256","name":"leftSubUsers","type":"uint256"},{"internalType":"uint256","name":"rightSubUsers","type":"uint256"},{"internalType":"uint256","name":"mvtBalance","type":"uint256"},{"internalType":"uint256","name":"totalReceived","type":"uint256"},{"internalType":"uint256","name":"totalSold","type":"uint256"},{"internalType":"uint256","name":"incomeLimit","type":"uint256"},{"internalType":"uint256","name":"usdtBalance","type":"uint256"},{"internalType":"uint256","name":"rebirthPool","type":"uint256"},{"internalType":"uint256","name":"btcPoolBalance","type":"uint256"},{"internalType":"uint256","name":"powerLegPoints","type":"uint256"},{"internalType":"uint256","name":"matchedPairs","type":"uint256"},{"internalType":"address","name":"mainAccount","type":"address"},{"internalType":"uint256","name":"rebirthCount","type":"uint256"},{"internalType":"uint256","name":"joinedAt","type":"uint256"}],"stateMutability":"view","type":"function"},{"inputs":[],"name":"mvaultToken","outputs":[{"internalType":"contract IMvaultToken","name":"","type":"address"}],"stateMutability":"view","type":"function"},{"inputs":[],"name":"owner","outputs":[{"internalType":"address","name":"","type":"address"}],"stateMutability":"view","type":"function"},{"inputs":[{"internalType":"address","name":"subAccount","type":"address"},{"internalType":"bool","name":"placeLeft","type":"bool"}],"name":"rebirth","outputs":[],"stateMutability":"nonpayable","type":"function"},{"inputs":[{"internalType":"address","name":"sponsor","type":"address"},{"internalType":"address","name":"binaryParent","type":"address"},{"internalType":"bool","name":"placeLeft","type":"bool"}],"name":"register","outputs":[],"stateMutability":"nonpayable","type":"function"},{"inputs":[{"internalType":"address","name":"newUser","type":"address"},{"internalType":"address","name":"binaryParent","type":"address"},{"internalType":"bool","name":"placeLeft","type":"bool"}],"name":"registerAndActivateFor","outputs":[],"stateMutability":"nonpayable","type":"function"},{"inputs":[],"name":"renounceOwnership","outputs":[],"stateMutability":"nonpayable","type":"function"},{"inputs":[],"name":"reservePool","outputs":[{"internalType":"uint256","name":"","type":"uint256"}],"stateMutability":"view","type":"function"},{"inputs":[{"internalType":"uint256","name":"amount","type":"uint256"}],"name":"sellMvt","outputs":[],"stateMutability":"nonpayable","type":"function"},{"inputs":[{"internalType":"address","name":"_boardHandler","type":"address"}],"name":"setBoardHandler","outputs":[],"stateMutability":"nonpayable","type":"function"},{"inputs":[{"internalType":"address","name":"_mvaultToken","type":"address"}],"name":"setMvaultToken","outputs":[],"stateMutability":"nonpayable","type":"function"},{"inputs":[{"internalType":"string","name":"_displayName","type":"string"},{"internalType":"string","name":"_email","type":"string"},{"internalType":"string","name":"_phone","type":"string"},{"internalType":"string","name":"_country","type":"string"}],"name":"setProfile","outputs":[],"stateMutability":"nonpayable","type":"function"},{"inputs":[{"internalType":"uint256","name":"usdtAmount","type":"uint256"},{"internalType":"bool","name":"isLocked","type":"bool"}],"name":"stake","outputs":[],"stateMutability":"nonpayable","type":"function"},{"inputs":[{"internalType":"address","name":"","type":"address"}],"name":"totalBoardRewardsEarned","outputs":[{"internalType":"uint256","name":"","type":"uint256"}],"stateMutability":"view","type":"function"},{"inputs":[],"name":"totalUsers","outputs":[{"internalType":"uint256","name":"","type":"uint256"}],"stateMutability":"view","type":"function"},{"inputs":[{"internalType":"address","name":"newOwner","type":"address"}],"name":"transferOwnership","outputs":[],"stateMutability":"nonpayable","type":"function"},{"inputs":[{"internalType":"uint256","name":"stakeIndex","type":"uint256"}],"name":"unstake","outputs":[],"stateMutability":"nonpayable","type":"function"},{"inputs":[],"name":"usdtToken","outputs":[{"internalType":"contract IERC20","name":"","type":"address"}],"stateMutability":"view","type":"function"},{"inputs":[{"internalType":"address","name":"","type":"address"}],"name":"users","outputs":[{"internalType":"bool","name":"isRegistered","type":"bool"},{"internalType":"bool","name":"isActive","type":"bool"},{"internalType":"address","name":"sponsor","type":"address"},{"internalType":"uint256","name":"directCount","type":"uint256"},{"internalType":"address","name":"binaryParent","type":"address"},{"internalType":"bool","name":"placedLeft","type":"bool"},{"internalType":"address","name":"leftChild","type":"address"},{"internalType":"address","name":"rightChild","type":"address"},{"internalType":"uint256","name":"leftSubUsers","type":"uint256"},{"internalType":"uint256","name":"rightSubUsers","type":"uint256"},{"internalType":"uint256","name":"matchedPairs","type":"uint256"},{"internalType":"uint256","name":"mvtBalance","type":"uint256"},{"internalType":"uint256","name":"totalReceived","type":"uint256"},{"internalType":"uint256","name":"totalSold","type":"uint256"},{"internalType":"uint256","name":"incomeLimit","type":"uint256"},{"internalType":"uint256","name":"usdtBalance","type":"uint256"},{"internalType":"uint256","name":"rebirthPool","type":"uint256"},{"internalType":"uint256","name":"totalUsdtEarned","type":"uint256"},{"internalType":"uint256","name":"btcPoolBalance","type":"uint256"},{"internalType":"uint256","name":"totalBtcEarned","type":"uint256"},{"internalType":"uint256","name":"powerLegPoints","type":"uint256"},{"internalType":"address","name":"mainAccount","type":"address"},{"internalType":"uint256","name":"rebirthCount","type":"uint256"},{"internalType":"uint256","name":"joinedAt","type":"uint256"},{"internalType":"string","name":"displayName","type":"string"},{"internalType":"string","name":"email","type":"string"},{"internalType":"string","name":"phone","type":"string"},{"internalType":"string","name":"country","type":"string"},{"internalType":"bool","name":"profileSet","type":"bool"}],"stateMutability":"view","type":"function"},{"inputs":[{"internalType":"address","name":"to","type":"address"},{"internalType":"uint256","name":"amount","type":"uint256"}],"name":"withdrawAdminPool","outputs":[],"stateMutability":"nonpayable","type":"function"},{"inputs":[{"internalType":"uint256","name":"amount","type":"uint256"}],"name":"withdrawBtcPool","outputs":[],"stateMutability":"nonpayable","type":"function"},{"inputs":[{"internalType":"address","name":"to","type":"address"},{"internalType":"uint256","name":"amount","type":"uint256"}],"name":"withdrawReservePool","outputs":[],"stateMutability":"nonpayable","type":"function"},{"inputs":[{"internalType":"uint256","name":"amount","type":"uint256"}],"name":"withdrawUsdt","outputs":[],"stateMutability":"nonpayable","type":"function"}],"evm":{"bytecode":{"linkReferences":{},"object":"60a0346200017557601f6200604138819003918201601f19168301916001600160401b038311848410176200017a57808492604094855283398101031262000175576200005a6020620000528362000190565b920162000190565b9033156200015c576000549160018060a01b03199233848216176000556040519060018060a01b03938491823391167f8be0079c531659141344cd1fd0a4f28419497f9722a3daafe3b4186f6b6457e0600080a360017f9b779b17422d0df92223018b32b4d1fa46e071723d6817e2486d003becc55f005516908115801562000151575b62000142575060805216906001541617600155604051615e9b9081620001a6823960805181818161086901528181610f85015281816112cf0152818161146b01528181611d3901528181612be3015281816137820152818161418f01526148c70152f35b63d92e233d60e01b8152600490fd5b5083831615620000de565b604051631e4fbdf760e01b815260006004820152602490fd5b600080fd5b634e487b7160e01b600052604160045260246000fd5b51906001600160a01b0382168203620001755756fe61032080604052600436101561001457600080fd5b600090813560e01c9081630266f0441461428b57508063039ccc261461426757806303c3ecb7146142215780630f15f4c0146141255780630f53a470146140655780631747e0b014613e865780631ce5e89414613e145780631f6259d514613deb5780632335821b14613db25780632808bc8d14613cee5780632d641f0814613cb15780632e17de781461368757806338abfc41146136695780633ac272c21461364a5780633ccb13d31461362e57806344e374d51461124157806347cd51911461360f578063485d383414610b395780634b3f0d451461354657806352375bb11461351757806355509c8f14612f93578063634f627e14612b595780636386c1c71461298957806368ddb2b5146128b1578063715018a6146128695780637435f421146127cb57806377537844146112415780637f1b4064146127ad5780638431fdd7146127895780638a8f04291461246b5780638da5cb5b1461244457806392446e301461242857806394915dd0146120985780639499a3511461205f578063a2bdedf41461201b578063a87430ba14611d68578063a98ad46c14611d23578063aa33f5d514611b2b578063aa39375714611b07578063abe50f19146113e0578063b58e027814611264578063b86a1fb214611246578063be648bdb14611241578063bff1f9e114611223578063c9d484cf146111fa578063ce8292f514611166578063cf57ee691461112d578063cfd47663146110a1578063d3635a0214610f1a578063d4a9028614610e48578063e0e0101114610b58578063e239c40014610b39578063e3ba9bda14610acf578063e4093a66146107ad578063e51cb5301461075f578063eb63e1c214610738578063ec50324a14610639578063f00b009314610600578063f0b7b9dc14610403578063f24c536a1461038a578063f2fde38b146103145763fb72ca35146102cc57600080fd5b34610311576020366003190112610311576040906001600160a01b036102f06142a7565b168152600b602052818082205491600c602052205482519182526020820152f35b80fd5b50346103115760203660031901126103115761032e6142a7565b610336614550565b6001600160a01b03908116908115610371576000548260018060a01b031982161760005516600080516020615de6833981519152600080a380f35b604051631e4fbdf760e01b815260048101849052602490fd5b5034610311576020366003190112610311576040906001600160a01b036103af6142a7565b1681526003602052818120906007600583015460068401548082106000146103fb5750925b0154808311156103f5576103e99150826145b5565b82519182526020820152f35b506103e9565b9050926103d4565b503461031157610412366143a6565b9161041b61460f565b6002546001600160a01b039190821633036105c757169061043d82151561465b565b61044881151561465b565b81845260209160038352600c604086200161046483825461468c565b905580855260038352600e604086200161047f83825461468c565b9055808552600c83526040852061049783825461468c565b9055807f2393acb59b41dd645f68fe97bab0deba2a21b99efc69761e9b2762f11bbbe79d604080518581528787820152a2600052600e8252604060002091604051906104e282614459565b600b825281019163ffffffff421683526040820190815260ff60608301951685526080820193600085528054600160401b8110156105b1576105299160018201815561463f565b91909161059b5760ff9384600294511664ffffffff0084549282881985161786555160081b169164ffffffffff19161717825551600182015501925116825491610100600160a81b03905160081b169160018060a81b031916171790556001600080516020615e468339815191525580f35b634e487b7160e01b600052600060045260246000fd5b634e487b7160e01b600052604160045260246000fd5b60405162461bcd60e51b81526020600482015260116024820152702737ba103137b0b932103430b7323632b960791b6044820152606490fd5b5034610311576020366003190112610311576020906040906001600160a01b036106286142a7565b168152600b83522054604051908152f35b5034610311576040366003190112610311576106536142a7565b6024359061065f614550565b6001600160a01b0316908115610726576007548181106106ea57816106a77f0529afc4538720fe0b3eadc40486369ab962002d72fead1387b300c66073e7bf936020936145b5565b60075583855260038252600860408620016106c382825461468c565b905583855260038252600960408620016106de82825461468c565b9055604051908152a280f35b60405162461bcd60e51b8152602060048201526014602482015273115e18d959591cc81c995cd95c9d99481c1bdbdb60621b6044820152606490fd5b60405163d92e233d60e01b8152600490fd5b5034610311576020366003190112610311576020610757600435615abf565b604051908152f35b503461031157602036600319011261031157604090600d9082906001600160a01b036107896142a7565b168152600360205220015481519068070c1cc73b00c8000081101582526020820152f35b50346103115780600319360112610311576107c661460f565b6002546001600160a01b03908116908115610abd5733835260206003815260408420916107f960ff845460081c1661457c565b604051926347cd519160e01b845282846024816001988960048301525afa938415610a6b578694610a88575b50600f018054848110610a76578461083c916145b5565b905561086382848360025416604051938492839263a9059cbb60e01b8452600484016145e5565b038189867f0000000000000000000000000000000000000000000000000000000000000000165af1908115610a6b578691610a32575b5015610a20578490338252600b8352604082206108b68154614600565b905560025416803b15610a1c5781809160446040518094819363686a38bd60e01b83523360048401528a60248401525af18015610a11576109f9575b505060405183815282828201527f4e755dd64e53a9f7a5882e2e32eb64718c2273de11e017bd47129b9fe2716d7c60403392a233600052600e81526040600020906040519061094082614459565b600a825281019063ffffffff421682526040810193845260608101938585526080820193600085528054600160401b8110156105b15761098491888201815561463f565b91909161059b5791518154935164ffffffffff1990941660ff91821617600894851b64ffffffff00161782559151868201559351600294909401805493516001600160a81b0319909416949091169390931791901b610100600160a81b0316179055600080516020615e468339815191525580f35b610a0290614474565b610a0d5783386108f2565b8380fd5b6040513d84823e3d90fd5b5080fd5b6040516312171d8360e31b8152600490fd5b90508281813d8311610a64575b610a498183614487565b81010312610a6057610a5a906145d8565b38610899565b8580fd5b503d610a3f565b6040513d88823e3d90fd5b604051630856d68760e11b8152600490fd5b9093508281813d8311610ab6575b610aa08183614487565b81010312610ab1575192600f610825565b600080fd5b503d610a96565b60405163632100f760e11b8152600490fd5b503461031157602036600319011261031157610ae96142a7565b610af1614550565b6001600160a01b0316801561072657600280546001600160a01b031916821790557f49424f87d81e4374ee3e8d1cf7b880966981a3cf6a7ac1d7a66c13d91756fccc8280a280f35b5034610311578060031936011261031157602060405163018b82008152f35b503461031157606036600319011261031157610b726142a7565b90610b7b6142bd565b610b836143df565b92610b8c61460f565b6001600160a01b0393818516918215610e1157338314610dd15733855260039160209483865260ff60408820541615610dbf5733875283865260ff604088205460081c1615610d865784875283865260ff604088205416610d745733875283865268070c1cc73b00c80000600c60408920015410610d6257818882168015159081610d4b575b5015610d4057610c2191615274565b979093338852808752600c604089200198895468070c1cc73b00c7ffff198101908111610d2c57610cc7969798999a55610c5d81883388614699565b15610d0857858216895280885260408920810180546001600160a01b031916881790555b338952875260016040892001610c978154614600565b9055610ca283614760565b60405191151594858352169085600080516020615dc6833981519152883393a4614856565b6040519081527ff3d8729e7995a6170800155589c309c92998449c63bab10c98f61f9aa007db7d33933392a46001600080516020615e468339815191525580f35b85821689528088526040892060040180546001600160a01b03191688179055610c81565b634e487b7160e01b8a52601160045260248afd5b610c21915033615274565b91505087528386528160ff60408920541638610c12565b60405163b55c1bad60e01b8152600490fd5b604051630ea075bf60e21b8152600490fd5b60405162461bcd60e51b815260048101879052601160248201527043616c6c6572206e6f742061637469766560781b6044820152606490fd5b60405163aba4733960e01b8152600490fd5b60405162461bcd60e51b815260206004820152601860248201527721b0b73737ba103932b3b4b9ba32b9103cb7bab939b2b63360411b6044820152606490fd5b60405162461bcd60e51b815260206004820152600f60248201526e496e76616c6964206164647265737360881b6044820152606490fd5b503461031157610e5736614347565b90606060018060a01b039260448460025416936040519485938492636a54814360e11b8452600484015260248301525afa908115610f0f57839284918593610eb4575b506060945060405193168352602083015215156040820152f35b93509150506060823d8211610f07575b81610ed160609383614487565b81010312610f035781518181168103610a0d5760609350610ef96040602085015194016145d8565b9092909138610e9a565b8280fd5b3d9150610ec4565b6040513d85823e3d90fd5b503461031157602080600319360112610a1c5760043590610f3961460f565b811561108f5733835260038152600c60408420018054838110610d625783610f60916145b5565b905560405163a9059cbb60e01b8152818180610f808633600484016145e5565b0381877f00000000000000000000000000000000000000000000000000000000000000006001600160a01b03165af190811561108457849161104f575b5015610a20576040518281527fbdd3f02d2a57fb53c1156f98470b61cb60712d485c27c36a49b1263dabcde201823392a233600052600e81526040600020906040519061100982614459565b6007825281019063ffffffff42168252604081019384526060810193600085526080820193600085528054600160401b8110156105b1576105299160018201815561463f565b90508181813d831161107d575b6110668183614487565b81010312610a0d57611077906145d8565b38610fbd565b503d61105c565b6040513d86823e3d90fd5b604051631f2a200560e01b8152600490fd5b5034610311576040366003190112610311576110f260a09160406110c36142a7565b9160243592600180871b0316808252600d6020526110e58383205485106159c1565b8152600d602052206159a5565b50805490600181015490600281015460ff60046003840154930154169260405194855260208501526040840152606083015215156080820152f35b5034610311576020366003190112610311576020906040906001600160a01b036111556142a7565b168152600d83522054604051908152f35b50346103115780600319360112610311576001546040516370a0823160e01b81523060048201529190602090839060249082906001600160a01b03165afa9081156111ee57906111bc575b602090604051908152f35b506020813d82116111e6575b816111d560209383614487565b81010312610ab157602090516111b1565b3d91506111c8565b604051903d90823e3d90fd5b50346103115780600319360112610311576002546040516001600160a01b039091168152602090f35b50346103115780600319360112610311576020600554604051908152f35b61435d565b50346103115780600319360112610311576020600854604051908152f35b503461031157602080600319360112610a1c576004359061128361460f565b811561108f5733835260038152600f604084200180548381106113ce57836112aa916145b5565b905560405163a9059cbb60e01b81528181806112ca8633600484016145e5565b0381877f00000000000000000000000000000000000000000000000000000000000000006001600160a01b03165af1908115611084578491611399575b5015610a20576040518281527f12701e4764b73009ab9826933c421483e4280410091fcc760515e0fa99fa766b823392a233600052600e81526040600020906040519061135382614459565b6008825281019063ffffffff42168252604081019384526060810193600085526080820193600085528054600160401b8110156105b1576105299160018201815561463f565b90508181813d83116113c7575b6113b08183614487565b81010312610a0d576113c1906145d8565b38611307565b503d6113a6565b604051636dae861760e11b8152600490fd5b5034610311576040366003190112610311576113fa6143d0565b61140261460f565b6802b5e3af16b188000060043510611ace57338252600360205261142c60ff604084205416615914565b338252600360205260ff604083205460081c1615611a99576040516323b872dd60e01b81523360048083019190915230602483015235604482015282907f00000000000000000000000000000000000000000000000000000000000000006001600160a01b03169060208160648186865af1908115610f0f578391611a53575b506020916114bc6114ea92615951565b60015460405163095ea7b360e01b8152948593849283919060048035916001600160a01b03169084016145e5565b03925af18015610f0f57611a1a575b506001546040516370a0823160e01b8082523060048301529184906001600160a01b0316602083602481845afa928315610a115782936119e3575b50803b15610a1c57816040518092634e538d9360e11b825281838161155f60043530600484016145e5565b03925af18015610a11576119cf575b5050600154604051928352306004840152602090839060249082906001600160a01b03165afa801561108457849061199b575b6115ab92506145b5565b918215611966576040516115be81614459565b600a8152600260208201526001604082015260016060820152600160808201523382526003602052604082205460018060a01b039060101c168294839284935b600560ff861610156117a557605a61162560ff61161d81891686615994565b5116856147ff565b04908115611766576001600160a01b038516158015611743575b1561167c579061164e9161468c565b925b6001600160a01b0390811686526003602052604086205460101c1693611675906150b4565b93926115fe565b939097886116d49160018060a01b03841689526003602052600860408a20016116a683825461468c565b90556001600160a01b038416895260036020526040892060090180546116cd90849061468c565b905561468c565b9760ff6001818816011161172f5760405133916001600160a01b038416917fc8c0cc32a736135fa3c2a3c467849cd282797396bc67d2d5326f7e161e601c1d9181906117279060ff8c16600101836150c5565b0390a3611650565b634e487b7160e01b87526011600452602487fd5b506001600160a01b03851687526003602052604087205460081c60ff161561163f565b939490506001600160a01b038516611782575b611675906150b4565b6001600160a01b0394851686526003602052604086205460101c90941693611779565b86888488936005820282810460050361195257916117e66117ec92605a6117f1969504946117de6117d6838861468c565b60085461468c565b60085561468c565b906145b5565b6145b5565b90811561191857338352600d602052604083208054929082156119115742905b6040519161181e83614459565b8383526004356020840152426040840152606083015260016080830152600160401b8510156118fd5784611857916001820181556159a5565b6118e95760046080918351815560208401516001820155604084015160028201556060840151600382015501910151151560ff8019835416911617905560405192835260043560208401526040830152151560608201527f830141583677d950fe61a27b93001edff66b597c666b2c90f5fb6e79a4befd0e60803392a26001600080516020615e468339815191525580f35b634e487b7160e01b86526004869052602486fd5b634e487b7160e01b86526041600452602486fd5b8490611811565b60405162461bcd60e51b81526020600482015260126024820152714e6f20746f6b656e7320746f207374616b6560701b6044820152606490fd5b634e487b7160e01b86526011600452602486fd5b60405162461bcd60e51b815260206004820152600d60248201526c139bc8135595081b5a5b9d1959609a1b6044820152606490fd5b506020823d6020116119c7575b816119b560209383614487565b81010312610ab1576115ab91516115a1565b3d91506119a8565b6119d890614474565b610a0d57833861156e565b915091506020813d602011611a12575b81611a0060209383614487565b81010312610ab1578490519138611534565b3d91506119f3565b6020813d602011611a4b575b81611a3360209383614487565b81010312610f0357611a44906145d8565b50386114f9565b3d9150611a26565b90506020813d602011611a91575b81611a6e60209383614487565b81010312610f03576020916114bc611a886114ea936145d8565b925050916114ac565b3d9150611a61565b60405162461bcd60e51b815260206004820152600d60248201526c139bdd081858dd1a5d985d1959609a1b6044820152606490fd5b60405162461bcd60e51b815260206004820152601160248201527042656c6f7720243530206d696e696d756d60781b6044820152606490fd5b503461031157806003193601126103115760206040516815245655b1025800008152f35b503461031157606036600319011261031157611b456142a7565b611b4d6142bd565b611b556143df565b338452600360209281845260ff604087205416610d7457600554611c305733600090815282855260409020805461ff01600160b01b03191660011781556002810180546001600160a81b03191690556012810180546001600160a01b03191690554260149091015560045491600160401b8310156105b157611bec836001600080516020615dc683398151915295016004556143ee565b81929154911b9033821b9160018060a01b03901b1916179055611c10600554614600565b6005555b60405192151583526001600160a01b039081169416923392a480f35b6001600160a01b03858116808852838652604088205491939160ff1615611d115783600080516020615dc68339815191529484168015159081611cfd575b5015611cf357611c7e8685615274565b611c8a81838c33614699565b15611cd15716885281865260408820820180546001600160a01b031916331790555b8752845260016040872001611cc18154614600565b9055611ccc33614760565b611c14565b1688528186526040882060040180546001600160a01b03191633179055611cac565b611c7e8689615274565b8a5250828752604089205460ff1638611c6e565b604051632f212e0d60e11b8152600490fd5b50346103115780600319360112610311576040517f00000000000000000000000000000000000000000000000000000000000000006001600160a01b03168152602090f35b5034610311576020366003190112610311576040906001600160a01b03611d8d6142a7565b168152600360205220806102e052808080808080808080808080611e516015600f600e600d600c600b600a600960086007600660058d549d60018101546101005260028101546102205260018060a01b0360038201541661016052600460018060a01b03910154169e01549e01549e01549e01549e01549e01549e01549e01549e01549e01549e01549e601081015461028052601181015460c05260018060a01b036012820154166102405260138101546101a05260148101546101e052016144aa565b61026052611e6460166102e051016144aa565b6102a052611e7760176102e051016144aa565b61018052611e8a60186102e051016144aa565b60e05260ff60196102e0510154166080526040518060a05260ff82161515905260ff8160081c161515602060a051015260018060a01b039060101c16604060a051015261010051606060a051015260018060a01b036102205116608060a051015260ff6102205160a01c16151560a0805101526101605160c060a051015260e060a051015261010060a051015261012060a051015261014060a051015261016060a051015261018060a05101526101a060a05101526101c060a05101526101e060a051015261020060a051015261022060a051015261024060a05101526102805161026060a051015260c05161028060a0510152610240516102a060a05101526101a0516102c060a05101526101e0516102e060a0510152612005611ff1611fdc611fc76103a08061030060a051015260a05101610260516142d3565b60a0516103208183039101526102a0516142d3565b60a051610340818303910152610180516142d3565b60a05161036081830391015260e0516142d3565b608051151561038060a051015260a05180910390f35b50346103115760203660031901126103115760043590600454821015610311576020612046836143ee565b905460405160039290921b1c6001600160a01b03168152f35b503461031157602036600319011261031157606061208361207e6142a7565b615b43565b90604051921515835260208301526040820152f35b5034610311576040366003190112610311576120b26142a7565b6120ba6143d0565b6120c261460f565b6001600160a01b03821615610726573383526003602052604083208054916120ef60ff8460081c1661457c565b600d820180549068070c1cc73b00c80000808310612416576001600160a01b03871688526003602052604088205460ff166123d15768070c1cc73b00c7ffff1983019283116123bd5761218a939291908083106123b2576121519080936145b5565b9055600c840161216282825461468c565b9055612173600e850191825461468c565b90556815245655b102580000600b84015533615274565b6001600160a01b038581166000908152600360205260409020805461ff01600160b01b03191662010000600160b01b0387161760011781556002810180546001600160a81b0319169285169290921783151560a01b60ff60a01b16179091556012810180546001600160a01b0319163317905542601490910155600454939190600160401b8510156105b157612228856001601397016004556143ee565b81546001600160a01b0389811660039390931b92831b921b191617905560055461225190614600565b6005551561237f576001600160a01b03908116865260036020819052604087200180546001600160a01b0319169186169190911790555b60101c6001600160a01b03168061235f575b506122a483614760565b6122ad83614856565b016122b88154614600565b908190556040519081526001600160a01b0382169033907f30016ed357540281a6cff6143637e72b48e105d85d15df66b0aaffbd2379024090602090a333600052600e60205260406000209060405161231081614459565b60098152602081019063ffffffff421682526040810160008152606082019460008652608083019460018060a01b031685528054600160401b8110156105b1576105299160018201815561463f565b84526003602052600160408520016123778154614600565b90553861229a565b6001600160a01b03908116865260036020526040862060040180546001600160a01b031916918616919091179055612288565b5061215182806145b5565b634e487b7160e01b88526011600452602488fd5b60405162461bcd60e51b815260206004820152601e60248201527f5375622d6163636f756e7420616c7265616479207265676973746572656400006044820152606490fd5b6040516307db32bd60e31b8152600490fd5b50346103115780600319360112610311576020604051600a8152f35b5034610311578060031936011261031157546040516001600160a01b039091168152602090f35b50346103115761247a36614347565b90612483614550565b61248b61460f565b60ff9182600a541615612777576124a2908261468c565b9060045480831161276f575b508391815b81811061272f575060099182549484151580612726575b1561270d574263ffffffff169087835b85811061258157509493929150505b81811061254357837f7f4a5b69bea14a6fc05326671a02e90d4a88855c83a18529c260057b1bf61a856040888884885560ff19600a5416600a5582519182526020820152a16001600080516020615e468339815191525580f35b61257891929350612553816143ee565b9054600391821b1c6001600160a01b0316885260205260408720601101879055614600565b908592916124e9565b61258a816143ee565b9054600391821b1c6001600160a01b031680845260208281526040852060110154909291908a8c8e83156126fc57927fb05abf391bcc5d117d31727729f0da5b0e3eb5f91a478372995efa128696c4069260406125f281946125ed858a996147ff565b614812565b9a868152888a526008988c61260d8b8585200191825461468c565b90558782528a5220016126218a825461468c565b905581519081528887820152a2600052600e825260406000206040519261264784614459565b600484528301878152604084019586526060840193600085526080810192600084528054600160401b8110156105b15761268890600192838201815561463f565b91909161059b5791518154935164ffffffffff19909416908a161792851b64ffffffff00169290921782559551958101959095559151600294909401805492516001600160a81b03199093169486169490941791901b610100600160a81b0316179091556126f590614600565b88906124da565b505050505050506126f59150614600565b5061271a8560085461468c565b600855908592916124e9565b508515156124ca565b9261276461276a91612740866143ee565b9054600391821b1c6001600160a01b0316895260205260408820601101549061468c565b93614600565b6124b3565b9150386124ae565b60405163418826bf60e11b8152600490fd5b503461031157806003193601126103115760206040516802b5e3af16b18800008152f35b50346103115780600319360112610311576020600654604051908152f35b5034610311576127e36127dd366143a6565b91615bfc565b90604051916040830191604084528051809352606094858501936020809301915b818110612818575050508380955001520390f35b8251805160ff90811688528186015163ffffffff1686890152604080830151908901528982015116898801526080908101516001600160a01b03169087015260a09095019491830191600101612804565b5034610311578060031936011261031157612882614550565b600080546001600160a01b0319811682556001600160a01b0316600080516020615de68339815191528280a380f35b5034610311578060031936011261031157600154604051623144bd60e31b81526001600160a01b039091169160208083600481875afa928315610a11578293612958575b5080600494604051958680926310f4cba760e21b82525afa9182156111ee5791612928575b604080945051928352820152f35b80915083813d8311612951575b61293f8183614487565b81010312610ab157604092519061291a565b503d612935565b9392508084813d8311612982575b6129708183614487565b81010312610ab15792519192806128f5565b503d612966565b5034610311576020366003190112610311576040906001600160a01b036129ae6142a7565b168152600360205220808080808080808080808080805460018201546101205260028201546101c052601460076011600f600d600c600b600a60096008600660058d600360018060a01b03910154169d600460018060a01b03910154169e01549e01549e01549e01549e01549e01549e01549e01549e01549e01549e01549e60018060a01b036012820154166101405260138101546102005201546102c052604051806103005260ff82161515905260ff8160081c161515602061030051015260018060a01b039060101c16604061030051015261012051606061030051015260018060a01b036101c05116608061030051015260ff6101c05160a01c16151560a061030051015260c061030051015260e06103005101526101006103005101526101206103005101526101406103005101526101606103005101526101806103005101526101a06103005101526101c06103005101526101e061030051015261020061030051015261022061030051015261024061030051015261014051610260610300510152610200516102806103005101526102c0516102a06103005101526102c061030051f35b503461031157602036600319011261031157612b7361460f565b6004351561108f5733815260036020526040812060ff815460081c1615610dbf576008810180546004358110612f8157612bb090600435906145b5565b9055600a8101612bc3600435825461468c565b90556040516370a0823160e01b8082523060048301526001600160a01b037f000000000000000000000000000000000000000000000000000000000000000081169291908590602084602481885afa938415610a11578294612f4a575b5060015416803b15610a1c578180916024604051809481936372424d9960e11b835260043560048401525af18015610a1157612f32575b505060209060246040518095819382523060048301525afa8015611084578490612efe575b612c8692506145b5565b600a810290808204600a1481151715612eea57612ca79060648304906145b5565b91600f8101612cba60648404825461468c565b905560108101612cce60648404825461468c565b90556040516064830481527f2b1d2104e84dd4dabb0cca024171f783ab1e1c9dc1af9d60a2361596653a99c460203392a233600052600e60205260406000209060405191612d1b83614459565b600683524263ffffffff16602084015260648404604084015260006060840181905260808401528054600160401b8110156105b157612d5f9160018201815561463f565b61059b5782518154602085015164ffffffffff1990911660ff92831617600891821b64ffffffff001617835560408501516001840155606085015160029390930180546080909601516001600160a81b031990961693909216929092179390911b610100600160a81b031692909217909155600b8101547f8f7262d5a031d4d671e1fdb0cddcd26d37185226f9e82f2f18877141ac1963eb91858215612ede575081851115612ed557600d82915b82612e3381612e1c818b6145b5565b96600c8501612e2c83825461468c565b90556145b5565b600b830155612e47600e830191825461468c565b90555b01612e5683825461468c565b9055612e7060405192839260643397048860043586614832565b0390a233600052600e6020526040600020604051612e8d81614459565b60058152602081019063ffffffff42168252604081019384526060810193600085526080820193600085528054600160401b8110156105b1576105299160018201815561463f565b600d8591612e0d565b909150600d8592612e4a565b634e487b7160e01b84526011600452602484fd5b506020823d602011612f2a575b81612f1860209383614487565b81010312610ab157612c869151612c7c565b3d9150612f0b565b612f3b90614474565b612f46578438612c57565b8480fd5b915092506020813d602011612f79575b81612f6760209383614487565b81010312610ab1578590519238612c20565b3d9150612f5a565b60405163208975e760e21b8152600490fd5b5034610311576080366003190112610311576004356001600160401b038111610a1c57612fc4903690600401614379565b91906024356001600160401b038111610f0357612fe5903690600401614379565b6044356001600160401b038111612f4657613004903690600401614379565b90916064356001600160401b03811161351357613025903690600401614379565b949097338852600360205261304060ff60408a205416615914565b338852600360205260408820966001600160401b0382116134ff57819061306a60158a015461441f565b601f81116134af575b508990601f8311600114613443578a92613438575b50508160011b916000199060031b1c19161760158701555b6001600160401b0382116134245781906130bd601688015461441f565b601f81116133d1575b508790601f831160011461336557889261335a575b50508160011b916000199060031b1c19161760168501555b60178401916001600160401b0382116118fd578190613112845461441f565b601f811161330a575b508690601f83116001146132a4578792613299575b50508160011b916000199060031b1c19161790555b60188201906001600160401b03811161328557613162825461441f565b601f8111613240575b5083601f82116001146131d95781908596601996926131ce575b50508160011b916000199060031b1c19161790555b01805460ff19166001179055337fbe4ec58a792f909e102ee3d745d0c3b34a4d437a54d903c4db098d31c556422f8280a280f35b013590503880613185565b8285526020852090601f198316865b818110613228575096839291600194601998991061320e575b505050811b01905561319a565b0135600019600384901b60f8161c19169055388080613201565b9192602060018192868c0135815501940192016131e8565b82855260208520601f830160051c8101916020841061327b575b601f0160051c01905b818110613270575061316b565b858155600101613263565b909150819061325a565b634e487b7160e01b84526041600452602484fd5b013590503880613130565b84885260208820925090601f198416885b8181106132f257509084600195949392106132d8575b505050811b019055613145565b0135600019600384901b60f8161c191690553880806132cb565b919360206001819287870135815501950192016132b5565b90915083875260208720601f840160051c81019160208510613350575b90601f859493920160051c01905b818110613342575061311b565b888155849350600101613335565b9091508190613327565b0135905038806130db565b60168801895260208920925090601f198416895b8181106133b9575090846001959493921061339f575b505050811b0160168501556130f3565b0135600019600384901b60f8161c1916905538808061338f565b91936020600181928787013581550195019201613379565b90915060168701885260208820601f840160051c8101916020851061341a575b90601f859493920160051c01905b81811061340c57506130c6565b8981558493506001016133ff565b90915081906133f1565b634e487b7160e01b87526041600452602487fd5b013590503880613088565b60158a018b5260208b20925090601f1984168b5b818110613497575090846001959493921061347d575b505050811b0160158701556130a0565b0135600019600384901b60f8161c1916905538808061346d565b91936020600181928787013581550195019201613457565b909150601589018a5260208a20601f840160051c8101602085106134f8575b90849392915b601f830160051c820181106134ea575050613073565b8c81558594506001016134d4565b50806134ce565b634e487b7160e01b89526041600452602489fd5b8680fd5b503461031157806003193601126103115760606006546007546008549060405192835260208301526040820152f35b503461031157602036600319011261031157600435338252600d602052613572604083205482106159c1565b338252600d602052600361358982604085206159a5565b5061359a60ff6004830154166159fd565b0180546135d9574290556040519081524260208201527f68733b6f87b2a7c87d5bcf8c0a0950f2985cc261d9ab6defddca8d7bd05eba4360403392a280f35b60405162461bcd60e51b815260206004820152600e60248201526d105b1c9958591e481b1bd8dad95960921b6044820152606490fd5b5034610311576020366003190112610311576020610757600435615a3c565b5034610311578060031936011261031157602060405160028152f35b5034610311576020366003190112610311576020610757600435615b01565b50346103115780600319360112610311576020600454604051908152f35b5034610311576020366003190112610311576136a161460f565b338152600d6020526136ba6040822054600435106159c1565b338152600d6020526136d1600435604083206159a5565b50600481018054906136e560ff83166159fd565b6003830154918215928315613c43575b5060ff1916905560018254920154908160011b9180830460021490151715612eea5782918115613a8157600584028481046005148515171561195257338652600360205260408620546064909104906001600160a01b039060101c811680151580613a6d575b6139d9575b5050505b6040516370a0823160e01b8082523060048301526001600160a01b037f000000000000000000000000000000000000000000000000000000000000000081169591929188916020846024818b5afa938415610f0f5783946139a5575b5060015416803b15610f03576024839260405194859384926372424d9960e11b845260048401525af1801561399a57613987575b50604051918252306004830152602082602481885afa801561397c578790613948575b61382192506145b5565b9085928061393f575b61391d575b5080613873575b600080516020615e06833981519152925061385b6040519283923396600435856154ae565b0390a26001600080516020615e468339815191525580f35b6020604051809463a9059cbb60e01b82528188816138958733600484016145e5565b03925af19283156139125785936138c5575b506138c0600080516020615e0683398151915293615951565b613836565b92506020833d60201161390a575b816138e060209383614487565b81010312612f46576138c0613903600080516020615e06833981519152946145d8565b93506138a7565b3d91506138d3565b6040513d87823e3d90fd5b809250613929916145b5565b906139368260085461468c565b6008553861382f565b5080821161382a565b506020823d602011613974575b8161396260209383614487565b81010312610ab1576138219151613817565b3d9150613955565b6040513d89823e3d90fd5b61399390979197614474565b95386137f4565b6040513d8a823e3d90fd5b9093506020813d6020116139d1575b816139c160209383614487565b81010312610f03575192386137c0565b3d91506139b4565b82602091613a039360015416908a60405180968195829463a9059cbb60e01b8452600484016145e5565b03925af190811561397c578791613a33575b50613a22575b8080613760565b613a2c91936145b5565b9138613a1b565b90506020813d602011613a65575b81613a4e60209383614487565b8101031261351357613a5f906145d8565b38613a15565b3d9150613a41565b5080885260ff604089205460081c1661375b565b92604094929451613a9181614459565b60058152600260208201526001604082015260016060820152600160808201523384526003602052604084205460018060a01b039060101c169284935b600560ff86161015613c36576064613af560ff613aed81891687615994565b5116866147ff565b048015613bf8576001600160a01b038216151580613bd6575b613b3f575b506001600160a01b0390811686526003602052604086205460101c1693613b39906150b4565b93613ace565b60015460405163a9059cbb60e01b81529060209082906001600160a01b0316818b81613b6f888a600484016145e5565b03925af190811561399a578891613b98575b5015613b1357613b9191986145b5565b9638613b13565b90506020813d602011613bce575b81613bb360209383614487565b81010312613bca57613bc4906145d8565b38613b81565b8780fd5b3d9150613ba6565b506001600160a01b03821687526003602052604087205460081c60ff16613b0e565b50936001600160a01b03851680613c14575b50613b39906150b4565b86526003602052604086205460101c6001600160a01b03169450613b39613c0a565b5092505092939193613764565b63018b82008101809111611952574210613c5d57386136f5565b60405162461bcd60e51b815260206004820152602660248201527f5374696c6c206c6f636b65643a2031302d6d6f6e746820706572696f64206e6f6044820152653a1037bb32b960d11b6064820152608490fd5b503461031157613cd9613cc336614347565b90613ccc614550565b613cd461460f565b6154ca565b6001600080516020615e468339815191525580f35b503461031157604036600319011261031157613d086142a7565b60243590613d14614550565b6001600160a01b031690811561072657600854818110613d785781613d5c7fba443e8671971c36cdeb74f87321041daff421230cbc5e36cb835269ed1d8b7e936020936145b5565b60085583855260038252600860408620016106c382825461468c565b60405162461bcd60e51b8152602060048201526012602482015271115e18d959591cc818591b5a5b881c1bdbdb60721b6044820152606490fd5b5034610311576020366003190112610311576020906040906001600160a01b03613dda6142a7565b168152600c83522054604051908152f35b50346103115780600319360112610311576001546040516001600160a01b039091168152602090f35b503461031157602036600319011261031157613e2e6142a7565b613e36614550565b6001600160a01b0316801561072657600180546001600160a01b031916821790556040519081527ffa7bd61554593f4e69cdffd255d3fe947352b02c7d3ec68059384934e4cfd47c90602090a180f35b503461031157602080600319360112610a1c576001600160a01b03613ea96142a7565b16808352600d8083526040842054928492855b8581106140225750613ecd84615d93565b94613ed785615d93565b91613ee186615d93565b94613ef4613eee88615d93565b97615d93565b988091815b858110613f655750613f2a8a613f618d613f538d613f458e613f378f8f6040519a8b9a60a08c5260a08c0190614313565b918a8303908b0152614313565b908782036040890152614313565b908582036060870152614313565b908382036080850152614313565b0390f35b8b8b8b8b8a8c8a60ff6004613f838a60408e8e8782528852206159a5565b50015416613fa1575b50505050505050613f9c90614600565b613ef9565b94614013969461400d948c97948a613fd7819f8f8f9e613f9c9f8260409160039c869e613fd0965252206159a5565b5096615260565b52613fe486855492615260565b52613ff485600185015492615260565b5261400484600284015492615260565b52015492615260565b52614600565b9390508b8b8b8b8a8c8a613f8c565b81875283835260ff60046140398360408b206159a5565b50015416614050575b61404b90614600565b613ebc565b9361405d61404b91614600565b949050614042565b5034610311576020366003190112610311576140ef906040906001600160a01b0361408e6142a7565b16815260036020522060ff6019820154166141196140ae601584016144aa565b9261410b6140be601683016144aa565b916140fd6140da60186140d3601785016144aa565b93016144aa565b9360405198899860a08a5260a08a01906142d3565b9088820360208a01526142d3565b9086820360408801526142d3565b9084820360608601526142d3565b90151560808301520390f35b503461031157806003193601126103115761413e61460f565b3381526003602052604081205460ff811615610dbf5760081c60ff1661420f576040516323b872dd60e01b815233600482015230602482015268070c1cc73b00c800006044820152602081606481857f00000000000000000000000000000000000000000000000000000000000000006001600160a01b03165af1908115610a115782916141d6575b5015610a2057613cd933614856565b90506020813d8211614207575b816141f060209383614487565b81010312610a1c57614201906145d8565b386141c7565b3d91506141e3565b604051637cdf305160e11b8152600490fd5b50346103115760203660031901126103115760409081906001600160a01b036142486142a7565b1681526003602052206010600f82015491015482519182526020820152f35b5034610311578060031936011261031157602060405168070c1cc73b00c800008152f35b905034610a1c5781600319360112610a1c576020906007548152f35b600435906001600160a01b0382168203610ab157565b602435906001600160a01b0382168203610ab157565b919082519283825260005b8481106142ff575050826000602080949584010152601f8019910116010190565b6020818301810151848301820152016142de565b90815180825260208080930193019160005b828110614333575050505090565b835185529381019392810192600101614325565b6040906003190112610ab1576004359060243590565b34610ab1576000366003190112610ab1576020604051601e8152f35b9181601f84011215610ab1578235916001600160401b038311610ab15760208381860195010111610ab157565b6060906003190112610ab1576004356001600160a01b0381168103610ab157906024359060443590565b602435908115158203610ab157565b604435908115158203610ab157565b60045481101561440957600460005260206000200190600090565b634e487b7160e01b600052603260045260246000fd5b90600182811c9216801561444f575b602083101461443957565b634e487b7160e01b600052602260045260246000fd5b91607f169161442e565b60a081019081106001600160401b038211176105b157604052565b6001600160401b0381116105b157604052565b601f909101601f19168101906001600160401b038211908210176105b157604052565b90604051918260008254926144be8461441f565b90818452600194858116908160001461452d57506001146144ea575b50506144e892500383614487565b565b9093915060005260209081600020936000915b8183106145155750506144e8935082010138806144da565b855488840185015294850194879450918301916144fd565b9150506144e894506020925060ff191682840152151560051b82010138806144da565b6000546001600160a01b0316330361456457565b60405163118cdaa760e01b8152336004820152602490fd5b1561458357565b60405162461bcd60e51b815260206004820152600a6024820152694e6f742061637469766560b01b6044820152606490fd5b919082039182116145c257565b634e487b7160e01b600052601160045260246000fd5b51908115158203610ab157565b6001600160a01b039091168152602081019190915260400190565b60001981146145c25760010190565b600080516020615e46833981519152600281541461462d5760029055565b604051633ee5aeb560e01b8152600490fd5b8054821015614409576000526003602060002091020190600090565b1561466257565b60405162461bcd60e51b81526020600482015260026024820152615a4160f01b6044820152606490fd5b919082018092116145c257565b6001600160a01b039081166000818152600360205260409020805461ff01600160b01b03191660109490941b62010000600160b01b03169390931760011783556002830180546001600160a81b0319169483169490941794151560a01b60ff60a01b16949094179092556012810180546001600160a01b031916905542601490910155600454909190600160401b8110156105b15780600161473e92016004556143ee565b909283549160031b92831b921b191617905561475b600554614600565b600555565b60018060a01b039182600092168252600391602092808452600291604091838383200154958787169560ff96898860a09a8b1c16915b169081156147f257156147d5578085528383526005868620016147b98154614600565b90555b8452828252858585200154898089838c1c169216614796565b8085528383526006868620016147eb8154614600565b90556147bc565b5050975050505050505050565b818102929181159184041417156145c257565b811561481c570490565b634e487b7160e01b600052601260045260246000fd5b9192608093969594919660a084019784526020840152604083015260608201520152565b600154604051623144bd60e31b81526001600160a01b0390911692909160009190602084600481885afa938415610f0f578394615080575b50831561506c5760405163095ea7b360e01b8152600481019590955268070c1cc73b00c8000060248087019190915294602081604481877f00000000000000000000000000000000000000000000000000000000000000006001600160a01b03165af1801561108457615033575b506001546040516370a0823160e01b808252306004830152916001600160a01b03166020828981845afa918215610a6b578692614fff575b50803b15610a60578568070c1cc73b00c8000060448a836040519586948593634e538d9360e11b85523060048601528401525af18015610a6b57614fec575b506001546040519283523060048401526020908390899082906001600160a01b03165afa8015613912578590614fb8575b6149ae92506145b5565b601e6b030e68b6d6e0acc82863363160251b86900481810296929392918188041490151715614fa557614a1d6117d6614a02606489046117ec8181816b030e68b6d6e0acc82863363160251b8990046145b5565b614a1160648a0460065461468c565b6006556064890461468c565b6008556001600160a01b038281168652600360205260408620805461ff001916610100178082556815245655b102580000600b9092019190915560019587959092909160101c165b600a60ff8816111580614f93575b15614e0257614a94876b030e68b6d6e0acc82863363160251b8690046150da565b958615614dd85786614aa59161468c565b6001600160a01b0382168952600360205260408920805491979160081c60ff169081614dc1575b5015614c98576001600160a01b03821689526003602052604089206008018054614af790839061468c565b90556001600160a01b03821689526003602052604089206009018054614b1e90839061468c565b90556040516001600160a01b0387811691908416907fb16479bdac5b7099d9236d6fc6be3b30ff54188f4fd961686e1e1dc7ecb880379080614b61868e836150c5565b0390a360018060a01b038216600052600e602052604060002060405191614b8783614459565b600183524263ffffffff166020840152604083015260ff891660608301526001600160a01b03871660808301528054600160401b811015614c8357614bd19160018201815561463f565b614c6e5781518154602084015164ffffffffff1990911660ff92831617600891821b64ffffffff001617835560408401516001840155606084015160029390930180546080909501516001600160a81b031990951693909216929092179290911b610100600160a81b03169190911790555b6001600160a01b0390811688526003602052604088205460101c1695614c68906150b4565b95614a65565b8b634e487b7160e01b60005260006004526000fd5b8c634e487b7160e01b60005260416004526000fd5b614ca48160085461468c565b6008556040516001600160a01b038316907f117ca0cd821ecb7eadfea2d6927a67853908bdc351a386235215f5ab6071bfed9080614ce3858d836150c5565b0390a260018060a01b038216600052600e602052604060002060405191614d0983614459565b600283524263ffffffff166020840152604083015260ff89166060830152600060808301528054600160401b811015614c8357614d4b9160018201815561463f565b614c6e5781518154602084015164ffffffffff1990911660ff92831617600891821b64ffffffff001617835560408401516001840155606084015160029390930180546080909501516001600160a81b031990951693909216929092179290911b610100600160a81b0316919091179055614c43565b600191500154614dd089615226565b111538614acc565b6001600160a01b0391821689526003602052604089205460101c90911696909550614c68906150b4565b5092955096959093507f8af2c013a5a55c6d3ad5423522fe76c6f2eb831b5e23318276b3c678cb457fc992806064830411614f7a575b506040516001600160a01b0386169490928392614e7492606490910491829182916b030e68b6d6e0acc82863363160251b919091049086614832565b0390a260018060a01b0316600052600e602052604060002060405191614e9983614459565b600083526020830163ffffffff42168152604084019068070c1cc73b00c800008252606085019460008652608081019460008652805490600160401b821015614f655790614eec9160018201815561463f565b949094614f515750518354915164ffffffffff1990921660ff91821617600892831b64ffffffff00161784559151600184015593516002909201805493516001600160a81b031990941692909116919091179190921b610100600160a81b0316179055565b634e487b7160e01b60005260006004526000fd5b85634e487b7160e01b60005260416004526000fd5b6117d6614f8a91606484046145b5565b60085538614e38565b506001600160a01b0381161515614a73565b634e487b7160e01b855260116004528685fd5b506020823d602011614fe4575b81614fd260209383614487565b81010312610ab1576149ae91516149a4565b3d9150614fc5565b614ff890959195614474565b9338614973565b9091506020813d60201161502b575b8161501b60209383614487565b81010312610a6057519038614934565b3d915061500e565b6020813d602011615064575b8161504c60209383614487565b81010312610a0d5761505d906145d8565b50386148fc565b3d915061503f565b634e487b7160e01b83526012600452602483fd5b9093506020813d6020116150ac575b8161509c60209383614487565b81010312610f035751923861488e565b3d915061508f565b60ff1660ff81146145c25760010190565b6020909392919360ff60408201951681520152565b9060ff166001811461520b57600281146151f057600381146151d5576004908181146151be57600581146151a157600681146151a157600781146151845760088114615184576009811461516757600a14615136575050600090565b8160011b918083046002149015171561515257506103e8900490565b601190634e487b7160e01b6000525260246000fd5b508160011b918083046002149015171561515257506103e8900490565b5060038202918083046003149015171561515257506103e8900490565b5060058202918083046005149015171561515257506103e8900490565b508180046001148215171561515257506064900490565b508060011b90808204600214901517156145c2576064900490565b506005810290808204600514901517156145c2576064900490565b506014810290808204601414901517156145c2576064900490565b60ff1660018114615243576004101561523e57600590565b600290565b50600090565b6001600160401b0381116105b15760051b60200190565b80518210156144095760209160051b010190565b818061548b575b61548457811591828061545f575b615457576005549260018085018095116145c2576152a685615249565b906152c16040966152b988519485614487565b808452615249565b9260209283810194601f19013686376000808715615438576001600160a01b03898116835260038088528b8420015416965b6001600160a01b0397881680615424575b50505b8181106153825750505080615367575b61535d575082615340575b505061533957815163c5bb5bcd60e01b8152600490fd5b9160009150565b816003929350841660005252600483600020015416153880615322565b9594505050509190565b50828516600052600382528260038760002001541615615317565b8661539661538f83614600565b9285615260565b51168060005260038088528b600020918982840154168015615411578a60048095015416156153fd57908a9392916153d76153d088614600565b9789615260565b5260005288528b6000200154166153f76153f084614600565b9385615260565b52615307565b509b50505050505050505050505090600090565b509a505050505050509594505050509190565b909250859284511561440957523880615304565b6001600160a01b038981168352600387528a83206004015416966152f3565b509160009150565b506001600160a01b038281166000908152600360205260409020600401541615615289565b9160019150565b5060018060a01b038082166000526003602052600360406000200154161561527b565b9094939260609260808301968352602083015260408201520152565b919060ff90600a828154166159035760069081549283156158ca57600090818455604685028581046046036158b657606490049561550887876145b5565b946155186009938785558b61468c565b9160049485548085116158ae575b50809b805b85811061581957508c156157ce5793944263ffffffff16945b8681106155855750505050505050509461558091600080516020615e268339815191529596600160ff19825416179055604051948594856154ae565b0390a1565b82848f8e8c91615594866143ee565b9290549260039360018060a01b0391851b1c16908187526020928484528c6040968b888b209283549a60089b8c1c16156157b957600584015490840154808210156157b15750935b600793840154808611156157a9576155f490866145b5565b955b8615615793578a916125ed8861560b936147ff565b9b8781528989528c6156238d8484200191825461468c565b905587815289895220016156388b825461468c565b9055808402908482040361577d57927fbee8f46206dc051d674f6ca1e618efe407d83b27ffbe3540b916edfd34e428e1928892838f88978882528b8b5261568660118484200191825461468c565b90558781528a8a5220015581519081528986820152a28852600e8152828820908351926156b284614459565b83528201928b84528201948552606082019488865260808301938985528254600160401b811015615769576156ee90600194858201815561463f565b94909461575657518454915164ffffffffff19909216908c161790861b64ffffffff001617835551908201559251600293909301805491516001600160a81b031990921693881693909317911b610100600160a81b031617905561575190614600565b615544565b8f8b80602492634e487b7160e01b825252fd5b8f8b6041602492634e487b7160e01b835252fd5b50508f8b6011602492634e487b7160e01b835252fd5b5050505050505050505050505061575190614600565b508b956155f6565b9050936155dc565b50505050505050505050505061575190614600565b5096915050600080516020615e268339815191529899508594506157fb9293506117d6915060809761468c565b600855556040519182528060208301528060408301526060820152a1565b615822816143ee565b9054600391821b1c6001600160a01b0316845260205260408320805460081c8516156158a457600760058201548783015480821060001461589c5750915b01549081811161587b575b505061587690614600565b61552b565b9e615876929f6158949261588e916145b5565b9061468c565b9d903861586b565b905091615860565b5061587690614600565b935038615526565b634e487b7160e01b83526011600452602483fd5b60405162461bcd60e51b8152602060048201526011602482015270115b5c1d1e48189a5b985c9e481c1bdbdb607a1b6044820152606490fd5b60405162c9487960e41b8152600490fd5b1561591b57565b60405162461bcd60e51b815260206004820152600e60248201526d139bdd081c9959da5cdd195c995960921b6044820152606490fd5b1561595857565b60405162461bcd60e51b81526020600482015260146024820152731554d115081d1c985b9cd9995c8819985a5b195960621b6044820152606490fd5b9060058110156144095760051b0190565b8054821015614409576000526005602060002091020190600090565b156159c857565b60405162461bcd60e51b815260206004820152600d60248201526c092dcecc2d8d2c840d2dcc8caf609b1b6044820152606490fd5b15615a0457565b60405162461bcd60e51b815260206004820152601060248201526f105b1c9958591e481d5b9cdd185ad95960821b6044820152606490fd5b6002546001600160a01b0316908115615ab8576020906024604051809481936347cd519160e01b835260048301525afa908115615aac57600091615a7e575090565b906020823d8211615aa4575b81615a9760209383614487565b8101031261031157505190565b3d9150615a8a565b6040513d6000823e3d90fd5b5050600090565b6002546001600160a01b0316908115615ab8576020906024604051809481936375b1f0e160e11b835260048301525afa908115615aac57600091615a7e575090565b6002546001600160a01b0316908115615ab857602090602460405180948193631d61396160e11b835260048301525afa908115615aac57600091615a7e575090565b6002546001600160a01b03908116918215615bee57166024600082815260206003815280600f60408420015495604051948580926347cd519160e01b8252600160048301525afa928315610a11578293615bbe575b5060ff9160036040928596835252205460081c169081615bb6575092565b905082101592565b9080935081813d8311615be7575b615bd68183614487565b81010312610a1c57519160ff615b98565b503d615bcc565b505050600090600090600090565b929060018060a01b0380600095168552602090600e82526040908187209283549687158015615d89575b615d4d57615c3486896145b5565b80821015615d455750935b615c4885615249565b95615c5585519788614487565b858752601f19615c6487615249565b01838b5b828110615d13575050508699805b878110615c8857505050505050505050565b6000198b018b81116158b65790615caf615ca9826117ec87615d0e966145b5565b8661463f565b5087895191615cbd83614459565b8054600260ff92838316865263ffffffff600893841c168c8701528d600182015490870152015491821660608501521c166080820152615cfd828c615260565b52615d08818b615260565b50614600565b615c76565b8751615d1e81614459565b8d81528d838201528d898201528d60608201528d608082015282828c010152018490615c68565b905093615c3f565b5082519697959695945085019250506001600160401b03821184831017615d75575281529190565b634e487b7160e01b83526041600452602483fd5b5087861015615c26565b90615d9d82615249565b615daa6040519182614487565b8281528092615dbb601f1991615249565b019060203691013756fe34ff37874d7443037a85c6f390fe14f2ae3e8767355de0e63891ad4367c275398be0079c531659141344cd1fd0a4f28419497f9722a3daafe3b4186f6b6457e0dcfd2b4017d03f7e541021db793b2f9b31e4acdee005f789e52853c390e3e962a0ea5705200c9ffd36dc735fef1592c3234bb7e311fc1b0a444f6370d0620eae9b779b17422d0df92223018b32b4d1fa46e071723d6817e2486d003becc55f00a2646970667358221220979a31b0a5c0a73cf37a5eb562d42acf3e1dcdc91a0d1ec32ad9160a4af82f1764736f6c63430008140033","opcodes":"PUSH1 0xA0 CALLVALUE PUSH3 0x175 JUMPI PUSH1 0x1F PUSH3 0x6041 CODESIZE DUP2 SWAP1 SUB SWAP2 DUP3 ADD PUSH1 0x1F NOT AND DUP4 ADD SWAP2 PUSH1 0x1 PUSH1 0x1 PUSH1 0x40 SHL SUB DUP4 GT DUP5 DUP5 LT OR PUSH3 0x17A JUMPI DUP1 DUP5 SWAP3 PUSH1 0x40 SWAP5 DUP6 MSTORE DUP4 CODECOPY DUP2 ADD SUB SLT PUSH3 0x175 JUMPI PUSH3 0x5A PUSH1 0x20 PUSH3 0x52 DUP4 PUSH3 0x190 JUMP JUMPDEST SWAP3 ADD PUSH3 0x190 JUMP JUMPDEST SWAP1 CALLER ISZERO PUSH3 0x15C JUMPI PUSH1 0x0 SLOAD SWAP2 PUSH1 0x1 DUP1 PUSH1 0xA0 SHL SUB NOT SWAP3 CALLER DUP5 DUP3 AND OR PUSH1 0x0 SSTORE PUSH1 0x40 MLOAD SWAP1 PUSH1 0x1 DUP1 PUSH1 0xA0 SHL SUB SWAP4 DUP5 SWAP2 DUP3 CALLER SWAP2 AND PUSH32 0x8BE0079C531659141344CD1FD0A4F28419497F9722A3DAAFE3B4186F6B6457E0 PUSH1 0x0 DUP1 LOG3 PUSH1 0x1 PUSH32 0x9B779B17422D0DF92223018B32B4D1FA46E071723D6817E2486D003BECC55F00 SSTORE AND SWAP1 DUP2 ISZERO DUP1 ISZERO PUSH3 0x151 JUMPI JUMPDEST PUSH3 0x142 JUMPI POP PUSH1 0x80 MSTORE AND SWAP1 PUSH1 0x1 SLOAD AND OR PUSH1 0x1 SSTORE PUSH1 0x40 MLOAD PUSH2 0x5E9B SWAP1 DUP2 PUSH3 0x1A6 DUP3 CODECOPY PUSH1 0x80 MLOAD DUP2 DUP2 DUP2 PUSH2 0x869 ADD MSTORE DUP2 DUP2 PUSH2 0xF85 ADD MSTORE DUP2 DUP2 PUSH2 0x12CF ADD MSTORE DUP2 DUP2 PUSH2 0x146B ADD MSTORE DUP2 DUP2 PUSH2 0x1D39 ADD MSTORE DUP2 DUP2 PUSH2 0x2BE3 ADD MSTORE DUP2 DUP2 PUSH2 0x3782 ADD MSTORE DUP2 DUP2 PUSH2 0x418F ADD MSTORE PUSH2 0x48C7 ADD MSTORE RETURN JUMPDEST PUSH4 0xD92E233D PUSH1 0xE0 SHL DUP2 MSTORE PUSH1 0x4 SWAP1 REVERT JUMPDEST POP DUP4 DUP4 AND ISZERO PUSH3 0xDE JUMP JUMPDEST PUSH1 0x40 MLOAD PUSH4 0x1E4FBDF7 PUSH1 0xE0 SHL DUP2 MSTORE PUSH1 0x0 PUSH1 0x4 DUP3 ADD MSTORE PUSH1 0x24 SWAP1 REVERT JUMPDEST PUSH1 0x0 DUP1 REVERT JUMPDEST PUSH4 0x4E487B71 PUSH1 0xE0 SHL PUSH1 0x0 MSTORE PUSH1 0x41 PUSH1 0x4 MSTORE PUSH1 0x24 PUSH1 0x0 REVERT JUMPDEST MLOAD SWAP1 PUSH1 0x1 PUSH1 0x1 PUSH1 0xA0 SHL SUB DUP3 AND DUP3 SUB PUSH3 0x175 JUMPI JUMP INVALID PUSH2 0x320 DUP1 PUSH1 0x40 MSTORE PUSH1 0x4 CALLDATASIZE LT ISZERO PUSH2 0x14 JUMPI PUSH1 0x0 DUP1 REVERT JUMPDEST PUSH1 0x0 SWAP1 DUP2 CALLDATALOAD PUSH1 0xE0 SHR SWAP1 DUP2 PUSH4 0x266F044 EQ PUSH2 0x428B JUMPI POP DUP1 PUSH4 0x39CCC26 EQ PUSH2 0x4267 JUMPI DUP1 PUSH4 0x3C3ECB7 EQ PUSH2 0x4221 JUMPI DUP1 PUSH4 0xF15F4C0 EQ PUSH2 0x4125 JUMPI DUP1 PUSH4 0xF53A470 EQ PUSH2 0x4065 JUMPI DUP1 PUSH4 0x1747E0B0 EQ PUSH2 0x3E86 JUMPI DUP1 PUSH4 0x1CE5E894 EQ PUSH2 0x3E14 JUMPI DUP1 PUSH4 0x1F6259D5 EQ PUSH2 0x3DEB JUMPI DUP1 PUSH4 0x2335821B EQ PUSH2 0x3DB2 JUMPI DUP1 PUSH4 0x2808BC8D EQ PUSH2 0x3CEE JUMPI DUP1 PUSH4 0x2D641F08 EQ PUSH2 0x3CB1 JUMPI DUP1 PUSH4 0x2E17DE78 EQ PUSH2 0x3687 JUMPI DUP1 PUSH4 0x38ABFC41 EQ PUSH2 0x3669 JUMPI DUP1 PUSH4 0x3AC272C2 EQ PUSH2 0x364A JUMPI DUP1 PUSH4 0x3CCB13D3 EQ PUSH2 0x362E JUMPI DUP1 PUSH4 0x44E374D5 EQ PUSH2 0x1241 JUMPI DUP1 PUSH4 0x47CD5191 EQ PUSH2 0x360F JUMPI DUP1 PUSH4 0x485D3834 EQ PUSH2 0xB39 JUMPI DUP1 PUSH4 0x4B3F0D45 EQ PUSH2 0x3546 JUMPI DUP1 PUSH4 0x52375BB1 EQ PUSH2 0x3517 JUMPI DUP1 PUSH4 0x55509C8F EQ PUSH2 0x2F93 JUMPI DUP1 PUSH4 0x634F627E EQ PUSH2 0x2B59 JUMPI DUP1 PUSH4 0x6386C1C7 EQ PUSH2 0x2989 JUMPI DUP1 PUSH4 0x68DDB2B5 EQ PUSH2 0x28B1 JUMPI DUP1 PUSH4 0x715018A6 EQ PUSH2 0x2869 JUMPI DUP1 PUSH4 0x7435F421 EQ PUSH2 0x27CB JUMPI DUP1 PUSH4 0x77537844 EQ PUSH2 0x1241 JUMPI DUP1 PUSH4 0x7F1B4064 EQ PUSH2 0x27AD JUMPI DUP1 PUSH4 0x8431FDD7 EQ PUSH2 0x2789 JUMPI DUP1 PUSH4 0x8A8F0429 EQ PUSH2 0x246B JUMPI DUP1 PUSH4 0x8DA5CB5B EQ PUSH2 0x2444 JUMPI DUP1 PUSH4 0x92446E30 EQ PUSH2 0x2428 JUMPI DUP1 PUSH4 0x94915DD0 EQ PUSH2 0x2098 JUMPI DUP1 PUSH4 0x9499A351 EQ PUSH2 0x205F JUMPI DUP1 PUSH4 0xA2BDEDF4 EQ PUSH2 0x201B JUMPI DUP1 PUSH4 0xA87430BA EQ PUSH2 0x1D68 JUMPI DUP1 PUSH4 0xA98AD46C EQ PUSH2 0x1D23 JUMPI DUP1 PUSH4 0xAA33F5D5 EQ PUSH2 0x1B2B JUMPI DUP1 PUSH4 0xAA393757 EQ PUSH2 0x1B07 JUMPI DUP1 PUSH4 0xABE50F19 EQ PUSH2 0x13E0 JUMPI DUP1 PUSH4 0xB58E0278 EQ PUSH2 0x1264 JUMPI DUP1 PUSH4 0xB86A1FB2 EQ PUSH2 0x1246 JUMPI DUP1 PUSH4 0xBE648BDB EQ PUSH2 0x1241 JUMPI DUP1 PUSH4 0xBFF1F9E1 EQ PUSH2 0x1223 JUMPI DUP1 PUSH4 0xC9D484CF EQ PUSH2 0x11FA JUMPI DUP1 PUSH4 0xCE8292F5 EQ PUSH2 0x1166 JUMPI DUP1 PUSH4 0xCF57EE69 EQ PUSH2 0x112D JUMPI DUP1 PUSH4 0xCFD47663 EQ PUSH2 0x10A1 JUMPI DUP1 PUSH4 0xD3635A02 EQ PUSH2 0xF1A JUMPI DUP1 PUSH4 0xD4A90286 EQ PUSH2 0xE48 JUMPI DUP1 PUSH4 0xE0E01011 EQ PUSH2 0xB58 JUMPI DUP1 PUSH4 0xE239C400 EQ PUSH2 0xB39 JUMPI DUP1 PUSH4 0xE3BA9BDA EQ PUSH2 0xACF JUMPI DUP1 PUSH4 0xE4093A66 EQ PUSH2 0x7AD JUMPI DUP1 PUSH4 0xE51CB530 EQ PUSH2 0x75F JUMPI DUP1 PUSH4 0xEB63E1C2 EQ PUSH2 0x738 JUMPI DUP1 PUSH4 0xEC50324A EQ PUSH2 0x639 JUMPI DUP1 PUSH4 0xF00B0093 EQ PUSH2 0x600 JUMPI DUP1 PUSH4 0xF0B7B9DC EQ PUSH2 0x403 JUMPI DUP1 PUSH4 0xF24C536A EQ PUSH2 0x38A JUMPI DUP1 PUSH4 0xF2FDE38B EQ PUSH2 0x314 JUMPI PUSH4 0xFB72CA35 EQ PUSH2 0x2CC JUMPI PUSH1 0x0 DUP1 REVERT JUMPDEST CALLVALUE PUSH2 0x311 JUMPI PUSH1 0x20 CALLDATASIZE PUSH1 0x3 NOT ADD SLT PUSH2 0x311 JUMPI PUSH1 0x40 SWAP1 PUSH1 0x1 PUSH1 0x1 PUSH1 0xA0 SHL SUB PUSH2 0x2F0 PUSH2 0x42A7 JUMP JUMPDEST AND DUP2 MSTORE PUSH1 0xB PUSH1 0x20 MSTORE DUP2 DUP1 DUP3 KECCAK256 SLOAD SWAP2 PUSH1 0xC PUSH1 0x20 MSTORE KECCAK256 SLOAD DUP3 MLOAD SWAP2 DUP3 MSTORE PUSH1 0x20 DUP3 ADD MSTORE RETURN JUMPDEST DUP1 REVERT JUMPDEST POP CALLVALUE PUSH2 0x311 JUMPI PUSH1 0x20 CALLDATASIZE PUSH1 0x3 NOT ADD SLT PUSH2 0x311 JUMPI PUSH2 0x32E PUSH2 0x42A7 JUMP JUMPDEST PUSH2 0x336 PUSH2 0x4550 JUMP JUMPDEST PUSH1 0x1 PUSH1 0x1 PUSH1 0xA0 SHL SUB SWAP1 DUP2 AND SWAP1 DUP2 ISZERO PUSH2 0x371 JUMPI PUSH1 0x0 SLOAD DUP3 PUSH1 0x1 DUP1 PUSH1 0xA0 SHL SUB NOT DUP3 AND OR PUSH1 0x0 SSTORE AND PUSH1 0x0 DUP1 MLOAD PUSH1 0x20 PUSH2 0x5DE6 DUP4 CODECOPY DUP2 MLOAD SWAP2 MSTORE PUSH1 0x0 DUP1 LOG3 DUP1 RETURN JUMPDEST PUSH1 0x40 MLOAD PUSH4 0x1E4FBDF7 PUSH1 0xE0 SHL DUP2 MSTORE PUSH1 0x4 DUP2 ADD DUP5 SWAP1 MSTORE PUSH1 0x24 SWAP1 REVERT JUMPDEST POP CALLVALUE PUSH2 0x311 JUMPI PUSH1 0x20 CALLDATASIZE PUSH1 0x3 NOT ADD SLT PUSH2 0x311 JUMPI PUSH1 0x40 SWAP1 PUSH1 0x1 PUSH1 0x1 PUSH1 0xA0 SHL SUB PUSH2 0x3AF PUSH2 0x42A7 JUMP JUMPDEST AND DUP2 MSTORE PUSH1 0x3 PUSH1 0x20 MSTORE DUP2 DUP2 KECCAK256 SWAP1 PUSH1 0x7 PUSH1 0x5 DUP4 ADD SLOAD PUSH1 0x6 DUP5 ADD SLOAD DUP1 DUP3 LT PUSH1 0x0 EQ PUSH2 0x3FB JUMPI POP SWAP3 JUMPDEST ADD SLOAD DUP1 DUP4 GT ISZERO PUSH2 0x3F5 JUMPI PUSH2 0x3E9 SWAP2 POP DUP3 PUSH2 0x45B5 JUMP JUMPDEST DUP3 MLOAD SWAP2 DUP3 MSTORE PUSH1 0x20 DUP3 ADD MSTORE RETURN JUMPDEST POP PUSH2 0x3E9 JUMP JUMPDEST SWAP1 POP SWAP3 PUSH2 0x3D4 JUMP JUMPDEST POP CALLVALUE PUSH2 0x311 JUMPI PUSH2 0x412 CALLDATASIZE PUSH2 0x43A6 JUMP JUMPDEST SWAP2 PUSH2 0x41B PUSH2 0x460F JUMP JUMPDEST PUSH1 0x2 SLOAD PUSH1 0x1 PUSH1 0x1 PUSH1 0xA0 SHL SUB SWAP2 SWAP1 DUP3 AND CALLER SUB PUSH2 0x5C7 JUMPI AND SWAP1 PUSH2 0x43D DUP3 ISZERO ISZERO PUSH2 0x465B JUMP JUMPDEST PUSH2 0x448 DUP2 ISZERO ISZERO PUSH2 0x465B JUMP JUMPDEST DUP2 DUP5 MSTORE PUSH1 0x20 SWAP2 PUSH1 0x3 DUP4 MSTORE PUSH1 0xC PUSH1 0x40 DUP7 KECCAK256 ADD PUSH2 0x464 DUP4 DUP3 SLOAD PUSH2 0x468C JUMP JUMPDEST SWAP1 SSTORE DUP1 DUP6 MSTORE PUSH1 0x3 DUP4 MSTORE PUSH1 0xE PUSH1 0x40 DUP7 KECCAK256 ADD PUSH2 0x47F DUP4 DUP3 SLOAD PUSH2 0x468C JUMP JUMPDEST SWAP1 SSTORE DUP1 DUP6 MSTORE PUSH1 0xC DUP4 MSTORE PUSH1 0x40 DUP6 KECCAK256 PUSH2 0x497 DUP4 DUP3 SLOAD PUSH2 0x468C JUMP JUMPDEST SWAP1 SSTORE DUP1 PUSH32 0x2393ACB59B41DD645F68FE97BAB0DEBA2A21B99EFC69761E9B2762F11BBBE79D PUSH1 0x40 DUP1 MLOAD DUP6 DUP2 MSTORE DUP8 DUP8 DUP3 ADD MSTORE LOG2 PUSH1 0x0 MSTORE PUSH1 0xE DUP3 MSTORE PUSH1 0x40 PUSH1 0x0 KECCAK256 SWAP2 PUSH1 0x40 MLOAD SWAP1 PUSH2 0x4E2 DUP3 PUSH2 0x4459 JUMP JUMPDEST PUSH1 0xB DUP3 MSTORE DUP2 ADD SWAP2 PUSH4 0xFFFFFFFF TIMESTAMP AND DUP4 MSTORE PUSH1 0x40 DUP3 ADD SWAP1 DUP2 MSTORE PUSH1 0xFF PUSH1 0x60 DUP4 ADD SWAP6 AND DUP6 MSTORE PUSH1 0x80 DUP3 ADD SWAP4 PUSH1 0x0 DUP6 MSTORE DUP1 SLOAD PUSH1 0x1 PUSH1 0x40 SHL DUP2 LT ISZERO PUSH2 0x5B1 JUMPI PUSH2 0x529 SWAP2 PUSH1 0x1 DUP3 ADD DUP2 SSTORE PUSH2 0x463F JUMP JUMPDEST SWAP2 SWAP1 SWAP2 PUSH2 0x59B JUMPI PUSH1 0xFF SWAP4 DUP5 PUSH1 0x2 SWAP5 MLOAD AND PUSH5 0xFFFFFFFF00 DUP5 SLOAD SWAP3 DUP3 DUP9 NOT DUP6 AND OR DUP7 SSTORE MLOAD PUSH1 0x8 SHL AND SWAP2 PUSH5 0xFFFFFFFFFF NOT AND OR OR DUP3 SSTORE MLOAD PUSH1 0x1 DUP3 ADD SSTORE ADD SWAP3 MLOAD AND DUP3 SLOAD SWAP2 PUSH2 0x100 PUSH1 0x1 PUSH1 0xA8 SHL SUB SWAP1 MLOAD PUSH1 0x8 SHL AND SWAP2 PUSH1 0x1 DUP1 PUSH1 0xA8 SHL SUB NOT AND OR OR SWAP1 SSTORE PUSH1 0x1 PUSH1 0x0 DUP1 MLOAD PUSH1 0x20 PUSH2 0x5E46 DUP4 CODECOPY DUP2 MLOAD SWAP2 MSTORE SSTORE DUP1 RETURN JUMPDEST PUSH4 0x4E487B71 PUSH1 0xE0 SHL PUSH1 0x0 MSTORE PUSH1 0x0 PUSH1 0x4 MSTORE PUSH1 0x24 PUSH1 0x0 REVERT JUMPDEST PUSH4 0x4E487B71 PUSH1 0xE0 SHL PUSH1 0x0 MSTORE PUSH1 0x41 PUSH1 0x4 MSTORE PUSH1 0x24 PUSH1 0x0 REVERT JUMPDEST PUSH1 0x40 MLOAD PUSH3 0x461BCD PUSH1 0xE5 SHL DUP2 MSTORE PUSH1 0x20 PUSH1 0x4 DUP3 ADD MSTORE PUSH1 0x11 PUSH1 0x24 DUP3 ADD MSTORE PUSH17 0x2737BA103137B0B932103430B7323632B9 PUSH1 0x79 SHL PUSH1 0x44 DUP3 ADD MSTORE PUSH1 0x64 SWAP1 REVERT JUMPDEST POP CALLVALUE PUSH2 0x311 JUMPI PUSH1 0x20 CALLDATASIZE PUSH1 0x3 NOT ADD SLT PUSH2 0x311 JUMPI PUSH1 0x20 SWAP1 PUSH1 0x40 SWAP1 PUSH1 0x1 PUSH1 0x1 PUSH1 0xA0 SHL SUB PUSH2 0x628 PUSH2 0x42A7 JUMP JUMPDEST AND DUP2 MSTORE PUSH1 0xB DUP4 MSTORE KECCAK256 SLOAD PUSH1 0x40 MLOAD SWAP1 DUP2 MSTORE RETURN JUMPDEST POP CALLVALUE PUSH2 0x311 JUMPI PUSH1 0x40 CALLDATASIZE PUSH1 0x3 NOT ADD SLT PUSH2 0x311 JUMPI PUSH2 0x653 PUSH2 0x42A7 JUMP JUMPDEST PUSH1 0x24 CALLDATALOAD SWAP1 PUSH2 0x65F PUSH2 0x4550 JUMP JUMPDEST PUSH1 0x1 PUSH1 0x1 PUSH1 0xA0 SHL SUB AND SWAP1 DUP2 ISZERO PUSH2 0x726 JUMPI PUSH1 0x7 SLOAD DUP2 DUP2 LT PUSH2 0x6EA JUMPI DUP2 PUSH2 0x6A7 PUSH32 0x529AFC4538720FE0B3EADC40486369AB962002D72FEAD1387B300C66073E7BF SWAP4 PUSH1 0x20 SWAP4 PUSH2 0x45B5 JUMP JUMPDEST PUSH1 0x7 SSTORE DUP4 DUP6 MSTORE PUSH1 0x3 DUP3 MSTORE PUSH1 0x8 PUSH1 0x40 DUP7 KECCAK256 ADD PUSH2 0x6C3 DUP3 DUP3 SLOAD PUSH2 0x468C JUMP JUMPDEST SWAP1 SSTORE DUP4 DUP6 MSTORE PUSH1 0x3 DUP3 MSTORE PUSH1 0x9 PUSH1 0x40 DUP7 KECCAK256 ADD PUSH2 0x6DE DUP3 DUP3 SLOAD PUSH2 0x468C JUMP JUMPDEST SWAP1 SSTORE PUSH1 0x40 MLOAD SWAP1 DUP2 MSTORE LOG2 DUP1 RETURN JUMPDEST PUSH1 0x40 MLOAD PUSH3 0x461BCD PUSH1 0xE5 SHL DUP2 MSTORE PUSH1 0x20 PUSH1 0x4 DUP3 ADD MSTORE PUSH1 0x14 PUSH1 0x24 DUP3 ADD MSTORE PUSH20 0x115E18D959591CC81C995CD95C9D99481C1BDBDB PUSH1 0x62 SHL PUSH1 0x44 DUP3 ADD MSTORE PUSH1 0x64 SWAP1 REVERT JUMPDEST PUSH1 0x40 MLOAD PUSH4 0xD92E233D PUSH1 0xE0 SHL DUP2 MSTORE PUSH1 0x4 SWAP1 REVERT JUMPDEST POP CALLVALUE PUSH2 0x311 JUMPI PUSH1 0x20 CALLDATASIZE PUSH1 0x3 NOT ADD SLT PUSH2 0x311 JUMPI PUSH1 0x20 PUSH2 0x757 PUSH1 0x4 CALLDATALOAD PUSH2 0x5ABF JUMP JUMPDEST PUSH1 0x40 MLOAD SWAP1 DUP2 MSTORE RETURN JUMPDEST POP CALLVALUE PUSH2 0x311 JUMPI PUSH1 0x20 CALLDATASIZE PUSH1 0x3 NOT ADD SLT PUSH2 0x311 JUMPI PUSH1 0x40 SWAP1 PUSH1 0xD SWAP1 DUP3 SWAP1 PUSH1 0x1 PUSH1 0x1 PUSH1 0xA0 SHL SUB PUSH2 0x789 PUSH2 0x42A7 JUMP JUMPDEST AND DUP2 MSTORE PUSH1 0x3 PUSH1 0x20 MSTORE KECCAK256 ADD SLOAD DUP2 MLOAD SWAP1 PUSH9 0x70C1CC73B00C80000 DUP2 LT ISZERO DUP3 MSTORE PUSH1 0x20 DUP3 ADD MSTORE RETURN JUMPDEST POP CALLVALUE PUSH2 0x311 JUMPI DUP1 PUSH1 0x3 NOT CALLDATASIZE ADD SLT PUSH2 0x311 JUMPI PUSH2 0x7C6 PUSH2 0x460F JUMP JUMPDEST PUSH1 0x2 SLOAD PUSH1 0x1 PUSH1 0x1 PUSH1 0xA0 SHL SUB SWAP1 DUP2 AND SWAP1 DUP2 ISZERO PUSH2 0xABD JUMPI CALLER DUP4 MSTORE PUSH1 0x20 PUSH1 0x3 DUP2 MSTORE PUSH1 0x40 DUP5 KECCAK256 SWAP2 PUSH2 0x7F9 PUSH1 0xFF DUP5 SLOAD PUSH1 0x8 SHR AND PUSH2 0x457C JUMP JUMPDEST PUSH1 0x40 MLOAD SWAP3 PUSH4 0x47CD5191 PUSH1 0xE0 SHL DUP5 MSTORE DUP3 DUP5 PUSH1 0x24 DUP2 PUSH1 0x1 SWAP9 DUP10 PUSH1 0x4 DUP4 ADD MSTORE GAS STATICCALL SWAP4 DUP5 ISZERO PUSH2 0xA6B JUMPI DUP7 SWAP5 PUSH2 0xA88 JUMPI JUMPDEST POP PUSH1 0xF ADD DUP1 SLOAD DUP5 DUP2 LT PUSH2 0xA76 JUMPI DUP5 PUSH2 0x83C SWAP2 PUSH2 0x45B5 JUMP JUMPDEST SWAP1 SSTORE PUSH2 0x863 DUP3 DUP5 DUP4 PUSH1 0x2 SLOAD AND PUSH1 0x40 MLOAD SWAP4 DUP5 SWAP3 DUP4 SWAP3 PUSH4 0xA9059CBB PUSH1 0xE0 SHL DUP5 MSTORE PUSH1 0x4 DUP5 ADD PUSH2 0x45E5 JUMP JUMPDEST SUB DUP2 DUP10 DUP7 PUSH32 0x0 AND GAS CALL SWAP1 DUP2 ISZERO PUSH2 0xA6B JUMPI DUP7 SWAP2 PUSH2 0xA32 JUMPI JUMPDEST POP ISZERO PUSH2 0xA20 JUMPI DUP5 SWAP1 CALLER DUP3 MSTORE PUSH1 0xB DUP4 MSTORE PUSH1 0x40 DUP3 KECCAK256 PUSH2 0x8B6 DUP2 SLOAD PUSH2 0x4600 JUMP JUMPDEST SWAP1 SSTORE PUSH1 0x2 SLOAD AND DUP1 EXTCODESIZE ISZERO PUSH2 0xA1C JUMPI DUP2 DUP1 SWAP2 PUSH1 0x44 PUSH1 0x40 MLOAD DUP1 SWAP5 DUP2 SWAP4 PUSH4 0x686A38BD PUSH1 0xE0 SHL DUP4 MSTORE CALLER PUSH1 0x4 DUP5 ADD MSTORE DUP11 PUSH1 0x24 DUP5 ADD MSTORE GAS CALL DUP1 ISZERO PUSH2 0xA11 JUMPI PUSH2 0x9F9 JUMPI JUMPDEST POP POP PUSH1 0x40 MLOAD DUP4 DUP2 MSTORE DUP3 DUP3 DUP3 ADD MSTORE PUSH32 0x4E755DD64E53A9F7A5882E2E32EB64718C2273DE11E017BD47129B9FE2716D7C PUSH1 0x40 CALLER SWAP3 LOG2 CALLER PUSH1 0x0 MSTORE PUSH1 0xE DUP2 MSTORE PUSH1 0x40 PUSH1 0x0 KECCAK256 SWAP1 PUSH1 0x40 MLOAD SWAP1 PUSH2 0x940 DUP3 PUSH2 0x4459 JUMP JUMPDEST PUSH1 0xA DUP3 MSTORE DUP2 ADD SWAP1 PUSH4 0xFFFFFFFF TIMESTAMP AND DUP3 MSTORE PUSH1 0x40 DUP2 ADD SWAP4 DUP5 MSTORE PUSH1 0x60 DUP2 ADD SWAP4 DUP6 DUP6 MSTORE PUSH1 0x80 DUP3 ADD SWAP4 PUSH1 0x0 DUP6 MSTORE DUP1 SLOAD PUSH1 0x1 PUSH1 0x40 SHL DUP2 LT ISZERO PUSH2 0x5B1 JUMPI PUSH2 0x984 SWAP2 DUP9 DUP3 ADD DUP2 SSTORE PUSH2 0x463F JUMP JUMPDEST SWAP2 SWAP1 SWAP2 PUSH2 0x59B JUMPI SWAP2 MLOAD DUP2 SLOAD SWAP4 MLOAD PUSH5 0xFFFFFFFFFF NOT SWAP1 SWAP5 AND PUSH1 0xFF SWAP2 DUP3 AND OR PUSH1 0x8 SWAP5 DUP6 SHL PUSH5 0xFFFFFFFF00 AND OR DUP3 SSTORE SWAP2 MLOAD DUP7 DUP3 ADD SSTORE SWAP4 MLOAD PUSH1 0x2 SWAP5 SWAP1 SWAP5 ADD DUP1 SLOAD SWAP4 MLOAD PUSH1 0x1 PUSH1 0x1 PUSH1 0xA8 SHL SUB NOT SWAP1 SWAP5 AND SWAP5 SWAP1 SWAP2 AND SWAP4 SWAP1 SWAP4 OR SWAP2 SWAP1 SHL PUSH2 0x100 PUSH1 0x1 PUSH1 0xA8 SHL SUB AND OR SWAP1 SSTORE PUSH1 0x0 DUP1 MLOAD PUSH1 0x20 PUSH2 0x5E46 DUP4 CODECOPY DUP2 MLOAD SWAP2 MSTORE SSTORE DUP1 RETURN JUMPDEST PUSH2 0xA02 SWAP1 PUSH2 0x4474 JUMP JUMPDEST PUSH2 0xA0D JUMPI DUP4 CODESIZE PUSH2 0x8F2 JUMP JUMPDEST DUP4 DUP1 REVERT JUMPDEST PUSH1 0x40 MLOAD RETURNDATASIZE DUP5 DUP3 RETURNDATACOPY RETURNDATASIZE SWAP1 REVERT JUMPDEST POP DUP1 REVERT JUMPDEST PUSH1 0x40 MLOAD PUSH4 0x12171D83 PUSH1 0xE3 SHL DUP2 MSTORE PUSH1 0x4 SWAP1 REVERT JUMPDEST SWAP1 POP DUP3 DUP2 DUP2 RETURNDATASIZE DUP4 GT PUSH2 0xA64 JUMPI JUMPDEST PUSH2 0xA49 DUP2 DUP4 PUSH2 0x4487 JUMP JUMPDEST DUP2 ADD SUB SLT PUSH2 0xA60 JUMPI PUSH2 0xA5A SWAP1 PUSH2 0x45D8 JUMP JUMPDEST CODESIZE PUSH2 0x899 JUMP JUMPDEST DUP6 DUP1 REVERT JUMPDEST POP RETURNDATASIZE PUSH2 0xA3F JUMP JUMPDEST PUSH1 0x40 MLOAD RETURNDATASIZE DUP9 DUP3 RETURNDATACOPY RETURNDATASIZE SWAP1 REVERT JUMPDEST PUSH1 0x40 MLOAD PUSH4 0x856D687 PUSH1 0xE1 SHL DUP2 MSTORE PUSH1 0x4 SWAP1 REVERT JUMPDEST SWAP1 SWAP4 POP DUP3 DUP2 DUP2 RETURNDATASIZE DUP4 GT PUSH2 0xAB6 JUMPI JUMPDEST PUSH2 0xAA0 DUP2 DUP4 PUSH2 0x4487 JUMP JUMPDEST DUP2 ADD SUB SLT PUSH2 0xAB1 JUMPI MLOAD SWAP3 PUSH1 0xF PUSH2 0x825 JUMP JUMPDEST PUSH1 0x0 DUP1 REVERT JUMPDEST POP RETURNDATASIZE PUSH2 0xA96 JUMP JUMPDEST PUSH1 0x40 MLOAD PUSH4 0x632100F7 PUSH1 0xE1 SHL DUP2 MSTORE PUSH1 0x4 SWAP1 REVERT JUMPDEST POP CALLVALUE PUSH2 0x311 JUMPI PUSH1 0x20 CALLDATASIZE PUSH1 0x3 NOT ADD SLT PUSH2 0x311 JUMPI PUSH2 0xAE9 PUSH2 0x42A7 JUMP JUMPDEST PUSH2 0xAF1 PUSH2 0x4550 JUMP JUMPDEST PUSH1 0x1 PUSH1 0x1 PUSH1 0xA0 SHL SUB AND DUP1 ISZERO PUSH2 0x726 JUMPI PUSH1 0x2 DUP1 SLOAD PUSH1 0x1 PUSH1 0x1 PUSH1 0xA0 SHL SUB NOT AND DUP3 OR SWAP1 SSTORE PUSH32 0x49424F87D81E4374EE3E8D1CF7B880966981A3CF6A7AC1D7A66C13D91756FCCC DUP3 DUP1 LOG2 DUP1 RETURN JUMPDEST POP CALLVALUE PUSH2 0x311 JUMPI DUP1 PUSH1 0x3 NOT CALLDATASIZE ADD SLT PUSH2 0x311 JUMPI PUSH1 0x20 PUSH1 0x40 MLOAD PUSH4 0x18B8200 DUP2 MSTORE RETURN JUMPDEST POP CALLVALUE PUSH2 0x311 JUMPI PUSH1 0x60 CALLDATASIZE PUSH1 0x3 NOT ADD SLT PUSH2 0x311 JUMPI PUSH2 0xB72 PUSH2 0x42A7 JUMP JUMPDEST SWAP1 PUSH2 0xB7B PUSH2 0x42BD JUMP JUMPDEST PUSH2 0xB83 PUSH2 0x43DF JUMP JUMPDEST SWAP3 PUSH2 0xB8C PUSH2 0x460F JUMP JUMPDEST PUSH1 0x1 PUSH1 0x1 PUSH1 0xA0 SHL SUB SWAP4 DUP2 DUP6 AND SWAP2 DUP3 ISZERO PUSH2 0xE11 JUMPI CALLER DUP4 EQ PUSH2 0xDD1 JUMPI CALLER DUP6 MSTORE PUSH1 0x3 SWAP2 PUSH1 0x20 SWAP5 DUP4 DUP7 MSTORE PUSH1 0xFF PUSH1 0x40 DUP9 KECCAK256 SLOAD AND ISZERO PUSH2 0xDBF JUMPI CALLER DUP8 MSTORE DUP4 DUP7 MSTORE PUSH1 0xFF PUSH1 0x40 DUP9 KECCAK256 SLOAD PUSH1 0x8 SHR AND ISZERO PUSH2 0xD86 JUMPI DUP5 DUP8 MSTORE DUP4 DUP7 MSTORE PUSH1 0xFF PUSH1 0x40 DUP9 KECCAK256 SLOAD AND PUSH2 0xD74 JUMPI CALLER DUP8 MSTORE DUP4 DUP7 MSTORE PUSH9 0x70C1CC73B00C80000 PUSH1 0xC PUSH1 0x40 DUP10 KECCAK256 ADD SLOAD LT PUSH2 0xD62 JUMPI DUP2 DUP9 DUP3 AND DUP1 ISZERO ISZERO SWAP1 DUP2 PUSH2 0xD4B JUMPI JUMPDEST POP ISZERO PUSH2 0xD40 JUMPI PUSH2 0xC21 SWAP2 PUSH2 0x5274 JUMP JUMPDEST SWAP8 SWAP1 SWAP4 CALLER DUP9 MSTORE DUP1 DUP8 MSTORE PUSH1 0xC PUSH1 0x40 DUP10 KECCAK256 ADD SWAP9 DUP10 SLOAD PUSH9 0x70C1CC73B00C7FFFF NOT DUP2 ADD SWAP1 DUP2 GT PUSH2 0xD2C JUMPI PUSH2 0xCC7 SWAP7 SWAP8 SWAP9 SWAP10 SWAP11 SSTORE PUSH2 0xC5D DUP2 DUP9 CALLER DUP9 PUSH2 0x4699 JUMP JUMPDEST ISZERO PUSH2 0xD08 JUMPI DUP6 DUP3 AND DUP10 MSTORE DUP1 DUP9 MSTORE PUSH1 0x40 DUP10 KECCAK256 DUP2 ADD DUP1 SLOAD PUSH1 0x1 PUSH1 0x1 PUSH1 0xA0 SHL SUB NOT AND DUP9 OR SWAP1 SSTORE JUMPDEST CALLER DUP10 MSTORE DUP8 MSTORE PUSH1 0x1 PUSH1 0x40 DUP10 KECCAK256 ADD PUSH2 0xC97 DUP2 SLOAD PUSH2 0x4600 JUMP JUMPDEST SWAP1 SSTORE PUSH2 0xCA2 DUP4 PUSH2 0x4760 JUMP JUMPDEST PUSH1 0x40 MLOAD SWAP2 ISZERO ISZERO SWAP5 DUP6 DUP4 MSTORE AND SWAP1 DUP6 PUSH1 0x0 DUP1 MLOAD PUSH1 0x20 PUSH2 0x5DC6 DUP4 CODECOPY DUP2 MLOAD SWAP2 MSTORE DUP9 CALLER SWAP4 LOG4 PUSH2 0x4856 JUMP JUMPDEST PUSH1 0x40 MLOAD SWAP1 DUP2 MSTORE PUSH32 0xF3D8729E7995A6170800155589C309C92998449C63BAB10C98F61F9AA007DB7D CALLER SWAP4 CALLER SWAP3 LOG4 PUSH1 0x1 PUSH1 0x0 DUP1 MLOAD PUSH1 0x20 PUSH2 0x5E46 DUP4 CODECOPY DUP2 MLOAD SWAP2 MSTORE SSTORE DUP1 RETURN JUMPDEST DUP6 DUP3 AND DUP10 MSTORE DUP1 DUP9 MSTORE PUSH1 0x40 DUP10 KECCAK256 PUSH1 0x4 ADD DUP1 SLOAD PUSH1 0x1 PUSH1 0x1 PUSH1 0xA0 SHL SUB NOT AND DUP9 OR SWAP1 SSTORE PUSH2 0xC81 JUMP JUMPDEST PUSH4 0x4E487B71 PUSH1 0xE0 SHL DUP11 MSTORE PUSH1 0x11 PUSH1 0x4 MSTORE PUSH1 0x24 DUP11 REVERT JUMPDEST PUSH2 0xC21 SWAP2 POP CALLER PUSH2 0x5274 JUMP JUMPDEST SWAP2 POP POP DUP8 MSTORE DUP4 DUP7 MSTORE DUP2 PUSH1 0xFF PUSH1 0x40 DUP10 KECCAK256 SLOAD AND CODESIZE PUSH2 0xC12 JUMP JUMPDEST PUSH1 0x40 MLOAD PUSH4 0xB55C1BAD PUSH1 0xE0 SHL DUP2 MSTORE PUSH1 0x4 SWAP1 REVERT JUMPDEST PUSH1 0x40 MLOAD PUSH4 0xEA075BF PUSH1 0xE2 SHL DUP2 MSTORE PUSH1 0x4 SWAP1 REVERT JUMPDEST PUSH1 0x40 MLOAD PUSH3 0x461BCD PUSH1 0xE5 SHL DUP2 MSTORE PUSH1 0x4 DUP2 ADD DUP8 SWAP1 MSTORE PUSH1 0x11 PUSH1 0x24 DUP3 ADD MSTORE PUSH17 0x43616C6C6572206E6F7420616374697665 PUSH1 0x78 SHL PUSH1 0x44 DUP3 ADD MSTORE PUSH1 0x64 SWAP1 REVERT JUMPDEST PUSH1 0x40 MLOAD PUSH4 0xABA47339 PUSH1 0xE0 SHL DUP2 MSTORE PUSH1 0x4 SWAP1 REVERT JUMPDEST PUSH1 0x40 MLOAD PUSH3 0x461BCD PUSH1 0xE5 SHL DUP2 MSTORE PUSH1 0x20 PUSH1 0x4 DUP3 ADD MSTORE PUSH1 0x18 PUSH1 0x24 DUP3 ADD MSTORE PUSH24 0x21B0B73737BA103932B3B4B9BA32B9103CB7BAB939B2B633 PUSH1 0x41 SHL PUSH1 0x44 DUP3 ADD MSTORE PUSH1 0x64 SWAP1 REVERT JUMPDEST PUSH1 0x40 MLOAD PUSH3 0x461BCD PUSH1 0xE5 SHL DUP2 MSTORE PUSH1 0x20 PUSH1 0x4 DUP3 ADD MSTORE PUSH1 0xF PUSH1 0x24 DUP3 ADD MSTORE PUSH15 0x496E76616C69642061646472657373 PUSH1 0x88 SHL PUSH1 0x44 DUP3 ADD MSTORE PUSH1 0x64 SWAP1 REVERT JUMPDEST POP CALLVALUE PUSH2 0x311 JUMPI PUSH2 0xE57 CALLDATASIZE PUSH2 0x4347 JUMP JUMPDEST SWAP1 PUSH1 0x60 PUSH1 0x1 DUP1 PUSH1 0xA0 SHL SUB SWAP3 PUSH1 0x44 DUP5 PUSH1 0x2 SLOAD AND SWAP4 PUSH1 0x40 MLOAD SWAP5 DUP6 SWAP4 DUP5 SWAP3 PUSH4 0x6A548143 PUSH1 0xE1 SHL DUP5 MSTORE PUSH1 0x4 DUP5 ADD MSTORE PUSH1 0x24 DUP4 ADD MSTORE GAS STATICCALL SWAP1 DUP2 ISZERO PUSH2 0xF0F JUMPI DUP4 SWAP3 DUP5 SWAP2 DUP6 SWAP4 PUSH2 0xEB4 JUMPI JUMPDEST POP PUSH1 0x60 SWAP5 POP PUSH1 0x40 MLOAD SWAP4 AND DUP4 MSTORE PUSH1 0x20 DUP4 ADD MSTORE ISZERO ISZERO PUSH1 0x40 DUP3 ADD MSTORE RETURN JUMPDEST SWAP4 POP SWAP2 POP POP PUSH1 0x60 DUP3 RETURNDATASIZE DUP3 GT PUSH2 0xF07 JUMPI JUMPDEST DUP2 PUSH2 0xED1 PUSH1 0x60 SWAP4 DUP4 PUSH2 0x4487 JUMP JUMPDEST DUP2 ADD SUB SLT PUSH2 0xF03 JUMPI DUP2 MLOAD DUP2 DUP2 AND DUP2 SUB PUSH2 0xA0D JUMPI PUSH1 0x60 SWAP4 POP PUSH2 0xEF9 PUSH1 0x40 PUSH1 0x20 DUP6 ADD MLOAD SWAP5 ADD PUSH2 0x45D8 JUMP JUMPDEST SWAP1 SWAP3 SWAP1 SWAP2 CODESIZE PUSH2 0xE9A JUMP JUMPDEST DUP3 DUP1 REVERT JUMPDEST RETURNDATASIZE SWAP2 POP PUSH2 0xEC4 JUMP JUMPDEST PUSH1 0x40 MLOAD RETURNDATASIZE DUP6 DUP3 RETURNDATACOPY RETURNDATASIZE SWAP1 REVERT JUMPDEST POP CALLVALUE PUSH2 0x311 JUMPI PUSH1 0x20 DUP1 PUSH1 0x3 NOT CALLDATASIZE ADD SLT PUSH2 0xA1C JUMPI PUSH1 0x4 CALLDATALOAD SWAP1 PUSH2 0xF39 PUSH2 0x460F JUMP JUMPDEST DUP2 ISZERO PUSH2 0x108F JUMPI CALLER DUP4 MSTORE PUSH1 0x3 DUP2 MSTORE PUSH1 0xC PUSH1 0x40 DUP5 KECCAK256 ADD DUP1 SLOAD DUP4 DUP2 LT PUSH2 0xD62 JUMPI DUP4 PUSH2 0xF60 SWAP2 PUSH2 0x45B5 JUMP JUMPDEST SWAP1 SSTORE PUSH1 0x40 MLOAD PUSH4 0xA9059CBB PUSH1 0xE0 SHL DUP2 MSTORE DUP2 DUP2 DUP1 PUSH2 0xF80 DUP7 CALLER PUSH1 0x4 DUP5 ADD PUSH2 0x45E5 JUMP JUMPDEST SUB DUP2 DUP8 PUSH32 0x0 PUSH1 0x1 PUSH1 0x1 PUSH1 0xA0 SHL SUB AND GAS CALL SWAP1 DUP2 ISZERO PUSH2 0x1084 JUMPI DUP5 SWAP2 PUSH2 0x104F JUMPI JUMPDEST POP ISZERO PUSH2 0xA20 JUMPI PUSH1 0x40 MLOAD DUP3 DUP2 MSTORE PUSH32 0xBDD3F02D2A57FB53C1156F98470B61CB60712D485C27C36A49B1263DABCDE201 DUP3 CALLER SWAP3 LOG2 CALLER PUSH1 0x0 MSTORE PUSH1 0xE DUP2 MSTORE PUSH1 0x40 PUSH1 0x0 KECCAK256 SWAP1 PUSH1 0x40 MLOAD SWAP1 PUSH2 0x1009 DUP3 PUSH2 0x4459 JUMP JUMPDEST PUSH1 0x7 DUP3 MSTORE DUP2 ADD SWAP1 PUSH4 0xFFFFFFFF TIMESTAMP AND DUP3 MSTORE PUSH1 0x40 DUP2 ADD SWAP4 DUP5 MSTORE PUSH1 0x60 DUP2 ADD SWAP4 PUSH1 0x0 DUP6 MSTORE PUSH1 0x80 DUP3 ADD SWAP4 PUSH1 0x0 DUP6 MSTORE DUP1 SLOAD PUSH1 0x1 PUSH1 0x40 SHL DUP2 LT ISZERO PUSH2 0x5B1 JUMPI PUSH2 0x529 SWAP2 PUSH1 0x1 DUP3 ADD DUP2 SSTORE PUSH2 0x463F JUMP JUMPDEST SWAP1 POP DUP2 DUP2 DUP2 RETURNDATASIZE DUP4 GT PUSH2 0x107D JUMPI JUMPDEST PUSH2 0x1066 DUP2 DUP4 PUSH2 0x4487 JUMP JUMPDEST DUP2 ADD SUB SLT PUSH2 0xA0D JUMPI PUSH2 0x1077 SWAP1 PUSH2 0x45D8 JUMP JUMPDEST CODESIZE PUSH2 0xFBD JUMP JUMPDEST POP RETURNDATASIZE PUSH2 0x105C JUMP JUMPDEST PUSH1 0x40 MLOAD RETURNDATASIZE DUP7 DUP3 RETURNDATACOPY RETURNDATASIZE SWAP1 REVERT JUMPDEST PUSH1 0x40 MLOAD PUSH4 0x1F2A2005 PUSH1 0xE0 SHL DUP2 MSTORE PUSH1 0x4 SWAP1 REVERT JUMPDEST POP CALLVALUE PUSH2 0x311 JUMPI PUSH1 0x40 CALLDATASIZE PUSH1 0x3 NOT ADD SLT PUSH2 0x311 JUMPI PUSH2 0x10F2 PUSH1 0xA0 SWAP2 PUSH1 0x40 PUSH2 0x10C3 PUSH2 0x42A7 JUMP JUMPDEST SWAP2 PUSH1 0x24 CALLDATALOAD SWAP3 PUSH1 0x1 DUP1 DUP8 SHL SUB AND DUP1 DUP3 MSTORE PUSH1 0xD PUSH1 0x20 MSTORE PUSH2 0x10E5 DUP4 DUP4 KECCAK256 SLOAD DUP6 LT PUSH2 0x59C1 JUMP JUMPDEST DUP2 MSTORE PUSH1 0xD PUSH1 0x20 MSTORE KECCAK256 PUSH2 0x59A5 JUMP JUMPDEST POP DUP1 SLOAD SWAP1 PUSH1 0x1 DUP2 ADD SLOAD SWAP1 PUSH1 0x2 DUP2 ADD SLOAD PUSH1 0xFF PUSH1 0x4 PUSH1 0x3 DUP5 ADD SLOAD SWAP4 ADD SLOAD AND SWAP3 PUSH1 0x40 MLOAD SWAP5 DUP6 MSTORE PUSH1 0x20 DUP6 ADD MSTORE PUSH1 0x40 DUP5 ADD MSTORE PUSH1 0x60 DUP4 ADD MSTORE ISZERO ISZERO PUSH1 0x80 DUP3 ADD MSTORE RETURN JUMPDEST POP CALLVALUE PUSH2 0x311 JUMPI PUSH1 0x20 CALLDATASIZE PUSH1 0x3 NOT ADD SLT PUSH2 0x311 JUMPI PUSH1 0x20 SWAP1 PUSH1 0x40 SWAP1 PUSH1 0x1 PUSH1 0x1 PUSH1 0xA0 SHL SUB PUSH2 0x1155 PUSH2 0x42A7 JUMP JUMPDEST AND DUP2 MSTORE PUSH1 0xD DUP4 MSTORE KECCAK256 SLOAD PUSH1 0x40 MLOAD SWAP1 DUP2 MSTORE RETURN JUMPDEST POP CALLVALUE PUSH2 0x311 JUMPI DUP1 PUSH1 0x3 NOT CALLDATASIZE ADD SLT PUSH2 0x311 JUMPI PUSH1 0x1 SLOAD PUSH1 0x40 MLOAD PUSH4 0x70A08231 PUSH1 0xE0 SHL DUP2 MSTORE ADDRESS PUSH1 0x4 DUP3 ADD MSTORE SWAP2 SWAP1 PUSH1 0x20 SWAP1 DUP4 SWAP1 PUSH1 0x24 SWAP1 DUP3 SWAP1 PUSH1 0x1 PUSH1 0x1 PUSH1 0xA0 SHL SUB AND GAS STATICCALL SWAP1 DUP2 ISZERO PUSH2 0x11EE JUMPI SWAP1 PUSH2 0x11BC JUMPI JUMPDEST PUSH1 0x20 SWAP1 PUSH1 0x40 MLOAD SWAP1 DUP2 MSTORE RETURN JUMPDEST POP PUSH1 0x20 DUP2 RETURNDATASIZE DUP3 GT PUSH2 0x11E6 JUMPI JUMPDEST DUP2 PUSH2 0x11D5 PUSH1 0x20 SWAP4 DUP4 PUSH2 0x4487 JUMP JUMPDEST DUP2 ADD SUB SLT PUSH2 0xAB1 JUMPI PUSH1 0x20 SWAP1 MLOAD PUSH2 0x11B1 JUMP JUMPDEST RETURNDATASIZE SWAP2 POP PUSH2 0x11C8 JUMP JUMPDEST PUSH1 0x40 MLOAD SWAP1 RETURNDATASIZE SWAP1 DUP3 RETURNDATACOPY RETURNDATASIZE SWAP1 REVERT JUMPDEST POP CALLVALUE PUSH2 0x311 JUMPI DUP1 PUSH1 0x3 NOT CALLDATASIZE ADD SLT PUSH2 0x311 JUMPI PUSH1 0x2 SLOAD PUSH1 0x40 MLOAD PUSH1 0x1 PUSH1 0x1 PUSH1 0xA0 SHL SUB SWAP1 SWAP2 AND DUP2 MSTORE PUSH1 0x20 SWAP1 RETURN JUMPDEST POP CALLVALUE PUSH2 0x311 JUMPI DUP1 PUSH1 0x3 NOT CALLDATASIZE ADD SLT PUSH2 0x311 JUMPI PUSH1 0x20 PUSH1 0x5 SLOAD PUSH1 0x40 MLOAD SWAP1 DUP2 MSTORE RETURN JUMPDEST PUSH2 0x435D JUMP JUMPDEST POP CALLVALUE PUSH2 0x311 JUMPI DUP1 PUSH1 0x3 NOT CALLDATASIZE ADD SLT PUSH2 0x311 JUMPI PUSH1 0x20 PUSH1 0x8 SLOAD PUSH1 0x40 MLOAD SWAP1 DUP2 MSTORE RETURN JUMPDEST POP CALLVALUE PUSH2 0x311 JUMPI PUSH1 0x20 DUP1 PUSH1 0x3 NOT CALLDATASIZE ADD SLT PUSH2 0xA1C JUMPI PUSH1 0x4 CALLDATALOAD SWAP1 PUSH2 0x1283 PUSH2 0x460F JUMP JUMPDEST DUP2 ISZERO PUSH2 0x108F JUMPI CALLER DUP4 MSTORE PUSH1 0x3 DUP2 MSTORE PUSH1 0xF PUSH1 0x40 DUP5 KECCAK256 ADD DUP1 SLOAD DUP4 DUP2 LT PUSH2 0x13CE JUMPI DUP4 PUSH2 0x12AA SWAP2 PUSH2 0x45B5 JUMP JUMPDEST SWAP1 SSTORE PUSH1 0x40 MLOAD PUSH4 0xA9059CBB PUSH1 0xE0 SHL DUP2 MSTORE DUP2 DUP2 DUP1 PUSH2 0x12CA DUP7 CALLER PUSH1 0x4 DUP5 ADD PUSH2 0x45E5 JUMP JUMPDEST SUB DUP2 DUP8 PUSH32 0x0 PUSH1 0x1 PUSH1 0x1 PUSH1 0xA0 SHL SUB AND GAS CALL SWAP1 DUP2 ISZERO PUSH2 0x1084 JUMPI DUP5 SWAP2 PUSH2 0x1399 JUMPI JUMPDEST POP ISZERO PUSH2 0xA20 JUMPI PUSH1 0x40 MLOAD DUP3 DUP2 MSTORE PUSH32 0x12701E4764B73009AB9826933C421483E4280410091FCC760515E0FA99FA766B DUP3 CALLER SWAP3 LOG2 CALLER PUSH1 0x0 MSTORE PUSH1 0xE DUP2 MSTORE PUSH1 0x40 PUSH1 0x0 KECCAK256 SWAP1 PUSH1 0x40 MLOAD SWAP1 PUSH2 0x1353 DUP3 PUSH2 0x4459 JUMP JUMPDEST PUSH1 0x8 DUP3 MSTORE DUP2 ADD SWAP1 PUSH4 0xFFFFFFFF TIMESTAMP AND DUP3 MSTORE PUSH1 0x40 DUP2 ADD SWAP4 DUP5 MSTORE PUSH1 0x60 DUP2 ADD SWAP4 PUSH1 0x0 DUP6 MSTORE PUSH1 0x80 DUP3 ADD SWAP4 PUSH1 0x0 DUP6 MSTORE DUP1 SLOAD PUSH1 0x1 PUSH1 0x40 SHL DUP2 LT ISZERO PUSH2 0x5B1 JUMPI PUSH2 0x529 SWAP2 PUSH1 0x1 DUP3 ADD DUP2 SSTORE PUSH2 0x463F JUMP JUMPDEST SWAP1 POP DUP2 DUP2 DUP2 RETURNDATASIZE DUP4 GT PUSH2 0x13C7 JUMPI JUMPDEST PUSH2 0x13B0 DUP2 DUP4 PUSH2 0x4487 JUMP JUMPDEST DUP2 ADD SUB SLT PUSH2 0xA0D JUMPI PUSH2 0x13C1 SWAP1 PUSH2 0x45D8 JUMP JUMPDEST CODESIZE PUSH2 0x1307 JUMP JUMPDEST POP RETURNDATASIZE PUSH2 0x13A6 JUMP JUMPDEST PUSH1 0x40 MLOAD PUSH4 0x6DAE8617 PUSH1 0xE1 SHL DUP2 MSTORE PUSH1 0x4 SWAP1 REVERT JUMPDEST POP CALLVALUE PUSH2 0x311 JUMPI PUSH1 0x40 CALLDATASIZE PUSH1 0x3 NOT ADD SLT PUSH2 0x311 JUMPI PUSH2 0x13FA PUSH2 0x43D0 JUMP JUMPDEST PUSH2 0x1402 PUSH2 0x460F JUMP JUMPDEST PUSH9 0x2B5E3AF16B1880000 PUSH1 0x4 CALLDATALOAD LT PUSH2 0x1ACE JUMPI CALLER DUP3 MSTORE PUSH1 0x3 PUSH1 0x20 MSTORE PUSH2 0x142C PUSH1 0xFF PUSH1 0x40 DUP5 KECCAK256 SLOAD AND PUSH2 0x5914 JUMP JUMPDEST CALLER DUP3 MSTORE PUSH1 0x3 PUSH1 0x20 MSTORE PUSH1 0xFF PUSH1 0x40 DUP4 KECCAK256 SLOAD PUSH1 0x8 SHR AND ISZERO PUSH2 0x1A99 JUMPI PUSH1 0x40 MLOAD PUSH4 0x23B872DD PUSH1 0xE0 SHL DUP2 MSTORE CALLER PUSH1 0x4 DUP1 DUP4 ADD SWAP2 SWAP1 SWAP2 MSTORE ADDRESS PUSH1 0x24 DUP4 ADD MSTORE CALLDATALOAD PUSH1 0x44 DUP3 ADD MSTORE DUP3 SWAP1 PUSH32 0x0 PUSH1 0x1 PUSH1 0x1 PUSH1 0xA0 SHL SUB AND SWAP1 PUSH1 0x20 DUP2 PUSH1 0x64 DUP2 DUP7 DUP7 GAS CALL SWAP1 DUP2 ISZERO PUSH2 0xF0F JUMPI DUP4 SWAP2 PUSH2 0x1A53 JUMPI JUMPDEST POP PUSH1 0x20 SWAP2 PUSH2 0x14BC PUSH2 0x14EA SWAP3 PUSH2 0x5951 JUMP JUMPDEST PUSH1 0x1 SLOAD PUSH1 0x40 MLOAD PUSH4 0x95EA7B3 PUSH1 0xE0 SHL DUP2 MSTORE SWAP5 DUP6 SWAP4 DUP5 SWAP3 DUP4 SWAP2 SWAP1 PUSH1 0x4 DUP1 CALLDATALOAD SWAP2 PUSH1 0x1 PUSH1 0x1 PUSH1 0xA0 SHL SUB AND SWAP1 DUP5 ADD PUSH2 0x45E5 JUMP JUMPDEST SUB SWAP3 GAS CALL DUP1 ISZERO PUSH2 0xF0F JUMPI PUSH2 0x1A1A JUMPI JUMPDEST POP PUSH1 0x1 SLOAD PUSH1 0x40 MLOAD PUSH4 0x70A08231 PUSH1 0xE0 SHL DUP1 DUP3 MSTORE ADDRESS PUSH1 0x4 DUP4 ADD MSTORE SWAP2 DUP5 SWAP1 PUSH1 0x1 PUSH1 0x1 PUSH1 0xA0 SHL SUB AND PUSH1 0x20 DUP4 PUSH1 0x24 DUP2 DUP5 GAS STATICCALL SWAP3 DUP4 ISZERO PUSH2 0xA11 JUMPI DUP3 SWAP4 PUSH2 0x19E3 JUMPI JUMPDEST POP DUP1 EXTCODESIZE ISZERO PUSH2 0xA1C JUMPI DUP2 PUSH1 0x40 MLOAD DUP1 SWAP3 PUSH4 0x4E538D93 PUSH1 0xE1 SHL DUP3 MSTORE DUP2 DUP4 DUP2 PUSH2 0x155F PUSH1 0x4 CALLDATALOAD ADDRESS PUSH1 0x4 DUP5 ADD PUSH2 0x45E5 JUMP JUMPDEST SUB SWAP3 GAS CALL DUP1 ISZERO PUSH2 0xA11 JUMPI PUSH2 0x19CF JUMPI JUMPDEST POP POP PUSH1 0x1 SLOAD PUSH1 0x40 MLOAD SWAP3 DUP4 MSTORE ADDRESS PUSH1 0x4 DUP5 ADD MSTORE PUSH1 0x20 SWAP1 DUP4 SWAP1 PUSH1 0x24 SWAP1 DUP3 SWAP1 PUSH1 0x1 PUSH1 0x1 PUSH1 0xA0 SHL SUB AND GAS STATICCALL DUP1 ISZERO PUSH2 0x1084 JUMPI DUP5 SWAP1 PUSH2 0x199B JUMPI JUMPDEST PUSH2 0x15AB SWAP3 POP PUSH2 0x45B5 JUMP JUMPDEST SWAP2 DUP3 ISZERO PUSH2 0x1966 JUMPI PUSH1 0x40 MLOAD PUSH2 0x15BE DUP2 PUSH2 0x4459 JUMP JUMPDEST PUSH1 0xA DUP2 MSTORE PUSH1 0x2 PUSH1 0x20 DUP3 ADD MSTORE PUSH1 0x1 PUSH1 0x40 DUP3 ADD MSTORE PUSH1 0x1 PUSH1 0x60 DUP3 ADD MSTORE PUSH1 0x1 PUSH1 0x80 DUP3 ADD MSTORE CALLER DUP3 MSTORE PUSH1 0x3 PUSH1 0x20 MSTORE PUSH1 0x40 DUP3 KECCAK256 SLOAD PUSH1 0x1 DUP1 PUSH1 0xA0 SHL SUB SWAP1 PUSH1 0x10 SHR AND DUP3 SWAP5 DUP4 SWAP3 DUP5 SWAP4 JUMPDEST PUSH1 0x5 PUSH1 0xFF DUP7 AND LT ISZERO PUSH2 0x17A5 JUMPI PUSH1 0x5A PUSH2 0x1625 PUSH1 0xFF PUSH2 0x161D DUP2 DUP10 AND DUP7 PUSH2 0x5994 JUMP JUMPDEST MLOAD AND DUP6 PUSH2 0x47FF JUMP JUMPDEST DIV SWAP1 DUP2 ISZERO PUSH2 0x1766 JUMPI PUSH1 0x1 PUSH1 0x1 PUSH1 0xA0 SHL SUB DUP6 AND ISZERO DUP1 ISZERO PUSH2 0x1743 JUMPI JUMPDEST ISZERO PUSH2 0x167C JUMPI SWAP1 PUSH2 0x164E SWAP2 PUSH2 0x468C JUMP JUMPDEST SWAP3 JUMPDEST PUSH1 0x1 PUSH1 0x1 PUSH1 0xA0 SHL SUB SWAP1 DUP2 AND DUP7 MSTORE PUSH1 0x3 PUSH1 0x20 MSTORE PUSH1 0x40 DUP7 KECCAK256 SLOAD PUSH1 0x10 SHR AND SWAP4 PUSH2 0x1675 SWAP1 PUSH2 0x50B4 JUMP JUMPDEST SWAP4 SWAP3 PUSH2 0x15FE JUMP JUMPDEST SWAP4 SWAP1 SWAP8 DUP9 PUSH2 0x16D4 SWAP2 PUSH1 0x1 DUP1 PUSH1 0xA0 SHL SUB DUP5 AND DUP10 MSTORE PUSH1 0x3 PUSH1 0x20 MSTORE PUSH1 0x8 PUSH1 0x40 DUP11 KECCAK256 ADD PUSH2 0x16A6 DUP4 DUP3 SLOAD PUSH2 0x468C JUMP JUMPDEST SWAP1 SSTORE PUSH1 0x1 PUSH1 0x1 PUSH1 0xA0 SHL SUB DUP5 AND DUP10 MSTORE PUSH1 0x3 PUSH1 0x20 MSTORE PUSH1 0x40 DUP10 KECCAK256 PUSH1 0x9 ADD DUP1 SLOAD PUSH2 0x16CD SWAP1 DUP5 SWAP1 PUSH2 0x468C JUMP JUMPDEST SWAP1 SSTORE PUSH2 0x468C JUMP JUMPDEST SWAP8 PUSH1 0xFF PUSH1 0x1 DUP2 DUP9 AND ADD GT PUSH2 0x172F JUMPI PUSH1 0x40 MLOAD CALLER SWAP2 PUSH1 0x1 PUSH1 0x1 PUSH1 0xA0 SHL SUB DUP5 AND SWAP2 PUSH32 0xC8C0CC32A736135FA3C2A3C467849CD282797396BC67D2D5326F7E161E601C1D SWAP2 DUP2 SWAP1 PUSH2 0x1727 SWAP1 PUSH1 0xFF DUP13 AND PUSH1 0x1 ADD DUP4 PUSH2 0x50C5 JUMP JUMPDEST SUB SWAP1 LOG3 PUSH2 0x1650 JUMP JUMPDEST PUSH4 0x4E487B71 PUSH1 0xE0 SHL DUP8 MSTORE PUSH1 0x11 PUSH1 0x4 MSTORE PUSH1 0x24 DUP8 REVERT JUMPDEST POP PUSH1 0x1 PUSH1 0x1 PUSH1 0xA0 SHL SUB DUP6 AND DUP8 MSTORE PUSH1 0x3 PUSH1 0x20 MSTORE PUSH1 0x40 DUP8 KECCAK256 SLOAD PUSH1 0x8 SHR PUSH1 0xFF AND ISZERO PUSH2 0x163F JUMP JUMPDEST SWAP4 SWAP5 SWAP1 POP PUSH1 0x1 PUSH1 0x1 PUSH1 0xA0 SHL SUB DUP6 AND PUSH2 0x1782 JUMPI JUMPDEST PUSH2 0x1675 SWAP1 PUSH2 0x50B4 JUMP JUMPDEST PUSH1 0x1 PUSH1 0x1 PUSH1 0xA0 SHL SUB SWAP5 DUP6 AND DUP7 MSTORE PUSH1 0x3 PUSH1 0x20 MSTORE PUSH1 0x40 DUP7 KECCAK256 SLOAD PUSH1 0x10 SHR SWAP1 SWAP5 AND SWAP4 PUSH2 0x1779 JUMP JUMPDEST DUP7 DUP9 DUP5 DUP9 SWAP4 PUSH1 0x5 DUP3 MUL DUP3 DUP2 DIV PUSH1 0x5 SUB PUSH2 0x1952 JUMPI SWAP2 PUSH2 0x17E6 PUSH2 0x17EC SWAP3 PUSH1 0x5A PUSH2 0x17F1 SWAP7 SWAP6 DIV SWAP5 PUSH2 0x17DE PUSH2 0x17D6 DUP4 DUP9 PUSH2 0x468C JUMP JUMPDEST PUSH1 0x8 SLOAD PUSH2 0x468C JUMP JUMPDEST PUSH1 0x8 SSTORE PUSH2 0x468C JUMP JUMPDEST SWAP1 PUSH2 0x45B5 JUMP JUMPDEST PUSH2 0x45B5 JUMP JUMPDEST SWAP1 DUP2 ISZERO PUSH2 0x1918 JUMPI CALLER DUP4 MSTORE PUSH1 0xD PUSH1 0x20 MSTORE PUSH1 0x40 DUP4 KECCAK256 DUP1 SLOAD SWAP3 SWAP1 DUP3 ISZERO PUSH2 0x1911 JUMPI TIMESTAMP SWAP1 JUMPDEST PUSH1 0x40 MLOAD SWAP2 PUSH2 0x181E DUP4 PUSH2 0x4459 JUMP JUMPDEST DUP4 DUP4 MSTORE PUSH1 0x4 CALLDATALOAD PUSH1 0x20 DUP5 ADD MSTORE TIMESTAMP PUSH1 0x40 DUP5 ADD MSTORE PUSH1 0x60 DUP4 ADD MSTORE PUSH1 0x1 PUSH1 0x80 DUP4 ADD MSTORE PUSH1 0x1 PUSH1 0x40 SHL DUP6 LT ISZERO PUSH2 0x18FD JUMPI DUP5 PUSH2 0x1857 SWAP2 PUSH1 0x1 DUP3 ADD DUP2 SSTORE PUSH2 0x59A5 JUMP JUMPDEST PUSH2 0x18E9 JUMPI PUSH1 0x4 PUSH1 0x80 SWAP2 DUP4 MLOAD DUP2 SSTORE PUSH1 0x20 DUP5 ADD MLOAD PUSH1 0x1 DUP3 ADD SSTORE PUSH1 0x40 DUP5 ADD MLOAD PUSH1 0x2 DUP3 ADD SSTORE PUSH1 0x60 DUP5 ADD MLOAD PUSH1 0x3 DUP3 ADD SSTORE ADD SWAP2 ADD MLOAD ISZERO ISZERO PUSH1 0xFF DUP1 NOT DUP4 SLOAD AND SWAP2 AND OR SWAP1 SSTORE PUSH1 0x40 MLOAD SWAP3 DUP4 MSTORE PUSH1 0x4 CALLDATALOAD PUSH1 0x20 DUP5 ADD MSTORE PUSH1 0x40 DUP4 ADD MSTORE ISZERO ISZERO PUSH1 0x60 DUP3 ADD MSTORE PUSH32 0x830141583677D950FE61A27B93001EDFF66B597C666B2C90F5FB6E79A4BEFD0E PUSH1 0x80 CALLER SWAP3 LOG2 PUSH1 0x1 PUSH1 0x0 DUP1 MLOAD PUSH1 0x20 PUSH2 0x5E46 DUP4 CODECOPY DUP2 MLOAD SWAP2 MSTORE SSTORE DUP1 RETURN JUMPDEST PUSH4 0x4E487B71 PUSH1 0xE0 SHL DUP7 MSTORE PUSH1 0x4 DUP7 SWAP1 MSTORE PUSH1 0x24 DUP7 REVERT JUMPDEST PUSH4 0x4E487B71 PUSH1 0xE0 SHL DUP7 MSTORE PUSH1 0x41 PUSH1 0x4 MSTORE PUSH1 0x24 DUP7 REVERT JUMPDEST DUP5 SWAP1 PUSH2 0x1811 JUMP JUMPDEST PUSH1 0x40 MLOAD PUSH3 0x461BCD PUSH1 0xE5 SHL DUP2 MSTORE PUSH1 0x20 PUSH1 0x4 DUP3 ADD MSTORE PUSH1 0x12 PUSH1 0x24 DUP3 ADD MSTORE PUSH18 0x4E6F20746F6B656E7320746F207374616B65 PUSH1 0x70 SHL PUSH1 0x44 DUP3 ADD MSTORE PUSH1 0x64 SWAP1 REVERT JUMPDEST PUSH4 0x4E487B71 PUSH1 0xE0 SHL DUP7 MSTORE PUSH1 0x11 PUSH1 0x4 MSTORE PUSH1 0x24 DUP7 REVERT JUMPDEST PUSH1 0x40 MLOAD PUSH3 0x461BCD PUSH1 0xE5 SHL DUP2 MSTORE PUSH1 0x20 PUSH1 0x4 DUP3 ADD MSTORE PUSH1 0xD PUSH1 0x24 DUP3 ADD MSTORE PUSH13 0x139BC8135595081B5A5B9D1959 PUSH1 0x9A SHL PUSH1 0x44 DUP3 ADD MSTORE PUSH1 0x64 SWAP1 REVERT JUMPDEST POP PUSH1 0x20 DUP3 RETURNDATASIZE PUSH1 0x20 GT PUSH2 0x19C7 JUMPI JUMPDEST DUP2 PUSH2 0x19B5 PUSH1 0x20 SWAP4 DUP4 PUSH2 0x4487 JUMP JUMPDEST DUP2 ADD SUB SLT PUSH2 0xAB1 JUMPI PUSH2 0x15AB SWAP2 MLOAD PUSH2 0x15A1 JUMP JUMPDEST RETURNDATASIZE SWAP2 POP PUSH2 0x19A8 JUMP JUMPDEST PUSH2 0x19D8 SWAP1 PUSH2 0x4474 JUMP JUMPDEST PUSH2 0xA0D JUMPI DUP4 CODESIZE PUSH2 0x156E JUMP JUMPDEST SWAP2 POP SWAP2 POP PUSH1 0x20 DUP2 RETURNDATASIZE PUSH1 0x20 GT PUSH2 0x1A12 JUMPI JUMPDEST DUP2 PUSH2 0x1A00 PUSH1 0x20 SWAP4 DUP4 PUSH2 0x4487 JUMP JUMPDEST DUP2 ADD SUB SLT PUSH2 0xAB1 JUMPI DUP5 SWAP1 MLOAD SWAP2 CODESIZE PUSH2 0x1534 JUMP JUMPDEST RETURNDATASIZE SWAP2 POP PUSH2 0x19F3 JUMP JUMPDEST PUSH1 0x20 DUP2 RETURNDATASIZE PUSH1 0x20 GT PUSH2 0x1A4B JUMPI JUMPDEST DUP2 PUSH2 0x1A33 PUSH1 0x20 SWAP4 DUP4 PUSH2 0x4487 JUMP JUMPDEST DUP2 ADD SUB SLT PUSH2 0xF03 JUMPI PUSH2 0x1A44 SWAP1 PUSH2 0x45D8 JUMP JUMPDEST POP CODESIZE PUSH2 0x14F9 JUMP JUMPDEST RETURNDATASIZE SWAP2 POP PUSH2 0x1A26 JUMP JUMPDEST SWAP1 POP PUSH1 0x20 DUP2 RETURNDATASIZE PUSH1 0x20 GT PUSH2 0x1A91 JUMPI JUMPDEST DUP2 PUSH2 0x1A6E PUSH1 0x20 SWAP4 DUP4 PUSH2 0x4487 JUMP JUMPDEST DUP2 ADD SUB SLT PUSH2 0xF03 JUMPI PUSH1 0x20 SWAP2 PUSH2 0x14BC PUSH2 0x1A88 PUSH2 0x14EA SWAP4 PUSH2 0x45D8 JUMP JUMPDEST SWAP3 POP POP SWAP2 PUSH2 0x14AC JUMP JUMPDEST RETURNDATASIZE SWAP2 POP PUSH2 0x1A61 JUMP JUMPDEST PUSH1 0x40 MLOAD PUSH3 0x461BCD PUSH1 0xE5 SHL DUP2 MSTORE PUSH1 0x20 PUSH1 0x4 DUP3 ADD MSTORE PUSH1 0xD PUSH1 0x24 DUP3 ADD MSTORE PUSH13 0x139BDD081858DD1A5D985D1959 PUSH1 0x9A SHL PUSH1 0x44 DUP3 ADD MSTORE PUSH1 0x64 SWAP1 REVERT JUMPDEST PUSH1 0x40 MLOAD PUSH3 0x461BCD PUSH1 0xE5 SHL DUP2 MSTORE PUSH1 0x20 PUSH1 0x4 DUP3 ADD MSTORE PUSH1 0x11 PUSH1 0x24 DUP3 ADD MSTORE PUSH17 0x42656C6F7720243530206D696E696D756D PUSH1 0x78 SHL PUSH1 0x44 DUP3 ADD MSTORE PUSH1 0x64 SWAP1 REVERT JUMPDEST POP CALLVALUE PUSH2 0x311 JUMPI DUP1 PUSH1 0x3 NOT CALLDATASIZE ADD SLT PUSH2 0x311 JUMPI PUSH1 0x20 PUSH1 0x40 MLOAD PUSH9 0x15245655B102580000 DUP2 MSTORE RETURN JUMPDEST POP CALLVALUE PUSH2 0x311 JUMPI PUSH1 0x60 CALLDATASIZE PUSH1 0x3 NOT ADD SLT PUSH2 0x311 JUMPI PUSH2 0x1B45 PUSH2 0x42A7 JUMP JUMPDEST PUSH2 0x1B4D PUSH2 0x42BD JUMP JUMPDEST PUSH2 0x1B55 PUSH2 0x43DF JUMP JUMPDEST CALLER DUP5 MSTORE PUSH1 0x3 PUSH1 0x20 SWAP3 DUP2 DUP5 MSTORE PUSH1 0xFF PUSH1 0x40 DUP8 KECCAK256 SLOAD AND PUSH2 0xD74 JUMPI PUSH1 0x5 SLOAD PUSH2 0x1C30 JUMPI CALLER PUSH1 0x0 SWAP1 DUP2 MSTORE DUP3 DUP6 MSTORE PUSH1 0x40 SWAP1 KECCAK256 DUP1 SLOAD PUSH2 0xFF01 PUSH1 0x1 PUSH1 0xB0 SHL SUB NOT AND PUSH1 0x1 OR DUP2 SSTORE PUSH1 0x2 DUP2 ADD DUP1 SLOAD PUSH1 0x1 PUSH1 0x1 PUSH1 0xA8 SHL SUB NOT AND SWAP1 SSTORE PUSH1 0x12 DUP2 ADD DUP1 SLOAD PUSH1 0x1 PUSH1 0x1 PUSH1 0xA0 SHL SUB NOT AND SWAP1 SSTORE TIMESTAMP PUSH1 0x14 SWAP1 SWAP2 ADD SSTORE PUSH1 0x4 SLOAD SWAP2 PUSH1 0x1 PUSH1 0x40 SHL DUP4 LT ISZERO PUSH2 0x5B1 JUMPI PUSH2 0x1BEC DUP4 PUSH1 0x1 PUSH1 0x0 DUP1 MLOAD PUSH1 0x20 PUSH2 0x5DC6 DUP4 CODECOPY DUP2 MLOAD SWAP2 MSTORE SWAP6 ADD PUSH1 0x4 SSTORE PUSH2 0x43EE JUMP JUMPDEST DUP2 SWAP3 SWAP2 SLOAD SWAP2 SHL SWAP1 CALLER DUP3 SHL SWAP2 PUSH1 0x1 DUP1 PUSH1 0xA0 SHL SUB SWAP1 SHL NOT AND OR SWAP1 SSTORE PUSH2 0x1C10 PUSH1 0x5 SLOAD PUSH2 0x4600 JUMP JUMPDEST PUSH1 0x5 SSTORE JUMPDEST PUSH1 0x40 MLOAD SWAP3 ISZERO ISZERO DUP4 MSTORE PUSH1 0x1 PUSH1 0x1 PUSH1 0xA0 SHL SUB SWAP1 DUP2 AND SWAP5 AND SWAP3 CALLER SWAP3 LOG4 DUP1 RETURN JUMPDEST PUSH1 0x1 PUSH1 0x1 PUSH1 0xA0 SHL SUB DUP6 DUP2 AND DUP1 DUP9 MSTORE DUP4 DUP7 MSTORE PUSH1 0x40 DUP9 KECCAK256 SLOAD SWAP2 SWAP4 SWAP2 PUSH1 0xFF AND ISZERO PUSH2 0x1D11 JUMPI DUP4 PUSH1 0x0 DUP1 MLOAD PUSH1 0x20 PUSH2 0x5DC6 DUP4 CODECOPY DUP2 MLOAD SWAP2 MSTORE SWAP5 DUP5 AND DUP1 ISZERO ISZERO SWAP1 DUP2 PUSH2 0x1CFD JUMPI JUMPDEST POP ISZERO PUSH2 0x1CF3 JUMPI PUSH2 0x1C7E DUP7 DUP6 PUSH2 0x5274 JUMP JUMPDEST PUSH2 0x1C8A DUP2 DUP4 DUP13 CALLER PUSH2 0x4699 JUMP JUMPDEST ISZERO PUSH2 0x1CD1 JUMPI AND DUP9 MSTORE DUP2 DUP7 MSTORE PUSH1 0x40 DUP9 KECCAK256 DUP3 ADD DUP1 SLOAD PUSH1 0x1 PUSH1 0x1 PUSH1 0xA0 SHL SUB NOT AND CALLER OR SWAP1 SSTORE JUMPDEST DUP8 MSTORE DUP5 MSTORE PUSH1 0x1 PUSH1 0x40 DUP8 KECCAK256 ADD PUSH2 0x1CC1 DUP2 SLOAD PUSH2 0x4600 JUMP JUMPDEST SWAP1 SSTORE PUSH2 0x1CCC CALLER PUSH2 0x4760 JUMP JUMPDEST PUSH2 0x1C14 JUMP JUMPDEST AND DUP9 MSTORE DUP2 DUP7 MSTORE PUSH1 0x40 DUP9 KECCAK256 PUSH1 0x4 ADD DUP1 SLOAD PUSH1 0x1 PUSH1 0x1 PUSH1 0xA0 SHL SUB NOT AND CALLER OR SWAP1 SSTORE PUSH2 0x1CAC JUMP JUMPDEST PUSH2 0x1C7E DUP7 DUP10 PUSH2 0x5274 JUMP JUMPDEST DUP11 MSTORE POP DUP3 DUP8 MSTORE PUSH1 0x40 DUP10 KECCAK256 SLOAD PUSH1 0xFF AND CODESIZE PUSH2 0x1C6E JUMP JUMPDEST PUSH1 0x40 MLOAD PUSH4 0x2F212E0D PUSH1 0xE1 SHL DUP2 MSTORE PUSH1 0x4 SWAP1 REVERT JUMPDEST POP CALLVALUE PUSH2 0x311 JUMPI DUP1 PUSH1 0x3 NOT CALLDATASIZE ADD SLT PUSH2 0x311 JUMPI PUSH1 0x40 MLOAD PUSH32 0x0 PUSH1 0x1 PUSH1 0x1 PUSH1 0xA0 SHL SUB AND DUP2 MSTORE PUSH1 0x20 SWAP1 RETURN JUMPDEST POP CALLVALUE PUSH2 0x311 JUMPI PUSH1 0x20 CALLDATASIZE PUSH1 0x3 NOT ADD SLT PUSH2 0x311 JUMPI PUSH1 0x40 SWAP1 PUSH1 0x1 PUSH1 0x1 PUSH1 0xA0 SHL SUB PUSH2 0x1D8D PUSH2 0x42A7 JUMP JUMPDEST AND DUP2 MSTORE PUSH1 0x3 PUSH1 0x20 MSTORE KECCAK256 DUP1 PUSH2 0x2E0 MSTORE DUP1 DUP1 DUP1 DUP1 DUP1 DUP1 DUP1 DUP1 DUP1 DUP1 DUP1 DUP1 PUSH2 0x1E51 PUSH1 0x15 PUSH1 0xF PUSH1 0xE PUSH1 0xD PUSH1 0xC PUSH1 0xB PUSH1 0xA PUSH1 0x9 PUSH1 0x8 PUSH1 0x7 PUSH1 0x6 PUSH1 0x5 DUP14 SLOAD SWAP14 PUSH1 0x1 DUP2 ADD SLOAD PUSH2 0x100 MSTORE PUSH1 0x2 DUP2 ADD SLOAD PUSH2 0x220 MSTORE PUSH1 0x1 DUP1 PUSH1 0xA0 SHL SUB PUSH1 0x3 DUP3 ADD SLOAD AND PUSH2 0x160 MSTORE PUSH1 0x4 PUSH1 0x1 DUP1 PUSH1 0xA0 SHL SUB SWAP2 ADD SLOAD AND SWAP15 ADD SLOAD SWAP15 ADD SLOAD SWAP15 ADD SLOAD SWAP15 ADD SLOAD SWAP15 ADD SLOAD SWAP15 ADD SLOAD SWAP15 ADD SLOAD SWAP15 ADD SLOAD SWAP15 ADD SLOAD SWAP15 ADD SLOAD SWAP15 ADD SLOAD SWAP15 PUSH1 0x10 DUP2 ADD SLOAD PUSH2 0x280 MSTORE PUSH1 0x11 DUP2 ADD SLOAD PUSH1 0xC0 MSTORE PUSH1 0x1 DUP1 PUSH1 0xA0 SHL SUB PUSH1 0x12 DUP3 ADD SLOAD AND PUSH2 0x240 MSTORE PUSH1 0x13 DUP2 ADD SLOAD PUSH2 0x1A0 MSTORE PUSH1 0x14 DUP2 ADD SLOAD PUSH2 0x1E0 MSTORE ADD PUSH2 0x44AA JUMP JUMPDEST PUSH2 0x260 MSTORE PUSH2 0x1E64 PUSH1 0x16 PUSH2 0x2E0 MLOAD ADD PUSH2 0x44AA JUMP JUMPDEST PUSH2 0x2A0 MSTORE PUSH2 0x1E77 PUSH1 0x17 PUSH2 0x2E0 MLOAD ADD PUSH2 0x44AA JUMP JUMPDEST PUSH2 0x180 MSTORE PUSH2 0x1E8A PUSH1 0x18 PUSH2 0x2E0 MLOAD ADD PUSH2 0x44AA JUMP JUMPDEST PUSH1 0xE0 MSTORE PUSH1 0xFF PUSH1 0x19 PUSH2 0x2E0 MLOAD ADD SLOAD AND PUSH1 0x80 MSTORE PUSH1 0x40 MLOAD DUP1 PUSH1 0xA0 MSTORE PUSH1 0xFF DUP3 AND ISZERO ISZERO SWAP1 MSTORE PUSH1 0xFF DUP2 PUSH1 0x8 SHR AND ISZERO ISZERO PUSH1 0x20 PUSH1 0xA0 MLOAD ADD MSTORE PUSH1 0x1 DUP1 PUSH1 0xA0 SHL SUB SWAP1 PUSH1 0x10 SHR AND PUSH1 0x40 PUSH1 0xA0 MLOAD ADD MSTORE PUSH2 0x100 MLOAD PUSH1 0x60 PUSH1 0xA0 MLOAD ADD MSTORE PUSH1 0x1 DUP1 PUSH1 0xA0 SHL SUB PUSH2 0x220 MLOAD AND PUSH1 0x80 PUSH1 0xA0 MLOAD ADD MSTORE PUSH1 0xFF PUSH2 0x220 MLOAD PUSH1 0xA0 SHR AND ISZERO ISZERO PUSH1 0xA0 DUP1 MLOAD ADD MSTORE PUSH2 0x160 MLOAD PUSH1 0xC0 PUSH1 0xA0 MLOAD ADD MSTORE PUSH1 0xE0 PUSH1 0xA0 MLOAD ADD MSTORE PUSH2 0x100 PUSH1 0xA0 MLOAD ADD MSTORE PUSH2 0x120 PUSH1 0xA0 MLOAD ADD MSTORE PUSH2 0x140 PUSH1 0xA0 MLOAD ADD MSTORE PUSH2 0x160 PUSH1 0xA0 MLOAD ADD MSTORE PUSH2 0x180 PUSH1 0xA0 MLOAD ADD MSTORE PUSH2 0x1A0 PUSH1 0xA0 MLOAD ADD MSTORE PUSH2 0x1C0 PUSH1 0xA0 MLOAD ADD MSTORE PUSH2 0x1E0 PUSH1 0xA0 MLOAD ADD MSTORE PUSH2 0x200 PUSH1 0xA0 MLOAD ADD MSTORE PUSH2 0x220 PUSH1 0xA0 MLOAD ADD MSTORE PUSH2 0x240 PUSH1 0xA0 MLOAD ADD MSTORE PUSH2 0x280 MLOAD PUSH2 0x260 PUSH1 0xA0 MLOAD ADD MSTORE PUSH1 0xC0 MLOAD PUSH2 0x280 PUSH1 0xA0 MLOAD ADD MSTORE PUSH2 0x240 MLOAD PUSH2 0x2A0 PUSH1 0xA0 MLOAD ADD MSTORE PUSH2 0x1A0 MLOAD PUSH2 0x2C0 PUSH1 0xA0 MLOAD ADD MSTORE PUSH2 0x1E0 MLOAD PUSH2 0x2E0 PUSH1 0xA0 MLOAD ADD MSTORE PUSH2 0x2005 PUSH2 0x1FF1 PUSH2 0x1FDC PUSH2 0x1FC7 PUSH2 0x3A0 DUP1 PUSH2 0x300 PUSH1 0xA0 MLOAD ADD MSTORE PUSH1 0xA0 MLOAD ADD PUSH2 0x260 MLOAD PUSH2 0x42D3 JUMP JUMPDEST PUSH1 0xA0 MLOAD PUSH2 0x320 DUP2 DUP4 SUB SWAP2 ADD MSTORE PUSH2 0x2A0 MLOAD PUSH2 0x42D3 JUMP JUMPDEST PUSH1 0xA0 MLOAD PUSH2 0x340 DUP2 DUP4 SUB SWAP2 ADD MSTORE PUSH2 0x180 MLOAD PUSH2 0x42D3 JUMP JUMPDEST PUSH1 0xA0 MLOAD PUSH2 0x360 DUP2 DUP4 SUB SWAP2 ADD MSTORE PUSH1 0xE0 MLOAD PUSH2 0x42D3 JUMP JUMPDEST PUSH1 0x80 MLOAD ISZERO ISZERO PUSH2 0x380 PUSH1 0xA0 MLOAD ADD MSTORE PUSH1 0xA0 MLOAD DUP1 SWAP2 SUB SWAP1 RETURN JUMPDEST POP CALLVALUE PUSH2 0x311 JUMPI PUSH1 0x20 CALLDATASIZE PUSH1 0x3 NOT ADD SLT PUSH2 0x311 JUMPI PUSH1 0x4 CALLDATALOAD SWAP1 PUSH1 0x4 SLOAD DUP3 LT ISZERO PUSH2 0x311 JUMPI PUSH1 0x20 PUSH2 0x2046 DUP4 PUSH2 0x43EE JUMP JUMPDEST SWAP1 SLOAD PUSH1 0x40 MLOAD PUSH1 0x3 SWAP3 SWAP1 SWAP3 SHL SHR PUSH1 0x1 PUSH1 0x1 PUSH1 0xA0 SHL SUB AND DUP2 MSTORE RETURN JUMPDEST POP CALLVALUE PUSH2 0x311 JUMPI PUSH1 0x20 CALLDATASIZE PUSH1 0x3 NOT ADD SLT PUSH2 0x311 JUMPI PUSH1 0x60 PUSH2 0x2083 PUSH2 0x207E PUSH2 0x42A7 JUMP JUMPDEST PUSH2 0x5B43 JUMP JUMPDEST SWAP1 PUSH1 0x40 MLOAD SWAP3 ISZERO ISZERO DUP4 MSTORE PUSH1 0x20 DUP4 ADD MSTORE PUSH1 0x40 DUP3 ADD MSTORE RETURN JUMPDEST POP CALLVALUE PUSH2 0x311 JUMPI PUSH1 0x40 CALLDATASIZE PUSH1 0x3 NOT ADD SLT PUSH2 0x311 JUMPI PUSH2 0x20B2 PUSH2 0x42A7 JUMP JUMPDEST PUSH2 0x20BA PUSH2 0x43D0 JUMP JUMPDEST PUSH2 0x20C2 PUSH2 0x460F JUMP JUMPDEST PUSH1 0x1 PUSH1 0x1 PUSH1 0xA0 SHL SUB DUP3 AND ISZERO PUSH2 0x726 JUMPI CALLER DUP4 MSTORE PUSH1 0x3 PUSH1 0x20 MSTORE PUSH1 0x40 DUP4 KECCAK256 DUP1 SLOAD SWAP2 PUSH2 0x20EF PUSH1 0xFF DUP5 PUSH1 0x8 SHR AND PUSH2 0x457C JUMP JUMPDEST PUSH1 0xD DUP3 ADD DUP1 SLOAD SWAP1 PUSH9 0x70C1CC73B00C80000 DUP1 DUP4 LT PUSH2 0x2416 JUMPI PUSH1 0x1 PUSH1 0x1 PUSH1 0xA0 SHL SUB DUP8 AND DUP9 MSTORE PUSH1 0x3 PUSH1 0x20 MSTORE PUSH1 0x40 DUP9 KECCAK256 SLOAD PUSH1 0xFF AND PUSH2 0x23D1 JUMPI PUSH9 0x70C1CC73B00C7FFFF NOT DUP4 ADD SWAP3 DUP4 GT PUSH2 0x23BD JUMPI PUSH2 0x218A SWAP4 SWAP3 SWAP2 SWAP1 DUP1 DUP4 LT PUSH2 0x23B2 JUMPI PUSH2 0x2151 SWAP1 DUP1 SWAP4 PUSH2 0x45B5 JUMP JUMPDEST SWAP1 SSTORE PUSH1 0xC DUP5 ADD PUSH2 0x2162 DUP3 DUP3 SLOAD PUSH2 0x468C JUMP JUMPDEST SWAP1 SSTORE PUSH2 0x2173 PUSH1 0xE DUP6 ADD SWAP2 DUP3 SLOAD PUSH2 0x468C JUMP JUMPDEST SWAP1 SSTORE PUSH9 0x15245655B102580000 PUSH1 0xB DUP5 ADD SSTORE CALLER PUSH2 0x5274 JUMP JUMPDEST PUSH1 0x1 PUSH1 0x1 PUSH1 0xA0 SHL SUB DUP6 DUP2 AND PUSH1 0x0 SWAP1 DUP2 MSTORE PUSH1 0x3 PUSH1 0x20 MSTORE PUSH1 0x40 SWAP1 KECCAK256 DUP1 SLOAD PUSH2 0xFF01 PUSH1 0x1 PUSH1 0xB0 SHL SUB NOT AND PUSH3 0x10000 PUSH1 0x1 PUSH1 0xB0 SHL SUB DUP8 AND OR PUSH1 0x1 OR DUP2 SSTORE PUSH1 0x2 DUP2 ADD DUP1 SLOAD PUSH1 0x1 PUSH1 0x1 PUSH1 0xA8 SHL SUB NOT AND SWAP3 DUP6 AND SWAP3 SWAP1 SWAP3 OR DUP4 ISZERO ISZERO PUSH1 0xA0 SHL PUSH1 0xFF PUSH1 0xA0 SHL AND OR SWAP1 SWAP2 SSTORE PUSH1 0x12 DUP2 ADD DUP1 SLOAD PUSH1 0x1 PUSH1 0x1 PUSH1 0xA0 SHL SUB NOT AND CALLER OR SWAP1 SSTORE TIMESTAMP PUSH1 0x14 SWAP1 SWAP2 ADD SSTORE PUSH1 0x4 SLOAD SWAP4 SWAP2 SWAP1 PUSH1 0x1 PUSH1 0x40 SHL DUP6 LT ISZERO PUSH2 0x5B1 JUMPI PUSH2 0x2228 DUP6 PUSH1 0x1 PUSH1 0x13 SWAP8 ADD PUSH1 0x4 SSTORE PUSH2 0x43EE JUMP JUMPDEST DUP2 SLOAD PUSH1 0x1 PUSH1 0x1 PUSH1 0xA0 SHL SUB DUP10 DUP2 AND PUSH1 0x3 SWAP4 SWAP1 SWAP4 SHL SWAP3 DUP4 SHL SWAP3 SHL NOT AND OR SWAP1 SSTORE PUSH1 0x5 SLOAD PUSH2 0x2251 SWAP1 PUSH2 0x4600 JUMP JUMPDEST PUSH1 0x5 SSTORE ISZERO PUSH2 0x237F JUMPI PUSH1 0x1 PUSH1 0x1 PUSH1 0xA0 SHL SUB SWAP1 DUP2 AND DUP7 MSTORE PUSH1 0x3 PUSH1 0x20 DUP2 SWAP1 MSTORE PUSH1 0x40 DUP8 KECCAK256 ADD DUP1 SLOAD PUSH1 0x1 PUSH1 0x1 PUSH1 0xA0 SHL SUB NOT AND SWAP2 DUP7 AND SWAP2 SWAP1 SWAP2 OR SWAP1 SSTORE JUMPDEST PUSH1 0x10 SHR PUSH1 0x1 PUSH1 0x1 PUSH1 0xA0 SHL SUB AND DUP1 PUSH2 0x235F JUMPI JUMPDEST POP PUSH2 0x22A4 DUP4 PUSH2 0x4760 JUMP JUMPDEST PUSH2 0x22AD DUP4 PUSH2 0x4856 JUMP JUMPDEST ADD PUSH2 0x22B8 DUP2 SLOAD PUSH2 0x4600 JUMP JUMPDEST SWAP1 DUP2 SWAP1 SSTORE PUSH1 0x40 MLOAD SWAP1 DUP2 MSTORE PUSH1 0x1 PUSH1 0x1 PUSH1 0xA0 SHL SUB DUP3 AND SWAP1 CALLER SWAP1 PUSH32 0x30016ED357540281A6CFF6143637E72B48E105D85D15DF66B0AAFFBD23790240 SWAP1 PUSH1 0x20 SWAP1 LOG3 CALLER PUSH1 0x0 MSTORE PUSH1 0xE PUSH1 0x20 MSTORE PUSH1 0x40 PUSH1 0x0 KECCAK256 SWAP1 PUSH1 0x40 MLOAD PUSH2 0x2310 DUP2 PUSH2 0x4459 JUMP JUMPDEST PUSH1 0x9 DUP2 MSTORE PUSH1 0x20 DUP2 ADD SWAP1 PUSH4 0xFFFFFFFF TIMESTAMP AND DUP3 MSTORE PUSH1 0x40 DUP2 ADD PUSH1 0x0 DUP2 MSTORE PUSH1 0x60 DUP3 ADD SWAP5 PUSH1 0x0 DUP7 MSTORE PUSH1 0x80 DUP4 ADD SWAP5 PUSH1 0x1 DUP1 PUSH1 0xA0 SHL SUB AND DUP6 MSTORE DUP1 SLOAD PUSH1 0x1 PUSH1 0x40 SHL DUP2 LT ISZERO PUSH2 0x5B1 JUMPI PUSH2 0x529 SWAP2 PUSH1 0x1 DUP3 ADD DUP2 SSTORE PUSH2 0x463F JUMP JUMPDEST DUP5 MSTORE PUSH1 0x3 PUSH1 0x20 MSTORE PUSH1 0x1 PUSH1 0x40 DUP6 KECCAK256 ADD PUSH2 0x2377 DUP2 SLOAD PUSH2 0x4600 JUMP JUMPDEST SWAP1 SSTORE CODESIZE PUSH2 0x229A JUMP JUMPDEST PUSH1 0x1 PUSH1 0x1 PUSH1 0xA0 SHL SUB SWAP1 DUP2 AND DUP7 MSTORE PUSH1 0x3 PUSH1 0x20 MSTORE PUSH1 0x40 DUP7 KECCAK256 PUSH1 0x4 ADD DUP1 SLOAD PUSH1 0x1 PUSH1 0x1 PUSH1 0xA0 SHL SUB NOT AND SWAP2 DUP7 AND SWAP2 SWAP1 SWAP2 OR SWAP1 SSTORE PUSH2 0x2288 JUMP JUMPDEST POP PUSH2 0x2151 DUP3 DUP1 PUSH2 0x45B5 JUMP JUMPDEST PUSH4 0x4E487B71 PUSH1 0xE0 SHL DUP9 MSTORE PUSH1 0x11 PUSH1 0x4 MSTORE PUSH1 0x24 DUP9 REVERT JUMPDEST PUSH1 0x40 MLOAD PUSH3 0x461BCD PUSH1 0xE5 SHL DUP2 MSTORE PUSH1 0x20 PUSH1 0x4 DUP3 ADD MSTORE PUSH1 0x1E PUSH1 0x24 DUP3 ADD MSTORE PUSH32 0x5375622D6163636F756E7420616C726561647920726567697374657265640000 PUSH1 0x44 DUP3 ADD MSTORE PUSH1 0x64 SWAP1 REVERT JUMPDEST PUSH1 0x40 MLOAD PUSH4 0x7DB32BD PUSH1 0xE3 SHL DUP2 MSTORE PUSH1 0x4 SWAP1 REVERT JUMPDEST POP CALLVALUE PUSH2 0x311 JUMPI DUP1 PUSH1 0x3 NOT CALLDATASIZE ADD SLT PUSH2 0x311 JUMPI PUSH1 0x20 PUSH1 0x40 MLOAD PUSH1 0xA DUP2 MSTORE RETURN JUMPDEST POP CALLVALUE PUSH2 0x311 JUMPI DUP1 PUSH1 0x3 NOT CALLDATASIZE ADD SLT PUSH2 0x311 JUMPI SLOAD PUSH1 0x40 MLOAD PUSH1 0x1 PUSH1 0x1 PUSH1 0xA0 SHL SUB SWAP1 SWAP2 AND DUP2 MSTORE PUSH1 0x20 SWAP1 RETURN JUMPDEST POP CALLVALUE PUSH2 0x311 JUMPI PUSH2 0x247A CALLDATASIZE PUSH2 0x4347 JUMP JUMPDEST SWAP1 PUSH2 0x2483 PUSH2 0x4550 JUMP JUMPDEST PUSH2 0x248B PUSH2 0x460F JUMP JUMPDEST PUSH1 0xFF SWAP2 DUP3 PUSH1 0xA SLOAD AND ISZERO PUSH2 0x2777 JUMPI PUSH2 0x24A2 SWAP1 DUP3 PUSH2 0x468C JUMP JUMPDEST SWAP1 PUSH1 0x4 SLOAD DUP1 DUP4 GT PUSH2 0x276F JUMPI JUMPDEST POP DUP4 SWAP2 DUP2 JUMPDEST DUP2 DUP2 LT PUSH2 0x272F JUMPI POP PUSH1 0x9 SWAP2 DUP3 SLOAD SWAP5 DUP5 ISZERO ISZERO DUP1 PUSH2 0x2726 JUMPI JUMPDEST ISZERO PUSH2 0x270D JUMPI TIMESTAMP PUSH4 0xFFFFFFFF AND SWAP1 DUP8 DUP4 JUMPDEST DUP6 DUP2 LT PUSH2 0x2581 JUMPI POP SWAP5 SWAP4 SWAP3 SWAP2 POP POP JUMPDEST DUP2 DUP2 LT PUSH2 0x2543 JUMPI DUP4 PUSH32 0x7F4A5B69BEA14A6FC05326671A02E90D4A88855C83A18529C260057B1BF61A85 PUSH1 0x40 DUP9 DUP9 DUP5 DUP9 SSTORE PUSH1 0xFF NOT PUSH1 0xA SLOAD AND PUSH1 0xA SSTORE DUP3 MLOAD SWAP2 DUP3 MSTORE PUSH1 0x20 DUP3 ADD MSTORE LOG1 PUSH1 0x1 PUSH1 0x0 DUP1 MLOAD PUSH1 0x20 PUSH2 0x5E46 DUP4 CODECOPY DUP2 MLOAD SWAP2 MSTORE SSTORE DUP1 RETURN JUMPDEST PUSH2 0x2578 SWAP2 SWAP3 SWAP4 POP PUSH2 0x2553 DUP2 PUSH2 0x43EE JUMP JUMPDEST SWAP1 SLOAD PUSH1 0x3 SWAP2 DUP3 SHL SHR PUSH1 0x1 PUSH1 0x1 PUSH1 0xA0 SHL SUB AND DUP9 MSTORE PUSH1 0x20 MSTORE PUSH1 0x40 DUP8 KECCAK256 PUSH1 0x11 ADD DUP8 SWAP1 SSTORE PUSH2 0x4600 JUMP JUMPDEST SWAP1 DUP6 SWAP3 SWAP2 PUSH2 0x24E9 JUMP JUMPDEST PUSH2 0x258A DUP2 PUSH2 0x43EE JUMP JUMPDEST SWAP1 SLOAD PUSH1 0x3 SWAP2 DUP3 SHL SHR PUSH1 0x1 PUSH1 0x1 PUSH1 0xA0 SHL SUB AND DUP1 DUP5 MSTORE PUSH1 0x20 DUP3 DUP2 MSTORE PUSH1 0x40 DUP6 KECCAK256 PUSH1 0x11 ADD SLOAD SWAP1 SWAP3 SWAP2 SWAP1 DUP11 DUP13 DUP15 DUP4 ISZERO PUSH2 0x26FC JUMPI SWAP3 PUSH32 0xB05ABF391BCC5D117D31727729F0DA5B0E3EB5F91A478372995EFA128696C406 SWAP3 PUSH1 0x40 PUSH2 0x25F2 DUP2 SWAP5 PUSH2 0x25ED DUP6 DUP11 SWAP10 PUSH2 0x47FF JUMP JUMPDEST PUSH2 0x4812 JUMP JUMPDEST SWAP11 DUP7 DUP2 MSTORE DUP9 DUP11 MSTORE PUSH1 0x8 SWAP9 DUP13 PUSH2 0x260D DUP12 DUP6 DUP6 KECCAK256 ADD SWAP2 DUP3 SLOAD PUSH2 0x468C JUMP JUMPDEST SWAP1 SSTORE DUP8 DUP3 MSTORE DUP11 MSTORE KECCAK256 ADD PUSH2 0x2621 DUP11 DUP3 SLOAD PUSH2 0x468C JUMP JUMPDEST SWAP1 SSTORE DUP2 MLOAD SWAP1 DUP2 MSTORE DUP9 DUP8 DUP3 ADD MSTORE LOG2 PUSH1 0x0 MSTORE PUSH1 0xE DUP3 MSTORE PUSH1 0x40 PUSH1 0x0 KECCAK256 PUSH1 0x40 MLOAD SWAP3 PUSH2 0x2647 DUP5 PUSH2 0x4459 JUMP JUMPDEST PUSH1 0x4 DUP5 MSTORE DUP4 ADD DUP8 DUP2 MSTORE PUSH1 0x40 DUP5 ADD SWAP6 DUP7 MSTORE PUSH1 0x60 DUP5 ADD SWAP4 PUSH1 0x0 DUP6 MSTORE PUSH1 0x80 DUP2 ADD SWAP3 PUSH1 0x0 DUP5 MSTORE DUP1 SLOAD PUSH1 0x1 PUSH1 0x40 SHL DUP2 LT ISZERO PUSH2 0x5B1 JUMPI PUSH2 0x2688 SWAP1 PUSH1 0x1 SWAP3 DUP4 DUP3 ADD DUP2 SSTORE PUSH2 0x463F JUMP JUMPDEST SWAP2 SWAP1 SWAP2 PUSH2 0x59B JUMPI SWAP2 MLOAD DUP2 SLOAD SWAP4 MLOAD PUSH5 0xFFFFFFFFFF NOT SWAP1 SWAP5 AND SWAP1 DUP11 AND OR SWAP3 DUP6 SHL PUSH5 0xFFFFFFFF00 AND SWAP3 SWAP1 SWAP3 OR DUP3 SSTORE SWAP6 MLOAD SWAP6 DUP2 ADD SWAP6 SWAP1 SWAP6 SSTORE SWAP2 MLOAD PUSH1 0x2 SWAP5 SWAP1 SWAP5 ADD DUP1 SLOAD SWAP3 MLOAD PUSH1 0x1 PUSH1 0x1 PUSH1 0xA8 SHL SUB NOT SWAP1 SWAP4 AND SWAP5 DUP7 AND SWAP5 SWAP1 SWAP5 OR SWAP2 SWAP1 SHL PUSH2 0x100 PUSH1 0x1 PUSH1 0xA8 SHL SUB AND OR SWAP1 SWAP2 SSTORE PUSH2 0x26F5 SWAP1 PUSH2 0x4600 JUMP JUMPDEST DUP9 SWAP1 PUSH2 0x24DA JUMP JUMPDEST POP POP POP POP POP POP POP PUSH2 0x26F5 SWAP2 POP PUSH2 0x4600 JUMP JUMPDEST POP PUSH2 0x271A DUP6 PUSH1 0x8 SLOAD PUSH2 0x468C JUMP JUMPDEST PUSH1 0x8 SSTORE SWAP1 DUP6 SWAP3 SWAP2 PUSH2 0x24E9 JUMP JUMPDEST POP DUP6 ISZERO ISZERO PUSH2 0x24CA JUMP JUMPDEST SWAP3 PUSH2 0x2764 PUSH2 0x276A SWAP2 PUSH2 0x2740 DUP7 PUSH2 0x43EE JUMP JUMPDEST SWAP1 SLOAD PUSH1 0x3 SWAP2 DUP3 SHL SHR PUSH1 0x1 PUSH1 0x1 PUSH1 0xA0 SHL SUB AND DUP10 MSTORE PUSH1 0x20 MSTORE PUSH1 0x40 DUP9 KECCAK256 PUSH1 0x11 ADD SLOAD SWAP1 PUSH2 0x468C JUMP JUMPDEST SWAP4 PUSH2 0x4600 JUMP JUMPDEST PUSH2 0x24B3 JUMP JUMPDEST SWAP2 POP CODESIZE PUSH2 0x24AE JUMP JUMPDEST PUSH1 0x40 MLOAD PUSH4 0x418826BF PUSH1 0xE1 SHL DUP2 MSTORE PUSH1 0x4 SWAP1 REVERT JUMPDEST POP CALLVALUE PUSH2 0x311 JUMPI DUP1 PUSH1 0x3 NOT CALLDATASIZE ADD SLT PUSH2 0x311 JUMPI PUSH1 0x20 PUSH1 0x40 MLOAD PUSH9 0x2B5E3AF16B1880000 DUP2 MSTORE RETURN JUMPDEST POP CALLVALUE PUSH2 0x311 JUMPI DUP1 PUSH1 0x3 NOT CALLDATASIZE ADD SLT PUSH2 0x311 JUMPI PUSH1 0x20 PUSH1 0x6 SLOAD PUSH1 0x40 MLOAD SWAP1 DUP2 MSTORE RETURN JUMPDEST POP CALLVALUE PUSH2 0x311 JUMPI PUSH2 0x27E3 PUSH2 0x27DD CALLDATASIZE PUSH2 0x43A6 JUMP JUMPDEST SWAP2 PUSH2 0x5BFC JUMP JUMPDEST SWAP1 PUSH1 0x40 MLOAD SWAP2 PUSH1 0x40 DUP4 ADD SWAP2 PUSH1 0x40 DUP5 MSTORE DUP1 MLOAD DUP1 SWAP4 MSTORE PUSH1 0x60 SWAP5 DUP6 DUP6 ADD SWAP4 PUSH1 0x20 DUP1 SWAP4 ADD SWAP2 JUMPDEST DUP2 DUP2 LT PUSH2 0x2818 JUMPI POP POP POP DUP4 DUP1 SWAP6 POP ADD MSTORE SUB SWAP1 RETURN JUMPDEST DUP3 MLOAD DUP1 MLOAD PUSH1 0xFF SWAP1 DUP2 AND DUP9 MSTORE DUP2 DUP7 ADD MLOAD PUSH4 0xFFFFFFFF AND DUP7 DUP10 ADD MSTORE PUSH1 0x40 DUP1 DUP4 ADD MLOAD SWAP1 DUP10 ADD MSTORE DUP10 DUP3 ADD MLOAD AND DUP10 DUP9 ADD MSTORE PUSH1 0x80 SWAP1 DUP2 ADD MLOAD PUSH1 0x1 PUSH1 0x1 PUSH1 0xA0 SHL SUB AND SWAP1 DUP8 ADD MSTORE PUSH1 0xA0 SWAP1 SWAP6 ADD SWAP5 SWAP2 DUP4 ADD SWAP2 PUSH1 0x1 ADD PUSH2 0x2804 JUMP JUMPDEST POP CALLVALUE PUSH2 0x311 JUMPI DUP1 PUSH1 0x3 NOT CALLDATASIZE ADD SLT PUSH2 0x311 JUMPI PUSH2 0x2882 PUSH2 0x4550 JUMP JUMPDEST PUSH1 0x0 DUP1 SLOAD PUSH1 0x1 PUSH1 0x1 PUSH1 0xA0 SHL SUB NOT DUP2 AND DUP3 SSTORE PUSH1 0x1 PUSH1 0x1 PUSH1 0xA0 SHL SUB AND PUSH1 0x0 DUP1 MLOAD PUSH1 0x20 PUSH2 0x5DE6 DUP4 CODECOPY DUP2 MLOAD SWAP2 MSTORE DUP3 DUP1 LOG3 DUP1 RETURN JUMPDEST POP CALLVALUE PUSH2 0x311 JUMPI DUP1 PUSH1 0x3 NOT CALLDATASIZE ADD SLT PUSH2 0x311 JUMPI PUSH1 0x1 SLOAD PUSH1 0x40 MLOAD PUSH3 0x3144BD PUSH1 0xE3 SHL DUP2 MSTORE PUSH1 0x1 PUSH1 0x1 PUSH1 0xA0 SHL SUB SWAP1 SWAP2 AND SWAP2 PUSH1 0x20 DUP1 DUP4 PUSH1 0x4 DUP2 DUP8 GAS STATICCALL SWAP3 DUP4 ISZERO PUSH2 0xA11 JUMPI DUP3 SWAP4 PUSH2 0x2958 JUMPI JUMPDEST POP DUP1 PUSH1 0x4 SWAP5 PUSH1 0x40 MLOAD SWAP6 DUP7 DUP1 SWAP3 PUSH4 0x10F4CBA7 PUSH1 0xE2 SHL DUP3 MSTORE GAS STATICCALL SWAP2 DUP3 ISZERO PUSH2 0x11EE JUMPI SWAP2 PUSH2 0x2928 JUMPI JUMPDEST PUSH1 0x40 DUP1 SWAP5 POP MLOAD SWAP3 DUP4 MSTORE DUP3 ADD MSTORE RETURN JUMPDEST DUP1 SWAP2 POP DUP4 DUP2 RETURNDATASIZE DUP4 GT PUSH2 0x2951 JUMPI JUMPDEST PUSH2 0x293F DUP2 DUP4 PUSH2 0x4487 JUMP JUMPDEST DUP2 ADD SUB SLT PUSH2 0xAB1 JUMPI PUSH1 0x40 SWAP3 MLOAD SWAP1 PUSH2 0x291A JUMP JUMPDEST POP RETURNDATASIZE PUSH2 0x2935 JUMP JUMPDEST SWAP4 SWAP3 POP DUP1 DUP5 DUP2 RETURNDATASIZE DUP4 GT PUSH2 0x2982 JUMPI JUMPDEST PUSH2 0x2970 DUP2 DUP4 PUSH2 0x4487 JUMP JUMPDEST DUP2 ADD SUB SLT PUSH2 0xAB1 JUMPI SWAP3 MLOAD SWAP2 SWAP3 DUP1 PUSH2 0x28F5 JUMP JUMPDEST POP RETURNDATASIZE PUSH2 0x2966 JUMP JUMPDEST POP CALLVALUE PUSH2 0x311 JUMPI PUSH1 0x20 CALLDATASIZE PUSH1 0x3 NOT ADD SLT PUSH2 0x311 JUMPI PUSH1 0x40 SWAP1 PUSH1 0x1 PUSH1 0x1 PUSH1 0xA0 SHL SUB PUSH2 0x29AE PUSH2 0x42A7 JUMP JUMPDEST AND DUP2 MSTORE PUSH1 0x3 PUSH1 0x20 MSTORE KECCAK256 DUP1 DUP1 DUP1 DUP1 DUP1 DUP1 DUP1 DUP1 DUP1 DUP1 DUP1 DUP1 DUP1 SLOAD PUSH1 0x1 DUP3 ADD SLOAD PUSH2 0x120 MSTORE PUSH1 0x2 DUP3 ADD SLOAD PUSH2 0x1C0 MSTORE PUSH1 0x14 PUSH1 0x7 PUSH1 0x11 PUSH1 0xF PUSH1 0xD PUSH1 0xC PUSH1 0xB PUSH1 0xA PUSH1 0x9 PUSH1 0x8 PUSH1 0x6 PUSH1 0x5 DUP14 PUSH1 0x3 PUSH1 0x1 DUP1 PUSH1 0xA0 SHL SUB SWAP2 ADD SLOAD AND SWAP14 PUSH1 0x4 PUSH1 0x1 DUP1 PUSH1 0xA0 SHL SUB SWAP2 ADD SLOAD AND SWAP15 ADD SLOAD SWAP15 ADD SLOAD SWAP15 ADD SLOAD SWAP15 ADD SLOAD SWAP15 ADD SLOAD SWAP15 ADD SLOAD SWAP15 ADD SLOAD SWAP15 ADD SLOAD SWAP15 ADD SLOAD SWAP15 ADD SLOAD SWAP15 ADD SLOAD SWAP15 PUSH1 0x1 DUP1 PUSH1 0xA0 SHL SUB PUSH1 0x12 DUP3 ADD SLOAD AND PUSH2 0x140 MSTORE PUSH1 0x13 DUP2 ADD SLOAD PUSH2 0x200 MSTORE ADD SLOAD PUSH2 0x2C0 MSTORE PUSH1 0x40 MLOAD DUP1 PUSH2 0x300 MSTORE PUSH1 0xFF DUP3 AND ISZERO ISZERO SWAP1 MSTORE PUSH1 0xFF DUP2 PUSH1 0x8 SHR AND ISZERO ISZERO PUSH1 0x20 PUSH2 0x300 MLOAD ADD MSTORE PUSH1 0x1 DUP1 PUSH1 0xA0 SHL SUB SWAP1 PUSH1 0x10 SHR AND PUSH1 0x40 PUSH2 0x300 MLOAD ADD MSTORE PUSH2 0x120 MLOAD PUSH1 0x60 PUSH2 0x300 MLOAD ADD MSTORE PUSH1 0x1 DUP1 PUSH1 0xA0 SHL SUB PUSH2 0x1C0 MLOAD AND PUSH1 0x80 PUSH2 0x300 MLOAD ADD MSTORE PUSH1 0xFF PUSH2 0x1C0 MLOAD PUSH1 0xA0 SHR AND ISZERO ISZERO PUSH1 0xA0 PUSH2 0x300 MLOAD ADD MSTORE PUSH1 0xC0 PUSH2 0x300 MLOAD ADD MSTORE PUSH1 0xE0 PUSH2 0x300 MLOAD ADD MSTORE PUSH2 0x100 PUSH2 0x300 MLOAD ADD MSTORE PUSH2 0x120 PUSH2 0x300 MLOAD ADD MSTORE PUSH2 0x140 PUSH2 0x300 MLOAD ADD MSTORE PUSH2 0x160 PUSH2 0x300 MLOAD ADD MSTORE PUSH2 0x180 PUSH2 0x300 MLOAD ADD MSTORE PUSH2 0x1A0 PUSH2 0x300 MLOAD ADD MSTORE PUSH2 0x1C0 PUSH2 0x300 MLOAD ADD MSTORE PUSH2 0x1E0 PUSH2 0x300 MLOAD ADD MSTORE PUSH2 0x200 PUSH2 0x300 MLOAD ADD MSTORE PUSH2 0x220 PUSH2 0x300 MLOAD ADD MSTORE PUSH2 0x240 PUSH2 0x300 MLOAD ADD MSTORE PUSH2 0x140 MLOAD PUSH2 0x260 PUSH2 0x300 MLOAD ADD MSTORE PUSH2 0x200 MLOAD PUSH2 0x280 PUSH2 0x300 MLOAD ADD MSTORE PUSH2 0x2C0 MLOAD PUSH2 0x2A0 PUSH2 0x300 MLOAD ADD MSTORE PUSH2 0x2C0 PUSH2 0x300 MLOAD RETURN JUMPDEST POP CALLVALUE PUSH2 0x311 JUMPI PUSH1 0x20 CALLDATASIZE PUSH1 0x3 NOT ADD SLT PUSH2 0x311 JUMPI PUSH2 0x2B73 PUSH2 0x460F JUMP JUMPDEST PUSH1 0x4 CALLDATALOAD ISZERO PUSH2 0x108F JUMPI CALLER DUP2 MSTORE PUSH1 0x3 PUSH1 0x20 MSTORE PUSH1 0x40 DUP2 KECCAK256 PUSH1 0xFF DUP2 SLOAD PUSH1 0x8 SHR AND ISZERO PUSH2 0xDBF JUMPI PUSH1 0x8 DUP2 ADD DUP1 SLOAD PUSH1 0x4 CALLDATALOAD DUP2 LT PUSH2 0x2F81 JUMPI PUSH2 0x2BB0 SWAP1 PUSH1 0x4 CALLDATALOAD SWAP1 PUSH2 0x45B5 JUMP JUMPDEST SWAP1 SSTORE PUSH1 0xA DUP2 ADD PUSH2 0x2BC3 PUSH1 0x4 CALLDATALOAD DUP3 SLOAD PUSH2 0x468C JUMP JUMPDEST SWAP1 SSTORE PUSH1 0x40 MLOAD PUSH4 0x70A08231 PUSH1 0xE0 SHL DUP1 DUP3 MSTORE ADDRESS PUSH1 0x4 DUP4 ADD MSTORE PUSH1 0x1 PUSH1 0x1 PUSH1 0xA0 SHL SUB PUSH32 0x0 DUP2 AND SWAP3 SWAP2 SWAP1 DUP6 SWAP1 PUSH1 0x20 DUP5 PUSH1 0x24 DUP2 DUP9 GAS STATICCALL SWAP4 DUP5 ISZERO PUSH2 0xA11 JUMPI DUP3 SWAP5 PUSH2 0x2F4A JUMPI JUMPDEST POP PUSH1 0x1 SLOAD AND DUP1 EXTCODESIZE ISZERO PUSH2 0xA1C JUMPI DUP2 DUP1 SWAP2 PUSH1 0x24 PUSH1 0x40 MLOAD DUP1 SWAP5 DUP2 SWAP4 PUSH4 0x72424D99 PUSH1 0xE1 SHL DUP4 MSTORE PUSH1 0x4 CALLDATALOAD PUSH1 0x4 DUP5 ADD MSTORE GAS CALL DUP1 ISZERO PUSH2 0xA11 JUMPI PUSH2 0x2F32 JUMPI JUMPDEST POP POP PUSH1 0x20 SWAP1 PUSH1 0x24 PUSH1 0x40 MLOAD DUP1 SWAP6 DUP2 SWAP4 DUP3 MSTORE ADDRESS PUSH1 0x4 DUP4 ADD MSTORE GAS STATICCALL DUP1 ISZERO PUSH2 0x1084 JUMPI DUP5 SWAP1 PUSH2 0x2EFE JUMPI JUMPDEST PUSH2 0x2C86 SWAP3 POP PUSH2 0x45B5 JUMP JUMPDEST PUSH1 0xA DUP2 MUL SWAP1 DUP1 DUP3 DIV PUSH1 0xA EQ DUP2 ISZERO OR ISZERO PUSH2 0x2EEA JUMPI PUSH2 0x2CA7 SWAP1 PUSH1 0x64 DUP4 DIV SWAP1 PUSH2 0x45B5 JUMP JUMPDEST SWAP2 PUSH1 0xF DUP2 ADD PUSH2 0x2CBA PUSH1 0x64 DUP5 DIV DUP3 SLOAD PUSH2 0x468C JUMP JUMPDEST SWAP1 SSTORE PUSH1 0x10 DUP2 ADD PUSH2 0x2CCE PUSH1 0x64 DUP5 DIV DUP3 SLOAD PUSH2 0x468C JUMP JUMPDEST SWAP1 SSTORE PUSH1 0x40 MLOAD PUSH1 0x64 DUP4 DIV DUP2 MSTORE PUSH32 0x2B1D2104E84DD4DABB0CCA024171F783AB1E1C9DC1AF9D60A2361596653A99C4 PUSH1 0x20 CALLER SWAP3 LOG2 CALLER PUSH1 0x0 MSTORE PUSH1 0xE PUSH1 0x20 MSTORE PUSH1 0x40 PUSH1 0x0 KECCAK256 SWAP1 PUSH1 0x40 MLOAD SWAP2 PUSH2 0x2D1B DUP4 PUSH2 0x4459 JUMP JUMPDEST PUSH1 0x6 DUP4 MSTORE TIMESTAMP PUSH4 0xFFFFFFFF AND PUSH1 0x20 DUP5 ADD MSTORE PUSH1 0x64 DUP5 DIV PUSH1 0x40 DUP5 ADD MSTORE PUSH1 0x0 PUSH1 0x60 DUP5 ADD DUP2 SWAP1 MSTORE PUSH1 0x80 DUP5 ADD MSTORE DUP1 SLOAD PUSH1 0x1 PUSH1 0x40 SHL DUP2 LT ISZERO PUSH2 0x5B1 JUMPI PUSH2 0x2D5F SWAP2 PUSH1 0x1 DUP3 ADD DUP2 SSTORE PUSH2 0x463F JUMP JUMPDEST PUSH2 0x59B JUMPI DUP3 MLOAD DUP2 SLOAD PUSH1 0x20 DUP6 ADD MLOAD PUSH5 0xFFFFFFFFFF NOT SWAP1 SWAP2 AND PUSH1 0xFF SWAP3 DUP4 AND OR PUSH1 0x8 SWAP2 DUP3 SHL PUSH5 0xFFFFFFFF00 AND OR DUP4 SSTORE PUSH1 0x40 DUP6 ADD MLOAD PUSH1 0x1 DUP5 ADD SSTORE PUSH1 0x60 DUP6 ADD MLOAD PUSH1 0x2 SWAP4 SWAP1 SWAP4 ADD DUP1 SLOAD PUSH1 0x80 SWAP1 SWAP7 ADD MLOAD PUSH1 0x1 PUSH1 0x1 PUSH1 0xA8 SHL SUB NOT SWAP1 SWAP7 AND SWAP4 SWAP1 SWAP3 AND SWAP3 SWAP1 SWAP3 OR SWAP4 SWAP1 SWAP2 SHL PUSH2 0x100 PUSH1 0x1 PUSH1 0xA8 SHL SUB AND SWAP3 SWAP1 SWAP3 OR SWAP1 SWAP2 SSTORE PUSH1 0xB DUP2 ADD SLOAD PUSH32 0x8F7262D5A031D4D671E1FDB0CDDCD26D37185226F9E82F2F18877141AC1963EB SWAP2 DUP6 DUP3 ISZERO PUSH2 0x2EDE JUMPI POP DUP2 DUP6 GT ISZERO PUSH2 0x2ED5 JUMPI PUSH1 0xD DUP3 SWAP2 JUMPDEST DUP3 PUSH2 0x2E33 DUP2 PUSH2 0x2E1C DUP2 DUP12 PUSH2 0x45B5 JUMP JUMPDEST SWAP7 PUSH1 0xC DUP6 ADD PUSH2 0x2E2C DUP4 DUP3 SLOAD PUSH2 0x468C JUMP JUMPDEST SWAP1 SSTORE PUSH2 0x45B5 JUMP JUMPDEST PUSH1 0xB DUP4 ADD SSTORE PUSH2 0x2E47 PUSH1 0xE DUP4 ADD SWAP2 DUP3 SLOAD PUSH2 0x468C JUMP JUMPDEST SWAP1 SSTORE JUMPDEST ADD PUSH2 0x2E56 DUP4 DUP3 SLOAD PUSH2 0x468C JUMP JUMPDEST SWAP1 SSTORE PUSH2 0x2E70 PUSH1 0x40 MLOAD SWAP3 DUP4 SWAP3 PUSH1 0x64 CALLER SWAP8 DIV DUP9 PUSH1 0x4 CALLDATALOAD DUP7 PUSH2 0x4832 JUMP JUMPDEST SUB SWAP1 LOG2 CALLER PUSH1 0x0 MSTORE PUSH1 0xE PUSH1 0x20 MSTORE PUSH1 0x40 PUSH1 0x0 KECCAK256 PUSH1 0x40 MLOAD PUSH2 0x2E8D DUP2 PUSH2 0x4459 JUMP JUMPDEST PUSH1 0x5 DUP2 MSTORE PUSH1 0x20 DUP2 ADD SWAP1 PUSH4 0xFFFFFFFF TIMESTAMP AND DUP3 MSTORE PUSH1 0x40 DUP2 ADD SWAP4 DUP5 MSTORE PUSH1 0x60 DUP2 ADD SWAP4 PUSH1 0x0 DUP6 MSTORE PUSH1 0x80 DUP3 ADD SWAP4 PUSH1 0x0 DUP6 MSTORE DUP1 SLOAD PUSH1 0x1 PUSH1 0x40 SHL DUP2 LT ISZERO PUSH2 0x5B1 JUMPI PUSH2 0x529 SWAP2 PUSH1 0x1 DUP3 ADD DUP2 SSTORE PUSH2 0x463F JUMP JUMPDEST PUSH1 0xD DUP6 SWAP2 PUSH2 0x2E0D JUMP JUMPDEST SWAP1 SWAP2 POP PUSH1 0xD DUP6 SWAP3 PUSH2 0x2E4A JUMP JUMPDEST PUSH4 0x4E487B71 PUSH1 0xE0 SHL DUP5 MSTORE PUSH1 0x11 PUSH1 0x4 MSTORE PUSH1 0x24 DUP5 REVERT JUMPDEST POP PUSH1 0x20 DUP3 RETURNDATASIZE PUSH1 0x20 GT PUSH2 0x2F2A JUMPI JUMPDEST DUP2 PUSH2 0x2F18 PUSH1 0x20 SWAP4 DUP4 PUSH2 0x4487 JUMP JUMPDEST DUP2 ADD SUB SLT PUSH2 0xAB1 JUMPI PUSH2 0x2C86 SWAP2 MLOAD PUSH2 0x2C7C JUMP JUMPDEST RETURNDATASIZE SWAP2 POP PUSH2 0x2F0B JUMP JUMPDEST PUSH2 0x2F3B SWAP1 PUSH2 0x4474 JUMP JUMPDEST PUSH2 0x2F46 JUMPI DUP5 CODESIZE PUSH2 0x2C57 JUMP JUMPDEST DUP5 DUP1 REVERT JUMPDEST SWAP2 POP SWAP3 POP PUSH1 0x20 DUP2 RETURNDATASIZE PUSH1 0x20 GT PUSH2 0x2F79 JUMPI JUMPDEST DUP2 PUSH2 0x2F67 PUSH1 0x20 SWAP4 DUP4 PUSH2 0x4487 JUMP JUMPDEST DUP2 ADD SUB SLT PUSH2 0xAB1 JUMPI DUP6 SWAP1 MLOAD SWAP3 CODESIZE PUSH2 0x2C20 JUMP JUMPDEST RETURNDATASIZE SWAP2 POP PUSH2 0x2F5A JUMP JUMPDEST PUSH1 0x40 MLOAD PUSH4 0x208975E7 PUSH1 0xE2 SHL DUP2 MSTORE PUSH1 0x4 SWAP1 REVERT JUMPDEST POP CALLVALUE PUSH2 0x311 JUMPI PUSH1 0x80 CALLDATASIZE PUSH1 0x3 NOT ADD SLT PUSH2 0x311 JUMPI PUSH1 0x4 CALLDATALOAD PUSH1 0x1 PUSH1 0x1 PUSH1 0x40 SHL SUB DUP2 GT PUSH2 0xA1C JUMPI PUSH2 0x2FC4 SWAP1 CALLDATASIZE SWAP1 PUSH1 0x4 ADD PUSH2 0x4379 JUMP JUMPDEST SWAP2 SWAP1 PUSH1 0x24 CALLDATALOAD PUSH1 0x1 PUSH1 0x1 PUSH1 0x40 SHL SUB DUP2 GT PUSH2 0xF03 JUMPI PUSH2 0x2FE5 SWAP1 CALLDATASIZE SWAP1 PUSH1 0x4 ADD PUSH2 0x4379 JUMP JUMPDEST PUSH1 0x44 CALLDATALOAD PUSH1 0x1 PUSH1 0x1 PUSH1 0x40 SHL SUB DUP2 GT PUSH2 0x2F46 JUMPI PUSH2 0x3004 SWAP1 CALLDATASIZE SWAP1 PUSH1 0x4 ADD PUSH2 0x4379 JUMP JUMPDEST SWAP1 SWAP2 PUSH1 0x64 CALLDATALOAD PUSH1 0x1 PUSH1 0x1 PUSH1 0x40 SHL SUB DUP2 GT PUSH2 0x3513 JUMPI PUSH2 0x3025 SWAP1 CALLDATASIZE SWAP1 PUSH1 0x4 ADD PUSH2 0x4379 JUMP JUMPDEST SWAP5 SWAP1 SWAP8 CALLER DUP9 MSTORE PUSH1 0x3 PUSH1 0x20 MSTORE PUSH2 0x3040 PUSH1 0xFF PUSH1 0x40 DUP11 KECCAK256 SLOAD AND PUSH2 0x5914 JUMP JUMPDEST CALLER DUP9 MSTORE PUSH1 0x3 PUSH1 0x20 MSTORE PUSH1 0x40 DUP9 KECCAK256 SWAP7 PUSH1 0x1 PUSH1 0x1 PUSH1 0x40 SHL SUB DUP3 GT PUSH2 0x34FF JUMPI DUP2 SWAP1 PUSH2 0x306A PUSH1 0x15 DUP11 ADD SLOAD PUSH2 0x441F JUMP JUMPDEST PUSH1 0x1F DUP2 GT PUSH2 0x34AF JUMPI JUMPDEST POP DUP10 SWAP1 PUSH1 0x1F DUP4 GT PUSH1 0x1 EQ PUSH2 0x3443 JUMPI DUP11 SWAP3 PUSH2 0x3438 JUMPI JUMPDEST POP POP DUP2 PUSH1 0x1 SHL SWAP2 PUSH1 0x0 NOT SWAP1 PUSH1 0x3 SHL SHR NOT AND OR PUSH1 0x15 DUP8 ADD SSTORE JUMPDEST PUSH1 0x1 PUSH1 0x1 PUSH1 0x40 SHL SUB DUP3 GT PUSH2 0x3424 JUMPI DUP2 SWAP1 PUSH2 0x30BD PUSH1 0x16 DUP9 ADD SLOAD PUSH2 0x441F JUMP JUMPDEST PUSH1 0x1F DUP2 GT PUSH2 0x33D1 JUMPI JUMPDEST POP DUP8 SWAP1 PUSH1 0x1F DUP4 GT PUSH1 0x1 EQ PUSH2 0x3365 JUMPI DUP9 SWAP3 PUSH2 0x335A JUMPI JUMPDEST POP POP DUP2 PUSH1 0x1 SHL SWAP2 PUSH1 0x0 NOT SWAP1 PUSH1 0x3 SHL SHR NOT AND OR PUSH1 0x16 DUP6 ADD SSTORE JUMPDEST PUSH1 0x17 DUP5 ADD SWAP2 PUSH1 0x1 PUSH1 0x1 PUSH1 0x40 SHL SUB DUP3 GT PUSH2 0x18FD JUMPI DUP2 SWAP1 PUSH2 0x3112 DUP5 SLOAD PUSH2 0x441F JUMP JUMPDEST PUSH1 0x1F DUP2 GT PUSH2 0x330A JUMPI JUMPDEST POP DUP7 SWAP1 PUSH1 0x1F DUP4 GT PUSH1 0x1 EQ PUSH2 0x32A4 JUMPI DUP8 SWAP3 PUSH2 0x3299 JUMPI JUMPDEST POP POP DUP2 PUSH1 0x1 SHL SWAP2 PUSH1 0x0 NOT SWAP1 PUSH1 0x3 SHL SHR NOT AND OR SWAP1 SSTORE JUMPDEST PUSH1 0x18 DUP3 ADD SWAP1 PUSH1 0x1 PUSH1 0x1 PUSH1 0x40 SHL SUB DUP2 GT PUSH2 0x3285 JUMPI PUSH2 0x3162 DUP3 SLOAD PUSH2 0x441F JUMP JUMPDEST PUSH1 0x1F DUP2 GT PUSH2 0x3240 JUMPI JUMPDEST POP DUP4 PUSH1 0x1F DUP3 GT PUSH1 0x1 EQ PUSH2 0x31D9 JUMPI DUP2 SWAP1 DUP6 SWAP7 PUSH1 0x19 SWAP7 SWAP3 PUSH2 0x31CE JUMPI JUMPDEST POP POP DUP2 PUSH1 0x1 SHL SWAP2 PUSH1 0x0 NOT SWAP1 PUSH1 0x3 SHL SHR NOT AND OR SWAP1 SSTORE JUMPDEST ADD DUP1 SLOAD PUSH1 0xFF NOT AND PUSH1 0x1 OR SWAP1 SSTORE CALLER PUSH32 0xBE4EC58A792F909E102EE3D745D0C3B34A4D437A54D903C4DB098D31C556422F DUP3 DUP1 LOG2 DUP1 RETURN JUMPDEST ADD CALLDATALOAD SWAP1 POP CODESIZE DUP1 PUSH2 0x3185 JUMP JUMPDEST DUP3 DUP6 MSTORE PUSH1 0x20 DUP6 KECCAK256 SWAP1 PUSH1 0x1F NOT DUP4 AND DUP7 JUMPDEST DUP2 DUP2 LT PUSH2 0x3228 JUMPI POP SWAP7 DUP4 SWAP3 SWAP2 PUSH1 0x1 SWAP5 PUSH1 0x19 SWAP9 SWAP10 LT PUSH2 0x320E JUMPI JUMPDEST POP POP POP DUP2 SHL ADD SWAP1 SSTORE PUSH2 0x319A JUMP JUMPDEST ADD CALLDATALOAD PUSH1 0x0 NOT PUSH1 0x3 DUP5 SWAP1 SHL PUSH1 0xF8 AND SHR NOT AND SWAP1 SSTORE CODESIZE DUP1 DUP1 PUSH2 0x3201 JUMP JUMPDEST SWAP2 SWAP3 PUSH1 0x20 PUSH1 0x1 DUP2 SWAP3 DUP7 DUP13 ADD CALLDATALOAD DUP2 SSTORE ADD SWAP5 ADD SWAP3 ADD PUSH2 0x31E8 JUMP JUMPDEST DUP3 DUP6 MSTORE PUSH1 0x20 DUP6 KECCAK256 PUSH1 0x1F DUP4 ADD PUSH1 0x5 SHR DUP2 ADD SWAP2 PUSH1 0x20 DUP5 LT PUSH2 0x327B JUMPI JUMPDEST PUSH1 0x1F ADD PUSH1 0x5 SHR ADD SWAP1 JUMPDEST DUP2 DUP2 LT PUSH2 0x3270 JUMPI POP PUSH2 0x316B JUMP JUMPDEST DUP6 DUP2 SSTORE PUSH1 0x1 ADD PUSH2 0x3263 JUMP JUMPDEST SWAP1 SWAP2 POP DUP2 SWAP1 PUSH2 0x325A JUMP JUMPDEST PUSH4 0x4E487B71 PUSH1 0xE0 SHL DUP5 MSTORE PUSH1 0x41 PUSH1 0x4 MSTORE PUSH1 0x24 DUP5 REVERT JUMPDEST ADD CALLDATALOAD SWAP1 POP CODESIZE DUP1 PUSH2 0x3130 JUMP JUMPDEST DUP5 DUP9 MSTORE PUSH1 0x20 DUP9 KECCAK256 SWAP3 POP SWAP1 PUSH1 0x1F NOT DUP5 AND DUP9 JUMPDEST DUP2 DUP2 LT PUSH2 0x32F2 JUMPI POP SWAP1 DUP5 PUSH1 0x1 SWAP6 SWAP5 SWAP4 SWAP3 LT PUSH2 0x32D8 JUMPI JUMPDEST POP POP POP DUP2 SHL ADD SWAP1 SSTORE PUSH2 0x3145 JUMP JUMPDEST ADD CALLDATALOAD PUSH1 0x0 NOT PUSH1 0x3 DUP5 SWAP1 SHL PUSH1 0xF8 AND SHR NOT AND SWAP1 SSTORE CODESIZE DUP1 DUP1 PUSH2 0x32CB JUMP JUMPDEST SWAP2 SWAP4 PUSH1 0x20 PUSH1 0x1 DUP2 SWAP3 DUP8 DUP8 ADD CALLDATALOAD DUP2 SSTORE ADD SWAP6 ADD SWAP3 ADD PUSH2 0x32B5 JUMP JUMPDEST SWAP1 SWAP2 POP DUP4 DUP8 MSTORE PUSH1 0x20 DUP8 KECCAK256 PUSH1 0x1F DUP5 ADD PUSH1 0x5 SHR DUP2 ADD SWAP2 PUSH1 0x20 DUP6 LT PUSH2 0x3350 JUMPI JUMPDEST SWAP1 PUSH1 0x1F DUP6 SWAP5 SWAP4 SWAP3 ADD PUSH1 0x5 SHR ADD SWAP1 JUMPDEST DUP2 DUP2 LT PUSH2 0x3342 JUMPI POP PUSH2 0x311B JUMP JUMPDEST DUP9 DUP2 SSTORE DUP5 SWAP4 POP PUSH1 0x1 ADD PUSH2 0x3335 JUMP JUMPDEST SWAP1 SWAP2 POP DUP2 SWAP1 PUSH2 0x3327 JUMP JUMPDEST ADD CALLDATALOAD SWAP1 POP CODESIZE DUP1 PUSH2 0x30DB JUMP JUMPDEST PUSH1 0x16 DUP9 ADD DUP10 MSTORE PUSH1 0x20 DUP10 KECCAK256 SWAP3 POP SWAP1 PUSH1 0x1F NOT DUP5 AND DUP10 JUMPDEST DUP2 DUP2 LT PUSH2 0x33B9 JUMPI POP SWAP1 DUP5 PUSH1 0x1 SWAP6 SWAP5 SWAP4 SWAP3 LT PUSH2 0x339F JUMPI JUMPDEST POP POP POP DUP2 SHL ADD PUSH1 0x16 DUP6 ADD SSTORE PUSH2 0x30F3 JUMP JUMPDEST ADD CALLDATALOAD PUSH1 0x0 NOT PUSH1 0x3 DUP5 SWAP1 SHL PUSH1 0xF8 AND SHR NOT AND SWAP1 SSTORE CODESIZE DUP1 DUP1 PUSH2 0x338F JUMP JUMPDEST SWAP2 SWAP4 PUSH1 0x20 PUSH1 0x1 DUP2 SWAP3 DUP8 DUP8 ADD CALLDATALOAD DUP2 SSTORE ADD SWAP6 ADD SWAP3 ADD PUSH2 0x3379 JUMP JUMPDEST SWAP1 SWAP2 POP PUSH1 0x16 DUP8 ADD DUP9 MSTORE PUSH1 0x20 DUP9 KECCAK256 PUSH1 0x1F DUP5 ADD PUSH1 0x5 SHR DUP2 ADD SWAP2 PUSH1 0x20 DUP6 LT PUSH2 0x341A JUMPI JUMPDEST SWAP1 PUSH1 0x1F DUP6 SWAP5 SWAP4 SWAP3 ADD PUSH1 0x5 SHR ADD SWAP1 JUMPDEST DUP2 DUP2 LT PUSH2 0x340C JUMPI POP PUSH2 0x30C6 JUMP JUMPDEST DUP10 DUP2 SSTORE DUP5 SWAP4 POP PUSH1 0x1 ADD PUSH2 0x33FF JUMP JUMPDEST SWAP1 SWAP2 POP DUP2 SWAP1 PUSH2 0x33F1 JUMP JUMPDEST PUSH4 0x4E487B71 PUSH1 0xE0 SHL DUP8 MSTORE PUSH1 0x41 PUSH1 0x4 MSTORE PUSH1 0x24 DUP8 REVERT JUMPDEST ADD CALLDATALOAD SWAP1 POP CODESIZE DUP1 PUSH2 0x3088 JUMP JUMPDEST PUSH1 0x15 DUP11 ADD DUP12 MSTORE PUSH1 0x20 DUP12 KECCAK256 SWAP3 POP SWAP1 PUSH1 0x1F NOT DUP5 AND DUP12 JUMPDEST DUP2 DUP2 LT PUSH2 0x3497 JUMPI POP SWAP1 DUP5 PUSH1 0x1 SWAP6 SWAP5 SWAP4 SWAP3 LT PUSH2 0x347D JUMPI JUMPDEST POP POP POP DUP2 SHL ADD PUSH1 0x15 DUP8 ADD SSTORE PUSH2 0x30A0 JUMP JUMPDEST ADD CALLDATALOAD PUSH1 0x0 NOT PUSH1 0x3 DUP5 SWAP1 SHL PUSH1 0xF8 AND SHR NOT AND SWAP1 SSTORE CODESIZE DUP1 DUP1 PUSH2 0x346D JUMP JUMPDEST SWAP2 SWAP4 PUSH1 0x20 PUSH1 0x1 DUP2 SWAP3 DUP8 DUP8 ADD CALLDATALOAD DUP2 SSTORE ADD SWAP6 ADD SWAP3 ADD PUSH2 0x3457 JUMP JUMPDEST SWAP1 SWAP2 POP PUSH1 0x15 DUP10 ADD DUP11 MSTORE PUSH1 0x20 DUP11 KECCAK256 PUSH1 0x1F DUP5 ADD PUSH1 0x5 SHR DUP2 ADD PUSH1 0x20 DUP6 LT PUSH2 0x34F8 JUMPI JUMPDEST SWAP1 DUP5 SWAP4 SWAP3 SWAP2 JUMPDEST PUSH1 0x1F DUP4 ADD PUSH1 0x5 SHR DUP3 ADD DUP2 LT PUSH2 0x34EA JUMPI POP POP PUSH2 0x3073 JUMP JUMPDEST DUP13 DUP2 SSTORE DUP6 SWAP5 POP PUSH1 0x1 ADD PUSH2 0x34D4 JUMP JUMPDEST POP DUP1 PUSH2 0x34CE JUMP JUMPDEST PUSH4 0x4E487B71 PUSH1 0xE0 SHL DUP10 MSTORE PUSH1 0x41 PUSH1 0x4 MSTORE PUSH1 0x24 DUP10 REVERT JUMPDEST DUP7 DUP1 REVERT JUMPDEST POP CALLVALUE PUSH2 0x311 JUMPI DUP1 PUSH1 0x3 NOT CALLDATASIZE ADD SLT PUSH2 0x311 JUMPI PUSH1 0x60 PUSH1 0x6 SLOAD PUSH1 0x7 SLOAD PUSH1 0x8 SLOAD SWAP1 PUSH1 0x40 MLOAD SWAP3 DUP4 MSTORE PUSH1 0x20 DUP4 ADD MSTORE PUSH1 0x40 DUP3 ADD MSTORE RETURN JUMPDEST POP CALLVALUE PUSH2 0x311 JUMPI PUSH1 0x20 CALLDATASIZE PUSH1 0x3 NOT ADD SLT PUSH2 0x311 JUMPI PUSH1 0x4 CALLDATALOAD CALLER DUP3 MSTORE PUSH1 0xD PUSH1 0x20 MSTORE PUSH2 0x3572 PUSH1 0x40 DUP4 KECCAK256 SLOAD DUP3 LT PUSH2 0x59C1 JUMP JUMPDEST CALLER DUP3 MSTORE PUSH1 0xD PUSH1 0x20 MSTORE PUSH1 0x3 PUSH2 0x3589 DUP3 PUSH1 0x40 DUP6 KECCAK256 PUSH2 0x59A5 JUMP JUMPDEST POP PUSH2 0x359A PUSH1 0xFF PUSH1 0x4 DUP4 ADD SLOAD AND PUSH2 0x59FD JUMP JUMPDEST ADD DUP1 SLOAD PUSH2 0x35D9 JUMPI TIMESTAMP SWAP1 SSTORE PUSH1 0x40 MLOAD SWAP1 DUP2 MSTORE TIMESTAMP PUSH1 0x20 DUP3 ADD MSTORE PUSH32 0x68733B6F87B2A7C87D5BCF8C0A0950F2985CC261D9AB6DEFDDCA8D7BD05EBA43 PUSH1 0x40 CALLER SWAP3 LOG2 DUP1 RETURN JUMPDEST PUSH1 0x40 MLOAD PUSH3 0x461BCD PUSH1 0xE5 SHL DUP2 MSTORE PUSH1 0x20 PUSH1 0x4 DUP3 ADD MSTORE PUSH1 0xE PUSH1 0x24 DUP3 ADD MSTORE PUSH14 0x105B1C9958591E481B1BD8DAD959 PUSH1 0x92 SHL PUSH1 0x44 DUP3 ADD MSTORE PUSH1 0x64 SWAP1 REVERT JUMPDEST POP CALLVALUE PUSH2 0x311 JUMPI PUSH1 0x20 CALLDATASIZE PUSH1 0x3 NOT ADD SLT PUSH2 0x311 JUMPI PUSH1 0x20 PUSH2 0x757 PUSH1 0x4 CALLDATALOAD PUSH2 0x5A3C JUMP JUMPDEST POP CALLVALUE PUSH2 0x311 JUMPI DUP1 PUSH1 0x3 NOT CALLDATASIZE ADD SLT PUSH2 0x311 JUMPI PUSH1 0x20 PUSH1 0x40 MLOAD PUSH1 0x2 DUP2 MSTORE RETURN JUMPDEST POP CALLVALUE PUSH2 0x311 JUMPI PUSH1 0x20 CALLDATASIZE PUSH1 0x3 NOT ADD SLT PUSH2 0x311 JUMPI PUSH1 0x20 PUSH2 0x757 PUSH1 0x4 CALLDATALOAD PUSH2 0x5B01 JUMP JUMPDEST POP CALLVALUE PUSH2 0x311 JUMPI DUP1 PUSH1 0x3 NOT CALLDATASIZE ADD SLT PUSH2 0x311 JUMPI PUSH1 0x20 PUSH1 0x4 SLOAD PUSH1 0x40 MLOAD SWAP1 DUP2 MSTORE RETURN JUMPDEST POP CALLVALUE PUSH2 0x311 JUMPI PUSH1 0x20 CALLDATASIZE PUSH1 0x3 NOT ADD SLT PUSH2 0x311 JUMPI PUSH2 0x36A1 PUSH2 0x460F JUMP JUMPDEST CALLER DUP2 MSTORE PUSH1 0xD PUSH1 0x20 MSTORE PUSH2 0x36BA PUSH1 0x40 DUP3 KECCAK256 SLOAD PUSH1 0x4 CALLDATALOAD LT PUSH2 0x59C1 JUMP JUMPDEST CALLER DUP2 MSTORE PUSH1 0xD PUSH1 0x20 MSTORE PUSH2 0x36D1 PUSH1 0x4 CALLDATALOAD PUSH1 0x40 DUP4 KECCAK256 PUSH2 0x59A5 JUMP JUMPDEST POP PUSH1 0x4 DUP2 ADD DUP1 SLOAD SWAP1 PUSH2 0x36E5 PUSH1 0xFF DUP4 AND PUSH2 0x59FD JUMP JUMPDEST PUSH1 0x3 DUP4 ADD SLOAD SWAP2 DUP3 ISZERO SWAP3 DUP4 ISZERO PUSH2 0x3C43 JUMPI JUMPDEST POP PUSH1 0xFF NOT AND SWAP1 SSTORE PUSH1 0x1 DUP3 SLOAD SWAP3 ADD SLOAD SWAP1 DUP2 PUSH1 0x1 SHL SWAP2 DUP1 DUP4 DIV PUSH1 0x2 EQ SWAP1 ISZERO OR ISZERO PUSH2 0x2EEA JUMPI DUP3 SWAP2 DUP2 ISZERO PUSH2 0x3A81 JUMPI PUSH1 0x5 DUP5 MUL DUP5 DUP2 DIV PUSH1 0x5 EQ DUP6 ISZERO OR ISZERO PUSH2 0x1952 JUMPI CALLER DUP7 MSTORE PUSH1 0x3 PUSH1 0x20 MSTORE PUSH1 0x40 DUP7 KECCAK256 SLOAD PUSH1 0x64 SWAP1 SWAP2 DIV SWAP1 PUSH1 0x1 PUSH1 0x1 PUSH1 0xA0 SHL SUB SWAP1 PUSH1 0x10 SHR DUP2 AND DUP1 ISZERO ISZERO DUP1 PUSH2 0x3A6D JUMPI JUMPDEST PUSH2 0x39D9 JUMPI JUMPDEST POP POP POP JUMPDEST PUSH1 0x40 MLOAD PUSH4 0x70A08231 PUSH1 0xE0 SHL DUP1 DUP3 MSTORE ADDRESS PUSH1 0x4 DUP4 ADD MSTORE PUSH1 0x1 PUSH1 0x1 PUSH1 0xA0 SHL SUB PUSH32 0x0 DUP2 AND SWAP6 SWAP2 SWAP3 SWAP2 DUP9 SWAP2 PUSH1 0x20 DUP5 PUSH1 0x24 DUP2 DUP12 GAS STATICCALL SWAP4 DUP5 ISZERO PUSH2 0xF0F JUMPI DUP4 SWAP5 PUSH2 0x39A5 JUMPI JUMPDEST POP PUSH1 0x1 SLOAD AND DUP1 EXTCODESIZE ISZERO PUSH2 0xF03 JUMPI PUSH1 0x24 DUP4 SWAP3 PUSH1 0x40 MLOAD SWAP5 DUP6 SWAP4 DUP5 SWAP3 PUSH4 0x72424D99 PUSH1 0xE1 SHL DUP5 MSTORE PUSH1 0x4 DUP5 ADD MSTORE GAS CALL DUP1 ISZERO PUSH2 0x399A JUMPI PUSH2 0x3987 JUMPI JUMPDEST POP PUSH1 0x40 MLOAD SWAP2 DUP3 MSTORE ADDRESS PUSH1 0x4 DUP4 ADD MSTORE PUSH1 0x20 DUP3 PUSH1 0x24 DUP2 DUP9 GAS STATICCALL DUP1 ISZERO PUSH2 0x397C JUMPI DUP8 SWAP1 PUSH2 0x3948 JUMPI JUMPDEST PUSH2 0x3821 SWAP3 POP PUSH2 0x45B5 JUMP JUMPDEST SWAP1 DUP6 SWAP3 DUP1 PUSH2 0x393F JUMPI JUMPDEST PUSH2 0x391D JUMPI JUMPDEST POP DUP1 PUSH2 0x3873 JUMPI JUMPDEST PUSH1 0x0 DUP1 MLOAD PUSH1 0x20 PUSH2 0x5E06 DUP4 CODECOPY DUP2 MLOAD SWAP2 MSTORE SWAP3 POP PUSH2 0x385B PUSH1 0x40 MLOAD SWAP3 DUP4 SWAP3 CALLER SWAP7 PUSH1 0x4 CALLDATALOAD DUP6 PUSH2 0x54AE JUMP JUMPDEST SUB SWAP1 LOG2 PUSH1 0x1 PUSH1 0x0 DUP1 MLOAD PUSH1 0x20 PUSH2 0x5E46 DUP4 CODECOPY DUP2 MLOAD SWAP2 MSTORE SSTORE DUP1 RETURN JUMPDEST PUSH1 0x20 PUSH1 0x40 MLOAD DUP1 SWAP5 PUSH4 0xA9059CBB PUSH1 0xE0 SHL DUP3 MSTORE DUP2 DUP9 DUP2 PUSH2 0x3895 DUP8 CALLER PUSH1 0x4 DUP5 ADD PUSH2 0x45E5 JUMP JUMPDEST SUB SWAP3 GAS CALL SWAP3 DUP4 ISZERO PUSH2 0x3912 JUMPI DUP6 SWAP4 PUSH2 0x38C5 JUMPI JUMPDEST POP PUSH2 0x38C0 PUSH1 0x0 DUP1 MLOAD PUSH1 0x20 PUSH2 0x5E06 DUP4 CODECOPY DUP2 MLOAD SWAP2 MSTORE SWAP4 PUSH2 0x5951 JUMP JUMPDEST PUSH2 0x3836 JUMP JUMPDEST SWAP3 POP PUSH1 0x20 DUP4 RETURNDATASIZE PUSH1 0x20 GT PUSH2 0x390A JUMPI JUMPDEST DUP2 PUSH2 0x38E0 PUSH1 0x20 SWAP4 DUP4 PUSH2 0x4487 JUMP JUMPDEST DUP2 ADD SUB SLT PUSH2 0x2F46 JUMPI PUSH2 0x38C0 PUSH2 0x3903 PUSH1 0x0 DUP1 MLOAD PUSH1 0x20 PUSH2 0x5E06 DUP4 CODECOPY DUP2 MLOAD SWAP2 MSTORE SWAP5 PUSH2 0x45D8 JUMP JUMPDEST SWAP4 POP PUSH2 0x38A7 JUMP JUMPDEST RETURNDATASIZE SWAP2 POP PUSH2 0x38D3 JUMP JUMPDEST PUSH1 0x40 MLOAD RETURNDATASIZE DUP8 DUP3 RETURNDATACOPY RETURNDATASIZE SWAP1 REVERT JUMPDEST DUP1 SWAP3 POP PUSH2 0x3929 SWAP2 PUSH2 0x45B5 JUMP JUMPDEST SWAP1 PUSH2 0x3936 DUP3 PUSH1 0x8 SLOAD PUSH2 0x468C JUMP JUMPDEST PUSH1 0x8 SSTORE CODESIZE PUSH2 0x382F JUMP JUMPDEST POP DUP1 DUP3 GT PUSH2 0x382A JUMP JUMPDEST POP PUSH1 0x20 DUP3 RETURNDATASIZE PUSH1 0x20 GT PUSH2 0x3974 JUMPI JUMPDEST DUP2 PUSH2 0x3962 PUSH1 0x20 SWAP4 DUP4 PUSH2 0x4487 JUMP JUMPDEST DUP2 ADD SUB SLT PUSH2 0xAB1 JUMPI PUSH2 0x3821 SWAP2 MLOAD PUSH2 0x3817 JUMP JUMPDEST RETURNDATASIZE SWAP2 POP PUSH2 0x3955 JUMP JUMPDEST PUSH1 0x40 MLOAD RETURNDATASIZE DUP10 DUP3 RETURNDATACOPY RETURNDATASIZE SWAP1 REVERT JUMPDEST PUSH2 0x3993 SWAP1 SWAP8 SWAP2 SWAP8 PUSH2 0x4474 JUMP JUMPDEST SWAP6 CODESIZE PUSH2 0x37F4 JUMP JUMPDEST PUSH1 0x40 MLOAD RETURNDATASIZE DUP11 DUP3 RETURNDATACOPY RETURNDATASIZE SWAP1 REVERT JUMPDEST SWAP1 SWAP4 POP PUSH1 0x20 DUP2 RETURNDATASIZE PUSH1 0x20 GT PUSH2 0x39D1 JUMPI JUMPDEST DUP2 PUSH2 0x39C1 PUSH1 0x20 SWAP4 DUP4 PUSH2 0x4487 JUMP JUMPDEST DUP2 ADD SUB SLT PUSH2 0xF03 JUMPI MLOAD SWAP3 CODESIZE PUSH2 0x37C0 JUMP JUMPDEST RETURNDATASIZE SWAP2 POP PUSH2 0x39B4 JUMP JUMPDEST DUP3 PUSH1 0x20 SWAP2 PUSH2 0x3A03 SWAP4 PUSH1 0x1 SLOAD AND SWAP1 DUP11 PUSH1 0x40 MLOAD DUP1 SWAP7 DUP2 SWAP6 DUP3 SWAP5 PUSH4 0xA9059CBB PUSH1 0xE0 SHL DUP5 MSTORE PUSH1 0x4 DUP5 ADD PUSH2 0x45E5 JUMP JUMPDEST SUB SWAP3 GAS CALL SWAP1 DUP2 ISZERO PUSH2 0x397C JUMPI DUP8 SWAP2 PUSH2 0x3A33 JUMPI JUMPDEST POP PUSH2 0x3A22 JUMPI JUMPDEST DUP1 DUP1 PUSH2 0x3760 JUMP JUMPDEST PUSH2 0x3A2C SWAP2 SWAP4 PUSH2 0x45B5 JUMP JUMPDEST SWAP2 CODESIZE PUSH2 0x3A1B JUMP JUMPDEST SWAP1 POP PUSH1 0x20 DUP2 RETURNDATASIZE PUSH1 0x20 GT PUSH2 0x3A65 JUMPI JUMPDEST DUP2 PUSH2 0x3A4E PUSH1 0x20 SWAP4 DUP4 PUSH2 0x4487 JUMP JUMPDEST DUP2 ADD SUB SLT PUSH2 0x3513 JUMPI PUSH2 0x3A5F SWAP1 PUSH2 0x45D8 JUMP JUMPDEST CODESIZE PUSH2 0x3A15 JUMP JUMPDEST RETURNDATASIZE SWAP2 POP PUSH2 0x3A41 JUMP JUMPDEST POP DUP1 DUP9 MSTORE PUSH1 0xFF PUSH1 0x40 DUP10 KECCAK256 SLOAD PUSH1 0x8 SHR AND PUSH2 0x375B JUMP JUMPDEST SWAP3 PUSH1 0x40 SWAP5 SWAP3 SWAP5 MLOAD PUSH2 0x3A91 DUP2 PUSH2 0x4459 JUMP JUMPDEST PUSH1 0x5 DUP2 MSTORE PUSH1 0x2 PUSH1 0x20 DUP3 ADD MSTORE PUSH1 0x1 PUSH1 0x40 DUP3 ADD MSTORE PUSH1 0x1 PUSH1 0x60 DUP3 ADD MSTORE PUSH1 0x1 PUSH1 0x80 DUP3 ADD MSTORE CALLER DUP5 MSTORE PUSH1 0x3 PUSH1 0x20 MSTORE PUSH1 0x40 DUP5 KECCAK256 SLOAD PUSH1 0x1 DUP1 PUSH1 0xA0 SHL SUB SWAP1 PUSH1 0x10 SHR AND SWAP3 DUP5 SWAP4 JUMPDEST PUSH1 0x5 PUSH1 0xFF DUP7 AND LT ISZERO PUSH2 0x3C36 JUMPI PUSH1 0x64 PUSH2 0x3AF5 PUSH1 0xFF PUSH2 0x3AED DUP2 DUP10 AND DUP8 PUSH2 0x5994 JUMP JUMPDEST MLOAD AND DUP7 PUSH2 0x47FF JUMP JUMPDEST DIV DUP1 ISZERO PUSH2 0x3BF8 JUMPI PUSH1 0x1 PUSH1 0x1 PUSH1 0xA0 SHL SUB DUP3 AND ISZERO ISZERO DUP1 PUSH2 0x3BD6 JUMPI JUMPDEST PUSH2 0x3B3F JUMPI JUMPDEST POP PUSH1 0x1 PUSH1 0x1 PUSH1 0xA0 SHL SUB SWAP1 DUP2 AND DUP7 MSTORE PUSH1 0x3 PUSH1 0x20 MSTORE PUSH1 0x40 DUP7 KECCAK256 SLOAD PUSH1 0x10 SHR AND SWAP4 PUSH2 0x3B39 SWAP1 PUSH2 0x50B4 JUMP JUMPDEST SWAP4 PUSH2 0x3ACE JUMP JUMPDEST PUSH1 0x1 SLOAD PUSH1 0x40 MLOAD PUSH4 0xA9059CBB PUSH1 0xE0 SHL DUP2 MSTORE SWAP1 PUSH1 0x20 SWAP1 DUP3 SWAP1 PUSH1 0x1 PUSH1 0x1 PUSH1 0xA0 SHL SUB AND DUP2 DUP12 DUP2 PUSH2 0x3B6F DUP9 DUP11 PUSH1 0x4 DUP5 ADD PUSH2 0x45E5 JUMP JUMPDEST SUB SWAP3 GAS CALL SWAP1 DUP2 ISZERO PUSH2 0x399A JUMPI DUP9 SWAP2 PUSH2 0x3B98 JUMPI JUMPDEST POP ISZERO PUSH2 0x3B13 JUMPI PUSH2 0x3B91 SWAP2 SWAP9 PUSH2 0x45B5 JUMP JUMPDEST SWAP7 CODESIZE PUSH2 0x3B13 JUMP JUMPDEST SWAP1 POP PUSH1 0x20 DUP2 RETURNDATASIZE PUSH1 0x20 GT PUSH2 0x3BCE JUMPI JUMPDEST DUP2 PUSH2 0x3BB3 PUSH1 0x20 SWAP4 DUP4 PUSH2 0x4487 JUMP JUMPDEST DUP2 ADD SUB SLT PUSH2 0x3BCA JUMPI PUSH2 0x3BC4 SWAP1 PUSH2 0x45D8 JUMP JUMPDEST CODESIZE PUSH2 0x3B81 JUMP JUMPDEST DUP8 DUP1 REVERT JUMPDEST RETURNDATASIZE SWAP2 POP PUSH2 0x3BA6 JUMP JUMPDEST POP PUSH1 0x1 PUSH1 0x1 PUSH1 0xA0 SHL SUB DUP3 AND DUP8 MSTORE PUSH1 0x3 PUSH1 0x20 MSTORE PUSH1 0x40 DUP8 KECCAK256 SLOAD PUSH1 0x8 SHR PUSH1 0xFF AND PUSH2 0x3B0E JUMP JUMPDEST POP SWAP4 PUSH1 0x1 PUSH1 0x1 PUSH1 0xA0 SHL SUB DUP6 AND DUP1 PUSH2 0x3C14 JUMPI JUMPDEST POP PUSH2 0x3B39 SWAP1 PUSH2 0x50B4 JUMP JUMPDEST DUP7 MSTORE PUSH1 0x3 PUSH1 0x20 MSTORE PUSH1 0x40 DUP7 KECCAK256 SLOAD PUSH1 0x10 SHR PUSH1 0x1 PUSH1 0x1 PUSH1 0xA0 SHL SUB AND SWAP5 POP PUSH2 0x3B39 PUSH2 0x3C0A JUMP JUMPDEST POP SWAP3 POP POP SWAP3 SWAP4 SWAP2 SWAP4 PUSH2 0x3764 JUMP JUMPDEST PUSH4 0x18B8200 DUP2 ADD DUP1 SWAP2 GT PUSH2 0x1952 JUMPI TIMESTAMP LT PUSH2 0x3C5D JUMPI CODESIZE PUSH2 0x36F5 JUMP JUMPDEST PUSH1 0x40 MLOAD PUSH3 0x461BCD PUSH1 0xE5 SHL DUP2 MSTORE PUSH1 0x20 PUSH1 0x4 DUP3 ADD MSTORE PUSH1 0x26 PUSH1 0x24 DUP3 ADD MSTORE PUSH32 0x5374696C6C206C6F636B65643A2031302D6D6F6E746820706572696F64206E6F PUSH1 0x44 DUP3 ADD MSTORE PUSH6 0x3A1037BB32B9 PUSH1 0xD1 SHL PUSH1 0x64 DUP3 ADD MSTORE PUSH1 0x84 SWAP1 REVERT JUMPDEST POP CALLVALUE PUSH2 0x311 JUMPI PUSH2 0x3CD9 PUSH2 0x3CC3 CALLDATASIZE PUSH2 0x4347 JUMP JUMPDEST SWAP1 PUSH2 0x3CCC PUSH2 0x4550 JUMP JUMPDEST PUSH2 0x3CD4 PUSH2 0x460F JUMP JUMPDEST PUSH2 0x54CA JUMP JUMPDEST PUSH1 0x1 PUSH1 0x0 DUP1 MLOAD PUSH1 0x20 PUSH2 0x5E46 DUP4 CODECOPY DUP2 MLOAD SWAP2 MSTORE SSTORE DUP1 RETURN JUMPDEST POP CALLVALUE PUSH2 0x311 JUMPI PUSH1 0x40 CALLDATASIZE PUSH1 0x3 NOT ADD SLT PUSH2 0x311 JUMPI PUSH2 0x3D08 PUSH2 0x42A7 JUMP JUMPDEST PUSH1 0x24 CALLDATALOAD SWAP1 PUSH2 0x3D14 PUSH2 0x4550 JUMP JUMPDEST PUSH1 0x1 PUSH1 0x1 PUSH1 0xA0 SHL SUB AND SWAP1 DUP2 ISZERO PUSH2 0x726 JUMPI PUSH1 0x8 SLOAD DUP2 DUP2 LT PUSH2 0x3D78 JUMPI DUP2 PUSH2 0x3D5C PUSH32 0xBA443E8671971C36CDEB74F87321041DAFF421230CBC5E36CB835269ED1D8B7E SWAP4 PUSH1 0x20 SWAP4 PUSH2 0x45B5 JUMP JUMPDEST PUSH1 0x8 SSTORE DUP4 DUP6 MSTORE PUSH1 0x3 DUP3 MSTORE PUSH1 0x8 PUSH1 0x40 DUP7 KECCAK256 ADD PUSH2 0x6C3 DUP3 DUP3 SLOAD PUSH2 0x468C JUMP JUMPDEST PUSH1 0x40 MLOAD PUSH3 0x461BCD PUSH1 0xE5 SHL DUP2 MSTORE PUSH1 0x20 PUSH1 0x4 DUP3 ADD MSTORE PUSH1 0x12 PUSH1 0x24 DUP3 ADD MSTORE PUSH18 0x115E18D959591CC818591B5A5B881C1BDBDB PUSH1 0x72 SHL PUSH1 0x44 DUP3 ADD MSTORE PUSH1 0x64 SWAP1 REVERT JUMPDEST POP CALLVALUE PUSH2 0x311 JUMPI PUSH1 0x20 CALLDATASIZE PUSH1 0x3 NOT ADD SLT PUSH2 0x311 JUMPI PUSH1 0x20 SWAP1 PUSH1 0x40 SWAP1 PUSH1 0x1 PUSH1 0x1 PUSH1 0xA0 SHL SUB PUSH2 0x3DDA PUSH2 0x42A7 JUMP JUMPDEST AND DUP2 MSTORE PUSH1 0xC DUP4 MSTORE KECCAK256 SLOAD PUSH1 0x40 MLOAD SWAP1 DUP2 MSTORE RETURN JUMPDEST POP CALLVALUE PUSH2 0x311 JUMPI DUP1 PUSH1 0x3 NOT CALLDATASIZE ADD SLT PUSH2 0x311 JUMPI PUSH1 0x1 SLOAD PUSH1 0x40 MLOAD PUSH1 0x1 PUSH1 0x1 PUSH1 0xA0 SHL SUB SWAP1 SWAP2 AND DUP2 MSTORE PUSH1 0x20 SWAP1 RETURN JUMPDEST POP CALLVALUE PUSH2 0x311 JUMPI PUSH1 0x20 CALLDATASIZE PUSH1 0x3 NOT ADD SLT PUSH2 0x311 JUMPI PUSH2 0x3E2E PUSH2 0x42A7 JUMP JUMPDEST PUSH2 0x3E36 PUSH2 0x4550 JUMP JUMPDEST PUSH1 0x1 PUSH1 0x1 PUSH1 0xA0 SHL SUB AND DUP1 ISZERO PUSH2 0x726 JUMPI PUSH1 0x1 DUP1 SLOAD PUSH1 0x1 PUSH1 0x1 PUSH1 0xA0 SHL SUB NOT AND DUP3 OR SWAP1 SSTORE PUSH1 0x40 MLOAD SWAP1 DUP2 MSTORE PUSH32 0xFA7BD61554593F4E69CDFFD255D3FE947352B02C7D3EC68059384934E4CFD47C SWAP1 PUSH1 0x20 SWAP1 LOG1 DUP1 RETURN JUMPDEST POP CALLVALUE PUSH2 0x311 JUMPI PUSH1 0x20 DUP1 PUSH1 0x3 NOT CALLDATASIZE ADD SLT PUSH2 0xA1C JUMPI PUSH1 0x1 PUSH1 0x1 PUSH1 0xA0 SHL SUB PUSH2 0x3EA9 PUSH2 0x42A7 JUMP JUMPDEST AND DUP1 DUP4 MSTORE PUSH1 0xD DUP1 DUP4 MSTORE PUSH1 0x40 DUP5 KECCAK256 SLOAD SWAP3 DUP5 SWAP3 DUP6 JUMPDEST DUP6 DUP2 LT PUSH2 0x4022 JUMPI POP PUSH2 0x3ECD DUP5 PUSH2 0x5D93 JUMP JUMPDEST SWAP5 PUSH2 0x3ED7 DUP6 PUSH2 0x5D93 JUMP JUMPDEST SWAP2 PUSH2 0x3EE1 DUP7 PUSH2 0x5D93 JUMP JUMPDEST SWAP5 PUSH2 0x3EF4 PUSH2 0x3EEE DUP9 PUSH2 0x5D93 JUMP JUMPDEST SWAP8 PUSH2 0x5D93 JUMP JUMPDEST SWAP9 DUP1 SWAP2 DUP2 JUMPDEST DUP6 DUP2 LT PUSH2 0x3F65 JUMPI POP PUSH2 0x3F2A DUP11 PUSH2 0x3F61 DUP14 PUSH2 0x3F53 DUP14 PUSH2 0x3F45 DUP15 PUSH2 0x3F37 DUP16 DUP16 PUSH1 0x40 MLOAD SWAP11 DUP12 SWAP11 PUSH1 0xA0 DUP13 MSTORE PUSH1 0xA0 DUP13 ADD SWAP1 PUSH2 0x4313 JUMP JUMPDEST SWAP2 DUP11 DUP4 SUB SWAP1 DUP12 ADD MSTORE PUSH2 0x4313 JUMP JUMPDEST SWAP1 DUP8 DUP3 SUB PUSH1 0x40 DUP10 ADD MSTORE PUSH2 0x4313 JUMP JUMPDEST SWAP1 DUP6 DUP3 SUB PUSH1 0x60 DUP8 ADD MSTORE PUSH2 0x4313 JUMP JUMPDEST SWAP1 DUP4 DUP3 SUB PUSH1 0x80 DUP6 ADD MSTORE PUSH2 0x4313 JUMP JUMPDEST SUB SWAP1 RETURN JUMPDEST DUP12 DUP12 DUP12 DUP12 DUP11 DUP13 DUP11 PUSH1 0xFF PUSH1 0x4 PUSH2 0x3F83 DUP11 PUSH1 0x40 DUP15 DUP15 DUP8 DUP3 MSTORE DUP9 MSTORE KECCAK256 PUSH2 0x59A5 JUMP JUMPDEST POP ADD SLOAD AND PUSH2 0x3FA1 JUMPI JUMPDEST POP POP POP POP POP POP POP PUSH2 0x3F9C SWAP1 PUSH2 0x4600 JUMP JUMPDEST PUSH2 0x3EF9 JUMP JUMPDEST SWAP5 PUSH2 0x4013 SWAP7 SWAP5 PUSH2 0x400D SWAP5 DUP13 SWAP8 SWAP5 DUP11 PUSH2 0x3FD7 DUP2 SWAP16 DUP16 DUP16 SWAP15 PUSH2 0x3F9C SWAP16 DUP3 PUSH1 0x40 SWAP2 PUSH1 0x3 SWAP13 DUP7 SWAP15 PUSH2 0x3FD0 SWAP7 MSTORE MSTORE KECCAK256 PUSH2 0x59A5 JUMP JUMPDEST POP SWAP7 PUSH2 0x5260 JUMP JUMPDEST MSTORE PUSH2 0x3FE4 DUP7 DUP6 SLOAD SWAP3 PUSH2 0x5260 JUMP JUMPDEST MSTORE PUSH2 0x3FF4 DUP6 PUSH1 0x1 DUP6 ADD SLOAD SWAP3 PUSH2 0x5260 JUMP JUMPDEST MSTORE PUSH2 0x4004 DUP5 PUSH1 0x2 DUP5 ADD SLOAD SWAP3 PUSH2 0x5260 JUMP JUMPDEST MSTORE ADD SLOAD SWAP3 PUSH2 0x5260 JUMP JUMPDEST MSTORE PUSH2 0x4600 JUMP JUMPDEST SWAP4 SWAP1 POP DUP12 DUP12 DUP12 DUP12 DUP11 DUP13 DUP11 PUSH2 0x3F8C JUMP JUMPDEST DUP2 DUP8 MSTORE DUP4 DUP4 MSTORE PUSH1 0xFF PUSH1 0x4 PUSH2 0x4039 DUP4 PUSH1 0x40 DUP12 KECCAK256 PUSH2 0x59A5 JUMP JUMPDEST POP ADD SLOAD AND PUSH2 0x4050 JUMPI JUMPDEST PUSH2 0x404B SWAP1 PUSH2 0x4600 JUMP JUMPDEST PUSH2 0x3EBC JUMP JUMPDEST SWAP4 PUSH2 0x405D PUSH2 0x404B SWAP2 PUSH2 0x4600 JUMP JUMPDEST SWAP5 SWAP1 POP PUSH2 0x4042 JUMP JUMPDEST POP CALLVALUE PUSH2 0x311 JUMPI PUSH1 0x20 CALLDATASIZE PUSH1 0x3 NOT ADD SLT PUSH2 0x311 JUMPI PUSH2 0x40EF SWAP1 PUSH1 0x40 SWAP1 PUSH1 0x1 PUSH1 0x1 PUSH1 0xA0 SHL SUB PUSH2 0x408E PUSH2 0x42A7 JUMP JUMPDEST AND DUP2 MSTORE PUSH1 0x3 PUSH1 0x20 MSTORE KECCAK256 PUSH1 0xFF PUSH1 0x19 DUP3 ADD SLOAD AND PUSH2 0x4119 PUSH2 0x40AE PUSH1 0x15 DUP5 ADD PUSH2 0x44AA JUMP JUMPDEST SWAP3 PUSH2 0x410B PUSH2 0x40BE PUSH1 0x16 DUP4 ADD PUSH2 0x44AA JUMP JUMPDEST SWAP2 PUSH2 0x40FD PUSH2 0x40DA PUSH1 0x18 PUSH2 0x40D3 PUSH1 0x17 DUP6 ADD PUSH2 0x44AA JUMP JUMPDEST SWAP4 ADD PUSH2 0x44AA JUMP JUMPDEST SWAP4 PUSH1 0x40 MLOAD SWAP9 DUP10 SWAP9 PUSH1 0xA0 DUP11 MSTORE PUSH1 0xA0 DUP11 ADD SWAP1 PUSH2 0x42D3 JUMP JUMPDEST SWAP1 DUP9 DUP3 SUB PUSH1 0x20 DUP11 ADD MSTORE PUSH2 0x42D3 JUMP JUMPDEST SWAP1 DUP7 DUP3 SUB PUSH1 0x40 DUP9 ADD MSTORE PUSH2 0x42D3 JUMP JUMPDEST SWAP1 DUP5 DUP3 SUB PUSH1 0x60 DUP7 ADD MSTORE PUSH2 0x42D3 JUMP JUMPDEST SWAP1 ISZERO ISZERO PUSH1 0x80 DUP4 ADD MSTORE SUB SWAP1 RETURN JUMPDEST POP CALLVALUE PUSH2 0x311 JUMPI DUP1 PUSH1 0x3 NOT CALLDATASIZE ADD SLT PUSH2 0x311 JUMPI PUSH2 0x413E PUSH2 0x460F JUMP JUMPDEST CALLER DUP2 MSTORE PUSH1 0x3 PUSH1 0x20 MSTORE PUSH1 0x40 DUP2 KECCAK256 SLOAD PUSH1 0xFF DUP2 AND ISZERO PUSH2 0xDBF JUMPI PUSH1 0x8 SHR PUSH1 0xFF AND PUSH2 0x420F JUMPI PUSH1 0x40 MLOAD PUSH4 0x23B872DD PUSH1 0xE0 SHL DUP2 MSTORE CALLER PUSH1 0x4 DUP3 ADD MSTORE ADDRESS PUSH1 0x24 DUP3 ADD MSTORE PUSH9 0x70C1CC73B00C80000 PUSH1 0x44 DUP3 ADD MSTORE PUSH1 0x20 DUP2 PUSH1 0x64 DUP2 DUP6 PUSH32 0x0 PUSH1 0x1 PUSH1 0x1 PUSH1 0xA0 SHL SUB AND GAS CALL SWAP1 DUP2 ISZERO PUSH2 0xA11 JUMPI DUP3 SWAP2 PUSH2 0x41D6 JUMPI JUMPDEST POP ISZERO PUSH2 0xA20 JUMPI PUSH2 0x3CD9 CALLER PUSH2 0x4856 JUMP JUMPDEST SWAP1 POP PUSH1 0x20 DUP2 RETURNDATASIZE DUP3 GT PUSH2 0x4207 JUMPI JUMPDEST DUP2 PUSH2 0x41F0 PUSH1 0x20 SWAP4 DUP4 PUSH2 0x4487 JUMP JUMPDEST DUP2 ADD SUB SLT PUSH2 0xA1C JUMPI PUSH2 0x4201 SWAP1 PUSH2 0x45D8 JUMP JUMPDEST CODESIZE PUSH2 0x41C7 JUMP JUMPDEST RETURNDATASIZE SWAP2 POP PUSH2 0x41E3 JUMP JUMPDEST PUSH1 0x40 MLOAD PUSH4 0x7CDF3051 PUSH1 0xE1 SHL DUP2 MSTORE PUSH1 0x4 SWAP1 REVERT JUMPDEST POP CALLVALUE PUSH2 0x311 JUMPI PUSH1 0x20 CALLDATASIZE PUSH1 0x3 NOT ADD SLT PUSH2 0x311 JUMPI PUSH1 0x40 SWAP1 DUP2 SWAP1 PUSH1 0x1 PUSH1 0x1 PUSH1 0xA0 SHL SUB PUSH2 0x4248 PUSH2 0x42A7 JUMP JUMPDEST AND DUP2 MSTORE PUSH1 0x3 PUSH1 0x20 MSTORE KECCAK256 PUSH1 0x10 PUSH1 0xF DUP3 ADD SLOAD SWAP2 ADD SLOAD DUP3 MLOAD SWAP2 DUP3 MSTORE PUSH1 0x20 DUP3 ADD MSTORE RETURN JUMPDEST POP CALLVALUE PUSH2 0x311 JUMPI DUP1 PUSH1 0x3 NOT CALLDATASIZE ADD SLT PUSH2 0x311 JUMPI PUSH1 0x20 PUSH1 0x40 MLOAD PUSH9 0x70C1CC73B00C80000 DUP2 MSTORE RETURN JUMPDEST SWAP1 POP CALLVALUE PUSH2 0xA1C JUMPI DUP2 PUSH1 0x3 NOT CALLDATASIZE ADD SLT PUSH2 0xA1C JUMPI PUSH1 0x20 SWAP1 PUSH1 0x7 SLOAD DUP2 MSTORE RETURN JUMPDEST PUSH1 0x4 CALLDATALOAD SWAP1 PUSH1 0x1 PUSH1 0x1 PUSH1 0xA0 SHL SUB DUP3 AND DUP3 SUB PUSH2 0xAB1 JUMPI JUMP JUMPDEST PUSH1 0x24 CALLDATALOAD SWAP1 PUSH1 0x1 PUSH1 0x1 PUSH1 0xA0 SHL SUB DUP3 AND DUP3 SUB PUSH2 0xAB1 JUMPI JUMP JUMPDEST SWAP2 SWAP1 DUP3 MLOAD SWAP3 DUP4 DUP3 MSTORE PUSH1 0x0 JUMPDEST DUP5 DUP2 LT PUSH2 0x42FF JUMPI POP POP DUP3 PUSH1 0x0 PUSH1 0x20 DUP1 SWAP5 SWAP6 DUP5 ADD ADD MSTORE PUSH1 0x1F DUP1 NOT SWAP2 ADD AND ADD ADD SWAP1 JUMP JUMPDEST PUSH1 0x20 DUP2 DUP4 ADD DUP2 ADD MLOAD DUP5 DUP4 ADD DUP3 ADD MSTORE ADD PUSH2 0x42DE JUMP JUMPDEST SWAP1 DUP2 MLOAD DUP1 DUP3 MSTORE PUSH1 0x20 DUP1 DUP1 SWAP4 ADD SWAP4 ADD SWAP2 PUSH1 0x0 JUMPDEST DUP3 DUP2 LT PUSH2 0x4333 JUMPI POP POP POP POP SWAP1 JUMP JUMPDEST DUP4 MLOAD DUP6 MSTORE SWAP4 DUP2 ADD SWAP4 SWAP3 DUP2 ADD SWAP3 PUSH1 0x1 ADD PUSH2 0x4325 JUMP JUMPDEST PUSH1 0x40 SWAP1 PUSH1 0x3 NOT ADD SLT PUSH2 0xAB1 JUMPI PUSH1 0x4 CALLDATALOAD SWAP1 PUSH1 0x24 CALLDATALOAD SWAP1 JUMP JUMPDEST CALLVALUE PUSH2 0xAB1 JUMPI PUSH1 0x0 CALLDATASIZE PUSH1 0x3 NOT ADD SLT PUSH2 0xAB1 JUMPI PUSH1 0x20 PUSH1 0x40 MLOAD PUSH1 0x1E DUP2 MSTORE RETURN JUMPDEST SWAP2 DUP2 PUSH1 0x1F DUP5 ADD SLT ISZERO PUSH2 0xAB1 JUMPI DUP3 CALLDATALOAD SWAP2 PUSH1 0x1 PUSH1 0x1 PUSH1 0x40 SHL SUB DUP4 GT PUSH2 0xAB1 JUMPI PUSH1 0x20 DUP4 DUP2 DUP7 ADD SWAP6 ADD ADD GT PUSH2 0xAB1 JUMPI JUMP JUMPDEST PUSH1 0x60 SWAP1 PUSH1 0x3 NOT ADD SLT PUSH2 0xAB1 JUMPI PUSH1 0x4 CALLDATALOAD PUSH1 0x1 PUSH1 0x1 PUSH1 0xA0 SHL SUB DUP2 AND DUP2 SUB PUSH2 0xAB1 JUMPI SWAP1 PUSH1 0x24 CALLDATALOAD SWAP1 PUSH1 0x44 CALLDATALOAD SWAP1 JUMP JUMPDEST PUSH1 0x24 CALLDATALOAD SWAP1 DUP2 ISZERO ISZERO DUP3 SUB PUSH2 0xAB1 JUMPI JUMP JUMPDEST PUSH1 0x44 CALLDATALOAD SWAP1 DUP2 ISZERO ISZERO DUP3 SUB PUSH2 0xAB1 JUMPI JUMP JUMPDEST PUSH1 0x4 SLOAD DUP2 LT ISZERO PUSH2 0x4409 JUMPI PUSH1 0x4 PUSH1 0x0 MSTORE PUSH1 0x20 PUSH1 0x0 KECCAK256 ADD SWAP1 PUSH1 0x0 SWAP1 JUMP JUMPDEST PUSH4 0x4E487B71 PUSH1 0xE0 SHL PUSH1 0x0 MSTORE PUSH1 0x32 PUSH1 0x4 MSTORE PUSH1 0x24 PUSH1 0x0 REVERT JUMPDEST SWAP1 PUSH1 0x1 DUP3 DUP2 SHR SWAP3 AND DUP1 ISZERO PUSH2 0x444F JUMPI JUMPDEST PUSH1 0x20 DUP4 LT EQ PUSH2 0x4439 JUMPI JUMP JUMPDEST PUSH4 0x4E487B71 PUSH1 0xE0 SHL PUSH1 0x0 MSTORE PUSH1 0x22 PUSH1 0x4 MSTORE PUSH1 0x24 PUSH1 0x0 REVERT JUMPDEST SWAP2 PUSH1 0x7F AND SWAP2 PUSH2 0x442E JUMP JUMPDEST PUSH1 0xA0 DUP2 ADD SWAP1 DUP2 LT PUSH1 0x1 PUSH1 0x1 PUSH1 0x40 SHL SUB DUP3 GT OR PUSH2 0x5B1 JUMPI PUSH1 0x40 MSTORE JUMP JUMPDEST PUSH1 0x1 PUSH1 0x1 PUSH1 0x40 SHL SUB DUP2 GT PUSH2 0x5B1 JUMPI PUSH1 0x40 MSTORE JUMP JUMPDEST PUSH1 0x1F SWAP1 SWAP2 ADD PUSH1 0x1F NOT AND DUP2 ADD SWAP1 PUSH1 0x1 PUSH1 0x1 PUSH1 0x40 SHL SUB DUP3 GT SWAP1 DUP3 LT OR PUSH2 0x5B1 JUMPI PUSH1 0x40 MSTORE JUMP JUMPDEST SWAP1 PUSH1 0x40 MLOAD SWAP2 DUP3 PUSH1 0x0 DUP3 SLOAD SWAP3 PUSH2 0x44BE DUP5 PUSH2 0x441F JUMP JUMPDEST SWAP1 DUP2 DUP5 MSTORE PUSH1 0x1 SWAP5 DUP6 DUP2 AND SWAP1 DUP2 PUSH1 0x0 EQ PUSH2 0x452D JUMPI POP PUSH1 0x1 EQ PUSH2 0x44EA JUMPI JUMPDEST POP POP PUSH2 0x44E8 SWAP3 POP SUB DUP4 PUSH2 0x4487 JUMP JUMPDEST JUMP JUMPDEST SWAP1 SWAP4 SWAP2 POP PUSH1 0x0 MSTORE PUSH1 0x20 SWAP1 DUP2 PUSH1 0x0 KECCAK256 SWAP4 PUSH1 0x0 SWAP2 JUMPDEST DUP2 DUP4 LT PUSH2 0x4515 JUMPI POP POP PUSH2 0x44E8 SWAP4 POP DUP3 ADD ADD CODESIZE DUP1 PUSH2 0x44DA JUMP JUMPDEST DUP6 SLOAD DUP9 DUP5 ADD DUP6 ADD MSTORE SWAP5 DUP6 ADD SWAP5 DUP8 SWAP5 POP SWAP2 DUP4 ADD SWAP2 PUSH2 0x44FD JUMP JUMPDEST SWAP2 POP POP PUSH2 0x44E8 SWAP5 POP PUSH1 0x20 SWAP3 POP PUSH1 0xFF NOT AND DUP3 DUP5 ADD MSTORE ISZERO ISZERO PUSH1 0x5 SHL DUP3 ADD ADD CODESIZE DUP1 PUSH2 0x44DA JUMP JUMPDEST PUSH1 0x0 SLOAD PUSH1 0x1 PUSH1 0x1 PUSH1 0xA0 SHL SUB AND CALLER SUB PUSH2 0x4564 JUMPI JUMP JUMPDEST PUSH1 0x40 MLOAD PUSH4 0x118CDAA7 PUSH1 0xE0 SHL DUP2 MSTORE CALLER PUSH1 0x4 DUP3 ADD MSTORE PUSH1 0x24 SWAP1 REVERT JUMPDEST ISZERO PUSH2 0x4583 JUMPI JUMP JUMPDEST PUSH1 0x40 MLOAD PUSH3 0x461BCD PUSH1 0xE5 SHL DUP2 MSTORE PUSH1 0x20 PUSH1 0x4 DUP3 ADD MSTORE PUSH1 0xA PUSH1 0x24 DUP3 ADD MSTORE PUSH10 0x4E6F7420616374697665 PUSH1 0xB0 SHL PUSH1 0x44 DUP3 ADD MSTORE PUSH1 0x64 SWAP1 REVERT JUMPDEST SWAP2 SWAP1 DUP3 SUB SWAP2 DUP3 GT PUSH2 0x45C2 JUMPI JUMP JUMPDEST PUSH4 0x4E487B71 PUSH1 0xE0 SHL PUSH1 0x0 MSTORE PUSH1 0x11 PUSH1 0x4 MSTORE PUSH1 0x24 PUSH1 0x0 REVERT JUMPDEST MLOAD SWAP1 DUP2 ISZERO ISZERO DUP3 SUB PUSH2 0xAB1 JUMPI JUMP JUMPDEST PUSH1 0x1 PUSH1 0x1 PUSH1 0xA0 SHL SUB SWAP1 SWAP2 AND DUP2 MSTORE PUSH1 0x20 DUP2 ADD SWAP2 SWAP1 SWAP2 MSTORE PUSH1 0x40 ADD SWAP1 JUMP JUMPDEST PUSH1 0x0 NOT DUP2 EQ PUSH2 0x45C2 JUMPI PUSH1 0x1 ADD SWAP1 JUMP JUMPDEST PUSH1 0x0 DUP1 MLOAD PUSH1 0x20 PUSH2 0x5E46 DUP4 CODECOPY DUP2 MLOAD SWAP2 MSTORE PUSH1 0x2 DUP2 SLOAD EQ PUSH2 0x462D JUMPI PUSH1 0x2 SWAP1 SSTORE JUMP JUMPDEST PUSH1 0x40 MLOAD PUSH4 0x3EE5AEB5 PUSH1 0xE0 SHL DUP2 MSTORE PUSH1 0x4 SWAP1 REVERT JUMPDEST DUP1 SLOAD DUP3 LT ISZERO PUSH2 0x4409 JUMPI PUSH1 0x0 MSTORE PUSH1 0x3 PUSH1 0x20 PUSH1 0x0 KECCAK256 SWAP2 MUL ADD SWAP1 PUSH1 0x0 SWAP1 JUMP JUMPDEST ISZERO PUSH2 0x4662 JUMPI JUMP JUMPDEST PUSH1 0x40 MLOAD PUSH3 0x461BCD PUSH1 0xE5 SHL DUP2 MSTORE PUSH1 0x20 PUSH1 0x4 DUP3 ADD MSTORE PUSH1 0x2 PUSH1 0x24 DUP3 ADD MSTORE PUSH2 0x5A41 PUSH1 0xF0 SHL PUSH1 0x44 DUP3 ADD MSTORE PUSH1 0x64 SWAP1 REVERT JUMPDEST SWAP2 SWAP1 DUP3 ADD DUP1 SWAP3 GT PUSH2 0x45C2 JUMPI JUMP JUMPDEST PUSH1 0x1 PUSH1 0x1 PUSH1 0xA0 SHL SUB SWAP1 DUP2 AND PUSH1 0x0 DUP2 DUP2 MSTORE PUSH1 0x3 PUSH1 0x20 MSTORE PUSH1 0x40 SWAP1 KECCAK256 DUP1 SLOAD PUSH2 0xFF01 PUSH1 0x1 PUSH1 0xB0 SHL SUB NOT AND PUSH1 0x10 SWAP5 SWAP1 SWAP5 SHL PUSH3 0x10000 PUSH1 0x1 PUSH1 0xB0 SHL SUB AND SWAP4 SWAP1 SWAP4 OR PUSH1 0x1 OR DUP4 SSTORE PUSH1 0x2 DUP4 ADD DUP1 SLOAD PUSH1 0x1 PUSH1 0x1 PUSH1 0xA8 SHL SUB NOT AND SWAP5 DUP4 AND SWAP5 SWAP1 SWAP5 OR SWAP5 ISZERO ISZERO PUSH1 0xA0 SHL PUSH1 0xFF PUSH1 0xA0 SHL AND SWAP5 SWAP1 SWAP5 OR SWAP1 SWAP3 SSTORE PUSH1 0x12 DUP2 ADD DUP1 SLOAD PUSH1 0x1 PUSH1 0x1 PUSH1 0xA0 SHL SUB NOT AND SWAP1 SSTORE TIMESTAMP PUSH1 0x14 SWAP1 SWAP2 ADD SSTORE PUSH1 0x4 SLOAD SWAP1 SWAP2 SWAP1 PUSH1 0x1 PUSH1 0x40 SHL DUP2 LT ISZERO PUSH2 0x5B1 JUMPI DUP1 PUSH1 0x1 PUSH2 0x473E SWAP3 ADD PUSH1 0x4 SSTORE PUSH2 0x43EE JUMP JUMPDEST SWAP1 SWAP3 DUP4 SLOAD SWAP2 PUSH1 0x3 SHL SWAP3 DUP4 SHL SWAP3 SHL NOT AND OR SWAP1 SSTORE PUSH2 0x475B PUSH1 0x5 SLOAD PUSH2 0x4600 JUMP JUMPDEST PUSH1 0x5 SSTORE JUMP JUMPDEST PUSH1 0x1 DUP1 PUSH1 0xA0 SHL SUB SWAP2 DUP3 PUSH1 0x0 SWAP3 AND DUP3 MSTORE PUSH1 0x3 SWAP2 PUSH1 0x20 SWAP3 DUP1 DUP5 MSTORE PUSH1 0x2 SWAP2 PUSH1 0x40 SWAP2 DUP4 DUP4 DUP4 KECCAK256 ADD SLOAD SWAP6 DUP8 DUP8 AND SWAP6 PUSH1 0xFF SWAP7 DUP10 DUP9 PUSH1 0xA0 SWAP11 DUP12 SHR AND SWAP2 JUMPDEST AND SWAP1 DUP2 ISZERO PUSH2 0x47F2 JUMPI ISZERO PUSH2 0x47D5 JUMPI DUP1 DUP6 MSTORE DUP4 DUP4 MSTORE PUSH1 0x5 DUP7 DUP7 KECCAK256 ADD PUSH2 0x47B9 DUP2 SLOAD PUSH2 0x4600 JUMP JUMPDEST SWAP1 SSTORE JUMPDEST DUP5 MSTORE DUP3 DUP3 MSTORE DUP6 DUP6 DUP6 KECCAK256 ADD SLOAD DUP10 DUP1 DUP10 DUP4 DUP13 SHR AND SWAP3 AND PUSH2 0x4796 JUMP JUMPDEST DUP1 DUP6 MSTORE DUP4 DUP4 MSTORE PUSH1 0x6 DUP7 DUP7 KECCAK256 ADD PUSH2 0x47EB DUP2 SLOAD PUSH2 0x4600 JUMP JUMPDEST SWAP1 SSTORE PUSH2 0x47BC JUMP JUMPDEST POP POP SWAP8 POP POP POP POP POP POP POP POP JUMP JUMPDEST DUP2 DUP2 MUL SWAP3 SWAP2 DUP2 ISZERO SWAP2 DUP5 DIV EQ OR ISZERO PUSH2 0x45C2 JUMPI JUMP JUMPDEST DUP2 ISZERO PUSH2 0x481C JUMPI DIV SWAP1 JUMP JUMPDEST PUSH4 0x4E487B71 PUSH1 0xE0 SHL PUSH1 0x0 MSTORE PUSH1 0x12 PUSH1 0x4 MSTORE PUSH1 0x24 PUSH1 0x0 REVERT JUMPDEST SWAP2 SWAP3 PUSH1 0x80 SWAP4 SWAP7 SWAP6 SWAP5 SWAP2 SWAP7 PUSH1 0xA0 DUP5 ADD SWAP8 DUP5 MSTORE PUSH1 0x20 DUP5 ADD MSTORE PUSH1 0x40 DUP4 ADD MSTORE PUSH1 0x60 DUP3 ADD MSTORE ADD MSTORE JUMP JUMPDEST PUSH1 0x1 SLOAD PUSH1 0x40 MLOAD PUSH3 0x3144BD PUSH1 0xE3 SHL DUP2 MSTORE PUSH1 0x1 PUSH1 0x1 PUSH1 0xA0 SHL SUB SWAP1 SWAP2 AND SWAP3 SWAP1 SWAP2 PUSH1 0x0 SWAP2 SWAP1 PUSH1 0x20 DUP5 PUSH1 0x4 DUP2 DUP9 GAS STATICCALL SWAP4 DUP5 ISZERO PUSH2 0xF0F JUMPI DUP4 SWAP5 PUSH2 0x5080 JUMPI JUMPDEST POP DUP4 ISZERO PUSH2 0x506C JUMPI PUSH1 0x40 MLOAD PUSH4 0x95EA7B3 PUSH1 0xE0 SHL DUP2 MSTORE PUSH1 0x4 DUP2 ADD SWAP6 SWAP1 SWAP6 MSTORE PUSH9 0x70C1CC73B00C80000 PUSH1 0x24 DUP1 DUP8 ADD SWAP2 SWAP1 SWAP2 MSTORE SWAP5 PUSH1 0x20 DUP2 PUSH1 0x44 DUP2 DUP8 PUSH32 0x0 PUSH1 0x1 PUSH1 0x1 PUSH1 0xA0 SHL SUB AND GAS CALL DUP1 ISZERO PUSH2 0x1084 JUMPI PUSH2 0x5033 JUMPI JUMPDEST POP PUSH1 0x1 SLOAD PUSH1 0x40 MLOAD PUSH4 0x70A08231 PUSH1 0xE0 SHL DUP1 DUP3 MSTORE ADDRESS PUSH1 0x4 DUP4 ADD MSTORE SWAP2 PUSH1 0x1 PUSH1 0x1 PUSH1 0xA0 SHL SUB AND PUSH1 0x20 DUP3 DUP10 DUP2 DUP5 GAS STATICCALL SWAP2 DUP3 ISZERO PUSH2 0xA6B JUMPI DUP7 SWAP3 PUSH2 0x4FFF JUMPI JUMPDEST POP DUP1 EXTCODESIZE ISZERO PUSH2 0xA60 JUMPI DUP6 PUSH9 0x70C1CC73B00C80000 PUSH1 0x44 DUP11 DUP4 PUSH1 0x40 MLOAD SWAP6 DUP7 SWAP5 DUP6 SWAP4 PUSH4 0x4E538D93 PUSH1 0xE1 SHL DUP6 MSTORE ADDRESS PUSH1 0x4 DUP7 ADD MSTORE DUP5 ADD MSTORE GAS CALL DUP1 ISZERO PUSH2 0xA6B JUMPI PUSH2 0x4FEC JUMPI JUMPDEST POP PUSH1 0x1 SLOAD PUSH1 0x40 MLOAD SWAP3 DUP4 MSTORE ADDRESS PUSH1 0x4 DUP5 ADD MSTORE PUSH1 0x20 SWAP1 DUP4 SWAP1 DUP10 SWAP1 DUP3 SWAP1 PUSH1 0x1 PUSH1 0x1 PUSH1 0xA0 SHL SUB AND GAS STATICCALL DUP1 ISZERO PUSH2 0x3912 JUMPI DUP6 SWAP1 PUSH2 0x4FB8 JUMPI JUMPDEST PUSH2 0x49AE SWAP3 POP PUSH2 0x45B5 JUMP JUMPDEST PUSH1 0x1E PUSH12 0x30E68B6D6E0ACC828633631 PUSH1 0x25 SHL DUP7 SWAP1 DIV DUP2 DUP2 MUL SWAP7 SWAP3 SWAP4 SWAP3 SWAP2 DUP2 DUP9 DIV EQ SWAP1 ISZERO OR ISZERO PUSH2 0x4FA5 JUMPI PUSH2 0x4A1D PUSH2 0x17D6 PUSH2 0x4A02 PUSH1 0x64 DUP10 DIV PUSH2 0x17EC DUP2 DUP2 DUP2 PUSH12 0x30E68B6D6E0ACC828633631 PUSH1 0x25 SHL DUP10 SWAP1 DIV PUSH2 0x45B5 JUMP JUMPDEST PUSH2 0x4A11 PUSH1 0x64 DUP11 DIV PUSH1 0x6 SLOAD PUSH2 0x468C JUMP JUMPDEST PUSH1 0x6 SSTORE PUSH1 0x64 DUP10 DIV PUSH2 0x468C JUMP JUMPDEST PUSH1 0x8 SSTORE PUSH1 0x1 PUSH1 0x1 PUSH1 0xA0 SHL SUB DUP3 DUP2 AND DUP7 MSTORE PUSH1 0x3 PUSH1 0x20 MSTORE PUSH1 0x40 DUP7 KECCAK256 DUP1 SLOAD PUSH2 0xFF00 NOT AND PUSH2 0x100 OR DUP1 DUP3 SSTORE PUSH9 0x15245655B102580000 PUSH1 0xB SWAP1 SWAP3 ADD SWAP2 SWAP1 SWAP2 SSTORE PUSH1 0x1 SWAP6 DUP8 SWAP6 SWAP1 SWAP3 SWAP1 SWAP2 PUSH1 0x10 SHR AND JUMPDEST PUSH1 0xA PUSH1 0xFF DUP9 AND GT ISZERO DUP1 PUSH2 0x4F93 JUMPI JUMPDEST ISZERO PUSH2 0x4E02 JUMPI PUSH2 0x4A94 DUP8 PUSH12 0x30E68B6D6E0ACC828633631 PUSH1 0x25 SHL DUP7 SWAP1 DIV PUSH2 0x50DA JUMP JUMPDEST SWAP6 DUP7 ISZERO PUSH2 0x4DD8 JUMPI DUP7 PUSH2 0x4AA5 SWAP2 PUSH2 0x468C JUMP JUMPDEST PUSH1 0x1 PUSH1 0x1 PUSH1 0xA0 SHL SUB DUP3 AND DUP10 MSTORE PUSH1 0x3 PUSH1 0x20 MSTORE PUSH1 0x40 DUP10 KECCAK256 DUP1 SLOAD SWAP2 SWAP8 SWAP2 PUSH1 0x8 SHR PUSH1 0xFF AND SWAP1 DUP2 PUSH2 0x4DC1 JUMPI JUMPDEST POP ISZERO PUSH2 0x4C98 JUMPI PUSH1 0x1 PUSH1 0x1 PUSH1 0xA0 SHL SUB DUP3 AND DUP10 MSTORE PUSH1 0x3 PUSH1 0x20 MSTORE PUSH1 0x40 DUP10 KECCAK256 PUSH1 0x8 ADD DUP1 SLOAD PUSH2 0x4AF7 SWAP1 DUP4 SWAP1 PUSH2 0x468C JUMP JUMPDEST SWAP1 SSTORE PUSH1 0x1 PUSH1 0x1 PUSH1 0xA0 SHL SUB DUP3 AND DUP10 MSTORE PUSH1 0x3 PUSH1 0x20 MSTORE PUSH1 0x40 DUP10 KECCAK256 PUSH1 0x9 ADD DUP1 SLOAD PUSH2 0x4B1E SWAP1 DUP4 SWAP1 PUSH2 0x468C JUMP JUMPDEST SWAP1 SSTORE PUSH1 0x40 MLOAD PUSH1 0x1 PUSH1 0x1 PUSH1 0xA0 SHL SUB DUP8 DUP2 AND SWAP2 SWAP1 DUP5 AND SWAP1 PUSH32 0xB16479BDAC5B7099D9236D6FC6BE3B30FF54188F4FD961686E1E1DC7ECB88037 SWAP1 DUP1 PUSH2 0x4B61 DUP7 DUP15 DUP4 PUSH2 0x50C5 JUMP JUMPDEST SUB SWAP1 LOG3 PUSH1 0x1 DUP1 PUSH1 0xA0 SHL SUB DUP3 AND PUSH1 0x0 MSTORE PUSH1 0xE PUSH1 0x20 MSTORE PUSH1 0x40 PUSH1 0x0 KECCAK256 PUSH1 0x40 MLOAD SWAP2 PUSH2 0x4B87 DUP4 PUSH2 0x4459 JUMP JUMPDEST PUSH1 0x1 DUP4 MSTORE TIMESTAMP PUSH4 0xFFFFFFFF AND PUSH1 0x20 DUP5 ADD MSTORE PUSH1 0x40 DUP4 ADD MSTORE PUSH1 0xFF DUP10 AND PUSH1 0x60 DUP4 ADD MSTORE PUSH1 0x1 PUSH1 0x1 PUSH1 0xA0 SHL SUB DUP8 AND PUSH1 0x80 DUP4 ADD MSTORE DUP1 SLOAD PUSH1 0x1 PUSH1 0x40 SHL DUP2 LT ISZERO PUSH2 0x4C83 JUMPI PUSH2 0x4BD1 SWAP2 PUSH1 0x1 DUP3 ADD DUP2 SSTORE PUSH2 0x463F JUMP JUMPDEST PUSH2 0x4C6E JUMPI DUP2 MLOAD DUP2 SLOAD PUSH1 0x20 DUP5 ADD MLOAD PUSH5 0xFFFFFFFFFF NOT SWAP1 SWAP2 AND PUSH1 0xFF SWAP3 DUP4 AND OR PUSH1 0x8 SWAP2 DUP3 SHL PUSH5 0xFFFFFFFF00 AND OR DUP4 SSTORE PUSH1 0x40 DUP5 ADD MLOAD PUSH1 0x1 DUP5 ADD SSTORE PUSH1 0x60 DUP5 ADD MLOAD PUSH1 0x2 SWAP4 SWAP1 SWAP4 ADD DUP1 SLOAD PUSH1 0x80 SWAP1 SWAP6 ADD MLOAD PUSH1 0x1 PUSH1 0x1 PUSH1 0xA8 SHL SUB NOT SWAP1 SWAP6 AND SWAP4 SWAP1 SWAP3 AND SWAP3 SWAP1 SWAP3 OR SWAP3 SWAP1 SWAP2 SHL PUSH2 0x100 PUSH1 0x1 PUSH1 0xA8 SHL SUB AND SWAP2 SWAP1 SWAP2 OR SWAP1 SSTORE JUMPDEST PUSH1 0x1 PUSH1 0x1 PUSH1 0xA0 SHL SUB SWAP1 DUP2 AND DUP9 MSTORE PUSH1 0x3 PUSH1 0x20 MSTORE PUSH1 0x40 DUP9 KECCAK256 SLOAD PUSH1 0x10 SHR AND SWAP6 PUSH2 0x4C68 SWAP1 PUSH2 0x50B4 JUMP JUMPDEST SWAP6 PUSH2 0x4A65 JUMP JUMPDEST DUP12 PUSH4 0x4E487B71 PUSH1 0xE0 SHL PUSH1 0x0 MSTORE PUSH1 0x0 PUSH1 0x4 MSTORE PUSH1 0x0 REVERT JUMPDEST DUP13 PUSH4 0x4E487B71 PUSH1 0xE0 SHL PUSH1 0x0 MSTORE PUSH1 0x41 PUSH1 0x4 MSTORE PUSH1 0x0 REVERT JUMPDEST PUSH2 0x4CA4 DUP2 PUSH1 0x8 SLOAD PUSH2 0x468C JUMP JUMPDEST PUSH1 0x8 SSTORE PUSH1 0x40 MLOAD PUSH1 0x1 PUSH1 0x1 PUSH1 0xA0 SHL SUB DUP4 AND SWAP1 PUSH32 0x117CA0CD821ECB7EADFEA2D6927A67853908BDC351A386235215F5AB6071BFED SWAP1 DUP1 PUSH2 0x4CE3 DUP6 DUP14 DUP4 PUSH2 0x50C5 JUMP JUMPDEST SUB SWAP1 LOG2 PUSH1 0x1 DUP1 PUSH1 0xA0 SHL SUB DUP3 AND PUSH1 0x0 MSTORE PUSH1 0xE PUSH1 0x20 MSTORE PUSH1 0x40 PUSH1 0x0 KECCAK256 PUSH1 0x40 MLOAD SWAP2 PUSH2 0x4D09 DUP4 PUSH2 0x4459 JUMP JUMPDEST PUSH1 0x2 DUP4 MSTORE TIMESTAMP PUSH4 0xFFFFFFFF AND PUSH1 0x20 DUP5 ADD MSTORE PUSH1 0x40 DUP4 ADD MSTORE PUSH1 0xFF DUP10 AND PUSH1 0x60 DUP4 ADD MSTORE PUSH1 0x0 PUSH1 0x80 DUP4 ADD MSTORE DUP1 SLOAD PUSH1 0x1 PUSH1 0x40 SHL DUP2 LT ISZERO PUSH2 0x4C83 JUMPI PUSH2 0x4D4B SWAP2 PUSH1 0x1 DUP3 ADD DUP2 SSTORE PUSH2 0x463F JUMP JUMPDEST PUSH2 0x4C6E JUMPI DUP2 MLOAD DUP2 SLOAD PUSH1 0x20 DUP5 ADD MLOAD PUSH5 0xFFFFFFFFFF NOT SWAP1 SWAP2 AND PUSH1 0xFF SWAP3 DUP4 AND OR PUSH1 0x8 SWAP2 DUP3 SHL PUSH5 0xFFFFFFFF00 AND OR DUP4 SSTORE PUSH1 0x40 DUP5 ADD MLOAD PUSH1 0x1 DUP5 ADD SSTORE PUSH1 0x60 DUP5 ADD MLOAD PUSH1 0x2 SWAP4 SWAP1 SWAP4 ADD DUP1 SLOAD PUSH1 0x80 SWAP1 SWAP6 ADD MLOAD PUSH1 0x1 PUSH1 0x1 PUSH1 0xA8 SHL SUB NOT SWAP1 SWAP6 AND SWAP4 SWAP1 SWAP3 AND SWAP3 SWAP1 SWAP3 OR SWAP3 SWAP1 SWAP2 SHL PUSH2 0x100 PUSH1 0x1 PUSH1 0xA8 SHL SUB AND SWAP2 SWAP1 SWAP2 OR SWAP1 SSTORE PUSH2 0x4C43 JUMP JUMPDEST PUSH1 0x1 SWAP2 POP ADD SLOAD PUSH2 0x4DD0 DUP10 PUSH2 0x5226 JUMP JUMPDEST GT ISZERO CODESIZE PUSH2 0x4ACC JUMP JUMPDEST PUSH1 0x1 PUSH1 0x1 PUSH1 0xA0 SHL SUB SWAP2 DUP3 AND DUP10 MSTORE PUSH1 0x3 PUSH1 0x20 MSTORE PUSH1 0x40 DUP10 KECCAK256 SLOAD PUSH1 0x10 SHR SWAP1 SWAP2 AND SWAP7 SWAP1 SWAP6 POP PUSH2 0x4C68 SWAP1 PUSH2 0x50B4 JUMP JUMPDEST POP SWAP3 SWAP6 POP SWAP7 SWAP6 SWAP1 SWAP4 POP PUSH32 0x8AF2C013A5A55C6D3AD5423522FE76C6F2EB831B5E23318276B3C678CB457FC9 SWAP3 DUP1 PUSH1 0x64 DUP4 DIV GT PUSH2 0x4F7A JUMPI JUMPDEST POP PUSH1 0x40 MLOAD PUSH1 0x1 PUSH1 0x1 PUSH1 0xA0 SHL SUB DUP7 AND SWAP5 SWAP1 SWAP3 DUP4 SWAP3 PUSH2 0x4E74 SWAP3 PUSH1 0x64 SWAP1 SWAP2 DIV SWAP2 DUP3 SWAP2 DUP3 SWAP2 PUSH12 0x30E68B6D6E0ACC828633631 PUSH1 0x25 SHL SWAP2 SWAP1 SWAP2 DIV SWAP1 DUP7 PUSH2 0x4832 JUMP JUMPDEST SUB SWAP1 LOG2 PUSH1 0x1 DUP1 PUSH1 0xA0 SHL SUB AND PUSH1 0x0 MSTORE PUSH1 0xE PUSH1 0x20 MSTORE PUSH1 0x40 PUSH1 0x0 KECCAK256 PUSH1 0x40 MLOAD SWAP2 PUSH2 0x4E99 DUP4 PUSH2 0x4459 JUMP JUMPDEST PUSH1 0x0 DUP4 MSTORE PUSH1 0x20 DUP4 ADD PUSH4 0xFFFFFFFF TIMESTAMP AND DUP2 MSTORE PUSH1 0x40 DUP5 ADD SWAP1 PUSH9 0x70C1CC73B00C80000 DUP3 MSTORE PUSH1 0x60 DUP6 ADD SWAP5 PUSH1 0x0 DUP7 MSTORE PUSH1 0x80 DUP2 ADD SWAP5 PUSH1 0x0 DUP7 MSTORE DUP1 SLOAD SWAP1 PUSH1 0x1 PUSH1 0x40 SHL DUP3 LT ISZERO PUSH2 0x4F65 JUMPI SWAP1 PUSH2 0x4EEC SWAP2 PUSH1 0x1 DUP3 ADD DUP2 SSTORE PUSH2 0x463F JUMP JUMPDEST SWAP5 SWAP1 SWAP5 PUSH2 0x4F51 JUMPI POP MLOAD DUP4 SLOAD SWAP2 MLOAD PUSH5 0xFFFFFFFFFF NOT SWAP1 SWAP3 AND PUSH1 0xFF SWAP2 DUP3 AND OR PUSH1 0x8 SWAP3 DUP4 SHL PUSH5 0xFFFFFFFF00 AND OR DUP5 SSTORE SWAP2 MLOAD PUSH1 0x1 DUP5 ADD SSTORE SWAP4 MLOAD PUSH1 0x2 SWAP1 SWAP3 ADD DUP1 SLOAD SWAP4 MLOAD PUSH1 0x1 PUSH1 0x1 PUSH1 0xA8 SHL SUB NOT SWAP1 SWAP5 AND SWAP3 SWAP1 SWAP2 AND SWAP2 SWAP1 SWAP2 OR SWAP2 SWAP1 SWAP3 SHL PUSH2 0x100 PUSH1 0x1 PUSH1 0xA8 SHL SUB AND OR SWAP1 SSTORE JUMP JUMPDEST PUSH4 0x4E487B71 PUSH1 0xE0 SHL PUSH1 0x0 MSTORE PUSH1 0x0 PUSH1 0x4 MSTORE PUSH1 0x0 REVERT JUMPDEST DUP6 PUSH4 0x4E487B71 PUSH1 0xE0 SHL PUSH1 0x0 MSTORE PUSH1 0x41 PUSH1 0x4 MSTORE PUSH1 0x0 REVERT JUMPDEST PUSH2 0x17D6 PUSH2 0x4F8A SWAP2 PUSH1 0x64 DUP5 DIV PUSH2 0x45B5 JUMP JUMPDEST PUSH1 0x8 SSTORE CODESIZE PUSH2 0x4E38 JUMP JUMPDEST POP PUSH1 0x1 PUSH1 0x1 PUSH1 0xA0 SHL SUB DUP2 AND ISZERO ISZERO PUSH2 0x4A73 JUMP JUMPDEST PUSH4 0x4E487B71 PUSH1 0xE0 SHL DUP6 MSTORE PUSH1 0x11 PUSH1 0x4 MSTORE DUP7 DUP6 REVERT JUMPDEST POP PUSH1 0x20 DUP3 RETURNDATASIZE PUSH1 0x20 GT PUSH2 0x4FE4 JUMPI JUMPDEST DUP2 PUSH2 0x4FD2 PUSH1 0x20 SWAP4 DUP4 PUSH2 0x4487 JUMP JUMPDEST DUP2 ADD SUB SLT PUSH2 0xAB1 JUMPI PUSH2 0x49AE SWAP2 MLOAD PUSH2 0x49A4 JUMP JUMPDEST RETURNDATASIZE SWAP2 POP PUSH2 0x4FC5 JUMP JUMPDEST PUSH2 0x4FF8 SWAP1 SWAP6 SWAP2 SWAP6 PUSH2 0x4474 JUMP JUMPDEST SWAP4 CODESIZE PUSH2 0x4973 JUMP JUMPDEST SWAP1 SWAP2 POP PUSH1 0x20 DUP2 RETURNDATASIZE PUSH1 0x20 GT PUSH2 0x502B JUMPI JUMPDEST DUP2 PUSH2 0x501B PUSH1 0x20 SWAP4 DUP4 PUSH2 0x4487 JUMP JUMPDEST DUP2 ADD SUB SLT PUSH2 0xA60 JUMPI MLOAD SWAP1 CODESIZE PUSH2 0x4934 JUMP JUMPDEST RETURNDATASIZE SWAP2 POP PUSH2 0x500E JUMP JUMPDEST PUSH1 0x20 DUP2 RETURNDATASIZE PUSH1 0x20 GT PUSH2 0x5064 JUMPI JUMPDEST DUP2 PUSH2 0x504C PUSH1 0x20 SWAP4 DUP4 PUSH2 0x4487 JUMP JUMPDEST DUP2 ADD SUB SLT PUSH2 0xA0D JUMPI PUSH2 0x505D SWAP1 PUSH2 0x45D8 JUMP JUMPDEST POP CODESIZE PUSH2 0x48FC JUMP JUMPDEST RETURNDATASIZE SWAP2 POP PUSH2 0x503F JUMP JUMPDEST PUSH4 0x4E487B71 PUSH1 0xE0 SHL DUP4 MSTORE PUSH1 0x12 PUSH1 0x4 MSTORE PUSH1 0x24 DUP4 REVERT JUMPDEST SWAP1 SWAP4 POP PUSH1 0x20 DUP2 RETURNDATASIZE PUSH1 0x20 GT PUSH2 0x50AC JUMPI JUMPDEST DUP2 PUSH2 0x509C PUSH1 0x20 SWAP4 DUP4 PUSH2 0x4487 JUMP JUMPDEST DUP2 ADD SUB SLT PUSH2 0xF03 JUMPI MLOAD SWAP3 CODESIZE PUSH2 0x488E JUMP JUMPDEST RETURNDATASIZE SWAP2 POP PUSH2 0x508F JUMP JUMPDEST PUSH1 0xFF AND PUSH1 0xFF DUP2 EQ PUSH2 0x45C2 JUMPI PUSH1 0x1 ADD SWAP1 JUMP JUMPDEST PUSH1 0x20 SWAP1 SWAP4 SWAP3 SWAP2 SWAP4 PUSH1 0xFF PUSH1 0x40 DUP3 ADD SWAP6 AND DUP2 MSTORE ADD MSTORE JUMP JUMPDEST SWAP1 PUSH1 0xFF AND PUSH1 0x1 DUP2 EQ PUSH2 0x520B JUMPI PUSH1 0x2 DUP2 EQ PUSH2 0x51F0 JUMPI PUSH1 0x3 DUP2 EQ PUSH2 0x51D5 JUMPI PUSH1 0x4 SWAP1 DUP2 DUP2 EQ PUSH2 0x51BE JUMPI PUSH1 0x5 DUP2 EQ PUSH2 0x51A1 JUMPI PUSH1 0x6 DUP2 EQ PUSH2 0x51A1 JUMPI PUSH1 0x7 DUP2 EQ PUSH2 0x5184 JUMPI PUSH1 0x8 DUP2 EQ PUSH2 0x5184 JUMPI PUSH1 0x9 DUP2 EQ PUSH2 0x5167 JUMPI PUSH1 0xA EQ PUSH2 0x5136 JUMPI POP POP PUSH1 0x0 SWAP1 JUMP JUMPDEST DUP2 PUSH1 0x1 SHL SWAP2 DUP1 DUP4 DIV PUSH1 0x2 EQ SWAP1 ISZERO OR ISZERO PUSH2 0x5152 JUMPI POP PUSH2 0x3E8 SWAP1 DIV SWAP1 JUMP JUMPDEST PUSH1 0x11 SWAP1 PUSH4 0x4E487B71 PUSH1 0xE0 SHL PUSH1 0x0 MSTORE MSTORE PUSH1 0x24 PUSH1 0x0 REVERT JUMPDEST POP DUP2 PUSH1 0x1 SHL SWAP2 DUP1 DUP4 DIV PUSH1 0x2 EQ SWAP1 ISZERO OR ISZERO PUSH2 0x5152 JUMPI POP PUSH2 0x3E8 SWAP1 DIV SWAP1 JUMP JUMPDEST POP PUSH1 0x3 DUP3 MUL SWAP2 DUP1 DUP4 DIV PUSH1 0x3 EQ SWAP1 ISZERO OR ISZERO PUSH2 0x5152 JUMPI POP PUSH2 0x3E8 SWAP1 DIV SWAP1 JUMP JUMPDEST POP PUSH1 0x5 DUP3 MUL SWAP2 DUP1 DUP4 DIV PUSH1 0x5 EQ SWAP1 ISZERO OR ISZERO PUSH2 0x5152 JUMPI POP PUSH2 0x3E8 SWAP1 DIV SWAP1 JUMP JUMPDEST POP DUP2 DUP1 DIV PUSH1 0x1 EQ DUP3 ISZERO OR ISZERO PUSH2 0x5152 JUMPI POP PUSH1 0x64 SWAP1 DIV SWAP1 JUMP JUMPDEST POP DUP1 PUSH1 0x1 SHL SWAP1 DUP1 DUP3 DIV PUSH1 0x2 EQ SWAP1 ISZERO OR ISZERO PUSH2 0x45C2 JUMPI PUSH1 0x64 SWAP1 DIV SWAP1 JUMP JUMPDEST POP PUSH1 0x5 DUP2 MUL SWAP1 DUP1 DUP3 DIV PUSH1 0x5 EQ SWAP1 ISZERO OR ISZERO PUSH2 0x45C2 JUMPI PUSH1 0x64 SWAP1 DIV SWAP1 JUMP JUMPDEST POP PUSH1 0x14 DUP2 MUL SWAP1 DUP1 DUP3 DIV PUSH1 0x14 EQ SWAP1 ISZERO OR ISZERO PUSH2 0x45C2 JUMPI PUSH1 0x64 SWAP1 DIV SWAP1 JUMP JUMPDEST PUSH1 0xFF AND PUSH1 0x1 DUP2 EQ PUSH2 0x5243 JUMPI PUSH1 0x4 LT ISZERO PUSH2 0x523E JUMPI PUSH1 0x5 SWAP1 JUMP JUMPDEST PUSH1 0x2 SWAP1 JUMP JUMPDEST POP PUSH1 0x0 SWAP1 JUMP JUMPDEST PUSH1 0x1 PUSH1 0x1 PUSH1 0x40 SHL SUB DUP2 GT PUSH2 0x5B1 JUMPI PUSH1 0x5 SHL PUSH1 0x20 ADD SWAP1 JUMP JUMPDEST DUP1 MLOAD DUP3 LT ISZERO PUSH2 0x4409 JUMPI PUSH1 0x20 SWAP2 PUSH1 0x5 SHL ADD ADD SWAP1 JUMP JUMPDEST DUP2 DUP1 PUSH2 0x548B JUMPI JUMPDEST PUSH2 0x5484 JUMPI DUP2 ISZERO SWAP2 DUP3 DUP1 PUSH2 0x545F JUMPI JUMPDEST PUSH2 0x5457 JUMPI PUSH1 0x5 SLOAD SWAP3 PUSH1 0x1 DUP1 DUP6 ADD DUP1 SWAP6 GT PUSH2 0x45C2 JUMPI PUSH2 0x52A6 DUP6 PUSH2 0x5249 JUMP JUMPDEST SWAP1 PUSH2 0x52C1 PUSH1 0x40 SWAP7 PUSH2 0x52B9 DUP9 MLOAD SWAP5 DUP6 PUSH2 0x4487 JUMP JUMPDEST DUP1 DUP5 MSTORE PUSH2 0x5249 JUMP JUMPDEST SWAP3 PUSH1 0x20 SWAP3 DUP4 DUP2 ADD SWAP5 PUSH1 0x1F NOT ADD CALLDATASIZE DUP7 CALLDATACOPY PUSH1 0x0 DUP1 DUP8 ISZERO PUSH2 0x5438 JUMPI PUSH1 0x1 PUSH1 0x1 PUSH1 0xA0 SHL SUB DUP10 DUP2 AND DUP4 MSTORE PUSH1 0x3 DUP1 DUP9 MSTORE DUP12 DUP5 KECCAK256 ADD SLOAD AND SWAP7 JUMPDEST PUSH1 0x1 PUSH1 0x1 PUSH1 0xA0 SHL SUB SWAP8 DUP9 AND DUP1 PUSH2 0x5424 JUMPI JUMPDEST POP POP JUMPDEST DUP2 DUP2 LT PUSH2 0x5382 JUMPI POP POP POP DUP1 PUSH2 0x5367 JUMPI JUMPDEST PUSH2 0x535D JUMPI POP DUP3 PUSH2 0x5340 JUMPI JUMPDEST POP POP PUSH2 0x5339 JUMPI DUP2 MLOAD PUSH4 0xC5BB5BCD PUSH1 0xE0 SHL DUP2 MSTORE PUSH1 0x4 SWAP1 REVERT JUMPDEST SWAP2 PUSH1 0x0 SWAP2 POP JUMP JUMPDEST DUP2 PUSH1 0x3 SWAP3 SWAP4 POP DUP5 AND PUSH1 0x0 MSTORE MSTORE PUSH1 0x4 DUP4 PUSH1 0x0 KECCAK256 ADD SLOAD AND ISZERO CODESIZE DUP1 PUSH2 0x5322 JUMP JUMPDEST SWAP6 SWAP5 POP POP POP POP SWAP2 SWAP1 JUMP JUMPDEST POP DUP3 DUP6 AND PUSH1 0x0 MSTORE PUSH1 0x3 DUP3 MSTORE DUP3 PUSH1 0x3 DUP8 PUSH1 0x0 KECCAK256 ADD SLOAD AND ISZERO PUSH2 0x5317 JUMP JUMPDEST DUP7 PUSH2 0x5396 PUSH2 0x538F DUP4 PUSH2 0x4600 JUMP JUMPDEST SWAP3 DUP6 PUSH2 0x5260 JUMP JUMPDEST MLOAD AND DUP1 PUSH1 0x0 MSTORE PUSH1 0x3 DUP1 DUP9 MSTORE DUP12 PUSH1 0x0 KECCAK256 SWAP2 DUP10 DUP3 DUP5 ADD SLOAD AND DUP1 ISZERO PUSH2 0x5411 JUMPI DUP11 PUSH1 0x4 DUP1 SWAP6 ADD SLOAD AND ISZERO PUSH2 0x53FD JUMPI SWAP1 DUP11 SWAP4 SWAP3 SWAP2 PUSH2 0x53D7 PUSH2 0x53D0 DUP9 PUSH2 0x4600 JUMP JUMPDEST SWAP8 DUP10 PUSH2 0x5260 JUMP JUMPDEST MSTORE PUSH1 0x0 MSTORE DUP9 MSTORE DUP12 PUSH1 0x0 KECCAK256 ADD SLOAD AND PUSH2 0x53F7 PUSH2 0x53F0 DUP5 PUSH2 0x4600 JUMP JUMPDEST SWAP4 DUP6 PUSH2 0x5260 JUMP JUMPDEST MSTORE PUSH2 0x5307 JUMP JUMPDEST POP SWAP12 POP POP POP POP POP POP POP POP POP POP POP POP SWAP1 PUSH1 0x0 SWAP1 JUMP JUMPDEST POP SWAP11 POP POP POP POP POP POP POP SWAP6 SWAP5 POP POP POP POP SWAP2 SWAP1 JUMP JUMPDEST SWAP1 SWAP3 POP DUP6 SWAP3 DUP5 MLOAD ISZERO PUSH2 0x4409 JUMPI MSTORE CODESIZE DUP1 PUSH2 0x5304 JUMP JUMPDEST PUSH1 0x1 PUSH1 0x1 PUSH1 0xA0 SHL SUB DUP10 DUP2 AND DUP4 MSTORE PUSH1 0x3 DUP8 MSTORE DUP11 DUP4 KECCAK256 PUSH1 0x4 ADD SLOAD AND SWAP7 PUSH2 0x52F3 JUMP JUMPDEST POP SWAP2 PUSH1 0x0 SWAP2 POP JUMP JUMPDEST POP PUSH1 0x1 PUSH1 0x1 PUSH1 0xA0 SHL SUB DUP3 DUP2 AND PUSH1 0x0 SWAP1 DUP2 MSTORE PUSH1 0x3 PUSH1 0x20 MSTORE PUSH1 0x40 SWAP1 KECCAK256 PUSH1 0x4 ADD SLOAD AND ISZERO PUSH2 0x5289 JUMP JUMPDEST SWAP2 PUSH1 0x1 SWAP2 POP JUMP JUMPDEST POP PUSH1 0x1 DUP1 PUSH1 0xA0 SHL SUB DUP1 DUP3 AND PUSH1 0x0 MSTORE PUSH1 0x3 PUSH1 0x20 MSTORE PUSH1 0x3 PUSH1 0x40 PUSH1 0x0 KECCAK256 ADD SLOAD AND ISZERO PUSH2 0x527B JUMP JUMPDEST SWAP1 SWAP5 SWAP4 SWAP3 PUSH1 0x60 SWAP3 PUSH1 0x80 DUP4 ADD SWAP7 DUP4 MSTORE PUSH1 0x20 DUP4 ADD MSTORE PUSH1 0x40 DUP3 ADD MSTORE ADD MSTORE JUMP JUMPDEST SWAP2 SWAP1 PUSH1 0xFF SWAP1 PUSH1 0xA DUP3 DUP2 SLOAD AND PUSH2 0x5903 JUMPI PUSH1 0x6 SWAP1 DUP2 SLOAD SWAP3 DUP4 ISZERO PUSH2 0x58CA JUMPI PUSH1 0x0 SWAP1 DUP2 DUP5 SSTORE PUSH1 0x46 DUP6 MUL DUP6 DUP2 DIV PUSH1 0x46 SUB PUSH2 0x58B6 JUMPI PUSH1 0x64 SWAP1 DIV SWAP6 PUSH2 0x5508 DUP8 DUP8 PUSH2 0x45B5 JUMP JUMPDEST SWAP5 PUSH2 0x5518 PUSH1 0x9 SWAP4 DUP8 DUP6 SSTORE DUP12 PUSH2 0x468C JUMP JUMPDEST SWAP2 PUSH1 0x4 SWAP5 DUP6 SLOAD DUP1 DUP6 GT PUSH2 0x58AE JUMPI JUMPDEST POP DUP1 SWAP12 DUP1 JUMPDEST DUP6 DUP2 LT PUSH2 0x5819 JUMPI POP DUP13 ISZERO PUSH2 0x57CE JUMPI SWAP4 SWAP5 TIMESTAMP PUSH4 0xFFFFFFFF AND SWAP5 JUMPDEST DUP7 DUP2 LT PUSH2 0x5585 JUMPI POP POP POP POP POP POP POP POP SWAP5 PUSH2 0x5580 SWAP2 PUSH1 0x0 DUP1 MLOAD PUSH1 0x20 PUSH2 0x5E26 DUP4 CODECOPY DUP2 MLOAD SWAP2 MSTORE SWAP6 SWAP7 PUSH1 0x1 PUSH1 0xFF NOT DUP3 SLOAD AND OR SWAP1 SSTORE PUSH1 0x40 MLOAD SWAP5 DUP6 SWAP5 DUP6 PUSH2 0x54AE JUMP JUMPDEST SUB SWAP1 LOG1 JUMP JUMPDEST DUP3 DUP5 DUP16 DUP15 DUP13 SWAP2 PUSH2 0x5594 DUP7 PUSH2 0x43EE JUMP JUMPDEST SWAP3 SWAP1 SLOAD SWAP3 PUSH1 0x3 SWAP4 PUSH1 0x1 DUP1 PUSH1 0xA0 SHL SUB SWAP2 DUP6 SHL SHR AND SWAP1 DUP2 DUP8 MSTORE PUSH1 0x20 SWAP3 DUP5 DUP5 MSTORE DUP13 PUSH1 0x40 SWAP7 DUP12 DUP9 DUP12 KECCAK256 SWAP3 DUP4 SLOAD SWAP11 PUSH1 0x8 SWAP12 DUP13 SHR AND ISZERO PUSH2 0x57B9 JUMPI PUSH1 0x5 DUP5 ADD SLOAD SWAP1 DUP5 ADD SLOAD DUP1 DUP3 LT ISZERO PUSH2 0x57B1 JUMPI POP SWAP4 JUMPDEST PUSH1 0x7 SWAP4 DUP5 ADD SLOAD DUP1 DUP7 GT ISZERO PUSH2 0x57A9 JUMPI PUSH2 0x55F4 SWAP1 DUP7 PUSH2 0x45B5 JUMP JUMPDEST SWAP6 JUMPDEST DUP7 ISZERO PUSH2 0x5793 JUMPI DUP11 SWAP2 PUSH2 0x25ED DUP9 PUSH2 0x560B SWAP4 PUSH2 0x47FF JUMP JUMPDEST SWAP12 DUP8 DUP2 MSTORE DUP10 DUP10 MSTORE DUP13 PUSH2 0x5623 DUP14 DUP5 DUP5 KECCAK256 ADD SWAP2 DUP3 SLOAD PUSH2 0x468C JUMP JUMPDEST SWAP1 SSTORE DUP8 DUP2 MSTORE DUP10 DUP10 MSTORE KECCAK256 ADD PUSH2 0x5638 DUP12 DUP3 SLOAD PUSH2 0x468C JUMP JUMPDEST SWAP1 SSTORE DUP1 DUP5 MUL SWAP1 DUP5 DUP3 DIV SUB PUSH2 0x577D JUMPI SWAP3 PUSH32 0xBEE8F46206DC051D674F6CA1E618EFE407D83B27FFBE3540B916EDFD34E428E1 SWAP3 DUP9 SWAP3 DUP4 DUP16 DUP9 SWAP8 DUP9 DUP3 MSTORE DUP12 DUP12 MSTORE PUSH2 0x5686 PUSH1 0x11 DUP5 DUP5 KECCAK256 ADD SWAP2 DUP3 SLOAD PUSH2 0x468C JUMP JUMPDEST SWAP1 SSTORE DUP8 DUP2 MSTORE DUP11 DUP11 MSTORE KECCAK256 ADD SSTORE DUP2 MLOAD SWAP1 DUP2 MSTORE DUP10 DUP7 DUP3 ADD MSTORE LOG2 DUP9 MSTORE PUSH1 0xE DUP2 MSTORE DUP3 DUP9 KECCAK256 SWAP1 DUP4 MLOAD SWAP3 PUSH2 0x56B2 DUP5 PUSH2 0x4459 JUMP JUMPDEST DUP4 MSTORE DUP3 ADD SWAP3 DUP12 DUP5 MSTORE DUP3 ADD SWAP5 DUP6 MSTORE PUSH1 0x60 DUP3 ADD SWAP5 DUP9 DUP7 MSTORE PUSH1 0x80 DUP4 ADD SWAP4 DUP10 DUP6 MSTORE DUP3 SLOAD PUSH1 0x1 PUSH1 0x40 SHL DUP2 LT ISZERO PUSH2 0x5769 JUMPI PUSH2 0x56EE SWAP1 PUSH1 0x1 SWAP5 DUP6 DUP3 ADD DUP2 SSTORE PUSH2 0x463F JUMP JUMPDEST SWAP5 SWAP1 SWAP5 PUSH2 0x5756 JUMPI MLOAD DUP5 SLOAD SWAP2 MLOAD PUSH5 0xFFFFFFFFFF NOT SWAP1 SWAP3 AND SWAP1 DUP13 AND OR SWAP1 DUP7 SHL PUSH5 0xFFFFFFFF00 AND OR DUP4 SSTORE MLOAD SWAP1 DUP3 ADD SSTORE SWAP3 MLOAD PUSH1 0x2 SWAP4 SWAP1 SWAP4 ADD DUP1 SLOAD SWAP2 MLOAD PUSH1 0x1 PUSH1 0x1 PUSH1 0xA8 SHL SUB NOT SWAP1 SWAP3 AND SWAP4 DUP9 AND SWAP4 SWAP1 SWAP4 OR SWAP2 SHL PUSH2 0x100 PUSH1 0x1 PUSH1 0xA8 SHL SUB AND OR SWAP1 SSTORE PUSH2 0x5751 SWAP1 PUSH2 0x4600 JUMP JUMPDEST PUSH2 0x5544 JUMP JUMPDEST DUP16 DUP12 DUP1 PUSH1 0x24 SWAP3 PUSH4 0x4E487B71 PUSH1 0xE0 SHL DUP3 MSTORE MSTORE REVERT JUMPDEST DUP16 DUP12 PUSH1 0x41 PUSH1 0x24 SWAP3 PUSH4 0x4E487B71 PUSH1 0xE0 SHL DUP4 MSTORE MSTORE REVERT JUMPDEST POP POP DUP16 DUP12 PUSH1 0x11 PUSH1 0x24 SWAP3 PUSH4 0x4E487B71 PUSH1 0xE0 SHL DUP4 MSTORE MSTORE REVERT JUMPDEST POP POP POP POP POP POP POP POP POP POP POP POP POP PUSH2 0x5751 SWAP1 PUSH2 0x4600 JUMP JUMPDEST POP DUP12 SWAP6 PUSH2 0x55F6 JUMP JUMPDEST SWAP1 POP SWAP4 PUSH2 0x55DC JUMP JUMPDEST POP POP POP POP POP POP POP POP POP POP POP POP PUSH2 0x5751 SWAP1 PUSH2 0x4600 JUMP JUMPDEST POP SWAP7 SWAP2 POP POP PUSH1 0x0 DUP1 MLOAD PUSH1 0x20 PUSH2 0x5E26 DUP4 CODECOPY DUP2 MLOAD SWAP2 MSTORE SWAP9 SWAP10 POP DUP6 SWAP5 POP PUSH2 0x57FB SWAP3 SWAP4 POP PUSH2 0x17D6 SWAP2 POP PUSH1 0x80 SWAP8 PUSH2 0x468C JUMP JUMPDEST PUSH1 0x8 SSTORE SSTORE PUSH1 0x40 MLOAD SWAP2 DUP3 MSTORE DUP1 PUSH1 0x20 DUP4 ADD MSTORE DUP1 PUSH1 0x40 DUP4 ADD MSTORE PUSH1 0x60 DUP3 ADD MSTORE LOG1 JUMP JUMPDEST PUSH2 0x5822 DUP2 PUSH2 0x43EE JUMP JUMPDEST SWAP1 SLOAD PUSH1 0x3 SWAP2 DUP3 SHL SHR PUSH1 0x1 PUSH1 0x1 PUSH1 0xA0 SHL SUB AND DUP5 MSTORE PUSH1 0x20 MSTORE PUSH1 0x40 DUP4 KECCAK256 DUP1 SLOAD PUSH1 0x8 SHR DUP6 AND ISZERO PUSH2 0x58A4 JUMPI PUSH1 0x7 PUSH1 0x5 DUP3 ADD SLOAD DUP8 DUP4 ADD SLOAD DUP1 DUP3 LT PUSH1 0x0 EQ PUSH2 0x589C JUMPI POP SWAP2 JUMPDEST ADD SLOAD SWAP1 DUP2 DUP2 GT PUSH2 0x587B JUMPI JUMPDEST POP POP PUSH2 0x5876 SWAP1 PUSH2 0x4600 JUMP JUMPDEST PUSH2 0x552B JUMP JUMPDEST SWAP15 PUSH2 0x5876 SWAP3 SWAP16 PUSH2 0x5894 SWAP3 PUSH2 0x588E SWAP2 PUSH2 0x45B5 JUMP JUMPDEST SWAP1 PUSH2 0x468C JUMP JUMPDEST SWAP14 SWAP1 CODESIZE PUSH2 0x586B JUMP JUMPDEST SWAP1 POP SWAP2 PUSH2 0x5860 JUMP JUMPDEST POP PUSH2 0x5876 SWAP1 PUSH2 0x4600 JUMP JUMPDEST SWAP4 POP CODESIZE PUSH2 0x5526 JUMP JUMPDEST PUSH4 0x4E487B71 PUSH1 0xE0 SHL DUP4 MSTORE PUSH1 0x11 PUSH1 0x4 MSTORE PUSH1 0x24 DUP4 REVERT JUMPDEST PUSH1 0x40 MLOAD PUSH3 0x461BCD PUSH1 0xE5 SHL DUP2 MSTORE PUSH1 0x20 PUSH1 0x4 DUP3 ADD MSTORE PUSH1 0x11 PUSH1 0x24 DUP3 ADD MSTORE PUSH17 0x115B5C1D1E48189A5B985C9E481C1BDBDB PUSH1 0x7A SHL PUSH1 0x44 DUP3 ADD MSTORE PUSH1 0x64 SWAP1 REVERT JUMPDEST PUSH1 0x40 MLOAD PUSH3 0xC94879 PUSH1 0xE4 SHL DUP2 MSTORE PUSH1 0x4 SWAP1 REVERT JUMPDEST ISZERO PUSH2 0x591B JUMPI JUMP JUMPDEST PUSH1 0x40 MLOAD PUSH3 0x461BCD PUSH1 0xE5 SHL DUP2 MSTORE PUSH1 0x20 PUSH1 0x4 DUP3 ADD MSTORE PUSH1 0xE PUSH1 0x24 DUP3 ADD MSTORE PUSH14 0x139BDD081C9959DA5CDD195C9959 PUSH1 0x92 SHL PUSH1 0x44 DUP3 ADD MSTORE PUSH1 0x64 SWAP1 REVERT JUMPDEST ISZERO PUSH2 0x5958 JUMPI JUMP JUMPDEST PUSH1 0x40 MLOAD PUSH3 0x461BCD PUSH1 0xE5 SHL DUP2 MSTORE PUSH1 0x20 PUSH1 0x4 DUP3 ADD MSTORE PUSH1 0x14 PUSH1 0x24 DUP3 ADD MSTORE PUSH20 0x1554D115081D1C985B9CD9995C8819985A5B1959 PUSH1 0x62 SHL PUSH1 0x44 DUP3 ADD MSTORE PUSH1 0x64 SWAP1 REVERT JUMPDEST SWAP1 PUSH1 0x5 DUP2 LT ISZERO PUSH2 0x4409 JUMPI PUSH1 0x5 SHL ADD SWAP1 JUMP JUMPDEST DUP1 SLOAD DUP3 LT ISZERO PUSH2 0x4409 JUMPI PUSH1 0x0 MSTORE PUSH1 0x5 PUSH1 0x20 PUSH1 0x0 KECCAK256 SWAP2 MUL ADD SWAP1 PUSH1 0x0 SWAP1 JUMP JUMPDEST ISZERO PUSH2 0x59C8 JUMPI JUMP JUMPDEST PUSH1 0x40 MLOAD PUSH3 0x461BCD PUSH1 0xE5 SHL DUP2 MSTORE PUSH1 0x20 PUSH1 0x4 DUP3 ADD MSTORE PUSH1 0xD PUSH1 0x24 DUP3 ADD MSTORE PUSH13 0x92DCECC2D8D2C840D2DCC8CAF PUSH1 0x9B SHL PUSH1 0x44 DUP3 ADD MSTORE PUSH1 0x64 SWAP1 REVERT JUMPDEST ISZERO PUSH2 0x5A04 JUMPI JUMP JUMPDEST PUSH1 0x40 MLOAD PUSH3 0x461BCD PUSH1 0xE5 SHL DUP2 MSTORE PUSH1 0x20 PUSH1 0x4 DUP3 ADD MSTORE PUSH1 0x10 PUSH1 0x24 DUP3 ADD MSTORE PUSH16 0x105B1C9958591E481D5B9CDD185AD959 PUSH1 0x82 SHL PUSH1 0x44 DUP3 ADD MSTORE PUSH1 0x64 SWAP1 REVERT JUMPDEST PUSH1 0x2 SLOAD PUSH1 0x1 PUSH1 0x1 PUSH1 0xA0 SHL SUB AND SWAP1 DUP2 ISZERO PUSH2 0x5AB8 JUMPI PUSH1 0x20 SWAP1 PUSH1 0x24 PUSH1 0x40 MLOAD DUP1 SWAP5 DUP2 SWAP4 PUSH4 0x47CD5191 PUSH1 0xE0 SHL DUP4 MSTORE PUSH1 0x4 DUP4 ADD MSTORE GAS STATICCALL SWAP1 DUP2 ISZERO PUSH2 0x5AAC JUMPI PUSH1 0x0 SWAP2 PUSH2 0x5A7E JUMPI POP SWAP1 JUMP JUMPDEST SWAP1 PUSH1 0x20 DUP3 RETURNDATASIZE DUP3 GT PUSH2 0x5AA4 JUMPI JUMPDEST DUP2 PUSH2 0x5A97 PUSH1 0x20 SWAP4 DUP4 PUSH2 0x4487 JUMP JUMPDEST DUP2 ADD SUB SLT PUSH2 0x311 JUMPI POP MLOAD SWAP1 JUMP JUMPDEST RETURNDATASIZE SWAP2 POP PUSH2 0x5A8A JUMP JUMPDEST PUSH1 0x40 MLOAD RETURNDATASIZE PUSH1 0x0 DUP3 RETURNDATACOPY RETURNDATASIZE SWAP1 REVERT JUMPDEST POP POP PUSH1 0x0 SWAP1 JUMP JUMPDEST PUSH1 0x2 SLOAD PUSH1 0x1 PUSH1 0x1 PUSH1 0xA0 SHL SUB AND SWAP1 DUP2 ISZERO PUSH2 0x5AB8 JUMPI PUSH1 0x20 SWAP1 PUSH1 0x24 PUSH1 0x40 MLOAD DUP1 SWAP5 DUP2 SWAP4 PUSH4 0x75B1F0E1 PUSH1 0xE1 SHL DUP4 MSTORE PUSH1 0x4 DUP4 ADD MSTORE GAS STATICCALL SWAP1 DUP2 ISZERO PUSH2 0x5AAC JUMPI PUSH1 0x0 SWAP2 PUSH2 0x5A7E JUMPI POP SWAP1 JUMP JUMPDEST PUSH1 0x2 SLOAD PUSH1 0x1 PUSH1 0x1 PUSH1 0xA0 SHL SUB AND SWAP1 DUP2 ISZERO PUSH2 0x5AB8 JUMPI PUSH1 0x20 SWAP1 PUSH1 0x24 PUSH1 0x40 MLOAD DUP1 SWAP5 DUP2 SWAP4 PUSH4 0x1D613961 PUSH1 0xE1 SHL DUP4 MSTORE PUSH1 0x4 DUP4 ADD MSTORE GAS STATICCALL SWAP1 DUP2 ISZERO PUSH2 0x5AAC JUMPI PUSH1 0x0 SWAP2 PUSH2 0x5A7E JUMPI POP SWAP1 JUMP JUMPDEST PUSH1 0x2 SLOAD PUSH1 0x1 PUSH1 0x1 PUSH1 0xA0 SHL SUB SWAP1 DUP2 AND SWAP2 DUP3 ISZERO PUSH2 0x5BEE JUMPI AND PUSH1 0x24 PUSH1 0x0 DUP3 DUP2 MSTORE PUSH1 0x20 PUSH1 0x3 DUP2 MSTORE DUP1 PUSH1 0xF PUSH1 0x40 DUP5 KECCAK256 ADD SLOAD SWAP6 PUSH1 0x40 MLOAD SWAP5 DUP6 DUP1 SWAP3 PUSH4 0x47CD5191 PUSH1 0xE0 SHL DUP3 MSTORE PUSH1 0x1 PUSH1 0x4 DUP4 ADD MSTORE GAS STATICCALL SWAP3 DUP4 ISZERO PUSH2 0xA11 JUMPI DUP3 SWAP4 PUSH2 0x5BBE JUMPI JUMPDEST POP PUSH1 0xFF SWAP2 PUSH1 0x3 PUSH1 0x40 SWAP3 DUP6 SWAP7 DUP4 MSTORE MSTORE KECCAK256 SLOAD PUSH1 0x8 SHR AND SWAP1 DUP2 PUSH2 0x5BB6 JUMPI POP SWAP3 JUMP JUMPDEST SWAP1 POP DUP3 LT ISZERO SWAP3 JUMP JUMPDEST SWAP1 DUP1 SWAP4 POP DUP2 DUP2 RETURNDATASIZE DUP4 GT PUSH2 0x5BE7 JUMPI JUMPDEST PUSH2 0x5BD6 DUP2 DUP4 PUSH2 0x4487 JUMP JUMPDEST DUP2 ADD SUB SLT PUSH2 0xA1C JUMPI MLOAD SWAP2 PUSH1 0xFF PUSH2 0x5B98 JUMP JUMPDEST POP RETURNDATASIZE PUSH2 0x5BCC JUMP JUMPDEST POP POP POP PUSH1 0x0 SWAP1 PUSH1 0x0 SWAP1 PUSH1 0x0 SWAP1 JUMP JUMPDEST SWAP3 SWAP1 PUSH1 0x1 DUP1 PUSH1 0xA0 SHL SUB DUP1 PUSH1 0x0 SWAP6 AND DUP6 MSTORE PUSH1 0x20 SWAP1 PUSH1 0xE DUP3 MSTORE PUSH1 0x40 SWAP1 DUP2 DUP8 KECCAK256 SWAP3 DUP4 SLOAD SWAP7 DUP8 ISZERO DUP1 ISZERO PUSH2 0x5D89 JUMPI JUMPDEST PUSH2 0x5D4D JUMPI PUSH2 0x5C34 DUP7 DUP10 PUSH2 0x45B5 JUMP JUMPDEST DUP1 DUP3 LT ISZERO PUSH2 0x5D45 JUMPI POP SWAP4 JUMPDEST PUSH2 0x5C48 DUP6 PUSH2 0x5249 JUMP JUMPDEST SWAP6 PUSH2 0x5C55 DUP6 MLOAD SWAP8 DUP9 PUSH2 0x4487 JUMP JUMPDEST DUP6 DUP8 MSTORE PUSH1 0x1F NOT PUSH2 0x5C64 DUP8 PUSH2 0x5249 JUMP JUMPDEST ADD DUP4 DUP12 JUMPDEST DUP3 DUP2 LT PUSH2 0x5D13 JUMPI POP POP POP DUP7 SWAP10 DUP1 JUMPDEST DUP8 DUP2 LT PUSH2 0x5C88 JUMPI POP POP POP POP POP POP POP POP POP JUMP JUMPDEST PUSH1 0x0 NOT DUP12 ADD DUP12 DUP2 GT PUSH2 0x58B6 JUMPI SWAP1 PUSH2 0x5CAF PUSH2 0x5CA9 DUP3 PUSH2 0x17EC DUP8 PUSH2 0x5D0E SWAP7 PUSH2 0x45B5 JUMP JUMPDEST DUP7 PUSH2 0x463F JUMP JUMPDEST POP DUP8 DUP10 MLOAD SWAP2 PUSH2 0x5CBD DUP4 PUSH2 0x4459 JUMP JUMPDEST DUP1 SLOAD PUSH1 0x2 PUSH1 0xFF SWAP3 DUP4 DUP4 AND DUP7 MSTORE PUSH4 0xFFFFFFFF PUSH1 0x8 SWAP4 DUP5 SHR AND DUP13 DUP8 ADD MSTORE DUP14 PUSH1 0x1 DUP3 ADD SLOAD SWAP1 DUP8 ADD MSTORE ADD SLOAD SWAP2 DUP3 AND PUSH1 0x60 DUP6 ADD MSTORE SHR AND PUSH1 0x80 DUP3 ADD MSTORE PUSH2 0x5CFD DUP3 DUP13 PUSH2 0x5260 JUMP JUMPDEST MSTORE PUSH2 0x5D08 DUP2 DUP12 PUSH2 0x5260 JUMP JUMPDEST POP PUSH2 0x4600 JUMP JUMPDEST PUSH2 0x5C76 JUMP JUMPDEST DUP8 MLOAD PUSH2 0x5D1E DUP2 PUSH2 0x4459 JUMP JUMPDEST DUP14 DUP2 MSTORE DUP14 DUP4 DUP3 ADD MSTORE DUP14 DUP10 DUP3 ADD MSTORE DUP14 PUSH1 0x60 DUP3 ADD MSTORE DUP14 PUSH1 0x80 DUP3 ADD MSTORE DUP3 DUP3 DUP13 ADD ADD MSTORE ADD DUP5 SWAP1 PUSH2 0x5C68 JUMP JUMPDEST SWAP1 POP SWAP4 PUSH2 0x5C3F JUMP JUMPDEST POP DUP3 MLOAD SWAP7 SWAP8 SWAP6 SWAP7 SWAP6 SWAP5 POP DUP6 ADD SWAP3 POP POP PUSH1 0x1 PUSH1 0x1 PUSH1 0x40 SHL SUB DUP3 GT DUP5 DUP4 LT OR PUSH2 0x5D75 JUMPI MSTORE DUP2 MSTORE SWAP2 SWAP1 JUMP JUMPDEST PUSH4 0x4E487B71 PUSH1 0xE0 SHL DUP4 MSTORE PUSH1 0x41 PUSH1 0x4 MSTORE PUSH1 0x24 DUP4 REVERT JUMPDEST POP DUP8 DUP7 LT ISZERO PUSH2 0x5C26 JUMP JUMPDEST SWAP1 PUSH2 0x5D9D DUP3 PUSH2 0x5249 JUMP JUMPDEST PUSH2 0x5DAA PUSH1 0x40 MLOAD SWAP2 DUP3 PUSH2 0x4487 JUMP JUMPDEST DUP3 DUP2 MSTORE DUP1 SWAP3 PUSH2 0x5DBB PUSH1 0x1F NOT SWAP2 PUSH2 0x5249 JUMP JUMPDEST ADD SWAP1 PUSH1 0x20 CALLDATASIZE SWAP2 ADD CALLDATACOPY JUMP INVALID CALLVALUE SELFDESTRUCT CALLDATACOPY DUP8 0x4D PUSH21 0x43037A85C6F390FE14F2AE3E8767355DE0E63891AD NUMBER PUSH8 0xC275398BE0079C53 AND MSIZE EQ SGT PREVRANDAO 0xCD 0x1F 0xD0 LOG4 CALLCODE DUP5 NOT 0x49 PUSH32 0x9722A3DAAFE3B4186F6B6457E0DCFD2B4017D03F7E541021DB793B2F9B31E4AC 0xDE 0xE0 SDIV 0xF7 DUP10 0xE5 0x28 MSTORE8 0xC3 SWAP1 0xE3 0xE9 PUSH3 0xA0EA57 SDIV KECCAK256 0xC SWAP16 REVERT CALLDATASIZE 0xDC PUSH20 0x5FEF1592C3234BB7E311FC1B0A444F6370D0620E 0xAE SWAP12 PUSH24 0x9B17422D0DF92223018B32B4D1FA46E071723D6817E2486D STOP EXTCODESIZE 0xEC 0xC5 PUSH0 STOP LOG2 PUSH5 0x6970667358 0x22 SLT KECCAK256 SWAP8 SWAP11 BALANCE 0xB0 0xA5 0xC0 0xA7 EXTCODECOPY RETURN PUSH27 0x5EB562D42ACF3E1DCDC91A0D1EC32AD9160A4AF82F1764736F6C63 NUMBER STOP ADDMOD EQ STOP CALLER "},"methodIdentifiers":{"ADMIN_ALLOC()":"be648bdb","BINARY_ALLOC()":"44e374d5","BTC_POOL_RATE()":"92446e30","FLEX_CAP_MULT()":"3ccb13d3","INCOME_LIMIT()":"aa393757","LEVEL_ALLOC()":"77537844","LOCK_DURATION()":"485d3834","MIN_STAKE_USDT()":"8431fdd7","PACKAGE_PRICE()":"039ccc26","activate()":"0f15f4c0","adminPool()":"b86a1fb2","allUsers(uint256)":"a2bdedf4","binaryPool()":"7f1b4064","boardEntryCount(address)":"f00b0093","boardHandler()":"c9d484cf","canEnterBoard(address)":"9499a351","canRebirth(address)":"e51cb530","convertToLocked(uint256)":"4b3f0d45","creditBoardReward(address,uint256,uint256)":"f0b7b9dc","distributeBinaryIncome(uint256,uint256)":"2d641f08","distributePowerLeg(uint256,uint256)":"8a8f0429","enterBoardPool()":"e4093a66","getActiveStakes(address)":"1747e0b0","getAllUsersCount()":"38abfc41","getBoardCurrentIndex(uint256)":"3ac272c2","getBoardMatrixInfo(uint256,uint256)":"d4a90286","getBoardPrice(uint256)":"47cd5191","getBoardQueueLength(uint256)":"eb63e1c2","getBtcPoolInfo(address)":"03c3ecb7","getCurrentBinaryPairs(address)":"f24c536a","getLockDuration()":"e239c400","getMvtContractBalance()":"ce8292f5","getMvtPrice()":"68ddb2b5","getPoolBalances()":"52375bb1","getProfile(address)":"0f53a470","getStake(address,uint256)":"cfd47663","getStakeCount(address)":"cf57ee69","getTransactions(address,uint256,uint256)":"7435f421","getUserBoardStats(address)":"fb72ca35","getUserInfo(address)":"6386c1c7","mvaultToken()":"1f6259d5","owner()":"8da5cb5b","rebirth(address,bool)":"94915dd0","register(address,address,bool)":"aa33f5d5","registerAndActivateFor(address,address,bool)":"e0e01011","renounceOwnership()":"715018a6","reservePool()":"0266f044","sellMvt(uint256)":"634f627e","setBoardHandler(address)":"e3ba9bda","setMvaultToken(address)":"1ce5e894","setProfile(string,string,string,string)":"55509c8f","stake(uint256,bool)":"abe50f19","totalBoardRewardsEarned(address)":"2335821b","totalUsers()":"bff1f9e1","transferOwnership(address)":"f2fde38b","unstake(uint256)":"2e17de78","usdtToken()":"a98ad46c","users(address)":"a87430ba","withdrawAdminPool(address,uint256)":"2808bc8d","withdrawBtcPool(uint256)":"b58e0278","withdrawReservePool(address,uint256)":"ec50324a","withdrawUsdt(uint256)":"d3635a02"}}}}}