{"contracts/MvaultContract.sol":{"MvaultContract":{"abi":[{"inputs":[{"internalType":"address","name":"_usdt","type":"address"},{"internalType":"address","name":"_mvaultToken","type":"address"}],"stateMutability":"nonpayable","type":"constructor"},{"inputs":[],"name":"AlreadyActive","type":"error"},{"inputs":[],"name":"AlreadyRegistered","type":"error"},{"inputs":[],"name":"BinaryAlreadyDistributed","type":"error"},{"inputs":[],"name":"BinaryNotDistributed","type":"error"},{"inputs":[],"name":"InsufficientBtcPool","type":"error"},{"inputs":[],"name":"InsufficientRebirthPool","type":"error"},{"inputs":[],"name":"InsufficientUsdtBalance","type":"error"},{"inputs":[],"name":"InsufficientVirtualBalance","type":"error"},{"inputs":[],"name":"InvalidSponsor","type":"error"},{"inputs":[],"name":"NoOpenBinarySlot","type":"error"},{"inputs":[],"name":"NotRegistered","type":"error"},{"inputs":[{"internalType":"address","name":"owner","type":"address"}],"name":"OwnableInvalidOwner","type":"error"},{"inputs":[{"internalType":"address","name":"account","type":"address"}],"name":"OwnableUnauthorizedAccount","type":"error"},{"inputs":[],"name":"PositionTaken","type":"error"},{"inputs":[],"name":"ReentrancyGuardReentrantCall","type":"error"},{"inputs":[],"name":"TransferFailed","type":"error"},{"inputs":[],"name":"ZeroAddress","type":"error"},{"inputs":[],"name":"ZeroAmount","type":"error"},{"anonymous":false,"inputs":[{"indexed":true,"internalType":"address","name":"user","type":"address"},{"indexed":false,"internalType":"uint256","name":"mvtMinted","type":"uint256"},{"indexed":false,"internalType":"uint256","name":"grossMvt","type":"uint256"},{"indexed":false,"internalType":"uint256","name":"levelAmt","type":"uint256"},{"indexed":false,"internalType":"uint256","name":"binaryAmt","type":"uint256"},{"indexed":false,"internalType":"uint256","name":"reserveAmt","type":"uint256"}],"name":"Activated","type":"event"},{"anonymous":false,"inputs":[{"indexed":true,"internalType":"address","name":"to","type":"address"},{"indexed":false,"internalType":"uint256","name":"amount","type":"uint256"}],"name":"AdminWithdraw","type":"event"},{"anonymous":false,"inputs":[{"indexed":false,"internalType":"uint256","name":"totalPool","type":"uint256"},{"indexed":false,"internalType":"uint256","name":"binary70","type":"uint256"},{"indexed":false,"internalType":"uint256","name":"powerLeg30","type":"uint256"},{"indexed":false,"internalType":"uint256","name":"totalPairs","type":"uint256"}],"name":"BinaryIncomeDistributed","type":"event"},{"anonymous":false,"inputs":[{"indexed":true,"internalType":"address","name":"user","type":"address"},{"indexed":false,"internalType":"uint256","name":"amount","type":"uint256"}],"name":"BtcPoolCredited","type":"event"},{"anonymous":false,"inputs":[{"indexed":true,"internalType":"address","name":"user","type":"address"},{"indexed":false,"internalType":"uint256","name":"amount","type":"uint256"}],"name":"BtcPoolWithdrawn","type":"event"},{"anonymous":false,"inputs":[{"indexed":true,"internalType":"address","name":"to","type":"address"},{"indexed":true,"internalType":"address","name":"from","type":"address"},{"indexed":false,"internalType":"uint8","name":"level","type":"uint8"},{"indexed":false,"internalType":"uint256","name":"amount","type":"uint256"}],"name":"LevelIncomePaid","type":"event"},{"anonymous":false,"inputs":[{"indexed":true,"internalType":"address","name":"upline","type":"address"},{"indexed":false,"internalType":"uint8","name":"level","type":"uint8"},{"indexed":false,"internalType":"uint256","name":"amount","type":"uint256"}],"name":"LevelIncomeSkipped","type":"event"},{"anonymous":false,"inputs":[{"indexed":false,"internalType":"address","name":"newToken","type":"address"}],"name":"MvaultTokenUpdated","type":"event"},{"anonymous":false,"inputs":[{"indexed":true,"internalType":"address","name":"user","type":"address"},{"indexed":false,"internalType":"uint256","name":"mvtAmount","type":"uint256"},{"indexed":false,"internalType":"uint256","name":"usdtNet","type":"uint256"},{"indexed":false,"internalType":"uint256","name":"usdtToBtcPool","type":"uint256"},{"indexed":false,"internalType":"uint256","name":"usdtToIncome","type":"uint256"},{"indexed":false,"internalType":"uint256","name":"usdtToRebirth","type":"uint256"}],"name":"MvtSold","type":"event"},{"anonymous":false,"inputs":[{"indexed":true,"internalType":"address","name":"previousOwner","type":"address"},{"indexed":true,"internalType":"address","name":"newOwner","type":"address"}],"name":"OwnershipTransferred","type":"event"},{"anonymous":false,"inputs":[{"indexed":false,"internalType":"uint256","name":"totalPowerLeg30","type":"uint256"},{"indexed":false,"internalType":"uint256","name":"totalPowerLegs","type":"uint256"}],"name":"PowerLegDistributed","type":"event"},{"anonymous":false,"inputs":[{"indexed":true,"internalType":"address","name":"mainAccount","type":"address"},{"indexed":true,"internalType":"address","name":"subAccount","type":"address"},{"indexed":false,"internalType":"uint256","name":"rebirthIndex","type":"uint256"}],"name":"Reborn","type":"event"},{"anonymous":false,"inputs":[{"indexed":true,"internalType":"address","name":"user","type":"address"},{"indexed":true,"internalType":"address","name":"sponsor","type":"address"},{"indexed":true,"internalType":"address","name":"binaryParent","type":"address"},{"indexed":false,"internalType":"bool","name":"placeLeft","type":"bool"}],"name":"Registered","type":"event"},{"anonymous":false,"inputs":[{"indexed":true,"internalType":"address","name":"to","type":"address"},{"indexed":false,"internalType":"uint256","name":"amount","type":"uint256"}],"name":"ReserveWithdraw","type":"event"},{"anonymous":false,"inputs":[{"indexed":true,"internalType":"address","name":"user","type":"address"},{"indexed":false,"internalType":"uint256","name":"amount","type":"uint256"}],"name":"UsdtWithdrawn","type":"event"},{"inputs":[],"name":"BINARY_ALLOC","outputs":[{"internalType":"uint256","name":"","type":"uint256"}],"stateMutability":"view","type":"function"},{"inputs":[],"name":"BTC_POOL_RATE","outputs":[{"internalType":"uint256","name":"","type":"uint256"}],"stateMutability":"view","type":"function"},{"inputs":[],"name":"INCOME_LIMIT","outputs":[{"internalType":"uint256","name":"","type":"uint256"}],"stateMutability":"view","type":"function"},{"inputs":[],"name":"LEVEL_ALLOC","outputs":[{"internalType":"uint256","name":"","type":"uint256"}],"stateMutability":"view","type":"function"},{"inputs":[],"name":"PACKAGE_PRICE","outputs":[{"internalType":"uint256","name":"","type":"uint256"}],"stateMutability":"view","type":"function"},{"inputs":[],"name":"activate","outputs":[],"stateMutability":"nonpayable","type":"function"},{"inputs":[],"name":"adminPool","outputs":[{"internalType":"uint256","name":"","type":"uint256"}],"stateMutability":"view","type":"function"},{"inputs":[{"internalType":"uint256","name":"","type":"uint256"}],"name":"allUsers","outputs":[{"internalType":"address","name":"","type":"address"}],"stateMutability":"view","type":"function"},{"inputs":[],"name":"binaryPool","outputs":[{"internalType":"uint256","name":"","type":"uint256"}],"stateMutability":"view","type":"function"},{"inputs":[{"internalType":"address","name":"user","type":"address"}],"name":"canRebirth","outputs":[{"internalType":"bool","name":"eligible","type":"bool"},{"internalType":"uint256","name":"poolBalance","type":"uint256"}],"stateMutability":"view","type":"function"},{"inputs":[{"internalType":"uint256","name":"offset","type":"uint256"},{"internalType":"uint256","name":"limit","type":"uint256"}],"name":"distributeBinaryIncome","outputs":[],"stateMutability":"nonpayable","type":"function"},{"inputs":[{"internalType":"uint256","name":"offset","type":"uint256"},{"internalType":"uint256","name":"limit","type":"uint256"}],"name":"distributePowerLeg","outputs":[],"stateMutability":"nonpayable","type":"function"},{"inputs":[],"name":"getAllUsersCount","outputs":[{"internalType":"uint256","name":"","type":"uint256"}],"stateMutability":"view","type":"function"},{"inputs":[{"internalType":"address","name":"u","type":"address"}],"name":"getBtcPoolInfo","outputs":[{"internalType":"uint256","name":"btcPoolBalance","type":"uint256"},{"internalType":"uint256","name":"totalBtcEarned","type":"uint256"}],"stateMutability":"view","type":"function"},{"inputs":[{"internalType":"address","name":"u","type":"address"}],"name":"getCurrentBinaryPairs","outputs":[{"internalType":"uint256","name":"currentPairs","type":"uint256"},{"internalType":"uint256","name":"newPairs","type":"uint256"}],"stateMutability":"view","type":"function"},{"inputs":[],"name":"getMvtContractBalance","outputs":[{"internalType":"uint256","name":"","type":"uint256"}],"stateMutability":"view","type":"function"},{"inputs":[],"name":"getMvtPrice","outputs":[{"internalType":"uint256","name":"buyPrice","type":"uint256"},{"internalType":"uint256","name":"sellPrice","type":"uint256"}],"stateMutability":"view","type":"function"},{"inputs":[],"name":"getPoolBalances","outputs":[{"internalType":"uint256","name":"binary","type":"uint256"},{"internalType":"uint256","name":"reserve","type":"uint256"},{"internalType":"uint256","name":"admin","type":"uint256"}],"stateMutability":"view","type":"function"},{"inputs":[{"internalType":"address","name":"u","type":"address"}],"name":"getUserInfo","outputs":[{"internalType":"bool","name":"isRegistered","type":"bool"},{"internalType":"bool","name":"isActive","type":"bool"},{"internalType":"address","name":"sponsor","type":"address"},{"internalType":"uint256","name":"directCount","type":"uint256"},{"internalType":"address","name":"binaryParent","type":"address"},{"internalType":"bool","name":"placedLeft","type":"bool"},{"internalType":"address","name":"leftChild","type":"address"},{"internalType":"address","name":"rightChild","type":"address"},{"internalType":"uint256","name":"leftSubUsers","type":"uint256"},{"internalType":"uint256","name":"rightSubUsers","type":"uint256"},{"internalType":"uint256","name":"mvtBalance","type":"uint256"},{"internalType":"uint256","name":"totalReceived","type":"uint256"},{"internalType":"uint256","name":"totalSold","type":"uint256"},{"internalType":"uint256","name":"incomeLimit","type":"uint256"},{"internalType":"uint256","name":"usdtBalance","type":"uint256"},{"internalType":"uint256","name":"rebirthPool","type":"uint256"},{"internalType":"uint256","name":"btcPoolBalance","type":"uint256"},{"internalType":"uint256","name":"powerLegPoints","type":"uint256"},{"internalType":"uint256","name":"matchedPairs","type":"uint256"},{"internalType":"address","name":"mainAccount","type":"address"},{"internalType":"uint256","name":"rebirthCount","type":"uint256"},{"internalType":"uint256","name":"joinedAt","type":"uint256"}],"stateMutability":"view","type":"function"},{"inputs":[],"name":"mvaultToken","outputs":[{"internalType":"contract IMvaultToken","name":"","type":"address"}],"stateMutability":"view","type":"function"},{"inputs":[],"name":"owner","outputs":[{"internalType":"address","name":"","type":"address"}],"stateMutability":"view","type":"function"},{"inputs":[{"internalType":"address","name":"subAccount","type":"address"},{"internalType":"bool","name":"placeLeft","type":"bool"}],"name":"rebirth","outputs":[],"stateMutability":"nonpayable","type":"function"},{"inputs":[{"internalType":"address","name":"sponsor","type":"address"},{"internalType":"address","name":"binaryParent","type":"address"},{"internalType":"bool","name":"placeLeft","type":"bool"}],"name":"register","outputs":[],"stateMutability":"nonpayable","type":"function"},{"inputs":[],"name":"renounceOwnership","outputs":[],"stateMutability":"nonpayable","type":"function"},{"inputs":[],"name":"reservePool","outputs":[{"internalType":"uint256","name":"","type":"uint256"}],"stateMutability":"view","type":"function"},{"inputs":[{"internalType":"uint256","name":"amount","type":"uint256"}],"name":"sellMvt","outputs":[],"stateMutability":"nonpayable","type":"function"},{"inputs":[{"internalType":"address","name":"_mvaultToken","type":"address"}],"name":"setMvaultToken","outputs":[],"stateMutability":"nonpayable","type":"function"},{"inputs":[],"name":"totalUsers","outputs":[{"internalType":"uint256","name":"","type":"uint256"}],"stateMutability":"view","type":"function"},{"inputs":[{"internalType":"address","name":"newOwner","type":"address"}],"name":"transferOwnership","outputs":[],"stateMutability":"nonpayable","type":"function"},{"inputs":[],"name":"usdtToken","outputs":[{"internalType":"contract IERC20","name":"","type":"address"}],"stateMutability":"view","type":"function"},{"inputs":[{"internalType":"address","name":"","type":"address"}],"name":"users","outputs":[{"internalType":"bool","name":"isRegistered","type":"bool"},{"internalType":"bool","name":"isActive","type":"bool"},{"internalType":"address","name":"sponsor","type":"address"},{"internalType":"uint256","name":"directCount","type":"uint256"},{"internalType":"address","name":"binaryParent","type":"address"},{"internalType":"bool","name":"placedLeft","type":"bool"},{"internalType":"address","name":"leftChild","type":"address"},{"internalType":"address","name":"rightChild","type":"address"},{"internalType":"uint256","name":"leftSubUsers","type":"uint256"},{"internalType":"uint256","name":"rightSubUsers","type":"uint256"},{"internalType":"uint256","name":"matchedPairs","type":"uint256"},{"internalType":"uint256","name":"mvtBalance","type":"uint256"},{"internalType":"uint256","name":"totalReceived","type":"uint256"},{"internalType":"uint256","name":"totalSold","type":"uint256"},{"internalType":"uint256","name":"incomeLimit","type":"uint256"},{"internalType":"uint256","name":"usdtBalance","type":"uint256"},{"internalType":"uint256","name":"rebirthPool","type":"uint256"},{"internalType":"uint256","name":"totalUsdtEarned","type":"uint256"},{"internalType":"uint256","name":"btcPoolBalance","type":"uint256"},{"internalType":"uint256","name":"totalBtcEarned","type":"uint256"},{"internalType":"uint256","name":"powerLegPoints","type":"uint256"},{"internalType":"address","name":"mainAccount","type":"address"},{"internalType":"uint256","name":"rebirthCount","type":"uint256"},{"internalType":"uint256","name":"joinedAt","type":"uint256"}],"stateMutability":"view","type":"function"},{"inputs":[{"internalType":"address","name":"to","type":"address"},{"internalType":"uint256","name":"amount","type":"uint256"}],"name":"withdrawAdminPool","outputs":[],"stateMutability":"nonpayable","type":"function"},{"inputs":[{"internalType":"uint256","name":"amount","type":"uint256"}],"name":"withdrawBtcPool","outputs":[],"stateMutability":"nonpayable","type":"function"},{"inputs":[{"internalType":"address","name":"to","type":"address"},{"internalType":"uint256","name":"amount","type":"uint256"}],"name":"withdrawReservePool","outputs":[],"stateMutability":"nonpayable","type":"function"},{"inputs":[{"internalType":"uint256","name":"amount","type":"uint256"}],"name":"withdrawUsdt","outputs":[],"stateMutability":"nonpayable","type":"function"}],"evm":{"bytecode":{"linkReferences":{},"object":"60a0346200016057601f62002ddb38819003918201601f19168301916001600160401b038311848410176200016557808492604094855283398101031262000160576200005a602062000052836200017b565b92016200017b565b90331562000147576000549160018060a01b03199233848216176000556040519060018060a01b03938491823391167f8be0079c531659141344cd1fd0a4f28419497f9722a3daafe3b4186f6b6457e0600080a360017f9b779b17422d0df92223018b32b4d1fa46e071723d6817e2486d003becc55f00551690811580156200013c575b6200012d575060805216906001541617600155604051612c4a908162000191823960805181818161044d0152818161067501528181610a720152818161162c01528181611b3c0152611f1f0152f35b63d92e233d60e01b8152600490fd5b5083831615620000de565b604051631e4fbdf760e01b815260006004820152602490fd5b600080fd5b634e487b7160e01b600052604160045260246000fd5b51906001600160a01b0382168203620001605756fe6102608060405260048036101561001557600080fd5b600091823560e01c9081630266f04414611c2b57508063039ccc2614611c0757806303c3ecb714611bc15780630f15f4c014611ad35780631ce5e89414611a5f5780631f6259d514611a365780632808bc8d146119715780632d641f081461193457806338abfc411461191657806344e374d5146118fa57806352375bb1146118cb578063634f627e146115a75780636386c1c7146113de57806368ddb2b5146112ff578063715018a6146112b7578063775378441461129b5780637f1b40641461127d5780638a8f04291461105e5780638da5cb5b1461103757806392446e301461101b57806394915dd014610cde578063a2bdedf414610c9c578063a87430ba14610aa1578063a98ad46c14610a5c578063aa33f5d514610746578063aa39375714610722578063b58e02781461060c578063b86a1fb2146105ee578063bff1f9e1146105d1578063ce8292f514610537578063d3635a02146103e4578063e51cb53014610396578063ec50324a14610299578063f24c536a1461021d5763f2fde38b146101a457600080fd5b34610219576020366003190112610219576101bd611c47565b6101c5611ca4565b6001600160a01b0390811691821561020157506000548260018060a01b031982161760005516600080516020612bb5833981519152600080a380f35b604051631e4fbdf760e01b8152908101849052602490fd5b5080fd5b8234610296576020366003190112610296576040906001600160a01b03610242611c47565b16815260026020528181209060076005830154600684015480821060001461028e5750925b0154808311156102885761027c915082611e75565b82519182526020820152f35b5061027c565b905092610267565b80fd5b5034610219576040366003190112610219576102b3611c47565b602435906102bf611ca4565b6001600160a01b0316918215610387576006549082821061034c5750816103097f0529afc4538720fe0b3eadc40486369ab962002d72fead1387b300c66073e7bf93602093611e75565b6006558385526002825260086040862001610325828254611e82565b90558385526002825260096040862001610340828254611e82565b9055604051908152a280f35b60649060206040519162461bcd60e51b83528201526014602482015273115e18d959591cc81c995cd95c9d99481c1bdbdb60621b6044820152fd5b60405163d92e233d60e01b8152fd5b823461029657602036600319011261029657604090600d9082906001600160a01b036103c0611c47565b168152600260205220015481519068070c1cc73b00c8000081101582526020820152f35b50346102195760208060031936011261053357813591610402611df7565b82156105245733845260028252600c60408520018054848110610513578461042991611e75565b905560405163a9059cbb60e01b81528281806104488733878401611e5a565b0381887f00000000000000000000000000000000000000000000000000000000000000006001600160a01b03165af19081156105085785916104db575b50156104cc57507fbdd3f02d2a57fb53c1156f98470b61cb60712d485c27c36a49b1263dabcde201906040519283523392a26001600080516020612bf58339815191525580f35b6040516312171d8360e31b8152fd5b6104fb9150833d8511610501575b6104f38183611dbc565b810190611ddf565b38610485565b503d6104e9565b6040513d87823e3d90fd5b60405163b55c1bad60e01b81528390fd5b604051631f2a200560e01b8152fd5b8280fd5b5090346102965780600319360112610296576001546040516370a0823160e01b81523093810193909352602090839060249082906001600160a01b03165afa9081156105c5579061058e575b602090604051908152f35b506020813d82116105bd575b816105a760209383611dbc565b810103126105b85760209051610583565b600080fd5b3d915061059a565b604051903d90823e3d90fd5b503461021957816003193601126102195760209054604051908152f35b82346102965780600319360112610296576020600754604051908152f35b5034610219576020806003193601126105335781359161062a611df7565b82156105245733845260028252600f60408520018054848110610711578461065191611e75565b905560405163a9059cbb60e01b81528281806106708733878401611e5a565b0381887f00000000000000000000000000000000000000000000000000000000000000006001600160a01b03165af19081156105085785916106f4575b50156104cc57507f12701e4764b73009ab9826933c421483e4280410091fcc760515e0fa99fa766b906040519283523392a26001600080516020612bf58339815191525580f35b61070b9150833d8511610501576104f38183611dbc565b386106ad565b604051636dae861760e11b81528390fd5b823461029657806003193601126102965760206040516815245655b1025800008152f35b503461021957606036600319011261021957610760611c47565b6024356001600160a01b038181169391928484036105b8576044359283158015948581036105b85733895260029160209783895260ff60408c205416610a4b57845461086557505033600090815282885260409020805461ff01600160b01b031916600117815591820180546001600160a81b0319169055506012810180546001600160a01b031916905542601490910155600354600160401b8110156108505790610823826001600080516020612b9583398151915296959401600355611c73565b81549060031b908533831b921b191617905561083f8154611cd0565b90555b60405193845216923392a480f35b604182634e487b7160e01b6000525260246000fd5b868695939b9a99989796168a5283885260ff60408b20541615610a3a5788151580610a26575b15610a1e57905b8a80610a04575b6109f357806109da575b6109ca5733600090815283885260409020805461ff01600160b01b031916601086901b62010000600160b01b031617600117815580840180546001600160a81b03191692871692831760a089901b60ff60a01b161790556012810180546001600160a01b0319908116909155426014909201919091556003549a909290600160401b8c10156108505761094f8c6001600080516020612b958339815191529a9b9c9d9e01600355611c73565b81549060031b908933831b921b191617905561096b8254611cd0565b8255156109b157508952818752600360408a20019033908254161790555b82821688528552600160408820016109a18154611cd0565b90556109ac33611cf5565b610842565b908a5282885260408a2001903390825416179055610989565b5060405163d5dd5c3d60e01b8152fd5b508481168952828752848260408b2001541615156108a3565b60405163d5dd5c3d60e01b81528390fd5b508582168a5283885285600360408c200154161515610899565b508390610892565b50888a5283885260ff60408b20541661088b565b604051632f212e0d60e11b81528390fd5b604051630ea075bf60e21b81528590fd5b82346102965780600319360112610296576040517f00000000000000000000000000000000000000000000000000000000000000006001600160a01b03168152602090f35b509034610296576020366003190112610296576040906001600160a01b03610ac7611c47565b16815260026020522080808080808080808080809b8161014052816014600f600e600d600c600b600a600960086007600660058c549c600181015460c05260028101546101805260018060a01b036003820154169e60018060a01b03910154169e01549e01549e01549e01549e01549e01549e01549e01549e01549e01549e01549e60108101546102005260118101546102405260018060a01b0360128201541660e05260138101546101a052015461010052604051806102205260ff82161515905260ff8160081c161515602061022051015260018060a01b039060101c16604061022051015260c051606061022051015260018060a01b036101805116608061022051015260ff6101805160a01c16151560a061022051015260c061022051015260e06102205101526101006102205101526101206102205101526101406102205101526101606102205101526101806102205101526101a06102205101526101c06102205101526101e061022051015261020061022051015261022080510152610240610220510152610200516102606102205101526102405161028061022051015260e0516102a06102205101526101a0516102c0610220510152610100516102e061022051015261030061022051f35b5034610219576020366003190112610219573590600354821015610296576020610cc583611c73565b905460405160039290921b1c6001600160a01b03168152f35b503461021957604036600319011261021957610cf8611c47565b906024359182151583036105b857610d0e611df7565b6001600160a01b0381811693909190841561100a57338652600290602094828652604088209485549160ff8360081c1615610fd957600d870180549068070c1cc73b00c80000808310610fc8578b8d52878b5260408d205460ff16610f845768070c1cc73b00c7ffff198301928311610f7157808310610f6657610d93908093611e75565b9055600c8801610da4828254611e82565b9055610db5600e8901918254611e82565b90556815245655b102580000600b880155610dd6828460101c169433612619565b60008b8152878b5260409020805461ff01600160b01b03191662010000600160b01b0390961695909517600117855584870180546001600160a81b03191692851692831782151560a01b60ff60a01b161790556012850180546001600160a01b031990811633179091554260149096019590955560035491939091600160401b811015610f5157610eee969360139996937f30016ed357540281a6cff6143637e72b48e105d85d15df66b0aaffbd237902409b999693610e9d8f9460018101600355611c73565b819291549060031b9186831b921b1916179055610eba8254611cd0565b825515610f395750508b5282895289600360408d2001918254161790555b80610f1b575b5050610ee981611cf5565b611eb3565b0191610efa8354611cd0565b8093556040519283523392a36001600080516020612bf58339815191525580f35b8952865260016040892001610f308154611cd0565b90553880610ede565b90918d52848b5260408d200191825416179055610ed8565b604184634e487b7160e01b6000525260246000fd5b50610d938280611e75565b634e487b7160e01b8d526011845260248dfd5b60405162461bcd60e51b81528085018c9052601e60248201527f5375622d6163636f756e7420616c7265616479207265676973746572656400006044820152606490fd5b6040516307db32bd60e31b81528490fd5b60405162461bcd60e51b8152908101889052600a6024820152694e6f742061637469766560b01b6044820152606490fd5b60405163d92e233d60e01b81528490fd5b82346102965780600319360112610296576020604051600a8152f35b8234610296578060031936011261029657546040516001600160a01b039091168152602090f35b50346102195761106d36611c5d565b611078929192611ca4565b611080611df7565b60099160ff8354161561126e57506110989083611e82565b9060038054808411611266575b508492845b81811061122657506008918254958515158061121d575b1561120457805b83811061116f575090879392915b82811061112f57847f7f4a5b69bea14a6fc05326671a02e90d4a88855c83a18529c260057b1bf61a8560408a8a8a858a5560ff19815416905582519182526020820152a16001600080516020612bf58339815191525580f35b611165919293945061114081611c73565b905490841b1c6001600160a01b03168952600260205260408920601101899055611cd0565b90879392916110d6565b808961117d6111f293611c73565b905490861b1c6001600160a01b0316808252600260208181526040842060110154919290918a908e908e81156111f7576111bc6111c192604094611e27565b611e3a565b9583815285855220016111d5858254611e82565b90558d52526111eb8860408d2001918254611e82565b9055611cd0565b6110c8565b5050505050505050611cd0565b61121087600754611e82565b60075590879392916110d6565b508615156110c1565b9361125b6112619161123787611c73565b905490861b1c6001600160a01b031689526002602052604089206011015490611e82565b94611cd0565b6110aa565b9250386110a5565b60405163418826bf60e11b8152fd5b82346102965780600319360112610296576020600554604051908152f35b8234610296578060031936011261029657602060405160288152f35b82346102965780600319360112610296576112d0611ca4565b600080546001600160a01b0319811682556001600160a01b0316600080516020612bb58339815191528280a380f35b509034610296578060031936011261029657600154604051623144bd60e31b815291906020906001600160a01b031681848681845afa9384156113d35783946113a4575b508190604051958680926310f4cba760e21b82525afa9182156105c55791611374575b604080945051928352820152f35b80915083813d831161139d575b61138b8183611dbc565b810103126105b8576040925190611366565b503d611381565b9093508181813d83116113cc575b6113bc8183611dbc565b810103126105b857519281611343565b503d6113b2565b6040513d85823e3d90fd5b509034610296576020366003190112610296576040906001600160a01b03611404611c47565b16815260026020522080808080808080808080809b81601460076011600f600d600c600b600a60096008600660058c549c600181015461012052600281015460a05260018060a01b036003820154169e60018060a01b03910154169e01549e01549e01549e01549e01549e01549e01549e01549e01549e01549e01549e60018060a01b036012820154166101c0526013810154608052015461016052604051806101e05260ff82161515905260ff8160081c16151560206101e051015260018060a01b039060101c1660406101e05101526101205160606101e051015260018060a01b0360a0511660806101e051015260ff60a05160a01c16151560a06101e051015260c06101e051015260e06101e05101526101006101e05101526101206101e05101526101406101e05101526101606101e05101526101806101e05101526101a06101e05101526101c06101e05101526101e0805101526102006101e05101526102206101e05101526102406101e05101526101c0516102606101e05101526080516102806101e0510152610160516102a06101e05101526102c06101e051f35b50903461029657602080600319360112610219578235906115c6611df7565b81156118ba5733835260028152604083209060ff825460081c16156118a95760088201805484811061189857846115fc91611e75565b9055600a820161160d848254611e82565b90556040516370a0823160e01b80825230878301526001600160a01b037f000000000000000000000000000000000000000000000000000000000000000081169291908483602481875afa92831561185a578893611869575b5060015416803b1561186557878760248b8360405195869485936372424d9960e11b85528401525af1801561185a57611847575b5083906024604051809581938252308c8301525afa801561183c57869061180d575b6116c69250611e75565b91600a8302838104600a14841517156117fa577f8f7262d5a031d4d671e1fdb0cddcd26d37185226f9e82f2f18877141ac1963eb93929161170e60646117cf93048095611e75565b92600f820161171e868254611e82565b90556010820161172f868254611e82565b90557f2b1d2104e84dd4dabb0cca024171f783ab1e1c9dc1af9d60a2361596653a99c4604051918683523392a2600b81018054918883156117ed5750600d90838611156117e757835b809361179f82611788818b611e75565b97600c8601611798838254611e82565b9055611e75565b90556117b0600e8301918254611e82565b90555b016117bf838254611e82565b9055604051948594339886611e8f565b0390a26001600080516020612bf58339815191525580f35b85611778565b91509150600d84926117b3565b634e487b7160e01b865260118752602486fd5b508282813d8311611835575b6118238183611dbc565b810103126105b8576116c691516116bc565b503d611819565b6040513d88823e3d90fd5b96611853859298611d93565b969061169a565b6040513d8a823e3d90fd5b8780fd5b9092508481813d8311611891575b6118818183611dbc565b8101031261186557519138611666565b503d611877565b60405163208975e760e21b81528790fd5b60405163aba4733960e01b81528590fd5b604051631f2a200560e01b81528490fd5b823461029657806003193601126102965760606005546006546007549060405192835260208301526040820152f35b82346102965780600319360112610296576020604051601e8152f35b82346102965780600319360112610296576020600354604051908152f35b82346102965761195c61194636611c5d565b9061194f611ca4565b611957611df7565b612876565b6001600080516020612bf58339815191525580f35b50346102195760403660031901126102195761198b611c47565b60243590611997611ca4565b6001600160a01b031691821561038757600754908282106119fd5750816119e17fba443e8671971c36cdeb74f87321041daff421230cbc5e36cb835269ed1d8b7e93602093611e75565b6007558385526002825260086040862001610325828254611e82565b60649060206040519162461bcd60e51b83528201526012602482015271115e18d959591cc818591b5a5b881c1bdbdb60721b6044820152fd5b82346102965780600319360112610296576001546040516001600160a01b039091168152602090f35b503461021957602036600319011261021957611a79611c47565b611a81611ca4565b6001600160a01b03169081156103875750600180546001600160a01b031916821790556040519081527ffa7bd61554593f4e69cdffd255d3fe947352b02c7d3ec68059384934e4cfd47c90602090a180f35b5034610219578160031936011261021957611aec611df7565b3382526002602052604082205460ff811615611bb15760081c60ff16611ba2576040516323b872dd60e01b8152338282015230602482015268070c1cc73b00c800006044820152602081606481867f00000000000000000000000000000000000000000000000000000000000000006001600160a01b03165af19081156113d3578391611b84575b50156104cc575061195c33611eb3565b611b9c915060203d8111610501576104f38183611dbc565b38611b74565b604051637cdf305160e11b8152fd5b5060405163aba4733960e01b8152fd5b82346102965760203660031901126102965760409081906001600160a01b03611be8611c47565b1681526002602052206010600f82015491015482519182526020820152f35b8234610296578060031936011261029657602060405168070c1cc73b00c800008152f35b8390346102195781600319360112610219576020906006548152f35b600435906001600160a01b03821682036105b857565b60409060031901126105b8576004359060243590565b600354811015611c8e57600360005260206000200190600090565b634e487b7160e01b600052603260045260246000fd5b6000546001600160a01b03163303611cb857565b60405163118cdaa760e01b8152336004820152602490fd5b6000198114611cdf5760010190565b634e487b7160e01b600052601160045260246000fd5b6001600160a01b039081166000908152600260208181526040808420830154949560a09560ff959293919080881c871690899081165b16908115611d875715611d6a57808452858352600585852001611d4e8154611cd0565b90555b8352848252848484200154888088838b1c169216611d2b565b808452858352600685852001611d808154611cd0565b9055611d51565b50509650505050505050565b6001600160401b038111611da657604052565b634e487b7160e01b600052604160045260246000fd5b601f909101601f19168101906001600160401b03821190821017611da657604052565b908160209103126105b8575180151581036105b85790565b600080516020612bf58339815191526002815414611e155760029055565b604051633ee5aeb560e01b8152600490fd5b81810292918115918404141715611cdf57565b8115611e44570490565b634e487b7160e01b600052601260045260246000fd5b6001600160a01b039091168152602081019190915260400190565b91908203918211611cdf57565b91908201809211611cdf57565b9192608093969594919660a084019784526020840152604083015260608201520152565b600154604051623144bd60e31b81529260009290916001600160a01b0316602085600481845afa948515612468578495612430575b50841561241c5760405163095ea7b360e01b8152600481019190915268070c1cc73b00c800006024820181905290602081604481887f00000000000000000000000000000000000000000000000000000000000000006001600160a01b03165af18015610508576123fd575b506001546040516370a0823160e01b8082523060048301529290916001600160a01b031690602083602481855afa9283156123f25787936123be575b50813b156123ba578691604483926040519485938492634e538d9360e11b845230600485015260248401525af1801561183c576123a7575b50600154604051928352306004840152602090839060249082906001600160a01b03165afa8015610508578590612373575b6120049250611e75565b936b030e68b6d6e0acc82863363160251b8190048015936028828102939284041485171561235f576b030e68b6d6e0acc82863363160251b829004601e8181029691870414171561235f576120796064860461207460648604856b030e68b6d6e0acc82863363160251b04611e75565b611e75565b9461208960648204600554611e82565b60055561209886600654611e82565b6006556001600160a01b038581168852600260205260408820805461ff001916610100178082556815245655b102580000600b9092019190915560019789969092909160101c165b600f60ff8a1611158061234d575b156122ba5761210f896b030e68b6d6e0acc82863363160251b889004612488565b968715612294578761212091611e82565b9660018060a01b0382168b5260026020528960408c2060ff815460081c16908161227d575b501561222657506001600160a01b0382168b52600260205260408b206008018054612171908390611e82565b90556001600160a01b0382168b52600260205260408b206009018054612198908390611e82565b90556040516001600160a01b03808b1692908416917fb16479bdac5b7099d9236d6fc6be3b30ff54188f4fd961686e1e1dc7ecb880379181906121dc908f83612473565b0390a35b6001600160a01b039081168a52600260205260408a205460101c16975b60ff80911690811461221257600101976120e0565b634e487b7160e01b8a52601160045260248afd5b906122757f117ca0cd821ecb7eadfea2d6927a67853908bdc351a386235215f5ab6071bfed916007612259828254611e82565b90556040516001600160a01b0386169490928392909183612473565b0390a26121e0565b60019150015461228c826125bb565b111538612145565b6001600160a01b039182168b52600260205260408b205460101c909116989096506121fd565b5091975091977f8af2c013a5a55c6d3ad5423522fe76c6f2eb831b5e23318276b3c678cb457fc99650926123289360649695808885041161232d575b506040516001600160a01b0390961698959687968190049304916b030e68b6d6e0acc82863363160251b049086611e8f565b0390a2565b61233c61234491898604611e75565b600754611e82565b600755386122f6565b506001600160a01b03811615156120ee565b634e487b7160e01b86526011600452602486fd5b506020823d60201161239f575b8161238d60209383611dbc565b810103126105b8576120049151611ffa565b3d9150612380565b6123b390959195611d93565b9338611fc8565b8680fd5b9092506020813d6020116123ea575b816123da60209383611dbc565b810103126123ba57519138611f90565b3d91506123cd565b6040513d89823e3d90fd5b6124159060203d602011610501576104f38183611dbc565b5038611f54565b634e487b7160e01b84526012600452602484fd5b9094506020813d602011612460575b8161244c60209383611dbc565b8101031261245c57519338611ee8565b8380fd5b3d915061243f565b6040513d86823e3d90fd5b6020909392919360ff60408201951681520152565b9060ff16600181146125a05760028114612585576003811461256a5760049081811461254e5760058114612532576006811461251b576007811461251b576008811015908161250f575b506124de575050600090565b6005820291808304600514901517156124fa57506103e8900490565b601190634e487b7160e01b6000525260246000fd5b600f91501115386124d2565b50818004600114821517156124fa57506064900490565b508160011b91808304600214901517156124fa57506064900490565b506003820291808304600314901517156124fa57506064900490565b508060021b9080820460041490151715611cdf576064900490565b50600581029080820460051490151715611cdf576064900490565b50601481029080820460141490151715611cdf576064900490565b60ff1660018111156125e85760048111156125e257600710156125dd57600a90565b600590565b50600290565b50600090565b6001600160401b038111611da65760051b60200190565b8051821015611c8e5760209160051b010190565b90918280612851575b612849578215918280612824575b6126e157600493845493600180860180961161280f5761264f866125ee565b9061266a60409761266289519485611dbc565b8084526125ee565b9260209283810194601f190136863760008087156127f1576001600160a01b038981168352600287528b83206003015416965b6001600160a01b03978816806127c8575b50505b81811061272b5750505080612710575b6127055750826126e9575b50506126e15750505163c5bb5bcd60e01b8152fd5b925060009150565b81600292935084166000525284846000200154161538806126cc565b939650929450505050565b508285166000526002825282600388600020015416156126c1565b8661273f61273883611cd0565b9285612605565b5116806000526002908188528c600020896003820154169081156127b5578f01548a16156127a25761277a61277386611cd0565b9587612605565b526000528652868c8c60002001541661279c61279584611cd0565b9385612605565b526126b1565b509c5060009b5050505050505050505050565b50909d50959b5050505050505050505050565b90925085928451156127dc575238806126ae565b60328e634e487b7160e01b6000525260246000fd5b6001600160a01b038981168352600287528b83208d0154169661269d565b601187634e487b7160e01b6000525260246000fd5b506001600160a01b038181166000908152600260205260409020600401541615612630565b915090600190565b506001600160a01b038281166000908152600260205260409020600301541615612622565b60ff600981815416612b83576005908154948515612b4a576000938484556046870287810460460361235f5760649004936128b18589611e75565b956128c160089488865589611e82565b9360038054808711612b42575b508299805b878110612aaf57508a15612a64575b86811061292957505050505050509160809391600080516020612bd58339815191529593600160ff19825416179055604051938452602084015260408301526060820152a1565b8a86868b8b61293786611c73565b60018060a01b03915490891b1c16808a52600292896020938585528c604097888220998a54851c1615612a505789015460068a015480821015612a485750995b6007998a0154808c1115612a405761298f908c611e75565b945b8515612a2b57916129ab8a926111bc886129d39796611e27565b94878252898952828220016129c1868254611e82565b90558681528888522001918254611e82565b9055600a80820291820403612a17579084939291612a046011612a129a9998978e8581528787522001918254611e82565b90558a525287200155611cd0565b6128e2565b634e487b7160e01b8b52601160045260248bfd5b505050505050505050505050612a1290611cd0565b508194612991565b905099612977565b5050505050505050505050612a1290611cd0565b505093509460809750859450612a91925061233c915095600080516020612bd58339815191529896611e82565b600755556040519182528060208301528060408301526060820152a1565b612ab881611c73565b905490841b1c6001600160a01b031685526002602052604085208054851c881615612b38576007878201546006830154808210600014612b305750915b015490818111612b10575b5050612b0b90611cd0565b6128d3565b9c612b22612b2892612b0b949f611e75565b90611e82565b9b9038612b00565b905091612af5565b50612b0b90611cd0565b9550386128ce565b60405162461bcd60e51b8152602060048201526011602482015270115b5c1d1e48189a5b985c9e481c1bdbdb607a1b6044820152606490fd5b60405162c9487960e41b8152600490fdfe34ff37874d7443037a85c6f390fe14f2ae3e8767355de0e63891ad4367c275398be0079c531659141344cd1fd0a4f28419497f9722a3daafe3b4186f6b6457e0a0ea5705200c9ffd36dc735fef1592c3234bb7e311fc1b0a444f6370d0620eae9b779b17422d0df92223018b32b4d1fa46e071723d6817e2486d003becc55f00a264697066735822122032a71cddd00438749e5445ca10420edd2ccae34db6e98b18d2d38cfc744b55f864736f6c63430008140033","opcodes":"PUSH1 0xA0 CALLVALUE PUSH3 0x160 JUMPI PUSH1 0x1F PUSH3 0x2DDB CODESIZE DUP2 SWAP1 SUB SWAP2 DUP3 ADD PUSH1 0x1F NOT AND DUP4 ADD SWAP2 PUSH1 0x1 PUSH1 0x1 PUSH1 0x40 SHL SUB DUP4 GT DUP5 DUP5 LT OR PUSH3 0x165 JUMPI DUP1 DUP5 SWAP3 PUSH1 0x40 SWAP5 DUP6 MSTORE DUP4 CODECOPY DUP2 ADD SUB SLT PUSH3 0x160 JUMPI PUSH3 0x5A PUSH1 0x20 PUSH3 0x52 DUP4 PUSH3 0x17B JUMP JUMPDEST SWAP3 ADD PUSH3 0x17B JUMP JUMPDEST SWAP1 CALLER ISZERO PUSH3 0x147 JUMPI PUSH1 0x0 SLOAD SWAP2 PUSH1 0x1 DUP1 PUSH1 0xA0 SHL SUB NOT SWAP3 CALLER DUP5 DUP3 AND OR PUSH1 0x0 SSTORE PUSH1 0x40 MLOAD SWAP1 PUSH1 0x1 DUP1 PUSH1 0xA0 SHL SUB SWAP4 DUP5 SWAP2 DUP3 CALLER SWAP2 AND PUSH32 0x8BE0079C531659141344CD1FD0A4F28419497F9722A3DAAFE3B4186F6B6457E0 PUSH1 0x0 DUP1 LOG3 PUSH1 0x1 PUSH32 0x9B779B17422D0DF92223018B32B4D1FA46E071723D6817E2486D003BECC55F00 SSTORE AND SWAP1 DUP2 ISZERO DUP1 ISZERO PUSH3 0x13C JUMPI JUMPDEST PUSH3 0x12D JUMPI POP PUSH1 0x80 MSTORE AND SWAP1 PUSH1 0x1 SLOAD AND OR PUSH1 0x1 SSTORE PUSH1 0x40 MLOAD PUSH2 0x2C4A SWAP1 DUP2 PUSH3 0x191 DUP3 CODECOPY PUSH1 0x80 MLOAD DUP2 DUP2 DUP2 PUSH2 0x44D ADD MSTORE DUP2 DUP2 PUSH2 0x675 ADD MSTORE DUP2 DUP2 PUSH2 0xA72 ADD MSTORE DUP2 DUP2 PUSH2 0x162C ADD MSTORE DUP2 DUP2 PUSH2 0x1B3C ADD MSTORE PUSH2 0x1F1F ADD MSTORE RETURN JUMPDEST PUSH4 0xD92E233D PUSH1 0xE0 SHL DUP2 MSTORE PUSH1 0x4 SWAP1 REVERT JUMPDEST POP DUP4 DUP4 AND ISZERO PUSH3 0xDE JUMP JUMPDEST PUSH1 0x40 MLOAD PUSH4 0x1E4FBDF7 PUSH1 0xE0 SHL DUP2 MSTORE PUSH1 0x0 PUSH1 0x4 DUP3 ADD MSTORE PUSH1 0x24 SWAP1 REVERT JUMPDEST PUSH1 0x0 DUP1 REVERT JUMPDEST PUSH4 0x4E487B71 PUSH1 0xE0 SHL PUSH1 0x0 MSTORE PUSH1 0x41 PUSH1 0x4 MSTORE PUSH1 0x24 PUSH1 0x0 REVERT JUMPDEST MLOAD SWAP1 PUSH1 0x1 PUSH1 0x1 PUSH1 0xA0 SHL SUB DUP3 AND DUP3 SUB PUSH3 0x160 JUMPI JUMP INVALID PUSH2 0x260 DUP1 PUSH1 0x40 MSTORE PUSH1 0x4 DUP1 CALLDATASIZE LT ISZERO PUSH2 0x15 JUMPI PUSH1 0x0 DUP1 REVERT JUMPDEST PUSH1 0x0 SWAP2 DUP3 CALLDATALOAD PUSH1 0xE0 SHR SWAP1 DUP2 PUSH4 0x266F044 EQ PUSH2 0x1C2B JUMPI POP DUP1 PUSH4 0x39CCC26 EQ PUSH2 0x1C07 JUMPI DUP1 PUSH4 0x3C3ECB7 EQ PUSH2 0x1BC1 JUMPI DUP1 PUSH4 0xF15F4C0 EQ PUSH2 0x1AD3 JUMPI DUP1 PUSH4 0x1CE5E894 EQ PUSH2 0x1A5F JUMPI DUP1 PUSH4 0x1F6259D5 EQ PUSH2 0x1A36 JUMPI DUP1 PUSH4 0x2808BC8D EQ PUSH2 0x1971 JUMPI DUP1 PUSH4 0x2D641F08 EQ PUSH2 0x1934 JUMPI DUP1 PUSH4 0x38ABFC41 EQ PUSH2 0x1916 JUMPI DUP1 PUSH4 0x44E374D5 EQ PUSH2 0x18FA JUMPI DUP1 PUSH4 0x52375BB1 EQ PUSH2 0x18CB JUMPI DUP1 PUSH4 0x634F627E EQ PUSH2 0x15A7 JUMPI DUP1 PUSH4 0x6386C1C7 EQ PUSH2 0x13DE JUMPI DUP1 PUSH4 0x68DDB2B5 EQ PUSH2 0x12FF JUMPI DUP1 PUSH4 0x715018A6 EQ PUSH2 0x12B7 JUMPI DUP1 PUSH4 0x77537844 EQ PUSH2 0x129B JUMPI DUP1 PUSH4 0x7F1B4064 EQ PUSH2 0x127D JUMPI DUP1 PUSH4 0x8A8F0429 EQ PUSH2 0x105E JUMPI DUP1 PUSH4 0x8DA5CB5B EQ PUSH2 0x1037 JUMPI DUP1 PUSH4 0x92446E30 EQ PUSH2 0x101B JUMPI DUP1 PUSH4 0x94915DD0 EQ PUSH2 0xCDE JUMPI DUP1 PUSH4 0xA2BDEDF4 EQ PUSH2 0xC9C JUMPI DUP1 PUSH4 0xA87430BA EQ PUSH2 0xAA1 JUMPI DUP1 PUSH4 0xA98AD46C EQ PUSH2 0xA5C JUMPI DUP1 PUSH4 0xAA33F5D5 EQ PUSH2 0x746 JUMPI DUP1 PUSH4 0xAA393757 EQ PUSH2 0x722 JUMPI DUP1 PUSH4 0xB58E0278 EQ PUSH2 0x60C JUMPI DUP1 PUSH4 0xB86A1FB2 EQ PUSH2 0x5EE JUMPI DUP1 PUSH4 0xBFF1F9E1 EQ PUSH2 0x5D1 JUMPI DUP1 PUSH4 0xCE8292F5 EQ PUSH2 0x537 JUMPI DUP1 PUSH4 0xD3635A02 EQ PUSH2 0x3E4 JUMPI DUP1 PUSH4 0xE51CB530 EQ PUSH2 0x396 JUMPI DUP1 PUSH4 0xEC50324A EQ PUSH2 0x299 JUMPI DUP1 PUSH4 0xF24C536A EQ PUSH2 0x21D JUMPI PUSH4 0xF2FDE38B EQ PUSH2 0x1A4 JUMPI PUSH1 0x0 DUP1 REVERT JUMPDEST CALLVALUE PUSH2 0x219 JUMPI PUSH1 0x20 CALLDATASIZE PUSH1 0x3 NOT ADD SLT PUSH2 0x219 JUMPI PUSH2 0x1BD PUSH2 0x1C47 JUMP JUMPDEST PUSH2 0x1C5 PUSH2 0x1CA4 JUMP JUMPDEST PUSH1 0x1 PUSH1 0x1 PUSH1 0xA0 SHL SUB SWAP1 DUP2 AND SWAP2 DUP3 ISZERO PUSH2 0x201 JUMPI POP PUSH1 0x0 SLOAD DUP3 PUSH1 0x1 DUP1 PUSH1 0xA0 SHL SUB NOT DUP3 AND OR PUSH1 0x0 SSTORE AND PUSH1 0x0 DUP1 MLOAD PUSH1 0x20 PUSH2 0x2BB5 DUP4 CODECOPY DUP2 MLOAD SWAP2 MSTORE PUSH1 0x0 DUP1 LOG3 DUP1 RETURN JUMPDEST PUSH1 0x40 MLOAD PUSH4 0x1E4FBDF7 PUSH1 0xE0 SHL DUP2 MSTORE SWAP1 DUP2 ADD DUP5 SWAP1 MSTORE PUSH1 0x24 SWAP1 REVERT JUMPDEST POP DUP1 REVERT JUMPDEST DUP3 CALLVALUE PUSH2 0x296 JUMPI PUSH1 0x20 CALLDATASIZE PUSH1 0x3 NOT ADD SLT PUSH2 0x296 JUMPI PUSH1 0x40 SWAP1 PUSH1 0x1 PUSH1 0x1 PUSH1 0xA0 SHL SUB PUSH2 0x242 PUSH2 0x1C47 JUMP JUMPDEST AND DUP2 MSTORE PUSH1 0x2 PUSH1 0x20 MSTORE DUP2 DUP2 KECCAK256 SWAP1 PUSH1 0x7 PUSH1 0x5 DUP4 ADD SLOAD PUSH1 0x6 DUP5 ADD SLOAD DUP1 DUP3 LT PUSH1 0x0 EQ PUSH2 0x28E JUMPI POP SWAP3 JUMPDEST ADD SLOAD DUP1 DUP4 GT ISZERO PUSH2 0x288 JUMPI PUSH2 0x27C SWAP2 POP DUP3 PUSH2 0x1E75 JUMP JUMPDEST DUP3 MLOAD SWAP2 DUP3 MSTORE PUSH1 0x20 DUP3 ADD MSTORE RETURN JUMPDEST POP PUSH2 0x27C JUMP JUMPDEST SWAP1 POP SWAP3 PUSH2 0x267 JUMP JUMPDEST DUP1 REVERT JUMPDEST POP CALLVALUE PUSH2 0x219 JUMPI PUSH1 0x40 CALLDATASIZE PUSH1 0x3 NOT ADD SLT PUSH2 0x219 JUMPI PUSH2 0x2B3 PUSH2 0x1C47 JUMP JUMPDEST PUSH1 0x24 CALLDATALOAD SWAP1 PUSH2 0x2BF PUSH2 0x1CA4 JUMP JUMPDEST PUSH1 0x1 PUSH1 0x1 PUSH1 0xA0 SHL SUB AND SWAP2 DUP3 ISZERO PUSH2 0x387 JUMPI PUSH1 0x6 SLOAD SWAP1 DUP3 DUP3 LT PUSH2 0x34C JUMPI POP DUP2 PUSH2 0x309 PUSH32 0x529AFC4538720FE0B3EADC40486369AB962002D72FEAD1387B300C66073E7BF SWAP4 PUSH1 0x20 SWAP4 PUSH2 0x1E75 JUMP JUMPDEST PUSH1 0x6 SSTORE DUP4 DUP6 MSTORE PUSH1 0x2 DUP3 MSTORE PUSH1 0x8 PUSH1 0x40 DUP7 KECCAK256 ADD PUSH2 0x325 DUP3 DUP3 SLOAD PUSH2 0x1E82 JUMP JUMPDEST SWAP1 SSTORE DUP4 DUP6 MSTORE PUSH1 0x2 DUP3 MSTORE PUSH1 0x9 PUSH1 0x40 DUP7 KECCAK256 ADD PUSH2 0x340 DUP3 DUP3 SLOAD PUSH2 0x1E82 JUMP JUMPDEST SWAP1 SSTORE PUSH1 0x40 MLOAD SWAP1 DUP2 MSTORE LOG2 DUP1 RETURN JUMPDEST PUSH1 0x64 SWAP1 PUSH1 0x20 PUSH1 0x40 MLOAD SWAP2 PUSH3 0x461BCD PUSH1 0xE5 SHL DUP4 MSTORE DUP3 ADD MSTORE PUSH1 0x14 PUSH1 0x24 DUP3 ADD MSTORE PUSH20 0x115E18D959591CC81C995CD95C9D99481C1BDBDB PUSH1 0x62 SHL PUSH1 0x44 DUP3 ADD MSTORE REVERT JUMPDEST PUSH1 0x40 MLOAD PUSH4 0xD92E233D PUSH1 0xE0 SHL DUP2 MSTORE REVERT JUMPDEST DUP3 CALLVALUE PUSH2 0x296 JUMPI PUSH1 0x20 CALLDATASIZE PUSH1 0x3 NOT ADD SLT PUSH2 0x296 JUMPI PUSH1 0x40 SWAP1 PUSH1 0xD SWAP1 DUP3 SWAP1 PUSH1 0x1 PUSH1 0x1 PUSH1 0xA0 SHL SUB PUSH2 0x3C0 PUSH2 0x1C47 JUMP JUMPDEST AND DUP2 MSTORE PUSH1 0x2 PUSH1 0x20 MSTORE KECCAK256 ADD SLOAD DUP2 MLOAD SWAP1 PUSH9 0x70C1CC73B00C80000 DUP2 LT ISZERO DUP3 MSTORE PUSH1 0x20 DUP3 ADD MSTORE RETURN JUMPDEST POP CALLVALUE PUSH2 0x219 JUMPI PUSH1 0x20 DUP1 PUSH1 0x3 NOT CALLDATASIZE ADD SLT PUSH2 0x533 JUMPI DUP2 CALLDATALOAD SWAP2 PUSH2 0x402 PUSH2 0x1DF7 JUMP JUMPDEST DUP3 ISZERO PUSH2 0x524 JUMPI CALLER DUP5 MSTORE PUSH1 0x2 DUP3 MSTORE PUSH1 0xC PUSH1 0x40 DUP6 KECCAK256 ADD DUP1 SLOAD DUP5 DUP2 LT PUSH2 0x513 JUMPI DUP5 PUSH2 0x429 SWAP2 PUSH2 0x1E75 JUMP JUMPDEST SWAP1 SSTORE PUSH1 0x40 MLOAD PUSH4 0xA9059CBB PUSH1 0xE0 SHL DUP2 MSTORE DUP3 DUP2 DUP1 PUSH2 0x448 DUP8 CALLER DUP8 DUP5 ADD PUSH2 0x1E5A JUMP JUMPDEST SUB DUP2 DUP9 PUSH32 0x0 PUSH1 0x1 PUSH1 0x1 PUSH1 0xA0 SHL SUB AND GAS CALL SWAP1 DUP2 ISZERO PUSH2 0x508 JUMPI DUP6 SWAP2 PUSH2 0x4DB JUMPI JUMPDEST POP ISZERO PUSH2 0x4CC JUMPI POP PUSH32 0xBDD3F02D2A57FB53C1156F98470B61CB60712D485C27C36A49B1263DABCDE201 SWAP1 PUSH1 0x40 MLOAD SWAP3 DUP4 MSTORE CALLER SWAP3 LOG2 PUSH1 0x1 PUSH1 0x0 DUP1 MLOAD PUSH1 0x20 PUSH2 0x2BF5 DUP4 CODECOPY DUP2 MLOAD SWAP2 MSTORE SSTORE DUP1 RETURN JUMPDEST PUSH1 0x40 MLOAD PUSH4 0x12171D83 PUSH1 0xE3 SHL DUP2 MSTORE REVERT JUMPDEST PUSH2 0x4FB SWAP2 POP DUP4 RETURNDATASIZE DUP6 GT PUSH2 0x501 JUMPI JUMPDEST PUSH2 0x4F3 DUP2 DUP4 PUSH2 0x1DBC JUMP JUMPDEST DUP2 ADD SWAP1 PUSH2 0x1DDF JUMP JUMPDEST CODESIZE PUSH2 0x485 JUMP JUMPDEST POP RETURNDATASIZE PUSH2 0x4E9 JUMP JUMPDEST PUSH1 0x40 MLOAD RETURNDATASIZE DUP8 DUP3 RETURNDATACOPY RETURNDATASIZE SWAP1 REVERT JUMPDEST PUSH1 0x40 MLOAD PUSH4 0xB55C1BAD PUSH1 0xE0 SHL DUP2 MSTORE DUP4 SWAP1 REVERT JUMPDEST PUSH1 0x40 MLOAD PUSH4 0x1F2A2005 PUSH1 0xE0 SHL DUP2 MSTORE REVERT JUMPDEST DUP3 DUP1 REVERT JUMPDEST POP SWAP1 CALLVALUE PUSH2 0x296 JUMPI DUP1 PUSH1 0x3 NOT CALLDATASIZE ADD SLT PUSH2 0x296 JUMPI PUSH1 0x1 SLOAD PUSH1 0x40 MLOAD PUSH4 0x70A08231 PUSH1 0xE0 SHL DUP2 MSTORE ADDRESS SWAP4 DUP2 ADD SWAP4 SWAP1 SWAP4 MSTORE PUSH1 0x20 SWAP1 DUP4 SWAP1 PUSH1 0x24 SWAP1 DUP3 SWAP1 PUSH1 0x1 PUSH1 0x1 PUSH1 0xA0 SHL SUB AND GAS STATICCALL SWAP1 DUP2 ISZERO PUSH2 0x5C5 JUMPI SWAP1 PUSH2 0x58E JUMPI JUMPDEST PUSH1 0x20 SWAP1 PUSH1 0x40 MLOAD SWAP1 DUP2 MSTORE RETURN JUMPDEST POP PUSH1 0x20 DUP2 RETURNDATASIZE DUP3 GT PUSH2 0x5BD JUMPI JUMPDEST DUP2 PUSH2 0x5A7 PUSH1 0x20 SWAP4 DUP4 PUSH2 0x1DBC JUMP JUMPDEST DUP2 ADD SUB SLT PUSH2 0x5B8 JUMPI PUSH1 0x20 SWAP1 MLOAD PUSH2 0x583 JUMP JUMPDEST PUSH1 0x0 DUP1 REVERT JUMPDEST RETURNDATASIZE SWAP2 POP PUSH2 0x59A JUMP JUMPDEST PUSH1 0x40 MLOAD SWAP1 RETURNDATASIZE SWAP1 DUP3 RETURNDATACOPY RETURNDATASIZE SWAP1 REVERT JUMPDEST POP CALLVALUE PUSH2 0x219 JUMPI DUP2 PUSH1 0x3 NOT CALLDATASIZE ADD SLT PUSH2 0x219 JUMPI PUSH1 0x20 SWAP1 SLOAD PUSH1 0x40 MLOAD SWAP1 DUP2 MSTORE RETURN JUMPDEST DUP3 CALLVALUE PUSH2 0x296 JUMPI DUP1 PUSH1 0x3 NOT CALLDATASIZE ADD SLT PUSH2 0x296 JUMPI PUSH1 0x20 PUSH1 0x7 SLOAD PUSH1 0x40 MLOAD SWAP1 DUP2 MSTORE RETURN JUMPDEST POP CALLVALUE PUSH2 0x219 JUMPI PUSH1 0x20 DUP1 PUSH1 0x3 NOT CALLDATASIZE ADD SLT PUSH2 0x533 JUMPI DUP2 CALLDATALOAD SWAP2 PUSH2 0x62A PUSH2 0x1DF7 JUMP JUMPDEST DUP3 ISZERO PUSH2 0x524 JUMPI CALLER DUP5 MSTORE PUSH1 0x2 DUP3 MSTORE PUSH1 0xF PUSH1 0x40 DUP6 KECCAK256 ADD DUP1 SLOAD DUP5 DUP2 LT PUSH2 0x711 JUMPI DUP5 PUSH2 0x651 SWAP2 PUSH2 0x1E75 JUMP JUMPDEST SWAP1 SSTORE PUSH1 0x40 MLOAD PUSH4 0xA9059CBB PUSH1 0xE0 SHL DUP2 MSTORE DUP3 DUP2 DUP1 PUSH2 0x670 DUP8 CALLER DUP8 DUP5 ADD PUSH2 0x1E5A JUMP JUMPDEST SUB DUP2 DUP9 PUSH32 0x0 PUSH1 0x1 PUSH1 0x1 PUSH1 0xA0 SHL SUB AND GAS CALL SWAP1 DUP2 ISZERO PUSH2 0x508 JUMPI DUP6 SWAP2 PUSH2 0x6F4 JUMPI JUMPDEST POP ISZERO PUSH2 0x4CC JUMPI POP PUSH32 0x12701E4764B73009AB9826933C421483E4280410091FCC760515E0FA99FA766B SWAP1 PUSH1 0x40 MLOAD SWAP3 DUP4 MSTORE CALLER SWAP3 LOG2 PUSH1 0x1 PUSH1 0x0 DUP1 MLOAD PUSH1 0x20 PUSH2 0x2BF5 DUP4 CODECOPY DUP2 MLOAD SWAP2 MSTORE SSTORE DUP1 RETURN JUMPDEST PUSH2 0x70B SWAP2 POP DUP4 RETURNDATASIZE DUP6 GT PUSH2 0x501 JUMPI PUSH2 0x4F3 DUP2 DUP4 PUSH2 0x1DBC JUMP JUMPDEST CODESIZE PUSH2 0x6AD JUMP JUMPDEST PUSH1 0x40 MLOAD PUSH4 0x6DAE8617 PUSH1 0xE1 SHL DUP2 MSTORE DUP4 SWAP1 REVERT JUMPDEST DUP3 CALLVALUE PUSH2 0x296 JUMPI DUP1 PUSH1 0x3 NOT CALLDATASIZE ADD SLT PUSH2 0x296 JUMPI PUSH1 0x20 PUSH1 0x40 MLOAD PUSH9 0x15245655B102580000 DUP2 MSTORE RETURN JUMPDEST POP CALLVALUE PUSH2 0x219 JUMPI PUSH1 0x60 CALLDATASIZE PUSH1 0x3 NOT ADD SLT PUSH2 0x219 JUMPI PUSH2 0x760 PUSH2 0x1C47 JUMP JUMPDEST PUSH1 0x24 CALLDATALOAD PUSH1 0x1 PUSH1 0x1 PUSH1 0xA0 SHL SUB DUP2 DUP2 AND SWAP4 SWAP2 SWAP3 DUP5 DUP5 SUB PUSH2 0x5B8 JUMPI PUSH1 0x44 CALLDATALOAD SWAP3 DUP4 ISZERO DUP1 ISZERO SWAP5 DUP6 DUP2 SUB PUSH2 0x5B8 JUMPI CALLER DUP10 MSTORE PUSH1 0x2 SWAP2 PUSH1 0x20 SWAP8 DUP4 DUP10 MSTORE PUSH1 0xFF PUSH1 0x40 DUP13 KECCAK256 SLOAD AND PUSH2 0xA4B JUMPI DUP5 SLOAD PUSH2 0x865 JUMPI POP POP CALLER PUSH1 0x0 SWAP1 DUP2 MSTORE DUP3 DUP9 MSTORE PUSH1 0x40 SWAP1 KECCAK256 DUP1 SLOAD PUSH2 0xFF01 PUSH1 0x1 PUSH1 0xB0 SHL SUB NOT AND PUSH1 0x1 OR DUP2 SSTORE SWAP2 DUP3 ADD DUP1 SLOAD PUSH1 0x1 PUSH1 0x1 PUSH1 0xA8 SHL SUB NOT AND SWAP1 SSTORE POP PUSH1 0x12 DUP2 ADD DUP1 SLOAD PUSH1 0x1 PUSH1 0x1 PUSH1 0xA0 SHL SUB NOT AND SWAP1 SSTORE TIMESTAMP PUSH1 0x14 SWAP1 SWAP2 ADD SSTORE PUSH1 0x3 SLOAD PUSH1 0x1 PUSH1 0x40 SHL DUP2 LT ISZERO PUSH2 0x850 JUMPI SWAP1 PUSH2 0x823 DUP3 PUSH1 0x1 PUSH1 0x0 DUP1 MLOAD PUSH1 0x20 PUSH2 0x2B95 DUP4 CODECOPY DUP2 MLOAD SWAP2 MSTORE SWAP7 SWAP6 SWAP5 ADD PUSH1 0x3 SSTORE PUSH2 0x1C73 JUMP JUMPDEST DUP2 SLOAD SWAP1 PUSH1 0x3 SHL SWAP1 DUP6 CALLER DUP4 SHL SWAP3 SHL NOT AND OR SWAP1 SSTORE PUSH2 0x83F DUP2 SLOAD PUSH2 0x1CD0 JUMP JUMPDEST SWAP1 SSTORE JUMPDEST PUSH1 0x40 MLOAD SWAP4 DUP5 MSTORE AND SWAP3 CALLER SWAP3 LOG4 DUP1 RETURN JUMPDEST PUSH1 0x41 DUP3 PUSH4 0x4E487B71 PUSH1 0xE0 SHL PUSH1 0x0 MSTORE MSTORE PUSH1 0x24 PUSH1 0x0 REVERT JUMPDEST DUP7 DUP7 SWAP6 SWAP4 SWAP12 SWAP11 SWAP10 SWAP9 SWAP8 SWAP7 AND DUP11 MSTORE DUP4 DUP9 MSTORE PUSH1 0xFF PUSH1 0x40 DUP12 KECCAK256 SLOAD AND ISZERO PUSH2 0xA3A JUMPI DUP9 ISZERO ISZERO DUP1 PUSH2 0xA26 JUMPI JUMPDEST ISZERO PUSH2 0xA1E JUMPI SWAP1 JUMPDEST DUP11 DUP1 PUSH2 0xA04 JUMPI JUMPDEST PUSH2 0x9F3 JUMPI DUP1 PUSH2 0x9DA JUMPI JUMPDEST PUSH2 0x9CA JUMPI CALLER PUSH1 0x0 SWAP1 DUP2 MSTORE DUP4 DUP9 MSTORE PUSH1 0x40 SWAP1 KECCAK256 DUP1 SLOAD PUSH2 0xFF01 PUSH1 0x1 PUSH1 0xB0 SHL SUB NOT AND PUSH1 0x10 DUP7 SWAP1 SHL PUSH3 0x10000 PUSH1 0x1 PUSH1 0xB0 SHL SUB AND OR PUSH1 0x1 OR DUP2 SSTORE DUP1 DUP5 ADD DUP1 SLOAD PUSH1 0x1 PUSH1 0x1 PUSH1 0xA8 SHL SUB NOT AND SWAP3 DUP8 AND SWAP3 DUP4 OR PUSH1 0xA0 DUP10 SWAP1 SHL PUSH1 0xFF PUSH1 0xA0 SHL AND OR SWAP1 SSTORE PUSH1 0x12 DUP2 ADD DUP1 SLOAD PUSH1 0x1 PUSH1 0x1 PUSH1 0xA0 SHL SUB NOT SWAP1 DUP2 AND SWAP1 SWAP2 SSTORE TIMESTAMP PUSH1 0x14 SWAP1 SWAP3 ADD SWAP2 SWAP1 SWAP2 SSTORE PUSH1 0x3 SLOAD SWAP11 SWAP1 SWAP3 SWAP1 PUSH1 0x1 PUSH1 0x40 SHL DUP13 LT ISZERO PUSH2 0x850 JUMPI PUSH2 0x94F DUP13 PUSH1 0x1 PUSH1 0x0 DUP1 MLOAD PUSH1 0x20 PUSH2 0x2B95 DUP4 CODECOPY DUP2 MLOAD SWAP2 MSTORE SWAP11 SWAP12 SWAP13 SWAP14 SWAP15 ADD PUSH1 0x3 SSTORE PUSH2 0x1C73 JUMP JUMPDEST DUP2 SLOAD SWAP1 PUSH1 0x3 SHL SWAP1 DUP10 CALLER DUP4 SHL SWAP3 SHL NOT AND OR SWAP1 SSTORE PUSH2 0x96B DUP3 SLOAD PUSH2 0x1CD0 JUMP JUMPDEST DUP3 SSTORE ISZERO PUSH2 0x9B1 JUMPI POP DUP10 MSTORE DUP2 DUP8 MSTORE PUSH1 0x3 PUSH1 0x40 DUP11 KECCAK256 ADD SWAP1 CALLER SWAP1 DUP3 SLOAD AND OR SWAP1 SSTORE JUMPDEST DUP3 DUP3 AND DUP9 MSTORE DUP6 MSTORE PUSH1 0x1 PUSH1 0x40 DUP9 KECCAK256 ADD PUSH2 0x9A1 DUP2 SLOAD PUSH2 0x1CD0 JUMP JUMPDEST SWAP1 SSTORE PUSH2 0x9AC CALLER PUSH2 0x1CF5 JUMP JUMPDEST PUSH2 0x842 JUMP JUMPDEST SWAP1 DUP11 MSTORE DUP3 DUP9 MSTORE PUSH1 0x40 DUP11 KECCAK256 ADD SWAP1 CALLER SWAP1 DUP3 SLOAD AND OR SWAP1 SSTORE PUSH2 0x989 JUMP JUMPDEST POP PUSH1 0x40 MLOAD PUSH4 0xD5DD5C3D PUSH1 0xE0 SHL DUP2 MSTORE REVERT JUMPDEST POP DUP5 DUP2 AND DUP10 MSTORE DUP3 DUP8 MSTORE DUP5 DUP3 PUSH1 0x40 DUP12 KECCAK256 ADD SLOAD AND ISZERO ISZERO PUSH2 0x8A3 JUMP JUMPDEST PUSH1 0x40 MLOAD PUSH4 0xD5DD5C3D PUSH1 0xE0 SHL DUP2 MSTORE DUP4 SWAP1 REVERT JUMPDEST POP DUP6 DUP3 AND DUP11 MSTORE DUP4 DUP9 MSTORE DUP6 PUSH1 0x3 PUSH1 0x40 DUP13 KECCAK256 ADD SLOAD AND ISZERO ISZERO PUSH2 0x899 JUMP JUMPDEST POP DUP4 SWAP1 PUSH2 0x892 JUMP JUMPDEST POP DUP9 DUP11 MSTORE DUP4 DUP9 MSTORE PUSH1 0xFF PUSH1 0x40 DUP12 KECCAK256 SLOAD AND PUSH2 0x88B JUMP JUMPDEST PUSH1 0x40 MLOAD PUSH4 0x2F212E0D PUSH1 0xE1 SHL DUP2 MSTORE DUP4 SWAP1 REVERT JUMPDEST PUSH1 0x40 MLOAD PUSH4 0xEA075BF PUSH1 0xE2 SHL DUP2 MSTORE DUP6 SWAP1 REVERT JUMPDEST DUP3 CALLVALUE PUSH2 0x296 JUMPI DUP1 PUSH1 0x3 NOT CALLDATASIZE ADD SLT PUSH2 0x296 JUMPI PUSH1 0x40 MLOAD PUSH32 0x0 PUSH1 0x1 PUSH1 0x1 PUSH1 0xA0 SHL SUB AND DUP2 MSTORE PUSH1 0x20 SWAP1 RETURN JUMPDEST POP SWAP1 CALLVALUE PUSH2 0x296 JUMPI PUSH1 0x20 CALLDATASIZE PUSH1 0x3 NOT ADD SLT PUSH2 0x296 JUMPI PUSH1 0x40 SWAP1 PUSH1 0x1 PUSH1 0x1 PUSH1 0xA0 SHL SUB PUSH2 0xAC7 PUSH2 0x1C47 JUMP JUMPDEST AND DUP2 MSTORE PUSH1 0x2 PUSH1 0x20 MSTORE KECCAK256 DUP1 DUP1 DUP1 DUP1 DUP1 DUP1 DUP1 DUP1 DUP1 DUP1 DUP1 SWAP12 DUP2 PUSH2 0x140 MSTORE DUP2 PUSH1 0x14 PUSH1 0xF PUSH1 0xE PUSH1 0xD PUSH1 0xC PUSH1 0xB PUSH1 0xA PUSH1 0x9 PUSH1 0x8 PUSH1 0x7 PUSH1 0x6 PUSH1 0x5 DUP13 SLOAD SWAP13 PUSH1 0x1 DUP2 ADD SLOAD PUSH1 0xC0 MSTORE PUSH1 0x2 DUP2 ADD SLOAD PUSH2 0x180 MSTORE PUSH1 0x1 DUP1 PUSH1 0xA0 SHL SUB PUSH1 0x3 DUP3 ADD SLOAD AND SWAP15 PUSH1 0x1 DUP1 PUSH1 0xA0 SHL SUB SWAP2 ADD SLOAD AND SWAP15 ADD SLOAD SWAP15 ADD SLOAD SWAP15 ADD SLOAD SWAP15 ADD SLOAD SWAP15 ADD SLOAD SWAP15 ADD SLOAD SWAP15 ADD SLOAD SWAP15 ADD SLOAD SWAP15 ADD SLOAD SWAP15 ADD SLOAD SWAP15 ADD SLOAD SWAP15 PUSH1 0x10 DUP2 ADD SLOAD PUSH2 0x200 MSTORE PUSH1 0x11 DUP2 ADD SLOAD PUSH2 0x240 MSTORE PUSH1 0x1 DUP1 PUSH1 0xA0 SHL SUB PUSH1 0x12 DUP3 ADD SLOAD AND PUSH1 0xE0 MSTORE PUSH1 0x13 DUP2 ADD SLOAD PUSH2 0x1A0 MSTORE ADD SLOAD PUSH2 0x100 MSTORE PUSH1 0x40 MLOAD DUP1 PUSH2 0x220 MSTORE PUSH1 0xFF DUP3 AND ISZERO ISZERO SWAP1 MSTORE PUSH1 0xFF DUP2 PUSH1 0x8 SHR AND ISZERO ISZERO PUSH1 0x20 PUSH2 0x220 MLOAD ADD MSTORE PUSH1 0x1 DUP1 PUSH1 0xA0 SHL SUB SWAP1 PUSH1 0x10 SHR AND PUSH1 0x40 PUSH2 0x220 MLOAD ADD MSTORE PUSH1 0xC0 MLOAD PUSH1 0x60 PUSH2 0x220 MLOAD ADD MSTORE PUSH1 0x1 DUP1 PUSH1 0xA0 SHL SUB PUSH2 0x180 MLOAD AND PUSH1 0x80 PUSH2 0x220 MLOAD ADD MSTORE PUSH1 0xFF PUSH2 0x180 MLOAD PUSH1 0xA0 SHR AND ISZERO ISZERO PUSH1 0xA0 PUSH2 0x220 MLOAD ADD MSTORE PUSH1 0xC0 PUSH2 0x220 MLOAD ADD MSTORE PUSH1 0xE0 PUSH2 0x220 MLOAD ADD MSTORE PUSH2 0x100 PUSH2 0x220 MLOAD ADD MSTORE PUSH2 0x120 PUSH2 0x220 MLOAD ADD MSTORE PUSH2 0x140 PUSH2 0x220 MLOAD ADD MSTORE PUSH2 0x160 PUSH2 0x220 MLOAD ADD MSTORE PUSH2 0x180 PUSH2 0x220 MLOAD ADD MSTORE PUSH2 0x1A0 PUSH2 0x220 MLOAD ADD MSTORE PUSH2 0x1C0 PUSH2 0x220 MLOAD ADD MSTORE PUSH2 0x1E0 PUSH2 0x220 MLOAD ADD MSTORE PUSH2 0x200 PUSH2 0x220 MLOAD ADD MSTORE PUSH2 0x220 DUP1 MLOAD ADD MSTORE PUSH2 0x240 PUSH2 0x220 MLOAD ADD MSTORE PUSH2 0x200 MLOAD PUSH2 0x260 PUSH2 0x220 MLOAD ADD MSTORE PUSH2 0x240 MLOAD PUSH2 0x280 PUSH2 0x220 MLOAD ADD MSTORE PUSH1 0xE0 MLOAD PUSH2 0x2A0 PUSH2 0x220 MLOAD ADD MSTORE PUSH2 0x1A0 MLOAD PUSH2 0x2C0 PUSH2 0x220 MLOAD ADD MSTORE PUSH2 0x100 MLOAD PUSH2 0x2E0 PUSH2 0x220 MLOAD ADD MSTORE PUSH2 0x300 PUSH2 0x220 MLOAD RETURN JUMPDEST POP CALLVALUE PUSH2 0x219 JUMPI PUSH1 0x20 CALLDATASIZE PUSH1 0x3 NOT ADD SLT PUSH2 0x219 JUMPI CALLDATALOAD SWAP1 PUSH1 0x3 SLOAD DUP3 LT ISZERO PUSH2 0x296 JUMPI PUSH1 0x20 PUSH2 0xCC5 DUP4 PUSH2 0x1C73 JUMP JUMPDEST SWAP1 SLOAD PUSH1 0x40 MLOAD PUSH1 0x3 SWAP3 SWAP1 SWAP3 SHL SHR PUSH1 0x1 PUSH1 0x1 PUSH1 0xA0 SHL SUB AND DUP2 MSTORE RETURN JUMPDEST POP CALLVALUE PUSH2 0x219 JUMPI PUSH1 0x40 CALLDATASIZE PUSH1 0x3 NOT ADD SLT PUSH2 0x219 JUMPI PUSH2 0xCF8 PUSH2 0x1C47 JUMP JUMPDEST SWAP1 PUSH1 0x24 CALLDATALOAD SWAP2 DUP3 ISZERO ISZERO DUP4 SUB PUSH2 0x5B8 JUMPI PUSH2 0xD0E PUSH2 0x1DF7 JUMP JUMPDEST PUSH1 0x1 PUSH1 0x1 PUSH1 0xA0 SHL SUB DUP2 DUP2 AND SWAP4 SWAP1 SWAP2 SWAP1 DUP5 ISZERO PUSH2 0x100A JUMPI CALLER DUP7 MSTORE PUSH1 0x2 SWAP1 PUSH1 0x20 SWAP5 DUP3 DUP7 MSTORE PUSH1 0x40 DUP9 KECCAK256 SWAP5 DUP6 SLOAD SWAP2 PUSH1 0xFF DUP4 PUSH1 0x8 SHR AND ISZERO PUSH2 0xFD9 JUMPI PUSH1 0xD DUP8 ADD DUP1 SLOAD SWAP1 PUSH9 0x70C1CC73B00C80000 DUP1 DUP4 LT PUSH2 0xFC8 JUMPI DUP12 DUP14 MSTORE DUP8 DUP12 MSTORE PUSH1 0x40 DUP14 KECCAK256 SLOAD PUSH1 0xFF AND PUSH2 0xF84 JUMPI PUSH9 0x70C1CC73B00C7FFFF NOT DUP4 ADD SWAP3 DUP4 GT PUSH2 0xF71 JUMPI DUP1 DUP4 LT PUSH2 0xF66 JUMPI PUSH2 0xD93 SWAP1 DUP1 SWAP4 PUSH2 0x1E75 JUMP JUMPDEST SWAP1 SSTORE PUSH1 0xC DUP9 ADD PUSH2 0xDA4 DUP3 DUP3 SLOAD PUSH2 0x1E82 JUMP JUMPDEST SWAP1 SSTORE PUSH2 0xDB5 PUSH1 0xE DUP10 ADD SWAP2 DUP3 SLOAD PUSH2 0x1E82 JUMP JUMPDEST SWAP1 SSTORE PUSH9 0x15245655B102580000 PUSH1 0xB DUP9 ADD SSTORE PUSH2 0xDD6 DUP3 DUP5 PUSH1 0x10 SHR AND SWAP5 CALLER PUSH2 0x2619 JUMP JUMPDEST PUSH1 0x0 DUP12 DUP2 MSTORE DUP8 DUP12 MSTORE PUSH1 0x40 SWAP1 KECCAK256 DUP1 SLOAD PUSH2 0xFF01 PUSH1 0x1 PUSH1 0xB0 SHL SUB NOT AND PUSH3 0x10000 PUSH1 0x1 PUSH1 0xB0 SHL SUB SWAP1 SWAP7 AND SWAP6 SWAP1 SWAP6 OR PUSH1 0x1 OR DUP6 SSTORE DUP5 DUP8 ADD DUP1 SLOAD PUSH1 0x1 PUSH1 0x1 PUSH1 0xA8 SHL SUB NOT AND SWAP3 DUP6 AND SWAP3 DUP4 OR DUP3 ISZERO ISZERO PUSH1 0xA0 SHL PUSH1 0xFF PUSH1 0xA0 SHL AND OR SWAP1 SSTORE PUSH1 0x12 DUP6 ADD DUP1 SLOAD PUSH1 0x1 PUSH1 0x1 PUSH1 0xA0 SHL SUB NOT SWAP1 DUP2 AND CALLER OR SWAP1 SWAP2 SSTORE TIMESTAMP PUSH1 0x14 SWAP1 SWAP7 ADD SWAP6 SWAP1 SWAP6 SSTORE PUSH1 0x3 SLOAD SWAP2 SWAP4 SWAP1 SWAP2 PUSH1 0x1 PUSH1 0x40 SHL DUP2 LT ISZERO PUSH2 0xF51 JUMPI PUSH2 0xEEE SWAP7 SWAP4 PUSH1 0x13 SWAP10 SWAP7 SWAP4 PUSH32 0x30016ED357540281A6CFF6143637E72B48E105D85D15DF66B0AAFFBD23790240 SWAP12 SWAP10 SWAP7 SWAP4 PUSH2 0xE9D DUP16 SWAP5 PUSH1 0x1 DUP2 ADD PUSH1 0x3 SSTORE PUSH2 0x1C73 JUMP JUMPDEST DUP2 SWAP3 SWAP2 SLOAD SWAP1 PUSH1 0x3 SHL SWAP2 DUP7 DUP4 SHL SWAP3 SHL NOT AND OR SWAP1 SSTORE PUSH2 0xEBA DUP3 SLOAD PUSH2 0x1CD0 JUMP JUMPDEST DUP3 SSTORE ISZERO PUSH2 0xF39 JUMPI POP POP DUP12 MSTORE DUP3 DUP10 MSTORE DUP10 PUSH1 0x3 PUSH1 0x40 DUP14 KECCAK256 ADD SWAP2 DUP3 SLOAD AND OR SWAP1 SSTORE JUMPDEST DUP1 PUSH2 0xF1B JUMPI JUMPDEST POP POP PUSH2 0xEE9 DUP2 PUSH2 0x1CF5 JUMP JUMPDEST PUSH2 0x1EB3 JUMP JUMPDEST ADD SWAP2 PUSH2 0xEFA DUP4 SLOAD PUSH2 0x1CD0 JUMP JUMPDEST DUP1 SWAP4 SSTORE PUSH1 0x40 MLOAD SWAP3 DUP4 MSTORE CALLER SWAP3 LOG3 PUSH1 0x1 PUSH1 0x0 DUP1 MLOAD PUSH1 0x20 PUSH2 0x2BF5 DUP4 CODECOPY DUP2 MLOAD SWAP2 MSTORE SSTORE DUP1 RETURN JUMPDEST DUP10 MSTORE DUP7 MSTORE PUSH1 0x1 PUSH1 0x40 DUP10 KECCAK256 ADD PUSH2 0xF30 DUP2 SLOAD PUSH2 0x1CD0 JUMP JUMPDEST SWAP1 SSTORE CODESIZE DUP1 PUSH2 0xEDE JUMP JUMPDEST SWAP1 SWAP2 DUP14 MSTORE DUP5 DUP12 MSTORE PUSH1 0x40 DUP14 KECCAK256 ADD SWAP2 DUP3 SLOAD AND OR SWAP1 SSTORE PUSH2 0xED8 JUMP JUMPDEST PUSH1 0x41 DUP5 PUSH4 0x4E487B71 PUSH1 0xE0 SHL PUSH1 0x0 MSTORE MSTORE PUSH1 0x24 PUSH1 0x0 REVERT JUMPDEST POP PUSH2 0xD93 DUP3 DUP1 PUSH2 0x1E75 JUMP JUMPDEST PUSH4 0x4E487B71 PUSH1 0xE0 SHL DUP14 MSTORE PUSH1 0x11 DUP5 MSTORE PUSH1 0x24 DUP14 REVERT JUMPDEST PUSH1 0x40 MLOAD PUSH3 0x461BCD PUSH1 0xE5 SHL DUP2 MSTORE DUP1 DUP6 ADD DUP13 SWAP1 MSTORE PUSH1 0x1E PUSH1 0x24 DUP3 ADD MSTORE PUSH32 0x5375622D6163636F756E7420616C726561647920726567697374657265640000 PUSH1 0x44 DUP3 ADD MSTORE PUSH1 0x64 SWAP1 REVERT JUMPDEST PUSH1 0x40 MLOAD PUSH4 0x7DB32BD PUSH1 0xE3 SHL DUP2 MSTORE DUP5 SWAP1 REVERT JUMPDEST PUSH1 0x40 MLOAD PUSH3 0x461BCD PUSH1 0xE5 SHL DUP2 MSTORE SWAP1 DUP2 ADD DUP9 SWAP1 MSTORE PUSH1 0xA PUSH1 0x24 DUP3 ADD MSTORE PUSH10 0x4E6F7420616374697665 PUSH1 0xB0 SHL PUSH1 0x44 DUP3 ADD MSTORE PUSH1 0x64 SWAP1 REVERT JUMPDEST PUSH1 0x40 MLOAD PUSH4 0xD92E233D PUSH1 0xE0 SHL DUP2 MSTORE DUP5 SWAP1 REVERT JUMPDEST DUP3 CALLVALUE PUSH2 0x296 JUMPI DUP1 PUSH1 0x3 NOT CALLDATASIZE ADD SLT PUSH2 0x296 JUMPI PUSH1 0x20 PUSH1 0x40 MLOAD PUSH1 0xA DUP2 MSTORE RETURN JUMPDEST DUP3 CALLVALUE PUSH2 0x296 JUMPI DUP1 PUSH1 0x3 NOT CALLDATASIZE ADD SLT PUSH2 0x296 JUMPI SLOAD PUSH1 0x40 MLOAD PUSH1 0x1 PUSH1 0x1 PUSH1 0xA0 SHL SUB SWAP1 SWAP2 AND DUP2 MSTORE PUSH1 0x20 SWAP1 RETURN JUMPDEST POP CALLVALUE PUSH2 0x219 JUMPI PUSH2 0x106D CALLDATASIZE PUSH2 0x1C5D JUMP JUMPDEST PUSH2 0x1078 SWAP3 SWAP2 SWAP3 PUSH2 0x1CA4 JUMP JUMPDEST PUSH2 0x1080 PUSH2 0x1DF7 JUMP JUMPDEST PUSH1 0x9 SWAP2 PUSH1 0xFF DUP4 SLOAD AND ISZERO PUSH2 0x126E JUMPI POP PUSH2 0x1098 SWAP1 DUP4 PUSH2 0x1E82 JUMP JUMPDEST SWAP1 PUSH1 0x3 DUP1 SLOAD DUP1 DUP5 GT PUSH2 0x1266 JUMPI JUMPDEST POP DUP5 SWAP3 DUP5 JUMPDEST DUP2 DUP2 LT PUSH2 0x1226 JUMPI POP PUSH1 0x8 SWAP2 DUP3 SLOAD SWAP6 DUP6 ISZERO ISZERO DUP1 PUSH2 0x121D JUMPI JUMPDEST ISZERO PUSH2 0x1204 JUMPI DUP1 JUMPDEST DUP4 DUP2 LT PUSH2 0x116F JUMPI POP SWAP1 DUP8 SWAP4 SWAP3 SWAP2 JUMPDEST DUP3 DUP2 LT PUSH2 0x112F JUMPI DUP5 PUSH32 0x7F4A5B69BEA14A6FC05326671A02E90D4A88855C83A18529C260057B1BF61A85 PUSH1 0x40 DUP11 DUP11 DUP11 DUP6 DUP11 SSTORE PUSH1 0xFF NOT DUP2 SLOAD AND SWAP1 SSTORE DUP3 MLOAD SWAP2 DUP3 MSTORE PUSH1 0x20 DUP3 ADD MSTORE LOG1 PUSH1 0x1 PUSH1 0x0 DUP1 MLOAD PUSH1 0x20 PUSH2 0x2BF5 DUP4 CODECOPY DUP2 MLOAD SWAP2 MSTORE SSTORE DUP1 RETURN JUMPDEST PUSH2 0x1165 SWAP2 SWAP3 SWAP4 SWAP5 POP PUSH2 0x1140 DUP2 PUSH2 0x1C73 JUMP JUMPDEST SWAP1 SLOAD SWAP1 DUP5 SHL SHR PUSH1 0x1 PUSH1 0x1 PUSH1 0xA0 SHL SUB AND DUP10 MSTORE PUSH1 0x2 PUSH1 0x20 MSTORE PUSH1 0x40 DUP10 KECCAK256 PUSH1 0x11 ADD DUP10 SWAP1 SSTORE PUSH2 0x1CD0 JUMP JUMPDEST SWAP1 DUP8 SWAP4 SWAP3 SWAP2 PUSH2 0x10D6 JUMP JUMPDEST DUP1 DUP10 PUSH2 0x117D PUSH2 0x11F2 SWAP4 PUSH2 0x1C73 JUMP JUMPDEST SWAP1 SLOAD SWAP1 DUP7 SHL SHR PUSH1 0x1 PUSH1 0x1 PUSH1 0xA0 SHL SUB AND DUP1 DUP3 MSTORE PUSH1 0x2 PUSH1 0x20 DUP2 DUP2 MSTORE PUSH1 0x40 DUP5 KECCAK256 PUSH1 0x11 ADD SLOAD SWAP2 SWAP3 SWAP1 SWAP2 DUP11 SWAP1 DUP15 SWAP1 DUP15 DUP2 ISZERO PUSH2 0x11F7 JUMPI PUSH2 0x11BC PUSH2 0x11C1 SWAP3 PUSH1 0x40 SWAP5 PUSH2 0x1E27 JUMP JUMPDEST PUSH2 0x1E3A JUMP JUMPDEST SWAP6 DUP4 DUP2 MSTORE DUP6 DUP6 MSTORE KECCAK256 ADD PUSH2 0x11D5 DUP6 DUP3 SLOAD PUSH2 0x1E82 JUMP JUMPDEST SWAP1 SSTORE DUP14 MSTORE MSTORE PUSH2 0x11EB DUP9 PUSH1 0x40 DUP14 KECCAK256 ADD SWAP2 DUP3 SLOAD PUSH2 0x1E82 JUMP JUMPDEST SWAP1 SSTORE PUSH2 0x1CD0 JUMP JUMPDEST PUSH2 0x10C8 JUMP JUMPDEST POP POP POP POP POP POP POP POP PUSH2 0x1CD0 JUMP JUMPDEST PUSH2 0x1210 DUP8 PUSH1 0x7 SLOAD PUSH2 0x1E82 JUMP JUMPDEST PUSH1 0x7 SSTORE SWAP1 DUP8 SWAP4 SWAP3 SWAP2 PUSH2 0x10D6 JUMP JUMPDEST POP DUP7 ISZERO ISZERO PUSH2 0x10C1 JUMP JUMPDEST SWAP4 PUSH2 0x125B PUSH2 0x1261 SWAP2 PUSH2 0x1237 DUP8 PUSH2 0x1C73 JUMP JUMPDEST SWAP1 SLOAD SWAP1 DUP7 SHL SHR PUSH1 0x1 PUSH1 0x1 PUSH1 0xA0 SHL SUB AND DUP10 MSTORE PUSH1 0x2 PUSH1 0x20 MSTORE PUSH1 0x40 DUP10 KECCAK256 PUSH1 0x11 ADD SLOAD SWAP1 PUSH2 0x1E82 JUMP JUMPDEST SWAP5 PUSH2 0x1CD0 JUMP JUMPDEST PUSH2 0x10AA JUMP JUMPDEST SWAP3 POP CODESIZE PUSH2 0x10A5 JUMP JUMPDEST PUSH1 0x40 MLOAD PUSH4 0x418826BF PUSH1 0xE1 SHL DUP2 MSTORE REVERT JUMPDEST DUP3 CALLVALUE PUSH2 0x296 JUMPI DUP1 PUSH1 0x3 NOT CALLDATASIZE ADD SLT PUSH2 0x296 JUMPI PUSH1 0x20 PUSH1 0x5 SLOAD PUSH1 0x40 MLOAD SWAP1 DUP2 MSTORE RETURN JUMPDEST DUP3 CALLVALUE PUSH2 0x296 JUMPI DUP1 PUSH1 0x3 NOT CALLDATASIZE ADD SLT PUSH2 0x296 JUMPI PUSH1 0x20 PUSH1 0x40 MLOAD PUSH1 0x28 DUP2 MSTORE RETURN JUMPDEST DUP3 CALLVALUE PUSH2 0x296 JUMPI DUP1 PUSH1 0x3 NOT CALLDATASIZE ADD SLT PUSH2 0x296 JUMPI PUSH2 0x12D0 PUSH2 0x1CA4 JUMP JUMPDEST PUSH1 0x0 DUP1 SLOAD PUSH1 0x1 PUSH1 0x1 PUSH1 0xA0 SHL SUB NOT DUP2 AND DUP3 SSTORE PUSH1 0x1 PUSH1 0x1 PUSH1 0xA0 SHL SUB AND PUSH1 0x0 DUP1 MLOAD PUSH1 0x20 PUSH2 0x2BB5 DUP4 CODECOPY DUP2 MLOAD SWAP2 MSTORE DUP3 DUP1 LOG3 DUP1 RETURN JUMPDEST POP SWAP1 CALLVALUE PUSH2 0x296 JUMPI DUP1 PUSH1 0x3 NOT CALLDATASIZE ADD SLT PUSH2 0x296 JUMPI PUSH1 0x1 SLOAD PUSH1 0x40 MLOAD PUSH3 0x3144BD PUSH1 0xE3 SHL DUP2 MSTORE SWAP2 SWAP1 PUSH1 0x20 SWAP1 PUSH1 0x1 PUSH1 0x1 PUSH1 0xA0 SHL SUB AND DUP2 DUP5 DUP7 DUP2 DUP5 GAS STATICCALL SWAP4 DUP5 ISZERO PUSH2 0x13D3 JUMPI DUP4 SWAP5 PUSH2 0x13A4 JUMPI JUMPDEST POP DUP2 SWAP1 PUSH1 0x40 MLOAD SWAP6 DUP7 DUP1 SWAP3 PUSH4 0x10F4CBA7 PUSH1 0xE2 SHL DUP3 MSTORE GAS STATICCALL SWAP2 DUP3 ISZERO PUSH2 0x5C5 JUMPI SWAP2 PUSH2 0x1374 JUMPI JUMPDEST PUSH1 0x40 DUP1 SWAP5 POP MLOAD SWAP3 DUP4 MSTORE DUP3 ADD MSTORE RETURN JUMPDEST DUP1 SWAP2 POP DUP4 DUP2 RETURNDATASIZE DUP4 GT PUSH2 0x139D JUMPI JUMPDEST PUSH2 0x138B DUP2 DUP4 PUSH2 0x1DBC JUMP JUMPDEST DUP2 ADD SUB SLT PUSH2 0x5B8 JUMPI PUSH1 0x40 SWAP3 MLOAD SWAP1 PUSH2 0x1366 JUMP JUMPDEST POP RETURNDATASIZE PUSH2 0x1381 JUMP JUMPDEST SWAP1 SWAP4 POP DUP2 DUP2 DUP2 RETURNDATASIZE DUP4 GT PUSH2 0x13CC JUMPI JUMPDEST PUSH2 0x13BC DUP2 DUP4 PUSH2 0x1DBC JUMP JUMPDEST DUP2 ADD SUB SLT PUSH2 0x5B8 JUMPI MLOAD SWAP3 DUP2 PUSH2 0x1343 JUMP JUMPDEST POP RETURNDATASIZE PUSH2 0x13B2 JUMP JUMPDEST PUSH1 0x40 MLOAD RETURNDATASIZE DUP6 DUP3 RETURNDATACOPY RETURNDATASIZE SWAP1 REVERT JUMPDEST POP SWAP1 CALLVALUE PUSH2 0x296 JUMPI PUSH1 0x20 CALLDATASIZE PUSH1 0x3 NOT ADD SLT PUSH2 0x296 JUMPI PUSH1 0x40 SWAP1 PUSH1 0x1 PUSH1 0x1 PUSH1 0xA0 SHL SUB PUSH2 0x1404 PUSH2 0x1C47 JUMP JUMPDEST AND DUP2 MSTORE PUSH1 0x2 PUSH1 0x20 MSTORE KECCAK256 DUP1 DUP1 DUP1 DUP1 DUP1 DUP1 DUP1 DUP1 DUP1 DUP1 DUP1 SWAP12 DUP2 PUSH1 0x14 PUSH1 0x7 PUSH1 0x11 PUSH1 0xF PUSH1 0xD PUSH1 0xC PUSH1 0xB PUSH1 0xA PUSH1 0x9 PUSH1 0x8 PUSH1 0x6 PUSH1 0x5 DUP13 SLOAD SWAP13 PUSH1 0x1 DUP2 ADD SLOAD PUSH2 0x120 MSTORE PUSH1 0x2 DUP2 ADD SLOAD PUSH1 0xA0 MSTORE PUSH1 0x1 DUP1 PUSH1 0xA0 SHL SUB PUSH1 0x3 DUP3 ADD SLOAD AND SWAP15 PUSH1 0x1 DUP1 PUSH1 0xA0 SHL SUB SWAP2 ADD SLOAD AND SWAP15 ADD SLOAD SWAP15 ADD SLOAD SWAP15 ADD SLOAD SWAP15 ADD SLOAD SWAP15 ADD SLOAD SWAP15 ADD SLOAD SWAP15 ADD SLOAD SWAP15 ADD SLOAD SWAP15 ADD SLOAD SWAP15 ADD SLOAD SWAP15 ADD SLOAD SWAP15 PUSH1 0x1 DUP1 PUSH1 0xA0 SHL SUB PUSH1 0x12 DUP3 ADD SLOAD AND PUSH2 0x1C0 MSTORE PUSH1 0x13 DUP2 ADD SLOAD PUSH1 0x80 MSTORE ADD SLOAD PUSH2 0x160 MSTORE PUSH1 0x40 MLOAD DUP1 PUSH2 0x1E0 MSTORE PUSH1 0xFF DUP3 AND ISZERO ISZERO SWAP1 MSTORE PUSH1 0xFF DUP2 PUSH1 0x8 SHR AND ISZERO ISZERO PUSH1 0x20 PUSH2 0x1E0 MLOAD ADD MSTORE PUSH1 0x1 DUP1 PUSH1 0xA0 SHL SUB SWAP1 PUSH1 0x10 SHR AND PUSH1 0x40 PUSH2 0x1E0 MLOAD ADD MSTORE PUSH2 0x120 MLOAD PUSH1 0x60 PUSH2 0x1E0 MLOAD ADD MSTORE PUSH1 0x1 DUP1 PUSH1 0xA0 SHL SUB PUSH1 0xA0 MLOAD AND PUSH1 0x80 PUSH2 0x1E0 MLOAD ADD MSTORE PUSH1 0xFF PUSH1 0xA0 MLOAD PUSH1 0xA0 SHR AND ISZERO ISZERO PUSH1 0xA0 PUSH2 0x1E0 MLOAD ADD MSTORE PUSH1 0xC0 PUSH2 0x1E0 MLOAD ADD MSTORE PUSH1 0xE0 PUSH2 0x1E0 MLOAD ADD MSTORE PUSH2 0x100 PUSH2 0x1E0 MLOAD ADD MSTORE PUSH2 0x120 PUSH2 0x1E0 MLOAD ADD MSTORE PUSH2 0x140 PUSH2 0x1E0 MLOAD ADD MSTORE PUSH2 0x160 PUSH2 0x1E0 MLOAD ADD MSTORE PUSH2 0x180 PUSH2 0x1E0 MLOAD ADD MSTORE PUSH2 0x1A0 PUSH2 0x1E0 MLOAD ADD MSTORE PUSH2 0x1C0 PUSH2 0x1E0 MLOAD ADD MSTORE PUSH2 0x1E0 DUP1 MLOAD ADD MSTORE PUSH2 0x200 PUSH2 0x1E0 MLOAD ADD MSTORE PUSH2 0x220 PUSH2 0x1E0 MLOAD ADD MSTORE PUSH2 0x240 PUSH2 0x1E0 MLOAD ADD MSTORE PUSH2 0x1C0 MLOAD PUSH2 0x260 PUSH2 0x1E0 MLOAD ADD MSTORE PUSH1 0x80 MLOAD PUSH2 0x280 PUSH2 0x1E0 MLOAD ADD MSTORE PUSH2 0x160 MLOAD PUSH2 0x2A0 PUSH2 0x1E0 MLOAD ADD MSTORE PUSH2 0x2C0 PUSH2 0x1E0 MLOAD RETURN JUMPDEST POP SWAP1 CALLVALUE PUSH2 0x296 JUMPI PUSH1 0x20 DUP1 PUSH1 0x3 NOT CALLDATASIZE ADD SLT PUSH2 0x219 JUMPI DUP3 CALLDATALOAD SWAP1 PUSH2 0x15C6 PUSH2 0x1DF7 JUMP JUMPDEST DUP2 ISZERO PUSH2 0x18BA JUMPI CALLER DUP4 MSTORE PUSH1 0x2 DUP2 MSTORE PUSH1 0x40 DUP4 KECCAK256 SWAP1 PUSH1 0xFF DUP3 SLOAD PUSH1 0x8 SHR AND ISZERO PUSH2 0x18A9 JUMPI PUSH1 0x8 DUP3 ADD DUP1 SLOAD DUP5 DUP2 LT PUSH2 0x1898 JUMPI DUP5 PUSH2 0x15FC SWAP2 PUSH2 0x1E75 JUMP JUMPDEST SWAP1 SSTORE PUSH1 0xA DUP3 ADD PUSH2 0x160D DUP5 DUP3 SLOAD PUSH2 0x1E82 JUMP JUMPDEST SWAP1 SSTORE PUSH1 0x40 MLOAD PUSH4 0x70A08231 PUSH1 0xE0 SHL DUP1 DUP3 MSTORE ADDRESS DUP8 DUP4 ADD MSTORE PUSH1 0x1 PUSH1 0x1 PUSH1 0xA0 SHL SUB PUSH32 0x0 DUP2 AND SWAP3 SWAP2 SWAP1 DUP5 DUP4 PUSH1 0x24 DUP2 DUP8 GAS STATICCALL SWAP3 DUP4 ISZERO PUSH2 0x185A JUMPI DUP9 SWAP4 PUSH2 0x1869 JUMPI JUMPDEST POP PUSH1 0x1 SLOAD AND DUP1 EXTCODESIZE ISZERO PUSH2 0x1865 JUMPI DUP8 DUP8 PUSH1 0x24 DUP12 DUP4 PUSH1 0x40 MLOAD SWAP6 DUP7 SWAP5 DUP6 SWAP4 PUSH4 0x72424D99 PUSH1 0xE1 SHL DUP6 MSTORE DUP5 ADD MSTORE GAS CALL DUP1 ISZERO PUSH2 0x185A JUMPI PUSH2 0x1847 JUMPI JUMPDEST POP DUP4 SWAP1 PUSH1 0x24 PUSH1 0x40 MLOAD DUP1 SWAP6 DUP2 SWAP4 DUP3 MSTORE ADDRESS DUP13 DUP4 ADD MSTORE GAS STATICCALL DUP1 ISZERO PUSH2 0x183C JUMPI DUP7 SWAP1 PUSH2 0x180D JUMPI JUMPDEST PUSH2 0x16C6 SWAP3 POP PUSH2 0x1E75 JUMP JUMPDEST SWAP2 PUSH1 0xA DUP4 MUL DUP4 DUP2 DIV PUSH1 0xA EQ DUP5 ISZERO OR ISZERO PUSH2 0x17FA JUMPI PUSH32 0x8F7262D5A031D4D671E1FDB0CDDCD26D37185226F9E82F2F18877141AC1963EB SWAP4 SWAP3 SWAP2 PUSH2 0x170E PUSH1 0x64 PUSH2 0x17CF SWAP4 DIV DUP1 SWAP6 PUSH2 0x1E75 JUMP JUMPDEST SWAP3 PUSH1 0xF DUP3 ADD PUSH2 0x171E DUP7 DUP3 SLOAD PUSH2 0x1E82 JUMP JUMPDEST SWAP1 SSTORE PUSH1 0x10 DUP3 ADD PUSH2 0x172F DUP7 DUP3 SLOAD PUSH2 0x1E82 JUMP JUMPDEST SWAP1 SSTORE PUSH32 0x2B1D2104E84DD4DABB0CCA024171F783AB1E1C9DC1AF9D60A2361596653A99C4 PUSH1 0x40 MLOAD SWAP2 DUP7 DUP4 MSTORE CALLER SWAP3 LOG2 PUSH1 0xB DUP2 ADD DUP1 SLOAD SWAP2 DUP9 DUP4 ISZERO PUSH2 0x17ED JUMPI POP PUSH1 0xD SWAP1 DUP4 DUP7 GT ISZERO PUSH2 0x17E7 JUMPI DUP4 JUMPDEST DUP1 SWAP4 PUSH2 0x179F DUP3 PUSH2 0x1788 DUP2 DUP12 PUSH2 0x1E75 JUMP JUMPDEST SWAP8 PUSH1 0xC DUP7 ADD PUSH2 0x1798 DUP4 DUP3 SLOAD PUSH2 0x1E82 JUMP JUMPDEST SWAP1 SSTORE PUSH2 0x1E75 JUMP JUMPDEST SWAP1 SSTORE PUSH2 0x17B0 PUSH1 0xE DUP4 ADD SWAP2 DUP3 SLOAD PUSH2 0x1E82 JUMP JUMPDEST SWAP1 SSTORE JUMPDEST ADD PUSH2 0x17BF DUP4 DUP3 SLOAD PUSH2 0x1E82 JUMP JUMPDEST SWAP1 SSTORE PUSH1 0x40 MLOAD SWAP5 DUP6 SWAP5 CALLER SWAP9 DUP7 PUSH2 0x1E8F JUMP JUMPDEST SUB SWAP1 LOG2 PUSH1 0x1 PUSH1 0x0 DUP1 MLOAD PUSH1 0x20 PUSH2 0x2BF5 DUP4 CODECOPY DUP2 MLOAD SWAP2 MSTORE SSTORE DUP1 RETURN JUMPDEST DUP6 PUSH2 0x1778 JUMP JUMPDEST SWAP2 POP SWAP2 POP PUSH1 0xD DUP5 SWAP3 PUSH2 0x17B3 JUMP JUMPDEST PUSH4 0x4E487B71 PUSH1 0xE0 SHL DUP7 MSTORE PUSH1 0x11 DUP8 MSTORE PUSH1 0x24 DUP7 REVERT JUMPDEST POP DUP3 DUP3 DUP2 RETURNDATASIZE DUP4 GT PUSH2 0x1835 JUMPI JUMPDEST PUSH2 0x1823 DUP2 DUP4 PUSH2 0x1DBC JUMP JUMPDEST DUP2 ADD SUB SLT PUSH2 0x5B8 JUMPI PUSH2 0x16C6 SWAP2 MLOAD PUSH2 0x16BC JUMP JUMPDEST POP RETURNDATASIZE PUSH2 0x1819 JUMP JUMPDEST PUSH1 0x40 MLOAD RETURNDATASIZE DUP9 DUP3 RETURNDATACOPY RETURNDATASIZE SWAP1 REVERT JUMPDEST SWAP7 PUSH2 0x1853 DUP6 SWAP3 SWAP9 PUSH2 0x1D93 JUMP JUMPDEST SWAP7 SWAP1 PUSH2 0x169A JUMP JUMPDEST PUSH1 0x40 MLOAD RETURNDATASIZE DUP11 DUP3 RETURNDATACOPY RETURNDATASIZE SWAP1 REVERT JUMPDEST DUP8 DUP1 REVERT JUMPDEST SWAP1 SWAP3 POP DUP5 DUP2 DUP2 RETURNDATASIZE DUP4 GT PUSH2 0x1891 JUMPI JUMPDEST PUSH2 0x1881 DUP2 DUP4 PUSH2 0x1DBC JUMP JUMPDEST DUP2 ADD SUB SLT PUSH2 0x1865 JUMPI MLOAD SWAP2 CODESIZE PUSH2 0x1666 JUMP JUMPDEST POP RETURNDATASIZE PUSH2 0x1877 JUMP JUMPDEST PUSH1 0x40 MLOAD PUSH4 0x208975E7 PUSH1 0xE2 SHL DUP2 MSTORE DUP8 SWAP1 REVERT JUMPDEST PUSH1 0x40 MLOAD PUSH4 0xABA47339 PUSH1 0xE0 SHL DUP2 MSTORE DUP6 SWAP1 REVERT JUMPDEST PUSH1 0x40 MLOAD PUSH4 0x1F2A2005 PUSH1 0xE0 SHL DUP2 MSTORE DUP5 SWAP1 REVERT JUMPDEST DUP3 CALLVALUE PUSH2 0x296 JUMPI DUP1 PUSH1 0x3 NOT CALLDATASIZE ADD SLT PUSH2 0x296 JUMPI PUSH1 0x60 PUSH1 0x5 SLOAD PUSH1 0x6 SLOAD PUSH1 0x7 SLOAD SWAP1 PUSH1 0x40 MLOAD SWAP3 DUP4 MSTORE PUSH1 0x20 DUP4 ADD MSTORE PUSH1 0x40 DUP3 ADD MSTORE RETURN JUMPDEST DUP3 CALLVALUE PUSH2 0x296 JUMPI DUP1 PUSH1 0x3 NOT CALLDATASIZE ADD SLT PUSH2 0x296 JUMPI PUSH1 0x20 PUSH1 0x40 MLOAD PUSH1 0x1E DUP2 MSTORE RETURN JUMPDEST DUP3 CALLVALUE PUSH2 0x296 JUMPI DUP1 PUSH1 0x3 NOT CALLDATASIZE ADD SLT PUSH2 0x296 JUMPI PUSH1 0x20 PUSH1 0x3 SLOAD PUSH1 0x40 MLOAD SWAP1 DUP2 MSTORE RETURN JUMPDEST DUP3 CALLVALUE PUSH2 0x296 JUMPI PUSH2 0x195C PUSH2 0x1946 CALLDATASIZE PUSH2 0x1C5D JUMP JUMPDEST SWAP1 PUSH2 0x194F PUSH2 0x1CA4 JUMP JUMPDEST PUSH2 0x1957 PUSH2 0x1DF7 JUMP JUMPDEST PUSH2 0x2876 JUMP JUMPDEST PUSH1 0x1 PUSH1 0x0 DUP1 MLOAD PUSH1 0x20 PUSH2 0x2BF5 DUP4 CODECOPY DUP2 MLOAD SWAP2 MSTORE SSTORE DUP1 RETURN JUMPDEST POP CALLVALUE PUSH2 0x219 JUMPI PUSH1 0x40 CALLDATASIZE PUSH1 0x3 NOT ADD SLT PUSH2 0x219 JUMPI PUSH2 0x198B PUSH2 0x1C47 JUMP JUMPDEST PUSH1 0x24 CALLDATALOAD SWAP1 PUSH2 0x1997 PUSH2 0x1CA4 JUMP JUMPDEST PUSH1 0x1 PUSH1 0x1 PUSH1 0xA0 SHL SUB AND SWAP2 DUP3 ISZERO PUSH2 0x387 JUMPI PUSH1 0x7 SLOAD SWAP1 DUP3 DUP3 LT PUSH2 0x19FD JUMPI POP DUP2 PUSH2 0x19E1 PUSH32 0xBA443E8671971C36CDEB74F87321041DAFF421230CBC5E36CB835269ED1D8B7E SWAP4 PUSH1 0x20 SWAP4 PUSH2 0x1E75 JUMP JUMPDEST PUSH1 0x7 SSTORE DUP4 DUP6 MSTORE PUSH1 0x2 DUP3 MSTORE PUSH1 0x8 PUSH1 0x40 DUP7 KECCAK256 ADD PUSH2 0x325 DUP3 DUP3 SLOAD PUSH2 0x1E82 JUMP JUMPDEST PUSH1 0x64 SWAP1 PUSH1 0x20 PUSH1 0x40 MLOAD SWAP2 PUSH3 0x461BCD PUSH1 0xE5 SHL DUP4 MSTORE DUP3 ADD MSTORE PUSH1 0x12 PUSH1 0x24 DUP3 ADD MSTORE PUSH18 0x115E18D959591CC818591B5A5B881C1BDBDB PUSH1 0x72 SHL PUSH1 0x44 DUP3 ADD MSTORE REVERT JUMPDEST DUP3 CALLVALUE PUSH2 0x296 JUMPI DUP1 PUSH1 0x3 NOT CALLDATASIZE ADD SLT PUSH2 0x296 JUMPI PUSH1 0x1 SLOAD PUSH1 0x40 MLOAD PUSH1 0x1 PUSH1 0x1 PUSH1 0xA0 SHL SUB SWAP1 SWAP2 AND DUP2 MSTORE PUSH1 0x20 SWAP1 RETURN JUMPDEST POP CALLVALUE PUSH2 0x219 JUMPI PUSH1 0x20 CALLDATASIZE PUSH1 0x3 NOT ADD SLT PUSH2 0x219 JUMPI PUSH2 0x1A79 PUSH2 0x1C47 JUMP JUMPDEST PUSH2 0x1A81 PUSH2 0x1CA4 JUMP JUMPDEST PUSH1 0x1 PUSH1 0x1 PUSH1 0xA0 SHL SUB AND SWAP1 DUP2 ISZERO PUSH2 0x387 JUMPI POP PUSH1 0x1 DUP1 SLOAD PUSH1 0x1 PUSH1 0x1 PUSH1 0xA0 SHL SUB NOT AND DUP3 OR SWAP1 SSTORE PUSH1 0x40 MLOAD SWAP1 DUP2 MSTORE PUSH32 0xFA7BD61554593F4E69CDFFD255D3FE947352B02C7D3EC68059384934E4CFD47C SWAP1 PUSH1 0x20 SWAP1 LOG1 DUP1 RETURN JUMPDEST POP CALLVALUE PUSH2 0x219 JUMPI DUP2 PUSH1 0x3 NOT CALLDATASIZE ADD SLT PUSH2 0x219 JUMPI PUSH2 0x1AEC PUSH2 0x1DF7 JUMP JUMPDEST CALLER DUP3 MSTORE PUSH1 0x2 PUSH1 0x20 MSTORE PUSH1 0x40 DUP3 KECCAK256 SLOAD PUSH1 0xFF DUP2 AND ISZERO PUSH2 0x1BB1 JUMPI PUSH1 0x8 SHR PUSH1 0xFF AND PUSH2 0x1BA2 JUMPI PUSH1 0x40 MLOAD PUSH4 0x23B872DD PUSH1 0xE0 SHL DUP2 MSTORE CALLER DUP3 DUP3 ADD MSTORE ADDRESS PUSH1 0x24 DUP3 ADD MSTORE PUSH9 0x70C1CC73B00C80000 PUSH1 0x44 DUP3 ADD MSTORE PUSH1 0x20 DUP2 PUSH1 0x64 DUP2 DUP7 PUSH32 0x0 PUSH1 0x1 PUSH1 0x1 PUSH1 0xA0 SHL SUB AND GAS CALL SWAP1 DUP2 ISZERO PUSH2 0x13D3 JUMPI DUP4 SWAP2 PUSH2 0x1B84 JUMPI JUMPDEST POP ISZERO PUSH2 0x4CC JUMPI POP PUSH2 0x195C CALLER PUSH2 0x1EB3 JUMP JUMPDEST PUSH2 0x1B9C SWAP2 POP PUSH1 0x20 RETURNDATASIZE DUP2 GT PUSH2 0x501 JUMPI PUSH2 0x4F3 DUP2 DUP4 PUSH2 0x1DBC JUMP JUMPDEST CODESIZE PUSH2 0x1B74 JUMP JUMPDEST PUSH1 0x40 MLOAD PUSH4 0x7CDF3051 PUSH1 0xE1 SHL DUP2 MSTORE REVERT JUMPDEST POP PUSH1 0x40 MLOAD PUSH4 0xABA47339 PUSH1 0xE0 SHL DUP2 MSTORE REVERT JUMPDEST DUP3 CALLVALUE PUSH2 0x296 JUMPI PUSH1 0x20 CALLDATASIZE PUSH1 0x3 NOT ADD SLT PUSH2 0x296 JUMPI PUSH1 0x40 SWAP1 DUP2 SWAP1 PUSH1 0x1 PUSH1 0x1 PUSH1 0xA0 SHL SUB PUSH2 0x1BE8 PUSH2 0x1C47 JUMP JUMPDEST AND DUP2 MSTORE PUSH1 0x2 PUSH1 0x20 MSTORE KECCAK256 PUSH1 0x10 PUSH1 0xF DUP3 ADD SLOAD SWAP2 ADD SLOAD DUP3 MLOAD SWAP2 DUP3 MSTORE PUSH1 0x20 DUP3 ADD MSTORE RETURN JUMPDEST DUP3 CALLVALUE PUSH2 0x296 JUMPI DUP1 PUSH1 0x3 NOT CALLDATASIZE ADD SLT PUSH2 0x296 JUMPI PUSH1 0x20 PUSH1 0x40 MLOAD PUSH9 0x70C1CC73B00C80000 DUP2 MSTORE RETURN JUMPDEST DUP4 SWAP1 CALLVALUE PUSH2 0x219 JUMPI DUP2 PUSH1 0x3 NOT CALLDATASIZE ADD SLT PUSH2 0x219 JUMPI PUSH1 0x20 SWAP1 PUSH1 0x6 SLOAD DUP2 MSTORE RETURN JUMPDEST PUSH1 0x4 CALLDATALOAD SWAP1 PUSH1 0x1 PUSH1 0x1 PUSH1 0xA0 SHL SUB DUP3 AND DUP3 SUB PUSH2 0x5B8 JUMPI JUMP JUMPDEST PUSH1 0x40 SWAP1 PUSH1 0x3 NOT ADD SLT PUSH2 0x5B8 JUMPI PUSH1 0x4 CALLDATALOAD SWAP1 PUSH1 0x24 CALLDATALOAD SWAP1 JUMP JUMPDEST PUSH1 0x3 SLOAD DUP2 LT ISZERO PUSH2 0x1C8E JUMPI PUSH1 0x3 PUSH1 0x0 MSTORE PUSH1 0x20 PUSH1 0x0 KECCAK256 ADD SWAP1 PUSH1 0x0 SWAP1 JUMP JUMPDEST PUSH4 0x4E487B71 PUSH1 0xE0 SHL PUSH1 0x0 MSTORE PUSH1 0x32 PUSH1 0x4 MSTORE PUSH1 0x24 PUSH1 0x0 REVERT JUMPDEST PUSH1 0x0 SLOAD PUSH1 0x1 PUSH1 0x1 PUSH1 0xA0 SHL SUB AND CALLER SUB PUSH2 0x1CB8 JUMPI JUMP JUMPDEST PUSH1 0x40 MLOAD PUSH4 0x118CDAA7 PUSH1 0xE0 SHL DUP2 MSTORE CALLER PUSH1 0x4 DUP3 ADD MSTORE PUSH1 0x24 SWAP1 REVERT JUMPDEST PUSH1 0x0 NOT DUP2 EQ PUSH2 0x1CDF JUMPI PUSH1 0x1 ADD SWAP1 JUMP JUMPDEST PUSH4 0x4E487B71 PUSH1 0xE0 SHL PUSH1 0x0 MSTORE PUSH1 0x11 PUSH1 0x4 MSTORE PUSH1 0x24 PUSH1 0x0 REVERT JUMPDEST PUSH1 0x1 PUSH1 0x1 PUSH1 0xA0 SHL SUB SWAP1 DUP2 AND PUSH1 0x0 SWAP1 DUP2 MSTORE PUSH1 0x2 PUSH1 0x20 DUP2 DUP2 MSTORE PUSH1 0x40 DUP1 DUP5 KECCAK256 DUP4 ADD SLOAD SWAP5 SWAP6 PUSH1 0xA0 SWAP6 PUSH1 0xFF SWAP6 SWAP3 SWAP4 SWAP2 SWAP1 DUP1 DUP9 SHR DUP8 AND SWAP1 DUP10 SWAP1 DUP2 AND JUMPDEST AND SWAP1 DUP2 ISZERO PUSH2 0x1D87 JUMPI ISZERO PUSH2 0x1D6A JUMPI DUP1 DUP5 MSTORE DUP6 DUP4 MSTORE PUSH1 0x5 DUP6 DUP6 KECCAK256 ADD PUSH2 0x1D4E DUP2 SLOAD PUSH2 0x1CD0 JUMP JUMPDEST SWAP1 SSTORE JUMPDEST DUP4 MSTORE DUP5 DUP3 MSTORE DUP5 DUP5 DUP5 KECCAK256 ADD SLOAD DUP9 DUP1 DUP9 DUP4 DUP12 SHR AND SWAP3 AND PUSH2 0x1D2B JUMP JUMPDEST DUP1 DUP5 MSTORE DUP6 DUP4 MSTORE PUSH1 0x6 DUP6 DUP6 KECCAK256 ADD PUSH2 0x1D80 DUP2 SLOAD PUSH2 0x1CD0 JUMP JUMPDEST SWAP1 SSTORE PUSH2 0x1D51 JUMP JUMPDEST POP POP SWAP7 POP POP POP POP POP POP POP JUMP JUMPDEST PUSH1 0x1 PUSH1 0x1 PUSH1 0x40 SHL SUB DUP2 GT PUSH2 0x1DA6 JUMPI PUSH1 0x40 MSTORE JUMP JUMPDEST PUSH4 0x4E487B71 PUSH1 0xE0 SHL PUSH1 0x0 MSTORE PUSH1 0x41 PUSH1 0x4 MSTORE PUSH1 0x24 PUSH1 0x0 REVERT JUMPDEST PUSH1 0x1F SWAP1 SWAP2 ADD PUSH1 0x1F NOT AND DUP2 ADD SWAP1 PUSH1 0x1 PUSH1 0x1 PUSH1 0x40 SHL SUB DUP3 GT SWAP1 DUP3 LT OR PUSH2 0x1DA6 JUMPI PUSH1 0x40 MSTORE JUMP JUMPDEST SWAP1 DUP2 PUSH1 0x20 SWAP2 SUB SLT PUSH2 0x5B8 JUMPI MLOAD DUP1 ISZERO ISZERO DUP2 SUB PUSH2 0x5B8 JUMPI SWAP1 JUMP JUMPDEST PUSH1 0x0 DUP1 MLOAD PUSH1 0x20 PUSH2 0x2BF5 DUP4 CODECOPY DUP2 MLOAD SWAP2 MSTORE PUSH1 0x2 DUP2 SLOAD EQ PUSH2 0x1E15 JUMPI PUSH1 0x2 SWAP1 SSTORE JUMP JUMPDEST PUSH1 0x40 MLOAD PUSH4 0x3EE5AEB5 PUSH1 0xE0 SHL DUP2 MSTORE PUSH1 0x4 SWAP1 REVERT JUMPDEST DUP2 DUP2 MUL SWAP3 SWAP2 DUP2 ISZERO SWAP2 DUP5 DIV EQ OR ISZERO PUSH2 0x1CDF JUMPI JUMP JUMPDEST DUP2 ISZERO PUSH2 0x1E44 JUMPI DIV SWAP1 JUMP JUMPDEST PUSH4 0x4E487B71 PUSH1 0xE0 SHL PUSH1 0x0 MSTORE PUSH1 0x12 PUSH1 0x4 MSTORE PUSH1 0x24 PUSH1 0x0 REVERT JUMPDEST PUSH1 0x1 PUSH1 0x1 PUSH1 0xA0 SHL SUB SWAP1 SWAP2 AND DUP2 MSTORE PUSH1 0x20 DUP2 ADD SWAP2 SWAP1 SWAP2 MSTORE PUSH1 0x40 ADD SWAP1 JUMP JUMPDEST SWAP2 SWAP1 DUP3 SUB SWAP2 DUP3 GT PUSH2 0x1CDF JUMPI JUMP JUMPDEST SWAP2 SWAP1 DUP3 ADD DUP1 SWAP3 GT PUSH2 0x1CDF JUMPI JUMP JUMPDEST SWAP2 SWAP3 PUSH1 0x80 SWAP4 SWAP7 SWAP6 SWAP5 SWAP2 SWAP7 PUSH1 0xA0 DUP5 ADD SWAP8 DUP5 MSTORE PUSH1 0x20 DUP5 ADD MSTORE PUSH1 0x40 DUP4 ADD MSTORE PUSH1 0x60 DUP3 ADD MSTORE ADD MSTORE JUMP JUMPDEST PUSH1 0x1 SLOAD PUSH1 0x40 MLOAD PUSH3 0x3144BD PUSH1 0xE3 SHL DUP2 MSTORE SWAP3 PUSH1 0x0 SWAP3 SWAP1 SWAP2 PUSH1 0x1 PUSH1 0x1 PUSH1 0xA0 SHL SUB AND PUSH1 0x20 DUP6 PUSH1 0x4 DUP2 DUP5 GAS STATICCALL SWAP5 DUP6 ISZERO PUSH2 0x2468 JUMPI DUP5 SWAP6 PUSH2 0x2430 JUMPI JUMPDEST POP DUP5 ISZERO PUSH2 0x241C JUMPI PUSH1 0x40 MLOAD PUSH4 0x95EA7B3 PUSH1 0xE0 SHL DUP2 MSTORE PUSH1 0x4 DUP2 ADD SWAP2 SWAP1 SWAP2 MSTORE PUSH9 0x70C1CC73B00C80000 PUSH1 0x24 DUP3 ADD DUP2 SWAP1 MSTORE SWAP1 PUSH1 0x20 DUP2 PUSH1 0x44 DUP2 DUP9 PUSH32 0x0 PUSH1 0x1 PUSH1 0x1 PUSH1 0xA0 SHL SUB AND GAS CALL DUP1 ISZERO PUSH2 0x508 JUMPI PUSH2 0x23FD JUMPI JUMPDEST POP PUSH1 0x1 SLOAD PUSH1 0x40 MLOAD PUSH4 0x70A08231 PUSH1 0xE0 SHL DUP1 DUP3 MSTORE ADDRESS PUSH1 0x4 DUP4 ADD MSTORE SWAP3 SWAP1 SWAP2 PUSH1 0x1 PUSH1 0x1 PUSH1 0xA0 SHL SUB AND SWAP1 PUSH1 0x20 DUP4 PUSH1 0x24 DUP2 DUP6 GAS STATICCALL SWAP3 DUP4 ISZERO PUSH2 0x23F2 JUMPI DUP8 SWAP4 PUSH2 0x23BE JUMPI JUMPDEST POP DUP2 EXTCODESIZE ISZERO PUSH2 0x23BA JUMPI DUP7 SWAP2 PUSH1 0x44 DUP4 SWAP3 PUSH1 0x40 MLOAD SWAP5 DUP6 SWAP4 DUP5 SWAP3 PUSH4 0x4E538D93 PUSH1 0xE1 SHL DUP5 MSTORE ADDRESS PUSH1 0x4 DUP6 ADD MSTORE PUSH1 0x24 DUP5 ADD MSTORE GAS CALL DUP1 ISZERO PUSH2 0x183C JUMPI PUSH2 0x23A7 JUMPI JUMPDEST POP PUSH1 0x1 SLOAD PUSH1 0x40 MLOAD SWAP3 DUP4 MSTORE ADDRESS PUSH1 0x4 DUP5 ADD MSTORE PUSH1 0x20 SWAP1 DUP4 SWAP1 PUSH1 0x24 SWAP1 DUP3 SWAP1 PUSH1 0x1 PUSH1 0x1 PUSH1 0xA0 SHL SUB AND GAS STATICCALL DUP1 ISZERO PUSH2 0x508 JUMPI DUP6 SWAP1 PUSH2 0x2373 JUMPI JUMPDEST PUSH2 0x2004 SWAP3 POP PUSH2 0x1E75 JUMP JUMPDEST SWAP4 PUSH12 0x30E68B6D6E0ACC828633631 PUSH1 0x25 SHL DUP2 SWAP1 DIV DUP1 ISZERO SWAP4 PUSH1 0x28 DUP3 DUP2 MUL SWAP4 SWAP3 DUP5 DIV EQ DUP6 OR ISZERO PUSH2 0x235F JUMPI PUSH12 0x30E68B6D6E0ACC828633631 PUSH1 0x25 SHL DUP3 SWAP1 DIV PUSH1 0x1E DUP2 DUP2 MUL SWAP7 SWAP2 DUP8 DIV EQ OR ISZERO PUSH2 0x235F JUMPI PUSH2 0x2079 PUSH1 0x64 DUP7 DIV PUSH2 0x2074 PUSH1 0x64 DUP7 DIV DUP6 PUSH12 0x30E68B6D6E0ACC828633631 PUSH1 0x25 SHL DIV PUSH2 0x1E75 JUMP JUMPDEST PUSH2 0x1E75 JUMP JUMPDEST SWAP5 PUSH2 0x2089 PUSH1 0x64 DUP3 DIV PUSH1 0x5 SLOAD PUSH2 0x1E82 JUMP JUMPDEST PUSH1 0x5 SSTORE PUSH2 0x2098 DUP7 PUSH1 0x6 SLOAD PUSH2 0x1E82 JUMP JUMPDEST PUSH1 0x6 SSTORE PUSH1 0x1 PUSH1 0x1 PUSH1 0xA0 SHL SUB DUP6 DUP2 AND DUP9 MSTORE PUSH1 0x2 PUSH1 0x20 MSTORE PUSH1 0x40 DUP9 KECCAK256 DUP1 SLOAD PUSH2 0xFF00 NOT AND PUSH2 0x100 OR DUP1 DUP3 SSTORE PUSH9 0x15245655B102580000 PUSH1 0xB SWAP1 SWAP3 ADD SWAP2 SWAP1 SWAP2 SSTORE PUSH1 0x1 SWAP8 DUP10 SWAP7 SWAP1 SWAP3 SWAP1 SWAP2 PUSH1 0x10 SHR AND JUMPDEST PUSH1 0xF PUSH1 0xFF DUP11 AND GT ISZERO DUP1 PUSH2 0x234D JUMPI JUMPDEST ISZERO PUSH2 0x22BA JUMPI PUSH2 0x210F DUP10 PUSH12 0x30E68B6D6E0ACC828633631 PUSH1 0x25 SHL DUP9 SWAP1 DIV PUSH2 0x2488 JUMP JUMPDEST SWAP7 DUP8 ISZERO PUSH2 0x2294 JUMPI DUP8 PUSH2 0x2120 SWAP2 PUSH2 0x1E82 JUMP JUMPDEST SWAP7 PUSH1 0x1 DUP1 PUSH1 0xA0 SHL SUB DUP3 AND DUP12 MSTORE PUSH1 0x2 PUSH1 0x20 MSTORE DUP10 PUSH1 0x40 DUP13 KECCAK256 PUSH1 0xFF DUP2 SLOAD PUSH1 0x8 SHR AND SWAP1 DUP2 PUSH2 0x227D JUMPI JUMPDEST POP ISZERO PUSH2 0x2226 JUMPI POP PUSH1 0x1 PUSH1 0x1 PUSH1 0xA0 SHL SUB DUP3 AND DUP12 MSTORE PUSH1 0x2 PUSH1 0x20 MSTORE PUSH1 0x40 DUP12 KECCAK256 PUSH1 0x8 ADD DUP1 SLOAD PUSH2 0x2171 SWAP1 DUP4 SWAP1 PUSH2 0x1E82 JUMP JUMPDEST SWAP1 SSTORE PUSH1 0x1 PUSH1 0x1 PUSH1 0xA0 SHL SUB DUP3 AND DUP12 MSTORE PUSH1 0x2 PUSH1 0x20 MSTORE PUSH1 0x40 DUP12 KECCAK256 PUSH1 0x9 ADD DUP1 SLOAD PUSH2 0x2198 SWAP1 DUP4 SWAP1 PUSH2 0x1E82 JUMP JUMPDEST SWAP1 SSTORE PUSH1 0x40 MLOAD PUSH1 0x1 PUSH1 0x1 PUSH1 0xA0 SHL SUB DUP1 DUP12 AND SWAP3 SWAP1 DUP5 AND SWAP2 PUSH32 0xB16479BDAC5B7099D9236D6FC6BE3B30FF54188F4FD961686E1E1DC7ECB88037 SWAP2 DUP2 SWAP1 PUSH2 0x21DC SWAP1 DUP16 DUP4 PUSH2 0x2473 JUMP JUMPDEST SUB SWAP1 LOG3 JUMPDEST PUSH1 0x1 PUSH1 0x1 PUSH1 0xA0 SHL SUB SWAP1 DUP2 AND DUP11 MSTORE PUSH1 0x2 PUSH1 0x20 MSTORE PUSH1 0x40 DUP11 KECCAK256 SLOAD PUSH1 0x10 SHR AND SWAP8 JUMPDEST PUSH1 0xFF DUP1 SWAP2 AND SWAP1 DUP2 EQ PUSH2 0x2212 JUMPI PUSH1 0x1 ADD SWAP8 PUSH2 0x20E0 JUMP JUMPDEST PUSH4 0x4E487B71 PUSH1 0xE0 SHL DUP11 MSTORE PUSH1 0x11 PUSH1 0x4 MSTORE PUSH1 0x24 DUP11 REVERT JUMPDEST SWAP1 PUSH2 0x2275 PUSH32 0x117CA0CD821ECB7EADFEA2D6927A67853908BDC351A386235215F5AB6071BFED SWAP2 PUSH1 0x7 PUSH2 0x2259 DUP3 DUP3 SLOAD PUSH2 0x1E82 JUMP JUMPDEST SWAP1 SSTORE PUSH1 0x40 MLOAD PUSH1 0x1 PUSH1 0x1 PUSH1 0xA0 SHL SUB DUP7 AND SWAP5 SWAP1 SWAP3 DUP4 SWAP3 SWAP1 SWAP2 DUP4 PUSH2 0x2473 JUMP JUMPDEST SUB SWAP1 LOG2 PUSH2 0x21E0 JUMP JUMPDEST PUSH1 0x1 SWAP2 POP ADD SLOAD PUSH2 0x228C DUP3 PUSH2 0x25BB JUMP JUMPDEST GT ISZERO CODESIZE PUSH2 0x2145 JUMP JUMPDEST PUSH1 0x1 PUSH1 0x1 PUSH1 0xA0 SHL SUB SWAP2 DUP3 AND DUP12 MSTORE PUSH1 0x2 PUSH1 0x20 MSTORE PUSH1 0x40 DUP12 KECCAK256 SLOAD PUSH1 0x10 SHR SWAP1 SWAP2 AND SWAP9 SWAP1 SWAP7 POP PUSH2 0x21FD JUMP JUMPDEST POP SWAP2 SWAP8 POP SWAP2 SWAP8 PUSH32 0x8AF2C013A5A55C6D3AD5423522FE76C6F2EB831B5E23318276B3C678CB457FC9 SWAP7 POP SWAP3 PUSH2 0x2328 SWAP4 PUSH1 0x64 SWAP7 SWAP6 DUP1 DUP9 DUP6 DIV GT PUSH2 0x232D JUMPI JUMPDEST POP PUSH1 0x40 MLOAD PUSH1 0x1 PUSH1 0x1 PUSH1 0xA0 SHL SUB SWAP1 SWAP7 AND SWAP9 SWAP6 SWAP7 DUP8 SWAP7 DUP2 SWAP1 DIV SWAP4 DIV SWAP2 PUSH12 0x30E68B6D6E0ACC828633631 PUSH1 0x25 SHL DIV SWAP1 DUP7 PUSH2 0x1E8F JUMP JUMPDEST SUB SWAP1 LOG2 JUMP JUMPDEST PUSH2 0x233C PUSH2 0x2344 SWAP2 DUP10 DUP7 DIV PUSH2 0x1E75 JUMP JUMPDEST PUSH1 0x7 SLOAD PUSH2 0x1E82 JUMP JUMPDEST PUSH1 0x7 SSTORE CODESIZE PUSH2 0x22F6 JUMP JUMPDEST POP PUSH1 0x1 PUSH1 0x1 PUSH1 0xA0 SHL SUB DUP2 AND ISZERO ISZERO PUSH2 0x20EE JUMP JUMPDEST PUSH4 0x4E487B71 PUSH1 0xE0 SHL DUP7 MSTORE PUSH1 0x11 PUSH1 0x4 MSTORE PUSH1 0x24 DUP7 REVERT JUMPDEST POP PUSH1 0x20 DUP3 RETURNDATASIZE PUSH1 0x20 GT PUSH2 0x239F JUMPI JUMPDEST DUP2 PUSH2 0x238D PUSH1 0x20 SWAP4 DUP4 PUSH2 0x1DBC JUMP JUMPDEST DUP2 ADD SUB SLT PUSH2 0x5B8 JUMPI PUSH2 0x2004 SWAP2 MLOAD PUSH2 0x1FFA JUMP JUMPDEST RETURNDATASIZE SWAP2 POP PUSH2 0x2380 JUMP JUMPDEST PUSH2 0x23B3 SWAP1 SWAP6 SWAP2 SWAP6 PUSH2 0x1D93 JUMP JUMPDEST SWAP4 CODESIZE PUSH2 0x1FC8 JUMP JUMPDEST DUP7 DUP1 REVERT JUMPDEST SWAP1 SWAP3 POP PUSH1 0x20 DUP2 RETURNDATASIZE PUSH1 0x20 GT PUSH2 0x23EA JUMPI JUMPDEST DUP2 PUSH2 0x23DA PUSH1 0x20 SWAP4 DUP4 PUSH2 0x1DBC JUMP JUMPDEST DUP2 ADD SUB SLT PUSH2 0x23BA JUMPI MLOAD SWAP2 CODESIZE PUSH2 0x1F90 JUMP JUMPDEST RETURNDATASIZE SWAP2 POP PUSH2 0x23CD JUMP JUMPDEST PUSH1 0x40 MLOAD RETURNDATASIZE DUP10 DUP3 RETURNDATACOPY RETURNDATASIZE SWAP1 REVERT JUMPDEST PUSH2 0x2415 SWAP1 PUSH1 0x20 RETURNDATASIZE PUSH1 0x20 GT PUSH2 0x501 JUMPI PUSH2 0x4F3 DUP2 DUP4 PUSH2 0x1DBC JUMP JUMPDEST POP CODESIZE PUSH2 0x1F54 JUMP JUMPDEST PUSH4 0x4E487B71 PUSH1 0xE0 SHL DUP5 MSTORE PUSH1 0x12 PUSH1 0x4 MSTORE PUSH1 0x24 DUP5 REVERT JUMPDEST SWAP1 SWAP5 POP PUSH1 0x20 DUP2 RETURNDATASIZE PUSH1 0x20 GT PUSH2 0x2460 JUMPI JUMPDEST DUP2 PUSH2 0x244C PUSH1 0x20 SWAP4 DUP4 PUSH2 0x1DBC JUMP JUMPDEST DUP2 ADD SUB SLT PUSH2 0x245C JUMPI MLOAD SWAP4 CODESIZE PUSH2 0x1EE8 JUMP JUMPDEST DUP4 DUP1 REVERT JUMPDEST RETURNDATASIZE SWAP2 POP PUSH2 0x243F JUMP JUMPDEST PUSH1 0x40 MLOAD RETURNDATASIZE DUP7 DUP3 RETURNDATACOPY RETURNDATASIZE SWAP1 REVERT JUMPDEST PUSH1 0x20 SWAP1 SWAP4 SWAP3 SWAP2 SWAP4 PUSH1 0xFF PUSH1 0x40 DUP3 ADD SWAP6 AND DUP2 MSTORE ADD MSTORE JUMP JUMPDEST SWAP1 PUSH1 0xFF AND PUSH1 0x1 DUP2 EQ PUSH2 0x25A0 JUMPI PUSH1 0x2 DUP2 EQ PUSH2 0x2585 JUMPI PUSH1 0x3 DUP2 EQ PUSH2 0x256A JUMPI PUSH1 0x4 SWAP1 DUP2 DUP2 EQ PUSH2 0x254E JUMPI PUSH1 0x5 DUP2 EQ PUSH2 0x2532 JUMPI PUSH1 0x6 DUP2 EQ PUSH2 0x251B JUMPI PUSH1 0x7 DUP2 EQ PUSH2 0x251B JUMPI PUSH1 0x8 DUP2 LT ISZERO SWAP1 DUP2 PUSH2 0x250F JUMPI JUMPDEST POP PUSH2 0x24DE JUMPI POP POP PUSH1 0x0 SWAP1 JUMP JUMPDEST PUSH1 0x5 DUP3 MUL SWAP2 DUP1 DUP4 DIV PUSH1 0x5 EQ SWAP1 ISZERO OR ISZERO PUSH2 0x24FA JUMPI POP PUSH2 0x3E8 SWAP1 DIV SWAP1 JUMP JUMPDEST PUSH1 0x11 SWAP1 PUSH4 0x4E487B71 PUSH1 0xE0 SHL PUSH1 0x0 MSTORE MSTORE PUSH1 0x24 PUSH1 0x0 REVERT JUMPDEST PUSH1 0xF SWAP2 POP GT ISZERO CODESIZE PUSH2 0x24D2 JUMP JUMPDEST POP DUP2 DUP1 DIV PUSH1 0x1 EQ DUP3 ISZERO OR ISZERO PUSH2 0x24FA JUMPI POP PUSH1 0x64 SWAP1 DIV SWAP1 JUMP JUMPDEST POP DUP2 PUSH1 0x1 SHL SWAP2 DUP1 DUP4 DIV PUSH1 0x2 EQ SWAP1 ISZERO OR ISZERO PUSH2 0x24FA JUMPI POP PUSH1 0x64 SWAP1 DIV SWAP1 JUMP JUMPDEST POP PUSH1 0x3 DUP3 MUL SWAP2 DUP1 DUP4 DIV PUSH1 0x3 EQ SWAP1 ISZERO OR ISZERO PUSH2 0x24FA JUMPI POP PUSH1 0x64 SWAP1 DIV SWAP1 JUMP JUMPDEST POP DUP1 PUSH1 0x2 SHL SWAP1 DUP1 DUP3 DIV PUSH1 0x4 EQ SWAP1 ISZERO OR ISZERO PUSH2 0x1CDF JUMPI PUSH1 0x64 SWAP1 DIV SWAP1 JUMP JUMPDEST POP PUSH1 0x5 DUP2 MUL SWAP1 DUP1 DUP3 DIV PUSH1 0x5 EQ SWAP1 ISZERO OR ISZERO PUSH2 0x1CDF JUMPI PUSH1 0x64 SWAP1 DIV SWAP1 JUMP JUMPDEST POP PUSH1 0x14 DUP2 MUL SWAP1 DUP1 DUP3 DIV PUSH1 0x14 EQ SWAP1 ISZERO OR ISZERO PUSH2 0x1CDF JUMPI PUSH1 0x64 SWAP1 DIV SWAP1 JUMP JUMPDEST PUSH1 0xFF AND PUSH1 0x1 DUP2 GT ISZERO PUSH2 0x25E8 JUMPI PUSH1 0x4 DUP2 GT ISZERO PUSH2 0x25E2 JUMPI PUSH1 0x7 LT ISZERO PUSH2 0x25DD JUMPI PUSH1 0xA SWAP1 JUMP JUMPDEST PUSH1 0x5 SWAP1 JUMP JUMPDEST POP PUSH1 0x2 SWAP1 JUMP JUMPDEST POP PUSH1 0x0 SWAP1 JUMP JUMPDEST PUSH1 0x1 PUSH1 0x1 PUSH1 0x40 SHL SUB DUP2 GT PUSH2 0x1DA6 JUMPI PUSH1 0x5 SHL PUSH1 0x20 ADD SWAP1 JUMP JUMPDEST DUP1 MLOAD DUP3 LT ISZERO PUSH2 0x1C8E JUMPI PUSH1 0x20 SWAP2 PUSH1 0x5 SHL ADD ADD SWAP1 JUMP JUMPDEST SWAP1 SWAP2 DUP3 DUP1 PUSH2 0x2851 JUMPI JUMPDEST PUSH2 0x2849 JUMPI DUP3 ISZERO SWAP2 DUP3 DUP1 PUSH2 0x2824 JUMPI JUMPDEST PUSH2 0x26E1 JUMPI PUSH1 0x4 SWAP4 DUP5 SLOAD SWAP4 PUSH1 0x1 DUP1 DUP7 ADD DUP1 SWAP7 GT PUSH2 0x280F JUMPI PUSH2 0x264F DUP7 PUSH2 0x25EE JUMP JUMPDEST SWAP1 PUSH2 0x266A PUSH1 0x40 SWAP8 PUSH2 0x2662 DUP10 MLOAD SWAP5 DUP6 PUSH2 0x1DBC JUMP JUMPDEST DUP1 DUP5 MSTORE PUSH2 0x25EE JUMP JUMPDEST SWAP3 PUSH1 0x20 SWAP3 DUP4 DUP2 ADD SWAP5 PUSH1 0x1F NOT ADD CALLDATASIZE DUP7 CALLDATACOPY PUSH1 0x0 DUP1 DUP8 ISZERO PUSH2 0x27F1 JUMPI PUSH1 0x1 PUSH1 0x1 PUSH1 0xA0 SHL SUB DUP10 DUP2 AND DUP4 MSTORE PUSH1 0x2 DUP8 MSTORE DUP12 DUP4 KECCAK256 PUSH1 0x3 ADD SLOAD AND SWAP7 JUMPDEST PUSH1 0x1 PUSH1 0x1 PUSH1 0xA0 SHL SUB SWAP8 DUP9 AND DUP1 PUSH2 0x27C8 JUMPI JUMPDEST POP POP JUMPDEST DUP2 DUP2 LT PUSH2 0x272B JUMPI POP POP POP DUP1 PUSH2 0x2710 JUMPI JUMPDEST PUSH2 0x2705 JUMPI POP DUP3 PUSH2 0x26E9 JUMPI JUMPDEST POP POP PUSH2 0x26E1 JUMPI POP POP MLOAD PUSH4 0xC5BB5BCD PUSH1 0xE0 SHL DUP2 MSTORE REVERT JUMPDEST SWAP3 POP PUSH1 0x0 SWAP2 POP JUMP JUMPDEST DUP2 PUSH1 0x2 SWAP3 SWAP4 POP DUP5 AND PUSH1 0x0 MSTORE MSTORE DUP5 DUP5 PUSH1 0x0 KECCAK256 ADD SLOAD AND ISZERO CODESIZE DUP1 PUSH2 0x26CC JUMP JUMPDEST SWAP4 SWAP7 POP SWAP3 SWAP5 POP POP POP POP JUMP JUMPDEST POP DUP3 DUP6 AND PUSH1 0x0 MSTORE PUSH1 0x2 DUP3 MSTORE DUP3 PUSH1 0x3 DUP9 PUSH1 0x0 KECCAK256 ADD SLOAD AND ISZERO PUSH2 0x26C1 JUMP JUMPDEST DUP7 PUSH2 0x273F PUSH2 0x2738 DUP4 PUSH2 0x1CD0 JUMP JUMPDEST SWAP3 DUP6 PUSH2 0x2605 JUMP JUMPDEST MLOAD AND DUP1 PUSH1 0x0 MSTORE PUSH1 0x2 SWAP1 DUP2 DUP9 MSTORE DUP13 PUSH1 0x0 KECCAK256 DUP10 PUSH1 0x3 DUP3 ADD SLOAD AND SWAP1 DUP2 ISZERO PUSH2 0x27B5 JUMPI DUP16 ADD SLOAD DUP11 AND ISZERO PUSH2 0x27A2 JUMPI PUSH2 0x277A PUSH2 0x2773 DUP7 PUSH2 0x1CD0 JUMP JUMPDEST SWAP6 DUP8 PUSH2 0x2605 JUMP JUMPDEST MSTORE PUSH1 0x0 MSTORE DUP7 MSTORE DUP7 DUP13 DUP13 PUSH1 0x0 KECCAK256 ADD SLOAD AND PUSH2 0x279C PUSH2 0x2795 DUP5 PUSH2 0x1CD0 JUMP JUMPDEST SWAP4 DUP6 PUSH2 0x2605 JUMP JUMPDEST MSTORE PUSH2 0x26B1 JUMP JUMPDEST POP SWAP13 POP PUSH1 0x0 SWAP12 POP POP POP POP POP POP POP POP POP POP POP JUMP JUMPDEST POP SWAP1 SWAP14 POP SWAP6 SWAP12 POP POP POP POP POP POP POP POP POP POP POP JUMP JUMPDEST SWAP1 SWAP3 POP DUP6 SWAP3 DUP5 MLOAD ISZERO PUSH2 0x27DC JUMPI MSTORE CODESIZE DUP1 PUSH2 0x26AE JUMP JUMPDEST PUSH1 0x32 DUP15 PUSH4 0x4E487B71 PUSH1 0xE0 SHL PUSH1 0x0 MSTORE MSTORE PUSH1 0x24 PUSH1 0x0 REVERT JUMPDEST PUSH1 0x1 PUSH1 0x1 PUSH1 0xA0 SHL SUB DUP10 DUP2 AND DUP4 MSTORE PUSH1 0x2 DUP8 MSTORE DUP12 DUP4 KECCAK256 DUP14 ADD SLOAD AND SWAP7 PUSH2 0x269D JUMP JUMPDEST PUSH1 0x11 DUP8 PUSH4 0x4E487B71 PUSH1 0xE0 SHL PUSH1 0x0 MSTORE MSTORE PUSH1 0x24 PUSH1 0x0 REVERT JUMPDEST POP PUSH1 0x1 PUSH1 0x1 PUSH1 0xA0 SHL SUB DUP2 DUP2 AND PUSH1 0x0 SWAP1 DUP2 MSTORE PUSH1 0x2 PUSH1 0x20 MSTORE PUSH1 0x40 SWAP1 KECCAK256 PUSH1 0x4 ADD SLOAD AND ISZERO PUSH2 0x2630 JUMP JUMPDEST SWAP2 POP SWAP1 PUSH1 0x1 SWAP1 JUMP JUMPDEST POP PUSH1 0x1 PUSH1 0x1 PUSH1 0xA0 SHL SUB DUP3 DUP2 AND PUSH1 0x0 SWAP1 DUP2 MSTORE PUSH1 0x2 PUSH1 0x20 MSTORE PUSH1 0x40 SWAP1 KECCAK256 PUSH1 0x3 ADD SLOAD AND ISZERO PUSH2 0x2622 JUMP JUMPDEST PUSH1 0xFF PUSH1 0x9 DUP2 DUP2 SLOAD AND PUSH2 0x2B83 JUMPI PUSH1 0x5 SWAP1 DUP2 SLOAD SWAP5 DUP6 ISZERO PUSH2 0x2B4A JUMPI PUSH1 0x0 SWAP4 DUP5 DUP5 SSTORE PUSH1 0x46 DUP8 MUL DUP8 DUP2 DIV PUSH1 0x46 SUB PUSH2 0x235F JUMPI PUSH1 0x64 SWAP1 DIV SWAP4 PUSH2 0x28B1 DUP6 DUP10 PUSH2 0x1E75 JUMP JUMPDEST SWAP6 PUSH2 0x28C1 PUSH1 0x8 SWAP5 DUP9 DUP7 SSTORE DUP10 PUSH2 0x1E82 JUMP JUMPDEST SWAP4 PUSH1 0x3 DUP1 SLOAD DUP1 DUP8 GT PUSH2 0x2B42 JUMPI JUMPDEST POP DUP3 SWAP10 DUP1 JUMPDEST DUP8 DUP2 LT PUSH2 0x2AAF JUMPI POP DUP11 ISZERO PUSH2 0x2A64 JUMPI JUMPDEST DUP7 DUP2 LT PUSH2 0x2929 JUMPI POP POP POP POP POP POP POP SWAP2 PUSH1 0x80 SWAP4 SWAP2 PUSH1 0x0 DUP1 MLOAD PUSH1 0x20 PUSH2 0x2BD5 DUP4 CODECOPY DUP2 MLOAD SWAP2 MSTORE SWAP6 SWAP4 PUSH1 0x1 PUSH1 0xFF NOT DUP3 SLOAD AND OR SWAP1 SSTORE PUSH1 0x40 MLOAD SWAP4 DUP5 MSTORE PUSH1 0x20 DUP5 ADD MSTORE PUSH1 0x40 DUP4 ADD MSTORE PUSH1 0x60 DUP3 ADD MSTORE LOG1 JUMP JUMPDEST DUP11 DUP7 DUP7 DUP12 DUP12 PUSH2 0x2937 DUP7 PUSH2 0x1C73 JUMP JUMPDEST PUSH1 0x1 DUP1 PUSH1 0xA0 SHL SUB SWAP2 SLOAD SWAP1 DUP10 SHL SHR AND DUP1 DUP11 MSTORE PUSH1 0x2 SWAP3 DUP10 PUSH1 0x20 SWAP4 DUP6 DUP6 MSTORE DUP13 PUSH1 0x40 SWAP8 DUP9 DUP3 KECCAK256 SWAP10 DUP11 SLOAD DUP6 SHR AND ISZERO PUSH2 0x2A50 JUMPI DUP10 ADD SLOAD PUSH1 0x6 DUP11 ADD SLOAD DUP1 DUP3 LT ISZERO PUSH2 0x2A48 JUMPI POP SWAP10 JUMPDEST PUSH1 0x7 SWAP10 DUP11 ADD SLOAD DUP1 DUP13 GT ISZERO PUSH2 0x2A40 JUMPI PUSH2 0x298F SWAP1 DUP13 PUSH2 0x1E75 JUMP JUMPDEST SWAP5 JUMPDEST DUP6 ISZERO PUSH2 0x2A2B JUMPI SWAP2 PUSH2 0x29AB DUP11 SWAP3 PUSH2 0x11BC DUP9 PUSH2 0x29D3 SWAP8 SWAP7 PUSH2 0x1E27 JUMP JUMPDEST SWAP5 DUP8 DUP3 MSTORE DUP10 DUP10 MSTORE DUP3 DUP3 KECCAK256 ADD PUSH2 0x29C1 DUP7 DUP3 SLOAD PUSH2 0x1E82 JUMP JUMPDEST SWAP1 SSTORE DUP7 DUP2 MSTORE DUP9 DUP9 MSTORE KECCAK256 ADD SWAP2 DUP3 SLOAD PUSH2 0x1E82 JUMP JUMPDEST SWAP1 SSTORE PUSH1 0xA DUP1 DUP3 MUL SWAP2 DUP3 DIV SUB PUSH2 0x2A17 JUMPI SWAP1 DUP5 SWAP4 SWAP3 SWAP2 PUSH2 0x2A04 PUSH1 0x11 PUSH2 0x2A12 SWAP11 SWAP10 SWAP9 SWAP8 DUP15 DUP6 DUP2 MSTORE DUP8 DUP8 MSTORE KECCAK256 ADD SWAP2 DUP3 SLOAD PUSH2 0x1E82 JUMP JUMPDEST SWAP1 SSTORE DUP11 MSTORE MSTORE DUP8 KECCAK256 ADD SSTORE PUSH2 0x1CD0 JUMP JUMPDEST PUSH2 0x28E2 JUMP JUMPDEST PUSH4 0x4E487B71 PUSH1 0xE0 SHL DUP12 MSTORE PUSH1 0x11 PUSH1 0x4 MSTORE PUSH1 0x24 DUP12 REVERT JUMPDEST POP POP POP POP POP POP POP POP POP POP POP POP PUSH2 0x2A12 SWAP1 PUSH2 0x1CD0 JUMP JUMPDEST POP DUP2 SWAP5 PUSH2 0x2991 JUMP JUMPDEST SWAP1 POP SWAP10 PUSH2 0x2977 JUMP JUMPDEST POP POP POP POP POP POP POP POP POP POP POP PUSH2 0x2A12 SWAP1 PUSH2 0x1CD0 JUMP JUMPDEST POP POP SWAP4 POP SWAP5 PUSH1 0x80 SWAP8 POP DUP6 SWAP5 POP PUSH2 0x2A91 SWAP3 POP PUSH2 0x233C SWAP2 POP SWAP6 PUSH1 0x0 DUP1 MLOAD PUSH1 0x20 PUSH2 0x2BD5 DUP4 CODECOPY DUP2 MLOAD SWAP2 MSTORE SWAP9 SWAP7 PUSH2 0x1E82 JUMP JUMPDEST PUSH1 0x7 SSTORE SSTORE PUSH1 0x40 MLOAD SWAP2 DUP3 MSTORE DUP1 PUSH1 0x20 DUP4 ADD MSTORE DUP1 PUSH1 0x40 DUP4 ADD MSTORE PUSH1 0x60 DUP3 ADD MSTORE LOG1 JUMP JUMPDEST PUSH2 0x2AB8 DUP2 PUSH2 0x1C73 JUMP JUMPDEST SWAP1 SLOAD SWAP1 DUP5 SHL SHR PUSH1 0x1 PUSH1 0x1 PUSH1 0xA0 SHL SUB AND DUP6 MSTORE PUSH1 0x2 PUSH1 0x20 MSTORE PUSH1 0x40 DUP6 KECCAK256 DUP1 SLOAD DUP6 SHR DUP9 AND ISZERO PUSH2 0x2B38 JUMPI PUSH1 0x7 DUP8 DUP3 ADD SLOAD PUSH1 0x6 DUP4 ADD SLOAD DUP1 DUP3 LT PUSH1 0x0 EQ PUSH2 0x2B30 JUMPI POP SWAP2 JUMPDEST ADD SLOAD SWAP1 DUP2 DUP2 GT PUSH2 0x2B10 JUMPI JUMPDEST POP POP PUSH2 0x2B0B SWAP1 PUSH2 0x1CD0 JUMP JUMPDEST PUSH2 0x28D3 JUMP JUMPDEST SWAP13 PUSH2 0x2B22 PUSH2 0x2B28 SWAP3 PUSH2 0x2B0B SWAP5 SWAP16 PUSH2 0x1E75 JUMP JUMPDEST SWAP1 PUSH2 0x1E82 JUMP JUMPDEST SWAP12 SWAP1 CODESIZE PUSH2 0x2B00 JUMP JUMPDEST SWAP1 POP SWAP2 PUSH2 0x2AF5 JUMP JUMPDEST POP PUSH2 0x2B0B SWAP1 PUSH2 0x1CD0 JUMP JUMPDEST SWAP6 POP CODESIZE PUSH2 0x28CE JUMP JUMPDEST PUSH1 0x40 MLOAD PUSH3 0x461BCD PUSH1 0xE5 SHL DUP2 MSTORE PUSH1 0x20 PUSH1 0x4 DUP3 ADD MSTORE PUSH1 0x11 PUSH1 0x24 DUP3 ADD MSTORE PUSH17 0x115B5C1D1E48189A5B985C9E481C1BDBDB PUSH1 0x7A SHL PUSH1 0x44 DUP3 ADD MSTORE PUSH1 0x64 SWAP1 REVERT JUMPDEST PUSH1 0x40 MLOAD PUSH3 0xC94879 PUSH1 0xE4 SHL DUP2 MSTORE PUSH1 0x4 SWAP1 REVERT INVALID CALLVALUE SELFDESTRUCT CALLDATACOPY DUP8 0x4D PUSH21 0x43037A85C6F390FE14F2AE3E8767355DE0E63891AD NUMBER PUSH8 0xC275398BE0079C53 AND MSIZE EQ SGT PREVRANDAO 0xCD 0x1F 0xD0 LOG4 CALLCODE DUP5 NOT 0x49 PUSH32 0x9722A3DAAFE3B4186F6B6457E0A0EA5705200C9FFD36DC735FEF1592C3234BB7 0xE3 GT 0xFC SHL EXP PREVRANDAO 0x4F PUSH4 0x70D0620E 0xAE SWAP12 PUSH24 0x9B17422D0DF92223018B32B4D1FA46E071723D6817E2486D STOP EXTCODESIZE 0xEC 0xC5 PUSH0 STOP LOG2 PUSH5 0x6970667358 0x22 SLT KECCAK256 ORIGIN 0xA7 SHR 0xDD 0xD0 DIV CODESIZE PUSH21 0x9E5445CA10420EDD2CCAE34DB6E98B18D2D38CFC74 0x4B SSTORE 0xF8 PUSH5 0x736F6C6343 STOP ADDMOD EQ STOP CALLER "},"methodIdentifiers":{"BINARY_ALLOC()":"44e374d5","BTC_POOL_RATE()":"92446e30","INCOME_LIMIT()":"aa393757","LEVEL_ALLOC()":"77537844","PACKAGE_PRICE()":"039ccc26","activate()":"0f15f4c0","adminPool()":"b86a1fb2","allUsers(uint256)":"a2bdedf4","binaryPool()":"7f1b4064","canRebirth(address)":"e51cb530","distributeBinaryIncome(uint256,uint256)":"2d641f08","distributePowerLeg(uint256,uint256)":"8a8f0429","getAllUsersCount()":"38abfc41","getBtcPoolInfo(address)":"03c3ecb7","getCurrentBinaryPairs(address)":"f24c536a","getMvtContractBalance()":"ce8292f5","getMvtPrice()":"68ddb2b5","getPoolBalances()":"52375bb1","getUserInfo(address)":"6386c1c7","mvaultToken()":"1f6259d5","owner()":"8da5cb5b","rebirth(address,bool)":"94915dd0","register(address,address,bool)":"aa33f5d5","renounceOwnership()":"715018a6","reservePool()":"0266f044","sellMvt(uint256)":"634f627e","setMvaultToken(address)":"1ce5e894","totalUsers()":"bff1f9e1","transferOwnership(address)":"f2fde38b","usdtToken()":"a98ad46c","users(address)":"a87430ba","withdrawAdminPool(address,uint256)":"2808bc8d","withdrawBtcPool(uint256)":"b58e0278","withdrawReservePool(address,uint256)":"ec50324a","withdrawUsdt(uint256)":"d3635a02"}}}}}