{"contracts/MLMContract.sol":{"MLMContract":{"abi":[{"inputs":[{"internalType":"address","name":"_paymentToken","type":"address"},{"internalType":"uint8","name":"_tokenDecimals","type":"uint8"},{"internalType":"address","name":"_feeRecipient","type":"address"},{"internalType":"address","name":"_adminBinaryWallet","type":"address"}],"stateMutability":"nonpayable","type":"constructor"},{"inputs":[],"name":"EnforcedPause","type":"error"},{"inputs":[],"name":"ExpectedPause","type":"error"},{"inputs":[{"internalType":"address","name":"owner","type":"address"}],"name":"OwnableInvalidOwner","type":"error"},{"inputs":[{"internalType":"address","name":"account","type":"address"}],"name":"OwnableUnauthorizedAccount","type":"error"},{"inputs":[],"name":"ReentrancyGuardReentrantCall","type":"error"},{"inputs":[{"internalType":"address","name":"token","type":"address"}],"name":"SafeERC20FailedOperation","type":"error"},{"anonymous":false,"inputs":[{"indexed":true,"internalType":"address","name":"oldWallet","type":"address"},{"indexed":true,"internalType":"address","name":"newWallet","type":"address"}],"name":"AdminBinaryWalletUpdated","type":"event"},{"anonymous":false,"inputs":[{"indexed":false,"internalType":"uint256","name":"batchNumber","type":"uint256"},{"indexed":false,"internalType":"uint256","name":"processedCount","type":"uint256"}],"name":"BinaryBatchProcessed","type":"event"},{"anonymous":false,"inputs":[{"indexed":false,"internalType":"uint256","name":"oldSize","type":"uint256"},{"indexed":false,"internalType":"uint256","name":"newSize","type":"uint256"}],"name":"BinaryBatchSizeUpdated","type":"event"},{"anonymous":false,"inputs":[{"indexed":true,"internalType":"address","name":"user","type":"address"},{"indexed":false,"internalType":"uint256","name":"flushedAmount","type":"uint256"}],"name":"BinaryFlushed","type":"event"},{"anonymous":false,"inputs":[{"indexed":true,"internalType":"address","name":"user","type":"address"},{"indexed":false,"internalType":"uint256","name":"amount","type":"uint256"}],"name":"BinaryIncomeAllocated","type":"event"},{"anonymous":false,"inputs":[{"indexed":true,"internalType":"address","name":"user","type":"address"},{"indexed":false,"internalType":"uint256","name":"amount","type":"uint256"}],"name":"BinaryIncomeClaimed","type":"event"},{"anonymous":false,"inputs":[{"indexed":true,"internalType":"address","name":"processor","type":"address"},{"indexed":false,"internalType":"bool","name":"status","type":"bool"}],"name":"BinaryProcessorUpdated","type":"event"},{"anonymous":false,"inputs":[{"indexed":true,"internalType":"address","name":"oldHandler","type":"address"},{"indexed":true,"internalType":"address","name":"newHandler","type":"address"}],"name":"BoardHandlerUpdated","type":"event"},{"anonymous":false,"inputs":[{"indexed":true,"internalType":"address","name":"user","type":"address"},{"indexed":false,"internalType":"uint256","name":"amount","type":"uint256"}],"name":"BtcPoolCredited","type":"event"},{"anonymous":false,"inputs":[{"indexed":true,"internalType":"address","name":"to","type":"address"},{"indexed":false,"internalType":"uint256","name":"amount","type":"uint256"}],"name":"ContractFundsWithdrawn","type":"event"},{"anonymous":false,"inputs":[{"indexed":false,"internalType":"enum MLMContract.Package","name":"pkg","type":"uint8"},{"indexed":false,"internalType":"uint256","name":"oldCap","type":"uint256"},{"indexed":false,"internalType":"uint256","name":"newCap","type":"uint256"}],"name":"DailyCappingUpdated","type":"event"},{"anonymous":false,"inputs":[{"indexed":true,"internalType":"address","name":"to","type":"address"},{"indexed":false,"internalType":"uint256","name":"amount","type":"uint256"}],"name":"DepositWithdrawn","type":"event"},{"anonymous":false,"inputs":[{"indexed":true,"internalType":"address","name":"user","type":"address"},{"indexed":false,"internalType":"uint256","name":"amount","type":"uint256"}],"name":"Deposited","type":"event"},{"anonymous":false,"inputs":[{"indexed":true,"internalType":"address","name":"recipient","type":"address"},{"indexed":true,"internalType":"address","name":"from","type":"address"},{"indexed":false,"internalType":"uint256","name":"amount","type":"uint256"}],"name":"DirectIncomeDistributed","type":"event"},{"anonymous":false,"inputs":[{"indexed":true,"internalType":"address","name":"token","type":"address"},{"indexed":true,"internalType":"address","name":"to","type":"address"},{"indexed":false,"internalType":"uint256","name":"amount","type":"uint256"}],"name":"EmergencyTokenRecovery","type":"event"},{"anonymous":false,"inputs":[{"indexed":true,"internalType":"address","name":"oldRecipient","type":"address"},{"indexed":true,"internalType":"address","name":"newRecipient","type":"address"}],"name":"FeeRecipientUpdated","type":"event"},{"anonymous":false,"inputs":[{"indexed":true,"internalType":"address","name":"user","type":"address"},{"indexed":false,"internalType":"uint256","name":"userId","type":"uint256"},{"indexed":false,"internalType":"enum MLMContract.Package","name":"pkg","type":"uint8"},{"indexed":true,"internalType":"address","name":"sponsor","type":"address"}],"name":"FreeAccountActivated","type":"event"},{"anonymous":false,"inputs":[{"indexed":true,"internalType":"address","name":"user","type":"address"},{"indexed":false,"internalType":"uint256","name":"flushedAmount","type":"uint256"}],"name":"GracePeriodExpired","type":"event"},{"anonymous":false,"inputs":[{"indexed":true,"internalType":"address","name":"user","type":"address"},{"indexed":false,"internalType":"uint256","name":"startTime","type":"uint256"}],"name":"GracePeriodStarted","type":"event"},{"anonymous":false,"inputs":[{"indexed":true,"internalType":"address","name":"oldToken","type":"address"},{"indexed":true,"internalType":"address","name":"newToken","type":"address"}],"name":"MTokenUpdated","type":"event"},{"anonymous":false,"inputs":[{"indexed":true,"internalType":"address","name":"recipient","type":"address"},{"indexed":true,"internalType":"address","name":"from","type":"address"},{"indexed":false,"internalType":"uint256","name":"amount","type":"uint256"},{"indexed":false,"internalType":"uint256","name":"level","type":"uint256"}],"name":"MatchingOverrideDistributed","type":"event"},{"anonymous":false,"inputs":[{"indexed":false,"internalType":"enum MLMContract.Package","name":"pkg","type":"uint8"},{"indexed":false,"internalType":"uint256","name":"oldLimit","type":"uint256"},{"indexed":false,"internalType":"uint256","name":"newLimit","type":"uint256"}],"name":"MaxIncomeLimitUpdated","type":"event"},{"anonymous":false,"inputs":[{"indexed":true,"internalType":"address","name":"previousOwner","type":"address"},{"indexed":true,"internalType":"address","name":"newOwner","type":"address"}],"name":"OwnershipTransferred","type":"event"},{"anonymous":false,"inputs":[{"indexed":true,"internalType":"address","name":"user","type":"address"},{"indexed":false,"internalType":"enum MLMContract.Package","name":"pkg","type":"uint8"},{"indexed":false,"internalType":"uint256","name":"amountPaid","type":"uint256"}],"name":"PackageActivated","type":"event"},{"anonymous":false,"inputs":[{"indexed":false,"internalType":"enum MLMContract.Package","name":"pkg","type":"uint8"},{"indexed":false,"internalType":"uint256","name":"oldPrice","type":"uint256"},{"indexed":false,"internalType":"uint256","name":"newPrice","type":"uint256"}],"name":"PackagePriceUpdated","type":"event"},{"anonymous":false,"inputs":[{"indexed":true,"internalType":"address","name":"user","type":"address"},{"indexed":false,"internalType":"enum MLMContract.Package","name":"oldPkg","type":"uint8"},{"indexed":false,"internalType":"enum MLMContract.Package","name":"newPkg","type":"uint8"},{"indexed":false,"internalType":"uint256","name":"amountPaid","type":"uint256"}],"name":"PackageUpgraded","type":"event"},{"anonymous":false,"inputs":[{"indexed":false,"internalType":"address","name":"account","type":"address"}],"name":"Paused","type":"event"},{"anonymous":false,"inputs":[{"indexed":true,"internalType":"address","name":"oldToken","type":"address"},{"indexed":true,"internalType":"address","name":"newToken","type":"address"}],"name":"PaymentTokenUpdated","type":"event"},{"anonymous":false,"inputs":[{"indexed":true,"internalType":"address","name":"oldAddr","type":"address"},{"indexed":true,"internalType":"address","name":"newAddr","type":"address"}],"name":"ProductWalletUpdated","type":"event"},{"anonymous":false,"inputs":[{"indexed":true,"internalType":"address","name":"user","type":"address"}],"name":"ProfileUpdated","type":"event"},{"anonymous":false,"inputs":[{"indexed":true,"internalType":"address","name":"user","type":"address"},{"indexed":false,"internalType":"enum MLMContract.Package","name":"pkg","type":"uint8"},{"indexed":false,"internalType":"uint256","name":"amountPaid","type":"uint256"}],"name":"Reactivated","type":"event"},{"anonymous":false,"inputs":[{"indexed":true,"internalType":"address","name":"user","type":"address"},{"indexed":false,"internalType":"uint256","name":"amount","type":"uint256"}],"name":"TempWalletClaimed","type":"event"},{"anonymous":false,"inputs":[{"indexed":false,"internalType":"address","name":"account","type":"address"}],"name":"Unpaused","type":"event"},{"anonymous":false,"inputs":[{"indexed":true,"internalType":"address","name":"user","type":"address"},{"indexed":false,"internalType":"uint256","name":"userId","type":"uint256"},{"indexed":true,"internalType":"address","name":"sponsor","type":"address"},{"indexed":true,"internalType":"address","name":"binaryParent","type":"address"},{"indexed":false,"internalType":"enum MLMContract.Side","name":"side","type":"uint8"}],"name":"UserRegistered","type":"event"},{"anonymous":false,"inputs":[{"indexed":true,"internalType":"address","name":"user","type":"address"},{"indexed":false,"internalType":"uint256","name":"netAmount","type":"uint256"},{"indexed":false,"internalType":"uint256","name":"fee","type":"uint256"}],"name":"Withdrawal","type":"event"},{"anonymous":false,"inputs":[{"indexed":false,"internalType":"uint256","name":"oldFee","type":"uint256"},{"indexed":false,"internalType":"uint256","name":"newFee","type":"uint256"}],"name":"WithdrawalFeeUpdated","type":"event"},{"anonymous":false,"inputs":[{"indexed":true,"internalType":"address","name":"recipient","type":"address"},{"indexed":true,"internalType":"address","name":"from","type":"address"},{"indexed":false,"internalType":"uint256","name":"amount","type":"uint256"},{"indexed":false,"internalType":"uint256","name":"level","type":"uint256"}],"name":"WithdrawalMatchDistributed","type":"event"},{"anonymous":false,"inputs":[{"indexed":false,"internalType":"uint256","name":"oldRate","type":"uint256"},{"indexed":false,"internalType":"uint256","name":"newRate","type":"uint256"}],"name":"WithdrawalUsdtRateUpdated","type":"event"},{"inputs":[],"name":"BASIS_POINTS","outputs":[{"internalType":"uint256","name":"","type":"uint256"}],"stateMutability":"view","type":"function"},{"inputs":[],"name":"BTC_POOL_RATE","outputs":[{"internalType":"uint256","name":"","type":"uint256"}],"stateMutability":"view","type":"function"},{"inputs":[],"name":"GRACE_PERIOD_DURATION","outputs":[{"internalType":"uint256","name":"","type":"uint256"}],"stateMutability":"view","type":"function"},{"inputs":[],"name":"INCOME_SPLIT_RATE","outputs":[{"internalType":"uint256","name":"","type":"uint256"}],"stateMutability":"view","type":"function"},{"inputs":[],"name":"MATCHING_OVERRIDE_RATE","outputs":[{"internalType":"uint256","name":"","type":"uint256"}],"stateMutability":"view","type":"function"},{"inputs":[],"name":"MAX_USER_ID","outputs":[{"internalType":"uint256","name":"","type":"uint256"}],"stateMutability":"view","type":"function"},{"inputs":[],"name":"MIN_USER_ID","outputs":[{"internalType":"uint256","name":"","type":"uint256"}],"stateMutability":"view","type":"function"},{"inputs":[],"name":"PRODUCT_WALLET_RATE","outputs":[{"internalType":"uint256","name":"","type":"uint256"}],"stateMutability":"view","type":"function"},{"inputs":[],"name":"WITHDRAWAL_MATCH_POOL_RATE","outputs":[{"internalType":"uint256","name":"","type":"uint256"}],"stateMutability":"view","type":"function"},{"inputs":[{"internalType":"enum MLMContract.Package","name":"_pkg","type":"uint8"}],"name":"activatePackage","outputs":[],"stateMutability":"nonpayable","type":"function"},{"inputs":[{"internalType":"address","name":"_user","type":"address"},{"internalType":"uint256","name":"_sponsorId","type":"uint256"},{"internalType":"uint256","name":"_binaryParentId","type":"uint256"},{"internalType":"bool","name":"_placeLeft","type":"bool"},{"internalType":"enum MLMContract.Package","name":"_pkg","type":"uint8"}],"name":"adminActivateUser","outputs":[],"stateMutability":"nonpayable","type":"function"},{"inputs":[],"name":"adminBinaryWallet","outputs":[{"internalType":"address","name":"","type":"address"}],"stateMutability":"view","type":"function"},{"inputs":[{"internalType":"address","name":"_to","type":"address"},{"internalType":"uint256","name":"_amount","type":"uint256"}],"name":"adminWithdrawDeposits","outputs":[],"stateMutability":"nonpayable","type":"function"},{"inputs":[{"internalType":"uint256","name":"","type":"uint256"}],"name":"allUsers","outputs":[{"internalType":"address","name":"","type":"address"}],"stateMutability":"view","type":"function"},{"inputs":[{"internalType":"uint256","name":"_batchNumber","type":"uint256"}],"name":"autoDistributeBinaryIncome","outputs":[],"stateMutability":"nonpayable","type":"function"},{"inputs":[{"internalType":"address[]","name":"_users","type":"address[]"}],"name":"batchFlushGracePeriods","outputs":[],"stateMutability":"nonpayable","type":"function"},{"inputs":[],"name":"binaryBatchSize","outputs":[{"internalType":"uint256","name":"","type":"uint256"}],"stateMutability":"view","type":"function"},{"inputs":[{"internalType":"address","name":"","type":"address"}],"name":"boardEntryCount","outputs":[{"internalType":"uint256","name":"","type":"uint256"}],"stateMutability":"view","type":"function"},{"inputs":[],"name":"boardHandler","outputs":[{"internalType":"contract IBoardMatrixHandler","name":"","type":"address"}],"stateMutability":"view","type":"function"},{"inputs":[{"internalType":"address","name":"","type":"address"}],"name":"btcPoolBalance","outputs":[{"internalType":"uint256","name":"","type":"uint256"}],"stateMutability":"view","type":"function"},{"inputs":[],"name":"claimBinaryIncome","outputs":[],"stateMutability":"nonpayable","type":"function"},{"inputs":[{"internalType":"uint256","name":"","type":"uint256"}],"name":"dailyCapping","outputs":[{"internalType":"uint256","name":"","type":"uint256"}],"stateMutability":"view","type":"function"},{"inputs":[{"internalType":"uint256","name":"_amount","type":"uint256"}],"name":"deposit","outputs":[],"stateMutability":"nonpayable","type":"function"},{"inputs":[{"internalType":"address","name":"","type":"address"}],"name":"depositBalance","outputs":[{"internalType":"uint256","name":"","type":"uint256"}],"stateMutability":"view","type":"function"},{"inputs":[{"internalType":"uint256","name":"","type":"uint256"}],"name":"directRates","outputs":[{"internalType":"uint256","name":"","type":"uint256"}],"stateMutability":"view","type":"function"},{"inputs":[{"internalType":"address","name":"","type":"address"},{"internalType":"uint256","name":"","type":"uint256"}],"name":"directReferrals","outputs":[{"internalType":"address","name":"","type":"address"}],"stateMutability":"view","type":"function"},{"inputs":[],"name":"enterBoardPool","outputs":[],"stateMutability":"nonpayable","type":"function"},{"inputs":[],"name":"feeRecipient","outputs":[{"internalType":"address","name":"","type":"address"}],"stateMutability":"view","type":"function"},{"inputs":[{"internalType":"address","name":"_user","type":"address"}],"name":"flushGracePeriod","outputs":[],"stateMutability":"nonpayable","type":"function"},{"inputs":[{"internalType":"uint256","name":"_userId","type":"uint256"}],"name":"getAddressByUserId","outputs":[{"internalType":"address","name":"","type":"address"}],"stateMutability":"view","type":"function"},{"inputs":[{"internalType":"address","name":"_user","type":"address"}],"name":"getBinaryInfo","outputs":[{"internalType":"uint256","name":"leftBusiness","type":"uint256"},{"internalType":"uint256","name":"rightBusiness","type":"uint256"},{"internalType":"uint256","name":"carryLeft","type":"uint256"},{"internalType":"uint256","name":"carryRight","type":"uint256"},{"internalType":"uint256","name":"todayBinaryIncome","type":"uint256"},{"internalType":"uint256","name":"dailyCap","type":"uint256"},{"internalType":"uint256","name":"claimableBinaryIncome","type":"uint256"},{"internalType":"uint256","name":"binaryDepth","type":"uint256"}],"stateMutability":"view","type":"function"},{"inputs":[{"internalType":"address","name":"_user","type":"address"}],"name":"getBinarySlabInfo","outputs":[{"internalType":"uint256[4]","name":"carryLeftSlabs","type":"uint256[4]"},{"internalType":"uint256[4]","name":"carryRightSlabs","type":"uint256[4]"},{"internalType":"uint256[4]","name":"matchableSlabs","type":"uint256[4]"},{"internalType":"uint256[4]","name":"potentialIncomeSlabs","type":"uint256[4]"},{"internalType":"uint256[4]","name":"rates","type":"uint256[4]"}],"stateMutability":"view","type":"function"},{"inputs":[{"internalType":"uint256","name":"_boardLevel","type":"uint256"}],"name":"getBoardCurrentIndex","outputs":[{"internalType":"uint256","name":"","type":"uint256"}],"stateMutability":"view","type":"function"},{"inputs":[{"internalType":"uint256","name":"_boardLevel","type":"uint256"},{"internalType":"uint256","name":"_index","type":"uint256"}],"name":"getBoardMatrixInfo","outputs":[{"internalType":"address","name":"owner","type":"address"},{"internalType":"uint256","name":"filledCount","type":"uint256"},{"internalType":"bool","name":"completed","type":"bool"}],"stateMutability":"view","type":"function"},{"inputs":[{"internalType":"uint256","name":"_boardLevel","type":"uint256"}],"name":"getBoardPrice","outputs":[{"internalType":"uint256","name":"","type":"uint256"}],"stateMutability":"view","type":"function"},{"inputs":[{"internalType":"uint256","name":"_boardLevel","type":"uint256"}],"name":"getBoardQueueLength","outputs":[{"internalType":"uint256","name":"","type":"uint256"}],"stateMutability":"view","type":"function"},{"inputs":[{"internalType":"address","name":"_user","type":"address"}],"name":"getBtcPoolBalance","outputs":[{"internalType":"uint256","name":"","type":"uint256"}],"stateMutability":"view","type":"function"},{"inputs":[],"name":"getContractBalance","outputs":[{"internalType":"uint256","name":"","type":"uint256"}],"stateMutability":"view","type":"function"},{"inputs":[{"internalType":"address","name":"_user","type":"address"}],"name":"getDepositBalance","outputs":[{"internalType":"uint256","name":"","type":"uint256"}],"stateMutability":"view","type":"function"},{"inputs":[{"internalType":"address","name":"_user","type":"address"}],"name":"getDirectReferrals","outputs":[{"internalType":"address[]","name":"","type":"address[]"}],"stateMutability":"view","type":"function"},{"inputs":[{"internalType":"address","name":"_user","type":"address"},{"internalType":"uint256","name":"_offset","type":"uint256"},{"internalType":"uint256","name":"_limit","type":"uint256"}],"name":"getDirectReferralsPaginated","outputs":[{"internalType":"address[]","name":"referrals","type":"address[]"},{"internalType":"uint256","name":"total","type":"uint256"}],"stateMutability":"view","type":"function"},{"inputs":[{"internalType":"address","name":"_user","type":"address"}],"name":"getIncomeInfo","outputs":[{"internalType":"uint256","name":"totalDirectIncome","type":"uint256"},{"internalType":"uint256","name":"totalBinaryIncome","type":"uint256"},{"internalType":"uint256","name":"totalMatchingOverrideIncome","type":"uint256"},{"internalType":"uint256","name":"totalWithdrawalMatchIncome","type":"uint256"},{"internalType":"uint256","name":"totalEarnings","type":"uint256"},{"internalType":"uint256","name":"totalWithdrawn","type":"uint256"},{"internalType":"uint256","name":"maxIncome","type":"uint256"}],"stateMutability":"view","type":"function"},{"inputs":[{"internalType":"enum MLMContract.Package","name":"_pkg","type":"uint8"}],"name":"getMaxIncomeLimit","outputs":[{"internalType":"uint256","name":"","type":"uint256"}],"stateMutability":"view","type":"function"},{"inputs":[{"internalType":"enum MLMContract.Package","name":"_pkg","type":"uint8"}],"name":"getPackagePrice","outputs":[{"internalType":"uint256","name":"","type":"uint256"}],"stateMutability":"view","type":"function"},{"inputs":[{"internalType":"address","name":"_user","type":"address"}],"name":"getProfile","outputs":[{"internalType":"string","name":"displayName","type":"string"},{"internalType":"string","name":"email","type":"string"},{"internalType":"string","name":"phone","type":"string"},{"internalType":"string","name":"country","type":"string"},{"internalType":"bool","name":"profileSet","type":"bool"}],"stateMutability":"view","type":"function"},{"inputs":[],"name":"getTotalBatches","outputs":[{"internalType":"uint256","name":"","type":"uint256"}],"stateMutability":"view","type":"function"},{"inputs":[],"name":"getTotalUsers","outputs":[{"internalType":"uint256","name":"","type":"uint256"}],"stateMutability":"view","type":"function"},{"inputs":[{"internalType":"uint256","name":"_index","type":"uint256"}],"name":"getUserByIndex","outputs":[{"internalType":"address","name":"","type":"address"}],"stateMutability":"view","type":"function"},{"inputs":[{"internalType":"address","name":"_user","type":"address"}],"name":"getUserIdByAddress","outputs":[{"internalType":"uint256","name":"","type":"uint256"}],"stateMutability":"view","type":"function"},{"inputs":[{"internalType":"address","name":"_user","type":"address"}],"name":"getUserInfo","outputs":[{"internalType":"uint256","name":"userId","type":"uint256"},{"internalType":"address","name":"sponsor","type":"address"},{"internalType":"address","name":"binaryParent","type":"address"},{"internalType":"address","name":"leftChild","type":"address"},{"internalType":"address","name":"rightChild","type":"address"},{"internalType":"enum MLMContract.Side","name":"placementSide","type":"uint8"},{"internalType":"enum MLMContract.Package","name":"userPackage","type":"uint8"},{"internalType":"enum MLMContract.Status","name":"status","type":"uint8"},{"internalType":"uint256","name":"walletBalance","type":"uint256"},{"internalType":"uint256","name":"tempWalletBalance","type":"uint256"},{"internalType":"uint256","name":"totalEarnings","type":"uint256"},{"internalType":"uint256","name":"directReferralCount","type":"uint256"},{"internalType":"uint256","name":"joinedAt","type":"uint256"}],"stateMutability":"view","type":"function"},{"inputs":[{"internalType":"address","name":"_user","type":"address"}],"name":"getUserTransactionCount","outputs":[{"internalType":"uint256","name":"","type":"uint256"}],"stateMutability":"view","type":"function"},{"inputs":[{"internalType":"address","name":"_user","type":"address"},{"internalType":"uint256","name":"_offset","type":"uint256"},{"internalType":"uint256","name":"_limit","type":"uint256"}],"name":"getUserTransactionsPaginated","outputs":[{"internalType":"enum MLMContract.TxType[]","name":"txTypes","type":"uint8[]"},{"internalType":"uint256[]","name":"amounts","type":"uint256[]"},{"internalType":"uint256[]","name":"timestamps","type":"uint256[]"},{"internalType":"address[]","name":"relatedUsers","type":"address[]"},{"internalType":"uint8[]","name":"extraDatas","type":"uint8[]"},{"internalType":"uint256","name":"total","type":"uint256"}],"stateMutability":"view","type":"function"},{"inputs":[{"internalType":"address","name":"","type":"address"}],"name":"isBinaryProcessor","outputs":[{"internalType":"bool","name":"","type":"bool"}],"stateMutability":"view","type":"function"},{"inputs":[{"internalType":"address","name":"","type":"address"}],"name":"isFreeAccount","outputs":[{"internalType":"bool","name":"","type":"bool"}],"stateMutability":"view","type":"function"},{"inputs":[{"internalType":"address","name":"","type":"address"}],"name":"isRegistered","outputs":[{"internalType":"bool","name":"","type":"bool"}],"stateMutability":"view","type":"function"},{"inputs":[{"internalType":"address","name":"_user","type":"address"},{"internalType":"uint256","name":"_price","type":"uint256"},{"internalType":"uint256","name":"_boardLevel","type":"uint256"}],"name":"logBoardEntry","outputs":[],"stateMutability":"nonpayable","type":"function"},{"inputs":[{"internalType":"address","name":"_user","type":"address"},{"internalType":"uint256","name":"_reward","type":"uint256"},{"internalType":"uint256","name":"_boardLevel","type":"uint256"}],"name":"logBoardReward","outputs":[],"stateMutability":"nonpayable","type":"function"},{"inputs":[],"name":"mToken","outputs":[{"internalType":"contract IERC20","name":"","type":"address"}],"stateMutability":"view","type":"function"},{"inputs":[{"internalType":"uint256","name":"","type":"uint256"}],"name":"matchingOverrideMaxLevels","outputs":[{"internalType":"uint256","name":"","type":"uint256"}],"stateMutability":"view","type":"function"},{"inputs":[{"internalType":"uint256","name":"","type":"uint256"}],"name":"maxIncomeLimit","outputs":[{"internalType":"uint256","name":"","type":"uint256"}],"stateMutability":"view","type":"function"},{"inputs":[],"name":"owner","outputs":[{"internalType":"address","name":"","type":"address"}],"stateMutability":"view","type":"function"},{"inputs":[{"internalType":"uint256","name":"","type":"uint256"}],"name":"packagePrices","outputs":[{"internalType":"uint256","name":"","type":"uint256"}],"stateMutability":"view","type":"function"},{"inputs":[],"name":"pause","outputs":[],"stateMutability":"nonpayable","type":"function"},{"inputs":[],"name":"paused","outputs":[{"internalType":"bool","name":"","type":"bool"}],"stateMutability":"view","type":"function"},{"inputs":[],"name":"paymentToken","outputs":[{"internalType":"contract IERC20","name":"","type":"address"}],"stateMutability":"view","type":"function"},{"inputs":[],"name":"productWallet","outputs":[{"internalType":"address","name":"","type":"address"}],"stateMutability":"view","type":"function"},{"inputs":[{"internalType":"enum MLMContract.Package","name":"_pkg","type":"uint8"}],"name":"reactivate","outputs":[],"stateMutability":"nonpayable","type":"function"},{"inputs":[{"internalType":"address","name":"_token","type":"address"},{"internalType":"address","name":"_to","type":"address"},{"internalType":"uint256","name":"_amount","type":"uint256"}],"name":"recoverToken","outputs":[],"stateMutability":"nonpayable","type":"function"},{"inputs":[{"internalType":"uint256","name":"_sponsorId","type":"uint256"},{"internalType":"uint256","name":"_binaryParentId","type":"uint256"},{"internalType":"bool","name":"_placeLeft","type":"bool"}],"name":"register","outputs":[],"stateMutability":"nonpayable","type":"function"},{"inputs":[],"name":"renounceOwnership","outputs":[],"stateMutability":"nonpayable","type":"function"},{"inputs":[],"name":"repurchase","outputs":[],"stateMutability":"nonpayable","type":"function"},{"inputs":[{"internalType":"address","name":"_wallet","type":"address"}],"name":"setAdminBinaryWallet","outputs":[],"stateMutability":"nonpayable","type":"function"},{"inputs":[{"internalType":"uint256","name":"_size","type":"uint256"}],"name":"setBinaryBatchSize","outputs":[],"stateMutability":"nonpayable","type":"function"},{"inputs":[{"internalType":"address","name":"_processor","type":"address"},{"internalType":"bool","name":"_status","type":"bool"}],"name":"setBinaryProcessor","outputs":[],"stateMutability":"nonpayable","type":"function"},{"inputs":[{"internalType":"address","name":"_handler","type":"address"}],"name":"setBoardHandler","outputs":[],"stateMutability":"nonpayable","type":"function"},{"inputs":[{"internalType":"enum MLMContract.Package","name":"_pkg","type":"uint8"},{"internalType":"uint256","name":"_cap","type":"uint256"}],"name":"setDailyCapping","outputs":[],"stateMutability":"nonpayable","type":"function"},{"inputs":[{"internalType":"address","name":"_newRecipient","type":"address"}],"name":"setFeeRecipient","outputs":[],"stateMutability":"nonpayable","type":"function"},{"inputs":[{"internalType":"address","name":"_token","type":"address"}],"name":"setMToken","outputs":[],"stateMutability":"nonpayable","type":"function"},{"inputs":[{"internalType":"enum MLMContract.Package","name":"_pkg","type":"uint8"},{"internalType":"uint256","name":"_limit","type":"uint256"}],"name":"setMaxIncomeLimit","outputs":[],"stateMutability":"nonpayable","type":"function"},{"inputs":[{"internalType":"enum MLMContract.Package","name":"_pkg","type":"uint8"},{"internalType":"uint256","name":"_price","type":"uint256"}],"name":"setPackagePrice","outputs":[],"stateMutability":"nonpayable","type":"function"},{"inputs":[{"internalType":"address","name":"_wallet","type":"address"}],"name":"setProductWallet","outputs":[],"stateMutability":"nonpayable","type":"function"},{"inputs":[{"internalType":"string","name":"_displayName","type":"string"},{"internalType":"string","name":"_email","type":"string"},{"internalType":"string","name":"_phone","type":"string"},{"internalType":"string","name":"_country","type":"string"}],"name":"setProfile","outputs":[],"stateMutability":"nonpayable","type":"function"},{"inputs":[{"internalType":"uint256","name":"_feeBasisPoints","type":"uint256"}],"name":"setWithdrawalFee","outputs":[],"stateMutability":"nonpayable","type":"function"},{"inputs":[{"internalType":"uint256","name":"_rateBasisPoints","type":"uint256"}],"name":"setWithdrawalUsdtRate","outputs":[],"stateMutability":"nonpayable","type":"function"},{"inputs":[{"internalType":"uint256","name":"","type":"uint256"}],"name":"slabRates","outputs":[{"internalType":"uint256","name":"","type":"uint256"}],"stateMutability":"view","type":"function"},{"inputs":[],"name":"tokenDecimals","outputs":[{"internalType":"uint8","name":"","type":"uint8"}],"stateMutability":"view","type":"function"},{"inputs":[],"name":"totalBinaryFlushed","outputs":[{"internalType":"uint256","name":"","type":"uint256"}],"stateMutability":"view","type":"function"},{"inputs":[{"internalType":"address","name":"newOwner","type":"address"}],"name":"transferOwnership","outputs":[],"stateMutability":"nonpayable","type":"function"},{"inputs":[],"name":"unpause","outputs":[],"stateMutability":"nonpayable","type":"function"},{"inputs":[{"internalType":"address","name":"_token","type":"address"},{"internalType":"uint8","name":"_decimals","type":"uint8"}],"name":"updatePaymentToken","outputs":[],"stateMutability":"nonpayable","type":"function"},{"inputs":[{"internalType":"uint256","name":"","type":"uint256"}],"name":"userIdTaken","outputs":[{"internalType":"bool","name":"","type":"bool"}],"stateMutability":"view","type":"function"},{"inputs":[{"internalType":"uint256","name":"","type":"uint256"}],"name":"userIdToAddress","outputs":[{"internalType":"address","name":"","type":"address"}],"stateMutability":"view","type":"function"},{"inputs":[{"internalType":"address","name":"","type":"address"}],"name":"users","outputs":[{"internalType":"uint256","name":"userId","type":"uint256"},{"internalType":"address","name":"sponsor","type":"address"},{"internalType":"address","name":"binaryParent","type":"address"},{"internalType":"address","name":"leftChild","type":"address"},{"internalType":"address","name":"rightChild","type":"address"},{"internalType":"enum MLMContract.Side","name":"placementSide","type":"uint8"},{"internalType":"enum MLMContract.Package","name":"userPackage","type":"uint8"},{"internalType":"enum MLMContract.Status","name":"status","type":"uint8"},{"internalType":"uint256","name":"walletBalance","type":"uint256"},{"internalType":"uint256","name":"tempWalletBalance","type":"uint256"},{"internalType":"uint256","name":"totalDirectIncome","type":"uint256"},{"internalType":"uint256","name":"totalBinaryIncome","type":"uint256"},{"internalType":"uint256","name":"totalMatchingOverrideIncome","type":"uint256"},{"internalType":"uint256","name":"totalWithdrawalMatchIncome","type":"uint256"},{"internalType":"uint256","name":"totalEarnings","type":"uint256"},{"internalType":"uint256","name":"leftBusiness","type":"uint256"},{"internalType":"uint256","name":"rightBusiness","type":"uint256"},{"internalType":"uint256","name":"carryLeft","type":"uint256"},{"internalType":"uint256","name":"carryRight","type":"uint256"},{"internalType":"uint256","name":"todayBinaryIncome","type":"uint256"},{"internalType":"uint256","name":"lastBinaryResetDay","type":"uint256"},{"internalType":"uint256","name":"directReferralCount","type":"uint256"},{"internalType":"uint256","name":"gracePeriodStart","type":"uint256"},{"internalType":"uint256","name":"joinedAt","type":"uint256"},{"internalType":"uint256","name":"totalWithdrawn","type":"uint256"},{"internalType":"uint256","name":"claimableBinaryIncome","type":"uint256"},{"internalType":"uint256","name":"binaryDepth","type":"uint256"},{"internalType":"string","name":"displayName","type":"string"},{"internalType":"string","name":"email","type":"string"},{"internalType":"string","name":"phone","type":"string"},{"internalType":"string","name":"country","type":"string"},{"internalType":"bool","name":"profileSet","type":"bool"}],"stateMutability":"view","type":"function"},{"inputs":[{"internalType":"uint256","name":"_amount","type":"uint256"}],"name":"withdraw","outputs":[],"stateMutability":"nonpayable","type":"function"},{"inputs":[{"internalType":"address","name":"_to","type":"address"},{"internalType":"uint256","name":"_amount","type":"uint256"}],"name":"withdrawContractFunds","outputs":[],"stateMutability":"nonpayable","type":"function"},{"inputs":[],"name":"withdrawalFee","outputs":[{"internalType":"uint256","name":"","type":"uint256"}],"stateMutability":"view","type":"function"},{"inputs":[{"internalType":"uint256","name":"","type":"uint256"}],"name":"withdrawalMatchMaxLevels","outputs":[{"internalType":"uint256","name":"","type":"uint256"}],"stateMutability":"view","type":"function"},{"inputs":[],"name":"withdrawalUsdtRate","outputs":[{"internalType":"uint256","name":"","type":"uint256"}],"stateMutability":"view","type":"function"}],"evm":{"bytecode":{"linkReferences":{},"object":"6080346200057857601f6200673838819003918201601f19168301916001600160401b03831184841017620004fd5780849260809460405283398101031262000578576200004d816200059d565b9060208101519060ff8216820362000578576200007b606062000073604084016200059d565b92016200059d565b9233156200055f5760008054336001600160a01b0319821681178355916001600160a01b03909116907f8be0079c531659141344cd1fd0a4f28419497f9722a3daafe3b4186f6b6457e09080a360017f9b779b17422d0df92223018b32b4d1fa46e071723d6817e2486d003becc55f00556127106006556032600e55620001016200057d565b600081526101f460208201526103e860408201526105dc60608201526107d060808201526109c460a0820152610bb860c082015260005b60078110620005455750506200014d6200057d565b60008152600160208201526003604082015260066060820152600a6080820152600f60a0820152601460c082015260005b600781106200052c575050620001936200057d565b6000815260016020820152600360408201526005606082015260096080820152600c60a0820152600f60c082015260005b60078110620005135750506040516001600160401b036080820190811190821117620004fd5760808101604052610bb881526107d060208201526103e860408201526101f4606082015260005b60048110620004e75750506001600160a01b0316908115620004bd576001600160a01b031692831562000493576001600160a01b03169081156200046957600180546001600160a01b03199081169290921790556002805460ff60a01b191660a085901b60ff60a01b16179055600380548216851790556004805482169094178455601680549091169190911790556000600555604d60ff821611620003eb5760ff16600a0a90600060185581603202603281048303620003eb57806019558260c80260c881048403620004545780601a5561025884810290810485036200043f5780601b556104b09085820291820486036200042a5781601c55610960928684029384048703620004155783601d556112c0948786029586048803620004005785601e556000602655602755602855602955602a55602b55602c556000602d558160fa0260fa81048303620003eb57602e55816103e8026103e881048303620003eb57602f5581610bb802610bb881048303620003eb576030556117708281029081048303620003eb57603155612ee08281029081048303620003eb57603255615dc09180830292830403620003d657506033556040516161859081620005b38239f35b601190634e487b7160e01b6000525260246000fd5b601182634e487b7160e01b6000525260246000fd5b601187634e487b7160e01b6000525260246000fd5b601186634e487b7160e01b6000525260246000fd5b601185634e487b7160e01b6000525260246000fd5b601184634e487b7160e01b6000525260246000fd5b601183634e487b7160e01b6000525260246000fd5b60405162461bcd60e51b8152602060048201526002602482015261494160f01b6044820152606490fd5b60405162461bcd60e51b815260206004820152600260248201526124a360f11b6044820152606490fd5b60405162461bcd60e51b8152602060048201526002602482015261125560f21b6044820152606490fd5b6001906020835193019281604201550162000211565b634e487b7160e01b600052604160045260246000fd5b600190602060ff84511693019281603b015501620001c4565b600190602060ff8451169301928160340155016200017e565b600190602061ffff84511693019281601f01550162000138565b604051631e4fbdf760e01b815260006004820152602490fd5b600080fd5b6040519060e082016001600160401b03811183821017620004fd57604052565b51906001600160a01b0382168203620005785756fe610300604052600436101561001357600080fd5b6000806102205280803560e01c908163012685f414614cc05781630327ef4914614bf657816305ad393514614b955781630b6a953914614b605781630d57a79c14614b345781630f53a47014614a70578163179bd5c814614a445781631915d956146149b05781631cdc545c1461492d5781631d64e5931461490c5781632bbf1a301461473c5781632c2896b3146146f95781632e1888b8146146945781632e1a7d4d146140cb5781632eee563e14613c4a5781633013ce2914613c1e57816331e1f29b14613b05578163385399f914613bc25781633ac272c214613b6a5781633b97e85614613b435781633d6bacf314613b055781633f4ba83a14613a895781634286064e14613a5d5781634526b4aa14613a3c578163463cffe6146139f957816346904840146139cd57816347cd5191146139475781634b695586146138ba57816355509c8f146132af578163556415d91461328f57816357f0140a14612f165781635a1faeb914612eea5781635c975abb14612ec25781636207f52214612aad578163624a893d14612a8c5781636386c1c71461299b57816369e94f4d146129235781636aa6c0ce146126d05781636d0364d7146123e35781636e0881da146126b05781636f9fb98a1461261e5781637115bba714611a8d578163715018a6146125d05781637feef9d6146125325781638225757b146124c85781638456cb591461245c57816385f8f11b146124305781638bc7e8c41461240f5781638d7b5690146123e35781638da5cb5b146123b957816392167de21461232c57816392446e3014611a8d578163956501bb146122ee5781639726b9f2146120395781639a688a9914611fc15781639be572f614611fa0578163a2bdedf414611f77578163a5ad058614611ecb578163a7229fd914611e41578163a87430ba14611b1f578163ac1e502514611a92578163ac6c264e14611a8d578163b169520114611a55578163b33dd0c914611a29578163b6b55f2514611932578163b882c4d8146118ba578163bbc18f6f14611899578163befbe97d146117e9578163c24be7fb146114d2578163c3b6f939146114a6578163c3c5a54714611463578163c9d484cf14611437578163ce0b2122146112db578163d117de03146112af578163d24af2b814611239578163d2c8e0e514611199578163d4a90286146110cf578163d58c617214610e38578163d8f3384014610dfa578163d9c842fd14610dc2578163d9f9f63f14610c8f578163e1f1c4a714610c6f578163e3ba9bda14610bf7578163e4093a6614610947578163e561dddc14610924578163e63619a5146108f7578163e74b981b14610882578163eb63e1c2146107ed578163ecdc590714610783578163ece2bc23146106d1578163ed05ae7814610698578163ef2c5c5014610678578163f00b00931461063f578163f2fde38b146105c457508063fc3c8a0c1461059b578063fc4a36f61461057f578063fdc65d6e146104cb5763ff5d32fe1461045c57600080fd5b346104c85760203660031901126104c857600435600b5481101561049e57610485602091614e57565b905460405160039290921b1c6001600160a01b03168152f35b60405162461bcd60e51b815260206004820152600260248201526127a160f11b6044820152606490fd5b80fd5b50346104c8576104da36614ef0565b906104e3615118565b60078110158061056b5760018210158061055b575b61050190615465565b6105475790816105417f36152e7515aada41257500317963ea57c35904a845e67c595f4e110377a08f209360180192808454945560405193849384616070565b0390a180f35b634e487b7160e01b83526021600452602483fd5b50506102205160068211156104f8565b634e487b7160e01b84526021600452602484fd5b50346104c857806003193601126104c857602060405160648152f35b50346104c857806003193601126104c8576004546040516001600160a01b039091168152602090f35b90503461063b57602036600319011261063b576105df614da1565b906105e8615118565b6001600160a01b039182169182156106225781546001600160a01b031981168417835516906000805160206160f08339815191529080a380f35b604051631e4fbdf760e01b815260048101859052602490fd5b5080fd5b82346104c85760203660031901126104c8576020906040906001600160a01b03610667614da1565b168152601383522054604051908152f35b82346104c857806003193601126104c857602060405164e8d4a50fff8152f35b82346104c85760203660031901126104c8576020906040906001600160a01b036106c0614da1565b168152601483522054604051908152f35b82346104c85760203660031901126104c8576001600160a01b036106f3614da1565b168152600760205260408120600c81015490600d81015490600e810154600f82015460188301549060ff600485015460a81c16600781101561076f5761010097506026015492601f601e86015495015495604051978852602088015260408701526060860152608085015260a084015260c083015260e0820152f35b634e487b7160e01b88526021600452602488fd5b82346104c8576107ea61079536614dbc565b909160018060a01b03906107ae82601554163314615aa6565b168452600c60205260ff6040852091604051936107ca85614fe8565b6008855260208501524260408501528560608501521660808301526154d6565b80f35b82346104c8576020918260031936011261063b576015546040516375b1f0e160e11b8152600480359082015291908490839060249082906001600160a01b03165afa9283156108765792610846575b5050604051908152f35b9091508282813d831161086f575b61085e818361504f565b810103126104c8575051828061083c565b503d610854565b604051903d90823e3d90fd5b82346104c85760203660031901126104c85761089c614da1565b6108a4615118565b6001600160a01b03908116906108bb82151561603f565b600380546001600160a01b031981168417909155167faaebcf1bfa00580e41d966056b48521fa9f202645c86d4ddf28113e617c1b1d38380a380f35b82346104c85760203660031901126104c857600435600781101561063b5760209060180154604051908152f35b82346104c857806003193601126104c857602061093f61608d565b604051908152f35b905034610b385761022051806003193601126104c8575061096661566d565b61096e615287565b33610220515260206008815261098d60ff604061022051205416615434565b33610220515260078152600160ff600460406102205120015460b01c166109b381614f64565b148015610bc5575b6109c490615aa6565b6015546001600160a01b03919082168015610b9b5781602491604051928380926347cd519160e01b8252600160048301525afa908115610b2a576102205191610b6a575b503361022051526012825280604061022051205410610b3f5790610aa2913361022051526012825260406102205120610a428282546152a8565b90553361022051526013825260406102205120610a5f8154615278565b9055336102205152600c8252604061022051209060405192610a8084614fe8565b60088452830152426040830152610220516060830152600160808301526154d6565b6015541690813b15610b38576040519163686a38bd60e01b835233600484015260016024840152826044816102205180945af18015610b2a57610af6575b8260016000805160206161308339815191525580f35b9091506001600160401b038211610b165750604052610220513880610ae0565b634e487b7160e01b81526041600452602490fd5b6040513d61022051823e3d90fd5b6102205180fd5b60405162461bcd60e51b815260048101839052600360248201526204942560ec1b6044820152606490fd5b90508181813d8311610b94575b610b81818361504f565b81010312610b90575138610a08565b8380fd5b503d610b77565b60405162461bcd60e51b8152600481018390526002602482015261084960f31b6044820152606490fd5b50336102205152600781526109c4600260ff600460406102205120015460b01c16610bef81614f64565b1490506109bb565b34610b38576020366003190112610b3857610c10614da1565b610c18615118565b6001600160a01b03908116610c2e81151561603f565b601580546001600160a01b0319811683179091556102205192167f8e4ac8019922eea64e9103a076c60b36ec30c71c863a376d6557ab9f6734c4848380a380f35b34610b385761022051806003193601126104c85760206040516127108152f35b34610b3857602080600319360112610b3857610ca9614da1565b610cb1615118565b60018060a01b031680610220515260088252610cd660ff604061022051205416615434565b80610220515260078252604061022051209160048301805490600260ff8360b01c16610d0181614f64565b03610d9857601b8501546202a3008101809111610d7e57421115610d545760066000805160206161108339815191529495019182549261022051905560ff60b01b19169055604051908152a26102205180f35b60405162461bcd60e51b8152600481018490526002602482015261474560f01b6044820152606490fd5b634e487b7160e01b61022051526011600452602461022051fd5b60405162461bcd60e51b81526004810184905260026024820152614e4760f01b6044820152606490fd5b34610b3857610df0610ddc610dd636614dbc565b91615de6565b604051928392604084526040840190614e1a565b9060208301520390f35b34610b38576020366003190112610b38576001600160a01b03610e1b614da1565b166102205152600c60205260206040610220512054604051908152f35b34610b385761022051806003193601126104c857610e5461566d565b610e5c615287565b336102205152602060088152610e7b60ff604061022051205416615434565b3361022051526007815260406102205120906004820190815460ff8160b01c16610ea481614f64565b80159081156110bb575b50156110915760a81c60ff166007811015611077576001811061104d57601801549160018060a01b0393610eea84866001541630903390615600565b6018600160b01b60ff60b01b19845416179182845561022051918183600b8194015582600682015582601b8201550155339052600c8352610220519060ff604083209160a81c16916007831015611035575091610f7660ff92869460405191610f5283614fe8565b610220518352868884015242604084015261022051606084015260808301526154d6565b5460a81c1691610f896040518094614f84565b8201527f0f71a293b26be95a1c2120e73a1712c62b20f254ae47eff7f6e799402984e6ab60403392a261177091828202928284041482151715610d7e57610fd8612710610ffe940480936152a8565b81600454168015158061102c575b611017575b505050610ff8813361569d565b336157c8565b6001600080516020616130833981519152556102205180f35b611024926001541661557f565b828080610feb565b50811515610fe6565b634e487b7160e01b9052602160045261022051602490fd5b60405162461bcd60e51b815260048101839052600260248201526104e560f41b6044820152606490fd5b634e487b7160e01b61022051526021600452602461022051fd5b60405162461bcd60e51b81526004810183905260026024820152614d4960f01b6044820152606490fd5b600291506110c881614f64565b1485610eae565b34610b38576040366003190112610b3857601554604051636a54814360e11b8152600480359082015260248035908201526001600160a01b03916060908290604490829086165afa8015610b2a57610220519182908392611144575b5060609360405193168352602083015215156040820152f35b925050506060813d8211611191575b816111606060938361504f565b81010312610b38578051918083168303610b3857604060208301519201518015158103610b3857909291606061112b565b3d9150611153565b34610b3857602080600319360112610b38576001600160a01b0390816111bd614da1565b166102205152600a81526040610220512091604051809384918482549182815201916102205152610220519385852094905b8683831061121d5785906112058287038361504f565b611219604051928284938452830190614e1a565b0390f35b86548216855260019687019689965094019391909101906111ef565b34610b38576112a861124a36614dbc565b909160018060a01b039061126382601554163314615aa6565b166102205152600c60205260ff60406102205120916040519361128585614fe8565b6009855260208501524260408501526102205160608501521660808301526154d6565b6102205180f35b34610b385761022051806003193601126104c8576016546040516001600160a01b039091168152602090f35b34610b3857602080600319360112610b3857600435906001600160401b0390818311610b385736602384011215610b38578260040135918211610b3857602492600590368585841b83010111610b3857611333615118565b610220515b848110611346576102205180f35b80831b82018601356001600160a01b0381169190829003610b385781610220515260088552610220519160ff92836040822054161561142b576040906007885220600481019360028554918260b01c1661139f81614f64565b0361141e57601b820154906202a3008201809211611405576113f69589924211156113fb57600660008051602061611083398151915294019182549261022051905560ff60b01b19169055604051908152a2615278565b611338565b5050505050615278565b8a634e487b7160e01b6102205152601160045261022051fd5b5050506113f69150615278565b50506113f69150615278565b34610b385761022051806003193601126104c8576015546040516001600160a01b039091168152602090f35b34610b38576020366003190112610b38576001600160a01b03611484614da1565b1661022051526008602052602060ff6040610220512054166040519015158152f35b34610b385761022051806003193601126104c8576002546040516001600160a01b039091168152602090f35b34610b38576060366003190112610b3857602435906044359081151582036104c857506114fd615287565b3361022051526020916008835261151e60ff60406102205120541615615144565b61022051600b5461171c57505050610220518091815b61153c6152b5565b918261022051526010815261022051604081209060ff1991600183825416179055600f8352604081209060018060a01b03199133838254161790553390526007835260406102205120858155600181019660018060a01b03809116978884825416179055600282019816978883825416179055600481016115bd86826151d7565b805460ff60b01b1916905542601c820155610220518815801592918a9181906117105750526007855261022051601f60408220015490600182018092116116f85750601f90915b01556116a1575b5084611662575b33610220515260088252600160406102205120918254161790556116353361521e565b60405192835261164482614f64565b8201526000805160206160d083398151915260403392a46102205180f35b846102205152600a825261167c336040610220512061525b565b84610220515260078252601a604061022051200161169a8154615278565b9055611612565b6116aa84614f64565b600184036116d65786610220515260078352600360406102205120019033908254161790555b8661160b565b86610220515260078352600460406102205120019033908254161790556116d0565b634e487b7160e01b9052601160045261022051602490fd5b9050601f915091611604565b6004359052600f8352610220519160018060a01b039182604085205416809481151590816117cd575b506117509150615175565b8061178157508291505b156117705761176890615408565b916001611534565b611779906153d7565b916002611534565b6102205152600f84526102205191604083205416809281151590816117b1575b506117ac91506151a6565b61175a565b905052600884526117ac60ff60406102205120541683916117a1565b9050526008855261175060ff6040610220512054168591611745565b34610b38576020366003190112610b38576001600160a01b0361180a614da1565b166102205152600760205261022051604081206007810154906008810154906009810154600a820154600b8301549160ff6004601d86015495015460a81c1660078110156118815760e09750602d015494604051968752602087015260408601526060850152608084015260a083015260c0820152f35b634e487b7160e01b8852602160045261022051602490fd5b34610b385761022051806003193601126104c85760206040516202a3008152f35b34610b38576020366003190112610b38576118d3614da1565b6118db615118565b6001600160a01b039081166118f181151561603f565b600280546001600160a01b0319811683179091556102205192167ffa56beaa7224e963963fc4c47c38a66d9813310693d7bb15814ea8e39b3351848380a380f35b34610b38576020366003190112610b385760043561194e61566d565b611956615287565b611961811515615ad7565b60015461197c908290309033906001600160a01b0316615600565b3361022051526014602052604061022051206119998282546151fb565b9055336102205152600c6020526119e460406102205120604051906119bd82614fe8565b600c82528360208301524260408301526102205160608301526102205160808301526154d6565b6040519081527f2da466a7b24304f47e87fa2e1e5a81b9831ce54fec19055ce277ca2f39ba42c460203392a26001600080516020616130833981519152556102205180f35b34610b38576020366003190112610b38576004356007811015610b3857602090603b0154604051908152f35b34610b38576020366003190112610b38576004356102205152600f602052602060018060a01b03604061022051205416604051908152f35b614f91565b34610b38576020366003190112610b3857600435611aae615118565b6107d08111611af55760407f72aa1ef4707dfa7defd1468e6ffc70bf9517ce19e3afad93fcf4be42f2d494f591600554908060055582519182526020820152a16102205180f35b60405162461bcd60e51b815260206004820152600260248201526108c960f31b6044820152606490fd5b34610b38576020366003190112610b38576001600160a01b03611b40614da1565b610220805191909216905260076020818152915160409020610100819052805461024052600181015460028201546001600160a01b039081166102a052600383015481166102c0526004830154600584015460068501549585015460088601546009870154600a880154600b890154600c8a0154600d8b0154600e8c0154600f8d015460188e01546102605260198e015461028052601a8e01546101a052601b8e0154608052601c8e015460c052601d8e015461016052601e8e015460e052601f8e01546102e0529e909d919c929b939a949995989697969195919460ff949293921691611c2e9101615072565b61012052611c4160216101005101615072565b61014052611c5460226101005101615072565b6101e052611c6760236101005101615072565b610200528260246101005101541661018052604051806101c05261024051905260206101c05101526102a05160406101c05101526102c05160606101c051015260018060a01b03811660806101c0510152818160a01c16611cc781614f64565b60a06101c0510152611ce460c06101c05101838360a81c16614f84565b60b01c16611cf181614f64565b60e06101c05101526101006101c05101526101206101c05101526101406101c05101526101606101c05101526101806101c05101526101a06101c05101526101c0805101526101e06101c05101526102006101c05101526102206101c05101526102406101c0510152610260516102606101c0510152610280516102806101c05101526101a0516102a06101c05101526080516102c06101c051015260c0516102e06101c0510152610160516103006101c051015260e0516103206101c05101526102e0516103406101c0510152611e28611e12611dfc611de6610400806103606101c05101526101c0510161012051614eb0565b6101c05161038081830391015261014051614eb0565b6101c0516103a08183039101526101e051614eb0565b6101c0516103c081830391015261020051614eb0565b6101805115156103e06101c05101526101c05180910390f35b34610b38576060366003190112610b3857611e5a614da1565b6001600160a01b03602435818116939092908484036104c857507f238062e33e7062c4aeccb2acac43aecc0b1a1ca891a5bc84a689f2272cb39a4391611ebd602092604435928391611eaa615118565b611eb589151561603f565b16958661557f565b604051908152a36102205180f35b34610b38576040366003190112610b3857611ee4614da1565b60243590611ef0615118565b6001600160a01b03818116928315611f4d57611f3f817f4482101800a5c2e900f4156e57e05e19ffd7b366cde579553d723fd3abb2180e94602094611f36831515615ad7565b6001541661557f565b604051908152a26102205180f35b60405162461bcd60e51b81526020600482015260026024820152615a4160f01b6044820152606490fd5b34610b38576020366003190112610b3857600435600b54811015610b3857610485602091614e57565b34610b385761022051806003193601126104c8576020600b54604051908152f35b34610b38576020366003190112610b3857611fda614da1565b611fe2615118565b6001600160a01b03908116611ff881151561603f565b600480546001600160a01b0319811683179091556102205192167f21f871938092b6a1ed13c23a49ad1a6fa6867d23d64fa2091bc0aaa90846e7c38380a380f35b34610b3857602080600319360112610b3857600435906007821015610b385761206061566d565b612068615287565b3361022051526008815261208560ff604061022051205416615434565b3361022051526007815260406102205120916004830192835460ff8160b01c166120ae81614f64565b600281149081156122dc575b50156122b25760ff906120d06001851015615465565b60a81c16600781101561107757821061228857816018015492839160018060a01b039561210584886001541630903390615600565b600260ff825460b01c1661211881614f64565b146121fb575b906018916102205160068301556121358682615496565b600160b01b60ff60b01b1982541617905561022051918183600b8194015582601b8201550155339052600c815261219f604061022051206040519061217982614fe8565b60028252848483015242604083015261022051606083015260ff861660808301526154d6565b6121ac6040518094614f84565b8201527f0bd98106504d2095c105d0f8fd19c12fb6c359200dcce844743a92dc040cb7b360403392a261177091828202928284041482151715610d7e57610fd8612710610ffe940480936152a8565b9250601b810154906202a3008201809211610d7e57859360189242116122655760068201546005830161222f8282546151fb565b90556040519081527fc0a2b7349514b2ee49057e2265dcf10bd91be42a7f6a1144164df1f0e303a8eb853392a25b90915061211e565b6006820154604051908152600080516020616110833981519152853392a261225d565b60405162461bcd60e51b815260048101849052600260248201526110d160f21b6044820152606490fd5b60405162461bcd60e51b8152600481018590526002602482015261414160f01b6044820152606490fd5b90506122e781614f64565b15866120ba565b34610b38576020366003190112610b38576001600160a01b0361230f614da1565b166102205152601460205260206040610220512054604051908152f35b34610b385761233a36614ef0565b612342615118565b600782101580611077576001831015806123a9575b61236090615465565b611077578161239f7fbc78cc5de16267f0116f5ef65ec3328f2f432bca5e0f8b61e96b880e826d84dd93602d0192808454945560405193849384616070565b0390a16102205180f35b5050610220516006831115612357565b34610b385761022051806003193601126104c857546040516001600160a01b039091168152602090f35b34610b38576020366003190112610b38576004356007811015610b3857602090602d0154604051908152f35b34610b385761022051806003193601126104c8576020600554604051908152f35b34610b38576020366003190112610b38576004356007811015610b385760209060340154604051908152f35b34610b385761022051806003193601126104c857612478615118565b612480615287565b61022051805460ff60a01b1916600160a01b1790556040513381527f62e78cea01bee320cd4e420270b5ea74000d11b0c9f74754ebdbfc544b05a25890602090a16102205180f35b34610b38576020366003190112610b385761022080516004359052600f6020525160409020546001600160a01b0316801561250857602090604051908152f35b60405162461bcd60e51b81526020600482015260026024820152612aa360f11b6044820152606490fd5b34610b38576020366003190112610b385760043561254e615118565b801515806125c4575b1561259a5760407f885769bb3a0a33e49dc7c402b45290f14135af0d201b7b78370457632240fbb191600e549080600e5582519182526020820152a16102205180f35b60405162461bcd60e51b8152602060048201526002602482015261425360f01b6044820152606490fd5b506101f4811115612557565b34610b385761022051806003193601126104c857506125ed615118565b80546001600160a01b0319811682556001600160a01b03166000805160206160f08339815191528280a36102205180f35b34610b385761022051806003193601126104c857506001546040516370a0823160e01b815230600482015290602090829060249082906001600160a01b03165afa908115610b2a57610220519161267b575b602082604051908152f35b90506020813d82116126a8575b816126956020938361504f565b8101031261063b57602091505182612670565b3d9150612688565b34610b385761022051806003193601126104c8576020604051610fa08152f35b34610b385760209081600319360112610b38576004356007811015610b38576126f761566d565b6126ff615287565b3361022051526008835261271c60ff604061022051205416615434565b6102205192600182101580612918575b61273590615465565b336102205152600781526102205160408120946110355750600484019260ff845460a81c166007811015611077578311156128ee57826018015493601860018060a01b039661278c87896001541630903390615600565b60ff835460a81c169261279f8782615496565b805460ff60b01b1916600160b01b17905561022051600b820181905560068201819055601b82018190559101819055600782101561103557508492919080612858575061282590336102205152600c8352604061022051206040519161280483614fe8565b8083528585840152426040840152606083015260ff861660808301526154d6565b610f896040518094614f84565b61177091828202928284041482151715610d7e57610fd8612710610ffe940480936152a8565b939190506128bd9250336102205152600c81526128a8604061022051206040519061288282614fe8565b60018252878483015242604083015261022051606083015260ff851660808301526154d6565b6128b56040518095614f84565b830190614f84565b8160408201527f6dc34d0522e29b7d7beda15504a00195317702b99a528054d4be53e1ea331b6d60603392a2612832565b60405162461bcd60e51b81526004810183905260026024820152610aa960f31b6044820152606490fd5b50600682111561272c565b34610b38576020366003190112610b385761293c614da1565b612944615118565b6001600160a01b0390811661295a81151561603f565b601680546001600160a01b0319811683179091556102205192167fcb9bcd5e87ec5de7c4b31036687bd221c8e20f2ecf6fce472ac73a211f2a3cdc8380a380f35b34610b38576020366003190112610b38576101a06001600160a01b03806129c0614da1565b166102205152600760205260406102205120908154918160018201541691806002830154169080600384015416906004840154612a5e60ff8260a01c169160ff8160b01c1692600588015494600689015496600b8a015498601c601a8c01549b01549b60206040519e8f908152015260408d015260608c0152821660808b0152612a4981614f64565b60a08a015260ff60c08a019160a81c16614f84565b612a6781614f64565b60e0870152610100860152610120850152610140840152610160830152610180820152f35b34610b385761022051806003193601126104c8576020600654604051908152f35b34610b385760a0366003190112610b3857612ac6614da1565b606435151560643503610b385760076084351015610b3857612ae6615118565b612aee615287565b612b026001600160a01b038216151561603f565b61022080516001600160a01b03831690526008602052516040902054612b2b9060ff1615615144565b6001608435101580612eb5575b612b4190615465565b600b5415612e8b5761022080516024359052600f6020525160408120546001600160a01b0316919082908115159081612e6e575b50612b809150615175565b610220516044359081612e1c575050815b60643515612e0b57612ba290615408565b9060015b612bae6152b5565b61022080518290526010602090815281516040808220805460ff19166001908117909155600f845281832080546001600160a01b03199081166001600160a01b038b81169182179093559094526007909452935120848155928301805482168917905560028301805490911691871691909117905590939060048101612c3484826151d7565b612c4060843582615496565b805460ff60b01b1916600160b01b17905542601c82015561022080516001600160a01b038416905260076020525160408120601f0154906001820182116116f857507f92c194e247c6d4e26ac54d4f751a001bb786b7fd20039047255e4b5327aec9f4949260409492601f60018a9401910155612cbc83614f64565b60018303612dd15761022080516001600160a01b038381169091526007602052905186902060030180546001600160a01b0319169186169190911790555b816102205152600a602052612d148486610220512061525b565b8161022051526007602052601a85610220512001612d328154615278565b905560018060a01b038416610220515260086020528461022051818120600160ff19825416179055600960205220600160ff19825416179055612d748461521e565b845192878452612d8381614f64565b60208401526001600160a01b0390811692908416906000805160206160d0833981519152908690a48151938452612dbf60208501608435614f84565b6001600160a01b031692a36102205180f35b61022080516001600160a01b038381169091526007602052905186902060040180546001600160a01b031916918616919091179055612cfa565b612e14906153d7565b906002612ba6565b52600f6020526102205160408120546001600160a01b03169081908115159081612e51575b50612e4c91506151a6565b612b91565b9050526008602052612e4c60ff6040610220512054168291612e41565b9050526008602052612b8060ff6040610220512054168391612b75565b60405162461bcd60e51b8152602060048201526002602482015261525560f01b6044820152606490fd5b5060066084351115612b38565b34610b385761022051806003193601126104c85760ff6020915460a01c166040519015158152f35b34610b38576020366003190112610b38576004356007811015610b3857602090601f0154604051908152f35b34610b385760a0602081526020600319360112610b385760043590336102205152600d815152610220519060ff918260408220541690811561327b575b501561325157612f61615287565b8215613227576000198301838111610d7e57600e90612f828254809261556c565b93600b5491828610156131fd57612f9990866151fb565b918083116131f5575b5091906102205194925b818410612fea577f9acb94cd9b9c8b1248d0dc0aa654d4303685379499519790474807198a3290436040888888835192835251820152a16102205180f35b90919294612ff786614e57565b90549060039160018060a01b0391831b1c169081610220515260078751526040610220512084600482015460b01c1661302f81614f64565b600181141590816131e0575b506131d35761022051918283918490601085019060148601905b600484106130f1575050505083156130e25792601e837f64e8dd16146649f6743856bb8723dcd7edd0bb0e9b5352620ae83a477aea3283936130da98966130a48d6130d49a98019182546152a8565b90556130b5600f83019182546152a8565b9055016130c38282546151fb565b9055604051908152895190a2615278565b95615278565b929190612fac565b5050505050946130da90615278565b9091929493966131018685614ea0565b905490831b1c6131118785614ea0565b905490841b1c11156131bd576131278685614ea0565b905490831b1c905b81156131b057816131a26131a89361315c6130d4946127106131558d604201548561556c565b04906151fb565b9b61319061316a8c8b614ea0565b613179858354838d1b1c6152a8565b825460001960039390931b92831b1916911b179055565b61319d61316a8c8a614ea0565b6151fb565b966151fb565b929190613055565b9794956131a89150615278565b6131c78684614ea0565b905490831b1c9061312f565b505050946130da90615278565b600291506131ed81614f64565b14158b61303b565b915086612fa2565b60405162461bcd60e51b8152855160048201526002602482015261424560f01b6044820152606490fd5b60405162461bcd60e51b8152905160048201526002602482015261042360f41b6044820152606490fd5b60405162461bcd60e51b8152905160048201526002602482015261415560f01b6044820152606490fd5b546001600160a01b03163314905084612f53565b34610b385761022051806003193601126104c85760206040516117708152f35b34610b38576080366003190112610b38576004356001600160401b038111610b38576132df903690600401614f37565b906024356001600160401b038111610b38576132ff903690600401614f37565b9092906044356001600160401b038111610b3857613321903690600401614f37565b90916064356001600160401b038111610b3857613342903690600401614f37565b969094336102205152600860205261336360ff604061022051205416615434565b80156138905761022080513390526007602052516040812097906001600160401b0383116138785750819061339b60208a0154614fae565b601f811161381f575b506102205190601f83116001146137ad5761022051926137a2575b50508160011b916000199060031b1c19161760208701555b6001600160401b0382116135df5781906133f46021880154614fae565b601f8111613746575b506102205190601f83116001146136d45761022051926136c9575b50508160011b916000199060031b1c19161760218501555b60228401916001600160401b0382116135df57819061344f8454614fae565b601f8111613670575b506102205190601f83116001146136045761022051926135f9575b50508160011b916000199060031b1c19161790555b60238201906001600160401b0384116135df576134a58254614fae565b601f8111613592575b506102205190601f851160011461352757938091602495610220519261351c575b50508160011b916000199060031b1c19161790555b01805460ff1916600117905561022051337fbe4ec58a792f909e102ee3d745d0c3b34a4d437a54d903c4db098d31c556422f8280a280f35b0135905085806134cf565b82825261022051602081209290601f198716905b81811061357a57509160019391876024989410613560575b505050811b0190556134e4565b0135600019600384901b60f8161c19169055858080613553565b9193602060018192878701358155019501920161353b565b8261022051526102205160208120601f870160051c810192602088106135d5575b601f0160051c01915b8281106135ca5750506134ae565b8181556001016135bc565b90925082906135b3565b634e487b7160e01b61022051526041600452602461022051fd5b013590508680613473565b84825261022051602081209350909190601f198516905b818110613658575090846001959493921061363e575b505050811b019055613488565b0135600019600384901b60f8161c19169055868080613631565b9193602060018192878701358155019501920161361b565b9091508361022051526102205160208120601f850160051c810192602086106136bf575b90601f86959493920160051c01915b8281106136b1575050613458565b8181558594506001016136a3565b9092508290613694565b013590508780613418565b60218801825261022051602081209350909190601f198516905b81811061372e5750908460019594939210613714575b505050811b016021850155613430565b0135600019600384901b60f8161c19169055878080613704565b919360206001819287870135815501950192016136ee565b9091506021870161022051526102205160208120601f850160051c81019260208610613798575b90601f86959493920160051c01915b82811061378a5750506133fd565b81815585945060010161377c565b909250829061376d565b0135905089806133bf565b909150601f1983169160208a018152610220519260208420935b81811061380757509084600195949392106137ed575b505050811b0160208701556133d7565b0135600019600384901b60f8161c191690558980806137dd565b919360206001819287870135815501950192016137c7565b9091506020890161022051526102205160208120601f850160051c810160208610613871575b9085949392915b601f840160051c82018110613863575050506133a4565b82815586955060010161384c565b5080613845565b634e487b7160e01b9052604160045261022051602490fd5b60405162461bcd60e51b8152602060048201526002602482015261222760f11b6044820152606490fd5b34610b38576020366003190112610b38576004356138d6615118565b612710811161391d5760407fdefb0223a84c18f8f7c10046a8600d298578166098e58c49022547d7a50da35b91600654908060065582519182526020820152a16102205180f35b60405162461bcd60e51b8152602060048201526002602482015261524560f01b6044820152606490fd5b34610b3857602080600319360112610b38576015546040516347cd519160e01b81526004803590820152908290829060249082906001600160a01b03165afa908115610b2a5761022051916139a0575b50604051908152f35b90508181813d83116139c6575b6139b7818361504f565b81010312610b38575182613997565b503d6139ad565b34610b385761022051806003193601126104c8576003546040516001600160a01b039091168152602090f35b34610b38576020366003190112610b38576001600160a01b03613a1a614da1565b1661022051526009602052602060ff6040610220512054166040519015158152f35b34610b385761022051806003193601126104c8576020600e54604051908152f35b34610b38576020366003190112610b38576004356007811015610b385760209060260154604051908152f35b34610b385761022051806003193601126104c857613aa5615118565b610220515460ff8160a01c1615613af35760ff60a01b191661022051557f5db9ee0a495bf2e6ff9c91a7834c1ba4fdd244a5e8aa4e537bd38aeae4b073aa6020604051338152a16102205180f35b604051638dfc202b60e01b8152600490fd5b34610b38576020366003190112610b38576001600160a01b03613b26614da1565b166102205152601260205260206040610220512054604051908152f35b34610b385761022051806003193601126104c857602060ff60025460a01c16604051908152f35b34610b3857602080600319360112610b3857601554604051631d61396160e11b81526004803590820152908290829060249082906001600160a01b03165afa908115610b2a5761022051916139a05750604051908152f35b34610b38576020366003190112610b38576001600160a01b03613be3614da1565b168061022051526008602052613c0260ff604061022051205416615434565b6102205152600760205260206040610220512054604051908152f35b34610b385761022051806003193601126104c8576001546040516001600160a01b039091168152602090f35b34610b385761022051806003193601126104c857613c6661566d565b613c6e615287565b3361022051526008602052613c8c60ff604061022051205416615434565b3361022051526007602052604061022051206004810154613cc860ff8260b01c16613cb681614f64565b600181149081156140b7575b50615aa6565b601e820190815490811561408d5760ff90620151804204601986018181541061407c575b505060a81c1660078110156110775760260154926102205192601882019081548681809811614069575b5050841561403f578394610220519481811161401d575b505084613dbf949596613d45926102205190556151fb565b905560088101613d568582546151fb565b9055613d628433615bd5565b336102205152600c60205261022051601f60408220920154905060ff8111600014614017575060ff905b60ff60405192613d9b84614fe8565b600584528660208501524260408501526102205160608501521660808301526154d6565b6040518281527fd4379f0df0229cb2fed1f6f1c33e4a164dcf7652a8ff79efd7f4f66bcc1b375660203392a280613fab575b506102208051339052600760205251604090206001908101546001600160a01b03165b6001600160a01b038116151580613fa0575b15610ffe5761022080516001600160a01b038316905260076020525160409020600481015460b081901c60ff16613e5c81614f64565b60018114908115613f8c575b50613e8d575b50600101546001600160a01b031691613e879150615278565b90613e14565b600760ff8260a81c1610156110775760ff9060a81c1660340154831115613eb5575b81613e6e565b6064918483810204831485151715610d7e57612710613e879386020480613ede575b5050613eaf565b613ee88183615bd5565b60098301613ef78282546151fb565b905560018060a01b0382166102205152600c602052613f476040610220512060405190613f2382614fe8565b6006825283602083015242604083015233606083015260ff881660808301526154d6565b604080519182526020820186905233926001600160a01b0316917f45948fc51bbcac6c3b663a1adcc0697660bbaeddd6eab9240451a0efcf7ad7539190a38480613ed7565b60029150613f9981614f64565b1486613e68565b506014821115613e26565b613fb7816017546151fb565b6017556040518181527fd5fe7fa76ce91683ea1b2f2ba3429885feeb202704aa35a0552e110e4eb6b26b60203392a26016546001600160a01b039190821680614002575b5050613df1565b61400f926001541661557f565b818080613ffb565b90613d8c565b9096613d45929650613dbf95506140358889936152a8565b9550969591613d2d565b60405162461bcd60e51b8152602060048201526002602482015261444360f01b6044820152606490fd5b6140749296506152a8565b938587613d16565b610220516018880155558580613cec565b60405162461bcd60e51b81526020600482015260026024820152614e4360f01b6044820152606490fd5b600291506140c481614f64565b1484613cc2565b34610b38576020366003190112610b38576004356140e761566d565b6140ef615287565b336102205152600760205260406102205120614120600160ff600484015460b01c1661411a81614f64565b14615aa6565b600581018054908382106146695783159161413b8315615ad7565b60ff60025460a01c16604d8111610d7e57600a0a80600a0290600a820403610d7e57801561464f5785066146255784614173916152a8565b90556103e89081840291848304141715610d7e57610220519260055480614606575b50836141b26141b7926141b26127108604916127108704906152a8565b6152a8565b916127106141c76006548561556c565b04906141d382856152a8565b91806145e8575b5081614599575b601d915084614576575b939293016141fa8482546151fb565b905533610220515260126020526040610220512061421d612710830482546151fb565b9055604051612710820481527f2b1d2104e84dd4dabb0cca024171f783ab1e1c9dc1af9d60a2361596653a99c460203392a2610220805133905260076020525160408120600190810154919490916001600160a01b03165b6001600160a01b03811615158061456b575b1561443c5760018060a01b038116610220515260076020526040610220512090600482015460ff8160b01c166142bc81614f64565b60018114908115614428575b506142ed575b5050600101546001600160a01b0316916142e790615278565b91614275565b600760ff8260a81c161015611077578060ff869260a81c16603b0154821115614317575b506142ce565b9060ff6143279260a81c16615b08565b80614334575b8490614311565b6143436127109182880461556c565b049081151580614411575b1561432d5761437d8280996143676142e7969585615bd5565b600a85016143768382546151fb565b90556151fb565b9760018060a01b0382166102205152600c6020526143cc60406102205120604051906143a882614fe8565b6007825283602083015242604083015233606083015260ff891660808301526154d6565b604080519182526020820187905233926001600160a01b0316917ffa90ff469705543002392f8f4d59d717c4d5c6b6c7832f347dc47e1f75855b939190a3908761432d565b506127108604614421838a6151fb565b111561434e565b6002915061443581614f64565b14896142c8565b508361452184336102205152600c60205261448b604061022051206040519061446482614fe8565b600382528660208301524260408301526102205160608301526102205160808301526154d6565b336102205152600c6020526144d860406102205120604051906144ad82614fe8565b600a8252612710840460208301524260408301526102205160608301526102205160808301526154d6565b336102205152600c60205260406102205120612710604051926144fa84614fe8565b600b84520460208301524260408301526102205160608301526102205160808301526154d6565b60405191825260208201527fdf273cb619d95419a9cd0ec88123a0538c85064229baa6363788f743fff90deb60403392a26001600080516020616130833981519152556102205180f35b50600f831115614287565b6001546003546145949187916001600160a01b03908116911661557f565b6141eb565b6002546001600160a01b031680156145be57601d926145b991339061557f565b6141e1565b60405162461bcd60e51b8152602060048201526002602482015261135560f21b6044820152606490fd5b600154614600919033906001600160a01b031661557f565b856141da565b6141b294509061271061461c6141b7938361556c565b04945090614195565b60405162461bcd60e51b8152602060048201526002602482015261414d60f01b6044820152606490fd5b634e487b7160e01b61022051526012600452602461022051fd5b60405162461bcd60e51b815260206004820152600360248201526224a11960e91b6044820152606490fd5b34610b38576040366003190112610b38576146ad614da1565b7f41310093e80507e3fb2fafc7628a627f835448a93096f490e3e207749295f48260206024356146db615118565b6001600160a01b0384811694611f3f91839190611f3688151561603f565b34610b38576020366003190112610b38576001600160a01b0361471a614da1565b166102205152600d602052602060ff6040610220512054166040519015158152f35b34610b38576020366003190112610b3857614755614da1565b6040519061476282615019565b608080923690378160405161477681615019565b3690376040519061478682615019565b823683376040519061479782615019565b83368337836040516147a881615019565b36903760018060a01b03166102205152600760205260406102205120916010830160146147d482615d45565b9401946147e086615d45565b604051969092908288016001600160401b038111898210176135df57604052610bb888526107d060208901526103e860408901526101f46060890152610220515b6004811061487657610280886148748b6148698b61485e8c6148538d8d61484b604051809b614f0f565b890190614f0f565b610100870190614f0f565b610180850190614f0f565b610200830190614f0f565bf35b806148846148f39285614ea0565b9054906148918386614ea0565b905460039391841b1c91831b1c10156148f8576148ae8286614ea0565b9054911b1c5b6148be8289615d78565b526127106148e28b6148db846148d4818d615d78565b5192615d78565b519061556c565b046148ed828a615d78565b52615278565b614821565b6149028285614ea0565b9054911b1c6148b4565b34610b385761022051806003193601126104c8576020601754604051908152f35b34610b385761493b36614ef0565b614943615118565b600782101580611077576001831015806149a0575b61496190615465565b611077578161239f7ffd97dc847c39542ae663c77ed6c5fe5d200d0a308aac833f926e9c3f8f32453f9360260192808454945560405193849384616070565b5050610220516006831115614958565b34610b38576040366003190112610b38576149c9614da1565b60243590811515809203610b385760207f9742298dc6801916d04d1f05c6a0cc0405b25bad99060bbbc1c82a9f474ab01491614a03615118565b6001600160a01b031692614a1884151561603f565b836102205152600d82526040610220512060ff1981541660ff8316179055604051908152a26102205180f35b34610b38576020366003190112610b38576004356007811015610b385760209060180154604051908152f35b34610b38576020366003190112610b38576001600160a01b03614a91614da1565b1661022051526007602052614afe6040610220512060ff602482015416614b28614abd60208401615072565b92614b1a614acd60218301615072565b91614b0c614ae96023614ae260228501615072565b9301615072565b9360405198899860a08a5260a08a0190614eb0565b9088820360208a0152614eb0565b908682036040880152614eb0565b908482036060860152614eb0565b90151560808301520390f35b34610b38576020366003190112610b38576004356004811015610b385760209060420154604051908152f35b34610b38576020366003190112610b385760043561022051526010602052602060ff6040610220512054166040519015158152f35b34610b38576040366003190112610b3857614bae614da1565b61022080516001600160a01b039283169052600a602052516040812080546024359392908410156104c85750602092614be691614e88565b9190546040519260031b1c168152f35b34610b38576040366003190112610b3857614c0f614da1565b6024359060ff82168203610b3857614c25615118565b6001600160a01b03908116908115614c9657600180546001600160a01b0319811684179091556002805460ff60a01b191660a09590951b60ff60a01b16949094179093556102205192167f5efdfedf5aef119c431263f0656093045dffdf44b3d8f1b0f158dc295c3a0f8e8380a380f35b60405162461bcd60e51b8152602060048201526002602482015261125560f21b6044820152606490fd5b346104c857614cd7614cd136614dbc565b91615e94565b949190926040519460c086019060c08752845180925260e0870191602080960190610220515b818110614d805750505091614d2082614d3c959489614d2e9503888b0152614de6565b908782036040890152614de6565b908582036060870152614e1a565b8381036080850152818084519283815201930191610220515b828110614d69578580868960a08301520390f35b835160ff1685529381019392810192600101614d55565b909193845190600d8210156110775790815287019387019190600101614cfd565b600435906001600160a01b0382168203614db757565b600080fd5b6060906003190112614db7576004356001600160a01b0381168103614db757906024359060443590565b90815180825260208080930193019160005b828110614e06575050505090565b835185529381019392810192600101614df8565b90815180825260208080930193019160005b828110614e3a575050505090565b83516001600160a01b031685529381019392810192600101614e2c565b600b54811015614e7257600b60005260206000200190600090565b634e487b7160e01b600052603260045260246000fd5b8054821015614e725760005260206000200190600090565b6004821015614e72570190600090565b919082519283825260005b848110614edc575050826000602080949584010152601f8019910116010190565b602081830181015184830182015201614ebb565b6040906003190112614db7576004356007811015614db7579060243590565b6000915b60048310614f2057505050565b600190825181526020809101920192019190614f13565b9181601f84011215614db7578235916001600160401b038311614db75760208381860195010111614db757565b60031115614f6e57565b634e487b7160e01b600052602160045260246000fd5b906007821015614f6e5752565b34614db7576000366003190112614db75760206040516103e88152f35b90600182811c92168015614fde575b6020831014614fc857565b634e487b7160e01b600052602260045260246000fd5b91607f1691614fbd565b60a081019081106001600160401b0382111761500357604052565b634e487b7160e01b600052604160045260246000fd5b608081019081106001600160401b0382111761500357604052565b602081019081106001600160401b0382111761500357604052565b601f909101601f19168101906001600160401b0382119082101761500357604052565b906040519182600082549261508684614fae565b9081845260019485811690816000146150f557506001146150b2575b50506150b09250038361504f565b565b9093915060005260209081600020936000915b8183106150dd5750506150b0935082010138806150a2565b855488840185015294850194879450918301916150c5565b9150506150b094506020925060ff191682840152151560051b82010138806150a2565b6000546001600160a01b0316330361512c57565b60405163118cdaa760e01b8152336004820152602490fd5b1561514b57565b60405162461bcd60e51b815260206004820152600260248201526120a960f11b6044820152606490fd5b1561517c57565b60405162461bcd60e51b8152602060048201526002602482015261495360f01b6044820152606490fd5b156151ad57565b60405162461bcd60e51b815260206004820152600260248201526124a160f11b6044820152606490fd5b906151e181614f64565b815460ff60a01b191660a09190911b60ff60a01b16179055565b9190820180921161520857565b634e487b7160e01b600052601160045260246000fd5b600b54600160401b8110156150035780600161523d9201600b55614e57565b819291549060031b9160018060a01b03809116831b921b1916179055565b8054600160401b8110156150035761523d91600182018155614e88565b60001981146152085760010190565b60ff60005460a01c1661529657565b60405163d93c066560e01b8152600490fd5b9190820391821161520857565b600080606033811b600180805b6152cf575b505050505090565b949091929394156153ba575b5060006011916152eb8354615278565b92838155600b54906040948551602093848201924284524489840152898b840152607483015260949081830152815260c0810181811060018060401b038211176153a6579064e8d4a50c189291885251902006906103e8820180921161539457506153569097615278565b936032851161536c5750509081949392946152c2565b60649250519062461bcd60e51b825260048201526002602482015261494760f01b6044820152fd5b634e487b7160e01b8552600452602484fd5b634e487b7160e01b87526041600452602487fd5b80600052601060205260ff604060002054166152db5793806152c7565b5b6001600160a01b038181166000908152600760205260409020600401541690811561540357506153d8565b905090565b5b6001600160a01b03818116600090815260076020526040902060030154169081156154035750615409565b1561543b57565b60405162461bcd60e51b8152602060048201526002602482015261272960f11b6044820152606490fd5b1561546c57565b60405162461bcd60e51b8152602060048201526002602482015261049560f41b6044820152606490fd5b906007811015614f6e57815460ff60a81b191660a89190911b60ff60a81b16179055565b8054821015614e725760005260206000209060021b0190600090565b8054600160401b811015615003576154f3916001820181556154ba565b61555657815190600d821015614f6e5760039160ff801983541691161781556020830151600182015560408301516002820155019060018060a01b03606082015116825491608060ff60a01b91015160a01b169160018060a81b03191617179055565b634e487b7160e01b600052600060045260246000fd5b8181029291811591840414171561520857565b60405163a9059cbb60e01b60009081526001600160a01b039384166004526024949094529260209060448180855af16001600051148116156155e0575b83604052156155ca57505050565b635274afe760e01b835216600482015260249150fd5b60018115166155f657813b15153d1516166155bc565b833d6000823e3d90fd5b6040516323b872dd60e01b60009081526001600160a01b03938416600452938316602452604494909452909160209060648180855af1600160005114811615615657575b836040526000606052156155ca57505050565b60018115166155f657813b15153d151616615644565b600080516020616130833981519152600281541461568b5760029055565b604051633ee5aeb560e01b8152600490fd5b6001600160a01b03908116600081815260076020526040808220600101549294929093169283156157c15783825280822092600484015460ff8160b01c166156e481614f64565b600181141590816157ac575b506157a35760a81c60ff16600781101561056b576127109161571691601f01549061556c565b0490811561579b5761579460209360077f86583c8be3288ec633d5a10afa75407d4c785bff5edd40840c42e48d0efdcfbb96615752868a615bd5565b0161575e8582546151fb565b9055868152600c855282812083519161577683614fe8565b600483528587840152428584015289606084015260808301526154d6565b51908152a3565b505050505050565b50505050505050565b600291506157b981614f64565b1415386156f0565b5050505050565b919060005b60018060a01b0380941693846000526007906020908282526002916040918383600020015416948515615a0e5761580390615278565b97601490818a11615a02578660005285835260ff600480866000200154928260b094851c169361583285614f64565b888460018097149283156159db575b505050615858575b505050505050505050926157cd565b60005287855285600020015460a01c169061587282614f64565b811494600086156159d65750885b88600052878552615899600c87600020019182546151fb565b90556158a482614f64565b811490600082156159d15750885b886000528785526158cb600d87600020019182546151fb565b90556158d681614f64565b600086156159cc5750885b886000528785526158fa600e87600020019182546151fb565b905561590581614f64565b600082156159c75750885b88600052878552615929600f87600020019182546151fb565b90556159348b615a19565b969096615942575b80615849565b61594b82614f64565b1561598a5750505061596d929161597d94601092876000525260002001614ea0565b6131798583548360031b1c6151fb565b388080808080808061593c565b615998909594929395614f64565b6159a7575b505050505061597d565b6159bd9461596d94876000525260002001614ea0565b388080808061599d565b615910565b6158e1565b6158b2565b615880565b909192508c6000528b8952848a6000200154901c166159f981614f64565b14888438615841565b50505050505050509050565b505050505050509050565b6001908181101580615a9b575b615a9557600481101580615a8a575b615a8457600781101580615a79575b615a7357600a8110159081615a67575b50615a625750600090600090565b600391565b60149150111538615a54565b50600291565b506009811115615a44565b50908190565b506006811115615a35565b50600091565b506003811115615a26565b15615aad57565b60405162461bcd60e51b81526020600482015260026024820152614e4160f01b6044820152606490fd5b15615ade57565b60405162461bcd60e51b8152602060048201526002602482015261041360f41b6044820152606490fd5b6007811015614f6e5760018103615b2d575060011015615b28575b600090565b606490565b60028103615b43575060031015615b2857600090565b60038103615b6c57506004811115615b6657600514615b6157600090565b603290565b50606490565b60048103615b8b57506005811115615b665760091015615b6157600090565b60058103615ba957506004811115615b6657600c10615b2357603290565b600614615bb7575b50600090565b6005811115615bce57600f1015615b615738615bb1565b506101f490565b9060018060a01b038216600052600760205260406000208115615c9e5760ff600482015460a81c166007811015614f6e57602d0154926000600b830194855490818111615c8d575b50508015615c8157808411615c4e575050906005615c4a9201615c418282546151fb565b905582546151fb565b9055565b82936150b0956005615c7b949501615c678482546151fb565b9055615c748382546151fb565b90556152a8565b91615ca3565b50906150b09350615ca3565b615c9792506152a8565b3880615c1d565b505050565b9060ff600291600484019081546001848260b01c16615cc181614f64565b14615cef575b50505460b01c16615cd781614f64565b14615ce0575050565b6006615c4a91019182546151fb565b60b084901b1916600160b11b17825542601b86018190556040519081526001600160a01b03909116907f2bb92f1150248e7f78a267b3904ebd95f62a5225d70dcc813fb6906c3a646e9890602090a23880615cc7565b60405191906000835b60048210615d62575050506150b082615019565b6001602081928554815201930191019091615d4e565b906004811015614e725760051b0190565b6001600160401b0381116150035760051b60200190565b90615daa82615d89565b615db7604051918261504f565b8281528092615dc8601f1991615d89565b0190602036910137565b8051821015614e725760209160051b010190565b929060018060a01b0380600095168552600a6020526040852080549485841015615e7757615e1490846151fb565b83868211615e6f575b615e26916152a8565b92615e3084615da0565b965b848110615e40575050505050565b8084615e58615e52615e6a94866151fb565b86614e88565b90549060031b1c166148ed828b615dd2565b615e32565b869150615e1d565b50505050909160405190615e8a82615034565b8082523681379190565b929160018060a01b039182600095168552600c60205260408086209283549182841015615fe25750615ec690836151fb565b82828211615fda575b615ed8916152a8565b94615ee286615da0565b96615eec87615da0565b96615ef681615da0565b96615f0082615da0565b96615f0a83615da0565b96845b848110615f1c57505050505050565b6000198801888111615fc657615f46615f408f92615f3a85876151fb565b906152a8565b856154ba565b5060ff91615f58848484541692615dd2565b600d821015615fb257918f8f90600393615fad97969552615f7e86600185015492615dd2565b52615f8e85600284015492615dd2565b520154868116615f9e848f615dd2565b5260a01c166148ed828c615dd2565b615f0d565b634e487b7160e01b8a52602160045260248afd5b634e487b7160e01b87526011600452602487fd5b829150615ecf565b9450509394915050815192615ff684615034565b81845282519461600586615034565b82865283519461601486615034565b83865284519461602386615034565b848652519361603185615034565b808552368137959493929190565b1561604657565b60405162461bcd60e51b815260206004820152600260248201526124ab60f11b6044820152606490fd5b604091949392616084826060810197614f84565b60208201520152565b600b548015615bb1576160a3600e5480926151fb565b60001981019081116152085781156160b9570490565b634e487b7160e01b600052601260045260246000fdfee22a39f862558eb01c2a26eb38c7d884b499221d9a5989f637529bd3e77fd6798be0079c531659141344cd1fd0a4f28419497f9722a3daafe3b4186f6b6457e04769bc30c3e6f90ecfef0f6e4760f65f2cc4ae6c67493463e3c9caf3d2f863e99b779b17422d0df92223018b32b4d1fa46e071723d6817e2486d003becc55f00a264697066735822122079c03bb583a381d1a5cd68b488cedfba92cbb441c30f19ec49c6bc16ddcc577664736f6c63430008140033","opcodes":"PUSH1 0x80 CALLVALUE PUSH3 0x578 JUMPI PUSH1 0x1F PUSH3 0x6738 CODESIZE DUP2 SWAP1 SUB SWAP2 DUP3 ADD PUSH1 0x1F NOT AND DUP4 ADD SWAP2 PUSH1 0x1 PUSH1 0x1 PUSH1 0x40 SHL SUB DUP4 GT DUP5 DUP5 LT OR PUSH3 0x4FD JUMPI DUP1 DUP5 SWAP3 PUSH1 0x80 SWAP5 PUSH1 0x40 MSTORE DUP4 CODECOPY DUP2 ADD SUB SLT PUSH3 0x578 JUMPI PUSH3 0x4D DUP2 PUSH3 0x59D JUMP JUMPDEST SWAP1 PUSH1 0x20 DUP2 ADD MLOAD SWAP1 PUSH1 0xFF DUP3 AND DUP3 SUB PUSH3 0x578 JUMPI PUSH3 0x7B PUSH1 0x60 PUSH3 0x73 PUSH1 0x40 DUP5 ADD PUSH3 0x59D JUMP JUMPDEST SWAP3 ADD PUSH3 0x59D JUMP JUMPDEST SWAP3 CALLER ISZERO PUSH3 0x55F JUMPI PUSH1 0x0 DUP1 SLOAD CALLER PUSH1 0x1 PUSH1 0x1 PUSH1 0xA0 SHL SUB NOT DUP3 AND DUP2 OR DUP4 SSTORE SWAP2 PUSH1 0x1 PUSH1 0x1 PUSH1 0xA0 SHL SUB SWAP1 SWAP2 AND SWAP1 PUSH32 0x8BE0079C531659141344CD1FD0A4F28419497F9722A3DAAFE3B4186F6B6457E0 SWAP1 DUP1 LOG3 PUSH1 0x1 PUSH32 0x9B779B17422D0DF92223018B32B4D1FA46E071723D6817E2486D003BECC55F00 SSTORE PUSH2 0x2710 PUSH1 0x6 SSTORE PUSH1 0x32 PUSH1 0xE SSTORE PUSH3 0x101 PUSH3 0x57D JUMP JUMPDEST PUSH1 0x0 DUP2 MSTORE PUSH2 0x1F4 PUSH1 0x20 DUP3 ADD MSTORE PUSH2 0x3E8 PUSH1 0x40 DUP3 ADD MSTORE PUSH2 0x5DC PUSH1 0x60 DUP3 ADD MSTORE PUSH2 0x7D0 PUSH1 0x80 DUP3 ADD MSTORE PUSH2 0x9C4 PUSH1 0xA0 DUP3 ADD MSTORE PUSH2 0xBB8 PUSH1 0xC0 DUP3 ADD MSTORE PUSH1 0x0 JUMPDEST PUSH1 0x7 DUP2 LT PUSH3 0x545 JUMPI POP POP PUSH3 0x14D PUSH3 0x57D JUMP JUMPDEST PUSH1 0x0 DUP2 MSTORE PUSH1 0x1 PUSH1 0x20 DUP3 ADD MSTORE PUSH1 0x3 PUSH1 0x40 DUP3 ADD MSTORE PUSH1 0x6 PUSH1 0x60 DUP3 ADD MSTORE PUSH1 0xA PUSH1 0x80 DUP3 ADD MSTORE PUSH1 0xF PUSH1 0xA0 DUP3 ADD MSTORE PUSH1 0x14 PUSH1 0xC0 DUP3 ADD MSTORE PUSH1 0x0 JUMPDEST PUSH1 0x7 DUP2 LT PUSH3 0x52C JUMPI POP POP PUSH3 0x193 PUSH3 0x57D JUMP JUMPDEST PUSH1 0x0 DUP2 MSTORE PUSH1 0x1 PUSH1 0x20 DUP3 ADD MSTORE PUSH1 0x3 PUSH1 0x40 DUP3 ADD MSTORE PUSH1 0x5 PUSH1 0x60 DUP3 ADD MSTORE PUSH1 0x9 PUSH1 0x80 DUP3 ADD MSTORE PUSH1 0xC PUSH1 0xA0 DUP3 ADD MSTORE PUSH1 0xF PUSH1 0xC0 DUP3 ADD MSTORE PUSH1 0x0 JUMPDEST PUSH1 0x7 DUP2 LT PUSH3 0x513 JUMPI POP POP PUSH1 0x40 MLOAD PUSH1 0x1 PUSH1 0x1 PUSH1 0x40 SHL SUB PUSH1 0x80 DUP3 ADD SWAP1 DUP2 GT SWAP1 DUP3 GT OR PUSH3 0x4FD JUMPI PUSH1 0x80 DUP2 ADD PUSH1 0x40 MSTORE PUSH2 0xBB8 DUP2 MSTORE PUSH2 0x7D0 PUSH1 0x20 DUP3 ADD MSTORE PUSH2 0x3E8 PUSH1 0x40 DUP3 ADD MSTORE PUSH2 0x1F4 PUSH1 0x60 DUP3 ADD MSTORE PUSH1 0x0 JUMPDEST PUSH1 0x4 DUP2 LT PUSH3 0x4E7 JUMPI POP POP PUSH1 0x1 PUSH1 0x1 PUSH1 0xA0 SHL SUB AND SWAP1 DUP2 ISZERO PUSH3 0x4BD JUMPI PUSH1 0x1 PUSH1 0x1 PUSH1 0xA0 SHL SUB AND SWAP3 DUP4 ISZERO PUSH3 0x493 JUMPI PUSH1 0x1 PUSH1 0x1 PUSH1 0xA0 SHL SUB AND SWAP1 DUP2 ISZERO PUSH3 0x469 JUMPI PUSH1 0x1 DUP1 SLOAD PUSH1 0x1 PUSH1 0x1 PUSH1 0xA0 SHL SUB NOT SWAP1 DUP2 AND SWAP3 SWAP1 SWAP3 OR SWAP1 SSTORE PUSH1 0x2 DUP1 SLOAD PUSH1 0xFF PUSH1 0xA0 SHL NOT AND PUSH1 0xA0 DUP6 SWAP1 SHL PUSH1 0xFF PUSH1 0xA0 SHL AND OR SWAP1 SSTORE PUSH1 0x3 DUP1 SLOAD DUP3 AND DUP6 OR SWAP1 SSTORE PUSH1 0x4 DUP1 SLOAD DUP3 AND SWAP1 SWAP5 OR DUP5 SSTORE PUSH1 0x16 DUP1 SLOAD SWAP1 SWAP2 AND SWAP2 SWAP1 SWAP2 OR SWAP1 SSTORE PUSH1 0x0 PUSH1 0x5 SSTORE PUSH1 0x4D PUSH1 0xFF DUP3 AND GT PUSH3 0x3EB JUMPI PUSH1 0xFF AND PUSH1 0xA EXP SWAP1 PUSH1 0x0 PUSH1 0x18 SSTORE DUP2 PUSH1 0x32 MUL PUSH1 0x32 DUP2 DIV DUP4 SUB PUSH3 0x3EB JUMPI DUP1 PUSH1 0x19 SSTORE DUP3 PUSH1 0xC8 MUL PUSH1 0xC8 DUP2 DIV DUP5 SUB PUSH3 0x454 JUMPI DUP1 PUSH1 0x1A SSTORE PUSH2 0x258 DUP5 DUP2 MUL SWAP1 DUP2 DIV DUP6 SUB PUSH3 0x43F JUMPI DUP1 PUSH1 0x1B SSTORE PUSH2 0x4B0 SWAP1 DUP6 DUP3 MUL SWAP2 DUP3 DIV DUP7 SUB PUSH3 0x42A JUMPI DUP2 PUSH1 0x1C SSTORE PUSH2 0x960 SWAP3 DUP7 DUP5 MUL SWAP4 DUP5 DIV DUP8 SUB PUSH3 0x415 JUMPI DUP4 PUSH1 0x1D SSTORE PUSH2 0x12C0 SWAP5 DUP8 DUP7 MUL SWAP6 DUP7 DIV DUP9 SUB PUSH3 0x400 JUMPI DUP6 PUSH1 0x1E SSTORE PUSH1 0x0 PUSH1 0x26 SSTORE PUSH1 0x27 SSTORE PUSH1 0x28 SSTORE PUSH1 0x29 SSTORE PUSH1 0x2A SSTORE PUSH1 0x2B SSTORE PUSH1 0x2C SSTORE PUSH1 0x0 PUSH1 0x2D SSTORE DUP2 PUSH1 0xFA MUL PUSH1 0xFA DUP2 DIV DUP4 SUB PUSH3 0x3EB JUMPI PUSH1 0x2E SSTORE DUP2 PUSH2 0x3E8 MUL PUSH2 0x3E8 DUP2 DIV DUP4 SUB PUSH3 0x3EB JUMPI PUSH1 0x2F SSTORE DUP2 PUSH2 0xBB8 MUL PUSH2 0xBB8 DUP2 DIV DUP4 SUB PUSH3 0x3EB JUMPI PUSH1 0x30 SSTORE PUSH2 0x1770 DUP3 DUP2 MUL SWAP1 DUP2 DIV DUP4 SUB PUSH3 0x3EB JUMPI PUSH1 0x31 SSTORE PUSH2 0x2EE0 DUP3 DUP2 MUL SWAP1 DUP2 DIV DUP4 SUB PUSH3 0x3EB JUMPI PUSH1 0x32 SSTORE PUSH2 0x5DC0 SWAP2 DUP1 DUP4 MUL SWAP3 DUP4 DIV SUB PUSH3 0x3D6 JUMPI POP PUSH1 0x33 SSTORE PUSH1 0x40 MLOAD PUSH2 0x6185 SWAP1 DUP2 PUSH3 0x5B3 DUP3 CODECOPY RETURN JUMPDEST PUSH1 0x11 SWAP1 PUSH4 0x4E487B71 PUSH1 0xE0 SHL PUSH1 0x0 MSTORE MSTORE PUSH1 0x24 PUSH1 0x0 REVERT JUMPDEST PUSH1 0x11 DUP3 PUSH4 0x4E487B71 PUSH1 0xE0 SHL PUSH1 0x0 MSTORE MSTORE PUSH1 0x24 PUSH1 0x0 REVERT JUMPDEST PUSH1 0x11 DUP8 PUSH4 0x4E487B71 PUSH1 0xE0 SHL PUSH1 0x0 MSTORE MSTORE PUSH1 0x24 PUSH1 0x0 REVERT JUMPDEST PUSH1 0x11 DUP7 PUSH4 0x4E487B71 PUSH1 0xE0 SHL PUSH1 0x0 MSTORE MSTORE PUSH1 0x24 PUSH1 0x0 REVERT JUMPDEST PUSH1 0x11 DUP6 PUSH4 0x4E487B71 PUSH1 0xE0 SHL PUSH1 0x0 MSTORE MSTORE PUSH1 0x24 PUSH1 0x0 REVERT JUMPDEST PUSH1 0x11 DUP5 PUSH4 0x4E487B71 PUSH1 0xE0 SHL PUSH1 0x0 MSTORE MSTORE PUSH1 0x24 PUSH1 0x0 REVERT JUMPDEST PUSH1 0x11 DUP4 PUSH4 0x4E487B71 PUSH1 0xE0 SHL PUSH1 0x0 MSTORE MSTORE PUSH1 0x24 PUSH1 0x0 REVERT JUMPDEST PUSH1 0x40 MLOAD PUSH3 0x461BCD PUSH1 0xE5 SHL DUP2 MSTORE PUSH1 0x20 PUSH1 0x4 DUP3 ADD MSTORE PUSH1 0x2 PUSH1 0x24 DUP3 ADD MSTORE PUSH2 0x4941 PUSH1 0xF0 SHL PUSH1 0x44 DUP3 ADD MSTORE PUSH1 0x64 SWAP1 REVERT JUMPDEST PUSH1 0x40 MLOAD PUSH3 0x461BCD PUSH1 0xE5 SHL DUP2 MSTORE PUSH1 0x20 PUSH1 0x4 DUP3 ADD MSTORE PUSH1 0x2 PUSH1 0x24 DUP3 ADD MSTORE PUSH2 0x24A3 PUSH1 0xF1 SHL PUSH1 0x44 DUP3 ADD MSTORE PUSH1 0x64 SWAP1 REVERT JUMPDEST PUSH1 0x40 MLOAD PUSH3 0x461BCD PUSH1 0xE5 SHL DUP2 MSTORE PUSH1 0x20 PUSH1 0x4 DUP3 ADD MSTORE PUSH1 0x2 PUSH1 0x24 DUP3 ADD MSTORE PUSH2 0x1255 PUSH1 0xF2 SHL PUSH1 0x44 DUP3 ADD MSTORE PUSH1 0x64 SWAP1 REVERT JUMPDEST PUSH1 0x1 SWAP1 PUSH1 0x20 DUP4 MLOAD SWAP4 ADD SWAP3 DUP2 PUSH1 0x42 ADD SSTORE ADD PUSH3 0x211 JUMP JUMPDEST PUSH4 0x4E487B71 PUSH1 0xE0 SHL PUSH1 0x0 MSTORE PUSH1 0x41 PUSH1 0x4 MSTORE PUSH1 0x24 PUSH1 0x0 REVERT JUMPDEST PUSH1 0x1 SWAP1 PUSH1 0x20 PUSH1 0xFF DUP5 MLOAD AND SWAP4 ADD SWAP3 DUP2 PUSH1 0x3B ADD SSTORE ADD PUSH3 0x1C4 JUMP JUMPDEST PUSH1 0x1 SWAP1 PUSH1 0x20 PUSH1 0xFF DUP5 MLOAD AND SWAP4 ADD SWAP3 DUP2 PUSH1 0x34 ADD SSTORE ADD PUSH3 0x17E JUMP JUMPDEST PUSH1 0x1 SWAP1 PUSH1 0x20 PUSH2 0xFFFF DUP5 MLOAD AND SWAP4 ADD SWAP3 DUP2 PUSH1 0x1F ADD SSTORE ADD PUSH3 0x138 JUMP JUMPDEST PUSH1 0x40 MLOAD PUSH4 0x1E4FBDF7 PUSH1 0xE0 SHL DUP2 MSTORE PUSH1 0x0 PUSH1 0x4 DUP3 ADD MSTORE PUSH1 0x24 SWAP1 REVERT JUMPDEST PUSH1 0x0 DUP1 REVERT JUMPDEST PUSH1 0x40 MLOAD SWAP1 PUSH1 0xE0 DUP3 ADD PUSH1 0x1 PUSH1 0x1 PUSH1 0x40 SHL SUB DUP2 GT DUP4 DUP3 LT OR PUSH3 0x4FD JUMPI PUSH1 0x40 MSTORE JUMP JUMPDEST MLOAD SWAP1 PUSH1 0x1 PUSH1 0x1 PUSH1 0xA0 SHL SUB DUP3 AND DUP3 SUB PUSH3 0x578 JUMPI JUMP INVALID PUSH2 0x300 PUSH1 0x40 MSTORE PUSH1 0x4 CALLDATASIZE LT ISZERO PUSH2 0x13 JUMPI PUSH1 0x0 DUP1 REVERT JUMPDEST PUSH1 0x0 DUP1 PUSH2 0x220 MSTORE DUP1 DUP1 CALLDATALOAD PUSH1 0xE0 SHR SWAP1 DUP2 PUSH4 0x12685F4 EQ PUSH2 0x4CC0 JUMPI DUP2 PUSH4 0x327EF49 EQ PUSH2 0x4BF6 JUMPI DUP2 PUSH4 0x5AD3935 EQ PUSH2 0x4B95 JUMPI DUP2 PUSH4 0xB6A9539 EQ PUSH2 0x4B60 JUMPI DUP2 PUSH4 0xD57A79C EQ PUSH2 0x4B34 JUMPI DUP2 PUSH4 0xF53A470 EQ PUSH2 0x4A70 JUMPI DUP2 PUSH4 0x179BD5C8 EQ PUSH2 0x4A44 JUMPI DUP2 PUSH4 0x1915D956 EQ PUSH2 0x49B0 JUMPI DUP2 PUSH4 0x1CDC545C EQ PUSH2 0x492D JUMPI DUP2 PUSH4 0x1D64E593 EQ PUSH2 0x490C JUMPI DUP2 PUSH4 0x2BBF1A30 EQ PUSH2 0x473C JUMPI DUP2 PUSH4 0x2C2896B3 EQ PUSH2 0x46F9 JUMPI DUP2 PUSH4 0x2E1888B8 EQ PUSH2 0x4694 JUMPI DUP2 PUSH4 0x2E1A7D4D EQ PUSH2 0x40CB JUMPI DUP2 PUSH4 0x2EEE563E EQ PUSH2 0x3C4A JUMPI DUP2 PUSH4 0x3013CE29 EQ PUSH2 0x3C1E JUMPI DUP2 PUSH4 0x31E1F29B EQ PUSH2 0x3B05 JUMPI DUP2 PUSH4 0x385399F9 EQ PUSH2 0x3BC2 JUMPI DUP2 PUSH4 0x3AC272C2 EQ PUSH2 0x3B6A JUMPI DUP2 PUSH4 0x3B97E856 EQ PUSH2 0x3B43 JUMPI DUP2 PUSH4 0x3D6BACF3 EQ PUSH2 0x3B05 JUMPI DUP2 PUSH4 0x3F4BA83A EQ PUSH2 0x3A89 JUMPI DUP2 PUSH4 0x4286064E EQ PUSH2 0x3A5D JUMPI DUP2 PUSH4 0x4526B4AA EQ PUSH2 0x3A3C JUMPI DUP2 PUSH4 0x463CFFE6 EQ PUSH2 0x39F9 JUMPI DUP2 PUSH4 0x46904840 EQ PUSH2 0x39CD JUMPI DUP2 PUSH4 0x47CD5191 EQ PUSH2 0x3947 JUMPI DUP2 PUSH4 0x4B695586 EQ PUSH2 0x38BA JUMPI DUP2 PUSH4 0x55509C8F EQ PUSH2 0x32AF JUMPI DUP2 PUSH4 0x556415D9 EQ PUSH2 0x328F JUMPI DUP2 PUSH4 0x57F0140A EQ PUSH2 0x2F16 JUMPI DUP2 PUSH4 0x5A1FAEB9 EQ PUSH2 0x2EEA JUMPI DUP2 PUSH4 0x5C975ABB EQ PUSH2 0x2EC2 JUMPI DUP2 PUSH4 0x6207F522 EQ PUSH2 0x2AAD JUMPI DUP2 PUSH4 0x624A893D EQ PUSH2 0x2A8C JUMPI DUP2 PUSH4 0x6386C1C7 EQ PUSH2 0x299B JUMPI DUP2 PUSH4 0x69E94F4D EQ PUSH2 0x2923 JUMPI DUP2 PUSH4 0x6AA6C0CE EQ PUSH2 0x26D0 JUMPI DUP2 PUSH4 0x6D0364D7 EQ PUSH2 0x23E3 JUMPI DUP2 PUSH4 0x6E0881DA EQ PUSH2 0x26B0 JUMPI DUP2 PUSH4 0x6F9FB98A EQ PUSH2 0x261E JUMPI DUP2 PUSH4 0x7115BBA7 EQ PUSH2 0x1A8D JUMPI DUP2 PUSH4 0x715018A6 EQ PUSH2 0x25D0 JUMPI DUP2 PUSH4 0x7FEEF9D6 EQ PUSH2 0x2532 JUMPI DUP2 PUSH4 0x8225757B EQ PUSH2 0x24C8 JUMPI DUP2 PUSH4 0x8456CB59 EQ PUSH2 0x245C JUMPI DUP2 PUSH4 0x85F8F11B EQ PUSH2 0x2430 JUMPI DUP2 PUSH4 0x8BC7E8C4 EQ PUSH2 0x240F JUMPI DUP2 PUSH4 0x8D7B5690 EQ PUSH2 0x23E3 JUMPI DUP2 PUSH4 0x8DA5CB5B EQ PUSH2 0x23B9 JUMPI DUP2 PUSH4 0x92167DE2 EQ PUSH2 0x232C JUMPI DUP2 PUSH4 0x92446E30 EQ PUSH2 0x1A8D JUMPI DUP2 PUSH4 0x956501BB EQ PUSH2 0x22EE JUMPI DUP2 PUSH4 0x9726B9F2 EQ PUSH2 0x2039 JUMPI DUP2 PUSH4 0x9A688A99 EQ PUSH2 0x1FC1 JUMPI DUP2 PUSH4 0x9BE572F6 EQ PUSH2 0x1FA0 JUMPI DUP2 PUSH4 0xA2BDEDF4 EQ PUSH2 0x1F77 JUMPI DUP2 PUSH4 0xA5AD0586 EQ PUSH2 0x1ECB JUMPI DUP2 PUSH4 0xA7229FD9 EQ PUSH2 0x1E41 JUMPI DUP2 PUSH4 0xA87430BA EQ PUSH2 0x1B1F JUMPI DUP2 PUSH4 0xAC1E5025 EQ PUSH2 0x1A92 JUMPI DUP2 PUSH4 0xAC6C264E EQ PUSH2 0x1A8D JUMPI DUP2 PUSH4 0xB1695201 EQ PUSH2 0x1A55 JUMPI DUP2 PUSH4 0xB33DD0C9 EQ PUSH2 0x1A29 JUMPI DUP2 PUSH4 0xB6B55F25 EQ PUSH2 0x1932 JUMPI DUP2 PUSH4 0xB882C4D8 EQ PUSH2 0x18BA JUMPI DUP2 PUSH4 0xBBC18F6F EQ PUSH2 0x1899 JUMPI DUP2 PUSH4 0xBEFBE97D EQ PUSH2 0x17E9 JUMPI DUP2 PUSH4 0xC24BE7FB EQ PUSH2 0x14D2 JUMPI DUP2 PUSH4 0xC3B6F939 EQ PUSH2 0x14A6 JUMPI DUP2 PUSH4 0xC3C5A547 EQ PUSH2 0x1463 JUMPI DUP2 PUSH4 0xC9D484CF EQ PUSH2 0x1437 JUMPI DUP2 PUSH4 0xCE0B2122 EQ PUSH2 0x12DB JUMPI DUP2 PUSH4 0xD117DE03 EQ PUSH2 0x12AF JUMPI DUP2 PUSH4 0xD24AF2B8 EQ PUSH2 0x1239 JUMPI DUP2 PUSH4 0xD2C8E0E5 EQ PUSH2 0x1199 JUMPI DUP2 PUSH4 0xD4A90286 EQ PUSH2 0x10CF JUMPI DUP2 PUSH4 0xD58C6172 EQ PUSH2 0xE38 JUMPI DUP2 PUSH4 0xD8F33840 EQ PUSH2 0xDFA JUMPI DUP2 PUSH4 0xD9C842FD EQ PUSH2 0xDC2 JUMPI DUP2 PUSH4 0xD9F9F63F EQ PUSH2 0xC8F JUMPI DUP2 PUSH4 0xE1F1C4A7 EQ PUSH2 0xC6F JUMPI DUP2 PUSH4 0xE3BA9BDA EQ PUSH2 0xBF7 JUMPI DUP2 PUSH4 0xE4093A66 EQ PUSH2 0x947 JUMPI DUP2 PUSH4 0xE561DDDC EQ PUSH2 0x924 JUMPI DUP2 PUSH4 0xE63619A5 EQ PUSH2 0x8F7 JUMPI DUP2 PUSH4 0xE74B981B EQ PUSH2 0x882 JUMPI DUP2 PUSH4 0xEB63E1C2 EQ PUSH2 0x7ED JUMPI DUP2 PUSH4 0xECDC5907 EQ PUSH2 0x783 JUMPI DUP2 PUSH4 0xECE2BC23 EQ PUSH2 0x6D1 JUMPI DUP2 PUSH4 0xED05AE78 EQ PUSH2 0x698 JUMPI DUP2 PUSH4 0xEF2C5C50 EQ PUSH2 0x678 JUMPI DUP2 PUSH4 0xF00B0093 EQ PUSH2 0x63F JUMPI DUP2 PUSH4 0xF2FDE38B EQ PUSH2 0x5C4 JUMPI POP DUP1 PUSH4 0xFC3C8A0C EQ PUSH2 0x59B JUMPI DUP1 PUSH4 0xFC4A36F6 EQ PUSH2 0x57F JUMPI DUP1 PUSH4 0xFDC65D6E EQ PUSH2 0x4CB JUMPI PUSH4 0xFF5D32FE EQ PUSH2 0x45C JUMPI PUSH1 0x0 DUP1 REVERT JUMPDEST CALLVALUE PUSH2 0x4C8 JUMPI PUSH1 0x20 CALLDATASIZE PUSH1 0x3 NOT ADD SLT PUSH2 0x4C8 JUMPI PUSH1 0x4 CALLDATALOAD PUSH1 0xB SLOAD DUP2 LT ISZERO PUSH2 0x49E JUMPI PUSH2 0x485 PUSH1 0x20 SWAP2 PUSH2 0x4E57 JUMP JUMPDEST SWAP1 SLOAD PUSH1 0x40 MLOAD PUSH1 0x3 SWAP3 SWAP1 SWAP3 SHL SHR PUSH1 0x1 PUSH1 0x1 PUSH1 0xA0 SHL SUB AND DUP2 MSTORE RETURN JUMPDEST PUSH1 0x40 MLOAD PUSH3 0x461BCD PUSH1 0xE5 SHL DUP2 MSTORE PUSH1 0x20 PUSH1 0x4 DUP3 ADD MSTORE PUSH1 0x2 PUSH1 0x24 DUP3 ADD MSTORE PUSH2 0x27A1 PUSH1 0xF1 SHL PUSH1 0x44 DUP3 ADD MSTORE PUSH1 0x64 SWAP1 REVERT JUMPDEST DUP1 REVERT JUMPDEST POP CALLVALUE PUSH2 0x4C8 JUMPI PUSH2 0x4DA CALLDATASIZE PUSH2 0x4EF0 JUMP JUMPDEST SWAP1 PUSH2 0x4E3 PUSH2 0x5118 JUMP JUMPDEST PUSH1 0x7 DUP2 LT ISZERO DUP1 PUSH2 0x56B JUMPI PUSH1 0x1 DUP3 LT ISZERO DUP1 PUSH2 0x55B JUMPI JUMPDEST PUSH2 0x501 SWAP1 PUSH2 0x5465 JUMP JUMPDEST PUSH2 0x547 JUMPI SWAP1 DUP2 PUSH2 0x541 PUSH32 0x36152E7515AADA41257500317963EA57C35904A845E67C595F4E110377A08F20 SWAP4 PUSH1 0x18 ADD SWAP3 DUP1 DUP5 SLOAD SWAP5 SSTORE PUSH1 0x40 MLOAD SWAP4 DUP5 SWAP4 DUP5 PUSH2 0x6070 JUMP JUMPDEST SUB SWAP1 LOG1 DUP1 RETURN JUMPDEST PUSH4 0x4E487B71 PUSH1 0xE0 SHL DUP4 MSTORE PUSH1 0x21 PUSH1 0x4 MSTORE PUSH1 0x24 DUP4 REVERT JUMPDEST POP POP PUSH2 0x220 MLOAD PUSH1 0x6 DUP3 GT ISZERO PUSH2 0x4F8 JUMP JUMPDEST PUSH4 0x4E487B71 PUSH1 0xE0 SHL DUP5 MSTORE PUSH1 0x21 PUSH1 0x4 MSTORE PUSH1 0x24 DUP5 REVERT JUMPDEST POP CALLVALUE PUSH2 0x4C8 JUMPI DUP1 PUSH1 0x3 NOT CALLDATASIZE ADD SLT PUSH2 0x4C8 JUMPI PUSH1 0x20 PUSH1 0x40 MLOAD PUSH1 0x64 DUP2 MSTORE RETURN JUMPDEST POP CALLVALUE PUSH2 0x4C8 JUMPI DUP1 PUSH1 0x3 NOT CALLDATASIZE ADD SLT PUSH2 0x4C8 JUMPI PUSH1 0x4 SLOAD PUSH1 0x40 MLOAD PUSH1 0x1 PUSH1 0x1 PUSH1 0xA0 SHL SUB SWAP1 SWAP2 AND DUP2 MSTORE PUSH1 0x20 SWAP1 RETURN JUMPDEST SWAP1 POP CALLVALUE PUSH2 0x63B JUMPI PUSH1 0x20 CALLDATASIZE PUSH1 0x3 NOT ADD SLT PUSH2 0x63B JUMPI PUSH2 0x5DF PUSH2 0x4DA1 JUMP JUMPDEST SWAP1 PUSH2 0x5E8 PUSH2 0x5118 JUMP JUMPDEST PUSH1 0x1 PUSH1 0x1 PUSH1 0xA0 SHL SUB SWAP2 DUP3 AND SWAP2 DUP3 ISZERO PUSH2 0x622 JUMPI DUP2 SLOAD PUSH1 0x1 PUSH1 0x1 PUSH1 0xA0 SHL SUB NOT DUP2 AND DUP5 OR DUP4 SSTORE AND SWAP1 PUSH1 0x0 DUP1 MLOAD PUSH1 0x20 PUSH2 0x60F0 DUP4 CODECOPY DUP2 MLOAD SWAP2 MSTORE SWAP1 DUP1 LOG3 DUP1 RETURN JUMPDEST PUSH1 0x40 MLOAD PUSH4 0x1E4FBDF7 PUSH1 0xE0 SHL DUP2 MSTORE PUSH1 0x4 DUP2 ADD DUP6 SWAP1 MSTORE PUSH1 0x24 SWAP1 REVERT JUMPDEST POP DUP1 REVERT JUMPDEST DUP3 CALLVALUE PUSH2 0x4C8 JUMPI PUSH1 0x20 CALLDATASIZE PUSH1 0x3 NOT ADD SLT PUSH2 0x4C8 JUMPI PUSH1 0x20 SWAP1 PUSH1 0x40 SWAP1 PUSH1 0x1 PUSH1 0x1 PUSH1 0xA0 SHL SUB PUSH2 0x667 PUSH2 0x4DA1 JUMP JUMPDEST AND DUP2 MSTORE PUSH1 0x13 DUP4 MSTORE KECCAK256 SLOAD PUSH1 0x40 MLOAD SWAP1 DUP2 MSTORE RETURN JUMPDEST DUP3 CALLVALUE PUSH2 0x4C8 JUMPI DUP1 PUSH1 0x3 NOT CALLDATASIZE ADD SLT PUSH2 0x4C8 JUMPI PUSH1 0x20 PUSH1 0x40 MLOAD PUSH5 0xE8D4A50FFF DUP2 MSTORE RETURN JUMPDEST DUP3 CALLVALUE PUSH2 0x4C8 JUMPI PUSH1 0x20 CALLDATASIZE PUSH1 0x3 NOT ADD SLT PUSH2 0x4C8 JUMPI PUSH1 0x20 SWAP1 PUSH1 0x40 SWAP1 PUSH1 0x1 PUSH1 0x1 PUSH1 0xA0 SHL SUB PUSH2 0x6C0 PUSH2 0x4DA1 JUMP JUMPDEST AND DUP2 MSTORE PUSH1 0x14 DUP4 MSTORE KECCAK256 SLOAD PUSH1 0x40 MLOAD SWAP1 DUP2 MSTORE RETURN JUMPDEST DUP3 CALLVALUE PUSH2 0x4C8 JUMPI PUSH1 0x20 CALLDATASIZE PUSH1 0x3 NOT ADD SLT PUSH2 0x4C8 JUMPI PUSH1 0x1 PUSH1 0x1 PUSH1 0xA0 SHL SUB PUSH2 0x6F3 PUSH2 0x4DA1 JUMP JUMPDEST AND DUP2 MSTORE PUSH1 0x7 PUSH1 0x20 MSTORE PUSH1 0x40 DUP2 KECCAK256 PUSH1 0xC DUP2 ADD SLOAD SWAP1 PUSH1 0xD DUP2 ADD SLOAD SWAP1 PUSH1 0xE DUP2 ADD SLOAD PUSH1 0xF DUP3 ADD SLOAD PUSH1 0x18 DUP4 ADD SLOAD SWAP1 PUSH1 0xFF PUSH1 0x4 DUP6 ADD SLOAD PUSH1 0xA8 SHR AND PUSH1 0x7 DUP2 LT ISZERO PUSH2 0x76F JUMPI PUSH2 0x100 SWAP8 POP PUSH1 0x26 ADD SLOAD SWAP3 PUSH1 0x1F PUSH1 0x1E DUP7 ADD SLOAD SWAP6 ADD SLOAD SWAP6 PUSH1 0x40 MLOAD SWAP8 DUP9 MSTORE PUSH1 0x20 DUP9 ADD MSTORE PUSH1 0x40 DUP8 ADD MSTORE PUSH1 0x60 DUP7 ADD MSTORE PUSH1 0x80 DUP6 ADD MSTORE PUSH1 0xA0 DUP5 ADD MSTORE PUSH1 0xC0 DUP4 ADD MSTORE PUSH1 0xE0 DUP3 ADD MSTORE RETURN JUMPDEST PUSH4 0x4E487B71 PUSH1 0xE0 SHL DUP9 MSTORE PUSH1 0x21 PUSH1 0x4 MSTORE PUSH1 0x24 DUP9 REVERT JUMPDEST DUP3 CALLVALUE PUSH2 0x4C8 JUMPI PUSH2 0x7EA PUSH2 0x795 CALLDATASIZE PUSH2 0x4DBC JUMP JUMPDEST SWAP1 SWAP2 PUSH1 0x1 DUP1 PUSH1 0xA0 SHL SUB SWAP1 PUSH2 0x7AE DUP3 PUSH1 0x15 SLOAD AND CALLER EQ PUSH2 0x5AA6 JUMP JUMPDEST AND DUP5 MSTORE PUSH1 0xC PUSH1 0x20 MSTORE PUSH1 0xFF PUSH1 0x40 DUP6 KECCAK256 SWAP2 PUSH1 0x40 MLOAD SWAP4 PUSH2 0x7CA DUP6 PUSH2 0x4FE8 JUMP JUMPDEST PUSH1 0x8 DUP6 MSTORE PUSH1 0x20 DUP6 ADD MSTORE TIMESTAMP PUSH1 0x40 DUP6 ADD MSTORE DUP6 PUSH1 0x60 DUP6 ADD MSTORE AND PUSH1 0x80 DUP4 ADD MSTORE PUSH2 0x54D6 JUMP JUMPDEST DUP1 RETURN JUMPDEST DUP3 CALLVALUE PUSH2 0x4C8 JUMPI PUSH1 0x20 SWAP2 DUP3 PUSH1 0x3 NOT CALLDATASIZE ADD SLT PUSH2 0x63B JUMPI PUSH1 0x15 SLOAD PUSH1 0x40 MLOAD PUSH4 0x75B1F0E1 PUSH1 0xE1 SHL DUP2 MSTORE PUSH1 0x4 DUP1 CALLDATALOAD SWAP1 DUP3 ADD MSTORE SWAP2 SWAP1 DUP5 SWAP1 DUP4 SWAP1 PUSH1 0x24 SWAP1 DUP3 SWAP1 PUSH1 0x1 PUSH1 0x1 PUSH1 0xA0 SHL SUB AND GAS STATICCALL SWAP3 DUP4 ISZERO PUSH2 0x876 JUMPI SWAP3 PUSH2 0x846 JUMPI JUMPDEST POP POP PUSH1 0x40 MLOAD SWAP1 DUP2 MSTORE RETURN JUMPDEST SWAP1 SWAP2 POP DUP3 DUP3 DUP2 RETURNDATASIZE DUP4 GT PUSH2 0x86F JUMPI JUMPDEST PUSH2 0x85E DUP2 DUP4 PUSH2 0x504F JUMP JUMPDEST DUP2 ADD SUB SLT PUSH2 0x4C8 JUMPI POP MLOAD DUP3 DUP1 PUSH2 0x83C JUMP JUMPDEST POP RETURNDATASIZE PUSH2 0x854 JUMP JUMPDEST PUSH1 0x40 MLOAD SWAP1 RETURNDATASIZE SWAP1 DUP3 RETURNDATACOPY RETURNDATASIZE SWAP1 REVERT JUMPDEST DUP3 CALLVALUE PUSH2 0x4C8 JUMPI PUSH1 0x20 CALLDATASIZE PUSH1 0x3 NOT ADD SLT PUSH2 0x4C8 JUMPI PUSH2 0x89C PUSH2 0x4DA1 JUMP JUMPDEST PUSH2 0x8A4 PUSH2 0x5118 JUMP JUMPDEST PUSH1 0x1 PUSH1 0x1 PUSH1 0xA0 SHL SUB SWAP1 DUP2 AND SWAP1 PUSH2 0x8BB DUP3 ISZERO ISZERO PUSH2 0x603F JUMP JUMPDEST PUSH1 0x3 DUP1 SLOAD PUSH1 0x1 PUSH1 0x1 PUSH1 0xA0 SHL SUB NOT DUP2 AND DUP5 OR SWAP1 SWAP2 SSTORE AND PUSH32 0xAAEBCF1BFA00580E41D966056B48521FA9F202645C86D4DDF28113E617C1B1D3 DUP4 DUP1 LOG3 DUP1 RETURN JUMPDEST DUP3 CALLVALUE PUSH2 0x4C8 JUMPI PUSH1 0x20 CALLDATASIZE PUSH1 0x3 NOT ADD SLT PUSH2 0x4C8 JUMPI PUSH1 0x4 CALLDATALOAD PUSH1 0x7 DUP2 LT ISZERO PUSH2 0x63B JUMPI PUSH1 0x20 SWAP1 PUSH1 0x18 ADD SLOAD PUSH1 0x40 MLOAD SWAP1 DUP2 MSTORE RETURN JUMPDEST DUP3 CALLVALUE PUSH2 0x4C8 JUMPI DUP1 PUSH1 0x3 NOT CALLDATASIZE ADD SLT PUSH2 0x4C8 JUMPI PUSH1 0x20 PUSH2 0x93F PUSH2 0x608D JUMP JUMPDEST PUSH1 0x40 MLOAD SWAP1 DUP2 MSTORE RETURN JUMPDEST SWAP1 POP CALLVALUE PUSH2 0xB38 JUMPI PUSH2 0x220 MLOAD DUP1 PUSH1 0x3 NOT CALLDATASIZE ADD SLT PUSH2 0x4C8 JUMPI POP PUSH2 0x966 PUSH2 0x566D JUMP JUMPDEST PUSH2 0x96E PUSH2 0x5287 JUMP JUMPDEST CALLER PUSH2 0x220 MLOAD MSTORE PUSH1 0x20 PUSH1 0x8 DUP2 MSTORE PUSH2 0x98D PUSH1 0xFF PUSH1 0x40 PUSH2 0x220 MLOAD KECCAK256 SLOAD AND PUSH2 0x5434 JUMP JUMPDEST CALLER PUSH2 0x220 MLOAD MSTORE PUSH1 0x7 DUP2 MSTORE PUSH1 0x1 PUSH1 0xFF PUSH1 0x4 PUSH1 0x40 PUSH2 0x220 MLOAD KECCAK256 ADD SLOAD PUSH1 0xB0 SHR AND PUSH2 0x9B3 DUP2 PUSH2 0x4F64 JUMP JUMPDEST EQ DUP1 ISZERO PUSH2 0xBC5 JUMPI JUMPDEST PUSH2 0x9C4 SWAP1 PUSH2 0x5AA6 JUMP JUMPDEST PUSH1 0x15 SLOAD PUSH1 0x1 PUSH1 0x1 PUSH1 0xA0 SHL SUB SWAP2 SWAP1 DUP3 AND DUP1 ISZERO PUSH2 0xB9B JUMPI DUP2 PUSH1 0x24 SWAP2 PUSH1 0x40 MLOAD SWAP3 DUP4 DUP1 SWAP3 PUSH4 0x47CD5191 PUSH1 0xE0 SHL DUP3 MSTORE PUSH1 0x1 PUSH1 0x4 DUP4 ADD MSTORE GAS STATICCALL SWAP1 DUP2 ISZERO PUSH2 0xB2A JUMPI PUSH2 0x220 MLOAD SWAP2 PUSH2 0xB6A JUMPI JUMPDEST POP CALLER PUSH2 0x220 MLOAD MSTORE PUSH1 0x12 DUP3 MSTORE DUP1 PUSH1 0x40 PUSH2 0x220 MLOAD KECCAK256 SLOAD LT PUSH2 0xB3F JUMPI SWAP1 PUSH2 0xAA2 SWAP2 CALLER PUSH2 0x220 MLOAD MSTORE PUSH1 0x12 DUP3 MSTORE PUSH1 0x40 PUSH2 0x220 MLOAD KECCAK256 PUSH2 0xA42 DUP3 DUP3 SLOAD PUSH2 0x52A8 JUMP JUMPDEST SWAP1 SSTORE CALLER PUSH2 0x220 MLOAD MSTORE PUSH1 0x13 DUP3 MSTORE PUSH1 0x40 PUSH2 0x220 MLOAD KECCAK256 PUSH2 0xA5F DUP2 SLOAD PUSH2 0x5278 JUMP JUMPDEST SWAP1 SSTORE CALLER PUSH2 0x220 MLOAD MSTORE PUSH1 0xC DUP3 MSTORE PUSH1 0x40 PUSH2 0x220 MLOAD KECCAK256 SWAP1 PUSH1 0x40 MLOAD SWAP3 PUSH2 0xA80 DUP5 PUSH2 0x4FE8 JUMP JUMPDEST PUSH1 0x8 DUP5 MSTORE DUP4 ADD MSTORE TIMESTAMP PUSH1 0x40 DUP4 ADD MSTORE PUSH2 0x220 MLOAD PUSH1 0x60 DUP4 ADD MSTORE PUSH1 0x1 PUSH1 0x80 DUP4 ADD MSTORE PUSH2 0x54D6 JUMP JUMPDEST PUSH1 0x15 SLOAD AND SWAP1 DUP2 EXTCODESIZE ISZERO PUSH2 0xB38 JUMPI PUSH1 0x40 MLOAD SWAP2 PUSH4 0x686A38BD PUSH1 0xE0 SHL DUP4 MSTORE CALLER PUSH1 0x4 DUP5 ADD MSTORE PUSH1 0x1 PUSH1 0x24 DUP5 ADD MSTORE DUP3 PUSH1 0x44 DUP2 PUSH2 0x220 MLOAD DUP1 SWAP5 GAS CALL DUP1 ISZERO PUSH2 0xB2A JUMPI PUSH2 0xAF6 JUMPI JUMPDEST DUP3 PUSH1 0x1 PUSH1 0x0 DUP1 MLOAD PUSH1 0x20 PUSH2 0x6130 DUP4 CODECOPY DUP2 MLOAD SWAP2 MSTORE SSTORE DUP1 RETURN JUMPDEST SWAP1 SWAP2 POP PUSH1 0x1 PUSH1 0x1 PUSH1 0x40 SHL SUB DUP3 GT PUSH2 0xB16 JUMPI POP PUSH1 0x40 MSTORE PUSH2 0x220 MLOAD CODESIZE DUP1 PUSH2 0xAE0 JUMP JUMPDEST PUSH4 0x4E487B71 PUSH1 0xE0 SHL DUP2 MSTORE PUSH1 0x41 PUSH1 0x4 MSTORE PUSH1 0x24 SWAP1 REVERT JUMPDEST PUSH1 0x40 MLOAD RETURNDATASIZE PUSH2 0x220 MLOAD DUP3 RETURNDATACOPY RETURNDATASIZE SWAP1 REVERT JUMPDEST PUSH2 0x220 MLOAD DUP1 REVERT JUMPDEST PUSH1 0x40 MLOAD PUSH3 0x461BCD PUSH1 0xE5 SHL DUP2 MSTORE PUSH1 0x4 DUP2 ADD DUP4 SWAP1 MSTORE PUSH1 0x3 PUSH1 0x24 DUP3 ADD MSTORE PUSH3 0x49425 PUSH1 0xEC SHL PUSH1 0x44 DUP3 ADD MSTORE PUSH1 0x64 SWAP1 REVERT JUMPDEST SWAP1 POP DUP2 DUP2 DUP2 RETURNDATASIZE DUP4 GT PUSH2 0xB94 JUMPI JUMPDEST PUSH2 0xB81 DUP2 DUP4 PUSH2 0x504F JUMP JUMPDEST DUP2 ADD SUB SLT PUSH2 0xB90 JUMPI MLOAD CODESIZE PUSH2 0xA08 JUMP JUMPDEST DUP4 DUP1 REVERT JUMPDEST POP RETURNDATASIZE PUSH2 0xB77 JUMP JUMPDEST PUSH1 0x40 MLOAD PUSH3 0x461BCD PUSH1 0xE5 SHL DUP2 MSTORE PUSH1 0x4 DUP2 ADD DUP4 SWAP1 MSTORE PUSH1 0x2 PUSH1 0x24 DUP3 ADD MSTORE PUSH2 0x849 PUSH1 0xF3 SHL PUSH1 0x44 DUP3 ADD MSTORE PUSH1 0x64 SWAP1 REVERT JUMPDEST POP CALLER PUSH2 0x220 MLOAD MSTORE PUSH1 0x7 DUP2 MSTORE PUSH2 0x9C4 PUSH1 0x2 PUSH1 0xFF PUSH1 0x4 PUSH1 0x40 PUSH2 0x220 MLOAD KECCAK256 ADD SLOAD PUSH1 0xB0 SHR AND PUSH2 0xBEF DUP2 PUSH2 0x4F64 JUMP JUMPDEST EQ SWAP1 POP PUSH2 0x9BB JUMP JUMPDEST CALLVALUE PUSH2 0xB38 JUMPI PUSH1 0x20 CALLDATASIZE PUSH1 0x3 NOT ADD SLT PUSH2 0xB38 JUMPI PUSH2 0xC10 PUSH2 0x4DA1 JUMP JUMPDEST PUSH2 0xC18 PUSH2 0x5118 JUMP JUMPDEST PUSH1 0x1 PUSH1 0x1 PUSH1 0xA0 SHL SUB SWAP1 DUP2 AND PUSH2 0xC2E DUP2 ISZERO ISZERO PUSH2 0x603F JUMP JUMPDEST PUSH1 0x15 DUP1 SLOAD PUSH1 0x1 PUSH1 0x1 PUSH1 0xA0 SHL SUB NOT DUP2 AND DUP4 OR SWAP1 SWAP2 SSTORE PUSH2 0x220 MLOAD SWAP3 AND PUSH32 0x8E4AC8019922EEA64E9103A076C60B36EC30C71C863A376D6557AB9F6734C484 DUP4 DUP1 LOG3 DUP1 RETURN JUMPDEST CALLVALUE PUSH2 0xB38 JUMPI PUSH2 0x220 MLOAD DUP1 PUSH1 0x3 NOT CALLDATASIZE ADD SLT PUSH2 0x4C8 JUMPI PUSH1 0x20 PUSH1 0x40 MLOAD PUSH2 0x2710 DUP2 MSTORE RETURN JUMPDEST CALLVALUE PUSH2 0xB38 JUMPI PUSH1 0x20 DUP1 PUSH1 0x3 NOT CALLDATASIZE ADD SLT PUSH2 0xB38 JUMPI PUSH2 0xCA9 PUSH2 0x4DA1 JUMP JUMPDEST PUSH2 0xCB1 PUSH2 0x5118 JUMP JUMPDEST PUSH1 0x1 DUP1 PUSH1 0xA0 SHL SUB AND DUP1 PUSH2 0x220 MLOAD MSTORE PUSH1 0x8 DUP3 MSTORE PUSH2 0xCD6 PUSH1 0xFF PUSH1 0x40 PUSH2 0x220 MLOAD KECCAK256 SLOAD AND PUSH2 0x5434 JUMP JUMPDEST DUP1 PUSH2 0x220 MLOAD MSTORE PUSH1 0x7 DUP3 MSTORE PUSH1 0x40 PUSH2 0x220 MLOAD KECCAK256 SWAP2 PUSH1 0x4 DUP4 ADD DUP1 SLOAD SWAP1 PUSH1 0x2 PUSH1 0xFF DUP4 PUSH1 0xB0 SHR AND PUSH2 0xD01 DUP2 PUSH2 0x4F64 JUMP JUMPDEST SUB PUSH2 0xD98 JUMPI PUSH1 0x1B DUP6 ADD SLOAD PUSH3 0x2A300 DUP2 ADD DUP1 SWAP2 GT PUSH2 0xD7E JUMPI TIMESTAMP GT ISZERO PUSH2 0xD54 JUMPI PUSH1 0x6 PUSH1 0x0 DUP1 MLOAD PUSH1 0x20 PUSH2 0x6110 DUP4 CODECOPY DUP2 MLOAD SWAP2 MSTORE SWAP5 SWAP6 ADD SWAP2 DUP3 SLOAD SWAP3 PUSH2 0x220 MLOAD SWAP1 SSTORE PUSH1 0xFF PUSH1 0xB0 SHL NOT AND SWAP1 SSTORE PUSH1 0x40 MLOAD SWAP1 DUP2 MSTORE LOG2 PUSH2 0x220 MLOAD DUP1 RETURN JUMPDEST PUSH1 0x40 MLOAD PUSH3 0x461BCD PUSH1 0xE5 SHL DUP2 MSTORE PUSH1 0x4 DUP2 ADD DUP5 SWAP1 MSTORE PUSH1 0x2 PUSH1 0x24 DUP3 ADD MSTORE PUSH2 0x4745 PUSH1 0xF0 SHL PUSH1 0x44 DUP3 ADD MSTORE PUSH1 0x64 SWAP1 REVERT JUMPDEST PUSH4 0x4E487B71 PUSH1 0xE0 SHL PUSH2 0x220 MLOAD MSTORE PUSH1 0x11 PUSH1 0x4 MSTORE PUSH1 0x24 PUSH2 0x220 MLOAD REVERT JUMPDEST PUSH1 0x40 MLOAD PUSH3 0x461BCD PUSH1 0xE5 SHL DUP2 MSTORE PUSH1 0x4 DUP2 ADD DUP5 SWAP1 MSTORE PUSH1 0x2 PUSH1 0x24 DUP3 ADD MSTORE PUSH2 0x4E47 PUSH1 0xF0 SHL PUSH1 0x44 DUP3 ADD MSTORE PUSH1 0x64 SWAP1 REVERT JUMPDEST CALLVALUE PUSH2 0xB38 JUMPI PUSH2 0xDF0 PUSH2 0xDDC PUSH2 0xDD6 CALLDATASIZE PUSH2 0x4DBC JUMP JUMPDEST SWAP2 PUSH2 0x5DE6 JUMP JUMPDEST PUSH1 0x40 MLOAD SWAP3 DUP4 SWAP3 PUSH1 0x40 DUP5 MSTORE PUSH1 0x40 DUP5 ADD SWAP1 PUSH2 0x4E1A JUMP JUMPDEST SWAP1 PUSH1 0x20 DUP4 ADD MSTORE SUB SWAP1 RETURN JUMPDEST CALLVALUE PUSH2 0xB38 JUMPI PUSH1 0x20 CALLDATASIZE PUSH1 0x3 NOT ADD SLT PUSH2 0xB38 JUMPI PUSH1 0x1 PUSH1 0x1 PUSH1 0xA0 SHL SUB PUSH2 0xE1B PUSH2 0x4DA1 JUMP JUMPDEST AND PUSH2 0x220 MLOAD MSTORE PUSH1 0xC PUSH1 0x20 MSTORE PUSH1 0x20 PUSH1 0x40 PUSH2 0x220 MLOAD KECCAK256 SLOAD PUSH1 0x40 MLOAD SWAP1 DUP2 MSTORE RETURN JUMPDEST CALLVALUE PUSH2 0xB38 JUMPI PUSH2 0x220 MLOAD DUP1 PUSH1 0x3 NOT CALLDATASIZE ADD SLT PUSH2 0x4C8 JUMPI PUSH2 0xE54 PUSH2 0x566D JUMP JUMPDEST PUSH2 0xE5C PUSH2 0x5287 JUMP JUMPDEST CALLER PUSH2 0x220 MLOAD MSTORE PUSH1 0x20 PUSH1 0x8 DUP2 MSTORE PUSH2 0xE7B PUSH1 0xFF PUSH1 0x40 PUSH2 0x220 MLOAD KECCAK256 SLOAD AND PUSH2 0x5434 JUMP JUMPDEST CALLER PUSH2 0x220 MLOAD MSTORE PUSH1 0x7 DUP2 MSTORE PUSH1 0x40 PUSH2 0x220 MLOAD KECCAK256 SWAP1 PUSH1 0x4 DUP3 ADD SWAP1 DUP2 SLOAD PUSH1 0xFF DUP2 PUSH1 0xB0 SHR AND PUSH2 0xEA4 DUP2 PUSH2 0x4F64 JUMP JUMPDEST DUP1 ISZERO SWAP1 DUP2 ISZERO PUSH2 0x10BB JUMPI JUMPDEST POP ISZERO PUSH2 0x1091 JUMPI PUSH1 0xA8 SHR PUSH1 0xFF AND PUSH1 0x7 DUP2 LT ISZERO PUSH2 0x1077 JUMPI PUSH1 0x1 DUP2 LT PUSH2 0x104D JUMPI PUSH1 0x18 ADD SLOAD SWAP2 PUSH1 0x1 DUP1 PUSH1 0xA0 SHL SUB SWAP4 PUSH2 0xEEA DUP5 DUP7 PUSH1 0x1 SLOAD AND ADDRESS SWAP1 CALLER SWAP1 PUSH2 0x5600 JUMP JUMPDEST PUSH1 0x18 PUSH1 0x1 PUSH1 0xB0 SHL PUSH1 0xFF PUSH1 0xB0 SHL NOT DUP5 SLOAD AND OR SWAP2 DUP3 DUP5 SSTORE PUSH2 0x220 MLOAD SWAP2 DUP2 DUP4 PUSH1 0xB DUP2 SWAP5 ADD SSTORE DUP3 PUSH1 0x6 DUP3 ADD SSTORE DUP3 PUSH1 0x1B DUP3 ADD SSTORE ADD SSTORE CALLER SWAP1 MSTORE PUSH1 0xC DUP4 MSTORE PUSH2 0x220 MLOAD SWAP1 PUSH1 0xFF PUSH1 0x40 DUP4 KECCAK256 SWAP2 PUSH1 0xA8 SHR AND SWAP2 PUSH1 0x7 DUP4 LT ISZERO PUSH2 0x1035 JUMPI POP SWAP2 PUSH2 0xF76 PUSH1 0xFF SWAP3 DUP7 SWAP5 PUSH1 0x40 MLOAD SWAP2 PUSH2 0xF52 DUP4 PUSH2 0x4FE8 JUMP JUMPDEST PUSH2 0x220 MLOAD DUP4 MSTORE DUP7 DUP9 DUP5 ADD MSTORE TIMESTAMP PUSH1 0x40 DUP5 ADD MSTORE PUSH2 0x220 MLOAD PUSH1 0x60 DUP5 ADD MSTORE PUSH1 0x80 DUP4 ADD MSTORE PUSH2 0x54D6 JUMP JUMPDEST SLOAD PUSH1 0xA8 SHR AND SWAP2 PUSH2 0xF89 PUSH1 0x40 MLOAD DUP1 SWAP5 PUSH2 0x4F84 JUMP JUMPDEST DUP3 ADD MSTORE PUSH32 0xF71A293B26BE95A1C2120E73A1712C62B20F254AE47EFF7F6E799402984E6AB PUSH1 0x40 CALLER SWAP3 LOG2 PUSH2 0x1770 SWAP2 DUP3 DUP3 MUL SWAP3 DUP3 DUP5 DIV EQ DUP3 ISZERO OR ISZERO PUSH2 0xD7E JUMPI PUSH2 0xFD8 PUSH2 0x2710 PUSH2 0xFFE SWAP5 DIV DUP1 SWAP4 PUSH2 0x52A8 JUMP JUMPDEST DUP2 PUSH1 0x4 SLOAD AND DUP1 ISZERO ISZERO DUP1 PUSH2 0x102C JUMPI JUMPDEST PUSH2 0x1017 JUMPI JUMPDEST POP POP POP PUSH2 0xFF8 DUP2 CALLER PUSH2 0x569D JUMP JUMPDEST CALLER PUSH2 0x57C8 JUMP JUMPDEST PUSH1 0x1 PUSH1 0x0 DUP1 MLOAD PUSH1 0x20 PUSH2 0x6130 DUP4 CODECOPY DUP2 MLOAD SWAP2 MSTORE SSTORE PUSH2 0x220 MLOAD DUP1 RETURN JUMPDEST PUSH2 0x1024 SWAP3 PUSH1 0x1 SLOAD AND PUSH2 0x557F JUMP JUMPDEST DUP3 DUP1 DUP1 PUSH2 0xFEB JUMP JUMPDEST POP DUP2 ISZERO ISZERO PUSH2 0xFE6 JUMP JUMPDEST PUSH4 0x4E487B71 PUSH1 0xE0 SHL SWAP1 MSTORE PUSH1 0x21 PUSH1 0x4 MSTORE PUSH2 0x220 MLOAD PUSH1 0x24 SWAP1 REVERT JUMPDEST PUSH1 0x40 MLOAD PUSH3 0x461BCD PUSH1 0xE5 SHL DUP2 MSTORE PUSH1 0x4 DUP2 ADD DUP4 SWAP1 MSTORE PUSH1 0x2 PUSH1 0x24 DUP3 ADD MSTORE PUSH2 0x4E5 PUSH1 0xF4 SHL PUSH1 0x44 DUP3 ADD MSTORE PUSH1 0x64 SWAP1 REVERT JUMPDEST PUSH4 0x4E487B71 PUSH1 0xE0 SHL PUSH2 0x220 MLOAD MSTORE PUSH1 0x21 PUSH1 0x4 MSTORE PUSH1 0x24 PUSH2 0x220 MLOAD REVERT JUMPDEST PUSH1 0x40 MLOAD PUSH3 0x461BCD PUSH1 0xE5 SHL DUP2 MSTORE PUSH1 0x4 DUP2 ADD DUP4 SWAP1 MSTORE PUSH1 0x2 PUSH1 0x24 DUP3 ADD MSTORE PUSH2 0x4D49 PUSH1 0xF0 SHL PUSH1 0x44 DUP3 ADD MSTORE PUSH1 0x64 SWAP1 REVERT JUMPDEST PUSH1 0x2 SWAP2 POP PUSH2 0x10C8 DUP2 PUSH2 0x4F64 JUMP JUMPDEST EQ DUP6 PUSH2 0xEAE JUMP JUMPDEST CALLVALUE PUSH2 0xB38 JUMPI PUSH1 0x40 CALLDATASIZE PUSH1 0x3 NOT ADD SLT PUSH2 0xB38 JUMPI PUSH1 0x15 SLOAD PUSH1 0x40 MLOAD PUSH4 0x6A548143 PUSH1 0xE1 SHL DUP2 MSTORE PUSH1 0x4 DUP1 CALLDATALOAD SWAP1 DUP3 ADD MSTORE PUSH1 0x24 DUP1 CALLDATALOAD SWAP1 DUP3 ADD MSTORE PUSH1 0x1 PUSH1 0x1 PUSH1 0xA0 SHL SUB SWAP2 PUSH1 0x60 SWAP1 DUP3 SWAP1 PUSH1 0x44 SWAP1 DUP3 SWAP1 DUP7 AND GAS STATICCALL DUP1 ISZERO PUSH2 0xB2A JUMPI PUSH2 0x220 MLOAD SWAP2 DUP3 SWAP1 DUP4 SWAP3 PUSH2 0x1144 JUMPI JUMPDEST POP PUSH1 0x60 SWAP4 PUSH1 0x40 MLOAD SWAP4 AND DUP4 MSTORE PUSH1 0x20 DUP4 ADD MSTORE ISZERO ISZERO PUSH1 0x40 DUP3 ADD MSTORE RETURN JUMPDEST SWAP3 POP POP POP PUSH1 0x60 DUP2 RETURNDATASIZE DUP3 GT PUSH2 0x1191 JUMPI JUMPDEST DUP2 PUSH2 0x1160 PUSH1 0x60 SWAP4 DUP4 PUSH2 0x504F JUMP JUMPDEST DUP2 ADD SUB SLT PUSH2 0xB38 JUMPI DUP1 MLOAD SWAP2 DUP1 DUP4 AND DUP4 SUB PUSH2 0xB38 JUMPI PUSH1 0x40 PUSH1 0x20 DUP4 ADD MLOAD SWAP3 ADD MLOAD DUP1 ISZERO ISZERO DUP2 SUB PUSH2 0xB38 JUMPI SWAP1 SWAP3 SWAP2 PUSH1 0x60 PUSH2 0x112B JUMP JUMPDEST RETURNDATASIZE SWAP2 POP PUSH2 0x1153 JUMP JUMPDEST CALLVALUE PUSH2 0xB38 JUMPI PUSH1 0x20 DUP1 PUSH1 0x3 NOT CALLDATASIZE ADD SLT PUSH2 0xB38 JUMPI PUSH1 0x1 PUSH1 0x1 PUSH1 0xA0 SHL SUB SWAP1 DUP2 PUSH2 0x11BD PUSH2 0x4DA1 JUMP JUMPDEST AND PUSH2 0x220 MLOAD MSTORE PUSH1 0xA DUP2 MSTORE PUSH1 0x40 PUSH2 0x220 MLOAD KECCAK256 SWAP2 PUSH1 0x40 MLOAD DUP1 SWAP4 DUP5 SWAP2 DUP5 DUP3 SLOAD SWAP2 DUP3 DUP2 MSTORE ADD SWAP2 PUSH2 0x220 MLOAD MSTORE PUSH2 0x220 MLOAD SWAP4 DUP6 DUP6 KECCAK256 SWAP5 SWAP1 JUMPDEST DUP7 DUP4 DUP4 LT PUSH2 0x121D JUMPI DUP6 SWAP1 PUSH2 0x1205 DUP3 DUP8 SUB DUP4 PUSH2 0x504F JUMP JUMPDEST PUSH2 0x1219 PUSH1 0x40 MLOAD SWAP3 DUP3 DUP5 SWAP4 DUP5 MSTORE DUP4 ADD SWAP1 PUSH2 0x4E1A JUMP JUMPDEST SUB SWAP1 RETURN JUMPDEST DUP7 SLOAD DUP3 AND DUP6 MSTORE PUSH1 0x1 SWAP7 DUP8 ADD SWAP7 DUP10 SWAP7 POP SWAP5 ADD SWAP4 SWAP2 SWAP1 SWAP2 ADD SWAP1 PUSH2 0x11EF JUMP JUMPDEST CALLVALUE PUSH2 0xB38 JUMPI PUSH2 0x12A8 PUSH2 0x124A CALLDATASIZE PUSH2 0x4DBC JUMP JUMPDEST SWAP1 SWAP2 PUSH1 0x1 DUP1 PUSH1 0xA0 SHL SUB SWAP1 PUSH2 0x1263 DUP3 PUSH1 0x15 SLOAD AND CALLER EQ PUSH2 0x5AA6 JUMP JUMPDEST AND PUSH2 0x220 MLOAD MSTORE PUSH1 0xC PUSH1 0x20 MSTORE PUSH1 0xFF PUSH1 0x40 PUSH2 0x220 MLOAD KECCAK256 SWAP2 PUSH1 0x40 MLOAD SWAP4 PUSH2 0x1285 DUP6 PUSH2 0x4FE8 JUMP JUMPDEST PUSH1 0x9 DUP6 MSTORE PUSH1 0x20 DUP6 ADD MSTORE TIMESTAMP PUSH1 0x40 DUP6 ADD MSTORE PUSH2 0x220 MLOAD PUSH1 0x60 DUP6 ADD MSTORE AND PUSH1 0x80 DUP4 ADD MSTORE PUSH2 0x54D6 JUMP JUMPDEST PUSH2 0x220 MLOAD DUP1 RETURN JUMPDEST CALLVALUE PUSH2 0xB38 JUMPI PUSH2 0x220 MLOAD DUP1 PUSH1 0x3 NOT CALLDATASIZE ADD SLT PUSH2 0x4C8 JUMPI PUSH1 0x16 SLOAD PUSH1 0x40 MLOAD PUSH1 0x1 PUSH1 0x1 PUSH1 0xA0 SHL SUB SWAP1 SWAP2 AND DUP2 MSTORE PUSH1 0x20 SWAP1 RETURN JUMPDEST CALLVALUE PUSH2 0xB38 JUMPI PUSH1 0x20 DUP1 PUSH1 0x3 NOT CALLDATASIZE ADD SLT PUSH2 0xB38 JUMPI PUSH1 0x4 CALLDATALOAD SWAP1 PUSH1 0x1 PUSH1 0x1 PUSH1 0x40 SHL SUB SWAP1 DUP2 DUP4 GT PUSH2 0xB38 JUMPI CALLDATASIZE PUSH1 0x23 DUP5 ADD SLT ISZERO PUSH2 0xB38 JUMPI DUP3 PUSH1 0x4 ADD CALLDATALOAD SWAP2 DUP3 GT PUSH2 0xB38 JUMPI PUSH1 0x24 SWAP3 PUSH1 0x5 SWAP1 CALLDATASIZE DUP6 DUP6 DUP5 SHL DUP4 ADD ADD GT PUSH2 0xB38 JUMPI PUSH2 0x1333 PUSH2 0x5118 JUMP JUMPDEST PUSH2 0x220 MLOAD JUMPDEST DUP5 DUP2 LT PUSH2 0x1346 JUMPI PUSH2 0x220 MLOAD DUP1 RETURN JUMPDEST DUP1 DUP4 SHL DUP3 ADD DUP7 ADD CALLDATALOAD PUSH1 0x1 PUSH1 0x1 PUSH1 0xA0 SHL SUB DUP2 AND SWAP2 SWAP1 DUP3 SWAP1 SUB PUSH2 0xB38 JUMPI DUP2 PUSH2 0x220 MLOAD MSTORE PUSH1 0x8 DUP6 MSTORE PUSH2 0x220 MLOAD SWAP2 PUSH1 0xFF SWAP3 DUP4 PUSH1 0x40 DUP3 KECCAK256 SLOAD AND ISZERO PUSH2 0x142B JUMPI PUSH1 0x40 SWAP1 PUSH1 0x7 DUP9 MSTORE KECCAK256 PUSH1 0x4 DUP2 ADD SWAP4 PUSH1 0x2 DUP6 SLOAD SWAP2 DUP3 PUSH1 0xB0 SHR AND PUSH2 0x139F DUP2 PUSH2 0x4F64 JUMP JUMPDEST SUB PUSH2 0x141E JUMPI PUSH1 0x1B DUP3 ADD SLOAD SWAP1 PUSH3 0x2A300 DUP3 ADD DUP1 SWAP3 GT PUSH2 0x1405 JUMPI PUSH2 0x13F6 SWAP6 DUP10 SWAP3 TIMESTAMP GT ISZERO PUSH2 0x13FB JUMPI PUSH1 0x6 PUSH1 0x0 DUP1 MLOAD PUSH1 0x20 PUSH2 0x6110 DUP4 CODECOPY DUP2 MLOAD SWAP2 MSTORE SWAP5 ADD SWAP2 DUP3 SLOAD SWAP3 PUSH2 0x220 MLOAD SWAP1 SSTORE PUSH1 0xFF PUSH1 0xB0 SHL NOT AND SWAP1 SSTORE PUSH1 0x40 MLOAD SWAP1 DUP2 MSTORE LOG2 PUSH2 0x5278 JUMP JUMPDEST PUSH2 0x1338 JUMP JUMPDEST POP POP POP POP POP PUSH2 0x5278 JUMP JUMPDEST DUP11 PUSH4 0x4E487B71 PUSH1 0xE0 SHL PUSH2 0x220 MLOAD MSTORE PUSH1 0x11 PUSH1 0x4 MSTORE PUSH2 0x220 MLOAD REVERT JUMPDEST POP POP POP PUSH2 0x13F6 SWAP2 POP PUSH2 0x5278 JUMP JUMPDEST POP POP PUSH2 0x13F6 SWAP2 POP PUSH2 0x5278 JUMP JUMPDEST CALLVALUE PUSH2 0xB38 JUMPI PUSH2 0x220 MLOAD DUP1 PUSH1 0x3 NOT CALLDATASIZE ADD SLT PUSH2 0x4C8 JUMPI PUSH1 0x15 SLOAD PUSH1 0x40 MLOAD PUSH1 0x1 PUSH1 0x1 PUSH1 0xA0 SHL SUB SWAP1 SWAP2 AND DUP2 MSTORE PUSH1 0x20 SWAP1 RETURN JUMPDEST CALLVALUE PUSH2 0xB38 JUMPI PUSH1 0x20 CALLDATASIZE PUSH1 0x3 NOT ADD SLT PUSH2 0xB38 JUMPI PUSH1 0x1 PUSH1 0x1 PUSH1 0xA0 SHL SUB PUSH2 0x1484 PUSH2 0x4DA1 JUMP JUMPDEST AND PUSH2 0x220 MLOAD MSTORE PUSH1 0x8 PUSH1 0x20 MSTORE PUSH1 0x20 PUSH1 0xFF PUSH1 0x40 PUSH2 0x220 MLOAD KECCAK256 SLOAD AND PUSH1 0x40 MLOAD SWAP1 ISZERO ISZERO DUP2 MSTORE RETURN JUMPDEST CALLVALUE PUSH2 0xB38 JUMPI PUSH2 0x220 MLOAD DUP1 PUSH1 0x3 NOT CALLDATASIZE ADD SLT PUSH2 0x4C8 JUMPI PUSH1 0x2 SLOAD PUSH1 0x40 MLOAD PUSH1 0x1 PUSH1 0x1 PUSH1 0xA0 SHL SUB SWAP1 SWAP2 AND DUP2 MSTORE PUSH1 0x20 SWAP1 RETURN JUMPDEST CALLVALUE PUSH2 0xB38 JUMPI PUSH1 0x60 CALLDATASIZE PUSH1 0x3 NOT ADD SLT PUSH2 0xB38 JUMPI PUSH1 0x24 CALLDATALOAD SWAP1 PUSH1 0x44 CALLDATALOAD SWAP1 DUP2 ISZERO ISZERO DUP3 SUB PUSH2 0x4C8 JUMPI POP PUSH2 0x14FD PUSH2 0x5287 JUMP JUMPDEST CALLER PUSH2 0x220 MLOAD MSTORE PUSH1 0x20 SWAP2 PUSH1 0x8 DUP4 MSTORE PUSH2 0x151E PUSH1 0xFF PUSH1 0x40 PUSH2 0x220 MLOAD KECCAK256 SLOAD AND ISZERO PUSH2 0x5144 JUMP JUMPDEST PUSH2 0x220 MLOAD PUSH1 0xB SLOAD PUSH2 0x171C JUMPI POP POP POP PUSH2 0x220 MLOAD DUP1 SWAP2 DUP2 JUMPDEST PUSH2 0x153C PUSH2 0x52B5 JUMP JUMPDEST SWAP2 DUP3 PUSH2 0x220 MLOAD MSTORE PUSH1 0x10 DUP2 MSTORE PUSH2 0x220 MLOAD PUSH1 0x40 DUP2 KECCAK256 SWAP1 PUSH1 0xFF NOT SWAP2 PUSH1 0x1 DUP4 DUP3 SLOAD AND OR SWAP1 SSTORE PUSH1 0xF DUP4 MSTORE PUSH1 0x40 DUP2 KECCAK256 SWAP1 PUSH1 0x1 DUP1 PUSH1 0xA0 SHL SUB NOT SWAP2 CALLER DUP4 DUP3 SLOAD AND OR SWAP1 SSTORE CALLER SWAP1 MSTORE PUSH1 0x7 DUP4 MSTORE PUSH1 0x40 PUSH2 0x220 MLOAD KECCAK256 DUP6 DUP2 SSTORE PUSH1 0x1 DUP2 ADD SWAP7 PUSH1 0x1 DUP1 PUSH1 0xA0 SHL SUB DUP1 SWAP2 AND SWAP8 DUP9 DUP5 DUP3 SLOAD AND OR SWAP1 SSTORE PUSH1 0x2 DUP3 ADD SWAP9 AND SWAP8 DUP9 DUP4 DUP3 SLOAD AND OR SWAP1 SSTORE PUSH1 0x4 DUP2 ADD PUSH2 0x15BD DUP7 DUP3 PUSH2 0x51D7 JUMP JUMPDEST DUP1 SLOAD PUSH1 0xFF PUSH1 0xB0 SHL NOT AND SWAP1 SSTORE TIMESTAMP PUSH1 0x1C DUP3 ADD SSTORE PUSH2 0x220 MLOAD DUP9 ISZERO DUP1 ISZERO SWAP3 SWAP2 DUP11 SWAP2 DUP2 SWAP1 PUSH2 0x1710 JUMPI POP MSTORE PUSH1 0x7 DUP6 MSTORE PUSH2 0x220 MLOAD PUSH1 0x1F PUSH1 0x40 DUP3 KECCAK256 ADD SLOAD SWAP1 PUSH1 0x1 DUP3 ADD DUP1 SWAP3 GT PUSH2 0x16F8 JUMPI POP PUSH1 0x1F SWAP1 SWAP2 JUMPDEST ADD SSTORE PUSH2 0x16A1 JUMPI JUMPDEST POP DUP5 PUSH2 0x1662 JUMPI JUMPDEST CALLER PUSH2 0x220 MLOAD MSTORE PUSH1 0x8 DUP3 MSTORE PUSH1 0x1 PUSH1 0x40 PUSH2 0x220 MLOAD KECCAK256 SWAP2 DUP3 SLOAD AND OR SWAP1 SSTORE PUSH2 0x1635 CALLER PUSH2 0x521E JUMP JUMPDEST PUSH1 0x40 MLOAD SWAP3 DUP4 MSTORE PUSH2 0x1644 DUP3 PUSH2 0x4F64 JUMP JUMPDEST DUP3 ADD MSTORE PUSH1 0x0 DUP1 MLOAD PUSH1 0x20 PUSH2 0x60D0 DUP4 CODECOPY DUP2 MLOAD SWAP2 MSTORE PUSH1 0x40 CALLER SWAP3 LOG4 PUSH2 0x220 MLOAD DUP1 RETURN JUMPDEST DUP5 PUSH2 0x220 MLOAD MSTORE PUSH1 0xA DUP3 MSTORE PUSH2 0x167C CALLER PUSH1 0x40 PUSH2 0x220 MLOAD KECCAK256 PUSH2 0x525B JUMP JUMPDEST DUP5 PUSH2 0x220 MLOAD MSTORE PUSH1 0x7 DUP3 MSTORE PUSH1 0x1A PUSH1 0x40 PUSH2 0x220 MLOAD KECCAK256 ADD PUSH2 0x169A DUP2 SLOAD PUSH2 0x5278 JUMP JUMPDEST SWAP1 SSTORE PUSH2 0x1612 JUMP JUMPDEST PUSH2 0x16AA DUP5 PUSH2 0x4F64 JUMP JUMPDEST PUSH1 0x1 DUP5 SUB PUSH2 0x16D6 JUMPI DUP7 PUSH2 0x220 MLOAD MSTORE PUSH1 0x7 DUP4 MSTORE PUSH1 0x3 PUSH1 0x40 PUSH2 0x220 MLOAD KECCAK256 ADD SWAP1 CALLER SWAP1 DUP3 SLOAD AND OR SWAP1 SSTORE JUMPDEST DUP7 PUSH2 0x160B JUMP JUMPDEST DUP7 PUSH2 0x220 MLOAD MSTORE PUSH1 0x7 DUP4 MSTORE PUSH1 0x4 PUSH1 0x40 PUSH2 0x220 MLOAD KECCAK256 ADD SWAP1 CALLER SWAP1 DUP3 SLOAD AND OR SWAP1 SSTORE PUSH2 0x16D0 JUMP JUMPDEST PUSH4 0x4E487B71 PUSH1 0xE0 SHL SWAP1 MSTORE PUSH1 0x11 PUSH1 0x4 MSTORE PUSH2 0x220 MLOAD PUSH1 0x24 SWAP1 REVERT JUMPDEST SWAP1 POP PUSH1 0x1F SWAP2 POP SWAP2 PUSH2 0x1604 JUMP JUMPDEST PUSH1 0x4 CALLDATALOAD SWAP1 MSTORE PUSH1 0xF DUP4 MSTORE PUSH2 0x220 MLOAD SWAP2 PUSH1 0x1 DUP1 PUSH1 0xA0 SHL SUB SWAP2 DUP3 PUSH1 0x40 DUP6 KECCAK256 SLOAD AND DUP1 SWAP5 DUP2 ISZERO ISZERO SWAP1 DUP2 PUSH2 0x17CD JUMPI JUMPDEST POP PUSH2 0x1750 SWAP2 POP PUSH2 0x5175 JUMP JUMPDEST DUP1 PUSH2 0x1781 JUMPI POP DUP3 SWAP2 POP JUMPDEST ISZERO PUSH2 0x1770 JUMPI PUSH2 0x1768 SWAP1 PUSH2 0x5408 JUMP JUMPDEST SWAP2 PUSH1 0x1 PUSH2 0x1534 JUMP JUMPDEST PUSH2 0x1779 SWAP1 PUSH2 0x53D7 JUMP JUMPDEST SWAP2 PUSH1 0x2 PUSH2 0x1534 JUMP JUMPDEST PUSH2 0x220 MLOAD MSTORE PUSH1 0xF DUP5 MSTORE PUSH2 0x220 MLOAD SWAP2 PUSH1 0x40 DUP4 KECCAK256 SLOAD AND DUP1 SWAP3 DUP2 ISZERO ISZERO SWAP1 DUP2 PUSH2 0x17B1 JUMPI JUMPDEST POP PUSH2 0x17AC SWAP2 POP PUSH2 0x51A6 JUMP JUMPDEST PUSH2 0x175A JUMP JUMPDEST SWAP1 POP MSTORE PUSH1 0x8 DUP5 MSTORE PUSH2 0x17AC PUSH1 0xFF PUSH1 0x40 PUSH2 0x220 MLOAD KECCAK256 SLOAD AND DUP4 SWAP2 PUSH2 0x17A1 JUMP JUMPDEST SWAP1 POP MSTORE PUSH1 0x8 DUP6 MSTORE PUSH2 0x1750 PUSH1 0xFF PUSH1 0x40 PUSH2 0x220 MLOAD KECCAK256 SLOAD AND DUP6 SWAP2 PUSH2 0x1745 JUMP JUMPDEST CALLVALUE PUSH2 0xB38 JUMPI PUSH1 0x20 CALLDATASIZE PUSH1 0x3 NOT ADD SLT PUSH2 0xB38 JUMPI PUSH1 0x1 PUSH1 0x1 PUSH1 0xA0 SHL SUB PUSH2 0x180A PUSH2 0x4DA1 JUMP JUMPDEST AND PUSH2 0x220 MLOAD MSTORE PUSH1 0x7 PUSH1 0x20 MSTORE PUSH2 0x220 MLOAD PUSH1 0x40 DUP2 KECCAK256 PUSH1 0x7 DUP2 ADD SLOAD SWAP1 PUSH1 0x8 DUP2 ADD SLOAD SWAP1 PUSH1 0x9 DUP2 ADD SLOAD PUSH1 0xA DUP3 ADD SLOAD PUSH1 0xB DUP4 ADD SLOAD SWAP2 PUSH1 0xFF PUSH1 0x4 PUSH1 0x1D DUP7 ADD SLOAD SWAP6 ADD SLOAD PUSH1 0xA8 SHR AND PUSH1 0x7 DUP2 LT ISZERO PUSH2 0x1881 JUMPI PUSH1 0xE0 SWAP8 POP PUSH1 0x2D ADD SLOAD SWAP5 PUSH1 0x40 MLOAD SWAP7 DUP8 MSTORE PUSH1 0x20 DUP8 ADD MSTORE PUSH1 0x40 DUP7 ADD MSTORE PUSH1 0x60 DUP6 ADD MSTORE PUSH1 0x80 DUP5 ADD MSTORE PUSH1 0xA0 DUP4 ADD MSTORE PUSH1 0xC0 DUP3 ADD MSTORE RETURN JUMPDEST PUSH4 0x4E487B71 PUSH1 0xE0 SHL DUP9 MSTORE PUSH1 0x21 PUSH1 0x4 MSTORE PUSH2 0x220 MLOAD PUSH1 0x24 SWAP1 REVERT JUMPDEST CALLVALUE PUSH2 0xB38 JUMPI PUSH2 0x220 MLOAD DUP1 PUSH1 0x3 NOT CALLDATASIZE ADD SLT PUSH2 0x4C8 JUMPI PUSH1 0x20 PUSH1 0x40 MLOAD PUSH3 0x2A300 DUP2 MSTORE RETURN JUMPDEST CALLVALUE PUSH2 0xB38 JUMPI PUSH1 0x20 CALLDATASIZE PUSH1 0x3 NOT ADD SLT PUSH2 0xB38 JUMPI PUSH2 0x18D3 PUSH2 0x4DA1 JUMP JUMPDEST PUSH2 0x18DB PUSH2 0x5118 JUMP JUMPDEST PUSH1 0x1 PUSH1 0x1 PUSH1 0xA0 SHL SUB SWAP1 DUP2 AND PUSH2 0x18F1 DUP2 ISZERO ISZERO PUSH2 0x603F JUMP JUMPDEST PUSH1 0x2 DUP1 SLOAD PUSH1 0x1 PUSH1 0x1 PUSH1 0xA0 SHL SUB NOT DUP2 AND DUP4 OR SWAP1 SWAP2 SSTORE PUSH2 0x220 MLOAD SWAP3 AND PUSH32 0xFA56BEAA7224E963963FC4C47C38A66D9813310693D7BB15814EA8E39B335184 DUP4 DUP1 LOG3 DUP1 RETURN JUMPDEST CALLVALUE PUSH2 0xB38 JUMPI PUSH1 0x20 CALLDATASIZE PUSH1 0x3 NOT ADD SLT PUSH2 0xB38 JUMPI PUSH1 0x4 CALLDATALOAD PUSH2 0x194E PUSH2 0x566D JUMP JUMPDEST PUSH2 0x1956 PUSH2 0x5287 JUMP JUMPDEST PUSH2 0x1961 DUP2 ISZERO ISZERO PUSH2 0x5AD7 JUMP JUMPDEST PUSH1 0x1 SLOAD PUSH2 0x197C SWAP1 DUP3 SWAP1 ADDRESS SWAP1 CALLER SWAP1 PUSH1 0x1 PUSH1 0x1 PUSH1 0xA0 SHL SUB AND PUSH2 0x5600 JUMP JUMPDEST CALLER PUSH2 0x220 MLOAD MSTORE PUSH1 0x14 PUSH1 0x20 MSTORE PUSH1 0x40 PUSH2 0x220 MLOAD KECCAK256 PUSH2 0x1999 DUP3 DUP3 SLOAD PUSH2 0x51FB JUMP JUMPDEST SWAP1 SSTORE CALLER PUSH2 0x220 MLOAD MSTORE PUSH1 0xC PUSH1 0x20 MSTORE PUSH2 0x19E4 PUSH1 0x40 PUSH2 0x220 MLOAD KECCAK256 PUSH1 0x40 MLOAD SWAP1 PUSH2 0x19BD DUP3 PUSH2 0x4FE8 JUMP JUMPDEST PUSH1 0xC DUP3 MSTORE DUP4 PUSH1 0x20 DUP4 ADD MSTORE TIMESTAMP PUSH1 0x40 DUP4 ADD MSTORE PUSH2 0x220 MLOAD PUSH1 0x60 DUP4 ADD MSTORE PUSH2 0x220 MLOAD PUSH1 0x80 DUP4 ADD MSTORE PUSH2 0x54D6 JUMP JUMPDEST PUSH1 0x40 MLOAD SWAP1 DUP2 MSTORE PUSH32 0x2DA466A7B24304F47E87FA2E1E5A81B9831CE54FEC19055CE277CA2F39BA42C4 PUSH1 0x20 CALLER SWAP3 LOG2 PUSH1 0x1 PUSH1 0x0 DUP1 MLOAD PUSH1 0x20 PUSH2 0x6130 DUP4 CODECOPY DUP2 MLOAD SWAP2 MSTORE SSTORE PUSH2 0x220 MLOAD DUP1 RETURN JUMPDEST CALLVALUE PUSH2 0xB38 JUMPI PUSH1 0x20 CALLDATASIZE PUSH1 0x3 NOT ADD SLT PUSH2 0xB38 JUMPI PUSH1 0x4 CALLDATALOAD PUSH1 0x7 DUP2 LT ISZERO PUSH2 0xB38 JUMPI PUSH1 0x20 SWAP1 PUSH1 0x3B ADD SLOAD PUSH1 0x40 MLOAD SWAP1 DUP2 MSTORE RETURN JUMPDEST CALLVALUE PUSH2 0xB38 JUMPI PUSH1 0x20 CALLDATASIZE PUSH1 0x3 NOT ADD SLT PUSH2 0xB38 JUMPI PUSH1 0x4 CALLDATALOAD PUSH2 0x220 MLOAD MSTORE PUSH1 0xF PUSH1 0x20 MSTORE PUSH1 0x20 PUSH1 0x1 DUP1 PUSH1 0xA0 SHL SUB PUSH1 0x40 PUSH2 0x220 MLOAD KECCAK256 SLOAD AND PUSH1 0x40 MLOAD SWAP1 DUP2 MSTORE RETURN JUMPDEST PUSH2 0x4F91 JUMP JUMPDEST CALLVALUE PUSH2 0xB38 JUMPI PUSH1 0x20 CALLDATASIZE PUSH1 0x3 NOT ADD SLT PUSH2 0xB38 JUMPI PUSH1 0x4 CALLDATALOAD PUSH2 0x1AAE PUSH2 0x5118 JUMP JUMPDEST PUSH2 0x7D0 DUP2 GT PUSH2 0x1AF5 JUMPI PUSH1 0x40 PUSH32 0x72AA1EF4707DFA7DEFD1468E6FFC70BF9517CE19E3AFAD93FCF4BE42F2D494F5 SWAP2 PUSH1 0x5 SLOAD SWAP1 DUP1 PUSH1 0x5 SSTORE DUP3 MLOAD SWAP2 DUP3 MSTORE PUSH1 0x20 DUP3 ADD MSTORE LOG1 PUSH2 0x220 MLOAD DUP1 RETURN JUMPDEST PUSH1 0x40 MLOAD PUSH3 0x461BCD PUSH1 0xE5 SHL DUP2 MSTORE PUSH1 0x20 PUSH1 0x4 DUP3 ADD MSTORE PUSH1 0x2 PUSH1 0x24 DUP3 ADD MSTORE PUSH2 0x8C9 PUSH1 0xF3 SHL PUSH1 0x44 DUP3 ADD MSTORE PUSH1 0x64 SWAP1 REVERT JUMPDEST CALLVALUE PUSH2 0xB38 JUMPI PUSH1 0x20 CALLDATASIZE PUSH1 0x3 NOT ADD SLT PUSH2 0xB38 JUMPI PUSH1 0x1 PUSH1 0x1 PUSH1 0xA0 SHL SUB PUSH2 0x1B40 PUSH2 0x4DA1 JUMP JUMPDEST PUSH2 0x220 DUP1 MLOAD SWAP2 SWAP1 SWAP3 AND SWAP1 MSTORE PUSH1 0x7 PUSH1 0x20 DUP2 DUP2 MSTORE SWAP2 MLOAD PUSH1 0x40 SWAP1 KECCAK256 PUSH2 0x100 DUP2 SWAP1 MSTORE DUP1 SLOAD PUSH2 0x240 MSTORE PUSH1 0x1 DUP2 ADD SLOAD PUSH1 0x2 DUP3 ADD SLOAD PUSH1 0x1 PUSH1 0x1 PUSH1 0xA0 SHL SUB SWAP1 DUP2 AND PUSH2 0x2A0 MSTORE PUSH1 0x3 DUP4 ADD SLOAD DUP2 AND PUSH2 0x2C0 MSTORE PUSH1 0x4 DUP4 ADD SLOAD PUSH1 0x5 DUP5 ADD SLOAD PUSH1 0x6 DUP6 ADD SLOAD SWAP6 DUP6 ADD SLOAD PUSH1 0x8 DUP7 ADD SLOAD PUSH1 0x9 DUP8 ADD SLOAD PUSH1 0xA DUP9 ADD SLOAD PUSH1 0xB DUP10 ADD SLOAD PUSH1 0xC DUP11 ADD SLOAD PUSH1 0xD DUP12 ADD SLOAD PUSH1 0xE DUP13 ADD SLOAD PUSH1 0xF DUP14 ADD SLOAD PUSH1 0x18 DUP15 ADD SLOAD PUSH2 0x260 MSTORE PUSH1 0x19 DUP15 ADD SLOAD PUSH2 0x280 MSTORE PUSH1 0x1A DUP15 ADD SLOAD PUSH2 0x1A0 MSTORE PUSH1 0x1B DUP15 ADD SLOAD PUSH1 0x80 MSTORE PUSH1 0x1C DUP15 ADD SLOAD PUSH1 0xC0 MSTORE PUSH1 0x1D DUP15 ADD SLOAD PUSH2 0x160 MSTORE PUSH1 0x1E DUP15 ADD SLOAD PUSH1 0xE0 MSTORE PUSH1 0x1F DUP15 ADD SLOAD PUSH2 0x2E0 MSTORE SWAP15 SWAP1 SWAP14 SWAP2 SWAP13 SWAP3 SWAP12 SWAP4 SWAP11 SWAP5 SWAP10 SWAP6 SWAP9 SWAP7 SWAP8 SWAP7 SWAP2 SWAP6 SWAP2 SWAP5 PUSH1 0xFF SWAP5 SWAP3 SWAP4 SWAP3 AND SWAP2 PUSH2 0x1C2E SWAP2 ADD PUSH2 0x5072 JUMP JUMPDEST PUSH2 0x120 MSTORE PUSH2 0x1C41 PUSH1 0x21 PUSH2 0x100 MLOAD ADD PUSH2 0x5072 JUMP JUMPDEST PUSH2 0x140 MSTORE PUSH2 0x1C54 PUSH1 0x22 PUSH2 0x100 MLOAD ADD PUSH2 0x5072 JUMP JUMPDEST PUSH2 0x1E0 MSTORE PUSH2 0x1C67 PUSH1 0x23 PUSH2 0x100 MLOAD ADD PUSH2 0x5072 JUMP JUMPDEST PUSH2 0x200 MSTORE DUP3 PUSH1 0x24 PUSH2 0x100 MLOAD ADD SLOAD AND PUSH2 0x180 MSTORE PUSH1 0x40 MLOAD DUP1 PUSH2 0x1C0 MSTORE PUSH2 0x240 MLOAD SWAP1 MSTORE PUSH1 0x20 PUSH2 0x1C0 MLOAD ADD MSTORE PUSH2 0x2A0 MLOAD PUSH1 0x40 PUSH2 0x1C0 MLOAD ADD MSTORE PUSH2 0x2C0 MLOAD PUSH1 0x60 PUSH2 0x1C0 MLOAD ADD MSTORE PUSH1 0x1 DUP1 PUSH1 0xA0 SHL SUB DUP2 AND PUSH1 0x80 PUSH2 0x1C0 MLOAD ADD MSTORE DUP2 DUP2 PUSH1 0xA0 SHR AND PUSH2 0x1CC7 DUP2 PUSH2 0x4F64 JUMP JUMPDEST PUSH1 0xA0 PUSH2 0x1C0 MLOAD ADD MSTORE PUSH2 0x1CE4 PUSH1 0xC0 PUSH2 0x1C0 MLOAD ADD DUP4 DUP4 PUSH1 0xA8 SHR AND PUSH2 0x4F84 JUMP JUMPDEST PUSH1 0xB0 SHR AND PUSH2 0x1CF1 DUP2 PUSH2 0x4F64 JUMP JUMPDEST PUSH1 0xE0 PUSH2 0x1C0 MLOAD ADD MSTORE PUSH2 0x100 PUSH2 0x1C0 MLOAD ADD MSTORE PUSH2 0x120 PUSH2 0x1C0 MLOAD ADD MSTORE PUSH2 0x140 PUSH2 0x1C0 MLOAD ADD MSTORE PUSH2 0x160 PUSH2 0x1C0 MLOAD ADD MSTORE PUSH2 0x180 PUSH2 0x1C0 MLOAD ADD MSTORE PUSH2 0x1A0 PUSH2 0x1C0 MLOAD ADD MSTORE PUSH2 0x1C0 DUP1 MLOAD ADD MSTORE PUSH2 0x1E0 PUSH2 0x1C0 MLOAD ADD MSTORE PUSH2 0x200 PUSH2 0x1C0 MLOAD ADD MSTORE PUSH2 0x220 PUSH2 0x1C0 MLOAD ADD MSTORE PUSH2 0x240 PUSH2 0x1C0 MLOAD ADD MSTORE PUSH2 0x260 MLOAD PUSH2 0x260 PUSH2 0x1C0 MLOAD ADD MSTORE PUSH2 0x280 MLOAD PUSH2 0x280 PUSH2 0x1C0 MLOAD ADD MSTORE PUSH2 0x1A0 MLOAD PUSH2 0x2A0 PUSH2 0x1C0 MLOAD ADD MSTORE PUSH1 0x80 MLOAD PUSH2 0x2C0 PUSH2 0x1C0 MLOAD ADD MSTORE PUSH1 0xC0 MLOAD PUSH2 0x2E0 PUSH2 0x1C0 MLOAD ADD MSTORE PUSH2 0x160 MLOAD PUSH2 0x300 PUSH2 0x1C0 MLOAD ADD MSTORE PUSH1 0xE0 MLOAD PUSH2 0x320 PUSH2 0x1C0 MLOAD ADD MSTORE PUSH2 0x2E0 MLOAD PUSH2 0x340 PUSH2 0x1C0 MLOAD ADD MSTORE PUSH2 0x1E28 PUSH2 0x1E12 PUSH2 0x1DFC PUSH2 0x1DE6 PUSH2 0x400 DUP1 PUSH2 0x360 PUSH2 0x1C0 MLOAD ADD MSTORE PUSH2 0x1C0 MLOAD ADD PUSH2 0x120 MLOAD PUSH2 0x4EB0 JUMP JUMPDEST PUSH2 0x1C0 MLOAD PUSH2 0x380 DUP2 DUP4 SUB SWAP2 ADD MSTORE PUSH2 0x140 MLOAD PUSH2 0x4EB0 JUMP JUMPDEST PUSH2 0x1C0 MLOAD PUSH2 0x3A0 DUP2 DUP4 SUB SWAP2 ADD MSTORE PUSH2 0x1E0 MLOAD PUSH2 0x4EB0 JUMP JUMPDEST PUSH2 0x1C0 MLOAD PUSH2 0x3C0 DUP2 DUP4 SUB SWAP2 ADD MSTORE PUSH2 0x200 MLOAD PUSH2 0x4EB0 JUMP JUMPDEST PUSH2 0x180 MLOAD ISZERO ISZERO PUSH2 0x3E0 PUSH2 0x1C0 MLOAD ADD MSTORE PUSH2 0x1C0 MLOAD DUP1 SWAP2 SUB SWAP1 RETURN JUMPDEST CALLVALUE PUSH2 0xB38 JUMPI PUSH1 0x60 CALLDATASIZE PUSH1 0x3 NOT ADD SLT PUSH2 0xB38 JUMPI PUSH2 0x1E5A PUSH2 0x4DA1 JUMP JUMPDEST PUSH1 0x1 PUSH1 0x1 PUSH1 0xA0 SHL SUB PUSH1 0x24 CALLDATALOAD DUP2 DUP2 AND SWAP4 SWAP1 SWAP3 SWAP1 DUP5 DUP5 SUB PUSH2 0x4C8 JUMPI POP PUSH32 0x238062E33E7062C4AECCB2ACAC43AECC0B1A1CA891A5BC84A689F2272CB39A43 SWAP2 PUSH2 0x1EBD PUSH1 0x20 SWAP3 PUSH1 0x44 CALLDATALOAD SWAP3 DUP4 SWAP2 PUSH2 0x1EAA PUSH2 0x5118 JUMP JUMPDEST PUSH2 0x1EB5 DUP10 ISZERO ISZERO PUSH2 0x603F JUMP JUMPDEST AND SWAP6 DUP7 PUSH2 0x557F JUMP JUMPDEST PUSH1 0x40 MLOAD SWAP1 DUP2 MSTORE LOG3 PUSH2 0x220 MLOAD DUP1 RETURN JUMPDEST CALLVALUE PUSH2 0xB38 JUMPI PUSH1 0x40 CALLDATASIZE PUSH1 0x3 NOT ADD SLT PUSH2 0xB38 JUMPI PUSH2 0x1EE4 PUSH2 0x4DA1 JUMP JUMPDEST PUSH1 0x24 CALLDATALOAD SWAP1 PUSH2 0x1EF0 PUSH2 0x5118 JUMP JUMPDEST PUSH1 0x1 PUSH1 0x1 PUSH1 0xA0 SHL SUB DUP2 DUP2 AND SWAP3 DUP4 ISZERO PUSH2 0x1F4D JUMPI PUSH2 0x1F3F DUP2 PUSH32 0x4482101800A5C2E900F4156E57E05E19FFD7B366CDE579553D723FD3ABB2180E SWAP5 PUSH1 0x20 SWAP5 PUSH2 0x1F36 DUP4 ISZERO ISZERO PUSH2 0x5AD7 JUMP JUMPDEST PUSH1 0x1 SLOAD AND PUSH2 0x557F JUMP JUMPDEST PUSH1 0x40 MLOAD SWAP1 DUP2 MSTORE LOG2 PUSH2 0x220 MLOAD DUP1 RETURN JUMPDEST PUSH1 0x40 MLOAD PUSH3 0x461BCD PUSH1 0xE5 SHL DUP2 MSTORE PUSH1 0x20 PUSH1 0x4 DUP3 ADD MSTORE PUSH1 0x2 PUSH1 0x24 DUP3 ADD MSTORE PUSH2 0x5A41 PUSH1 0xF0 SHL PUSH1 0x44 DUP3 ADD MSTORE PUSH1 0x64 SWAP1 REVERT JUMPDEST CALLVALUE PUSH2 0xB38 JUMPI PUSH1 0x20 CALLDATASIZE PUSH1 0x3 NOT ADD SLT PUSH2 0xB38 JUMPI PUSH1 0x4 CALLDATALOAD PUSH1 0xB SLOAD DUP2 LT ISZERO PUSH2 0xB38 JUMPI PUSH2 0x485 PUSH1 0x20 SWAP2 PUSH2 0x4E57 JUMP JUMPDEST CALLVALUE PUSH2 0xB38 JUMPI PUSH2 0x220 MLOAD DUP1 PUSH1 0x3 NOT CALLDATASIZE ADD SLT PUSH2 0x4C8 JUMPI PUSH1 0x20 PUSH1 0xB SLOAD PUSH1 0x40 MLOAD SWAP1 DUP2 MSTORE RETURN JUMPDEST CALLVALUE PUSH2 0xB38 JUMPI PUSH1 0x20 CALLDATASIZE PUSH1 0x3 NOT ADD SLT PUSH2 0xB38 JUMPI PUSH2 0x1FDA PUSH2 0x4DA1 JUMP JUMPDEST PUSH2 0x1FE2 PUSH2 0x5118 JUMP JUMPDEST PUSH1 0x1 PUSH1 0x1 PUSH1 0xA0 SHL SUB SWAP1 DUP2 AND PUSH2 0x1FF8 DUP2 ISZERO ISZERO PUSH2 0x603F JUMP JUMPDEST PUSH1 0x4 DUP1 SLOAD PUSH1 0x1 PUSH1 0x1 PUSH1 0xA0 SHL SUB NOT DUP2 AND DUP4 OR SWAP1 SWAP2 SSTORE PUSH2 0x220 MLOAD SWAP3 AND PUSH32 0x21F871938092B6A1ED13C23A49AD1A6FA6867D23D64FA2091BC0AAA90846E7C3 DUP4 DUP1 LOG3 DUP1 RETURN JUMPDEST CALLVALUE PUSH2 0xB38 JUMPI PUSH1 0x20 DUP1 PUSH1 0x3 NOT CALLDATASIZE ADD SLT PUSH2 0xB38 JUMPI PUSH1 0x4 CALLDATALOAD SWAP1 PUSH1 0x7 DUP3 LT ISZERO PUSH2 0xB38 JUMPI PUSH2 0x2060 PUSH2 0x566D JUMP JUMPDEST PUSH2 0x2068 PUSH2 0x5287 JUMP JUMPDEST CALLER PUSH2 0x220 MLOAD MSTORE PUSH1 0x8 DUP2 MSTORE PUSH2 0x2085 PUSH1 0xFF PUSH1 0x40 PUSH2 0x220 MLOAD KECCAK256 SLOAD AND PUSH2 0x5434 JUMP JUMPDEST CALLER PUSH2 0x220 MLOAD MSTORE PUSH1 0x7 DUP2 MSTORE PUSH1 0x40 PUSH2 0x220 MLOAD KECCAK256 SWAP2 PUSH1 0x4 DUP4 ADD SWAP3 DUP4 SLOAD PUSH1 0xFF DUP2 PUSH1 0xB0 SHR AND PUSH2 0x20AE DUP2 PUSH2 0x4F64 JUMP JUMPDEST PUSH1 0x2 DUP2 EQ SWAP1 DUP2 ISZERO PUSH2 0x22DC JUMPI JUMPDEST POP ISZERO PUSH2 0x22B2 JUMPI PUSH1 0xFF SWAP1 PUSH2 0x20D0 PUSH1 0x1 DUP6 LT ISZERO PUSH2 0x5465 JUMP JUMPDEST PUSH1 0xA8 SHR AND PUSH1 0x7 DUP2 LT ISZERO PUSH2 0x1077 JUMPI DUP3 LT PUSH2 0x2288 JUMPI DUP2 PUSH1 0x18 ADD SLOAD SWAP3 DUP4 SWAP2 PUSH1 0x1 DUP1 PUSH1 0xA0 SHL SUB SWAP6 PUSH2 0x2105 DUP5 DUP9 PUSH1 0x1 SLOAD AND ADDRESS SWAP1 CALLER SWAP1 PUSH2 0x5600 JUMP JUMPDEST PUSH1 0x2 PUSH1 0xFF DUP3 SLOAD PUSH1 0xB0 SHR AND PUSH2 0x2118 DUP2 PUSH2 0x4F64 JUMP JUMPDEST EQ PUSH2 0x21FB JUMPI JUMPDEST SWAP1 PUSH1 0x18 SWAP2 PUSH2 0x220 MLOAD PUSH1 0x6 DUP4 ADD SSTORE PUSH2 0x2135 DUP7 DUP3 PUSH2 0x5496 JUMP JUMPDEST PUSH1 0x1 PUSH1 0xB0 SHL PUSH1 0xFF PUSH1 0xB0 SHL NOT DUP3 SLOAD AND OR SWAP1 SSTORE PUSH2 0x220 MLOAD SWAP2 DUP2 DUP4 PUSH1 0xB DUP2 SWAP5 ADD SSTORE DUP3 PUSH1 0x1B DUP3 ADD SSTORE ADD SSTORE CALLER SWAP1 MSTORE PUSH1 0xC DUP2 MSTORE PUSH2 0x219F PUSH1 0x40 PUSH2 0x220 MLOAD KECCAK256 PUSH1 0x40 MLOAD SWAP1 PUSH2 0x2179 DUP3 PUSH2 0x4FE8 JUMP JUMPDEST PUSH1 0x2 DUP3 MSTORE DUP5 DUP5 DUP4 ADD MSTORE TIMESTAMP PUSH1 0x40 DUP4 ADD MSTORE PUSH2 0x220 MLOAD PUSH1 0x60 DUP4 ADD MSTORE PUSH1 0xFF DUP7 AND PUSH1 0x80 DUP4 ADD MSTORE PUSH2 0x54D6 JUMP JUMPDEST PUSH2 0x21AC PUSH1 0x40 MLOAD DUP1 SWAP5 PUSH2 0x4F84 JUMP JUMPDEST DUP3 ADD MSTORE PUSH32 0xBD98106504D2095C105D0F8FD19C12FB6C359200DCCE844743A92DC040CB7B3 PUSH1 0x40 CALLER SWAP3 LOG2 PUSH2 0x1770 SWAP2 DUP3 DUP3 MUL SWAP3 DUP3 DUP5 DIV EQ DUP3 ISZERO OR ISZERO PUSH2 0xD7E JUMPI PUSH2 0xFD8 PUSH2 0x2710 PUSH2 0xFFE SWAP5 DIV DUP1 SWAP4 PUSH2 0x52A8 JUMP JUMPDEST SWAP3 POP PUSH1 0x1B DUP2 ADD SLOAD SWAP1 PUSH3 0x2A300 DUP3 ADD DUP1 SWAP3 GT PUSH2 0xD7E JUMPI DUP6 SWAP4 PUSH1 0x18 SWAP3 TIMESTAMP GT PUSH2 0x2265 JUMPI PUSH1 0x6 DUP3 ADD SLOAD PUSH1 0x5 DUP4 ADD PUSH2 0x222F DUP3 DUP3 SLOAD PUSH2 0x51FB JUMP JUMPDEST SWAP1 SSTORE PUSH1 0x40 MLOAD SWAP1 DUP2 MSTORE PUSH32 0xC0A2B7349514B2EE49057E2265DCF10BD91BE42A7F6A1144164DF1F0E303A8EB DUP6 CALLER SWAP3 LOG2 JUMPDEST SWAP1 SWAP2 POP PUSH2 0x211E JUMP JUMPDEST PUSH1 0x6 DUP3 ADD SLOAD PUSH1 0x40 MLOAD SWAP1 DUP2 MSTORE PUSH1 0x0 DUP1 MLOAD PUSH1 0x20 PUSH2 0x6110 DUP4 CODECOPY DUP2 MLOAD SWAP2 MSTORE DUP6 CALLER SWAP3 LOG2 PUSH2 0x225D JUMP JUMPDEST PUSH1 0x40 MLOAD PUSH3 0x461BCD PUSH1 0xE5 SHL DUP2 MSTORE PUSH1 0x4 DUP2 ADD DUP5 SWAP1 MSTORE PUSH1 0x2 PUSH1 0x24 DUP3 ADD MSTORE PUSH2 0x10D1 PUSH1 0xF2 SHL PUSH1 0x44 DUP3 ADD MSTORE PUSH1 0x64 SWAP1 REVERT JUMPDEST PUSH1 0x40 MLOAD PUSH3 0x461BCD PUSH1 0xE5 SHL DUP2 MSTORE PUSH1 0x4 DUP2 ADD DUP6 SWAP1 MSTORE PUSH1 0x2 PUSH1 0x24 DUP3 ADD MSTORE PUSH2 0x4141 PUSH1 0xF0 SHL PUSH1 0x44 DUP3 ADD MSTORE PUSH1 0x64 SWAP1 REVERT JUMPDEST SWAP1 POP PUSH2 0x22E7 DUP2 PUSH2 0x4F64 JUMP JUMPDEST ISZERO DUP7 PUSH2 0x20BA JUMP JUMPDEST CALLVALUE PUSH2 0xB38 JUMPI PUSH1 0x20 CALLDATASIZE PUSH1 0x3 NOT ADD SLT PUSH2 0xB38 JUMPI PUSH1 0x1 PUSH1 0x1 PUSH1 0xA0 SHL SUB PUSH2 0x230F PUSH2 0x4DA1 JUMP JUMPDEST AND PUSH2 0x220 MLOAD MSTORE PUSH1 0x14 PUSH1 0x20 MSTORE PUSH1 0x20 PUSH1 0x40 PUSH2 0x220 MLOAD KECCAK256 SLOAD PUSH1 0x40 MLOAD SWAP1 DUP2 MSTORE RETURN JUMPDEST CALLVALUE PUSH2 0xB38 JUMPI PUSH2 0x233A CALLDATASIZE PUSH2 0x4EF0 JUMP JUMPDEST PUSH2 0x2342 PUSH2 0x5118 JUMP JUMPDEST PUSH1 0x7 DUP3 LT ISZERO DUP1 PUSH2 0x1077 JUMPI PUSH1 0x1 DUP4 LT ISZERO DUP1 PUSH2 0x23A9 JUMPI JUMPDEST PUSH2 0x2360 SWAP1 PUSH2 0x5465 JUMP JUMPDEST PUSH2 0x1077 JUMPI DUP2 PUSH2 0x239F PUSH32 0xBC78CC5DE16267F0116F5EF65EC3328F2F432BCA5E0F8B61E96B880E826D84DD SWAP4 PUSH1 0x2D ADD SWAP3 DUP1 DUP5 SLOAD SWAP5 SSTORE PUSH1 0x40 MLOAD SWAP4 DUP5 SWAP4 DUP5 PUSH2 0x6070 JUMP JUMPDEST SUB SWAP1 LOG1 PUSH2 0x220 MLOAD DUP1 RETURN JUMPDEST POP POP PUSH2 0x220 MLOAD PUSH1 0x6 DUP4 GT ISZERO PUSH2 0x2357 JUMP JUMPDEST CALLVALUE PUSH2 0xB38 JUMPI PUSH2 0x220 MLOAD DUP1 PUSH1 0x3 NOT CALLDATASIZE ADD SLT PUSH2 0x4C8 JUMPI SLOAD PUSH1 0x40 MLOAD PUSH1 0x1 PUSH1 0x1 PUSH1 0xA0 SHL SUB SWAP1 SWAP2 AND DUP2 MSTORE PUSH1 0x20 SWAP1 RETURN JUMPDEST CALLVALUE PUSH2 0xB38 JUMPI PUSH1 0x20 CALLDATASIZE PUSH1 0x3 NOT ADD SLT PUSH2 0xB38 JUMPI PUSH1 0x4 CALLDATALOAD PUSH1 0x7 DUP2 LT ISZERO PUSH2 0xB38 JUMPI PUSH1 0x20 SWAP1 PUSH1 0x2D ADD SLOAD PUSH1 0x40 MLOAD SWAP1 DUP2 MSTORE RETURN JUMPDEST CALLVALUE PUSH2 0xB38 JUMPI PUSH2 0x220 MLOAD DUP1 PUSH1 0x3 NOT CALLDATASIZE ADD SLT PUSH2 0x4C8 JUMPI PUSH1 0x20 PUSH1 0x5 SLOAD PUSH1 0x40 MLOAD SWAP1 DUP2 MSTORE RETURN JUMPDEST CALLVALUE PUSH2 0xB38 JUMPI PUSH1 0x20 CALLDATASIZE PUSH1 0x3 NOT ADD SLT PUSH2 0xB38 JUMPI PUSH1 0x4 CALLDATALOAD PUSH1 0x7 DUP2 LT ISZERO PUSH2 0xB38 JUMPI PUSH1 0x20 SWAP1 PUSH1 0x34 ADD SLOAD PUSH1 0x40 MLOAD SWAP1 DUP2 MSTORE RETURN JUMPDEST CALLVALUE PUSH2 0xB38 JUMPI PUSH2 0x220 MLOAD DUP1 PUSH1 0x3 NOT CALLDATASIZE ADD SLT PUSH2 0x4C8 JUMPI PUSH2 0x2478 PUSH2 0x5118 JUMP JUMPDEST PUSH2 0x2480 PUSH2 0x5287 JUMP JUMPDEST PUSH2 0x220 MLOAD DUP1 SLOAD PUSH1 0xFF PUSH1 0xA0 SHL NOT AND PUSH1 0x1 PUSH1 0xA0 SHL OR SWAP1 SSTORE PUSH1 0x40 MLOAD CALLER DUP2 MSTORE PUSH32 0x62E78CEA01BEE320CD4E420270B5EA74000D11B0C9F74754EBDBFC544B05A258 SWAP1 PUSH1 0x20 SWAP1 LOG1 PUSH2 0x220 MLOAD DUP1 RETURN JUMPDEST CALLVALUE PUSH2 0xB38 JUMPI PUSH1 0x20 CALLDATASIZE PUSH1 0x3 NOT ADD SLT PUSH2 0xB38 JUMPI PUSH2 0x220 DUP1 MLOAD PUSH1 0x4 CALLDATALOAD SWAP1 MSTORE PUSH1 0xF PUSH1 0x20 MSTORE MLOAD PUSH1 0x40 SWAP1 KECCAK256 SLOAD PUSH1 0x1 PUSH1 0x1 PUSH1 0xA0 SHL SUB AND DUP1 ISZERO PUSH2 0x2508 JUMPI PUSH1 0x20 SWAP1 PUSH1 0x40 MLOAD SWAP1 DUP2 MSTORE RETURN JUMPDEST PUSH1 0x40 MLOAD PUSH3 0x461BCD PUSH1 0xE5 SHL DUP2 MSTORE PUSH1 0x20 PUSH1 0x4 DUP3 ADD MSTORE PUSH1 0x2 PUSH1 0x24 DUP3 ADD MSTORE PUSH2 0x2AA3 PUSH1 0xF1 SHL PUSH1 0x44 DUP3 ADD MSTORE PUSH1 0x64 SWAP1 REVERT JUMPDEST CALLVALUE PUSH2 0xB38 JUMPI PUSH1 0x20 CALLDATASIZE PUSH1 0x3 NOT ADD SLT PUSH2 0xB38 JUMPI PUSH1 0x4 CALLDATALOAD PUSH2 0x254E PUSH2 0x5118 JUMP JUMPDEST DUP1 ISZERO ISZERO DUP1 PUSH2 0x25C4 JUMPI JUMPDEST ISZERO PUSH2 0x259A JUMPI PUSH1 0x40 PUSH32 0x885769BB3A0A33E49DC7C402B45290F14135AF0D201B7B78370457632240FBB1 SWAP2 PUSH1 0xE SLOAD SWAP1 DUP1 PUSH1 0xE SSTORE DUP3 MLOAD SWAP2 DUP3 MSTORE PUSH1 0x20 DUP3 ADD MSTORE LOG1 PUSH2 0x220 MLOAD DUP1 RETURN JUMPDEST PUSH1 0x40 MLOAD PUSH3 0x461BCD PUSH1 0xE5 SHL DUP2 MSTORE PUSH1 0x20 PUSH1 0x4 DUP3 ADD MSTORE PUSH1 0x2 PUSH1 0x24 DUP3 ADD MSTORE PUSH2 0x4253 PUSH1 0xF0 SHL PUSH1 0x44 DUP3 ADD MSTORE PUSH1 0x64 SWAP1 REVERT JUMPDEST POP PUSH2 0x1F4 DUP2 GT ISZERO PUSH2 0x2557 JUMP JUMPDEST CALLVALUE PUSH2 0xB38 JUMPI PUSH2 0x220 MLOAD DUP1 PUSH1 0x3 NOT CALLDATASIZE ADD SLT PUSH2 0x4C8 JUMPI POP PUSH2 0x25ED PUSH2 0x5118 JUMP JUMPDEST DUP1 SLOAD PUSH1 0x1 PUSH1 0x1 PUSH1 0xA0 SHL SUB NOT DUP2 AND DUP3 SSTORE PUSH1 0x1 PUSH1 0x1 PUSH1 0xA0 SHL SUB AND PUSH1 0x0 DUP1 MLOAD PUSH1 0x20 PUSH2 0x60F0 DUP4 CODECOPY DUP2 MLOAD SWAP2 MSTORE DUP3 DUP1 LOG3 PUSH2 0x220 MLOAD DUP1 RETURN JUMPDEST CALLVALUE PUSH2 0xB38 JUMPI PUSH2 0x220 MLOAD DUP1 PUSH1 0x3 NOT CALLDATASIZE ADD SLT PUSH2 0x4C8 JUMPI POP PUSH1 0x1 SLOAD PUSH1 0x40 MLOAD PUSH4 0x70A08231 PUSH1 0xE0 SHL DUP2 MSTORE ADDRESS PUSH1 0x4 DUP3 ADD MSTORE SWAP1 PUSH1 0x20 SWAP1 DUP3 SWAP1 PUSH1 0x24 SWAP1 DUP3 SWAP1 PUSH1 0x1 PUSH1 0x1 PUSH1 0xA0 SHL SUB AND GAS STATICCALL SWAP1 DUP2 ISZERO PUSH2 0xB2A JUMPI PUSH2 0x220 MLOAD SWAP2 PUSH2 0x267B JUMPI JUMPDEST PUSH1 0x20 DUP3 PUSH1 0x40 MLOAD SWAP1 DUP2 MSTORE RETURN JUMPDEST SWAP1 POP PUSH1 0x20 DUP2 RETURNDATASIZE DUP3 GT PUSH2 0x26A8 JUMPI JUMPDEST DUP2 PUSH2 0x2695 PUSH1 0x20 SWAP4 DUP4 PUSH2 0x504F JUMP JUMPDEST DUP2 ADD SUB SLT PUSH2 0x63B JUMPI PUSH1 0x20 SWAP2 POP MLOAD DUP3 PUSH2 0x2670 JUMP JUMPDEST RETURNDATASIZE SWAP2 POP PUSH2 0x2688 JUMP JUMPDEST CALLVALUE PUSH2 0xB38 JUMPI PUSH2 0x220 MLOAD DUP1 PUSH1 0x3 NOT CALLDATASIZE ADD SLT PUSH2 0x4C8 JUMPI PUSH1 0x20 PUSH1 0x40 MLOAD PUSH2 0xFA0 DUP2 MSTORE RETURN JUMPDEST CALLVALUE PUSH2 0xB38 JUMPI PUSH1 0x20 SWAP1 DUP2 PUSH1 0x3 NOT CALLDATASIZE ADD SLT PUSH2 0xB38 JUMPI PUSH1 0x4 CALLDATALOAD PUSH1 0x7 DUP2 LT ISZERO PUSH2 0xB38 JUMPI PUSH2 0x26F7 PUSH2 0x566D JUMP JUMPDEST PUSH2 0x26FF PUSH2 0x5287 JUMP JUMPDEST CALLER PUSH2 0x220 MLOAD MSTORE PUSH1 0x8 DUP4 MSTORE PUSH2 0x271C PUSH1 0xFF PUSH1 0x40 PUSH2 0x220 MLOAD KECCAK256 SLOAD AND PUSH2 0x5434 JUMP JUMPDEST PUSH2 0x220 MLOAD SWAP3 PUSH1 0x1 DUP3 LT ISZERO DUP1 PUSH2 0x2918 JUMPI JUMPDEST PUSH2 0x2735 SWAP1 PUSH2 0x5465 JUMP JUMPDEST CALLER PUSH2 0x220 MLOAD MSTORE PUSH1 0x7 DUP2 MSTORE PUSH2 0x220 MLOAD PUSH1 0x40 DUP2 KECCAK256 SWAP5 PUSH2 0x1035 JUMPI POP PUSH1 0x4 DUP5 ADD SWAP3 PUSH1 0xFF DUP5 SLOAD PUSH1 0xA8 SHR AND PUSH1 0x7 DUP2 LT ISZERO PUSH2 0x1077 JUMPI DUP4 GT ISZERO PUSH2 0x28EE JUMPI DUP3 PUSH1 0x18 ADD SLOAD SWAP4 PUSH1 0x18 PUSH1 0x1 DUP1 PUSH1 0xA0 SHL SUB SWAP7 PUSH2 0x278C DUP8 DUP10 PUSH1 0x1 SLOAD AND ADDRESS SWAP1 CALLER SWAP1 PUSH2 0x5600 JUMP JUMPDEST PUSH1 0xFF DUP4 SLOAD PUSH1 0xA8 SHR AND SWAP3 PUSH2 0x279F DUP8 DUP3 PUSH2 0x5496 JUMP JUMPDEST DUP1 SLOAD PUSH1 0xFF PUSH1 0xB0 SHL NOT AND PUSH1 0x1 PUSH1 0xB0 SHL OR SWAP1 SSTORE PUSH2 0x220 MLOAD PUSH1 0xB DUP3 ADD DUP2 SWAP1 SSTORE PUSH1 0x6 DUP3 ADD DUP2 SWAP1 SSTORE PUSH1 0x1B DUP3 ADD DUP2 SWAP1 SSTORE SWAP2 ADD DUP2 SWAP1 SSTORE PUSH1 0x7 DUP3 LT ISZERO PUSH2 0x1035 JUMPI POP DUP5 SWAP3 SWAP2 SWAP1 DUP1 PUSH2 0x2858 JUMPI POP PUSH2 0x2825 SWAP1 CALLER PUSH2 0x220 MLOAD MSTORE PUSH1 0xC DUP4 MSTORE PUSH1 0x40 PUSH2 0x220 MLOAD KECCAK256 PUSH1 0x40 MLOAD SWAP2 PUSH2 0x2804 DUP4 PUSH2 0x4FE8 JUMP JUMPDEST DUP1 DUP4 MSTORE DUP6 DUP6 DUP5 ADD MSTORE TIMESTAMP PUSH1 0x40 DUP5 ADD MSTORE PUSH1 0x60 DUP4 ADD MSTORE PUSH1 0xFF DUP7 AND PUSH1 0x80 DUP4 ADD MSTORE PUSH2 0x54D6 JUMP JUMPDEST PUSH2 0xF89 PUSH1 0x40 MLOAD DUP1 SWAP5 PUSH2 0x4F84 JUMP JUMPDEST PUSH2 0x1770 SWAP2 DUP3 DUP3 MUL SWAP3 DUP3 DUP5 DIV EQ DUP3 ISZERO OR ISZERO PUSH2 0xD7E JUMPI PUSH2 0xFD8 PUSH2 0x2710 PUSH2 0xFFE SWAP5 DIV DUP1 SWAP4 PUSH2 0x52A8 JUMP JUMPDEST SWAP4 SWAP2 SWAP1 POP PUSH2 0x28BD SWAP3 POP CALLER PUSH2 0x220 MLOAD MSTORE PUSH1 0xC DUP2 MSTORE PUSH2 0x28A8 PUSH1 0x40 PUSH2 0x220 MLOAD KECCAK256 PUSH1 0x40 MLOAD SWAP1 PUSH2 0x2882 DUP3 PUSH2 0x4FE8 JUMP JUMPDEST PUSH1 0x1 DUP3 MSTORE DUP8 DUP5 DUP4 ADD MSTORE TIMESTAMP PUSH1 0x40 DUP4 ADD MSTORE PUSH2 0x220 MLOAD PUSH1 0x60 DUP4 ADD MSTORE PUSH1 0xFF DUP6 AND PUSH1 0x80 DUP4 ADD MSTORE PUSH2 0x54D6 JUMP JUMPDEST PUSH2 0x28B5 PUSH1 0x40 MLOAD DUP1 SWAP6 PUSH2 0x4F84 JUMP JUMPDEST DUP4 ADD SWAP1 PUSH2 0x4F84 JUMP JUMPDEST DUP2 PUSH1 0x40 DUP3 ADD MSTORE PUSH32 0x6DC34D0522E29B7D7BEDA15504A00195317702B99A528054D4BE53E1EA331B6D PUSH1 0x60 CALLER SWAP3 LOG2 PUSH2 0x2832 JUMP JUMPDEST PUSH1 0x40 MLOAD PUSH3 0x461BCD PUSH1 0xE5 SHL DUP2 MSTORE PUSH1 0x4 DUP2 ADD DUP4 SWAP1 MSTORE PUSH1 0x2 PUSH1 0x24 DUP3 ADD MSTORE PUSH2 0xAA9 PUSH1 0xF3 SHL PUSH1 0x44 DUP3 ADD MSTORE PUSH1 0x64 SWAP1 REVERT JUMPDEST POP PUSH1 0x6 DUP3 GT ISZERO PUSH2 0x272C JUMP JUMPDEST CALLVALUE PUSH2 0xB38 JUMPI PUSH1 0x20 CALLDATASIZE PUSH1 0x3 NOT ADD SLT PUSH2 0xB38 JUMPI PUSH2 0x293C PUSH2 0x4DA1 JUMP JUMPDEST PUSH2 0x2944 PUSH2 0x5118 JUMP JUMPDEST PUSH1 0x1 PUSH1 0x1 PUSH1 0xA0 SHL SUB SWAP1 DUP2 AND PUSH2 0x295A DUP2 ISZERO ISZERO PUSH2 0x603F JUMP JUMPDEST PUSH1 0x16 DUP1 SLOAD PUSH1 0x1 PUSH1 0x1 PUSH1 0xA0 SHL SUB NOT DUP2 AND DUP4 OR SWAP1 SWAP2 SSTORE PUSH2 0x220 MLOAD SWAP3 AND PUSH32 0xCB9BCD5E87EC5DE7C4B31036687BD221C8E20F2ECF6FCE472AC73A211F2A3CDC DUP4 DUP1 LOG3 DUP1 RETURN JUMPDEST CALLVALUE PUSH2 0xB38 JUMPI PUSH1 0x20 CALLDATASIZE PUSH1 0x3 NOT ADD SLT PUSH2 0xB38 JUMPI PUSH2 0x1A0 PUSH1 0x1 PUSH1 0x1 PUSH1 0xA0 SHL SUB DUP1 PUSH2 0x29C0 PUSH2 0x4DA1 JUMP JUMPDEST AND PUSH2 0x220 MLOAD MSTORE PUSH1 0x7 PUSH1 0x20 MSTORE PUSH1 0x40 PUSH2 0x220 MLOAD KECCAK256 SWAP1 DUP2 SLOAD SWAP2 DUP2 PUSH1 0x1 DUP3 ADD SLOAD AND SWAP2 DUP1 PUSH1 0x2 DUP4 ADD SLOAD AND SWAP1 DUP1 PUSH1 0x3 DUP5 ADD SLOAD AND SWAP1 PUSH1 0x4 DUP5 ADD SLOAD PUSH2 0x2A5E PUSH1 0xFF DUP3 PUSH1 0xA0 SHR AND SWAP2 PUSH1 0xFF DUP2 PUSH1 0xB0 SHR AND SWAP3 PUSH1 0x5 DUP9 ADD SLOAD SWAP5 PUSH1 0x6 DUP10 ADD SLOAD SWAP7 PUSH1 0xB DUP11 ADD SLOAD SWAP9 PUSH1 0x1C PUSH1 0x1A DUP13 ADD SLOAD SWAP12 ADD SLOAD SWAP12 PUSH1 0x20 PUSH1 0x40 MLOAD SWAP15 DUP16 SWAP1 DUP2 MSTORE ADD MSTORE PUSH1 0x40 DUP14 ADD MSTORE PUSH1 0x60 DUP13 ADD MSTORE DUP3 AND PUSH1 0x80 DUP12 ADD MSTORE PUSH2 0x2A49 DUP2 PUSH2 0x4F64 JUMP JUMPDEST PUSH1 0xA0 DUP11 ADD MSTORE PUSH1 0xFF PUSH1 0xC0 DUP11 ADD SWAP2 PUSH1 0xA8 SHR AND PUSH2 0x4F84 JUMP JUMPDEST PUSH2 0x2A67 DUP2 PUSH2 0x4F64 JUMP JUMPDEST PUSH1 0xE0 DUP8 ADD MSTORE PUSH2 0x100 DUP7 ADD MSTORE PUSH2 0x120 DUP6 ADD MSTORE PUSH2 0x140 DUP5 ADD MSTORE PUSH2 0x160 DUP4 ADD MSTORE PUSH2 0x180 DUP3 ADD MSTORE RETURN JUMPDEST CALLVALUE PUSH2 0xB38 JUMPI PUSH2 0x220 MLOAD DUP1 PUSH1 0x3 NOT CALLDATASIZE ADD SLT PUSH2 0x4C8 JUMPI PUSH1 0x20 PUSH1 0x6 SLOAD PUSH1 0x40 MLOAD SWAP1 DUP2 MSTORE RETURN JUMPDEST CALLVALUE PUSH2 0xB38 JUMPI PUSH1 0xA0 CALLDATASIZE PUSH1 0x3 NOT ADD SLT PUSH2 0xB38 JUMPI PUSH2 0x2AC6 PUSH2 0x4DA1 JUMP JUMPDEST PUSH1 0x64 CALLDATALOAD ISZERO ISZERO PUSH1 0x64 CALLDATALOAD SUB PUSH2 0xB38 JUMPI PUSH1 0x7 PUSH1 0x84 CALLDATALOAD LT ISZERO PUSH2 0xB38 JUMPI PUSH2 0x2AE6 PUSH2 0x5118 JUMP JUMPDEST PUSH2 0x2AEE PUSH2 0x5287 JUMP JUMPDEST PUSH2 0x2B02 PUSH1 0x1 PUSH1 0x1 PUSH1 0xA0 SHL SUB DUP3 AND ISZERO ISZERO PUSH2 0x603F JUMP JUMPDEST PUSH2 0x220 DUP1 MLOAD PUSH1 0x1 PUSH1 0x1 PUSH1 0xA0 SHL SUB DUP4 AND SWAP1 MSTORE PUSH1 0x8 PUSH1 0x20 MSTORE MLOAD PUSH1 0x40 SWAP1 KECCAK256 SLOAD PUSH2 0x2B2B SWAP1 PUSH1 0xFF AND ISZERO PUSH2 0x5144 JUMP JUMPDEST PUSH1 0x1 PUSH1 0x84 CALLDATALOAD LT ISZERO DUP1 PUSH2 0x2EB5 JUMPI JUMPDEST PUSH2 0x2B41 SWAP1 PUSH2 0x5465 JUMP JUMPDEST PUSH1 0xB SLOAD ISZERO PUSH2 0x2E8B JUMPI PUSH2 0x220 DUP1 MLOAD PUSH1 0x24 CALLDATALOAD SWAP1 MSTORE PUSH1 0xF PUSH1 0x20 MSTORE MLOAD PUSH1 0x40 DUP2 KECCAK256 SLOAD PUSH1 0x1 PUSH1 0x1 PUSH1 0xA0 SHL SUB AND SWAP2 SWAP1 DUP3 SWAP1 DUP2 ISZERO ISZERO SWAP1 DUP2 PUSH2 0x2E6E JUMPI JUMPDEST POP PUSH2 0x2B80 SWAP2 POP PUSH2 0x5175 JUMP JUMPDEST PUSH2 0x220 MLOAD PUSH1 0x44 CALLDATALOAD SWAP1 DUP2 PUSH2 0x2E1C JUMPI POP POP DUP2 JUMPDEST PUSH1 0x64 CALLDATALOAD ISZERO PUSH2 0x2E0B JUMPI PUSH2 0x2BA2 SWAP1 PUSH2 0x5408 JUMP JUMPDEST SWAP1 PUSH1 0x1 JUMPDEST PUSH2 0x2BAE PUSH2 0x52B5 JUMP JUMPDEST PUSH2 0x220 DUP1 MLOAD DUP3 SWAP1 MSTORE PUSH1 0x10 PUSH1 0x20 SWAP1 DUP2 MSTORE DUP2 MLOAD PUSH1 0x40 DUP1 DUP3 KECCAK256 DUP1 SLOAD PUSH1 0xFF NOT AND PUSH1 0x1 SWAP1 DUP2 OR SWAP1 SWAP2 SSTORE PUSH1 0xF DUP5 MSTORE DUP2 DUP4 KECCAK256 DUP1 SLOAD PUSH1 0x1 PUSH1 0x1 PUSH1 0xA0 SHL SUB NOT SWAP1 DUP2 AND PUSH1 0x1 PUSH1 0x1 PUSH1 0xA0 SHL SUB DUP12 DUP2 AND SWAP2 DUP3 OR SWAP1 SWAP4 SSTORE SWAP1 SWAP5 MSTORE PUSH1 0x7 SWAP1 SWAP5 MSTORE SWAP4 MLOAD KECCAK256 DUP5 DUP2 SSTORE SWAP3 DUP4 ADD DUP1 SLOAD DUP3 AND DUP10 OR SWAP1 SSTORE PUSH1 0x2 DUP4 ADD DUP1 SLOAD SWAP1 SWAP2 AND SWAP2 DUP8 AND SWAP2 SWAP1 SWAP2 OR SWAP1 SSTORE SWAP1 SWAP4 SWAP1 PUSH1 0x4 DUP2 ADD PUSH2 0x2C34 DUP5 DUP3 PUSH2 0x51D7 JUMP JUMPDEST PUSH2 0x2C40 PUSH1 0x84 CALLDATALOAD DUP3 PUSH2 0x5496 JUMP JUMPDEST DUP1 SLOAD PUSH1 0xFF PUSH1 0xB0 SHL NOT AND PUSH1 0x1 PUSH1 0xB0 SHL OR SWAP1 SSTORE TIMESTAMP PUSH1 0x1C DUP3 ADD SSTORE PUSH2 0x220 DUP1 MLOAD PUSH1 0x1 PUSH1 0x1 PUSH1 0xA0 SHL SUB DUP5 AND SWAP1 MSTORE PUSH1 0x7 PUSH1 0x20 MSTORE MLOAD PUSH1 0x40 DUP2 KECCAK256 PUSH1 0x1F ADD SLOAD SWAP1 PUSH1 0x1 DUP3 ADD DUP3 GT PUSH2 0x16F8 JUMPI POP PUSH32 0x92C194E247C6D4E26AC54D4F751A001BB786B7FD20039047255E4B5327AEC9F4 SWAP5 SWAP3 PUSH1 0x40 SWAP5 SWAP3 PUSH1 0x1F PUSH1 0x1 DUP11 SWAP5 ADD SWAP2 ADD SSTORE PUSH2 0x2CBC DUP4 PUSH2 0x4F64 JUMP JUMPDEST PUSH1 0x1 DUP4 SUB PUSH2 0x2DD1 JUMPI PUSH2 0x220 DUP1 MLOAD PUSH1 0x1 PUSH1 0x1 PUSH1 0xA0 SHL SUB DUP4 DUP2 AND SWAP1 SWAP2 MSTORE PUSH1 0x7 PUSH1 0x20 MSTORE SWAP1 MLOAD DUP7 SWAP1 KECCAK256 PUSH1 0x3 ADD DUP1 SLOAD PUSH1 0x1 PUSH1 0x1 PUSH1 0xA0 SHL SUB NOT AND SWAP2 DUP7 AND SWAP2 SWAP1 SWAP2 OR SWAP1 SSTORE JUMPDEST DUP2 PUSH2 0x220 MLOAD MSTORE PUSH1 0xA PUSH1 0x20 MSTORE PUSH2 0x2D14 DUP5 DUP7 PUSH2 0x220 MLOAD KECCAK256 PUSH2 0x525B JUMP JUMPDEST DUP2 PUSH2 0x220 MLOAD MSTORE PUSH1 0x7 PUSH1 0x20 MSTORE PUSH1 0x1A DUP6 PUSH2 0x220 MLOAD KECCAK256 ADD PUSH2 0x2D32 DUP2 SLOAD PUSH2 0x5278 JUMP JUMPDEST SWAP1 SSTORE PUSH1 0x1 DUP1 PUSH1 0xA0 SHL SUB DUP5 AND PUSH2 0x220 MLOAD MSTORE PUSH1 0x8 PUSH1 0x20 MSTORE DUP5 PUSH2 0x220 MLOAD DUP2 DUP2 KECCAK256 PUSH1 0x1 PUSH1 0xFF NOT DUP3 SLOAD AND OR SWAP1 SSTORE PUSH1 0x9 PUSH1 0x20 MSTORE KECCAK256 PUSH1 0x1 PUSH1 0xFF NOT DUP3 SLOAD AND OR SWAP1 SSTORE PUSH2 0x2D74 DUP5 PUSH2 0x521E JUMP JUMPDEST DUP5 MLOAD SWAP3 DUP8 DUP5 MSTORE PUSH2 0x2D83 DUP2 PUSH2 0x4F64 JUMP JUMPDEST PUSH1 0x20 DUP5 ADD MSTORE PUSH1 0x1 PUSH1 0x1 PUSH1 0xA0 SHL SUB SWAP1 DUP2 AND SWAP3 SWAP1 DUP5 AND SWAP1 PUSH1 0x0 DUP1 MLOAD PUSH1 0x20 PUSH2 0x60D0 DUP4 CODECOPY DUP2 MLOAD SWAP2 MSTORE SWAP1 DUP7 SWAP1 LOG4 DUP2 MLOAD SWAP4 DUP5 MSTORE PUSH2 0x2DBF PUSH1 0x20 DUP6 ADD PUSH1 0x84 CALLDATALOAD PUSH2 0x4F84 JUMP JUMPDEST PUSH1 0x1 PUSH1 0x1 PUSH1 0xA0 SHL SUB AND SWAP3 LOG3 PUSH2 0x220 MLOAD DUP1 RETURN JUMPDEST PUSH2 0x220 DUP1 MLOAD PUSH1 0x1 PUSH1 0x1 PUSH1 0xA0 SHL SUB DUP4 DUP2 AND SWAP1 SWAP2 MSTORE PUSH1 0x7 PUSH1 0x20 MSTORE SWAP1 MLOAD DUP7 SWAP1 KECCAK256 PUSH1 0x4 ADD DUP1 SLOAD PUSH1 0x1 PUSH1 0x1 PUSH1 0xA0 SHL SUB NOT AND SWAP2 DUP7 AND SWAP2 SWAP1 SWAP2 OR SWAP1 SSTORE PUSH2 0x2CFA JUMP JUMPDEST PUSH2 0x2E14 SWAP1 PUSH2 0x53D7 JUMP JUMPDEST SWAP1 PUSH1 0x2 PUSH2 0x2BA6 JUMP JUMPDEST MSTORE PUSH1 0xF PUSH1 0x20 MSTORE PUSH2 0x220 MLOAD PUSH1 0x40 DUP2 KECCAK256 SLOAD PUSH1 0x1 PUSH1 0x1 PUSH1 0xA0 SHL SUB AND SWAP1 DUP2 SWAP1 DUP2 ISZERO ISZERO SWAP1 DUP2 PUSH2 0x2E51 JUMPI JUMPDEST POP PUSH2 0x2E4C SWAP2 POP PUSH2 0x51A6 JUMP JUMPDEST PUSH2 0x2B91 JUMP JUMPDEST SWAP1 POP MSTORE PUSH1 0x8 PUSH1 0x20 MSTORE PUSH2 0x2E4C PUSH1 0xFF PUSH1 0x40 PUSH2 0x220 MLOAD KECCAK256 SLOAD AND DUP3 SWAP2 PUSH2 0x2E41 JUMP JUMPDEST SWAP1 POP MSTORE PUSH1 0x8 PUSH1 0x20 MSTORE PUSH2 0x2B80 PUSH1 0xFF PUSH1 0x40 PUSH2 0x220 MLOAD KECCAK256 SLOAD AND DUP4 SWAP2 PUSH2 0x2B75 JUMP JUMPDEST PUSH1 0x40 MLOAD PUSH3 0x461BCD PUSH1 0xE5 SHL DUP2 MSTORE PUSH1 0x20 PUSH1 0x4 DUP3 ADD MSTORE PUSH1 0x2 PUSH1 0x24 DUP3 ADD MSTORE PUSH2 0x5255 PUSH1 0xF0 SHL PUSH1 0x44 DUP3 ADD MSTORE PUSH1 0x64 SWAP1 REVERT JUMPDEST POP PUSH1 0x6 PUSH1 0x84 CALLDATALOAD GT ISZERO PUSH2 0x2B38 JUMP JUMPDEST CALLVALUE PUSH2 0xB38 JUMPI PUSH2 0x220 MLOAD DUP1 PUSH1 0x3 NOT CALLDATASIZE ADD SLT PUSH2 0x4C8 JUMPI PUSH1 0xFF PUSH1 0x20 SWAP2 SLOAD PUSH1 0xA0 SHR AND PUSH1 0x40 MLOAD SWAP1 ISZERO ISZERO DUP2 MSTORE RETURN JUMPDEST CALLVALUE PUSH2 0xB38 JUMPI PUSH1 0x20 CALLDATASIZE PUSH1 0x3 NOT ADD SLT PUSH2 0xB38 JUMPI PUSH1 0x4 CALLDATALOAD PUSH1 0x7 DUP2 LT ISZERO PUSH2 0xB38 JUMPI PUSH1 0x20 SWAP1 PUSH1 0x1F ADD SLOAD PUSH1 0x40 MLOAD SWAP1 DUP2 MSTORE RETURN JUMPDEST CALLVALUE PUSH2 0xB38 JUMPI PUSH1 0xA0 PUSH1 0x20 DUP2 MSTORE PUSH1 0x20 PUSH1 0x3 NOT CALLDATASIZE ADD SLT PUSH2 0xB38 JUMPI PUSH1 0x4 CALLDATALOAD SWAP1 CALLER PUSH2 0x220 MLOAD MSTORE PUSH1 0xD DUP2 MLOAD MSTORE PUSH2 0x220 MLOAD SWAP1 PUSH1 0xFF SWAP2 DUP3 PUSH1 0x40 DUP3 KECCAK256 SLOAD AND SWAP1 DUP2 ISZERO PUSH2 0x327B JUMPI JUMPDEST POP ISZERO PUSH2 0x3251 JUMPI PUSH2 0x2F61 PUSH2 0x5287 JUMP JUMPDEST DUP3 ISZERO PUSH2 0x3227 JUMPI PUSH1 0x0 NOT DUP4 ADD DUP4 DUP2 GT PUSH2 0xD7E JUMPI PUSH1 0xE SWAP1 PUSH2 0x2F82 DUP3 SLOAD DUP1 SWAP3 PUSH2 0x556C JUMP JUMPDEST SWAP4 PUSH1 0xB SLOAD SWAP2 DUP3 DUP7 LT ISZERO PUSH2 0x31FD JUMPI PUSH2 0x2F99 SWAP1 DUP7 PUSH2 0x51FB JUMP JUMPDEST SWAP2 DUP1 DUP4 GT PUSH2 0x31F5 JUMPI JUMPDEST POP SWAP2 SWAP1 PUSH2 0x220 MLOAD SWAP5 SWAP3 JUMPDEST DUP2 DUP5 LT PUSH2 0x2FEA JUMPI PUSH32 0x9ACB94CD9B9C8B1248D0DC0AA654D4303685379499519790474807198A329043 PUSH1 0x40 DUP9 DUP9 DUP9 DUP4 MLOAD SWAP3 DUP4 MSTORE MLOAD DUP3 ADD MSTORE LOG1 PUSH2 0x220 MLOAD DUP1 RETURN JUMPDEST SWAP1 SWAP2 SWAP3 SWAP5 PUSH2 0x2FF7 DUP7 PUSH2 0x4E57 JUMP JUMPDEST SWAP1 SLOAD SWAP1 PUSH1 0x3 SWAP2 PUSH1 0x1 DUP1 PUSH1 0xA0 SHL SUB SWAP2 DUP4 SHL SHR AND SWAP1 DUP2 PUSH2 0x220 MLOAD MSTORE PUSH1 0x7 DUP8 MLOAD MSTORE PUSH1 0x40 PUSH2 0x220 MLOAD KECCAK256 DUP5 PUSH1 0x4 DUP3 ADD SLOAD PUSH1 0xB0 SHR AND PUSH2 0x302F DUP2 PUSH2 0x4F64 JUMP JUMPDEST PUSH1 0x1 DUP2 EQ ISZERO SWAP1 DUP2 PUSH2 0x31E0 JUMPI JUMPDEST POP PUSH2 0x31D3 JUMPI PUSH2 0x220 MLOAD SWAP2 DUP3 DUP4 SWAP2 DUP5 SWAP1 PUSH1 0x10 DUP6 ADD SWAP1 PUSH1 0x14 DUP7 ADD SWAP1 JUMPDEST PUSH1 0x4 DUP5 LT PUSH2 0x30F1 JUMPI POP POP POP POP DUP4 ISZERO PUSH2 0x30E2 JUMPI SWAP3 PUSH1 0x1E DUP4 PUSH32 0x64E8DD16146649F6743856BB8723DCD7EDD0BB0E9B5352620AE83A477AEA3283 SWAP4 PUSH2 0x30DA SWAP9 SWAP7 PUSH2 0x30A4 DUP14 PUSH2 0x30D4 SWAP11 SWAP9 ADD SWAP2 DUP3 SLOAD PUSH2 0x52A8 JUMP JUMPDEST SWAP1 SSTORE PUSH2 0x30B5 PUSH1 0xF DUP4 ADD SWAP2 DUP3 SLOAD PUSH2 0x52A8 JUMP JUMPDEST SWAP1 SSTORE ADD PUSH2 0x30C3 DUP3 DUP3 SLOAD PUSH2 0x51FB JUMP JUMPDEST SWAP1 SSTORE PUSH1 0x40 MLOAD SWAP1 DUP2 MSTORE DUP10 MLOAD SWAP1 LOG2 PUSH2 0x5278 JUMP JUMPDEST SWAP6 PUSH2 0x5278 JUMP JUMPDEST SWAP3 SWAP2 SWAP1 PUSH2 0x2FAC JUMP JUMPDEST POP POP POP POP POP SWAP5 PUSH2 0x30DA SWAP1 PUSH2 0x5278 JUMP JUMPDEST SWAP1 SWAP2 SWAP3 SWAP5 SWAP4 SWAP7 PUSH2 0x3101 DUP7 DUP6 PUSH2 0x4EA0 JUMP JUMPDEST SWAP1 SLOAD SWAP1 DUP4 SHL SHR PUSH2 0x3111 DUP8 DUP6 PUSH2 0x4EA0 JUMP JUMPDEST SWAP1 SLOAD SWAP1 DUP5 SHL SHR GT ISZERO PUSH2 0x31BD JUMPI PUSH2 0x3127 DUP7 DUP6 PUSH2 0x4EA0 JUMP JUMPDEST SWAP1 SLOAD SWAP1 DUP4 SHL SHR SWAP1 JUMPDEST DUP2 ISZERO PUSH2 0x31B0 JUMPI DUP2 PUSH2 0x31A2 PUSH2 0x31A8 SWAP4 PUSH2 0x315C PUSH2 0x30D4 SWAP5 PUSH2 0x2710 PUSH2 0x3155 DUP14 PUSH1 0x42 ADD SLOAD DUP6 PUSH2 0x556C JUMP JUMPDEST DIV SWAP1 PUSH2 0x51FB JUMP JUMPDEST SWAP12 PUSH2 0x3190 PUSH2 0x316A DUP13 DUP12 PUSH2 0x4EA0 JUMP JUMPDEST PUSH2 0x3179 DUP6 DUP4 SLOAD DUP4 DUP14 SHL SHR PUSH2 0x52A8 JUMP JUMPDEST DUP3 SLOAD PUSH1 0x0 NOT PUSH1 0x3 SWAP4 SWAP1 SWAP4 SHL SWAP3 DUP4 SHL NOT AND SWAP2 SHL OR SWAP1 SSTORE JUMP JUMPDEST PUSH2 0x319D PUSH2 0x316A DUP13 DUP11 PUSH2 0x4EA0 JUMP JUMPDEST PUSH2 0x51FB JUMP JUMPDEST SWAP7 PUSH2 0x51FB JUMP JUMPDEST SWAP3 SWAP2 SWAP1 PUSH2 0x3055 JUMP JUMPDEST SWAP8 SWAP5 SWAP6 PUSH2 0x31A8 SWAP2 POP PUSH2 0x5278 JUMP JUMPDEST PUSH2 0x31C7 DUP7 DUP5 PUSH2 0x4EA0 JUMP JUMPDEST SWAP1 SLOAD SWAP1 DUP4 SHL SHR SWAP1 PUSH2 0x312F JUMP JUMPDEST POP POP POP SWAP5 PUSH2 0x30DA SWAP1 PUSH2 0x5278 JUMP JUMPDEST PUSH1 0x2 SWAP2 POP PUSH2 0x31ED DUP2 PUSH2 0x4F64 JUMP JUMPDEST EQ ISZERO DUP12 PUSH2 0x303B JUMP JUMPDEST SWAP2 POP DUP7 PUSH2 0x2FA2 JUMP JUMPDEST PUSH1 0x40 MLOAD PUSH3 0x461BCD PUSH1 0xE5 SHL DUP2 MSTORE DUP6 MLOAD PUSH1 0x4 DUP3 ADD MSTORE PUSH1 0x2 PUSH1 0x24 DUP3 ADD MSTORE PUSH2 0x4245 PUSH1 0xF0 SHL PUSH1 0x44 DUP3 ADD MSTORE PUSH1 0x64 SWAP1 REVERT JUMPDEST PUSH1 0x40 MLOAD PUSH3 0x461BCD PUSH1 0xE5 SHL DUP2 MSTORE SWAP1 MLOAD PUSH1 0x4 DUP3 ADD MSTORE PUSH1 0x2 PUSH1 0x24 DUP3 ADD MSTORE PUSH2 0x423 PUSH1 0xF4 SHL PUSH1 0x44 DUP3 ADD MSTORE PUSH1 0x64 SWAP1 REVERT JUMPDEST PUSH1 0x40 MLOAD PUSH3 0x461BCD PUSH1 0xE5 SHL DUP2 MSTORE SWAP1 MLOAD PUSH1 0x4 DUP3 ADD MSTORE PUSH1 0x2 PUSH1 0x24 DUP3 ADD MSTORE PUSH2 0x4155 PUSH1 0xF0 SHL PUSH1 0x44 DUP3 ADD MSTORE PUSH1 0x64 SWAP1 REVERT JUMPDEST SLOAD PUSH1 0x1 PUSH1 0x1 PUSH1 0xA0 SHL SUB AND CALLER EQ SWAP1 POP DUP5 PUSH2 0x2F53 JUMP JUMPDEST CALLVALUE PUSH2 0xB38 JUMPI PUSH2 0x220 MLOAD DUP1 PUSH1 0x3 NOT CALLDATASIZE ADD SLT PUSH2 0x4C8 JUMPI PUSH1 0x20 PUSH1 0x40 MLOAD PUSH2 0x1770 DUP2 MSTORE RETURN JUMPDEST CALLVALUE PUSH2 0xB38 JUMPI PUSH1 0x80 CALLDATASIZE PUSH1 0x3 NOT ADD SLT PUSH2 0xB38 JUMPI PUSH1 0x4 CALLDATALOAD PUSH1 0x1 PUSH1 0x1 PUSH1 0x40 SHL SUB DUP2 GT PUSH2 0xB38 JUMPI PUSH2 0x32DF SWAP1 CALLDATASIZE SWAP1 PUSH1 0x4 ADD PUSH2 0x4F37 JUMP JUMPDEST SWAP1 PUSH1 0x24 CALLDATALOAD PUSH1 0x1 PUSH1 0x1 PUSH1 0x40 SHL SUB DUP2 GT PUSH2 0xB38 JUMPI PUSH2 0x32FF SWAP1 CALLDATASIZE SWAP1 PUSH1 0x4 ADD PUSH2 0x4F37 JUMP JUMPDEST SWAP1 SWAP3 SWAP1 PUSH1 0x44 CALLDATALOAD PUSH1 0x1 PUSH1 0x1 PUSH1 0x40 SHL SUB DUP2 GT PUSH2 0xB38 JUMPI PUSH2 0x3321 SWAP1 CALLDATASIZE SWAP1 PUSH1 0x4 ADD PUSH2 0x4F37 JUMP JUMPDEST SWAP1 SWAP2 PUSH1 0x64 CALLDATALOAD PUSH1 0x1 PUSH1 0x1 PUSH1 0x40 SHL SUB DUP2 GT PUSH2 0xB38 JUMPI PUSH2 0x3342 SWAP1 CALLDATASIZE SWAP1 PUSH1 0x4 ADD PUSH2 0x4F37 JUMP JUMPDEST SWAP7 SWAP1 SWAP5 CALLER PUSH2 0x220 MLOAD MSTORE PUSH1 0x8 PUSH1 0x20 MSTORE PUSH2 0x3363 PUSH1 0xFF PUSH1 0x40 PUSH2 0x220 MLOAD KECCAK256 SLOAD AND PUSH2 0x5434 JUMP JUMPDEST DUP1 ISZERO PUSH2 0x3890 JUMPI PUSH2 0x220 DUP1 MLOAD CALLER SWAP1 MSTORE PUSH1 0x7 PUSH1 0x20 MSTORE MLOAD PUSH1 0x40 DUP2 KECCAK256 SWAP8 SWAP1 PUSH1 0x1 PUSH1 0x1 PUSH1 0x40 SHL SUB DUP4 GT PUSH2 0x3878 JUMPI POP DUP2 SWAP1 PUSH2 0x339B PUSH1 0x20 DUP11 ADD SLOAD PUSH2 0x4FAE JUMP JUMPDEST PUSH1 0x1F DUP2 GT PUSH2 0x381F JUMPI JUMPDEST POP PUSH2 0x220 MLOAD SWAP1 PUSH1 0x1F DUP4 GT PUSH1 0x1 EQ PUSH2 0x37AD JUMPI PUSH2 0x220 MLOAD SWAP3 PUSH2 0x37A2 JUMPI JUMPDEST POP POP DUP2 PUSH1 0x1 SHL SWAP2 PUSH1 0x0 NOT SWAP1 PUSH1 0x3 SHL SHR NOT AND OR PUSH1 0x20 DUP8 ADD SSTORE JUMPDEST PUSH1 0x1 PUSH1 0x1 PUSH1 0x40 SHL SUB DUP3 GT PUSH2 0x35DF JUMPI DUP2 SWAP1 PUSH2 0x33F4 PUSH1 0x21 DUP9 ADD SLOAD PUSH2 0x4FAE JUMP JUMPDEST PUSH1 0x1F DUP2 GT PUSH2 0x3746 JUMPI JUMPDEST POP PUSH2 0x220 MLOAD SWAP1 PUSH1 0x1F DUP4 GT PUSH1 0x1 EQ PUSH2 0x36D4 JUMPI PUSH2 0x220 MLOAD SWAP3 PUSH2 0x36C9 JUMPI JUMPDEST POP POP DUP2 PUSH1 0x1 SHL SWAP2 PUSH1 0x0 NOT SWAP1 PUSH1 0x3 SHL SHR NOT AND OR PUSH1 0x21 DUP6 ADD SSTORE JUMPDEST PUSH1 0x22 DUP5 ADD SWAP2 PUSH1 0x1 PUSH1 0x1 PUSH1 0x40 SHL SUB DUP3 GT PUSH2 0x35DF JUMPI DUP2 SWAP1 PUSH2 0x344F DUP5 SLOAD PUSH2 0x4FAE JUMP JUMPDEST PUSH1 0x1F DUP2 GT PUSH2 0x3670 JUMPI JUMPDEST POP PUSH2 0x220 MLOAD SWAP1 PUSH1 0x1F DUP4 GT PUSH1 0x1 EQ PUSH2 0x3604 JUMPI PUSH2 0x220 MLOAD SWAP3 PUSH2 0x35F9 JUMPI JUMPDEST POP POP DUP2 PUSH1 0x1 SHL SWAP2 PUSH1 0x0 NOT SWAP1 PUSH1 0x3 SHL SHR NOT AND OR SWAP1 SSTORE JUMPDEST PUSH1 0x23 DUP3 ADD SWAP1 PUSH1 0x1 PUSH1 0x1 PUSH1 0x40 SHL SUB DUP5 GT PUSH2 0x35DF JUMPI PUSH2 0x34A5 DUP3 SLOAD PUSH2 0x4FAE JUMP JUMPDEST PUSH1 0x1F DUP2 GT PUSH2 0x3592 JUMPI JUMPDEST POP PUSH2 0x220 MLOAD SWAP1 PUSH1 0x1F DUP6 GT PUSH1 0x1 EQ PUSH2 0x3527 JUMPI SWAP4 DUP1 SWAP2 PUSH1 0x24 SWAP6 PUSH2 0x220 MLOAD SWAP3 PUSH2 0x351C JUMPI JUMPDEST POP POP DUP2 PUSH1 0x1 SHL SWAP2 PUSH1 0x0 NOT SWAP1 PUSH1 0x3 SHL SHR NOT AND OR SWAP1 SSTORE JUMPDEST ADD DUP1 SLOAD PUSH1 0xFF NOT AND PUSH1 0x1 OR SWAP1 SSTORE PUSH2 0x220 MLOAD CALLER PUSH32 0xBE4EC58A792F909E102EE3D745D0C3B34A4D437A54D903C4DB098D31C556422F DUP3 DUP1 LOG2 DUP1 RETURN JUMPDEST ADD CALLDATALOAD SWAP1 POP DUP6 DUP1 PUSH2 0x34CF JUMP JUMPDEST DUP3 DUP3 MSTORE PUSH2 0x220 MLOAD PUSH1 0x20 DUP2 KECCAK256 SWAP3 SWAP1 PUSH1 0x1F NOT DUP8 AND SWAP1 JUMPDEST DUP2 DUP2 LT PUSH2 0x357A JUMPI POP SWAP2 PUSH1 0x1 SWAP4 SWAP2 DUP8 PUSH1 0x24 SWAP9 SWAP5 LT PUSH2 0x3560 JUMPI JUMPDEST POP POP POP DUP2 SHL ADD SWAP1 SSTORE PUSH2 0x34E4 JUMP JUMPDEST ADD CALLDATALOAD PUSH1 0x0 NOT PUSH1 0x3 DUP5 SWAP1 SHL PUSH1 0xF8 AND SHR NOT AND SWAP1 SSTORE DUP6 DUP1 DUP1 PUSH2 0x3553 JUMP JUMPDEST SWAP2 SWAP4 PUSH1 0x20 PUSH1 0x1 DUP2 SWAP3 DUP8 DUP8 ADD CALLDATALOAD DUP2 SSTORE ADD SWAP6 ADD SWAP3 ADD PUSH2 0x353B JUMP JUMPDEST DUP3 PUSH2 0x220 MLOAD MSTORE PUSH2 0x220 MLOAD PUSH1 0x20 DUP2 KECCAK256 PUSH1 0x1F DUP8 ADD PUSH1 0x5 SHR DUP2 ADD SWAP3 PUSH1 0x20 DUP9 LT PUSH2 0x35D5 JUMPI JUMPDEST PUSH1 0x1F ADD PUSH1 0x5 SHR ADD SWAP2 JUMPDEST DUP3 DUP2 LT PUSH2 0x35CA JUMPI POP POP PUSH2 0x34AE JUMP JUMPDEST DUP2 DUP2 SSTORE PUSH1 0x1 ADD PUSH2 0x35BC JUMP JUMPDEST SWAP1 SWAP3 POP DUP3 SWAP1 PUSH2 0x35B3 JUMP JUMPDEST PUSH4 0x4E487B71 PUSH1 0xE0 SHL PUSH2 0x220 MLOAD MSTORE PUSH1 0x41 PUSH1 0x4 MSTORE PUSH1 0x24 PUSH2 0x220 MLOAD REVERT JUMPDEST ADD CALLDATALOAD SWAP1 POP DUP7 DUP1 PUSH2 0x3473 JUMP JUMPDEST DUP5 DUP3 MSTORE PUSH2 0x220 MLOAD PUSH1 0x20 DUP2 KECCAK256 SWAP4 POP SWAP1 SWAP2 SWAP1 PUSH1 0x1F NOT DUP6 AND SWAP1 JUMPDEST DUP2 DUP2 LT PUSH2 0x3658 JUMPI POP SWAP1 DUP5 PUSH1 0x1 SWAP6 SWAP5 SWAP4 SWAP3 LT PUSH2 0x363E JUMPI JUMPDEST POP POP POP DUP2 SHL ADD SWAP1 SSTORE PUSH2 0x3488 JUMP JUMPDEST ADD CALLDATALOAD PUSH1 0x0 NOT PUSH1 0x3 DUP5 SWAP1 SHL PUSH1 0xF8 AND SHR NOT AND SWAP1 SSTORE DUP7 DUP1 DUP1 PUSH2 0x3631 JUMP JUMPDEST SWAP2 SWAP4 PUSH1 0x20 PUSH1 0x1 DUP2 SWAP3 DUP8 DUP8 ADD CALLDATALOAD DUP2 SSTORE ADD SWAP6 ADD SWAP3 ADD PUSH2 0x361B JUMP JUMPDEST SWAP1 SWAP2 POP DUP4 PUSH2 0x220 MLOAD MSTORE PUSH2 0x220 MLOAD PUSH1 0x20 DUP2 KECCAK256 PUSH1 0x1F DUP6 ADD PUSH1 0x5 SHR DUP2 ADD SWAP3 PUSH1 0x20 DUP7 LT PUSH2 0x36BF JUMPI JUMPDEST SWAP1 PUSH1 0x1F DUP7 SWAP6 SWAP5 SWAP4 SWAP3 ADD PUSH1 0x5 SHR ADD SWAP2 JUMPDEST DUP3 DUP2 LT PUSH2 0x36B1 JUMPI POP POP PUSH2 0x3458 JUMP JUMPDEST DUP2 DUP2 SSTORE DUP6 SWAP5 POP PUSH1 0x1 ADD PUSH2 0x36A3 JUMP JUMPDEST SWAP1 SWAP3 POP DUP3 SWAP1 PUSH2 0x3694 JUMP JUMPDEST ADD CALLDATALOAD SWAP1 POP DUP8 DUP1 PUSH2 0x3418 JUMP JUMPDEST PUSH1 0x21 DUP9 ADD DUP3 MSTORE PUSH2 0x220 MLOAD PUSH1 0x20 DUP2 KECCAK256 SWAP4 POP SWAP1 SWAP2 SWAP1 PUSH1 0x1F NOT DUP6 AND SWAP1 JUMPDEST DUP2 DUP2 LT PUSH2 0x372E JUMPI POP SWAP1 DUP5 PUSH1 0x1 SWAP6 SWAP5 SWAP4 SWAP3 LT PUSH2 0x3714 JUMPI JUMPDEST POP POP POP DUP2 SHL ADD PUSH1 0x21 DUP6 ADD SSTORE PUSH2 0x3430 JUMP JUMPDEST ADD CALLDATALOAD PUSH1 0x0 NOT PUSH1 0x3 DUP5 SWAP1 SHL PUSH1 0xF8 AND SHR NOT AND SWAP1 SSTORE DUP8 DUP1 DUP1 PUSH2 0x3704 JUMP JUMPDEST SWAP2 SWAP4 PUSH1 0x20 PUSH1 0x1 DUP2 SWAP3 DUP8 DUP8 ADD CALLDATALOAD DUP2 SSTORE ADD SWAP6 ADD SWAP3 ADD PUSH2 0x36EE JUMP JUMPDEST SWAP1 SWAP2 POP PUSH1 0x21 DUP8 ADD PUSH2 0x220 MLOAD MSTORE PUSH2 0x220 MLOAD PUSH1 0x20 DUP2 KECCAK256 PUSH1 0x1F DUP6 ADD PUSH1 0x5 SHR DUP2 ADD SWAP3 PUSH1 0x20 DUP7 LT PUSH2 0x3798 JUMPI JUMPDEST SWAP1 PUSH1 0x1F DUP7 SWAP6 SWAP5 SWAP4 SWAP3 ADD PUSH1 0x5 SHR ADD SWAP2 JUMPDEST DUP3 DUP2 LT PUSH2 0x378A JUMPI POP POP PUSH2 0x33FD JUMP JUMPDEST DUP2 DUP2 SSTORE DUP6 SWAP5 POP PUSH1 0x1 ADD PUSH2 0x377C JUMP JUMPDEST SWAP1 SWAP3 POP DUP3 SWAP1 PUSH2 0x376D JUMP JUMPDEST ADD CALLDATALOAD SWAP1 POP DUP10 DUP1 PUSH2 0x33BF JUMP JUMPDEST SWAP1 SWAP2 POP PUSH1 0x1F NOT DUP4 AND SWAP2 PUSH1 0x20 DUP11 ADD DUP2 MSTORE PUSH2 0x220 MLOAD SWAP3 PUSH1 0x20 DUP5 KECCAK256 SWAP4 JUMPDEST DUP2 DUP2 LT PUSH2 0x3807 JUMPI POP SWAP1 DUP5 PUSH1 0x1 SWAP6 SWAP5 SWAP4 SWAP3 LT PUSH2 0x37ED JUMPI JUMPDEST POP POP POP DUP2 SHL ADD PUSH1 0x20 DUP8 ADD SSTORE PUSH2 0x33D7 JUMP JUMPDEST ADD CALLDATALOAD PUSH1 0x0 NOT PUSH1 0x3 DUP5 SWAP1 SHL PUSH1 0xF8 AND SHR NOT AND SWAP1 SSTORE DUP10 DUP1 DUP1 PUSH2 0x37DD JUMP JUMPDEST SWAP2 SWAP4 PUSH1 0x20 PUSH1 0x1 DUP2 SWAP3 DUP8 DUP8 ADD CALLDATALOAD DUP2 SSTORE ADD SWAP6 ADD SWAP3 ADD PUSH2 0x37C7 JUMP JUMPDEST SWAP1 SWAP2 POP PUSH1 0x20 DUP10 ADD PUSH2 0x220 MLOAD MSTORE PUSH2 0x220 MLOAD PUSH1 0x20 DUP2 KECCAK256 PUSH1 0x1F DUP6 ADD PUSH1 0x5 SHR DUP2 ADD PUSH1 0x20 DUP7 LT PUSH2 0x3871 JUMPI JUMPDEST SWAP1 DUP6 SWAP5 SWAP4 SWAP3 SWAP2 JUMPDEST PUSH1 0x1F DUP5 ADD PUSH1 0x5 SHR DUP3 ADD DUP2 LT PUSH2 0x3863 JUMPI POP POP POP PUSH2 0x33A4 JUMP JUMPDEST DUP3 DUP2 SSTORE DUP7 SWAP6 POP PUSH1 0x1 ADD PUSH2 0x384C JUMP JUMPDEST POP DUP1 PUSH2 0x3845 JUMP JUMPDEST PUSH4 0x4E487B71 PUSH1 0xE0 SHL SWAP1 MSTORE PUSH1 0x41 PUSH1 0x4 MSTORE PUSH2 0x220 MLOAD PUSH1 0x24 SWAP1 REVERT JUMPDEST PUSH1 0x40 MLOAD PUSH3 0x461BCD PUSH1 0xE5 SHL DUP2 MSTORE PUSH1 0x20 PUSH1 0x4 DUP3 ADD MSTORE PUSH1 0x2 PUSH1 0x24 DUP3 ADD MSTORE PUSH2 0x2227 PUSH1 0xF1 SHL PUSH1 0x44 DUP3 ADD MSTORE PUSH1 0x64 SWAP1 REVERT JUMPDEST CALLVALUE PUSH2 0xB38 JUMPI PUSH1 0x20 CALLDATASIZE PUSH1 0x3 NOT ADD SLT PUSH2 0xB38 JUMPI PUSH1 0x4 CALLDATALOAD PUSH2 0x38D6 PUSH2 0x5118 JUMP JUMPDEST PUSH2 0x2710 DUP2 GT PUSH2 0x391D JUMPI PUSH1 0x40 PUSH32 0xDEFB0223A84C18F8F7C10046A8600D298578166098E58C49022547D7A50DA35B SWAP2 PUSH1 0x6 SLOAD SWAP1 DUP1 PUSH1 0x6 SSTORE DUP3 MLOAD SWAP2 DUP3 MSTORE PUSH1 0x20 DUP3 ADD MSTORE LOG1 PUSH2 0x220 MLOAD DUP1 RETURN JUMPDEST PUSH1 0x40 MLOAD PUSH3 0x461BCD PUSH1 0xE5 SHL DUP2 MSTORE PUSH1 0x20 PUSH1 0x4 DUP3 ADD MSTORE PUSH1 0x2 PUSH1 0x24 DUP3 ADD MSTORE PUSH2 0x5245 PUSH1 0xF0 SHL PUSH1 0x44 DUP3 ADD MSTORE PUSH1 0x64 SWAP1 REVERT JUMPDEST CALLVALUE PUSH2 0xB38 JUMPI PUSH1 0x20 DUP1 PUSH1 0x3 NOT CALLDATASIZE ADD SLT PUSH2 0xB38 JUMPI PUSH1 0x15 SLOAD PUSH1 0x40 MLOAD PUSH4 0x47CD5191 PUSH1 0xE0 SHL DUP2 MSTORE PUSH1 0x4 DUP1 CALLDATALOAD SWAP1 DUP3 ADD MSTORE SWAP1 DUP3 SWAP1 DUP3 SWAP1 PUSH1 0x24 SWAP1 DUP3 SWAP1 PUSH1 0x1 PUSH1 0x1 PUSH1 0xA0 SHL SUB AND GAS STATICCALL SWAP1 DUP2 ISZERO PUSH2 0xB2A JUMPI PUSH2 0x220 MLOAD SWAP2 PUSH2 0x39A0 JUMPI JUMPDEST POP PUSH1 0x40 MLOAD SWAP1 DUP2 MSTORE RETURN JUMPDEST SWAP1 POP DUP2 DUP2 DUP2 RETURNDATASIZE DUP4 GT PUSH2 0x39C6 JUMPI JUMPDEST PUSH2 0x39B7 DUP2 DUP4 PUSH2 0x504F JUMP JUMPDEST DUP2 ADD SUB SLT PUSH2 0xB38 JUMPI MLOAD DUP3 PUSH2 0x3997 JUMP JUMPDEST POP RETURNDATASIZE PUSH2 0x39AD JUMP JUMPDEST CALLVALUE PUSH2 0xB38 JUMPI PUSH2 0x220 MLOAD DUP1 PUSH1 0x3 NOT CALLDATASIZE ADD SLT PUSH2 0x4C8 JUMPI PUSH1 0x3 SLOAD PUSH1 0x40 MLOAD PUSH1 0x1 PUSH1 0x1 PUSH1 0xA0 SHL SUB SWAP1 SWAP2 AND DUP2 MSTORE PUSH1 0x20 SWAP1 RETURN JUMPDEST CALLVALUE PUSH2 0xB38 JUMPI PUSH1 0x20 CALLDATASIZE PUSH1 0x3 NOT ADD SLT PUSH2 0xB38 JUMPI PUSH1 0x1 PUSH1 0x1 PUSH1 0xA0 SHL SUB PUSH2 0x3A1A PUSH2 0x4DA1 JUMP JUMPDEST AND PUSH2 0x220 MLOAD MSTORE PUSH1 0x9 PUSH1 0x20 MSTORE PUSH1 0x20 PUSH1 0xFF PUSH1 0x40 PUSH2 0x220 MLOAD KECCAK256 SLOAD AND PUSH1 0x40 MLOAD SWAP1 ISZERO ISZERO DUP2 MSTORE RETURN JUMPDEST CALLVALUE PUSH2 0xB38 JUMPI PUSH2 0x220 MLOAD DUP1 PUSH1 0x3 NOT CALLDATASIZE ADD SLT PUSH2 0x4C8 JUMPI PUSH1 0x20 PUSH1 0xE SLOAD PUSH1 0x40 MLOAD SWAP1 DUP2 MSTORE RETURN JUMPDEST CALLVALUE PUSH2 0xB38 JUMPI PUSH1 0x20 CALLDATASIZE PUSH1 0x3 NOT ADD SLT PUSH2 0xB38 JUMPI PUSH1 0x4 CALLDATALOAD PUSH1 0x7 DUP2 LT ISZERO PUSH2 0xB38 JUMPI PUSH1 0x20 SWAP1 PUSH1 0x26 ADD SLOAD PUSH1 0x40 MLOAD SWAP1 DUP2 MSTORE RETURN JUMPDEST CALLVALUE PUSH2 0xB38 JUMPI PUSH2 0x220 MLOAD DUP1 PUSH1 0x3 NOT CALLDATASIZE ADD SLT PUSH2 0x4C8 JUMPI PUSH2 0x3AA5 PUSH2 0x5118 JUMP JUMPDEST PUSH2 0x220 MLOAD SLOAD PUSH1 0xFF DUP2 PUSH1 0xA0 SHR AND ISZERO PUSH2 0x3AF3 JUMPI PUSH1 0xFF PUSH1 0xA0 SHL NOT AND PUSH2 0x220 MLOAD SSTORE PUSH32 0x5DB9EE0A495BF2E6FF9C91A7834C1BA4FDD244A5E8AA4E537BD38AEAE4B073AA PUSH1 0x20 PUSH1 0x40 MLOAD CALLER DUP2 MSTORE LOG1 PUSH2 0x220 MLOAD DUP1 RETURN JUMPDEST PUSH1 0x40 MLOAD PUSH4 0x8DFC202B PUSH1 0xE0 SHL DUP2 MSTORE PUSH1 0x4 SWAP1 REVERT JUMPDEST CALLVALUE PUSH2 0xB38 JUMPI PUSH1 0x20 CALLDATASIZE PUSH1 0x3 NOT ADD SLT PUSH2 0xB38 JUMPI PUSH1 0x1 PUSH1 0x1 PUSH1 0xA0 SHL SUB PUSH2 0x3B26 PUSH2 0x4DA1 JUMP JUMPDEST AND PUSH2 0x220 MLOAD MSTORE PUSH1 0x12 PUSH1 0x20 MSTORE PUSH1 0x20 PUSH1 0x40 PUSH2 0x220 MLOAD KECCAK256 SLOAD PUSH1 0x40 MLOAD SWAP1 DUP2 MSTORE RETURN JUMPDEST CALLVALUE PUSH2 0xB38 JUMPI PUSH2 0x220 MLOAD DUP1 PUSH1 0x3 NOT CALLDATASIZE ADD SLT PUSH2 0x4C8 JUMPI PUSH1 0x20 PUSH1 0xFF PUSH1 0x2 SLOAD PUSH1 0xA0 SHR AND PUSH1 0x40 MLOAD SWAP1 DUP2 MSTORE RETURN JUMPDEST CALLVALUE PUSH2 0xB38 JUMPI PUSH1 0x20 DUP1 PUSH1 0x3 NOT CALLDATASIZE ADD SLT PUSH2 0xB38 JUMPI PUSH1 0x15 SLOAD PUSH1 0x40 MLOAD PUSH4 0x1D613961 PUSH1 0xE1 SHL DUP2 MSTORE PUSH1 0x4 DUP1 CALLDATALOAD SWAP1 DUP3 ADD MSTORE SWAP1 DUP3 SWAP1 DUP3 SWAP1 PUSH1 0x24 SWAP1 DUP3 SWAP1 PUSH1 0x1 PUSH1 0x1 PUSH1 0xA0 SHL SUB AND GAS STATICCALL SWAP1 DUP2 ISZERO PUSH2 0xB2A JUMPI PUSH2 0x220 MLOAD SWAP2 PUSH2 0x39A0 JUMPI POP PUSH1 0x40 MLOAD SWAP1 DUP2 MSTORE RETURN JUMPDEST CALLVALUE PUSH2 0xB38 JUMPI PUSH1 0x20 CALLDATASIZE PUSH1 0x3 NOT ADD SLT PUSH2 0xB38 JUMPI PUSH1 0x1 PUSH1 0x1 PUSH1 0xA0 SHL SUB PUSH2 0x3BE3 PUSH2 0x4DA1 JUMP JUMPDEST AND DUP1 PUSH2 0x220 MLOAD MSTORE PUSH1 0x8 PUSH1 0x20 MSTORE PUSH2 0x3C02 PUSH1 0xFF PUSH1 0x40 PUSH2 0x220 MLOAD KECCAK256 SLOAD AND PUSH2 0x5434 JUMP JUMPDEST PUSH2 0x220 MLOAD MSTORE PUSH1 0x7 PUSH1 0x20 MSTORE PUSH1 0x20 PUSH1 0x40 PUSH2 0x220 MLOAD KECCAK256 SLOAD PUSH1 0x40 MLOAD SWAP1 DUP2 MSTORE RETURN JUMPDEST CALLVALUE PUSH2 0xB38 JUMPI PUSH2 0x220 MLOAD DUP1 PUSH1 0x3 NOT CALLDATASIZE ADD SLT PUSH2 0x4C8 JUMPI PUSH1 0x1 SLOAD PUSH1 0x40 MLOAD PUSH1 0x1 PUSH1 0x1 PUSH1 0xA0 SHL SUB SWAP1 SWAP2 AND DUP2 MSTORE PUSH1 0x20 SWAP1 RETURN JUMPDEST CALLVALUE PUSH2 0xB38 JUMPI PUSH2 0x220 MLOAD DUP1 PUSH1 0x3 NOT CALLDATASIZE ADD SLT PUSH2 0x4C8 JUMPI PUSH2 0x3C66 PUSH2 0x566D JUMP JUMPDEST PUSH2 0x3C6E PUSH2 0x5287 JUMP JUMPDEST CALLER PUSH2 0x220 MLOAD MSTORE PUSH1 0x8 PUSH1 0x20 MSTORE PUSH2 0x3C8C PUSH1 0xFF PUSH1 0x40 PUSH2 0x220 MLOAD KECCAK256 SLOAD AND PUSH2 0x5434 JUMP JUMPDEST CALLER PUSH2 0x220 MLOAD MSTORE PUSH1 0x7 PUSH1 0x20 MSTORE PUSH1 0x40 PUSH2 0x220 MLOAD KECCAK256 PUSH1 0x4 DUP2 ADD SLOAD PUSH2 0x3CC8 PUSH1 0xFF DUP3 PUSH1 0xB0 SHR AND PUSH2 0x3CB6 DUP2 PUSH2 0x4F64 JUMP JUMPDEST PUSH1 0x1 DUP2 EQ SWAP1 DUP2 ISZERO PUSH2 0x40B7 JUMPI JUMPDEST POP PUSH2 0x5AA6 JUMP JUMPDEST PUSH1 0x1E DUP3 ADD SWAP1 DUP2 SLOAD SWAP1 DUP2 ISZERO PUSH2 0x408D JUMPI PUSH1 0xFF SWAP1 PUSH3 0x15180 TIMESTAMP DIV PUSH1 0x19 DUP7 ADD DUP2 DUP2 SLOAD LT PUSH2 0x407C JUMPI JUMPDEST POP POP PUSH1 0xA8 SHR AND PUSH1 0x7 DUP2 LT ISZERO PUSH2 0x1077 JUMPI PUSH1 0x26 ADD SLOAD SWAP3 PUSH2 0x220 MLOAD SWAP3 PUSH1 0x18 DUP3 ADD SWAP1 DUP2 SLOAD DUP7 DUP2 DUP1 SWAP9 GT PUSH2 0x4069 JUMPI JUMPDEST POP POP DUP5 ISZERO PUSH2 0x403F JUMPI DUP4 SWAP5 PUSH2 0x220 MLOAD SWAP5 DUP2 DUP2 GT PUSH2 0x401D JUMPI JUMPDEST POP POP DUP5 PUSH2 0x3DBF SWAP5 SWAP6 SWAP7 PUSH2 0x3D45 SWAP3 PUSH2 0x220 MLOAD SWAP1 SSTORE PUSH2 0x51FB JUMP JUMPDEST SWAP1 SSTORE PUSH1 0x8 DUP2 ADD PUSH2 0x3D56 DUP6 DUP3 SLOAD PUSH2 0x51FB JUMP JUMPDEST SWAP1 SSTORE PUSH2 0x3D62 DUP5 CALLER PUSH2 0x5BD5 JUMP JUMPDEST CALLER PUSH2 0x220 MLOAD MSTORE PUSH1 0xC PUSH1 0x20 MSTORE PUSH2 0x220 MLOAD PUSH1 0x1F PUSH1 0x40 DUP3 KECCAK256 SWAP3 ADD SLOAD SWAP1 POP PUSH1 0xFF DUP2 GT PUSH1 0x0 EQ PUSH2 0x4017 JUMPI POP PUSH1 0xFF SWAP1 JUMPDEST PUSH1 0xFF PUSH1 0x40 MLOAD SWAP3 PUSH2 0x3D9B DUP5 PUSH2 0x4FE8 JUMP JUMPDEST PUSH1 0x5 DUP5 MSTORE DUP7 PUSH1 0x20 DUP6 ADD MSTORE TIMESTAMP PUSH1 0x40 DUP6 ADD MSTORE PUSH2 0x220 MLOAD PUSH1 0x60 DUP6 ADD MSTORE AND PUSH1 0x80 DUP4 ADD MSTORE PUSH2 0x54D6 JUMP JUMPDEST PUSH1 0x40 MLOAD DUP3 DUP2 MSTORE PUSH32 0xD4379F0DF0229CB2FED1F6F1C33E4A164DCF7652A8FF79EFD7F4F66BCC1B3756 PUSH1 0x20 CALLER SWAP3 LOG2 DUP1 PUSH2 0x3FAB JUMPI JUMPDEST POP PUSH2 0x220 DUP1 MLOAD CALLER SWAP1 MSTORE PUSH1 0x7 PUSH1 0x20 MSTORE MLOAD PUSH1 0x40 SWAP1 KECCAK256 PUSH1 0x1 SWAP1 DUP2 ADD SLOAD PUSH1 0x1 PUSH1 0x1 PUSH1 0xA0 SHL SUB AND JUMPDEST PUSH1 0x1 PUSH1 0x1 PUSH1 0xA0 SHL SUB DUP2 AND ISZERO ISZERO DUP1 PUSH2 0x3FA0 JUMPI JUMPDEST ISZERO PUSH2 0xFFE JUMPI PUSH2 0x220 DUP1 MLOAD PUSH1 0x1 PUSH1 0x1 PUSH1 0xA0 SHL SUB DUP4 AND SWAP1 MSTORE PUSH1 0x7 PUSH1 0x20 MSTORE MLOAD PUSH1 0x40 SWAP1 KECCAK256 PUSH1 0x4 DUP2 ADD SLOAD PUSH1 0xB0 DUP2 SWAP1 SHR PUSH1 0xFF AND PUSH2 0x3E5C DUP2 PUSH2 0x4F64 JUMP JUMPDEST PUSH1 0x1 DUP2 EQ SWAP1 DUP2 ISZERO PUSH2 0x3F8C JUMPI JUMPDEST POP PUSH2 0x3E8D JUMPI JUMPDEST POP PUSH1 0x1 ADD SLOAD PUSH1 0x1 PUSH1 0x1 PUSH1 0xA0 SHL SUB AND SWAP2 PUSH2 0x3E87 SWAP2 POP PUSH2 0x5278 JUMP JUMPDEST SWAP1 PUSH2 0x3E14 JUMP JUMPDEST PUSH1 0x7 PUSH1 0xFF DUP3 PUSH1 0xA8 SHR AND LT ISZERO PUSH2 0x1077 JUMPI PUSH1 0xFF SWAP1 PUSH1 0xA8 SHR AND PUSH1 0x34 ADD SLOAD DUP4 GT ISZERO PUSH2 0x3EB5 JUMPI JUMPDEST DUP2 PUSH2 0x3E6E JUMP JUMPDEST PUSH1 0x64 SWAP2 DUP5 DUP4 DUP2 MUL DIV DUP4 EQ DUP6 ISZERO OR ISZERO PUSH2 0xD7E JUMPI PUSH2 0x2710 PUSH2 0x3E87 SWAP4 DUP7 MUL DIV DUP1 PUSH2 0x3EDE JUMPI JUMPDEST POP POP PUSH2 0x3EAF JUMP JUMPDEST PUSH2 0x3EE8 DUP2 DUP4 PUSH2 0x5BD5 JUMP JUMPDEST PUSH1 0x9 DUP4 ADD PUSH2 0x3EF7 DUP3 DUP3 SLOAD PUSH2 0x51FB JUMP JUMPDEST SWAP1 SSTORE PUSH1 0x1 DUP1 PUSH1 0xA0 SHL SUB DUP3 AND PUSH2 0x220 MLOAD MSTORE PUSH1 0xC PUSH1 0x20 MSTORE PUSH2 0x3F47 PUSH1 0x40 PUSH2 0x220 MLOAD KECCAK256 PUSH1 0x40 MLOAD SWAP1 PUSH2 0x3F23 DUP3 PUSH2 0x4FE8 JUMP JUMPDEST PUSH1 0x6 DUP3 MSTORE DUP4 PUSH1 0x20 DUP4 ADD MSTORE TIMESTAMP PUSH1 0x40 DUP4 ADD MSTORE CALLER PUSH1 0x60 DUP4 ADD MSTORE PUSH1 0xFF DUP9 AND PUSH1 0x80 DUP4 ADD MSTORE PUSH2 0x54D6 JUMP JUMPDEST PUSH1 0x40 DUP1 MLOAD SWAP2 DUP3 MSTORE PUSH1 0x20 DUP3 ADD DUP7 SWAP1 MSTORE CALLER SWAP3 PUSH1 0x1 PUSH1 0x1 PUSH1 0xA0 SHL SUB AND SWAP2 PUSH32 0x45948FC51BBCAC6C3B663A1ADCC0697660BBAEDDD6EAB9240451A0EFCF7AD753 SWAP2 SWAP1 LOG3 DUP5 DUP1 PUSH2 0x3ED7 JUMP JUMPDEST PUSH1 0x2 SWAP2 POP PUSH2 0x3F99 DUP2 PUSH2 0x4F64 JUMP JUMPDEST EQ DUP7 PUSH2 0x3E68 JUMP JUMPDEST POP PUSH1 0x14 DUP3 GT ISZERO PUSH2 0x3E26 JUMP JUMPDEST PUSH2 0x3FB7 DUP2 PUSH1 0x17 SLOAD PUSH2 0x51FB JUMP JUMPDEST PUSH1 0x17 SSTORE PUSH1 0x40 MLOAD DUP2 DUP2 MSTORE PUSH32 0xD5FE7FA76CE91683EA1B2F2BA3429885FEEB202704AA35A0552E110E4EB6B26B PUSH1 0x20 CALLER SWAP3 LOG2 PUSH1 0x16 SLOAD PUSH1 0x1 PUSH1 0x1 PUSH1 0xA0 SHL SUB SWAP2 SWAP1 DUP3 AND DUP1 PUSH2 0x4002 JUMPI JUMPDEST POP POP PUSH2 0x3DF1 JUMP JUMPDEST PUSH2 0x400F SWAP3 PUSH1 0x1 SLOAD AND PUSH2 0x557F JUMP JUMPDEST DUP2 DUP1 DUP1 PUSH2 0x3FFB JUMP JUMPDEST SWAP1 PUSH2 0x3D8C JUMP JUMPDEST SWAP1 SWAP7 PUSH2 0x3D45 SWAP3 SWAP7 POP PUSH2 0x3DBF SWAP6 POP PUSH2 0x4035 DUP9 DUP10 SWAP4 PUSH2 0x52A8 JUMP JUMPDEST SWAP6 POP SWAP7 SWAP6 SWAP2 PUSH2 0x3D2D JUMP JUMPDEST PUSH1 0x40 MLOAD PUSH3 0x461BCD PUSH1 0xE5 SHL DUP2 MSTORE PUSH1 0x20 PUSH1 0x4 DUP3 ADD MSTORE PUSH1 0x2 PUSH1 0x24 DUP3 ADD MSTORE PUSH2 0x4443 PUSH1 0xF0 SHL PUSH1 0x44 DUP3 ADD MSTORE PUSH1 0x64 SWAP1 REVERT JUMPDEST PUSH2 0x4074 SWAP3 SWAP7 POP PUSH2 0x52A8 JUMP JUMPDEST SWAP4 DUP6 DUP8 PUSH2 0x3D16 JUMP JUMPDEST PUSH2 0x220 MLOAD PUSH1 0x18 DUP9 ADD SSTORE SSTORE DUP6 DUP1 PUSH2 0x3CEC JUMP JUMPDEST PUSH1 0x40 MLOAD PUSH3 0x461BCD PUSH1 0xE5 SHL DUP2 MSTORE PUSH1 0x20 PUSH1 0x4 DUP3 ADD MSTORE PUSH1 0x2 PUSH1 0x24 DUP3 ADD MSTORE PUSH2 0x4E43 PUSH1 0xF0 SHL PUSH1 0x44 DUP3 ADD MSTORE PUSH1 0x64 SWAP1 REVERT JUMPDEST PUSH1 0x2 SWAP2 POP PUSH2 0x40C4 DUP2 PUSH2 0x4F64 JUMP JUMPDEST EQ DUP5 PUSH2 0x3CC2 JUMP JUMPDEST CALLVALUE PUSH2 0xB38 JUMPI PUSH1 0x20 CALLDATASIZE PUSH1 0x3 NOT ADD SLT PUSH2 0xB38 JUMPI PUSH1 0x4 CALLDATALOAD PUSH2 0x40E7 PUSH2 0x566D JUMP JUMPDEST PUSH2 0x40EF PUSH2 0x5287 JUMP JUMPDEST CALLER PUSH2 0x220 MLOAD MSTORE PUSH1 0x7 PUSH1 0x20 MSTORE PUSH1 0x40 PUSH2 0x220 MLOAD KECCAK256 PUSH2 0x4120 PUSH1 0x1 PUSH1 0xFF PUSH1 0x4 DUP5 ADD SLOAD PUSH1 0xB0 SHR AND PUSH2 0x411A DUP2 PUSH2 0x4F64 JUMP JUMPDEST EQ PUSH2 0x5AA6 JUMP JUMPDEST PUSH1 0x5 DUP2 ADD DUP1 SLOAD SWAP1 DUP4 DUP3 LT PUSH2 0x4669 JUMPI DUP4 ISZERO SWAP2 PUSH2 0x413B DUP4 ISZERO PUSH2 0x5AD7 JUMP JUMPDEST PUSH1 0xFF PUSH1 0x2 SLOAD PUSH1 0xA0 SHR AND PUSH1 0x4D DUP2 GT PUSH2 0xD7E JUMPI PUSH1 0xA EXP DUP1 PUSH1 0xA MUL SWAP1 PUSH1 0xA DUP3 DIV SUB PUSH2 0xD7E JUMPI DUP1 ISZERO PUSH2 0x464F JUMPI DUP6 MOD PUSH2 0x4625 JUMPI DUP5 PUSH2 0x4173 SWAP2 PUSH2 0x52A8 JUMP JUMPDEST SWAP1 SSTORE PUSH2 0x3E8 SWAP1 DUP2 DUP5 MUL SWAP2 DUP5 DUP4 DIV EQ OR ISZERO PUSH2 0xD7E JUMPI PUSH2 0x220 MLOAD SWAP3 PUSH1 0x5 SLOAD DUP1 PUSH2 0x4606 JUMPI JUMPDEST POP DUP4 PUSH2 0x41B2 PUSH2 0x41B7 SWAP3 PUSH2 0x41B2 PUSH2 0x2710 DUP7 DIV SWAP2 PUSH2 0x2710 DUP8 DIV SWAP1 PUSH2 0x52A8 JUMP JUMPDEST PUSH2 0x52A8 JUMP JUMPDEST SWAP2 PUSH2 0x2710 PUSH2 0x41C7 PUSH1 0x6 SLOAD DUP6 PUSH2 0x556C JUMP JUMPDEST DIV SWAP1 PUSH2 0x41D3 DUP3 DUP6 PUSH2 0x52A8 JUMP JUMPDEST SWAP2 DUP1 PUSH2 0x45E8 JUMPI JUMPDEST POP DUP2 PUSH2 0x4599 JUMPI JUMPDEST PUSH1 0x1D SWAP2 POP DUP5 PUSH2 0x4576 JUMPI JUMPDEST SWAP4 SWAP3 SWAP4 ADD PUSH2 0x41FA DUP5 DUP3 SLOAD PUSH2 0x51FB JUMP JUMPDEST SWAP1 SSTORE CALLER PUSH2 0x220 MLOAD MSTORE PUSH1 0x12 PUSH1 0x20 MSTORE PUSH1 0x40 PUSH2 0x220 MLOAD KECCAK256 PUSH2 0x421D PUSH2 0x2710 DUP4 DIV DUP3 SLOAD PUSH2 0x51FB JUMP JUMPDEST SWAP1 SSTORE PUSH1 0x40 MLOAD PUSH2 0x2710 DUP3 DIV DUP2 MSTORE PUSH32 0x2B1D2104E84DD4DABB0CCA024171F783AB1E1C9DC1AF9D60A2361596653A99C4 PUSH1 0x20 CALLER SWAP3 LOG2 PUSH2 0x220 DUP1 MLOAD CALLER SWAP1 MSTORE PUSH1 0x7 PUSH1 0x20 MSTORE MLOAD PUSH1 0x40 DUP2 KECCAK256 PUSH1 0x1 SWAP1 DUP2 ADD SLOAD SWAP2 SWAP5 SWAP1 SWAP2 PUSH1 0x1 PUSH1 0x1 PUSH1 0xA0 SHL SUB AND JUMPDEST PUSH1 0x1 PUSH1 0x1 PUSH1 0xA0 SHL SUB DUP2 AND ISZERO ISZERO DUP1 PUSH2 0x456B JUMPI JUMPDEST ISZERO PUSH2 0x443C JUMPI PUSH1 0x1 DUP1 PUSH1 0xA0 SHL SUB DUP2 AND PUSH2 0x220 MLOAD MSTORE PUSH1 0x7 PUSH1 0x20 MSTORE PUSH1 0x40 PUSH2 0x220 MLOAD KECCAK256 SWAP1 PUSH1 0x4 DUP3 ADD SLOAD PUSH1 0xFF DUP2 PUSH1 0xB0 SHR AND PUSH2 0x42BC DUP2 PUSH2 0x4F64 JUMP JUMPDEST PUSH1 0x1 DUP2 EQ SWAP1 DUP2 ISZERO PUSH2 0x4428 JUMPI JUMPDEST POP PUSH2 0x42ED JUMPI JUMPDEST POP POP PUSH1 0x1 ADD SLOAD PUSH1 0x1 PUSH1 0x1 PUSH1 0xA0 SHL SUB AND SWAP2 PUSH2 0x42E7 SWAP1 PUSH2 0x5278 JUMP JUMPDEST SWAP2 PUSH2 0x4275 JUMP JUMPDEST PUSH1 0x7 PUSH1 0xFF DUP3 PUSH1 0xA8 SHR AND LT ISZERO PUSH2 0x1077 JUMPI DUP1 PUSH1 0xFF DUP7 SWAP3 PUSH1 0xA8 SHR AND PUSH1 0x3B ADD SLOAD DUP3 GT ISZERO PUSH2 0x4317 JUMPI JUMPDEST POP PUSH2 0x42CE JUMP JUMPDEST SWAP1 PUSH1 0xFF PUSH2 0x4327 SWAP3 PUSH1 0xA8 SHR AND PUSH2 0x5B08 JUMP JUMPDEST DUP1 PUSH2 0x4334 JUMPI JUMPDEST DUP5 SWAP1 PUSH2 0x4311 JUMP JUMPDEST PUSH2 0x4343 PUSH2 0x2710 SWAP2 DUP3 DUP9 DIV PUSH2 0x556C JUMP JUMPDEST DIV SWAP1 DUP2 ISZERO ISZERO DUP1 PUSH2 0x4411 JUMPI JUMPDEST ISZERO PUSH2 0x432D JUMPI PUSH2 0x437D DUP3 DUP1 SWAP10 PUSH2 0x4367 PUSH2 0x42E7 SWAP7 SWAP6 DUP6 PUSH2 0x5BD5 JUMP JUMPDEST PUSH1 0xA DUP6 ADD PUSH2 0x4376 DUP4 DUP3 SLOAD PUSH2 0x51FB JUMP JUMPDEST SWAP1 SSTORE PUSH2 0x51FB JUMP JUMPDEST SWAP8 PUSH1 0x1 DUP1 PUSH1 0xA0 SHL SUB DUP3 AND PUSH2 0x220 MLOAD MSTORE PUSH1 0xC PUSH1 0x20 MSTORE PUSH2 0x43CC PUSH1 0x40 PUSH2 0x220 MLOAD KECCAK256 PUSH1 0x40 MLOAD SWAP1 PUSH2 0x43A8 DUP3 PUSH2 0x4FE8 JUMP JUMPDEST PUSH1 0x7 DUP3 MSTORE DUP4 PUSH1 0x20 DUP4 ADD MSTORE TIMESTAMP PUSH1 0x40 DUP4 ADD MSTORE CALLER PUSH1 0x60 DUP4 ADD MSTORE PUSH1 0xFF DUP10 AND PUSH1 0x80 DUP4 ADD MSTORE PUSH2 0x54D6 JUMP JUMPDEST PUSH1 0x40 DUP1 MLOAD SWAP2 DUP3 MSTORE PUSH1 0x20 DUP3 ADD DUP8 SWAP1 MSTORE CALLER SWAP3 PUSH1 0x1 PUSH1 0x1 PUSH1 0xA0 SHL SUB AND SWAP2 PUSH32 0xFA90FF469705543002392F8F4D59D717C4D5C6B6C7832F347DC47E1F75855B93 SWAP2 SWAP1 LOG3 SWAP1 DUP8 PUSH2 0x432D JUMP JUMPDEST POP PUSH2 0x2710 DUP7 DIV PUSH2 0x4421 DUP4 DUP11 PUSH2 0x51FB JUMP JUMPDEST GT ISZERO PUSH2 0x434E JUMP JUMPDEST PUSH1 0x2 SWAP2 POP PUSH2 0x4435 DUP2 PUSH2 0x4F64 JUMP JUMPDEST EQ DUP10 PUSH2 0x42C8 JUMP JUMPDEST POP DUP4 PUSH2 0x4521 DUP5 CALLER PUSH2 0x220 MLOAD MSTORE PUSH1 0xC PUSH1 0x20 MSTORE PUSH2 0x448B PUSH1 0x40 PUSH2 0x220 MLOAD KECCAK256 PUSH1 0x40 MLOAD SWAP1 PUSH2 0x4464 DUP3 PUSH2 0x4FE8 JUMP JUMPDEST PUSH1 0x3 DUP3 MSTORE DUP7 PUSH1 0x20 DUP4 ADD MSTORE TIMESTAMP PUSH1 0x40 DUP4 ADD MSTORE PUSH2 0x220 MLOAD PUSH1 0x60 DUP4 ADD MSTORE PUSH2 0x220 MLOAD PUSH1 0x80 DUP4 ADD MSTORE PUSH2 0x54D6 JUMP JUMPDEST CALLER PUSH2 0x220 MLOAD MSTORE PUSH1 0xC PUSH1 0x20 MSTORE PUSH2 0x44D8 PUSH1 0x40 PUSH2 0x220 MLOAD KECCAK256 PUSH1 0x40 MLOAD SWAP1 PUSH2 0x44AD DUP3 PUSH2 0x4FE8 JUMP JUMPDEST PUSH1 0xA DUP3 MSTORE PUSH2 0x2710 DUP5 DIV PUSH1 0x20 DUP4 ADD MSTORE TIMESTAMP PUSH1 0x40 DUP4 ADD MSTORE PUSH2 0x220 MLOAD PUSH1 0x60 DUP4 ADD MSTORE PUSH2 0x220 MLOAD PUSH1 0x80 DUP4 ADD MSTORE PUSH2 0x54D6 JUMP JUMPDEST CALLER PUSH2 0x220 MLOAD MSTORE PUSH1 0xC PUSH1 0x20 MSTORE PUSH1 0x40 PUSH2 0x220 MLOAD KECCAK256 PUSH2 0x2710 PUSH1 0x40 MLOAD SWAP3 PUSH2 0x44FA DUP5 PUSH2 0x4FE8 JUMP JUMPDEST PUSH1 0xB DUP5 MSTORE DIV PUSH1 0x20 DUP4 ADD MSTORE TIMESTAMP PUSH1 0x40 DUP4 ADD MSTORE PUSH2 0x220 MLOAD PUSH1 0x60 DUP4 ADD MSTORE PUSH2 0x220 MLOAD PUSH1 0x80 DUP4 ADD MSTORE PUSH2 0x54D6 JUMP JUMPDEST PUSH1 0x40 MLOAD SWAP2 DUP3 MSTORE PUSH1 0x20 DUP3 ADD MSTORE PUSH32 0xDF273CB619D95419A9CD0EC88123A0538C85064229BAA6363788F743FFF90DEB PUSH1 0x40 CALLER SWAP3 LOG2 PUSH1 0x1 PUSH1 0x0 DUP1 MLOAD PUSH1 0x20 PUSH2 0x6130 DUP4 CODECOPY DUP2 MLOAD SWAP2 MSTORE SSTORE PUSH2 0x220 MLOAD DUP1 RETURN JUMPDEST POP PUSH1 0xF DUP4 GT ISZERO PUSH2 0x4287 JUMP JUMPDEST PUSH1 0x1 SLOAD PUSH1 0x3 SLOAD PUSH2 0x4594 SWAP2 DUP8 SWAP2 PUSH1 0x1 PUSH1 0x1 PUSH1 0xA0 SHL SUB SWAP1 DUP2 AND SWAP2 AND PUSH2 0x557F JUMP JUMPDEST PUSH2 0x41EB JUMP JUMPDEST PUSH1 0x2 SLOAD PUSH1 0x1 PUSH1 0x1 PUSH1 0xA0 SHL SUB AND DUP1 ISZERO PUSH2 0x45BE JUMPI PUSH1 0x1D SWAP3 PUSH2 0x45B9 SWAP2 CALLER SWAP1 PUSH2 0x557F JUMP JUMPDEST PUSH2 0x41E1 JUMP JUMPDEST PUSH1 0x40 MLOAD PUSH3 0x461BCD PUSH1 0xE5 SHL DUP2 MSTORE PUSH1 0x20 PUSH1 0x4 DUP3 ADD MSTORE PUSH1 0x2 PUSH1 0x24 DUP3 ADD MSTORE PUSH2 0x1355 PUSH1 0xF2 SHL PUSH1 0x44 DUP3 ADD MSTORE PUSH1 0x64 SWAP1 REVERT JUMPDEST PUSH1 0x1 SLOAD PUSH2 0x4600 SWAP2 SWAP1 CALLER SWAP1 PUSH1 0x1 PUSH1 0x1 PUSH1 0xA0 SHL SUB AND PUSH2 0x557F JUMP JUMPDEST DUP6 PUSH2 0x41DA JUMP JUMPDEST PUSH2 0x41B2 SWAP5 POP SWAP1 PUSH2 0x2710 PUSH2 0x461C PUSH2 0x41B7 SWAP4 DUP4 PUSH2 0x556C JUMP JUMPDEST DIV SWAP5 POP SWAP1 PUSH2 0x4195 JUMP JUMPDEST PUSH1 0x40 MLOAD PUSH3 0x461BCD PUSH1 0xE5 SHL DUP2 MSTORE PUSH1 0x20 PUSH1 0x4 DUP3 ADD MSTORE PUSH1 0x2 PUSH1 0x24 DUP3 ADD MSTORE PUSH2 0x414D PUSH1 0xF0 SHL PUSH1 0x44 DUP3 ADD MSTORE PUSH1 0x64 SWAP1 REVERT JUMPDEST PUSH4 0x4E487B71 PUSH1 0xE0 SHL PUSH2 0x220 MLOAD MSTORE PUSH1 0x12 PUSH1 0x4 MSTORE PUSH1 0x24 PUSH2 0x220 MLOAD REVERT JUMPDEST PUSH1 0x40 MLOAD PUSH3 0x461BCD PUSH1 0xE5 SHL DUP2 MSTORE PUSH1 0x20 PUSH1 0x4 DUP3 ADD MSTORE PUSH1 0x3 PUSH1 0x24 DUP3 ADD MSTORE PUSH3 0x24A119 PUSH1 0xE9 SHL PUSH1 0x44 DUP3 ADD MSTORE PUSH1 0x64 SWAP1 REVERT JUMPDEST CALLVALUE PUSH2 0xB38 JUMPI PUSH1 0x40 CALLDATASIZE PUSH1 0x3 NOT ADD SLT PUSH2 0xB38 JUMPI PUSH2 0x46AD PUSH2 0x4DA1 JUMP JUMPDEST PUSH32 0x41310093E80507E3FB2FAFC7628A627F835448A93096F490E3E207749295F482 PUSH1 0x20 PUSH1 0x24 CALLDATALOAD PUSH2 0x46DB PUSH2 0x5118 JUMP JUMPDEST PUSH1 0x1 PUSH1 0x1 PUSH1 0xA0 SHL SUB DUP5 DUP2 AND SWAP5 PUSH2 0x1F3F SWAP2 DUP4 SWAP2 SWAP1 PUSH2 0x1F36 DUP9 ISZERO ISZERO PUSH2 0x603F JUMP JUMPDEST CALLVALUE PUSH2 0xB38 JUMPI PUSH1 0x20 CALLDATASIZE PUSH1 0x3 NOT ADD SLT PUSH2 0xB38 JUMPI PUSH1 0x1 PUSH1 0x1 PUSH1 0xA0 SHL SUB PUSH2 0x471A PUSH2 0x4DA1 JUMP JUMPDEST AND PUSH2 0x220 MLOAD MSTORE PUSH1 0xD PUSH1 0x20 MSTORE PUSH1 0x20 PUSH1 0xFF PUSH1 0x40 PUSH2 0x220 MLOAD KECCAK256 SLOAD AND PUSH1 0x40 MLOAD SWAP1 ISZERO ISZERO DUP2 MSTORE RETURN JUMPDEST CALLVALUE PUSH2 0xB38 JUMPI PUSH1 0x20 CALLDATASIZE PUSH1 0x3 NOT ADD SLT PUSH2 0xB38 JUMPI PUSH2 0x4755 PUSH2 0x4DA1 JUMP JUMPDEST PUSH1 0x40 MLOAD SWAP1 PUSH2 0x4762 DUP3 PUSH2 0x5019 JUMP JUMPDEST PUSH1 0x80 DUP1 SWAP3 CALLDATASIZE SWAP1 CALLDATACOPY DUP2 PUSH1 0x40 MLOAD PUSH2 0x4776 DUP2 PUSH2 0x5019 JUMP JUMPDEST CALLDATASIZE SWAP1 CALLDATACOPY PUSH1 0x40 MLOAD SWAP1 PUSH2 0x4786 DUP3 PUSH2 0x5019 JUMP JUMPDEST DUP3 CALLDATASIZE DUP4 CALLDATACOPY PUSH1 0x40 MLOAD SWAP1 PUSH2 0x4797 DUP3 PUSH2 0x5019 JUMP JUMPDEST DUP4 CALLDATASIZE DUP4 CALLDATACOPY DUP4 PUSH1 0x40 MLOAD PUSH2 0x47A8 DUP2 PUSH2 0x5019 JUMP JUMPDEST CALLDATASIZE SWAP1 CALLDATACOPY PUSH1 0x1 DUP1 PUSH1 0xA0 SHL SUB AND PUSH2 0x220 MLOAD MSTORE PUSH1 0x7 PUSH1 0x20 MSTORE PUSH1 0x40 PUSH2 0x220 MLOAD KECCAK256 SWAP2 PUSH1 0x10 DUP4 ADD PUSH1 0x14 PUSH2 0x47D4 DUP3 PUSH2 0x5D45 JUMP JUMPDEST SWAP5 ADD SWAP5 PUSH2 0x47E0 DUP7 PUSH2 0x5D45 JUMP JUMPDEST PUSH1 0x40 MLOAD SWAP7 SWAP1 SWAP3 SWAP1 DUP3 DUP9 ADD PUSH1 0x1 PUSH1 0x1 PUSH1 0x40 SHL SUB DUP2 GT DUP10 DUP3 LT OR PUSH2 0x35DF JUMPI PUSH1 0x40 MSTORE PUSH2 0xBB8 DUP9 MSTORE PUSH2 0x7D0 PUSH1 0x20 DUP10 ADD MSTORE PUSH2 0x3E8 PUSH1 0x40 DUP10 ADD MSTORE PUSH2 0x1F4 PUSH1 0x60 DUP10 ADD MSTORE PUSH2 0x220 MLOAD JUMPDEST PUSH1 0x4 DUP2 LT PUSH2 0x4876 JUMPI PUSH2 0x280 DUP9 PUSH2 0x4874 DUP12 PUSH2 0x4869 DUP12 PUSH2 0x485E DUP13 PUSH2 0x4853 DUP14 DUP14 PUSH2 0x484B PUSH1 0x40 MLOAD DUP1 SWAP12 PUSH2 0x4F0F JUMP JUMPDEST DUP10 ADD SWAP1 PUSH2 0x4F0F JUMP JUMPDEST PUSH2 0x100 DUP8 ADD SWAP1 PUSH2 0x4F0F JUMP JUMPDEST PUSH2 0x180 DUP6 ADD SWAP1 PUSH2 0x4F0F JUMP JUMPDEST PUSH2 0x200 DUP4 ADD SWAP1 PUSH2 0x4F0F JUMP JUMPDEST RETURN JUMPDEST DUP1 PUSH2 0x4884 PUSH2 0x48F3 SWAP3 DUP6 PUSH2 0x4EA0 JUMP JUMPDEST SWAP1 SLOAD SWAP1 PUSH2 0x4891 DUP4 DUP7 PUSH2 0x4EA0 JUMP JUMPDEST SWAP1 SLOAD PUSH1 0x3 SWAP4 SWAP2 DUP5 SHL SHR SWAP2 DUP4 SHL SHR LT ISZERO PUSH2 0x48F8 JUMPI PUSH2 0x48AE DUP3 DUP7 PUSH2 0x4EA0 JUMP JUMPDEST SWAP1 SLOAD SWAP2 SHL SHR JUMPDEST PUSH2 0x48BE DUP3 DUP10 PUSH2 0x5D78 JUMP JUMPDEST MSTORE PUSH2 0x2710 PUSH2 0x48E2 DUP12 PUSH2 0x48DB DUP5 PUSH2 0x48D4 DUP2 DUP14 PUSH2 0x5D78 JUMP JUMPDEST MLOAD SWAP3 PUSH2 0x5D78 JUMP JUMPDEST MLOAD SWAP1 PUSH2 0x556C JUMP JUMPDEST DIV PUSH2 0x48ED DUP3 DUP11 PUSH2 0x5D78 JUMP JUMPDEST MSTORE PUSH2 0x5278 JUMP JUMPDEST PUSH2 0x4821 JUMP JUMPDEST PUSH2 0x4902 DUP3 DUP6 PUSH2 0x4EA0 JUMP JUMPDEST SWAP1 SLOAD SWAP2 SHL SHR PUSH2 0x48B4 JUMP JUMPDEST CALLVALUE PUSH2 0xB38 JUMPI PUSH2 0x220 MLOAD DUP1 PUSH1 0x3 NOT CALLDATASIZE ADD SLT PUSH2 0x4C8 JUMPI PUSH1 0x20 PUSH1 0x17 SLOAD PUSH1 0x40 MLOAD SWAP1 DUP2 MSTORE RETURN JUMPDEST CALLVALUE PUSH2 0xB38 JUMPI PUSH2 0x493B CALLDATASIZE PUSH2 0x4EF0 JUMP JUMPDEST PUSH2 0x4943 PUSH2 0x5118 JUMP JUMPDEST PUSH1 0x7 DUP3 LT ISZERO DUP1 PUSH2 0x1077 JUMPI PUSH1 0x1 DUP4 LT ISZERO DUP1 PUSH2 0x49A0 JUMPI JUMPDEST PUSH2 0x4961 SWAP1 PUSH2 0x5465 JUMP JUMPDEST PUSH2 0x1077 JUMPI DUP2 PUSH2 0x239F PUSH32 0xFD97DC847C39542AE663C77ED6C5FE5D200D0A308AAC833F926E9C3F8F32453F SWAP4 PUSH1 0x26 ADD SWAP3 DUP1 DUP5 SLOAD SWAP5 SSTORE PUSH1 0x40 MLOAD SWAP4 DUP5 SWAP4 DUP5 PUSH2 0x6070 JUMP JUMPDEST POP POP PUSH2 0x220 MLOAD PUSH1 0x6 DUP4 GT ISZERO PUSH2 0x4958 JUMP JUMPDEST CALLVALUE PUSH2 0xB38 JUMPI PUSH1 0x40 CALLDATASIZE PUSH1 0x3 NOT ADD SLT PUSH2 0xB38 JUMPI PUSH2 0x49C9 PUSH2 0x4DA1 JUMP JUMPDEST PUSH1 0x24 CALLDATALOAD SWAP1 DUP2 ISZERO ISZERO DUP1 SWAP3 SUB PUSH2 0xB38 JUMPI PUSH1 0x20 PUSH32 0x9742298DC6801916D04D1F05C6A0CC0405B25BAD99060BBBC1C82A9F474AB014 SWAP2 PUSH2 0x4A03 PUSH2 0x5118 JUMP JUMPDEST PUSH1 0x1 PUSH1 0x1 PUSH1 0xA0 SHL SUB AND SWAP3 PUSH2 0x4A18 DUP5 ISZERO ISZERO PUSH2 0x603F JUMP JUMPDEST DUP4 PUSH2 0x220 MLOAD MSTORE PUSH1 0xD DUP3 MSTORE PUSH1 0x40 PUSH2 0x220 MLOAD KECCAK256 PUSH1 0xFF NOT DUP2 SLOAD AND PUSH1 0xFF DUP4 AND OR SWAP1 SSTORE PUSH1 0x40 MLOAD SWAP1 DUP2 MSTORE LOG2 PUSH2 0x220 MLOAD DUP1 RETURN JUMPDEST CALLVALUE PUSH2 0xB38 JUMPI PUSH1 0x20 CALLDATASIZE PUSH1 0x3 NOT ADD SLT PUSH2 0xB38 JUMPI PUSH1 0x4 CALLDATALOAD PUSH1 0x7 DUP2 LT ISZERO PUSH2 0xB38 JUMPI PUSH1 0x20 SWAP1 PUSH1 0x18 ADD SLOAD PUSH1 0x40 MLOAD SWAP1 DUP2 MSTORE RETURN JUMPDEST CALLVALUE PUSH2 0xB38 JUMPI PUSH1 0x20 CALLDATASIZE PUSH1 0x3 NOT ADD SLT PUSH2 0xB38 JUMPI PUSH1 0x1 PUSH1 0x1 PUSH1 0xA0 SHL SUB PUSH2 0x4A91 PUSH2 0x4DA1 JUMP JUMPDEST AND PUSH2 0x220 MLOAD MSTORE PUSH1 0x7 PUSH1 0x20 MSTORE PUSH2 0x4AFE PUSH1 0x40 PUSH2 0x220 MLOAD KECCAK256 PUSH1 0xFF PUSH1 0x24 DUP3 ADD SLOAD AND PUSH2 0x4B28 PUSH2 0x4ABD PUSH1 0x20 DUP5 ADD PUSH2 0x5072 JUMP JUMPDEST SWAP3 PUSH2 0x4B1A PUSH2 0x4ACD PUSH1 0x21 DUP4 ADD PUSH2 0x5072 JUMP JUMPDEST SWAP2 PUSH2 0x4B0C PUSH2 0x4AE9 PUSH1 0x23 PUSH2 0x4AE2 PUSH1 0x22 DUP6 ADD PUSH2 0x5072 JUMP JUMPDEST SWAP4 ADD PUSH2 0x5072 JUMP JUMPDEST SWAP4 PUSH1 0x40 MLOAD SWAP9 DUP10 SWAP9 PUSH1 0xA0 DUP11 MSTORE PUSH1 0xA0 DUP11 ADD SWAP1 PUSH2 0x4EB0 JUMP JUMPDEST SWAP1 DUP9 DUP3 SUB PUSH1 0x20 DUP11 ADD MSTORE PUSH2 0x4EB0 JUMP JUMPDEST SWAP1 DUP7 DUP3 SUB PUSH1 0x40 DUP9 ADD MSTORE PUSH2 0x4EB0 JUMP JUMPDEST SWAP1 DUP5 DUP3 SUB PUSH1 0x60 DUP7 ADD MSTORE PUSH2 0x4EB0 JUMP JUMPDEST SWAP1 ISZERO ISZERO PUSH1 0x80 DUP4 ADD MSTORE SUB SWAP1 RETURN JUMPDEST CALLVALUE PUSH2 0xB38 JUMPI PUSH1 0x20 CALLDATASIZE PUSH1 0x3 NOT ADD SLT PUSH2 0xB38 JUMPI PUSH1 0x4 CALLDATALOAD PUSH1 0x4 DUP2 LT ISZERO PUSH2 0xB38 JUMPI PUSH1 0x20 SWAP1 PUSH1 0x42 ADD SLOAD PUSH1 0x40 MLOAD SWAP1 DUP2 MSTORE RETURN JUMPDEST CALLVALUE PUSH2 0xB38 JUMPI PUSH1 0x20 CALLDATASIZE PUSH1 0x3 NOT ADD SLT PUSH2 0xB38 JUMPI PUSH1 0x4 CALLDATALOAD PUSH2 0x220 MLOAD MSTORE PUSH1 0x10 PUSH1 0x20 MSTORE PUSH1 0x20 PUSH1 0xFF PUSH1 0x40 PUSH2 0x220 MLOAD KECCAK256 SLOAD AND PUSH1 0x40 MLOAD SWAP1 ISZERO ISZERO DUP2 MSTORE RETURN JUMPDEST CALLVALUE PUSH2 0xB38 JUMPI PUSH1 0x40 CALLDATASIZE PUSH1 0x3 NOT ADD SLT PUSH2 0xB38 JUMPI PUSH2 0x4BAE PUSH2 0x4DA1 JUMP JUMPDEST PUSH2 0x220 DUP1 MLOAD PUSH1 0x1 PUSH1 0x1 PUSH1 0xA0 SHL SUB SWAP3 DUP4 AND SWAP1 MSTORE PUSH1 0xA PUSH1 0x20 MSTORE MLOAD PUSH1 0x40 DUP2 KECCAK256 DUP1 SLOAD PUSH1 0x24 CALLDATALOAD SWAP4 SWAP3 SWAP1 DUP5 LT ISZERO PUSH2 0x4C8 JUMPI POP PUSH1 0x20 SWAP3 PUSH2 0x4BE6 SWAP2 PUSH2 0x4E88 JUMP JUMPDEST SWAP2 SWAP1 SLOAD PUSH1 0x40 MLOAD SWAP3 PUSH1 0x3 SHL SHR AND DUP2 MSTORE RETURN JUMPDEST CALLVALUE PUSH2 0xB38 JUMPI PUSH1 0x40 CALLDATASIZE PUSH1 0x3 NOT ADD SLT PUSH2 0xB38 JUMPI PUSH2 0x4C0F PUSH2 0x4DA1 JUMP JUMPDEST PUSH1 0x24 CALLDATALOAD SWAP1 PUSH1 0xFF DUP3 AND DUP3 SUB PUSH2 0xB38 JUMPI PUSH2 0x4C25 PUSH2 0x5118 JUMP JUMPDEST PUSH1 0x1 PUSH1 0x1 PUSH1 0xA0 SHL SUB SWAP1 DUP2 AND SWAP1 DUP2 ISZERO PUSH2 0x4C96 JUMPI PUSH1 0x1 DUP1 SLOAD PUSH1 0x1 PUSH1 0x1 PUSH1 0xA0 SHL SUB NOT DUP2 AND DUP5 OR SWAP1 SWAP2 SSTORE PUSH1 0x2 DUP1 SLOAD PUSH1 0xFF PUSH1 0xA0 SHL NOT AND PUSH1 0xA0 SWAP6 SWAP1 SWAP6 SHL PUSH1 0xFF PUSH1 0xA0 SHL AND SWAP5 SWAP1 SWAP5 OR SWAP1 SWAP4 SSTORE PUSH2 0x220 MLOAD SWAP3 AND PUSH32 0x5EFDFEDF5AEF119C431263F0656093045DFFDF44B3D8F1B0F158DC295C3A0F8E DUP4 DUP1 LOG3 DUP1 RETURN JUMPDEST PUSH1 0x40 MLOAD PUSH3 0x461BCD PUSH1 0xE5 SHL DUP2 MSTORE PUSH1 0x20 PUSH1 0x4 DUP3 ADD MSTORE PUSH1 0x2 PUSH1 0x24 DUP3 ADD MSTORE PUSH2 0x1255 PUSH1 0xF2 SHL PUSH1 0x44 DUP3 ADD MSTORE PUSH1 0x64 SWAP1 REVERT JUMPDEST CALLVALUE PUSH2 0x4C8 JUMPI PUSH2 0x4CD7 PUSH2 0x4CD1 CALLDATASIZE PUSH2 0x4DBC JUMP JUMPDEST SWAP2 PUSH2 0x5E94 JUMP JUMPDEST SWAP5 SWAP2 SWAP1 SWAP3 PUSH1 0x40 MLOAD SWAP5 PUSH1 0xC0 DUP7 ADD SWAP1 PUSH1 0xC0 DUP8 MSTORE DUP5 MLOAD DUP1 SWAP3 MSTORE PUSH1 0xE0 DUP8 ADD SWAP2 PUSH1 0x20 DUP1 SWAP7 ADD SWAP1 PUSH2 0x220 MLOAD JUMPDEST DUP2 DUP2 LT PUSH2 0x4D80 JUMPI POP POP POP SWAP2 PUSH2 0x4D20 DUP3 PUSH2 0x4D3C SWAP6 SWAP5 DUP10 PUSH2 0x4D2E SWAP6 SUB DUP9 DUP12 ADD MSTORE PUSH2 0x4DE6 JUMP JUMPDEST SWAP1 DUP8 DUP3 SUB PUSH1 0x40 DUP10 ADD MSTORE PUSH2 0x4DE6 JUMP JUMPDEST SWAP1 DUP6 DUP3 SUB PUSH1 0x60 DUP8 ADD MSTORE PUSH2 0x4E1A JUMP JUMPDEST DUP4 DUP2 SUB PUSH1 0x80 DUP6 ADD MSTORE DUP2 DUP1 DUP5 MLOAD SWAP3 DUP4 DUP2 MSTORE ADD SWAP4 ADD SWAP2 PUSH2 0x220 MLOAD JUMPDEST DUP3 DUP2 LT PUSH2 0x4D69 JUMPI DUP6 DUP1 DUP7 DUP10 PUSH1 0xA0 DUP4 ADD MSTORE SUB SWAP1 RETURN JUMPDEST DUP4 MLOAD PUSH1 0xFF AND DUP6 MSTORE SWAP4 DUP2 ADD SWAP4 SWAP3 DUP2 ADD SWAP3 PUSH1 0x1 ADD PUSH2 0x4D55 JUMP JUMPDEST SWAP1 SWAP2 SWAP4 DUP5 MLOAD SWAP1 PUSH1 0xD DUP3 LT ISZERO PUSH2 0x1077 JUMPI SWAP1 DUP2 MSTORE DUP8 ADD SWAP4 DUP8 ADD SWAP2 SWAP1 PUSH1 0x1 ADD PUSH2 0x4CFD JUMP JUMPDEST PUSH1 0x4 CALLDATALOAD SWAP1 PUSH1 0x1 PUSH1 0x1 PUSH1 0xA0 SHL SUB DUP3 AND DUP3 SUB PUSH2 0x4DB7 JUMPI JUMP JUMPDEST PUSH1 0x0 DUP1 REVERT JUMPDEST PUSH1 0x60 SWAP1 PUSH1 0x3 NOT ADD SLT PUSH2 0x4DB7 JUMPI PUSH1 0x4 CALLDATALOAD PUSH1 0x1 PUSH1 0x1 PUSH1 0xA0 SHL SUB DUP2 AND DUP2 SUB PUSH2 0x4DB7 JUMPI SWAP1 PUSH1 0x24 CALLDATALOAD SWAP1 PUSH1 0x44 CALLDATALOAD SWAP1 JUMP JUMPDEST SWAP1 DUP2 MLOAD DUP1 DUP3 MSTORE PUSH1 0x20 DUP1 DUP1 SWAP4 ADD SWAP4 ADD SWAP2 PUSH1 0x0 JUMPDEST DUP3 DUP2 LT PUSH2 0x4E06 JUMPI POP POP POP POP SWAP1 JUMP JUMPDEST DUP4 MLOAD DUP6 MSTORE SWAP4 DUP2 ADD SWAP4 SWAP3 DUP2 ADD SWAP3 PUSH1 0x1 ADD PUSH2 0x4DF8 JUMP JUMPDEST SWAP1 DUP2 MLOAD DUP1 DUP3 MSTORE PUSH1 0x20 DUP1 DUP1 SWAP4 ADD SWAP4 ADD SWAP2 PUSH1 0x0 JUMPDEST DUP3 DUP2 LT PUSH2 0x4E3A JUMPI POP POP POP POP SWAP1 JUMP JUMPDEST DUP4 MLOAD PUSH1 0x1 PUSH1 0x1 PUSH1 0xA0 SHL SUB AND DUP6 MSTORE SWAP4 DUP2 ADD SWAP4 SWAP3 DUP2 ADD SWAP3 PUSH1 0x1 ADD PUSH2 0x4E2C JUMP JUMPDEST PUSH1 0xB SLOAD DUP2 LT ISZERO PUSH2 0x4E72 JUMPI PUSH1 0xB PUSH1 0x0 MSTORE PUSH1 0x20 PUSH1 0x0 KECCAK256 ADD SWAP1 PUSH1 0x0 SWAP1 JUMP JUMPDEST PUSH4 0x4E487B71 PUSH1 0xE0 SHL PUSH1 0x0 MSTORE PUSH1 0x32 PUSH1 0x4 MSTORE PUSH1 0x24 PUSH1 0x0 REVERT JUMPDEST DUP1 SLOAD DUP3 LT ISZERO PUSH2 0x4E72 JUMPI PUSH1 0x0 MSTORE PUSH1 0x20 PUSH1 0x0 KECCAK256 ADD SWAP1 PUSH1 0x0 SWAP1 JUMP JUMPDEST PUSH1 0x4 DUP3 LT ISZERO PUSH2 0x4E72 JUMPI ADD SWAP1 PUSH1 0x0 SWAP1 JUMP JUMPDEST SWAP2 SWAP1 DUP3 MLOAD SWAP3 DUP4 DUP3 MSTORE PUSH1 0x0 JUMPDEST DUP5 DUP2 LT PUSH2 0x4EDC JUMPI POP POP DUP3 PUSH1 0x0 PUSH1 0x20 DUP1 SWAP5 SWAP6 DUP5 ADD ADD MSTORE PUSH1 0x1F DUP1 NOT SWAP2 ADD AND ADD ADD SWAP1 JUMP JUMPDEST PUSH1 0x20 DUP2 DUP4 ADD DUP2 ADD MLOAD DUP5 DUP4 ADD DUP3 ADD MSTORE ADD PUSH2 0x4EBB JUMP JUMPDEST PUSH1 0x40 SWAP1 PUSH1 0x3 NOT ADD SLT PUSH2 0x4DB7 JUMPI PUSH1 0x4 CALLDATALOAD PUSH1 0x7 DUP2 LT ISZERO PUSH2 0x4DB7 JUMPI SWAP1 PUSH1 0x24 CALLDATALOAD SWAP1 JUMP JUMPDEST PUSH1 0x0 SWAP2 JUMPDEST PUSH1 0x4 DUP4 LT PUSH2 0x4F20 JUMPI POP POP POP JUMP JUMPDEST PUSH1 0x1 SWAP1 DUP3 MLOAD DUP2 MSTORE PUSH1 0x20 DUP1 SWAP2 ADD SWAP3 ADD SWAP3 ADD SWAP2 SWAP1 PUSH2 0x4F13 JUMP JUMPDEST SWAP2 DUP2 PUSH1 0x1F DUP5 ADD SLT ISZERO PUSH2 0x4DB7 JUMPI DUP3 CALLDATALOAD SWAP2 PUSH1 0x1 PUSH1 0x1 PUSH1 0x40 SHL SUB DUP4 GT PUSH2 0x4DB7 JUMPI PUSH1 0x20 DUP4 DUP2 DUP7 ADD SWAP6 ADD ADD GT PUSH2 0x4DB7 JUMPI JUMP JUMPDEST PUSH1 0x3 GT ISZERO PUSH2 0x4F6E JUMPI JUMP JUMPDEST PUSH4 0x4E487B71 PUSH1 0xE0 SHL PUSH1 0x0 MSTORE PUSH1 0x21 PUSH1 0x4 MSTORE PUSH1 0x24 PUSH1 0x0 REVERT JUMPDEST SWAP1 PUSH1 0x7 DUP3 LT ISZERO PUSH2 0x4F6E JUMPI MSTORE JUMP JUMPDEST CALLVALUE PUSH2 0x4DB7 JUMPI PUSH1 0x0 CALLDATASIZE PUSH1 0x3 NOT ADD SLT PUSH2 0x4DB7 JUMPI PUSH1 0x20 PUSH1 0x40 MLOAD PUSH2 0x3E8 DUP2 MSTORE RETURN JUMPDEST SWAP1 PUSH1 0x1 DUP3 DUP2 SHR SWAP3 AND DUP1 ISZERO PUSH2 0x4FDE JUMPI JUMPDEST PUSH1 0x20 DUP4 LT EQ PUSH2 0x4FC8 JUMPI JUMP JUMPDEST PUSH4 0x4E487B71 PUSH1 0xE0 SHL PUSH1 0x0 MSTORE PUSH1 0x22 PUSH1 0x4 MSTORE PUSH1 0x24 PUSH1 0x0 REVERT JUMPDEST SWAP2 PUSH1 0x7F AND SWAP2 PUSH2 0x4FBD JUMP JUMPDEST PUSH1 0xA0 DUP2 ADD SWAP1 DUP2 LT PUSH1 0x1 PUSH1 0x1 PUSH1 0x40 SHL SUB DUP3 GT OR PUSH2 0x5003 JUMPI PUSH1 0x40 MSTORE JUMP JUMPDEST PUSH4 0x4E487B71 PUSH1 0xE0 SHL PUSH1 0x0 MSTORE PUSH1 0x41 PUSH1 0x4 MSTORE PUSH1 0x24 PUSH1 0x0 REVERT JUMPDEST PUSH1 0x80 DUP2 ADD SWAP1 DUP2 LT PUSH1 0x1 PUSH1 0x1 PUSH1 0x40 SHL SUB DUP3 GT OR PUSH2 0x5003 JUMPI PUSH1 0x40 MSTORE JUMP JUMPDEST PUSH1 0x20 DUP2 ADD SWAP1 DUP2 LT PUSH1 0x1 PUSH1 0x1 PUSH1 0x40 SHL SUB DUP3 GT OR PUSH2 0x5003 JUMPI PUSH1 0x40 MSTORE JUMP JUMPDEST PUSH1 0x1F SWAP1 SWAP2 ADD PUSH1 0x1F NOT AND DUP2 ADD SWAP1 PUSH1 0x1 PUSH1 0x1 PUSH1 0x40 SHL SUB DUP3 GT SWAP1 DUP3 LT OR PUSH2 0x5003 JUMPI PUSH1 0x40 MSTORE JUMP JUMPDEST SWAP1 PUSH1 0x40 MLOAD SWAP2 DUP3 PUSH1 0x0 DUP3 SLOAD SWAP3 PUSH2 0x5086 DUP5 PUSH2 0x4FAE JUMP JUMPDEST SWAP1 DUP2 DUP5 MSTORE PUSH1 0x1 SWAP5 DUP6 DUP2 AND SWAP1 DUP2 PUSH1 0x0 EQ PUSH2 0x50F5 JUMPI POP PUSH1 0x1 EQ PUSH2 0x50B2 JUMPI JUMPDEST POP POP PUSH2 0x50B0 SWAP3 POP SUB DUP4 PUSH2 0x504F JUMP JUMPDEST JUMP JUMPDEST SWAP1 SWAP4 SWAP2 POP PUSH1 0x0 MSTORE PUSH1 0x20 SWAP1 DUP2 PUSH1 0x0 KECCAK256 SWAP4 PUSH1 0x0 SWAP2 JUMPDEST DUP2 DUP4 LT PUSH2 0x50DD JUMPI POP POP PUSH2 0x50B0 SWAP4 POP DUP3 ADD ADD CODESIZE DUP1 PUSH2 0x50A2 JUMP JUMPDEST DUP6 SLOAD DUP9 DUP5 ADD DUP6 ADD MSTORE SWAP5 DUP6 ADD SWAP5 DUP8 SWAP5 POP SWAP2 DUP4 ADD SWAP2 PUSH2 0x50C5 JUMP JUMPDEST SWAP2 POP POP PUSH2 0x50B0 SWAP5 POP PUSH1 0x20 SWAP3 POP PUSH1 0xFF NOT AND DUP3 DUP5 ADD MSTORE ISZERO ISZERO PUSH1 0x5 SHL DUP3 ADD ADD CODESIZE DUP1 PUSH2 0x50A2 JUMP JUMPDEST PUSH1 0x0 SLOAD PUSH1 0x1 PUSH1 0x1 PUSH1 0xA0 SHL SUB AND CALLER SUB PUSH2 0x512C JUMPI JUMP JUMPDEST PUSH1 0x40 MLOAD PUSH4 0x118CDAA7 PUSH1 0xE0 SHL DUP2 MSTORE CALLER PUSH1 0x4 DUP3 ADD MSTORE PUSH1 0x24 SWAP1 REVERT JUMPDEST ISZERO PUSH2 0x514B JUMPI JUMP JUMPDEST PUSH1 0x40 MLOAD PUSH3 0x461BCD PUSH1 0xE5 SHL DUP2 MSTORE PUSH1 0x20 PUSH1 0x4 DUP3 ADD MSTORE PUSH1 0x2 PUSH1 0x24 DUP3 ADD MSTORE PUSH2 0x20A9 PUSH1 0xF1 SHL PUSH1 0x44 DUP3 ADD MSTORE PUSH1 0x64 SWAP1 REVERT JUMPDEST ISZERO PUSH2 0x517C JUMPI JUMP JUMPDEST PUSH1 0x40 MLOAD PUSH3 0x461BCD PUSH1 0xE5 SHL DUP2 MSTORE PUSH1 0x20 PUSH1 0x4 DUP3 ADD MSTORE PUSH1 0x2 PUSH1 0x24 DUP3 ADD MSTORE PUSH2 0x4953 PUSH1 0xF0 SHL PUSH1 0x44 DUP3 ADD MSTORE PUSH1 0x64 SWAP1 REVERT JUMPDEST ISZERO PUSH2 0x51AD JUMPI JUMP JUMPDEST PUSH1 0x40 MLOAD PUSH3 0x461BCD PUSH1 0xE5 SHL DUP2 MSTORE PUSH1 0x20 PUSH1 0x4 DUP3 ADD MSTORE PUSH1 0x2 PUSH1 0x24 DUP3 ADD MSTORE PUSH2 0x24A1 PUSH1 0xF1 SHL PUSH1 0x44 DUP3 ADD MSTORE PUSH1 0x64 SWAP1 REVERT JUMPDEST SWAP1 PUSH2 0x51E1 DUP2 PUSH2 0x4F64 JUMP JUMPDEST DUP2 SLOAD PUSH1 0xFF PUSH1 0xA0 SHL NOT AND PUSH1 0xA0 SWAP2 SWAP1 SWAP2 SHL PUSH1 0xFF PUSH1 0xA0 SHL AND OR SWAP1 SSTORE JUMP JUMPDEST SWAP2 SWAP1 DUP3 ADD DUP1 SWAP3 GT PUSH2 0x5208 JUMPI JUMP JUMPDEST PUSH4 0x4E487B71 PUSH1 0xE0 SHL PUSH1 0x0 MSTORE PUSH1 0x11 PUSH1 0x4 MSTORE PUSH1 0x24 PUSH1 0x0 REVERT JUMPDEST PUSH1 0xB SLOAD PUSH1 0x1 PUSH1 0x40 SHL DUP2 LT ISZERO PUSH2 0x5003 JUMPI DUP1 PUSH1 0x1 PUSH2 0x523D SWAP3 ADD PUSH1 0xB SSTORE PUSH2 0x4E57 JUMP JUMPDEST DUP2 SWAP3 SWAP2 SLOAD SWAP1 PUSH1 0x3 SHL SWAP2 PUSH1 0x1 DUP1 PUSH1 0xA0 SHL SUB DUP1 SWAP2 AND DUP4 SHL SWAP3 SHL NOT AND OR SWAP1 SSTORE JUMP JUMPDEST DUP1 SLOAD PUSH1 0x1 PUSH1 0x40 SHL DUP2 LT ISZERO PUSH2 0x5003 JUMPI PUSH2 0x523D SWAP2 PUSH1 0x1 DUP3 ADD DUP2 SSTORE PUSH2 0x4E88 JUMP JUMPDEST PUSH1 0x0 NOT DUP2 EQ PUSH2 0x5208 JUMPI PUSH1 0x1 ADD SWAP1 JUMP JUMPDEST PUSH1 0xFF PUSH1 0x0 SLOAD PUSH1 0xA0 SHR AND PUSH2 0x5296 JUMPI JUMP JUMPDEST PUSH1 0x40 MLOAD PUSH4 0xD93C0665 PUSH1 0xE0 SHL DUP2 MSTORE PUSH1 0x4 SWAP1 REVERT JUMPDEST SWAP2 SWAP1 DUP3 SUB SWAP2 DUP3 GT PUSH2 0x5208 JUMPI JUMP JUMPDEST PUSH1 0x0 DUP1 PUSH1 0x60 CALLER DUP2 SHL PUSH1 0x1 DUP1 DUP1 JUMPDEST PUSH2 0x52CF JUMPI JUMPDEST POP POP POP POP POP SWAP1 JUMP JUMPDEST SWAP5 SWAP1 SWAP2 SWAP3 SWAP4 SWAP5 ISZERO PUSH2 0x53BA JUMPI JUMPDEST POP PUSH1 0x0 PUSH1 0x11 SWAP2 PUSH2 0x52EB DUP4 SLOAD PUSH2 0x5278 JUMP JUMPDEST SWAP3 DUP4 DUP2 SSTORE PUSH1 0xB SLOAD SWAP1 PUSH1 0x40 SWAP5 DUP6 MLOAD PUSH1 0x20 SWAP4 DUP5 DUP3 ADD SWAP3 TIMESTAMP DUP5 MSTORE PREVRANDAO DUP10 DUP5 ADD MSTORE DUP10 DUP12 DUP5 ADD MSTORE PUSH1 0x74 DUP4 ADD MSTORE PUSH1 0x94 SWAP1 DUP2 DUP4 ADD MSTORE DUP2 MSTORE PUSH1 0xC0 DUP2 ADD DUP2 DUP2 LT PUSH1 0x1 DUP1 PUSH1 0x40 SHL SUB DUP3 GT OR PUSH2 0x53A6 JUMPI SWAP1 PUSH5 0xE8D4A50C18 SWAP3 SWAP2 DUP9 MSTORE MLOAD SWAP1 KECCAK256 MOD SWAP1 PUSH2 0x3E8 DUP3 ADD DUP1 SWAP3 GT PUSH2 0x5394 JUMPI POP PUSH2 0x5356 SWAP1 SWAP8 PUSH2 0x5278 JUMP JUMPDEST SWAP4 PUSH1 0x32 DUP6 GT PUSH2 0x536C JUMPI POP POP SWAP1 DUP2 SWAP5 SWAP4 SWAP3 SWAP5 PUSH2 0x52C2 JUMP JUMPDEST PUSH1 0x64 SWAP3 POP MLOAD SWAP1 PUSH3 0x461BCD PUSH1 0xE5 SHL DUP3 MSTORE PUSH1 0x4 DUP3 ADD MSTORE PUSH1 0x2 PUSH1 0x24 DUP3 ADD MSTORE PUSH2 0x4947 PUSH1 0xF0 SHL PUSH1 0x44 DUP3 ADD MSTORE REVERT JUMPDEST PUSH4 0x4E487B71 PUSH1 0xE0 SHL DUP6 MSTORE PUSH1 0x4 MSTORE PUSH1 0x24 DUP5 REVERT JUMPDEST PUSH4 0x4E487B71 PUSH1 0xE0 SHL DUP8 MSTORE PUSH1 0x41 PUSH1 0x4 MSTORE PUSH1 0x24 DUP8 REVERT JUMPDEST DUP1 PUSH1 0x0 MSTORE PUSH1 0x10 PUSH1 0x20 MSTORE PUSH1 0xFF PUSH1 0x40 PUSH1 0x0 KECCAK256 SLOAD AND PUSH2 0x52DB JUMPI SWAP4 DUP1 PUSH2 0x52C7 JUMP JUMPDEST JUMPDEST PUSH1 0x1 PUSH1 0x1 PUSH1 0xA0 SHL SUB DUP2 DUP2 AND PUSH1 0x0 SWAP1 DUP2 MSTORE PUSH1 0x7 PUSH1 0x20 MSTORE PUSH1 0x40 SWAP1 KECCAK256 PUSH1 0x4 ADD SLOAD AND SWAP1 DUP2 ISZERO PUSH2 0x5403 JUMPI POP PUSH2 0x53D8 JUMP JUMPDEST SWAP1 POP SWAP1 JUMP JUMPDEST JUMPDEST PUSH1 0x1 PUSH1 0x1 PUSH1 0xA0 SHL SUB DUP2 DUP2 AND PUSH1 0x0 SWAP1 DUP2 MSTORE PUSH1 0x7 PUSH1 0x20 MSTORE PUSH1 0x40 SWAP1 KECCAK256 PUSH1 0x3 ADD SLOAD AND SWAP1 DUP2 ISZERO PUSH2 0x5403 JUMPI POP PUSH2 0x5409 JUMP JUMPDEST ISZERO PUSH2 0x543B JUMPI JUMP JUMPDEST PUSH1 0x40 MLOAD PUSH3 0x461BCD PUSH1 0xE5 SHL DUP2 MSTORE PUSH1 0x20 PUSH1 0x4 DUP3 ADD MSTORE PUSH1 0x2 PUSH1 0x24 DUP3 ADD MSTORE PUSH2 0x2729 PUSH1 0xF1 SHL PUSH1 0x44 DUP3 ADD MSTORE PUSH1 0x64 SWAP1 REVERT JUMPDEST ISZERO PUSH2 0x546C JUMPI JUMP JUMPDEST PUSH1 0x40 MLOAD PUSH3 0x461BCD PUSH1 0xE5 SHL DUP2 MSTORE PUSH1 0x20 PUSH1 0x4 DUP3 ADD MSTORE PUSH1 0x2 PUSH1 0x24 DUP3 ADD MSTORE PUSH2 0x495 PUSH1 0xF4 SHL PUSH1 0x44 DUP3 ADD MSTORE PUSH1 0x64 SWAP1 REVERT JUMPDEST SWAP1 PUSH1 0x7 DUP2 LT ISZERO PUSH2 0x4F6E JUMPI DUP2 SLOAD PUSH1 0xFF PUSH1 0xA8 SHL NOT AND PUSH1 0xA8 SWAP2 SWAP1 SWAP2 SHL PUSH1 0xFF PUSH1 0xA8 SHL AND OR SWAP1 SSTORE JUMP JUMPDEST DUP1 SLOAD DUP3 LT ISZERO PUSH2 0x4E72 JUMPI PUSH1 0x0 MSTORE PUSH1 0x20 PUSH1 0x0 KECCAK256 SWAP1 PUSH1 0x2 SHL ADD SWAP1 PUSH1 0x0 SWAP1 JUMP JUMPDEST DUP1 SLOAD PUSH1 0x1 PUSH1 0x40 SHL DUP2 LT ISZERO PUSH2 0x5003 JUMPI PUSH2 0x54F3 SWAP2 PUSH1 0x1 DUP3 ADD DUP2 SSTORE PUSH2 0x54BA JUMP JUMPDEST PUSH2 0x5556 JUMPI DUP2 MLOAD SWAP1 PUSH1 0xD DUP3 LT ISZERO PUSH2 0x4F6E JUMPI PUSH1 0x3 SWAP2 PUSH1 0xFF DUP1 NOT DUP4 SLOAD AND SWAP2 AND OR DUP2 SSTORE PUSH1 0x20 DUP4 ADD MLOAD PUSH1 0x1 DUP3 ADD SSTORE PUSH1 0x40 DUP4 ADD MLOAD PUSH1 0x2 DUP3 ADD SSTORE ADD SWAP1 PUSH1 0x1 DUP1 PUSH1 0xA0 SHL SUB PUSH1 0x60 DUP3 ADD MLOAD AND DUP3 SLOAD SWAP2 PUSH1 0x80 PUSH1 0xFF PUSH1 0xA0 SHL SWAP2 ADD MLOAD PUSH1 0xA0 SHL AND SWAP2 PUSH1 0x1 DUP1 PUSH1 0xA8 SHL SUB NOT AND OR OR SWAP1 SSTORE JUMP JUMPDEST PUSH4 0x4E487B71 PUSH1 0xE0 SHL PUSH1 0x0 MSTORE PUSH1 0x0 PUSH1 0x4 MSTORE PUSH1 0x24 PUSH1 0x0 REVERT JUMPDEST DUP2 DUP2 MUL SWAP3 SWAP2 DUP2 ISZERO SWAP2 DUP5 DIV EQ OR ISZERO PUSH2 0x5208 JUMPI JUMP JUMPDEST PUSH1 0x40 MLOAD PUSH4 0xA9059CBB PUSH1 0xE0 SHL PUSH1 0x0 SWAP1 DUP2 MSTORE PUSH1 0x1 PUSH1 0x1 PUSH1 0xA0 SHL SUB SWAP4 DUP5 AND PUSH1 0x4 MSTORE PUSH1 0x24 SWAP5 SWAP1 SWAP5 MSTORE SWAP3 PUSH1 0x20 SWAP1 PUSH1 0x44 DUP2 DUP1 DUP6 GAS CALL PUSH1 0x1 PUSH1 0x0 MLOAD EQ DUP2 AND ISZERO PUSH2 0x55E0 JUMPI JUMPDEST DUP4 PUSH1 0x40 MSTORE ISZERO PUSH2 0x55CA JUMPI POP POP POP JUMP JUMPDEST PUSH4 0x5274AFE7 PUSH1 0xE0 SHL DUP4 MSTORE AND PUSH1 0x4 DUP3 ADD MSTORE PUSH1 0x24 SWAP2 POP REVERT JUMPDEST PUSH1 0x1 DUP2 ISZERO AND PUSH2 0x55F6 JUMPI DUP2 EXTCODESIZE ISZERO ISZERO RETURNDATASIZE ISZERO AND AND PUSH2 0x55BC JUMP JUMPDEST DUP4 RETURNDATASIZE PUSH1 0x0 DUP3 RETURNDATACOPY RETURNDATASIZE SWAP1 REVERT JUMPDEST PUSH1 0x40 MLOAD PUSH4 0x23B872DD PUSH1 0xE0 SHL PUSH1 0x0 SWAP1 DUP2 MSTORE PUSH1 0x1 PUSH1 0x1 PUSH1 0xA0 SHL SUB SWAP4 DUP5 AND PUSH1 0x4 MSTORE SWAP4 DUP4 AND PUSH1 0x24 MSTORE PUSH1 0x44 SWAP5 SWAP1 SWAP5 MSTORE SWAP1 SWAP2 PUSH1 0x20 SWAP1 PUSH1 0x64 DUP2 DUP1 DUP6 GAS CALL PUSH1 0x1 PUSH1 0x0 MLOAD EQ DUP2 AND ISZERO PUSH2 0x5657 JUMPI JUMPDEST DUP4 PUSH1 0x40 MSTORE PUSH1 0x0 PUSH1 0x60 MSTORE ISZERO PUSH2 0x55CA JUMPI POP POP POP JUMP JUMPDEST PUSH1 0x1 DUP2 ISZERO AND PUSH2 0x55F6 JUMPI DUP2 EXTCODESIZE ISZERO ISZERO RETURNDATASIZE ISZERO AND AND PUSH2 0x5644 JUMP JUMPDEST PUSH1 0x0 DUP1 MLOAD PUSH1 0x20 PUSH2 0x6130 DUP4 CODECOPY DUP2 MLOAD SWAP2 MSTORE PUSH1 0x2 DUP2 SLOAD EQ PUSH2 0x568B JUMPI PUSH1 0x2 SWAP1 SSTORE JUMP JUMPDEST PUSH1 0x40 MLOAD PUSH4 0x3EE5AEB5 PUSH1 0xE0 SHL DUP2 MSTORE PUSH1 0x4 SWAP1 REVERT JUMPDEST PUSH1 0x1 PUSH1 0x1 PUSH1 0xA0 SHL SUB SWAP1 DUP2 AND PUSH1 0x0 DUP2 DUP2 MSTORE PUSH1 0x7 PUSH1 0x20 MSTORE PUSH1 0x40 DUP1 DUP3 KECCAK256 PUSH1 0x1 ADD SLOAD SWAP3 SWAP5 SWAP3 SWAP1 SWAP4 AND SWAP3 DUP4 ISZERO PUSH2 0x57C1 JUMPI DUP4 DUP3 MSTORE DUP1 DUP3 KECCAK256 SWAP3 PUSH1 0x4 DUP5 ADD SLOAD PUSH1 0xFF DUP2 PUSH1 0xB0 SHR AND PUSH2 0x56E4 DUP2 PUSH2 0x4F64 JUMP JUMPDEST PUSH1 0x1 DUP2 EQ ISZERO SWAP1 DUP2 PUSH2 0x57AC JUMPI JUMPDEST POP PUSH2 0x57A3 JUMPI PUSH1 0xA8 SHR PUSH1 0xFF AND PUSH1 0x7 DUP2 LT ISZERO PUSH2 0x56B JUMPI PUSH2 0x2710 SWAP2 PUSH2 0x5716 SWAP2 PUSH1 0x1F ADD SLOAD SWAP1 PUSH2 0x556C JUMP JUMPDEST DIV SWAP1 DUP2 ISZERO PUSH2 0x579B JUMPI PUSH2 0x5794 PUSH1 0x20 SWAP4 PUSH1 0x7 PUSH32 0x86583C8BE3288EC633D5A10AFA75407D4C785BFF5EDD40840C42E48D0EFDCFBB SWAP7 PUSH2 0x5752 DUP7 DUP11 PUSH2 0x5BD5 JUMP JUMPDEST ADD PUSH2 0x575E DUP6 DUP3 SLOAD PUSH2 0x51FB JUMP JUMPDEST SWAP1 SSTORE DUP7 DUP2 MSTORE PUSH1 0xC DUP6 MSTORE DUP3 DUP2 KECCAK256 DUP4 MLOAD SWAP2 PUSH2 0x5776 DUP4 PUSH2 0x4FE8 JUMP JUMPDEST PUSH1 0x4 DUP4 MSTORE DUP6 DUP8 DUP5 ADD MSTORE TIMESTAMP DUP6 DUP5 ADD MSTORE DUP10 PUSH1 0x60 DUP5 ADD MSTORE PUSH1 0x80 DUP4 ADD MSTORE PUSH2 0x54D6 JUMP JUMPDEST MLOAD SWAP1 DUP2 MSTORE LOG3 JUMP JUMPDEST POP POP POP POP POP POP JUMP JUMPDEST POP POP POP POP POP POP POP JUMP JUMPDEST PUSH1 0x2 SWAP2 POP PUSH2 0x57B9 DUP2 PUSH2 0x4F64 JUMP JUMPDEST EQ ISZERO CODESIZE PUSH2 0x56F0 JUMP JUMPDEST POP POP POP POP POP JUMP JUMPDEST SWAP2 SWAP1 PUSH1 0x0 JUMPDEST PUSH1 0x1 DUP1 PUSH1 0xA0 SHL SUB DUP1 SWAP5 AND SWAP4 DUP5 PUSH1 0x0 MSTORE PUSH1 0x7 SWAP1 PUSH1 0x20 SWAP1 DUP3 DUP3 MSTORE PUSH1 0x2 SWAP2 PUSH1 0x40 SWAP2 DUP4 DUP4 PUSH1 0x0 KECCAK256 ADD SLOAD AND SWAP5 DUP6 ISZERO PUSH2 0x5A0E JUMPI PUSH2 0x5803 SWAP1 PUSH2 0x5278 JUMP JUMPDEST SWAP8 PUSH1 0x14 SWAP1 DUP2 DUP11 GT PUSH2 0x5A02 JUMPI DUP7 PUSH1 0x0 MSTORE DUP6 DUP4 MSTORE PUSH1 0xFF PUSH1 0x4 DUP1 DUP7 PUSH1 0x0 KECCAK256 ADD SLOAD SWAP3 DUP3 PUSH1 0xB0 SWAP5 DUP6 SHR AND SWAP4 PUSH2 0x5832 DUP6 PUSH2 0x4F64 JUMP JUMPDEST DUP9 DUP5 PUSH1 0x1 DUP1 SWAP8 EQ SWAP3 DUP4 ISZERO PUSH2 0x59DB JUMPI JUMPDEST POP POP POP PUSH2 0x5858 JUMPI JUMPDEST POP POP POP POP POP POP POP POP POP SWAP3 PUSH2 0x57CD JUMP JUMPDEST PUSH1 0x0 MSTORE DUP8 DUP6 MSTORE DUP6 PUSH1 0x0 KECCAK256 ADD SLOAD PUSH1 0xA0 SHR AND SWAP1 PUSH2 0x5872 DUP3 PUSH2 0x4F64 JUMP JUMPDEST DUP2 EQ SWAP5 PUSH1 0x0 DUP7 ISZERO PUSH2 0x59D6 JUMPI POP DUP9 JUMPDEST DUP9 PUSH1 0x0 MSTORE DUP8 DUP6 MSTORE PUSH2 0x5899 PUSH1 0xC DUP8 PUSH1 0x0 KECCAK256 ADD SWAP2 DUP3 SLOAD PUSH2 0x51FB JUMP JUMPDEST SWAP1 SSTORE PUSH2 0x58A4 DUP3 PUSH2 0x4F64 JUMP JUMPDEST DUP2 EQ SWAP1 PUSH1 0x0 DUP3 ISZERO PUSH2 0x59D1 JUMPI POP DUP9 JUMPDEST DUP9 PUSH1 0x0 MSTORE DUP8 DUP6 MSTORE PUSH2 0x58CB PUSH1 0xD DUP8 PUSH1 0x0 KECCAK256 ADD SWAP2 DUP3 SLOAD PUSH2 0x51FB JUMP JUMPDEST SWAP1 SSTORE PUSH2 0x58D6 DUP2 PUSH2 0x4F64 JUMP JUMPDEST PUSH1 0x0 DUP7 ISZERO PUSH2 0x59CC JUMPI POP DUP9 JUMPDEST DUP9 PUSH1 0x0 MSTORE DUP8 DUP6 MSTORE PUSH2 0x58FA PUSH1 0xE DUP8 PUSH1 0x0 KECCAK256 ADD SWAP2 DUP3 SLOAD PUSH2 0x51FB JUMP JUMPDEST SWAP1 SSTORE PUSH2 0x5905 DUP2 PUSH2 0x4F64 JUMP JUMPDEST PUSH1 0x0 DUP3 ISZERO PUSH2 0x59C7 JUMPI POP DUP9 JUMPDEST DUP9 PUSH1 0x0 MSTORE DUP8 DUP6 MSTORE PUSH2 0x5929 PUSH1 0xF DUP8 PUSH1 0x0 KECCAK256 ADD SWAP2 DUP3 SLOAD PUSH2 0x51FB JUMP JUMPDEST SWAP1 SSTORE PUSH2 0x5934 DUP12 PUSH2 0x5A19 JUMP JUMPDEST SWAP7 SWAP1 SWAP7 PUSH2 0x5942 JUMPI JUMPDEST DUP1 PUSH2 0x5849 JUMP JUMPDEST PUSH2 0x594B DUP3 PUSH2 0x4F64 JUMP JUMPDEST ISZERO PUSH2 0x598A JUMPI POP POP POP PUSH2 0x596D SWAP3 SWAP2 PUSH2 0x597D SWAP5 PUSH1 0x10 SWAP3 DUP8 PUSH1 0x0 MSTORE MSTORE PUSH1 0x0 KECCAK256 ADD PUSH2 0x4EA0 JUMP JUMPDEST PUSH2 0x3179 DUP6 DUP4 SLOAD DUP4 PUSH1 0x3 SHL SHR PUSH2 0x51FB JUMP JUMPDEST CODESIZE DUP1 DUP1 DUP1 DUP1 DUP1 DUP1 DUP1 PUSH2 0x593C JUMP JUMPDEST PUSH2 0x5998 SWAP1 SWAP6 SWAP5 SWAP3 SWAP4 SWAP6 PUSH2 0x4F64 JUMP JUMPDEST PUSH2 0x59A7 JUMPI JUMPDEST POP POP POP POP POP PUSH2 0x597D JUMP JUMPDEST PUSH2 0x59BD SWAP5 PUSH2 0x596D SWAP5 DUP8 PUSH1 0x0 MSTORE MSTORE PUSH1 0x0 KECCAK256 ADD PUSH2 0x4EA0 JUMP JUMPDEST CODESIZE DUP1 DUP1 DUP1 DUP1 PUSH2 0x599D JUMP JUMPDEST PUSH2 0x5910 JUMP JUMPDEST PUSH2 0x58E1 JUMP JUMPDEST PUSH2 0x58B2 JUMP JUMPDEST PUSH2 0x5880 JUMP JUMPDEST SWAP1 SWAP2 SWAP3 POP DUP13 PUSH1 0x0 MSTORE DUP12 DUP10 MSTORE DUP5 DUP11 PUSH1 0x0 KECCAK256 ADD SLOAD SWAP1 SHR AND PUSH2 0x59F9 DUP2 PUSH2 0x4F64 JUMP JUMPDEST EQ DUP9 DUP5 CODESIZE PUSH2 0x5841 JUMP JUMPDEST POP POP POP POP POP POP POP POP SWAP1 POP JUMP JUMPDEST POP POP POP POP POP POP POP SWAP1 POP JUMP JUMPDEST PUSH1 0x1 SWAP1 DUP2 DUP2 LT ISZERO DUP1 PUSH2 0x5A9B JUMPI JUMPDEST PUSH2 0x5A95 JUMPI PUSH1 0x4 DUP2 LT ISZERO DUP1 PUSH2 0x5A8A JUMPI JUMPDEST PUSH2 0x5A84 JUMPI PUSH1 0x7 DUP2 LT ISZERO DUP1 PUSH2 0x5A79 JUMPI JUMPDEST PUSH2 0x5A73 JUMPI PUSH1 0xA DUP2 LT ISZERO SWAP1 DUP2 PUSH2 0x5A67 JUMPI JUMPDEST POP PUSH2 0x5A62 JUMPI POP PUSH1 0x0 SWAP1 PUSH1 0x0 SWAP1 JUMP JUMPDEST PUSH1 0x3 SWAP2 JUMP JUMPDEST PUSH1 0x14 SWAP2 POP GT ISZERO CODESIZE PUSH2 0x5A54 JUMP JUMPDEST POP PUSH1 0x2 SWAP2 JUMP JUMPDEST POP PUSH1 0x9 DUP2 GT ISZERO PUSH2 0x5A44 JUMP JUMPDEST POP SWAP1 DUP2 SWAP1 JUMP JUMPDEST POP PUSH1 0x6 DUP2 GT ISZERO PUSH2 0x5A35 JUMP JUMPDEST POP PUSH1 0x0 SWAP2 JUMP JUMPDEST POP PUSH1 0x3 DUP2 GT ISZERO PUSH2 0x5A26 JUMP JUMPDEST ISZERO PUSH2 0x5AAD JUMPI JUMP JUMPDEST PUSH1 0x40 MLOAD PUSH3 0x461BCD PUSH1 0xE5 SHL DUP2 MSTORE PUSH1 0x20 PUSH1 0x4 DUP3 ADD MSTORE PUSH1 0x2 PUSH1 0x24 DUP3 ADD MSTORE PUSH2 0x4E41 PUSH1 0xF0 SHL PUSH1 0x44 DUP3 ADD MSTORE PUSH1 0x64 SWAP1 REVERT JUMPDEST ISZERO PUSH2 0x5ADE JUMPI JUMP JUMPDEST PUSH1 0x40 MLOAD PUSH3 0x461BCD PUSH1 0xE5 SHL DUP2 MSTORE PUSH1 0x20 PUSH1 0x4 DUP3 ADD MSTORE PUSH1 0x2 PUSH1 0x24 DUP3 ADD MSTORE PUSH2 0x413 PUSH1 0xF4 SHL PUSH1 0x44 DUP3 ADD MSTORE PUSH1 0x64 SWAP1 REVERT JUMPDEST PUSH1 0x7 DUP2 LT ISZERO PUSH2 0x4F6E JUMPI PUSH1 0x1 DUP2 SUB PUSH2 0x5B2D JUMPI POP PUSH1 0x1 LT ISZERO PUSH2 0x5B28 JUMPI JUMPDEST PUSH1 0x0 SWAP1 JUMP JUMPDEST PUSH1 0x64 SWAP1 JUMP JUMPDEST PUSH1 0x2 DUP2 SUB PUSH2 0x5B43 JUMPI POP PUSH1 0x3 LT ISZERO PUSH2 0x5B28 JUMPI PUSH1 0x0 SWAP1 JUMP JUMPDEST PUSH1 0x3 DUP2 SUB PUSH2 0x5B6C JUMPI POP PUSH1 0x4 DUP2 GT ISZERO PUSH2 0x5B66 JUMPI PUSH1 0x5 EQ PUSH2 0x5B61 JUMPI PUSH1 0x0 SWAP1 JUMP JUMPDEST PUSH1 0x32 SWAP1 JUMP JUMPDEST POP PUSH1 0x64 SWAP1 JUMP JUMPDEST PUSH1 0x4 DUP2 SUB PUSH2 0x5B8B JUMPI POP PUSH1 0x5 DUP2 GT ISZERO PUSH2 0x5B66 JUMPI PUSH1 0x9 LT ISZERO PUSH2 0x5B61 JUMPI PUSH1 0x0 SWAP1 JUMP JUMPDEST PUSH1 0x5 DUP2 SUB PUSH2 0x5BA9 JUMPI POP PUSH1 0x4 DUP2 GT ISZERO PUSH2 0x5B66 JUMPI PUSH1 0xC LT PUSH2 0x5B23 JUMPI PUSH1 0x32 SWAP1 JUMP JUMPDEST PUSH1 0x6 EQ PUSH2 0x5BB7 JUMPI JUMPDEST POP PUSH1 0x0 SWAP1 JUMP JUMPDEST PUSH1 0x5 DUP2 GT ISZERO PUSH2 0x5BCE JUMPI PUSH1 0xF LT ISZERO PUSH2 0x5B61 JUMPI CODESIZE PUSH2 0x5BB1 JUMP JUMPDEST POP PUSH2 0x1F4 SWAP1 JUMP JUMPDEST SWAP1 PUSH1 0x1 DUP1 PUSH1 0xA0 SHL SUB DUP3 AND PUSH1 0x0 MSTORE PUSH1 0x7 PUSH1 0x20 MSTORE PUSH1 0x40 PUSH1 0x0 KECCAK256 DUP2 ISZERO PUSH2 0x5C9E JUMPI PUSH1 0xFF PUSH1 0x4 DUP3 ADD SLOAD PUSH1 0xA8 SHR AND PUSH1 0x7 DUP2 LT ISZERO PUSH2 0x4F6E JUMPI PUSH1 0x2D ADD SLOAD SWAP3 PUSH1 0x0 PUSH1 0xB DUP4 ADD SWAP5 DUP6 SLOAD SWAP1 DUP2 DUP2 GT PUSH2 0x5C8D JUMPI JUMPDEST POP POP DUP1 ISZERO PUSH2 0x5C81 JUMPI DUP1 DUP5 GT PUSH2 0x5C4E JUMPI POP POP SWAP1 PUSH1 0x5 PUSH2 0x5C4A SWAP3 ADD PUSH2 0x5C41 DUP3 DUP3 SLOAD PUSH2 0x51FB JUMP JUMPDEST SWAP1 SSTORE DUP3 SLOAD PUSH2 0x51FB JUMP JUMPDEST SWAP1 SSTORE JUMP JUMPDEST DUP3 SWAP4 PUSH2 0x50B0 SWAP6 PUSH1 0x5 PUSH2 0x5C7B SWAP5 SWAP6 ADD PUSH2 0x5C67 DUP5 DUP3 SLOAD PUSH2 0x51FB JUMP JUMPDEST SWAP1 SSTORE PUSH2 0x5C74 DUP4 DUP3 SLOAD PUSH2 0x51FB JUMP JUMPDEST SWAP1 SSTORE PUSH2 0x52A8 JUMP JUMPDEST SWAP2 PUSH2 0x5CA3 JUMP JUMPDEST POP SWAP1 PUSH2 0x50B0 SWAP4 POP PUSH2 0x5CA3 JUMP JUMPDEST PUSH2 0x5C97 SWAP3 POP PUSH2 0x52A8 JUMP JUMPDEST CODESIZE DUP1 PUSH2 0x5C1D JUMP JUMPDEST POP POP POP JUMP JUMPDEST SWAP1 PUSH1 0xFF PUSH1 0x2 SWAP2 PUSH1 0x4 DUP5 ADD SWAP1 DUP2 SLOAD PUSH1 0x1 DUP5 DUP3 PUSH1 0xB0 SHR AND PUSH2 0x5CC1 DUP2 PUSH2 0x4F64 JUMP JUMPDEST EQ PUSH2 0x5CEF JUMPI JUMPDEST POP POP SLOAD PUSH1 0xB0 SHR AND PUSH2 0x5CD7 DUP2 PUSH2 0x4F64 JUMP JUMPDEST EQ PUSH2 0x5CE0 JUMPI POP POP JUMP JUMPDEST PUSH1 0x6 PUSH2 0x5C4A SWAP2 ADD SWAP2 DUP3 SLOAD PUSH2 0x51FB JUMP JUMPDEST PUSH1 0xB0 DUP5 SWAP1 SHL NOT AND PUSH1 0x1 PUSH1 0xB1 SHL OR DUP3 SSTORE TIMESTAMP PUSH1 0x1B DUP7 ADD DUP2 SWAP1 SSTORE PUSH1 0x40 MLOAD SWAP1 DUP2 MSTORE PUSH1 0x1 PUSH1 0x1 PUSH1 0xA0 SHL SUB SWAP1 SWAP2 AND SWAP1 PUSH32 0x2BB92F1150248E7F78A267B3904EBD95F62A5225D70DCC813FB6906C3A646E98 SWAP1 PUSH1 0x20 SWAP1 LOG2 CODESIZE DUP1 PUSH2 0x5CC7 JUMP JUMPDEST PUSH1 0x40 MLOAD SWAP2 SWAP1 PUSH1 0x0 DUP4 JUMPDEST PUSH1 0x4 DUP3 LT PUSH2 0x5D62 JUMPI POP POP POP PUSH2 0x50B0 DUP3 PUSH2 0x5019 JUMP JUMPDEST PUSH1 0x1 PUSH1 0x20 DUP2 SWAP3 DUP6 SLOAD DUP2 MSTORE ADD SWAP4 ADD SWAP2 ADD SWAP1 SWAP2 PUSH2 0x5D4E JUMP JUMPDEST SWAP1 PUSH1 0x4 DUP2 LT ISZERO PUSH2 0x4E72 JUMPI PUSH1 0x5 SHL ADD SWAP1 JUMP JUMPDEST PUSH1 0x1 PUSH1 0x1 PUSH1 0x40 SHL SUB DUP2 GT PUSH2 0x5003 JUMPI PUSH1 0x5 SHL PUSH1 0x20 ADD SWAP1 JUMP JUMPDEST SWAP1 PUSH2 0x5DAA DUP3 PUSH2 0x5D89 JUMP JUMPDEST PUSH2 0x5DB7 PUSH1 0x40 MLOAD SWAP2 DUP3 PUSH2 0x504F JUMP JUMPDEST DUP3 DUP2 MSTORE DUP1 SWAP3 PUSH2 0x5DC8 PUSH1 0x1F NOT SWAP2 PUSH2 0x5D89 JUMP JUMPDEST ADD SWAP1 PUSH1 0x20 CALLDATASIZE SWAP2 ADD CALLDATACOPY JUMP JUMPDEST DUP1 MLOAD DUP3 LT ISZERO PUSH2 0x4E72 JUMPI PUSH1 0x20 SWAP2 PUSH1 0x5 SHL ADD ADD SWAP1 JUMP JUMPDEST SWAP3 SWAP1 PUSH1 0x1 DUP1 PUSH1 0xA0 SHL SUB DUP1 PUSH1 0x0 SWAP6 AND DUP6 MSTORE PUSH1 0xA PUSH1 0x20 MSTORE PUSH1 0x40 DUP6 KECCAK256 DUP1 SLOAD SWAP5 DUP6 DUP5 LT ISZERO PUSH2 0x5E77 JUMPI PUSH2 0x5E14 SWAP1 DUP5 PUSH2 0x51FB JUMP JUMPDEST DUP4 DUP7 DUP3 GT PUSH2 0x5E6F JUMPI JUMPDEST PUSH2 0x5E26 SWAP2 PUSH2 0x52A8 JUMP JUMPDEST SWAP3 PUSH2 0x5E30 DUP5 PUSH2 0x5DA0 JUMP JUMPDEST SWAP7 JUMPDEST DUP5 DUP2 LT PUSH2 0x5E40 JUMPI POP POP POP POP POP JUMP JUMPDEST DUP1 DUP5 PUSH2 0x5E58 PUSH2 0x5E52 PUSH2 0x5E6A SWAP5 DUP7 PUSH2 0x51FB JUMP JUMPDEST DUP7 PUSH2 0x4E88 JUMP JUMPDEST SWAP1 SLOAD SWAP1 PUSH1 0x3 SHL SHR AND PUSH2 0x48ED DUP3 DUP12 PUSH2 0x5DD2 JUMP JUMPDEST PUSH2 0x5E32 JUMP JUMPDEST DUP7 SWAP2 POP PUSH2 0x5E1D JUMP JUMPDEST POP POP POP POP SWAP1 SWAP2 PUSH1 0x40 MLOAD SWAP1 PUSH2 0x5E8A DUP3 PUSH2 0x5034 JUMP JUMPDEST DUP1 DUP3 MSTORE CALLDATASIZE DUP2 CALLDATACOPY SWAP2 SWAP1 JUMP JUMPDEST SWAP3 SWAP2 PUSH1 0x1 DUP1 PUSH1 0xA0 SHL SUB SWAP2 DUP3 PUSH1 0x0 SWAP6 AND DUP6 MSTORE PUSH1 0xC PUSH1 0x20 MSTORE PUSH1 0x40 DUP1 DUP7 KECCAK256 SWAP3 DUP4 SLOAD SWAP2 DUP3 DUP5 LT ISZERO PUSH2 0x5FE2 JUMPI POP PUSH2 0x5EC6 SWAP1 DUP4 PUSH2 0x51FB JUMP JUMPDEST DUP3 DUP3 DUP3 GT PUSH2 0x5FDA JUMPI JUMPDEST PUSH2 0x5ED8 SWAP2 PUSH2 0x52A8 JUMP JUMPDEST SWAP5 PUSH2 0x5EE2 DUP7 PUSH2 0x5DA0 JUMP JUMPDEST SWAP7 PUSH2 0x5EEC DUP8 PUSH2 0x5DA0 JUMP JUMPDEST SWAP7 PUSH2 0x5EF6 DUP2 PUSH2 0x5DA0 JUMP JUMPDEST SWAP7 PUSH2 0x5F00 DUP3 PUSH2 0x5DA0 JUMP JUMPDEST SWAP7 PUSH2 0x5F0A DUP4 PUSH2 0x5DA0 JUMP JUMPDEST SWAP7 DUP5 JUMPDEST DUP5 DUP2 LT PUSH2 0x5F1C JUMPI POP POP POP POP POP POP JUMP JUMPDEST PUSH1 0x0 NOT DUP9 ADD DUP9 DUP2 GT PUSH2 0x5FC6 JUMPI PUSH2 0x5F46 PUSH2 0x5F40 DUP16 SWAP3 PUSH2 0x5F3A DUP6 DUP8 PUSH2 0x51FB JUMP JUMPDEST SWAP1 PUSH2 0x52A8 JUMP JUMPDEST DUP6 PUSH2 0x54BA JUMP JUMPDEST POP PUSH1 0xFF SWAP2 PUSH2 0x5F58 DUP5 DUP5 DUP5 SLOAD AND SWAP3 PUSH2 0x5DD2 JUMP JUMPDEST PUSH1 0xD DUP3 LT ISZERO PUSH2 0x5FB2 JUMPI SWAP2 DUP16 DUP16 SWAP1 PUSH1 0x3 SWAP4 PUSH2 0x5FAD SWAP8 SWAP7 SWAP6 MSTORE PUSH2 0x5F7E DUP7 PUSH1 0x1 DUP6 ADD SLOAD SWAP3 PUSH2 0x5DD2 JUMP JUMPDEST MSTORE PUSH2 0x5F8E DUP6 PUSH1 0x2 DUP5 ADD SLOAD SWAP3 PUSH2 0x5DD2 JUMP JUMPDEST MSTORE ADD SLOAD DUP7 DUP2 AND PUSH2 0x5F9E DUP5 DUP16 PUSH2 0x5DD2 JUMP JUMPDEST MSTORE PUSH1 0xA0 SHR AND PUSH2 0x48ED DUP3 DUP13 PUSH2 0x5DD2 JUMP JUMPDEST PUSH2 0x5F0D JUMP JUMPDEST PUSH4 0x4E487B71 PUSH1 0xE0 SHL DUP11 MSTORE PUSH1 0x21 PUSH1 0x4 MSTORE PUSH1 0x24 DUP11 REVERT JUMPDEST PUSH4 0x4E487B71 PUSH1 0xE0 SHL DUP8 MSTORE PUSH1 0x11 PUSH1 0x4 MSTORE PUSH1 0x24 DUP8 REVERT JUMPDEST DUP3 SWAP2 POP PUSH2 0x5ECF JUMP JUMPDEST SWAP5 POP POP SWAP4 SWAP5 SWAP2 POP POP DUP2 MLOAD SWAP3 PUSH2 0x5FF6 DUP5 PUSH2 0x5034 JUMP JUMPDEST DUP2 DUP5 MSTORE DUP3 MLOAD SWAP5 PUSH2 0x6005 DUP7 PUSH2 0x5034 JUMP JUMPDEST DUP3 DUP7 MSTORE DUP4 MLOAD SWAP5 PUSH2 0x6014 DUP7 PUSH2 0x5034 JUMP JUMPDEST DUP4 DUP7 MSTORE DUP5 MLOAD SWAP5 PUSH2 0x6023 DUP7 PUSH2 0x5034 JUMP JUMPDEST DUP5 DUP7 MSTORE MLOAD SWAP4 PUSH2 0x6031 DUP6 PUSH2 0x5034 JUMP JUMPDEST DUP1 DUP6 MSTORE CALLDATASIZE DUP2 CALLDATACOPY SWAP6 SWAP5 SWAP4 SWAP3 SWAP2 SWAP1 JUMP JUMPDEST ISZERO PUSH2 0x6046 JUMPI JUMP JUMPDEST PUSH1 0x40 MLOAD PUSH3 0x461BCD PUSH1 0xE5 SHL DUP2 MSTORE PUSH1 0x20 PUSH1 0x4 DUP3 ADD MSTORE PUSH1 0x2 PUSH1 0x24 DUP3 ADD MSTORE PUSH2 0x24AB PUSH1 0xF1 SHL PUSH1 0x44 DUP3 ADD MSTORE PUSH1 0x64 SWAP1 REVERT JUMPDEST PUSH1 0x40 SWAP2 SWAP5 SWAP4 SWAP3 PUSH2 0x6084 DUP3 PUSH1 0x60 DUP2 ADD SWAP8 PUSH2 0x4F84 JUMP JUMPDEST PUSH1 0x20 DUP3 ADD MSTORE ADD MSTORE JUMP JUMPDEST PUSH1 0xB SLOAD DUP1 ISZERO PUSH2 0x5BB1 JUMPI PUSH2 0x60A3 PUSH1 0xE SLOAD DUP1 SWAP3 PUSH2 0x51FB JUMP JUMPDEST PUSH1 0x0 NOT DUP2 ADD SWAP1 DUP2 GT PUSH2 0x5208 JUMPI DUP2 ISZERO PUSH2 0x60B9 JUMPI DIV SWAP1 JUMP JUMPDEST PUSH4 0x4E487B71 PUSH1 0xE0 SHL PUSH1 0x0 MSTORE PUSH1 0x12 PUSH1 0x4 MSTORE PUSH1 0x24 PUSH1 0x0 REVERT INVALID 0xE2 0x2A CODECOPY 0xF8 PUSH3 0x558EB0 SHR 0x2A 0x26 0xEB CODESIZE 0xC7 0xD8 DUP5 0xB4 SWAP10 0x22 SAR SWAP11 MSIZE DUP10 0xF6 CALLDATACOPY MSTORE SWAP12 0xD3 0xE7 PUSH32 0xD6798BE0079C531659141344CD1FD0A4F28419497F9722A3DAAFE3B4186F6B64 JUMPI 0xE0 SELFBALANCE PUSH10 0xBC30C3E6F90ECFEF0F6E SELFBALANCE PUSH1 0xF6 PUSH0 0x2C 0xC4 0xAE PUSH13 0x67493463E3C9CAF3D2F863E99B PUSH24 0x9B17422D0DF92223018B32B4D1FA46E071723D6817E2486D STOP EXTCODESIZE 0xEC 0xC5 PUSH0 STOP LOG2 PUSH5 0x6970667358 0x22 SLT KECCAK256 PUSH26 0xC03BB583A381D1A5CD68B488CEDFBA92CBB441C30F19EC49C6BC AND 0xDD 0xCC JUMPI PUSH23 0x64736F6C63430008140033000000000000000000000000 "},"methodIdentifiers":{"BASIS_POINTS()":"e1f1c4a7","BTC_POOL_RATE()":"92446e30","GRACE_PERIOD_DURATION()":"bbc18f6f","INCOME_SPLIT_RATE()":"556415d9","MATCHING_OVERRIDE_RATE()":"fc4a36f6","MAX_USER_ID()":"ef2c5c50","MIN_USER_ID()":"ac6c264e","PRODUCT_WALLET_RATE()":"6e0881da","WITHDRAWAL_MATCH_POOL_RATE()":"7115bba7","activatePackage(uint8)":"6aa6c0ce","adminActivateUser(address,uint256,uint256,bool,uint8)":"6207f522","adminBinaryWallet()":"d117de03","adminWithdrawDeposits(address,uint256)":"a5ad0586","allUsers(uint256)":"a2bdedf4","autoDistributeBinaryIncome(uint256)":"57f0140a","batchFlushGracePeriods(address[])":"ce0b2122","binaryBatchSize()":"4526b4aa","boardEntryCount(address)":"f00b0093","boardHandler()":"c9d484cf","btcPoolBalance(address)":"31e1f29b","claimBinaryIncome()":"2eee563e","dailyCapping(uint256)":"4286064e","deposit(uint256)":"b6b55f25","depositBalance(address)":"956501bb","directRates(uint256)":"5a1faeb9","directReferrals(address,uint256)":"05ad3935","enterBoardPool()":"e4093a66","feeRecipient()":"46904840","flushGracePeriod(address)":"d9f9f63f","getAddressByUserId(uint256)":"8225757b","getBinaryInfo(address)":"ece2bc23","getBinarySlabInfo(address)":"2bbf1a30","getBoardCurrentIndex(uint256)":"3ac272c2","getBoardMatrixInfo(uint256,uint256)":"d4a90286","getBoardPrice(uint256)":"47cd5191","getBoardQueueLength(uint256)":"eb63e1c2","getBtcPoolBalance(address)":"3d6bacf3","getContractBalance()":"6f9fb98a","getDepositBalance(address)":"ed05ae78","getDirectReferrals(address)":"d2c8e0e5","getDirectReferralsPaginated(address,uint256,uint256)":"d9c842fd","getIncomeInfo(address)":"befbe97d","getMaxIncomeLimit(uint8)":"6d0364d7","getPackagePrice(uint8)":"e63619a5","getProfile(address)":"0f53a470","getTotalBatches()":"e561dddc","getTotalUsers()":"9be572f6","getUserByIndex(uint256)":"ff5d32fe","getUserIdByAddress(address)":"385399f9","getUserInfo(address)":"6386c1c7","getUserTransactionCount(address)":"d8f33840","getUserTransactionsPaginated(address,uint256,uint256)":"012685f4","isBinaryProcessor(address)":"2c2896b3","isFreeAccount(address)":"463cffe6","isRegistered(address)":"c3c5a547","logBoardEntry(address,uint256,uint256)":"ecdc5907","logBoardReward(address,uint256,uint256)":"d24af2b8","mToken()":"c3b6f939","matchingOverrideMaxLevels(uint256)":"85f8f11b","maxIncomeLimit(uint256)":"8d7b5690","owner()":"8da5cb5b","packagePrices(uint256)":"179bd5c8","pause()":"8456cb59","paused()":"5c975abb","paymentToken()":"3013ce29","productWallet()":"fc3c8a0c","reactivate(uint8)":"9726b9f2","recoverToken(address,address,uint256)":"a7229fd9","register(uint256,uint256,bool)":"c24be7fb","renounceOwnership()":"715018a6","repurchase()":"d58c6172","setAdminBinaryWallet(address)":"69e94f4d","setBinaryBatchSize(uint256)":"7feef9d6","setBinaryProcessor(address,bool)":"1915d956","setBoardHandler(address)":"e3ba9bda","setDailyCapping(uint8,uint256)":"1cdc545c","setFeeRecipient(address)":"e74b981b","setMToken(address)":"b882c4d8","setMaxIncomeLimit(uint8,uint256)":"92167de2","setPackagePrice(uint8,uint256)":"fdc65d6e","setProductWallet(address)":"9a688a99","setProfile(string,string,string,string)":"55509c8f","setWithdrawalFee(uint256)":"ac1e5025","setWithdrawalUsdtRate(uint256)":"4b695586","slabRates(uint256)":"0d57a79c","tokenDecimals()":"3b97e856","totalBinaryFlushed()":"1d64e593","transferOwnership(address)":"f2fde38b","unpause()":"3f4ba83a","updatePaymentToken(address,uint8)":"0327ef49","userIdTaken(uint256)":"0b6a9539","userIdToAddress(uint256)":"b1695201","users(address)":"a87430ba","withdraw(uint256)":"2e1a7d4d","withdrawContractFunds(address,uint256)":"2e1888b8","withdrawalFee()":"8bc7e8c4","withdrawalMatchMaxLevels(uint256)":"b33dd0c9","withdrawalUsdtRate()":"624a893d"}}}}}