{"contracts/BoardMatrixHandler.sol":{"BoardMatrixHandler":{"abi":[{"inputs":[{"internalType":"address","name":"_paymentToken","type":"address"},{"internalType":"uint8","name":"_tokenDecimals","type":"uint8"}],"stateMutability":"nonpayable","type":"constructor"},{"inputs":[{"internalType":"address","name":"owner","type":"address"}],"name":"OwnableInvalidOwner","type":"error"},{"inputs":[{"internalType":"address","name":"account","type":"address"}],"name":"OwnableUnauthorizedAccount","type":"error"},{"inputs":[],"name":"ReentrancyGuardReentrantCall","type":"error"},{"inputs":[{"internalType":"address","name":"token","type":"address"}],"name":"SafeERC20FailedOperation","type":"error"},{"anonymous":false,"inputs":[{"indexed":true,"internalType":"address","name":"to","type":"address"},{"indexed":false,"internalType":"uint256","name":"amount","type":"uint256"}],"name":"AdminWithdrawn","type":"event"},{"anonymous":false,"inputs":[{"indexed":true,"internalType":"address","name":"owner","type":"address"},{"indexed":true,"internalType":"uint256","name":"boardLevel","type":"uint256"},{"indexed":false,"internalType":"uint256","name":"reward","type":"uint256"},{"indexed":false,"internalType":"uint256","name":"liquidity","type":"uint256"}],"name":"BoardCompleted","type":"event"},{"anonymous":false,"inputs":[{"indexed":true,"internalType":"address","name":"user","type":"address"},{"indexed":true,"internalType":"uint256","name":"boardLevel","type":"uint256"},{"indexed":false,"internalType":"uint256","name":"matrixIndex","type":"uint256"}],"name":"BoardEntered","type":"event"},{"anonymous":false,"inputs":[{"indexed":true,"internalType":"address","name":"user","type":"address"},{"indexed":false,"internalType":"uint256","name":"amount","type":"uint256"}],"name":"Deposited","type":"event"},{"anonymous":false,"inputs":[{"indexed":true,"internalType":"address","name":"previousOwner","type":"address"},{"indexed":true,"internalType":"address","name":"newOwner","type":"address"}],"name":"OwnershipTransferred","type":"event"},{"anonymous":false,"inputs":[{"indexed":true,"internalType":"address","name":"user","type":"address"},{"indexed":false,"internalType":"uint256","name":"usdtAmount","type":"uint256"},{"indexed":false,"internalType":"uint256","name":"btcbAmount","type":"uint256"}],"name":"SwappedToBTC","type":"event"},{"anonymous":false,"inputs":[{"indexed":true,"internalType":"address","name":"user","type":"address"},{"indexed":false,"internalType":"uint256","name":"amount","type":"uint256"},{"indexed":false,"internalType":"uint256","name":"boardLevel","type":"uint256"}],"name":"VirtualRewardCredited","type":"event"},{"inputs":[],"name":"BASIS_POINTS","outputs":[{"internalType":"uint256","name":"","type":"uint256"}],"stateMutability":"view","type":"function"},{"inputs":[],"name":"BOARD_10_LIQUIDITY_RATE_BP","outputs":[{"internalType":"uint256","name":"","type":"uint256"}],"stateMutability":"view","type":"function"},{"inputs":[],"name":"BOARD_10_REWARD_RATE_BP","outputs":[{"internalType":"uint256","name":"","type":"uint256"}],"stateMutability":"view","type":"function"},{"inputs":[],"name":"BOARD_10_SYSTEM_RATE_BP","outputs":[{"internalType":"uint256","name":"","type":"uint256"}],"stateMutability":"view","type":"function"},{"inputs":[],"name":"BOARD_LEVEL2_MEMBERS","outputs":[{"internalType":"uint256","name":"","type":"uint256"}],"stateMutability":"view","type":"function"},{"inputs":[],"name":"BOARD_LIQUIDITY_RATE_BP","outputs":[{"internalType":"uint256","name":"","type":"uint256"}],"stateMutability":"view","type":"function"},{"inputs":[],"name":"BOARD_MEMBERS_REQUIRED","outputs":[{"internalType":"uint256","name":"","type":"uint256"}],"stateMutability":"view","type":"function"},{"inputs":[],"name":"BOARD_NEXT_POOL_RATE_BP","outputs":[{"internalType":"uint256","name":"","type":"uint256"}],"stateMutability":"view","type":"function"},{"inputs":[],"name":"BOARD_REWARD_RATE_BP","outputs":[{"internalType":"uint256","name":"","type":"uint256"}],"stateMutability":"view","type":"function"},{"inputs":[],"name":"DEFAULT_SLIPPAGE_BP","outputs":[{"internalType":"uint256","name":"","type":"uint256"}],"stateMutability":"view","type":"function"},{"inputs":[],"name":"TOTAL_BOARDS","outputs":[{"internalType":"uint256","name":"","type":"uint256"}],"stateMutability":"view","type":"function"},{"inputs":[{"internalType":"address","name":"_to","type":"address"},{"internalType":"uint256","name":"_amount","type":"uint256"}],"name":"adminWithdrawDeposits","outputs":[],"stateMutability":"nonpayable","type":"function"},{"inputs":[{"internalType":"uint256","name":"","type":"uint256"}],"name":"boardCurrentIndex","outputs":[{"internalType":"uint256","name":"","type":"uint256"}],"stateMutability":"view","type":"function"},{"inputs":[{"internalType":"uint256","name":"","type":"uint256"}],"name":"boardPrices","outputs":[{"internalType":"uint256","name":"","type":"uint256"}],"stateMutability":"view","type":"function"},{"inputs":[],"name":"btcRewardToken","outputs":[{"internalType":"contract IERC20","name":"","type":"address"}],"stateMutability":"view","type":"function"},{"inputs":[],"name":"btcbToken","outputs":[{"internalType":"address","name":"","type":"address"}],"stateMutability":"view","type":"function"},{"inputs":[{"internalType":"uint256","name":"_amount","type":"uint256"},{"internalType":"uint256","name":"_minBtcbOut","type":"uint256"}],"name":"claimAndSwapToBTC","outputs":[],"stateMutability":"nonpayable","type":"function"},{"inputs":[],"name":"coinLiquidityAddress","outputs":[{"internalType":"address","name":"","type":"address"}],"stateMutability":"view","type":"function"},{"inputs":[{"internalType":"uint256","name":"_amount","type":"uint256"}],"name":"deposit","outputs":[],"stateMutability":"nonpayable","type":"function"},{"inputs":[{"internalType":"address","name":"","type":"address"},{"internalType":"uint256","name":"","type":"uint256"}],"name":"depositAmounts","outputs":[{"internalType":"uint256","name":"","type":"uint256"}],"stateMutability":"view","type":"function"},{"inputs":[{"internalType":"address","name":"","type":"address"}],"name":"depositBalance","outputs":[{"internalType":"uint256","name":"","type":"uint256"}],"stateMutability":"view","type":"function"},{"inputs":[{"internalType":"address","name":"","type":"address"},{"internalType":"uint256","name":"","type":"uint256"}],"name":"depositTimestamps","outputs":[{"internalType":"uint256","name":"","type":"uint256"}],"stateMutability":"view","type":"function"},{"inputs":[{"internalType":"address","name":"_user","type":"address"},{"internalType":"uint256","name":"_boardLevel","type":"uint256"}],"name":"enterBoard","outputs":[],"stateMutability":"nonpayable","type":"function"},{"inputs":[{"internalType":"uint256","name":"_boardLevel","type":"uint256"}],"name":"getBoardCurrentIndex","outputs":[{"internalType":"uint256","name":"","type":"uint256"}],"stateMutability":"view","type":"function"},{"inputs":[{"internalType":"uint256","name":"_boardLevel","type":"uint256"},{"internalType":"uint256","name":"_index","type":"uint256"}],"name":"getBoardMatrixInfo","outputs":[{"internalType":"address","name":"owner","type":"address"},{"internalType":"uint256","name":"filledCount","type":"uint256"},{"internalType":"bool","name":"completed","type":"bool"}],"stateMutability":"view","type":"function"},{"inputs":[{"internalType":"uint256","name":"_boardLevel","type":"uint256"}],"name":"getBoardPrice","outputs":[{"internalType":"uint256","name":"","type":"uint256"}],"stateMutability":"view","type":"function"},{"inputs":[{"internalType":"uint256","name":"_boardLevel","type":"uint256"}],"name":"getBoardQueueLength","outputs":[{"internalType":"uint256","name":"","type":"uint256"}],"stateMutability":"view","type":"function"},{"inputs":[{"internalType":"address","name":"_user","type":"address"}],"name":"getDepositBalance","outputs":[{"internalType":"uint256","name":"","type":"uint256"}],"stateMutability":"view","type":"function"},{"inputs":[{"internalType":"address","name":"_user","type":"address"}],"name":"getDepositHistory","outputs":[{"internalType":"uint256[]","name":"amounts","type":"uint256[]"},{"internalType":"uint256[]","name":"timestamps","type":"uint256[]"}],"stateMutability":"view","type":"function"},{"inputs":[{"internalType":"uint256","name":"_usdtAmount","type":"uint256"}],"name":"getSwapEstimate","outputs":[{"internalType":"uint256","name":"btcbAmount","type":"uint256"}],"stateMutability":"view","type":"function"},{"inputs":[{"internalType":"address","name":"_user","type":"address"}],"name":"getTotalSwappedToBTC","outputs":[{"internalType":"uint256","name":"","type":"uint256"}],"stateMutability":"view","type":"function"},{"inputs":[{"internalType":"address","name":"_user","type":"address"}],"name":"getVirtualRewardBalance","outputs":[{"internalType":"uint256","name":"balance","type":"uint256"},{"internalType":"uint256","name":"totalEarned","type":"uint256"}],"stateMutability":"view","type":"function"},{"inputs":[],"name":"mlmContract","outputs":[{"internalType":"address","name":"","type":"address"}],"stateMutability":"view","type":"function"},{"inputs":[],"name":"owner","outputs":[{"internalType":"address","name":"","type":"address"}],"stateMutability":"view","type":"function"},{"inputs":[],"name":"pancakeRouter","outputs":[{"internalType":"contract IPancakeRouter","name":"","type":"address"}],"stateMutability":"view","type":"function"},{"inputs":[],"name":"paymentToken","outputs":[{"internalType":"contract IERC20","name":"","type":"address"}],"stateMutability":"view","type":"function"},{"inputs":[{"internalType":"address","name":"_token","type":"address"},{"internalType":"address","name":"_to","type":"address"},{"internalType":"uint256","name":"_amount","type":"uint256"}],"name":"recoverToken","outputs":[],"stateMutability":"nonpayable","type":"function"},{"inputs":[],"name":"renounceOwnership","outputs":[],"stateMutability":"nonpayable","type":"function"},{"inputs":[{"internalType":"uint256","name":"_boardLevel","type":"uint256"},{"internalType":"uint256","name":"_price","type":"uint256"}],"name":"setBoardPrice","outputs":[],"stateMutability":"nonpayable","type":"function"},{"inputs":[{"internalType":"address","name":"_token","type":"address"}],"name":"setBtcRewardToken","outputs":[],"stateMutability":"nonpayable","type":"function"},{"inputs":[{"internalType":"address","name":"_token","type":"address"}],"name":"setBtcbToken","outputs":[],"stateMutability":"nonpayable","type":"function"},{"inputs":[{"internalType":"address","name":"_addr","type":"address"}],"name":"setCoinLiquidityAddress","outputs":[],"stateMutability":"nonpayable","type":"function"},{"inputs":[{"internalType":"address","name":"_mlm","type":"address"}],"name":"setMLMContract","outputs":[],"stateMutability":"nonpayable","type":"function"},{"inputs":[{"internalType":"address","name":"_router","type":"address"}],"name":"setPancakeRouter","outputs":[],"stateMutability":"nonpayable","type":"function"},{"inputs":[{"internalType":"address","name":"_addr","type":"address"}],"name":"setSystemAddress","outputs":[],"stateMutability":"nonpayable","type":"function"},{"inputs":[],"name":"systemAddress","outputs":[{"internalType":"address","name":"","type":"address"}],"stateMutability":"view","type":"function"},{"inputs":[{"internalType":"address","name":"","type":"address"}],"name":"totalSwappedToBTC","outputs":[{"internalType":"uint256","name":"","type":"uint256"}],"stateMutability":"view","type":"function"},{"inputs":[{"internalType":"address","name":"","type":"address"}],"name":"totalVirtualRewards","outputs":[{"internalType":"uint256","name":"","type":"uint256"}],"stateMutability":"view","type":"function"},{"inputs":[{"internalType":"address","name":"newOwner","type":"address"}],"name":"transferOwnership","outputs":[],"stateMutability":"nonpayable","type":"function"},{"inputs":[{"internalType":"address","name":"","type":"address"}],"name":"virtualRewardBalance","outputs":[{"internalType":"uint256","name":"","type":"uint256"}],"stateMutability":"view","type":"function"}],"evm":{"bytecode":{"linkReferences":{},"object":"608034620001f757601f62001f5738819003918201601f19168301916001600160401b03831184841017620001fc578084926040948552833981010312620001f75780516001600160a01b039182821691829003620001f7576020015160ff8116809103620001f7573315620001de57600091825460018060a01b03199033828216178555604051953391167f8be0079c531659141344cd1fd0a4f28419497f9722a3daafe3b4186f6b6457e08680a360017f9b779b17422d0df92223018b32b4d1fa46e071723d6817e2486d003becc55f00556014541617601455604d8111620001ca57600a0a9081603202603281048303620001ca576007558160b40260b481048303620001ca576008556102888281029081048303620001ca5760095561091d8281029081048303620001ca57600a556120ce8281029081048303620001ca57600b556176198281029081048303620001ca57600c556201a9278281029081048303620001ca57600d556205fa8d8281029081048303620001ca57600e55621585fb8281029081048303620001ca57600f55624d7bee9180830292830403620001b65750601055611d449081620002138239f35b634e487b7160e01b81526011600452602490fd5b634e487b7160e01b82526011600452602482fd5b604051631e4fbdf760e01b815260006004820152602490fd5b600080fd5b634e487b7160e01b600052604160045260246000fdfe60806040908082526004918236101561001757600080fd5b600092833560e01c92836304841337146111445750826306210197146110ff57826321a6816a14610c1d5782632389e78a146110d257826329d7f9eb146110455782632bdbe56d146110295782632dbe620314610fdc5782633013ce2914610fb357826339ae9efd14610f8a5782633ac272c21461029c57826342369fc314610f5257826347cd519114610ef257826349dca24f14610ebb5782634e75996214610e9f57826353dafcbb14610e765782635a33c3da14610e0657826361dba5f3146108b9578263686a38bd14610d885782636f8760fe14610d43578263715018a614610cfb578263727462e514610cb3578263732bdc5314610c97578263792ba2f214610c555782637d4cf0b81461077a57826386f7d53014610c1d5782638919d5e914610bf4578263898278dc14610b9e5782638da5cb5b14610b76578263956501bb1461033f57826396e03328146108be5782639898fcd3146108b9578263a5ad058614610810578263a5c34061146107f3578263a7229fd91461079b578263b0ac46261461077f578263b2418af81461077a578263b6b55f251461064f578263c21ebd0714610626578263c319f5bc14610534578263ce870263146104e7578263d3ba4f96146104a2578263d3e848f114610479578263d4a90286146103ea578263de9a7e19146103c1578263e1f1c4a7146103a4578263eb63e1c21461037b578263ed05ae781461033f578263f2fde38b146102c9578263f3b36bf81461029c57505063f8316c901461024d57600080fd5b346102995760203660031901126102995761026661117c565b61026e6112ab565b6001600160a01b03166102828115156112d7565b601680546001600160a01b03191691909117905580f35b80fd5b909150346102c55760203660031901126102c55760209282913581526002845220549051908152f35b8280fd5b909150346102c55760203660031901126102c5576102e561117c565b906102ee6112ab565b6001600160a01b0391821692831561032957505082546001600160a01b031981168317845516600080516020611ccf8339815191528380a380f35b51631e4fbdf760e01b8152908101849052602490fd5b8382346103775760203660031901126103775760209181906001600160a01b0361036761117c565b1681526011845220549051908152f35b5080fd5b909150346102c55760203660031901126102c55760209282913581526001845220549051908152f35b838234610377578160031936011261037757602090516127108152f35b838234610377578160031936011261037757601a5490516001600160a01b039091168152602090f35b8334610299576103f9366111ba565b92818352600160205284832054841015610451576060856104248682878781526001602052206113af565b509060018060a01b038254169160ff60026001830154920154169082519384526020840152151590820152f35b606490602086519162461bcd60e51b8352820152600260248201526127a160f11b6044820152fd5b83823461037757816003193601126103775760185490516001600160a01b039091168152602090f35b8334610299576020366003190112610299576104bc61117c565b6104c46112ab565b601780546001600160a01b0319166001600160a01b039290921691909117905580f35b83346102995760203660031901126102995761050161117c565b6105096112ab565b6001600160a01b031661051d8115156112d7565b601980546001600160a01b03191691909117905580f35b909150346102c557826020366003190112610299576016546105ce926001600160a01b0391821690610567821515611a5c565b82601a5416610577811515611a99565b86519361058385611362565b60028552873660208701376014541661059b85611ad4565b526105a584611ae1565b52855180958194829363d06ca61f60e01b84528035908401528860248401526044830190611b6c565b03915afa90811561061a57906105ef9184602095926105f7575b5050611ae1565b519051908152f35b61061392503d8091833e61060b818361137d565b810190611af1565b38806105e8565b505051903d90823e3d90fd5b83823461037757816003193601126103775760165490516001600160a01b039091168152602090f35b9150346102c557602090816003193601126107765782359261066f611ba9565b61067a841515611bd9565b60145482516323b872dd60e01b8752338352306024526044869052916001600160a01b0390911690848760648180865af16001885114811615610757575b838552876060521561074457505050907f2da466a7b24304f47e87fa2e1e5a81b9831ce54fec19055ce277ca2f39ba42c491338552601182528085206106ff85825461147f565b90553385526012825261071484828720611c0a565b338552601382526107288186204290611c0a565b519283523392a26001600080516020611cef8339815191525580f35b635274afe760e01b835282015260249150fd5b600181151661076d57823b15153d1516166106b8565b833d89823e3d90fd5b8380fd5b61127e565b83823461037757816003193601126103775760209051600a8152f35b8334610299576060366003190112610299576107b561117c565b6001600160a01b0360243581811692918382036107ef576107e26107ec946107db6112ab565b15156112d7565b60443592166119db565b80f35b8480fd5b838234610377578160031936011261037757602090516107d08152f35b9150346102c557806003193601126102c55761082a61117c565b90602435916108376112ab565b6001600160a01b038181169485156108915750916108898480936020956108807fca1cf43de312865665f595e88f569f9d5246690c07df26e86aba01147e6d1314981515611bd9565b601454166119db565b51908152a280f35b606490602085519162461bcd60e51b835282015260026024820152615a4160f01b6044820152fd5b611238565b9150346102c5576108ce366111ba565b6108d9929192611ba9565b8215610b455733855260209060038252838387205410610b03576016546001600160a01b03959061090d9087161515611a5c565b61091c86601a54161515611a99565b33875260038352838720805490868203918211610af0575586838760145416604489601654168851948593849263095ea7b360e01b8452888401528b60248401525af18015610ae657610aab575b5083519561097787611362565b60028752843685890137806014541661098f88611ad4565b5280601a541661099e88611ae1565b52601654169061012c4201804211610a9857888094939288926109e689519b8c97889687956338ed173960e01b8752860152602485015260a0604485015260a4840190611b6c565b90336064840152608483015203925af1938415610a8e577fb59929a0ceeda5fc5dc7c15f3c2b20a06d67071cdecb9466f1470df5f4bd7bf79394610a52918791610a74575b50610a3581611ae1565b5133885260058452610a4b85892091825461147f565b9055611ae1565b519082519485528401523392a26001600080516020611cef8339815191525580f35b610a8891503d8089833e61060b818361137d565b38610a2b565b82513d87823e3d90fd5b634e487b7160e01b895260118252602489fd5b8381813d8311610adf575b610ac0818361137d565b81010312610adb575180151503610ad7573861096a565b8680fd5b8780fd5b503d610ab6565b85513d8a823e3d90fd5b634e487b7160e01b895260118352602489fd5b825162461bcd60e51b8152808601839052601c60248201527b496e73756666696369656e74207669727475616c2062616c616e636560201b6044820152606490fd5b815162461bcd60e51b8152602081860152600b60248201526a16995c9bc8185b5bdd5b9d60aa1b6044820152606490fd5b838234610377578160031936011261037757905490516001600160a01b039091168152602090f35b838234610377578060031936011261037757610bb861117c565b6001600160a01b031682526012602052808220805460243593908410156102995750602092610be691611255565b91905490519160031b1c8152f35b83823461037757816003193601126103775760155490516001600160a01b039091168152602090f35b8382346103775760203660031901126103775760209181906001600160a01b03610c4561117c565b1681526005845220549051908152f35b83346102995760203660031901126102995782906001600160a01b03610c7961117c565b16815260036020528181205492602052205482519182526020820152f35b8382346103775781600319360112610377576020905160c88152f35b838234610377578060031936011261037757610ccd61117c565b6001600160a01b031682526013602052808220805460243593908410156102995750602092610be691611255565b8334610299578060031936011261029957610d146112ab565b80546001600160a01b03198116825581906001600160a01b0316600080516020611ccf8339815191528280a380f35b833461029957602036600319011261029957610d5d61117c565b610d656112ab565b601580546001600160a01b0319166001600160a01b039290921691909117905580f35b909150346102c557816003193601126102c557610da361117c565b601954909290336001600160a01b0391821614908115610df9575b5015610dd157836107ec6024358561148c565b906020606492519162461bcd60e51b835282015260026024820152614e4160f01b6044820152fd5b9050845416331438610dbe565b838234610377576020366003190112610377576001600160a01b03610e2961117c565b1682526012602052610e72610e51610e4b838086209560136020522094611c3f565b93611c3f565b610e648351948486958652850190611204565b908382036020850152611204565b0390f35b83823461037757816003193601126103775760195490516001600160a01b039091168152602090f35b83823461037757816003193601126103775760209051600c8152f35b909150346102c55760203660031901126102c55760209282916001600160a01b03610ee461117c565b168252845220549051908152f35b90833461029957602036600319011261029957823590600182101580610f47575b610f1c90611308565b600b821015610f345760208383600601549051908152f35b634e487b7160e01b815260328452602490fd5b50600a821115610f13565b8382346103775760203660031901126103775760209181906001600160a01b03610f7a61117c565b1681526003845220549051908152f35b83823461037757816003193601126103775760175490516001600160a01b039091168152602090f35b83823461037757816003193601126103775760145490516001600160a01b039091168152602090f35b833461029957602036600319011261029957610ff661117c565b610ffe6112ab565b6001600160a01b03166110128115156112d7565b601a80546001600160a01b03191691909117905580f35b8382346103775781600319360112610377576020905160098152f35b9150346102c557611055366111ba565b9290916110606112ab565b6001831015806110c7575b61107490611308565b831561109f5750600b82101561108c57506006015580f35b634e487b7160e01b845260329052602483fd5b906020606492519162461bcd60e51b83528201526002602482015261050360f41b6044820152fd5b50600a83111561106b565b909150346102c55760203660031901126102c55735600b8110156102c55760209250600601549051908152f35b83346102995760203660031901126102995761111961117c565b6111216112ab565b601880546001600160a01b0319166001600160a01b039290921691909117905580f35b8490346103775781600319360112610377578061222e60209252f35b600091031261116b57565b600080fd5b6001600160a01b031690565b600435906001600160a01b038216820361116b57565b600b8110156111a45760060190600090565b634e487b7160e01b600052603260045260246000fd5b604090600319011261116b576004359060243590565b6001600160a01b0316600090815260036020526040902090565b6001600160a01b0316600090815260046020526040902090565b90815180825260208080930193019160005b828110611224575050505090565b835185529381019392810192600101611216565b3461116b57600036600319011261116b576020604051610fa08152f35b80548210156111a45760005260206000200190600090565b908152602081019190915260400190565b3461116b57600036600319011261116b5760206040516102718152f35b6000526001602052604060002090565b6000546001600160a01b031633036112bf57565b60405163118cdaa760e01b8152336004820152602490fd5b156112de57565b60405162461bcd60e51b815260206004820152600260248201526124ab60f11b6044820152606490fd5b1561130f57565b60405162461bcd60e51b8152602060048201526002602482015261109360f21b6044820152606490fd5b6001600160401b03811161134c57604052565b634e487b7160e01b600052604160045260246000fd5b606081019081106001600160401b0382111761134c57604052565b601f909101601f19168101906001600160401b0382119082101761134c57604052565b604051906113ad82611362565b565b80548210156111a4576000526003602060002091020190600090565b8054600160401b81101561134c576113e8916001820181556113af565b61142757600260409160018060a01b0384511660018060a01b03198254161781556020840151600182015501910151151560ff80198354169116179055565b634e487b7160e01b600052600060045260246000fd5b60001981019190821161144c57565b634e487b7160e01b600052601160045260246000fd5b600019811461144c5760010190565b906001820180921161144c57565b9190820180921161144c57565b906114c16114998261129b565b6114a16113a0565b6001600160a01b03851681529060006020830152600060408301526113cb565b806114d46114ce8261129b565b5461143d565b60405181815290936001600160a01b0316907f4e755dd64e53a9f7a5882e2e32eb64718c2273de11e017bd47129b9fe2716d7c90602090a3611520816000526002602052604060002090565b5491821061152c575050565b61153e826115398361129b565b6113af565b5091600c600184016115508154611462565b809155101561155e57505050565b8261158261159d9261157d60026113ad9701600160ff19825416179055565b611471565b611596846000526002602052604060002090565b5554611170565b61163e565b9060098202918083046009149015171561144c57565b9061222e9182810292818404149015171561144c57565b906102719182810292818404149015171561144c57565b90610fa09182810292818404149015171561144c57565b906107d09182810292818404149015171561144c57565b604091949392606082019560018060a01b0316825260208201520152565b6040513d6000823e3d90fd5b61165c61165761164d84611192565b90549060031b1c90565b6115a2565b91600a81101561186a57611686611678611680611678866115e6565b612710900490565b946115fd565b92611690836111d0565b61169b82825461147f565b90556116a6836111ea565b6116b182825461147f565b90556040516001600160a01b0384811692918390600080516020611caf83398151915290806116e188878361126d565b0390a26116ef601754611170565b8682821661184f575b5050611705601954611170565b1680611744575b50918091600080516020611c8f8339815191526113ad9661173e956117366040519283928361126d565b0390a3611471565b9061148c565b80939291933b1561116b57604051631a495e5760e31b8152600091829082908183816117758a8c8e60048501611614565b03925af180156118375761183c575b5061179b611796611796601954611170565b611170565b6117af61164d6117aa86611471565b611192565b906117b985611471565b91813b156107765760405163ecdc590760e01b81529493928592918391859183916117e8918d60048501611614565b03925af18015611837576113ad9661173e958594600080516020611c8f8339815191529361181e575b509350965050919261170c565b8061182b61183192611339565b80611160565b38611811565b611632565b8061182b61184992611339565b38611784565b6118639161185e601454611170565b6119db565b38866116f8565b9190611878611678836115b8565b61189061167861188a611678866115cf565b946115cf565b9061189a836111d0565b6118a582825461147f565b90556118b0836111ea565b6118bb82825461147f565b905560018060a01b038084169485600080516020611caf833981519152604051806118e78b888361126d565b0390a26118f5601854611170565b908282166119c5575b505061190b601754611170565b838282166119af575b5050611921601954611170565b168061194e575b50600080516020611c8f83398151915292506119496040519283928361126d565b0390a3565b803b1561116b5785600091838361197c9760405198899586948593631a495e5760e31b855260048501611614565b03925af192831561183757600080516020611c8f8339815191529315611928578061182b6119a992611339565b38611928565b6119be9161185e601454611170565b3883611914565b6119d49161185e601454611170565b38806118fe565b60405163a9059cbb60e01b60009081526001600160a01b039384166004526024949094529260209060448180855af1600160005114811615611a3c575b8360405215611a2657505050565b635274afe760e01b835216600482015260249150fd5b6001811516611a5257813b15153d151616611a18565b833d6000823e3d90fd5b15611a6357565b60405162461bcd60e51b815260206004820152600e60248201526d149bdd5d195c881b9bdd081cd95d60921b6044820152606490fd5b15611aa057565b60405162461bcd60e51b815260206004820152600c60248201526b109510d0881b9bdd081cd95d60a21b6044820152606490fd5b8051156111a45760200190565b8051600110156111a45760400190565b90602090818382031261116b5782516001600160401b039384821161116b570181601f8201121561116b57805193841161134c578360051b9060405194611b3a8584018761137d565b8552838086019282010192831161116b578301905b828210611b5d575050505090565b81518152908301908301611b4f565b90815180825260208080930193019160005b828110611b8c575050505090565b83516001600160a01b031685529381019392810192600101611b7e565b600080516020611cef8339815191526002815414611bc75760029055565b604051633ee5aeb560e01b8152600490fd5b15611be057565b60405162461bcd60e51b8152602060048201526002602482015261041360f41b6044820152606490fd5b8054600160401b81101561134c57611c2791600182018155611255565b819291549060031b91821b91600019901b1916179055565b9060405191828154918282526020928383019160005283600020936000905b828210611c74575050506113ad9250038361137d565b855484526001958601958895509381019390910190611c5e56fec9dfd5046e5f1be95c560d1b85295f8afd28d0102c20e0b4112b88bd328ca433480cf80c78df84f9ad0c3da7cb64f6ae3656d3aed9cfc42064d865cdcdbc2b248be0079c531659141344cd1fd0a4f28419497f9722a3daafe3b4186f6b6457e09b779b17422d0df92223018b32b4d1fa46e071723d6817e2486d003becc55f00a2646970667358221220451633888687fac3fa1b6e28139dc3fd3b8c4af6f153e882f70b89a8a432b2f264736f6c63430008140033","opcodes":"PUSH1 0x80 CALLVALUE PUSH3 0x1F7 JUMPI PUSH1 0x1F PUSH3 0x1F57 CODESIZE DUP2 SWAP1 SUB SWAP2 DUP3 ADD PUSH1 0x1F NOT AND DUP4 ADD SWAP2 PUSH1 0x1 PUSH1 0x1 PUSH1 0x40 SHL SUB DUP4 GT DUP5 DUP5 LT OR PUSH3 0x1FC JUMPI DUP1 DUP5 SWAP3 PUSH1 0x40 SWAP5 DUP6 MSTORE DUP4 CODECOPY DUP2 ADD SUB SLT PUSH3 0x1F7 JUMPI DUP1 MLOAD PUSH1 0x1 PUSH1 0x1 PUSH1 0xA0 SHL SUB SWAP2 DUP3 DUP3 AND SWAP2 DUP3 SWAP1 SUB PUSH3 0x1F7 JUMPI PUSH1 0x20 ADD MLOAD PUSH1 0xFF DUP2 AND DUP1 SWAP2 SUB PUSH3 0x1F7 JUMPI CALLER ISZERO PUSH3 0x1DE JUMPI PUSH1 0x0 SWAP2 DUP3 SLOAD PUSH1 0x1 DUP1 PUSH1 0xA0 SHL SUB NOT SWAP1 CALLER DUP3 DUP3 AND OR DUP6 SSTORE PUSH1 0x40 MLOAD SWAP6 CALLER SWAP2 AND PUSH32 0x8BE0079C531659141344CD1FD0A4F28419497F9722A3DAAFE3B4186F6B6457E0 DUP7 DUP1 LOG3 PUSH1 0x1 PUSH32 0x9B779B17422D0DF92223018B32B4D1FA46E071723D6817E2486D003BECC55F00 SSTORE PUSH1 0x14 SLOAD AND OR PUSH1 0x14 SSTORE PUSH1 0x4D DUP2 GT PUSH3 0x1CA JUMPI PUSH1 0xA EXP SWAP1 DUP2 PUSH1 0x32 MUL PUSH1 0x32 DUP2 DIV DUP4 SUB PUSH3 0x1CA JUMPI PUSH1 0x7 SSTORE DUP2 PUSH1 0xB4 MUL PUSH1 0xB4 DUP2 DIV DUP4 SUB PUSH3 0x1CA JUMPI PUSH1 0x8 SSTORE PUSH2 0x288 DUP3 DUP2 MUL SWAP1 DUP2 DIV DUP4 SUB PUSH3 0x1CA JUMPI PUSH1 0x9 SSTORE PUSH2 0x91D DUP3 DUP2 MUL SWAP1 DUP2 DIV DUP4 SUB PUSH3 0x1CA JUMPI PUSH1 0xA SSTORE PUSH2 0x20CE DUP3 DUP2 MUL SWAP1 DUP2 DIV DUP4 SUB PUSH3 0x1CA JUMPI PUSH1 0xB SSTORE PUSH2 0x7619 DUP3 DUP2 MUL SWAP1 DUP2 DIV DUP4 SUB PUSH3 0x1CA JUMPI PUSH1 0xC SSTORE PUSH3 0x1A927 DUP3 DUP2 MUL SWAP1 DUP2 DIV DUP4 SUB PUSH3 0x1CA JUMPI PUSH1 0xD SSTORE PUSH3 0x5FA8D DUP3 DUP2 MUL SWAP1 DUP2 DIV DUP4 SUB PUSH3 0x1CA JUMPI PUSH1 0xE SSTORE PUSH3 0x1585FB DUP3 DUP2 MUL SWAP1 DUP2 DIV DUP4 SUB PUSH3 0x1CA JUMPI PUSH1 0xF SSTORE PUSH3 0x4D7BEE SWAP2 DUP1 DUP4 MUL SWAP3 DUP4 DIV SUB PUSH3 0x1B6 JUMPI POP PUSH1 0x10 SSTORE PUSH2 0x1D44 SWAP1 DUP2 PUSH3 0x213 DUP3 CODECOPY RETURN JUMPDEST PUSH4 0x4E487B71 PUSH1 0xE0 SHL DUP2 MSTORE PUSH1 0x11 PUSH1 0x4 MSTORE PUSH1 0x24 SWAP1 REVERT JUMPDEST PUSH4 0x4E487B71 PUSH1 0xE0 SHL DUP3 MSTORE PUSH1 0x11 PUSH1 0x4 MSTORE PUSH1 0x24 DUP3 REVERT JUMPDEST PUSH1 0x40 MLOAD PUSH4 0x1E4FBDF7 PUSH1 0xE0 SHL DUP2 MSTORE PUSH1 0x0 PUSH1 0x4 DUP3 ADD MSTORE PUSH1 0x24 SWAP1 REVERT JUMPDEST PUSH1 0x0 DUP1 REVERT JUMPDEST PUSH4 0x4E487B71 PUSH1 0xE0 SHL PUSH1 0x0 MSTORE PUSH1 0x41 PUSH1 0x4 MSTORE PUSH1 0x24 PUSH1 0x0 REVERT INVALID PUSH1 0x80 PUSH1 0x40 SWAP1 DUP1 DUP3 MSTORE PUSH1 0x4 SWAP2 DUP3 CALLDATASIZE LT ISZERO PUSH2 0x17 JUMPI PUSH1 0x0 DUP1 REVERT JUMPDEST PUSH1 0x0 SWAP3 DUP4 CALLDATALOAD PUSH1 0xE0 SHR SWAP3 DUP4 PUSH4 0x4841337 EQ PUSH2 0x1144 JUMPI POP DUP3 PUSH4 0x6210197 EQ PUSH2 0x10FF JUMPI DUP3 PUSH4 0x21A6816A EQ PUSH2 0xC1D JUMPI DUP3 PUSH4 0x2389E78A EQ PUSH2 0x10D2 JUMPI DUP3 PUSH4 0x29D7F9EB EQ PUSH2 0x1045 JUMPI DUP3 PUSH4 0x2BDBE56D EQ PUSH2 0x1029 JUMPI DUP3 PUSH4 0x2DBE6203 EQ PUSH2 0xFDC JUMPI DUP3 PUSH4 0x3013CE29 EQ PUSH2 0xFB3 JUMPI DUP3 PUSH4 0x39AE9EFD EQ PUSH2 0xF8A JUMPI DUP3 PUSH4 0x3AC272C2 EQ PUSH2 0x29C JUMPI DUP3 PUSH4 0x42369FC3 EQ PUSH2 0xF52 JUMPI DUP3 PUSH4 0x47CD5191 EQ PUSH2 0xEF2 JUMPI DUP3 PUSH4 0x49DCA24F EQ PUSH2 0xEBB JUMPI DUP3 PUSH4 0x4E759962 EQ PUSH2 0xE9F JUMPI DUP3 PUSH4 0x53DAFCBB EQ PUSH2 0xE76 JUMPI DUP3 PUSH4 0x5A33C3DA EQ PUSH2 0xE06 JUMPI DUP3 PUSH4 0x61DBA5F3 EQ PUSH2 0x8B9 JUMPI DUP3 PUSH4 0x686A38BD EQ PUSH2 0xD88 JUMPI DUP3 PUSH4 0x6F8760FE EQ PUSH2 0xD43 JUMPI DUP3 PUSH4 0x715018A6 EQ PUSH2 0xCFB JUMPI DUP3 PUSH4 0x727462E5 EQ PUSH2 0xCB3 JUMPI DUP3 PUSH4 0x732BDC53 EQ PUSH2 0xC97 JUMPI DUP3 PUSH4 0x792BA2F2 EQ PUSH2 0xC55 JUMPI DUP3 PUSH4 0x7D4CF0B8 EQ PUSH2 0x77A JUMPI DUP3 PUSH4 0x86F7D530 EQ PUSH2 0xC1D JUMPI DUP3 PUSH4 0x8919D5E9 EQ PUSH2 0xBF4 JUMPI DUP3 PUSH4 0x898278DC EQ PUSH2 0xB9E JUMPI DUP3 PUSH4 0x8DA5CB5B EQ PUSH2 0xB76 JUMPI DUP3 PUSH4 0x956501BB EQ PUSH2 0x33F JUMPI DUP3 PUSH4 0x96E03328 EQ PUSH2 0x8BE JUMPI DUP3 PUSH4 0x9898FCD3 EQ PUSH2 0x8B9 JUMPI DUP3 PUSH4 0xA5AD0586 EQ PUSH2 0x810 JUMPI DUP3 PUSH4 0xA5C34061 EQ PUSH2 0x7F3 JUMPI DUP3 PUSH4 0xA7229FD9 EQ PUSH2 0x79B JUMPI DUP3 PUSH4 0xB0AC4626 EQ PUSH2 0x77F JUMPI DUP3 PUSH4 0xB2418AF8 EQ PUSH2 0x77A JUMPI DUP3 PUSH4 0xB6B55F25 EQ PUSH2 0x64F JUMPI DUP3 PUSH4 0xC21EBD07 EQ PUSH2 0x626 JUMPI DUP3 PUSH4 0xC319F5BC EQ PUSH2 0x534 JUMPI DUP3 PUSH4 0xCE870263 EQ PUSH2 0x4E7 JUMPI DUP3 PUSH4 0xD3BA4F96 EQ PUSH2 0x4A2 JUMPI DUP3 PUSH4 0xD3E848F1 EQ PUSH2 0x479 JUMPI DUP3 PUSH4 0xD4A90286 EQ PUSH2 0x3EA JUMPI DUP3 PUSH4 0xDE9A7E19 EQ PUSH2 0x3C1 JUMPI DUP3 PUSH4 0xE1F1C4A7 EQ PUSH2 0x3A4 JUMPI DUP3 PUSH4 0xEB63E1C2 EQ PUSH2 0x37B JUMPI DUP3 PUSH4 0xED05AE78 EQ PUSH2 0x33F JUMPI DUP3 PUSH4 0xF2FDE38B EQ PUSH2 0x2C9 JUMPI DUP3 PUSH4 0xF3B36BF8 EQ PUSH2 0x29C JUMPI POP POP PUSH4 0xF8316C90 EQ PUSH2 0x24D JUMPI PUSH1 0x0 DUP1 REVERT JUMPDEST CALLVALUE PUSH2 0x299 JUMPI PUSH1 0x20 CALLDATASIZE PUSH1 0x3 NOT ADD SLT PUSH2 0x299 JUMPI PUSH2 0x266 PUSH2 0x117C JUMP JUMPDEST PUSH2 0x26E PUSH2 0x12AB JUMP JUMPDEST PUSH1 0x1 PUSH1 0x1 PUSH1 0xA0 SHL SUB AND PUSH2 0x282 DUP2 ISZERO ISZERO PUSH2 0x12D7 JUMP JUMPDEST PUSH1 0x16 DUP1 SLOAD PUSH1 0x1 PUSH1 0x1 PUSH1 0xA0 SHL SUB NOT AND SWAP2 SWAP1 SWAP2 OR SWAP1 SSTORE DUP1 RETURN JUMPDEST DUP1 REVERT JUMPDEST SWAP1 SWAP2 POP CALLVALUE PUSH2 0x2C5 JUMPI PUSH1 0x20 CALLDATASIZE PUSH1 0x3 NOT ADD SLT PUSH2 0x2C5 JUMPI PUSH1 0x20 SWAP3 DUP3 SWAP2 CALLDATALOAD DUP2 MSTORE PUSH1 0x2 DUP5 MSTORE KECCAK256 SLOAD SWAP1 MLOAD SWAP1 DUP2 MSTORE RETURN JUMPDEST DUP3 DUP1 REVERT JUMPDEST SWAP1 SWAP2 POP CALLVALUE PUSH2 0x2C5 JUMPI PUSH1 0x20 CALLDATASIZE PUSH1 0x3 NOT ADD SLT PUSH2 0x2C5 JUMPI PUSH2 0x2E5 PUSH2 0x117C JUMP JUMPDEST SWAP1 PUSH2 0x2EE PUSH2 0x12AB JUMP JUMPDEST PUSH1 0x1 PUSH1 0x1 PUSH1 0xA0 SHL SUB SWAP2 DUP3 AND SWAP3 DUP4 ISZERO PUSH2 0x329 JUMPI POP POP DUP3 SLOAD PUSH1 0x1 PUSH1 0x1 PUSH1 0xA0 SHL SUB NOT DUP2 AND DUP4 OR DUP5 SSTORE AND PUSH1 0x0 DUP1 MLOAD PUSH1 0x20 PUSH2 0x1CCF DUP4 CODECOPY DUP2 MLOAD SWAP2 MSTORE DUP4 DUP1 LOG3 DUP1 RETURN JUMPDEST MLOAD PUSH4 0x1E4FBDF7 PUSH1 0xE0 SHL DUP2 MSTORE SWAP1 DUP2 ADD DUP5 SWAP1 MSTORE PUSH1 0x24 SWAP1 REVERT JUMPDEST DUP4 DUP3 CALLVALUE PUSH2 0x377 JUMPI PUSH1 0x20 CALLDATASIZE PUSH1 0x3 NOT ADD SLT PUSH2 0x377 JUMPI PUSH1 0x20 SWAP2 DUP2 SWAP1 PUSH1 0x1 PUSH1 0x1 PUSH1 0xA0 SHL SUB PUSH2 0x367 PUSH2 0x117C JUMP JUMPDEST AND DUP2 MSTORE PUSH1 0x11 DUP5 MSTORE KECCAK256 SLOAD SWAP1 MLOAD SWAP1 DUP2 MSTORE RETURN JUMPDEST POP DUP1 REVERT JUMPDEST SWAP1 SWAP2 POP CALLVALUE PUSH2 0x2C5 JUMPI PUSH1 0x20 CALLDATASIZE PUSH1 0x3 NOT ADD SLT PUSH2 0x2C5 JUMPI PUSH1 0x20 SWAP3 DUP3 SWAP2 CALLDATALOAD DUP2 MSTORE PUSH1 0x1 DUP5 MSTORE KECCAK256 SLOAD SWAP1 MLOAD SWAP1 DUP2 MSTORE RETURN JUMPDEST DUP4 DUP3 CALLVALUE PUSH2 0x377 JUMPI DUP2 PUSH1 0x3 NOT CALLDATASIZE ADD SLT PUSH2 0x377 JUMPI PUSH1 0x20 SWAP1 MLOAD PUSH2 0x2710 DUP2 MSTORE RETURN JUMPDEST DUP4 DUP3 CALLVALUE PUSH2 0x377 JUMPI DUP2 PUSH1 0x3 NOT CALLDATASIZE ADD SLT PUSH2 0x377 JUMPI PUSH1 0x1A SLOAD SWAP1 MLOAD PUSH1 0x1 PUSH1 0x1 PUSH1 0xA0 SHL SUB SWAP1 SWAP2 AND DUP2 MSTORE PUSH1 0x20 SWAP1 RETURN JUMPDEST DUP4 CALLVALUE PUSH2 0x299 JUMPI PUSH2 0x3F9 CALLDATASIZE PUSH2 0x11BA JUMP JUMPDEST SWAP3 DUP2 DUP4 MSTORE PUSH1 0x1 PUSH1 0x20 MSTORE DUP5 DUP4 KECCAK256 SLOAD DUP5 LT ISZERO PUSH2 0x451 JUMPI PUSH1 0x60 DUP6 PUSH2 0x424 DUP7 DUP3 DUP8 DUP8 DUP2 MSTORE PUSH1 0x1 PUSH1 0x20 MSTORE KECCAK256 PUSH2 0x13AF JUMP JUMPDEST POP SWAP1 PUSH1 0x1 DUP1 PUSH1 0xA0 SHL SUB DUP3 SLOAD AND SWAP2 PUSH1 0xFF PUSH1 0x2 PUSH1 0x1 DUP4 ADD SLOAD SWAP3 ADD SLOAD AND SWAP1 DUP3 MLOAD SWAP4 DUP5 MSTORE PUSH1 0x20 DUP5 ADD MSTORE ISZERO ISZERO SWAP1 DUP3 ADD MSTORE RETURN JUMPDEST PUSH1 0x64 SWAP1 PUSH1 0x20 DUP7 MLOAD SWAP2 PUSH3 0x461BCD PUSH1 0xE5 SHL DUP4 MSTORE DUP3 ADD MSTORE PUSH1 0x2 PUSH1 0x24 DUP3 ADD MSTORE PUSH2 0x27A1 PUSH1 0xF1 SHL PUSH1 0x44 DUP3 ADD MSTORE REVERT JUMPDEST DUP4 DUP3 CALLVALUE PUSH2 0x377 JUMPI DUP2 PUSH1 0x3 NOT CALLDATASIZE ADD SLT PUSH2 0x377 JUMPI PUSH1 0x18 SLOAD SWAP1 MLOAD PUSH1 0x1 PUSH1 0x1 PUSH1 0xA0 SHL SUB SWAP1 SWAP2 AND DUP2 MSTORE PUSH1 0x20 SWAP1 RETURN JUMPDEST DUP4 CALLVALUE PUSH2 0x299 JUMPI PUSH1 0x20 CALLDATASIZE PUSH1 0x3 NOT ADD SLT PUSH2 0x299 JUMPI PUSH2 0x4BC PUSH2 0x117C JUMP JUMPDEST PUSH2 0x4C4 PUSH2 0x12AB JUMP JUMPDEST PUSH1 0x17 DUP1 SLOAD PUSH1 0x1 PUSH1 0x1 PUSH1 0xA0 SHL SUB NOT AND PUSH1 0x1 PUSH1 0x1 PUSH1 0xA0 SHL SUB SWAP3 SWAP1 SWAP3 AND SWAP2 SWAP1 SWAP2 OR SWAP1 SSTORE DUP1 RETURN JUMPDEST DUP4 CALLVALUE PUSH2 0x299 JUMPI PUSH1 0x20 CALLDATASIZE PUSH1 0x3 NOT ADD SLT PUSH2 0x299 JUMPI PUSH2 0x501 PUSH2 0x117C JUMP JUMPDEST PUSH2 0x509 PUSH2 0x12AB JUMP JUMPDEST PUSH1 0x1 PUSH1 0x1 PUSH1 0xA0 SHL SUB AND PUSH2 0x51D DUP2 ISZERO ISZERO PUSH2 0x12D7 JUMP JUMPDEST PUSH1 0x19 DUP1 SLOAD PUSH1 0x1 PUSH1 0x1 PUSH1 0xA0 SHL SUB NOT AND SWAP2 SWAP1 SWAP2 OR SWAP1 SSTORE DUP1 RETURN JUMPDEST SWAP1 SWAP2 POP CALLVALUE PUSH2 0x2C5 JUMPI DUP3 PUSH1 0x20 CALLDATASIZE PUSH1 0x3 NOT ADD SLT PUSH2 0x299 JUMPI PUSH1 0x16 SLOAD PUSH2 0x5CE SWAP3 PUSH1 0x1 PUSH1 0x1 PUSH1 0xA0 SHL SUB SWAP2 DUP3 AND SWAP1 PUSH2 0x567 DUP3 ISZERO ISZERO PUSH2 0x1A5C JUMP JUMPDEST DUP3 PUSH1 0x1A SLOAD AND PUSH2 0x577 DUP2 ISZERO ISZERO PUSH2 0x1A99 JUMP JUMPDEST DUP7 MLOAD SWAP4 PUSH2 0x583 DUP6 PUSH2 0x1362 JUMP JUMPDEST PUSH1 0x2 DUP6 MSTORE DUP8 CALLDATASIZE PUSH1 0x20 DUP8 ADD CALLDATACOPY PUSH1 0x14 SLOAD AND PUSH2 0x59B DUP6 PUSH2 0x1AD4 JUMP JUMPDEST MSTORE PUSH2 0x5A5 DUP5 PUSH2 0x1AE1 JUMP JUMPDEST MSTORE DUP6 MLOAD DUP1 SWAP6 DUP2 SWAP5 DUP3 SWAP4 PUSH4 0xD06CA61F PUSH1 0xE0 SHL DUP5 MSTORE DUP1 CALLDATALOAD SWAP1 DUP5 ADD MSTORE DUP9 PUSH1 0x24 DUP5 ADD MSTORE PUSH1 0x44 DUP4 ADD SWAP1 PUSH2 0x1B6C JUMP JUMPDEST SUB SWAP2 GAS STATICCALL SWAP1 DUP2 ISZERO PUSH2 0x61A JUMPI SWAP1 PUSH2 0x5EF SWAP2 DUP5 PUSH1 0x20 SWAP6 SWAP3 PUSH2 0x5F7 JUMPI JUMPDEST POP POP PUSH2 0x1AE1 JUMP JUMPDEST MLOAD SWAP1 MLOAD SWAP1 DUP2 MSTORE RETURN JUMPDEST PUSH2 0x613 SWAP3 POP RETURNDATASIZE DUP1 SWAP2 DUP4 RETURNDATACOPY PUSH2 0x60B DUP2 DUP4 PUSH2 0x137D JUMP JUMPDEST DUP2 ADD SWAP1 PUSH2 0x1AF1 JUMP JUMPDEST CODESIZE DUP1 PUSH2 0x5E8 JUMP JUMPDEST POP POP MLOAD SWAP1 RETURNDATASIZE SWAP1 DUP3 RETURNDATACOPY RETURNDATASIZE SWAP1 REVERT JUMPDEST DUP4 DUP3 CALLVALUE PUSH2 0x377 JUMPI DUP2 PUSH1 0x3 NOT CALLDATASIZE ADD SLT PUSH2 0x377 JUMPI PUSH1 0x16 SLOAD SWAP1 MLOAD PUSH1 0x1 PUSH1 0x1 PUSH1 0xA0 SHL SUB SWAP1 SWAP2 AND DUP2 MSTORE PUSH1 0x20 SWAP1 RETURN JUMPDEST SWAP2 POP CALLVALUE PUSH2 0x2C5 JUMPI PUSH1 0x20 SWAP1 DUP2 PUSH1 0x3 NOT CALLDATASIZE ADD SLT PUSH2 0x776 JUMPI DUP3 CALLDATALOAD SWAP3 PUSH2 0x66F PUSH2 0x1BA9 JUMP JUMPDEST PUSH2 0x67A DUP5 ISZERO ISZERO PUSH2 0x1BD9 JUMP JUMPDEST PUSH1 0x14 SLOAD DUP3 MLOAD PUSH4 0x23B872DD PUSH1 0xE0 SHL DUP8 MSTORE CALLER DUP4 MSTORE ADDRESS PUSH1 0x24 MSTORE PUSH1 0x44 DUP7 SWAP1 MSTORE SWAP2 PUSH1 0x1 PUSH1 0x1 PUSH1 0xA0 SHL SUB SWAP1 SWAP2 AND SWAP1 DUP5 DUP8 PUSH1 0x64 DUP2 DUP1 DUP7 GAS CALL PUSH1 0x1 DUP9 MLOAD EQ DUP2 AND ISZERO PUSH2 0x757 JUMPI JUMPDEST DUP4 DUP6 MSTORE DUP8 PUSH1 0x60 MSTORE ISZERO PUSH2 0x744 JUMPI POP POP POP SWAP1 PUSH32 0x2DA466A7B24304F47E87FA2E1E5A81B9831CE54FEC19055CE277CA2F39BA42C4 SWAP2 CALLER DUP6 MSTORE PUSH1 0x11 DUP3 MSTORE DUP1 DUP6 KECCAK256 PUSH2 0x6FF DUP6 DUP3 SLOAD PUSH2 0x147F JUMP JUMPDEST SWAP1 SSTORE CALLER DUP6 MSTORE PUSH1 0x12 DUP3 MSTORE PUSH2 0x714 DUP5 DUP3 DUP8 KECCAK256 PUSH2 0x1C0A JUMP JUMPDEST CALLER DUP6 MSTORE PUSH1 0x13 DUP3 MSTORE PUSH2 0x728 DUP2 DUP7 KECCAK256 TIMESTAMP SWAP1 PUSH2 0x1C0A JUMP JUMPDEST MLOAD SWAP3 DUP4 MSTORE CALLER SWAP3 LOG2 PUSH1 0x1 PUSH1 0x0 DUP1 MLOAD PUSH1 0x20 PUSH2 0x1CEF DUP4 CODECOPY DUP2 MLOAD SWAP2 MSTORE SSTORE DUP1 RETURN JUMPDEST PUSH4 0x5274AFE7 PUSH1 0xE0 SHL DUP4 MSTORE DUP3 ADD MSTORE PUSH1 0x24 SWAP2 POP REVERT JUMPDEST PUSH1 0x1 DUP2 ISZERO AND PUSH2 0x76D JUMPI DUP3 EXTCODESIZE ISZERO ISZERO RETURNDATASIZE ISZERO AND AND PUSH2 0x6B8 JUMP JUMPDEST DUP4 RETURNDATASIZE DUP10 DUP3 RETURNDATACOPY RETURNDATASIZE SWAP1 REVERT JUMPDEST DUP4 DUP1 REVERT JUMPDEST PUSH2 0x127E JUMP JUMPDEST DUP4 DUP3 CALLVALUE PUSH2 0x377 JUMPI DUP2 PUSH1 0x3 NOT CALLDATASIZE ADD SLT PUSH2 0x377 JUMPI PUSH1 0x20 SWAP1 MLOAD PUSH1 0xA DUP2 MSTORE RETURN JUMPDEST DUP4 CALLVALUE PUSH2 0x299 JUMPI PUSH1 0x60 CALLDATASIZE PUSH1 0x3 NOT ADD SLT PUSH2 0x299 JUMPI PUSH2 0x7B5 PUSH2 0x117C JUMP JUMPDEST PUSH1 0x1 PUSH1 0x1 PUSH1 0xA0 SHL SUB PUSH1 0x24 CALLDATALOAD DUP2 DUP2 AND SWAP3 SWAP2 DUP4 DUP3 SUB PUSH2 0x7EF JUMPI PUSH2 0x7E2 PUSH2 0x7EC SWAP5 PUSH2 0x7DB PUSH2 0x12AB JUMP JUMPDEST ISZERO ISZERO PUSH2 0x12D7 JUMP JUMPDEST PUSH1 0x44 CALLDATALOAD SWAP3 AND PUSH2 0x19DB JUMP JUMPDEST DUP1 RETURN JUMPDEST DUP5 DUP1 REVERT JUMPDEST DUP4 DUP3 CALLVALUE PUSH2 0x377 JUMPI DUP2 PUSH1 0x3 NOT CALLDATASIZE ADD SLT PUSH2 0x377 JUMPI PUSH1 0x20 SWAP1 MLOAD PUSH2 0x7D0 DUP2 MSTORE RETURN JUMPDEST SWAP2 POP CALLVALUE PUSH2 0x2C5 JUMPI DUP1 PUSH1 0x3 NOT CALLDATASIZE ADD SLT PUSH2 0x2C5 JUMPI PUSH2 0x82A PUSH2 0x117C JUMP JUMPDEST SWAP1 PUSH1 0x24 CALLDATALOAD SWAP2 PUSH2 0x837 PUSH2 0x12AB JUMP JUMPDEST PUSH1 0x1 PUSH1 0x1 PUSH1 0xA0 SHL SUB DUP2 DUP2 AND SWAP5 DUP6 ISZERO PUSH2 0x891 JUMPI POP SWAP2 PUSH2 0x889 DUP5 DUP1 SWAP4 PUSH1 0x20 SWAP6 PUSH2 0x880 PUSH32 0xCA1CF43DE312865665F595E88F569F9D5246690C07DF26E86ABA01147E6D1314 SWAP9 ISZERO ISZERO PUSH2 0x1BD9 JUMP JUMPDEST PUSH1 0x14 SLOAD AND PUSH2 0x19DB JUMP JUMPDEST MLOAD SWAP1 DUP2 MSTORE LOG2 DUP1 RETURN JUMPDEST PUSH1 0x64 SWAP1 PUSH1 0x20 DUP6 MLOAD SWAP2 PUSH3 0x461BCD PUSH1 0xE5 SHL DUP4 MSTORE DUP3 ADD MSTORE PUSH1 0x2 PUSH1 0x24 DUP3 ADD MSTORE PUSH2 0x5A41 PUSH1 0xF0 SHL PUSH1 0x44 DUP3 ADD MSTORE REVERT JUMPDEST PUSH2 0x1238 JUMP JUMPDEST SWAP2 POP CALLVALUE PUSH2 0x2C5 JUMPI PUSH2 0x8CE CALLDATASIZE PUSH2 0x11BA JUMP JUMPDEST PUSH2 0x8D9 SWAP3 SWAP2 SWAP3 PUSH2 0x1BA9 JUMP JUMPDEST DUP3 ISZERO PUSH2 0xB45 JUMPI CALLER DUP6 MSTORE PUSH1 0x20 SWAP1 PUSH1 0x3 DUP3 MSTORE DUP4 DUP4 DUP8 KECCAK256 SLOAD LT PUSH2 0xB03 JUMPI PUSH1 0x16 SLOAD PUSH1 0x1 PUSH1 0x1 PUSH1 0xA0 SHL SUB SWAP6 SWAP1 PUSH2 0x90D SWAP1 DUP8 AND ISZERO ISZERO PUSH2 0x1A5C JUMP JUMPDEST PUSH2 0x91C DUP7 PUSH1 0x1A SLOAD AND ISZERO ISZERO PUSH2 0x1A99 JUMP JUMPDEST CALLER DUP8 MSTORE PUSH1 0x3 DUP4 MSTORE DUP4 DUP8 KECCAK256 DUP1 SLOAD SWAP1 DUP7 DUP3 SUB SWAP2 DUP3 GT PUSH2 0xAF0 JUMPI SSTORE DUP7 DUP4 DUP8 PUSH1 0x14 SLOAD AND PUSH1 0x44 DUP10 PUSH1 0x16 SLOAD AND DUP9 MLOAD SWAP5 DUP6 SWAP4 DUP5 SWAP3 PUSH4 0x95EA7B3 PUSH1 0xE0 SHL DUP5 MSTORE DUP9 DUP5 ADD MSTORE DUP12 PUSH1 0x24 DUP5 ADD MSTORE GAS CALL DUP1 ISZERO PUSH2 0xAE6 JUMPI PUSH2 0xAAB JUMPI JUMPDEST POP DUP4 MLOAD SWAP6 PUSH2 0x977 DUP8 PUSH2 0x1362 JUMP JUMPDEST PUSH1 0x2 DUP8 MSTORE DUP5 CALLDATASIZE DUP6 DUP10 ADD CALLDATACOPY DUP1 PUSH1 0x14 SLOAD AND PUSH2 0x98F DUP9 PUSH2 0x1AD4 JUMP JUMPDEST MSTORE DUP1 PUSH1 0x1A SLOAD AND PUSH2 0x99E DUP9 PUSH2 0x1AE1 JUMP JUMPDEST MSTORE PUSH1 0x16 SLOAD AND SWAP1 PUSH2 0x12C TIMESTAMP ADD DUP1 TIMESTAMP GT PUSH2 0xA98 JUMPI DUP9 DUP1 SWAP5 SWAP4 SWAP3 DUP9 SWAP3 PUSH2 0x9E6 DUP10 MLOAD SWAP12 DUP13 SWAP8 DUP9 SWAP7 DUP8 SWAP6 PUSH4 0x38ED1739 PUSH1 0xE0 SHL DUP8 MSTORE DUP7 ADD MSTORE PUSH1 0x24 DUP6 ADD MSTORE PUSH1 0xA0 PUSH1 0x44 DUP6 ADD MSTORE PUSH1 0xA4 DUP5 ADD SWAP1 PUSH2 0x1B6C JUMP JUMPDEST SWAP1 CALLER PUSH1 0x64 DUP5 ADD MSTORE PUSH1 0x84 DUP4 ADD MSTORE SUB SWAP3 GAS CALL SWAP4 DUP5 ISZERO PUSH2 0xA8E JUMPI PUSH32 0xB59929A0CEEDA5FC5DC7C15F3C2B20A06D67071CDECB9466F1470DF5F4BD7BF7 SWAP4 SWAP5 PUSH2 0xA52 SWAP2 DUP8 SWAP2 PUSH2 0xA74 JUMPI JUMPDEST POP PUSH2 0xA35 DUP2 PUSH2 0x1AE1 JUMP JUMPDEST MLOAD CALLER DUP9 MSTORE PUSH1 0x5 DUP5 MSTORE PUSH2 0xA4B DUP6 DUP10 KECCAK256 SWAP2 DUP3 SLOAD PUSH2 0x147F JUMP JUMPDEST SWAP1 SSTORE PUSH2 0x1AE1 JUMP JUMPDEST MLOAD SWAP1 DUP3 MLOAD SWAP5 DUP6 MSTORE DUP5 ADD MSTORE CALLER SWAP3 LOG2 PUSH1 0x1 PUSH1 0x0 DUP1 MLOAD PUSH1 0x20 PUSH2 0x1CEF DUP4 CODECOPY DUP2 MLOAD SWAP2 MSTORE SSTORE DUP1 RETURN JUMPDEST PUSH2 0xA88 SWAP2 POP RETURNDATASIZE DUP1 DUP10 DUP4 RETURNDATACOPY PUSH2 0x60B DUP2 DUP4 PUSH2 0x137D JUMP JUMPDEST CODESIZE PUSH2 0xA2B JUMP JUMPDEST DUP3 MLOAD RETURNDATASIZE DUP8 DUP3 RETURNDATACOPY RETURNDATASIZE SWAP1 REVERT JUMPDEST PUSH4 0x4E487B71 PUSH1 0xE0 SHL DUP10 MSTORE PUSH1 0x11 DUP3 MSTORE PUSH1 0x24 DUP10 REVERT JUMPDEST DUP4 DUP2 DUP2 RETURNDATASIZE DUP4 GT PUSH2 0xADF JUMPI JUMPDEST PUSH2 0xAC0 DUP2 DUP4 PUSH2 0x137D JUMP JUMPDEST DUP2 ADD SUB SLT PUSH2 0xADB JUMPI MLOAD DUP1 ISZERO ISZERO SUB PUSH2 0xAD7 JUMPI CODESIZE PUSH2 0x96A JUMP JUMPDEST DUP7 DUP1 REVERT JUMPDEST DUP8 DUP1 REVERT JUMPDEST POP RETURNDATASIZE PUSH2 0xAB6 JUMP JUMPDEST DUP6 MLOAD RETURNDATASIZE DUP11 DUP3 RETURNDATACOPY RETURNDATASIZE SWAP1 REVERT JUMPDEST PUSH4 0x4E487B71 PUSH1 0xE0 SHL DUP10 MSTORE PUSH1 0x11 DUP4 MSTORE PUSH1 0x24 DUP10 REVERT JUMPDEST DUP3 MLOAD PUSH3 0x461BCD PUSH1 0xE5 SHL DUP2 MSTORE DUP1 DUP7 ADD DUP4 SWAP1 MSTORE PUSH1 0x1C PUSH1 0x24 DUP3 ADD MSTORE PUSH28 0x496E73756666696369656E74207669727475616C2062616C616E6365 PUSH1 0x20 SHL PUSH1 0x44 DUP3 ADD MSTORE PUSH1 0x64 SWAP1 REVERT JUMPDEST DUP2 MLOAD PUSH3 0x461BCD PUSH1 0xE5 SHL DUP2 MSTORE PUSH1 0x20 DUP2 DUP7 ADD MSTORE PUSH1 0xB PUSH1 0x24 DUP3 ADD MSTORE PUSH11 0x16995C9BC8185B5BDD5B9D PUSH1 0xAA SHL PUSH1 0x44 DUP3 ADD MSTORE PUSH1 0x64 SWAP1 REVERT JUMPDEST DUP4 DUP3 CALLVALUE PUSH2 0x377 JUMPI DUP2 PUSH1 0x3 NOT CALLDATASIZE ADD SLT PUSH2 0x377 JUMPI SWAP1 SLOAD SWAP1 MLOAD PUSH1 0x1 PUSH1 0x1 PUSH1 0xA0 SHL SUB SWAP1 SWAP2 AND DUP2 MSTORE PUSH1 0x20 SWAP1 RETURN JUMPDEST DUP4 DUP3 CALLVALUE PUSH2 0x377 JUMPI DUP1 PUSH1 0x3 NOT CALLDATASIZE ADD SLT PUSH2 0x377 JUMPI PUSH2 0xBB8 PUSH2 0x117C JUMP JUMPDEST PUSH1 0x1 PUSH1 0x1 PUSH1 0xA0 SHL SUB AND DUP3 MSTORE PUSH1 0x12 PUSH1 0x20 MSTORE DUP1 DUP3 KECCAK256 DUP1 SLOAD PUSH1 0x24 CALLDATALOAD SWAP4 SWAP1 DUP5 LT ISZERO PUSH2 0x299 JUMPI POP PUSH1 0x20 SWAP3 PUSH2 0xBE6 SWAP2 PUSH2 0x1255 JUMP JUMPDEST SWAP2 SWAP1 SLOAD SWAP1 MLOAD SWAP2 PUSH1 0x3 SHL SHR DUP2 MSTORE RETURN JUMPDEST DUP4 DUP3 CALLVALUE PUSH2 0x377 JUMPI DUP2 PUSH1 0x3 NOT CALLDATASIZE ADD SLT PUSH2 0x377 JUMPI PUSH1 0x15 SLOAD SWAP1 MLOAD PUSH1 0x1 PUSH1 0x1 PUSH1 0xA0 SHL SUB SWAP1 SWAP2 AND DUP2 MSTORE PUSH1 0x20 SWAP1 RETURN JUMPDEST DUP4 DUP3 CALLVALUE PUSH2 0x377 JUMPI PUSH1 0x20 CALLDATASIZE PUSH1 0x3 NOT ADD SLT PUSH2 0x377 JUMPI PUSH1 0x20 SWAP2 DUP2 SWAP1 PUSH1 0x1 PUSH1 0x1 PUSH1 0xA0 SHL SUB PUSH2 0xC45 PUSH2 0x117C JUMP JUMPDEST AND DUP2 MSTORE PUSH1 0x5 DUP5 MSTORE KECCAK256 SLOAD SWAP1 MLOAD SWAP1 DUP2 MSTORE RETURN JUMPDEST DUP4 CALLVALUE PUSH2 0x299 JUMPI PUSH1 0x20 CALLDATASIZE PUSH1 0x3 NOT ADD SLT PUSH2 0x299 JUMPI DUP3 SWAP1 PUSH1 0x1 PUSH1 0x1 PUSH1 0xA0 SHL SUB PUSH2 0xC79 PUSH2 0x117C JUMP JUMPDEST AND DUP2 MSTORE PUSH1 0x3 PUSH1 0x20 MSTORE DUP2 DUP2 KECCAK256 SLOAD SWAP3 PUSH1 0x20 MSTORE KECCAK256 SLOAD DUP3 MLOAD SWAP2 DUP3 MSTORE PUSH1 0x20 DUP3 ADD MSTORE RETURN JUMPDEST DUP4 DUP3 CALLVALUE PUSH2 0x377 JUMPI DUP2 PUSH1 0x3 NOT CALLDATASIZE ADD SLT PUSH2 0x377 JUMPI PUSH1 0x20 SWAP1 MLOAD PUSH1 0xC8 DUP2 MSTORE RETURN JUMPDEST DUP4 DUP3 CALLVALUE PUSH2 0x377 JUMPI DUP1 PUSH1 0x3 NOT CALLDATASIZE ADD SLT PUSH2 0x377 JUMPI PUSH2 0xCCD PUSH2 0x117C JUMP JUMPDEST PUSH1 0x1 PUSH1 0x1 PUSH1 0xA0 SHL SUB AND DUP3 MSTORE PUSH1 0x13 PUSH1 0x20 MSTORE DUP1 DUP3 KECCAK256 DUP1 SLOAD PUSH1 0x24 CALLDATALOAD SWAP4 SWAP1 DUP5 LT ISZERO PUSH2 0x299 JUMPI POP PUSH1 0x20 SWAP3 PUSH2 0xBE6 SWAP2 PUSH2 0x1255 JUMP JUMPDEST DUP4 CALLVALUE PUSH2 0x299 JUMPI DUP1 PUSH1 0x3 NOT CALLDATASIZE ADD SLT PUSH2 0x299 JUMPI PUSH2 0xD14 PUSH2 0x12AB JUMP JUMPDEST DUP1 SLOAD PUSH1 0x1 PUSH1 0x1 PUSH1 0xA0 SHL SUB NOT DUP2 AND DUP3 SSTORE DUP2 SWAP1 PUSH1 0x1 PUSH1 0x1 PUSH1 0xA0 SHL SUB AND PUSH1 0x0 DUP1 MLOAD PUSH1 0x20 PUSH2 0x1CCF DUP4 CODECOPY DUP2 MLOAD SWAP2 MSTORE DUP3 DUP1 LOG3 DUP1 RETURN JUMPDEST DUP4 CALLVALUE PUSH2 0x299 JUMPI PUSH1 0x20 CALLDATASIZE PUSH1 0x3 NOT ADD SLT PUSH2 0x299 JUMPI PUSH2 0xD5D PUSH2 0x117C JUMP JUMPDEST PUSH2 0xD65 PUSH2 0x12AB JUMP JUMPDEST PUSH1 0x15 DUP1 SLOAD PUSH1 0x1 PUSH1 0x1 PUSH1 0xA0 SHL SUB NOT AND PUSH1 0x1 PUSH1 0x1 PUSH1 0xA0 SHL SUB SWAP3 SWAP1 SWAP3 AND SWAP2 SWAP1 SWAP2 OR SWAP1 SSTORE DUP1 RETURN JUMPDEST SWAP1 SWAP2 POP CALLVALUE PUSH2 0x2C5 JUMPI DUP2 PUSH1 0x3 NOT CALLDATASIZE ADD SLT PUSH2 0x2C5 JUMPI PUSH2 0xDA3 PUSH2 0x117C JUMP JUMPDEST PUSH1 0x19 SLOAD SWAP1 SWAP3 SWAP1 CALLER PUSH1 0x1 PUSH1 0x1 PUSH1 0xA0 SHL SUB SWAP2 DUP3 AND EQ SWAP1 DUP2 ISZERO PUSH2 0xDF9 JUMPI JUMPDEST POP ISZERO PUSH2 0xDD1 JUMPI DUP4 PUSH2 0x7EC PUSH1 0x24 CALLDATALOAD DUP6 PUSH2 0x148C JUMP JUMPDEST SWAP1 PUSH1 0x20 PUSH1 0x64 SWAP3 MLOAD SWAP2 PUSH3 0x461BCD PUSH1 0xE5 SHL DUP4 MSTORE DUP3 ADD MSTORE PUSH1 0x2 PUSH1 0x24 DUP3 ADD MSTORE PUSH2 0x4E41 PUSH1 0xF0 SHL PUSH1 0x44 DUP3 ADD MSTORE REVERT JUMPDEST SWAP1 POP DUP5 SLOAD AND CALLER EQ CODESIZE PUSH2 0xDBE JUMP JUMPDEST DUP4 DUP3 CALLVALUE PUSH2 0x377 JUMPI PUSH1 0x20 CALLDATASIZE PUSH1 0x3 NOT ADD SLT PUSH2 0x377 JUMPI PUSH1 0x1 PUSH1 0x1 PUSH1 0xA0 SHL SUB PUSH2 0xE29 PUSH2 0x117C JUMP JUMPDEST AND DUP3 MSTORE PUSH1 0x12 PUSH1 0x20 MSTORE PUSH2 0xE72 PUSH2 0xE51 PUSH2 0xE4B DUP4 DUP1 DUP7 KECCAK256 SWAP6 PUSH1 0x13 PUSH1 0x20 MSTORE KECCAK256 SWAP5 PUSH2 0x1C3F JUMP JUMPDEST SWAP4 PUSH2 0x1C3F JUMP JUMPDEST PUSH2 0xE64 DUP4 MLOAD SWAP5 DUP5 DUP7 SWAP6 DUP7 MSTORE DUP6 ADD SWAP1 PUSH2 0x1204 JUMP JUMPDEST SWAP1 DUP4 DUP3 SUB PUSH1 0x20 DUP6 ADD MSTORE PUSH2 0x1204 JUMP JUMPDEST SUB SWAP1 RETURN JUMPDEST DUP4 DUP3 CALLVALUE PUSH2 0x377 JUMPI DUP2 PUSH1 0x3 NOT CALLDATASIZE ADD SLT PUSH2 0x377 JUMPI PUSH1 0x19 SLOAD SWAP1 MLOAD PUSH1 0x1 PUSH1 0x1 PUSH1 0xA0 SHL SUB SWAP1 SWAP2 AND DUP2 MSTORE PUSH1 0x20 SWAP1 RETURN JUMPDEST DUP4 DUP3 CALLVALUE PUSH2 0x377 JUMPI DUP2 PUSH1 0x3 NOT CALLDATASIZE ADD SLT PUSH2 0x377 JUMPI PUSH1 0x20 SWAP1 MLOAD PUSH1 0xC DUP2 MSTORE RETURN JUMPDEST SWAP1 SWAP2 POP CALLVALUE PUSH2 0x2C5 JUMPI PUSH1 0x20 CALLDATASIZE PUSH1 0x3 NOT ADD SLT PUSH2 0x2C5 JUMPI PUSH1 0x20 SWAP3 DUP3 SWAP2 PUSH1 0x1 PUSH1 0x1 PUSH1 0xA0 SHL SUB PUSH2 0xEE4 PUSH2 0x117C JUMP JUMPDEST AND DUP3 MSTORE DUP5 MSTORE KECCAK256 SLOAD SWAP1 MLOAD SWAP1 DUP2 MSTORE RETURN JUMPDEST SWAP1 DUP4 CALLVALUE PUSH2 0x299 JUMPI PUSH1 0x20 CALLDATASIZE PUSH1 0x3 NOT ADD SLT PUSH2 0x299 JUMPI DUP3 CALLDATALOAD SWAP1 PUSH1 0x1 DUP3 LT ISZERO DUP1 PUSH2 0xF47 JUMPI JUMPDEST PUSH2 0xF1C SWAP1 PUSH2 0x1308 JUMP JUMPDEST PUSH1 0xB DUP3 LT ISZERO PUSH2 0xF34 JUMPI PUSH1 0x20 DUP4 DUP4 PUSH1 0x6 ADD SLOAD SWAP1 MLOAD SWAP1 DUP2 MSTORE RETURN JUMPDEST PUSH4 0x4E487B71 PUSH1 0xE0 SHL DUP2 MSTORE PUSH1 0x32 DUP5 MSTORE PUSH1 0x24 SWAP1 REVERT JUMPDEST POP PUSH1 0xA DUP3 GT ISZERO PUSH2 0xF13 JUMP JUMPDEST DUP4 DUP3 CALLVALUE PUSH2 0x377 JUMPI PUSH1 0x20 CALLDATASIZE PUSH1 0x3 NOT ADD SLT PUSH2 0x377 JUMPI PUSH1 0x20 SWAP2 DUP2 SWAP1 PUSH1 0x1 PUSH1 0x1 PUSH1 0xA0 SHL SUB PUSH2 0xF7A PUSH2 0x117C JUMP JUMPDEST AND DUP2 MSTORE PUSH1 0x3 DUP5 MSTORE KECCAK256 SLOAD SWAP1 MLOAD SWAP1 DUP2 MSTORE RETURN JUMPDEST DUP4 DUP3 CALLVALUE PUSH2 0x377 JUMPI DUP2 PUSH1 0x3 NOT CALLDATASIZE ADD SLT PUSH2 0x377 JUMPI PUSH1 0x17 SLOAD SWAP1 MLOAD PUSH1 0x1 PUSH1 0x1 PUSH1 0xA0 SHL SUB SWAP1 SWAP2 AND DUP2 MSTORE PUSH1 0x20 SWAP1 RETURN JUMPDEST DUP4 DUP3 CALLVALUE PUSH2 0x377 JUMPI DUP2 PUSH1 0x3 NOT CALLDATASIZE ADD SLT PUSH2 0x377 JUMPI PUSH1 0x14 SLOAD SWAP1 MLOAD PUSH1 0x1 PUSH1 0x1 PUSH1 0xA0 SHL SUB SWAP1 SWAP2 AND DUP2 MSTORE PUSH1 0x20 SWAP1 RETURN JUMPDEST DUP4 CALLVALUE PUSH2 0x299 JUMPI PUSH1 0x20 CALLDATASIZE PUSH1 0x3 NOT ADD SLT PUSH2 0x299 JUMPI PUSH2 0xFF6 PUSH2 0x117C JUMP JUMPDEST PUSH2 0xFFE PUSH2 0x12AB JUMP JUMPDEST PUSH1 0x1 PUSH1 0x1 PUSH1 0xA0 SHL SUB AND PUSH2 0x1012 DUP2 ISZERO ISZERO PUSH2 0x12D7 JUMP JUMPDEST PUSH1 0x1A DUP1 SLOAD PUSH1 0x1 PUSH1 0x1 PUSH1 0xA0 SHL SUB NOT AND SWAP2 SWAP1 SWAP2 OR SWAP1 SSTORE DUP1 RETURN JUMPDEST DUP4 DUP3 CALLVALUE PUSH2 0x377 JUMPI DUP2 PUSH1 0x3 NOT CALLDATASIZE ADD SLT PUSH2 0x377 JUMPI PUSH1 0x20 SWAP1 MLOAD PUSH1 0x9 DUP2 MSTORE RETURN JUMPDEST SWAP2 POP CALLVALUE PUSH2 0x2C5 JUMPI PUSH2 0x1055 CALLDATASIZE PUSH2 0x11BA JUMP JUMPDEST SWAP3 SWAP1 SWAP2 PUSH2 0x1060 PUSH2 0x12AB JUMP JUMPDEST PUSH1 0x1 DUP4 LT ISZERO DUP1 PUSH2 0x10C7 JUMPI JUMPDEST PUSH2 0x1074 SWAP1 PUSH2 0x1308 JUMP JUMPDEST DUP4 ISZERO PUSH2 0x109F JUMPI POP PUSH1 0xB DUP3 LT ISZERO PUSH2 0x108C JUMPI POP PUSH1 0x6 ADD SSTORE DUP1 RETURN JUMPDEST PUSH4 0x4E487B71 PUSH1 0xE0 SHL DUP5 MSTORE PUSH1 0x32 SWAP1 MSTORE PUSH1 0x24 DUP4 REVERT JUMPDEST SWAP1 PUSH1 0x20 PUSH1 0x64 SWAP3 MLOAD SWAP2 PUSH3 0x461BCD PUSH1 0xE5 SHL DUP4 MSTORE DUP3 ADD MSTORE PUSH1 0x2 PUSH1 0x24 DUP3 ADD MSTORE PUSH2 0x503 PUSH1 0xF4 SHL PUSH1 0x44 DUP3 ADD MSTORE REVERT JUMPDEST POP PUSH1 0xA DUP4 GT ISZERO PUSH2 0x106B JUMP JUMPDEST SWAP1 SWAP2 POP CALLVALUE PUSH2 0x2C5 JUMPI PUSH1 0x20 CALLDATASIZE PUSH1 0x3 NOT ADD SLT PUSH2 0x2C5 JUMPI CALLDATALOAD PUSH1 0xB DUP2 LT ISZERO PUSH2 0x2C5 JUMPI PUSH1 0x20 SWAP3 POP PUSH1 0x6 ADD SLOAD SWAP1 MLOAD SWAP1 DUP2 MSTORE RETURN JUMPDEST DUP4 CALLVALUE PUSH2 0x299 JUMPI PUSH1 0x20 CALLDATASIZE PUSH1 0x3 NOT ADD SLT PUSH2 0x299 JUMPI PUSH2 0x1119 PUSH2 0x117C JUMP JUMPDEST PUSH2 0x1121 PUSH2 0x12AB JUMP JUMPDEST PUSH1 0x18 DUP1 SLOAD PUSH1 0x1 PUSH1 0x1 PUSH1 0xA0 SHL SUB NOT AND PUSH1 0x1 PUSH1 0x1 PUSH1 0xA0 SHL SUB SWAP3 SWAP1 SWAP3 AND SWAP2 SWAP1 SWAP2 OR SWAP1 SSTORE DUP1 RETURN JUMPDEST DUP5 SWAP1 CALLVALUE PUSH2 0x377 JUMPI DUP2 PUSH1 0x3 NOT CALLDATASIZE ADD SLT PUSH2 0x377 JUMPI DUP1 PUSH2 0x222E PUSH1 0x20 SWAP3 MSTORE RETURN JUMPDEST PUSH1 0x0 SWAP2 SUB SLT PUSH2 0x116B JUMPI JUMP JUMPDEST PUSH1 0x0 DUP1 REVERT JUMPDEST PUSH1 0x1 PUSH1 0x1 PUSH1 0xA0 SHL SUB AND SWAP1 JUMP JUMPDEST PUSH1 0x4 CALLDATALOAD SWAP1 PUSH1 0x1 PUSH1 0x1 PUSH1 0xA0 SHL SUB DUP3 AND DUP3 SUB PUSH2 0x116B JUMPI JUMP JUMPDEST PUSH1 0xB DUP2 LT ISZERO PUSH2 0x11A4 JUMPI PUSH1 0x6 ADD SWAP1 PUSH1 0x0 SWAP1 JUMP JUMPDEST PUSH4 0x4E487B71 PUSH1 0xE0 SHL PUSH1 0x0 MSTORE PUSH1 0x32 PUSH1 0x4 MSTORE PUSH1 0x24 PUSH1 0x0 REVERT JUMPDEST PUSH1 0x40 SWAP1 PUSH1 0x3 NOT ADD SLT PUSH2 0x116B JUMPI PUSH1 0x4 CALLDATALOAD SWAP1 PUSH1 0x24 CALLDATALOAD SWAP1 JUMP JUMPDEST PUSH1 0x1 PUSH1 0x1 PUSH1 0xA0 SHL SUB AND PUSH1 0x0 SWAP1 DUP2 MSTORE PUSH1 0x3 PUSH1 0x20 MSTORE PUSH1 0x40 SWAP1 KECCAK256 SWAP1 JUMP JUMPDEST PUSH1 0x1 PUSH1 0x1 PUSH1 0xA0 SHL SUB AND PUSH1 0x0 SWAP1 DUP2 MSTORE PUSH1 0x4 PUSH1 0x20 MSTORE PUSH1 0x40 SWAP1 KECCAK256 SWAP1 JUMP JUMPDEST SWAP1 DUP2 MLOAD DUP1 DUP3 MSTORE PUSH1 0x20 DUP1 DUP1 SWAP4 ADD SWAP4 ADD SWAP2 PUSH1 0x0 JUMPDEST DUP3 DUP2 LT PUSH2 0x1224 JUMPI POP POP POP POP SWAP1 JUMP JUMPDEST DUP4 MLOAD DUP6 MSTORE SWAP4 DUP2 ADD SWAP4 SWAP3 DUP2 ADD SWAP3 PUSH1 0x1 ADD PUSH2 0x1216 JUMP JUMPDEST CALLVALUE PUSH2 0x116B JUMPI PUSH1 0x0 CALLDATASIZE PUSH1 0x3 NOT ADD SLT PUSH2 0x116B JUMPI PUSH1 0x20 PUSH1 0x40 MLOAD PUSH2 0xFA0 DUP2 MSTORE RETURN JUMPDEST DUP1 SLOAD DUP3 LT ISZERO PUSH2 0x11A4 JUMPI PUSH1 0x0 MSTORE PUSH1 0x20 PUSH1 0x0 KECCAK256 ADD SWAP1 PUSH1 0x0 SWAP1 JUMP JUMPDEST SWAP1 DUP2 MSTORE PUSH1 0x20 DUP2 ADD SWAP2 SWAP1 SWAP2 MSTORE PUSH1 0x40 ADD SWAP1 JUMP JUMPDEST CALLVALUE PUSH2 0x116B JUMPI PUSH1 0x0 CALLDATASIZE PUSH1 0x3 NOT ADD SLT PUSH2 0x116B JUMPI PUSH1 0x20 PUSH1 0x40 MLOAD PUSH2 0x271 DUP2 MSTORE RETURN JUMPDEST PUSH1 0x0 MSTORE PUSH1 0x1 PUSH1 0x20 MSTORE PUSH1 0x40 PUSH1 0x0 KECCAK256 SWAP1 JUMP JUMPDEST PUSH1 0x0 SLOAD PUSH1 0x1 PUSH1 0x1 PUSH1 0xA0 SHL SUB AND CALLER SUB PUSH2 0x12BF JUMPI JUMP JUMPDEST PUSH1 0x40 MLOAD PUSH4 0x118CDAA7 PUSH1 0xE0 SHL DUP2 MSTORE CALLER PUSH1 0x4 DUP3 ADD MSTORE PUSH1 0x24 SWAP1 REVERT JUMPDEST ISZERO PUSH2 0x12DE JUMPI JUMP JUMPDEST PUSH1 0x40 MLOAD PUSH3 0x461BCD PUSH1 0xE5 SHL DUP2 MSTORE PUSH1 0x20 PUSH1 0x4 DUP3 ADD MSTORE PUSH1 0x2 PUSH1 0x24 DUP3 ADD MSTORE PUSH2 0x24AB PUSH1 0xF1 SHL PUSH1 0x44 DUP3 ADD MSTORE PUSH1 0x64 SWAP1 REVERT JUMPDEST ISZERO PUSH2 0x130F JUMPI JUMP JUMPDEST PUSH1 0x40 MLOAD PUSH3 0x461BCD PUSH1 0xE5 SHL DUP2 MSTORE PUSH1 0x20 PUSH1 0x4 DUP3 ADD MSTORE PUSH1 0x2 PUSH1 0x24 DUP3 ADD MSTORE PUSH2 0x1093 PUSH1 0xF2 SHL PUSH1 0x44 DUP3 ADD MSTORE PUSH1 0x64 SWAP1 REVERT JUMPDEST PUSH1 0x1 PUSH1 0x1 PUSH1 0x40 SHL SUB DUP2 GT PUSH2 0x134C JUMPI PUSH1 0x40 MSTORE JUMP JUMPDEST PUSH4 0x4E487B71 PUSH1 0xE0 SHL PUSH1 0x0 MSTORE PUSH1 0x41 PUSH1 0x4 MSTORE PUSH1 0x24 PUSH1 0x0 REVERT JUMPDEST PUSH1 0x60 DUP2 ADD SWAP1 DUP2 LT PUSH1 0x1 PUSH1 0x1 PUSH1 0x40 SHL SUB DUP3 GT OR PUSH2 0x134C JUMPI PUSH1 0x40 MSTORE JUMP JUMPDEST PUSH1 0x1F SWAP1 SWAP2 ADD PUSH1 0x1F NOT AND DUP2 ADD SWAP1 PUSH1 0x1 PUSH1 0x1 PUSH1 0x40 SHL SUB DUP3 GT SWAP1 DUP3 LT OR PUSH2 0x134C JUMPI PUSH1 0x40 MSTORE JUMP JUMPDEST PUSH1 0x40 MLOAD SWAP1 PUSH2 0x13AD DUP3 PUSH2 0x1362 JUMP JUMPDEST JUMP JUMPDEST DUP1 SLOAD DUP3 LT ISZERO PUSH2 0x11A4 JUMPI PUSH1 0x0 MSTORE PUSH1 0x3 PUSH1 0x20 PUSH1 0x0 KECCAK256 SWAP2 MUL ADD SWAP1 PUSH1 0x0 SWAP1 JUMP JUMPDEST DUP1 SLOAD PUSH1 0x1 PUSH1 0x40 SHL DUP2 LT ISZERO PUSH2 0x134C JUMPI PUSH2 0x13E8 SWAP2 PUSH1 0x1 DUP3 ADD DUP2 SSTORE PUSH2 0x13AF JUMP JUMPDEST PUSH2 0x1427 JUMPI PUSH1 0x2 PUSH1 0x40 SWAP2 PUSH1 0x1 DUP1 PUSH1 0xA0 SHL SUB DUP5 MLOAD AND PUSH1 0x1 DUP1 PUSH1 0xA0 SHL SUB NOT DUP3 SLOAD AND OR DUP2 SSTORE PUSH1 0x20 DUP5 ADD MLOAD PUSH1 0x1 DUP3 ADD SSTORE ADD SWAP2 ADD MLOAD ISZERO ISZERO PUSH1 0xFF DUP1 NOT DUP4 SLOAD AND SWAP2 AND OR SWAP1 SSTORE JUMP JUMPDEST PUSH4 0x4E487B71 PUSH1 0xE0 SHL PUSH1 0x0 MSTORE PUSH1 0x0 PUSH1 0x4 MSTORE PUSH1 0x24 PUSH1 0x0 REVERT JUMPDEST PUSH1 0x0 NOT DUP2 ADD SWAP2 SWAP1 DUP3 GT PUSH2 0x144C JUMPI JUMP JUMPDEST PUSH4 0x4E487B71 PUSH1 0xE0 SHL PUSH1 0x0 MSTORE PUSH1 0x11 PUSH1 0x4 MSTORE PUSH1 0x24 PUSH1 0x0 REVERT JUMPDEST PUSH1 0x0 NOT DUP2 EQ PUSH2 0x144C JUMPI PUSH1 0x1 ADD SWAP1 JUMP JUMPDEST SWAP1 PUSH1 0x1 DUP3 ADD DUP1 SWAP3 GT PUSH2 0x144C JUMPI JUMP JUMPDEST SWAP2 SWAP1 DUP3 ADD DUP1 SWAP3 GT PUSH2 0x144C JUMPI JUMP JUMPDEST SWAP1 PUSH2 0x14C1 PUSH2 0x1499 DUP3 PUSH2 0x129B JUMP JUMPDEST PUSH2 0x14A1 PUSH2 0x13A0 JUMP JUMPDEST PUSH1 0x1 PUSH1 0x1 PUSH1 0xA0 SHL SUB DUP6 AND DUP2 MSTORE SWAP1 PUSH1 0x0 PUSH1 0x20 DUP4 ADD MSTORE PUSH1 0x0 PUSH1 0x40 DUP4 ADD MSTORE PUSH2 0x13CB JUMP JUMPDEST DUP1 PUSH2 0x14D4 PUSH2 0x14CE DUP3 PUSH2 0x129B JUMP JUMPDEST SLOAD PUSH2 0x143D JUMP JUMPDEST PUSH1 0x40 MLOAD DUP2 DUP2 MSTORE SWAP1 SWAP4 PUSH1 0x1 PUSH1 0x1 PUSH1 0xA0 SHL SUB AND SWAP1 PUSH32 0x4E755DD64E53A9F7A5882E2E32EB64718C2273DE11E017BD47129B9FE2716D7C SWAP1 PUSH1 0x20 SWAP1 LOG3 PUSH2 0x1520 DUP2 PUSH1 0x0 MSTORE PUSH1 0x2 PUSH1 0x20 MSTORE PUSH1 0x40 PUSH1 0x0 KECCAK256 SWAP1 JUMP JUMPDEST SLOAD SWAP2 DUP3 LT PUSH2 0x152C JUMPI POP POP JUMP JUMPDEST PUSH2 0x153E DUP3 PUSH2 0x1539 DUP4 PUSH2 0x129B JUMP JUMPDEST PUSH2 0x13AF JUMP JUMPDEST POP SWAP2 PUSH1 0xC PUSH1 0x1 DUP5 ADD PUSH2 0x1550 DUP2 SLOAD PUSH2 0x1462 JUMP JUMPDEST DUP1 SWAP2 SSTORE LT ISZERO PUSH2 0x155E JUMPI POP POP POP JUMP JUMPDEST DUP3 PUSH2 0x1582 PUSH2 0x159D SWAP3 PUSH2 0x157D PUSH1 0x2 PUSH2 0x13AD SWAP8 ADD PUSH1 0x1 PUSH1 0xFF NOT DUP3 SLOAD AND OR SWAP1 SSTORE JUMP JUMPDEST PUSH2 0x1471 JUMP JUMPDEST PUSH2 0x1596 DUP5 PUSH1 0x0 MSTORE PUSH1 0x2 PUSH1 0x20 MSTORE PUSH1 0x40 PUSH1 0x0 KECCAK256 SWAP1 JUMP JUMPDEST SSTORE SLOAD PUSH2 0x1170 JUMP JUMPDEST PUSH2 0x163E JUMP JUMPDEST SWAP1 PUSH1 0x9 DUP3 MUL SWAP2 DUP1 DUP4 DIV PUSH1 0x9 EQ SWAP1 ISZERO OR ISZERO PUSH2 0x144C JUMPI JUMP JUMPDEST SWAP1 PUSH2 0x222E SWAP2 DUP3 DUP2 MUL SWAP3 DUP2 DUP5 DIV EQ SWAP1 ISZERO OR ISZERO PUSH2 0x144C JUMPI JUMP JUMPDEST SWAP1 PUSH2 0x271 SWAP2 DUP3 DUP2 MUL SWAP3 DUP2 DUP5 DIV EQ SWAP1 ISZERO OR ISZERO PUSH2 0x144C JUMPI JUMP JUMPDEST SWAP1 PUSH2 0xFA0 SWAP2 DUP3 DUP2 MUL SWAP3 DUP2 DUP5 DIV EQ SWAP1 ISZERO OR ISZERO PUSH2 0x144C JUMPI JUMP JUMPDEST SWAP1 PUSH2 0x7D0 SWAP2 DUP3 DUP2 MUL SWAP3 DUP2 DUP5 DIV EQ SWAP1 ISZERO OR ISZERO PUSH2 0x144C JUMPI JUMP JUMPDEST PUSH1 0x40 SWAP2 SWAP5 SWAP4 SWAP3 PUSH1 0x60 DUP3 ADD SWAP6 PUSH1 0x1 DUP1 PUSH1 0xA0 SHL SUB AND DUP3 MSTORE PUSH1 0x20 DUP3 ADD MSTORE ADD MSTORE JUMP JUMPDEST PUSH1 0x40 MLOAD RETURNDATASIZE PUSH1 0x0 DUP3 RETURNDATACOPY RETURNDATASIZE SWAP1 REVERT JUMPDEST PUSH2 0x165C PUSH2 0x1657 PUSH2 0x164D DUP5 PUSH2 0x1192 JUMP JUMPDEST SWAP1 SLOAD SWAP1 PUSH1 0x3 SHL SHR SWAP1 JUMP JUMPDEST PUSH2 0x15A2 JUMP JUMPDEST SWAP2 PUSH1 0xA DUP2 LT ISZERO PUSH2 0x186A JUMPI PUSH2 0x1686 PUSH2 0x1678 PUSH2 0x1680 PUSH2 0x1678 DUP7 PUSH2 0x15E6 JUMP JUMPDEST PUSH2 0x2710 SWAP1 DIV SWAP1 JUMP JUMPDEST SWAP5 PUSH2 0x15FD JUMP JUMPDEST SWAP3 PUSH2 0x1690 DUP4 PUSH2 0x11D0 JUMP JUMPDEST PUSH2 0x169B DUP3 DUP3 SLOAD PUSH2 0x147F JUMP JUMPDEST SWAP1 SSTORE PUSH2 0x16A6 DUP4 PUSH2 0x11EA JUMP JUMPDEST PUSH2 0x16B1 DUP3 DUP3 SLOAD PUSH2 0x147F JUMP JUMPDEST SWAP1 SSTORE PUSH1 0x40 MLOAD PUSH1 0x1 PUSH1 0x1 PUSH1 0xA0 SHL SUB DUP5 DUP2 AND SWAP3 SWAP2 DUP4 SWAP1 PUSH1 0x0 DUP1 MLOAD PUSH1 0x20 PUSH2 0x1CAF DUP4 CODECOPY DUP2 MLOAD SWAP2 MSTORE SWAP1 DUP1 PUSH2 0x16E1 DUP9 DUP8 DUP4 PUSH2 0x126D JUMP JUMPDEST SUB SWAP1 LOG2 PUSH2 0x16EF PUSH1 0x17 SLOAD PUSH2 0x1170 JUMP JUMPDEST DUP7 DUP3 DUP3 AND PUSH2 0x184F JUMPI JUMPDEST POP POP PUSH2 0x1705 PUSH1 0x19 SLOAD PUSH2 0x1170 JUMP JUMPDEST AND DUP1 PUSH2 0x1744 JUMPI JUMPDEST POP SWAP2 DUP1 SWAP2 PUSH1 0x0 DUP1 MLOAD PUSH1 0x20 PUSH2 0x1C8F DUP4 CODECOPY DUP2 MLOAD SWAP2 MSTORE PUSH2 0x13AD SWAP7 PUSH2 0x173E SWAP6 PUSH2 0x1736 PUSH1 0x40 MLOAD SWAP3 DUP4 SWAP3 DUP4 PUSH2 0x126D JUMP JUMPDEST SUB SWAP1 LOG3 PUSH2 0x1471 JUMP JUMPDEST SWAP1 PUSH2 0x148C JUMP JUMPDEST DUP1 SWAP4 SWAP3 SWAP2 SWAP4 EXTCODESIZE ISZERO PUSH2 0x116B JUMPI PUSH1 0x40 MLOAD PUSH4 0x1A495E57 PUSH1 0xE3 SHL DUP2 MSTORE PUSH1 0x0 SWAP2 DUP3 SWAP1 DUP3 SWAP1 DUP2 DUP4 DUP2 PUSH2 0x1775 DUP11 DUP13 DUP15 PUSH1 0x4 DUP6 ADD PUSH2 0x1614 JUMP JUMPDEST SUB SWAP3 GAS CALL DUP1 ISZERO PUSH2 0x1837 JUMPI PUSH2 0x183C JUMPI JUMPDEST POP PUSH2 0x179B PUSH2 0x1796 PUSH2 0x1796 PUSH1 0x19 SLOAD PUSH2 0x1170 JUMP JUMPDEST PUSH2 0x1170 JUMP JUMPDEST PUSH2 0x17AF PUSH2 0x164D PUSH2 0x17AA DUP7 PUSH2 0x1471 JUMP JUMPDEST PUSH2 0x1192 JUMP JUMPDEST SWAP1 PUSH2 0x17B9 DUP6 PUSH2 0x1471 JUMP JUMPDEST SWAP2 DUP2 EXTCODESIZE ISZERO PUSH2 0x776 JUMPI PUSH1 0x40 MLOAD PUSH4 0xECDC5907 PUSH1 0xE0 SHL DUP2 MSTORE SWAP5 SWAP4 SWAP3 DUP6 SWAP3 SWAP2 DUP4 SWAP2 DUP6 SWAP2 DUP4 SWAP2 PUSH2 0x17E8 SWAP2 DUP14 PUSH1 0x4 DUP6 ADD PUSH2 0x1614 JUMP JUMPDEST SUB SWAP3 GAS CALL DUP1 ISZERO PUSH2 0x1837 JUMPI PUSH2 0x13AD SWAP7 PUSH2 0x173E SWAP6 DUP6 SWAP5 PUSH1 0x0 DUP1 MLOAD PUSH1 0x20 PUSH2 0x1C8F DUP4 CODECOPY DUP2 MLOAD SWAP2 MSTORE SWAP4 PUSH2 0x181E JUMPI JUMPDEST POP SWAP4 POP SWAP7 POP POP SWAP2 SWAP3 PUSH2 0x170C JUMP JUMPDEST DUP1 PUSH2 0x182B PUSH2 0x1831 SWAP3 PUSH2 0x1339 JUMP JUMPDEST DUP1 PUSH2 0x1160 JUMP JUMPDEST CODESIZE PUSH2 0x1811 JUMP JUMPDEST PUSH2 0x1632 JUMP JUMPDEST DUP1 PUSH2 0x182B PUSH2 0x1849 SWAP3 PUSH2 0x1339 JUMP JUMPDEST CODESIZE PUSH2 0x1784 JUMP JUMPDEST PUSH2 0x1863 SWAP2 PUSH2 0x185E PUSH1 0x14 SLOAD PUSH2 0x1170 JUMP JUMPDEST PUSH2 0x19DB JUMP JUMPDEST CODESIZE DUP7 PUSH2 0x16F8 JUMP JUMPDEST SWAP2 SWAP1 PUSH2 0x1878 PUSH2 0x1678 DUP4 PUSH2 0x15B8 JUMP JUMPDEST PUSH2 0x1890 PUSH2 0x1678 PUSH2 0x188A PUSH2 0x1678 DUP7 PUSH2 0x15CF JUMP JUMPDEST SWAP5 PUSH2 0x15CF JUMP JUMPDEST SWAP1 PUSH2 0x189A DUP4 PUSH2 0x11D0 JUMP JUMPDEST PUSH2 0x18A5 DUP3 DUP3 SLOAD PUSH2 0x147F JUMP JUMPDEST SWAP1 SSTORE PUSH2 0x18B0 DUP4 PUSH2 0x11EA JUMP JUMPDEST PUSH2 0x18BB DUP3 DUP3 SLOAD PUSH2 0x147F JUMP JUMPDEST SWAP1 SSTORE PUSH1 0x1 DUP1 PUSH1 0xA0 SHL SUB DUP1 DUP5 AND SWAP5 DUP6 PUSH1 0x0 DUP1 MLOAD PUSH1 0x20 PUSH2 0x1CAF DUP4 CODECOPY DUP2 MLOAD SWAP2 MSTORE PUSH1 0x40 MLOAD DUP1 PUSH2 0x18E7 DUP12 DUP9 DUP4 PUSH2 0x126D JUMP JUMPDEST SUB SWAP1 LOG2 PUSH2 0x18F5 PUSH1 0x18 SLOAD PUSH2 0x1170 JUMP JUMPDEST SWAP1 DUP3 DUP3 AND PUSH2 0x19C5 JUMPI JUMPDEST POP POP PUSH2 0x190B PUSH1 0x17 SLOAD PUSH2 0x1170 JUMP JUMPDEST DUP4 DUP3 DUP3 AND PUSH2 0x19AF JUMPI JUMPDEST POP POP PUSH2 0x1921 PUSH1 0x19 SLOAD PUSH2 0x1170 JUMP JUMPDEST AND DUP1 PUSH2 0x194E JUMPI JUMPDEST POP PUSH1 0x0 DUP1 MLOAD PUSH1 0x20 PUSH2 0x1C8F DUP4 CODECOPY DUP2 MLOAD SWAP2 MSTORE SWAP3 POP PUSH2 0x1949 PUSH1 0x40 MLOAD SWAP3 DUP4 SWAP3 DUP4 PUSH2 0x126D JUMP JUMPDEST SUB SWAP1 LOG3 JUMP JUMPDEST DUP1 EXTCODESIZE ISZERO PUSH2 0x116B JUMPI DUP6 PUSH1 0x0 SWAP2 DUP4 DUP4 PUSH2 0x197C SWAP8 PUSH1 0x40 MLOAD SWAP9 DUP10 SWAP6 DUP7 SWAP5 DUP6 SWAP4 PUSH4 0x1A495E57 PUSH1 0xE3 SHL DUP6 MSTORE PUSH1 0x4 DUP6 ADD PUSH2 0x1614 JUMP JUMPDEST SUB SWAP3 GAS CALL SWAP3 DUP4 ISZERO PUSH2 0x1837 JUMPI PUSH1 0x0 DUP1 MLOAD PUSH1 0x20 PUSH2 0x1C8F DUP4 CODECOPY DUP2 MLOAD SWAP2 MSTORE SWAP4 ISZERO PUSH2 0x1928 JUMPI DUP1 PUSH2 0x182B PUSH2 0x19A9 SWAP3 PUSH2 0x1339 JUMP JUMPDEST CODESIZE PUSH2 0x1928 JUMP JUMPDEST PUSH2 0x19BE SWAP2 PUSH2 0x185E PUSH1 0x14 SLOAD PUSH2 0x1170 JUMP JUMPDEST CODESIZE DUP4 PUSH2 0x1914 JUMP JUMPDEST PUSH2 0x19D4 SWAP2 PUSH2 0x185E PUSH1 0x14 SLOAD PUSH2 0x1170 JUMP JUMPDEST CODESIZE DUP1 PUSH2 0x18FE JUMP JUMPDEST PUSH1 0x40 MLOAD PUSH4 0xA9059CBB PUSH1 0xE0 SHL PUSH1 0x0 SWAP1 DUP2 MSTORE PUSH1 0x1 PUSH1 0x1 PUSH1 0xA0 SHL SUB SWAP4 DUP5 AND PUSH1 0x4 MSTORE PUSH1 0x24 SWAP5 SWAP1 SWAP5 MSTORE SWAP3 PUSH1 0x20 SWAP1 PUSH1 0x44 DUP2 DUP1 DUP6 GAS CALL PUSH1 0x1 PUSH1 0x0 MLOAD EQ DUP2 AND ISZERO PUSH2 0x1A3C JUMPI JUMPDEST DUP4 PUSH1 0x40 MSTORE ISZERO PUSH2 0x1A26 JUMPI POP POP POP JUMP JUMPDEST PUSH4 0x5274AFE7 PUSH1 0xE0 SHL DUP4 MSTORE AND PUSH1 0x4 DUP3 ADD MSTORE PUSH1 0x24 SWAP2 POP REVERT JUMPDEST PUSH1 0x1 DUP2 ISZERO AND PUSH2 0x1A52 JUMPI DUP2 EXTCODESIZE ISZERO ISZERO RETURNDATASIZE ISZERO AND AND PUSH2 0x1A18 JUMP JUMPDEST DUP4 RETURNDATASIZE PUSH1 0x0 DUP3 RETURNDATACOPY RETURNDATASIZE SWAP1 REVERT JUMPDEST ISZERO PUSH2 0x1A63 JUMPI JUMP JUMPDEST PUSH1 0x40 MLOAD PUSH3 0x461BCD PUSH1 0xE5 SHL DUP2 MSTORE PUSH1 0x20 PUSH1 0x4 DUP3 ADD MSTORE PUSH1 0xE PUSH1 0x24 DUP3 ADD MSTORE PUSH14 0x149BDD5D195C881B9BDD081CD95D PUSH1 0x92 SHL PUSH1 0x44 DUP3 ADD MSTORE PUSH1 0x64 SWAP1 REVERT JUMPDEST ISZERO PUSH2 0x1AA0 JUMPI JUMP JUMPDEST PUSH1 0x40 MLOAD PUSH3 0x461BCD PUSH1 0xE5 SHL DUP2 MSTORE PUSH1 0x20 PUSH1 0x4 DUP3 ADD MSTORE PUSH1 0xC PUSH1 0x24 DUP3 ADD MSTORE PUSH12 0x109510D0881B9BDD081CD95D PUSH1 0xA2 SHL PUSH1 0x44 DUP3 ADD MSTORE PUSH1 0x64 SWAP1 REVERT JUMPDEST DUP1 MLOAD ISZERO PUSH2 0x11A4 JUMPI PUSH1 0x20 ADD SWAP1 JUMP JUMPDEST DUP1 MLOAD PUSH1 0x1 LT ISZERO PUSH2 0x11A4 JUMPI PUSH1 0x40 ADD SWAP1 JUMP JUMPDEST SWAP1 PUSH1 0x20 SWAP1 DUP2 DUP4 DUP3 SUB SLT PUSH2 0x116B JUMPI DUP3 MLOAD PUSH1 0x1 PUSH1 0x1 PUSH1 0x40 SHL SUB SWAP4 DUP5 DUP3 GT PUSH2 0x116B JUMPI ADD DUP2 PUSH1 0x1F DUP3 ADD SLT ISZERO PUSH2 0x116B JUMPI DUP1 MLOAD SWAP4 DUP5 GT PUSH2 0x134C JUMPI DUP4 PUSH1 0x5 SHL SWAP1 PUSH1 0x40 MLOAD SWAP5 PUSH2 0x1B3A DUP6 DUP5 ADD DUP8 PUSH2 0x137D JUMP JUMPDEST DUP6 MSTORE DUP4 DUP1 DUP7 ADD SWAP3 DUP3 ADD ADD SWAP3 DUP4 GT PUSH2 0x116B JUMPI DUP4 ADD SWAP1 JUMPDEST DUP3 DUP3 LT PUSH2 0x1B5D JUMPI POP POP POP POP SWAP1 JUMP JUMPDEST DUP2 MLOAD DUP2 MSTORE SWAP1 DUP4 ADD SWAP1 DUP4 ADD PUSH2 0x1B4F JUMP JUMPDEST SWAP1 DUP2 MLOAD DUP1 DUP3 MSTORE PUSH1 0x20 DUP1 DUP1 SWAP4 ADD SWAP4 ADD SWAP2 PUSH1 0x0 JUMPDEST DUP3 DUP2 LT PUSH2 0x1B8C JUMPI POP POP POP POP SWAP1 JUMP JUMPDEST DUP4 MLOAD PUSH1 0x1 PUSH1 0x1 PUSH1 0xA0 SHL SUB AND DUP6 MSTORE SWAP4 DUP2 ADD SWAP4 SWAP3 DUP2 ADD SWAP3 PUSH1 0x1 ADD PUSH2 0x1B7E JUMP JUMPDEST PUSH1 0x0 DUP1 MLOAD PUSH1 0x20 PUSH2 0x1CEF DUP4 CODECOPY DUP2 MLOAD SWAP2 MSTORE PUSH1 0x2 DUP2 SLOAD EQ PUSH2 0x1BC7 JUMPI PUSH1 0x2 SWAP1 SSTORE JUMP JUMPDEST PUSH1 0x40 MLOAD PUSH4 0x3EE5AEB5 PUSH1 0xE0 SHL DUP2 MSTORE PUSH1 0x4 SWAP1 REVERT JUMPDEST ISZERO PUSH2 0x1BE0 JUMPI JUMP JUMPDEST PUSH1 0x40 MLOAD PUSH3 0x461BCD PUSH1 0xE5 SHL DUP2 MSTORE PUSH1 0x20 PUSH1 0x4 DUP3 ADD MSTORE PUSH1 0x2 PUSH1 0x24 DUP3 ADD MSTORE PUSH2 0x413 PUSH1 0xF4 SHL PUSH1 0x44 DUP3 ADD MSTORE PUSH1 0x64 SWAP1 REVERT JUMPDEST DUP1 SLOAD PUSH1 0x1 PUSH1 0x40 SHL DUP2 LT ISZERO PUSH2 0x134C JUMPI PUSH2 0x1C27 SWAP2 PUSH1 0x1 DUP3 ADD DUP2 SSTORE PUSH2 0x1255 JUMP JUMPDEST DUP2 SWAP3 SWAP2 SLOAD SWAP1 PUSH1 0x3 SHL SWAP2 DUP3 SHL SWAP2 PUSH1 0x0 NOT SWAP1 SHL NOT AND OR SWAP1 SSTORE JUMP JUMPDEST SWAP1 PUSH1 0x40 MLOAD SWAP2 DUP3 DUP2 SLOAD SWAP2 DUP3 DUP3 MSTORE PUSH1 0x20 SWAP3 DUP4 DUP4 ADD SWAP2 PUSH1 0x0 MSTORE DUP4 PUSH1 0x0 KECCAK256 SWAP4 PUSH1 0x0 SWAP1 JUMPDEST DUP3 DUP3 LT PUSH2 0x1C74 JUMPI POP POP POP PUSH2 0x13AD SWAP3 POP SUB DUP4 PUSH2 0x137D JUMP JUMPDEST DUP6 SLOAD DUP5 MSTORE PUSH1 0x1 SWAP6 DUP7 ADD SWAP6 DUP9 SWAP6 POP SWAP4 DUP2 ADD SWAP4 SWAP1 SWAP2 ADD SWAP1 PUSH2 0x1C5E JUMP INVALID 0xC9 0xDF 0xD5 DIV PUSH15 0x5F1BE95C560D1B85295F8AFD28D010 0x2C KECCAK256 0xE0 0xB4 GT 0x2B DUP9 0xBD ORIGIN DUP13 LOG4 CALLER BASEFEE 0xC 0xF8 0xC PUSH25 0xDF84F9AD0C3DA7CB64F6AE3656D3AED9CFC42064D865CDCDBC 0x2B 0x24 DUP12 0xE0 SMOD SWAP13 MSTORE8 AND MSIZE EQ SGT PREVRANDAO 0xCD 0x1F 0xD0 LOG4 CALLCODE DUP5 NOT 0x49 PUSH32 0x9722A3DAAFE3B4186F6B6457E09B779B17422D0DF92223018B32B4D1FA46E071 PUSH19 0x3D6817E2486D003BECC55F00A2646970667358 0x22 SLT KECCAK256 GASLIMIT AND CALLER DUP9 DUP7 DUP8 STATICCALL 0xC3 STATICCALL SHL PUSH15 0x28139DC3FD3B8C4AF6F153E882F70B DUP10 0xA8 LOG4 ORIGIN 0xB2 CALLCODE PUSH5 0x736F6C6343 STOP ADDMOD EQ STOP CALLER "},"methodIdentifiers":{"BASIS_POINTS()":"e1f1c4a7","BOARD_10_LIQUIDITY_RATE_BP()":"7d4cf0b8","BOARD_10_REWARD_RATE_BP()":"04841337","BOARD_10_SYSTEM_RATE_BP()":"b2418af8","BOARD_LEVEL2_MEMBERS()":"2bdbe56d","BOARD_LIQUIDITY_RATE_BP()":"a5c34061","BOARD_MEMBERS_REQUIRED()":"4e759962","BOARD_NEXT_POOL_RATE_BP()":"9898fcd3","BOARD_REWARD_RATE_BP()":"61dba5f3","DEFAULT_SLIPPAGE_BP()":"732bdc53","TOTAL_BOARDS()":"b0ac4626","adminWithdrawDeposits(address,uint256)":"a5ad0586","boardCurrentIndex(uint256)":"f3b36bf8","boardPrices(uint256)":"2389e78a","btcRewardToken()":"8919d5e9","btcbToken()":"de9a7e19","claimAndSwapToBTC(uint256,uint256)":"96e03328","coinLiquidityAddress()":"39ae9efd","deposit(uint256)":"b6b55f25","depositAmounts(address,uint256)":"898278dc","depositBalance(address)":"956501bb","depositTimestamps(address,uint256)":"727462e5","enterBoard(address,uint256)":"686a38bd","getBoardCurrentIndex(uint256)":"3ac272c2","getBoardMatrixInfo(uint256,uint256)":"d4a90286","getBoardPrice(uint256)":"47cd5191","getBoardQueueLength(uint256)":"eb63e1c2","getDepositBalance(address)":"ed05ae78","getDepositHistory(address)":"5a33c3da","getSwapEstimate(uint256)":"c319f5bc","getTotalSwappedToBTC(address)":"21a6816a","getVirtualRewardBalance(address)":"792ba2f2","mlmContract()":"53dafcbb","owner()":"8da5cb5b","pancakeRouter()":"c21ebd07","paymentToken()":"3013ce29","recoverToken(address,address,uint256)":"a7229fd9","renounceOwnership()":"715018a6","setBoardPrice(uint256,uint256)":"29d7f9eb","setBtcRewardToken(address)":"6f8760fe","setBtcbToken(address)":"2dbe6203","setCoinLiquidityAddress(address)":"d3ba4f96","setMLMContract(address)":"ce870263","setPancakeRouter(address)":"f8316c90","setSystemAddress(address)":"06210197","systemAddress()":"d3e848f1","totalSwappedToBTC(address)":"86f7d530","totalVirtualRewards(address)":"49dca24f","transferOwnership(address)":"f2fde38b","virtualRewardBalance(address)":"42369fc3"}}}}}