{"contracts/BoardMatrixHandler.sol":{"BoardMatrixHandler":{"abi":[{"inputs":[{"internalType":"address","name":"_paymentToken","type":"address"},{"internalType":"uint8","name":"_tokenDecimals","type":"uint8"}],"stateMutability":"nonpayable","type":"constructor"},{"inputs":[{"internalType":"address","name":"owner","type":"address"}],"name":"OwnableInvalidOwner","type":"error"},{"inputs":[{"internalType":"address","name":"account","type":"address"}],"name":"OwnableUnauthorizedAccount","type":"error"},{"inputs":[],"name":"ReentrancyGuardReentrantCall","type":"error"},{"inputs":[{"internalType":"address","name":"token","type":"address"}],"name":"SafeERC20FailedOperation","type":"error"},{"anonymous":false,"inputs":[{"indexed":true,"internalType":"address","name":"owner","type":"address"},{"indexed":true,"internalType":"uint256","name":"boardLevel","type":"uint256"},{"indexed":false,"internalType":"uint256","name":"reward","type":"uint256"},{"indexed":false,"internalType":"uint256","name":"liquidity","type":"uint256"}],"name":"BoardCompleted","type":"event"},{"anonymous":false,"inputs":[{"indexed":true,"internalType":"address","name":"user","type":"address"},{"indexed":true,"internalType":"uint256","name":"boardLevel","type":"uint256"},{"indexed":false,"internalType":"uint256","name":"matrixIndex","type":"uint256"}],"name":"BoardEntered","type":"event"},{"anonymous":false,"inputs":[{"indexed":true,"internalType":"address","name":"previousOwner","type":"address"},{"indexed":true,"internalType":"address","name":"newOwner","type":"address"}],"name":"OwnershipTransferred","type":"event"},{"anonymous":false,"inputs":[{"indexed":true,"internalType":"address","name":"user","type":"address"},{"indexed":false,"internalType":"uint256","name":"usdtAmount","type":"uint256"},{"indexed":false,"internalType":"uint256","name":"btcbAmount","type":"uint256"}],"name":"SwappedToBTC","type":"event"},{"anonymous":false,"inputs":[{"indexed":true,"internalType":"address","name":"user","type":"address"},{"indexed":false,"internalType":"uint256","name":"amount","type":"uint256"},{"indexed":false,"internalType":"uint256","name":"boardLevel","type":"uint256"}],"name":"VirtualRewardCredited","type":"event"},{"inputs":[],"name":"BASIS_POINTS","outputs":[{"internalType":"uint256","name":"","type":"uint256"}],"stateMutability":"view","type":"function"},{"inputs":[],"name":"BOARD_10_LIQUIDITY_RATE_BP","outputs":[{"internalType":"uint256","name":"","type":"uint256"}],"stateMutability":"view","type":"function"},{"inputs":[],"name":"BOARD_10_REWARD_RATE_BP","outputs":[{"internalType":"uint256","name":"","type":"uint256"}],"stateMutability":"view","type":"function"},{"inputs":[],"name":"BOARD_10_SYSTEM_RATE_BP","outputs":[{"internalType":"uint256","name":"","type":"uint256"}],"stateMutability":"view","type":"function"},{"inputs":[],"name":"BOARD_LEVEL2_MEMBERS","outputs":[{"internalType":"uint256","name":"","type":"uint256"}],"stateMutability":"view","type":"function"},{"inputs":[],"name":"BOARD_LIQUIDITY_RATE_BP","outputs":[{"internalType":"uint256","name":"","type":"uint256"}],"stateMutability":"view","type":"function"},{"inputs":[],"name":"BOARD_MEMBERS_REQUIRED","outputs":[{"internalType":"uint256","name":"","type":"uint256"}],"stateMutability":"view","type":"function"},{"inputs":[],"name":"BOARD_NEXT_POOL_RATE_BP","outputs":[{"internalType":"uint256","name":"","type":"uint256"}],"stateMutability":"view","type":"function"},{"inputs":[],"name":"BOARD_REWARD_RATE_BP","outputs":[{"internalType":"uint256","name":"","type":"uint256"}],"stateMutability":"view","type":"function"},{"inputs":[],"name":"DEFAULT_SLIPPAGE_BP","outputs":[{"internalType":"uint256","name":"","type":"uint256"}],"stateMutability":"view","type":"function"},{"inputs":[],"name":"TOTAL_BOARDS","outputs":[{"internalType":"uint256","name":"","type":"uint256"}],"stateMutability":"view","type":"function"},{"inputs":[{"internalType":"uint256","name":"","type":"uint256"}],"name":"boardCurrentIndex","outputs":[{"internalType":"uint256","name":"","type":"uint256"}],"stateMutability":"view","type":"function"},{"inputs":[{"internalType":"uint256","name":"","type":"uint256"}],"name":"boardPrices","outputs":[{"internalType":"uint256","name":"","type":"uint256"}],"stateMutability":"view","type":"function"},{"inputs":[],"name":"btcRewardToken","outputs":[{"internalType":"contract IERC20","name":"","type":"address"}],"stateMutability":"view","type":"function"},{"inputs":[],"name":"btcbToken","outputs":[{"internalType":"address","name":"","type":"address"}],"stateMutability":"view","type":"function"},{"inputs":[{"internalType":"uint256","name":"_amount","type":"uint256"},{"internalType":"uint256","name":"_minBtcbOut","type":"uint256"}],"name":"claimAndSwapToBTC","outputs":[],"stateMutability":"nonpayable","type":"function"},{"inputs":[],"name":"coinLiquidityAddress","outputs":[{"internalType":"address","name":"","type":"address"}],"stateMutability":"view","type":"function"},{"inputs":[{"internalType":"address","name":"_user","type":"address"},{"internalType":"uint256","name":"_boardLevel","type":"uint256"}],"name":"enterBoard","outputs":[],"stateMutability":"nonpayable","type":"function"},{"inputs":[{"internalType":"uint256","name":"_boardLevel","type":"uint256"}],"name":"getBoardCurrentIndex","outputs":[{"internalType":"uint256","name":"","type":"uint256"}],"stateMutability":"view","type":"function"},{"inputs":[{"internalType":"uint256","name":"_boardLevel","type":"uint256"},{"internalType":"uint256","name":"_index","type":"uint256"}],"name":"getBoardMatrixInfo","outputs":[{"internalType":"address","name":"owner","type":"address"},{"internalType":"uint256","name":"filledCount","type":"uint256"},{"internalType":"bool","name":"completed","type":"bool"}],"stateMutability":"view","type":"function"},{"inputs":[{"internalType":"uint256","name":"_boardLevel","type":"uint256"}],"name":"getBoardPrice","outputs":[{"internalType":"uint256","name":"","type":"uint256"}],"stateMutability":"view","type":"function"},{"inputs":[{"internalType":"uint256","name":"_boardLevel","type":"uint256"}],"name":"getBoardQueueLength","outputs":[{"internalType":"uint256","name":"","type":"uint256"}],"stateMutability":"view","type":"function"},{"inputs":[{"internalType":"uint256","name":"_usdtAmount","type":"uint256"}],"name":"getSwapEstimate","outputs":[{"internalType":"uint256","name":"btcbAmount","type":"uint256"}],"stateMutability":"view","type":"function"},{"inputs":[{"internalType":"address","name":"_user","type":"address"}],"name":"getTotalSwappedToBTC","outputs":[{"internalType":"uint256","name":"","type":"uint256"}],"stateMutability":"view","type":"function"},{"inputs":[{"internalType":"address","name":"_user","type":"address"}],"name":"getVirtualRewardBalance","outputs":[{"internalType":"uint256","name":"balance","type":"uint256"},{"internalType":"uint256","name":"totalEarned","type":"uint256"}],"stateMutability":"view","type":"function"},{"inputs":[],"name":"mlmContract","outputs":[{"internalType":"address","name":"","type":"address"}],"stateMutability":"view","type":"function"},{"inputs":[],"name":"owner","outputs":[{"internalType":"address","name":"","type":"address"}],"stateMutability":"view","type":"function"},{"inputs":[],"name":"pancakeRouter","outputs":[{"internalType":"contract IPancakeRouter","name":"","type":"address"}],"stateMutability":"view","type":"function"},{"inputs":[],"name":"paymentToken","outputs":[{"internalType":"contract IERC20","name":"","type":"address"}],"stateMutability":"view","type":"function"},{"inputs":[{"internalType":"address","name":"_token","type":"address"},{"internalType":"address","name":"_to","type":"address"},{"internalType":"uint256","name":"_amount","type":"uint256"}],"name":"recoverToken","outputs":[],"stateMutability":"nonpayable","type":"function"},{"inputs":[],"name":"renounceOwnership","outputs":[],"stateMutability":"nonpayable","type":"function"},{"inputs":[{"internalType":"uint256","name":"_boardLevel","type":"uint256"},{"internalType":"uint256","name":"_price","type":"uint256"}],"name":"setBoardPrice","outputs":[],"stateMutability":"nonpayable","type":"function"},{"inputs":[{"internalType":"address","name":"_token","type":"address"}],"name":"setBtcRewardToken","outputs":[],"stateMutability":"nonpayable","type":"function"},{"inputs":[{"internalType":"address","name":"_token","type":"address"}],"name":"setBtcbToken","outputs":[],"stateMutability":"nonpayable","type":"function"},{"inputs":[{"internalType":"address","name":"_addr","type":"address"}],"name":"setCoinLiquidityAddress","outputs":[],"stateMutability":"nonpayable","type":"function"},{"inputs":[{"internalType":"address","name":"_mlm","type":"address"}],"name":"setMLMContract","outputs":[],"stateMutability":"nonpayable","type":"function"},{"inputs":[{"internalType":"address","name":"_router","type":"address"}],"name":"setPancakeRouter","outputs":[],"stateMutability":"nonpayable","type":"function"},{"inputs":[{"internalType":"address","name":"_addr","type":"address"}],"name":"setSystemAddress","outputs":[],"stateMutability":"nonpayable","type":"function"},{"inputs":[],"name":"systemAddress","outputs":[{"internalType":"address","name":"","type":"address"}],"stateMutability":"view","type":"function"},{"inputs":[{"internalType":"address","name":"","type":"address"}],"name":"totalSwappedToBTC","outputs":[{"internalType":"uint256","name":"","type":"uint256"}],"stateMutability":"view","type":"function"},{"inputs":[{"internalType":"address","name":"","type":"address"}],"name":"totalVirtualRewards","outputs":[{"internalType":"uint256","name":"","type":"uint256"}],"stateMutability":"view","type":"function"},{"inputs":[{"internalType":"address","name":"newOwner","type":"address"}],"name":"transferOwnership","outputs":[],"stateMutability":"nonpayable","type":"function"},{"inputs":[{"internalType":"address","name":"","type":"address"}],"name":"virtualRewardBalance","outputs":[{"internalType":"uint256","name":"","type":"uint256"}],"stateMutability":"view","type":"function"}],"evm":{"bytecode":{"linkReferences":{},"object":"6080346200020c57601f62001adc38819003918201601f19168301916001600160401b03831184841017620002115780849260409485528339810103126200020c5780516001600160a01b0391828216918290036200020c576020015160ff81168091036200020c573315620001f35760009081549260018060a01b03199333858216178455604051953391167f8be0079c531659141344cd1fd0a4f28419497f9722a3daafe3b4186f6b6457e08580a360017f9b779b17422d0df92223018b32b4d1fa46e071723d6817e2486d003becc55f0055601193845416178355604d8111620001e057600a0a9182603202603281048403620001cc576007558260b40260b481048403620001cc576008556102888381029081048403620001cc5760095561091d8381029081048403620001cc57600a556120ce8381029081048403620001cc57600b556176198381029081048403620001cc57600c556201a9278381029081048403620001cc57600d556205fa8d8381029081048403620001cc57600e55621585fb8381029081048403620001cc57600f55624d7bee9280840293840403620001b95750506010556118b49081620002288239f35b634e487b7160e01b825260045260249150fd5b634e487b7160e01b83526004829052602483fd5b50602491634e487b7160e01b8252600452fd5b604051631e4fbdf760e01b815260006004820152602490fd5b600080fd5b634e487b7160e01b600052604160045260246000fdfe60806040908082526004918236101561001757600080fd5b600092833560e01c9283630484133714610e01575082630621019714610dbc57826321a6816a146109925782632389e78a14610d8f57826329d7f9eb14610d025782632bdbe56d14610ce65782632dbe620314610c995782633013ce2914610c7057826339ae9efd14610c475782633ac272c21461024f57826342369fc314610c0f57826347cd519114610baf57826349dca24f14610b785782634e75996214610b5c57826353dafcbb14610b3357826361dba5f314610660578263686a38bd14610ab55782636f8760fe14610a70578263715018a614610a28578263732bdc5314610a0c578263792ba2f2146109ca5782637d4cf0b8146105ca57826386f7d530146109925782638919d5e9146109695782638da5cb5b1461094157826396e03328146106655782639898fcd314610660578263a5c3406114610643578263a7229fd9146105eb578263b0ac4626146105cf578263b2418af8146105ca578263c21ebd07146105a1578263c319f5bc146104af578263ce87026314610462578263d3ba4f961461041d578263d3e848f1146103f4578263d4a9028614610365578263de9a7e191461033c578263e1f1c4a71461031b578263eb63e1c2146102f2578263f2fde38b1461027c578263f3b36bf81461024f57505063f8316c901461020057600080fd5b3461024c57602036600319011261024c57610219610e39565b610221610f1c565b6001600160a01b0316610235811515610f48565b601380546001600160a01b03191691909117905580f35b80fd5b909150346102785760203660031901126102785760209282913581526002845220549051908152f35b8280fd5b9091503461027857602036600319011261027857610298610e39565b906102a1610f1c565b6001600160a01b039182169283156102dc57505082546001600160a01b03198116831784551660008051602061185f8339815191528380a380f35b51631e4fbdf760e01b8152908101849052602490fd5b909150346102785760203660031901126102785760209282913581526001845220549051908152f35b838234610338578160031936011261033857602090516127108152f35b5080fd5b83823461033857816003193601126103385760175490516001600160a01b039091168152602090f35b833461024c5761037436610e77565b928183526001602052848320548410156103cc5760608561039f868287878152600160205220611020565b509060018060a01b038254169160ff60026001830154920154169082519384526020840152151590820152f35b606490602086519162461bcd60e51b8352820152600260248201526127a160f11b6044820152fd5b83823461033857816003193601126103385760155490516001600160a01b039091168152602090f35b833461024c57602036600319011261024c57610437610e39565b61043f610f1c565b601480546001600160a01b0319166001600160a01b039290921691909117905580f35b833461024c57602036600319011261024c5761047c610e39565b610484610f1c565b6001600160a01b0316610498811515610f48565b601680546001600160a01b03191691909117905580f35b909150346102785782602036600319011261024c57601354610549926001600160a01b03918216906104e28215156116d1565b82601754166104f281151561170e565b8651936104fe85610fd3565b60028552873660208701376011541661051685611749565b5261052084611756565b52855180958194829363d06ca61f60e01b845280359084015288602484015260448301906117e1565b03915afa908115610595579061056a918460209592610572575b5050611756565b519051908152f35b61058e92503d8091833e6105868183610fee565b810190611766565b3880610563565b505051903d90823e3d90fd5b83823461033857816003193601126103385760135490516001600160a01b039091168152602090f35b610eef565b83823461033857816003193601126103385760209051600a8152f35b833461024c57606036600319011261024c57610605610e39565b6001600160a01b03602435818116929183820361063f5761063261063c9461062b610f1c565b1515610f48565b6044359216611650565b80f35b8480fd5b838234610338578160031936011261033857602090516107d08152f35b610ec1565b909150346102785761067636610e77565b7f9b779b17422d0df92223018b32b4d1fa46e071723d6817e2486d003becc55f009260028454146109335760028455821561090257338652602091600383528386882054106108c1576013546001600160a01b0392906106d990841615156116d1565b6106e88360175416151561170e565b338852600384528688208054908682039182116108ae575587848460115416604486601354168b51948593849263095ea7b360e01b8452888401528b60248401525af180156108a457610869575b5086519261074384610fd3565b60028452873686860137806011541661075b85611749565b52806017541661076a85611756565b52601354169061012c420180421161085657898094939288926107b28c51988997889687956338ed173960e01b8752860152602485015260a0604485015260a48401906117e1565b90336064840152608483015203925af190811561084c5791610821600196927fb59929a0ceeda5fc5dc7c15f3c2b20a06d67071cdecb9466f1470df5f4bd7bf7948991610832575b5061080481611756565b51338a526005845261081a858b209182546110f0565b9055611756565b519082519485528401523392a25580f35b61084691503d808b833e6105868183610fee565b386107fa565b85513d88823e3d90fd5b634e487b7160e01b8a526011825260248afd5b8481813d831161089d575b61087e8183610fee565b810103126108995751801515036108955738610736565b8780fd5b8880fd5b503d610874565b88513d8b823e3d90fd5b634e487b7160e01b8a526011835260248afd5b5060649185519162461bcd60e51b8352820152601c60248201527b496e73756666696369656e74207669727475616c2062616c616e636560201b6044820152fd5b606490602086519162461bcd60e51b8352820152600b60248201526a16995c9bc8185b5bdd5b9d60aa1b6044820152fd5b8451633ee5aeb560e01b8152fd5b838234610338578160031936011261033857905490516001600160a01b039091168152602090f35b83823461033857816003193601126103385760125490516001600160a01b039091168152602090f35b8382346103385760203660031901126103385760209181906001600160a01b036109ba610e39565b1681526005845220549051908152f35b833461024c57602036600319011261024c5782906001600160a01b036109ee610e39565b16815260036020528181205492602052205482519182526020820152f35b8382346103385781600319360112610338576020905160c88152f35b833461024c578060031936011261024c57610a41610f1c565b80546001600160a01b03198116825581906001600160a01b031660008051602061185f8339815191528280a380f35b833461024c57602036600319011261024c57610a8a610e39565b610a92610f1c565b601280546001600160a01b0319166001600160a01b039290921691909117905580f35b90915034610278578160031936011261027857610ad0610e39565b601654909290336001600160a01b0391821614908115610b26575b5015610afe578361063c602435856110fd565b906020606492519162461bcd60e51b835282015260026024820152614e4160f01b6044820152fd5b9050845416331438610aeb565b83823461033857816003193601126103385760165490516001600160a01b039091168152602090f35b83823461033857816003193601126103385760209051600c8152f35b909150346102785760203660031901126102785760209282916001600160a01b03610ba1610e39565b168252845220549051908152f35b90833461024c57602036600319011261024c57823590600182101580610c04575b610bd990610f79565b600b821015610bf15760208383600601549051908152f35b634e487b7160e01b815260328452602490fd5b50600a821115610bd0565b8382346103385760203660031901126103385760209181906001600160a01b03610c37610e39565b1681526003845220549051908152f35b83823461033857816003193601126103385760145490516001600160a01b039091168152602090f35b83823461033857816003193601126103385760115490516001600160a01b039091168152602090f35b833461024c57602036600319011261024c57610cb3610e39565b610cbb610f1c565b6001600160a01b0316610ccf811515610f48565b601780546001600160a01b03191691909117905580f35b8382346103385781600319360112610338576020905160098152f35b91503461027857610d1236610e77565b929091610d1d610f1c565b600183101580610d84575b610d3190610f79565b8315610d5c5750600b821015610d4957506006015580f35b634e487b7160e01b845260329052602483fd5b906020606492519162461bcd60e51b83528201526002602482015261050360f41b6044820152fd5b50600a831115610d28565b909150346102785760203660031901126102785735600b8110156102785760209250600601549051908152f35b833461024c57602036600319011261024c57610dd6610e39565b610dde610f1c565b601580546001600160a01b0319166001600160a01b039290921691909117905580f35b8490346103385781600319360112610338578061222e60209252f35b6000910312610e2857565b600080fd5b6001600160a01b031690565b600435906001600160a01b0382168203610e2857565b600b811015610e615760060190600090565b634e487b7160e01b600052603260045260246000fd5b6040906003190112610e28576004359060243590565b6001600160a01b0316600090815260036020526040902090565b6001600160a01b0316600090815260046020526040902090565b34610e28576000366003190112610e28576020604051610fa08152f35b908152602081019190915260400190565b34610e28576000366003190112610e285760206040516102718152f35b6000526001602052604060002090565b6000546001600160a01b03163303610f3057565b60405163118cdaa760e01b8152336004820152602490fd5b15610f4f57565b60405162461bcd60e51b815260206004820152600260248201526124ab60f11b6044820152606490fd5b15610f8057565b60405162461bcd60e51b8152602060048201526002602482015261109360f21b6044820152606490fd5b6001600160401b038111610fbd57604052565b634e487b7160e01b600052604160045260246000fd5b606081019081106001600160401b03821117610fbd57604052565b601f909101601f19168101906001600160401b03821190821017610fbd57604052565b6040519061101e82610fd3565b565b8054821015610e61576000526003602060002091020190600090565b8054600160401b811015610fbd5761105991600182018155611020565b61109857600260409160018060a01b0384511660018060a01b03198254161781556020840151600182015501910151151560ff80198354169116179055565b634e487b7160e01b600052600060045260246000fd5b6000198101919082116110bd57565b634e487b7160e01b600052601160045260246000fd5b60001981146110bd5760010190565b90600182018092116110bd57565b919082018092116110bd57565b9061113261110a82610f0c565b611112611011565b6001600160a01b038516815290600060208301526000604083015261103c565b8061114561113f82610f0c565b546110ae565b60405181815290936001600160a01b0316907f4e755dd64e53a9f7a5882e2e32eb64718c2273de11e017bd47129b9fe2716d7c90602090a3611191816000526002602052604060002090565b5491821061119d575050565b6111af826111aa83610f0c565b611020565b5091600c600184016111c181546110d3565b80915510156111cf57505050565b826111f361120e926111ee600261101e9701600160ff19825416179055565b6110e2565b611207846000526002602052604060002090565b5554610e2d565b6112af565b906009820291808304600914901517156110bd57565b9061222e918281029281840414901517156110bd57565b90610271918281029281840414901517156110bd57565b90610fa0918281029281840414901517156110bd57565b906107d0918281029281840414901517156110bd57565b604091949392606082019560018060a01b0316825260208201520152565b6040513d6000823e3d90fd5b6112cd6112c86112be84610e4f565b90549060031b1c90565b611213565b91600a8110156114df576112f76112e96112f16112e986611257565b612710900490565b9461126e565b9261130183610e8d565b61130c8282546110f0565b905561131783610ea7565b6113228282546110f0565b90556040516001600160a01b038481169291839060008051602061183f8339815191529080611352888783610ede565b0390a2611360601454610e2d565b868282166114c4575b5050611376601654610e2d565b16806113b5575b5091809160008051602061181f83398151915261101e966113af956113a760405192839283610ede565b0390a36110e2565b906110fd565b80939291933b15610e2857604051631a495e5760e31b8152600091829082908183816113e68a8c8e60048501611285565b03925af180156114a8576114b1575b5061140c611407611407601654610e2d565b610e2d565b6114206112be61141b866110e2565b610e4f565b9061142a856110e2565b91813b156114ad5760405163ecdc590760e01b8152949392859291839185918391611459918d60048501611285565b03925af180156114a85761101e966113af95859460008051602061181f8339815191529361148f575b509350965050919261137d565b8061149c6114a292610faa565b80610e1d565b38611482565b6112a3565b8380fd5b8061149c6114be92610faa565b386113f5565b6114d8916114d3601154610e2d565b611650565b3886611369565b91906114ed6112e983611229565b6115056112e96114ff6112e986611240565b94611240565b9061150f83610e8d565b61151a8282546110f0565b905561152583610ea7565b6115308282546110f0565b905560018060a01b03808416948560008051602061183f8339815191526040518061155c8b8883610ede565b0390a261156a601554610e2d565b9082821661163a575b5050611580601454610e2d565b83828216611624575b5050611596601654610e2d565b16806115c3575b5060008051602061181f83398151915292506115be60405192839283610ede565b0390a3565b803b15610e28578560009183836115f19760405198899586948593631a495e5760e31b855260048501611285565b03925af19283156114a85760008051602061181f833981519152931561159d578061149c61161e92610faa565b3861159d565b611633916114d3601154610e2d565b3883611589565b611649916114d3601154610e2d565b3880611573565b60405163a9059cbb60e01b60009081526001600160a01b039384166004526024949094529260209060448180855af16001600051148116156116b1575b836040521561169b57505050565b635274afe760e01b835216600482015260249150fd5b60018115166116c757813b15153d15161661168d565b833d6000823e3d90fd5b156116d857565b60405162461bcd60e51b815260206004820152600e60248201526d149bdd5d195c881b9bdd081cd95d60921b6044820152606490fd5b1561171557565b60405162461bcd60e51b815260206004820152600c60248201526b109510d0881b9bdd081cd95d60a21b6044820152606490fd5b805115610e615760200190565b805160011015610e615760400190565b906020908183820312610e285782516001600160401b0393848211610e28570181601f82011215610e28578051938411610fbd578360051b90604051946117af85840187610fee565b85528380860192820101928311610e28578301905b8282106117d2575050505090565b815181529083019083016117c4565b90815180825260208080930193019160005b828110611801575050505090565b83516001600160a01b0316855293810193928101926001016117f356fec9dfd5046e5f1be95c560d1b85295f8afd28d0102c20e0b4112b88bd328ca433480cf80c78df84f9ad0c3da7cb64f6ae3656d3aed9cfc42064d865cdcdbc2b248be0079c531659141344cd1fd0a4f28419497f9722a3daafe3b4186f6b6457e0a264697066735822122049a324fc047209a7d52b97192e871f4d58fb87c8aa420d7681e6bd4ce687c16364736f6c63430008140033","opcodes":"PUSH1 0x80 CALLVALUE PUSH3 0x20C JUMPI PUSH1 0x1F PUSH3 0x1ADC CODESIZE DUP2 SWAP1 SUB SWAP2 DUP3 ADD PUSH1 0x1F NOT AND DUP4 ADD SWAP2 PUSH1 0x1 PUSH1 0x1 PUSH1 0x40 SHL SUB DUP4 GT DUP5 DUP5 LT OR PUSH3 0x211 JUMPI DUP1 DUP5 SWAP3 PUSH1 0x40 SWAP5 DUP6 MSTORE DUP4 CODECOPY DUP2 ADD SUB SLT PUSH3 0x20C JUMPI DUP1 MLOAD PUSH1 0x1 PUSH1 0x1 PUSH1 0xA0 SHL SUB SWAP2 DUP3 DUP3 AND SWAP2 DUP3 SWAP1 SUB PUSH3 0x20C JUMPI PUSH1 0x20 ADD MLOAD PUSH1 0xFF DUP2 AND DUP1 SWAP2 SUB PUSH3 0x20C JUMPI CALLER ISZERO PUSH3 0x1F3 JUMPI PUSH1 0x0 SWAP1 DUP2 SLOAD SWAP3 PUSH1 0x1 DUP1 PUSH1 0xA0 SHL SUB NOT SWAP4 CALLER DUP6 DUP3 AND OR DUP5 SSTORE PUSH1 0x40 MLOAD SWAP6 CALLER SWAP2 AND PUSH32 0x8BE0079C531659141344CD1FD0A4F28419497F9722A3DAAFE3B4186F6B6457E0 DUP6 DUP1 LOG3 PUSH1 0x1 PUSH32 0x9B779B17422D0DF92223018B32B4D1FA46E071723D6817E2486D003BECC55F00 SSTORE PUSH1 0x11 SWAP4 DUP5 SLOAD AND OR DUP4 SSTORE PUSH1 0x4D DUP2 GT PUSH3 0x1E0 JUMPI PUSH1 0xA EXP SWAP2 DUP3 PUSH1 0x32 MUL PUSH1 0x32 DUP2 DIV DUP5 SUB PUSH3 0x1CC JUMPI PUSH1 0x7 SSTORE DUP3 PUSH1 0xB4 MUL PUSH1 0xB4 DUP2 DIV DUP5 SUB PUSH3 0x1CC JUMPI PUSH1 0x8 SSTORE PUSH2 0x288 DUP4 DUP2 MUL SWAP1 DUP2 DIV DUP5 SUB PUSH3 0x1CC JUMPI PUSH1 0x9 SSTORE PUSH2 0x91D DUP4 DUP2 MUL SWAP1 DUP2 DIV DUP5 SUB PUSH3 0x1CC JUMPI PUSH1 0xA SSTORE PUSH2 0x20CE DUP4 DUP2 MUL SWAP1 DUP2 DIV DUP5 SUB PUSH3 0x1CC JUMPI PUSH1 0xB SSTORE PUSH2 0x7619 DUP4 DUP2 MUL SWAP1 DUP2 DIV DUP5 SUB PUSH3 0x1CC JUMPI PUSH1 0xC SSTORE PUSH3 0x1A927 DUP4 DUP2 MUL SWAP1 DUP2 DIV DUP5 SUB PUSH3 0x1CC JUMPI PUSH1 0xD SSTORE PUSH3 0x5FA8D DUP4 DUP2 MUL SWAP1 DUP2 DIV DUP5 SUB PUSH3 0x1CC JUMPI PUSH1 0xE SSTORE PUSH3 0x1585FB DUP4 DUP2 MUL SWAP1 DUP2 DIV DUP5 SUB PUSH3 0x1CC JUMPI PUSH1 0xF SSTORE PUSH3 0x4D7BEE SWAP3 DUP1 DUP5 MUL SWAP4 DUP5 DIV SUB PUSH3 0x1B9 JUMPI POP POP PUSH1 0x10 SSTORE PUSH2 0x18B4 SWAP1 DUP2 PUSH3 0x228 DUP3 CODECOPY RETURN JUMPDEST PUSH4 0x4E487B71 PUSH1 0xE0 SHL DUP3 MSTORE PUSH1 0x4 MSTORE PUSH1 0x24 SWAP2 POP REVERT JUMPDEST PUSH4 0x4E487B71 PUSH1 0xE0 SHL DUP4 MSTORE PUSH1 0x4 DUP3 SWAP1 MSTORE PUSH1 0x24 DUP4 REVERT JUMPDEST POP PUSH1 0x24 SWAP2 PUSH4 0x4E487B71 PUSH1 0xE0 SHL DUP3 MSTORE PUSH1 0x4 MSTORE REVERT JUMPDEST PUSH1 0x40 MLOAD PUSH4 0x1E4FBDF7 PUSH1 0xE0 SHL DUP2 MSTORE PUSH1 0x0 PUSH1 0x4 DUP3 ADD MSTORE PUSH1 0x24 SWAP1 REVERT JUMPDEST PUSH1 0x0 DUP1 REVERT JUMPDEST PUSH4 0x4E487B71 PUSH1 0xE0 SHL PUSH1 0x0 MSTORE PUSH1 0x41 PUSH1 0x4 MSTORE PUSH1 0x24 PUSH1 0x0 REVERT INVALID PUSH1 0x80 PUSH1 0x40 SWAP1 DUP1 DUP3 MSTORE PUSH1 0x4 SWAP2 DUP3 CALLDATASIZE LT ISZERO PUSH2 0x17 JUMPI PUSH1 0x0 DUP1 REVERT JUMPDEST PUSH1 0x0 SWAP3 DUP4 CALLDATALOAD PUSH1 0xE0 SHR SWAP3 DUP4 PUSH4 0x4841337 EQ PUSH2 0xE01 JUMPI POP DUP3 PUSH4 0x6210197 EQ PUSH2 0xDBC JUMPI DUP3 PUSH4 0x21A6816A EQ PUSH2 0x992 JUMPI DUP3 PUSH4 0x2389E78A EQ PUSH2 0xD8F JUMPI DUP3 PUSH4 0x29D7F9EB EQ PUSH2 0xD02 JUMPI DUP3 PUSH4 0x2BDBE56D EQ PUSH2 0xCE6 JUMPI DUP3 PUSH4 0x2DBE6203 EQ PUSH2 0xC99 JUMPI DUP3 PUSH4 0x3013CE29 EQ PUSH2 0xC70 JUMPI DUP3 PUSH4 0x39AE9EFD EQ PUSH2 0xC47 JUMPI DUP3 PUSH4 0x3AC272C2 EQ PUSH2 0x24F JUMPI DUP3 PUSH4 0x42369FC3 EQ PUSH2 0xC0F JUMPI DUP3 PUSH4 0x47CD5191 EQ PUSH2 0xBAF JUMPI DUP3 PUSH4 0x49DCA24F EQ PUSH2 0xB78 JUMPI DUP3 PUSH4 0x4E759962 EQ PUSH2 0xB5C JUMPI DUP3 PUSH4 0x53DAFCBB EQ PUSH2 0xB33 JUMPI DUP3 PUSH4 0x61DBA5F3 EQ PUSH2 0x660 JUMPI DUP3 PUSH4 0x686A38BD EQ PUSH2 0xAB5 JUMPI DUP3 PUSH4 0x6F8760FE EQ PUSH2 0xA70 JUMPI DUP3 PUSH4 0x715018A6 EQ PUSH2 0xA28 JUMPI DUP3 PUSH4 0x732BDC53 EQ PUSH2 0xA0C JUMPI DUP3 PUSH4 0x792BA2F2 EQ PUSH2 0x9CA JUMPI DUP3 PUSH4 0x7D4CF0B8 EQ PUSH2 0x5CA JUMPI DUP3 PUSH4 0x86F7D530 EQ PUSH2 0x992 JUMPI DUP3 PUSH4 0x8919D5E9 EQ PUSH2 0x969 JUMPI DUP3 PUSH4 0x8DA5CB5B EQ PUSH2 0x941 JUMPI DUP3 PUSH4 0x96E03328 EQ PUSH2 0x665 JUMPI DUP3 PUSH4 0x9898FCD3 EQ PUSH2 0x660 JUMPI DUP3 PUSH4 0xA5C34061 EQ PUSH2 0x643 JUMPI DUP3 PUSH4 0xA7229FD9 EQ PUSH2 0x5EB JUMPI DUP3 PUSH4 0xB0AC4626 EQ PUSH2 0x5CF JUMPI DUP3 PUSH4 0xB2418AF8 EQ PUSH2 0x5CA JUMPI DUP3 PUSH4 0xC21EBD07 EQ PUSH2 0x5A1 JUMPI DUP3 PUSH4 0xC319F5BC EQ PUSH2 0x4AF JUMPI DUP3 PUSH4 0xCE870263 EQ PUSH2 0x462 JUMPI DUP3 PUSH4 0xD3BA4F96 EQ PUSH2 0x41D JUMPI DUP3 PUSH4 0xD3E848F1 EQ PUSH2 0x3F4 JUMPI DUP3 PUSH4 0xD4A90286 EQ PUSH2 0x365 JUMPI DUP3 PUSH4 0xDE9A7E19 EQ PUSH2 0x33C JUMPI DUP3 PUSH4 0xE1F1C4A7 EQ PUSH2 0x31B JUMPI DUP3 PUSH4 0xEB63E1C2 EQ PUSH2 0x2F2 JUMPI DUP3 PUSH4 0xF2FDE38B EQ PUSH2 0x27C JUMPI DUP3 PUSH4 0xF3B36BF8 EQ PUSH2 0x24F JUMPI POP POP PUSH4 0xF8316C90 EQ PUSH2 0x200 JUMPI PUSH1 0x0 DUP1 REVERT JUMPDEST CALLVALUE PUSH2 0x24C JUMPI PUSH1 0x20 CALLDATASIZE PUSH1 0x3 NOT ADD SLT PUSH2 0x24C JUMPI PUSH2 0x219 PUSH2 0xE39 JUMP JUMPDEST PUSH2 0x221 PUSH2 0xF1C JUMP JUMPDEST PUSH1 0x1 PUSH1 0x1 PUSH1 0xA0 SHL SUB AND PUSH2 0x235 DUP2 ISZERO ISZERO PUSH2 0xF48 JUMP JUMPDEST PUSH1 0x13 DUP1 SLOAD PUSH1 0x1 PUSH1 0x1 PUSH1 0xA0 SHL SUB NOT AND SWAP2 SWAP1 SWAP2 OR SWAP1 SSTORE DUP1 RETURN JUMPDEST DUP1 REVERT JUMPDEST SWAP1 SWAP2 POP CALLVALUE PUSH2 0x278 JUMPI PUSH1 0x20 CALLDATASIZE PUSH1 0x3 NOT ADD SLT PUSH2 0x278 JUMPI PUSH1 0x20 SWAP3 DUP3 SWAP2 CALLDATALOAD DUP2 MSTORE PUSH1 0x2 DUP5 MSTORE KECCAK256 SLOAD SWAP1 MLOAD SWAP1 DUP2 MSTORE RETURN JUMPDEST DUP3 DUP1 REVERT JUMPDEST SWAP1 SWAP2 POP CALLVALUE PUSH2 0x278 JUMPI PUSH1 0x20 CALLDATASIZE PUSH1 0x3 NOT ADD SLT PUSH2 0x278 JUMPI PUSH2 0x298 PUSH2 0xE39 JUMP JUMPDEST SWAP1 PUSH2 0x2A1 PUSH2 0xF1C JUMP JUMPDEST PUSH1 0x1 PUSH1 0x1 PUSH1 0xA0 SHL SUB SWAP2 DUP3 AND SWAP3 DUP4 ISZERO PUSH2 0x2DC JUMPI POP POP DUP3 SLOAD PUSH1 0x1 PUSH1 0x1 PUSH1 0xA0 SHL SUB NOT DUP2 AND DUP4 OR DUP5 SSTORE AND PUSH1 0x0 DUP1 MLOAD PUSH1 0x20 PUSH2 0x185F DUP4 CODECOPY DUP2 MLOAD SWAP2 MSTORE DUP4 DUP1 LOG3 DUP1 RETURN JUMPDEST MLOAD PUSH4 0x1E4FBDF7 PUSH1 0xE0 SHL DUP2 MSTORE SWAP1 DUP2 ADD DUP5 SWAP1 MSTORE PUSH1 0x24 SWAP1 REVERT JUMPDEST SWAP1 SWAP2 POP CALLVALUE PUSH2 0x278 JUMPI PUSH1 0x20 CALLDATASIZE PUSH1 0x3 NOT ADD SLT PUSH2 0x278 JUMPI PUSH1 0x20 SWAP3 DUP3 SWAP2 CALLDATALOAD DUP2 MSTORE PUSH1 0x1 DUP5 MSTORE KECCAK256 SLOAD SWAP1 MLOAD SWAP1 DUP2 MSTORE RETURN JUMPDEST DUP4 DUP3 CALLVALUE PUSH2 0x338 JUMPI DUP2 PUSH1 0x3 NOT CALLDATASIZE ADD SLT PUSH2 0x338 JUMPI PUSH1 0x20 SWAP1 MLOAD PUSH2 0x2710 DUP2 MSTORE RETURN JUMPDEST POP DUP1 REVERT JUMPDEST DUP4 DUP3 CALLVALUE PUSH2 0x338 JUMPI DUP2 PUSH1 0x3 NOT CALLDATASIZE ADD SLT PUSH2 0x338 JUMPI PUSH1 0x17 SLOAD SWAP1 MLOAD PUSH1 0x1 PUSH1 0x1 PUSH1 0xA0 SHL SUB SWAP1 SWAP2 AND DUP2 MSTORE PUSH1 0x20 SWAP1 RETURN JUMPDEST DUP4 CALLVALUE PUSH2 0x24C JUMPI PUSH2 0x374 CALLDATASIZE PUSH2 0xE77 JUMP JUMPDEST SWAP3 DUP2 DUP4 MSTORE PUSH1 0x1 PUSH1 0x20 MSTORE DUP5 DUP4 KECCAK256 SLOAD DUP5 LT ISZERO PUSH2 0x3CC JUMPI PUSH1 0x60 DUP6 PUSH2 0x39F DUP7 DUP3 DUP8 DUP8 DUP2 MSTORE PUSH1 0x1 PUSH1 0x20 MSTORE KECCAK256 PUSH2 0x1020 JUMP JUMPDEST POP SWAP1 PUSH1 0x1 DUP1 PUSH1 0xA0 SHL SUB DUP3 SLOAD AND SWAP2 PUSH1 0xFF PUSH1 0x2 PUSH1 0x1 DUP4 ADD SLOAD SWAP3 ADD SLOAD AND SWAP1 DUP3 MLOAD SWAP4 DUP5 MSTORE PUSH1 0x20 DUP5 ADD MSTORE ISZERO ISZERO SWAP1 DUP3 ADD MSTORE RETURN JUMPDEST PUSH1 0x64 SWAP1 PUSH1 0x20 DUP7 MLOAD SWAP2 PUSH3 0x461BCD PUSH1 0xE5 SHL DUP4 MSTORE DUP3 ADD MSTORE PUSH1 0x2 PUSH1 0x24 DUP3 ADD MSTORE PUSH2 0x27A1 PUSH1 0xF1 SHL PUSH1 0x44 DUP3 ADD MSTORE REVERT JUMPDEST DUP4 DUP3 CALLVALUE PUSH2 0x338 JUMPI DUP2 PUSH1 0x3 NOT CALLDATASIZE ADD SLT PUSH2 0x338 JUMPI PUSH1 0x15 SLOAD SWAP1 MLOAD PUSH1 0x1 PUSH1 0x1 PUSH1 0xA0 SHL SUB SWAP1 SWAP2 AND DUP2 MSTORE PUSH1 0x20 SWAP1 RETURN JUMPDEST DUP4 CALLVALUE PUSH2 0x24C JUMPI PUSH1 0x20 CALLDATASIZE PUSH1 0x3 NOT ADD SLT PUSH2 0x24C JUMPI PUSH2 0x437 PUSH2 0xE39 JUMP JUMPDEST PUSH2 0x43F PUSH2 0xF1C JUMP JUMPDEST PUSH1 0x14 DUP1 SLOAD PUSH1 0x1 PUSH1 0x1 PUSH1 0xA0 SHL SUB NOT AND PUSH1 0x1 PUSH1 0x1 PUSH1 0xA0 SHL SUB SWAP3 SWAP1 SWAP3 AND SWAP2 SWAP1 SWAP2 OR SWAP1 SSTORE DUP1 RETURN JUMPDEST DUP4 CALLVALUE PUSH2 0x24C JUMPI PUSH1 0x20 CALLDATASIZE PUSH1 0x3 NOT ADD SLT PUSH2 0x24C JUMPI PUSH2 0x47C PUSH2 0xE39 JUMP JUMPDEST PUSH2 0x484 PUSH2 0xF1C JUMP JUMPDEST PUSH1 0x1 PUSH1 0x1 PUSH1 0xA0 SHL SUB AND PUSH2 0x498 DUP2 ISZERO ISZERO PUSH2 0xF48 JUMP JUMPDEST PUSH1 0x16 DUP1 SLOAD PUSH1 0x1 PUSH1 0x1 PUSH1 0xA0 SHL SUB NOT AND SWAP2 SWAP1 SWAP2 OR SWAP1 SSTORE DUP1 RETURN JUMPDEST SWAP1 SWAP2 POP CALLVALUE PUSH2 0x278 JUMPI DUP3 PUSH1 0x20 CALLDATASIZE PUSH1 0x3 NOT ADD SLT PUSH2 0x24C JUMPI PUSH1 0x13 SLOAD PUSH2 0x549 SWAP3 PUSH1 0x1 PUSH1 0x1 PUSH1 0xA0 SHL SUB SWAP2 DUP3 AND SWAP1 PUSH2 0x4E2 DUP3 ISZERO ISZERO PUSH2 0x16D1 JUMP JUMPDEST DUP3 PUSH1 0x17 SLOAD AND PUSH2 0x4F2 DUP2 ISZERO ISZERO PUSH2 0x170E JUMP JUMPDEST DUP7 MLOAD SWAP4 PUSH2 0x4FE DUP6 PUSH2 0xFD3 JUMP JUMPDEST PUSH1 0x2 DUP6 MSTORE DUP8 CALLDATASIZE PUSH1 0x20 DUP8 ADD CALLDATACOPY PUSH1 0x11 SLOAD AND PUSH2 0x516 DUP6 PUSH2 0x1749 JUMP JUMPDEST MSTORE PUSH2 0x520 DUP5 PUSH2 0x1756 JUMP JUMPDEST MSTORE DUP6 MLOAD DUP1 SWAP6 DUP2 SWAP5 DUP3 SWAP4 PUSH4 0xD06CA61F PUSH1 0xE0 SHL DUP5 MSTORE DUP1 CALLDATALOAD SWAP1 DUP5 ADD MSTORE DUP9 PUSH1 0x24 DUP5 ADD MSTORE PUSH1 0x44 DUP4 ADD SWAP1 PUSH2 0x17E1 JUMP JUMPDEST SUB SWAP2 GAS STATICCALL SWAP1 DUP2 ISZERO PUSH2 0x595 JUMPI SWAP1 PUSH2 0x56A SWAP2 DUP5 PUSH1 0x20 SWAP6 SWAP3 PUSH2 0x572 JUMPI JUMPDEST POP POP PUSH2 0x1756 JUMP JUMPDEST MLOAD SWAP1 MLOAD SWAP1 DUP2 MSTORE RETURN JUMPDEST PUSH2 0x58E SWAP3 POP RETURNDATASIZE DUP1 SWAP2 DUP4 RETURNDATACOPY PUSH2 0x586 DUP2 DUP4 PUSH2 0xFEE JUMP JUMPDEST DUP2 ADD SWAP1 PUSH2 0x1766 JUMP JUMPDEST CODESIZE DUP1 PUSH2 0x563 JUMP JUMPDEST POP POP MLOAD SWAP1 RETURNDATASIZE SWAP1 DUP3 RETURNDATACOPY RETURNDATASIZE SWAP1 REVERT JUMPDEST DUP4 DUP3 CALLVALUE PUSH2 0x338 JUMPI DUP2 PUSH1 0x3 NOT CALLDATASIZE ADD SLT PUSH2 0x338 JUMPI PUSH1 0x13 SLOAD SWAP1 MLOAD PUSH1 0x1 PUSH1 0x1 PUSH1 0xA0 SHL SUB SWAP1 SWAP2 AND DUP2 MSTORE PUSH1 0x20 SWAP1 RETURN JUMPDEST PUSH2 0xEEF JUMP JUMPDEST DUP4 DUP3 CALLVALUE PUSH2 0x338 JUMPI DUP2 PUSH1 0x3 NOT CALLDATASIZE ADD SLT PUSH2 0x338 JUMPI PUSH1 0x20 SWAP1 MLOAD PUSH1 0xA DUP2 MSTORE RETURN JUMPDEST DUP4 CALLVALUE PUSH2 0x24C JUMPI PUSH1 0x60 CALLDATASIZE PUSH1 0x3 NOT ADD SLT PUSH2 0x24C JUMPI PUSH2 0x605 PUSH2 0xE39 JUMP JUMPDEST PUSH1 0x1 PUSH1 0x1 PUSH1 0xA0 SHL SUB PUSH1 0x24 CALLDATALOAD DUP2 DUP2 AND SWAP3 SWAP2 DUP4 DUP3 SUB PUSH2 0x63F JUMPI PUSH2 0x632 PUSH2 0x63C SWAP5 PUSH2 0x62B PUSH2 0xF1C JUMP JUMPDEST ISZERO ISZERO PUSH2 0xF48 JUMP JUMPDEST PUSH1 0x44 CALLDATALOAD SWAP3 AND PUSH2 0x1650 JUMP JUMPDEST DUP1 RETURN JUMPDEST DUP5 DUP1 REVERT JUMPDEST DUP4 DUP3 CALLVALUE PUSH2 0x338 JUMPI DUP2 PUSH1 0x3 NOT CALLDATASIZE ADD SLT PUSH2 0x338 JUMPI PUSH1 0x20 SWAP1 MLOAD PUSH2 0x7D0 DUP2 MSTORE RETURN JUMPDEST PUSH2 0xEC1 JUMP JUMPDEST SWAP1 SWAP2 POP CALLVALUE PUSH2 0x278 JUMPI PUSH2 0x676 CALLDATASIZE PUSH2 0xE77 JUMP JUMPDEST PUSH32 0x9B779B17422D0DF92223018B32B4D1FA46E071723D6817E2486D003BECC55F00 SWAP3 PUSH1 0x2 DUP5 SLOAD EQ PUSH2 0x933 JUMPI PUSH1 0x2 DUP5 SSTORE DUP3 ISZERO PUSH2 0x902 JUMPI CALLER DUP7 MSTORE PUSH1 0x20 SWAP2 PUSH1 0x3 DUP4 MSTORE DUP4 DUP7 DUP9 KECCAK256 SLOAD LT PUSH2 0x8C1 JUMPI PUSH1 0x13 SLOAD PUSH1 0x1 PUSH1 0x1 PUSH1 0xA0 SHL SUB SWAP3 SWAP1 PUSH2 0x6D9 SWAP1 DUP5 AND ISZERO ISZERO PUSH2 0x16D1 JUMP JUMPDEST PUSH2 0x6E8 DUP4 PUSH1 0x17 SLOAD AND ISZERO ISZERO PUSH2 0x170E JUMP JUMPDEST CALLER DUP9 MSTORE PUSH1 0x3 DUP5 MSTORE DUP7 DUP9 KECCAK256 DUP1 SLOAD SWAP1 DUP7 DUP3 SUB SWAP2 DUP3 GT PUSH2 0x8AE JUMPI SSTORE DUP8 DUP5 DUP5 PUSH1 0x11 SLOAD AND PUSH1 0x44 DUP7 PUSH1 0x13 SLOAD AND DUP12 MLOAD SWAP5 DUP6 SWAP4 DUP5 SWAP3 PUSH4 0x95EA7B3 PUSH1 0xE0 SHL DUP5 MSTORE DUP9 DUP5 ADD MSTORE DUP12 PUSH1 0x24 DUP5 ADD MSTORE GAS CALL DUP1 ISZERO PUSH2 0x8A4 JUMPI PUSH2 0x869 JUMPI JUMPDEST POP DUP7 MLOAD SWAP3 PUSH2 0x743 DUP5 PUSH2 0xFD3 JUMP JUMPDEST PUSH1 0x2 DUP5 MSTORE DUP8 CALLDATASIZE DUP7 DUP7 ADD CALLDATACOPY DUP1 PUSH1 0x11 SLOAD AND PUSH2 0x75B DUP6 PUSH2 0x1749 JUMP JUMPDEST MSTORE DUP1 PUSH1 0x17 SLOAD AND PUSH2 0x76A DUP6 PUSH2 0x1756 JUMP JUMPDEST MSTORE PUSH1 0x13 SLOAD AND SWAP1 PUSH2 0x12C TIMESTAMP ADD DUP1 TIMESTAMP GT PUSH2 0x856 JUMPI DUP10 DUP1 SWAP5 SWAP4 SWAP3 DUP9 SWAP3 PUSH2 0x7B2 DUP13 MLOAD SWAP9 DUP10 SWAP8 DUP9 SWAP7 DUP8 SWAP6 PUSH4 0x38ED1739 PUSH1 0xE0 SHL DUP8 MSTORE DUP7 ADD MSTORE PUSH1 0x24 DUP6 ADD MSTORE PUSH1 0xA0 PUSH1 0x44 DUP6 ADD MSTORE PUSH1 0xA4 DUP5 ADD SWAP1 PUSH2 0x17E1 JUMP JUMPDEST SWAP1 CALLER PUSH1 0x64 DUP5 ADD MSTORE PUSH1 0x84 DUP4 ADD MSTORE SUB SWAP3 GAS CALL SWAP1 DUP2 ISZERO PUSH2 0x84C JUMPI SWAP2 PUSH2 0x821 PUSH1 0x1 SWAP7 SWAP3 PUSH32 0xB59929A0CEEDA5FC5DC7C15F3C2B20A06D67071CDECB9466F1470DF5F4BD7BF7 SWAP5 DUP10 SWAP2 PUSH2 0x832 JUMPI JUMPDEST POP PUSH2 0x804 DUP2 PUSH2 0x1756 JUMP JUMPDEST MLOAD CALLER DUP11 MSTORE PUSH1 0x5 DUP5 MSTORE PUSH2 0x81A DUP6 DUP12 KECCAK256 SWAP2 DUP3 SLOAD PUSH2 0x10F0 JUMP JUMPDEST SWAP1 SSTORE PUSH2 0x1756 JUMP JUMPDEST MLOAD SWAP1 DUP3 MLOAD SWAP5 DUP6 MSTORE DUP5 ADD MSTORE CALLER SWAP3 LOG2 SSTORE DUP1 RETURN JUMPDEST PUSH2 0x846 SWAP2 POP RETURNDATASIZE DUP1 DUP12 DUP4 RETURNDATACOPY PUSH2 0x586 DUP2 DUP4 PUSH2 0xFEE JUMP JUMPDEST CODESIZE PUSH2 0x7FA JUMP JUMPDEST DUP6 MLOAD RETURNDATASIZE DUP9 DUP3 RETURNDATACOPY RETURNDATASIZE SWAP1 REVERT JUMPDEST PUSH4 0x4E487B71 PUSH1 0xE0 SHL DUP11 MSTORE PUSH1 0x11 DUP3 MSTORE PUSH1 0x24 DUP11 REVERT JUMPDEST DUP5 DUP2 DUP2 RETURNDATASIZE DUP4 GT PUSH2 0x89D JUMPI JUMPDEST PUSH2 0x87E DUP2 DUP4 PUSH2 0xFEE JUMP JUMPDEST DUP2 ADD SUB SLT PUSH2 0x899 JUMPI MLOAD DUP1 ISZERO ISZERO SUB PUSH2 0x895 JUMPI CODESIZE PUSH2 0x736 JUMP JUMPDEST DUP8 DUP1 REVERT JUMPDEST DUP9 DUP1 REVERT JUMPDEST POP RETURNDATASIZE PUSH2 0x874 JUMP JUMPDEST DUP9 MLOAD RETURNDATASIZE DUP12 DUP3 RETURNDATACOPY RETURNDATASIZE SWAP1 REVERT JUMPDEST PUSH4 0x4E487B71 PUSH1 0xE0 SHL DUP11 MSTORE PUSH1 0x11 DUP4 MSTORE PUSH1 0x24 DUP11 REVERT JUMPDEST POP PUSH1 0x64 SWAP2 DUP6 MLOAD SWAP2 PUSH3 0x461BCD PUSH1 0xE5 SHL DUP4 MSTORE DUP3 ADD MSTORE PUSH1 0x1C PUSH1 0x24 DUP3 ADD MSTORE PUSH28 0x496E73756666696369656E74207669727475616C2062616C616E6365 PUSH1 0x20 SHL PUSH1 0x44 DUP3 ADD MSTORE REVERT JUMPDEST PUSH1 0x64 SWAP1 PUSH1 0x20 DUP7 MLOAD SWAP2 PUSH3 0x461BCD PUSH1 0xE5 SHL DUP4 MSTORE DUP3 ADD MSTORE PUSH1 0xB PUSH1 0x24 DUP3 ADD MSTORE PUSH11 0x16995C9BC8185B5BDD5B9D PUSH1 0xAA SHL PUSH1 0x44 DUP3 ADD MSTORE REVERT JUMPDEST DUP5 MLOAD PUSH4 0x3EE5AEB5 PUSH1 0xE0 SHL DUP2 MSTORE REVERT JUMPDEST DUP4 DUP3 CALLVALUE PUSH2 0x338 JUMPI DUP2 PUSH1 0x3 NOT CALLDATASIZE ADD SLT PUSH2 0x338 JUMPI SWAP1 SLOAD SWAP1 MLOAD PUSH1 0x1 PUSH1 0x1 PUSH1 0xA0 SHL SUB SWAP1 SWAP2 AND DUP2 MSTORE PUSH1 0x20 SWAP1 RETURN JUMPDEST DUP4 DUP3 CALLVALUE PUSH2 0x338 JUMPI DUP2 PUSH1 0x3 NOT CALLDATASIZE ADD SLT PUSH2 0x338 JUMPI PUSH1 0x12 SLOAD SWAP1 MLOAD PUSH1 0x1 PUSH1 0x1 PUSH1 0xA0 SHL SUB SWAP1 SWAP2 AND DUP2 MSTORE PUSH1 0x20 SWAP1 RETURN JUMPDEST DUP4 DUP3 CALLVALUE PUSH2 0x338 JUMPI PUSH1 0x20 CALLDATASIZE PUSH1 0x3 NOT ADD SLT PUSH2 0x338 JUMPI PUSH1 0x20 SWAP2 DUP2 SWAP1 PUSH1 0x1 PUSH1 0x1 PUSH1 0xA0 SHL SUB PUSH2 0x9BA PUSH2 0xE39 JUMP JUMPDEST AND DUP2 MSTORE PUSH1 0x5 DUP5 MSTORE KECCAK256 SLOAD SWAP1 MLOAD SWAP1 DUP2 MSTORE RETURN JUMPDEST DUP4 CALLVALUE PUSH2 0x24C JUMPI PUSH1 0x20 CALLDATASIZE PUSH1 0x3 NOT ADD SLT PUSH2 0x24C JUMPI DUP3 SWAP1 PUSH1 0x1 PUSH1 0x1 PUSH1 0xA0 SHL SUB PUSH2 0x9EE PUSH2 0xE39 JUMP JUMPDEST AND DUP2 MSTORE PUSH1 0x3 PUSH1 0x20 MSTORE DUP2 DUP2 KECCAK256 SLOAD SWAP3 PUSH1 0x20 MSTORE KECCAK256 SLOAD DUP3 MLOAD SWAP2 DUP3 MSTORE PUSH1 0x20 DUP3 ADD MSTORE RETURN JUMPDEST DUP4 DUP3 CALLVALUE PUSH2 0x338 JUMPI DUP2 PUSH1 0x3 NOT CALLDATASIZE ADD SLT PUSH2 0x338 JUMPI PUSH1 0x20 SWAP1 MLOAD PUSH1 0xC8 DUP2 MSTORE RETURN JUMPDEST DUP4 CALLVALUE PUSH2 0x24C JUMPI DUP1 PUSH1 0x3 NOT CALLDATASIZE ADD SLT PUSH2 0x24C JUMPI PUSH2 0xA41 PUSH2 0xF1C JUMP JUMPDEST DUP1 SLOAD PUSH1 0x1 PUSH1 0x1 PUSH1 0xA0 SHL SUB NOT DUP2 AND DUP3 SSTORE DUP2 SWAP1 PUSH1 0x1 PUSH1 0x1 PUSH1 0xA0 SHL SUB AND PUSH1 0x0 DUP1 MLOAD PUSH1 0x20 PUSH2 0x185F DUP4 CODECOPY DUP2 MLOAD SWAP2 MSTORE DUP3 DUP1 LOG3 DUP1 RETURN JUMPDEST DUP4 CALLVALUE PUSH2 0x24C JUMPI PUSH1 0x20 CALLDATASIZE PUSH1 0x3 NOT ADD SLT PUSH2 0x24C JUMPI PUSH2 0xA8A PUSH2 0xE39 JUMP JUMPDEST PUSH2 0xA92 PUSH2 0xF1C JUMP JUMPDEST PUSH1 0x12 DUP1 SLOAD PUSH1 0x1 PUSH1 0x1 PUSH1 0xA0 SHL SUB NOT AND PUSH1 0x1 PUSH1 0x1 PUSH1 0xA0 SHL SUB SWAP3 SWAP1 SWAP3 AND SWAP2 SWAP1 SWAP2 OR SWAP1 SSTORE DUP1 RETURN JUMPDEST SWAP1 SWAP2 POP CALLVALUE PUSH2 0x278 JUMPI DUP2 PUSH1 0x3 NOT CALLDATASIZE ADD SLT PUSH2 0x278 JUMPI PUSH2 0xAD0 PUSH2 0xE39 JUMP JUMPDEST PUSH1 0x16 SLOAD SWAP1 SWAP3 SWAP1 CALLER PUSH1 0x1 PUSH1 0x1 PUSH1 0xA0 SHL SUB SWAP2 DUP3 AND EQ SWAP1 DUP2 ISZERO PUSH2 0xB26 JUMPI JUMPDEST POP ISZERO PUSH2 0xAFE JUMPI DUP4 PUSH2 0x63C PUSH1 0x24 CALLDATALOAD DUP6 PUSH2 0x10FD JUMP JUMPDEST SWAP1 PUSH1 0x20 PUSH1 0x64 SWAP3 MLOAD SWAP2 PUSH3 0x461BCD PUSH1 0xE5 SHL DUP4 MSTORE DUP3 ADD MSTORE PUSH1 0x2 PUSH1 0x24 DUP3 ADD MSTORE PUSH2 0x4E41 PUSH1 0xF0 SHL PUSH1 0x44 DUP3 ADD MSTORE REVERT JUMPDEST SWAP1 POP DUP5 SLOAD AND CALLER EQ CODESIZE PUSH2 0xAEB JUMP JUMPDEST DUP4 DUP3 CALLVALUE PUSH2 0x338 JUMPI DUP2 PUSH1 0x3 NOT CALLDATASIZE ADD SLT PUSH2 0x338 JUMPI PUSH1 0x16 SLOAD SWAP1 MLOAD PUSH1 0x1 PUSH1 0x1 PUSH1 0xA0 SHL SUB SWAP1 SWAP2 AND DUP2 MSTORE PUSH1 0x20 SWAP1 RETURN JUMPDEST DUP4 DUP3 CALLVALUE PUSH2 0x338 JUMPI DUP2 PUSH1 0x3 NOT CALLDATASIZE ADD SLT PUSH2 0x338 JUMPI PUSH1 0x20 SWAP1 MLOAD PUSH1 0xC DUP2 MSTORE RETURN JUMPDEST SWAP1 SWAP2 POP CALLVALUE PUSH2 0x278 JUMPI PUSH1 0x20 CALLDATASIZE PUSH1 0x3 NOT ADD SLT PUSH2 0x278 JUMPI PUSH1 0x20 SWAP3 DUP3 SWAP2 PUSH1 0x1 PUSH1 0x1 PUSH1 0xA0 SHL SUB PUSH2 0xBA1 PUSH2 0xE39 JUMP JUMPDEST AND DUP3 MSTORE DUP5 MSTORE KECCAK256 SLOAD SWAP1 MLOAD SWAP1 DUP2 MSTORE RETURN JUMPDEST SWAP1 DUP4 CALLVALUE PUSH2 0x24C JUMPI PUSH1 0x20 CALLDATASIZE PUSH1 0x3 NOT ADD SLT PUSH2 0x24C JUMPI DUP3 CALLDATALOAD SWAP1 PUSH1 0x1 DUP3 LT ISZERO DUP1 PUSH2 0xC04 JUMPI JUMPDEST PUSH2 0xBD9 SWAP1 PUSH2 0xF79 JUMP JUMPDEST PUSH1 0xB DUP3 LT ISZERO PUSH2 0xBF1 JUMPI PUSH1 0x20 DUP4 DUP4 PUSH1 0x6 ADD SLOAD SWAP1 MLOAD SWAP1 DUP2 MSTORE RETURN JUMPDEST PUSH4 0x4E487B71 PUSH1 0xE0 SHL DUP2 MSTORE PUSH1 0x32 DUP5 MSTORE PUSH1 0x24 SWAP1 REVERT JUMPDEST POP PUSH1 0xA DUP3 GT ISZERO PUSH2 0xBD0 JUMP JUMPDEST DUP4 DUP3 CALLVALUE PUSH2 0x338 JUMPI PUSH1 0x20 CALLDATASIZE PUSH1 0x3 NOT ADD SLT PUSH2 0x338 JUMPI PUSH1 0x20 SWAP2 DUP2 SWAP1 PUSH1 0x1 PUSH1 0x1 PUSH1 0xA0 SHL SUB PUSH2 0xC37 PUSH2 0xE39 JUMP JUMPDEST AND DUP2 MSTORE PUSH1 0x3 DUP5 MSTORE KECCAK256 SLOAD SWAP1 MLOAD SWAP1 DUP2 MSTORE RETURN JUMPDEST DUP4 DUP3 CALLVALUE PUSH2 0x338 JUMPI DUP2 PUSH1 0x3 NOT CALLDATASIZE ADD SLT PUSH2 0x338 JUMPI PUSH1 0x14 SLOAD SWAP1 MLOAD PUSH1 0x1 PUSH1 0x1 PUSH1 0xA0 SHL SUB SWAP1 SWAP2 AND DUP2 MSTORE PUSH1 0x20 SWAP1 RETURN JUMPDEST DUP4 DUP3 CALLVALUE PUSH2 0x338 JUMPI DUP2 PUSH1 0x3 NOT CALLDATASIZE ADD SLT PUSH2 0x338 JUMPI PUSH1 0x11 SLOAD SWAP1 MLOAD PUSH1 0x1 PUSH1 0x1 PUSH1 0xA0 SHL SUB SWAP1 SWAP2 AND DUP2 MSTORE PUSH1 0x20 SWAP1 RETURN JUMPDEST DUP4 CALLVALUE PUSH2 0x24C JUMPI PUSH1 0x20 CALLDATASIZE PUSH1 0x3 NOT ADD SLT PUSH2 0x24C JUMPI PUSH2 0xCB3 PUSH2 0xE39 JUMP JUMPDEST PUSH2 0xCBB PUSH2 0xF1C JUMP JUMPDEST PUSH1 0x1 PUSH1 0x1 PUSH1 0xA0 SHL SUB AND PUSH2 0xCCF DUP2 ISZERO ISZERO PUSH2 0xF48 JUMP JUMPDEST PUSH1 0x17 DUP1 SLOAD PUSH1 0x1 PUSH1 0x1 PUSH1 0xA0 SHL SUB NOT AND SWAP2 SWAP1 SWAP2 OR SWAP1 SSTORE DUP1 RETURN JUMPDEST DUP4 DUP3 CALLVALUE PUSH2 0x338 JUMPI DUP2 PUSH1 0x3 NOT CALLDATASIZE ADD SLT PUSH2 0x338 JUMPI PUSH1 0x20 SWAP1 MLOAD PUSH1 0x9 DUP2 MSTORE RETURN JUMPDEST SWAP2 POP CALLVALUE PUSH2 0x278 JUMPI PUSH2 0xD12 CALLDATASIZE PUSH2 0xE77 JUMP JUMPDEST SWAP3 SWAP1 SWAP2 PUSH2 0xD1D PUSH2 0xF1C JUMP JUMPDEST PUSH1 0x1 DUP4 LT ISZERO DUP1 PUSH2 0xD84 JUMPI JUMPDEST PUSH2 0xD31 SWAP1 PUSH2 0xF79 JUMP JUMPDEST DUP4 ISZERO PUSH2 0xD5C JUMPI POP PUSH1 0xB DUP3 LT ISZERO PUSH2 0xD49 JUMPI POP PUSH1 0x6 ADD SSTORE DUP1 RETURN JUMPDEST PUSH4 0x4E487B71 PUSH1 0xE0 SHL DUP5 MSTORE PUSH1 0x32 SWAP1 MSTORE PUSH1 0x24 DUP4 REVERT JUMPDEST SWAP1 PUSH1 0x20 PUSH1 0x64 SWAP3 MLOAD SWAP2 PUSH3 0x461BCD PUSH1 0xE5 SHL DUP4 MSTORE DUP3 ADD MSTORE PUSH1 0x2 PUSH1 0x24 DUP3 ADD MSTORE PUSH2 0x503 PUSH1 0xF4 SHL PUSH1 0x44 DUP3 ADD MSTORE REVERT JUMPDEST POP PUSH1 0xA DUP4 GT ISZERO PUSH2 0xD28 JUMP JUMPDEST SWAP1 SWAP2 POP CALLVALUE PUSH2 0x278 JUMPI PUSH1 0x20 CALLDATASIZE PUSH1 0x3 NOT ADD SLT PUSH2 0x278 JUMPI CALLDATALOAD PUSH1 0xB DUP2 LT ISZERO PUSH2 0x278 JUMPI PUSH1 0x20 SWAP3 POP PUSH1 0x6 ADD SLOAD SWAP1 MLOAD SWAP1 DUP2 MSTORE RETURN JUMPDEST DUP4 CALLVALUE PUSH2 0x24C JUMPI PUSH1 0x20 CALLDATASIZE PUSH1 0x3 NOT ADD SLT PUSH2 0x24C JUMPI PUSH2 0xDD6 PUSH2 0xE39 JUMP JUMPDEST PUSH2 0xDDE PUSH2 0xF1C JUMP JUMPDEST PUSH1 0x15 DUP1 SLOAD PUSH1 0x1 PUSH1 0x1 PUSH1 0xA0 SHL SUB NOT AND PUSH1 0x1 PUSH1 0x1 PUSH1 0xA0 SHL SUB SWAP3 SWAP1 SWAP3 AND SWAP2 SWAP1 SWAP2 OR SWAP1 SSTORE DUP1 RETURN JUMPDEST DUP5 SWAP1 CALLVALUE PUSH2 0x338 JUMPI DUP2 PUSH1 0x3 NOT CALLDATASIZE ADD SLT PUSH2 0x338 JUMPI DUP1 PUSH2 0x222E PUSH1 0x20 SWAP3 MSTORE RETURN JUMPDEST PUSH1 0x0 SWAP2 SUB SLT PUSH2 0xE28 JUMPI JUMP JUMPDEST PUSH1 0x0 DUP1 REVERT JUMPDEST PUSH1 0x1 PUSH1 0x1 PUSH1 0xA0 SHL SUB AND SWAP1 JUMP JUMPDEST PUSH1 0x4 CALLDATALOAD SWAP1 PUSH1 0x1 PUSH1 0x1 PUSH1 0xA0 SHL SUB DUP3 AND DUP3 SUB PUSH2 0xE28 JUMPI JUMP JUMPDEST PUSH1 0xB DUP2 LT ISZERO PUSH2 0xE61 JUMPI PUSH1 0x6 ADD SWAP1 PUSH1 0x0 SWAP1 JUMP JUMPDEST PUSH4 0x4E487B71 PUSH1 0xE0 SHL PUSH1 0x0 MSTORE PUSH1 0x32 PUSH1 0x4 MSTORE PUSH1 0x24 PUSH1 0x0 REVERT JUMPDEST PUSH1 0x40 SWAP1 PUSH1 0x3 NOT ADD SLT PUSH2 0xE28 JUMPI PUSH1 0x4 CALLDATALOAD SWAP1 PUSH1 0x24 CALLDATALOAD SWAP1 JUMP JUMPDEST PUSH1 0x1 PUSH1 0x1 PUSH1 0xA0 SHL SUB AND PUSH1 0x0 SWAP1 DUP2 MSTORE PUSH1 0x3 PUSH1 0x20 MSTORE PUSH1 0x40 SWAP1 KECCAK256 SWAP1 JUMP JUMPDEST PUSH1 0x1 PUSH1 0x1 PUSH1 0xA0 SHL SUB AND PUSH1 0x0 SWAP1 DUP2 MSTORE PUSH1 0x4 PUSH1 0x20 MSTORE PUSH1 0x40 SWAP1 KECCAK256 SWAP1 JUMP JUMPDEST CALLVALUE PUSH2 0xE28 JUMPI PUSH1 0x0 CALLDATASIZE PUSH1 0x3 NOT ADD SLT PUSH2 0xE28 JUMPI PUSH1 0x20 PUSH1 0x40 MLOAD PUSH2 0xFA0 DUP2 MSTORE RETURN JUMPDEST SWAP1 DUP2 MSTORE PUSH1 0x20 DUP2 ADD SWAP2 SWAP1 SWAP2 MSTORE PUSH1 0x40 ADD SWAP1 JUMP JUMPDEST CALLVALUE PUSH2 0xE28 JUMPI PUSH1 0x0 CALLDATASIZE PUSH1 0x3 NOT ADD SLT PUSH2 0xE28 JUMPI PUSH1 0x20 PUSH1 0x40 MLOAD PUSH2 0x271 DUP2 MSTORE RETURN JUMPDEST PUSH1 0x0 MSTORE PUSH1 0x1 PUSH1 0x20 MSTORE PUSH1 0x40 PUSH1 0x0 KECCAK256 SWAP1 JUMP JUMPDEST PUSH1 0x0 SLOAD PUSH1 0x1 PUSH1 0x1 PUSH1 0xA0 SHL SUB AND CALLER SUB PUSH2 0xF30 JUMPI JUMP JUMPDEST PUSH1 0x40 MLOAD PUSH4 0x118CDAA7 PUSH1 0xE0 SHL DUP2 MSTORE CALLER PUSH1 0x4 DUP3 ADD MSTORE PUSH1 0x24 SWAP1 REVERT JUMPDEST ISZERO PUSH2 0xF4F JUMPI JUMP JUMPDEST PUSH1 0x40 MLOAD PUSH3 0x461BCD PUSH1 0xE5 SHL DUP2 MSTORE PUSH1 0x20 PUSH1 0x4 DUP3 ADD MSTORE PUSH1 0x2 PUSH1 0x24 DUP3 ADD MSTORE PUSH2 0x24AB PUSH1 0xF1 SHL PUSH1 0x44 DUP3 ADD MSTORE PUSH1 0x64 SWAP1 REVERT JUMPDEST ISZERO PUSH2 0xF80 JUMPI JUMP JUMPDEST PUSH1 0x40 MLOAD PUSH3 0x461BCD PUSH1 0xE5 SHL DUP2 MSTORE PUSH1 0x20 PUSH1 0x4 DUP3 ADD MSTORE PUSH1 0x2 PUSH1 0x24 DUP3 ADD MSTORE PUSH2 0x1093 PUSH1 0xF2 SHL PUSH1 0x44 DUP3 ADD MSTORE PUSH1 0x64 SWAP1 REVERT JUMPDEST PUSH1 0x1 PUSH1 0x1 PUSH1 0x40 SHL SUB DUP2 GT PUSH2 0xFBD JUMPI PUSH1 0x40 MSTORE JUMP JUMPDEST PUSH4 0x4E487B71 PUSH1 0xE0 SHL PUSH1 0x0 MSTORE PUSH1 0x41 PUSH1 0x4 MSTORE PUSH1 0x24 PUSH1 0x0 REVERT JUMPDEST PUSH1 0x60 DUP2 ADD SWAP1 DUP2 LT PUSH1 0x1 PUSH1 0x1 PUSH1 0x40 SHL SUB DUP3 GT OR PUSH2 0xFBD JUMPI PUSH1 0x40 MSTORE JUMP JUMPDEST PUSH1 0x1F SWAP1 SWAP2 ADD PUSH1 0x1F NOT AND DUP2 ADD SWAP1 PUSH1 0x1 PUSH1 0x1 PUSH1 0x40 SHL SUB DUP3 GT SWAP1 DUP3 LT OR PUSH2 0xFBD JUMPI PUSH1 0x40 MSTORE JUMP JUMPDEST PUSH1 0x40 MLOAD SWAP1 PUSH2 0x101E DUP3 PUSH2 0xFD3 JUMP JUMPDEST JUMP JUMPDEST DUP1 SLOAD DUP3 LT ISZERO PUSH2 0xE61 JUMPI PUSH1 0x0 MSTORE PUSH1 0x3 PUSH1 0x20 PUSH1 0x0 KECCAK256 SWAP2 MUL ADD SWAP1 PUSH1 0x0 SWAP1 JUMP JUMPDEST DUP1 SLOAD PUSH1 0x1 PUSH1 0x40 SHL DUP2 LT ISZERO PUSH2 0xFBD JUMPI PUSH2 0x1059 SWAP2 PUSH1 0x1 DUP3 ADD DUP2 SSTORE PUSH2 0x1020 JUMP JUMPDEST PUSH2 0x1098 JUMPI PUSH1 0x2 PUSH1 0x40 SWAP2 PUSH1 0x1 DUP1 PUSH1 0xA0 SHL SUB DUP5 MLOAD AND PUSH1 0x1 DUP1 PUSH1 0xA0 SHL SUB NOT DUP3 SLOAD AND OR DUP2 SSTORE PUSH1 0x20 DUP5 ADD MLOAD PUSH1 0x1 DUP3 ADD SSTORE ADD SWAP2 ADD MLOAD ISZERO ISZERO PUSH1 0xFF DUP1 NOT DUP4 SLOAD AND SWAP2 AND OR SWAP1 SSTORE JUMP JUMPDEST PUSH4 0x4E487B71 PUSH1 0xE0 SHL PUSH1 0x0 MSTORE PUSH1 0x0 PUSH1 0x4 MSTORE PUSH1 0x24 PUSH1 0x0 REVERT JUMPDEST PUSH1 0x0 NOT DUP2 ADD SWAP2 SWAP1 DUP3 GT PUSH2 0x10BD JUMPI JUMP JUMPDEST PUSH4 0x4E487B71 PUSH1 0xE0 SHL PUSH1 0x0 MSTORE PUSH1 0x11 PUSH1 0x4 MSTORE PUSH1 0x24 PUSH1 0x0 REVERT JUMPDEST PUSH1 0x0 NOT DUP2 EQ PUSH2 0x10BD JUMPI PUSH1 0x1 ADD SWAP1 JUMP JUMPDEST SWAP1 PUSH1 0x1 DUP3 ADD DUP1 SWAP3 GT PUSH2 0x10BD JUMPI JUMP JUMPDEST SWAP2 SWAP1 DUP3 ADD DUP1 SWAP3 GT PUSH2 0x10BD JUMPI JUMP JUMPDEST SWAP1 PUSH2 0x1132 PUSH2 0x110A DUP3 PUSH2 0xF0C JUMP JUMPDEST PUSH2 0x1112 PUSH2 0x1011 JUMP JUMPDEST PUSH1 0x1 PUSH1 0x1 PUSH1 0xA0 SHL SUB DUP6 AND DUP2 MSTORE SWAP1 PUSH1 0x0 PUSH1 0x20 DUP4 ADD MSTORE PUSH1 0x0 PUSH1 0x40 DUP4 ADD MSTORE PUSH2 0x103C JUMP JUMPDEST DUP1 PUSH2 0x1145 PUSH2 0x113F DUP3 PUSH2 0xF0C JUMP JUMPDEST SLOAD PUSH2 0x10AE JUMP JUMPDEST PUSH1 0x40 MLOAD DUP2 DUP2 MSTORE SWAP1 SWAP4 PUSH1 0x1 PUSH1 0x1 PUSH1 0xA0 SHL SUB AND SWAP1 PUSH32 0x4E755DD64E53A9F7A5882E2E32EB64718C2273DE11E017BD47129B9FE2716D7C SWAP1 PUSH1 0x20 SWAP1 LOG3 PUSH2 0x1191 DUP2 PUSH1 0x0 MSTORE PUSH1 0x2 PUSH1 0x20 MSTORE PUSH1 0x40 PUSH1 0x0 KECCAK256 SWAP1 JUMP JUMPDEST SLOAD SWAP2 DUP3 LT PUSH2 0x119D JUMPI POP POP JUMP JUMPDEST PUSH2 0x11AF DUP3 PUSH2 0x11AA DUP4 PUSH2 0xF0C JUMP JUMPDEST PUSH2 0x1020 JUMP JUMPDEST POP SWAP2 PUSH1 0xC PUSH1 0x1 DUP5 ADD PUSH2 0x11C1 DUP2 SLOAD PUSH2 0x10D3 JUMP JUMPDEST DUP1 SWAP2 SSTORE LT ISZERO PUSH2 0x11CF JUMPI POP POP POP JUMP JUMPDEST DUP3 PUSH2 0x11F3 PUSH2 0x120E SWAP3 PUSH2 0x11EE PUSH1 0x2 PUSH2 0x101E SWAP8 ADD PUSH1 0x1 PUSH1 0xFF NOT DUP3 SLOAD AND OR SWAP1 SSTORE JUMP JUMPDEST PUSH2 0x10E2 JUMP JUMPDEST PUSH2 0x1207 DUP5 PUSH1 0x0 MSTORE PUSH1 0x2 PUSH1 0x20 MSTORE PUSH1 0x40 PUSH1 0x0 KECCAK256 SWAP1 JUMP JUMPDEST SSTORE SLOAD PUSH2 0xE2D JUMP JUMPDEST PUSH2 0x12AF JUMP JUMPDEST SWAP1 PUSH1 0x9 DUP3 MUL SWAP2 DUP1 DUP4 DIV PUSH1 0x9 EQ SWAP1 ISZERO OR ISZERO PUSH2 0x10BD JUMPI JUMP JUMPDEST SWAP1 PUSH2 0x222E SWAP2 DUP3 DUP2 MUL SWAP3 DUP2 DUP5 DIV EQ SWAP1 ISZERO OR ISZERO PUSH2 0x10BD JUMPI JUMP JUMPDEST SWAP1 PUSH2 0x271 SWAP2 DUP3 DUP2 MUL SWAP3 DUP2 DUP5 DIV EQ SWAP1 ISZERO OR ISZERO PUSH2 0x10BD JUMPI JUMP JUMPDEST SWAP1 PUSH2 0xFA0 SWAP2 DUP3 DUP2 MUL SWAP3 DUP2 DUP5 DIV EQ SWAP1 ISZERO OR ISZERO PUSH2 0x10BD JUMPI JUMP JUMPDEST SWAP1 PUSH2 0x7D0 SWAP2 DUP3 DUP2 MUL SWAP3 DUP2 DUP5 DIV EQ SWAP1 ISZERO OR ISZERO PUSH2 0x10BD JUMPI JUMP JUMPDEST PUSH1 0x40 SWAP2 SWAP5 SWAP4 SWAP3 PUSH1 0x60 DUP3 ADD SWAP6 PUSH1 0x1 DUP1 PUSH1 0xA0 SHL SUB AND DUP3 MSTORE PUSH1 0x20 DUP3 ADD MSTORE ADD MSTORE JUMP JUMPDEST PUSH1 0x40 MLOAD RETURNDATASIZE PUSH1 0x0 DUP3 RETURNDATACOPY RETURNDATASIZE SWAP1 REVERT JUMPDEST PUSH2 0x12CD PUSH2 0x12C8 PUSH2 0x12BE DUP5 PUSH2 0xE4F JUMP JUMPDEST SWAP1 SLOAD SWAP1 PUSH1 0x3 SHL SHR SWAP1 JUMP JUMPDEST PUSH2 0x1213 JUMP JUMPDEST SWAP2 PUSH1 0xA DUP2 LT ISZERO PUSH2 0x14DF JUMPI PUSH2 0x12F7 PUSH2 0x12E9 PUSH2 0x12F1 PUSH2 0x12E9 DUP7 PUSH2 0x1257 JUMP JUMPDEST PUSH2 0x2710 SWAP1 DIV SWAP1 JUMP JUMPDEST SWAP5 PUSH2 0x126E JUMP JUMPDEST SWAP3 PUSH2 0x1301 DUP4 PUSH2 0xE8D JUMP JUMPDEST PUSH2 0x130C DUP3 DUP3 SLOAD PUSH2 0x10F0 JUMP JUMPDEST SWAP1 SSTORE PUSH2 0x1317 DUP4 PUSH2 0xEA7 JUMP JUMPDEST PUSH2 0x1322 DUP3 DUP3 SLOAD PUSH2 0x10F0 JUMP JUMPDEST SWAP1 SSTORE PUSH1 0x40 MLOAD PUSH1 0x1 PUSH1 0x1 PUSH1 0xA0 SHL SUB DUP5 DUP2 AND SWAP3 SWAP2 DUP4 SWAP1 PUSH1 0x0 DUP1 MLOAD PUSH1 0x20 PUSH2 0x183F DUP4 CODECOPY DUP2 MLOAD SWAP2 MSTORE SWAP1 DUP1 PUSH2 0x1352 DUP9 DUP8 DUP4 PUSH2 0xEDE JUMP JUMPDEST SUB SWAP1 LOG2 PUSH2 0x1360 PUSH1 0x14 SLOAD PUSH2 0xE2D JUMP JUMPDEST DUP7 DUP3 DUP3 AND PUSH2 0x14C4 JUMPI JUMPDEST POP POP PUSH2 0x1376 PUSH1 0x16 SLOAD PUSH2 0xE2D JUMP JUMPDEST AND DUP1 PUSH2 0x13B5 JUMPI JUMPDEST POP SWAP2 DUP1 SWAP2 PUSH1 0x0 DUP1 MLOAD PUSH1 0x20 PUSH2 0x181F DUP4 CODECOPY DUP2 MLOAD SWAP2 MSTORE PUSH2 0x101E SWAP7 PUSH2 0x13AF SWAP6 PUSH2 0x13A7 PUSH1 0x40 MLOAD SWAP3 DUP4 SWAP3 DUP4 PUSH2 0xEDE JUMP JUMPDEST SUB SWAP1 LOG3 PUSH2 0x10E2 JUMP JUMPDEST SWAP1 PUSH2 0x10FD JUMP JUMPDEST DUP1 SWAP4 SWAP3 SWAP2 SWAP4 EXTCODESIZE ISZERO PUSH2 0xE28 JUMPI PUSH1 0x40 MLOAD PUSH4 0x1A495E57 PUSH1 0xE3 SHL DUP2 MSTORE PUSH1 0x0 SWAP2 DUP3 SWAP1 DUP3 SWAP1 DUP2 DUP4 DUP2 PUSH2 0x13E6 DUP11 DUP13 DUP15 PUSH1 0x4 DUP6 ADD PUSH2 0x1285 JUMP JUMPDEST SUB SWAP3 GAS CALL DUP1 ISZERO PUSH2 0x14A8 JUMPI PUSH2 0x14B1 JUMPI JUMPDEST POP PUSH2 0x140C PUSH2 0x1407 PUSH2 0x1407 PUSH1 0x16 SLOAD PUSH2 0xE2D JUMP JUMPDEST PUSH2 0xE2D JUMP JUMPDEST PUSH2 0x1420 PUSH2 0x12BE PUSH2 0x141B DUP7 PUSH2 0x10E2 JUMP JUMPDEST PUSH2 0xE4F JUMP JUMPDEST SWAP1 PUSH2 0x142A DUP6 PUSH2 0x10E2 JUMP JUMPDEST SWAP2 DUP2 EXTCODESIZE ISZERO PUSH2 0x14AD JUMPI PUSH1 0x40 MLOAD PUSH4 0xECDC5907 PUSH1 0xE0 SHL DUP2 MSTORE SWAP5 SWAP4 SWAP3 DUP6 SWAP3 SWAP2 DUP4 SWAP2 DUP6 SWAP2 DUP4 SWAP2 PUSH2 0x1459 SWAP2 DUP14 PUSH1 0x4 DUP6 ADD PUSH2 0x1285 JUMP JUMPDEST SUB SWAP3 GAS CALL DUP1 ISZERO PUSH2 0x14A8 JUMPI PUSH2 0x101E SWAP7 PUSH2 0x13AF SWAP6 DUP6 SWAP5 PUSH1 0x0 DUP1 MLOAD PUSH1 0x20 PUSH2 0x181F DUP4 CODECOPY DUP2 MLOAD SWAP2 MSTORE SWAP4 PUSH2 0x148F JUMPI JUMPDEST POP SWAP4 POP SWAP7 POP POP SWAP2 SWAP3 PUSH2 0x137D JUMP JUMPDEST DUP1 PUSH2 0x149C PUSH2 0x14A2 SWAP3 PUSH2 0xFAA JUMP JUMPDEST DUP1 PUSH2 0xE1D JUMP JUMPDEST CODESIZE PUSH2 0x1482 JUMP JUMPDEST PUSH2 0x12A3 JUMP JUMPDEST DUP4 DUP1 REVERT JUMPDEST DUP1 PUSH2 0x149C PUSH2 0x14BE SWAP3 PUSH2 0xFAA JUMP JUMPDEST CODESIZE PUSH2 0x13F5 JUMP JUMPDEST PUSH2 0x14D8 SWAP2 PUSH2 0x14D3 PUSH1 0x11 SLOAD PUSH2 0xE2D JUMP JUMPDEST PUSH2 0x1650 JUMP JUMPDEST CODESIZE DUP7 PUSH2 0x1369 JUMP JUMPDEST SWAP2 SWAP1 PUSH2 0x14ED PUSH2 0x12E9 DUP4 PUSH2 0x1229 JUMP JUMPDEST PUSH2 0x1505 PUSH2 0x12E9 PUSH2 0x14FF PUSH2 0x12E9 DUP7 PUSH2 0x1240 JUMP JUMPDEST SWAP5 PUSH2 0x1240 JUMP JUMPDEST SWAP1 PUSH2 0x150F DUP4 PUSH2 0xE8D JUMP JUMPDEST PUSH2 0x151A DUP3 DUP3 SLOAD PUSH2 0x10F0 JUMP JUMPDEST SWAP1 SSTORE PUSH2 0x1525 DUP4 PUSH2 0xEA7 JUMP JUMPDEST PUSH2 0x1530 DUP3 DUP3 SLOAD PUSH2 0x10F0 JUMP JUMPDEST SWAP1 SSTORE PUSH1 0x1 DUP1 PUSH1 0xA0 SHL SUB DUP1 DUP5 AND SWAP5 DUP6 PUSH1 0x0 DUP1 MLOAD PUSH1 0x20 PUSH2 0x183F DUP4 CODECOPY DUP2 MLOAD SWAP2 MSTORE PUSH1 0x40 MLOAD DUP1 PUSH2 0x155C DUP12 DUP9 DUP4 PUSH2 0xEDE JUMP JUMPDEST SUB SWAP1 LOG2 PUSH2 0x156A PUSH1 0x15 SLOAD PUSH2 0xE2D JUMP JUMPDEST SWAP1 DUP3 DUP3 AND PUSH2 0x163A JUMPI JUMPDEST POP POP PUSH2 0x1580 PUSH1 0x14 SLOAD PUSH2 0xE2D JUMP JUMPDEST DUP4 DUP3 DUP3 AND PUSH2 0x1624 JUMPI JUMPDEST POP POP PUSH2 0x1596 PUSH1 0x16 SLOAD PUSH2 0xE2D JUMP JUMPDEST AND DUP1 PUSH2 0x15C3 JUMPI JUMPDEST POP PUSH1 0x0 DUP1 MLOAD PUSH1 0x20 PUSH2 0x181F DUP4 CODECOPY DUP2 MLOAD SWAP2 MSTORE SWAP3 POP PUSH2 0x15BE PUSH1 0x40 MLOAD SWAP3 DUP4 SWAP3 DUP4 PUSH2 0xEDE JUMP JUMPDEST SUB SWAP1 LOG3 JUMP JUMPDEST DUP1 EXTCODESIZE ISZERO PUSH2 0xE28 JUMPI DUP6 PUSH1 0x0 SWAP2 DUP4 DUP4 PUSH2 0x15F1 SWAP8 PUSH1 0x40 MLOAD SWAP9 DUP10 SWAP6 DUP7 SWAP5 DUP6 SWAP4 PUSH4 0x1A495E57 PUSH1 0xE3 SHL DUP6 MSTORE PUSH1 0x4 DUP6 ADD PUSH2 0x1285 JUMP JUMPDEST SUB SWAP3 GAS CALL SWAP3 DUP4 ISZERO PUSH2 0x14A8 JUMPI PUSH1 0x0 DUP1 MLOAD PUSH1 0x20 PUSH2 0x181F DUP4 CODECOPY DUP2 MLOAD SWAP2 MSTORE SWAP4 ISZERO PUSH2 0x159D JUMPI DUP1 PUSH2 0x149C PUSH2 0x161E SWAP3 PUSH2 0xFAA JUMP JUMPDEST CODESIZE PUSH2 0x159D JUMP JUMPDEST PUSH2 0x1633 SWAP2 PUSH2 0x14D3 PUSH1 0x11 SLOAD PUSH2 0xE2D JUMP JUMPDEST CODESIZE DUP4 PUSH2 0x1589 JUMP JUMPDEST PUSH2 0x1649 SWAP2 PUSH2 0x14D3 PUSH1 0x11 SLOAD PUSH2 0xE2D JUMP JUMPDEST CODESIZE DUP1 PUSH2 0x1573 JUMP JUMPDEST PUSH1 0x40 MLOAD PUSH4 0xA9059CBB PUSH1 0xE0 SHL PUSH1 0x0 SWAP1 DUP2 MSTORE PUSH1 0x1 PUSH1 0x1 PUSH1 0xA0 SHL SUB SWAP4 DUP5 AND PUSH1 0x4 MSTORE PUSH1 0x24 SWAP5 SWAP1 SWAP5 MSTORE SWAP3 PUSH1 0x20 SWAP1 PUSH1 0x44 DUP2 DUP1 DUP6 GAS CALL PUSH1 0x1 PUSH1 0x0 MLOAD EQ DUP2 AND ISZERO PUSH2 0x16B1 JUMPI JUMPDEST DUP4 PUSH1 0x40 MSTORE ISZERO PUSH2 0x169B JUMPI POP POP POP JUMP JUMPDEST PUSH4 0x5274AFE7 PUSH1 0xE0 SHL DUP4 MSTORE AND PUSH1 0x4 DUP3 ADD MSTORE PUSH1 0x24 SWAP2 POP REVERT JUMPDEST PUSH1 0x1 DUP2 ISZERO AND PUSH2 0x16C7 JUMPI DUP2 EXTCODESIZE ISZERO ISZERO RETURNDATASIZE ISZERO AND AND PUSH2 0x168D JUMP JUMPDEST DUP4 RETURNDATASIZE PUSH1 0x0 DUP3 RETURNDATACOPY RETURNDATASIZE SWAP1 REVERT JUMPDEST ISZERO PUSH2 0x16D8 JUMPI JUMP JUMPDEST PUSH1 0x40 MLOAD PUSH3 0x461BCD PUSH1 0xE5 SHL DUP2 MSTORE PUSH1 0x20 PUSH1 0x4 DUP3 ADD MSTORE PUSH1 0xE PUSH1 0x24 DUP3 ADD MSTORE PUSH14 0x149BDD5D195C881B9BDD081CD95D PUSH1 0x92 SHL PUSH1 0x44 DUP3 ADD MSTORE PUSH1 0x64 SWAP1 REVERT JUMPDEST ISZERO PUSH2 0x1715 JUMPI JUMP JUMPDEST PUSH1 0x40 MLOAD PUSH3 0x461BCD PUSH1 0xE5 SHL DUP2 MSTORE PUSH1 0x20 PUSH1 0x4 DUP3 ADD MSTORE PUSH1 0xC PUSH1 0x24 DUP3 ADD MSTORE PUSH12 0x109510D0881B9BDD081CD95D PUSH1 0xA2 SHL PUSH1 0x44 DUP3 ADD MSTORE PUSH1 0x64 SWAP1 REVERT JUMPDEST DUP1 MLOAD ISZERO PUSH2 0xE61 JUMPI PUSH1 0x20 ADD SWAP1 JUMP JUMPDEST DUP1 MLOAD PUSH1 0x1 LT ISZERO PUSH2 0xE61 JUMPI PUSH1 0x40 ADD SWAP1 JUMP JUMPDEST SWAP1 PUSH1 0x20 SWAP1 DUP2 DUP4 DUP3 SUB SLT PUSH2 0xE28 JUMPI DUP3 MLOAD PUSH1 0x1 PUSH1 0x1 PUSH1 0x40 SHL SUB SWAP4 DUP5 DUP3 GT PUSH2 0xE28 JUMPI ADD DUP2 PUSH1 0x1F DUP3 ADD SLT ISZERO PUSH2 0xE28 JUMPI DUP1 MLOAD SWAP4 DUP5 GT PUSH2 0xFBD JUMPI DUP4 PUSH1 0x5 SHL SWAP1 PUSH1 0x40 MLOAD SWAP5 PUSH2 0x17AF DUP6 DUP5 ADD DUP8 PUSH2 0xFEE JUMP JUMPDEST DUP6 MSTORE DUP4 DUP1 DUP7 ADD SWAP3 DUP3 ADD ADD SWAP3 DUP4 GT PUSH2 0xE28 JUMPI DUP4 ADD SWAP1 JUMPDEST DUP3 DUP3 LT PUSH2 0x17D2 JUMPI POP POP POP POP SWAP1 JUMP JUMPDEST DUP2 MLOAD DUP2 MSTORE SWAP1 DUP4 ADD SWAP1 DUP4 ADD PUSH2 0x17C4 JUMP JUMPDEST SWAP1 DUP2 MLOAD DUP1 DUP3 MSTORE PUSH1 0x20 DUP1 DUP1 SWAP4 ADD SWAP4 ADD SWAP2 PUSH1 0x0 JUMPDEST DUP3 DUP2 LT PUSH2 0x1801 JUMPI POP POP POP POP SWAP1 JUMP JUMPDEST DUP4 MLOAD PUSH1 0x1 PUSH1 0x1 PUSH1 0xA0 SHL SUB AND DUP6 MSTORE SWAP4 DUP2 ADD SWAP4 SWAP3 DUP2 ADD SWAP3 PUSH1 0x1 ADD PUSH2 0x17F3 JUMP INVALID 0xC9 0xDF 0xD5 DIV PUSH15 0x5F1BE95C560D1B85295F8AFD28D010 0x2C KECCAK256 0xE0 0xB4 GT 0x2B DUP9 0xBD ORIGIN DUP13 LOG4 CALLER BASEFEE 0xC 0xF8 0xC PUSH25 0xDF84F9AD0C3DA7CB64F6AE3656D3AED9CFC42064D865CDCDBC 0x2B 0x24 DUP12 0xE0 SMOD SWAP13 MSTORE8 AND MSIZE EQ SGT PREVRANDAO 0xCD 0x1F 0xD0 LOG4 CALLCODE DUP5 NOT 0x49 PUSH32 0x9722A3DAAFE3B4186F6B6457E0A264697066735822122049A324FC047209A7D5 0x2B SWAP8 NOT 0x2E DUP8 0x1F 0x4D PC 0xFB DUP8 0xC8 0xAA TIMESTAMP 0xD PUSH23 0x81E6BD4CE687C16364736F6C6343000814003300000000 "},"methodIdentifiers":{"BASIS_POINTS()":"e1f1c4a7","BOARD_10_LIQUIDITY_RATE_BP()":"7d4cf0b8","BOARD_10_REWARD_RATE_BP()":"04841337","BOARD_10_SYSTEM_RATE_BP()":"b2418af8","BOARD_LEVEL2_MEMBERS()":"2bdbe56d","BOARD_LIQUIDITY_RATE_BP()":"a5c34061","BOARD_MEMBERS_REQUIRED()":"4e759962","BOARD_NEXT_POOL_RATE_BP()":"9898fcd3","BOARD_REWARD_RATE_BP()":"61dba5f3","DEFAULT_SLIPPAGE_BP()":"732bdc53","TOTAL_BOARDS()":"b0ac4626","boardCurrentIndex(uint256)":"f3b36bf8","boardPrices(uint256)":"2389e78a","btcRewardToken()":"8919d5e9","btcbToken()":"de9a7e19","claimAndSwapToBTC(uint256,uint256)":"96e03328","coinLiquidityAddress()":"39ae9efd","enterBoard(address,uint256)":"686a38bd","getBoardCurrentIndex(uint256)":"3ac272c2","getBoardMatrixInfo(uint256,uint256)":"d4a90286","getBoardPrice(uint256)":"47cd5191","getBoardQueueLength(uint256)":"eb63e1c2","getSwapEstimate(uint256)":"c319f5bc","getTotalSwappedToBTC(address)":"21a6816a","getVirtualRewardBalance(address)":"792ba2f2","mlmContract()":"53dafcbb","owner()":"8da5cb5b","pancakeRouter()":"c21ebd07","paymentToken()":"3013ce29","recoverToken(address,address,uint256)":"a7229fd9","renounceOwnership()":"715018a6","setBoardPrice(uint256,uint256)":"29d7f9eb","setBtcRewardToken(address)":"6f8760fe","setBtcbToken(address)":"2dbe6203","setCoinLiquidityAddress(address)":"d3ba4f96","setMLMContract(address)":"ce870263","setPancakeRouter(address)":"f8316c90","setSystemAddress(address)":"06210197","systemAddress()":"d3e848f1","totalSwappedToBTC(address)":"86f7d530","totalVirtualRewards(address)":"49dca24f","transferOwnership(address)":"f2fde38b","virtualRewardBalance(address)":"42369fc3"}}}}}