{"contracts/MvaultContract.sol":{"MvaultContract":{"abi":[{"inputs":[{"internalType":"address","name":"_usdt","type":"address"},{"internalType":"address","name":"_mvaultToken","type":"address"}],"stateMutability":"nonpayable","type":"constructor"},{"inputs":[],"name":"AlreadyActive","type":"error"},{"inputs":[],"name":"AlreadyRegistered","type":"error"},{"inputs":[],"name":"BinaryAlreadyDistributed","type":"error"},{"inputs":[],"name":"BinaryNotDistributed","type":"error"},{"inputs":[],"name":"InsufficientBtcPool","type":"error"},{"inputs":[],"name":"InsufficientRebirthPool","type":"error"},{"inputs":[],"name":"InsufficientUsdtBalance","type":"error"},{"inputs":[],"name":"InsufficientVirtualBalance","type":"error"},{"inputs":[],"name":"InvalidSponsor","type":"error"},{"inputs":[],"name":"NoOpenBinarySlot","type":"error"},{"inputs":[],"name":"NotRegistered","type":"error"},{"inputs":[{"internalType":"address","name":"owner","type":"address"}],"name":"OwnableInvalidOwner","type":"error"},{"inputs":[{"internalType":"address","name":"account","type":"address"}],"name":"OwnableUnauthorizedAccount","type":"error"},{"inputs":[],"name":"PositionTaken","type":"error"},{"inputs":[],"name":"ReentrancyGuardReentrantCall","type":"error"},{"inputs":[],"name":"TransferFailed","type":"error"},{"inputs":[],"name":"ZeroAddress","type":"error"},{"inputs":[],"name":"ZeroAmount","type":"error"},{"anonymous":false,"inputs":[{"indexed":true,"internalType":"address","name":"user","type":"address"},{"indexed":false,"internalType":"uint256","name":"mvtMinted","type":"uint256"},{"indexed":false,"internalType":"uint256","name":"grossMvt","type":"uint256"},{"indexed":false,"internalType":"uint256","name":"levelAmt","type":"uint256"},{"indexed":false,"internalType":"uint256","name":"binaryAmt","type":"uint256"},{"indexed":false,"internalType":"uint256","name":"adminAmt","type":"uint256"}],"name":"Activated","type":"event"},{"anonymous":false,"inputs":[{"indexed":true,"internalType":"address","name":"to","type":"address"},{"indexed":false,"internalType":"uint256","name":"amount","type":"uint256"}],"name":"AdminWithdraw","type":"event"},{"anonymous":false,"inputs":[{"indexed":false,"internalType":"uint256","name":"totalPool","type":"uint256"},{"indexed":false,"internalType":"uint256","name":"binary70","type":"uint256"},{"indexed":false,"internalType":"uint256","name":"powerLeg30","type":"uint256"},{"indexed":false,"internalType":"uint256","name":"totalPairs","type":"uint256"}],"name":"BinaryIncomeDistributed","type":"event"},{"anonymous":false,"inputs":[{"indexed":true,"internalType":"address","name":"user","type":"address"},{"indexed":false,"internalType":"uint256","name":"amount","type":"uint256"}],"name":"BtcPoolCredited","type":"event"},{"anonymous":false,"inputs":[{"indexed":true,"internalType":"address","name":"user","type":"address"},{"indexed":false,"internalType":"uint256","name":"amount","type":"uint256"}],"name":"BtcPoolWithdrawn","type":"event"},{"anonymous":false,"inputs":[{"indexed":true,"internalType":"address","name":"to","type":"address"},{"indexed":true,"internalType":"address","name":"from","type":"address"},{"indexed":false,"internalType":"uint8","name":"level","type":"uint8"},{"indexed":false,"internalType":"uint256","name":"amount","type":"uint256"}],"name":"LevelIncomePaid","type":"event"},{"anonymous":false,"inputs":[{"indexed":true,"internalType":"address","name":"upline","type":"address"},{"indexed":false,"internalType":"uint8","name":"level","type":"uint8"},{"indexed":false,"internalType":"uint256","name":"amount","type":"uint256"}],"name":"LevelIncomeSkipped","type":"event"},{"anonymous":false,"inputs":[{"indexed":false,"internalType":"address","name":"newToken","type":"address"}],"name":"MvaultTokenUpdated","type":"event"},{"anonymous":false,"inputs":[{"indexed":true,"internalType":"address","name":"user","type":"address"},{"indexed":false,"internalType":"uint256","name":"mvtAmount","type":"uint256"},{"indexed":false,"internalType":"uint256","name":"usdtNet","type":"uint256"},{"indexed":false,"internalType":"uint256","name":"usdtToBtcPool","type":"uint256"},{"indexed":false,"internalType":"uint256","name":"usdtToIncome","type":"uint256"},{"indexed":false,"internalType":"uint256","name":"usdtToRebirth","type":"uint256"}],"name":"MvtSold","type":"event"},{"anonymous":false,"inputs":[{"indexed":true,"internalType":"address","name":"previousOwner","type":"address"},{"indexed":true,"internalType":"address","name":"newOwner","type":"address"}],"name":"OwnershipTransferred","type":"event"},{"anonymous":false,"inputs":[{"indexed":false,"internalType":"uint256","name":"totalPowerLeg30","type":"uint256"},{"indexed":false,"internalType":"uint256","name":"totalPowerLegs","type":"uint256"}],"name":"PowerLegDistributed","type":"event"},{"anonymous":false,"inputs":[{"indexed":true,"internalType":"address","name":"user","type":"address"}],"name":"ProfileUpdated","type":"event"},{"anonymous":false,"inputs":[{"indexed":true,"internalType":"address","name":"mainAccount","type":"address"},{"indexed":true,"internalType":"address","name":"subAccount","type":"address"},{"indexed":false,"internalType":"uint256","name":"rebirthIndex","type":"uint256"}],"name":"Reborn","type":"event"},{"anonymous":false,"inputs":[{"indexed":true,"internalType":"address","name":"user","type":"address"},{"indexed":true,"internalType":"address","name":"sponsor","type":"address"},{"indexed":true,"internalType":"address","name":"binaryParent","type":"address"},{"indexed":false,"internalType":"bool","name":"placeLeft","type":"bool"}],"name":"Registered","type":"event"},{"anonymous":false,"inputs":[{"indexed":true,"internalType":"address","name":"to","type":"address"},{"indexed":false,"internalType":"uint256","name":"amount","type":"uint256"}],"name":"ReserveWithdraw","type":"event"},{"anonymous":false,"inputs":[{"indexed":true,"internalType":"address","name":"user","type":"address"},{"indexed":false,"internalType":"uint256","name":"amount","type":"uint256"}],"name":"UsdtWithdrawn","type":"event"},{"inputs":[],"name":"ADMIN_ALLOC","outputs":[{"internalType":"uint256","name":"","type":"uint256"}],"stateMutability":"view","type":"function"},{"inputs":[],"name":"BINARY_ALLOC","outputs":[{"internalType":"uint256","name":"","type":"uint256"}],"stateMutability":"view","type":"function"},{"inputs":[],"name":"BTC_POOL_RATE","outputs":[{"internalType":"uint256","name":"","type":"uint256"}],"stateMutability":"view","type":"function"},{"inputs":[],"name":"INCOME_LIMIT","outputs":[{"internalType":"uint256","name":"","type":"uint256"}],"stateMutability":"view","type":"function"},{"inputs":[],"name":"LEVEL_ALLOC","outputs":[{"internalType":"uint256","name":"","type":"uint256"}],"stateMutability":"view","type":"function"},{"inputs":[],"name":"PACKAGE_PRICE","outputs":[{"internalType":"uint256","name":"","type":"uint256"}],"stateMutability":"view","type":"function"},{"inputs":[],"name":"activate","outputs":[],"stateMutability":"nonpayable","type":"function"},{"inputs":[],"name":"adminPool","outputs":[{"internalType":"uint256","name":"","type":"uint256"}],"stateMutability":"view","type":"function"},{"inputs":[{"internalType":"uint256","name":"","type":"uint256"}],"name":"allUsers","outputs":[{"internalType":"address","name":"","type":"address"}],"stateMutability":"view","type":"function"},{"inputs":[],"name":"binaryPool","outputs":[{"internalType":"uint256","name":"","type":"uint256"}],"stateMutability":"view","type":"function"},{"inputs":[{"internalType":"address","name":"user","type":"address"}],"name":"canRebirth","outputs":[{"internalType":"bool","name":"eligible","type":"bool"},{"internalType":"uint256","name":"poolBalance","type":"uint256"}],"stateMutability":"view","type":"function"},{"inputs":[{"internalType":"uint256","name":"offset","type":"uint256"},{"internalType":"uint256","name":"limit","type":"uint256"}],"name":"distributeBinaryIncome","outputs":[],"stateMutability":"nonpayable","type":"function"},{"inputs":[{"internalType":"uint256","name":"offset","type":"uint256"},{"internalType":"uint256","name":"limit","type":"uint256"}],"name":"distributePowerLeg","outputs":[],"stateMutability":"nonpayable","type":"function"},{"inputs":[],"name":"getAllUsersCount","outputs":[{"internalType":"uint256","name":"","type":"uint256"}],"stateMutability":"view","type":"function"},{"inputs":[{"internalType":"address","name":"u","type":"address"}],"name":"getBtcPoolInfo","outputs":[{"internalType":"uint256","name":"btcPoolBalance","type":"uint256"},{"internalType":"uint256","name":"totalBtcEarned","type":"uint256"}],"stateMutability":"view","type":"function"},{"inputs":[{"internalType":"address","name":"u","type":"address"}],"name":"getCurrentBinaryPairs","outputs":[{"internalType":"uint256","name":"currentPairs","type":"uint256"},{"internalType":"uint256","name":"newPairs","type":"uint256"}],"stateMutability":"view","type":"function"},{"inputs":[],"name":"getMvtContractBalance","outputs":[{"internalType":"uint256","name":"","type":"uint256"}],"stateMutability":"view","type":"function"},{"inputs":[],"name":"getMvtPrice","outputs":[{"internalType":"uint256","name":"buyPrice","type":"uint256"},{"internalType":"uint256","name":"sellPrice","type":"uint256"}],"stateMutability":"view","type":"function"},{"inputs":[],"name":"getPoolBalances","outputs":[{"internalType":"uint256","name":"binary","type":"uint256"},{"internalType":"uint256","name":"reserve","type":"uint256"},{"internalType":"uint256","name":"admin","type":"uint256"}],"stateMutability":"view","type":"function"},{"inputs":[{"internalType":"address","name":"_user","type":"address"}],"name":"getProfile","outputs":[{"internalType":"string","name":"displayName","type":"string"},{"internalType":"string","name":"email","type":"string"},{"internalType":"string","name":"phone","type":"string"},{"internalType":"string","name":"country","type":"string"},{"internalType":"bool","name":"profileSet","type":"bool"}],"stateMutability":"view","type":"function"},{"inputs":[{"internalType":"address","name":"u","type":"address"}],"name":"getUserInfo","outputs":[{"internalType":"bool","name":"isRegistered","type":"bool"},{"internalType":"bool","name":"isActive","type":"bool"},{"internalType":"address","name":"sponsor","type":"address"},{"internalType":"uint256","name":"directCount","type":"uint256"},{"internalType":"address","name":"binaryParent","type":"address"},{"internalType":"bool","name":"placedLeft","type":"bool"},{"internalType":"address","name":"leftChild","type":"address"},{"internalType":"address","name":"rightChild","type":"address"},{"internalType":"uint256","name":"leftSubUsers","type":"uint256"},{"internalType":"uint256","name":"rightSubUsers","type":"uint256"},{"internalType":"uint256","name":"mvtBalance","type":"uint256"},{"internalType":"uint256","name":"totalReceived","type":"uint256"},{"internalType":"uint256","name":"totalSold","type":"uint256"},{"internalType":"uint256","name":"incomeLimit","type":"uint256"},{"internalType":"uint256","name":"usdtBalance","type":"uint256"},{"internalType":"uint256","name":"rebirthPool","type":"uint256"},{"internalType":"uint256","name":"btcPoolBalance","type":"uint256"},{"internalType":"uint256","name":"powerLegPoints","type":"uint256"},{"internalType":"uint256","name":"matchedPairs","type":"uint256"},{"internalType":"address","name":"mainAccount","type":"address"},{"internalType":"uint256","name":"rebirthCount","type":"uint256"},{"internalType":"uint256","name":"joinedAt","type":"uint256"}],"stateMutability":"view","type":"function"},{"inputs":[],"name":"mvaultToken","outputs":[{"internalType":"contract IMvaultToken","name":"","type":"address"}],"stateMutability":"view","type":"function"},{"inputs":[],"name":"owner","outputs":[{"internalType":"address","name":"","type":"address"}],"stateMutability":"view","type":"function"},{"inputs":[{"internalType":"address","name":"subAccount","type":"address"},{"internalType":"bool","name":"placeLeft","type":"bool"}],"name":"rebirth","outputs":[],"stateMutability":"nonpayable","type":"function"},{"inputs":[{"internalType":"address","name":"sponsor","type":"address"},{"internalType":"address","name":"binaryParent","type":"address"},{"internalType":"bool","name":"placeLeft","type":"bool"}],"name":"register","outputs":[],"stateMutability":"nonpayable","type":"function"},{"inputs":[],"name":"renounceOwnership","outputs":[],"stateMutability":"nonpayable","type":"function"},{"inputs":[],"name":"reservePool","outputs":[{"internalType":"uint256","name":"","type":"uint256"}],"stateMutability":"view","type":"function"},{"inputs":[{"internalType":"uint256","name":"amount","type":"uint256"}],"name":"sellMvt","outputs":[],"stateMutability":"nonpayable","type":"function"},{"inputs":[{"internalType":"address","name":"_mvaultToken","type":"address"}],"name":"setMvaultToken","outputs":[],"stateMutability":"nonpayable","type":"function"},{"inputs":[{"internalType":"string","name":"_displayName","type":"string"},{"internalType":"string","name":"_email","type":"string"},{"internalType":"string","name":"_phone","type":"string"},{"internalType":"string","name":"_country","type":"string"}],"name":"setProfile","outputs":[],"stateMutability":"nonpayable","type":"function"},{"inputs":[],"name":"totalUsers","outputs":[{"internalType":"uint256","name":"","type":"uint256"}],"stateMutability":"view","type":"function"},{"inputs":[{"internalType":"address","name":"newOwner","type":"address"}],"name":"transferOwnership","outputs":[],"stateMutability":"nonpayable","type":"function"},{"inputs":[],"name":"usdtToken","outputs":[{"internalType":"contract IERC20","name":"","type":"address"}],"stateMutability":"view","type":"function"},{"inputs":[{"internalType":"address","name":"","type":"address"}],"name":"users","outputs":[{"internalType":"bool","name":"isRegistered","type":"bool"},{"internalType":"bool","name":"isActive","type":"bool"},{"internalType":"address","name":"sponsor","type":"address"},{"internalType":"uint256","name":"directCount","type":"uint256"},{"internalType":"address","name":"binaryParent","type":"address"},{"internalType":"bool","name":"placedLeft","type":"bool"},{"internalType":"address","name":"leftChild","type":"address"},{"internalType":"address","name":"rightChild","type":"address"},{"internalType":"uint256","name":"leftSubUsers","type":"uint256"},{"internalType":"uint256","name":"rightSubUsers","type":"uint256"},{"internalType":"uint256","name":"matchedPairs","type":"uint256"},{"internalType":"uint256","name":"mvtBalance","type":"uint256"},{"internalType":"uint256","name":"totalReceived","type":"uint256"},{"internalType":"uint256","name":"totalSold","type":"uint256"},{"internalType":"uint256","name":"incomeLimit","type":"uint256"},{"internalType":"uint256","name":"usdtBalance","type":"uint256"},{"internalType":"uint256","name":"rebirthPool","type":"uint256"},{"internalType":"uint256","name":"totalUsdtEarned","type":"uint256"},{"internalType":"uint256","name":"btcPoolBalance","type":"uint256"},{"internalType":"uint256","name":"totalBtcEarned","type":"uint256"},{"internalType":"uint256","name":"powerLegPoints","type":"uint256"},{"internalType":"address","name":"mainAccount","type":"address"},{"internalType":"uint256","name":"rebirthCount","type":"uint256"},{"internalType":"uint256","name":"joinedAt","type":"uint256"},{"internalType":"string","name":"displayName","type":"string"},{"internalType":"string","name":"email","type":"string"},{"internalType":"string","name":"phone","type":"string"},{"internalType":"string","name":"country","type":"string"},{"internalType":"bool","name":"profileSet","type":"bool"}],"stateMutability":"view","type":"function"},{"inputs":[{"internalType":"address","name":"to","type":"address"},{"internalType":"uint256","name":"amount","type":"uint256"}],"name":"withdrawAdminPool","outputs":[],"stateMutability":"nonpayable","type":"function"},{"inputs":[{"internalType":"uint256","name":"amount","type":"uint256"}],"name":"withdrawBtcPool","outputs":[],"stateMutability":"nonpayable","type":"function"},{"inputs":[{"internalType":"address","name":"to","type":"address"},{"internalType":"uint256","name":"amount","type":"uint256"}],"name":"withdrawReservePool","outputs":[],"stateMutability":"nonpayable","type":"function"},{"inputs":[{"internalType":"uint256","name":"amount","type":"uint256"}],"name":"withdrawUsdt","outputs":[],"stateMutability":"nonpayable","type":"function"}],"evm":{"bytecode":{"linkReferences":{},"object":"60a0346200016057601f6200365238819003918201601f19168301916001600160401b038311848410176200016557808492604094855283398101031262000160576200005a602062000052836200017b565b92016200017b565b90331562000147576000549160018060a01b03199233848216176000556040519060018060a01b03938491823391167f8be0079c531659141344cd1fd0a4f28419497f9722a3daafe3b4186f6b6457e0600080a360017f9b779b17422d0df92223018b32b4d1fa46e071723d6817e2486d003becc55f00551690811580156200013c575b6200012d5750608052169060015416176001556040516134c1908162000191823960805181818161046d015281816106a201528181610aff0152818161174e015281816122c401526127ed0152f35b63d92e233d60e01b8152600490fd5b5083831615620000de565b604051631e4fbdf760e01b815260006004820152602490fd5b600080fd5b634e487b7160e01b600052604160045260246000fd5b51906001600160a01b0382168203620001605756fe61032080604052600436101561001457600080fd5b600090813560e01c9081630266f044146123a557508063039ccc261461238157806303c3ecb71461233b5780630f15f4c01461225a5780630f53a4701461219a5780631ce5e894146121285780631f6259d5146120ff5780632808bc8d1461203b5780632d641f0814611ffe57806338abfc4114611fe057806344e374d51461061457806352375bb114611fb157806355509c8f146119de578063634f627e146116c85780636386c1c7146114fa57806368ddb2b514611417578063715018a6146113cf57806377537844146106145780637f1b4064146113b15780638a8f0429146111935780638da5cb5b1461116c57806392446e301461115057806394915dd014610e3d578063a2bdedf414610df9578063a87430ba14610b2e578063a98ad46c14610ae9578063aa33f5d514610773578063aa3937571461074f578063b58e027814610637578063b86a1fb214610619578063be648bdb14610614578063bff1f9e1146105f6578063ce8292f51461055d578063d3635a0214610402578063e51cb530146103b4578063ec50324a146102b5578063f24c536a1461023c5763f2fde38b146101c457600080fd5b34610239576020366003190112610239576101dd6123c1565b6101e56125bd565b6001600160a01b03908116908115610220576000548260018060a01b03198216176000551660008051602061342c833981519152600080a380f35b604051631e4fbdf760e01b815260048101849052602490fd5b80fd5b5034610239576020366003190112610239576040906001600160a01b036102616123c1565b1681526002602052818120906007600583015460068401548082106000146102ad5750925b0154808311156102a75761029b915082612742565b82519182526020820152f35b5061029b565b905092610286565b5034610239576040366003190112610239576102cf6123c1565b602435906102db6125bd565b6001600160a01b03169081156103a25760065481811061036657816103237f0529afc4538720fe0b3eadc40486369ab962002d72fead1387b300c66073e7bf93602093612742565b600655838552600282526008604086200161033f82825461274f565b9055838552600282526009604086200161035a82825461274f565b9055604051908152a280f35b60405162461bcd60e51b8152602060048201526014602482015273115e18d959591cc81c995cd95c9d99481c1bdbdb60621b6044820152606490fd5b60405163d92e233d60e01b8152600490fd5b503461023957602036600319011261023957604090600d9082906001600160a01b036103de6123c1565b168152600260205220015481519068070c1cc73b00c8000081101582526020820152f35b50346102395760208060031936011261055957600435906104216126c4565b81156105475733835260028152600c60408420018054838110610535578361044891612742565b905560405163a9059cbb60e01b8152818180610468863360048401612727565b0381877f00000000000000000000000000000000000000000000000000000000000000006001600160a01b03165af190811561052a5784916104fd575b50156104eb577fbdd3f02d2a57fb53c1156f98470b61cb60712d485c27c36a49b1263dabcde201906040519283523392a2600160008051602061346c8339815191525580f35b6040516312171d8360e31b8152600490fd5b61051d9150823d8411610523575b61051581836124f4565b8101906126ac565b386104a5565b503d61050b565b6040513d86823e3d90fd5b60405163b55c1bad60e01b8152600490fd5b604051631f2a200560e01b8152600490fd5b5080fd5b50346102395780600319360112610239576001546040516370a0823160e01b81523060048201529190602090839060249082906001600160a01b03165afa9081156105ea57906105b3575b602090604051908152f35b506020813d82116105e2575b816105cc602093836124f4565b810103126105dd57602090516105a8565b600080fd5b3d91506105bf565b604051903d90823e3d90fd5b50346102395780600319360112610239576020600454604051908152f35b61242d565b50346102395780600319360112610239576020600754604051908152f35b50346102395760208060031936011261055957600435906106566126c4565b81156105475733835260028152600f6040842001805483811061073d578361067d91612742565b905560405163a9059cbb60e01b815281818061069d863360048401612727565b0381877f00000000000000000000000000000000000000000000000000000000000000006001600160a01b03165af190811561052a578491610720575b50156104eb577f12701e4764b73009ab9826933c421483e4280410091fcc760515e0fa99fa766b906040519283523392a2600160008051602061346c8339815191525580f35b6107379150823d84116105235761051581836124f4565b386106da565b604051636dae861760e11b8152600490fd5b503461023957806003193601126102395760206040516815245655b1025800008152f35b50346102395760603660031901126102395761078d6123c1565b6024356001600160a01b03811690036105dd576044351515604435036105dd57338252600260205260ff604083205416610ad7576004546108bc57336000908152600260208190526040909120805461ff01600160b01b031916600117815590810180546001600160a81b03191690556012810180546001600160a01b031916905542601490910155600354600160401b8110156108a6578060016108359201600355612476565b81546001600160a01b0360039290921b91821b19163390911b17905560045461085d906125e9565b6004555b604051604435151581526001600160a01b03602435811692169033907f34ff37874d7443037a85c6f390fe14f2ae3e8767355de0e63891ad4367c2753990602090a480f35b634e487b7160e01b600052604160045260246000fd5b6001600160a01b0381168083526002602052604083205460ff1615610ac5576024356001600160a01b0316151580610aa4575b15610a9e576024355b60443580610a7b575b610a46576044351580610a58575b610a4657336000908152600260208190526040909120805461ff01600160b01b031916601086901b62010000600160b01b031617600117815590810180546001600160a81b0319166001600160a01b03909316928317604435151560a01b60ff60a01b161790556012810180546001600160a01b031990811690915542601490920191909155600354909190600160401b8110156108a6578060016109b79201600355612476565b81546001600160a01b0360039290921b91821b19163390911b1790556004546109df906125e9565b60045560443515610a2a5784526002602052600360408520019033908254161790555b8252600260205260016040832001610a1a81546125e9565b9055610a253361260e565b610861565b8452600260205260046040852001903390825416179055610a02565b60405163d5dd5c3d60e01b8152600490fd5b506001600160a01b0381811685526002602052604085206004015416151561090f565b506001600160a01b03818116855260026020526040852060030154161515610901565b816108f8565b506024356001600160a01b031683526002602052604083205460ff166108ef565b604051632f212e0d60e11b8152600490fd5b604051630ea075bf60e21b8152600490fd5b50346102395780600319360112610239576040517f00000000000000000000000000000000000000000000000000000000000000006001600160a01b03168152602090f35b5034610239576020366003190112610239576040906001600160a01b03610b536123c1565b1681526002602052208060e052808080808080808080808080610c156015600f600e600d600c600b600a600960086007600660058d549d600181015461030052600281015460a05260018060a01b0360038201541661014052600460018060a01b03910154169e01549e01549e01549e01549e01549e01549e01549e01549e01549e01549e01549e60108101546102005260118101546102c05260018060a01b036012820154166102805260138101546101c052601481015460c05201612517565b61012052610c27601660e05101612517565b61024052610c39601760e05101612517565b608052610c4a601860e05101612517565b6101e05260ff601960e0510154166101a052604051806102205260ff82161515905260ff8160081c161515602061022051015260018060a01b039060101c16604061022051015261030051606061022051015260018060a01b0360a05116608061022051015260ff60a05160a01c16151560a06102205101526101405160c061022051015260e06102205101526101006102205101526101206102205101526101406102205101526101606102205101526101806102205101526101a06102205101526101c06102205101526101e061022051015261020061022051015261022080510152610240610220510152610200516102606102205101526102c051610280610220510152610280516102a06102205101526101c0516102c061022051015260c0516102e0610220510152610de0610dca610db5610d9f6103a0806103006102205101526102205101610120516123d7565b61022051610320818303910152610240516123d7565b610220516103408183039101526080516123d7565b610220516103608183039101526101e0516123d7565b6101a05115156103806102205101526102205180910390f35b50346102395760203660031901126102395760043590600354821015610239576020610e2483612476565b905460405160039290921b1c6001600160a01b03168152f35b503461023957604036600319011261023957610e576123c1565b6024359081151582036105dd57610e6c6126c4565b6001600160a01b03818116929083156103a257338552600292602093808552604087209182549160ff8360081c161561111e57600d840180549068070c1cc73b00c8000080831061110c578a8c52838a5260ff60408d2054166110c75768070c1cc73b00c7ffff1983019283116110b3578083106110a857610eef908093612742565b9055600c8501610f0082825461274f565b9055610f11600e860191825461274f565b90556815245655b102580000600b850155610f32858460101c169633612eb0565b60008a8152838a5260409020805461ff01600160b01b03191662010000600160b01b0390961695909517600117855584830180546001600160a81b03191692881692831782151560a01b60ff60a01b161790556012850180546001600160a01b0319908116331790915542601490960195909555600354909790949091600160401b8610156108a6577f30016ed357540281a6cff6143637e72b48e105d85d15df66b0aaffbd23790240986013988c610ff48960016110449b01600355612476565b909283549160031b92831b921b19161790556110116004546125e9565b6004551561108f578b5282895289600360408d2001918254161790555b80611071575b505061103f8161260e565b612780565b019161105083546125e9565b8093556040519283523392a3600160008051602061346c8339815191525580f35b895286526001604089200161108681546125e9565b90553880611034565b8b5282895289600460408d20019182541617905561102e565b50610eef8280612742565b634e487b7160e01b8c52601160045260248cfd5b60405162461bcd60e51b8152600481018b9052601e60248201527f5375622d6163636f756e7420616c7265616479207265676973746572656400006044820152606490fd5b6040516307db32bd60e31b8152600490fd5b60405162461bcd60e51b815260048101889052600a6024820152694e6f742061637469766560b01b6044820152606490fd5b50346102395780600319360112610239576020604051600a8152f35b5034610239578060031936011261023957546040516001600160a01b039091168152602090f35b5034610239576111a236612417565b6111aa6125bd565b6111b26126c4565b60099060ff8254161561139f576111c9908361274f565b9060038054808411611397575b508492845b81811061135757506008918254958515158061134e575b1561133557805b8381106112a0575090879392915b82811061126057847f7f4a5b69bea14a6fc05326671a02e90d4a88855c83a18529c260057b1bf61a8560408a8a8a858a5560ff19815416905582519182526020820152a1600160008051602061346c8339815191525580f35b611296919293945061127181612476565b905490841b1c6001600160a01b031689526002602052604089206011018990556125e9565b9087939291611207565b80896112ae61132393612476565b905490861b1c6001600160a01b0316808252600260208181526040842060110154919290918a908e908e8115611328576112ed6112f2926040946126f4565b612707565b95838152858552200161130685825461274f565b90558d525261131c8860408d200191825461274f565b90556125e9565b6111f9565b50505050505050506125e9565b6113418760075461274f565b6007559087939291611207565b508615156111f2565b9361138c6113929161136887612476565b905490861b1c6001600160a01b03168952600260205260408920601101549061274f565b946125e9565b6111db565b9250386111d6565b60405163418826bf60e11b8152600490fd5b50346102395780600319360112610239576020600554604051908152f35b50346102395780600319360112610239576113e86125bd565b600080546001600160a01b0319811682556001600160a01b031660008051602061342c8339815191528280a380f35b5034610239578060031936011261023957600154604051623144bd60e31b81526001600160a01b039091169160208083600481875afa9283156114ef5782936114be575b5080600494604051958680926310f4cba760e21b82525afa9182156105ea579161148e575b604080945051928352820152f35b80915083813d83116114b7575b6114a581836124f4565b810103126105dd576040925190611480565b503d61149b565b9392508084813d83116114e8575b6114d681836124f4565b810103126105dd57925191928061145b565b503d6114cc565b6040513d84823e3d90fd5b5034610239576020366003190112610239576040906001600160a01b0361151f6123c1565b168152600260205220808080808080808080808080805460018201546101805260028201546102e052601460076011600f600d600c600b600a60096008600660058d600360018060a01b03910154169d600460018060a01b03910154169e01549e01549e01549e01549e01549e01549e01549e01549e01549e01549e01549e60018060a01b036012820154166101605260138101546102a052015461026052604051806101005260ff82161515905260ff8160081c161515602061010051015260018060a01b039060101c16604061010051015261018051606061010051015260018060a01b036102e05116608061010051015260ff6102e05160a01c16151560a061010051015260c061010051015260e0610100510152610100805101526101206101005101526101406101005101526101606101005101526101806101005101526101a06101005101526101c06101005101526101e0610100510152610200610100510152610220610100510152610240610100510152610160516102606101005101526102a051610280610100510152610260516102a06101005101526102c061010051f35b50346102395760208060031936011261055957600435906116e76126c4565b81156105475733835260028152604083209060ff825460081c16156119cc576008820180548481106119ba578461171d91612742565b9055600a820161172e84825461274f565b90556040516370a0823160e01b8082523060048301526001600160a01b037f0000000000000000000000000000000000000000000000000000000000000000811692919087908584602481885afa9384156114ef57829461198b575b5060015416803b156105595781906024604051809481936372424d9960e11b83528c60048401525af180156119805761196d575b50839060246040518095819382523060048301525afa8015611962578690611933575b6117eb9250612742565b91600a8302838104600a148415171561191f577f8f7262d5a031d4d671e1fdb0cddcd26d37185226f9e82f2f18877141ac1963eb93929161183360646118f493048095612742565b92600f820161184386825461274f565b90556010820161185486825461274f565b90557f2b1d2104e84dd4dabb0cca024171f783ab1e1c9dc1af9d60a2361596653a99c4604051918683523392a2600b81018054918883156119125750600d908386111561190c57835b80936118c4826118ad818b612742565b97600c86016118bd83825461274f565b9055612742565b90556118d5600e830191825461274f565b90555b016118e483825461274f565b905560405194859433988661275c565b0390a2600160008051602061346c8339815191525580f35b8561189d565b91509150600d84926118d8565b634e487b7160e01b86526011600452602486fd5b508282813d831161195b575b61194981836124f4565b810103126105dd576117eb91516117e1565b503d61193f565b6040513d88823e3d90fd5b966119798592986124e1565b96906117be565b6040513d8a823e3d90fd5b9093508581813d83116119b3575b6119a381836124f4565b810103126105595751923861178a565b503d611999565b60405163208975e760e21b8152600490fd5b60405163aba4733960e01b8152600490fd5b5034610239576080366003190112610239576004356001600160401b03811161055957611a0f903690600401612449565b91906024356001600160401b038111611fad57611a30903690600401612449565b6044356001600160401b038111611fa957611a4f903690600401612449565b90916064356001600160401b038111611fa557611a70903690600401612449565b949097338852600260205260ff60408920541615611f6f57338852600260205260408820966001600160401b038211611f5b578190611ab260158a01546124a7565b601f8111611f0b575b508990601f8311600114611e9f578a92611e94575b50508160011b916000199060031b1c19161760158701555b6001600160401b038211611e80578190611b0560168801546124a7565b601f8111611e2d575b508790601f8311600114611dc1578892611db6575b50508160011b916000199060031b1c19161760168501555b60178401916001600160401b038211611da2578190611b5a84546124a7565b601f8111611d52575b508690601f8311600114611cec578792611ce1575b50508160011b916000199060031b1c19161790555b60188201906001600160401b038111611ccd57611baa82546124a7565b601f8111611c88575b5083601f8211600114611c21578190859660199692611c16575b50508160011b916000199060031b1c19161790555b01805460ff19166001179055337fbe4ec58a792f909e102ee3d745d0c3b34a4d437a54d903c4db098d31c556422f8280a280f35b013590503880611bcd565b8285526020852090601f198316865b818110611c705750968392916001946019989910611c56575b505050811b019055611be2565b0135600019600384901b60f8161c19169055388080611c49565b9192602060018192868c013581550194019201611c30565b82855260208520601f830160051c81019160208410611cc3575b601f0160051c01905b818110611cb85750611bb3565b858155600101611cab565b9091508190611ca2565b634e487b7160e01b84526041600452602484fd5b013590503880611b78565b84885260208820925090601f198416885b818110611d3a5750908460019594939210611d20575b505050811b019055611b8d565b0135600019600384901b60f8161c19169055388080611d13565b91936020600181928787013581550195019201611cfd565b90915083875260208720601f840160051c81019160208510611d98575b90601f859493920160051c01905b818110611d8a5750611b63565b888155849350600101611d7d565b9091508190611d6f565b634e487b7160e01b86526041600452602486fd5b013590503880611b23565b60168801895260208920925090601f198416895b818110611e155750908460019594939210611dfb575b505050811b016016850155611b3b565b0135600019600384901b60f8161c19169055388080611deb565b91936020600181928787013581550195019201611dd5565b90915060168701885260208820601f840160051c81019160208510611e76575b90601f859493920160051c01905b818110611e685750611b0e565b898155849350600101611e5b565b9091508190611e4d565b634e487b7160e01b87526041600452602487fd5b013590503880611ad0565b60158a018b5260208b20925090601f1984168b5b818110611ef35750908460019594939210611ed9575b505050811b016015870155611ae8565b0135600019600384901b60f8161c19169055388080611ec9565b91936020600181928787013581550195019201611eb3565b909150601589018a5260208a20601f840160051c810160208510611f54575b90849392915b601f830160051c82018110611f46575050611abb565b8c8155859450600101611f30565b5080611f2a565b634e487b7160e01b89526041600452602489fd5b60405162461bcd60e51b815260206004820152600e60248201526d139bdd081c9959da5cdd195c995960921b6044820152606490fd5b8680fd5b8480fd5b8280fd5b503461023957806003193601126102395760606005546006546007549060405192835260208301526040820152f35b50346102395780600319360112610239576020600354604051908152f35b50346102395761202661201036612417565b906120196125bd565b6120216126c4565b61310d565b600160008051602061346c8339815191525580f35b5034610239576040366003190112610239576120556123c1565b602435906120616125bd565b6001600160a01b03169081156103a2576007548181106120c557816120a97fba443e8671971c36cdeb74f87321041daff421230cbc5e36cb835269ed1d8b7e93602093612742565b600755838552600282526008604086200161033f82825461274f565b60405162461bcd60e51b8152602060048201526012602482015271115e18d959591cc818591b5a5b881c1bdbdb60721b6044820152606490fd5b50346102395780600319360112610239576001546040516001600160a01b039091168152602090f35b5034610239576020366003190112610239576121426123c1565b61214a6125bd565b6001600160a01b031680156103a257600180546001600160a01b031916821790556040519081527ffa7bd61554593f4e69cdffd255d3fe947352b02c7d3ec68059384934e4cfd47c90602090a180f35b503461023957602036600319011261023957612224906040906001600160a01b036121c36123c1565b16815260026020522060ff60198201541661224e6121e360158401612517565b926122406121f360168301612517565b9161223261220f601861220860178501612517565b9301612517565b9360405198899860a08a5260a08a01906123d7565b9088820360208a01526123d7565b9086820360408801526123d7565b9084820360608601526123d7565b90151560808301520390f35b50346102395780600319360112610239576122736126c4565b3381526002602052604081205460ff8116156119cc5760081c60ff16612329576040516323b872dd60e01b815233600482015230602482015268070c1cc73b00c800006044820152602081606481857f00000000000000000000000000000000000000000000000000000000000000006001600160a01b03165af19081156114ef57829161230b575b50156104eb5761202633612780565b612323915060203d81116105235761051581836124f4565b386122fc565b604051637cdf305160e11b8152600490fd5b50346102395760203660031901126102395760409081906001600160a01b036123626123c1565b1681526002602052206010600f82015491015482519182526020820152f35b5034610239578060031936011261023957602060405168070c1cc73b00c800008152f35b9050346105595781600319360112610559576020906006548152f35b600435906001600160a01b03821682036105dd57565b919082519283825260005b848110612403575050826000602080949584010152601f8019910116010190565b6020818301810151848301820152016123e2565b60409060031901126105dd576004359060243590565b346105dd5760003660031901126105dd576020604051601e8152f35b9181601f840112156105dd578235916001600160401b0383116105dd57602083818601950101116105dd57565b60035481101561249157600360005260206000200190600090565b634e487b7160e01b600052603260045260246000fd5b90600182811c921680156124d7575b60208310146124c157565b634e487b7160e01b600052602260045260246000fd5b91607f16916124b6565b6001600160401b0381116108a657604052565b601f909101601f19168101906001600160401b038211908210176108a657604052565b906040519182600082549261252b846124a7565b90818452600194858116908160001461259a5750600114612557575b5050612555925003836124f4565b565b9093915060005260209081600020936000915b81831061258257505061255593508201013880612547565b8554888401850152948501948794509183019161256a565b91505061255594506020925060ff191682840152151560051b8201013880612547565b6000546001600160a01b031633036125d157565b60405163118cdaa760e01b8152336004820152602490fd5b60001981146125f85760010190565b634e487b7160e01b600052601160045260246000fd5b6001600160a01b039081166000908152600260208181526040808420830154949560a09560ff959293919080881c871690899081165b169081156126a057156126835780845285835260058585200161266781546125e9565b90555b8352848252848484200154888088838b1c169216612644565b80845285835260068585200161269981546125e9565b905561266a565b50509650505050505050565b908160209103126105dd575180151581036105dd5790565b60008051602061346c83398151915260028154146126e25760029055565b604051633ee5aeb560e01b8152600490fd5b818102929181159184041417156125f857565b8115612711570490565b634e487b7160e01b600052601260045260246000fd5b6001600160a01b039091168152602081019190915260400190565b919082039182116125f857565b919082018092116125f857565b9192608093969594919660a084019784526020840152604083015260608201520152565b600154604051623144bd60e31b8152600093909290916001600160a01b0316602084600481845afa938415612d03578594612ccf575b508315612cbb5760405163095ea7b360e01b8152600481019190915268070c1cc73b00c800006024820181905290602081604481897f00000000000000000000000000000000000000000000000000000000000000006001600160a01b03165af1801561196257612c9c575b506001546040516370a0823160e01b8082523060048301529290918791906001600160a01b0316602084602481845afa938415612c91578394612c5d575b50803b15611fad57604483926040519485938492634e538d9360e11b845230600485015260248401525af18015612c5257612c3f575b50600154604051928352306004840152602090839060249082906001600160a01b03165afa8015611962578690612c0b575b6128d29250612742565b92601e6b030e68b6d6e0acc82863363160251b8290048181029291818404149015171561191f5761294c612944612929606485046129248181816b030e68b6d6e0acc82863363160251b899004612742565b612742565b6129386064860460055461274f565b6005556064850461274f565b60075461274f565b6007556001600160a01b038381168752600260205260408720805461ff001916610100178082556815245655b102580000600b9092019190915560019588949092909160101c165b600a60ff8816111580612bf9575b15612b69576129c3876b030e68b6d6e0acc82863363160251b869004612d23565b948515612b4357856129d49161274f565b6001600160a01b0382168a52600260205260408a20805491969160081c60ff169081612b2c575b5015612adc576001600160a01b0382168a52600260205260408a206008018054612a2690839061274f565b90556001600160a01b0382168a52600260205260408a206009018054612a4d90839061274f565b90556040516001600160a01b0388811692908416917fb16479bdac5b7099d9236d6fc6be3b30ff54188f4fd961686e1e1dc7ecb88037918190612a91908d83612d0e565b0390a35b6001600160a01b0390811689526002602052604089205460101c16955b60ff908180821614612ac8571660010195612994565b634e487b7160e01b8a52601160045260248afd5b612ae88160075461274f565b6007557f117ca0cd821ecb7eadfea2d6927a67853908bdc351a386235215f5ab6071bfed60405180612b2460018060a01b038616948c83612d0e565b0390a2612a95565b600191500154612b3b89612e6f565b1115386129fb565b6001600160a01b039182168a52600260205260408a205460101c90911696909450612ab2565b509392612bdb92969197507f8af2c013a5a55c6d3ad5423522fe76c6f2eb831b5e23318276b3c678cb457fc99550806064860411612be0575b506040516001600160a01b039093169592938493606490910491829182916b030e68b6d6e0acc82863363160251b91909104908661275c565b0390a2565b612944612bf09160648704612742565b60075538612ba2565b506001600160a01b03811615156129a2565b506020823d602011612c37575b81612c25602093836124f4565b810103126105dd576128d291516128c8565b3d9150612c18565b612c4b909691966124e1565b9438612896565b6040513d89823e3d90fd5b9093506020813d602011612c89575b81612c79602093836124f4565b81010312611fad57519238612860565b3d9150612c6c565b6040513d85823e3d90fd5b612cb49060203d6020116105235761051581836124f4565b5038612822565b634e487b7160e01b85526012600452602485fd5b9093506020813d602011612cfb575b81612ceb602093836124f4565b81010312611fa9575192386127b6565b3d9150612cde565b6040513d87823e3d90fd5b6020909392919360ff60408201951681520152565b9060ff1660018114612e545760028114612e395760038114612e1e57600490818114612e075760058114612dea5760068114612dea5760078114612dcd5760088114612dcd5760098114612db057600a14612d7f575050600090565b8160011b9180830460021490151715612d9b57506103e8900490565b601190634e487b7160e01b6000525260246000fd5b508160011b9180830460021490151715612d9b57506103e8900490565b50600382029180830460031490151715612d9b57506103e8900490565b50600582029180830460051490151715612d9b57506103e8900490565b5081800460011482151715612d9b57506064900490565b508060011b90808204600214901517156125f8576064900490565b506005810290808204600514901517156125f8576064900490565b506014810290808204601414901517156125f8576064900490565b60ff600491161115612e8057600590565b600290565b6001600160401b0381116108a65760051b60200190565b80518210156124915760209160051b010190565b909182806130e8575b6130e05782159182806130bb575b612f785760049384549360018086018096116130a657612ee686612e85565b90612f01604097612ef9895194856124f4565b808452612e85565b9260209283810194601f19013686376000808715613088576001600160a01b038981168352600287528b83206003015416965b6001600160a01b039788168061305f575b50505b818110612fc25750505080612fa7575b612f9c575082612f80575b5050612f785750505163c5bb5bcd60e01b8152fd5b925060009150565b8160029293508416600052528484600020015416153880612f63565b939650929450505050565b50828516600052600282528260038860002001541615612f58565b86612fd6612fcf836125e9565b9285612e9c565b5116806000526002908188528c6000208960038201541690811561304c578f01548a16156130395761301161300a866125e9565b9587612e9c565b526000528652868c8c60002001541661303361302c846125e9565b9385612e9c565b52612f48565b509c5060009b5050505050505050505050565b50909d50959b5050505050505050505050565b909250859284511561307357523880612f45565b60328e634e487b7160e01b6000525260246000fd5b6001600160a01b038981168352600287528b83208d01541696612f34565b601187634e487b7160e01b6000525260246000fd5b506001600160a01b038181166000908152600260205260409020600401541615612ec7565b915090600190565b506001600160a01b038281166000908152600260205260409020600301541615612eb9565b60ff60098181541661341a5760059081549485156133e1576000938484556046870287810460460361191f5760649004936131488589612742565b956131586008948886558961274f565b93600380548087116133d9575b508299805b87811061334657508a156132fb575b8681106131c05750505050505050916080939160008051602061344c8339815191529593600160ff19825416179055604051938452602084015260408301526060820152a1565b8a86868b8b6131ce86612476565b60018060a01b03915490891b1c16808a52600292896020938585528c604097888220998a54851c16156132e75789015460068a0154808210156132df5750995b6007998a0154808c11156132d757613226908c612742565b945b85156132c257916132428a926112ed8861326a97966126f4565b948782528989528282200161325886825461274f565b9055868152888852200191825461274f565b9055600a808202918204036132ae57908493929161329b60116132a99a9998978e858152878752200191825461274f565b90558a5252872001556125e9565b613179565b634e487b7160e01b8b52601160045260248bfd5b5050505050505050505050506132a9906125e9565b508194613228565b90509961320e565b50505050505050505050506132a9906125e9565b505093509460809750859450613328925061294491509560008051602061344c833981519152989661274f565b600755556040519182528060208301528060408301526060820152a1565b61334f81612476565b905490841b1c6001600160a01b031685526002602052604085208054851c8816156133cf5760078782015460068301548082106000146133c75750915b0154908181116133a7575b50506133a2906125e9565b61316a565b9c6133b96133bf926133a2949f612742565b9061274f565b9b9038613397565b90509161338c565b506133a2906125e9565b955038613165565b60405162461bcd60e51b8152602060048201526011602482015270115b5c1d1e48189a5b985c9e481c1bdbdb607a1b6044820152606490fd5b60405162c9487960e41b8152600490fdfe8be0079c531659141344cd1fd0a4f28419497f9722a3daafe3b4186f6b6457e0a0ea5705200c9ffd36dc735fef1592c3234bb7e311fc1b0a444f6370d0620eae9b779b17422d0df92223018b32b4d1fa46e071723d6817e2486d003becc55f00a2646970667358221220725c7b0a33ff4b56d637df9d187b88caa58aeacf9905bf185ba3b4d240d30b7864736f6c63430008140033","opcodes":"PUSH1 0xA0 CALLVALUE PUSH3 0x160 JUMPI PUSH1 0x1F PUSH3 0x3652 CODESIZE DUP2 SWAP1 SUB SWAP2 DUP3 ADD PUSH1 0x1F NOT AND DUP4 ADD SWAP2 PUSH1 0x1 PUSH1 0x1 PUSH1 0x40 SHL SUB DUP4 GT DUP5 DUP5 LT OR PUSH3 0x165 JUMPI DUP1 DUP5 SWAP3 PUSH1 0x40 SWAP5 DUP6 MSTORE DUP4 CODECOPY DUP2 ADD SUB SLT PUSH3 0x160 JUMPI PUSH3 0x5A PUSH1 0x20 PUSH3 0x52 DUP4 PUSH3 0x17B JUMP JUMPDEST SWAP3 ADD PUSH3 0x17B JUMP JUMPDEST SWAP1 CALLER ISZERO PUSH3 0x147 JUMPI PUSH1 0x0 SLOAD SWAP2 PUSH1 0x1 DUP1 PUSH1 0xA0 SHL SUB NOT SWAP3 CALLER DUP5 DUP3 AND OR PUSH1 0x0 SSTORE PUSH1 0x40 MLOAD SWAP1 PUSH1 0x1 DUP1 PUSH1 0xA0 SHL SUB SWAP4 DUP5 SWAP2 DUP3 CALLER SWAP2 AND PUSH32 0x8BE0079C531659141344CD1FD0A4F28419497F9722A3DAAFE3B4186F6B6457E0 PUSH1 0x0 DUP1 LOG3 PUSH1 0x1 PUSH32 0x9B779B17422D0DF92223018B32B4D1FA46E071723D6817E2486D003BECC55F00 SSTORE AND SWAP1 DUP2 ISZERO DUP1 ISZERO PUSH3 0x13C JUMPI JUMPDEST PUSH3 0x12D JUMPI POP PUSH1 0x80 MSTORE AND SWAP1 PUSH1 0x1 SLOAD AND OR PUSH1 0x1 SSTORE PUSH1 0x40 MLOAD PUSH2 0x34C1 SWAP1 DUP2 PUSH3 0x191 DUP3 CODECOPY PUSH1 0x80 MLOAD DUP2 DUP2 DUP2 PUSH2 0x46D ADD MSTORE DUP2 DUP2 PUSH2 0x6A2 ADD MSTORE DUP2 DUP2 PUSH2 0xAFF ADD MSTORE DUP2 DUP2 PUSH2 0x174E ADD MSTORE DUP2 DUP2 PUSH2 0x22C4 ADD MSTORE PUSH2 0x27ED ADD MSTORE RETURN JUMPDEST PUSH4 0xD92E233D PUSH1 0xE0 SHL DUP2 MSTORE PUSH1 0x4 SWAP1 REVERT JUMPDEST POP DUP4 DUP4 AND ISZERO PUSH3 0xDE JUMP JUMPDEST PUSH1 0x40 MLOAD PUSH4 0x1E4FBDF7 PUSH1 0xE0 SHL DUP2 MSTORE PUSH1 0x0 PUSH1 0x4 DUP3 ADD MSTORE PUSH1 0x24 SWAP1 REVERT JUMPDEST PUSH1 0x0 DUP1 REVERT JUMPDEST PUSH4 0x4E487B71 PUSH1 0xE0 SHL PUSH1 0x0 MSTORE PUSH1 0x41 PUSH1 0x4 MSTORE PUSH1 0x24 PUSH1 0x0 REVERT JUMPDEST MLOAD SWAP1 PUSH1 0x1 PUSH1 0x1 PUSH1 0xA0 SHL SUB DUP3 AND DUP3 SUB PUSH3 0x160 JUMPI JUMP INVALID PUSH2 0x320 DUP1 PUSH1 0x40 MSTORE PUSH1 0x4 CALLDATASIZE LT ISZERO PUSH2 0x14 JUMPI PUSH1 0x0 DUP1 REVERT JUMPDEST PUSH1 0x0 SWAP1 DUP2 CALLDATALOAD PUSH1 0xE0 SHR SWAP1 DUP2 PUSH4 0x266F044 EQ PUSH2 0x23A5 JUMPI POP DUP1 PUSH4 0x39CCC26 EQ PUSH2 0x2381 JUMPI DUP1 PUSH4 0x3C3ECB7 EQ PUSH2 0x233B JUMPI DUP1 PUSH4 0xF15F4C0 EQ PUSH2 0x225A JUMPI DUP1 PUSH4 0xF53A470 EQ PUSH2 0x219A JUMPI DUP1 PUSH4 0x1CE5E894 EQ PUSH2 0x2128 JUMPI DUP1 PUSH4 0x1F6259D5 EQ PUSH2 0x20FF JUMPI DUP1 PUSH4 0x2808BC8D EQ PUSH2 0x203B JUMPI DUP1 PUSH4 0x2D641F08 EQ PUSH2 0x1FFE JUMPI DUP1 PUSH4 0x38ABFC41 EQ PUSH2 0x1FE0 JUMPI DUP1 PUSH4 0x44E374D5 EQ PUSH2 0x614 JUMPI DUP1 PUSH4 0x52375BB1 EQ PUSH2 0x1FB1 JUMPI DUP1 PUSH4 0x55509C8F EQ PUSH2 0x19DE JUMPI DUP1 PUSH4 0x634F627E EQ PUSH2 0x16C8 JUMPI DUP1 PUSH4 0x6386C1C7 EQ PUSH2 0x14FA JUMPI DUP1 PUSH4 0x68DDB2B5 EQ PUSH2 0x1417 JUMPI DUP1 PUSH4 0x715018A6 EQ PUSH2 0x13CF JUMPI DUP1 PUSH4 0x77537844 EQ PUSH2 0x614 JUMPI DUP1 PUSH4 0x7F1B4064 EQ PUSH2 0x13B1 JUMPI DUP1 PUSH4 0x8A8F0429 EQ PUSH2 0x1193 JUMPI DUP1 PUSH4 0x8DA5CB5B EQ PUSH2 0x116C JUMPI DUP1 PUSH4 0x92446E30 EQ PUSH2 0x1150 JUMPI DUP1 PUSH4 0x94915DD0 EQ PUSH2 0xE3D JUMPI DUP1 PUSH4 0xA2BDEDF4 EQ PUSH2 0xDF9 JUMPI DUP1 PUSH4 0xA87430BA EQ PUSH2 0xB2E JUMPI DUP1 PUSH4 0xA98AD46C EQ PUSH2 0xAE9 JUMPI DUP1 PUSH4 0xAA33F5D5 EQ PUSH2 0x773 JUMPI DUP1 PUSH4 0xAA393757 EQ PUSH2 0x74F JUMPI DUP1 PUSH4 0xB58E0278 EQ PUSH2 0x637 JUMPI DUP1 PUSH4 0xB86A1FB2 EQ PUSH2 0x619 JUMPI DUP1 PUSH4 0xBE648BDB EQ PUSH2 0x614 JUMPI DUP1 PUSH4 0xBFF1F9E1 EQ PUSH2 0x5F6 JUMPI DUP1 PUSH4 0xCE8292F5 EQ PUSH2 0x55D JUMPI DUP1 PUSH4 0xD3635A02 EQ PUSH2 0x402 JUMPI DUP1 PUSH4 0xE51CB530 EQ PUSH2 0x3B4 JUMPI DUP1 PUSH4 0xEC50324A EQ PUSH2 0x2B5 JUMPI DUP1 PUSH4 0xF24C536A EQ PUSH2 0x23C JUMPI PUSH4 0xF2FDE38B EQ PUSH2 0x1C4 JUMPI PUSH1 0x0 DUP1 REVERT JUMPDEST CALLVALUE PUSH2 0x239 JUMPI PUSH1 0x20 CALLDATASIZE PUSH1 0x3 NOT ADD SLT PUSH2 0x239 JUMPI PUSH2 0x1DD PUSH2 0x23C1 JUMP JUMPDEST PUSH2 0x1E5 PUSH2 0x25BD JUMP JUMPDEST PUSH1 0x1 PUSH1 0x1 PUSH1 0xA0 SHL SUB SWAP1 DUP2 AND SWAP1 DUP2 ISZERO PUSH2 0x220 JUMPI PUSH1 0x0 SLOAD DUP3 PUSH1 0x1 DUP1 PUSH1 0xA0 SHL SUB NOT DUP3 AND OR PUSH1 0x0 SSTORE AND PUSH1 0x0 DUP1 MLOAD PUSH1 0x20 PUSH2 0x342C DUP4 CODECOPY DUP2 MLOAD SWAP2 MSTORE PUSH1 0x0 DUP1 LOG3 DUP1 RETURN JUMPDEST PUSH1 0x40 MLOAD PUSH4 0x1E4FBDF7 PUSH1 0xE0 SHL DUP2 MSTORE PUSH1 0x4 DUP2 ADD DUP5 SWAP1 MSTORE PUSH1 0x24 SWAP1 REVERT JUMPDEST DUP1 REVERT JUMPDEST POP CALLVALUE PUSH2 0x239 JUMPI PUSH1 0x20 CALLDATASIZE PUSH1 0x3 NOT ADD SLT PUSH2 0x239 JUMPI PUSH1 0x40 SWAP1 PUSH1 0x1 PUSH1 0x1 PUSH1 0xA0 SHL SUB PUSH2 0x261 PUSH2 0x23C1 JUMP JUMPDEST AND DUP2 MSTORE PUSH1 0x2 PUSH1 0x20 MSTORE DUP2 DUP2 KECCAK256 SWAP1 PUSH1 0x7 PUSH1 0x5 DUP4 ADD SLOAD PUSH1 0x6 DUP5 ADD SLOAD DUP1 DUP3 LT PUSH1 0x0 EQ PUSH2 0x2AD JUMPI POP SWAP3 JUMPDEST ADD SLOAD DUP1 DUP4 GT ISZERO PUSH2 0x2A7 JUMPI PUSH2 0x29B SWAP2 POP DUP3 PUSH2 0x2742 JUMP JUMPDEST DUP3 MLOAD SWAP2 DUP3 MSTORE PUSH1 0x20 DUP3 ADD MSTORE RETURN JUMPDEST POP PUSH2 0x29B JUMP JUMPDEST SWAP1 POP SWAP3 PUSH2 0x286 JUMP JUMPDEST POP CALLVALUE PUSH2 0x239 JUMPI PUSH1 0x40 CALLDATASIZE PUSH1 0x3 NOT ADD SLT PUSH2 0x239 JUMPI PUSH2 0x2CF PUSH2 0x23C1 JUMP JUMPDEST PUSH1 0x24 CALLDATALOAD SWAP1 PUSH2 0x2DB PUSH2 0x25BD JUMP JUMPDEST PUSH1 0x1 PUSH1 0x1 PUSH1 0xA0 SHL SUB AND SWAP1 DUP2 ISZERO PUSH2 0x3A2 JUMPI PUSH1 0x6 SLOAD DUP2 DUP2 LT PUSH2 0x366 JUMPI DUP2 PUSH2 0x323 PUSH32 0x529AFC4538720FE0B3EADC40486369AB962002D72FEAD1387B300C66073E7BF SWAP4 PUSH1 0x20 SWAP4 PUSH2 0x2742 JUMP JUMPDEST PUSH1 0x6 SSTORE DUP4 DUP6 MSTORE PUSH1 0x2 DUP3 MSTORE PUSH1 0x8 PUSH1 0x40 DUP7 KECCAK256 ADD PUSH2 0x33F DUP3 DUP3 SLOAD PUSH2 0x274F JUMP JUMPDEST SWAP1 SSTORE DUP4 DUP6 MSTORE PUSH1 0x2 DUP3 MSTORE PUSH1 0x9 PUSH1 0x40 DUP7 KECCAK256 ADD PUSH2 0x35A DUP3 DUP3 SLOAD PUSH2 0x274F JUMP JUMPDEST SWAP1 SSTORE PUSH1 0x40 MLOAD SWAP1 DUP2 MSTORE LOG2 DUP1 RETURN JUMPDEST PUSH1 0x40 MLOAD PUSH3 0x461BCD PUSH1 0xE5 SHL DUP2 MSTORE PUSH1 0x20 PUSH1 0x4 DUP3 ADD MSTORE PUSH1 0x14 PUSH1 0x24 DUP3 ADD MSTORE PUSH20 0x115E18D959591CC81C995CD95C9D99481C1BDBDB PUSH1 0x62 SHL PUSH1 0x44 DUP3 ADD MSTORE PUSH1 0x64 SWAP1 REVERT JUMPDEST PUSH1 0x40 MLOAD PUSH4 0xD92E233D PUSH1 0xE0 SHL DUP2 MSTORE PUSH1 0x4 SWAP1 REVERT JUMPDEST POP CALLVALUE PUSH2 0x239 JUMPI PUSH1 0x20 CALLDATASIZE PUSH1 0x3 NOT ADD SLT PUSH2 0x239 JUMPI PUSH1 0x40 SWAP1 PUSH1 0xD SWAP1 DUP3 SWAP1 PUSH1 0x1 PUSH1 0x1 PUSH1 0xA0 SHL SUB PUSH2 0x3DE PUSH2 0x23C1 JUMP JUMPDEST AND DUP2 MSTORE PUSH1 0x2 PUSH1 0x20 MSTORE KECCAK256 ADD SLOAD DUP2 MLOAD SWAP1 PUSH9 0x70C1CC73B00C80000 DUP2 LT ISZERO DUP3 MSTORE PUSH1 0x20 DUP3 ADD MSTORE RETURN JUMPDEST POP CALLVALUE PUSH2 0x239 JUMPI PUSH1 0x20 DUP1 PUSH1 0x3 NOT CALLDATASIZE ADD SLT PUSH2 0x559 JUMPI PUSH1 0x4 CALLDATALOAD SWAP1 PUSH2 0x421 PUSH2 0x26C4 JUMP JUMPDEST DUP2 ISZERO PUSH2 0x547 JUMPI CALLER DUP4 MSTORE PUSH1 0x2 DUP2 MSTORE PUSH1 0xC PUSH1 0x40 DUP5 KECCAK256 ADD DUP1 SLOAD DUP4 DUP2 LT PUSH2 0x535 JUMPI DUP4 PUSH2 0x448 SWAP2 PUSH2 0x2742 JUMP JUMPDEST SWAP1 SSTORE PUSH1 0x40 MLOAD PUSH4 0xA9059CBB PUSH1 0xE0 SHL DUP2 MSTORE DUP2 DUP2 DUP1 PUSH2 0x468 DUP7 CALLER PUSH1 0x4 DUP5 ADD PUSH2 0x2727 JUMP JUMPDEST SUB DUP2 DUP8 PUSH32 0x0 PUSH1 0x1 PUSH1 0x1 PUSH1 0xA0 SHL SUB AND GAS CALL SWAP1 DUP2 ISZERO PUSH2 0x52A JUMPI DUP5 SWAP2 PUSH2 0x4FD JUMPI JUMPDEST POP ISZERO PUSH2 0x4EB JUMPI PUSH32 0xBDD3F02D2A57FB53C1156F98470B61CB60712D485C27C36A49B1263DABCDE201 SWAP1 PUSH1 0x40 MLOAD SWAP3 DUP4 MSTORE CALLER SWAP3 LOG2 PUSH1 0x1 PUSH1 0x0 DUP1 MLOAD PUSH1 0x20 PUSH2 0x346C DUP4 CODECOPY DUP2 MLOAD SWAP2 MSTORE SSTORE DUP1 RETURN JUMPDEST PUSH1 0x40 MLOAD PUSH4 0x12171D83 PUSH1 0xE3 SHL DUP2 MSTORE PUSH1 0x4 SWAP1 REVERT JUMPDEST PUSH2 0x51D SWAP2 POP DUP3 RETURNDATASIZE DUP5 GT PUSH2 0x523 JUMPI JUMPDEST PUSH2 0x515 DUP2 DUP4 PUSH2 0x24F4 JUMP JUMPDEST DUP2 ADD SWAP1 PUSH2 0x26AC JUMP JUMPDEST CODESIZE PUSH2 0x4A5 JUMP JUMPDEST POP RETURNDATASIZE PUSH2 0x50B JUMP JUMPDEST PUSH1 0x40 MLOAD RETURNDATASIZE DUP7 DUP3 RETURNDATACOPY RETURNDATASIZE SWAP1 REVERT JUMPDEST PUSH1 0x40 MLOAD PUSH4 0xB55C1BAD PUSH1 0xE0 SHL DUP2 MSTORE PUSH1 0x4 SWAP1 REVERT JUMPDEST PUSH1 0x40 MLOAD PUSH4 0x1F2A2005 PUSH1 0xE0 SHL DUP2 MSTORE PUSH1 0x4 SWAP1 REVERT JUMPDEST POP DUP1 REVERT JUMPDEST POP CALLVALUE PUSH2 0x239 JUMPI DUP1 PUSH1 0x3 NOT CALLDATASIZE ADD SLT PUSH2 0x239 JUMPI PUSH1 0x1 SLOAD PUSH1 0x40 MLOAD PUSH4 0x70A08231 PUSH1 0xE0 SHL DUP2 MSTORE ADDRESS PUSH1 0x4 DUP3 ADD MSTORE SWAP2 SWAP1 PUSH1 0x20 SWAP1 DUP4 SWAP1 PUSH1 0x24 SWAP1 DUP3 SWAP1 PUSH1 0x1 PUSH1 0x1 PUSH1 0xA0 SHL SUB AND GAS STATICCALL SWAP1 DUP2 ISZERO PUSH2 0x5EA JUMPI SWAP1 PUSH2 0x5B3 JUMPI JUMPDEST PUSH1 0x20 SWAP1 PUSH1 0x40 MLOAD SWAP1 DUP2 MSTORE RETURN JUMPDEST POP PUSH1 0x20 DUP2 RETURNDATASIZE DUP3 GT PUSH2 0x5E2 JUMPI JUMPDEST DUP2 PUSH2 0x5CC PUSH1 0x20 SWAP4 DUP4 PUSH2 0x24F4 JUMP JUMPDEST DUP2 ADD SUB SLT PUSH2 0x5DD JUMPI PUSH1 0x20 SWAP1 MLOAD PUSH2 0x5A8 JUMP JUMPDEST PUSH1 0x0 DUP1 REVERT JUMPDEST RETURNDATASIZE SWAP2 POP PUSH2 0x5BF JUMP JUMPDEST PUSH1 0x40 MLOAD SWAP1 RETURNDATASIZE SWAP1 DUP3 RETURNDATACOPY RETURNDATASIZE SWAP1 REVERT JUMPDEST POP CALLVALUE PUSH2 0x239 JUMPI DUP1 PUSH1 0x3 NOT CALLDATASIZE ADD SLT PUSH2 0x239 JUMPI PUSH1 0x20 PUSH1 0x4 SLOAD PUSH1 0x40 MLOAD SWAP1 DUP2 MSTORE RETURN JUMPDEST PUSH2 0x242D JUMP JUMPDEST POP CALLVALUE PUSH2 0x239 JUMPI DUP1 PUSH1 0x3 NOT CALLDATASIZE ADD SLT PUSH2 0x239 JUMPI PUSH1 0x20 PUSH1 0x7 SLOAD PUSH1 0x40 MLOAD SWAP1 DUP2 MSTORE RETURN JUMPDEST POP CALLVALUE PUSH2 0x239 JUMPI PUSH1 0x20 DUP1 PUSH1 0x3 NOT CALLDATASIZE ADD SLT PUSH2 0x559 JUMPI PUSH1 0x4 CALLDATALOAD SWAP1 PUSH2 0x656 PUSH2 0x26C4 JUMP JUMPDEST DUP2 ISZERO PUSH2 0x547 JUMPI CALLER DUP4 MSTORE PUSH1 0x2 DUP2 MSTORE PUSH1 0xF PUSH1 0x40 DUP5 KECCAK256 ADD DUP1 SLOAD DUP4 DUP2 LT PUSH2 0x73D JUMPI DUP4 PUSH2 0x67D SWAP2 PUSH2 0x2742 JUMP JUMPDEST SWAP1 SSTORE PUSH1 0x40 MLOAD PUSH4 0xA9059CBB PUSH1 0xE0 SHL DUP2 MSTORE DUP2 DUP2 DUP1 PUSH2 0x69D DUP7 CALLER PUSH1 0x4 DUP5 ADD PUSH2 0x2727 JUMP JUMPDEST SUB DUP2 DUP8 PUSH32 0x0 PUSH1 0x1 PUSH1 0x1 PUSH1 0xA0 SHL SUB AND GAS CALL SWAP1 DUP2 ISZERO PUSH2 0x52A JUMPI DUP5 SWAP2 PUSH2 0x720 JUMPI JUMPDEST POP ISZERO PUSH2 0x4EB JUMPI PUSH32 0x12701E4764B73009AB9826933C421483E4280410091FCC760515E0FA99FA766B SWAP1 PUSH1 0x40 MLOAD SWAP3 DUP4 MSTORE CALLER SWAP3 LOG2 PUSH1 0x1 PUSH1 0x0 DUP1 MLOAD PUSH1 0x20 PUSH2 0x346C DUP4 CODECOPY DUP2 MLOAD SWAP2 MSTORE SSTORE DUP1 RETURN JUMPDEST PUSH2 0x737 SWAP2 POP DUP3 RETURNDATASIZE DUP5 GT PUSH2 0x523 JUMPI PUSH2 0x515 DUP2 DUP4 PUSH2 0x24F4 JUMP JUMPDEST CODESIZE PUSH2 0x6DA JUMP JUMPDEST PUSH1 0x40 MLOAD PUSH4 0x6DAE8617 PUSH1 0xE1 SHL DUP2 MSTORE PUSH1 0x4 SWAP1 REVERT JUMPDEST POP CALLVALUE PUSH2 0x239 JUMPI DUP1 PUSH1 0x3 NOT CALLDATASIZE ADD SLT PUSH2 0x239 JUMPI PUSH1 0x20 PUSH1 0x40 MLOAD PUSH9 0x15245655B102580000 DUP2 MSTORE RETURN JUMPDEST POP CALLVALUE PUSH2 0x239 JUMPI PUSH1 0x60 CALLDATASIZE PUSH1 0x3 NOT ADD SLT PUSH2 0x239 JUMPI PUSH2 0x78D PUSH2 0x23C1 JUMP JUMPDEST PUSH1 0x24 CALLDATALOAD PUSH1 0x1 PUSH1 0x1 PUSH1 0xA0 SHL SUB DUP2 AND SWAP1 SUB PUSH2 0x5DD JUMPI PUSH1 0x44 CALLDATALOAD ISZERO ISZERO PUSH1 0x44 CALLDATALOAD SUB PUSH2 0x5DD JUMPI CALLER DUP3 MSTORE PUSH1 0x2 PUSH1 0x20 MSTORE PUSH1 0xFF PUSH1 0x40 DUP4 KECCAK256 SLOAD AND PUSH2 0xAD7 JUMPI PUSH1 0x4 SLOAD PUSH2 0x8BC JUMPI CALLER PUSH1 0x0 SWAP1 DUP2 MSTORE PUSH1 0x2 PUSH1 0x20 DUP2 SWAP1 MSTORE PUSH1 0x40 SWAP1 SWAP2 KECCAK256 DUP1 SLOAD PUSH2 0xFF01 PUSH1 0x1 PUSH1 0xB0 SHL SUB NOT AND PUSH1 0x1 OR DUP2 SSTORE SWAP1 DUP2 ADD DUP1 SLOAD PUSH1 0x1 PUSH1 0x1 PUSH1 0xA8 SHL SUB NOT AND SWAP1 SSTORE PUSH1 0x12 DUP2 ADD DUP1 SLOAD PUSH1 0x1 PUSH1 0x1 PUSH1 0xA0 SHL SUB NOT AND SWAP1 SSTORE TIMESTAMP PUSH1 0x14 SWAP1 SWAP2 ADD SSTORE PUSH1 0x3 SLOAD PUSH1 0x1 PUSH1 0x40 SHL DUP2 LT ISZERO PUSH2 0x8A6 JUMPI DUP1 PUSH1 0x1 PUSH2 0x835 SWAP3 ADD PUSH1 0x3 SSTORE PUSH2 0x2476 JUMP JUMPDEST DUP2 SLOAD PUSH1 0x1 PUSH1 0x1 PUSH1 0xA0 SHL SUB PUSH1 0x3 SWAP3 SWAP1 SWAP3 SHL SWAP2 DUP3 SHL NOT AND CALLER SWAP1 SWAP2 SHL OR SWAP1 SSTORE PUSH1 0x4 SLOAD PUSH2 0x85D SWAP1 PUSH2 0x25E9 JUMP JUMPDEST PUSH1 0x4 SSTORE JUMPDEST PUSH1 0x40 MLOAD PUSH1 0x44 CALLDATALOAD ISZERO ISZERO DUP2 MSTORE PUSH1 0x1 PUSH1 0x1 PUSH1 0xA0 SHL SUB PUSH1 0x24 CALLDATALOAD DUP2 AND SWAP3 AND SWAP1 CALLER SWAP1 PUSH32 0x34FF37874D7443037A85C6F390FE14F2AE3E8767355DE0E63891AD4367C27539 SWAP1 PUSH1 0x20 SWAP1 LOG4 DUP1 RETURN JUMPDEST PUSH4 0x4E487B71 PUSH1 0xE0 SHL PUSH1 0x0 MSTORE PUSH1 0x41 PUSH1 0x4 MSTORE PUSH1 0x24 PUSH1 0x0 REVERT JUMPDEST PUSH1 0x1 PUSH1 0x1 PUSH1 0xA0 SHL SUB DUP2 AND DUP1 DUP4 MSTORE PUSH1 0x2 PUSH1 0x20 MSTORE PUSH1 0x40 DUP4 KECCAK256 SLOAD PUSH1 0xFF AND ISZERO PUSH2 0xAC5 JUMPI PUSH1 0x24 CALLDATALOAD PUSH1 0x1 PUSH1 0x1 PUSH1 0xA0 SHL SUB AND ISZERO ISZERO DUP1 PUSH2 0xAA4 JUMPI JUMPDEST ISZERO PUSH2 0xA9E JUMPI PUSH1 0x24 CALLDATALOAD JUMPDEST PUSH1 0x44 CALLDATALOAD DUP1 PUSH2 0xA7B JUMPI JUMPDEST PUSH2 0xA46 JUMPI PUSH1 0x44 CALLDATALOAD ISZERO DUP1 PUSH2 0xA58 JUMPI JUMPDEST PUSH2 0xA46 JUMPI CALLER PUSH1 0x0 SWAP1 DUP2 MSTORE PUSH1 0x2 PUSH1 0x20 DUP2 SWAP1 MSTORE PUSH1 0x40 SWAP1 SWAP2 KECCAK256 DUP1 SLOAD PUSH2 0xFF01 PUSH1 0x1 PUSH1 0xB0 SHL SUB NOT AND PUSH1 0x10 DUP7 SWAP1 SHL PUSH3 0x10000 PUSH1 0x1 PUSH1 0xB0 SHL SUB AND OR PUSH1 0x1 OR DUP2 SSTORE SWAP1 DUP2 ADD DUP1 SLOAD PUSH1 0x1 PUSH1 0x1 PUSH1 0xA8 SHL SUB NOT AND PUSH1 0x1 PUSH1 0x1 PUSH1 0xA0 SHL SUB SWAP1 SWAP4 AND SWAP3 DUP4 OR PUSH1 0x44 CALLDATALOAD ISZERO ISZERO PUSH1 0xA0 SHL PUSH1 0xFF PUSH1 0xA0 SHL AND OR SWAP1 SSTORE PUSH1 0x12 DUP2 ADD DUP1 SLOAD PUSH1 0x1 PUSH1 0x1 PUSH1 0xA0 SHL SUB NOT SWAP1 DUP2 AND SWAP1 SWAP2 SSTORE TIMESTAMP PUSH1 0x14 SWAP1 SWAP3 ADD SWAP2 SWAP1 SWAP2 SSTORE PUSH1 0x3 SLOAD SWAP1 SWAP2 SWAP1 PUSH1 0x1 PUSH1 0x40 SHL DUP2 LT ISZERO PUSH2 0x8A6 JUMPI DUP1 PUSH1 0x1 PUSH2 0x9B7 SWAP3 ADD PUSH1 0x3 SSTORE PUSH2 0x2476 JUMP JUMPDEST DUP2 SLOAD PUSH1 0x1 PUSH1 0x1 PUSH1 0xA0 SHL SUB PUSH1 0x3 SWAP3 SWAP1 SWAP3 SHL SWAP2 DUP3 SHL NOT AND CALLER SWAP1 SWAP2 SHL OR SWAP1 SSTORE PUSH1 0x4 SLOAD PUSH2 0x9DF SWAP1 PUSH2 0x25E9 JUMP JUMPDEST PUSH1 0x4 SSTORE PUSH1 0x44 CALLDATALOAD ISZERO PUSH2 0xA2A JUMPI DUP5 MSTORE PUSH1 0x2 PUSH1 0x20 MSTORE PUSH1 0x3 PUSH1 0x40 DUP6 KECCAK256 ADD SWAP1 CALLER SWAP1 DUP3 SLOAD AND OR SWAP1 SSTORE JUMPDEST DUP3 MSTORE PUSH1 0x2 PUSH1 0x20 MSTORE PUSH1 0x1 PUSH1 0x40 DUP4 KECCAK256 ADD PUSH2 0xA1A DUP2 SLOAD PUSH2 0x25E9 JUMP JUMPDEST SWAP1 SSTORE PUSH2 0xA25 CALLER PUSH2 0x260E JUMP JUMPDEST PUSH2 0x861 JUMP JUMPDEST DUP5 MSTORE PUSH1 0x2 PUSH1 0x20 MSTORE PUSH1 0x4 PUSH1 0x40 DUP6 KECCAK256 ADD SWAP1 CALLER SWAP1 DUP3 SLOAD AND OR SWAP1 SSTORE PUSH2 0xA02 JUMP JUMPDEST PUSH1 0x40 MLOAD PUSH4 0xD5DD5C3D PUSH1 0xE0 SHL DUP2 MSTORE PUSH1 0x4 SWAP1 REVERT JUMPDEST POP PUSH1 0x1 PUSH1 0x1 PUSH1 0xA0 SHL SUB DUP2 DUP2 AND DUP6 MSTORE PUSH1 0x2 PUSH1 0x20 MSTORE PUSH1 0x40 DUP6 KECCAK256 PUSH1 0x4 ADD SLOAD AND ISZERO ISZERO PUSH2 0x90F JUMP JUMPDEST POP PUSH1 0x1 PUSH1 0x1 PUSH1 0xA0 SHL SUB DUP2 DUP2 AND DUP6 MSTORE PUSH1 0x2 PUSH1 0x20 MSTORE PUSH1 0x40 DUP6 KECCAK256 PUSH1 0x3 ADD SLOAD AND ISZERO ISZERO PUSH2 0x901 JUMP JUMPDEST DUP2 PUSH2 0x8F8 JUMP JUMPDEST POP PUSH1 0x24 CALLDATALOAD PUSH1 0x1 PUSH1 0x1 PUSH1 0xA0 SHL SUB AND DUP4 MSTORE PUSH1 0x2 PUSH1 0x20 MSTORE PUSH1 0x40 DUP4 KECCAK256 SLOAD PUSH1 0xFF AND PUSH2 0x8EF JUMP JUMPDEST PUSH1 0x40 MLOAD PUSH4 0x2F212E0D PUSH1 0xE1 SHL DUP2 MSTORE PUSH1 0x4 SWAP1 REVERT JUMPDEST PUSH1 0x40 MLOAD PUSH4 0xEA075BF PUSH1 0xE2 SHL DUP2 MSTORE PUSH1 0x4 SWAP1 REVERT JUMPDEST POP CALLVALUE PUSH2 0x239 JUMPI DUP1 PUSH1 0x3 NOT CALLDATASIZE ADD SLT PUSH2 0x239 JUMPI PUSH1 0x40 MLOAD PUSH32 0x0 PUSH1 0x1 PUSH1 0x1 PUSH1 0xA0 SHL SUB AND DUP2 MSTORE PUSH1 0x20 SWAP1 RETURN JUMPDEST POP CALLVALUE PUSH2 0x239 JUMPI PUSH1 0x20 CALLDATASIZE PUSH1 0x3 NOT ADD SLT PUSH2 0x239 JUMPI PUSH1 0x40 SWAP1 PUSH1 0x1 PUSH1 0x1 PUSH1 0xA0 SHL SUB PUSH2 0xB53 PUSH2 0x23C1 JUMP JUMPDEST AND DUP2 MSTORE PUSH1 0x2 PUSH1 0x20 MSTORE KECCAK256 DUP1 PUSH1 0xE0 MSTORE DUP1 DUP1 DUP1 DUP1 DUP1 DUP1 DUP1 DUP1 DUP1 DUP1 DUP1 DUP1 PUSH2 0xC15 PUSH1 0x15 PUSH1 0xF PUSH1 0xE PUSH1 0xD PUSH1 0xC PUSH1 0xB PUSH1 0xA PUSH1 0x9 PUSH1 0x8 PUSH1 0x7 PUSH1 0x6 PUSH1 0x5 DUP14 SLOAD SWAP14 PUSH1 0x1 DUP2 ADD SLOAD PUSH2 0x300 MSTORE PUSH1 0x2 DUP2 ADD SLOAD PUSH1 0xA0 MSTORE PUSH1 0x1 DUP1 PUSH1 0xA0 SHL SUB PUSH1 0x3 DUP3 ADD SLOAD AND PUSH2 0x140 MSTORE PUSH1 0x4 PUSH1 0x1 DUP1 PUSH1 0xA0 SHL SUB SWAP2 ADD SLOAD AND SWAP15 ADD SLOAD SWAP15 ADD SLOAD SWAP15 ADD SLOAD SWAP15 ADD SLOAD SWAP15 ADD SLOAD SWAP15 ADD SLOAD SWAP15 ADD SLOAD SWAP15 ADD SLOAD SWAP15 ADD SLOAD SWAP15 ADD SLOAD SWAP15 ADD SLOAD SWAP15 PUSH1 0x10 DUP2 ADD SLOAD PUSH2 0x200 MSTORE PUSH1 0x11 DUP2 ADD SLOAD PUSH2 0x2C0 MSTORE PUSH1 0x1 DUP1 PUSH1 0xA0 SHL SUB PUSH1 0x12 DUP3 ADD SLOAD AND PUSH2 0x280 MSTORE PUSH1 0x13 DUP2 ADD SLOAD PUSH2 0x1C0 MSTORE PUSH1 0x14 DUP2 ADD SLOAD PUSH1 0xC0 MSTORE ADD PUSH2 0x2517 JUMP JUMPDEST PUSH2 0x120 MSTORE PUSH2 0xC27 PUSH1 0x16 PUSH1 0xE0 MLOAD ADD PUSH2 0x2517 JUMP JUMPDEST PUSH2 0x240 MSTORE PUSH2 0xC39 PUSH1 0x17 PUSH1 0xE0 MLOAD ADD PUSH2 0x2517 JUMP JUMPDEST PUSH1 0x80 MSTORE PUSH2 0xC4A PUSH1 0x18 PUSH1 0xE0 MLOAD ADD PUSH2 0x2517 JUMP JUMPDEST PUSH2 0x1E0 MSTORE PUSH1 0xFF PUSH1 0x19 PUSH1 0xE0 MLOAD ADD SLOAD AND PUSH2 0x1A0 MSTORE PUSH1 0x40 MLOAD DUP1 PUSH2 0x220 MSTORE PUSH1 0xFF DUP3 AND ISZERO ISZERO SWAP1 MSTORE PUSH1 0xFF DUP2 PUSH1 0x8 SHR AND ISZERO ISZERO PUSH1 0x20 PUSH2 0x220 MLOAD ADD MSTORE PUSH1 0x1 DUP1 PUSH1 0xA0 SHL SUB SWAP1 PUSH1 0x10 SHR AND PUSH1 0x40 PUSH2 0x220 MLOAD ADD MSTORE PUSH2 0x300 MLOAD PUSH1 0x60 PUSH2 0x220 MLOAD ADD MSTORE PUSH1 0x1 DUP1 PUSH1 0xA0 SHL SUB PUSH1 0xA0 MLOAD AND PUSH1 0x80 PUSH2 0x220 MLOAD ADD MSTORE PUSH1 0xFF PUSH1 0xA0 MLOAD PUSH1 0xA0 SHR AND ISZERO ISZERO PUSH1 0xA0 PUSH2 0x220 MLOAD ADD MSTORE PUSH2 0x140 MLOAD PUSH1 0xC0 PUSH2 0x220 MLOAD ADD MSTORE PUSH1 0xE0 PUSH2 0x220 MLOAD ADD MSTORE PUSH2 0x100 PUSH2 0x220 MLOAD ADD MSTORE PUSH2 0x120 PUSH2 0x220 MLOAD ADD MSTORE PUSH2 0x140 PUSH2 0x220 MLOAD ADD MSTORE PUSH2 0x160 PUSH2 0x220 MLOAD ADD MSTORE PUSH2 0x180 PUSH2 0x220 MLOAD ADD MSTORE PUSH2 0x1A0 PUSH2 0x220 MLOAD ADD MSTORE PUSH2 0x1C0 PUSH2 0x220 MLOAD ADD MSTORE PUSH2 0x1E0 PUSH2 0x220 MLOAD ADD MSTORE PUSH2 0x200 PUSH2 0x220 MLOAD ADD MSTORE PUSH2 0x220 DUP1 MLOAD ADD MSTORE PUSH2 0x240 PUSH2 0x220 MLOAD ADD MSTORE PUSH2 0x200 MLOAD PUSH2 0x260 PUSH2 0x220 MLOAD ADD MSTORE PUSH2 0x2C0 MLOAD PUSH2 0x280 PUSH2 0x220 MLOAD ADD MSTORE PUSH2 0x280 MLOAD PUSH2 0x2A0 PUSH2 0x220 MLOAD ADD MSTORE PUSH2 0x1C0 MLOAD PUSH2 0x2C0 PUSH2 0x220 MLOAD ADD MSTORE PUSH1 0xC0 MLOAD PUSH2 0x2E0 PUSH2 0x220 MLOAD ADD MSTORE PUSH2 0xDE0 PUSH2 0xDCA PUSH2 0xDB5 PUSH2 0xD9F PUSH2 0x3A0 DUP1 PUSH2 0x300 PUSH2 0x220 MLOAD ADD MSTORE PUSH2 0x220 MLOAD ADD PUSH2 0x120 MLOAD PUSH2 0x23D7 JUMP JUMPDEST PUSH2 0x220 MLOAD PUSH2 0x320 DUP2 DUP4 SUB SWAP2 ADD MSTORE PUSH2 0x240 MLOAD PUSH2 0x23D7 JUMP JUMPDEST PUSH2 0x220 MLOAD PUSH2 0x340 DUP2 DUP4 SUB SWAP2 ADD MSTORE PUSH1 0x80 MLOAD PUSH2 0x23D7 JUMP JUMPDEST PUSH2 0x220 MLOAD PUSH2 0x360 DUP2 DUP4 SUB SWAP2 ADD MSTORE PUSH2 0x1E0 MLOAD PUSH2 0x23D7 JUMP JUMPDEST PUSH2 0x1A0 MLOAD ISZERO ISZERO PUSH2 0x380 PUSH2 0x220 MLOAD ADD MSTORE PUSH2 0x220 MLOAD DUP1 SWAP2 SUB SWAP1 RETURN JUMPDEST POP CALLVALUE PUSH2 0x239 JUMPI PUSH1 0x20 CALLDATASIZE PUSH1 0x3 NOT ADD SLT PUSH2 0x239 JUMPI PUSH1 0x4 CALLDATALOAD SWAP1 PUSH1 0x3 SLOAD DUP3 LT ISZERO PUSH2 0x239 JUMPI PUSH1 0x20 PUSH2 0xE24 DUP4 PUSH2 0x2476 JUMP JUMPDEST SWAP1 SLOAD PUSH1 0x40 MLOAD PUSH1 0x3 SWAP3 SWAP1 SWAP3 SHL SHR PUSH1 0x1 PUSH1 0x1 PUSH1 0xA0 SHL SUB AND DUP2 MSTORE RETURN JUMPDEST POP CALLVALUE PUSH2 0x239 JUMPI PUSH1 0x40 CALLDATASIZE PUSH1 0x3 NOT ADD SLT PUSH2 0x239 JUMPI PUSH2 0xE57 PUSH2 0x23C1 JUMP JUMPDEST PUSH1 0x24 CALLDATALOAD SWAP1 DUP2 ISZERO ISZERO DUP3 SUB PUSH2 0x5DD JUMPI PUSH2 0xE6C PUSH2 0x26C4 JUMP JUMPDEST PUSH1 0x1 PUSH1 0x1 PUSH1 0xA0 SHL SUB DUP2 DUP2 AND SWAP3 SWAP1 DUP4 ISZERO PUSH2 0x3A2 JUMPI CALLER DUP6 MSTORE PUSH1 0x2 SWAP3 PUSH1 0x20 SWAP4 DUP1 DUP6 MSTORE PUSH1 0x40 DUP8 KECCAK256 SWAP2 DUP3 SLOAD SWAP2 PUSH1 0xFF DUP4 PUSH1 0x8 SHR AND ISZERO PUSH2 0x111E JUMPI PUSH1 0xD DUP5 ADD DUP1 SLOAD SWAP1 PUSH9 0x70C1CC73B00C80000 DUP1 DUP4 LT PUSH2 0x110C JUMPI DUP11 DUP13 MSTORE DUP4 DUP11 MSTORE PUSH1 0xFF PUSH1 0x40 DUP14 KECCAK256 SLOAD AND PUSH2 0x10C7 JUMPI PUSH9 0x70C1CC73B00C7FFFF NOT DUP4 ADD SWAP3 DUP4 GT PUSH2 0x10B3 JUMPI DUP1 DUP4 LT PUSH2 0x10A8 JUMPI PUSH2 0xEEF SWAP1 DUP1 SWAP4 PUSH2 0x2742 JUMP JUMPDEST SWAP1 SSTORE PUSH1 0xC DUP6 ADD PUSH2 0xF00 DUP3 DUP3 SLOAD PUSH2 0x274F JUMP JUMPDEST SWAP1 SSTORE PUSH2 0xF11 PUSH1 0xE DUP7 ADD SWAP2 DUP3 SLOAD PUSH2 0x274F JUMP JUMPDEST SWAP1 SSTORE PUSH9 0x15245655B102580000 PUSH1 0xB DUP6 ADD SSTORE PUSH2 0xF32 DUP6 DUP5 PUSH1 0x10 SHR AND SWAP7 CALLER PUSH2 0x2EB0 JUMP JUMPDEST PUSH1 0x0 DUP11 DUP2 MSTORE DUP4 DUP11 MSTORE PUSH1 0x40 SWAP1 KECCAK256 DUP1 SLOAD PUSH2 0xFF01 PUSH1 0x1 PUSH1 0xB0 SHL SUB NOT AND PUSH3 0x10000 PUSH1 0x1 PUSH1 0xB0 SHL SUB SWAP1 SWAP7 AND SWAP6 SWAP1 SWAP6 OR PUSH1 0x1 OR DUP6 SSTORE DUP5 DUP4 ADD DUP1 SLOAD PUSH1 0x1 PUSH1 0x1 PUSH1 0xA8 SHL SUB NOT AND SWAP3 DUP9 AND SWAP3 DUP4 OR DUP3 ISZERO ISZERO PUSH1 0xA0 SHL PUSH1 0xFF PUSH1 0xA0 SHL AND OR SWAP1 SSTORE PUSH1 0x12 DUP6 ADD DUP1 SLOAD PUSH1 0x1 PUSH1 0x1 PUSH1 0xA0 SHL SUB NOT SWAP1 DUP2 AND CALLER OR SWAP1 SWAP2 SSTORE TIMESTAMP PUSH1 0x14 SWAP1 SWAP7 ADD SWAP6 SWAP1 SWAP6 SSTORE PUSH1 0x3 SLOAD SWAP1 SWAP8 SWAP1 SWAP5 SWAP1 SWAP2 PUSH1 0x1 PUSH1 0x40 SHL DUP7 LT ISZERO PUSH2 0x8A6 JUMPI PUSH32 0x30016ED357540281A6CFF6143637E72B48E105D85D15DF66B0AAFFBD23790240 SWAP9 PUSH1 0x13 SWAP9 DUP13 PUSH2 0xFF4 DUP10 PUSH1 0x1 PUSH2 0x1044 SWAP12 ADD PUSH1 0x3 SSTORE PUSH2 0x2476 JUMP JUMPDEST SWAP1 SWAP3 DUP4 SLOAD SWAP2 PUSH1 0x3 SHL SWAP3 DUP4 SHL SWAP3 SHL NOT AND OR SWAP1 SSTORE PUSH2 0x1011 PUSH1 0x4 SLOAD PUSH2 0x25E9 JUMP JUMPDEST PUSH1 0x4 SSTORE ISZERO PUSH2 0x108F JUMPI DUP12 MSTORE DUP3 DUP10 MSTORE DUP10 PUSH1 0x3 PUSH1 0x40 DUP14 KECCAK256 ADD SWAP2 DUP3 SLOAD AND OR SWAP1 SSTORE JUMPDEST DUP1 PUSH2 0x1071 JUMPI JUMPDEST POP POP PUSH2 0x103F DUP2 PUSH2 0x260E JUMP JUMPDEST PUSH2 0x2780 JUMP JUMPDEST ADD SWAP2 PUSH2 0x1050 DUP4 SLOAD PUSH2 0x25E9 JUMP JUMPDEST DUP1 SWAP4 SSTORE PUSH1 0x40 MLOAD SWAP3 DUP4 MSTORE CALLER SWAP3 LOG3 PUSH1 0x1 PUSH1 0x0 DUP1 MLOAD PUSH1 0x20 PUSH2 0x346C DUP4 CODECOPY DUP2 MLOAD SWAP2 MSTORE SSTORE DUP1 RETURN JUMPDEST DUP10 MSTORE DUP7 MSTORE PUSH1 0x1 PUSH1 0x40 DUP10 KECCAK256 ADD PUSH2 0x1086 DUP2 SLOAD PUSH2 0x25E9 JUMP JUMPDEST SWAP1 SSTORE CODESIZE DUP1 PUSH2 0x1034 JUMP JUMPDEST DUP12 MSTORE DUP3 DUP10 MSTORE DUP10 PUSH1 0x4 PUSH1 0x40 DUP14 KECCAK256 ADD SWAP2 DUP3 SLOAD AND OR SWAP1 SSTORE PUSH2 0x102E JUMP JUMPDEST POP PUSH2 0xEEF DUP3 DUP1 PUSH2 0x2742 JUMP JUMPDEST PUSH4 0x4E487B71 PUSH1 0xE0 SHL DUP13 MSTORE PUSH1 0x11 PUSH1 0x4 MSTORE PUSH1 0x24 DUP13 REVERT JUMPDEST PUSH1 0x40 MLOAD PUSH3 0x461BCD PUSH1 0xE5 SHL DUP2 MSTORE PUSH1 0x4 DUP2 ADD DUP12 SWAP1 MSTORE PUSH1 0x1E PUSH1 0x24 DUP3 ADD MSTORE PUSH32 0x5375622D6163636F756E7420616C726561647920726567697374657265640000 PUSH1 0x44 DUP3 ADD MSTORE PUSH1 0x64 SWAP1 REVERT JUMPDEST PUSH1 0x40 MLOAD PUSH4 0x7DB32BD PUSH1 0xE3 SHL DUP2 MSTORE PUSH1 0x4 SWAP1 REVERT JUMPDEST PUSH1 0x40 MLOAD PUSH3 0x461BCD PUSH1 0xE5 SHL DUP2 MSTORE PUSH1 0x4 DUP2 ADD DUP9 SWAP1 MSTORE PUSH1 0xA PUSH1 0x24 DUP3 ADD MSTORE PUSH10 0x4E6F7420616374697665 PUSH1 0xB0 SHL PUSH1 0x44 DUP3 ADD MSTORE PUSH1 0x64 SWAP1 REVERT JUMPDEST POP CALLVALUE PUSH2 0x239 JUMPI DUP1 PUSH1 0x3 NOT CALLDATASIZE ADD SLT PUSH2 0x239 JUMPI PUSH1 0x20 PUSH1 0x40 MLOAD PUSH1 0xA DUP2 MSTORE RETURN JUMPDEST POP CALLVALUE PUSH2 0x239 JUMPI DUP1 PUSH1 0x3 NOT CALLDATASIZE ADD SLT PUSH2 0x239 JUMPI SLOAD PUSH1 0x40 MLOAD PUSH1 0x1 PUSH1 0x1 PUSH1 0xA0 SHL SUB SWAP1 SWAP2 AND DUP2 MSTORE PUSH1 0x20 SWAP1 RETURN JUMPDEST POP CALLVALUE PUSH2 0x239 JUMPI PUSH2 0x11A2 CALLDATASIZE PUSH2 0x2417 JUMP JUMPDEST PUSH2 0x11AA PUSH2 0x25BD JUMP JUMPDEST PUSH2 0x11B2 PUSH2 0x26C4 JUMP JUMPDEST PUSH1 0x9 SWAP1 PUSH1 0xFF DUP3 SLOAD AND ISZERO PUSH2 0x139F JUMPI PUSH2 0x11C9 SWAP1 DUP4 PUSH2 0x274F JUMP JUMPDEST SWAP1 PUSH1 0x3 DUP1 SLOAD DUP1 DUP5 GT PUSH2 0x1397 JUMPI JUMPDEST POP DUP5 SWAP3 DUP5 JUMPDEST DUP2 DUP2 LT PUSH2 0x1357 JUMPI POP PUSH1 0x8 SWAP2 DUP3 SLOAD SWAP6 DUP6 ISZERO ISZERO DUP1 PUSH2 0x134E JUMPI JUMPDEST ISZERO PUSH2 0x1335 JUMPI DUP1 JUMPDEST DUP4 DUP2 LT PUSH2 0x12A0 JUMPI POP SWAP1 DUP8 SWAP4 SWAP3 SWAP2 JUMPDEST DUP3 DUP2 LT PUSH2 0x1260 JUMPI DUP5 PUSH32 0x7F4A5B69BEA14A6FC05326671A02E90D4A88855C83A18529C260057B1BF61A85 PUSH1 0x40 DUP11 DUP11 DUP11 DUP6 DUP11 SSTORE PUSH1 0xFF NOT DUP2 SLOAD AND SWAP1 SSTORE DUP3 MLOAD SWAP2 DUP3 MSTORE PUSH1 0x20 DUP3 ADD MSTORE LOG1 PUSH1 0x1 PUSH1 0x0 DUP1 MLOAD PUSH1 0x20 PUSH2 0x346C DUP4 CODECOPY DUP2 MLOAD SWAP2 MSTORE SSTORE DUP1 RETURN JUMPDEST PUSH2 0x1296 SWAP2 SWAP3 SWAP4 SWAP5 POP PUSH2 0x1271 DUP2 PUSH2 0x2476 JUMP JUMPDEST SWAP1 SLOAD SWAP1 DUP5 SHL SHR PUSH1 0x1 PUSH1 0x1 PUSH1 0xA0 SHL SUB AND DUP10 MSTORE PUSH1 0x2 PUSH1 0x20 MSTORE PUSH1 0x40 DUP10 KECCAK256 PUSH1 0x11 ADD DUP10 SWAP1 SSTORE PUSH2 0x25E9 JUMP JUMPDEST SWAP1 DUP8 SWAP4 SWAP3 SWAP2 PUSH2 0x1207 JUMP JUMPDEST DUP1 DUP10 PUSH2 0x12AE PUSH2 0x1323 SWAP4 PUSH2 0x2476 JUMP JUMPDEST SWAP1 SLOAD SWAP1 DUP7 SHL SHR PUSH1 0x1 PUSH1 0x1 PUSH1 0xA0 SHL SUB AND DUP1 DUP3 MSTORE PUSH1 0x2 PUSH1 0x20 DUP2 DUP2 MSTORE PUSH1 0x40 DUP5 KECCAK256 PUSH1 0x11 ADD SLOAD SWAP2 SWAP3 SWAP1 SWAP2 DUP11 SWAP1 DUP15 SWAP1 DUP15 DUP2 ISZERO PUSH2 0x1328 JUMPI PUSH2 0x12ED PUSH2 0x12F2 SWAP3 PUSH1 0x40 SWAP5 PUSH2 0x26F4 JUMP JUMPDEST PUSH2 0x2707 JUMP JUMPDEST SWAP6 DUP4 DUP2 MSTORE DUP6 DUP6 MSTORE KECCAK256 ADD PUSH2 0x1306 DUP6 DUP3 SLOAD PUSH2 0x274F JUMP JUMPDEST SWAP1 SSTORE DUP14 MSTORE MSTORE PUSH2 0x131C DUP9 PUSH1 0x40 DUP14 KECCAK256 ADD SWAP2 DUP3 SLOAD PUSH2 0x274F JUMP JUMPDEST SWAP1 SSTORE PUSH2 0x25E9 JUMP JUMPDEST PUSH2 0x11F9 JUMP JUMPDEST POP POP POP POP POP POP POP POP PUSH2 0x25E9 JUMP JUMPDEST PUSH2 0x1341 DUP8 PUSH1 0x7 SLOAD PUSH2 0x274F JUMP JUMPDEST PUSH1 0x7 SSTORE SWAP1 DUP8 SWAP4 SWAP3 SWAP2 PUSH2 0x1207 JUMP JUMPDEST POP DUP7 ISZERO ISZERO PUSH2 0x11F2 JUMP JUMPDEST SWAP4 PUSH2 0x138C PUSH2 0x1392 SWAP2 PUSH2 0x1368 DUP8 PUSH2 0x2476 JUMP JUMPDEST SWAP1 SLOAD SWAP1 DUP7 SHL SHR PUSH1 0x1 PUSH1 0x1 PUSH1 0xA0 SHL SUB AND DUP10 MSTORE PUSH1 0x2 PUSH1 0x20 MSTORE PUSH1 0x40 DUP10 KECCAK256 PUSH1 0x11 ADD SLOAD SWAP1 PUSH2 0x274F JUMP JUMPDEST SWAP5 PUSH2 0x25E9 JUMP JUMPDEST PUSH2 0x11DB JUMP JUMPDEST SWAP3 POP CODESIZE PUSH2 0x11D6 JUMP JUMPDEST PUSH1 0x40 MLOAD PUSH4 0x418826BF PUSH1 0xE1 SHL DUP2 MSTORE PUSH1 0x4 SWAP1 REVERT JUMPDEST POP CALLVALUE PUSH2 0x239 JUMPI DUP1 PUSH1 0x3 NOT CALLDATASIZE ADD SLT PUSH2 0x239 JUMPI PUSH1 0x20 PUSH1 0x5 SLOAD PUSH1 0x40 MLOAD SWAP1 DUP2 MSTORE RETURN JUMPDEST POP CALLVALUE PUSH2 0x239 JUMPI DUP1 PUSH1 0x3 NOT CALLDATASIZE ADD SLT PUSH2 0x239 JUMPI PUSH2 0x13E8 PUSH2 0x25BD JUMP JUMPDEST PUSH1 0x0 DUP1 SLOAD PUSH1 0x1 PUSH1 0x1 PUSH1 0xA0 SHL SUB NOT DUP2 AND DUP3 SSTORE PUSH1 0x1 PUSH1 0x1 PUSH1 0xA0 SHL SUB AND PUSH1 0x0 DUP1 MLOAD PUSH1 0x20 PUSH2 0x342C DUP4 CODECOPY DUP2 MLOAD SWAP2 MSTORE DUP3 DUP1 LOG3 DUP1 RETURN JUMPDEST POP CALLVALUE PUSH2 0x239 JUMPI DUP1 PUSH1 0x3 NOT CALLDATASIZE ADD SLT PUSH2 0x239 JUMPI PUSH1 0x1 SLOAD PUSH1 0x40 MLOAD PUSH3 0x3144BD PUSH1 0xE3 SHL DUP2 MSTORE PUSH1 0x1 PUSH1 0x1 PUSH1 0xA0 SHL SUB SWAP1 SWAP2 AND SWAP2 PUSH1 0x20 DUP1 DUP4 PUSH1 0x4 DUP2 DUP8 GAS STATICCALL SWAP3 DUP4 ISZERO PUSH2 0x14EF JUMPI DUP3 SWAP4 PUSH2 0x14BE JUMPI JUMPDEST POP DUP1 PUSH1 0x4 SWAP5 PUSH1 0x40 MLOAD SWAP6 DUP7 DUP1 SWAP3 PUSH4 0x10F4CBA7 PUSH1 0xE2 SHL DUP3 MSTORE GAS STATICCALL SWAP2 DUP3 ISZERO PUSH2 0x5EA JUMPI SWAP2 PUSH2 0x148E JUMPI JUMPDEST PUSH1 0x40 DUP1 SWAP5 POP MLOAD SWAP3 DUP4 MSTORE DUP3 ADD MSTORE RETURN JUMPDEST DUP1 SWAP2 POP DUP4 DUP2 RETURNDATASIZE DUP4 GT PUSH2 0x14B7 JUMPI JUMPDEST PUSH2 0x14A5 DUP2 DUP4 PUSH2 0x24F4 JUMP JUMPDEST DUP2 ADD SUB SLT PUSH2 0x5DD JUMPI PUSH1 0x40 SWAP3 MLOAD SWAP1 PUSH2 0x1480 JUMP JUMPDEST POP RETURNDATASIZE PUSH2 0x149B JUMP JUMPDEST SWAP4 SWAP3 POP DUP1 DUP5 DUP2 RETURNDATASIZE DUP4 GT PUSH2 0x14E8 JUMPI JUMPDEST PUSH2 0x14D6 DUP2 DUP4 PUSH2 0x24F4 JUMP JUMPDEST DUP2 ADD SUB SLT PUSH2 0x5DD JUMPI SWAP3 MLOAD SWAP2 SWAP3 DUP1 PUSH2 0x145B JUMP JUMPDEST POP RETURNDATASIZE PUSH2 0x14CC JUMP JUMPDEST PUSH1 0x40 MLOAD RETURNDATASIZE DUP5 DUP3 RETURNDATACOPY RETURNDATASIZE SWAP1 REVERT JUMPDEST POP CALLVALUE PUSH2 0x239 JUMPI PUSH1 0x20 CALLDATASIZE PUSH1 0x3 NOT ADD SLT PUSH2 0x239 JUMPI PUSH1 0x40 SWAP1 PUSH1 0x1 PUSH1 0x1 PUSH1 0xA0 SHL SUB PUSH2 0x151F PUSH2 0x23C1 JUMP JUMPDEST AND DUP2 MSTORE PUSH1 0x2 PUSH1 0x20 MSTORE KECCAK256 DUP1 DUP1 DUP1 DUP1 DUP1 DUP1 DUP1 DUP1 DUP1 DUP1 DUP1 DUP1 DUP1 SLOAD PUSH1 0x1 DUP3 ADD SLOAD PUSH2 0x180 MSTORE PUSH1 0x2 DUP3 ADD SLOAD PUSH2 0x2E0 MSTORE PUSH1 0x14 PUSH1 0x7 PUSH1 0x11 PUSH1 0xF PUSH1 0xD PUSH1 0xC PUSH1 0xB PUSH1 0xA PUSH1 0x9 PUSH1 0x8 PUSH1 0x6 PUSH1 0x5 DUP14 PUSH1 0x3 PUSH1 0x1 DUP1 PUSH1 0xA0 SHL SUB SWAP2 ADD SLOAD AND SWAP14 PUSH1 0x4 PUSH1 0x1 DUP1 PUSH1 0xA0 SHL SUB SWAP2 ADD SLOAD AND SWAP15 ADD SLOAD SWAP15 ADD SLOAD SWAP15 ADD SLOAD SWAP15 ADD SLOAD SWAP15 ADD SLOAD SWAP15 ADD SLOAD SWAP15 ADD SLOAD SWAP15 ADD SLOAD SWAP15 ADD SLOAD SWAP15 ADD SLOAD SWAP15 ADD SLOAD SWAP15 PUSH1 0x1 DUP1 PUSH1 0xA0 SHL SUB PUSH1 0x12 DUP3 ADD SLOAD AND PUSH2 0x160 MSTORE PUSH1 0x13 DUP2 ADD SLOAD PUSH2 0x2A0 MSTORE ADD SLOAD PUSH2 0x260 MSTORE PUSH1 0x40 MLOAD DUP1 PUSH2 0x100 MSTORE PUSH1 0xFF DUP3 AND ISZERO ISZERO SWAP1 MSTORE PUSH1 0xFF DUP2 PUSH1 0x8 SHR AND ISZERO ISZERO PUSH1 0x20 PUSH2 0x100 MLOAD ADD MSTORE PUSH1 0x1 DUP1 PUSH1 0xA0 SHL SUB SWAP1 PUSH1 0x10 SHR AND PUSH1 0x40 PUSH2 0x100 MLOAD ADD MSTORE PUSH2 0x180 MLOAD PUSH1 0x60 PUSH2 0x100 MLOAD ADD MSTORE PUSH1 0x1 DUP1 PUSH1 0xA0 SHL SUB PUSH2 0x2E0 MLOAD AND PUSH1 0x80 PUSH2 0x100 MLOAD ADD MSTORE PUSH1 0xFF PUSH2 0x2E0 MLOAD PUSH1 0xA0 SHR AND ISZERO ISZERO PUSH1 0xA0 PUSH2 0x100 MLOAD ADD MSTORE PUSH1 0xC0 PUSH2 0x100 MLOAD ADD MSTORE PUSH1 0xE0 PUSH2 0x100 MLOAD ADD MSTORE PUSH2 0x100 DUP1 MLOAD ADD MSTORE PUSH2 0x120 PUSH2 0x100 MLOAD ADD MSTORE PUSH2 0x140 PUSH2 0x100 MLOAD ADD MSTORE PUSH2 0x160 PUSH2 0x100 MLOAD ADD MSTORE PUSH2 0x180 PUSH2 0x100 MLOAD ADD MSTORE PUSH2 0x1A0 PUSH2 0x100 MLOAD ADD MSTORE PUSH2 0x1C0 PUSH2 0x100 MLOAD ADD MSTORE PUSH2 0x1E0 PUSH2 0x100 MLOAD ADD MSTORE PUSH2 0x200 PUSH2 0x100 MLOAD ADD MSTORE PUSH2 0x220 PUSH2 0x100 MLOAD ADD MSTORE PUSH2 0x240 PUSH2 0x100 MLOAD ADD MSTORE PUSH2 0x160 MLOAD PUSH2 0x260 PUSH2 0x100 MLOAD ADD MSTORE PUSH2 0x2A0 MLOAD PUSH2 0x280 PUSH2 0x100 MLOAD ADD MSTORE PUSH2 0x260 MLOAD PUSH2 0x2A0 PUSH2 0x100 MLOAD ADD MSTORE PUSH2 0x2C0 PUSH2 0x100 MLOAD RETURN JUMPDEST POP CALLVALUE PUSH2 0x239 JUMPI PUSH1 0x20 DUP1 PUSH1 0x3 NOT CALLDATASIZE ADD SLT PUSH2 0x559 JUMPI PUSH1 0x4 CALLDATALOAD SWAP1 PUSH2 0x16E7 PUSH2 0x26C4 JUMP JUMPDEST DUP2 ISZERO PUSH2 0x547 JUMPI CALLER DUP4 MSTORE PUSH1 0x2 DUP2 MSTORE PUSH1 0x40 DUP4 KECCAK256 SWAP1 PUSH1 0xFF DUP3 SLOAD PUSH1 0x8 SHR AND ISZERO PUSH2 0x19CC JUMPI PUSH1 0x8 DUP3 ADD DUP1 SLOAD DUP5 DUP2 LT PUSH2 0x19BA JUMPI DUP5 PUSH2 0x171D SWAP2 PUSH2 0x2742 JUMP JUMPDEST SWAP1 SSTORE PUSH1 0xA DUP3 ADD PUSH2 0x172E DUP5 DUP3 SLOAD PUSH2 0x274F JUMP JUMPDEST SWAP1 SSTORE PUSH1 0x40 MLOAD PUSH4 0x70A08231 PUSH1 0xE0 SHL DUP1 DUP3 MSTORE ADDRESS PUSH1 0x4 DUP4 ADD MSTORE PUSH1 0x1 PUSH1 0x1 PUSH1 0xA0 SHL SUB PUSH32 0x0 DUP2 AND SWAP3 SWAP2 SWAP1 DUP8 SWAP1 DUP6 DUP5 PUSH1 0x24 DUP2 DUP9 GAS STATICCALL SWAP4 DUP5 ISZERO PUSH2 0x14EF JUMPI DUP3 SWAP5 PUSH2 0x198B JUMPI JUMPDEST POP PUSH1 0x1 SLOAD AND DUP1 EXTCODESIZE ISZERO PUSH2 0x559 JUMPI DUP2 SWAP1 PUSH1 0x24 PUSH1 0x40 MLOAD DUP1 SWAP5 DUP2 SWAP4 PUSH4 0x72424D99 PUSH1 0xE1 SHL DUP4 MSTORE DUP13 PUSH1 0x4 DUP5 ADD MSTORE GAS CALL DUP1 ISZERO PUSH2 0x1980 JUMPI PUSH2 0x196D JUMPI JUMPDEST POP DUP4 SWAP1 PUSH1 0x24 PUSH1 0x40 MLOAD DUP1 SWAP6 DUP2 SWAP4 DUP3 MSTORE ADDRESS PUSH1 0x4 DUP4 ADD MSTORE GAS STATICCALL DUP1 ISZERO PUSH2 0x1962 JUMPI DUP7 SWAP1 PUSH2 0x1933 JUMPI JUMPDEST PUSH2 0x17EB SWAP3 POP PUSH2 0x2742 JUMP JUMPDEST SWAP2 PUSH1 0xA DUP4 MUL DUP4 DUP2 DIV PUSH1 0xA EQ DUP5 ISZERO OR ISZERO PUSH2 0x191F JUMPI PUSH32 0x8F7262D5A031D4D671E1FDB0CDDCD26D37185226F9E82F2F18877141AC1963EB SWAP4 SWAP3 SWAP2 PUSH2 0x1833 PUSH1 0x64 PUSH2 0x18F4 SWAP4 DIV DUP1 SWAP6 PUSH2 0x2742 JUMP JUMPDEST SWAP3 PUSH1 0xF DUP3 ADD PUSH2 0x1843 DUP7 DUP3 SLOAD PUSH2 0x274F JUMP JUMPDEST SWAP1 SSTORE PUSH1 0x10 DUP3 ADD PUSH2 0x1854 DUP7 DUP3 SLOAD PUSH2 0x274F JUMP JUMPDEST SWAP1 SSTORE PUSH32 0x2B1D2104E84DD4DABB0CCA024171F783AB1E1C9DC1AF9D60A2361596653A99C4 PUSH1 0x40 MLOAD SWAP2 DUP7 DUP4 MSTORE CALLER SWAP3 LOG2 PUSH1 0xB DUP2 ADD DUP1 SLOAD SWAP2 DUP9 DUP4 ISZERO PUSH2 0x1912 JUMPI POP PUSH1 0xD SWAP1 DUP4 DUP7 GT ISZERO PUSH2 0x190C JUMPI DUP4 JUMPDEST DUP1 SWAP4 PUSH2 0x18C4 DUP3 PUSH2 0x18AD DUP2 DUP12 PUSH2 0x2742 JUMP JUMPDEST SWAP8 PUSH1 0xC DUP7 ADD PUSH2 0x18BD DUP4 DUP3 SLOAD PUSH2 0x274F JUMP JUMPDEST SWAP1 SSTORE PUSH2 0x2742 JUMP JUMPDEST SWAP1 SSTORE PUSH2 0x18D5 PUSH1 0xE DUP4 ADD SWAP2 DUP3 SLOAD PUSH2 0x274F JUMP JUMPDEST SWAP1 SSTORE JUMPDEST ADD PUSH2 0x18E4 DUP4 DUP3 SLOAD PUSH2 0x274F JUMP JUMPDEST SWAP1 SSTORE PUSH1 0x40 MLOAD SWAP5 DUP6 SWAP5 CALLER SWAP9 DUP7 PUSH2 0x275C JUMP JUMPDEST SUB SWAP1 LOG2 PUSH1 0x1 PUSH1 0x0 DUP1 MLOAD PUSH1 0x20 PUSH2 0x346C DUP4 CODECOPY DUP2 MLOAD SWAP2 MSTORE SSTORE DUP1 RETURN JUMPDEST DUP6 PUSH2 0x189D JUMP JUMPDEST SWAP2 POP SWAP2 POP PUSH1 0xD DUP5 SWAP3 PUSH2 0x18D8 JUMP JUMPDEST PUSH4 0x4E487B71 PUSH1 0xE0 SHL DUP7 MSTORE PUSH1 0x11 PUSH1 0x4 MSTORE PUSH1 0x24 DUP7 REVERT JUMPDEST POP DUP3 DUP3 DUP2 RETURNDATASIZE DUP4 GT PUSH2 0x195B JUMPI JUMPDEST PUSH2 0x1949 DUP2 DUP4 PUSH2 0x24F4 JUMP JUMPDEST DUP2 ADD SUB SLT PUSH2 0x5DD JUMPI PUSH2 0x17EB SWAP2 MLOAD PUSH2 0x17E1 JUMP JUMPDEST POP RETURNDATASIZE PUSH2 0x193F JUMP JUMPDEST PUSH1 0x40 MLOAD RETURNDATASIZE DUP9 DUP3 RETURNDATACOPY RETURNDATASIZE SWAP1 REVERT JUMPDEST SWAP7 PUSH2 0x1979 DUP6 SWAP3 SWAP9 PUSH2 0x24E1 JUMP JUMPDEST SWAP7 SWAP1 PUSH2 0x17BE JUMP JUMPDEST PUSH1 0x40 MLOAD RETURNDATASIZE DUP11 DUP3 RETURNDATACOPY RETURNDATASIZE SWAP1 REVERT JUMPDEST SWAP1 SWAP4 POP DUP6 DUP2 DUP2 RETURNDATASIZE DUP4 GT PUSH2 0x19B3 JUMPI JUMPDEST PUSH2 0x19A3 DUP2 DUP4 PUSH2 0x24F4 JUMP JUMPDEST DUP2 ADD SUB SLT PUSH2 0x559 JUMPI MLOAD SWAP3 CODESIZE PUSH2 0x178A JUMP JUMPDEST POP RETURNDATASIZE PUSH2 0x1999 JUMP JUMPDEST PUSH1 0x40 MLOAD PUSH4 0x208975E7 PUSH1 0xE2 SHL DUP2 MSTORE PUSH1 0x4 SWAP1 REVERT JUMPDEST PUSH1 0x40 MLOAD PUSH4 0xABA47339 PUSH1 0xE0 SHL DUP2 MSTORE PUSH1 0x4 SWAP1 REVERT JUMPDEST POP CALLVALUE PUSH2 0x239 JUMPI PUSH1 0x80 CALLDATASIZE PUSH1 0x3 NOT ADD SLT PUSH2 0x239 JUMPI PUSH1 0x4 CALLDATALOAD PUSH1 0x1 PUSH1 0x1 PUSH1 0x40 SHL SUB DUP2 GT PUSH2 0x559 JUMPI PUSH2 0x1A0F SWAP1 CALLDATASIZE SWAP1 PUSH1 0x4 ADD PUSH2 0x2449 JUMP JUMPDEST SWAP2 SWAP1 PUSH1 0x24 CALLDATALOAD PUSH1 0x1 PUSH1 0x1 PUSH1 0x40 SHL SUB DUP2 GT PUSH2 0x1FAD JUMPI PUSH2 0x1A30 SWAP1 CALLDATASIZE SWAP1 PUSH1 0x4 ADD PUSH2 0x2449 JUMP JUMPDEST PUSH1 0x44 CALLDATALOAD PUSH1 0x1 PUSH1 0x1 PUSH1 0x40 SHL SUB DUP2 GT PUSH2 0x1FA9 JUMPI PUSH2 0x1A4F SWAP1 CALLDATASIZE SWAP1 PUSH1 0x4 ADD PUSH2 0x2449 JUMP JUMPDEST SWAP1 SWAP2 PUSH1 0x64 CALLDATALOAD PUSH1 0x1 PUSH1 0x1 PUSH1 0x40 SHL SUB DUP2 GT PUSH2 0x1FA5 JUMPI PUSH2 0x1A70 SWAP1 CALLDATASIZE SWAP1 PUSH1 0x4 ADD PUSH2 0x2449 JUMP JUMPDEST SWAP5 SWAP1 SWAP8 CALLER DUP9 MSTORE PUSH1 0x2 PUSH1 0x20 MSTORE PUSH1 0xFF PUSH1 0x40 DUP10 KECCAK256 SLOAD AND ISZERO PUSH2 0x1F6F JUMPI CALLER DUP9 MSTORE PUSH1 0x2 PUSH1 0x20 MSTORE PUSH1 0x40 DUP9 KECCAK256 SWAP7 PUSH1 0x1 PUSH1 0x1 PUSH1 0x40 SHL SUB DUP3 GT PUSH2 0x1F5B JUMPI DUP2 SWAP1 PUSH2 0x1AB2 PUSH1 0x15 DUP11 ADD SLOAD PUSH2 0x24A7 JUMP JUMPDEST PUSH1 0x1F DUP2 GT PUSH2 0x1F0B JUMPI JUMPDEST POP DUP10 SWAP1 PUSH1 0x1F DUP4 GT PUSH1 0x1 EQ PUSH2 0x1E9F JUMPI DUP11 SWAP3 PUSH2 0x1E94 JUMPI JUMPDEST POP POP DUP2 PUSH1 0x1 SHL SWAP2 PUSH1 0x0 NOT SWAP1 PUSH1 0x3 SHL SHR NOT AND OR PUSH1 0x15 DUP8 ADD SSTORE JUMPDEST PUSH1 0x1 PUSH1 0x1 PUSH1 0x40 SHL SUB DUP3 GT PUSH2 0x1E80 JUMPI DUP2 SWAP1 PUSH2 0x1B05 PUSH1 0x16 DUP9 ADD SLOAD PUSH2 0x24A7 JUMP JUMPDEST PUSH1 0x1F DUP2 GT PUSH2 0x1E2D JUMPI JUMPDEST POP DUP8 SWAP1 PUSH1 0x1F DUP4 GT PUSH1 0x1 EQ PUSH2 0x1DC1 JUMPI DUP9 SWAP3 PUSH2 0x1DB6 JUMPI JUMPDEST POP POP DUP2 PUSH1 0x1 SHL SWAP2 PUSH1 0x0 NOT SWAP1 PUSH1 0x3 SHL SHR NOT AND OR PUSH1 0x16 DUP6 ADD SSTORE JUMPDEST PUSH1 0x17 DUP5 ADD SWAP2 PUSH1 0x1 PUSH1 0x1 PUSH1 0x40 SHL SUB DUP3 GT PUSH2 0x1DA2 JUMPI DUP2 SWAP1 PUSH2 0x1B5A DUP5 SLOAD PUSH2 0x24A7 JUMP JUMPDEST PUSH1 0x1F DUP2 GT PUSH2 0x1D52 JUMPI JUMPDEST POP DUP7 SWAP1 PUSH1 0x1F DUP4 GT PUSH1 0x1 EQ PUSH2 0x1CEC JUMPI DUP8 SWAP3 PUSH2 0x1CE1 JUMPI JUMPDEST POP POP DUP2 PUSH1 0x1 SHL SWAP2 PUSH1 0x0 NOT SWAP1 PUSH1 0x3 SHL SHR NOT AND OR SWAP1 SSTORE JUMPDEST PUSH1 0x18 DUP3 ADD SWAP1 PUSH1 0x1 PUSH1 0x1 PUSH1 0x40 SHL SUB DUP2 GT PUSH2 0x1CCD JUMPI PUSH2 0x1BAA DUP3 SLOAD PUSH2 0x24A7 JUMP JUMPDEST PUSH1 0x1F DUP2 GT PUSH2 0x1C88 JUMPI JUMPDEST POP DUP4 PUSH1 0x1F DUP3 GT PUSH1 0x1 EQ PUSH2 0x1C21 JUMPI DUP2 SWAP1 DUP6 SWAP7 PUSH1 0x19 SWAP7 SWAP3 PUSH2 0x1C16 JUMPI JUMPDEST POP POP DUP2 PUSH1 0x1 SHL SWAP2 PUSH1 0x0 NOT SWAP1 PUSH1 0x3 SHL SHR NOT AND OR SWAP1 SSTORE JUMPDEST ADD DUP1 SLOAD PUSH1 0xFF NOT AND PUSH1 0x1 OR SWAP1 SSTORE CALLER PUSH32 0xBE4EC58A792F909E102EE3D745D0C3B34A4D437A54D903C4DB098D31C556422F DUP3 DUP1 LOG2 DUP1 RETURN JUMPDEST ADD CALLDATALOAD SWAP1 POP CODESIZE DUP1 PUSH2 0x1BCD JUMP JUMPDEST DUP3 DUP6 MSTORE PUSH1 0x20 DUP6 KECCAK256 SWAP1 PUSH1 0x1F NOT DUP4 AND DUP7 JUMPDEST DUP2 DUP2 LT PUSH2 0x1C70 JUMPI POP SWAP7 DUP4 SWAP3 SWAP2 PUSH1 0x1 SWAP5 PUSH1 0x19 SWAP9 SWAP10 LT PUSH2 0x1C56 JUMPI JUMPDEST POP POP POP DUP2 SHL ADD SWAP1 SSTORE PUSH2 0x1BE2 JUMP JUMPDEST ADD CALLDATALOAD PUSH1 0x0 NOT PUSH1 0x3 DUP5 SWAP1 SHL PUSH1 0xF8 AND SHR NOT AND SWAP1 SSTORE CODESIZE DUP1 DUP1 PUSH2 0x1C49 JUMP JUMPDEST SWAP2 SWAP3 PUSH1 0x20 PUSH1 0x1 DUP2 SWAP3 DUP7 DUP13 ADD CALLDATALOAD DUP2 SSTORE ADD SWAP5 ADD SWAP3 ADD PUSH2 0x1C30 JUMP JUMPDEST DUP3 DUP6 MSTORE PUSH1 0x20 DUP6 KECCAK256 PUSH1 0x1F DUP4 ADD PUSH1 0x5 SHR DUP2 ADD SWAP2 PUSH1 0x20 DUP5 LT PUSH2 0x1CC3 JUMPI JUMPDEST PUSH1 0x1F ADD PUSH1 0x5 SHR ADD SWAP1 JUMPDEST DUP2 DUP2 LT PUSH2 0x1CB8 JUMPI POP PUSH2 0x1BB3 JUMP JUMPDEST DUP6 DUP2 SSTORE PUSH1 0x1 ADD PUSH2 0x1CAB JUMP JUMPDEST SWAP1 SWAP2 POP DUP2 SWAP1 PUSH2 0x1CA2 JUMP JUMPDEST PUSH4 0x4E487B71 PUSH1 0xE0 SHL DUP5 MSTORE PUSH1 0x41 PUSH1 0x4 MSTORE PUSH1 0x24 DUP5 REVERT JUMPDEST ADD CALLDATALOAD SWAP1 POP CODESIZE DUP1 PUSH2 0x1B78 JUMP JUMPDEST DUP5 DUP9 MSTORE PUSH1 0x20 DUP9 KECCAK256 SWAP3 POP SWAP1 PUSH1 0x1F NOT DUP5 AND DUP9 JUMPDEST DUP2 DUP2 LT PUSH2 0x1D3A JUMPI POP SWAP1 DUP5 PUSH1 0x1 SWAP6 SWAP5 SWAP4 SWAP3 LT PUSH2 0x1D20 JUMPI JUMPDEST POP POP POP DUP2 SHL ADD SWAP1 SSTORE PUSH2 0x1B8D JUMP JUMPDEST ADD CALLDATALOAD PUSH1 0x0 NOT PUSH1 0x3 DUP5 SWAP1 SHL PUSH1 0xF8 AND SHR NOT AND SWAP1 SSTORE CODESIZE DUP1 DUP1 PUSH2 0x1D13 JUMP JUMPDEST SWAP2 SWAP4 PUSH1 0x20 PUSH1 0x1 DUP2 SWAP3 DUP8 DUP8 ADD CALLDATALOAD DUP2 SSTORE ADD SWAP6 ADD SWAP3 ADD PUSH2 0x1CFD JUMP JUMPDEST SWAP1 SWAP2 POP DUP4 DUP8 MSTORE PUSH1 0x20 DUP8 KECCAK256 PUSH1 0x1F DUP5 ADD PUSH1 0x5 SHR DUP2 ADD SWAP2 PUSH1 0x20 DUP6 LT PUSH2 0x1D98 JUMPI JUMPDEST SWAP1 PUSH1 0x1F DUP6 SWAP5 SWAP4 SWAP3 ADD PUSH1 0x5 SHR ADD SWAP1 JUMPDEST DUP2 DUP2 LT PUSH2 0x1D8A JUMPI POP PUSH2 0x1B63 JUMP JUMPDEST DUP9 DUP2 SSTORE DUP5 SWAP4 POP PUSH1 0x1 ADD PUSH2 0x1D7D JUMP JUMPDEST SWAP1 SWAP2 POP DUP2 SWAP1 PUSH2 0x1D6F JUMP JUMPDEST PUSH4 0x4E487B71 PUSH1 0xE0 SHL DUP7 MSTORE PUSH1 0x41 PUSH1 0x4 MSTORE PUSH1 0x24 DUP7 REVERT JUMPDEST ADD CALLDATALOAD SWAP1 POP CODESIZE DUP1 PUSH2 0x1B23 JUMP JUMPDEST PUSH1 0x16 DUP9 ADD DUP10 MSTORE PUSH1 0x20 DUP10 KECCAK256 SWAP3 POP SWAP1 PUSH1 0x1F NOT DUP5 AND DUP10 JUMPDEST DUP2 DUP2 LT PUSH2 0x1E15 JUMPI POP SWAP1 DUP5 PUSH1 0x1 SWAP6 SWAP5 SWAP4 SWAP3 LT PUSH2 0x1DFB JUMPI JUMPDEST POP POP POP DUP2 SHL ADD PUSH1 0x16 DUP6 ADD SSTORE PUSH2 0x1B3B JUMP JUMPDEST ADD CALLDATALOAD PUSH1 0x0 NOT PUSH1 0x3 DUP5 SWAP1 SHL PUSH1 0xF8 AND SHR NOT AND SWAP1 SSTORE CODESIZE DUP1 DUP1 PUSH2 0x1DEB JUMP JUMPDEST SWAP2 SWAP4 PUSH1 0x20 PUSH1 0x1 DUP2 SWAP3 DUP8 DUP8 ADD CALLDATALOAD DUP2 SSTORE ADD SWAP6 ADD SWAP3 ADD PUSH2 0x1DD5 JUMP JUMPDEST SWAP1 SWAP2 POP PUSH1 0x16 DUP8 ADD DUP9 MSTORE PUSH1 0x20 DUP9 KECCAK256 PUSH1 0x1F DUP5 ADD PUSH1 0x5 SHR DUP2 ADD SWAP2 PUSH1 0x20 DUP6 LT PUSH2 0x1E76 JUMPI JUMPDEST SWAP1 PUSH1 0x1F DUP6 SWAP5 SWAP4 SWAP3 ADD PUSH1 0x5 SHR ADD SWAP1 JUMPDEST DUP2 DUP2 LT PUSH2 0x1E68 JUMPI POP PUSH2 0x1B0E JUMP JUMPDEST DUP10 DUP2 SSTORE DUP5 SWAP4 POP PUSH1 0x1 ADD PUSH2 0x1E5B JUMP JUMPDEST SWAP1 SWAP2 POP DUP2 SWAP1 PUSH2 0x1E4D JUMP JUMPDEST PUSH4 0x4E487B71 PUSH1 0xE0 SHL DUP8 MSTORE PUSH1 0x41 PUSH1 0x4 MSTORE PUSH1 0x24 DUP8 REVERT JUMPDEST ADD CALLDATALOAD SWAP1 POP CODESIZE DUP1 PUSH2 0x1AD0 JUMP JUMPDEST PUSH1 0x15 DUP11 ADD DUP12 MSTORE PUSH1 0x20 DUP12 KECCAK256 SWAP3 POP SWAP1 PUSH1 0x1F NOT DUP5 AND DUP12 JUMPDEST DUP2 DUP2 LT PUSH2 0x1EF3 JUMPI POP SWAP1 DUP5 PUSH1 0x1 SWAP6 SWAP5 SWAP4 SWAP3 LT PUSH2 0x1ED9 JUMPI JUMPDEST POP POP POP DUP2 SHL ADD PUSH1 0x15 DUP8 ADD SSTORE PUSH2 0x1AE8 JUMP JUMPDEST ADD CALLDATALOAD PUSH1 0x0 NOT PUSH1 0x3 DUP5 SWAP1 SHL PUSH1 0xF8 AND SHR NOT AND SWAP1 SSTORE CODESIZE DUP1 DUP1 PUSH2 0x1EC9 JUMP JUMPDEST SWAP2 SWAP4 PUSH1 0x20 PUSH1 0x1 DUP2 SWAP3 DUP8 DUP8 ADD CALLDATALOAD DUP2 SSTORE ADD SWAP6 ADD SWAP3 ADD PUSH2 0x1EB3 JUMP JUMPDEST SWAP1 SWAP2 POP PUSH1 0x15 DUP10 ADD DUP11 MSTORE PUSH1 0x20 DUP11 KECCAK256 PUSH1 0x1F DUP5 ADD PUSH1 0x5 SHR DUP2 ADD PUSH1 0x20 DUP6 LT PUSH2 0x1F54 JUMPI JUMPDEST SWAP1 DUP5 SWAP4 SWAP3 SWAP2 JUMPDEST PUSH1 0x1F DUP4 ADD PUSH1 0x5 SHR DUP3 ADD DUP2 LT PUSH2 0x1F46 JUMPI POP POP PUSH2 0x1ABB JUMP JUMPDEST DUP13 DUP2 SSTORE DUP6 SWAP5 POP PUSH1 0x1 ADD PUSH2 0x1F30 JUMP JUMPDEST POP DUP1 PUSH2 0x1F2A JUMP JUMPDEST PUSH4 0x4E487B71 PUSH1 0xE0 SHL DUP10 MSTORE PUSH1 0x41 PUSH1 0x4 MSTORE PUSH1 0x24 DUP10 REVERT JUMPDEST PUSH1 0x40 MLOAD PUSH3 0x461BCD PUSH1 0xE5 SHL DUP2 MSTORE PUSH1 0x20 PUSH1 0x4 DUP3 ADD MSTORE PUSH1 0xE PUSH1 0x24 DUP3 ADD MSTORE PUSH14 0x139BDD081C9959DA5CDD195C9959 PUSH1 0x92 SHL PUSH1 0x44 DUP3 ADD MSTORE PUSH1 0x64 SWAP1 REVERT JUMPDEST DUP7 DUP1 REVERT JUMPDEST DUP5 DUP1 REVERT JUMPDEST DUP3 DUP1 REVERT JUMPDEST POP CALLVALUE PUSH2 0x239 JUMPI DUP1 PUSH1 0x3 NOT CALLDATASIZE ADD SLT PUSH2 0x239 JUMPI PUSH1 0x60 PUSH1 0x5 SLOAD PUSH1 0x6 SLOAD PUSH1 0x7 SLOAD SWAP1 PUSH1 0x40 MLOAD SWAP3 DUP4 MSTORE PUSH1 0x20 DUP4 ADD MSTORE PUSH1 0x40 DUP3 ADD MSTORE RETURN JUMPDEST POP CALLVALUE PUSH2 0x239 JUMPI DUP1 PUSH1 0x3 NOT CALLDATASIZE ADD SLT PUSH2 0x239 JUMPI PUSH1 0x20 PUSH1 0x3 SLOAD PUSH1 0x40 MLOAD SWAP1 DUP2 MSTORE RETURN JUMPDEST POP CALLVALUE PUSH2 0x239 JUMPI PUSH2 0x2026 PUSH2 0x2010 CALLDATASIZE PUSH2 0x2417 JUMP JUMPDEST SWAP1 PUSH2 0x2019 PUSH2 0x25BD JUMP JUMPDEST PUSH2 0x2021 PUSH2 0x26C4 JUMP JUMPDEST PUSH2 0x310D JUMP JUMPDEST PUSH1 0x1 PUSH1 0x0 DUP1 MLOAD PUSH1 0x20 PUSH2 0x346C DUP4 CODECOPY DUP2 MLOAD SWAP2 MSTORE SSTORE DUP1 RETURN JUMPDEST POP CALLVALUE PUSH2 0x239 JUMPI PUSH1 0x40 CALLDATASIZE PUSH1 0x3 NOT ADD SLT PUSH2 0x239 JUMPI PUSH2 0x2055 PUSH2 0x23C1 JUMP JUMPDEST PUSH1 0x24 CALLDATALOAD SWAP1 PUSH2 0x2061 PUSH2 0x25BD JUMP JUMPDEST PUSH1 0x1 PUSH1 0x1 PUSH1 0xA0 SHL SUB AND SWAP1 DUP2 ISZERO PUSH2 0x3A2 JUMPI PUSH1 0x7 SLOAD DUP2 DUP2 LT PUSH2 0x20C5 JUMPI DUP2 PUSH2 0x20A9 PUSH32 0xBA443E8671971C36CDEB74F87321041DAFF421230CBC5E36CB835269ED1D8B7E SWAP4 PUSH1 0x20 SWAP4 PUSH2 0x2742 JUMP JUMPDEST PUSH1 0x7 SSTORE DUP4 DUP6 MSTORE PUSH1 0x2 DUP3 MSTORE PUSH1 0x8 PUSH1 0x40 DUP7 KECCAK256 ADD PUSH2 0x33F DUP3 DUP3 SLOAD PUSH2 0x274F JUMP JUMPDEST PUSH1 0x40 MLOAD PUSH3 0x461BCD PUSH1 0xE5 SHL DUP2 MSTORE PUSH1 0x20 PUSH1 0x4 DUP3 ADD MSTORE PUSH1 0x12 PUSH1 0x24 DUP3 ADD MSTORE PUSH18 0x115E18D959591CC818591B5A5B881C1BDBDB PUSH1 0x72 SHL PUSH1 0x44 DUP3 ADD MSTORE PUSH1 0x64 SWAP1 REVERT JUMPDEST POP CALLVALUE PUSH2 0x239 JUMPI DUP1 PUSH1 0x3 NOT CALLDATASIZE ADD SLT PUSH2 0x239 JUMPI PUSH1 0x1 SLOAD PUSH1 0x40 MLOAD PUSH1 0x1 PUSH1 0x1 PUSH1 0xA0 SHL SUB SWAP1 SWAP2 AND DUP2 MSTORE PUSH1 0x20 SWAP1 RETURN JUMPDEST POP CALLVALUE PUSH2 0x239 JUMPI PUSH1 0x20 CALLDATASIZE PUSH1 0x3 NOT ADD SLT PUSH2 0x239 JUMPI PUSH2 0x2142 PUSH2 0x23C1 JUMP JUMPDEST PUSH2 0x214A PUSH2 0x25BD JUMP JUMPDEST PUSH1 0x1 PUSH1 0x1 PUSH1 0xA0 SHL SUB AND DUP1 ISZERO PUSH2 0x3A2 JUMPI PUSH1 0x1 DUP1 SLOAD PUSH1 0x1 PUSH1 0x1 PUSH1 0xA0 SHL SUB NOT AND DUP3 OR SWAP1 SSTORE PUSH1 0x40 MLOAD SWAP1 DUP2 MSTORE PUSH32 0xFA7BD61554593F4E69CDFFD255D3FE947352B02C7D3EC68059384934E4CFD47C SWAP1 PUSH1 0x20 SWAP1 LOG1 DUP1 RETURN JUMPDEST POP CALLVALUE PUSH2 0x239 JUMPI PUSH1 0x20 CALLDATASIZE PUSH1 0x3 NOT ADD SLT PUSH2 0x239 JUMPI PUSH2 0x2224 SWAP1 PUSH1 0x40 SWAP1 PUSH1 0x1 PUSH1 0x1 PUSH1 0xA0 SHL SUB PUSH2 0x21C3 PUSH2 0x23C1 JUMP JUMPDEST AND DUP2 MSTORE PUSH1 0x2 PUSH1 0x20 MSTORE KECCAK256 PUSH1 0xFF PUSH1 0x19 DUP3 ADD SLOAD AND PUSH2 0x224E PUSH2 0x21E3 PUSH1 0x15 DUP5 ADD PUSH2 0x2517 JUMP JUMPDEST SWAP3 PUSH2 0x2240 PUSH2 0x21F3 PUSH1 0x16 DUP4 ADD PUSH2 0x2517 JUMP JUMPDEST SWAP2 PUSH2 0x2232 PUSH2 0x220F PUSH1 0x18 PUSH2 0x2208 PUSH1 0x17 DUP6 ADD PUSH2 0x2517 JUMP JUMPDEST SWAP4 ADD PUSH2 0x2517 JUMP JUMPDEST SWAP4 PUSH1 0x40 MLOAD SWAP9 DUP10 SWAP9 PUSH1 0xA0 DUP11 MSTORE PUSH1 0xA0 DUP11 ADD SWAP1 PUSH2 0x23D7 JUMP JUMPDEST SWAP1 DUP9 DUP3 SUB PUSH1 0x20 DUP11 ADD MSTORE PUSH2 0x23D7 JUMP JUMPDEST SWAP1 DUP7 DUP3 SUB PUSH1 0x40 DUP9 ADD MSTORE PUSH2 0x23D7 JUMP JUMPDEST SWAP1 DUP5 DUP3 SUB PUSH1 0x60 DUP7 ADD MSTORE PUSH2 0x23D7 JUMP JUMPDEST SWAP1 ISZERO ISZERO PUSH1 0x80 DUP4 ADD MSTORE SUB SWAP1 RETURN JUMPDEST POP CALLVALUE PUSH2 0x239 JUMPI DUP1 PUSH1 0x3 NOT CALLDATASIZE ADD SLT PUSH2 0x239 JUMPI PUSH2 0x2273 PUSH2 0x26C4 JUMP JUMPDEST CALLER DUP2 MSTORE PUSH1 0x2 PUSH1 0x20 MSTORE PUSH1 0x40 DUP2 KECCAK256 SLOAD PUSH1 0xFF DUP2 AND ISZERO PUSH2 0x19CC JUMPI PUSH1 0x8 SHR PUSH1 0xFF AND PUSH2 0x2329 JUMPI PUSH1 0x40 MLOAD PUSH4 0x23B872DD PUSH1 0xE0 SHL DUP2 MSTORE CALLER PUSH1 0x4 DUP3 ADD MSTORE ADDRESS PUSH1 0x24 DUP3 ADD MSTORE PUSH9 0x70C1CC73B00C80000 PUSH1 0x44 DUP3 ADD MSTORE PUSH1 0x20 DUP2 PUSH1 0x64 DUP2 DUP6 PUSH32 0x0 PUSH1 0x1 PUSH1 0x1 PUSH1 0xA0 SHL SUB AND GAS CALL SWAP1 DUP2 ISZERO PUSH2 0x14EF JUMPI DUP3 SWAP2 PUSH2 0x230B JUMPI JUMPDEST POP ISZERO PUSH2 0x4EB JUMPI PUSH2 0x2026 CALLER PUSH2 0x2780 JUMP JUMPDEST PUSH2 0x2323 SWAP2 POP PUSH1 0x20 RETURNDATASIZE DUP2 GT PUSH2 0x523 JUMPI PUSH2 0x515 DUP2 DUP4 PUSH2 0x24F4 JUMP JUMPDEST CODESIZE PUSH2 0x22FC JUMP JUMPDEST PUSH1 0x40 MLOAD PUSH4 0x7CDF3051 PUSH1 0xE1 SHL DUP2 MSTORE PUSH1 0x4 SWAP1 REVERT JUMPDEST POP CALLVALUE PUSH2 0x239 JUMPI PUSH1 0x20 CALLDATASIZE PUSH1 0x3 NOT ADD SLT PUSH2 0x239 JUMPI PUSH1 0x40 SWAP1 DUP2 SWAP1 PUSH1 0x1 PUSH1 0x1 PUSH1 0xA0 SHL SUB PUSH2 0x2362 PUSH2 0x23C1 JUMP JUMPDEST AND DUP2 MSTORE PUSH1 0x2 PUSH1 0x20 MSTORE KECCAK256 PUSH1 0x10 PUSH1 0xF DUP3 ADD SLOAD SWAP2 ADD SLOAD DUP3 MLOAD SWAP2 DUP3 MSTORE PUSH1 0x20 DUP3 ADD MSTORE RETURN JUMPDEST POP CALLVALUE PUSH2 0x239 JUMPI DUP1 PUSH1 0x3 NOT CALLDATASIZE ADD SLT PUSH2 0x239 JUMPI PUSH1 0x20 PUSH1 0x40 MLOAD PUSH9 0x70C1CC73B00C80000 DUP2 MSTORE RETURN JUMPDEST SWAP1 POP CALLVALUE PUSH2 0x559 JUMPI DUP2 PUSH1 0x3 NOT CALLDATASIZE ADD SLT PUSH2 0x559 JUMPI PUSH1 0x20 SWAP1 PUSH1 0x6 SLOAD DUP2 MSTORE RETURN JUMPDEST PUSH1 0x4 CALLDATALOAD SWAP1 PUSH1 0x1 PUSH1 0x1 PUSH1 0xA0 SHL SUB DUP3 AND DUP3 SUB PUSH2 0x5DD JUMPI JUMP JUMPDEST SWAP2 SWAP1 DUP3 MLOAD SWAP3 DUP4 DUP3 MSTORE PUSH1 0x0 JUMPDEST DUP5 DUP2 LT PUSH2 0x2403 JUMPI POP POP DUP3 PUSH1 0x0 PUSH1 0x20 DUP1 SWAP5 SWAP6 DUP5 ADD ADD MSTORE PUSH1 0x1F DUP1 NOT SWAP2 ADD AND ADD ADD SWAP1 JUMP JUMPDEST PUSH1 0x20 DUP2 DUP4 ADD DUP2 ADD MLOAD DUP5 DUP4 ADD DUP3 ADD MSTORE ADD PUSH2 0x23E2 JUMP JUMPDEST PUSH1 0x40 SWAP1 PUSH1 0x3 NOT ADD SLT PUSH2 0x5DD JUMPI PUSH1 0x4 CALLDATALOAD SWAP1 PUSH1 0x24 CALLDATALOAD SWAP1 JUMP JUMPDEST CALLVALUE PUSH2 0x5DD JUMPI PUSH1 0x0 CALLDATASIZE PUSH1 0x3 NOT ADD SLT PUSH2 0x5DD JUMPI PUSH1 0x20 PUSH1 0x40 MLOAD PUSH1 0x1E DUP2 MSTORE RETURN JUMPDEST SWAP2 DUP2 PUSH1 0x1F DUP5 ADD SLT ISZERO PUSH2 0x5DD JUMPI DUP3 CALLDATALOAD SWAP2 PUSH1 0x1 PUSH1 0x1 PUSH1 0x40 SHL SUB DUP4 GT PUSH2 0x5DD JUMPI PUSH1 0x20 DUP4 DUP2 DUP7 ADD SWAP6 ADD ADD GT PUSH2 0x5DD JUMPI JUMP JUMPDEST PUSH1 0x3 SLOAD DUP2 LT ISZERO PUSH2 0x2491 JUMPI PUSH1 0x3 PUSH1 0x0 MSTORE PUSH1 0x20 PUSH1 0x0 KECCAK256 ADD SWAP1 PUSH1 0x0 SWAP1 JUMP JUMPDEST PUSH4 0x4E487B71 PUSH1 0xE0 SHL PUSH1 0x0 MSTORE PUSH1 0x32 PUSH1 0x4 MSTORE PUSH1 0x24 PUSH1 0x0 REVERT JUMPDEST SWAP1 PUSH1 0x1 DUP3 DUP2 SHR SWAP3 AND DUP1 ISZERO PUSH2 0x24D7 JUMPI JUMPDEST PUSH1 0x20 DUP4 LT EQ PUSH2 0x24C1 JUMPI JUMP JUMPDEST PUSH4 0x4E487B71 PUSH1 0xE0 SHL PUSH1 0x0 MSTORE PUSH1 0x22 PUSH1 0x4 MSTORE PUSH1 0x24 PUSH1 0x0 REVERT JUMPDEST SWAP2 PUSH1 0x7F AND SWAP2 PUSH2 0x24B6 JUMP JUMPDEST PUSH1 0x1 PUSH1 0x1 PUSH1 0x40 SHL SUB DUP2 GT PUSH2 0x8A6 JUMPI PUSH1 0x40 MSTORE JUMP JUMPDEST PUSH1 0x1F SWAP1 SWAP2 ADD PUSH1 0x1F NOT AND DUP2 ADD SWAP1 PUSH1 0x1 PUSH1 0x1 PUSH1 0x40 SHL SUB DUP3 GT SWAP1 DUP3 LT OR PUSH2 0x8A6 JUMPI PUSH1 0x40 MSTORE JUMP JUMPDEST SWAP1 PUSH1 0x40 MLOAD SWAP2 DUP3 PUSH1 0x0 DUP3 SLOAD SWAP3 PUSH2 0x252B DUP5 PUSH2 0x24A7 JUMP JUMPDEST SWAP1 DUP2 DUP5 MSTORE PUSH1 0x1 SWAP5 DUP6 DUP2 AND SWAP1 DUP2 PUSH1 0x0 EQ PUSH2 0x259A JUMPI POP PUSH1 0x1 EQ PUSH2 0x2557 JUMPI JUMPDEST POP POP PUSH2 0x2555 SWAP3 POP SUB DUP4 PUSH2 0x24F4 JUMP JUMPDEST JUMP JUMPDEST SWAP1 SWAP4 SWAP2 POP PUSH1 0x0 MSTORE PUSH1 0x20 SWAP1 DUP2 PUSH1 0x0 KECCAK256 SWAP4 PUSH1 0x0 SWAP2 JUMPDEST DUP2 DUP4 LT PUSH2 0x2582 JUMPI POP POP PUSH2 0x2555 SWAP4 POP DUP3 ADD ADD CODESIZE DUP1 PUSH2 0x2547 JUMP JUMPDEST DUP6 SLOAD DUP9 DUP5 ADD DUP6 ADD MSTORE SWAP5 DUP6 ADD SWAP5 DUP8 SWAP5 POP SWAP2 DUP4 ADD SWAP2 PUSH2 0x256A JUMP JUMPDEST SWAP2 POP POP PUSH2 0x2555 SWAP5 POP PUSH1 0x20 SWAP3 POP PUSH1 0xFF NOT AND DUP3 DUP5 ADD MSTORE ISZERO ISZERO PUSH1 0x5 SHL DUP3 ADD ADD CODESIZE DUP1 PUSH2 0x2547 JUMP JUMPDEST PUSH1 0x0 SLOAD PUSH1 0x1 PUSH1 0x1 PUSH1 0xA0 SHL SUB AND CALLER SUB PUSH2 0x25D1 JUMPI JUMP JUMPDEST PUSH1 0x40 MLOAD PUSH4 0x118CDAA7 PUSH1 0xE0 SHL DUP2 MSTORE CALLER PUSH1 0x4 DUP3 ADD MSTORE PUSH1 0x24 SWAP1 REVERT JUMPDEST PUSH1 0x0 NOT DUP2 EQ PUSH2 0x25F8 JUMPI PUSH1 0x1 ADD SWAP1 JUMP JUMPDEST PUSH4 0x4E487B71 PUSH1 0xE0 SHL PUSH1 0x0 MSTORE PUSH1 0x11 PUSH1 0x4 MSTORE PUSH1 0x24 PUSH1 0x0 REVERT JUMPDEST PUSH1 0x1 PUSH1 0x1 PUSH1 0xA0 SHL SUB SWAP1 DUP2 AND PUSH1 0x0 SWAP1 DUP2 MSTORE PUSH1 0x2 PUSH1 0x20 DUP2 DUP2 MSTORE PUSH1 0x40 DUP1 DUP5 KECCAK256 DUP4 ADD SLOAD SWAP5 SWAP6 PUSH1 0xA0 SWAP6 PUSH1 0xFF SWAP6 SWAP3 SWAP4 SWAP2 SWAP1 DUP1 DUP9 SHR DUP8 AND SWAP1 DUP10 SWAP1 DUP2 AND JUMPDEST AND SWAP1 DUP2 ISZERO PUSH2 0x26A0 JUMPI ISZERO PUSH2 0x2683 JUMPI DUP1 DUP5 MSTORE DUP6 DUP4 MSTORE PUSH1 0x5 DUP6 DUP6 KECCAK256 ADD PUSH2 0x2667 DUP2 SLOAD PUSH2 0x25E9 JUMP JUMPDEST SWAP1 SSTORE JUMPDEST DUP4 MSTORE DUP5 DUP3 MSTORE DUP5 DUP5 DUP5 KECCAK256 ADD SLOAD DUP9 DUP1 DUP9 DUP4 DUP12 SHR AND SWAP3 AND PUSH2 0x2644 JUMP JUMPDEST DUP1 DUP5 MSTORE DUP6 DUP4 MSTORE PUSH1 0x6 DUP6 DUP6 KECCAK256 ADD PUSH2 0x2699 DUP2 SLOAD PUSH2 0x25E9 JUMP JUMPDEST SWAP1 SSTORE PUSH2 0x266A JUMP JUMPDEST POP POP SWAP7 POP POP POP POP POP POP POP JUMP JUMPDEST SWAP1 DUP2 PUSH1 0x20 SWAP2 SUB SLT PUSH2 0x5DD JUMPI MLOAD DUP1 ISZERO ISZERO DUP2 SUB PUSH2 0x5DD JUMPI SWAP1 JUMP JUMPDEST PUSH1 0x0 DUP1 MLOAD PUSH1 0x20 PUSH2 0x346C DUP4 CODECOPY DUP2 MLOAD SWAP2 MSTORE PUSH1 0x2 DUP2 SLOAD EQ PUSH2 0x26E2 JUMPI PUSH1 0x2 SWAP1 SSTORE JUMP JUMPDEST PUSH1 0x40 MLOAD PUSH4 0x3EE5AEB5 PUSH1 0xE0 SHL DUP2 MSTORE PUSH1 0x4 SWAP1 REVERT JUMPDEST DUP2 DUP2 MUL SWAP3 SWAP2 DUP2 ISZERO SWAP2 DUP5 DIV EQ OR ISZERO PUSH2 0x25F8 JUMPI JUMP JUMPDEST DUP2 ISZERO PUSH2 0x2711 JUMPI DIV SWAP1 JUMP JUMPDEST PUSH4 0x4E487B71 PUSH1 0xE0 SHL PUSH1 0x0 MSTORE PUSH1 0x12 PUSH1 0x4 MSTORE PUSH1 0x24 PUSH1 0x0 REVERT JUMPDEST PUSH1 0x1 PUSH1 0x1 PUSH1 0xA0 SHL SUB SWAP1 SWAP2 AND DUP2 MSTORE PUSH1 0x20 DUP2 ADD SWAP2 SWAP1 SWAP2 MSTORE PUSH1 0x40 ADD SWAP1 JUMP JUMPDEST SWAP2 SWAP1 DUP3 SUB SWAP2 DUP3 GT PUSH2 0x25F8 JUMPI JUMP JUMPDEST SWAP2 SWAP1 DUP3 ADD DUP1 SWAP3 GT PUSH2 0x25F8 JUMPI JUMP JUMPDEST SWAP2 SWAP3 PUSH1 0x80 SWAP4 SWAP7 SWAP6 SWAP5 SWAP2 SWAP7 PUSH1 0xA0 DUP5 ADD SWAP8 DUP5 MSTORE PUSH1 0x20 DUP5 ADD MSTORE PUSH1 0x40 DUP4 ADD MSTORE PUSH1 0x60 DUP3 ADD MSTORE ADD MSTORE JUMP JUMPDEST PUSH1 0x1 SLOAD PUSH1 0x40 MLOAD PUSH3 0x3144BD PUSH1 0xE3 SHL DUP2 MSTORE PUSH1 0x0 SWAP4 SWAP1 SWAP3 SWAP1 SWAP2 PUSH1 0x1 PUSH1 0x1 PUSH1 0xA0 SHL SUB AND PUSH1 0x20 DUP5 PUSH1 0x4 DUP2 DUP5 GAS STATICCALL SWAP4 DUP5 ISZERO PUSH2 0x2D03 JUMPI DUP6 SWAP5 PUSH2 0x2CCF JUMPI JUMPDEST POP DUP4 ISZERO PUSH2 0x2CBB JUMPI PUSH1 0x40 MLOAD PUSH4 0x95EA7B3 PUSH1 0xE0 SHL DUP2 MSTORE PUSH1 0x4 DUP2 ADD SWAP2 SWAP1 SWAP2 MSTORE PUSH9 0x70C1CC73B00C80000 PUSH1 0x24 DUP3 ADD DUP2 SWAP1 MSTORE SWAP1 PUSH1 0x20 DUP2 PUSH1 0x44 DUP2 DUP10 PUSH32 0x0 PUSH1 0x1 PUSH1 0x1 PUSH1 0xA0 SHL SUB AND GAS CALL DUP1 ISZERO PUSH2 0x1962 JUMPI PUSH2 0x2C9C JUMPI JUMPDEST POP PUSH1 0x1 SLOAD PUSH1 0x40 MLOAD PUSH4 0x70A08231 PUSH1 0xE0 SHL DUP1 DUP3 MSTORE ADDRESS PUSH1 0x4 DUP4 ADD MSTORE SWAP3 SWAP1 SWAP2 DUP8 SWAP2 SWAP1 PUSH1 0x1 PUSH1 0x1 PUSH1 0xA0 SHL SUB AND PUSH1 0x20 DUP5 PUSH1 0x24 DUP2 DUP5 GAS STATICCALL SWAP4 DUP5 ISZERO PUSH2 0x2C91 JUMPI DUP4 SWAP5 PUSH2 0x2C5D JUMPI JUMPDEST POP DUP1 EXTCODESIZE ISZERO PUSH2 0x1FAD JUMPI PUSH1 0x44 DUP4 SWAP3 PUSH1 0x40 MLOAD SWAP5 DUP6 SWAP4 DUP5 SWAP3 PUSH4 0x4E538D93 PUSH1 0xE1 SHL DUP5 MSTORE ADDRESS PUSH1 0x4 DUP6 ADD MSTORE PUSH1 0x24 DUP5 ADD MSTORE GAS CALL DUP1 ISZERO PUSH2 0x2C52 JUMPI PUSH2 0x2C3F JUMPI JUMPDEST POP PUSH1 0x1 SLOAD PUSH1 0x40 MLOAD SWAP3 DUP4 MSTORE ADDRESS PUSH1 0x4 DUP5 ADD MSTORE PUSH1 0x20 SWAP1 DUP4 SWAP1 PUSH1 0x24 SWAP1 DUP3 SWAP1 PUSH1 0x1 PUSH1 0x1 PUSH1 0xA0 SHL SUB AND GAS STATICCALL DUP1 ISZERO PUSH2 0x1962 JUMPI DUP7 SWAP1 PUSH2 0x2C0B JUMPI JUMPDEST PUSH2 0x28D2 SWAP3 POP PUSH2 0x2742 JUMP JUMPDEST SWAP3 PUSH1 0x1E PUSH12 0x30E68B6D6E0ACC828633631 PUSH1 0x25 SHL DUP3 SWAP1 DIV DUP2 DUP2 MUL SWAP3 SWAP2 DUP2 DUP5 DIV EQ SWAP1 ISZERO OR ISZERO PUSH2 0x191F JUMPI PUSH2 0x294C PUSH2 0x2944 PUSH2 0x2929 PUSH1 0x64 DUP6 DIV PUSH2 0x2924 DUP2 DUP2 DUP2 PUSH12 0x30E68B6D6E0ACC828633631 PUSH1 0x25 SHL DUP10 SWAP1 DIV PUSH2 0x2742 JUMP JUMPDEST PUSH2 0x2742 JUMP JUMPDEST PUSH2 0x2938 PUSH1 0x64 DUP7 DIV PUSH1 0x5 SLOAD PUSH2 0x274F JUMP JUMPDEST PUSH1 0x5 SSTORE PUSH1 0x64 DUP6 DIV PUSH2 0x274F JUMP JUMPDEST PUSH1 0x7 SLOAD PUSH2 0x274F JUMP JUMPDEST PUSH1 0x7 SSTORE PUSH1 0x1 PUSH1 0x1 PUSH1 0xA0 SHL SUB DUP4 DUP2 AND DUP8 MSTORE PUSH1 0x2 PUSH1 0x20 MSTORE PUSH1 0x40 DUP8 KECCAK256 DUP1 SLOAD PUSH2 0xFF00 NOT AND PUSH2 0x100 OR DUP1 DUP3 SSTORE PUSH9 0x15245655B102580000 PUSH1 0xB SWAP1 SWAP3 ADD SWAP2 SWAP1 SWAP2 SSTORE PUSH1 0x1 SWAP6 DUP9 SWAP5 SWAP1 SWAP3 SWAP1 SWAP2 PUSH1 0x10 SHR AND JUMPDEST PUSH1 0xA PUSH1 0xFF DUP9 AND GT ISZERO DUP1 PUSH2 0x2BF9 JUMPI JUMPDEST ISZERO PUSH2 0x2B69 JUMPI PUSH2 0x29C3 DUP8 PUSH12 0x30E68B6D6E0ACC828633631 PUSH1 0x25 SHL DUP7 SWAP1 DIV PUSH2 0x2D23 JUMP JUMPDEST SWAP5 DUP6 ISZERO PUSH2 0x2B43 JUMPI DUP6 PUSH2 0x29D4 SWAP2 PUSH2 0x274F JUMP JUMPDEST PUSH1 0x1 PUSH1 0x1 PUSH1 0xA0 SHL SUB DUP3 AND DUP11 MSTORE PUSH1 0x2 PUSH1 0x20 MSTORE PUSH1 0x40 DUP11 KECCAK256 DUP1 SLOAD SWAP2 SWAP7 SWAP2 PUSH1 0x8 SHR PUSH1 0xFF AND SWAP1 DUP2 PUSH2 0x2B2C JUMPI JUMPDEST POP ISZERO PUSH2 0x2ADC JUMPI PUSH1 0x1 PUSH1 0x1 PUSH1 0xA0 SHL SUB DUP3 AND DUP11 MSTORE PUSH1 0x2 PUSH1 0x20 MSTORE PUSH1 0x40 DUP11 KECCAK256 PUSH1 0x8 ADD DUP1 SLOAD PUSH2 0x2A26 SWAP1 DUP4 SWAP1 PUSH2 0x274F JUMP JUMPDEST SWAP1 SSTORE PUSH1 0x1 PUSH1 0x1 PUSH1 0xA0 SHL SUB DUP3 AND DUP11 MSTORE PUSH1 0x2 PUSH1 0x20 MSTORE PUSH1 0x40 DUP11 KECCAK256 PUSH1 0x9 ADD DUP1 SLOAD PUSH2 0x2A4D SWAP1 DUP4 SWAP1 PUSH2 0x274F JUMP JUMPDEST SWAP1 SSTORE PUSH1 0x40 MLOAD PUSH1 0x1 PUSH1 0x1 PUSH1 0xA0 SHL SUB DUP9 DUP2 AND SWAP3 SWAP1 DUP5 AND SWAP2 PUSH32 0xB16479BDAC5B7099D9236D6FC6BE3B30FF54188F4FD961686E1E1DC7ECB88037 SWAP2 DUP2 SWAP1 PUSH2 0x2A91 SWAP1 DUP14 DUP4 PUSH2 0x2D0E JUMP JUMPDEST SUB SWAP1 LOG3 JUMPDEST PUSH1 0x1 PUSH1 0x1 PUSH1 0xA0 SHL SUB SWAP1 DUP2 AND DUP10 MSTORE PUSH1 0x2 PUSH1 0x20 MSTORE PUSH1 0x40 DUP10 KECCAK256 SLOAD PUSH1 0x10 SHR AND SWAP6 JUMPDEST PUSH1 0xFF SWAP1 DUP2 DUP1 DUP3 AND EQ PUSH2 0x2AC8 JUMPI AND PUSH1 0x1 ADD SWAP6 PUSH2 0x2994 JUMP JUMPDEST PUSH4 0x4E487B71 PUSH1 0xE0 SHL DUP11 MSTORE PUSH1 0x11 PUSH1 0x4 MSTORE PUSH1 0x24 DUP11 REVERT JUMPDEST PUSH2 0x2AE8 DUP2 PUSH1 0x7 SLOAD PUSH2 0x274F JUMP JUMPDEST PUSH1 0x7 SSTORE PUSH32 0x117CA0CD821ECB7EADFEA2D6927A67853908BDC351A386235215F5AB6071BFED PUSH1 0x40 MLOAD DUP1 PUSH2 0x2B24 PUSH1 0x1 DUP1 PUSH1 0xA0 SHL SUB DUP7 AND SWAP5 DUP13 DUP4 PUSH2 0x2D0E JUMP JUMPDEST SUB SWAP1 LOG2 PUSH2 0x2A95 JUMP JUMPDEST PUSH1 0x1 SWAP2 POP ADD SLOAD PUSH2 0x2B3B DUP10 PUSH2 0x2E6F JUMP JUMPDEST GT ISZERO CODESIZE PUSH2 0x29FB JUMP JUMPDEST PUSH1 0x1 PUSH1 0x1 PUSH1 0xA0 SHL SUB SWAP2 DUP3 AND DUP11 MSTORE PUSH1 0x2 PUSH1 0x20 MSTORE PUSH1 0x40 DUP11 KECCAK256 SLOAD PUSH1 0x10 SHR SWAP1 SWAP2 AND SWAP7 SWAP1 SWAP5 POP PUSH2 0x2AB2 JUMP JUMPDEST POP SWAP4 SWAP3 PUSH2 0x2BDB SWAP3 SWAP7 SWAP2 SWAP8 POP PUSH32 0x8AF2C013A5A55C6D3AD5423522FE76C6F2EB831B5E23318276B3C678CB457FC9 SWAP6 POP DUP1 PUSH1 0x64 DUP7 DIV GT PUSH2 0x2BE0 JUMPI JUMPDEST POP PUSH1 0x40 MLOAD PUSH1 0x1 PUSH1 0x1 PUSH1 0xA0 SHL SUB SWAP1 SWAP4 AND SWAP6 SWAP3 SWAP4 DUP5 SWAP4 PUSH1 0x64 SWAP1 SWAP2 DIV SWAP2 DUP3 SWAP2 DUP3 SWAP2 PUSH12 0x30E68B6D6E0ACC828633631 PUSH1 0x25 SHL SWAP2 SWAP1 SWAP2 DIV SWAP1 DUP7 PUSH2 0x275C JUMP JUMPDEST SUB SWAP1 LOG2 JUMP JUMPDEST PUSH2 0x2944 PUSH2 0x2BF0 SWAP2 PUSH1 0x64 DUP8 DIV PUSH2 0x2742 JUMP JUMPDEST PUSH1 0x7 SSTORE CODESIZE PUSH2 0x2BA2 JUMP JUMPDEST POP PUSH1 0x1 PUSH1 0x1 PUSH1 0xA0 SHL SUB DUP2 AND ISZERO ISZERO PUSH2 0x29A2 JUMP JUMPDEST POP PUSH1 0x20 DUP3 RETURNDATASIZE PUSH1 0x20 GT PUSH2 0x2C37 JUMPI JUMPDEST DUP2 PUSH2 0x2C25 PUSH1 0x20 SWAP4 DUP4 PUSH2 0x24F4 JUMP JUMPDEST DUP2 ADD SUB SLT PUSH2 0x5DD JUMPI PUSH2 0x28D2 SWAP2 MLOAD PUSH2 0x28C8 JUMP JUMPDEST RETURNDATASIZE SWAP2 POP PUSH2 0x2C18 JUMP JUMPDEST PUSH2 0x2C4B SWAP1 SWAP7 SWAP2 SWAP7 PUSH2 0x24E1 JUMP JUMPDEST SWAP5 CODESIZE PUSH2 0x2896 JUMP JUMPDEST PUSH1 0x40 MLOAD RETURNDATASIZE DUP10 DUP3 RETURNDATACOPY RETURNDATASIZE SWAP1 REVERT JUMPDEST SWAP1 SWAP4 POP PUSH1 0x20 DUP2 RETURNDATASIZE PUSH1 0x20 GT PUSH2 0x2C89 JUMPI JUMPDEST DUP2 PUSH2 0x2C79 PUSH1 0x20 SWAP4 DUP4 PUSH2 0x24F4 JUMP JUMPDEST DUP2 ADD SUB SLT PUSH2 0x1FAD JUMPI MLOAD SWAP3 CODESIZE PUSH2 0x2860 JUMP JUMPDEST RETURNDATASIZE SWAP2 POP PUSH2 0x2C6C JUMP JUMPDEST PUSH1 0x40 MLOAD RETURNDATASIZE DUP6 DUP3 RETURNDATACOPY RETURNDATASIZE SWAP1 REVERT JUMPDEST PUSH2 0x2CB4 SWAP1 PUSH1 0x20 RETURNDATASIZE PUSH1 0x20 GT PUSH2 0x523 JUMPI PUSH2 0x515 DUP2 DUP4 PUSH2 0x24F4 JUMP JUMPDEST POP CODESIZE PUSH2 0x2822 JUMP JUMPDEST PUSH4 0x4E487B71 PUSH1 0xE0 SHL DUP6 MSTORE PUSH1 0x12 PUSH1 0x4 MSTORE PUSH1 0x24 DUP6 REVERT JUMPDEST SWAP1 SWAP4 POP PUSH1 0x20 DUP2 RETURNDATASIZE PUSH1 0x20 GT PUSH2 0x2CFB JUMPI JUMPDEST DUP2 PUSH2 0x2CEB PUSH1 0x20 SWAP4 DUP4 PUSH2 0x24F4 JUMP JUMPDEST DUP2 ADD SUB SLT PUSH2 0x1FA9 JUMPI MLOAD SWAP3 CODESIZE PUSH2 0x27B6 JUMP JUMPDEST RETURNDATASIZE SWAP2 POP PUSH2 0x2CDE JUMP JUMPDEST PUSH1 0x40 MLOAD RETURNDATASIZE DUP8 DUP3 RETURNDATACOPY RETURNDATASIZE SWAP1 REVERT JUMPDEST PUSH1 0x20 SWAP1 SWAP4 SWAP3 SWAP2 SWAP4 PUSH1 0xFF PUSH1 0x40 DUP3 ADD SWAP6 AND DUP2 MSTORE ADD MSTORE JUMP JUMPDEST SWAP1 PUSH1 0xFF AND PUSH1 0x1 DUP2 EQ PUSH2 0x2E54 JUMPI PUSH1 0x2 DUP2 EQ PUSH2 0x2E39 JUMPI PUSH1 0x3 DUP2 EQ PUSH2 0x2E1E JUMPI PUSH1 0x4 SWAP1 DUP2 DUP2 EQ PUSH2 0x2E07 JUMPI PUSH1 0x5 DUP2 EQ PUSH2 0x2DEA JUMPI PUSH1 0x6 DUP2 EQ PUSH2 0x2DEA JUMPI PUSH1 0x7 DUP2 EQ PUSH2 0x2DCD JUMPI PUSH1 0x8 DUP2 EQ PUSH2 0x2DCD JUMPI PUSH1 0x9 DUP2 EQ PUSH2 0x2DB0 JUMPI PUSH1 0xA EQ PUSH2 0x2D7F JUMPI POP POP PUSH1 0x0 SWAP1 JUMP JUMPDEST DUP2 PUSH1 0x1 SHL SWAP2 DUP1 DUP4 DIV PUSH1 0x2 EQ SWAP1 ISZERO OR ISZERO PUSH2 0x2D9B JUMPI POP PUSH2 0x3E8 SWAP1 DIV SWAP1 JUMP JUMPDEST PUSH1 0x11 SWAP1 PUSH4 0x4E487B71 PUSH1 0xE0 SHL PUSH1 0x0 MSTORE MSTORE PUSH1 0x24 PUSH1 0x0 REVERT JUMPDEST POP DUP2 PUSH1 0x1 SHL SWAP2 DUP1 DUP4 DIV PUSH1 0x2 EQ SWAP1 ISZERO OR ISZERO PUSH2 0x2D9B JUMPI POP PUSH2 0x3E8 SWAP1 DIV SWAP1 JUMP JUMPDEST POP PUSH1 0x3 DUP3 MUL SWAP2 DUP1 DUP4 DIV PUSH1 0x3 EQ SWAP1 ISZERO OR ISZERO PUSH2 0x2D9B JUMPI POP PUSH2 0x3E8 SWAP1 DIV SWAP1 JUMP JUMPDEST POP PUSH1 0x5 DUP3 MUL SWAP2 DUP1 DUP4 DIV PUSH1 0x5 EQ SWAP1 ISZERO OR ISZERO PUSH2 0x2D9B JUMPI POP PUSH2 0x3E8 SWAP1 DIV SWAP1 JUMP JUMPDEST POP DUP2 DUP1 DIV PUSH1 0x1 EQ DUP3 ISZERO OR ISZERO PUSH2 0x2D9B JUMPI POP PUSH1 0x64 SWAP1 DIV SWAP1 JUMP JUMPDEST POP DUP1 PUSH1 0x1 SHL SWAP1 DUP1 DUP3 DIV PUSH1 0x2 EQ SWAP1 ISZERO OR ISZERO PUSH2 0x25F8 JUMPI PUSH1 0x64 SWAP1 DIV SWAP1 JUMP JUMPDEST POP PUSH1 0x5 DUP2 MUL SWAP1 DUP1 DUP3 DIV PUSH1 0x5 EQ SWAP1 ISZERO OR ISZERO PUSH2 0x25F8 JUMPI PUSH1 0x64 SWAP1 DIV SWAP1 JUMP JUMPDEST POP PUSH1 0x14 DUP2 MUL SWAP1 DUP1 DUP3 DIV PUSH1 0x14 EQ SWAP1 ISZERO OR ISZERO PUSH2 0x25F8 JUMPI PUSH1 0x64 SWAP1 DIV SWAP1 JUMP JUMPDEST PUSH1 0xFF PUSH1 0x4 SWAP2 AND GT ISZERO PUSH2 0x2E80 JUMPI PUSH1 0x5 SWAP1 JUMP JUMPDEST PUSH1 0x2 SWAP1 JUMP JUMPDEST PUSH1 0x1 PUSH1 0x1 PUSH1 0x40 SHL SUB DUP2 GT PUSH2 0x8A6 JUMPI PUSH1 0x5 SHL PUSH1 0x20 ADD SWAP1 JUMP JUMPDEST DUP1 MLOAD DUP3 LT ISZERO PUSH2 0x2491 JUMPI PUSH1 0x20 SWAP2 PUSH1 0x5 SHL ADD ADD SWAP1 JUMP JUMPDEST SWAP1 SWAP2 DUP3 DUP1 PUSH2 0x30E8 JUMPI JUMPDEST PUSH2 0x30E0 JUMPI DUP3 ISZERO SWAP2 DUP3 DUP1 PUSH2 0x30BB JUMPI JUMPDEST PUSH2 0x2F78 JUMPI PUSH1 0x4 SWAP4 DUP5 SLOAD SWAP4 PUSH1 0x1 DUP1 DUP7 ADD DUP1 SWAP7 GT PUSH2 0x30A6 JUMPI PUSH2 0x2EE6 DUP7 PUSH2 0x2E85 JUMP JUMPDEST SWAP1 PUSH2 0x2F01 PUSH1 0x40 SWAP8 PUSH2 0x2EF9 DUP10 MLOAD SWAP5 DUP6 PUSH2 0x24F4 JUMP JUMPDEST DUP1 DUP5 MSTORE PUSH2 0x2E85 JUMP JUMPDEST SWAP3 PUSH1 0x20 SWAP3 DUP4 DUP2 ADD SWAP5 PUSH1 0x1F NOT ADD CALLDATASIZE DUP7 CALLDATACOPY PUSH1 0x0 DUP1 DUP8 ISZERO PUSH2 0x3088 JUMPI PUSH1 0x1 PUSH1 0x1 PUSH1 0xA0 SHL SUB DUP10 DUP2 AND DUP4 MSTORE PUSH1 0x2 DUP8 MSTORE DUP12 DUP4 KECCAK256 PUSH1 0x3 ADD SLOAD AND SWAP7 JUMPDEST PUSH1 0x1 PUSH1 0x1 PUSH1 0xA0 SHL SUB SWAP8 DUP9 AND DUP1 PUSH2 0x305F JUMPI JUMPDEST POP POP JUMPDEST DUP2 DUP2 LT PUSH2 0x2FC2 JUMPI POP POP POP DUP1 PUSH2 0x2FA7 JUMPI JUMPDEST PUSH2 0x2F9C JUMPI POP DUP3 PUSH2 0x2F80 JUMPI JUMPDEST POP POP PUSH2 0x2F78 JUMPI POP POP MLOAD PUSH4 0xC5BB5BCD PUSH1 0xE0 SHL DUP2 MSTORE REVERT JUMPDEST SWAP3 POP PUSH1 0x0 SWAP2 POP JUMP JUMPDEST DUP2 PUSH1 0x2 SWAP3 SWAP4 POP DUP5 AND PUSH1 0x0 MSTORE MSTORE DUP5 DUP5 PUSH1 0x0 KECCAK256 ADD SLOAD AND ISZERO CODESIZE DUP1 PUSH2 0x2F63 JUMP JUMPDEST SWAP4 SWAP7 POP SWAP3 SWAP5 POP POP POP POP JUMP JUMPDEST POP DUP3 DUP6 AND PUSH1 0x0 MSTORE PUSH1 0x2 DUP3 MSTORE DUP3 PUSH1 0x3 DUP9 PUSH1 0x0 KECCAK256 ADD SLOAD AND ISZERO PUSH2 0x2F58 JUMP JUMPDEST DUP7 PUSH2 0x2FD6 PUSH2 0x2FCF DUP4 PUSH2 0x25E9 JUMP JUMPDEST SWAP3 DUP6 PUSH2 0x2E9C JUMP JUMPDEST MLOAD AND DUP1 PUSH1 0x0 MSTORE PUSH1 0x2 SWAP1 DUP2 DUP9 MSTORE DUP13 PUSH1 0x0 KECCAK256 DUP10 PUSH1 0x3 DUP3 ADD SLOAD AND SWAP1 DUP2 ISZERO PUSH2 0x304C JUMPI DUP16 ADD SLOAD DUP11 AND ISZERO PUSH2 0x3039 JUMPI PUSH2 0x3011 PUSH2 0x300A DUP7 PUSH2 0x25E9 JUMP JUMPDEST SWAP6 DUP8 PUSH2 0x2E9C JUMP JUMPDEST MSTORE PUSH1 0x0 MSTORE DUP7 MSTORE DUP7 DUP13 DUP13 PUSH1 0x0 KECCAK256 ADD SLOAD AND PUSH2 0x3033 PUSH2 0x302C DUP5 PUSH2 0x25E9 JUMP JUMPDEST SWAP4 DUP6 PUSH2 0x2E9C JUMP JUMPDEST MSTORE PUSH2 0x2F48 JUMP JUMPDEST POP SWAP13 POP PUSH1 0x0 SWAP12 POP POP POP POP POP POP POP POP POP POP POP JUMP JUMPDEST POP SWAP1 SWAP14 POP SWAP6 SWAP12 POP POP POP POP POP POP POP POP POP POP POP JUMP JUMPDEST SWAP1 SWAP3 POP DUP6 SWAP3 DUP5 MLOAD ISZERO PUSH2 0x3073 JUMPI MSTORE CODESIZE DUP1 PUSH2 0x2F45 JUMP JUMPDEST PUSH1 0x32 DUP15 PUSH4 0x4E487B71 PUSH1 0xE0 SHL PUSH1 0x0 MSTORE MSTORE PUSH1 0x24 PUSH1 0x0 REVERT JUMPDEST PUSH1 0x1 PUSH1 0x1 PUSH1 0xA0 SHL SUB DUP10 DUP2 AND DUP4 MSTORE PUSH1 0x2 DUP8 MSTORE DUP12 DUP4 KECCAK256 DUP14 ADD SLOAD AND SWAP7 PUSH2 0x2F34 JUMP JUMPDEST PUSH1 0x11 DUP8 PUSH4 0x4E487B71 PUSH1 0xE0 SHL PUSH1 0x0 MSTORE MSTORE PUSH1 0x24 PUSH1 0x0 REVERT JUMPDEST POP PUSH1 0x1 PUSH1 0x1 PUSH1 0xA0 SHL SUB DUP2 DUP2 AND PUSH1 0x0 SWAP1 DUP2 MSTORE PUSH1 0x2 PUSH1 0x20 MSTORE PUSH1 0x40 SWAP1 KECCAK256 PUSH1 0x4 ADD SLOAD AND ISZERO PUSH2 0x2EC7 JUMP JUMPDEST SWAP2 POP SWAP1 PUSH1 0x1 SWAP1 JUMP JUMPDEST POP PUSH1 0x1 PUSH1 0x1 PUSH1 0xA0 SHL SUB DUP3 DUP2 AND PUSH1 0x0 SWAP1 DUP2 MSTORE PUSH1 0x2 PUSH1 0x20 MSTORE PUSH1 0x40 SWAP1 KECCAK256 PUSH1 0x3 ADD SLOAD AND ISZERO PUSH2 0x2EB9 JUMP JUMPDEST PUSH1 0xFF PUSH1 0x9 DUP2 DUP2 SLOAD AND PUSH2 0x341A JUMPI PUSH1 0x5 SWAP1 DUP2 SLOAD SWAP5 DUP6 ISZERO PUSH2 0x33E1 JUMPI PUSH1 0x0 SWAP4 DUP5 DUP5 SSTORE PUSH1 0x46 DUP8 MUL DUP8 DUP2 DIV PUSH1 0x46 SUB PUSH2 0x191F JUMPI PUSH1 0x64 SWAP1 DIV SWAP4 PUSH2 0x3148 DUP6 DUP10 PUSH2 0x2742 JUMP JUMPDEST SWAP6 PUSH2 0x3158 PUSH1 0x8 SWAP5 DUP9 DUP7 SSTORE DUP10 PUSH2 0x274F JUMP JUMPDEST SWAP4 PUSH1 0x3 DUP1 SLOAD DUP1 DUP8 GT PUSH2 0x33D9 JUMPI JUMPDEST POP DUP3 SWAP10 DUP1 JUMPDEST DUP8 DUP2 LT PUSH2 0x3346 JUMPI POP DUP11 ISZERO PUSH2 0x32FB JUMPI JUMPDEST DUP7 DUP2 LT PUSH2 0x31C0 JUMPI POP POP POP POP POP POP POP SWAP2 PUSH1 0x80 SWAP4 SWAP2 PUSH1 0x0 DUP1 MLOAD PUSH1 0x20 PUSH2 0x344C DUP4 CODECOPY DUP2 MLOAD SWAP2 MSTORE SWAP6 SWAP4 PUSH1 0x1 PUSH1 0xFF NOT DUP3 SLOAD AND OR SWAP1 SSTORE PUSH1 0x40 MLOAD SWAP4 DUP5 MSTORE PUSH1 0x20 DUP5 ADD MSTORE PUSH1 0x40 DUP4 ADD MSTORE PUSH1 0x60 DUP3 ADD MSTORE LOG1 JUMP JUMPDEST DUP11 DUP7 DUP7 DUP12 DUP12 PUSH2 0x31CE DUP7 PUSH2 0x2476 JUMP JUMPDEST PUSH1 0x1 DUP1 PUSH1 0xA0 SHL SUB SWAP2 SLOAD SWAP1 DUP10 SHL SHR AND DUP1 DUP11 MSTORE PUSH1 0x2 SWAP3 DUP10 PUSH1 0x20 SWAP4 DUP6 DUP6 MSTORE DUP13 PUSH1 0x40 SWAP8 DUP9 DUP3 KECCAK256 SWAP10 DUP11 SLOAD DUP6 SHR AND ISZERO PUSH2 0x32E7 JUMPI DUP10 ADD SLOAD PUSH1 0x6 DUP11 ADD SLOAD DUP1 DUP3 LT ISZERO PUSH2 0x32DF JUMPI POP SWAP10 JUMPDEST PUSH1 0x7 SWAP10 DUP11 ADD SLOAD DUP1 DUP13 GT ISZERO PUSH2 0x32D7 JUMPI PUSH2 0x3226 SWAP1 DUP13 PUSH2 0x2742 JUMP JUMPDEST SWAP5 JUMPDEST DUP6 ISZERO PUSH2 0x32C2 JUMPI SWAP2 PUSH2 0x3242 DUP11 SWAP3 PUSH2 0x12ED DUP9 PUSH2 0x326A SWAP8 SWAP7 PUSH2 0x26F4 JUMP JUMPDEST SWAP5 DUP8 DUP3 MSTORE DUP10 DUP10 MSTORE DUP3 DUP3 KECCAK256 ADD PUSH2 0x3258 DUP7 DUP3 SLOAD PUSH2 0x274F JUMP JUMPDEST SWAP1 SSTORE DUP7 DUP2 MSTORE DUP9 DUP9 MSTORE KECCAK256 ADD SWAP2 DUP3 SLOAD PUSH2 0x274F JUMP JUMPDEST SWAP1 SSTORE PUSH1 0xA DUP1 DUP3 MUL SWAP2 DUP3 DIV SUB PUSH2 0x32AE JUMPI SWAP1 DUP5 SWAP4 SWAP3 SWAP2 PUSH2 0x329B PUSH1 0x11 PUSH2 0x32A9 SWAP11 SWAP10 SWAP9 SWAP8 DUP15 DUP6 DUP2 MSTORE DUP8 DUP8 MSTORE KECCAK256 ADD SWAP2 DUP3 SLOAD PUSH2 0x274F JUMP JUMPDEST SWAP1 SSTORE DUP11 MSTORE MSTORE DUP8 KECCAK256 ADD SSTORE PUSH2 0x25E9 JUMP JUMPDEST PUSH2 0x3179 JUMP JUMPDEST PUSH4 0x4E487B71 PUSH1 0xE0 SHL DUP12 MSTORE PUSH1 0x11 PUSH1 0x4 MSTORE PUSH1 0x24 DUP12 REVERT JUMPDEST POP POP POP POP POP POP POP POP POP POP POP POP PUSH2 0x32A9 SWAP1 PUSH2 0x25E9 JUMP JUMPDEST POP DUP2 SWAP5 PUSH2 0x3228 JUMP JUMPDEST SWAP1 POP SWAP10 PUSH2 0x320E JUMP JUMPDEST POP POP POP POP POP POP POP POP POP POP POP PUSH2 0x32A9 SWAP1 PUSH2 0x25E9 JUMP JUMPDEST POP POP SWAP4 POP SWAP5 PUSH1 0x80 SWAP8 POP DUP6 SWAP5 POP PUSH2 0x3328 SWAP3 POP PUSH2 0x2944 SWAP2 POP SWAP6 PUSH1 0x0 DUP1 MLOAD PUSH1 0x20 PUSH2 0x344C DUP4 CODECOPY DUP2 MLOAD SWAP2 MSTORE SWAP9 SWAP7 PUSH2 0x274F JUMP JUMPDEST PUSH1 0x7 SSTORE SSTORE PUSH1 0x40 MLOAD SWAP2 DUP3 MSTORE DUP1 PUSH1 0x20 DUP4 ADD MSTORE DUP1 PUSH1 0x40 DUP4 ADD MSTORE PUSH1 0x60 DUP3 ADD MSTORE LOG1 JUMP JUMPDEST PUSH2 0x334F DUP2 PUSH2 0x2476 JUMP JUMPDEST SWAP1 SLOAD SWAP1 DUP5 SHL SHR PUSH1 0x1 PUSH1 0x1 PUSH1 0xA0 SHL SUB AND DUP6 MSTORE PUSH1 0x2 PUSH1 0x20 MSTORE PUSH1 0x40 DUP6 KECCAK256 DUP1 SLOAD DUP6 SHR DUP9 AND ISZERO PUSH2 0x33CF JUMPI PUSH1 0x7 DUP8 DUP3 ADD SLOAD PUSH1 0x6 DUP4 ADD SLOAD DUP1 DUP3 LT PUSH1 0x0 EQ PUSH2 0x33C7 JUMPI POP SWAP2 JUMPDEST ADD SLOAD SWAP1 DUP2 DUP2 GT PUSH2 0x33A7 JUMPI JUMPDEST POP POP PUSH2 0x33A2 SWAP1 PUSH2 0x25E9 JUMP JUMPDEST PUSH2 0x316A JUMP JUMPDEST SWAP13 PUSH2 0x33B9 PUSH2 0x33BF SWAP3 PUSH2 0x33A2 SWAP5 SWAP16 PUSH2 0x2742 JUMP JUMPDEST SWAP1 PUSH2 0x274F JUMP JUMPDEST SWAP12 SWAP1 CODESIZE PUSH2 0x3397 JUMP JUMPDEST SWAP1 POP SWAP2 PUSH2 0x338C JUMP JUMPDEST POP PUSH2 0x33A2 SWAP1 PUSH2 0x25E9 JUMP JUMPDEST SWAP6 POP CODESIZE PUSH2 0x3165 JUMP JUMPDEST PUSH1 0x40 MLOAD PUSH3 0x461BCD PUSH1 0xE5 SHL DUP2 MSTORE PUSH1 0x20 PUSH1 0x4 DUP3 ADD MSTORE PUSH1 0x11 PUSH1 0x24 DUP3 ADD MSTORE PUSH17 0x115B5C1D1E48189A5B985C9E481C1BDBDB PUSH1 0x7A SHL PUSH1 0x44 DUP3 ADD MSTORE PUSH1 0x64 SWAP1 REVERT JUMPDEST PUSH1 0x40 MLOAD PUSH3 0xC94879 PUSH1 0xE4 SHL DUP2 MSTORE PUSH1 0x4 SWAP1 REVERT INVALID DUP12 0xE0 SMOD SWAP13 MSTORE8 AND MSIZE EQ SGT PREVRANDAO 0xCD 0x1F 0xD0 LOG4 CALLCODE DUP5 NOT 0x49 PUSH32 0x9722A3DAAFE3B4186F6B6457E0A0EA5705200C9FFD36DC735FEF1592C3234BB7 0xE3 GT 0xFC SHL EXP PREVRANDAO 0x4F PUSH4 0x70D0620E 0xAE SWAP12 PUSH24 0x9B17422D0DF92223018B32B4D1FA46E071723D6817E2486D STOP EXTCODESIZE 0xEC 0xC5 PUSH0 STOP LOG2 PUSH5 0x6970667358 0x22 SLT KECCAK256 PUSH19 0x5C7B0A33FF4B56D637DF9D187B88CAA58AEACF SWAP10 SDIV 0xBF XOR JUMPDEST LOG3 0xB4 0xD2 BLOCKHASH 0xD3 SIGNEXTEND PUSH25 0x64736F6C634300081400330000000000000000000000000000 "},"methodIdentifiers":{"ADMIN_ALLOC()":"be648bdb","BINARY_ALLOC()":"44e374d5","BTC_POOL_RATE()":"92446e30","INCOME_LIMIT()":"aa393757","LEVEL_ALLOC()":"77537844","PACKAGE_PRICE()":"039ccc26","activate()":"0f15f4c0","adminPool()":"b86a1fb2","allUsers(uint256)":"a2bdedf4","binaryPool()":"7f1b4064","canRebirth(address)":"e51cb530","distributeBinaryIncome(uint256,uint256)":"2d641f08","distributePowerLeg(uint256,uint256)":"8a8f0429","getAllUsersCount()":"38abfc41","getBtcPoolInfo(address)":"03c3ecb7","getCurrentBinaryPairs(address)":"f24c536a","getMvtContractBalance()":"ce8292f5","getMvtPrice()":"68ddb2b5","getPoolBalances()":"52375bb1","getProfile(address)":"0f53a470","getUserInfo(address)":"6386c1c7","mvaultToken()":"1f6259d5","owner()":"8da5cb5b","rebirth(address,bool)":"94915dd0","register(address,address,bool)":"aa33f5d5","renounceOwnership()":"715018a6","reservePool()":"0266f044","sellMvt(uint256)":"634f627e","setMvaultToken(address)":"1ce5e894","setProfile(string,string,string,string)":"55509c8f","totalUsers()":"bff1f9e1","transferOwnership(address)":"f2fde38b","usdtToken()":"a98ad46c","users(address)":"a87430ba","withdrawAdminPool(address,uint256)":"2808bc8d","withdrawBtcPool(uint256)":"b58e0278","withdrawReservePool(address,uint256)":"ec50324a","withdrawUsdt(uint256)":"d3635a02"}}}}}