{"contracts/MvaultContract.sol":{"MvaultContract":{"abi":[{"inputs":[{"internalType":"address","name":"_usdt","type":"address"},{"internalType":"address","name":"_mvaultToken","type":"address"}],"stateMutability":"nonpayable","type":"constructor"},{"inputs":[],"name":"AlreadyActive","type":"error"},{"inputs":[],"name":"AlreadyRegistered","type":"error"},{"inputs":[],"name":"BinaryAlreadyDistributed","type":"error"},{"inputs":[],"name":"BinaryNotDistributed","type":"error"},{"inputs":[],"name":"BoardHandlerNotSet","type":"error"},{"inputs":[],"name":"InsufficientBtcPool","type":"error"},{"inputs":[],"name":"InsufficientBtcPoolForBoard","type":"error"},{"inputs":[],"name":"InsufficientRebirthPool","type":"error"},{"inputs":[],"name":"InsufficientUsdtBalance","type":"error"},{"inputs":[],"name":"InsufficientVirtualBalance","type":"error"},{"inputs":[],"name":"InvalidSponsor","type":"error"},{"inputs":[],"name":"NoOpenBinarySlot","type":"error"},{"inputs":[],"name":"NotRegistered","type":"error"},{"inputs":[{"internalType":"address","name":"owner","type":"address"}],"name":"OwnableInvalidOwner","type":"error"},{"inputs":[{"internalType":"address","name":"account","type":"address"}],"name":"OwnableUnauthorizedAccount","type":"error"},{"inputs":[],"name":"PositionTaken","type":"error"},{"inputs":[],"name":"ReentrancyGuardReentrantCall","type":"error"},{"inputs":[],"name":"TransferFailed","type":"error"},{"inputs":[],"name":"ZeroAddress","type":"error"},{"inputs":[],"name":"ZeroAmount","type":"error"},{"anonymous":false,"inputs":[{"indexed":true,"internalType":"address","name":"user","type":"address"},{"indexed":false,"internalType":"uint256","name":"mvtMinted","type":"uint256"},{"indexed":false,"internalType":"uint256","name":"grossMvt","type":"uint256"},{"indexed":false,"internalType":"uint256","name":"levelAmt","type":"uint256"},{"indexed":false,"internalType":"uint256","name":"binaryAmt","type":"uint256"},{"indexed":false,"internalType":"uint256","name":"adminAmt","type":"uint256"}],"name":"Activated","type":"event"},{"anonymous":false,"inputs":[{"indexed":true,"internalType":"address","name":"to","type":"address"},{"indexed":false,"internalType":"uint256","name":"amount","type":"uint256"}],"name":"AdminWithdraw","type":"event"},{"anonymous":false,"inputs":[{"indexed":false,"internalType":"uint256","name":"totalPool","type":"uint256"},{"indexed":false,"internalType":"uint256","name":"binary70","type":"uint256"},{"indexed":false,"internalType":"uint256","name":"powerLeg30","type":"uint256"},{"indexed":false,"internalType":"uint256","name":"totalPairs","type":"uint256"}],"name":"BinaryIncomeDistributed","type":"event"},{"anonymous":false,"inputs":[{"indexed":true,"internalType":"address","name":"user","type":"address"},{"indexed":false,"internalType":"uint256","name":"newPairs","type":"uint256"},{"indexed":false,"internalType":"uint256","name":"amount","type":"uint256"}],"name":"BinaryIncomePaid","type":"event"},{"anonymous":false,"inputs":[{"indexed":true,"internalType":"address","name":"user","type":"address"},{"indexed":false,"internalType":"uint256","name":"boardLevel","type":"uint256"},{"indexed":false,"internalType":"uint256","name":"usdtDeducted","type":"uint256"}],"name":"BoardEntered","type":"event"},{"anonymous":false,"inputs":[{"indexed":true,"internalType":"address","name":"newHandler","type":"address"}],"name":"BoardHandlerUpdated","type":"event"},{"anonymous":false,"inputs":[{"indexed":true,"internalType":"address","name":"user","type":"address"},{"indexed":false,"internalType":"uint256","name":"usdtAmount","type":"uint256"},{"indexed":false,"internalType":"uint256","name":"boardLevel","type":"uint256"}],"name":"BoardRewardCredited","type":"event"},{"anonymous":false,"inputs":[{"indexed":true,"internalType":"address","name":"user","type":"address"},{"indexed":false,"internalType":"uint256","name":"amount","type":"uint256"}],"name":"BtcPoolCredited","type":"event"},{"anonymous":false,"inputs":[{"indexed":true,"internalType":"address","name":"user","type":"address"},{"indexed":false,"internalType":"uint256","name":"amount","type":"uint256"}],"name":"BtcPoolWithdrawn","type":"event"},{"anonymous":false,"inputs":[{"indexed":true,"internalType":"address","name":"user","type":"address"},{"indexed":false,"internalType":"uint256","name":"stakeIndex","type":"uint256"},{"indexed":false,"internalType":"uint256","name":"lockedSince","type":"uint256"}],"name":"ConvertedToLocked","type":"event"},{"anonymous":false,"inputs":[{"indexed":true,"internalType":"address","name":"to","type":"address"},{"indexed":true,"internalType":"address","name":"from","type":"address"},{"indexed":false,"internalType":"uint8","name":"level","type":"uint8"},{"indexed":false,"internalType":"uint256","name":"amount","type":"uint256"}],"name":"LevelIncomePaid","type":"event"},{"anonymous":false,"inputs":[{"indexed":true,"internalType":"address","name":"upline","type":"address"},{"indexed":false,"internalType":"uint8","name":"level","type":"uint8"},{"indexed":false,"internalType":"uint256","name":"amount","type":"uint256"}],"name":"LevelIncomeSkipped","type":"event"},{"anonymous":false,"inputs":[{"indexed":false,"internalType":"address","name":"newToken","type":"address"}],"name":"MvaultTokenUpdated","type":"event"},{"anonymous":false,"inputs":[{"indexed":true,"internalType":"address","name":"user","type":"address"},{"indexed":false,"internalType":"uint256","name":"mvtAmount","type":"uint256"},{"indexed":false,"internalType":"uint256","name":"usdtNet","type":"uint256"},{"indexed":false,"internalType":"uint256","name":"usdtToBtcPool","type":"uint256"},{"indexed":false,"internalType":"uint256","name":"usdtToIncome","type":"uint256"},{"indexed":false,"internalType":"uint256","name":"usdtToRebirth","type":"uint256"}],"name":"MvtSold","type":"event"},{"anonymous":false,"inputs":[{"indexed":true,"internalType":"address","name":"previousOwner","type":"address"},{"indexed":true,"internalType":"address","name":"newOwner","type":"address"}],"name":"OwnershipTransferred","type":"event"},{"anonymous":false,"inputs":[{"indexed":false,"internalType":"uint256","name":"totalPowerLeg30","type":"uint256"},{"indexed":false,"internalType":"uint256","name":"totalPowerLegs","type":"uint256"}],"name":"PowerLegDistributed","type":"event"},{"anonymous":false,"inputs":[{"indexed":true,"internalType":"address","name":"user","type":"address"},{"indexed":false,"internalType":"uint256","name":"powerLegPoints","type":"uint256"},{"indexed":false,"internalType":"uint256","name":"amount","type":"uint256"}],"name":"PowerLegIncomePaid","type":"event"},{"anonymous":false,"inputs":[{"indexed":true,"internalType":"address","name":"user","type":"address"}],"name":"ProfileUpdated","type":"event"},{"anonymous":false,"inputs":[{"indexed":true,"internalType":"address","name":"mainAccount","type":"address"},{"indexed":true,"internalType":"address","name":"subAccount","type":"address"},{"indexed":false,"internalType":"uint256","name":"rebirthIndex","type":"uint256"}],"name":"Reborn","type":"event"},{"anonymous":false,"inputs":[{"indexed":true,"internalType":"address","name":"user","type":"address"},{"indexed":true,"internalType":"address","name":"sponsor","type":"address"},{"indexed":true,"internalType":"address","name":"binaryParent","type":"address"},{"indexed":false,"internalType":"bool","name":"placeLeft","type":"bool"}],"name":"Registered","type":"event"},{"anonymous":false,"inputs":[{"indexed":true,"internalType":"address","name":"payer","type":"address"},{"indexed":true,"internalType":"address","name":"newUser","type":"address"},{"indexed":true,"internalType":"address","name":"sponsor","type":"address"},{"indexed":false,"internalType":"bool","name":"placeLeft","type":"bool"}],"name":"RegisteredAndActivatedFor","type":"event"},{"anonymous":false,"inputs":[{"indexed":true,"internalType":"address","name":"to","type":"address"},{"indexed":false,"internalType":"uint256","name":"amount","type":"uint256"}],"name":"ReserveWithdraw","type":"event"},{"anonymous":false,"inputs":[{"indexed":true,"internalType":"address","name":"to","type":"address"},{"indexed":true,"internalType":"address","name":"from","type":"address"},{"indexed":false,"internalType":"uint8","name":"level","type":"uint8"},{"indexed":false,"internalType":"uint256","name":"mvtAmount","type":"uint256"}],"name":"StakeLevelIncomePaid","type":"event"},{"anonymous":false,"inputs":[{"indexed":true,"internalType":"address","name":"user","type":"address"},{"indexed":false,"internalType":"uint256","name":"stakeIndex","type":"uint256"},{"indexed":false,"internalType":"uint256","name":"usdtAmount","type":"uint256"},{"indexed":false,"internalType":"uint256","name":"mvtMinted","type":"uint256"},{"indexed":false,"internalType":"bool","name":"isLocked","type":"bool"}],"name":"Staked","type":"event"},{"anonymous":false,"inputs":[{"indexed":true,"internalType":"address","name":"user","type":"address"},{"indexed":false,"internalType":"uint256","name":"stakeIndex","type":"uint256"},{"indexed":false,"internalType":"uint256","name":"mvtReturned","type":"uint256"},{"indexed":false,"internalType":"uint256","name":"usdtReceived","type":"uint256"},{"indexed":false,"internalType":"uint256","name":"adminCapCut","type":"uint256"}],"name":"Unstaked","type":"event"},{"anonymous":false,"inputs":[{"indexed":true,"internalType":"address","name":"user","type":"address"},{"indexed":false,"internalType":"uint256","name":"amount","type":"uint256"}],"name":"UsdtWithdrawn","type":"event"},{"inputs":[],"name":"ADMIN_ALLOC","outputs":[{"internalType":"uint256","name":"","type":"uint256"}],"stateMutability":"view","type":"function"},{"inputs":[],"name":"BINARY_ALLOC","outputs":[{"internalType":"uint256","name":"","type":"uint256"}],"stateMutability":"view","type":"function"},{"inputs":[],"name":"BTC_POOL_RATE","outputs":[{"internalType":"uint256","name":"","type":"uint256"}],"stateMutability":"view","type":"function"},{"inputs":[],"name":"FLEX_CAP_MULT","outputs":[{"internalType":"uint256","name":"","type":"uint256"}],"stateMutability":"view","type":"function"},{"inputs":[],"name":"INCOME_LIMIT","outputs":[{"internalType":"uint256","name":"","type":"uint256"}],"stateMutability":"view","type":"function"},{"inputs":[],"name":"LEVEL_ALLOC","outputs":[{"internalType":"uint256","name":"","type":"uint256"}],"stateMutability":"view","type":"function"},{"inputs":[],"name":"LOCK_DURATION","outputs":[{"internalType":"uint256","name":"","type":"uint256"}],"stateMutability":"view","type":"function"},{"inputs":[],"name":"MIN_STAKE_USDT","outputs":[{"internalType":"uint256","name":"","type":"uint256"}],"stateMutability":"view","type":"function"},{"inputs":[],"name":"PACKAGE_PRICE","outputs":[{"internalType":"uint256","name":"","type":"uint256"}],"stateMutability":"view","type":"function"},{"inputs":[],"name":"activate","outputs":[],"stateMutability":"nonpayable","type":"function"},{"inputs":[],"name":"adminPool","outputs":[{"internalType":"uint256","name":"","type":"uint256"}],"stateMutability":"view","type":"function"},{"inputs":[{"internalType":"uint256","name":"","type":"uint256"}],"name":"allUsers","outputs":[{"internalType":"address","name":"","type":"address"}],"stateMutability":"view","type":"function"},{"inputs":[],"name":"binaryPool","outputs":[{"internalType":"uint256","name":"","type":"uint256"}],"stateMutability":"view","type":"function"},{"inputs":[{"internalType":"address","name":"","type":"address"}],"name":"boardEntryCount","outputs":[{"internalType":"uint256","name":"","type":"uint256"}],"stateMutability":"view","type":"function"},{"inputs":[],"name":"boardHandler","outputs":[{"internalType":"contract IMvaultBoardMatrix","name":"","type":"address"}],"stateMutability":"view","type":"function"},{"inputs":[{"internalType":"address","name":"_user","type":"address"}],"name":"canEnterBoard","outputs":[{"internalType":"bool","name":"eligible","type":"bool"},{"internalType":"uint256","name":"btcBalance","type":"uint256"},{"internalType":"uint256","name":"boardPrice","type":"uint256"}],"stateMutability":"view","type":"function"},{"inputs":[{"internalType":"address","name":"user","type":"address"}],"name":"canRebirth","outputs":[{"internalType":"bool","name":"eligible","type":"bool"},{"internalType":"uint256","name":"poolBalance","type":"uint256"}],"stateMutability":"view","type":"function"},{"inputs":[{"internalType":"uint256","name":"stakeIndex","type":"uint256"}],"name":"convertToLocked","outputs":[],"stateMutability":"nonpayable","type":"function"},{"inputs":[{"internalType":"address","name":"_user","type":"address"},{"internalType":"uint256","name":"_usdtAmount","type":"uint256"},{"internalType":"uint256","name":"_boardLevel","type":"uint256"}],"name":"creditBoardReward","outputs":[],"stateMutability":"nonpayable","type":"function"},{"inputs":[{"internalType":"uint256","name":"offset","type":"uint256"},{"internalType":"uint256","name":"limit","type":"uint256"}],"name":"distributeBinaryIncome","outputs":[],"stateMutability":"nonpayable","type":"function"},{"inputs":[{"internalType":"uint256","name":"offset","type":"uint256"},{"internalType":"uint256","name":"limit","type":"uint256"}],"name":"distributePowerLeg","outputs":[],"stateMutability":"nonpayable","type":"function"},{"inputs":[],"name":"enterBoardPool","outputs":[],"stateMutability":"nonpayable","type":"function"},{"inputs":[{"internalType":"address","name":"user","type":"address"}],"name":"getActiveStakes","outputs":[{"internalType":"uint256[]","name":"indices","type":"uint256[]"},{"internalType":"uint256[]","name":"mvtAmounts","type":"uint256[]"},{"internalType":"uint256[]","name":"usdtInvestedArr","type":"uint256[]"},{"internalType":"uint256[]","name":"stakedAts","type":"uint256[]"},{"internalType":"uint256[]","name":"lockedSinces","type":"uint256[]"}],"stateMutability":"view","type":"function"},{"inputs":[],"name":"getAllUsersCount","outputs":[{"internalType":"uint256","name":"","type":"uint256"}],"stateMutability":"view","type":"function"},{"inputs":[{"internalType":"uint256","name":"_level","type":"uint256"}],"name":"getBoardCurrentIndex","outputs":[{"internalType":"uint256","name":"","type":"uint256"}],"stateMutability":"view","type":"function"},{"inputs":[{"internalType":"uint256","name":"_level","type":"uint256"},{"internalType":"uint256","name":"_index","type":"uint256"}],"name":"getBoardMatrixInfo","outputs":[{"internalType":"address","name":"owner","type":"address"},{"internalType":"uint256","name":"filledCount","type":"uint256"},{"internalType":"bool","name":"completed","type":"bool"}],"stateMutability":"view","type":"function"},{"inputs":[{"internalType":"uint256","name":"_level","type":"uint256"}],"name":"getBoardPrice","outputs":[{"internalType":"uint256","name":"","type":"uint256"}],"stateMutability":"view","type":"function"},{"inputs":[{"internalType":"uint256","name":"_level","type":"uint256"}],"name":"getBoardQueueLength","outputs":[{"internalType":"uint256","name":"","type":"uint256"}],"stateMutability":"view","type":"function"},{"inputs":[{"internalType":"address","name":"u","type":"address"}],"name":"getBtcPoolInfo","outputs":[{"internalType":"uint256","name":"btcPoolBalance","type":"uint256"},{"internalType":"uint256","name":"totalBtcEarned","type":"uint256"}],"stateMutability":"view","type":"function"},{"inputs":[{"internalType":"address","name":"u","type":"address"}],"name":"getCurrentBinaryPairs","outputs":[{"internalType":"uint256","name":"currentPairs","type":"uint256"},{"internalType":"uint256","name":"newPairs","type":"uint256"}],"stateMutability":"view","type":"function"},{"inputs":[],"name":"getLockDuration","outputs":[{"internalType":"uint256","name":"","type":"uint256"}],"stateMutability":"pure","type":"function"},{"inputs":[],"name":"getMvtContractBalance","outputs":[{"internalType":"uint256","name":"","type":"uint256"}],"stateMutability":"view","type":"function"},{"inputs":[],"name":"getMvtPrice","outputs":[{"internalType":"uint256","name":"buyPrice","type":"uint256"},{"internalType":"uint256","name":"sellPrice","type":"uint256"}],"stateMutability":"view","type":"function"},{"inputs":[],"name":"getPoolBalances","outputs":[{"internalType":"uint256","name":"binary","type":"uint256"},{"internalType":"uint256","name":"reserve","type":"uint256"},{"internalType":"uint256","name":"admin","type":"uint256"}],"stateMutability":"view","type":"function"},{"inputs":[{"internalType":"address","name":"_user","type":"address"}],"name":"getProfile","outputs":[{"internalType":"string","name":"displayName","type":"string"},{"internalType":"string","name":"email","type":"string"},{"internalType":"string","name":"phone","type":"string"},{"internalType":"string","name":"country","type":"string"},{"internalType":"bool","name":"profileSet","type":"bool"}],"stateMutability":"view","type":"function"},{"inputs":[{"internalType":"address","name":"user","type":"address"},{"internalType":"uint256","name":"index","type":"uint256"}],"name":"getStake","outputs":[{"internalType":"uint256","name":"mvtAmount","type":"uint256"},{"internalType":"uint256","name":"usdtInvested","type":"uint256"},{"internalType":"uint256","name":"stakedAt","type":"uint256"},{"internalType":"uint256","name":"lockedSince","type":"uint256"},{"internalType":"bool","name":"active","type":"bool"}],"stateMutability":"view","type":"function"},{"inputs":[{"internalType":"address","name":"user","type":"address"}],"name":"getStakeCount","outputs":[{"internalType":"uint256","name":"","type":"uint256"}],"stateMutability":"view","type":"function"},{"inputs":[{"internalType":"address","name":"user","type":"address"},{"internalType":"uint256","name":"offset","type":"uint256"},{"internalType":"uint256","name":"limit","type":"uint256"}],"name":"getTransactions","outputs":[{"components":[{"internalType":"uint8","name":"txType","type":"uint8"},{"internalType":"uint32","name":"ts","type":"uint32"},{"internalType":"uint256","name":"amount","type":"uint256"},{"internalType":"uint8","name":"level","type":"uint8"},{"internalType":"address","name":"addr","type":"address"}],"internalType":"struct MvaultContract.TxRecord[]","name":"records","type":"tuple[]"},{"internalType":"uint256","name":"total","type":"uint256"}],"stateMutability":"view","type":"function"},{"inputs":[{"internalType":"address","name":"_user","type":"address"}],"name":"getUserBoardStats","outputs":[{"internalType":"uint256","name":"entries","type":"uint256"},{"internalType":"uint256","name":"totalRewards","type":"uint256"}],"stateMutability":"view","type":"function"},{"inputs":[{"internalType":"address","name":"u","type":"address"}],"name":"getUserInfo","outputs":[{"internalType":"bool","name":"isRegistered","type":"bool"},{"internalType":"bool","name":"isActive","type":"bool"},{"internalType":"address","name":"sponsor","type":"address"},{"internalType":"uint256","name":"directCount","type":"uint256"},{"internalType":"address","name":"binaryParent","type":"address"},{"internalType":"bool","name":"placedLeft","type":"bool"},{"internalType":"address","name":"leftChild","type":"address"},{"internalType":"address","name":"rightChild","type":"address"},{"internalType":"uint256","name":"leftSubUsers","type":"uint256"},{"internalType":"uint256","name":"rightSubUsers","type":"uint256"},{"internalType":"uint256","name":"mvtBalance","type":"uint256"},{"internalType":"uint256","name":"totalReceived","type":"uint256"},{"internalType":"uint256","name":"totalSold","type":"uint256"},{"internalType":"uint256","name":"incomeLimit","type":"uint256"},{"internalType":"uint256","name":"usdtBalance","type":"uint256"},{"internalType":"uint256","name":"rebirthPool","type":"uint256"},{"internalType":"uint256","name":"btcPoolBalance","type":"uint256"},{"internalType":"uint256","name":"powerLegPoints","type":"uint256"},{"internalType":"uint256","name":"matchedPairs","type":"uint256"},{"internalType":"address","name":"mainAccount","type":"address"},{"internalType":"uint256","name":"rebirthCount","type":"uint256"},{"internalType":"uint256","name":"joinedAt","type":"uint256"}],"stateMutability":"view","type":"function"},{"inputs":[],"name":"mvaultToken","outputs":[{"internalType":"contract IMvaultToken","name":"","type":"address"}],"stateMutability":"view","type":"function"},{"inputs":[],"name":"owner","outputs":[{"internalType":"address","name":"","type":"address"}],"stateMutability":"view","type":"function"},{"inputs":[{"internalType":"address","name":"subAccount","type":"address"},{"internalType":"bool","name":"placeLeft","type":"bool"}],"name":"rebirth","outputs":[],"stateMutability":"nonpayable","type":"function"},{"inputs":[{"internalType":"address","name":"sponsor","type":"address"},{"internalType":"address","name":"binaryParent","type":"address"},{"internalType":"bool","name":"placeLeft","type":"bool"}],"name":"register","outputs":[],"stateMutability":"nonpayable","type":"function"},{"inputs":[{"internalType":"address","name":"newUser","type":"address"},{"internalType":"address","name":"binaryParent","type":"address"},{"internalType":"bool","name":"placeLeft","type":"bool"}],"name":"registerAndActivateFor","outputs":[],"stateMutability":"nonpayable","type":"function"},{"inputs":[],"name":"renounceOwnership","outputs":[],"stateMutability":"nonpayable","type":"function"},{"inputs":[],"name":"reservePool","outputs":[{"internalType":"uint256","name":"","type":"uint256"}],"stateMutability":"view","type":"function"},{"inputs":[{"internalType":"uint256","name":"amount","type":"uint256"}],"name":"sellMvt","outputs":[],"stateMutability":"nonpayable","type":"function"},{"inputs":[{"internalType":"address","name":"_boardHandler","type":"address"}],"name":"setBoardHandler","outputs":[],"stateMutability":"nonpayable","type":"function"},{"inputs":[{"internalType":"address","name":"_mvaultToken","type":"address"}],"name":"setMvaultToken","outputs":[],"stateMutability":"nonpayable","type":"function"},{"inputs":[{"internalType":"string","name":"_displayName","type":"string"},{"internalType":"string","name":"_email","type":"string"},{"internalType":"string","name":"_phone","type":"string"},{"internalType":"string","name":"_country","type":"string"}],"name":"setProfile","outputs":[],"stateMutability":"nonpayable","type":"function"},{"inputs":[{"internalType":"uint256","name":"usdtAmount","type":"uint256"},{"internalType":"bool","name":"isLocked","type":"bool"}],"name":"stake","outputs":[],"stateMutability":"nonpayable","type":"function"},{"inputs":[{"internalType":"address","name":"","type":"address"}],"name":"totalBoardRewardsEarned","outputs":[{"internalType":"uint256","name":"","type":"uint256"}],"stateMutability":"view","type":"function"},{"inputs":[],"name":"totalUsers","outputs":[{"internalType":"uint256","name":"","type":"uint256"}],"stateMutability":"view","type":"function"},{"inputs":[{"internalType":"address","name":"newOwner","type":"address"}],"name":"transferOwnership","outputs":[],"stateMutability":"nonpayable","type":"function"},{"inputs":[{"internalType":"uint256","name":"stakeIndex","type":"uint256"}],"name":"unstake","outputs":[],"stateMutability":"nonpayable","type":"function"},{"inputs":[],"name":"usdtToken","outputs":[{"internalType":"contract IERC20","name":"","type":"address"}],"stateMutability":"view","type":"function"},{"inputs":[{"internalType":"address","name":"","type":"address"}],"name":"users","outputs":[{"internalType":"bool","name":"isRegistered","type":"bool"},{"internalType":"bool","name":"isActive","type":"bool"},{"internalType":"address","name":"sponsor","type":"address"},{"internalType":"uint256","name":"directCount","type":"uint256"},{"internalType":"address","name":"binaryParent","type":"address"},{"internalType":"bool","name":"placedLeft","type":"bool"},{"internalType":"address","name":"leftChild","type":"address"},{"internalType":"address","name":"rightChild","type":"address"},{"internalType":"uint256","name":"leftSubUsers","type":"uint256"},{"internalType":"uint256","name":"rightSubUsers","type":"uint256"},{"internalType":"uint256","name":"matchedPairs","type":"uint256"},{"internalType":"uint256","name":"mvtBalance","type":"uint256"},{"internalType":"uint256","name":"totalReceived","type":"uint256"},{"internalType":"uint256","name":"totalSold","type":"uint256"},{"internalType":"uint256","name":"incomeLimit","type":"uint256"},{"internalType":"uint256","name":"usdtBalance","type":"uint256"},{"internalType":"uint256","name":"rebirthPool","type":"uint256"},{"internalType":"uint256","name":"totalUsdtEarned","type":"uint256"},{"internalType":"uint256","name":"btcPoolBalance","type":"uint256"},{"internalType":"uint256","name":"totalBtcEarned","type":"uint256"},{"internalType":"uint256","name":"powerLegPoints","type":"uint256"},{"internalType":"address","name":"mainAccount","type":"address"},{"internalType":"uint256","name":"rebirthCount","type":"uint256"},{"internalType":"uint256","name":"joinedAt","type":"uint256"},{"internalType":"string","name":"displayName","type":"string"},{"internalType":"string","name":"email","type":"string"},{"internalType":"string","name":"phone","type":"string"},{"internalType":"string","name":"country","type":"string"},{"internalType":"bool","name":"profileSet","type":"bool"}],"stateMutability":"view","type":"function"},{"inputs":[{"internalType":"address","name":"to","type":"address"},{"internalType":"uint256","name":"amount","type":"uint256"}],"name":"withdrawAdminPool","outputs":[],"stateMutability":"nonpayable","type":"function"},{"inputs":[{"internalType":"uint256","name":"amount","type":"uint256"}],"name":"withdrawBtcPool","outputs":[],"stateMutability":"nonpayable","type":"function"},{"inputs":[{"internalType":"address","name":"to","type":"address"},{"internalType":"uint256","name":"amount","type":"uint256"}],"name":"withdrawReservePool","outputs":[],"stateMutability":"nonpayable","type":"function"},{"inputs":[{"internalType":"uint256","name":"amount","type":"uint256"}],"name":"withdrawUsdt","outputs":[],"stateMutability":"nonpayable","type":"function"}],"evm":{"bytecode":{"linkReferences":{},"object":"60a0346200017557601f620060e638819003918201601f19168301916001600160401b038311848410176200017a57808492604094855283398101031262000175576200005a6020620000528362000190565b920162000190565b9033156200015c576000549160018060a01b03199233848216176000556040519060018060a01b03938491823391167f8be0079c531659141344cd1fd0a4f28419497f9722a3daafe3b4186f6b6457e0600080a360017f9b779b17422d0df92223018b32b4d1fa46e071723d6817e2486d003becc55f005516908115801562000151575b62000142575060805216906001541617600155604051615f409081620001a6823960805181818161086901528181610fd00152818161131a015281816114b601528181611dc501528181612c880152818161382701528181614234015261496c0152f35b63d92e233d60e01b8152600490fd5b5083831615620000de565b604051631e4fbdf760e01b815260006004820152602490fd5b600080fd5b634e487b7160e01b600052604160045260246000fd5b51906001600160a01b0382168203620001755756fe61032080604052600436101561001457600080fd5b600090813560e01c9081630266f0441461433057508063039ccc261461430c57806303c3ecb7146142c65780630f15f4c0146141ca5780630f53a4701461410a5780631747e0b014613f2b5780631ce5e89414613eb95780631f6259d514613e905780632335821b14613e575780632808bc8d14613d935780632d641f0814613d565780632e17de781461372c57806338abfc411461370e5780633ac272c2146136ef5780633ccb13d3146136d357806344e374d51461128c57806347cd5191146136b4578063485d383414610b395780634b3f0d45146135eb57806352375bb1146135bc57806355509c8f14613038578063634f627e14612bfe5780636386c1c714612a3057806368ddb2b514612958578063715018a6146129105780637435f42114612872578063775378441461128c5780637f1b4064146128545780638431fdd7146128305780638a8f0429146125125780638da5cb5b146124eb57806392446e30146124cf57806394915dd01461213f5780639499a35114612106578063a2bdedf4146120c2578063a87430ba14611df4578063a98ad46c14611daf578063aa33f5d514611b76578063aa39375714611b52578063abe50f191461142b578063b58e0278146112af578063b86a1fb214611291578063be648bdb1461128c578063bff1f9e11461126e578063c9d484cf14611245578063ce8292f5146111b1578063cf57ee6914611178578063cfd47663146110ec578063d3635a0214610f65578063d4a9028614610e93578063e0e0101114610b58578063e239c40014610b39578063e3ba9bda14610acf578063e4093a66146107ad578063e51cb5301461075f578063eb63e1c214610738578063ec50324a14610639578063f00b009314610600578063f0b7b9dc14610403578063f24c536a1461038a578063f2fde38b146103145763fb72ca35146102cc57600080fd5b34610311576020366003190112610311576040906001600160a01b036102f061434c565b168152600b602052818082205491600c602052205482519182526020820152f35b80fd5b50346103115760203660031901126103115761032e61434c565b6103366145f5565b6001600160a01b03908116908115610371576000548260018060a01b031982161760005516600080516020615e8b833981519152600080a380f35b604051631e4fbdf760e01b815260048101849052602490fd5b5034610311576020366003190112610311576040906001600160a01b036103af61434c565b1681526003602052818120906007600583015460068401548082106000146103fb5750925b0154808311156103f5576103e991508261465a565b82519182526020820152f35b506103e9565b9050926103d4565b5034610311576104123661444b565b9161041b6146b4565b6002546001600160a01b039190821633036105c757169061043d821515614700565b610448811515614700565b81845260209160038352600c6040862001610464838254614731565b905580855260038352600e604086200161047f838254614731565b9055808552600c835260408520610497838254614731565b9055807f2393acb59b41dd645f68fe97bab0deba2a21b99efc69761e9b2762f11bbbe79d604080518581528787820152a2600052600e8252604060002091604051906104e2826144fe565b600b825281019163ffffffff421683526040820190815260ff60608301951685526080820193600085528054600160401b8110156105b157610529916001820181556146e4565b91909161059b5760ff9384600294511664ffffffff0084549282881985161786555160081b169164ffffffffff19161717825551600182015501925116825491610100600160a81b03905160081b169160018060a81b031916171790556001600080516020615eeb8339815191525580f35b634e487b7160e01b600052600060045260246000fd5b634e487b7160e01b600052604160045260246000fd5b60405162461bcd60e51b81526020600482015260116024820152702737ba103137b0b932103430b7323632b960791b6044820152606490fd5b5034610311576020366003190112610311576020906040906001600160a01b0361062861434c565b168152600b83522054604051908152f35b50346103115760403660031901126103115761065361434c565b6024359061065f6145f5565b6001600160a01b0316908115610726576007548181106106ea57816106a77f0529afc4538720fe0b3eadc40486369ab962002d72fead1387b300c66073e7bf9360209361465a565b60075583855260038252600860408620016106c3828254614731565b905583855260038252600960408620016106de828254614731565b9055604051908152a280f35b60405162461bcd60e51b8152602060048201526014602482015273115e18d959591cc81c995cd95c9d99481c1bdbdb60621b6044820152606490fd5b60405163d92e233d60e01b8152600490fd5b5034610311576020366003190112610311576020610757600435615b64565b604051908152f35b503461031157602036600319011261031157604090600d9082906001600160a01b0361078961434c565b168152600360205220015481519068070c1cc73b00c8000081101582526020820152f35b50346103115780600319360112610311576107c66146b4565b6002546001600160a01b03908116908115610abd5733835260206003815260408420916107f960ff845460081c16614621565b604051926347cd519160e01b845282846024816001988960048301525afa938415610a6b578694610a88575b50600f018054848110610a76578461083c9161465a565b905561086382848360025416604051938492839263a9059cbb60e01b84526004840161468a565b038189867f0000000000000000000000000000000000000000000000000000000000000000165af1908115610a6b578691610a32575b5015610a20578490338252600b8352604082206108b681546146a5565b905560025416803b15610a1c5781809160446040518094819363686a38bd60e01b83523360048401528a60248401525af18015610a11576109f9575b505060405183815282828201527f4e755dd64e53a9f7a5882e2e32eb64718c2273de11e017bd47129b9fe2716d7c60403392a233600052600e815260406000209060405190610940826144fe565b600a825281019063ffffffff421682526040810193845260608101938585526080820193600085528054600160401b8110156105b1576109849188820181556146e4565b91909161059b5791518154935164ffffffffff1990941660ff91821617600894851b64ffffffff00161782559151868201559351600294909401805493516001600160a81b0319909416949091169390931791901b610100600160a81b0316179055600080516020615eeb8339815191525580f35b610a0290614519565b610a0d5783386108f2565b8380fd5b6040513d84823e3d90fd5b5080fd5b6040516312171d8360e31b8152600490fd5b90508281813d8311610a64575b610a49818361452c565b81010312610a6057610a5a9061467d565b38610899565b8580fd5b503d610a3f565b6040513d88823e3d90fd5b604051630856d68760e11b8152600490fd5b9093508281813d8311610ab6575b610aa0818361452c565b81010312610ab1575192600f610825565b600080fd5b503d610a96565b60405163632100f760e11b8152600490fd5b503461031157602036600319011261031157610ae961434c565b610af16145f5565b6001600160a01b0316801561072657600280546001600160a01b031916821790557f49424f87d81e4374ee3e8d1cf7b880966981a3cf6a7ac1d7a66c13d91756fccc8280a280f35b5034610311578060031936011261031157602060405163018b82008152f35b503461031157606036600319011261031157610b7261434c565b90610b7b614362565b610b83614484565b92610b8c6146b4565b6001600160a01b03818116918215610e5c57338314610e1c5733855260039160209483865260ff60408820541615610e0a5733875283865260ff604088205460081c1615610dd15784875283865260ff604088205416610dbf5733875283865268070c1cc73b00c80000600c60408920015410610dad578181168015159081610d99575b5015610d9157905b8780610d78575b610d4c5787159384159480610d5e575b610d4c57338852808752600c604089200198895468070c1cc73b00c7ffff198101908111610d3857610cd3969798999a55610c6c8185338861473e565b15610d1457828216895280885260408920810180546001600160a01b031916881790555b338952875260016040892001610ca681546146a5565b9055610cb183614805565b60405191858352169085600080516020615e6b833981519152883393a46148fb565b6040519081527ff3d8729e7995a6170800155589c309c92998449c63bab10c98f61f9aa007db7d33933392a46001600080516020615eeb8339815191525580f35b82821689528088526040892060040180546001600160a01b03191688179055610c90565b634e487b7160e01b8a52601160045260248afd5b60405163d5dd5c3d60e01b8152600490fd5b50818316885280875281600460408a200154161515610c2f565b5080821687528386528084604089200154161515610c1f565b503390610c18565b885250838652604087205460ff1638610c10565b60405163b55c1bad60e01b8152600490fd5b604051630ea075bf60e21b8152600490fd5b60405162461bcd60e51b815260048101879052601160248201527043616c6c6572206e6f742061637469766560781b6044820152606490fd5b60405163aba4733960e01b8152600490fd5b60405162461bcd60e51b815260206004820152601860248201527721b0b73737ba103932b3b4b9ba32b9103cb7bab939b2b63360411b6044820152606490fd5b60405162461bcd60e51b815260206004820152600f60248201526e496e76616c6964206164647265737360881b6044820152606490fd5b503461031157610ea2366143ec565b90606060018060a01b039260448460025416936040519485938492636a54814360e11b8452600484015260248301525afa908115610f5a57839284918593610eff575b506060945060405193168352602083015215156040820152f35b93509150506060823d8211610f52575b81610f1c6060938361452c565b81010312610f4e5781518181168103610a0d5760609350610f4460406020850151940161467d565b9092909138610ee5565b8280fd5b3d9150610f0f565b6040513d85823e3d90fd5b503461031157602080600319360112610a1c5760043590610f846146b4565b81156110da5733835260038152600c60408420018054838110610dad5783610fab9161465a565b905560405163a9059cbb60e01b8152818180610fcb86336004840161468a565b0381877f00000000000000000000000000000000000000000000000000000000000000006001600160a01b03165af19081156110cf57849161109a575b5015610a20576040518281527fbdd3f02d2a57fb53c1156f98470b61cb60712d485c27c36a49b1263dabcde201823392a233600052600e815260406000209060405190611054826144fe565b6007825281019063ffffffff42168252604081019384526060810193600085526080820193600085528054600160401b8110156105b157610529916001820181556146e4565b90508181813d83116110c8575b6110b1818361452c565b81010312610a0d576110c29061467d565b38611008565b503d6110a7565b6040513d86823e3d90fd5b604051631f2a200560e01b8152600490fd5b50346103115760403660031901126103115761113d60a091604061110e61434c565b9160243592600180871b0316808252600d602052611130838320548510615a66565b8152600d60205220615a4a565b50805490600181015490600281015460ff60046003840154930154169260405194855260208501526040840152606083015215156080820152f35b5034610311576020366003190112610311576020906040906001600160a01b036111a061434c565b168152600d83522054604051908152f35b50346103115780600319360112610311576001546040516370a0823160e01b81523060048201529190602090839060249082906001600160a01b03165afa9081156112395790611207575b602090604051908152f35b506020813d8211611231575b816112206020938361452c565b81010312610ab157602090516111fc565b3d9150611213565b604051903d90823e3d90fd5b50346103115780600319360112610311576002546040516001600160a01b039091168152602090f35b50346103115780600319360112610311576020600554604051908152f35b614402565b50346103115780600319360112610311576020600854604051908152f35b503461031157602080600319360112610a1c57600435906112ce6146b4565b81156110da5733835260038152600f6040842001805483811061141957836112f59161465a565b905560405163a9059cbb60e01b815281818061131586336004840161468a565b0381877f00000000000000000000000000000000000000000000000000000000000000006001600160a01b03165af19081156110cf5784916113e4575b5015610a20576040518281527f12701e4764b73009ab9826933c421483e4280410091fcc760515e0fa99fa766b823392a233600052600e81526040600020906040519061139e826144fe565b6008825281019063ffffffff42168252604081019384526060810193600085526080820193600085528054600160401b8110156105b157610529916001820181556146e4565b90508181813d8311611412575b6113fb818361452c565b81010312610a0d5761140c9061467d565b38611352565b503d6113f1565b604051636dae861760e11b8152600490fd5b503461031157604036600319011261031157611445614475565b61144d6146b4565b6802b5e3af16b188000060043510611b1957338252600360205261147760ff6040842054166159b9565b338252600360205260ff604083205460081c1615611ae4576040516323b872dd60e01b81523360048083019190915230602483015235604482015282907f00000000000000000000000000000000000000000000000000000000000000006001600160a01b03169060208160648186865af1908115610f5a578391611a9e575b50602091611507611535926159f6565b60015460405163095ea7b360e01b8152948593849283919060048035916001600160a01b031690840161468a565b03925af18015610f5a57611a65575b506001546040516370a0823160e01b8082523060048301529184906001600160a01b0316602083602481845afa928315610a11578293611a2e575b50803b15610a1c57816040518092634e538d9360e11b82528183816115aa600435306004840161468a565b03925af18015610a1157611a1a575b5050600154604051928352306004840152602090839060249082906001600160a01b03165afa80156110cf5784906119e6575b6115f6925061465a565b9182156119b157604051611609816144fe565b600a8152600260208201526001604082015260016060820152600160808201523382526003602052604082205460018060a01b039060101c168294839284935b600560ff861610156117f057605a61167060ff61166881891686615a39565b5116856148a4565b049081156117b1576001600160a01b03851615801561178e575b156116c7579061169991614731565b925b6001600160a01b0390811686526003602052604086205460101c16936116c090615159565b9392611649565b9390978861171f9160018060a01b03841689526003602052600860408a20016116f1838254614731565b90556001600160a01b03841689526003602052604089206009018054611718908490614731565b9055614731565b9760ff6001818816011161177a5760405133916001600160a01b038416917fc8c0cc32a736135fa3c2a3c467849cd282797396bc67d2d5326f7e161e601c1d9181906117729060ff8c166001018361516a565b0390a361169b565b634e487b7160e01b87526011600452602487fd5b506001600160a01b03851687526003602052604087205460081c60ff161561168a565b939490506001600160a01b0385166117cd575b6116c090615159565b6001600160a01b0394851686526003602052604086205460101c909416936117c4565b86888488936005820282810460050361199d579161183161183792605a61183c969504946118296118218388614731565b600854614731565b600855614731565b9061465a565b61465a565b90811561196357338352600d6020526040832080549290821561195c5742905b60405191611869836144fe565b8383526004356020840152426040840152606083015260016080830152600160401b85101561194857846118a291600182018155615a4a565b6119345760046080918351815560208401516001820155604084015160028201556060840151600382015501910151151560ff8019835416911617905560405192835260043560208401526040830152151560608201527f830141583677d950fe61a27b93001edff66b597c666b2c90f5fb6e79a4befd0e60803392a26001600080516020615eeb8339815191525580f35b634e487b7160e01b86526004869052602486fd5b634e487b7160e01b86526041600452602486fd5b849061185c565b60405162461bcd60e51b81526020600482015260126024820152714e6f20746f6b656e7320746f207374616b6560701b6044820152606490fd5b634e487b7160e01b86526011600452602486fd5b60405162461bcd60e51b815260206004820152600d60248201526c139bc8135595081b5a5b9d1959609a1b6044820152606490fd5b506020823d602011611a12575b81611a006020938361452c565b81010312610ab1576115f691516115ec565b3d91506119f3565b611a2390614519565b610a0d5783386115b9565b915091506020813d602011611a5d575b81611a4b6020938361452c565b81010312610ab157849051913861157f565b3d9150611a3e565b6020813d602011611a96575b81611a7e6020938361452c565b81010312610f4e57611a8f9061467d565b5038611544565b3d9150611a71565b90506020813d602011611adc575b81611ab96020938361452c565b81010312610f4e57602091611507611ad36115359361467d565b925050916114f7565b3d9150611aac565b60405162461bcd60e51b815260206004820152600d60248201526c139bdd081858dd1a5d985d1959609a1b6044820152606490fd5b60405162461bcd60e51b815260206004820152601160248201527042656c6f7720243530206d696e696d756d60781b6044820152606490fd5b503461031157806003193601126103115760206040516815245655b1025800008152f35b503461031157606036600319011261031157611b9061434c565b611b98614362565b611ba0614484565b338452600360209281845260ff604087205416610dbf57600554611c7b5733600090815282855260409020805461ff01600160b01b03191660011781556002810180546001600160a81b03191690556012810180546001600160a01b03191690554260149091015560045491600160401b8310156105b157611c37836001600080516020615e6b8339815191529501600455614493565b81929154911b9033821b9160018060a01b03901b1916179055611c5b6005546146a5565b6005555b60405192151583526001600160a01b039081169416923392a480f35b6001600160a01b03858116808852838652604088205491939160ff1615611d9d578383168015159081611d89575b5015611d825782935b8580611d69575b610d4c57851580611d4f575b610d4c5784611ce587600080516020615e6b833981519152978b3361473e565b8615611d2d5716885281865260408820820180546001600160a01b031916331790555b8752845260016040872001611d1d81546146a5565b9055611d2833614805565b611c5f565b1688528186526040882060040180546001600160a01b03191633179055611d08565b50808516895282875280600460408b200154161515611cc5565b508085168952828752808360408b200154161515611cb9565b8693611cb2565b895250818652604088205460ff1638611ca9565b604051632f212e0d60e11b8152600490fd5b50346103115780600319360112610311576040517f00000000000000000000000000000000000000000000000000000000000000006001600160a01b03168152602090f35b5034610311576020366003190112610311576040906001600160a01b03611e1961434c565b1681526003602052208061018052808080808080808080808080611eda6015600f600e600d600c600b600a600960086007600660058d549d600181015460a052600281015460e05260018060a01b0360038201541660c052600460018060a01b03910154169e01549e01549e01549e01549e01549e01549e01549e01549e01549e01549e01549e60108101546101605260118101546101a05260018060a01b0360128201541660805260138101546102405260148101546101c0520161454f565b61030052611eed6016610180510161454f565b61028052611f006017610180510161454f565b61014052611f136018610180510161454f565b6102205260ff60196101805101541661026052604051806101005260ff82161515905260ff8160081c161515602061010051015260018060a01b039060101c16604061010051015260a051606061010051015260018060a01b0360e05116608061010051015260ff60e05160a01c16151560a061010051015260c05160c061010051015260e0610100510152610100805101526101206101005101526101406101005101526101606101005101526101806101005101526101a06101005101526101c06101005101526101e0610100510152610200610100510152610220610100510152610240610100510152610160516102606101005101526101a0516102806101005101526080516102a0610100510152610240516102c06101005101526101c0516102e06101005101526120a961209361207d6120676103a080610300610100510152610100510161030051614378565b6101005161032081830391015261028051614378565b6101005161034081830391015261014051614378565b6101005161036081830391015261022051614378565b6102605115156103806101005101526101005180910390f35b503461031157602036600319011261031157600435906004548210156103115760206120ed83614493565b905460405160039290921b1c6001600160a01b03168152f35b503461031157602036600319011261031157606061212a61212561434c565b615be8565b90604051921515835260208301526040820152f35b50346103115760403660031901126103115761215961434c565b612161614475565b6121696146b4565b6001600160a01b038216156107265733835260036020526040832080549161219660ff8460081c16614621565b600d820180549068070c1cc73b00c800008083106124bd576001600160a01b03871688526003602052604088205460ff166124785768070c1cc73b00c7ffff1983019283116124645761223193929190808310612459576121f890809361465a565b9055600c8401612209828254614731565b905561221a600e8501918254614731565b90556815245655b102580000600b84015533615319565b6001600160a01b038581166000908152600360205260409020805461ff01600160b01b03191662010000600160b01b0387161760011781556002810180546001600160a81b0319169285169290921783151560a01b60ff60a01b16179091556012810180546001600160a01b0319163317905542601490910155600454939190600160401b8510156105b1576122cf85600160139701600455614493565b81546001600160a01b0389811660039390931b92831b921b19161790556005546122f8906146a5565b60055515612426576001600160a01b03908116865260036020819052604087200180546001600160a01b0319169186169190911790555b60101c6001600160a01b031680612406575b5061234b83614805565b612354836148fb565b0161235f81546146a5565b908190556040519081526001600160a01b0382169033907f30016ed357540281a6cff6143637e72b48e105d85d15df66b0aaffbd2379024090602090a333600052600e6020526040600020906040516123b7816144fe565b60098152602081019063ffffffff421682526040810160008152606082019460008652608083019460018060a01b031685528054600160401b8110156105b157610529916001820181556146e4565b845260036020526001604085200161241e81546146a5565b905538612341565b6001600160a01b03908116865260036020526040862060040180546001600160a01b03191691861691909117905561232f565b506121f8828061465a565b634e487b7160e01b88526011600452602488fd5b60405162461bcd60e51b815260206004820152601e60248201527f5375622d6163636f756e7420616c7265616479207265676973746572656400006044820152606490fd5b6040516307db32bd60e31b8152600490fd5b50346103115780600319360112610311576020604051600a8152f35b5034610311578060031936011261031157546040516001600160a01b039091168152602090f35b503461031157612521366143ec565b9061252a6145f5565b6125326146b4565b60ff9182600a54161561281e576125499082614731565b90600454808311612816575b508391815b8181106127d65750600991825494841515806127cd575b156127b4574263ffffffff169087835b85811061262857509493929150505b8181106125ea57837f7f4a5b69bea14a6fc05326671a02e90d4a88855c83a18529c260057b1bf61a856040888884885560ff19600a5416600a5582519182526020820152a16001600080516020615eeb8339815191525580f35b61261f919293506125fa81614493565b9054600391821b1c6001600160a01b03168852602052604087206011018790556146a5565b90859291612590565b61263181614493565b9054600391821b1c6001600160a01b031680845260208281526040852060110154909291908a8c8e83156127a357927fb05abf391bcc5d117d31727729f0da5b0e3eb5f91a478372995efa128696c4069260406126998194612694858a996148a4565b6148b7565b9a868152888a526008988c6126b48b85852001918254614731565b90558782528a5220016126c88a8254614731565b905581519081528887820152a2600052600e82526040600020604051926126ee846144fe565b600484528301878152604084019586526060840193600085526080810192600084528054600160401b8110156105b15761272f9060019283820181556146e4565b91909161059b5791518154935164ffffffffff19909416908a161792851b64ffffffff00169290921782559551958101959095559151600294909401805492516001600160a81b03199093169486169490941791901b610100600160a81b03161790915561279c906146a5565b8890612581565b5050505050505061279c91506146a5565b506127c185600854614731565b60085590859291612590565b50851515612571565b9261280b612811916127e786614493565b9054600391821b1c6001600160a01b03168952602052604088206011015490614731565b936146a5565b61255a565b915038612555565b60405163418826bf60e11b8152600490fd5b503461031157806003193601126103115760206040516802b5e3af16b18800008152f35b50346103115780600319360112610311576020600654604051908152f35b50346103115761288a6128843661444b565b91615ca1565b90604051916040830191604084528051809352606094858501936020809301915b8181106128bf575050508380955001520390f35b8251805160ff90811688528186015163ffffffff1686890152604080830151908901528982015116898801526080908101516001600160a01b03169087015260a090950194918301916001016128ab565b50346103115780600319360112610311576129296145f5565b600080546001600160a01b0319811682556001600160a01b0316600080516020615e8b8339815191528280a380f35b5034610311578060031936011261031157600154604051623144bd60e31b81526001600160a01b039091169160208083600481875afa928315610a115782936129ff575b5080600494604051958680926310f4cba760e21b82525afa91821561123957916129cf575b604080945051928352820152f35b80915083813d83116129f8575b6129e6818361452c565b81010312610ab15760409251906129c1565b503d6129dc565b9392508084813d8311612a29575b612a17818361452c565b81010312610ab157925191928061299c565b503d612a0d565b5034610311576020366003190112610311576040906001600160a01b03612a5561434c565b1681526003602052208080808080808080808080808054600182015461020052600282015461012052601460076011600f600d600c600b600a60096008600660058d600360018060a01b03910154169d600460018060a01b03910154169e01549e01549e01549e01549e01549e01549e01549e01549e01549e01549e01549e60018060a01b036012820154166102c05260138101546102e05201546101e052604051806102a05260ff82161515905260ff8160081c16151560206102a051015260018060a01b039060101c1660406102a05101526102005160606102a051015260018060a01b03610120511660806102a051015260ff6101205160a01c16151560a06102a051015260c06102a051015260e06102a05101526101006102a05101526101206102a05101526101406102a05101526101606102a05101526101806102a05101526101a06102a05101526101c06102a05101526101e06102a05101526102006102a05101526102206102a05101526102406102a05101526102c0516102606102a05101526102e0516102806102a05101526101e0516102a0805101526102c06102a051f35b503461031157602036600319011261031157612c186146b4565b600435156110da5733815260036020526040812060ff815460081c1615610e0a57600881018054600435811061302657612c55906004359061465a565b9055600a8101612c686004358254614731565b90556040516370a0823160e01b8082523060048301526001600160a01b037f000000000000000000000000000000000000000000000000000000000000000081169291908590602084602481885afa938415610a11578294612fef575b5060015416803b15610a1c578180916024604051809481936372424d9960e11b835260043560048401525af18015610a1157612fd7575b505060209060246040518095819382523060048301525afa80156110cf578490612fa3575b612d2b925061465a565b600a810290808204600a1481151715612f8f57612d4c90606483049061465a565b91600f8101612d5f606484048254614731565b905560108101612d73606484048254614731565b90556040516064830481527f2b1d2104e84dd4dabb0cca024171f783ab1e1c9dc1af9d60a2361596653a99c460203392a233600052600e60205260406000209060405191612dc0836144fe565b600683524263ffffffff16602084015260648404604084015260006060840181905260808401528054600160401b8110156105b157612e04916001820181556146e4565b61059b5782518154602085015164ffffffffff1990911660ff92831617600891821b64ffffffff001617835560408501516001840155606085015160029390930180546080909601516001600160a81b031990961693909216929092179390911b610100600160a81b031692909217909155600b8101547f8f7262d5a031d4d671e1fdb0cddcd26d37185226f9e82f2f18877141ac1963eb91858215612f83575081851115612f7a57600d82915b82612ed881612ec1818b61465a565b96600c8501612ed1838254614731565b905561465a565b600b830155612eec600e8301918254614731565b90555b01612efb838254614731565b9055612f15604051928392606433970488600435866148d7565b0390a233600052600e6020526040600020604051612f32816144fe565b60058152602081019063ffffffff42168252604081019384526060810193600085526080820193600085528054600160401b8110156105b157610529916001820181556146e4565b600d8591612eb2565b909150600d8592612eef565b634e487b7160e01b84526011600452602484fd5b506020823d602011612fcf575b81612fbd6020938361452c565b81010312610ab157612d2b9151612d21565b3d9150612fb0565b612fe090614519565b612feb578438612cfc565b8480fd5b915092506020813d60201161301e575b8161300c6020938361452c565b81010312610ab1578590519238612cc5565b3d9150612fff565b60405163208975e760e21b8152600490fd5b5034610311576080366003190112610311576004356001600160401b038111610a1c5761306990369060040161441e565b91906024356001600160401b038111610f4e5761308a90369060040161441e565b6044356001600160401b038111612feb576130a990369060040161441e565b90916064356001600160401b0381116135b8576130ca90369060040161441e565b94909733885260036020526130e560ff60408a2054166159b9565b338852600360205260408820966001600160401b0382116135a457819061310f60158a01546144c4565b601f8111613554575b508990601f83116001146134e8578a926134dd575b50508160011b916000199060031b1c19161760158701555b6001600160401b0382116134c957819061316260168801546144c4565b601f8111613476575b508790601f831160011461340a5788926133ff575b50508160011b916000199060031b1c19161760168501555b60178401916001600160401b0382116119485781906131b784546144c4565b601f81116133af575b508690601f831160011461334957879261333e575b50508160011b916000199060031b1c19161790555b60188201906001600160401b03811161332a5761320782546144c4565b601f81116132e5575b5083601f821160011461327e578190859660199692613273575b50508160011b916000199060031b1c19161790555b01805460ff19166001179055337fbe4ec58a792f909e102ee3d745d0c3b34a4d437a54d903c4db098d31c556422f8280a280f35b01359050388061322a565b8285526020852090601f198316865b8181106132cd57509683929160019460199899106132b3575b505050811b01905561323f565b0135600019600384901b60f8161c191690553880806132a6565b9192602060018192868c01358155019401920161328d565b82855260208520601f830160051c81019160208410613320575b601f0160051c01905b8181106133155750613210565b858155600101613308565b90915081906132ff565b634e487b7160e01b84526041600452602484fd5b0135905038806131d5565b84885260208820925090601f198416885b818110613397575090846001959493921061337d575b505050811b0190556131ea565b0135600019600384901b60f8161c19169055388080613370565b9193602060018192878701358155019501920161335a565b90915083875260208720601f840160051c810191602085106133f5575b90601f859493920160051c01905b8181106133e757506131c0565b8881558493506001016133da565b90915081906133cc565b013590503880613180565b60168801895260208920925090601f198416895b81811061345e5750908460019594939210613444575b505050811b016016850155613198565b0135600019600384901b60f8161c19169055388080613434565b9193602060018192878701358155019501920161341e565b90915060168701885260208820601f840160051c810191602085106134bf575b90601f859493920160051c01905b8181106134b1575061316b565b8981558493506001016134a4565b9091508190613496565b634e487b7160e01b87526041600452602487fd5b01359050388061312d565b60158a018b5260208b20925090601f1984168b5b81811061353c5750908460019594939210613522575b505050811b016015870155613145565b0135600019600384901b60f8161c19169055388080613512565b919360206001819287870135815501950192016134fc565b909150601589018a5260208a20601f840160051c81016020851061359d575b90849392915b601f830160051c8201811061358f575050613118565b8c8155859450600101613579565b5080613573565b634e487b7160e01b89526041600452602489fd5b8680fd5b503461031157806003193601126103115760606006546007546008549060405192835260208301526040820152f35b503461031157602036600319011261031157600435338252600d60205261361760408320548210615a66565b338252600d602052600361362e8260408520615a4a565b5061363f60ff600483015416615aa2565b01805461367e574290556040519081524260208201527f68733b6f87b2a7c87d5bcf8c0a0950f2985cc261d9ab6defddca8d7bd05eba4360403392a280f35b60405162461bcd60e51b815260206004820152600e60248201526d105b1c9958591e481b1bd8dad95960921b6044820152606490fd5b5034610311576020366003190112610311576020610757600435615ae1565b5034610311578060031936011261031157602060405160028152f35b5034610311576020366003190112610311576020610757600435615ba6565b50346103115780600319360112610311576020600454604051908152f35b5034610311576020366003190112610311576137466146b4565b338152600d60205261375f604082205460043510615a66565b338152600d60205261377660043560408320615a4a565b506004810180549061378a60ff8316615aa2565b6003830154918215928315613ce8575b5060ff1916905560018254920154908160011b9180830460021490151715612f8f5782918115613b2657600584028481046005148515171561199d57338652600360205260408620546064909104906001600160a01b039060101c811680151580613b12575b613a7e575b5050505b6040516370a0823160e01b8082523060048301526001600160a01b037f000000000000000000000000000000000000000000000000000000000000000081169591929188916020846024818b5afa938415610f5a578394613a4a575b5060015416803b15610f4e576024839260405194859384926372424d9960e11b845260048401525af18015613a3f57613a2c575b50604051918252306004830152602082602481885afa8015613a215787906139ed575b6138c6925061465a565b908592806139e4575b6139c2575b5080613918575b600080516020615eab8339815191529250613900604051928392339660043585615553565b0390a26001600080516020615eeb8339815191525580f35b6020604051809463a9059cbb60e01b825281888161393a87336004840161468a565b03925af19283156139b757859361396a575b50613965600080516020615eab833981519152936159f6565b6138db565b92506020833d6020116139af575b816139856020938361452c565b81010312612feb576139656139a8600080516020615eab8339815191529461467d565b935061394c565b3d9150613978565b6040513d87823e3d90fd5b8092506139ce9161465a565b906139db82600854614731565b600855386138d4565b508082116138cf565b506020823d602011613a19575b81613a076020938361452c565b81010312610ab1576138c691516138bc565b3d91506139fa565b6040513d89823e3d90fd5b613a3890979197614519565b9538613899565b6040513d8a823e3d90fd5b9093506020813d602011613a76575b81613a666020938361452c565b81010312610f4e57519238613865565b3d9150613a59565b82602091613aa89360015416908a60405180968195829463a9059cbb60e01b84526004840161468a565b03925af1908115613a21578791613ad8575b50613ac7575b8080613805565b613ad1919361465a565b9138613ac0565b90506020813d602011613b0a575b81613af36020938361452c565b810103126135b857613b049061467d565b38613aba565b3d9150613ae6565b5080885260ff604089205460081c16613800565b92604094929451613b36816144fe565b60058152600260208201526001604082015260016060820152600160808201523384526003602052604084205460018060a01b039060101c169284935b600560ff86161015613cdb576064613b9a60ff613b9281891687615a39565b5116866148a4565b048015613c9d576001600160a01b038216151580613c7b575b613be4575b506001600160a01b0390811686526003602052604086205460101c1693613bde90615159565b93613b73565b60015460405163a9059cbb60e01b81529060209082906001600160a01b0316818b81613c14888a6004840161468a565b03925af1908115613a3f578891613c3d575b5015613bb857613c36919861465a565b9638613bb8565b90506020813d602011613c73575b81613c586020938361452c565b81010312613c6f57613c699061467d565b38613c26565b8780fd5b3d9150613c4b565b506001600160a01b03821687526003602052604087205460081c60ff16613bb3565b50936001600160a01b03851680613cb9575b50613bde90615159565b86526003602052604086205460101c6001600160a01b03169450613bde613caf565b5092505092939193613809565b63018b8200810180911161199d574210613d02573861379a565b60405162461bcd60e51b815260206004820152602660248201527f5374696c6c206c6f636b65643a2031302d6d6f6e746820706572696f64206e6f6044820152653a1037bb32b960d11b6064820152608490fd5b503461031157613d7e613d68366143ec565b90613d716145f5565b613d796146b4565b61556f565b6001600080516020615eeb8339815191525580f35b503461031157604036600319011261031157613dad61434c565b60243590613db96145f5565b6001600160a01b031690811561072657600854818110613e1d5781613e017fba443e8671971c36cdeb74f87321041daff421230cbc5e36cb835269ed1d8b7e9360209361465a565b60085583855260038252600860408620016106c3828254614731565b60405162461bcd60e51b8152602060048201526012602482015271115e18d959591cc818591b5a5b881c1bdbdb60721b6044820152606490fd5b5034610311576020366003190112610311576020906040906001600160a01b03613e7f61434c565b168152600c83522054604051908152f35b50346103115780600319360112610311576001546040516001600160a01b039091168152602090f35b503461031157602036600319011261031157613ed361434c565b613edb6145f5565b6001600160a01b0316801561072657600180546001600160a01b031916821790556040519081527ffa7bd61554593f4e69cdffd255d3fe947352b02c7d3ec68059384934e4cfd47c90602090a180f35b503461031157602080600319360112610a1c576001600160a01b03613f4e61434c565b16808352600d8083526040842054928492855b8581106140c75750613f7284615e38565b94613f7c85615e38565b91613f8686615e38565b94613f99613f9388615e38565b97615e38565b988091815b85811061400a5750613fcf8a6140068d613ff88d613fea8e613fdc8f8f6040519a8b9a60a08c5260a08c01906143b8565b918a8303908b01526143b8565b9087820360408901526143b8565b9085820360608701526143b8565b9083820360808501526143b8565b0390f35b8b8b8b8b8a8c8a60ff60046140288a60408e8e878252885220615a4a565b50015416614046575b50505050505050614041906146a5565b613f9e565b946140b896946140b2948c97948a61407c819f8f8f9e6140419f8260409160039c869e61407596525220615a4a565b5096615305565b5261408986855492615305565b5261409985600185015492615305565b526140a984600284015492615305565b52015492615305565b526146a5565b9390508b8b8b8b8a8c8a614031565b81875283835260ff60046140de8360408b20615a4a565b500154166140f5575b6140f0906146a5565b613f61565b936141026140f0916146a5565b9490506140e7565b503461031157602036600319011261031157614194906040906001600160a01b0361413361434c565b16815260036020522060ff6019820154166141be6141536015840161454f565b926141b06141636016830161454f565b916141a261417f60186141786017850161454f565b930161454f565b9360405198899860a08a5260a08a0190614378565b9088820360208a0152614378565b908682036040880152614378565b908482036060860152614378565b90151560808301520390f35b50346103115780600319360112610311576141e36146b4565b3381526003602052604081205460ff811615610e0a5760081c60ff166142b4576040516323b872dd60e01b815233600482015230602482015268070c1cc73b00c800006044820152602081606481857f00000000000000000000000000000000000000000000000000000000000000006001600160a01b03165af1908115610a1157829161427b575b5015610a2057613d7e336148fb565b90506020813d82116142ac575b816142956020938361452c565b81010312610a1c576142a69061467d565b3861426c565b3d9150614288565b604051637cdf305160e11b8152600490fd5b50346103115760203660031901126103115760409081906001600160a01b036142ed61434c565b1681526003602052206010600f82015491015482519182526020820152f35b5034610311578060031936011261031157602060405168070c1cc73b00c800008152f35b905034610a1c5781600319360112610a1c576020906007548152f35b600435906001600160a01b0382168203610ab157565b602435906001600160a01b0382168203610ab157565b919082519283825260005b8481106143a4575050826000602080949584010152601f8019910116010190565b602081830181015184830182015201614383565b90815180825260208080930193019160005b8281106143d8575050505090565b8351855293810193928101926001016143ca565b6040906003190112610ab1576004359060243590565b34610ab1576000366003190112610ab1576020604051601e8152f35b9181601f84011215610ab1578235916001600160401b038311610ab15760208381860195010111610ab157565b6060906003190112610ab1576004356001600160a01b0381168103610ab157906024359060443590565b602435908115158203610ab157565b604435908115158203610ab157565b6004548110156144ae57600460005260206000200190600090565b634e487b7160e01b600052603260045260246000fd5b90600182811c921680156144f4575b60208310146144de57565b634e487b7160e01b600052602260045260246000fd5b91607f16916144d3565b60a081019081106001600160401b038211176105b157604052565b6001600160401b0381116105b157604052565b601f909101601f19168101906001600160401b038211908210176105b157604052565b9060405191826000825492614563846144c4565b9081845260019485811690816000146145d2575060011461458f575b505061458d9250038361452c565b565b9093915060005260209081600020936000915b8183106145ba57505061458d9350820101388061457f565b855488840185015294850194879450918301916145a2565b91505061458d94506020925060ff191682840152151560051b820101388061457f565b6000546001600160a01b0316330361460957565b60405163118cdaa760e01b8152336004820152602490fd5b1561462857565b60405162461bcd60e51b815260206004820152600a6024820152694e6f742061637469766560b01b6044820152606490fd5b9190820391821161466757565b634e487b7160e01b600052601160045260246000fd5b51908115158203610ab157565b6001600160a01b039091168152602081019190915260400190565b60001981146146675760010190565b600080516020615eeb83398151915260028154146146d25760029055565b604051633ee5aeb560e01b8152600490fd5b80548210156144ae576000526003602060002091020190600090565b1561470757565b60405162461bcd60e51b81526020600482015260026024820152615a4160f01b6044820152606490fd5b9190820180921161466757565b6001600160a01b039081166000818152600360205260409020805461ff01600160b01b03191660109490941b62010000600160b01b03169390931760011783556002830180546001600160a81b0319169483169490941794151560a01b60ff60a01b16949094179092556012810180546001600160a01b031916905542601490910155600454909190600160401b8110156105b1578060016147e39201600455614493565b909283549160031b92831b921b19161790556148006005546146a5565b600555565b60018060a01b039182600092168252600391602092808452600291604091838383200154958787169560ff96898860a09a8b1c16915b16908115614897571561487a5780855283835260058686200161485e81546146a5565b90555b8452828252858585200154898089838c1c16921661483b565b80855283835260068686200161489081546146a5565b9055614861565b5050975050505050505050565b8181029291811591840414171561466757565b81156148c1570490565b634e487b7160e01b600052601260045260246000fd5b9192608093969594919660a084019784526020840152604083015260608201520152565b600154604051623144bd60e31b81526001600160a01b0390911692909160009190602084600481885afa938415610f5a578394615125575b5083156151115760405163095ea7b360e01b8152600481019590955268070c1cc73b00c8000060248087019190915294602081604481877f00000000000000000000000000000000000000000000000000000000000000006001600160a01b03165af180156110cf576150d8575b506001546040516370a0823160e01b808252306004830152916001600160a01b03166020828981845afa918215610a6b5786926150a4575b50803b15610a60578568070c1cc73b00c8000060448a836040519586948593634e538d9360e11b85523060048601528401525af18015610a6b57615091575b506001546040519283523060048401526020908390899082906001600160a01b03165afa80156139b757859061505d575b614a53925061465a565b601e6b030e68b6d6e0acc82863363160251b8690048181029692939291818804149015171561504a57614ac2611821614aa7606489046118378181816b030e68b6d6e0acc82863363160251b89900461465a565b614ab660648a04600654614731565b60065560648904614731565b6008556001600160a01b038281168652600360205260408620805461ff001916610100178082556815245655b102580000600b9092019190915560019587959092909160101c165b600a60ff8816111580615038575b15614ea757614b39876b030e68b6d6e0acc82863363160251b86900461517f565b958615614e7d5786614b4a91614731565b6001600160a01b0382168952600360205260408920805491979160081c60ff169081614e66575b5015614d3d576001600160a01b03821689526003602052604089206008018054614b9c908390614731565b90556001600160a01b03821689526003602052604089206009018054614bc3908390614731565b90556040516001600160a01b0387811691908416907fb16479bdac5b7099d9236d6fc6be3b30ff54188f4fd961686e1e1dc7ecb880379080614c06868e8361516a565b0390a360018060a01b038216600052600e602052604060002060405191614c2c836144fe565b600183524263ffffffff166020840152604083015260ff891660608301526001600160a01b03871660808301528054600160401b811015614d2857614c76916001820181556146e4565b614d135781518154602084015164ffffffffff1990911660ff92831617600891821b64ffffffff001617835560408401516001840155606084015160029390930180546080909501516001600160a81b031990951693909216929092179290911b610100600160a81b03169190911790555b6001600160a01b0390811688526003602052604088205460101c1695614d0d90615159565b95614b0a565b8b634e487b7160e01b60005260006004526000fd5b8c634e487b7160e01b60005260416004526000fd5b614d4981600854614731565b6008556040516001600160a01b038316907f117ca0cd821ecb7eadfea2d6927a67853908bdc351a386235215f5ab6071bfed9080614d88858d8361516a565b0390a260018060a01b038216600052600e602052604060002060405191614dae836144fe565b600283524263ffffffff166020840152604083015260ff89166060830152600060808301528054600160401b811015614d2857614df0916001820181556146e4565b614d135781518154602084015164ffffffffff1990911660ff92831617600891821b64ffffffff001617835560408401516001840155606084015160029390930180546080909501516001600160a81b031990951693909216929092179290911b610100600160a81b0316919091179055614ce8565b600191500154614e75896152cb565b111538614b71565b6001600160a01b0391821689526003602052604089205460101c90911696909550614d0d90615159565b5092955096959093507f8af2c013a5a55c6d3ad5423522fe76c6f2eb831b5e23318276b3c678cb457fc99280606483041161501f575b506040516001600160a01b0386169490928392614f1992606490910491829182916b030e68b6d6e0acc82863363160251b9190910490866148d7565b0390a260018060a01b0316600052600e602052604060002060405191614f3e836144fe565b600083526020830163ffffffff42168152604084019068070c1cc73b00c800008252606085019460008652608081019460008652805490600160401b82101561500a5790614f91916001820181556146e4565b949094614ff65750518354915164ffffffffff1990921660ff91821617600892831b64ffffffff00161784559151600184015593516002909201805493516001600160a81b031990941692909116919091179190921b610100600160a81b0316179055565b634e487b7160e01b60005260006004526000fd5b85634e487b7160e01b60005260416004526000fd5b61182161502f916064840461465a565b60085538614edd565b506001600160a01b0381161515614b18565b634e487b7160e01b855260116004528685fd5b506020823d602011615089575b816150776020938361452c565b81010312610ab157614a539151614a49565b3d915061506a565b61509d90959195614519565b9338614a18565b9091506020813d6020116150d0575b816150c06020938361452c565b81010312610a60575190386149d9565b3d91506150b3565b6020813d602011615109575b816150f16020938361452c565b81010312610a0d576151029061467d565b50386149a1565b3d91506150e4565b634e487b7160e01b83526012600452602483fd5b9093506020813d602011615151575b816151416020938361452c565b81010312610f4e57519238614933565b3d9150615134565b60ff1660ff81146146675760010190565b6020909392919360ff60408201951681520152565b9060ff16600181146152b05760028114615295576003811461527a576004908181146152635760058114615246576006811461524657600781146152295760088114615229576009811461520c57600a146151db575050600090565b8160011b91808304600214901517156151f757506103e8900490565b601190634e487b7160e01b6000525260246000fd5b508160011b91808304600214901517156151f757506103e8900490565b506003820291808304600314901517156151f757506103e8900490565b506005820291808304600514901517156151f757506103e8900490565b50818004600114821517156151f757506064900490565b508060011b9080820460021490151715614667576064900490565b50600581029080820460051490151715614667576064900490565b50601481029080820460141490151715614667576064900490565b60ff16600181146152e857600410156152e357600590565b600290565b50600090565b6001600160401b0381116105b15760051b60200190565b80518210156144ae5760209160051b010190565b8180615530575b615529578115918280615504575b6154fc576005549260018085018095116146675761534b856152ee565b9061536660409661535e8851948561452c565b8084526152ee565b9260209283810194601f190136863760008087156154dd576001600160a01b03898116835260038088528b8420015416965b6001600160a01b03978816806154c9575b50505b818110615427575050508061540c575b6154025750826153e5575b50506153de57815163c5bb5bcd60e01b8152600490fd5b9160009150565b8160039293508416600052526004836000200154161538806153c7565b9594505050509190565b508285166000526003825282600387600020015416156153bc565b8661543b615434836146a5565b9285615305565b51168060005260038088528b6000209189828401541680156154b6578a60048095015416156154a257908a93929161547c615475886146a5565b9789615305565b5260005288528b60002001541661549c615495846146a5565b9385615305565b526153ac565b509b50505050505050505050505090600090565b509a505050505050509594505050509190565b90925085928451156144ae575238806153a9565b6001600160a01b038981168352600387528a8320600401541696615398565b509160009150565b506001600160a01b03828116600090815260036020526040902060040154161561532e565b9160019150565b5060018060a01b0380821660005260036020526003604060002001541615615320565b9094939260609260808301968352602083015260408201520152565b919060ff90600a828154166159a857600690815492831561596f576000908184556046850285810460460361595b5760649004956155ad878761465a565b946155bd6009938785558b614731565b916004948554808511615953575b50809b805b8581106158be57508c156158735793944263ffffffff16945b86811061562a5750505050505050509461562591600080516020615ecb8339815191529596600160ff1982541617905560405194859485615553565b0390a1565b82848f8e8c9161563986614493565b9290549260039360018060a01b0391851b1c16908187526020928484528c6040968b888b209283549a60089b8c1c161561585e57600584015490840154808210156158565750935b6007938401548086111561584e57615699908661465a565b955b8615615838578a91612694886156b0936148a4565b9b8781528989528c6156c88d84842001918254614731565b905587815289895220016156dd8b8254614731565b9055808402908482040361582257927fbee8f46206dc051d674f6ca1e618efe407d83b27ffbe3540b916edfd34e428e1928892838f88978882528b8b5261572b601184842001918254614731565b90558781528a8a5220015581519081528986820152a28852600e815282882090835192615757846144fe565b83528201928b84528201948552606082019488865260808301938985528254600160401b81101561580e576157939060019485820181556146e4565b9490946157fb57518454915164ffffffffff19909216908c161790861b64ffffffff001617835551908201559251600293909301805491516001600160a81b031990921693881693909317911b610100600160a81b03161790556157f6906146a5565b6155e9565b8f8b80602492634e487b7160e01b825252fd5b8f8b6041602492634e487b7160e01b835252fd5b50508f8b6011602492634e487b7160e01b835252fd5b505050505050505050505050506157f6906146a5565b508b9561569b565b905093615681565b5050505050505050505050506157f6906146a5565b5096915050600080516020615ecb8339815191529899508594506158a09293506118219150608097614731565b600855556040519182528060208301528060408301526060820152a1565b6158c781614493565b9054600391821b1c6001600160a01b0316845260205260408320805460081c8516156159495760076005820154878301548082106000146159415750915b015490818111615920575b505061591b906146a5565b6155d0565b9e61591b929f615939926159339161465a565b90614731565b9d9038615910565b905091615905565b5061591b906146a5565b9350386155cb565b634e487b7160e01b83526011600452602483fd5b60405162461bcd60e51b8152602060048201526011602482015270115b5c1d1e48189a5b985c9e481c1bdbdb607a1b6044820152606490fd5b60405162c9487960e41b8152600490fd5b156159c057565b60405162461bcd60e51b815260206004820152600e60248201526d139bdd081c9959da5cdd195c995960921b6044820152606490fd5b156159fd57565b60405162461bcd60e51b81526020600482015260146024820152731554d115081d1c985b9cd9995c8819985a5b195960621b6044820152606490fd5b9060058110156144ae5760051b0190565b80548210156144ae576000526005602060002091020190600090565b15615a6d57565b60405162461bcd60e51b815260206004820152600d60248201526c092dcecc2d8d2c840d2dcc8caf609b1b6044820152606490fd5b15615aa957565b60405162461bcd60e51b815260206004820152601060248201526f105b1c9958591e481d5b9cdd185ad95960821b6044820152606490fd5b6002546001600160a01b0316908115615b5d576020906024604051809481936347cd519160e01b835260048301525afa908115615b5157600091615b23575090565b906020823d8211615b49575b81615b3c6020938361452c565b8101031261031157505190565b3d9150615b2f565b6040513d6000823e3d90fd5b5050600090565b6002546001600160a01b0316908115615b5d576020906024604051809481936375b1f0e160e11b835260048301525afa908115615b5157600091615b23575090565b6002546001600160a01b0316908115615b5d57602090602460405180948193631d61396160e11b835260048301525afa908115615b5157600091615b23575090565b6002546001600160a01b03908116918215615c9357166024600082815260206003815280600f60408420015495604051948580926347cd519160e01b8252600160048301525afa928315610a11578293615c63575b5060ff9160036040928596835252205460081c169081615c5b575092565b905082101592565b9080935081813d8311615c8c575b615c7b818361452c565b81010312610a1c57519160ff615c3d565b503d615c71565b505050600090600090600090565b929060018060a01b0380600095168552602090600e82526040908187209283549687158015615e2e575b615df257615cd9868961465a565b80821015615dea5750935b615ced856152ee565b95615cfa8551978861452c565b858752601f19615d09876152ee565b01838b5b828110615db8575050508699805b878110615d2d57505050505050505050565b6000198b018b811161595b5790615d54615d4e8261183787615db39661465a565b866146e4565b5087895191615d62836144fe565b8054600260ff92838316865263ffffffff600893841c168c8701528d600182015490870152015491821660608501521c166080820152615da2828c615305565b52615dad818b615305565b506146a5565b615d1b565b8751615dc3816144fe565b8d81528d838201528d898201528d60608201528d608082015282828c010152018490615d0d565b905093615ce4565b5082519697959695945085019250506001600160401b03821184831017615e1a575281529190565b634e487b7160e01b83526041600452602483fd5b5087861015615ccb565b90615e42826152ee565b615e4f604051918261452c565b8281528092615e60601f19916152ee565b019060203691013756fe34ff37874d7443037a85c6f390fe14f2ae3e8767355de0e63891ad4367c275398be0079c531659141344cd1fd0a4f28419497f9722a3daafe3b4186f6b6457e0dcfd2b4017d03f7e541021db793b2f9b31e4acdee005f789e52853c390e3e962a0ea5705200c9ffd36dc735fef1592c3234bb7e311fc1b0a444f6370d0620eae9b779b17422d0df92223018b32b4d1fa46e071723d6817e2486d003becc55f00a2646970667358221220d06bb09ef0c4946aaaa94e9f60bf3a34fde88ad2e6b84e852b43e83f9a475a7064736f6c63430008140033","opcodes":"PUSH1 0xA0 CALLVALUE PUSH3 0x175 JUMPI PUSH1 0x1F PUSH3 0x60E6 CODESIZE DUP2 SWAP1 SUB SWAP2 DUP3 ADD PUSH1 0x1F NOT AND DUP4 ADD SWAP2 PUSH1 0x1 PUSH1 0x1 PUSH1 0x40 SHL SUB DUP4 GT DUP5 DUP5 LT OR PUSH3 0x17A JUMPI DUP1 DUP5 SWAP3 PUSH1 0x40 SWAP5 DUP6 MSTORE DUP4 CODECOPY DUP2 ADD SUB SLT PUSH3 0x175 JUMPI PUSH3 0x5A PUSH1 0x20 PUSH3 0x52 DUP4 PUSH3 0x190 JUMP JUMPDEST SWAP3 ADD PUSH3 0x190 JUMP JUMPDEST SWAP1 CALLER ISZERO PUSH3 0x15C JUMPI PUSH1 0x0 SLOAD SWAP2 PUSH1 0x1 DUP1 PUSH1 0xA0 SHL SUB NOT SWAP3 CALLER DUP5 DUP3 AND OR PUSH1 0x0 SSTORE PUSH1 0x40 MLOAD SWAP1 PUSH1 0x1 DUP1 PUSH1 0xA0 SHL SUB SWAP4 DUP5 SWAP2 DUP3 CALLER SWAP2 AND PUSH32 0x8BE0079C531659141344CD1FD0A4F28419497F9722A3DAAFE3B4186F6B6457E0 PUSH1 0x0 DUP1 LOG3 PUSH1 0x1 PUSH32 0x9B779B17422D0DF92223018B32B4D1FA46E071723D6817E2486D003BECC55F00 SSTORE AND SWAP1 DUP2 ISZERO DUP1 ISZERO PUSH3 0x151 JUMPI JUMPDEST PUSH3 0x142 JUMPI POP PUSH1 0x80 MSTORE AND SWAP1 PUSH1 0x1 SLOAD AND OR PUSH1 0x1 SSTORE PUSH1 0x40 MLOAD PUSH2 0x5F40 SWAP1 DUP2 PUSH3 0x1A6 DUP3 CODECOPY PUSH1 0x80 MLOAD DUP2 DUP2 DUP2 PUSH2 0x869 ADD MSTORE DUP2 DUP2 PUSH2 0xFD0 ADD MSTORE DUP2 DUP2 PUSH2 0x131A ADD MSTORE DUP2 DUP2 PUSH2 0x14B6 ADD MSTORE DUP2 DUP2 PUSH2 0x1DC5 ADD MSTORE DUP2 DUP2 PUSH2 0x2C88 ADD MSTORE DUP2 DUP2 PUSH2 0x3827 ADD MSTORE DUP2 DUP2 PUSH2 0x4234 ADD MSTORE PUSH2 0x496C ADD MSTORE RETURN JUMPDEST PUSH4 0xD92E233D PUSH1 0xE0 SHL DUP2 MSTORE PUSH1 0x4 SWAP1 REVERT JUMPDEST POP DUP4 DUP4 AND ISZERO PUSH3 0xDE JUMP JUMPDEST PUSH1 0x40 MLOAD PUSH4 0x1E4FBDF7 PUSH1 0xE0 SHL DUP2 MSTORE PUSH1 0x0 PUSH1 0x4 DUP3 ADD MSTORE PUSH1 0x24 SWAP1 REVERT JUMPDEST PUSH1 0x0 DUP1 REVERT JUMPDEST PUSH4 0x4E487B71 PUSH1 0xE0 SHL PUSH1 0x0 MSTORE PUSH1 0x41 PUSH1 0x4 MSTORE PUSH1 0x24 PUSH1 0x0 REVERT JUMPDEST MLOAD SWAP1 PUSH1 0x1 PUSH1 0x1 PUSH1 0xA0 SHL SUB DUP3 AND DUP3 SUB PUSH3 0x175 JUMPI JUMP INVALID PUSH2 0x320 DUP1 PUSH1 0x40 MSTORE PUSH1 0x4 CALLDATASIZE LT ISZERO PUSH2 0x14 JUMPI PUSH1 0x0 DUP1 REVERT JUMPDEST PUSH1 0x0 SWAP1 DUP2 CALLDATALOAD PUSH1 0xE0 SHR SWAP1 DUP2 PUSH4 0x266F044 EQ PUSH2 0x4330 JUMPI POP DUP1 PUSH4 0x39CCC26 EQ PUSH2 0x430C JUMPI DUP1 PUSH4 0x3C3ECB7 EQ PUSH2 0x42C6 JUMPI DUP1 PUSH4 0xF15F4C0 EQ PUSH2 0x41CA JUMPI DUP1 PUSH4 0xF53A470 EQ PUSH2 0x410A JUMPI DUP1 PUSH4 0x1747E0B0 EQ PUSH2 0x3F2B JUMPI DUP1 PUSH4 0x1CE5E894 EQ PUSH2 0x3EB9 JUMPI DUP1 PUSH4 0x1F6259D5 EQ PUSH2 0x3E90 JUMPI DUP1 PUSH4 0x2335821B EQ PUSH2 0x3E57 JUMPI DUP1 PUSH4 0x2808BC8D EQ PUSH2 0x3D93 JUMPI DUP1 PUSH4 0x2D641F08 EQ PUSH2 0x3D56 JUMPI DUP1 PUSH4 0x2E17DE78 EQ PUSH2 0x372C JUMPI DUP1 PUSH4 0x38ABFC41 EQ PUSH2 0x370E JUMPI DUP1 PUSH4 0x3AC272C2 EQ PUSH2 0x36EF JUMPI DUP1 PUSH4 0x3CCB13D3 EQ PUSH2 0x36D3 JUMPI DUP1 PUSH4 0x44E374D5 EQ PUSH2 0x128C JUMPI DUP1 PUSH4 0x47CD5191 EQ PUSH2 0x36B4 JUMPI DUP1 PUSH4 0x485D3834 EQ PUSH2 0xB39 JUMPI DUP1 PUSH4 0x4B3F0D45 EQ PUSH2 0x35EB JUMPI DUP1 PUSH4 0x52375BB1 EQ PUSH2 0x35BC JUMPI DUP1 PUSH4 0x55509C8F EQ PUSH2 0x3038 JUMPI DUP1 PUSH4 0x634F627E EQ PUSH2 0x2BFE JUMPI DUP1 PUSH4 0x6386C1C7 EQ PUSH2 0x2A30 JUMPI DUP1 PUSH4 0x68DDB2B5 EQ PUSH2 0x2958 JUMPI DUP1 PUSH4 0x715018A6 EQ PUSH2 0x2910 JUMPI DUP1 PUSH4 0x7435F421 EQ PUSH2 0x2872 JUMPI DUP1 PUSH4 0x77537844 EQ PUSH2 0x128C JUMPI DUP1 PUSH4 0x7F1B4064 EQ PUSH2 0x2854 JUMPI DUP1 PUSH4 0x8431FDD7 EQ PUSH2 0x2830 JUMPI DUP1 PUSH4 0x8A8F0429 EQ PUSH2 0x2512 JUMPI DUP1 PUSH4 0x8DA5CB5B EQ PUSH2 0x24EB JUMPI DUP1 PUSH4 0x92446E30 EQ PUSH2 0x24CF JUMPI DUP1 PUSH4 0x94915DD0 EQ PUSH2 0x213F JUMPI DUP1 PUSH4 0x9499A351 EQ PUSH2 0x2106 JUMPI DUP1 PUSH4 0xA2BDEDF4 EQ PUSH2 0x20C2 JUMPI DUP1 PUSH4 0xA87430BA EQ PUSH2 0x1DF4 JUMPI DUP1 PUSH4 0xA98AD46C EQ PUSH2 0x1DAF JUMPI DUP1 PUSH4 0xAA33F5D5 EQ PUSH2 0x1B76 JUMPI DUP1 PUSH4 0xAA393757 EQ PUSH2 0x1B52 JUMPI DUP1 PUSH4 0xABE50F19 EQ PUSH2 0x142B JUMPI DUP1 PUSH4 0xB58E0278 EQ PUSH2 0x12AF JUMPI DUP1 PUSH4 0xB86A1FB2 EQ PUSH2 0x1291 JUMPI DUP1 PUSH4 0xBE648BDB EQ PUSH2 0x128C JUMPI DUP1 PUSH4 0xBFF1F9E1 EQ PUSH2 0x126E JUMPI DUP1 PUSH4 0xC9D484CF EQ PUSH2 0x1245 JUMPI DUP1 PUSH4 0xCE8292F5 EQ PUSH2 0x11B1 JUMPI DUP1 PUSH4 0xCF57EE69 EQ PUSH2 0x1178 JUMPI DUP1 PUSH4 0xCFD47663 EQ PUSH2 0x10EC JUMPI DUP1 PUSH4 0xD3635A02 EQ PUSH2 0xF65 JUMPI DUP1 PUSH4 0xD4A90286 EQ PUSH2 0xE93 JUMPI DUP1 PUSH4 0xE0E01011 EQ PUSH2 0xB58 JUMPI DUP1 PUSH4 0xE239C400 EQ PUSH2 0xB39 JUMPI DUP1 PUSH4 0xE3BA9BDA EQ PUSH2 0xACF JUMPI DUP1 PUSH4 0xE4093A66 EQ PUSH2 0x7AD JUMPI DUP1 PUSH4 0xE51CB530 EQ PUSH2 0x75F JUMPI DUP1 PUSH4 0xEB63E1C2 EQ PUSH2 0x738 JUMPI DUP1 PUSH4 0xEC50324A EQ PUSH2 0x639 JUMPI DUP1 PUSH4 0xF00B0093 EQ PUSH2 0x600 JUMPI DUP1 PUSH4 0xF0B7B9DC EQ PUSH2 0x403 JUMPI DUP1 PUSH4 0xF24C536A EQ PUSH2 0x38A JUMPI DUP1 PUSH4 0xF2FDE38B EQ PUSH2 0x314 JUMPI PUSH4 0xFB72CA35 EQ PUSH2 0x2CC JUMPI PUSH1 0x0 DUP1 REVERT JUMPDEST CALLVALUE PUSH2 0x311 JUMPI PUSH1 0x20 CALLDATASIZE PUSH1 0x3 NOT ADD SLT PUSH2 0x311 JUMPI PUSH1 0x40 SWAP1 PUSH1 0x1 PUSH1 0x1 PUSH1 0xA0 SHL SUB PUSH2 0x2F0 PUSH2 0x434C JUMP JUMPDEST AND DUP2 MSTORE PUSH1 0xB PUSH1 0x20 MSTORE DUP2 DUP1 DUP3 KECCAK256 SLOAD SWAP2 PUSH1 0xC PUSH1 0x20 MSTORE KECCAK256 SLOAD DUP3 MLOAD SWAP2 DUP3 MSTORE PUSH1 0x20 DUP3 ADD MSTORE RETURN JUMPDEST DUP1 REVERT JUMPDEST POP CALLVALUE PUSH2 0x311 JUMPI PUSH1 0x20 CALLDATASIZE PUSH1 0x3 NOT ADD SLT PUSH2 0x311 JUMPI PUSH2 0x32E PUSH2 0x434C JUMP JUMPDEST PUSH2 0x336 PUSH2 0x45F5 JUMP JUMPDEST PUSH1 0x1 PUSH1 0x1 PUSH1 0xA0 SHL SUB SWAP1 DUP2 AND SWAP1 DUP2 ISZERO PUSH2 0x371 JUMPI PUSH1 0x0 SLOAD DUP3 PUSH1 0x1 DUP1 PUSH1 0xA0 SHL SUB NOT DUP3 AND OR PUSH1 0x0 SSTORE AND PUSH1 0x0 DUP1 MLOAD PUSH1 0x20 PUSH2 0x5E8B DUP4 CODECOPY DUP2 MLOAD SWAP2 MSTORE PUSH1 0x0 DUP1 LOG3 DUP1 RETURN JUMPDEST PUSH1 0x40 MLOAD PUSH4 0x1E4FBDF7 PUSH1 0xE0 SHL DUP2 MSTORE PUSH1 0x4 DUP2 ADD DUP5 SWAP1 MSTORE PUSH1 0x24 SWAP1 REVERT JUMPDEST POP CALLVALUE PUSH2 0x311 JUMPI PUSH1 0x20 CALLDATASIZE PUSH1 0x3 NOT ADD SLT PUSH2 0x311 JUMPI PUSH1 0x40 SWAP1 PUSH1 0x1 PUSH1 0x1 PUSH1 0xA0 SHL SUB PUSH2 0x3AF PUSH2 0x434C JUMP JUMPDEST AND DUP2 MSTORE PUSH1 0x3 PUSH1 0x20 MSTORE DUP2 DUP2 KECCAK256 SWAP1 PUSH1 0x7 PUSH1 0x5 DUP4 ADD SLOAD PUSH1 0x6 DUP5 ADD SLOAD DUP1 DUP3 LT PUSH1 0x0 EQ PUSH2 0x3FB JUMPI POP SWAP3 JUMPDEST ADD SLOAD DUP1 DUP4 GT ISZERO PUSH2 0x3F5 JUMPI PUSH2 0x3E9 SWAP2 POP DUP3 PUSH2 0x465A JUMP JUMPDEST DUP3 MLOAD SWAP2 DUP3 MSTORE PUSH1 0x20 DUP3 ADD MSTORE RETURN JUMPDEST POP PUSH2 0x3E9 JUMP JUMPDEST SWAP1 POP SWAP3 PUSH2 0x3D4 JUMP JUMPDEST POP CALLVALUE PUSH2 0x311 JUMPI PUSH2 0x412 CALLDATASIZE PUSH2 0x444B JUMP JUMPDEST SWAP2 PUSH2 0x41B PUSH2 0x46B4 JUMP JUMPDEST PUSH1 0x2 SLOAD PUSH1 0x1 PUSH1 0x1 PUSH1 0xA0 SHL SUB SWAP2 SWAP1 DUP3 AND CALLER SUB PUSH2 0x5C7 JUMPI AND SWAP1 PUSH2 0x43D DUP3 ISZERO ISZERO PUSH2 0x4700 JUMP JUMPDEST PUSH2 0x448 DUP2 ISZERO ISZERO PUSH2 0x4700 JUMP JUMPDEST DUP2 DUP5 MSTORE PUSH1 0x20 SWAP2 PUSH1 0x3 DUP4 MSTORE PUSH1 0xC PUSH1 0x40 DUP7 KECCAK256 ADD PUSH2 0x464 DUP4 DUP3 SLOAD PUSH2 0x4731 JUMP JUMPDEST SWAP1 SSTORE DUP1 DUP6 MSTORE PUSH1 0x3 DUP4 MSTORE PUSH1 0xE PUSH1 0x40 DUP7 KECCAK256 ADD PUSH2 0x47F DUP4 DUP3 SLOAD PUSH2 0x4731 JUMP JUMPDEST SWAP1 SSTORE DUP1 DUP6 MSTORE PUSH1 0xC DUP4 MSTORE PUSH1 0x40 DUP6 KECCAK256 PUSH2 0x497 DUP4 DUP3 SLOAD PUSH2 0x4731 JUMP JUMPDEST SWAP1 SSTORE DUP1 PUSH32 0x2393ACB59B41DD645F68FE97BAB0DEBA2A21B99EFC69761E9B2762F11BBBE79D PUSH1 0x40 DUP1 MLOAD DUP6 DUP2 MSTORE DUP8 DUP8 DUP3 ADD MSTORE LOG2 PUSH1 0x0 MSTORE PUSH1 0xE DUP3 MSTORE PUSH1 0x40 PUSH1 0x0 KECCAK256 SWAP2 PUSH1 0x40 MLOAD SWAP1 PUSH2 0x4E2 DUP3 PUSH2 0x44FE JUMP JUMPDEST PUSH1 0xB DUP3 MSTORE DUP2 ADD SWAP2 PUSH4 0xFFFFFFFF TIMESTAMP AND DUP4 MSTORE PUSH1 0x40 DUP3 ADD SWAP1 DUP2 MSTORE PUSH1 0xFF PUSH1 0x60 DUP4 ADD SWAP6 AND DUP6 MSTORE PUSH1 0x80 DUP3 ADD SWAP4 PUSH1 0x0 DUP6 MSTORE DUP1 SLOAD PUSH1 0x1 PUSH1 0x40 SHL DUP2 LT ISZERO PUSH2 0x5B1 JUMPI PUSH2 0x529 SWAP2 PUSH1 0x1 DUP3 ADD DUP2 SSTORE PUSH2 0x46E4 JUMP JUMPDEST SWAP2 SWAP1 SWAP2 PUSH2 0x59B JUMPI PUSH1 0xFF SWAP4 DUP5 PUSH1 0x2 SWAP5 MLOAD AND PUSH5 0xFFFFFFFF00 DUP5 SLOAD SWAP3 DUP3 DUP9 NOT DUP6 AND OR DUP7 SSTORE MLOAD PUSH1 0x8 SHL AND SWAP2 PUSH5 0xFFFFFFFFFF NOT AND OR OR DUP3 SSTORE MLOAD PUSH1 0x1 DUP3 ADD SSTORE ADD SWAP3 MLOAD AND DUP3 SLOAD SWAP2 PUSH2 0x100 PUSH1 0x1 PUSH1 0xA8 SHL SUB SWAP1 MLOAD PUSH1 0x8 SHL AND SWAP2 PUSH1 0x1 DUP1 PUSH1 0xA8 SHL SUB NOT AND OR OR SWAP1 SSTORE PUSH1 0x1 PUSH1 0x0 DUP1 MLOAD PUSH1 0x20 PUSH2 0x5EEB DUP4 CODECOPY DUP2 MLOAD SWAP2 MSTORE SSTORE DUP1 RETURN JUMPDEST PUSH4 0x4E487B71 PUSH1 0xE0 SHL PUSH1 0x0 MSTORE PUSH1 0x0 PUSH1 0x4 MSTORE PUSH1 0x24 PUSH1 0x0 REVERT JUMPDEST PUSH4 0x4E487B71 PUSH1 0xE0 SHL PUSH1 0x0 MSTORE PUSH1 0x41 PUSH1 0x4 MSTORE PUSH1 0x24 PUSH1 0x0 REVERT JUMPDEST PUSH1 0x40 MLOAD PUSH3 0x461BCD PUSH1 0xE5 SHL DUP2 MSTORE PUSH1 0x20 PUSH1 0x4 DUP3 ADD MSTORE PUSH1 0x11 PUSH1 0x24 DUP3 ADD MSTORE PUSH17 0x2737BA103137B0B932103430B7323632B9 PUSH1 0x79 SHL PUSH1 0x44 DUP3 ADD MSTORE PUSH1 0x64 SWAP1 REVERT JUMPDEST POP CALLVALUE PUSH2 0x311 JUMPI PUSH1 0x20 CALLDATASIZE PUSH1 0x3 NOT ADD SLT PUSH2 0x311 JUMPI PUSH1 0x20 SWAP1 PUSH1 0x40 SWAP1 PUSH1 0x1 PUSH1 0x1 PUSH1 0xA0 SHL SUB PUSH2 0x628 PUSH2 0x434C JUMP JUMPDEST AND DUP2 MSTORE PUSH1 0xB DUP4 MSTORE KECCAK256 SLOAD PUSH1 0x40 MLOAD SWAP1 DUP2 MSTORE RETURN JUMPDEST POP CALLVALUE PUSH2 0x311 JUMPI PUSH1 0x40 CALLDATASIZE PUSH1 0x3 NOT ADD SLT PUSH2 0x311 JUMPI PUSH2 0x653 PUSH2 0x434C JUMP JUMPDEST PUSH1 0x24 CALLDATALOAD SWAP1 PUSH2 0x65F PUSH2 0x45F5 JUMP JUMPDEST PUSH1 0x1 PUSH1 0x1 PUSH1 0xA0 SHL SUB AND SWAP1 DUP2 ISZERO PUSH2 0x726 JUMPI PUSH1 0x7 SLOAD DUP2 DUP2 LT PUSH2 0x6EA JUMPI DUP2 PUSH2 0x6A7 PUSH32 0x529AFC4538720FE0B3EADC40486369AB962002D72FEAD1387B300C66073E7BF SWAP4 PUSH1 0x20 SWAP4 PUSH2 0x465A JUMP JUMPDEST PUSH1 0x7 SSTORE DUP4 DUP6 MSTORE PUSH1 0x3 DUP3 MSTORE PUSH1 0x8 PUSH1 0x40 DUP7 KECCAK256 ADD PUSH2 0x6C3 DUP3 DUP3 SLOAD PUSH2 0x4731 JUMP JUMPDEST SWAP1 SSTORE DUP4 DUP6 MSTORE PUSH1 0x3 DUP3 MSTORE PUSH1 0x9 PUSH1 0x40 DUP7 KECCAK256 ADD PUSH2 0x6DE DUP3 DUP3 SLOAD PUSH2 0x4731 JUMP JUMPDEST SWAP1 SSTORE PUSH1 0x40 MLOAD SWAP1 DUP2 MSTORE LOG2 DUP1 RETURN JUMPDEST PUSH1 0x40 MLOAD PUSH3 0x461BCD PUSH1 0xE5 SHL DUP2 MSTORE PUSH1 0x20 PUSH1 0x4 DUP3 ADD MSTORE PUSH1 0x14 PUSH1 0x24 DUP3 ADD MSTORE PUSH20 0x115E18D959591CC81C995CD95C9D99481C1BDBDB PUSH1 0x62 SHL PUSH1 0x44 DUP3 ADD MSTORE PUSH1 0x64 SWAP1 REVERT JUMPDEST PUSH1 0x40 MLOAD PUSH4 0xD92E233D PUSH1 0xE0 SHL DUP2 MSTORE PUSH1 0x4 SWAP1 REVERT JUMPDEST POP CALLVALUE PUSH2 0x311 JUMPI PUSH1 0x20 CALLDATASIZE PUSH1 0x3 NOT ADD SLT PUSH2 0x311 JUMPI PUSH1 0x20 PUSH2 0x757 PUSH1 0x4 CALLDATALOAD PUSH2 0x5B64 JUMP JUMPDEST PUSH1 0x40 MLOAD SWAP1 DUP2 MSTORE RETURN JUMPDEST POP CALLVALUE PUSH2 0x311 JUMPI PUSH1 0x20 CALLDATASIZE PUSH1 0x3 NOT ADD SLT PUSH2 0x311 JUMPI PUSH1 0x40 SWAP1 PUSH1 0xD SWAP1 DUP3 SWAP1 PUSH1 0x1 PUSH1 0x1 PUSH1 0xA0 SHL SUB PUSH2 0x789 PUSH2 0x434C JUMP JUMPDEST AND DUP2 MSTORE PUSH1 0x3 PUSH1 0x20 MSTORE KECCAK256 ADD SLOAD DUP2 MLOAD SWAP1 PUSH9 0x70C1CC73B00C80000 DUP2 LT ISZERO DUP3 MSTORE PUSH1 0x20 DUP3 ADD MSTORE RETURN JUMPDEST POP CALLVALUE PUSH2 0x311 JUMPI DUP1 PUSH1 0x3 NOT CALLDATASIZE ADD SLT PUSH2 0x311 JUMPI PUSH2 0x7C6 PUSH2 0x46B4 JUMP JUMPDEST PUSH1 0x2 SLOAD PUSH1 0x1 PUSH1 0x1 PUSH1 0xA0 SHL SUB SWAP1 DUP2 AND SWAP1 DUP2 ISZERO PUSH2 0xABD JUMPI CALLER DUP4 MSTORE PUSH1 0x20 PUSH1 0x3 DUP2 MSTORE PUSH1 0x40 DUP5 KECCAK256 SWAP2 PUSH2 0x7F9 PUSH1 0xFF DUP5 SLOAD PUSH1 0x8 SHR AND PUSH2 0x4621 JUMP JUMPDEST PUSH1 0x40 MLOAD SWAP3 PUSH4 0x47CD5191 PUSH1 0xE0 SHL DUP5 MSTORE DUP3 DUP5 PUSH1 0x24 DUP2 PUSH1 0x1 SWAP9 DUP10 PUSH1 0x4 DUP4 ADD MSTORE GAS STATICCALL SWAP4 DUP5 ISZERO PUSH2 0xA6B JUMPI DUP7 SWAP5 PUSH2 0xA88 JUMPI JUMPDEST POP PUSH1 0xF ADD DUP1 SLOAD DUP5 DUP2 LT PUSH2 0xA76 JUMPI DUP5 PUSH2 0x83C SWAP2 PUSH2 0x465A JUMP JUMPDEST SWAP1 SSTORE PUSH2 0x863 DUP3 DUP5 DUP4 PUSH1 0x2 SLOAD AND PUSH1 0x40 MLOAD SWAP4 DUP5 SWAP3 DUP4 SWAP3 PUSH4 0xA9059CBB PUSH1 0xE0 SHL DUP5 MSTORE PUSH1 0x4 DUP5 ADD PUSH2 0x468A JUMP JUMPDEST SUB DUP2 DUP10 DUP7 PUSH32 0x0 AND GAS CALL SWAP1 DUP2 ISZERO PUSH2 0xA6B JUMPI DUP7 SWAP2 PUSH2 0xA32 JUMPI JUMPDEST POP ISZERO PUSH2 0xA20 JUMPI DUP5 SWAP1 CALLER DUP3 MSTORE PUSH1 0xB DUP4 MSTORE PUSH1 0x40 DUP3 KECCAK256 PUSH2 0x8B6 DUP2 SLOAD PUSH2 0x46A5 JUMP JUMPDEST SWAP1 SSTORE PUSH1 0x2 SLOAD AND DUP1 EXTCODESIZE ISZERO PUSH2 0xA1C JUMPI DUP2 DUP1 SWAP2 PUSH1 0x44 PUSH1 0x40 MLOAD DUP1 SWAP5 DUP2 SWAP4 PUSH4 0x686A38BD PUSH1 0xE0 SHL DUP4 MSTORE CALLER PUSH1 0x4 DUP5 ADD MSTORE DUP11 PUSH1 0x24 DUP5 ADD MSTORE GAS CALL DUP1 ISZERO PUSH2 0xA11 JUMPI PUSH2 0x9F9 JUMPI JUMPDEST POP POP PUSH1 0x40 MLOAD DUP4 DUP2 MSTORE DUP3 DUP3 DUP3 ADD MSTORE PUSH32 0x4E755DD64E53A9F7A5882E2E32EB64718C2273DE11E017BD47129B9FE2716D7C PUSH1 0x40 CALLER SWAP3 LOG2 CALLER PUSH1 0x0 MSTORE PUSH1 0xE DUP2 MSTORE PUSH1 0x40 PUSH1 0x0 KECCAK256 SWAP1 PUSH1 0x40 MLOAD SWAP1 PUSH2 0x940 DUP3 PUSH2 0x44FE JUMP JUMPDEST PUSH1 0xA DUP3 MSTORE DUP2 ADD SWAP1 PUSH4 0xFFFFFFFF TIMESTAMP AND DUP3 MSTORE PUSH1 0x40 DUP2 ADD SWAP4 DUP5 MSTORE PUSH1 0x60 DUP2 ADD SWAP4 DUP6 DUP6 MSTORE PUSH1 0x80 DUP3 ADD SWAP4 PUSH1 0x0 DUP6 MSTORE DUP1 SLOAD PUSH1 0x1 PUSH1 0x40 SHL DUP2 LT ISZERO PUSH2 0x5B1 JUMPI PUSH2 0x984 SWAP2 DUP9 DUP3 ADD DUP2 SSTORE PUSH2 0x46E4 JUMP JUMPDEST SWAP2 SWAP1 SWAP2 PUSH2 0x59B JUMPI SWAP2 MLOAD DUP2 SLOAD SWAP4 MLOAD PUSH5 0xFFFFFFFFFF NOT SWAP1 SWAP5 AND PUSH1 0xFF SWAP2 DUP3 AND OR PUSH1 0x8 SWAP5 DUP6 SHL PUSH5 0xFFFFFFFF00 AND OR DUP3 SSTORE SWAP2 MLOAD DUP7 DUP3 ADD SSTORE SWAP4 MLOAD PUSH1 0x2 SWAP5 SWAP1 SWAP5 ADD DUP1 SLOAD SWAP4 MLOAD PUSH1 0x1 PUSH1 0x1 PUSH1 0xA8 SHL SUB NOT SWAP1 SWAP5 AND SWAP5 SWAP1 SWAP2 AND SWAP4 SWAP1 SWAP4 OR SWAP2 SWAP1 SHL PUSH2 0x100 PUSH1 0x1 PUSH1 0xA8 SHL SUB AND OR SWAP1 SSTORE PUSH1 0x0 DUP1 MLOAD PUSH1 0x20 PUSH2 0x5EEB DUP4 CODECOPY DUP2 MLOAD SWAP2 MSTORE SSTORE DUP1 RETURN JUMPDEST PUSH2 0xA02 SWAP1 PUSH2 0x4519 JUMP JUMPDEST PUSH2 0xA0D JUMPI DUP4 CODESIZE PUSH2 0x8F2 JUMP JUMPDEST DUP4 DUP1 REVERT JUMPDEST PUSH1 0x40 MLOAD RETURNDATASIZE DUP5 DUP3 RETURNDATACOPY RETURNDATASIZE SWAP1 REVERT JUMPDEST POP DUP1 REVERT JUMPDEST PUSH1 0x40 MLOAD PUSH4 0x12171D83 PUSH1 0xE3 SHL DUP2 MSTORE PUSH1 0x4 SWAP1 REVERT JUMPDEST SWAP1 POP DUP3 DUP2 DUP2 RETURNDATASIZE DUP4 GT PUSH2 0xA64 JUMPI JUMPDEST PUSH2 0xA49 DUP2 DUP4 PUSH2 0x452C JUMP JUMPDEST DUP2 ADD SUB SLT PUSH2 0xA60 JUMPI PUSH2 0xA5A SWAP1 PUSH2 0x467D JUMP JUMPDEST CODESIZE PUSH2 0x899 JUMP JUMPDEST DUP6 DUP1 REVERT JUMPDEST POP RETURNDATASIZE PUSH2 0xA3F JUMP JUMPDEST PUSH1 0x40 MLOAD RETURNDATASIZE DUP9 DUP3 RETURNDATACOPY RETURNDATASIZE SWAP1 REVERT JUMPDEST PUSH1 0x40 MLOAD PUSH4 0x856D687 PUSH1 0xE1 SHL DUP2 MSTORE PUSH1 0x4 SWAP1 REVERT JUMPDEST SWAP1 SWAP4 POP DUP3 DUP2 DUP2 RETURNDATASIZE DUP4 GT PUSH2 0xAB6 JUMPI JUMPDEST PUSH2 0xAA0 DUP2 DUP4 PUSH2 0x452C JUMP JUMPDEST DUP2 ADD SUB SLT PUSH2 0xAB1 JUMPI MLOAD SWAP3 PUSH1 0xF PUSH2 0x825 JUMP JUMPDEST PUSH1 0x0 DUP1 REVERT JUMPDEST POP RETURNDATASIZE PUSH2 0xA96 JUMP JUMPDEST PUSH1 0x40 MLOAD PUSH4 0x632100F7 PUSH1 0xE1 SHL DUP2 MSTORE PUSH1 0x4 SWAP1 REVERT JUMPDEST POP CALLVALUE PUSH2 0x311 JUMPI PUSH1 0x20 CALLDATASIZE PUSH1 0x3 NOT ADD SLT PUSH2 0x311 JUMPI PUSH2 0xAE9 PUSH2 0x434C JUMP JUMPDEST PUSH2 0xAF1 PUSH2 0x45F5 JUMP JUMPDEST PUSH1 0x1 PUSH1 0x1 PUSH1 0xA0 SHL SUB AND DUP1 ISZERO PUSH2 0x726 JUMPI PUSH1 0x2 DUP1 SLOAD PUSH1 0x1 PUSH1 0x1 PUSH1 0xA0 SHL SUB NOT AND DUP3 OR SWAP1 SSTORE PUSH32 0x49424F87D81E4374EE3E8D1CF7B880966981A3CF6A7AC1D7A66C13D91756FCCC DUP3 DUP1 LOG2 DUP1 RETURN JUMPDEST POP CALLVALUE PUSH2 0x311 JUMPI DUP1 PUSH1 0x3 NOT CALLDATASIZE ADD SLT PUSH2 0x311 JUMPI PUSH1 0x20 PUSH1 0x40 MLOAD PUSH4 0x18B8200 DUP2 MSTORE RETURN JUMPDEST POP CALLVALUE PUSH2 0x311 JUMPI PUSH1 0x60 CALLDATASIZE PUSH1 0x3 NOT ADD SLT PUSH2 0x311 JUMPI PUSH2 0xB72 PUSH2 0x434C JUMP JUMPDEST SWAP1 PUSH2 0xB7B PUSH2 0x4362 JUMP JUMPDEST PUSH2 0xB83 PUSH2 0x4484 JUMP JUMPDEST SWAP3 PUSH2 0xB8C PUSH2 0x46B4 JUMP JUMPDEST PUSH1 0x1 PUSH1 0x1 PUSH1 0xA0 SHL SUB DUP2 DUP2 AND SWAP2 DUP3 ISZERO PUSH2 0xE5C JUMPI CALLER DUP4 EQ PUSH2 0xE1C JUMPI CALLER DUP6 MSTORE PUSH1 0x3 SWAP2 PUSH1 0x20 SWAP5 DUP4 DUP7 MSTORE PUSH1 0xFF PUSH1 0x40 DUP9 KECCAK256 SLOAD AND ISZERO PUSH2 0xE0A JUMPI CALLER DUP8 MSTORE DUP4 DUP7 MSTORE PUSH1 0xFF PUSH1 0x40 DUP9 KECCAK256 SLOAD PUSH1 0x8 SHR AND ISZERO PUSH2 0xDD1 JUMPI DUP5 DUP8 MSTORE DUP4 DUP7 MSTORE PUSH1 0xFF PUSH1 0x40 DUP9 KECCAK256 SLOAD AND PUSH2 0xDBF JUMPI CALLER DUP8 MSTORE DUP4 DUP7 MSTORE PUSH9 0x70C1CC73B00C80000 PUSH1 0xC PUSH1 0x40 DUP10 KECCAK256 ADD SLOAD LT PUSH2 0xDAD JUMPI DUP2 DUP2 AND DUP1 ISZERO ISZERO SWAP1 DUP2 PUSH2 0xD99 JUMPI JUMPDEST POP ISZERO PUSH2 0xD91 JUMPI SWAP1 JUMPDEST DUP8 DUP1 PUSH2 0xD78 JUMPI JUMPDEST PUSH2 0xD4C JUMPI DUP8 ISZERO SWAP4 DUP5 ISZERO SWAP5 DUP1 PUSH2 0xD5E JUMPI JUMPDEST PUSH2 0xD4C JUMPI CALLER DUP9 MSTORE DUP1 DUP8 MSTORE PUSH1 0xC PUSH1 0x40 DUP10 KECCAK256 ADD SWAP9 DUP10 SLOAD PUSH9 0x70C1CC73B00C7FFFF NOT DUP2 ADD SWAP1 DUP2 GT PUSH2 0xD38 JUMPI PUSH2 0xCD3 SWAP7 SWAP8 SWAP9 SWAP10 SWAP11 SSTORE PUSH2 0xC6C DUP2 DUP6 CALLER DUP9 PUSH2 0x473E JUMP JUMPDEST ISZERO PUSH2 0xD14 JUMPI DUP3 DUP3 AND DUP10 MSTORE DUP1 DUP9 MSTORE PUSH1 0x40 DUP10 KECCAK256 DUP2 ADD DUP1 SLOAD PUSH1 0x1 PUSH1 0x1 PUSH1 0xA0 SHL SUB NOT AND DUP9 OR SWAP1 SSTORE JUMPDEST CALLER DUP10 MSTORE DUP8 MSTORE PUSH1 0x1 PUSH1 0x40 DUP10 KECCAK256 ADD PUSH2 0xCA6 DUP2 SLOAD PUSH2 0x46A5 JUMP JUMPDEST SWAP1 SSTORE PUSH2 0xCB1 DUP4 PUSH2 0x4805 JUMP JUMPDEST PUSH1 0x40 MLOAD SWAP2 DUP6 DUP4 MSTORE AND SWAP1 DUP6 PUSH1 0x0 DUP1 MLOAD PUSH1 0x20 PUSH2 0x5E6B DUP4 CODECOPY DUP2 MLOAD SWAP2 MSTORE DUP9 CALLER SWAP4 LOG4 PUSH2 0x48FB JUMP JUMPDEST PUSH1 0x40 MLOAD SWAP1 DUP2 MSTORE PUSH32 0xF3D8729E7995A6170800155589C309C92998449C63BAB10C98F61F9AA007DB7D CALLER SWAP4 CALLER SWAP3 LOG4 PUSH1 0x1 PUSH1 0x0 DUP1 MLOAD PUSH1 0x20 PUSH2 0x5EEB DUP4 CODECOPY DUP2 MLOAD SWAP2 MSTORE SSTORE DUP1 RETURN JUMPDEST DUP3 DUP3 AND DUP10 MSTORE DUP1 DUP9 MSTORE PUSH1 0x40 DUP10 KECCAK256 PUSH1 0x4 ADD DUP1 SLOAD PUSH1 0x1 PUSH1 0x1 PUSH1 0xA0 SHL SUB NOT AND DUP9 OR SWAP1 SSTORE PUSH2 0xC90 JUMP JUMPDEST PUSH4 0x4E487B71 PUSH1 0xE0 SHL DUP11 MSTORE PUSH1 0x11 PUSH1 0x4 MSTORE PUSH1 0x24 DUP11 REVERT JUMPDEST PUSH1 0x40 MLOAD PUSH4 0xD5DD5C3D PUSH1 0xE0 SHL DUP2 MSTORE PUSH1 0x4 SWAP1 REVERT JUMPDEST POP DUP2 DUP4 AND DUP9 MSTORE DUP1 DUP8 MSTORE DUP2 PUSH1 0x4 PUSH1 0x40 DUP11 KECCAK256 ADD SLOAD AND ISZERO ISZERO PUSH2 0xC2F JUMP JUMPDEST POP DUP1 DUP3 AND DUP8 MSTORE DUP4 DUP7 MSTORE DUP1 DUP5 PUSH1 0x40 DUP10 KECCAK256 ADD SLOAD AND ISZERO ISZERO PUSH2 0xC1F JUMP JUMPDEST POP CALLER SWAP1 PUSH2 0xC18 JUMP JUMPDEST DUP9 MSTORE POP DUP4 DUP7 MSTORE PUSH1 0x40 DUP8 KECCAK256 SLOAD PUSH1 0xFF AND CODESIZE PUSH2 0xC10 JUMP JUMPDEST PUSH1 0x40 MLOAD PUSH4 0xB55C1BAD PUSH1 0xE0 SHL DUP2 MSTORE PUSH1 0x4 SWAP1 REVERT JUMPDEST PUSH1 0x40 MLOAD PUSH4 0xEA075BF PUSH1 0xE2 SHL DUP2 MSTORE PUSH1 0x4 SWAP1 REVERT JUMPDEST PUSH1 0x40 MLOAD PUSH3 0x461BCD PUSH1 0xE5 SHL DUP2 MSTORE PUSH1 0x4 DUP2 ADD DUP8 SWAP1 MSTORE PUSH1 0x11 PUSH1 0x24 DUP3 ADD MSTORE PUSH17 0x43616C6C6572206E6F7420616374697665 PUSH1 0x78 SHL PUSH1 0x44 DUP3 ADD MSTORE PUSH1 0x64 SWAP1 REVERT JUMPDEST PUSH1 0x40 MLOAD PUSH4 0xABA47339 PUSH1 0xE0 SHL DUP2 MSTORE PUSH1 0x4 SWAP1 REVERT JUMPDEST PUSH1 0x40 MLOAD PUSH3 0x461BCD PUSH1 0xE5 SHL DUP2 MSTORE PUSH1 0x20 PUSH1 0x4 DUP3 ADD MSTORE PUSH1 0x18 PUSH1 0x24 DUP3 ADD MSTORE PUSH24 0x21B0B73737BA103932B3B4B9BA32B9103CB7BAB939B2B633 PUSH1 0x41 SHL PUSH1 0x44 DUP3 ADD MSTORE PUSH1 0x64 SWAP1 REVERT JUMPDEST PUSH1 0x40 MLOAD PUSH3 0x461BCD PUSH1 0xE5 SHL DUP2 MSTORE PUSH1 0x20 PUSH1 0x4 DUP3 ADD MSTORE PUSH1 0xF PUSH1 0x24 DUP3 ADD MSTORE PUSH15 0x496E76616C69642061646472657373 PUSH1 0x88 SHL PUSH1 0x44 DUP3 ADD MSTORE PUSH1 0x64 SWAP1 REVERT JUMPDEST POP CALLVALUE PUSH2 0x311 JUMPI PUSH2 0xEA2 CALLDATASIZE PUSH2 0x43EC JUMP JUMPDEST SWAP1 PUSH1 0x60 PUSH1 0x1 DUP1 PUSH1 0xA0 SHL SUB SWAP3 PUSH1 0x44 DUP5 PUSH1 0x2 SLOAD AND SWAP4 PUSH1 0x40 MLOAD SWAP5 DUP6 SWAP4 DUP5 SWAP3 PUSH4 0x6A548143 PUSH1 0xE1 SHL DUP5 MSTORE PUSH1 0x4 DUP5 ADD MSTORE PUSH1 0x24 DUP4 ADD MSTORE GAS STATICCALL SWAP1 DUP2 ISZERO PUSH2 0xF5A JUMPI DUP4 SWAP3 DUP5 SWAP2 DUP6 SWAP4 PUSH2 0xEFF JUMPI JUMPDEST POP PUSH1 0x60 SWAP5 POP PUSH1 0x40 MLOAD SWAP4 AND DUP4 MSTORE PUSH1 0x20 DUP4 ADD MSTORE ISZERO ISZERO PUSH1 0x40 DUP3 ADD MSTORE RETURN JUMPDEST SWAP4 POP SWAP2 POP POP PUSH1 0x60 DUP3 RETURNDATASIZE DUP3 GT PUSH2 0xF52 JUMPI JUMPDEST DUP2 PUSH2 0xF1C PUSH1 0x60 SWAP4 DUP4 PUSH2 0x452C JUMP JUMPDEST DUP2 ADD SUB SLT PUSH2 0xF4E JUMPI DUP2 MLOAD DUP2 DUP2 AND DUP2 SUB PUSH2 0xA0D JUMPI PUSH1 0x60 SWAP4 POP PUSH2 0xF44 PUSH1 0x40 PUSH1 0x20 DUP6 ADD MLOAD SWAP5 ADD PUSH2 0x467D JUMP JUMPDEST SWAP1 SWAP3 SWAP1 SWAP2 CODESIZE PUSH2 0xEE5 JUMP JUMPDEST DUP3 DUP1 REVERT JUMPDEST RETURNDATASIZE SWAP2 POP PUSH2 0xF0F JUMP JUMPDEST PUSH1 0x40 MLOAD RETURNDATASIZE DUP6 DUP3 RETURNDATACOPY RETURNDATASIZE SWAP1 REVERT JUMPDEST POP CALLVALUE PUSH2 0x311 JUMPI PUSH1 0x20 DUP1 PUSH1 0x3 NOT CALLDATASIZE ADD SLT PUSH2 0xA1C JUMPI PUSH1 0x4 CALLDATALOAD SWAP1 PUSH2 0xF84 PUSH2 0x46B4 JUMP JUMPDEST DUP2 ISZERO PUSH2 0x10DA JUMPI CALLER DUP4 MSTORE PUSH1 0x3 DUP2 MSTORE PUSH1 0xC PUSH1 0x40 DUP5 KECCAK256 ADD DUP1 SLOAD DUP4 DUP2 LT PUSH2 0xDAD JUMPI DUP4 PUSH2 0xFAB SWAP2 PUSH2 0x465A JUMP JUMPDEST SWAP1 SSTORE PUSH1 0x40 MLOAD PUSH4 0xA9059CBB PUSH1 0xE0 SHL DUP2 MSTORE DUP2 DUP2 DUP1 PUSH2 0xFCB DUP7 CALLER PUSH1 0x4 DUP5 ADD PUSH2 0x468A JUMP JUMPDEST SUB DUP2 DUP8 PUSH32 0x0 PUSH1 0x1 PUSH1 0x1 PUSH1 0xA0 SHL SUB AND GAS CALL SWAP1 DUP2 ISZERO PUSH2 0x10CF JUMPI DUP5 SWAP2 PUSH2 0x109A JUMPI JUMPDEST POP ISZERO PUSH2 0xA20 JUMPI PUSH1 0x40 MLOAD DUP3 DUP2 MSTORE PUSH32 0xBDD3F02D2A57FB53C1156F98470B61CB60712D485C27C36A49B1263DABCDE201 DUP3 CALLER SWAP3 LOG2 CALLER PUSH1 0x0 MSTORE PUSH1 0xE DUP2 MSTORE PUSH1 0x40 PUSH1 0x0 KECCAK256 SWAP1 PUSH1 0x40 MLOAD SWAP1 PUSH2 0x1054 DUP3 PUSH2 0x44FE JUMP JUMPDEST PUSH1 0x7 DUP3 MSTORE DUP2 ADD SWAP1 PUSH4 0xFFFFFFFF TIMESTAMP AND DUP3 MSTORE PUSH1 0x40 DUP2 ADD SWAP4 DUP5 MSTORE PUSH1 0x60 DUP2 ADD SWAP4 PUSH1 0x0 DUP6 MSTORE PUSH1 0x80 DUP3 ADD SWAP4 PUSH1 0x0 DUP6 MSTORE DUP1 SLOAD PUSH1 0x1 PUSH1 0x40 SHL DUP2 LT ISZERO PUSH2 0x5B1 JUMPI PUSH2 0x529 SWAP2 PUSH1 0x1 DUP3 ADD DUP2 SSTORE PUSH2 0x46E4 JUMP JUMPDEST SWAP1 POP DUP2 DUP2 DUP2 RETURNDATASIZE DUP4 GT PUSH2 0x10C8 JUMPI JUMPDEST PUSH2 0x10B1 DUP2 DUP4 PUSH2 0x452C JUMP JUMPDEST DUP2 ADD SUB SLT PUSH2 0xA0D JUMPI PUSH2 0x10C2 SWAP1 PUSH2 0x467D JUMP JUMPDEST CODESIZE PUSH2 0x1008 JUMP JUMPDEST POP RETURNDATASIZE PUSH2 0x10A7 JUMP JUMPDEST PUSH1 0x40 MLOAD RETURNDATASIZE DUP7 DUP3 RETURNDATACOPY RETURNDATASIZE SWAP1 REVERT JUMPDEST PUSH1 0x40 MLOAD PUSH4 0x1F2A2005 PUSH1 0xE0 SHL DUP2 MSTORE PUSH1 0x4 SWAP1 REVERT JUMPDEST POP CALLVALUE PUSH2 0x311 JUMPI PUSH1 0x40 CALLDATASIZE PUSH1 0x3 NOT ADD SLT PUSH2 0x311 JUMPI PUSH2 0x113D PUSH1 0xA0 SWAP2 PUSH1 0x40 PUSH2 0x110E PUSH2 0x434C JUMP JUMPDEST SWAP2 PUSH1 0x24 CALLDATALOAD SWAP3 PUSH1 0x1 DUP1 DUP8 SHL SUB AND DUP1 DUP3 MSTORE PUSH1 0xD PUSH1 0x20 MSTORE PUSH2 0x1130 DUP4 DUP4 KECCAK256 SLOAD DUP6 LT PUSH2 0x5A66 JUMP JUMPDEST DUP2 MSTORE PUSH1 0xD PUSH1 0x20 MSTORE KECCAK256 PUSH2 0x5A4A JUMP JUMPDEST POP DUP1 SLOAD SWAP1 PUSH1 0x1 DUP2 ADD SLOAD SWAP1 PUSH1 0x2 DUP2 ADD SLOAD PUSH1 0xFF PUSH1 0x4 PUSH1 0x3 DUP5 ADD SLOAD SWAP4 ADD SLOAD AND SWAP3 PUSH1 0x40 MLOAD SWAP5 DUP6 MSTORE PUSH1 0x20 DUP6 ADD MSTORE PUSH1 0x40 DUP5 ADD MSTORE PUSH1 0x60 DUP4 ADD MSTORE ISZERO ISZERO PUSH1 0x80 DUP3 ADD MSTORE RETURN JUMPDEST POP CALLVALUE PUSH2 0x311 JUMPI PUSH1 0x20 CALLDATASIZE PUSH1 0x3 NOT ADD SLT PUSH2 0x311 JUMPI PUSH1 0x20 SWAP1 PUSH1 0x40 SWAP1 PUSH1 0x1 PUSH1 0x1 PUSH1 0xA0 SHL SUB PUSH2 0x11A0 PUSH2 0x434C JUMP JUMPDEST AND DUP2 MSTORE PUSH1 0xD DUP4 MSTORE KECCAK256 SLOAD PUSH1 0x40 MLOAD SWAP1 DUP2 MSTORE RETURN JUMPDEST POP CALLVALUE PUSH2 0x311 JUMPI DUP1 PUSH1 0x3 NOT CALLDATASIZE ADD SLT PUSH2 0x311 JUMPI PUSH1 0x1 SLOAD PUSH1 0x40 MLOAD PUSH4 0x70A08231 PUSH1 0xE0 SHL DUP2 MSTORE ADDRESS PUSH1 0x4 DUP3 ADD MSTORE SWAP2 SWAP1 PUSH1 0x20 SWAP1 DUP4 SWAP1 PUSH1 0x24 SWAP1 DUP3 SWAP1 PUSH1 0x1 PUSH1 0x1 PUSH1 0xA0 SHL SUB AND GAS STATICCALL SWAP1 DUP2 ISZERO PUSH2 0x1239 JUMPI SWAP1 PUSH2 0x1207 JUMPI JUMPDEST PUSH1 0x20 SWAP1 PUSH1 0x40 MLOAD SWAP1 DUP2 MSTORE RETURN JUMPDEST POP PUSH1 0x20 DUP2 RETURNDATASIZE DUP3 GT PUSH2 0x1231 JUMPI JUMPDEST DUP2 PUSH2 0x1220 PUSH1 0x20 SWAP4 DUP4 PUSH2 0x452C JUMP JUMPDEST DUP2 ADD SUB SLT PUSH2 0xAB1 JUMPI PUSH1 0x20 SWAP1 MLOAD PUSH2 0x11FC JUMP JUMPDEST RETURNDATASIZE SWAP2 POP PUSH2 0x1213 JUMP JUMPDEST PUSH1 0x40 MLOAD SWAP1 RETURNDATASIZE SWAP1 DUP3 RETURNDATACOPY RETURNDATASIZE SWAP1 REVERT JUMPDEST POP CALLVALUE PUSH2 0x311 JUMPI DUP1 PUSH1 0x3 NOT CALLDATASIZE ADD SLT PUSH2 0x311 JUMPI PUSH1 0x2 SLOAD PUSH1 0x40 MLOAD PUSH1 0x1 PUSH1 0x1 PUSH1 0xA0 SHL SUB SWAP1 SWAP2 AND DUP2 MSTORE PUSH1 0x20 SWAP1 RETURN JUMPDEST POP CALLVALUE PUSH2 0x311 JUMPI DUP1 PUSH1 0x3 NOT CALLDATASIZE ADD SLT PUSH2 0x311 JUMPI PUSH1 0x20 PUSH1 0x5 SLOAD PUSH1 0x40 MLOAD SWAP1 DUP2 MSTORE RETURN JUMPDEST PUSH2 0x4402 JUMP JUMPDEST POP CALLVALUE PUSH2 0x311 JUMPI DUP1 PUSH1 0x3 NOT CALLDATASIZE ADD SLT PUSH2 0x311 JUMPI PUSH1 0x20 PUSH1 0x8 SLOAD PUSH1 0x40 MLOAD SWAP1 DUP2 MSTORE RETURN JUMPDEST POP CALLVALUE PUSH2 0x311 JUMPI PUSH1 0x20 DUP1 PUSH1 0x3 NOT CALLDATASIZE ADD SLT PUSH2 0xA1C JUMPI PUSH1 0x4 CALLDATALOAD SWAP1 PUSH2 0x12CE PUSH2 0x46B4 JUMP JUMPDEST DUP2 ISZERO PUSH2 0x10DA JUMPI CALLER DUP4 MSTORE PUSH1 0x3 DUP2 MSTORE PUSH1 0xF PUSH1 0x40 DUP5 KECCAK256 ADD DUP1 SLOAD DUP4 DUP2 LT PUSH2 0x1419 JUMPI DUP4 PUSH2 0x12F5 SWAP2 PUSH2 0x465A JUMP JUMPDEST SWAP1 SSTORE PUSH1 0x40 MLOAD PUSH4 0xA9059CBB PUSH1 0xE0 SHL DUP2 MSTORE DUP2 DUP2 DUP1 PUSH2 0x1315 DUP7 CALLER PUSH1 0x4 DUP5 ADD PUSH2 0x468A JUMP JUMPDEST SUB DUP2 DUP8 PUSH32 0x0 PUSH1 0x1 PUSH1 0x1 PUSH1 0xA0 SHL SUB AND GAS CALL SWAP1 DUP2 ISZERO PUSH2 0x10CF JUMPI DUP5 SWAP2 PUSH2 0x13E4 JUMPI JUMPDEST POP ISZERO PUSH2 0xA20 JUMPI PUSH1 0x40 MLOAD DUP3 DUP2 MSTORE PUSH32 0x12701E4764B73009AB9826933C421483E4280410091FCC760515E0FA99FA766B DUP3 CALLER SWAP3 LOG2 CALLER PUSH1 0x0 MSTORE PUSH1 0xE DUP2 MSTORE PUSH1 0x40 PUSH1 0x0 KECCAK256 SWAP1 PUSH1 0x40 MLOAD SWAP1 PUSH2 0x139E DUP3 PUSH2 0x44FE JUMP JUMPDEST PUSH1 0x8 DUP3 MSTORE DUP2 ADD SWAP1 PUSH4 0xFFFFFFFF TIMESTAMP AND DUP3 MSTORE PUSH1 0x40 DUP2 ADD SWAP4 DUP5 MSTORE PUSH1 0x60 DUP2 ADD SWAP4 PUSH1 0x0 DUP6 MSTORE PUSH1 0x80 DUP3 ADD SWAP4 PUSH1 0x0 DUP6 MSTORE DUP1 SLOAD PUSH1 0x1 PUSH1 0x40 SHL DUP2 LT ISZERO PUSH2 0x5B1 JUMPI PUSH2 0x529 SWAP2 PUSH1 0x1 DUP3 ADD DUP2 SSTORE PUSH2 0x46E4 JUMP JUMPDEST SWAP1 POP DUP2 DUP2 DUP2 RETURNDATASIZE DUP4 GT PUSH2 0x1412 JUMPI JUMPDEST PUSH2 0x13FB DUP2 DUP4 PUSH2 0x452C JUMP JUMPDEST DUP2 ADD SUB SLT PUSH2 0xA0D JUMPI PUSH2 0x140C SWAP1 PUSH2 0x467D JUMP JUMPDEST CODESIZE PUSH2 0x1352 JUMP JUMPDEST POP RETURNDATASIZE PUSH2 0x13F1 JUMP JUMPDEST PUSH1 0x40 MLOAD PUSH4 0x6DAE8617 PUSH1 0xE1 SHL DUP2 MSTORE PUSH1 0x4 SWAP1 REVERT JUMPDEST POP CALLVALUE PUSH2 0x311 JUMPI PUSH1 0x40 CALLDATASIZE PUSH1 0x3 NOT ADD SLT PUSH2 0x311 JUMPI PUSH2 0x1445 PUSH2 0x4475 JUMP JUMPDEST PUSH2 0x144D PUSH2 0x46B4 JUMP JUMPDEST PUSH9 0x2B5E3AF16B1880000 PUSH1 0x4 CALLDATALOAD LT PUSH2 0x1B19 JUMPI CALLER DUP3 MSTORE PUSH1 0x3 PUSH1 0x20 MSTORE PUSH2 0x1477 PUSH1 0xFF PUSH1 0x40 DUP5 KECCAK256 SLOAD AND PUSH2 0x59B9 JUMP JUMPDEST CALLER DUP3 MSTORE PUSH1 0x3 PUSH1 0x20 MSTORE PUSH1 0xFF PUSH1 0x40 DUP4 KECCAK256 SLOAD PUSH1 0x8 SHR AND ISZERO PUSH2 0x1AE4 JUMPI PUSH1 0x40 MLOAD PUSH4 0x23B872DD PUSH1 0xE0 SHL DUP2 MSTORE CALLER PUSH1 0x4 DUP1 DUP4 ADD SWAP2 SWAP1 SWAP2 MSTORE ADDRESS PUSH1 0x24 DUP4 ADD MSTORE CALLDATALOAD PUSH1 0x44 DUP3 ADD MSTORE DUP3 SWAP1 PUSH32 0x0 PUSH1 0x1 PUSH1 0x1 PUSH1 0xA0 SHL SUB AND SWAP1 PUSH1 0x20 DUP2 PUSH1 0x64 DUP2 DUP7 DUP7 GAS CALL SWAP1 DUP2 ISZERO PUSH2 0xF5A JUMPI DUP4 SWAP2 PUSH2 0x1A9E JUMPI JUMPDEST POP PUSH1 0x20 SWAP2 PUSH2 0x1507 PUSH2 0x1535 SWAP3 PUSH2 0x59F6 JUMP JUMPDEST PUSH1 0x1 SLOAD PUSH1 0x40 MLOAD PUSH4 0x95EA7B3 PUSH1 0xE0 SHL DUP2 MSTORE SWAP5 DUP6 SWAP4 DUP5 SWAP3 DUP4 SWAP2 SWAP1 PUSH1 0x4 DUP1 CALLDATALOAD SWAP2 PUSH1 0x1 PUSH1 0x1 PUSH1 0xA0 SHL SUB AND SWAP1 DUP5 ADD PUSH2 0x468A JUMP JUMPDEST SUB SWAP3 GAS CALL DUP1 ISZERO PUSH2 0xF5A JUMPI PUSH2 0x1A65 JUMPI JUMPDEST POP PUSH1 0x1 SLOAD PUSH1 0x40 MLOAD PUSH4 0x70A08231 PUSH1 0xE0 SHL DUP1 DUP3 MSTORE ADDRESS PUSH1 0x4 DUP4 ADD MSTORE SWAP2 DUP5 SWAP1 PUSH1 0x1 PUSH1 0x1 PUSH1 0xA0 SHL SUB AND PUSH1 0x20 DUP4 PUSH1 0x24 DUP2 DUP5 GAS STATICCALL SWAP3 DUP4 ISZERO PUSH2 0xA11 JUMPI DUP3 SWAP4 PUSH2 0x1A2E JUMPI JUMPDEST POP DUP1 EXTCODESIZE ISZERO PUSH2 0xA1C JUMPI DUP2 PUSH1 0x40 MLOAD DUP1 SWAP3 PUSH4 0x4E538D93 PUSH1 0xE1 SHL DUP3 MSTORE DUP2 DUP4 DUP2 PUSH2 0x15AA PUSH1 0x4 CALLDATALOAD ADDRESS PUSH1 0x4 DUP5 ADD PUSH2 0x468A JUMP JUMPDEST SUB SWAP3 GAS CALL DUP1 ISZERO PUSH2 0xA11 JUMPI PUSH2 0x1A1A JUMPI JUMPDEST POP POP PUSH1 0x1 SLOAD PUSH1 0x40 MLOAD SWAP3 DUP4 MSTORE ADDRESS PUSH1 0x4 DUP5 ADD MSTORE PUSH1 0x20 SWAP1 DUP4 SWAP1 PUSH1 0x24 SWAP1 DUP3 SWAP1 PUSH1 0x1 PUSH1 0x1 PUSH1 0xA0 SHL SUB AND GAS STATICCALL DUP1 ISZERO PUSH2 0x10CF JUMPI DUP5 SWAP1 PUSH2 0x19E6 JUMPI JUMPDEST PUSH2 0x15F6 SWAP3 POP PUSH2 0x465A JUMP JUMPDEST SWAP2 DUP3 ISZERO PUSH2 0x19B1 JUMPI PUSH1 0x40 MLOAD PUSH2 0x1609 DUP2 PUSH2 0x44FE JUMP JUMPDEST PUSH1 0xA DUP2 MSTORE PUSH1 0x2 PUSH1 0x20 DUP3 ADD MSTORE PUSH1 0x1 PUSH1 0x40 DUP3 ADD MSTORE PUSH1 0x1 PUSH1 0x60 DUP3 ADD MSTORE PUSH1 0x1 PUSH1 0x80 DUP3 ADD MSTORE CALLER DUP3 MSTORE PUSH1 0x3 PUSH1 0x20 MSTORE PUSH1 0x40 DUP3 KECCAK256 SLOAD PUSH1 0x1 DUP1 PUSH1 0xA0 SHL SUB SWAP1 PUSH1 0x10 SHR AND DUP3 SWAP5 DUP4 SWAP3 DUP5 SWAP4 JUMPDEST PUSH1 0x5 PUSH1 0xFF DUP7 AND LT ISZERO PUSH2 0x17F0 JUMPI PUSH1 0x5A PUSH2 0x1670 PUSH1 0xFF PUSH2 0x1668 DUP2 DUP10 AND DUP7 PUSH2 0x5A39 JUMP JUMPDEST MLOAD AND DUP6 PUSH2 0x48A4 JUMP JUMPDEST DIV SWAP1 DUP2 ISZERO PUSH2 0x17B1 JUMPI PUSH1 0x1 PUSH1 0x1 PUSH1 0xA0 SHL SUB DUP6 AND ISZERO DUP1 ISZERO PUSH2 0x178E JUMPI JUMPDEST ISZERO PUSH2 0x16C7 JUMPI SWAP1 PUSH2 0x1699 SWAP2 PUSH2 0x4731 JUMP JUMPDEST SWAP3 JUMPDEST PUSH1 0x1 PUSH1 0x1 PUSH1 0xA0 SHL SUB SWAP1 DUP2 AND DUP7 MSTORE PUSH1 0x3 PUSH1 0x20 MSTORE PUSH1 0x40 DUP7 KECCAK256 SLOAD PUSH1 0x10 SHR AND SWAP4 PUSH2 0x16C0 SWAP1 PUSH2 0x5159 JUMP JUMPDEST SWAP4 SWAP3 PUSH2 0x1649 JUMP JUMPDEST SWAP4 SWAP1 SWAP8 DUP9 PUSH2 0x171F SWAP2 PUSH1 0x1 DUP1 PUSH1 0xA0 SHL SUB DUP5 AND DUP10 MSTORE PUSH1 0x3 PUSH1 0x20 MSTORE PUSH1 0x8 PUSH1 0x40 DUP11 KECCAK256 ADD PUSH2 0x16F1 DUP4 DUP3 SLOAD PUSH2 0x4731 JUMP JUMPDEST SWAP1 SSTORE PUSH1 0x1 PUSH1 0x1 PUSH1 0xA0 SHL SUB DUP5 AND DUP10 MSTORE PUSH1 0x3 PUSH1 0x20 MSTORE PUSH1 0x40 DUP10 KECCAK256 PUSH1 0x9 ADD DUP1 SLOAD PUSH2 0x1718 SWAP1 DUP5 SWAP1 PUSH2 0x4731 JUMP JUMPDEST SWAP1 SSTORE PUSH2 0x4731 JUMP JUMPDEST SWAP8 PUSH1 0xFF PUSH1 0x1 DUP2 DUP9 AND ADD GT PUSH2 0x177A JUMPI PUSH1 0x40 MLOAD CALLER SWAP2 PUSH1 0x1 PUSH1 0x1 PUSH1 0xA0 SHL SUB DUP5 AND SWAP2 PUSH32 0xC8C0CC32A736135FA3C2A3C467849CD282797396BC67D2D5326F7E161E601C1D SWAP2 DUP2 SWAP1 PUSH2 0x1772 SWAP1 PUSH1 0xFF DUP13 AND PUSH1 0x1 ADD DUP4 PUSH2 0x516A JUMP JUMPDEST SUB SWAP1 LOG3 PUSH2 0x169B JUMP JUMPDEST PUSH4 0x4E487B71 PUSH1 0xE0 SHL DUP8 MSTORE PUSH1 0x11 PUSH1 0x4 MSTORE PUSH1 0x24 DUP8 REVERT JUMPDEST POP PUSH1 0x1 PUSH1 0x1 PUSH1 0xA0 SHL SUB DUP6 AND DUP8 MSTORE PUSH1 0x3 PUSH1 0x20 MSTORE PUSH1 0x40 DUP8 KECCAK256 SLOAD PUSH1 0x8 SHR PUSH1 0xFF AND ISZERO PUSH2 0x168A JUMP JUMPDEST SWAP4 SWAP5 SWAP1 POP PUSH1 0x1 PUSH1 0x1 PUSH1 0xA0 SHL SUB DUP6 AND PUSH2 0x17CD JUMPI JUMPDEST PUSH2 0x16C0 SWAP1 PUSH2 0x5159 JUMP JUMPDEST PUSH1 0x1 PUSH1 0x1 PUSH1 0xA0 SHL SUB SWAP5 DUP6 AND DUP7 MSTORE PUSH1 0x3 PUSH1 0x20 MSTORE PUSH1 0x40 DUP7 KECCAK256 SLOAD PUSH1 0x10 SHR SWAP1 SWAP5 AND SWAP4 PUSH2 0x17C4 JUMP JUMPDEST DUP7 DUP9 DUP5 DUP9 SWAP4 PUSH1 0x5 DUP3 MUL DUP3 DUP2 DIV PUSH1 0x5 SUB PUSH2 0x199D JUMPI SWAP2 PUSH2 0x1831 PUSH2 0x1837 SWAP3 PUSH1 0x5A PUSH2 0x183C SWAP7 SWAP6 DIV SWAP5 PUSH2 0x1829 PUSH2 0x1821 DUP4 DUP9 PUSH2 0x4731 JUMP JUMPDEST PUSH1 0x8 SLOAD PUSH2 0x4731 JUMP JUMPDEST PUSH1 0x8 SSTORE PUSH2 0x4731 JUMP JUMPDEST SWAP1 PUSH2 0x465A JUMP JUMPDEST PUSH2 0x465A JUMP JUMPDEST SWAP1 DUP2 ISZERO PUSH2 0x1963 JUMPI CALLER DUP4 MSTORE PUSH1 0xD PUSH1 0x20 MSTORE PUSH1 0x40 DUP4 KECCAK256 DUP1 SLOAD SWAP3 SWAP1 DUP3 ISZERO PUSH2 0x195C JUMPI TIMESTAMP SWAP1 JUMPDEST PUSH1 0x40 MLOAD SWAP2 PUSH2 0x1869 DUP4 PUSH2 0x44FE JUMP JUMPDEST DUP4 DUP4 MSTORE PUSH1 0x4 CALLDATALOAD PUSH1 0x20 DUP5 ADD MSTORE TIMESTAMP PUSH1 0x40 DUP5 ADD MSTORE PUSH1 0x60 DUP4 ADD MSTORE PUSH1 0x1 PUSH1 0x80 DUP4 ADD MSTORE PUSH1 0x1 PUSH1 0x40 SHL DUP6 LT ISZERO PUSH2 0x1948 JUMPI DUP5 PUSH2 0x18A2 SWAP2 PUSH1 0x1 DUP3 ADD DUP2 SSTORE PUSH2 0x5A4A JUMP JUMPDEST PUSH2 0x1934 JUMPI PUSH1 0x4 PUSH1 0x80 SWAP2 DUP4 MLOAD DUP2 SSTORE PUSH1 0x20 DUP5 ADD MLOAD PUSH1 0x1 DUP3 ADD SSTORE PUSH1 0x40 DUP5 ADD MLOAD PUSH1 0x2 DUP3 ADD SSTORE PUSH1 0x60 DUP5 ADD MLOAD PUSH1 0x3 DUP3 ADD SSTORE ADD SWAP2 ADD MLOAD ISZERO ISZERO PUSH1 0xFF DUP1 NOT DUP4 SLOAD AND SWAP2 AND OR SWAP1 SSTORE PUSH1 0x40 MLOAD SWAP3 DUP4 MSTORE PUSH1 0x4 CALLDATALOAD PUSH1 0x20 DUP5 ADD MSTORE PUSH1 0x40 DUP4 ADD MSTORE ISZERO ISZERO PUSH1 0x60 DUP3 ADD MSTORE PUSH32 0x830141583677D950FE61A27B93001EDFF66B597C666B2C90F5FB6E79A4BEFD0E PUSH1 0x80 CALLER SWAP3 LOG2 PUSH1 0x1 PUSH1 0x0 DUP1 MLOAD PUSH1 0x20 PUSH2 0x5EEB DUP4 CODECOPY DUP2 MLOAD SWAP2 MSTORE SSTORE DUP1 RETURN JUMPDEST PUSH4 0x4E487B71 PUSH1 0xE0 SHL DUP7 MSTORE PUSH1 0x4 DUP7 SWAP1 MSTORE PUSH1 0x24 DUP7 REVERT JUMPDEST PUSH4 0x4E487B71 PUSH1 0xE0 SHL DUP7 MSTORE PUSH1 0x41 PUSH1 0x4 MSTORE PUSH1 0x24 DUP7 REVERT JUMPDEST DUP5 SWAP1 PUSH2 0x185C JUMP JUMPDEST PUSH1 0x40 MLOAD PUSH3 0x461BCD PUSH1 0xE5 SHL DUP2 MSTORE PUSH1 0x20 PUSH1 0x4 DUP3 ADD MSTORE PUSH1 0x12 PUSH1 0x24 DUP3 ADD MSTORE PUSH18 0x4E6F20746F6B656E7320746F207374616B65 PUSH1 0x70 SHL PUSH1 0x44 DUP3 ADD MSTORE PUSH1 0x64 SWAP1 REVERT JUMPDEST PUSH4 0x4E487B71 PUSH1 0xE0 SHL DUP7 MSTORE PUSH1 0x11 PUSH1 0x4 MSTORE PUSH1 0x24 DUP7 REVERT JUMPDEST PUSH1 0x40 MLOAD PUSH3 0x461BCD PUSH1 0xE5 SHL DUP2 MSTORE PUSH1 0x20 PUSH1 0x4 DUP3 ADD MSTORE PUSH1 0xD PUSH1 0x24 DUP3 ADD MSTORE PUSH13 0x139BC8135595081B5A5B9D1959 PUSH1 0x9A SHL PUSH1 0x44 DUP3 ADD MSTORE PUSH1 0x64 SWAP1 REVERT JUMPDEST POP PUSH1 0x20 DUP3 RETURNDATASIZE PUSH1 0x20 GT PUSH2 0x1A12 JUMPI JUMPDEST DUP2 PUSH2 0x1A00 PUSH1 0x20 SWAP4 DUP4 PUSH2 0x452C JUMP JUMPDEST DUP2 ADD SUB SLT PUSH2 0xAB1 JUMPI PUSH2 0x15F6 SWAP2 MLOAD PUSH2 0x15EC JUMP JUMPDEST RETURNDATASIZE SWAP2 POP PUSH2 0x19F3 JUMP JUMPDEST PUSH2 0x1A23 SWAP1 PUSH2 0x4519 JUMP JUMPDEST PUSH2 0xA0D JUMPI DUP4 CODESIZE PUSH2 0x15B9 JUMP JUMPDEST SWAP2 POP SWAP2 POP PUSH1 0x20 DUP2 RETURNDATASIZE PUSH1 0x20 GT PUSH2 0x1A5D JUMPI JUMPDEST DUP2 PUSH2 0x1A4B PUSH1 0x20 SWAP4 DUP4 PUSH2 0x452C JUMP JUMPDEST DUP2 ADD SUB SLT PUSH2 0xAB1 JUMPI DUP5 SWAP1 MLOAD SWAP2 CODESIZE PUSH2 0x157F JUMP JUMPDEST RETURNDATASIZE SWAP2 POP PUSH2 0x1A3E JUMP JUMPDEST PUSH1 0x20 DUP2 RETURNDATASIZE PUSH1 0x20 GT PUSH2 0x1A96 JUMPI JUMPDEST DUP2 PUSH2 0x1A7E PUSH1 0x20 SWAP4 DUP4 PUSH2 0x452C JUMP JUMPDEST DUP2 ADD SUB SLT PUSH2 0xF4E JUMPI PUSH2 0x1A8F SWAP1 PUSH2 0x467D JUMP JUMPDEST POP CODESIZE PUSH2 0x1544 JUMP JUMPDEST RETURNDATASIZE SWAP2 POP PUSH2 0x1A71 JUMP JUMPDEST SWAP1 POP PUSH1 0x20 DUP2 RETURNDATASIZE PUSH1 0x20 GT PUSH2 0x1ADC JUMPI JUMPDEST DUP2 PUSH2 0x1AB9 PUSH1 0x20 SWAP4 DUP4 PUSH2 0x452C JUMP JUMPDEST DUP2 ADD SUB SLT PUSH2 0xF4E JUMPI PUSH1 0x20 SWAP2 PUSH2 0x1507 PUSH2 0x1AD3 PUSH2 0x1535 SWAP4 PUSH2 0x467D JUMP JUMPDEST SWAP3 POP POP SWAP2 PUSH2 0x14F7 JUMP JUMPDEST RETURNDATASIZE SWAP2 POP PUSH2 0x1AAC JUMP JUMPDEST PUSH1 0x40 MLOAD PUSH3 0x461BCD PUSH1 0xE5 SHL DUP2 MSTORE PUSH1 0x20 PUSH1 0x4 DUP3 ADD MSTORE PUSH1 0xD PUSH1 0x24 DUP3 ADD MSTORE PUSH13 0x139BDD081858DD1A5D985D1959 PUSH1 0x9A SHL PUSH1 0x44 DUP3 ADD MSTORE PUSH1 0x64 SWAP1 REVERT JUMPDEST PUSH1 0x40 MLOAD PUSH3 0x461BCD PUSH1 0xE5 SHL DUP2 MSTORE PUSH1 0x20 PUSH1 0x4 DUP3 ADD MSTORE PUSH1 0x11 PUSH1 0x24 DUP3 ADD MSTORE PUSH17 0x42656C6F7720243530206D696E696D756D PUSH1 0x78 SHL PUSH1 0x44 DUP3 ADD MSTORE PUSH1 0x64 SWAP1 REVERT JUMPDEST POP CALLVALUE PUSH2 0x311 JUMPI DUP1 PUSH1 0x3 NOT CALLDATASIZE ADD SLT PUSH2 0x311 JUMPI PUSH1 0x20 PUSH1 0x40 MLOAD PUSH9 0x15245655B102580000 DUP2 MSTORE RETURN JUMPDEST POP CALLVALUE PUSH2 0x311 JUMPI PUSH1 0x60 CALLDATASIZE PUSH1 0x3 NOT ADD SLT PUSH2 0x311 JUMPI PUSH2 0x1B90 PUSH2 0x434C JUMP JUMPDEST PUSH2 0x1B98 PUSH2 0x4362 JUMP JUMPDEST PUSH2 0x1BA0 PUSH2 0x4484 JUMP JUMPDEST CALLER DUP5 MSTORE PUSH1 0x3 PUSH1 0x20 SWAP3 DUP2 DUP5 MSTORE PUSH1 0xFF PUSH1 0x40 DUP8 KECCAK256 SLOAD AND PUSH2 0xDBF JUMPI PUSH1 0x5 SLOAD PUSH2 0x1C7B JUMPI CALLER PUSH1 0x0 SWAP1 DUP2 MSTORE DUP3 DUP6 MSTORE PUSH1 0x40 SWAP1 KECCAK256 DUP1 SLOAD PUSH2 0xFF01 PUSH1 0x1 PUSH1 0xB0 SHL SUB NOT AND PUSH1 0x1 OR DUP2 SSTORE PUSH1 0x2 DUP2 ADD DUP1 SLOAD PUSH1 0x1 PUSH1 0x1 PUSH1 0xA8 SHL SUB NOT AND SWAP1 SSTORE PUSH1 0x12 DUP2 ADD DUP1 SLOAD PUSH1 0x1 PUSH1 0x1 PUSH1 0xA0 SHL SUB NOT AND SWAP1 SSTORE TIMESTAMP PUSH1 0x14 SWAP1 SWAP2 ADD SSTORE PUSH1 0x4 SLOAD SWAP2 PUSH1 0x1 PUSH1 0x40 SHL DUP4 LT ISZERO PUSH2 0x5B1 JUMPI PUSH2 0x1C37 DUP4 PUSH1 0x1 PUSH1 0x0 DUP1 MLOAD PUSH1 0x20 PUSH2 0x5E6B DUP4 CODECOPY DUP2 MLOAD SWAP2 MSTORE SWAP6 ADD PUSH1 0x4 SSTORE PUSH2 0x4493 JUMP JUMPDEST DUP2 SWAP3 SWAP2 SLOAD SWAP2 SHL SWAP1 CALLER DUP3 SHL SWAP2 PUSH1 0x1 DUP1 PUSH1 0xA0 SHL SUB SWAP1 SHL NOT AND OR SWAP1 SSTORE PUSH2 0x1C5B PUSH1 0x5 SLOAD PUSH2 0x46A5 JUMP JUMPDEST PUSH1 0x5 SSTORE JUMPDEST PUSH1 0x40 MLOAD SWAP3 ISZERO ISZERO DUP4 MSTORE PUSH1 0x1 PUSH1 0x1 PUSH1 0xA0 SHL SUB SWAP1 DUP2 AND SWAP5 AND SWAP3 CALLER SWAP3 LOG4 DUP1 RETURN JUMPDEST PUSH1 0x1 PUSH1 0x1 PUSH1 0xA0 SHL SUB DUP6 DUP2 AND DUP1 DUP9 MSTORE DUP4 DUP7 MSTORE PUSH1 0x40 DUP9 KECCAK256 SLOAD SWAP2 SWAP4 SWAP2 PUSH1 0xFF AND ISZERO PUSH2 0x1D9D JUMPI DUP4 DUP4 AND DUP1 ISZERO ISZERO SWAP1 DUP2 PUSH2 0x1D89 JUMPI JUMPDEST POP ISZERO PUSH2 0x1D82 JUMPI DUP3 SWAP4 JUMPDEST DUP6 DUP1 PUSH2 0x1D69 JUMPI JUMPDEST PUSH2 0xD4C JUMPI DUP6 ISZERO DUP1 PUSH2 0x1D4F JUMPI JUMPDEST PUSH2 0xD4C JUMPI DUP5 PUSH2 0x1CE5 DUP8 PUSH1 0x0 DUP1 MLOAD PUSH1 0x20 PUSH2 0x5E6B DUP4 CODECOPY DUP2 MLOAD SWAP2 MSTORE SWAP8 DUP12 CALLER PUSH2 0x473E JUMP JUMPDEST DUP7 ISZERO PUSH2 0x1D2D JUMPI AND DUP9 MSTORE DUP2 DUP7 MSTORE PUSH1 0x40 DUP9 KECCAK256 DUP3 ADD DUP1 SLOAD PUSH1 0x1 PUSH1 0x1 PUSH1 0xA0 SHL SUB NOT AND CALLER OR SWAP1 SSTORE JUMPDEST DUP8 MSTORE DUP5 MSTORE PUSH1 0x1 PUSH1 0x40 DUP8 KECCAK256 ADD PUSH2 0x1D1D DUP2 SLOAD PUSH2 0x46A5 JUMP JUMPDEST SWAP1 SSTORE PUSH2 0x1D28 CALLER PUSH2 0x4805 JUMP JUMPDEST PUSH2 0x1C5F JUMP JUMPDEST AND DUP9 MSTORE DUP2 DUP7 MSTORE PUSH1 0x40 DUP9 KECCAK256 PUSH1 0x4 ADD DUP1 SLOAD PUSH1 0x1 PUSH1 0x1 PUSH1 0xA0 SHL SUB NOT AND CALLER OR SWAP1 SSTORE PUSH2 0x1D08 JUMP JUMPDEST POP DUP1 DUP6 AND DUP10 MSTORE DUP3 DUP8 MSTORE DUP1 PUSH1 0x4 PUSH1 0x40 DUP12 KECCAK256 ADD SLOAD AND ISZERO ISZERO PUSH2 0x1CC5 JUMP JUMPDEST POP DUP1 DUP6 AND DUP10 MSTORE DUP3 DUP8 MSTORE DUP1 DUP4 PUSH1 0x40 DUP12 KECCAK256 ADD SLOAD AND ISZERO ISZERO PUSH2 0x1CB9 JUMP JUMPDEST DUP7 SWAP4 PUSH2 0x1CB2 JUMP JUMPDEST DUP10 MSTORE POP DUP2 DUP7 MSTORE PUSH1 0x40 DUP9 KECCAK256 SLOAD PUSH1 0xFF AND CODESIZE PUSH2 0x1CA9 JUMP JUMPDEST PUSH1 0x40 MLOAD PUSH4 0x2F212E0D PUSH1 0xE1 SHL DUP2 MSTORE PUSH1 0x4 SWAP1 REVERT JUMPDEST POP CALLVALUE PUSH2 0x311 JUMPI DUP1 PUSH1 0x3 NOT CALLDATASIZE ADD SLT PUSH2 0x311 JUMPI PUSH1 0x40 MLOAD PUSH32 0x0 PUSH1 0x1 PUSH1 0x1 PUSH1 0xA0 SHL SUB AND DUP2 MSTORE PUSH1 0x20 SWAP1 RETURN JUMPDEST POP CALLVALUE PUSH2 0x311 JUMPI PUSH1 0x20 CALLDATASIZE PUSH1 0x3 NOT ADD SLT PUSH2 0x311 JUMPI PUSH1 0x40 SWAP1 PUSH1 0x1 PUSH1 0x1 PUSH1 0xA0 SHL SUB PUSH2 0x1E19 PUSH2 0x434C JUMP JUMPDEST AND DUP2 MSTORE PUSH1 0x3 PUSH1 0x20 MSTORE KECCAK256 DUP1 PUSH2 0x180 MSTORE DUP1 DUP1 DUP1 DUP1 DUP1 DUP1 DUP1 DUP1 DUP1 DUP1 DUP1 DUP1 PUSH2 0x1EDA PUSH1 0x15 PUSH1 0xF PUSH1 0xE PUSH1 0xD PUSH1 0xC PUSH1 0xB PUSH1 0xA PUSH1 0x9 PUSH1 0x8 PUSH1 0x7 PUSH1 0x6 PUSH1 0x5 DUP14 SLOAD SWAP14 PUSH1 0x1 DUP2 ADD SLOAD PUSH1 0xA0 MSTORE PUSH1 0x2 DUP2 ADD SLOAD PUSH1 0xE0 MSTORE PUSH1 0x1 DUP1 PUSH1 0xA0 SHL SUB PUSH1 0x3 DUP3 ADD SLOAD AND PUSH1 0xC0 MSTORE PUSH1 0x4 PUSH1 0x1 DUP1 PUSH1 0xA0 SHL SUB SWAP2 ADD SLOAD AND SWAP15 ADD SLOAD SWAP15 ADD SLOAD SWAP15 ADD SLOAD SWAP15 ADD SLOAD SWAP15 ADD SLOAD SWAP15 ADD SLOAD SWAP15 ADD SLOAD SWAP15 ADD SLOAD SWAP15 ADD SLOAD SWAP15 ADD SLOAD SWAP15 ADD SLOAD SWAP15 PUSH1 0x10 DUP2 ADD SLOAD PUSH2 0x160 MSTORE PUSH1 0x11 DUP2 ADD SLOAD PUSH2 0x1A0 MSTORE PUSH1 0x1 DUP1 PUSH1 0xA0 SHL SUB PUSH1 0x12 DUP3 ADD SLOAD AND PUSH1 0x80 MSTORE PUSH1 0x13 DUP2 ADD SLOAD PUSH2 0x240 MSTORE PUSH1 0x14 DUP2 ADD SLOAD PUSH2 0x1C0 MSTORE ADD PUSH2 0x454F JUMP JUMPDEST PUSH2 0x300 MSTORE PUSH2 0x1EED PUSH1 0x16 PUSH2 0x180 MLOAD ADD PUSH2 0x454F JUMP JUMPDEST PUSH2 0x280 MSTORE PUSH2 0x1F00 PUSH1 0x17 PUSH2 0x180 MLOAD ADD PUSH2 0x454F JUMP JUMPDEST PUSH2 0x140 MSTORE PUSH2 0x1F13 PUSH1 0x18 PUSH2 0x180 MLOAD ADD PUSH2 0x454F JUMP JUMPDEST PUSH2 0x220 MSTORE PUSH1 0xFF PUSH1 0x19 PUSH2 0x180 MLOAD ADD SLOAD AND PUSH2 0x260 MSTORE PUSH1 0x40 MLOAD DUP1 PUSH2 0x100 MSTORE PUSH1 0xFF DUP3 AND ISZERO ISZERO SWAP1 MSTORE PUSH1 0xFF DUP2 PUSH1 0x8 SHR AND ISZERO ISZERO PUSH1 0x20 PUSH2 0x100 MLOAD ADD MSTORE PUSH1 0x1 DUP1 PUSH1 0xA0 SHL SUB SWAP1 PUSH1 0x10 SHR AND PUSH1 0x40 PUSH2 0x100 MLOAD ADD MSTORE PUSH1 0xA0 MLOAD PUSH1 0x60 PUSH2 0x100 MLOAD ADD MSTORE PUSH1 0x1 DUP1 PUSH1 0xA0 SHL SUB PUSH1 0xE0 MLOAD AND PUSH1 0x80 PUSH2 0x100 MLOAD ADD MSTORE PUSH1 0xFF PUSH1 0xE0 MLOAD PUSH1 0xA0 SHR AND ISZERO ISZERO PUSH1 0xA0 PUSH2 0x100 MLOAD ADD MSTORE PUSH1 0xC0 MLOAD PUSH1 0xC0 PUSH2 0x100 MLOAD ADD MSTORE PUSH1 0xE0 PUSH2 0x100 MLOAD ADD MSTORE PUSH2 0x100 DUP1 MLOAD ADD MSTORE PUSH2 0x120 PUSH2 0x100 MLOAD ADD MSTORE PUSH2 0x140 PUSH2 0x100 MLOAD ADD MSTORE PUSH2 0x160 PUSH2 0x100 MLOAD ADD MSTORE PUSH2 0x180 PUSH2 0x100 MLOAD ADD MSTORE PUSH2 0x1A0 PUSH2 0x100 MLOAD ADD MSTORE PUSH2 0x1C0 PUSH2 0x100 MLOAD ADD MSTORE PUSH2 0x1E0 PUSH2 0x100 MLOAD ADD MSTORE PUSH2 0x200 PUSH2 0x100 MLOAD ADD MSTORE PUSH2 0x220 PUSH2 0x100 MLOAD ADD MSTORE PUSH2 0x240 PUSH2 0x100 MLOAD ADD MSTORE PUSH2 0x160 MLOAD PUSH2 0x260 PUSH2 0x100 MLOAD ADD MSTORE PUSH2 0x1A0 MLOAD PUSH2 0x280 PUSH2 0x100 MLOAD ADD MSTORE PUSH1 0x80 MLOAD PUSH2 0x2A0 PUSH2 0x100 MLOAD ADD MSTORE PUSH2 0x240 MLOAD PUSH2 0x2C0 PUSH2 0x100 MLOAD ADD MSTORE PUSH2 0x1C0 MLOAD PUSH2 0x2E0 PUSH2 0x100 MLOAD ADD MSTORE PUSH2 0x20A9 PUSH2 0x2093 PUSH2 0x207D PUSH2 0x2067 PUSH2 0x3A0 DUP1 PUSH2 0x300 PUSH2 0x100 MLOAD ADD MSTORE PUSH2 0x100 MLOAD ADD PUSH2 0x300 MLOAD PUSH2 0x4378 JUMP JUMPDEST PUSH2 0x100 MLOAD PUSH2 0x320 DUP2 DUP4 SUB SWAP2 ADD MSTORE PUSH2 0x280 MLOAD PUSH2 0x4378 JUMP JUMPDEST PUSH2 0x100 MLOAD PUSH2 0x340 DUP2 DUP4 SUB SWAP2 ADD MSTORE PUSH2 0x140 MLOAD PUSH2 0x4378 JUMP JUMPDEST PUSH2 0x100 MLOAD PUSH2 0x360 DUP2 DUP4 SUB SWAP2 ADD MSTORE PUSH2 0x220 MLOAD PUSH2 0x4378 JUMP JUMPDEST PUSH2 0x260 MLOAD ISZERO ISZERO PUSH2 0x380 PUSH2 0x100 MLOAD ADD MSTORE PUSH2 0x100 MLOAD DUP1 SWAP2 SUB SWAP1 RETURN JUMPDEST POP CALLVALUE PUSH2 0x311 JUMPI PUSH1 0x20 CALLDATASIZE PUSH1 0x3 NOT ADD SLT PUSH2 0x311 JUMPI PUSH1 0x4 CALLDATALOAD SWAP1 PUSH1 0x4 SLOAD DUP3 LT ISZERO PUSH2 0x311 JUMPI PUSH1 0x20 PUSH2 0x20ED DUP4 PUSH2 0x4493 JUMP JUMPDEST SWAP1 SLOAD PUSH1 0x40 MLOAD PUSH1 0x3 SWAP3 SWAP1 SWAP3 SHL SHR PUSH1 0x1 PUSH1 0x1 PUSH1 0xA0 SHL SUB AND DUP2 MSTORE RETURN JUMPDEST POP CALLVALUE PUSH2 0x311 JUMPI PUSH1 0x20 CALLDATASIZE PUSH1 0x3 NOT ADD SLT PUSH2 0x311 JUMPI PUSH1 0x60 PUSH2 0x212A PUSH2 0x2125 PUSH2 0x434C JUMP JUMPDEST PUSH2 0x5BE8 JUMP JUMPDEST SWAP1 PUSH1 0x40 MLOAD SWAP3 ISZERO ISZERO DUP4 MSTORE PUSH1 0x20 DUP4 ADD MSTORE PUSH1 0x40 DUP3 ADD MSTORE RETURN JUMPDEST POP CALLVALUE PUSH2 0x311 JUMPI PUSH1 0x40 CALLDATASIZE PUSH1 0x3 NOT ADD SLT PUSH2 0x311 JUMPI PUSH2 0x2159 PUSH2 0x434C JUMP JUMPDEST PUSH2 0x2161 PUSH2 0x4475 JUMP JUMPDEST PUSH2 0x2169 PUSH2 0x46B4 JUMP JUMPDEST PUSH1 0x1 PUSH1 0x1 PUSH1 0xA0 SHL SUB DUP3 AND ISZERO PUSH2 0x726 JUMPI CALLER DUP4 MSTORE PUSH1 0x3 PUSH1 0x20 MSTORE PUSH1 0x40 DUP4 KECCAK256 DUP1 SLOAD SWAP2 PUSH2 0x2196 PUSH1 0xFF DUP5 PUSH1 0x8 SHR AND PUSH2 0x4621 JUMP JUMPDEST PUSH1 0xD DUP3 ADD DUP1 SLOAD SWAP1 PUSH9 0x70C1CC73B00C80000 DUP1 DUP4 LT PUSH2 0x24BD JUMPI PUSH1 0x1 PUSH1 0x1 PUSH1 0xA0 SHL SUB DUP8 AND DUP9 MSTORE PUSH1 0x3 PUSH1 0x20 MSTORE PUSH1 0x40 DUP9 KECCAK256 SLOAD PUSH1 0xFF AND PUSH2 0x2478 JUMPI PUSH9 0x70C1CC73B00C7FFFF NOT DUP4 ADD SWAP3 DUP4 GT PUSH2 0x2464 JUMPI PUSH2 0x2231 SWAP4 SWAP3 SWAP2 SWAP1 DUP1 DUP4 LT PUSH2 0x2459 JUMPI PUSH2 0x21F8 SWAP1 DUP1 SWAP4 PUSH2 0x465A JUMP JUMPDEST SWAP1 SSTORE PUSH1 0xC DUP5 ADD PUSH2 0x2209 DUP3 DUP3 SLOAD PUSH2 0x4731 JUMP JUMPDEST SWAP1 SSTORE PUSH2 0x221A PUSH1 0xE DUP6 ADD SWAP2 DUP3 SLOAD PUSH2 0x4731 JUMP JUMPDEST SWAP1 SSTORE PUSH9 0x15245655B102580000 PUSH1 0xB DUP5 ADD SSTORE CALLER PUSH2 0x5319 JUMP JUMPDEST PUSH1 0x1 PUSH1 0x1 PUSH1 0xA0 SHL SUB DUP6 DUP2 AND PUSH1 0x0 SWAP1 DUP2 MSTORE PUSH1 0x3 PUSH1 0x20 MSTORE PUSH1 0x40 SWAP1 KECCAK256 DUP1 SLOAD PUSH2 0xFF01 PUSH1 0x1 PUSH1 0xB0 SHL SUB NOT AND PUSH3 0x10000 PUSH1 0x1 PUSH1 0xB0 SHL SUB DUP8 AND OR PUSH1 0x1 OR DUP2 SSTORE PUSH1 0x2 DUP2 ADD DUP1 SLOAD PUSH1 0x1 PUSH1 0x1 PUSH1 0xA8 SHL SUB NOT AND SWAP3 DUP6 AND SWAP3 SWAP1 SWAP3 OR DUP4 ISZERO ISZERO PUSH1 0xA0 SHL PUSH1 0xFF PUSH1 0xA0 SHL AND OR SWAP1 SWAP2 SSTORE PUSH1 0x12 DUP2 ADD DUP1 SLOAD PUSH1 0x1 PUSH1 0x1 PUSH1 0xA0 SHL SUB NOT AND CALLER OR SWAP1 SSTORE TIMESTAMP PUSH1 0x14 SWAP1 SWAP2 ADD SSTORE PUSH1 0x4 SLOAD SWAP4 SWAP2 SWAP1 PUSH1 0x1 PUSH1 0x40 SHL DUP6 LT ISZERO PUSH2 0x5B1 JUMPI PUSH2 0x22CF DUP6 PUSH1 0x1 PUSH1 0x13 SWAP8 ADD PUSH1 0x4 SSTORE PUSH2 0x4493 JUMP JUMPDEST DUP2 SLOAD PUSH1 0x1 PUSH1 0x1 PUSH1 0xA0 SHL SUB DUP10 DUP2 AND PUSH1 0x3 SWAP4 SWAP1 SWAP4 SHL SWAP3 DUP4 SHL SWAP3 SHL NOT AND OR SWAP1 SSTORE PUSH1 0x5 SLOAD PUSH2 0x22F8 SWAP1 PUSH2 0x46A5 JUMP JUMPDEST PUSH1 0x5 SSTORE ISZERO PUSH2 0x2426 JUMPI PUSH1 0x1 PUSH1 0x1 PUSH1 0xA0 SHL SUB SWAP1 DUP2 AND DUP7 MSTORE PUSH1 0x3 PUSH1 0x20 DUP2 SWAP1 MSTORE PUSH1 0x40 DUP8 KECCAK256 ADD DUP1 SLOAD PUSH1 0x1 PUSH1 0x1 PUSH1 0xA0 SHL SUB NOT AND SWAP2 DUP7 AND SWAP2 SWAP1 SWAP2 OR SWAP1 SSTORE JUMPDEST PUSH1 0x10 SHR PUSH1 0x1 PUSH1 0x1 PUSH1 0xA0 SHL SUB AND DUP1 PUSH2 0x2406 JUMPI JUMPDEST POP PUSH2 0x234B DUP4 PUSH2 0x4805 JUMP JUMPDEST PUSH2 0x2354 DUP4 PUSH2 0x48FB JUMP JUMPDEST ADD PUSH2 0x235F DUP2 SLOAD PUSH2 0x46A5 JUMP JUMPDEST SWAP1 DUP2 SWAP1 SSTORE PUSH1 0x40 MLOAD SWAP1 DUP2 MSTORE PUSH1 0x1 PUSH1 0x1 PUSH1 0xA0 SHL SUB DUP3 AND SWAP1 CALLER SWAP1 PUSH32 0x30016ED357540281A6CFF6143637E72B48E105D85D15DF66B0AAFFBD23790240 SWAP1 PUSH1 0x20 SWAP1 LOG3 CALLER PUSH1 0x0 MSTORE PUSH1 0xE PUSH1 0x20 MSTORE PUSH1 0x40 PUSH1 0x0 KECCAK256 SWAP1 PUSH1 0x40 MLOAD PUSH2 0x23B7 DUP2 PUSH2 0x44FE JUMP JUMPDEST PUSH1 0x9 DUP2 MSTORE PUSH1 0x20 DUP2 ADD SWAP1 PUSH4 0xFFFFFFFF TIMESTAMP AND DUP3 MSTORE PUSH1 0x40 DUP2 ADD PUSH1 0x0 DUP2 MSTORE PUSH1 0x60 DUP3 ADD SWAP5 PUSH1 0x0 DUP7 MSTORE PUSH1 0x80 DUP4 ADD SWAP5 PUSH1 0x1 DUP1 PUSH1 0xA0 SHL SUB AND DUP6 MSTORE DUP1 SLOAD PUSH1 0x1 PUSH1 0x40 SHL DUP2 LT ISZERO PUSH2 0x5B1 JUMPI PUSH2 0x529 SWAP2 PUSH1 0x1 DUP3 ADD DUP2 SSTORE PUSH2 0x46E4 JUMP JUMPDEST DUP5 MSTORE PUSH1 0x3 PUSH1 0x20 MSTORE PUSH1 0x1 PUSH1 0x40 DUP6 KECCAK256 ADD PUSH2 0x241E DUP2 SLOAD PUSH2 0x46A5 JUMP JUMPDEST SWAP1 SSTORE CODESIZE PUSH2 0x2341 JUMP JUMPDEST PUSH1 0x1 PUSH1 0x1 PUSH1 0xA0 SHL SUB SWAP1 DUP2 AND DUP7 MSTORE PUSH1 0x3 PUSH1 0x20 MSTORE PUSH1 0x40 DUP7 KECCAK256 PUSH1 0x4 ADD DUP1 SLOAD PUSH1 0x1 PUSH1 0x1 PUSH1 0xA0 SHL SUB NOT AND SWAP2 DUP7 AND SWAP2 SWAP1 SWAP2 OR SWAP1 SSTORE PUSH2 0x232F JUMP JUMPDEST POP PUSH2 0x21F8 DUP3 DUP1 PUSH2 0x465A JUMP JUMPDEST PUSH4 0x4E487B71 PUSH1 0xE0 SHL DUP9 MSTORE PUSH1 0x11 PUSH1 0x4 MSTORE PUSH1 0x24 DUP9 REVERT JUMPDEST PUSH1 0x40 MLOAD PUSH3 0x461BCD PUSH1 0xE5 SHL DUP2 MSTORE PUSH1 0x20 PUSH1 0x4 DUP3 ADD MSTORE PUSH1 0x1E PUSH1 0x24 DUP3 ADD MSTORE PUSH32 0x5375622D6163636F756E7420616C726561647920726567697374657265640000 PUSH1 0x44 DUP3 ADD MSTORE PUSH1 0x64 SWAP1 REVERT JUMPDEST PUSH1 0x40 MLOAD PUSH4 0x7DB32BD PUSH1 0xE3 SHL DUP2 MSTORE PUSH1 0x4 SWAP1 REVERT JUMPDEST POP CALLVALUE PUSH2 0x311 JUMPI DUP1 PUSH1 0x3 NOT CALLDATASIZE ADD SLT PUSH2 0x311 JUMPI PUSH1 0x20 PUSH1 0x40 MLOAD PUSH1 0xA DUP2 MSTORE RETURN JUMPDEST POP CALLVALUE PUSH2 0x311 JUMPI DUP1 PUSH1 0x3 NOT CALLDATASIZE ADD SLT PUSH2 0x311 JUMPI SLOAD PUSH1 0x40 MLOAD PUSH1 0x1 PUSH1 0x1 PUSH1 0xA0 SHL SUB SWAP1 SWAP2 AND DUP2 MSTORE PUSH1 0x20 SWAP1 RETURN JUMPDEST POP CALLVALUE PUSH2 0x311 JUMPI PUSH2 0x2521 CALLDATASIZE PUSH2 0x43EC JUMP JUMPDEST SWAP1 PUSH2 0x252A PUSH2 0x45F5 JUMP JUMPDEST PUSH2 0x2532 PUSH2 0x46B4 JUMP JUMPDEST PUSH1 0xFF SWAP2 DUP3 PUSH1 0xA SLOAD AND ISZERO PUSH2 0x281E JUMPI PUSH2 0x2549 SWAP1 DUP3 PUSH2 0x4731 JUMP JUMPDEST SWAP1 PUSH1 0x4 SLOAD DUP1 DUP4 GT PUSH2 0x2816 JUMPI JUMPDEST POP DUP4 SWAP2 DUP2 JUMPDEST DUP2 DUP2 LT PUSH2 0x27D6 JUMPI POP PUSH1 0x9 SWAP2 DUP3 SLOAD SWAP5 DUP5 ISZERO ISZERO DUP1 PUSH2 0x27CD JUMPI JUMPDEST ISZERO PUSH2 0x27B4 JUMPI TIMESTAMP PUSH4 0xFFFFFFFF AND SWAP1 DUP8 DUP4 JUMPDEST DUP6 DUP2 LT PUSH2 0x2628 JUMPI POP SWAP5 SWAP4 SWAP3 SWAP2 POP POP JUMPDEST DUP2 DUP2 LT PUSH2 0x25EA JUMPI DUP4 PUSH32 0x7F4A5B69BEA14A6FC05326671A02E90D4A88855C83A18529C260057B1BF61A85 PUSH1 0x40 DUP9 DUP9 DUP5 DUP9 SSTORE PUSH1 0xFF NOT PUSH1 0xA SLOAD AND PUSH1 0xA SSTORE DUP3 MLOAD SWAP2 DUP3 MSTORE PUSH1 0x20 DUP3 ADD MSTORE LOG1 PUSH1 0x1 PUSH1 0x0 DUP1 MLOAD PUSH1 0x20 PUSH2 0x5EEB DUP4 CODECOPY DUP2 MLOAD SWAP2 MSTORE SSTORE DUP1 RETURN JUMPDEST PUSH2 0x261F SWAP2 SWAP3 SWAP4 POP PUSH2 0x25FA DUP2 PUSH2 0x4493 JUMP JUMPDEST SWAP1 SLOAD PUSH1 0x3 SWAP2 DUP3 SHL SHR PUSH1 0x1 PUSH1 0x1 PUSH1 0xA0 SHL SUB AND DUP9 MSTORE PUSH1 0x20 MSTORE PUSH1 0x40 DUP8 KECCAK256 PUSH1 0x11 ADD DUP8 SWAP1 SSTORE PUSH2 0x46A5 JUMP JUMPDEST SWAP1 DUP6 SWAP3 SWAP2 PUSH2 0x2590 JUMP JUMPDEST PUSH2 0x2631 DUP2 PUSH2 0x4493 JUMP JUMPDEST SWAP1 SLOAD PUSH1 0x3 SWAP2 DUP3 SHL SHR PUSH1 0x1 PUSH1 0x1 PUSH1 0xA0 SHL SUB AND DUP1 DUP5 MSTORE PUSH1 0x20 DUP3 DUP2 MSTORE PUSH1 0x40 DUP6 KECCAK256 PUSH1 0x11 ADD SLOAD SWAP1 SWAP3 SWAP2 SWAP1 DUP11 DUP13 DUP15 DUP4 ISZERO PUSH2 0x27A3 JUMPI SWAP3 PUSH32 0xB05ABF391BCC5D117D31727729F0DA5B0E3EB5F91A478372995EFA128696C406 SWAP3 PUSH1 0x40 PUSH2 0x2699 DUP2 SWAP5 PUSH2 0x2694 DUP6 DUP11 SWAP10 PUSH2 0x48A4 JUMP JUMPDEST PUSH2 0x48B7 JUMP JUMPDEST SWAP11 DUP7 DUP2 MSTORE DUP9 DUP11 MSTORE PUSH1 0x8 SWAP9 DUP13 PUSH2 0x26B4 DUP12 DUP6 DUP6 KECCAK256 ADD SWAP2 DUP3 SLOAD PUSH2 0x4731 JUMP JUMPDEST SWAP1 SSTORE DUP8 DUP3 MSTORE DUP11 MSTORE KECCAK256 ADD PUSH2 0x26C8 DUP11 DUP3 SLOAD PUSH2 0x4731 JUMP JUMPDEST SWAP1 SSTORE DUP2 MLOAD SWAP1 DUP2 MSTORE DUP9 DUP8 DUP3 ADD MSTORE LOG2 PUSH1 0x0 MSTORE PUSH1 0xE DUP3 MSTORE PUSH1 0x40 PUSH1 0x0 KECCAK256 PUSH1 0x40 MLOAD SWAP3 PUSH2 0x26EE DUP5 PUSH2 0x44FE JUMP JUMPDEST PUSH1 0x4 DUP5 MSTORE DUP4 ADD DUP8 DUP2 MSTORE PUSH1 0x40 DUP5 ADD SWAP6 DUP7 MSTORE PUSH1 0x60 DUP5 ADD SWAP4 PUSH1 0x0 DUP6 MSTORE PUSH1 0x80 DUP2 ADD SWAP3 PUSH1 0x0 DUP5 MSTORE DUP1 SLOAD PUSH1 0x1 PUSH1 0x40 SHL DUP2 LT ISZERO PUSH2 0x5B1 JUMPI PUSH2 0x272F SWAP1 PUSH1 0x1 SWAP3 DUP4 DUP3 ADD DUP2 SSTORE PUSH2 0x46E4 JUMP JUMPDEST SWAP2 SWAP1 SWAP2 PUSH2 0x59B JUMPI SWAP2 MLOAD DUP2 SLOAD SWAP4 MLOAD PUSH5 0xFFFFFFFFFF NOT SWAP1 SWAP5 AND SWAP1 DUP11 AND OR SWAP3 DUP6 SHL PUSH5 0xFFFFFFFF00 AND SWAP3 SWAP1 SWAP3 OR DUP3 SSTORE SWAP6 MLOAD SWAP6 DUP2 ADD SWAP6 SWAP1 SWAP6 SSTORE SWAP2 MLOAD PUSH1 0x2 SWAP5 SWAP1 SWAP5 ADD DUP1 SLOAD SWAP3 MLOAD PUSH1 0x1 PUSH1 0x1 PUSH1 0xA8 SHL SUB NOT SWAP1 SWAP4 AND SWAP5 DUP7 AND SWAP5 SWAP1 SWAP5 OR SWAP2 SWAP1 SHL PUSH2 0x100 PUSH1 0x1 PUSH1 0xA8 SHL SUB AND OR SWAP1 SWAP2 SSTORE PUSH2 0x279C SWAP1 PUSH2 0x46A5 JUMP JUMPDEST DUP9 SWAP1 PUSH2 0x2581 JUMP JUMPDEST POP POP POP POP POP POP POP PUSH2 0x279C SWAP2 POP PUSH2 0x46A5 JUMP JUMPDEST POP PUSH2 0x27C1 DUP6 PUSH1 0x8 SLOAD PUSH2 0x4731 JUMP JUMPDEST PUSH1 0x8 SSTORE SWAP1 DUP6 SWAP3 SWAP2 PUSH2 0x2590 JUMP JUMPDEST POP DUP6 ISZERO ISZERO PUSH2 0x2571 JUMP JUMPDEST SWAP3 PUSH2 0x280B PUSH2 0x2811 SWAP2 PUSH2 0x27E7 DUP7 PUSH2 0x4493 JUMP JUMPDEST SWAP1 SLOAD PUSH1 0x3 SWAP2 DUP3 SHL SHR PUSH1 0x1 PUSH1 0x1 PUSH1 0xA0 SHL SUB AND DUP10 MSTORE PUSH1 0x20 MSTORE PUSH1 0x40 DUP9 KECCAK256 PUSH1 0x11 ADD SLOAD SWAP1 PUSH2 0x4731 JUMP JUMPDEST SWAP4 PUSH2 0x46A5 JUMP JUMPDEST PUSH2 0x255A JUMP JUMPDEST SWAP2 POP CODESIZE PUSH2 0x2555 JUMP JUMPDEST PUSH1 0x40 MLOAD PUSH4 0x418826BF PUSH1 0xE1 SHL DUP2 MSTORE PUSH1 0x4 SWAP1 REVERT JUMPDEST POP CALLVALUE PUSH2 0x311 JUMPI DUP1 PUSH1 0x3 NOT CALLDATASIZE ADD SLT PUSH2 0x311 JUMPI PUSH1 0x20 PUSH1 0x40 MLOAD PUSH9 0x2B5E3AF16B1880000 DUP2 MSTORE RETURN JUMPDEST POP CALLVALUE PUSH2 0x311 JUMPI DUP1 PUSH1 0x3 NOT CALLDATASIZE ADD SLT PUSH2 0x311 JUMPI PUSH1 0x20 PUSH1 0x6 SLOAD PUSH1 0x40 MLOAD SWAP1 DUP2 MSTORE RETURN JUMPDEST POP CALLVALUE PUSH2 0x311 JUMPI PUSH2 0x288A PUSH2 0x2884 CALLDATASIZE PUSH2 0x444B JUMP JUMPDEST SWAP2 PUSH2 0x5CA1 JUMP JUMPDEST SWAP1 PUSH1 0x40 MLOAD SWAP2 PUSH1 0x40 DUP4 ADD SWAP2 PUSH1 0x40 DUP5 MSTORE DUP1 MLOAD DUP1 SWAP4 MSTORE PUSH1 0x60 SWAP5 DUP6 DUP6 ADD SWAP4 PUSH1 0x20 DUP1 SWAP4 ADD SWAP2 JUMPDEST DUP2 DUP2 LT PUSH2 0x28BF JUMPI POP POP POP DUP4 DUP1 SWAP6 POP ADD MSTORE SUB SWAP1 RETURN JUMPDEST DUP3 MLOAD DUP1 MLOAD PUSH1 0xFF SWAP1 DUP2 AND DUP9 MSTORE DUP2 DUP7 ADD MLOAD PUSH4 0xFFFFFFFF AND DUP7 DUP10 ADD MSTORE PUSH1 0x40 DUP1 DUP4 ADD MLOAD SWAP1 DUP10 ADD MSTORE DUP10 DUP3 ADD MLOAD AND DUP10 DUP9 ADD MSTORE PUSH1 0x80 SWAP1 DUP2 ADD MLOAD PUSH1 0x1 PUSH1 0x1 PUSH1 0xA0 SHL SUB AND SWAP1 DUP8 ADD MSTORE PUSH1 0xA0 SWAP1 SWAP6 ADD SWAP5 SWAP2 DUP4 ADD SWAP2 PUSH1 0x1 ADD PUSH2 0x28AB JUMP JUMPDEST POP CALLVALUE PUSH2 0x311 JUMPI DUP1 PUSH1 0x3 NOT CALLDATASIZE ADD SLT PUSH2 0x311 JUMPI PUSH2 0x2929 PUSH2 0x45F5 JUMP JUMPDEST PUSH1 0x0 DUP1 SLOAD PUSH1 0x1 PUSH1 0x1 PUSH1 0xA0 SHL SUB NOT DUP2 AND DUP3 SSTORE PUSH1 0x1 PUSH1 0x1 PUSH1 0xA0 SHL SUB AND PUSH1 0x0 DUP1 MLOAD PUSH1 0x20 PUSH2 0x5E8B DUP4 CODECOPY DUP2 MLOAD SWAP2 MSTORE DUP3 DUP1 LOG3 DUP1 RETURN JUMPDEST POP CALLVALUE PUSH2 0x311 JUMPI DUP1 PUSH1 0x3 NOT CALLDATASIZE ADD SLT PUSH2 0x311 JUMPI PUSH1 0x1 SLOAD PUSH1 0x40 MLOAD PUSH3 0x3144BD PUSH1 0xE3 SHL DUP2 MSTORE PUSH1 0x1 PUSH1 0x1 PUSH1 0xA0 SHL SUB SWAP1 SWAP2 AND SWAP2 PUSH1 0x20 DUP1 DUP4 PUSH1 0x4 DUP2 DUP8 GAS STATICCALL SWAP3 DUP4 ISZERO PUSH2 0xA11 JUMPI DUP3 SWAP4 PUSH2 0x29FF JUMPI JUMPDEST POP DUP1 PUSH1 0x4 SWAP5 PUSH1 0x40 MLOAD SWAP6 DUP7 DUP1 SWAP3 PUSH4 0x10F4CBA7 PUSH1 0xE2 SHL DUP3 MSTORE GAS STATICCALL SWAP2 DUP3 ISZERO PUSH2 0x1239 JUMPI SWAP2 PUSH2 0x29CF JUMPI JUMPDEST PUSH1 0x40 DUP1 SWAP5 POP MLOAD SWAP3 DUP4 MSTORE DUP3 ADD MSTORE RETURN JUMPDEST DUP1 SWAP2 POP DUP4 DUP2 RETURNDATASIZE DUP4 GT PUSH2 0x29F8 JUMPI JUMPDEST PUSH2 0x29E6 DUP2 DUP4 PUSH2 0x452C JUMP JUMPDEST DUP2 ADD SUB SLT PUSH2 0xAB1 JUMPI PUSH1 0x40 SWAP3 MLOAD SWAP1 PUSH2 0x29C1 JUMP JUMPDEST POP RETURNDATASIZE PUSH2 0x29DC JUMP JUMPDEST SWAP4 SWAP3 POP DUP1 DUP5 DUP2 RETURNDATASIZE DUP4 GT PUSH2 0x2A29 JUMPI JUMPDEST PUSH2 0x2A17 DUP2 DUP4 PUSH2 0x452C JUMP JUMPDEST DUP2 ADD SUB SLT PUSH2 0xAB1 JUMPI SWAP3 MLOAD SWAP2 SWAP3 DUP1 PUSH2 0x299C JUMP JUMPDEST POP RETURNDATASIZE PUSH2 0x2A0D JUMP JUMPDEST POP CALLVALUE PUSH2 0x311 JUMPI PUSH1 0x20 CALLDATASIZE PUSH1 0x3 NOT ADD SLT PUSH2 0x311 JUMPI PUSH1 0x40 SWAP1 PUSH1 0x1 PUSH1 0x1 PUSH1 0xA0 SHL SUB PUSH2 0x2A55 PUSH2 0x434C JUMP JUMPDEST AND DUP2 MSTORE PUSH1 0x3 PUSH1 0x20 MSTORE KECCAK256 DUP1 DUP1 DUP1 DUP1 DUP1 DUP1 DUP1 DUP1 DUP1 DUP1 DUP1 DUP1 DUP1 SLOAD PUSH1 0x1 DUP3 ADD SLOAD PUSH2 0x200 MSTORE PUSH1 0x2 DUP3 ADD SLOAD PUSH2 0x120 MSTORE PUSH1 0x14 PUSH1 0x7 PUSH1 0x11 PUSH1 0xF PUSH1 0xD PUSH1 0xC PUSH1 0xB PUSH1 0xA PUSH1 0x9 PUSH1 0x8 PUSH1 0x6 PUSH1 0x5 DUP14 PUSH1 0x3 PUSH1 0x1 DUP1 PUSH1 0xA0 SHL SUB SWAP2 ADD SLOAD AND SWAP14 PUSH1 0x4 PUSH1 0x1 DUP1 PUSH1 0xA0 SHL SUB SWAP2 ADD SLOAD AND SWAP15 ADD SLOAD SWAP15 ADD SLOAD SWAP15 ADD SLOAD SWAP15 ADD SLOAD SWAP15 ADD SLOAD SWAP15 ADD SLOAD SWAP15 ADD SLOAD SWAP15 ADD SLOAD SWAP15 ADD SLOAD SWAP15 ADD SLOAD SWAP15 ADD SLOAD SWAP15 PUSH1 0x1 DUP1 PUSH1 0xA0 SHL SUB PUSH1 0x12 DUP3 ADD SLOAD AND PUSH2 0x2C0 MSTORE PUSH1 0x13 DUP2 ADD SLOAD PUSH2 0x2E0 MSTORE ADD SLOAD PUSH2 0x1E0 MSTORE PUSH1 0x40 MLOAD DUP1 PUSH2 0x2A0 MSTORE PUSH1 0xFF DUP3 AND ISZERO ISZERO SWAP1 MSTORE PUSH1 0xFF DUP2 PUSH1 0x8 SHR AND ISZERO ISZERO PUSH1 0x20 PUSH2 0x2A0 MLOAD ADD MSTORE PUSH1 0x1 DUP1 PUSH1 0xA0 SHL SUB SWAP1 PUSH1 0x10 SHR AND PUSH1 0x40 PUSH2 0x2A0 MLOAD ADD MSTORE PUSH2 0x200 MLOAD PUSH1 0x60 PUSH2 0x2A0 MLOAD ADD MSTORE PUSH1 0x1 DUP1 PUSH1 0xA0 SHL SUB PUSH2 0x120 MLOAD AND PUSH1 0x80 PUSH2 0x2A0 MLOAD ADD MSTORE PUSH1 0xFF PUSH2 0x120 MLOAD PUSH1 0xA0 SHR AND ISZERO ISZERO PUSH1 0xA0 PUSH2 0x2A0 MLOAD ADD MSTORE PUSH1 0xC0 PUSH2 0x2A0 MLOAD ADD MSTORE PUSH1 0xE0 PUSH2 0x2A0 MLOAD ADD MSTORE PUSH2 0x100 PUSH2 0x2A0 MLOAD ADD MSTORE PUSH2 0x120 PUSH2 0x2A0 MLOAD ADD MSTORE PUSH2 0x140 PUSH2 0x2A0 MLOAD ADD MSTORE PUSH2 0x160 PUSH2 0x2A0 MLOAD ADD MSTORE PUSH2 0x180 PUSH2 0x2A0 MLOAD ADD MSTORE PUSH2 0x1A0 PUSH2 0x2A0 MLOAD ADD MSTORE PUSH2 0x1C0 PUSH2 0x2A0 MLOAD ADD MSTORE PUSH2 0x1E0 PUSH2 0x2A0 MLOAD ADD MSTORE PUSH2 0x200 PUSH2 0x2A0 MLOAD ADD MSTORE PUSH2 0x220 PUSH2 0x2A0 MLOAD ADD MSTORE PUSH2 0x240 PUSH2 0x2A0 MLOAD ADD MSTORE PUSH2 0x2C0 MLOAD PUSH2 0x260 PUSH2 0x2A0 MLOAD ADD MSTORE PUSH2 0x2E0 MLOAD PUSH2 0x280 PUSH2 0x2A0 MLOAD ADD MSTORE PUSH2 0x1E0 MLOAD PUSH2 0x2A0 DUP1 MLOAD ADD MSTORE PUSH2 0x2C0 PUSH2 0x2A0 MLOAD RETURN JUMPDEST POP CALLVALUE PUSH2 0x311 JUMPI PUSH1 0x20 CALLDATASIZE PUSH1 0x3 NOT ADD SLT PUSH2 0x311 JUMPI PUSH2 0x2C18 PUSH2 0x46B4 JUMP JUMPDEST PUSH1 0x4 CALLDATALOAD ISZERO PUSH2 0x10DA JUMPI CALLER DUP2 MSTORE PUSH1 0x3 PUSH1 0x20 MSTORE PUSH1 0x40 DUP2 KECCAK256 PUSH1 0xFF DUP2 SLOAD PUSH1 0x8 SHR AND ISZERO PUSH2 0xE0A JUMPI PUSH1 0x8 DUP2 ADD DUP1 SLOAD PUSH1 0x4 CALLDATALOAD DUP2 LT PUSH2 0x3026 JUMPI PUSH2 0x2C55 SWAP1 PUSH1 0x4 CALLDATALOAD SWAP1 PUSH2 0x465A JUMP JUMPDEST SWAP1 SSTORE PUSH1 0xA DUP2 ADD PUSH2 0x2C68 PUSH1 0x4 CALLDATALOAD DUP3 SLOAD PUSH2 0x4731 JUMP JUMPDEST SWAP1 SSTORE PUSH1 0x40 MLOAD PUSH4 0x70A08231 PUSH1 0xE0 SHL DUP1 DUP3 MSTORE ADDRESS PUSH1 0x4 DUP4 ADD MSTORE PUSH1 0x1 PUSH1 0x1 PUSH1 0xA0 SHL SUB PUSH32 0x0 DUP2 AND SWAP3 SWAP2 SWAP1 DUP6 SWAP1 PUSH1 0x20 DUP5 PUSH1 0x24 DUP2 DUP9 GAS STATICCALL SWAP4 DUP5 ISZERO PUSH2 0xA11 JUMPI DUP3 SWAP5 PUSH2 0x2FEF JUMPI JUMPDEST POP PUSH1 0x1 SLOAD AND DUP1 EXTCODESIZE ISZERO PUSH2 0xA1C JUMPI DUP2 DUP1 SWAP2 PUSH1 0x24 PUSH1 0x40 MLOAD DUP1 SWAP5 DUP2 SWAP4 PUSH4 0x72424D99 PUSH1 0xE1 SHL DUP4 MSTORE PUSH1 0x4 CALLDATALOAD PUSH1 0x4 DUP5 ADD MSTORE GAS CALL DUP1 ISZERO PUSH2 0xA11 JUMPI PUSH2 0x2FD7 JUMPI JUMPDEST POP POP PUSH1 0x20 SWAP1 PUSH1 0x24 PUSH1 0x40 MLOAD DUP1 SWAP6 DUP2 SWAP4 DUP3 MSTORE ADDRESS PUSH1 0x4 DUP4 ADD MSTORE GAS STATICCALL DUP1 ISZERO PUSH2 0x10CF JUMPI DUP5 SWAP1 PUSH2 0x2FA3 JUMPI JUMPDEST PUSH2 0x2D2B SWAP3 POP PUSH2 0x465A JUMP JUMPDEST PUSH1 0xA DUP2 MUL SWAP1 DUP1 DUP3 DIV PUSH1 0xA EQ DUP2 ISZERO OR ISZERO PUSH2 0x2F8F JUMPI PUSH2 0x2D4C SWAP1 PUSH1 0x64 DUP4 DIV SWAP1 PUSH2 0x465A JUMP JUMPDEST SWAP2 PUSH1 0xF DUP2 ADD PUSH2 0x2D5F PUSH1 0x64 DUP5 DIV DUP3 SLOAD PUSH2 0x4731 JUMP JUMPDEST SWAP1 SSTORE PUSH1 0x10 DUP2 ADD PUSH2 0x2D73 PUSH1 0x64 DUP5 DIV DUP3 SLOAD PUSH2 0x4731 JUMP JUMPDEST SWAP1 SSTORE PUSH1 0x40 MLOAD PUSH1 0x64 DUP4 DIV DUP2 MSTORE PUSH32 0x2B1D2104E84DD4DABB0CCA024171F783AB1E1C9DC1AF9D60A2361596653A99C4 PUSH1 0x20 CALLER SWAP3 LOG2 CALLER PUSH1 0x0 MSTORE PUSH1 0xE PUSH1 0x20 MSTORE PUSH1 0x40 PUSH1 0x0 KECCAK256 SWAP1 PUSH1 0x40 MLOAD SWAP2 PUSH2 0x2DC0 DUP4 PUSH2 0x44FE JUMP JUMPDEST PUSH1 0x6 DUP4 MSTORE TIMESTAMP PUSH4 0xFFFFFFFF AND PUSH1 0x20 DUP5 ADD MSTORE PUSH1 0x64 DUP5 DIV PUSH1 0x40 DUP5 ADD MSTORE PUSH1 0x0 PUSH1 0x60 DUP5 ADD DUP2 SWAP1 MSTORE PUSH1 0x80 DUP5 ADD MSTORE DUP1 SLOAD PUSH1 0x1 PUSH1 0x40 SHL DUP2 LT ISZERO PUSH2 0x5B1 JUMPI PUSH2 0x2E04 SWAP2 PUSH1 0x1 DUP3 ADD DUP2 SSTORE PUSH2 0x46E4 JUMP JUMPDEST PUSH2 0x59B JUMPI DUP3 MLOAD DUP2 SLOAD PUSH1 0x20 DUP6 ADD MLOAD PUSH5 0xFFFFFFFFFF NOT SWAP1 SWAP2 AND PUSH1 0xFF SWAP3 DUP4 AND OR PUSH1 0x8 SWAP2 DUP3 SHL PUSH5 0xFFFFFFFF00 AND OR DUP4 SSTORE PUSH1 0x40 DUP6 ADD MLOAD PUSH1 0x1 DUP5 ADD SSTORE PUSH1 0x60 DUP6 ADD MLOAD PUSH1 0x2 SWAP4 SWAP1 SWAP4 ADD DUP1 SLOAD PUSH1 0x80 SWAP1 SWAP7 ADD MLOAD PUSH1 0x1 PUSH1 0x1 PUSH1 0xA8 SHL SUB NOT SWAP1 SWAP7 AND SWAP4 SWAP1 SWAP3 AND SWAP3 SWAP1 SWAP3 OR SWAP4 SWAP1 SWAP2 SHL PUSH2 0x100 PUSH1 0x1 PUSH1 0xA8 SHL SUB AND SWAP3 SWAP1 SWAP3 OR SWAP1 SWAP2 SSTORE PUSH1 0xB DUP2 ADD SLOAD PUSH32 0x8F7262D5A031D4D671E1FDB0CDDCD26D37185226F9E82F2F18877141AC1963EB SWAP2 DUP6 DUP3 ISZERO PUSH2 0x2F83 JUMPI POP DUP2 DUP6 GT ISZERO PUSH2 0x2F7A JUMPI PUSH1 0xD DUP3 SWAP2 JUMPDEST DUP3 PUSH2 0x2ED8 DUP2 PUSH2 0x2EC1 DUP2 DUP12 PUSH2 0x465A JUMP JUMPDEST SWAP7 PUSH1 0xC DUP6 ADD PUSH2 0x2ED1 DUP4 DUP3 SLOAD PUSH2 0x4731 JUMP JUMPDEST SWAP1 SSTORE PUSH2 0x465A JUMP JUMPDEST PUSH1 0xB DUP4 ADD SSTORE PUSH2 0x2EEC PUSH1 0xE DUP4 ADD SWAP2 DUP3 SLOAD PUSH2 0x4731 JUMP JUMPDEST SWAP1 SSTORE JUMPDEST ADD PUSH2 0x2EFB DUP4 DUP3 SLOAD PUSH2 0x4731 JUMP JUMPDEST SWAP1 SSTORE PUSH2 0x2F15 PUSH1 0x40 MLOAD SWAP3 DUP4 SWAP3 PUSH1 0x64 CALLER SWAP8 DIV DUP9 PUSH1 0x4 CALLDATALOAD DUP7 PUSH2 0x48D7 JUMP JUMPDEST SUB SWAP1 LOG2 CALLER PUSH1 0x0 MSTORE PUSH1 0xE PUSH1 0x20 MSTORE PUSH1 0x40 PUSH1 0x0 KECCAK256 PUSH1 0x40 MLOAD PUSH2 0x2F32 DUP2 PUSH2 0x44FE JUMP JUMPDEST PUSH1 0x5 DUP2 MSTORE PUSH1 0x20 DUP2 ADD SWAP1 PUSH4 0xFFFFFFFF TIMESTAMP AND DUP3 MSTORE PUSH1 0x40 DUP2 ADD SWAP4 DUP5 MSTORE PUSH1 0x60 DUP2 ADD SWAP4 PUSH1 0x0 DUP6 MSTORE PUSH1 0x80 DUP3 ADD SWAP4 PUSH1 0x0 DUP6 MSTORE DUP1 SLOAD PUSH1 0x1 PUSH1 0x40 SHL DUP2 LT ISZERO PUSH2 0x5B1 JUMPI PUSH2 0x529 SWAP2 PUSH1 0x1 DUP3 ADD DUP2 SSTORE PUSH2 0x46E4 JUMP JUMPDEST PUSH1 0xD DUP6 SWAP2 PUSH2 0x2EB2 JUMP JUMPDEST SWAP1 SWAP2 POP PUSH1 0xD DUP6 SWAP3 PUSH2 0x2EEF JUMP JUMPDEST PUSH4 0x4E487B71 PUSH1 0xE0 SHL DUP5 MSTORE PUSH1 0x11 PUSH1 0x4 MSTORE PUSH1 0x24 DUP5 REVERT JUMPDEST POP PUSH1 0x20 DUP3 RETURNDATASIZE PUSH1 0x20 GT PUSH2 0x2FCF JUMPI JUMPDEST DUP2 PUSH2 0x2FBD PUSH1 0x20 SWAP4 DUP4 PUSH2 0x452C JUMP JUMPDEST DUP2 ADD SUB SLT PUSH2 0xAB1 JUMPI PUSH2 0x2D2B SWAP2 MLOAD PUSH2 0x2D21 JUMP JUMPDEST RETURNDATASIZE SWAP2 POP PUSH2 0x2FB0 JUMP JUMPDEST PUSH2 0x2FE0 SWAP1 PUSH2 0x4519 JUMP JUMPDEST PUSH2 0x2FEB JUMPI DUP5 CODESIZE PUSH2 0x2CFC JUMP JUMPDEST DUP5 DUP1 REVERT JUMPDEST SWAP2 POP SWAP3 POP PUSH1 0x20 DUP2 RETURNDATASIZE PUSH1 0x20 GT PUSH2 0x301E JUMPI JUMPDEST DUP2 PUSH2 0x300C PUSH1 0x20 SWAP4 DUP4 PUSH2 0x452C JUMP JUMPDEST DUP2 ADD SUB SLT PUSH2 0xAB1 JUMPI DUP6 SWAP1 MLOAD SWAP3 CODESIZE PUSH2 0x2CC5 JUMP JUMPDEST RETURNDATASIZE SWAP2 POP PUSH2 0x2FFF JUMP JUMPDEST PUSH1 0x40 MLOAD PUSH4 0x208975E7 PUSH1 0xE2 SHL DUP2 MSTORE PUSH1 0x4 SWAP1 REVERT JUMPDEST POP CALLVALUE PUSH2 0x311 JUMPI PUSH1 0x80 CALLDATASIZE PUSH1 0x3 NOT ADD SLT PUSH2 0x311 JUMPI PUSH1 0x4 CALLDATALOAD PUSH1 0x1 PUSH1 0x1 PUSH1 0x40 SHL SUB DUP2 GT PUSH2 0xA1C JUMPI PUSH2 0x3069 SWAP1 CALLDATASIZE SWAP1 PUSH1 0x4 ADD PUSH2 0x441E JUMP JUMPDEST SWAP2 SWAP1 PUSH1 0x24 CALLDATALOAD PUSH1 0x1 PUSH1 0x1 PUSH1 0x40 SHL SUB DUP2 GT PUSH2 0xF4E JUMPI PUSH2 0x308A SWAP1 CALLDATASIZE SWAP1 PUSH1 0x4 ADD PUSH2 0x441E JUMP JUMPDEST PUSH1 0x44 CALLDATALOAD PUSH1 0x1 PUSH1 0x1 PUSH1 0x40 SHL SUB DUP2 GT PUSH2 0x2FEB JUMPI PUSH2 0x30A9 SWAP1 CALLDATASIZE SWAP1 PUSH1 0x4 ADD PUSH2 0x441E JUMP JUMPDEST SWAP1 SWAP2 PUSH1 0x64 CALLDATALOAD PUSH1 0x1 PUSH1 0x1 PUSH1 0x40 SHL SUB DUP2 GT PUSH2 0x35B8 JUMPI PUSH2 0x30CA SWAP1 CALLDATASIZE SWAP1 PUSH1 0x4 ADD PUSH2 0x441E JUMP JUMPDEST SWAP5 SWAP1 SWAP8 CALLER DUP9 MSTORE PUSH1 0x3 PUSH1 0x20 MSTORE PUSH2 0x30E5 PUSH1 0xFF PUSH1 0x40 DUP11 KECCAK256 SLOAD AND PUSH2 0x59B9 JUMP JUMPDEST CALLER DUP9 MSTORE PUSH1 0x3 PUSH1 0x20 MSTORE PUSH1 0x40 DUP9 KECCAK256 SWAP7 PUSH1 0x1 PUSH1 0x1 PUSH1 0x40 SHL SUB DUP3 GT PUSH2 0x35A4 JUMPI DUP2 SWAP1 PUSH2 0x310F PUSH1 0x15 DUP11 ADD SLOAD PUSH2 0x44C4 JUMP JUMPDEST PUSH1 0x1F DUP2 GT PUSH2 0x3554 JUMPI JUMPDEST POP DUP10 SWAP1 PUSH1 0x1F DUP4 GT PUSH1 0x1 EQ PUSH2 0x34E8 JUMPI DUP11 SWAP3 PUSH2 0x34DD JUMPI JUMPDEST POP POP DUP2 PUSH1 0x1 SHL SWAP2 PUSH1 0x0 NOT SWAP1 PUSH1 0x3 SHL SHR NOT AND OR PUSH1 0x15 DUP8 ADD SSTORE JUMPDEST PUSH1 0x1 PUSH1 0x1 PUSH1 0x40 SHL SUB DUP3 GT PUSH2 0x34C9 JUMPI DUP2 SWAP1 PUSH2 0x3162 PUSH1 0x16 DUP9 ADD SLOAD PUSH2 0x44C4 JUMP JUMPDEST PUSH1 0x1F DUP2 GT PUSH2 0x3476 JUMPI JUMPDEST POP DUP8 SWAP1 PUSH1 0x1F DUP4 GT PUSH1 0x1 EQ PUSH2 0x340A JUMPI DUP9 SWAP3 PUSH2 0x33FF JUMPI JUMPDEST POP POP DUP2 PUSH1 0x1 SHL SWAP2 PUSH1 0x0 NOT SWAP1 PUSH1 0x3 SHL SHR NOT AND OR PUSH1 0x16 DUP6 ADD SSTORE JUMPDEST PUSH1 0x17 DUP5 ADD SWAP2 PUSH1 0x1 PUSH1 0x1 PUSH1 0x40 SHL SUB DUP3 GT PUSH2 0x1948 JUMPI DUP2 SWAP1 PUSH2 0x31B7 DUP5 SLOAD PUSH2 0x44C4 JUMP JUMPDEST PUSH1 0x1F DUP2 GT PUSH2 0x33AF JUMPI JUMPDEST POP DUP7 SWAP1 PUSH1 0x1F DUP4 GT PUSH1 0x1 EQ PUSH2 0x3349 JUMPI DUP8 SWAP3 PUSH2 0x333E JUMPI JUMPDEST POP POP DUP2 PUSH1 0x1 SHL SWAP2 PUSH1 0x0 NOT SWAP1 PUSH1 0x3 SHL SHR NOT AND OR SWAP1 SSTORE JUMPDEST PUSH1 0x18 DUP3 ADD SWAP1 PUSH1 0x1 PUSH1 0x1 PUSH1 0x40 SHL SUB DUP2 GT PUSH2 0x332A JUMPI PUSH2 0x3207 DUP3 SLOAD PUSH2 0x44C4 JUMP JUMPDEST PUSH1 0x1F DUP2 GT PUSH2 0x32E5 JUMPI JUMPDEST POP DUP4 PUSH1 0x1F DUP3 GT PUSH1 0x1 EQ PUSH2 0x327E JUMPI DUP2 SWAP1 DUP6 SWAP7 PUSH1 0x19 SWAP7 SWAP3 PUSH2 0x3273 JUMPI JUMPDEST POP POP DUP2 PUSH1 0x1 SHL SWAP2 PUSH1 0x0 NOT SWAP1 PUSH1 0x3 SHL SHR NOT AND OR SWAP1 SSTORE JUMPDEST ADD DUP1 SLOAD PUSH1 0xFF NOT AND PUSH1 0x1 OR SWAP1 SSTORE CALLER PUSH32 0xBE4EC58A792F909E102EE3D745D0C3B34A4D437A54D903C4DB098D31C556422F DUP3 DUP1 LOG2 DUP1 RETURN JUMPDEST ADD CALLDATALOAD SWAP1 POP CODESIZE DUP1 PUSH2 0x322A JUMP JUMPDEST DUP3 DUP6 MSTORE PUSH1 0x20 DUP6 KECCAK256 SWAP1 PUSH1 0x1F NOT DUP4 AND DUP7 JUMPDEST DUP2 DUP2 LT PUSH2 0x32CD JUMPI POP SWAP7 DUP4 SWAP3 SWAP2 PUSH1 0x1 SWAP5 PUSH1 0x19 SWAP9 SWAP10 LT PUSH2 0x32B3 JUMPI JUMPDEST POP POP POP DUP2 SHL ADD SWAP1 SSTORE PUSH2 0x323F JUMP JUMPDEST ADD CALLDATALOAD PUSH1 0x0 NOT PUSH1 0x3 DUP5 SWAP1 SHL PUSH1 0xF8 AND SHR NOT AND SWAP1 SSTORE CODESIZE DUP1 DUP1 PUSH2 0x32A6 JUMP JUMPDEST SWAP2 SWAP3 PUSH1 0x20 PUSH1 0x1 DUP2 SWAP3 DUP7 DUP13 ADD CALLDATALOAD DUP2 SSTORE ADD SWAP5 ADD SWAP3 ADD PUSH2 0x328D JUMP JUMPDEST DUP3 DUP6 MSTORE PUSH1 0x20 DUP6 KECCAK256 PUSH1 0x1F DUP4 ADD PUSH1 0x5 SHR DUP2 ADD SWAP2 PUSH1 0x20 DUP5 LT PUSH2 0x3320 JUMPI JUMPDEST PUSH1 0x1F ADD PUSH1 0x5 SHR ADD SWAP1 JUMPDEST DUP2 DUP2 LT PUSH2 0x3315 JUMPI POP PUSH2 0x3210 JUMP JUMPDEST DUP6 DUP2 SSTORE PUSH1 0x1 ADD PUSH2 0x3308 JUMP JUMPDEST SWAP1 SWAP2 POP DUP2 SWAP1 PUSH2 0x32FF JUMP JUMPDEST PUSH4 0x4E487B71 PUSH1 0xE0 SHL DUP5 MSTORE PUSH1 0x41 PUSH1 0x4 MSTORE PUSH1 0x24 DUP5 REVERT JUMPDEST ADD CALLDATALOAD SWAP1 POP CODESIZE DUP1 PUSH2 0x31D5 JUMP JUMPDEST DUP5 DUP9 MSTORE PUSH1 0x20 DUP9 KECCAK256 SWAP3 POP SWAP1 PUSH1 0x1F NOT DUP5 AND DUP9 JUMPDEST DUP2 DUP2 LT PUSH2 0x3397 JUMPI POP SWAP1 DUP5 PUSH1 0x1 SWAP6 SWAP5 SWAP4 SWAP3 LT PUSH2 0x337D JUMPI JUMPDEST POP POP POP DUP2 SHL ADD SWAP1 SSTORE PUSH2 0x31EA JUMP JUMPDEST ADD CALLDATALOAD PUSH1 0x0 NOT PUSH1 0x3 DUP5 SWAP1 SHL PUSH1 0xF8 AND SHR NOT AND SWAP1 SSTORE CODESIZE DUP1 DUP1 PUSH2 0x3370 JUMP JUMPDEST SWAP2 SWAP4 PUSH1 0x20 PUSH1 0x1 DUP2 SWAP3 DUP8 DUP8 ADD CALLDATALOAD DUP2 SSTORE ADD SWAP6 ADD SWAP3 ADD PUSH2 0x335A JUMP JUMPDEST SWAP1 SWAP2 POP DUP4 DUP8 MSTORE PUSH1 0x20 DUP8 KECCAK256 PUSH1 0x1F DUP5 ADD PUSH1 0x5 SHR DUP2 ADD SWAP2 PUSH1 0x20 DUP6 LT PUSH2 0x33F5 JUMPI JUMPDEST SWAP1 PUSH1 0x1F DUP6 SWAP5 SWAP4 SWAP3 ADD PUSH1 0x5 SHR ADD SWAP1 JUMPDEST DUP2 DUP2 LT PUSH2 0x33E7 JUMPI POP PUSH2 0x31C0 JUMP JUMPDEST DUP9 DUP2 SSTORE DUP5 SWAP4 POP PUSH1 0x1 ADD PUSH2 0x33DA JUMP JUMPDEST SWAP1 SWAP2 POP DUP2 SWAP1 PUSH2 0x33CC JUMP JUMPDEST ADD CALLDATALOAD SWAP1 POP CODESIZE DUP1 PUSH2 0x3180 JUMP JUMPDEST PUSH1 0x16 DUP9 ADD DUP10 MSTORE PUSH1 0x20 DUP10 KECCAK256 SWAP3 POP SWAP1 PUSH1 0x1F NOT DUP5 AND DUP10 JUMPDEST DUP2 DUP2 LT PUSH2 0x345E JUMPI POP SWAP1 DUP5 PUSH1 0x1 SWAP6 SWAP5 SWAP4 SWAP3 LT PUSH2 0x3444 JUMPI JUMPDEST POP POP POP DUP2 SHL ADD PUSH1 0x16 DUP6 ADD SSTORE PUSH2 0x3198 JUMP JUMPDEST ADD CALLDATALOAD PUSH1 0x0 NOT PUSH1 0x3 DUP5 SWAP1 SHL PUSH1 0xF8 AND SHR NOT AND SWAP1 SSTORE CODESIZE DUP1 DUP1 PUSH2 0x3434 JUMP JUMPDEST SWAP2 SWAP4 PUSH1 0x20 PUSH1 0x1 DUP2 SWAP3 DUP8 DUP8 ADD CALLDATALOAD DUP2 SSTORE ADD SWAP6 ADD SWAP3 ADD PUSH2 0x341E JUMP JUMPDEST SWAP1 SWAP2 POP PUSH1 0x16 DUP8 ADD DUP9 MSTORE PUSH1 0x20 DUP9 KECCAK256 PUSH1 0x1F DUP5 ADD PUSH1 0x5 SHR DUP2 ADD SWAP2 PUSH1 0x20 DUP6 LT PUSH2 0x34BF JUMPI JUMPDEST SWAP1 PUSH1 0x1F DUP6 SWAP5 SWAP4 SWAP3 ADD PUSH1 0x5 SHR ADD SWAP1 JUMPDEST DUP2 DUP2 LT PUSH2 0x34B1 JUMPI POP PUSH2 0x316B JUMP JUMPDEST DUP10 DUP2 SSTORE DUP5 SWAP4 POP PUSH1 0x1 ADD PUSH2 0x34A4 JUMP JUMPDEST SWAP1 SWAP2 POP DUP2 SWAP1 PUSH2 0x3496 JUMP JUMPDEST PUSH4 0x4E487B71 PUSH1 0xE0 SHL DUP8 MSTORE PUSH1 0x41 PUSH1 0x4 MSTORE PUSH1 0x24 DUP8 REVERT JUMPDEST ADD CALLDATALOAD SWAP1 POP CODESIZE DUP1 PUSH2 0x312D JUMP JUMPDEST PUSH1 0x15 DUP11 ADD DUP12 MSTORE PUSH1 0x20 DUP12 KECCAK256 SWAP3 POP SWAP1 PUSH1 0x1F NOT DUP5 AND DUP12 JUMPDEST DUP2 DUP2 LT PUSH2 0x353C JUMPI POP SWAP1 DUP5 PUSH1 0x1 SWAP6 SWAP5 SWAP4 SWAP3 LT PUSH2 0x3522 JUMPI JUMPDEST POP POP POP DUP2 SHL ADD PUSH1 0x15 DUP8 ADD SSTORE PUSH2 0x3145 JUMP JUMPDEST ADD CALLDATALOAD PUSH1 0x0 NOT PUSH1 0x3 DUP5 SWAP1 SHL PUSH1 0xF8 AND SHR NOT AND SWAP1 SSTORE CODESIZE DUP1 DUP1 PUSH2 0x3512 JUMP JUMPDEST SWAP2 SWAP4 PUSH1 0x20 PUSH1 0x1 DUP2 SWAP3 DUP8 DUP8 ADD CALLDATALOAD DUP2 SSTORE ADD SWAP6 ADD SWAP3 ADD PUSH2 0x34FC JUMP JUMPDEST SWAP1 SWAP2 POP PUSH1 0x15 DUP10 ADD DUP11 MSTORE PUSH1 0x20 DUP11 KECCAK256 PUSH1 0x1F DUP5 ADD PUSH1 0x5 SHR DUP2 ADD PUSH1 0x20 DUP6 LT PUSH2 0x359D JUMPI JUMPDEST SWAP1 DUP5 SWAP4 SWAP3 SWAP2 JUMPDEST PUSH1 0x1F DUP4 ADD PUSH1 0x5 SHR DUP3 ADD DUP2 LT PUSH2 0x358F JUMPI POP POP PUSH2 0x3118 JUMP JUMPDEST DUP13 DUP2 SSTORE DUP6 SWAP5 POP PUSH1 0x1 ADD PUSH2 0x3579 JUMP JUMPDEST POP DUP1 PUSH2 0x3573 JUMP JUMPDEST PUSH4 0x4E487B71 PUSH1 0xE0 SHL DUP10 MSTORE PUSH1 0x41 PUSH1 0x4 MSTORE PUSH1 0x24 DUP10 REVERT JUMPDEST DUP7 DUP1 REVERT JUMPDEST POP CALLVALUE PUSH2 0x311 JUMPI DUP1 PUSH1 0x3 NOT CALLDATASIZE ADD SLT PUSH2 0x311 JUMPI PUSH1 0x60 PUSH1 0x6 SLOAD PUSH1 0x7 SLOAD PUSH1 0x8 SLOAD SWAP1 PUSH1 0x40 MLOAD SWAP3 DUP4 MSTORE PUSH1 0x20 DUP4 ADD MSTORE PUSH1 0x40 DUP3 ADD MSTORE RETURN JUMPDEST POP CALLVALUE PUSH2 0x311 JUMPI PUSH1 0x20 CALLDATASIZE PUSH1 0x3 NOT ADD SLT PUSH2 0x311 JUMPI PUSH1 0x4 CALLDATALOAD CALLER DUP3 MSTORE PUSH1 0xD PUSH1 0x20 MSTORE PUSH2 0x3617 PUSH1 0x40 DUP4 KECCAK256 SLOAD DUP3 LT PUSH2 0x5A66 JUMP JUMPDEST CALLER DUP3 MSTORE PUSH1 0xD PUSH1 0x20 MSTORE PUSH1 0x3 PUSH2 0x362E DUP3 PUSH1 0x40 DUP6 KECCAK256 PUSH2 0x5A4A JUMP JUMPDEST POP PUSH2 0x363F PUSH1 0xFF PUSH1 0x4 DUP4 ADD SLOAD AND PUSH2 0x5AA2 JUMP JUMPDEST ADD DUP1 SLOAD PUSH2 0x367E JUMPI TIMESTAMP SWAP1 SSTORE PUSH1 0x40 MLOAD SWAP1 DUP2 MSTORE TIMESTAMP PUSH1 0x20 DUP3 ADD MSTORE PUSH32 0x68733B6F87B2A7C87D5BCF8C0A0950F2985CC261D9AB6DEFDDCA8D7BD05EBA43 PUSH1 0x40 CALLER SWAP3 LOG2 DUP1 RETURN JUMPDEST PUSH1 0x40 MLOAD PUSH3 0x461BCD PUSH1 0xE5 SHL DUP2 MSTORE PUSH1 0x20 PUSH1 0x4 DUP3 ADD MSTORE PUSH1 0xE PUSH1 0x24 DUP3 ADD MSTORE PUSH14 0x105B1C9958591E481B1BD8DAD959 PUSH1 0x92 SHL PUSH1 0x44 DUP3 ADD MSTORE PUSH1 0x64 SWAP1 REVERT JUMPDEST POP CALLVALUE PUSH2 0x311 JUMPI PUSH1 0x20 CALLDATASIZE PUSH1 0x3 NOT ADD SLT PUSH2 0x311 JUMPI PUSH1 0x20 PUSH2 0x757 PUSH1 0x4 CALLDATALOAD PUSH2 0x5AE1 JUMP JUMPDEST POP CALLVALUE PUSH2 0x311 JUMPI DUP1 PUSH1 0x3 NOT CALLDATASIZE ADD SLT PUSH2 0x311 JUMPI PUSH1 0x20 PUSH1 0x40 MLOAD PUSH1 0x2 DUP2 MSTORE RETURN JUMPDEST POP CALLVALUE PUSH2 0x311 JUMPI PUSH1 0x20 CALLDATASIZE PUSH1 0x3 NOT ADD SLT PUSH2 0x311 JUMPI PUSH1 0x20 PUSH2 0x757 PUSH1 0x4 CALLDATALOAD PUSH2 0x5BA6 JUMP JUMPDEST POP CALLVALUE PUSH2 0x311 JUMPI DUP1 PUSH1 0x3 NOT CALLDATASIZE ADD SLT PUSH2 0x311 JUMPI PUSH1 0x20 PUSH1 0x4 SLOAD PUSH1 0x40 MLOAD SWAP1 DUP2 MSTORE RETURN JUMPDEST POP CALLVALUE PUSH2 0x311 JUMPI PUSH1 0x20 CALLDATASIZE PUSH1 0x3 NOT ADD SLT PUSH2 0x311 JUMPI PUSH2 0x3746 PUSH2 0x46B4 JUMP JUMPDEST CALLER DUP2 MSTORE PUSH1 0xD PUSH1 0x20 MSTORE PUSH2 0x375F PUSH1 0x40 DUP3 KECCAK256 SLOAD PUSH1 0x4 CALLDATALOAD LT PUSH2 0x5A66 JUMP JUMPDEST CALLER DUP2 MSTORE PUSH1 0xD PUSH1 0x20 MSTORE PUSH2 0x3776 PUSH1 0x4 CALLDATALOAD PUSH1 0x40 DUP4 KECCAK256 PUSH2 0x5A4A JUMP JUMPDEST POP PUSH1 0x4 DUP2 ADD DUP1 SLOAD SWAP1 PUSH2 0x378A PUSH1 0xFF DUP4 AND PUSH2 0x5AA2 JUMP JUMPDEST PUSH1 0x3 DUP4 ADD SLOAD SWAP2 DUP3 ISZERO SWAP3 DUP4 ISZERO PUSH2 0x3CE8 JUMPI JUMPDEST POP PUSH1 0xFF NOT AND SWAP1 SSTORE PUSH1 0x1 DUP3 SLOAD SWAP3 ADD SLOAD SWAP1 DUP2 PUSH1 0x1 SHL SWAP2 DUP1 DUP4 DIV PUSH1 0x2 EQ SWAP1 ISZERO OR ISZERO PUSH2 0x2F8F JUMPI DUP3 SWAP2 DUP2 ISZERO PUSH2 0x3B26 JUMPI PUSH1 0x5 DUP5 MUL DUP5 DUP2 DIV PUSH1 0x5 EQ DUP6 ISZERO OR ISZERO PUSH2 0x199D JUMPI CALLER DUP7 MSTORE PUSH1 0x3 PUSH1 0x20 MSTORE PUSH1 0x40 DUP7 KECCAK256 SLOAD PUSH1 0x64 SWAP1 SWAP2 DIV SWAP1 PUSH1 0x1 PUSH1 0x1 PUSH1 0xA0 SHL SUB SWAP1 PUSH1 0x10 SHR DUP2 AND DUP1 ISZERO ISZERO DUP1 PUSH2 0x3B12 JUMPI JUMPDEST PUSH2 0x3A7E JUMPI JUMPDEST POP POP POP JUMPDEST PUSH1 0x40 MLOAD PUSH4 0x70A08231 PUSH1 0xE0 SHL DUP1 DUP3 MSTORE ADDRESS PUSH1 0x4 DUP4 ADD MSTORE PUSH1 0x1 PUSH1 0x1 PUSH1 0xA0 SHL SUB PUSH32 0x0 DUP2 AND SWAP6 SWAP2 SWAP3 SWAP2 DUP9 SWAP2 PUSH1 0x20 DUP5 PUSH1 0x24 DUP2 DUP12 GAS STATICCALL SWAP4 DUP5 ISZERO PUSH2 0xF5A JUMPI DUP4 SWAP5 PUSH2 0x3A4A JUMPI JUMPDEST POP PUSH1 0x1 SLOAD AND DUP1 EXTCODESIZE ISZERO PUSH2 0xF4E JUMPI PUSH1 0x24 DUP4 SWAP3 PUSH1 0x40 MLOAD SWAP5 DUP6 SWAP4 DUP5 SWAP3 PUSH4 0x72424D99 PUSH1 0xE1 SHL DUP5 MSTORE PUSH1 0x4 DUP5 ADD MSTORE GAS CALL DUP1 ISZERO PUSH2 0x3A3F JUMPI PUSH2 0x3A2C JUMPI JUMPDEST POP PUSH1 0x40 MLOAD SWAP2 DUP3 MSTORE ADDRESS PUSH1 0x4 DUP4 ADD MSTORE PUSH1 0x20 DUP3 PUSH1 0x24 DUP2 DUP9 GAS STATICCALL DUP1 ISZERO PUSH2 0x3A21 JUMPI DUP8 SWAP1 PUSH2 0x39ED JUMPI JUMPDEST PUSH2 0x38C6 SWAP3 POP PUSH2 0x465A JUMP JUMPDEST SWAP1 DUP6 SWAP3 DUP1 PUSH2 0x39E4 JUMPI JUMPDEST PUSH2 0x39C2 JUMPI JUMPDEST POP DUP1 PUSH2 0x3918 JUMPI JUMPDEST PUSH1 0x0 DUP1 MLOAD PUSH1 0x20 PUSH2 0x5EAB DUP4 CODECOPY DUP2 MLOAD SWAP2 MSTORE SWAP3 POP PUSH2 0x3900 PUSH1 0x40 MLOAD SWAP3 DUP4 SWAP3 CALLER SWAP7 PUSH1 0x4 CALLDATALOAD DUP6 PUSH2 0x5553 JUMP JUMPDEST SUB SWAP1 LOG2 PUSH1 0x1 PUSH1 0x0 DUP1 MLOAD PUSH1 0x20 PUSH2 0x5EEB DUP4 CODECOPY DUP2 MLOAD SWAP2 MSTORE SSTORE DUP1 RETURN JUMPDEST PUSH1 0x20 PUSH1 0x40 MLOAD DUP1 SWAP5 PUSH4 0xA9059CBB PUSH1 0xE0 SHL DUP3 MSTORE DUP2 DUP9 DUP2 PUSH2 0x393A DUP8 CALLER PUSH1 0x4 DUP5 ADD PUSH2 0x468A JUMP JUMPDEST SUB SWAP3 GAS CALL SWAP3 DUP4 ISZERO PUSH2 0x39B7 JUMPI DUP6 SWAP4 PUSH2 0x396A JUMPI JUMPDEST POP PUSH2 0x3965 PUSH1 0x0 DUP1 MLOAD PUSH1 0x20 PUSH2 0x5EAB DUP4 CODECOPY DUP2 MLOAD SWAP2 MSTORE SWAP4 PUSH2 0x59F6 JUMP JUMPDEST PUSH2 0x38DB JUMP JUMPDEST SWAP3 POP PUSH1 0x20 DUP4 RETURNDATASIZE PUSH1 0x20 GT PUSH2 0x39AF JUMPI JUMPDEST DUP2 PUSH2 0x3985 PUSH1 0x20 SWAP4 DUP4 PUSH2 0x452C JUMP JUMPDEST DUP2 ADD SUB SLT PUSH2 0x2FEB JUMPI PUSH2 0x3965 PUSH2 0x39A8 PUSH1 0x0 DUP1 MLOAD PUSH1 0x20 PUSH2 0x5EAB DUP4 CODECOPY DUP2 MLOAD SWAP2 MSTORE SWAP5 PUSH2 0x467D JUMP JUMPDEST SWAP4 POP PUSH2 0x394C JUMP JUMPDEST RETURNDATASIZE SWAP2 POP PUSH2 0x3978 JUMP JUMPDEST PUSH1 0x40 MLOAD RETURNDATASIZE DUP8 DUP3 RETURNDATACOPY RETURNDATASIZE SWAP1 REVERT JUMPDEST DUP1 SWAP3 POP PUSH2 0x39CE SWAP2 PUSH2 0x465A JUMP JUMPDEST SWAP1 PUSH2 0x39DB DUP3 PUSH1 0x8 SLOAD PUSH2 0x4731 JUMP JUMPDEST PUSH1 0x8 SSTORE CODESIZE PUSH2 0x38D4 JUMP JUMPDEST POP DUP1 DUP3 GT PUSH2 0x38CF JUMP JUMPDEST POP PUSH1 0x20 DUP3 RETURNDATASIZE PUSH1 0x20 GT PUSH2 0x3A19 JUMPI JUMPDEST DUP2 PUSH2 0x3A07 PUSH1 0x20 SWAP4 DUP4 PUSH2 0x452C JUMP JUMPDEST DUP2 ADD SUB SLT PUSH2 0xAB1 JUMPI PUSH2 0x38C6 SWAP2 MLOAD PUSH2 0x38BC JUMP JUMPDEST RETURNDATASIZE SWAP2 POP PUSH2 0x39FA JUMP JUMPDEST PUSH1 0x40 MLOAD RETURNDATASIZE DUP10 DUP3 RETURNDATACOPY RETURNDATASIZE SWAP1 REVERT JUMPDEST PUSH2 0x3A38 SWAP1 SWAP8 SWAP2 SWAP8 PUSH2 0x4519 JUMP JUMPDEST SWAP6 CODESIZE PUSH2 0x3899 JUMP JUMPDEST PUSH1 0x40 MLOAD RETURNDATASIZE DUP11 DUP3 RETURNDATACOPY RETURNDATASIZE SWAP1 REVERT JUMPDEST SWAP1 SWAP4 POP PUSH1 0x20 DUP2 RETURNDATASIZE PUSH1 0x20 GT PUSH2 0x3A76 JUMPI JUMPDEST DUP2 PUSH2 0x3A66 PUSH1 0x20 SWAP4 DUP4 PUSH2 0x452C JUMP JUMPDEST DUP2 ADD SUB SLT PUSH2 0xF4E JUMPI MLOAD SWAP3 CODESIZE PUSH2 0x3865 JUMP JUMPDEST RETURNDATASIZE SWAP2 POP PUSH2 0x3A59 JUMP JUMPDEST DUP3 PUSH1 0x20 SWAP2 PUSH2 0x3AA8 SWAP4 PUSH1 0x1 SLOAD AND SWAP1 DUP11 PUSH1 0x40 MLOAD DUP1 SWAP7 DUP2 SWAP6 DUP3 SWAP5 PUSH4 0xA9059CBB PUSH1 0xE0 SHL DUP5 MSTORE PUSH1 0x4 DUP5 ADD PUSH2 0x468A JUMP JUMPDEST SUB SWAP3 GAS CALL SWAP1 DUP2 ISZERO PUSH2 0x3A21 JUMPI DUP8 SWAP2 PUSH2 0x3AD8 JUMPI JUMPDEST POP PUSH2 0x3AC7 JUMPI JUMPDEST DUP1 DUP1 PUSH2 0x3805 JUMP JUMPDEST PUSH2 0x3AD1 SWAP2 SWAP4 PUSH2 0x465A JUMP JUMPDEST SWAP2 CODESIZE PUSH2 0x3AC0 JUMP JUMPDEST SWAP1 POP PUSH1 0x20 DUP2 RETURNDATASIZE PUSH1 0x20 GT PUSH2 0x3B0A JUMPI JUMPDEST DUP2 PUSH2 0x3AF3 PUSH1 0x20 SWAP4 DUP4 PUSH2 0x452C JUMP JUMPDEST DUP2 ADD SUB SLT PUSH2 0x35B8 JUMPI PUSH2 0x3B04 SWAP1 PUSH2 0x467D JUMP JUMPDEST CODESIZE PUSH2 0x3ABA JUMP JUMPDEST RETURNDATASIZE SWAP2 POP PUSH2 0x3AE6 JUMP JUMPDEST POP DUP1 DUP9 MSTORE PUSH1 0xFF PUSH1 0x40 DUP10 KECCAK256 SLOAD PUSH1 0x8 SHR AND PUSH2 0x3800 JUMP JUMPDEST SWAP3 PUSH1 0x40 SWAP5 SWAP3 SWAP5 MLOAD PUSH2 0x3B36 DUP2 PUSH2 0x44FE JUMP JUMPDEST PUSH1 0x5 DUP2 MSTORE PUSH1 0x2 PUSH1 0x20 DUP3 ADD MSTORE PUSH1 0x1 PUSH1 0x40 DUP3 ADD MSTORE PUSH1 0x1 PUSH1 0x60 DUP3 ADD MSTORE PUSH1 0x1 PUSH1 0x80 DUP3 ADD MSTORE CALLER DUP5 MSTORE PUSH1 0x3 PUSH1 0x20 MSTORE PUSH1 0x40 DUP5 KECCAK256 SLOAD PUSH1 0x1 DUP1 PUSH1 0xA0 SHL SUB SWAP1 PUSH1 0x10 SHR AND SWAP3 DUP5 SWAP4 JUMPDEST PUSH1 0x5 PUSH1 0xFF DUP7 AND LT ISZERO PUSH2 0x3CDB JUMPI PUSH1 0x64 PUSH2 0x3B9A PUSH1 0xFF PUSH2 0x3B92 DUP2 DUP10 AND DUP8 PUSH2 0x5A39 JUMP JUMPDEST MLOAD AND DUP7 PUSH2 0x48A4 JUMP JUMPDEST DIV DUP1 ISZERO PUSH2 0x3C9D JUMPI PUSH1 0x1 PUSH1 0x1 PUSH1 0xA0 SHL SUB DUP3 AND ISZERO ISZERO DUP1 PUSH2 0x3C7B JUMPI JUMPDEST PUSH2 0x3BE4 JUMPI JUMPDEST POP PUSH1 0x1 PUSH1 0x1 PUSH1 0xA0 SHL SUB SWAP1 DUP2 AND DUP7 MSTORE PUSH1 0x3 PUSH1 0x20 MSTORE PUSH1 0x40 DUP7 KECCAK256 SLOAD PUSH1 0x10 SHR AND SWAP4 PUSH2 0x3BDE SWAP1 PUSH2 0x5159 JUMP JUMPDEST SWAP4 PUSH2 0x3B73 JUMP JUMPDEST PUSH1 0x1 SLOAD PUSH1 0x40 MLOAD PUSH4 0xA9059CBB PUSH1 0xE0 SHL DUP2 MSTORE SWAP1 PUSH1 0x20 SWAP1 DUP3 SWAP1 PUSH1 0x1 PUSH1 0x1 PUSH1 0xA0 SHL SUB AND DUP2 DUP12 DUP2 PUSH2 0x3C14 DUP9 DUP11 PUSH1 0x4 DUP5 ADD PUSH2 0x468A JUMP JUMPDEST SUB SWAP3 GAS CALL SWAP1 DUP2 ISZERO PUSH2 0x3A3F JUMPI DUP9 SWAP2 PUSH2 0x3C3D JUMPI JUMPDEST POP ISZERO PUSH2 0x3BB8 JUMPI PUSH2 0x3C36 SWAP2 SWAP9 PUSH2 0x465A JUMP JUMPDEST SWAP7 CODESIZE PUSH2 0x3BB8 JUMP JUMPDEST SWAP1 POP PUSH1 0x20 DUP2 RETURNDATASIZE PUSH1 0x20 GT PUSH2 0x3C73 JUMPI JUMPDEST DUP2 PUSH2 0x3C58 PUSH1 0x20 SWAP4 DUP4 PUSH2 0x452C JUMP JUMPDEST DUP2 ADD SUB SLT PUSH2 0x3C6F JUMPI PUSH2 0x3C69 SWAP1 PUSH2 0x467D JUMP JUMPDEST CODESIZE PUSH2 0x3C26 JUMP JUMPDEST DUP8 DUP1 REVERT JUMPDEST RETURNDATASIZE SWAP2 POP PUSH2 0x3C4B JUMP JUMPDEST POP PUSH1 0x1 PUSH1 0x1 PUSH1 0xA0 SHL SUB DUP3 AND DUP8 MSTORE PUSH1 0x3 PUSH1 0x20 MSTORE PUSH1 0x40 DUP8 KECCAK256 SLOAD PUSH1 0x8 SHR PUSH1 0xFF AND PUSH2 0x3BB3 JUMP JUMPDEST POP SWAP4 PUSH1 0x1 PUSH1 0x1 PUSH1 0xA0 SHL SUB DUP6 AND DUP1 PUSH2 0x3CB9 JUMPI JUMPDEST POP PUSH2 0x3BDE SWAP1 PUSH2 0x5159 JUMP JUMPDEST DUP7 MSTORE PUSH1 0x3 PUSH1 0x20 MSTORE PUSH1 0x40 DUP7 KECCAK256 SLOAD PUSH1 0x10 SHR PUSH1 0x1 PUSH1 0x1 PUSH1 0xA0 SHL SUB AND SWAP5 POP PUSH2 0x3BDE PUSH2 0x3CAF JUMP JUMPDEST POP SWAP3 POP POP SWAP3 SWAP4 SWAP2 SWAP4 PUSH2 0x3809 JUMP JUMPDEST PUSH4 0x18B8200 DUP2 ADD DUP1 SWAP2 GT PUSH2 0x199D JUMPI TIMESTAMP LT PUSH2 0x3D02 JUMPI CODESIZE PUSH2 0x379A JUMP JUMPDEST PUSH1 0x40 MLOAD PUSH3 0x461BCD PUSH1 0xE5 SHL DUP2 MSTORE PUSH1 0x20 PUSH1 0x4 DUP3 ADD MSTORE PUSH1 0x26 PUSH1 0x24 DUP3 ADD MSTORE PUSH32 0x5374696C6C206C6F636B65643A2031302D6D6F6E746820706572696F64206E6F PUSH1 0x44 DUP3 ADD MSTORE PUSH6 0x3A1037BB32B9 PUSH1 0xD1 SHL PUSH1 0x64 DUP3 ADD MSTORE PUSH1 0x84 SWAP1 REVERT JUMPDEST POP CALLVALUE PUSH2 0x311 JUMPI PUSH2 0x3D7E PUSH2 0x3D68 CALLDATASIZE PUSH2 0x43EC JUMP JUMPDEST SWAP1 PUSH2 0x3D71 PUSH2 0x45F5 JUMP JUMPDEST PUSH2 0x3D79 PUSH2 0x46B4 JUMP JUMPDEST PUSH2 0x556F JUMP JUMPDEST PUSH1 0x1 PUSH1 0x0 DUP1 MLOAD PUSH1 0x20 PUSH2 0x5EEB DUP4 CODECOPY DUP2 MLOAD SWAP2 MSTORE SSTORE DUP1 RETURN JUMPDEST POP CALLVALUE PUSH2 0x311 JUMPI PUSH1 0x40 CALLDATASIZE PUSH1 0x3 NOT ADD SLT PUSH2 0x311 JUMPI PUSH2 0x3DAD PUSH2 0x434C JUMP JUMPDEST PUSH1 0x24 CALLDATALOAD SWAP1 PUSH2 0x3DB9 PUSH2 0x45F5 JUMP JUMPDEST PUSH1 0x1 PUSH1 0x1 PUSH1 0xA0 SHL SUB AND SWAP1 DUP2 ISZERO PUSH2 0x726 JUMPI PUSH1 0x8 SLOAD DUP2 DUP2 LT PUSH2 0x3E1D JUMPI DUP2 PUSH2 0x3E01 PUSH32 0xBA443E8671971C36CDEB74F87321041DAFF421230CBC5E36CB835269ED1D8B7E SWAP4 PUSH1 0x20 SWAP4 PUSH2 0x465A JUMP JUMPDEST PUSH1 0x8 SSTORE DUP4 DUP6 MSTORE PUSH1 0x3 DUP3 MSTORE PUSH1 0x8 PUSH1 0x40 DUP7 KECCAK256 ADD PUSH2 0x6C3 DUP3 DUP3 SLOAD PUSH2 0x4731 JUMP JUMPDEST PUSH1 0x40 MLOAD PUSH3 0x461BCD PUSH1 0xE5 SHL DUP2 MSTORE PUSH1 0x20 PUSH1 0x4 DUP3 ADD MSTORE PUSH1 0x12 PUSH1 0x24 DUP3 ADD MSTORE PUSH18 0x115E18D959591CC818591B5A5B881C1BDBDB PUSH1 0x72 SHL PUSH1 0x44 DUP3 ADD MSTORE PUSH1 0x64 SWAP1 REVERT JUMPDEST POP CALLVALUE PUSH2 0x311 JUMPI PUSH1 0x20 CALLDATASIZE PUSH1 0x3 NOT ADD SLT PUSH2 0x311 JUMPI PUSH1 0x20 SWAP1 PUSH1 0x40 SWAP1 PUSH1 0x1 PUSH1 0x1 PUSH1 0xA0 SHL SUB PUSH2 0x3E7F PUSH2 0x434C JUMP JUMPDEST AND DUP2 MSTORE PUSH1 0xC DUP4 MSTORE KECCAK256 SLOAD PUSH1 0x40 MLOAD SWAP1 DUP2 MSTORE RETURN JUMPDEST POP CALLVALUE PUSH2 0x311 JUMPI DUP1 PUSH1 0x3 NOT CALLDATASIZE ADD SLT PUSH2 0x311 JUMPI PUSH1 0x1 SLOAD PUSH1 0x40 MLOAD PUSH1 0x1 PUSH1 0x1 PUSH1 0xA0 SHL SUB SWAP1 SWAP2 AND DUP2 MSTORE PUSH1 0x20 SWAP1 RETURN JUMPDEST POP CALLVALUE PUSH2 0x311 JUMPI PUSH1 0x20 CALLDATASIZE PUSH1 0x3 NOT ADD SLT PUSH2 0x311 JUMPI PUSH2 0x3ED3 PUSH2 0x434C JUMP JUMPDEST PUSH2 0x3EDB PUSH2 0x45F5 JUMP JUMPDEST PUSH1 0x1 PUSH1 0x1 PUSH1 0xA0 SHL SUB AND DUP1 ISZERO PUSH2 0x726 JUMPI PUSH1 0x1 DUP1 SLOAD PUSH1 0x1 PUSH1 0x1 PUSH1 0xA0 SHL SUB NOT AND DUP3 OR SWAP1 SSTORE PUSH1 0x40 MLOAD SWAP1 DUP2 MSTORE PUSH32 0xFA7BD61554593F4E69CDFFD255D3FE947352B02C7D3EC68059384934E4CFD47C SWAP1 PUSH1 0x20 SWAP1 LOG1 DUP1 RETURN JUMPDEST POP CALLVALUE PUSH2 0x311 JUMPI PUSH1 0x20 DUP1 PUSH1 0x3 NOT CALLDATASIZE ADD SLT PUSH2 0xA1C JUMPI PUSH1 0x1 PUSH1 0x1 PUSH1 0xA0 SHL SUB PUSH2 0x3F4E PUSH2 0x434C JUMP JUMPDEST AND DUP1 DUP4 MSTORE PUSH1 0xD DUP1 DUP4 MSTORE PUSH1 0x40 DUP5 KECCAK256 SLOAD SWAP3 DUP5 SWAP3 DUP6 JUMPDEST DUP6 DUP2 LT PUSH2 0x40C7 JUMPI POP PUSH2 0x3F72 DUP5 PUSH2 0x5E38 JUMP JUMPDEST SWAP5 PUSH2 0x3F7C DUP6 PUSH2 0x5E38 JUMP JUMPDEST SWAP2 PUSH2 0x3F86 DUP7 PUSH2 0x5E38 JUMP JUMPDEST SWAP5 PUSH2 0x3F99 PUSH2 0x3F93 DUP9 PUSH2 0x5E38 JUMP JUMPDEST SWAP8 PUSH2 0x5E38 JUMP JUMPDEST SWAP9 DUP1 SWAP2 DUP2 JUMPDEST DUP6 DUP2 LT PUSH2 0x400A JUMPI POP PUSH2 0x3FCF DUP11 PUSH2 0x4006 DUP14 PUSH2 0x3FF8 DUP14 PUSH2 0x3FEA DUP15 PUSH2 0x3FDC DUP16 DUP16 PUSH1 0x40 MLOAD SWAP11 DUP12 SWAP11 PUSH1 0xA0 DUP13 MSTORE PUSH1 0xA0 DUP13 ADD SWAP1 PUSH2 0x43B8 JUMP JUMPDEST SWAP2 DUP11 DUP4 SUB SWAP1 DUP12 ADD MSTORE PUSH2 0x43B8 JUMP JUMPDEST SWAP1 DUP8 DUP3 SUB PUSH1 0x40 DUP10 ADD MSTORE PUSH2 0x43B8 JUMP JUMPDEST SWAP1 DUP6 DUP3 SUB PUSH1 0x60 DUP8 ADD MSTORE PUSH2 0x43B8 JUMP JUMPDEST SWAP1 DUP4 DUP3 SUB PUSH1 0x80 DUP6 ADD MSTORE PUSH2 0x43B8 JUMP JUMPDEST SUB SWAP1 RETURN JUMPDEST DUP12 DUP12 DUP12 DUP12 DUP11 DUP13 DUP11 PUSH1 0xFF PUSH1 0x4 PUSH2 0x4028 DUP11 PUSH1 0x40 DUP15 DUP15 DUP8 DUP3 MSTORE DUP9 MSTORE KECCAK256 PUSH2 0x5A4A JUMP JUMPDEST POP ADD SLOAD AND PUSH2 0x4046 JUMPI JUMPDEST POP POP POP POP POP POP POP PUSH2 0x4041 SWAP1 PUSH2 0x46A5 JUMP JUMPDEST PUSH2 0x3F9E JUMP JUMPDEST SWAP5 PUSH2 0x40B8 SWAP7 SWAP5 PUSH2 0x40B2 SWAP5 DUP13 SWAP8 SWAP5 DUP11 PUSH2 0x407C DUP2 SWAP16 DUP16 DUP16 SWAP15 PUSH2 0x4041 SWAP16 DUP3 PUSH1 0x40 SWAP2 PUSH1 0x3 SWAP13 DUP7 SWAP15 PUSH2 0x4075 SWAP7 MSTORE MSTORE KECCAK256 PUSH2 0x5A4A JUMP JUMPDEST POP SWAP7 PUSH2 0x5305 JUMP JUMPDEST MSTORE PUSH2 0x4089 DUP7 DUP6 SLOAD SWAP3 PUSH2 0x5305 JUMP JUMPDEST MSTORE PUSH2 0x4099 DUP6 PUSH1 0x1 DUP6 ADD SLOAD SWAP3 PUSH2 0x5305 JUMP JUMPDEST MSTORE PUSH2 0x40A9 DUP5 PUSH1 0x2 DUP5 ADD SLOAD SWAP3 PUSH2 0x5305 JUMP JUMPDEST MSTORE ADD SLOAD SWAP3 PUSH2 0x5305 JUMP JUMPDEST MSTORE PUSH2 0x46A5 JUMP JUMPDEST SWAP4 SWAP1 POP DUP12 DUP12 DUP12 DUP12 DUP11 DUP13 DUP11 PUSH2 0x4031 JUMP JUMPDEST DUP2 DUP8 MSTORE DUP4 DUP4 MSTORE PUSH1 0xFF PUSH1 0x4 PUSH2 0x40DE DUP4 PUSH1 0x40 DUP12 KECCAK256 PUSH2 0x5A4A JUMP JUMPDEST POP ADD SLOAD AND PUSH2 0x40F5 JUMPI JUMPDEST PUSH2 0x40F0 SWAP1 PUSH2 0x46A5 JUMP JUMPDEST PUSH2 0x3F61 JUMP JUMPDEST SWAP4 PUSH2 0x4102 PUSH2 0x40F0 SWAP2 PUSH2 0x46A5 JUMP JUMPDEST SWAP5 SWAP1 POP PUSH2 0x40E7 JUMP JUMPDEST POP CALLVALUE PUSH2 0x311 JUMPI PUSH1 0x20 CALLDATASIZE PUSH1 0x3 NOT ADD SLT PUSH2 0x311 JUMPI PUSH2 0x4194 SWAP1 PUSH1 0x40 SWAP1 PUSH1 0x1 PUSH1 0x1 PUSH1 0xA0 SHL SUB PUSH2 0x4133 PUSH2 0x434C JUMP JUMPDEST AND DUP2 MSTORE PUSH1 0x3 PUSH1 0x20 MSTORE KECCAK256 PUSH1 0xFF PUSH1 0x19 DUP3 ADD SLOAD AND PUSH2 0x41BE PUSH2 0x4153 PUSH1 0x15 DUP5 ADD PUSH2 0x454F JUMP JUMPDEST SWAP3 PUSH2 0x41B0 PUSH2 0x4163 PUSH1 0x16 DUP4 ADD PUSH2 0x454F JUMP JUMPDEST SWAP2 PUSH2 0x41A2 PUSH2 0x417F PUSH1 0x18 PUSH2 0x4178 PUSH1 0x17 DUP6 ADD PUSH2 0x454F JUMP JUMPDEST SWAP4 ADD PUSH2 0x454F JUMP JUMPDEST SWAP4 PUSH1 0x40 MLOAD SWAP9 DUP10 SWAP9 PUSH1 0xA0 DUP11 MSTORE PUSH1 0xA0 DUP11 ADD SWAP1 PUSH2 0x4378 JUMP JUMPDEST SWAP1 DUP9 DUP3 SUB PUSH1 0x20 DUP11 ADD MSTORE PUSH2 0x4378 JUMP JUMPDEST SWAP1 DUP7 DUP3 SUB PUSH1 0x40 DUP9 ADD MSTORE PUSH2 0x4378 JUMP JUMPDEST SWAP1 DUP5 DUP3 SUB PUSH1 0x60 DUP7 ADD MSTORE PUSH2 0x4378 JUMP JUMPDEST SWAP1 ISZERO ISZERO PUSH1 0x80 DUP4 ADD MSTORE SUB SWAP1 RETURN JUMPDEST POP CALLVALUE PUSH2 0x311 JUMPI DUP1 PUSH1 0x3 NOT CALLDATASIZE ADD SLT PUSH2 0x311 JUMPI PUSH2 0x41E3 PUSH2 0x46B4 JUMP JUMPDEST CALLER DUP2 MSTORE PUSH1 0x3 PUSH1 0x20 MSTORE PUSH1 0x40 DUP2 KECCAK256 SLOAD PUSH1 0xFF DUP2 AND ISZERO PUSH2 0xE0A JUMPI PUSH1 0x8 SHR PUSH1 0xFF AND PUSH2 0x42B4 JUMPI PUSH1 0x40 MLOAD PUSH4 0x23B872DD PUSH1 0xE0 SHL DUP2 MSTORE CALLER PUSH1 0x4 DUP3 ADD MSTORE ADDRESS PUSH1 0x24 DUP3 ADD MSTORE PUSH9 0x70C1CC73B00C80000 PUSH1 0x44 DUP3 ADD MSTORE PUSH1 0x20 DUP2 PUSH1 0x64 DUP2 DUP6 PUSH32 0x0 PUSH1 0x1 PUSH1 0x1 PUSH1 0xA0 SHL SUB AND GAS CALL SWAP1 DUP2 ISZERO PUSH2 0xA11 JUMPI DUP3 SWAP2 PUSH2 0x427B JUMPI JUMPDEST POP ISZERO PUSH2 0xA20 JUMPI PUSH2 0x3D7E CALLER PUSH2 0x48FB JUMP JUMPDEST SWAP1 POP PUSH1 0x20 DUP2 RETURNDATASIZE DUP3 GT PUSH2 0x42AC JUMPI JUMPDEST DUP2 PUSH2 0x4295 PUSH1 0x20 SWAP4 DUP4 PUSH2 0x452C JUMP JUMPDEST DUP2 ADD SUB SLT PUSH2 0xA1C JUMPI PUSH2 0x42A6 SWAP1 PUSH2 0x467D JUMP JUMPDEST CODESIZE PUSH2 0x426C JUMP JUMPDEST RETURNDATASIZE SWAP2 POP PUSH2 0x4288 JUMP JUMPDEST PUSH1 0x40 MLOAD PUSH4 0x7CDF3051 PUSH1 0xE1 SHL DUP2 MSTORE PUSH1 0x4 SWAP1 REVERT JUMPDEST POP CALLVALUE PUSH2 0x311 JUMPI PUSH1 0x20 CALLDATASIZE PUSH1 0x3 NOT ADD SLT PUSH2 0x311 JUMPI PUSH1 0x40 SWAP1 DUP2 SWAP1 PUSH1 0x1 PUSH1 0x1 PUSH1 0xA0 SHL SUB PUSH2 0x42ED PUSH2 0x434C JUMP JUMPDEST AND DUP2 MSTORE PUSH1 0x3 PUSH1 0x20 MSTORE KECCAK256 PUSH1 0x10 PUSH1 0xF DUP3 ADD SLOAD SWAP2 ADD SLOAD DUP3 MLOAD SWAP2 DUP3 MSTORE PUSH1 0x20 DUP3 ADD MSTORE RETURN JUMPDEST POP CALLVALUE PUSH2 0x311 JUMPI DUP1 PUSH1 0x3 NOT CALLDATASIZE ADD SLT PUSH2 0x311 JUMPI PUSH1 0x20 PUSH1 0x40 MLOAD PUSH9 0x70C1CC73B00C80000 DUP2 MSTORE RETURN JUMPDEST SWAP1 POP CALLVALUE PUSH2 0xA1C JUMPI DUP2 PUSH1 0x3 NOT CALLDATASIZE ADD SLT PUSH2 0xA1C JUMPI PUSH1 0x20 SWAP1 PUSH1 0x7 SLOAD DUP2 MSTORE RETURN JUMPDEST PUSH1 0x4 CALLDATALOAD SWAP1 PUSH1 0x1 PUSH1 0x1 PUSH1 0xA0 SHL SUB DUP3 AND DUP3 SUB PUSH2 0xAB1 JUMPI JUMP JUMPDEST PUSH1 0x24 CALLDATALOAD SWAP1 PUSH1 0x1 PUSH1 0x1 PUSH1 0xA0 SHL SUB DUP3 AND DUP3 SUB PUSH2 0xAB1 JUMPI JUMP JUMPDEST SWAP2 SWAP1 DUP3 MLOAD SWAP3 DUP4 DUP3 MSTORE PUSH1 0x0 JUMPDEST DUP5 DUP2 LT PUSH2 0x43A4 JUMPI POP POP DUP3 PUSH1 0x0 PUSH1 0x20 DUP1 SWAP5 SWAP6 DUP5 ADD ADD MSTORE PUSH1 0x1F DUP1 NOT SWAP2 ADD AND ADD ADD SWAP1 JUMP JUMPDEST PUSH1 0x20 DUP2 DUP4 ADD DUP2 ADD MLOAD DUP5 DUP4 ADD DUP3 ADD MSTORE ADD PUSH2 0x4383 JUMP JUMPDEST SWAP1 DUP2 MLOAD DUP1 DUP3 MSTORE PUSH1 0x20 DUP1 DUP1 SWAP4 ADD SWAP4 ADD SWAP2 PUSH1 0x0 JUMPDEST DUP3 DUP2 LT PUSH2 0x43D8 JUMPI POP POP POP POP SWAP1 JUMP JUMPDEST DUP4 MLOAD DUP6 MSTORE SWAP4 DUP2 ADD SWAP4 SWAP3 DUP2 ADD SWAP3 PUSH1 0x1 ADD PUSH2 0x43CA JUMP JUMPDEST PUSH1 0x40 SWAP1 PUSH1 0x3 NOT ADD SLT PUSH2 0xAB1 JUMPI PUSH1 0x4 CALLDATALOAD SWAP1 PUSH1 0x24 CALLDATALOAD SWAP1 JUMP JUMPDEST CALLVALUE PUSH2 0xAB1 JUMPI PUSH1 0x0 CALLDATASIZE PUSH1 0x3 NOT ADD SLT PUSH2 0xAB1 JUMPI PUSH1 0x20 PUSH1 0x40 MLOAD PUSH1 0x1E DUP2 MSTORE RETURN JUMPDEST SWAP2 DUP2 PUSH1 0x1F DUP5 ADD SLT ISZERO PUSH2 0xAB1 JUMPI DUP3 CALLDATALOAD SWAP2 PUSH1 0x1 PUSH1 0x1 PUSH1 0x40 SHL SUB DUP4 GT PUSH2 0xAB1 JUMPI PUSH1 0x20 DUP4 DUP2 DUP7 ADD SWAP6 ADD ADD GT PUSH2 0xAB1 JUMPI JUMP JUMPDEST PUSH1 0x60 SWAP1 PUSH1 0x3 NOT ADD SLT PUSH2 0xAB1 JUMPI PUSH1 0x4 CALLDATALOAD PUSH1 0x1 PUSH1 0x1 PUSH1 0xA0 SHL SUB DUP2 AND DUP2 SUB PUSH2 0xAB1 JUMPI SWAP1 PUSH1 0x24 CALLDATALOAD SWAP1 PUSH1 0x44 CALLDATALOAD SWAP1 JUMP JUMPDEST PUSH1 0x24 CALLDATALOAD SWAP1 DUP2 ISZERO ISZERO DUP3 SUB PUSH2 0xAB1 JUMPI JUMP JUMPDEST PUSH1 0x44 CALLDATALOAD SWAP1 DUP2 ISZERO ISZERO DUP3 SUB PUSH2 0xAB1 JUMPI JUMP JUMPDEST PUSH1 0x4 SLOAD DUP2 LT ISZERO PUSH2 0x44AE JUMPI PUSH1 0x4 PUSH1 0x0 MSTORE PUSH1 0x20 PUSH1 0x0 KECCAK256 ADD SWAP1 PUSH1 0x0 SWAP1 JUMP JUMPDEST PUSH4 0x4E487B71 PUSH1 0xE0 SHL PUSH1 0x0 MSTORE PUSH1 0x32 PUSH1 0x4 MSTORE PUSH1 0x24 PUSH1 0x0 REVERT JUMPDEST SWAP1 PUSH1 0x1 DUP3 DUP2 SHR SWAP3 AND DUP1 ISZERO PUSH2 0x44F4 JUMPI JUMPDEST PUSH1 0x20 DUP4 LT EQ PUSH2 0x44DE JUMPI JUMP JUMPDEST PUSH4 0x4E487B71 PUSH1 0xE0 SHL PUSH1 0x0 MSTORE PUSH1 0x22 PUSH1 0x4 MSTORE PUSH1 0x24 PUSH1 0x0 REVERT JUMPDEST SWAP2 PUSH1 0x7F AND SWAP2 PUSH2 0x44D3 JUMP JUMPDEST PUSH1 0xA0 DUP2 ADD SWAP1 DUP2 LT PUSH1 0x1 PUSH1 0x1 PUSH1 0x40 SHL SUB DUP3 GT OR PUSH2 0x5B1 JUMPI PUSH1 0x40 MSTORE JUMP JUMPDEST PUSH1 0x1 PUSH1 0x1 PUSH1 0x40 SHL SUB DUP2 GT PUSH2 0x5B1 JUMPI PUSH1 0x40 MSTORE JUMP JUMPDEST PUSH1 0x1F SWAP1 SWAP2 ADD PUSH1 0x1F NOT AND DUP2 ADD SWAP1 PUSH1 0x1 PUSH1 0x1 PUSH1 0x40 SHL SUB DUP3 GT SWAP1 DUP3 LT OR PUSH2 0x5B1 JUMPI PUSH1 0x40 MSTORE JUMP JUMPDEST SWAP1 PUSH1 0x40 MLOAD SWAP2 DUP3 PUSH1 0x0 DUP3 SLOAD SWAP3 PUSH2 0x4563 DUP5 PUSH2 0x44C4 JUMP JUMPDEST SWAP1 DUP2 DUP5 MSTORE PUSH1 0x1 SWAP5 DUP6 DUP2 AND SWAP1 DUP2 PUSH1 0x0 EQ PUSH2 0x45D2 JUMPI POP PUSH1 0x1 EQ PUSH2 0x458F JUMPI JUMPDEST POP POP PUSH2 0x458D SWAP3 POP SUB DUP4 PUSH2 0x452C JUMP JUMPDEST JUMP JUMPDEST SWAP1 SWAP4 SWAP2 POP PUSH1 0x0 MSTORE PUSH1 0x20 SWAP1 DUP2 PUSH1 0x0 KECCAK256 SWAP4 PUSH1 0x0 SWAP2 JUMPDEST DUP2 DUP4 LT PUSH2 0x45BA JUMPI POP POP PUSH2 0x458D SWAP4 POP DUP3 ADD ADD CODESIZE DUP1 PUSH2 0x457F JUMP JUMPDEST DUP6 SLOAD DUP9 DUP5 ADD DUP6 ADD MSTORE SWAP5 DUP6 ADD SWAP5 DUP8 SWAP5 POP SWAP2 DUP4 ADD SWAP2 PUSH2 0x45A2 JUMP JUMPDEST SWAP2 POP POP PUSH2 0x458D SWAP5 POP PUSH1 0x20 SWAP3 POP PUSH1 0xFF NOT AND DUP3 DUP5 ADD MSTORE ISZERO ISZERO PUSH1 0x5 SHL DUP3 ADD ADD CODESIZE DUP1 PUSH2 0x457F JUMP JUMPDEST PUSH1 0x0 SLOAD PUSH1 0x1 PUSH1 0x1 PUSH1 0xA0 SHL SUB AND CALLER SUB PUSH2 0x4609 JUMPI JUMP JUMPDEST PUSH1 0x40 MLOAD PUSH4 0x118CDAA7 PUSH1 0xE0 SHL DUP2 MSTORE CALLER PUSH1 0x4 DUP3 ADD MSTORE PUSH1 0x24 SWAP1 REVERT JUMPDEST ISZERO PUSH2 0x4628 JUMPI JUMP JUMPDEST PUSH1 0x40 MLOAD PUSH3 0x461BCD PUSH1 0xE5 SHL DUP2 MSTORE PUSH1 0x20 PUSH1 0x4 DUP3 ADD MSTORE PUSH1 0xA PUSH1 0x24 DUP3 ADD MSTORE PUSH10 0x4E6F7420616374697665 PUSH1 0xB0 SHL PUSH1 0x44 DUP3 ADD MSTORE PUSH1 0x64 SWAP1 REVERT JUMPDEST SWAP2 SWAP1 DUP3 SUB SWAP2 DUP3 GT PUSH2 0x4667 JUMPI JUMP JUMPDEST PUSH4 0x4E487B71 PUSH1 0xE0 SHL PUSH1 0x0 MSTORE PUSH1 0x11 PUSH1 0x4 MSTORE PUSH1 0x24 PUSH1 0x0 REVERT JUMPDEST MLOAD SWAP1 DUP2 ISZERO ISZERO DUP3 SUB PUSH2 0xAB1 JUMPI JUMP JUMPDEST PUSH1 0x1 PUSH1 0x1 PUSH1 0xA0 SHL SUB SWAP1 SWAP2 AND DUP2 MSTORE PUSH1 0x20 DUP2 ADD SWAP2 SWAP1 SWAP2 MSTORE PUSH1 0x40 ADD SWAP1 JUMP JUMPDEST PUSH1 0x0 NOT DUP2 EQ PUSH2 0x4667 JUMPI PUSH1 0x1 ADD SWAP1 JUMP JUMPDEST PUSH1 0x0 DUP1 MLOAD PUSH1 0x20 PUSH2 0x5EEB DUP4 CODECOPY DUP2 MLOAD SWAP2 MSTORE PUSH1 0x2 DUP2 SLOAD EQ PUSH2 0x46D2 JUMPI PUSH1 0x2 SWAP1 SSTORE JUMP JUMPDEST PUSH1 0x40 MLOAD PUSH4 0x3EE5AEB5 PUSH1 0xE0 SHL DUP2 MSTORE PUSH1 0x4 SWAP1 REVERT JUMPDEST DUP1 SLOAD DUP3 LT ISZERO PUSH2 0x44AE JUMPI PUSH1 0x0 MSTORE PUSH1 0x3 PUSH1 0x20 PUSH1 0x0 KECCAK256 SWAP2 MUL ADD SWAP1 PUSH1 0x0 SWAP1 JUMP JUMPDEST ISZERO PUSH2 0x4707 JUMPI JUMP JUMPDEST PUSH1 0x40 MLOAD PUSH3 0x461BCD PUSH1 0xE5 SHL DUP2 MSTORE PUSH1 0x20 PUSH1 0x4 DUP3 ADD MSTORE PUSH1 0x2 PUSH1 0x24 DUP3 ADD MSTORE PUSH2 0x5A41 PUSH1 0xF0 SHL PUSH1 0x44 DUP3 ADD MSTORE PUSH1 0x64 SWAP1 REVERT JUMPDEST SWAP2 SWAP1 DUP3 ADD DUP1 SWAP3 GT PUSH2 0x4667 JUMPI JUMP JUMPDEST PUSH1 0x1 PUSH1 0x1 PUSH1 0xA0 SHL SUB SWAP1 DUP2 AND PUSH1 0x0 DUP2 DUP2 MSTORE PUSH1 0x3 PUSH1 0x20 MSTORE PUSH1 0x40 SWAP1 KECCAK256 DUP1 SLOAD PUSH2 0xFF01 PUSH1 0x1 PUSH1 0xB0 SHL SUB NOT AND PUSH1 0x10 SWAP5 SWAP1 SWAP5 SHL PUSH3 0x10000 PUSH1 0x1 PUSH1 0xB0 SHL SUB AND SWAP4 SWAP1 SWAP4 OR PUSH1 0x1 OR DUP4 SSTORE PUSH1 0x2 DUP4 ADD DUP1 SLOAD PUSH1 0x1 PUSH1 0x1 PUSH1 0xA8 SHL SUB NOT AND SWAP5 DUP4 AND SWAP5 SWAP1 SWAP5 OR SWAP5 ISZERO ISZERO PUSH1 0xA0 SHL PUSH1 0xFF PUSH1 0xA0 SHL AND SWAP5 SWAP1 SWAP5 OR SWAP1 SWAP3 SSTORE PUSH1 0x12 DUP2 ADD DUP1 SLOAD PUSH1 0x1 PUSH1 0x1 PUSH1 0xA0 SHL SUB NOT AND SWAP1 SSTORE TIMESTAMP PUSH1 0x14 SWAP1 SWAP2 ADD SSTORE PUSH1 0x4 SLOAD SWAP1 SWAP2 SWAP1 PUSH1 0x1 PUSH1 0x40 SHL DUP2 LT ISZERO PUSH2 0x5B1 JUMPI DUP1 PUSH1 0x1 PUSH2 0x47E3 SWAP3 ADD PUSH1 0x4 SSTORE PUSH2 0x4493 JUMP JUMPDEST SWAP1 SWAP3 DUP4 SLOAD SWAP2 PUSH1 0x3 SHL SWAP3 DUP4 SHL SWAP3 SHL NOT AND OR SWAP1 SSTORE PUSH2 0x4800 PUSH1 0x5 SLOAD PUSH2 0x46A5 JUMP JUMPDEST PUSH1 0x5 SSTORE JUMP JUMPDEST PUSH1 0x1 DUP1 PUSH1 0xA0 SHL SUB SWAP2 DUP3 PUSH1 0x0 SWAP3 AND DUP3 MSTORE PUSH1 0x3 SWAP2 PUSH1 0x20 SWAP3 DUP1 DUP5 MSTORE PUSH1 0x2 SWAP2 PUSH1 0x40 SWAP2 DUP4 DUP4 DUP4 KECCAK256 ADD SLOAD SWAP6 DUP8 DUP8 AND SWAP6 PUSH1 0xFF SWAP7 DUP10 DUP9 PUSH1 0xA0 SWAP11 DUP12 SHR AND SWAP2 JUMPDEST AND SWAP1 DUP2 ISZERO PUSH2 0x4897 JUMPI ISZERO PUSH2 0x487A JUMPI DUP1 DUP6 MSTORE DUP4 DUP4 MSTORE PUSH1 0x5 DUP7 DUP7 KECCAK256 ADD PUSH2 0x485E DUP2 SLOAD PUSH2 0x46A5 JUMP JUMPDEST SWAP1 SSTORE JUMPDEST DUP5 MSTORE DUP3 DUP3 MSTORE DUP6 DUP6 DUP6 KECCAK256 ADD SLOAD DUP10 DUP1 DUP10 DUP4 DUP13 SHR AND SWAP3 AND PUSH2 0x483B JUMP JUMPDEST DUP1 DUP6 MSTORE DUP4 DUP4 MSTORE PUSH1 0x6 DUP7 DUP7 KECCAK256 ADD PUSH2 0x4890 DUP2 SLOAD PUSH2 0x46A5 JUMP JUMPDEST SWAP1 SSTORE PUSH2 0x4861 JUMP JUMPDEST POP POP SWAP8 POP POP POP POP POP POP POP POP JUMP JUMPDEST DUP2 DUP2 MUL SWAP3 SWAP2 DUP2 ISZERO SWAP2 DUP5 DIV EQ OR ISZERO PUSH2 0x4667 JUMPI JUMP JUMPDEST DUP2 ISZERO PUSH2 0x48C1 JUMPI DIV SWAP1 JUMP JUMPDEST PUSH4 0x4E487B71 PUSH1 0xE0 SHL PUSH1 0x0 MSTORE PUSH1 0x12 PUSH1 0x4 MSTORE PUSH1 0x24 PUSH1 0x0 REVERT JUMPDEST SWAP2 SWAP3 PUSH1 0x80 SWAP4 SWAP7 SWAP6 SWAP5 SWAP2 SWAP7 PUSH1 0xA0 DUP5 ADD SWAP8 DUP5 MSTORE PUSH1 0x20 DUP5 ADD MSTORE PUSH1 0x40 DUP4 ADD MSTORE PUSH1 0x60 DUP3 ADD MSTORE ADD MSTORE JUMP JUMPDEST PUSH1 0x1 SLOAD PUSH1 0x40 MLOAD PUSH3 0x3144BD PUSH1 0xE3 SHL DUP2 MSTORE PUSH1 0x1 PUSH1 0x1 PUSH1 0xA0 SHL SUB SWAP1 SWAP2 AND SWAP3 SWAP1 SWAP2 PUSH1 0x0 SWAP2 SWAP1 PUSH1 0x20 DUP5 PUSH1 0x4 DUP2 DUP9 GAS STATICCALL SWAP4 DUP5 ISZERO PUSH2 0xF5A JUMPI DUP4 SWAP5 PUSH2 0x5125 JUMPI JUMPDEST POP DUP4 ISZERO PUSH2 0x5111 JUMPI PUSH1 0x40 MLOAD PUSH4 0x95EA7B3 PUSH1 0xE0 SHL DUP2 MSTORE PUSH1 0x4 DUP2 ADD SWAP6 SWAP1 SWAP6 MSTORE PUSH9 0x70C1CC73B00C80000 PUSH1 0x24 DUP1 DUP8 ADD SWAP2 SWAP1 SWAP2 MSTORE SWAP5 PUSH1 0x20 DUP2 PUSH1 0x44 DUP2 DUP8 PUSH32 0x0 PUSH1 0x1 PUSH1 0x1 PUSH1 0xA0 SHL SUB AND GAS CALL DUP1 ISZERO PUSH2 0x10CF JUMPI PUSH2 0x50D8 JUMPI JUMPDEST POP PUSH1 0x1 SLOAD PUSH1 0x40 MLOAD PUSH4 0x70A08231 PUSH1 0xE0 SHL DUP1 DUP3 MSTORE ADDRESS PUSH1 0x4 DUP4 ADD MSTORE SWAP2 PUSH1 0x1 PUSH1 0x1 PUSH1 0xA0 SHL SUB AND PUSH1 0x20 DUP3 DUP10 DUP2 DUP5 GAS STATICCALL SWAP2 DUP3 ISZERO PUSH2 0xA6B JUMPI DUP7 SWAP3 PUSH2 0x50A4 JUMPI JUMPDEST POP DUP1 EXTCODESIZE ISZERO PUSH2 0xA60 JUMPI DUP6 PUSH9 0x70C1CC73B00C80000 PUSH1 0x44 DUP11 DUP4 PUSH1 0x40 MLOAD SWAP6 DUP7 SWAP5 DUP6 SWAP4 PUSH4 0x4E538D93 PUSH1 0xE1 SHL DUP6 MSTORE ADDRESS PUSH1 0x4 DUP7 ADD MSTORE DUP5 ADD MSTORE GAS CALL DUP1 ISZERO PUSH2 0xA6B JUMPI PUSH2 0x5091 JUMPI JUMPDEST POP PUSH1 0x1 SLOAD PUSH1 0x40 MLOAD SWAP3 DUP4 MSTORE ADDRESS PUSH1 0x4 DUP5 ADD MSTORE PUSH1 0x20 SWAP1 DUP4 SWAP1 DUP10 SWAP1 DUP3 SWAP1 PUSH1 0x1 PUSH1 0x1 PUSH1 0xA0 SHL SUB AND GAS STATICCALL DUP1 ISZERO PUSH2 0x39B7 JUMPI DUP6 SWAP1 PUSH2 0x505D JUMPI JUMPDEST PUSH2 0x4A53 SWAP3 POP PUSH2 0x465A JUMP JUMPDEST PUSH1 0x1E PUSH12 0x30E68B6D6E0ACC828633631 PUSH1 0x25 SHL DUP7 SWAP1 DIV DUP2 DUP2 MUL SWAP7 SWAP3 SWAP4 SWAP3 SWAP2 DUP2 DUP9 DIV EQ SWAP1 ISZERO OR ISZERO PUSH2 0x504A JUMPI PUSH2 0x4AC2 PUSH2 0x1821 PUSH2 0x4AA7 PUSH1 0x64 DUP10 DIV PUSH2 0x1837 DUP2 DUP2 DUP2 PUSH12 0x30E68B6D6E0ACC828633631 PUSH1 0x25 SHL DUP10 SWAP1 DIV PUSH2 0x465A JUMP JUMPDEST PUSH2 0x4AB6 PUSH1 0x64 DUP11 DIV PUSH1 0x6 SLOAD PUSH2 0x4731 JUMP JUMPDEST PUSH1 0x6 SSTORE PUSH1 0x64 DUP10 DIV PUSH2 0x4731 JUMP JUMPDEST PUSH1 0x8 SSTORE PUSH1 0x1 PUSH1 0x1 PUSH1 0xA0 SHL SUB DUP3 DUP2 AND DUP7 MSTORE PUSH1 0x3 PUSH1 0x20 MSTORE PUSH1 0x40 DUP7 KECCAK256 DUP1 SLOAD PUSH2 0xFF00 NOT AND PUSH2 0x100 OR DUP1 DUP3 SSTORE PUSH9 0x15245655B102580000 PUSH1 0xB SWAP1 SWAP3 ADD SWAP2 SWAP1 SWAP2 SSTORE PUSH1 0x1 SWAP6 DUP8 SWAP6 SWAP1 SWAP3 SWAP1 SWAP2 PUSH1 0x10 SHR AND JUMPDEST PUSH1 0xA PUSH1 0xFF DUP9 AND GT ISZERO DUP1 PUSH2 0x5038 JUMPI JUMPDEST ISZERO PUSH2 0x4EA7 JUMPI PUSH2 0x4B39 DUP8 PUSH12 0x30E68B6D6E0ACC828633631 PUSH1 0x25 SHL DUP7 SWAP1 DIV PUSH2 0x517F JUMP JUMPDEST SWAP6 DUP7 ISZERO PUSH2 0x4E7D JUMPI DUP7 PUSH2 0x4B4A SWAP2 PUSH2 0x4731 JUMP JUMPDEST PUSH1 0x1 PUSH1 0x1 PUSH1 0xA0 SHL SUB DUP3 AND DUP10 MSTORE PUSH1 0x3 PUSH1 0x20 MSTORE PUSH1 0x40 DUP10 KECCAK256 DUP1 SLOAD SWAP2 SWAP8 SWAP2 PUSH1 0x8 SHR PUSH1 0xFF AND SWAP1 DUP2 PUSH2 0x4E66 JUMPI JUMPDEST POP ISZERO PUSH2 0x4D3D JUMPI PUSH1 0x1 PUSH1 0x1 PUSH1 0xA0 SHL SUB DUP3 AND DUP10 MSTORE PUSH1 0x3 PUSH1 0x20 MSTORE PUSH1 0x40 DUP10 KECCAK256 PUSH1 0x8 ADD DUP1 SLOAD PUSH2 0x4B9C SWAP1 DUP4 SWAP1 PUSH2 0x4731 JUMP JUMPDEST SWAP1 SSTORE PUSH1 0x1 PUSH1 0x1 PUSH1 0xA0 SHL SUB DUP3 AND DUP10 MSTORE PUSH1 0x3 PUSH1 0x20 MSTORE PUSH1 0x40 DUP10 KECCAK256 PUSH1 0x9 ADD DUP1 SLOAD PUSH2 0x4BC3 SWAP1 DUP4 SWAP1 PUSH2 0x4731 JUMP JUMPDEST SWAP1 SSTORE PUSH1 0x40 MLOAD PUSH1 0x1 PUSH1 0x1 PUSH1 0xA0 SHL SUB DUP8 DUP2 AND SWAP2 SWAP1 DUP5 AND SWAP1 PUSH32 0xB16479BDAC5B7099D9236D6FC6BE3B30FF54188F4FD961686E1E1DC7ECB88037 SWAP1 DUP1 PUSH2 0x4C06 DUP7 DUP15 DUP4 PUSH2 0x516A JUMP JUMPDEST SUB SWAP1 LOG3 PUSH1 0x1 DUP1 PUSH1 0xA0 SHL SUB DUP3 AND PUSH1 0x0 MSTORE PUSH1 0xE PUSH1 0x20 MSTORE PUSH1 0x40 PUSH1 0x0 KECCAK256 PUSH1 0x40 MLOAD SWAP2 PUSH2 0x4C2C DUP4 PUSH2 0x44FE JUMP JUMPDEST PUSH1 0x1 DUP4 MSTORE TIMESTAMP PUSH4 0xFFFFFFFF AND PUSH1 0x20 DUP5 ADD MSTORE PUSH1 0x40 DUP4 ADD MSTORE PUSH1 0xFF DUP10 AND PUSH1 0x60 DUP4 ADD MSTORE PUSH1 0x1 PUSH1 0x1 PUSH1 0xA0 SHL SUB DUP8 AND PUSH1 0x80 DUP4 ADD MSTORE DUP1 SLOAD PUSH1 0x1 PUSH1 0x40 SHL DUP2 LT ISZERO PUSH2 0x4D28 JUMPI PUSH2 0x4C76 SWAP2 PUSH1 0x1 DUP3 ADD DUP2 SSTORE PUSH2 0x46E4 JUMP JUMPDEST PUSH2 0x4D13 JUMPI DUP2 MLOAD DUP2 SLOAD PUSH1 0x20 DUP5 ADD MLOAD PUSH5 0xFFFFFFFFFF NOT SWAP1 SWAP2 AND PUSH1 0xFF SWAP3 DUP4 AND OR PUSH1 0x8 SWAP2 DUP3 SHL PUSH5 0xFFFFFFFF00 AND OR DUP4 SSTORE PUSH1 0x40 DUP5 ADD MLOAD PUSH1 0x1 DUP5 ADD SSTORE PUSH1 0x60 DUP5 ADD MLOAD PUSH1 0x2 SWAP4 SWAP1 SWAP4 ADD DUP1 SLOAD PUSH1 0x80 SWAP1 SWAP6 ADD MLOAD PUSH1 0x1 PUSH1 0x1 PUSH1 0xA8 SHL SUB NOT SWAP1 SWAP6 AND SWAP4 SWAP1 SWAP3 AND SWAP3 SWAP1 SWAP3 OR SWAP3 SWAP1 SWAP2 SHL PUSH2 0x100 PUSH1 0x1 PUSH1 0xA8 SHL SUB AND SWAP2 SWAP1 SWAP2 OR SWAP1 SSTORE JUMPDEST PUSH1 0x1 PUSH1 0x1 PUSH1 0xA0 SHL SUB SWAP1 DUP2 AND DUP9 MSTORE PUSH1 0x3 PUSH1 0x20 MSTORE PUSH1 0x40 DUP9 KECCAK256 SLOAD PUSH1 0x10 SHR AND SWAP6 PUSH2 0x4D0D SWAP1 PUSH2 0x5159 JUMP JUMPDEST SWAP6 PUSH2 0x4B0A JUMP JUMPDEST DUP12 PUSH4 0x4E487B71 PUSH1 0xE0 SHL PUSH1 0x0 MSTORE PUSH1 0x0 PUSH1 0x4 MSTORE PUSH1 0x0 REVERT JUMPDEST DUP13 PUSH4 0x4E487B71 PUSH1 0xE0 SHL PUSH1 0x0 MSTORE PUSH1 0x41 PUSH1 0x4 MSTORE PUSH1 0x0 REVERT JUMPDEST PUSH2 0x4D49 DUP2 PUSH1 0x8 SLOAD PUSH2 0x4731 JUMP JUMPDEST PUSH1 0x8 SSTORE PUSH1 0x40 MLOAD PUSH1 0x1 PUSH1 0x1 PUSH1 0xA0 SHL SUB DUP4 AND SWAP1 PUSH32 0x117CA0CD821ECB7EADFEA2D6927A67853908BDC351A386235215F5AB6071BFED SWAP1 DUP1 PUSH2 0x4D88 DUP6 DUP14 DUP4 PUSH2 0x516A JUMP JUMPDEST SUB SWAP1 LOG2 PUSH1 0x1 DUP1 PUSH1 0xA0 SHL SUB DUP3 AND PUSH1 0x0 MSTORE PUSH1 0xE PUSH1 0x20 MSTORE PUSH1 0x40 PUSH1 0x0 KECCAK256 PUSH1 0x40 MLOAD SWAP2 PUSH2 0x4DAE DUP4 PUSH2 0x44FE JUMP JUMPDEST PUSH1 0x2 DUP4 MSTORE TIMESTAMP PUSH4 0xFFFFFFFF AND PUSH1 0x20 DUP5 ADD MSTORE PUSH1 0x40 DUP4 ADD MSTORE PUSH1 0xFF DUP10 AND PUSH1 0x60 DUP4 ADD MSTORE PUSH1 0x0 PUSH1 0x80 DUP4 ADD MSTORE DUP1 SLOAD PUSH1 0x1 PUSH1 0x40 SHL DUP2 LT ISZERO PUSH2 0x4D28 JUMPI PUSH2 0x4DF0 SWAP2 PUSH1 0x1 DUP3 ADD DUP2 SSTORE PUSH2 0x46E4 JUMP JUMPDEST PUSH2 0x4D13 JUMPI DUP2 MLOAD DUP2 SLOAD PUSH1 0x20 DUP5 ADD MLOAD PUSH5 0xFFFFFFFFFF NOT SWAP1 SWAP2 AND PUSH1 0xFF SWAP3 DUP4 AND OR PUSH1 0x8 SWAP2 DUP3 SHL PUSH5 0xFFFFFFFF00 AND OR DUP4 SSTORE PUSH1 0x40 DUP5 ADD MLOAD PUSH1 0x1 DUP5 ADD SSTORE PUSH1 0x60 DUP5 ADD MLOAD PUSH1 0x2 SWAP4 SWAP1 SWAP4 ADD DUP1 SLOAD PUSH1 0x80 SWAP1 SWAP6 ADD MLOAD PUSH1 0x1 PUSH1 0x1 PUSH1 0xA8 SHL SUB NOT SWAP1 SWAP6 AND SWAP4 SWAP1 SWAP3 AND SWAP3 SWAP1 SWAP3 OR SWAP3 SWAP1 SWAP2 SHL PUSH2 0x100 PUSH1 0x1 PUSH1 0xA8 SHL SUB AND SWAP2 SWAP1 SWAP2 OR SWAP1 SSTORE PUSH2 0x4CE8 JUMP JUMPDEST PUSH1 0x1 SWAP2 POP ADD SLOAD PUSH2 0x4E75 DUP10 PUSH2 0x52CB JUMP JUMPDEST GT ISZERO CODESIZE PUSH2 0x4B71 JUMP JUMPDEST PUSH1 0x1 PUSH1 0x1 PUSH1 0xA0 SHL SUB SWAP2 DUP3 AND DUP10 MSTORE PUSH1 0x3 PUSH1 0x20 MSTORE PUSH1 0x40 DUP10 KECCAK256 SLOAD PUSH1 0x10 SHR SWAP1 SWAP2 AND SWAP7 SWAP1 SWAP6 POP PUSH2 0x4D0D SWAP1 PUSH2 0x5159 JUMP JUMPDEST POP SWAP3 SWAP6 POP SWAP7 SWAP6 SWAP1 SWAP4 POP PUSH32 0x8AF2C013A5A55C6D3AD5423522FE76C6F2EB831B5E23318276B3C678CB457FC9 SWAP3 DUP1 PUSH1 0x64 DUP4 DIV GT PUSH2 0x501F JUMPI JUMPDEST POP PUSH1 0x40 MLOAD PUSH1 0x1 PUSH1 0x1 PUSH1 0xA0 SHL SUB DUP7 AND SWAP5 SWAP1 SWAP3 DUP4 SWAP3 PUSH2 0x4F19 SWAP3 PUSH1 0x64 SWAP1 SWAP2 DIV SWAP2 DUP3 SWAP2 DUP3 SWAP2 PUSH12 0x30E68B6D6E0ACC828633631 PUSH1 0x25 SHL SWAP2 SWAP1 SWAP2 DIV SWAP1 DUP7 PUSH2 0x48D7 JUMP JUMPDEST SUB SWAP1 LOG2 PUSH1 0x1 DUP1 PUSH1 0xA0 SHL SUB AND PUSH1 0x0 MSTORE PUSH1 0xE PUSH1 0x20 MSTORE PUSH1 0x40 PUSH1 0x0 KECCAK256 PUSH1 0x40 MLOAD SWAP2 PUSH2 0x4F3E DUP4 PUSH2 0x44FE JUMP JUMPDEST PUSH1 0x0 DUP4 MSTORE PUSH1 0x20 DUP4 ADD PUSH4 0xFFFFFFFF TIMESTAMP AND DUP2 MSTORE PUSH1 0x40 DUP5 ADD SWAP1 PUSH9 0x70C1CC73B00C80000 DUP3 MSTORE PUSH1 0x60 DUP6 ADD SWAP5 PUSH1 0x0 DUP7 MSTORE PUSH1 0x80 DUP2 ADD SWAP5 PUSH1 0x0 DUP7 MSTORE DUP1 SLOAD SWAP1 PUSH1 0x1 PUSH1 0x40 SHL DUP3 LT ISZERO PUSH2 0x500A JUMPI SWAP1 PUSH2 0x4F91 SWAP2 PUSH1 0x1 DUP3 ADD DUP2 SSTORE PUSH2 0x46E4 JUMP JUMPDEST SWAP5 SWAP1 SWAP5 PUSH2 0x4FF6 JUMPI POP MLOAD DUP4 SLOAD SWAP2 MLOAD PUSH5 0xFFFFFFFFFF NOT SWAP1 SWAP3 AND PUSH1 0xFF SWAP2 DUP3 AND OR PUSH1 0x8 SWAP3 DUP4 SHL PUSH5 0xFFFFFFFF00 AND OR DUP5 SSTORE SWAP2 MLOAD PUSH1 0x1 DUP5 ADD SSTORE SWAP4 MLOAD PUSH1 0x2 SWAP1 SWAP3 ADD DUP1 SLOAD SWAP4 MLOAD PUSH1 0x1 PUSH1 0x1 PUSH1 0xA8 SHL SUB NOT SWAP1 SWAP5 AND SWAP3 SWAP1 SWAP2 AND SWAP2 SWAP1 SWAP2 OR SWAP2 SWAP1 SWAP3 SHL PUSH2 0x100 PUSH1 0x1 PUSH1 0xA8 SHL SUB AND OR SWAP1 SSTORE JUMP JUMPDEST PUSH4 0x4E487B71 PUSH1 0xE0 SHL PUSH1 0x0 MSTORE PUSH1 0x0 PUSH1 0x4 MSTORE PUSH1 0x0 REVERT JUMPDEST DUP6 PUSH4 0x4E487B71 PUSH1 0xE0 SHL PUSH1 0x0 MSTORE PUSH1 0x41 PUSH1 0x4 MSTORE PUSH1 0x0 REVERT JUMPDEST PUSH2 0x1821 PUSH2 0x502F SWAP2 PUSH1 0x64 DUP5 DIV PUSH2 0x465A JUMP JUMPDEST PUSH1 0x8 SSTORE CODESIZE PUSH2 0x4EDD JUMP JUMPDEST POP PUSH1 0x1 PUSH1 0x1 PUSH1 0xA0 SHL SUB DUP2 AND ISZERO ISZERO PUSH2 0x4B18 JUMP JUMPDEST PUSH4 0x4E487B71 PUSH1 0xE0 SHL DUP6 MSTORE PUSH1 0x11 PUSH1 0x4 MSTORE DUP7 DUP6 REVERT JUMPDEST POP PUSH1 0x20 DUP3 RETURNDATASIZE PUSH1 0x20 GT PUSH2 0x5089 JUMPI JUMPDEST DUP2 PUSH2 0x5077 PUSH1 0x20 SWAP4 DUP4 PUSH2 0x452C JUMP JUMPDEST DUP2 ADD SUB SLT PUSH2 0xAB1 JUMPI PUSH2 0x4A53 SWAP2 MLOAD PUSH2 0x4A49 JUMP JUMPDEST RETURNDATASIZE SWAP2 POP PUSH2 0x506A JUMP JUMPDEST PUSH2 0x509D SWAP1 SWAP6 SWAP2 SWAP6 PUSH2 0x4519 JUMP JUMPDEST SWAP4 CODESIZE PUSH2 0x4A18 JUMP JUMPDEST SWAP1 SWAP2 POP PUSH1 0x20 DUP2 RETURNDATASIZE PUSH1 0x20 GT PUSH2 0x50D0 JUMPI JUMPDEST DUP2 PUSH2 0x50C0 PUSH1 0x20 SWAP4 DUP4 PUSH2 0x452C JUMP JUMPDEST DUP2 ADD SUB SLT PUSH2 0xA60 JUMPI MLOAD SWAP1 CODESIZE PUSH2 0x49D9 JUMP JUMPDEST RETURNDATASIZE SWAP2 POP PUSH2 0x50B3 JUMP JUMPDEST PUSH1 0x20 DUP2 RETURNDATASIZE PUSH1 0x20 GT PUSH2 0x5109 JUMPI JUMPDEST DUP2 PUSH2 0x50F1 PUSH1 0x20 SWAP4 DUP4 PUSH2 0x452C JUMP JUMPDEST DUP2 ADD SUB SLT PUSH2 0xA0D JUMPI PUSH2 0x5102 SWAP1 PUSH2 0x467D JUMP JUMPDEST POP CODESIZE PUSH2 0x49A1 JUMP JUMPDEST RETURNDATASIZE SWAP2 POP PUSH2 0x50E4 JUMP JUMPDEST PUSH4 0x4E487B71 PUSH1 0xE0 SHL DUP4 MSTORE PUSH1 0x12 PUSH1 0x4 MSTORE PUSH1 0x24 DUP4 REVERT JUMPDEST SWAP1 SWAP4 POP PUSH1 0x20 DUP2 RETURNDATASIZE PUSH1 0x20 GT PUSH2 0x5151 JUMPI JUMPDEST DUP2 PUSH2 0x5141 PUSH1 0x20 SWAP4 DUP4 PUSH2 0x452C JUMP JUMPDEST DUP2 ADD SUB SLT PUSH2 0xF4E JUMPI MLOAD SWAP3 CODESIZE PUSH2 0x4933 JUMP JUMPDEST RETURNDATASIZE SWAP2 POP PUSH2 0x5134 JUMP JUMPDEST PUSH1 0xFF AND PUSH1 0xFF DUP2 EQ PUSH2 0x4667 JUMPI PUSH1 0x1 ADD SWAP1 JUMP JUMPDEST PUSH1 0x20 SWAP1 SWAP4 SWAP3 SWAP2 SWAP4 PUSH1 0xFF PUSH1 0x40 DUP3 ADD SWAP6 AND DUP2 MSTORE ADD MSTORE JUMP JUMPDEST SWAP1 PUSH1 0xFF AND PUSH1 0x1 DUP2 EQ PUSH2 0x52B0 JUMPI PUSH1 0x2 DUP2 EQ PUSH2 0x5295 JUMPI PUSH1 0x3 DUP2 EQ PUSH2 0x527A JUMPI PUSH1 0x4 SWAP1 DUP2 DUP2 EQ PUSH2 0x5263 JUMPI PUSH1 0x5 DUP2 EQ PUSH2 0x5246 JUMPI PUSH1 0x6 DUP2 EQ PUSH2 0x5246 JUMPI PUSH1 0x7 DUP2 EQ PUSH2 0x5229 JUMPI PUSH1 0x8 DUP2 EQ PUSH2 0x5229 JUMPI PUSH1 0x9 DUP2 EQ PUSH2 0x520C JUMPI PUSH1 0xA EQ PUSH2 0x51DB JUMPI POP POP PUSH1 0x0 SWAP1 JUMP JUMPDEST DUP2 PUSH1 0x1 SHL SWAP2 DUP1 DUP4 DIV PUSH1 0x2 EQ SWAP1 ISZERO OR ISZERO PUSH2 0x51F7 JUMPI POP PUSH2 0x3E8 SWAP1 DIV SWAP1 JUMP JUMPDEST PUSH1 0x11 SWAP1 PUSH4 0x4E487B71 PUSH1 0xE0 SHL PUSH1 0x0 MSTORE MSTORE PUSH1 0x24 PUSH1 0x0 REVERT JUMPDEST POP DUP2 PUSH1 0x1 SHL SWAP2 DUP1 DUP4 DIV PUSH1 0x2 EQ SWAP1 ISZERO OR ISZERO PUSH2 0x51F7 JUMPI POP PUSH2 0x3E8 SWAP1 DIV SWAP1 JUMP JUMPDEST POP PUSH1 0x3 DUP3 MUL SWAP2 DUP1 DUP4 DIV PUSH1 0x3 EQ SWAP1 ISZERO OR ISZERO PUSH2 0x51F7 JUMPI POP PUSH2 0x3E8 SWAP1 DIV SWAP1 JUMP JUMPDEST POP PUSH1 0x5 DUP3 MUL SWAP2 DUP1 DUP4 DIV PUSH1 0x5 EQ SWAP1 ISZERO OR ISZERO PUSH2 0x51F7 JUMPI POP PUSH2 0x3E8 SWAP1 DIV SWAP1 JUMP JUMPDEST POP DUP2 DUP1 DIV PUSH1 0x1 EQ DUP3 ISZERO OR ISZERO PUSH2 0x51F7 JUMPI POP PUSH1 0x64 SWAP1 DIV SWAP1 JUMP JUMPDEST POP DUP1 PUSH1 0x1 SHL SWAP1 DUP1 DUP3 DIV PUSH1 0x2 EQ SWAP1 ISZERO OR ISZERO PUSH2 0x4667 JUMPI PUSH1 0x64 SWAP1 DIV SWAP1 JUMP JUMPDEST POP PUSH1 0x5 DUP2 MUL SWAP1 DUP1 DUP3 DIV PUSH1 0x5 EQ SWAP1 ISZERO OR ISZERO PUSH2 0x4667 JUMPI PUSH1 0x64 SWAP1 DIV SWAP1 JUMP JUMPDEST POP PUSH1 0x14 DUP2 MUL SWAP1 DUP1 DUP3 DIV PUSH1 0x14 EQ SWAP1 ISZERO OR ISZERO PUSH2 0x4667 JUMPI PUSH1 0x64 SWAP1 DIV SWAP1 JUMP JUMPDEST PUSH1 0xFF AND PUSH1 0x1 DUP2 EQ PUSH2 0x52E8 JUMPI PUSH1 0x4 LT ISZERO PUSH2 0x52E3 JUMPI PUSH1 0x5 SWAP1 JUMP JUMPDEST PUSH1 0x2 SWAP1 JUMP JUMPDEST POP PUSH1 0x0 SWAP1 JUMP JUMPDEST PUSH1 0x1 PUSH1 0x1 PUSH1 0x40 SHL SUB DUP2 GT PUSH2 0x5B1 JUMPI PUSH1 0x5 SHL PUSH1 0x20 ADD SWAP1 JUMP JUMPDEST DUP1 MLOAD DUP3 LT ISZERO PUSH2 0x44AE JUMPI PUSH1 0x20 SWAP2 PUSH1 0x5 SHL ADD ADD SWAP1 JUMP JUMPDEST DUP2 DUP1 PUSH2 0x5530 JUMPI JUMPDEST PUSH2 0x5529 JUMPI DUP2 ISZERO SWAP2 DUP3 DUP1 PUSH2 0x5504 JUMPI JUMPDEST PUSH2 0x54FC JUMPI PUSH1 0x5 SLOAD SWAP3 PUSH1 0x1 DUP1 DUP6 ADD DUP1 SWAP6 GT PUSH2 0x4667 JUMPI PUSH2 0x534B DUP6 PUSH2 0x52EE JUMP JUMPDEST SWAP1 PUSH2 0x5366 PUSH1 0x40 SWAP7 PUSH2 0x535E DUP9 MLOAD SWAP5 DUP6 PUSH2 0x452C JUMP JUMPDEST DUP1 DUP5 MSTORE PUSH2 0x52EE JUMP JUMPDEST SWAP3 PUSH1 0x20 SWAP3 DUP4 DUP2 ADD SWAP5 PUSH1 0x1F NOT ADD CALLDATASIZE DUP7 CALLDATACOPY PUSH1 0x0 DUP1 DUP8 ISZERO PUSH2 0x54DD JUMPI PUSH1 0x1 PUSH1 0x1 PUSH1 0xA0 SHL SUB DUP10 DUP2 AND DUP4 MSTORE PUSH1 0x3 DUP1 DUP9 MSTORE DUP12 DUP5 KECCAK256 ADD SLOAD AND SWAP7 JUMPDEST PUSH1 0x1 PUSH1 0x1 PUSH1 0xA0 SHL SUB SWAP8 DUP9 AND DUP1 PUSH2 0x54C9 JUMPI JUMPDEST POP POP JUMPDEST DUP2 DUP2 LT PUSH2 0x5427 JUMPI POP POP POP DUP1 PUSH2 0x540C JUMPI JUMPDEST PUSH2 0x5402 JUMPI POP DUP3 PUSH2 0x53E5 JUMPI JUMPDEST POP POP PUSH2 0x53DE JUMPI DUP2 MLOAD PUSH4 0xC5BB5BCD PUSH1 0xE0 SHL DUP2 MSTORE PUSH1 0x4 SWAP1 REVERT JUMPDEST SWAP2 PUSH1 0x0 SWAP2 POP JUMP JUMPDEST DUP2 PUSH1 0x3 SWAP3 SWAP4 POP DUP5 AND PUSH1 0x0 MSTORE MSTORE PUSH1 0x4 DUP4 PUSH1 0x0 KECCAK256 ADD SLOAD AND ISZERO CODESIZE DUP1 PUSH2 0x53C7 JUMP JUMPDEST SWAP6 SWAP5 POP POP POP POP SWAP2 SWAP1 JUMP JUMPDEST POP DUP3 DUP6 AND PUSH1 0x0 MSTORE PUSH1 0x3 DUP3 MSTORE DUP3 PUSH1 0x3 DUP8 PUSH1 0x0 KECCAK256 ADD SLOAD AND ISZERO PUSH2 0x53BC JUMP JUMPDEST DUP7 PUSH2 0x543B PUSH2 0x5434 DUP4 PUSH2 0x46A5 JUMP JUMPDEST SWAP3 DUP6 PUSH2 0x5305 JUMP JUMPDEST MLOAD AND DUP1 PUSH1 0x0 MSTORE PUSH1 0x3 DUP1 DUP9 MSTORE DUP12 PUSH1 0x0 KECCAK256 SWAP2 DUP10 DUP3 DUP5 ADD SLOAD AND DUP1 ISZERO PUSH2 0x54B6 JUMPI DUP11 PUSH1 0x4 DUP1 SWAP6 ADD SLOAD AND ISZERO PUSH2 0x54A2 JUMPI SWAP1 DUP11 SWAP4 SWAP3 SWAP2 PUSH2 0x547C PUSH2 0x5475 DUP9 PUSH2 0x46A5 JUMP JUMPDEST SWAP8 DUP10 PUSH2 0x5305 JUMP JUMPDEST MSTORE PUSH1 0x0 MSTORE DUP9 MSTORE DUP12 PUSH1 0x0 KECCAK256 ADD SLOAD AND PUSH2 0x549C PUSH2 0x5495 DUP5 PUSH2 0x46A5 JUMP JUMPDEST SWAP4 DUP6 PUSH2 0x5305 JUMP JUMPDEST MSTORE PUSH2 0x53AC JUMP JUMPDEST POP SWAP12 POP POP POP POP POP POP POP POP POP POP POP POP SWAP1 PUSH1 0x0 SWAP1 JUMP JUMPDEST POP SWAP11 POP POP POP POP POP POP POP SWAP6 SWAP5 POP POP POP POP SWAP2 SWAP1 JUMP JUMPDEST SWAP1 SWAP3 POP DUP6 SWAP3 DUP5 MLOAD ISZERO PUSH2 0x44AE JUMPI MSTORE CODESIZE DUP1 PUSH2 0x53A9 JUMP JUMPDEST PUSH1 0x1 PUSH1 0x1 PUSH1 0xA0 SHL SUB DUP10 DUP2 AND DUP4 MSTORE PUSH1 0x3 DUP8 MSTORE DUP11 DUP4 KECCAK256 PUSH1 0x4 ADD SLOAD AND SWAP7 PUSH2 0x5398 JUMP JUMPDEST POP SWAP2 PUSH1 0x0 SWAP2 POP JUMP JUMPDEST POP PUSH1 0x1 PUSH1 0x1 PUSH1 0xA0 SHL SUB DUP3 DUP2 AND PUSH1 0x0 SWAP1 DUP2 MSTORE PUSH1 0x3 PUSH1 0x20 MSTORE PUSH1 0x40 SWAP1 KECCAK256 PUSH1 0x4 ADD SLOAD AND ISZERO PUSH2 0x532E JUMP JUMPDEST SWAP2 PUSH1 0x1 SWAP2 POP JUMP JUMPDEST POP PUSH1 0x1 DUP1 PUSH1 0xA0 SHL SUB DUP1 DUP3 AND PUSH1 0x0 MSTORE PUSH1 0x3 PUSH1 0x20 MSTORE PUSH1 0x3 PUSH1 0x40 PUSH1 0x0 KECCAK256 ADD SLOAD AND ISZERO PUSH2 0x5320 JUMP JUMPDEST SWAP1 SWAP5 SWAP4 SWAP3 PUSH1 0x60 SWAP3 PUSH1 0x80 DUP4 ADD SWAP7 DUP4 MSTORE PUSH1 0x20 DUP4 ADD MSTORE PUSH1 0x40 DUP3 ADD MSTORE ADD MSTORE JUMP JUMPDEST SWAP2 SWAP1 PUSH1 0xFF SWAP1 PUSH1 0xA DUP3 DUP2 SLOAD AND PUSH2 0x59A8 JUMPI PUSH1 0x6 SWAP1 DUP2 SLOAD SWAP3 DUP4 ISZERO PUSH2 0x596F JUMPI PUSH1 0x0 SWAP1 DUP2 DUP5 SSTORE PUSH1 0x46 DUP6 MUL DUP6 DUP2 DIV PUSH1 0x46 SUB PUSH2 0x595B JUMPI PUSH1 0x64 SWAP1 DIV SWAP6 PUSH2 0x55AD DUP8 DUP8 PUSH2 0x465A JUMP JUMPDEST SWAP5 PUSH2 0x55BD PUSH1 0x9 SWAP4 DUP8 DUP6 SSTORE DUP12 PUSH2 0x4731 JUMP JUMPDEST SWAP2 PUSH1 0x4 SWAP5 DUP6 SLOAD DUP1 DUP6 GT PUSH2 0x5953 JUMPI JUMPDEST POP DUP1 SWAP12 DUP1 JUMPDEST DUP6 DUP2 LT PUSH2 0x58BE JUMPI POP DUP13 ISZERO PUSH2 0x5873 JUMPI SWAP4 SWAP5 TIMESTAMP PUSH4 0xFFFFFFFF AND SWAP5 JUMPDEST DUP7 DUP2 LT PUSH2 0x562A JUMPI POP POP POP POP POP POP POP POP SWAP5 PUSH2 0x5625 SWAP2 PUSH1 0x0 DUP1 MLOAD PUSH1 0x20 PUSH2 0x5ECB DUP4 CODECOPY DUP2 MLOAD SWAP2 MSTORE SWAP6 SWAP7 PUSH1 0x1 PUSH1 0xFF NOT DUP3 SLOAD AND OR SWAP1 SSTORE PUSH1 0x40 MLOAD SWAP5 DUP6 SWAP5 DUP6 PUSH2 0x5553 JUMP JUMPDEST SUB SWAP1 LOG1 JUMP JUMPDEST DUP3 DUP5 DUP16 DUP15 DUP13 SWAP2 PUSH2 0x5639 DUP7 PUSH2 0x4493 JUMP JUMPDEST SWAP3 SWAP1 SLOAD SWAP3 PUSH1 0x3 SWAP4 PUSH1 0x1 DUP1 PUSH1 0xA0 SHL SUB SWAP2 DUP6 SHL SHR AND SWAP1 DUP2 DUP8 MSTORE PUSH1 0x20 SWAP3 DUP5 DUP5 MSTORE DUP13 PUSH1 0x40 SWAP7 DUP12 DUP9 DUP12 KECCAK256 SWAP3 DUP4 SLOAD SWAP11 PUSH1 0x8 SWAP12 DUP13 SHR AND ISZERO PUSH2 0x585E JUMPI PUSH1 0x5 DUP5 ADD SLOAD SWAP1 DUP5 ADD SLOAD DUP1 DUP3 LT ISZERO PUSH2 0x5856 JUMPI POP SWAP4 JUMPDEST PUSH1 0x7 SWAP4 DUP5 ADD SLOAD DUP1 DUP7 GT ISZERO PUSH2 0x584E JUMPI PUSH2 0x5699 SWAP1 DUP7 PUSH2 0x465A JUMP JUMPDEST SWAP6 JUMPDEST DUP7 ISZERO PUSH2 0x5838 JUMPI DUP11 SWAP2 PUSH2 0x2694 DUP9 PUSH2 0x56B0 SWAP4 PUSH2 0x48A4 JUMP JUMPDEST SWAP12 DUP8 DUP2 MSTORE DUP10 DUP10 MSTORE DUP13 PUSH2 0x56C8 DUP14 DUP5 DUP5 KECCAK256 ADD SWAP2 DUP3 SLOAD PUSH2 0x4731 JUMP JUMPDEST SWAP1 SSTORE DUP8 DUP2 MSTORE DUP10 DUP10 MSTORE KECCAK256 ADD PUSH2 0x56DD DUP12 DUP3 SLOAD PUSH2 0x4731 JUMP JUMPDEST SWAP1 SSTORE DUP1 DUP5 MUL SWAP1 DUP5 DUP3 DIV SUB PUSH2 0x5822 JUMPI SWAP3 PUSH32 0xBEE8F46206DC051D674F6CA1E618EFE407D83B27FFBE3540B916EDFD34E428E1 SWAP3 DUP9 SWAP3 DUP4 DUP16 DUP9 SWAP8 DUP9 DUP3 MSTORE DUP12 DUP12 MSTORE PUSH2 0x572B PUSH1 0x11 DUP5 DUP5 KECCAK256 ADD SWAP2 DUP3 SLOAD PUSH2 0x4731 JUMP JUMPDEST SWAP1 SSTORE DUP8 DUP2 MSTORE DUP11 DUP11 MSTORE KECCAK256 ADD SSTORE DUP2 MLOAD SWAP1 DUP2 MSTORE DUP10 DUP7 DUP3 ADD MSTORE LOG2 DUP9 MSTORE PUSH1 0xE DUP2 MSTORE DUP3 DUP9 KECCAK256 SWAP1 DUP4 MLOAD SWAP3 PUSH2 0x5757 DUP5 PUSH2 0x44FE JUMP JUMPDEST DUP4 MSTORE DUP3 ADD SWAP3 DUP12 DUP5 MSTORE DUP3 ADD SWAP5 DUP6 MSTORE PUSH1 0x60 DUP3 ADD SWAP5 DUP9 DUP7 MSTORE PUSH1 0x80 DUP4 ADD SWAP4 DUP10 DUP6 MSTORE DUP3 SLOAD PUSH1 0x1 PUSH1 0x40 SHL DUP2 LT ISZERO PUSH2 0x580E JUMPI PUSH2 0x5793 SWAP1 PUSH1 0x1 SWAP5 DUP6 DUP3 ADD DUP2 SSTORE PUSH2 0x46E4 JUMP JUMPDEST SWAP5 SWAP1 SWAP5 PUSH2 0x57FB JUMPI MLOAD DUP5 SLOAD SWAP2 MLOAD PUSH5 0xFFFFFFFFFF NOT SWAP1 SWAP3 AND SWAP1 DUP13 AND OR SWAP1 DUP7 SHL PUSH5 0xFFFFFFFF00 AND OR DUP4 SSTORE MLOAD SWAP1 DUP3 ADD SSTORE SWAP3 MLOAD PUSH1 0x2 SWAP4 SWAP1 SWAP4 ADD DUP1 SLOAD SWAP2 MLOAD PUSH1 0x1 PUSH1 0x1 PUSH1 0xA8 SHL SUB NOT SWAP1 SWAP3 AND SWAP4 DUP9 AND SWAP4 SWAP1 SWAP4 OR SWAP2 SHL PUSH2 0x100 PUSH1 0x1 PUSH1 0xA8 SHL SUB AND OR SWAP1 SSTORE PUSH2 0x57F6 SWAP1 PUSH2 0x46A5 JUMP JUMPDEST PUSH2 0x55E9 JUMP JUMPDEST DUP16 DUP12 DUP1 PUSH1 0x24 SWAP3 PUSH4 0x4E487B71 PUSH1 0xE0 SHL DUP3 MSTORE MSTORE REVERT JUMPDEST DUP16 DUP12 PUSH1 0x41 PUSH1 0x24 SWAP3 PUSH4 0x4E487B71 PUSH1 0xE0 SHL DUP4 MSTORE MSTORE REVERT JUMPDEST POP POP DUP16 DUP12 PUSH1 0x11 PUSH1 0x24 SWAP3 PUSH4 0x4E487B71 PUSH1 0xE0 SHL DUP4 MSTORE MSTORE REVERT JUMPDEST POP POP POP POP POP POP POP POP POP POP POP POP POP PUSH2 0x57F6 SWAP1 PUSH2 0x46A5 JUMP JUMPDEST POP DUP12 SWAP6 PUSH2 0x569B JUMP JUMPDEST SWAP1 POP SWAP4 PUSH2 0x5681 JUMP JUMPDEST POP POP POP POP POP POP POP POP POP POP POP POP PUSH2 0x57F6 SWAP1 PUSH2 0x46A5 JUMP JUMPDEST POP SWAP7 SWAP2 POP POP PUSH1 0x0 DUP1 MLOAD PUSH1 0x20 PUSH2 0x5ECB DUP4 CODECOPY DUP2 MLOAD SWAP2 MSTORE SWAP9 SWAP10 POP DUP6 SWAP5 POP PUSH2 0x58A0 SWAP3 SWAP4 POP PUSH2 0x1821 SWAP2 POP PUSH1 0x80 SWAP8 PUSH2 0x4731 JUMP JUMPDEST PUSH1 0x8 SSTORE SSTORE PUSH1 0x40 MLOAD SWAP2 DUP3 MSTORE DUP1 PUSH1 0x20 DUP4 ADD MSTORE DUP1 PUSH1 0x40 DUP4 ADD MSTORE PUSH1 0x60 DUP3 ADD MSTORE LOG1 JUMP JUMPDEST PUSH2 0x58C7 DUP2 PUSH2 0x4493 JUMP JUMPDEST SWAP1 SLOAD PUSH1 0x3 SWAP2 DUP3 SHL SHR PUSH1 0x1 PUSH1 0x1 PUSH1 0xA0 SHL SUB AND DUP5 MSTORE PUSH1 0x20 MSTORE PUSH1 0x40 DUP4 KECCAK256 DUP1 SLOAD PUSH1 0x8 SHR DUP6 AND ISZERO PUSH2 0x5949 JUMPI PUSH1 0x7 PUSH1 0x5 DUP3 ADD SLOAD DUP8 DUP4 ADD SLOAD DUP1 DUP3 LT PUSH1 0x0 EQ PUSH2 0x5941 JUMPI POP SWAP2 JUMPDEST ADD SLOAD SWAP1 DUP2 DUP2 GT PUSH2 0x5920 JUMPI JUMPDEST POP POP PUSH2 0x591B SWAP1 PUSH2 0x46A5 JUMP JUMPDEST PUSH2 0x55D0 JUMP JUMPDEST SWAP15 PUSH2 0x591B SWAP3 SWAP16 PUSH2 0x5939 SWAP3 PUSH2 0x5933 SWAP2 PUSH2 0x465A JUMP JUMPDEST SWAP1 PUSH2 0x4731 JUMP JUMPDEST SWAP14 SWAP1 CODESIZE PUSH2 0x5910 JUMP JUMPDEST SWAP1 POP SWAP2 PUSH2 0x5905 JUMP JUMPDEST POP PUSH2 0x591B SWAP1 PUSH2 0x46A5 JUMP JUMPDEST SWAP4 POP CODESIZE PUSH2 0x55CB JUMP JUMPDEST PUSH4 0x4E487B71 PUSH1 0xE0 SHL DUP4 MSTORE PUSH1 0x11 PUSH1 0x4 MSTORE PUSH1 0x24 DUP4 REVERT JUMPDEST PUSH1 0x40 MLOAD PUSH3 0x461BCD PUSH1 0xE5 SHL DUP2 MSTORE PUSH1 0x20 PUSH1 0x4 DUP3 ADD MSTORE PUSH1 0x11 PUSH1 0x24 DUP3 ADD MSTORE PUSH17 0x115B5C1D1E48189A5B985C9E481C1BDBDB PUSH1 0x7A SHL PUSH1 0x44 DUP3 ADD MSTORE PUSH1 0x64 SWAP1 REVERT JUMPDEST PUSH1 0x40 MLOAD PUSH3 0xC94879 PUSH1 0xE4 SHL DUP2 MSTORE PUSH1 0x4 SWAP1 REVERT JUMPDEST ISZERO PUSH2 0x59C0 JUMPI JUMP JUMPDEST PUSH1 0x40 MLOAD PUSH3 0x461BCD PUSH1 0xE5 SHL DUP2 MSTORE PUSH1 0x20 PUSH1 0x4 DUP3 ADD MSTORE PUSH1 0xE PUSH1 0x24 DUP3 ADD MSTORE PUSH14 0x139BDD081C9959DA5CDD195C9959 PUSH1 0x92 SHL PUSH1 0x44 DUP3 ADD MSTORE PUSH1 0x64 SWAP1 REVERT JUMPDEST ISZERO PUSH2 0x59FD JUMPI JUMP JUMPDEST PUSH1 0x40 MLOAD PUSH3 0x461BCD PUSH1 0xE5 SHL DUP2 MSTORE PUSH1 0x20 PUSH1 0x4 DUP3 ADD MSTORE PUSH1 0x14 PUSH1 0x24 DUP3 ADD MSTORE PUSH20 0x1554D115081D1C985B9CD9995C8819985A5B1959 PUSH1 0x62 SHL PUSH1 0x44 DUP3 ADD MSTORE PUSH1 0x64 SWAP1 REVERT JUMPDEST SWAP1 PUSH1 0x5 DUP2 LT ISZERO PUSH2 0x44AE JUMPI PUSH1 0x5 SHL ADD SWAP1 JUMP JUMPDEST DUP1 SLOAD DUP3 LT ISZERO PUSH2 0x44AE JUMPI PUSH1 0x0 MSTORE PUSH1 0x5 PUSH1 0x20 PUSH1 0x0 KECCAK256 SWAP2 MUL ADD SWAP1 PUSH1 0x0 SWAP1 JUMP JUMPDEST ISZERO PUSH2 0x5A6D JUMPI JUMP JUMPDEST PUSH1 0x40 MLOAD PUSH3 0x461BCD PUSH1 0xE5 SHL DUP2 MSTORE PUSH1 0x20 PUSH1 0x4 DUP3 ADD MSTORE PUSH1 0xD PUSH1 0x24 DUP3 ADD MSTORE PUSH13 0x92DCECC2D8D2C840D2DCC8CAF PUSH1 0x9B SHL PUSH1 0x44 DUP3 ADD MSTORE PUSH1 0x64 SWAP1 REVERT JUMPDEST ISZERO PUSH2 0x5AA9 JUMPI JUMP JUMPDEST PUSH1 0x40 MLOAD PUSH3 0x461BCD PUSH1 0xE5 SHL DUP2 MSTORE PUSH1 0x20 PUSH1 0x4 DUP3 ADD MSTORE PUSH1 0x10 PUSH1 0x24 DUP3 ADD MSTORE PUSH16 0x105B1C9958591E481D5B9CDD185AD959 PUSH1 0x82 SHL PUSH1 0x44 DUP3 ADD MSTORE PUSH1 0x64 SWAP1 REVERT JUMPDEST PUSH1 0x2 SLOAD PUSH1 0x1 PUSH1 0x1 PUSH1 0xA0 SHL SUB AND SWAP1 DUP2 ISZERO PUSH2 0x5B5D JUMPI PUSH1 0x20 SWAP1 PUSH1 0x24 PUSH1 0x40 MLOAD DUP1 SWAP5 DUP2 SWAP4 PUSH4 0x47CD5191 PUSH1 0xE0 SHL DUP4 MSTORE PUSH1 0x4 DUP4 ADD MSTORE GAS STATICCALL SWAP1 DUP2 ISZERO PUSH2 0x5B51 JUMPI PUSH1 0x0 SWAP2 PUSH2 0x5B23 JUMPI POP SWAP1 JUMP JUMPDEST SWAP1 PUSH1 0x20 DUP3 RETURNDATASIZE DUP3 GT PUSH2 0x5B49 JUMPI JUMPDEST DUP2 PUSH2 0x5B3C PUSH1 0x20 SWAP4 DUP4 PUSH2 0x452C JUMP JUMPDEST DUP2 ADD SUB SLT PUSH2 0x311 JUMPI POP MLOAD SWAP1 JUMP JUMPDEST RETURNDATASIZE SWAP2 POP PUSH2 0x5B2F JUMP JUMPDEST PUSH1 0x40 MLOAD RETURNDATASIZE PUSH1 0x0 DUP3 RETURNDATACOPY RETURNDATASIZE SWAP1 REVERT JUMPDEST POP POP PUSH1 0x0 SWAP1 JUMP JUMPDEST PUSH1 0x2 SLOAD PUSH1 0x1 PUSH1 0x1 PUSH1 0xA0 SHL SUB AND SWAP1 DUP2 ISZERO PUSH2 0x5B5D JUMPI PUSH1 0x20 SWAP1 PUSH1 0x24 PUSH1 0x40 MLOAD DUP1 SWAP5 DUP2 SWAP4 PUSH4 0x75B1F0E1 PUSH1 0xE1 SHL DUP4 MSTORE PUSH1 0x4 DUP4 ADD MSTORE GAS STATICCALL SWAP1 DUP2 ISZERO PUSH2 0x5B51 JUMPI PUSH1 0x0 SWAP2 PUSH2 0x5B23 JUMPI POP SWAP1 JUMP JUMPDEST PUSH1 0x2 SLOAD PUSH1 0x1 PUSH1 0x1 PUSH1 0xA0 SHL SUB AND SWAP1 DUP2 ISZERO PUSH2 0x5B5D JUMPI PUSH1 0x20 SWAP1 PUSH1 0x24 PUSH1 0x40 MLOAD DUP1 SWAP5 DUP2 SWAP4 PUSH4 0x1D613961 PUSH1 0xE1 SHL DUP4 MSTORE PUSH1 0x4 DUP4 ADD MSTORE GAS STATICCALL SWAP1 DUP2 ISZERO PUSH2 0x5B51 JUMPI PUSH1 0x0 SWAP2 PUSH2 0x5B23 JUMPI POP SWAP1 JUMP JUMPDEST PUSH1 0x2 SLOAD PUSH1 0x1 PUSH1 0x1 PUSH1 0xA0 SHL SUB SWAP1 DUP2 AND SWAP2 DUP3 ISZERO PUSH2 0x5C93 JUMPI AND PUSH1 0x24 PUSH1 0x0 DUP3 DUP2 MSTORE PUSH1 0x20 PUSH1 0x3 DUP2 MSTORE DUP1 PUSH1 0xF PUSH1 0x40 DUP5 KECCAK256 ADD SLOAD SWAP6 PUSH1 0x40 MLOAD SWAP5 DUP6 DUP1 SWAP3 PUSH4 0x47CD5191 PUSH1 0xE0 SHL DUP3 MSTORE PUSH1 0x1 PUSH1 0x4 DUP4 ADD MSTORE GAS STATICCALL SWAP3 DUP4 ISZERO PUSH2 0xA11 JUMPI DUP3 SWAP4 PUSH2 0x5C63 JUMPI JUMPDEST POP PUSH1 0xFF SWAP2 PUSH1 0x3 PUSH1 0x40 SWAP3 DUP6 SWAP7 DUP4 MSTORE MSTORE KECCAK256 SLOAD PUSH1 0x8 SHR AND SWAP1 DUP2 PUSH2 0x5C5B JUMPI POP SWAP3 JUMP JUMPDEST SWAP1 POP DUP3 LT ISZERO SWAP3 JUMP JUMPDEST SWAP1 DUP1 SWAP4 POP DUP2 DUP2 RETURNDATASIZE DUP4 GT PUSH2 0x5C8C JUMPI JUMPDEST PUSH2 0x5C7B DUP2 DUP4 PUSH2 0x452C JUMP JUMPDEST DUP2 ADD SUB SLT PUSH2 0xA1C JUMPI MLOAD SWAP2 PUSH1 0xFF PUSH2 0x5C3D JUMP JUMPDEST POP RETURNDATASIZE PUSH2 0x5C71 JUMP JUMPDEST POP POP POP PUSH1 0x0 SWAP1 PUSH1 0x0 SWAP1 PUSH1 0x0 SWAP1 JUMP JUMPDEST SWAP3 SWAP1 PUSH1 0x1 DUP1 PUSH1 0xA0 SHL SUB DUP1 PUSH1 0x0 SWAP6 AND DUP6 MSTORE PUSH1 0x20 SWAP1 PUSH1 0xE DUP3 MSTORE PUSH1 0x40 SWAP1 DUP2 DUP8 KECCAK256 SWAP3 DUP4 SLOAD SWAP7 DUP8 ISZERO DUP1 ISZERO PUSH2 0x5E2E JUMPI JUMPDEST PUSH2 0x5DF2 JUMPI PUSH2 0x5CD9 DUP7 DUP10 PUSH2 0x465A JUMP JUMPDEST DUP1 DUP3 LT ISZERO PUSH2 0x5DEA JUMPI POP SWAP4 JUMPDEST PUSH2 0x5CED DUP6 PUSH2 0x52EE JUMP JUMPDEST SWAP6 PUSH2 0x5CFA DUP6 MLOAD SWAP8 DUP9 PUSH2 0x452C JUMP JUMPDEST DUP6 DUP8 MSTORE PUSH1 0x1F NOT PUSH2 0x5D09 DUP8 PUSH2 0x52EE JUMP JUMPDEST ADD DUP4 DUP12 JUMPDEST DUP3 DUP2 LT PUSH2 0x5DB8 JUMPI POP POP POP DUP7 SWAP10 DUP1 JUMPDEST DUP8 DUP2 LT PUSH2 0x5D2D JUMPI POP POP POP POP POP POP POP POP POP JUMP JUMPDEST PUSH1 0x0 NOT DUP12 ADD DUP12 DUP2 GT PUSH2 0x595B JUMPI SWAP1 PUSH2 0x5D54 PUSH2 0x5D4E DUP3 PUSH2 0x1837 DUP8 PUSH2 0x5DB3 SWAP7 PUSH2 0x465A JUMP JUMPDEST DUP7 PUSH2 0x46E4 JUMP JUMPDEST POP DUP8 DUP10 MLOAD SWAP2 PUSH2 0x5D62 DUP4 PUSH2 0x44FE JUMP JUMPDEST DUP1 SLOAD PUSH1 0x2 PUSH1 0xFF SWAP3 DUP4 DUP4 AND DUP7 MSTORE PUSH4 0xFFFFFFFF PUSH1 0x8 SWAP4 DUP5 SHR AND DUP13 DUP8 ADD MSTORE DUP14 PUSH1 0x1 DUP3 ADD SLOAD SWAP1 DUP8 ADD MSTORE ADD SLOAD SWAP2 DUP3 AND PUSH1 0x60 DUP6 ADD MSTORE SHR AND PUSH1 0x80 DUP3 ADD MSTORE PUSH2 0x5DA2 DUP3 DUP13 PUSH2 0x5305 JUMP JUMPDEST MSTORE PUSH2 0x5DAD DUP2 DUP12 PUSH2 0x5305 JUMP JUMPDEST POP PUSH2 0x46A5 JUMP JUMPDEST PUSH2 0x5D1B JUMP JUMPDEST DUP8 MLOAD PUSH2 0x5DC3 DUP2 PUSH2 0x44FE JUMP JUMPDEST DUP14 DUP2 MSTORE DUP14 DUP4 DUP3 ADD MSTORE DUP14 DUP10 DUP3 ADD MSTORE DUP14 PUSH1 0x60 DUP3 ADD MSTORE DUP14 PUSH1 0x80 DUP3 ADD MSTORE DUP3 DUP3 DUP13 ADD ADD MSTORE ADD DUP5 SWAP1 PUSH2 0x5D0D JUMP JUMPDEST SWAP1 POP SWAP4 PUSH2 0x5CE4 JUMP JUMPDEST POP DUP3 MLOAD SWAP7 SWAP8 SWAP6 SWAP7 SWAP6 SWAP5 POP DUP6 ADD SWAP3 POP POP PUSH1 0x1 PUSH1 0x1 PUSH1 0x40 SHL SUB DUP3 GT DUP5 DUP4 LT OR PUSH2 0x5E1A JUMPI MSTORE DUP2 MSTORE SWAP2 SWAP1 JUMP JUMPDEST PUSH4 0x4E487B71 PUSH1 0xE0 SHL DUP4 MSTORE PUSH1 0x41 PUSH1 0x4 MSTORE PUSH1 0x24 DUP4 REVERT JUMPDEST POP DUP8 DUP7 LT ISZERO PUSH2 0x5CCB JUMP JUMPDEST SWAP1 PUSH2 0x5E42 DUP3 PUSH2 0x52EE JUMP JUMPDEST PUSH2 0x5E4F PUSH1 0x40 MLOAD SWAP2 DUP3 PUSH2 0x452C JUMP JUMPDEST DUP3 DUP2 MSTORE DUP1 SWAP3 PUSH2 0x5E60 PUSH1 0x1F NOT SWAP2 PUSH2 0x52EE JUMP JUMPDEST ADD SWAP1 PUSH1 0x20 CALLDATASIZE SWAP2 ADD CALLDATACOPY JUMP INVALID CALLVALUE SELFDESTRUCT CALLDATACOPY DUP8 0x4D PUSH21 0x43037A85C6F390FE14F2AE3E8767355DE0E63891AD NUMBER PUSH8 0xC275398BE0079C53 AND MSIZE EQ SGT PREVRANDAO 0xCD 0x1F 0xD0 LOG4 CALLCODE DUP5 NOT 0x49 PUSH32 0x9722A3DAAFE3B4186F6B6457E0DCFD2B4017D03F7E541021DB793B2F9B31E4AC 0xDE 0xE0 SDIV 0xF7 DUP10 0xE5 0x28 MSTORE8 0xC3 SWAP1 0xE3 0xE9 PUSH3 0xA0EA57 SDIV KECCAK256 0xC SWAP16 REVERT CALLDATASIZE 0xDC PUSH20 0x5FEF1592C3234BB7E311FC1B0A444F6370D0620E 0xAE SWAP12 PUSH24 0x9B17422D0DF92223018B32B4D1FA46E071723D6817E2486D STOP EXTCODESIZE 0xEC 0xC5 PUSH0 STOP LOG2 PUSH5 0x6970667358 0x22 SLT KECCAK256 0xD0 PUSH12 0xB09EF0C4946AAAA94E9F60BF GASPRICE CALLVALUE REVERT 0xE8 DUP11 0xD2 0xE6 0xB8 0x4E DUP6 0x2B NUMBER 0xE8 EXTCODEHASH SWAP11 SELFBALANCE GAS PUSH17 0x64736F6C63430008140033000000000000 "},"methodIdentifiers":{"ADMIN_ALLOC()":"be648bdb","BINARY_ALLOC()":"44e374d5","BTC_POOL_RATE()":"92446e30","FLEX_CAP_MULT()":"3ccb13d3","INCOME_LIMIT()":"aa393757","LEVEL_ALLOC()":"77537844","LOCK_DURATION()":"485d3834","MIN_STAKE_USDT()":"8431fdd7","PACKAGE_PRICE()":"039ccc26","activate()":"0f15f4c0","adminPool()":"b86a1fb2","allUsers(uint256)":"a2bdedf4","binaryPool()":"7f1b4064","boardEntryCount(address)":"f00b0093","boardHandler()":"c9d484cf","canEnterBoard(address)":"9499a351","canRebirth(address)":"e51cb530","convertToLocked(uint256)":"4b3f0d45","creditBoardReward(address,uint256,uint256)":"f0b7b9dc","distributeBinaryIncome(uint256,uint256)":"2d641f08","distributePowerLeg(uint256,uint256)":"8a8f0429","enterBoardPool()":"e4093a66","getActiveStakes(address)":"1747e0b0","getAllUsersCount()":"38abfc41","getBoardCurrentIndex(uint256)":"3ac272c2","getBoardMatrixInfo(uint256,uint256)":"d4a90286","getBoardPrice(uint256)":"47cd5191","getBoardQueueLength(uint256)":"eb63e1c2","getBtcPoolInfo(address)":"03c3ecb7","getCurrentBinaryPairs(address)":"f24c536a","getLockDuration()":"e239c400","getMvtContractBalance()":"ce8292f5","getMvtPrice()":"68ddb2b5","getPoolBalances()":"52375bb1","getProfile(address)":"0f53a470","getStake(address,uint256)":"cfd47663","getStakeCount(address)":"cf57ee69","getTransactions(address,uint256,uint256)":"7435f421","getUserBoardStats(address)":"fb72ca35","getUserInfo(address)":"6386c1c7","mvaultToken()":"1f6259d5","owner()":"8da5cb5b","rebirth(address,bool)":"94915dd0","register(address,address,bool)":"aa33f5d5","registerAndActivateFor(address,address,bool)":"e0e01011","renounceOwnership()":"715018a6","reservePool()":"0266f044","sellMvt(uint256)":"634f627e","setBoardHandler(address)":"e3ba9bda","setMvaultToken(address)":"1ce5e894","setProfile(string,string,string,string)":"55509c8f","stake(uint256,bool)":"abe50f19","totalBoardRewardsEarned(address)":"2335821b","totalUsers()":"bff1f9e1","transferOwnership(address)":"f2fde38b","unstake(uint256)":"2e17de78","usdtToken()":"a98ad46c","users(address)":"a87430ba","withdrawAdminPool(address,uint256)":"2808bc8d","withdrawBtcPool(uint256)":"b58e0278","withdrawReservePool(address,uint256)":"ec50324a","withdrawUsdt(uint256)":"d3635a02"}}}}}