{"contracts/MvaultContract.sol":{"MvaultContract":{"abi":[{"inputs":[{"internalType":"address","name":"_usdt","type":"address"},{"internalType":"address","name":"_mvaultToken","type":"address"}],"stateMutability":"nonpayable","type":"constructor"},{"inputs":[],"name":"AlreadyActive","type":"error"},{"inputs":[],"name":"AlreadyRegistered","type":"error"},{"inputs":[],"name":"BinaryAlreadyDistributed","type":"error"},{"inputs":[],"name":"BinaryNotDistributed","type":"error"},{"inputs":[],"name":"InsufficientBtcPool","type":"error"},{"inputs":[],"name":"InsufficientRebirthPool","type":"error"},{"inputs":[],"name":"InsufficientUsdtBalance","type":"error"},{"inputs":[],"name":"InsufficientVirtualBalance","type":"error"},{"inputs":[],"name":"InvalidSponsor","type":"error"},{"inputs":[],"name":"NoOpenBinarySlot","type":"error"},{"inputs":[],"name":"NotRegistered","type":"error"},{"inputs":[{"internalType":"address","name":"owner","type":"address"}],"name":"OwnableInvalidOwner","type":"error"},{"inputs":[{"internalType":"address","name":"account","type":"address"}],"name":"OwnableUnauthorizedAccount","type":"error"},{"inputs":[],"name":"PositionTaken","type":"error"},{"inputs":[],"name":"ReentrancyGuardReentrantCall","type":"error"},{"inputs":[],"name":"TransferFailed","type":"error"},{"inputs":[],"name":"ZeroAddress","type":"error"},{"inputs":[],"name":"ZeroAmount","type":"error"},{"anonymous":false,"inputs":[{"indexed":true,"internalType":"address","name":"user","type":"address"},{"indexed":false,"internalType":"uint256","name":"mvtMinted","type":"uint256"},{"indexed":false,"internalType":"uint256","name":"grossMvt","type":"uint256"},{"indexed":false,"internalType":"uint256","name":"levelAmt","type":"uint256"},{"indexed":false,"internalType":"uint256","name":"binaryAmt","type":"uint256"},{"indexed":false,"internalType":"uint256","name":"reserveAmt","type":"uint256"}],"name":"Activated","type":"event"},{"anonymous":false,"inputs":[{"indexed":true,"internalType":"address","name":"to","type":"address"},{"indexed":false,"internalType":"uint256","name":"amount","type":"uint256"}],"name":"AdminWithdraw","type":"event"},{"anonymous":false,"inputs":[{"indexed":false,"internalType":"uint256","name":"totalPool","type":"uint256"},{"indexed":false,"internalType":"uint256","name":"binary70","type":"uint256"},{"indexed":false,"internalType":"uint256","name":"powerLeg30","type":"uint256"},{"indexed":false,"internalType":"uint256","name":"totalPairs","type":"uint256"}],"name":"BinaryIncomeDistributed","type":"event"},{"anonymous":false,"inputs":[{"indexed":true,"internalType":"address","name":"user","type":"address"},{"indexed":false,"internalType":"uint256","name":"amount","type":"uint256"}],"name":"BtcPoolCredited","type":"event"},{"anonymous":false,"inputs":[{"indexed":true,"internalType":"address","name":"user","type":"address"},{"indexed":false,"internalType":"uint256","name":"amount","type":"uint256"}],"name":"BtcPoolWithdrawn","type":"event"},{"anonymous":false,"inputs":[{"indexed":true,"internalType":"address","name":"to","type":"address"},{"indexed":true,"internalType":"address","name":"from","type":"address"},{"indexed":false,"internalType":"uint8","name":"level","type":"uint8"},{"indexed":false,"internalType":"uint256","name":"amount","type":"uint256"}],"name":"LevelIncomePaid","type":"event"},{"anonymous":false,"inputs":[{"indexed":true,"internalType":"address","name":"upline","type":"address"},{"indexed":false,"internalType":"uint8","name":"level","type":"uint8"},{"indexed":false,"internalType":"uint256","name":"amount","type":"uint256"}],"name":"LevelIncomeSkipped","type":"event"},{"anonymous":false,"inputs":[{"indexed":false,"internalType":"address","name":"newToken","type":"address"}],"name":"MvaultTokenUpdated","type":"event"},{"anonymous":false,"inputs":[{"indexed":true,"internalType":"address","name":"user","type":"address"},{"indexed":false,"internalType":"uint256","name":"mvtAmount","type":"uint256"},{"indexed":false,"internalType":"uint256","name":"usdtNet","type":"uint256"},{"indexed":false,"internalType":"uint256","name":"usdtToBtcPool","type":"uint256"},{"indexed":false,"internalType":"uint256","name":"usdtToIncome","type":"uint256"},{"indexed":false,"internalType":"uint256","name":"usdtToRebirth","type":"uint256"}],"name":"MvtSold","type":"event"},{"anonymous":false,"inputs":[{"indexed":true,"internalType":"address","name":"previousOwner","type":"address"},{"indexed":true,"internalType":"address","name":"newOwner","type":"address"}],"name":"OwnershipTransferred","type":"event"},{"anonymous":false,"inputs":[{"indexed":false,"internalType":"uint256","name":"totalPowerLeg30","type":"uint256"},{"indexed":false,"internalType":"uint256","name":"totalPowerLegs","type":"uint256"}],"name":"PowerLegDistributed","type":"event"},{"anonymous":false,"inputs":[{"indexed":true,"internalType":"address","name":"user","type":"address"}],"name":"ProfileUpdated","type":"event"},{"anonymous":false,"inputs":[{"indexed":true,"internalType":"address","name":"mainAccount","type":"address"},{"indexed":true,"internalType":"address","name":"subAccount","type":"address"},{"indexed":false,"internalType":"uint256","name":"rebirthIndex","type":"uint256"}],"name":"Reborn","type":"event"},{"anonymous":false,"inputs":[{"indexed":true,"internalType":"address","name":"user","type":"address"},{"indexed":true,"internalType":"address","name":"sponsor","type":"address"},{"indexed":true,"internalType":"address","name":"binaryParent","type":"address"},{"indexed":false,"internalType":"bool","name":"placeLeft","type":"bool"}],"name":"Registered","type":"event"},{"anonymous":false,"inputs":[{"indexed":true,"internalType":"address","name":"to","type":"address"},{"indexed":false,"internalType":"uint256","name":"amount","type":"uint256"}],"name":"ReserveWithdraw","type":"event"},{"anonymous":false,"inputs":[{"indexed":true,"internalType":"address","name":"user","type":"address"},{"indexed":false,"internalType":"uint256","name":"amount","type":"uint256"}],"name":"UsdtWithdrawn","type":"event"},{"inputs":[],"name":"BINARY_ALLOC","outputs":[{"internalType":"uint256","name":"","type":"uint256"}],"stateMutability":"view","type":"function"},{"inputs":[],"name":"BTC_POOL_RATE","outputs":[{"internalType":"uint256","name":"","type":"uint256"}],"stateMutability":"view","type":"function"},{"inputs":[],"name":"INCOME_LIMIT","outputs":[{"internalType":"uint256","name":"","type":"uint256"}],"stateMutability":"view","type":"function"},{"inputs":[],"name":"LEVEL_ALLOC","outputs":[{"internalType":"uint256","name":"","type":"uint256"}],"stateMutability":"view","type":"function"},{"inputs":[],"name":"PACKAGE_PRICE","outputs":[{"internalType":"uint256","name":"","type":"uint256"}],"stateMutability":"view","type":"function"},{"inputs":[],"name":"activate","outputs":[],"stateMutability":"nonpayable","type":"function"},{"inputs":[],"name":"adminPool","outputs":[{"internalType":"uint256","name":"","type":"uint256"}],"stateMutability":"view","type":"function"},{"inputs":[{"internalType":"uint256","name":"","type":"uint256"}],"name":"allUsers","outputs":[{"internalType":"address","name":"","type":"address"}],"stateMutability":"view","type":"function"},{"inputs":[],"name":"binaryPool","outputs":[{"internalType":"uint256","name":"","type":"uint256"}],"stateMutability":"view","type":"function"},{"inputs":[{"internalType":"address","name":"user","type":"address"}],"name":"canRebirth","outputs":[{"internalType":"bool","name":"eligible","type":"bool"},{"internalType":"uint256","name":"poolBalance","type":"uint256"}],"stateMutability":"view","type":"function"},{"inputs":[{"internalType":"uint256","name":"offset","type":"uint256"},{"internalType":"uint256","name":"limit","type":"uint256"}],"name":"distributeBinaryIncome","outputs":[],"stateMutability":"nonpayable","type":"function"},{"inputs":[{"internalType":"uint256","name":"offset","type":"uint256"},{"internalType":"uint256","name":"limit","type":"uint256"}],"name":"distributePowerLeg","outputs":[],"stateMutability":"nonpayable","type":"function"},{"inputs":[],"name":"getAllUsersCount","outputs":[{"internalType":"uint256","name":"","type":"uint256"}],"stateMutability":"view","type":"function"},{"inputs":[{"internalType":"address","name":"u","type":"address"}],"name":"getBtcPoolInfo","outputs":[{"internalType":"uint256","name":"btcPoolBalance","type":"uint256"},{"internalType":"uint256","name":"totalBtcEarned","type":"uint256"}],"stateMutability":"view","type":"function"},{"inputs":[{"internalType":"address","name":"u","type":"address"}],"name":"getCurrentBinaryPairs","outputs":[{"internalType":"uint256","name":"currentPairs","type":"uint256"},{"internalType":"uint256","name":"newPairs","type":"uint256"}],"stateMutability":"view","type":"function"},{"inputs":[],"name":"getMvtContractBalance","outputs":[{"internalType":"uint256","name":"","type":"uint256"}],"stateMutability":"view","type":"function"},{"inputs":[],"name":"getMvtPrice","outputs":[{"internalType":"uint256","name":"buyPrice","type":"uint256"},{"internalType":"uint256","name":"sellPrice","type":"uint256"}],"stateMutability":"view","type":"function"},{"inputs":[],"name":"getPoolBalances","outputs":[{"internalType":"uint256","name":"binary","type":"uint256"},{"internalType":"uint256","name":"reserve","type":"uint256"},{"internalType":"uint256","name":"admin","type":"uint256"}],"stateMutability":"view","type":"function"},{"inputs":[{"internalType":"address","name":"_user","type":"address"}],"name":"getProfile","outputs":[{"internalType":"string","name":"displayName","type":"string"},{"internalType":"string","name":"email","type":"string"},{"internalType":"string","name":"phone","type":"string"},{"internalType":"string","name":"country","type":"string"},{"internalType":"bool","name":"profileSet","type":"bool"}],"stateMutability":"view","type":"function"},{"inputs":[{"internalType":"address","name":"u","type":"address"}],"name":"getUserInfo","outputs":[{"internalType":"bool","name":"isRegistered","type":"bool"},{"internalType":"bool","name":"isActive","type":"bool"},{"internalType":"address","name":"sponsor","type":"address"},{"internalType":"uint256","name":"directCount","type":"uint256"},{"internalType":"address","name":"binaryParent","type":"address"},{"internalType":"bool","name":"placedLeft","type":"bool"},{"internalType":"address","name":"leftChild","type":"address"},{"internalType":"address","name":"rightChild","type":"address"},{"internalType":"uint256","name":"leftSubUsers","type":"uint256"},{"internalType":"uint256","name":"rightSubUsers","type":"uint256"},{"internalType":"uint256","name":"mvtBalance","type":"uint256"},{"internalType":"uint256","name":"totalReceived","type":"uint256"},{"internalType":"uint256","name":"totalSold","type":"uint256"},{"internalType":"uint256","name":"incomeLimit","type":"uint256"},{"internalType":"uint256","name":"usdtBalance","type":"uint256"},{"internalType":"uint256","name":"rebirthPool","type":"uint256"},{"internalType":"uint256","name":"btcPoolBalance","type":"uint256"},{"internalType":"uint256","name":"powerLegPoints","type":"uint256"},{"internalType":"uint256","name":"matchedPairs","type":"uint256"},{"internalType":"address","name":"mainAccount","type":"address"},{"internalType":"uint256","name":"rebirthCount","type":"uint256"},{"internalType":"uint256","name":"joinedAt","type":"uint256"}],"stateMutability":"view","type":"function"},{"inputs":[],"name":"mvaultToken","outputs":[{"internalType":"contract IMvaultToken","name":"","type":"address"}],"stateMutability":"view","type":"function"},{"inputs":[],"name":"owner","outputs":[{"internalType":"address","name":"","type":"address"}],"stateMutability":"view","type":"function"},{"inputs":[{"internalType":"address","name":"subAccount","type":"address"},{"internalType":"bool","name":"placeLeft","type":"bool"}],"name":"rebirth","outputs":[],"stateMutability":"nonpayable","type":"function"},{"inputs":[{"internalType":"address","name":"sponsor","type":"address"},{"internalType":"address","name":"binaryParent","type":"address"},{"internalType":"bool","name":"placeLeft","type":"bool"}],"name":"register","outputs":[],"stateMutability":"nonpayable","type":"function"},{"inputs":[],"name":"renounceOwnership","outputs":[],"stateMutability":"nonpayable","type":"function"},{"inputs":[],"name":"reservePool","outputs":[{"internalType":"uint256","name":"","type":"uint256"}],"stateMutability":"view","type":"function"},{"inputs":[{"internalType":"uint256","name":"amount","type":"uint256"}],"name":"sellMvt","outputs":[],"stateMutability":"nonpayable","type":"function"},{"inputs":[{"internalType":"address","name":"_mvaultToken","type":"address"}],"name":"setMvaultToken","outputs":[],"stateMutability":"nonpayable","type":"function"},{"inputs":[{"internalType":"string","name":"_displayName","type":"string"},{"internalType":"string","name":"_email","type":"string"},{"internalType":"string","name":"_phone","type":"string"},{"internalType":"string","name":"_country","type":"string"}],"name":"setProfile","outputs":[],"stateMutability":"nonpayable","type":"function"},{"inputs":[],"name":"totalUsers","outputs":[{"internalType":"uint256","name":"","type":"uint256"}],"stateMutability":"view","type":"function"},{"inputs":[{"internalType":"address","name":"newOwner","type":"address"}],"name":"transferOwnership","outputs":[],"stateMutability":"nonpayable","type":"function"},{"inputs":[],"name":"usdtToken","outputs":[{"internalType":"contract IERC20","name":"","type":"address"}],"stateMutability":"view","type":"function"},{"inputs":[{"internalType":"address","name":"","type":"address"}],"name":"users","outputs":[{"internalType":"bool","name":"isRegistered","type":"bool"},{"internalType":"bool","name":"isActive","type":"bool"},{"internalType":"address","name":"sponsor","type":"address"},{"internalType":"uint256","name":"directCount","type":"uint256"},{"internalType":"address","name":"binaryParent","type":"address"},{"internalType":"bool","name":"placedLeft","type":"bool"},{"internalType":"address","name":"leftChild","type":"address"},{"internalType":"address","name":"rightChild","type":"address"},{"internalType":"uint256","name":"leftSubUsers","type":"uint256"},{"internalType":"uint256","name":"rightSubUsers","type":"uint256"},{"internalType":"uint256","name":"matchedPairs","type":"uint256"},{"internalType":"uint256","name":"mvtBalance","type":"uint256"},{"internalType":"uint256","name":"totalReceived","type":"uint256"},{"internalType":"uint256","name":"totalSold","type":"uint256"},{"internalType":"uint256","name":"incomeLimit","type":"uint256"},{"internalType":"uint256","name":"usdtBalance","type":"uint256"},{"internalType":"uint256","name":"rebirthPool","type":"uint256"},{"internalType":"uint256","name":"totalUsdtEarned","type":"uint256"},{"internalType":"uint256","name":"btcPoolBalance","type":"uint256"},{"internalType":"uint256","name":"totalBtcEarned","type":"uint256"},{"internalType":"uint256","name":"powerLegPoints","type":"uint256"},{"internalType":"address","name":"mainAccount","type":"address"},{"internalType":"uint256","name":"rebirthCount","type":"uint256"},{"internalType":"uint256","name":"joinedAt","type":"uint256"},{"internalType":"string","name":"displayName","type":"string"},{"internalType":"string","name":"email","type":"string"},{"internalType":"string","name":"phone","type":"string"},{"internalType":"string","name":"country","type":"string"},{"internalType":"bool","name":"profileSet","type":"bool"}],"stateMutability":"view","type":"function"},{"inputs":[{"internalType":"address","name":"to","type":"address"},{"internalType":"uint256","name":"amount","type":"uint256"}],"name":"withdrawAdminPool","outputs":[],"stateMutability":"nonpayable","type":"function"},{"inputs":[{"internalType":"uint256","name":"amount","type":"uint256"}],"name":"withdrawBtcPool","outputs":[],"stateMutability":"nonpayable","type":"function"},{"inputs":[{"internalType":"address","name":"to","type":"address"},{"internalType":"uint256","name":"amount","type":"uint256"}],"name":"withdrawReservePool","outputs":[],"stateMutability":"nonpayable","type":"function"},{"inputs":[{"internalType":"uint256","name":"amount","type":"uint256"}],"name":"withdrawUsdt","outputs":[],"stateMutability":"nonpayable","type":"function"}],"evm":{"bytecode":{"linkReferences":{},"object":"60a0346200016057601f6200368038819003918201601f19168301916001600160401b038311848410176200016557808492604094855283398101031262000160576200005a602062000052836200017b565b92016200017b565b90331562000147576000549160018060a01b03199233848216176000556040519060018060a01b03938491823391167f8be0079c531659141344cd1fd0a4f28419497f9722a3daafe3b4186f6b6457e0600080a360017f9b779b17422d0df92223018b32b4d1fa46e071723d6817e2486d003becc55f00551690811580156200013c575b6200012d5750608052169060015416176001556040516134ef90816200019182396080518181816104620152818161069201528181610aef0152818161175e015281816122f001526127fc0152f35b63d92e233d60e01b8152600490fd5b5083831615620000de565b604051631e4fbdf760e01b815260006004820152602490fd5b600080fd5b634e487b7160e01b600052604160045260246000fd5b51906001600160a01b0382168203620001605756fe61032080604052600436101561001457600080fd5b600090813560e01c9081630266f044146123d157508063039ccc26146123ad57806303c3ecb7146123675780630f15f4c0146122865780630f53a470146121c65780631ce5e894146121545780631f6259d51461212b5780632808bc8d146120675780632d641f081461202a57806338abfc411461200c57806344e374d514611ff057806352375bb114611fc157806355509c8f146119ee578063634f627e146116d85780636386c1c71461151057806368ddb2b51461142d578063715018a6146113e557806377537844146113c95780637f1b4064146113ab5780638a8f04291461118d5780638da5cb5b1461116657806392446e301461114a57806394915dd014610e37578063a2bdedf414610df3578063a87430ba14610b1e578063a98ad46c14610ad9578063aa33f5d514610763578063aa3937571461073f578063b58e027814610627578063b86a1fb214610609578063bff1f9e1146105eb578063ce8292f514610552578063d3635a02146103f7578063e51cb530146103a9578063ec50324a146102aa578063f24c536a146102315763f2fde38b146101b957600080fd5b3461022e57602036600319011261022e576101d26123ed565b6101da6125cd565b6001600160a01b03908116908115610215576000548260018060a01b03198216176000551660008051602061345a833981519152600080a380f35b604051631e4fbdf760e01b815260048101849052602490fd5b80fd5b503461022e57602036600319011261022e576040906001600160a01b036102566123ed565b1681526002602052818120906007600583015460068401548082106000146102a25750925b01548083111561029c57610290915082612752565b82519182526020820152f35b50610290565b90509261027b565b503461022e57604036600319011261022e576102c46123ed565b602435906102d06125cd565b6001600160a01b03169081156103975760065481811061035b57816103187f0529afc4538720fe0b3eadc40486369ab962002d72fead1387b300c66073e7bf93602093612752565b600655838552600282526008604086200161033482825461275f565b9055838552600282526009604086200161034f82825461275f565b9055604051908152a280f35b60405162461bcd60e51b8152602060048201526014602482015273115e18d959591cc81c995cd95c9d99481c1bdbdb60621b6044820152606490fd5b60405163d92e233d60e01b8152600490fd5b503461022e57602036600319011261022e57604090600d9082906001600160a01b036103d36123ed565b168152600260205220015481519068070c1cc73b00c8000081101582526020820152f35b503461022e5760208060031936011261054e57600435906104166126d4565b811561053c5733835260028152600c6040842001805483811061052a578361043d91612752565b905560405163a9059cbb60e01b815281818061045d863360048401612737565b0381877f00000000000000000000000000000000000000000000000000000000000000006001600160a01b03165af190811561051f5784916104f2575b50156104e0577fbdd3f02d2a57fb53c1156f98470b61cb60712d485c27c36a49b1263dabcde201906040519283523392a2600160008051602061349a8339815191525580f35b6040516312171d8360e31b8152600490fd5b6105129150823d8411610518575b61050a8183612504565b8101906126bc565b3861049a565b503d610500565b6040513d86823e3d90fd5b60405163b55c1bad60e01b8152600490fd5b604051631f2a200560e01b8152600490fd5b5080fd5b503461022e578060031936011261022e576001546040516370a0823160e01b81523060048201529190602090839060249082906001600160a01b03165afa9081156105df57906105a8575b602090604051908152f35b506020813d82116105d7575b816105c160209383612504565b810103126105d2576020905161059d565b600080fd5b3d91506105b4565b604051903d90823e3d90fd5b503461022e578060031936011261022e576020600454604051908152f35b503461022e578060031936011261022e576020600754604051908152f35b503461022e5760208060031936011261054e57600435906106466126d4565b811561053c5733835260028152600f6040842001805483811061072d578361066d91612752565b905560405163a9059cbb60e01b815281818061068d863360048401612737565b0381877f00000000000000000000000000000000000000000000000000000000000000006001600160a01b03165af190811561051f578491610710575b50156104e0577f12701e4764b73009ab9826933c421483e4280410091fcc760515e0fa99fa766b906040519283523392a2600160008051602061349a8339815191525580f35b6107279150823d84116105185761050a8183612504565b386106ca565b604051636dae861760e11b8152600490fd5b503461022e578060031936011261022e5760206040516815245655b1025800008152f35b503461022e57606036600319011261022e5761077d6123ed565b6024356001600160a01b03811690036105d2576044351515604435036105d257338252600260205260ff604083205416610ac7576004546108ac57336000908152600260208190526040909120805461ff01600160b01b031916600117815590810180546001600160a81b03191690556012810180546001600160a01b031916905542601490910155600354600160401b811015610896578060016108259201600355612486565b81546001600160a01b0360039290921b91821b19163390911b17905560045461084d906125f9565b6004555b604051604435151581526001600160a01b03602435811692169033907f34ff37874d7443037a85c6f390fe14f2ae3e8767355de0e63891ad4367c2753990602090a480f35b634e487b7160e01b600052604160045260246000fd5b6001600160a01b0381168083526002602052604083205460ff1615610ab5576024356001600160a01b0316151580610a94575b15610a8e576024355b60443580610a6b575b610a36576044351580610a48575b610a3657336000908152600260208190526040909120805461ff01600160b01b031916601086901b62010000600160b01b031617600117815590810180546001600160a81b0319166001600160a01b03909316928317604435151560a01b60ff60a01b161790556012810180546001600160a01b031990811690915542601490920191909155600354909190600160401b811015610896578060016109a79201600355612486565b81546001600160a01b0360039290921b91821b19163390911b1790556004546109cf906125f9565b60045560443515610a1a5784526002602052600360408520019033908254161790555b8252600260205260016040832001610a0a81546125f9565b9055610a153361261e565b610851565b84526002602052600460408520019033908254161790556109f2565b60405163d5dd5c3d60e01b8152600490fd5b506001600160a01b038181168552600260205260408520600401541615156108ff565b506001600160a01b038181168552600260205260408520600301541615156108f1565b816108e8565b506024356001600160a01b031683526002602052604083205460ff166108df565b604051632f212e0d60e11b8152600490fd5b604051630ea075bf60e21b8152600490fd5b503461022e578060031936011261022e576040517f00000000000000000000000000000000000000000000000000000000000000006001600160a01b03168152602090f35b503461022e57602036600319011261022e576040906001600160a01b03610b436123ed565b168152600260205220806101c052808080808080808080808080610c076015600f600e600d600c600b600a600960086007600660058d549d60018101546102805260028101546101205260018060a01b036003820154166101a052600460018060a01b03910154169e01549e01549e01549e01549e01549e01549e01549e01549e01549e01549e01549e60108101546102405260118101546101805260018060a01b0360128201541660a05260138101546102205260148101546101405201612527565b61030052610c1a60166101c05101612527565b6101e052610c2d60176101c05101612527565b61026052610c4060186101c05101612527565b6102e05260ff60196101c05101541661010052604051806102005260ff82161515905260ff8160081c161515602061020051015260018060a01b039060101c16604061020051015261028051606061020051015260018060a01b036101205116608061020051015260ff6101205160a01c16151560a06102005101526101a05160c061020051015260e06102005101526101006102005101526101206102005101526101406102005101526101606102005101526101806102005101526101a06102005101526101c06102005101526101e061020051015261020080510152610220610200510152610240610200510152610240516102606102005101526101805161028061020051015260a0516102a0610200510152610220516102c0610200510152610140516102e0610200510152610dda610dc4610dae610d986103a080610300610200510152610200510161030051612403565b610200516103208183039101526101e051612403565b6102005161034081830391015261026051612403565b610200516103608183039101526102e051612403565b6101005115156103806102005101526102005180910390f35b503461022e57602036600319011261022e576004359060035482101561022e576020610e1e83612486565b905460405160039290921b1c6001600160a01b03168152f35b503461022e57604036600319011261022e57610e516123ed565b6024359081151582036105d257610e666126d4565b6001600160a01b038181169290831561039757338552600292602093808552604087209182549160ff8360081c161561111857600d840180549068070c1cc73b00c80000808310611106578a8c52838a5260ff60408d2054166110c15768070c1cc73b00c7ffff1983019283116110ad578083106110a257610ee9908093612752565b9055600c8501610efa82825461275f565b9055610f0b600e860191825461275f565b90556815245655b102580000600b850155610f2c858460101c169633612ede565b60008a8152838a5260409020805461ff01600160b01b03191662010000600160b01b0390961695909517600117855584830180546001600160a81b03191692881692831782151560a01b60ff60a01b161790556012850180546001600160a01b0319908116331790915542601490960195909555600354909790949091600160401b861015610896577f30016ed357540281a6cff6143637e72b48e105d85d15df66b0aaffbd23790240986013988c610fee89600161103e9b01600355612486565b909283549160031b92831b921b191617905561100b6004546125f9565b60045515611089578b5282895289600360408d2001918254161790555b8061106b575b50506110398161261e565b612790565b019161104a83546125f9565b8093556040519283523392a3600160008051602061349a8339815191525580f35b895286526001604089200161108081546125f9565b9055388061102e565b8b5282895289600460408d200191825416179055611028565b50610ee98280612752565b634e487b7160e01b8c52601160045260248cfd5b60405162461bcd60e51b8152600481018b9052601e60248201527f5375622d6163636f756e7420616c7265616479207265676973746572656400006044820152606490fd5b6040516307db32bd60e31b8152600490fd5b60405162461bcd60e51b815260048101889052600a6024820152694e6f742061637469766560b01b6044820152606490fd5b503461022e578060031936011261022e576020604051600a8152f35b503461022e578060031936011261022e57546040516001600160a01b039091168152602090f35b503461022e5761119c36612443565b6111a46125cd565b6111ac6126d4565b60099060ff82541615611399576111c3908361275f565b9060038054808411611391575b508492845b818110611351575060089182549585151580611348575b1561132f57805b83811061129a575090879392915b82811061125a57847f7f4a5b69bea14a6fc05326671a02e90d4a88855c83a18529c260057b1bf61a8560408a8a8a858a5560ff19815416905582519182526020820152a1600160008051602061349a8339815191525580f35b611290919293945061126b81612486565b905490841b1c6001600160a01b031689526002602052604089206011018990556125f9565b9087939291611201565b80896112a861131d93612486565b905490861b1c6001600160a01b0316808252600260208181526040842060110154919290918a908e908e8115611322576112e76112ec92604094612704565b612717565b95838152858552200161130085825461275f565b90558d52526113168860408d200191825461275f565b90556125f9565b6111f3565b50505050505050506125f9565b61133b8760075461275f565b6007559087939291611201565b508615156111ec565b9361138661138c9161136287612486565b905490861b1c6001600160a01b03168952600260205260408920601101549061275f565b946125f9565b6111d5565b9250386111d0565b60405163418826bf60e11b8152600490fd5b503461022e578060031936011261022e576020600554604051908152f35b503461022e578060031936011261022e57602060405160288152f35b503461022e578060031936011261022e576113fe6125cd565b600080546001600160a01b0319811682556001600160a01b031660008051602061345a8339815191528280a380f35b503461022e578060031936011261022e57600154604051623144bd60e31b81526001600160a01b039091169160208083600481875afa9283156115055782936114d4575b5080600494604051958680926310f4cba760e21b82525afa9182156105df57916114a4575b604080945051928352820152f35b80915083813d83116114cd575b6114bb8183612504565b810103126105d2576040925190611496565b503d6114b1565b9392508084813d83116114fe575b6114ec8183612504565b810103126105d2579251919280611471565b503d6114e2565b6040513d84823e3d90fd5b503461022e57602036600319011261022e576040906001600160a01b036115356123ed565b168152600260205220808080808080808080808080805460018201546102a05260028201546102c052601460076011600f600d600c600b600a60096008600660058d600360018060a01b03910154169d600460018060a01b03910154169e01549e01549e01549e01549e01549e01549e01549e01549e01549e01549e01549e60018060a01b0360128201541660e052601381015460c0520154608052604051806101605260ff82161515905260ff8160081c161515602061016051015260018060a01b039060101c1660406101605101526102a051606061016051015260018060a01b036102c05116608061016051015260ff6102c05160a01c16151560a061016051015260c061016051015260e0610160510152610100610160510152610120610160510152610140610160510152610160805101526101806101605101526101a06101605101526101c06101605101526101e061016051015261020061016051015261022061016051015261024061016051015260e05161026061016051015260c0516102806101605101526080516102a06101605101526102c061016051f35b503461022e5760208060031936011261054e57600435906116f76126d4565b811561053c5733835260028152604083209060ff825460081c16156119dc576008820180548481106119ca578461172d91612752565b9055600a820161173e84825461275f565b90556040516370a0823160e01b8082523060048301526001600160a01b037f0000000000000000000000000000000000000000000000000000000000000000811692919087908584602481885afa93841561150557829461199b575b5060015416803b1561054e5781906024604051809481936372424d9960e11b83528c60048401525af180156119905761197d575b50839060246040518095819382523060048301525afa8015611972578690611943575b6117fb9250612752565b91600a8302838104600a148415171561192f577f8f7262d5a031d4d671e1fdb0cddcd26d37185226f9e82f2f18877141ac1963eb939291611843606461190493048095612752565b92600f820161185386825461275f565b90556010820161186486825461275f565b90557f2b1d2104e84dd4dabb0cca024171f783ab1e1c9dc1af9d60a2361596653a99c4604051918683523392a2600b81018054918883156119225750600d908386111561191c57835b80936118d4826118bd818b612752565b97600c86016118cd83825461275f565b9055612752565b90556118e5600e830191825461275f565b90555b016118f483825461275f565b905560405194859433988661276c565b0390a2600160008051602061349a8339815191525580f35b856118ad565b91509150600d84926118e8565b634e487b7160e01b86526011600452602486fd5b508282813d831161196b575b6119598183612504565b810103126105d2576117fb91516117f1565b503d61194f565b6040513d88823e3d90fd5b966119898592986124f1565b96906117ce565b6040513d8a823e3d90fd5b9093508581813d83116119c3575b6119b38183612504565b8101031261054e5751923861179a565b503d6119a9565b60405163208975e760e21b8152600490fd5b60405163aba4733960e01b8152600490fd5b503461022e57608036600319011261022e576004356001600160401b03811161054e57611a1f903690600401612459565b91906024356001600160401b038111611fbd57611a40903690600401612459565b6044356001600160401b038111611fb957611a5f903690600401612459565b90916064356001600160401b038111611fb557611a80903690600401612459565b949097338852600260205260ff60408920541615611f7f57338852600260205260408820966001600160401b038211611f6b578190611ac260158a01546124b7565b601f8111611f1b575b508990601f8311600114611eaf578a92611ea4575b50508160011b916000199060031b1c19161760158701555b6001600160401b038211611e90578190611b1560168801546124b7565b601f8111611e3d575b508790601f8311600114611dd1578892611dc6575b50508160011b916000199060031b1c19161760168501555b60178401916001600160401b038211611db2578190611b6a84546124b7565b601f8111611d62575b508690601f8311600114611cfc578792611cf1575b50508160011b916000199060031b1c19161790555b60188201906001600160401b038111611cdd57611bba82546124b7565b601f8111611c98575b5083601f8211600114611c31578190859660199692611c26575b50508160011b916000199060031b1c19161790555b01805460ff19166001179055337fbe4ec58a792f909e102ee3d745d0c3b34a4d437a54d903c4db098d31c556422f8280a280f35b013590503880611bdd565b8285526020852090601f198316865b818110611c805750968392916001946019989910611c66575b505050811b019055611bf2565b0135600019600384901b60f8161c19169055388080611c59565b9192602060018192868c013581550194019201611c40565b82855260208520601f830160051c81019160208410611cd3575b601f0160051c01905b818110611cc85750611bc3565b858155600101611cbb565b9091508190611cb2565b634e487b7160e01b84526041600452602484fd5b013590503880611b88565b84885260208820925090601f198416885b818110611d4a5750908460019594939210611d30575b505050811b019055611b9d565b0135600019600384901b60f8161c19169055388080611d23565b91936020600181928787013581550195019201611d0d565b90915083875260208720601f840160051c81019160208510611da8575b90601f859493920160051c01905b818110611d9a5750611b73565b888155849350600101611d8d565b9091508190611d7f565b634e487b7160e01b86526041600452602486fd5b013590503880611b33565b60168801895260208920925090601f198416895b818110611e255750908460019594939210611e0b575b505050811b016016850155611b4b565b0135600019600384901b60f8161c19169055388080611dfb565b91936020600181928787013581550195019201611de5565b90915060168701885260208820601f840160051c81019160208510611e86575b90601f859493920160051c01905b818110611e785750611b1e565b898155849350600101611e6b565b9091508190611e5d565b634e487b7160e01b87526041600452602487fd5b013590503880611ae0565b60158a018b5260208b20925090601f1984168b5b818110611f035750908460019594939210611ee9575b505050811b016015870155611af8565b0135600019600384901b60f8161c19169055388080611ed9565b91936020600181928787013581550195019201611ec3565b909150601589018a5260208a20601f840160051c810160208510611f64575b90849392915b601f830160051c82018110611f56575050611acb565b8c8155859450600101611f40565b5080611f3a565b634e487b7160e01b89526041600452602489fd5b60405162461bcd60e51b815260206004820152600e60248201526d139bdd081c9959da5cdd195c995960921b6044820152606490fd5b8680fd5b8480fd5b8280fd5b503461022e578060031936011261022e5760606005546006546007549060405192835260208301526040820152f35b503461022e578060031936011261022e576020604051601e8152f35b503461022e578060031936011261022e576020600354604051908152f35b503461022e5761205261203c36612443565b906120456125cd565b61204d6126d4565b61313b565b600160008051602061349a8339815191525580f35b503461022e57604036600319011261022e576120816123ed565b6024359061208d6125cd565b6001600160a01b0316908115610397576007548181106120f157816120d57fba443e8671971c36cdeb74f87321041daff421230cbc5e36cb835269ed1d8b7e93602093612752565b600755838552600282526008604086200161033482825461275f565b60405162461bcd60e51b8152602060048201526012602482015271115e18d959591cc818591b5a5b881c1bdbdb60721b6044820152606490fd5b503461022e578060031936011261022e576001546040516001600160a01b039091168152602090f35b503461022e57602036600319011261022e5761216e6123ed565b6121766125cd565b6001600160a01b0316801561039757600180546001600160a01b031916821790556040519081527ffa7bd61554593f4e69cdffd255d3fe947352b02c7d3ec68059384934e4cfd47c90602090a180f35b503461022e57602036600319011261022e57612250906040906001600160a01b036121ef6123ed565b16815260026020522060ff60198201541661227a61220f60158401612527565b9261226c61221f60168301612527565b9161225e61223b601861223460178501612527565b9301612527565b9360405198899860a08a5260a08a0190612403565b9088820360208a0152612403565b908682036040880152612403565b908482036060860152612403565b90151560808301520390f35b503461022e578060031936011261022e5761229f6126d4565b3381526002602052604081205460ff8116156119dc5760081c60ff16612355576040516323b872dd60e01b815233600482015230602482015268070c1cc73b00c800006044820152602081606481857f00000000000000000000000000000000000000000000000000000000000000006001600160a01b03165af1908115611505578291612337575b50156104e05761205233612790565b61234f915060203d81116105185761050a8183612504565b38612328565b604051637cdf305160e11b8152600490fd5b503461022e57602036600319011261022e5760409081906001600160a01b0361238e6123ed565b1681526002602052206010600f82015491015482519182526020820152f35b503461022e578060031936011261022e57602060405168070c1cc73b00c800008152f35b90503461054e578160031936011261054e576020906006548152f35b600435906001600160a01b03821682036105d257565b919082519283825260005b84811061242f575050826000602080949584010152601f8019910116010190565b60208183018101518483018201520161240e565b60409060031901126105d2576004359060243590565b9181601f840112156105d2578235916001600160401b0383116105d257602083818601950101116105d257565b6003548110156124a157600360005260206000200190600090565b634e487b7160e01b600052603260045260246000fd5b90600182811c921680156124e7575b60208310146124d157565b634e487b7160e01b600052602260045260246000fd5b91607f16916124c6565b6001600160401b03811161089657604052565b601f909101601f19168101906001600160401b0382119082101761089657604052565b906040519182600082549261253b846124b7565b9081845260019485811690816000146125aa5750600114612567575b505061256592500383612504565b565b9093915060005260209081600020936000915b81831061259257505061256593508201013880612557565b8554888401850152948501948794509183019161257a565b91505061256594506020925060ff191682840152151560051b8201013880612557565b6000546001600160a01b031633036125e157565b60405163118cdaa760e01b8152336004820152602490fd5b60001981146126085760010190565b634e487b7160e01b600052601160045260246000fd5b6001600160a01b039081166000908152600260208181526040808420830154949560a09560ff959293919080881c871690899081165b169081156126b057156126935780845285835260058585200161267781546125f9565b90555b8352848252848484200154888088838b1c169216612654565b8084528583526006858520016126a981546125f9565b905561267a565b50509650505050505050565b908160209103126105d2575180151581036105d25790565b60008051602061349a83398151915260028154146126f25760029055565b604051633ee5aeb560e01b8152600490fd5b8181029291811591840414171561260857565b8115612721570490565b634e487b7160e01b600052601260045260246000fd5b6001600160a01b039091168152602081019190915260400190565b9190820391821161260857565b9190820180921161260857565b9192608093969594919660a084019784526020840152604083015260608201520152565b600154604051623144bd60e31b81529260009290916001600160a01b0316602085600481845afa94851561051f578495612d00575b508415612cec5760405163095ea7b360e01b8152600481019190915268070c1cc73b00c800006024820181905290602081604481887f00000000000000000000000000000000000000000000000000000000000000006001600160a01b03165af18015612c7057612ccd575b506001546040516370a0823160e01b8082523060048301529290916001600160a01b031690602083602481855afa928315612cc2578793612c8e575b50813b15611fb5578691604483926040519485938492634e538d9360e11b845230600485015260248401525af1801561197257612c7b575b50600154604051928352306004840152602090839060249082906001600160a01b03165afa8015612c70578590612c3c575b6128e19250612752565b936b030e68b6d6e0acc82863363160251b8190048015936028828102939284041485171561192f576b030e68b6d6e0acc82863363160251b829004601e8181029691870414171561192f576129566064860461295160648604856b030e68b6d6e0acc82863363160251b04612752565b612752565b946129666064820460055461275f565b6005556129758660065461275f565b6006556001600160a01b038581168852600260205260408820805461ff001916610100178082556815245655b102580000600b9092019190915560019789969092909160101c165b600f60ff8a16111580612c2a575b15612b97576129ec896b030e68b6d6e0acc82863363160251b889004612d4d565b968715612b7157876129fd9161275f565b9660018060a01b0382168b5260026020528960408c2060ff815460081c169081612b5a575b5015612b0357506001600160a01b0382168b52600260205260408b206008018054612a4e90839061275f565b90556001600160a01b0382168b52600260205260408b206009018054612a7590839061275f565b90556040516001600160a01b03808b1692908416917fb16479bdac5b7099d9236d6fc6be3b30ff54188f4fd961686e1e1dc7ecb88037918190612ab9908f83612d38565b0390a35b6001600160a01b039081168a52600260205260408a205460101c16975b60ff809116908114612aef57600101976129bd565b634e487b7160e01b8a52601160045260248afd5b90612b527f117ca0cd821ecb7eadfea2d6927a67853908bdc351a386235215f5ab6071bfed916007612b3682825461275f565b90556040516001600160a01b0386169490928392909183612d38565b0390a2612abd565b600191500154612b6982612e80565b111538612a22565b6001600160a01b039182168b52600260205260408b205460101c90911698909650612ada565b5091975091977f8af2c013a5a55c6d3ad5423522fe76c6f2eb831b5e23318276b3c678cb457fc9965092612c0593606496958088850411612c0a575b506040516001600160a01b0390961698959687968190049304916b030e68b6d6e0acc82863363160251b04908661276c565b0390a2565b612c19612c2191898604612752565b60075461275f565b60075538612bd3565b506001600160a01b03811615156129cb565b506020823d602011612c68575b81612c5660209383612504565b810103126105d2576128e191516128d7565b3d9150612c49565b6040513d87823e3d90fd5b612c87909591956124f1565b93386128a5565b9092506020813d602011612cba575b81612caa60209383612504565b81010312611fb55751913861286d565b3d9150612c9d565b6040513d89823e3d90fd5b612ce59060203d6020116105185761050a8183612504565b5038612831565b634e487b7160e01b84526012600452602484fd5b9094506020813d602011612d30575b81612d1c60209383612504565b81010312612d2c575193386127c5565b8380fd5b3d9150612d0f565b6020909392919360ff60408201951681520152565b9060ff1660018114612e655760028114612e4a5760038114612e2f57600490818114612e135760058114612df75760068114612de05760078114612de05760088110159081612dd4575b50612da3575050600090565b600582029180830460051490151715612dbf57506103e8900490565b601190634e487b7160e01b6000525260246000fd5b600f9150111538612d97565b5081800460011482151715612dbf57506064900490565b508160011b9180830460021490151715612dbf57506064900490565b50600382029180830460031490151715612dbf57506064900490565b508060021b9080820460041490151715612608576064900490565b50600581029080820460051490151715612608576064900490565b50601481029080820460141490151715612608576064900490565b60ff166001811115612ead576004811115612ea75760071015612ea257600a90565b600590565b50600290565b50600090565b6001600160401b0381116108965760051b60200190565b80518210156124a15760209160051b010190565b90918280613116575b61310e5782159182806130e9575b612fa65760049384549360018086018096116130d457612f1486612eb3565b90612f2f604097612f2789519485612504565b808452612eb3565b9260209283810194601f190136863760008087156130b6576001600160a01b038981168352600287528b83206003015416965b6001600160a01b039788168061308d575b50505b818110612ff05750505080612fd5575b612fca575082612fae575b5050612fa65750505163c5bb5bcd60e01b8152fd5b925060009150565b8160029293508416600052528484600020015416153880612f91565b939650929450505050565b50828516600052600282528260038860002001541615612f86565b86613004612ffd836125f9565b9285612eca565b5116806000526002908188528c6000208960038201541690811561307a578f01548a16156130675761303f613038866125f9565b9587612eca565b526000528652868c8c60002001541661306161305a846125f9565b9385612eca565b52612f76565b509c5060009b5050505050505050505050565b50909d50959b5050505050505050505050565b90925085928451156130a157523880612f73565b60328e634e487b7160e01b6000525260246000fd5b6001600160a01b038981168352600287528b83208d01541696612f62565b601187634e487b7160e01b6000525260246000fd5b506001600160a01b038181166000908152600260205260409020600401541615612ef5565b915090600190565b506001600160a01b038281166000908152600260205260409020600301541615612ee7565b60ff60098181541661344857600590815494851561340f576000938484556046870287810460460361192f5760649004936131768589612752565b956131866008948886558961275f565b9360038054808711613407575b508299805b87811061337457508a15613329575b8681106131ee5750505050505050916080939160008051602061347a8339815191529593600160ff19825416179055604051938452602084015260408301526060820152a1565b8a86868b8b6131fc86612486565b60018060a01b03915490891b1c16808a52600292896020938585528c604097888220998a54851c16156133155789015460068a01548082101561330d5750995b6007998a0154808c111561330557613254908c612752565b945b85156132f057916132708a926112e7886132989796612704565b948782528989528282200161328686825461275f565b9055868152888852200191825461275f565b9055600a808202918204036132dc5790849392916132c960116132d79a9998978e858152878752200191825461275f565b90558a5252872001556125f9565b6131a7565b634e487b7160e01b8b52601160045260248bfd5b5050505050505050505050506132d7906125f9565b508194613256565b90509961323c565b50505050505050505050506132d7906125f9565b5050935094608097508594506133569250612c1991509560008051602061347a833981519152989661275f565b600755556040519182528060208301528060408301526060820152a1565b61337d81612486565b905490841b1c6001600160a01b031685526002602052604085208054851c8816156133fd5760078782015460068301548082106000146133f55750915b0154908181116133d5575b50506133d0906125f9565b613198565b9c6133e76133ed926133d0949f612752565b9061275f565b9b90386133c5565b9050916133ba565b506133d0906125f9565b955038613193565b60405162461bcd60e51b8152602060048201526011602482015270115b5c1d1e48189a5b985c9e481c1bdbdb607a1b6044820152606490fd5b60405162c9487960e41b8152600490fdfe8be0079c531659141344cd1fd0a4f28419497f9722a3daafe3b4186f6b6457e0a0ea5705200c9ffd36dc735fef1592c3234bb7e311fc1b0a444f6370d0620eae9b779b17422d0df92223018b32b4d1fa46e071723d6817e2486d003becc55f00a264697066735822122056e9ed2f26f9d25aec7a4cab5ec5ece44dee158becbb7c34448853d36499201f64736f6c63430008140033","opcodes":"PUSH1 0xA0 CALLVALUE PUSH3 0x160 JUMPI PUSH1 0x1F PUSH3 0x3680 CODESIZE DUP2 SWAP1 SUB SWAP2 DUP3 ADD PUSH1 0x1F NOT AND DUP4 ADD SWAP2 PUSH1 0x1 PUSH1 0x1 PUSH1 0x40 SHL SUB DUP4 GT DUP5 DUP5 LT OR PUSH3 0x165 JUMPI DUP1 DUP5 SWAP3 PUSH1 0x40 SWAP5 DUP6 MSTORE DUP4 CODECOPY DUP2 ADD SUB SLT PUSH3 0x160 JUMPI PUSH3 0x5A PUSH1 0x20 PUSH3 0x52 DUP4 PUSH3 0x17B JUMP JUMPDEST SWAP3 ADD PUSH3 0x17B JUMP JUMPDEST SWAP1 CALLER ISZERO PUSH3 0x147 JUMPI PUSH1 0x0 SLOAD SWAP2 PUSH1 0x1 DUP1 PUSH1 0xA0 SHL SUB NOT SWAP3 CALLER DUP5 DUP3 AND OR PUSH1 0x0 SSTORE PUSH1 0x40 MLOAD SWAP1 PUSH1 0x1 DUP1 PUSH1 0xA0 SHL SUB SWAP4 DUP5 SWAP2 DUP3 CALLER SWAP2 AND PUSH32 0x8BE0079C531659141344CD1FD0A4F28419497F9722A3DAAFE3B4186F6B6457E0 PUSH1 0x0 DUP1 LOG3 PUSH1 0x1 PUSH32 0x9B779B17422D0DF92223018B32B4D1FA46E071723D6817E2486D003BECC55F00 SSTORE AND SWAP1 DUP2 ISZERO DUP1 ISZERO PUSH3 0x13C JUMPI JUMPDEST PUSH3 0x12D JUMPI POP PUSH1 0x80 MSTORE AND SWAP1 PUSH1 0x1 SLOAD AND OR PUSH1 0x1 SSTORE PUSH1 0x40 MLOAD PUSH2 0x34EF SWAP1 DUP2 PUSH3 0x191 DUP3 CODECOPY PUSH1 0x80 MLOAD DUP2 DUP2 DUP2 PUSH2 0x462 ADD MSTORE DUP2 DUP2 PUSH2 0x692 ADD MSTORE DUP2 DUP2 PUSH2 0xAEF ADD MSTORE DUP2 DUP2 PUSH2 0x175E ADD MSTORE DUP2 DUP2 PUSH2 0x22F0 ADD MSTORE PUSH2 0x27FC ADD MSTORE RETURN JUMPDEST PUSH4 0xD92E233D PUSH1 0xE0 SHL DUP2 MSTORE PUSH1 0x4 SWAP1 REVERT JUMPDEST POP DUP4 DUP4 AND ISZERO PUSH3 0xDE JUMP JUMPDEST PUSH1 0x40 MLOAD PUSH4 0x1E4FBDF7 PUSH1 0xE0 SHL DUP2 MSTORE PUSH1 0x0 PUSH1 0x4 DUP3 ADD MSTORE PUSH1 0x24 SWAP1 REVERT JUMPDEST PUSH1 0x0 DUP1 REVERT JUMPDEST PUSH4 0x4E487B71 PUSH1 0xE0 SHL PUSH1 0x0 MSTORE PUSH1 0x41 PUSH1 0x4 MSTORE PUSH1 0x24 PUSH1 0x0 REVERT JUMPDEST MLOAD SWAP1 PUSH1 0x1 PUSH1 0x1 PUSH1 0xA0 SHL SUB DUP3 AND DUP3 SUB PUSH3 0x160 JUMPI JUMP INVALID PUSH2 0x320 DUP1 PUSH1 0x40 MSTORE PUSH1 0x4 CALLDATASIZE LT ISZERO PUSH2 0x14 JUMPI PUSH1 0x0 DUP1 REVERT JUMPDEST PUSH1 0x0 SWAP1 DUP2 CALLDATALOAD PUSH1 0xE0 SHR SWAP1 DUP2 PUSH4 0x266F044 EQ PUSH2 0x23D1 JUMPI POP DUP1 PUSH4 0x39CCC26 EQ PUSH2 0x23AD JUMPI DUP1 PUSH4 0x3C3ECB7 EQ PUSH2 0x2367 JUMPI DUP1 PUSH4 0xF15F4C0 EQ PUSH2 0x2286 JUMPI DUP1 PUSH4 0xF53A470 EQ PUSH2 0x21C6 JUMPI DUP1 PUSH4 0x1CE5E894 EQ PUSH2 0x2154 JUMPI DUP1 PUSH4 0x1F6259D5 EQ PUSH2 0x212B JUMPI DUP1 PUSH4 0x2808BC8D EQ PUSH2 0x2067 JUMPI DUP1 PUSH4 0x2D641F08 EQ PUSH2 0x202A JUMPI DUP1 PUSH4 0x38ABFC41 EQ PUSH2 0x200C JUMPI DUP1 PUSH4 0x44E374D5 EQ PUSH2 0x1FF0 JUMPI DUP1 PUSH4 0x52375BB1 EQ PUSH2 0x1FC1 JUMPI DUP1 PUSH4 0x55509C8F EQ PUSH2 0x19EE JUMPI DUP1 PUSH4 0x634F627E EQ PUSH2 0x16D8 JUMPI DUP1 PUSH4 0x6386C1C7 EQ PUSH2 0x1510 JUMPI DUP1 PUSH4 0x68DDB2B5 EQ PUSH2 0x142D JUMPI DUP1 PUSH4 0x715018A6 EQ PUSH2 0x13E5 JUMPI DUP1 PUSH4 0x77537844 EQ PUSH2 0x13C9 JUMPI DUP1 PUSH4 0x7F1B4064 EQ PUSH2 0x13AB JUMPI DUP1 PUSH4 0x8A8F0429 EQ PUSH2 0x118D JUMPI DUP1 PUSH4 0x8DA5CB5B EQ PUSH2 0x1166 JUMPI DUP1 PUSH4 0x92446E30 EQ PUSH2 0x114A JUMPI DUP1 PUSH4 0x94915DD0 EQ PUSH2 0xE37 JUMPI DUP1 PUSH4 0xA2BDEDF4 EQ PUSH2 0xDF3 JUMPI DUP1 PUSH4 0xA87430BA EQ PUSH2 0xB1E JUMPI DUP1 PUSH4 0xA98AD46C EQ PUSH2 0xAD9 JUMPI DUP1 PUSH4 0xAA33F5D5 EQ PUSH2 0x763 JUMPI DUP1 PUSH4 0xAA393757 EQ PUSH2 0x73F JUMPI DUP1 PUSH4 0xB58E0278 EQ PUSH2 0x627 JUMPI DUP1 PUSH4 0xB86A1FB2 EQ PUSH2 0x609 JUMPI DUP1 PUSH4 0xBFF1F9E1 EQ PUSH2 0x5EB JUMPI DUP1 PUSH4 0xCE8292F5 EQ PUSH2 0x552 JUMPI DUP1 PUSH4 0xD3635A02 EQ PUSH2 0x3F7 JUMPI DUP1 PUSH4 0xE51CB530 EQ PUSH2 0x3A9 JUMPI DUP1 PUSH4 0xEC50324A EQ PUSH2 0x2AA JUMPI DUP1 PUSH4 0xF24C536A EQ PUSH2 0x231 JUMPI PUSH4 0xF2FDE38B EQ PUSH2 0x1B9 JUMPI PUSH1 0x0 DUP1 REVERT JUMPDEST CALLVALUE PUSH2 0x22E JUMPI PUSH1 0x20 CALLDATASIZE PUSH1 0x3 NOT ADD SLT PUSH2 0x22E JUMPI PUSH2 0x1D2 PUSH2 0x23ED JUMP JUMPDEST PUSH2 0x1DA PUSH2 0x25CD JUMP JUMPDEST PUSH1 0x1 PUSH1 0x1 PUSH1 0xA0 SHL SUB SWAP1 DUP2 AND SWAP1 DUP2 ISZERO PUSH2 0x215 JUMPI PUSH1 0x0 SLOAD DUP3 PUSH1 0x1 DUP1 PUSH1 0xA0 SHL SUB NOT DUP3 AND OR PUSH1 0x0 SSTORE AND PUSH1 0x0 DUP1 MLOAD PUSH1 0x20 PUSH2 0x345A DUP4 CODECOPY DUP2 MLOAD SWAP2 MSTORE PUSH1 0x0 DUP1 LOG3 DUP1 RETURN JUMPDEST PUSH1 0x40 MLOAD PUSH4 0x1E4FBDF7 PUSH1 0xE0 SHL DUP2 MSTORE PUSH1 0x4 DUP2 ADD DUP5 SWAP1 MSTORE PUSH1 0x24 SWAP1 REVERT JUMPDEST DUP1 REVERT JUMPDEST POP CALLVALUE PUSH2 0x22E JUMPI PUSH1 0x20 CALLDATASIZE PUSH1 0x3 NOT ADD SLT PUSH2 0x22E JUMPI PUSH1 0x40 SWAP1 PUSH1 0x1 PUSH1 0x1 PUSH1 0xA0 SHL SUB PUSH2 0x256 PUSH2 0x23ED JUMP JUMPDEST AND DUP2 MSTORE PUSH1 0x2 PUSH1 0x20 MSTORE DUP2 DUP2 KECCAK256 SWAP1 PUSH1 0x7 PUSH1 0x5 DUP4 ADD SLOAD PUSH1 0x6 DUP5 ADD SLOAD DUP1 DUP3 LT PUSH1 0x0 EQ PUSH2 0x2A2 JUMPI POP SWAP3 JUMPDEST ADD SLOAD DUP1 DUP4 GT ISZERO PUSH2 0x29C JUMPI PUSH2 0x290 SWAP2 POP DUP3 PUSH2 0x2752 JUMP JUMPDEST DUP3 MLOAD SWAP2 DUP3 MSTORE PUSH1 0x20 DUP3 ADD MSTORE RETURN JUMPDEST POP PUSH2 0x290 JUMP JUMPDEST SWAP1 POP SWAP3 PUSH2 0x27B JUMP JUMPDEST POP CALLVALUE PUSH2 0x22E JUMPI PUSH1 0x40 CALLDATASIZE PUSH1 0x3 NOT ADD SLT PUSH2 0x22E JUMPI PUSH2 0x2C4 PUSH2 0x23ED JUMP JUMPDEST PUSH1 0x24 CALLDATALOAD SWAP1 PUSH2 0x2D0 PUSH2 0x25CD JUMP JUMPDEST PUSH1 0x1 PUSH1 0x1 PUSH1 0xA0 SHL SUB AND SWAP1 DUP2 ISZERO PUSH2 0x397 JUMPI PUSH1 0x6 SLOAD DUP2 DUP2 LT PUSH2 0x35B JUMPI DUP2 PUSH2 0x318 PUSH32 0x529AFC4538720FE0B3EADC40486369AB962002D72FEAD1387B300C66073E7BF SWAP4 PUSH1 0x20 SWAP4 PUSH2 0x2752 JUMP JUMPDEST PUSH1 0x6 SSTORE DUP4 DUP6 MSTORE PUSH1 0x2 DUP3 MSTORE PUSH1 0x8 PUSH1 0x40 DUP7 KECCAK256 ADD PUSH2 0x334 DUP3 DUP3 SLOAD PUSH2 0x275F JUMP JUMPDEST SWAP1 SSTORE DUP4 DUP6 MSTORE PUSH1 0x2 DUP3 MSTORE PUSH1 0x9 PUSH1 0x40 DUP7 KECCAK256 ADD PUSH2 0x34F DUP3 DUP3 SLOAD PUSH2 0x275F JUMP JUMPDEST SWAP1 SSTORE PUSH1 0x40 MLOAD SWAP1 DUP2 MSTORE LOG2 DUP1 RETURN JUMPDEST PUSH1 0x40 MLOAD PUSH3 0x461BCD PUSH1 0xE5 SHL DUP2 MSTORE PUSH1 0x20 PUSH1 0x4 DUP3 ADD MSTORE PUSH1 0x14 PUSH1 0x24 DUP3 ADD MSTORE PUSH20 0x115E18D959591CC81C995CD95C9D99481C1BDBDB PUSH1 0x62 SHL PUSH1 0x44 DUP3 ADD MSTORE PUSH1 0x64 SWAP1 REVERT JUMPDEST PUSH1 0x40 MLOAD PUSH4 0xD92E233D PUSH1 0xE0 SHL DUP2 MSTORE PUSH1 0x4 SWAP1 REVERT JUMPDEST POP CALLVALUE PUSH2 0x22E JUMPI PUSH1 0x20 CALLDATASIZE PUSH1 0x3 NOT ADD SLT PUSH2 0x22E JUMPI PUSH1 0x40 SWAP1 PUSH1 0xD SWAP1 DUP3 SWAP1 PUSH1 0x1 PUSH1 0x1 PUSH1 0xA0 SHL SUB PUSH2 0x3D3 PUSH2 0x23ED JUMP JUMPDEST AND DUP2 MSTORE PUSH1 0x2 PUSH1 0x20 MSTORE KECCAK256 ADD SLOAD DUP2 MLOAD SWAP1 PUSH9 0x70C1CC73B00C80000 DUP2 LT ISZERO DUP3 MSTORE PUSH1 0x20 DUP3 ADD MSTORE RETURN JUMPDEST POP CALLVALUE PUSH2 0x22E JUMPI PUSH1 0x20 DUP1 PUSH1 0x3 NOT CALLDATASIZE ADD SLT PUSH2 0x54E JUMPI PUSH1 0x4 CALLDATALOAD SWAP1 PUSH2 0x416 PUSH2 0x26D4 JUMP JUMPDEST DUP2 ISZERO PUSH2 0x53C JUMPI CALLER DUP4 MSTORE PUSH1 0x2 DUP2 MSTORE PUSH1 0xC PUSH1 0x40 DUP5 KECCAK256 ADD DUP1 SLOAD DUP4 DUP2 LT PUSH2 0x52A JUMPI DUP4 PUSH2 0x43D SWAP2 PUSH2 0x2752 JUMP JUMPDEST SWAP1 SSTORE PUSH1 0x40 MLOAD PUSH4 0xA9059CBB PUSH1 0xE0 SHL DUP2 MSTORE DUP2 DUP2 DUP1 PUSH2 0x45D DUP7 CALLER PUSH1 0x4 DUP5 ADD PUSH2 0x2737 JUMP JUMPDEST SUB DUP2 DUP8 PUSH32 0x0 PUSH1 0x1 PUSH1 0x1 PUSH1 0xA0 SHL SUB AND GAS CALL SWAP1 DUP2 ISZERO PUSH2 0x51F JUMPI DUP5 SWAP2 PUSH2 0x4F2 JUMPI JUMPDEST POP ISZERO PUSH2 0x4E0 JUMPI PUSH32 0xBDD3F02D2A57FB53C1156F98470B61CB60712D485C27C36A49B1263DABCDE201 SWAP1 PUSH1 0x40 MLOAD SWAP3 DUP4 MSTORE CALLER SWAP3 LOG2 PUSH1 0x1 PUSH1 0x0 DUP1 MLOAD PUSH1 0x20 PUSH2 0x349A DUP4 CODECOPY DUP2 MLOAD SWAP2 MSTORE SSTORE DUP1 RETURN JUMPDEST PUSH1 0x40 MLOAD PUSH4 0x12171D83 PUSH1 0xE3 SHL DUP2 MSTORE PUSH1 0x4 SWAP1 REVERT JUMPDEST PUSH2 0x512 SWAP2 POP DUP3 RETURNDATASIZE DUP5 GT PUSH2 0x518 JUMPI JUMPDEST PUSH2 0x50A DUP2 DUP4 PUSH2 0x2504 JUMP JUMPDEST DUP2 ADD SWAP1 PUSH2 0x26BC JUMP JUMPDEST CODESIZE PUSH2 0x49A JUMP JUMPDEST POP RETURNDATASIZE PUSH2 0x500 JUMP JUMPDEST PUSH1 0x40 MLOAD RETURNDATASIZE DUP7 DUP3 RETURNDATACOPY RETURNDATASIZE SWAP1 REVERT JUMPDEST PUSH1 0x40 MLOAD PUSH4 0xB55C1BAD PUSH1 0xE0 SHL DUP2 MSTORE PUSH1 0x4 SWAP1 REVERT JUMPDEST PUSH1 0x40 MLOAD PUSH4 0x1F2A2005 PUSH1 0xE0 SHL DUP2 MSTORE PUSH1 0x4 SWAP1 REVERT JUMPDEST POP DUP1 REVERT JUMPDEST POP CALLVALUE PUSH2 0x22E JUMPI DUP1 PUSH1 0x3 NOT CALLDATASIZE ADD SLT PUSH2 0x22E JUMPI PUSH1 0x1 SLOAD PUSH1 0x40 MLOAD PUSH4 0x70A08231 PUSH1 0xE0 SHL DUP2 MSTORE ADDRESS PUSH1 0x4 DUP3 ADD MSTORE SWAP2 SWAP1 PUSH1 0x20 SWAP1 DUP4 SWAP1 PUSH1 0x24 SWAP1 DUP3 SWAP1 PUSH1 0x1 PUSH1 0x1 PUSH1 0xA0 SHL SUB AND GAS STATICCALL SWAP1 DUP2 ISZERO PUSH2 0x5DF JUMPI SWAP1 PUSH2 0x5A8 JUMPI JUMPDEST PUSH1 0x20 SWAP1 PUSH1 0x40 MLOAD SWAP1 DUP2 MSTORE RETURN JUMPDEST POP PUSH1 0x20 DUP2 RETURNDATASIZE DUP3 GT PUSH2 0x5D7 JUMPI JUMPDEST DUP2 PUSH2 0x5C1 PUSH1 0x20 SWAP4 DUP4 PUSH2 0x2504 JUMP JUMPDEST DUP2 ADD SUB SLT PUSH2 0x5D2 JUMPI PUSH1 0x20 SWAP1 MLOAD PUSH2 0x59D JUMP JUMPDEST PUSH1 0x0 DUP1 REVERT JUMPDEST RETURNDATASIZE SWAP2 POP PUSH2 0x5B4 JUMP JUMPDEST PUSH1 0x40 MLOAD SWAP1 RETURNDATASIZE SWAP1 DUP3 RETURNDATACOPY RETURNDATASIZE SWAP1 REVERT JUMPDEST POP CALLVALUE PUSH2 0x22E JUMPI DUP1 PUSH1 0x3 NOT CALLDATASIZE ADD SLT PUSH2 0x22E JUMPI PUSH1 0x20 PUSH1 0x4 SLOAD PUSH1 0x40 MLOAD SWAP1 DUP2 MSTORE RETURN JUMPDEST POP CALLVALUE PUSH2 0x22E JUMPI DUP1 PUSH1 0x3 NOT CALLDATASIZE ADD SLT PUSH2 0x22E JUMPI PUSH1 0x20 PUSH1 0x7 SLOAD PUSH1 0x40 MLOAD SWAP1 DUP2 MSTORE RETURN JUMPDEST POP CALLVALUE PUSH2 0x22E JUMPI PUSH1 0x20 DUP1 PUSH1 0x3 NOT CALLDATASIZE ADD SLT PUSH2 0x54E JUMPI PUSH1 0x4 CALLDATALOAD SWAP1 PUSH2 0x646 PUSH2 0x26D4 JUMP JUMPDEST DUP2 ISZERO PUSH2 0x53C JUMPI CALLER DUP4 MSTORE PUSH1 0x2 DUP2 MSTORE PUSH1 0xF PUSH1 0x40 DUP5 KECCAK256 ADD DUP1 SLOAD DUP4 DUP2 LT PUSH2 0x72D JUMPI DUP4 PUSH2 0x66D SWAP2 PUSH2 0x2752 JUMP JUMPDEST SWAP1 SSTORE PUSH1 0x40 MLOAD PUSH4 0xA9059CBB PUSH1 0xE0 SHL DUP2 MSTORE DUP2 DUP2 DUP1 PUSH2 0x68D DUP7 CALLER PUSH1 0x4 DUP5 ADD PUSH2 0x2737 JUMP JUMPDEST SUB DUP2 DUP8 PUSH32 0x0 PUSH1 0x1 PUSH1 0x1 PUSH1 0xA0 SHL SUB AND GAS CALL SWAP1 DUP2 ISZERO PUSH2 0x51F JUMPI DUP5 SWAP2 PUSH2 0x710 JUMPI JUMPDEST POP ISZERO PUSH2 0x4E0 JUMPI PUSH32 0x12701E4764B73009AB9826933C421483E4280410091FCC760515E0FA99FA766B SWAP1 PUSH1 0x40 MLOAD SWAP3 DUP4 MSTORE CALLER SWAP3 LOG2 PUSH1 0x1 PUSH1 0x0 DUP1 MLOAD PUSH1 0x20 PUSH2 0x349A DUP4 CODECOPY DUP2 MLOAD SWAP2 MSTORE SSTORE DUP1 RETURN JUMPDEST PUSH2 0x727 SWAP2 POP DUP3 RETURNDATASIZE DUP5 GT PUSH2 0x518 JUMPI PUSH2 0x50A DUP2 DUP4 PUSH2 0x2504 JUMP JUMPDEST CODESIZE PUSH2 0x6CA JUMP JUMPDEST PUSH1 0x40 MLOAD PUSH4 0x6DAE8617 PUSH1 0xE1 SHL DUP2 MSTORE PUSH1 0x4 SWAP1 REVERT JUMPDEST POP CALLVALUE PUSH2 0x22E JUMPI DUP1 PUSH1 0x3 NOT CALLDATASIZE ADD SLT PUSH2 0x22E JUMPI PUSH1 0x20 PUSH1 0x40 MLOAD PUSH9 0x15245655B102580000 DUP2 MSTORE RETURN JUMPDEST POP CALLVALUE PUSH2 0x22E JUMPI PUSH1 0x60 CALLDATASIZE PUSH1 0x3 NOT ADD SLT PUSH2 0x22E JUMPI PUSH2 0x77D PUSH2 0x23ED JUMP JUMPDEST PUSH1 0x24 CALLDATALOAD PUSH1 0x1 PUSH1 0x1 PUSH1 0xA0 SHL SUB DUP2 AND SWAP1 SUB PUSH2 0x5D2 JUMPI PUSH1 0x44 CALLDATALOAD ISZERO ISZERO PUSH1 0x44 CALLDATALOAD SUB PUSH2 0x5D2 JUMPI CALLER DUP3 MSTORE PUSH1 0x2 PUSH1 0x20 MSTORE PUSH1 0xFF PUSH1 0x40 DUP4 KECCAK256 SLOAD AND PUSH2 0xAC7 JUMPI PUSH1 0x4 SLOAD PUSH2 0x8AC JUMPI CALLER PUSH1 0x0 SWAP1 DUP2 MSTORE PUSH1 0x2 PUSH1 0x20 DUP2 SWAP1 MSTORE PUSH1 0x40 SWAP1 SWAP2 KECCAK256 DUP1 SLOAD PUSH2 0xFF01 PUSH1 0x1 PUSH1 0xB0 SHL SUB NOT AND PUSH1 0x1 OR DUP2 SSTORE SWAP1 DUP2 ADD DUP1 SLOAD PUSH1 0x1 PUSH1 0x1 PUSH1 0xA8 SHL SUB NOT AND SWAP1 SSTORE PUSH1 0x12 DUP2 ADD DUP1 SLOAD PUSH1 0x1 PUSH1 0x1 PUSH1 0xA0 SHL SUB NOT AND SWAP1 SSTORE TIMESTAMP PUSH1 0x14 SWAP1 SWAP2 ADD SSTORE PUSH1 0x3 SLOAD PUSH1 0x1 PUSH1 0x40 SHL DUP2 LT ISZERO PUSH2 0x896 JUMPI DUP1 PUSH1 0x1 PUSH2 0x825 SWAP3 ADD PUSH1 0x3 SSTORE PUSH2 0x2486 JUMP JUMPDEST DUP2 SLOAD PUSH1 0x1 PUSH1 0x1 PUSH1 0xA0 SHL SUB PUSH1 0x3 SWAP3 SWAP1 SWAP3 SHL SWAP2 DUP3 SHL NOT AND CALLER SWAP1 SWAP2 SHL OR SWAP1 SSTORE PUSH1 0x4 SLOAD PUSH2 0x84D SWAP1 PUSH2 0x25F9 JUMP JUMPDEST PUSH1 0x4 SSTORE JUMPDEST PUSH1 0x40 MLOAD PUSH1 0x44 CALLDATALOAD ISZERO ISZERO DUP2 MSTORE PUSH1 0x1 PUSH1 0x1 PUSH1 0xA0 SHL SUB PUSH1 0x24 CALLDATALOAD DUP2 AND SWAP3 AND SWAP1 CALLER SWAP1 PUSH32 0x34FF37874D7443037A85C6F390FE14F2AE3E8767355DE0E63891AD4367C27539 SWAP1 PUSH1 0x20 SWAP1 LOG4 DUP1 RETURN JUMPDEST PUSH4 0x4E487B71 PUSH1 0xE0 SHL PUSH1 0x0 MSTORE PUSH1 0x41 PUSH1 0x4 MSTORE PUSH1 0x24 PUSH1 0x0 REVERT JUMPDEST PUSH1 0x1 PUSH1 0x1 PUSH1 0xA0 SHL SUB DUP2 AND DUP1 DUP4 MSTORE PUSH1 0x2 PUSH1 0x20 MSTORE PUSH1 0x40 DUP4 KECCAK256 SLOAD PUSH1 0xFF AND ISZERO PUSH2 0xAB5 JUMPI PUSH1 0x24 CALLDATALOAD PUSH1 0x1 PUSH1 0x1 PUSH1 0xA0 SHL SUB AND ISZERO ISZERO DUP1 PUSH2 0xA94 JUMPI JUMPDEST ISZERO PUSH2 0xA8E JUMPI PUSH1 0x24 CALLDATALOAD JUMPDEST PUSH1 0x44 CALLDATALOAD DUP1 PUSH2 0xA6B JUMPI JUMPDEST PUSH2 0xA36 JUMPI PUSH1 0x44 CALLDATALOAD ISZERO DUP1 PUSH2 0xA48 JUMPI JUMPDEST PUSH2 0xA36 JUMPI CALLER PUSH1 0x0 SWAP1 DUP2 MSTORE PUSH1 0x2 PUSH1 0x20 DUP2 SWAP1 MSTORE PUSH1 0x40 SWAP1 SWAP2 KECCAK256 DUP1 SLOAD PUSH2 0xFF01 PUSH1 0x1 PUSH1 0xB0 SHL SUB NOT AND PUSH1 0x10 DUP7 SWAP1 SHL PUSH3 0x10000 PUSH1 0x1 PUSH1 0xB0 SHL SUB AND OR PUSH1 0x1 OR DUP2 SSTORE SWAP1 DUP2 ADD DUP1 SLOAD PUSH1 0x1 PUSH1 0x1 PUSH1 0xA8 SHL SUB NOT AND PUSH1 0x1 PUSH1 0x1 PUSH1 0xA0 SHL SUB SWAP1 SWAP4 AND SWAP3 DUP4 OR PUSH1 0x44 CALLDATALOAD ISZERO ISZERO PUSH1 0xA0 SHL PUSH1 0xFF PUSH1 0xA0 SHL AND OR SWAP1 SSTORE PUSH1 0x12 DUP2 ADD DUP1 SLOAD PUSH1 0x1 PUSH1 0x1 PUSH1 0xA0 SHL SUB NOT SWAP1 DUP2 AND SWAP1 SWAP2 SSTORE TIMESTAMP PUSH1 0x14 SWAP1 SWAP3 ADD SWAP2 SWAP1 SWAP2 SSTORE PUSH1 0x3 SLOAD SWAP1 SWAP2 SWAP1 PUSH1 0x1 PUSH1 0x40 SHL DUP2 LT ISZERO PUSH2 0x896 JUMPI DUP1 PUSH1 0x1 PUSH2 0x9A7 SWAP3 ADD PUSH1 0x3 SSTORE PUSH2 0x2486 JUMP JUMPDEST DUP2 SLOAD PUSH1 0x1 PUSH1 0x1 PUSH1 0xA0 SHL SUB PUSH1 0x3 SWAP3 SWAP1 SWAP3 SHL SWAP2 DUP3 SHL NOT AND CALLER SWAP1 SWAP2 SHL OR SWAP1 SSTORE PUSH1 0x4 SLOAD PUSH2 0x9CF SWAP1 PUSH2 0x25F9 JUMP JUMPDEST PUSH1 0x4 SSTORE PUSH1 0x44 CALLDATALOAD ISZERO PUSH2 0xA1A JUMPI DUP5 MSTORE PUSH1 0x2 PUSH1 0x20 MSTORE PUSH1 0x3 PUSH1 0x40 DUP6 KECCAK256 ADD SWAP1 CALLER SWAP1 DUP3 SLOAD AND OR SWAP1 SSTORE JUMPDEST DUP3 MSTORE PUSH1 0x2 PUSH1 0x20 MSTORE PUSH1 0x1 PUSH1 0x40 DUP4 KECCAK256 ADD PUSH2 0xA0A DUP2 SLOAD PUSH2 0x25F9 JUMP JUMPDEST SWAP1 SSTORE PUSH2 0xA15 CALLER PUSH2 0x261E JUMP JUMPDEST PUSH2 0x851 JUMP JUMPDEST DUP5 MSTORE PUSH1 0x2 PUSH1 0x20 MSTORE PUSH1 0x4 PUSH1 0x40 DUP6 KECCAK256 ADD SWAP1 CALLER SWAP1 DUP3 SLOAD AND OR SWAP1 SSTORE PUSH2 0x9F2 JUMP JUMPDEST PUSH1 0x40 MLOAD PUSH4 0xD5DD5C3D PUSH1 0xE0 SHL DUP2 MSTORE PUSH1 0x4 SWAP1 REVERT JUMPDEST POP PUSH1 0x1 PUSH1 0x1 PUSH1 0xA0 SHL SUB DUP2 DUP2 AND DUP6 MSTORE PUSH1 0x2 PUSH1 0x20 MSTORE PUSH1 0x40 DUP6 KECCAK256 PUSH1 0x4 ADD SLOAD AND ISZERO ISZERO PUSH2 0x8FF JUMP JUMPDEST POP PUSH1 0x1 PUSH1 0x1 PUSH1 0xA0 SHL SUB DUP2 DUP2 AND DUP6 MSTORE PUSH1 0x2 PUSH1 0x20 MSTORE PUSH1 0x40 DUP6 KECCAK256 PUSH1 0x3 ADD SLOAD AND ISZERO ISZERO PUSH2 0x8F1 JUMP JUMPDEST DUP2 PUSH2 0x8E8 JUMP JUMPDEST POP PUSH1 0x24 CALLDATALOAD PUSH1 0x1 PUSH1 0x1 PUSH1 0xA0 SHL SUB AND DUP4 MSTORE PUSH1 0x2 PUSH1 0x20 MSTORE PUSH1 0x40 DUP4 KECCAK256 SLOAD PUSH1 0xFF AND PUSH2 0x8DF JUMP JUMPDEST PUSH1 0x40 MLOAD PUSH4 0x2F212E0D PUSH1 0xE1 SHL DUP2 MSTORE PUSH1 0x4 SWAP1 REVERT JUMPDEST PUSH1 0x40 MLOAD PUSH4 0xEA075BF PUSH1 0xE2 SHL DUP2 MSTORE PUSH1 0x4 SWAP1 REVERT JUMPDEST POP CALLVALUE PUSH2 0x22E JUMPI DUP1 PUSH1 0x3 NOT CALLDATASIZE ADD SLT PUSH2 0x22E JUMPI PUSH1 0x40 MLOAD PUSH32 0x0 PUSH1 0x1 PUSH1 0x1 PUSH1 0xA0 SHL SUB AND DUP2 MSTORE PUSH1 0x20 SWAP1 RETURN JUMPDEST POP CALLVALUE PUSH2 0x22E JUMPI PUSH1 0x20 CALLDATASIZE PUSH1 0x3 NOT ADD SLT PUSH2 0x22E JUMPI PUSH1 0x40 SWAP1 PUSH1 0x1 PUSH1 0x1 PUSH1 0xA0 SHL SUB PUSH2 0xB43 PUSH2 0x23ED JUMP JUMPDEST AND DUP2 MSTORE PUSH1 0x2 PUSH1 0x20 MSTORE KECCAK256 DUP1 PUSH2 0x1C0 MSTORE DUP1 DUP1 DUP1 DUP1 DUP1 DUP1 DUP1 DUP1 DUP1 DUP1 DUP1 DUP1 PUSH2 0xC07 PUSH1 0x15 PUSH1 0xF PUSH1 0xE PUSH1 0xD PUSH1 0xC PUSH1 0xB PUSH1 0xA PUSH1 0x9 PUSH1 0x8 PUSH1 0x7 PUSH1 0x6 PUSH1 0x5 DUP14 SLOAD SWAP14 PUSH1 0x1 DUP2 ADD SLOAD PUSH2 0x280 MSTORE PUSH1 0x2 DUP2 ADD SLOAD PUSH2 0x120 MSTORE PUSH1 0x1 DUP1 PUSH1 0xA0 SHL SUB PUSH1 0x3 DUP3 ADD SLOAD AND PUSH2 0x1A0 MSTORE PUSH1 0x4 PUSH1 0x1 DUP1 PUSH1 0xA0 SHL SUB SWAP2 ADD SLOAD AND SWAP15 ADD SLOAD SWAP15 ADD SLOAD SWAP15 ADD SLOAD SWAP15 ADD SLOAD SWAP15 ADD SLOAD SWAP15 ADD SLOAD SWAP15 ADD SLOAD SWAP15 ADD SLOAD SWAP15 ADD SLOAD SWAP15 ADD SLOAD SWAP15 ADD SLOAD SWAP15 PUSH1 0x10 DUP2 ADD SLOAD PUSH2 0x240 MSTORE PUSH1 0x11 DUP2 ADD SLOAD PUSH2 0x180 MSTORE PUSH1 0x1 DUP1 PUSH1 0xA0 SHL SUB PUSH1 0x12 DUP3 ADD SLOAD AND PUSH1 0xA0 MSTORE PUSH1 0x13 DUP2 ADD SLOAD PUSH2 0x220 MSTORE PUSH1 0x14 DUP2 ADD SLOAD PUSH2 0x140 MSTORE ADD PUSH2 0x2527 JUMP JUMPDEST PUSH2 0x300 MSTORE PUSH2 0xC1A PUSH1 0x16 PUSH2 0x1C0 MLOAD ADD PUSH2 0x2527 JUMP JUMPDEST PUSH2 0x1E0 MSTORE PUSH2 0xC2D PUSH1 0x17 PUSH2 0x1C0 MLOAD ADD PUSH2 0x2527 JUMP JUMPDEST PUSH2 0x260 MSTORE PUSH2 0xC40 PUSH1 0x18 PUSH2 0x1C0 MLOAD ADD PUSH2 0x2527 JUMP JUMPDEST PUSH2 0x2E0 MSTORE PUSH1 0xFF PUSH1 0x19 PUSH2 0x1C0 MLOAD ADD SLOAD AND PUSH2 0x100 MSTORE PUSH1 0x40 MLOAD DUP1 PUSH2 0x200 MSTORE PUSH1 0xFF DUP3 AND ISZERO ISZERO SWAP1 MSTORE PUSH1 0xFF DUP2 PUSH1 0x8 SHR AND ISZERO ISZERO PUSH1 0x20 PUSH2 0x200 MLOAD ADD MSTORE PUSH1 0x1 DUP1 PUSH1 0xA0 SHL SUB SWAP1 PUSH1 0x10 SHR AND PUSH1 0x40 PUSH2 0x200 MLOAD ADD MSTORE PUSH2 0x280 MLOAD PUSH1 0x60 PUSH2 0x200 MLOAD ADD MSTORE PUSH1 0x1 DUP1 PUSH1 0xA0 SHL SUB PUSH2 0x120 MLOAD AND PUSH1 0x80 PUSH2 0x200 MLOAD ADD MSTORE PUSH1 0xFF PUSH2 0x120 MLOAD PUSH1 0xA0 SHR AND ISZERO ISZERO PUSH1 0xA0 PUSH2 0x200 MLOAD ADD MSTORE PUSH2 0x1A0 MLOAD PUSH1 0xC0 PUSH2 0x200 MLOAD ADD MSTORE PUSH1 0xE0 PUSH2 0x200 MLOAD ADD MSTORE PUSH2 0x100 PUSH2 0x200 MLOAD ADD MSTORE PUSH2 0x120 PUSH2 0x200 MLOAD ADD MSTORE PUSH2 0x140 PUSH2 0x200 MLOAD ADD MSTORE PUSH2 0x160 PUSH2 0x200 MLOAD ADD MSTORE PUSH2 0x180 PUSH2 0x200 MLOAD ADD MSTORE PUSH2 0x1A0 PUSH2 0x200 MLOAD ADD MSTORE PUSH2 0x1C0 PUSH2 0x200 MLOAD ADD MSTORE PUSH2 0x1E0 PUSH2 0x200 MLOAD ADD MSTORE PUSH2 0x200 DUP1 MLOAD ADD MSTORE PUSH2 0x220 PUSH2 0x200 MLOAD ADD MSTORE PUSH2 0x240 PUSH2 0x200 MLOAD ADD MSTORE PUSH2 0x240 MLOAD PUSH2 0x260 PUSH2 0x200 MLOAD ADD MSTORE PUSH2 0x180 MLOAD PUSH2 0x280 PUSH2 0x200 MLOAD ADD MSTORE PUSH1 0xA0 MLOAD PUSH2 0x2A0 PUSH2 0x200 MLOAD ADD MSTORE PUSH2 0x220 MLOAD PUSH2 0x2C0 PUSH2 0x200 MLOAD ADD MSTORE PUSH2 0x140 MLOAD PUSH2 0x2E0 PUSH2 0x200 MLOAD ADD MSTORE PUSH2 0xDDA PUSH2 0xDC4 PUSH2 0xDAE PUSH2 0xD98 PUSH2 0x3A0 DUP1 PUSH2 0x300 PUSH2 0x200 MLOAD ADD MSTORE PUSH2 0x200 MLOAD ADD PUSH2 0x300 MLOAD PUSH2 0x2403 JUMP JUMPDEST PUSH2 0x200 MLOAD PUSH2 0x320 DUP2 DUP4 SUB SWAP2 ADD MSTORE PUSH2 0x1E0 MLOAD PUSH2 0x2403 JUMP JUMPDEST PUSH2 0x200 MLOAD PUSH2 0x340 DUP2 DUP4 SUB SWAP2 ADD MSTORE PUSH2 0x260 MLOAD PUSH2 0x2403 JUMP JUMPDEST PUSH2 0x200 MLOAD PUSH2 0x360 DUP2 DUP4 SUB SWAP2 ADD MSTORE PUSH2 0x2E0 MLOAD PUSH2 0x2403 JUMP JUMPDEST PUSH2 0x100 MLOAD ISZERO ISZERO PUSH2 0x380 PUSH2 0x200 MLOAD ADD MSTORE PUSH2 0x200 MLOAD DUP1 SWAP2 SUB SWAP1 RETURN JUMPDEST POP CALLVALUE PUSH2 0x22E JUMPI PUSH1 0x20 CALLDATASIZE PUSH1 0x3 NOT ADD SLT PUSH2 0x22E JUMPI PUSH1 0x4 CALLDATALOAD SWAP1 PUSH1 0x3 SLOAD DUP3 LT ISZERO PUSH2 0x22E JUMPI PUSH1 0x20 PUSH2 0xE1E DUP4 PUSH2 0x2486 JUMP JUMPDEST SWAP1 SLOAD PUSH1 0x40 MLOAD PUSH1 0x3 SWAP3 SWAP1 SWAP3 SHL SHR PUSH1 0x1 PUSH1 0x1 PUSH1 0xA0 SHL SUB AND DUP2 MSTORE RETURN JUMPDEST POP CALLVALUE PUSH2 0x22E JUMPI PUSH1 0x40 CALLDATASIZE PUSH1 0x3 NOT ADD SLT PUSH2 0x22E JUMPI PUSH2 0xE51 PUSH2 0x23ED JUMP JUMPDEST PUSH1 0x24 CALLDATALOAD SWAP1 DUP2 ISZERO ISZERO DUP3 SUB PUSH2 0x5D2 JUMPI PUSH2 0xE66 PUSH2 0x26D4 JUMP JUMPDEST PUSH1 0x1 PUSH1 0x1 PUSH1 0xA0 SHL SUB DUP2 DUP2 AND SWAP3 SWAP1 DUP4 ISZERO PUSH2 0x397 JUMPI CALLER DUP6 MSTORE PUSH1 0x2 SWAP3 PUSH1 0x20 SWAP4 DUP1 DUP6 MSTORE PUSH1 0x40 DUP8 KECCAK256 SWAP2 DUP3 SLOAD SWAP2 PUSH1 0xFF DUP4 PUSH1 0x8 SHR AND ISZERO PUSH2 0x1118 JUMPI PUSH1 0xD DUP5 ADD DUP1 SLOAD SWAP1 PUSH9 0x70C1CC73B00C80000 DUP1 DUP4 LT PUSH2 0x1106 JUMPI DUP11 DUP13 MSTORE DUP4 DUP11 MSTORE PUSH1 0xFF PUSH1 0x40 DUP14 KECCAK256 SLOAD AND PUSH2 0x10C1 JUMPI PUSH9 0x70C1CC73B00C7FFFF NOT DUP4 ADD SWAP3 DUP4 GT PUSH2 0x10AD JUMPI DUP1 DUP4 LT PUSH2 0x10A2 JUMPI PUSH2 0xEE9 SWAP1 DUP1 SWAP4 PUSH2 0x2752 JUMP JUMPDEST SWAP1 SSTORE PUSH1 0xC DUP6 ADD PUSH2 0xEFA DUP3 DUP3 SLOAD PUSH2 0x275F JUMP JUMPDEST SWAP1 SSTORE PUSH2 0xF0B PUSH1 0xE DUP7 ADD SWAP2 DUP3 SLOAD PUSH2 0x275F JUMP JUMPDEST SWAP1 SSTORE PUSH9 0x15245655B102580000 PUSH1 0xB DUP6 ADD SSTORE PUSH2 0xF2C DUP6 DUP5 PUSH1 0x10 SHR AND SWAP7 CALLER PUSH2 0x2EDE JUMP JUMPDEST PUSH1 0x0 DUP11 DUP2 MSTORE DUP4 DUP11 MSTORE PUSH1 0x40 SWAP1 KECCAK256 DUP1 SLOAD PUSH2 0xFF01 PUSH1 0x1 PUSH1 0xB0 SHL SUB NOT AND PUSH3 0x10000 PUSH1 0x1 PUSH1 0xB0 SHL SUB SWAP1 SWAP7 AND SWAP6 SWAP1 SWAP6 OR PUSH1 0x1 OR DUP6 SSTORE DUP5 DUP4 ADD DUP1 SLOAD PUSH1 0x1 PUSH1 0x1 PUSH1 0xA8 SHL SUB NOT AND SWAP3 DUP9 AND SWAP3 DUP4 OR DUP3 ISZERO ISZERO PUSH1 0xA0 SHL PUSH1 0xFF PUSH1 0xA0 SHL AND OR SWAP1 SSTORE PUSH1 0x12 DUP6 ADD DUP1 SLOAD PUSH1 0x1 PUSH1 0x1 PUSH1 0xA0 SHL SUB NOT SWAP1 DUP2 AND CALLER OR SWAP1 SWAP2 SSTORE TIMESTAMP PUSH1 0x14 SWAP1 SWAP7 ADD SWAP6 SWAP1 SWAP6 SSTORE PUSH1 0x3 SLOAD SWAP1 SWAP8 SWAP1 SWAP5 SWAP1 SWAP2 PUSH1 0x1 PUSH1 0x40 SHL DUP7 LT ISZERO PUSH2 0x896 JUMPI PUSH32 0x30016ED357540281A6CFF6143637E72B48E105D85D15DF66B0AAFFBD23790240 SWAP9 PUSH1 0x13 SWAP9 DUP13 PUSH2 0xFEE DUP10 PUSH1 0x1 PUSH2 0x103E SWAP12 ADD PUSH1 0x3 SSTORE PUSH2 0x2486 JUMP JUMPDEST SWAP1 SWAP3 DUP4 SLOAD SWAP2 PUSH1 0x3 SHL SWAP3 DUP4 SHL SWAP3 SHL NOT AND OR SWAP1 SSTORE PUSH2 0x100B PUSH1 0x4 SLOAD PUSH2 0x25F9 JUMP JUMPDEST PUSH1 0x4 SSTORE ISZERO PUSH2 0x1089 JUMPI DUP12 MSTORE DUP3 DUP10 MSTORE DUP10 PUSH1 0x3 PUSH1 0x40 DUP14 KECCAK256 ADD SWAP2 DUP3 SLOAD AND OR SWAP1 SSTORE JUMPDEST DUP1 PUSH2 0x106B JUMPI JUMPDEST POP POP PUSH2 0x1039 DUP2 PUSH2 0x261E JUMP JUMPDEST PUSH2 0x2790 JUMP JUMPDEST ADD SWAP2 PUSH2 0x104A DUP4 SLOAD PUSH2 0x25F9 JUMP JUMPDEST DUP1 SWAP4 SSTORE PUSH1 0x40 MLOAD SWAP3 DUP4 MSTORE CALLER SWAP3 LOG3 PUSH1 0x1 PUSH1 0x0 DUP1 MLOAD PUSH1 0x20 PUSH2 0x349A DUP4 CODECOPY DUP2 MLOAD SWAP2 MSTORE SSTORE DUP1 RETURN JUMPDEST DUP10 MSTORE DUP7 MSTORE PUSH1 0x1 PUSH1 0x40 DUP10 KECCAK256 ADD PUSH2 0x1080 DUP2 SLOAD PUSH2 0x25F9 JUMP JUMPDEST SWAP1 SSTORE CODESIZE DUP1 PUSH2 0x102E JUMP JUMPDEST DUP12 MSTORE DUP3 DUP10 MSTORE DUP10 PUSH1 0x4 PUSH1 0x40 DUP14 KECCAK256 ADD SWAP2 DUP3 SLOAD AND OR SWAP1 SSTORE PUSH2 0x1028 JUMP JUMPDEST POP PUSH2 0xEE9 DUP3 DUP1 PUSH2 0x2752 JUMP JUMPDEST PUSH4 0x4E487B71 PUSH1 0xE0 SHL DUP13 MSTORE PUSH1 0x11 PUSH1 0x4 MSTORE PUSH1 0x24 DUP13 REVERT JUMPDEST PUSH1 0x40 MLOAD PUSH3 0x461BCD PUSH1 0xE5 SHL DUP2 MSTORE PUSH1 0x4 DUP2 ADD DUP12 SWAP1 MSTORE PUSH1 0x1E PUSH1 0x24 DUP3 ADD MSTORE PUSH32 0x5375622D6163636F756E7420616C726561647920726567697374657265640000 PUSH1 0x44 DUP3 ADD MSTORE PUSH1 0x64 SWAP1 REVERT JUMPDEST PUSH1 0x40 MLOAD PUSH4 0x7DB32BD PUSH1 0xE3 SHL DUP2 MSTORE PUSH1 0x4 SWAP1 REVERT JUMPDEST PUSH1 0x40 MLOAD PUSH3 0x461BCD PUSH1 0xE5 SHL DUP2 MSTORE PUSH1 0x4 DUP2 ADD DUP9 SWAP1 MSTORE PUSH1 0xA PUSH1 0x24 DUP3 ADD MSTORE PUSH10 0x4E6F7420616374697665 PUSH1 0xB0 SHL PUSH1 0x44 DUP3 ADD MSTORE PUSH1 0x64 SWAP1 REVERT JUMPDEST POP CALLVALUE PUSH2 0x22E JUMPI DUP1 PUSH1 0x3 NOT CALLDATASIZE ADD SLT PUSH2 0x22E JUMPI PUSH1 0x20 PUSH1 0x40 MLOAD PUSH1 0xA DUP2 MSTORE RETURN JUMPDEST POP CALLVALUE PUSH2 0x22E JUMPI DUP1 PUSH1 0x3 NOT CALLDATASIZE ADD SLT PUSH2 0x22E JUMPI SLOAD PUSH1 0x40 MLOAD PUSH1 0x1 PUSH1 0x1 PUSH1 0xA0 SHL SUB SWAP1 SWAP2 AND DUP2 MSTORE PUSH1 0x20 SWAP1 RETURN JUMPDEST POP CALLVALUE PUSH2 0x22E JUMPI PUSH2 0x119C CALLDATASIZE PUSH2 0x2443 JUMP JUMPDEST PUSH2 0x11A4 PUSH2 0x25CD JUMP JUMPDEST PUSH2 0x11AC PUSH2 0x26D4 JUMP JUMPDEST PUSH1 0x9 SWAP1 PUSH1 0xFF DUP3 SLOAD AND ISZERO PUSH2 0x1399 JUMPI PUSH2 0x11C3 SWAP1 DUP4 PUSH2 0x275F JUMP JUMPDEST SWAP1 PUSH1 0x3 DUP1 SLOAD DUP1 DUP5 GT PUSH2 0x1391 JUMPI JUMPDEST POP DUP5 SWAP3 DUP5 JUMPDEST DUP2 DUP2 LT PUSH2 0x1351 JUMPI POP PUSH1 0x8 SWAP2 DUP3 SLOAD SWAP6 DUP6 ISZERO ISZERO DUP1 PUSH2 0x1348 JUMPI JUMPDEST ISZERO PUSH2 0x132F JUMPI DUP1 JUMPDEST DUP4 DUP2 LT PUSH2 0x129A JUMPI POP SWAP1 DUP8 SWAP4 SWAP3 SWAP2 JUMPDEST DUP3 DUP2 LT PUSH2 0x125A JUMPI DUP5 PUSH32 0x7F4A5B69BEA14A6FC05326671A02E90D4A88855C83A18529C260057B1BF61A85 PUSH1 0x40 DUP11 DUP11 DUP11 DUP6 DUP11 SSTORE PUSH1 0xFF NOT DUP2 SLOAD AND SWAP1 SSTORE DUP3 MLOAD SWAP2 DUP3 MSTORE PUSH1 0x20 DUP3 ADD MSTORE LOG1 PUSH1 0x1 PUSH1 0x0 DUP1 MLOAD PUSH1 0x20 PUSH2 0x349A DUP4 CODECOPY DUP2 MLOAD SWAP2 MSTORE SSTORE DUP1 RETURN JUMPDEST PUSH2 0x1290 SWAP2 SWAP3 SWAP4 SWAP5 POP PUSH2 0x126B DUP2 PUSH2 0x2486 JUMP JUMPDEST SWAP1 SLOAD SWAP1 DUP5 SHL SHR PUSH1 0x1 PUSH1 0x1 PUSH1 0xA0 SHL SUB AND DUP10 MSTORE PUSH1 0x2 PUSH1 0x20 MSTORE PUSH1 0x40 DUP10 KECCAK256 PUSH1 0x11 ADD DUP10 SWAP1 SSTORE PUSH2 0x25F9 JUMP JUMPDEST SWAP1 DUP8 SWAP4 SWAP3 SWAP2 PUSH2 0x1201 JUMP JUMPDEST DUP1 DUP10 PUSH2 0x12A8 PUSH2 0x131D SWAP4 PUSH2 0x2486 JUMP JUMPDEST SWAP1 SLOAD SWAP1 DUP7 SHL SHR PUSH1 0x1 PUSH1 0x1 PUSH1 0xA0 SHL SUB AND DUP1 DUP3 MSTORE PUSH1 0x2 PUSH1 0x20 DUP2 DUP2 MSTORE PUSH1 0x40 DUP5 KECCAK256 PUSH1 0x11 ADD SLOAD SWAP2 SWAP3 SWAP1 SWAP2 DUP11 SWAP1 DUP15 SWAP1 DUP15 DUP2 ISZERO PUSH2 0x1322 JUMPI PUSH2 0x12E7 PUSH2 0x12EC SWAP3 PUSH1 0x40 SWAP5 PUSH2 0x2704 JUMP JUMPDEST PUSH2 0x2717 JUMP JUMPDEST SWAP6 DUP4 DUP2 MSTORE DUP6 DUP6 MSTORE KECCAK256 ADD PUSH2 0x1300 DUP6 DUP3 SLOAD PUSH2 0x275F JUMP JUMPDEST SWAP1 SSTORE DUP14 MSTORE MSTORE PUSH2 0x1316 DUP9 PUSH1 0x40 DUP14 KECCAK256 ADD SWAP2 DUP3 SLOAD PUSH2 0x275F JUMP JUMPDEST SWAP1 SSTORE PUSH2 0x25F9 JUMP JUMPDEST PUSH2 0x11F3 JUMP JUMPDEST POP POP POP POP POP POP POP POP PUSH2 0x25F9 JUMP JUMPDEST PUSH2 0x133B DUP8 PUSH1 0x7 SLOAD PUSH2 0x275F JUMP JUMPDEST PUSH1 0x7 SSTORE SWAP1 DUP8 SWAP4 SWAP3 SWAP2 PUSH2 0x1201 JUMP JUMPDEST POP DUP7 ISZERO ISZERO PUSH2 0x11EC JUMP JUMPDEST SWAP4 PUSH2 0x1386 PUSH2 0x138C SWAP2 PUSH2 0x1362 DUP8 PUSH2 0x2486 JUMP JUMPDEST SWAP1 SLOAD SWAP1 DUP7 SHL SHR PUSH1 0x1 PUSH1 0x1 PUSH1 0xA0 SHL SUB AND DUP10 MSTORE PUSH1 0x2 PUSH1 0x20 MSTORE PUSH1 0x40 DUP10 KECCAK256 PUSH1 0x11 ADD SLOAD SWAP1 PUSH2 0x275F JUMP JUMPDEST SWAP5 PUSH2 0x25F9 JUMP JUMPDEST PUSH2 0x11D5 JUMP JUMPDEST SWAP3 POP CODESIZE PUSH2 0x11D0 JUMP JUMPDEST PUSH1 0x40 MLOAD PUSH4 0x418826BF PUSH1 0xE1 SHL DUP2 MSTORE PUSH1 0x4 SWAP1 REVERT JUMPDEST POP CALLVALUE PUSH2 0x22E JUMPI DUP1 PUSH1 0x3 NOT CALLDATASIZE ADD SLT PUSH2 0x22E JUMPI PUSH1 0x20 PUSH1 0x5 SLOAD PUSH1 0x40 MLOAD SWAP1 DUP2 MSTORE RETURN JUMPDEST POP CALLVALUE PUSH2 0x22E JUMPI DUP1 PUSH1 0x3 NOT CALLDATASIZE ADD SLT PUSH2 0x22E JUMPI PUSH1 0x20 PUSH1 0x40 MLOAD PUSH1 0x28 DUP2 MSTORE RETURN JUMPDEST POP CALLVALUE PUSH2 0x22E JUMPI DUP1 PUSH1 0x3 NOT CALLDATASIZE ADD SLT PUSH2 0x22E JUMPI PUSH2 0x13FE PUSH2 0x25CD JUMP JUMPDEST PUSH1 0x0 DUP1 SLOAD PUSH1 0x1 PUSH1 0x1 PUSH1 0xA0 SHL SUB NOT DUP2 AND DUP3 SSTORE PUSH1 0x1 PUSH1 0x1 PUSH1 0xA0 SHL SUB AND PUSH1 0x0 DUP1 MLOAD PUSH1 0x20 PUSH2 0x345A DUP4 CODECOPY DUP2 MLOAD SWAP2 MSTORE DUP3 DUP1 LOG3 DUP1 RETURN JUMPDEST POP CALLVALUE PUSH2 0x22E JUMPI DUP1 PUSH1 0x3 NOT CALLDATASIZE ADD SLT PUSH2 0x22E JUMPI PUSH1 0x1 SLOAD PUSH1 0x40 MLOAD PUSH3 0x3144BD PUSH1 0xE3 SHL DUP2 MSTORE PUSH1 0x1 PUSH1 0x1 PUSH1 0xA0 SHL SUB SWAP1 SWAP2 AND SWAP2 PUSH1 0x20 DUP1 DUP4 PUSH1 0x4 DUP2 DUP8 GAS STATICCALL SWAP3 DUP4 ISZERO PUSH2 0x1505 JUMPI DUP3 SWAP4 PUSH2 0x14D4 JUMPI JUMPDEST POP DUP1 PUSH1 0x4 SWAP5 PUSH1 0x40 MLOAD SWAP6 DUP7 DUP1 SWAP3 PUSH4 0x10F4CBA7 PUSH1 0xE2 SHL DUP3 MSTORE GAS STATICCALL SWAP2 DUP3 ISZERO PUSH2 0x5DF JUMPI SWAP2 PUSH2 0x14A4 JUMPI JUMPDEST PUSH1 0x40 DUP1 SWAP5 POP MLOAD SWAP3 DUP4 MSTORE DUP3 ADD MSTORE RETURN JUMPDEST DUP1 SWAP2 POP DUP4 DUP2 RETURNDATASIZE DUP4 GT PUSH2 0x14CD JUMPI JUMPDEST PUSH2 0x14BB DUP2 DUP4 PUSH2 0x2504 JUMP JUMPDEST DUP2 ADD SUB SLT PUSH2 0x5D2 JUMPI PUSH1 0x40 SWAP3 MLOAD SWAP1 PUSH2 0x1496 JUMP JUMPDEST POP RETURNDATASIZE PUSH2 0x14B1 JUMP JUMPDEST SWAP4 SWAP3 POP DUP1 DUP5 DUP2 RETURNDATASIZE DUP4 GT PUSH2 0x14FE JUMPI JUMPDEST PUSH2 0x14EC DUP2 DUP4 PUSH2 0x2504 JUMP JUMPDEST DUP2 ADD SUB SLT PUSH2 0x5D2 JUMPI SWAP3 MLOAD SWAP2 SWAP3 DUP1 PUSH2 0x1471 JUMP JUMPDEST POP RETURNDATASIZE PUSH2 0x14E2 JUMP JUMPDEST PUSH1 0x40 MLOAD RETURNDATASIZE DUP5 DUP3 RETURNDATACOPY RETURNDATASIZE SWAP1 REVERT JUMPDEST POP CALLVALUE PUSH2 0x22E JUMPI PUSH1 0x20 CALLDATASIZE PUSH1 0x3 NOT ADD SLT PUSH2 0x22E JUMPI PUSH1 0x40 SWAP1 PUSH1 0x1 PUSH1 0x1 PUSH1 0xA0 SHL SUB PUSH2 0x1535 PUSH2 0x23ED JUMP JUMPDEST AND DUP2 MSTORE PUSH1 0x2 PUSH1 0x20 MSTORE KECCAK256 DUP1 DUP1 DUP1 DUP1 DUP1 DUP1 DUP1 DUP1 DUP1 DUP1 DUP1 DUP1 DUP1 SLOAD PUSH1 0x1 DUP3 ADD SLOAD PUSH2 0x2A0 MSTORE PUSH1 0x2 DUP3 ADD SLOAD PUSH2 0x2C0 MSTORE PUSH1 0x14 PUSH1 0x7 PUSH1 0x11 PUSH1 0xF PUSH1 0xD PUSH1 0xC PUSH1 0xB PUSH1 0xA PUSH1 0x9 PUSH1 0x8 PUSH1 0x6 PUSH1 0x5 DUP14 PUSH1 0x3 PUSH1 0x1 DUP1 PUSH1 0xA0 SHL SUB SWAP2 ADD SLOAD AND SWAP14 PUSH1 0x4 PUSH1 0x1 DUP1 PUSH1 0xA0 SHL SUB SWAP2 ADD SLOAD AND SWAP15 ADD SLOAD SWAP15 ADD SLOAD SWAP15 ADD SLOAD SWAP15 ADD SLOAD SWAP15 ADD SLOAD SWAP15 ADD SLOAD SWAP15 ADD SLOAD SWAP15 ADD SLOAD SWAP15 ADD SLOAD SWAP15 ADD SLOAD SWAP15 ADD SLOAD SWAP15 PUSH1 0x1 DUP1 PUSH1 0xA0 SHL SUB PUSH1 0x12 DUP3 ADD SLOAD AND PUSH1 0xE0 MSTORE PUSH1 0x13 DUP2 ADD SLOAD PUSH1 0xC0 MSTORE ADD SLOAD PUSH1 0x80 MSTORE PUSH1 0x40 MLOAD DUP1 PUSH2 0x160 MSTORE PUSH1 0xFF DUP3 AND ISZERO ISZERO SWAP1 MSTORE PUSH1 0xFF DUP2 PUSH1 0x8 SHR AND ISZERO ISZERO PUSH1 0x20 PUSH2 0x160 MLOAD ADD MSTORE PUSH1 0x1 DUP1 PUSH1 0xA0 SHL SUB SWAP1 PUSH1 0x10 SHR AND PUSH1 0x40 PUSH2 0x160 MLOAD ADD MSTORE PUSH2 0x2A0 MLOAD PUSH1 0x60 PUSH2 0x160 MLOAD ADD MSTORE PUSH1 0x1 DUP1 PUSH1 0xA0 SHL SUB PUSH2 0x2C0 MLOAD AND PUSH1 0x80 PUSH2 0x160 MLOAD ADD MSTORE PUSH1 0xFF PUSH2 0x2C0 MLOAD PUSH1 0xA0 SHR AND ISZERO ISZERO PUSH1 0xA0 PUSH2 0x160 MLOAD ADD MSTORE PUSH1 0xC0 PUSH2 0x160 MLOAD ADD MSTORE PUSH1 0xE0 PUSH2 0x160 MLOAD ADD MSTORE PUSH2 0x100 PUSH2 0x160 MLOAD ADD MSTORE PUSH2 0x120 PUSH2 0x160 MLOAD ADD MSTORE PUSH2 0x140 PUSH2 0x160 MLOAD ADD MSTORE PUSH2 0x160 DUP1 MLOAD ADD MSTORE PUSH2 0x180 PUSH2 0x160 MLOAD ADD MSTORE PUSH2 0x1A0 PUSH2 0x160 MLOAD ADD MSTORE PUSH2 0x1C0 PUSH2 0x160 MLOAD ADD MSTORE PUSH2 0x1E0 PUSH2 0x160 MLOAD ADD MSTORE PUSH2 0x200 PUSH2 0x160 MLOAD ADD MSTORE PUSH2 0x220 PUSH2 0x160 MLOAD ADD MSTORE PUSH2 0x240 PUSH2 0x160 MLOAD ADD MSTORE PUSH1 0xE0 MLOAD PUSH2 0x260 PUSH2 0x160 MLOAD ADD MSTORE PUSH1 0xC0 MLOAD PUSH2 0x280 PUSH2 0x160 MLOAD ADD MSTORE PUSH1 0x80 MLOAD PUSH2 0x2A0 PUSH2 0x160 MLOAD ADD MSTORE PUSH2 0x2C0 PUSH2 0x160 MLOAD RETURN JUMPDEST POP CALLVALUE PUSH2 0x22E JUMPI PUSH1 0x20 DUP1 PUSH1 0x3 NOT CALLDATASIZE ADD SLT PUSH2 0x54E JUMPI PUSH1 0x4 CALLDATALOAD SWAP1 PUSH2 0x16F7 PUSH2 0x26D4 JUMP JUMPDEST DUP2 ISZERO PUSH2 0x53C JUMPI CALLER DUP4 MSTORE PUSH1 0x2 DUP2 MSTORE PUSH1 0x40 DUP4 KECCAK256 SWAP1 PUSH1 0xFF DUP3 SLOAD PUSH1 0x8 SHR AND ISZERO PUSH2 0x19DC JUMPI PUSH1 0x8 DUP3 ADD DUP1 SLOAD DUP5 DUP2 LT PUSH2 0x19CA JUMPI DUP5 PUSH2 0x172D SWAP2 PUSH2 0x2752 JUMP JUMPDEST SWAP1 SSTORE PUSH1 0xA DUP3 ADD PUSH2 0x173E DUP5 DUP3 SLOAD PUSH2 0x275F JUMP JUMPDEST SWAP1 SSTORE PUSH1 0x40 MLOAD PUSH4 0x70A08231 PUSH1 0xE0 SHL DUP1 DUP3 MSTORE ADDRESS PUSH1 0x4 DUP4 ADD MSTORE PUSH1 0x1 PUSH1 0x1 PUSH1 0xA0 SHL SUB PUSH32 0x0 DUP2 AND SWAP3 SWAP2 SWAP1 DUP8 SWAP1 DUP6 DUP5 PUSH1 0x24 DUP2 DUP9 GAS STATICCALL SWAP4 DUP5 ISZERO PUSH2 0x1505 JUMPI DUP3 SWAP5 PUSH2 0x199B JUMPI JUMPDEST POP PUSH1 0x1 SLOAD AND DUP1 EXTCODESIZE ISZERO PUSH2 0x54E JUMPI DUP2 SWAP1 PUSH1 0x24 PUSH1 0x40 MLOAD DUP1 SWAP5 DUP2 SWAP4 PUSH4 0x72424D99 PUSH1 0xE1 SHL DUP4 MSTORE DUP13 PUSH1 0x4 DUP5 ADD MSTORE GAS CALL DUP1 ISZERO PUSH2 0x1990 JUMPI PUSH2 0x197D JUMPI JUMPDEST POP DUP4 SWAP1 PUSH1 0x24 PUSH1 0x40 MLOAD DUP1 SWAP6 DUP2 SWAP4 DUP3 MSTORE ADDRESS PUSH1 0x4 DUP4 ADD MSTORE GAS STATICCALL DUP1 ISZERO PUSH2 0x1972 JUMPI DUP7 SWAP1 PUSH2 0x1943 JUMPI JUMPDEST PUSH2 0x17FB SWAP3 POP PUSH2 0x2752 JUMP JUMPDEST SWAP2 PUSH1 0xA DUP4 MUL DUP4 DUP2 DIV PUSH1 0xA EQ DUP5 ISZERO OR ISZERO PUSH2 0x192F JUMPI PUSH32 0x8F7262D5A031D4D671E1FDB0CDDCD26D37185226F9E82F2F18877141AC1963EB SWAP4 SWAP3 SWAP2 PUSH2 0x1843 PUSH1 0x64 PUSH2 0x1904 SWAP4 DIV DUP1 SWAP6 PUSH2 0x2752 JUMP JUMPDEST SWAP3 PUSH1 0xF DUP3 ADD PUSH2 0x1853 DUP7 DUP3 SLOAD PUSH2 0x275F JUMP JUMPDEST SWAP1 SSTORE PUSH1 0x10 DUP3 ADD PUSH2 0x1864 DUP7 DUP3 SLOAD PUSH2 0x275F JUMP JUMPDEST SWAP1 SSTORE PUSH32 0x2B1D2104E84DD4DABB0CCA024171F783AB1E1C9DC1AF9D60A2361596653A99C4 PUSH1 0x40 MLOAD SWAP2 DUP7 DUP4 MSTORE CALLER SWAP3 LOG2 PUSH1 0xB DUP2 ADD DUP1 SLOAD SWAP2 DUP9 DUP4 ISZERO PUSH2 0x1922 JUMPI POP PUSH1 0xD SWAP1 DUP4 DUP7 GT ISZERO PUSH2 0x191C JUMPI DUP4 JUMPDEST DUP1 SWAP4 PUSH2 0x18D4 DUP3 PUSH2 0x18BD DUP2 DUP12 PUSH2 0x2752 JUMP JUMPDEST SWAP8 PUSH1 0xC DUP7 ADD PUSH2 0x18CD DUP4 DUP3 SLOAD PUSH2 0x275F JUMP JUMPDEST SWAP1 SSTORE PUSH2 0x2752 JUMP JUMPDEST SWAP1 SSTORE PUSH2 0x18E5 PUSH1 0xE DUP4 ADD SWAP2 DUP3 SLOAD PUSH2 0x275F JUMP JUMPDEST SWAP1 SSTORE JUMPDEST ADD PUSH2 0x18F4 DUP4 DUP3 SLOAD PUSH2 0x275F JUMP JUMPDEST SWAP1 SSTORE PUSH1 0x40 MLOAD SWAP5 DUP6 SWAP5 CALLER SWAP9 DUP7 PUSH2 0x276C JUMP JUMPDEST SUB SWAP1 LOG2 PUSH1 0x1 PUSH1 0x0 DUP1 MLOAD PUSH1 0x20 PUSH2 0x349A DUP4 CODECOPY DUP2 MLOAD SWAP2 MSTORE SSTORE DUP1 RETURN JUMPDEST DUP6 PUSH2 0x18AD JUMP JUMPDEST SWAP2 POP SWAP2 POP PUSH1 0xD DUP5 SWAP3 PUSH2 0x18E8 JUMP JUMPDEST PUSH4 0x4E487B71 PUSH1 0xE0 SHL DUP7 MSTORE PUSH1 0x11 PUSH1 0x4 MSTORE PUSH1 0x24 DUP7 REVERT JUMPDEST POP DUP3 DUP3 DUP2 RETURNDATASIZE DUP4 GT PUSH2 0x196B JUMPI JUMPDEST PUSH2 0x1959 DUP2 DUP4 PUSH2 0x2504 JUMP JUMPDEST DUP2 ADD SUB SLT PUSH2 0x5D2 JUMPI PUSH2 0x17FB SWAP2 MLOAD PUSH2 0x17F1 JUMP JUMPDEST POP RETURNDATASIZE PUSH2 0x194F JUMP JUMPDEST PUSH1 0x40 MLOAD RETURNDATASIZE DUP9 DUP3 RETURNDATACOPY RETURNDATASIZE SWAP1 REVERT JUMPDEST SWAP7 PUSH2 0x1989 DUP6 SWAP3 SWAP9 PUSH2 0x24F1 JUMP JUMPDEST SWAP7 SWAP1 PUSH2 0x17CE JUMP JUMPDEST PUSH1 0x40 MLOAD RETURNDATASIZE DUP11 DUP3 RETURNDATACOPY RETURNDATASIZE SWAP1 REVERT JUMPDEST SWAP1 SWAP4 POP DUP6 DUP2 DUP2 RETURNDATASIZE DUP4 GT PUSH2 0x19C3 JUMPI JUMPDEST PUSH2 0x19B3 DUP2 DUP4 PUSH2 0x2504 JUMP JUMPDEST DUP2 ADD SUB SLT PUSH2 0x54E JUMPI MLOAD SWAP3 CODESIZE PUSH2 0x179A JUMP JUMPDEST POP RETURNDATASIZE PUSH2 0x19A9 JUMP JUMPDEST PUSH1 0x40 MLOAD PUSH4 0x208975E7 PUSH1 0xE2 SHL DUP2 MSTORE PUSH1 0x4 SWAP1 REVERT JUMPDEST PUSH1 0x40 MLOAD PUSH4 0xABA47339 PUSH1 0xE0 SHL DUP2 MSTORE PUSH1 0x4 SWAP1 REVERT JUMPDEST POP CALLVALUE PUSH2 0x22E JUMPI PUSH1 0x80 CALLDATASIZE PUSH1 0x3 NOT ADD SLT PUSH2 0x22E JUMPI PUSH1 0x4 CALLDATALOAD PUSH1 0x1 PUSH1 0x1 PUSH1 0x40 SHL SUB DUP2 GT PUSH2 0x54E JUMPI PUSH2 0x1A1F SWAP1 CALLDATASIZE SWAP1 PUSH1 0x4 ADD PUSH2 0x2459 JUMP JUMPDEST SWAP2 SWAP1 PUSH1 0x24 CALLDATALOAD PUSH1 0x1 PUSH1 0x1 PUSH1 0x40 SHL SUB DUP2 GT PUSH2 0x1FBD JUMPI PUSH2 0x1A40 SWAP1 CALLDATASIZE SWAP1 PUSH1 0x4 ADD PUSH2 0x2459 JUMP JUMPDEST PUSH1 0x44 CALLDATALOAD PUSH1 0x1 PUSH1 0x1 PUSH1 0x40 SHL SUB DUP2 GT PUSH2 0x1FB9 JUMPI PUSH2 0x1A5F SWAP1 CALLDATASIZE SWAP1 PUSH1 0x4 ADD PUSH2 0x2459 JUMP JUMPDEST SWAP1 SWAP2 PUSH1 0x64 CALLDATALOAD PUSH1 0x1 PUSH1 0x1 PUSH1 0x40 SHL SUB DUP2 GT PUSH2 0x1FB5 JUMPI PUSH2 0x1A80 SWAP1 CALLDATASIZE SWAP1 PUSH1 0x4 ADD PUSH2 0x2459 JUMP JUMPDEST SWAP5 SWAP1 SWAP8 CALLER DUP9 MSTORE PUSH1 0x2 PUSH1 0x20 MSTORE PUSH1 0xFF PUSH1 0x40 DUP10 KECCAK256 SLOAD AND ISZERO PUSH2 0x1F7F JUMPI CALLER DUP9 MSTORE PUSH1 0x2 PUSH1 0x20 MSTORE PUSH1 0x40 DUP9 KECCAK256 SWAP7 PUSH1 0x1 PUSH1 0x1 PUSH1 0x40 SHL SUB DUP3 GT PUSH2 0x1F6B JUMPI DUP2 SWAP1 PUSH2 0x1AC2 PUSH1 0x15 DUP11 ADD SLOAD PUSH2 0x24B7 JUMP JUMPDEST PUSH1 0x1F DUP2 GT PUSH2 0x1F1B JUMPI JUMPDEST POP DUP10 SWAP1 PUSH1 0x1F DUP4 GT PUSH1 0x1 EQ PUSH2 0x1EAF JUMPI DUP11 SWAP3 PUSH2 0x1EA4 JUMPI JUMPDEST POP POP DUP2 PUSH1 0x1 SHL SWAP2 PUSH1 0x0 NOT SWAP1 PUSH1 0x3 SHL SHR NOT AND OR PUSH1 0x15 DUP8 ADD SSTORE JUMPDEST PUSH1 0x1 PUSH1 0x1 PUSH1 0x40 SHL SUB DUP3 GT PUSH2 0x1E90 JUMPI DUP2 SWAP1 PUSH2 0x1B15 PUSH1 0x16 DUP9 ADD SLOAD PUSH2 0x24B7 JUMP JUMPDEST PUSH1 0x1F DUP2 GT PUSH2 0x1E3D JUMPI JUMPDEST POP DUP8 SWAP1 PUSH1 0x1F DUP4 GT PUSH1 0x1 EQ PUSH2 0x1DD1 JUMPI DUP9 SWAP3 PUSH2 0x1DC6 JUMPI JUMPDEST POP POP DUP2 PUSH1 0x1 SHL SWAP2 PUSH1 0x0 NOT SWAP1 PUSH1 0x3 SHL SHR NOT AND OR PUSH1 0x16 DUP6 ADD SSTORE JUMPDEST PUSH1 0x17 DUP5 ADD SWAP2 PUSH1 0x1 PUSH1 0x1 PUSH1 0x40 SHL SUB DUP3 GT PUSH2 0x1DB2 JUMPI DUP2 SWAP1 PUSH2 0x1B6A DUP5 SLOAD PUSH2 0x24B7 JUMP JUMPDEST PUSH1 0x1F DUP2 GT PUSH2 0x1D62 JUMPI JUMPDEST POP DUP7 SWAP1 PUSH1 0x1F DUP4 GT PUSH1 0x1 EQ PUSH2 0x1CFC JUMPI DUP8 SWAP3 PUSH2 0x1CF1 JUMPI JUMPDEST POP POP DUP2 PUSH1 0x1 SHL SWAP2 PUSH1 0x0 NOT SWAP1 PUSH1 0x3 SHL SHR NOT AND OR SWAP1 SSTORE JUMPDEST PUSH1 0x18 DUP3 ADD SWAP1 PUSH1 0x1 PUSH1 0x1 PUSH1 0x40 SHL SUB DUP2 GT PUSH2 0x1CDD JUMPI PUSH2 0x1BBA DUP3 SLOAD PUSH2 0x24B7 JUMP JUMPDEST PUSH1 0x1F DUP2 GT PUSH2 0x1C98 JUMPI JUMPDEST POP DUP4 PUSH1 0x1F DUP3 GT PUSH1 0x1 EQ PUSH2 0x1C31 JUMPI DUP2 SWAP1 DUP6 SWAP7 PUSH1 0x19 SWAP7 SWAP3 PUSH2 0x1C26 JUMPI JUMPDEST POP POP DUP2 PUSH1 0x1 SHL SWAP2 PUSH1 0x0 NOT SWAP1 PUSH1 0x3 SHL SHR NOT AND OR SWAP1 SSTORE JUMPDEST ADD DUP1 SLOAD PUSH1 0xFF NOT AND PUSH1 0x1 OR SWAP1 SSTORE CALLER PUSH32 0xBE4EC58A792F909E102EE3D745D0C3B34A4D437A54D903C4DB098D31C556422F DUP3 DUP1 LOG2 DUP1 RETURN JUMPDEST ADD CALLDATALOAD SWAP1 POP CODESIZE DUP1 PUSH2 0x1BDD JUMP JUMPDEST DUP3 DUP6 MSTORE PUSH1 0x20 DUP6 KECCAK256 SWAP1 PUSH1 0x1F NOT DUP4 AND DUP7 JUMPDEST DUP2 DUP2 LT PUSH2 0x1C80 JUMPI POP SWAP7 DUP4 SWAP3 SWAP2 PUSH1 0x1 SWAP5 PUSH1 0x19 SWAP9 SWAP10 LT PUSH2 0x1C66 JUMPI JUMPDEST POP POP POP DUP2 SHL ADD SWAP1 SSTORE PUSH2 0x1BF2 JUMP JUMPDEST ADD CALLDATALOAD PUSH1 0x0 NOT PUSH1 0x3 DUP5 SWAP1 SHL PUSH1 0xF8 AND SHR NOT AND SWAP1 SSTORE CODESIZE DUP1 DUP1 PUSH2 0x1C59 JUMP JUMPDEST SWAP2 SWAP3 PUSH1 0x20 PUSH1 0x1 DUP2 SWAP3 DUP7 DUP13 ADD CALLDATALOAD DUP2 SSTORE ADD SWAP5 ADD SWAP3 ADD PUSH2 0x1C40 JUMP JUMPDEST DUP3 DUP6 MSTORE PUSH1 0x20 DUP6 KECCAK256 PUSH1 0x1F DUP4 ADD PUSH1 0x5 SHR DUP2 ADD SWAP2 PUSH1 0x20 DUP5 LT PUSH2 0x1CD3 JUMPI JUMPDEST PUSH1 0x1F ADD PUSH1 0x5 SHR ADD SWAP1 JUMPDEST DUP2 DUP2 LT PUSH2 0x1CC8 JUMPI POP PUSH2 0x1BC3 JUMP JUMPDEST DUP6 DUP2 SSTORE PUSH1 0x1 ADD PUSH2 0x1CBB JUMP JUMPDEST SWAP1 SWAP2 POP DUP2 SWAP1 PUSH2 0x1CB2 JUMP JUMPDEST PUSH4 0x4E487B71 PUSH1 0xE0 SHL DUP5 MSTORE PUSH1 0x41 PUSH1 0x4 MSTORE PUSH1 0x24 DUP5 REVERT JUMPDEST ADD CALLDATALOAD SWAP1 POP CODESIZE DUP1 PUSH2 0x1B88 JUMP JUMPDEST DUP5 DUP9 MSTORE PUSH1 0x20 DUP9 KECCAK256 SWAP3 POP SWAP1 PUSH1 0x1F NOT DUP5 AND DUP9 JUMPDEST DUP2 DUP2 LT PUSH2 0x1D4A JUMPI POP SWAP1 DUP5 PUSH1 0x1 SWAP6 SWAP5 SWAP4 SWAP3 LT PUSH2 0x1D30 JUMPI JUMPDEST POP POP POP DUP2 SHL ADD SWAP1 SSTORE PUSH2 0x1B9D JUMP JUMPDEST ADD CALLDATALOAD PUSH1 0x0 NOT PUSH1 0x3 DUP5 SWAP1 SHL PUSH1 0xF8 AND SHR NOT AND SWAP1 SSTORE CODESIZE DUP1 DUP1 PUSH2 0x1D23 JUMP JUMPDEST SWAP2 SWAP4 PUSH1 0x20 PUSH1 0x1 DUP2 SWAP3 DUP8 DUP8 ADD CALLDATALOAD DUP2 SSTORE ADD SWAP6 ADD SWAP3 ADD PUSH2 0x1D0D JUMP JUMPDEST SWAP1 SWAP2 POP DUP4 DUP8 MSTORE PUSH1 0x20 DUP8 KECCAK256 PUSH1 0x1F DUP5 ADD PUSH1 0x5 SHR DUP2 ADD SWAP2 PUSH1 0x20 DUP6 LT PUSH2 0x1DA8 JUMPI JUMPDEST SWAP1 PUSH1 0x1F DUP6 SWAP5 SWAP4 SWAP3 ADD PUSH1 0x5 SHR ADD SWAP1 JUMPDEST DUP2 DUP2 LT PUSH2 0x1D9A JUMPI POP PUSH2 0x1B73 JUMP JUMPDEST DUP9 DUP2 SSTORE DUP5 SWAP4 POP PUSH1 0x1 ADD PUSH2 0x1D8D JUMP JUMPDEST SWAP1 SWAP2 POP DUP2 SWAP1 PUSH2 0x1D7F JUMP JUMPDEST PUSH4 0x4E487B71 PUSH1 0xE0 SHL DUP7 MSTORE PUSH1 0x41 PUSH1 0x4 MSTORE PUSH1 0x24 DUP7 REVERT JUMPDEST ADD CALLDATALOAD SWAP1 POP CODESIZE DUP1 PUSH2 0x1B33 JUMP JUMPDEST PUSH1 0x16 DUP9 ADD DUP10 MSTORE PUSH1 0x20 DUP10 KECCAK256 SWAP3 POP SWAP1 PUSH1 0x1F NOT DUP5 AND DUP10 JUMPDEST DUP2 DUP2 LT PUSH2 0x1E25 JUMPI POP SWAP1 DUP5 PUSH1 0x1 SWAP6 SWAP5 SWAP4 SWAP3 LT PUSH2 0x1E0B JUMPI JUMPDEST POP POP POP DUP2 SHL ADD PUSH1 0x16 DUP6 ADD SSTORE PUSH2 0x1B4B JUMP JUMPDEST ADD CALLDATALOAD PUSH1 0x0 NOT PUSH1 0x3 DUP5 SWAP1 SHL PUSH1 0xF8 AND SHR NOT AND SWAP1 SSTORE CODESIZE DUP1 DUP1 PUSH2 0x1DFB JUMP JUMPDEST SWAP2 SWAP4 PUSH1 0x20 PUSH1 0x1 DUP2 SWAP3 DUP8 DUP8 ADD CALLDATALOAD DUP2 SSTORE ADD SWAP6 ADD SWAP3 ADD PUSH2 0x1DE5 JUMP JUMPDEST SWAP1 SWAP2 POP PUSH1 0x16 DUP8 ADD DUP9 MSTORE PUSH1 0x20 DUP9 KECCAK256 PUSH1 0x1F DUP5 ADD PUSH1 0x5 SHR DUP2 ADD SWAP2 PUSH1 0x20 DUP6 LT PUSH2 0x1E86 JUMPI JUMPDEST SWAP1 PUSH1 0x1F DUP6 SWAP5 SWAP4 SWAP3 ADD PUSH1 0x5 SHR ADD SWAP1 JUMPDEST DUP2 DUP2 LT PUSH2 0x1E78 JUMPI POP PUSH2 0x1B1E JUMP JUMPDEST DUP10 DUP2 SSTORE DUP5 SWAP4 POP PUSH1 0x1 ADD PUSH2 0x1E6B JUMP JUMPDEST SWAP1 SWAP2 POP DUP2 SWAP1 PUSH2 0x1E5D JUMP JUMPDEST PUSH4 0x4E487B71 PUSH1 0xE0 SHL DUP8 MSTORE PUSH1 0x41 PUSH1 0x4 MSTORE PUSH1 0x24 DUP8 REVERT JUMPDEST ADD CALLDATALOAD SWAP1 POP CODESIZE DUP1 PUSH2 0x1AE0 JUMP JUMPDEST PUSH1 0x15 DUP11 ADD DUP12 MSTORE PUSH1 0x20 DUP12 KECCAK256 SWAP3 POP SWAP1 PUSH1 0x1F NOT DUP5 AND DUP12 JUMPDEST DUP2 DUP2 LT PUSH2 0x1F03 JUMPI POP SWAP1 DUP5 PUSH1 0x1 SWAP6 SWAP5 SWAP4 SWAP3 LT PUSH2 0x1EE9 JUMPI JUMPDEST POP POP POP DUP2 SHL ADD PUSH1 0x15 DUP8 ADD SSTORE PUSH2 0x1AF8 JUMP JUMPDEST ADD CALLDATALOAD PUSH1 0x0 NOT PUSH1 0x3 DUP5 SWAP1 SHL PUSH1 0xF8 AND SHR NOT AND SWAP1 SSTORE CODESIZE DUP1 DUP1 PUSH2 0x1ED9 JUMP JUMPDEST SWAP2 SWAP4 PUSH1 0x20 PUSH1 0x1 DUP2 SWAP3 DUP8 DUP8 ADD CALLDATALOAD DUP2 SSTORE ADD SWAP6 ADD SWAP3 ADD PUSH2 0x1EC3 JUMP JUMPDEST SWAP1 SWAP2 POP PUSH1 0x15 DUP10 ADD DUP11 MSTORE PUSH1 0x20 DUP11 KECCAK256 PUSH1 0x1F DUP5 ADD PUSH1 0x5 SHR DUP2 ADD PUSH1 0x20 DUP6 LT PUSH2 0x1F64 JUMPI JUMPDEST SWAP1 DUP5 SWAP4 SWAP3 SWAP2 JUMPDEST PUSH1 0x1F DUP4 ADD PUSH1 0x5 SHR DUP3 ADD DUP2 LT PUSH2 0x1F56 JUMPI POP POP PUSH2 0x1ACB JUMP JUMPDEST DUP13 DUP2 SSTORE DUP6 SWAP5 POP PUSH1 0x1 ADD PUSH2 0x1F40 JUMP JUMPDEST POP DUP1 PUSH2 0x1F3A JUMP JUMPDEST PUSH4 0x4E487B71 PUSH1 0xE0 SHL DUP10 MSTORE PUSH1 0x41 PUSH1 0x4 MSTORE PUSH1 0x24 DUP10 REVERT JUMPDEST PUSH1 0x40 MLOAD PUSH3 0x461BCD PUSH1 0xE5 SHL DUP2 MSTORE PUSH1 0x20 PUSH1 0x4 DUP3 ADD MSTORE PUSH1 0xE PUSH1 0x24 DUP3 ADD MSTORE PUSH14 0x139BDD081C9959DA5CDD195C9959 PUSH1 0x92 SHL PUSH1 0x44 DUP3 ADD MSTORE PUSH1 0x64 SWAP1 REVERT JUMPDEST DUP7 DUP1 REVERT JUMPDEST DUP5 DUP1 REVERT JUMPDEST DUP3 DUP1 REVERT JUMPDEST POP CALLVALUE PUSH2 0x22E JUMPI DUP1 PUSH1 0x3 NOT CALLDATASIZE ADD SLT PUSH2 0x22E JUMPI PUSH1 0x60 PUSH1 0x5 SLOAD PUSH1 0x6 SLOAD PUSH1 0x7 SLOAD SWAP1 PUSH1 0x40 MLOAD SWAP3 DUP4 MSTORE PUSH1 0x20 DUP4 ADD MSTORE PUSH1 0x40 DUP3 ADD MSTORE RETURN JUMPDEST POP CALLVALUE PUSH2 0x22E JUMPI DUP1 PUSH1 0x3 NOT CALLDATASIZE ADD SLT PUSH2 0x22E JUMPI PUSH1 0x20 PUSH1 0x40 MLOAD PUSH1 0x1E DUP2 MSTORE RETURN JUMPDEST POP CALLVALUE PUSH2 0x22E JUMPI DUP1 PUSH1 0x3 NOT CALLDATASIZE ADD SLT PUSH2 0x22E JUMPI PUSH1 0x20 PUSH1 0x3 SLOAD PUSH1 0x40 MLOAD SWAP1 DUP2 MSTORE RETURN JUMPDEST POP CALLVALUE PUSH2 0x22E JUMPI PUSH2 0x2052 PUSH2 0x203C CALLDATASIZE PUSH2 0x2443 JUMP JUMPDEST SWAP1 PUSH2 0x2045 PUSH2 0x25CD JUMP JUMPDEST PUSH2 0x204D PUSH2 0x26D4 JUMP JUMPDEST PUSH2 0x313B JUMP JUMPDEST PUSH1 0x1 PUSH1 0x0 DUP1 MLOAD PUSH1 0x20 PUSH2 0x349A DUP4 CODECOPY DUP2 MLOAD SWAP2 MSTORE SSTORE DUP1 RETURN JUMPDEST POP CALLVALUE PUSH2 0x22E JUMPI PUSH1 0x40 CALLDATASIZE PUSH1 0x3 NOT ADD SLT PUSH2 0x22E JUMPI PUSH2 0x2081 PUSH2 0x23ED JUMP JUMPDEST PUSH1 0x24 CALLDATALOAD SWAP1 PUSH2 0x208D PUSH2 0x25CD JUMP JUMPDEST PUSH1 0x1 PUSH1 0x1 PUSH1 0xA0 SHL SUB AND SWAP1 DUP2 ISZERO PUSH2 0x397 JUMPI PUSH1 0x7 SLOAD DUP2 DUP2 LT PUSH2 0x20F1 JUMPI DUP2 PUSH2 0x20D5 PUSH32 0xBA443E8671971C36CDEB74F87321041DAFF421230CBC5E36CB835269ED1D8B7E SWAP4 PUSH1 0x20 SWAP4 PUSH2 0x2752 JUMP JUMPDEST PUSH1 0x7 SSTORE DUP4 DUP6 MSTORE PUSH1 0x2 DUP3 MSTORE PUSH1 0x8 PUSH1 0x40 DUP7 KECCAK256 ADD PUSH2 0x334 DUP3 DUP3 SLOAD PUSH2 0x275F JUMP JUMPDEST PUSH1 0x40 MLOAD PUSH3 0x461BCD PUSH1 0xE5 SHL DUP2 MSTORE PUSH1 0x20 PUSH1 0x4 DUP3 ADD MSTORE PUSH1 0x12 PUSH1 0x24 DUP3 ADD MSTORE PUSH18 0x115E18D959591CC818591B5A5B881C1BDBDB PUSH1 0x72 SHL PUSH1 0x44 DUP3 ADD MSTORE PUSH1 0x64 SWAP1 REVERT JUMPDEST POP CALLVALUE PUSH2 0x22E JUMPI DUP1 PUSH1 0x3 NOT CALLDATASIZE ADD SLT PUSH2 0x22E JUMPI PUSH1 0x1 SLOAD PUSH1 0x40 MLOAD PUSH1 0x1 PUSH1 0x1 PUSH1 0xA0 SHL SUB SWAP1 SWAP2 AND DUP2 MSTORE PUSH1 0x20 SWAP1 RETURN JUMPDEST POP CALLVALUE PUSH2 0x22E JUMPI PUSH1 0x20 CALLDATASIZE PUSH1 0x3 NOT ADD SLT PUSH2 0x22E JUMPI PUSH2 0x216E PUSH2 0x23ED JUMP JUMPDEST PUSH2 0x2176 PUSH2 0x25CD JUMP JUMPDEST PUSH1 0x1 PUSH1 0x1 PUSH1 0xA0 SHL SUB AND DUP1 ISZERO PUSH2 0x397 JUMPI PUSH1 0x1 DUP1 SLOAD PUSH1 0x1 PUSH1 0x1 PUSH1 0xA0 SHL SUB NOT AND DUP3 OR SWAP1 SSTORE PUSH1 0x40 MLOAD SWAP1 DUP2 MSTORE PUSH32 0xFA7BD61554593F4E69CDFFD255D3FE947352B02C7D3EC68059384934E4CFD47C SWAP1 PUSH1 0x20 SWAP1 LOG1 DUP1 RETURN JUMPDEST POP CALLVALUE PUSH2 0x22E JUMPI PUSH1 0x20 CALLDATASIZE PUSH1 0x3 NOT ADD SLT PUSH2 0x22E JUMPI PUSH2 0x2250 SWAP1 PUSH1 0x40 SWAP1 PUSH1 0x1 PUSH1 0x1 PUSH1 0xA0 SHL SUB PUSH2 0x21EF PUSH2 0x23ED JUMP JUMPDEST AND DUP2 MSTORE PUSH1 0x2 PUSH1 0x20 MSTORE KECCAK256 PUSH1 0xFF PUSH1 0x19 DUP3 ADD SLOAD AND PUSH2 0x227A PUSH2 0x220F PUSH1 0x15 DUP5 ADD PUSH2 0x2527 JUMP JUMPDEST SWAP3 PUSH2 0x226C PUSH2 0x221F PUSH1 0x16 DUP4 ADD PUSH2 0x2527 JUMP JUMPDEST SWAP2 PUSH2 0x225E PUSH2 0x223B PUSH1 0x18 PUSH2 0x2234 PUSH1 0x17 DUP6 ADD PUSH2 0x2527 JUMP JUMPDEST SWAP4 ADD PUSH2 0x2527 JUMP JUMPDEST SWAP4 PUSH1 0x40 MLOAD SWAP9 DUP10 SWAP9 PUSH1 0xA0 DUP11 MSTORE PUSH1 0xA0 DUP11 ADD SWAP1 PUSH2 0x2403 JUMP JUMPDEST SWAP1 DUP9 DUP3 SUB PUSH1 0x20 DUP11 ADD MSTORE PUSH2 0x2403 JUMP JUMPDEST SWAP1 DUP7 DUP3 SUB PUSH1 0x40 DUP9 ADD MSTORE PUSH2 0x2403 JUMP JUMPDEST SWAP1 DUP5 DUP3 SUB PUSH1 0x60 DUP7 ADD MSTORE PUSH2 0x2403 JUMP JUMPDEST SWAP1 ISZERO ISZERO PUSH1 0x80 DUP4 ADD MSTORE SUB SWAP1 RETURN JUMPDEST POP CALLVALUE PUSH2 0x22E JUMPI DUP1 PUSH1 0x3 NOT CALLDATASIZE ADD SLT PUSH2 0x22E JUMPI PUSH2 0x229F PUSH2 0x26D4 JUMP JUMPDEST CALLER DUP2 MSTORE PUSH1 0x2 PUSH1 0x20 MSTORE PUSH1 0x40 DUP2 KECCAK256 SLOAD PUSH1 0xFF DUP2 AND ISZERO PUSH2 0x19DC JUMPI PUSH1 0x8 SHR PUSH1 0xFF AND PUSH2 0x2355 JUMPI PUSH1 0x40 MLOAD PUSH4 0x23B872DD PUSH1 0xE0 SHL DUP2 MSTORE CALLER PUSH1 0x4 DUP3 ADD MSTORE ADDRESS PUSH1 0x24 DUP3 ADD MSTORE PUSH9 0x70C1CC73B00C80000 PUSH1 0x44 DUP3 ADD MSTORE PUSH1 0x20 DUP2 PUSH1 0x64 DUP2 DUP6 PUSH32 0x0 PUSH1 0x1 PUSH1 0x1 PUSH1 0xA0 SHL SUB AND GAS CALL SWAP1 DUP2 ISZERO PUSH2 0x1505 JUMPI DUP3 SWAP2 PUSH2 0x2337 JUMPI JUMPDEST POP ISZERO PUSH2 0x4E0 JUMPI PUSH2 0x2052 CALLER PUSH2 0x2790 JUMP JUMPDEST PUSH2 0x234F SWAP2 POP PUSH1 0x20 RETURNDATASIZE DUP2 GT PUSH2 0x518 JUMPI PUSH2 0x50A DUP2 DUP4 PUSH2 0x2504 JUMP JUMPDEST CODESIZE PUSH2 0x2328 JUMP JUMPDEST PUSH1 0x40 MLOAD PUSH4 0x7CDF3051 PUSH1 0xE1 SHL DUP2 MSTORE PUSH1 0x4 SWAP1 REVERT JUMPDEST POP CALLVALUE PUSH2 0x22E JUMPI PUSH1 0x20 CALLDATASIZE PUSH1 0x3 NOT ADD SLT PUSH2 0x22E JUMPI PUSH1 0x40 SWAP1 DUP2 SWAP1 PUSH1 0x1 PUSH1 0x1 PUSH1 0xA0 SHL SUB PUSH2 0x238E PUSH2 0x23ED JUMP JUMPDEST AND DUP2 MSTORE PUSH1 0x2 PUSH1 0x20 MSTORE KECCAK256 PUSH1 0x10 PUSH1 0xF DUP3 ADD SLOAD SWAP2 ADD SLOAD DUP3 MLOAD SWAP2 DUP3 MSTORE PUSH1 0x20 DUP3 ADD MSTORE RETURN JUMPDEST POP CALLVALUE PUSH2 0x22E JUMPI DUP1 PUSH1 0x3 NOT CALLDATASIZE ADD SLT PUSH2 0x22E JUMPI PUSH1 0x20 PUSH1 0x40 MLOAD PUSH9 0x70C1CC73B00C80000 DUP2 MSTORE RETURN JUMPDEST SWAP1 POP CALLVALUE PUSH2 0x54E JUMPI DUP2 PUSH1 0x3 NOT CALLDATASIZE ADD SLT PUSH2 0x54E JUMPI PUSH1 0x20 SWAP1 PUSH1 0x6 SLOAD DUP2 MSTORE RETURN JUMPDEST PUSH1 0x4 CALLDATALOAD SWAP1 PUSH1 0x1 PUSH1 0x1 PUSH1 0xA0 SHL SUB DUP3 AND DUP3 SUB PUSH2 0x5D2 JUMPI JUMP JUMPDEST SWAP2 SWAP1 DUP3 MLOAD SWAP3 DUP4 DUP3 MSTORE PUSH1 0x0 JUMPDEST DUP5 DUP2 LT PUSH2 0x242F JUMPI POP POP DUP3 PUSH1 0x0 PUSH1 0x20 DUP1 SWAP5 SWAP6 DUP5 ADD ADD MSTORE PUSH1 0x1F DUP1 NOT SWAP2 ADD AND ADD ADD SWAP1 JUMP JUMPDEST PUSH1 0x20 DUP2 DUP4 ADD DUP2 ADD MLOAD DUP5 DUP4 ADD DUP3 ADD MSTORE ADD PUSH2 0x240E JUMP JUMPDEST PUSH1 0x40 SWAP1 PUSH1 0x3 NOT ADD SLT PUSH2 0x5D2 JUMPI PUSH1 0x4 CALLDATALOAD SWAP1 PUSH1 0x24 CALLDATALOAD SWAP1 JUMP JUMPDEST SWAP2 DUP2 PUSH1 0x1F DUP5 ADD SLT ISZERO PUSH2 0x5D2 JUMPI DUP3 CALLDATALOAD SWAP2 PUSH1 0x1 PUSH1 0x1 PUSH1 0x40 SHL SUB DUP4 GT PUSH2 0x5D2 JUMPI PUSH1 0x20 DUP4 DUP2 DUP7 ADD SWAP6 ADD ADD GT PUSH2 0x5D2 JUMPI JUMP JUMPDEST PUSH1 0x3 SLOAD DUP2 LT ISZERO PUSH2 0x24A1 JUMPI PUSH1 0x3 PUSH1 0x0 MSTORE PUSH1 0x20 PUSH1 0x0 KECCAK256 ADD SWAP1 PUSH1 0x0 SWAP1 JUMP JUMPDEST PUSH4 0x4E487B71 PUSH1 0xE0 SHL PUSH1 0x0 MSTORE PUSH1 0x32 PUSH1 0x4 MSTORE PUSH1 0x24 PUSH1 0x0 REVERT JUMPDEST SWAP1 PUSH1 0x1 DUP3 DUP2 SHR SWAP3 AND DUP1 ISZERO PUSH2 0x24E7 JUMPI JUMPDEST PUSH1 0x20 DUP4 LT EQ PUSH2 0x24D1 JUMPI JUMP JUMPDEST PUSH4 0x4E487B71 PUSH1 0xE0 SHL PUSH1 0x0 MSTORE PUSH1 0x22 PUSH1 0x4 MSTORE PUSH1 0x24 PUSH1 0x0 REVERT JUMPDEST SWAP2 PUSH1 0x7F AND SWAP2 PUSH2 0x24C6 JUMP JUMPDEST PUSH1 0x1 PUSH1 0x1 PUSH1 0x40 SHL SUB DUP2 GT PUSH2 0x896 JUMPI PUSH1 0x40 MSTORE JUMP JUMPDEST PUSH1 0x1F SWAP1 SWAP2 ADD PUSH1 0x1F NOT AND DUP2 ADD SWAP1 PUSH1 0x1 PUSH1 0x1 PUSH1 0x40 SHL SUB DUP3 GT SWAP1 DUP3 LT OR PUSH2 0x896 JUMPI PUSH1 0x40 MSTORE JUMP JUMPDEST SWAP1 PUSH1 0x40 MLOAD SWAP2 DUP3 PUSH1 0x0 DUP3 SLOAD SWAP3 PUSH2 0x253B DUP5 PUSH2 0x24B7 JUMP JUMPDEST SWAP1 DUP2 DUP5 MSTORE PUSH1 0x1 SWAP5 DUP6 DUP2 AND SWAP1 DUP2 PUSH1 0x0 EQ PUSH2 0x25AA JUMPI POP PUSH1 0x1 EQ PUSH2 0x2567 JUMPI JUMPDEST POP POP PUSH2 0x2565 SWAP3 POP SUB DUP4 PUSH2 0x2504 JUMP JUMPDEST JUMP JUMPDEST SWAP1 SWAP4 SWAP2 POP PUSH1 0x0 MSTORE PUSH1 0x20 SWAP1 DUP2 PUSH1 0x0 KECCAK256 SWAP4 PUSH1 0x0 SWAP2 JUMPDEST DUP2 DUP4 LT PUSH2 0x2592 JUMPI POP POP PUSH2 0x2565 SWAP4 POP DUP3 ADD ADD CODESIZE DUP1 PUSH2 0x2557 JUMP JUMPDEST DUP6 SLOAD DUP9 DUP5 ADD DUP6 ADD MSTORE SWAP5 DUP6 ADD SWAP5 DUP8 SWAP5 POP SWAP2 DUP4 ADD SWAP2 PUSH2 0x257A JUMP JUMPDEST SWAP2 POP POP PUSH2 0x2565 SWAP5 POP PUSH1 0x20 SWAP3 POP PUSH1 0xFF NOT AND DUP3 DUP5 ADD MSTORE ISZERO ISZERO PUSH1 0x5 SHL DUP3 ADD ADD CODESIZE DUP1 PUSH2 0x2557 JUMP JUMPDEST PUSH1 0x0 SLOAD PUSH1 0x1 PUSH1 0x1 PUSH1 0xA0 SHL SUB AND CALLER SUB PUSH2 0x25E1 JUMPI JUMP JUMPDEST PUSH1 0x40 MLOAD PUSH4 0x118CDAA7 PUSH1 0xE0 SHL DUP2 MSTORE CALLER PUSH1 0x4 DUP3 ADD MSTORE PUSH1 0x24 SWAP1 REVERT JUMPDEST PUSH1 0x0 NOT DUP2 EQ PUSH2 0x2608 JUMPI PUSH1 0x1 ADD SWAP1 JUMP JUMPDEST PUSH4 0x4E487B71 PUSH1 0xE0 SHL PUSH1 0x0 MSTORE PUSH1 0x11 PUSH1 0x4 MSTORE PUSH1 0x24 PUSH1 0x0 REVERT JUMPDEST PUSH1 0x1 PUSH1 0x1 PUSH1 0xA0 SHL SUB SWAP1 DUP2 AND PUSH1 0x0 SWAP1 DUP2 MSTORE PUSH1 0x2 PUSH1 0x20 DUP2 DUP2 MSTORE PUSH1 0x40 DUP1 DUP5 KECCAK256 DUP4 ADD SLOAD SWAP5 SWAP6 PUSH1 0xA0 SWAP6 PUSH1 0xFF SWAP6 SWAP3 SWAP4 SWAP2 SWAP1 DUP1 DUP9 SHR DUP8 AND SWAP1 DUP10 SWAP1 DUP2 AND JUMPDEST AND SWAP1 DUP2 ISZERO PUSH2 0x26B0 JUMPI ISZERO PUSH2 0x2693 JUMPI DUP1 DUP5 MSTORE DUP6 DUP4 MSTORE PUSH1 0x5 DUP6 DUP6 KECCAK256 ADD PUSH2 0x2677 DUP2 SLOAD PUSH2 0x25F9 JUMP JUMPDEST SWAP1 SSTORE JUMPDEST DUP4 MSTORE DUP5 DUP3 MSTORE DUP5 DUP5 DUP5 KECCAK256 ADD SLOAD DUP9 DUP1 DUP9 DUP4 DUP12 SHR AND SWAP3 AND PUSH2 0x2654 JUMP JUMPDEST DUP1 DUP5 MSTORE DUP6 DUP4 MSTORE PUSH1 0x6 DUP6 DUP6 KECCAK256 ADD PUSH2 0x26A9 DUP2 SLOAD PUSH2 0x25F9 JUMP JUMPDEST SWAP1 SSTORE PUSH2 0x267A JUMP JUMPDEST POP POP SWAP7 POP POP POP POP POP POP POP JUMP JUMPDEST SWAP1 DUP2 PUSH1 0x20 SWAP2 SUB SLT PUSH2 0x5D2 JUMPI MLOAD DUP1 ISZERO ISZERO DUP2 SUB PUSH2 0x5D2 JUMPI SWAP1 JUMP JUMPDEST PUSH1 0x0 DUP1 MLOAD PUSH1 0x20 PUSH2 0x349A DUP4 CODECOPY DUP2 MLOAD SWAP2 MSTORE PUSH1 0x2 DUP2 SLOAD EQ PUSH2 0x26F2 JUMPI PUSH1 0x2 SWAP1 SSTORE JUMP JUMPDEST PUSH1 0x40 MLOAD PUSH4 0x3EE5AEB5 PUSH1 0xE0 SHL DUP2 MSTORE PUSH1 0x4 SWAP1 REVERT JUMPDEST DUP2 DUP2 MUL SWAP3 SWAP2 DUP2 ISZERO SWAP2 DUP5 DIV EQ OR ISZERO PUSH2 0x2608 JUMPI JUMP JUMPDEST DUP2 ISZERO PUSH2 0x2721 JUMPI DIV SWAP1 JUMP JUMPDEST PUSH4 0x4E487B71 PUSH1 0xE0 SHL PUSH1 0x0 MSTORE PUSH1 0x12 PUSH1 0x4 MSTORE PUSH1 0x24 PUSH1 0x0 REVERT JUMPDEST PUSH1 0x1 PUSH1 0x1 PUSH1 0xA0 SHL SUB SWAP1 SWAP2 AND DUP2 MSTORE PUSH1 0x20 DUP2 ADD SWAP2 SWAP1 SWAP2 MSTORE PUSH1 0x40 ADD SWAP1 JUMP JUMPDEST SWAP2 SWAP1 DUP3 SUB SWAP2 DUP3 GT PUSH2 0x2608 JUMPI JUMP JUMPDEST SWAP2 SWAP1 DUP3 ADD DUP1 SWAP3 GT PUSH2 0x2608 JUMPI JUMP JUMPDEST SWAP2 SWAP3 PUSH1 0x80 SWAP4 SWAP7 SWAP6 SWAP5 SWAP2 SWAP7 PUSH1 0xA0 DUP5 ADD SWAP8 DUP5 MSTORE PUSH1 0x20 DUP5 ADD MSTORE PUSH1 0x40 DUP4 ADD MSTORE PUSH1 0x60 DUP3 ADD MSTORE ADD MSTORE JUMP JUMPDEST PUSH1 0x1 SLOAD PUSH1 0x40 MLOAD PUSH3 0x3144BD PUSH1 0xE3 SHL DUP2 MSTORE SWAP3 PUSH1 0x0 SWAP3 SWAP1 SWAP2 PUSH1 0x1 PUSH1 0x1 PUSH1 0xA0 SHL SUB AND PUSH1 0x20 DUP6 PUSH1 0x4 DUP2 DUP5 GAS STATICCALL SWAP5 DUP6 ISZERO PUSH2 0x51F JUMPI DUP5 SWAP6 PUSH2 0x2D00 JUMPI JUMPDEST POP DUP5 ISZERO PUSH2 0x2CEC JUMPI PUSH1 0x40 MLOAD PUSH4 0x95EA7B3 PUSH1 0xE0 SHL DUP2 MSTORE PUSH1 0x4 DUP2 ADD SWAP2 SWAP1 SWAP2 MSTORE PUSH9 0x70C1CC73B00C80000 PUSH1 0x24 DUP3 ADD DUP2 SWAP1 MSTORE SWAP1 PUSH1 0x20 DUP2 PUSH1 0x44 DUP2 DUP9 PUSH32 0x0 PUSH1 0x1 PUSH1 0x1 PUSH1 0xA0 SHL SUB AND GAS CALL DUP1 ISZERO PUSH2 0x2C70 JUMPI PUSH2 0x2CCD JUMPI JUMPDEST POP PUSH1 0x1 SLOAD PUSH1 0x40 MLOAD PUSH4 0x70A08231 PUSH1 0xE0 SHL DUP1 DUP3 MSTORE ADDRESS PUSH1 0x4 DUP4 ADD MSTORE SWAP3 SWAP1 SWAP2 PUSH1 0x1 PUSH1 0x1 PUSH1 0xA0 SHL SUB AND SWAP1 PUSH1 0x20 DUP4 PUSH1 0x24 DUP2 DUP6 GAS STATICCALL SWAP3 DUP4 ISZERO PUSH2 0x2CC2 JUMPI DUP8 SWAP4 PUSH2 0x2C8E JUMPI JUMPDEST POP DUP2 EXTCODESIZE ISZERO PUSH2 0x1FB5 JUMPI DUP7 SWAP2 PUSH1 0x44 DUP4 SWAP3 PUSH1 0x40 MLOAD SWAP5 DUP6 SWAP4 DUP5 SWAP3 PUSH4 0x4E538D93 PUSH1 0xE1 SHL DUP5 MSTORE ADDRESS PUSH1 0x4 DUP6 ADD MSTORE PUSH1 0x24 DUP5 ADD MSTORE GAS CALL DUP1 ISZERO PUSH2 0x1972 JUMPI PUSH2 0x2C7B JUMPI JUMPDEST POP PUSH1 0x1 SLOAD PUSH1 0x40 MLOAD SWAP3 DUP4 MSTORE ADDRESS PUSH1 0x4 DUP5 ADD MSTORE PUSH1 0x20 SWAP1 DUP4 SWAP1 PUSH1 0x24 SWAP1 DUP3 SWAP1 PUSH1 0x1 PUSH1 0x1 PUSH1 0xA0 SHL SUB AND GAS STATICCALL DUP1 ISZERO PUSH2 0x2C70 JUMPI DUP6 SWAP1 PUSH2 0x2C3C JUMPI JUMPDEST PUSH2 0x28E1 SWAP3 POP PUSH2 0x2752 JUMP JUMPDEST SWAP4 PUSH12 0x30E68B6D6E0ACC828633631 PUSH1 0x25 SHL DUP2 SWAP1 DIV DUP1 ISZERO SWAP4 PUSH1 0x28 DUP3 DUP2 MUL SWAP4 SWAP3 DUP5 DIV EQ DUP6 OR ISZERO PUSH2 0x192F JUMPI PUSH12 0x30E68B6D6E0ACC828633631 PUSH1 0x25 SHL DUP3 SWAP1 DIV PUSH1 0x1E DUP2 DUP2 MUL SWAP7 SWAP2 DUP8 DIV EQ OR ISZERO PUSH2 0x192F JUMPI PUSH2 0x2956 PUSH1 0x64 DUP7 DIV PUSH2 0x2951 PUSH1 0x64 DUP7 DIV DUP6 PUSH12 0x30E68B6D6E0ACC828633631 PUSH1 0x25 SHL DIV PUSH2 0x2752 JUMP JUMPDEST PUSH2 0x2752 JUMP JUMPDEST SWAP5 PUSH2 0x2966 PUSH1 0x64 DUP3 DIV PUSH1 0x5 SLOAD PUSH2 0x275F JUMP JUMPDEST PUSH1 0x5 SSTORE PUSH2 0x2975 DUP7 PUSH1 0x6 SLOAD PUSH2 0x275F JUMP JUMPDEST PUSH1 0x6 SSTORE PUSH1 0x1 PUSH1 0x1 PUSH1 0xA0 SHL SUB DUP6 DUP2 AND DUP9 MSTORE PUSH1 0x2 PUSH1 0x20 MSTORE PUSH1 0x40 DUP9 KECCAK256 DUP1 SLOAD PUSH2 0xFF00 NOT AND PUSH2 0x100 OR DUP1 DUP3 SSTORE PUSH9 0x15245655B102580000 PUSH1 0xB SWAP1 SWAP3 ADD SWAP2 SWAP1 SWAP2 SSTORE PUSH1 0x1 SWAP8 DUP10 SWAP7 SWAP1 SWAP3 SWAP1 SWAP2 PUSH1 0x10 SHR AND JUMPDEST PUSH1 0xF PUSH1 0xFF DUP11 AND GT ISZERO DUP1 PUSH2 0x2C2A JUMPI JUMPDEST ISZERO PUSH2 0x2B97 JUMPI PUSH2 0x29EC DUP10 PUSH12 0x30E68B6D6E0ACC828633631 PUSH1 0x25 SHL DUP9 SWAP1 DIV PUSH2 0x2D4D JUMP JUMPDEST SWAP7 DUP8 ISZERO PUSH2 0x2B71 JUMPI DUP8 PUSH2 0x29FD SWAP2 PUSH2 0x275F JUMP JUMPDEST SWAP7 PUSH1 0x1 DUP1 PUSH1 0xA0 SHL SUB DUP3 AND DUP12 MSTORE PUSH1 0x2 PUSH1 0x20 MSTORE DUP10 PUSH1 0x40 DUP13 KECCAK256 PUSH1 0xFF DUP2 SLOAD PUSH1 0x8 SHR AND SWAP1 DUP2 PUSH2 0x2B5A JUMPI JUMPDEST POP ISZERO PUSH2 0x2B03 JUMPI POP PUSH1 0x1 PUSH1 0x1 PUSH1 0xA0 SHL SUB DUP3 AND DUP12 MSTORE PUSH1 0x2 PUSH1 0x20 MSTORE PUSH1 0x40 DUP12 KECCAK256 PUSH1 0x8 ADD DUP1 SLOAD PUSH2 0x2A4E SWAP1 DUP4 SWAP1 PUSH2 0x275F JUMP JUMPDEST SWAP1 SSTORE PUSH1 0x1 PUSH1 0x1 PUSH1 0xA0 SHL SUB DUP3 AND DUP12 MSTORE PUSH1 0x2 PUSH1 0x20 MSTORE PUSH1 0x40 DUP12 KECCAK256 PUSH1 0x9 ADD DUP1 SLOAD PUSH2 0x2A75 SWAP1 DUP4 SWAP1 PUSH2 0x275F JUMP JUMPDEST SWAP1 SSTORE PUSH1 0x40 MLOAD PUSH1 0x1 PUSH1 0x1 PUSH1 0xA0 SHL SUB DUP1 DUP12 AND SWAP3 SWAP1 DUP5 AND SWAP2 PUSH32 0xB16479BDAC5B7099D9236D6FC6BE3B30FF54188F4FD961686E1E1DC7ECB88037 SWAP2 DUP2 SWAP1 PUSH2 0x2AB9 SWAP1 DUP16 DUP4 PUSH2 0x2D38 JUMP JUMPDEST SUB SWAP1 LOG3 JUMPDEST PUSH1 0x1 PUSH1 0x1 PUSH1 0xA0 SHL SUB SWAP1 DUP2 AND DUP11 MSTORE PUSH1 0x2 PUSH1 0x20 MSTORE PUSH1 0x40 DUP11 KECCAK256 SLOAD PUSH1 0x10 SHR AND SWAP8 JUMPDEST PUSH1 0xFF DUP1 SWAP2 AND SWAP1 DUP2 EQ PUSH2 0x2AEF JUMPI PUSH1 0x1 ADD SWAP8 PUSH2 0x29BD JUMP JUMPDEST PUSH4 0x4E487B71 PUSH1 0xE0 SHL DUP11 MSTORE PUSH1 0x11 PUSH1 0x4 MSTORE PUSH1 0x24 DUP11 REVERT JUMPDEST SWAP1 PUSH2 0x2B52 PUSH32 0x117CA0CD821ECB7EADFEA2D6927A67853908BDC351A386235215F5AB6071BFED SWAP2 PUSH1 0x7 PUSH2 0x2B36 DUP3 DUP3 SLOAD PUSH2 0x275F JUMP JUMPDEST SWAP1 SSTORE PUSH1 0x40 MLOAD PUSH1 0x1 PUSH1 0x1 PUSH1 0xA0 SHL SUB DUP7 AND SWAP5 SWAP1 SWAP3 DUP4 SWAP3 SWAP1 SWAP2 DUP4 PUSH2 0x2D38 JUMP JUMPDEST SUB SWAP1 LOG2 PUSH2 0x2ABD JUMP JUMPDEST PUSH1 0x1 SWAP2 POP ADD SLOAD PUSH2 0x2B69 DUP3 PUSH2 0x2E80 JUMP JUMPDEST GT ISZERO CODESIZE PUSH2 0x2A22 JUMP JUMPDEST PUSH1 0x1 PUSH1 0x1 PUSH1 0xA0 SHL SUB SWAP2 DUP3 AND DUP12 MSTORE PUSH1 0x2 PUSH1 0x20 MSTORE PUSH1 0x40 DUP12 KECCAK256 SLOAD PUSH1 0x10 SHR SWAP1 SWAP2 AND SWAP9 SWAP1 SWAP7 POP PUSH2 0x2ADA JUMP JUMPDEST POP SWAP2 SWAP8 POP SWAP2 SWAP8 PUSH32 0x8AF2C013A5A55C6D3AD5423522FE76C6F2EB831B5E23318276B3C678CB457FC9 SWAP7 POP SWAP3 PUSH2 0x2C05 SWAP4 PUSH1 0x64 SWAP7 SWAP6 DUP1 DUP9 DUP6 DIV GT PUSH2 0x2C0A JUMPI JUMPDEST POP PUSH1 0x40 MLOAD PUSH1 0x1 PUSH1 0x1 PUSH1 0xA0 SHL SUB SWAP1 SWAP7 AND SWAP9 SWAP6 SWAP7 DUP8 SWAP7 DUP2 SWAP1 DIV SWAP4 DIV SWAP2 PUSH12 0x30E68B6D6E0ACC828633631 PUSH1 0x25 SHL DIV SWAP1 DUP7 PUSH2 0x276C JUMP JUMPDEST SUB SWAP1 LOG2 JUMP JUMPDEST PUSH2 0x2C19 PUSH2 0x2C21 SWAP2 DUP10 DUP7 DIV PUSH2 0x2752 JUMP JUMPDEST PUSH1 0x7 SLOAD PUSH2 0x275F JUMP JUMPDEST PUSH1 0x7 SSTORE CODESIZE PUSH2 0x2BD3 JUMP JUMPDEST POP PUSH1 0x1 PUSH1 0x1 PUSH1 0xA0 SHL SUB DUP2 AND ISZERO ISZERO PUSH2 0x29CB JUMP JUMPDEST POP PUSH1 0x20 DUP3 RETURNDATASIZE PUSH1 0x20 GT PUSH2 0x2C68 JUMPI JUMPDEST DUP2 PUSH2 0x2C56 PUSH1 0x20 SWAP4 DUP4 PUSH2 0x2504 JUMP JUMPDEST DUP2 ADD SUB SLT PUSH2 0x5D2 JUMPI PUSH2 0x28E1 SWAP2 MLOAD PUSH2 0x28D7 JUMP JUMPDEST RETURNDATASIZE SWAP2 POP PUSH2 0x2C49 JUMP JUMPDEST PUSH1 0x40 MLOAD RETURNDATASIZE DUP8 DUP3 RETURNDATACOPY RETURNDATASIZE SWAP1 REVERT JUMPDEST PUSH2 0x2C87 SWAP1 SWAP6 SWAP2 SWAP6 PUSH2 0x24F1 JUMP JUMPDEST SWAP4 CODESIZE PUSH2 0x28A5 JUMP JUMPDEST SWAP1 SWAP3 POP PUSH1 0x20 DUP2 RETURNDATASIZE PUSH1 0x20 GT PUSH2 0x2CBA JUMPI JUMPDEST DUP2 PUSH2 0x2CAA PUSH1 0x20 SWAP4 DUP4 PUSH2 0x2504 JUMP JUMPDEST DUP2 ADD SUB SLT PUSH2 0x1FB5 JUMPI MLOAD SWAP2 CODESIZE PUSH2 0x286D JUMP JUMPDEST RETURNDATASIZE SWAP2 POP PUSH2 0x2C9D JUMP JUMPDEST PUSH1 0x40 MLOAD RETURNDATASIZE DUP10 DUP3 RETURNDATACOPY RETURNDATASIZE SWAP1 REVERT JUMPDEST PUSH2 0x2CE5 SWAP1 PUSH1 0x20 RETURNDATASIZE PUSH1 0x20 GT PUSH2 0x518 JUMPI PUSH2 0x50A DUP2 DUP4 PUSH2 0x2504 JUMP JUMPDEST POP CODESIZE PUSH2 0x2831 JUMP JUMPDEST PUSH4 0x4E487B71 PUSH1 0xE0 SHL DUP5 MSTORE PUSH1 0x12 PUSH1 0x4 MSTORE PUSH1 0x24 DUP5 REVERT JUMPDEST SWAP1 SWAP5 POP PUSH1 0x20 DUP2 RETURNDATASIZE PUSH1 0x20 GT PUSH2 0x2D30 JUMPI JUMPDEST DUP2 PUSH2 0x2D1C PUSH1 0x20 SWAP4 DUP4 PUSH2 0x2504 JUMP JUMPDEST DUP2 ADD SUB SLT PUSH2 0x2D2C JUMPI MLOAD SWAP4 CODESIZE PUSH2 0x27C5 JUMP JUMPDEST DUP4 DUP1 REVERT JUMPDEST RETURNDATASIZE SWAP2 POP PUSH2 0x2D0F JUMP JUMPDEST PUSH1 0x20 SWAP1 SWAP4 SWAP3 SWAP2 SWAP4 PUSH1 0xFF PUSH1 0x40 DUP3 ADD SWAP6 AND DUP2 MSTORE ADD MSTORE JUMP JUMPDEST SWAP1 PUSH1 0xFF AND PUSH1 0x1 DUP2 EQ PUSH2 0x2E65 JUMPI PUSH1 0x2 DUP2 EQ PUSH2 0x2E4A JUMPI PUSH1 0x3 DUP2 EQ PUSH2 0x2E2F JUMPI PUSH1 0x4 SWAP1 DUP2 DUP2 EQ PUSH2 0x2E13 JUMPI PUSH1 0x5 DUP2 EQ PUSH2 0x2DF7 JUMPI PUSH1 0x6 DUP2 EQ PUSH2 0x2DE0 JUMPI PUSH1 0x7 DUP2 EQ PUSH2 0x2DE0 JUMPI PUSH1 0x8 DUP2 LT ISZERO SWAP1 DUP2 PUSH2 0x2DD4 JUMPI JUMPDEST POP PUSH2 0x2DA3 JUMPI POP POP PUSH1 0x0 SWAP1 JUMP JUMPDEST PUSH1 0x5 DUP3 MUL SWAP2 DUP1 DUP4 DIV PUSH1 0x5 EQ SWAP1 ISZERO OR ISZERO PUSH2 0x2DBF JUMPI POP PUSH2 0x3E8 SWAP1 DIV SWAP1 JUMP JUMPDEST PUSH1 0x11 SWAP1 PUSH4 0x4E487B71 PUSH1 0xE0 SHL PUSH1 0x0 MSTORE MSTORE PUSH1 0x24 PUSH1 0x0 REVERT JUMPDEST PUSH1 0xF SWAP2 POP GT ISZERO CODESIZE PUSH2 0x2D97 JUMP JUMPDEST POP DUP2 DUP1 DIV PUSH1 0x1 EQ DUP3 ISZERO OR ISZERO PUSH2 0x2DBF JUMPI POP PUSH1 0x64 SWAP1 DIV SWAP1 JUMP JUMPDEST POP DUP2 PUSH1 0x1 SHL SWAP2 DUP1 DUP4 DIV PUSH1 0x2 EQ SWAP1 ISZERO OR ISZERO PUSH2 0x2DBF JUMPI POP PUSH1 0x64 SWAP1 DIV SWAP1 JUMP JUMPDEST POP PUSH1 0x3 DUP3 MUL SWAP2 DUP1 DUP4 DIV PUSH1 0x3 EQ SWAP1 ISZERO OR ISZERO PUSH2 0x2DBF JUMPI POP PUSH1 0x64 SWAP1 DIV SWAP1 JUMP JUMPDEST POP DUP1 PUSH1 0x2 SHL SWAP1 DUP1 DUP3 DIV PUSH1 0x4 EQ SWAP1 ISZERO OR ISZERO PUSH2 0x2608 JUMPI PUSH1 0x64 SWAP1 DIV SWAP1 JUMP JUMPDEST POP PUSH1 0x5 DUP2 MUL SWAP1 DUP1 DUP3 DIV PUSH1 0x5 EQ SWAP1 ISZERO OR ISZERO PUSH2 0x2608 JUMPI PUSH1 0x64 SWAP1 DIV SWAP1 JUMP JUMPDEST POP PUSH1 0x14 DUP2 MUL SWAP1 DUP1 DUP3 DIV PUSH1 0x14 EQ SWAP1 ISZERO OR ISZERO PUSH2 0x2608 JUMPI PUSH1 0x64 SWAP1 DIV SWAP1 JUMP JUMPDEST PUSH1 0xFF AND PUSH1 0x1 DUP2 GT ISZERO PUSH2 0x2EAD JUMPI PUSH1 0x4 DUP2 GT ISZERO PUSH2 0x2EA7 JUMPI PUSH1 0x7 LT ISZERO PUSH2 0x2EA2 JUMPI PUSH1 0xA SWAP1 JUMP JUMPDEST PUSH1 0x5 SWAP1 JUMP JUMPDEST POP PUSH1 0x2 SWAP1 JUMP JUMPDEST POP PUSH1 0x0 SWAP1 JUMP JUMPDEST PUSH1 0x1 PUSH1 0x1 PUSH1 0x40 SHL SUB DUP2 GT PUSH2 0x896 JUMPI PUSH1 0x5 SHL PUSH1 0x20 ADD SWAP1 JUMP JUMPDEST DUP1 MLOAD DUP3 LT ISZERO PUSH2 0x24A1 JUMPI PUSH1 0x20 SWAP2 PUSH1 0x5 SHL ADD ADD SWAP1 JUMP JUMPDEST SWAP1 SWAP2 DUP3 DUP1 PUSH2 0x3116 JUMPI JUMPDEST PUSH2 0x310E JUMPI DUP3 ISZERO SWAP2 DUP3 DUP1 PUSH2 0x30E9 JUMPI JUMPDEST PUSH2 0x2FA6 JUMPI PUSH1 0x4 SWAP4 DUP5 SLOAD SWAP4 PUSH1 0x1 DUP1 DUP7 ADD DUP1 SWAP7 GT PUSH2 0x30D4 JUMPI PUSH2 0x2F14 DUP7 PUSH2 0x2EB3 JUMP JUMPDEST SWAP1 PUSH2 0x2F2F PUSH1 0x40 SWAP8 PUSH2 0x2F27 DUP10 MLOAD SWAP5 DUP6 PUSH2 0x2504 JUMP JUMPDEST DUP1 DUP5 MSTORE PUSH2 0x2EB3 JUMP JUMPDEST SWAP3 PUSH1 0x20 SWAP3 DUP4 DUP2 ADD SWAP5 PUSH1 0x1F NOT ADD CALLDATASIZE DUP7 CALLDATACOPY PUSH1 0x0 DUP1 DUP8 ISZERO PUSH2 0x30B6 JUMPI PUSH1 0x1 PUSH1 0x1 PUSH1 0xA0 SHL SUB DUP10 DUP2 AND DUP4 MSTORE PUSH1 0x2 DUP8 MSTORE DUP12 DUP4 KECCAK256 PUSH1 0x3 ADD SLOAD AND SWAP7 JUMPDEST PUSH1 0x1 PUSH1 0x1 PUSH1 0xA0 SHL SUB SWAP8 DUP9 AND DUP1 PUSH2 0x308D JUMPI JUMPDEST POP POP JUMPDEST DUP2 DUP2 LT PUSH2 0x2FF0 JUMPI POP POP POP DUP1 PUSH2 0x2FD5 JUMPI JUMPDEST PUSH2 0x2FCA JUMPI POP DUP3 PUSH2 0x2FAE JUMPI JUMPDEST POP POP PUSH2 0x2FA6 JUMPI POP POP MLOAD PUSH4 0xC5BB5BCD PUSH1 0xE0 SHL DUP2 MSTORE REVERT JUMPDEST SWAP3 POP PUSH1 0x0 SWAP2 POP JUMP JUMPDEST DUP2 PUSH1 0x2 SWAP3 SWAP4 POP DUP5 AND PUSH1 0x0 MSTORE MSTORE DUP5 DUP5 PUSH1 0x0 KECCAK256 ADD SLOAD AND ISZERO CODESIZE DUP1 PUSH2 0x2F91 JUMP JUMPDEST SWAP4 SWAP7 POP SWAP3 SWAP5 POP POP POP POP JUMP JUMPDEST POP DUP3 DUP6 AND PUSH1 0x0 MSTORE PUSH1 0x2 DUP3 MSTORE DUP3 PUSH1 0x3 DUP9 PUSH1 0x0 KECCAK256 ADD SLOAD AND ISZERO PUSH2 0x2F86 JUMP JUMPDEST DUP7 PUSH2 0x3004 PUSH2 0x2FFD DUP4 PUSH2 0x25F9 JUMP JUMPDEST SWAP3 DUP6 PUSH2 0x2ECA JUMP JUMPDEST MLOAD AND DUP1 PUSH1 0x0 MSTORE PUSH1 0x2 SWAP1 DUP2 DUP9 MSTORE DUP13 PUSH1 0x0 KECCAK256 DUP10 PUSH1 0x3 DUP3 ADD SLOAD AND SWAP1 DUP2 ISZERO PUSH2 0x307A JUMPI DUP16 ADD SLOAD DUP11 AND ISZERO PUSH2 0x3067 JUMPI PUSH2 0x303F PUSH2 0x3038 DUP7 PUSH2 0x25F9 JUMP JUMPDEST SWAP6 DUP8 PUSH2 0x2ECA JUMP JUMPDEST MSTORE PUSH1 0x0 MSTORE DUP7 MSTORE DUP7 DUP13 DUP13 PUSH1 0x0 KECCAK256 ADD SLOAD AND PUSH2 0x3061 PUSH2 0x305A DUP5 PUSH2 0x25F9 JUMP JUMPDEST SWAP4 DUP6 PUSH2 0x2ECA JUMP JUMPDEST MSTORE PUSH2 0x2F76 JUMP JUMPDEST POP SWAP13 POP PUSH1 0x0 SWAP12 POP POP POP POP POP POP POP POP POP POP POP JUMP JUMPDEST POP SWAP1 SWAP14 POP SWAP6 SWAP12 POP POP POP POP POP POP POP POP POP POP POP JUMP JUMPDEST SWAP1 SWAP3 POP DUP6 SWAP3 DUP5 MLOAD ISZERO PUSH2 0x30A1 JUMPI MSTORE CODESIZE DUP1 PUSH2 0x2F73 JUMP JUMPDEST PUSH1 0x32 DUP15 PUSH4 0x4E487B71 PUSH1 0xE0 SHL PUSH1 0x0 MSTORE MSTORE PUSH1 0x24 PUSH1 0x0 REVERT JUMPDEST PUSH1 0x1 PUSH1 0x1 PUSH1 0xA0 SHL SUB DUP10 DUP2 AND DUP4 MSTORE PUSH1 0x2 DUP8 MSTORE DUP12 DUP4 KECCAK256 DUP14 ADD SLOAD AND SWAP7 PUSH2 0x2F62 JUMP JUMPDEST PUSH1 0x11 DUP8 PUSH4 0x4E487B71 PUSH1 0xE0 SHL PUSH1 0x0 MSTORE MSTORE PUSH1 0x24 PUSH1 0x0 REVERT JUMPDEST POP PUSH1 0x1 PUSH1 0x1 PUSH1 0xA0 SHL SUB DUP2 DUP2 AND PUSH1 0x0 SWAP1 DUP2 MSTORE PUSH1 0x2 PUSH1 0x20 MSTORE PUSH1 0x40 SWAP1 KECCAK256 PUSH1 0x4 ADD SLOAD AND ISZERO PUSH2 0x2EF5 JUMP JUMPDEST SWAP2 POP SWAP1 PUSH1 0x1 SWAP1 JUMP JUMPDEST POP PUSH1 0x1 PUSH1 0x1 PUSH1 0xA0 SHL SUB DUP3 DUP2 AND PUSH1 0x0 SWAP1 DUP2 MSTORE PUSH1 0x2 PUSH1 0x20 MSTORE PUSH1 0x40 SWAP1 KECCAK256 PUSH1 0x3 ADD SLOAD AND ISZERO PUSH2 0x2EE7 JUMP JUMPDEST PUSH1 0xFF PUSH1 0x9 DUP2 DUP2 SLOAD AND PUSH2 0x3448 JUMPI PUSH1 0x5 SWAP1 DUP2 SLOAD SWAP5 DUP6 ISZERO PUSH2 0x340F JUMPI PUSH1 0x0 SWAP4 DUP5 DUP5 SSTORE PUSH1 0x46 DUP8 MUL DUP8 DUP2 DIV PUSH1 0x46 SUB PUSH2 0x192F JUMPI PUSH1 0x64 SWAP1 DIV SWAP4 PUSH2 0x3176 DUP6 DUP10 PUSH2 0x2752 JUMP JUMPDEST SWAP6 PUSH2 0x3186 PUSH1 0x8 SWAP5 DUP9 DUP7 SSTORE DUP10 PUSH2 0x275F JUMP JUMPDEST SWAP4 PUSH1 0x3 DUP1 SLOAD DUP1 DUP8 GT PUSH2 0x3407 JUMPI JUMPDEST POP DUP3 SWAP10 DUP1 JUMPDEST DUP8 DUP2 LT PUSH2 0x3374 JUMPI POP DUP11 ISZERO PUSH2 0x3329 JUMPI JUMPDEST DUP7 DUP2 LT PUSH2 0x31EE JUMPI POP POP POP POP POP POP POP SWAP2 PUSH1 0x80 SWAP4 SWAP2 PUSH1 0x0 DUP1 MLOAD PUSH1 0x20 PUSH2 0x347A DUP4 CODECOPY DUP2 MLOAD SWAP2 MSTORE SWAP6 SWAP4 PUSH1 0x1 PUSH1 0xFF NOT DUP3 SLOAD AND OR SWAP1 SSTORE PUSH1 0x40 MLOAD SWAP4 DUP5 MSTORE PUSH1 0x20 DUP5 ADD MSTORE PUSH1 0x40 DUP4 ADD MSTORE PUSH1 0x60 DUP3 ADD MSTORE LOG1 JUMP JUMPDEST DUP11 DUP7 DUP7 DUP12 DUP12 PUSH2 0x31FC DUP7 PUSH2 0x2486 JUMP JUMPDEST PUSH1 0x1 DUP1 PUSH1 0xA0 SHL SUB SWAP2 SLOAD SWAP1 DUP10 SHL SHR AND DUP1 DUP11 MSTORE PUSH1 0x2 SWAP3 DUP10 PUSH1 0x20 SWAP4 DUP6 DUP6 MSTORE DUP13 PUSH1 0x40 SWAP8 DUP9 DUP3 KECCAK256 SWAP10 DUP11 SLOAD DUP6 SHR AND ISZERO PUSH2 0x3315 JUMPI DUP10 ADD SLOAD PUSH1 0x6 DUP11 ADD SLOAD DUP1 DUP3 LT ISZERO PUSH2 0x330D JUMPI POP SWAP10 JUMPDEST PUSH1 0x7 SWAP10 DUP11 ADD SLOAD DUP1 DUP13 GT ISZERO PUSH2 0x3305 JUMPI PUSH2 0x3254 SWAP1 DUP13 PUSH2 0x2752 JUMP JUMPDEST SWAP5 JUMPDEST DUP6 ISZERO PUSH2 0x32F0 JUMPI SWAP2 PUSH2 0x3270 DUP11 SWAP3 PUSH2 0x12E7 DUP9 PUSH2 0x3298 SWAP8 SWAP7 PUSH2 0x2704 JUMP JUMPDEST SWAP5 DUP8 DUP3 MSTORE DUP10 DUP10 MSTORE DUP3 DUP3 KECCAK256 ADD PUSH2 0x3286 DUP7 DUP3 SLOAD PUSH2 0x275F JUMP JUMPDEST SWAP1 SSTORE DUP7 DUP2 MSTORE DUP9 DUP9 MSTORE KECCAK256 ADD SWAP2 DUP3 SLOAD PUSH2 0x275F JUMP JUMPDEST SWAP1 SSTORE PUSH1 0xA DUP1 DUP3 MUL SWAP2 DUP3 DIV SUB PUSH2 0x32DC JUMPI SWAP1 DUP5 SWAP4 SWAP3 SWAP2 PUSH2 0x32C9 PUSH1 0x11 PUSH2 0x32D7 SWAP11 SWAP10 SWAP9 SWAP8 DUP15 DUP6 DUP2 MSTORE DUP8 DUP8 MSTORE KECCAK256 ADD SWAP2 DUP3 SLOAD PUSH2 0x275F JUMP JUMPDEST SWAP1 SSTORE DUP11 MSTORE MSTORE DUP8 KECCAK256 ADD SSTORE PUSH2 0x25F9 JUMP JUMPDEST PUSH2 0x31A7 JUMP JUMPDEST PUSH4 0x4E487B71 PUSH1 0xE0 SHL DUP12 MSTORE PUSH1 0x11 PUSH1 0x4 MSTORE PUSH1 0x24 DUP12 REVERT JUMPDEST POP POP POP POP POP POP POP POP POP POP POP POP PUSH2 0x32D7 SWAP1 PUSH2 0x25F9 JUMP JUMPDEST POP DUP2 SWAP5 PUSH2 0x3256 JUMP JUMPDEST SWAP1 POP SWAP10 PUSH2 0x323C JUMP JUMPDEST POP POP POP POP POP POP POP POP POP POP POP PUSH2 0x32D7 SWAP1 PUSH2 0x25F9 JUMP JUMPDEST POP POP SWAP4 POP SWAP5 PUSH1 0x80 SWAP8 POP DUP6 SWAP5 POP PUSH2 0x3356 SWAP3 POP PUSH2 0x2C19 SWAP2 POP SWAP6 PUSH1 0x0 DUP1 MLOAD PUSH1 0x20 PUSH2 0x347A DUP4 CODECOPY DUP2 MLOAD SWAP2 MSTORE SWAP9 SWAP7 PUSH2 0x275F JUMP JUMPDEST PUSH1 0x7 SSTORE SSTORE PUSH1 0x40 MLOAD SWAP2 DUP3 MSTORE DUP1 PUSH1 0x20 DUP4 ADD MSTORE DUP1 PUSH1 0x40 DUP4 ADD MSTORE PUSH1 0x60 DUP3 ADD MSTORE LOG1 JUMP JUMPDEST PUSH2 0x337D DUP2 PUSH2 0x2486 JUMP JUMPDEST SWAP1 SLOAD SWAP1 DUP5 SHL SHR PUSH1 0x1 PUSH1 0x1 PUSH1 0xA0 SHL SUB AND DUP6 MSTORE PUSH1 0x2 PUSH1 0x20 MSTORE PUSH1 0x40 DUP6 KECCAK256 DUP1 SLOAD DUP6 SHR DUP9 AND ISZERO PUSH2 0x33FD JUMPI PUSH1 0x7 DUP8 DUP3 ADD SLOAD PUSH1 0x6 DUP4 ADD SLOAD DUP1 DUP3 LT PUSH1 0x0 EQ PUSH2 0x33F5 JUMPI POP SWAP2 JUMPDEST ADD SLOAD SWAP1 DUP2 DUP2 GT PUSH2 0x33D5 JUMPI JUMPDEST POP POP PUSH2 0x33D0 SWAP1 PUSH2 0x25F9 JUMP JUMPDEST PUSH2 0x3198 JUMP JUMPDEST SWAP13 PUSH2 0x33E7 PUSH2 0x33ED SWAP3 PUSH2 0x33D0 SWAP5 SWAP16 PUSH2 0x2752 JUMP JUMPDEST SWAP1 PUSH2 0x275F JUMP JUMPDEST SWAP12 SWAP1 CODESIZE PUSH2 0x33C5 JUMP JUMPDEST SWAP1 POP SWAP2 PUSH2 0x33BA JUMP JUMPDEST POP PUSH2 0x33D0 SWAP1 PUSH2 0x25F9 JUMP JUMPDEST SWAP6 POP CODESIZE PUSH2 0x3193 JUMP JUMPDEST PUSH1 0x40 MLOAD PUSH3 0x461BCD PUSH1 0xE5 SHL DUP2 MSTORE PUSH1 0x20 PUSH1 0x4 DUP3 ADD MSTORE PUSH1 0x11 PUSH1 0x24 DUP3 ADD MSTORE PUSH17 0x115B5C1D1E48189A5B985C9E481C1BDBDB PUSH1 0x7A SHL PUSH1 0x44 DUP3 ADD MSTORE PUSH1 0x64 SWAP1 REVERT JUMPDEST PUSH1 0x40 MLOAD PUSH3 0xC94879 PUSH1 0xE4 SHL DUP2 MSTORE PUSH1 0x4 SWAP1 REVERT INVALID DUP12 0xE0 SMOD SWAP13 MSTORE8 AND MSIZE EQ SGT PREVRANDAO 0xCD 0x1F 0xD0 LOG4 CALLCODE DUP5 NOT 0x49 PUSH32 0x9722A3DAAFE3B4186F6B6457E0A0EA5705200C9FFD36DC735FEF1592C3234BB7 0xE3 GT 0xFC SHL EXP PREVRANDAO 0x4F PUSH4 0x70D0620E 0xAE SWAP12 PUSH24 0x9B17422D0DF92223018B32B4D1FA46E071723D6817E2486D STOP EXTCODESIZE 0xEC 0xC5 PUSH0 STOP LOG2 PUSH5 0x6970667358 0x22 SLT KECCAK256 JUMP 0xE9 0xED 0x2F 0x26 0xF9 0xD2 GAS 0xEC PUSH27 0x4CAB5EC5ECE44DEE158BECBB7C34448853D36499201F64736F6C63 NUMBER STOP ADDMOD EQ STOP CALLER "},"methodIdentifiers":{"BINARY_ALLOC()":"44e374d5","BTC_POOL_RATE()":"92446e30","INCOME_LIMIT()":"aa393757","LEVEL_ALLOC()":"77537844","PACKAGE_PRICE()":"039ccc26","activate()":"0f15f4c0","adminPool()":"b86a1fb2","allUsers(uint256)":"a2bdedf4","binaryPool()":"7f1b4064","canRebirth(address)":"e51cb530","distributeBinaryIncome(uint256,uint256)":"2d641f08","distributePowerLeg(uint256,uint256)":"8a8f0429","getAllUsersCount()":"38abfc41","getBtcPoolInfo(address)":"03c3ecb7","getCurrentBinaryPairs(address)":"f24c536a","getMvtContractBalance()":"ce8292f5","getMvtPrice()":"68ddb2b5","getPoolBalances()":"52375bb1","getProfile(address)":"0f53a470","getUserInfo(address)":"6386c1c7","mvaultToken()":"1f6259d5","owner()":"8da5cb5b","rebirth(address,bool)":"94915dd0","register(address,address,bool)":"aa33f5d5","renounceOwnership()":"715018a6","reservePool()":"0266f044","sellMvt(uint256)":"634f627e","setMvaultToken(address)":"1ce5e894","setProfile(string,string,string,string)":"55509c8f","totalUsers()":"bff1f9e1","transferOwnership(address)":"f2fde38b","usdtToken()":"a98ad46c","users(address)":"a87430ba","withdrawAdminPool(address,uint256)":"2808bc8d","withdrawBtcPool(uint256)":"b58e0278","withdrawReservePool(address,uint256)":"ec50324a","withdrawUsdt(uint256)":"d3635a02"}}}}}