{"contracts/BoardMatrixHandler.sol":{"BoardMatrixHandler":{"abi":[{"inputs":[{"internalType":"address","name":"_paymentToken","type":"address"},{"internalType":"uint8","name":"_tokenDecimals","type":"uint8"}],"stateMutability":"nonpayable","type":"constructor"},{"inputs":[{"internalType":"address","name":"owner","type":"address"}],"name":"OwnableInvalidOwner","type":"error"},{"inputs":[{"internalType":"address","name":"account","type":"address"}],"name":"OwnableUnauthorizedAccount","type":"error"},{"inputs":[{"internalType":"address","name":"token","type":"address"}],"name":"SafeERC20FailedOperation","type":"error"},{"anonymous":false,"inputs":[{"indexed":true,"internalType":"address","name":"owner","type":"address"},{"indexed":true,"internalType":"uint256","name":"boardLevel","type":"uint256"},{"indexed":false,"internalType":"uint256","name":"reward","type":"uint256"},{"indexed":false,"internalType":"uint256","name":"liquidity","type":"uint256"}],"name":"BoardCompleted","type":"event"},{"anonymous":false,"inputs":[{"indexed":true,"internalType":"address","name":"user","type":"address"},{"indexed":true,"internalType":"uint256","name":"boardLevel","type":"uint256"},{"indexed":false,"internalType":"uint256","name":"matrixIndex","type":"uint256"}],"name":"BoardEntered","type":"event"},{"anonymous":false,"inputs":[{"indexed":true,"internalType":"address","name":"previousOwner","type":"address"},{"indexed":true,"internalType":"address","name":"newOwner","type":"address"}],"name":"OwnershipTransferred","type":"event"},{"inputs":[],"name":"BASIS_POINTS","outputs":[{"internalType":"uint256","name":"","type":"uint256"}],"stateMutability":"view","type":"function"},{"inputs":[],"name":"BOARD_10_LIQUIDITY_RATE_BP","outputs":[{"internalType":"uint256","name":"","type":"uint256"}],"stateMutability":"view","type":"function"},{"inputs":[],"name":"BOARD_10_REWARD_RATE_BP","outputs":[{"internalType":"uint256","name":"","type":"uint256"}],"stateMutability":"view","type":"function"},{"inputs":[],"name":"BOARD_10_SYSTEM_RATE_BP","outputs":[{"internalType":"uint256","name":"","type":"uint256"}],"stateMutability":"view","type":"function"},{"inputs":[],"name":"BOARD_LIQUIDITY_RATE_BP","outputs":[{"internalType":"uint256","name":"","type":"uint256"}],"stateMutability":"view","type":"function"},{"inputs":[],"name":"BOARD_MEMBERS_REQUIRED","outputs":[{"internalType":"uint256","name":"","type":"uint256"}],"stateMutability":"view","type":"function"},{"inputs":[],"name":"BOARD_NEXT_POOL_RATE_BP","outputs":[{"internalType":"uint256","name":"","type":"uint256"}],"stateMutability":"view","type":"function"},{"inputs":[],"name":"BOARD_REWARD_MEMBERS","outputs":[{"internalType":"uint256","name":"","type":"uint256"}],"stateMutability":"view","type":"function"},{"inputs":[],"name":"BOARD_REWARD_RATE_BP","outputs":[{"internalType":"uint256","name":"","type":"uint256"}],"stateMutability":"view","type":"function"},{"inputs":[],"name":"TOTAL_BOARDS","outputs":[{"internalType":"uint256","name":"","type":"uint256"}],"stateMutability":"view","type":"function"},{"inputs":[{"internalType":"uint256","name":"","type":"uint256"}],"name":"boardCurrentIndex","outputs":[{"internalType":"uint256","name":"","type":"uint256"}],"stateMutability":"view","type":"function"},{"inputs":[{"internalType":"uint256","name":"","type":"uint256"}],"name":"boardPrices","outputs":[{"internalType":"uint256","name":"","type":"uint256"}],"stateMutability":"view","type":"function"},{"inputs":[],"name":"btcRewardToken","outputs":[{"internalType":"contract IERC20","name":"","type":"address"}],"stateMutability":"view","type":"function"},{"inputs":[],"name":"coinLiquidityAddress","outputs":[{"internalType":"address","name":"","type":"address"}],"stateMutability":"view","type":"function"},{"inputs":[{"internalType":"address","name":"_user","type":"address"},{"internalType":"uint256","name":"_boardLevel","type":"uint256"}],"name":"enterBoard","outputs":[],"stateMutability":"nonpayable","type":"function"},{"inputs":[{"internalType":"uint256","name":"_boardLevel","type":"uint256"}],"name":"getBoardCurrentIndex","outputs":[{"internalType":"uint256","name":"","type":"uint256"}],"stateMutability":"view","type":"function"},{"inputs":[{"internalType":"uint256","name":"_boardLevel","type":"uint256"},{"internalType":"uint256","name":"_index","type":"uint256"}],"name":"getBoardMatrixInfo","outputs":[{"internalType":"address","name":"owner","type":"address"},{"internalType":"uint256","name":"filledCount","type":"uint256"},{"internalType":"bool","name":"completed","type":"bool"}],"stateMutability":"view","type":"function"},{"inputs":[{"internalType":"uint256","name":"_boardLevel","type":"uint256"}],"name":"getBoardPrice","outputs":[{"internalType":"uint256","name":"","type":"uint256"}],"stateMutability":"view","type":"function"},{"inputs":[{"internalType":"uint256","name":"_boardLevel","type":"uint256"}],"name":"getBoardQueueLength","outputs":[{"internalType":"uint256","name":"","type":"uint256"}],"stateMutability":"view","type":"function"},{"inputs":[],"name":"mlmContract","outputs":[{"internalType":"address","name":"","type":"address"}],"stateMutability":"view","type":"function"},{"inputs":[],"name":"owner","outputs":[{"internalType":"address","name":"","type":"address"}],"stateMutability":"view","type":"function"},{"inputs":[],"name":"paymentToken","outputs":[{"internalType":"contract IERC20","name":"","type":"address"}],"stateMutability":"view","type":"function"},{"inputs":[{"internalType":"address","name":"_token","type":"address"},{"internalType":"address","name":"_to","type":"address"},{"internalType":"uint256","name":"_amount","type":"uint256"}],"name":"recoverToken","outputs":[],"stateMutability":"nonpayable","type":"function"},{"inputs":[],"name":"renounceOwnership","outputs":[],"stateMutability":"nonpayable","type":"function"},{"inputs":[{"internalType":"uint256","name":"_boardLevel","type":"uint256"},{"internalType":"uint256","name":"_price","type":"uint256"}],"name":"setBoardPrice","outputs":[],"stateMutability":"nonpayable","type":"function"},{"inputs":[{"internalType":"address","name":"_token","type":"address"}],"name":"setBtcRewardToken","outputs":[],"stateMutability":"nonpayable","type":"function"},{"inputs":[{"internalType":"address","name":"_addr","type":"address"}],"name":"setCoinLiquidityAddress","outputs":[],"stateMutability":"nonpayable","type":"function"},{"inputs":[{"internalType":"address","name":"_mlm","type":"address"}],"name":"setMLMContract","outputs":[],"stateMutability":"nonpayable","type":"function"},{"inputs":[{"internalType":"address","name":"_addr","type":"address"}],"name":"setSystemAddress","outputs":[],"stateMutability":"nonpayable","type":"function"},{"inputs":[],"name":"systemAddress","outputs":[{"internalType":"address","name":"","type":"address"}],"stateMutability":"view","type":"function"},{"inputs":[{"internalType":"address","name":"newOwner","type":"address"}],"name":"transferOwnership","outputs":[],"stateMutability":"nonpayable","type":"function"}],"evm":{"bytecode":{"linkReferences":{},"object":"608034620001e857601f6200126738819003918201601f19168301916001600160401b03831184841017620001ed578084926040948552833981010312620001e85780516001600160a01b039182821691829003620001e8576020015160ff8116809103620001e8573315620001cf57600091825460018060a01b03199033828216178555604051953391167f8be0079c531659141344cd1fd0a4f28419497f9722a3daafe3b4186f6b6457e08680a3600e541617600e55604d8111620001bb57600a0a9081603202603281048303620001bb5760049081558260b40260b481048403620001a8576005556102888381029081048403620001a85760065561091d8381029081048403620001a8576007556120ce8381029081048403620001a8576008556176198381029081048403620001a8576009556201a9278381029081048403620001a857600a556205fa8d8381029081048403620001a857600b55621585fb8381029081048403620001a857600c55624d7bee928084029384040362000195575050600d556110639081620002048239f35b634e487b7160e01b825260119052602490fd5b634e487b7160e01b835260118252602483fd5b634e487b7160e01b82526011600452602482fd5b604051631e4fbdf760e01b815260006004820152602490fd5b600080fd5b634e487b7160e01b600052604160045260246000fdfe6080604081815260048036101561001557600080fd5b600092833560e01c90816304841337146107d85750806306210197146107935780632389e78a1461076857806329d7f9eb146106db5780633013ce29146106b257806339ae9efd146106895780633ac272c21461066257806347cd5191146106025780634e759962146105e657806353dafcbb146105bd57806361dba5f314610442578063686a38bd146105415780636f8760fe146104fc578063715018a6146104b45780637d4cf0b8146103ac5780638919d5e91461048b5780638da5cb5b14610463578063946adaef146104475780639898fcd314610442578063a5c3406114610425578063a7229fd9146103cd578063b0ac4626146103b1578063b2418af8146103ac578063ce8702631461035f578063d3ba4f961461031a578063d3e848f1146102f1578063d4a902861461025e578063e1f1c4a71461023d578063eb63e1c214610216578063f2fde38b146101a25763f3b36bf81461017857600080fd5b3461019e57602036600319011261019e5760209282913581526002845220549051908152f35b8280fd5b503461019e57602036600319011261019e576101bc610810565b906101c56108ae565b6001600160a01b0391821692831561020057505082546001600160a01b03198116831784551660008051602061100e8339815191528380a380f35b51631e4fbdf760e01b8152908101849052602490fd5b503461019e57602036600319011261019e5760209282913581526001845220549051908152f35b50503461025a578160031936011261025a57602090516127108152f35b5080fd5b5082346102ee5761026e3661084e565b928183526001602052848320548410156102c657606085610299868287878152600160205220610984565b509060018060a01b038254169160ff60026001830154920154169082519384526020840152151590820152f35b606490602086519162461bcd60e51b8352820152600260248201526127a160f11b6044820152fd5b80fd5b50503461025a578160031936011261025a5760115490516001600160a01b039091168152602090f35b83346102ee5760203660031901126102ee57610334610810565b61033c6108ae565b601080546001600160a01b0319166001600160a01b039290921691909117905580f35b83346102ee5760203660031901126102ee57610379610810565b6103816108ae565b6001600160a01b03166103958115156108da565b601280546001600160a01b03191691909117905580f35b610881565b50503461025a578160031936011261025a5760209051600a8152f35b83346102ee5760603660031901126102ee576103e7610810565b6001600160a01b0360243581811692918382036104215761041461041e9461040d6108ae565b15156108da565b6044359216610f6c565b80f35b8480fd5b50503461025a578160031936011261025a57602090516107d08152f35b610864565b50503461025a578160031936011261025a576020905160098152f35b50503461025a578160031936011261025a57905490516001600160a01b039091168152602090f35b50503461025a578160031936011261025a57600f5490516001600160a01b039091168152602090f35b83346102ee57806003193601126102ee576104cd6108ae565b80546001600160a01b03198116825581906001600160a01b031660008051602061100e8339815191528280a380f35b83346102ee5760203660031901126102ee57610516610810565b61051e6108ae565b600f80546001600160a01b0319166001600160a01b039290921691909117905580f35b503461019e578160031936011261019e5761055a610810565b601254909290336001600160a01b03918216149081156105b0575b5015610588578361041e60243585610a54565b906020606492519162461bcd60e51b835282015260026024820152614e4160f01b6044820152fd5b9050845416331438610575565b50503461025a578160031936011261025a5760125490516001600160a01b039091168152602090f35b50503461025a578160031936011261025a5760209051600c8152f35b5091346102ee5760203660031901126102ee57823590600182101580610657575b61062c9061090b565b600b8210156106445760208383600301549051908152f35b634e487b7160e01b815260328452602490fd5b50600a821115610623565b503461019e57602036600319011261019e5760209282913581526002845220549051908152f35b50503461025a578160031936011261025a5760105490516001600160a01b039091168152602090f35b50503461025a578160031936011261025a57600e5490516001600160a01b039091168152602090f35b50903461019e576106eb3661084e565b9290916106f66108ae565b60018310158061075d575b61070a9061090b565b83156107355750600b82101561072257506003015580f35b634e487b7160e01b845260329052602483fd5b906020606492519162461bcd60e51b83528201526002602482015261050360f41b6044820152fd5b50600a831115610701565b503461019e57602036600319011261019e5735600b81101561019e5760209250600301549051908152f35b83346102ee5760203660031901126102ee576107ad610810565b6107b56108ae565b601180546001600160a01b0319166001600160a01b039290921691909117905580f35b84903461025a578160031936011261025a578061222e60209252f35b60009103126107ff57565b600080fd5b6001600160a01b031690565b600435906001600160a01b03821682036107ff57565b600b8110156108385760030190600090565b634e487b7160e01b600052603260045260246000fd5b60409060031901126107ff576004359060243590565b346107ff5760003660031901126107ff576020604051610fa08152f35b346107ff5760003660031901126107ff5760206040516102718152f35b6000526001602052604060002090565b6000546001600160a01b031633036108c257565b60405163118cdaa760e01b8152336004820152602490fd5b156108e157565b60405162461bcd60e51b815260206004820152600260248201526124ab60f11b6044820152606490fd5b1561091257565b60405162461bcd60e51b8152602060048201526002602482015261109360f21b6044820152606490fd5b6001600160401b03811161094f57604052565b634e487b7160e01b600052604160045260246000fd5b60405190606082016001600160401b0381118382101761094f57604052565b8054821015610838576000526003602060002091020190600090565b8054600160401b81101561094f576109bd91600182018155610984565b6109fc57600260409160018060a01b0384511660018060a01b03198254161781556020840151600182015501910151151560ff80198354169116179055565b634e487b7160e01b600052600060045260246000fd5b600019810191908211610a2157565b634e487b7160e01b600052601160045260246000fd5b6000198114610a215760010190565b9060018201809211610a2157565b90610a89610a618261089e565b610a69610965565b6001600160a01b03851681529060006020830152600060408301526109a0565b80610a9c610a968261089e565b54610a12565b60405181815290936001600160a01b0316907f4e755dd64e53a9f7a5882e2e32eb64718c2273de11e017bd47129b9fe2716d7c90602090a3610ae8816000526002602052604060002090565b54918210610af4575050565b610b0682610b018361089e565b610984565b5091600c60018401610b188154610a37565b8091551015610b2657505050565b82610b4a610b6592610b456002610b6a9701600160ff19825416179055565b610a46565b610b5e846000526002602052604060002090565b5554610804565b610c08565b565b90600982029180830460091490151715610a2157565b9061222e91828102928184041490151715610a2157565b9061027191828102928184041490151715610a2157565b90610fa091828102928184041490151715610a2157565b906107d091828102928184041490151715610a2157565b604091949392606082019560018060a01b0316825260208201520152565b6040513d6000823e3d90fd5b610c26610c21610c1784610826565b90549060031b1c90565b610b6c565b91600a811015610e1057610c50610c42610c4a610c4286610bb0565b612710900490565b94610bc7565b92610c5c600f54610804565b6001600160a01b03908285828416610dff575b505050610c7d601054610804565b85828216610de4575b505080610c94601254610804565b1680610cd5575b50604080519283526020830195909552610b6a94610ccf93928392861691600080516020610fee83398151915291a3610a46565b90610a54565b80939291933b156107ff57604051631a495e5760e31b815260009182908290818381610d068a8a8e60048501610bde565b03925af18015610dc857610dd1575b50610d2c610d27610d27601254610804565b610804565b610d40610c17610d3b86610a46565b610826565b90610d4a85610a46565b91813b15610dcd5760405163ecdc590760e01b8152949392859291839185918391610d79918d60048501610bde565b03925af18015610dc857610b6a96610ccf958594600080516020610fee83398151915293610daf575b5093509650509192610c9b565b80610dbc610dc29261093c565b806107f4565b38610da2565b610bfc565b8380fd5b80610dbc610dde9261093c565b38610d15565b610df891610df3600e54610804565b610f6c565b3885610c86565b610e0892610f6c565b388285610c6f565b9190610e1e610c4283610b82565b91610e37610c42610e31610c4284610b99565b92610b99565b91610e43600f54610804565b6001600160a01b0392908583858316610f5b575b505050610e65601154610804565b90838216610f45575b5050610e7b601054610804565b83838216610f2f575b505081610e92601254610804565b1680610ec5575b506040805194855260208501939093521691600080516020610fee83398151915291819081015b0390a3565b92833b156107ff5760006040518095631a495e5760e31b8252818381610ef08c8c8a60048501610bde565b03925af1908115610dc857600080516020610fee83398151915294610ec092610f1c575b509350610e99565b80610dbc610f299261093c565b38610f14565b610f3e91610df3600e54610804565b3883610e84565b610f5491610df3600e54610804565b3880610e6e565b610f6492610f6c565b388583610e57565b60405163a9059cbb60e01b60009081526001600160a01b039384166004526024949094529260209060448180855af1600160005114811615610fcd575b8360405215610fb757505050565b635274afe760e01b835216600482015260249150fd5b6001811516610fe357813b15153d151616610fa9565b833d6000823e3d90fdfec9dfd5046e5f1be95c560d1b85295f8afd28d0102c20e0b4112b88bd328ca4338be0079c531659141344cd1fd0a4f28419497f9722a3daafe3b4186f6b6457e0a2646970667358221220634770a8c3d0cfa01270a31de518858f9265276d59c699c8c702485d2efd737764736f6c63430008140033","opcodes":"PUSH1 0x80 CALLVALUE PUSH3 0x1E8 JUMPI PUSH1 0x1F PUSH3 0x1267 CODESIZE DUP2 SWAP1 SUB SWAP2 DUP3 ADD PUSH1 0x1F NOT AND DUP4 ADD SWAP2 PUSH1 0x1 PUSH1 0x1 PUSH1 0x40 SHL SUB DUP4 GT DUP5 DUP5 LT OR PUSH3 0x1ED JUMPI DUP1 DUP5 SWAP3 PUSH1 0x40 SWAP5 DUP6 MSTORE DUP4 CODECOPY DUP2 ADD SUB SLT PUSH3 0x1E8 JUMPI DUP1 MLOAD PUSH1 0x1 PUSH1 0x1 PUSH1 0xA0 SHL SUB SWAP2 DUP3 DUP3 AND SWAP2 DUP3 SWAP1 SUB PUSH3 0x1E8 JUMPI PUSH1 0x20 ADD MLOAD PUSH1 0xFF DUP2 AND DUP1 SWAP2 SUB PUSH3 0x1E8 JUMPI CALLER ISZERO PUSH3 0x1CF JUMPI PUSH1 0x0 SWAP2 DUP3 SLOAD PUSH1 0x1 DUP1 PUSH1 0xA0 SHL SUB NOT SWAP1 CALLER DUP3 DUP3 AND OR DUP6 SSTORE PUSH1 0x40 MLOAD SWAP6 CALLER SWAP2 AND PUSH32 0x8BE0079C531659141344CD1FD0A4F28419497F9722A3DAAFE3B4186F6B6457E0 DUP7 DUP1 LOG3 PUSH1 0xE SLOAD AND OR PUSH1 0xE SSTORE PUSH1 0x4D DUP2 GT PUSH3 0x1BB JUMPI PUSH1 0xA EXP SWAP1 DUP2 PUSH1 0x32 MUL PUSH1 0x32 DUP2 DIV DUP4 SUB PUSH3 0x1BB JUMPI PUSH1 0x4 SWAP1 DUP2 SSTORE DUP3 PUSH1 0xB4 MUL PUSH1 0xB4 DUP2 DIV DUP5 SUB PUSH3 0x1A8 JUMPI PUSH1 0x5 SSTORE PUSH2 0x288 DUP4 DUP2 MUL SWAP1 DUP2 DIV DUP5 SUB PUSH3 0x1A8 JUMPI PUSH1 0x6 SSTORE PUSH2 0x91D DUP4 DUP2 MUL SWAP1 DUP2 DIV DUP5 SUB PUSH3 0x1A8 JUMPI PUSH1 0x7 SSTORE PUSH2 0x20CE DUP4 DUP2 MUL SWAP1 DUP2 DIV DUP5 SUB PUSH3 0x1A8 JUMPI PUSH1 0x8 SSTORE PUSH2 0x7619 DUP4 DUP2 MUL SWAP1 DUP2 DIV DUP5 SUB PUSH3 0x1A8 JUMPI PUSH1 0x9 SSTORE PUSH3 0x1A927 DUP4 DUP2 MUL SWAP1 DUP2 DIV DUP5 SUB PUSH3 0x1A8 JUMPI PUSH1 0xA SSTORE PUSH3 0x5FA8D DUP4 DUP2 MUL SWAP1 DUP2 DIV DUP5 SUB PUSH3 0x1A8 JUMPI PUSH1 0xB SSTORE PUSH3 0x1585FB DUP4 DUP2 MUL SWAP1 DUP2 DIV DUP5 SUB PUSH3 0x1A8 JUMPI PUSH1 0xC SSTORE PUSH3 0x4D7BEE SWAP3 DUP1 DUP5 MUL SWAP4 DUP5 DIV SUB PUSH3 0x195 JUMPI POP POP PUSH1 0xD SSTORE PUSH2 0x1063 SWAP1 DUP2 PUSH3 0x204 DUP3 CODECOPY RETURN JUMPDEST PUSH4 0x4E487B71 PUSH1 0xE0 SHL DUP3 MSTORE PUSH1 0x11 SWAP1 MSTORE PUSH1 0x24 SWAP1 REVERT JUMPDEST PUSH4 0x4E487B71 PUSH1 0xE0 SHL DUP4 MSTORE PUSH1 0x11 DUP3 MSTORE PUSH1 0x24 DUP4 REVERT JUMPDEST PUSH4 0x4E487B71 PUSH1 0xE0 SHL DUP3 MSTORE PUSH1 0x11 PUSH1 0x4 MSTORE PUSH1 0x24 DUP3 REVERT JUMPDEST PUSH1 0x40 MLOAD PUSH4 0x1E4FBDF7 PUSH1 0xE0 SHL DUP2 MSTORE PUSH1 0x0 PUSH1 0x4 DUP3 ADD MSTORE PUSH1 0x24 SWAP1 REVERT JUMPDEST PUSH1 0x0 DUP1 REVERT JUMPDEST PUSH4 0x4E487B71 PUSH1 0xE0 SHL PUSH1 0x0 MSTORE PUSH1 0x41 PUSH1 0x4 MSTORE PUSH1 0x24 PUSH1 0x0 REVERT INVALID PUSH1 0x80 PUSH1 0x40 DUP2 DUP2 MSTORE PUSH1 0x4 DUP1 CALLDATASIZE LT ISZERO PUSH2 0x15 JUMPI PUSH1 0x0 DUP1 REVERT JUMPDEST PUSH1 0x0 SWAP3 DUP4 CALLDATALOAD PUSH1 0xE0 SHR SWAP1 DUP2 PUSH4 0x4841337 EQ PUSH2 0x7D8 JUMPI POP DUP1 PUSH4 0x6210197 EQ PUSH2 0x793 JUMPI DUP1 PUSH4 0x2389E78A EQ PUSH2 0x768 JUMPI DUP1 PUSH4 0x29D7F9EB EQ PUSH2 0x6DB JUMPI DUP1 PUSH4 0x3013CE29 EQ PUSH2 0x6B2 JUMPI DUP1 PUSH4 0x39AE9EFD EQ PUSH2 0x689 JUMPI DUP1 PUSH4 0x3AC272C2 EQ PUSH2 0x662 JUMPI DUP1 PUSH4 0x47CD5191 EQ PUSH2 0x602 JUMPI DUP1 PUSH4 0x4E759962 EQ PUSH2 0x5E6 JUMPI DUP1 PUSH4 0x53DAFCBB EQ PUSH2 0x5BD JUMPI DUP1 PUSH4 0x61DBA5F3 EQ PUSH2 0x442 JUMPI DUP1 PUSH4 0x686A38BD EQ PUSH2 0x541 JUMPI DUP1 PUSH4 0x6F8760FE EQ PUSH2 0x4FC JUMPI DUP1 PUSH4 0x715018A6 EQ PUSH2 0x4B4 JUMPI DUP1 PUSH4 0x7D4CF0B8 EQ PUSH2 0x3AC JUMPI DUP1 PUSH4 0x8919D5E9 EQ PUSH2 0x48B JUMPI DUP1 PUSH4 0x8DA5CB5B EQ PUSH2 0x463 JUMPI DUP1 PUSH4 0x946ADAEF EQ PUSH2 0x447 JUMPI DUP1 PUSH4 0x9898FCD3 EQ PUSH2 0x442 JUMPI DUP1 PUSH4 0xA5C34061 EQ PUSH2 0x425 JUMPI DUP1 PUSH4 0xA7229FD9 EQ PUSH2 0x3CD JUMPI DUP1 PUSH4 0xB0AC4626 EQ PUSH2 0x3B1 JUMPI DUP1 PUSH4 0xB2418AF8 EQ PUSH2 0x3AC JUMPI DUP1 PUSH4 0xCE870263 EQ PUSH2 0x35F JUMPI DUP1 PUSH4 0xD3BA4F96 EQ PUSH2 0x31A JUMPI DUP1 PUSH4 0xD3E848F1 EQ PUSH2 0x2F1 JUMPI DUP1 PUSH4 0xD4A90286 EQ PUSH2 0x25E JUMPI DUP1 PUSH4 0xE1F1C4A7 EQ PUSH2 0x23D JUMPI DUP1 PUSH4 0xEB63E1C2 EQ PUSH2 0x216 JUMPI DUP1 PUSH4 0xF2FDE38B EQ PUSH2 0x1A2 JUMPI PUSH4 0xF3B36BF8 EQ PUSH2 0x178 JUMPI PUSH1 0x0 DUP1 REVERT JUMPDEST CALLVALUE PUSH2 0x19E JUMPI PUSH1 0x20 CALLDATASIZE PUSH1 0x3 NOT ADD SLT PUSH2 0x19E JUMPI PUSH1 0x20 SWAP3 DUP3 SWAP2 CALLDATALOAD DUP2 MSTORE PUSH1 0x2 DUP5 MSTORE KECCAK256 SLOAD SWAP1 MLOAD SWAP1 DUP2 MSTORE RETURN JUMPDEST DUP3 DUP1 REVERT JUMPDEST POP CALLVALUE PUSH2 0x19E JUMPI PUSH1 0x20 CALLDATASIZE PUSH1 0x3 NOT ADD SLT PUSH2 0x19E JUMPI PUSH2 0x1BC PUSH2 0x810 JUMP JUMPDEST SWAP1 PUSH2 0x1C5 PUSH2 0x8AE JUMP JUMPDEST PUSH1 0x1 PUSH1 0x1 PUSH1 0xA0 SHL SUB SWAP2 DUP3 AND SWAP3 DUP4 ISZERO PUSH2 0x200 JUMPI POP POP DUP3 SLOAD PUSH1 0x1 PUSH1 0x1 PUSH1 0xA0 SHL SUB NOT DUP2 AND DUP4 OR DUP5 SSTORE AND PUSH1 0x0 DUP1 MLOAD PUSH1 0x20 PUSH2 0x100E DUP4 CODECOPY DUP2 MLOAD SWAP2 MSTORE DUP4 DUP1 LOG3 DUP1 RETURN JUMPDEST MLOAD PUSH4 0x1E4FBDF7 PUSH1 0xE0 SHL DUP2 MSTORE SWAP1 DUP2 ADD DUP5 SWAP1 MSTORE PUSH1 0x24 SWAP1 REVERT JUMPDEST POP CALLVALUE PUSH2 0x19E JUMPI PUSH1 0x20 CALLDATASIZE PUSH1 0x3 NOT ADD SLT PUSH2 0x19E JUMPI PUSH1 0x20 SWAP3 DUP3 SWAP2 CALLDATALOAD DUP2 MSTORE PUSH1 0x1 DUP5 MSTORE KECCAK256 SLOAD SWAP1 MLOAD SWAP1 DUP2 MSTORE RETURN JUMPDEST POP POP CALLVALUE PUSH2 0x25A JUMPI DUP2 PUSH1 0x3 NOT CALLDATASIZE ADD SLT PUSH2 0x25A JUMPI PUSH1 0x20 SWAP1 MLOAD PUSH2 0x2710 DUP2 MSTORE RETURN JUMPDEST POP DUP1 REVERT JUMPDEST POP DUP3 CALLVALUE PUSH2 0x2EE JUMPI PUSH2 0x26E CALLDATASIZE PUSH2 0x84E JUMP JUMPDEST SWAP3 DUP2 DUP4 MSTORE PUSH1 0x1 PUSH1 0x20 MSTORE DUP5 DUP4 KECCAK256 SLOAD DUP5 LT ISZERO PUSH2 0x2C6 JUMPI PUSH1 0x60 DUP6 PUSH2 0x299 DUP7 DUP3 DUP8 DUP8 DUP2 MSTORE PUSH1 0x1 PUSH1 0x20 MSTORE KECCAK256 PUSH2 0x984 JUMP JUMPDEST POP SWAP1 PUSH1 0x1 DUP1 PUSH1 0xA0 SHL SUB DUP3 SLOAD AND SWAP2 PUSH1 0xFF PUSH1 0x2 PUSH1 0x1 DUP4 ADD SLOAD SWAP3 ADD SLOAD AND SWAP1 DUP3 MLOAD SWAP4 DUP5 MSTORE PUSH1 0x20 DUP5 ADD MSTORE ISZERO ISZERO SWAP1 DUP3 ADD MSTORE RETURN JUMPDEST PUSH1 0x64 SWAP1 PUSH1 0x20 DUP7 MLOAD SWAP2 PUSH3 0x461BCD PUSH1 0xE5 SHL DUP4 MSTORE DUP3 ADD MSTORE PUSH1 0x2 PUSH1 0x24 DUP3 ADD MSTORE PUSH2 0x27A1 PUSH1 0xF1 SHL PUSH1 0x44 DUP3 ADD MSTORE REVERT JUMPDEST DUP1 REVERT JUMPDEST POP POP CALLVALUE PUSH2 0x25A JUMPI DUP2 PUSH1 0x3 NOT CALLDATASIZE ADD SLT PUSH2 0x25A JUMPI PUSH1 0x11 SLOAD SWAP1 MLOAD PUSH1 0x1 PUSH1 0x1 PUSH1 0xA0 SHL SUB SWAP1 SWAP2 AND DUP2 MSTORE PUSH1 0x20 SWAP1 RETURN JUMPDEST DUP4 CALLVALUE PUSH2 0x2EE JUMPI PUSH1 0x20 CALLDATASIZE PUSH1 0x3 NOT ADD SLT PUSH2 0x2EE JUMPI PUSH2 0x334 PUSH2 0x810 JUMP JUMPDEST PUSH2 0x33C PUSH2 0x8AE JUMP JUMPDEST PUSH1 0x10 DUP1 SLOAD PUSH1 0x1 PUSH1 0x1 PUSH1 0xA0 SHL SUB NOT AND PUSH1 0x1 PUSH1 0x1 PUSH1 0xA0 SHL SUB SWAP3 SWAP1 SWAP3 AND SWAP2 SWAP1 SWAP2 OR SWAP1 SSTORE DUP1 RETURN JUMPDEST DUP4 CALLVALUE PUSH2 0x2EE JUMPI PUSH1 0x20 CALLDATASIZE PUSH1 0x3 NOT ADD SLT PUSH2 0x2EE JUMPI PUSH2 0x379 PUSH2 0x810 JUMP JUMPDEST PUSH2 0x381 PUSH2 0x8AE JUMP JUMPDEST PUSH1 0x1 PUSH1 0x1 PUSH1 0xA0 SHL SUB AND PUSH2 0x395 DUP2 ISZERO ISZERO PUSH2 0x8DA JUMP JUMPDEST PUSH1 0x12 DUP1 SLOAD PUSH1 0x1 PUSH1 0x1 PUSH1 0xA0 SHL SUB NOT AND SWAP2 SWAP1 SWAP2 OR SWAP1 SSTORE DUP1 RETURN JUMPDEST PUSH2 0x881 JUMP JUMPDEST POP POP CALLVALUE PUSH2 0x25A JUMPI DUP2 PUSH1 0x3 NOT CALLDATASIZE ADD SLT PUSH2 0x25A JUMPI PUSH1 0x20 SWAP1 MLOAD PUSH1 0xA DUP2 MSTORE RETURN JUMPDEST DUP4 CALLVALUE PUSH2 0x2EE JUMPI PUSH1 0x60 CALLDATASIZE PUSH1 0x3 NOT ADD SLT PUSH2 0x2EE JUMPI PUSH2 0x3E7 PUSH2 0x810 JUMP JUMPDEST PUSH1 0x1 PUSH1 0x1 PUSH1 0xA0 SHL SUB PUSH1 0x24 CALLDATALOAD DUP2 DUP2 AND SWAP3 SWAP2 DUP4 DUP3 SUB PUSH2 0x421 JUMPI PUSH2 0x414 PUSH2 0x41E SWAP5 PUSH2 0x40D PUSH2 0x8AE JUMP JUMPDEST ISZERO ISZERO PUSH2 0x8DA JUMP JUMPDEST PUSH1 0x44 CALLDATALOAD SWAP3 AND PUSH2 0xF6C JUMP JUMPDEST DUP1 RETURN JUMPDEST DUP5 DUP1 REVERT JUMPDEST POP POP CALLVALUE PUSH2 0x25A JUMPI DUP2 PUSH1 0x3 NOT CALLDATASIZE ADD SLT PUSH2 0x25A JUMPI PUSH1 0x20 SWAP1 MLOAD PUSH2 0x7D0 DUP2 MSTORE RETURN JUMPDEST PUSH2 0x864 JUMP JUMPDEST POP POP CALLVALUE PUSH2 0x25A JUMPI DUP2 PUSH1 0x3 NOT CALLDATASIZE ADD SLT PUSH2 0x25A JUMPI PUSH1 0x20 SWAP1 MLOAD PUSH1 0x9 DUP2 MSTORE RETURN JUMPDEST POP POP CALLVALUE PUSH2 0x25A JUMPI DUP2 PUSH1 0x3 NOT CALLDATASIZE ADD SLT PUSH2 0x25A JUMPI SWAP1 SLOAD SWAP1 MLOAD PUSH1 0x1 PUSH1 0x1 PUSH1 0xA0 SHL SUB SWAP1 SWAP2 AND DUP2 MSTORE PUSH1 0x20 SWAP1 RETURN JUMPDEST POP POP CALLVALUE PUSH2 0x25A JUMPI DUP2 PUSH1 0x3 NOT CALLDATASIZE ADD SLT PUSH2 0x25A JUMPI PUSH1 0xF SLOAD SWAP1 MLOAD PUSH1 0x1 PUSH1 0x1 PUSH1 0xA0 SHL SUB SWAP1 SWAP2 AND DUP2 MSTORE PUSH1 0x20 SWAP1 RETURN JUMPDEST DUP4 CALLVALUE PUSH2 0x2EE JUMPI DUP1 PUSH1 0x3 NOT CALLDATASIZE ADD SLT PUSH2 0x2EE JUMPI PUSH2 0x4CD PUSH2 0x8AE JUMP JUMPDEST DUP1 SLOAD PUSH1 0x1 PUSH1 0x1 PUSH1 0xA0 SHL SUB NOT DUP2 AND DUP3 SSTORE DUP2 SWAP1 PUSH1 0x1 PUSH1 0x1 PUSH1 0xA0 SHL SUB AND PUSH1 0x0 DUP1 MLOAD PUSH1 0x20 PUSH2 0x100E DUP4 CODECOPY DUP2 MLOAD SWAP2 MSTORE DUP3 DUP1 LOG3 DUP1 RETURN JUMPDEST DUP4 CALLVALUE PUSH2 0x2EE JUMPI PUSH1 0x20 CALLDATASIZE PUSH1 0x3 NOT ADD SLT PUSH2 0x2EE JUMPI PUSH2 0x516 PUSH2 0x810 JUMP JUMPDEST PUSH2 0x51E PUSH2 0x8AE JUMP JUMPDEST PUSH1 0xF DUP1 SLOAD PUSH1 0x1 PUSH1 0x1 PUSH1 0xA0 SHL SUB NOT AND PUSH1 0x1 PUSH1 0x1 PUSH1 0xA0 SHL SUB SWAP3 SWAP1 SWAP3 AND SWAP2 SWAP1 SWAP2 OR SWAP1 SSTORE DUP1 RETURN JUMPDEST POP CALLVALUE PUSH2 0x19E JUMPI DUP2 PUSH1 0x3 NOT CALLDATASIZE ADD SLT PUSH2 0x19E JUMPI PUSH2 0x55A PUSH2 0x810 JUMP JUMPDEST PUSH1 0x12 SLOAD SWAP1 SWAP3 SWAP1 CALLER PUSH1 0x1 PUSH1 0x1 PUSH1 0xA0 SHL SUB SWAP2 DUP3 AND EQ SWAP1 DUP2 ISZERO PUSH2 0x5B0 JUMPI JUMPDEST POP ISZERO PUSH2 0x588 JUMPI DUP4 PUSH2 0x41E PUSH1 0x24 CALLDATALOAD DUP6 PUSH2 0xA54 JUMP JUMPDEST SWAP1 PUSH1 0x20 PUSH1 0x64 SWAP3 MLOAD SWAP2 PUSH3 0x461BCD PUSH1 0xE5 SHL DUP4 MSTORE DUP3 ADD MSTORE PUSH1 0x2 PUSH1 0x24 DUP3 ADD MSTORE PUSH2 0x4E41 PUSH1 0xF0 SHL PUSH1 0x44 DUP3 ADD MSTORE REVERT JUMPDEST SWAP1 POP DUP5 SLOAD AND CALLER EQ CODESIZE PUSH2 0x575 JUMP JUMPDEST POP POP CALLVALUE PUSH2 0x25A JUMPI DUP2 PUSH1 0x3 NOT CALLDATASIZE ADD SLT PUSH2 0x25A JUMPI PUSH1 0x12 SLOAD SWAP1 MLOAD PUSH1 0x1 PUSH1 0x1 PUSH1 0xA0 SHL SUB SWAP1 SWAP2 AND DUP2 MSTORE PUSH1 0x20 SWAP1 RETURN JUMPDEST POP POP CALLVALUE PUSH2 0x25A JUMPI DUP2 PUSH1 0x3 NOT CALLDATASIZE ADD SLT PUSH2 0x25A JUMPI PUSH1 0x20 SWAP1 MLOAD PUSH1 0xC DUP2 MSTORE RETURN JUMPDEST POP SWAP2 CALLVALUE PUSH2 0x2EE JUMPI PUSH1 0x20 CALLDATASIZE PUSH1 0x3 NOT ADD SLT PUSH2 0x2EE JUMPI DUP3 CALLDATALOAD SWAP1 PUSH1 0x1 DUP3 LT ISZERO DUP1 PUSH2 0x657 JUMPI JUMPDEST PUSH2 0x62C SWAP1 PUSH2 0x90B JUMP JUMPDEST PUSH1 0xB DUP3 LT ISZERO PUSH2 0x644 JUMPI PUSH1 0x20 DUP4 DUP4 PUSH1 0x3 ADD SLOAD SWAP1 MLOAD SWAP1 DUP2 MSTORE RETURN JUMPDEST PUSH4 0x4E487B71 PUSH1 0xE0 SHL DUP2 MSTORE PUSH1 0x32 DUP5 MSTORE PUSH1 0x24 SWAP1 REVERT JUMPDEST POP PUSH1 0xA DUP3 GT ISZERO PUSH2 0x623 JUMP JUMPDEST POP CALLVALUE PUSH2 0x19E JUMPI PUSH1 0x20 CALLDATASIZE PUSH1 0x3 NOT ADD SLT PUSH2 0x19E JUMPI PUSH1 0x20 SWAP3 DUP3 SWAP2 CALLDATALOAD DUP2 MSTORE PUSH1 0x2 DUP5 MSTORE KECCAK256 SLOAD SWAP1 MLOAD SWAP1 DUP2 MSTORE RETURN JUMPDEST POP POP CALLVALUE PUSH2 0x25A JUMPI DUP2 PUSH1 0x3 NOT CALLDATASIZE ADD SLT PUSH2 0x25A JUMPI PUSH1 0x10 SLOAD SWAP1 MLOAD PUSH1 0x1 PUSH1 0x1 PUSH1 0xA0 SHL SUB SWAP1 SWAP2 AND DUP2 MSTORE PUSH1 0x20 SWAP1 RETURN JUMPDEST POP POP CALLVALUE PUSH2 0x25A JUMPI DUP2 PUSH1 0x3 NOT CALLDATASIZE ADD SLT PUSH2 0x25A JUMPI PUSH1 0xE SLOAD SWAP1 MLOAD PUSH1 0x1 PUSH1 0x1 PUSH1 0xA0 SHL SUB SWAP1 SWAP2 AND DUP2 MSTORE PUSH1 0x20 SWAP1 RETURN JUMPDEST POP SWAP1 CALLVALUE PUSH2 0x19E JUMPI PUSH2 0x6EB CALLDATASIZE PUSH2 0x84E JUMP JUMPDEST SWAP3 SWAP1 SWAP2 PUSH2 0x6F6 PUSH2 0x8AE JUMP JUMPDEST PUSH1 0x1 DUP4 LT ISZERO DUP1 PUSH2 0x75D JUMPI JUMPDEST PUSH2 0x70A SWAP1 PUSH2 0x90B JUMP JUMPDEST DUP4 ISZERO PUSH2 0x735 JUMPI POP PUSH1 0xB DUP3 LT ISZERO PUSH2 0x722 JUMPI POP PUSH1 0x3 ADD SSTORE DUP1 RETURN JUMPDEST PUSH4 0x4E487B71 PUSH1 0xE0 SHL DUP5 MSTORE PUSH1 0x32 SWAP1 MSTORE PUSH1 0x24 DUP4 REVERT JUMPDEST SWAP1 PUSH1 0x20 PUSH1 0x64 SWAP3 MLOAD SWAP2 PUSH3 0x461BCD PUSH1 0xE5 SHL DUP4 MSTORE DUP3 ADD MSTORE PUSH1 0x2 PUSH1 0x24 DUP3 ADD MSTORE PUSH2 0x503 PUSH1 0xF4 SHL PUSH1 0x44 DUP3 ADD MSTORE REVERT JUMPDEST POP PUSH1 0xA DUP4 GT ISZERO PUSH2 0x701 JUMP JUMPDEST POP CALLVALUE PUSH2 0x19E JUMPI PUSH1 0x20 CALLDATASIZE PUSH1 0x3 NOT ADD SLT PUSH2 0x19E JUMPI CALLDATALOAD PUSH1 0xB DUP2 LT ISZERO PUSH2 0x19E JUMPI PUSH1 0x20 SWAP3 POP PUSH1 0x3 ADD SLOAD SWAP1 MLOAD SWAP1 DUP2 MSTORE RETURN JUMPDEST DUP4 CALLVALUE PUSH2 0x2EE JUMPI PUSH1 0x20 CALLDATASIZE PUSH1 0x3 NOT ADD SLT PUSH2 0x2EE JUMPI PUSH2 0x7AD PUSH2 0x810 JUMP JUMPDEST PUSH2 0x7B5 PUSH2 0x8AE JUMP JUMPDEST PUSH1 0x11 DUP1 SLOAD PUSH1 0x1 PUSH1 0x1 PUSH1 0xA0 SHL SUB NOT AND PUSH1 0x1 PUSH1 0x1 PUSH1 0xA0 SHL SUB SWAP3 SWAP1 SWAP3 AND SWAP2 SWAP1 SWAP2 OR SWAP1 SSTORE DUP1 RETURN JUMPDEST DUP5 SWAP1 CALLVALUE PUSH2 0x25A JUMPI DUP2 PUSH1 0x3 NOT CALLDATASIZE ADD SLT PUSH2 0x25A JUMPI DUP1 PUSH2 0x222E PUSH1 0x20 SWAP3 MSTORE RETURN JUMPDEST PUSH1 0x0 SWAP2 SUB SLT PUSH2 0x7FF JUMPI JUMP JUMPDEST PUSH1 0x0 DUP1 REVERT JUMPDEST PUSH1 0x1 PUSH1 0x1 PUSH1 0xA0 SHL SUB AND SWAP1 JUMP JUMPDEST PUSH1 0x4 CALLDATALOAD SWAP1 PUSH1 0x1 PUSH1 0x1 PUSH1 0xA0 SHL SUB DUP3 AND DUP3 SUB PUSH2 0x7FF JUMPI JUMP JUMPDEST PUSH1 0xB DUP2 LT ISZERO PUSH2 0x838 JUMPI PUSH1 0x3 ADD SWAP1 PUSH1 0x0 SWAP1 JUMP JUMPDEST PUSH4 0x4E487B71 PUSH1 0xE0 SHL PUSH1 0x0 MSTORE PUSH1 0x32 PUSH1 0x4 MSTORE PUSH1 0x24 PUSH1 0x0 REVERT JUMPDEST PUSH1 0x40 SWAP1 PUSH1 0x3 NOT ADD SLT PUSH2 0x7FF JUMPI PUSH1 0x4 CALLDATALOAD SWAP1 PUSH1 0x24 CALLDATALOAD SWAP1 JUMP JUMPDEST CALLVALUE PUSH2 0x7FF JUMPI PUSH1 0x0 CALLDATASIZE PUSH1 0x3 NOT ADD SLT PUSH2 0x7FF JUMPI PUSH1 0x20 PUSH1 0x40 MLOAD PUSH2 0xFA0 DUP2 MSTORE RETURN JUMPDEST CALLVALUE PUSH2 0x7FF JUMPI PUSH1 0x0 CALLDATASIZE PUSH1 0x3 NOT ADD SLT PUSH2 0x7FF JUMPI PUSH1 0x20 PUSH1 0x40 MLOAD PUSH2 0x271 DUP2 MSTORE RETURN JUMPDEST PUSH1 0x0 MSTORE PUSH1 0x1 PUSH1 0x20 MSTORE PUSH1 0x40 PUSH1 0x0 KECCAK256 SWAP1 JUMP JUMPDEST PUSH1 0x0 SLOAD PUSH1 0x1 PUSH1 0x1 PUSH1 0xA0 SHL SUB AND CALLER SUB PUSH2 0x8C2 JUMPI JUMP JUMPDEST PUSH1 0x40 MLOAD PUSH4 0x118CDAA7 PUSH1 0xE0 SHL DUP2 MSTORE CALLER PUSH1 0x4 DUP3 ADD MSTORE PUSH1 0x24 SWAP1 REVERT JUMPDEST ISZERO PUSH2 0x8E1 JUMPI JUMP JUMPDEST PUSH1 0x40 MLOAD PUSH3 0x461BCD PUSH1 0xE5 SHL DUP2 MSTORE PUSH1 0x20 PUSH1 0x4 DUP3 ADD MSTORE PUSH1 0x2 PUSH1 0x24 DUP3 ADD MSTORE PUSH2 0x24AB PUSH1 0xF1 SHL PUSH1 0x44 DUP3 ADD MSTORE PUSH1 0x64 SWAP1 REVERT JUMPDEST ISZERO PUSH2 0x912 JUMPI JUMP JUMPDEST PUSH1 0x40 MLOAD PUSH3 0x461BCD PUSH1 0xE5 SHL DUP2 MSTORE PUSH1 0x20 PUSH1 0x4 DUP3 ADD MSTORE PUSH1 0x2 PUSH1 0x24 DUP3 ADD MSTORE PUSH2 0x1093 PUSH1 0xF2 SHL PUSH1 0x44 DUP3 ADD MSTORE PUSH1 0x64 SWAP1 REVERT JUMPDEST PUSH1 0x1 PUSH1 0x1 PUSH1 0x40 SHL SUB DUP2 GT PUSH2 0x94F JUMPI PUSH1 0x40 MSTORE JUMP JUMPDEST PUSH4 0x4E487B71 PUSH1 0xE0 SHL PUSH1 0x0 MSTORE PUSH1 0x41 PUSH1 0x4 MSTORE PUSH1 0x24 PUSH1 0x0 REVERT JUMPDEST PUSH1 0x40 MLOAD SWAP1 PUSH1 0x60 DUP3 ADD PUSH1 0x1 PUSH1 0x1 PUSH1 0x40 SHL SUB DUP2 GT DUP4 DUP3 LT OR PUSH2 0x94F JUMPI PUSH1 0x40 MSTORE JUMP JUMPDEST DUP1 SLOAD DUP3 LT ISZERO PUSH2 0x838 JUMPI PUSH1 0x0 MSTORE PUSH1 0x3 PUSH1 0x20 PUSH1 0x0 KECCAK256 SWAP2 MUL ADD SWAP1 PUSH1 0x0 SWAP1 JUMP JUMPDEST DUP1 SLOAD PUSH1 0x1 PUSH1 0x40 SHL DUP2 LT ISZERO PUSH2 0x94F JUMPI PUSH2 0x9BD SWAP2 PUSH1 0x1 DUP3 ADD DUP2 SSTORE PUSH2 0x984 JUMP JUMPDEST PUSH2 0x9FC JUMPI PUSH1 0x2 PUSH1 0x40 SWAP2 PUSH1 0x1 DUP1 PUSH1 0xA0 SHL SUB DUP5 MLOAD AND PUSH1 0x1 DUP1 PUSH1 0xA0 SHL SUB NOT DUP3 SLOAD AND OR DUP2 SSTORE PUSH1 0x20 DUP5 ADD MLOAD PUSH1 0x1 DUP3 ADD SSTORE ADD SWAP2 ADD MLOAD ISZERO ISZERO PUSH1 0xFF DUP1 NOT DUP4 SLOAD AND SWAP2 AND OR SWAP1 SSTORE JUMP JUMPDEST PUSH4 0x4E487B71 PUSH1 0xE0 SHL PUSH1 0x0 MSTORE PUSH1 0x0 PUSH1 0x4 MSTORE PUSH1 0x24 PUSH1 0x0 REVERT JUMPDEST PUSH1 0x0 NOT DUP2 ADD SWAP2 SWAP1 DUP3 GT PUSH2 0xA21 JUMPI JUMP JUMPDEST PUSH4 0x4E487B71 PUSH1 0xE0 SHL PUSH1 0x0 MSTORE PUSH1 0x11 PUSH1 0x4 MSTORE PUSH1 0x24 PUSH1 0x0 REVERT JUMPDEST PUSH1 0x0 NOT DUP2 EQ PUSH2 0xA21 JUMPI PUSH1 0x1 ADD SWAP1 JUMP JUMPDEST SWAP1 PUSH1 0x1 DUP3 ADD DUP1 SWAP3 GT PUSH2 0xA21 JUMPI JUMP JUMPDEST SWAP1 PUSH2 0xA89 PUSH2 0xA61 DUP3 PUSH2 0x89E JUMP JUMPDEST PUSH2 0xA69 PUSH2 0x965 JUMP JUMPDEST PUSH1 0x1 PUSH1 0x1 PUSH1 0xA0 SHL SUB DUP6 AND DUP2 MSTORE SWAP1 PUSH1 0x0 PUSH1 0x20 DUP4 ADD MSTORE PUSH1 0x0 PUSH1 0x40 DUP4 ADD MSTORE PUSH2 0x9A0 JUMP JUMPDEST DUP1 PUSH2 0xA9C PUSH2 0xA96 DUP3 PUSH2 0x89E JUMP JUMPDEST SLOAD PUSH2 0xA12 JUMP JUMPDEST PUSH1 0x40 MLOAD DUP2 DUP2 MSTORE SWAP1 SWAP4 PUSH1 0x1 PUSH1 0x1 PUSH1 0xA0 SHL SUB AND SWAP1 PUSH32 0x4E755DD64E53A9F7A5882E2E32EB64718C2273DE11E017BD47129B9FE2716D7C SWAP1 PUSH1 0x20 SWAP1 LOG3 PUSH2 0xAE8 DUP2 PUSH1 0x0 MSTORE PUSH1 0x2 PUSH1 0x20 MSTORE PUSH1 0x40 PUSH1 0x0 KECCAK256 SWAP1 JUMP JUMPDEST SLOAD SWAP2 DUP3 LT PUSH2 0xAF4 JUMPI POP POP JUMP JUMPDEST PUSH2 0xB06 DUP3 PUSH2 0xB01 DUP4 PUSH2 0x89E JUMP JUMPDEST PUSH2 0x984 JUMP JUMPDEST POP SWAP2 PUSH1 0xC PUSH1 0x1 DUP5 ADD PUSH2 0xB18 DUP2 SLOAD PUSH2 0xA37 JUMP JUMPDEST DUP1 SWAP2 SSTORE LT ISZERO PUSH2 0xB26 JUMPI POP POP POP JUMP JUMPDEST DUP3 PUSH2 0xB4A PUSH2 0xB65 SWAP3 PUSH2 0xB45 PUSH1 0x2 PUSH2 0xB6A SWAP8 ADD PUSH1 0x1 PUSH1 0xFF NOT DUP3 SLOAD AND OR SWAP1 SSTORE JUMP JUMPDEST PUSH2 0xA46 JUMP JUMPDEST PUSH2 0xB5E DUP5 PUSH1 0x0 MSTORE PUSH1 0x2 PUSH1 0x20 MSTORE PUSH1 0x40 PUSH1 0x0 KECCAK256 SWAP1 JUMP JUMPDEST SSTORE SLOAD PUSH2 0x804 JUMP JUMPDEST PUSH2 0xC08 JUMP JUMPDEST JUMP JUMPDEST SWAP1 PUSH1 0x9 DUP3 MUL SWAP2 DUP1 DUP4 DIV PUSH1 0x9 EQ SWAP1 ISZERO OR ISZERO PUSH2 0xA21 JUMPI JUMP JUMPDEST SWAP1 PUSH2 0x222E SWAP2 DUP3 DUP2 MUL SWAP3 DUP2 DUP5 DIV EQ SWAP1 ISZERO OR ISZERO PUSH2 0xA21 JUMPI JUMP JUMPDEST SWAP1 PUSH2 0x271 SWAP2 DUP3 DUP2 MUL SWAP3 DUP2 DUP5 DIV EQ SWAP1 ISZERO OR ISZERO PUSH2 0xA21 JUMPI JUMP JUMPDEST SWAP1 PUSH2 0xFA0 SWAP2 DUP3 DUP2 MUL SWAP3 DUP2 DUP5 DIV EQ SWAP1 ISZERO OR ISZERO PUSH2 0xA21 JUMPI JUMP JUMPDEST SWAP1 PUSH2 0x7D0 SWAP2 DUP3 DUP2 MUL SWAP3 DUP2 DUP5 DIV EQ SWAP1 ISZERO OR ISZERO PUSH2 0xA21 JUMPI JUMP JUMPDEST PUSH1 0x40 SWAP2 SWAP5 SWAP4 SWAP3 PUSH1 0x60 DUP3 ADD SWAP6 PUSH1 0x1 DUP1 PUSH1 0xA0 SHL SUB AND DUP3 MSTORE PUSH1 0x20 DUP3 ADD MSTORE ADD MSTORE JUMP JUMPDEST PUSH1 0x40 MLOAD RETURNDATASIZE PUSH1 0x0 DUP3 RETURNDATACOPY RETURNDATASIZE SWAP1 REVERT JUMPDEST PUSH2 0xC26 PUSH2 0xC21 PUSH2 0xC17 DUP5 PUSH2 0x826 JUMP JUMPDEST SWAP1 SLOAD SWAP1 PUSH1 0x3 SHL SHR SWAP1 JUMP JUMPDEST PUSH2 0xB6C JUMP JUMPDEST SWAP2 PUSH1 0xA DUP2 LT ISZERO PUSH2 0xE10 JUMPI PUSH2 0xC50 PUSH2 0xC42 PUSH2 0xC4A PUSH2 0xC42 DUP7 PUSH2 0xBB0 JUMP JUMPDEST PUSH2 0x2710 SWAP1 DIV SWAP1 JUMP JUMPDEST SWAP5 PUSH2 0xBC7 JUMP JUMPDEST SWAP3 PUSH2 0xC5C PUSH1 0xF SLOAD PUSH2 0x804 JUMP JUMPDEST PUSH1 0x1 PUSH1 0x1 PUSH1 0xA0 SHL SUB SWAP1 DUP3 DUP6 DUP3 DUP5 AND PUSH2 0xDFF JUMPI JUMPDEST POP POP POP PUSH2 0xC7D PUSH1 0x10 SLOAD PUSH2 0x804 JUMP JUMPDEST DUP6 DUP3 DUP3 AND PUSH2 0xDE4 JUMPI JUMPDEST POP POP DUP1 PUSH2 0xC94 PUSH1 0x12 SLOAD PUSH2 0x804 JUMP JUMPDEST AND DUP1 PUSH2 0xCD5 JUMPI JUMPDEST POP PUSH1 0x40 DUP1 MLOAD SWAP3 DUP4 MSTORE PUSH1 0x20 DUP4 ADD SWAP6 SWAP1 SWAP6 MSTORE PUSH2 0xB6A SWAP5 PUSH2 0xCCF SWAP4 SWAP3 DUP4 SWAP3 DUP7 AND SWAP2 PUSH1 0x0 DUP1 MLOAD PUSH1 0x20 PUSH2 0xFEE DUP4 CODECOPY DUP2 MLOAD SWAP2 MSTORE SWAP2 LOG3 PUSH2 0xA46 JUMP JUMPDEST SWAP1 PUSH2 0xA54 JUMP JUMPDEST DUP1 SWAP4 SWAP3 SWAP2 SWAP4 EXTCODESIZE ISZERO PUSH2 0x7FF JUMPI PUSH1 0x40 MLOAD PUSH4 0x1A495E57 PUSH1 0xE3 SHL DUP2 MSTORE PUSH1 0x0 SWAP2 DUP3 SWAP1 DUP3 SWAP1 DUP2 DUP4 DUP2 PUSH2 0xD06 DUP11 DUP11 DUP15 PUSH1 0x4 DUP6 ADD PUSH2 0xBDE JUMP JUMPDEST SUB SWAP3 GAS CALL DUP1 ISZERO PUSH2 0xDC8 JUMPI PUSH2 0xDD1 JUMPI JUMPDEST POP PUSH2 0xD2C PUSH2 0xD27 PUSH2 0xD27 PUSH1 0x12 SLOAD PUSH2 0x804 JUMP JUMPDEST PUSH2 0x804 JUMP JUMPDEST PUSH2 0xD40 PUSH2 0xC17 PUSH2 0xD3B DUP7 PUSH2 0xA46 JUMP JUMPDEST PUSH2 0x826 JUMP JUMPDEST SWAP1 PUSH2 0xD4A DUP6 PUSH2 0xA46 JUMP JUMPDEST SWAP2 DUP2 EXTCODESIZE ISZERO PUSH2 0xDCD JUMPI PUSH1 0x40 MLOAD PUSH4 0xECDC5907 PUSH1 0xE0 SHL DUP2 MSTORE SWAP5 SWAP4 SWAP3 DUP6 SWAP3 SWAP2 DUP4 SWAP2 DUP6 SWAP2 DUP4 SWAP2 PUSH2 0xD79 SWAP2 DUP14 PUSH1 0x4 DUP6 ADD PUSH2 0xBDE JUMP JUMPDEST SUB SWAP3 GAS CALL DUP1 ISZERO PUSH2 0xDC8 JUMPI PUSH2 0xB6A SWAP7 PUSH2 0xCCF SWAP6 DUP6 SWAP5 PUSH1 0x0 DUP1 MLOAD PUSH1 0x20 PUSH2 0xFEE DUP4 CODECOPY DUP2 MLOAD SWAP2 MSTORE SWAP4 PUSH2 0xDAF JUMPI JUMPDEST POP SWAP4 POP SWAP7 POP POP SWAP2 SWAP3 PUSH2 0xC9B JUMP JUMPDEST DUP1 PUSH2 0xDBC PUSH2 0xDC2 SWAP3 PUSH2 0x93C JUMP JUMPDEST DUP1 PUSH2 0x7F4 JUMP JUMPDEST CODESIZE PUSH2 0xDA2 JUMP JUMPDEST PUSH2 0xBFC JUMP JUMPDEST DUP4 DUP1 REVERT JUMPDEST DUP1 PUSH2 0xDBC PUSH2 0xDDE SWAP3 PUSH2 0x93C JUMP JUMPDEST CODESIZE PUSH2 0xD15 JUMP JUMPDEST PUSH2 0xDF8 SWAP2 PUSH2 0xDF3 PUSH1 0xE SLOAD PUSH2 0x804 JUMP JUMPDEST PUSH2 0xF6C JUMP JUMPDEST CODESIZE DUP6 PUSH2 0xC86 JUMP JUMPDEST PUSH2 0xE08 SWAP3 PUSH2 0xF6C JUMP JUMPDEST CODESIZE DUP3 DUP6 PUSH2 0xC6F JUMP JUMPDEST SWAP2 SWAP1 PUSH2 0xE1E PUSH2 0xC42 DUP4 PUSH2 0xB82 JUMP JUMPDEST SWAP2 PUSH2 0xE37 PUSH2 0xC42 PUSH2 0xE31 PUSH2 0xC42 DUP5 PUSH2 0xB99 JUMP JUMPDEST SWAP3 PUSH2 0xB99 JUMP JUMPDEST SWAP2 PUSH2 0xE43 PUSH1 0xF SLOAD PUSH2 0x804 JUMP JUMPDEST PUSH1 0x1 PUSH1 0x1 PUSH1 0xA0 SHL SUB SWAP3 SWAP1 DUP6 DUP4 DUP6 DUP4 AND PUSH2 0xF5B JUMPI JUMPDEST POP POP POP PUSH2 0xE65 PUSH1 0x11 SLOAD PUSH2 0x804 JUMP JUMPDEST SWAP1 DUP4 DUP3 AND PUSH2 0xF45 JUMPI JUMPDEST POP POP PUSH2 0xE7B PUSH1 0x10 SLOAD PUSH2 0x804 JUMP JUMPDEST DUP4 DUP4 DUP3 AND PUSH2 0xF2F JUMPI JUMPDEST POP POP DUP2 PUSH2 0xE92 PUSH1 0x12 SLOAD PUSH2 0x804 JUMP JUMPDEST AND DUP1 PUSH2 0xEC5 JUMPI JUMPDEST POP PUSH1 0x40 DUP1 MLOAD SWAP5 DUP6 MSTORE PUSH1 0x20 DUP6 ADD SWAP4 SWAP1 SWAP4 MSTORE AND SWAP2 PUSH1 0x0 DUP1 MLOAD PUSH1 0x20 PUSH2 0xFEE DUP4 CODECOPY DUP2 MLOAD SWAP2 MSTORE SWAP2 DUP2 SWAP1 DUP2 ADD JUMPDEST SUB SWAP1 LOG3 JUMP JUMPDEST SWAP3 DUP4 EXTCODESIZE ISZERO PUSH2 0x7FF JUMPI PUSH1 0x0 PUSH1 0x40 MLOAD DUP1 SWAP6 PUSH4 0x1A495E57 PUSH1 0xE3 SHL DUP3 MSTORE DUP2 DUP4 DUP2 PUSH2 0xEF0 DUP13 DUP13 DUP11 PUSH1 0x4 DUP6 ADD PUSH2 0xBDE JUMP JUMPDEST SUB SWAP3 GAS CALL SWAP1 DUP2 ISZERO PUSH2 0xDC8 JUMPI PUSH1 0x0 DUP1 MLOAD PUSH1 0x20 PUSH2 0xFEE DUP4 CODECOPY DUP2 MLOAD SWAP2 MSTORE SWAP5 PUSH2 0xEC0 SWAP3 PUSH2 0xF1C JUMPI JUMPDEST POP SWAP4 POP PUSH2 0xE99 JUMP JUMPDEST DUP1 PUSH2 0xDBC PUSH2 0xF29 SWAP3 PUSH2 0x93C JUMP JUMPDEST CODESIZE PUSH2 0xF14 JUMP JUMPDEST PUSH2 0xF3E SWAP2 PUSH2 0xDF3 PUSH1 0xE SLOAD PUSH2 0x804 JUMP JUMPDEST CODESIZE DUP4 PUSH2 0xE84 JUMP JUMPDEST PUSH2 0xF54 SWAP2 PUSH2 0xDF3 PUSH1 0xE SLOAD PUSH2 0x804 JUMP JUMPDEST CODESIZE DUP1 PUSH2 0xE6E JUMP JUMPDEST PUSH2 0xF64 SWAP3 PUSH2 0xF6C JUMP JUMPDEST CODESIZE DUP6 DUP4 PUSH2 0xE57 JUMP JUMPDEST PUSH1 0x40 MLOAD PUSH4 0xA9059CBB PUSH1 0xE0 SHL PUSH1 0x0 SWAP1 DUP2 MSTORE PUSH1 0x1 PUSH1 0x1 PUSH1 0xA0 SHL SUB SWAP4 DUP5 AND PUSH1 0x4 MSTORE PUSH1 0x24 SWAP5 SWAP1 SWAP5 MSTORE SWAP3 PUSH1 0x20 SWAP1 PUSH1 0x44 DUP2 DUP1 DUP6 GAS CALL PUSH1 0x1 PUSH1 0x0 MLOAD EQ DUP2 AND ISZERO PUSH2 0xFCD JUMPI JUMPDEST DUP4 PUSH1 0x40 MSTORE ISZERO PUSH2 0xFB7 JUMPI POP POP POP JUMP JUMPDEST PUSH4 0x5274AFE7 PUSH1 0xE0 SHL DUP4 MSTORE AND PUSH1 0x4 DUP3 ADD MSTORE PUSH1 0x24 SWAP2 POP REVERT JUMPDEST PUSH1 0x1 DUP2 ISZERO AND PUSH2 0xFE3 JUMPI DUP2 EXTCODESIZE ISZERO ISZERO RETURNDATASIZE ISZERO AND AND PUSH2 0xFA9 JUMP JUMPDEST DUP4 RETURNDATASIZE PUSH1 0x0 DUP3 RETURNDATACOPY RETURNDATASIZE SWAP1 REVERT INVALID 0xC9 0xDF 0xD5 DIV PUSH15 0x5F1BE95C560D1B85295F8AFD28D010 0x2C KECCAK256 0xE0 0xB4 GT 0x2B DUP9 0xBD ORIGIN DUP13 LOG4 CALLER DUP12 0xE0 SMOD SWAP13 MSTORE8 AND MSIZE EQ SGT PREVRANDAO 0xCD 0x1F 0xD0 LOG4 CALLCODE DUP5 NOT 0x49 PUSH32 0x9722A3DAAFE3B4186F6B6457E0A2646970667358221220634770A8C3D0CFA012 PUSH17 0xA31DE518858F9265276D59C699C8C70248 0x5D 0x2E REVERT PUSH20 0x7764736F6C634300081400330000000000000000 "},"methodIdentifiers":{"BASIS_POINTS()":"e1f1c4a7","BOARD_10_LIQUIDITY_RATE_BP()":"7d4cf0b8","BOARD_10_REWARD_RATE_BP()":"04841337","BOARD_10_SYSTEM_RATE_BP()":"b2418af8","BOARD_LIQUIDITY_RATE_BP()":"a5c34061","BOARD_MEMBERS_REQUIRED()":"4e759962","BOARD_NEXT_POOL_RATE_BP()":"9898fcd3","BOARD_REWARD_MEMBERS()":"946adaef","BOARD_REWARD_RATE_BP()":"61dba5f3","TOTAL_BOARDS()":"b0ac4626","boardCurrentIndex(uint256)":"f3b36bf8","boardPrices(uint256)":"2389e78a","btcRewardToken()":"8919d5e9","coinLiquidityAddress()":"39ae9efd","enterBoard(address,uint256)":"686a38bd","getBoardCurrentIndex(uint256)":"3ac272c2","getBoardMatrixInfo(uint256,uint256)":"d4a90286","getBoardPrice(uint256)":"47cd5191","getBoardQueueLength(uint256)":"eb63e1c2","mlmContract()":"53dafcbb","owner()":"8da5cb5b","paymentToken()":"3013ce29","recoverToken(address,address,uint256)":"a7229fd9","renounceOwnership()":"715018a6","setBoardPrice(uint256,uint256)":"29d7f9eb","setBtcRewardToken(address)":"6f8760fe","setCoinLiquidityAddress(address)":"d3ba4f96","setMLMContract(address)":"ce870263","setSystemAddress(address)":"06210197","systemAddress()":"d3e848f1","transferOwnership(address)":"f2fde38b"}}}}}