{"contracts/MvaultContract.sol":{"MvaultContract":{"abi":[{"inputs":[{"internalType":"address","name":"_usdt","type":"address"},{"internalType":"address","name":"_mvaultToken","type":"address"}],"stateMutability":"nonpayable","type":"constructor"},{"inputs":[],"name":"AlreadyActive","type":"error"},{"inputs":[],"name":"AlreadyRegistered","type":"error"},{"inputs":[],"name":"BinaryAlreadyDistributed","type":"error"},{"inputs":[],"name":"BinaryNotDistributed","type":"error"},{"inputs":[],"name":"BoardHandlerNotSet","type":"error"},{"inputs":[],"name":"InsufficientBtcPool","type":"error"},{"inputs":[],"name":"InsufficientBtcPoolForBoard","type":"error"},{"inputs":[],"name":"InsufficientRebirthPool","type":"error"},{"inputs":[],"name":"InsufficientUsdtBalance","type":"error"},{"inputs":[],"name":"InsufficientVirtualBalance","type":"error"},{"inputs":[],"name":"InvalidSponsor","type":"error"},{"inputs":[],"name":"NoOpenBinarySlot","type":"error"},{"inputs":[],"name":"NotRegistered","type":"error"},{"inputs":[{"internalType":"address","name":"owner","type":"address"}],"name":"OwnableInvalidOwner","type":"error"},{"inputs":[{"internalType":"address","name":"account","type":"address"}],"name":"OwnableUnauthorizedAccount","type":"error"},{"inputs":[],"name":"PositionTaken","type":"error"},{"inputs":[],"name":"ReentrancyGuardReentrantCall","type":"error"},{"inputs":[],"name":"TransferFailed","type":"error"},{"inputs":[],"name":"ZeroAddress","type":"error"},{"inputs":[],"name":"ZeroAmount","type":"error"},{"anonymous":false,"inputs":[{"indexed":true,"internalType":"address","name":"user","type":"address"},{"indexed":false,"internalType":"uint256","name":"mvtMinted","type":"uint256"},{"indexed":false,"internalType":"uint256","name":"grossMvt","type":"uint256"},{"indexed":false,"internalType":"uint256","name":"levelAmt","type":"uint256"},{"indexed":false,"internalType":"uint256","name":"binaryAmt","type":"uint256"},{"indexed":false,"internalType":"uint256","name":"adminAmt","type":"uint256"}],"name":"Activated","type":"event"},{"anonymous":false,"inputs":[{"indexed":true,"internalType":"address","name":"to","type":"address"},{"indexed":false,"internalType":"uint256","name":"amount","type":"uint256"}],"name":"AdminWithdraw","type":"event"},{"anonymous":false,"inputs":[{"indexed":false,"internalType":"uint256","name":"totalPool","type":"uint256"},{"indexed":false,"internalType":"uint256","name":"binary70","type":"uint256"},{"indexed":false,"internalType":"uint256","name":"powerLeg30","type":"uint256"},{"indexed":false,"internalType":"uint256","name":"totalPairs","type":"uint256"}],"name":"BinaryIncomeDistributed","type":"event"},{"anonymous":false,"inputs":[{"indexed":true,"internalType":"address","name":"user","type":"address"},{"indexed":false,"internalType":"uint256","name":"newPairs","type":"uint256"},{"indexed":false,"internalType":"uint256","name":"amount","type":"uint256"}],"name":"BinaryIncomePaid","type":"event"},{"anonymous":false,"inputs":[{"indexed":true,"internalType":"address","name":"user","type":"address"},{"indexed":false,"internalType":"uint256","name":"boardLevel","type":"uint256"},{"indexed":false,"internalType":"uint256","name":"usdtDeducted","type":"uint256"}],"name":"BoardEntered","type":"event"},{"anonymous":false,"inputs":[{"indexed":true,"internalType":"address","name":"newHandler","type":"address"}],"name":"BoardHandlerUpdated","type":"event"},{"anonymous":false,"inputs":[{"indexed":true,"internalType":"address","name":"user","type":"address"},{"indexed":false,"internalType":"uint256","name":"usdtAmount","type":"uint256"},{"indexed":false,"internalType":"uint256","name":"boardLevel","type":"uint256"}],"name":"BoardRewardCredited","type":"event"},{"anonymous":false,"inputs":[{"indexed":true,"internalType":"address","name":"user","type":"address"},{"indexed":false,"internalType":"uint256","name":"amount","type":"uint256"}],"name":"BtcPoolCredited","type":"event"},{"anonymous":false,"inputs":[{"indexed":true,"internalType":"address","name":"user","type":"address"},{"indexed":false,"internalType":"uint256","name":"amount","type":"uint256"}],"name":"BtcPoolWithdrawn","type":"event"},{"anonymous":false,"inputs":[{"indexed":true,"internalType":"address","name":"user","type":"address"},{"indexed":false,"internalType":"uint256","name":"stakeIndex","type":"uint256"},{"indexed":false,"internalType":"uint256","name":"lockedSince","type":"uint256"}],"name":"ConvertedToLocked","type":"event"},{"anonymous":false,"inputs":[{"indexed":true,"internalType":"address","name":"to","type":"address"},{"indexed":true,"internalType":"address","name":"from","type":"address"},{"indexed":false,"internalType":"uint8","name":"level","type":"uint8"},{"indexed":false,"internalType":"uint256","name":"amount","type":"uint256"}],"name":"LevelIncomePaid","type":"event"},{"anonymous":false,"inputs":[{"indexed":true,"internalType":"address","name":"upline","type":"address"},{"indexed":false,"internalType":"uint8","name":"level","type":"uint8"},{"indexed":false,"internalType":"uint256","name":"amount","type":"uint256"}],"name":"LevelIncomeSkipped","type":"event"},{"anonymous":false,"inputs":[{"indexed":false,"internalType":"address","name":"newToken","type":"address"}],"name":"MvaultTokenUpdated","type":"event"},{"anonymous":false,"inputs":[{"indexed":true,"internalType":"address","name":"user","type":"address"},{"indexed":false,"internalType":"uint256","name":"mvtAmount","type":"uint256"},{"indexed":false,"internalType":"uint256","name":"usdtNet","type":"uint256"},{"indexed":false,"internalType":"uint256","name":"usdtToBtcPool","type":"uint256"},{"indexed":false,"internalType":"uint256","name":"usdtToIncome","type":"uint256"},{"indexed":false,"internalType":"uint256","name":"usdtToRebirth","type":"uint256"}],"name":"MvtSold","type":"event"},{"anonymous":false,"inputs":[{"indexed":true,"internalType":"address","name":"previousOwner","type":"address"},{"indexed":true,"internalType":"address","name":"newOwner","type":"address"}],"name":"OwnershipTransferred","type":"event"},{"anonymous":false,"inputs":[{"indexed":false,"internalType":"uint256","name":"totalPowerLeg30","type":"uint256"},{"indexed":false,"internalType":"uint256","name":"totalPowerLegs","type":"uint256"}],"name":"PowerLegDistributed","type":"event"},{"anonymous":false,"inputs":[{"indexed":true,"internalType":"address","name":"user","type":"address"},{"indexed":false,"internalType":"uint256","name":"powerLegPoints","type":"uint256"},{"indexed":false,"internalType":"uint256","name":"amount","type":"uint256"}],"name":"PowerLegIncomePaid","type":"event"},{"anonymous":false,"inputs":[{"indexed":true,"internalType":"address","name":"user","type":"address"}],"name":"ProfileUpdated","type":"event"},{"anonymous":false,"inputs":[{"indexed":true,"internalType":"address","name":"mainAccount","type":"address"},{"indexed":true,"internalType":"address","name":"subAccount","type":"address"},{"indexed":false,"internalType":"uint256","name":"rebirthIndex","type":"uint256"}],"name":"Reborn","type":"event"},{"anonymous":false,"inputs":[{"indexed":true,"internalType":"address","name":"user","type":"address"},{"indexed":true,"internalType":"address","name":"sponsor","type":"address"},{"indexed":true,"internalType":"address","name":"binaryParent","type":"address"},{"indexed":false,"internalType":"bool","name":"placeLeft","type":"bool"}],"name":"Registered","type":"event"},{"anonymous":false,"inputs":[{"indexed":true,"internalType":"address","name":"payer","type":"address"},{"indexed":true,"internalType":"address","name":"newUser","type":"address"},{"indexed":true,"internalType":"address","name":"sponsor","type":"address"},{"indexed":false,"internalType":"bool","name":"placeLeft","type":"bool"}],"name":"RegisteredAndActivatedFor","type":"event"},{"anonymous":false,"inputs":[{"indexed":true,"internalType":"address","name":"to","type":"address"},{"indexed":false,"internalType":"uint256","name":"amount","type":"uint256"}],"name":"ReserveWithdraw","type":"event"},{"anonymous":false,"inputs":[{"indexed":true,"internalType":"address","name":"to","type":"address"},{"indexed":true,"internalType":"address","name":"from","type":"address"},{"indexed":false,"internalType":"uint8","name":"level","type":"uint8"},{"indexed":false,"internalType":"uint256","name":"mvtAmount","type":"uint256"}],"name":"StakeLevelIncomePaid","type":"event"},{"anonymous":false,"inputs":[{"indexed":true,"internalType":"address","name":"user","type":"address"},{"indexed":false,"internalType":"uint256","name":"stakeIndex","type":"uint256"},{"indexed":false,"internalType":"uint256","name":"usdtAmount","type":"uint256"},{"indexed":false,"internalType":"uint256","name":"mvtMinted","type":"uint256"},{"indexed":false,"internalType":"bool","name":"isLocked","type":"bool"}],"name":"Staked","type":"event"},{"anonymous":false,"inputs":[{"indexed":true,"internalType":"address","name":"user","type":"address"},{"indexed":false,"internalType":"uint256","name":"stakeIndex","type":"uint256"},{"indexed":false,"internalType":"uint256","name":"mvtReturned","type":"uint256"},{"indexed":false,"internalType":"uint256","name":"usdtReceived","type":"uint256"},{"indexed":false,"internalType":"uint256","name":"adminCapCut","type":"uint256"}],"name":"Unstaked","type":"event"},{"anonymous":false,"inputs":[{"indexed":true,"internalType":"address","name":"user","type":"address"},{"indexed":false,"internalType":"uint256","name":"amount","type":"uint256"}],"name":"UsdtWithdrawn","type":"event"},{"inputs":[],"name":"ADMIN_ALLOC","outputs":[{"internalType":"uint256","name":"","type":"uint256"}],"stateMutability":"view","type":"function"},{"inputs":[],"name":"BINARY_ALLOC","outputs":[{"internalType":"uint256","name":"","type":"uint256"}],"stateMutability":"view","type":"function"},{"inputs":[],"name":"BTC_POOL_RATE","outputs":[{"internalType":"uint256","name":"","type":"uint256"}],"stateMutability":"view","type":"function"},{"inputs":[],"name":"FLEX_CAP_MULT","outputs":[{"internalType":"uint256","name":"","type":"uint256"}],"stateMutability":"view","type":"function"},{"inputs":[],"name":"INCOME_LIMIT","outputs":[{"internalType":"uint256","name":"","type":"uint256"}],"stateMutability":"view","type":"function"},{"inputs":[],"name":"LEVEL_ALLOC","outputs":[{"internalType":"uint256","name":"","type":"uint256"}],"stateMutability":"view","type":"function"},{"inputs":[],"name":"LOCK_DURATION","outputs":[{"internalType":"uint256","name":"","type":"uint256"}],"stateMutability":"view","type":"function"},{"inputs":[],"name":"MIN_STAKE_USDT","outputs":[{"internalType":"uint256","name":"","type":"uint256"}],"stateMutability":"view","type":"function"},{"inputs":[],"name":"PACKAGE_PRICE","outputs":[{"internalType":"uint256","name":"","type":"uint256"}],"stateMutability":"view","type":"function"},{"inputs":[],"name":"activate","outputs":[],"stateMutability":"nonpayable","type":"function"},{"inputs":[],"name":"activateFromBalance","outputs":[],"stateMutability":"nonpayable","type":"function"},{"inputs":[],"name":"adminPool","outputs":[{"internalType":"uint256","name":"","type":"uint256"}],"stateMutability":"view","type":"function"},{"inputs":[{"internalType":"uint256","name":"","type":"uint256"}],"name":"allUsers","outputs":[{"internalType":"address","name":"","type":"address"}],"stateMutability":"view","type":"function"},{"inputs":[],"name":"binaryPool","outputs":[{"internalType":"uint256","name":"","type":"uint256"}],"stateMutability":"view","type":"function"},{"inputs":[{"internalType":"address","name":"","type":"address"}],"name":"boardEntryCount","outputs":[{"internalType":"uint256","name":"","type":"uint256"}],"stateMutability":"view","type":"function"},{"inputs":[],"name":"boardHandler","outputs":[{"internalType":"contract IMvaultBoardMatrix","name":"","type":"address"}],"stateMutability":"view","type":"function"},{"inputs":[{"internalType":"address","name":"_user","type":"address"}],"name":"canEnterBoard","outputs":[{"internalType":"bool","name":"eligible","type":"bool"},{"internalType":"uint256","name":"btcBalance","type":"uint256"},{"internalType":"uint256","name":"boardPrice","type":"uint256"}],"stateMutability":"view","type":"function"},{"inputs":[{"internalType":"address","name":"user","type":"address"}],"name":"canRebirth","outputs":[{"internalType":"bool","name":"eligible","type":"bool"},{"internalType":"uint256","name":"poolBalance","type":"uint256"}],"stateMutability":"view","type":"function"},{"inputs":[{"internalType":"uint256","name":"stakeIndex","type":"uint256"}],"name":"convertToLocked","outputs":[],"stateMutability":"nonpayable","type":"function"},{"inputs":[{"internalType":"address","name":"_user","type":"address"},{"internalType":"uint256","name":"_usdtAmount","type":"uint256"},{"internalType":"uint256","name":"_boardLevel","type":"uint256"}],"name":"creditBoardReward","outputs":[],"stateMutability":"nonpayable","type":"function"},{"inputs":[{"internalType":"uint256","name":"offset","type":"uint256"},{"internalType":"uint256","name":"limit","type":"uint256"}],"name":"distributeBinaryIncome","outputs":[],"stateMutability":"nonpayable","type":"function"},{"inputs":[{"internalType":"uint256","name":"offset","type":"uint256"},{"internalType":"uint256","name":"limit","type":"uint256"}],"name":"distributePowerLeg","outputs":[],"stateMutability":"nonpayable","type":"function"},{"inputs":[],"name":"enterBoardPool","outputs":[],"stateMutability":"nonpayable","type":"function"},{"inputs":[{"internalType":"address","name":"user","type":"address"}],"name":"getActiveStakes","outputs":[{"internalType":"uint256[]","name":"indices","type":"uint256[]"},{"internalType":"uint256[]","name":"mvtAmounts","type":"uint256[]"},{"internalType":"uint256[]","name":"usdtInvestedArr","type":"uint256[]"},{"internalType":"uint256[]","name":"stakedAts","type":"uint256[]"},{"internalType":"uint256[]","name":"lockedSinces","type":"uint256[]"}],"stateMutability":"view","type":"function"},{"inputs":[],"name":"getAllUsersCount","outputs":[{"internalType":"uint256","name":"","type":"uint256"}],"stateMutability":"view","type":"function"},{"inputs":[{"internalType":"uint256","name":"_level","type":"uint256"}],"name":"getBoardCurrentIndex","outputs":[{"internalType":"uint256","name":"","type":"uint256"}],"stateMutability":"view","type":"function"},{"inputs":[{"internalType":"uint256","name":"_level","type":"uint256"},{"internalType":"uint256","name":"_index","type":"uint256"}],"name":"getBoardMatrixInfo","outputs":[{"internalType":"address","name":"owner","type":"address"},{"internalType":"uint256","name":"filledCount","type":"uint256"},{"internalType":"bool","name":"completed","type":"bool"}],"stateMutability":"view","type":"function"},{"inputs":[{"internalType":"uint256","name":"_level","type":"uint256"}],"name":"getBoardPrice","outputs":[{"internalType":"uint256","name":"","type":"uint256"}],"stateMutability":"view","type":"function"},{"inputs":[{"internalType":"uint256","name":"_level","type":"uint256"}],"name":"getBoardQueueLength","outputs":[{"internalType":"uint256","name":"","type":"uint256"}],"stateMutability":"view","type":"function"},{"inputs":[{"internalType":"address","name":"u","type":"address"}],"name":"getBtcPoolInfo","outputs":[{"internalType":"uint256","name":"btcPoolBalance","type":"uint256"},{"internalType":"uint256","name":"totalBtcEarned","type":"uint256"}],"stateMutability":"view","type":"function"},{"inputs":[{"internalType":"address","name":"u","type":"address"}],"name":"getCurrentBinaryPairs","outputs":[{"internalType":"uint256","name":"currentPairs","type":"uint256"},{"internalType":"uint256","name":"newPairs","type":"uint256"}],"stateMutability":"view","type":"function"},{"inputs":[],"name":"getLockDuration","outputs":[{"internalType":"uint256","name":"","type":"uint256"}],"stateMutability":"pure","type":"function"},{"inputs":[],"name":"getMvtContractBalance","outputs":[{"internalType":"uint256","name":"","type":"uint256"}],"stateMutability":"view","type":"function"},{"inputs":[],"name":"getMvtPrice","outputs":[{"internalType":"uint256","name":"buyPrice","type":"uint256"},{"internalType":"uint256","name":"sellPrice","type":"uint256"}],"stateMutability":"view","type":"function"},{"inputs":[],"name":"getPoolBalances","outputs":[{"internalType":"uint256","name":"binary","type":"uint256"},{"internalType":"uint256","name":"reserve","type":"uint256"},{"internalType":"uint256","name":"admin","type":"uint256"}],"stateMutability":"view","type":"function"},{"inputs":[{"internalType":"address","name":"_user","type":"address"}],"name":"getProfile","outputs":[{"internalType":"string","name":"displayName","type":"string"},{"internalType":"string","name":"email","type":"string"},{"internalType":"string","name":"phone","type":"string"},{"internalType":"string","name":"country","type":"string"},{"internalType":"bool","name":"profileSet","type":"bool"}],"stateMutability":"view","type":"function"},{"inputs":[{"internalType":"address","name":"user","type":"address"},{"internalType":"uint256","name":"index","type":"uint256"}],"name":"getStake","outputs":[{"internalType":"uint256","name":"mvtAmount","type":"uint256"},{"internalType":"uint256","name":"usdtInvested","type":"uint256"},{"internalType":"uint256","name":"stakedAt","type":"uint256"},{"internalType":"uint256","name":"lockedSince","type":"uint256"},{"internalType":"bool","name":"active","type":"bool"}],"stateMutability":"view","type":"function"},{"inputs":[{"internalType":"address","name":"user","type":"address"}],"name":"getStakeCount","outputs":[{"internalType":"uint256","name":"","type":"uint256"}],"stateMutability":"view","type":"function"},{"inputs":[{"internalType":"address","name":"user","type":"address"},{"internalType":"uint256","name":"offset","type":"uint256"},{"internalType":"uint256","name":"limit","type":"uint256"}],"name":"getTransactions","outputs":[{"components":[{"internalType":"uint8","name":"txType","type":"uint8"},{"internalType":"uint32","name":"ts","type":"uint32"},{"internalType":"uint256","name":"amount","type":"uint256"},{"internalType":"uint8","name":"level","type":"uint8"},{"internalType":"address","name":"addr","type":"address"}],"internalType":"struct MvaultContract.TxRecord[]","name":"records","type":"tuple[]"},{"internalType":"uint256","name":"total","type":"uint256"}],"stateMutability":"view","type":"function"},{"inputs":[{"internalType":"address","name":"_user","type":"address"}],"name":"getUserBoardStats","outputs":[{"internalType":"uint256","name":"entries","type":"uint256"},{"internalType":"uint256","name":"totalRewards","type":"uint256"}],"stateMutability":"view","type":"function"},{"inputs":[{"internalType":"address","name":"u","type":"address"}],"name":"getUserInfo","outputs":[{"internalType":"bool","name":"isRegistered","type":"bool"},{"internalType":"bool","name":"isActive","type":"bool"},{"internalType":"address","name":"sponsor","type":"address"},{"internalType":"uint256","name":"directCount","type":"uint256"},{"internalType":"address","name":"binaryParent","type":"address"},{"internalType":"bool","name":"placedLeft","type":"bool"},{"internalType":"address","name":"leftChild","type":"address"},{"internalType":"address","name":"rightChild","type":"address"},{"internalType":"uint256","name":"leftSubUsers","type":"uint256"},{"internalType":"uint256","name":"rightSubUsers","type":"uint256"},{"internalType":"uint256","name":"mvtBalance","type":"uint256"},{"internalType":"uint256","name":"totalReceived","type":"uint256"},{"internalType":"uint256","name":"totalSold","type":"uint256"},{"internalType":"uint256","name":"incomeLimit","type":"uint256"},{"internalType":"uint256","name":"usdtBalance","type":"uint256"},{"internalType":"uint256","name":"rebirthPool","type":"uint256"},{"internalType":"uint256","name":"btcPoolBalance","type":"uint256"},{"internalType":"uint256","name":"powerLegPoints","type":"uint256"},{"internalType":"uint256","name":"matchedPairs","type":"uint256"},{"internalType":"address","name":"mainAccount","type":"address"},{"internalType":"uint256","name":"rebirthCount","type":"uint256"},{"internalType":"uint256","name":"joinedAt","type":"uint256"}],"stateMutability":"view","type":"function"},{"inputs":[],"name":"mvaultToken","outputs":[{"internalType":"contract IMvaultToken","name":"","type":"address"}],"stateMutability":"view","type":"function"},{"inputs":[],"name":"owner","outputs":[{"internalType":"address","name":"","type":"address"}],"stateMutability":"view","type":"function"},{"inputs":[{"internalType":"address","name":"subAccount","type":"address"},{"internalType":"bool","name":"placeLeft","type":"bool"}],"name":"rebirth","outputs":[],"stateMutability":"nonpayable","type":"function"},{"inputs":[{"internalType":"address","name":"sponsor","type":"address"},{"internalType":"address","name":"binaryParent","type":"address"},{"internalType":"bool","name":"placeLeft","type":"bool"}],"name":"register","outputs":[],"stateMutability":"nonpayable","type":"function"},{"inputs":[{"internalType":"address","name":"newUser","type":"address"},{"internalType":"address","name":"binaryParent","type":"address"},{"internalType":"bool","name":"placeLeft","type":"bool"}],"name":"registerAndActivateFor","outputs":[],"stateMutability":"nonpayable","type":"function"},{"inputs":[],"name":"renounceOwnership","outputs":[],"stateMutability":"nonpayable","type":"function"},{"inputs":[],"name":"reservePool","outputs":[{"internalType":"uint256","name":"","type":"uint256"}],"stateMutability":"view","type":"function"},{"inputs":[{"internalType":"uint256","name":"amount","type":"uint256"}],"name":"sellMvt","outputs":[],"stateMutability":"nonpayable","type":"function"},{"inputs":[{"internalType":"address","name":"_boardHandler","type":"address"}],"name":"setBoardHandler","outputs":[],"stateMutability":"nonpayable","type":"function"},{"inputs":[{"internalType":"address","name":"_mvaultToken","type":"address"}],"name":"setMvaultToken","outputs":[],"stateMutability":"nonpayable","type":"function"},{"inputs":[{"internalType":"string","name":"_displayName","type":"string"},{"internalType":"string","name":"_email","type":"string"},{"internalType":"string","name":"_phone","type":"string"},{"internalType":"string","name":"_country","type":"string"}],"name":"setProfile","outputs":[],"stateMutability":"nonpayable","type":"function"},{"inputs":[{"internalType":"uint256","name":"usdtAmount","type":"uint256"},{"internalType":"bool","name":"isLocked","type":"bool"}],"name":"stake","outputs":[],"stateMutability":"nonpayable","type":"function"},{"inputs":[{"internalType":"address","name":"","type":"address"}],"name":"totalBoardRewardsEarned","outputs":[{"internalType":"uint256","name":"","type":"uint256"}],"stateMutability":"view","type":"function"},{"inputs":[],"name":"totalUsers","outputs":[{"internalType":"uint256","name":"","type":"uint256"}],"stateMutability":"view","type":"function"},{"inputs":[{"internalType":"address","name":"newOwner","type":"address"}],"name":"transferOwnership","outputs":[],"stateMutability":"nonpayable","type":"function"},{"inputs":[{"internalType":"uint256","name":"stakeIndex","type":"uint256"}],"name":"unstake","outputs":[],"stateMutability":"nonpayable","type":"function"},{"inputs":[],"name":"usdtToken","outputs":[{"internalType":"contract IERC20","name":"","type":"address"}],"stateMutability":"view","type":"function"},{"inputs":[{"internalType":"address","name":"","type":"address"}],"name":"users","outputs":[{"internalType":"bool","name":"isRegistered","type":"bool"},{"internalType":"bool","name":"isActive","type":"bool"},{"internalType":"address","name":"sponsor","type":"address"},{"internalType":"uint256","name":"directCount","type":"uint256"},{"internalType":"address","name":"binaryParent","type":"address"},{"internalType":"bool","name":"placedLeft","type":"bool"},{"internalType":"address","name":"leftChild","type":"address"},{"internalType":"address","name":"rightChild","type":"address"},{"internalType":"uint256","name":"leftSubUsers","type":"uint256"},{"internalType":"uint256","name":"rightSubUsers","type":"uint256"},{"internalType":"uint256","name":"matchedPairs","type":"uint256"},{"internalType":"uint256","name":"mvtBalance","type":"uint256"},{"internalType":"uint256","name":"totalReceived","type":"uint256"},{"internalType":"uint256","name":"totalSold","type":"uint256"},{"internalType":"uint256","name":"incomeLimit","type":"uint256"},{"internalType":"uint256","name":"usdtBalance","type":"uint256"},{"internalType":"uint256","name":"rebirthPool","type":"uint256"},{"internalType":"uint256","name":"totalUsdtEarned","type":"uint256"},{"internalType":"uint256","name":"btcPoolBalance","type":"uint256"},{"internalType":"uint256","name":"totalBtcEarned","type":"uint256"},{"internalType":"uint256","name":"powerLegPoints","type":"uint256"},{"internalType":"address","name":"mainAccount","type":"address"},{"internalType":"uint256","name":"rebirthCount","type":"uint256"},{"internalType":"uint256","name":"joinedAt","type":"uint256"},{"internalType":"string","name":"displayName","type":"string"},{"internalType":"string","name":"email","type":"string"},{"internalType":"string","name":"phone","type":"string"},{"internalType":"string","name":"country","type":"string"},{"internalType":"bool","name":"profileSet","type":"bool"}],"stateMutability":"view","type":"function"},{"inputs":[{"internalType":"address","name":"to","type":"address"},{"internalType":"uint256","name":"amount","type":"uint256"}],"name":"withdrawAdminPool","outputs":[],"stateMutability":"nonpayable","type":"function"},{"inputs":[{"internalType":"uint256","name":"amount","type":"uint256"}],"name":"withdrawBtcPool","outputs":[],"stateMutability":"nonpayable","type":"function"},{"inputs":[{"internalType":"address","name":"to","type":"address"},{"internalType":"uint256","name":"amount","type":"uint256"}],"name":"withdrawReservePool","outputs":[],"stateMutability":"nonpayable","type":"function"},{"inputs":[{"internalType":"uint256","name":"amount","type":"uint256"}],"name":"withdrawUsdt","outputs":[],"stateMutability":"nonpayable","type":"function"}],"evm":{"bytecode":{"linkReferences":{},"object":"60a0346200018357601f620061c038819003918201601f19168301916001600160401b038311848410176200018857808492604094855283398101031262000183576200005a602062000052836200019e565b92016200019e565b9033156200016a576000549160018060a01b03199233848216176000556040519060018060a01b03938491823391167f8be0079c531659141344cd1fd0a4f28419497f9722a3daafe3b4186f6b6457e0600080a360017f9b779b17422d0df92223018b32b4d1fa46e071723d6817e2486d003becc55f00551690811580156200015f575b6200015057506080521690600154161760015560405161600c9081620001b482396080518181816109410152818161103901528181611383015281816115240152818161159901528181611ee301528181612da90152818161394a015281816139db015281816143a90152614bb10152f35b63d92e233d60e01b8152600490fd5b5083831615620000de565b604051631e4fbdf760e01b815260006004820152602490fd5b600080fd5b634e487b7160e01b600052604160045260246000fd5b51906001600160a01b0382168203620001835756fe61032080604052600436101561001457600080fd5b600090813560e01c9081630266f0441461449357508063039ccc261461446f57806303c3ecb7146144295780630f15f4c01461433f5780630f53a4701461427f5780631747e0b0146140a05780631ce5e8941461402e5780631f6259d5146140055780632335821b14613fcc5780632808bc8d14613f085780632d641f0814613ee05780632e17de781461384d57806338abfc411461382f5780633ac272c2146138105780633ccb13d3146137f457806344e374d5146112f557806347cd5191146137d5578063485d383414610c115780634b3f0d451461370c57806352375bb1146136dd57806355509c8f14613159578063634f627e14612d1f5780636386c1c714612b5157806368ddb2b514612a79578063715018a614612a315780637435f4211461299357806377537844146112f55780637f1b4064146129755780638431fdd7146129515780638a8f0429146126335780638da5cb5b1461260c57806392446e30146125f057806394915dd0146122605780639499a35114612227578063a2bdedf4146121e3578063a87430ba14611f12578063a98ad46c14611ecd578063aa33f5d514611cd5578063aa39375714611cb1578063abe50f1914611494578063b58e027814611318578063b86a1fb2146112fa578063be648bdb146112f5578063bff1f9e1146112d7578063c9d484cf146112ae578063ce8292f51461121a578063cf57ee69146111e1578063cfd4766314611155578063d3635a0214610fce578063d4a9028614610efc578063e0e0101114610c30578063e239c40014610c11578063e3ba9bda14610ba7578063e4093a6614610885578063e51cb53014610837578063e77631941461076a578063eb63e1c214610743578063ec50324a14610644578063f00b00931461060b578063f0b7b9dc1461040e578063f24c536a14610395578063f2fde38b1461031f5763fb72ca35146102d757600080fd5b3461031c57602036600319011261031c576040906001600160a01b036102fb6144af565b168152600b602052818082205491600c602052205482519182526020820152f35b80fd5b503461031c57602036600319011261031c576103396144af565b610341614758565b6001600160a01b0390811690811561037c576000548260018060a01b031982161760005516600080516020615f57833981519152600080a380f35b604051631e4fbdf760e01b815260048101849052602490fd5b503461031c57602036600319011261031c576040906001600160a01b036103ba6144af565b1681526003602052818120906007600583015460068401548082106000146104065750925b015480831115610400576103f49150826147bd565b82519182526020820152f35b506103f4565b9050926103df565b503461031c5761041d366145ae565b91610426614817565b6002546001600160a01b039190821633036105d257169061044882151561494e565b61045381151561494e565b81845260209160038352600c604086200161046f83825461497f565b905580855260038352600e604086200161048a83825461497f565b9055808552600c8352604085206104a283825461497f565b9055807f2393acb59b41dd645f68fe97bab0deba2a21b99efc69761e9b2762f11bbbe79d604080518581528787820152a2600052600e8252604060002091604051906104ed82614661565b600b825281019163ffffffff421683526040820190815260ff60608301951685526080820193600085528054600160401b8110156105bc5761053491600182018155614847565b9190916105a65760ff9384600294511664ffffffff0084549282881985161786555160081b169164ffffffffff19161717825551600182015501925116825491610100600160a81b03905160081b169160018060a81b031916171790556001600080516020615fb78339815191525580f35b634e487b7160e01b600052600060045260246000fd5b634e487b7160e01b600052604160045260246000fd5b60405162461bcd60e51b81526020600482015260116024820152702737ba103137b0b932103430b7323632b960791b6044820152606490fd5b503461031c57602036600319011261031c576020906040906001600160a01b036106336144af565b168152600b83522054604051908152f35b503461031c57604036600319011261031c5761065e6144af565b6024359061066a614758565b6001600160a01b0316908115610731576007548181106106f557816106b27f0529afc4538720fe0b3eadc40486369ab962002d72fead1387b300c66073e7bf936020936147bd565b60075583855260038252600860408620016106ce82825461497f565b905583855260038252600960408620016106e982825461497f565b9055604051908152a280f35b60405162461bcd60e51b8152602060048201526014602482015273115e18d959591cc81c995cd95c9d99481c1bdbdb60621b6044820152606490fd5b60405163d92e233d60e01b8152600490fd5b503461031c57602036600319011261031c576020610762600435615c30565b604051908152f35b503461031c578060031936011261031c57610783614817565b338152600360205260408120805460ff8116156108255760081c60ff1661081357600c0180549068070c1cc73b00c8000082106108015768070c1cc73b00c7ffff1982019182116107ed57556107d833614b49565b6001600080516020615fb78339815191525580f35b634e487b7160e01b83526011600452602483fd5b60405163b55c1bad60e01b8152600490fd5b604051637cdf305160e11b8152600490fd5b60405163aba4733960e01b8152600490fd5b503461031c57602036600319011261031c57604090600d9082906001600160a01b036108616144af565b168152600360205220015481519068070c1cc73b00c8000081101582526020820152f35b503461031c578060031936011261031c5761089e614817565b6002546001600160a01b03908116908115610b955733835260206003815260408420916108d160ff845460081c16614784565b604051926347cd519160e01b845282846024816001988960048301525afa938415610b43578694610b60575b50600f018054848110610b4e5784610914916147bd565b905561093b82848360025416604051938492839263a9059cbb60e01b8452600484016147ed565b038189867f0000000000000000000000000000000000000000000000000000000000000000165af1908115610b43578691610b0a575b5015610af8578490338252600b83526040822061098e8154614808565b905560025416803b15610af45781809160446040518094819363686a38bd60e01b83523360048401528a60248401525af18015610ae957610ad1575b505060405183815282828201527f4e755dd64e53a9f7a5882e2e32eb64718c2273de11e017bd47129b9fe2716d7c60403392a233600052600e815260406000209060405190610a1882614661565b600a825281019063ffffffff421682526040810193845260608101938585526080820193600085528054600160401b8110156105bc57610a5c918882018155614847565b9190916105a65791518154935164ffffffffff1990941660ff91821617600894851b64ffffffff00161782559151868201559351600294909401805493516001600160a81b0319909416949091169390931791901b610100600160a81b0316179055600080516020615fb78339815191525580f35b610ada9061467c565b610ae55783386109ca565b8380fd5b6040513d84823e3d90fd5b5080fd5b6040516312171d8360e31b8152600490fd5b90508281813d8311610b3c575b610b21818361468f565b81010312610b3857610b32906147e0565b38610971565b8580fd5b503d610b17565b6040513d88823e3d90fd5b604051630856d68760e11b8152600490fd5b9093508281813d8311610b8e575b610b78818361468f565b81010312610b89575192600f6108fd565b600080fd5b503d610b6e565b60405163632100f760e11b8152600490fd5b503461031c57602036600319011261031c57610bc16144af565b610bc9614758565b6001600160a01b0316801561073157600280546001600160a01b031916821790557f49424f87d81e4374ee3e8d1cf7b880966981a3cf6a7ac1d7a66c13d91756fccc8280a280f35b503461031c578060031936011261031c57602060405163018b82008152f35b503461031c57606036600319011261031c57610c4a6144af565b90610c536144c5565b610c5b6145e7565b92610c64614817565b6001600160a01b0393818516918215610ec557338314610e855733855260039160209483865260ff604088205416156108255733875283865260ff604088205460081c1615610e4c5784875283865260ff604088205416610e3a5733875283865268070c1cc73b00c80000600c6040892001541061080157818882168015159081610e23575b5015610e1857610cf99161542a565b979093338852808752600c604089200198895468070c1cc73b00c7ffff198101908111610e0457610d9f969798999a55610d358188338861498c565b15610de057858216895280885260408920810180546001600160a01b031916881790555b338952875260016040892001610d6f8154614808565b9055610d7a83614a53565b60405191151594858352169085600080516020615f37833981519152883393a4614b49565b6040519081527ff3d8729e7995a6170800155589c309c92998449c63bab10c98f61f9aa007db7d33933392a46001600080516020615fb78339815191525580f35b85821689528088526040892060040180546001600160a01b03191688179055610d59565b634e487b7160e01b8a52601160045260248afd5b610cf991503361542a565b91505087528386528160ff60408920541638610cea565b604051630ea075bf60e21b8152600490fd5b60405162461bcd60e51b815260048101879052601160248201527043616c6c6572206e6f742061637469766560781b6044820152606490fd5b60405162461bcd60e51b815260206004820152601860248201527721b0b73737ba103932b3b4b9ba32b9103cb7bab939b2b63360411b6044820152606490fd5b60405162461bcd60e51b815260206004820152600f60248201526e496e76616c6964206164647265737360881b6044820152606490fd5b503461031c57610f0b3661454f565b90606060018060a01b039260448460025416936040519485938492636a54814360e11b8452600484015260248301525afa908115610fc357839284918593610f68575b506060945060405193168352602083015215156040820152f35b93509150506060823d8211610fbb575b81610f856060938361468f565b81010312610fb75781518181168103610ae55760609350610fad6040602085015194016147e0565b9092909138610f4e565b8280fd5b3d9150610f78565b6040513d85823e3d90fd5b503461031c57602080600319360112610af45760043590610fed614817565b81156111435733835260038152600c604084200180548381106108015783611014916147bd565b905560405163a9059cbb60e01b81528181806110348633600484016147ed565b0381877f00000000000000000000000000000000000000000000000000000000000000006001600160a01b03165af1908115611138578491611103575b5015610af8576040518281527fbdd3f02d2a57fb53c1156f98470b61cb60712d485c27c36a49b1263dabcde201823392a233600052600e8152604060002090604051906110bd82614661565b6007825281019063ffffffff42168252604081019384526060810193600085526080820193600085528054600160401b8110156105bc5761053491600182018155614847565b90508181813d8311611131575b61111a818361468f565b81010312610ae55761112b906147e0565b38611071565b503d611110565b6040513d86823e3d90fd5b604051631f2a200560e01b8152600490fd5b503461031c57604036600319011261031c576111a660a09160406111776144af565b9160243592600180871b0316808252600d602052611199838320548510615b32565b8152600d60205220615b16565b50805490600181015490600281015460ff60046003840154930154169260405194855260208501526040840152606083015215156080820152f35b503461031c57602036600319011261031c576020906040906001600160a01b036112096144af565b168152600d83522054604051908152f35b503461031c578060031936011261031c576001546040516370a0823160e01b81523060048201529190602090839060249082906001600160a01b03165afa9081156112a25790611270575b602090604051908152f35b506020813d821161129a575b816112896020938361468f565b81010312610b895760209051611265565b3d915061127c565b604051903d90823e3d90fd5b503461031c578060031936011261031c576002546040516001600160a01b039091168152602090f35b503461031c578060031936011261031c576020600554604051908152f35b614565565b503461031c578060031936011261031c576020600854604051908152f35b503461031c57602080600319360112610af45760043590611337614817565b81156111435733835260038152600f60408420018054838110611482578361135e916147bd565b905560405163a9059cbb60e01b815281818061137e8633600484016147ed565b0381877f00000000000000000000000000000000000000000000000000000000000000006001600160a01b03165af190811561113857849161144d575b5015610af8576040518281527f12701e4764b73009ab9826933c421483e4280410091fcc760515e0fa99fa766b823392a233600052600e81526040600020906040519061140782614661565b6008825281019063ffffffff42168252604081019384526060810193600085526080820193600085528054600160401b8110156105bc5761053491600182018155614847565b90508181813d831161147b575b611464818361468f565b81010312610ae557611475906147e0565b386113bb565b503d61145a565b604051636dae861760e11b8152600490fd5b503461031c57604036600319011261031c576114ae6145d8565b6114b6614817565b6802b5e3af16b188000060043510611c785733825260036020526114e060ff604084205416615ab6565b338252600360205260ff604083205460081c1615611c43576040516323b872dd60e01b815233600480830191909152306024830152356044820152602081606481867f00000000000000000000000000000000000000000000000000000000000000006001600160a01b03165af1908115610fc3578391611c09575b5015611bcd5760015460405163095ea7b360e01b815290602090829081906115949060048035916001600160a01b03169084016147ed565b0381867f00000000000000000000000000000000000000000000000000000000000000006001600160a01b03165af18015610fc357611b94575b506001546040516370a0823160e01b8082523060048301529184906001600160a01b0316602083602481845afa928315610ae9578293611b5d575b50803b15610af457816040518092634e538d9360e11b825281838161163460043530600484016147ed565b03925af18015610ae957611b49575b5050600154604051928352306004840152602090839060249082906001600160a01b03165afa8015611138578490611b15575b61168092506147bd565b918215611ae05760405161169381614661565b600a8152600260208201526001604082015260016060820152600160808201523382526003602052604082205460018060a01b039060101c16938290839284935b600560ff8616101561185957605a6116fb60ff6116f381891686615af3565b511685614af2565b04908115611819576001600160a01b0389161580156117f6575b1561175257906117249161497f565b965b6001600160a01b0390811686526003602052604086205460101c169361174b9061526a565b93966116d4565b979093846117aa9160018060a01b03841689526003602052600860408a200161177c83825461497f565b90556001600160a01b038416895260036020526040892060090180546117a390849061497f565b905561497f565b936117b486615b04565b7fc8c0cc32a736135fa3c2a3c467849cd282797396bc67d2d5326f7e161e601c1d604051806117ee339560018060a01b038816958361527b565b0390a3611726565b506001600160a01b03891687526003602052604087205460081c60ff1615611715565b979490506001600160a01b03851680611837575b5061174b9061526a565b86526003602052604086205460101c6001600160a01b0316945061174b61182d565b905085935060058202828104600503611acc579161189a6118a092605a6118a59695049461189261188a838861497f565b60085461497f565b60085561497f565b906147bd565b6147bd565b8015611a9257338352600d602052604083209182549181600014611a8b5742935b604051946118d386614661565b8286526004356020870152426040870152606086015260016080860152600160401b841015611a77578361190c91600182018155615b16565b611a63576004608091865181556020870151600182015560408701516002820155606087015160038201550194015115159360ff199460ff86835416911617905560405192835260043560208401526040830152151560608201527f830141583677d950fe61a27b93001edff66b597c666b2c90f5fb6e79a4befd0e60803392a233600052600e60205260406000206040516119a781614661565b600c8152602081019063ffffffff42168252604081019360043585526060820194600086526080830194600086528054600160401b8110156105bc576119f291600182018155614847565b9290926105a65760ff9464ffffffff00866002965116918286549485161786555160081b169164ffffffffff19161717825551600182015501925116825491610100600160a81b03905160081b169160018060a81b031916171790556001600080516020615fb78339815191525580f35b634e487b7160e01b86526004869052602486fd5b634e487b7160e01b86526041600452602486fd5b84936118c6565b60405162461bcd60e51b81526020600482015260126024820152714e6f20746f6b656e7320746f207374616b6560701b6044820152606490fd5b634e487b7160e01b86526011600452602486fd5b60405162461bcd60e51b815260206004820152600d60248201526c139bc8135595081b5a5b9d1959609a1b6044820152606490fd5b506020823d602011611b41575b81611b2f6020938361468f565b81010312610b89576116809151611676565b3d9150611b22565b611b529061467c565b610ae5578338611643565b915091506020813d602011611b8c575b81611b7a6020938361468f565b81010312610b89578490519138611609565b3d9150611b6d565b6020813d602011611bc5575b81611bad6020938361468f565b81010312610fb757611bbe906147e0565b50386115ce565b3d9150611ba0565b60405162461bcd60e51b81526020600482015260146024820152731554d115081d1c985b9cd9995c8819985a5b195960621b6044820152606490fd5b90506020813d602011611c3b575b81611c246020938361468f565b81010312610fb757611c35906147e0565b3861155c565b3d9150611c17565b60405162461bcd60e51b815260206004820152600d60248201526c139bdd081858dd1a5d985d1959609a1b6044820152606490fd5b60405162461bcd60e51b815260206004820152601160248201527042656c6f7720243530206d696e696d756d60781b6044820152606490fd5b503461031c578060031936011261031c5760206040516815245655b1025800008152f35b503461031c57606036600319011261031c57611cef6144af565b611cf76144c5565b611cff6145e7565b338452600360209281845260ff604087205416610e3a57600554611dda5733600090815282855260409020805461ff01600160b01b03191660011781556002810180546001600160a81b03191690556012810180546001600160a01b03191690554260149091015560045491600160401b8310156105bc57611d96836001600080516020615f3783398151915295016004556145f6565b81929154911b9033821b9160018060a01b03901b1916179055611dba600554614808565b6005555b60405192151583526001600160a01b039081169416923392a480f35b6001600160a01b03858116808852838652604088205491939160ff1615611ebb5783600080516020615f378339815191529484168015159081611ea7575b5015611e9d57611e28868561542a565b611e3481838c3361498c565b15611e7b5716885281865260408820820180546001600160a01b031916331790555b8752845260016040872001611e6b8154614808565b9055611e7633614a53565b611dbe565b1688528186526040882060040180546001600160a01b03191633179055611e56565b611e28868961542a565b8a5250828752604089205460ff1638611e18565b604051632f212e0d60e11b8152600490fd5b503461031c578060031936011261031c576040517f00000000000000000000000000000000000000000000000000000000000000006001600160a01b03168152602090f35b503461031c57602036600319011261031c576040906001600160a01b03611f376144af565b168152600360205220806101e052808080808080808080808080611ffa6015600f600e600d600c600b600a600960086007600660058d549d60018101546102a05260028101546102e05260018060a01b0360038201541660a052600460018060a01b03910154169e01549e01549e01549e01549e01549e01549e01549e01549e01549e01549e01549e601081015461024052601181015460e05260018060a01b036012820154166102005260138101546102805260148101546101c052016146b2565b6102205261200d60166101e051016146b2565b6101205261202060176101e051016146b2565b6101805261203360186101e051016146b2565b6102605260ff60196101e05101541660c052604051806101605260ff82161515905260ff8160081c161515602061016051015260018060a01b039060101c1660406101605101526102a051606061016051015260018060a01b036102e05116608061016051015260ff6102e05160a01c16151560a061016051015260a05160c061016051015260e0610160510152610100610160510152610120610160510152610140610160510152610160805101526101806101605101526101a06101605101526101c06101605101526101e06101605101526102006101605101526102206101605101526102406101605101526102405161026061016051015260e051610280610160510152610200516102a0610160510152610280516102c06101605101526101c0516102e06101605101526121cb6121b561219f6121896103a0806103006101605101526101605101610220516144db565b61016051610320818303910152610120516144db565b61016051610340818303910152610180516144db565b61016051610360818303910152610260516144db565b60c05115156103806101605101526101605180910390f35b503461031c57602036600319011261031c576004359060045482101561031c57602061220e836145f6565b905460405160039290921b1c6001600160a01b03168152f35b503461031c57602036600319011261031c57606061224b6122466144af565b615cb4565b90604051921515835260208301526040820152f35b503461031c57604036600319011261031c5761227a6144af565b6122826145d8565b61228a614817565b6001600160a01b03821615610731573383526003602052604083208054916122b760ff8460081c16614784565b600d820180549068070c1cc73b00c800008083106125de576001600160a01b03871688526003602052604088205460ff166125995768070c1cc73b00c7ffff198301928311612585576123529392919080831061257a576123199080936147bd565b9055600c840161232a82825461497f565b905561233b600e850191825461497f565b90556815245655b102580000600b8401553361542a565b6001600160a01b038581166000908152600360205260409020805461ff01600160b01b03191662010000600160b01b0387161760011781556002810180546001600160a81b0319169285169290921783151560a01b60ff60a01b16179091556012810180546001600160a01b0319163317905542601490910155600454939190600160401b8510156105bc576123f0856001601397016004556145f6565b81546001600160a01b0389811660039390931b92831b921b191617905560055461241990614808565b60055515612547576001600160a01b03908116865260036020819052604087200180546001600160a01b0319169186169190911790555b60101c6001600160a01b031680612527575b5061246c83614a53565b61247583614b49565b016124808154614808565b908190556040519081526001600160a01b0382169033907f30016ed357540281a6cff6143637e72b48e105d85d15df66b0aaffbd2379024090602090a333600052600e6020526040600020906040516124d881614661565b60098152602081019063ffffffff421682526040810160008152606082019460008652608083019460018060a01b031685528054600160401b8110156105bc5761053491600182018155614847565b845260036020526001604085200161253f8154614808565b905538612462565b6001600160a01b03908116865260036020526040862060040180546001600160a01b031916918616919091179055612450565b5061231982806147bd565b634e487b7160e01b88526011600452602488fd5b60405162461bcd60e51b815260206004820152601e60248201527f5375622d6163636f756e7420616c7265616479207265676973746572656400006044820152606490fd5b6040516307db32bd60e31b8152600490fd5b503461031c578060031936011261031c576020604051600a8152f35b503461031c578060031936011261031c57546040516001600160a01b039091168152602090f35b503461031c576126423661454f565b9061264b614758565b612653614817565b60ff9182600a54161561293f5761266a908261497f565b90600454808311612937575b508391815b8181106128f75750600991825494841515806128ee575b156128d5574263ffffffff169087835b85811061274957509493929150505b81811061270b57837f7f4a5b69bea14a6fc05326671a02e90d4a88855c83a18529c260057b1bf61a856040888884885560ff19600a5416600a5582519182526020820152a16001600080516020615fb78339815191525580f35b6127409192935061271b816145f6565b9054600391821b1c6001600160a01b0316885260205260408720601101879055614808565b908592916126b1565b612752816145f6565b9054600391821b1c6001600160a01b031680845260208281526040852060110154909291908a8c8e83156128c457927fb05abf391bcc5d117d31727729f0da5b0e3eb5f91a478372995efa128696c4069260406127ba81946127b5858a99614af2565b614b05565b9a868152888a526008988c6127d58b8585200191825461497f565b90558782528a5220016127e98a825461497f565b905581519081528887820152a2600052600e825260406000206040519261280f84614661565b600484528301878152604084019586526060840193600085526080810192600084528054600160401b8110156105bc57612850906001928382018155614847565b9190916105a65791518154935164ffffffffff19909416908a161792851b64ffffffff00169290921782559551958101959095559151600294909401805492516001600160a81b03199093169486169490941791901b610100600160a81b0316179091556128bd90614808565b88906126a2565b505050505050506128bd9150614808565b506128e28560085461497f565b600855908592916126b1565b50851515612692565b9261292c61293291612908866145f6565b9054600391821b1c6001600160a01b0316895260205260408820601101549061497f565b93614808565b61267b565b915038612676565b60405163418826bf60e11b8152600490fd5b503461031c578060031936011261031c5760206040516802b5e3af16b18800008152f35b503461031c578060031936011261031c576020600654604051908152f35b503461031c576129ab6129a5366145ae565b91615d6d565b90604051916040830191604084528051809352606094858501936020809301915b8181106129e0575050508380955001520390f35b8251805160ff90811688528186015163ffffffff1686890152604080830151908901528982015116898801526080908101516001600160a01b03169087015260a090950194918301916001016129cc565b503461031c578060031936011261031c57612a4a614758565b600080546001600160a01b0319811682556001600160a01b0316600080516020615f578339815191528280a380f35b503461031c578060031936011261031c57600154604051623144bd60e31b81526001600160a01b039091169160208083600481875afa928315610ae9578293612b20575b5080600494604051958680926310f4cba760e21b82525afa9182156112a25791612af0575b604080945051928352820152f35b80915083813d8311612b19575b612b07818361468f565b81010312610b89576040925190612ae2565b503d612afd565b9392508084813d8311612b4a575b612b38818361468f565b81010312610b89579251919280612abd565b503d612b2e565b503461031c57602036600319011261031c576040906001600160a01b03612b766144af565b1681526003602052208080808080808080808080808054600182015461014052600282015461010052601460076011600f600d600c600b600a60096008600660058d600360018060a01b03910154169d600460018060a01b03910154169e01549e01549e01549e01549e01549e01549e01549e01549e01549e01549e01549e60018060a01b036012820154166101a05260138101546102c0520154608052604051806103005260ff82161515905260ff8160081c161515602061030051015260018060a01b039060101c16604061030051015261014051606061030051015260018060a01b036101005116608061030051015260ff6101005160a01c16151560a061030051015260c061030051015260e06103005101526101006103005101526101206103005101526101406103005101526101606103005101526101806103005101526101a06103005101526101c06103005101526101e06103005101526102006103005101526102206103005101526102406103005101526101a0516102606103005101526102c0516102806103005101526080516102a06103005101526102c061030051f35b503461031c57602036600319011261031c57612d39614817565b600435156111435733815260036020526040812060ff815460081c161561082557600881018054600435811061314757612d7690600435906147bd565b9055600a8101612d89600435825461497f565b90556040516370a0823160e01b8082523060048301526001600160a01b037f000000000000000000000000000000000000000000000000000000000000000081169291908590602084602481885afa938415610ae9578294613110575b5060015416803b15610af4578180916024604051809481936372424d9960e11b835260043560048401525af18015610ae9576130f8575b505060209060246040518095819382523060048301525afa80156111385784906130c4575b612e4c92506147bd565b600a810290808204600a14811517156130b057612e6d9060648304906147bd565b91600f8101612e8060648404825461497f565b905560108101612e9460648404825461497f565b90556040516064830481527f2b1d2104e84dd4dabb0cca024171f783ab1e1c9dc1af9d60a2361596653a99c460203392a233600052600e60205260406000209060405191612ee183614661565b600683524263ffffffff16602084015260648404604084015260006060840181905260808401528054600160401b8110156105bc57612f2591600182018155614847565b6105a65782518154602085015164ffffffffff1990911660ff92831617600891821b64ffffffff001617835560408501516001840155606085015160029390930180546080909601516001600160a81b031990961693909216929092179390911b610100600160a81b031692909217909155600b8101547f8f7262d5a031d4d671e1fdb0cddcd26d37185226f9e82f2f18877141ac1963eb918582156130a457508185111561309b57600d82915b82612ff981612fe2818b6147bd565b96600c8501612ff283825461497f565b90556147bd565b600b83015561300d600e830191825461497f565b90555b0161301c83825461497f565b905561303660405192839260643397048860043586614b25565b0390a233600052600e602052604060002060405161305381614661565b60058152602081019063ffffffff42168252604081019384526060810193600085526080820193600085528054600160401b8110156105bc5761053491600182018155614847565b600d8591612fd3565b909150600d8592613010565b634e487b7160e01b84526011600452602484fd5b506020823d6020116130f0575b816130de6020938361468f565b81010312610b8957612e4c9151612e42565b3d91506130d1565b6131019061467c565b61310c578438612e1d565b8480fd5b915092506020813d60201161313f575b8161312d6020938361468f565b81010312610b89578590519238612de6565b3d9150613120565b60405163208975e760e21b8152600490fd5b503461031c57608036600319011261031c576004356001600160401b038111610af45761318a903690600401614581565b91906024356001600160401b038111610fb7576131ab903690600401614581565b6044356001600160401b03811161310c576131ca903690600401614581565b90916064356001600160401b0381116136d9576131eb903690600401614581565b949097338852600360205261320660ff60408a205416615ab6565b338852600360205260408820966001600160401b0382116136c557819061323060158a0154614627565b601f8111613675575b508990601f8311600114613609578a926135fe575b50508160011b916000199060031b1c19161760158701555b6001600160401b0382116135ea5781906132836016880154614627565b601f8111613597575b508790601f831160011461352b578892613520575b50508160011b916000199060031b1c19161760168501555b60178401916001600160401b038211611a775781906132d88454614627565b601f81116134d0575b508690601f831160011461346a57879261345f575b50508160011b916000199060031b1c19161790555b60188201906001600160401b03811161344b576133288254614627565b601f8111613406575b5083601f821160011461339f578190859660199692613394575b50508160011b916000199060031b1c19161790555b01805460ff19166001179055337fbe4ec58a792f909e102ee3d745d0c3b34a4d437a54d903c4db098d31c556422f8280a280f35b01359050388061334b565b8285526020852090601f198316865b8181106133ee57509683929160019460199899106133d4575b505050811b019055613360565b0135600019600384901b60f8161c191690553880806133c7565b9192602060018192868c0135815501940192016133ae565b82855260208520601f830160051c81019160208410613441575b601f0160051c01905b8181106134365750613331565b858155600101613429565b9091508190613420565b634e487b7160e01b84526041600452602484fd5b0135905038806132f6565b84885260208820925090601f198416885b8181106134b8575090846001959493921061349e575b505050811b01905561330b565b0135600019600384901b60f8161c19169055388080613491565b9193602060018192878701358155019501920161347b565b90915083875260208720601f840160051c81019160208510613516575b90601f859493920160051c01905b81811061350857506132e1565b8881558493506001016134fb565b90915081906134ed565b0135905038806132a1565b60168801895260208920925090601f198416895b81811061357f5750908460019594939210613565575b505050811b0160168501556132b9565b0135600019600384901b60f8161c19169055388080613555565b9193602060018192878701358155019501920161353f565b90915060168701885260208820601f840160051c810191602085106135e0575b90601f859493920160051c01905b8181106135d2575061328c565b8981558493506001016135c5565b90915081906135b7565b634e487b7160e01b87526041600452602487fd5b01359050388061324e565b60158a018b5260208b20925090601f1984168b5b81811061365d5750908460019594939210613643575b505050811b016015870155613266565b0135600019600384901b60f8161c19169055388080613633565b9193602060018192878701358155019501920161361d565b909150601589018a5260208a20601f840160051c8101602085106136be575b90849392915b601f830160051c820181106136b0575050613239565b8c815585945060010161369a565b5080613694565b634e487b7160e01b89526041600452602489fd5b8680fd5b503461031c578060031936011261031c5760606006546007546008549060405192835260208301526040820152f35b503461031c57602036600319011261031c57600435338252600d60205261373860408320548210615b32565b338252600d602052600361374f8260408520615b16565b5061376060ff600483015416615b6e565b01805461379f574290556040519081524260208201527f68733b6f87b2a7c87d5bcf8c0a0950f2985cc261d9ab6defddca8d7bd05eba4360403392a280f35b60405162461bcd60e51b815260206004820152600e60248201526d105b1c9958591e481b1bd8dad95960921b6044820152606490fd5b503461031c57602036600319011261031c576020610762600435615bad565b503461031c578060031936011261031c57602060405160028152f35b503461031c57602036600319011261031c576020610762600435615c72565b503461031c578060031936011261031c576020600454604051908152f35b503461031c57602036600319011261031c57613867614817565b338152600d602052613880604082205460043510615b32565b338152600d60205261389760043560408320615b16565b5060048101908154916138ac60ff8416615b6e565b6003820154928315938415613e72575b5060ff1916905560018154910154918260011b92808404600214901517156130b057818115613ce4576005830283810460051484151715611acc573386526003602052604086205460101c6001600160a01b0316906064900481151580613cd0575b80613cc7575b613b95575b50505b6040516370a0823160e01b81523060048201529085906020836024817f00000000000000000000000000000000000000000000000000000000000000006001600160a01b03165afa928315610ae9578293613b61575b506001546001600160a01b0316803b15610fb7576024839260405194859384926372424d9960e11b845260048401525af18015610b4357613b4e575b506040516370a0823160e01b8152306004820152906020826024817f00000000000000000000000000000000000000000000000000000000000000006001600160a01b03165afa8015610b43578690613b1a575b613a1c92506147bd565b92849180613b11575b613adc575b50613a56600080516020615f778339815191529184613abb575b60405191829186339660043585615664565b0390a233600052600e6020526040600020604051613a7381614661565b600d8152602081019063ffffffff42168252604081019384526060810193600085526080820193600085528054600160401b8110156105bc5761053491600182018155614847565b3386526003602052600c6040872001613ad586825461497f565b9055613a44565b92600080516020615f778339815191529150613afb84613a56926147bd565b613b078160085461497f565b6008559150613a2a565b50808411613a25565b506020823d602011613b46575b81613b346020938361468f565b81010312610b8957613a1c9151613a12565b3d9150613b27565b613b5a9095919561467c565b93386139be565b9092506020813d602011613b8d575b81613b7d6020938361468f565b81010312610af457519138613982565b3d9150613b70565b909181613bcd91848952600860408a2001613bb183825461497f565b90558489526003602052600960408a2001612ff283825461497f565b918652600e6020526040862060405191613be683614661565b6001835263ffffffff42166020840152604083015260016060830152336080830152805490600160401b821015613cb35790613c2791600182018155614847565b613c9f5781518154602084015164ffffffffff1990911660ff92831617600891821b64ffffffff001617835560408401516001840155606084015160029390930180546080909501516001600160a81b031990951693909216929092179290911b610100600160a81b03169190911790553880613929565b634e487b7160e01b87526004879052602487fd5b634e487b7160e01b88526041600452602488fd5b50801515613924565b5081875260ff604088205460081c1661391e565b6040519491939192613cf586614661565b60058652600260208701526001604087015260016060870152600160808701523384526003602052604084205460018060a01b039060101c169284935b600560ff86161015613e66576064613d5160ff6116f38189168c615af3565b048015613e28576001600160a01b038216151580613e06575b613d9b575b506001600160a01b0390811686526003602052604086205460101c1693613d959061526a565b93613d32565b93613ded85613e009260018060a01b0385168a526003602052600860408b2001613dc683825461497f565b90556001600160a01b0385168a52600360205260408a206009018054612ff290849061497f565b943390613df988615b04565b9084614863565b38613d6f565b506001600160a01b03821687526003602052604087205460081c60ff16613d6a565b50936001600160a01b03851680613e44575b50613d959061526a565b86526003602052604086205460101c6001600160a01b03169450613d95613e3a565b5094925092945061392c565b63018b82008101809111611acc574210613e8c57386138bc565b60405162461bcd60e51b815260206004820152602660248201527f5374696c6c206c6f636b65643a2031302d6d6f6e746820706572696f64206e6f6044820152653a1037bb32b960d11b6064820152608490fd5b503461031c576107d8613ef23661454f565b90613efb614758565b613f03614817565b615680565b503461031c57604036600319011261031c57613f226144af565b60243590613f2e614758565b6001600160a01b031690811561073157600854818110613f925781613f767fba443e8671971c36cdeb74f87321041daff421230cbc5e36cb835269ed1d8b7e936020936147bd565b60085583855260038252600860408620016106ce82825461497f565b60405162461bcd60e51b8152602060048201526012602482015271115e18d959591cc818591b5a5b881c1bdbdb60721b6044820152606490fd5b503461031c57602036600319011261031c576020906040906001600160a01b03613ff46144af565b168152600c83522054604051908152f35b503461031c578060031936011261031c576001546040516001600160a01b039091168152602090f35b503461031c57602036600319011261031c576140486144af565b614050614758565b6001600160a01b0316801561073157600180546001600160a01b031916821790556040519081527ffa7bd61554593f4e69cdffd255d3fe947352b02c7d3ec68059384934e4cfd47c90602090a180f35b503461031c57602080600319360112610af4576001600160a01b036140c36144af565b16808352600d8083526040842054928492855b85811061423c57506140e784615f04565b946140f185615f04565b916140fb86615f04565b9461410e61410888615f04565b97615f04565b988091815b85811061417f57506141448a61417b8d61416d8d61415f8e6141518f8f6040519a8b9a60a08c5260a08c019061451b565b918a8303908b015261451b565b90878203604089015261451b565b90858203606087015261451b565b90838203608085015261451b565b0390f35b8b8b8b8b8a8c8a60ff600461419d8a60408e8e878252885220615b16565b500154166141bb575b505050505050506141b690614808565b614113565b9461422d9694614227948c97948a6141f1819f8f8f9e6141b69f8260409160039c869e6141ea96525220615b16565b5096615416565b526141fe86855492615416565b5261420e85600185015492615416565b5261421e84600284015492615416565b52015492615416565b52614808565b9390508b8b8b8b8a8c8a6141a6565b81875283835260ff60046142538360408b20615b16565b5001541661426a575b61426590614808565b6140d6565b9361427761426591614808565b94905061425c565b503461031c57602036600319011261031c57614309906040906001600160a01b036142a86144af565b16815260036020522060ff6019820154166143336142c8601584016146b2565b926143256142d8601683016146b2565b916143176142f460186142ed601785016146b2565b93016146b2565b9360405198899860a08a5260a08a01906144db565b9088820360208a01526144db565b9086820360408801526144db565b9084820360608601526144db565b90151560808301520390f35b503461031c578060031936011261031c57614358614817565b3381526003602052604081205460ff8116156108255760081c60ff16610813576040516323b872dd60e01b815233600482015230602482015268070c1cc73b00c800006044820152602081606481857f00000000000000000000000000000000000000000000000000000000000000006001600160a01b03165af1908115610ae95782916143f0575b5015610af8576107d833614b49565b90506020813d8211614421575b8161440a6020938361468f565b81010312610af45761441b906147e0565b386143e1565b3d91506143fd565b503461031c57602036600319011261031c5760409081906001600160a01b036144506144af565b1681526003602052206010600f82015491015482519182526020820152f35b503461031c578060031936011261031c57602060405168070c1cc73b00c800008152f35b905034610af45781600319360112610af4576020906007548152f35b600435906001600160a01b0382168203610b8957565b602435906001600160a01b0382168203610b8957565b919082519283825260005b848110614507575050826000602080949584010152601f8019910116010190565b6020818301810151848301820152016144e6565b90815180825260208080930193019160005b82811061453b575050505090565b83518552938101939281019260010161452d565b6040906003190112610b89576004359060243590565b34610b89576000366003190112610b89576020604051601e8152f35b9181601f84011215610b89578235916001600160401b038311610b895760208381860195010111610b8957565b6060906003190112610b89576004356001600160a01b0381168103610b8957906024359060443590565b602435908115158203610b8957565b604435908115158203610b8957565b60045481101561461157600460005260206000200190600090565b634e487b7160e01b600052603260045260246000fd5b90600182811c92168015614657575b602083101461464157565b634e487b7160e01b600052602260045260246000fd5b91607f1691614636565b60a081019081106001600160401b038211176105bc57604052565b6001600160401b0381116105bc57604052565b601f909101601f19168101906001600160401b038211908210176105bc57604052565b90604051918260008254926146c684614627565b90818452600194858116908160001461473557506001146146f2575b50506146f09250038361468f565b565b9093915060005260209081600020936000915b81831061471d5750506146f0935082010138806146e2565b85548884018501529485019487945091830191614705565b9150506146f094506020925060ff191682840152151560051b82010138806146e2565b6000546001600160a01b0316330361476c57565b60405163118cdaa760e01b8152336004820152602490fd5b1561478b57565b60405162461bcd60e51b815260206004820152600a6024820152694e6f742061637469766560b01b6044820152606490fd5b919082039182116147ca57565b634e487b7160e01b600052601160045260246000fd5b51908115158203610b8957565b6001600160a01b039091168152602081019190915260400190565b60001981146147ca5760010190565b600080516020615fb783398151915260028154146148355760029055565b604051633ee5aeb560e01b8152600490fd5b8054821015614611576000526003602060002091020190600090565b9092919260018060a01b0380600093168352600e602052604083206040519061488b82614661565b60018252602082019263ffffffff421684526040830194855260ff60608401981688526080830196168652805490600160401b821015611a7757906148d591600182018155614847565b94909461493a5750518354915164ffffffffff1990921660ff91821617600892831b64ffffffff00161784559151600184015593516002909201805493516001600160a81b031990941692909116919091179190921b610100600160a81b0316179055565b634e487b7160e01b81526004819052602490fd5b1561495557565b60405162461bcd60e51b81526020600482015260026024820152615a4160f01b6044820152606490fd5b919082018092116147ca57565b6001600160a01b039081166000818152600360205260409020805461ff01600160b01b03191660109490941b62010000600160b01b03169390931760011783556002830180546001600160a81b0319169483169490941794151560a01b60ff60a01b16949094179092556012810180546001600160a01b031916905542601490910155600454909190600160401b8110156105bc57806001614a3192016004556145f6565b909283549160031b92831b921b1916179055614a4e600554614808565b600555565b60018060a01b039182600092168252600391602092808452600291604091838383200154958787169560ff96898860a09a8b1c16915b16908115614ae55715614ac857808552838352600586862001614aac8154614808565b90555b8452828252858585200154898089838c1c169216614a89565b808552838352600686862001614ade8154614808565b9055614aaf565b5050975050505050505050565b818102929181159184041417156147ca57565b8115614b0f570490565b634e487b7160e01b600052601260045260246000fd5b9192608093969594919660a084019784526020840152604083015260608201520152565b600154604051623144bd60e31b815291926000916001600160a01b0316602084600481845afa938415610fc3578394615236575b5083156152225760405163095ea7b360e01b8152600481019190915268070c1cc73b00c800006024820152602081604481867f00000000000000000000000000000000000000000000000000000000000000006001600160a01b03165af18015610fc3576151e9575b506001546040516370a0823160e01b808252306004830152916001600160a01b0316602082602481845afa9182156151aa5785926151b5575b50803b1561310c57848091604460405180948193634e538d9360e11b835230600484015268070c1cc73b00c8000060248401525af180156151aa57615197575b50600154604051928352306004840152602090839060249082906001600160a01b03165afa8015611138578490615163575b614c9b92506147bd565b93601e6b030e68b6d6e0acc82863363160251b859004818102959181870414901517156130b057614d0861188a614ced606488046118a08181816b030e68b6d6e0acc82863363160251b8990046147bd565b614cfc6064890460065461497f565b6006556064880461497f565b6008556001600160a01b038281168552600360205260408520805461ff001916610100178082556815245655b102580000600b90920191909155949687956001959260109190911c165b600a60ff8716111580615151575b15614fec57614d81866b030e68b6d6e0acc82863363160251b869004615290565b988915614fc45789614d929161497f565b9860018060a01b03821688526003602052858760408a2060ff815460081c169081614fad575b5015614e8257614e579260018060a01b0385168b526003602052600860408c2001614de482825461497f565b90556001600160a01b0385168b52600360205260408b206009018054614e0b90839061497f565b90556040516001600160a01b0384811691908716907fb16479bdac5b7099d9236d6fc6be3b30ff54188f4fd961686e1e1dc7ecb880379080614e4e86888361527b565b0390a384614863565b6001600160a01b0390811687526003602052604087205460101c1694614e7c9061526a565b94614d52565b5050614e908160085461497f565b6008556040516001600160a01b038316907f117ca0cd821ecb7eadfea2d6927a67853908bdc351a386235215f5ab6071bfed9080614ecf858c8361527b565b0390a260018060a01b038216600052600e602052604060002060405191614ef583614661565b600283524263ffffffff166020840152604083015260ff88166060830152600060808301528054600160401b8110156105bc57614f3791600182018155614847565b6105a65781518154602084015164ffffffffff1990911660ff92831617600891821b64ffffffff001617835560408401516001840155606084015160029390930180546080909501516001600160a81b031990951693909216929092179290911b610100600160a81b0316919091179055614e57565b600191500154614fbc826153dc565b111538614db8565b6001600160a01b0391821688526003602052604088205490995060101c1694614e7c9061526a565b509295919450957f8af2c013a5a55c6d3ad5423522fe76c6f2eb831b5e23318276b3c678cb457fc99350806064830411615138575b506040516001600160a01b038616949092839261505d92606490910491829182916b030e68b6d6e0acc82863363160251b919091049086614b25565b0390a260018060a01b0316600052600e60205260406000206040519061508282614661565b600082526020820163ffffffff42168152604083019268070c1cc73b00c8000084526060810193600085526080820193600085528054600160401b8110156105bc576150d391600182018155614847565b9190916105a65791518154935164ffffffffff1990941660ff91821617600894851b64ffffffff0016178255915160018201559351600294909401805493516001600160a81b0319909416949091169390931791901b610100600160a81b0316179055565b61188a61514891606484046147bd565b60085538615021565b506001600160a01b0381161515614d60565b506020823d60201161518f575b8161517d6020938361468f565b81010312610b8957614c9b9151614c91565b3d9150615170565b6151a39094919461467c565b9238614c5f565b6040513d87823e3d90fd5b9091506020813d6020116151e1575b816151d16020938361468f565b8101031261310c57519038614c1f565b3d91506151c4565b6020813d60201161521a575b816152026020938361468f565b81010312610fb757615213906147e0565b5038614be6565b3d91506151f5565b634e487b7160e01b83526012600452602483fd5b9093506020813d602011615262575b816152526020938361468f565b81010312610fb757519238614b7d565b3d9150615245565b60ff1660ff81146147ca5760010190565b6020909392919360ff60408201951681520152565b9060ff16600181146153c157600281146153a6576003811461538b5760049081811461537457600581146153575760068114615357576007811461533a576008811461533a576009811461531d57600a146152ec575050600090565b8160011b918083046002149015171561530857506103e8900490565b601190634e487b7160e01b6000525260246000fd5b508160011b918083046002149015171561530857506103e8900490565b5060038202918083046003149015171561530857506103e8900490565b5060058202918083046005149015171561530857506103e8900490565b508180046001148215171561530857506064900490565b508060011b90808204600214901517156147ca576064900490565b506005810290808204600514901517156147ca576064900490565b506014810290808204601414901517156147ca576064900490565b60ff16600181146153f957600410156153f457600590565b600290565b50600090565b6001600160401b0381116105bc5760051b60200190565b80518210156146115760209160051b010190565b8180615641575b61563a578115918280615615575b61560d576005549260018085018095116147ca5761545c856153ff565b9061547760409661546f8851948561468f565b8084526153ff565b9260209283810194601f190136863760008087156155ee576001600160a01b03898116835260038088528b8420015416965b6001600160a01b03978816806155da575b50505b818110615538575050508061551d575b6155135750826154f6575b50506154ef57815163c5bb5bcd60e01b8152600490fd5b9160009150565b8160039293508416600052526004836000200154161538806154d8565b9594505050509190565b508285166000526003825282600387600020015416156154cd565b8661554c61554583614808565b9285615416565b51168060005260038088528b6000209189828401541680156155c7578a60048095015416156155b357908a93929161558d61558688614808565b9789615416565b5260005288528b6000200154166155ad6155a684614808565b9385615416565b526154bd565b509b50505050505050505050505090600090565b509a505050505050509594505050509190565b9092508592845115614611575238806154ba565b6001600160a01b038981168352600387528a83206004015416966154a9565b509160009150565b506001600160a01b03828116600090815260036020526040902060040154161561543f565b9160019150565b5060018060a01b0380821660005260036020526003604060002001541615615431565b9094939260609260808301968352602083015260408201520152565b919060ff90600a82815416615aa5576006908154928315615a6c57600090818455604685028581046046036107ed5760649004956156be87876147bd565b946156ce6009938785558b61497f565b916004948554808511615a64575b50809b805b8581106159cf57508c156159845793944263ffffffff16945b86811061573b5750505050505050509461573691600080516020615f978339815191529596600160ff1982541617905560405194859485615664565b0390a1565b82848f8e8c9161574a866145f6565b9290549260039360018060a01b0391851b1c16908187526020928484528c6040968b888b209283549a60089b8c1c161561596f57600584015490840154808210156159675750935b6007938401548086111561595f576157aa90866147bd565b955b8615615949578a916127b5886157c193614af2565b9b8781528989528c6157d98d8484200191825461497f565b905587815289895220016157ee8b825461497f565b9055808402908482040361593357927fbee8f46206dc051d674f6ca1e618efe407d83b27ffbe3540b916edfd34e428e1928892838f88978882528b8b5261583c60118484200191825461497f565b90558781528a8a5220015581519081528986820152a28852600e81528288209083519261586884614661565b83528201928b84528201948552606082019488865260808301938985528254600160401b81101561591f576158a4906001948582018155614847565b94909461590c57518454915164ffffffffff19909216908c161790861b64ffffffff001617835551908201559251600293909301805491516001600160a81b031990921693881693909317911b610100600160a81b031617905561590790614808565b6156fa565b8f8b80602492634e487b7160e01b825252fd5b8f8b6041602492634e487b7160e01b835252fd5b50508f8b6011602492634e487b7160e01b835252fd5b5050505050505050505050505061590790614808565b508b956157ac565b905093615792565b50505050505050505050505061590790614808565b5096915050600080516020615f978339815191529899508594506159b192935061188a915060809761497f565b600855556040519182528060208301528060408301526060820152a1565b6159d8816145f6565b9054600391821b1c6001600160a01b0316845260205260408320805460081c851615615a5a576007600582015487830154808210600014615a525750915b015490818111615a31575b5050615a2c90614808565b6156e1565b9e615a2c929f615a4a92615a44916147bd565b9061497f565b9d9038615a21565b905091615a16565b50615a2c90614808565b9350386156dc565b60405162461bcd60e51b8152602060048201526011602482015270115b5c1d1e48189a5b985c9e481c1bdbdb607a1b6044820152606490fd5b60405162c9487960e41b8152600490fd5b15615abd57565b60405162461bcd60e51b815260206004820152600e60248201526d139bdd081c9959da5cdd195c995960921b6044820152606490fd5b9060058110156146115760051b0190565b60ff60019116019060ff82116147ca57565b8054821015614611576000526005602060002091020190600090565b15615b3957565b60405162461bcd60e51b815260206004820152600d60248201526c092dcecc2d8d2c840d2dcc8caf609b1b6044820152606490fd5b15615b7557565b60405162461bcd60e51b815260206004820152601060248201526f105b1c9958591e481d5b9cdd185ad95960821b6044820152606490fd5b6002546001600160a01b0316908115615c29576020906024604051809481936347cd519160e01b835260048301525afa908115615c1d57600091615bef575090565b906020823d8211615c15575b81615c086020938361468f565b8101031261031c57505190565b3d9150615bfb565b6040513d6000823e3d90fd5b5050600090565b6002546001600160a01b0316908115615c29576020906024604051809481936375b1f0e160e11b835260048301525afa908115615c1d57600091615bef575090565b6002546001600160a01b0316908115615c2957602090602460405180948193631d61396160e11b835260048301525afa908115615c1d57600091615bef575090565b6002546001600160a01b03908116918215615d5f57166024600082815260206003815280600f60408420015495604051948580926347cd519160e01b8252600160048301525afa928315610ae9578293615d2f575b5060ff9160036040928596835252205460081c169081615d27575092565b905082101592565b9080935081813d8311615d58575b615d47818361468f565b81010312610af457519160ff615d09565b503d615d3d565b505050600090600090600090565b929060018060a01b0380600095168552602090600e82526040908187209283549687158015615efa575b615ebe57615da586896147bd565b80821015615eb65750935b615db9856153ff565b95615dc68551978861468f565b858752601f19615dd5876153ff565b01838b5b828110615e84575050508699805b878110615df957505050505050505050565b6000198b018b81116107ed5790615e20615e1a826118a087615e7f966147bd565b86614847565b5087895191615e2e83614661565b8054600260ff92838316865263ffffffff600893841c168c8701528d600182015490870152015491821660608501521c166080820152615e6e828c615416565b52615e79818b615416565b50614808565b615de7565b8751615e8f81614661565b8d81528d838201528d898201528d60608201528d608082015282828c010152018490615dd9565b905093615db0565b5082519697959695945085019250506001600160401b03821184831017615ee6575281529190565b634e487b7160e01b83526041600452602483fd5b5087861015615d97565b90615f0e826153ff565b615f1b604051918261468f565b8281528092615f2c601f19916153ff565b019060203691013756fe34ff37874d7443037a85c6f390fe14f2ae3e8767355de0e63891ad4367c275398be0079c531659141344cd1fd0a4f28419497f9722a3daafe3b4186f6b6457e0dcfd2b4017d03f7e541021db793b2f9b31e4acdee005f789e52853c390e3e962a0ea5705200c9ffd36dc735fef1592c3234bb7e311fc1b0a444f6370d0620eae9b779b17422d0df92223018b32b4d1fa46e071723d6817e2486d003becc55f00a2646970667358221220c0ac69040fe97fa5cf8ed2ec367863b05ee401ae76e60277f9c57471d125367164736f6c63430008140033","opcodes":"PUSH1 0xA0 CALLVALUE PUSH3 0x183 JUMPI PUSH1 0x1F PUSH3 0x61C0 CODESIZE DUP2 SWAP1 SUB SWAP2 DUP3 ADD PUSH1 0x1F NOT AND DUP4 ADD SWAP2 PUSH1 0x1 PUSH1 0x1 PUSH1 0x40 SHL SUB DUP4 GT DUP5 DUP5 LT OR PUSH3 0x188 JUMPI DUP1 DUP5 SWAP3 PUSH1 0x40 SWAP5 DUP6 MSTORE DUP4 CODECOPY DUP2 ADD SUB SLT PUSH3 0x183 JUMPI PUSH3 0x5A PUSH1 0x20 PUSH3 0x52 DUP4 PUSH3 0x19E JUMP JUMPDEST SWAP3 ADD PUSH3 0x19E JUMP JUMPDEST SWAP1 CALLER ISZERO PUSH3 0x16A JUMPI PUSH1 0x0 SLOAD SWAP2 PUSH1 0x1 DUP1 PUSH1 0xA0 SHL SUB NOT SWAP3 CALLER DUP5 DUP3 AND OR PUSH1 0x0 SSTORE PUSH1 0x40 MLOAD SWAP1 PUSH1 0x1 DUP1 PUSH1 0xA0 SHL SUB SWAP4 DUP5 SWAP2 DUP3 CALLER SWAP2 AND PUSH32 0x8BE0079C531659141344CD1FD0A4F28419497F9722A3DAAFE3B4186F6B6457E0 PUSH1 0x0 DUP1 LOG3 PUSH1 0x1 PUSH32 0x9B779B17422D0DF92223018B32B4D1FA46E071723D6817E2486D003BECC55F00 SSTORE AND SWAP1 DUP2 ISZERO DUP1 ISZERO PUSH3 0x15F JUMPI JUMPDEST PUSH3 0x150 JUMPI POP PUSH1 0x80 MSTORE AND SWAP1 PUSH1 0x1 SLOAD AND OR PUSH1 0x1 SSTORE PUSH1 0x40 MLOAD PUSH2 0x600C SWAP1 DUP2 PUSH3 0x1B4 DUP3 CODECOPY PUSH1 0x80 MLOAD DUP2 DUP2 DUP2 PUSH2 0x941 ADD MSTORE DUP2 DUP2 PUSH2 0x1039 ADD MSTORE DUP2 DUP2 PUSH2 0x1383 ADD MSTORE DUP2 DUP2 PUSH2 0x1524 ADD MSTORE DUP2 DUP2 PUSH2 0x1599 ADD MSTORE DUP2 DUP2 PUSH2 0x1EE3 ADD MSTORE DUP2 DUP2 PUSH2 0x2DA9 ADD MSTORE DUP2 DUP2 PUSH2 0x394A ADD MSTORE DUP2 DUP2 PUSH2 0x39DB ADD MSTORE DUP2 DUP2 PUSH2 0x43A9 ADD MSTORE PUSH2 0x4BB1 ADD MSTORE RETURN JUMPDEST PUSH4 0xD92E233D PUSH1 0xE0 SHL DUP2 MSTORE PUSH1 0x4 SWAP1 REVERT JUMPDEST POP DUP4 DUP4 AND ISZERO PUSH3 0xDE JUMP JUMPDEST PUSH1 0x40 MLOAD PUSH4 0x1E4FBDF7 PUSH1 0xE0 SHL DUP2 MSTORE PUSH1 0x0 PUSH1 0x4 DUP3 ADD MSTORE PUSH1 0x24 SWAP1 REVERT JUMPDEST PUSH1 0x0 DUP1 REVERT JUMPDEST PUSH4 0x4E487B71 PUSH1 0xE0 SHL PUSH1 0x0 MSTORE PUSH1 0x41 PUSH1 0x4 MSTORE PUSH1 0x24 PUSH1 0x0 REVERT JUMPDEST MLOAD SWAP1 PUSH1 0x1 PUSH1 0x1 PUSH1 0xA0 SHL SUB DUP3 AND DUP3 SUB PUSH3 0x183 JUMPI JUMP INVALID PUSH2 0x320 DUP1 PUSH1 0x40 MSTORE PUSH1 0x4 CALLDATASIZE LT ISZERO PUSH2 0x14 JUMPI PUSH1 0x0 DUP1 REVERT JUMPDEST PUSH1 0x0 SWAP1 DUP2 CALLDATALOAD PUSH1 0xE0 SHR SWAP1 DUP2 PUSH4 0x266F044 EQ PUSH2 0x4493 JUMPI POP DUP1 PUSH4 0x39CCC26 EQ PUSH2 0x446F JUMPI DUP1 PUSH4 0x3C3ECB7 EQ PUSH2 0x4429 JUMPI DUP1 PUSH4 0xF15F4C0 EQ PUSH2 0x433F JUMPI DUP1 PUSH4 0xF53A470 EQ PUSH2 0x427F JUMPI DUP1 PUSH4 0x1747E0B0 EQ PUSH2 0x40A0 JUMPI DUP1 PUSH4 0x1CE5E894 EQ PUSH2 0x402E JUMPI DUP1 PUSH4 0x1F6259D5 EQ PUSH2 0x4005 JUMPI DUP1 PUSH4 0x2335821B EQ PUSH2 0x3FCC JUMPI DUP1 PUSH4 0x2808BC8D EQ PUSH2 0x3F08 JUMPI DUP1 PUSH4 0x2D641F08 EQ PUSH2 0x3EE0 JUMPI DUP1 PUSH4 0x2E17DE78 EQ PUSH2 0x384D JUMPI DUP1 PUSH4 0x38ABFC41 EQ PUSH2 0x382F JUMPI DUP1 PUSH4 0x3AC272C2 EQ PUSH2 0x3810 JUMPI DUP1 PUSH4 0x3CCB13D3 EQ PUSH2 0x37F4 JUMPI DUP1 PUSH4 0x44E374D5 EQ PUSH2 0x12F5 JUMPI DUP1 PUSH4 0x47CD5191 EQ PUSH2 0x37D5 JUMPI DUP1 PUSH4 0x485D3834 EQ PUSH2 0xC11 JUMPI DUP1 PUSH4 0x4B3F0D45 EQ PUSH2 0x370C JUMPI DUP1 PUSH4 0x52375BB1 EQ PUSH2 0x36DD JUMPI DUP1 PUSH4 0x55509C8F EQ PUSH2 0x3159 JUMPI DUP1 PUSH4 0x634F627E EQ PUSH2 0x2D1F JUMPI DUP1 PUSH4 0x6386C1C7 EQ PUSH2 0x2B51 JUMPI DUP1 PUSH4 0x68DDB2B5 EQ PUSH2 0x2A79 JUMPI DUP1 PUSH4 0x715018A6 EQ PUSH2 0x2A31 JUMPI DUP1 PUSH4 0x7435F421 EQ PUSH2 0x2993 JUMPI DUP1 PUSH4 0x77537844 EQ PUSH2 0x12F5 JUMPI DUP1 PUSH4 0x7F1B4064 EQ PUSH2 0x2975 JUMPI DUP1 PUSH4 0x8431FDD7 EQ PUSH2 0x2951 JUMPI DUP1 PUSH4 0x8A8F0429 EQ PUSH2 0x2633 JUMPI DUP1 PUSH4 0x8DA5CB5B EQ PUSH2 0x260C JUMPI DUP1 PUSH4 0x92446E30 EQ PUSH2 0x25F0 JUMPI DUP1 PUSH4 0x94915DD0 EQ PUSH2 0x2260 JUMPI DUP1 PUSH4 0x9499A351 EQ PUSH2 0x2227 JUMPI DUP1 PUSH4 0xA2BDEDF4 EQ PUSH2 0x21E3 JUMPI DUP1 PUSH4 0xA87430BA EQ PUSH2 0x1F12 JUMPI DUP1 PUSH4 0xA98AD46C EQ PUSH2 0x1ECD JUMPI DUP1 PUSH4 0xAA33F5D5 EQ PUSH2 0x1CD5 JUMPI DUP1 PUSH4 0xAA393757 EQ PUSH2 0x1CB1 JUMPI DUP1 PUSH4 0xABE50F19 EQ PUSH2 0x1494 JUMPI DUP1 PUSH4 0xB58E0278 EQ PUSH2 0x1318 JUMPI DUP1 PUSH4 0xB86A1FB2 EQ PUSH2 0x12FA JUMPI DUP1 PUSH4 0xBE648BDB EQ PUSH2 0x12F5 JUMPI DUP1 PUSH4 0xBFF1F9E1 EQ PUSH2 0x12D7 JUMPI DUP1 PUSH4 0xC9D484CF EQ PUSH2 0x12AE JUMPI DUP1 PUSH4 0xCE8292F5 EQ PUSH2 0x121A JUMPI DUP1 PUSH4 0xCF57EE69 EQ PUSH2 0x11E1 JUMPI DUP1 PUSH4 0xCFD47663 EQ PUSH2 0x1155 JUMPI DUP1 PUSH4 0xD3635A02 EQ PUSH2 0xFCE JUMPI DUP1 PUSH4 0xD4A90286 EQ PUSH2 0xEFC JUMPI DUP1 PUSH4 0xE0E01011 EQ PUSH2 0xC30 JUMPI DUP1 PUSH4 0xE239C400 EQ PUSH2 0xC11 JUMPI DUP1 PUSH4 0xE3BA9BDA EQ PUSH2 0xBA7 JUMPI DUP1 PUSH4 0xE4093A66 EQ PUSH2 0x885 JUMPI DUP1 PUSH4 0xE51CB530 EQ PUSH2 0x837 JUMPI DUP1 PUSH4 0xE7763194 EQ PUSH2 0x76A JUMPI DUP1 PUSH4 0xEB63E1C2 EQ PUSH2 0x743 JUMPI DUP1 PUSH4 0xEC50324A EQ PUSH2 0x644 JUMPI DUP1 PUSH4 0xF00B0093 EQ PUSH2 0x60B JUMPI DUP1 PUSH4 0xF0B7B9DC EQ PUSH2 0x40E JUMPI DUP1 PUSH4 0xF24C536A EQ PUSH2 0x395 JUMPI DUP1 PUSH4 0xF2FDE38B EQ PUSH2 0x31F JUMPI PUSH4 0xFB72CA35 EQ PUSH2 0x2D7 JUMPI PUSH1 0x0 DUP1 REVERT JUMPDEST CALLVALUE PUSH2 0x31C JUMPI PUSH1 0x20 CALLDATASIZE PUSH1 0x3 NOT ADD SLT PUSH2 0x31C JUMPI PUSH1 0x40 SWAP1 PUSH1 0x1 PUSH1 0x1 PUSH1 0xA0 SHL SUB PUSH2 0x2FB PUSH2 0x44AF JUMP JUMPDEST AND DUP2 MSTORE PUSH1 0xB PUSH1 0x20 MSTORE DUP2 DUP1 DUP3 KECCAK256 SLOAD SWAP2 PUSH1 0xC PUSH1 0x20 MSTORE KECCAK256 SLOAD DUP3 MLOAD SWAP2 DUP3 MSTORE PUSH1 0x20 DUP3 ADD MSTORE RETURN JUMPDEST DUP1 REVERT JUMPDEST POP CALLVALUE PUSH2 0x31C JUMPI PUSH1 0x20 CALLDATASIZE PUSH1 0x3 NOT ADD SLT PUSH2 0x31C JUMPI PUSH2 0x339 PUSH2 0x44AF JUMP JUMPDEST PUSH2 0x341 PUSH2 0x4758 JUMP JUMPDEST PUSH1 0x1 PUSH1 0x1 PUSH1 0xA0 SHL SUB SWAP1 DUP2 AND SWAP1 DUP2 ISZERO PUSH2 0x37C JUMPI PUSH1 0x0 SLOAD DUP3 PUSH1 0x1 DUP1 PUSH1 0xA0 SHL SUB NOT DUP3 AND OR PUSH1 0x0 SSTORE AND PUSH1 0x0 DUP1 MLOAD PUSH1 0x20 PUSH2 0x5F57 DUP4 CODECOPY DUP2 MLOAD SWAP2 MSTORE PUSH1 0x0 DUP1 LOG3 DUP1 RETURN JUMPDEST PUSH1 0x40 MLOAD PUSH4 0x1E4FBDF7 PUSH1 0xE0 SHL DUP2 MSTORE PUSH1 0x4 DUP2 ADD DUP5 SWAP1 MSTORE PUSH1 0x24 SWAP1 REVERT JUMPDEST POP CALLVALUE PUSH2 0x31C JUMPI PUSH1 0x20 CALLDATASIZE PUSH1 0x3 NOT ADD SLT PUSH2 0x31C JUMPI PUSH1 0x40 SWAP1 PUSH1 0x1 PUSH1 0x1 PUSH1 0xA0 SHL SUB PUSH2 0x3BA PUSH2 0x44AF JUMP JUMPDEST AND DUP2 MSTORE PUSH1 0x3 PUSH1 0x20 MSTORE DUP2 DUP2 KECCAK256 SWAP1 PUSH1 0x7 PUSH1 0x5 DUP4 ADD SLOAD PUSH1 0x6 DUP5 ADD SLOAD DUP1 DUP3 LT PUSH1 0x0 EQ PUSH2 0x406 JUMPI POP SWAP3 JUMPDEST ADD SLOAD DUP1 DUP4 GT ISZERO PUSH2 0x400 JUMPI PUSH2 0x3F4 SWAP2 POP DUP3 PUSH2 0x47BD JUMP JUMPDEST DUP3 MLOAD SWAP2 DUP3 MSTORE PUSH1 0x20 DUP3 ADD MSTORE RETURN JUMPDEST POP PUSH2 0x3F4 JUMP JUMPDEST SWAP1 POP SWAP3 PUSH2 0x3DF JUMP JUMPDEST POP CALLVALUE PUSH2 0x31C JUMPI PUSH2 0x41D CALLDATASIZE PUSH2 0x45AE JUMP JUMPDEST SWAP2 PUSH2 0x426 PUSH2 0x4817 JUMP JUMPDEST PUSH1 0x2 SLOAD PUSH1 0x1 PUSH1 0x1 PUSH1 0xA0 SHL SUB SWAP2 SWAP1 DUP3 AND CALLER SUB PUSH2 0x5D2 JUMPI AND SWAP1 PUSH2 0x448 DUP3 ISZERO ISZERO PUSH2 0x494E JUMP JUMPDEST PUSH2 0x453 DUP2 ISZERO ISZERO PUSH2 0x494E JUMP JUMPDEST DUP2 DUP5 MSTORE PUSH1 0x20 SWAP2 PUSH1 0x3 DUP4 MSTORE PUSH1 0xC PUSH1 0x40 DUP7 KECCAK256 ADD PUSH2 0x46F DUP4 DUP3 SLOAD PUSH2 0x497F JUMP JUMPDEST SWAP1 SSTORE DUP1 DUP6 MSTORE PUSH1 0x3 DUP4 MSTORE PUSH1 0xE PUSH1 0x40 DUP7 KECCAK256 ADD PUSH2 0x48A DUP4 DUP3 SLOAD PUSH2 0x497F JUMP JUMPDEST SWAP1 SSTORE DUP1 DUP6 MSTORE PUSH1 0xC DUP4 MSTORE PUSH1 0x40 DUP6 KECCAK256 PUSH2 0x4A2 DUP4 DUP3 SLOAD PUSH2 0x497F JUMP JUMPDEST SWAP1 SSTORE DUP1 PUSH32 0x2393ACB59B41DD645F68FE97BAB0DEBA2A21B99EFC69761E9B2762F11BBBE79D PUSH1 0x40 DUP1 MLOAD DUP6 DUP2 MSTORE DUP8 DUP8 DUP3 ADD MSTORE LOG2 PUSH1 0x0 MSTORE PUSH1 0xE DUP3 MSTORE PUSH1 0x40 PUSH1 0x0 KECCAK256 SWAP2 PUSH1 0x40 MLOAD SWAP1 PUSH2 0x4ED DUP3 PUSH2 0x4661 JUMP JUMPDEST PUSH1 0xB DUP3 MSTORE DUP2 ADD SWAP2 PUSH4 0xFFFFFFFF TIMESTAMP AND DUP4 MSTORE PUSH1 0x40 DUP3 ADD SWAP1 DUP2 MSTORE PUSH1 0xFF PUSH1 0x60 DUP4 ADD SWAP6 AND DUP6 MSTORE PUSH1 0x80 DUP3 ADD SWAP4 PUSH1 0x0 DUP6 MSTORE DUP1 SLOAD PUSH1 0x1 PUSH1 0x40 SHL DUP2 LT ISZERO PUSH2 0x5BC JUMPI PUSH2 0x534 SWAP2 PUSH1 0x1 DUP3 ADD DUP2 SSTORE PUSH2 0x4847 JUMP JUMPDEST SWAP2 SWAP1 SWAP2 PUSH2 0x5A6 JUMPI PUSH1 0xFF SWAP4 DUP5 PUSH1 0x2 SWAP5 MLOAD AND PUSH5 0xFFFFFFFF00 DUP5 SLOAD SWAP3 DUP3 DUP9 NOT DUP6 AND OR DUP7 SSTORE MLOAD PUSH1 0x8 SHL AND SWAP2 PUSH5 0xFFFFFFFFFF NOT AND OR OR DUP3 SSTORE MLOAD PUSH1 0x1 DUP3 ADD SSTORE ADD SWAP3 MLOAD AND DUP3 SLOAD SWAP2 PUSH2 0x100 PUSH1 0x1 PUSH1 0xA8 SHL SUB SWAP1 MLOAD PUSH1 0x8 SHL AND SWAP2 PUSH1 0x1 DUP1 PUSH1 0xA8 SHL SUB NOT AND OR OR SWAP1 SSTORE PUSH1 0x1 PUSH1 0x0 DUP1 MLOAD PUSH1 0x20 PUSH2 0x5FB7 DUP4 CODECOPY DUP2 MLOAD SWAP2 MSTORE SSTORE DUP1 RETURN JUMPDEST PUSH4 0x4E487B71 PUSH1 0xE0 SHL PUSH1 0x0 MSTORE PUSH1 0x0 PUSH1 0x4 MSTORE PUSH1 0x24 PUSH1 0x0 REVERT JUMPDEST PUSH4 0x4E487B71 PUSH1 0xE0 SHL PUSH1 0x0 MSTORE PUSH1 0x41 PUSH1 0x4 MSTORE PUSH1 0x24 PUSH1 0x0 REVERT JUMPDEST PUSH1 0x40 MLOAD PUSH3 0x461BCD PUSH1 0xE5 SHL DUP2 MSTORE PUSH1 0x20 PUSH1 0x4 DUP3 ADD MSTORE PUSH1 0x11 PUSH1 0x24 DUP3 ADD MSTORE PUSH17 0x2737BA103137B0B932103430B7323632B9 PUSH1 0x79 SHL PUSH1 0x44 DUP3 ADD MSTORE PUSH1 0x64 SWAP1 REVERT JUMPDEST POP CALLVALUE PUSH2 0x31C JUMPI PUSH1 0x20 CALLDATASIZE PUSH1 0x3 NOT ADD SLT PUSH2 0x31C JUMPI PUSH1 0x20 SWAP1 PUSH1 0x40 SWAP1 PUSH1 0x1 PUSH1 0x1 PUSH1 0xA0 SHL SUB PUSH2 0x633 PUSH2 0x44AF JUMP JUMPDEST AND DUP2 MSTORE PUSH1 0xB DUP4 MSTORE KECCAK256 SLOAD PUSH1 0x40 MLOAD SWAP1 DUP2 MSTORE RETURN JUMPDEST POP CALLVALUE PUSH2 0x31C JUMPI PUSH1 0x40 CALLDATASIZE PUSH1 0x3 NOT ADD SLT PUSH2 0x31C JUMPI PUSH2 0x65E PUSH2 0x44AF JUMP JUMPDEST PUSH1 0x24 CALLDATALOAD SWAP1 PUSH2 0x66A PUSH2 0x4758 JUMP JUMPDEST PUSH1 0x1 PUSH1 0x1 PUSH1 0xA0 SHL SUB AND SWAP1 DUP2 ISZERO PUSH2 0x731 JUMPI PUSH1 0x7 SLOAD DUP2 DUP2 LT PUSH2 0x6F5 JUMPI DUP2 PUSH2 0x6B2 PUSH32 0x529AFC4538720FE0B3EADC40486369AB962002D72FEAD1387B300C66073E7BF SWAP4 PUSH1 0x20 SWAP4 PUSH2 0x47BD JUMP JUMPDEST PUSH1 0x7 SSTORE DUP4 DUP6 MSTORE PUSH1 0x3 DUP3 MSTORE PUSH1 0x8 PUSH1 0x40 DUP7 KECCAK256 ADD PUSH2 0x6CE DUP3 DUP3 SLOAD PUSH2 0x497F JUMP JUMPDEST SWAP1 SSTORE DUP4 DUP6 MSTORE PUSH1 0x3 DUP3 MSTORE PUSH1 0x9 PUSH1 0x40 DUP7 KECCAK256 ADD PUSH2 0x6E9 DUP3 DUP3 SLOAD PUSH2 0x497F JUMP JUMPDEST SWAP1 SSTORE PUSH1 0x40 MLOAD SWAP1 DUP2 MSTORE LOG2 DUP1 RETURN JUMPDEST PUSH1 0x40 MLOAD PUSH3 0x461BCD PUSH1 0xE5 SHL DUP2 MSTORE PUSH1 0x20 PUSH1 0x4 DUP3 ADD MSTORE PUSH1 0x14 PUSH1 0x24 DUP3 ADD MSTORE PUSH20 0x115E18D959591CC81C995CD95C9D99481C1BDBDB PUSH1 0x62 SHL PUSH1 0x44 DUP3 ADD MSTORE PUSH1 0x64 SWAP1 REVERT JUMPDEST PUSH1 0x40 MLOAD PUSH4 0xD92E233D PUSH1 0xE0 SHL DUP2 MSTORE PUSH1 0x4 SWAP1 REVERT JUMPDEST POP CALLVALUE PUSH2 0x31C JUMPI PUSH1 0x20 CALLDATASIZE PUSH1 0x3 NOT ADD SLT PUSH2 0x31C JUMPI PUSH1 0x20 PUSH2 0x762 PUSH1 0x4 CALLDATALOAD PUSH2 0x5C30 JUMP JUMPDEST PUSH1 0x40 MLOAD SWAP1 DUP2 MSTORE RETURN JUMPDEST POP CALLVALUE PUSH2 0x31C JUMPI DUP1 PUSH1 0x3 NOT CALLDATASIZE ADD SLT PUSH2 0x31C JUMPI PUSH2 0x783 PUSH2 0x4817 JUMP JUMPDEST CALLER DUP2 MSTORE PUSH1 0x3 PUSH1 0x20 MSTORE PUSH1 0x40 DUP2 KECCAK256 DUP1 SLOAD PUSH1 0xFF DUP2 AND ISZERO PUSH2 0x825 JUMPI PUSH1 0x8 SHR PUSH1 0xFF AND PUSH2 0x813 JUMPI PUSH1 0xC ADD DUP1 SLOAD SWAP1 PUSH9 0x70C1CC73B00C80000 DUP3 LT PUSH2 0x801 JUMPI PUSH9 0x70C1CC73B00C7FFFF NOT DUP3 ADD SWAP2 DUP3 GT PUSH2 0x7ED JUMPI SSTORE PUSH2 0x7D8 CALLER PUSH2 0x4B49 JUMP JUMPDEST PUSH1 0x1 PUSH1 0x0 DUP1 MLOAD PUSH1 0x20 PUSH2 0x5FB7 DUP4 CODECOPY DUP2 MLOAD SWAP2 MSTORE SSTORE DUP1 RETURN JUMPDEST PUSH4 0x4E487B71 PUSH1 0xE0 SHL DUP4 MSTORE PUSH1 0x11 PUSH1 0x4 MSTORE PUSH1 0x24 DUP4 REVERT JUMPDEST PUSH1 0x40 MLOAD PUSH4 0xB55C1BAD PUSH1 0xE0 SHL DUP2 MSTORE PUSH1 0x4 SWAP1 REVERT JUMPDEST PUSH1 0x40 MLOAD PUSH4 0x7CDF3051 PUSH1 0xE1 SHL DUP2 MSTORE PUSH1 0x4 SWAP1 REVERT JUMPDEST PUSH1 0x40 MLOAD PUSH4 0xABA47339 PUSH1 0xE0 SHL DUP2 MSTORE PUSH1 0x4 SWAP1 REVERT JUMPDEST POP CALLVALUE PUSH2 0x31C JUMPI PUSH1 0x20 CALLDATASIZE PUSH1 0x3 NOT ADD SLT PUSH2 0x31C JUMPI PUSH1 0x40 SWAP1 PUSH1 0xD SWAP1 DUP3 SWAP1 PUSH1 0x1 PUSH1 0x1 PUSH1 0xA0 SHL SUB PUSH2 0x861 PUSH2 0x44AF JUMP JUMPDEST AND DUP2 MSTORE PUSH1 0x3 PUSH1 0x20 MSTORE KECCAK256 ADD SLOAD DUP2 MLOAD SWAP1 PUSH9 0x70C1CC73B00C80000 DUP2 LT ISZERO DUP3 MSTORE PUSH1 0x20 DUP3 ADD MSTORE RETURN JUMPDEST POP CALLVALUE PUSH2 0x31C JUMPI DUP1 PUSH1 0x3 NOT CALLDATASIZE ADD SLT PUSH2 0x31C JUMPI PUSH2 0x89E PUSH2 0x4817 JUMP JUMPDEST PUSH1 0x2 SLOAD PUSH1 0x1 PUSH1 0x1 PUSH1 0xA0 SHL SUB SWAP1 DUP2 AND SWAP1 DUP2 ISZERO PUSH2 0xB95 JUMPI CALLER DUP4 MSTORE PUSH1 0x20 PUSH1 0x3 DUP2 MSTORE PUSH1 0x40 DUP5 KECCAK256 SWAP2 PUSH2 0x8D1 PUSH1 0xFF DUP5 SLOAD PUSH1 0x8 SHR AND PUSH2 0x4784 JUMP JUMPDEST PUSH1 0x40 MLOAD SWAP3 PUSH4 0x47CD5191 PUSH1 0xE0 SHL DUP5 MSTORE DUP3 DUP5 PUSH1 0x24 DUP2 PUSH1 0x1 SWAP9 DUP10 PUSH1 0x4 DUP4 ADD MSTORE GAS STATICCALL SWAP4 DUP5 ISZERO PUSH2 0xB43 JUMPI DUP7 SWAP5 PUSH2 0xB60 JUMPI JUMPDEST POP PUSH1 0xF ADD DUP1 SLOAD DUP5 DUP2 LT PUSH2 0xB4E JUMPI DUP5 PUSH2 0x914 SWAP2 PUSH2 0x47BD JUMP JUMPDEST SWAP1 SSTORE PUSH2 0x93B DUP3 DUP5 DUP4 PUSH1 0x2 SLOAD AND PUSH1 0x40 MLOAD SWAP4 DUP5 SWAP3 DUP4 SWAP3 PUSH4 0xA9059CBB PUSH1 0xE0 SHL DUP5 MSTORE PUSH1 0x4 DUP5 ADD PUSH2 0x47ED JUMP JUMPDEST SUB DUP2 DUP10 DUP7 PUSH32 0x0 AND GAS CALL SWAP1 DUP2 ISZERO PUSH2 0xB43 JUMPI DUP7 SWAP2 PUSH2 0xB0A JUMPI JUMPDEST POP ISZERO PUSH2 0xAF8 JUMPI DUP5 SWAP1 CALLER DUP3 MSTORE PUSH1 0xB DUP4 MSTORE PUSH1 0x40 DUP3 KECCAK256 PUSH2 0x98E DUP2 SLOAD PUSH2 0x4808 JUMP JUMPDEST SWAP1 SSTORE PUSH1 0x2 SLOAD AND DUP1 EXTCODESIZE ISZERO PUSH2 0xAF4 JUMPI DUP2 DUP1 SWAP2 PUSH1 0x44 PUSH1 0x40 MLOAD DUP1 SWAP5 DUP2 SWAP4 PUSH4 0x686A38BD PUSH1 0xE0 SHL DUP4 MSTORE CALLER PUSH1 0x4 DUP5 ADD MSTORE DUP11 PUSH1 0x24 DUP5 ADD MSTORE GAS CALL DUP1 ISZERO PUSH2 0xAE9 JUMPI PUSH2 0xAD1 JUMPI JUMPDEST POP POP PUSH1 0x40 MLOAD DUP4 DUP2 MSTORE DUP3 DUP3 DUP3 ADD MSTORE PUSH32 0x4E755DD64E53A9F7A5882E2E32EB64718C2273DE11E017BD47129B9FE2716D7C PUSH1 0x40 CALLER SWAP3 LOG2 CALLER PUSH1 0x0 MSTORE PUSH1 0xE DUP2 MSTORE PUSH1 0x40 PUSH1 0x0 KECCAK256 SWAP1 PUSH1 0x40 MLOAD SWAP1 PUSH2 0xA18 DUP3 PUSH2 0x4661 JUMP JUMPDEST PUSH1 0xA DUP3 MSTORE DUP2 ADD SWAP1 PUSH4 0xFFFFFFFF TIMESTAMP AND DUP3 MSTORE PUSH1 0x40 DUP2 ADD SWAP4 DUP5 MSTORE PUSH1 0x60 DUP2 ADD SWAP4 DUP6 DUP6 MSTORE PUSH1 0x80 DUP3 ADD SWAP4 PUSH1 0x0 DUP6 MSTORE DUP1 SLOAD PUSH1 0x1 PUSH1 0x40 SHL DUP2 LT ISZERO PUSH2 0x5BC JUMPI PUSH2 0xA5C SWAP2 DUP9 DUP3 ADD DUP2 SSTORE PUSH2 0x4847 JUMP JUMPDEST SWAP2 SWAP1 SWAP2 PUSH2 0x5A6 JUMPI SWAP2 MLOAD DUP2 SLOAD SWAP4 MLOAD PUSH5 0xFFFFFFFFFF NOT SWAP1 SWAP5 AND PUSH1 0xFF SWAP2 DUP3 AND OR PUSH1 0x8 SWAP5 DUP6 SHL PUSH5 0xFFFFFFFF00 AND OR DUP3 SSTORE SWAP2 MLOAD DUP7 DUP3 ADD SSTORE SWAP4 MLOAD PUSH1 0x2 SWAP5 SWAP1 SWAP5 ADD DUP1 SLOAD SWAP4 MLOAD PUSH1 0x1 PUSH1 0x1 PUSH1 0xA8 SHL SUB NOT SWAP1 SWAP5 AND SWAP5 SWAP1 SWAP2 AND SWAP4 SWAP1 SWAP4 OR SWAP2 SWAP1 SHL PUSH2 0x100 PUSH1 0x1 PUSH1 0xA8 SHL SUB AND OR SWAP1 SSTORE PUSH1 0x0 DUP1 MLOAD PUSH1 0x20 PUSH2 0x5FB7 DUP4 CODECOPY DUP2 MLOAD SWAP2 MSTORE SSTORE DUP1 RETURN JUMPDEST PUSH2 0xADA SWAP1 PUSH2 0x467C JUMP JUMPDEST PUSH2 0xAE5 JUMPI DUP4 CODESIZE PUSH2 0x9CA JUMP JUMPDEST DUP4 DUP1 REVERT JUMPDEST PUSH1 0x40 MLOAD RETURNDATASIZE DUP5 DUP3 RETURNDATACOPY RETURNDATASIZE SWAP1 REVERT JUMPDEST POP DUP1 REVERT JUMPDEST PUSH1 0x40 MLOAD PUSH4 0x12171D83 PUSH1 0xE3 SHL DUP2 MSTORE PUSH1 0x4 SWAP1 REVERT JUMPDEST SWAP1 POP DUP3 DUP2 DUP2 RETURNDATASIZE DUP4 GT PUSH2 0xB3C JUMPI JUMPDEST PUSH2 0xB21 DUP2 DUP4 PUSH2 0x468F JUMP JUMPDEST DUP2 ADD SUB SLT PUSH2 0xB38 JUMPI PUSH2 0xB32 SWAP1 PUSH2 0x47E0 JUMP JUMPDEST CODESIZE PUSH2 0x971 JUMP JUMPDEST DUP6 DUP1 REVERT JUMPDEST POP RETURNDATASIZE PUSH2 0xB17 JUMP JUMPDEST PUSH1 0x40 MLOAD RETURNDATASIZE DUP9 DUP3 RETURNDATACOPY RETURNDATASIZE SWAP1 REVERT JUMPDEST PUSH1 0x40 MLOAD PUSH4 0x856D687 PUSH1 0xE1 SHL DUP2 MSTORE PUSH1 0x4 SWAP1 REVERT JUMPDEST SWAP1 SWAP4 POP DUP3 DUP2 DUP2 RETURNDATASIZE DUP4 GT PUSH2 0xB8E JUMPI JUMPDEST PUSH2 0xB78 DUP2 DUP4 PUSH2 0x468F JUMP JUMPDEST DUP2 ADD SUB SLT PUSH2 0xB89 JUMPI MLOAD SWAP3 PUSH1 0xF PUSH2 0x8FD JUMP JUMPDEST PUSH1 0x0 DUP1 REVERT JUMPDEST POP RETURNDATASIZE PUSH2 0xB6E JUMP JUMPDEST PUSH1 0x40 MLOAD PUSH4 0x632100F7 PUSH1 0xE1 SHL DUP2 MSTORE PUSH1 0x4 SWAP1 REVERT JUMPDEST POP CALLVALUE PUSH2 0x31C JUMPI PUSH1 0x20 CALLDATASIZE PUSH1 0x3 NOT ADD SLT PUSH2 0x31C JUMPI PUSH2 0xBC1 PUSH2 0x44AF JUMP JUMPDEST PUSH2 0xBC9 PUSH2 0x4758 JUMP JUMPDEST PUSH1 0x1 PUSH1 0x1 PUSH1 0xA0 SHL SUB AND DUP1 ISZERO PUSH2 0x731 JUMPI PUSH1 0x2 DUP1 SLOAD PUSH1 0x1 PUSH1 0x1 PUSH1 0xA0 SHL SUB NOT AND DUP3 OR SWAP1 SSTORE PUSH32 0x49424F87D81E4374EE3E8D1CF7B880966981A3CF6A7AC1D7A66C13D91756FCCC DUP3 DUP1 LOG2 DUP1 RETURN JUMPDEST POP CALLVALUE PUSH2 0x31C JUMPI DUP1 PUSH1 0x3 NOT CALLDATASIZE ADD SLT PUSH2 0x31C JUMPI PUSH1 0x20 PUSH1 0x40 MLOAD PUSH4 0x18B8200 DUP2 MSTORE RETURN JUMPDEST POP CALLVALUE PUSH2 0x31C JUMPI PUSH1 0x60 CALLDATASIZE PUSH1 0x3 NOT ADD SLT PUSH2 0x31C JUMPI PUSH2 0xC4A PUSH2 0x44AF JUMP JUMPDEST SWAP1 PUSH2 0xC53 PUSH2 0x44C5 JUMP JUMPDEST PUSH2 0xC5B PUSH2 0x45E7 JUMP JUMPDEST SWAP3 PUSH2 0xC64 PUSH2 0x4817 JUMP JUMPDEST PUSH1 0x1 PUSH1 0x1 PUSH1 0xA0 SHL SUB SWAP4 DUP2 DUP6 AND SWAP2 DUP3 ISZERO PUSH2 0xEC5 JUMPI CALLER DUP4 EQ PUSH2 0xE85 JUMPI CALLER DUP6 MSTORE PUSH1 0x3 SWAP2 PUSH1 0x20 SWAP5 DUP4 DUP7 MSTORE PUSH1 0xFF PUSH1 0x40 DUP9 KECCAK256 SLOAD AND ISZERO PUSH2 0x825 JUMPI CALLER DUP8 MSTORE DUP4 DUP7 MSTORE PUSH1 0xFF PUSH1 0x40 DUP9 KECCAK256 SLOAD PUSH1 0x8 SHR AND ISZERO PUSH2 0xE4C JUMPI DUP5 DUP8 MSTORE DUP4 DUP7 MSTORE PUSH1 0xFF PUSH1 0x40 DUP9 KECCAK256 SLOAD AND PUSH2 0xE3A JUMPI CALLER DUP8 MSTORE DUP4 DUP7 MSTORE PUSH9 0x70C1CC73B00C80000 PUSH1 0xC PUSH1 0x40 DUP10 KECCAK256 ADD SLOAD LT PUSH2 0x801 JUMPI DUP2 DUP9 DUP3 AND DUP1 ISZERO ISZERO SWAP1 DUP2 PUSH2 0xE23 JUMPI JUMPDEST POP ISZERO PUSH2 0xE18 JUMPI PUSH2 0xCF9 SWAP2 PUSH2 0x542A JUMP JUMPDEST SWAP8 SWAP1 SWAP4 CALLER DUP9 MSTORE DUP1 DUP8 MSTORE PUSH1 0xC PUSH1 0x40 DUP10 KECCAK256 ADD SWAP9 DUP10 SLOAD PUSH9 0x70C1CC73B00C7FFFF NOT DUP2 ADD SWAP1 DUP2 GT PUSH2 0xE04 JUMPI PUSH2 0xD9F SWAP7 SWAP8 SWAP9 SWAP10 SWAP11 SSTORE PUSH2 0xD35 DUP2 DUP9 CALLER DUP9 PUSH2 0x498C JUMP JUMPDEST ISZERO PUSH2 0xDE0 JUMPI DUP6 DUP3 AND DUP10 MSTORE DUP1 DUP9 MSTORE PUSH1 0x40 DUP10 KECCAK256 DUP2 ADD DUP1 SLOAD PUSH1 0x1 PUSH1 0x1 PUSH1 0xA0 SHL SUB NOT AND DUP9 OR SWAP1 SSTORE JUMPDEST CALLER DUP10 MSTORE DUP8 MSTORE PUSH1 0x1 PUSH1 0x40 DUP10 KECCAK256 ADD PUSH2 0xD6F DUP2 SLOAD PUSH2 0x4808 JUMP JUMPDEST SWAP1 SSTORE PUSH2 0xD7A DUP4 PUSH2 0x4A53 JUMP JUMPDEST PUSH1 0x40 MLOAD SWAP2 ISZERO ISZERO SWAP5 DUP6 DUP4 MSTORE AND SWAP1 DUP6 PUSH1 0x0 DUP1 MLOAD PUSH1 0x20 PUSH2 0x5F37 DUP4 CODECOPY DUP2 MLOAD SWAP2 MSTORE DUP9 CALLER SWAP4 LOG4 PUSH2 0x4B49 JUMP JUMPDEST PUSH1 0x40 MLOAD SWAP1 DUP2 MSTORE PUSH32 0xF3D8729E7995A6170800155589C309C92998449C63BAB10C98F61F9AA007DB7D CALLER SWAP4 CALLER SWAP3 LOG4 PUSH1 0x1 PUSH1 0x0 DUP1 MLOAD PUSH1 0x20 PUSH2 0x5FB7 DUP4 CODECOPY DUP2 MLOAD SWAP2 MSTORE SSTORE DUP1 RETURN JUMPDEST DUP6 DUP3 AND DUP10 MSTORE DUP1 DUP9 MSTORE PUSH1 0x40 DUP10 KECCAK256 PUSH1 0x4 ADD DUP1 SLOAD PUSH1 0x1 PUSH1 0x1 PUSH1 0xA0 SHL SUB NOT AND DUP9 OR SWAP1 SSTORE PUSH2 0xD59 JUMP JUMPDEST PUSH4 0x4E487B71 PUSH1 0xE0 SHL DUP11 MSTORE PUSH1 0x11 PUSH1 0x4 MSTORE PUSH1 0x24 DUP11 REVERT JUMPDEST PUSH2 0xCF9 SWAP2 POP CALLER PUSH2 0x542A JUMP JUMPDEST SWAP2 POP POP DUP8 MSTORE DUP4 DUP7 MSTORE DUP2 PUSH1 0xFF PUSH1 0x40 DUP10 KECCAK256 SLOAD AND CODESIZE PUSH2 0xCEA JUMP JUMPDEST PUSH1 0x40 MLOAD PUSH4 0xEA075BF PUSH1 0xE2 SHL DUP2 MSTORE PUSH1 0x4 SWAP1 REVERT JUMPDEST PUSH1 0x40 MLOAD PUSH3 0x461BCD PUSH1 0xE5 SHL DUP2 MSTORE PUSH1 0x4 DUP2 ADD DUP8 SWAP1 MSTORE PUSH1 0x11 PUSH1 0x24 DUP3 ADD MSTORE PUSH17 0x43616C6C6572206E6F7420616374697665 PUSH1 0x78 SHL PUSH1 0x44 DUP3 ADD MSTORE PUSH1 0x64 SWAP1 REVERT JUMPDEST PUSH1 0x40 MLOAD PUSH3 0x461BCD PUSH1 0xE5 SHL DUP2 MSTORE PUSH1 0x20 PUSH1 0x4 DUP3 ADD MSTORE PUSH1 0x18 PUSH1 0x24 DUP3 ADD MSTORE PUSH24 0x21B0B73737BA103932B3B4B9BA32B9103CB7BAB939B2B633 PUSH1 0x41 SHL PUSH1 0x44 DUP3 ADD MSTORE PUSH1 0x64 SWAP1 REVERT JUMPDEST PUSH1 0x40 MLOAD PUSH3 0x461BCD PUSH1 0xE5 SHL DUP2 MSTORE PUSH1 0x20 PUSH1 0x4 DUP3 ADD MSTORE PUSH1 0xF PUSH1 0x24 DUP3 ADD MSTORE PUSH15 0x496E76616C69642061646472657373 PUSH1 0x88 SHL PUSH1 0x44 DUP3 ADD MSTORE PUSH1 0x64 SWAP1 REVERT JUMPDEST POP CALLVALUE PUSH2 0x31C JUMPI PUSH2 0xF0B CALLDATASIZE PUSH2 0x454F JUMP JUMPDEST SWAP1 PUSH1 0x60 PUSH1 0x1 DUP1 PUSH1 0xA0 SHL SUB SWAP3 PUSH1 0x44 DUP5 PUSH1 0x2 SLOAD AND SWAP4 PUSH1 0x40 MLOAD SWAP5 DUP6 SWAP4 DUP5 SWAP3 PUSH4 0x6A548143 PUSH1 0xE1 SHL DUP5 MSTORE PUSH1 0x4 DUP5 ADD MSTORE PUSH1 0x24 DUP4 ADD MSTORE GAS STATICCALL SWAP1 DUP2 ISZERO PUSH2 0xFC3 JUMPI DUP4 SWAP3 DUP5 SWAP2 DUP6 SWAP4 PUSH2 0xF68 JUMPI JUMPDEST POP PUSH1 0x60 SWAP5 POP PUSH1 0x40 MLOAD SWAP4 AND DUP4 MSTORE PUSH1 0x20 DUP4 ADD MSTORE ISZERO ISZERO PUSH1 0x40 DUP3 ADD MSTORE RETURN JUMPDEST SWAP4 POP SWAP2 POP POP PUSH1 0x60 DUP3 RETURNDATASIZE DUP3 GT PUSH2 0xFBB JUMPI JUMPDEST DUP2 PUSH2 0xF85 PUSH1 0x60 SWAP4 DUP4 PUSH2 0x468F JUMP JUMPDEST DUP2 ADD SUB SLT PUSH2 0xFB7 JUMPI DUP2 MLOAD DUP2 DUP2 AND DUP2 SUB PUSH2 0xAE5 JUMPI PUSH1 0x60 SWAP4 POP PUSH2 0xFAD PUSH1 0x40 PUSH1 0x20 DUP6 ADD MLOAD SWAP5 ADD PUSH2 0x47E0 JUMP JUMPDEST SWAP1 SWAP3 SWAP1 SWAP2 CODESIZE PUSH2 0xF4E JUMP JUMPDEST DUP3 DUP1 REVERT JUMPDEST RETURNDATASIZE SWAP2 POP PUSH2 0xF78 JUMP JUMPDEST PUSH1 0x40 MLOAD RETURNDATASIZE DUP6 DUP3 RETURNDATACOPY RETURNDATASIZE SWAP1 REVERT JUMPDEST POP CALLVALUE PUSH2 0x31C JUMPI PUSH1 0x20 DUP1 PUSH1 0x3 NOT CALLDATASIZE ADD SLT PUSH2 0xAF4 JUMPI PUSH1 0x4 CALLDATALOAD SWAP1 PUSH2 0xFED PUSH2 0x4817 JUMP JUMPDEST DUP2 ISZERO PUSH2 0x1143 JUMPI CALLER DUP4 MSTORE PUSH1 0x3 DUP2 MSTORE PUSH1 0xC PUSH1 0x40 DUP5 KECCAK256 ADD DUP1 SLOAD DUP4 DUP2 LT PUSH2 0x801 JUMPI DUP4 PUSH2 0x1014 SWAP2 PUSH2 0x47BD JUMP JUMPDEST SWAP1 SSTORE PUSH1 0x40 MLOAD PUSH4 0xA9059CBB PUSH1 0xE0 SHL DUP2 MSTORE DUP2 DUP2 DUP1 PUSH2 0x1034 DUP7 CALLER PUSH1 0x4 DUP5 ADD PUSH2 0x47ED JUMP JUMPDEST SUB DUP2 DUP8 PUSH32 0x0 PUSH1 0x1 PUSH1 0x1 PUSH1 0xA0 SHL SUB AND GAS CALL SWAP1 DUP2 ISZERO PUSH2 0x1138 JUMPI DUP5 SWAP2 PUSH2 0x1103 JUMPI JUMPDEST POP ISZERO PUSH2 0xAF8 JUMPI PUSH1 0x40 MLOAD DUP3 DUP2 MSTORE PUSH32 0xBDD3F02D2A57FB53C1156F98470B61CB60712D485C27C36A49B1263DABCDE201 DUP3 CALLER SWAP3 LOG2 CALLER PUSH1 0x0 MSTORE PUSH1 0xE DUP2 MSTORE PUSH1 0x40 PUSH1 0x0 KECCAK256 SWAP1 PUSH1 0x40 MLOAD SWAP1 PUSH2 0x10BD DUP3 PUSH2 0x4661 JUMP JUMPDEST PUSH1 0x7 DUP3 MSTORE DUP2 ADD SWAP1 PUSH4 0xFFFFFFFF TIMESTAMP AND DUP3 MSTORE PUSH1 0x40 DUP2 ADD SWAP4 DUP5 MSTORE PUSH1 0x60 DUP2 ADD SWAP4 PUSH1 0x0 DUP6 MSTORE PUSH1 0x80 DUP3 ADD SWAP4 PUSH1 0x0 DUP6 MSTORE DUP1 SLOAD PUSH1 0x1 PUSH1 0x40 SHL DUP2 LT ISZERO PUSH2 0x5BC JUMPI PUSH2 0x534 SWAP2 PUSH1 0x1 DUP3 ADD DUP2 SSTORE PUSH2 0x4847 JUMP JUMPDEST SWAP1 POP DUP2 DUP2 DUP2 RETURNDATASIZE DUP4 GT PUSH2 0x1131 JUMPI JUMPDEST PUSH2 0x111A DUP2 DUP4 PUSH2 0x468F JUMP JUMPDEST DUP2 ADD SUB SLT PUSH2 0xAE5 JUMPI PUSH2 0x112B SWAP1 PUSH2 0x47E0 JUMP JUMPDEST CODESIZE PUSH2 0x1071 JUMP JUMPDEST POP RETURNDATASIZE PUSH2 0x1110 JUMP JUMPDEST PUSH1 0x40 MLOAD RETURNDATASIZE DUP7 DUP3 RETURNDATACOPY RETURNDATASIZE SWAP1 REVERT JUMPDEST PUSH1 0x40 MLOAD PUSH4 0x1F2A2005 PUSH1 0xE0 SHL DUP2 MSTORE PUSH1 0x4 SWAP1 REVERT JUMPDEST POP CALLVALUE PUSH2 0x31C JUMPI PUSH1 0x40 CALLDATASIZE PUSH1 0x3 NOT ADD SLT PUSH2 0x31C JUMPI PUSH2 0x11A6 PUSH1 0xA0 SWAP2 PUSH1 0x40 PUSH2 0x1177 PUSH2 0x44AF JUMP JUMPDEST SWAP2 PUSH1 0x24 CALLDATALOAD SWAP3 PUSH1 0x1 DUP1 DUP8 SHL SUB AND DUP1 DUP3 MSTORE PUSH1 0xD PUSH1 0x20 MSTORE PUSH2 0x1199 DUP4 DUP4 KECCAK256 SLOAD DUP6 LT PUSH2 0x5B32 JUMP JUMPDEST DUP2 MSTORE PUSH1 0xD PUSH1 0x20 MSTORE KECCAK256 PUSH2 0x5B16 JUMP JUMPDEST POP DUP1 SLOAD SWAP1 PUSH1 0x1 DUP2 ADD SLOAD SWAP1 PUSH1 0x2 DUP2 ADD SLOAD PUSH1 0xFF PUSH1 0x4 PUSH1 0x3 DUP5 ADD SLOAD SWAP4 ADD SLOAD AND SWAP3 PUSH1 0x40 MLOAD SWAP5 DUP6 MSTORE PUSH1 0x20 DUP6 ADD MSTORE PUSH1 0x40 DUP5 ADD MSTORE PUSH1 0x60 DUP4 ADD MSTORE ISZERO ISZERO PUSH1 0x80 DUP3 ADD MSTORE RETURN JUMPDEST POP CALLVALUE PUSH2 0x31C JUMPI PUSH1 0x20 CALLDATASIZE PUSH1 0x3 NOT ADD SLT PUSH2 0x31C JUMPI PUSH1 0x20 SWAP1 PUSH1 0x40 SWAP1 PUSH1 0x1 PUSH1 0x1 PUSH1 0xA0 SHL SUB PUSH2 0x1209 PUSH2 0x44AF JUMP JUMPDEST AND DUP2 MSTORE PUSH1 0xD DUP4 MSTORE KECCAK256 SLOAD PUSH1 0x40 MLOAD SWAP1 DUP2 MSTORE RETURN JUMPDEST POP CALLVALUE PUSH2 0x31C JUMPI DUP1 PUSH1 0x3 NOT CALLDATASIZE ADD SLT PUSH2 0x31C JUMPI PUSH1 0x1 SLOAD PUSH1 0x40 MLOAD PUSH4 0x70A08231 PUSH1 0xE0 SHL DUP2 MSTORE ADDRESS PUSH1 0x4 DUP3 ADD MSTORE SWAP2 SWAP1 PUSH1 0x20 SWAP1 DUP4 SWAP1 PUSH1 0x24 SWAP1 DUP3 SWAP1 PUSH1 0x1 PUSH1 0x1 PUSH1 0xA0 SHL SUB AND GAS STATICCALL SWAP1 DUP2 ISZERO PUSH2 0x12A2 JUMPI SWAP1 PUSH2 0x1270 JUMPI JUMPDEST PUSH1 0x20 SWAP1 PUSH1 0x40 MLOAD SWAP1 DUP2 MSTORE RETURN JUMPDEST POP PUSH1 0x20 DUP2 RETURNDATASIZE DUP3 GT PUSH2 0x129A JUMPI JUMPDEST DUP2 PUSH2 0x1289 PUSH1 0x20 SWAP4 DUP4 PUSH2 0x468F JUMP JUMPDEST DUP2 ADD SUB SLT PUSH2 0xB89 JUMPI PUSH1 0x20 SWAP1 MLOAD PUSH2 0x1265 JUMP JUMPDEST RETURNDATASIZE SWAP2 POP PUSH2 0x127C JUMP JUMPDEST PUSH1 0x40 MLOAD SWAP1 RETURNDATASIZE SWAP1 DUP3 RETURNDATACOPY RETURNDATASIZE SWAP1 REVERT JUMPDEST POP CALLVALUE PUSH2 0x31C JUMPI DUP1 PUSH1 0x3 NOT CALLDATASIZE ADD SLT PUSH2 0x31C JUMPI PUSH1 0x2 SLOAD PUSH1 0x40 MLOAD PUSH1 0x1 PUSH1 0x1 PUSH1 0xA0 SHL SUB SWAP1 SWAP2 AND DUP2 MSTORE PUSH1 0x20 SWAP1 RETURN JUMPDEST POP CALLVALUE PUSH2 0x31C JUMPI DUP1 PUSH1 0x3 NOT CALLDATASIZE ADD SLT PUSH2 0x31C JUMPI PUSH1 0x20 PUSH1 0x5 SLOAD PUSH1 0x40 MLOAD SWAP1 DUP2 MSTORE RETURN JUMPDEST PUSH2 0x4565 JUMP JUMPDEST POP CALLVALUE PUSH2 0x31C JUMPI DUP1 PUSH1 0x3 NOT CALLDATASIZE ADD SLT PUSH2 0x31C JUMPI PUSH1 0x20 PUSH1 0x8 SLOAD PUSH1 0x40 MLOAD SWAP1 DUP2 MSTORE RETURN JUMPDEST POP CALLVALUE PUSH2 0x31C JUMPI PUSH1 0x20 DUP1 PUSH1 0x3 NOT CALLDATASIZE ADD SLT PUSH2 0xAF4 JUMPI PUSH1 0x4 CALLDATALOAD SWAP1 PUSH2 0x1337 PUSH2 0x4817 JUMP JUMPDEST DUP2 ISZERO PUSH2 0x1143 JUMPI CALLER DUP4 MSTORE PUSH1 0x3 DUP2 MSTORE PUSH1 0xF PUSH1 0x40 DUP5 KECCAK256 ADD DUP1 SLOAD DUP4 DUP2 LT PUSH2 0x1482 JUMPI DUP4 PUSH2 0x135E SWAP2 PUSH2 0x47BD JUMP JUMPDEST SWAP1 SSTORE PUSH1 0x40 MLOAD PUSH4 0xA9059CBB PUSH1 0xE0 SHL DUP2 MSTORE DUP2 DUP2 DUP1 PUSH2 0x137E DUP7 CALLER PUSH1 0x4 DUP5 ADD PUSH2 0x47ED JUMP JUMPDEST SUB DUP2 DUP8 PUSH32 0x0 PUSH1 0x1 PUSH1 0x1 PUSH1 0xA0 SHL SUB AND GAS CALL SWAP1 DUP2 ISZERO PUSH2 0x1138 JUMPI DUP5 SWAP2 PUSH2 0x144D JUMPI JUMPDEST POP ISZERO PUSH2 0xAF8 JUMPI PUSH1 0x40 MLOAD DUP3 DUP2 MSTORE PUSH32 0x12701E4764B73009AB9826933C421483E4280410091FCC760515E0FA99FA766B DUP3 CALLER SWAP3 LOG2 CALLER PUSH1 0x0 MSTORE PUSH1 0xE DUP2 MSTORE PUSH1 0x40 PUSH1 0x0 KECCAK256 SWAP1 PUSH1 0x40 MLOAD SWAP1 PUSH2 0x1407 DUP3 PUSH2 0x4661 JUMP JUMPDEST PUSH1 0x8 DUP3 MSTORE DUP2 ADD SWAP1 PUSH4 0xFFFFFFFF TIMESTAMP AND DUP3 MSTORE PUSH1 0x40 DUP2 ADD SWAP4 DUP5 MSTORE PUSH1 0x60 DUP2 ADD SWAP4 PUSH1 0x0 DUP6 MSTORE PUSH1 0x80 DUP3 ADD SWAP4 PUSH1 0x0 DUP6 MSTORE DUP1 SLOAD PUSH1 0x1 PUSH1 0x40 SHL DUP2 LT ISZERO PUSH2 0x5BC JUMPI PUSH2 0x534 SWAP2 PUSH1 0x1 DUP3 ADD DUP2 SSTORE PUSH2 0x4847 JUMP JUMPDEST SWAP1 POP DUP2 DUP2 DUP2 RETURNDATASIZE DUP4 GT PUSH2 0x147B JUMPI JUMPDEST PUSH2 0x1464 DUP2 DUP4 PUSH2 0x468F JUMP JUMPDEST DUP2 ADD SUB SLT PUSH2 0xAE5 JUMPI PUSH2 0x1475 SWAP1 PUSH2 0x47E0 JUMP JUMPDEST CODESIZE PUSH2 0x13BB JUMP JUMPDEST POP RETURNDATASIZE PUSH2 0x145A JUMP JUMPDEST PUSH1 0x40 MLOAD PUSH4 0x6DAE8617 PUSH1 0xE1 SHL DUP2 MSTORE PUSH1 0x4 SWAP1 REVERT JUMPDEST POP CALLVALUE PUSH2 0x31C JUMPI PUSH1 0x40 CALLDATASIZE PUSH1 0x3 NOT ADD SLT PUSH2 0x31C JUMPI PUSH2 0x14AE PUSH2 0x45D8 JUMP JUMPDEST PUSH2 0x14B6 PUSH2 0x4817 JUMP JUMPDEST PUSH9 0x2B5E3AF16B1880000 PUSH1 0x4 CALLDATALOAD LT PUSH2 0x1C78 JUMPI CALLER DUP3 MSTORE PUSH1 0x3 PUSH1 0x20 MSTORE PUSH2 0x14E0 PUSH1 0xFF PUSH1 0x40 DUP5 KECCAK256 SLOAD AND PUSH2 0x5AB6 JUMP JUMPDEST CALLER DUP3 MSTORE PUSH1 0x3 PUSH1 0x20 MSTORE PUSH1 0xFF PUSH1 0x40 DUP4 KECCAK256 SLOAD PUSH1 0x8 SHR AND ISZERO PUSH2 0x1C43 JUMPI PUSH1 0x40 MLOAD PUSH4 0x23B872DD PUSH1 0xE0 SHL DUP2 MSTORE CALLER PUSH1 0x4 DUP1 DUP4 ADD SWAP2 SWAP1 SWAP2 MSTORE ADDRESS PUSH1 0x24 DUP4 ADD MSTORE CALLDATALOAD PUSH1 0x44 DUP3 ADD MSTORE PUSH1 0x20 DUP2 PUSH1 0x64 DUP2 DUP7 PUSH32 0x0 PUSH1 0x1 PUSH1 0x1 PUSH1 0xA0 SHL SUB AND GAS CALL SWAP1 DUP2 ISZERO PUSH2 0xFC3 JUMPI DUP4 SWAP2 PUSH2 0x1C09 JUMPI JUMPDEST POP ISZERO PUSH2 0x1BCD JUMPI PUSH1 0x1 SLOAD PUSH1 0x40 MLOAD PUSH4 0x95EA7B3 PUSH1 0xE0 SHL DUP2 MSTORE SWAP1 PUSH1 0x20 SWAP1 DUP3 SWAP1 DUP2 SWAP1 PUSH2 0x1594 SWAP1 PUSH1 0x4 DUP1 CALLDATALOAD SWAP2 PUSH1 0x1 PUSH1 0x1 PUSH1 0xA0 SHL SUB AND SWAP1 DUP5 ADD PUSH2 0x47ED JUMP JUMPDEST SUB DUP2 DUP7 PUSH32 0x0 PUSH1 0x1 PUSH1 0x1 PUSH1 0xA0 SHL SUB AND GAS CALL DUP1 ISZERO PUSH2 0xFC3 JUMPI PUSH2 0x1B94 JUMPI JUMPDEST POP PUSH1 0x1 SLOAD PUSH1 0x40 MLOAD PUSH4 0x70A08231 PUSH1 0xE0 SHL DUP1 DUP3 MSTORE ADDRESS PUSH1 0x4 DUP4 ADD MSTORE SWAP2 DUP5 SWAP1 PUSH1 0x1 PUSH1 0x1 PUSH1 0xA0 SHL SUB AND PUSH1 0x20 DUP4 PUSH1 0x24 DUP2 DUP5 GAS STATICCALL SWAP3 DUP4 ISZERO PUSH2 0xAE9 JUMPI DUP3 SWAP4 PUSH2 0x1B5D JUMPI JUMPDEST POP DUP1 EXTCODESIZE ISZERO PUSH2 0xAF4 JUMPI DUP2 PUSH1 0x40 MLOAD DUP1 SWAP3 PUSH4 0x4E538D93 PUSH1 0xE1 SHL DUP3 MSTORE DUP2 DUP4 DUP2 PUSH2 0x1634 PUSH1 0x4 CALLDATALOAD ADDRESS PUSH1 0x4 DUP5 ADD PUSH2 0x47ED JUMP JUMPDEST SUB SWAP3 GAS CALL DUP1 ISZERO PUSH2 0xAE9 JUMPI PUSH2 0x1B49 JUMPI JUMPDEST POP POP PUSH1 0x1 SLOAD PUSH1 0x40 MLOAD SWAP3 DUP4 MSTORE ADDRESS PUSH1 0x4 DUP5 ADD MSTORE PUSH1 0x20 SWAP1 DUP4 SWAP1 PUSH1 0x24 SWAP1 DUP3 SWAP1 PUSH1 0x1 PUSH1 0x1 PUSH1 0xA0 SHL SUB AND GAS STATICCALL DUP1 ISZERO PUSH2 0x1138 JUMPI DUP5 SWAP1 PUSH2 0x1B15 JUMPI JUMPDEST PUSH2 0x1680 SWAP3 POP PUSH2 0x47BD JUMP JUMPDEST SWAP2 DUP3 ISZERO PUSH2 0x1AE0 JUMPI PUSH1 0x40 MLOAD PUSH2 0x1693 DUP2 PUSH2 0x4661 JUMP JUMPDEST PUSH1 0xA DUP2 MSTORE PUSH1 0x2 PUSH1 0x20 DUP3 ADD MSTORE PUSH1 0x1 PUSH1 0x40 DUP3 ADD MSTORE PUSH1 0x1 PUSH1 0x60 DUP3 ADD MSTORE PUSH1 0x1 PUSH1 0x80 DUP3 ADD MSTORE CALLER DUP3 MSTORE PUSH1 0x3 PUSH1 0x20 MSTORE PUSH1 0x40 DUP3 KECCAK256 SLOAD PUSH1 0x1 DUP1 PUSH1 0xA0 SHL SUB SWAP1 PUSH1 0x10 SHR AND SWAP4 DUP3 SWAP1 DUP4 SWAP3 DUP5 SWAP4 JUMPDEST PUSH1 0x5 PUSH1 0xFF DUP7 AND LT ISZERO PUSH2 0x1859 JUMPI PUSH1 0x5A PUSH2 0x16FB PUSH1 0xFF PUSH2 0x16F3 DUP2 DUP10 AND DUP7 PUSH2 0x5AF3 JUMP JUMPDEST MLOAD AND DUP6 PUSH2 0x4AF2 JUMP JUMPDEST DIV SWAP1 DUP2 ISZERO PUSH2 0x1819 JUMPI PUSH1 0x1 PUSH1 0x1 PUSH1 0xA0 SHL SUB DUP10 AND ISZERO DUP1 ISZERO PUSH2 0x17F6 JUMPI JUMPDEST ISZERO PUSH2 0x1752 JUMPI SWAP1 PUSH2 0x1724 SWAP2 PUSH2 0x497F JUMP JUMPDEST SWAP7 JUMPDEST PUSH1 0x1 PUSH1 0x1 PUSH1 0xA0 SHL SUB SWAP1 DUP2 AND DUP7 MSTORE PUSH1 0x3 PUSH1 0x20 MSTORE PUSH1 0x40 DUP7 KECCAK256 SLOAD PUSH1 0x10 SHR AND SWAP4 PUSH2 0x174B SWAP1 PUSH2 0x526A JUMP JUMPDEST SWAP4 SWAP7 PUSH2 0x16D4 JUMP JUMPDEST SWAP8 SWAP1 SWAP4 DUP5 PUSH2 0x17AA SWAP2 PUSH1 0x1 DUP1 PUSH1 0xA0 SHL SUB DUP5 AND DUP10 MSTORE PUSH1 0x3 PUSH1 0x20 MSTORE PUSH1 0x8 PUSH1 0x40 DUP11 KECCAK256 ADD PUSH2 0x177C DUP4 DUP3 SLOAD PUSH2 0x497F JUMP JUMPDEST SWAP1 SSTORE PUSH1 0x1 PUSH1 0x1 PUSH1 0xA0 SHL SUB DUP5 AND DUP10 MSTORE PUSH1 0x3 PUSH1 0x20 MSTORE PUSH1 0x40 DUP10 KECCAK256 PUSH1 0x9 ADD DUP1 SLOAD PUSH2 0x17A3 SWAP1 DUP5 SWAP1 PUSH2 0x497F JUMP JUMPDEST SWAP1 SSTORE PUSH2 0x497F JUMP JUMPDEST SWAP4 PUSH2 0x17B4 DUP7 PUSH2 0x5B04 JUMP JUMPDEST PUSH32 0xC8C0CC32A736135FA3C2A3C467849CD282797396BC67D2D5326F7E161E601C1D PUSH1 0x40 MLOAD DUP1 PUSH2 0x17EE CALLER SWAP6 PUSH1 0x1 DUP1 PUSH1 0xA0 SHL SUB DUP9 AND SWAP6 DUP4 PUSH2 0x527B JUMP JUMPDEST SUB SWAP1 LOG3 PUSH2 0x1726 JUMP JUMPDEST POP PUSH1 0x1 PUSH1 0x1 PUSH1 0xA0 SHL SUB DUP10 AND DUP8 MSTORE PUSH1 0x3 PUSH1 0x20 MSTORE PUSH1 0x40 DUP8 KECCAK256 SLOAD PUSH1 0x8 SHR PUSH1 0xFF AND ISZERO PUSH2 0x1715 JUMP JUMPDEST SWAP8 SWAP5 SWAP1 POP PUSH1 0x1 PUSH1 0x1 PUSH1 0xA0 SHL SUB DUP6 AND DUP1 PUSH2 0x1837 JUMPI JUMPDEST POP PUSH2 0x174B SWAP1 PUSH2 0x526A JUMP JUMPDEST DUP7 MSTORE PUSH1 0x3 PUSH1 0x20 MSTORE PUSH1 0x40 DUP7 KECCAK256 SLOAD PUSH1 0x10 SHR PUSH1 0x1 PUSH1 0x1 PUSH1 0xA0 SHL SUB AND SWAP5 POP PUSH2 0x174B PUSH2 0x182D JUMP JUMPDEST SWAP1 POP DUP6 SWAP4 POP PUSH1 0x5 DUP3 MUL DUP3 DUP2 DIV PUSH1 0x5 SUB PUSH2 0x1ACC JUMPI SWAP2 PUSH2 0x189A PUSH2 0x18A0 SWAP3 PUSH1 0x5A PUSH2 0x18A5 SWAP7 SWAP6 DIV SWAP5 PUSH2 0x1892 PUSH2 0x188A DUP4 DUP9 PUSH2 0x497F JUMP JUMPDEST PUSH1 0x8 SLOAD PUSH2 0x497F JUMP JUMPDEST PUSH1 0x8 SSTORE PUSH2 0x497F JUMP JUMPDEST SWAP1 PUSH2 0x47BD JUMP JUMPDEST PUSH2 0x47BD JUMP JUMPDEST DUP1 ISZERO PUSH2 0x1A92 JUMPI CALLER DUP4 MSTORE PUSH1 0xD PUSH1 0x20 MSTORE PUSH1 0x40 DUP4 KECCAK256 SWAP2 DUP3 SLOAD SWAP2 DUP2 PUSH1 0x0 EQ PUSH2 0x1A8B JUMPI TIMESTAMP SWAP4 JUMPDEST PUSH1 0x40 MLOAD SWAP5 PUSH2 0x18D3 DUP7 PUSH2 0x4661 JUMP JUMPDEST DUP3 DUP7 MSTORE PUSH1 0x4 CALLDATALOAD PUSH1 0x20 DUP8 ADD MSTORE TIMESTAMP PUSH1 0x40 DUP8 ADD MSTORE PUSH1 0x60 DUP7 ADD MSTORE PUSH1 0x1 PUSH1 0x80 DUP7 ADD MSTORE PUSH1 0x1 PUSH1 0x40 SHL DUP5 LT ISZERO PUSH2 0x1A77 JUMPI DUP4 PUSH2 0x190C SWAP2 PUSH1 0x1 DUP3 ADD DUP2 SSTORE PUSH2 0x5B16 JUMP JUMPDEST PUSH2 0x1A63 JUMPI PUSH1 0x4 PUSH1 0x80 SWAP2 DUP7 MLOAD DUP2 SSTORE PUSH1 0x20 DUP8 ADD MLOAD PUSH1 0x1 DUP3 ADD SSTORE PUSH1 0x40 DUP8 ADD MLOAD PUSH1 0x2 DUP3 ADD SSTORE PUSH1 0x60 DUP8 ADD MLOAD PUSH1 0x3 DUP3 ADD SSTORE ADD SWAP5 ADD MLOAD ISZERO ISZERO SWAP4 PUSH1 0xFF NOT SWAP5 PUSH1 0xFF DUP7 DUP4 SLOAD AND SWAP2 AND OR SWAP1 SSTORE PUSH1 0x40 MLOAD SWAP3 DUP4 MSTORE PUSH1 0x4 CALLDATALOAD PUSH1 0x20 DUP5 ADD MSTORE PUSH1 0x40 DUP4 ADD MSTORE ISZERO ISZERO PUSH1 0x60 DUP3 ADD MSTORE PUSH32 0x830141583677D950FE61A27B93001EDFF66B597C666B2C90F5FB6E79A4BEFD0E PUSH1 0x80 CALLER SWAP3 LOG2 CALLER PUSH1 0x0 MSTORE PUSH1 0xE PUSH1 0x20 MSTORE PUSH1 0x40 PUSH1 0x0 KECCAK256 PUSH1 0x40 MLOAD PUSH2 0x19A7 DUP2 PUSH2 0x4661 JUMP JUMPDEST PUSH1 0xC DUP2 MSTORE PUSH1 0x20 DUP2 ADD SWAP1 PUSH4 0xFFFFFFFF TIMESTAMP AND DUP3 MSTORE PUSH1 0x40 DUP2 ADD SWAP4 PUSH1 0x4 CALLDATALOAD DUP6 MSTORE PUSH1 0x60 DUP3 ADD SWAP5 PUSH1 0x0 DUP7 MSTORE PUSH1 0x80 DUP4 ADD SWAP5 PUSH1 0x0 DUP7 MSTORE DUP1 SLOAD PUSH1 0x1 PUSH1 0x40 SHL DUP2 LT ISZERO PUSH2 0x5BC JUMPI PUSH2 0x19F2 SWAP2 PUSH1 0x1 DUP3 ADD DUP2 SSTORE PUSH2 0x4847 JUMP JUMPDEST SWAP3 SWAP1 SWAP3 PUSH2 0x5A6 JUMPI PUSH1 0xFF SWAP5 PUSH5 0xFFFFFFFF00 DUP7 PUSH1 0x2 SWAP7 MLOAD AND SWAP2 DUP3 DUP7 SLOAD SWAP5 DUP6 AND OR DUP7 SSTORE MLOAD PUSH1 0x8 SHL AND SWAP2 PUSH5 0xFFFFFFFFFF NOT AND OR OR DUP3 SSTORE MLOAD PUSH1 0x1 DUP3 ADD SSTORE ADD SWAP3 MLOAD AND DUP3 SLOAD SWAP2 PUSH2 0x100 PUSH1 0x1 PUSH1 0xA8 SHL SUB SWAP1 MLOAD PUSH1 0x8 SHL AND SWAP2 PUSH1 0x1 DUP1 PUSH1 0xA8 SHL SUB NOT AND OR OR SWAP1 SSTORE PUSH1 0x1 PUSH1 0x0 DUP1 MLOAD PUSH1 0x20 PUSH2 0x5FB7 DUP4 CODECOPY DUP2 MLOAD SWAP2 MSTORE SSTORE DUP1 RETURN JUMPDEST PUSH4 0x4E487B71 PUSH1 0xE0 SHL DUP7 MSTORE PUSH1 0x4 DUP7 SWAP1 MSTORE PUSH1 0x24 DUP7 REVERT JUMPDEST PUSH4 0x4E487B71 PUSH1 0xE0 SHL DUP7 MSTORE PUSH1 0x41 PUSH1 0x4 MSTORE PUSH1 0x24 DUP7 REVERT JUMPDEST DUP5 SWAP4 PUSH2 0x18C6 JUMP JUMPDEST PUSH1 0x40 MLOAD PUSH3 0x461BCD PUSH1 0xE5 SHL DUP2 MSTORE PUSH1 0x20 PUSH1 0x4 DUP3 ADD MSTORE PUSH1 0x12 PUSH1 0x24 DUP3 ADD MSTORE PUSH18 0x4E6F20746F6B656E7320746F207374616B65 PUSH1 0x70 SHL PUSH1 0x44 DUP3 ADD MSTORE PUSH1 0x64 SWAP1 REVERT JUMPDEST PUSH4 0x4E487B71 PUSH1 0xE0 SHL DUP7 MSTORE PUSH1 0x11 PUSH1 0x4 MSTORE PUSH1 0x24 DUP7 REVERT JUMPDEST PUSH1 0x40 MLOAD PUSH3 0x461BCD PUSH1 0xE5 SHL DUP2 MSTORE PUSH1 0x20 PUSH1 0x4 DUP3 ADD MSTORE PUSH1 0xD PUSH1 0x24 DUP3 ADD MSTORE PUSH13 0x139BC8135595081B5A5B9D1959 PUSH1 0x9A SHL PUSH1 0x44 DUP3 ADD MSTORE PUSH1 0x64 SWAP1 REVERT JUMPDEST POP PUSH1 0x20 DUP3 RETURNDATASIZE PUSH1 0x20 GT PUSH2 0x1B41 JUMPI JUMPDEST DUP2 PUSH2 0x1B2F PUSH1 0x20 SWAP4 DUP4 PUSH2 0x468F JUMP JUMPDEST DUP2 ADD SUB SLT PUSH2 0xB89 JUMPI PUSH2 0x1680 SWAP2 MLOAD PUSH2 0x1676 JUMP JUMPDEST RETURNDATASIZE SWAP2 POP PUSH2 0x1B22 JUMP JUMPDEST PUSH2 0x1B52 SWAP1 PUSH2 0x467C JUMP JUMPDEST PUSH2 0xAE5 JUMPI DUP4 CODESIZE PUSH2 0x1643 JUMP JUMPDEST SWAP2 POP SWAP2 POP PUSH1 0x20 DUP2 RETURNDATASIZE PUSH1 0x20 GT PUSH2 0x1B8C JUMPI JUMPDEST DUP2 PUSH2 0x1B7A PUSH1 0x20 SWAP4 DUP4 PUSH2 0x468F JUMP JUMPDEST DUP2 ADD SUB SLT PUSH2 0xB89 JUMPI DUP5 SWAP1 MLOAD SWAP2 CODESIZE PUSH2 0x1609 JUMP JUMPDEST RETURNDATASIZE SWAP2 POP PUSH2 0x1B6D JUMP JUMPDEST PUSH1 0x20 DUP2 RETURNDATASIZE PUSH1 0x20 GT PUSH2 0x1BC5 JUMPI JUMPDEST DUP2 PUSH2 0x1BAD PUSH1 0x20 SWAP4 DUP4 PUSH2 0x468F JUMP JUMPDEST DUP2 ADD SUB SLT PUSH2 0xFB7 JUMPI PUSH2 0x1BBE SWAP1 PUSH2 0x47E0 JUMP JUMPDEST POP CODESIZE PUSH2 0x15CE JUMP JUMPDEST RETURNDATASIZE SWAP2 POP PUSH2 0x1BA0 JUMP JUMPDEST PUSH1 0x40 MLOAD PUSH3 0x461BCD PUSH1 0xE5 SHL DUP2 MSTORE PUSH1 0x20 PUSH1 0x4 DUP3 ADD MSTORE PUSH1 0x14 PUSH1 0x24 DUP3 ADD MSTORE PUSH20 0x1554D115081D1C985B9CD9995C8819985A5B1959 PUSH1 0x62 SHL PUSH1 0x44 DUP3 ADD MSTORE PUSH1 0x64 SWAP1 REVERT JUMPDEST SWAP1 POP PUSH1 0x20 DUP2 RETURNDATASIZE PUSH1 0x20 GT PUSH2 0x1C3B JUMPI JUMPDEST DUP2 PUSH2 0x1C24 PUSH1 0x20 SWAP4 DUP4 PUSH2 0x468F JUMP JUMPDEST DUP2 ADD SUB SLT PUSH2 0xFB7 JUMPI PUSH2 0x1C35 SWAP1 PUSH2 0x47E0 JUMP JUMPDEST CODESIZE PUSH2 0x155C JUMP JUMPDEST RETURNDATASIZE SWAP2 POP PUSH2 0x1C17 JUMP JUMPDEST PUSH1 0x40 MLOAD PUSH3 0x461BCD PUSH1 0xE5 SHL DUP2 MSTORE PUSH1 0x20 PUSH1 0x4 DUP3 ADD MSTORE PUSH1 0xD PUSH1 0x24 DUP3 ADD MSTORE PUSH13 0x139BDD081858DD1A5D985D1959 PUSH1 0x9A SHL PUSH1 0x44 DUP3 ADD MSTORE PUSH1 0x64 SWAP1 REVERT JUMPDEST PUSH1 0x40 MLOAD PUSH3 0x461BCD PUSH1 0xE5 SHL DUP2 MSTORE PUSH1 0x20 PUSH1 0x4 DUP3 ADD MSTORE PUSH1 0x11 PUSH1 0x24 DUP3 ADD MSTORE PUSH17 0x42656C6F7720243530206D696E696D756D PUSH1 0x78 SHL PUSH1 0x44 DUP3 ADD MSTORE PUSH1 0x64 SWAP1 REVERT JUMPDEST POP CALLVALUE PUSH2 0x31C JUMPI DUP1 PUSH1 0x3 NOT CALLDATASIZE ADD SLT PUSH2 0x31C JUMPI PUSH1 0x20 PUSH1 0x40 MLOAD PUSH9 0x15245655B102580000 DUP2 MSTORE RETURN JUMPDEST POP CALLVALUE PUSH2 0x31C JUMPI PUSH1 0x60 CALLDATASIZE PUSH1 0x3 NOT ADD SLT PUSH2 0x31C JUMPI PUSH2 0x1CEF PUSH2 0x44AF JUMP JUMPDEST PUSH2 0x1CF7 PUSH2 0x44C5 JUMP JUMPDEST PUSH2 0x1CFF PUSH2 0x45E7 JUMP JUMPDEST CALLER DUP5 MSTORE PUSH1 0x3 PUSH1 0x20 SWAP3 DUP2 DUP5 MSTORE PUSH1 0xFF PUSH1 0x40 DUP8 KECCAK256 SLOAD AND PUSH2 0xE3A JUMPI PUSH1 0x5 SLOAD PUSH2 0x1DDA JUMPI CALLER PUSH1 0x0 SWAP1 DUP2 MSTORE DUP3 DUP6 MSTORE PUSH1 0x40 SWAP1 KECCAK256 DUP1 SLOAD PUSH2 0xFF01 PUSH1 0x1 PUSH1 0xB0 SHL SUB NOT AND PUSH1 0x1 OR DUP2 SSTORE PUSH1 0x2 DUP2 ADD DUP1 SLOAD PUSH1 0x1 PUSH1 0x1 PUSH1 0xA8 SHL SUB NOT AND SWAP1 SSTORE PUSH1 0x12 DUP2 ADD DUP1 SLOAD PUSH1 0x1 PUSH1 0x1 PUSH1 0xA0 SHL SUB NOT AND SWAP1 SSTORE TIMESTAMP PUSH1 0x14 SWAP1 SWAP2 ADD SSTORE PUSH1 0x4 SLOAD SWAP2 PUSH1 0x1 PUSH1 0x40 SHL DUP4 LT ISZERO PUSH2 0x5BC JUMPI PUSH2 0x1D96 DUP4 PUSH1 0x1 PUSH1 0x0 DUP1 MLOAD PUSH1 0x20 PUSH2 0x5F37 DUP4 CODECOPY DUP2 MLOAD SWAP2 MSTORE SWAP6 ADD PUSH1 0x4 SSTORE PUSH2 0x45F6 JUMP JUMPDEST DUP2 SWAP3 SWAP2 SLOAD SWAP2 SHL SWAP1 CALLER DUP3 SHL SWAP2 PUSH1 0x1 DUP1 PUSH1 0xA0 SHL SUB SWAP1 SHL NOT AND OR SWAP1 SSTORE PUSH2 0x1DBA PUSH1 0x5 SLOAD PUSH2 0x4808 JUMP JUMPDEST PUSH1 0x5 SSTORE JUMPDEST PUSH1 0x40 MLOAD SWAP3 ISZERO ISZERO DUP4 MSTORE PUSH1 0x1 PUSH1 0x1 PUSH1 0xA0 SHL SUB SWAP1 DUP2 AND SWAP5 AND SWAP3 CALLER SWAP3 LOG4 DUP1 RETURN JUMPDEST PUSH1 0x1 PUSH1 0x1 PUSH1 0xA0 SHL SUB DUP6 DUP2 AND DUP1 DUP9 MSTORE DUP4 DUP7 MSTORE PUSH1 0x40 DUP9 KECCAK256 SLOAD SWAP2 SWAP4 SWAP2 PUSH1 0xFF AND ISZERO PUSH2 0x1EBB JUMPI DUP4 PUSH1 0x0 DUP1 MLOAD PUSH1 0x20 PUSH2 0x5F37 DUP4 CODECOPY DUP2 MLOAD SWAP2 MSTORE SWAP5 DUP5 AND DUP1 ISZERO ISZERO SWAP1 DUP2 PUSH2 0x1EA7 JUMPI JUMPDEST POP ISZERO PUSH2 0x1E9D JUMPI PUSH2 0x1E28 DUP7 DUP6 PUSH2 0x542A JUMP JUMPDEST PUSH2 0x1E34 DUP2 DUP4 DUP13 CALLER PUSH2 0x498C JUMP JUMPDEST ISZERO PUSH2 0x1E7B JUMPI AND DUP9 MSTORE DUP2 DUP7 MSTORE PUSH1 0x40 DUP9 KECCAK256 DUP3 ADD DUP1 SLOAD PUSH1 0x1 PUSH1 0x1 PUSH1 0xA0 SHL SUB NOT AND CALLER OR SWAP1 SSTORE JUMPDEST DUP8 MSTORE DUP5 MSTORE PUSH1 0x1 PUSH1 0x40 DUP8 KECCAK256 ADD PUSH2 0x1E6B DUP2 SLOAD PUSH2 0x4808 JUMP JUMPDEST SWAP1 SSTORE PUSH2 0x1E76 CALLER PUSH2 0x4A53 JUMP JUMPDEST PUSH2 0x1DBE JUMP JUMPDEST AND DUP9 MSTORE DUP2 DUP7 MSTORE PUSH1 0x40 DUP9 KECCAK256 PUSH1 0x4 ADD DUP1 SLOAD PUSH1 0x1 PUSH1 0x1 PUSH1 0xA0 SHL SUB NOT AND CALLER OR SWAP1 SSTORE PUSH2 0x1E56 JUMP JUMPDEST PUSH2 0x1E28 DUP7 DUP10 PUSH2 0x542A JUMP JUMPDEST DUP11 MSTORE POP DUP3 DUP8 MSTORE PUSH1 0x40 DUP10 KECCAK256 SLOAD PUSH1 0xFF AND CODESIZE PUSH2 0x1E18 JUMP JUMPDEST PUSH1 0x40 MLOAD PUSH4 0x2F212E0D PUSH1 0xE1 SHL DUP2 MSTORE PUSH1 0x4 SWAP1 REVERT JUMPDEST POP CALLVALUE PUSH2 0x31C JUMPI DUP1 PUSH1 0x3 NOT CALLDATASIZE ADD SLT PUSH2 0x31C JUMPI PUSH1 0x40 MLOAD PUSH32 0x0 PUSH1 0x1 PUSH1 0x1 PUSH1 0xA0 SHL SUB AND DUP2 MSTORE PUSH1 0x20 SWAP1 RETURN JUMPDEST POP CALLVALUE PUSH2 0x31C JUMPI PUSH1 0x20 CALLDATASIZE PUSH1 0x3 NOT ADD SLT PUSH2 0x31C JUMPI PUSH1 0x40 SWAP1 PUSH1 0x1 PUSH1 0x1 PUSH1 0xA0 SHL SUB PUSH2 0x1F37 PUSH2 0x44AF JUMP JUMPDEST AND DUP2 MSTORE PUSH1 0x3 PUSH1 0x20 MSTORE KECCAK256 DUP1 PUSH2 0x1E0 MSTORE DUP1 DUP1 DUP1 DUP1 DUP1 DUP1 DUP1 DUP1 DUP1 DUP1 DUP1 DUP1 PUSH2 0x1FFA PUSH1 0x15 PUSH1 0xF PUSH1 0xE PUSH1 0xD PUSH1 0xC PUSH1 0xB PUSH1 0xA PUSH1 0x9 PUSH1 0x8 PUSH1 0x7 PUSH1 0x6 PUSH1 0x5 DUP14 SLOAD SWAP14 PUSH1 0x1 DUP2 ADD SLOAD PUSH2 0x2A0 MSTORE PUSH1 0x2 DUP2 ADD SLOAD PUSH2 0x2E0 MSTORE PUSH1 0x1 DUP1 PUSH1 0xA0 SHL SUB PUSH1 0x3 DUP3 ADD SLOAD AND PUSH1 0xA0 MSTORE PUSH1 0x4 PUSH1 0x1 DUP1 PUSH1 0xA0 SHL SUB SWAP2 ADD SLOAD AND SWAP15 ADD SLOAD SWAP15 ADD SLOAD SWAP15 ADD SLOAD SWAP15 ADD SLOAD SWAP15 ADD SLOAD SWAP15 ADD SLOAD SWAP15 ADD SLOAD SWAP15 ADD SLOAD SWAP15 ADD SLOAD SWAP15 ADD SLOAD SWAP15 ADD SLOAD SWAP15 PUSH1 0x10 DUP2 ADD SLOAD PUSH2 0x240 MSTORE PUSH1 0x11 DUP2 ADD SLOAD PUSH1 0xE0 MSTORE PUSH1 0x1 DUP1 PUSH1 0xA0 SHL SUB PUSH1 0x12 DUP3 ADD SLOAD AND PUSH2 0x200 MSTORE PUSH1 0x13 DUP2 ADD SLOAD PUSH2 0x280 MSTORE PUSH1 0x14 DUP2 ADD SLOAD PUSH2 0x1C0 MSTORE ADD PUSH2 0x46B2 JUMP JUMPDEST PUSH2 0x220 MSTORE PUSH2 0x200D PUSH1 0x16 PUSH2 0x1E0 MLOAD ADD PUSH2 0x46B2 JUMP JUMPDEST PUSH2 0x120 MSTORE PUSH2 0x2020 PUSH1 0x17 PUSH2 0x1E0 MLOAD ADD PUSH2 0x46B2 JUMP JUMPDEST PUSH2 0x180 MSTORE PUSH2 0x2033 PUSH1 0x18 PUSH2 0x1E0 MLOAD ADD PUSH2 0x46B2 JUMP JUMPDEST PUSH2 0x260 MSTORE PUSH1 0xFF PUSH1 0x19 PUSH2 0x1E0 MLOAD ADD SLOAD AND PUSH1 0xC0 MSTORE PUSH1 0x40 MLOAD DUP1 PUSH2 0x160 MSTORE PUSH1 0xFF DUP3 AND ISZERO ISZERO SWAP1 MSTORE PUSH1 0xFF DUP2 PUSH1 0x8 SHR AND ISZERO ISZERO PUSH1 0x20 PUSH2 0x160 MLOAD ADD MSTORE PUSH1 0x1 DUP1 PUSH1 0xA0 SHL SUB SWAP1 PUSH1 0x10 SHR AND PUSH1 0x40 PUSH2 0x160 MLOAD ADD MSTORE PUSH2 0x2A0 MLOAD PUSH1 0x60 PUSH2 0x160 MLOAD ADD MSTORE PUSH1 0x1 DUP1 PUSH1 0xA0 SHL SUB PUSH2 0x2E0 MLOAD AND PUSH1 0x80 PUSH2 0x160 MLOAD ADD MSTORE PUSH1 0xFF PUSH2 0x2E0 MLOAD PUSH1 0xA0 SHR AND ISZERO ISZERO PUSH1 0xA0 PUSH2 0x160 MLOAD ADD MSTORE PUSH1 0xA0 MLOAD PUSH1 0xC0 PUSH2 0x160 MLOAD ADD MSTORE PUSH1 0xE0 PUSH2 0x160 MLOAD ADD MSTORE PUSH2 0x100 PUSH2 0x160 MLOAD ADD MSTORE PUSH2 0x120 PUSH2 0x160 MLOAD ADD MSTORE PUSH2 0x140 PUSH2 0x160 MLOAD ADD MSTORE PUSH2 0x160 DUP1 MLOAD ADD MSTORE PUSH2 0x180 PUSH2 0x160 MLOAD ADD MSTORE PUSH2 0x1A0 PUSH2 0x160 MLOAD ADD MSTORE PUSH2 0x1C0 PUSH2 0x160 MLOAD ADD MSTORE PUSH2 0x1E0 PUSH2 0x160 MLOAD ADD MSTORE PUSH2 0x200 PUSH2 0x160 MLOAD ADD MSTORE PUSH2 0x220 PUSH2 0x160 MLOAD ADD MSTORE PUSH2 0x240 PUSH2 0x160 MLOAD ADD MSTORE PUSH2 0x240 MLOAD PUSH2 0x260 PUSH2 0x160 MLOAD ADD MSTORE PUSH1 0xE0 MLOAD PUSH2 0x280 PUSH2 0x160 MLOAD ADD MSTORE PUSH2 0x200 MLOAD PUSH2 0x2A0 PUSH2 0x160 MLOAD ADD MSTORE PUSH2 0x280 MLOAD PUSH2 0x2C0 PUSH2 0x160 MLOAD ADD MSTORE PUSH2 0x1C0 MLOAD PUSH2 0x2E0 PUSH2 0x160 MLOAD ADD MSTORE PUSH2 0x21CB PUSH2 0x21B5 PUSH2 0x219F PUSH2 0x2189 PUSH2 0x3A0 DUP1 PUSH2 0x300 PUSH2 0x160 MLOAD ADD MSTORE PUSH2 0x160 MLOAD ADD PUSH2 0x220 MLOAD PUSH2 0x44DB JUMP JUMPDEST PUSH2 0x160 MLOAD PUSH2 0x320 DUP2 DUP4 SUB SWAP2 ADD MSTORE PUSH2 0x120 MLOAD PUSH2 0x44DB JUMP JUMPDEST PUSH2 0x160 MLOAD PUSH2 0x340 DUP2 DUP4 SUB SWAP2 ADD MSTORE PUSH2 0x180 MLOAD PUSH2 0x44DB JUMP JUMPDEST PUSH2 0x160 MLOAD PUSH2 0x360 DUP2 DUP4 SUB SWAP2 ADD MSTORE PUSH2 0x260 MLOAD PUSH2 0x44DB JUMP JUMPDEST PUSH1 0xC0 MLOAD ISZERO ISZERO PUSH2 0x380 PUSH2 0x160 MLOAD ADD MSTORE PUSH2 0x160 MLOAD DUP1 SWAP2 SUB SWAP1 RETURN JUMPDEST POP CALLVALUE PUSH2 0x31C JUMPI PUSH1 0x20 CALLDATASIZE PUSH1 0x3 NOT ADD SLT PUSH2 0x31C JUMPI PUSH1 0x4 CALLDATALOAD SWAP1 PUSH1 0x4 SLOAD DUP3 LT ISZERO PUSH2 0x31C JUMPI PUSH1 0x20 PUSH2 0x220E DUP4 PUSH2 0x45F6 JUMP JUMPDEST SWAP1 SLOAD PUSH1 0x40 MLOAD PUSH1 0x3 SWAP3 SWAP1 SWAP3 SHL SHR PUSH1 0x1 PUSH1 0x1 PUSH1 0xA0 SHL SUB AND DUP2 MSTORE RETURN JUMPDEST POP CALLVALUE PUSH2 0x31C JUMPI PUSH1 0x20 CALLDATASIZE PUSH1 0x3 NOT ADD SLT PUSH2 0x31C JUMPI PUSH1 0x60 PUSH2 0x224B PUSH2 0x2246 PUSH2 0x44AF JUMP JUMPDEST PUSH2 0x5CB4 JUMP JUMPDEST SWAP1 PUSH1 0x40 MLOAD SWAP3 ISZERO ISZERO DUP4 MSTORE PUSH1 0x20 DUP4 ADD MSTORE PUSH1 0x40 DUP3 ADD MSTORE RETURN JUMPDEST POP CALLVALUE PUSH2 0x31C JUMPI PUSH1 0x40 CALLDATASIZE PUSH1 0x3 NOT ADD SLT PUSH2 0x31C JUMPI PUSH2 0x227A PUSH2 0x44AF JUMP JUMPDEST PUSH2 0x2282 PUSH2 0x45D8 JUMP JUMPDEST PUSH2 0x228A PUSH2 0x4817 JUMP JUMPDEST PUSH1 0x1 PUSH1 0x1 PUSH1 0xA0 SHL SUB DUP3 AND ISZERO PUSH2 0x731 JUMPI CALLER DUP4 MSTORE PUSH1 0x3 PUSH1 0x20 MSTORE PUSH1 0x40 DUP4 KECCAK256 DUP1 SLOAD SWAP2 PUSH2 0x22B7 PUSH1 0xFF DUP5 PUSH1 0x8 SHR AND PUSH2 0x4784 JUMP JUMPDEST PUSH1 0xD DUP3 ADD DUP1 SLOAD SWAP1 PUSH9 0x70C1CC73B00C80000 DUP1 DUP4 LT PUSH2 0x25DE JUMPI PUSH1 0x1 PUSH1 0x1 PUSH1 0xA0 SHL SUB DUP8 AND DUP9 MSTORE PUSH1 0x3 PUSH1 0x20 MSTORE PUSH1 0x40 DUP9 KECCAK256 SLOAD PUSH1 0xFF AND PUSH2 0x2599 JUMPI PUSH9 0x70C1CC73B00C7FFFF NOT DUP4 ADD SWAP3 DUP4 GT PUSH2 0x2585 JUMPI PUSH2 0x2352 SWAP4 SWAP3 SWAP2 SWAP1 DUP1 DUP4 LT PUSH2 0x257A JUMPI PUSH2 0x2319 SWAP1 DUP1 SWAP4 PUSH2 0x47BD JUMP JUMPDEST SWAP1 SSTORE PUSH1 0xC DUP5 ADD PUSH2 0x232A DUP3 DUP3 SLOAD PUSH2 0x497F JUMP JUMPDEST SWAP1 SSTORE PUSH2 0x233B PUSH1 0xE DUP6 ADD SWAP2 DUP3 SLOAD PUSH2 0x497F JUMP JUMPDEST SWAP1 SSTORE PUSH9 0x15245655B102580000 PUSH1 0xB DUP5 ADD SSTORE CALLER PUSH2 0x542A JUMP JUMPDEST PUSH1 0x1 PUSH1 0x1 PUSH1 0xA0 SHL SUB DUP6 DUP2 AND PUSH1 0x0 SWAP1 DUP2 MSTORE PUSH1 0x3 PUSH1 0x20 MSTORE PUSH1 0x40 SWAP1 KECCAK256 DUP1 SLOAD PUSH2 0xFF01 PUSH1 0x1 PUSH1 0xB0 SHL SUB NOT AND PUSH3 0x10000 PUSH1 0x1 PUSH1 0xB0 SHL SUB DUP8 AND OR PUSH1 0x1 OR DUP2 SSTORE PUSH1 0x2 DUP2 ADD DUP1 SLOAD PUSH1 0x1 PUSH1 0x1 PUSH1 0xA8 SHL SUB NOT AND SWAP3 DUP6 AND SWAP3 SWAP1 SWAP3 OR DUP4 ISZERO ISZERO PUSH1 0xA0 SHL PUSH1 0xFF PUSH1 0xA0 SHL AND OR SWAP1 SWAP2 SSTORE PUSH1 0x12 DUP2 ADD DUP1 SLOAD PUSH1 0x1 PUSH1 0x1 PUSH1 0xA0 SHL SUB NOT AND CALLER OR SWAP1 SSTORE TIMESTAMP PUSH1 0x14 SWAP1 SWAP2 ADD SSTORE PUSH1 0x4 SLOAD SWAP4 SWAP2 SWAP1 PUSH1 0x1 PUSH1 0x40 SHL DUP6 LT ISZERO PUSH2 0x5BC JUMPI PUSH2 0x23F0 DUP6 PUSH1 0x1 PUSH1 0x13 SWAP8 ADD PUSH1 0x4 SSTORE PUSH2 0x45F6 JUMP JUMPDEST DUP2 SLOAD PUSH1 0x1 PUSH1 0x1 PUSH1 0xA0 SHL SUB DUP10 DUP2 AND PUSH1 0x3 SWAP4 SWAP1 SWAP4 SHL SWAP3 DUP4 SHL SWAP3 SHL NOT AND OR SWAP1 SSTORE PUSH1 0x5 SLOAD PUSH2 0x2419 SWAP1 PUSH2 0x4808 JUMP JUMPDEST PUSH1 0x5 SSTORE ISZERO PUSH2 0x2547 JUMPI PUSH1 0x1 PUSH1 0x1 PUSH1 0xA0 SHL SUB SWAP1 DUP2 AND DUP7 MSTORE PUSH1 0x3 PUSH1 0x20 DUP2 SWAP1 MSTORE PUSH1 0x40 DUP8 KECCAK256 ADD DUP1 SLOAD PUSH1 0x1 PUSH1 0x1 PUSH1 0xA0 SHL SUB NOT AND SWAP2 DUP7 AND SWAP2 SWAP1 SWAP2 OR SWAP1 SSTORE JUMPDEST PUSH1 0x10 SHR PUSH1 0x1 PUSH1 0x1 PUSH1 0xA0 SHL SUB AND DUP1 PUSH2 0x2527 JUMPI JUMPDEST POP PUSH2 0x246C DUP4 PUSH2 0x4A53 JUMP JUMPDEST PUSH2 0x2475 DUP4 PUSH2 0x4B49 JUMP JUMPDEST ADD PUSH2 0x2480 DUP2 SLOAD PUSH2 0x4808 JUMP JUMPDEST SWAP1 DUP2 SWAP1 SSTORE PUSH1 0x40 MLOAD SWAP1 DUP2 MSTORE PUSH1 0x1 PUSH1 0x1 PUSH1 0xA0 SHL SUB DUP3 AND SWAP1 CALLER SWAP1 PUSH32 0x30016ED357540281A6CFF6143637E72B48E105D85D15DF66B0AAFFBD23790240 SWAP1 PUSH1 0x20 SWAP1 LOG3 CALLER PUSH1 0x0 MSTORE PUSH1 0xE PUSH1 0x20 MSTORE PUSH1 0x40 PUSH1 0x0 KECCAK256 SWAP1 PUSH1 0x40 MLOAD PUSH2 0x24D8 DUP2 PUSH2 0x4661 JUMP JUMPDEST PUSH1 0x9 DUP2 MSTORE PUSH1 0x20 DUP2 ADD SWAP1 PUSH4 0xFFFFFFFF TIMESTAMP AND DUP3 MSTORE PUSH1 0x40 DUP2 ADD PUSH1 0x0 DUP2 MSTORE PUSH1 0x60 DUP3 ADD SWAP5 PUSH1 0x0 DUP7 MSTORE PUSH1 0x80 DUP4 ADD SWAP5 PUSH1 0x1 DUP1 PUSH1 0xA0 SHL SUB AND DUP6 MSTORE DUP1 SLOAD PUSH1 0x1 PUSH1 0x40 SHL DUP2 LT ISZERO PUSH2 0x5BC JUMPI PUSH2 0x534 SWAP2 PUSH1 0x1 DUP3 ADD DUP2 SSTORE PUSH2 0x4847 JUMP JUMPDEST DUP5 MSTORE PUSH1 0x3 PUSH1 0x20 MSTORE PUSH1 0x1 PUSH1 0x40 DUP6 KECCAK256 ADD PUSH2 0x253F DUP2 SLOAD PUSH2 0x4808 JUMP JUMPDEST SWAP1 SSTORE CODESIZE PUSH2 0x2462 JUMP JUMPDEST PUSH1 0x1 PUSH1 0x1 PUSH1 0xA0 SHL SUB SWAP1 DUP2 AND DUP7 MSTORE PUSH1 0x3 PUSH1 0x20 MSTORE PUSH1 0x40 DUP7 KECCAK256 PUSH1 0x4 ADD DUP1 SLOAD PUSH1 0x1 PUSH1 0x1 PUSH1 0xA0 SHL SUB NOT AND SWAP2 DUP7 AND SWAP2 SWAP1 SWAP2 OR SWAP1 SSTORE PUSH2 0x2450 JUMP JUMPDEST POP PUSH2 0x2319 DUP3 DUP1 PUSH2 0x47BD JUMP JUMPDEST PUSH4 0x4E487B71 PUSH1 0xE0 SHL DUP9 MSTORE PUSH1 0x11 PUSH1 0x4 MSTORE PUSH1 0x24 DUP9 REVERT JUMPDEST PUSH1 0x40 MLOAD PUSH3 0x461BCD PUSH1 0xE5 SHL DUP2 MSTORE PUSH1 0x20 PUSH1 0x4 DUP3 ADD MSTORE PUSH1 0x1E PUSH1 0x24 DUP3 ADD MSTORE PUSH32 0x5375622D6163636F756E7420616C726561647920726567697374657265640000 PUSH1 0x44 DUP3 ADD MSTORE PUSH1 0x64 SWAP1 REVERT JUMPDEST PUSH1 0x40 MLOAD PUSH4 0x7DB32BD PUSH1 0xE3 SHL DUP2 MSTORE PUSH1 0x4 SWAP1 REVERT JUMPDEST POP CALLVALUE PUSH2 0x31C JUMPI DUP1 PUSH1 0x3 NOT CALLDATASIZE ADD SLT PUSH2 0x31C JUMPI PUSH1 0x20 PUSH1 0x40 MLOAD PUSH1 0xA DUP2 MSTORE RETURN JUMPDEST POP CALLVALUE PUSH2 0x31C JUMPI DUP1 PUSH1 0x3 NOT CALLDATASIZE ADD SLT PUSH2 0x31C JUMPI SLOAD PUSH1 0x40 MLOAD PUSH1 0x1 PUSH1 0x1 PUSH1 0xA0 SHL SUB SWAP1 SWAP2 AND DUP2 MSTORE PUSH1 0x20 SWAP1 RETURN JUMPDEST POP CALLVALUE PUSH2 0x31C JUMPI PUSH2 0x2642 CALLDATASIZE PUSH2 0x454F JUMP JUMPDEST SWAP1 PUSH2 0x264B PUSH2 0x4758 JUMP JUMPDEST PUSH2 0x2653 PUSH2 0x4817 JUMP JUMPDEST PUSH1 0xFF SWAP2 DUP3 PUSH1 0xA SLOAD AND ISZERO PUSH2 0x293F JUMPI PUSH2 0x266A SWAP1 DUP3 PUSH2 0x497F JUMP JUMPDEST SWAP1 PUSH1 0x4 SLOAD DUP1 DUP4 GT PUSH2 0x2937 JUMPI JUMPDEST POP DUP4 SWAP2 DUP2 JUMPDEST DUP2 DUP2 LT PUSH2 0x28F7 JUMPI POP PUSH1 0x9 SWAP2 DUP3 SLOAD SWAP5 DUP5 ISZERO ISZERO DUP1 PUSH2 0x28EE JUMPI JUMPDEST ISZERO PUSH2 0x28D5 JUMPI TIMESTAMP PUSH4 0xFFFFFFFF AND SWAP1 DUP8 DUP4 JUMPDEST DUP6 DUP2 LT PUSH2 0x2749 JUMPI POP SWAP5 SWAP4 SWAP3 SWAP2 POP POP JUMPDEST DUP2 DUP2 LT PUSH2 0x270B JUMPI DUP4 PUSH32 0x7F4A5B69BEA14A6FC05326671A02E90D4A88855C83A18529C260057B1BF61A85 PUSH1 0x40 DUP9 DUP9 DUP5 DUP9 SSTORE PUSH1 0xFF NOT PUSH1 0xA SLOAD AND PUSH1 0xA SSTORE DUP3 MLOAD SWAP2 DUP3 MSTORE PUSH1 0x20 DUP3 ADD MSTORE LOG1 PUSH1 0x1 PUSH1 0x0 DUP1 MLOAD PUSH1 0x20 PUSH2 0x5FB7 DUP4 CODECOPY DUP2 MLOAD SWAP2 MSTORE SSTORE DUP1 RETURN JUMPDEST PUSH2 0x2740 SWAP2 SWAP3 SWAP4 POP PUSH2 0x271B DUP2 PUSH2 0x45F6 JUMP JUMPDEST SWAP1 SLOAD PUSH1 0x3 SWAP2 DUP3 SHL SHR PUSH1 0x1 PUSH1 0x1 PUSH1 0xA0 SHL SUB AND DUP9 MSTORE PUSH1 0x20 MSTORE PUSH1 0x40 DUP8 KECCAK256 PUSH1 0x11 ADD DUP8 SWAP1 SSTORE PUSH2 0x4808 JUMP JUMPDEST SWAP1 DUP6 SWAP3 SWAP2 PUSH2 0x26B1 JUMP JUMPDEST PUSH2 0x2752 DUP2 PUSH2 0x45F6 JUMP JUMPDEST SWAP1 SLOAD PUSH1 0x3 SWAP2 DUP3 SHL SHR PUSH1 0x1 PUSH1 0x1 PUSH1 0xA0 SHL SUB AND DUP1 DUP5 MSTORE PUSH1 0x20 DUP3 DUP2 MSTORE PUSH1 0x40 DUP6 KECCAK256 PUSH1 0x11 ADD SLOAD SWAP1 SWAP3 SWAP2 SWAP1 DUP11 DUP13 DUP15 DUP4 ISZERO PUSH2 0x28C4 JUMPI SWAP3 PUSH32 0xB05ABF391BCC5D117D31727729F0DA5B0E3EB5F91A478372995EFA128696C406 SWAP3 PUSH1 0x40 PUSH2 0x27BA DUP2 SWAP5 PUSH2 0x27B5 DUP6 DUP11 SWAP10 PUSH2 0x4AF2 JUMP JUMPDEST PUSH2 0x4B05 JUMP JUMPDEST SWAP11 DUP7 DUP2 MSTORE DUP9 DUP11 MSTORE PUSH1 0x8 SWAP9 DUP13 PUSH2 0x27D5 DUP12 DUP6 DUP6 KECCAK256 ADD SWAP2 DUP3 SLOAD PUSH2 0x497F JUMP JUMPDEST SWAP1 SSTORE DUP8 DUP3 MSTORE DUP11 MSTORE KECCAK256 ADD PUSH2 0x27E9 DUP11 DUP3 SLOAD PUSH2 0x497F JUMP JUMPDEST SWAP1 SSTORE DUP2 MLOAD SWAP1 DUP2 MSTORE DUP9 DUP8 DUP3 ADD MSTORE LOG2 PUSH1 0x0 MSTORE PUSH1 0xE DUP3 MSTORE PUSH1 0x40 PUSH1 0x0 KECCAK256 PUSH1 0x40 MLOAD SWAP3 PUSH2 0x280F DUP5 PUSH2 0x4661 JUMP JUMPDEST PUSH1 0x4 DUP5 MSTORE DUP4 ADD DUP8 DUP2 MSTORE PUSH1 0x40 DUP5 ADD SWAP6 DUP7 MSTORE PUSH1 0x60 DUP5 ADD SWAP4 PUSH1 0x0 DUP6 MSTORE PUSH1 0x80 DUP2 ADD SWAP3 PUSH1 0x0 DUP5 MSTORE DUP1 SLOAD PUSH1 0x1 PUSH1 0x40 SHL DUP2 LT ISZERO PUSH2 0x5BC JUMPI PUSH2 0x2850 SWAP1 PUSH1 0x1 SWAP3 DUP4 DUP3 ADD DUP2 SSTORE PUSH2 0x4847 JUMP JUMPDEST SWAP2 SWAP1 SWAP2 PUSH2 0x5A6 JUMPI SWAP2 MLOAD DUP2 SLOAD SWAP4 MLOAD PUSH5 0xFFFFFFFFFF NOT SWAP1 SWAP5 AND SWAP1 DUP11 AND OR SWAP3 DUP6 SHL PUSH5 0xFFFFFFFF00 AND SWAP3 SWAP1 SWAP3 OR DUP3 SSTORE SWAP6 MLOAD SWAP6 DUP2 ADD SWAP6 SWAP1 SWAP6 SSTORE SWAP2 MLOAD PUSH1 0x2 SWAP5 SWAP1 SWAP5 ADD DUP1 SLOAD SWAP3 MLOAD PUSH1 0x1 PUSH1 0x1 PUSH1 0xA8 SHL SUB NOT SWAP1 SWAP4 AND SWAP5 DUP7 AND SWAP5 SWAP1 SWAP5 OR SWAP2 SWAP1 SHL PUSH2 0x100 PUSH1 0x1 PUSH1 0xA8 SHL SUB AND OR SWAP1 SWAP2 SSTORE PUSH2 0x28BD SWAP1 PUSH2 0x4808 JUMP JUMPDEST DUP9 SWAP1 PUSH2 0x26A2 JUMP JUMPDEST POP POP POP POP POP POP POP PUSH2 0x28BD SWAP2 POP PUSH2 0x4808 JUMP JUMPDEST POP PUSH2 0x28E2 DUP6 PUSH1 0x8 SLOAD PUSH2 0x497F JUMP JUMPDEST PUSH1 0x8 SSTORE SWAP1 DUP6 SWAP3 SWAP2 PUSH2 0x26B1 JUMP JUMPDEST POP DUP6 ISZERO ISZERO PUSH2 0x2692 JUMP JUMPDEST SWAP3 PUSH2 0x292C PUSH2 0x2932 SWAP2 PUSH2 0x2908 DUP7 PUSH2 0x45F6 JUMP JUMPDEST SWAP1 SLOAD PUSH1 0x3 SWAP2 DUP3 SHL SHR PUSH1 0x1 PUSH1 0x1 PUSH1 0xA0 SHL SUB AND DUP10 MSTORE PUSH1 0x20 MSTORE PUSH1 0x40 DUP9 KECCAK256 PUSH1 0x11 ADD SLOAD SWAP1 PUSH2 0x497F JUMP JUMPDEST SWAP4 PUSH2 0x4808 JUMP JUMPDEST PUSH2 0x267B JUMP JUMPDEST SWAP2 POP CODESIZE PUSH2 0x2676 JUMP JUMPDEST PUSH1 0x40 MLOAD PUSH4 0x418826BF PUSH1 0xE1 SHL DUP2 MSTORE PUSH1 0x4 SWAP1 REVERT JUMPDEST POP CALLVALUE PUSH2 0x31C JUMPI DUP1 PUSH1 0x3 NOT CALLDATASIZE ADD SLT PUSH2 0x31C JUMPI PUSH1 0x20 PUSH1 0x40 MLOAD PUSH9 0x2B5E3AF16B1880000 DUP2 MSTORE RETURN JUMPDEST POP CALLVALUE PUSH2 0x31C JUMPI DUP1 PUSH1 0x3 NOT CALLDATASIZE ADD SLT PUSH2 0x31C JUMPI PUSH1 0x20 PUSH1 0x6 SLOAD PUSH1 0x40 MLOAD SWAP1 DUP2 MSTORE RETURN JUMPDEST POP CALLVALUE PUSH2 0x31C JUMPI PUSH2 0x29AB PUSH2 0x29A5 CALLDATASIZE PUSH2 0x45AE JUMP JUMPDEST SWAP2 PUSH2 0x5D6D JUMP JUMPDEST SWAP1 PUSH1 0x40 MLOAD SWAP2 PUSH1 0x40 DUP4 ADD SWAP2 PUSH1 0x40 DUP5 MSTORE DUP1 MLOAD DUP1 SWAP4 MSTORE PUSH1 0x60 SWAP5 DUP6 DUP6 ADD SWAP4 PUSH1 0x20 DUP1 SWAP4 ADD SWAP2 JUMPDEST DUP2 DUP2 LT PUSH2 0x29E0 JUMPI POP POP POP DUP4 DUP1 SWAP6 POP ADD MSTORE SUB SWAP1 RETURN JUMPDEST DUP3 MLOAD DUP1 MLOAD PUSH1 0xFF SWAP1 DUP2 AND DUP9 MSTORE DUP2 DUP7 ADD MLOAD PUSH4 0xFFFFFFFF AND DUP7 DUP10 ADD MSTORE PUSH1 0x40 DUP1 DUP4 ADD MLOAD SWAP1 DUP10 ADD MSTORE DUP10 DUP3 ADD MLOAD AND DUP10 DUP9 ADD MSTORE PUSH1 0x80 SWAP1 DUP2 ADD MLOAD PUSH1 0x1 PUSH1 0x1 PUSH1 0xA0 SHL SUB AND SWAP1 DUP8 ADD MSTORE PUSH1 0xA0 SWAP1 SWAP6 ADD SWAP5 SWAP2 DUP4 ADD SWAP2 PUSH1 0x1 ADD PUSH2 0x29CC JUMP JUMPDEST POP CALLVALUE PUSH2 0x31C JUMPI DUP1 PUSH1 0x3 NOT CALLDATASIZE ADD SLT PUSH2 0x31C JUMPI PUSH2 0x2A4A PUSH2 0x4758 JUMP JUMPDEST PUSH1 0x0 DUP1 SLOAD PUSH1 0x1 PUSH1 0x1 PUSH1 0xA0 SHL SUB NOT DUP2 AND DUP3 SSTORE PUSH1 0x1 PUSH1 0x1 PUSH1 0xA0 SHL SUB AND PUSH1 0x0 DUP1 MLOAD PUSH1 0x20 PUSH2 0x5F57 DUP4 CODECOPY DUP2 MLOAD SWAP2 MSTORE DUP3 DUP1 LOG3 DUP1 RETURN JUMPDEST POP CALLVALUE PUSH2 0x31C JUMPI DUP1 PUSH1 0x3 NOT CALLDATASIZE ADD SLT PUSH2 0x31C JUMPI PUSH1 0x1 SLOAD PUSH1 0x40 MLOAD PUSH3 0x3144BD PUSH1 0xE3 SHL DUP2 MSTORE PUSH1 0x1 PUSH1 0x1 PUSH1 0xA0 SHL SUB SWAP1 SWAP2 AND SWAP2 PUSH1 0x20 DUP1 DUP4 PUSH1 0x4 DUP2 DUP8 GAS STATICCALL SWAP3 DUP4 ISZERO PUSH2 0xAE9 JUMPI DUP3 SWAP4 PUSH2 0x2B20 JUMPI JUMPDEST POP DUP1 PUSH1 0x4 SWAP5 PUSH1 0x40 MLOAD SWAP6 DUP7 DUP1 SWAP3 PUSH4 0x10F4CBA7 PUSH1 0xE2 SHL DUP3 MSTORE GAS STATICCALL SWAP2 DUP3 ISZERO PUSH2 0x12A2 JUMPI SWAP2 PUSH2 0x2AF0 JUMPI JUMPDEST PUSH1 0x40 DUP1 SWAP5 POP MLOAD SWAP3 DUP4 MSTORE DUP3 ADD MSTORE RETURN JUMPDEST DUP1 SWAP2 POP DUP4 DUP2 RETURNDATASIZE DUP4 GT PUSH2 0x2B19 JUMPI JUMPDEST PUSH2 0x2B07 DUP2 DUP4 PUSH2 0x468F JUMP JUMPDEST DUP2 ADD SUB SLT PUSH2 0xB89 JUMPI PUSH1 0x40 SWAP3 MLOAD SWAP1 PUSH2 0x2AE2 JUMP JUMPDEST POP RETURNDATASIZE PUSH2 0x2AFD JUMP JUMPDEST SWAP4 SWAP3 POP DUP1 DUP5 DUP2 RETURNDATASIZE DUP4 GT PUSH2 0x2B4A JUMPI JUMPDEST PUSH2 0x2B38 DUP2 DUP4 PUSH2 0x468F JUMP JUMPDEST DUP2 ADD SUB SLT PUSH2 0xB89 JUMPI SWAP3 MLOAD SWAP2 SWAP3 DUP1 PUSH2 0x2ABD JUMP JUMPDEST POP RETURNDATASIZE PUSH2 0x2B2E JUMP JUMPDEST POP CALLVALUE PUSH2 0x31C JUMPI PUSH1 0x20 CALLDATASIZE PUSH1 0x3 NOT ADD SLT PUSH2 0x31C JUMPI PUSH1 0x40 SWAP1 PUSH1 0x1 PUSH1 0x1 PUSH1 0xA0 SHL SUB PUSH2 0x2B76 PUSH2 0x44AF JUMP JUMPDEST AND DUP2 MSTORE PUSH1 0x3 PUSH1 0x20 MSTORE KECCAK256 DUP1 DUP1 DUP1 DUP1 DUP1 DUP1 DUP1 DUP1 DUP1 DUP1 DUP1 DUP1 DUP1 SLOAD PUSH1 0x1 DUP3 ADD SLOAD PUSH2 0x140 MSTORE PUSH1 0x2 DUP3 ADD SLOAD PUSH2 0x100 MSTORE PUSH1 0x14 PUSH1 0x7 PUSH1 0x11 PUSH1 0xF PUSH1 0xD PUSH1 0xC PUSH1 0xB PUSH1 0xA PUSH1 0x9 PUSH1 0x8 PUSH1 0x6 PUSH1 0x5 DUP14 PUSH1 0x3 PUSH1 0x1 DUP1 PUSH1 0xA0 SHL SUB SWAP2 ADD SLOAD AND SWAP14 PUSH1 0x4 PUSH1 0x1 DUP1 PUSH1 0xA0 SHL SUB SWAP2 ADD SLOAD AND SWAP15 ADD SLOAD SWAP15 ADD SLOAD SWAP15 ADD SLOAD SWAP15 ADD SLOAD SWAP15 ADD SLOAD SWAP15 ADD SLOAD SWAP15 ADD SLOAD SWAP15 ADD SLOAD SWAP15 ADD SLOAD SWAP15 ADD SLOAD SWAP15 ADD SLOAD SWAP15 PUSH1 0x1 DUP1 PUSH1 0xA0 SHL SUB PUSH1 0x12 DUP3 ADD SLOAD AND PUSH2 0x1A0 MSTORE PUSH1 0x13 DUP2 ADD SLOAD PUSH2 0x2C0 MSTORE ADD SLOAD PUSH1 0x80 MSTORE PUSH1 0x40 MLOAD DUP1 PUSH2 0x300 MSTORE PUSH1 0xFF DUP3 AND ISZERO ISZERO SWAP1 MSTORE PUSH1 0xFF DUP2 PUSH1 0x8 SHR AND ISZERO ISZERO PUSH1 0x20 PUSH2 0x300 MLOAD ADD MSTORE PUSH1 0x1 DUP1 PUSH1 0xA0 SHL SUB SWAP1 PUSH1 0x10 SHR AND PUSH1 0x40 PUSH2 0x300 MLOAD ADD MSTORE PUSH2 0x140 MLOAD PUSH1 0x60 PUSH2 0x300 MLOAD ADD MSTORE PUSH1 0x1 DUP1 PUSH1 0xA0 SHL SUB PUSH2 0x100 MLOAD AND PUSH1 0x80 PUSH2 0x300 MLOAD ADD MSTORE PUSH1 0xFF PUSH2 0x100 MLOAD PUSH1 0xA0 SHR AND ISZERO ISZERO PUSH1 0xA0 PUSH2 0x300 MLOAD ADD MSTORE PUSH1 0xC0 PUSH2 0x300 MLOAD ADD MSTORE PUSH1 0xE0 PUSH2 0x300 MLOAD ADD MSTORE PUSH2 0x100 PUSH2 0x300 MLOAD ADD MSTORE PUSH2 0x120 PUSH2 0x300 MLOAD ADD MSTORE PUSH2 0x140 PUSH2 0x300 MLOAD ADD MSTORE PUSH2 0x160 PUSH2 0x300 MLOAD ADD MSTORE PUSH2 0x180 PUSH2 0x300 MLOAD ADD MSTORE PUSH2 0x1A0 PUSH2 0x300 MLOAD ADD MSTORE PUSH2 0x1C0 PUSH2 0x300 MLOAD ADD MSTORE PUSH2 0x1E0 PUSH2 0x300 MLOAD ADD MSTORE PUSH2 0x200 PUSH2 0x300 MLOAD ADD MSTORE PUSH2 0x220 PUSH2 0x300 MLOAD ADD MSTORE PUSH2 0x240 PUSH2 0x300 MLOAD ADD MSTORE PUSH2 0x1A0 MLOAD PUSH2 0x260 PUSH2 0x300 MLOAD ADD MSTORE PUSH2 0x2C0 MLOAD PUSH2 0x280 PUSH2 0x300 MLOAD ADD MSTORE PUSH1 0x80 MLOAD PUSH2 0x2A0 PUSH2 0x300 MLOAD ADD MSTORE PUSH2 0x2C0 PUSH2 0x300 MLOAD RETURN JUMPDEST POP CALLVALUE PUSH2 0x31C JUMPI PUSH1 0x20 CALLDATASIZE PUSH1 0x3 NOT ADD SLT PUSH2 0x31C JUMPI PUSH2 0x2D39 PUSH2 0x4817 JUMP JUMPDEST PUSH1 0x4 CALLDATALOAD ISZERO PUSH2 0x1143 JUMPI CALLER DUP2 MSTORE PUSH1 0x3 PUSH1 0x20 MSTORE PUSH1 0x40 DUP2 KECCAK256 PUSH1 0xFF DUP2 SLOAD PUSH1 0x8 SHR AND ISZERO PUSH2 0x825 JUMPI PUSH1 0x8 DUP2 ADD DUP1 SLOAD PUSH1 0x4 CALLDATALOAD DUP2 LT PUSH2 0x3147 JUMPI PUSH2 0x2D76 SWAP1 PUSH1 0x4 CALLDATALOAD SWAP1 PUSH2 0x47BD JUMP JUMPDEST SWAP1 SSTORE PUSH1 0xA DUP2 ADD PUSH2 0x2D89 PUSH1 0x4 CALLDATALOAD DUP3 SLOAD PUSH2 0x497F JUMP JUMPDEST SWAP1 SSTORE PUSH1 0x40 MLOAD PUSH4 0x70A08231 PUSH1 0xE0 SHL DUP1 DUP3 MSTORE ADDRESS PUSH1 0x4 DUP4 ADD MSTORE PUSH1 0x1 PUSH1 0x1 PUSH1 0xA0 SHL SUB PUSH32 0x0 DUP2 AND SWAP3 SWAP2 SWAP1 DUP6 SWAP1 PUSH1 0x20 DUP5 PUSH1 0x24 DUP2 DUP9 GAS STATICCALL SWAP4 DUP5 ISZERO PUSH2 0xAE9 JUMPI DUP3 SWAP5 PUSH2 0x3110 JUMPI JUMPDEST POP PUSH1 0x1 SLOAD AND DUP1 EXTCODESIZE ISZERO PUSH2 0xAF4 JUMPI DUP2 DUP1 SWAP2 PUSH1 0x24 PUSH1 0x40 MLOAD DUP1 SWAP5 DUP2 SWAP4 PUSH4 0x72424D99 PUSH1 0xE1 SHL DUP4 MSTORE PUSH1 0x4 CALLDATALOAD PUSH1 0x4 DUP5 ADD MSTORE GAS CALL DUP1 ISZERO PUSH2 0xAE9 JUMPI PUSH2 0x30F8 JUMPI JUMPDEST POP POP PUSH1 0x20 SWAP1 PUSH1 0x24 PUSH1 0x40 MLOAD DUP1 SWAP6 DUP2 SWAP4 DUP3 MSTORE ADDRESS PUSH1 0x4 DUP4 ADD MSTORE GAS STATICCALL DUP1 ISZERO PUSH2 0x1138 JUMPI DUP5 SWAP1 PUSH2 0x30C4 JUMPI JUMPDEST PUSH2 0x2E4C SWAP3 POP PUSH2 0x47BD JUMP JUMPDEST PUSH1 0xA DUP2 MUL SWAP1 DUP1 DUP3 DIV PUSH1 0xA EQ DUP2 ISZERO OR ISZERO PUSH2 0x30B0 JUMPI PUSH2 0x2E6D SWAP1 PUSH1 0x64 DUP4 DIV SWAP1 PUSH2 0x47BD JUMP JUMPDEST SWAP2 PUSH1 0xF DUP2 ADD PUSH2 0x2E80 PUSH1 0x64 DUP5 DIV DUP3 SLOAD PUSH2 0x497F JUMP JUMPDEST SWAP1 SSTORE PUSH1 0x10 DUP2 ADD PUSH2 0x2E94 PUSH1 0x64 DUP5 DIV DUP3 SLOAD PUSH2 0x497F JUMP JUMPDEST SWAP1 SSTORE PUSH1 0x40 MLOAD PUSH1 0x64 DUP4 DIV DUP2 MSTORE PUSH32 0x2B1D2104E84DD4DABB0CCA024171F783AB1E1C9DC1AF9D60A2361596653A99C4 PUSH1 0x20 CALLER SWAP3 LOG2 CALLER PUSH1 0x0 MSTORE PUSH1 0xE PUSH1 0x20 MSTORE PUSH1 0x40 PUSH1 0x0 KECCAK256 SWAP1 PUSH1 0x40 MLOAD SWAP2 PUSH2 0x2EE1 DUP4 PUSH2 0x4661 JUMP JUMPDEST PUSH1 0x6 DUP4 MSTORE TIMESTAMP PUSH4 0xFFFFFFFF AND PUSH1 0x20 DUP5 ADD MSTORE PUSH1 0x64 DUP5 DIV PUSH1 0x40 DUP5 ADD MSTORE PUSH1 0x0 PUSH1 0x60 DUP5 ADD DUP2 SWAP1 MSTORE PUSH1 0x80 DUP5 ADD MSTORE DUP1 SLOAD PUSH1 0x1 PUSH1 0x40 SHL DUP2 LT ISZERO PUSH2 0x5BC JUMPI PUSH2 0x2F25 SWAP2 PUSH1 0x1 DUP3 ADD DUP2 SSTORE PUSH2 0x4847 JUMP JUMPDEST PUSH2 0x5A6 JUMPI DUP3 MLOAD DUP2 SLOAD PUSH1 0x20 DUP6 ADD MLOAD PUSH5 0xFFFFFFFFFF NOT SWAP1 SWAP2 AND PUSH1 0xFF SWAP3 DUP4 AND OR PUSH1 0x8 SWAP2 DUP3 SHL PUSH5 0xFFFFFFFF00 AND OR DUP4 SSTORE PUSH1 0x40 DUP6 ADD MLOAD PUSH1 0x1 DUP5 ADD SSTORE PUSH1 0x60 DUP6 ADD MLOAD PUSH1 0x2 SWAP4 SWAP1 SWAP4 ADD DUP1 SLOAD PUSH1 0x80 SWAP1 SWAP7 ADD MLOAD PUSH1 0x1 PUSH1 0x1 PUSH1 0xA8 SHL SUB NOT SWAP1 SWAP7 AND SWAP4 SWAP1 SWAP3 AND SWAP3 SWAP1 SWAP3 OR SWAP4 SWAP1 SWAP2 SHL PUSH2 0x100 PUSH1 0x1 PUSH1 0xA8 SHL SUB AND SWAP3 SWAP1 SWAP3 OR SWAP1 SWAP2 SSTORE PUSH1 0xB DUP2 ADD SLOAD PUSH32 0x8F7262D5A031D4D671E1FDB0CDDCD26D37185226F9E82F2F18877141AC1963EB SWAP2 DUP6 DUP3 ISZERO PUSH2 0x30A4 JUMPI POP DUP2 DUP6 GT ISZERO PUSH2 0x309B JUMPI PUSH1 0xD DUP3 SWAP2 JUMPDEST DUP3 PUSH2 0x2FF9 DUP2 PUSH2 0x2FE2 DUP2 DUP12 PUSH2 0x47BD JUMP JUMPDEST SWAP7 PUSH1 0xC DUP6 ADD PUSH2 0x2FF2 DUP4 DUP3 SLOAD PUSH2 0x497F JUMP JUMPDEST SWAP1 SSTORE PUSH2 0x47BD JUMP JUMPDEST PUSH1 0xB DUP4 ADD SSTORE PUSH2 0x300D PUSH1 0xE DUP4 ADD SWAP2 DUP3 SLOAD PUSH2 0x497F JUMP JUMPDEST SWAP1 SSTORE JUMPDEST ADD PUSH2 0x301C DUP4 DUP3 SLOAD PUSH2 0x497F JUMP JUMPDEST SWAP1 SSTORE PUSH2 0x3036 PUSH1 0x40 MLOAD SWAP3 DUP4 SWAP3 PUSH1 0x64 CALLER SWAP8 DIV DUP9 PUSH1 0x4 CALLDATALOAD DUP7 PUSH2 0x4B25 JUMP JUMPDEST SUB SWAP1 LOG2 CALLER PUSH1 0x0 MSTORE PUSH1 0xE PUSH1 0x20 MSTORE PUSH1 0x40 PUSH1 0x0 KECCAK256 PUSH1 0x40 MLOAD PUSH2 0x3053 DUP2 PUSH2 0x4661 JUMP JUMPDEST PUSH1 0x5 DUP2 MSTORE PUSH1 0x20 DUP2 ADD SWAP1 PUSH4 0xFFFFFFFF TIMESTAMP AND DUP3 MSTORE PUSH1 0x40 DUP2 ADD SWAP4 DUP5 MSTORE PUSH1 0x60 DUP2 ADD SWAP4 PUSH1 0x0 DUP6 MSTORE PUSH1 0x80 DUP3 ADD SWAP4 PUSH1 0x0 DUP6 MSTORE DUP1 SLOAD PUSH1 0x1 PUSH1 0x40 SHL DUP2 LT ISZERO PUSH2 0x5BC JUMPI PUSH2 0x534 SWAP2 PUSH1 0x1 DUP3 ADD DUP2 SSTORE PUSH2 0x4847 JUMP JUMPDEST PUSH1 0xD DUP6 SWAP2 PUSH2 0x2FD3 JUMP JUMPDEST SWAP1 SWAP2 POP PUSH1 0xD DUP6 SWAP3 PUSH2 0x3010 JUMP JUMPDEST PUSH4 0x4E487B71 PUSH1 0xE0 SHL DUP5 MSTORE PUSH1 0x11 PUSH1 0x4 MSTORE PUSH1 0x24 DUP5 REVERT JUMPDEST POP PUSH1 0x20 DUP3 RETURNDATASIZE PUSH1 0x20 GT PUSH2 0x30F0 JUMPI JUMPDEST DUP2 PUSH2 0x30DE PUSH1 0x20 SWAP4 DUP4 PUSH2 0x468F JUMP JUMPDEST DUP2 ADD SUB SLT PUSH2 0xB89 JUMPI PUSH2 0x2E4C SWAP2 MLOAD PUSH2 0x2E42 JUMP JUMPDEST RETURNDATASIZE SWAP2 POP PUSH2 0x30D1 JUMP JUMPDEST PUSH2 0x3101 SWAP1 PUSH2 0x467C JUMP JUMPDEST PUSH2 0x310C JUMPI DUP5 CODESIZE PUSH2 0x2E1D JUMP JUMPDEST DUP5 DUP1 REVERT JUMPDEST SWAP2 POP SWAP3 POP PUSH1 0x20 DUP2 RETURNDATASIZE PUSH1 0x20 GT PUSH2 0x313F JUMPI JUMPDEST DUP2 PUSH2 0x312D PUSH1 0x20 SWAP4 DUP4 PUSH2 0x468F JUMP JUMPDEST DUP2 ADD SUB SLT PUSH2 0xB89 JUMPI DUP6 SWAP1 MLOAD SWAP3 CODESIZE PUSH2 0x2DE6 JUMP JUMPDEST RETURNDATASIZE SWAP2 POP PUSH2 0x3120 JUMP JUMPDEST PUSH1 0x40 MLOAD PUSH4 0x208975E7 PUSH1 0xE2 SHL DUP2 MSTORE PUSH1 0x4 SWAP1 REVERT JUMPDEST POP CALLVALUE PUSH2 0x31C JUMPI PUSH1 0x80 CALLDATASIZE PUSH1 0x3 NOT ADD SLT PUSH2 0x31C JUMPI PUSH1 0x4 CALLDATALOAD PUSH1 0x1 PUSH1 0x1 PUSH1 0x40 SHL SUB DUP2 GT PUSH2 0xAF4 JUMPI PUSH2 0x318A SWAP1 CALLDATASIZE SWAP1 PUSH1 0x4 ADD PUSH2 0x4581 JUMP JUMPDEST SWAP2 SWAP1 PUSH1 0x24 CALLDATALOAD PUSH1 0x1 PUSH1 0x1 PUSH1 0x40 SHL SUB DUP2 GT PUSH2 0xFB7 JUMPI PUSH2 0x31AB SWAP1 CALLDATASIZE SWAP1 PUSH1 0x4 ADD PUSH2 0x4581 JUMP JUMPDEST PUSH1 0x44 CALLDATALOAD PUSH1 0x1 PUSH1 0x1 PUSH1 0x40 SHL SUB DUP2 GT PUSH2 0x310C JUMPI PUSH2 0x31CA SWAP1 CALLDATASIZE SWAP1 PUSH1 0x4 ADD PUSH2 0x4581 JUMP JUMPDEST SWAP1 SWAP2 PUSH1 0x64 CALLDATALOAD PUSH1 0x1 PUSH1 0x1 PUSH1 0x40 SHL SUB DUP2 GT PUSH2 0x36D9 JUMPI PUSH2 0x31EB SWAP1 CALLDATASIZE SWAP1 PUSH1 0x4 ADD PUSH2 0x4581 JUMP JUMPDEST SWAP5 SWAP1 SWAP8 CALLER DUP9 MSTORE PUSH1 0x3 PUSH1 0x20 MSTORE PUSH2 0x3206 PUSH1 0xFF PUSH1 0x40 DUP11 KECCAK256 SLOAD AND PUSH2 0x5AB6 JUMP JUMPDEST CALLER DUP9 MSTORE PUSH1 0x3 PUSH1 0x20 MSTORE PUSH1 0x40 DUP9 KECCAK256 SWAP7 PUSH1 0x1 PUSH1 0x1 PUSH1 0x40 SHL SUB DUP3 GT PUSH2 0x36C5 JUMPI DUP2 SWAP1 PUSH2 0x3230 PUSH1 0x15 DUP11 ADD SLOAD PUSH2 0x4627 JUMP JUMPDEST PUSH1 0x1F DUP2 GT PUSH2 0x3675 JUMPI JUMPDEST POP DUP10 SWAP1 PUSH1 0x1F DUP4 GT PUSH1 0x1 EQ PUSH2 0x3609 JUMPI DUP11 SWAP3 PUSH2 0x35FE JUMPI JUMPDEST POP POP DUP2 PUSH1 0x1 SHL SWAP2 PUSH1 0x0 NOT SWAP1 PUSH1 0x3 SHL SHR NOT AND OR PUSH1 0x15 DUP8 ADD SSTORE JUMPDEST PUSH1 0x1 PUSH1 0x1 PUSH1 0x40 SHL SUB DUP3 GT PUSH2 0x35EA JUMPI DUP2 SWAP1 PUSH2 0x3283 PUSH1 0x16 DUP9 ADD SLOAD PUSH2 0x4627 JUMP JUMPDEST PUSH1 0x1F DUP2 GT PUSH2 0x3597 JUMPI JUMPDEST POP DUP8 SWAP1 PUSH1 0x1F DUP4 GT PUSH1 0x1 EQ PUSH2 0x352B JUMPI DUP9 SWAP3 PUSH2 0x3520 JUMPI JUMPDEST POP POP DUP2 PUSH1 0x1 SHL SWAP2 PUSH1 0x0 NOT SWAP1 PUSH1 0x3 SHL SHR NOT AND OR PUSH1 0x16 DUP6 ADD SSTORE JUMPDEST PUSH1 0x17 DUP5 ADD SWAP2 PUSH1 0x1 PUSH1 0x1 PUSH1 0x40 SHL SUB DUP3 GT PUSH2 0x1A77 JUMPI DUP2 SWAP1 PUSH2 0x32D8 DUP5 SLOAD PUSH2 0x4627 JUMP JUMPDEST PUSH1 0x1F DUP2 GT PUSH2 0x34D0 JUMPI JUMPDEST POP DUP7 SWAP1 PUSH1 0x1F DUP4 GT PUSH1 0x1 EQ PUSH2 0x346A JUMPI DUP8 SWAP3 PUSH2 0x345F JUMPI JUMPDEST POP POP DUP2 PUSH1 0x1 SHL SWAP2 PUSH1 0x0 NOT SWAP1 PUSH1 0x3 SHL SHR NOT AND OR SWAP1 SSTORE JUMPDEST PUSH1 0x18 DUP3 ADD SWAP1 PUSH1 0x1 PUSH1 0x1 PUSH1 0x40 SHL SUB DUP2 GT PUSH2 0x344B JUMPI PUSH2 0x3328 DUP3 SLOAD PUSH2 0x4627 JUMP JUMPDEST PUSH1 0x1F DUP2 GT PUSH2 0x3406 JUMPI JUMPDEST POP DUP4 PUSH1 0x1F DUP3 GT PUSH1 0x1 EQ PUSH2 0x339F JUMPI DUP2 SWAP1 DUP6 SWAP7 PUSH1 0x19 SWAP7 SWAP3 PUSH2 0x3394 JUMPI JUMPDEST POP POP DUP2 PUSH1 0x1 SHL SWAP2 PUSH1 0x0 NOT SWAP1 PUSH1 0x3 SHL SHR NOT AND OR SWAP1 SSTORE JUMPDEST ADD DUP1 SLOAD PUSH1 0xFF NOT AND PUSH1 0x1 OR SWAP1 SSTORE CALLER PUSH32 0xBE4EC58A792F909E102EE3D745D0C3B34A4D437A54D903C4DB098D31C556422F DUP3 DUP1 LOG2 DUP1 RETURN JUMPDEST ADD CALLDATALOAD SWAP1 POP CODESIZE DUP1 PUSH2 0x334B JUMP JUMPDEST DUP3 DUP6 MSTORE PUSH1 0x20 DUP6 KECCAK256 SWAP1 PUSH1 0x1F NOT DUP4 AND DUP7 JUMPDEST DUP2 DUP2 LT PUSH2 0x33EE JUMPI POP SWAP7 DUP4 SWAP3 SWAP2 PUSH1 0x1 SWAP5 PUSH1 0x19 SWAP9 SWAP10 LT PUSH2 0x33D4 JUMPI JUMPDEST POP POP POP DUP2 SHL ADD SWAP1 SSTORE PUSH2 0x3360 JUMP JUMPDEST ADD CALLDATALOAD PUSH1 0x0 NOT PUSH1 0x3 DUP5 SWAP1 SHL PUSH1 0xF8 AND SHR NOT AND SWAP1 SSTORE CODESIZE DUP1 DUP1 PUSH2 0x33C7 JUMP JUMPDEST SWAP2 SWAP3 PUSH1 0x20 PUSH1 0x1 DUP2 SWAP3 DUP7 DUP13 ADD CALLDATALOAD DUP2 SSTORE ADD SWAP5 ADD SWAP3 ADD PUSH2 0x33AE JUMP JUMPDEST DUP3 DUP6 MSTORE PUSH1 0x20 DUP6 KECCAK256 PUSH1 0x1F DUP4 ADD PUSH1 0x5 SHR DUP2 ADD SWAP2 PUSH1 0x20 DUP5 LT PUSH2 0x3441 JUMPI JUMPDEST PUSH1 0x1F ADD PUSH1 0x5 SHR ADD SWAP1 JUMPDEST DUP2 DUP2 LT PUSH2 0x3436 JUMPI POP PUSH2 0x3331 JUMP JUMPDEST DUP6 DUP2 SSTORE PUSH1 0x1 ADD PUSH2 0x3429 JUMP JUMPDEST SWAP1 SWAP2 POP DUP2 SWAP1 PUSH2 0x3420 JUMP JUMPDEST PUSH4 0x4E487B71 PUSH1 0xE0 SHL DUP5 MSTORE PUSH1 0x41 PUSH1 0x4 MSTORE PUSH1 0x24 DUP5 REVERT JUMPDEST ADD CALLDATALOAD SWAP1 POP CODESIZE DUP1 PUSH2 0x32F6 JUMP JUMPDEST DUP5 DUP9 MSTORE PUSH1 0x20 DUP9 KECCAK256 SWAP3 POP SWAP1 PUSH1 0x1F NOT DUP5 AND DUP9 JUMPDEST DUP2 DUP2 LT PUSH2 0x34B8 JUMPI POP SWAP1 DUP5 PUSH1 0x1 SWAP6 SWAP5 SWAP4 SWAP3 LT PUSH2 0x349E JUMPI JUMPDEST POP POP POP DUP2 SHL ADD SWAP1 SSTORE PUSH2 0x330B JUMP JUMPDEST ADD CALLDATALOAD PUSH1 0x0 NOT PUSH1 0x3 DUP5 SWAP1 SHL PUSH1 0xF8 AND SHR NOT AND SWAP1 SSTORE CODESIZE DUP1 DUP1 PUSH2 0x3491 JUMP JUMPDEST SWAP2 SWAP4 PUSH1 0x20 PUSH1 0x1 DUP2 SWAP3 DUP8 DUP8 ADD CALLDATALOAD DUP2 SSTORE ADD SWAP6 ADD SWAP3 ADD PUSH2 0x347B JUMP JUMPDEST SWAP1 SWAP2 POP DUP4 DUP8 MSTORE PUSH1 0x20 DUP8 KECCAK256 PUSH1 0x1F DUP5 ADD PUSH1 0x5 SHR DUP2 ADD SWAP2 PUSH1 0x20 DUP6 LT PUSH2 0x3516 JUMPI JUMPDEST SWAP1 PUSH1 0x1F DUP6 SWAP5 SWAP4 SWAP3 ADD PUSH1 0x5 SHR ADD SWAP1 JUMPDEST DUP2 DUP2 LT PUSH2 0x3508 JUMPI POP PUSH2 0x32E1 JUMP JUMPDEST DUP9 DUP2 SSTORE DUP5 SWAP4 POP PUSH1 0x1 ADD PUSH2 0x34FB JUMP JUMPDEST SWAP1 SWAP2 POP DUP2 SWAP1 PUSH2 0x34ED JUMP JUMPDEST ADD CALLDATALOAD SWAP1 POP CODESIZE DUP1 PUSH2 0x32A1 JUMP JUMPDEST PUSH1 0x16 DUP9 ADD DUP10 MSTORE PUSH1 0x20 DUP10 KECCAK256 SWAP3 POP SWAP1 PUSH1 0x1F NOT DUP5 AND DUP10 JUMPDEST DUP2 DUP2 LT PUSH2 0x357F JUMPI POP SWAP1 DUP5 PUSH1 0x1 SWAP6 SWAP5 SWAP4 SWAP3 LT PUSH2 0x3565 JUMPI JUMPDEST POP POP POP DUP2 SHL ADD PUSH1 0x16 DUP6 ADD SSTORE PUSH2 0x32B9 JUMP JUMPDEST ADD CALLDATALOAD PUSH1 0x0 NOT PUSH1 0x3 DUP5 SWAP1 SHL PUSH1 0xF8 AND SHR NOT AND SWAP1 SSTORE CODESIZE DUP1 DUP1 PUSH2 0x3555 JUMP JUMPDEST SWAP2 SWAP4 PUSH1 0x20 PUSH1 0x1 DUP2 SWAP3 DUP8 DUP8 ADD CALLDATALOAD DUP2 SSTORE ADD SWAP6 ADD SWAP3 ADD PUSH2 0x353F JUMP JUMPDEST SWAP1 SWAP2 POP PUSH1 0x16 DUP8 ADD DUP9 MSTORE PUSH1 0x20 DUP9 KECCAK256 PUSH1 0x1F DUP5 ADD PUSH1 0x5 SHR DUP2 ADD SWAP2 PUSH1 0x20 DUP6 LT PUSH2 0x35E0 JUMPI JUMPDEST SWAP1 PUSH1 0x1F DUP6 SWAP5 SWAP4 SWAP3 ADD PUSH1 0x5 SHR ADD SWAP1 JUMPDEST DUP2 DUP2 LT PUSH2 0x35D2 JUMPI POP PUSH2 0x328C JUMP JUMPDEST DUP10 DUP2 SSTORE DUP5 SWAP4 POP PUSH1 0x1 ADD PUSH2 0x35C5 JUMP JUMPDEST SWAP1 SWAP2 POP DUP2 SWAP1 PUSH2 0x35B7 JUMP JUMPDEST PUSH4 0x4E487B71 PUSH1 0xE0 SHL DUP8 MSTORE PUSH1 0x41 PUSH1 0x4 MSTORE PUSH1 0x24 DUP8 REVERT JUMPDEST ADD CALLDATALOAD SWAP1 POP CODESIZE DUP1 PUSH2 0x324E JUMP JUMPDEST PUSH1 0x15 DUP11 ADD DUP12 MSTORE PUSH1 0x20 DUP12 KECCAK256 SWAP3 POP SWAP1 PUSH1 0x1F NOT DUP5 AND DUP12 JUMPDEST DUP2 DUP2 LT PUSH2 0x365D JUMPI POP SWAP1 DUP5 PUSH1 0x1 SWAP6 SWAP5 SWAP4 SWAP3 LT PUSH2 0x3643 JUMPI JUMPDEST POP POP POP DUP2 SHL ADD PUSH1 0x15 DUP8 ADD SSTORE PUSH2 0x3266 JUMP JUMPDEST ADD CALLDATALOAD PUSH1 0x0 NOT PUSH1 0x3 DUP5 SWAP1 SHL PUSH1 0xF8 AND SHR NOT AND SWAP1 SSTORE CODESIZE DUP1 DUP1 PUSH2 0x3633 JUMP JUMPDEST SWAP2 SWAP4 PUSH1 0x20 PUSH1 0x1 DUP2 SWAP3 DUP8 DUP8 ADD CALLDATALOAD DUP2 SSTORE ADD SWAP6 ADD SWAP3 ADD PUSH2 0x361D JUMP JUMPDEST SWAP1 SWAP2 POP PUSH1 0x15 DUP10 ADD DUP11 MSTORE PUSH1 0x20 DUP11 KECCAK256 PUSH1 0x1F DUP5 ADD PUSH1 0x5 SHR DUP2 ADD PUSH1 0x20 DUP6 LT PUSH2 0x36BE JUMPI JUMPDEST SWAP1 DUP5 SWAP4 SWAP3 SWAP2 JUMPDEST PUSH1 0x1F DUP4 ADD PUSH1 0x5 SHR DUP3 ADD DUP2 LT PUSH2 0x36B0 JUMPI POP POP PUSH2 0x3239 JUMP JUMPDEST DUP13 DUP2 SSTORE DUP6 SWAP5 POP PUSH1 0x1 ADD PUSH2 0x369A JUMP JUMPDEST POP DUP1 PUSH2 0x3694 JUMP JUMPDEST PUSH4 0x4E487B71 PUSH1 0xE0 SHL DUP10 MSTORE PUSH1 0x41 PUSH1 0x4 MSTORE PUSH1 0x24 DUP10 REVERT JUMPDEST DUP7 DUP1 REVERT JUMPDEST POP CALLVALUE PUSH2 0x31C JUMPI DUP1 PUSH1 0x3 NOT CALLDATASIZE ADD SLT PUSH2 0x31C JUMPI PUSH1 0x60 PUSH1 0x6 SLOAD PUSH1 0x7 SLOAD PUSH1 0x8 SLOAD SWAP1 PUSH1 0x40 MLOAD SWAP3 DUP4 MSTORE PUSH1 0x20 DUP4 ADD MSTORE PUSH1 0x40 DUP3 ADD MSTORE RETURN JUMPDEST POP CALLVALUE PUSH2 0x31C JUMPI PUSH1 0x20 CALLDATASIZE PUSH1 0x3 NOT ADD SLT PUSH2 0x31C JUMPI PUSH1 0x4 CALLDATALOAD CALLER DUP3 MSTORE PUSH1 0xD PUSH1 0x20 MSTORE PUSH2 0x3738 PUSH1 0x40 DUP4 KECCAK256 SLOAD DUP3 LT PUSH2 0x5B32 JUMP JUMPDEST CALLER DUP3 MSTORE PUSH1 0xD PUSH1 0x20 MSTORE PUSH1 0x3 PUSH2 0x374F DUP3 PUSH1 0x40 DUP6 KECCAK256 PUSH2 0x5B16 JUMP JUMPDEST POP PUSH2 0x3760 PUSH1 0xFF PUSH1 0x4 DUP4 ADD SLOAD AND PUSH2 0x5B6E JUMP JUMPDEST ADD DUP1 SLOAD PUSH2 0x379F JUMPI TIMESTAMP SWAP1 SSTORE PUSH1 0x40 MLOAD SWAP1 DUP2 MSTORE TIMESTAMP PUSH1 0x20 DUP3 ADD MSTORE PUSH32 0x68733B6F87B2A7C87D5BCF8C0A0950F2985CC261D9AB6DEFDDCA8D7BD05EBA43 PUSH1 0x40 CALLER SWAP3 LOG2 DUP1 RETURN JUMPDEST PUSH1 0x40 MLOAD PUSH3 0x461BCD PUSH1 0xE5 SHL DUP2 MSTORE PUSH1 0x20 PUSH1 0x4 DUP3 ADD MSTORE PUSH1 0xE PUSH1 0x24 DUP3 ADD MSTORE PUSH14 0x105B1C9958591E481B1BD8DAD959 PUSH1 0x92 SHL PUSH1 0x44 DUP3 ADD MSTORE PUSH1 0x64 SWAP1 REVERT JUMPDEST POP CALLVALUE PUSH2 0x31C JUMPI PUSH1 0x20 CALLDATASIZE PUSH1 0x3 NOT ADD SLT PUSH2 0x31C JUMPI PUSH1 0x20 PUSH2 0x762 PUSH1 0x4 CALLDATALOAD PUSH2 0x5BAD JUMP JUMPDEST POP CALLVALUE PUSH2 0x31C JUMPI DUP1 PUSH1 0x3 NOT CALLDATASIZE ADD SLT PUSH2 0x31C JUMPI PUSH1 0x20 PUSH1 0x40 MLOAD PUSH1 0x2 DUP2 MSTORE RETURN JUMPDEST POP CALLVALUE PUSH2 0x31C JUMPI PUSH1 0x20 CALLDATASIZE PUSH1 0x3 NOT ADD SLT PUSH2 0x31C JUMPI PUSH1 0x20 PUSH2 0x762 PUSH1 0x4 CALLDATALOAD PUSH2 0x5C72 JUMP JUMPDEST POP CALLVALUE PUSH2 0x31C JUMPI DUP1 PUSH1 0x3 NOT CALLDATASIZE ADD SLT PUSH2 0x31C JUMPI PUSH1 0x20 PUSH1 0x4 SLOAD PUSH1 0x40 MLOAD SWAP1 DUP2 MSTORE RETURN JUMPDEST POP CALLVALUE PUSH2 0x31C JUMPI PUSH1 0x20 CALLDATASIZE PUSH1 0x3 NOT ADD SLT PUSH2 0x31C JUMPI PUSH2 0x3867 PUSH2 0x4817 JUMP JUMPDEST CALLER DUP2 MSTORE PUSH1 0xD PUSH1 0x20 MSTORE PUSH2 0x3880 PUSH1 0x40 DUP3 KECCAK256 SLOAD PUSH1 0x4 CALLDATALOAD LT PUSH2 0x5B32 JUMP JUMPDEST CALLER DUP2 MSTORE PUSH1 0xD PUSH1 0x20 MSTORE PUSH2 0x3897 PUSH1 0x4 CALLDATALOAD PUSH1 0x40 DUP4 KECCAK256 PUSH2 0x5B16 JUMP JUMPDEST POP PUSH1 0x4 DUP2 ADD SWAP1 DUP2 SLOAD SWAP2 PUSH2 0x38AC PUSH1 0xFF DUP5 AND PUSH2 0x5B6E JUMP JUMPDEST PUSH1 0x3 DUP3 ADD SLOAD SWAP3 DUP4 ISZERO SWAP4 DUP5 ISZERO PUSH2 0x3E72 JUMPI JUMPDEST POP PUSH1 0xFF NOT AND SWAP1 SSTORE PUSH1 0x1 DUP2 SLOAD SWAP2 ADD SLOAD SWAP2 DUP3 PUSH1 0x1 SHL SWAP3 DUP1 DUP5 DIV PUSH1 0x2 EQ SWAP1 ISZERO OR ISZERO PUSH2 0x30B0 JUMPI DUP2 DUP2 ISZERO PUSH2 0x3CE4 JUMPI PUSH1 0x5 DUP4 MUL DUP4 DUP2 DIV PUSH1 0x5 EQ DUP5 ISZERO OR ISZERO PUSH2 0x1ACC JUMPI CALLER DUP7 MSTORE PUSH1 0x3 PUSH1 0x20 MSTORE PUSH1 0x40 DUP7 KECCAK256 SLOAD PUSH1 0x10 SHR PUSH1 0x1 PUSH1 0x1 PUSH1 0xA0 SHL SUB AND SWAP1 PUSH1 0x64 SWAP1 DIV DUP2 ISZERO ISZERO DUP1 PUSH2 0x3CD0 JUMPI JUMPDEST DUP1 PUSH2 0x3CC7 JUMPI JUMPDEST PUSH2 0x3B95 JUMPI JUMPDEST POP POP JUMPDEST PUSH1 0x40 MLOAD PUSH4 0x70A08231 PUSH1 0xE0 SHL DUP2 MSTORE ADDRESS PUSH1 0x4 DUP3 ADD MSTORE SWAP1 DUP6 SWAP1 PUSH1 0x20 DUP4 PUSH1 0x24 DUP2 PUSH32 0x0 PUSH1 0x1 PUSH1 0x1 PUSH1 0xA0 SHL SUB AND GAS STATICCALL SWAP3 DUP4 ISZERO PUSH2 0xAE9 JUMPI DUP3 SWAP4 PUSH2 0x3B61 JUMPI JUMPDEST POP PUSH1 0x1 SLOAD PUSH1 0x1 PUSH1 0x1 PUSH1 0xA0 SHL SUB AND DUP1 EXTCODESIZE ISZERO PUSH2 0xFB7 JUMPI PUSH1 0x24 DUP4 SWAP3 PUSH1 0x40 MLOAD SWAP5 DUP6 SWAP4 DUP5 SWAP3 PUSH4 0x72424D99 PUSH1 0xE1 SHL DUP5 MSTORE PUSH1 0x4 DUP5 ADD MSTORE GAS CALL DUP1 ISZERO PUSH2 0xB43 JUMPI PUSH2 0x3B4E JUMPI JUMPDEST POP PUSH1 0x40 MLOAD PUSH4 0x70A08231 PUSH1 0xE0 SHL DUP2 MSTORE ADDRESS PUSH1 0x4 DUP3 ADD MSTORE SWAP1 PUSH1 0x20 DUP3 PUSH1 0x24 DUP2 PUSH32 0x0 PUSH1 0x1 PUSH1 0x1 PUSH1 0xA0 SHL SUB AND GAS STATICCALL DUP1 ISZERO PUSH2 0xB43 JUMPI DUP7 SWAP1 PUSH2 0x3B1A JUMPI JUMPDEST PUSH2 0x3A1C SWAP3 POP PUSH2 0x47BD JUMP JUMPDEST SWAP3 DUP5 SWAP2 DUP1 PUSH2 0x3B11 JUMPI JUMPDEST PUSH2 0x3ADC JUMPI JUMPDEST POP PUSH2 0x3A56 PUSH1 0x0 DUP1 MLOAD PUSH1 0x20 PUSH2 0x5F77 DUP4 CODECOPY DUP2 MLOAD SWAP2 MSTORE SWAP2 DUP5 PUSH2 0x3ABB JUMPI JUMPDEST PUSH1 0x40 MLOAD SWAP2 DUP3 SWAP2 DUP7 CALLER SWAP7 PUSH1 0x4 CALLDATALOAD DUP6 PUSH2 0x5664 JUMP JUMPDEST SUB SWAP1 LOG2 CALLER PUSH1 0x0 MSTORE PUSH1 0xE PUSH1 0x20 MSTORE PUSH1 0x40 PUSH1 0x0 KECCAK256 PUSH1 0x40 MLOAD PUSH2 0x3A73 DUP2 PUSH2 0x4661 JUMP JUMPDEST PUSH1 0xD DUP2 MSTORE PUSH1 0x20 DUP2 ADD SWAP1 PUSH4 0xFFFFFFFF TIMESTAMP AND DUP3 MSTORE PUSH1 0x40 DUP2 ADD SWAP4 DUP5 MSTORE PUSH1 0x60 DUP2 ADD SWAP4 PUSH1 0x0 DUP6 MSTORE PUSH1 0x80 DUP3 ADD SWAP4 PUSH1 0x0 DUP6 MSTORE DUP1 SLOAD PUSH1 0x1 PUSH1 0x40 SHL DUP2 LT ISZERO PUSH2 0x5BC JUMPI PUSH2 0x534 SWAP2 PUSH1 0x1 DUP3 ADD DUP2 SSTORE PUSH2 0x4847 JUMP JUMPDEST CALLER DUP7 MSTORE PUSH1 0x3 PUSH1 0x20 MSTORE PUSH1 0xC PUSH1 0x40 DUP8 KECCAK256 ADD PUSH2 0x3AD5 DUP7 DUP3 SLOAD PUSH2 0x497F JUMP JUMPDEST SWAP1 SSTORE PUSH2 0x3A44 JUMP JUMPDEST SWAP3 PUSH1 0x0 DUP1 MLOAD PUSH1 0x20 PUSH2 0x5F77 DUP4 CODECOPY DUP2 MLOAD SWAP2 MSTORE SWAP2 POP PUSH2 0x3AFB DUP5 PUSH2 0x3A56 SWAP3 PUSH2 0x47BD JUMP JUMPDEST PUSH2 0x3B07 DUP2 PUSH1 0x8 SLOAD PUSH2 0x497F JUMP JUMPDEST PUSH1 0x8 SSTORE SWAP2 POP PUSH2 0x3A2A JUMP JUMPDEST POP DUP1 DUP5 GT PUSH2 0x3A25 JUMP JUMPDEST POP PUSH1 0x20 DUP3 RETURNDATASIZE PUSH1 0x20 GT PUSH2 0x3B46 JUMPI JUMPDEST DUP2 PUSH2 0x3B34 PUSH1 0x20 SWAP4 DUP4 PUSH2 0x468F JUMP JUMPDEST DUP2 ADD SUB SLT PUSH2 0xB89 JUMPI PUSH2 0x3A1C SWAP2 MLOAD PUSH2 0x3A12 JUMP JUMPDEST RETURNDATASIZE SWAP2 POP PUSH2 0x3B27 JUMP JUMPDEST PUSH2 0x3B5A SWAP1 SWAP6 SWAP2 SWAP6 PUSH2 0x467C JUMP JUMPDEST SWAP4 CODESIZE PUSH2 0x39BE JUMP JUMPDEST SWAP1 SWAP3 POP PUSH1 0x20 DUP2 RETURNDATASIZE PUSH1 0x20 GT PUSH2 0x3B8D JUMPI JUMPDEST DUP2 PUSH2 0x3B7D PUSH1 0x20 SWAP4 DUP4 PUSH2 0x468F JUMP JUMPDEST DUP2 ADD SUB SLT PUSH2 0xAF4 JUMPI MLOAD SWAP2 CODESIZE PUSH2 0x3982 JUMP JUMPDEST RETURNDATASIZE SWAP2 POP PUSH2 0x3B70 JUMP JUMPDEST SWAP1 SWAP2 DUP2 PUSH2 0x3BCD SWAP2 DUP5 DUP10 MSTORE PUSH1 0x8 PUSH1 0x40 DUP11 KECCAK256 ADD PUSH2 0x3BB1 DUP4 DUP3 SLOAD PUSH2 0x497F JUMP JUMPDEST SWAP1 SSTORE DUP5 DUP10 MSTORE PUSH1 0x3 PUSH1 0x20 MSTORE PUSH1 0x9 PUSH1 0x40 DUP11 KECCAK256 ADD PUSH2 0x2FF2 DUP4 DUP3 SLOAD PUSH2 0x497F JUMP JUMPDEST SWAP2 DUP7 MSTORE PUSH1 0xE PUSH1 0x20 MSTORE PUSH1 0x40 DUP7 KECCAK256 PUSH1 0x40 MLOAD SWAP2 PUSH2 0x3BE6 DUP4 PUSH2 0x4661 JUMP JUMPDEST PUSH1 0x1 DUP4 MSTORE PUSH4 0xFFFFFFFF TIMESTAMP AND PUSH1 0x20 DUP5 ADD MSTORE PUSH1 0x40 DUP4 ADD MSTORE PUSH1 0x1 PUSH1 0x60 DUP4 ADD MSTORE CALLER PUSH1 0x80 DUP4 ADD MSTORE DUP1 SLOAD SWAP1 PUSH1 0x1 PUSH1 0x40 SHL DUP3 LT ISZERO PUSH2 0x3CB3 JUMPI SWAP1 PUSH2 0x3C27 SWAP2 PUSH1 0x1 DUP3 ADD DUP2 SSTORE PUSH2 0x4847 JUMP JUMPDEST PUSH2 0x3C9F JUMPI DUP2 MLOAD DUP2 SLOAD PUSH1 0x20 DUP5 ADD MLOAD PUSH5 0xFFFFFFFFFF NOT SWAP1 SWAP2 AND PUSH1 0xFF SWAP3 DUP4 AND OR PUSH1 0x8 SWAP2 DUP3 SHL PUSH5 0xFFFFFFFF00 AND OR DUP4 SSTORE PUSH1 0x40 DUP5 ADD MLOAD PUSH1 0x1 DUP5 ADD SSTORE PUSH1 0x60 DUP5 ADD MLOAD PUSH1 0x2 SWAP4 SWAP1 SWAP4 ADD DUP1 SLOAD PUSH1 0x80 SWAP1 SWAP6 ADD MLOAD PUSH1 0x1 PUSH1 0x1 PUSH1 0xA8 SHL SUB NOT SWAP1 SWAP6 AND SWAP4 SWAP1 SWAP3 AND SWAP3 SWAP1 SWAP3 OR SWAP3 SWAP1 SWAP2 SHL PUSH2 0x100 PUSH1 0x1 PUSH1 0xA8 SHL SUB AND SWAP2 SWAP1 SWAP2 OR SWAP1 SSTORE CODESIZE DUP1 PUSH2 0x3929 JUMP JUMPDEST PUSH4 0x4E487B71 PUSH1 0xE0 SHL DUP8 MSTORE PUSH1 0x4 DUP8 SWAP1 MSTORE PUSH1 0x24 DUP8 REVERT JUMPDEST PUSH4 0x4E487B71 PUSH1 0xE0 SHL DUP9 MSTORE PUSH1 0x41 PUSH1 0x4 MSTORE PUSH1 0x24 DUP9 REVERT JUMPDEST POP DUP1 ISZERO ISZERO PUSH2 0x3924 JUMP JUMPDEST POP DUP2 DUP8 MSTORE PUSH1 0xFF PUSH1 0x40 DUP9 KECCAK256 SLOAD PUSH1 0x8 SHR AND PUSH2 0x391E JUMP JUMPDEST PUSH1 0x40 MLOAD SWAP5 SWAP2 SWAP4 SWAP2 SWAP3 PUSH2 0x3CF5 DUP7 PUSH2 0x4661 JUMP JUMPDEST PUSH1 0x5 DUP7 MSTORE PUSH1 0x2 PUSH1 0x20 DUP8 ADD MSTORE PUSH1 0x1 PUSH1 0x40 DUP8 ADD MSTORE PUSH1 0x1 PUSH1 0x60 DUP8 ADD MSTORE PUSH1 0x1 PUSH1 0x80 DUP8 ADD MSTORE CALLER DUP5 MSTORE PUSH1 0x3 PUSH1 0x20 MSTORE PUSH1 0x40 DUP5 KECCAK256 SLOAD PUSH1 0x1 DUP1 PUSH1 0xA0 SHL SUB SWAP1 PUSH1 0x10 SHR AND SWAP3 DUP5 SWAP4 JUMPDEST PUSH1 0x5 PUSH1 0xFF DUP7 AND LT ISZERO PUSH2 0x3E66 JUMPI PUSH1 0x64 PUSH2 0x3D51 PUSH1 0xFF PUSH2 0x16F3 DUP2 DUP10 AND DUP13 PUSH2 0x5AF3 JUMP JUMPDEST DIV DUP1 ISZERO PUSH2 0x3E28 JUMPI PUSH1 0x1 PUSH1 0x1 PUSH1 0xA0 SHL SUB DUP3 AND ISZERO ISZERO DUP1 PUSH2 0x3E06 JUMPI JUMPDEST PUSH2 0x3D9B JUMPI JUMPDEST POP PUSH1 0x1 PUSH1 0x1 PUSH1 0xA0 SHL SUB SWAP1 DUP2 AND DUP7 MSTORE PUSH1 0x3 PUSH1 0x20 MSTORE PUSH1 0x40 DUP7 KECCAK256 SLOAD PUSH1 0x10 SHR AND SWAP4 PUSH2 0x3D95 SWAP1 PUSH2 0x526A JUMP JUMPDEST SWAP4 PUSH2 0x3D32 JUMP JUMPDEST SWAP4 PUSH2 0x3DED DUP6 PUSH2 0x3E00 SWAP3 PUSH1 0x1 DUP1 PUSH1 0xA0 SHL SUB DUP6 AND DUP11 MSTORE PUSH1 0x3 PUSH1 0x20 MSTORE PUSH1 0x8 PUSH1 0x40 DUP12 KECCAK256 ADD PUSH2 0x3DC6 DUP4 DUP3 SLOAD PUSH2 0x497F JUMP JUMPDEST SWAP1 SSTORE PUSH1 0x1 PUSH1 0x1 PUSH1 0xA0 SHL SUB DUP6 AND DUP11 MSTORE PUSH1 0x3 PUSH1 0x20 MSTORE PUSH1 0x40 DUP11 KECCAK256 PUSH1 0x9 ADD DUP1 SLOAD PUSH2 0x2FF2 SWAP1 DUP5 SWAP1 PUSH2 0x497F JUMP JUMPDEST SWAP5 CALLER SWAP1 PUSH2 0x3DF9 DUP9 PUSH2 0x5B04 JUMP JUMPDEST SWAP1 DUP5 PUSH2 0x4863 JUMP JUMPDEST CODESIZE PUSH2 0x3D6F JUMP JUMPDEST POP PUSH1 0x1 PUSH1 0x1 PUSH1 0xA0 SHL SUB DUP3 AND DUP8 MSTORE PUSH1 0x3 PUSH1 0x20 MSTORE PUSH1 0x40 DUP8 KECCAK256 SLOAD PUSH1 0x8 SHR PUSH1 0xFF AND PUSH2 0x3D6A JUMP JUMPDEST POP SWAP4 PUSH1 0x1 PUSH1 0x1 PUSH1 0xA0 SHL SUB DUP6 AND DUP1 PUSH2 0x3E44 JUMPI JUMPDEST POP PUSH2 0x3D95 SWAP1 PUSH2 0x526A JUMP JUMPDEST DUP7 MSTORE PUSH1 0x3 PUSH1 0x20 MSTORE PUSH1 0x40 DUP7 KECCAK256 SLOAD PUSH1 0x10 SHR PUSH1 0x1 PUSH1 0x1 PUSH1 0xA0 SHL SUB AND SWAP5 POP PUSH2 0x3D95 PUSH2 0x3E3A JUMP JUMPDEST POP SWAP5 SWAP3 POP SWAP3 SWAP5 POP PUSH2 0x392C JUMP JUMPDEST PUSH4 0x18B8200 DUP2 ADD DUP1 SWAP2 GT PUSH2 0x1ACC JUMPI TIMESTAMP LT PUSH2 0x3E8C JUMPI CODESIZE PUSH2 0x38BC JUMP JUMPDEST PUSH1 0x40 MLOAD PUSH3 0x461BCD PUSH1 0xE5 SHL DUP2 MSTORE PUSH1 0x20 PUSH1 0x4 DUP3 ADD MSTORE PUSH1 0x26 PUSH1 0x24 DUP3 ADD MSTORE PUSH32 0x5374696C6C206C6F636B65643A2031302D6D6F6E746820706572696F64206E6F PUSH1 0x44 DUP3 ADD MSTORE PUSH6 0x3A1037BB32B9 PUSH1 0xD1 SHL PUSH1 0x64 DUP3 ADD MSTORE PUSH1 0x84 SWAP1 REVERT JUMPDEST POP CALLVALUE PUSH2 0x31C JUMPI PUSH2 0x7D8 PUSH2 0x3EF2 CALLDATASIZE PUSH2 0x454F JUMP JUMPDEST SWAP1 PUSH2 0x3EFB PUSH2 0x4758 JUMP JUMPDEST PUSH2 0x3F03 PUSH2 0x4817 JUMP JUMPDEST PUSH2 0x5680 JUMP JUMPDEST POP CALLVALUE PUSH2 0x31C JUMPI PUSH1 0x40 CALLDATASIZE PUSH1 0x3 NOT ADD SLT PUSH2 0x31C JUMPI PUSH2 0x3F22 PUSH2 0x44AF JUMP JUMPDEST PUSH1 0x24 CALLDATALOAD SWAP1 PUSH2 0x3F2E PUSH2 0x4758 JUMP JUMPDEST PUSH1 0x1 PUSH1 0x1 PUSH1 0xA0 SHL SUB AND SWAP1 DUP2 ISZERO PUSH2 0x731 JUMPI PUSH1 0x8 SLOAD DUP2 DUP2 LT PUSH2 0x3F92 JUMPI DUP2 PUSH2 0x3F76 PUSH32 0xBA443E8671971C36CDEB74F87321041DAFF421230CBC5E36CB835269ED1D8B7E SWAP4 PUSH1 0x20 SWAP4 PUSH2 0x47BD JUMP JUMPDEST PUSH1 0x8 SSTORE DUP4 DUP6 MSTORE PUSH1 0x3 DUP3 MSTORE PUSH1 0x8 PUSH1 0x40 DUP7 KECCAK256 ADD PUSH2 0x6CE DUP3 DUP3 SLOAD PUSH2 0x497F JUMP JUMPDEST PUSH1 0x40 MLOAD PUSH3 0x461BCD PUSH1 0xE5 SHL DUP2 MSTORE PUSH1 0x20 PUSH1 0x4 DUP3 ADD MSTORE PUSH1 0x12 PUSH1 0x24 DUP3 ADD MSTORE PUSH18 0x115E18D959591CC818591B5A5B881C1BDBDB PUSH1 0x72 SHL PUSH1 0x44 DUP3 ADD MSTORE PUSH1 0x64 SWAP1 REVERT JUMPDEST POP CALLVALUE PUSH2 0x31C JUMPI PUSH1 0x20 CALLDATASIZE PUSH1 0x3 NOT ADD SLT PUSH2 0x31C JUMPI PUSH1 0x20 SWAP1 PUSH1 0x40 SWAP1 PUSH1 0x1 PUSH1 0x1 PUSH1 0xA0 SHL SUB PUSH2 0x3FF4 PUSH2 0x44AF JUMP JUMPDEST AND DUP2 MSTORE PUSH1 0xC DUP4 MSTORE KECCAK256 SLOAD PUSH1 0x40 MLOAD SWAP1 DUP2 MSTORE RETURN JUMPDEST POP CALLVALUE PUSH2 0x31C JUMPI DUP1 PUSH1 0x3 NOT CALLDATASIZE ADD SLT PUSH2 0x31C JUMPI PUSH1 0x1 SLOAD PUSH1 0x40 MLOAD PUSH1 0x1 PUSH1 0x1 PUSH1 0xA0 SHL SUB SWAP1 SWAP2 AND DUP2 MSTORE PUSH1 0x20 SWAP1 RETURN JUMPDEST POP CALLVALUE PUSH2 0x31C JUMPI PUSH1 0x20 CALLDATASIZE PUSH1 0x3 NOT ADD SLT PUSH2 0x31C JUMPI PUSH2 0x4048 PUSH2 0x44AF JUMP JUMPDEST PUSH2 0x4050 PUSH2 0x4758 JUMP JUMPDEST PUSH1 0x1 PUSH1 0x1 PUSH1 0xA0 SHL SUB AND DUP1 ISZERO PUSH2 0x731 JUMPI PUSH1 0x1 DUP1 SLOAD PUSH1 0x1 PUSH1 0x1 PUSH1 0xA0 SHL SUB NOT AND DUP3 OR SWAP1 SSTORE PUSH1 0x40 MLOAD SWAP1 DUP2 MSTORE PUSH32 0xFA7BD61554593F4E69CDFFD255D3FE947352B02C7D3EC68059384934E4CFD47C SWAP1 PUSH1 0x20 SWAP1 LOG1 DUP1 RETURN JUMPDEST POP CALLVALUE PUSH2 0x31C JUMPI PUSH1 0x20 DUP1 PUSH1 0x3 NOT CALLDATASIZE ADD SLT PUSH2 0xAF4 JUMPI PUSH1 0x1 PUSH1 0x1 PUSH1 0xA0 SHL SUB PUSH2 0x40C3 PUSH2 0x44AF JUMP JUMPDEST AND DUP1 DUP4 MSTORE PUSH1 0xD DUP1 DUP4 MSTORE PUSH1 0x40 DUP5 KECCAK256 SLOAD SWAP3 DUP5 SWAP3 DUP6 JUMPDEST DUP6 DUP2 LT PUSH2 0x423C JUMPI POP PUSH2 0x40E7 DUP5 PUSH2 0x5F04 JUMP JUMPDEST SWAP5 PUSH2 0x40F1 DUP6 PUSH2 0x5F04 JUMP JUMPDEST SWAP2 PUSH2 0x40FB DUP7 PUSH2 0x5F04 JUMP JUMPDEST SWAP5 PUSH2 0x410E PUSH2 0x4108 DUP9 PUSH2 0x5F04 JUMP JUMPDEST SWAP8 PUSH2 0x5F04 JUMP JUMPDEST SWAP9 DUP1 SWAP2 DUP2 JUMPDEST DUP6 DUP2 LT PUSH2 0x417F JUMPI POP PUSH2 0x4144 DUP11 PUSH2 0x417B DUP14 PUSH2 0x416D DUP14 PUSH2 0x415F DUP15 PUSH2 0x4151 DUP16 DUP16 PUSH1 0x40 MLOAD SWAP11 DUP12 SWAP11 PUSH1 0xA0 DUP13 MSTORE PUSH1 0xA0 DUP13 ADD SWAP1 PUSH2 0x451B JUMP JUMPDEST SWAP2 DUP11 DUP4 SUB SWAP1 DUP12 ADD MSTORE PUSH2 0x451B JUMP JUMPDEST SWAP1 DUP8 DUP3 SUB PUSH1 0x40 DUP10 ADD MSTORE PUSH2 0x451B JUMP JUMPDEST SWAP1 DUP6 DUP3 SUB PUSH1 0x60 DUP8 ADD MSTORE PUSH2 0x451B JUMP JUMPDEST SWAP1 DUP4 DUP3 SUB PUSH1 0x80 DUP6 ADD MSTORE PUSH2 0x451B JUMP JUMPDEST SUB SWAP1 RETURN JUMPDEST DUP12 DUP12 DUP12 DUP12 DUP11 DUP13 DUP11 PUSH1 0xFF PUSH1 0x4 PUSH2 0x419D DUP11 PUSH1 0x40 DUP15 DUP15 DUP8 DUP3 MSTORE DUP9 MSTORE KECCAK256 PUSH2 0x5B16 JUMP JUMPDEST POP ADD SLOAD AND PUSH2 0x41BB JUMPI JUMPDEST POP POP POP POP POP POP POP PUSH2 0x41B6 SWAP1 PUSH2 0x4808 JUMP JUMPDEST PUSH2 0x4113 JUMP JUMPDEST SWAP5 PUSH2 0x422D SWAP7 SWAP5 PUSH2 0x4227 SWAP5 DUP13 SWAP8 SWAP5 DUP11 PUSH2 0x41F1 DUP2 SWAP16 DUP16 DUP16 SWAP15 PUSH2 0x41B6 SWAP16 DUP3 PUSH1 0x40 SWAP2 PUSH1 0x3 SWAP13 DUP7 SWAP15 PUSH2 0x41EA SWAP7 MSTORE MSTORE KECCAK256 PUSH2 0x5B16 JUMP JUMPDEST POP SWAP7 PUSH2 0x5416 JUMP JUMPDEST MSTORE PUSH2 0x41FE DUP7 DUP6 SLOAD SWAP3 PUSH2 0x5416 JUMP JUMPDEST MSTORE PUSH2 0x420E DUP6 PUSH1 0x1 DUP6 ADD SLOAD SWAP3 PUSH2 0x5416 JUMP JUMPDEST MSTORE PUSH2 0x421E DUP5 PUSH1 0x2 DUP5 ADD SLOAD SWAP3 PUSH2 0x5416 JUMP JUMPDEST MSTORE ADD SLOAD SWAP3 PUSH2 0x5416 JUMP JUMPDEST MSTORE PUSH2 0x4808 JUMP JUMPDEST SWAP4 SWAP1 POP DUP12 DUP12 DUP12 DUP12 DUP11 DUP13 DUP11 PUSH2 0x41A6 JUMP JUMPDEST DUP2 DUP8 MSTORE DUP4 DUP4 MSTORE PUSH1 0xFF PUSH1 0x4 PUSH2 0x4253 DUP4 PUSH1 0x40 DUP12 KECCAK256 PUSH2 0x5B16 JUMP JUMPDEST POP ADD SLOAD AND PUSH2 0x426A JUMPI JUMPDEST PUSH2 0x4265 SWAP1 PUSH2 0x4808 JUMP JUMPDEST PUSH2 0x40D6 JUMP JUMPDEST SWAP4 PUSH2 0x4277 PUSH2 0x4265 SWAP2 PUSH2 0x4808 JUMP JUMPDEST SWAP5 SWAP1 POP PUSH2 0x425C JUMP JUMPDEST POP CALLVALUE PUSH2 0x31C JUMPI PUSH1 0x20 CALLDATASIZE PUSH1 0x3 NOT ADD SLT PUSH2 0x31C JUMPI PUSH2 0x4309 SWAP1 PUSH1 0x40 SWAP1 PUSH1 0x1 PUSH1 0x1 PUSH1 0xA0 SHL SUB PUSH2 0x42A8 PUSH2 0x44AF JUMP JUMPDEST AND DUP2 MSTORE PUSH1 0x3 PUSH1 0x20 MSTORE KECCAK256 PUSH1 0xFF PUSH1 0x19 DUP3 ADD SLOAD AND PUSH2 0x4333 PUSH2 0x42C8 PUSH1 0x15 DUP5 ADD PUSH2 0x46B2 JUMP JUMPDEST SWAP3 PUSH2 0x4325 PUSH2 0x42D8 PUSH1 0x16 DUP4 ADD PUSH2 0x46B2 JUMP JUMPDEST SWAP2 PUSH2 0x4317 PUSH2 0x42F4 PUSH1 0x18 PUSH2 0x42ED PUSH1 0x17 DUP6 ADD PUSH2 0x46B2 JUMP JUMPDEST SWAP4 ADD PUSH2 0x46B2 JUMP JUMPDEST SWAP4 PUSH1 0x40 MLOAD SWAP9 DUP10 SWAP9 PUSH1 0xA0 DUP11 MSTORE PUSH1 0xA0 DUP11 ADD SWAP1 PUSH2 0x44DB JUMP JUMPDEST SWAP1 DUP9 DUP3 SUB PUSH1 0x20 DUP11 ADD MSTORE PUSH2 0x44DB JUMP JUMPDEST SWAP1 DUP7 DUP3 SUB PUSH1 0x40 DUP9 ADD MSTORE PUSH2 0x44DB JUMP JUMPDEST SWAP1 DUP5 DUP3 SUB PUSH1 0x60 DUP7 ADD MSTORE PUSH2 0x44DB JUMP JUMPDEST SWAP1 ISZERO ISZERO PUSH1 0x80 DUP4 ADD MSTORE SUB SWAP1 RETURN JUMPDEST POP CALLVALUE PUSH2 0x31C JUMPI DUP1 PUSH1 0x3 NOT CALLDATASIZE ADD SLT PUSH2 0x31C JUMPI PUSH2 0x4358 PUSH2 0x4817 JUMP JUMPDEST CALLER DUP2 MSTORE PUSH1 0x3 PUSH1 0x20 MSTORE PUSH1 0x40 DUP2 KECCAK256 SLOAD PUSH1 0xFF DUP2 AND ISZERO PUSH2 0x825 JUMPI PUSH1 0x8 SHR PUSH1 0xFF AND PUSH2 0x813 JUMPI PUSH1 0x40 MLOAD PUSH4 0x23B872DD PUSH1 0xE0 SHL DUP2 MSTORE CALLER PUSH1 0x4 DUP3 ADD MSTORE ADDRESS PUSH1 0x24 DUP3 ADD MSTORE PUSH9 0x70C1CC73B00C80000 PUSH1 0x44 DUP3 ADD MSTORE PUSH1 0x20 DUP2 PUSH1 0x64 DUP2 DUP6 PUSH32 0x0 PUSH1 0x1 PUSH1 0x1 PUSH1 0xA0 SHL SUB AND GAS CALL SWAP1 DUP2 ISZERO PUSH2 0xAE9 JUMPI DUP3 SWAP2 PUSH2 0x43F0 JUMPI JUMPDEST POP ISZERO PUSH2 0xAF8 JUMPI PUSH2 0x7D8 CALLER PUSH2 0x4B49 JUMP JUMPDEST SWAP1 POP PUSH1 0x20 DUP2 RETURNDATASIZE DUP3 GT PUSH2 0x4421 JUMPI JUMPDEST DUP2 PUSH2 0x440A PUSH1 0x20 SWAP4 DUP4 PUSH2 0x468F JUMP JUMPDEST DUP2 ADD SUB SLT PUSH2 0xAF4 JUMPI PUSH2 0x441B SWAP1 PUSH2 0x47E0 JUMP JUMPDEST CODESIZE PUSH2 0x43E1 JUMP JUMPDEST RETURNDATASIZE SWAP2 POP PUSH2 0x43FD JUMP JUMPDEST POP CALLVALUE PUSH2 0x31C JUMPI PUSH1 0x20 CALLDATASIZE PUSH1 0x3 NOT ADD SLT PUSH2 0x31C JUMPI PUSH1 0x40 SWAP1 DUP2 SWAP1 PUSH1 0x1 PUSH1 0x1 PUSH1 0xA0 SHL SUB PUSH2 0x4450 PUSH2 0x44AF JUMP JUMPDEST AND DUP2 MSTORE PUSH1 0x3 PUSH1 0x20 MSTORE KECCAK256 PUSH1 0x10 PUSH1 0xF DUP3 ADD SLOAD SWAP2 ADD SLOAD DUP3 MLOAD SWAP2 DUP3 MSTORE PUSH1 0x20 DUP3 ADD MSTORE RETURN JUMPDEST POP CALLVALUE PUSH2 0x31C JUMPI DUP1 PUSH1 0x3 NOT CALLDATASIZE ADD SLT PUSH2 0x31C JUMPI PUSH1 0x20 PUSH1 0x40 MLOAD PUSH9 0x70C1CC73B00C80000 DUP2 MSTORE RETURN JUMPDEST SWAP1 POP CALLVALUE PUSH2 0xAF4 JUMPI DUP2 PUSH1 0x3 NOT CALLDATASIZE ADD SLT PUSH2 0xAF4 JUMPI PUSH1 0x20 SWAP1 PUSH1 0x7 SLOAD DUP2 MSTORE RETURN JUMPDEST PUSH1 0x4 CALLDATALOAD SWAP1 PUSH1 0x1 PUSH1 0x1 PUSH1 0xA0 SHL SUB DUP3 AND DUP3 SUB PUSH2 0xB89 JUMPI JUMP JUMPDEST PUSH1 0x24 CALLDATALOAD SWAP1 PUSH1 0x1 PUSH1 0x1 PUSH1 0xA0 SHL SUB DUP3 AND DUP3 SUB PUSH2 0xB89 JUMPI JUMP JUMPDEST SWAP2 SWAP1 DUP3 MLOAD SWAP3 DUP4 DUP3 MSTORE PUSH1 0x0 JUMPDEST DUP5 DUP2 LT PUSH2 0x4507 JUMPI POP POP DUP3 PUSH1 0x0 PUSH1 0x20 DUP1 SWAP5 SWAP6 DUP5 ADD ADD MSTORE PUSH1 0x1F DUP1 NOT SWAP2 ADD AND ADD ADD SWAP1 JUMP JUMPDEST PUSH1 0x20 DUP2 DUP4 ADD DUP2 ADD MLOAD DUP5 DUP4 ADD DUP3 ADD MSTORE ADD PUSH2 0x44E6 JUMP JUMPDEST SWAP1 DUP2 MLOAD DUP1 DUP3 MSTORE PUSH1 0x20 DUP1 DUP1 SWAP4 ADD SWAP4 ADD SWAP2 PUSH1 0x0 JUMPDEST DUP3 DUP2 LT PUSH2 0x453B JUMPI POP POP POP POP SWAP1 JUMP JUMPDEST DUP4 MLOAD DUP6 MSTORE SWAP4 DUP2 ADD SWAP4 SWAP3 DUP2 ADD SWAP3 PUSH1 0x1 ADD PUSH2 0x452D JUMP JUMPDEST PUSH1 0x40 SWAP1 PUSH1 0x3 NOT ADD SLT PUSH2 0xB89 JUMPI PUSH1 0x4 CALLDATALOAD SWAP1 PUSH1 0x24 CALLDATALOAD SWAP1 JUMP JUMPDEST CALLVALUE PUSH2 0xB89 JUMPI PUSH1 0x0 CALLDATASIZE PUSH1 0x3 NOT ADD SLT PUSH2 0xB89 JUMPI PUSH1 0x20 PUSH1 0x40 MLOAD PUSH1 0x1E DUP2 MSTORE RETURN JUMPDEST SWAP2 DUP2 PUSH1 0x1F DUP5 ADD SLT ISZERO PUSH2 0xB89 JUMPI DUP3 CALLDATALOAD SWAP2 PUSH1 0x1 PUSH1 0x1 PUSH1 0x40 SHL SUB DUP4 GT PUSH2 0xB89 JUMPI PUSH1 0x20 DUP4 DUP2 DUP7 ADD SWAP6 ADD ADD GT PUSH2 0xB89 JUMPI JUMP JUMPDEST PUSH1 0x60 SWAP1 PUSH1 0x3 NOT ADD SLT PUSH2 0xB89 JUMPI PUSH1 0x4 CALLDATALOAD PUSH1 0x1 PUSH1 0x1 PUSH1 0xA0 SHL SUB DUP2 AND DUP2 SUB PUSH2 0xB89 JUMPI SWAP1 PUSH1 0x24 CALLDATALOAD SWAP1 PUSH1 0x44 CALLDATALOAD SWAP1 JUMP JUMPDEST PUSH1 0x24 CALLDATALOAD SWAP1 DUP2 ISZERO ISZERO DUP3 SUB PUSH2 0xB89 JUMPI JUMP JUMPDEST PUSH1 0x44 CALLDATALOAD SWAP1 DUP2 ISZERO ISZERO DUP3 SUB PUSH2 0xB89 JUMPI JUMP JUMPDEST PUSH1 0x4 SLOAD DUP2 LT ISZERO PUSH2 0x4611 JUMPI PUSH1 0x4 PUSH1 0x0 MSTORE PUSH1 0x20 PUSH1 0x0 KECCAK256 ADD SWAP1 PUSH1 0x0 SWAP1 JUMP JUMPDEST PUSH4 0x4E487B71 PUSH1 0xE0 SHL PUSH1 0x0 MSTORE PUSH1 0x32 PUSH1 0x4 MSTORE PUSH1 0x24 PUSH1 0x0 REVERT JUMPDEST SWAP1 PUSH1 0x1 DUP3 DUP2 SHR SWAP3 AND DUP1 ISZERO PUSH2 0x4657 JUMPI JUMPDEST PUSH1 0x20 DUP4 LT EQ PUSH2 0x4641 JUMPI JUMP JUMPDEST PUSH4 0x4E487B71 PUSH1 0xE0 SHL PUSH1 0x0 MSTORE PUSH1 0x22 PUSH1 0x4 MSTORE PUSH1 0x24 PUSH1 0x0 REVERT JUMPDEST SWAP2 PUSH1 0x7F AND SWAP2 PUSH2 0x4636 JUMP JUMPDEST PUSH1 0xA0 DUP2 ADD SWAP1 DUP2 LT PUSH1 0x1 PUSH1 0x1 PUSH1 0x40 SHL SUB DUP3 GT OR PUSH2 0x5BC JUMPI PUSH1 0x40 MSTORE JUMP JUMPDEST PUSH1 0x1 PUSH1 0x1 PUSH1 0x40 SHL SUB DUP2 GT PUSH2 0x5BC JUMPI PUSH1 0x40 MSTORE JUMP JUMPDEST PUSH1 0x1F SWAP1 SWAP2 ADD PUSH1 0x1F NOT AND DUP2 ADD SWAP1 PUSH1 0x1 PUSH1 0x1 PUSH1 0x40 SHL SUB DUP3 GT SWAP1 DUP3 LT OR PUSH2 0x5BC JUMPI PUSH1 0x40 MSTORE JUMP JUMPDEST SWAP1 PUSH1 0x40 MLOAD SWAP2 DUP3 PUSH1 0x0 DUP3 SLOAD SWAP3 PUSH2 0x46C6 DUP5 PUSH2 0x4627 JUMP JUMPDEST SWAP1 DUP2 DUP5 MSTORE PUSH1 0x1 SWAP5 DUP6 DUP2 AND SWAP1 DUP2 PUSH1 0x0 EQ PUSH2 0x4735 JUMPI POP PUSH1 0x1 EQ PUSH2 0x46F2 JUMPI JUMPDEST POP POP PUSH2 0x46F0 SWAP3 POP SUB DUP4 PUSH2 0x468F JUMP JUMPDEST JUMP JUMPDEST SWAP1 SWAP4 SWAP2 POP PUSH1 0x0 MSTORE PUSH1 0x20 SWAP1 DUP2 PUSH1 0x0 KECCAK256 SWAP4 PUSH1 0x0 SWAP2 JUMPDEST DUP2 DUP4 LT PUSH2 0x471D JUMPI POP POP PUSH2 0x46F0 SWAP4 POP DUP3 ADD ADD CODESIZE DUP1 PUSH2 0x46E2 JUMP JUMPDEST DUP6 SLOAD DUP9 DUP5 ADD DUP6 ADD MSTORE SWAP5 DUP6 ADD SWAP5 DUP8 SWAP5 POP SWAP2 DUP4 ADD SWAP2 PUSH2 0x4705 JUMP JUMPDEST SWAP2 POP POP PUSH2 0x46F0 SWAP5 POP PUSH1 0x20 SWAP3 POP PUSH1 0xFF NOT AND DUP3 DUP5 ADD MSTORE ISZERO ISZERO PUSH1 0x5 SHL DUP3 ADD ADD CODESIZE DUP1 PUSH2 0x46E2 JUMP JUMPDEST PUSH1 0x0 SLOAD PUSH1 0x1 PUSH1 0x1 PUSH1 0xA0 SHL SUB AND CALLER SUB PUSH2 0x476C JUMPI JUMP JUMPDEST PUSH1 0x40 MLOAD PUSH4 0x118CDAA7 PUSH1 0xE0 SHL DUP2 MSTORE CALLER PUSH1 0x4 DUP3 ADD MSTORE PUSH1 0x24 SWAP1 REVERT JUMPDEST ISZERO PUSH2 0x478B JUMPI JUMP JUMPDEST PUSH1 0x40 MLOAD PUSH3 0x461BCD PUSH1 0xE5 SHL DUP2 MSTORE PUSH1 0x20 PUSH1 0x4 DUP3 ADD MSTORE PUSH1 0xA PUSH1 0x24 DUP3 ADD MSTORE PUSH10 0x4E6F7420616374697665 PUSH1 0xB0 SHL PUSH1 0x44 DUP3 ADD MSTORE PUSH1 0x64 SWAP1 REVERT JUMPDEST SWAP2 SWAP1 DUP3 SUB SWAP2 DUP3 GT PUSH2 0x47CA JUMPI JUMP JUMPDEST PUSH4 0x4E487B71 PUSH1 0xE0 SHL PUSH1 0x0 MSTORE PUSH1 0x11 PUSH1 0x4 MSTORE PUSH1 0x24 PUSH1 0x0 REVERT JUMPDEST MLOAD SWAP1 DUP2 ISZERO ISZERO DUP3 SUB PUSH2 0xB89 JUMPI JUMP JUMPDEST PUSH1 0x1 PUSH1 0x1 PUSH1 0xA0 SHL SUB SWAP1 SWAP2 AND DUP2 MSTORE PUSH1 0x20 DUP2 ADD SWAP2 SWAP1 SWAP2 MSTORE PUSH1 0x40 ADD SWAP1 JUMP JUMPDEST PUSH1 0x0 NOT DUP2 EQ PUSH2 0x47CA JUMPI PUSH1 0x1 ADD SWAP1 JUMP JUMPDEST PUSH1 0x0 DUP1 MLOAD PUSH1 0x20 PUSH2 0x5FB7 DUP4 CODECOPY DUP2 MLOAD SWAP2 MSTORE PUSH1 0x2 DUP2 SLOAD EQ PUSH2 0x4835 JUMPI PUSH1 0x2 SWAP1 SSTORE JUMP JUMPDEST PUSH1 0x40 MLOAD PUSH4 0x3EE5AEB5 PUSH1 0xE0 SHL DUP2 MSTORE PUSH1 0x4 SWAP1 REVERT JUMPDEST DUP1 SLOAD DUP3 LT ISZERO PUSH2 0x4611 JUMPI PUSH1 0x0 MSTORE PUSH1 0x3 PUSH1 0x20 PUSH1 0x0 KECCAK256 SWAP2 MUL ADD SWAP1 PUSH1 0x0 SWAP1 JUMP JUMPDEST SWAP1 SWAP3 SWAP2 SWAP3 PUSH1 0x1 DUP1 PUSH1 0xA0 SHL SUB DUP1 PUSH1 0x0 SWAP4 AND DUP4 MSTORE PUSH1 0xE PUSH1 0x20 MSTORE PUSH1 0x40 DUP4 KECCAK256 PUSH1 0x40 MLOAD SWAP1 PUSH2 0x488B DUP3 PUSH2 0x4661 JUMP JUMPDEST PUSH1 0x1 DUP3 MSTORE PUSH1 0x20 DUP3 ADD SWAP3 PUSH4 0xFFFFFFFF TIMESTAMP AND DUP5 MSTORE PUSH1 0x40 DUP4 ADD SWAP5 DUP6 MSTORE PUSH1 0xFF PUSH1 0x60 DUP5 ADD SWAP9 AND DUP9 MSTORE PUSH1 0x80 DUP4 ADD SWAP7 AND DUP7 MSTORE DUP1 SLOAD SWAP1 PUSH1 0x1 PUSH1 0x40 SHL DUP3 LT ISZERO PUSH2 0x1A77 JUMPI SWAP1 PUSH2 0x48D5 SWAP2 PUSH1 0x1 DUP3 ADD DUP2 SSTORE PUSH2 0x4847 JUMP JUMPDEST SWAP5 SWAP1 SWAP5 PUSH2 0x493A JUMPI POP MLOAD DUP4 SLOAD SWAP2 MLOAD PUSH5 0xFFFFFFFFFF NOT SWAP1 SWAP3 AND PUSH1 0xFF SWAP2 DUP3 AND OR PUSH1 0x8 SWAP3 DUP4 SHL PUSH5 0xFFFFFFFF00 AND OR DUP5 SSTORE SWAP2 MLOAD PUSH1 0x1 DUP5 ADD SSTORE SWAP4 MLOAD PUSH1 0x2 SWAP1 SWAP3 ADD DUP1 SLOAD SWAP4 MLOAD PUSH1 0x1 PUSH1 0x1 PUSH1 0xA8 SHL SUB NOT SWAP1 SWAP5 AND SWAP3 SWAP1 SWAP2 AND SWAP2 SWAP1 SWAP2 OR SWAP2 SWAP1 SWAP3 SHL PUSH2 0x100 PUSH1 0x1 PUSH1 0xA8 SHL SUB AND OR SWAP1 SSTORE JUMP JUMPDEST PUSH4 0x4E487B71 PUSH1 0xE0 SHL DUP2 MSTORE PUSH1 0x4 DUP2 SWAP1 MSTORE PUSH1 0x24 SWAP1 REVERT JUMPDEST ISZERO PUSH2 0x4955 JUMPI JUMP JUMPDEST PUSH1 0x40 MLOAD PUSH3 0x461BCD PUSH1 0xE5 SHL DUP2 MSTORE PUSH1 0x20 PUSH1 0x4 DUP3 ADD MSTORE PUSH1 0x2 PUSH1 0x24 DUP3 ADD MSTORE PUSH2 0x5A41 PUSH1 0xF0 SHL PUSH1 0x44 DUP3 ADD MSTORE PUSH1 0x64 SWAP1 REVERT JUMPDEST SWAP2 SWAP1 DUP3 ADD DUP1 SWAP3 GT PUSH2 0x47CA JUMPI JUMP JUMPDEST PUSH1 0x1 PUSH1 0x1 PUSH1 0xA0 SHL SUB SWAP1 DUP2 AND PUSH1 0x0 DUP2 DUP2 MSTORE PUSH1 0x3 PUSH1 0x20 MSTORE PUSH1 0x40 SWAP1 KECCAK256 DUP1 SLOAD PUSH2 0xFF01 PUSH1 0x1 PUSH1 0xB0 SHL SUB NOT AND PUSH1 0x10 SWAP5 SWAP1 SWAP5 SHL PUSH3 0x10000 PUSH1 0x1 PUSH1 0xB0 SHL SUB AND SWAP4 SWAP1 SWAP4 OR PUSH1 0x1 OR DUP4 SSTORE PUSH1 0x2 DUP4 ADD DUP1 SLOAD PUSH1 0x1 PUSH1 0x1 PUSH1 0xA8 SHL SUB NOT AND SWAP5 DUP4 AND SWAP5 SWAP1 SWAP5 OR SWAP5 ISZERO ISZERO PUSH1 0xA0 SHL PUSH1 0xFF PUSH1 0xA0 SHL AND SWAP5 SWAP1 SWAP5 OR SWAP1 SWAP3 SSTORE PUSH1 0x12 DUP2 ADD DUP1 SLOAD PUSH1 0x1 PUSH1 0x1 PUSH1 0xA0 SHL SUB NOT AND SWAP1 SSTORE TIMESTAMP PUSH1 0x14 SWAP1 SWAP2 ADD SSTORE PUSH1 0x4 SLOAD SWAP1 SWAP2 SWAP1 PUSH1 0x1 PUSH1 0x40 SHL DUP2 LT ISZERO PUSH2 0x5BC JUMPI DUP1 PUSH1 0x1 PUSH2 0x4A31 SWAP3 ADD PUSH1 0x4 SSTORE PUSH2 0x45F6 JUMP JUMPDEST SWAP1 SWAP3 DUP4 SLOAD SWAP2 PUSH1 0x3 SHL SWAP3 DUP4 SHL SWAP3 SHL NOT AND OR SWAP1 SSTORE PUSH2 0x4A4E PUSH1 0x5 SLOAD PUSH2 0x4808 JUMP JUMPDEST PUSH1 0x5 SSTORE JUMP JUMPDEST PUSH1 0x1 DUP1 PUSH1 0xA0 SHL SUB SWAP2 DUP3 PUSH1 0x0 SWAP3 AND DUP3 MSTORE PUSH1 0x3 SWAP2 PUSH1 0x20 SWAP3 DUP1 DUP5 MSTORE PUSH1 0x2 SWAP2 PUSH1 0x40 SWAP2 DUP4 DUP4 DUP4 KECCAK256 ADD SLOAD SWAP6 DUP8 DUP8 AND SWAP6 PUSH1 0xFF SWAP7 DUP10 DUP9 PUSH1 0xA0 SWAP11 DUP12 SHR AND SWAP2 JUMPDEST AND SWAP1 DUP2 ISZERO PUSH2 0x4AE5 JUMPI ISZERO PUSH2 0x4AC8 JUMPI DUP1 DUP6 MSTORE DUP4 DUP4 MSTORE PUSH1 0x5 DUP7 DUP7 KECCAK256 ADD PUSH2 0x4AAC DUP2 SLOAD PUSH2 0x4808 JUMP JUMPDEST SWAP1 SSTORE JUMPDEST DUP5 MSTORE DUP3 DUP3 MSTORE DUP6 DUP6 DUP6 KECCAK256 ADD SLOAD DUP10 DUP1 DUP10 DUP4 DUP13 SHR AND SWAP3 AND PUSH2 0x4A89 JUMP JUMPDEST DUP1 DUP6 MSTORE DUP4 DUP4 MSTORE PUSH1 0x6 DUP7 DUP7 KECCAK256 ADD PUSH2 0x4ADE DUP2 SLOAD PUSH2 0x4808 JUMP JUMPDEST SWAP1 SSTORE PUSH2 0x4AAF JUMP JUMPDEST POP POP SWAP8 POP POP POP POP POP POP POP POP JUMP JUMPDEST DUP2 DUP2 MUL SWAP3 SWAP2 DUP2 ISZERO SWAP2 DUP5 DIV EQ OR ISZERO PUSH2 0x47CA JUMPI JUMP JUMPDEST DUP2 ISZERO PUSH2 0x4B0F JUMPI DIV SWAP1 JUMP JUMPDEST PUSH4 0x4E487B71 PUSH1 0xE0 SHL PUSH1 0x0 MSTORE PUSH1 0x12 PUSH1 0x4 MSTORE PUSH1 0x24 PUSH1 0x0 REVERT JUMPDEST SWAP2 SWAP3 PUSH1 0x80 SWAP4 SWAP7 SWAP6 SWAP5 SWAP2 SWAP7 PUSH1 0xA0 DUP5 ADD SWAP8 DUP5 MSTORE PUSH1 0x20 DUP5 ADD MSTORE PUSH1 0x40 DUP4 ADD MSTORE PUSH1 0x60 DUP3 ADD MSTORE ADD MSTORE JUMP JUMPDEST PUSH1 0x1 SLOAD PUSH1 0x40 MLOAD PUSH3 0x3144BD PUSH1 0xE3 SHL DUP2 MSTORE SWAP2 SWAP3 PUSH1 0x0 SWAP2 PUSH1 0x1 PUSH1 0x1 PUSH1 0xA0 SHL SUB AND PUSH1 0x20 DUP5 PUSH1 0x4 DUP2 DUP5 GAS STATICCALL SWAP4 DUP5 ISZERO PUSH2 0xFC3 JUMPI DUP4 SWAP5 PUSH2 0x5236 JUMPI JUMPDEST POP DUP4 ISZERO PUSH2 0x5222 JUMPI PUSH1 0x40 MLOAD PUSH4 0x95EA7B3 PUSH1 0xE0 SHL DUP2 MSTORE PUSH1 0x4 DUP2 ADD SWAP2 SWAP1 SWAP2 MSTORE PUSH9 0x70C1CC73B00C80000 PUSH1 0x24 DUP3 ADD MSTORE PUSH1 0x20 DUP2 PUSH1 0x44 DUP2 DUP7 PUSH32 0x0 PUSH1 0x1 PUSH1 0x1 PUSH1 0xA0 SHL SUB AND GAS CALL DUP1 ISZERO PUSH2 0xFC3 JUMPI PUSH2 0x51E9 JUMPI JUMPDEST POP PUSH1 0x1 SLOAD PUSH1 0x40 MLOAD PUSH4 0x70A08231 PUSH1 0xE0 SHL DUP1 DUP3 MSTORE ADDRESS PUSH1 0x4 DUP4 ADD MSTORE SWAP2 PUSH1 0x1 PUSH1 0x1 PUSH1 0xA0 SHL SUB AND PUSH1 0x20 DUP3 PUSH1 0x24 DUP2 DUP5 GAS STATICCALL SWAP2 DUP3 ISZERO PUSH2 0x51AA JUMPI DUP6 SWAP3 PUSH2 0x51B5 JUMPI JUMPDEST POP DUP1 EXTCODESIZE ISZERO PUSH2 0x310C JUMPI DUP5 DUP1 SWAP2 PUSH1 0x44 PUSH1 0x40 MLOAD DUP1 SWAP5 DUP2 SWAP4 PUSH4 0x4E538D93 PUSH1 0xE1 SHL DUP4 MSTORE ADDRESS PUSH1 0x4 DUP5 ADD MSTORE PUSH9 0x70C1CC73B00C80000 PUSH1 0x24 DUP5 ADD MSTORE GAS CALL DUP1 ISZERO PUSH2 0x51AA JUMPI PUSH2 0x5197 JUMPI JUMPDEST POP PUSH1 0x1 SLOAD PUSH1 0x40 MLOAD SWAP3 DUP4 MSTORE ADDRESS PUSH1 0x4 DUP5 ADD MSTORE PUSH1 0x20 SWAP1 DUP4 SWAP1 PUSH1 0x24 SWAP1 DUP3 SWAP1 PUSH1 0x1 PUSH1 0x1 PUSH1 0xA0 SHL SUB AND GAS STATICCALL DUP1 ISZERO PUSH2 0x1138 JUMPI DUP5 SWAP1 PUSH2 0x5163 JUMPI JUMPDEST PUSH2 0x4C9B SWAP3 POP PUSH2 0x47BD JUMP JUMPDEST SWAP4 PUSH1 0x1E PUSH12 0x30E68B6D6E0ACC828633631 PUSH1 0x25 SHL DUP6 SWAP1 DIV DUP2 DUP2 MUL SWAP6 SWAP2 DUP2 DUP8 DIV EQ SWAP1 ISZERO OR ISZERO PUSH2 0x30B0 JUMPI PUSH2 0x4D08 PUSH2 0x188A PUSH2 0x4CED PUSH1 0x64 DUP9 DIV PUSH2 0x18A0 DUP2 DUP2 DUP2 PUSH12 0x30E68B6D6E0ACC828633631 PUSH1 0x25 SHL DUP10 SWAP1 DIV PUSH2 0x47BD JUMP JUMPDEST PUSH2 0x4CFC PUSH1 0x64 DUP10 DIV PUSH1 0x6 SLOAD PUSH2 0x497F JUMP JUMPDEST PUSH1 0x6 SSTORE PUSH1 0x64 DUP9 DIV PUSH2 0x497F JUMP JUMPDEST PUSH1 0x8 SSTORE PUSH1 0x1 PUSH1 0x1 PUSH1 0xA0 SHL SUB DUP3 DUP2 AND DUP6 MSTORE PUSH1 0x3 PUSH1 0x20 MSTORE PUSH1 0x40 DUP6 KECCAK256 DUP1 SLOAD PUSH2 0xFF00 NOT AND PUSH2 0x100 OR DUP1 DUP3 SSTORE PUSH9 0x15245655B102580000 PUSH1 0xB SWAP1 SWAP3 ADD SWAP2 SWAP1 SWAP2 SSTORE SWAP5 SWAP7 DUP8 SWAP6 PUSH1 0x1 SWAP6 SWAP3 PUSH1 0x10 SWAP2 SWAP1 SWAP2 SHR AND JUMPDEST PUSH1 0xA PUSH1 0xFF DUP8 AND GT ISZERO DUP1 PUSH2 0x5151 JUMPI JUMPDEST ISZERO PUSH2 0x4FEC JUMPI PUSH2 0x4D81 DUP7 PUSH12 0x30E68B6D6E0ACC828633631 PUSH1 0x25 SHL DUP7 SWAP1 DIV PUSH2 0x5290 JUMP JUMPDEST SWAP9 DUP10 ISZERO PUSH2 0x4FC4 JUMPI DUP10 PUSH2 0x4D92 SWAP2 PUSH2 0x497F JUMP JUMPDEST SWAP9 PUSH1 0x1 DUP1 PUSH1 0xA0 SHL SUB DUP3 AND DUP9 MSTORE PUSH1 0x3 PUSH1 0x20 MSTORE DUP6 DUP8 PUSH1 0x40 DUP11 KECCAK256 PUSH1 0xFF DUP2 SLOAD PUSH1 0x8 SHR AND SWAP1 DUP2 PUSH2 0x4FAD JUMPI JUMPDEST POP ISZERO PUSH2 0x4E82 JUMPI PUSH2 0x4E57 SWAP3 PUSH1 0x1 DUP1 PUSH1 0xA0 SHL SUB DUP6 AND DUP12 MSTORE PUSH1 0x3 PUSH1 0x20 MSTORE PUSH1 0x8 PUSH1 0x40 DUP13 KECCAK256 ADD PUSH2 0x4DE4 DUP3 DUP3 SLOAD PUSH2 0x497F JUMP JUMPDEST SWAP1 SSTORE PUSH1 0x1 PUSH1 0x1 PUSH1 0xA0 SHL SUB DUP6 AND DUP12 MSTORE PUSH1 0x3 PUSH1 0x20 MSTORE PUSH1 0x40 DUP12 KECCAK256 PUSH1 0x9 ADD DUP1 SLOAD PUSH2 0x4E0B SWAP1 DUP4 SWAP1 PUSH2 0x497F JUMP JUMPDEST SWAP1 SSTORE PUSH1 0x40 MLOAD PUSH1 0x1 PUSH1 0x1 PUSH1 0xA0 SHL SUB DUP5 DUP2 AND SWAP2 SWAP1 DUP8 AND SWAP1 PUSH32 0xB16479BDAC5B7099D9236D6FC6BE3B30FF54188F4FD961686E1E1DC7ECB88037 SWAP1 DUP1 PUSH2 0x4E4E DUP7 DUP9 DUP4 PUSH2 0x527B JUMP JUMPDEST SUB SWAP1 LOG3 DUP5 PUSH2 0x4863 JUMP JUMPDEST PUSH1 0x1 PUSH1 0x1 PUSH1 0xA0 SHL SUB SWAP1 DUP2 AND DUP8 MSTORE PUSH1 0x3 PUSH1 0x20 MSTORE PUSH1 0x40 DUP8 KECCAK256 SLOAD PUSH1 0x10 SHR AND SWAP5 PUSH2 0x4E7C SWAP1 PUSH2 0x526A JUMP JUMPDEST SWAP5 PUSH2 0x4D52 JUMP JUMPDEST POP POP PUSH2 0x4E90 DUP2 PUSH1 0x8 SLOAD PUSH2 0x497F JUMP JUMPDEST PUSH1 0x8 SSTORE PUSH1 0x40 MLOAD PUSH1 0x1 PUSH1 0x1 PUSH1 0xA0 SHL SUB DUP4 AND SWAP1 PUSH32 0x117CA0CD821ECB7EADFEA2D6927A67853908BDC351A386235215F5AB6071BFED SWAP1 DUP1 PUSH2 0x4ECF DUP6 DUP13 DUP4 PUSH2 0x527B JUMP JUMPDEST SUB SWAP1 LOG2 PUSH1 0x1 DUP1 PUSH1 0xA0 SHL SUB DUP3 AND PUSH1 0x0 MSTORE PUSH1 0xE PUSH1 0x20 MSTORE PUSH1 0x40 PUSH1 0x0 KECCAK256 PUSH1 0x40 MLOAD SWAP2 PUSH2 0x4EF5 DUP4 PUSH2 0x4661 JUMP JUMPDEST PUSH1 0x2 DUP4 MSTORE TIMESTAMP PUSH4 0xFFFFFFFF AND PUSH1 0x20 DUP5 ADD MSTORE PUSH1 0x40 DUP4 ADD MSTORE PUSH1 0xFF DUP9 AND PUSH1 0x60 DUP4 ADD MSTORE PUSH1 0x0 PUSH1 0x80 DUP4 ADD MSTORE DUP1 SLOAD PUSH1 0x1 PUSH1 0x40 SHL DUP2 LT ISZERO PUSH2 0x5BC JUMPI PUSH2 0x4F37 SWAP2 PUSH1 0x1 DUP3 ADD DUP2 SSTORE PUSH2 0x4847 JUMP JUMPDEST PUSH2 0x5A6 JUMPI DUP2 MLOAD DUP2 SLOAD PUSH1 0x20 DUP5 ADD MLOAD PUSH5 0xFFFFFFFFFF NOT SWAP1 SWAP2 AND PUSH1 0xFF SWAP3 DUP4 AND OR PUSH1 0x8 SWAP2 DUP3 SHL PUSH5 0xFFFFFFFF00 AND OR DUP4 SSTORE PUSH1 0x40 DUP5 ADD MLOAD PUSH1 0x1 DUP5 ADD SSTORE PUSH1 0x60 DUP5 ADD MLOAD PUSH1 0x2 SWAP4 SWAP1 SWAP4 ADD DUP1 SLOAD PUSH1 0x80 SWAP1 SWAP6 ADD MLOAD PUSH1 0x1 PUSH1 0x1 PUSH1 0xA8 SHL SUB NOT SWAP1 SWAP6 AND SWAP4 SWAP1 SWAP3 AND SWAP3 SWAP1 SWAP3 OR SWAP3 SWAP1 SWAP2 SHL PUSH2 0x100 PUSH1 0x1 PUSH1 0xA8 SHL SUB AND SWAP2 SWAP1 SWAP2 OR SWAP1 SSTORE PUSH2 0x4E57 JUMP JUMPDEST PUSH1 0x1 SWAP2 POP ADD SLOAD PUSH2 0x4FBC DUP3 PUSH2 0x53DC JUMP JUMPDEST GT ISZERO CODESIZE PUSH2 0x4DB8 JUMP JUMPDEST PUSH1 0x1 PUSH1 0x1 PUSH1 0xA0 SHL SUB SWAP2 DUP3 AND DUP9 MSTORE PUSH1 0x3 PUSH1 0x20 MSTORE PUSH1 0x40 DUP9 KECCAK256 SLOAD SWAP1 SWAP10 POP PUSH1 0x10 SHR AND SWAP5 PUSH2 0x4E7C SWAP1 PUSH2 0x526A JUMP JUMPDEST POP SWAP3 SWAP6 SWAP2 SWAP5 POP SWAP6 PUSH32 0x8AF2C013A5A55C6D3AD5423522FE76C6F2EB831B5E23318276B3C678CB457FC9 SWAP4 POP DUP1 PUSH1 0x64 DUP4 DIV GT PUSH2 0x5138 JUMPI JUMPDEST POP PUSH1 0x40 MLOAD PUSH1 0x1 PUSH1 0x1 PUSH1 0xA0 SHL SUB DUP7 AND SWAP5 SWAP1 SWAP3 DUP4 SWAP3 PUSH2 0x505D SWAP3 PUSH1 0x64 SWAP1 SWAP2 DIV SWAP2 DUP3 SWAP2 DUP3 SWAP2 PUSH12 0x30E68B6D6E0ACC828633631 PUSH1 0x25 SHL SWAP2 SWAP1 SWAP2 DIV SWAP1 DUP7 PUSH2 0x4B25 JUMP JUMPDEST SUB SWAP1 LOG2 PUSH1 0x1 DUP1 PUSH1 0xA0 SHL SUB AND PUSH1 0x0 MSTORE PUSH1 0xE PUSH1 0x20 MSTORE PUSH1 0x40 PUSH1 0x0 KECCAK256 PUSH1 0x40 MLOAD SWAP1 PUSH2 0x5082 DUP3 PUSH2 0x4661 JUMP JUMPDEST PUSH1 0x0 DUP3 MSTORE PUSH1 0x20 DUP3 ADD PUSH4 0xFFFFFFFF TIMESTAMP AND DUP2 MSTORE PUSH1 0x40 DUP4 ADD SWAP3 PUSH9 0x70C1CC73B00C80000 DUP5 MSTORE PUSH1 0x60 DUP2 ADD SWAP4 PUSH1 0x0 DUP6 MSTORE PUSH1 0x80 DUP3 ADD SWAP4 PUSH1 0x0 DUP6 MSTORE DUP1 SLOAD PUSH1 0x1 PUSH1 0x40 SHL DUP2 LT ISZERO PUSH2 0x5BC JUMPI PUSH2 0x50D3 SWAP2 PUSH1 0x1 DUP3 ADD DUP2 SSTORE PUSH2 0x4847 JUMP JUMPDEST SWAP2 SWAP1 SWAP2 PUSH2 0x5A6 JUMPI SWAP2 MLOAD DUP2 SLOAD SWAP4 MLOAD PUSH5 0xFFFFFFFFFF NOT SWAP1 SWAP5 AND PUSH1 0xFF SWAP2 DUP3 AND OR PUSH1 0x8 SWAP5 DUP6 SHL PUSH5 0xFFFFFFFF00 AND OR DUP3 SSTORE SWAP2 MLOAD PUSH1 0x1 DUP3 ADD SSTORE SWAP4 MLOAD PUSH1 0x2 SWAP5 SWAP1 SWAP5 ADD DUP1 SLOAD SWAP4 MLOAD PUSH1 0x1 PUSH1 0x1 PUSH1 0xA8 SHL SUB NOT SWAP1 SWAP5 AND SWAP5 SWAP1 SWAP2 AND SWAP4 SWAP1 SWAP4 OR SWAP2 SWAP1 SHL PUSH2 0x100 PUSH1 0x1 PUSH1 0xA8 SHL SUB AND OR SWAP1 SSTORE JUMP JUMPDEST PUSH2 0x188A PUSH2 0x5148 SWAP2 PUSH1 0x64 DUP5 DIV PUSH2 0x47BD JUMP JUMPDEST PUSH1 0x8 SSTORE CODESIZE PUSH2 0x5021 JUMP JUMPDEST POP PUSH1 0x1 PUSH1 0x1 PUSH1 0xA0 SHL SUB DUP2 AND ISZERO ISZERO PUSH2 0x4D60 JUMP JUMPDEST POP PUSH1 0x20 DUP3 RETURNDATASIZE PUSH1 0x20 GT PUSH2 0x518F JUMPI JUMPDEST DUP2 PUSH2 0x517D PUSH1 0x20 SWAP4 DUP4 PUSH2 0x468F JUMP JUMPDEST DUP2 ADD SUB SLT PUSH2 0xB89 JUMPI PUSH2 0x4C9B SWAP2 MLOAD PUSH2 0x4C91 JUMP JUMPDEST RETURNDATASIZE SWAP2 POP PUSH2 0x5170 JUMP JUMPDEST PUSH2 0x51A3 SWAP1 SWAP5 SWAP2 SWAP5 PUSH2 0x467C JUMP JUMPDEST SWAP3 CODESIZE PUSH2 0x4C5F JUMP JUMPDEST PUSH1 0x40 MLOAD RETURNDATASIZE DUP8 DUP3 RETURNDATACOPY RETURNDATASIZE SWAP1 REVERT JUMPDEST SWAP1 SWAP2 POP PUSH1 0x20 DUP2 RETURNDATASIZE PUSH1 0x20 GT PUSH2 0x51E1 JUMPI JUMPDEST DUP2 PUSH2 0x51D1 PUSH1 0x20 SWAP4 DUP4 PUSH2 0x468F JUMP JUMPDEST DUP2 ADD SUB SLT PUSH2 0x310C JUMPI MLOAD SWAP1 CODESIZE PUSH2 0x4C1F JUMP JUMPDEST RETURNDATASIZE SWAP2 POP PUSH2 0x51C4 JUMP JUMPDEST PUSH1 0x20 DUP2 RETURNDATASIZE PUSH1 0x20 GT PUSH2 0x521A JUMPI JUMPDEST DUP2 PUSH2 0x5202 PUSH1 0x20 SWAP4 DUP4 PUSH2 0x468F JUMP JUMPDEST DUP2 ADD SUB SLT PUSH2 0xFB7 JUMPI PUSH2 0x5213 SWAP1 PUSH2 0x47E0 JUMP JUMPDEST POP CODESIZE PUSH2 0x4BE6 JUMP JUMPDEST RETURNDATASIZE SWAP2 POP PUSH2 0x51F5 JUMP JUMPDEST PUSH4 0x4E487B71 PUSH1 0xE0 SHL DUP4 MSTORE PUSH1 0x12 PUSH1 0x4 MSTORE PUSH1 0x24 DUP4 REVERT JUMPDEST SWAP1 SWAP4 POP PUSH1 0x20 DUP2 RETURNDATASIZE PUSH1 0x20 GT PUSH2 0x5262 JUMPI JUMPDEST DUP2 PUSH2 0x5252 PUSH1 0x20 SWAP4 DUP4 PUSH2 0x468F JUMP JUMPDEST DUP2 ADD SUB SLT PUSH2 0xFB7 JUMPI MLOAD SWAP3 CODESIZE PUSH2 0x4B7D JUMP JUMPDEST RETURNDATASIZE SWAP2 POP PUSH2 0x5245 JUMP JUMPDEST PUSH1 0xFF AND PUSH1 0xFF DUP2 EQ PUSH2 0x47CA JUMPI PUSH1 0x1 ADD SWAP1 JUMP JUMPDEST PUSH1 0x20 SWAP1 SWAP4 SWAP3 SWAP2 SWAP4 PUSH1 0xFF PUSH1 0x40 DUP3 ADD SWAP6 AND DUP2 MSTORE ADD MSTORE JUMP JUMPDEST SWAP1 PUSH1 0xFF AND PUSH1 0x1 DUP2 EQ PUSH2 0x53C1 JUMPI PUSH1 0x2 DUP2 EQ PUSH2 0x53A6 JUMPI PUSH1 0x3 DUP2 EQ PUSH2 0x538B JUMPI PUSH1 0x4 SWAP1 DUP2 DUP2 EQ PUSH2 0x5374 JUMPI PUSH1 0x5 DUP2 EQ PUSH2 0x5357 JUMPI PUSH1 0x6 DUP2 EQ PUSH2 0x5357 JUMPI PUSH1 0x7 DUP2 EQ PUSH2 0x533A JUMPI PUSH1 0x8 DUP2 EQ PUSH2 0x533A JUMPI PUSH1 0x9 DUP2 EQ PUSH2 0x531D JUMPI PUSH1 0xA EQ PUSH2 0x52EC JUMPI POP POP PUSH1 0x0 SWAP1 JUMP JUMPDEST DUP2 PUSH1 0x1 SHL SWAP2 DUP1 DUP4 DIV PUSH1 0x2 EQ SWAP1 ISZERO OR ISZERO PUSH2 0x5308 JUMPI POP PUSH2 0x3E8 SWAP1 DIV SWAP1 JUMP JUMPDEST PUSH1 0x11 SWAP1 PUSH4 0x4E487B71 PUSH1 0xE0 SHL PUSH1 0x0 MSTORE MSTORE PUSH1 0x24 PUSH1 0x0 REVERT JUMPDEST POP DUP2 PUSH1 0x1 SHL SWAP2 DUP1 DUP4 DIV PUSH1 0x2 EQ SWAP1 ISZERO OR ISZERO PUSH2 0x5308 JUMPI POP PUSH2 0x3E8 SWAP1 DIV SWAP1 JUMP JUMPDEST POP PUSH1 0x3 DUP3 MUL SWAP2 DUP1 DUP4 DIV PUSH1 0x3 EQ SWAP1 ISZERO OR ISZERO PUSH2 0x5308 JUMPI POP PUSH2 0x3E8 SWAP1 DIV SWAP1 JUMP JUMPDEST POP PUSH1 0x5 DUP3 MUL SWAP2 DUP1 DUP4 DIV PUSH1 0x5 EQ SWAP1 ISZERO OR ISZERO PUSH2 0x5308 JUMPI POP PUSH2 0x3E8 SWAP1 DIV SWAP1 JUMP JUMPDEST POP DUP2 DUP1 DIV PUSH1 0x1 EQ DUP3 ISZERO OR ISZERO PUSH2 0x5308 JUMPI POP PUSH1 0x64 SWAP1 DIV SWAP1 JUMP JUMPDEST POP DUP1 PUSH1 0x1 SHL SWAP1 DUP1 DUP3 DIV PUSH1 0x2 EQ SWAP1 ISZERO OR ISZERO PUSH2 0x47CA JUMPI PUSH1 0x64 SWAP1 DIV SWAP1 JUMP JUMPDEST POP PUSH1 0x5 DUP2 MUL SWAP1 DUP1 DUP3 DIV PUSH1 0x5 EQ SWAP1 ISZERO OR ISZERO PUSH2 0x47CA JUMPI PUSH1 0x64 SWAP1 DIV SWAP1 JUMP JUMPDEST POP PUSH1 0x14 DUP2 MUL SWAP1 DUP1 DUP3 DIV PUSH1 0x14 EQ SWAP1 ISZERO OR ISZERO PUSH2 0x47CA JUMPI PUSH1 0x64 SWAP1 DIV SWAP1 JUMP JUMPDEST PUSH1 0xFF AND PUSH1 0x1 DUP2 EQ PUSH2 0x53F9 JUMPI PUSH1 0x4 LT ISZERO PUSH2 0x53F4 JUMPI PUSH1 0x5 SWAP1 JUMP JUMPDEST PUSH1 0x2 SWAP1 JUMP JUMPDEST POP PUSH1 0x0 SWAP1 JUMP JUMPDEST PUSH1 0x1 PUSH1 0x1 PUSH1 0x40 SHL SUB DUP2 GT PUSH2 0x5BC JUMPI PUSH1 0x5 SHL PUSH1 0x20 ADD SWAP1 JUMP JUMPDEST DUP1 MLOAD DUP3 LT ISZERO PUSH2 0x4611 JUMPI PUSH1 0x20 SWAP2 PUSH1 0x5 SHL ADD ADD SWAP1 JUMP JUMPDEST DUP2 DUP1 PUSH2 0x5641 JUMPI JUMPDEST PUSH2 0x563A JUMPI DUP2 ISZERO SWAP2 DUP3 DUP1 PUSH2 0x5615 JUMPI JUMPDEST PUSH2 0x560D JUMPI PUSH1 0x5 SLOAD SWAP3 PUSH1 0x1 DUP1 DUP6 ADD DUP1 SWAP6 GT PUSH2 0x47CA JUMPI PUSH2 0x545C DUP6 PUSH2 0x53FF JUMP JUMPDEST SWAP1 PUSH2 0x5477 PUSH1 0x40 SWAP7 PUSH2 0x546F DUP9 MLOAD SWAP5 DUP6 PUSH2 0x468F JUMP JUMPDEST DUP1 DUP5 MSTORE PUSH2 0x53FF JUMP JUMPDEST SWAP3 PUSH1 0x20 SWAP3 DUP4 DUP2 ADD SWAP5 PUSH1 0x1F NOT ADD CALLDATASIZE DUP7 CALLDATACOPY PUSH1 0x0 DUP1 DUP8 ISZERO PUSH2 0x55EE JUMPI PUSH1 0x1 PUSH1 0x1 PUSH1 0xA0 SHL SUB DUP10 DUP2 AND DUP4 MSTORE PUSH1 0x3 DUP1 DUP9 MSTORE DUP12 DUP5 KECCAK256 ADD SLOAD AND SWAP7 JUMPDEST PUSH1 0x1 PUSH1 0x1 PUSH1 0xA0 SHL SUB SWAP8 DUP9 AND DUP1 PUSH2 0x55DA JUMPI JUMPDEST POP POP JUMPDEST DUP2 DUP2 LT PUSH2 0x5538 JUMPI POP POP POP DUP1 PUSH2 0x551D JUMPI JUMPDEST PUSH2 0x5513 JUMPI POP DUP3 PUSH2 0x54F6 JUMPI JUMPDEST POP POP PUSH2 0x54EF JUMPI DUP2 MLOAD PUSH4 0xC5BB5BCD PUSH1 0xE0 SHL DUP2 MSTORE PUSH1 0x4 SWAP1 REVERT JUMPDEST SWAP2 PUSH1 0x0 SWAP2 POP JUMP JUMPDEST DUP2 PUSH1 0x3 SWAP3 SWAP4 POP DUP5 AND PUSH1 0x0 MSTORE MSTORE PUSH1 0x4 DUP4 PUSH1 0x0 KECCAK256 ADD SLOAD AND ISZERO CODESIZE DUP1 PUSH2 0x54D8 JUMP JUMPDEST SWAP6 SWAP5 POP POP POP POP SWAP2 SWAP1 JUMP JUMPDEST POP DUP3 DUP6 AND PUSH1 0x0 MSTORE PUSH1 0x3 DUP3 MSTORE DUP3 PUSH1 0x3 DUP8 PUSH1 0x0 KECCAK256 ADD SLOAD AND ISZERO PUSH2 0x54CD JUMP JUMPDEST DUP7 PUSH2 0x554C PUSH2 0x5545 DUP4 PUSH2 0x4808 JUMP JUMPDEST SWAP3 DUP6 PUSH2 0x5416 JUMP JUMPDEST MLOAD AND DUP1 PUSH1 0x0 MSTORE PUSH1 0x3 DUP1 DUP9 MSTORE DUP12 PUSH1 0x0 KECCAK256 SWAP2 DUP10 DUP3 DUP5 ADD SLOAD AND DUP1 ISZERO PUSH2 0x55C7 JUMPI DUP11 PUSH1 0x4 DUP1 SWAP6 ADD SLOAD AND ISZERO PUSH2 0x55B3 JUMPI SWAP1 DUP11 SWAP4 SWAP3 SWAP2 PUSH2 0x558D PUSH2 0x5586 DUP9 PUSH2 0x4808 JUMP JUMPDEST SWAP8 DUP10 PUSH2 0x5416 JUMP JUMPDEST MSTORE PUSH1 0x0 MSTORE DUP9 MSTORE DUP12 PUSH1 0x0 KECCAK256 ADD SLOAD AND PUSH2 0x55AD PUSH2 0x55A6 DUP5 PUSH2 0x4808 JUMP JUMPDEST SWAP4 DUP6 PUSH2 0x5416 JUMP JUMPDEST MSTORE PUSH2 0x54BD JUMP JUMPDEST POP SWAP12 POP POP POP POP POP POP POP POP POP POP POP POP SWAP1 PUSH1 0x0 SWAP1 JUMP JUMPDEST POP SWAP11 POP POP POP POP POP POP POP SWAP6 SWAP5 POP POP POP POP SWAP2 SWAP1 JUMP JUMPDEST SWAP1 SWAP3 POP DUP6 SWAP3 DUP5 MLOAD ISZERO PUSH2 0x4611 JUMPI MSTORE CODESIZE DUP1 PUSH2 0x54BA JUMP JUMPDEST PUSH1 0x1 PUSH1 0x1 PUSH1 0xA0 SHL SUB DUP10 DUP2 AND DUP4 MSTORE PUSH1 0x3 DUP8 MSTORE DUP11 DUP4 KECCAK256 PUSH1 0x4 ADD SLOAD AND SWAP7 PUSH2 0x54A9 JUMP JUMPDEST POP SWAP2 PUSH1 0x0 SWAP2 POP JUMP JUMPDEST POP PUSH1 0x1 PUSH1 0x1 PUSH1 0xA0 SHL SUB DUP3 DUP2 AND PUSH1 0x0 SWAP1 DUP2 MSTORE PUSH1 0x3 PUSH1 0x20 MSTORE PUSH1 0x40 SWAP1 KECCAK256 PUSH1 0x4 ADD SLOAD AND ISZERO PUSH2 0x543F JUMP JUMPDEST SWAP2 PUSH1 0x1 SWAP2 POP JUMP JUMPDEST POP PUSH1 0x1 DUP1 PUSH1 0xA0 SHL SUB DUP1 DUP3 AND PUSH1 0x0 MSTORE PUSH1 0x3 PUSH1 0x20 MSTORE PUSH1 0x3 PUSH1 0x40 PUSH1 0x0 KECCAK256 ADD SLOAD AND ISZERO PUSH2 0x5431 JUMP JUMPDEST SWAP1 SWAP5 SWAP4 SWAP3 PUSH1 0x60 SWAP3 PUSH1 0x80 DUP4 ADD SWAP7 DUP4 MSTORE PUSH1 0x20 DUP4 ADD MSTORE PUSH1 0x40 DUP3 ADD MSTORE ADD MSTORE JUMP JUMPDEST SWAP2 SWAP1 PUSH1 0xFF SWAP1 PUSH1 0xA DUP3 DUP2 SLOAD AND PUSH2 0x5AA5 JUMPI PUSH1 0x6 SWAP1 DUP2 SLOAD SWAP3 DUP4 ISZERO PUSH2 0x5A6C JUMPI PUSH1 0x0 SWAP1 DUP2 DUP5 SSTORE PUSH1 0x46 DUP6 MUL DUP6 DUP2 DIV PUSH1 0x46 SUB PUSH2 0x7ED JUMPI PUSH1 0x64 SWAP1 DIV SWAP6 PUSH2 0x56BE DUP8 DUP8 PUSH2 0x47BD JUMP JUMPDEST SWAP5 PUSH2 0x56CE PUSH1 0x9 SWAP4 DUP8 DUP6 SSTORE DUP12 PUSH2 0x497F JUMP JUMPDEST SWAP2 PUSH1 0x4 SWAP5 DUP6 SLOAD DUP1 DUP6 GT PUSH2 0x5A64 JUMPI JUMPDEST POP DUP1 SWAP12 DUP1 JUMPDEST DUP6 DUP2 LT PUSH2 0x59CF JUMPI POP DUP13 ISZERO PUSH2 0x5984 JUMPI SWAP4 SWAP5 TIMESTAMP PUSH4 0xFFFFFFFF AND SWAP5 JUMPDEST DUP7 DUP2 LT PUSH2 0x573B JUMPI POP POP POP POP POP POP POP POP SWAP5 PUSH2 0x5736 SWAP2 PUSH1 0x0 DUP1 MLOAD PUSH1 0x20 PUSH2 0x5F97 DUP4 CODECOPY DUP2 MLOAD SWAP2 MSTORE SWAP6 SWAP7 PUSH1 0x1 PUSH1 0xFF NOT DUP3 SLOAD AND OR SWAP1 SSTORE PUSH1 0x40 MLOAD SWAP5 DUP6 SWAP5 DUP6 PUSH2 0x5664 JUMP JUMPDEST SUB SWAP1 LOG1 JUMP JUMPDEST DUP3 DUP5 DUP16 DUP15 DUP13 SWAP2 PUSH2 0x574A DUP7 PUSH2 0x45F6 JUMP JUMPDEST SWAP3 SWAP1 SLOAD SWAP3 PUSH1 0x3 SWAP4 PUSH1 0x1 DUP1 PUSH1 0xA0 SHL SUB SWAP2 DUP6 SHL SHR AND SWAP1 DUP2 DUP8 MSTORE PUSH1 0x20 SWAP3 DUP5 DUP5 MSTORE DUP13 PUSH1 0x40 SWAP7 DUP12 DUP9 DUP12 KECCAK256 SWAP3 DUP4 SLOAD SWAP11 PUSH1 0x8 SWAP12 DUP13 SHR AND ISZERO PUSH2 0x596F JUMPI PUSH1 0x5 DUP5 ADD SLOAD SWAP1 DUP5 ADD SLOAD DUP1 DUP3 LT ISZERO PUSH2 0x5967 JUMPI POP SWAP4 JUMPDEST PUSH1 0x7 SWAP4 DUP5 ADD SLOAD DUP1 DUP7 GT ISZERO PUSH2 0x595F JUMPI PUSH2 0x57AA SWAP1 DUP7 PUSH2 0x47BD JUMP JUMPDEST SWAP6 JUMPDEST DUP7 ISZERO PUSH2 0x5949 JUMPI DUP11 SWAP2 PUSH2 0x27B5 DUP9 PUSH2 0x57C1 SWAP4 PUSH2 0x4AF2 JUMP JUMPDEST SWAP12 DUP8 DUP2 MSTORE DUP10 DUP10 MSTORE DUP13 PUSH2 0x57D9 DUP14 DUP5 DUP5 KECCAK256 ADD SWAP2 DUP3 SLOAD PUSH2 0x497F JUMP JUMPDEST SWAP1 SSTORE DUP8 DUP2 MSTORE DUP10 DUP10 MSTORE KECCAK256 ADD PUSH2 0x57EE DUP12 DUP3 SLOAD PUSH2 0x497F JUMP JUMPDEST SWAP1 SSTORE DUP1 DUP5 MUL SWAP1 DUP5 DUP3 DIV SUB PUSH2 0x5933 JUMPI SWAP3 PUSH32 0xBEE8F46206DC051D674F6CA1E618EFE407D83B27FFBE3540B916EDFD34E428E1 SWAP3 DUP9 SWAP3 DUP4 DUP16 DUP9 SWAP8 DUP9 DUP3 MSTORE DUP12 DUP12 MSTORE PUSH2 0x583C PUSH1 0x11 DUP5 DUP5 KECCAK256 ADD SWAP2 DUP3 SLOAD PUSH2 0x497F JUMP JUMPDEST SWAP1 SSTORE DUP8 DUP2 MSTORE DUP11 DUP11 MSTORE KECCAK256 ADD SSTORE DUP2 MLOAD SWAP1 DUP2 MSTORE DUP10 DUP7 DUP3 ADD MSTORE LOG2 DUP9 MSTORE PUSH1 0xE DUP2 MSTORE DUP3 DUP9 KECCAK256 SWAP1 DUP4 MLOAD SWAP3 PUSH2 0x5868 DUP5 PUSH2 0x4661 JUMP JUMPDEST DUP4 MSTORE DUP3 ADD SWAP3 DUP12 DUP5 MSTORE DUP3 ADD SWAP5 DUP6 MSTORE PUSH1 0x60 DUP3 ADD SWAP5 DUP9 DUP7 MSTORE PUSH1 0x80 DUP4 ADD SWAP4 DUP10 DUP6 MSTORE DUP3 SLOAD PUSH1 0x1 PUSH1 0x40 SHL DUP2 LT ISZERO PUSH2 0x591F JUMPI PUSH2 0x58A4 SWAP1 PUSH1 0x1 SWAP5 DUP6 DUP3 ADD DUP2 SSTORE PUSH2 0x4847 JUMP JUMPDEST SWAP5 SWAP1 SWAP5 PUSH2 0x590C JUMPI MLOAD DUP5 SLOAD SWAP2 MLOAD PUSH5 0xFFFFFFFFFF NOT SWAP1 SWAP3 AND SWAP1 DUP13 AND OR SWAP1 DUP7 SHL PUSH5 0xFFFFFFFF00 AND OR DUP4 SSTORE MLOAD SWAP1 DUP3 ADD SSTORE SWAP3 MLOAD PUSH1 0x2 SWAP4 SWAP1 SWAP4 ADD DUP1 SLOAD SWAP2 MLOAD PUSH1 0x1 PUSH1 0x1 PUSH1 0xA8 SHL SUB NOT SWAP1 SWAP3 AND SWAP4 DUP9 AND SWAP4 SWAP1 SWAP4 OR SWAP2 SHL PUSH2 0x100 PUSH1 0x1 PUSH1 0xA8 SHL SUB AND OR SWAP1 SSTORE PUSH2 0x5907 SWAP1 PUSH2 0x4808 JUMP JUMPDEST PUSH2 0x56FA JUMP JUMPDEST DUP16 DUP12 DUP1 PUSH1 0x24 SWAP3 PUSH4 0x4E487B71 PUSH1 0xE0 SHL DUP3 MSTORE MSTORE REVERT JUMPDEST DUP16 DUP12 PUSH1 0x41 PUSH1 0x24 SWAP3 PUSH4 0x4E487B71 PUSH1 0xE0 SHL DUP4 MSTORE MSTORE REVERT JUMPDEST POP POP DUP16 DUP12 PUSH1 0x11 PUSH1 0x24 SWAP3 PUSH4 0x4E487B71 PUSH1 0xE0 SHL DUP4 MSTORE MSTORE REVERT JUMPDEST POP POP POP POP POP POP POP POP POP POP POP POP POP PUSH2 0x5907 SWAP1 PUSH2 0x4808 JUMP JUMPDEST POP DUP12 SWAP6 PUSH2 0x57AC JUMP JUMPDEST SWAP1 POP SWAP4 PUSH2 0x5792 JUMP JUMPDEST POP POP POP POP POP POP POP POP POP POP POP POP PUSH2 0x5907 SWAP1 PUSH2 0x4808 JUMP JUMPDEST POP SWAP7 SWAP2 POP POP PUSH1 0x0 DUP1 MLOAD PUSH1 0x20 PUSH2 0x5F97 DUP4 CODECOPY DUP2 MLOAD SWAP2 MSTORE SWAP9 SWAP10 POP DUP6 SWAP5 POP PUSH2 0x59B1 SWAP3 SWAP4 POP PUSH2 0x188A SWAP2 POP PUSH1 0x80 SWAP8 PUSH2 0x497F JUMP JUMPDEST PUSH1 0x8 SSTORE SSTORE PUSH1 0x40 MLOAD SWAP2 DUP3 MSTORE DUP1 PUSH1 0x20 DUP4 ADD MSTORE DUP1 PUSH1 0x40 DUP4 ADD MSTORE PUSH1 0x60 DUP3 ADD MSTORE LOG1 JUMP JUMPDEST PUSH2 0x59D8 DUP2 PUSH2 0x45F6 JUMP JUMPDEST SWAP1 SLOAD PUSH1 0x3 SWAP2 DUP3 SHL SHR PUSH1 0x1 PUSH1 0x1 PUSH1 0xA0 SHL SUB AND DUP5 MSTORE PUSH1 0x20 MSTORE PUSH1 0x40 DUP4 KECCAK256 DUP1 SLOAD PUSH1 0x8 SHR DUP6 AND ISZERO PUSH2 0x5A5A JUMPI PUSH1 0x7 PUSH1 0x5 DUP3 ADD SLOAD DUP8 DUP4 ADD SLOAD DUP1 DUP3 LT PUSH1 0x0 EQ PUSH2 0x5A52 JUMPI POP SWAP2 JUMPDEST ADD SLOAD SWAP1 DUP2 DUP2 GT PUSH2 0x5A31 JUMPI JUMPDEST POP POP PUSH2 0x5A2C SWAP1 PUSH2 0x4808 JUMP JUMPDEST PUSH2 0x56E1 JUMP JUMPDEST SWAP15 PUSH2 0x5A2C SWAP3 SWAP16 PUSH2 0x5A4A SWAP3 PUSH2 0x5A44 SWAP2 PUSH2 0x47BD JUMP JUMPDEST SWAP1 PUSH2 0x497F JUMP JUMPDEST SWAP14 SWAP1 CODESIZE PUSH2 0x5A21 JUMP JUMPDEST SWAP1 POP SWAP2 PUSH2 0x5A16 JUMP JUMPDEST POP PUSH2 0x5A2C SWAP1 PUSH2 0x4808 JUMP JUMPDEST SWAP4 POP CODESIZE PUSH2 0x56DC JUMP JUMPDEST PUSH1 0x40 MLOAD PUSH3 0x461BCD PUSH1 0xE5 SHL DUP2 MSTORE PUSH1 0x20 PUSH1 0x4 DUP3 ADD MSTORE PUSH1 0x11 PUSH1 0x24 DUP3 ADD MSTORE PUSH17 0x115B5C1D1E48189A5B985C9E481C1BDBDB PUSH1 0x7A SHL PUSH1 0x44 DUP3 ADD MSTORE PUSH1 0x64 SWAP1 REVERT JUMPDEST PUSH1 0x40 MLOAD PUSH3 0xC94879 PUSH1 0xE4 SHL DUP2 MSTORE PUSH1 0x4 SWAP1 REVERT JUMPDEST ISZERO PUSH2 0x5ABD JUMPI JUMP JUMPDEST PUSH1 0x40 MLOAD PUSH3 0x461BCD PUSH1 0xE5 SHL DUP2 MSTORE PUSH1 0x20 PUSH1 0x4 DUP3 ADD MSTORE PUSH1 0xE PUSH1 0x24 DUP3 ADD MSTORE PUSH14 0x139BDD081C9959DA5CDD195C9959 PUSH1 0x92 SHL PUSH1 0x44 DUP3 ADD MSTORE PUSH1 0x64 SWAP1 REVERT JUMPDEST SWAP1 PUSH1 0x5 DUP2 LT ISZERO PUSH2 0x4611 JUMPI PUSH1 0x5 SHL ADD SWAP1 JUMP JUMPDEST PUSH1 0xFF PUSH1 0x1 SWAP2 AND ADD SWAP1 PUSH1 0xFF DUP3 GT PUSH2 0x47CA JUMPI JUMP JUMPDEST DUP1 SLOAD DUP3 LT ISZERO PUSH2 0x4611 JUMPI PUSH1 0x0 MSTORE PUSH1 0x5 PUSH1 0x20 PUSH1 0x0 KECCAK256 SWAP2 MUL ADD SWAP1 PUSH1 0x0 SWAP1 JUMP JUMPDEST ISZERO PUSH2 0x5B39 JUMPI JUMP JUMPDEST PUSH1 0x40 MLOAD PUSH3 0x461BCD PUSH1 0xE5 SHL DUP2 MSTORE PUSH1 0x20 PUSH1 0x4 DUP3 ADD MSTORE PUSH1 0xD PUSH1 0x24 DUP3 ADD MSTORE PUSH13 0x92DCECC2D8D2C840D2DCC8CAF PUSH1 0x9B SHL PUSH1 0x44 DUP3 ADD MSTORE PUSH1 0x64 SWAP1 REVERT JUMPDEST ISZERO PUSH2 0x5B75 JUMPI JUMP JUMPDEST PUSH1 0x40 MLOAD PUSH3 0x461BCD PUSH1 0xE5 SHL DUP2 MSTORE PUSH1 0x20 PUSH1 0x4 DUP3 ADD MSTORE PUSH1 0x10 PUSH1 0x24 DUP3 ADD MSTORE PUSH16 0x105B1C9958591E481D5B9CDD185AD959 PUSH1 0x82 SHL PUSH1 0x44 DUP3 ADD MSTORE PUSH1 0x64 SWAP1 REVERT JUMPDEST PUSH1 0x2 SLOAD PUSH1 0x1 PUSH1 0x1 PUSH1 0xA0 SHL SUB AND SWAP1 DUP2 ISZERO PUSH2 0x5C29 JUMPI PUSH1 0x20 SWAP1 PUSH1 0x24 PUSH1 0x40 MLOAD DUP1 SWAP5 DUP2 SWAP4 PUSH4 0x47CD5191 PUSH1 0xE0 SHL DUP4 MSTORE PUSH1 0x4 DUP4 ADD MSTORE GAS STATICCALL SWAP1 DUP2 ISZERO PUSH2 0x5C1D JUMPI PUSH1 0x0 SWAP2 PUSH2 0x5BEF JUMPI POP SWAP1 JUMP JUMPDEST SWAP1 PUSH1 0x20 DUP3 RETURNDATASIZE DUP3 GT PUSH2 0x5C15 JUMPI JUMPDEST DUP2 PUSH2 0x5C08 PUSH1 0x20 SWAP4 DUP4 PUSH2 0x468F JUMP JUMPDEST DUP2 ADD SUB SLT PUSH2 0x31C JUMPI POP MLOAD SWAP1 JUMP JUMPDEST RETURNDATASIZE SWAP2 POP PUSH2 0x5BFB JUMP JUMPDEST PUSH1 0x40 MLOAD RETURNDATASIZE PUSH1 0x0 DUP3 RETURNDATACOPY RETURNDATASIZE SWAP1 REVERT JUMPDEST POP POP PUSH1 0x0 SWAP1 JUMP JUMPDEST PUSH1 0x2 SLOAD PUSH1 0x1 PUSH1 0x1 PUSH1 0xA0 SHL SUB AND SWAP1 DUP2 ISZERO PUSH2 0x5C29 JUMPI PUSH1 0x20 SWAP1 PUSH1 0x24 PUSH1 0x40 MLOAD DUP1 SWAP5 DUP2 SWAP4 PUSH4 0x75B1F0E1 PUSH1 0xE1 SHL DUP4 MSTORE PUSH1 0x4 DUP4 ADD MSTORE GAS STATICCALL SWAP1 DUP2 ISZERO PUSH2 0x5C1D JUMPI PUSH1 0x0 SWAP2 PUSH2 0x5BEF JUMPI POP SWAP1 JUMP JUMPDEST PUSH1 0x2 SLOAD PUSH1 0x1 PUSH1 0x1 PUSH1 0xA0 SHL SUB AND SWAP1 DUP2 ISZERO PUSH2 0x5C29 JUMPI PUSH1 0x20 SWAP1 PUSH1 0x24 PUSH1 0x40 MLOAD DUP1 SWAP5 DUP2 SWAP4 PUSH4 0x1D613961 PUSH1 0xE1 SHL DUP4 MSTORE PUSH1 0x4 DUP4 ADD MSTORE GAS STATICCALL SWAP1 DUP2 ISZERO PUSH2 0x5C1D JUMPI PUSH1 0x0 SWAP2 PUSH2 0x5BEF JUMPI POP SWAP1 JUMP JUMPDEST PUSH1 0x2 SLOAD PUSH1 0x1 PUSH1 0x1 PUSH1 0xA0 SHL SUB SWAP1 DUP2 AND SWAP2 DUP3 ISZERO PUSH2 0x5D5F JUMPI AND PUSH1 0x24 PUSH1 0x0 DUP3 DUP2 MSTORE PUSH1 0x20 PUSH1 0x3 DUP2 MSTORE DUP1 PUSH1 0xF PUSH1 0x40 DUP5 KECCAK256 ADD SLOAD SWAP6 PUSH1 0x40 MLOAD SWAP5 DUP6 DUP1 SWAP3 PUSH4 0x47CD5191 PUSH1 0xE0 SHL DUP3 MSTORE PUSH1 0x1 PUSH1 0x4 DUP4 ADD MSTORE GAS STATICCALL SWAP3 DUP4 ISZERO PUSH2 0xAE9 JUMPI DUP3 SWAP4 PUSH2 0x5D2F JUMPI JUMPDEST POP PUSH1 0xFF SWAP2 PUSH1 0x3 PUSH1 0x40 SWAP3 DUP6 SWAP7 DUP4 MSTORE MSTORE KECCAK256 SLOAD PUSH1 0x8 SHR AND SWAP1 DUP2 PUSH2 0x5D27 JUMPI POP SWAP3 JUMP JUMPDEST SWAP1 POP DUP3 LT ISZERO SWAP3 JUMP JUMPDEST SWAP1 DUP1 SWAP4 POP DUP2 DUP2 RETURNDATASIZE DUP4 GT PUSH2 0x5D58 JUMPI JUMPDEST PUSH2 0x5D47 DUP2 DUP4 PUSH2 0x468F JUMP JUMPDEST DUP2 ADD SUB SLT PUSH2 0xAF4 JUMPI MLOAD SWAP2 PUSH1 0xFF PUSH2 0x5D09 JUMP JUMPDEST POP RETURNDATASIZE PUSH2 0x5D3D JUMP JUMPDEST POP POP POP PUSH1 0x0 SWAP1 PUSH1 0x0 SWAP1 PUSH1 0x0 SWAP1 JUMP JUMPDEST SWAP3 SWAP1 PUSH1 0x1 DUP1 PUSH1 0xA0 SHL SUB DUP1 PUSH1 0x0 SWAP6 AND DUP6 MSTORE PUSH1 0x20 SWAP1 PUSH1 0xE DUP3 MSTORE PUSH1 0x40 SWAP1 DUP2 DUP8 KECCAK256 SWAP3 DUP4 SLOAD SWAP7 DUP8 ISZERO DUP1 ISZERO PUSH2 0x5EFA JUMPI JUMPDEST PUSH2 0x5EBE JUMPI PUSH2 0x5DA5 DUP7 DUP10 PUSH2 0x47BD JUMP JUMPDEST DUP1 DUP3 LT ISZERO PUSH2 0x5EB6 JUMPI POP SWAP4 JUMPDEST PUSH2 0x5DB9 DUP6 PUSH2 0x53FF JUMP JUMPDEST SWAP6 PUSH2 0x5DC6 DUP6 MLOAD SWAP8 DUP9 PUSH2 0x468F JUMP JUMPDEST DUP6 DUP8 MSTORE PUSH1 0x1F NOT PUSH2 0x5DD5 DUP8 PUSH2 0x53FF JUMP JUMPDEST ADD DUP4 DUP12 JUMPDEST DUP3 DUP2 LT PUSH2 0x5E84 JUMPI POP POP POP DUP7 SWAP10 DUP1 JUMPDEST DUP8 DUP2 LT PUSH2 0x5DF9 JUMPI POP POP POP POP POP POP POP POP POP JUMP JUMPDEST PUSH1 0x0 NOT DUP12 ADD DUP12 DUP2 GT PUSH2 0x7ED JUMPI SWAP1 PUSH2 0x5E20 PUSH2 0x5E1A DUP3 PUSH2 0x18A0 DUP8 PUSH2 0x5E7F SWAP7 PUSH2 0x47BD JUMP JUMPDEST DUP7 PUSH2 0x4847 JUMP JUMPDEST POP DUP8 DUP10 MLOAD SWAP2 PUSH2 0x5E2E DUP4 PUSH2 0x4661 JUMP JUMPDEST DUP1 SLOAD PUSH1 0x2 PUSH1 0xFF SWAP3 DUP4 DUP4 AND DUP7 MSTORE PUSH4 0xFFFFFFFF PUSH1 0x8 SWAP4 DUP5 SHR AND DUP13 DUP8 ADD MSTORE DUP14 PUSH1 0x1 DUP3 ADD SLOAD SWAP1 DUP8 ADD MSTORE ADD SLOAD SWAP2 DUP3 AND PUSH1 0x60 DUP6 ADD MSTORE SHR AND PUSH1 0x80 DUP3 ADD MSTORE PUSH2 0x5E6E DUP3 DUP13 PUSH2 0x5416 JUMP JUMPDEST MSTORE PUSH2 0x5E79 DUP2 DUP12 PUSH2 0x5416 JUMP JUMPDEST POP PUSH2 0x4808 JUMP JUMPDEST PUSH2 0x5DE7 JUMP JUMPDEST DUP8 MLOAD PUSH2 0x5E8F DUP2 PUSH2 0x4661 JUMP JUMPDEST DUP14 DUP2 MSTORE DUP14 DUP4 DUP3 ADD MSTORE DUP14 DUP10 DUP3 ADD MSTORE DUP14 PUSH1 0x60 DUP3 ADD MSTORE DUP14 PUSH1 0x80 DUP3 ADD MSTORE DUP3 DUP3 DUP13 ADD ADD MSTORE ADD DUP5 SWAP1 PUSH2 0x5DD9 JUMP JUMPDEST SWAP1 POP SWAP4 PUSH2 0x5DB0 JUMP JUMPDEST POP DUP3 MLOAD SWAP7 SWAP8 SWAP6 SWAP7 SWAP6 SWAP5 POP DUP6 ADD SWAP3 POP POP PUSH1 0x1 PUSH1 0x1 PUSH1 0x40 SHL SUB DUP3 GT DUP5 DUP4 LT OR PUSH2 0x5EE6 JUMPI MSTORE DUP2 MSTORE SWAP2 SWAP1 JUMP JUMPDEST PUSH4 0x4E487B71 PUSH1 0xE0 SHL DUP4 MSTORE PUSH1 0x41 PUSH1 0x4 MSTORE PUSH1 0x24 DUP4 REVERT JUMPDEST POP DUP8 DUP7 LT ISZERO PUSH2 0x5D97 JUMP JUMPDEST SWAP1 PUSH2 0x5F0E DUP3 PUSH2 0x53FF JUMP JUMPDEST PUSH2 0x5F1B PUSH1 0x40 MLOAD SWAP2 DUP3 PUSH2 0x468F JUMP JUMPDEST DUP3 DUP2 MSTORE DUP1 SWAP3 PUSH2 0x5F2C PUSH1 0x1F NOT SWAP2 PUSH2 0x53FF JUMP JUMPDEST ADD SWAP1 PUSH1 0x20 CALLDATASIZE SWAP2 ADD CALLDATACOPY JUMP INVALID CALLVALUE SELFDESTRUCT CALLDATACOPY DUP8 0x4D PUSH21 0x43037A85C6F390FE14F2AE3E8767355DE0E63891AD NUMBER PUSH8 0xC275398BE0079C53 AND MSIZE EQ SGT PREVRANDAO 0xCD 0x1F 0xD0 LOG4 CALLCODE DUP5 NOT 0x49 PUSH32 0x9722A3DAAFE3B4186F6B6457E0DCFD2B4017D03F7E541021DB793B2F9B31E4AC 0xDE 0xE0 SDIV 0xF7 DUP10 0xE5 0x28 MSTORE8 0xC3 SWAP1 0xE3 0xE9 PUSH3 0xA0EA57 SDIV KECCAK256 0xC SWAP16 REVERT CALLDATASIZE 0xDC PUSH20 0x5FEF1592C3234BB7E311FC1B0A444F6370D0620E 0xAE SWAP12 PUSH24 0x9B17422D0DF92223018B32B4D1FA46E071723D6817E2486D STOP EXTCODESIZE 0xEC 0xC5 PUSH0 STOP LOG2 PUSH5 0x6970667358 0x22 SLT KECCAK256 0xC0 0xAC PUSH10 0x40FE97FA5CF8ED2EC36 PUSH25 0x63B05EE401AE76E60277F9C57471D125367164736F6C634300 ADDMOD EQ STOP CALLER "},"methodIdentifiers":{"ADMIN_ALLOC()":"be648bdb","BINARY_ALLOC()":"44e374d5","BTC_POOL_RATE()":"92446e30","FLEX_CAP_MULT()":"3ccb13d3","INCOME_LIMIT()":"aa393757","LEVEL_ALLOC()":"77537844","LOCK_DURATION()":"485d3834","MIN_STAKE_USDT()":"8431fdd7","PACKAGE_PRICE()":"039ccc26","activate()":"0f15f4c0","activateFromBalance()":"e7763194","adminPool()":"b86a1fb2","allUsers(uint256)":"a2bdedf4","binaryPool()":"7f1b4064","boardEntryCount(address)":"f00b0093","boardHandler()":"c9d484cf","canEnterBoard(address)":"9499a351","canRebirth(address)":"e51cb530","convertToLocked(uint256)":"4b3f0d45","creditBoardReward(address,uint256,uint256)":"f0b7b9dc","distributeBinaryIncome(uint256,uint256)":"2d641f08","distributePowerLeg(uint256,uint256)":"8a8f0429","enterBoardPool()":"e4093a66","getActiveStakes(address)":"1747e0b0","getAllUsersCount()":"38abfc41","getBoardCurrentIndex(uint256)":"3ac272c2","getBoardMatrixInfo(uint256,uint256)":"d4a90286","getBoardPrice(uint256)":"47cd5191","getBoardQueueLength(uint256)":"eb63e1c2","getBtcPoolInfo(address)":"03c3ecb7","getCurrentBinaryPairs(address)":"f24c536a","getLockDuration()":"e239c400","getMvtContractBalance()":"ce8292f5","getMvtPrice()":"68ddb2b5","getPoolBalances()":"52375bb1","getProfile(address)":"0f53a470","getStake(address,uint256)":"cfd47663","getStakeCount(address)":"cf57ee69","getTransactions(address,uint256,uint256)":"7435f421","getUserBoardStats(address)":"fb72ca35","getUserInfo(address)":"6386c1c7","mvaultToken()":"1f6259d5","owner()":"8da5cb5b","rebirth(address,bool)":"94915dd0","register(address,address,bool)":"aa33f5d5","registerAndActivateFor(address,address,bool)":"e0e01011","renounceOwnership()":"715018a6","reservePool()":"0266f044","sellMvt(uint256)":"634f627e","setBoardHandler(address)":"e3ba9bda","setMvaultToken(address)":"1ce5e894","setProfile(string,string,string,string)":"55509c8f","stake(uint256,bool)":"abe50f19","totalBoardRewardsEarned(address)":"2335821b","totalUsers()":"bff1f9e1","transferOwnership(address)":"f2fde38b","unstake(uint256)":"2e17de78","usdtToken()":"a98ad46c","users(address)":"a87430ba","withdrawAdminPool(address,uint256)":"2808bc8d","withdrawBtcPool(uint256)":"b58e0278","withdrawReservePool(address,uint256)":"ec50324a","withdrawUsdt(uint256)":"d3635a02"}}}}}