{"contracts/MvaultContract.sol":{"MvaultContract":{"abi":[{"inputs":[{"internalType":"address","name":"_usdt","type":"address"},{"internalType":"address","name":"_mvaultToken","type":"address"}],"stateMutability":"nonpayable","type":"constructor"},{"inputs":[],"name":"AlreadyActive","type":"error"},{"inputs":[],"name":"AlreadyRegistered","type":"error"},{"inputs":[],"name":"BinaryAlreadyDistributed","type":"error"},{"inputs":[],"name":"BinaryNotDistributed","type":"error"},{"inputs":[],"name":"BoardHandlerNotSet","type":"error"},{"inputs":[],"name":"InsufficientBtcPool","type":"error"},{"inputs":[],"name":"InsufficientBtcPoolForBoard","type":"error"},{"inputs":[],"name":"InsufficientRebirthPool","type":"error"},{"inputs":[],"name":"InsufficientUsdtBalance","type":"error"},{"inputs":[],"name":"InsufficientVirtualBalance","type":"error"},{"inputs":[],"name":"InvalidSponsor","type":"error"},{"inputs":[],"name":"NoOpenBinarySlot","type":"error"},{"inputs":[],"name":"NotRegistered","type":"error"},{"inputs":[{"internalType":"address","name":"owner","type":"address"}],"name":"OwnableInvalidOwner","type":"error"},{"inputs":[{"internalType":"address","name":"account","type":"address"}],"name":"OwnableUnauthorizedAccount","type":"error"},{"inputs":[],"name":"PositionTaken","type":"error"},{"inputs":[],"name":"ReentrancyGuardReentrantCall","type":"error"},{"inputs":[],"name":"TransferFailed","type":"error"},{"inputs":[],"name":"ZeroAddress","type":"error"},{"inputs":[],"name":"ZeroAmount","type":"error"},{"anonymous":false,"inputs":[{"indexed":true,"internalType":"address","name":"user","type":"address"},{"indexed":false,"internalType":"uint256","name":"mvtMinted","type":"uint256"},{"indexed":false,"internalType":"uint256","name":"grossMvt","type":"uint256"},{"indexed":false,"internalType":"uint256","name":"levelAmt","type":"uint256"},{"indexed":false,"internalType":"uint256","name":"binaryAmt","type":"uint256"},{"indexed":false,"internalType":"uint256","name":"adminAmt","type":"uint256"}],"name":"Activated","type":"event"},{"anonymous":false,"inputs":[{"indexed":true,"internalType":"address","name":"to","type":"address"},{"indexed":false,"internalType":"uint256","name":"amount","type":"uint256"}],"name":"AdminWithdraw","type":"event"},{"anonymous":false,"inputs":[{"indexed":false,"internalType":"uint256","name":"totalPool","type":"uint256"},{"indexed":false,"internalType":"uint256","name":"binary70","type":"uint256"},{"indexed":false,"internalType":"uint256","name":"powerLeg30","type":"uint256"},{"indexed":false,"internalType":"uint256","name":"totalPairs","type":"uint256"}],"name":"BinaryIncomeDistributed","type":"event"},{"anonymous":false,"inputs":[{"indexed":true,"internalType":"address","name":"user","type":"address"},{"indexed":false,"internalType":"uint256","name":"newPairs","type":"uint256"},{"indexed":false,"internalType":"uint256","name":"amount","type":"uint256"}],"name":"BinaryIncomePaid","type":"event"},{"anonymous":false,"inputs":[{"indexed":true,"internalType":"address","name":"user","type":"address"},{"indexed":false,"internalType":"uint256","name":"boardLevel","type":"uint256"},{"indexed":false,"internalType":"uint256","name":"usdtDeducted","type":"uint256"}],"name":"BoardEntered","type":"event"},{"anonymous":false,"inputs":[{"indexed":true,"internalType":"address","name":"newHandler","type":"address"}],"name":"BoardHandlerUpdated","type":"event"},{"anonymous":false,"inputs":[{"indexed":true,"internalType":"address","name":"user","type":"address"},{"indexed":false,"internalType":"uint256","name":"usdtAmount","type":"uint256"},{"indexed":false,"internalType":"uint256","name":"boardLevel","type":"uint256"}],"name":"BoardRewardCredited","type":"event"},{"anonymous":false,"inputs":[{"indexed":true,"internalType":"address","name":"user","type":"address"},{"indexed":false,"internalType":"uint256","name":"amount","type":"uint256"}],"name":"BtcPoolCredited","type":"event"},{"anonymous":false,"inputs":[{"indexed":true,"internalType":"address","name":"user","type":"address"},{"indexed":false,"internalType":"uint256","name":"amount","type":"uint256"}],"name":"BtcPoolWithdrawn","type":"event"},{"anonymous":false,"inputs":[{"indexed":true,"internalType":"address","name":"user","type":"address"},{"indexed":false,"internalType":"uint256","name":"stakeIndex","type":"uint256"},{"indexed":false,"internalType":"uint256","name":"lockedSince","type":"uint256"}],"name":"ConvertedToLocked","type":"event"},{"anonymous":false,"inputs":[{"indexed":true,"internalType":"address","name":"to","type":"address"},{"indexed":true,"internalType":"address","name":"from","type":"address"},{"indexed":false,"internalType":"uint8","name":"level","type":"uint8"},{"indexed":false,"internalType":"uint256","name":"amount","type":"uint256"}],"name":"LevelIncomePaid","type":"event"},{"anonymous":false,"inputs":[{"indexed":true,"internalType":"address","name":"upline","type":"address"},{"indexed":false,"internalType":"uint8","name":"level","type":"uint8"},{"indexed":false,"internalType":"uint256","name":"amount","type":"uint256"}],"name":"LevelIncomeSkipped","type":"event"},{"anonymous":false,"inputs":[{"indexed":false,"internalType":"address","name":"newToken","type":"address"}],"name":"MvaultTokenUpdated","type":"event"},{"anonymous":false,"inputs":[{"indexed":true,"internalType":"address","name":"user","type":"address"},{"indexed":false,"internalType":"uint256","name":"mvtAmount","type":"uint256"},{"indexed":false,"internalType":"uint256","name":"usdtNet","type":"uint256"},{"indexed":false,"internalType":"uint256","name":"usdtToBtcPool","type":"uint256"},{"indexed":false,"internalType":"uint256","name":"usdtToIncome","type":"uint256"},{"indexed":false,"internalType":"uint256","name":"usdtToRebirth","type":"uint256"}],"name":"MvtSold","type":"event"},{"anonymous":false,"inputs":[{"indexed":true,"internalType":"address","name":"previousOwner","type":"address"},{"indexed":true,"internalType":"address","name":"newOwner","type":"address"}],"name":"OwnershipTransferred","type":"event"},{"anonymous":false,"inputs":[{"indexed":false,"internalType":"uint256","name":"totalPowerLeg30","type":"uint256"},{"indexed":false,"internalType":"uint256","name":"totalPowerLegs","type":"uint256"}],"name":"PowerLegDistributed","type":"event"},{"anonymous":false,"inputs":[{"indexed":true,"internalType":"address","name":"user","type":"address"},{"indexed":false,"internalType":"uint256","name":"powerLegPoints","type":"uint256"},{"indexed":false,"internalType":"uint256","name":"amount","type":"uint256"}],"name":"PowerLegIncomePaid","type":"event"},{"anonymous":false,"inputs":[{"indexed":true,"internalType":"address","name":"user","type":"address"}],"name":"ProfileUpdated","type":"event"},{"anonymous":false,"inputs":[{"indexed":true,"internalType":"address","name":"mainAccount","type":"address"},{"indexed":true,"internalType":"address","name":"subAccount","type":"address"},{"indexed":false,"internalType":"uint256","name":"rebirthIndex","type":"uint256"}],"name":"Reborn","type":"event"},{"anonymous":false,"inputs":[{"indexed":true,"internalType":"address","name":"user","type":"address"},{"indexed":true,"internalType":"address","name":"sponsor","type":"address"},{"indexed":true,"internalType":"address","name":"binaryParent","type":"address"},{"indexed":false,"internalType":"bool","name":"placeLeft","type":"bool"}],"name":"Registered","type":"event"},{"anonymous":false,"inputs":[{"indexed":true,"internalType":"address","name":"payer","type":"address"},{"indexed":true,"internalType":"address","name":"newUser","type":"address"},{"indexed":true,"internalType":"address","name":"sponsor","type":"address"},{"indexed":false,"internalType":"bool","name":"placeLeft","type":"bool"}],"name":"RegisteredAndActivatedFor","type":"event"},{"anonymous":false,"inputs":[{"indexed":true,"internalType":"address","name":"to","type":"address"},{"indexed":false,"internalType":"uint256","name":"amount","type":"uint256"}],"name":"ReserveWithdraw","type":"event"},{"anonymous":false,"inputs":[{"indexed":true,"internalType":"address","name":"to","type":"address"},{"indexed":true,"internalType":"address","name":"from","type":"address"},{"indexed":false,"internalType":"uint8","name":"level","type":"uint8"},{"indexed":false,"internalType":"uint256","name":"usdtAmount","type":"uint256"}],"name":"StakeLevelIncomePaid","type":"event"},{"anonymous":false,"inputs":[{"indexed":true,"internalType":"address","name":"user","type":"address"},{"indexed":false,"internalType":"uint256","name":"stakeIndex","type":"uint256"},{"indexed":false,"internalType":"uint256","name":"usdtAmount","type":"uint256"},{"indexed":false,"internalType":"uint256","name":"mvtMinted","type":"uint256"},{"indexed":false,"internalType":"bool","name":"isLocked","type":"bool"}],"name":"Staked","type":"event"},{"anonymous":false,"inputs":[{"indexed":true,"internalType":"address","name":"user","type":"address"},{"indexed":false,"internalType":"uint256","name":"stakeIndex","type":"uint256"},{"indexed":false,"internalType":"uint256","name":"mvtReturned","type":"uint256"},{"indexed":false,"internalType":"uint256","name":"usdtReceived","type":"uint256"},{"indexed":false,"internalType":"uint256","name":"adminCapCut","type":"uint256"}],"name":"Unstaked","type":"event"},{"anonymous":false,"inputs":[{"indexed":true,"internalType":"address","name":"user","type":"address"},{"indexed":false,"internalType":"uint256","name":"amount","type":"uint256"}],"name":"UsdtWithdrawn","type":"event"},{"inputs":[],"name":"ADMIN_ALLOC","outputs":[{"internalType":"uint256","name":"","type":"uint256"}],"stateMutability":"view","type":"function"},{"inputs":[],"name":"BINARY_ALLOC","outputs":[{"internalType":"uint256","name":"","type":"uint256"}],"stateMutability":"view","type":"function"},{"inputs":[],"name":"BTC_POOL_RATE","outputs":[{"internalType":"uint256","name":"","type":"uint256"}],"stateMutability":"view","type":"function"},{"inputs":[],"name":"FLEX_CAP_MULT","outputs":[{"internalType":"uint256","name":"","type":"uint256"}],"stateMutability":"view","type":"function"},{"inputs":[],"name":"INCOME_LIMIT","outputs":[{"internalType":"uint256","name":"","type":"uint256"}],"stateMutability":"view","type":"function"},{"inputs":[],"name":"LEVEL_ALLOC","outputs":[{"internalType":"uint256","name":"","type":"uint256"}],"stateMutability":"view","type":"function"},{"inputs":[],"name":"LOCK_DURATION","outputs":[{"internalType":"uint256","name":"","type":"uint256"}],"stateMutability":"view","type":"function"},{"inputs":[],"name":"MIN_STAKE_USDT","outputs":[{"internalType":"uint256","name":"","type":"uint256"}],"stateMutability":"view","type":"function"},{"inputs":[],"name":"PACKAGE_PRICE","outputs":[{"internalType":"uint256","name":"","type":"uint256"}],"stateMutability":"view","type":"function"},{"inputs":[],"name":"activate","outputs":[],"stateMutability":"nonpayable","type":"function"},{"inputs":[],"name":"adminPool","outputs":[{"internalType":"uint256","name":"","type":"uint256"}],"stateMutability":"view","type":"function"},{"inputs":[{"internalType":"uint256","name":"","type":"uint256"}],"name":"allUsers","outputs":[{"internalType":"address","name":"","type":"address"}],"stateMutability":"view","type":"function"},{"inputs":[],"name":"binaryPool","outputs":[{"internalType":"uint256","name":"","type":"uint256"}],"stateMutability":"view","type":"function"},{"inputs":[{"internalType":"address","name":"","type":"address"}],"name":"boardEntryCount","outputs":[{"internalType":"uint256","name":"","type":"uint256"}],"stateMutability":"view","type":"function"},{"inputs":[],"name":"boardHandler","outputs":[{"internalType":"contract IMvaultBoardMatrix","name":"","type":"address"}],"stateMutability":"view","type":"function"},{"inputs":[{"internalType":"address","name":"_user","type":"address"}],"name":"canEnterBoard","outputs":[{"internalType":"bool","name":"eligible","type":"bool"},{"internalType":"uint256","name":"btcBalance","type":"uint256"},{"internalType":"uint256","name":"boardPrice","type":"uint256"}],"stateMutability":"view","type":"function"},{"inputs":[{"internalType":"address","name":"user","type":"address"}],"name":"canRebirth","outputs":[{"internalType":"bool","name":"eligible","type":"bool"},{"internalType":"uint256","name":"poolBalance","type":"uint256"}],"stateMutability":"view","type":"function"},{"inputs":[{"internalType":"uint256","name":"stakeIndex","type":"uint256"}],"name":"convertToLocked","outputs":[],"stateMutability":"nonpayable","type":"function"},{"inputs":[{"internalType":"address","name":"_user","type":"address"},{"internalType":"uint256","name":"_usdtAmount","type":"uint256"},{"internalType":"uint256","name":"_boardLevel","type":"uint256"}],"name":"creditBoardReward","outputs":[],"stateMutability":"nonpayable","type":"function"},{"inputs":[{"internalType":"uint256","name":"offset","type":"uint256"},{"internalType":"uint256","name":"limit","type":"uint256"}],"name":"distributeBinaryIncome","outputs":[],"stateMutability":"nonpayable","type":"function"},{"inputs":[{"internalType":"uint256","name":"offset","type":"uint256"},{"internalType":"uint256","name":"limit","type":"uint256"}],"name":"distributePowerLeg","outputs":[],"stateMutability":"nonpayable","type":"function"},{"inputs":[],"name":"enterBoardPool","outputs":[],"stateMutability":"nonpayable","type":"function"},{"inputs":[{"internalType":"address","name":"user","type":"address"}],"name":"getActiveStakes","outputs":[{"internalType":"uint256[]","name":"indices","type":"uint256[]"},{"internalType":"uint256[]","name":"mvtAmounts","type":"uint256[]"},{"internalType":"uint256[]","name":"usdtInvestedArr","type":"uint256[]"},{"internalType":"uint256[]","name":"stakedAts","type":"uint256[]"},{"internalType":"uint256[]","name":"lockedSinces","type":"uint256[]"}],"stateMutability":"view","type":"function"},{"inputs":[],"name":"getAllUsersCount","outputs":[{"internalType":"uint256","name":"","type":"uint256"}],"stateMutability":"view","type":"function"},{"inputs":[{"internalType":"uint256","name":"_level","type":"uint256"}],"name":"getBoardCurrentIndex","outputs":[{"internalType":"uint256","name":"","type":"uint256"}],"stateMutability":"view","type":"function"},{"inputs":[{"internalType":"uint256","name":"_level","type":"uint256"},{"internalType":"uint256","name":"_index","type":"uint256"}],"name":"getBoardMatrixInfo","outputs":[{"internalType":"address","name":"owner","type":"address"},{"internalType":"uint256","name":"filledCount","type":"uint256"},{"internalType":"bool","name":"completed","type":"bool"}],"stateMutability":"view","type":"function"},{"inputs":[{"internalType":"uint256","name":"_level","type":"uint256"}],"name":"getBoardPrice","outputs":[{"internalType":"uint256","name":"","type":"uint256"}],"stateMutability":"view","type":"function"},{"inputs":[{"internalType":"uint256","name":"_level","type":"uint256"}],"name":"getBoardQueueLength","outputs":[{"internalType":"uint256","name":"","type":"uint256"}],"stateMutability":"view","type":"function"},{"inputs":[{"internalType":"address","name":"u","type":"address"}],"name":"getBtcPoolInfo","outputs":[{"internalType":"uint256","name":"btcPoolBalance","type":"uint256"},{"internalType":"uint256","name":"totalBtcEarned","type":"uint256"}],"stateMutability":"view","type":"function"},{"inputs":[{"internalType":"address","name":"u","type":"address"}],"name":"getCurrentBinaryPairs","outputs":[{"internalType":"uint256","name":"currentPairs","type":"uint256"},{"internalType":"uint256","name":"newPairs","type":"uint256"}],"stateMutability":"view","type":"function"},{"inputs":[],"name":"getLockDuration","outputs":[{"internalType":"uint256","name":"","type":"uint256"}],"stateMutability":"pure","type":"function"},{"inputs":[],"name":"getMvtContractBalance","outputs":[{"internalType":"uint256","name":"","type":"uint256"}],"stateMutability":"view","type":"function"},{"inputs":[],"name":"getMvtPrice","outputs":[{"internalType":"uint256","name":"buyPrice","type":"uint256"},{"internalType":"uint256","name":"sellPrice","type":"uint256"}],"stateMutability":"view","type":"function"},{"inputs":[],"name":"getPoolBalances","outputs":[{"internalType":"uint256","name":"binary","type":"uint256"},{"internalType":"uint256","name":"reserve","type":"uint256"},{"internalType":"uint256","name":"admin","type":"uint256"}],"stateMutability":"view","type":"function"},{"inputs":[{"internalType":"address","name":"_user","type":"address"}],"name":"getProfile","outputs":[{"internalType":"string","name":"displayName","type":"string"},{"internalType":"string","name":"email","type":"string"},{"internalType":"string","name":"phone","type":"string"},{"internalType":"string","name":"country","type":"string"},{"internalType":"bool","name":"profileSet","type":"bool"}],"stateMutability":"view","type":"function"},{"inputs":[{"internalType":"address","name":"user","type":"address"},{"internalType":"uint256","name":"index","type":"uint256"}],"name":"getStake","outputs":[{"internalType":"uint256","name":"mvtAmount","type":"uint256"},{"internalType":"uint256","name":"usdtInvested","type":"uint256"},{"internalType":"uint256","name":"stakedAt","type":"uint256"},{"internalType":"uint256","name":"lockedSince","type":"uint256"},{"internalType":"bool","name":"active","type":"bool"}],"stateMutability":"view","type":"function"},{"inputs":[{"internalType":"address","name":"user","type":"address"}],"name":"getStakeCount","outputs":[{"internalType":"uint256","name":"","type":"uint256"}],"stateMutability":"view","type":"function"},{"inputs":[{"internalType":"address","name":"_user","type":"address"}],"name":"getUserBoardStats","outputs":[{"internalType":"uint256","name":"entries","type":"uint256"},{"internalType":"uint256","name":"totalRewards","type":"uint256"}],"stateMutability":"view","type":"function"},{"inputs":[{"internalType":"address","name":"u","type":"address"}],"name":"getUserInfo","outputs":[{"internalType":"bool","name":"isRegistered","type":"bool"},{"internalType":"bool","name":"isActive","type":"bool"},{"internalType":"address","name":"sponsor","type":"address"},{"internalType":"uint256","name":"directCount","type":"uint256"},{"internalType":"address","name":"binaryParent","type":"address"},{"internalType":"bool","name":"placedLeft","type":"bool"},{"internalType":"address","name":"leftChild","type":"address"},{"internalType":"address","name":"rightChild","type":"address"},{"internalType":"uint256","name":"leftSubUsers","type":"uint256"},{"internalType":"uint256","name":"rightSubUsers","type":"uint256"},{"internalType":"uint256","name":"mvtBalance","type":"uint256"},{"internalType":"uint256","name":"totalReceived","type":"uint256"},{"internalType":"uint256","name":"totalSold","type":"uint256"},{"internalType":"uint256","name":"incomeLimit","type":"uint256"},{"internalType":"uint256","name":"usdtBalance","type":"uint256"},{"internalType":"uint256","name":"rebirthPool","type":"uint256"},{"internalType":"uint256","name":"btcPoolBalance","type":"uint256"},{"internalType":"uint256","name":"powerLegPoints","type":"uint256"},{"internalType":"uint256","name":"matchedPairs","type":"uint256"},{"internalType":"address","name":"mainAccount","type":"address"},{"internalType":"uint256","name":"rebirthCount","type":"uint256"},{"internalType":"uint256","name":"joinedAt","type":"uint256"}],"stateMutability":"view","type":"function"},{"inputs":[],"name":"mvaultToken","outputs":[{"internalType":"contract IMvaultToken","name":"","type":"address"}],"stateMutability":"view","type":"function"},{"inputs":[],"name":"owner","outputs":[{"internalType":"address","name":"","type":"address"}],"stateMutability":"view","type":"function"},{"inputs":[{"internalType":"address","name":"subAccount","type":"address"},{"internalType":"bool","name":"placeLeft","type":"bool"}],"name":"rebirth","outputs":[],"stateMutability":"nonpayable","type":"function"},{"inputs":[{"internalType":"address","name":"sponsor","type":"address"},{"internalType":"address","name":"binaryParent","type":"address"},{"internalType":"bool","name":"placeLeft","type":"bool"}],"name":"register","outputs":[],"stateMutability":"nonpayable","type":"function"},{"inputs":[{"internalType":"address","name":"newUser","type":"address"},{"internalType":"address","name":"binaryParent","type":"address"},{"internalType":"bool","name":"placeLeft","type":"bool"}],"name":"registerAndActivateFor","outputs":[],"stateMutability":"nonpayable","type":"function"},{"inputs":[],"name":"renounceOwnership","outputs":[],"stateMutability":"nonpayable","type":"function"},{"inputs":[],"name":"reservePool","outputs":[{"internalType":"uint256","name":"","type":"uint256"}],"stateMutability":"view","type":"function"},{"inputs":[{"internalType":"uint256","name":"amount","type":"uint256"}],"name":"sellMvt","outputs":[],"stateMutability":"nonpayable","type":"function"},{"inputs":[{"internalType":"address","name":"_boardHandler","type":"address"}],"name":"setBoardHandler","outputs":[],"stateMutability":"nonpayable","type":"function"},{"inputs":[{"internalType":"address","name":"_mvaultToken","type":"address"}],"name":"setMvaultToken","outputs":[],"stateMutability":"nonpayable","type":"function"},{"inputs":[{"internalType":"string","name":"_displayName","type":"string"},{"internalType":"string","name":"_email","type":"string"},{"internalType":"string","name":"_phone","type":"string"},{"internalType":"string","name":"_country","type":"string"}],"name":"setProfile","outputs":[],"stateMutability":"nonpayable","type":"function"},{"inputs":[{"internalType":"uint256","name":"usdtAmount","type":"uint256"},{"internalType":"bool","name":"isLocked","type":"bool"}],"name":"stake","outputs":[],"stateMutability":"nonpayable","type":"function"},{"inputs":[{"internalType":"address","name":"","type":"address"}],"name":"totalBoardRewardsEarned","outputs":[{"internalType":"uint256","name":"","type":"uint256"}],"stateMutability":"view","type":"function"},{"inputs":[],"name":"totalUsers","outputs":[{"internalType":"uint256","name":"","type":"uint256"}],"stateMutability":"view","type":"function"},{"inputs":[{"internalType":"address","name":"newOwner","type":"address"}],"name":"transferOwnership","outputs":[],"stateMutability":"nonpayable","type":"function"},{"inputs":[{"internalType":"uint256","name":"stakeIndex","type":"uint256"}],"name":"unstake","outputs":[],"stateMutability":"nonpayable","type":"function"},{"inputs":[],"name":"usdtToken","outputs":[{"internalType":"contract IERC20","name":"","type":"address"}],"stateMutability":"view","type":"function"},{"inputs":[{"internalType":"address","name":"","type":"address"}],"name":"users","outputs":[{"internalType":"bool","name":"isRegistered","type":"bool"},{"internalType":"bool","name":"isActive","type":"bool"},{"internalType":"address","name":"sponsor","type":"address"},{"internalType":"uint256","name":"directCount","type":"uint256"},{"internalType":"address","name":"binaryParent","type":"address"},{"internalType":"bool","name":"placedLeft","type":"bool"},{"internalType":"address","name":"leftChild","type":"address"},{"internalType":"address","name":"rightChild","type":"address"},{"internalType":"uint256","name":"leftSubUsers","type":"uint256"},{"internalType":"uint256","name":"rightSubUsers","type":"uint256"},{"internalType":"uint256","name":"matchedPairs","type":"uint256"},{"internalType":"uint256","name":"mvtBalance","type":"uint256"},{"internalType":"uint256","name":"totalReceived","type":"uint256"},{"internalType":"uint256","name":"totalSold","type":"uint256"},{"internalType":"uint256","name":"incomeLimit","type":"uint256"},{"internalType":"uint256","name":"usdtBalance","type":"uint256"},{"internalType":"uint256","name":"rebirthPool","type":"uint256"},{"internalType":"uint256","name":"totalUsdtEarned","type":"uint256"},{"internalType":"uint256","name":"btcPoolBalance","type":"uint256"},{"internalType":"uint256","name":"totalBtcEarned","type":"uint256"},{"internalType":"uint256","name":"powerLegPoints","type":"uint256"},{"internalType":"address","name":"mainAccount","type":"address"},{"internalType":"uint256","name":"rebirthCount","type":"uint256"},{"internalType":"uint256","name":"joinedAt","type":"uint256"},{"internalType":"string","name":"displayName","type":"string"},{"internalType":"string","name":"email","type":"string"},{"internalType":"string","name":"phone","type":"string"},{"internalType":"string","name":"country","type":"string"},{"internalType":"bool","name":"profileSet","type":"bool"}],"stateMutability":"view","type":"function"},{"inputs":[{"internalType":"address","name":"to","type":"address"},{"internalType":"uint256","name":"amount","type":"uint256"}],"name":"withdrawAdminPool","outputs":[],"stateMutability":"nonpayable","type":"function"},{"inputs":[{"internalType":"uint256","name":"amount","type":"uint256"}],"name":"withdrawBtcPool","outputs":[],"stateMutability":"nonpayable","type":"function"},{"inputs":[{"internalType":"address","name":"to","type":"address"},{"internalType":"uint256","name":"amount","type":"uint256"}],"name":"withdrawReservePool","outputs":[],"stateMutability":"nonpayable","type":"function"},{"inputs":[{"internalType":"uint256","name":"amount","type":"uint256"}],"name":"withdrawUsdt","outputs":[],"stateMutability":"nonpayable","type":"function"}],"evm":{"bytecode":{"linkReferences":{},"object":"60a0346200017c57601f620054c238819003918201601f19168301916001600160401b03831184841017620001815780849260409485528339810103126200017c576200005a6020620000528362000197565b920162000197565b90331562000163576000549160018060a01b03199233848216176000556040519060018060a01b03938491823391167f8be0079c531659141344cd1fd0a4f28419497f9722a3daafe3b4186f6b6457e0600080a360017f9b779b17422d0df92223018b32b4d1fa46e071723d6817e2486d003becc55f005516908115801562000158575b620001495750608052169060015416176001556040516153159081620001ad823960805181818161078501528181610e2e0152818161112c015281816112810152818161150001528181611b5c015281816127d40152818161324f01528181613c39015261433d0152f35b63d92e233d60e01b8152600490fd5b5083831615620000de565b604051631e4fbdf760e01b815260006004820152602490fd5b600080fd5b634e487b7160e01b600052604160045260246000fd5b51906001600160a01b03821682036200017c5756fe61032080604052600436101561001457600080fd5b600090813560e01c9081630266f04414613d3557508063039ccc2614613d1157806303c3ecb714613ccb5780630f15f4c014613bcf5780630f53a47014613b0f5780631747e0b0146139305780631ce5e894146138be5780631f6259d5146138955780632335821b1461385c5780632808bc8d146137985780632d641f081461375b5780632e17de781461315457806338abfc41146131365780633ac272c2146131175780633ccb13d3146130fb57806344e374d51461109e57806347cd5191146130dc578063485d3834146109975780634b3f0d451461301357806352375bb114612fe457806355509c8f14612a64578063634f627e1461274e5780636386c1c71461258057806368ddb2b5146124a8578063715018a614612460578063775378441461109e5780637f1b4064146124425780638431fdd71461241e5780638a8f0429146121d95780638da5cb5b146121b257806392446e301461219657806394915dd014611eb75780639499a35114611e7e578063a2bdedf414611e3a578063a87430ba14611b8b578063a98ad46c14611b46578063aa33f5d5146118f7578063aa393757146118d3578063abe50f19146111f1578063b58e0278146110c1578063b86a1fb2146110a3578063be648bdb1461109e578063bff1f9e114611080578063c9d484cf14611057578063ce8292f514610fc3578063cf57ee6914610f8a578063cfd4766314610efe578063d3635a0214610dc3578063d4a9028614610cf1578063e0e01011146109b6578063e239c40014610997578063e3ba9bda1461092d578063e4093a66146106c7578063e51cb53014610679578063eb63e1c214610652578063ec50324a14610553578063f00b00931461051a578063f0b7b9dc146103f8578063f24c536a1461037f578063f2fde38b146103095763fb72ca35146102c157600080fd5b34610306576020366003190112610306576040906001600160a01b036102e5613d51565b168152600b602052818082205491600c602052205482519182526020820152f35b80fd5b503461030657602036600319011261030657610323613d51565b61032b613fd0565b6001600160a01b03908116908115610366576000548260018060a01b031982161760005516600080516020615260833981519152600080a380f35b604051631e4fbdf760e01b815260048101849052602490fd5b5034610306576020366003190112610306576040906001600160a01b036103a4613d51565b1681526003602052818120906007600583015460068401548082106000146103f05750925b0154808311156103ea576103de915082614035565b82519182526020820152f35b506103de565b9050926103c9565b503461030657606036600319011261030657610412613d51565b6024359061041e61408f565b6002546001600160a01b039190821633036104e1577f2393acb59b41dd645f68fe97bab0deba2a21b99efc69761e9b2762f11bbbe79d9160409116926104658415156140bf565b6104708115156140bf565b8385526003602052600c828620016104898282546140f0565b90558385526003602052600e828620016104a48282546140f0565b9055838552600c6020528185206104bc8282546140f0565b905581519081526044356020820152a260016000805160206152c08339815191525580f35b60405162461bcd60e51b81526020600482015260116024820152702737ba103137b0b932103430b7323632b960791b6044820152606490fd5b5034610306576020366003190112610306576020906040906001600160a01b03610542613d51565b168152600b83522054604051908152f35b50346103065760403660031901126103065761056d613d51565b60243590610579613fd0565b6001600160a01b03169081156106405760075481811061060457816105c17f0529afc4538720fe0b3eadc40486369ab962002d72fead1387b300c66073e7bf93602093614035565b60075583855260038252600860408620016105dd8282546140f0565b905583855260038252600960408620016105f88282546140f0565b9055604051908152a280f35b60405162461bcd60e51b8152602060048201526014602482015273115e18d959591cc81c995cd95c9d99481c1bdbdb60621b6044820152606490fd5b60405163d92e233d60e01b8152600490fd5b50346103065760203660031901126103065760206106716004356150d0565b604051908152f35b503461030657602036600319011261030657604090600d9082906001600160a01b036106a3613d51565b168152600360205220015481519068070c1cc73b00c8000081101582526020820152f35b50346103065780600319360112610306576106e061408f565b6002546001600160a01b0390811690811561091b576024903384526020926003845283604086209161071860ff845460081c16613ffc565b6040516347cd519160e01b81526001600482015294859182905afa9283156108c95785936108e6575b50600f0180548381106108d4578361075891614035565b905561077f83838360025416604051938492839263a9059cbb60e01b845260048401614065565b038188867f0000000000000000000000000000000000000000000000000000000000000000165af19081156108c9578591610890575b501561087e578390338252600b8452604082206107d28154614080565b905560025416803b1561087a5781809160446040518094819363686a38bd60e01b8352336004840152600160248401525af1801561086f57610857575b505060405191600183528201527f4e755dd64e53a9f7a5882e2e32eb64718c2273de11e017bd47129b9fe2716d7c60403392a260016000805160206152c08339815191525580f35b61086090613ef4565b61086b57823861080f565b8280fd5b6040513d84823e3d90fd5b5080fd5b6040516312171d8360e31b8152600490fd5b90508381813d83116108c2575b6108a78183613f07565b810103126108be576108b890614058565b386107b5565b8480fd5b503d61089d565b6040513d87823e3d90fd5b604051630856d68760e11b8152600490fd5b9092508381813d8311610914575b6108fe8183613f07565b8101031261090f575191600f610741565b600080fd5b503d6108f4565b60405163632100f760e11b8152600490fd5b503461030657602036600319011261030657610947613d51565b61094f613fd0565b6001600160a01b0316801561064057600280546001600160a01b031916821790557f49424f87d81e4374ee3e8d1cf7b880966981a3cf6a7ac1d7a66c13d91756fccc8280a280f35b5034610306578060031936011261030657602060405163018b82008152f35b5034610306576060366003190112610306576109d0613d51565b906109d9613d67565b6109e1613e5f565b926109ea61408f565b6001600160a01b03818116918215610cba57338314610c7a5733855260039160209483865260ff60408820541615610c685733875283865260ff604088205460081c1615610c2f5784875283865260ff604088205416610c1d5733875283865268070c1cc73b00c80000600c60408920015410610c0b578181168015159081610bf7575b5015610bef57905b8780610bd6575b610baa5787159384159480610bbc575b610baa57338852808752600c604089200198895468070c1cc73b00c7ffff198101908111610b9657610b31969798999a55610aca818533886140fd565b15610b7257828216895280885260408920810180546001600160a01b031916881790555b338952875260016040892001610b048154614080565b9055610b0f836141c4565b60405191858352169085600080516020615240833981519152883393a46142ba565b6040519081527ff3d8729e7995a6170800155589c309c92998449c63bab10c98f61f9aa007db7d33933392a460016000805160206152c08339815191525580f35b82821689528088526040892060040180546001600160a01b03191688179055610aee565b634e487b7160e01b8a52601160045260248afd5b60405163d5dd5c3d60e01b8152600490fd5b50818316885280875281600460408a200154161515610a8d565b5080821687528386528084604089200154161515610a7d565b503390610a76565b885250838652604087205460ff1638610a6e565b60405163b55c1bad60e01b8152600490fd5b604051630ea075bf60e21b8152600490fd5b60405162461bcd60e51b815260048101879052601160248201527043616c6c6572206e6f742061637469766560781b6044820152606490fd5b60405163aba4733960e01b8152600490fd5b60405162461bcd60e51b815260206004820152601860248201527721b0b73737ba103932b3b4b9ba32b9103cb7bab939b2b63360411b6044820152606490fd5b60405162461bcd60e51b815260206004820152600f60248201526e496e76616c6964206164647265737360881b6044820152606490fd5b503461030657610d0036613df1565b90606060018060a01b039260448460025416936040519485938492636a54814360e11b8452600484015260248301525afa908115610db857839284918593610d5d575b506060945060405193168352602083015215156040820152f35b93509150506060823d8211610db0575b81610d7a60609383613f07565b8101031261086b5781518181168103610dac5760609350610da2604060208501519401614058565b9092909138610d43565b8380fd5b3d9150610d6d565b6040513d85823e3d90fd5b50346103065760208060031936011261087a5760043590610de261408f565b8115610eec5733835260038152600c60408420018054838110610c0b5783610e0991614035565b905560405163a9059cbb60e01b8152818180610e29863360048401614065565b0381877f00000000000000000000000000000000000000000000000000000000000000006001600160a01b03165af1908115610ee1578491610eac575b501561087e577fbdd3f02d2a57fb53c1156f98470b61cb60712d485c27c36a49b1263dabcde201906040519283523392a260016000805160206152c08339815191525580f35b90508181813d8311610eda575b610ec38183613f07565b81010312610dac57610ed490614058565b38610e66565b503d610eb9565b6040513d86823e3d90fd5b604051631f2a200560e01b8152600490fd5b503461030657604036600319011261030657610f4f60a0916040610f20613d51565b9160243592600180871b0316808252600d602052610f42838320548510614fd2565b8152600d60205220614fb6565b50805490600181015490600281015460ff60046003840154930154169260405194855260208501526040840152606083015215156080820152f35b5034610306576020366003190112610306576020906040906001600160a01b03610fb2613d51565b168152600d83522054604051908152f35b50346103065780600319360112610306576001546040516370a0823160e01b81523060048201529190602090839060249082906001600160a01b03165afa90811561104b5790611019575b602090604051908152f35b506020813d8211611043575b8161103260209383613f07565b8101031261090f576020905161100e565b3d9150611025565b604051903d90823e3d90fd5b50346103065780600319360112610306576002546040516001600160a01b039091168152602090f35b50346103065780600319360112610306576020600554604051908152f35b613e07565b50346103065780600319360112610306576020600854604051908152f35b50346103065760208060031936011261087a57600435906110e061408f565b8115610eec5733835260038152600f604084200180548381106111df578361110791614035565b905560405163a9059cbb60e01b8152818180611127863360048401614065565b0381877f00000000000000000000000000000000000000000000000000000000000000006001600160a01b03165af1908115610ee15784916111aa575b501561087e577f12701e4764b73009ab9826933c421483e4280410091fcc760515e0fa99fa766b906040519283523392a260016000805160206152c08339815191525580f35b90508181813d83116111d8575b6111c18183613f07565b81010312610dac576111d290614058565b38611164565b503d6111b7565b604051636dae861760e11b8152600490fd5b50346103065760403660031901126103065761120b613e50565b61121361408f565b6802b5e3af16b18800006004351061189a57338252600360205261123d60ff604084205416614f25565b338252600360205260ff604083205460081c1615611865576040516323b872dd60e01b815233600480830191909152306024830152356044820152602081606481867f00000000000000000000000000000000000000000000000000000000000000006001600160a01b03165af18015610db857839061182a575b6112c29150614f62565b604051916112cf83613ed9565b600a8352600260208401526001604084015260016060840152600160808401523381526003602052604081205460018060a01b039060101c16819382915b600560ff8416101561148e57606461133660ff61132c81871686614fa5565b5116600435614263565b048015611450576001600160a01b03821615801561142d575b1561138f57611360906008546140f0565b6008555b6001600160a01b0390811684526003602052604084205460101c1691611389906147b6565b9161130d565b95866113be9160018060a01b03841687526003602052600c60408820016113b78382546140f0565b90556140f0565b9560ff600181861601116114195760405133916001600160a01b038416917fc8c0cc32a736135fa3c2a3c467849cd282797396bc67d2d5326f7e161e601c1d9181906114119060ff8a16600101836147c7565b0390a3611364565b634e487b7160e01b85526011600452602485fd5b506001600160a01b03821685526003602052604085205460081c60ff161561134f565b50916001600160a01b0383168061146c575b50611389906147b6565b84526003602052604084205460101c6001600160a01b03169250611389611462565b50505091600f600435026004358104600f1460043515171561181657906114bc60646114cb93049182614035565b80611801575b50600435614035565b60015460405163095ea7b360e01b815290602090829081906114fb9086906001600160a01b031660048401614065565b0381877f00000000000000000000000000000000000000000000000000000000000000006001600160a01b03165af18015610ee1576117c8575b506001546040516370a0823160e01b8082523060048301529290918591906001600160a01b0316602084602481845afa938415610db8578394611791575b50803b1561086b57604051634e538d9360e11b815291839183918290849082906115a1903060048401614065565b03925af1801561086f5761177d575b5050600154604051928352306004840152602090839060249082906001600160a01b03165afa8015610ee1578490611749575b6115ed9250614035565b90811561171457338352600d6020526040832080549290821561170d5742905b6040519161161a83613ed9565b8383526004356020840152426040840152606083015260016080830152600160401b8510156116f9578461165391600182018155614fb6565b6116e55760046080918351815560208401516001820155604084015160028201556060840151600382015501910151151560ff8019835416911617905560405192835260043560208401526040830152151560608201527f830141583677d950fe61a27b93001edff66b597c666b2c90f5fb6e79a4befd0e60803392a260016000805160206152c08339815191525580f35b634e487b7160e01b86526004869052602486fd5b634e487b7160e01b86526041600452602486fd5b849061160d565b60405162461bcd60e51b815260206004820152600d60248201526c139bc8135595081b5a5b9d1959609a1b6044820152606490fd5b506020823d602011611775575b8161176360209383613f07565b8101031261090f576115ed91516115e3565b3d9150611756565b61178690613ef4565b610dac5783386115b0565b925092506020823d6020116117c0575b816117ae60209383613f07565b8101031261090f578591519238611573565b3d91506117a1565b6020813d6020116117f9575b816117e160209383613f07565b81010312610dac576117f290614058565b5038611535565b3d91506117d4565b61180d906008546140f0565b600855386114c2565b634e487b7160e01b84526011600452602484fd5b506020813d60201161185d575b8161184460209383613f07565b8101031261086b576118586112c291614058565b6112b8565b3d9150611837565b60405162461bcd60e51b815260206004820152600d60248201526c139bdd081858dd1a5d985d1959609a1b6044820152606490fd5b60405162461bcd60e51b815260206004820152601160248201527042656c6f7720243530206d696e696d756d60781b6044820152606490fd5b503461030657806003193601126103065760206040516815245655b1025800008152f35b503461030657606036600319011261030657611911613d51565b611919613d67565b611921613e5f565b338452600360209281845260ff604087205416610c1d57600554611a125733600090815282855260409020805461ff01600160b01b03191660011781556002810180546001600160a81b03191690556012810180546001600160a01b03191690554260149091015560045491600160401b8310156119fc576119b88360016000805160206152408339815191529501600455613e6e565b81929154911b9033821b9160018060a01b03901b19161790556119dc600554614080565b6005555b60405192151583526001600160a01b039081169416923392a480f35b634e487b7160e01b600052604160045260246000fd5b6001600160a01b03858116808852838652604088205491939160ff1615611b34578383168015159081611b20575b5015611b195782935b8580611b00575b610baa57851580611ae6575b610baa5784611a7c87600080516020615240833981519152978b336140fd565b8615611ac45716885281865260408820820180546001600160a01b031916331790555b8752845260016040872001611ab48154614080565b9055611abf336141c4565b6119e0565b1688528186526040882060040180546001600160a01b03191633179055611a9f565b50808516895282875280600460408b200154161515611a5c565b508085168952828752808360408b200154161515611a50565b8693611a49565b895250818652604088205460ff1638611a40565b604051632f212e0d60e11b8152600490fd5b50346103065780600319360112610306576040517f00000000000000000000000000000000000000000000000000000000000000006001600160a01b03168152602090f35b5034610306576020366003190112610306576040906001600160a01b03611bb0613d51565b1681526003602052208060c052808080808080808080808080611c736015600f600e600d600c600b600a600960086007600660058d549d600181015461024052600281015460805260018060a01b0360038201541661020052600460018060a01b03910154169e01549e01549e01549e01549e01549e01549e01549e01549e01549e01549e01549e60108101546101005260118101546101405260018060a01b036012820154166101605260138101546103005260148101546101a05201613f2a565b60a052611c84601660c05101613f2a565b61012052611c96601760c05101613f2a565b61022052611ca8601860c05101613f2a565b6102805260ff601960c0510154166101e0526040518060e05260ff82161515905260ff8160081c161515602060e051015260018060a01b039060101c16604060e051015261024051606060e051015260018060a01b0360805116608060e051015260ff60805160a01c16151560a060e05101526102005160c060e051015260e08051015261010060e051015261012060e051015261014060e051015261016060e051015261018060e05101526101a060e05101526101c060e05101526101e060e051015261020060e051015261022060e051015261024060e05101526101005161026060e05101526101405161028060e0510152610160516102a060e0510152610300516102c060e05101526101a0516102e060e0510152611e23611e0e611df9611de46103a08061030060e051015260e0510160a051613d7d565b60e05161032081830391015261012051613d7d565b60e05161034081830391015261022051613d7d565b60e05161036081830391015261028051613d7d565b6101e051151561038060e051015260e05180910390f35b50346103065760203660031901126103065760043590600454821015610306576020611e6583613e6e565b905460405160039290921b1c6001600160a01b03168152f35b5034610306576020366003190112610306576060611ea2611e9d613d51565b615154565b90604051921515835260208301526040820152f35b503461030657604036600319011261030657611ed1613d51565b611ed9613e50565b90611ee261408f565b6001600160a01b0381811692908315610640573385526003926020938085526040872091825491611f1860ff8460081c16613ffc565b600d840180549068070c1cc73b00c80000808310612184578a8c52838a5260ff60408d20541661213f5768070c1cc73b00c7ffff19830192831161212b5780831061212057611f68908093614035565b9055600c8501611f798282546140f0565b9055611f8a600e86019182546140f0565b90556815245655b102580000600b850155611fab858460101c169633614969565b60008a8152838a5260409020805461ff01600160b01b03191662010000600160b01b039096169590951760011785556002850180546001600160a81b03191692881692831782151560a01b60ff60a01b161790556012850180546001600160a01b0319908116331790915542601490960195909555600454909790949091600160401b8610156119fc577f30016ed357540281a6cff6143637e72b48e105d85d15df66b0aaffbd23790240986013988c61206e8960016120bc9b01600455613e6e565b9092835491891b92831b921b191617905561208a600554614080565b60055515612107578b52828952898360408d2001918254161790555b806120e9575b50506120b7816141c4565b6142ba565b01916120c88354614080565b8093556040519283523392a360016000805160206152c08339815191525580f35b89528652600160408920016120fe8154614080565b905538806120ac565b8b5282895289600460408d2001918254161790556120a6565b50611f688280614035565b634e487b7160e01b8c52601160045260248cfd5b60405162461bcd60e51b8152600481018b9052601e60248201527f5375622d6163636f756e7420616c7265616479207265676973746572656400006044820152606490fd5b6040516307db32bd60e31b8152600490fd5b50346103065780600319360112610306576020604051600a8152f35b5034610306578060031936011261030657546040516001600160a01b039091168152602090f35b5034610306576121e836613df1565b6121f0613fd0565b6121f861408f565b60ff600a54161561240c5761220d90826140f0565b600454808211612404575b508290825b8181106123c45750600990815493831515806123bb575b156123a357805b8281106122e05750908592915b8181106122a257837f7f4a5b69bea14a6fc05326671a02e90d4a88855c83a18529c260057b1bf61a856040888884885560ff19600a5416600a5582519182526020820152a160016000805160206152c08339815191525580f35b6122d7919293506122b281613e6e565b9054600391821b1c6001600160a01b0316885260205260408720601101879055614080565b90859291612248565b8086886122ef61239194613e6e565b9054600391821b1c6001600160a01b031680835260208281526040842060110154919492908a8c8415612396577fb05abf391bcc5d117d31727729f0da5b0e3eb5f91a478372995efa128696c4069661235560409792612350888a95614263565b614276565b9489825280855260088383200161236d8782546140f0565b9055898252845220016123818382546140f0565b90558351928352820152a2614080565b61223b565b5050505050505050614080565b6123af856008546140f0565b60085590859291612248565b50841515612234565b916123f96123ff916123d585613e6e565b9054600391821b1c6001600160a01b031688526020526040872060110154906140f0565b92614080565b61221d565b905038612218565b60405163418826bf60e11b8152600490fd5b503461030657806003193601126103065760206040516802b5e3af16b18800008152f35b50346103065780600319360112610306576020600654604051908152f35b5034610306578060031936011261030657612479613fd0565b600080546001600160a01b0319811682556001600160a01b03166000805160206152608339815191528280a380f35b5034610306578060031936011261030657600154604051623144bd60e31b81526001600160a01b039091169160208083600481875afa92831561086f57829361254f575b5080600494604051958680926310f4cba760e21b82525afa91821561104b579161251f575b604080945051928352820152f35b80915083813d8311612548575b6125368183613f07565b8101031261090f576040925190612511565b503d61252c565b9392508084813d8311612579575b6125678183613f07565b8101031261090f5792519192806124ec565b503d61255d565b5034610306576020366003190112610306576040906001600160a01b036125a5613d51565b168152600360205220808080808080808080808080805460018201546102605260028201546101c052601460076011600f600d600c600b600a60096008600660058d600360018060a01b03910154169d600460018060a01b03910154169e01549e01549e01549e01549e01549e01549e01549e01549e01549e01549e01549e60018060a01b036012820154166102e05260138101546102c05201546102a052604051806101805260ff82161515905260ff8160081c161515602061018051015260018060a01b039060101c16604061018051015261026051606061018051015260018060a01b036101c05116608061018051015260ff6101c05160a01c16151560a061018051015260c061018051015260e0610180510152610100610180510152610120610180510152610140610180510152610160610180510152610180805101526101a06101805101526101c06101805101526101e06101805101526102006101805101526102206101805101526102406101805101526102e0516102606101805101526102c0516102806101805101526102a0516102a06101805101526102c061018051f35b50346103065760208060031936011261087a576004359061276d61408f565b8115610eec5733835260038152604083209060ff825460081c1615610c6857600882018054848110612a5257846127a391614035565b9055600a82016127b48482546140f0565b90556040516370a0823160e01b8082523060048301526001600160a01b037f00000000000000000000000000000000000000000000000000000000000000008116929187918584602481885afa938415610db8578394612a1f575b5060015416803b1561086b578280916024604051809681936372424d9960e11b83528d60048401525af1928315612a125786936129f5575b505060246040518095819382523060048301525afa80156129ea5786906129bb575b6128739250614035565b91600a8302838104600a14841517156129a7577f8f7262d5a031d4d671e1fdb0cddcd26d37185226f9e82f2f18877141ac1963eb9392916128bb606461297c93048095614035565b92600f82016128cb8682546140f0565b9055601082016128dc8682546140f0565b90557f2b1d2104e84dd4dabb0cca024171f783ab1e1c9dc1af9d60a2361596653a99c4604051918683523392a2600b810180549188831561299a5750600d908386111561299457835b809361294c82612935818b614035565b97600c86016129458382546140f0565b9055614035565b905561295d600e83019182546140f0565b90555b0161296c8382546140f0565b9055604051948594339886614296565b0390a260016000805160206152c08339815191525580f35b85612925565b91509150600d8492612960565b634e487b7160e01b86526011600452602486fd5b508282813d83116129e3575b6129d18183613f07565b8101031261090f576128739151612869565b503d6129c7565b6040513d88823e3d90fd5b612a0191929350613ef4565b612a0e5783908738612847565b8680fd5b50604051903d90823e3d90fd5b86809295508194503d8311612a4b575b612a398183613f07565b8101031261090f57879151923861280f565b503d612a2f565b60405163208975e760e21b8152600490fd5b5034610306576080366003190112610306576004356001600160401b03811161087a57612a95903690600401613e23565b91906024356001600160401b03811161086b57612ab6903690600401613e23565b6044356001600160401b0381116108be57612ad5903690600401613e23565b90916064356001600160401b038111612a0e57612af6903690600401613e23565b9490973388526003602052612b1160ff60408a205416614f25565b338852600360205260408820966001600160401b038211612fd0578190612b3b60158a0154613e9f565b601f8111612f80575b508990601f8311600114612f14578a92612f09575b50508160011b916000199060031b1c19161760158701555b6001600160401b038211612ef5578190612b8e6016880154613e9f565b601f8111612ea2575b508790601f8311600114612e36578892612e2b575b50508160011b916000199060031b1c19161760168501555b60178401916001600160401b0382116116f9578190612be38454613e9f565b601f8111612ddb575b508690601f8311600114612d75578792612d6a575b50508160011b916000199060031b1c19161790555b60188201906001600160401b038111612d5657612c338254613e9f565b601f8111612d11575b5083601f8211600114612caa578190859660199692612c9f575b50508160011b916000199060031b1c19161790555b01805460ff19166001179055337fbe4ec58a792f909e102ee3d745d0c3b34a4d437a54d903c4db098d31c556422f8280a280f35b013590503880612c56565b8285526020852090601f198316865b818110612cf95750968392916001946019989910612cdf575b505050811b019055612c6b565b0135600019600384901b60f8161c19169055388080612cd2565b9192602060018192868c013581550194019201612cb9565b82855260208520601f830160051c81019160208410612d4c575b601f0160051c01905b818110612d415750612c3c565b858155600101612d34565b9091508190612d2b565b634e487b7160e01b84526041600452602484fd5b013590503880612c01565b84885260208820925090601f198416885b818110612dc35750908460019594939210612da9575b505050811b019055612c16565b0135600019600384901b60f8161c19169055388080612d9c565b91936020600181928787013581550195019201612d86565b90915083875260208720601f840160051c81019160208510612e21575b90601f859493920160051c01905b818110612e135750612bec565b888155849350600101612e06565b9091508190612df8565b013590503880612bac565b60168801895260208920925090601f198416895b818110612e8a5750908460019594939210612e70575b505050811b016016850155612bc4565b0135600019600384901b60f8161c19169055388080612e60565b91936020600181928787013581550195019201612e4a565b90915060168701885260208820601f840160051c81019160208510612eeb575b90601f859493920160051c01905b818110612edd5750612b97565b898155849350600101612ed0565b9091508190612ec2565b634e487b7160e01b87526041600452602487fd5b013590503880612b59565b60158a018b5260208b20925090601f1984168b5b818110612f685750908460019594939210612f4e575b505050811b016015870155612b71565b0135600019600384901b60f8161c19169055388080612f3e565b91936020600181928787013581550195019201612f28565b909150601589018a5260208a20601f840160051c810160208510612fc9575b90849392915b601f830160051c82018110612fbb575050612b44565b8c8155859450600101612fa5565b5080612f9f565b634e487b7160e01b89526041600452602489fd5b503461030657806003193601126103065760606006546007546008549060405192835260208301526040820152f35b503461030657602036600319011261030657600435338252600d60205261303f60408320548210614fd2565b338252600d60205260036130568260408520614fb6565b5061306760ff60048301541661500e565b0180546130a6574290556040519081524260208201527f68733b6f87b2a7c87d5bcf8c0a0950f2985cc261d9ab6defddca8d7bd05eba4360403392a280f35b60405162461bcd60e51b815260206004820152600e60248201526d105b1c9958591e481b1bd8dad95960921b6044820152606490fd5b503461030657602036600319011261030657602061067160043561504d565b5034610306578060031936011261030657602060405160028152f35b5034610306576020366003190112610306576020610671600435615112565b50346103065780600319360112610306576020600454604051908152f35b50346103065760203660031901126103065761316e61408f565b338152600d602052613187604082205460043510614fd2565b338152600d60205261319e60043560408320614fb6565b50600481018054906131b260ff831661500e565b60038301549182159283156136ed575b5060ff1916905560018254920154908160011b9180830460021490151715611816578291811561352b5760058402848104600514851517156129a757338652600360205260408620546064909104906001600160a01b039060101c811680151580613517575b613483575b5050505b6040516370a0823160e01b8082523060048301526001600160a01b037f000000000000000000000000000000000000000000000000000000000000000081169591929188916020846024818b5afa938415610db857839461344f575b5060015416803b1561086b576024839260405194859384926372424d9960e11b845260048401525af1801561344457613431575b50604051918252306004830152602082602481885afa80156134265787906133f2575b6132ee9250614035565b908592806133e9575b6133c7575b5080613328575b600080516020615280833981519152925061297c604051928392339660043585614ba3565b6020604051809463a9059cbb60e01b825281888161334a873360048401614065565b03925af19283156108c957859361337a575b5061337560008051602061528083398151915293614f62565b613303565b92506020833d6020116133bf575b8161339560209383613f07565b810103126108be576133756133b860008051602061528083398151915294614058565b935061335c565b3d9150613388565b8092506133d391614035565b906133e0826008546140f0565b600855386132fc565b508082116132f7565b506020823d60201161341e575b8161340c60209383613f07565b8101031261090f576132ee91516132e4565b3d91506133ff565b6040513d89823e3d90fd5b61343d90979197613ef4565b95386132c1565b6040513d8a823e3d90fd5b9093506020813d60201161347b575b8161346b60209383613f07565b8101031261086b5751923861328d565b3d915061345e565b826020916134ad9360015416908a60405180968195829463a9059cbb60e01b845260048401614065565b03925af19081156134265787916134dd575b506134cc575b808061322d565b6134d69193614035565b91386134c5565b90506020813d60201161350f575b816134f860209383613f07565b81010312612a0e5761350990614058565b386134bf565b3d91506134eb565b5080885260ff604089205460081c16613228565b9260409492945161353b81613ed9565b60058152600260208201526001604082015260016060820152600160808201523384526003602052604084205460018060a01b039060101c169284935b600560ff861610156136e057606461359f60ff61359781891687614fa5565b511686614263565b0480156136a2576001600160a01b038216151580613680575b6135e9575b506001600160a01b0390811686526003602052604086205460101c16936135e3906147b6565b93613578565b60015460405163a9059cbb60e01b81529060209082906001600160a01b0316818b81613619888a60048401614065565b03925af1908115613444578891613642575b50156135bd5761363b9198614035565b96386135bd565b90506020813d602011613678575b8161365d60209383613f07565b810103126136745761366e90614058565b3861362b565b8780fd5b3d9150613650565b506001600160a01b03821687526003602052604087205460081c60ff166135b8565b50936001600160a01b038516806136be575b506135e3906147b6565b86526003602052604086205460101c6001600160a01b031694506135e36136b4565b5092505092939193613231565b63018b820081018091116129a757421061370757386131c2565b60405162461bcd60e51b815260206004820152602660248201527f5374696c6c206c6f636b65643a2031302d6d6f6e746820706572696f64206e6f6044820152653a1037bb32b960d11b6064820152608490fd5b50346103065761378361376d36613df1565b90613776613fd0565b61377e61408f565b614bbf565b60016000805160206152c08339815191525580f35b5034610306576040366003190112610306576137b2613d51565b602435906137be613fd0565b6001600160a01b03169081156106405760085481811061382257816138067fba443e8671971c36cdeb74f87321041daff421230cbc5e36cb835269ed1d8b7e93602093614035565b60085583855260038252600860408620016105dd8282546140f0565b60405162461bcd60e51b8152602060048201526012602482015271115e18d959591cc818591b5a5b881c1bdbdb60721b6044820152606490fd5b5034610306576020366003190112610306576020906040906001600160a01b03613884613d51565b168152600c83522054604051908152f35b50346103065780600319360112610306576001546040516001600160a01b039091168152602090f35b5034610306576020366003190112610306576138d8613d51565b6138e0613fd0565b6001600160a01b0316801561064057600180546001600160a01b031916821790556040519081527ffa7bd61554593f4e69cdffd255d3fe947352b02c7d3ec68059384934e4cfd47c90602090a180f35b50346103065760208060031936011261087a576001600160a01b03613953613d51565b16808352600d8083526040842054928492855b858110613acc57506139778461520d565b946139818561520d565b9161398b8661520d565b9461399e6139988861520d565b9761520d565b988091815b858110613a0f57506139d48a613a0b8d6139fd8d6139ef8e6139e18f8f6040519a8b9a60a08c5260a08c0190613dbd565b918a8303908b0152613dbd565b908782036040890152613dbd565b908582036060870152613dbd565b908382036080850152613dbd565b0390f35b8b8b8b8b8a8c8a60ff6004613a2d8a60408e8e878252885220614fb6565b50015416613a4b575b50505050505050613a4690614080565b6139a3565b94613abd9694613ab7948c97948a613a81819f8f8f9e613a469f8260409160039c869e613a7a96525220614fb6565b5096614955565b52613a8e86855492614955565b52613a9e85600185015492614955565b52613aae84600284015492614955565b52015492614955565b52614080565b9390508b8b8b8b8a8c8a613a36565b81875283835260ff6004613ae38360408b20614fb6565b50015416613afa575b613af590614080565b613966565b93613b07613af591614080565b949050613aec565b503461030657602036600319011261030657613b99906040906001600160a01b03613b38613d51565b16815260036020522060ff601982015416613bc3613b5860158401613f2a565b92613bb5613b6860168301613f2a565b91613ba7613b846018613b7d60178501613f2a565b9301613f2a565b9360405198899860a08a5260a08a0190613d7d565b9088820360208a0152613d7d565b908682036040880152613d7d565b908482036060860152613d7d565b90151560808301520390f35b5034610306578060031936011261030657613be861408f565b3381526003602052604081205460ff811615610c685760081c60ff16613cb9576040516323b872dd60e01b815233600482015230602482015268070c1cc73b00c800006044820152602081606481857f00000000000000000000000000000000000000000000000000000000000000006001600160a01b03165af190811561086f578291613c80575b501561087e57613783336142ba565b90506020813d8211613cb1575b81613c9a60209383613f07565b8101031261087a57613cab90614058565b38613c71565b3d9150613c8d565b604051637cdf305160e11b8152600490fd5b50346103065760203660031901126103065760409081906001600160a01b03613cf2613d51565b1681526003602052206010600f82015491015482519182526020820152f35b5034610306578060031936011261030657602060405168070c1cc73b00c800008152f35b90503461087a578160031936011261087a576020906007548152f35b600435906001600160a01b038216820361090f57565b602435906001600160a01b038216820361090f57565b919082519283825260005b848110613da9575050826000602080949584010152601f8019910116010190565b602081830181015184830182015201613d88565b90815180825260208080930193019160005b828110613ddd575050505090565b835185529381019392810192600101613dcf565b604090600319011261090f576004359060243590565b3461090f57600036600319011261090f576020604051601e8152f35b9181601f8401121561090f578235916001600160401b03831161090f576020838186019501011161090f57565b60243590811515820361090f57565b60443590811515820361090f57565b600454811015613e8957600460005260206000200190600090565b634e487b7160e01b600052603260045260246000fd5b90600182811c92168015613ecf575b6020831014613eb957565b634e487b7160e01b600052602260045260246000fd5b91607f1691613eae565b60a081019081106001600160401b038211176119fc57604052565b6001600160401b0381116119fc57604052565b601f909101601f19168101906001600160401b038211908210176119fc57604052565b9060405191826000825492613f3e84613e9f565b908184526001948581169081600014613fad5750600114613f6a575b5050613f6892500383613f07565b565b9093915060005260209081600020936000915b818310613f95575050613f6893508201013880613f5a565b85548884018501529485019487945091830191613f7d565b915050613f6894506020925060ff191682840152151560051b8201013880613f5a565b6000546001600160a01b03163303613fe457565b60405163118cdaa760e01b8152336004820152602490fd5b1561400357565b60405162461bcd60e51b815260206004820152600a6024820152694e6f742061637469766560b01b6044820152606490fd5b9190820391821161404257565b634e487b7160e01b600052601160045260246000fd5b5190811515820361090f57565b6001600160a01b039091168152602081019190915260400190565b60001981146140425760010190565b6000805160206152c083398151915260028154146140ad5760029055565b604051633ee5aeb560e01b8152600490fd5b156140c657565b60405162461bcd60e51b81526020600482015260026024820152615a4160f01b6044820152606490fd5b9190820180921161404257565b6001600160a01b039081166000818152600360205260409020805461ff01600160b01b03191660109490941b62010000600160b01b03169390931760011783556002830180546001600160a81b0319169483169490941794151560a01b60ff60a01b16949094179092556012810180546001600160a01b031916905542601490910155600454909190600160401b8110156119fc578060016141a29201600455613e6e565b909283549160031b92831b921b19161790556141bf600554614080565b600555565b60018060a01b039182600092168252600391602092808452600291604091838383200154958787169560ff96898860a09a8b1c16915b1690811561425657156142395780855283835260058686200161421d8154614080565b90555b8452828252858585200154898089838c1c1692166141fa565b80855283835260068686200161424f8154614080565b9055614220565b5050975050505050505050565b8181029291811591840414171561404257565b8115614280570490565b634e487b7160e01b600052601260045260246000fd5b9192608093969594919660a084019784526020840152604083015260608201520152565b6001805460408051623144bd60e31b81526004956001600160a01b03938416959094929160209060009082818b818c5afa9081156147ac57829161477f575b50801561476c576b030e68b6d6e0acc82863363160251b049784519063095ea7b360e01b82528a82015268070c1cc73b00c80000908160248201528381604481868c7f0000000000000000000000000000000000000000000000000000000000000000165af180156146d857614738575b50868654168551906370a0823160e01b92838352308d8401528583602481855afa92831561472e5785936146ff575b50813b156108be57849060448e838b519586948593634e538d9360e11b8552309085015260248401525af180156146f5576146e2575b50838b60248a8a54169489519586938492835230908301525afa80156146d85783906146a9575b6144009250614035565b94601e8902898104601e148a151715614696576064900499509697959680888b8061442b818c614035565b9061443591614035565b9061443f91614035565b8c6006549061444d916140f0565b60065561445a908d6140f0565b9560089687549061446a916140f0565b875516988984526003938486528781209061ff00198254166101001791828155600b016815245655b102580000905582601092831c1695819785965b614515575b505050505050505096806144f39381938a7f8af2c013a5a55c6d3ad5423522fe76c6f2eb831b5e23318276b3c678cb457fc9999a9b84116144f8575b50505195869586614296565b0390a2565b61450561450c9185614035565b82546140f0565b905538806144e7565b909192939495969760ff90600a828a1611158061468b575b15614684578a918f918f6145438f918d906147dc565b91821561466357908a614557848f946140f0565b9e16958694858b528989528d838c20918254841c16918261464d575b505015614603577fb16479bdac5b7099d9236d6fc6be3b30ff54188f4fd961686e1e1dc7ecb880379392916145dc91868c528a8a52818c20016145b78582546140f0565b9055858b528989526009818c20016145d08582546140f0565b905551928392836147c7565b0390a35b8352818152856145f7868c862054871c16986147b6565b969594939291906144a6565b7f117ca0cd821ecb7eadfea2d6927a67853908bdc351a386235215f5ab6071bfed9495508392506146386146459482546140f0565b9055519182918d836147c7565b0390a26145e0565b0154905061465a84614928565b11158d38614573565b9c9350505050869150168352818152856145f7868c862054871c16986147b6565b98506144ab565b50868a16151561452d565b634e487b7160e01b835260118b52602483fd5b508382813d83116146d1575b6146bf8183613f07565b8101031261090f5761440091516143f6565b503d6146b5565b86513d85823e3d90fd5b6146ee90939193613ef4565b91386143cf565b87513d86823e3d90fd5b9092508581813d8311614727575b6147178183613f07565b810103126108be57519138614399565b503d61470d565b88513d87823e3d90fd5b8381813d8311614765575b61474d8183613f07565b8101031261086b5761475e90614058565b503861436a565b503d614743565b634e487b7160e01b825260128a52602482fd5b90508281813d83116147a5575b6147968183613f07565b8101031261087a5751386142f9565b503d61478c565b85513d84823e3d90fd5b60ff1660ff81146140425760010190565b6020909392919360ff60408201951681520152565b9060ff166001811461490d57600281146148f257600381146148d7576004908181146148c057600581146148a357600681146148a357600781146148865760088114614886576009811461486957600a14614838575050600090565b8160011b918083046002149015171561485457506103e8900490565b601190634e487b7160e01b6000525260246000fd5b508160011b918083046002149015171561485457506103e8900490565b5060038202918083046003149015171561485457506103e8900490565b5060058202918083046005149015171561485457506103e8900490565b508180046001148215171561485457506064900490565b508060011b9080820460021490151715614042576064900490565b50600581029080820460051490151715614042576064900490565b50601481029080820460141490151715614042576064900490565b60ff60049116111561493957600590565b600290565b6001600160401b0381116119fc5760051b60200190565b8051821015613e895760209160051b010190565b8180614b80575b614b79578115918280614b54575b614b4c576005549260018085018095116140425761499b8561493e565b906149b66040966149ae88519485613f07565b80845261493e565b9260209283810194601f19013686376000808715614b2d576001600160a01b03898116835260038088528b8420015416965b6001600160a01b0397881680614b19575b50505b818110614a775750505080614a5c575b614a52575082614a35575b5050614a2e57815163c5bb5bcd60e01b8152600490fd5b9160009150565b816003929350841660005252600483600020015416153880614a17565b9594505050509190565b50828516600052600382528260038760002001541615614a0c565b86614a8b614a8483614080565b9285614955565b51168060005260038088528b600020918982840154168015614b06578a6004809501541615614af257908a939291614acc614ac588614080565b9789614955565b5260005288528b600020015416614aec614ae584614080565b9385614955565b526149fc565b509b50505050505050505050505090600090565b509a505050505050509594505050509190565b9092508592845115613e89575238806149f9565b6001600160a01b038981168352600387528a83206004015416966149e8565b509160009150565b506001600160a01b03828116600090815260036020526040902060040154161561497e565b9160019150565b5060018060a01b0380821660005260036020526003604060002001541615614970565b9094939260609260808301968352602083015260408201520152565b919060ff90600a9382855416614f14576006948554928315614edb5760009687815560468502858104604603614ec7576064900495614bfe8787614035565b98614c0e6009948b8655876140f0565b926004918254808611614ebf575b508097805b868110614e2b57508815614ddc575b858110614c705750505050505050906000805160206152a08339815191529495614c6b92600160ff1982541617905560405194859485614ba3565b0390a1565b84888c614c7c84613e6e565b9390549360039460018060a01b0391861b1c16938487528d8c602092808452604096878b2092835496600897881c1615614dc95760058401548d85015480821015614dc15750945b60079485015480871115614db957614cdc9087614035565b985b8915614da457906123508a614cf293614263565b968a8d52838752898d2001614d088882546140f0565b9055898c52828652888c2001614d1f8782546140f0565b90558087029087820403614d915791879593917fbee8f46206dc051d674f6ca1e618efe407d83b27ffbe3540b916edfd34e428e1979593614d7260118c9b8f614d8c9f9e815285895220019182546140f0565b9055888c528352858b2001558351928352820152a2614080565b614c30565b634e487b7160e01b8b5260118d5260248bfd5b505050505050505050505050614d8c90614080565b508c98614cde565b905094614cc4565b50505050505050505050614d8c90614080565b50965050505050829150614e0d614e056000805160206152a083398151915297986080976140f0565b6008546140f0565b600855556040519182528060208301528060408301526060820152a1565b614e3481613e6e565b9054600391821b1c6001600160a01b0316845260205260408320805460081c871615614eb5576007600582015486830154808210600014614ead5750915b015490818111614e8d575b5050614e8890614080565b614c21565b9a614e9f614ea592614e88949d614035565b906140f0565b999038614e7d565b905091614e72565b50614e8890614080565b945038614c1c565b634e487b7160e01b89526011600452602489fd5b60405162461bcd60e51b8152602060048201526011602482015270115b5c1d1e48189a5b985c9e481c1bdbdb607a1b6044820152606490fd5b60405162c9487960e41b8152600490fd5b15614f2c57565b60405162461bcd60e51b815260206004820152600e60248201526d139bdd081c9959da5cdd195c995960921b6044820152606490fd5b15614f6957565b60405162461bcd60e51b81526020600482015260146024820152731554d115081d1c985b9cd9995c8819985a5b195960621b6044820152606490fd5b906005811015613e895760051b0190565b8054821015613e89576000526005602060002091020190600090565b15614fd957565b60405162461bcd60e51b815260206004820152600d60248201526c092dcecc2d8d2c840d2dcc8caf609b1b6044820152606490fd5b1561501557565b60405162461bcd60e51b815260206004820152601060248201526f105b1c9958591e481d5b9cdd185ad95960821b6044820152606490fd5b6002546001600160a01b03169081156150c9576020906024604051809481936347cd519160e01b835260048301525afa9081156150bd5760009161508f575090565b906020823d82116150b5575b816150a860209383613f07565b8101031261030657505190565b3d915061509b565b6040513d6000823e3d90fd5b5050600090565b6002546001600160a01b03169081156150c9576020906024604051809481936375b1f0e160e11b835260048301525afa9081156150bd5760009161508f575090565b6002546001600160a01b03169081156150c957602090602460405180948193631d61396160e11b835260048301525afa9081156150bd5760009161508f575090565b6002546001600160a01b039081169182156151ff57166024600082815260206003815280600f60408420015495604051948580926347cd519160e01b8252600160048301525afa92831561086f5782936151cf575b5060ff9160036040928596835252205460081c1690816151c7575092565b905082101592565b9080935081813d83116151f8575b6151e78183613f07565b8101031261087a57519160ff6151a9565b503d6151dd565b505050600090600090600090565b906152178261493e565b6152246040519182613f07565b8281528092615235601f199161493e565b019060203691013756fe34ff37874d7443037a85c6f390fe14f2ae3e8767355de0e63891ad4367c275398be0079c531659141344cd1fd0a4f28419497f9722a3daafe3b4186f6b6457e0dcfd2b4017d03f7e541021db793b2f9b31e4acdee005f789e52853c390e3e962a0ea5705200c9ffd36dc735fef1592c3234bb7e311fc1b0a444f6370d0620eae9b779b17422d0df92223018b32b4d1fa46e071723d6817e2486d003becc55f00a264697066735822122036caf745e32a639b57bd5f1fdf6d0ca5b0ee65ea7281533eb18dc773adb22adf64736f6c63430008140033","opcodes":"PUSH1 0xA0 CALLVALUE PUSH3 0x17C JUMPI PUSH1 0x1F PUSH3 0x54C2 CODESIZE DUP2 SWAP1 SUB SWAP2 DUP3 ADD PUSH1 0x1F NOT AND DUP4 ADD SWAP2 PUSH1 0x1 PUSH1 0x1 PUSH1 0x40 SHL SUB DUP4 GT DUP5 DUP5 LT OR PUSH3 0x181 JUMPI DUP1 DUP5 SWAP3 PUSH1 0x40 SWAP5 DUP6 MSTORE DUP4 CODECOPY DUP2 ADD SUB SLT PUSH3 0x17C JUMPI PUSH3 0x5A PUSH1 0x20 PUSH3 0x52 DUP4 PUSH3 0x197 JUMP JUMPDEST SWAP3 ADD PUSH3 0x197 JUMP JUMPDEST SWAP1 CALLER ISZERO PUSH3 0x163 JUMPI PUSH1 0x0 SLOAD SWAP2 PUSH1 0x1 DUP1 PUSH1 0xA0 SHL SUB NOT SWAP3 CALLER DUP5 DUP3 AND OR PUSH1 0x0 SSTORE PUSH1 0x40 MLOAD SWAP1 PUSH1 0x1 DUP1 PUSH1 0xA0 SHL SUB SWAP4 DUP5 SWAP2 DUP3 CALLER SWAP2 AND PUSH32 0x8BE0079C531659141344CD1FD0A4F28419497F9722A3DAAFE3B4186F6B6457E0 PUSH1 0x0 DUP1 LOG3 PUSH1 0x1 PUSH32 0x9B779B17422D0DF92223018B32B4D1FA46E071723D6817E2486D003BECC55F00 SSTORE AND SWAP1 DUP2 ISZERO DUP1 ISZERO PUSH3 0x158 JUMPI JUMPDEST PUSH3 0x149 JUMPI POP PUSH1 0x80 MSTORE AND SWAP1 PUSH1 0x1 SLOAD AND OR PUSH1 0x1 SSTORE PUSH1 0x40 MLOAD PUSH2 0x5315 SWAP1 DUP2 PUSH3 0x1AD DUP3 CODECOPY PUSH1 0x80 MLOAD DUP2 DUP2 DUP2 PUSH2 0x785 ADD MSTORE DUP2 DUP2 PUSH2 0xE2E ADD MSTORE DUP2 DUP2 PUSH2 0x112C ADD MSTORE DUP2 DUP2 PUSH2 0x1281 ADD MSTORE DUP2 DUP2 PUSH2 0x1500 ADD MSTORE DUP2 DUP2 PUSH2 0x1B5C ADD MSTORE DUP2 DUP2 PUSH2 0x27D4 ADD MSTORE DUP2 DUP2 PUSH2 0x324F ADD MSTORE DUP2 DUP2 PUSH2 0x3C39 ADD MSTORE PUSH2 0x433D ADD MSTORE RETURN JUMPDEST PUSH4 0xD92E233D PUSH1 0xE0 SHL DUP2 MSTORE PUSH1 0x4 SWAP1 REVERT JUMPDEST POP DUP4 DUP4 AND ISZERO PUSH3 0xDE JUMP JUMPDEST PUSH1 0x40 MLOAD PUSH4 0x1E4FBDF7 PUSH1 0xE0 SHL DUP2 MSTORE PUSH1 0x0 PUSH1 0x4 DUP3 ADD MSTORE PUSH1 0x24 SWAP1 REVERT JUMPDEST PUSH1 0x0 DUP1 REVERT JUMPDEST PUSH4 0x4E487B71 PUSH1 0xE0 SHL PUSH1 0x0 MSTORE PUSH1 0x41 PUSH1 0x4 MSTORE PUSH1 0x24 PUSH1 0x0 REVERT JUMPDEST MLOAD SWAP1 PUSH1 0x1 PUSH1 0x1 PUSH1 0xA0 SHL SUB DUP3 AND DUP3 SUB PUSH3 0x17C JUMPI JUMP INVALID PUSH2 0x320 DUP1 PUSH1 0x40 MSTORE PUSH1 0x4 CALLDATASIZE LT ISZERO PUSH2 0x14 JUMPI PUSH1 0x0 DUP1 REVERT JUMPDEST PUSH1 0x0 SWAP1 DUP2 CALLDATALOAD PUSH1 0xE0 SHR SWAP1 DUP2 PUSH4 0x266F044 EQ PUSH2 0x3D35 JUMPI POP DUP1 PUSH4 0x39CCC26 EQ PUSH2 0x3D11 JUMPI DUP1 PUSH4 0x3C3ECB7 EQ PUSH2 0x3CCB JUMPI DUP1 PUSH4 0xF15F4C0 EQ PUSH2 0x3BCF JUMPI DUP1 PUSH4 0xF53A470 EQ PUSH2 0x3B0F JUMPI DUP1 PUSH4 0x1747E0B0 EQ PUSH2 0x3930 JUMPI DUP1 PUSH4 0x1CE5E894 EQ PUSH2 0x38BE JUMPI DUP1 PUSH4 0x1F6259D5 EQ PUSH2 0x3895 JUMPI DUP1 PUSH4 0x2335821B EQ PUSH2 0x385C JUMPI DUP1 PUSH4 0x2808BC8D EQ PUSH2 0x3798 JUMPI DUP1 PUSH4 0x2D641F08 EQ PUSH2 0x375B JUMPI DUP1 PUSH4 0x2E17DE78 EQ PUSH2 0x3154 JUMPI DUP1 PUSH4 0x38ABFC41 EQ PUSH2 0x3136 JUMPI DUP1 PUSH4 0x3AC272C2 EQ PUSH2 0x3117 JUMPI DUP1 PUSH4 0x3CCB13D3 EQ PUSH2 0x30FB JUMPI DUP1 PUSH4 0x44E374D5 EQ PUSH2 0x109E JUMPI DUP1 PUSH4 0x47CD5191 EQ PUSH2 0x30DC JUMPI DUP1 PUSH4 0x485D3834 EQ PUSH2 0x997 JUMPI DUP1 PUSH4 0x4B3F0D45 EQ PUSH2 0x3013 JUMPI DUP1 PUSH4 0x52375BB1 EQ PUSH2 0x2FE4 JUMPI DUP1 PUSH4 0x55509C8F EQ PUSH2 0x2A64 JUMPI DUP1 PUSH4 0x634F627E EQ PUSH2 0x274E JUMPI DUP1 PUSH4 0x6386C1C7 EQ PUSH2 0x2580 JUMPI DUP1 PUSH4 0x68DDB2B5 EQ PUSH2 0x24A8 JUMPI DUP1 PUSH4 0x715018A6 EQ PUSH2 0x2460 JUMPI DUP1 PUSH4 0x77537844 EQ PUSH2 0x109E JUMPI DUP1 PUSH4 0x7F1B4064 EQ PUSH2 0x2442 JUMPI DUP1 PUSH4 0x8431FDD7 EQ PUSH2 0x241E JUMPI DUP1 PUSH4 0x8A8F0429 EQ PUSH2 0x21D9 JUMPI DUP1 PUSH4 0x8DA5CB5B EQ PUSH2 0x21B2 JUMPI DUP1 PUSH4 0x92446E30 EQ PUSH2 0x2196 JUMPI DUP1 PUSH4 0x94915DD0 EQ PUSH2 0x1EB7 JUMPI DUP1 PUSH4 0x9499A351 EQ PUSH2 0x1E7E JUMPI DUP1 PUSH4 0xA2BDEDF4 EQ PUSH2 0x1E3A JUMPI DUP1 PUSH4 0xA87430BA EQ PUSH2 0x1B8B JUMPI DUP1 PUSH4 0xA98AD46C EQ PUSH2 0x1B46 JUMPI DUP1 PUSH4 0xAA33F5D5 EQ PUSH2 0x18F7 JUMPI DUP1 PUSH4 0xAA393757 EQ PUSH2 0x18D3 JUMPI DUP1 PUSH4 0xABE50F19 EQ PUSH2 0x11F1 JUMPI DUP1 PUSH4 0xB58E0278 EQ PUSH2 0x10C1 JUMPI DUP1 PUSH4 0xB86A1FB2 EQ PUSH2 0x10A3 JUMPI DUP1 PUSH4 0xBE648BDB EQ PUSH2 0x109E JUMPI DUP1 PUSH4 0xBFF1F9E1 EQ PUSH2 0x1080 JUMPI DUP1 PUSH4 0xC9D484CF EQ PUSH2 0x1057 JUMPI DUP1 PUSH4 0xCE8292F5 EQ PUSH2 0xFC3 JUMPI DUP1 PUSH4 0xCF57EE69 EQ PUSH2 0xF8A JUMPI DUP1 PUSH4 0xCFD47663 EQ PUSH2 0xEFE JUMPI DUP1 PUSH4 0xD3635A02 EQ PUSH2 0xDC3 JUMPI DUP1 PUSH4 0xD4A90286 EQ PUSH2 0xCF1 JUMPI DUP1 PUSH4 0xE0E01011 EQ PUSH2 0x9B6 JUMPI DUP1 PUSH4 0xE239C400 EQ PUSH2 0x997 JUMPI DUP1 PUSH4 0xE3BA9BDA EQ PUSH2 0x92D JUMPI DUP1 PUSH4 0xE4093A66 EQ PUSH2 0x6C7 JUMPI DUP1 PUSH4 0xE51CB530 EQ PUSH2 0x679 JUMPI DUP1 PUSH4 0xEB63E1C2 EQ PUSH2 0x652 JUMPI DUP1 PUSH4 0xEC50324A EQ PUSH2 0x553 JUMPI DUP1 PUSH4 0xF00B0093 EQ PUSH2 0x51A JUMPI DUP1 PUSH4 0xF0B7B9DC EQ PUSH2 0x3F8 JUMPI DUP1 PUSH4 0xF24C536A EQ PUSH2 0x37F JUMPI DUP1 PUSH4 0xF2FDE38B EQ PUSH2 0x309 JUMPI PUSH4 0xFB72CA35 EQ PUSH2 0x2C1 JUMPI PUSH1 0x0 DUP1 REVERT JUMPDEST CALLVALUE PUSH2 0x306 JUMPI PUSH1 0x20 CALLDATASIZE PUSH1 0x3 NOT ADD SLT PUSH2 0x306 JUMPI PUSH1 0x40 SWAP1 PUSH1 0x1 PUSH1 0x1 PUSH1 0xA0 SHL SUB PUSH2 0x2E5 PUSH2 0x3D51 JUMP JUMPDEST AND DUP2 MSTORE PUSH1 0xB PUSH1 0x20 MSTORE DUP2 DUP1 DUP3 KECCAK256 SLOAD SWAP2 PUSH1 0xC PUSH1 0x20 MSTORE KECCAK256 SLOAD DUP3 MLOAD SWAP2 DUP3 MSTORE PUSH1 0x20 DUP3 ADD MSTORE RETURN JUMPDEST DUP1 REVERT JUMPDEST POP CALLVALUE PUSH2 0x306 JUMPI PUSH1 0x20 CALLDATASIZE PUSH1 0x3 NOT ADD SLT PUSH2 0x306 JUMPI PUSH2 0x323 PUSH2 0x3D51 JUMP JUMPDEST PUSH2 0x32B PUSH2 0x3FD0 JUMP JUMPDEST PUSH1 0x1 PUSH1 0x1 PUSH1 0xA0 SHL SUB SWAP1 DUP2 AND SWAP1 DUP2 ISZERO PUSH2 0x366 JUMPI PUSH1 0x0 SLOAD DUP3 PUSH1 0x1 DUP1 PUSH1 0xA0 SHL SUB NOT DUP3 AND OR PUSH1 0x0 SSTORE AND PUSH1 0x0 DUP1 MLOAD PUSH1 0x20 PUSH2 0x5260 DUP4 CODECOPY DUP2 MLOAD SWAP2 MSTORE PUSH1 0x0 DUP1 LOG3 DUP1 RETURN JUMPDEST PUSH1 0x40 MLOAD PUSH4 0x1E4FBDF7 PUSH1 0xE0 SHL DUP2 MSTORE PUSH1 0x4 DUP2 ADD DUP5 SWAP1 MSTORE PUSH1 0x24 SWAP1 REVERT JUMPDEST POP CALLVALUE PUSH2 0x306 JUMPI PUSH1 0x20 CALLDATASIZE PUSH1 0x3 NOT ADD SLT PUSH2 0x306 JUMPI PUSH1 0x40 SWAP1 PUSH1 0x1 PUSH1 0x1 PUSH1 0xA0 SHL SUB PUSH2 0x3A4 PUSH2 0x3D51 JUMP JUMPDEST AND DUP2 MSTORE PUSH1 0x3 PUSH1 0x20 MSTORE DUP2 DUP2 KECCAK256 SWAP1 PUSH1 0x7 PUSH1 0x5 DUP4 ADD SLOAD PUSH1 0x6 DUP5 ADD SLOAD DUP1 DUP3 LT PUSH1 0x0 EQ PUSH2 0x3F0 JUMPI POP SWAP3 JUMPDEST ADD SLOAD DUP1 DUP4 GT ISZERO PUSH2 0x3EA JUMPI PUSH2 0x3DE SWAP2 POP DUP3 PUSH2 0x4035 JUMP JUMPDEST DUP3 MLOAD SWAP2 DUP3 MSTORE PUSH1 0x20 DUP3 ADD MSTORE RETURN JUMPDEST POP PUSH2 0x3DE JUMP JUMPDEST SWAP1 POP SWAP3 PUSH2 0x3C9 JUMP JUMPDEST POP CALLVALUE PUSH2 0x306 JUMPI PUSH1 0x60 CALLDATASIZE PUSH1 0x3 NOT ADD SLT PUSH2 0x306 JUMPI PUSH2 0x412 PUSH2 0x3D51 JUMP JUMPDEST PUSH1 0x24 CALLDATALOAD SWAP1 PUSH2 0x41E PUSH2 0x408F JUMP JUMPDEST PUSH1 0x2 SLOAD PUSH1 0x1 PUSH1 0x1 PUSH1 0xA0 SHL SUB SWAP2 SWAP1 DUP3 AND CALLER SUB PUSH2 0x4E1 JUMPI PUSH32 0x2393ACB59B41DD645F68FE97BAB0DEBA2A21B99EFC69761E9B2762F11BBBE79D SWAP2 PUSH1 0x40 SWAP2 AND SWAP3 PUSH2 0x465 DUP5 ISZERO ISZERO PUSH2 0x40BF JUMP JUMPDEST PUSH2 0x470 DUP2 ISZERO ISZERO PUSH2 0x40BF JUMP JUMPDEST DUP4 DUP6 MSTORE PUSH1 0x3 PUSH1 0x20 MSTORE PUSH1 0xC DUP3 DUP7 KECCAK256 ADD PUSH2 0x489 DUP3 DUP3 SLOAD PUSH2 0x40F0 JUMP JUMPDEST SWAP1 SSTORE DUP4 DUP6 MSTORE PUSH1 0x3 PUSH1 0x20 MSTORE PUSH1 0xE DUP3 DUP7 KECCAK256 ADD PUSH2 0x4A4 DUP3 DUP3 SLOAD PUSH2 0x40F0 JUMP JUMPDEST SWAP1 SSTORE DUP4 DUP6 MSTORE PUSH1 0xC PUSH1 0x20 MSTORE DUP2 DUP6 KECCAK256 PUSH2 0x4BC DUP3 DUP3 SLOAD PUSH2 0x40F0 JUMP JUMPDEST SWAP1 SSTORE DUP2 MLOAD SWAP1 DUP2 MSTORE PUSH1 0x44 CALLDATALOAD PUSH1 0x20 DUP3 ADD MSTORE LOG2 PUSH1 0x1 PUSH1 0x0 DUP1 MLOAD PUSH1 0x20 PUSH2 0x52C0 DUP4 CODECOPY DUP2 MLOAD SWAP2 MSTORE SSTORE DUP1 RETURN JUMPDEST PUSH1 0x40 MLOAD PUSH3 0x461BCD PUSH1 0xE5 SHL DUP2 MSTORE PUSH1 0x20 PUSH1 0x4 DUP3 ADD MSTORE PUSH1 0x11 PUSH1 0x24 DUP3 ADD MSTORE PUSH17 0x2737BA103137B0B932103430B7323632B9 PUSH1 0x79 SHL PUSH1 0x44 DUP3 ADD MSTORE PUSH1 0x64 SWAP1 REVERT JUMPDEST POP CALLVALUE PUSH2 0x306 JUMPI PUSH1 0x20 CALLDATASIZE PUSH1 0x3 NOT ADD SLT PUSH2 0x306 JUMPI PUSH1 0x20 SWAP1 PUSH1 0x40 SWAP1 PUSH1 0x1 PUSH1 0x1 PUSH1 0xA0 SHL SUB PUSH2 0x542 PUSH2 0x3D51 JUMP JUMPDEST AND DUP2 MSTORE PUSH1 0xB DUP4 MSTORE KECCAK256 SLOAD PUSH1 0x40 MLOAD SWAP1 DUP2 MSTORE RETURN JUMPDEST POP CALLVALUE PUSH2 0x306 JUMPI PUSH1 0x40 CALLDATASIZE PUSH1 0x3 NOT ADD SLT PUSH2 0x306 JUMPI PUSH2 0x56D PUSH2 0x3D51 JUMP JUMPDEST PUSH1 0x24 CALLDATALOAD SWAP1 PUSH2 0x579 PUSH2 0x3FD0 JUMP JUMPDEST PUSH1 0x1 PUSH1 0x1 PUSH1 0xA0 SHL SUB AND SWAP1 DUP2 ISZERO PUSH2 0x640 JUMPI PUSH1 0x7 SLOAD DUP2 DUP2 LT PUSH2 0x604 JUMPI DUP2 PUSH2 0x5C1 PUSH32 0x529AFC4538720FE0B3EADC40486369AB962002D72FEAD1387B300C66073E7BF SWAP4 PUSH1 0x20 SWAP4 PUSH2 0x4035 JUMP JUMPDEST PUSH1 0x7 SSTORE DUP4 DUP6 MSTORE PUSH1 0x3 DUP3 MSTORE PUSH1 0x8 PUSH1 0x40 DUP7 KECCAK256 ADD PUSH2 0x5DD DUP3 DUP3 SLOAD PUSH2 0x40F0 JUMP JUMPDEST SWAP1 SSTORE DUP4 DUP6 MSTORE PUSH1 0x3 DUP3 MSTORE PUSH1 0x9 PUSH1 0x40 DUP7 KECCAK256 ADD PUSH2 0x5F8 DUP3 DUP3 SLOAD PUSH2 0x40F0 JUMP JUMPDEST SWAP1 SSTORE PUSH1 0x40 MLOAD SWAP1 DUP2 MSTORE LOG2 DUP1 RETURN JUMPDEST PUSH1 0x40 MLOAD PUSH3 0x461BCD PUSH1 0xE5 SHL DUP2 MSTORE PUSH1 0x20 PUSH1 0x4 DUP3 ADD MSTORE PUSH1 0x14 PUSH1 0x24 DUP3 ADD MSTORE PUSH20 0x115E18D959591CC81C995CD95C9D99481C1BDBDB PUSH1 0x62 SHL PUSH1 0x44 DUP3 ADD MSTORE PUSH1 0x64 SWAP1 REVERT JUMPDEST PUSH1 0x40 MLOAD PUSH4 0xD92E233D PUSH1 0xE0 SHL DUP2 MSTORE PUSH1 0x4 SWAP1 REVERT JUMPDEST POP CALLVALUE PUSH2 0x306 JUMPI PUSH1 0x20 CALLDATASIZE PUSH1 0x3 NOT ADD SLT PUSH2 0x306 JUMPI PUSH1 0x20 PUSH2 0x671 PUSH1 0x4 CALLDATALOAD PUSH2 0x50D0 JUMP JUMPDEST PUSH1 0x40 MLOAD SWAP1 DUP2 MSTORE RETURN JUMPDEST POP CALLVALUE PUSH2 0x306 JUMPI PUSH1 0x20 CALLDATASIZE PUSH1 0x3 NOT ADD SLT PUSH2 0x306 JUMPI PUSH1 0x40 SWAP1 PUSH1 0xD SWAP1 DUP3 SWAP1 PUSH1 0x1 PUSH1 0x1 PUSH1 0xA0 SHL SUB PUSH2 0x6A3 PUSH2 0x3D51 JUMP JUMPDEST AND DUP2 MSTORE PUSH1 0x3 PUSH1 0x20 MSTORE KECCAK256 ADD SLOAD DUP2 MLOAD SWAP1 PUSH9 0x70C1CC73B00C80000 DUP2 LT ISZERO DUP3 MSTORE PUSH1 0x20 DUP3 ADD MSTORE RETURN JUMPDEST POP CALLVALUE PUSH2 0x306 JUMPI DUP1 PUSH1 0x3 NOT CALLDATASIZE ADD SLT PUSH2 0x306 JUMPI PUSH2 0x6E0 PUSH2 0x408F JUMP JUMPDEST PUSH1 0x2 SLOAD PUSH1 0x1 PUSH1 0x1 PUSH1 0xA0 SHL SUB SWAP1 DUP2 AND SWAP1 DUP2 ISZERO PUSH2 0x91B JUMPI PUSH1 0x24 SWAP1 CALLER DUP5 MSTORE PUSH1 0x20 SWAP3 PUSH1 0x3 DUP5 MSTORE DUP4 PUSH1 0x40 DUP7 KECCAK256 SWAP2 PUSH2 0x718 PUSH1 0xFF DUP5 SLOAD PUSH1 0x8 SHR AND PUSH2 0x3FFC JUMP JUMPDEST PUSH1 0x40 MLOAD PUSH4 0x47CD5191 PUSH1 0xE0 SHL DUP2 MSTORE PUSH1 0x1 PUSH1 0x4 DUP3 ADD MSTORE SWAP5 DUP6 SWAP2 DUP3 SWAP1 GAS STATICCALL SWAP3 DUP4 ISZERO PUSH2 0x8C9 JUMPI DUP6 SWAP4 PUSH2 0x8E6 JUMPI JUMPDEST POP PUSH1 0xF ADD DUP1 SLOAD DUP4 DUP2 LT PUSH2 0x8D4 JUMPI DUP4 PUSH2 0x758 SWAP2 PUSH2 0x4035 JUMP JUMPDEST SWAP1 SSTORE PUSH2 0x77F DUP4 DUP4 DUP4 PUSH1 0x2 SLOAD AND PUSH1 0x40 MLOAD SWAP4 DUP5 SWAP3 DUP4 SWAP3 PUSH4 0xA9059CBB PUSH1 0xE0 SHL DUP5 MSTORE PUSH1 0x4 DUP5 ADD PUSH2 0x4065 JUMP JUMPDEST SUB DUP2 DUP9 DUP7 PUSH32 0x0 AND GAS CALL SWAP1 DUP2 ISZERO PUSH2 0x8C9 JUMPI DUP6 SWAP2 PUSH2 0x890 JUMPI JUMPDEST POP ISZERO PUSH2 0x87E JUMPI DUP4 SWAP1 CALLER DUP3 MSTORE PUSH1 0xB DUP5 MSTORE PUSH1 0x40 DUP3 KECCAK256 PUSH2 0x7D2 DUP2 SLOAD PUSH2 0x4080 JUMP JUMPDEST SWAP1 SSTORE PUSH1 0x2 SLOAD AND DUP1 EXTCODESIZE ISZERO PUSH2 0x87A JUMPI DUP2 DUP1 SWAP2 PUSH1 0x44 PUSH1 0x40 MLOAD DUP1 SWAP5 DUP2 SWAP4 PUSH4 0x686A38BD PUSH1 0xE0 SHL DUP4 MSTORE CALLER PUSH1 0x4 DUP5 ADD MSTORE PUSH1 0x1 PUSH1 0x24 DUP5 ADD MSTORE GAS CALL DUP1 ISZERO PUSH2 0x86F JUMPI PUSH2 0x857 JUMPI JUMPDEST POP POP PUSH1 0x40 MLOAD SWAP2 PUSH1 0x1 DUP4 MSTORE DUP3 ADD MSTORE PUSH32 0x4E755DD64E53A9F7A5882E2E32EB64718C2273DE11E017BD47129B9FE2716D7C PUSH1 0x40 CALLER SWAP3 LOG2 PUSH1 0x1 PUSH1 0x0 DUP1 MLOAD PUSH1 0x20 PUSH2 0x52C0 DUP4 CODECOPY DUP2 MLOAD SWAP2 MSTORE SSTORE DUP1 RETURN JUMPDEST PUSH2 0x860 SWAP1 PUSH2 0x3EF4 JUMP JUMPDEST PUSH2 0x86B JUMPI DUP3 CODESIZE PUSH2 0x80F JUMP JUMPDEST DUP3 DUP1 REVERT JUMPDEST PUSH1 0x40 MLOAD RETURNDATASIZE DUP5 DUP3 RETURNDATACOPY RETURNDATASIZE SWAP1 REVERT JUMPDEST POP DUP1 REVERT JUMPDEST PUSH1 0x40 MLOAD PUSH4 0x12171D83 PUSH1 0xE3 SHL DUP2 MSTORE PUSH1 0x4 SWAP1 REVERT JUMPDEST SWAP1 POP DUP4 DUP2 DUP2 RETURNDATASIZE DUP4 GT PUSH2 0x8C2 JUMPI JUMPDEST PUSH2 0x8A7 DUP2 DUP4 PUSH2 0x3F07 JUMP JUMPDEST DUP2 ADD SUB SLT PUSH2 0x8BE JUMPI PUSH2 0x8B8 SWAP1 PUSH2 0x4058 JUMP JUMPDEST CODESIZE PUSH2 0x7B5 JUMP JUMPDEST DUP5 DUP1 REVERT JUMPDEST POP RETURNDATASIZE PUSH2 0x89D JUMP JUMPDEST PUSH1 0x40 MLOAD RETURNDATASIZE DUP8 DUP3 RETURNDATACOPY RETURNDATASIZE SWAP1 REVERT JUMPDEST PUSH1 0x40 MLOAD PUSH4 0x856D687 PUSH1 0xE1 SHL DUP2 MSTORE PUSH1 0x4 SWAP1 REVERT JUMPDEST SWAP1 SWAP3 POP DUP4 DUP2 DUP2 RETURNDATASIZE DUP4 GT PUSH2 0x914 JUMPI JUMPDEST PUSH2 0x8FE DUP2 DUP4 PUSH2 0x3F07 JUMP JUMPDEST DUP2 ADD SUB SLT PUSH2 0x90F JUMPI MLOAD SWAP2 PUSH1 0xF PUSH2 0x741 JUMP JUMPDEST PUSH1 0x0 DUP1 REVERT JUMPDEST POP RETURNDATASIZE PUSH2 0x8F4 JUMP JUMPDEST PUSH1 0x40 MLOAD PUSH4 0x632100F7 PUSH1 0xE1 SHL DUP2 MSTORE PUSH1 0x4 SWAP1 REVERT JUMPDEST POP CALLVALUE PUSH2 0x306 JUMPI PUSH1 0x20 CALLDATASIZE PUSH1 0x3 NOT ADD SLT PUSH2 0x306 JUMPI PUSH2 0x947 PUSH2 0x3D51 JUMP JUMPDEST PUSH2 0x94F PUSH2 0x3FD0 JUMP JUMPDEST PUSH1 0x1 PUSH1 0x1 PUSH1 0xA0 SHL SUB AND DUP1 ISZERO PUSH2 0x640 JUMPI PUSH1 0x2 DUP1 SLOAD PUSH1 0x1 PUSH1 0x1 PUSH1 0xA0 SHL SUB NOT AND DUP3 OR SWAP1 SSTORE PUSH32 0x49424F87D81E4374EE3E8D1CF7B880966981A3CF6A7AC1D7A66C13D91756FCCC DUP3 DUP1 LOG2 DUP1 RETURN JUMPDEST POP CALLVALUE PUSH2 0x306 JUMPI DUP1 PUSH1 0x3 NOT CALLDATASIZE ADD SLT PUSH2 0x306 JUMPI PUSH1 0x20 PUSH1 0x40 MLOAD PUSH4 0x18B8200 DUP2 MSTORE RETURN JUMPDEST POP CALLVALUE PUSH2 0x306 JUMPI PUSH1 0x60 CALLDATASIZE PUSH1 0x3 NOT ADD SLT PUSH2 0x306 JUMPI PUSH2 0x9D0 PUSH2 0x3D51 JUMP JUMPDEST SWAP1 PUSH2 0x9D9 PUSH2 0x3D67 JUMP JUMPDEST PUSH2 0x9E1 PUSH2 0x3E5F JUMP JUMPDEST SWAP3 PUSH2 0x9EA PUSH2 0x408F JUMP JUMPDEST PUSH1 0x1 PUSH1 0x1 PUSH1 0xA0 SHL SUB DUP2 DUP2 AND SWAP2 DUP3 ISZERO PUSH2 0xCBA JUMPI CALLER DUP4 EQ PUSH2 0xC7A JUMPI CALLER DUP6 MSTORE PUSH1 0x3 SWAP2 PUSH1 0x20 SWAP5 DUP4 DUP7 MSTORE PUSH1 0xFF PUSH1 0x40 DUP9 KECCAK256 SLOAD AND ISZERO PUSH2 0xC68 JUMPI CALLER DUP8 MSTORE DUP4 DUP7 MSTORE PUSH1 0xFF PUSH1 0x40 DUP9 KECCAK256 SLOAD PUSH1 0x8 SHR AND ISZERO PUSH2 0xC2F JUMPI DUP5 DUP8 MSTORE DUP4 DUP7 MSTORE PUSH1 0xFF PUSH1 0x40 DUP9 KECCAK256 SLOAD AND PUSH2 0xC1D JUMPI CALLER DUP8 MSTORE DUP4 DUP7 MSTORE PUSH9 0x70C1CC73B00C80000 PUSH1 0xC PUSH1 0x40 DUP10 KECCAK256 ADD SLOAD LT PUSH2 0xC0B JUMPI DUP2 DUP2 AND DUP1 ISZERO ISZERO SWAP1 DUP2 PUSH2 0xBF7 JUMPI JUMPDEST POP ISZERO PUSH2 0xBEF JUMPI SWAP1 JUMPDEST DUP8 DUP1 PUSH2 0xBD6 JUMPI JUMPDEST PUSH2 0xBAA JUMPI DUP8 ISZERO SWAP4 DUP5 ISZERO SWAP5 DUP1 PUSH2 0xBBC JUMPI JUMPDEST PUSH2 0xBAA JUMPI CALLER DUP9 MSTORE DUP1 DUP8 MSTORE PUSH1 0xC PUSH1 0x40 DUP10 KECCAK256 ADD SWAP9 DUP10 SLOAD PUSH9 0x70C1CC73B00C7FFFF NOT DUP2 ADD SWAP1 DUP2 GT PUSH2 0xB96 JUMPI PUSH2 0xB31 SWAP7 SWAP8 SWAP9 SWAP10 SWAP11 SSTORE PUSH2 0xACA DUP2 DUP6 CALLER DUP9 PUSH2 0x40FD JUMP JUMPDEST ISZERO PUSH2 0xB72 JUMPI DUP3 DUP3 AND DUP10 MSTORE DUP1 DUP9 MSTORE PUSH1 0x40 DUP10 KECCAK256 DUP2 ADD DUP1 SLOAD PUSH1 0x1 PUSH1 0x1 PUSH1 0xA0 SHL SUB NOT AND DUP9 OR SWAP1 SSTORE JUMPDEST CALLER DUP10 MSTORE DUP8 MSTORE PUSH1 0x1 PUSH1 0x40 DUP10 KECCAK256 ADD PUSH2 0xB04 DUP2 SLOAD PUSH2 0x4080 JUMP JUMPDEST SWAP1 SSTORE PUSH2 0xB0F DUP4 PUSH2 0x41C4 JUMP JUMPDEST PUSH1 0x40 MLOAD SWAP2 DUP6 DUP4 MSTORE AND SWAP1 DUP6 PUSH1 0x0 DUP1 MLOAD PUSH1 0x20 PUSH2 0x5240 DUP4 CODECOPY DUP2 MLOAD SWAP2 MSTORE DUP9 CALLER SWAP4 LOG4 PUSH2 0x42BA JUMP JUMPDEST PUSH1 0x40 MLOAD SWAP1 DUP2 MSTORE PUSH32 0xF3D8729E7995A6170800155589C309C92998449C63BAB10C98F61F9AA007DB7D CALLER SWAP4 CALLER SWAP3 LOG4 PUSH1 0x1 PUSH1 0x0 DUP1 MLOAD PUSH1 0x20 PUSH2 0x52C0 DUP4 CODECOPY DUP2 MLOAD SWAP2 MSTORE SSTORE DUP1 RETURN JUMPDEST DUP3 DUP3 AND DUP10 MSTORE DUP1 DUP9 MSTORE PUSH1 0x40 DUP10 KECCAK256 PUSH1 0x4 ADD DUP1 SLOAD PUSH1 0x1 PUSH1 0x1 PUSH1 0xA0 SHL SUB NOT AND DUP9 OR SWAP1 SSTORE PUSH2 0xAEE JUMP JUMPDEST PUSH4 0x4E487B71 PUSH1 0xE0 SHL DUP11 MSTORE PUSH1 0x11 PUSH1 0x4 MSTORE PUSH1 0x24 DUP11 REVERT JUMPDEST PUSH1 0x40 MLOAD PUSH4 0xD5DD5C3D PUSH1 0xE0 SHL DUP2 MSTORE PUSH1 0x4 SWAP1 REVERT JUMPDEST POP DUP2 DUP4 AND DUP9 MSTORE DUP1 DUP8 MSTORE DUP2 PUSH1 0x4 PUSH1 0x40 DUP11 KECCAK256 ADD SLOAD AND ISZERO ISZERO PUSH2 0xA8D JUMP JUMPDEST POP DUP1 DUP3 AND DUP8 MSTORE DUP4 DUP7 MSTORE DUP1 DUP5 PUSH1 0x40 DUP10 KECCAK256 ADD SLOAD AND ISZERO ISZERO PUSH2 0xA7D JUMP JUMPDEST POP CALLER SWAP1 PUSH2 0xA76 JUMP JUMPDEST DUP9 MSTORE POP DUP4 DUP7 MSTORE PUSH1 0x40 DUP8 KECCAK256 SLOAD PUSH1 0xFF AND CODESIZE PUSH2 0xA6E JUMP JUMPDEST PUSH1 0x40 MLOAD PUSH4 0xB55C1BAD PUSH1 0xE0 SHL DUP2 MSTORE PUSH1 0x4 SWAP1 REVERT JUMPDEST PUSH1 0x40 MLOAD PUSH4 0xEA075BF PUSH1 0xE2 SHL DUP2 MSTORE PUSH1 0x4 SWAP1 REVERT JUMPDEST PUSH1 0x40 MLOAD PUSH3 0x461BCD PUSH1 0xE5 SHL DUP2 MSTORE PUSH1 0x4 DUP2 ADD DUP8 SWAP1 MSTORE PUSH1 0x11 PUSH1 0x24 DUP3 ADD MSTORE PUSH17 0x43616C6C6572206E6F7420616374697665 PUSH1 0x78 SHL PUSH1 0x44 DUP3 ADD MSTORE PUSH1 0x64 SWAP1 REVERT JUMPDEST PUSH1 0x40 MLOAD PUSH4 0xABA47339 PUSH1 0xE0 SHL DUP2 MSTORE PUSH1 0x4 SWAP1 REVERT JUMPDEST PUSH1 0x40 MLOAD PUSH3 0x461BCD PUSH1 0xE5 SHL DUP2 MSTORE PUSH1 0x20 PUSH1 0x4 DUP3 ADD MSTORE PUSH1 0x18 PUSH1 0x24 DUP3 ADD MSTORE PUSH24 0x21B0B73737BA103932B3B4B9BA32B9103CB7BAB939B2B633 PUSH1 0x41 SHL PUSH1 0x44 DUP3 ADD MSTORE PUSH1 0x64 SWAP1 REVERT JUMPDEST PUSH1 0x40 MLOAD PUSH3 0x461BCD PUSH1 0xE5 SHL DUP2 MSTORE PUSH1 0x20 PUSH1 0x4 DUP3 ADD MSTORE PUSH1 0xF PUSH1 0x24 DUP3 ADD MSTORE PUSH15 0x496E76616C69642061646472657373 PUSH1 0x88 SHL PUSH1 0x44 DUP3 ADD MSTORE PUSH1 0x64 SWAP1 REVERT JUMPDEST POP CALLVALUE PUSH2 0x306 JUMPI PUSH2 0xD00 CALLDATASIZE PUSH2 0x3DF1 JUMP JUMPDEST SWAP1 PUSH1 0x60 PUSH1 0x1 DUP1 PUSH1 0xA0 SHL SUB SWAP3 PUSH1 0x44 DUP5 PUSH1 0x2 SLOAD AND SWAP4 PUSH1 0x40 MLOAD SWAP5 DUP6 SWAP4 DUP5 SWAP3 PUSH4 0x6A548143 PUSH1 0xE1 SHL DUP5 MSTORE PUSH1 0x4 DUP5 ADD MSTORE PUSH1 0x24 DUP4 ADD MSTORE GAS STATICCALL SWAP1 DUP2 ISZERO PUSH2 0xDB8 JUMPI DUP4 SWAP3 DUP5 SWAP2 DUP6 SWAP4 PUSH2 0xD5D JUMPI JUMPDEST POP PUSH1 0x60 SWAP5 POP PUSH1 0x40 MLOAD SWAP4 AND DUP4 MSTORE PUSH1 0x20 DUP4 ADD MSTORE ISZERO ISZERO PUSH1 0x40 DUP3 ADD MSTORE RETURN JUMPDEST SWAP4 POP SWAP2 POP POP PUSH1 0x60 DUP3 RETURNDATASIZE DUP3 GT PUSH2 0xDB0 JUMPI JUMPDEST DUP2 PUSH2 0xD7A PUSH1 0x60 SWAP4 DUP4 PUSH2 0x3F07 JUMP JUMPDEST DUP2 ADD SUB SLT PUSH2 0x86B JUMPI DUP2 MLOAD DUP2 DUP2 AND DUP2 SUB PUSH2 0xDAC JUMPI PUSH1 0x60 SWAP4 POP PUSH2 0xDA2 PUSH1 0x40 PUSH1 0x20 DUP6 ADD MLOAD SWAP5 ADD PUSH2 0x4058 JUMP JUMPDEST SWAP1 SWAP3 SWAP1 SWAP2 CODESIZE PUSH2 0xD43 JUMP JUMPDEST DUP4 DUP1 REVERT JUMPDEST RETURNDATASIZE SWAP2 POP PUSH2 0xD6D JUMP JUMPDEST PUSH1 0x40 MLOAD RETURNDATASIZE DUP6 DUP3 RETURNDATACOPY RETURNDATASIZE SWAP1 REVERT JUMPDEST POP CALLVALUE PUSH2 0x306 JUMPI PUSH1 0x20 DUP1 PUSH1 0x3 NOT CALLDATASIZE ADD SLT PUSH2 0x87A JUMPI PUSH1 0x4 CALLDATALOAD SWAP1 PUSH2 0xDE2 PUSH2 0x408F JUMP JUMPDEST DUP2 ISZERO PUSH2 0xEEC JUMPI CALLER DUP4 MSTORE PUSH1 0x3 DUP2 MSTORE PUSH1 0xC PUSH1 0x40 DUP5 KECCAK256 ADD DUP1 SLOAD DUP4 DUP2 LT PUSH2 0xC0B JUMPI DUP4 PUSH2 0xE09 SWAP2 PUSH2 0x4035 JUMP JUMPDEST SWAP1 SSTORE PUSH1 0x40 MLOAD PUSH4 0xA9059CBB PUSH1 0xE0 SHL DUP2 MSTORE DUP2 DUP2 DUP1 PUSH2 0xE29 DUP7 CALLER PUSH1 0x4 DUP5 ADD PUSH2 0x4065 JUMP JUMPDEST SUB DUP2 DUP8 PUSH32 0x0 PUSH1 0x1 PUSH1 0x1 PUSH1 0xA0 SHL SUB AND GAS CALL SWAP1 DUP2 ISZERO PUSH2 0xEE1 JUMPI DUP5 SWAP2 PUSH2 0xEAC JUMPI JUMPDEST POP ISZERO PUSH2 0x87E JUMPI PUSH32 0xBDD3F02D2A57FB53C1156F98470B61CB60712D485C27C36A49B1263DABCDE201 SWAP1 PUSH1 0x40 MLOAD SWAP3 DUP4 MSTORE CALLER SWAP3 LOG2 PUSH1 0x1 PUSH1 0x0 DUP1 MLOAD PUSH1 0x20 PUSH2 0x52C0 DUP4 CODECOPY DUP2 MLOAD SWAP2 MSTORE SSTORE DUP1 RETURN JUMPDEST SWAP1 POP DUP2 DUP2 DUP2 RETURNDATASIZE DUP4 GT PUSH2 0xEDA JUMPI JUMPDEST PUSH2 0xEC3 DUP2 DUP4 PUSH2 0x3F07 JUMP JUMPDEST DUP2 ADD SUB SLT PUSH2 0xDAC JUMPI PUSH2 0xED4 SWAP1 PUSH2 0x4058 JUMP JUMPDEST CODESIZE PUSH2 0xE66 JUMP JUMPDEST POP RETURNDATASIZE PUSH2 0xEB9 JUMP JUMPDEST PUSH1 0x40 MLOAD RETURNDATASIZE DUP7 DUP3 RETURNDATACOPY RETURNDATASIZE SWAP1 REVERT JUMPDEST PUSH1 0x40 MLOAD PUSH4 0x1F2A2005 PUSH1 0xE0 SHL DUP2 MSTORE PUSH1 0x4 SWAP1 REVERT JUMPDEST POP CALLVALUE PUSH2 0x306 JUMPI PUSH1 0x40 CALLDATASIZE PUSH1 0x3 NOT ADD SLT PUSH2 0x306 JUMPI PUSH2 0xF4F PUSH1 0xA0 SWAP2 PUSH1 0x40 PUSH2 0xF20 PUSH2 0x3D51 JUMP JUMPDEST SWAP2 PUSH1 0x24 CALLDATALOAD SWAP3 PUSH1 0x1 DUP1 DUP8 SHL SUB AND DUP1 DUP3 MSTORE PUSH1 0xD PUSH1 0x20 MSTORE PUSH2 0xF42 DUP4 DUP4 KECCAK256 SLOAD DUP6 LT PUSH2 0x4FD2 JUMP JUMPDEST DUP2 MSTORE PUSH1 0xD PUSH1 0x20 MSTORE KECCAK256 PUSH2 0x4FB6 JUMP JUMPDEST POP DUP1 SLOAD SWAP1 PUSH1 0x1 DUP2 ADD SLOAD SWAP1 PUSH1 0x2 DUP2 ADD SLOAD PUSH1 0xFF PUSH1 0x4 PUSH1 0x3 DUP5 ADD SLOAD SWAP4 ADD SLOAD AND SWAP3 PUSH1 0x40 MLOAD SWAP5 DUP6 MSTORE PUSH1 0x20 DUP6 ADD MSTORE PUSH1 0x40 DUP5 ADD MSTORE PUSH1 0x60 DUP4 ADD MSTORE ISZERO ISZERO PUSH1 0x80 DUP3 ADD MSTORE RETURN JUMPDEST POP CALLVALUE PUSH2 0x306 JUMPI PUSH1 0x20 CALLDATASIZE PUSH1 0x3 NOT ADD SLT PUSH2 0x306 JUMPI PUSH1 0x20 SWAP1 PUSH1 0x40 SWAP1 PUSH1 0x1 PUSH1 0x1 PUSH1 0xA0 SHL SUB PUSH2 0xFB2 PUSH2 0x3D51 JUMP JUMPDEST AND DUP2 MSTORE PUSH1 0xD DUP4 MSTORE KECCAK256 SLOAD PUSH1 0x40 MLOAD SWAP1 DUP2 MSTORE RETURN JUMPDEST POP CALLVALUE PUSH2 0x306 JUMPI DUP1 PUSH1 0x3 NOT CALLDATASIZE ADD SLT PUSH2 0x306 JUMPI PUSH1 0x1 SLOAD PUSH1 0x40 MLOAD PUSH4 0x70A08231 PUSH1 0xE0 SHL DUP2 MSTORE ADDRESS PUSH1 0x4 DUP3 ADD MSTORE SWAP2 SWAP1 PUSH1 0x20 SWAP1 DUP4 SWAP1 PUSH1 0x24 SWAP1 DUP3 SWAP1 PUSH1 0x1 PUSH1 0x1 PUSH1 0xA0 SHL SUB AND GAS STATICCALL SWAP1 DUP2 ISZERO PUSH2 0x104B JUMPI SWAP1 PUSH2 0x1019 JUMPI JUMPDEST PUSH1 0x20 SWAP1 PUSH1 0x40 MLOAD SWAP1 DUP2 MSTORE RETURN JUMPDEST POP PUSH1 0x20 DUP2 RETURNDATASIZE DUP3 GT PUSH2 0x1043 JUMPI JUMPDEST DUP2 PUSH2 0x1032 PUSH1 0x20 SWAP4 DUP4 PUSH2 0x3F07 JUMP JUMPDEST DUP2 ADD SUB SLT PUSH2 0x90F JUMPI PUSH1 0x20 SWAP1 MLOAD PUSH2 0x100E JUMP JUMPDEST RETURNDATASIZE SWAP2 POP PUSH2 0x1025 JUMP JUMPDEST PUSH1 0x40 MLOAD SWAP1 RETURNDATASIZE SWAP1 DUP3 RETURNDATACOPY RETURNDATASIZE SWAP1 REVERT JUMPDEST POP CALLVALUE PUSH2 0x306 JUMPI DUP1 PUSH1 0x3 NOT CALLDATASIZE ADD SLT PUSH2 0x306 JUMPI PUSH1 0x2 SLOAD PUSH1 0x40 MLOAD PUSH1 0x1 PUSH1 0x1 PUSH1 0xA0 SHL SUB SWAP1 SWAP2 AND DUP2 MSTORE PUSH1 0x20 SWAP1 RETURN JUMPDEST POP CALLVALUE PUSH2 0x306 JUMPI DUP1 PUSH1 0x3 NOT CALLDATASIZE ADD SLT PUSH2 0x306 JUMPI PUSH1 0x20 PUSH1 0x5 SLOAD PUSH1 0x40 MLOAD SWAP1 DUP2 MSTORE RETURN JUMPDEST PUSH2 0x3E07 JUMP JUMPDEST POP CALLVALUE PUSH2 0x306 JUMPI DUP1 PUSH1 0x3 NOT CALLDATASIZE ADD SLT PUSH2 0x306 JUMPI PUSH1 0x20 PUSH1 0x8 SLOAD PUSH1 0x40 MLOAD SWAP1 DUP2 MSTORE RETURN JUMPDEST POP CALLVALUE PUSH2 0x306 JUMPI PUSH1 0x20 DUP1 PUSH1 0x3 NOT CALLDATASIZE ADD SLT PUSH2 0x87A JUMPI PUSH1 0x4 CALLDATALOAD SWAP1 PUSH2 0x10E0 PUSH2 0x408F JUMP JUMPDEST DUP2 ISZERO PUSH2 0xEEC JUMPI CALLER DUP4 MSTORE PUSH1 0x3 DUP2 MSTORE PUSH1 0xF PUSH1 0x40 DUP5 KECCAK256 ADD DUP1 SLOAD DUP4 DUP2 LT PUSH2 0x11DF JUMPI DUP4 PUSH2 0x1107 SWAP2 PUSH2 0x4035 JUMP JUMPDEST SWAP1 SSTORE PUSH1 0x40 MLOAD PUSH4 0xA9059CBB PUSH1 0xE0 SHL DUP2 MSTORE DUP2 DUP2 DUP1 PUSH2 0x1127 DUP7 CALLER PUSH1 0x4 DUP5 ADD PUSH2 0x4065 JUMP JUMPDEST SUB DUP2 DUP8 PUSH32 0x0 PUSH1 0x1 PUSH1 0x1 PUSH1 0xA0 SHL SUB AND GAS CALL SWAP1 DUP2 ISZERO PUSH2 0xEE1 JUMPI DUP5 SWAP2 PUSH2 0x11AA JUMPI JUMPDEST POP ISZERO PUSH2 0x87E JUMPI PUSH32 0x12701E4764B73009AB9826933C421483E4280410091FCC760515E0FA99FA766B SWAP1 PUSH1 0x40 MLOAD SWAP3 DUP4 MSTORE CALLER SWAP3 LOG2 PUSH1 0x1 PUSH1 0x0 DUP1 MLOAD PUSH1 0x20 PUSH2 0x52C0 DUP4 CODECOPY DUP2 MLOAD SWAP2 MSTORE SSTORE DUP1 RETURN JUMPDEST SWAP1 POP DUP2 DUP2 DUP2 RETURNDATASIZE DUP4 GT PUSH2 0x11D8 JUMPI JUMPDEST PUSH2 0x11C1 DUP2 DUP4 PUSH2 0x3F07 JUMP JUMPDEST DUP2 ADD SUB SLT PUSH2 0xDAC JUMPI PUSH2 0x11D2 SWAP1 PUSH2 0x4058 JUMP JUMPDEST CODESIZE PUSH2 0x1164 JUMP JUMPDEST POP RETURNDATASIZE PUSH2 0x11B7 JUMP JUMPDEST PUSH1 0x40 MLOAD PUSH4 0x6DAE8617 PUSH1 0xE1 SHL DUP2 MSTORE PUSH1 0x4 SWAP1 REVERT JUMPDEST POP CALLVALUE PUSH2 0x306 JUMPI PUSH1 0x40 CALLDATASIZE PUSH1 0x3 NOT ADD SLT PUSH2 0x306 JUMPI PUSH2 0x120B PUSH2 0x3E50 JUMP JUMPDEST PUSH2 0x1213 PUSH2 0x408F JUMP JUMPDEST PUSH9 0x2B5E3AF16B1880000 PUSH1 0x4 CALLDATALOAD LT PUSH2 0x189A JUMPI CALLER DUP3 MSTORE PUSH1 0x3 PUSH1 0x20 MSTORE PUSH2 0x123D PUSH1 0xFF PUSH1 0x40 DUP5 KECCAK256 SLOAD AND PUSH2 0x4F25 JUMP JUMPDEST CALLER DUP3 MSTORE PUSH1 0x3 PUSH1 0x20 MSTORE PUSH1 0xFF PUSH1 0x40 DUP4 KECCAK256 SLOAD PUSH1 0x8 SHR AND ISZERO PUSH2 0x1865 JUMPI PUSH1 0x40 MLOAD PUSH4 0x23B872DD PUSH1 0xE0 SHL DUP2 MSTORE CALLER PUSH1 0x4 DUP1 DUP4 ADD SWAP2 SWAP1 SWAP2 MSTORE ADDRESS PUSH1 0x24 DUP4 ADD MSTORE CALLDATALOAD PUSH1 0x44 DUP3 ADD MSTORE PUSH1 0x20 DUP2 PUSH1 0x64 DUP2 DUP7 PUSH32 0x0 PUSH1 0x1 PUSH1 0x1 PUSH1 0xA0 SHL SUB AND GAS CALL DUP1 ISZERO PUSH2 0xDB8 JUMPI DUP4 SWAP1 PUSH2 0x182A JUMPI JUMPDEST PUSH2 0x12C2 SWAP2 POP PUSH2 0x4F62 JUMP JUMPDEST PUSH1 0x40 MLOAD SWAP2 PUSH2 0x12CF DUP4 PUSH2 0x3ED9 JUMP JUMPDEST PUSH1 0xA DUP4 MSTORE PUSH1 0x2 PUSH1 0x20 DUP5 ADD MSTORE PUSH1 0x1 PUSH1 0x40 DUP5 ADD MSTORE PUSH1 0x1 PUSH1 0x60 DUP5 ADD MSTORE PUSH1 0x1 PUSH1 0x80 DUP5 ADD MSTORE CALLER DUP2 MSTORE PUSH1 0x3 PUSH1 0x20 MSTORE PUSH1 0x40 DUP2 KECCAK256 SLOAD PUSH1 0x1 DUP1 PUSH1 0xA0 SHL SUB SWAP1 PUSH1 0x10 SHR AND DUP2 SWAP4 DUP3 SWAP2 JUMPDEST PUSH1 0x5 PUSH1 0xFF DUP5 AND LT ISZERO PUSH2 0x148E JUMPI PUSH1 0x64 PUSH2 0x1336 PUSH1 0xFF PUSH2 0x132C DUP2 DUP8 AND DUP7 PUSH2 0x4FA5 JUMP JUMPDEST MLOAD AND PUSH1 0x4 CALLDATALOAD PUSH2 0x4263 JUMP JUMPDEST DIV DUP1 ISZERO PUSH2 0x1450 JUMPI PUSH1 0x1 PUSH1 0x1 PUSH1 0xA0 SHL SUB DUP3 AND ISZERO DUP1 ISZERO PUSH2 0x142D JUMPI JUMPDEST ISZERO PUSH2 0x138F JUMPI PUSH2 0x1360 SWAP1 PUSH1 0x8 SLOAD PUSH2 0x40F0 JUMP JUMPDEST PUSH1 0x8 SSTORE JUMPDEST PUSH1 0x1 PUSH1 0x1 PUSH1 0xA0 SHL SUB SWAP1 DUP2 AND DUP5 MSTORE PUSH1 0x3 PUSH1 0x20 MSTORE PUSH1 0x40 DUP5 KECCAK256 SLOAD PUSH1 0x10 SHR AND SWAP2 PUSH2 0x1389 SWAP1 PUSH2 0x47B6 JUMP JUMPDEST SWAP2 PUSH2 0x130D JUMP JUMPDEST SWAP6 DUP7 PUSH2 0x13BE SWAP2 PUSH1 0x1 DUP1 PUSH1 0xA0 SHL SUB DUP5 AND DUP8 MSTORE PUSH1 0x3 PUSH1 0x20 MSTORE PUSH1 0xC PUSH1 0x40 DUP9 KECCAK256 ADD PUSH2 0x13B7 DUP4 DUP3 SLOAD PUSH2 0x40F0 JUMP JUMPDEST SWAP1 SSTORE PUSH2 0x40F0 JUMP JUMPDEST SWAP6 PUSH1 0xFF PUSH1 0x1 DUP2 DUP7 AND ADD GT PUSH2 0x1419 JUMPI PUSH1 0x40 MLOAD CALLER SWAP2 PUSH1 0x1 PUSH1 0x1 PUSH1 0xA0 SHL SUB DUP5 AND SWAP2 PUSH32 0xC8C0CC32A736135FA3C2A3C467849CD282797396BC67D2D5326F7E161E601C1D SWAP2 DUP2 SWAP1 PUSH2 0x1411 SWAP1 PUSH1 0xFF DUP11 AND PUSH1 0x1 ADD DUP4 PUSH2 0x47C7 JUMP JUMPDEST SUB SWAP1 LOG3 PUSH2 0x1364 JUMP JUMPDEST PUSH4 0x4E487B71 PUSH1 0xE0 SHL DUP6 MSTORE PUSH1 0x11 PUSH1 0x4 MSTORE PUSH1 0x24 DUP6 REVERT JUMPDEST POP PUSH1 0x1 PUSH1 0x1 PUSH1 0xA0 SHL SUB DUP3 AND DUP6 MSTORE PUSH1 0x3 PUSH1 0x20 MSTORE PUSH1 0x40 DUP6 KECCAK256 SLOAD PUSH1 0x8 SHR PUSH1 0xFF AND ISZERO PUSH2 0x134F JUMP JUMPDEST POP SWAP2 PUSH1 0x1 PUSH1 0x1 PUSH1 0xA0 SHL SUB DUP4 AND DUP1 PUSH2 0x146C JUMPI JUMPDEST POP PUSH2 0x1389 SWAP1 PUSH2 0x47B6 JUMP JUMPDEST DUP5 MSTORE PUSH1 0x3 PUSH1 0x20 MSTORE PUSH1 0x40 DUP5 KECCAK256 SLOAD PUSH1 0x10 SHR PUSH1 0x1 PUSH1 0x1 PUSH1 0xA0 SHL SUB AND SWAP3 POP PUSH2 0x1389 PUSH2 0x1462 JUMP JUMPDEST POP POP POP SWAP2 PUSH1 0xF PUSH1 0x4 CALLDATALOAD MUL PUSH1 0x4 CALLDATALOAD DUP2 DIV PUSH1 0xF EQ PUSH1 0x4 CALLDATALOAD ISZERO OR ISZERO PUSH2 0x1816 JUMPI SWAP1 PUSH2 0x14BC PUSH1 0x64 PUSH2 0x14CB SWAP4 DIV SWAP2 DUP3 PUSH2 0x4035 JUMP JUMPDEST DUP1 PUSH2 0x1801 JUMPI JUMPDEST POP PUSH1 0x4 CALLDATALOAD PUSH2 0x4035 JUMP JUMPDEST PUSH1 0x1 SLOAD PUSH1 0x40 MLOAD PUSH4 0x95EA7B3 PUSH1 0xE0 SHL DUP2 MSTORE SWAP1 PUSH1 0x20 SWAP1 DUP3 SWAP1 DUP2 SWAP1 PUSH2 0x14FB SWAP1 DUP7 SWAP1 PUSH1 0x1 PUSH1 0x1 PUSH1 0xA0 SHL SUB AND PUSH1 0x4 DUP5 ADD PUSH2 0x4065 JUMP JUMPDEST SUB DUP2 DUP8 PUSH32 0x0 PUSH1 0x1 PUSH1 0x1 PUSH1 0xA0 SHL SUB AND GAS CALL DUP1 ISZERO PUSH2 0xEE1 JUMPI PUSH2 0x17C8 JUMPI JUMPDEST POP PUSH1 0x1 SLOAD PUSH1 0x40 MLOAD PUSH4 0x70A08231 PUSH1 0xE0 SHL DUP1 DUP3 MSTORE ADDRESS PUSH1 0x4 DUP4 ADD MSTORE SWAP3 SWAP1 SWAP2 DUP6 SWAP2 SWAP1 PUSH1 0x1 PUSH1 0x1 PUSH1 0xA0 SHL SUB AND PUSH1 0x20 DUP5 PUSH1 0x24 DUP2 DUP5 GAS STATICCALL SWAP4 DUP5 ISZERO PUSH2 0xDB8 JUMPI DUP4 SWAP5 PUSH2 0x1791 JUMPI JUMPDEST POP DUP1 EXTCODESIZE ISZERO PUSH2 0x86B JUMPI PUSH1 0x40 MLOAD PUSH4 0x4E538D93 PUSH1 0xE1 SHL DUP2 MSTORE SWAP2 DUP4 SWAP2 DUP4 SWAP2 DUP3 SWAP1 DUP5 SWAP1 DUP3 SWAP1 PUSH2 0x15A1 SWAP1 ADDRESS PUSH1 0x4 DUP5 ADD PUSH2 0x4065 JUMP JUMPDEST SUB SWAP3 GAS CALL DUP1 ISZERO PUSH2 0x86F JUMPI PUSH2 0x177D JUMPI JUMPDEST POP POP PUSH1 0x1 SLOAD PUSH1 0x40 MLOAD SWAP3 DUP4 MSTORE ADDRESS PUSH1 0x4 DUP5 ADD MSTORE PUSH1 0x20 SWAP1 DUP4 SWAP1 PUSH1 0x24 SWAP1 DUP3 SWAP1 PUSH1 0x1 PUSH1 0x1 PUSH1 0xA0 SHL SUB AND GAS STATICCALL DUP1 ISZERO PUSH2 0xEE1 JUMPI DUP5 SWAP1 PUSH2 0x1749 JUMPI JUMPDEST PUSH2 0x15ED SWAP3 POP PUSH2 0x4035 JUMP JUMPDEST SWAP1 DUP2 ISZERO PUSH2 0x1714 JUMPI CALLER DUP4 MSTORE PUSH1 0xD PUSH1 0x20 MSTORE PUSH1 0x40 DUP4 KECCAK256 DUP1 SLOAD SWAP3 SWAP1 DUP3 ISZERO PUSH2 0x170D JUMPI TIMESTAMP SWAP1 JUMPDEST PUSH1 0x40 MLOAD SWAP2 PUSH2 0x161A DUP4 PUSH2 0x3ED9 JUMP JUMPDEST DUP4 DUP4 MSTORE PUSH1 0x4 CALLDATALOAD PUSH1 0x20 DUP5 ADD MSTORE TIMESTAMP PUSH1 0x40 DUP5 ADD MSTORE PUSH1 0x60 DUP4 ADD MSTORE PUSH1 0x1 PUSH1 0x80 DUP4 ADD MSTORE PUSH1 0x1 PUSH1 0x40 SHL DUP6 LT ISZERO PUSH2 0x16F9 JUMPI DUP5 PUSH2 0x1653 SWAP2 PUSH1 0x1 DUP3 ADD DUP2 SSTORE PUSH2 0x4FB6 JUMP JUMPDEST PUSH2 0x16E5 JUMPI PUSH1 0x4 PUSH1 0x80 SWAP2 DUP4 MLOAD DUP2 SSTORE PUSH1 0x20 DUP5 ADD MLOAD PUSH1 0x1 DUP3 ADD SSTORE PUSH1 0x40 DUP5 ADD MLOAD PUSH1 0x2 DUP3 ADD SSTORE PUSH1 0x60 DUP5 ADD MLOAD PUSH1 0x3 DUP3 ADD SSTORE ADD SWAP2 ADD MLOAD ISZERO ISZERO PUSH1 0xFF DUP1 NOT DUP4 SLOAD AND SWAP2 AND OR SWAP1 SSTORE PUSH1 0x40 MLOAD SWAP3 DUP4 MSTORE PUSH1 0x4 CALLDATALOAD PUSH1 0x20 DUP5 ADD MSTORE PUSH1 0x40 DUP4 ADD MSTORE ISZERO ISZERO PUSH1 0x60 DUP3 ADD MSTORE PUSH32 0x830141583677D950FE61A27B93001EDFF66B597C666B2C90F5FB6E79A4BEFD0E PUSH1 0x80 CALLER SWAP3 LOG2 PUSH1 0x1 PUSH1 0x0 DUP1 MLOAD PUSH1 0x20 PUSH2 0x52C0 DUP4 CODECOPY DUP2 MLOAD SWAP2 MSTORE SSTORE DUP1 RETURN JUMPDEST PUSH4 0x4E487B71 PUSH1 0xE0 SHL DUP7 MSTORE PUSH1 0x4 DUP7 SWAP1 MSTORE PUSH1 0x24 DUP7 REVERT JUMPDEST PUSH4 0x4E487B71 PUSH1 0xE0 SHL DUP7 MSTORE PUSH1 0x41 PUSH1 0x4 MSTORE PUSH1 0x24 DUP7 REVERT JUMPDEST DUP5 SWAP1 PUSH2 0x160D JUMP JUMPDEST PUSH1 0x40 MLOAD PUSH3 0x461BCD PUSH1 0xE5 SHL DUP2 MSTORE PUSH1 0x20 PUSH1 0x4 DUP3 ADD MSTORE PUSH1 0xD PUSH1 0x24 DUP3 ADD MSTORE PUSH13 0x139BC8135595081B5A5B9D1959 PUSH1 0x9A SHL PUSH1 0x44 DUP3 ADD MSTORE PUSH1 0x64 SWAP1 REVERT JUMPDEST POP PUSH1 0x20 DUP3 RETURNDATASIZE PUSH1 0x20 GT PUSH2 0x1775 JUMPI JUMPDEST DUP2 PUSH2 0x1763 PUSH1 0x20 SWAP4 DUP4 PUSH2 0x3F07 JUMP JUMPDEST DUP2 ADD SUB SLT PUSH2 0x90F JUMPI PUSH2 0x15ED SWAP2 MLOAD PUSH2 0x15E3 JUMP JUMPDEST RETURNDATASIZE SWAP2 POP PUSH2 0x1756 JUMP JUMPDEST PUSH2 0x1786 SWAP1 PUSH2 0x3EF4 JUMP JUMPDEST PUSH2 0xDAC JUMPI DUP4 CODESIZE PUSH2 0x15B0 JUMP JUMPDEST SWAP3 POP SWAP3 POP PUSH1 0x20 DUP3 RETURNDATASIZE PUSH1 0x20 GT PUSH2 0x17C0 JUMPI JUMPDEST DUP2 PUSH2 0x17AE PUSH1 0x20 SWAP4 DUP4 PUSH2 0x3F07 JUMP JUMPDEST DUP2 ADD SUB SLT PUSH2 0x90F JUMPI DUP6 SWAP2 MLOAD SWAP3 CODESIZE PUSH2 0x1573 JUMP JUMPDEST RETURNDATASIZE SWAP2 POP PUSH2 0x17A1 JUMP JUMPDEST PUSH1 0x20 DUP2 RETURNDATASIZE PUSH1 0x20 GT PUSH2 0x17F9 JUMPI JUMPDEST DUP2 PUSH2 0x17E1 PUSH1 0x20 SWAP4 DUP4 PUSH2 0x3F07 JUMP JUMPDEST DUP2 ADD SUB SLT PUSH2 0xDAC JUMPI PUSH2 0x17F2 SWAP1 PUSH2 0x4058 JUMP JUMPDEST POP CODESIZE PUSH2 0x1535 JUMP JUMPDEST RETURNDATASIZE SWAP2 POP PUSH2 0x17D4 JUMP JUMPDEST PUSH2 0x180D SWAP1 PUSH1 0x8 SLOAD PUSH2 0x40F0 JUMP JUMPDEST PUSH1 0x8 SSTORE CODESIZE PUSH2 0x14C2 JUMP JUMPDEST PUSH4 0x4E487B71 PUSH1 0xE0 SHL DUP5 MSTORE PUSH1 0x11 PUSH1 0x4 MSTORE PUSH1 0x24 DUP5 REVERT JUMPDEST POP PUSH1 0x20 DUP2 RETURNDATASIZE PUSH1 0x20 GT PUSH2 0x185D JUMPI JUMPDEST DUP2 PUSH2 0x1844 PUSH1 0x20 SWAP4 DUP4 PUSH2 0x3F07 JUMP JUMPDEST DUP2 ADD SUB SLT PUSH2 0x86B JUMPI PUSH2 0x1858 PUSH2 0x12C2 SWAP2 PUSH2 0x4058 JUMP JUMPDEST PUSH2 0x12B8 JUMP JUMPDEST RETURNDATASIZE SWAP2 POP PUSH2 0x1837 JUMP JUMPDEST PUSH1 0x40 MLOAD PUSH3 0x461BCD PUSH1 0xE5 SHL DUP2 MSTORE PUSH1 0x20 PUSH1 0x4 DUP3 ADD MSTORE PUSH1 0xD PUSH1 0x24 DUP3 ADD MSTORE PUSH13 0x139BDD081858DD1A5D985D1959 PUSH1 0x9A SHL PUSH1 0x44 DUP3 ADD MSTORE PUSH1 0x64 SWAP1 REVERT JUMPDEST PUSH1 0x40 MLOAD PUSH3 0x461BCD PUSH1 0xE5 SHL DUP2 MSTORE PUSH1 0x20 PUSH1 0x4 DUP3 ADD MSTORE PUSH1 0x11 PUSH1 0x24 DUP3 ADD MSTORE PUSH17 0x42656C6F7720243530206D696E696D756D PUSH1 0x78 SHL PUSH1 0x44 DUP3 ADD MSTORE PUSH1 0x64 SWAP1 REVERT JUMPDEST POP CALLVALUE PUSH2 0x306 JUMPI DUP1 PUSH1 0x3 NOT CALLDATASIZE ADD SLT PUSH2 0x306 JUMPI PUSH1 0x20 PUSH1 0x40 MLOAD PUSH9 0x15245655B102580000 DUP2 MSTORE RETURN JUMPDEST POP CALLVALUE PUSH2 0x306 JUMPI PUSH1 0x60 CALLDATASIZE PUSH1 0x3 NOT ADD SLT PUSH2 0x306 JUMPI PUSH2 0x1911 PUSH2 0x3D51 JUMP JUMPDEST PUSH2 0x1919 PUSH2 0x3D67 JUMP JUMPDEST PUSH2 0x1921 PUSH2 0x3E5F JUMP JUMPDEST CALLER DUP5 MSTORE PUSH1 0x3 PUSH1 0x20 SWAP3 DUP2 DUP5 MSTORE PUSH1 0xFF PUSH1 0x40 DUP8 KECCAK256 SLOAD AND PUSH2 0xC1D JUMPI PUSH1 0x5 SLOAD PUSH2 0x1A12 JUMPI CALLER PUSH1 0x0 SWAP1 DUP2 MSTORE DUP3 DUP6 MSTORE PUSH1 0x40 SWAP1 KECCAK256 DUP1 SLOAD PUSH2 0xFF01 PUSH1 0x1 PUSH1 0xB0 SHL SUB NOT AND PUSH1 0x1 OR DUP2 SSTORE PUSH1 0x2 DUP2 ADD DUP1 SLOAD PUSH1 0x1 PUSH1 0x1 PUSH1 0xA8 SHL SUB NOT AND SWAP1 SSTORE PUSH1 0x12 DUP2 ADD DUP1 SLOAD PUSH1 0x1 PUSH1 0x1 PUSH1 0xA0 SHL SUB NOT AND SWAP1 SSTORE TIMESTAMP PUSH1 0x14 SWAP1 SWAP2 ADD SSTORE PUSH1 0x4 SLOAD SWAP2 PUSH1 0x1 PUSH1 0x40 SHL DUP4 LT ISZERO PUSH2 0x19FC JUMPI PUSH2 0x19B8 DUP4 PUSH1 0x1 PUSH1 0x0 DUP1 MLOAD PUSH1 0x20 PUSH2 0x5240 DUP4 CODECOPY DUP2 MLOAD SWAP2 MSTORE SWAP6 ADD PUSH1 0x4 SSTORE PUSH2 0x3E6E JUMP JUMPDEST DUP2 SWAP3 SWAP2 SLOAD SWAP2 SHL SWAP1 CALLER DUP3 SHL SWAP2 PUSH1 0x1 DUP1 PUSH1 0xA0 SHL SUB SWAP1 SHL NOT AND OR SWAP1 SSTORE PUSH2 0x19DC PUSH1 0x5 SLOAD PUSH2 0x4080 JUMP JUMPDEST PUSH1 0x5 SSTORE JUMPDEST PUSH1 0x40 MLOAD SWAP3 ISZERO ISZERO DUP4 MSTORE PUSH1 0x1 PUSH1 0x1 PUSH1 0xA0 SHL SUB SWAP1 DUP2 AND SWAP5 AND SWAP3 CALLER SWAP3 LOG4 DUP1 RETURN JUMPDEST PUSH4 0x4E487B71 PUSH1 0xE0 SHL PUSH1 0x0 MSTORE PUSH1 0x41 PUSH1 0x4 MSTORE PUSH1 0x24 PUSH1 0x0 REVERT JUMPDEST PUSH1 0x1 PUSH1 0x1 PUSH1 0xA0 SHL SUB DUP6 DUP2 AND DUP1 DUP9 MSTORE DUP4 DUP7 MSTORE PUSH1 0x40 DUP9 KECCAK256 SLOAD SWAP2 SWAP4 SWAP2 PUSH1 0xFF AND ISZERO PUSH2 0x1B34 JUMPI DUP4 DUP4 AND DUP1 ISZERO ISZERO SWAP1 DUP2 PUSH2 0x1B20 JUMPI JUMPDEST POP ISZERO PUSH2 0x1B19 JUMPI DUP3 SWAP4 JUMPDEST DUP6 DUP1 PUSH2 0x1B00 JUMPI JUMPDEST PUSH2 0xBAA JUMPI DUP6 ISZERO DUP1 PUSH2 0x1AE6 JUMPI JUMPDEST PUSH2 0xBAA JUMPI DUP5 PUSH2 0x1A7C DUP8 PUSH1 0x0 DUP1 MLOAD PUSH1 0x20 PUSH2 0x5240 DUP4 CODECOPY DUP2 MLOAD SWAP2 MSTORE SWAP8 DUP12 CALLER PUSH2 0x40FD JUMP JUMPDEST DUP7 ISZERO PUSH2 0x1AC4 JUMPI AND DUP9 MSTORE DUP2 DUP7 MSTORE PUSH1 0x40 DUP9 KECCAK256 DUP3 ADD DUP1 SLOAD PUSH1 0x1 PUSH1 0x1 PUSH1 0xA0 SHL SUB NOT AND CALLER OR SWAP1 SSTORE JUMPDEST DUP8 MSTORE DUP5 MSTORE PUSH1 0x1 PUSH1 0x40 DUP8 KECCAK256 ADD PUSH2 0x1AB4 DUP2 SLOAD PUSH2 0x4080 JUMP JUMPDEST SWAP1 SSTORE PUSH2 0x1ABF CALLER PUSH2 0x41C4 JUMP JUMPDEST PUSH2 0x19E0 JUMP JUMPDEST AND DUP9 MSTORE DUP2 DUP7 MSTORE PUSH1 0x40 DUP9 KECCAK256 PUSH1 0x4 ADD DUP1 SLOAD PUSH1 0x1 PUSH1 0x1 PUSH1 0xA0 SHL SUB NOT AND CALLER OR SWAP1 SSTORE PUSH2 0x1A9F JUMP JUMPDEST POP DUP1 DUP6 AND DUP10 MSTORE DUP3 DUP8 MSTORE DUP1 PUSH1 0x4 PUSH1 0x40 DUP12 KECCAK256 ADD SLOAD AND ISZERO ISZERO PUSH2 0x1A5C JUMP JUMPDEST POP DUP1 DUP6 AND DUP10 MSTORE DUP3 DUP8 MSTORE DUP1 DUP4 PUSH1 0x40 DUP12 KECCAK256 ADD SLOAD AND ISZERO ISZERO PUSH2 0x1A50 JUMP JUMPDEST DUP7 SWAP4 PUSH2 0x1A49 JUMP JUMPDEST DUP10 MSTORE POP DUP2 DUP7 MSTORE PUSH1 0x40 DUP9 KECCAK256 SLOAD PUSH1 0xFF AND CODESIZE PUSH2 0x1A40 JUMP JUMPDEST PUSH1 0x40 MLOAD PUSH4 0x2F212E0D PUSH1 0xE1 SHL DUP2 MSTORE PUSH1 0x4 SWAP1 REVERT JUMPDEST POP CALLVALUE PUSH2 0x306 JUMPI DUP1 PUSH1 0x3 NOT CALLDATASIZE ADD SLT PUSH2 0x306 JUMPI PUSH1 0x40 MLOAD PUSH32 0x0 PUSH1 0x1 PUSH1 0x1 PUSH1 0xA0 SHL SUB AND DUP2 MSTORE PUSH1 0x20 SWAP1 RETURN JUMPDEST POP CALLVALUE PUSH2 0x306 JUMPI PUSH1 0x20 CALLDATASIZE PUSH1 0x3 NOT ADD SLT PUSH2 0x306 JUMPI PUSH1 0x40 SWAP1 PUSH1 0x1 PUSH1 0x1 PUSH1 0xA0 SHL SUB PUSH2 0x1BB0 PUSH2 0x3D51 JUMP JUMPDEST AND DUP2 MSTORE PUSH1 0x3 PUSH1 0x20 MSTORE KECCAK256 DUP1 PUSH1 0xC0 MSTORE DUP1 DUP1 DUP1 DUP1 DUP1 DUP1 DUP1 DUP1 DUP1 DUP1 DUP1 DUP1 PUSH2 0x1C73 PUSH1 0x15 PUSH1 0xF PUSH1 0xE PUSH1 0xD PUSH1 0xC PUSH1 0xB PUSH1 0xA PUSH1 0x9 PUSH1 0x8 PUSH1 0x7 PUSH1 0x6 PUSH1 0x5 DUP14 SLOAD SWAP14 PUSH1 0x1 DUP2 ADD SLOAD PUSH2 0x240 MSTORE PUSH1 0x2 DUP2 ADD SLOAD PUSH1 0x80 MSTORE PUSH1 0x1 DUP1 PUSH1 0xA0 SHL SUB PUSH1 0x3 DUP3 ADD SLOAD AND PUSH2 0x200 MSTORE PUSH1 0x4 PUSH1 0x1 DUP1 PUSH1 0xA0 SHL SUB SWAP2 ADD SLOAD AND SWAP15 ADD SLOAD SWAP15 ADD SLOAD SWAP15 ADD SLOAD SWAP15 ADD SLOAD SWAP15 ADD SLOAD SWAP15 ADD SLOAD SWAP15 ADD SLOAD SWAP15 ADD SLOAD SWAP15 ADD SLOAD SWAP15 ADD SLOAD SWAP15 ADD SLOAD SWAP15 PUSH1 0x10 DUP2 ADD SLOAD PUSH2 0x100 MSTORE PUSH1 0x11 DUP2 ADD SLOAD PUSH2 0x140 MSTORE PUSH1 0x1 DUP1 PUSH1 0xA0 SHL SUB PUSH1 0x12 DUP3 ADD SLOAD AND PUSH2 0x160 MSTORE PUSH1 0x13 DUP2 ADD SLOAD PUSH2 0x300 MSTORE PUSH1 0x14 DUP2 ADD SLOAD PUSH2 0x1A0 MSTORE ADD PUSH2 0x3F2A JUMP JUMPDEST PUSH1 0xA0 MSTORE PUSH2 0x1C84 PUSH1 0x16 PUSH1 0xC0 MLOAD ADD PUSH2 0x3F2A JUMP JUMPDEST PUSH2 0x120 MSTORE PUSH2 0x1C96 PUSH1 0x17 PUSH1 0xC0 MLOAD ADD PUSH2 0x3F2A JUMP JUMPDEST PUSH2 0x220 MSTORE PUSH2 0x1CA8 PUSH1 0x18 PUSH1 0xC0 MLOAD ADD PUSH2 0x3F2A JUMP JUMPDEST PUSH2 0x280 MSTORE PUSH1 0xFF PUSH1 0x19 PUSH1 0xC0 MLOAD ADD SLOAD AND PUSH2 0x1E0 MSTORE PUSH1 0x40 MLOAD DUP1 PUSH1 0xE0 MSTORE PUSH1 0xFF DUP3 AND ISZERO ISZERO SWAP1 MSTORE PUSH1 0xFF DUP2 PUSH1 0x8 SHR AND ISZERO ISZERO PUSH1 0x20 PUSH1 0xE0 MLOAD ADD MSTORE PUSH1 0x1 DUP1 PUSH1 0xA0 SHL SUB SWAP1 PUSH1 0x10 SHR AND PUSH1 0x40 PUSH1 0xE0 MLOAD ADD MSTORE PUSH2 0x240 MLOAD PUSH1 0x60 PUSH1 0xE0 MLOAD ADD MSTORE PUSH1 0x1 DUP1 PUSH1 0xA0 SHL SUB PUSH1 0x80 MLOAD AND PUSH1 0x80 PUSH1 0xE0 MLOAD ADD MSTORE PUSH1 0xFF PUSH1 0x80 MLOAD PUSH1 0xA0 SHR AND ISZERO ISZERO PUSH1 0xA0 PUSH1 0xE0 MLOAD ADD MSTORE PUSH2 0x200 MLOAD PUSH1 0xC0 PUSH1 0xE0 MLOAD ADD MSTORE PUSH1 0xE0 DUP1 MLOAD ADD MSTORE PUSH2 0x100 PUSH1 0xE0 MLOAD ADD MSTORE PUSH2 0x120 PUSH1 0xE0 MLOAD ADD MSTORE PUSH2 0x140 PUSH1 0xE0 MLOAD ADD MSTORE PUSH2 0x160 PUSH1 0xE0 MLOAD ADD MSTORE PUSH2 0x180 PUSH1 0xE0 MLOAD ADD MSTORE PUSH2 0x1A0 PUSH1 0xE0 MLOAD ADD MSTORE PUSH2 0x1C0 PUSH1 0xE0 MLOAD ADD MSTORE PUSH2 0x1E0 PUSH1 0xE0 MLOAD ADD MSTORE PUSH2 0x200 PUSH1 0xE0 MLOAD ADD MSTORE PUSH2 0x220 PUSH1 0xE0 MLOAD ADD MSTORE PUSH2 0x240 PUSH1 0xE0 MLOAD ADD MSTORE PUSH2 0x100 MLOAD PUSH2 0x260 PUSH1 0xE0 MLOAD ADD MSTORE PUSH2 0x140 MLOAD PUSH2 0x280 PUSH1 0xE0 MLOAD ADD MSTORE PUSH2 0x160 MLOAD PUSH2 0x2A0 PUSH1 0xE0 MLOAD ADD MSTORE PUSH2 0x300 MLOAD PUSH2 0x2C0 PUSH1 0xE0 MLOAD ADD MSTORE PUSH2 0x1A0 MLOAD PUSH2 0x2E0 PUSH1 0xE0 MLOAD ADD MSTORE PUSH2 0x1E23 PUSH2 0x1E0E PUSH2 0x1DF9 PUSH2 0x1DE4 PUSH2 0x3A0 DUP1 PUSH2 0x300 PUSH1 0xE0 MLOAD ADD MSTORE PUSH1 0xE0 MLOAD ADD PUSH1 0xA0 MLOAD PUSH2 0x3D7D JUMP JUMPDEST PUSH1 0xE0 MLOAD PUSH2 0x320 DUP2 DUP4 SUB SWAP2 ADD MSTORE PUSH2 0x120 MLOAD PUSH2 0x3D7D JUMP JUMPDEST PUSH1 0xE0 MLOAD PUSH2 0x340 DUP2 DUP4 SUB SWAP2 ADD MSTORE PUSH2 0x220 MLOAD PUSH2 0x3D7D JUMP JUMPDEST PUSH1 0xE0 MLOAD PUSH2 0x360 DUP2 DUP4 SUB SWAP2 ADD MSTORE PUSH2 0x280 MLOAD PUSH2 0x3D7D JUMP JUMPDEST PUSH2 0x1E0 MLOAD ISZERO ISZERO PUSH2 0x380 PUSH1 0xE0 MLOAD ADD MSTORE PUSH1 0xE0 MLOAD DUP1 SWAP2 SUB SWAP1 RETURN JUMPDEST POP CALLVALUE PUSH2 0x306 JUMPI PUSH1 0x20 CALLDATASIZE PUSH1 0x3 NOT ADD SLT PUSH2 0x306 JUMPI PUSH1 0x4 CALLDATALOAD SWAP1 PUSH1 0x4 SLOAD DUP3 LT ISZERO PUSH2 0x306 JUMPI PUSH1 0x20 PUSH2 0x1E65 DUP4 PUSH2 0x3E6E JUMP JUMPDEST SWAP1 SLOAD PUSH1 0x40 MLOAD PUSH1 0x3 SWAP3 SWAP1 SWAP3 SHL SHR PUSH1 0x1 PUSH1 0x1 PUSH1 0xA0 SHL SUB AND DUP2 MSTORE RETURN JUMPDEST POP CALLVALUE PUSH2 0x306 JUMPI PUSH1 0x20 CALLDATASIZE PUSH1 0x3 NOT ADD SLT PUSH2 0x306 JUMPI PUSH1 0x60 PUSH2 0x1EA2 PUSH2 0x1E9D PUSH2 0x3D51 JUMP JUMPDEST PUSH2 0x5154 JUMP JUMPDEST SWAP1 PUSH1 0x40 MLOAD SWAP3 ISZERO ISZERO DUP4 MSTORE PUSH1 0x20 DUP4 ADD MSTORE PUSH1 0x40 DUP3 ADD MSTORE RETURN JUMPDEST POP CALLVALUE PUSH2 0x306 JUMPI PUSH1 0x40 CALLDATASIZE PUSH1 0x3 NOT ADD SLT PUSH2 0x306 JUMPI PUSH2 0x1ED1 PUSH2 0x3D51 JUMP JUMPDEST PUSH2 0x1ED9 PUSH2 0x3E50 JUMP JUMPDEST SWAP1 PUSH2 0x1EE2 PUSH2 0x408F JUMP JUMPDEST PUSH1 0x1 PUSH1 0x1 PUSH1 0xA0 SHL SUB DUP2 DUP2 AND SWAP3 SWAP1 DUP4 ISZERO PUSH2 0x640 JUMPI CALLER DUP6 MSTORE PUSH1 0x3 SWAP3 PUSH1 0x20 SWAP4 DUP1 DUP6 MSTORE PUSH1 0x40 DUP8 KECCAK256 SWAP2 DUP3 SLOAD SWAP2 PUSH2 0x1F18 PUSH1 0xFF DUP5 PUSH1 0x8 SHR AND PUSH2 0x3FFC JUMP JUMPDEST PUSH1 0xD DUP5 ADD DUP1 SLOAD SWAP1 PUSH9 0x70C1CC73B00C80000 DUP1 DUP4 LT PUSH2 0x2184 JUMPI DUP11 DUP13 MSTORE DUP4 DUP11 MSTORE PUSH1 0xFF PUSH1 0x40 DUP14 KECCAK256 SLOAD AND PUSH2 0x213F JUMPI PUSH9 0x70C1CC73B00C7FFFF NOT DUP4 ADD SWAP3 DUP4 GT PUSH2 0x212B JUMPI DUP1 DUP4 LT PUSH2 0x2120 JUMPI PUSH2 0x1F68 SWAP1 DUP1 SWAP4 PUSH2 0x4035 JUMP JUMPDEST SWAP1 SSTORE PUSH1 0xC DUP6 ADD PUSH2 0x1F79 DUP3 DUP3 SLOAD PUSH2 0x40F0 JUMP JUMPDEST SWAP1 SSTORE PUSH2 0x1F8A PUSH1 0xE DUP7 ADD SWAP2 DUP3 SLOAD PUSH2 0x40F0 JUMP JUMPDEST SWAP1 SSTORE PUSH9 0x15245655B102580000 PUSH1 0xB DUP6 ADD SSTORE PUSH2 0x1FAB DUP6 DUP5 PUSH1 0x10 SHR AND SWAP7 CALLER PUSH2 0x4969 JUMP JUMPDEST PUSH1 0x0 DUP11 DUP2 MSTORE DUP4 DUP11 MSTORE PUSH1 0x40 SWAP1 KECCAK256 DUP1 SLOAD PUSH2 0xFF01 PUSH1 0x1 PUSH1 0xB0 SHL SUB NOT AND PUSH3 0x10000 PUSH1 0x1 PUSH1 0xB0 SHL SUB SWAP1 SWAP7 AND SWAP6 SWAP1 SWAP6 OR PUSH1 0x1 OR DUP6 SSTORE PUSH1 0x2 DUP6 ADD DUP1 SLOAD PUSH1 0x1 PUSH1 0x1 PUSH1 0xA8 SHL SUB NOT AND SWAP3 DUP9 AND SWAP3 DUP4 OR DUP3 ISZERO ISZERO PUSH1 0xA0 SHL PUSH1 0xFF PUSH1 0xA0 SHL AND OR SWAP1 SSTORE PUSH1 0x12 DUP6 ADD DUP1 SLOAD PUSH1 0x1 PUSH1 0x1 PUSH1 0xA0 SHL SUB NOT SWAP1 DUP2 AND CALLER OR SWAP1 SWAP2 SSTORE TIMESTAMP PUSH1 0x14 SWAP1 SWAP7 ADD SWAP6 SWAP1 SWAP6 SSTORE PUSH1 0x4 SLOAD SWAP1 SWAP8 SWAP1 SWAP5 SWAP1 SWAP2 PUSH1 0x1 PUSH1 0x40 SHL DUP7 LT ISZERO PUSH2 0x19FC JUMPI PUSH32 0x30016ED357540281A6CFF6143637E72B48E105D85D15DF66B0AAFFBD23790240 SWAP9 PUSH1 0x13 SWAP9 DUP13 PUSH2 0x206E DUP10 PUSH1 0x1 PUSH2 0x20BC SWAP12 ADD PUSH1 0x4 SSTORE PUSH2 0x3E6E JUMP JUMPDEST SWAP1 SWAP3 DUP4 SLOAD SWAP2 DUP10 SHL SWAP3 DUP4 SHL SWAP3 SHL NOT AND OR SWAP1 SSTORE PUSH2 0x208A PUSH1 0x5 SLOAD PUSH2 0x4080 JUMP JUMPDEST PUSH1 0x5 SSTORE ISZERO PUSH2 0x2107 JUMPI DUP12 MSTORE DUP3 DUP10 MSTORE DUP10 DUP4 PUSH1 0x40 DUP14 KECCAK256 ADD SWAP2 DUP3 SLOAD AND OR SWAP1 SSTORE JUMPDEST DUP1 PUSH2 0x20E9 JUMPI JUMPDEST POP POP PUSH2 0x20B7 DUP2 PUSH2 0x41C4 JUMP JUMPDEST PUSH2 0x42BA JUMP JUMPDEST ADD SWAP2 PUSH2 0x20C8 DUP4 SLOAD PUSH2 0x4080 JUMP JUMPDEST DUP1 SWAP4 SSTORE PUSH1 0x40 MLOAD SWAP3 DUP4 MSTORE CALLER SWAP3 LOG3 PUSH1 0x1 PUSH1 0x0 DUP1 MLOAD PUSH1 0x20 PUSH2 0x52C0 DUP4 CODECOPY DUP2 MLOAD SWAP2 MSTORE SSTORE DUP1 RETURN JUMPDEST DUP10 MSTORE DUP7 MSTORE PUSH1 0x1 PUSH1 0x40 DUP10 KECCAK256 ADD PUSH2 0x20FE DUP2 SLOAD PUSH2 0x4080 JUMP JUMPDEST SWAP1 SSTORE CODESIZE DUP1 PUSH2 0x20AC JUMP JUMPDEST DUP12 MSTORE DUP3 DUP10 MSTORE DUP10 PUSH1 0x4 PUSH1 0x40 DUP14 KECCAK256 ADD SWAP2 DUP3 SLOAD AND OR SWAP1 SSTORE PUSH2 0x20A6 JUMP JUMPDEST POP PUSH2 0x1F68 DUP3 DUP1 PUSH2 0x4035 JUMP JUMPDEST PUSH4 0x4E487B71 PUSH1 0xE0 SHL DUP13 MSTORE PUSH1 0x11 PUSH1 0x4 MSTORE PUSH1 0x24 DUP13 REVERT JUMPDEST PUSH1 0x40 MLOAD PUSH3 0x461BCD PUSH1 0xE5 SHL DUP2 MSTORE PUSH1 0x4 DUP2 ADD DUP12 SWAP1 MSTORE PUSH1 0x1E PUSH1 0x24 DUP3 ADD MSTORE PUSH32 0x5375622D6163636F756E7420616C726561647920726567697374657265640000 PUSH1 0x44 DUP3 ADD MSTORE PUSH1 0x64 SWAP1 REVERT JUMPDEST PUSH1 0x40 MLOAD PUSH4 0x7DB32BD PUSH1 0xE3 SHL DUP2 MSTORE PUSH1 0x4 SWAP1 REVERT JUMPDEST POP CALLVALUE PUSH2 0x306 JUMPI DUP1 PUSH1 0x3 NOT CALLDATASIZE ADD SLT PUSH2 0x306 JUMPI PUSH1 0x20 PUSH1 0x40 MLOAD PUSH1 0xA DUP2 MSTORE RETURN JUMPDEST POP CALLVALUE PUSH2 0x306 JUMPI DUP1 PUSH1 0x3 NOT CALLDATASIZE ADD SLT PUSH2 0x306 JUMPI SLOAD PUSH1 0x40 MLOAD PUSH1 0x1 PUSH1 0x1 PUSH1 0xA0 SHL SUB SWAP1 SWAP2 AND DUP2 MSTORE PUSH1 0x20 SWAP1 RETURN JUMPDEST POP CALLVALUE PUSH2 0x306 JUMPI PUSH2 0x21E8 CALLDATASIZE PUSH2 0x3DF1 JUMP JUMPDEST PUSH2 0x21F0 PUSH2 0x3FD0 JUMP JUMPDEST PUSH2 0x21F8 PUSH2 0x408F JUMP JUMPDEST PUSH1 0xFF PUSH1 0xA SLOAD AND ISZERO PUSH2 0x240C JUMPI PUSH2 0x220D SWAP1 DUP3 PUSH2 0x40F0 JUMP JUMPDEST PUSH1 0x4 SLOAD DUP1 DUP3 GT PUSH2 0x2404 JUMPI JUMPDEST POP DUP3 SWAP1 DUP3 JUMPDEST DUP2 DUP2 LT PUSH2 0x23C4 JUMPI POP PUSH1 0x9 SWAP1 DUP2 SLOAD SWAP4 DUP4 ISZERO ISZERO DUP1 PUSH2 0x23BB JUMPI JUMPDEST ISZERO PUSH2 0x23A3 JUMPI DUP1 JUMPDEST DUP3 DUP2 LT PUSH2 0x22E0 JUMPI POP SWAP1 DUP6 SWAP3 SWAP2 JUMPDEST DUP2 DUP2 LT PUSH2 0x22A2 JUMPI DUP4 PUSH32 0x7F4A5B69BEA14A6FC05326671A02E90D4A88855C83A18529C260057B1BF61A85 PUSH1 0x40 DUP9 DUP9 DUP5 DUP9 SSTORE PUSH1 0xFF NOT PUSH1 0xA SLOAD AND PUSH1 0xA SSTORE DUP3 MLOAD SWAP2 DUP3 MSTORE PUSH1 0x20 DUP3 ADD MSTORE LOG1 PUSH1 0x1 PUSH1 0x0 DUP1 MLOAD PUSH1 0x20 PUSH2 0x52C0 DUP4 CODECOPY DUP2 MLOAD SWAP2 MSTORE SSTORE DUP1 RETURN JUMPDEST PUSH2 0x22D7 SWAP2 SWAP3 SWAP4 POP PUSH2 0x22B2 DUP2 PUSH2 0x3E6E JUMP JUMPDEST SWAP1 SLOAD PUSH1 0x3 SWAP2 DUP3 SHL SHR PUSH1 0x1 PUSH1 0x1 PUSH1 0xA0 SHL SUB AND DUP9 MSTORE PUSH1 0x20 MSTORE PUSH1 0x40 DUP8 KECCAK256 PUSH1 0x11 ADD DUP8 SWAP1 SSTORE PUSH2 0x4080 JUMP JUMPDEST SWAP1 DUP6 SWAP3 SWAP2 PUSH2 0x2248 JUMP JUMPDEST DUP1 DUP7 DUP9 PUSH2 0x22EF PUSH2 0x2391 SWAP5 PUSH2 0x3E6E JUMP JUMPDEST SWAP1 SLOAD PUSH1 0x3 SWAP2 DUP3 SHL SHR PUSH1 0x1 PUSH1 0x1 PUSH1 0xA0 SHL SUB AND DUP1 DUP4 MSTORE PUSH1 0x20 DUP3 DUP2 MSTORE PUSH1 0x40 DUP5 KECCAK256 PUSH1 0x11 ADD SLOAD SWAP2 SWAP5 SWAP3 SWAP1 DUP11 DUP13 DUP5 ISZERO PUSH2 0x2396 JUMPI PUSH32 0xB05ABF391BCC5D117D31727729F0DA5B0E3EB5F91A478372995EFA128696C406 SWAP7 PUSH2 0x2355 PUSH1 0x40 SWAP8 SWAP3 PUSH2 0x2350 DUP9 DUP11 SWAP6 PUSH2 0x4263 JUMP JUMPDEST PUSH2 0x4276 JUMP JUMPDEST SWAP5 DUP10 DUP3 MSTORE DUP1 DUP6 MSTORE PUSH1 0x8 DUP4 DUP4 KECCAK256 ADD PUSH2 0x236D DUP8 DUP3 SLOAD PUSH2 0x40F0 JUMP JUMPDEST SWAP1 SSTORE DUP10 DUP3 MSTORE DUP5 MSTORE KECCAK256 ADD PUSH2 0x2381 DUP4 DUP3 SLOAD PUSH2 0x40F0 JUMP JUMPDEST SWAP1 SSTORE DUP4 MLOAD SWAP3 DUP4 MSTORE DUP3 ADD MSTORE LOG2 PUSH2 0x4080 JUMP JUMPDEST PUSH2 0x223B JUMP JUMPDEST POP POP POP POP POP POP POP POP PUSH2 0x4080 JUMP JUMPDEST PUSH2 0x23AF DUP6 PUSH1 0x8 SLOAD PUSH2 0x40F0 JUMP JUMPDEST PUSH1 0x8 SSTORE SWAP1 DUP6 SWAP3 SWAP2 PUSH2 0x2248 JUMP JUMPDEST POP DUP5 ISZERO ISZERO PUSH2 0x2234 JUMP JUMPDEST SWAP2 PUSH2 0x23F9 PUSH2 0x23FF SWAP2 PUSH2 0x23D5 DUP6 PUSH2 0x3E6E JUMP JUMPDEST SWAP1 SLOAD PUSH1 0x3 SWAP2 DUP3 SHL SHR PUSH1 0x1 PUSH1 0x1 PUSH1 0xA0 SHL SUB AND DUP9 MSTORE PUSH1 0x20 MSTORE PUSH1 0x40 DUP8 KECCAK256 PUSH1 0x11 ADD SLOAD SWAP1 PUSH2 0x40F0 JUMP JUMPDEST SWAP3 PUSH2 0x4080 JUMP JUMPDEST PUSH2 0x221D JUMP JUMPDEST SWAP1 POP CODESIZE PUSH2 0x2218 JUMP JUMPDEST PUSH1 0x40 MLOAD PUSH4 0x418826BF PUSH1 0xE1 SHL DUP2 MSTORE PUSH1 0x4 SWAP1 REVERT JUMPDEST POP CALLVALUE PUSH2 0x306 JUMPI DUP1 PUSH1 0x3 NOT CALLDATASIZE ADD SLT PUSH2 0x306 JUMPI PUSH1 0x20 PUSH1 0x40 MLOAD PUSH9 0x2B5E3AF16B1880000 DUP2 MSTORE RETURN JUMPDEST POP CALLVALUE PUSH2 0x306 JUMPI DUP1 PUSH1 0x3 NOT CALLDATASIZE ADD SLT PUSH2 0x306 JUMPI PUSH1 0x20 PUSH1 0x6 SLOAD PUSH1 0x40 MLOAD SWAP1 DUP2 MSTORE RETURN JUMPDEST POP CALLVALUE PUSH2 0x306 JUMPI DUP1 PUSH1 0x3 NOT CALLDATASIZE ADD SLT PUSH2 0x306 JUMPI PUSH2 0x2479 PUSH2 0x3FD0 JUMP JUMPDEST PUSH1 0x0 DUP1 SLOAD PUSH1 0x1 PUSH1 0x1 PUSH1 0xA0 SHL SUB NOT DUP2 AND DUP3 SSTORE PUSH1 0x1 PUSH1 0x1 PUSH1 0xA0 SHL SUB AND PUSH1 0x0 DUP1 MLOAD PUSH1 0x20 PUSH2 0x5260 DUP4 CODECOPY DUP2 MLOAD SWAP2 MSTORE DUP3 DUP1 LOG3 DUP1 RETURN JUMPDEST POP CALLVALUE PUSH2 0x306 JUMPI DUP1 PUSH1 0x3 NOT CALLDATASIZE ADD SLT PUSH2 0x306 JUMPI PUSH1 0x1 SLOAD PUSH1 0x40 MLOAD PUSH3 0x3144BD PUSH1 0xE3 SHL DUP2 MSTORE PUSH1 0x1 PUSH1 0x1 PUSH1 0xA0 SHL SUB SWAP1 SWAP2 AND SWAP2 PUSH1 0x20 DUP1 DUP4 PUSH1 0x4 DUP2 DUP8 GAS STATICCALL SWAP3 DUP4 ISZERO PUSH2 0x86F JUMPI DUP3 SWAP4 PUSH2 0x254F JUMPI JUMPDEST POP DUP1 PUSH1 0x4 SWAP5 PUSH1 0x40 MLOAD SWAP6 DUP7 DUP1 SWAP3 PUSH4 0x10F4CBA7 PUSH1 0xE2 SHL DUP3 MSTORE GAS STATICCALL SWAP2 DUP3 ISZERO PUSH2 0x104B JUMPI SWAP2 PUSH2 0x251F JUMPI JUMPDEST PUSH1 0x40 DUP1 SWAP5 POP MLOAD SWAP3 DUP4 MSTORE DUP3 ADD MSTORE RETURN JUMPDEST DUP1 SWAP2 POP DUP4 DUP2 RETURNDATASIZE DUP4 GT PUSH2 0x2548 JUMPI JUMPDEST PUSH2 0x2536 DUP2 DUP4 PUSH2 0x3F07 JUMP JUMPDEST DUP2 ADD SUB SLT PUSH2 0x90F JUMPI PUSH1 0x40 SWAP3 MLOAD SWAP1 PUSH2 0x2511 JUMP JUMPDEST POP RETURNDATASIZE PUSH2 0x252C JUMP JUMPDEST SWAP4 SWAP3 POP DUP1 DUP5 DUP2 RETURNDATASIZE DUP4 GT PUSH2 0x2579 JUMPI JUMPDEST PUSH2 0x2567 DUP2 DUP4 PUSH2 0x3F07 JUMP JUMPDEST DUP2 ADD SUB SLT PUSH2 0x90F JUMPI SWAP3 MLOAD SWAP2 SWAP3 DUP1 PUSH2 0x24EC JUMP JUMPDEST POP RETURNDATASIZE PUSH2 0x255D JUMP JUMPDEST POP CALLVALUE PUSH2 0x306 JUMPI PUSH1 0x20 CALLDATASIZE PUSH1 0x3 NOT ADD SLT PUSH2 0x306 JUMPI PUSH1 0x40 SWAP1 PUSH1 0x1 PUSH1 0x1 PUSH1 0xA0 SHL SUB PUSH2 0x25A5 PUSH2 0x3D51 JUMP JUMPDEST AND DUP2 MSTORE PUSH1 0x3 PUSH1 0x20 MSTORE KECCAK256 DUP1 DUP1 DUP1 DUP1 DUP1 DUP1 DUP1 DUP1 DUP1 DUP1 DUP1 DUP1 DUP1 SLOAD PUSH1 0x1 DUP3 ADD SLOAD PUSH2 0x260 MSTORE PUSH1 0x2 DUP3 ADD SLOAD PUSH2 0x1C0 MSTORE PUSH1 0x14 PUSH1 0x7 PUSH1 0x11 PUSH1 0xF PUSH1 0xD PUSH1 0xC PUSH1 0xB PUSH1 0xA PUSH1 0x9 PUSH1 0x8 PUSH1 0x6 PUSH1 0x5 DUP14 PUSH1 0x3 PUSH1 0x1 DUP1 PUSH1 0xA0 SHL SUB SWAP2 ADD SLOAD AND SWAP14 PUSH1 0x4 PUSH1 0x1 DUP1 PUSH1 0xA0 SHL SUB SWAP2 ADD SLOAD AND SWAP15 ADD SLOAD SWAP15 ADD SLOAD SWAP15 ADD SLOAD SWAP15 ADD SLOAD SWAP15 ADD SLOAD SWAP15 ADD SLOAD SWAP15 ADD SLOAD SWAP15 ADD SLOAD SWAP15 ADD SLOAD SWAP15 ADD SLOAD SWAP15 ADD SLOAD SWAP15 PUSH1 0x1 DUP1 PUSH1 0xA0 SHL SUB PUSH1 0x12 DUP3 ADD SLOAD AND PUSH2 0x2E0 MSTORE PUSH1 0x13 DUP2 ADD SLOAD PUSH2 0x2C0 MSTORE ADD SLOAD PUSH2 0x2A0 MSTORE PUSH1 0x40 MLOAD DUP1 PUSH2 0x180 MSTORE PUSH1 0xFF DUP3 AND ISZERO ISZERO SWAP1 MSTORE PUSH1 0xFF DUP2 PUSH1 0x8 SHR AND ISZERO ISZERO PUSH1 0x20 PUSH2 0x180 MLOAD ADD MSTORE PUSH1 0x1 DUP1 PUSH1 0xA0 SHL SUB SWAP1 PUSH1 0x10 SHR AND PUSH1 0x40 PUSH2 0x180 MLOAD ADD MSTORE PUSH2 0x260 MLOAD PUSH1 0x60 PUSH2 0x180 MLOAD ADD MSTORE PUSH1 0x1 DUP1 PUSH1 0xA0 SHL SUB PUSH2 0x1C0 MLOAD AND PUSH1 0x80 PUSH2 0x180 MLOAD ADD MSTORE PUSH1 0xFF PUSH2 0x1C0 MLOAD PUSH1 0xA0 SHR AND ISZERO ISZERO PUSH1 0xA0 PUSH2 0x180 MLOAD ADD MSTORE PUSH1 0xC0 PUSH2 0x180 MLOAD ADD MSTORE PUSH1 0xE0 PUSH2 0x180 MLOAD ADD MSTORE PUSH2 0x100 PUSH2 0x180 MLOAD ADD MSTORE PUSH2 0x120 PUSH2 0x180 MLOAD ADD MSTORE PUSH2 0x140 PUSH2 0x180 MLOAD ADD MSTORE PUSH2 0x160 PUSH2 0x180 MLOAD ADD MSTORE PUSH2 0x180 DUP1 MLOAD ADD MSTORE PUSH2 0x1A0 PUSH2 0x180 MLOAD ADD MSTORE PUSH2 0x1C0 PUSH2 0x180 MLOAD ADD MSTORE PUSH2 0x1E0 PUSH2 0x180 MLOAD ADD MSTORE PUSH2 0x200 PUSH2 0x180 MLOAD ADD MSTORE PUSH2 0x220 PUSH2 0x180 MLOAD ADD MSTORE PUSH2 0x240 PUSH2 0x180 MLOAD ADD MSTORE PUSH2 0x2E0 MLOAD PUSH2 0x260 PUSH2 0x180 MLOAD ADD MSTORE PUSH2 0x2C0 MLOAD PUSH2 0x280 PUSH2 0x180 MLOAD ADD MSTORE PUSH2 0x2A0 MLOAD PUSH2 0x2A0 PUSH2 0x180 MLOAD ADD MSTORE PUSH2 0x2C0 PUSH2 0x180 MLOAD RETURN JUMPDEST POP CALLVALUE PUSH2 0x306 JUMPI PUSH1 0x20 DUP1 PUSH1 0x3 NOT CALLDATASIZE ADD SLT PUSH2 0x87A JUMPI PUSH1 0x4 CALLDATALOAD SWAP1 PUSH2 0x276D PUSH2 0x408F JUMP JUMPDEST DUP2 ISZERO PUSH2 0xEEC JUMPI CALLER DUP4 MSTORE PUSH1 0x3 DUP2 MSTORE PUSH1 0x40 DUP4 KECCAK256 SWAP1 PUSH1 0xFF DUP3 SLOAD PUSH1 0x8 SHR AND ISZERO PUSH2 0xC68 JUMPI PUSH1 0x8 DUP3 ADD DUP1 SLOAD DUP5 DUP2 LT PUSH2 0x2A52 JUMPI DUP5 PUSH2 0x27A3 SWAP2 PUSH2 0x4035 JUMP JUMPDEST SWAP1 SSTORE PUSH1 0xA DUP3 ADD PUSH2 0x27B4 DUP5 DUP3 SLOAD PUSH2 0x40F0 JUMP JUMPDEST SWAP1 SSTORE PUSH1 0x40 MLOAD PUSH4 0x70A08231 PUSH1 0xE0 SHL DUP1 DUP3 MSTORE ADDRESS PUSH1 0x4 DUP4 ADD MSTORE PUSH1 0x1 PUSH1 0x1 PUSH1 0xA0 SHL SUB PUSH32 0x0 DUP2 AND SWAP3 SWAP2 DUP8 SWAP2 DUP6 DUP5 PUSH1 0x24 DUP2 DUP9 GAS STATICCALL SWAP4 DUP5 ISZERO PUSH2 0xDB8 JUMPI DUP4 SWAP5 PUSH2 0x2A1F JUMPI JUMPDEST POP PUSH1 0x1 SLOAD AND DUP1 EXTCODESIZE ISZERO PUSH2 0x86B JUMPI DUP3 DUP1 SWAP2 PUSH1 0x24 PUSH1 0x40 MLOAD DUP1 SWAP7 DUP2 SWAP4 PUSH4 0x72424D99 PUSH1 0xE1 SHL DUP4 MSTORE DUP14 PUSH1 0x4 DUP5 ADD MSTORE GAS CALL SWAP3 DUP4 ISZERO PUSH2 0x2A12 JUMPI DUP7 SWAP4 PUSH2 0x29F5 JUMPI JUMPDEST POP POP PUSH1 0x24 PUSH1 0x40 MLOAD DUP1 SWAP6 DUP2 SWAP4 DUP3 MSTORE ADDRESS PUSH1 0x4 DUP4 ADD MSTORE GAS STATICCALL DUP1 ISZERO PUSH2 0x29EA JUMPI DUP7 SWAP1 PUSH2 0x29BB JUMPI JUMPDEST PUSH2 0x2873 SWAP3 POP PUSH2 0x4035 JUMP JUMPDEST SWAP2 PUSH1 0xA DUP4 MUL DUP4 DUP2 DIV PUSH1 0xA EQ DUP5 ISZERO OR ISZERO PUSH2 0x29A7 JUMPI PUSH32 0x8F7262D5A031D4D671E1FDB0CDDCD26D37185226F9E82F2F18877141AC1963EB SWAP4 SWAP3 SWAP2 PUSH2 0x28BB PUSH1 0x64 PUSH2 0x297C SWAP4 DIV DUP1 SWAP6 PUSH2 0x4035 JUMP JUMPDEST SWAP3 PUSH1 0xF DUP3 ADD PUSH2 0x28CB DUP7 DUP3 SLOAD PUSH2 0x40F0 JUMP JUMPDEST SWAP1 SSTORE PUSH1 0x10 DUP3 ADD PUSH2 0x28DC DUP7 DUP3 SLOAD PUSH2 0x40F0 JUMP JUMPDEST SWAP1 SSTORE PUSH32 0x2B1D2104E84DD4DABB0CCA024171F783AB1E1C9DC1AF9D60A2361596653A99C4 PUSH1 0x40 MLOAD SWAP2 DUP7 DUP4 MSTORE CALLER SWAP3 LOG2 PUSH1 0xB DUP2 ADD DUP1 SLOAD SWAP2 DUP9 DUP4 ISZERO PUSH2 0x299A JUMPI POP PUSH1 0xD SWAP1 DUP4 DUP7 GT ISZERO PUSH2 0x2994 JUMPI DUP4 JUMPDEST DUP1 SWAP4 PUSH2 0x294C DUP3 PUSH2 0x2935 DUP2 DUP12 PUSH2 0x4035 JUMP JUMPDEST SWAP8 PUSH1 0xC DUP7 ADD PUSH2 0x2945 DUP4 DUP3 SLOAD PUSH2 0x40F0 JUMP JUMPDEST SWAP1 SSTORE PUSH2 0x4035 JUMP JUMPDEST SWAP1 SSTORE PUSH2 0x295D PUSH1 0xE DUP4 ADD SWAP2 DUP3 SLOAD PUSH2 0x40F0 JUMP JUMPDEST SWAP1 SSTORE JUMPDEST ADD PUSH2 0x296C DUP4 DUP3 SLOAD PUSH2 0x40F0 JUMP JUMPDEST SWAP1 SSTORE PUSH1 0x40 MLOAD SWAP5 DUP6 SWAP5 CALLER SWAP9 DUP7 PUSH2 0x4296 JUMP JUMPDEST SUB SWAP1 LOG2 PUSH1 0x1 PUSH1 0x0 DUP1 MLOAD PUSH1 0x20 PUSH2 0x52C0 DUP4 CODECOPY DUP2 MLOAD SWAP2 MSTORE SSTORE DUP1 RETURN JUMPDEST DUP6 PUSH2 0x2925 JUMP JUMPDEST SWAP2 POP SWAP2 POP PUSH1 0xD DUP5 SWAP3 PUSH2 0x2960 JUMP JUMPDEST PUSH4 0x4E487B71 PUSH1 0xE0 SHL DUP7 MSTORE PUSH1 0x11 PUSH1 0x4 MSTORE PUSH1 0x24 DUP7 REVERT JUMPDEST POP DUP3 DUP3 DUP2 RETURNDATASIZE DUP4 GT PUSH2 0x29E3 JUMPI JUMPDEST PUSH2 0x29D1 DUP2 DUP4 PUSH2 0x3F07 JUMP JUMPDEST DUP2 ADD SUB SLT PUSH2 0x90F JUMPI PUSH2 0x2873 SWAP2 MLOAD PUSH2 0x2869 JUMP JUMPDEST POP RETURNDATASIZE PUSH2 0x29C7 JUMP JUMPDEST PUSH1 0x40 MLOAD RETURNDATASIZE DUP9 DUP3 RETURNDATACOPY RETURNDATASIZE SWAP1 REVERT JUMPDEST PUSH2 0x2A01 SWAP2 SWAP3 SWAP4 POP PUSH2 0x3EF4 JUMP JUMPDEST PUSH2 0x2A0E JUMPI DUP4 SWAP1 DUP8 CODESIZE PUSH2 0x2847 JUMP JUMPDEST DUP7 DUP1 REVERT JUMPDEST POP PUSH1 0x40 MLOAD SWAP1 RETURNDATASIZE SWAP1 DUP3 RETURNDATACOPY RETURNDATASIZE SWAP1 REVERT JUMPDEST DUP7 DUP1 SWAP3 SWAP6 POP DUP2 SWAP5 POP RETURNDATASIZE DUP4 GT PUSH2 0x2A4B JUMPI JUMPDEST PUSH2 0x2A39 DUP2 DUP4 PUSH2 0x3F07 JUMP JUMPDEST DUP2 ADD SUB SLT PUSH2 0x90F JUMPI DUP8 SWAP2 MLOAD SWAP3 CODESIZE PUSH2 0x280F JUMP JUMPDEST POP RETURNDATASIZE PUSH2 0x2A2F JUMP JUMPDEST PUSH1 0x40 MLOAD PUSH4 0x208975E7 PUSH1 0xE2 SHL DUP2 MSTORE PUSH1 0x4 SWAP1 REVERT JUMPDEST POP CALLVALUE PUSH2 0x306 JUMPI PUSH1 0x80 CALLDATASIZE PUSH1 0x3 NOT ADD SLT PUSH2 0x306 JUMPI PUSH1 0x4 CALLDATALOAD PUSH1 0x1 PUSH1 0x1 PUSH1 0x40 SHL SUB DUP2 GT PUSH2 0x87A JUMPI PUSH2 0x2A95 SWAP1 CALLDATASIZE SWAP1 PUSH1 0x4 ADD PUSH2 0x3E23 JUMP JUMPDEST SWAP2 SWAP1 PUSH1 0x24 CALLDATALOAD PUSH1 0x1 PUSH1 0x1 PUSH1 0x40 SHL SUB DUP2 GT PUSH2 0x86B JUMPI PUSH2 0x2AB6 SWAP1 CALLDATASIZE SWAP1 PUSH1 0x4 ADD PUSH2 0x3E23 JUMP JUMPDEST PUSH1 0x44 CALLDATALOAD PUSH1 0x1 PUSH1 0x1 PUSH1 0x40 SHL SUB DUP2 GT PUSH2 0x8BE JUMPI PUSH2 0x2AD5 SWAP1 CALLDATASIZE SWAP1 PUSH1 0x4 ADD PUSH2 0x3E23 JUMP JUMPDEST SWAP1 SWAP2 PUSH1 0x64 CALLDATALOAD PUSH1 0x1 PUSH1 0x1 PUSH1 0x40 SHL SUB DUP2 GT PUSH2 0x2A0E JUMPI PUSH2 0x2AF6 SWAP1 CALLDATASIZE SWAP1 PUSH1 0x4 ADD PUSH2 0x3E23 JUMP JUMPDEST SWAP5 SWAP1 SWAP8 CALLER DUP9 MSTORE PUSH1 0x3 PUSH1 0x20 MSTORE PUSH2 0x2B11 PUSH1 0xFF PUSH1 0x40 DUP11 KECCAK256 SLOAD AND PUSH2 0x4F25 JUMP JUMPDEST CALLER DUP9 MSTORE PUSH1 0x3 PUSH1 0x20 MSTORE PUSH1 0x40 DUP9 KECCAK256 SWAP7 PUSH1 0x1 PUSH1 0x1 PUSH1 0x40 SHL SUB DUP3 GT PUSH2 0x2FD0 JUMPI DUP2 SWAP1 PUSH2 0x2B3B PUSH1 0x15 DUP11 ADD SLOAD PUSH2 0x3E9F JUMP JUMPDEST PUSH1 0x1F DUP2 GT PUSH2 0x2F80 JUMPI JUMPDEST POP DUP10 SWAP1 PUSH1 0x1F DUP4 GT PUSH1 0x1 EQ PUSH2 0x2F14 JUMPI DUP11 SWAP3 PUSH2 0x2F09 JUMPI JUMPDEST POP POP DUP2 PUSH1 0x1 SHL SWAP2 PUSH1 0x0 NOT SWAP1 PUSH1 0x3 SHL SHR NOT AND OR PUSH1 0x15 DUP8 ADD SSTORE JUMPDEST PUSH1 0x1 PUSH1 0x1 PUSH1 0x40 SHL SUB DUP3 GT PUSH2 0x2EF5 JUMPI DUP2 SWAP1 PUSH2 0x2B8E PUSH1 0x16 DUP9 ADD SLOAD PUSH2 0x3E9F JUMP JUMPDEST PUSH1 0x1F DUP2 GT PUSH2 0x2EA2 JUMPI JUMPDEST POP DUP8 SWAP1 PUSH1 0x1F DUP4 GT PUSH1 0x1 EQ PUSH2 0x2E36 JUMPI DUP9 SWAP3 PUSH2 0x2E2B JUMPI JUMPDEST POP POP DUP2 PUSH1 0x1 SHL SWAP2 PUSH1 0x0 NOT SWAP1 PUSH1 0x3 SHL SHR NOT AND OR PUSH1 0x16 DUP6 ADD SSTORE JUMPDEST PUSH1 0x17 DUP5 ADD SWAP2 PUSH1 0x1 PUSH1 0x1 PUSH1 0x40 SHL SUB DUP3 GT PUSH2 0x16F9 JUMPI DUP2 SWAP1 PUSH2 0x2BE3 DUP5 SLOAD PUSH2 0x3E9F JUMP JUMPDEST PUSH1 0x1F DUP2 GT PUSH2 0x2DDB JUMPI JUMPDEST POP DUP7 SWAP1 PUSH1 0x1F DUP4 GT PUSH1 0x1 EQ PUSH2 0x2D75 JUMPI DUP8 SWAP3 PUSH2 0x2D6A JUMPI JUMPDEST POP POP DUP2 PUSH1 0x1 SHL SWAP2 PUSH1 0x0 NOT SWAP1 PUSH1 0x3 SHL SHR NOT AND OR SWAP1 SSTORE JUMPDEST PUSH1 0x18 DUP3 ADD SWAP1 PUSH1 0x1 PUSH1 0x1 PUSH1 0x40 SHL SUB DUP2 GT PUSH2 0x2D56 JUMPI PUSH2 0x2C33 DUP3 SLOAD PUSH2 0x3E9F JUMP JUMPDEST PUSH1 0x1F DUP2 GT PUSH2 0x2D11 JUMPI JUMPDEST POP DUP4 PUSH1 0x1F DUP3 GT PUSH1 0x1 EQ PUSH2 0x2CAA JUMPI DUP2 SWAP1 DUP6 SWAP7 PUSH1 0x19 SWAP7 SWAP3 PUSH2 0x2C9F JUMPI JUMPDEST POP POP DUP2 PUSH1 0x1 SHL SWAP2 PUSH1 0x0 NOT SWAP1 PUSH1 0x3 SHL SHR NOT AND OR SWAP1 SSTORE JUMPDEST ADD DUP1 SLOAD PUSH1 0xFF NOT AND PUSH1 0x1 OR SWAP1 SSTORE CALLER PUSH32 0xBE4EC58A792F909E102EE3D745D0C3B34A4D437A54D903C4DB098D31C556422F DUP3 DUP1 LOG2 DUP1 RETURN JUMPDEST ADD CALLDATALOAD SWAP1 POP CODESIZE DUP1 PUSH2 0x2C56 JUMP JUMPDEST DUP3 DUP6 MSTORE PUSH1 0x20 DUP6 KECCAK256 SWAP1 PUSH1 0x1F NOT DUP4 AND DUP7 JUMPDEST DUP2 DUP2 LT PUSH2 0x2CF9 JUMPI POP SWAP7 DUP4 SWAP3 SWAP2 PUSH1 0x1 SWAP5 PUSH1 0x19 SWAP9 SWAP10 LT PUSH2 0x2CDF JUMPI JUMPDEST POP POP POP DUP2 SHL ADD SWAP1 SSTORE PUSH2 0x2C6B JUMP JUMPDEST ADD CALLDATALOAD PUSH1 0x0 NOT PUSH1 0x3 DUP5 SWAP1 SHL PUSH1 0xF8 AND SHR NOT AND SWAP1 SSTORE CODESIZE DUP1 DUP1 PUSH2 0x2CD2 JUMP JUMPDEST SWAP2 SWAP3 PUSH1 0x20 PUSH1 0x1 DUP2 SWAP3 DUP7 DUP13 ADD CALLDATALOAD DUP2 SSTORE ADD SWAP5 ADD SWAP3 ADD PUSH2 0x2CB9 JUMP JUMPDEST DUP3 DUP6 MSTORE PUSH1 0x20 DUP6 KECCAK256 PUSH1 0x1F DUP4 ADD PUSH1 0x5 SHR DUP2 ADD SWAP2 PUSH1 0x20 DUP5 LT PUSH2 0x2D4C JUMPI JUMPDEST PUSH1 0x1F ADD PUSH1 0x5 SHR ADD SWAP1 JUMPDEST DUP2 DUP2 LT PUSH2 0x2D41 JUMPI POP PUSH2 0x2C3C JUMP JUMPDEST DUP6 DUP2 SSTORE PUSH1 0x1 ADD PUSH2 0x2D34 JUMP JUMPDEST SWAP1 SWAP2 POP DUP2 SWAP1 PUSH2 0x2D2B JUMP JUMPDEST PUSH4 0x4E487B71 PUSH1 0xE0 SHL DUP5 MSTORE PUSH1 0x41 PUSH1 0x4 MSTORE PUSH1 0x24 DUP5 REVERT JUMPDEST ADD CALLDATALOAD SWAP1 POP CODESIZE DUP1 PUSH2 0x2C01 JUMP JUMPDEST DUP5 DUP9 MSTORE PUSH1 0x20 DUP9 KECCAK256 SWAP3 POP SWAP1 PUSH1 0x1F NOT DUP5 AND DUP9 JUMPDEST DUP2 DUP2 LT PUSH2 0x2DC3 JUMPI POP SWAP1 DUP5 PUSH1 0x1 SWAP6 SWAP5 SWAP4 SWAP3 LT PUSH2 0x2DA9 JUMPI JUMPDEST POP POP POP DUP2 SHL ADD SWAP1 SSTORE PUSH2 0x2C16 JUMP JUMPDEST ADD CALLDATALOAD PUSH1 0x0 NOT PUSH1 0x3 DUP5 SWAP1 SHL PUSH1 0xF8 AND SHR NOT AND SWAP1 SSTORE CODESIZE DUP1 DUP1 PUSH2 0x2D9C JUMP JUMPDEST SWAP2 SWAP4 PUSH1 0x20 PUSH1 0x1 DUP2 SWAP3 DUP8 DUP8 ADD CALLDATALOAD DUP2 SSTORE ADD SWAP6 ADD SWAP3 ADD PUSH2 0x2D86 JUMP JUMPDEST SWAP1 SWAP2 POP DUP4 DUP8 MSTORE PUSH1 0x20 DUP8 KECCAK256 PUSH1 0x1F DUP5 ADD PUSH1 0x5 SHR DUP2 ADD SWAP2 PUSH1 0x20 DUP6 LT PUSH2 0x2E21 JUMPI JUMPDEST SWAP1 PUSH1 0x1F DUP6 SWAP5 SWAP4 SWAP3 ADD PUSH1 0x5 SHR ADD SWAP1 JUMPDEST DUP2 DUP2 LT PUSH2 0x2E13 JUMPI POP PUSH2 0x2BEC JUMP JUMPDEST DUP9 DUP2 SSTORE DUP5 SWAP4 POP PUSH1 0x1 ADD PUSH2 0x2E06 JUMP JUMPDEST SWAP1 SWAP2 POP DUP2 SWAP1 PUSH2 0x2DF8 JUMP JUMPDEST ADD CALLDATALOAD SWAP1 POP CODESIZE DUP1 PUSH2 0x2BAC JUMP JUMPDEST PUSH1 0x16 DUP9 ADD DUP10 MSTORE PUSH1 0x20 DUP10 KECCAK256 SWAP3 POP SWAP1 PUSH1 0x1F NOT DUP5 AND DUP10 JUMPDEST DUP2 DUP2 LT PUSH2 0x2E8A JUMPI POP SWAP1 DUP5 PUSH1 0x1 SWAP6 SWAP5 SWAP4 SWAP3 LT PUSH2 0x2E70 JUMPI JUMPDEST POP POP POP DUP2 SHL ADD PUSH1 0x16 DUP6 ADD SSTORE PUSH2 0x2BC4 JUMP JUMPDEST ADD CALLDATALOAD PUSH1 0x0 NOT PUSH1 0x3 DUP5 SWAP1 SHL PUSH1 0xF8 AND SHR NOT AND SWAP1 SSTORE CODESIZE DUP1 DUP1 PUSH2 0x2E60 JUMP JUMPDEST SWAP2 SWAP4 PUSH1 0x20 PUSH1 0x1 DUP2 SWAP3 DUP8 DUP8 ADD CALLDATALOAD DUP2 SSTORE ADD SWAP6 ADD SWAP3 ADD PUSH2 0x2E4A JUMP JUMPDEST SWAP1 SWAP2 POP PUSH1 0x16 DUP8 ADD DUP9 MSTORE PUSH1 0x20 DUP9 KECCAK256 PUSH1 0x1F DUP5 ADD PUSH1 0x5 SHR DUP2 ADD SWAP2 PUSH1 0x20 DUP6 LT PUSH2 0x2EEB JUMPI JUMPDEST SWAP1 PUSH1 0x1F DUP6 SWAP5 SWAP4 SWAP3 ADD PUSH1 0x5 SHR ADD SWAP1 JUMPDEST DUP2 DUP2 LT PUSH2 0x2EDD JUMPI POP PUSH2 0x2B97 JUMP JUMPDEST DUP10 DUP2 SSTORE DUP5 SWAP4 POP PUSH1 0x1 ADD PUSH2 0x2ED0 JUMP JUMPDEST SWAP1 SWAP2 POP DUP2 SWAP1 PUSH2 0x2EC2 JUMP JUMPDEST PUSH4 0x4E487B71 PUSH1 0xE0 SHL DUP8 MSTORE PUSH1 0x41 PUSH1 0x4 MSTORE PUSH1 0x24 DUP8 REVERT JUMPDEST ADD CALLDATALOAD SWAP1 POP CODESIZE DUP1 PUSH2 0x2B59 JUMP JUMPDEST PUSH1 0x15 DUP11 ADD DUP12 MSTORE PUSH1 0x20 DUP12 KECCAK256 SWAP3 POP SWAP1 PUSH1 0x1F NOT DUP5 AND DUP12 JUMPDEST DUP2 DUP2 LT PUSH2 0x2F68 JUMPI POP SWAP1 DUP5 PUSH1 0x1 SWAP6 SWAP5 SWAP4 SWAP3 LT PUSH2 0x2F4E JUMPI JUMPDEST POP POP POP DUP2 SHL ADD PUSH1 0x15 DUP8 ADD SSTORE PUSH2 0x2B71 JUMP JUMPDEST ADD CALLDATALOAD PUSH1 0x0 NOT PUSH1 0x3 DUP5 SWAP1 SHL PUSH1 0xF8 AND SHR NOT AND SWAP1 SSTORE CODESIZE DUP1 DUP1 PUSH2 0x2F3E JUMP JUMPDEST SWAP2 SWAP4 PUSH1 0x20 PUSH1 0x1 DUP2 SWAP3 DUP8 DUP8 ADD CALLDATALOAD DUP2 SSTORE ADD SWAP6 ADD SWAP3 ADD PUSH2 0x2F28 JUMP JUMPDEST SWAP1 SWAP2 POP PUSH1 0x15 DUP10 ADD DUP11 MSTORE PUSH1 0x20 DUP11 KECCAK256 PUSH1 0x1F DUP5 ADD PUSH1 0x5 SHR DUP2 ADD PUSH1 0x20 DUP6 LT PUSH2 0x2FC9 JUMPI JUMPDEST SWAP1 DUP5 SWAP4 SWAP3 SWAP2 JUMPDEST PUSH1 0x1F DUP4 ADD PUSH1 0x5 SHR DUP3 ADD DUP2 LT PUSH2 0x2FBB JUMPI POP POP PUSH2 0x2B44 JUMP JUMPDEST DUP13 DUP2 SSTORE DUP6 SWAP5 POP PUSH1 0x1 ADD PUSH2 0x2FA5 JUMP JUMPDEST POP DUP1 PUSH2 0x2F9F JUMP JUMPDEST PUSH4 0x4E487B71 PUSH1 0xE0 SHL DUP10 MSTORE PUSH1 0x41 PUSH1 0x4 MSTORE PUSH1 0x24 DUP10 REVERT JUMPDEST POP CALLVALUE PUSH2 0x306 JUMPI DUP1 PUSH1 0x3 NOT CALLDATASIZE ADD SLT PUSH2 0x306 JUMPI PUSH1 0x60 PUSH1 0x6 SLOAD PUSH1 0x7 SLOAD PUSH1 0x8 SLOAD SWAP1 PUSH1 0x40 MLOAD SWAP3 DUP4 MSTORE PUSH1 0x20 DUP4 ADD MSTORE PUSH1 0x40 DUP3 ADD MSTORE RETURN JUMPDEST POP CALLVALUE PUSH2 0x306 JUMPI PUSH1 0x20 CALLDATASIZE PUSH1 0x3 NOT ADD SLT PUSH2 0x306 JUMPI PUSH1 0x4 CALLDATALOAD CALLER DUP3 MSTORE PUSH1 0xD PUSH1 0x20 MSTORE PUSH2 0x303F PUSH1 0x40 DUP4 KECCAK256 SLOAD DUP3 LT PUSH2 0x4FD2 JUMP JUMPDEST CALLER DUP3 MSTORE PUSH1 0xD PUSH1 0x20 MSTORE PUSH1 0x3 PUSH2 0x3056 DUP3 PUSH1 0x40 DUP6 KECCAK256 PUSH2 0x4FB6 JUMP JUMPDEST POP PUSH2 0x3067 PUSH1 0xFF PUSH1 0x4 DUP4 ADD SLOAD AND PUSH2 0x500E JUMP JUMPDEST ADD DUP1 SLOAD PUSH2 0x30A6 JUMPI TIMESTAMP SWAP1 SSTORE PUSH1 0x40 MLOAD SWAP1 DUP2 MSTORE TIMESTAMP PUSH1 0x20 DUP3 ADD MSTORE PUSH32 0x68733B6F87B2A7C87D5BCF8C0A0950F2985CC261D9AB6DEFDDCA8D7BD05EBA43 PUSH1 0x40 CALLER SWAP3 LOG2 DUP1 RETURN JUMPDEST PUSH1 0x40 MLOAD PUSH3 0x461BCD PUSH1 0xE5 SHL DUP2 MSTORE PUSH1 0x20 PUSH1 0x4 DUP3 ADD MSTORE PUSH1 0xE PUSH1 0x24 DUP3 ADD MSTORE PUSH14 0x105B1C9958591E481B1BD8DAD959 PUSH1 0x92 SHL PUSH1 0x44 DUP3 ADD MSTORE PUSH1 0x64 SWAP1 REVERT JUMPDEST POP CALLVALUE PUSH2 0x306 JUMPI PUSH1 0x20 CALLDATASIZE PUSH1 0x3 NOT ADD SLT PUSH2 0x306 JUMPI PUSH1 0x20 PUSH2 0x671 PUSH1 0x4 CALLDATALOAD PUSH2 0x504D JUMP JUMPDEST POP CALLVALUE PUSH2 0x306 JUMPI DUP1 PUSH1 0x3 NOT CALLDATASIZE ADD SLT PUSH2 0x306 JUMPI PUSH1 0x20 PUSH1 0x40 MLOAD PUSH1 0x2 DUP2 MSTORE RETURN JUMPDEST POP CALLVALUE PUSH2 0x306 JUMPI PUSH1 0x20 CALLDATASIZE PUSH1 0x3 NOT ADD SLT PUSH2 0x306 JUMPI PUSH1 0x20 PUSH2 0x671 PUSH1 0x4 CALLDATALOAD PUSH2 0x5112 JUMP JUMPDEST POP CALLVALUE PUSH2 0x306 JUMPI DUP1 PUSH1 0x3 NOT CALLDATASIZE ADD SLT PUSH2 0x306 JUMPI PUSH1 0x20 PUSH1 0x4 SLOAD PUSH1 0x40 MLOAD SWAP1 DUP2 MSTORE RETURN JUMPDEST POP CALLVALUE PUSH2 0x306 JUMPI PUSH1 0x20 CALLDATASIZE PUSH1 0x3 NOT ADD SLT PUSH2 0x306 JUMPI PUSH2 0x316E PUSH2 0x408F JUMP JUMPDEST CALLER DUP2 MSTORE PUSH1 0xD PUSH1 0x20 MSTORE PUSH2 0x3187 PUSH1 0x40 DUP3 KECCAK256 SLOAD PUSH1 0x4 CALLDATALOAD LT PUSH2 0x4FD2 JUMP JUMPDEST CALLER DUP2 MSTORE PUSH1 0xD PUSH1 0x20 MSTORE PUSH2 0x319E PUSH1 0x4 CALLDATALOAD PUSH1 0x40 DUP4 KECCAK256 PUSH2 0x4FB6 JUMP JUMPDEST POP PUSH1 0x4 DUP2 ADD DUP1 SLOAD SWAP1 PUSH2 0x31B2 PUSH1 0xFF DUP4 AND PUSH2 0x500E JUMP JUMPDEST PUSH1 0x3 DUP4 ADD SLOAD SWAP2 DUP3 ISZERO SWAP3 DUP4 ISZERO PUSH2 0x36ED JUMPI JUMPDEST POP PUSH1 0xFF NOT AND SWAP1 SSTORE PUSH1 0x1 DUP3 SLOAD SWAP3 ADD SLOAD SWAP1 DUP2 PUSH1 0x1 SHL SWAP2 DUP1 DUP4 DIV PUSH1 0x2 EQ SWAP1 ISZERO OR ISZERO PUSH2 0x1816 JUMPI DUP3 SWAP2 DUP2 ISZERO PUSH2 0x352B JUMPI PUSH1 0x5 DUP5 MUL DUP5 DUP2 DIV PUSH1 0x5 EQ DUP6 ISZERO OR ISZERO PUSH2 0x29A7 JUMPI CALLER DUP7 MSTORE PUSH1 0x3 PUSH1 0x20 MSTORE PUSH1 0x40 DUP7 KECCAK256 SLOAD PUSH1 0x64 SWAP1 SWAP2 DIV SWAP1 PUSH1 0x1 PUSH1 0x1 PUSH1 0xA0 SHL SUB SWAP1 PUSH1 0x10 SHR DUP2 AND DUP1 ISZERO ISZERO DUP1 PUSH2 0x3517 JUMPI JUMPDEST PUSH2 0x3483 JUMPI JUMPDEST POP POP POP JUMPDEST PUSH1 0x40 MLOAD PUSH4 0x70A08231 PUSH1 0xE0 SHL DUP1 DUP3 MSTORE ADDRESS PUSH1 0x4 DUP4 ADD MSTORE PUSH1 0x1 PUSH1 0x1 PUSH1 0xA0 SHL SUB PUSH32 0x0 DUP2 AND SWAP6 SWAP2 SWAP3 SWAP2 DUP9 SWAP2 PUSH1 0x20 DUP5 PUSH1 0x24 DUP2 DUP12 GAS STATICCALL SWAP4 DUP5 ISZERO PUSH2 0xDB8 JUMPI DUP4 SWAP5 PUSH2 0x344F JUMPI JUMPDEST POP PUSH1 0x1 SLOAD AND DUP1 EXTCODESIZE ISZERO PUSH2 0x86B JUMPI PUSH1 0x24 DUP4 SWAP3 PUSH1 0x40 MLOAD SWAP5 DUP6 SWAP4 DUP5 SWAP3 PUSH4 0x72424D99 PUSH1 0xE1 SHL DUP5 MSTORE PUSH1 0x4 DUP5 ADD MSTORE GAS CALL DUP1 ISZERO PUSH2 0x3444 JUMPI PUSH2 0x3431 JUMPI JUMPDEST POP PUSH1 0x40 MLOAD SWAP2 DUP3 MSTORE ADDRESS PUSH1 0x4 DUP4 ADD MSTORE PUSH1 0x20 DUP3 PUSH1 0x24 DUP2 DUP9 GAS STATICCALL DUP1 ISZERO PUSH2 0x3426 JUMPI DUP8 SWAP1 PUSH2 0x33F2 JUMPI JUMPDEST PUSH2 0x32EE SWAP3 POP PUSH2 0x4035 JUMP JUMPDEST SWAP1 DUP6 SWAP3 DUP1 PUSH2 0x33E9 JUMPI JUMPDEST PUSH2 0x33C7 JUMPI JUMPDEST POP DUP1 PUSH2 0x3328 JUMPI JUMPDEST PUSH1 0x0 DUP1 MLOAD PUSH1 0x20 PUSH2 0x5280 DUP4 CODECOPY DUP2 MLOAD SWAP2 MSTORE SWAP3 POP PUSH2 0x297C PUSH1 0x40 MLOAD SWAP3 DUP4 SWAP3 CALLER SWAP7 PUSH1 0x4 CALLDATALOAD DUP6 PUSH2 0x4BA3 JUMP JUMPDEST PUSH1 0x20 PUSH1 0x40 MLOAD DUP1 SWAP5 PUSH4 0xA9059CBB PUSH1 0xE0 SHL DUP3 MSTORE DUP2 DUP9 DUP2 PUSH2 0x334A DUP8 CALLER PUSH1 0x4 DUP5 ADD PUSH2 0x4065 JUMP JUMPDEST SUB SWAP3 GAS CALL SWAP3 DUP4 ISZERO PUSH2 0x8C9 JUMPI DUP6 SWAP4 PUSH2 0x337A JUMPI JUMPDEST POP PUSH2 0x3375 PUSH1 0x0 DUP1 MLOAD PUSH1 0x20 PUSH2 0x5280 DUP4 CODECOPY DUP2 MLOAD SWAP2 MSTORE SWAP4 PUSH2 0x4F62 JUMP JUMPDEST PUSH2 0x3303 JUMP JUMPDEST SWAP3 POP PUSH1 0x20 DUP4 RETURNDATASIZE PUSH1 0x20 GT PUSH2 0x33BF JUMPI JUMPDEST DUP2 PUSH2 0x3395 PUSH1 0x20 SWAP4 DUP4 PUSH2 0x3F07 JUMP JUMPDEST DUP2 ADD SUB SLT PUSH2 0x8BE JUMPI PUSH2 0x3375 PUSH2 0x33B8 PUSH1 0x0 DUP1 MLOAD PUSH1 0x20 PUSH2 0x5280 DUP4 CODECOPY DUP2 MLOAD SWAP2 MSTORE SWAP5 PUSH2 0x4058 JUMP JUMPDEST SWAP4 POP PUSH2 0x335C JUMP JUMPDEST RETURNDATASIZE SWAP2 POP PUSH2 0x3388 JUMP JUMPDEST DUP1 SWAP3 POP PUSH2 0x33D3 SWAP2 PUSH2 0x4035 JUMP JUMPDEST SWAP1 PUSH2 0x33E0 DUP3 PUSH1 0x8 SLOAD PUSH2 0x40F0 JUMP JUMPDEST PUSH1 0x8 SSTORE CODESIZE PUSH2 0x32FC JUMP JUMPDEST POP DUP1 DUP3 GT PUSH2 0x32F7 JUMP JUMPDEST POP PUSH1 0x20 DUP3 RETURNDATASIZE PUSH1 0x20 GT PUSH2 0x341E JUMPI JUMPDEST DUP2 PUSH2 0x340C PUSH1 0x20 SWAP4 DUP4 PUSH2 0x3F07 JUMP JUMPDEST DUP2 ADD SUB SLT PUSH2 0x90F JUMPI PUSH2 0x32EE SWAP2 MLOAD PUSH2 0x32E4 JUMP JUMPDEST RETURNDATASIZE SWAP2 POP PUSH2 0x33FF JUMP JUMPDEST PUSH1 0x40 MLOAD RETURNDATASIZE DUP10 DUP3 RETURNDATACOPY RETURNDATASIZE SWAP1 REVERT JUMPDEST PUSH2 0x343D SWAP1 SWAP8 SWAP2 SWAP8 PUSH2 0x3EF4 JUMP JUMPDEST SWAP6 CODESIZE PUSH2 0x32C1 JUMP JUMPDEST PUSH1 0x40 MLOAD RETURNDATASIZE DUP11 DUP3 RETURNDATACOPY RETURNDATASIZE SWAP1 REVERT JUMPDEST SWAP1 SWAP4 POP PUSH1 0x20 DUP2 RETURNDATASIZE PUSH1 0x20 GT PUSH2 0x347B JUMPI JUMPDEST DUP2 PUSH2 0x346B PUSH1 0x20 SWAP4 DUP4 PUSH2 0x3F07 JUMP JUMPDEST DUP2 ADD SUB SLT PUSH2 0x86B JUMPI MLOAD SWAP3 CODESIZE PUSH2 0x328D JUMP JUMPDEST RETURNDATASIZE SWAP2 POP PUSH2 0x345E JUMP JUMPDEST DUP3 PUSH1 0x20 SWAP2 PUSH2 0x34AD SWAP4 PUSH1 0x1 SLOAD AND SWAP1 DUP11 PUSH1 0x40 MLOAD DUP1 SWAP7 DUP2 SWAP6 DUP3 SWAP5 PUSH4 0xA9059CBB PUSH1 0xE0 SHL DUP5 MSTORE PUSH1 0x4 DUP5 ADD PUSH2 0x4065 JUMP JUMPDEST SUB SWAP3 GAS CALL SWAP1 DUP2 ISZERO PUSH2 0x3426 JUMPI DUP8 SWAP2 PUSH2 0x34DD JUMPI JUMPDEST POP PUSH2 0x34CC JUMPI JUMPDEST DUP1 DUP1 PUSH2 0x322D JUMP JUMPDEST PUSH2 0x34D6 SWAP2 SWAP4 PUSH2 0x4035 JUMP JUMPDEST SWAP2 CODESIZE PUSH2 0x34C5 JUMP JUMPDEST SWAP1 POP PUSH1 0x20 DUP2 RETURNDATASIZE PUSH1 0x20 GT PUSH2 0x350F JUMPI JUMPDEST DUP2 PUSH2 0x34F8 PUSH1 0x20 SWAP4 DUP4 PUSH2 0x3F07 JUMP JUMPDEST DUP2 ADD SUB SLT PUSH2 0x2A0E JUMPI PUSH2 0x3509 SWAP1 PUSH2 0x4058 JUMP JUMPDEST CODESIZE PUSH2 0x34BF JUMP JUMPDEST RETURNDATASIZE SWAP2 POP PUSH2 0x34EB JUMP JUMPDEST POP DUP1 DUP9 MSTORE PUSH1 0xFF PUSH1 0x40 DUP10 KECCAK256 SLOAD PUSH1 0x8 SHR AND PUSH2 0x3228 JUMP JUMPDEST SWAP3 PUSH1 0x40 SWAP5 SWAP3 SWAP5 MLOAD PUSH2 0x353B DUP2 PUSH2 0x3ED9 JUMP JUMPDEST PUSH1 0x5 DUP2 MSTORE PUSH1 0x2 PUSH1 0x20 DUP3 ADD MSTORE PUSH1 0x1 PUSH1 0x40 DUP3 ADD MSTORE PUSH1 0x1 PUSH1 0x60 DUP3 ADD MSTORE PUSH1 0x1 PUSH1 0x80 DUP3 ADD MSTORE CALLER DUP5 MSTORE PUSH1 0x3 PUSH1 0x20 MSTORE PUSH1 0x40 DUP5 KECCAK256 SLOAD PUSH1 0x1 DUP1 PUSH1 0xA0 SHL SUB SWAP1 PUSH1 0x10 SHR AND SWAP3 DUP5 SWAP4 JUMPDEST PUSH1 0x5 PUSH1 0xFF DUP7 AND LT ISZERO PUSH2 0x36E0 JUMPI PUSH1 0x64 PUSH2 0x359F PUSH1 0xFF PUSH2 0x3597 DUP2 DUP10 AND DUP8 PUSH2 0x4FA5 JUMP JUMPDEST MLOAD AND DUP7 PUSH2 0x4263 JUMP JUMPDEST DIV DUP1 ISZERO PUSH2 0x36A2 JUMPI PUSH1 0x1 PUSH1 0x1 PUSH1 0xA0 SHL SUB DUP3 AND ISZERO ISZERO DUP1 PUSH2 0x3680 JUMPI JUMPDEST PUSH2 0x35E9 JUMPI JUMPDEST POP PUSH1 0x1 PUSH1 0x1 PUSH1 0xA0 SHL SUB SWAP1 DUP2 AND DUP7 MSTORE PUSH1 0x3 PUSH1 0x20 MSTORE PUSH1 0x40 DUP7 KECCAK256 SLOAD PUSH1 0x10 SHR AND SWAP4 PUSH2 0x35E3 SWAP1 PUSH2 0x47B6 JUMP JUMPDEST SWAP4 PUSH2 0x3578 JUMP JUMPDEST PUSH1 0x1 SLOAD PUSH1 0x40 MLOAD PUSH4 0xA9059CBB PUSH1 0xE0 SHL DUP2 MSTORE SWAP1 PUSH1 0x20 SWAP1 DUP3 SWAP1 PUSH1 0x1 PUSH1 0x1 PUSH1 0xA0 SHL SUB AND DUP2 DUP12 DUP2 PUSH2 0x3619 DUP9 DUP11 PUSH1 0x4 DUP5 ADD PUSH2 0x4065 JUMP JUMPDEST SUB SWAP3 GAS CALL SWAP1 DUP2 ISZERO PUSH2 0x3444 JUMPI DUP9 SWAP2 PUSH2 0x3642 JUMPI JUMPDEST POP ISZERO PUSH2 0x35BD JUMPI PUSH2 0x363B SWAP2 SWAP9 PUSH2 0x4035 JUMP JUMPDEST SWAP7 CODESIZE PUSH2 0x35BD JUMP JUMPDEST SWAP1 POP PUSH1 0x20 DUP2 RETURNDATASIZE PUSH1 0x20 GT PUSH2 0x3678 JUMPI JUMPDEST DUP2 PUSH2 0x365D PUSH1 0x20 SWAP4 DUP4 PUSH2 0x3F07 JUMP JUMPDEST DUP2 ADD SUB SLT PUSH2 0x3674 JUMPI PUSH2 0x366E SWAP1 PUSH2 0x4058 JUMP JUMPDEST CODESIZE PUSH2 0x362B JUMP JUMPDEST DUP8 DUP1 REVERT JUMPDEST RETURNDATASIZE SWAP2 POP PUSH2 0x3650 JUMP JUMPDEST POP PUSH1 0x1 PUSH1 0x1 PUSH1 0xA0 SHL SUB DUP3 AND DUP8 MSTORE PUSH1 0x3 PUSH1 0x20 MSTORE PUSH1 0x40 DUP8 KECCAK256 SLOAD PUSH1 0x8 SHR PUSH1 0xFF AND PUSH2 0x35B8 JUMP JUMPDEST POP SWAP4 PUSH1 0x1 PUSH1 0x1 PUSH1 0xA0 SHL SUB DUP6 AND DUP1 PUSH2 0x36BE JUMPI JUMPDEST POP PUSH2 0x35E3 SWAP1 PUSH2 0x47B6 JUMP JUMPDEST DUP7 MSTORE PUSH1 0x3 PUSH1 0x20 MSTORE PUSH1 0x40 DUP7 KECCAK256 SLOAD PUSH1 0x10 SHR PUSH1 0x1 PUSH1 0x1 PUSH1 0xA0 SHL SUB AND SWAP5 POP PUSH2 0x35E3 PUSH2 0x36B4 JUMP JUMPDEST POP SWAP3 POP POP SWAP3 SWAP4 SWAP2 SWAP4 PUSH2 0x3231 JUMP JUMPDEST PUSH4 0x18B8200 DUP2 ADD DUP1 SWAP2 GT PUSH2 0x29A7 JUMPI TIMESTAMP LT PUSH2 0x3707 JUMPI CODESIZE PUSH2 0x31C2 JUMP JUMPDEST PUSH1 0x40 MLOAD PUSH3 0x461BCD PUSH1 0xE5 SHL DUP2 MSTORE PUSH1 0x20 PUSH1 0x4 DUP3 ADD MSTORE PUSH1 0x26 PUSH1 0x24 DUP3 ADD MSTORE PUSH32 0x5374696C6C206C6F636B65643A2031302D6D6F6E746820706572696F64206E6F PUSH1 0x44 DUP3 ADD MSTORE PUSH6 0x3A1037BB32B9 PUSH1 0xD1 SHL PUSH1 0x64 DUP3 ADD MSTORE PUSH1 0x84 SWAP1 REVERT JUMPDEST POP CALLVALUE PUSH2 0x306 JUMPI PUSH2 0x3783 PUSH2 0x376D CALLDATASIZE PUSH2 0x3DF1 JUMP JUMPDEST SWAP1 PUSH2 0x3776 PUSH2 0x3FD0 JUMP JUMPDEST PUSH2 0x377E PUSH2 0x408F JUMP JUMPDEST PUSH2 0x4BBF JUMP JUMPDEST PUSH1 0x1 PUSH1 0x0 DUP1 MLOAD PUSH1 0x20 PUSH2 0x52C0 DUP4 CODECOPY DUP2 MLOAD SWAP2 MSTORE SSTORE DUP1 RETURN JUMPDEST POP CALLVALUE PUSH2 0x306 JUMPI PUSH1 0x40 CALLDATASIZE PUSH1 0x3 NOT ADD SLT PUSH2 0x306 JUMPI PUSH2 0x37B2 PUSH2 0x3D51 JUMP JUMPDEST PUSH1 0x24 CALLDATALOAD SWAP1 PUSH2 0x37BE PUSH2 0x3FD0 JUMP JUMPDEST PUSH1 0x1 PUSH1 0x1 PUSH1 0xA0 SHL SUB AND SWAP1 DUP2 ISZERO PUSH2 0x640 JUMPI PUSH1 0x8 SLOAD DUP2 DUP2 LT PUSH2 0x3822 JUMPI DUP2 PUSH2 0x3806 PUSH32 0xBA443E8671971C36CDEB74F87321041DAFF421230CBC5E36CB835269ED1D8B7E SWAP4 PUSH1 0x20 SWAP4 PUSH2 0x4035 JUMP JUMPDEST PUSH1 0x8 SSTORE DUP4 DUP6 MSTORE PUSH1 0x3 DUP3 MSTORE PUSH1 0x8 PUSH1 0x40 DUP7 KECCAK256 ADD PUSH2 0x5DD DUP3 DUP3 SLOAD PUSH2 0x40F0 JUMP JUMPDEST PUSH1 0x40 MLOAD PUSH3 0x461BCD PUSH1 0xE5 SHL DUP2 MSTORE PUSH1 0x20 PUSH1 0x4 DUP3 ADD MSTORE PUSH1 0x12 PUSH1 0x24 DUP3 ADD MSTORE PUSH18 0x115E18D959591CC818591B5A5B881C1BDBDB PUSH1 0x72 SHL PUSH1 0x44 DUP3 ADD MSTORE PUSH1 0x64 SWAP1 REVERT JUMPDEST POP CALLVALUE PUSH2 0x306 JUMPI PUSH1 0x20 CALLDATASIZE PUSH1 0x3 NOT ADD SLT PUSH2 0x306 JUMPI PUSH1 0x20 SWAP1 PUSH1 0x40 SWAP1 PUSH1 0x1 PUSH1 0x1 PUSH1 0xA0 SHL SUB PUSH2 0x3884 PUSH2 0x3D51 JUMP JUMPDEST AND DUP2 MSTORE PUSH1 0xC DUP4 MSTORE KECCAK256 SLOAD PUSH1 0x40 MLOAD SWAP1 DUP2 MSTORE RETURN JUMPDEST POP CALLVALUE PUSH2 0x306 JUMPI DUP1 PUSH1 0x3 NOT CALLDATASIZE ADD SLT PUSH2 0x306 JUMPI PUSH1 0x1 SLOAD PUSH1 0x40 MLOAD PUSH1 0x1 PUSH1 0x1 PUSH1 0xA0 SHL SUB SWAP1 SWAP2 AND DUP2 MSTORE PUSH1 0x20 SWAP1 RETURN JUMPDEST POP CALLVALUE PUSH2 0x306 JUMPI PUSH1 0x20 CALLDATASIZE PUSH1 0x3 NOT ADD SLT PUSH2 0x306 JUMPI PUSH2 0x38D8 PUSH2 0x3D51 JUMP JUMPDEST PUSH2 0x38E0 PUSH2 0x3FD0 JUMP JUMPDEST PUSH1 0x1 PUSH1 0x1 PUSH1 0xA0 SHL SUB AND DUP1 ISZERO PUSH2 0x640 JUMPI PUSH1 0x1 DUP1 SLOAD PUSH1 0x1 PUSH1 0x1 PUSH1 0xA0 SHL SUB NOT AND DUP3 OR SWAP1 SSTORE PUSH1 0x40 MLOAD SWAP1 DUP2 MSTORE PUSH32 0xFA7BD61554593F4E69CDFFD255D3FE947352B02C7D3EC68059384934E4CFD47C SWAP1 PUSH1 0x20 SWAP1 LOG1 DUP1 RETURN JUMPDEST POP CALLVALUE PUSH2 0x306 JUMPI PUSH1 0x20 DUP1 PUSH1 0x3 NOT CALLDATASIZE ADD SLT PUSH2 0x87A JUMPI PUSH1 0x1 PUSH1 0x1 PUSH1 0xA0 SHL SUB PUSH2 0x3953 PUSH2 0x3D51 JUMP JUMPDEST AND DUP1 DUP4 MSTORE PUSH1 0xD DUP1 DUP4 MSTORE PUSH1 0x40 DUP5 KECCAK256 SLOAD SWAP3 DUP5 SWAP3 DUP6 JUMPDEST DUP6 DUP2 LT PUSH2 0x3ACC JUMPI POP PUSH2 0x3977 DUP5 PUSH2 0x520D JUMP JUMPDEST SWAP5 PUSH2 0x3981 DUP6 PUSH2 0x520D JUMP JUMPDEST SWAP2 PUSH2 0x398B DUP7 PUSH2 0x520D JUMP JUMPDEST SWAP5 PUSH2 0x399E PUSH2 0x3998 DUP9 PUSH2 0x520D JUMP JUMPDEST SWAP8 PUSH2 0x520D JUMP JUMPDEST SWAP9 DUP1 SWAP2 DUP2 JUMPDEST DUP6 DUP2 LT PUSH2 0x3A0F JUMPI POP PUSH2 0x39D4 DUP11 PUSH2 0x3A0B DUP14 PUSH2 0x39FD DUP14 PUSH2 0x39EF DUP15 PUSH2 0x39E1 DUP16 DUP16 PUSH1 0x40 MLOAD SWAP11 DUP12 SWAP11 PUSH1 0xA0 DUP13 MSTORE PUSH1 0xA0 DUP13 ADD SWAP1 PUSH2 0x3DBD JUMP JUMPDEST SWAP2 DUP11 DUP4 SUB SWAP1 DUP12 ADD MSTORE PUSH2 0x3DBD JUMP JUMPDEST SWAP1 DUP8 DUP3 SUB PUSH1 0x40 DUP10 ADD MSTORE PUSH2 0x3DBD JUMP JUMPDEST SWAP1 DUP6 DUP3 SUB PUSH1 0x60 DUP8 ADD MSTORE PUSH2 0x3DBD JUMP JUMPDEST SWAP1 DUP4 DUP3 SUB PUSH1 0x80 DUP6 ADD MSTORE PUSH2 0x3DBD JUMP JUMPDEST SUB SWAP1 RETURN JUMPDEST DUP12 DUP12 DUP12 DUP12 DUP11 DUP13 DUP11 PUSH1 0xFF PUSH1 0x4 PUSH2 0x3A2D DUP11 PUSH1 0x40 DUP15 DUP15 DUP8 DUP3 MSTORE DUP9 MSTORE KECCAK256 PUSH2 0x4FB6 JUMP JUMPDEST POP ADD SLOAD AND PUSH2 0x3A4B JUMPI JUMPDEST POP POP POP POP POP POP POP PUSH2 0x3A46 SWAP1 PUSH2 0x4080 JUMP JUMPDEST PUSH2 0x39A3 JUMP JUMPDEST SWAP5 PUSH2 0x3ABD SWAP7 SWAP5 PUSH2 0x3AB7 SWAP5 DUP13 SWAP8 SWAP5 DUP11 PUSH2 0x3A81 DUP2 SWAP16 DUP16 DUP16 SWAP15 PUSH2 0x3A46 SWAP16 DUP3 PUSH1 0x40 SWAP2 PUSH1 0x3 SWAP13 DUP7 SWAP15 PUSH2 0x3A7A SWAP7 MSTORE MSTORE KECCAK256 PUSH2 0x4FB6 JUMP JUMPDEST POP SWAP7 PUSH2 0x4955 JUMP JUMPDEST MSTORE PUSH2 0x3A8E DUP7 DUP6 SLOAD SWAP3 PUSH2 0x4955 JUMP JUMPDEST MSTORE PUSH2 0x3A9E DUP6 PUSH1 0x1 DUP6 ADD SLOAD SWAP3 PUSH2 0x4955 JUMP JUMPDEST MSTORE PUSH2 0x3AAE DUP5 PUSH1 0x2 DUP5 ADD SLOAD SWAP3 PUSH2 0x4955 JUMP JUMPDEST MSTORE ADD SLOAD SWAP3 PUSH2 0x4955 JUMP JUMPDEST MSTORE PUSH2 0x4080 JUMP JUMPDEST SWAP4 SWAP1 POP DUP12 DUP12 DUP12 DUP12 DUP11 DUP13 DUP11 PUSH2 0x3A36 JUMP JUMPDEST DUP2 DUP8 MSTORE DUP4 DUP4 MSTORE PUSH1 0xFF PUSH1 0x4 PUSH2 0x3AE3 DUP4 PUSH1 0x40 DUP12 KECCAK256 PUSH2 0x4FB6 JUMP JUMPDEST POP ADD SLOAD AND PUSH2 0x3AFA JUMPI JUMPDEST PUSH2 0x3AF5 SWAP1 PUSH2 0x4080 JUMP JUMPDEST PUSH2 0x3966 JUMP JUMPDEST SWAP4 PUSH2 0x3B07 PUSH2 0x3AF5 SWAP2 PUSH2 0x4080 JUMP JUMPDEST SWAP5 SWAP1 POP PUSH2 0x3AEC JUMP JUMPDEST POP CALLVALUE PUSH2 0x306 JUMPI PUSH1 0x20 CALLDATASIZE PUSH1 0x3 NOT ADD SLT PUSH2 0x306 JUMPI PUSH2 0x3B99 SWAP1 PUSH1 0x40 SWAP1 PUSH1 0x1 PUSH1 0x1 PUSH1 0xA0 SHL SUB PUSH2 0x3B38 PUSH2 0x3D51 JUMP JUMPDEST AND DUP2 MSTORE PUSH1 0x3 PUSH1 0x20 MSTORE KECCAK256 PUSH1 0xFF PUSH1 0x19 DUP3 ADD SLOAD AND PUSH2 0x3BC3 PUSH2 0x3B58 PUSH1 0x15 DUP5 ADD PUSH2 0x3F2A JUMP JUMPDEST SWAP3 PUSH2 0x3BB5 PUSH2 0x3B68 PUSH1 0x16 DUP4 ADD PUSH2 0x3F2A JUMP JUMPDEST SWAP2 PUSH2 0x3BA7 PUSH2 0x3B84 PUSH1 0x18 PUSH2 0x3B7D PUSH1 0x17 DUP6 ADD PUSH2 0x3F2A JUMP JUMPDEST SWAP4 ADD PUSH2 0x3F2A JUMP JUMPDEST SWAP4 PUSH1 0x40 MLOAD SWAP9 DUP10 SWAP9 PUSH1 0xA0 DUP11 MSTORE PUSH1 0xA0 DUP11 ADD SWAP1 PUSH2 0x3D7D JUMP JUMPDEST SWAP1 DUP9 DUP3 SUB PUSH1 0x20 DUP11 ADD MSTORE PUSH2 0x3D7D JUMP JUMPDEST SWAP1 DUP7 DUP3 SUB PUSH1 0x40 DUP9 ADD MSTORE PUSH2 0x3D7D JUMP JUMPDEST SWAP1 DUP5 DUP3 SUB PUSH1 0x60 DUP7 ADD MSTORE PUSH2 0x3D7D JUMP JUMPDEST SWAP1 ISZERO ISZERO PUSH1 0x80 DUP4 ADD MSTORE SUB SWAP1 RETURN JUMPDEST POP CALLVALUE PUSH2 0x306 JUMPI DUP1 PUSH1 0x3 NOT CALLDATASIZE ADD SLT PUSH2 0x306 JUMPI PUSH2 0x3BE8 PUSH2 0x408F JUMP JUMPDEST CALLER DUP2 MSTORE PUSH1 0x3 PUSH1 0x20 MSTORE PUSH1 0x40 DUP2 KECCAK256 SLOAD PUSH1 0xFF DUP2 AND ISZERO PUSH2 0xC68 JUMPI PUSH1 0x8 SHR PUSH1 0xFF AND PUSH2 0x3CB9 JUMPI PUSH1 0x40 MLOAD PUSH4 0x23B872DD PUSH1 0xE0 SHL DUP2 MSTORE CALLER PUSH1 0x4 DUP3 ADD MSTORE ADDRESS PUSH1 0x24 DUP3 ADD MSTORE PUSH9 0x70C1CC73B00C80000 PUSH1 0x44 DUP3 ADD MSTORE PUSH1 0x20 DUP2 PUSH1 0x64 DUP2 DUP6 PUSH32 0x0 PUSH1 0x1 PUSH1 0x1 PUSH1 0xA0 SHL SUB AND GAS CALL SWAP1 DUP2 ISZERO PUSH2 0x86F JUMPI DUP3 SWAP2 PUSH2 0x3C80 JUMPI JUMPDEST POP ISZERO PUSH2 0x87E JUMPI PUSH2 0x3783 CALLER PUSH2 0x42BA JUMP JUMPDEST SWAP1 POP PUSH1 0x20 DUP2 RETURNDATASIZE DUP3 GT PUSH2 0x3CB1 JUMPI JUMPDEST DUP2 PUSH2 0x3C9A PUSH1 0x20 SWAP4 DUP4 PUSH2 0x3F07 JUMP JUMPDEST DUP2 ADD SUB SLT PUSH2 0x87A JUMPI PUSH2 0x3CAB SWAP1 PUSH2 0x4058 JUMP JUMPDEST CODESIZE PUSH2 0x3C71 JUMP JUMPDEST RETURNDATASIZE SWAP2 POP PUSH2 0x3C8D JUMP JUMPDEST PUSH1 0x40 MLOAD PUSH4 0x7CDF3051 PUSH1 0xE1 SHL DUP2 MSTORE PUSH1 0x4 SWAP1 REVERT JUMPDEST POP CALLVALUE PUSH2 0x306 JUMPI PUSH1 0x20 CALLDATASIZE PUSH1 0x3 NOT ADD SLT PUSH2 0x306 JUMPI PUSH1 0x40 SWAP1 DUP2 SWAP1 PUSH1 0x1 PUSH1 0x1 PUSH1 0xA0 SHL SUB PUSH2 0x3CF2 PUSH2 0x3D51 JUMP JUMPDEST AND DUP2 MSTORE PUSH1 0x3 PUSH1 0x20 MSTORE KECCAK256 PUSH1 0x10 PUSH1 0xF DUP3 ADD SLOAD SWAP2 ADD SLOAD DUP3 MLOAD SWAP2 DUP3 MSTORE PUSH1 0x20 DUP3 ADD MSTORE RETURN JUMPDEST POP CALLVALUE PUSH2 0x306 JUMPI DUP1 PUSH1 0x3 NOT CALLDATASIZE ADD SLT PUSH2 0x306 JUMPI PUSH1 0x20 PUSH1 0x40 MLOAD PUSH9 0x70C1CC73B00C80000 DUP2 MSTORE RETURN JUMPDEST SWAP1 POP CALLVALUE PUSH2 0x87A JUMPI DUP2 PUSH1 0x3 NOT CALLDATASIZE ADD SLT PUSH2 0x87A JUMPI PUSH1 0x20 SWAP1 PUSH1 0x7 SLOAD DUP2 MSTORE RETURN JUMPDEST PUSH1 0x4 CALLDATALOAD SWAP1 PUSH1 0x1 PUSH1 0x1 PUSH1 0xA0 SHL SUB DUP3 AND DUP3 SUB PUSH2 0x90F JUMPI JUMP JUMPDEST PUSH1 0x24 CALLDATALOAD SWAP1 PUSH1 0x1 PUSH1 0x1 PUSH1 0xA0 SHL SUB DUP3 AND DUP3 SUB PUSH2 0x90F JUMPI JUMP JUMPDEST SWAP2 SWAP1 DUP3 MLOAD SWAP3 DUP4 DUP3 MSTORE PUSH1 0x0 JUMPDEST DUP5 DUP2 LT PUSH2 0x3DA9 JUMPI POP POP DUP3 PUSH1 0x0 PUSH1 0x20 DUP1 SWAP5 SWAP6 DUP5 ADD ADD MSTORE PUSH1 0x1F DUP1 NOT SWAP2 ADD AND ADD ADD SWAP1 JUMP JUMPDEST PUSH1 0x20 DUP2 DUP4 ADD DUP2 ADD MLOAD DUP5 DUP4 ADD DUP3 ADD MSTORE ADD PUSH2 0x3D88 JUMP JUMPDEST SWAP1 DUP2 MLOAD DUP1 DUP3 MSTORE PUSH1 0x20 DUP1 DUP1 SWAP4 ADD SWAP4 ADD SWAP2 PUSH1 0x0 JUMPDEST DUP3 DUP2 LT PUSH2 0x3DDD JUMPI POP POP POP POP SWAP1 JUMP JUMPDEST DUP4 MLOAD DUP6 MSTORE SWAP4 DUP2 ADD SWAP4 SWAP3 DUP2 ADD SWAP3 PUSH1 0x1 ADD PUSH2 0x3DCF JUMP JUMPDEST PUSH1 0x40 SWAP1 PUSH1 0x3 NOT ADD SLT PUSH2 0x90F JUMPI PUSH1 0x4 CALLDATALOAD SWAP1 PUSH1 0x24 CALLDATALOAD SWAP1 JUMP JUMPDEST CALLVALUE PUSH2 0x90F JUMPI PUSH1 0x0 CALLDATASIZE PUSH1 0x3 NOT ADD SLT PUSH2 0x90F JUMPI PUSH1 0x20 PUSH1 0x40 MLOAD PUSH1 0x1E DUP2 MSTORE RETURN JUMPDEST SWAP2 DUP2 PUSH1 0x1F DUP5 ADD SLT ISZERO PUSH2 0x90F JUMPI DUP3 CALLDATALOAD SWAP2 PUSH1 0x1 PUSH1 0x1 PUSH1 0x40 SHL SUB DUP4 GT PUSH2 0x90F JUMPI PUSH1 0x20 DUP4 DUP2 DUP7 ADD SWAP6 ADD ADD GT PUSH2 0x90F JUMPI JUMP JUMPDEST PUSH1 0x24 CALLDATALOAD SWAP1 DUP2 ISZERO ISZERO DUP3 SUB PUSH2 0x90F JUMPI JUMP JUMPDEST PUSH1 0x44 CALLDATALOAD SWAP1 DUP2 ISZERO ISZERO DUP3 SUB PUSH2 0x90F JUMPI JUMP JUMPDEST PUSH1 0x4 SLOAD DUP2 LT ISZERO PUSH2 0x3E89 JUMPI PUSH1 0x4 PUSH1 0x0 MSTORE PUSH1 0x20 PUSH1 0x0 KECCAK256 ADD SWAP1 PUSH1 0x0 SWAP1 JUMP JUMPDEST PUSH4 0x4E487B71 PUSH1 0xE0 SHL PUSH1 0x0 MSTORE PUSH1 0x32 PUSH1 0x4 MSTORE PUSH1 0x24 PUSH1 0x0 REVERT JUMPDEST SWAP1 PUSH1 0x1 DUP3 DUP2 SHR SWAP3 AND DUP1 ISZERO PUSH2 0x3ECF JUMPI JUMPDEST PUSH1 0x20 DUP4 LT EQ PUSH2 0x3EB9 JUMPI JUMP JUMPDEST PUSH4 0x4E487B71 PUSH1 0xE0 SHL PUSH1 0x0 MSTORE PUSH1 0x22 PUSH1 0x4 MSTORE PUSH1 0x24 PUSH1 0x0 REVERT JUMPDEST SWAP2 PUSH1 0x7F AND SWAP2 PUSH2 0x3EAE JUMP JUMPDEST PUSH1 0xA0 DUP2 ADD SWAP1 DUP2 LT PUSH1 0x1 PUSH1 0x1 PUSH1 0x40 SHL SUB DUP3 GT OR PUSH2 0x19FC JUMPI PUSH1 0x40 MSTORE JUMP JUMPDEST PUSH1 0x1 PUSH1 0x1 PUSH1 0x40 SHL SUB DUP2 GT PUSH2 0x19FC JUMPI PUSH1 0x40 MSTORE JUMP JUMPDEST PUSH1 0x1F SWAP1 SWAP2 ADD PUSH1 0x1F NOT AND DUP2 ADD SWAP1 PUSH1 0x1 PUSH1 0x1 PUSH1 0x40 SHL SUB DUP3 GT SWAP1 DUP3 LT OR PUSH2 0x19FC JUMPI PUSH1 0x40 MSTORE JUMP JUMPDEST SWAP1 PUSH1 0x40 MLOAD SWAP2 DUP3 PUSH1 0x0 DUP3 SLOAD SWAP3 PUSH2 0x3F3E DUP5 PUSH2 0x3E9F JUMP JUMPDEST SWAP1 DUP2 DUP5 MSTORE PUSH1 0x1 SWAP5 DUP6 DUP2 AND SWAP1 DUP2 PUSH1 0x0 EQ PUSH2 0x3FAD JUMPI POP PUSH1 0x1 EQ PUSH2 0x3F6A JUMPI JUMPDEST POP POP PUSH2 0x3F68 SWAP3 POP SUB DUP4 PUSH2 0x3F07 JUMP JUMPDEST JUMP JUMPDEST SWAP1 SWAP4 SWAP2 POP PUSH1 0x0 MSTORE PUSH1 0x20 SWAP1 DUP2 PUSH1 0x0 KECCAK256 SWAP4 PUSH1 0x0 SWAP2 JUMPDEST DUP2 DUP4 LT PUSH2 0x3F95 JUMPI POP POP PUSH2 0x3F68 SWAP4 POP DUP3 ADD ADD CODESIZE DUP1 PUSH2 0x3F5A JUMP JUMPDEST DUP6 SLOAD DUP9 DUP5 ADD DUP6 ADD MSTORE SWAP5 DUP6 ADD SWAP5 DUP8 SWAP5 POP SWAP2 DUP4 ADD SWAP2 PUSH2 0x3F7D JUMP JUMPDEST SWAP2 POP POP PUSH2 0x3F68 SWAP5 POP PUSH1 0x20 SWAP3 POP PUSH1 0xFF NOT AND DUP3 DUP5 ADD MSTORE ISZERO ISZERO PUSH1 0x5 SHL DUP3 ADD ADD CODESIZE DUP1 PUSH2 0x3F5A JUMP JUMPDEST PUSH1 0x0 SLOAD PUSH1 0x1 PUSH1 0x1 PUSH1 0xA0 SHL SUB AND CALLER SUB PUSH2 0x3FE4 JUMPI JUMP JUMPDEST PUSH1 0x40 MLOAD PUSH4 0x118CDAA7 PUSH1 0xE0 SHL DUP2 MSTORE CALLER PUSH1 0x4 DUP3 ADD MSTORE PUSH1 0x24 SWAP1 REVERT JUMPDEST ISZERO PUSH2 0x4003 JUMPI JUMP JUMPDEST PUSH1 0x40 MLOAD PUSH3 0x461BCD PUSH1 0xE5 SHL DUP2 MSTORE PUSH1 0x20 PUSH1 0x4 DUP3 ADD MSTORE PUSH1 0xA PUSH1 0x24 DUP3 ADD MSTORE PUSH10 0x4E6F7420616374697665 PUSH1 0xB0 SHL PUSH1 0x44 DUP3 ADD MSTORE PUSH1 0x64 SWAP1 REVERT JUMPDEST SWAP2 SWAP1 DUP3 SUB SWAP2 DUP3 GT PUSH2 0x4042 JUMPI JUMP JUMPDEST PUSH4 0x4E487B71 PUSH1 0xE0 SHL PUSH1 0x0 MSTORE PUSH1 0x11 PUSH1 0x4 MSTORE PUSH1 0x24 PUSH1 0x0 REVERT JUMPDEST MLOAD SWAP1 DUP2 ISZERO ISZERO DUP3 SUB PUSH2 0x90F JUMPI JUMP JUMPDEST PUSH1 0x1 PUSH1 0x1 PUSH1 0xA0 SHL SUB SWAP1 SWAP2 AND DUP2 MSTORE PUSH1 0x20 DUP2 ADD SWAP2 SWAP1 SWAP2 MSTORE PUSH1 0x40 ADD SWAP1 JUMP JUMPDEST PUSH1 0x0 NOT DUP2 EQ PUSH2 0x4042 JUMPI PUSH1 0x1 ADD SWAP1 JUMP JUMPDEST PUSH1 0x0 DUP1 MLOAD PUSH1 0x20 PUSH2 0x52C0 DUP4 CODECOPY DUP2 MLOAD SWAP2 MSTORE PUSH1 0x2 DUP2 SLOAD EQ PUSH2 0x40AD JUMPI PUSH1 0x2 SWAP1 SSTORE JUMP JUMPDEST PUSH1 0x40 MLOAD PUSH4 0x3EE5AEB5 PUSH1 0xE0 SHL DUP2 MSTORE PUSH1 0x4 SWAP1 REVERT JUMPDEST ISZERO PUSH2 0x40C6 JUMPI JUMP JUMPDEST PUSH1 0x40 MLOAD PUSH3 0x461BCD PUSH1 0xE5 SHL DUP2 MSTORE PUSH1 0x20 PUSH1 0x4 DUP3 ADD MSTORE PUSH1 0x2 PUSH1 0x24 DUP3 ADD MSTORE PUSH2 0x5A41 PUSH1 0xF0 SHL PUSH1 0x44 DUP3 ADD MSTORE PUSH1 0x64 SWAP1 REVERT JUMPDEST SWAP2 SWAP1 DUP3 ADD DUP1 SWAP3 GT PUSH2 0x4042 JUMPI JUMP JUMPDEST PUSH1 0x1 PUSH1 0x1 PUSH1 0xA0 SHL SUB SWAP1 DUP2 AND PUSH1 0x0 DUP2 DUP2 MSTORE PUSH1 0x3 PUSH1 0x20 MSTORE PUSH1 0x40 SWAP1 KECCAK256 DUP1 SLOAD PUSH2 0xFF01 PUSH1 0x1 PUSH1 0xB0 SHL SUB NOT AND PUSH1 0x10 SWAP5 SWAP1 SWAP5 SHL PUSH3 0x10000 PUSH1 0x1 PUSH1 0xB0 SHL SUB AND SWAP4 SWAP1 SWAP4 OR PUSH1 0x1 OR DUP4 SSTORE PUSH1 0x2 DUP4 ADD DUP1 SLOAD PUSH1 0x1 PUSH1 0x1 PUSH1 0xA8 SHL SUB NOT AND SWAP5 DUP4 AND SWAP5 SWAP1 SWAP5 OR SWAP5 ISZERO ISZERO PUSH1 0xA0 SHL PUSH1 0xFF PUSH1 0xA0 SHL AND SWAP5 SWAP1 SWAP5 OR SWAP1 SWAP3 SSTORE PUSH1 0x12 DUP2 ADD DUP1 SLOAD PUSH1 0x1 PUSH1 0x1 PUSH1 0xA0 SHL SUB NOT AND SWAP1 SSTORE TIMESTAMP PUSH1 0x14 SWAP1 SWAP2 ADD SSTORE PUSH1 0x4 SLOAD SWAP1 SWAP2 SWAP1 PUSH1 0x1 PUSH1 0x40 SHL DUP2 LT ISZERO PUSH2 0x19FC JUMPI DUP1 PUSH1 0x1 PUSH2 0x41A2 SWAP3 ADD PUSH1 0x4 SSTORE PUSH2 0x3E6E JUMP JUMPDEST SWAP1 SWAP3 DUP4 SLOAD SWAP2 PUSH1 0x3 SHL SWAP3 DUP4 SHL SWAP3 SHL NOT AND OR SWAP1 SSTORE PUSH2 0x41BF PUSH1 0x5 SLOAD PUSH2 0x4080 JUMP JUMPDEST PUSH1 0x5 SSTORE JUMP JUMPDEST PUSH1 0x1 DUP1 PUSH1 0xA0 SHL SUB SWAP2 DUP3 PUSH1 0x0 SWAP3 AND DUP3 MSTORE PUSH1 0x3 SWAP2 PUSH1 0x20 SWAP3 DUP1 DUP5 MSTORE PUSH1 0x2 SWAP2 PUSH1 0x40 SWAP2 DUP4 DUP4 DUP4 KECCAK256 ADD SLOAD SWAP6 DUP8 DUP8 AND SWAP6 PUSH1 0xFF SWAP7 DUP10 DUP9 PUSH1 0xA0 SWAP11 DUP12 SHR AND SWAP2 JUMPDEST AND SWAP1 DUP2 ISZERO PUSH2 0x4256 JUMPI ISZERO PUSH2 0x4239 JUMPI DUP1 DUP6 MSTORE DUP4 DUP4 MSTORE PUSH1 0x5 DUP7 DUP7 KECCAK256 ADD PUSH2 0x421D DUP2 SLOAD PUSH2 0x4080 JUMP JUMPDEST SWAP1 SSTORE JUMPDEST DUP5 MSTORE DUP3 DUP3 MSTORE DUP6 DUP6 DUP6 KECCAK256 ADD SLOAD DUP10 DUP1 DUP10 DUP4 DUP13 SHR AND SWAP3 AND PUSH2 0x41FA JUMP JUMPDEST DUP1 DUP6 MSTORE DUP4 DUP4 MSTORE PUSH1 0x6 DUP7 DUP7 KECCAK256 ADD PUSH2 0x424F DUP2 SLOAD PUSH2 0x4080 JUMP JUMPDEST SWAP1 SSTORE PUSH2 0x4220 JUMP JUMPDEST POP POP SWAP8 POP POP POP POP POP POP POP POP JUMP JUMPDEST DUP2 DUP2 MUL SWAP3 SWAP2 DUP2 ISZERO SWAP2 DUP5 DIV EQ OR ISZERO PUSH2 0x4042 JUMPI JUMP JUMPDEST DUP2 ISZERO PUSH2 0x4280 JUMPI DIV SWAP1 JUMP JUMPDEST PUSH4 0x4E487B71 PUSH1 0xE0 SHL PUSH1 0x0 MSTORE PUSH1 0x12 PUSH1 0x4 MSTORE PUSH1 0x24 PUSH1 0x0 REVERT JUMPDEST SWAP2 SWAP3 PUSH1 0x80 SWAP4 SWAP7 SWAP6 SWAP5 SWAP2 SWAP7 PUSH1 0xA0 DUP5 ADD SWAP8 DUP5 MSTORE PUSH1 0x20 DUP5 ADD MSTORE PUSH1 0x40 DUP4 ADD MSTORE PUSH1 0x60 DUP3 ADD MSTORE ADD MSTORE JUMP JUMPDEST PUSH1 0x1 DUP1 SLOAD PUSH1 0x40 DUP1 MLOAD PUSH3 0x3144BD PUSH1 0xE3 SHL DUP2 MSTORE PUSH1 0x4 SWAP6 PUSH1 0x1 PUSH1 0x1 PUSH1 0xA0 SHL SUB SWAP4 DUP5 AND SWAP6 SWAP1 SWAP5 SWAP3 SWAP2 PUSH1 0x20 SWAP1 PUSH1 0x0 SWAP1 DUP3 DUP2 DUP12 DUP2 DUP13 GAS STATICCALL SWAP1 DUP2 ISZERO PUSH2 0x47AC JUMPI DUP3 SWAP2 PUSH2 0x477F JUMPI JUMPDEST POP DUP1 ISZERO PUSH2 0x476C JUMPI PUSH12 0x30E68B6D6E0ACC828633631 PUSH1 0x25 SHL DIV SWAP8 DUP5 MLOAD SWAP1 PUSH4 0x95EA7B3 PUSH1 0xE0 SHL DUP3 MSTORE DUP11 DUP3 ADD MSTORE PUSH9 0x70C1CC73B00C80000 SWAP1 DUP2 PUSH1 0x24 DUP3 ADD MSTORE DUP4 DUP2 PUSH1 0x44 DUP2 DUP7 DUP13 PUSH32 0x0 AND GAS CALL DUP1 ISZERO PUSH2 0x46D8 JUMPI PUSH2 0x4738 JUMPI JUMPDEST POP DUP7 DUP7 SLOAD AND DUP6 MLOAD SWAP1 PUSH4 0x70A08231 PUSH1 0xE0 SHL SWAP3 DUP4 DUP4 MSTORE ADDRESS DUP14 DUP5 ADD MSTORE DUP6 DUP4 PUSH1 0x24 DUP2 DUP6 GAS STATICCALL SWAP3 DUP4 ISZERO PUSH2 0x472E JUMPI DUP6 SWAP4 PUSH2 0x46FF JUMPI JUMPDEST POP DUP2 EXTCODESIZE ISZERO PUSH2 0x8BE JUMPI DUP5 SWAP1 PUSH1 0x44 DUP15 DUP4 DUP12 MLOAD SWAP6 DUP7 SWAP5 DUP6 SWAP4 PUSH4 0x4E538D93 PUSH1 0xE1 SHL DUP6 MSTORE ADDRESS SWAP1 DUP6 ADD MSTORE PUSH1 0x24 DUP5 ADD MSTORE GAS CALL DUP1 ISZERO PUSH2 0x46F5 JUMPI PUSH2 0x46E2 JUMPI JUMPDEST POP DUP4 DUP12 PUSH1 0x24 DUP11 DUP11 SLOAD AND SWAP5 DUP10 MLOAD SWAP6 DUP7 SWAP4 DUP5 SWAP3 DUP4 MSTORE ADDRESS SWAP1 DUP4 ADD MSTORE GAS STATICCALL DUP1 ISZERO PUSH2 0x46D8 JUMPI DUP4 SWAP1 PUSH2 0x46A9 JUMPI JUMPDEST PUSH2 0x4400 SWAP3 POP PUSH2 0x4035 JUMP JUMPDEST SWAP5 PUSH1 0x1E DUP10 MUL DUP10 DUP2 DIV PUSH1 0x1E EQ DUP11 ISZERO OR ISZERO PUSH2 0x4696 JUMPI PUSH1 0x64 SWAP1 DIV SWAP10 POP SWAP7 SWAP8 SWAP6 SWAP7 DUP1 DUP9 DUP12 DUP1 PUSH2 0x442B DUP2 DUP13 PUSH2 0x4035 JUMP JUMPDEST SWAP1 PUSH2 0x4435 SWAP2 PUSH2 0x4035 JUMP JUMPDEST SWAP1 PUSH2 0x443F SWAP2 PUSH2 0x4035 JUMP JUMPDEST DUP13 PUSH1 0x6 SLOAD SWAP1 PUSH2 0x444D SWAP2 PUSH2 0x40F0 JUMP JUMPDEST PUSH1 0x6 SSTORE PUSH2 0x445A SWAP1 DUP14 PUSH2 0x40F0 JUMP JUMPDEST SWAP6 PUSH1 0x8 SWAP7 DUP8 SLOAD SWAP1 PUSH2 0x446A SWAP2 PUSH2 0x40F0 JUMP JUMPDEST DUP8 SSTORE AND SWAP9 DUP10 DUP5 MSTORE PUSH1 0x3 SWAP4 DUP5 DUP7 MSTORE DUP8 DUP2 KECCAK256 SWAP1 PUSH2 0xFF00 NOT DUP3 SLOAD AND PUSH2 0x100 OR SWAP2 DUP3 DUP2 SSTORE PUSH1 0xB ADD PUSH9 0x15245655B102580000 SWAP1 SSTORE DUP3 PUSH1 0x10 SWAP3 DUP4 SHR AND SWAP6 DUP2 SWAP8 DUP6 SWAP7 JUMPDEST PUSH2 0x4515 JUMPI JUMPDEST POP POP POP POP POP POP POP POP SWAP7 DUP1 PUSH2 0x44F3 SWAP4 DUP2 SWAP4 DUP11 PUSH32 0x8AF2C013A5A55C6D3AD5423522FE76C6F2EB831B5E23318276B3C678CB457FC9 SWAP10 SWAP11 SWAP12 DUP5 GT PUSH2 0x44F8 JUMPI JUMPDEST POP POP MLOAD SWAP6 DUP7 SWAP6 DUP7 PUSH2 0x4296 JUMP JUMPDEST SUB SWAP1 LOG2 JUMP JUMPDEST PUSH2 0x4505 PUSH2 0x450C SWAP2 DUP6 PUSH2 0x4035 JUMP JUMPDEST DUP3 SLOAD PUSH2 0x40F0 JUMP JUMPDEST SWAP1 SSTORE CODESIZE DUP1 PUSH2 0x44E7 JUMP JUMPDEST SWAP1 SWAP2 SWAP3 SWAP4 SWAP5 SWAP6 SWAP7 SWAP8 PUSH1 0xFF SWAP1 PUSH1 0xA DUP3 DUP11 AND GT ISZERO DUP1 PUSH2 0x468B JUMPI JUMPDEST ISZERO PUSH2 0x4684 JUMPI DUP11 SWAP2 DUP16 SWAP2 DUP16 PUSH2 0x4543 DUP16 SWAP2 DUP14 SWAP1 PUSH2 0x47DC JUMP JUMPDEST SWAP2 DUP3 ISZERO PUSH2 0x4663 JUMPI SWAP1 DUP11 PUSH2 0x4557 DUP5 DUP16 SWAP5 PUSH2 0x40F0 JUMP JUMPDEST SWAP15 AND SWAP6 DUP7 SWAP5 DUP6 DUP12 MSTORE DUP10 DUP10 MSTORE DUP14 DUP4 DUP13 KECCAK256 SWAP2 DUP3 SLOAD DUP5 SHR AND SWAP2 DUP3 PUSH2 0x464D JUMPI JUMPDEST POP POP ISZERO PUSH2 0x4603 JUMPI PUSH32 0xB16479BDAC5B7099D9236D6FC6BE3B30FF54188F4FD961686E1E1DC7ECB88037 SWAP4 SWAP3 SWAP2 PUSH2 0x45DC SWAP2 DUP7 DUP13 MSTORE DUP11 DUP11 MSTORE DUP2 DUP13 KECCAK256 ADD PUSH2 0x45B7 DUP6 DUP3 SLOAD PUSH2 0x40F0 JUMP JUMPDEST SWAP1 SSTORE DUP6 DUP12 MSTORE DUP10 DUP10 MSTORE PUSH1 0x9 DUP2 DUP13 KECCAK256 ADD PUSH2 0x45D0 DUP6 DUP3 SLOAD PUSH2 0x40F0 JUMP JUMPDEST SWAP1 SSTORE MLOAD SWAP3 DUP4 SWAP3 DUP4 PUSH2 0x47C7 JUMP JUMPDEST SUB SWAP1 LOG3 JUMPDEST DUP4 MSTORE DUP2 DUP2 MSTORE DUP6 PUSH2 0x45F7 DUP7 DUP13 DUP7 KECCAK256 SLOAD DUP8 SHR AND SWAP9 PUSH2 0x47B6 JUMP JUMPDEST SWAP7 SWAP6 SWAP5 SWAP4 SWAP3 SWAP2 SWAP1 PUSH2 0x44A6 JUMP JUMPDEST PUSH32 0x117CA0CD821ECB7EADFEA2D6927A67853908BDC351A386235215F5AB6071BFED SWAP5 SWAP6 POP DUP4 SWAP3 POP PUSH2 0x4638 PUSH2 0x4645 SWAP5 DUP3 SLOAD PUSH2 0x40F0 JUMP JUMPDEST SWAP1 SSTORE MLOAD SWAP2 DUP3 SWAP2 DUP14 DUP4 PUSH2 0x47C7 JUMP JUMPDEST SUB SWAP1 LOG2 PUSH2 0x45E0 JUMP JUMPDEST ADD SLOAD SWAP1 POP PUSH2 0x465A DUP5 PUSH2 0x4928 JUMP JUMPDEST GT ISZERO DUP14 CODESIZE PUSH2 0x4573 JUMP JUMPDEST SWAP13 SWAP4 POP POP POP POP DUP7 SWAP2 POP AND DUP4 MSTORE DUP2 DUP2 MSTORE DUP6 PUSH2 0x45F7 DUP7 DUP13 DUP7 KECCAK256 SLOAD DUP8 SHR AND SWAP9 PUSH2 0x47B6 JUMP JUMPDEST SWAP9 POP PUSH2 0x44AB JUMP JUMPDEST POP DUP7 DUP11 AND ISZERO ISZERO PUSH2 0x452D JUMP JUMPDEST PUSH4 0x4E487B71 PUSH1 0xE0 SHL DUP4 MSTORE PUSH1 0x11 DUP12 MSTORE PUSH1 0x24 DUP4 REVERT JUMPDEST POP DUP4 DUP3 DUP2 RETURNDATASIZE DUP4 GT PUSH2 0x46D1 JUMPI JUMPDEST PUSH2 0x46BF DUP2 DUP4 PUSH2 0x3F07 JUMP JUMPDEST DUP2 ADD SUB SLT PUSH2 0x90F JUMPI PUSH2 0x4400 SWAP2 MLOAD PUSH2 0x43F6 JUMP JUMPDEST POP RETURNDATASIZE PUSH2 0x46B5 JUMP JUMPDEST DUP7 MLOAD RETURNDATASIZE DUP6 DUP3 RETURNDATACOPY RETURNDATASIZE SWAP1 REVERT JUMPDEST PUSH2 0x46EE SWAP1 SWAP4 SWAP2 SWAP4 PUSH2 0x3EF4 JUMP JUMPDEST SWAP2 CODESIZE PUSH2 0x43CF JUMP JUMPDEST DUP8 MLOAD RETURNDATASIZE DUP7 DUP3 RETURNDATACOPY RETURNDATASIZE SWAP1 REVERT JUMPDEST SWAP1 SWAP3 POP DUP6 DUP2 DUP2 RETURNDATASIZE DUP4 GT PUSH2 0x4727 JUMPI JUMPDEST PUSH2 0x4717 DUP2 DUP4 PUSH2 0x3F07 JUMP JUMPDEST DUP2 ADD SUB SLT PUSH2 0x8BE JUMPI MLOAD SWAP2 CODESIZE PUSH2 0x4399 JUMP JUMPDEST POP RETURNDATASIZE PUSH2 0x470D JUMP JUMPDEST DUP9 MLOAD RETURNDATASIZE DUP8 DUP3 RETURNDATACOPY RETURNDATASIZE SWAP1 REVERT JUMPDEST DUP4 DUP2 DUP2 RETURNDATASIZE DUP4 GT PUSH2 0x4765 JUMPI JUMPDEST PUSH2 0x474D DUP2 DUP4 PUSH2 0x3F07 JUMP JUMPDEST DUP2 ADD SUB SLT PUSH2 0x86B JUMPI PUSH2 0x475E SWAP1 PUSH2 0x4058 JUMP JUMPDEST POP CODESIZE PUSH2 0x436A JUMP JUMPDEST POP RETURNDATASIZE PUSH2 0x4743 JUMP JUMPDEST PUSH4 0x4E487B71 PUSH1 0xE0 SHL DUP3 MSTORE PUSH1 0x12 DUP11 MSTORE PUSH1 0x24 DUP3 REVERT JUMPDEST SWAP1 POP DUP3 DUP2 DUP2 RETURNDATASIZE DUP4 GT PUSH2 0x47A5 JUMPI JUMPDEST PUSH2 0x4796 DUP2 DUP4 PUSH2 0x3F07 JUMP JUMPDEST DUP2 ADD SUB SLT PUSH2 0x87A JUMPI MLOAD CODESIZE PUSH2 0x42F9 JUMP JUMPDEST POP RETURNDATASIZE PUSH2 0x478C JUMP JUMPDEST DUP6 MLOAD RETURNDATASIZE DUP5 DUP3 RETURNDATACOPY RETURNDATASIZE SWAP1 REVERT JUMPDEST PUSH1 0xFF AND PUSH1 0xFF DUP2 EQ PUSH2 0x4042 JUMPI PUSH1 0x1 ADD SWAP1 JUMP JUMPDEST PUSH1 0x20 SWAP1 SWAP4 SWAP3 SWAP2 SWAP4 PUSH1 0xFF PUSH1 0x40 DUP3 ADD SWAP6 AND DUP2 MSTORE ADD MSTORE JUMP JUMPDEST SWAP1 PUSH1 0xFF AND PUSH1 0x1 DUP2 EQ PUSH2 0x490D JUMPI PUSH1 0x2 DUP2 EQ PUSH2 0x48F2 JUMPI PUSH1 0x3 DUP2 EQ PUSH2 0x48D7 JUMPI PUSH1 0x4 SWAP1 DUP2 DUP2 EQ PUSH2 0x48C0 JUMPI PUSH1 0x5 DUP2 EQ PUSH2 0x48A3 JUMPI PUSH1 0x6 DUP2 EQ PUSH2 0x48A3 JUMPI PUSH1 0x7 DUP2 EQ PUSH2 0x4886 JUMPI PUSH1 0x8 DUP2 EQ PUSH2 0x4886 JUMPI PUSH1 0x9 DUP2 EQ PUSH2 0x4869 JUMPI PUSH1 0xA EQ PUSH2 0x4838 JUMPI POP POP PUSH1 0x0 SWAP1 JUMP JUMPDEST DUP2 PUSH1 0x1 SHL SWAP2 DUP1 DUP4 DIV PUSH1 0x2 EQ SWAP1 ISZERO OR ISZERO PUSH2 0x4854 JUMPI POP PUSH2 0x3E8 SWAP1 DIV SWAP1 JUMP JUMPDEST PUSH1 0x11 SWAP1 PUSH4 0x4E487B71 PUSH1 0xE0 SHL PUSH1 0x0 MSTORE MSTORE PUSH1 0x24 PUSH1 0x0 REVERT JUMPDEST POP DUP2 PUSH1 0x1 SHL SWAP2 DUP1 DUP4 DIV PUSH1 0x2 EQ SWAP1 ISZERO OR ISZERO PUSH2 0x4854 JUMPI POP PUSH2 0x3E8 SWAP1 DIV SWAP1 JUMP JUMPDEST POP PUSH1 0x3 DUP3 MUL SWAP2 DUP1 DUP4 DIV PUSH1 0x3 EQ SWAP1 ISZERO OR ISZERO PUSH2 0x4854 JUMPI POP PUSH2 0x3E8 SWAP1 DIV SWAP1 JUMP JUMPDEST POP PUSH1 0x5 DUP3 MUL SWAP2 DUP1 DUP4 DIV PUSH1 0x5 EQ SWAP1 ISZERO OR ISZERO PUSH2 0x4854 JUMPI POP PUSH2 0x3E8 SWAP1 DIV SWAP1 JUMP JUMPDEST POP DUP2 DUP1 DIV PUSH1 0x1 EQ DUP3 ISZERO OR ISZERO PUSH2 0x4854 JUMPI POP PUSH1 0x64 SWAP1 DIV SWAP1 JUMP JUMPDEST POP DUP1 PUSH1 0x1 SHL SWAP1 DUP1 DUP3 DIV PUSH1 0x2 EQ SWAP1 ISZERO OR ISZERO PUSH2 0x4042 JUMPI PUSH1 0x64 SWAP1 DIV SWAP1 JUMP JUMPDEST POP PUSH1 0x5 DUP2 MUL SWAP1 DUP1 DUP3 DIV PUSH1 0x5 EQ SWAP1 ISZERO OR ISZERO PUSH2 0x4042 JUMPI PUSH1 0x64 SWAP1 DIV SWAP1 JUMP JUMPDEST POP PUSH1 0x14 DUP2 MUL SWAP1 DUP1 DUP3 DIV PUSH1 0x14 EQ SWAP1 ISZERO OR ISZERO PUSH2 0x4042 JUMPI PUSH1 0x64 SWAP1 DIV SWAP1 JUMP JUMPDEST PUSH1 0xFF PUSH1 0x4 SWAP2 AND GT ISZERO PUSH2 0x4939 JUMPI PUSH1 0x5 SWAP1 JUMP JUMPDEST PUSH1 0x2 SWAP1 JUMP JUMPDEST PUSH1 0x1 PUSH1 0x1 PUSH1 0x40 SHL SUB DUP2 GT PUSH2 0x19FC JUMPI PUSH1 0x5 SHL PUSH1 0x20 ADD SWAP1 JUMP JUMPDEST DUP1 MLOAD DUP3 LT ISZERO PUSH2 0x3E89 JUMPI PUSH1 0x20 SWAP2 PUSH1 0x5 SHL ADD ADD SWAP1 JUMP JUMPDEST DUP2 DUP1 PUSH2 0x4B80 JUMPI JUMPDEST PUSH2 0x4B79 JUMPI DUP2 ISZERO SWAP2 DUP3 DUP1 PUSH2 0x4B54 JUMPI JUMPDEST PUSH2 0x4B4C JUMPI PUSH1 0x5 SLOAD SWAP3 PUSH1 0x1 DUP1 DUP6 ADD DUP1 SWAP6 GT PUSH2 0x4042 JUMPI PUSH2 0x499B DUP6 PUSH2 0x493E JUMP JUMPDEST SWAP1 PUSH2 0x49B6 PUSH1 0x40 SWAP7 PUSH2 0x49AE DUP9 MLOAD SWAP5 DUP6 PUSH2 0x3F07 JUMP JUMPDEST DUP1 DUP5 MSTORE PUSH2 0x493E JUMP JUMPDEST SWAP3 PUSH1 0x20 SWAP3 DUP4 DUP2 ADD SWAP5 PUSH1 0x1F NOT ADD CALLDATASIZE DUP7 CALLDATACOPY PUSH1 0x0 DUP1 DUP8 ISZERO PUSH2 0x4B2D JUMPI PUSH1 0x1 PUSH1 0x1 PUSH1 0xA0 SHL SUB DUP10 DUP2 AND DUP4 MSTORE PUSH1 0x3 DUP1 DUP9 MSTORE DUP12 DUP5 KECCAK256 ADD SLOAD AND SWAP7 JUMPDEST PUSH1 0x1 PUSH1 0x1 PUSH1 0xA0 SHL SUB SWAP8 DUP9 AND DUP1 PUSH2 0x4B19 JUMPI JUMPDEST POP POP JUMPDEST DUP2 DUP2 LT PUSH2 0x4A77 JUMPI POP POP POP DUP1 PUSH2 0x4A5C JUMPI JUMPDEST PUSH2 0x4A52 JUMPI POP DUP3 PUSH2 0x4A35 JUMPI JUMPDEST POP POP PUSH2 0x4A2E JUMPI DUP2 MLOAD PUSH4 0xC5BB5BCD PUSH1 0xE0 SHL DUP2 MSTORE PUSH1 0x4 SWAP1 REVERT JUMPDEST SWAP2 PUSH1 0x0 SWAP2 POP JUMP JUMPDEST DUP2 PUSH1 0x3 SWAP3 SWAP4 POP DUP5 AND PUSH1 0x0 MSTORE MSTORE PUSH1 0x4 DUP4 PUSH1 0x0 KECCAK256 ADD SLOAD AND ISZERO CODESIZE DUP1 PUSH2 0x4A17 JUMP JUMPDEST SWAP6 SWAP5 POP POP POP POP SWAP2 SWAP1 JUMP JUMPDEST POP DUP3 DUP6 AND PUSH1 0x0 MSTORE PUSH1 0x3 DUP3 MSTORE DUP3 PUSH1 0x3 DUP8 PUSH1 0x0 KECCAK256 ADD SLOAD AND ISZERO PUSH2 0x4A0C JUMP JUMPDEST DUP7 PUSH2 0x4A8B PUSH2 0x4A84 DUP4 PUSH2 0x4080 JUMP JUMPDEST SWAP3 DUP6 PUSH2 0x4955 JUMP JUMPDEST MLOAD AND DUP1 PUSH1 0x0 MSTORE PUSH1 0x3 DUP1 DUP9 MSTORE DUP12 PUSH1 0x0 KECCAK256 SWAP2 DUP10 DUP3 DUP5 ADD SLOAD AND DUP1 ISZERO PUSH2 0x4B06 JUMPI DUP11 PUSH1 0x4 DUP1 SWAP6 ADD SLOAD AND ISZERO PUSH2 0x4AF2 JUMPI SWAP1 DUP11 SWAP4 SWAP3 SWAP2 PUSH2 0x4ACC PUSH2 0x4AC5 DUP9 PUSH2 0x4080 JUMP JUMPDEST SWAP8 DUP10 PUSH2 0x4955 JUMP JUMPDEST MSTORE PUSH1 0x0 MSTORE DUP9 MSTORE DUP12 PUSH1 0x0 KECCAK256 ADD SLOAD AND PUSH2 0x4AEC PUSH2 0x4AE5 DUP5 PUSH2 0x4080 JUMP JUMPDEST SWAP4 DUP6 PUSH2 0x4955 JUMP JUMPDEST MSTORE PUSH2 0x49FC JUMP JUMPDEST POP SWAP12 POP POP POP POP POP POP POP POP POP POP POP POP SWAP1 PUSH1 0x0 SWAP1 JUMP JUMPDEST POP SWAP11 POP POP POP POP POP POP POP SWAP6 SWAP5 POP POP POP POP SWAP2 SWAP1 JUMP JUMPDEST SWAP1 SWAP3 POP DUP6 SWAP3 DUP5 MLOAD ISZERO PUSH2 0x3E89 JUMPI MSTORE CODESIZE DUP1 PUSH2 0x49F9 JUMP JUMPDEST PUSH1 0x1 PUSH1 0x1 PUSH1 0xA0 SHL SUB DUP10 DUP2 AND DUP4 MSTORE PUSH1 0x3 DUP8 MSTORE DUP11 DUP4 KECCAK256 PUSH1 0x4 ADD SLOAD AND SWAP7 PUSH2 0x49E8 JUMP JUMPDEST POP SWAP2 PUSH1 0x0 SWAP2 POP JUMP JUMPDEST POP PUSH1 0x1 PUSH1 0x1 PUSH1 0xA0 SHL SUB DUP3 DUP2 AND PUSH1 0x0 SWAP1 DUP2 MSTORE PUSH1 0x3 PUSH1 0x20 MSTORE PUSH1 0x40 SWAP1 KECCAK256 PUSH1 0x4 ADD SLOAD AND ISZERO PUSH2 0x497E JUMP JUMPDEST SWAP2 PUSH1 0x1 SWAP2 POP JUMP JUMPDEST POP PUSH1 0x1 DUP1 PUSH1 0xA0 SHL SUB DUP1 DUP3 AND PUSH1 0x0 MSTORE PUSH1 0x3 PUSH1 0x20 MSTORE PUSH1 0x3 PUSH1 0x40 PUSH1 0x0 KECCAK256 ADD SLOAD AND ISZERO PUSH2 0x4970 JUMP JUMPDEST SWAP1 SWAP5 SWAP4 SWAP3 PUSH1 0x60 SWAP3 PUSH1 0x80 DUP4 ADD SWAP7 DUP4 MSTORE PUSH1 0x20 DUP4 ADD MSTORE PUSH1 0x40 DUP3 ADD MSTORE ADD MSTORE JUMP JUMPDEST SWAP2 SWAP1 PUSH1 0xFF SWAP1 PUSH1 0xA SWAP4 DUP3 DUP6 SLOAD AND PUSH2 0x4F14 JUMPI PUSH1 0x6 SWAP5 DUP6 SLOAD SWAP3 DUP4 ISZERO PUSH2 0x4EDB JUMPI PUSH1 0x0 SWAP7 DUP8 DUP2 SSTORE PUSH1 0x46 DUP6 MUL DUP6 DUP2 DIV PUSH1 0x46 SUB PUSH2 0x4EC7 JUMPI PUSH1 0x64 SWAP1 DIV SWAP6 PUSH2 0x4BFE DUP8 DUP8 PUSH2 0x4035 JUMP JUMPDEST SWAP9 PUSH2 0x4C0E PUSH1 0x9 SWAP5 DUP12 DUP7 SSTORE DUP8 PUSH2 0x40F0 JUMP JUMPDEST SWAP3 PUSH1 0x4 SWAP2 DUP3 SLOAD DUP1 DUP7 GT PUSH2 0x4EBF JUMPI JUMPDEST POP DUP1 SWAP8 DUP1 JUMPDEST DUP7 DUP2 LT PUSH2 0x4E2B JUMPI POP DUP9 ISZERO PUSH2 0x4DDC JUMPI JUMPDEST DUP6 DUP2 LT PUSH2 0x4C70 JUMPI POP POP POP POP POP POP POP SWAP1 PUSH1 0x0 DUP1 MLOAD PUSH1 0x20 PUSH2 0x52A0 DUP4 CODECOPY DUP2 MLOAD SWAP2 MSTORE SWAP5 SWAP6 PUSH2 0x4C6B SWAP3 PUSH1 0x1 PUSH1 0xFF NOT DUP3 SLOAD AND OR SWAP1 SSTORE PUSH1 0x40 MLOAD SWAP5 DUP6 SWAP5 DUP6 PUSH2 0x4BA3 JUMP JUMPDEST SUB SWAP1 LOG1 JUMP JUMPDEST DUP5 DUP9 DUP13 PUSH2 0x4C7C DUP5 PUSH2 0x3E6E JUMP JUMPDEST SWAP4 SWAP1 SLOAD SWAP4 PUSH1 0x3 SWAP5 PUSH1 0x1 DUP1 PUSH1 0xA0 SHL SUB SWAP2 DUP7 SHL SHR AND SWAP4 DUP5 DUP8 MSTORE DUP14 DUP13 PUSH1 0x20 SWAP3 DUP1 DUP5 MSTORE PUSH1 0x40 SWAP7 DUP8 DUP12 KECCAK256 SWAP3 DUP4 SLOAD SWAP7 PUSH1 0x8 SWAP8 DUP9 SHR AND ISZERO PUSH2 0x4DC9 JUMPI PUSH1 0x5 DUP5 ADD SLOAD DUP14 DUP6 ADD SLOAD DUP1 DUP3 LT ISZERO PUSH2 0x4DC1 JUMPI POP SWAP5 JUMPDEST PUSH1 0x7 SWAP5 DUP6 ADD SLOAD DUP1 DUP8 GT ISZERO PUSH2 0x4DB9 JUMPI PUSH2 0x4CDC SWAP1 DUP8 PUSH2 0x4035 JUMP JUMPDEST SWAP9 JUMPDEST DUP10 ISZERO PUSH2 0x4DA4 JUMPI SWAP1 PUSH2 0x2350 DUP11 PUSH2 0x4CF2 SWAP4 PUSH2 0x4263 JUMP JUMPDEST SWAP7 DUP11 DUP14 MSTORE DUP4 DUP8 MSTORE DUP10 DUP14 KECCAK256 ADD PUSH2 0x4D08 DUP9 DUP3 SLOAD PUSH2 0x40F0 JUMP JUMPDEST SWAP1 SSTORE DUP10 DUP13 MSTORE DUP3 DUP7 MSTORE DUP9 DUP13 KECCAK256 ADD PUSH2 0x4D1F DUP8 DUP3 SLOAD PUSH2 0x40F0 JUMP JUMPDEST SWAP1 SSTORE DUP1 DUP8 MUL SWAP1 DUP8 DUP3 DIV SUB PUSH2 0x4D91 JUMPI SWAP2 DUP8 SWAP6 SWAP4 SWAP2 PUSH32 0xBEE8F46206DC051D674F6CA1E618EFE407D83B27FFBE3540B916EDFD34E428E1 SWAP8 SWAP6 SWAP4 PUSH2 0x4D72 PUSH1 0x11 DUP13 SWAP12 DUP16 PUSH2 0x4D8C SWAP16 SWAP15 DUP2 MSTORE DUP6 DUP10 MSTORE KECCAK256 ADD SWAP2 DUP3 SLOAD PUSH2 0x40F0 JUMP JUMPDEST SWAP1 SSTORE DUP9 DUP13 MSTORE DUP4 MSTORE DUP6 DUP12 KECCAK256 ADD SSTORE DUP4 MLOAD SWAP3 DUP4 MSTORE DUP3 ADD MSTORE LOG2 PUSH2 0x4080 JUMP JUMPDEST PUSH2 0x4C30 JUMP JUMPDEST PUSH4 0x4E487B71 PUSH1 0xE0 SHL DUP12 MSTORE PUSH1 0x11 DUP14 MSTORE PUSH1 0x24 DUP12 REVERT JUMPDEST POP POP POP POP POP POP POP POP POP POP POP POP PUSH2 0x4D8C SWAP1 PUSH2 0x4080 JUMP JUMPDEST POP DUP13 SWAP9 PUSH2 0x4CDE JUMP JUMPDEST SWAP1 POP SWAP5 PUSH2 0x4CC4 JUMP JUMPDEST POP POP POP POP POP POP POP POP POP POP PUSH2 0x4D8C SWAP1 PUSH2 0x4080 JUMP JUMPDEST POP SWAP7 POP POP POP POP POP DUP3 SWAP2 POP PUSH2 0x4E0D PUSH2 0x4E05 PUSH1 0x0 DUP1 MLOAD PUSH1 0x20 PUSH2 0x52A0 DUP4 CODECOPY DUP2 MLOAD SWAP2 MSTORE SWAP8 SWAP9 PUSH1 0x80 SWAP8 PUSH2 0x40F0 JUMP JUMPDEST PUSH1 0x8 SLOAD PUSH2 0x40F0 JUMP JUMPDEST PUSH1 0x8 SSTORE SSTORE PUSH1 0x40 MLOAD SWAP2 DUP3 MSTORE DUP1 PUSH1 0x20 DUP4 ADD MSTORE DUP1 PUSH1 0x40 DUP4 ADD MSTORE PUSH1 0x60 DUP3 ADD MSTORE LOG1 JUMP JUMPDEST PUSH2 0x4E34 DUP2 PUSH2 0x3E6E JUMP JUMPDEST SWAP1 SLOAD PUSH1 0x3 SWAP2 DUP3 SHL SHR PUSH1 0x1 PUSH1 0x1 PUSH1 0xA0 SHL SUB AND DUP5 MSTORE PUSH1 0x20 MSTORE PUSH1 0x40 DUP4 KECCAK256 DUP1 SLOAD PUSH1 0x8 SHR DUP8 AND ISZERO PUSH2 0x4EB5 JUMPI PUSH1 0x7 PUSH1 0x5 DUP3 ADD SLOAD DUP7 DUP4 ADD SLOAD DUP1 DUP3 LT PUSH1 0x0 EQ PUSH2 0x4EAD JUMPI POP SWAP2 JUMPDEST ADD SLOAD SWAP1 DUP2 DUP2 GT PUSH2 0x4E8D JUMPI JUMPDEST POP POP PUSH2 0x4E88 SWAP1 PUSH2 0x4080 JUMP JUMPDEST PUSH2 0x4C21 JUMP JUMPDEST SWAP11 PUSH2 0x4E9F PUSH2 0x4EA5 SWAP3 PUSH2 0x4E88 SWAP5 SWAP14 PUSH2 0x4035 JUMP JUMPDEST SWAP1 PUSH2 0x40F0 JUMP JUMPDEST SWAP10 SWAP1 CODESIZE PUSH2 0x4E7D JUMP JUMPDEST SWAP1 POP SWAP2 PUSH2 0x4E72 JUMP JUMPDEST POP PUSH2 0x4E88 SWAP1 PUSH2 0x4080 JUMP JUMPDEST SWAP5 POP CODESIZE PUSH2 0x4C1C JUMP JUMPDEST PUSH4 0x4E487B71 PUSH1 0xE0 SHL DUP10 MSTORE PUSH1 0x11 PUSH1 0x4 MSTORE PUSH1 0x24 DUP10 REVERT JUMPDEST PUSH1 0x40 MLOAD PUSH3 0x461BCD PUSH1 0xE5 SHL DUP2 MSTORE PUSH1 0x20 PUSH1 0x4 DUP3 ADD MSTORE PUSH1 0x11 PUSH1 0x24 DUP3 ADD MSTORE PUSH17 0x115B5C1D1E48189A5B985C9E481C1BDBDB PUSH1 0x7A SHL PUSH1 0x44 DUP3 ADD MSTORE PUSH1 0x64 SWAP1 REVERT JUMPDEST PUSH1 0x40 MLOAD PUSH3 0xC94879 PUSH1 0xE4 SHL DUP2 MSTORE PUSH1 0x4 SWAP1 REVERT JUMPDEST ISZERO PUSH2 0x4F2C JUMPI JUMP JUMPDEST PUSH1 0x40 MLOAD PUSH3 0x461BCD PUSH1 0xE5 SHL DUP2 MSTORE PUSH1 0x20 PUSH1 0x4 DUP3 ADD MSTORE PUSH1 0xE PUSH1 0x24 DUP3 ADD MSTORE PUSH14 0x139BDD081C9959DA5CDD195C9959 PUSH1 0x92 SHL PUSH1 0x44 DUP3 ADD MSTORE PUSH1 0x64 SWAP1 REVERT JUMPDEST ISZERO PUSH2 0x4F69 JUMPI JUMP JUMPDEST PUSH1 0x40 MLOAD PUSH3 0x461BCD PUSH1 0xE5 SHL DUP2 MSTORE PUSH1 0x20 PUSH1 0x4 DUP3 ADD MSTORE PUSH1 0x14 PUSH1 0x24 DUP3 ADD MSTORE PUSH20 0x1554D115081D1C985B9CD9995C8819985A5B1959 PUSH1 0x62 SHL PUSH1 0x44 DUP3 ADD MSTORE PUSH1 0x64 SWAP1 REVERT JUMPDEST SWAP1 PUSH1 0x5 DUP2 LT ISZERO PUSH2 0x3E89 JUMPI PUSH1 0x5 SHL ADD SWAP1 JUMP JUMPDEST DUP1 SLOAD DUP3 LT ISZERO PUSH2 0x3E89 JUMPI PUSH1 0x0 MSTORE PUSH1 0x5 PUSH1 0x20 PUSH1 0x0 KECCAK256 SWAP2 MUL ADD SWAP1 PUSH1 0x0 SWAP1 JUMP JUMPDEST ISZERO PUSH2 0x4FD9 JUMPI JUMP JUMPDEST PUSH1 0x40 MLOAD PUSH3 0x461BCD PUSH1 0xE5 SHL DUP2 MSTORE PUSH1 0x20 PUSH1 0x4 DUP3 ADD MSTORE PUSH1 0xD PUSH1 0x24 DUP3 ADD MSTORE PUSH13 0x92DCECC2D8D2C840D2DCC8CAF PUSH1 0x9B SHL PUSH1 0x44 DUP3 ADD MSTORE PUSH1 0x64 SWAP1 REVERT JUMPDEST ISZERO PUSH2 0x5015 JUMPI JUMP JUMPDEST PUSH1 0x40 MLOAD PUSH3 0x461BCD PUSH1 0xE5 SHL DUP2 MSTORE PUSH1 0x20 PUSH1 0x4 DUP3 ADD MSTORE PUSH1 0x10 PUSH1 0x24 DUP3 ADD MSTORE PUSH16 0x105B1C9958591E481D5B9CDD185AD959 PUSH1 0x82 SHL PUSH1 0x44 DUP3 ADD MSTORE PUSH1 0x64 SWAP1 REVERT JUMPDEST PUSH1 0x2 SLOAD PUSH1 0x1 PUSH1 0x1 PUSH1 0xA0 SHL SUB AND SWAP1 DUP2 ISZERO PUSH2 0x50C9 JUMPI PUSH1 0x20 SWAP1 PUSH1 0x24 PUSH1 0x40 MLOAD DUP1 SWAP5 DUP2 SWAP4 PUSH4 0x47CD5191 PUSH1 0xE0 SHL DUP4 MSTORE PUSH1 0x4 DUP4 ADD MSTORE GAS STATICCALL SWAP1 DUP2 ISZERO PUSH2 0x50BD JUMPI PUSH1 0x0 SWAP2 PUSH2 0x508F JUMPI POP SWAP1 JUMP JUMPDEST SWAP1 PUSH1 0x20 DUP3 RETURNDATASIZE DUP3 GT PUSH2 0x50B5 JUMPI JUMPDEST DUP2 PUSH2 0x50A8 PUSH1 0x20 SWAP4 DUP4 PUSH2 0x3F07 JUMP JUMPDEST DUP2 ADD SUB SLT PUSH2 0x306 JUMPI POP MLOAD SWAP1 JUMP JUMPDEST RETURNDATASIZE SWAP2 POP PUSH2 0x509B JUMP JUMPDEST PUSH1 0x40 MLOAD RETURNDATASIZE PUSH1 0x0 DUP3 RETURNDATACOPY RETURNDATASIZE SWAP1 REVERT JUMPDEST POP POP PUSH1 0x0 SWAP1 JUMP JUMPDEST PUSH1 0x2 SLOAD PUSH1 0x1 PUSH1 0x1 PUSH1 0xA0 SHL SUB AND SWAP1 DUP2 ISZERO PUSH2 0x50C9 JUMPI PUSH1 0x20 SWAP1 PUSH1 0x24 PUSH1 0x40 MLOAD DUP1 SWAP5 DUP2 SWAP4 PUSH4 0x75B1F0E1 PUSH1 0xE1 SHL DUP4 MSTORE PUSH1 0x4 DUP4 ADD MSTORE GAS STATICCALL SWAP1 DUP2 ISZERO PUSH2 0x50BD JUMPI PUSH1 0x0 SWAP2 PUSH2 0x508F JUMPI POP SWAP1 JUMP JUMPDEST PUSH1 0x2 SLOAD PUSH1 0x1 PUSH1 0x1 PUSH1 0xA0 SHL SUB AND SWAP1 DUP2 ISZERO PUSH2 0x50C9 JUMPI PUSH1 0x20 SWAP1 PUSH1 0x24 PUSH1 0x40 MLOAD DUP1 SWAP5 DUP2 SWAP4 PUSH4 0x1D613961 PUSH1 0xE1 SHL DUP4 MSTORE PUSH1 0x4 DUP4 ADD MSTORE GAS STATICCALL SWAP1 DUP2 ISZERO PUSH2 0x50BD JUMPI PUSH1 0x0 SWAP2 PUSH2 0x508F JUMPI POP SWAP1 JUMP JUMPDEST PUSH1 0x2 SLOAD PUSH1 0x1 PUSH1 0x1 PUSH1 0xA0 SHL SUB SWAP1 DUP2 AND SWAP2 DUP3 ISZERO PUSH2 0x51FF JUMPI AND PUSH1 0x24 PUSH1 0x0 DUP3 DUP2 MSTORE PUSH1 0x20 PUSH1 0x3 DUP2 MSTORE DUP1 PUSH1 0xF PUSH1 0x40 DUP5 KECCAK256 ADD SLOAD SWAP6 PUSH1 0x40 MLOAD SWAP5 DUP6 DUP1 SWAP3 PUSH4 0x47CD5191 PUSH1 0xE0 SHL DUP3 MSTORE PUSH1 0x1 PUSH1 0x4 DUP4 ADD MSTORE GAS STATICCALL SWAP3 DUP4 ISZERO PUSH2 0x86F JUMPI DUP3 SWAP4 PUSH2 0x51CF JUMPI JUMPDEST POP PUSH1 0xFF SWAP2 PUSH1 0x3 PUSH1 0x40 SWAP3 DUP6 SWAP7 DUP4 MSTORE MSTORE KECCAK256 SLOAD PUSH1 0x8 SHR AND SWAP1 DUP2 PUSH2 0x51C7 JUMPI POP SWAP3 JUMP JUMPDEST SWAP1 POP DUP3 LT ISZERO SWAP3 JUMP JUMPDEST SWAP1 DUP1 SWAP4 POP DUP2 DUP2 RETURNDATASIZE DUP4 GT PUSH2 0x51F8 JUMPI JUMPDEST PUSH2 0x51E7 DUP2 DUP4 PUSH2 0x3F07 JUMP JUMPDEST DUP2 ADD SUB SLT PUSH2 0x87A JUMPI MLOAD SWAP2 PUSH1 0xFF PUSH2 0x51A9 JUMP JUMPDEST POP RETURNDATASIZE PUSH2 0x51DD JUMP JUMPDEST POP POP POP PUSH1 0x0 SWAP1 PUSH1 0x0 SWAP1 PUSH1 0x0 SWAP1 JUMP JUMPDEST SWAP1 PUSH2 0x5217 DUP3 PUSH2 0x493E JUMP JUMPDEST PUSH2 0x5224 PUSH1 0x40 MLOAD SWAP2 DUP3 PUSH2 0x3F07 JUMP JUMPDEST DUP3 DUP2 MSTORE DUP1 SWAP3 PUSH2 0x5235 PUSH1 0x1F NOT SWAP2 PUSH2 0x493E JUMP JUMPDEST ADD SWAP1 PUSH1 0x20 CALLDATASIZE SWAP2 ADD CALLDATACOPY JUMP INVALID CALLVALUE SELFDESTRUCT CALLDATACOPY DUP8 0x4D PUSH21 0x43037A85C6F390FE14F2AE3E8767355DE0E63891AD NUMBER PUSH8 0xC275398BE0079C53 AND MSIZE EQ SGT PREVRANDAO 0xCD 0x1F 0xD0 LOG4 CALLCODE DUP5 NOT 0x49 PUSH32 0x9722A3DAAFE3B4186F6B6457E0DCFD2B4017D03F7E541021DB793B2F9B31E4AC 0xDE 0xE0 SDIV 0xF7 DUP10 0xE5 0x28 MSTORE8 0xC3 SWAP1 0xE3 0xE9 PUSH3 0xA0EA57 SDIV KECCAK256 0xC SWAP16 REVERT CALLDATASIZE 0xDC PUSH20 0x5FEF1592C3234BB7E311FC1B0A444F6370D0620E 0xAE SWAP12 PUSH24 0x9B17422D0DF92223018B32B4D1FA46E071723D6817E2486D STOP EXTCODESIZE 0xEC 0xC5 PUSH0 STOP LOG2 PUSH5 0x6970667358 0x22 SLT KECCAK256 CALLDATASIZE 0xCA 0xF7 GASLIMIT 0xE3 0x2A PUSH4 0x9B57BD5F 0x1F 0xDF PUSH14 0xCA5B0EE65EA7281533EB18DC773 0xAD 0xB2 0x2A 0xDF PUSH5 0x736F6C6343 STOP ADDMOD EQ STOP CALLER "},"methodIdentifiers":{"ADMIN_ALLOC()":"be648bdb","BINARY_ALLOC()":"44e374d5","BTC_POOL_RATE()":"92446e30","FLEX_CAP_MULT()":"3ccb13d3","INCOME_LIMIT()":"aa393757","LEVEL_ALLOC()":"77537844","LOCK_DURATION()":"485d3834","MIN_STAKE_USDT()":"8431fdd7","PACKAGE_PRICE()":"039ccc26","activate()":"0f15f4c0","adminPool()":"b86a1fb2","allUsers(uint256)":"a2bdedf4","binaryPool()":"7f1b4064","boardEntryCount(address)":"f00b0093","boardHandler()":"c9d484cf","canEnterBoard(address)":"9499a351","canRebirth(address)":"e51cb530","convertToLocked(uint256)":"4b3f0d45","creditBoardReward(address,uint256,uint256)":"f0b7b9dc","distributeBinaryIncome(uint256,uint256)":"2d641f08","distributePowerLeg(uint256,uint256)":"8a8f0429","enterBoardPool()":"e4093a66","getActiveStakes(address)":"1747e0b0","getAllUsersCount()":"38abfc41","getBoardCurrentIndex(uint256)":"3ac272c2","getBoardMatrixInfo(uint256,uint256)":"d4a90286","getBoardPrice(uint256)":"47cd5191","getBoardQueueLength(uint256)":"eb63e1c2","getBtcPoolInfo(address)":"03c3ecb7","getCurrentBinaryPairs(address)":"f24c536a","getLockDuration()":"e239c400","getMvtContractBalance()":"ce8292f5","getMvtPrice()":"68ddb2b5","getPoolBalances()":"52375bb1","getProfile(address)":"0f53a470","getStake(address,uint256)":"cfd47663","getStakeCount(address)":"cf57ee69","getUserBoardStats(address)":"fb72ca35","getUserInfo(address)":"6386c1c7","mvaultToken()":"1f6259d5","owner()":"8da5cb5b","rebirth(address,bool)":"94915dd0","register(address,address,bool)":"aa33f5d5","registerAndActivateFor(address,address,bool)":"e0e01011","renounceOwnership()":"715018a6","reservePool()":"0266f044","sellMvt(uint256)":"634f627e","setBoardHandler(address)":"e3ba9bda","setMvaultToken(address)":"1ce5e894","setProfile(string,string,string,string)":"55509c8f","stake(uint256,bool)":"abe50f19","totalBoardRewardsEarned(address)":"2335821b","totalUsers()":"bff1f9e1","transferOwnership(address)":"f2fde38b","unstake(uint256)":"2e17de78","usdtToken()":"a98ad46c","users(address)":"a87430ba","withdrawAdminPool(address,uint256)":"2808bc8d","withdrawBtcPool(uint256)":"b58e0278","withdrawReservePool(address,uint256)":"ec50324a","withdrawUsdt(uint256)":"d3635a02"}}}}}