{"contracts/MvaultBoardMatrix.sol":{"MvaultBoardMatrix":{"abi":[{"inputs":[{"internalType":"address","name":"_usdt","type":"address"}],"stateMutability":"nonpayable","type":"constructor"},{"inputs":[{"internalType":"address","name":"owner","type":"address"}],"name":"OwnableInvalidOwner","type":"error"},{"inputs":[{"internalType":"address","name":"account","type":"address"}],"name":"OwnableUnauthorizedAccount","type":"error"},{"inputs":[],"name":"ReentrancyGuardReentrantCall","type":"error"},{"inputs":[{"internalType":"address","name":"token","type":"address"}],"name":"SafeERC20FailedOperation","type":"error"},{"anonymous":false,"inputs":[{"indexed":true,"internalType":"address","name":"owner","type":"address"},{"indexed":true,"internalType":"uint256","name":"boardLevel","type":"uint256"},{"indexed":false,"internalType":"uint256","name":"reward","type":"uint256"},{"indexed":false,"internalType":"uint256","name":"liquidity","type":"uint256"}],"name":"BoardCompleted","type":"event"},{"anonymous":false,"inputs":[{"indexed":true,"internalType":"address","name":"user","type":"address"},{"indexed":true,"internalType":"uint256","name":"boardLevel","type":"uint256"},{"indexed":false,"internalType":"uint256","name":"matrixIndex","type":"uint256"}],"name":"BoardEntered","type":"event"},{"anonymous":false,"inputs":[{"indexed":true,"internalType":"address","name":"mvaultContract","type":"address"}],"name":"BoardHandlerSet","type":"event"},{"anonymous":false,"inputs":[{"indexed":true,"internalType":"address","name":"addr","type":"address"}],"name":"LiquidityAddressSet","type":"event"},{"anonymous":false,"inputs":[{"indexed":true,"internalType":"address","name":"previousOwner","type":"address"},{"indexed":true,"internalType":"address","name":"newOwner","type":"address"}],"name":"OwnershipTransferred","type":"event"},{"anonymous":false,"inputs":[{"indexed":true,"internalType":"address","name":"addr","type":"address"}],"name":"SystemAddressSet","type":"event"},{"inputs":[],"name":"BASIS_POINTS","outputs":[{"internalType":"uint256","name":"","type":"uint256"}],"stateMutability":"view","type":"function"},{"inputs":[],"name":"BOARD_10_LIQUIDITY_RATE_BP","outputs":[{"internalType":"uint256","name":"","type":"uint256"}],"stateMutability":"view","type":"function"},{"inputs":[],"name":"BOARD_10_REWARD_RATE_BP","outputs":[{"internalType":"uint256","name":"","type":"uint256"}],"stateMutability":"view","type":"function"},{"inputs":[],"name":"BOARD_10_SYSTEM_RATE_BP","outputs":[{"internalType":"uint256","name":"","type":"uint256"}],"stateMutability":"view","type":"function"},{"inputs":[],"name":"BOARD_LIQUIDITY_RATE_BP","outputs":[{"internalType":"uint256","name":"","type":"uint256"}],"stateMutability":"view","type":"function"},{"inputs":[],"name":"BOARD_MEMBERS_REQUIRED","outputs":[{"internalType":"uint256","name":"","type":"uint256"}],"stateMutability":"view","type":"function"},{"inputs":[],"name":"BOARD_NEXT_POOL_RATE_BP","outputs":[{"internalType":"uint256","name":"","type":"uint256"}],"stateMutability":"view","type":"function"},{"inputs":[],"name":"BOARD_POOL_MEMBERS","outputs":[{"internalType":"uint256","name":"","type":"uint256"}],"stateMutability":"view","type":"function"},{"inputs":[],"name":"BOARD_REWARD_RATE_BP","outputs":[{"internalType":"uint256","name":"","type":"uint256"}],"stateMutability":"view","type":"function"},{"inputs":[],"name":"TOTAL_BOARDS","outputs":[{"internalType":"uint256","name":"","type":"uint256"}],"stateMutability":"view","type":"function"},{"inputs":[{"internalType":"uint256","name":"","type":"uint256"}],"name":"boardCurrentIndex","outputs":[{"internalType":"uint256","name":"","type":"uint256"}],"stateMutability":"view","type":"function"},{"inputs":[{"internalType":"address","name":"","type":"address"}],"name":"boardEntryCount","outputs":[{"internalType":"uint256","name":"","type":"uint256"}],"stateMutability":"view","type":"function"},{"inputs":[{"internalType":"uint256","name":"","type":"uint256"}],"name":"boardPrices","outputs":[{"internalType":"uint256","name":"","type":"uint256"}],"stateMutability":"view","type":"function"},{"inputs":[{"internalType":"address","name":"_user","type":"address"},{"internalType":"uint256","name":"_boardLevel","type":"uint256"}],"name":"enterBoard","outputs":[],"stateMutability":"nonpayable","type":"function"},{"inputs":[{"internalType":"uint256","name":"_level","type":"uint256"}],"name":"getBoardCurrentIndex","outputs":[{"internalType":"uint256","name":"","type":"uint256"}],"stateMutability":"view","type":"function"},{"inputs":[{"internalType":"uint256","name":"_level","type":"uint256"},{"internalType":"uint256","name":"_index","type":"uint256"}],"name":"getBoardMatrixInfo","outputs":[{"internalType":"address","name":"owner","type":"address"},{"internalType":"uint256","name":"filledCount","type":"uint256"},{"internalType":"bool","name":"completed","type":"bool"}],"stateMutability":"view","type":"function"},{"inputs":[{"internalType":"uint256","name":"_level","type":"uint256"}],"name":"getBoardPrice","outputs":[{"internalType":"uint256","name":"","type":"uint256"}],"stateMutability":"view","type":"function"},{"inputs":[{"internalType":"uint256","name":"_level","type":"uint256"}],"name":"getBoardQueueLength","outputs":[{"internalType":"uint256","name":"","type":"uint256"}],"stateMutability":"view","type":"function"},{"inputs":[{"internalType":"address","name":"_user","type":"address"}],"name":"getUserBoardStats","outputs":[{"internalType":"uint256","name":"totalEntries","type":"uint256"},{"internalType":"uint256","name":"totalRewards","type":"uint256"}],"stateMutability":"view","type":"function"},{"inputs":[],"name":"liquidityAddress","outputs":[{"internalType":"address","name":"","type":"address"}],"stateMutability":"view","type":"function"},{"inputs":[],"name":"mvaultContract","outputs":[{"internalType":"address","name":"","type":"address"}],"stateMutability":"view","type":"function"},{"inputs":[],"name":"owner","outputs":[{"internalType":"address","name":"","type":"address"}],"stateMutability":"view","type":"function"},{"inputs":[{"internalType":"address","name":"_token","type":"address"},{"internalType":"address","name":"_to","type":"address"},{"internalType":"uint256","name":"_amount","type":"uint256"}],"name":"recoverToken","outputs":[],"stateMutability":"nonpayable","type":"function"},{"inputs":[],"name":"renounceOwnership","outputs":[],"stateMutability":"nonpayable","type":"function"},{"inputs":[{"internalType":"uint256","name":"_level","type":"uint256"},{"internalType":"uint256","name":"_price","type":"uint256"}],"name":"setBoardPrice","outputs":[],"stateMutability":"nonpayable","type":"function"},{"inputs":[{"internalType":"address","name":"_addr","type":"address"}],"name":"setLiquidityAddress","outputs":[],"stateMutability":"nonpayable","type":"function"},{"inputs":[{"internalType":"address","name":"_mvault","type":"address"}],"name":"setMvaultContract","outputs":[],"stateMutability":"nonpayable","type":"function"},{"inputs":[{"internalType":"address","name":"_addr","type":"address"}],"name":"setSystemAddress","outputs":[],"stateMutability":"nonpayable","type":"function"},{"inputs":[],"name":"systemAddress","outputs":[{"internalType":"address","name":"","type":"address"}],"stateMutability":"view","type":"function"},{"inputs":[{"internalType":"address","name":"","type":"address"}],"name":"totalBoardRewardsEarned","outputs":[{"internalType":"uint256","name":"","type":"uint256"}],"stateMutability":"view","type":"function"},{"inputs":[{"internalType":"address","name":"newOwner","type":"address"}],"name":"transferOwnership","outputs":[],"stateMutability":"nonpayable","type":"function"},{"inputs":[],"name":"usdtToken","outputs":[{"internalType":"contract IERC20","name":"","type":"address"}],"stateMutability":"view","type":"function"}],"evm":{"bytecode":{"linkReferences":{},"object":"60a0346101c957601f6112d338819003918201601f19168301916001600160401b038311848410176101ce578084926020946040528339810103126101c957516001600160a01b03808216918290036101c95733156101b0576000543360018060a01b0319821617600055604051913391167f8be0079c531659141344cd1fd0a4f28419497f9722a3daafe3b4186f6b6457e0600080a360017f9b779b17422d0df92223018b32b4d1fa46e071723d6817e2486d003becc55f0055811561018957506080526802b5e3af16b18800006006556809c2007651b2500000600755682320ce76bfb5200000600855687e78e1033c7a5400006009556901c741a9797d32780000600a55690666ef28a6b370c40000600b5569170c2c8c1643843c0000600c556952f8a8b2575eda140000600d556a012ab256fb3350130c0000600e556a04334ed2bb8586aaf80000600f556040516110ee90816101e582396080518181816103dc01528181610d7d01528181610e6001528181610e9a01528181610f9401526110400152f35b62461bcd60e51b81526020600482015260026024820152615a4160f01b6044820152606490fd5b604051631e4fbdf760e01b815260006004820152602490fd5b600080fd5b634e487b7160e01b600052604160045260246000fdfe60806040908082526004908136101561001757600080fd5b600090813560e01c90816304841337146108ba57508063062101971461084b5780632335821b146108145780632389e78a146107e757806329d7f9eb1461075a5780633221c93f146107315780633ac272c2146101c957806347cd5191146106d05780634b7fede0146106b45780634e75996214610698578063525fa81f1461062957806361dba5f314610480578063686a38bd1461058d578063715018a6146105455780637d4cf0b8146103a657806382b20202146104d65780638da5cb5b146104ae578063912a6a3a146104855780639898fcd314610480578063a5c3406114610463578063a7229fd91461040b578063a98ad46c146103c7578063b0ac4626146103ab578063b2418af8146103a6578063d3e848f11461037d578063d4a90286146102ee578063e1f1c4a7146102d1578063eb63e1c2146102a8578063f00b00931461026c578063f2fde38b146101f6578063f3b36bf8146101c95763fb72ca351461018557600080fd5b346101c65760203660031901126101c65782906001600160a01b036101a86108d6565b16815260036020528181205492602052205482519182526020820152f35b80fd5b509190346101f25760203660031901126101f25760209282913581526002845220549051908152f35b8280fd5b509190346101f25760203660031901126101f2576102126108d6565b9061021b610979565b6001600160a01b0391821692831561025657505082546001600160a01b0319811683178455166000805160206110998339815191528380a380f35b51631e4fbdf760e01b8152908101849052602490fd5b5082346102a45760203660031901126102a45760209181906001600160a01b036102946108d6565b1681526003845220549051908152f35b5080fd5b509190346101f25760203660031901126101f25760209282913581526001845220549051908152f35b5082346102a457816003193601126102a457602090516127108152f35b50346101c6576102fd36610919565b9281835260016020528483205484101561035557606085610328868287878152600160205220610a3c565b509060018060a01b038254169160ff60026001830154920154169082519384526020840152151590820152f35b606490602086519162461bcd60e51b8352820152600260248201526127a160f11b6044820152fd5b5082346102a457816003193601126102a45760125490516001600160a01b039091168152602090f35b61094c565b5082346102a457816003193601126102a45760209051600a8152f35b5082346102a457816003193601126102a457517f00000000000000000000000000000000000000000000000000000000000000006001600160a01b03168152602090f35b50346101c65760603660031901126101c6576104256108d6565b6001600160a01b03602435818116929183820361045f5761045261045c9461044b610979565b15156109a5565b6044359216610ece565b80f35b8480fd5b5082346102a457816003193601126102a457602090516107d08152f35b61092f565b5082346102a457816003193601126102a45760105490516001600160a01b039091168152602090f35b5082346102a457816003193601126102a457905490516001600160a01b039091168152602090f35b50346101c65760203660031901126101c6576104f06108d6565b6104f8610979565b6001600160a01b031661050c8115156109a5565b601080546001600160a01b031916821790557fbb7f7a4723348c574d05b1ac3745e0e61d0f9dd743edb6fb146c91b28dded54a8280a280f35b50346101c657806003193601126101c65761055e610979565b80546001600160a01b03198116825581906001600160a01b03166000805160206110998339815191528280a380f35b5090346102a457826003193601126102a4576105a76108d6565b6010546024359290336001600160a01b039182161490811561061c575b50156105f457509061045c916001821015806105e9575b6105e4906109d6565b610b0c565b50600a8211156105db565b606490602086519162461bcd60e51b835282015260026024820152614e4160f01b6044820152fd5b90508454163314386105c4565b50346101c65760203660031901126101c6576106436108d6565b61064b610979565b6001600160a01b031661065f8115156109a5565b601180546001600160a01b031916821790557fab7b7de49b58c7a7fe6b06ca3d3f8bb2abb971d7f68001e7309ef98fe2d855398280a280f35b5082346102a457816003193601126102a45760209051600c8152f35b5082346102a457816003193601126102a4576020905160098152f35b508290346101c65760203660031901126101c657823590600182101580610726575b6106fb906109d6565b600b8210156107135760208383600501549051908152f35b634e487b7160e01b815260328452602490fd5b50600a8211156106f2565b5082346102a457816003193601126102a45760115490516001600160a01b039091168152602090f35b5091346101f25761076a36610919565b929091610775610979565b6001831015806107dc575b610789906109d6565b83156107b45750600b8210156107a157506005015580f35b634e487b7160e01b845260329052602483fd5b906020606492519162461bcd60e51b83528201526002602482015261050360f41b6044820152fd5b50600a831115610780565b509190346101f25760203660031901126101f25735600b8110156101f25760209250600501549051908152f35b509190346101f25760203660031901126101f25760209282916001600160a01b0361083d6108d6565b168252845220549051908152f35b50346101c65760203660031901126101c6576108656108d6565b61086d610979565b6001600160a01b03166108818115156109a5565b601280546001600160a01b031916821790557fd585f32d2260b0cd69a1e4fc82ffedfebdacbc10727ee026264133ba6d20f8e78280a280f35b9050346102a457816003193601126102a4578061222e60209252f35b600435906001600160a01b03821682036108ec57565b600080fd5b600b8110156109035760050190600090565b634e487b7160e01b600052603260045260246000fd5b60409060031901126108ec576004359060243590565b346108ec5760003660031901126108ec576020604051610fa08152f35b346108ec5760003660031901126108ec5760206040516102718152f35b6000526001602052604060002090565b6000546001600160a01b0316330361098d57565b60405163118cdaa760e01b8152336004820152602490fd5b156109ac57565b60405162461bcd60e51b81526020600482015260026024820152615a4160f01b6044820152606490fd5b156109dd57565b60405162461bcd60e51b8152602060048201526002602482015261109360f21b6044820152606490fd5b60405190606082016001600160401b03811183821017610a2657604052565b634e487b7160e01b600052604160045260246000fd5b8054821015610903576000526003602060002091020190600090565b8054600160401b811015610a2657610a7591600182018155610a3c565b610ab457600260409160018060a01b0384511660018060a01b03198254161781556020840151600182015501910151151560ff80198354169116179055565b634e487b7160e01b600052600060045260246000fd5b600019810191908211610ad957565b634e487b7160e01b600052601160045260246000fd5b6000198114610ad95760010190565b9060018201809211610ad957565b90610b41610b1982610969565b610b21610a07565b6001600160a01b0385168152906000602083015260006040830152610a58565b80610b54610b4e82610969565b54610aca565b6001600160a01b0384166000908152600360205260409020909390610b798154610aef565b90556040518481526001600160a01b0391909116907f4e755dd64e53a9f7a5882e2e32eb64718c2273de11e017bd47129b9fe2716d7c90602090a3610bc8816000526002602052604060002090565b54918210610bd4575050565b610be682610be183610969565b610a3c565b5091600c60018401610bf88154610aef565b8091551015610c07575b505050565b82610c2b610c4d92610c266002610c529701600160ff19825416179055565b610afe565b610c3f846000526002602052604060002090565b55546001600160a01b031690565b610cc6565b565b90600982029180830460091490151715610ad957565b9061222e91828102928184041490151715610ad957565b9061027191828102928184041490151715610ad957565b90610fa091828102928184041490151715610ad957565b906107d091828102928184041490151715610ad957565b610ce4610cdf610cd5846108f1565b90549060031b1c90565b610c54565b600a831015610db15782610c529382600080516020611079833981519152610d2f610d17610d1f610d17610d7198610c98565b612710900490565b93610d2981610c98565b50610caf565b610d3a848489610f4f565b6011546001600160a01b039081168281151580610da8575b610d77575b5050604080519485526020850192909252871692a3610afe565b90610b0c565b610da1917f0000000000000000000000000000000000000000000000000000000000000000610ece565b3882610d57565b50801515610d52565b80610dcd610d1760008051602061107983398151915293610c6a565b92610e55610de9610d17610de3610d1786610c81565b94610c81565b610df4878785610f4f565b6012546001600160a01b03166001600160a01b0394818616151580610ec5575b610e94575b50506011546001600160a01b031681858216151580610e8b575b610e5a575b505060405193849316958360209093929193604081019481520152565b0390a3565b610e84917f0000000000000000000000000000000000000000000000000000000000000000610ece565b3881610e38565b50801515610e33565b610ebe917f0000000000000000000000000000000000000000000000000000000000000000610ece565b3880610e19565b50801515610e14565b60405163a9059cbb60e01b60009081526001600160a01b039384166004526024949094529260209060448180855af1600160005114811615610f2f575b8360405215610f1957505050565b635274afe760e01b835216600482015260249150fd5b6001811516610f4557813b15153d151616610f0b565b833d6000823e3d90fd5b908015610c025760018060a01b038083169060009382855260046020526040852080549085820180921161106457556010548216156110345750610fb88382601054167f0000000000000000000000000000000000000000000000000000000000000000610ece565b60105416803b1561103057839291836064926040519788958694633c2dee7760e21b86526004860152602485015260448401525af1801561102357610ffb575050565b6001600160401b03821161100f5750604052565b634e487b7160e01b81526041600452602490fd5b50604051903d90823e3d90fd5b8380fd5b9293505050610c5292507f0000000000000000000000000000000000000000000000000000000000000000610ece565b634e487b7160e01b87526011600452602487fdfec9dfd5046e5f1be95c560d1b85295f8afd28d0102c20e0b4112b88bd328ca4338be0079c531659141344cd1fd0a4f28419497f9722a3daafe3b4186f6b6457e0a264697066735822122034db9777d3f3e4ba9adeef9e5190d7351f4730aef28f36aeb38bca619025030d64736f6c63430008140033","opcodes":"PUSH1 0xA0 CALLVALUE PUSH2 0x1C9 JUMPI PUSH1 0x1F PUSH2 0x12D3 CODESIZE DUP2 SWAP1 SUB SWAP2 DUP3 ADD PUSH1 0x1F NOT AND DUP4 ADD SWAP2 PUSH1 0x1 PUSH1 0x1 PUSH1 0x40 SHL SUB DUP4 GT DUP5 DUP5 LT OR PUSH2 0x1CE JUMPI DUP1 DUP5 SWAP3 PUSH1 0x20 SWAP5 PUSH1 0x40 MSTORE DUP4 CODECOPY DUP2 ADD SUB SLT PUSH2 0x1C9 JUMPI MLOAD PUSH1 0x1 PUSH1 0x1 PUSH1 0xA0 SHL SUB DUP1 DUP3 AND SWAP2 DUP3 SWAP1 SUB PUSH2 0x1C9 JUMPI CALLER ISZERO PUSH2 0x1B0 JUMPI PUSH1 0x0 SLOAD CALLER PUSH1 0x1 DUP1 PUSH1 0xA0 SHL SUB NOT DUP3 AND OR PUSH1 0x0 SSTORE PUSH1 0x40 MLOAD SWAP2 CALLER SWAP2 AND PUSH32 0x8BE0079C531659141344CD1FD0A4F28419497F9722A3DAAFE3B4186F6B6457E0 PUSH1 0x0 DUP1 LOG3 PUSH1 0x1 PUSH32 0x9B779B17422D0DF92223018B32B4D1FA46E071723D6817E2486D003BECC55F00 SSTORE DUP2 ISZERO PUSH2 0x189 JUMPI POP PUSH1 0x80 MSTORE PUSH9 0x2B5E3AF16B1880000 PUSH1 0x6 SSTORE PUSH9 0x9C2007651B2500000 PUSH1 0x7 SSTORE PUSH9 0x2320CE76BFB5200000 PUSH1 0x8 SSTORE PUSH9 0x7E78E1033C7A540000 PUSH1 0x9 SSTORE PUSH10 0x1C741A9797D32780000 PUSH1 0xA SSTORE PUSH10 0x666EF28A6B370C40000 PUSH1 0xB SSTORE PUSH10 0x170C2C8C1643843C0000 PUSH1 0xC SSTORE PUSH10 0x52F8A8B2575EDA140000 PUSH1 0xD SSTORE PUSH11 0x12AB256FB3350130C0000 PUSH1 0xE SSTORE PUSH11 0x4334ED2BB8586AAF80000 PUSH1 0xF SSTORE PUSH1 0x40 MLOAD PUSH2 0x10EE SWAP1 DUP2 PUSH2 0x1E5 DUP3 CODECOPY PUSH1 0x80 MLOAD DUP2 DUP2 DUP2 PUSH2 0x3DC ADD MSTORE DUP2 DUP2 PUSH2 0xD7D ADD MSTORE DUP2 DUP2 PUSH2 0xE60 ADD MSTORE DUP2 DUP2 PUSH2 0xE9A ADD MSTORE DUP2 DUP2 PUSH2 0xF94 ADD MSTORE PUSH2 0x1040 ADD MSTORE RETURN JUMPDEST PUSH3 0x461BCD PUSH1 0xE5 SHL DUP2 MSTORE PUSH1 0x20 PUSH1 0x4 DUP3 ADD MSTORE PUSH1 0x2 PUSH1 0x24 DUP3 ADD MSTORE PUSH2 0x5A41 PUSH1 0xF0 SHL PUSH1 0x44 DUP3 ADD MSTORE PUSH1 0x64 SWAP1 REVERT JUMPDEST PUSH1 0x40 MLOAD PUSH4 0x1E4FBDF7 PUSH1 0xE0 SHL DUP2 MSTORE PUSH1 0x0 PUSH1 0x4 DUP3 ADD MSTORE PUSH1 0x24 SWAP1 REVERT JUMPDEST PUSH1 0x0 DUP1 REVERT JUMPDEST PUSH4 0x4E487B71 PUSH1 0xE0 SHL PUSH1 0x0 MSTORE PUSH1 0x41 PUSH1 0x4 MSTORE PUSH1 0x24 PUSH1 0x0 REVERT INVALID PUSH1 0x80 PUSH1 0x40 SWAP1 DUP1 DUP3 MSTORE PUSH1 0x4 SWAP1 DUP2 CALLDATASIZE LT ISZERO PUSH2 0x17 JUMPI PUSH1 0x0 DUP1 REVERT JUMPDEST PUSH1 0x0 SWAP1 DUP2 CALLDATALOAD PUSH1 0xE0 SHR SWAP1 DUP2 PUSH4 0x4841337 EQ PUSH2 0x8BA JUMPI POP DUP1 PUSH4 0x6210197 EQ PUSH2 0x84B JUMPI DUP1 PUSH4 0x2335821B EQ PUSH2 0x814 JUMPI DUP1 PUSH4 0x2389E78A EQ PUSH2 0x7E7 JUMPI DUP1 PUSH4 0x29D7F9EB EQ PUSH2 0x75A JUMPI DUP1 PUSH4 0x3221C93F EQ PUSH2 0x731 JUMPI DUP1 PUSH4 0x3AC272C2 EQ PUSH2 0x1C9 JUMPI DUP1 PUSH4 0x47CD5191 EQ PUSH2 0x6D0 JUMPI DUP1 PUSH4 0x4B7FEDE0 EQ PUSH2 0x6B4 JUMPI DUP1 PUSH4 0x4E759962 EQ PUSH2 0x698 JUMPI DUP1 PUSH4 0x525FA81F EQ PUSH2 0x629 JUMPI DUP1 PUSH4 0x61DBA5F3 EQ PUSH2 0x480 JUMPI DUP1 PUSH4 0x686A38BD EQ PUSH2 0x58D JUMPI DUP1 PUSH4 0x715018A6 EQ PUSH2 0x545 JUMPI DUP1 PUSH4 0x7D4CF0B8 EQ PUSH2 0x3A6 JUMPI DUP1 PUSH4 0x82B20202 EQ PUSH2 0x4D6 JUMPI DUP1 PUSH4 0x8DA5CB5B EQ PUSH2 0x4AE JUMPI DUP1 PUSH4 0x912A6A3A EQ PUSH2 0x485 JUMPI DUP1 PUSH4 0x9898FCD3 EQ PUSH2 0x480 JUMPI DUP1 PUSH4 0xA5C34061 EQ PUSH2 0x463 JUMPI DUP1 PUSH4 0xA7229FD9 EQ PUSH2 0x40B JUMPI DUP1 PUSH4 0xA98AD46C EQ PUSH2 0x3C7 JUMPI DUP1 PUSH4 0xB0AC4626 EQ PUSH2 0x3AB JUMPI DUP1 PUSH4 0xB2418AF8 EQ PUSH2 0x3A6 JUMPI DUP1 PUSH4 0xD3E848F1 EQ PUSH2 0x37D JUMPI DUP1 PUSH4 0xD4A90286 EQ PUSH2 0x2EE JUMPI DUP1 PUSH4 0xE1F1C4A7 EQ PUSH2 0x2D1 JUMPI DUP1 PUSH4 0xEB63E1C2 EQ PUSH2 0x2A8 JUMPI DUP1 PUSH4 0xF00B0093 EQ PUSH2 0x26C JUMPI DUP1 PUSH4 0xF2FDE38B EQ PUSH2 0x1F6 JUMPI DUP1 PUSH4 0xF3B36BF8 EQ PUSH2 0x1C9 JUMPI PUSH4 0xFB72CA35 EQ PUSH2 0x185 JUMPI PUSH1 0x0 DUP1 REVERT JUMPDEST CALLVALUE PUSH2 0x1C6 JUMPI PUSH1 0x20 CALLDATASIZE PUSH1 0x3 NOT ADD SLT PUSH2 0x1C6 JUMPI DUP3 SWAP1 PUSH1 0x1 PUSH1 0x1 PUSH1 0xA0 SHL SUB PUSH2 0x1A8 PUSH2 0x8D6 JUMP JUMPDEST AND DUP2 MSTORE PUSH1 0x3 PUSH1 0x20 MSTORE DUP2 DUP2 KECCAK256 SLOAD SWAP3 PUSH1 0x20 MSTORE KECCAK256 SLOAD DUP3 MLOAD SWAP2 DUP3 MSTORE PUSH1 0x20 DUP3 ADD MSTORE RETURN JUMPDEST DUP1 REVERT JUMPDEST POP SWAP2 SWAP1 CALLVALUE PUSH2 0x1F2 JUMPI PUSH1 0x20 CALLDATASIZE PUSH1 0x3 NOT ADD SLT PUSH2 0x1F2 JUMPI PUSH1 0x20 SWAP3 DUP3 SWAP2 CALLDATALOAD DUP2 MSTORE PUSH1 0x2 DUP5 MSTORE KECCAK256 SLOAD SWAP1 MLOAD SWAP1 DUP2 MSTORE RETURN JUMPDEST DUP3 DUP1 REVERT JUMPDEST POP SWAP2 SWAP1 CALLVALUE PUSH2 0x1F2 JUMPI PUSH1 0x20 CALLDATASIZE PUSH1 0x3 NOT ADD SLT PUSH2 0x1F2 JUMPI PUSH2 0x212 PUSH2 0x8D6 JUMP JUMPDEST SWAP1 PUSH2 0x21B PUSH2 0x979 JUMP JUMPDEST PUSH1 0x1 PUSH1 0x1 PUSH1 0xA0 SHL SUB SWAP2 DUP3 AND SWAP3 DUP4 ISZERO PUSH2 0x256 JUMPI POP POP DUP3 SLOAD PUSH1 0x1 PUSH1 0x1 PUSH1 0xA0 SHL SUB NOT DUP2 AND DUP4 OR DUP5 SSTORE AND PUSH1 0x0 DUP1 MLOAD PUSH1 0x20 PUSH2 0x1099 DUP4 CODECOPY DUP2 MLOAD SWAP2 MSTORE DUP4 DUP1 LOG3 DUP1 RETURN JUMPDEST MLOAD PUSH4 0x1E4FBDF7 PUSH1 0xE0 SHL DUP2 MSTORE SWAP1 DUP2 ADD DUP5 SWAP1 MSTORE PUSH1 0x24 SWAP1 REVERT JUMPDEST POP DUP3 CALLVALUE PUSH2 0x2A4 JUMPI PUSH1 0x20 CALLDATASIZE PUSH1 0x3 NOT ADD SLT PUSH2 0x2A4 JUMPI PUSH1 0x20 SWAP2 DUP2 SWAP1 PUSH1 0x1 PUSH1 0x1 PUSH1 0xA0 SHL SUB PUSH2 0x294 PUSH2 0x8D6 JUMP JUMPDEST AND DUP2 MSTORE PUSH1 0x3 DUP5 MSTORE KECCAK256 SLOAD SWAP1 MLOAD SWAP1 DUP2 MSTORE RETURN JUMPDEST POP DUP1 REVERT JUMPDEST POP SWAP2 SWAP1 CALLVALUE PUSH2 0x1F2 JUMPI PUSH1 0x20 CALLDATASIZE PUSH1 0x3 NOT ADD SLT PUSH2 0x1F2 JUMPI PUSH1 0x20 SWAP3 DUP3 SWAP2 CALLDATALOAD DUP2 MSTORE PUSH1 0x1 DUP5 MSTORE KECCAK256 SLOAD SWAP1 MLOAD SWAP1 DUP2 MSTORE RETURN JUMPDEST POP DUP3 CALLVALUE PUSH2 0x2A4 JUMPI DUP2 PUSH1 0x3 NOT CALLDATASIZE ADD SLT PUSH2 0x2A4 JUMPI PUSH1 0x20 SWAP1 MLOAD PUSH2 0x2710 DUP2 MSTORE RETURN JUMPDEST POP CALLVALUE PUSH2 0x1C6 JUMPI PUSH2 0x2FD CALLDATASIZE PUSH2 0x919 JUMP JUMPDEST SWAP3 DUP2 DUP4 MSTORE PUSH1 0x1 PUSH1 0x20 MSTORE DUP5 DUP4 KECCAK256 SLOAD DUP5 LT ISZERO PUSH2 0x355 JUMPI PUSH1 0x60 DUP6 PUSH2 0x328 DUP7 DUP3 DUP8 DUP8 DUP2 MSTORE PUSH1 0x1 PUSH1 0x20 MSTORE KECCAK256 PUSH2 0xA3C JUMP JUMPDEST POP SWAP1 PUSH1 0x1 DUP1 PUSH1 0xA0 SHL SUB DUP3 SLOAD AND SWAP2 PUSH1 0xFF PUSH1 0x2 PUSH1 0x1 DUP4 ADD SLOAD SWAP3 ADD SLOAD AND SWAP1 DUP3 MLOAD SWAP4 DUP5 MSTORE PUSH1 0x20 DUP5 ADD MSTORE ISZERO ISZERO SWAP1 DUP3 ADD MSTORE RETURN JUMPDEST PUSH1 0x64 SWAP1 PUSH1 0x20 DUP7 MLOAD SWAP2 PUSH3 0x461BCD PUSH1 0xE5 SHL DUP4 MSTORE DUP3 ADD MSTORE PUSH1 0x2 PUSH1 0x24 DUP3 ADD MSTORE PUSH2 0x27A1 PUSH1 0xF1 SHL PUSH1 0x44 DUP3 ADD MSTORE REVERT JUMPDEST POP DUP3 CALLVALUE PUSH2 0x2A4 JUMPI DUP2 PUSH1 0x3 NOT CALLDATASIZE ADD SLT PUSH2 0x2A4 JUMPI PUSH1 0x12 SLOAD SWAP1 MLOAD PUSH1 0x1 PUSH1 0x1 PUSH1 0xA0 SHL SUB SWAP1 SWAP2 AND DUP2 MSTORE PUSH1 0x20 SWAP1 RETURN JUMPDEST PUSH2 0x94C JUMP JUMPDEST POP DUP3 CALLVALUE PUSH2 0x2A4 JUMPI DUP2 PUSH1 0x3 NOT CALLDATASIZE ADD SLT PUSH2 0x2A4 JUMPI PUSH1 0x20 SWAP1 MLOAD PUSH1 0xA DUP2 MSTORE RETURN JUMPDEST POP DUP3 CALLVALUE PUSH2 0x2A4 JUMPI DUP2 PUSH1 0x3 NOT CALLDATASIZE ADD SLT PUSH2 0x2A4 JUMPI MLOAD PUSH32 0x0 PUSH1 0x1 PUSH1 0x1 PUSH1 0xA0 SHL SUB AND DUP2 MSTORE PUSH1 0x20 SWAP1 RETURN JUMPDEST POP CALLVALUE PUSH2 0x1C6 JUMPI PUSH1 0x60 CALLDATASIZE PUSH1 0x3 NOT ADD SLT PUSH2 0x1C6 JUMPI PUSH2 0x425 PUSH2 0x8D6 JUMP JUMPDEST PUSH1 0x1 PUSH1 0x1 PUSH1 0xA0 SHL SUB PUSH1 0x24 CALLDATALOAD DUP2 DUP2 AND SWAP3 SWAP2 DUP4 DUP3 SUB PUSH2 0x45F JUMPI PUSH2 0x452 PUSH2 0x45C SWAP5 PUSH2 0x44B PUSH2 0x979 JUMP JUMPDEST ISZERO ISZERO PUSH2 0x9A5 JUMP JUMPDEST PUSH1 0x44 CALLDATALOAD SWAP3 AND PUSH2 0xECE JUMP JUMPDEST DUP1 RETURN JUMPDEST DUP5 DUP1 REVERT JUMPDEST POP DUP3 CALLVALUE PUSH2 0x2A4 JUMPI DUP2 PUSH1 0x3 NOT CALLDATASIZE ADD SLT PUSH2 0x2A4 JUMPI PUSH1 0x20 SWAP1 MLOAD PUSH2 0x7D0 DUP2 MSTORE RETURN JUMPDEST PUSH2 0x92F JUMP JUMPDEST POP DUP3 CALLVALUE PUSH2 0x2A4 JUMPI DUP2 PUSH1 0x3 NOT CALLDATASIZE ADD SLT PUSH2 0x2A4 JUMPI PUSH1 0x10 SLOAD SWAP1 MLOAD PUSH1 0x1 PUSH1 0x1 PUSH1 0xA0 SHL SUB SWAP1 SWAP2 AND DUP2 MSTORE PUSH1 0x20 SWAP1 RETURN JUMPDEST POP DUP3 CALLVALUE PUSH2 0x2A4 JUMPI DUP2 PUSH1 0x3 NOT CALLDATASIZE ADD SLT PUSH2 0x2A4 JUMPI SWAP1 SLOAD SWAP1 MLOAD PUSH1 0x1 PUSH1 0x1 PUSH1 0xA0 SHL SUB SWAP1 SWAP2 AND DUP2 MSTORE PUSH1 0x20 SWAP1 RETURN JUMPDEST POP CALLVALUE PUSH2 0x1C6 JUMPI PUSH1 0x20 CALLDATASIZE PUSH1 0x3 NOT ADD SLT PUSH2 0x1C6 JUMPI PUSH2 0x4F0 PUSH2 0x8D6 JUMP JUMPDEST PUSH2 0x4F8 PUSH2 0x979 JUMP JUMPDEST PUSH1 0x1 PUSH1 0x1 PUSH1 0xA0 SHL SUB AND PUSH2 0x50C DUP2 ISZERO ISZERO PUSH2 0x9A5 JUMP JUMPDEST PUSH1 0x10 DUP1 SLOAD PUSH1 0x1 PUSH1 0x1 PUSH1 0xA0 SHL SUB NOT AND DUP3 OR SWAP1 SSTORE PUSH32 0xBB7F7A4723348C574D05B1AC3745E0E61D0F9DD743EDB6FB146C91B28DDED54A DUP3 DUP1 LOG2 DUP1 RETURN JUMPDEST POP CALLVALUE PUSH2 0x1C6 JUMPI DUP1 PUSH1 0x3 NOT CALLDATASIZE ADD SLT PUSH2 0x1C6 JUMPI PUSH2 0x55E PUSH2 0x979 JUMP JUMPDEST DUP1 SLOAD PUSH1 0x1 PUSH1 0x1 PUSH1 0xA0 SHL SUB NOT DUP2 AND DUP3 SSTORE DUP2 SWAP1 PUSH1 0x1 PUSH1 0x1 PUSH1 0xA0 SHL SUB AND PUSH1 0x0 DUP1 MLOAD PUSH1 0x20 PUSH2 0x1099 DUP4 CODECOPY DUP2 MLOAD SWAP2 MSTORE DUP3 DUP1 LOG3 DUP1 RETURN JUMPDEST POP SWAP1 CALLVALUE PUSH2 0x2A4 JUMPI DUP3 PUSH1 0x3 NOT CALLDATASIZE ADD SLT PUSH2 0x2A4 JUMPI PUSH2 0x5A7 PUSH2 0x8D6 JUMP JUMPDEST PUSH1 0x10 SLOAD PUSH1 0x24 CALLDATALOAD SWAP3 SWAP1 CALLER PUSH1 0x1 PUSH1 0x1 PUSH1 0xA0 SHL SUB SWAP2 DUP3 AND EQ SWAP1 DUP2 ISZERO PUSH2 0x61C JUMPI JUMPDEST POP ISZERO PUSH2 0x5F4 JUMPI POP SWAP1 PUSH2 0x45C SWAP2 PUSH1 0x1 DUP3 LT ISZERO DUP1 PUSH2 0x5E9 JUMPI JUMPDEST PUSH2 0x5E4 SWAP1 PUSH2 0x9D6 JUMP JUMPDEST PUSH2 0xB0C JUMP JUMPDEST POP PUSH1 0xA DUP3 GT ISZERO PUSH2 0x5DB JUMP JUMPDEST PUSH1 0x64 SWAP1 PUSH1 0x20 DUP7 MLOAD SWAP2 PUSH3 0x461BCD PUSH1 0xE5 SHL DUP4 MSTORE DUP3 ADD MSTORE PUSH1 0x2 PUSH1 0x24 DUP3 ADD MSTORE PUSH2 0x4E41 PUSH1 0xF0 SHL PUSH1 0x44 DUP3 ADD MSTORE REVERT JUMPDEST SWAP1 POP DUP5 SLOAD AND CALLER EQ CODESIZE PUSH2 0x5C4 JUMP JUMPDEST POP CALLVALUE PUSH2 0x1C6 JUMPI PUSH1 0x20 CALLDATASIZE PUSH1 0x3 NOT ADD SLT PUSH2 0x1C6 JUMPI PUSH2 0x643 PUSH2 0x8D6 JUMP JUMPDEST PUSH2 0x64B PUSH2 0x979 JUMP JUMPDEST PUSH1 0x1 PUSH1 0x1 PUSH1 0xA0 SHL SUB AND PUSH2 0x65F DUP2 ISZERO ISZERO PUSH2 0x9A5 JUMP JUMPDEST PUSH1 0x11 DUP1 SLOAD PUSH1 0x1 PUSH1 0x1 PUSH1 0xA0 SHL SUB NOT AND DUP3 OR SWAP1 SSTORE PUSH32 0xAB7B7DE49B58C7A7FE6B06CA3D3F8BB2ABB971D7F68001E7309EF98FE2D85539 DUP3 DUP1 LOG2 DUP1 RETURN JUMPDEST POP DUP3 CALLVALUE PUSH2 0x2A4 JUMPI DUP2 PUSH1 0x3 NOT CALLDATASIZE ADD SLT PUSH2 0x2A4 JUMPI PUSH1 0x20 SWAP1 MLOAD PUSH1 0xC DUP2 MSTORE RETURN JUMPDEST POP DUP3 CALLVALUE PUSH2 0x2A4 JUMPI DUP2 PUSH1 0x3 NOT CALLDATASIZE ADD SLT PUSH2 0x2A4 JUMPI PUSH1 0x20 SWAP1 MLOAD PUSH1 0x9 DUP2 MSTORE RETURN JUMPDEST POP DUP3 SWAP1 CALLVALUE PUSH2 0x1C6 JUMPI PUSH1 0x20 CALLDATASIZE PUSH1 0x3 NOT ADD SLT PUSH2 0x1C6 JUMPI DUP3 CALLDATALOAD SWAP1 PUSH1 0x1 DUP3 LT ISZERO DUP1 PUSH2 0x726 JUMPI JUMPDEST PUSH2 0x6FB SWAP1 PUSH2 0x9D6 JUMP JUMPDEST PUSH1 0xB DUP3 LT ISZERO PUSH2 0x713 JUMPI PUSH1 0x20 DUP4 DUP4 PUSH1 0x5 ADD SLOAD SWAP1 MLOAD SWAP1 DUP2 MSTORE RETURN JUMPDEST PUSH4 0x4E487B71 PUSH1 0xE0 SHL DUP2 MSTORE PUSH1 0x32 DUP5 MSTORE PUSH1 0x24 SWAP1 REVERT JUMPDEST POP PUSH1 0xA DUP3 GT ISZERO PUSH2 0x6F2 JUMP JUMPDEST POP DUP3 CALLVALUE PUSH2 0x2A4 JUMPI DUP2 PUSH1 0x3 NOT CALLDATASIZE ADD SLT PUSH2 0x2A4 JUMPI PUSH1 0x11 SLOAD SWAP1 MLOAD PUSH1 0x1 PUSH1 0x1 PUSH1 0xA0 SHL SUB SWAP1 SWAP2 AND DUP2 MSTORE PUSH1 0x20 SWAP1 RETURN JUMPDEST POP SWAP2 CALLVALUE PUSH2 0x1F2 JUMPI PUSH2 0x76A CALLDATASIZE PUSH2 0x919 JUMP JUMPDEST SWAP3 SWAP1 SWAP2 PUSH2 0x775 PUSH2 0x979 JUMP JUMPDEST PUSH1 0x1 DUP4 LT ISZERO DUP1 PUSH2 0x7DC JUMPI JUMPDEST PUSH2 0x789 SWAP1 PUSH2 0x9D6 JUMP JUMPDEST DUP4 ISZERO PUSH2 0x7B4 JUMPI POP PUSH1 0xB DUP3 LT ISZERO PUSH2 0x7A1 JUMPI POP PUSH1 0x5 ADD SSTORE DUP1 RETURN JUMPDEST PUSH4 0x4E487B71 PUSH1 0xE0 SHL DUP5 MSTORE PUSH1 0x32 SWAP1 MSTORE PUSH1 0x24 DUP4 REVERT JUMPDEST SWAP1 PUSH1 0x20 PUSH1 0x64 SWAP3 MLOAD SWAP2 PUSH3 0x461BCD PUSH1 0xE5 SHL DUP4 MSTORE DUP3 ADD MSTORE PUSH1 0x2 PUSH1 0x24 DUP3 ADD MSTORE PUSH2 0x503 PUSH1 0xF4 SHL PUSH1 0x44 DUP3 ADD MSTORE REVERT JUMPDEST POP PUSH1 0xA DUP4 GT ISZERO PUSH2 0x780 JUMP JUMPDEST POP SWAP2 SWAP1 CALLVALUE PUSH2 0x1F2 JUMPI PUSH1 0x20 CALLDATASIZE PUSH1 0x3 NOT ADD SLT PUSH2 0x1F2 JUMPI CALLDATALOAD PUSH1 0xB DUP2 LT ISZERO PUSH2 0x1F2 JUMPI PUSH1 0x20 SWAP3 POP PUSH1 0x5 ADD SLOAD SWAP1 MLOAD SWAP1 DUP2 MSTORE RETURN JUMPDEST POP SWAP2 SWAP1 CALLVALUE PUSH2 0x1F2 JUMPI PUSH1 0x20 CALLDATASIZE PUSH1 0x3 NOT ADD SLT PUSH2 0x1F2 JUMPI PUSH1 0x20 SWAP3 DUP3 SWAP2 PUSH1 0x1 PUSH1 0x1 PUSH1 0xA0 SHL SUB PUSH2 0x83D PUSH2 0x8D6 JUMP JUMPDEST AND DUP3 MSTORE DUP5 MSTORE KECCAK256 SLOAD SWAP1 MLOAD SWAP1 DUP2 MSTORE RETURN JUMPDEST POP CALLVALUE PUSH2 0x1C6 JUMPI PUSH1 0x20 CALLDATASIZE PUSH1 0x3 NOT ADD SLT PUSH2 0x1C6 JUMPI PUSH2 0x865 PUSH2 0x8D6 JUMP JUMPDEST PUSH2 0x86D PUSH2 0x979 JUMP JUMPDEST PUSH1 0x1 PUSH1 0x1 PUSH1 0xA0 SHL SUB AND PUSH2 0x881 DUP2 ISZERO ISZERO PUSH2 0x9A5 JUMP JUMPDEST PUSH1 0x12 DUP1 SLOAD PUSH1 0x1 PUSH1 0x1 PUSH1 0xA0 SHL SUB NOT AND DUP3 OR SWAP1 SSTORE PUSH32 0xD585F32D2260B0CD69A1E4FC82FFEDFEBDACBC10727EE026264133BA6D20F8E7 DUP3 DUP1 LOG2 DUP1 RETURN JUMPDEST SWAP1 POP CALLVALUE PUSH2 0x2A4 JUMPI DUP2 PUSH1 0x3 NOT CALLDATASIZE ADD SLT PUSH2 0x2A4 JUMPI DUP1 PUSH2 0x222E PUSH1 0x20 SWAP3 MSTORE RETURN JUMPDEST PUSH1 0x4 CALLDATALOAD SWAP1 PUSH1 0x1 PUSH1 0x1 PUSH1 0xA0 SHL SUB DUP3 AND DUP3 SUB PUSH2 0x8EC JUMPI JUMP JUMPDEST PUSH1 0x0 DUP1 REVERT JUMPDEST PUSH1 0xB DUP2 LT ISZERO PUSH2 0x903 JUMPI PUSH1 0x5 ADD SWAP1 PUSH1 0x0 SWAP1 JUMP JUMPDEST PUSH4 0x4E487B71 PUSH1 0xE0 SHL PUSH1 0x0 MSTORE PUSH1 0x32 PUSH1 0x4 MSTORE PUSH1 0x24 PUSH1 0x0 REVERT JUMPDEST PUSH1 0x40 SWAP1 PUSH1 0x3 NOT ADD SLT PUSH2 0x8EC JUMPI PUSH1 0x4 CALLDATALOAD SWAP1 PUSH1 0x24 CALLDATALOAD SWAP1 JUMP JUMPDEST CALLVALUE PUSH2 0x8EC JUMPI PUSH1 0x0 CALLDATASIZE PUSH1 0x3 NOT ADD SLT PUSH2 0x8EC JUMPI PUSH1 0x20 PUSH1 0x40 MLOAD PUSH2 0xFA0 DUP2 MSTORE RETURN JUMPDEST CALLVALUE PUSH2 0x8EC JUMPI PUSH1 0x0 CALLDATASIZE PUSH1 0x3 NOT ADD SLT PUSH2 0x8EC JUMPI PUSH1 0x20 PUSH1 0x40 MLOAD PUSH2 0x271 DUP2 MSTORE RETURN JUMPDEST PUSH1 0x0 MSTORE PUSH1 0x1 PUSH1 0x20 MSTORE PUSH1 0x40 PUSH1 0x0 KECCAK256 SWAP1 JUMP JUMPDEST PUSH1 0x0 SLOAD PUSH1 0x1 PUSH1 0x1 PUSH1 0xA0 SHL SUB AND CALLER SUB PUSH2 0x98D JUMPI JUMP JUMPDEST PUSH1 0x40 MLOAD PUSH4 0x118CDAA7 PUSH1 0xE0 SHL DUP2 MSTORE CALLER PUSH1 0x4 DUP3 ADD MSTORE PUSH1 0x24 SWAP1 REVERT JUMPDEST ISZERO PUSH2 0x9AC JUMPI JUMP JUMPDEST PUSH1 0x40 MLOAD PUSH3 0x461BCD PUSH1 0xE5 SHL DUP2 MSTORE PUSH1 0x20 PUSH1 0x4 DUP3 ADD MSTORE PUSH1 0x2 PUSH1 0x24 DUP3 ADD MSTORE PUSH2 0x5A41 PUSH1 0xF0 SHL PUSH1 0x44 DUP3 ADD MSTORE PUSH1 0x64 SWAP1 REVERT JUMPDEST ISZERO PUSH2 0x9DD JUMPI JUMP JUMPDEST PUSH1 0x40 MLOAD PUSH3 0x461BCD PUSH1 0xE5 SHL DUP2 MSTORE PUSH1 0x20 PUSH1 0x4 DUP3 ADD MSTORE PUSH1 0x2 PUSH1 0x24 DUP3 ADD MSTORE PUSH2 0x1093 PUSH1 0xF2 SHL PUSH1 0x44 DUP3 ADD MSTORE PUSH1 0x64 SWAP1 REVERT JUMPDEST PUSH1 0x40 MLOAD SWAP1 PUSH1 0x60 DUP3 ADD PUSH1 0x1 PUSH1 0x1 PUSH1 0x40 SHL SUB DUP2 GT DUP4 DUP3 LT OR PUSH2 0xA26 JUMPI PUSH1 0x40 MSTORE JUMP JUMPDEST PUSH4 0x4E487B71 PUSH1 0xE0 SHL PUSH1 0x0 MSTORE PUSH1 0x41 PUSH1 0x4 MSTORE PUSH1 0x24 PUSH1 0x0 REVERT JUMPDEST DUP1 SLOAD DUP3 LT ISZERO PUSH2 0x903 JUMPI PUSH1 0x0 MSTORE PUSH1 0x3 PUSH1 0x20 PUSH1 0x0 KECCAK256 SWAP2 MUL ADD SWAP1 PUSH1 0x0 SWAP1 JUMP JUMPDEST DUP1 SLOAD PUSH1 0x1 PUSH1 0x40 SHL DUP2 LT ISZERO PUSH2 0xA26 JUMPI PUSH2 0xA75 SWAP2 PUSH1 0x1 DUP3 ADD DUP2 SSTORE PUSH2 0xA3C JUMP JUMPDEST PUSH2 0xAB4 JUMPI PUSH1 0x2 PUSH1 0x40 SWAP2 PUSH1 0x1 DUP1 PUSH1 0xA0 SHL SUB DUP5 MLOAD AND PUSH1 0x1 DUP1 PUSH1 0xA0 SHL SUB NOT DUP3 SLOAD AND OR DUP2 SSTORE PUSH1 0x20 DUP5 ADD MLOAD PUSH1 0x1 DUP3 ADD SSTORE ADD SWAP2 ADD MLOAD ISZERO ISZERO PUSH1 0xFF DUP1 NOT DUP4 SLOAD AND SWAP2 AND OR SWAP1 SSTORE JUMP JUMPDEST PUSH4 0x4E487B71 PUSH1 0xE0 SHL PUSH1 0x0 MSTORE PUSH1 0x0 PUSH1 0x4 MSTORE PUSH1 0x24 PUSH1 0x0 REVERT JUMPDEST PUSH1 0x0 NOT DUP2 ADD SWAP2 SWAP1 DUP3 GT PUSH2 0xAD9 JUMPI JUMP JUMPDEST PUSH4 0x4E487B71 PUSH1 0xE0 SHL PUSH1 0x0 MSTORE PUSH1 0x11 PUSH1 0x4 MSTORE PUSH1 0x24 PUSH1 0x0 REVERT JUMPDEST PUSH1 0x0 NOT DUP2 EQ PUSH2 0xAD9 JUMPI PUSH1 0x1 ADD SWAP1 JUMP JUMPDEST SWAP1 PUSH1 0x1 DUP3 ADD DUP1 SWAP3 GT PUSH2 0xAD9 JUMPI JUMP JUMPDEST SWAP1 PUSH2 0xB41 PUSH2 0xB19 DUP3 PUSH2 0x969 JUMP JUMPDEST PUSH2 0xB21 PUSH2 0xA07 JUMP JUMPDEST PUSH1 0x1 PUSH1 0x1 PUSH1 0xA0 SHL SUB DUP6 AND DUP2 MSTORE SWAP1 PUSH1 0x0 PUSH1 0x20 DUP4 ADD MSTORE PUSH1 0x0 PUSH1 0x40 DUP4 ADD MSTORE PUSH2 0xA58 JUMP JUMPDEST DUP1 PUSH2 0xB54 PUSH2 0xB4E DUP3 PUSH2 0x969 JUMP JUMPDEST SLOAD PUSH2 0xACA JUMP JUMPDEST PUSH1 0x1 PUSH1 0x1 PUSH1 0xA0 SHL SUB DUP5 AND PUSH1 0x0 SWAP1 DUP2 MSTORE PUSH1 0x3 PUSH1 0x20 MSTORE PUSH1 0x40 SWAP1 KECCAK256 SWAP1 SWAP4 SWAP1 PUSH2 0xB79 DUP2 SLOAD PUSH2 0xAEF JUMP JUMPDEST SWAP1 SSTORE PUSH1 0x40 MLOAD DUP5 DUP2 MSTORE PUSH1 0x1 PUSH1 0x1 PUSH1 0xA0 SHL SUB SWAP2 SWAP1 SWAP2 AND SWAP1 PUSH32 0x4E755DD64E53A9F7A5882E2E32EB64718C2273DE11E017BD47129B9FE2716D7C SWAP1 PUSH1 0x20 SWAP1 LOG3 PUSH2 0xBC8 DUP2 PUSH1 0x0 MSTORE PUSH1 0x2 PUSH1 0x20 MSTORE PUSH1 0x40 PUSH1 0x0 KECCAK256 SWAP1 JUMP JUMPDEST SLOAD SWAP2 DUP3 LT PUSH2 0xBD4 JUMPI POP POP JUMP JUMPDEST PUSH2 0xBE6 DUP3 PUSH2 0xBE1 DUP4 PUSH2 0x969 JUMP JUMPDEST PUSH2 0xA3C JUMP JUMPDEST POP SWAP2 PUSH1 0xC PUSH1 0x1 DUP5 ADD PUSH2 0xBF8 DUP2 SLOAD PUSH2 0xAEF JUMP JUMPDEST DUP1 SWAP2 SSTORE LT ISZERO PUSH2 0xC07 JUMPI JUMPDEST POP POP POP JUMP JUMPDEST DUP3 PUSH2 0xC2B PUSH2 0xC4D SWAP3 PUSH2 0xC26 PUSH1 0x2 PUSH2 0xC52 SWAP8 ADD PUSH1 0x1 PUSH1 0xFF NOT DUP3 SLOAD AND OR SWAP1 SSTORE JUMP JUMPDEST PUSH2 0xAFE JUMP JUMPDEST PUSH2 0xC3F DUP5 PUSH1 0x0 MSTORE PUSH1 0x2 PUSH1 0x20 MSTORE PUSH1 0x40 PUSH1 0x0 KECCAK256 SWAP1 JUMP JUMPDEST SSTORE SLOAD PUSH1 0x1 PUSH1 0x1 PUSH1 0xA0 SHL SUB AND SWAP1 JUMP JUMPDEST PUSH2 0xCC6 JUMP JUMPDEST JUMP JUMPDEST SWAP1 PUSH1 0x9 DUP3 MUL SWAP2 DUP1 DUP4 DIV PUSH1 0x9 EQ SWAP1 ISZERO OR ISZERO PUSH2 0xAD9 JUMPI JUMP JUMPDEST SWAP1 PUSH2 0x222E SWAP2 DUP3 DUP2 MUL SWAP3 DUP2 DUP5 DIV EQ SWAP1 ISZERO OR ISZERO PUSH2 0xAD9 JUMPI JUMP JUMPDEST SWAP1 PUSH2 0x271 SWAP2 DUP3 DUP2 MUL SWAP3 DUP2 DUP5 DIV EQ SWAP1 ISZERO OR ISZERO PUSH2 0xAD9 JUMPI JUMP JUMPDEST SWAP1 PUSH2 0xFA0 SWAP2 DUP3 DUP2 MUL SWAP3 DUP2 DUP5 DIV EQ SWAP1 ISZERO OR ISZERO PUSH2 0xAD9 JUMPI JUMP JUMPDEST SWAP1 PUSH2 0x7D0 SWAP2 DUP3 DUP2 MUL SWAP3 DUP2 DUP5 DIV EQ SWAP1 ISZERO OR ISZERO PUSH2 0xAD9 JUMPI JUMP JUMPDEST PUSH2 0xCE4 PUSH2 0xCDF PUSH2 0xCD5 DUP5 PUSH2 0x8F1 JUMP JUMPDEST SWAP1 SLOAD SWAP1 PUSH1 0x3 SHL SHR SWAP1 JUMP JUMPDEST PUSH2 0xC54 JUMP JUMPDEST PUSH1 0xA DUP4 LT ISZERO PUSH2 0xDB1 JUMPI DUP3 PUSH2 0xC52 SWAP4 DUP3 PUSH1 0x0 DUP1 MLOAD PUSH1 0x20 PUSH2 0x1079 DUP4 CODECOPY DUP2 MLOAD SWAP2 MSTORE PUSH2 0xD2F PUSH2 0xD17 PUSH2 0xD1F PUSH2 0xD17 PUSH2 0xD71 SWAP9 PUSH2 0xC98 JUMP JUMPDEST PUSH2 0x2710 SWAP1 DIV SWAP1 JUMP JUMPDEST SWAP4 PUSH2 0xD29 DUP2 PUSH2 0xC98 JUMP JUMPDEST POP PUSH2 0xCAF JUMP JUMPDEST PUSH2 0xD3A DUP5 DUP5 DUP10 PUSH2 0xF4F JUMP JUMPDEST PUSH1 0x11 SLOAD PUSH1 0x1 PUSH1 0x1 PUSH1 0xA0 SHL SUB SWAP1 DUP2 AND DUP3 DUP2 ISZERO ISZERO DUP1 PUSH2 0xDA8 JUMPI JUMPDEST PUSH2 0xD77 JUMPI JUMPDEST POP POP PUSH1 0x40 DUP1 MLOAD SWAP5 DUP6 MSTORE PUSH1 0x20 DUP6 ADD SWAP3 SWAP1 SWAP3 MSTORE DUP8 AND SWAP3 LOG3 PUSH2 0xAFE JUMP JUMPDEST SWAP1 PUSH2 0xB0C JUMP JUMPDEST PUSH2 0xDA1 SWAP2 PUSH32 0x0 PUSH2 0xECE JUMP JUMPDEST CODESIZE DUP3 PUSH2 0xD57 JUMP JUMPDEST POP DUP1 ISZERO ISZERO PUSH2 0xD52 JUMP JUMPDEST DUP1 PUSH2 0xDCD PUSH2 0xD17 PUSH1 0x0 DUP1 MLOAD PUSH1 0x20 PUSH2 0x1079 DUP4 CODECOPY DUP2 MLOAD SWAP2 MSTORE SWAP4 PUSH2 0xC6A JUMP JUMPDEST SWAP3 PUSH2 0xE55 PUSH2 0xDE9 PUSH2 0xD17 PUSH2 0xDE3 PUSH2 0xD17 DUP7 PUSH2 0xC81 JUMP JUMPDEST SWAP5 PUSH2 0xC81 JUMP JUMPDEST PUSH2 0xDF4 DUP8 DUP8 DUP6 PUSH2 0xF4F JUMP JUMPDEST PUSH1 0x12 SLOAD PUSH1 0x1 PUSH1 0x1 PUSH1 0xA0 SHL SUB AND PUSH1 0x1 PUSH1 0x1 PUSH1 0xA0 SHL SUB SWAP5 DUP2 DUP7 AND ISZERO ISZERO DUP1 PUSH2 0xEC5 JUMPI JUMPDEST PUSH2 0xE94 JUMPI JUMPDEST POP POP PUSH1 0x11 SLOAD PUSH1 0x1 PUSH1 0x1 PUSH1 0xA0 SHL SUB AND DUP2 DUP6 DUP3 AND ISZERO ISZERO DUP1 PUSH2 0xE8B JUMPI JUMPDEST PUSH2 0xE5A JUMPI JUMPDEST POP POP PUSH1 0x40 MLOAD SWAP4 DUP5 SWAP4 AND SWAP6 DUP4 PUSH1 0x20 SWAP1 SWAP4 SWAP3 SWAP2 SWAP4 PUSH1 0x40 DUP2 ADD SWAP5 DUP2 MSTORE ADD MSTORE JUMP JUMPDEST SUB SWAP1 LOG3 JUMP JUMPDEST PUSH2 0xE84 SWAP2 PUSH32 0x0 PUSH2 0xECE JUMP JUMPDEST CODESIZE DUP2 PUSH2 0xE38 JUMP JUMPDEST POP DUP1 ISZERO ISZERO PUSH2 0xE33 JUMP JUMPDEST PUSH2 0xEBE SWAP2 PUSH32 0x0 PUSH2 0xECE JUMP JUMPDEST CODESIZE DUP1 PUSH2 0xE19 JUMP JUMPDEST POP DUP1 ISZERO ISZERO PUSH2 0xE14 JUMP JUMPDEST PUSH1 0x40 MLOAD PUSH4 0xA9059CBB PUSH1 0xE0 SHL PUSH1 0x0 SWAP1 DUP2 MSTORE PUSH1 0x1 PUSH1 0x1 PUSH1 0xA0 SHL SUB SWAP4 DUP5 AND PUSH1 0x4 MSTORE PUSH1 0x24 SWAP5 SWAP1 SWAP5 MSTORE SWAP3 PUSH1 0x20 SWAP1 PUSH1 0x44 DUP2 DUP1 DUP6 GAS CALL PUSH1 0x1 PUSH1 0x0 MLOAD EQ DUP2 AND ISZERO PUSH2 0xF2F JUMPI JUMPDEST DUP4 PUSH1 0x40 MSTORE ISZERO PUSH2 0xF19 JUMPI POP POP POP JUMP JUMPDEST PUSH4 0x5274AFE7 PUSH1 0xE0 SHL DUP4 MSTORE AND PUSH1 0x4 DUP3 ADD MSTORE PUSH1 0x24 SWAP2 POP REVERT JUMPDEST PUSH1 0x1 DUP2 ISZERO AND PUSH2 0xF45 JUMPI DUP2 EXTCODESIZE ISZERO ISZERO RETURNDATASIZE ISZERO AND AND PUSH2 0xF0B JUMP JUMPDEST DUP4 RETURNDATASIZE PUSH1 0x0 DUP3 RETURNDATACOPY RETURNDATASIZE SWAP1 REVERT JUMPDEST SWAP1 DUP1 ISZERO PUSH2 0xC02 JUMPI PUSH1 0x1 DUP1 PUSH1 0xA0 SHL SUB DUP1 DUP4 AND SWAP1 PUSH1 0x0 SWAP4 DUP3 DUP6 MSTORE PUSH1 0x4 PUSH1 0x20 MSTORE PUSH1 0x40 DUP6 KECCAK256 DUP1 SLOAD SWAP1 DUP6 DUP3 ADD DUP1 SWAP3 GT PUSH2 0x1064 JUMPI SSTORE PUSH1 0x10 SLOAD DUP3 AND ISZERO PUSH2 0x1034 JUMPI POP PUSH2 0xFB8 DUP4 DUP3 PUSH1 0x10 SLOAD AND PUSH32 0x0 PUSH2 0xECE JUMP JUMPDEST PUSH1 0x10 SLOAD AND DUP1 EXTCODESIZE ISZERO PUSH2 0x1030 JUMPI DUP4 SWAP3 SWAP2 DUP4 PUSH1 0x64 SWAP3 PUSH1 0x40 MLOAD SWAP8 DUP9 SWAP6 DUP7 SWAP5 PUSH4 0x3C2DEE77 PUSH1 0xE2 SHL DUP7 MSTORE PUSH1 0x4 DUP7 ADD MSTORE PUSH1 0x24 DUP6 ADD MSTORE PUSH1 0x44 DUP5 ADD MSTORE GAS CALL DUP1 ISZERO PUSH2 0x1023 JUMPI PUSH2 0xFFB JUMPI POP POP JUMP JUMPDEST PUSH1 0x1 PUSH1 0x1 PUSH1 0x40 SHL SUB DUP3 GT PUSH2 0x100F JUMPI POP PUSH1 0x40 MSTORE JUMP JUMPDEST PUSH4 0x4E487B71 PUSH1 0xE0 SHL DUP2 MSTORE PUSH1 0x41 PUSH1 0x4 MSTORE PUSH1 0x24 SWAP1 REVERT JUMPDEST POP PUSH1 0x40 MLOAD SWAP1 RETURNDATASIZE SWAP1 DUP3 RETURNDATACOPY RETURNDATASIZE SWAP1 REVERT JUMPDEST DUP4 DUP1 REVERT JUMPDEST SWAP3 SWAP4 POP POP POP PUSH2 0xC52 SWAP3 POP PUSH32 0x0 PUSH2 0xECE JUMP JUMPDEST PUSH4 0x4E487B71 PUSH1 0xE0 SHL DUP8 MSTORE PUSH1 0x11 PUSH1 0x4 MSTORE PUSH1 0x24 DUP8 REVERT INVALID 0xC9 0xDF 0xD5 DIV PUSH15 0x5F1BE95C560D1B85295F8AFD28D010 0x2C KECCAK256 0xE0 0xB4 GT 0x2B DUP9 0xBD ORIGIN DUP13 LOG4 CALLER DUP12 0xE0 SMOD SWAP13 MSTORE8 AND MSIZE EQ SGT PREVRANDAO 0xCD 0x1F 0xD0 LOG4 CALLCODE DUP5 NOT 0x49 PUSH32 0x9722A3DAAFE3B4186F6B6457E0A264697066735822122034DB9777D3F3E4BA9A 0xDE 0xEF SWAP15 MLOAD SWAP1 0xD7 CALLDATALOAD 0x1F SELFBALANCE ADDRESS 0xAE CALLCODE DUP16 CALLDATASIZE 0xAE 0xB3 DUP12 0xCA PUSH2 0x9025 SUB 0xD PUSH5 0x736F6C6343 STOP ADDMOD EQ STOP CALLER "},"methodIdentifiers":{"BASIS_POINTS()":"e1f1c4a7","BOARD_10_LIQUIDITY_RATE_BP()":"7d4cf0b8","BOARD_10_REWARD_RATE_BP()":"04841337","BOARD_10_SYSTEM_RATE_BP()":"b2418af8","BOARD_LIQUIDITY_RATE_BP()":"a5c34061","BOARD_MEMBERS_REQUIRED()":"4e759962","BOARD_NEXT_POOL_RATE_BP()":"9898fcd3","BOARD_POOL_MEMBERS()":"4b7fede0","BOARD_REWARD_RATE_BP()":"61dba5f3","TOTAL_BOARDS()":"b0ac4626","boardCurrentIndex(uint256)":"f3b36bf8","boardEntryCount(address)":"f00b0093","boardPrices(uint256)":"2389e78a","enterBoard(address,uint256)":"686a38bd","getBoardCurrentIndex(uint256)":"3ac272c2","getBoardMatrixInfo(uint256,uint256)":"d4a90286","getBoardPrice(uint256)":"47cd5191","getBoardQueueLength(uint256)":"eb63e1c2","getUserBoardStats(address)":"fb72ca35","liquidityAddress()":"3221c93f","mvaultContract()":"912a6a3a","owner()":"8da5cb5b","recoverToken(address,address,uint256)":"a7229fd9","renounceOwnership()":"715018a6","setBoardPrice(uint256,uint256)":"29d7f9eb","setLiquidityAddress(address)":"525fa81f","setMvaultContract(address)":"82b20202","setSystemAddress(address)":"06210197","systemAddress()":"d3e848f1","totalBoardRewardsEarned(address)":"2335821b","transferOwnership(address)":"f2fde38b","usdtToken()":"a98ad46c"}}}}}