{"contracts/MvaultToken.sol":{"MvaultToken":{"abi":[{"inputs":[{"internalType":"address","name":"_usdt","type":"address"}],"stateMutability":"nonpayable","type":"constructor"},{"inputs":[{"internalType":"address","name":"spender","type":"address"},{"internalType":"uint256","name":"allowance","type":"uint256"},{"internalType":"uint256","name":"needed","type":"uint256"}],"name":"ERC20InsufficientAllowance","type":"error"},{"inputs":[{"internalType":"address","name":"sender","type":"address"},{"internalType":"uint256","name":"balance","type":"uint256"},{"internalType":"uint256","name":"needed","type":"uint256"}],"name":"ERC20InsufficientBalance","type":"error"},{"inputs":[{"internalType":"address","name":"approver","type":"address"}],"name":"ERC20InvalidApprover","type":"error"},{"inputs":[{"internalType":"address","name":"receiver","type":"address"}],"name":"ERC20InvalidReceiver","type":"error"},{"inputs":[{"internalType":"address","name":"sender","type":"address"}],"name":"ERC20InvalidSender","type":"error"},{"inputs":[{"internalType":"address","name":"spender","type":"address"}],"name":"ERC20InvalidSpender","type":"error"},{"inputs":[],"name":"InsufficientBalance","type":"error"},{"inputs":[],"name":"InsufficientLiquidity","type":"error"},{"inputs":[],"name":"OnlyMvault","type":"error"},{"inputs":[{"internalType":"address","name":"owner","type":"address"}],"name":"OwnableInvalidOwner","type":"error"},{"inputs":[{"internalType":"address","name":"account","type":"address"}],"name":"OwnableUnauthorizedAccount","type":"error"},{"inputs":[],"name":"ReentrancyGuardReentrantCall","type":"error"},{"inputs":[],"name":"TransferFailed","type":"error"},{"inputs":[],"name":"ZeroAddress","type":"error"},{"inputs":[],"name":"ZeroAmount","type":"error"},{"anonymous":false,"inputs":[{"indexed":true,"internalType":"address","name":"owner","type":"address"},{"indexed":true,"internalType":"address","name":"spender","type":"address"},{"indexed":false,"internalType":"uint256","name":"value","type":"uint256"}],"name":"Approval","type":"event"},{"anonymous":false,"inputs":[{"indexed":true,"internalType":"address","name":"oldContract","type":"address"},{"indexed":true,"internalType":"address","name":"newContract","type":"address"}],"name":"MvaultContractUpdated","type":"event"},{"anonymous":false,"inputs":[{"indexed":true,"internalType":"address","name":"previousOwner","type":"address"},{"indexed":true,"internalType":"address","name":"newOwner","type":"address"}],"name":"OwnershipTransferred","type":"event"},{"anonymous":false,"inputs":[{"indexed":false,"internalType":"uint256","name":"newBuyPrice","type":"uint256"},{"indexed":false,"internalType":"uint256","name":"newSellPrice","type":"uint256"}],"name":"PriceUpdated","type":"event"},{"anonymous":false,"inputs":[{"indexed":true,"internalType":"address","name":"from","type":"address"},{"indexed":false,"internalType":"uint256","name":"mvtAmount","type":"uint256"},{"indexed":false,"internalType":"uint256","name":"usdtAmount","type":"uint256"}],"name":"TokensBurned","type":"event"},{"anonymous":false,"inputs":[{"indexed":true,"internalType":"address","name":"to","type":"address"},{"indexed":false,"internalType":"uint256","name":"usdtAmount","type":"uint256"},{"indexed":false,"internalType":"uint256","name":"mvtAmount","type":"uint256"}],"name":"TokensMinted","type":"event"},{"anonymous":false,"inputs":[{"indexed":true,"internalType":"address","name":"from","type":"address"},{"indexed":true,"internalType":"address","name":"to","type":"address"},{"indexed":false,"internalType":"uint256","name":"value","type":"uint256"}],"name":"Transfer","type":"event"},{"inputs":[],"name":"INITIAL_PRICE","outputs":[{"internalType":"uint256","name":"","type":"uint256"}],"stateMutability":"view","type":"function"},{"inputs":[],"name":"MINT_PERCENTAGE","outputs":[{"internalType":"uint256","name":"","type":"uint256"}],"stateMutability":"view","type":"function"},{"inputs":[],"name":"SELL_PERCENTAGE","outputs":[{"internalType":"uint256","name":"","type":"uint256"}],"stateMutability":"view","type":"function"},{"inputs":[{"internalType":"address","name":"_to","type":"address"},{"internalType":"uint256","name":"_usdtAmount","type":"uint256"}],"name":"addLiquidityAndMint","outputs":[],"stateMutability":"nonpayable","type":"function"},{"inputs":[{"internalType":"address","name":"owner","type":"address"},{"internalType":"address","name":"spender","type":"address"}],"name":"allowance","outputs":[{"internalType":"uint256","name":"","type":"uint256"}],"stateMutability":"view","type":"function"},{"inputs":[{"internalType":"address","name":"spender","type":"address"},{"internalType":"uint256","name":"value","type":"uint256"}],"name":"approve","outputs":[{"internalType":"bool","name":"","type":"bool"}],"stateMutability":"nonpayable","type":"function"},{"inputs":[{"internalType":"address","name":"account","type":"address"}],"name":"balanceOf","outputs":[{"internalType":"uint256","name":"","type":"uint256"}],"stateMutability":"view","type":"function"},{"inputs":[],"name":"decimals","outputs":[{"internalType":"uint8","name":"","type":"uint8"}],"stateMutability":"pure","type":"function"},{"inputs":[],"name":"getBuyPrice","outputs":[{"internalType":"uint256","name":"","type":"uint256"}],"stateMutability":"view","type":"function"},{"inputs":[{"internalType":"address","name":"user","type":"address"},{"internalType":"uint256","name":"count","type":"uint256"}],"name":"getRecentTransfers","outputs":[{"internalType":"uint256[]","name":"usdtAmounts","type":"uint256[]"},{"internalType":"uint256[]","name":"mvtAmounts","type":"uint256[]"},{"internalType":"uint256[]","name":"timestamps","type":"uint256[]"},{"internalType":"uint8[]","name":"types","type":"uint8[]"}],"stateMutability":"view","type":"function"},{"inputs":[],"name":"getSellPrice","outputs":[{"internalType":"uint256","name":"","type":"uint256"}],"stateMutability":"view","type":"function"},{"inputs":[],"name":"getTotalAvailableTokens","outputs":[{"internalType":"uint256","name":"","type":"uint256"}],"stateMutability":"view","type":"function"},{"inputs":[{"internalType":"address","name":"user","type":"address"}],"name":"getTotalBurnedByUser","outputs":[{"internalType":"uint256","name":"","type":"uint256"}],"stateMutability":"view","type":"function"},{"inputs":[],"name":"getTotalBurnedTokens","outputs":[{"internalType":"uint256","name":"","type":"uint256"}],"stateMutability":"view","type":"function"},{"inputs":[],"name":"getTotalLiquidity","outputs":[{"internalType":"uint256","name":"","type":"uint256"}],"stateMutability":"view","type":"function"},{"inputs":[],"name":"getTotalMintedTokens","outputs":[{"internalType":"uint256","name":"","type":"uint256"}],"stateMutability":"view","type":"function"},{"inputs":[{"internalType":"address","name":"user","type":"address"}],"name":"getTotalReceivedByUser","outputs":[{"internalType":"uint256","name":"","type":"uint256"}],"stateMutability":"view","type":"function"},{"inputs":[{"internalType":"address","name":"user","type":"address"}],"name":"getUserTransferCount","outputs":[{"internalType":"uint256","name":"","type":"uint256"}],"stateMutability":"view","type":"function"},{"inputs":[{"internalType":"address","name":"user","type":"address"},{"internalType":"uint256","name":"start","type":"uint256"},{"internalType":"uint256","name":"limit","type":"uint256"}],"name":"getUserTransferHistory","outputs":[{"internalType":"uint256[]","name":"usdtAmounts","type":"uint256[]"},{"internalType":"uint256[]","name":"mvtAmounts","type":"uint256[]"},{"internalType":"uint256[]","name":"timestamps","type":"uint256[]"},{"internalType":"uint8[]","name":"types","type":"uint8[]"}],"stateMutability":"view","type":"function"},{"inputs":[],"name":"mvaultContract","outputs":[{"internalType":"address","name":"","type":"address"}],"stateMutability":"view","type":"function"},{"inputs":[],"name":"name","outputs":[{"internalType":"string","name":"","type":"string"}],"stateMutability":"view","type":"function"},{"inputs":[],"name":"owner","outputs":[{"internalType":"address","name":"","type":"address"}],"stateMutability":"view","type":"function"},{"inputs":[],"name":"renounceOwnership","outputs":[],"stateMutability":"nonpayable","type":"function"},{"inputs":[{"internalType":"uint256","name":"_amount","type":"uint256"}],"name":"sell","outputs":[],"stateMutability":"nonpayable","type":"function"},{"inputs":[{"internalType":"address","name":"_contract","type":"address"}],"name":"setMvaultContract","outputs":[],"stateMutability":"nonpayable","type":"function"},{"inputs":[],"name":"symbol","outputs":[{"internalType":"string","name":"","type":"string"}],"stateMutability":"view","type":"function"},{"inputs":[],"name":"totalBurned","outputs":[{"internalType":"uint256","name":"","type":"uint256"}],"stateMutability":"view","type":"function"},{"inputs":[{"internalType":"address","name":"","type":"address"}],"name":"totalBurnedByUser","outputs":[{"internalType":"uint256","name":"","type":"uint256"}],"stateMutability":"view","type":"function"},{"inputs":[],"name":"totalLiquidity","outputs":[{"internalType":"uint256","name":"","type":"uint256"}],"stateMutability":"view","type":"function"},{"inputs":[],"name":"totalMinted","outputs":[{"internalType":"uint256","name":"","type":"uint256"}],"stateMutability":"view","type":"function"},{"inputs":[{"internalType":"address","name":"","type":"address"}],"name":"totalReceivedByUser","outputs":[{"internalType":"uint256","name":"","type":"uint256"}],"stateMutability":"view","type":"function"},{"inputs":[],"name":"totalSupply","outputs":[{"internalType":"uint256","name":"","type":"uint256"}],"stateMutability":"view","type":"function"},{"inputs":[{"internalType":"address","name":"to","type":"address"},{"internalType":"uint256","name":"value","type":"uint256"}],"name":"transfer","outputs":[{"internalType":"bool","name":"","type":"bool"}],"stateMutability":"nonpayable","type":"function"},{"inputs":[{"internalType":"address","name":"from","type":"address"},{"internalType":"address","name":"to","type":"address"},{"internalType":"uint256","name":"value","type":"uint256"}],"name":"transferFrom","outputs":[{"internalType":"bool","name":"","type":"bool"}],"stateMutability":"nonpayable","type":"function"},{"inputs":[{"internalType":"address","name":"newOwner","type":"address"}],"name":"transferOwnership","outputs":[],"stateMutability":"nonpayable","type":"function"},{"inputs":[],"name":"usdtToken","outputs":[{"internalType":"contract IERC20","name":"","type":"address"}],"stateMutability":"view","type":"function"},{"inputs":[{"internalType":"address","name":"to","type":"address"},{"internalType":"uint256","name":"amount","type":"uint256"}],"name":"withdrawUSDT","outputs":[],"stateMutability":"nonpayable","type":"function"}],"evm":{"bytecode":{"linkReferences":{},"object":"60a034620003fa57601f90601f196001600160401b0362001b29388190038581018416850183811186821017620002fe57859282916040528339602094859181010312620003fa57516001600160a01b038082169490929091859003620003fa576200006a620003ff565b91600c83526b26bb30bab63a102a37b5b2b760a11b818401526200008d620003ff565b966003918289526213559560ea1b818a01528451848111620002fe5783546001968782811c92168015620003ef575b84831014620003d957818584931162000383575b508390858311600114620003205760009262000314575b505060001982861b1c191690861b1783555b8851938411620002fe5760049687548681811c91168015620002f3575b83821014620002de5783811162000293575b5081928511600114620002295750508293949596976000936200021d575b505082841b92600019911b1c19161783555b3315620002055760058054336001600160a01b03198216811790925560405193167f8be0079c531659141344cd1fd0a4f28419497f9722a3daafe3b4186f6b6457e0600080a37f9b779b17422d0df92223018b32b4d1fa46e071723d6817e2486d003becc55f00558215620001f957826080526040516117099081620004208239608051818181610380015281816105a6015281816106dd0152610d650152f35b63d92e233d60e01b8152fd5b604051631e4fbdf760e01b8152600081850152602490fd5b01519150388062000146565b60008881528281209186169a919493925b8b82106200027b57505084869798999a1062000260575b50505050811b01835562000158565b01519060f884600019921b161c191690553880808062000251565b8088859782949686015181550196019301906200023a565b88600052826000208480880160051c820192858910620002d4575b0160051c019087905b828110620002c757505062000128565b60008155018790620002b7565b92508192620002ae565b602289634e487b7160e01b6000525260246000fd5b90607f169062000116565b634e487b7160e01b600052604160045260246000fd5b015190503880620000e7565b908a8994169187600052856000209260005b878282106200036c575050841162000353575b505050811b018355620000f9565b015160001983881b60f8161c1916905538808062000345565b8385015186558c9790950194938401930162000332565b90915085600052836000208580850160051c820192868610620003cf575b918a91869594930160051c01915b828110620003bf575050620000d0565b600081558594508a9101620003af565b92508192620003a1565b634e487b7160e01b600052602260045260246000fd5b91607f1691620000bc565b600080fd5b60408051919082016001600160401b03811183821017620002fe5760405256fe6040608081526004908136101561001557600080fd5b600091823560e01c908163018a25e814610f9f57816301c46b3914610b9757816306fdde0314610ec8578163085fb1f914610e9e578163095ea7b314610df45781631481794e14610d0057816315770f9214610bdf57816318160ddd14610b9c57816323b872dd14610c1a5781632af0e2511461053a578163313ce56714610bfe57816334e8c1a41461055957816335c7e92514610bdf57816343d32e9c14610bbb578163528cc11314610b9c5781635e25ebcc146106065781635ff74b9114610b9757816370a0823114610b60578163715018a614610b12578163723d916714610ada5781637c5e279514610ab757816382b2020214610a365781638a672bfe146109f95781638da5cb5b146109d0578163912a6a3a146109a757816395d89b41146108c15781639ca71b261461065d578163a2309ff81461063e578163a605928614610606578163a9059cbb146105d5578163a98ad46c14610591578163d36689a814610559578163d89135cd1461053a578163dd62ed3e146104f1578163e4849b3214610257578163f2fde38b146101db575063f67a769c146101ba57600080fd5b346101d757816003193601126101d7576020906008549051908152f35b5080fd5b905034610253576020366003190112610253576101f6611026565b906101ff6110fa565b6001600160a01b0391821692831561023d575050600580546001600160a01b031981168417909155166000805160206116748339815191528380a380f35b51631e4fbdf760e01b8152908101849052602490fd5b8280fd5b8383346101d75760208060031936011261025357833561027561135d565b80156104e1573384528382528083852054106104d1576102936113f5565b80820290828204036104be57670de0b6b3a7640000900480600754106104ae576102bf8260095461126a565b600955338552600b83528385206102d783825461126a565b90556102e58160075461138d565b600755338552600c835261031a84862085519061030182611126565b83825284868301524287830152600260608301526112f7565b3315610497573385528483528385205482811061047557829033875286855203848620558160025403600255848451838152600080516020611694833981519152853392a3835163a9059cbb60e01b815283818061037b85338c840161139a565b0381897f00000000000000000000000000000000000000000000000000000000000000006001600160a01b03165af190811561046b57869161043e575b501561042e576000805160206116548339815191529495508351918252828201527fccbea4088a3b7ae9ca2d15fab9a9742a4075b4d7247768a1eecea917565aba00833392a26104066113b5565b9061040f6113f5565b908351928352820152a160016000805160206116b48339815191525580f35b83516312171d8360e31b81528690fd5b61045e9150843d8611610464575b6104568183611172565b81019061128d565b876103b8565b503d61044c565b85513d88823e3d90fd5b845163391434e360e21b815290819061049390859033848c0161124c565b0390fd5b8351634b637e8f60e11b8152808701869052602490fd5b835163bb55fd2760e01b81528690fd5b634e487b7160e01b855260118652602485fd5b8251631e9acf1760e31b81528590fd5b8251631f2a200560e01b81528590fd5b5050346101d757806003193601126101d7578060209261050f611026565b61051761103c565b6001600160a01b0391821683526001865283832091168252845220549051908152f35b5050346101d757816003193601126101d7576020906009549051908152f35b5050346101d75760203660031901126101d75760209181906001600160a01b03610581611026565b168152600a845220549051908152f35b5050346101d757816003193601126101d757517f00000000000000000000000000000000000000000000000000000000000000006001600160a01b03168152602090f35b5050346101d757806003193601126101d7576020906105ff6105f5611026565b6024359033611195565b5160018152f35b5050346101d75760203660031901126101d75760209181906001600160a01b0361062e611026565b168152600b845220549051908152f35b5050346101d757816003193601126101d7576020906008549051908152f35b8383346101d757806003193601126101d757610677611026565b6006546001600160a01b039160243591831633036108b157829061069961135d565b169182156108a157811561089157908492916106b36113b5565b908551906323b872dd60e01b825233898301523060248301528360448301528160648160209889947f0000000000000000000000000000000000000000000000000000000000000000165af190811561088757879161086a575b501561085a5761071f8260075461126a565b600755670de0b6b3a76400008202670de0b6b3a763ffff19838204016108475790610749916112a5565b605a810290808204605a1490151715610834576000805160206116548339815191529596507f2e8ac5177a616f2aec08c3048f5021e4e9743ece034e8d83ba5caf76688bb4759160648692046107a18160085461126a565b600855848952600a86528289206107b982825461126a565b9055848952600c86526107ec838a208451906107d482611126565b848252838983015242868301528b60608301526112f7565b6107f88160025461126a565b6002558489528886528289208181540190558489600080516020611694833981519152888651858152a3825191825285820152a26104066113b5565b634e487b7160e01b865260118752602486fd5b634e487b7160e01b875260118852602487fd5b84516312171d8360e31b81528790fd5b6108819150853d8711610464576104568183611172565b8861070d565b86513d89823e3d90fd5b8351631f2a200560e01b81528690fd5b835163d92e233d60e01b81528690fd5b83516372be3bcf60e11b81528690fd5b8383346101d757816003193601126101d757805191809380549160019083821c9282851694851561099d575b602095868610811461098a57858952908115610966575060011461092b575b610927878761091d828c0383611172565b5191829182610fdd565b0390f35b9080949750528583205b82841061095357505050826109279461091d9282010194868061090c565b8054868501880152928601928101610935565b60ff19168887015250505050151560051b830101925061091d82610927868061090c565b634e487b7160e01b845260228352602484fd5b93607f16936108ed565b5050346101d757816003193601126101d75760065490516001600160a01b039091168152602090f35b5050346101d757816003193601126101d75760055490516001600160a01b039091168152602090f35b5050346101d75760603660031901126101d75761092790610a28610a1b611026565b6044359060243590611483565b919492935194859485611086565b90503461025357602036600319011261025357610a51611026565b90610a5a6110fa565b6001600160a01b03918216928315610aaa575050600680546001600160a01b031981168417909155167f145033fa341d099593009e367b7da8f2c34749f310a5125cef34f20ee08914b08380a380f35b5163d92e233d60e01b8152fd5b5050346101d757816003193601126101d7576020905167016345785d8a00008152f35b5050346101d75760203660031901126101d75760209181906001600160a01b03610b02611026565b168152600c845220549051908152f35b8334610b5d5780600319360112610b5d57610b2b6110fa565b600580546001600160a01b0319811690915581906001600160a01b03166000805160206116748339815191528280a380f35b80fd5b5050346101d75760203660031901126101d75760209181906001600160a01b03610b88611026565b16815280845220549051908152f35b610fbc565b5050346101d757816003193601126101d7576020906002549051908152f35b5050346101d757816003193601126101d757602090610bd86113f5565b9051908152f35b5050346101d757816003193601126101d7576020906007549051908152f35b5050346101d757816003193601126101d7576020905160128152f35b90508234610b5d576060366003190112610b5d57610c36611026565b610c3e61103c565b916044359360018060a01b038316808352600160205286832033845260205286832054916000198310610c7a575b6020886105ff898989611195565b868310610ce2578115610ccb573315610cb4575082526001602090815286832033845281529186902090859003905582906105ff87610c6c565b8751634a1406b160e11b8152908101849052602490fd5b875163e602df0560e01b8152908101849052602490fd5b9050610493868851938493637dc7a0d960e11b85523390850161124c565b91905034610253578060031936011261025357610d1b611026565b60243590610d276110fa565b6001600160a01b039080821615610de4578215610dd45791602091610d619387865180968195829463a9059cbb60e01b84528b840161139a565b03927f0000000000000000000000000000000000000000000000000000000000000000165af1908115610dca578491610dac575b5015610d9f578280f35b516312171d8360e31b8152fd5b610dc4915060203d8111610464576104568183611172565b38610d95565b82513d86823e3d90fd5b50505051631f2a200560e01b8152fd5b5050505163d92e233d60e01b8152fd5b905034610253578160031936011261025357610e0e611026565b602435903315610e87576001600160a01b0316918215610e7057508083602095338152600187528181208582528752205582519081527f8c5be1e5ebec7d5bd14f71427d1e84f3dd0314c0f7b2291e5b200ac8c7c3b925843392a35160018152f35b8351634a1406b160e11b8152908101859052602490fd5b835163e602df0560e01b8152808401869052602490fd5b5050346101d757806003193601126101d75761092790610a28610ebf611026565b602435906115ad565b91905034610253578260031936011261025357805191836003549060019082821c928281168015610f95575b6020958686108214610f825750848852908115610f605750600114610f25575b610927868661091d828b0383611172565b929550600383528583205b828410610f4d57505050826109279461091d928201019438610f14565b8054868501880152928601928101610f30565b60ff191687860152505050151560051b830101925061091d8261092738610f14565b634e487b7160e01b845260229052602483fd5b93607f1693610ef4565b5050346101d757816003193601126101d757602090610bd86113b5565b34610fd8576000366003190112610fd8576020604051605a8152f35b600080fd5b6020808252825181830181905290939260005b82811061101257505060409293506000838284010152601f8019910116010190565b818101860151848201604001528501610ff0565b600435906001600160a01b0382168203610fd857565b602435906001600160a01b0382168203610fd857565b90815180825260208080930193019160005b828110611072575050505090565b835185529381019392810192600101611064565b91926110af6110a06110bd93608086526080860190611052565b60209585820387870152611052565b908382036040850152611052565b90606081830391015281808451928381520193019160005b8281106110e3575050505090565b835160ff16855293810193928101926001016110d5565b6005546001600160a01b0316330361110e57565b60405163118cdaa760e01b8152336004820152602490fd5b608081019081106001600160401b0382111761114157604052565b634e487b7160e01b600052604160045260246000fd5b602081019081106001600160401b0382111761114157604052565b601f909101601f19168101906001600160401b0382119082101761114157604052565b916001600160a01b03808416928315611233571692831561121a57600090838252816020526040822054908382106111fd57509160408282600080516020611694833981519152958760209652828652038282205586815220818154019055604051908152a3565b6104938460405193849363391434e360e21b85526004850161124c565b60405163ec442f0560e01b815260006004820152602490fd5b604051634b637e8f60e11b815260006004820152602490fd5b604091949392606082019560018060a01b0316825260208201520152565b9190820180921161127757565b634e487b7160e01b600052601160045260246000fd5b90816020910312610fd857518015158103610fd85790565b81156112af570490565b634e487b7160e01b600052601260045260246000fd5b80548210156112e15760005260206000209060021b0190600090565b634e487b7160e01b600052603260045260246000fd5b8054600160401b81101561114157611314916001820181556112c5565b611347576060600360ff92845181556020850151600182015560408501516002820155019201511660ff19825416179055565b634e487b7160e01b600052600060045260246000fd5b6000805160206116b4833981519152600281541461137b5760029055565b604051633ee5aeb560e01b8152600490fd5b9190820391821161127757565b6001600160a01b039091168152602081019190915260400190565b60025480156113e85760075490670de0b6b3a764000091828102928184041490151715611277576113e5916112a5565b90565b5067016345785d8a000090565b6113fd6113b5565b605a810290808204605a1490151715611277576064900490565b6001600160401b0381116111415760051b60200190565b9061143882611417565b6114456040519182611172565b8281528092611456601f1991611417565b0190602036910137565b60001981146112775760010190565b80518210156112e15760209160051b010190565b6001600160a01b03166000908152600c60205260408120926114a5908361126a565b83548082116115a5575b83101561155857826114c09161138d565b936114ca8561142e565b946114d48161142e565b946114de8261142e565b946114e88361142e565b945b8381106114f75750505050565b8060ff600361151261150c611553958761126a565b876112c5565b50805461151f858f61146f565b52600181015461152f858e61146f565b52600281015461153f858d61146f565b5201541661154d828961146f565b52611460565b6114ea565b509150506040519061156982611157565b8082526040519261157984611157565b8184526040519261158984611157565b8284526040519261159984611157565b80845236813793929190565b9050806114af565b6001600160a01b03166000908152600c6020526040812080549390929091908415611641578481111561163657506115e5848061138d565b916115ef8561142e565b946115f98161142e565b946116038261142e565b9461160d8361142e565b945b83811061161c5750505050565b8060ff600361151261150c611631958761126a565b61160f565b6115e590809561138d565b5091509150604051906115698261115756fe945c1c4e99aa89f648fbfe3df471b916f719e16d960fcec0737d4d56bd6968388be0079c531659141344cd1fd0a4f28419497f9722a3daafe3b4186f6b6457e0ddf252ad1be2c89b69c2b068fc378daa952ba7f163c4a11628f55a4df523b3ef9b779b17422d0df92223018b32b4d1fa46e071723d6817e2486d003becc55f00a2646970667358221220275220ea3761a90931a427c7ff7c05b208faeb641ce5312df2797c875d9c131c64736f6c63430008140033","opcodes":"PUSH1 0xA0 CALLVALUE PUSH3 0x3FA JUMPI PUSH1 0x1F SWAP1 PUSH1 0x1F NOT PUSH1 0x1 PUSH1 0x1 PUSH1 0x40 SHL SUB PUSH3 0x1B29 CODESIZE DUP2 SWAP1 SUB DUP6 DUP2 ADD DUP5 AND DUP6 ADD DUP4 DUP2 GT DUP7 DUP3 LT OR PUSH3 0x2FE JUMPI DUP6 SWAP3 DUP3 SWAP2 PUSH1 0x40 MSTORE DUP4 CODECOPY PUSH1 0x20 SWAP5 DUP6 SWAP2 DUP2 ADD SUB SLT PUSH3 0x3FA JUMPI MLOAD PUSH1 0x1 PUSH1 0x1 PUSH1 0xA0 SHL SUB DUP1 DUP3 AND SWAP5 SWAP1 SWAP3 SWAP1 SWAP2 DUP6 SWAP1 SUB PUSH3 0x3FA JUMPI PUSH3 0x6A PUSH3 0x3FF JUMP JUMPDEST SWAP2 PUSH1 0xC DUP4 MSTORE PUSH12 0x26BB30BAB63A102A37B5B2B7 PUSH1 0xA1 SHL DUP2 DUP5 ADD MSTORE PUSH3 0x8D PUSH3 0x3FF JUMP JUMPDEST SWAP7 PUSH1 0x3 SWAP2 DUP3 DUP10 MSTORE PUSH3 0x135595 PUSH1 0xEA SHL DUP2 DUP11 ADD MSTORE DUP5 MLOAD DUP5 DUP2 GT PUSH3 0x2FE JUMPI DUP4 SLOAD PUSH1 0x1 SWAP7 DUP8 DUP3 DUP2 SHR SWAP3 AND DUP1 ISZERO PUSH3 0x3EF JUMPI JUMPDEST DUP5 DUP4 LT EQ PUSH3 0x3D9 JUMPI DUP2 DUP6 DUP5 SWAP4 GT PUSH3 0x383 JUMPI JUMPDEST POP DUP4 SWAP1 DUP6 DUP4 GT PUSH1 0x1 EQ PUSH3 0x320 JUMPI PUSH1 0x0 SWAP3 PUSH3 0x314 JUMPI JUMPDEST POP POP PUSH1 0x0 NOT DUP3 DUP7 SHL SHR NOT AND SWAP1 DUP7 SHL OR DUP4 SSTORE JUMPDEST DUP9 MLOAD SWAP4 DUP5 GT PUSH3 0x2FE JUMPI PUSH1 0x4 SWAP7 DUP8 SLOAD DUP7 DUP2 DUP2 SHR SWAP2 AND DUP1 ISZERO PUSH3 0x2F3 JUMPI JUMPDEST DUP4 DUP3 LT EQ PUSH3 0x2DE JUMPI DUP4 DUP2 GT PUSH3 0x293 JUMPI JUMPDEST POP DUP2 SWAP3 DUP6 GT PUSH1 0x1 EQ PUSH3 0x229 JUMPI POP POP DUP3 SWAP4 SWAP5 SWAP6 SWAP7 SWAP8 PUSH1 0x0 SWAP4 PUSH3 0x21D JUMPI JUMPDEST POP POP DUP3 DUP5 SHL SWAP3 PUSH1 0x0 NOT SWAP2 SHL SHR NOT AND OR DUP4 SSTORE JUMPDEST CALLER ISZERO PUSH3 0x205 JUMPI PUSH1 0x5 DUP1 SLOAD CALLER PUSH1 0x1 PUSH1 0x1 PUSH1 0xA0 SHL SUB NOT DUP3 AND DUP2 OR SWAP1 SWAP3 SSTORE PUSH1 0x40 MLOAD SWAP4 AND PUSH32 0x8BE0079C531659141344CD1FD0A4F28419497F9722A3DAAFE3B4186F6B6457E0 PUSH1 0x0 DUP1 LOG3 PUSH32 0x9B779B17422D0DF92223018B32B4D1FA46E071723D6817E2486D003BECC55F00 SSTORE DUP3 ISZERO PUSH3 0x1F9 JUMPI DUP3 PUSH1 0x80 MSTORE PUSH1 0x40 MLOAD PUSH2 0x1709 SWAP1 DUP2 PUSH3 0x420 DUP3 CODECOPY PUSH1 0x80 MLOAD DUP2 DUP2 DUP2 PUSH2 0x380 ADD MSTORE DUP2 DUP2 PUSH2 0x5A6 ADD MSTORE DUP2 DUP2 PUSH2 0x6DD ADD MSTORE PUSH2 0xD65 ADD MSTORE RETURN JUMPDEST PUSH4 0xD92E233D PUSH1 0xE0 SHL DUP2 MSTORE REVERT JUMPDEST PUSH1 0x40 MLOAD PUSH4 0x1E4FBDF7 PUSH1 0xE0 SHL DUP2 MSTORE PUSH1 0x0 DUP2 DUP6 ADD MSTORE PUSH1 0x24 SWAP1 REVERT JUMPDEST ADD MLOAD SWAP2 POP CODESIZE DUP1 PUSH3 0x146 JUMP JUMPDEST PUSH1 0x0 DUP9 DUP2 MSTORE DUP3 DUP2 KECCAK256 SWAP2 DUP7 AND SWAP11 SWAP2 SWAP5 SWAP4 SWAP3 JUMPDEST DUP12 DUP3 LT PUSH3 0x27B JUMPI POP POP DUP5 DUP7 SWAP8 SWAP9 SWAP10 SWAP11 LT PUSH3 0x260 JUMPI JUMPDEST POP POP POP POP DUP2 SHL ADD DUP4 SSTORE PUSH3 0x158 JUMP JUMPDEST ADD MLOAD SWAP1 PUSH1 0xF8 DUP5 PUSH1 0x0 NOT SWAP3 SHL AND SHR NOT AND SWAP1 SSTORE CODESIZE DUP1 DUP1 DUP1 PUSH3 0x251 JUMP JUMPDEST DUP1 DUP9 DUP6 SWAP8 DUP3 SWAP5 SWAP7 DUP7 ADD MLOAD DUP2 SSTORE ADD SWAP7 ADD SWAP4 ADD SWAP1 PUSH3 0x23A JUMP JUMPDEST DUP9 PUSH1 0x0 MSTORE DUP3 PUSH1 0x0 KECCAK256 DUP5 DUP1 DUP9 ADD PUSH1 0x5 SHR DUP3 ADD SWAP3 DUP6 DUP10 LT PUSH3 0x2D4 JUMPI JUMPDEST ADD PUSH1 0x5 SHR ADD SWAP1 DUP8 SWAP1 JUMPDEST DUP3 DUP2 LT PUSH3 0x2C7 JUMPI POP POP PUSH3 0x128 JUMP JUMPDEST PUSH1 0x0 DUP2 SSTORE ADD DUP8 SWAP1 PUSH3 0x2B7 JUMP JUMPDEST SWAP3 POP DUP2 SWAP3 PUSH3 0x2AE JUMP JUMPDEST PUSH1 0x22 DUP10 PUSH4 0x4E487B71 PUSH1 0xE0 SHL PUSH1 0x0 MSTORE MSTORE PUSH1 0x24 PUSH1 0x0 REVERT JUMPDEST SWAP1 PUSH1 0x7F AND SWAP1 PUSH3 0x116 JUMP JUMPDEST PUSH4 0x4E487B71 PUSH1 0xE0 SHL PUSH1 0x0 MSTORE PUSH1 0x41 PUSH1 0x4 MSTORE PUSH1 0x24 PUSH1 0x0 REVERT JUMPDEST ADD MLOAD SWAP1 POP CODESIZE DUP1 PUSH3 0xE7 JUMP JUMPDEST SWAP1 DUP11 DUP10 SWAP5 AND SWAP2 DUP8 PUSH1 0x0 MSTORE DUP6 PUSH1 0x0 KECCAK256 SWAP3 PUSH1 0x0 JUMPDEST DUP8 DUP3 DUP3 LT PUSH3 0x36C JUMPI POP POP DUP5 GT PUSH3 0x353 JUMPI JUMPDEST POP POP POP DUP2 SHL ADD DUP4 SSTORE PUSH3 0xF9 JUMP JUMPDEST ADD MLOAD PUSH1 0x0 NOT DUP4 DUP9 SHL PUSH1 0xF8 AND SHR NOT AND SWAP1 SSTORE CODESIZE DUP1 DUP1 PUSH3 0x345 JUMP JUMPDEST DUP4 DUP6 ADD MLOAD DUP7 SSTORE DUP13 SWAP8 SWAP1 SWAP6 ADD SWAP5 SWAP4 DUP5 ADD SWAP4 ADD PUSH3 0x332 JUMP JUMPDEST SWAP1 SWAP2 POP DUP6 PUSH1 0x0 MSTORE DUP4 PUSH1 0x0 KECCAK256 DUP6 DUP1 DUP6 ADD PUSH1 0x5 SHR DUP3 ADD SWAP3 DUP7 DUP7 LT PUSH3 0x3CF JUMPI JUMPDEST SWAP2 DUP11 SWAP2 DUP7 SWAP6 SWAP5 SWAP4 ADD PUSH1 0x5 SHR ADD SWAP2 JUMPDEST DUP3 DUP2 LT PUSH3 0x3BF JUMPI POP POP PUSH3 0xD0 JUMP JUMPDEST PUSH1 0x0 DUP2 SSTORE DUP6 SWAP5 POP DUP11 SWAP2 ADD PUSH3 0x3AF JUMP JUMPDEST SWAP3 POP DUP2 SWAP3 PUSH3 0x3A1 JUMP JUMPDEST PUSH4 0x4E487B71 PUSH1 0xE0 SHL PUSH1 0x0 MSTORE PUSH1 0x22 PUSH1 0x4 MSTORE PUSH1 0x24 PUSH1 0x0 REVERT JUMPDEST SWAP2 PUSH1 0x7F AND SWAP2 PUSH3 0xBC JUMP JUMPDEST PUSH1 0x0 DUP1 REVERT JUMPDEST PUSH1 0x40 DUP1 MLOAD SWAP2 SWAP1 DUP3 ADD PUSH1 0x1 PUSH1 0x1 PUSH1 0x40 SHL SUB DUP2 GT DUP4 DUP3 LT OR PUSH3 0x2FE JUMPI PUSH1 0x40 MSTORE JUMP INVALID PUSH1 0x40 PUSH1 0x80 DUP2 MSTORE PUSH1 0x4 SWAP1 DUP2 CALLDATASIZE LT ISZERO PUSH2 0x15 JUMPI PUSH1 0x0 DUP1 REVERT JUMPDEST PUSH1 0x0 SWAP2 DUP3 CALLDATALOAD PUSH1 0xE0 SHR SWAP1 DUP2 PUSH4 0x18A25E8 EQ PUSH2 0xF9F JUMPI DUP2 PUSH4 0x1C46B39 EQ PUSH2 0xB97 JUMPI DUP2 PUSH4 0x6FDDE03 EQ PUSH2 0xEC8 JUMPI DUP2 PUSH4 0x85FB1F9 EQ PUSH2 0xE9E JUMPI DUP2 PUSH4 0x95EA7B3 EQ PUSH2 0xDF4 JUMPI DUP2 PUSH4 0x1481794E EQ PUSH2 0xD00 JUMPI DUP2 PUSH4 0x15770F92 EQ PUSH2 0xBDF JUMPI DUP2 PUSH4 0x18160DDD EQ PUSH2 0xB9C JUMPI DUP2 PUSH4 0x23B872DD EQ PUSH2 0xC1A JUMPI DUP2 PUSH4 0x2AF0E251 EQ PUSH2 0x53A JUMPI DUP2 PUSH4 0x313CE567 EQ PUSH2 0xBFE JUMPI DUP2 PUSH4 0x34E8C1A4 EQ PUSH2 0x559 JUMPI DUP2 PUSH4 0x35C7E925 EQ PUSH2 0xBDF JUMPI DUP2 PUSH4 0x43D32E9C EQ PUSH2 0xBBB JUMPI DUP2 PUSH4 0x528CC113 EQ PUSH2 0xB9C JUMPI DUP2 PUSH4 0x5E25EBCC EQ PUSH2 0x606 JUMPI DUP2 PUSH4 0x5FF74B91 EQ PUSH2 0xB97 JUMPI DUP2 PUSH4 0x70A08231 EQ PUSH2 0xB60 JUMPI DUP2 PUSH4 0x715018A6 EQ PUSH2 0xB12 JUMPI DUP2 PUSH4 0x723D9167 EQ PUSH2 0xADA JUMPI DUP2 PUSH4 0x7C5E2795 EQ PUSH2 0xAB7 JUMPI DUP2 PUSH4 0x82B20202 EQ PUSH2 0xA36 JUMPI DUP2 PUSH4 0x8A672BFE EQ PUSH2 0x9F9 JUMPI DUP2 PUSH4 0x8DA5CB5B EQ PUSH2 0x9D0 JUMPI DUP2 PUSH4 0x912A6A3A EQ PUSH2 0x9A7 JUMPI DUP2 PUSH4 0x95D89B41 EQ PUSH2 0x8C1 JUMPI DUP2 PUSH4 0x9CA71B26 EQ PUSH2 0x65D JUMPI DUP2 PUSH4 0xA2309FF8 EQ PUSH2 0x63E JUMPI DUP2 PUSH4 0xA6059286 EQ PUSH2 0x606 JUMPI DUP2 PUSH4 0xA9059CBB EQ PUSH2 0x5D5 JUMPI DUP2 PUSH4 0xA98AD46C EQ PUSH2 0x591 JUMPI DUP2 PUSH4 0xD36689A8 EQ PUSH2 0x559 JUMPI DUP2 PUSH4 0xD89135CD EQ PUSH2 0x53A JUMPI DUP2 PUSH4 0xDD62ED3E EQ PUSH2 0x4F1 JUMPI DUP2 PUSH4 0xE4849B32 EQ PUSH2 0x257 JUMPI DUP2 PUSH4 0xF2FDE38B EQ PUSH2 0x1DB JUMPI POP PUSH4 0xF67A769C EQ PUSH2 0x1BA JUMPI PUSH1 0x0 DUP1 REVERT JUMPDEST CALLVALUE PUSH2 0x1D7 JUMPI DUP2 PUSH1 0x3 NOT CALLDATASIZE ADD SLT PUSH2 0x1D7 JUMPI PUSH1 0x20 SWAP1 PUSH1 0x8 SLOAD SWAP1 MLOAD SWAP1 DUP2 MSTORE RETURN JUMPDEST POP DUP1 REVERT JUMPDEST SWAP1 POP CALLVALUE PUSH2 0x253 JUMPI PUSH1 0x20 CALLDATASIZE PUSH1 0x3 NOT ADD SLT PUSH2 0x253 JUMPI PUSH2 0x1F6 PUSH2 0x1026 JUMP JUMPDEST SWAP1 PUSH2 0x1FF PUSH2 0x10FA JUMP JUMPDEST PUSH1 0x1 PUSH1 0x1 PUSH1 0xA0 SHL SUB SWAP2 DUP3 AND SWAP3 DUP4 ISZERO PUSH2 0x23D JUMPI POP POP PUSH1 0x5 DUP1 SLOAD PUSH1 0x1 PUSH1 0x1 PUSH1 0xA0 SHL SUB NOT DUP2 AND DUP5 OR SWAP1 SWAP2 SSTORE AND PUSH1 0x0 DUP1 MLOAD PUSH1 0x20 PUSH2 0x1674 DUP4 CODECOPY DUP2 MLOAD SWAP2 MSTORE DUP4 DUP1 LOG3 DUP1 RETURN JUMPDEST MLOAD PUSH4 0x1E4FBDF7 PUSH1 0xE0 SHL DUP2 MSTORE SWAP1 DUP2 ADD DUP5 SWAP1 MSTORE PUSH1 0x24 SWAP1 REVERT JUMPDEST DUP3 DUP1 REVERT JUMPDEST DUP4 DUP4 CALLVALUE PUSH2 0x1D7 JUMPI PUSH1 0x20 DUP1 PUSH1 0x3 NOT CALLDATASIZE ADD SLT PUSH2 0x253 JUMPI DUP4 CALLDATALOAD PUSH2 0x275 PUSH2 0x135D JUMP JUMPDEST DUP1 ISZERO PUSH2 0x4E1 JUMPI CALLER DUP5 MSTORE DUP4 DUP3 MSTORE DUP1 DUP4 DUP6 KECCAK256 SLOAD LT PUSH2 0x4D1 JUMPI PUSH2 0x293 PUSH2 0x13F5 JUMP JUMPDEST DUP1 DUP3 MUL SWAP1 DUP3 DUP3 DIV SUB PUSH2 0x4BE JUMPI PUSH8 0xDE0B6B3A7640000 SWAP1 DIV DUP1 PUSH1 0x7 SLOAD LT PUSH2 0x4AE JUMPI PUSH2 0x2BF DUP3 PUSH1 0x9 SLOAD PUSH2 0x126A JUMP JUMPDEST PUSH1 0x9 SSTORE CALLER DUP6 MSTORE PUSH1 0xB DUP4 MSTORE DUP4 DUP6 KECCAK256 PUSH2 0x2D7 DUP4 DUP3 SLOAD PUSH2 0x126A JUMP JUMPDEST SWAP1 SSTORE PUSH2 0x2E5 DUP2 PUSH1 0x7 SLOAD PUSH2 0x138D JUMP JUMPDEST PUSH1 0x7 SSTORE CALLER DUP6 MSTORE PUSH1 0xC DUP4 MSTORE PUSH2 0x31A DUP5 DUP7 KECCAK256 DUP6 MLOAD SWAP1 PUSH2 0x301 DUP3 PUSH2 0x1126 JUMP JUMPDEST DUP4 DUP3 MSTORE DUP5 DUP7 DUP4 ADD MSTORE TIMESTAMP DUP8 DUP4 ADD MSTORE PUSH1 0x2 PUSH1 0x60 DUP4 ADD MSTORE PUSH2 0x12F7 JUMP JUMPDEST CALLER ISZERO PUSH2 0x497 JUMPI CALLER DUP6 MSTORE DUP5 DUP4 MSTORE DUP4 DUP6 KECCAK256 SLOAD DUP3 DUP2 LT PUSH2 0x475 JUMPI DUP3 SWAP1 CALLER DUP8 MSTORE DUP7 DUP6 MSTORE SUB DUP5 DUP7 KECCAK256 SSTORE DUP2 PUSH1 0x2 SLOAD SUB PUSH1 0x2 SSTORE DUP5 DUP5 MLOAD DUP4 DUP2 MSTORE PUSH1 0x0 DUP1 MLOAD PUSH1 0x20 PUSH2 0x1694 DUP4 CODECOPY DUP2 MLOAD SWAP2 MSTORE DUP6 CALLER SWAP3 LOG3 DUP4 MLOAD PUSH4 0xA9059CBB PUSH1 0xE0 SHL DUP2 MSTORE DUP4 DUP2 DUP1 PUSH2 0x37B DUP6 CALLER DUP13 DUP5 ADD PUSH2 0x139A JUMP JUMPDEST SUB DUP2 DUP10 PUSH32 0x0 PUSH1 0x1 PUSH1 0x1 PUSH1 0xA0 SHL SUB AND GAS CALL SWAP1 DUP2 ISZERO PUSH2 0x46B JUMPI DUP7 SWAP2 PUSH2 0x43E JUMPI JUMPDEST POP ISZERO PUSH2 0x42E JUMPI PUSH1 0x0 DUP1 MLOAD PUSH1 0x20 PUSH2 0x1654 DUP4 CODECOPY DUP2 MLOAD SWAP2 MSTORE SWAP5 SWAP6 POP DUP4 MLOAD SWAP2 DUP3 MSTORE DUP3 DUP3 ADD MSTORE PUSH32 0xCCBEA4088A3B7AE9CA2D15FAB9A9742A4075B4D7247768A1EECEA917565ABA00 DUP4 CALLER SWAP3 LOG2 PUSH2 0x406 PUSH2 0x13B5 JUMP JUMPDEST SWAP1 PUSH2 0x40F PUSH2 0x13F5 JUMP JUMPDEST SWAP1 DUP4 MLOAD SWAP3 DUP4 MSTORE DUP3 ADD MSTORE LOG1 PUSH1 0x1 PUSH1 0x0 DUP1 MLOAD PUSH1 0x20 PUSH2 0x16B4 DUP4 CODECOPY DUP2 MLOAD SWAP2 MSTORE SSTORE DUP1 RETURN JUMPDEST DUP4 MLOAD PUSH4 0x12171D83 PUSH1 0xE3 SHL DUP2 MSTORE DUP7 SWAP1 REVERT JUMPDEST PUSH2 0x45E SWAP2 POP DUP5 RETURNDATASIZE DUP7 GT PUSH2 0x464 JUMPI JUMPDEST PUSH2 0x456 DUP2 DUP4 PUSH2 0x1172 JUMP JUMPDEST DUP2 ADD SWAP1 PUSH2 0x128D JUMP JUMPDEST DUP8 PUSH2 0x3B8 JUMP JUMPDEST POP RETURNDATASIZE PUSH2 0x44C JUMP JUMPDEST DUP6 MLOAD RETURNDATASIZE DUP9 DUP3 RETURNDATACOPY RETURNDATASIZE SWAP1 REVERT JUMPDEST DUP5 MLOAD PUSH4 0x391434E3 PUSH1 0xE2 SHL DUP2 MSTORE SWAP1 DUP2 SWAP1 PUSH2 0x493 SWAP1 DUP6 SWAP1 CALLER DUP5 DUP13 ADD PUSH2 0x124C JUMP JUMPDEST SUB SWAP1 REVERT JUMPDEST DUP4 MLOAD PUSH4 0x4B637E8F PUSH1 0xE1 SHL DUP2 MSTORE DUP1 DUP8 ADD DUP7 SWAP1 MSTORE PUSH1 0x24 SWAP1 REVERT JUMPDEST DUP4 MLOAD PUSH4 0xBB55FD27 PUSH1 0xE0 SHL DUP2 MSTORE DUP7 SWAP1 REVERT JUMPDEST PUSH4 0x4E487B71 PUSH1 0xE0 SHL DUP6 MSTORE PUSH1 0x11 DUP7 MSTORE PUSH1 0x24 DUP6 REVERT JUMPDEST DUP3 MLOAD PUSH4 0x1E9ACF17 PUSH1 0xE3 SHL DUP2 MSTORE DUP6 SWAP1 REVERT JUMPDEST DUP3 MLOAD PUSH4 0x1F2A2005 PUSH1 0xE0 SHL DUP2 MSTORE DUP6 SWAP1 REVERT JUMPDEST POP POP CALLVALUE PUSH2 0x1D7 JUMPI DUP1 PUSH1 0x3 NOT CALLDATASIZE ADD SLT PUSH2 0x1D7 JUMPI DUP1 PUSH1 0x20 SWAP3 PUSH2 0x50F PUSH2 0x1026 JUMP JUMPDEST PUSH2 0x517 PUSH2 0x103C JUMP JUMPDEST PUSH1 0x1 PUSH1 0x1 PUSH1 0xA0 SHL SUB SWAP2 DUP3 AND DUP4 MSTORE PUSH1 0x1 DUP7 MSTORE DUP4 DUP4 KECCAK256 SWAP2 AND DUP3 MSTORE DUP5 MSTORE KECCAK256 SLOAD SWAP1 MLOAD SWAP1 DUP2 MSTORE RETURN JUMPDEST POP POP CALLVALUE PUSH2 0x1D7 JUMPI DUP2 PUSH1 0x3 NOT CALLDATASIZE ADD SLT PUSH2 0x1D7 JUMPI PUSH1 0x20 SWAP1 PUSH1 0x9 SLOAD SWAP1 MLOAD SWAP1 DUP2 MSTORE RETURN JUMPDEST POP POP CALLVALUE PUSH2 0x1D7 JUMPI PUSH1 0x20 CALLDATASIZE PUSH1 0x3 NOT ADD SLT PUSH2 0x1D7 JUMPI PUSH1 0x20 SWAP2 DUP2 SWAP1 PUSH1 0x1 PUSH1 0x1 PUSH1 0xA0 SHL SUB PUSH2 0x581 PUSH2 0x1026 JUMP JUMPDEST AND DUP2 MSTORE PUSH1 0xA DUP5 MSTORE KECCAK256 SLOAD SWAP1 MLOAD SWAP1 DUP2 MSTORE RETURN JUMPDEST POP POP CALLVALUE PUSH2 0x1D7 JUMPI DUP2 PUSH1 0x3 NOT CALLDATASIZE ADD SLT PUSH2 0x1D7 JUMPI MLOAD PUSH32 0x0 PUSH1 0x1 PUSH1 0x1 PUSH1 0xA0 SHL SUB AND DUP2 MSTORE PUSH1 0x20 SWAP1 RETURN JUMPDEST POP POP CALLVALUE PUSH2 0x1D7 JUMPI DUP1 PUSH1 0x3 NOT CALLDATASIZE ADD SLT PUSH2 0x1D7 JUMPI PUSH1 0x20 SWAP1 PUSH2 0x5FF PUSH2 0x5F5 PUSH2 0x1026 JUMP JUMPDEST PUSH1 0x24 CALLDATALOAD SWAP1 CALLER PUSH2 0x1195 JUMP JUMPDEST MLOAD PUSH1 0x1 DUP2 MSTORE RETURN JUMPDEST POP POP CALLVALUE PUSH2 0x1D7 JUMPI PUSH1 0x20 CALLDATASIZE PUSH1 0x3 NOT ADD SLT PUSH2 0x1D7 JUMPI PUSH1 0x20 SWAP2 DUP2 SWAP1 PUSH1 0x1 PUSH1 0x1 PUSH1 0xA0 SHL SUB PUSH2 0x62E PUSH2 0x1026 JUMP JUMPDEST AND DUP2 MSTORE PUSH1 0xB DUP5 MSTORE KECCAK256 SLOAD SWAP1 MLOAD SWAP1 DUP2 MSTORE RETURN JUMPDEST POP POP CALLVALUE PUSH2 0x1D7 JUMPI DUP2 PUSH1 0x3 NOT CALLDATASIZE ADD SLT PUSH2 0x1D7 JUMPI PUSH1 0x20 SWAP1 PUSH1 0x8 SLOAD SWAP1 MLOAD SWAP1 DUP2 MSTORE RETURN JUMPDEST DUP4 DUP4 CALLVALUE PUSH2 0x1D7 JUMPI DUP1 PUSH1 0x3 NOT CALLDATASIZE ADD SLT PUSH2 0x1D7 JUMPI PUSH2 0x677 PUSH2 0x1026 JUMP JUMPDEST PUSH1 0x6 SLOAD PUSH1 0x1 PUSH1 0x1 PUSH1 0xA0 SHL SUB SWAP2 PUSH1 0x24 CALLDATALOAD SWAP2 DUP4 AND CALLER SUB PUSH2 0x8B1 JUMPI DUP3 SWAP1 PUSH2 0x699 PUSH2 0x135D JUMP JUMPDEST AND SWAP2 DUP3 ISZERO PUSH2 0x8A1 JUMPI DUP2 ISZERO PUSH2 0x891 JUMPI SWAP1 DUP5 SWAP3 SWAP2 PUSH2 0x6B3 PUSH2 0x13B5 JUMP JUMPDEST SWAP1 DUP6 MLOAD SWAP1 PUSH4 0x23B872DD PUSH1 0xE0 SHL DUP3 MSTORE CALLER DUP10 DUP4 ADD MSTORE ADDRESS PUSH1 0x24 DUP4 ADD MSTORE DUP4 PUSH1 0x44 DUP4 ADD MSTORE DUP2 PUSH1 0x64 DUP2 PUSH1 0x20 SWAP9 DUP10 SWAP5 PUSH32 0x0 AND GAS CALL SWAP1 DUP2 ISZERO PUSH2 0x887 JUMPI DUP8 SWAP2 PUSH2 0x86A JUMPI JUMPDEST POP ISZERO PUSH2 0x85A JUMPI PUSH2 0x71F DUP3 PUSH1 0x7 SLOAD PUSH2 0x126A JUMP JUMPDEST PUSH1 0x7 SSTORE PUSH8 0xDE0B6B3A7640000 DUP3 MUL PUSH8 0xDE0B6B3A763FFFF NOT DUP4 DUP3 DIV ADD PUSH2 0x847 JUMPI SWAP1 PUSH2 0x749 SWAP2 PUSH2 0x12A5 JUMP JUMPDEST PUSH1 0x5A DUP2 MUL SWAP1 DUP1 DUP3 DIV PUSH1 0x5A EQ SWAP1 ISZERO OR ISZERO PUSH2 0x834 JUMPI PUSH1 0x0 DUP1 MLOAD PUSH1 0x20 PUSH2 0x1654 DUP4 CODECOPY DUP2 MLOAD SWAP2 MSTORE SWAP6 SWAP7 POP PUSH32 0x2E8AC5177A616F2AEC08C3048F5021E4E9743ECE034E8D83BA5CAF76688BB475 SWAP2 PUSH1 0x64 DUP7 SWAP3 DIV PUSH2 0x7A1 DUP2 PUSH1 0x8 SLOAD PUSH2 0x126A JUMP JUMPDEST PUSH1 0x8 SSTORE DUP5 DUP10 MSTORE PUSH1 0xA DUP7 MSTORE DUP3 DUP10 KECCAK256 PUSH2 0x7B9 DUP3 DUP3 SLOAD PUSH2 0x126A JUMP JUMPDEST SWAP1 SSTORE DUP5 DUP10 MSTORE PUSH1 0xC DUP7 MSTORE PUSH2 0x7EC DUP4 DUP11 KECCAK256 DUP5 MLOAD SWAP1 PUSH2 0x7D4 DUP3 PUSH2 0x1126 JUMP JUMPDEST DUP5 DUP3 MSTORE DUP4 DUP10 DUP4 ADD MSTORE TIMESTAMP DUP7 DUP4 ADD MSTORE DUP12 PUSH1 0x60 DUP4 ADD MSTORE PUSH2 0x12F7 JUMP JUMPDEST PUSH2 0x7F8 DUP2 PUSH1 0x2 SLOAD PUSH2 0x126A JUMP JUMPDEST PUSH1 0x2 SSTORE DUP5 DUP10 MSTORE DUP9 DUP7 MSTORE DUP3 DUP10 KECCAK256 DUP2 DUP2 SLOAD ADD SWAP1 SSTORE DUP5 DUP10 PUSH1 0x0 DUP1 MLOAD PUSH1 0x20 PUSH2 0x1694 DUP4 CODECOPY DUP2 MLOAD SWAP2 MSTORE DUP9 DUP7 MLOAD DUP6 DUP2 MSTORE LOG3 DUP3 MLOAD SWAP2 DUP3 MSTORE DUP6 DUP3 ADD MSTORE LOG2 PUSH2 0x406 PUSH2 0x13B5 JUMP JUMPDEST PUSH4 0x4E487B71 PUSH1 0xE0 SHL DUP7 MSTORE PUSH1 0x11 DUP8 MSTORE PUSH1 0x24 DUP7 REVERT JUMPDEST PUSH4 0x4E487B71 PUSH1 0xE0 SHL DUP8 MSTORE PUSH1 0x11 DUP9 MSTORE PUSH1 0x24 DUP8 REVERT JUMPDEST DUP5 MLOAD PUSH4 0x12171D83 PUSH1 0xE3 SHL DUP2 MSTORE DUP8 SWAP1 REVERT JUMPDEST PUSH2 0x881 SWAP2 POP DUP6 RETURNDATASIZE DUP8 GT PUSH2 0x464 JUMPI PUSH2 0x456 DUP2 DUP4 PUSH2 0x1172 JUMP JUMPDEST DUP9 PUSH2 0x70D JUMP JUMPDEST DUP7 MLOAD RETURNDATASIZE DUP10 DUP3 RETURNDATACOPY RETURNDATASIZE SWAP1 REVERT JUMPDEST DUP4 MLOAD PUSH4 0x1F2A2005 PUSH1 0xE0 SHL DUP2 MSTORE DUP7 SWAP1 REVERT JUMPDEST DUP4 MLOAD PUSH4 0xD92E233D PUSH1 0xE0 SHL DUP2 MSTORE DUP7 SWAP1 REVERT JUMPDEST DUP4 MLOAD PUSH4 0x72BE3BCF PUSH1 0xE1 SHL DUP2 MSTORE DUP7 SWAP1 REVERT JUMPDEST DUP4 DUP4 CALLVALUE PUSH2 0x1D7 JUMPI DUP2 PUSH1 0x3 NOT CALLDATASIZE ADD SLT PUSH2 0x1D7 JUMPI DUP1 MLOAD SWAP2 DUP1 SWAP4 DUP1 SLOAD SWAP2 PUSH1 0x1 SWAP1 DUP4 DUP3 SHR SWAP3 DUP3 DUP6 AND SWAP5 DUP6 ISZERO PUSH2 0x99D JUMPI JUMPDEST PUSH1 0x20 SWAP6 DUP7 DUP7 LT DUP2 EQ PUSH2 0x98A JUMPI DUP6 DUP10 MSTORE SWAP1 DUP2 ISZERO PUSH2 0x966 JUMPI POP PUSH1 0x1 EQ PUSH2 0x92B JUMPI JUMPDEST PUSH2 0x927 DUP8 DUP8 PUSH2 0x91D DUP3 DUP13 SUB DUP4 PUSH2 0x1172 JUMP JUMPDEST MLOAD SWAP2 DUP3 SWAP2 DUP3 PUSH2 0xFDD JUMP JUMPDEST SUB SWAP1 RETURN JUMPDEST SWAP1 DUP1 SWAP5 SWAP8 POP MSTORE DUP6 DUP4 KECCAK256 JUMPDEST DUP3 DUP5 LT PUSH2 0x953 JUMPI POP POP POP DUP3 PUSH2 0x927 SWAP5 PUSH2 0x91D SWAP3 DUP3 ADD ADD SWAP5 DUP7 DUP1 PUSH2 0x90C JUMP JUMPDEST DUP1 SLOAD DUP7 DUP6 ADD DUP9 ADD MSTORE SWAP3 DUP7 ADD SWAP3 DUP2 ADD PUSH2 0x935 JUMP JUMPDEST PUSH1 0xFF NOT AND DUP9 DUP8 ADD MSTORE POP POP POP POP ISZERO ISZERO PUSH1 0x5 SHL DUP4 ADD ADD SWAP3 POP PUSH2 0x91D DUP3 PUSH2 0x927 DUP7 DUP1 PUSH2 0x90C JUMP JUMPDEST PUSH4 0x4E487B71 PUSH1 0xE0 SHL DUP5 MSTORE PUSH1 0x22 DUP4 MSTORE PUSH1 0x24 DUP5 REVERT JUMPDEST SWAP4 PUSH1 0x7F AND SWAP4 PUSH2 0x8ED JUMP JUMPDEST POP POP CALLVALUE PUSH2 0x1D7 JUMPI DUP2 PUSH1 0x3 NOT CALLDATASIZE ADD SLT PUSH2 0x1D7 JUMPI PUSH1 0x6 SLOAD SWAP1 MLOAD PUSH1 0x1 PUSH1 0x1 PUSH1 0xA0 SHL SUB SWAP1 SWAP2 AND DUP2 MSTORE PUSH1 0x20 SWAP1 RETURN JUMPDEST POP POP CALLVALUE PUSH2 0x1D7 JUMPI DUP2 PUSH1 0x3 NOT CALLDATASIZE ADD SLT PUSH2 0x1D7 JUMPI PUSH1 0x5 SLOAD SWAP1 MLOAD PUSH1 0x1 PUSH1 0x1 PUSH1 0xA0 SHL SUB SWAP1 SWAP2 AND DUP2 MSTORE PUSH1 0x20 SWAP1 RETURN JUMPDEST POP POP CALLVALUE PUSH2 0x1D7 JUMPI PUSH1 0x60 CALLDATASIZE PUSH1 0x3 NOT ADD SLT PUSH2 0x1D7 JUMPI PUSH2 0x927 SWAP1 PUSH2 0xA28 PUSH2 0xA1B PUSH2 0x1026 JUMP JUMPDEST PUSH1 0x44 CALLDATALOAD SWAP1 PUSH1 0x24 CALLDATALOAD SWAP1 PUSH2 0x1483 JUMP JUMPDEST SWAP2 SWAP5 SWAP3 SWAP4 MLOAD SWAP5 DUP6 SWAP5 DUP6 PUSH2 0x1086 JUMP JUMPDEST SWAP1 POP CALLVALUE PUSH2 0x253 JUMPI PUSH1 0x20 CALLDATASIZE PUSH1 0x3 NOT ADD SLT PUSH2 0x253 JUMPI PUSH2 0xA51 PUSH2 0x1026 JUMP JUMPDEST SWAP1 PUSH2 0xA5A PUSH2 0x10FA JUMP JUMPDEST PUSH1 0x1 PUSH1 0x1 PUSH1 0xA0 SHL SUB SWAP2 DUP3 AND SWAP3 DUP4 ISZERO PUSH2 0xAAA JUMPI POP POP PUSH1 0x6 DUP1 SLOAD PUSH1 0x1 PUSH1 0x1 PUSH1 0xA0 SHL SUB NOT DUP2 AND DUP5 OR SWAP1 SWAP2 SSTORE AND PUSH32 0x145033FA341D099593009E367B7DA8F2C34749F310A5125CEF34F20EE08914B0 DUP4 DUP1 LOG3 DUP1 RETURN JUMPDEST MLOAD PUSH4 0xD92E233D PUSH1 0xE0 SHL DUP2 MSTORE REVERT JUMPDEST POP POP CALLVALUE PUSH2 0x1D7 JUMPI DUP2 PUSH1 0x3 NOT CALLDATASIZE ADD SLT PUSH2 0x1D7 JUMPI PUSH1 0x20 SWAP1 MLOAD PUSH8 0x16345785D8A0000 DUP2 MSTORE RETURN JUMPDEST POP POP CALLVALUE PUSH2 0x1D7 JUMPI PUSH1 0x20 CALLDATASIZE PUSH1 0x3 NOT ADD SLT PUSH2 0x1D7 JUMPI PUSH1 0x20 SWAP2 DUP2 SWAP1 PUSH1 0x1 PUSH1 0x1 PUSH1 0xA0 SHL SUB PUSH2 0xB02 PUSH2 0x1026 JUMP JUMPDEST AND DUP2 MSTORE PUSH1 0xC DUP5 MSTORE KECCAK256 SLOAD SWAP1 MLOAD SWAP1 DUP2 MSTORE RETURN JUMPDEST DUP4 CALLVALUE PUSH2 0xB5D JUMPI DUP1 PUSH1 0x3 NOT CALLDATASIZE ADD SLT PUSH2 0xB5D JUMPI PUSH2 0xB2B PUSH2 0x10FA JUMP JUMPDEST PUSH1 0x5 DUP1 SLOAD PUSH1 0x1 PUSH1 0x1 PUSH1 0xA0 SHL SUB NOT DUP2 AND SWAP1 SWAP2 SSTORE DUP2 SWAP1 PUSH1 0x1 PUSH1 0x1 PUSH1 0xA0 SHL SUB AND PUSH1 0x0 DUP1 MLOAD PUSH1 0x20 PUSH2 0x1674 DUP4 CODECOPY DUP2 MLOAD SWAP2 MSTORE DUP3 DUP1 LOG3 DUP1 RETURN JUMPDEST DUP1 REVERT JUMPDEST POP POP CALLVALUE PUSH2 0x1D7 JUMPI PUSH1 0x20 CALLDATASIZE PUSH1 0x3 NOT ADD SLT PUSH2 0x1D7 JUMPI PUSH1 0x20 SWAP2 DUP2 SWAP1 PUSH1 0x1 PUSH1 0x1 PUSH1 0xA0 SHL SUB PUSH2 0xB88 PUSH2 0x1026 JUMP JUMPDEST AND DUP2 MSTORE DUP1 DUP5 MSTORE KECCAK256 SLOAD SWAP1 MLOAD SWAP1 DUP2 MSTORE RETURN JUMPDEST PUSH2 0xFBC JUMP JUMPDEST POP POP CALLVALUE PUSH2 0x1D7 JUMPI DUP2 PUSH1 0x3 NOT CALLDATASIZE ADD SLT PUSH2 0x1D7 JUMPI PUSH1 0x20 SWAP1 PUSH1 0x2 SLOAD SWAP1 MLOAD SWAP1 DUP2 MSTORE RETURN JUMPDEST POP POP CALLVALUE PUSH2 0x1D7 JUMPI DUP2 PUSH1 0x3 NOT CALLDATASIZE ADD SLT PUSH2 0x1D7 JUMPI PUSH1 0x20 SWAP1 PUSH2 0xBD8 PUSH2 0x13F5 JUMP JUMPDEST SWAP1 MLOAD SWAP1 DUP2 MSTORE RETURN JUMPDEST POP POP CALLVALUE PUSH2 0x1D7 JUMPI DUP2 PUSH1 0x3 NOT CALLDATASIZE ADD SLT PUSH2 0x1D7 JUMPI PUSH1 0x20 SWAP1 PUSH1 0x7 SLOAD SWAP1 MLOAD SWAP1 DUP2 MSTORE RETURN JUMPDEST POP POP CALLVALUE PUSH2 0x1D7 JUMPI DUP2 PUSH1 0x3 NOT CALLDATASIZE ADD SLT PUSH2 0x1D7 JUMPI PUSH1 0x20 SWAP1 MLOAD PUSH1 0x12 DUP2 MSTORE RETURN JUMPDEST SWAP1 POP DUP3 CALLVALUE PUSH2 0xB5D JUMPI PUSH1 0x60 CALLDATASIZE PUSH1 0x3 NOT ADD SLT PUSH2 0xB5D JUMPI PUSH2 0xC36 PUSH2 0x1026 JUMP JUMPDEST PUSH2 0xC3E PUSH2 0x103C JUMP JUMPDEST SWAP2 PUSH1 0x44 CALLDATALOAD SWAP4 PUSH1 0x1 DUP1 PUSH1 0xA0 SHL SUB DUP4 AND DUP1 DUP4 MSTORE PUSH1 0x1 PUSH1 0x20 MSTORE DUP7 DUP4 KECCAK256 CALLER DUP5 MSTORE PUSH1 0x20 MSTORE DUP7 DUP4 KECCAK256 SLOAD SWAP2 PUSH1 0x0 NOT DUP4 LT PUSH2 0xC7A JUMPI JUMPDEST PUSH1 0x20 DUP9 PUSH2 0x5FF DUP10 DUP10 DUP10 PUSH2 0x1195 JUMP JUMPDEST DUP7 DUP4 LT PUSH2 0xCE2 JUMPI DUP2 ISZERO PUSH2 0xCCB JUMPI CALLER ISZERO PUSH2 0xCB4 JUMPI POP DUP3 MSTORE PUSH1 0x1 PUSH1 0x20 SWAP1 DUP2 MSTORE DUP7 DUP4 KECCAK256 CALLER DUP5 MSTORE DUP2 MSTORE SWAP2 DUP7 SWAP1 KECCAK256 SWAP1 DUP6 SWAP1 SUB SWAP1 SSTORE DUP3 SWAP1 PUSH2 0x5FF DUP8 PUSH2 0xC6C JUMP JUMPDEST DUP8 MLOAD PUSH4 0x4A1406B1 PUSH1 0xE1 SHL DUP2 MSTORE SWAP1 DUP2 ADD DUP5 SWAP1 MSTORE PUSH1 0x24 SWAP1 REVERT JUMPDEST DUP8 MLOAD PUSH4 0xE602DF05 PUSH1 0xE0 SHL DUP2 MSTORE SWAP1 DUP2 ADD DUP5 SWAP1 MSTORE PUSH1 0x24 SWAP1 REVERT JUMPDEST SWAP1 POP PUSH2 0x493 DUP7 DUP9 MLOAD SWAP4 DUP5 SWAP4 PUSH4 0x7DC7A0D9 PUSH1 0xE1 SHL DUP6 MSTORE CALLER SWAP1 DUP6 ADD PUSH2 0x124C JUMP JUMPDEST SWAP2 SWAP1 POP CALLVALUE PUSH2 0x253 JUMPI DUP1 PUSH1 0x3 NOT CALLDATASIZE ADD SLT PUSH2 0x253 JUMPI PUSH2 0xD1B PUSH2 0x1026 JUMP JUMPDEST PUSH1 0x24 CALLDATALOAD SWAP1 PUSH2 0xD27 PUSH2 0x10FA JUMP JUMPDEST PUSH1 0x1 PUSH1 0x1 PUSH1 0xA0 SHL SUB SWAP1 DUP1 DUP3 AND ISZERO PUSH2 0xDE4 JUMPI DUP3 ISZERO PUSH2 0xDD4 JUMPI SWAP2 PUSH1 0x20 SWAP2 PUSH2 0xD61 SWAP4 DUP8 DUP7 MLOAD DUP1 SWAP7 DUP2 SWAP6 DUP3 SWAP5 PUSH4 0xA9059CBB PUSH1 0xE0 SHL DUP5 MSTORE DUP12 DUP5 ADD PUSH2 0x139A JUMP JUMPDEST SUB SWAP3 PUSH32 0x0 AND GAS CALL SWAP1 DUP2 ISZERO PUSH2 0xDCA JUMPI DUP5 SWAP2 PUSH2 0xDAC JUMPI JUMPDEST POP ISZERO PUSH2 0xD9F JUMPI DUP3 DUP1 RETURN JUMPDEST MLOAD PUSH4 0x12171D83 PUSH1 0xE3 SHL DUP2 MSTORE REVERT JUMPDEST PUSH2 0xDC4 SWAP2 POP PUSH1 0x20 RETURNDATASIZE DUP2 GT PUSH2 0x464 JUMPI PUSH2 0x456 DUP2 DUP4 PUSH2 0x1172 JUMP JUMPDEST CODESIZE PUSH2 0xD95 JUMP JUMPDEST DUP3 MLOAD RETURNDATASIZE DUP7 DUP3 RETURNDATACOPY RETURNDATASIZE SWAP1 REVERT JUMPDEST POP POP POP MLOAD PUSH4 0x1F2A2005 PUSH1 0xE0 SHL DUP2 MSTORE REVERT JUMPDEST POP POP POP MLOAD PUSH4 0xD92E233D PUSH1 0xE0 SHL DUP2 MSTORE REVERT JUMPDEST SWAP1 POP CALLVALUE PUSH2 0x253 JUMPI DUP2 PUSH1 0x3 NOT CALLDATASIZE ADD SLT PUSH2 0x253 JUMPI PUSH2 0xE0E PUSH2 0x1026 JUMP JUMPDEST PUSH1 0x24 CALLDATALOAD SWAP1 CALLER ISZERO PUSH2 0xE87 JUMPI PUSH1 0x1 PUSH1 0x1 PUSH1 0xA0 SHL SUB AND SWAP2 DUP3 ISZERO PUSH2 0xE70 JUMPI POP DUP1 DUP4 PUSH1 0x20 SWAP6 CALLER DUP2 MSTORE PUSH1 0x1 DUP8 MSTORE DUP2 DUP2 KECCAK256 DUP6 DUP3 MSTORE DUP8 MSTORE KECCAK256 SSTORE DUP3 MLOAD SWAP1 DUP2 MSTORE PUSH32 0x8C5BE1E5EBEC7D5BD14F71427D1E84F3DD0314C0F7B2291E5B200AC8C7C3B925 DUP5 CALLER SWAP3 LOG3 MLOAD PUSH1 0x1 DUP2 MSTORE RETURN JUMPDEST DUP4 MLOAD PUSH4 0x4A1406B1 PUSH1 0xE1 SHL DUP2 MSTORE SWAP1 DUP2 ADD DUP6 SWAP1 MSTORE PUSH1 0x24 SWAP1 REVERT JUMPDEST DUP4 MLOAD PUSH4 0xE602DF05 PUSH1 0xE0 SHL DUP2 MSTORE DUP1 DUP5 ADD DUP7 SWAP1 MSTORE PUSH1 0x24 SWAP1 REVERT JUMPDEST POP POP CALLVALUE PUSH2 0x1D7 JUMPI DUP1 PUSH1 0x3 NOT CALLDATASIZE ADD SLT PUSH2 0x1D7 JUMPI PUSH2 0x927 SWAP1 PUSH2 0xA28 PUSH2 0xEBF PUSH2 0x1026 JUMP JUMPDEST PUSH1 0x24 CALLDATALOAD SWAP1 PUSH2 0x15AD JUMP JUMPDEST SWAP2 SWAP1 POP CALLVALUE PUSH2 0x253 JUMPI DUP3 PUSH1 0x3 NOT CALLDATASIZE ADD SLT PUSH2 0x253 JUMPI DUP1 MLOAD SWAP2 DUP4 PUSH1 0x3 SLOAD SWAP1 PUSH1 0x1 SWAP1 DUP3 DUP3 SHR SWAP3 DUP3 DUP2 AND DUP1 ISZERO PUSH2 0xF95 JUMPI JUMPDEST PUSH1 0x20 SWAP6 DUP7 DUP7 LT DUP3 EQ PUSH2 0xF82 JUMPI POP DUP5 DUP9 MSTORE SWAP1 DUP2 ISZERO PUSH2 0xF60 JUMPI POP PUSH1 0x1 EQ PUSH2 0xF25 JUMPI JUMPDEST PUSH2 0x927 DUP7 DUP7 PUSH2 0x91D DUP3 DUP12 SUB DUP4 PUSH2 0x1172 JUMP JUMPDEST SWAP3 SWAP6 POP PUSH1 0x3 DUP4 MSTORE DUP6 DUP4 KECCAK256 JUMPDEST DUP3 DUP5 LT PUSH2 0xF4D JUMPI POP POP POP DUP3 PUSH2 0x927 SWAP5 PUSH2 0x91D SWAP3 DUP3 ADD ADD SWAP5 CODESIZE PUSH2 0xF14 JUMP JUMPDEST DUP1 SLOAD DUP7 DUP6 ADD DUP9 ADD MSTORE SWAP3 DUP7 ADD SWAP3 DUP2 ADD PUSH2 0xF30 JUMP JUMPDEST PUSH1 0xFF NOT AND DUP8 DUP7 ADD MSTORE POP POP POP ISZERO ISZERO PUSH1 0x5 SHL DUP4 ADD ADD SWAP3 POP PUSH2 0x91D DUP3 PUSH2 0x927 CODESIZE PUSH2 0xF14 JUMP JUMPDEST PUSH4 0x4E487B71 PUSH1 0xE0 SHL DUP5 MSTORE PUSH1 0x22 SWAP1 MSTORE PUSH1 0x24 DUP4 REVERT JUMPDEST SWAP4 PUSH1 0x7F AND SWAP4 PUSH2 0xEF4 JUMP JUMPDEST POP POP CALLVALUE PUSH2 0x1D7 JUMPI DUP2 PUSH1 0x3 NOT CALLDATASIZE ADD SLT PUSH2 0x1D7 JUMPI PUSH1 0x20 SWAP1 PUSH2 0xBD8 PUSH2 0x13B5 JUMP JUMPDEST CALLVALUE PUSH2 0xFD8 JUMPI PUSH1 0x0 CALLDATASIZE PUSH1 0x3 NOT ADD SLT PUSH2 0xFD8 JUMPI PUSH1 0x20 PUSH1 0x40 MLOAD PUSH1 0x5A DUP2 MSTORE RETURN JUMPDEST PUSH1 0x0 DUP1 REVERT JUMPDEST PUSH1 0x20 DUP1 DUP3 MSTORE DUP3 MLOAD DUP2 DUP4 ADD DUP2 SWAP1 MSTORE SWAP1 SWAP4 SWAP3 PUSH1 0x0 JUMPDEST DUP3 DUP2 LT PUSH2 0x1012 JUMPI POP POP PUSH1 0x40 SWAP3 SWAP4 POP PUSH1 0x0 DUP4 DUP3 DUP5 ADD ADD MSTORE PUSH1 0x1F DUP1 NOT SWAP2 ADD AND ADD ADD SWAP1 JUMP JUMPDEST DUP2 DUP2 ADD DUP7 ADD MLOAD DUP5 DUP3 ADD PUSH1 0x40 ADD MSTORE DUP6 ADD PUSH2 0xFF0 JUMP JUMPDEST PUSH1 0x4 CALLDATALOAD SWAP1 PUSH1 0x1 PUSH1 0x1 PUSH1 0xA0 SHL SUB DUP3 AND DUP3 SUB PUSH2 0xFD8 JUMPI JUMP JUMPDEST PUSH1 0x24 CALLDATALOAD SWAP1 PUSH1 0x1 PUSH1 0x1 PUSH1 0xA0 SHL SUB DUP3 AND DUP3 SUB PUSH2 0xFD8 JUMPI JUMP JUMPDEST SWAP1 DUP2 MLOAD DUP1 DUP3 MSTORE PUSH1 0x20 DUP1 DUP1 SWAP4 ADD SWAP4 ADD SWAP2 PUSH1 0x0 JUMPDEST DUP3 DUP2 LT PUSH2 0x1072 JUMPI POP POP POP POP SWAP1 JUMP JUMPDEST DUP4 MLOAD DUP6 MSTORE SWAP4 DUP2 ADD SWAP4 SWAP3 DUP2 ADD SWAP3 PUSH1 0x1 ADD PUSH2 0x1064 JUMP JUMPDEST SWAP2 SWAP3 PUSH2 0x10AF PUSH2 0x10A0 PUSH2 0x10BD SWAP4 PUSH1 0x80 DUP7 MSTORE PUSH1 0x80 DUP7 ADD SWAP1 PUSH2 0x1052 JUMP JUMPDEST PUSH1 0x20 SWAP6 DUP6 DUP3 SUB DUP8 DUP8 ADD MSTORE PUSH2 0x1052 JUMP JUMPDEST SWAP1 DUP4 DUP3 SUB PUSH1 0x40 DUP6 ADD MSTORE PUSH2 0x1052 JUMP JUMPDEST SWAP1 PUSH1 0x60 DUP2 DUP4 SUB SWAP2 ADD MSTORE DUP2 DUP1 DUP5 MLOAD SWAP3 DUP4 DUP2 MSTORE ADD SWAP4 ADD SWAP2 PUSH1 0x0 JUMPDEST DUP3 DUP2 LT PUSH2 0x10E3 JUMPI POP POP POP POP SWAP1 JUMP JUMPDEST DUP4 MLOAD PUSH1 0xFF AND DUP6 MSTORE SWAP4 DUP2 ADD SWAP4 SWAP3 DUP2 ADD SWAP3 PUSH1 0x1 ADD PUSH2 0x10D5 JUMP JUMPDEST PUSH1 0x5 SLOAD PUSH1 0x1 PUSH1 0x1 PUSH1 0xA0 SHL SUB AND CALLER SUB PUSH2 0x110E JUMPI JUMP JUMPDEST PUSH1 0x40 MLOAD PUSH4 0x118CDAA7 PUSH1 0xE0 SHL DUP2 MSTORE CALLER PUSH1 0x4 DUP3 ADD MSTORE PUSH1 0x24 SWAP1 REVERT JUMPDEST PUSH1 0x80 DUP2 ADD SWAP1 DUP2 LT PUSH1 0x1 PUSH1 0x1 PUSH1 0x40 SHL SUB DUP3 GT OR PUSH2 0x1141 JUMPI PUSH1 0x40 MSTORE JUMP JUMPDEST PUSH4 0x4E487B71 PUSH1 0xE0 SHL PUSH1 0x0 MSTORE PUSH1 0x41 PUSH1 0x4 MSTORE PUSH1 0x24 PUSH1 0x0 REVERT JUMPDEST PUSH1 0x20 DUP2 ADD SWAP1 DUP2 LT PUSH1 0x1 PUSH1 0x1 PUSH1 0x40 SHL SUB DUP3 GT OR PUSH2 0x1141 JUMPI PUSH1 0x40 MSTORE JUMP JUMPDEST PUSH1 0x1F SWAP1 SWAP2 ADD PUSH1 0x1F NOT AND DUP2 ADD SWAP1 PUSH1 0x1 PUSH1 0x1 PUSH1 0x40 SHL SUB DUP3 GT SWAP1 DUP3 LT OR PUSH2 0x1141 JUMPI PUSH1 0x40 MSTORE JUMP JUMPDEST SWAP2 PUSH1 0x1 PUSH1 0x1 PUSH1 0xA0 SHL SUB DUP1 DUP5 AND SWAP3 DUP4 ISZERO PUSH2 0x1233 JUMPI AND SWAP3 DUP4 ISZERO PUSH2 0x121A JUMPI PUSH1 0x0 SWAP1 DUP4 DUP3 MSTORE DUP2 PUSH1 0x20 MSTORE PUSH1 0x40 DUP3 KECCAK256 SLOAD SWAP1 DUP4 DUP3 LT PUSH2 0x11FD JUMPI POP SWAP2 PUSH1 0x40 DUP3 DUP3 PUSH1 0x0 DUP1 MLOAD PUSH1 0x20 PUSH2 0x1694 DUP4 CODECOPY DUP2 MLOAD SWAP2 MSTORE SWAP6 DUP8 PUSH1 0x20 SWAP7 MSTORE DUP3 DUP7 MSTORE SUB DUP3 DUP3 KECCAK256 SSTORE DUP7 DUP2 MSTORE KECCAK256 DUP2 DUP2 SLOAD ADD SWAP1 SSTORE PUSH1 0x40 MLOAD SWAP1 DUP2 MSTORE LOG3 JUMP JUMPDEST PUSH2 0x493 DUP5 PUSH1 0x40 MLOAD SWAP4 DUP5 SWAP4 PUSH4 0x391434E3 PUSH1 0xE2 SHL DUP6 MSTORE PUSH1 0x4 DUP6 ADD PUSH2 0x124C JUMP JUMPDEST PUSH1 0x40 MLOAD PUSH4 0xEC442F05 PUSH1 0xE0 SHL DUP2 MSTORE PUSH1 0x0 PUSH1 0x4 DUP3 ADD MSTORE PUSH1 0x24 SWAP1 REVERT JUMPDEST PUSH1 0x40 MLOAD PUSH4 0x4B637E8F PUSH1 0xE1 SHL DUP2 MSTORE PUSH1 0x0 PUSH1 0x4 DUP3 ADD MSTORE PUSH1 0x24 SWAP1 REVERT JUMPDEST PUSH1 0x40 SWAP2 SWAP5 SWAP4 SWAP3 PUSH1 0x60 DUP3 ADD SWAP6 PUSH1 0x1 DUP1 PUSH1 0xA0 SHL SUB AND DUP3 MSTORE PUSH1 0x20 DUP3 ADD MSTORE ADD MSTORE JUMP JUMPDEST SWAP2 SWAP1 DUP3 ADD DUP1 SWAP3 GT PUSH2 0x1277 JUMPI JUMP JUMPDEST PUSH4 0x4E487B71 PUSH1 0xE0 SHL PUSH1 0x0 MSTORE PUSH1 0x11 PUSH1 0x4 MSTORE PUSH1 0x24 PUSH1 0x0 REVERT JUMPDEST SWAP1 DUP2 PUSH1 0x20 SWAP2 SUB SLT PUSH2 0xFD8 JUMPI MLOAD DUP1 ISZERO ISZERO DUP2 SUB PUSH2 0xFD8 JUMPI SWAP1 JUMP JUMPDEST DUP2 ISZERO PUSH2 0x12AF JUMPI DIV SWAP1 JUMP JUMPDEST PUSH4 0x4E487B71 PUSH1 0xE0 SHL PUSH1 0x0 MSTORE PUSH1 0x12 PUSH1 0x4 MSTORE PUSH1 0x24 PUSH1 0x0 REVERT JUMPDEST DUP1 SLOAD DUP3 LT ISZERO PUSH2 0x12E1 JUMPI PUSH1 0x0 MSTORE PUSH1 0x20 PUSH1 0x0 KECCAK256 SWAP1 PUSH1 0x2 SHL ADD SWAP1 PUSH1 0x0 SWAP1 JUMP JUMPDEST PUSH4 0x4E487B71 PUSH1 0xE0 SHL PUSH1 0x0 MSTORE PUSH1 0x32 PUSH1 0x4 MSTORE PUSH1 0x24 PUSH1 0x0 REVERT JUMPDEST DUP1 SLOAD PUSH1 0x1 PUSH1 0x40 SHL DUP2 LT ISZERO PUSH2 0x1141 JUMPI PUSH2 0x1314 SWAP2 PUSH1 0x1 DUP3 ADD DUP2 SSTORE PUSH2 0x12C5 JUMP JUMPDEST PUSH2 0x1347 JUMPI PUSH1 0x60 PUSH1 0x3 PUSH1 0xFF SWAP3 DUP5 MLOAD DUP2 SSTORE PUSH1 0x20 DUP6 ADD MLOAD PUSH1 0x1 DUP3 ADD SSTORE PUSH1 0x40 DUP6 ADD MLOAD PUSH1 0x2 DUP3 ADD SSTORE ADD SWAP3 ADD MLOAD AND PUSH1 0xFF NOT DUP3 SLOAD AND OR SWAP1 SSTORE JUMP JUMPDEST PUSH4 0x4E487B71 PUSH1 0xE0 SHL PUSH1 0x0 MSTORE PUSH1 0x0 PUSH1 0x4 MSTORE PUSH1 0x24 PUSH1 0x0 REVERT JUMPDEST PUSH1 0x0 DUP1 MLOAD PUSH1 0x20 PUSH2 0x16B4 DUP4 CODECOPY DUP2 MLOAD SWAP2 MSTORE PUSH1 0x2 DUP2 SLOAD EQ PUSH2 0x137B JUMPI PUSH1 0x2 SWAP1 SSTORE JUMP JUMPDEST PUSH1 0x40 MLOAD PUSH4 0x3EE5AEB5 PUSH1 0xE0 SHL DUP2 MSTORE PUSH1 0x4 SWAP1 REVERT JUMPDEST SWAP2 SWAP1 DUP3 SUB SWAP2 DUP3 GT PUSH2 0x1277 JUMPI JUMP JUMPDEST PUSH1 0x1 PUSH1 0x1 PUSH1 0xA0 SHL SUB SWAP1 SWAP2 AND DUP2 MSTORE PUSH1 0x20 DUP2 ADD SWAP2 SWAP1 SWAP2 MSTORE PUSH1 0x40 ADD SWAP1 JUMP JUMPDEST PUSH1 0x2 SLOAD DUP1 ISZERO PUSH2 0x13E8 JUMPI PUSH1 0x7 SLOAD SWAP1 PUSH8 0xDE0B6B3A7640000 SWAP2 DUP3 DUP2 MUL SWAP3 DUP2 DUP5 DIV EQ SWAP1 ISZERO OR ISZERO PUSH2 0x1277 JUMPI PUSH2 0x13E5 SWAP2 PUSH2 0x12A5 JUMP JUMPDEST SWAP1 JUMP JUMPDEST POP PUSH8 0x16345785D8A0000 SWAP1 JUMP JUMPDEST PUSH2 0x13FD PUSH2 0x13B5 JUMP JUMPDEST PUSH1 0x5A DUP2 MUL SWAP1 DUP1 DUP3 DIV PUSH1 0x5A EQ SWAP1 ISZERO OR ISZERO PUSH2 0x1277 JUMPI PUSH1 0x64 SWAP1 DIV SWAP1 JUMP JUMPDEST PUSH1 0x1 PUSH1 0x1 PUSH1 0x40 SHL SUB DUP2 GT PUSH2 0x1141 JUMPI PUSH1 0x5 SHL PUSH1 0x20 ADD SWAP1 JUMP JUMPDEST SWAP1 PUSH2 0x1438 DUP3 PUSH2 0x1417 JUMP JUMPDEST PUSH2 0x1445 PUSH1 0x40 MLOAD SWAP2 DUP3 PUSH2 0x1172 JUMP JUMPDEST DUP3 DUP2 MSTORE DUP1 SWAP3 PUSH2 0x1456 PUSH1 0x1F NOT SWAP2 PUSH2 0x1417 JUMP JUMPDEST ADD SWAP1 PUSH1 0x20 CALLDATASIZE SWAP2 ADD CALLDATACOPY JUMP JUMPDEST PUSH1 0x0 NOT DUP2 EQ PUSH2 0x1277 JUMPI PUSH1 0x1 ADD SWAP1 JUMP JUMPDEST DUP1 MLOAD DUP3 LT ISZERO PUSH2 0x12E1 JUMPI PUSH1 0x20 SWAP2 PUSH1 0x5 SHL ADD ADD SWAP1 JUMP JUMPDEST PUSH1 0x1 PUSH1 0x1 PUSH1 0xA0 SHL SUB AND PUSH1 0x0 SWAP1 DUP2 MSTORE PUSH1 0xC PUSH1 0x20 MSTORE PUSH1 0x40 DUP2 KECCAK256 SWAP3 PUSH2 0x14A5 SWAP1 DUP4 PUSH2 0x126A JUMP JUMPDEST DUP4 SLOAD DUP1 DUP3 GT PUSH2 0x15A5 JUMPI JUMPDEST DUP4 LT ISZERO PUSH2 0x1558 JUMPI DUP3 PUSH2 0x14C0 SWAP2 PUSH2 0x138D JUMP JUMPDEST SWAP4 PUSH2 0x14CA DUP6 PUSH2 0x142E JUMP JUMPDEST SWAP5 PUSH2 0x14D4 DUP2 PUSH2 0x142E JUMP JUMPDEST SWAP5 PUSH2 0x14DE DUP3 PUSH2 0x142E JUMP JUMPDEST SWAP5 PUSH2 0x14E8 DUP4 PUSH2 0x142E JUMP JUMPDEST SWAP5 JUMPDEST DUP4 DUP2 LT PUSH2 0x14F7 JUMPI POP POP POP POP JUMP JUMPDEST DUP1 PUSH1 0xFF PUSH1 0x3 PUSH2 0x1512 PUSH2 0x150C PUSH2 0x1553 SWAP6 DUP8 PUSH2 0x126A JUMP JUMPDEST DUP8 PUSH2 0x12C5 JUMP JUMPDEST POP DUP1 SLOAD PUSH2 0x151F DUP6 DUP16 PUSH2 0x146F JUMP JUMPDEST MSTORE PUSH1 0x1 DUP2 ADD SLOAD PUSH2 0x152F DUP6 DUP15 PUSH2 0x146F JUMP JUMPDEST MSTORE PUSH1 0x2 DUP2 ADD SLOAD PUSH2 0x153F DUP6 DUP14 PUSH2 0x146F JUMP JUMPDEST MSTORE ADD SLOAD AND PUSH2 0x154D DUP3 DUP10 PUSH2 0x146F JUMP JUMPDEST MSTORE PUSH2 0x1460 JUMP JUMPDEST PUSH2 0x14EA JUMP JUMPDEST POP SWAP2 POP POP PUSH1 0x40 MLOAD SWAP1 PUSH2 0x1569 DUP3 PUSH2 0x1157 JUMP JUMPDEST DUP1 DUP3 MSTORE PUSH1 0x40 MLOAD SWAP3 PUSH2 0x1579 DUP5 PUSH2 0x1157 JUMP JUMPDEST DUP2 DUP5 MSTORE PUSH1 0x40 MLOAD SWAP3 PUSH2 0x1589 DUP5 PUSH2 0x1157 JUMP JUMPDEST DUP3 DUP5 MSTORE PUSH1 0x40 MLOAD SWAP3 PUSH2 0x1599 DUP5 PUSH2 0x1157 JUMP JUMPDEST DUP1 DUP5 MSTORE CALLDATASIZE DUP2 CALLDATACOPY SWAP4 SWAP3 SWAP2 SWAP1 JUMP JUMPDEST SWAP1 POP DUP1 PUSH2 0x14AF JUMP JUMPDEST PUSH1 0x1 PUSH1 0x1 PUSH1 0xA0 SHL SUB AND PUSH1 0x0 SWAP1 DUP2 MSTORE PUSH1 0xC PUSH1 0x20 MSTORE PUSH1 0x40 DUP2 KECCAK256 DUP1 SLOAD SWAP4 SWAP1 SWAP3 SWAP1 SWAP2 SWAP1 DUP5 ISZERO PUSH2 0x1641 JUMPI DUP5 DUP2 GT ISZERO PUSH2 0x1636 JUMPI POP PUSH2 0x15E5 DUP5 DUP1 PUSH2 0x138D JUMP JUMPDEST SWAP2 PUSH2 0x15EF DUP6 PUSH2 0x142E JUMP JUMPDEST SWAP5 PUSH2 0x15F9 DUP2 PUSH2 0x142E JUMP JUMPDEST SWAP5 PUSH2 0x1603 DUP3 PUSH2 0x142E JUMP JUMPDEST SWAP5 PUSH2 0x160D DUP4 PUSH2 0x142E JUMP JUMPDEST SWAP5 JUMPDEST DUP4 DUP2 LT PUSH2 0x161C JUMPI POP POP POP POP JUMP JUMPDEST DUP1 PUSH1 0xFF PUSH1 0x3 PUSH2 0x1512 PUSH2 0x150C PUSH2 0x1631 SWAP6 DUP8 PUSH2 0x126A JUMP JUMPDEST PUSH2 0x160F JUMP JUMPDEST PUSH2 0x15E5 SWAP1 DUP1 SWAP6 PUSH2 0x138D JUMP JUMPDEST POP SWAP2 POP SWAP2 POP PUSH1 0x40 MLOAD SWAP1 PUSH2 0x1569 DUP3 PUSH2 0x1157 JUMP INVALID SWAP5 0x5C SHR 0x4E SWAP10 0xAA DUP10 0xF6 BASEFEE 0xFB INVALID RETURNDATASIZE DELEGATECALL PUSH18 0xB916F719E16D960FCEC0737D4D56BD696838 DUP12 0xE0 SMOD SWAP13 MSTORE8 AND MSIZE EQ SGT PREVRANDAO 0xCD 0x1F 0xD0 LOG4 CALLCODE DUP5 NOT 0x49 PUSH32 0x9722A3DAAFE3B4186F6B6457E0DDF252AD1BE2C89B69C2B068FC378DAA952BA7 CALL PUSH4 0xC4A11628 CREATE2 GAS 0x4D CREATE2 0x23 0xB3 0xEF SWAP12 PUSH24 0x9B17422D0DF92223018B32B4D1FA46E071723D6817E2486D STOP EXTCODESIZE 0xEC 0xC5 PUSH0 STOP LOG2 PUSH5 0x6970667358 0x22 SLT KECCAK256 0x27 MSTORE KECCAK256 0xEA CALLDATACOPY PUSH2 0xA909 BALANCE LOG4 0x27 0xC7 SELFDESTRUCT PUSH29 0x5B208FAEB641CE5312DF2797C875D9C131C64736F6C63430008140033 "},"methodIdentifiers":{"INITIAL_PRICE()":"7c5e2795","MINT_PERCENTAGE()":"5ff74b91","SELL_PERCENTAGE()":"01c46b39","addLiquidityAndMint(address,uint256)":"9ca71b26","allowance(address,address)":"dd62ed3e","approve(address,uint256)":"095ea7b3","balanceOf(address)":"70a08231","decimals()":"313ce567","getBuyPrice()":"018a25e8","getRecentTransfers(address,uint256)":"085fb1f9","getSellPrice()":"43d32e9c","getTotalAvailableTokens()":"528cc113","getTotalBurnedByUser(address)":"5e25ebcc","getTotalBurnedTokens()":"2af0e251","getTotalLiquidity()":"35c7e925","getTotalMintedTokens()":"f67a769c","getTotalReceivedByUser(address)":"d36689a8","getUserTransferCount(address)":"723d9167","getUserTransferHistory(address,uint256,uint256)":"8a672bfe","mvaultContract()":"912a6a3a","name()":"06fdde03","owner()":"8da5cb5b","renounceOwnership()":"715018a6","sell(uint256)":"e4849b32","setMvaultContract(address)":"82b20202","symbol()":"95d89b41","totalBurned()":"d89135cd","totalBurnedByUser(address)":"a6059286","totalLiquidity()":"15770f92","totalMinted()":"a2309ff8","totalReceivedByUser(address)":"34e8c1a4","totalSupply()":"18160ddd","transfer(address,uint256)":"a9059cbb","transferFrom(address,address,uint256)":"23b872dd","transferOwnership(address)":"f2fde38b","usdtToken()":"a98ad46c","withdrawUSDT(address,uint256)":"1481794e"}}}}}