{"contracts/MvaultContract.sol":{"MvaultContract":{"abi":[{"inputs":[{"internalType":"address","name":"_usdt","type":"address"},{"internalType":"address","name":"_mvaultToken","type":"address"}],"stateMutability":"nonpayable","type":"constructor"},{"inputs":[],"name":"AlreadyActive","type":"error"},{"inputs":[],"name":"AlreadyRegistered","type":"error"},{"inputs":[],"name":"BinaryAlreadyDistributed","type":"error"},{"inputs":[],"name":"BinaryNotDistributed","type":"error"},{"inputs":[],"name":"BoardHandlerNotSet","type":"error"},{"inputs":[],"name":"InsufficientBtcPool","type":"error"},{"inputs":[],"name":"InsufficientBtcPoolForBoard","type":"error"},{"inputs":[],"name":"InsufficientRebirthPool","type":"error"},{"inputs":[],"name":"InsufficientUsdtBalance","type":"error"},{"inputs":[],"name":"InsufficientVirtualBalance","type":"error"},{"inputs":[],"name":"InvalidSponsor","type":"error"},{"inputs":[],"name":"NoOpenBinarySlot","type":"error"},{"inputs":[],"name":"NotRegistered","type":"error"},{"inputs":[{"internalType":"address","name":"owner","type":"address"}],"name":"OwnableInvalidOwner","type":"error"},{"inputs":[{"internalType":"address","name":"account","type":"address"}],"name":"OwnableUnauthorizedAccount","type":"error"},{"inputs":[],"name":"PositionTaken","type":"error"},{"inputs":[],"name":"ReentrancyGuardReentrantCall","type":"error"},{"inputs":[],"name":"TransferFailed","type":"error"},{"inputs":[],"name":"ZeroAddress","type":"error"},{"inputs":[],"name":"ZeroAmount","type":"error"},{"anonymous":false,"inputs":[{"indexed":true,"internalType":"address","name":"user","type":"address"},{"indexed":false,"internalType":"uint256","name":"mvtMinted","type":"uint256"},{"indexed":false,"internalType":"uint256","name":"grossMvt","type":"uint256"},{"indexed":false,"internalType":"uint256","name":"levelAmt","type":"uint256"},{"indexed":false,"internalType":"uint256","name":"binaryAmt","type":"uint256"},{"indexed":false,"internalType":"uint256","name":"adminAmt","type":"uint256"}],"name":"Activated","type":"event"},{"anonymous":false,"inputs":[{"indexed":true,"internalType":"address","name":"to","type":"address"},{"indexed":false,"internalType":"uint256","name":"amount","type":"uint256"}],"name":"AdminWithdraw","type":"event"},{"anonymous":false,"inputs":[{"indexed":false,"internalType":"uint256","name":"totalPool","type":"uint256"},{"indexed":false,"internalType":"uint256","name":"binary70","type":"uint256"},{"indexed":false,"internalType":"uint256","name":"powerLeg30","type":"uint256"},{"indexed":false,"internalType":"uint256","name":"totalPairs","type":"uint256"}],"name":"BinaryIncomeDistributed","type":"event"},{"anonymous":false,"inputs":[{"indexed":true,"internalType":"address","name":"user","type":"address"},{"indexed":false,"internalType":"uint256","name":"boardLevel","type":"uint256"},{"indexed":false,"internalType":"uint256","name":"usdtDeducted","type":"uint256"}],"name":"BoardEntered","type":"event"},{"anonymous":false,"inputs":[{"indexed":true,"internalType":"address","name":"newHandler","type":"address"}],"name":"BoardHandlerUpdated","type":"event"},{"anonymous":false,"inputs":[{"indexed":true,"internalType":"address","name":"user","type":"address"},{"indexed":false,"internalType":"uint256","name":"usdtAmount","type":"uint256"},{"indexed":false,"internalType":"uint256","name":"boardLevel","type":"uint256"}],"name":"BoardRewardCredited","type":"event"},{"anonymous":false,"inputs":[{"indexed":true,"internalType":"address","name":"user","type":"address"},{"indexed":false,"internalType":"uint256","name":"amount","type":"uint256"}],"name":"BtcPoolCredited","type":"event"},{"anonymous":false,"inputs":[{"indexed":true,"internalType":"address","name":"user","type":"address"},{"indexed":false,"internalType":"uint256","name":"amount","type":"uint256"}],"name":"BtcPoolWithdrawn","type":"event"},{"anonymous":false,"inputs":[{"indexed":true,"internalType":"address","name":"to","type":"address"},{"indexed":true,"internalType":"address","name":"from","type":"address"},{"indexed":false,"internalType":"uint8","name":"level","type":"uint8"},{"indexed":false,"internalType":"uint256","name":"amount","type":"uint256"}],"name":"LevelIncomePaid","type":"event"},{"anonymous":false,"inputs":[{"indexed":true,"internalType":"address","name":"upline","type":"address"},{"indexed":false,"internalType":"uint8","name":"level","type":"uint8"},{"indexed":false,"internalType":"uint256","name":"amount","type":"uint256"}],"name":"LevelIncomeSkipped","type":"event"},{"anonymous":false,"inputs":[{"indexed":false,"internalType":"address","name":"newToken","type":"address"}],"name":"MvaultTokenUpdated","type":"event"},{"anonymous":false,"inputs":[{"indexed":true,"internalType":"address","name":"user","type":"address"},{"indexed":false,"internalType":"uint256","name":"mvtAmount","type":"uint256"},{"indexed":false,"internalType":"uint256","name":"usdtNet","type":"uint256"},{"indexed":false,"internalType":"uint256","name":"usdtToBtcPool","type":"uint256"},{"indexed":false,"internalType":"uint256","name":"usdtToIncome","type":"uint256"},{"indexed":false,"internalType":"uint256","name":"usdtToRebirth","type":"uint256"}],"name":"MvtSold","type":"event"},{"anonymous":false,"inputs":[{"indexed":true,"internalType":"address","name":"previousOwner","type":"address"},{"indexed":true,"internalType":"address","name":"newOwner","type":"address"}],"name":"OwnershipTransferred","type":"event"},{"anonymous":false,"inputs":[{"indexed":false,"internalType":"uint256","name":"totalPowerLeg30","type":"uint256"},{"indexed":false,"internalType":"uint256","name":"totalPowerLegs","type":"uint256"}],"name":"PowerLegDistributed","type":"event"},{"anonymous":false,"inputs":[{"indexed":true,"internalType":"address","name":"user","type":"address"}],"name":"ProfileUpdated","type":"event"},{"anonymous":false,"inputs":[{"indexed":true,"internalType":"address","name":"mainAccount","type":"address"},{"indexed":true,"internalType":"address","name":"subAccount","type":"address"},{"indexed":false,"internalType":"uint256","name":"rebirthIndex","type":"uint256"}],"name":"Reborn","type":"event"},{"anonymous":false,"inputs":[{"indexed":true,"internalType":"address","name":"user","type":"address"},{"indexed":true,"internalType":"address","name":"sponsor","type":"address"},{"indexed":true,"internalType":"address","name":"binaryParent","type":"address"},{"indexed":false,"internalType":"bool","name":"placeLeft","type":"bool"}],"name":"Registered","type":"event"},{"anonymous":false,"inputs":[{"indexed":true,"internalType":"address","name":"to","type":"address"},{"indexed":false,"internalType":"uint256","name":"amount","type":"uint256"}],"name":"ReserveWithdraw","type":"event"},{"anonymous":false,"inputs":[{"indexed":true,"internalType":"address","name":"user","type":"address"},{"indexed":false,"internalType":"uint256","name":"amount","type":"uint256"}],"name":"UsdtWithdrawn","type":"event"},{"inputs":[],"name":"ADMIN_ALLOC","outputs":[{"internalType":"uint256","name":"","type":"uint256"}],"stateMutability":"view","type":"function"},{"inputs":[],"name":"BINARY_ALLOC","outputs":[{"internalType":"uint256","name":"","type":"uint256"}],"stateMutability":"view","type":"function"},{"inputs":[],"name":"BTC_POOL_RATE","outputs":[{"internalType":"uint256","name":"","type":"uint256"}],"stateMutability":"view","type":"function"},{"inputs":[],"name":"INCOME_LIMIT","outputs":[{"internalType":"uint256","name":"","type":"uint256"}],"stateMutability":"view","type":"function"},{"inputs":[],"name":"LEVEL_ALLOC","outputs":[{"internalType":"uint256","name":"","type":"uint256"}],"stateMutability":"view","type":"function"},{"inputs":[],"name":"PACKAGE_PRICE","outputs":[{"internalType":"uint256","name":"","type":"uint256"}],"stateMutability":"view","type":"function"},{"inputs":[],"name":"activate","outputs":[],"stateMutability":"nonpayable","type":"function"},{"inputs":[],"name":"adminPool","outputs":[{"internalType":"uint256","name":"","type":"uint256"}],"stateMutability":"view","type":"function"},{"inputs":[{"internalType":"uint256","name":"","type":"uint256"}],"name":"allUsers","outputs":[{"internalType":"address","name":"","type":"address"}],"stateMutability":"view","type":"function"},{"inputs":[],"name":"binaryPool","outputs":[{"internalType":"uint256","name":"","type":"uint256"}],"stateMutability":"view","type":"function"},{"inputs":[{"internalType":"address","name":"","type":"address"}],"name":"boardEntryCount","outputs":[{"internalType":"uint256","name":"","type":"uint256"}],"stateMutability":"view","type":"function"},{"inputs":[],"name":"boardHandler","outputs":[{"internalType":"contract IMvaultBoardMatrix","name":"","type":"address"}],"stateMutability":"view","type":"function"},{"inputs":[{"internalType":"address","name":"_user","type":"address"}],"name":"canEnterBoard","outputs":[{"internalType":"bool","name":"eligible","type":"bool"},{"internalType":"uint256","name":"btcBalance","type":"uint256"},{"internalType":"uint256","name":"boardPrice","type":"uint256"}],"stateMutability":"view","type":"function"},{"inputs":[{"internalType":"address","name":"user","type":"address"}],"name":"canRebirth","outputs":[{"internalType":"bool","name":"eligible","type":"bool"},{"internalType":"uint256","name":"poolBalance","type":"uint256"}],"stateMutability":"view","type":"function"},{"inputs":[{"internalType":"address","name":"_user","type":"address"},{"internalType":"uint256","name":"_usdtAmount","type":"uint256"},{"internalType":"uint256","name":"_boardLevel","type":"uint256"}],"name":"creditBoardReward","outputs":[],"stateMutability":"nonpayable","type":"function"},{"inputs":[{"internalType":"uint256","name":"offset","type":"uint256"},{"internalType":"uint256","name":"limit","type":"uint256"}],"name":"distributeBinaryIncome","outputs":[],"stateMutability":"nonpayable","type":"function"},{"inputs":[{"internalType":"uint256","name":"offset","type":"uint256"},{"internalType":"uint256","name":"limit","type":"uint256"}],"name":"distributePowerLeg","outputs":[],"stateMutability":"nonpayable","type":"function"},{"inputs":[],"name":"enterBoardPool","outputs":[],"stateMutability":"nonpayable","type":"function"},{"inputs":[],"name":"getAllUsersCount","outputs":[{"internalType":"uint256","name":"","type":"uint256"}],"stateMutability":"view","type":"function"},{"inputs":[{"internalType":"uint256","name":"_level","type":"uint256"}],"name":"getBoardCurrentIndex","outputs":[{"internalType":"uint256","name":"","type":"uint256"}],"stateMutability":"view","type":"function"},{"inputs":[{"internalType":"uint256","name":"_level","type":"uint256"},{"internalType":"uint256","name":"_index","type":"uint256"}],"name":"getBoardMatrixInfo","outputs":[{"internalType":"address","name":"owner","type":"address"},{"internalType":"uint256","name":"filledCount","type":"uint256"},{"internalType":"bool","name":"completed","type":"bool"}],"stateMutability":"view","type":"function"},{"inputs":[{"internalType":"uint256","name":"_level","type":"uint256"}],"name":"getBoardPrice","outputs":[{"internalType":"uint256","name":"","type":"uint256"}],"stateMutability":"view","type":"function"},{"inputs":[{"internalType":"uint256","name":"_level","type":"uint256"}],"name":"getBoardQueueLength","outputs":[{"internalType":"uint256","name":"","type":"uint256"}],"stateMutability":"view","type":"function"},{"inputs":[{"internalType":"address","name":"u","type":"address"}],"name":"getBtcPoolInfo","outputs":[{"internalType":"uint256","name":"btcPoolBalance","type":"uint256"},{"internalType":"uint256","name":"totalBtcEarned","type":"uint256"}],"stateMutability":"view","type":"function"},{"inputs":[{"internalType":"address","name":"u","type":"address"}],"name":"getCurrentBinaryPairs","outputs":[{"internalType":"uint256","name":"currentPairs","type":"uint256"},{"internalType":"uint256","name":"newPairs","type":"uint256"}],"stateMutability":"view","type":"function"},{"inputs":[],"name":"getMvtContractBalance","outputs":[{"internalType":"uint256","name":"","type":"uint256"}],"stateMutability":"view","type":"function"},{"inputs":[],"name":"getMvtPrice","outputs":[{"internalType":"uint256","name":"buyPrice","type":"uint256"},{"internalType":"uint256","name":"sellPrice","type":"uint256"}],"stateMutability":"view","type":"function"},{"inputs":[],"name":"getPoolBalances","outputs":[{"internalType":"uint256","name":"binary","type":"uint256"},{"internalType":"uint256","name":"reserve","type":"uint256"},{"internalType":"uint256","name":"admin","type":"uint256"}],"stateMutability":"view","type":"function"},{"inputs":[{"internalType":"address","name":"_user","type":"address"}],"name":"getProfile","outputs":[{"internalType":"string","name":"displayName","type":"string"},{"internalType":"string","name":"email","type":"string"},{"internalType":"string","name":"phone","type":"string"},{"internalType":"string","name":"country","type":"string"},{"internalType":"bool","name":"profileSet","type":"bool"}],"stateMutability":"view","type":"function"},{"inputs":[{"internalType":"address","name":"_user","type":"address"}],"name":"getUserBoardStats","outputs":[{"internalType":"uint256","name":"entries","type":"uint256"},{"internalType":"uint256","name":"totalRewards","type":"uint256"}],"stateMutability":"view","type":"function"},{"inputs":[{"internalType":"address","name":"u","type":"address"}],"name":"getUserInfo","outputs":[{"internalType":"bool","name":"isRegistered","type":"bool"},{"internalType":"bool","name":"isActive","type":"bool"},{"internalType":"address","name":"sponsor","type":"address"},{"internalType":"uint256","name":"directCount","type":"uint256"},{"internalType":"address","name":"binaryParent","type":"address"},{"internalType":"bool","name":"placedLeft","type":"bool"},{"internalType":"address","name":"leftChild","type":"address"},{"internalType":"address","name":"rightChild","type":"address"},{"internalType":"uint256","name":"leftSubUsers","type":"uint256"},{"internalType":"uint256","name":"rightSubUsers","type":"uint256"},{"internalType":"uint256","name":"mvtBalance","type":"uint256"},{"internalType":"uint256","name":"totalReceived","type":"uint256"},{"internalType":"uint256","name":"totalSold","type":"uint256"},{"internalType":"uint256","name":"incomeLimit","type":"uint256"},{"internalType":"uint256","name":"usdtBalance","type":"uint256"},{"internalType":"uint256","name":"rebirthPool","type":"uint256"},{"internalType":"uint256","name":"btcPoolBalance","type":"uint256"},{"internalType":"uint256","name":"powerLegPoints","type":"uint256"},{"internalType":"uint256","name":"matchedPairs","type":"uint256"},{"internalType":"address","name":"mainAccount","type":"address"},{"internalType":"uint256","name":"rebirthCount","type":"uint256"},{"internalType":"uint256","name":"joinedAt","type":"uint256"}],"stateMutability":"view","type":"function"},{"inputs":[],"name":"mvaultToken","outputs":[{"internalType":"contract IMvaultToken","name":"","type":"address"}],"stateMutability":"view","type":"function"},{"inputs":[],"name":"owner","outputs":[{"internalType":"address","name":"","type":"address"}],"stateMutability":"view","type":"function"},{"inputs":[{"internalType":"address","name":"subAccount","type":"address"},{"internalType":"bool","name":"placeLeft","type":"bool"}],"name":"rebirth","outputs":[],"stateMutability":"nonpayable","type":"function"},{"inputs":[{"internalType":"address","name":"sponsor","type":"address"},{"internalType":"address","name":"binaryParent","type":"address"},{"internalType":"bool","name":"placeLeft","type":"bool"}],"name":"register","outputs":[],"stateMutability":"nonpayable","type":"function"},{"inputs":[],"name":"renounceOwnership","outputs":[],"stateMutability":"nonpayable","type":"function"},{"inputs":[],"name":"reservePool","outputs":[{"internalType":"uint256","name":"","type":"uint256"}],"stateMutability":"view","type":"function"},{"inputs":[{"internalType":"uint256","name":"amount","type":"uint256"}],"name":"sellMvt","outputs":[],"stateMutability":"nonpayable","type":"function"},{"inputs":[{"internalType":"address","name":"_boardHandler","type":"address"}],"name":"setBoardHandler","outputs":[],"stateMutability":"nonpayable","type":"function"},{"inputs":[{"internalType":"address","name":"_mvaultToken","type":"address"}],"name":"setMvaultToken","outputs":[],"stateMutability":"nonpayable","type":"function"},{"inputs":[{"internalType":"string","name":"_displayName","type":"string"},{"internalType":"string","name":"_email","type":"string"},{"internalType":"string","name":"_phone","type":"string"},{"internalType":"string","name":"_country","type":"string"}],"name":"setProfile","outputs":[],"stateMutability":"nonpayable","type":"function"},{"inputs":[{"internalType":"address","name":"","type":"address"}],"name":"totalBoardRewardsEarned","outputs":[{"internalType":"uint256","name":"","type":"uint256"}],"stateMutability":"view","type":"function"},{"inputs":[],"name":"totalUsers","outputs":[{"internalType":"uint256","name":"","type":"uint256"}],"stateMutability":"view","type":"function"},{"inputs":[{"internalType":"address","name":"newOwner","type":"address"}],"name":"transferOwnership","outputs":[],"stateMutability":"nonpayable","type":"function"},{"inputs":[],"name":"usdtToken","outputs":[{"internalType":"contract IERC20","name":"","type":"address"}],"stateMutability":"view","type":"function"},{"inputs":[{"internalType":"address","name":"","type":"address"}],"name":"users","outputs":[{"internalType":"bool","name":"isRegistered","type":"bool"},{"internalType":"bool","name":"isActive","type":"bool"},{"internalType":"address","name":"sponsor","type":"address"},{"internalType":"uint256","name":"directCount","type":"uint256"},{"internalType":"address","name":"binaryParent","type":"address"},{"internalType":"bool","name":"placedLeft","type":"bool"},{"internalType":"address","name":"leftChild","type":"address"},{"internalType":"address","name":"rightChild","type":"address"},{"internalType":"uint256","name":"leftSubUsers","type":"uint256"},{"internalType":"uint256","name":"rightSubUsers","type":"uint256"},{"internalType":"uint256","name":"matchedPairs","type":"uint256"},{"internalType":"uint256","name":"mvtBalance","type":"uint256"},{"internalType":"uint256","name":"totalReceived","type":"uint256"},{"internalType":"uint256","name":"totalSold","type":"uint256"},{"internalType":"uint256","name":"incomeLimit","type":"uint256"},{"internalType":"uint256","name":"usdtBalance","type":"uint256"},{"internalType":"uint256","name":"rebirthPool","type":"uint256"},{"internalType":"uint256","name":"totalUsdtEarned","type":"uint256"},{"internalType":"uint256","name":"btcPoolBalance","type":"uint256"},{"internalType":"uint256","name":"totalBtcEarned","type":"uint256"},{"internalType":"uint256","name":"powerLegPoints","type":"uint256"},{"internalType":"address","name":"mainAccount","type":"address"},{"internalType":"uint256","name":"rebirthCount","type":"uint256"},{"internalType":"uint256","name":"joinedAt","type":"uint256"},{"internalType":"string","name":"displayName","type":"string"},{"internalType":"string","name":"email","type":"string"},{"internalType":"string","name":"phone","type":"string"},{"internalType":"string","name":"country","type":"string"},{"internalType":"bool","name":"profileSet","type":"bool"}],"stateMutability":"view","type":"function"},{"inputs":[{"internalType":"address","name":"to","type":"address"},{"internalType":"uint256","name":"amount","type":"uint256"}],"name":"withdrawAdminPool","outputs":[],"stateMutability":"nonpayable","type":"function"},{"inputs":[{"internalType":"uint256","name":"amount","type":"uint256"}],"name":"withdrawBtcPool","outputs":[],"stateMutability":"nonpayable","type":"function"},{"inputs":[{"internalType":"address","name":"to","type":"address"},{"internalType":"uint256","name":"amount","type":"uint256"}],"name":"withdrawReservePool","outputs":[],"stateMutability":"nonpayable","type":"function"},{"inputs":[{"internalType":"uint256","name":"amount","type":"uint256"}],"name":"withdrawUsdt","outputs":[],"stateMutability":"nonpayable","type":"function"}],"evm":{"bytecode":{"linkReferences":{},"object":"60a0346200016757601f62003ef738819003918201601f19168301916001600160401b038311848410176200016c57808492604094855283398101031262000167576200005a6020620000528362000182565b920162000182565b9033156200014e576000549160018060a01b03199233848216176000556040519060018060a01b03938491823391167f8be0079c531659141344cd1fd0a4f28419497f9722a3daafe3b4186f6b6457e0600080a360017f9b779b17422d0df92223018b32b4d1fa46e071723d6817e2486d003becc55f005516908115801562000143575b62000134575060805216906001541617600155604051613d5f908162000198823960805181818161070c01528181610a5b01528181610ca60152818161111701528181611d41015281816129260152612eca0152f35b63d92e233d60e01b8152600490fd5b5083831615620000de565b604051631e4fbdf760e01b815260006004820152602490fd5b600080fd5b634e487b7160e01b600052604160045260246000fd5b51906001600160a01b0382168203620001675756fe61032080604052600436101561001457600080fd5b600090813560e01c9081630266f04414612a2257508063039ccc26146129fe57806303c3ecb7146129b85780630f15f4c0146128bc5780630f53a470146127fc5780631ce5e8941461278a5780631f6259d5146127615780632335821b146127285780632808bc8d146126645780632d641f081461262757806338abfc41146126095780633ac272c2146125ea57806344e374d514610c1857806347cd5191146125cb57806352375bb11461259c57806355509c8f14611fd1578063634f627e14611cbb5780636386c1c714611aed57806368ddb2b514611a15578063715018a6146119cd5780637753784414610c185780637f1b4064146119af5780638a8f04291461179e5780638da5cb5b1461177757806392446e301461175b57806394915dd0146114785780639499a3511461143f578063a2bdedf4146113fb578063a87430ba14611146578063a98ad46c14611101578063aa33f5d514610d8f578063aa39375714610d6b578063b58e027814610c3b578063b86a1fb214610c1d578063be648bdb14610c18578063bff1f9e114610bfa578063c9d484cf14610bd1578063ce8292f514610b3d578063d3635a02146109f0578063d4a902861461091e578063e3ba9bda146108b4578063e4093a661461064e578063e51cb53014610600578063eb63e1c2146105d9578063ec50324a146104da578063f00b0093146104a1578063f0b7b9dc1461037f578063f24c536a14610306578063f2fde38b146102905763fb72ca351461024857600080fd5b3461028d57602036600319011261028d576040906001600160a01b0361026c612a3e565b168152600b602052818082205491600c602052205482519182526020820152f35b80fd5b503461028d57602036600319011261028d576102aa612a3e565b6102b2612c3a565b6001600160a01b039081169081156102ed576000548260018060a01b031982161760005516600080516020613cca833981519152600080a380f35b604051631e4fbdf760e01b815260048101849052602490fd5b503461028d57602036600319011261028d576040906001600160a01b0361032b612a3e565b1681526003602052818120906007600583015460068401548082106000146103775750925b01548083111561037157610365915082612c9f565b82519182526020820152f35b50610365565b905092610350565b503461028d57606036600319011261028d57610399612a3e565b602435906103a5612cf9565b6002546001600160a01b03919082163303610468577f2393acb59b41dd645f68fe97bab0deba2a21b99efc69761e9b2762f11bbbe79d9160409116926103ec841515612d29565b6103f7811515612d29565b8385526003602052600c82862001610410828254612d5a565b90558385526003602052600e8286200161042b828254612d5a565b9055838552600c602052818520610443828254612d5a565b905581519081526044356020820152a26001600080516020613d0a8339815191525580f35b60405162461bcd60e51b81526020600482015260116024820152702737ba103137b0b932103430b7323632b960791b6044820152606490fd5b503461028d57602036600319011261028d576020906040906001600160a01b036104c9612a3e565b168152600b83522054604051908152f35b503461028d57604036600319011261028d576104f4612a3e565b60243590610500612c3a565b6001600160a01b03169081156105c75760075481811061058b57816105487f0529afc4538720fe0b3eadc40486369ab962002d72fead1387b300c66073e7bf93602093612c9f565b6007558385526003825260086040862001610564828254612d5a565b9055838552600382526009604086200161057f828254612d5a565b9055604051908152a280f35b60405162461bcd60e51b8152602060048201526014602482015273115e18d959591cc81c995cd95c9d99481c1bdbdb60621b6044820152606490fd5b60405163d92e233d60e01b8152600490fd5b503461028d57602036600319011261028d5760206105f8600435613b8c565b604051908152f35b503461028d57602036600319011261028d57604090600d9082906001600160a01b0361062a612a3e565b168152600360205220015481519068070c1cc73b00c8000081101582526020820152f35b503461028d578060031936011261028d57610667612cf9565b6002546001600160a01b039081169081156108a2576024903384526020926003845283604086209161069f60ff845460081c16612c66565b6040516347cd519160e01b81526001600482015294859182905afa92831561085057859361086d575b50600f01805483811061085b57836106df91612c9f565b905561070683838360025416604051938492839263a9059cbb60e01b845260048401612ccf565b038188867f0000000000000000000000000000000000000000000000000000000000000000165af1908115610850578591610817575b5015610805578390338252600b8452604082206107598154612cea565b905560025416803b156108015781809160446040518094819363686a38bd60e01b8352336004840152600160248401525af180156107f6576107de575b505060405191600183528201527f4e755dd64e53a9f7a5882e2e32eb64718c2273de11e017bd47129b9fe2716d7c60403392a26001600080516020613d0a8339815191525580f35b6107e790612b5e565b6107f2578238610796565b8280fd5b6040513d84823e3d90fd5b5080fd5b6040516312171d8360e31b8152600490fd5b90508381813d8311610849575b61082e8183612b71565b810103126108455761083f90612cc2565b3861073c565b8480fd5b503d610824565b6040513d87823e3d90fd5b604051630856d68760e11b8152600490fd5b9092508381813d831161089b575b6108858183612b71565b81010312610896575191600f6106c8565b600080fd5b503d61087b565b60405163632100f760e11b8152600490fd5b503461028d57602036600319011261028d576108ce612a3e565b6108d6612c3a565b6001600160a01b031680156105c757600280546001600160a01b031916821790557f49424f87d81e4374ee3e8d1cf7b880966981a3cf6a7ac1d7a66c13d91756fccc8280a280f35b503461028d5761092d36612a94565b90606060018060a01b039260448460025416936040519485938492636a54814360e11b8452600484015260248301525afa9081156109e55783928491859361098a575b506060945060405193168352602083015215156040820152f35b93509150506060823d82116109dd575b816109a760609383612b71565b810103126107f257815181811681036109d957606093506109cf604060208501519401612cc2565b9092909138610970565b8380fd5b3d915061099a565b6040513d85823e3d90fd5b503461028d576020806003193601126108015760043590610a0f612cf9565b8115610b2b5733835260038152600c60408420018054838110610b195783610a3691612c9f565b905560405163a9059cbb60e01b8152818180610a56863360048401612ccf565b0381877f00000000000000000000000000000000000000000000000000000000000000006001600160a01b03165af1908115610b0e578491610ad9575b5015610805577fbdd3f02d2a57fb53c1156f98470b61cb60712d485c27c36a49b1263dabcde201906040519283523392a26001600080516020613d0a8339815191525580f35b90508181813d8311610b07575b610af08183612b71565b810103126109d957610b0190612cc2565b38610a93565b503d610ae6565b6040513d86823e3d90fd5b60405163b55c1bad60e01b8152600490fd5b604051631f2a200560e01b8152600490fd5b503461028d578060031936011261028d576001546040516370a0823160e01b81523060048201529190602090839060249082906001600160a01b03165afa908115610bc55790610b93575b602090604051908152f35b506020813d8211610bbd575b81610bac60209383612b71565b810103126108965760209051610b88565b3d9150610b9f565b604051903d90823e3d90fd5b503461028d578060031936011261028d576002546040516001600160a01b039091168152602090f35b503461028d578060031936011261028d576020600554604051908152f35b612aaa565b503461028d578060031936011261028d576020600854604051908152f35b503461028d576020806003193601126108015760043590610c5a612cf9565b8115610b2b5733835260038152600f60408420018054838110610d595783610c8191612c9f565b905560405163a9059cbb60e01b8152818180610ca1863360048401612ccf565b0381877f00000000000000000000000000000000000000000000000000000000000000006001600160a01b03165af1908115610b0e578491610d24575b5015610805577f12701e4764b73009ab9826933c421483e4280410091fcc760515e0fa99fa766b906040519283523392a26001600080516020613d0a8339815191525580f35b90508181813d8311610d52575b610d3b8183612b71565b810103126109d957610d4c90612cc2565b38610cde565b503d610d31565b604051636dae861760e11b8152600490fd5b503461028d578060031936011261028d5760206040516815245655b1025800008152f35b503461028d57606036600319011261028d57610da9612a3e565b6024356001600160a01b03811690036108965760443515156044350361089657338252600360205260ff6040832054166110ef57600554610ed657336000908152600360205260409020805461ff01600160b01b03191660011781556002810180546001600160a81b03191690556012810180546001600160a01b031916905542601490910155600454600160401b811015610ec057806001610e4f9201600455612af3565b81546001600160a01b0360039290921b91821b19163390911b179055600554610e7790612cea565b6005555b604051604435151581526001600160a01b03602435811692169033907f34ff37874d7443037a85c6f390fe14f2ae3e8767355de0e63891ad4367c2753990602090a480f35b634e487b7160e01b600052604160045260246000fd5b6001600160a01b0381168083526003602052604083205460ff16156110dd576024356001600160a01b03161515806110bc575b156110b6576024355b60443580611093575b61105e576044351580611070575b61105e57336000908152600360205260409020805461ff01600160b01b031916601085901b62010000600160b01b03161760011781556002810180546001600160a81b0319166001600160a01b03909316928317604435151560a01b60ff60a01b161790556012810180546001600160a01b031990811690915542601490920191909155600454909190600160401b811015610ec057806001610fcf9201600455612af3565b81546001600160a01b0360039290921b91821b19163390911b179055600554610ff790612cea565b600555604435156110425784526003602052600360408520019033908254161790555b82526003602052600160408320016110328154612cea565b905561103d33612d67565b610e7b565b845260036020526004604085200190339082541617905561101a565b60405163d5dd5c3d60e01b8152600490fd5b506001600160a01b03818116855260036020526040852060040154161515610f29565b506001600160a01b03818116855260036020819052604086200154161515610f1b565b81610f12565b506024356001600160a01b031683526003602052604083205460ff16610f09565b604051632f212e0d60e11b8152600490fd5b604051630ea075bf60e21b8152600490fd5b503461028d578060031936011261028d576040517f00000000000000000000000000000000000000000000000000000000000000006001600160a01b03168152602090f35b503461028d57602036600319011261028d576040906001600160a01b0361116b612a3e565b168152600360205220806102e05280808080808080808080808061122e6015600f600e600d600c600b600a600960086007600660058d549d600181015460e05260028101546101805260018060a01b036003820154166102c052600460018060a01b03910154169e01549e01549e01549e01549e01549e01549e01549e01549e01549e01549e01549e60108101546101a05260118101546101c05260018060a01b0360128201541660a05260138101546102405260148101546101405201612b94565b6102805261124160166102e05101612b94565b6101605261125460176102e05101612b94565b6102005261126760186102e05101612b94565b6101e05260ff60196102e051015416610220526040518060805260ff82161515905260ff8160081c1615156020608051015260018060a01b039060101c166040608051015260e0516060608051015260018060a01b03610180511660808051015260ff6101805160a01c16151560a060805101526102c05160c0608051015260e06080510152610100608051015261012060805101526101406080510152610160608051015261018060805101526101a060805101526101c060805101526101e060805101526102006080510152610220608051015261024060805101526101a05161026060805101526101c051610280608051015260a0516102a06080510152610240516102c06080510152610140516102e060805101526113e46113cf6113ba6113a56103a08061030060805101526080510161028051612a54565b60805161032081830391015261016051612a54565b60805161034081830391015261020051612a54565b6080516103608183039101526101e051612a54565b610220511515610380608051015260805180910390f35b503461028d57602036600319011261028d576004359060045482101561028d57602061142683612af3565b905460405160039290921b1c6001600160a01b03168152f35b503461028d57602036600319011261028d57606061146361145e612a3e565b613c10565b90604051921515835260208301526040820152f35b503461028d57604036600319011261028d57611492612a3e565b602435908115158203610896576114a7612cf9565b6001600160a01b03818116929083156105c75733855260039260209380855260408720918254916114dd60ff8460081c16612c66565b600d840180549068070c1cc73b00c80000808310611749578a8c52838a5260ff60408d2054166117045768070c1cc73b00c7ffff1983019283116116f0578083106116e55761152d908093612c9f565b9055600c850161153e828254612d5a565b905561154f600e8601918254612d5a565b90556815245655b102580000600b850155611570858460101c169633613595565b60008a8152838a5260409020805461ff01600160b01b03191662010000600160b01b039096169590951760011785556002850180546001600160a81b03191692881692831782151560a01b60ff60a01b161790556012850180546001600160a01b0319908116331790915542601490960195909555600454909790949091600160401b861015610ec0577f30016ed357540281a6cff6143637e72b48e105d85d15df66b0aaffbd23790240986013988c6116338960016116819b01600455612af3565b9092835491891b92831b921b191617905561164f600554612cea565b600555156116cc578b52828952898360408d2001918254161790555b806116ae575b505061167c81612d67565b612e5d565b019161168d8354612cea565b8093556040519283523392a36001600080516020613d0a8339815191525580f35b89528652600160408920016116c38154612cea565b90553880611671565b8b5282895289600460408d20019182541617905561166b565b5061152d8280612c9f565b634e487b7160e01b8c52601160045260248cfd5b60405162461bcd60e51b8152600481018b9052601e60248201527f5375622d6163636f756e7420616c7265616479207265676973746572656400006044820152606490fd5b6040516307db32bd60e31b8152600490fd5b503461028d578060031936011261028d576020604051600a8152f35b503461028d578060031936011261028d57546040516001600160a01b039091168152602090f35b503461028d576117ad36612a94565b6117b5612c3a565b6117bd612cf9565b60ff600a54161561199d576117d29082612d5a565b600454808211611995575b508290825b81811061195557506009908154938315158061194c575b1561193457805b8281106118a55750908592915b81811061186757837f7f4a5b69bea14a6fc05326671a02e90d4a88855c83a18529c260057b1bf61a856040888884885560ff19600a5416600a5582519182526020820152a16001600080516020613d0a8339815191525580f35b61189c9192935061187781612af3565b9054600391821b1c6001600160a01b0316885260205260408720601101879055612cea565b9085929161180d565b806118b261192592612af3565b9054600391821b1c6001600160a01b0316808a52602082815260408b206011015491929189811561192a576118ea6118ef928d612e06565b612e19565b92808c52828252600860408d2001611908858254612d5a565b90558b525261191e8660408b2001918254612d5a565b9055612cea565b611800565b5050505050612cea565b61194085600854612d5a565b6008559085929161180d565b508415156117f9565b9161198a6119909161196685612af3565b9054600391821b1c6001600160a01b03168852602052604087206011015490612d5a565b92612cea565b6117e2565b9050386117dd565b60405163418826bf60e11b8152600490fd5b503461028d578060031936011261028d576020600654604051908152f35b503461028d578060031936011261028d576119e6612c3a565b600080546001600160a01b0319811682556001600160a01b0316600080516020613cca8339815191528280a380f35b503461028d578060031936011261028d57600154604051623144bd60e31b81526001600160a01b039091169160208083600481875afa9283156107f6578293611abc575b5080600494604051958680926310f4cba760e21b82525afa918215610bc55791611a8c575b604080945051928352820152f35b80915083813d8311611ab5575b611aa38183612b71565b81010312610896576040925190611a7e565b503d611a99565b9392508084813d8311611ae6575b611ad48183612b71565b81010312610896579251919280611a59565b503d611aca565b503461028d57602036600319011261028d576040906001600160a01b03611b12612a3e565b1681526003602052208080808080808080808080808054600182015461010052600282015461026052601460076011600f600d600c600b600a60096008600660058d600360018060a01b03910154169d600460018060a01b03910154169e01549e01549e01549e01549e01549e01549e01549e01549e01549e01549e01549e60018060a01b036012820154166102a052601381015460c052015461012052604051806103005260ff82161515905260ff8160081c161515602061030051015260018060a01b039060101c16604061030051015261010051606061030051015260018060a01b036102605116608061030051015260ff6102605160a01c16151560a061030051015260c061030051015260e06103005101526101006103005101526101206103005101526101406103005101526101606103005101526101806103005101526101a06103005101526101c06103005101526101e06103005101526102006103005101526102206103005101526102406103005101526102a05161026061030051015260c051610280610300510152610120516102a06103005101526102c061030051f35b503461028d576020806003193601126108015760043590611cda612cf9565b8115610b2b5733835260038152604083209060ff825460081c1615611fbf57600882018054848110611fad5784611d1091612c9f565b9055600a8201611d21848254612d5a565b90556040516370a0823160e01b8082523060048301526001600160a01b037f0000000000000000000000000000000000000000000000000000000000000000811692919087908584602481885afa9384156107f6578294611f7e575b5060015416803b156108015781906024604051809481936372424d9960e11b83528c60048401525af18015611f7357611f60575b50839060246040518095819382523060048301525afa8015611f55578690611f26575b611dde9250612c9f565b91600a8302838104600a1484151715611f12577f8f7262d5a031d4d671e1fdb0cddcd26d37185226f9e82f2f18877141ac1963eb939291611e266064611ee793048095612c9f565b92600f8201611e36868254612d5a565b905560108201611e47868254612d5a565b90557f2b1d2104e84dd4dabb0cca024171f783ab1e1c9dc1af9d60a2361596653a99c4604051918683523392a2600b8101805491888315611f055750600d9083861115611eff57835b8093611eb782611ea0818b612c9f565b97600c8601611eb0838254612d5a565b9055612c9f565b9055611ec8600e8301918254612d5a565b90555b01611ed7838254612d5a565b9055604051948594339886612e39565b0390a26001600080516020613d0a8339815191525580f35b85611e90565b91509150600d8492611ecb565b634e487b7160e01b86526011600452602486fd5b508282813d8311611f4e575b611f3c8183612b71565b8101031261089657611dde9151611dd4565b503d611f32565b6040513d88823e3d90fd5b96611f6c859298612b5e565b9690611db1565b6040513d8a823e3d90fd5b9093508581813d8311611fa6575b611f968183612b71565b8101031261080157519238611d7d565b503d611f8c565b60405163208975e760e21b8152600490fd5b60405163aba4733960e01b8152600490fd5b503461028d57608036600319011261028d576004356001600160401b03811161080157612002903690600401612ac6565b91906024356001600160401b0381116107f257612023903690600401612ac6565b6044356001600160401b03811161084557612042903690600401612ac6565b90916064356001600160401b03811161259857612063903690600401612ac6565b949097338852600360205260ff6040892054161561256257338852600360205260408820966001600160401b03821161254e5781906120a560158a0154612b24565b601f81116124fe575b508990601f8311600114612492578a92612487575b50508160011b916000199060031b1c19161760158701555b6001600160401b0382116124735781906120f86016880154612b24565b601f8111612420575b508790601f83116001146123b45788926123a9575b50508160011b916000199060031b1c19161760168501555b60178401916001600160401b03821161239557819061214d8454612b24565b601f8111612345575b508690601f83116001146122df5787926122d4575b50508160011b916000199060031b1c19161790555b60188201906001600160401b0381116122c05761219d8254612b24565b601f811161227b575b5083601f8211600114612214578190859660199692612209575b50508160011b916000199060031b1c19161790555b01805460ff19166001179055337fbe4ec58a792f909e102ee3d745d0c3b34a4d437a54d903c4db098d31c556422f8280a280f35b0135905038806121c0565b8285526020852090601f198316865b8181106122635750968392916001946019989910612249575b505050811b0190556121d5565b0135600019600384901b60f8161c1916905538808061223c565b9192602060018192868c013581550194019201612223565b82855260208520601f830160051c810191602084106122b6575b601f0160051c01905b8181106122ab57506121a6565b85815560010161229e565b9091508190612295565b634e487b7160e01b84526041600452602484fd5b01359050388061216b565b84885260208820925090601f198416885b81811061232d5750908460019594939210612313575b505050811b019055612180565b0135600019600384901b60f8161c19169055388080612306565b919360206001819287870135815501950192016122f0565b90915083875260208720601f840160051c8101916020851061238b575b90601f859493920160051c01905b81811061237d5750612156565b888155849350600101612370565b9091508190612362565b634e487b7160e01b86526041600452602486fd5b013590503880612116565b60168801895260208920925090601f198416895b81811061240857509084600195949392106123ee575b505050811b01601685015561212e565b0135600019600384901b60f8161c191690553880806123de565b919360206001819287870135815501950192016123c8565b90915060168701885260208820601f840160051c81019160208510612469575b90601f859493920160051c01905b81811061245b5750612101565b89815584935060010161244e565b9091508190612440565b634e487b7160e01b87526041600452602487fd5b0135905038806120c3565b60158a018b5260208b20925090601f1984168b5b8181106124e657509084600195949392106124cc575b505050811b0160158701556120db565b0135600019600384901b60f8161c191690553880806124bc565b919360206001819287870135815501950192016124a6565b909150601589018a5260208a20601f840160051c810160208510612547575b90849392915b601f830160051c820181106125395750506120ae565b8c8155859450600101612523565b508061251d565b634e487b7160e01b89526041600452602489fd5b60405162461bcd60e51b815260206004820152600e60248201526d139bdd081c9959da5cdd195c995960921b6044820152606490fd5b8680fd5b503461028d578060031936011261028d5760606006546007546008549060405192835260208301526040820152f35b503461028d57602036600319011261028d5760206105f8600435613b09565b503461028d57602036600319011261028d5760206105f8600435613bce565b503461028d578060031936011261028d576020600454604051908152f35b503461028d5761264f61263936612a94565b90612642612c3a565b61264a612cf9565b6137cf565b6001600080516020613d0a8339815191525580f35b503461028d57604036600319011261028d5761267e612a3e565b6024359061268a612c3a565b6001600160a01b03169081156105c7576008548181106126ee57816126d27fba443e8671971c36cdeb74f87321041daff421230cbc5e36cb835269ed1d8b7e93602093612c9f565b6008558385526003825260086040862001610564828254612d5a565b60405162461bcd60e51b8152602060048201526012602482015271115e18d959591cc818591b5a5b881c1bdbdb60721b6044820152606490fd5b503461028d57602036600319011261028d576020906040906001600160a01b03612750612a3e565b168152600c83522054604051908152f35b503461028d578060031936011261028d576001546040516001600160a01b039091168152602090f35b503461028d57602036600319011261028d576127a4612a3e565b6127ac612c3a565b6001600160a01b031680156105c757600180546001600160a01b031916821790556040519081527ffa7bd61554593f4e69cdffd255d3fe947352b02c7d3ec68059384934e4cfd47c90602090a180f35b503461028d57602036600319011261028d57612886906040906001600160a01b03612825612a3e565b16815260036020522060ff6019820154166128b061284560158401612b94565b926128a261285560168301612b94565b91612894612871601861286a60178501612b94565b9301612b94565b9360405198899860a08a5260a08a0190612a54565b9088820360208a0152612a54565b908682036040880152612a54565b908482036060860152612a54565b90151560808301520390f35b503461028d578060031936011261028d576128d5612cf9565b3381526003602052604081205460ff811615611fbf5760081c60ff166129a6576040516323b872dd60e01b815233600482015230602482015268070c1cc73b00c800006044820152602081606481857f00000000000000000000000000000000000000000000000000000000000000006001600160a01b03165af19081156107f657829161296d575b50156108055761264f33612e5d565b90506020813d821161299e575b8161298760209383612b71565b810103126108015761299890612cc2565b3861295e565b3d915061297a565b604051637cdf305160e11b8152600490fd5b503461028d57602036600319011261028d5760409081906001600160a01b036129df612a3e565b1681526003602052206010600f82015491015482519182526020820152f35b503461028d578060031936011261028d57602060405168070c1cc73b00c800008152f35b9050346108015781600319360112610801576020906007548152f35b600435906001600160a01b038216820361089657565b919082519283825260005b848110612a80575050826000602080949584010152601f8019910116010190565b602081830181015184830182015201612a5f565b6040906003190112610896576004359060243590565b34610896576000366003190112610896576020604051601e8152f35b9181601f84011215610896578235916001600160401b038311610896576020838186019501011161089657565b600454811015612b0e57600460005260206000200190600090565b634e487b7160e01b600052603260045260246000fd5b90600182811c92168015612b54575b6020831014612b3e57565b634e487b7160e01b600052602260045260246000fd5b91607f1691612b33565b6001600160401b038111610ec057604052565b601f909101601f19168101906001600160401b03821190821017610ec057604052565b9060405191826000825492612ba884612b24565b908184526001948581169081600014612c175750600114612bd4575b5050612bd292500383612b71565b565b9093915060005260209081600020936000915b818310612bff575050612bd293508201013880612bc4565b85548884018501529485019487945091830191612be7565b915050612bd294506020925060ff191682840152151560051b8201013880612bc4565b6000546001600160a01b03163303612c4e57565b60405163118cdaa760e01b8152336004820152602490fd5b15612c6d57565b60405162461bcd60e51b815260206004820152600a6024820152694e6f742061637469766560b01b6044820152606490fd5b91908203918211612cac57565b634e487b7160e01b600052601160045260246000fd5b5190811515820361089657565b6001600160a01b039091168152602081019190915260400190565b6000198114612cac5760010190565b600080516020613d0a8339815191526002815414612d175760029055565b604051633ee5aeb560e01b8152600490fd5b15612d3057565b60405162461bcd60e51b81526020600482015260026024820152615a4160f01b6044820152606490fd5b91908201809211612cac57565b60018060a01b039182600092168252600391602092808452600291604091838383200154958787169560ff96898860a09a8b1c16915b16908115612df95715612ddc57808552838352600586862001612dc08154612cea565b90555b8452828252858585200154898089838c1c169216612d9d565b808552838352600686862001612df28154612cea565b9055612dc3565b5050975050505050505050565b81810292918115918404141715612cac57565b8115612e23570490565b634e487b7160e01b600052601260045260246000fd5b9192608093969594919660a084019784526020840152604083015260608201520152565b600154604051623144bd60e31b8152600093909290916001600160a01b0316602084600481845afa9384156108505785946133bf575b5083156133ab5760405163095ea7b360e01b8152600481019190915268070c1cc73b00c800006024820181905290602081604481897f00000000000000000000000000000000000000000000000000000000000000006001600160a01b03165af18015611f555761336e575b506001546040516370a0823160e01b8082523060048301529290918791906001600160a01b0316602084602481845afa9384156109e557839461333a575b50803b156107f257604483926040519485938492634e538d9360e11b845230600485015260248401525af1801561332f5761331c575b50600154604051928352306004840152602090839060249082906001600160a01b03165afa8015611f555786906132e8575b612faf9250612c9f565b92601e6b030e68b6d6e0acc82863363160251b82900481810292918184041490151715611f1257613029613021613006606485046130018181816b030e68b6d6e0acc82863363160251b899004612c9f565b612c9f565b61301560648604600654612d5a565b60065560648504612d5a565b600854612d5a565b6008556001600160a01b038381168752600360205260408720805461ff001916610100178082556815245655b102580000600b9092019190915560019588949092909160101c165b600a60ff88161115806132d6575b15613246576130a0876b030e68b6d6e0acc82863363160251b869004613408565b94851561322057856130b191612d5a565b6001600160a01b0382168a52600360205260408a20805491969160081c60ff169081613209575b50156131b9576001600160a01b0382168a52600360205260408a206008018054613103908390612d5a565b90556001600160a01b0382168a52600360205260408a20600901805461312a908390612d5a565b90556040516001600160a01b0388811692908416917fb16479bdac5b7099d9236d6fc6be3b30ff54188f4fd961686e1e1dc7ecb8803791819061316e908d836133f3565b0390a35b6001600160a01b0390811689526003602052604089205460101c16955b60ff9081808216146131a5571660010195613071565b634e487b7160e01b8a52601160045260248afd5b6131c581600854612d5a565b6008557f117ca0cd821ecb7eadfea2d6927a67853908bdc351a386235215f5ab6071bfed6040518061320160018060a01b038616948c836133f3565b0390a2613172565b60019150015461321889613554565b1115386130d8565b6001600160a01b039182168a52600360205260408a205460101c9091169690945061318f565b5093926132b892969197507f8af2c013a5a55c6d3ad5423522fe76c6f2eb831b5e23318276b3c678cb457fc995508060648604116132bd575b506040516001600160a01b039093169592938493606490910491829182916b030e68b6d6e0acc82863363160251b919091049086612e39565b0390a2565b6130216132cd9160648704612c9f565b6008553861327f565b506001600160a01b038116151561307f565b506020823d602011613314575b8161330260209383612b71565b8101031261089657612faf9151612fa5565b3d91506132f5565b61332890969196612b5e565b9438612f73565b6040513d89823e3d90fd5b9093506020813d602011613366575b8161335660209383612b71565b810103126107f257519238612f3d565b3d9150613349565b6020813d6020116133a3575b8161338760209383612b71565b8101031261339f5761339890612cc2565b5038612eff565b8580fd5b3d915061337a565b634e487b7160e01b85526012600452602485fd5b9093506020813d6020116133eb575b816133db60209383612b71565b8101031261084557519238612e93565b3d91506133ce565b6020909392919360ff60408201951681520152565b9060ff1660018114613539576002811461351e5760038114613503576004908181146134ec57600581146134cf57600681146134cf57600781146134b257600881146134b2576009811461349557600a14613464575050600090565b8160011b918083046002149015171561348057506103e8900490565b601190634e487b7160e01b6000525260246000fd5b508160011b918083046002149015171561348057506103e8900490565b5060038202918083046003149015171561348057506103e8900490565b5060058202918083046005149015171561348057506103e8900490565b508180046001148215171561348057506064900490565b508060011b9080820460021490151715612cac576064900490565b50600581029080820460051490151715612cac576064900490565b50601481029080820460141490151715612cac576064900490565b60ff60049116111561356557600590565b600290565b6001600160401b038111610ec05760051b60200190565b8051821015612b0e5760209160051b010190565b81806137ac575b6137a5578115918280613780575b61377857600554926001808501809511612cac576135c78561356a565b906135e26040966135da88519485612b71565b80845261356a565b9260209283810194601f19013686376000808715613759576001600160a01b03898116835260038088528b8420015416965b6001600160a01b0397881680613745575b50505b8181106136a35750505080613688575b61367e575082613661575b505061365a57815163c5bb5bcd60e01b8152600490fd5b9160009150565b816003929350841660005252600483600020015416153880613643565b9594505050509190565b50828516600052600382528260038760002001541615613638565b866136b76136b083612cea565b9285613581565b51168060005260038088528b600020918982840154168015613732578a600480950154161561371e57908a9392916136f86136f188612cea565b9789613581565b5260005288528b60002001541661371861371184612cea565b9385613581565b52613628565b509b50505050505050505050505090600090565b509a505050505050509594505050509190565b9092508592845115612b0e57523880613625565b6001600160a01b038981168352600387528a8320600401541696613614565b509160009150565b506001600160a01b0382811660009081526003602052604090206004015416156135aa565b9160019150565b5060018060a01b038082166000526003602052600360406000200154161561359c565b60ff91600a83815416613af8576006908154948515613abf57600080845560468702878104604603613aab57606490049361380a8589612c9f565b9561381a60099188835589612d5a565b926004948554808611613aa3575b508199805b868110613a0f57508a156139c4575b85811061388357505050505050509160809391600080516020613cea8339815191529593600160ff19825416179055604051938452602084015260408301526060820152a1565b8a888a61388f84612af3565b90549060039160018060a01b0391831b1c16808852602090828252604093848a20958c8c8c8954928d600894851c16156139af5760058b0154908b0154808210156139a757509a5b60079a8b0154808d111561399f576138ef908d612c9f565b955b8615613989579161390b8b926118ea896139339796612e06565b948882528a8a5282822001613921868254612d5a565b90558781528989522001918254612d5a565b905580820291820403613975579061397097969594939291818b528383526139626011868d2001918254612d5a565b905589525286200155612cea565b61383c565b50634e487b7160e01b895260118d52602489fd5b5050505050505050505050505061397090612cea565b5081956138f1565b90509a6138d7565b50505050505050505050505061397090612cea565b50509560809850869550600080516020613cea83398151915299979194506139f193506130219250612d5a565b600855556040519182528060208301528060408301526060820152a1565b613a1881612af3565b9054600391821b1c6001600160a01b0316855260205260408420805460081c841615613a99576007600582015488830154808210600014613a915750915b015490818111613a71575b5050613a6c90612cea565b61382d565b9c613a83613a8992613a6c949f612c9f565b90612d5a565b9b9038613a61565b905091613a56565b50613a6c90612cea565b945038613828565b634e487b7160e01b82526011600452602482fd5b60405162461bcd60e51b8152602060048201526011602482015270115b5c1d1e48189a5b985c9e481c1bdbdb607a1b6044820152606490fd5b60405162c9487960e41b8152600490fd5b6002546001600160a01b0316908115613b85576020906024604051809481936347cd519160e01b835260048301525afa908115613b7957600091613b4b575090565b906020823d8211613b71575b81613b6460209383612b71565b8101031261028d57505190565b3d9150613b57565b6040513d6000823e3d90fd5b5050600090565b6002546001600160a01b0316908115613b85576020906024604051809481936375b1f0e160e11b835260048301525afa908115613b7957600091613b4b575090565b6002546001600160a01b0316908115613b8557602090602460405180948193631d61396160e11b835260048301525afa908115613b7957600091613b4b575090565b6002546001600160a01b03908116918215613cbb57166024600082815260206003815280600f60408420015495604051948580926347cd519160e01b8252600160048301525afa9283156107f6578293613c8b575b5060ff9160036040928596835252205460081c169081613c83575092565b905082101592565b9080935081813d8311613cb4575b613ca38183612b71565b8101031261080157519160ff613c65565b503d613c99565b50505060009060009060009056fe8be0079c531659141344cd1fd0a4f28419497f9722a3daafe3b4186f6b6457e0a0ea5705200c9ffd36dc735fef1592c3234bb7e311fc1b0a444f6370d0620eae9b779b17422d0df92223018b32b4d1fa46e071723d6817e2486d003becc55f00a2646970667358221220357a517a60dcfca0554f998bd663cffde7b69b1fa0ef9f269cd17f4a1813dee264736f6c63430008140033","opcodes":"PUSH1 0xA0 CALLVALUE PUSH3 0x167 JUMPI PUSH1 0x1F PUSH3 0x3EF7 CODESIZE DUP2 SWAP1 SUB SWAP2 DUP3 ADD PUSH1 0x1F NOT AND DUP4 ADD SWAP2 PUSH1 0x1 PUSH1 0x1 PUSH1 0x40 SHL SUB DUP4 GT DUP5 DUP5 LT OR PUSH3 0x16C JUMPI DUP1 DUP5 SWAP3 PUSH1 0x40 SWAP5 DUP6 MSTORE DUP4 CODECOPY DUP2 ADD SUB SLT PUSH3 0x167 JUMPI PUSH3 0x5A PUSH1 0x20 PUSH3 0x52 DUP4 PUSH3 0x182 JUMP JUMPDEST SWAP3 ADD PUSH3 0x182 JUMP JUMPDEST SWAP1 CALLER ISZERO PUSH3 0x14E JUMPI PUSH1 0x0 SLOAD SWAP2 PUSH1 0x1 DUP1 PUSH1 0xA0 SHL SUB NOT SWAP3 CALLER DUP5 DUP3 AND OR PUSH1 0x0 SSTORE PUSH1 0x40 MLOAD SWAP1 PUSH1 0x1 DUP1 PUSH1 0xA0 SHL SUB SWAP4 DUP5 SWAP2 DUP3 CALLER SWAP2 AND PUSH32 0x8BE0079C531659141344CD1FD0A4F28419497F9722A3DAAFE3B4186F6B6457E0 PUSH1 0x0 DUP1 LOG3 PUSH1 0x1 PUSH32 0x9B779B17422D0DF92223018B32B4D1FA46E071723D6817E2486D003BECC55F00 SSTORE AND SWAP1 DUP2 ISZERO DUP1 ISZERO PUSH3 0x143 JUMPI JUMPDEST PUSH3 0x134 JUMPI POP PUSH1 0x80 MSTORE AND SWAP1 PUSH1 0x1 SLOAD AND OR PUSH1 0x1 SSTORE PUSH1 0x40 MLOAD PUSH2 0x3D5F SWAP1 DUP2 PUSH3 0x198 DUP3 CODECOPY PUSH1 0x80 MLOAD DUP2 DUP2 DUP2 PUSH2 0x70C ADD MSTORE DUP2 DUP2 PUSH2 0xA5B ADD MSTORE DUP2 DUP2 PUSH2 0xCA6 ADD MSTORE DUP2 DUP2 PUSH2 0x1117 ADD MSTORE DUP2 DUP2 PUSH2 0x1D41 ADD MSTORE DUP2 DUP2 PUSH2 0x2926 ADD MSTORE PUSH2 0x2ECA ADD MSTORE RETURN JUMPDEST PUSH4 0xD92E233D PUSH1 0xE0 SHL DUP2 MSTORE PUSH1 0x4 SWAP1 REVERT JUMPDEST POP DUP4 DUP4 AND ISZERO PUSH3 0xDE JUMP JUMPDEST PUSH1 0x40 MLOAD PUSH4 0x1E4FBDF7 PUSH1 0xE0 SHL DUP2 MSTORE PUSH1 0x0 PUSH1 0x4 DUP3 ADD MSTORE PUSH1 0x24 SWAP1 REVERT JUMPDEST PUSH1 0x0 DUP1 REVERT JUMPDEST PUSH4 0x4E487B71 PUSH1 0xE0 SHL PUSH1 0x0 MSTORE PUSH1 0x41 PUSH1 0x4 MSTORE PUSH1 0x24 PUSH1 0x0 REVERT JUMPDEST MLOAD SWAP1 PUSH1 0x1 PUSH1 0x1 PUSH1 0xA0 SHL SUB DUP3 AND DUP3 SUB PUSH3 0x167 JUMPI JUMP INVALID PUSH2 0x320 DUP1 PUSH1 0x40 MSTORE PUSH1 0x4 CALLDATASIZE LT ISZERO PUSH2 0x14 JUMPI PUSH1 0x0 DUP1 REVERT JUMPDEST PUSH1 0x0 SWAP1 DUP2 CALLDATALOAD PUSH1 0xE0 SHR SWAP1 DUP2 PUSH4 0x266F044 EQ PUSH2 0x2A22 JUMPI POP DUP1 PUSH4 0x39CCC26 EQ PUSH2 0x29FE JUMPI DUP1 PUSH4 0x3C3ECB7 EQ PUSH2 0x29B8 JUMPI DUP1 PUSH4 0xF15F4C0 EQ PUSH2 0x28BC JUMPI DUP1 PUSH4 0xF53A470 EQ PUSH2 0x27FC JUMPI DUP1 PUSH4 0x1CE5E894 EQ PUSH2 0x278A JUMPI DUP1 PUSH4 0x1F6259D5 EQ PUSH2 0x2761 JUMPI DUP1 PUSH4 0x2335821B EQ PUSH2 0x2728 JUMPI DUP1 PUSH4 0x2808BC8D EQ PUSH2 0x2664 JUMPI DUP1 PUSH4 0x2D641F08 EQ PUSH2 0x2627 JUMPI DUP1 PUSH4 0x38ABFC41 EQ PUSH2 0x2609 JUMPI DUP1 PUSH4 0x3AC272C2 EQ PUSH2 0x25EA JUMPI DUP1 PUSH4 0x44E374D5 EQ PUSH2 0xC18 JUMPI DUP1 PUSH4 0x47CD5191 EQ PUSH2 0x25CB JUMPI DUP1 PUSH4 0x52375BB1 EQ PUSH2 0x259C JUMPI DUP1 PUSH4 0x55509C8F EQ PUSH2 0x1FD1 JUMPI DUP1 PUSH4 0x634F627E EQ PUSH2 0x1CBB JUMPI DUP1 PUSH4 0x6386C1C7 EQ PUSH2 0x1AED JUMPI DUP1 PUSH4 0x68DDB2B5 EQ PUSH2 0x1A15 JUMPI DUP1 PUSH4 0x715018A6 EQ PUSH2 0x19CD JUMPI DUP1 PUSH4 0x77537844 EQ PUSH2 0xC18 JUMPI DUP1 PUSH4 0x7F1B4064 EQ PUSH2 0x19AF JUMPI DUP1 PUSH4 0x8A8F0429 EQ PUSH2 0x179E JUMPI DUP1 PUSH4 0x8DA5CB5B EQ PUSH2 0x1777 JUMPI DUP1 PUSH4 0x92446E30 EQ PUSH2 0x175B JUMPI DUP1 PUSH4 0x94915DD0 EQ PUSH2 0x1478 JUMPI DUP1 PUSH4 0x9499A351 EQ PUSH2 0x143F JUMPI DUP1 PUSH4 0xA2BDEDF4 EQ PUSH2 0x13FB JUMPI DUP1 PUSH4 0xA87430BA EQ PUSH2 0x1146 JUMPI DUP1 PUSH4 0xA98AD46C EQ PUSH2 0x1101 JUMPI DUP1 PUSH4 0xAA33F5D5 EQ PUSH2 0xD8F JUMPI DUP1 PUSH4 0xAA393757 EQ PUSH2 0xD6B JUMPI DUP1 PUSH4 0xB58E0278 EQ PUSH2 0xC3B JUMPI DUP1 PUSH4 0xB86A1FB2 EQ PUSH2 0xC1D JUMPI DUP1 PUSH4 0xBE648BDB EQ PUSH2 0xC18 JUMPI DUP1 PUSH4 0xBFF1F9E1 EQ PUSH2 0xBFA JUMPI DUP1 PUSH4 0xC9D484CF EQ PUSH2 0xBD1 JUMPI DUP1 PUSH4 0xCE8292F5 EQ PUSH2 0xB3D JUMPI DUP1 PUSH4 0xD3635A02 EQ PUSH2 0x9F0 JUMPI DUP1 PUSH4 0xD4A90286 EQ PUSH2 0x91E JUMPI DUP1 PUSH4 0xE3BA9BDA EQ PUSH2 0x8B4 JUMPI DUP1 PUSH4 0xE4093A66 EQ PUSH2 0x64E JUMPI DUP1 PUSH4 0xE51CB530 EQ PUSH2 0x600 JUMPI DUP1 PUSH4 0xEB63E1C2 EQ PUSH2 0x5D9 JUMPI DUP1 PUSH4 0xEC50324A EQ PUSH2 0x4DA JUMPI DUP1 PUSH4 0xF00B0093 EQ PUSH2 0x4A1 JUMPI DUP1 PUSH4 0xF0B7B9DC EQ PUSH2 0x37F JUMPI DUP1 PUSH4 0xF24C536A EQ PUSH2 0x306 JUMPI DUP1 PUSH4 0xF2FDE38B EQ PUSH2 0x290 JUMPI PUSH4 0xFB72CA35 EQ PUSH2 0x248 JUMPI PUSH1 0x0 DUP1 REVERT JUMPDEST CALLVALUE PUSH2 0x28D JUMPI PUSH1 0x20 CALLDATASIZE PUSH1 0x3 NOT ADD SLT PUSH2 0x28D JUMPI PUSH1 0x40 SWAP1 PUSH1 0x1 PUSH1 0x1 PUSH1 0xA0 SHL SUB PUSH2 0x26C PUSH2 0x2A3E JUMP JUMPDEST AND DUP2 MSTORE PUSH1 0xB PUSH1 0x20 MSTORE DUP2 DUP1 DUP3 KECCAK256 SLOAD SWAP2 PUSH1 0xC PUSH1 0x20 MSTORE KECCAK256 SLOAD DUP3 MLOAD SWAP2 DUP3 MSTORE PUSH1 0x20 DUP3 ADD MSTORE RETURN JUMPDEST DUP1 REVERT JUMPDEST POP CALLVALUE PUSH2 0x28D JUMPI PUSH1 0x20 CALLDATASIZE PUSH1 0x3 NOT ADD SLT PUSH2 0x28D JUMPI PUSH2 0x2AA PUSH2 0x2A3E JUMP JUMPDEST PUSH2 0x2B2 PUSH2 0x2C3A JUMP JUMPDEST PUSH1 0x1 PUSH1 0x1 PUSH1 0xA0 SHL SUB SWAP1 DUP2 AND SWAP1 DUP2 ISZERO PUSH2 0x2ED JUMPI PUSH1 0x0 SLOAD DUP3 PUSH1 0x1 DUP1 PUSH1 0xA0 SHL SUB NOT DUP3 AND OR PUSH1 0x0 SSTORE AND PUSH1 0x0 DUP1 MLOAD PUSH1 0x20 PUSH2 0x3CCA DUP4 CODECOPY DUP2 MLOAD SWAP2 MSTORE PUSH1 0x0 DUP1 LOG3 DUP1 RETURN JUMPDEST PUSH1 0x40 MLOAD PUSH4 0x1E4FBDF7 PUSH1 0xE0 SHL DUP2 MSTORE PUSH1 0x4 DUP2 ADD DUP5 SWAP1 MSTORE PUSH1 0x24 SWAP1 REVERT JUMPDEST POP CALLVALUE PUSH2 0x28D JUMPI PUSH1 0x20 CALLDATASIZE PUSH1 0x3 NOT ADD SLT PUSH2 0x28D JUMPI PUSH1 0x40 SWAP1 PUSH1 0x1 PUSH1 0x1 PUSH1 0xA0 SHL SUB PUSH2 0x32B PUSH2 0x2A3E JUMP JUMPDEST AND DUP2 MSTORE PUSH1 0x3 PUSH1 0x20 MSTORE DUP2 DUP2 KECCAK256 SWAP1 PUSH1 0x7 PUSH1 0x5 DUP4 ADD SLOAD PUSH1 0x6 DUP5 ADD SLOAD DUP1 DUP3 LT PUSH1 0x0 EQ PUSH2 0x377 JUMPI POP SWAP3 JUMPDEST ADD SLOAD DUP1 DUP4 GT ISZERO PUSH2 0x371 JUMPI PUSH2 0x365 SWAP2 POP DUP3 PUSH2 0x2C9F JUMP JUMPDEST DUP3 MLOAD SWAP2 DUP3 MSTORE PUSH1 0x20 DUP3 ADD MSTORE RETURN JUMPDEST POP PUSH2 0x365 JUMP JUMPDEST SWAP1 POP SWAP3 PUSH2 0x350 JUMP JUMPDEST POP CALLVALUE PUSH2 0x28D JUMPI PUSH1 0x60 CALLDATASIZE PUSH1 0x3 NOT ADD SLT PUSH2 0x28D JUMPI PUSH2 0x399 PUSH2 0x2A3E JUMP JUMPDEST PUSH1 0x24 CALLDATALOAD SWAP1 PUSH2 0x3A5 PUSH2 0x2CF9 JUMP JUMPDEST PUSH1 0x2 SLOAD PUSH1 0x1 PUSH1 0x1 PUSH1 0xA0 SHL SUB SWAP2 SWAP1 DUP3 AND CALLER SUB PUSH2 0x468 JUMPI PUSH32 0x2393ACB59B41DD645F68FE97BAB0DEBA2A21B99EFC69761E9B2762F11BBBE79D SWAP2 PUSH1 0x40 SWAP2 AND SWAP3 PUSH2 0x3EC DUP5 ISZERO ISZERO PUSH2 0x2D29 JUMP JUMPDEST PUSH2 0x3F7 DUP2 ISZERO ISZERO PUSH2 0x2D29 JUMP JUMPDEST DUP4 DUP6 MSTORE PUSH1 0x3 PUSH1 0x20 MSTORE PUSH1 0xC DUP3 DUP7 KECCAK256 ADD PUSH2 0x410 DUP3 DUP3 SLOAD PUSH2 0x2D5A JUMP JUMPDEST SWAP1 SSTORE DUP4 DUP6 MSTORE PUSH1 0x3 PUSH1 0x20 MSTORE PUSH1 0xE DUP3 DUP7 KECCAK256 ADD PUSH2 0x42B DUP3 DUP3 SLOAD PUSH2 0x2D5A JUMP JUMPDEST SWAP1 SSTORE DUP4 DUP6 MSTORE PUSH1 0xC PUSH1 0x20 MSTORE DUP2 DUP6 KECCAK256 PUSH2 0x443 DUP3 DUP3 SLOAD PUSH2 0x2D5A JUMP JUMPDEST SWAP1 SSTORE DUP2 MLOAD SWAP1 DUP2 MSTORE PUSH1 0x44 CALLDATALOAD PUSH1 0x20 DUP3 ADD MSTORE LOG2 PUSH1 0x1 PUSH1 0x0 DUP1 MLOAD PUSH1 0x20 PUSH2 0x3D0A DUP4 CODECOPY DUP2 MLOAD SWAP2 MSTORE SSTORE DUP1 RETURN JUMPDEST PUSH1 0x40 MLOAD PUSH3 0x461BCD PUSH1 0xE5 SHL DUP2 MSTORE PUSH1 0x20 PUSH1 0x4 DUP3 ADD MSTORE PUSH1 0x11 PUSH1 0x24 DUP3 ADD MSTORE PUSH17 0x2737BA103137B0B932103430B7323632B9 PUSH1 0x79 SHL PUSH1 0x44 DUP3 ADD MSTORE PUSH1 0x64 SWAP1 REVERT JUMPDEST POP CALLVALUE PUSH2 0x28D JUMPI PUSH1 0x20 CALLDATASIZE PUSH1 0x3 NOT ADD SLT PUSH2 0x28D JUMPI PUSH1 0x20 SWAP1 PUSH1 0x40 SWAP1 PUSH1 0x1 PUSH1 0x1 PUSH1 0xA0 SHL SUB PUSH2 0x4C9 PUSH2 0x2A3E JUMP JUMPDEST AND DUP2 MSTORE PUSH1 0xB DUP4 MSTORE KECCAK256 SLOAD PUSH1 0x40 MLOAD SWAP1 DUP2 MSTORE RETURN JUMPDEST POP CALLVALUE PUSH2 0x28D JUMPI PUSH1 0x40 CALLDATASIZE PUSH1 0x3 NOT ADD SLT PUSH2 0x28D JUMPI PUSH2 0x4F4 PUSH2 0x2A3E JUMP JUMPDEST PUSH1 0x24 CALLDATALOAD SWAP1 PUSH2 0x500 PUSH2 0x2C3A JUMP JUMPDEST PUSH1 0x1 PUSH1 0x1 PUSH1 0xA0 SHL SUB AND SWAP1 DUP2 ISZERO PUSH2 0x5C7 JUMPI PUSH1 0x7 SLOAD DUP2 DUP2 LT PUSH2 0x58B JUMPI DUP2 PUSH2 0x548 PUSH32 0x529AFC4538720FE0B3EADC40486369AB962002D72FEAD1387B300C66073E7BF SWAP4 PUSH1 0x20 SWAP4 PUSH2 0x2C9F JUMP JUMPDEST PUSH1 0x7 SSTORE DUP4 DUP6 MSTORE PUSH1 0x3 DUP3 MSTORE PUSH1 0x8 PUSH1 0x40 DUP7 KECCAK256 ADD PUSH2 0x564 DUP3 DUP3 SLOAD PUSH2 0x2D5A JUMP JUMPDEST SWAP1 SSTORE DUP4 DUP6 MSTORE PUSH1 0x3 DUP3 MSTORE PUSH1 0x9 PUSH1 0x40 DUP7 KECCAK256 ADD PUSH2 0x57F DUP3 DUP3 SLOAD PUSH2 0x2D5A JUMP JUMPDEST SWAP1 SSTORE PUSH1 0x40 MLOAD SWAP1 DUP2 MSTORE LOG2 DUP1 RETURN JUMPDEST PUSH1 0x40 MLOAD PUSH3 0x461BCD PUSH1 0xE5 SHL DUP2 MSTORE PUSH1 0x20 PUSH1 0x4 DUP3 ADD MSTORE PUSH1 0x14 PUSH1 0x24 DUP3 ADD MSTORE PUSH20 0x115E18D959591CC81C995CD95C9D99481C1BDBDB PUSH1 0x62 SHL PUSH1 0x44 DUP3 ADD MSTORE PUSH1 0x64 SWAP1 REVERT JUMPDEST PUSH1 0x40 MLOAD PUSH4 0xD92E233D PUSH1 0xE0 SHL DUP2 MSTORE PUSH1 0x4 SWAP1 REVERT JUMPDEST POP CALLVALUE PUSH2 0x28D JUMPI PUSH1 0x20 CALLDATASIZE PUSH1 0x3 NOT ADD SLT PUSH2 0x28D JUMPI PUSH1 0x20 PUSH2 0x5F8 PUSH1 0x4 CALLDATALOAD PUSH2 0x3B8C JUMP JUMPDEST PUSH1 0x40 MLOAD SWAP1 DUP2 MSTORE RETURN JUMPDEST POP CALLVALUE PUSH2 0x28D JUMPI PUSH1 0x20 CALLDATASIZE PUSH1 0x3 NOT ADD SLT PUSH2 0x28D JUMPI PUSH1 0x40 SWAP1 PUSH1 0xD SWAP1 DUP3 SWAP1 PUSH1 0x1 PUSH1 0x1 PUSH1 0xA0 SHL SUB PUSH2 0x62A PUSH2 0x2A3E JUMP JUMPDEST AND DUP2 MSTORE PUSH1 0x3 PUSH1 0x20 MSTORE KECCAK256 ADD SLOAD DUP2 MLOAD SWAP1 PUSH9 0x70C1CC73B00C80000 DUP2 LT ISZERO DUP3 MSTORE PUSH1 0x20 DUP3 ADD MSTORE RETURN JUMPDEST POP CALLVALUE PUSH2 0x28D JUMPI DUP1 PUSH1 0x3 NOT CALLDATASIZE ADD SLT PUSH2 0x28D JUMPI PUSH2 0x667 PUSH2 0x2CF9 JUMP JUMPDEST PUSH1 0x2 SLOAD PUSH1 0x1 PUSH1 0x1 PUSH1 0xA0 SHL SUB SWAP1 DUP2 AND SWAP1 DUP2 ISZERO PUSH2 0x8A2 JUMPI PUSH1 0x24 SWAP1 CALLER DUP5 MSTORE PUSH1 0x20 SWAP3 PUSH1 0x3 DUP5 MSTORE DUP4 PUSH1 0x40 DUP7 KECCAK256 SWAP2 PUSH2 0x69F PUSH1 0xFF DUP5 SLOAD PUSH1 0x8 SHR AND PUSH2 0x2C66 JUMP JUMPDEST PUSH1 0x40 MLOAD PUSH4 0x47CD5191 PUSH1 0xE0 SHL DUP2 MSTORE PUSH1 0x1 PUSH1 0x4 DUP3 ADD MSTORE SWAP5 DUP6 SWAP2 DUP3 SWAP1 GAS STATICCALL SWAP3 DUP4 ISZERO PUSH2 0x850 JUMPI DUP6 SWAP4 PUSH2 0x86D JUMPI JUMPDEST POP PUSH1 0xF ADD DUP1 SLOAD DUP4 DUP2 LT PUSH2 0x85B JUMPI DUP4 PUSH2 0x6DF SWAP2 PUSH2 0x2C9F JUMP JUMPDEST SWAP1 SSTORE PUSH2 0x706 DUP4 DUP4 DUP4 PUSH1 0x2 SLOAD AND PUSH1 0x40 MLOAD SWAP4 DUP5 SWAP3 DUP4 SWAP3 PUSH4 0xA9059CBB PUSH1 0xE0 SHL DUP5 MSTORE PUSH1 0x4 DUP5 ADD PUSH2 0x2CCF JUMP JUMPDEST SUB DUP2 DUP9 DUP7 PUSH32 0x0 AND GAS CALL SWAP1 DUP2 ISZERO PUSH2 0x850 JUMPI DUP6 SWAP2 PUSH2 0x817 JUMPI JUMPDEST POP ISZERO PUSH2 0x805 JUMPI DUP4 SWAP1 CALLER DUP3 MSTORE PUSH1 0xB DUP5 MSTORE PUSH1 0x40 DUP3 KECCAK256 PUSH2 0x759 DUP2 SLOAD PUSH2 0x2CEA JUMP JUMPDEST SWAP1 SSTORE PUSH1 0x2 SLOAD AND DUP1 EXTCODESIZE ISZERO PUSH2 0x801 JUMPI DUP2 DUP1 SWAP2 PUSH1 0x44 PUSH1 0x40 MLOAD DUP1 SWAP5 DUP2 SWAP4 PUSH4 0x686A38BD PUSH1 0xE0 SHL DUP4 MSTORE CALLER PUSH1 0x4 DUP5 ADD MSTORE PUSH1 0x1 PUSH1 0x24 DUP5 ADD MSTORE GAS CALL DUP1 ISZERO PUSH2 0x7F6 JUMPI PUSH2 0x7DE JUMPI JUMPDEST POP POP PUSH1 0x40 MLOAD SWAP2 PUSH1 0x1 DUP4 MSTORE DUP3 ADD MSTORE PUSH32 0x4E755DD64E53A9F7A5882E2E32EB64718C2273DE11E017BD47129B9FE2716D7C PUSH1 0x40 CALLER SWAP3 LOG2 PUSH1 0x1 PUSH1 0x0 DUP1 MLOAD PUSH1 0x20 PUSH2 0x3D0A DUP4 CODECOPY DUP2 MLOAD SWAP2 MSTORE SSTORE DUP1 RETURN JUMPDEST PUSH2 0x7E7 SWAP1 PUSH2 0x2B5E JUMP JUMPDEST PUSH2 0x7F2 JUMPI DUP3 CODESIZE PUSH2 0x796 JUMP JUMPDEST DUP3 DUP1 REVERT JUMPDEST PUSH1 0x40 MLOAD RETURNDATASIZE DUP5 DUP3 RETURNDATACOPY RETURNDATASIZE SWAP1 REVERT JUMPDEST POP DUP1 REVERT JUMPDEST PUSH1 0x40 MLOAD PUSH4 0x12171D83 PUSH1 0xE3 SHL DUP2 MSTORE PUSH1 0x4 SWAP1 REVERT JUMPDEST SWAP1 POP DUP4 DUP2 DUP2 RETURNDATASIZE DUP4 GT PUSH2 0x849 JUMPI JUMPDEST PUSH2 0x82E DUP2 DUP4 PUSH2 0x2B71 JUMP JUMPDEST DUP2 ADD SUB SLT PUSH2 0x845 JUMPI PUSH2 0x83F SWAP1 PUSH2 0x2CC2 JUMP JUMPDEST CODESIZE PUSH2 0x73C JUMP JUMPDEST DUP5 DUP1 REVERT JUMPDEST POP RETURNDATASIZE PUSH2 0x824 JUMP JUMPDEST PUSH1 0x40 MLOAD RETURNDATASIZE DUP8 DUP3 RETURNDATACOPY RETURNDATASIZE SWAP1 REVERT JUMPDEST PUSH1 0x40 MLOAD PUSH4 0x856D687 PUSH1 0xE1 SHL DUP2 MSTORE PUSH1 0x4 SWAP1 REVERT JUMPDEST SWAP1 SWAP3 POP DUP4 DUP2 DUP2 RETURNDATASIZE DUP4 GT PUSH2 0x89B JUMPI JUMPDEST PUSH2 0x885 DUP2 DUP4 PUSH2 0x2B71 JUMP JUMPDEST DUP2 ADD SUB SLT PUSH2 0x896 JUMPI MLOAD SWAP2 PUSH1 0xF PUSH2 0x6C8 JUMP JUMPDEST PUSH1 0x0 DUP1 REVERT JUMPDEST POP RETURNDATASIZE PUSH2 0x87B JUMP JUMPDEST PUSH1 0x40 MLOAD PUSH4 0x632100F7 PUSH1 0xE1 SHL DUP2 MSTORE PUSH1 0x4 SWAP1 REVERT JUMPDEST POP CALLVALUE PUSH2 0x28D JUMPI PUSH1 0x20 CALLDATASIZE PUSH1 0x3 NOT ADD SLT PUSH2 0x28D JUMPI PUSH2 0x8CE PUSH2 0x2A3E JUMP JUMPDEST PUSH2 0x8D6 PUSH2 0x2C3A JUMP JUMPDEST PUSH1 0x1 PUSH1 0x1 PUSH1 0xA0 SHL SUB AND DUP1 ISZERO PUSH2 0x5C7 JUMPI PUSH1 0x2 DUP1 SLOAD PUSH1 0x1 PUSH1 0x1 PUSH1 0xA0 SHL SUB NOT AND DUP3 OR SWAP1 SSTORE PUSH32 0x49424F87D81E4374EE3E8D1CF7B880966981A3CF6A7AC1D7A66C13D91756FCCC DUP3 DUP1 LOG2 DUP1 RETURN JUMPDEST POP CALLVALUE PUSH2 0x28D JUMPI PUSH2 0x92D CALLDATASIZE PUSH2 0x2A94 JUMP JUMPDEST SWAP1 PUSH1 0x60 PUSH1 0x1 DUP1 PUSH1 0xA0 SHL SUB SWAP3 PUSH1 0x44 DUP5 PUSH1 0x2 SLOAD AND SWAP4 PUSH1 0x40 MLOAD SWAP5 DUP6 SWAP4 DUP5 SWAP3 PUSH4 0x6A548143 PUSH1 0xE1 SHL DUP5 MSTORE PUSH1 0x4 DUP5 ADD MSTORE PUSH1 0x24 DUP4 ADD MSTORE GAS STATICCALL SWAP1 DUP2 ISZERO PUSH2 0x9E5 JUMPI DUP4 SWAP3 DUP5 SWAP2 DUP6 SWAP4 PUSH2 0x98A JUMPI JUMPDEST POP PUSH1 0x60 SWAP5 POP PUSH1 0x40 MLOAD SWAP4 AND DUP4 MSTORE PUSH1 0x20 DUP4 ADD MSTORE ISZERO ISZERO PUSH1 0x40 DUP3 ADD MSTORE RETURN JUMPDEST SWAP4 POP SWAP2 POP POP PUSH1 0x60 DUP3 RETURNDATASIZE DUP3 GT PUSH2 0x9DD JUMPI JUMPDEST DUP2 PUSH2 0x9A7 PUSH1 0x60 SWAP4 DUP4 PUSH2 0x2B71 JUMP JUMPDEST DUP2 ADD SUB SLT PUSH2 0x7F2 JUMPI DUP2 MLOAD DUP2 DUP2 AND DUP2 SUB PUSH2 0x9D9 JUMPI PUSH1 0x60 SWAP4 POP PUSH2 0x9CF PUSH1 0x40 PUSH1 0x20 DUP6 ADD MLOAD SWAP5 ADD PUSH2 0x2CC2 JUMP JUMPDEST SWAP1 SWAP3 SWAP1 SWAP2 CODESIZE PUSH2 0x970 JUMP JUMPDEST DUP4 DUP1 REVERT JUMPDEST RETURNDATASIZE SWAP2 POP PUSH2 0x99A JUMP JUMPDEST PUSH1 0x40 MLOAD RETURNDATASIZE DUP6 DUP3 RETURNDATACOPY RETURNDATASIZE SWAP1 REVERT JUMPDEST POP CALLVALUE PUSH2 0x28D JUMPI PUSH1 0x20 DUP1 PUSH1 0x3 NOT CALLDATASIZE ADD SLT PUSH2 0x801 JUMPI PUSH1 0x4 CALLDATALOAD SWAP1 PUSH2 0xA0F PUSH2 0x2CF9 JUMP JUMPDEST DUP2 ISZERO PUSH2 0xB2B JUMPI CALLER DUP4 MSTORE PUSH1 0x3 DUP2 MSTORE PUSH1 0xC PUSH1 0x40 DUP5 KECCAK256 ADD DUP1 SLOAD DUP4 DUP2 LT PUSH2 0xB19 JUMPI DUP4 PUSH2 0xA36 SWAP2 PUSH2 0x2C9F JUMP JUMPDEST SWAP1 SSTORE PUSH1 0x40 MLOAD PUSH4 0xA9059CBB PUSH1 0xE0 SHL DUP2 MSTORE DUP2 DUP2 DUP1 PUSH2 0xA56 DUP7 CALLER PUSH1 0x4 DUP5 ADD PUSH2 0x2CCF JUMP JUMPDEST SUB DUP2 DUP8 PUSH32 0x0 PUSH1 0x1 PUSH1 0x1 PUSH1 0xA0 SHL SUB AND GAS CALL SWAP1 DUP2 ISZERO PUSH2 0xB0E JUMPI DUP5 SWAP2 PUSH2 0xAD9 JUMPI JUMPDEST POP ISZERO PUSH2 0x805 JUMPI PUSH32 0xBDD3F02D2A57FB53C1156F98470B61CB60712D485C27C36A49B1263DABCDE201 SWAP1 PUSH1 0x40 MLOAD SWAP3 DUP4 MSTORE CALLER SWAP3 LOG2 PUSH1 0x1 PUSH1 0x0 DUP1 MLOAD PUSH1 0x20 PUSH2 0x3D0A DUP4 CODECOPY DUP2 MLOAD SWAP2 MSTORE SSTORE DUP1 RETURN JUMPDEST SWAP1 POP DUP2 DUP2 DUP2 RETURNDATASIZE DUP4 GT PUSH2 0xB07 JUMPI JUMPDEST PUSH2 0xAF0 DUP2 DUP4 PUSH2 0x2B71 JUMP JUMPDEST DUP2 ADD SUB SLT PUSH2 0x9D9 JUMPI PUSH2 0xB01 SWAP1 PUSH2 0x2CC2 JUMP JUMPDEST CODESIZE PUSH2 0xA93 JUMP JUMPDEST POP RETURNDATASIZE PUSH2 0xAE6 JUMP JUMPDEST PUSH1 0x40 MLOAD RETURNDATASIZE DUP7 DUP3 RETURNDATACOPY RETURNDATASIZE SWAP1 REVERT JUMPDEST PUSH1 0x40 MLOAD PUSH4 0xB55C1BAD PUSH1 0xE0 SHL DUP2 MSTORE PUSH1 0x4 SWAP1 REVERT JUMPDEST PUSH1 0x40 MLOAD PUSH4 0x1F2A2005 PUSH1 0xE0 SHL DUP2 MSTORE PUSH1 0x4 SWAP1 REVERT JUMPDEST POP CALLVALUE PUSH2 0x28D JUMPI DUP1 PUSH1 0x3 NOT CALLDATASIZE ADD SLT PUSH2 0x28D JUMPI PUSH1 0x1 SLOAD PUSH1 0x40 MLOAD PUSH4 0x70A08231 PUSH1 0xE0 SHL DUP2 MSTORE ADDRESS PUSH1 0x4 DUP3 ADD MSTORE SWAP2 SWAP1 PUSH1 0x20 SWAP1 DUP4 SWAP1 PUSH1 0x24 SWAP1 DUP3 SWAP1 PUSH1 0x1 PUSH1 0x1 PUSH1 0xA0 SHL SUB AND GAS STATICCALL SWAP1 DUP2 ISZERO PUSH2 0xBC5 JUMPI SWAP1 PUSH2 0xB93 JUMPI JUMPDEST PUSH1 0x20 SWAP1 PUSH1 0x40 MLOAD SWAP1 DUP2 MSTORE RETURN JUMPDEST POP PUSH1 0x20 DUP2 RETURNDATASIZE DUP3 GT PUSH2 0xBBD JUMPI JUMPDEST DUP2 PUSH2 0xBAC PUSH1 0x20 SWAP4 DUP4 PUSH2 0x2B71 JUMP JUMPDEST DUP2 ADD SUB SLT PUSH2 0x896 JUMPI PUSH1 0x20 SWAP1 MLOAD PUSH2 0xB88 JUMP JUMPDEST RETURNDATASIZE SWAP2 POP PUSH2 0xB9F JUMP JUMPDEST PUSH1 0x40 MLOAD SWAP1 RETURNDATASIZE SWAP1 DUP3 RETURNDATACOPY RETURNDATASIZE SWAP1 REVERT JUMPDEST POP CALLVALUE PUSH2 0x28D JUMPI DUP1 PUSH1 0x3 NOT CALLDATASIZE ADD SLT PUSH2 0x28D JUMPI PUSH1 0x2 SLOAD PUSH1 0x40 MLOAD PUSH1 0x1 PUSH1 0x1 PUSH1 0xA0 SHL SUB SWAP1 SWAP2 AND DUP2 MSTORE PUSH1 0x20 SWAP1 RETURN JUMPDEST POP CALLVALUE PUSH2 0x28D JUMPI DUP1 PUSH1 0x3 NOT CALLDATASIZE ADD SLT PUSH2 0x28D JUMPI PUSH1 0x20 PUSH1 0x5 SLOAD PUSH1 0x40 MLOAD SWAP1 DUP2 MSTORE RETURN JUMPDEST PUSH2 0x2AAA JUMP JUMPDEST POP CALLVALUE PUSH2 0x28D JUMPI DUP1 PUSH1 0x3 NOT CALLDATASIZE ADD SLT PUSH2 0x28D JUMPI PUSH1 0x20 PUSH1 0x8 SLOAD PUSH1 0x40 MLOAD SWAP1 DUP2 MSTORE RETURN JUMPDEST POP CALLVALUE PUSH2 0x28D JUMPI PUSH1 0x20 DUP1 PUSH1 0x3 NOT CALLDATASIZE ADD SLT PUSH2 0x801 JUMPI PUSH1 0x4 CALLDATALOAD SWAP1 PUSH2 0xC5A PUSH2 0x2CF9 JUMP JUMPDEST DUP2 ISZERO PUSH2 0xB2B JUMPI CALLER DUP4 MSTORE PUSH1 0x3 DUP2 MSTORE PUSH1 0xF PUSH1 0x40 DUP5 KECCAK256 ADD DUP1 SLOAD DUP4 DUP2 LT PUSH2 0xD59 JUMPI DUP4 PUSH2 0xC81 SWAP2 PUSH2 0x2C9F JUMP JUMPDEST SWAP1 SSTORE PUSH1 0x40 MLOAD PUSH4 0xA9059CBB PUSH1 0xE0 SHL DUP2 MSTORE DUP2 DUP2 DUP1 PUSH2 0xCA1 DUP7 CALLER PUSH1 0x4 DUP5 ADD PUSH2 0x2CCF JUMP JUMPDEST SUB DUP2 DUP8 PUSH32 0x0 PUSH1 0x1 PUSH1 0x1 PUSH1 0xA0 SHL SUB AND GAS CALL SWAP1 DUP2 ISZERO PUSH2 0xB0E JUMPI DUP5 SWAP2 PUSH2 0xD24 JUMPI JUMPDEST POP ISZERO PUSH2 0x805 JUMPI PUSH32 0x12701E4764B73009AB9826933C421483E4280410091FCC760515E0FA99FA766B SWAP1 PUSH1 0x40 MLOAD SWAP3 DUP4 MSTORE CALLER SWAP3 LOG2 PUSH1 0x1 PUSH1 0x0 DUP1 MLOAD PUSH1 0x20 PUSH2 0x3D0A DUP4 CODECOPY DUP2 MLOAD SWAP2 MSTORE SSTORE DUP1 RETURN JUMPDEST SWAP1 POP DUP2 DUP2 DUP2 RETURNDATASIZE DUP4 GT PUSH2 0xD52 JUMPI JUMPDEST PUSH2 0xD3B DUP2 DUP4 PUSH2 0x2B71 JUMP JUMPDEST DUP2 ADD SUB SLT PUSH2 0x9D9 JUMPI PUSH2 0xD4C SWAP1 PUSH2 0x2CC2 JUMP JUMPDEST CODESIZE PUSH2 0xCDE JUMP JUMPDEST POP RETURNDATASIZE PUSH2 0xD31 JUMP JUMPDEST PUSH1 0x40 MLOAD PUSH4 0x6DAE8617 PUSH1 0xE1 SHL DUP2 MSTORE PUSH1 0x4 SWAP1 REVERT JUMPDEST POP CALLVALUE PUSH2 0x28D JUMPI DUP1 PUSH1 0x3 NOT CALLDATASIZE ADD SLT PUSH2 0x28D JUMPI PUSH1 0x20 PUSH1 0x40 MLOAD PUSH9 0x15245655B102580000 DUP2 MSTORE RETURN JUMPDEST POP CALLVALUE PUSH2 0x28D JUMPI PUSH1 0x60 CALLDATASIZE PUSH1 0x3 NOT ADD SLT PUSH2 0x28D JUMPI PUSH2 0xDA9 PUSH2 0x2A3E JUMP JUMPDEST PUSH1 0x24 CALLDATALOAD PUSH1 0x1 PUSH1 0x1 PUSH1 0xA0 SHL SUB DUP2 AND SWAP1 SUB PUSH2 0x896 JUMPI PUSH1 0x44 CALLDATALOAD ISZERO ISZERO PUSH1 0x44 CALLDATALOAD SUB PUSH2 0x896 JUMPI CALLER DUP3 MSTORE PUSH1 0x3 PUSH1 0x20 MSTORE PUSH1 0xFF PUSH1 0x40 DUP4 KECCAK256 SLOAD AND PUSH2 0x10EF JUMPI PUSH1 0x5 SLOAD PUSH2 0xED6 JUMPI CALLER PUSH1 0x0 SWAP1 DUP2 MSTORE PUSH1 0x3 PUSH1 0x20 MSTORE PUSH1 0x40 SWAP1 KECCAK256 DUP1 SLOAD PUSH2 0xFF01 PUSH1 0x1 PUSH1 0xB0 SHL SUB NOT AND PUSH1 0x1 OR DUP2 SSTORE PUSH1 0x2 DUP2 ADD DUP1 SLOAD PUSH1 0x1 PUSH1 0x1 PUSH1 0xA8 SHL SUB NOT AND SWAP1 SSTORE PUSH1 0x12 DUP2 ADD DUP1 SLOAD PUSH1 0x1 PUSH1 0x1 PUSH1 0xA0 SHL SUB NOT AND SWAP1 SSTORE TIMESTAMP PUSH1 0x14 SWAP1 SWAP2 ADD SSTORE PUSH1 0x4 SLOAD PUSH1 0x1 PUSH1 0x40 SHL DUP2 LT ISZERO PUSH2 0xEC0 JUMPI DUP1 PUSH1 0x1 PUSH2 0xE4F SWAP3 ADD PUSH1 0x4 SSTORE PUSH2 0x2AF3 JUMP JUMPDEST DUP2 SLOAD PUSH1 0x1 PUSH1 0x1 PUSH1 0xA0 SHL SUB PUSH1 0x3 SWAP3 SWAP1 SWAP3 SHL SWAP2 DUP3 SHL NOT AND CALLER SWAP1 SWAP2 SHL OR SWAP1 SSTORE PUSH1 0x5 SLOAD PUSH2 0xE77 SWAP1 PUSH2 0x2CEA JUMP JUMPDEST PUSH1 0x5 SSTORE JUMPDEST PUSH1 0x40 MLOAD PUSH1 0x44 CALLDATALOAD ISZERO ISZERO DUP2 MSTORE PUSH1 0x1 PUSH1 0x1 PUSH1 0xA0 SHL SUB PUSH1 0x24 CALLDATALOAD DUP2 AND SWAP3 AND SWAP1 CALLER SWAP1 PUSH32 0x34FF37874D7443037A85C6F390FE14F2AE3E8767355DE0E63891AD4367C27539 SWAP1 PUSH1 0x20 SWAP1 LOG4 DUP1 RETURN JUMPDEST PUSH4 0x4E487B71 PUSH1 0xE0 SHL PUSH1 0x0 MSTORE PUSH1 0x41 PUSH1 0x4 MSTORE PUSH1 0x24 PUSH1 0x0 REVERT JUMPDEST PUSH1 0x1 PUSH1 0x1 PUSH1 0xA0 SHL SUB DUP2 AND DUP1 DUP4 MSTORE PUSH1 0x3 PUSH1 0x20 MSTORE PUSH1 0x40 DUP4 KECCAK256 SLOAD PUSH1 0xFF AND ISZERO PUSH2 0x10DD JUMPI PUSH1 0x24 CALLDATALOAD PUSH1 0x1 PUSH1 0x1 PUSH1 0xA0 SHL SUB AND ISZERO ISZERO DUP1 PUSH2 0x10BC JUMPI JUMPDEST ISZERO PUSH2 0x10B6 JUMPI PUSH1 0x24 CALLDATALOAD JUMPDEST PUSH1 0x44 CALLDATALOAD DUP1 PUSH2 0x1093 JUMPI JUMPDEST PUSH2 0x105E JUMPI PUSH1 0x44 CALLDATALOAD ISZERO DUP1 PUSH2 0x1070 JUMPI JUMPDEST PUSH2 0x105E JUMPI CALLER PUSH1 0x0 SWAP1 DUP2 MSTORE PUSH1 0x3 PUSH1 0x20 MSTORE PUSH1 0x40 SWAP1 KECCAK256 DUP1 SLOAD PUSH2 0xFF01 PUSH1 0x1 PUSH1 0xB0 SHL SUB NOT AND PUSH1 0x10 DUP6 SWAP1 SHL PUSH3 0x10000 PUSH1 0x1 PUSH1 0xB0 SHL SUB AND OR PUSH1 0x1 OR DUP2 SSTORE PUSH1 0x2 DUP2 ADD DUP1 SLOAD PUSH1 0x1 PUSH1 0x1 PUSH1 0xA8 SHL SUB NOT AND PUSH1 0x1 PUSH1 0x1 PUSH1 0xA0 SHL SUB SWAP1 SWAP4 AND SWAP3 DUP4 OR PUSH1 0x44 CALLDATALOAD ISZERO ISZERO PUSH1 0xA0 SHL PUSH1 0xFF PUSH1 0xA0 SHL AND OR SWAP1 SSTORE PUSH1 0x12 DUP2 ADD DUP1 SLOAD PUSH1 0x1 PUSH1 0x1 PUSH1 0xA0 SHL SUB NOT SWAP1 DUP2 AND SWAP1 SWAP2 SSTORE TIMESTAMP PUSH1 0x14 SWAP1 SWAP3 ADD SWAP2 SWAP1 SWAP2 SSTORE PUSH1 0x4 SLOAD SWAP1 SWAP2 SWAP1 PUSH1 0x1 PUSH1 0x40 SHL DUP2 LT ISZERO PUSH2 0xEC0 JUMPI DUP1 PUSH1 0x1 PUSH2 0xFCF SWAP3 ADD PUSH1 0x4 SSTORE PUSH2 0x2AF3 JUMP JUMPDEST DUP2 SLOAD PUSH1 0x1 PUSH1 0x1 PUSH1 0xA0 SHL SUB PUSH1 0x3 SWAP3 SWAP1 SWAP3 SHL SWAP2 DUP3 SHL NOT AND CALLER SWAP1 SWAP2 SHL OR SWAP1 SSTORE PUSH1 0x5 SLOAD PUSH2 0xFF7 SWAP1 PUSH2 0x2CEA JUMP JUMPDEST PUSH1 0x5 SSTORE PUSH1 0x44 CALLDATALOAD ISZERO PUSH2 0x1042 JUMPI DUP5 MSTORE PUSH1 0x3 PUSH1 0x20 MSTORE PUSH1 0x3 PUSH1 0x40 DUP6 KECCAK256 ADD SWAP1 CALLER SWAP1 DUP3 SLOAD AND OR SWAP1 SSTORE JUMPDEST DUP3 MSTORE PUSH1 0x3 PUSH1 0x20 MSTORE PUSH1 0x1 PUSH1 0x40 DUP4 KECCAK256 ADD PUSH2 0x1032 DUP2 SLOAD PUSH2 0x2CEA JUMP JUMPDEST SWAP1 SSTORE PUSH2 0x103D CALLER PUSH2 0x2D67 JUMP JUMPDEST PUSH2 0xE7B JUMP JUMPDEST DUP5 MSTORE PUSH1 0x3 PUSH1 0x20 MSTORE PUSH1 0x4 PUSH1 0x40 DUP6 KECCAK256 ADD SWAP1 CALLER SWAP1 DUP3 SLOAD AND OR SWAP1 SSTORE PUSH2 0x101A JUMP JUMPDEST PUSH1 0x40 MLOAD PUSH4 0xD5DD5C3D PUSH1 0xE0 SHL DUP2 MSTORE PUSH1 0x4 SWAP1 REVERT JUMPDEST POP PUSH1 0x1 PUSH1 0x1 PUSH1 0xA0 SHL SUB DUP2 DUP2 AND DUP6 MSTORE PUSH1 0x3 PUSH1 0x20 MSTORE PUSH1 0x40 DUP6 KECCAK256 PUSH1 0x4 ADD SLOAD AND ISZERO ISZERO PUSH2 0xF29 JUMP JUMPDEST POP PUSH1 0x1 PUSH1 0x1 PUSH1 0xA0 SHL SUB DUP2 DUP2 AND DUP6 MSTORE PUSH1 0x3 PUSH1 0x20 DUP2 SWAP1 MSTORE PUSH1 0x40 DUP7 KECCAK256 ADD SLOAD AND ISZERO ISZERO PUSH2 0xF1B JUMP JUMPDEST DUP2 PUSH2 0xF12 JUMP JUMPDEST POP PUSH1 0x24 CALLDATALOAD PUSH1 0x1 PUSH1 0x1 PUSH1 0xA0 SHL SUB AND DUP4 MSTORE PUSH1 0x3 PUSH1 0x20 MSTORE PUSH1 0x40 DUP4 KECCAK256 SLOAD PUSH1 0xFF AND PUSH2 0xF09 JUMP JUMPDEST PUSH1 0x40 MLOAD PUSH4 0x2F212E0D PUSH1 0xE1 SHL DUP2 MSTORE PUSH1 0x4 SWAP1 REVERT JUMPDEST PUSH1 0x40 MLOAD PUSH4 0xEA075BF PUSH1 0xE2 SHL DUP2 MSTORE PUSH1 0x4 SWAP1 REVERT JUMPDEST POP CALLVALUE PUSH2 0x28D JUMPI DUP1 PUSH1 0x3 NOT CALLDATASIZE ADD SLT PUSH2 0x28D JUMPI PUSH1 0x40 MLOAD PUSH32 0x0 PUSH1 0x1 PUSH1 0x1 PUSH1 0xA0 SHL SUB AND DUP2 MSTORE PUSH1 0x20 SWAP1 RETURN JUMPDEST POP CALLVALUE PUSH2 0x28D JUMPI PUSH1 0x20 CALLDATASIZE PUSH1 0x3 NOT ADD SLT PUSH2 0x28D JUMPI PUSH1 0x40 SWAP1 PUSH1 0x1 PUSH1 0x1 PUSH1 0xA0 SHL SUB PUSH2 0x116B PUSH2 0x2A3E JUMP JUMPDEST AND DUP2 MSTORE PUSH1 0x3 PUSH1 0x20 MSTORE KECCAK256 DUP1 PUSH2 0x2E0 MSTORE DUP1 DUP1 DUP1 DUP1 DUP1 DUP1 DUP1 DUP1 DUP1 DUP1 DUP1 DUP1 PUSH2 0x122E PUSH1 0x15 PUSH1 0xF PUSH1 0xE PUSH1 0xD PUSH1 0xC PUSH1 0xB PUSH1 0xA PUSH1 0x9 PUSH1 0x8 PUSH1 0x7 PUSH1 0x6 PUSH1 0x5 DUP14 SLOAD SWAP14 PUSH1 0x1 DUP2 ADD SLOAD PUSH1 0xE0 MSTORE PUSH1 0x2 DUP2 ADD SLOAD PUSH2 0x180 MSTORE PUSH1 0x1 DUP1 PUSH1 0xA0 SHL SUB PUSH1 0x3 DUP3 ADD SLOAD AND PUSH2 0x2C0 MSTORE PUSH1 0x4 PUSH1 0x1 DUP1 PUSH1 0xA0 SHL SUB SWAP2 ADD SLOAD AND SWAP15 ADD SLOAD SWAP15 ADD SLOAD SWAP15 ADD SLOAD SWAP15 ADD SLOAD SWAP15 ADD SLOAD SWAP15 ADD SLOAD SWAP15 ADD SLOAD SWAP15 ADD SLOAD SWAP15 ADD SLOAD SWAP15 ADD SLOAD SWAP15 ADD SLOAD SWAP15 PUSH1 0x10 DUP2 ADD SLOAD PUSH2 0x1A0 MSTORE PUSH1 0x11 DUP2 ADD SLOAD PUSH2 0x1C0 MSTORE PUSH1 0x1 DUP1 PUSH1 0xA0 SHL SUB PUSH1 0x12 DUP3 ADD SLOAD AND PUSH1 0xA0 MSTORE PUSH1 0x13 DUP2 ADD SLOAD PUSH2 0x240 MSTORE PUSH1 0x14 DUP2 ADD SLOAD PUSH2 0x140 MSTORE ADD PUSH2 0x2B94 JUMP JUMPDEST PUSH2 0x280 MSTORE PUSH2 0x1241 PUSH1 0x16 PUSH2 0x2E0 MLOAD ADD PUSH2 0x2B94 JUMP JUMPDEST PUSH2 0x160 MSTORE PUSH2 0x1254 PUSH1 0x17 PUSH2 0x2E0 MLOAD ADD PUSH2 0x2B94 JUMP JUMPDEST PUSH2 0x200 MSTORE PUSH2 0x1267 PUSH1 0x18 PUSH2 0x2E0 MLOAD ADD PUSH2 0x2B94 JUMP JUMPDEST PUSH2 0x1E0 MSTORE PUSH1 0xFF PUSH1 0x19 PUSH2 0x2E0 MLOAD ADD SLOAD AND PUSH2 0x220 MSTORE PUSH1 0x40 MLOAD DUP1 PUSH1 0x80 MSTORE PUSH1 0xFF DUP3 AND ISZERO ISZERO SWAP1 MSTORE PUSH1 0xFF DUP2 PUSH1 0x8 SHR AND ISZERO ISZERO PUSH1 0x20 PUSH1 0x80 MLOAD ADD MSTORE PUSH1 0x1 DUP1 PUSH1 0xA0 SHL SUB SWAP1 PUSH1 0x10 SHR AND PUSH1 0x40 PUSH1 0x80 MLOAD ADD MSTORE PUSH1 0xE0 MLOAD PUSH1 0x60 PUSH1 0x80 MLOAD ADD MSTORE PUSH1 0x1 DUP1 PUSH1 0xA0 SHL SUB PUSH2 0x180 MLOAD AND PUSH1 0x80 DUP1 MLOAD ADD MSTORE PUSH1 0xFF PUSH2 0x180 MLOAD PUSH1 0xA0 SHR AND ISZERO ISZERO PUSH1 0xA0 PUSH1 0x80 MLOAD ADD MSTORE PUSH2 0x2C0 MLOAD PUSH1 0xC0 PUSH1 0x80 MLOAD ADD MSTORE PUSH1 0xE0 PUSH1 0x80 MLOAD ADD MSTORE PUSH2 0x100 PUSH1 0x80 MLOAD ADD MSTORE PUSH2 0x120 PUSH1 0x80 MLOAD ADD MSTORE PUSH2 0x140 PUSH1 0x80 MLOAD ADD MSTORE PUSH2 0x160 PUSH1 0x80 MLOAD ADD MSTORE PUSH2 0x180 PUSH1 0x80 MLOAD ADD MSTORE PUSH2 0x1A0 PUSH1 0x80 MLOAD ADD MSTORE PUSH2 0x1C0 PUSH1 0x80 MLOAD ADD MSTORE PUSH2 0x1E0 PUSH1 0x80 MLOAD ADD MSTORE PUSH2 0x200 PUSH1 0x80 MLOAD ADD MSTORE PUSH2 0x220 PUSH1 0x80 MLOAD ADD MSTORE PUSH2 0x240 PUSH1 0x80 MLOAD ADD MSTORE PUSH2 0x1A0 MLOAD PUSH2 0x260 PUSH1 0x80 MLOAD ADD MSTORE PUSH2 0x1C0 MLOAD PUSH2 0x280 PUSH1 0x80 MLOAD ADD MSTORE PUSH1 0xA0 MLOAD PUSH2 0x2A0 PUSH1 0x80 MLOAD ADD MSTORE PUSH2 0x240 MLOAD PUSH2 0x2C0 PUSH1 0x80 MLOAD ADD MSTORE PUSH2 0x140 MLOAD PUSH2 0x2E0 PUSH1 0x80 MLOAD ADD MSTORE PUSH2 0x13E4 PUSH2 0x13CF PUSH2 0x13BA PUSH2 0x13A5 PUSH2 0x3A0 DUP1 PUSH2 0x300 PUSH1 0x80 MLOAD ADD MSTORE PUSH1 0x80 MLOAD ADD PUSH2 0x280 MLOAD PUSH2 0x2A54 JUMP JUMPDEST PUSH1 0x80 MLOAD PUSH2 0x320 DUP2 DUP4 SUB SWAP2 ADD MSTORE PUSH2 0x160 MLOAD PUSH2 0x2A54 JUMP JUMPDEST PUSH1 0x80 MLOAD PUSH2 0x340 DUP2 DUP4 SUB SWAP2 ADD MSTORE PUSH2 0x200 MLOAD PUSH2 0x2A54 JUMP JUMPDEST PUSH1 0x80 MLOAD PUSH2 0x360 DUP2 DUP4 SUB SWAP2 ADD MSTORE PUSH2 0x1E0 MLOAD PUSH2 0x2A54 JUMP JUMPDEST PUSH2 0x220 MLOAD ISZERO ISZERO PUSH2 0x380 PUSH1 0x80 MLOAD ADD MSTORE PUSH1 0x80 MLOAD DUP1 SWAP2 SUB SWAP1 RETURN JUMPDEST POP CALLVALUE PUSH2 0x28D JUMPI PUSH1 0x20 CALLDATASIZE PUSH1 0x3 NOT ADD SLT PUSH2 0x28D JUMPI PUSH1 0x4 CALLDATALOAD SWAP1 PUSH1 0x4 SLOAD DUP3 LT ISZERO PUSH2 0x28D JUMPI PUSH1 0x20 PUSH2 0x1426 DUP4 PUSH2 0x2AF3 JUMP JUMPDEST SWAP1 SLOAD PUSH1 0x40 MLOAD PUSH1 0x3 SWAP3 SWAP1 SWAP3 SHL SHR PUSH1 0x1 PUSH1 0x1 PUSH1 0xA0 SHL SUB AND DUP2 MSTORE RETURN JUMPDEST POP CALLVALUE PUSH2 0x28D JUMPI PUSH1 0x20 CALLDATASIZE PUSH1 0x3 NOT ADD SLT PUSH2 0x28D JUMPI PUSH1 0x60 PUSH2 0x1463 PUSH2 0x145E PUSH2 0x2A3E JUMP JUMPDEST PUSH2 0x3C10 JUMP JUMPDEST SWAP1 PUSH1 0x40 MLOAD SWAP3 ISZERO ISZERO DUP4 MSTORE PUSH1 0x20 DUP4 ADD MSTORE PUSH1 0x40 DUP3 ADD MSTORE RETURN JUMPDEST POP CALLVALUE PUSH2 0x28D JUMPI PUSH1 0x40 CALLDATASIZE PUSH1 0x3 NOT ADD SLT PUSH2 0x28D JUMPI PUSH2 0x1492 PUSH2 0x2A3E JUMP JUMPDEST PUSH1 0x24 CALLDATALOAD SWAP1 DUP2 ISZERO ISZERO DUP3 SUB PUSH2 0x896 JUMPI PUSH2 0x14A7 PUSH2 0x2CF9 JUMP JUMPDEST PUSH1 0x1 PUSH1 0x1 PUSH1 0xA0 SHL SUB DUP2 DUP2 AND SWAP3 SWAP1 DUP4 ISZERO PUSH2 0x5C7 JUMPI CALLER DUP6 MSTORE PUSH1 0x3 SWAP3 PUSH1 0x20 SWAP4 DUP1 DUP6 MSTORE PUSH1 0x40 DUP8 KECCAK256 SWAP2 DUP3 SLOAD SWAP2 PUSH2 0x14DD PUSH1 0xFF DUP5 PUSH1 0x8 SHR AND PUSH2 0x2C66 JUMP JUMPDEST PUSH1 0xD DUP5 ADD DUP1 SLOAD SWAP1 PUSH9 0x70C1CC73B00C80000 DUP1 DUP4 LT PUSH2 0x1749 JUMPI DUP11 DUP13 MSTORE DUP4 DUP11 MSTORE PUSH1 0xFF PUSH1 0x40 DUP14 KECCAK256 SLOAD AND PUSH2 0x1704 JUMPI PUSH9 0x70C1CC73B00C7FFFF NOT DUP4 ADD SWAP3 DUP4 GT PUSH2 0x16F0 JUMPI DUP1 DUP4 LT PUSH2 0x16E5 JUMPI PUSH2 0x152D SWAP1 DUP1 SWAP4 PUSH2 0x2C9F JUMP JUMPDEST SWAP1 SSTORE PUSH1 0xC DUP6 ADD PUSH2 0x153E DUP3 DUP3 SLOAD PUSH2 0x2D5A JUMP JUMPDEST SWAP1 SSTORE PUSH2 0x154F PUSH1 0xE DUP7 ADD SWAP2 DUP3 SLOAD PUSH2 0x2D5A JUMP JUMPDEST SWAP1 SSTORE PUSH9 0x15245655B102580000 PUSH1 0xB DUP6 ADD SSTORE PUSH2 0x1570 DUP6 DUP5 PUSH1 0x10 SHR AND SWAP7 CALLER PUSH2 0x3595 JUMP JUMPDEST PUSH1 0x0 DUP11 DUP2 MSTORE DUP4 DUP11 MSTORE PUSH1 0x40 SWAP1 KECCAK256 DUP1 SLOAD PUSH2 0xFF01 PUSH1 0x1 PUSH1 0xB0 SHL SUB NOT AND PUSH3 0x10000 PUSH1 0x1 PUSH1 0xB0 SHL SUB SWAP1 SWAP7 AND SWAP6 SWAP1 SWAP6 OR PUSH1 0x1 OR DUP6 SSTORE PUSH1 0x2 DUP6 ADD DUP1 SLOAD PUSH1 0x1 PUSH1 0x1 PUSH1 0xA8 SHL SUB NOT AND SWAP3 DUP9 AND SWAP3 DUP4 OR DUP3 ISZERO ISZERO PUSH1 0xA0 SHL PUSH1 0xFF PUSH1 0xA0 SHL AND OR SWAP1 SSTORE PUSH1 0x12 DUP6 ADD DUP1 SLOAD PUSH1 0x1 PUSH1 0x1 PUSH1 0xA0 SHL SUB NOT SWAP1 DUP2 AND CALLER OR SWAP1 SWAP2 SSTORE TIMESTAMP PUSH1 0x14 SWAP1 SWAP7 ADD SWAP6 SWAP1 SWAP6 SSTORE PUSH1 0x4 SLOAD SWAP1 SWAP8 SWAP1 SWAP5 SWAP1 SWAP2 PUSH1 0x1 PUSH1 0x40 SHL DUP7 LT ISZERO PUSH2 0xEC0 JUMPI PUSH32 0x30016ED357540281A6CFF6143637E72B48E105D85D15DF66B0AAFFBD23790240 SWAP9 PUSH1 0x13 SWAP9 DUP13 PUSH2 0x1633 DUP10 PUSH1 0x1 PUSH2 0x1681 SWAP12 ADD PUSH1 0x4 SSTORE PUSH2 0x2AF3 JUMP JUMPDEST SWAP1 SWAP3 DUP4 SLOAD SWAP2 DUP10 SHL SWAP3 DUP4 SHL SWAP3 SHL NOT AND OR SWAP1 SSTORE PUSH2 0x164F PUSH1 0x5 SLOAD PUSH2 0x2CEA JUMP JUMPDEST PUSH1 0x5 SSTORE ISZERO PUSH2 0x16CC JUMPI DUP12 MSTORE DUP3 DUP10 MSTORE DUP10 DUP4 PUSH1 0x40 DUP14 KECCAK256 ADD SWAP2 DUP3 SLOAD AND OR SWAP1 SSTORE JUMPDEST DUP1 PUSH2 0x16AE JUMPI JUMPDEST POP POP PUSH2 0x167C DUP2 PUSH2 0x2D67 JUMP JUMPDEST PUSH2 0x2E5D JUMP JUMPDEST ADD SWAP2 PUSH2 0x168D DUP4 SLOAD PUSH2 0x2CEA JUMP JUMPDEST DUP1 SWAP4 SSTORE PUSH1 0x40 MLOAD SWAP3 DUP4 MSTORE CALLER SWAP3 LOG3 PUSH1 0x1 PUSH1 0x0 DUP1 MLOAD PUSH1 0x20 PUSH2 0x3D0A DUP4 CODECOPY DUP2 MLOAD SWAP2 MSTORE SSTORE DUP1 RETURN JUMPDEST DUP10 MSTORE DUP7 MSTORE PUSH1 0x1 PUSH1 0x40 DUP10 KECCAK256 ADD PUSH2 0x16C3 DUP2 SLOAD PUSH2 0x2CEA JUMP JUMPDEST SWAP1 SSTORE CODESIZE DUP1 PUSH2 0x1671 JUMP JUMPDEST DUP12 MSTORE DUP3 DUP10 MSTORE DUP10 PUSH1 0x4 PUSH1 0x40 DUP14 KECCAK256 ADD SWAP2 DUP3 SLOAD AND OR SWAP1 SSTORE PUSH2 0x166B JUMP JUMPDEST POP PUSH2 0x152D DUP3 DUP1 PUSH2 0x2C9F JUMP JUMPDEST PUSH4 0x4E487B71 PUSH1 0xE0 SHL DUP13 MSTORE PUSH1 0x11 PUSH1 0x4 MSTORE PUSH1 0x24 DUP13 REVERT JUMPDEST PUSH1 0x40 MLOAD PUSH3 0x461BCD PUSH1 0xE5 SHL DUP2 MSTORE PUSH1 0x4 DUP2 ADD DUP12 SWAP1 MSTORE PUSH1 0x1E PUSH1 0x24 DUP3 ADD MSTORE PUSH32 0x5375622D6163636F756E7420616C726561647920726567697374657265640000 PUSH1 0x44 DUP3 ADD MSTORE PUSH1 0x64 SWAP1 REVERT JUMPDEST PUSH1 0x40 MLOAD PUSH4 0x7DB32BD PUSH1 0xE3 SHL DUP2 MSTORE PUSH1 0x4 SWAP1 REVERT JUMPDEST POP CALLVALUE PUSH2 0x28D JUMPI DUP1 PUSH1 0x3 NOT CALLDATASIZE ADD SLT PUSH2 0x28D JUMPI PUSH1 0x20 PUSH1 0x40 MLOAD PUSH1 0xA DUP2 MSTORE RETURN JUMPDEST POP CALLVALUE PUSH2 0x28D JUMPI DUP1 PUSH1 0x3 NOT CALLDATASIZE ADD SLT PUSH2 0x28D JUMPI SLOAD PUSH1 0x40 MLOAD PUSH1 0x1 PUSH1 0x1 PUSH1 0xA0 SHL SUB SWAP1 SWAP2 AND DUP2 MSTORE PUSH1 0x20 SWAP1 RETURN JUMPDEST POP CALLVALUE PUSH2 0x28D JUMPI PUSH2 0x17AD CALLDATASIZE PUSH2 0x2A94 JUMP JUMPDEST PUSH2 0x17B5 PUSH2 0x2C3A JUMP JUMPDEST PUSH2 0x17BD PUSH2 0x2CF9 JUMP JUMPDEST PUSH1 0xFF PUSH1 0xA SLOAD AND ISZERO PUSH2 0x199D JUMPI PUSH2 0x17D2 SWAP1 DUP3 PUSH2 0x2D5A JUMP JUMPDEST PUSH1 0x4 SLOAD DUP1 DUP3 GT PUSH2 0x1995 JUMPI JUMPDEST POP DUP3 SWAP1 DUP3 JUMPDEST DUP2 DUP2 LT PUSH2 0x1955 JUMPI POP PUSH1 0x9 SWAP1 DUP2 SLOAD SWAP4 DUP4 ISZERO ISZERO DUP1 PUSH2 0x194C JUMPI JUMPDEST ISZERO PUSH2 0x1934 JUMPI DUP1 JUMPDEST DUP3 DUP2 LT PUSH2 0x18A5 JUMPI POP SWAP1 DUP6 SWAP3 SWAP2 JUMPDEST DUP2 DUP2 LT PUSH2 0x1867 JUMPI DUP4 PUSH32 0x7F4A5B69BEA14A6FC05326671A02E90D4A88855C83A18529C260057B1BF61A85 PUSH1 0x40 DUP9 DUP9 DUP5 DUP9 SSTORE PUSH1 0xFF NOT PUSH1 0xA SLOAD AND PUSH1 0xA SSTORE DUP3 MLOAD SWAP2 DUP3 MSTORE PUSH1 0x20 DUP3 ADD MSTORE LOG1 PUSH1 0x1 PUSH1 0x0 DUP1 MLOAD PUSH1 0x20 PUSH2 0x3D0A DUP4 CODECOPY DUP2 MLOAD SWAP2 MSTORE SSTORE DUP1 RETURN JUMPDEST PUSH2 0x189C SWAP2 SWAP3 SWAP4 POP PUSH2 0x1877 DUP2 PUSH2 0x2AF3 JUMP JUMPDEST SWAP1 SLOAD PUSH1 0x3 SWAP2 DUP3 SHL SHR PUSH1 0x1 PUSH1 0x1 PUSH1 0xA0 SHL SUB AND DUP9 MSTORE PUSH1 0x20 MSTORE PUSH1 0x40 DUP8 KECCAK256 PUSH1 0x11 ADD DUP8 SWAP1 SSTORE PUSH2 0x2CEA JUMP JUMPDEST SWAP1 DUP6 SWAP3 SWAP2 PUSH2 0x180D JUMP JUMPDEST DUP1 PUSH2 0x18B2 PUSH2 0x1925 SWAP3 PUSH2 0x2AF3 JUMP JUMPDEST SWAP1 SLOAD PUSH1 0x3 SWAP2 DUP3 SHL SHR PUSH1 0x1 PUSH1 0x1 PUSH1 0xA0 SHL SUB AND DUP1 DUP11 MSTORE PUSH1 0x20 DUP3 DUP2 MSTORE PUSH1 0x40 DUP12 KECCAK256 PUSH1 0x11 ADD SLOAD SWAP2 SWAP3 SWAP2 DUP10 DUP2 ISZERO PUSH2 0x192A JUMPI PUSH2 0x18EA PUSH2 0x18EF SWAP3 DUP14 PUSH2 0x2E06 JUMP JUMPDEST PUSH2 0x2E19 JUMP JUMPDEST SWAP3 DUP1 DUP13 MSTORE DUP3 DUP3 MSTORE PUSH1 0x8 PUSH1 0x40 DUP14 KECCAK256 ADD PUSH2 0x1908 DUP6 DUP3 SLOAD PUSH2 0x2D5A JUMP JUMPDEST SWAP1 SSTORE DUP12 MSTORE MSTORE PUSH2 0x191E DUP7 PUSH1 0x40 DUP12 KECCAK256 ADD SWAP2 DUP3 SLOAD PUSH2 0x2D5A JUMP JUMPDEST SWAP1 SSTORE PUSH2 0x2CEA JUMP JUMPDEST PUSH2 0x1800 JUMP JUMPDEST POP POP POP POP POP PUSH2 0x2CEA JUMP JUMPDEST PUSH2 0x1940 DUP6 PUSH1 0x8 SLOAD PUSH2 0x2D5A JUMP JUMPDEST PUSH1 0x8 SSTORE SWAP1 DUP6 SWAP3 SWAP2 PUSH2 0x180D JUMP JUMPDEST POP DUP5 ISZERO ISZERO PUSH2 0x17F9 JUMP JUMPDEST SWAP2 PUSH2 0x198A PUSH2 0x1990 SWAP2 PUSH2 0x1966 DUP6 PUSH2 0x2AF3 JUMP JUMPDEST SWAP1 SLOAD PUSH1 0x3 SWAP2 DUP3 SHL SHR PUSH1 0x1 PUSH1 0x1 PUSH1 0xA0 SHL SUB AND DUP9 MSTORE PUSH1 0x20 MSTORE PUSH1 0x40 DUP8 KECCAK256 PUSH1 0x11 ADD SLOAD SWAP1 PUSH2 0x2D5A JUMP JUMPDEST SWAP3 PUSH2 0x2CEA JUMP JUMPDEST PUSH2 0x17E2 JUMP JUMPDEST SWAP1 POP CODESIZE PUSH2 0x17DD JUMP JUMPDEST PUSH1 0x40 MLOAD PUSH4 0x418826BF PUSH1 0xE1 SHL DUP2 MSTORE PUSH1 0x4 SWAP1 REVERT JUMPDEST POP CALLVALUE PUSH2 0x28D JUMPI DUP1 PUSH1 0x3 NOT CALLDATASIZE ADD SLT PUSH2 0x28D JUMPI PUSH1 0x20 PUSH1 0x6 SLOAD PUSH1 0x40 MLOAD SWAP1 DUP2 MSTORE RETURN JUMPDEST POP CALLVALUE PUSH2 0x28D JUMPI DUP1 PUSH1 0x3 NOT CALLDATASIZE ADD SLT PUSH2 0x28D JUMPI PUSH2 0x19E6 PUSH2 0x2C3A JUMP JUMPDEST PUSH1 0x0 DUP1 SLOAD PUSH1 0x1 PUSH1 0x1 PUSH1 0xA0 SHL SUB NOT DUP2 AND DUP3 SSTORE PUSH1 0x1 PUSH1 0x1 PUSH1 0xA0 SHL SUB AND PUSH1 0x0 DUP1 MLOAD PUSH1 0x20 PUSH2 0x3CCA DUP4 CODECOPY DUP2 MLOAD SWAP2 MSTORE DUP3 DUP1 LOG3 DUP1 RETURN JUMPDEST POP CALLVALUE PUSH2 0x28D JUMPI DUP1 PUSH1 0x3 NOT CALLDATASIZE ADD SLT PUSH2 0x28D JUMPI PUSH1 0x1 SLOAD PUSH1 0x40 MLOAD PUSH3 0x3144BD PUSH1 0xE3 SHL DUP2 MSTORE PUSH1 0x1 PUSH1 0x1 PUSH1 0xA0 SHL SUB SWAP1 SWAP2 AND SWAP2 PUSH1 0x20 DUP1 DUP4 PUSH1 0x4 DUP2 DUP8 GAS STATICCALL SWAP3 DUP4 ISZERO PUSH2 0x7F6 JUMPI DUP3 SWAP4 PUSH2 0x1ABC JUMPI JUMPDEST POP DUP1 PUSH1 0x4 SWAP5 PUSH1 0x40 MLOAD SWAP6 DUP7 DUP1 SWAP3 PUSH4 0x10F4CBA7 PUSH1 0xE2 SHL DUP3 MSTORE GAS STATICCALL SWAP2 DUP3 ISZERO PUSH2 0xBC5 JUMPI SWAP2 PUSH2 0x1A8C JUMPI JUMPDEST PUSH1 0x40 DUP1 SWAP5 POP MLOAD SWAP3 DUP4 MSTORE DUP3 ADD MSTORE RETURN JUMPDEST DUP1 SWAP2 POP DUP4 DUP2 RETURNDATASIZE DUP4 GT PUSH2 0x1AB5 JUMPI JUMPDEST PUSH2 0x1AA3 DUP2 DUP4 PUSH2 0x2B71 JUMP JUMPDEST DUP2 ADD SUB SLT PUSH2 0x896 JUMPI PUSH1 0x40 SWAP3 MLOAD SWAP1 PUSH2 0x1A7E JUMP JUMPDEST POP RETURNDATASIZE PUSH2 0x1A99 JUMP JUMPDEST SWAP4 SWAP3 POP DUP1 DUP5 DUP2 RETURNDATASIZE DUP4 GT PUSH2 0x1AE6 JUMPI JUMPDEST PUSH2 0x1AD4 DUP2 DUP4 PUSH2 0x2B71 JUMP JUMPDEST DUP2 ADD SUB SLT PUSH2 0x896 JUMPI SWAP3 MLOAD SWAP2 SWAP3 DUP1 PUSH2 0x1A59 JUMP JUMPDEST POP RETURNDATASIZE PUSH2 0x1ACA JUMP JUMPDEST POP CALLVALUE PUSH2 0x28D JUMPI PUSH1 0x20 CALLDATASIZE PUSH1 0x3 NOT ADD SLT PUSH2 0x28D JUMPI PUSH1 0x40 SWAP1 PUSH1 0x1 PUSH1 0x1 PUSH1 0xA0 SHL SUB PUSH2 0x1B12 PUSH2 0x2A3E JUMP JUMPDEST AND DUP2 MSTORE PUSH1 0x3 PUSH1 0x20 MSTORE KECCAK256 DUP1 DUP1 DUP1 DUP1 DUP1 DUP1 DUP1 DUP1 DUP1 DUP1 DUP1 DUP1 DUP1 SLOAD PUSH1 0x1 DUP3 ADD SLOAD PUSH2 0x100 MSTORE PUSH1 0x2 DUP3 ADD SLOAD PUSH2 0x260 MSTORE PUSH1 0x14 PUSH1 0x7 PUSH1 0x11 PUSH1 0xF PUSH1 0xD PUSH1 0xC PUSH1 0xB PUSH1 0xA PUSH1 0x9 PUSH1 0x8 PUSH1 0x6 PUSH1 0x5 DUP14 PUSH1 0x3 PUSH1 0x1 DUP1 PUSH1 0xA0 SHL SUB SWAP2 ADD SLOAD AND SWAP14 PUSH1 0x4 PUSH1 0x1 DUP1 PUSH1 0xA0 SHL SUB SWAP2 ADD SLOAD AND SWAP15 ADD SLOAD SWAP15 ADD SLOAD SWAP15 ADD SLOAD SWAP15 ADD SLOAD SWAP15 ADD SLOAD SWAP15 ADD SLOAD SWAP15 ADD SLOAD SWAP15 ADD SLOAD SWAP15 ADD SLOAD SWAP15 ADD SLOAD SWAP15 ADD SLOAD SWAP15 PUSH1 0x1 DUP1 PUSH1 0xA0 SHL SUB PUSH1 0x12 DUP3 ADD SLOAD AND PUSH2 0x2A0 MSTORE PUSH1 0x13 DUP2 ADD SLOAD PUSH1 0xC0 MSTORE ADD SLOAD PUSH2 0x120 MSTORE PUSH1 0x40 MLOAD DUP1 PUSH2 0x300 MSTORE PUSH1 0xFF DUP3 AND ISZERO ISZERO SWAP1 MSTORE PUSH1 0xFF DUP2 PUSH1 0x8 SHR AND ISZERO ISZERO PUSH1 0x20 PUSH2 0x300 MLOAD ADD MSTORE PUSH1 0x1 DUP1 PUSH1 0xA0 SHL SUB SWAP1 PUSH1 0x10 SHR AND PUSH1 0x40 PUSH2 0x300 MLOAD ADD MSTORE PUSH2 0x100 MLOAD PUSH1 0x60 PUSH2 0x300 MLOAD ADD MSTORE PUSH1 0x1 DUP1 PUSH1 0xA0 SHL SUB PUSH2 0x260 MLOAD AND PUSH1 0x80 PUSH2 0x300 MLOAD ADD MSTORE PUSH1 0xFF PUSH2 0x260 MLOAD PUSH1 0xA0 SHR AND ISZERO ISZERO PUSH1 0xA0 PUSH2 0x300 MLOAD ADD MSTORE PUSH1 0xC0 PUSH2 0x300 MLOAD ADD MSTORE PUSH1 0xE0 PUSH2 0x300 MLOAD ADD MSTORE PUSH2 0x100 PUSH2 0x300 MLOAD ADD MSTORE PUSH2 0x120 PUSH2 0x300 MLOAD ADD MSTORE PUSH2 0x140 PUSH2 0x300 MLOAD ADD MSTORE PUSH2 0x160 PUSH2 0x300 MLOAD ADD MSTORE PUSH2 0x180 PUSH2 0x300 MLOAD ADD MSTORE PUSH2 0x1A0 PUSH2 0x300 MLOAD ADD MSTORE PUSH2 0x1C0 PUSH2 0x300 MLOAD ADD MSTORE PUSH2 0x1E0 PUSH2 0x300 MLOAD ADD MSTORE PUSH2 0x200 PUSH2 0x300 MLOAD ADD MSTORE PUSH2 0x220 PUSH2 0x300 MLOAD ADD MSTORE PUSH2 0x240 PUSH2 0x300 MLOAD ADD MSTORE PUSH2 0x2A0 MLOAD PUSH2 0x260 PUSH2 0x300 MLOAD ADD MSTORE PUSH1 0xC0 MLOAD PUSH2 0x280 PUSH2 0x300 MLOAD ADD MSTORE PUSH2 0x120 MLOAD PUSH2 0x2A0 PUSH2 0x300 MLOAD ADD MSTORE PUSH2 0x2C0 PUSH2 0x300 MLOAD RETURN JUMPDEST POP CALLVALUE PUSH2 0x28D JUMPI PUSH1 0x20 DUP1 PUSH1 0x3 NOT CALLDATASIZE ADD SLT PUSH2 0x801 JUMPI PUSH1 0x4 CALLDATALOAD SWAP1 PUSH2 0x1CDA PUSH2 0x2CF9 JUMP JUMPDEST DUP2 ISZERO PUSH2 0xB2B JUMPI CALLER DUP4 MSTORE PUSH1 0x3 DUP2 MSTORE PUSH1 0x40 DUP4 KECCAK256 SWAP1 PUSH1 0xFF DUP3 SLOAD PUSH1 0x8 SHR AND ISZERO PUSH2 0x1FBF JUMPI PUSH1 0x8 DUP3 ADD DUP1 SLOAD DUP5 DUP2 LT PUSH2 0x1FAD JUMPI DUP5 PUSH2 0x1D10 SWAP2 PUSH2 0x2C9F JUMP JUMPDEST SWAP1 SSTORE PUSH1 0xA DUP3 ADD PUSH2 0x1D21 DUP5 DUP3 SLOAD PUSH2 0x2D5A JUMP JUMPDEST SWAP1 SSTORE PUSH1 0x40 MLOAD PUSH4 0x70A08231 PUSH1 0xE0 SHL DUP1 DUP3 MSTORE ADDRESS PUSH1 0x4 DUP4 ADD MSTORE PUSH1 0x1 PUSH1 0x1 PUSH1 0xA0 SHL SUB PUSH32 0x0 DUP2 AND SWAP3 SWAP2 SWAP1 DUP8 SWAP1 DUP6 DUP5 PUSH1 0x24 DUP2 DUP9 GAS STATICCALL SWAP4 DUP5 ISZERO PUSH2 0x7F6 JUMPI DUP3 SWAP5 PUSH2 0x1F7E JUMPI JUMPDEST POP PUSH1 0x1 SLOAD AND DUP1 EXTCODESIZE ISZERO PUSH2 0x801 JUMPI DUP2 SWAP1 PUSH1 0x24 PUSH1 0x40 MLOAD DUP1 SWAP5 DUP2 SWAP4 PUSH4 0x72424D99 PUSH1 0xE1 SHL DUP4 MSTORE DUP13 PUSH1 0x4 DUP5 ADD MSTORE GAS CALL DUP1 ISZERO PUSH2 0x1F73 JUMPI PUSH2 0x1F60 JUMPI JUMPDEST POP DUP4 SWAP1 PUSH1 0x24 PUSH1 0x40 MLOAD DUP1 SWAP6 DUP2 SWAP4 DUP3 MSTORE ADDRESS PUSH1 0x4 DUP4 ADD MSTORE GAS STATICCALL DUP1 ISZERO PUSH2 0x1F55 JUMPI DUP7 SWAP1 PUSH2 0x1F26 JUMPI JUMPDEST PUSH2 0x1DDE SWAP3 POP PUSH2 0x2C9F JUMP JUMPDEST SWAP2 PUSH1 0xA DUP4 MUL DUP4 DUP2 DIV PUSH1 0xA EQ DUP5 ISZERO OR ISZERO PUSH2 0x1F12 JUMPI PUSH32 0x8F7262D5A031D4D671E1FDB0CDDCD26D37185226F9E82F2F18877141AC1963EB SWAP4 SWAP3 SWAP2 PUSH2 0x1E26 PUSH1 0x64 PUSH2 0x1EE7 SWAP4 DIV DUP1 SWAP6 PUSH2 0x2C9F JUMP JUMPDEST SWAP3 PUSH1 0xF DUP3 ADD PUSH2 0x1E36 DUP7 DUP3 SLOAD PUSH2 0x2D5A JUMP JUMPDEST SWAP1 SSTORE PUSH1 0x10 DUP3 ADD PUSH2 0x1E47 DUP7 DUP3 SLOAD PUSH2 0x2D5A JUMP JUMPDEST SWAP1 SSTORE PUSH32 0x2B1D2104E84DD4DABB0CCA024171F783AB1E1C9DC1AF9D60A2361596653A99C4 PUSH1 0x40 MLOAD SWAP2 DUP7 DUP4 MSTORE CALLER SWAP3 LOG2 PUSH1 0xB DUP2 ADD DUP1 SLOAD SWAP2 DUP9 DUP4 ISZERO PUSH2 0x1F05 JUMPI POP PUSH1 0xD SWAP1 DUP4 DUP7 GT ISZERO PUSH2 0x1EFF JUMPI DUP4 JUMPDEST DUP1 SWAP4 PUSH2 0x1EB7 DUP3 PUSH2 0x1EA0 DUP2 DUP12 PUSH2 0x2C9F JUMP JUMPDEST SWAP8 PUSH1 0xC DUP7 ADD PUSH2 0x1EB0 DUP4 DUP3 SLOAD PUSH2 0x2D5A JUMP JUMPDEST SWAP1 SSTORE PUSH2 0x2C9F JUMP JUMPDEST SWAP1 SSTORE PUSH2 0x1EC8 PUSH1 0xE DUP4 ADD SWAP2 DUP3 SLOAD PUSH2 0x2D5A JUMP JUMPDEST SWAP1 SSTORE JUMPDEST ADD PUSH2 0x1ED7 DUP4 DUP3 SLOAD PUSH2 0x2D5A JUMP JUMPDEST SWAP1 SSTORE PUSH1 0x40 MLOAD SWAP5 DUP6 SWAP5 CALLER SWAP9 DUP7 PUSH2 0x2E39 JUMP JUMPDEST SUB SWAP1 LOG2 PUSH1 0x1 PUSH1 0x0 DUP1 MLOAD PUSH1 0x20 PUSH2 0x3D0A DUP4 CODECOPY DUP2 MLOAD SWAP2 MSTORE SSTORE DUP1 RETURN JUMPDEST DUP6 PUSH2 0x1E90 JUMP JUMPDEST SWAP2 POP SWAP2 POP PUSH1 0xD DUP5 SWAP3 PUSH2 0x1ECB JUMP JUMPDEST PUSH4 0x4E487B71 PUSH1 0xE0 SHL DUP7 MSTORE PUSH1 0x11 PUSH1 0x4 MSTORE PUSH1 0x24 DUP7 REVERT JUMPDEST POP DUP3 DUP3 DUP2 RETURNDATASIZE DUP4 GT PUSH2 0x1F4E JUMPI JUMPDEST PUSH2 0x1F3C DUP2 DUP4 PUSH2 0x2B71 JUMP JUMPDEST DUP2 ADD SUB SLT PUSH2 0x896 JUMPI PUSH2 0x1DDE SWAP2 MLOAD PUSH2 0x1DD4 JUMP JUMPDEST POP RETURNDATASIZE PUSH2 0x1F32 JUMP JUMPDEST PUSH1 0x40 MLOAD RETURNDATASIZE DUP9 DUP3 RETURNDATACOPY RETURNDATASIZE SWAP1 REVERT JUMPDEST SWAP7 PUSH2 0x1F6C DUP6 SWAP3 SWAP9 PUSH2 0x2B5E JUMP JUMPDEST SWAP7 SWAP1 PUSH2 0x1DB1 JUMP JUMPDEST PUSH1 0x40 MLOAD RETURNDATASIZE DUP11 DUP3 RETURNDATACOPY RETURNDATASIZE SWAP1 REVERT JUMPDEST SWAP1 SWAP4 POP DUP6 DUP2 DUP2 RETURNDATASIZE DUP4 GT PUSH2 0x1FA6 JUMPI JUMPDEST PUSH2 0x1F96 DUP2 DUP4 PUSH2 0x2B71 JUMP JUMPDEST DUP2 ADD SUB SLT PUSH2 0x801 JUMPI MLOAD SWAP3 CODESIZE PUSH2 0x1D7D JUMP JUMPDEST POP RETURNDATASIZE PUSH2 0x1F8C JUMP JUMPDEST PUSH1 0x40 MLOAD PUSH4 0x208975E7 PUSH1 0xE2 SHL DUP2 MSTORE PUSH1 0x4 SWAP1 REVERT JUMPDEST PUSH1 0x40 MLOAD PUSH4 0xABA47339 PUSH1 0xE0 SHL DUP2 MSTORE PUSH1 0x4 SWAP1 REVERT JUMPDEST POP CALLVALUE PUSH2 0x28D JUMPI PUSH1 0x80 CALLDATASIZE PUSH1 0x3 NOT ADD SLT PUSH2 0x28D JUMPI PUSH1 0x4 CALLDATALOAD PUSH1 0x1 PUSH1 0x1 PUSH1 0x40 SHL SUB DUP2 GT PUSH2 0x801 JUMPI PUSH2 0x2002 SWAP1 CALLDATASIZE SWAP1 PUSH1 0x4 ADD PUSH2 0x2AC6 JUMP JUMPDEST SWAP2 SWAP1 PUSH1 0x24 CALLDATALOAD PUSH1 0x1 PUSH1 0x1 PUSH1 0x40 SHL SUB DUP2 GT PUSH2 0x7F2 JUMPI PUSH2 0x2023 SWAP1 CALLDATASIZE SWAP1 PUSH1 0x4 ADD PUSH2 0x2AC6 JUMP JUMPDEST PUSH1 0x44 CALLDATALOAD PUSH1 0x1 PUSH1 0x1 PUSH1 0x40 SHL SUB DUP2 GT PUSH2 0x845 JUMPI PUSH2 0x2042 SWAP1 CALLDATASIZE SWAP1 PUSH1 0x4 ADD PUSH2 0x2AC6 JUMP JUMPDEST SWAP1 SWAP2 PUSH1 0x64 CALLDATALOAD PUSH1 0x1 PUSH1 0x1 PUSH1 0x40 SHL SUB DUP2 GT PUSH2 0x2598 JUMPI PUSH2 0x2063 SWAP1 CALLDATASIZE SWAP1 PUSH1 0x4 ADD PUSH2 0x2AC6 JUMP JUMPDEST SWAP5 SWAP1 SWAP8 CALLER DUP9 MSTORE PUSH1 0x3 PUSH1 0x20 MSTORE PUSH1 0xFF PUSH1 0x40 DUP10 KECCAK256 SLOAD AND ISZERO PUSH2 0x2562 JUMPI CALLER DUP9 MSTORE PUSH1 0x3 PUSH1 0x20 MSTORE PUSH1 0x40 DUP9 KECCAK256 SWAP7 PUSH1 0x1 PUSH1 0x1 PUSH1 0x40 SHL SUB DUP3 GT PUSH2 0x254E JUMPI DUP2 SWAP1 PUSH2 0x20A5 PUSH1 0x15 DUP11 ADD SLOAD PUSH2 0x2B24 JUMP JUMPDEST PUSH1 0x1F DUP2 GT PUSH2 0x24FE JUMPI JUMPDEST POP DUP10 SWAP1 PUSH1 0x1F DUP4 GT PUSH1 0x1 EQ PUSH2 0x2492 JUMPI DUP11 SWAP3 PUSH2 0x2487 JUMPI JUMPDEST POP POP DUP2 PUSH1 0x1 SHL SWAP2 PUSH1 0x0 NOT SWAP1 PUSH1 0x3 SHL SHR NOT AND OR PUSH1 0x15 DUP8 ADD SSTORE JUMPDEST PUSH1 0x1 PUSH1 0x1 PUSH1 0x40 SHL SUB DUP3 GT PUSH2 0x2473 JUMPI DUP2 SWAP1 PUSH2 0x20F8 PUSH1 0x16 DUP9 ADD SLOAD PUSH2 0x2B24 JUMP JUMPDEST PUSH1 0x1F DUP2 GT PUSH2 0x2420 JUMPI JUMPDEST POP DUP8 SWAP1 PUSH1 0x1F DUP4 GT PUSH1 0x1 EQ PUSH2 0x23B4 JUMPI DUP9 SWAP3 PUSH2 0x23A9 JUMPI JUMPDEST POP POP DUP2 PUSH1 0x1 SHL SWAP2 PUSH1 0x0 NOT SWAP1 PUSH1 0x3 SHL SHR NOT AND OR PUSH1 0x16 DUP6 ADD SSTORE JUMPDEST PUSH1 0x17 DUP5 ADD SWAP2 PUSH1 0x1 PUSH1 0x1 PUSH1 0x40 SHL SUB DUP3 GT PUSH2 0x2395 JUMPI DUP2 SWAP1 PUSH2 0x214D DUP5 SLOAD PUSH2 0x2B24 JUMP JUMPDEST PUSH1 0x1F DUP2 GT PUSH2 0x2345 JUMPI JUMPDEST POP DUP7 SWAP1 PUSH1 0x1F DUP4 GT PUSH1 0x1 EQ PUSH2 0x22DF JUMPI DUP8 SWAP3 PUSH2 0x22D4 JUMPI JUMPDEST POP POP DUP2 PUSH1 0x1 SHL SWAP2 PUSH1 0x0 NOT SWAP1 PUSH1 0x3 SHL SHR NOT AND OR SWAP1 SSTORE JUMPDEST PUSH1 0x18 DUP3 ADD SWAP1 PUSH1 0x1 PUSH1 0x1 PUSH1 0x40 SHL SUB DUP2 GT PUSH2 0x22C0 JUMPI PUSH2 0x219D DUP3 SLOAD PUSH2 0x2B24 JUMP JUMPDEST PUSH1 0x1F DUP2 GT PUSH2 0x227B JUMPI JUMPDEST POP DUP4 PUSH1 0x1F DUP3 GT PUSH1 0x1 EQ PUSH2 0x2214 JUMPI DUP2 SWAP1 DUP6 SWAP7 PUSH1 0x19 SWAP7 SWAP3 PUSH2 0x2209 JUMPI JUMPDEST POP POP DUP2 PUSH1 0x1 SHL SWAP2 PUSH1 0x0 NOT SWAP1 PUSH1 0x3 SHL SHR NOT AND OR SWAP1 SSTORE JUMPDEST ADD DUP1 SLOAD PUSH1 0xFF NOT AND PUSH1 0x1 OR SWAP1 SSTORE CALLER PUSH32 0xBE4EC58A792F909E102EE3D745D0C3B34A4D437A54D903C4DB098D31C556422F DUP3 DUP1 LOG2 DUP1 RETURN JUMPDEST ADD CALLDATALOAD SWAP1 POP CODESIZE DUP1 PUSH2 0x21C0 JUMP JUMPDEST DUP3 DUP6 MSTORE PUSH1 0x20 DUP6 KECCAK256 SWAP1 PUSH1 0x1F NOT DUP4 AND DUP7 JUMPDEST DUP2 DUP2 LT PUSH2 0x2263 JUMPI POP SWAP7 DUP4 SWAP3 SWAP2 PUSH1 0x1 SWAP5 PUSH1 0x19 SWAP9 SWAP10 LT PUSH2 0x2249 JUMPI JUMPDEST POP POP POP DUP2 SHL ADD SWAP1 SSTORE PUSH2 0x21D5 JUMP JUMPDEST ADD CALLDATALOAD PUSH1 0x0 NOT PUSH1 0x3 DUP5 SWAP1 SHL PUSH1 0xF8 AND SHR NOT AND SWAP1 SSTORE CODESIZE DUP1 DUP1 PUSH2 0x223C JUMP JUMPDEST SWAP2 SWAP3 PUSH1 0x20 PUSH1 0x1 DUP2 SWAP3 DUP7 DUP13 ADD CALLDATALOAD DUP2 SSTORE ADD SWAP5 ADD SWAP3 ADD PUSH2 0x2223 JUMP JUMPDEST DUP3 DUP6 MSTORE PUSH1 0x20 DUP6 KECCAK256 PUSH1 0x1F DUP4 ADD PUSH1 0x5 SHR DUP2 ADD SWAP2 PUSH1 0x20 DUP5 LT PUSH2 0x22B6 JUMPI JUMPDEST PUSH1 0x1F ADD PUSH1 0x5 SHR ADD SWAP1 JUMPDEST DUP2 DUP2 LT PUSH2 0x22AB JUMPI POP PUSH2 0x21A6 JUMP JUMPDEST DUP6 DUP2 SSTORE PUSH1 0x1 ADD PUSH2 0x229E JUMP JUMPDEST SWAP1 SWAP2 POP DUP2 SWAP1 PUSH2 0x2295 JUMP JUMPDEST PUSH4 0x4E487B71 PUSH1 0xE0 SHL DUP5 MSTORE PUSH1 0x41 PUSH1 0x4 MSTORE PUSH1 0x24 DUP5 REVERT JUMPDEST ADD CALLDATALOAD SWAP1 POP CODESIZE DUP1 PUSH2 0x216B JUMP JUMPDEST DUP5 DUP9 MSTORE PUSH1 0x20 DUP9 KECCAK256 SWAP3 POP SWAP1 PUSH1 0x1F NOT DUP5 AND DUP9 JUMPDEST DUP2 DUP2 LT PUSH2 0x232D JUMPI POP SWAP1 DUP5 PUSH1 0x1 SWAP6 SWAP5 SWAP4 SWAP3 LT PUSH2 0x2313 JUMPI JUMPDEST POP POP POP DUP2 SHL ADD SWAP1 SSTORE PUSH2 0x2180 JUMP JUMPDEST ADD CALLDATALOAD PUSH1 0x0 NOT PUSH1 0x3 DUP5 SWAP1 SHL PUSH1 0xF8 AND SHR NOT AND SWAP1 SSTORE CODESIZE DUP1 DUP1 PUSH2 0x2306 JUMP JUMPDEST SWAP2 SWAP4 PUSH1 0x20 PUSH1 0x1 DUP2 SWAP3 DUP8 DUP8 ADD CALLDATALOAD DUP2 SSTORE ADD SWAP6 ADD SWAP3 ADD PUSH2 0x22F0 JUMP JUMPDEST SWAP1 SWAP2 POP DUP4 DUP8 MSTORE PUSH1 0x20 DUP8 KECCAK256 PUSH1 0x1F DUP5 ADD PUSH1 0x5 SHR DUP2 ADD SWAP2 PUSH1 0x20 DUP6 LT PUSH2 0x238B JUMPI JUMPDEST SWAP1 PUSH1 0x1F DUP6 SWAP5 SWAP4 SWAP3 ADD PUSH1 0x5 SHR ADD SWAP1 JUMPDEST DUP2 DUP2 LT PUSH2 0x237D JUMPI POP PUSH2 0x2156 JUMP JUMPDEST DUP9 DUP2 SSTORE DUP5 SWAP4 POP PUSH1 0x1 ADD PUSH2 0x2370 JUMP JUMPDEST SWAP1 SWAP2 POP DUP2 SWAP1 PUSH2 0x2362 JUMP JUMPDEST PUSH4 0x4E487B71 PUSH1 0xE0 SHL DUP7 MSTORE PUSH1 0x41 PUSH1 0x4 MSTORE PUSH1 0x24 DUP7 REVERT JUMPDEST ADD CALLDATALOAD SWAP1 POP CODESIZE DUP1 PUSH2 0x2116 JUMP JUMPDEST PUSH1 0x16 DUP9 ADD DUP10 MSTORE PUSH1 0x20 DUP10 KECCAK256 SWAP3 POP SWAP1 PUSH1 0x1F NOT DUP5 AND DUP10 JUMPDEST DUP2 DUP2 LT PUSH2 0x2408 JUMPI POP SWAP1 DUP5 PUSH1 0x1 SWAP6 SWAP5 SWAP4 SWAP3 LT PUSH2 0x23EE JUMPI JUMPDEST POP POP POP DUP2 SHL ADD PUSH1 0x16 DUP6 ADD SSTORE PUSH2 0x212E JUMP JUMPDEST ADD CALLDATALOAD PUSH1 0x0 NOT PUSH1 0x3 DUP5 SWAP1 SHL PUSH1 0xF8 AND SHR NOT AND SWAP1 SSTORE CODESIZE DUP1 DUP1 PUSH2 0x23DE JUMP JUMPDEST SWAP2 SWAP4 PUSH1 0x20 PUSH1 0x1 DUP2 SWAP3 DUP8 DUP8 ADD CALLDATALOAD DUP2 SSTORE ADD SWAP6 ADD SWAP3 ADD PUSH2 0x23C8 JUMP JUMPDEST SWAP1 SWAP2 POP PUSH1 0x16 DUP8 ADD DUP9 MSTORE PUSH1 0x20 DUP9 KECCAK256 PUSH1 0x1F DUP5 ADD PUSH1 0x5 SHR DUP2 ADD SWAP2 PUSH1 0x20 DUP6 LT PUSH2 0x2469 JUMPI JUMPDEST SWAP1 PUSH1 0x1F DUP6 SWAP5 SWAP4 SWAP3 ADD PUSH1 0x5 SHR ADD SWAP1 JUMPDEST DUP2 DUP2 LT PUSH2 0x245B JUMPI POP PUSH2 0x2101 JUMP JUMPDEST DUP10 DUP2 SSTORE DUP5 SWAP4 POP PUSH1 0x1 ADD PUSH2 0x244E JUMP JUMPDEST SWAP1 SWAP2 POP DUP2 SWAP1 PUSH2 0x2440 JUMP JUMPDEST PUSH4 0x4E487B71 PUSH1 0xE0 SHL DUP8 MSTORE PUSH1 0x41 PUSH1 0x4 MSTORE PUSH1 0x24 DUP8 REVERT JUMPDEST ADD CALLDATALOAD SWAP1 POP CODESIZE DUP1 PUSH2 0x20C3 JUMP JUMPDEST PUSH1 0x15 DUP11 ADD DUP12 MSTORE PUSH1 0x20 DUP12 KECCAK256 SWAP3 POP SWAP1 PUSH1 0x1F NOT DUP5 AND DUP12 JUMPDEST DUP2 DUP2 LT PUSH2 0x24E6 JUMPI POP SWAP1 DUP5 PUSH1 0x1 SWAP6 SWAP5 SWAP4 SWAP3 LT PUSH2 0x24CC JUMPI JUMPDEST POP POP POP DUP2 SHL ADD PUSH1 0x15 DUP8 ADD SSTORE PUSH2 0x20DB JUMP JUMPDEST ADD CALLDATALOAD PUSH1 0x0 NOT PUSH1 0x3 DUP5 SWAP1 SHL PUSH1 0xF8 AND SHR NOT AND SWAP1 SSTORE CODESIZE DUP1 DUP1 PUSH2 0x24BC JUMP JUMPDEST SWAP2 SWAP4 PUSH1 0x20 PUSH1 0x1 DUP2 SWAP3 DUP8 DUP8 ADD CALLDATALOAD DUP2 SSTORE ADD SWAP6 ADD SWAP3 ADD PUSH2 0x24A6 JUMP JUMPDEST SWAP1 SWAP2 POP PUSH1 0x15 DUP10 ADD DUP11 MSTORE PUSH1 0x20 DUP11 KECCAK256 PUSH1 0x1F DUP5 ADD PUSH1 0x5 SHR DUP2 ADD PUSH1 0x20 DUP6 LT PUSH2 0x2547 JUMPI JUMPDEST SWAP1 DUP5 SWAP4 SWAP3 SWAP2 JUMPDEST PUSH1 0x1F DUP4 ADD PUSH1 0x5 SHR DUP3 ADD DUP2 LT PUSH2 0x2539 JUMPI POP POP PUSH2 0x20AE JUMP JUMPDEST DUP13 DUP2 SSTORE DUP6 SWAP5 POP PUSH1 0x1 ADD PUSH2 0x2523 JUMP JUMPDEST POP DUP1 PUSH2 0x251D JUMP JUMPDEST PUSH4 0x4E487B71 PUSH1 0xE0 SHL DUP10 MSTORE PUSH1 0x41 PUSH1 0x4 MSTORE PUSH1 0x24 DUP10 REVERT JUMPDEST PUSH1 0x40 MLOAD PUSH3 0x461BCD PUSH1 0xE5 SHL DUP2 MSTORE PUSH1 0x20 PUSH1 0x4 DUP3 ADD MSTORE PUSH1 0xE PUSH1 0x24 DUP3 ADD MSTORE PUSH14 0x139BDD081C9959DA5CDD195C9959 PUSH1 0x92 SHL PUSH1 0x44 DUP3 ADD MSTORE PUSH1 0x64 SWAP1 REVERT JUMPDEST DUP7 DUP1 REVERT JUMPDEST POP CALLVALUE PUSH2 0x28D JUMPI DUP1 PUSH1 0x3 NOT CALLDATASIZE ADD SLT PUSH2 0x28D JUMPI PUSH1 0x60 PUSH1 0x6 SLOAD PUSH1 0x7 SLOAD PUSH1 0x8 SLOAD SWAP1 PUSH1 0x40 MLOAD SWAP3 DUP4 MSTORE PUSH1 0x20 DUP4 ADD MSTORE PUSH1 0x40 DUP3 ADD MSTORE RETURN JUMPDEST POP CALLVALUE PUSH2 0x28D JUMPI PUSH1 0x20 CALLDATASIZE PUSH1 0x3 NOT ADD SLT PUSH2 0x28D JUMPI PUSH1 0x20 PUSH2 0x5F8 PUSH1 0x4 CALLDATALOAD PUSH2 0x3B09 JUMP JUMPDEST POP CALLVALUE PUSH2 0x28D JUMPI PUSH1 0x20 CALLDATASIZE PUSH1 0x3 NOT ADD SLT PUSH2 0x28D JUMPI PUSH1 0x20 PUSH2 0x5F8 PUSH1 0x4 CALLDATALOAD PUSH2 0x3BCE JUMP JUMPDEST POP CALLVALUE PUSH2 0x28D JUMPI DUP1 PUSH1 0x3 NOT CALLDATASIZE ADD SLT PUSH2 0x28D JUMPI PUSH1 0x20 PUSH1 0x4 SLOAD PUSH1 0x40 MLOAD SWAP1 DUP2 MSTORE RETURN JUMPDEST POP CALLVALUE PUSH2 0x28D JUMPI PUSH2 0x264F PUSH2 0x2639 CALLDATASIZE PUSH2 0x2A94 JUMP JUMPDEST SWAP1 PUSH2 0x2642 PUSH2 0x2C3A JUMP JUMPDEST PUSH2 0x264A PUSH2 0x2CF9 JUMP JUMPDEST PUSH2 0x37CF JUMP JUMPDEST PUSH1 0x1 PUSH1 0x0 DUP1 MLOAD PUSH1 0x20 PUSH2 0x3D0A DUP4 CODECOPY DUP2 MLOAD SWAP2 MSTORE SSTORE DUP1 RETURN JUMPDEST POP CALLVALUE PUSH2 0x28D JUMPI PUSH1 0x40 CALLDATASIZE PUSH1 0x3 NOT ADD SLT PUSH2 0x28D JUMPI PUSH2 0x267E PUSH2 0x2A3E JUMP JUMPDEST PUSH1 0x24 CALLDATALOAD SWAP1 PUSH2 0x268A PUSH2 0x2C3A JUMP JUMPDEST PUSH1 0x1 PUSH1 0x1 PUSH1 0xA0 SHL SUB AND SWAP1 DUP2 ISZERO PUSH2 0x5C7 JUMPI PUSH1 0x8 SLOAD DUP2 DUP2 LT PUSH2 0x26EE JUMPI DUP2 PUSH2 0x26D2 PUSH32 0xBA443E8671971C36CDEB74F87321041DAFF421230CBC5E36CB835269ED1D8B7E SWAP4 PUSH1 0x20 SWAP4 PUSH2 0x2C9F JUMP JUMPDEST PUSH1 0x8 SSTORE DUP4 DUP6 MSTORE PUSH1 0x3 DUP3 MSTORE PUSH1 0x8 PUSH1 0x40 DUP7 KECCAK256 ADD PUSH2 0x564 DUP3 DUP3 SLOAD PUSH2 0x2D5A JUMP JUMPDEST PUSH1 0x40 MLOAD PUSH3 0x461BCD PUSH1 0xE5 SHL DUP2 MSTORE PUSH1 0x20 PUSH1 0x4 DUP3 ADD MSTORE PUSH1 0x12 PUSH1 0x24 DUP3 ADD MSTORE PUSH18 0x115E18D959591CC818591B5A5B881C1BDBDB PUSH1 0x72 SHL PUSH1 0x44 DUP3 ADD MSTORE PUSH1 0x64 SWAP1 REVERT JUMPDEST POP CALLVALUE PUSH2 0x28D JUMPI PUSH1 0x20 CALLDATASIZE PUSH1 0x3 NOT ADD SLT PUSH2 0x28D JUMPI PUSH1 0x20 SWAP1 PUSH1 0x40 SWAP1 PUSH1 0x1 PUSH1 0x1 PUSH1 0xA0 SHL SUB PUSH2 0x2750 PUSH2 0x2A3E JUMP JUMPDEST AND DUP2 MSTORE PUSH1 0xC DUP4 MSTORE KECCAK256 SLOAD PUSH1 0x40 MLOAD SWAP1 DUP2 MSTORE RETURN JUMPDEST POP CALLVALUE PUSH2 0x28D JUMPI DUP1 PUSH1 0x3 NOT CALLDATASIZE ADD SLT PUSH2 0x28D JUMPI PUSH1 0x1 SLOAD PUSH1 0x40 MLOAD PUSH1 0x1 PUSH1 0x1 PUSH1 0xA0 SHL SUB SWAP1 SWAP2 AND DUP2 MSTORE PUSH1 0x20 SWAP1 RETURN JUMPDEST POP CALLVALUE PUSH2 0x28D JUMPI PUSH1 0x20 CALLDATASIZE PUSH1 0x3 NOT ADD SLT PUSH2 0x28D JUMPI PUSH2 0x27A4 PUSH2 0x2A3E JUMP JUMPDEST PUSH2 0x27AC PUSH2 0x2C3A JUMP JUMPDEST PUSH1 0x1 PUSH1 0x1 PUSH1 0xA0 SHL SUB AND DUP1 ISZERO PUSH2 0x5C7 JUMPI PUSH1 0x1 DUP1 SLOAD PUSH1 0x1 PUSH1 0x1 PUSH1 0xA0 SHL SUB NOT AND DUP3 OR SWAP1 SSTORE PUSH1 0x40 MLOAD SWAP1 DUP2 MSTORE PUSH32 0xFA7BD61554593F4E69CDFFD255D3FE947352B02C7D3EC68059384934E4CFD47C SWAP1 PUSH1 0x20 SWAP1 LOG1 DUP1 RETURN JUMPDEST POP CALLVALUE PUSH2 0x28D JUMPI PUSH1 0x20 CALLDATASIZE PUSH1 0x3 NOT ADD SLT PUSH2 0x28D JUMPI PUSH2 0x2886 SWAP1 PUSH1 0x40 SWAP1 PUSH1 0x1 PUSH1 0x1 PUSH1 0xA0 SHL SUB PUSH2 0x2825 PUSH2 0x2A3E JUMP JUMPDEST AND DUP2 MSTORE PUSH1 0x3 PUSH1 0x20 MSTORE KECCAK256 PUSH1 0xFF PUSH1 0x19 DUP3 ADD SLOAD AND PUSH2 0x28B0 PUSH2 0x2845 PUSH1 0x15 DUP5 ADD PUSH2 0x2B94 JUMP JUMPDEST SWAP3 PUSH2 0x28A2 PUSH2 0x2855 PUSH1 0x16 DUP4 ADD PUSH2 0x2B94 JUMP JUMPDEST SWAP2 PUSH2 0x2894 PUSH2 0x2871 PUSH1 0x18 PUSH2 0x286A PUSH1 0x17 DUP6 ADD PUSH2 0x2B94 JUMP JUMPDEST SWAP4 ADD PUSH2 0x2B94 JUMP JUMPDEST SWAP4 PUSH1 0x40 MLOAD SWAP9 DUP10 SWAP9 PUSH1 0xA0 DUP11 MSTORE PUSH1 0xA0 DUP11 ADD SWAP1 PUSH2 0x2A54 JUMP JUMPDEST SWAP1 DUP9 DUP3 SUB PUSH1 0x20 DUP11 ADD MSTORE PUSH2 0x2A54 JUMP JUMPDEST SWAP1 DUP7 DUP3 SUB PUSH1 0x40 DUP9 ADD MSTORE PUSH2 0x2A54 JUMP JUMPDEST SWAP1 DUP5 DUP3 SUB PUSH1 0x60 DUP7 ADD MSTORE PUSH2 0x2A54 JUMP JUMPDEST SWAP1 ISZERO ISZERO PUSH1 0x80 DUP4 ADD MSTORE SUB SWAP1 RETURN JUMPDEST POP CALLVALUE PUSH2 0x28D JUMPI DUP1 PUSH1 0x3 NOT CALLDATASIZE ADD SLT PUSH2 0x28D JUMPI PUSH2 0x28D5 PUSH2 0x2CF9 JUMP JUMPDEST CALLER DUP2 MSTORE PUSH1 0x3 PUSH1 0x20 MSTORE PUSH1 0x40 DUP2 KECCAK256 SLOAD PUSH1 0xFF DUP2 AND ISZERO PUSH2 0x1FBF JUMPI PUSH1 0x8 SHR PUSH1 0xFF AND PUSH2 0x29A6 JUMPI PUSH1 0x40 MLOAD PUSH4 0x23B872DD PUSH1 0xE0 SHL DUP2 MSTORE CALLER PUSH1 0x4 DUP3 ADD MSTORE ADDRESS PUSH1 0x24 DUP3 ADD MSTORE PUSH9 0x70C1CC73B00C80000 PUSH1 0x44 DUP3 ADD MSTORE PUSH1 0x20 DUP2 PUSH1 0x64 DUP2 DUP6 PUSH32 0x0 PUSH1 0x1 PUSH1 0x1 PUSH1 0xA0 SHL SUB AND GAS CALL SWAP1 DUP2 ISZERO PUSH2 0x7F6 JUMPI DUP3 SWAP2 PUSH2 0x296D JUMPI JUMPDEST POP ISZERO PUSH2 0x805 JUMPI PUSH2 0x264F CALLER PUSH2 0x2E5D JUMP JUMPDEST SWAP1 POP PUSH1 0x20 DUP2 RETURNDATASIZE DUP3 GT PUSH2 0x299E JUMPI JUMPDEST DUP2 PUSH2 0x2987 PUSH1 0x20 SWAP4 DUP4 PUSH2 0x2B71 JUMP JUMPDEST DUP2 ADD SUB SLT PUSH2 0x801 JUMPI PUSH2 0x2998 SWAP1 PUSH2 0x2CC2 JUMP JUMPDEST CODESIZE PUSH2 0x295E JUMP JUMPDEST RETURNDATASIZE SWAP2 POP PUSH2 0x297A JUMP JUMPDEST PUSH1 0x40 MLOAD PUSH4 0x7CDF3051 PUSH1 0xE1 SHL DUP2 MSTORE PUSH1 0x4 SWAP1 REVERT JUMPDEST POP CALLVALUE PUSH2 0x28D JUMPI PUSH1 0x20 CALLDATASIZE PUSH1 0x3 NOT ADD SLT PUSH2 0x28D JUMPI PUSH1 0x40 SWAP1 DUP2 SWAP1 PUSH1 0x1 PUSH1 0x1 PUSH1 0xA0 SHL SUB PUSH2 0x29DF PUSH2 0x2A3E JUMP JUMPDEST AND DUP2 MSTORE PUSH1 0x3 PUSH1 0x20 MSTORE KECCAK256 PUSH1 0x10 PUSH1 0xF DUP3 ADD SLOAD SWAP2 ADD SLOAD DUP3 MLOAD SWAP2 DUP3 MSTORE PUSH1 0x20 DUP3 ADD MSTORE RETURN JUMPDEST POP CALLVALUE PUSH2 0x28D JUMPI DUP1 PUSH1 0x3 NOT CALLDATASIZE ADD SLT PUSH2 0x28D JUMPI PUSH1 0x20 PUSH1 0x40 MLOAD PUSH9 0x70C1CC73B00C80000 DUP2 MSTORE RETURN JUMPDEST SWAP1 POP CALLVALUE PUSH2 0x801 JUMPI DUP2 PUSH1 0x3 NOT CALLDATASIZE ADD SLT PUSH2 0x801 JUMPI PUSH1 0x20 SWAP1 PUSH1 0x7 SLOAD DUP2 MSTORE RETURN JUMPDEST PUSH1 0x4 CALLDATALOAD SWAP1 PUSH1 0x1 PUSH1 0x1 PUSH1 0xA0 SHL SUB DUP3 AND DUP3 SUB PUSH2 0x896 JUMPI JUMP JUMPDEST SWAP2 SWAP1 DUP3 MLOAD SWAP3 DUP4 DUP3 MSTORE PUSH1 0x0 JUMPDEST DUP5 DUP2 LT PUSH2 0x2A80 JUMPI POP POP DUP3 PUSH1 0x0 PUSH1 0x20 DUP1 SWAP5 SWAP6 DUP5 ADD ADD MSTORE PUSH1 0x1F DUP1 NOT SWAP2 ADD AND ADD ADD SWAP1 JUMP JUMPDEST PUSH1 0x20 DUP2 DUP4 ADD DUP2 ADD MLOAD DUP5 DUP4 ADD DUP3 ADD MSTORE ADD PUSH2 0x2A5F JUMP JUMPDEST PUSH1 0x40 SWAP1 PUSH1 0x3 NOT ADD SLT PUSH2 0x896 JUMPI PUSH1 0x4 CALLDATALOAD SWAP1 PUSH1 0x24 CALLDATALOAD SWAP1 JUMP JUMPDEST CALLVALUE PUSH2 0x896 JUMPI PUSH1 0x0 CALLDATASIZE PUSH1 0x3 NOT ADD SLT PUSH2 0x896 JUMPI PUSH1 0x20 PUSH1 0x40 MLOAD PUSH1 0x1E DUP2 MSTORE RETURN JUMPDEST SWAP2 DUP2 PUSH1 0x1F DUP5 ADD SLT ISZERO PUSH2 0x896 JUMPI DUP3 CALLDATALOAD SWAP2 PUSH1 0x1 PUSH1 0x1 PUSH1 0x40 SHL SUB DUP4 GT PUSH2 0x896 JUMPI PUSH1 0x20 DUP4 DUP2 DUP7 ADD SWAP6 ADD ADD GT PUSH2 0x896 JUMPI JUMP JUMPDEST PUSH1 0x4 SLOAD DUP2 LT ISZERO PUSH2 0x2B0E JUMPI PUSH1 0x4 PUSH1 0x0 MSTORE PUSH1 0x20 PUSH1 0x0 KECCAK256 ADD SWAP1 PUSH1 0x0 SWAP1 JUMP JUMPDEST PUSH4 0x4E487B71 PUSH1 0xE0 SHL PUSH1 0x0 MSTORE PUSH1 0x32 PUSH1 0x4 MSTORE PUSH1 0x24 PUSH1 0x0 REVERT JUMPDEST SWAP1 PUSH1 0x1 DUP3 DUP2 SHR SWAP3 AND DUP1 ISZERO PUSH2 0x2B54 JUMPI JUMPDEST PUSH1 0x20 DUP4 LT EQ PUSH2 0x2B3E JUMPI JUMP JUMPDEST PUSH4 0x4E487B71 PUSH1 0xE0 SHL PUSH1 0x0 MSTORE PUSH1 0x22 PUSH1 0x4 MSTORE PUSH1 0x24 PUSH1 0x0 REVERT JUMPDEST SWAP2 PUSH1 0x7F AND SWAP2 PUSH2 0x2B33 JUMP JUMPDEST PUSH1 0x1 PUSH1 0x1 PUSH1 0x40 SHL SUB DUP2 GT PUSH2 0xEC0 JUMPI PUSH1 0x40 MSTORE JUMP JUMPDEST PUSH1 0x1F SWAP1 SWAP2 ADD PUSH1 0x1F NOT AND DUP2 ADD SWAP1 PUSH1 0x1 PUSH1 0x1 PUSH1 0x40 SHL SUB DUP3 GT SWAP1 DUP3 LT OR PUSH2 0xEC0 JUMPI PUSH1 0x40 MSTORE JUMP JUMPDEST SWAP1 PUSH1 0x40 MLOAD SWAP2 DUP3 PUSH1 0x0 DUP3 SLOAD SWAP3 PUSH2 0x2BA8 DUP5 PUSH2 0x2B24 JUMP JUMPDEST SWAP1 DUP2 DUP5 MSTORE PUSH1 0x1 SWAP5 DUP6 DUP2 AND SWAP1 DUP2 PUSH1 0x0 EQ PUSH2 0x2C17 JUMPI POP PUSH1 0x1 EQ PUSH2 0x2BD4 JUMPI JUMPDEST POP POP PUSH2 0x2BD2 SWAP3 POP SUB DUP4 PUSH2 0x2B71 JUMP JUMPDEST JUMP JUMPDEST SWAP1 SWAP4 SWAP2 POP PUSH1 0x0 MSTORE PUSH1 0x20 SWAP1 DUP2 PUSH1 0x0 KECCAK256 SWAP4 PUSH1 0x0 SWAP2 JUMPDEST DUP2 DUP4 LT PUSH2 0x2BFF JUMPI POP POP PUSH2 0x2BD2 SWAP4 POP DUP3 ADD ADD CODESIZE DUP1 PUSH2 0x2BC4 JUMP JUMPDEST DUP6 SLOAD DUP9 DUP5 ADD DUP6 ADD MSTORE SWAP5 DUP6 ADD SWAP5 DUP8 SWAP5 POP SWAP2 DUP4 ADD SWAP2 PUSH2 0x2BE7 JUMP JUMPDEST SWAP2 POP POP PUSH2 0x2BD2 SWAP5 POP PUSH1 0x20 SWAP3 POP PUSH1 0xFF NOT AND DUP3 DUP5 ADD MSTORE ISZERO ISZERO PUSH1 0x5 SHL DUP3 ADD ADD CODESIZE DUP1 PUSH2 0x2BC4 JUMP JUMPDEST PUSH1 0x0 SLOAD PUSH1 0x1 PUSH1 0x1 PUSH1 0xA0 SHL SUB AND CALLER SUB PUSH2 0x2C4E JUMPI JUMP JUMPDEST PUSH1 0x40 MLOAD PUSH4 0x118CDAA7 PUSH1 0xE0 SHL DUP2 MSTORE CALLER PUSH1 0x4 DUP3 ADD MSTORE PUSH1 0x24 SWAP1 REVERT JUMPDEST ISZERO PUSH2 0x2C6D JUMPI JUMP JUMPDEST PUSH1 0x40 MLOAD PUSH3 0x461BCD PUSH1 0xE5 SHL DUP2 MSTORE PUSH1 0x20 PUSH1 0x4 DUP3 ADD MSTORE PUSH1 0xA PUSH1 0x24 DUP3 ADD MSTORE PUSH10 0x4E6F7420616374697665 PUSH1 0xB0 SHL PUSH1 0x44 DUP3 ADD MSTORE PUSH1 0x64 SWAP1 REVERT JUMPDEST SWAP2 SWAP1 DUP3 SUB SWAP2 DUP3 GT PUSH2 0x2CAC JUMPI JUMP JUMPDEST PUSH4 0x4E487B71 PUSH1 0xE0 SHL PUSH1 0x0 MSTORE PUSH1 0x11 PUSH1 0x4 MSTORE PUSH1 0x24 PUSH1 0x0 REVERT JUMPDEST MLOAD SWAP1 DUP2 ISZERO ISZERO DUP3 SUB PUSH2 0x896 JUMPI JUMP JUMPDEST PUSH1 0x1 PUSH1 0x1 PUSH1 0xA0 SHL SUB SWAP1 SWAP2 AND DUP2 MSTORE PUSH1 0x20 DUP2 ADD SWAP2 SWAP1 SWAP2 MSTORE PUSH1 0x40 ADD SWAP1 JUMP JUMPDEST PUSH1 0x0 NOT DUP2 EQ PUSH2 0x2CAC JUMPI PUSH1 0x1 ADD SWAP1 JUMP JUMPDEST PUSH1 0x0 DUP1 MLOAD PUSH1 0x20 PUSH2 0x3D0A DUP4 CODECOPY DUP2 MLOAD SWAP2 MSTORE PUSH1 0x2 DUP2 SLOAD EQ PUSH2 0x2D17 JUMPI PUSH1 0x2 SWAP1 SSTORE JUMP JUMPDEST PUSH1 0x40 MLOAD PUSH4 0x3EE5AEB5 PUSH1 0xE0 SHL DUP2 MSTORE PUSH1 0x4 SWAP1 REVERT JUMPDEST ISZERO PUSH2 0x2D30 JUMPI JUMP JUMPDEST PUSH1 0x40 MLOAD PUSH3 0x461BCD PUSH1 0xE5 SHL DUP2 MSTORE PUSH1 0x20 PUSH1 0x4 DUP3 ADD MSTORE PUSH1 0x2 PUSH1 0x24 DUP3 ADD MSTORE PUSH2 0x5A41 PUSH1 0xF0 SHL PUSH1 0x44 DUP3 ADD MSTORE PUSH1 0x64 SWAP1 REVERT JUMPDEST SWAP2 SWAP1 DUP3 ADD DUP1 SWAP3 GT PUSH2 0x2CAC JUMPI JUMP JUMPDEST PUSH1 0x1 DUP1 PUSH1 0xA0 SHL SUB SWAP2 DUP3 PUSH1 0x0 SWAP3 AND DUP3 MSTORE PUSH1 0x3 SWAP2 PUSH1 0x20 SWAP3 DUP1 DUP5 MSTORE PUSH1 0x2 SWAP2 PUSH1 0x40 SWAP2 DUP4 DUP4 DUP4 KECCAK256 ADD SLOAD SWAP6 DUP8 DUP8 AND SWAP6 PUSH1 0xFF SWAP7 DUP10 DUP9 PUSH1 0xA0 SWAP11 DUP12 SHR AND SWAP2 JUMPDEST AND SWAP1 DUP2 ISZERO PUSH2 0x2DF9 JUMPI ISZERO PUSH2 0x2DDC JUMPI DUP1 DUP6 MSTORE DUP4 DUP4 MSTORE PUSH1 0x5 DUP7 DUP7 KECCAK256 ADD PUSH2 0x2DC0 DUP2 SLOAD PUSH2 0x2CEA JUMP JUMPDEST SWAP1 SSTORE JUMPDEST DUP5 MSTORE DUP3 DUP3 MSTORE DUP6 DUP6 DUP6 KECCAK256 ADD SLOAD DUP10 DUP1 DUP10 DUP4 DUP13 SHR AND SWAP3 AND PUSH2 0x2D9D JUMP JUMPDEST DUP1 DUP6 MSTORE DUP4 DUP4 MSTORE PUSH1 0x6 DUP7 DUP7 KECCAK256 ADD PUSH2 0x2DF2 DUP2 SLOAD PUSH2 0x2CEA JUMP JUMPDEST SWAP1 SSTORE PUSH2 0x2DC3 JUMP JUMPDEST POP POP SWAP8 POP POP POP POP POP POP POP POP JUMP JUMPDEST DUP2 DUP2 MUL SWAP3 SWAP2 DUP2 ISZERO SWAP2 DUP5 DIV EQ OR ISZERO PUSH2 0x2CAC JUMPI JUMP JUMPDEST DUP2 ISZERO PUSH2 0x2E23 JUMPI DIV SWAP1 JUMP JUMPDEST PUSH4 0x4E487B71 PUSH1 0xE0 SHL PUSH1 0x0 MSTORE PUSH1 0x12 PUSH1 0x4 MSTORE PUSH1 0x24 PUSH1 0x0 REVERT JUMPDEST SWAP2 SWAP3 PUSH1 0x80 SWAP4 SWAP7 SWAP6 SWAP5 SWAP2 SWAP7 PUSH1 0xA0 DUP5 ADD SWAP8 DUP5 MSTORE PUSH1 0x20 DUP5 ADD MSTORE PUSH1 0x40 DUP4 ADD MSTORE PUSH1 0x60 DUP3 ADD MSTORE ADD MSTORE JUMP JUMPDEST PUSH1 0x1 SLOAD PUSH1 0x40 MLOAD PUSH3 0x3144BD PUSH1 0xE3 SHL DUP2 MSTORE PUSH1 0x0 SWAP4 SWAP1 SWAP3 SWAP1 SWAP2 PUSH1 0x1 PUSH1 0x1 PUSH1 0xA0 SHL SUB AND PUSH1 0x20 DUP5 PUSH1 0x4 DUP2 DUP5 GAS STATICCALL SWAP4 DUP5 ISZERO PUSH2 0x850 JUMPI DUP6 SWAP5 PUSH2 0x33BF JUMPI JUMPDEST POP DUP4 ISZERO PUSH2 0x33AB JUMPI PUSH1 0x40 MLOAD PUSH4 0x95EA7B3 PUSH1 0xE0 SHL DUP2 MSTORE PUSH1 0x4 DUP2 ADD SWAP2 SWAP1 SWAP2 MSTORE PUSH9 0x70C1CC73B00C80000 PUSH1 0x24 DUP3 ADD DUP2 SWAP1 MSTORE SWAP1 PUSH1 0x20 DUP2 PUSH1 0x44 DUP2 DUP10 PUSH32 0x0 PUSH1 0x1 PUSH1 0x1 PUSH1 0xA0 SHL SUB AND GAS CALL DUP1 ISZERO PUSH2 0x1F55 JUMPI PUSH2 0x336E JUMPI JUMPDEST POP PUSH1 0x1 SLOAD PUSH1 0x40 MLOAD PUSH4 0x70A08231 PUSH1 0xE0 SHL DUP1 DUP3 MSTORE ADDRESS PUSH1 0x4 DUP4 ADD MSTORE SWAP3 SWAP1 SWAP2 DUP8 SWAP2 SWAP1 PUSH1 0x1 PUSH1 0x1 PUSH1 0xA0 SHL SUB AND PUSH1 0x20 DUP5 PUSH1 0x24 DUP2 DUP5 GAS STATICCALL SWAP4 DUP5 ISZERO PUSH2 0x9E5 JUMPI DUP4 SWAP5 PUSH2 0x333A JUMPI JUMPDEST POP DUP1 EXTCODESIZE ISZERO PUSH2 0x7F2 JUMPI PUSH1 0x44 DUP4 SWAP3 PUSH1 0x40 MLOAD SWAP5 DUP6 SWAP4 DUP5 SWAP3 PUSH4 0x4E538D93 PUSH1 0xE1 SHL DUP5 MSTORE ADDRESS PUSH1 0x4 DUP6 ADD MSTORE PUSH1 0x24 DUP5 ADD MSTORE GAS CALL DUP1 ISZERO PUSH2 0x332F JUMPI PUSH2 0x331C JUMPI JUMPDEST POP PUSH1 0x1 SLOAD PUSH1 0x40 MLOAD SWAP3 DUP4 MSTORE ADDRESS PUSH1 0x4 DUP5 ADD MSTORE PUSH1 0x20 SWAP1 DUP4 SWAP1 PUSH1 0x24 SWAP1 DUP3 SWAP1 PUSH1 0x1 PUSH1 0x1 PUSH1 0xA0 SHL SUB AND GAS STATICCALL DUP1 ISZERO PUSH2 0x1F55 JUMPI DUP7 SWAP1 PUSH2 0x32E8 JUMPI JUMPDEST PUSH2 0x2FAF SWAP3 POP PUSH2 0x2C9F JUMP JUMPDEST SWAP3 PUSH1 0x1E PUSH12 0x30E68B6D6E0ACC828633631 PUSH1 0x25 SHL DUP3 SWAP1 DIV DUP2 DUP2 MUL SWAP3 SWAP2 DUP2 DUP5 DIV EQ SWAP1 ISZERO OR ISZERO PUSH2 0x1F12 JUMPI PUSH2 0x3029 PUSH2 0x3021 PUSH2 0x3006 PUSH1 0x64 DUP6 DIV PUSH2 0x3001 DUP2 DUP2 DUP2 PUSH12 0x30E68B6D6E0ACC828633631 PUSH1 0x25 SHL DUP10 SWAP1 DIV PUSH2 0x2C9F JUMP JUMPDEST PUSH2 0x2C9F JUMP JUMPDEST PUSH2 0x3015 PUSH1 0x64 DUP7 DIV PUSH1 0x6 SLOAD PUSH2 0x2D5A JUMP JUMPDEST PUSH1 0x6 SSTORE PUSH1 0x64 DUP6 DIV PUSH2 0x2D5A JUMP JUMPDEST PUSH1 0x8 SLOAD PUSH2 0x2D5A JUMP JUMPDEST PUSH1 0x8 SSTORE PUSH1 0x1 PUSH1 0x1 PUSH1 0xA0 SHL SUB DUP4 DUP2 AND DUP8 MSTORE PUSH1 0x3 PUSH1 0x20 MSTORE PUSH1 0x40 DUP8 KECCAK256 DUP1 SLOAD PUSH2 0xFF00 NOT AND PUSH2 0x100 OR DUP1 DUP3 SSTORE PUSH9 0x15245655B102580000 PUSH1 0xB SWAP1 SWAP3 ADD SWAP2 SWAP1 SWAP2 SSTORE PUSH1 0x1 SWAP6 DUP9 SWAP5 SWAP1 SWAP3 SWAP1 SWAP2 PUSH1 0x10 SHR AND JUMPDEST PUSH1 0xA PUSH1 0xFF DUP9 AND GT ISZERO DUP1 PUSH2 0x32D6 JUMPI JUMPDEST ISZERO PUSH2 0x3246 JUMPI PUSH2 0x30A0 DUP8 PUSH12 0x30E68B6D6E0ACC828633631 PUSH1 0x25 SHL DUP7 SWAP1 DIV PUSH2 0x3408 JUMP JUMPDEST SWAP5 DUP6 ISZERO PUSH2 0x3220 JUMPI DUP6 PUSH2 0x30B1 SWAP2 PUSH2 0x2D5A JUMP JUMPDEST PUSH1 0x1 PUSH1 0x1 PUSH1 0xA0 SHL SUB DUP3 AND DUP11 MSTORE PUSH1 0x3 PUSH1 0x20 MSTORE PUSH1 0x40 DUP11 KECCAK256 DUP1 SLOAD SWAP2 SWAP7 SWAP2 PUSH1 0x8 SHR PUSH1 0xFF AND SWAP1 DUP2 PUSH2 0x3209 JUMPI JUMPDEST POP ISZERO PUSH2 0x31B9 JUMPI PUSH1 0x1 PUSH1 0x1 PUSH1 0xA0 SHL SUB DUP3 AND DUP11 MSTORE PUSH1 0x3 PUSH1 0x20 MSTORE PUSH1 0x40 DUP11 KECCAK256 PUSH1 0x8 ADD DUP1 SLOAD PUSH2 0x3103 SWAP1 DUP4 SWAP1 PUSH2 0x2D5A JUMP JUMPDEST SWAP1 SSTORE PUSH1 0x1 PUSH1 0x1 PUSH1 0xA0 SHL SUB DUP3 AND DUP11 MSTORE PUSH1 0x3 PUSH1 0x20 MSTORE PUSH1 0x40 DUP11 KECCAK256 PUSH1 0x9 ADD DUP1 SLOAD PUSH2 0x312A SWAP1 DUP4 SWAP1 PUSH2 0x2D5A JUMP JUMPDEST SWAP1 SSTORE PUSH1 0x40 MLOAD PUSH1 0x1 PUSH1 0x1 PUSH1 0xA0 SHL SUB DUP9 DUP2 AND SWAP3 SWAP1 DUP5 AND SWAP2 PUSH32 0xB16479BDAC5B7099D9236D6FC6BE3B30FF54188F4FD961686E1E1DC7ECB88037 SWAP2 DUP2 SWAP1 PUSH2 0x316E SWAP1 DUP14 DUP4 PUSH2 0x33F3 JUMP JUMPDEST SUB SWAP1 LOG3 JUMPDEST PUSH1 0x1 PUSH1 0x1 PUSH1 0xA0 SHL SUB SWAP1 DUP2 AND DUP10 MSTORE PUSH1 0x3 PUSH1 0x20 MSTORE PUSH1 0x40 DUP10 KECCAK256 SLOAD PUSH1 0x10 SHR AND SWAP6 JUMPDEST PUSH1 0xFF SWAP1 DUP2 DUP1 DUP3 AND EQ PUSH2 0x31A5 JUMPI AND PUSH1 0x1 ADD SWAP6 PUSH2 0x3071 JUMP JUMPDEST PUSH4 0x4E487B71 PUSH1 0xE0 SHL DUP11 MSTORE PUSH1 0x11 PUSH1 0x4 MSTORE PUSH1 0x24 DUP11 REVERT JUMPDEST PUSH2 0x31C5 DUP2 PUSH1 0x8 SLOAD PUSH2 0x2D5A JUMP JUMPDEST PUSH1 0x8 SSTORE PUSH32 0x117CA0CD821ECB7EADFEA2D6927A67853908BDC351A386235215F5AB6071BFED PUSH1 0x40 MLOAD DUP1 PUSH2 0x3201 PUSH1 0x1 DUP1 PUSH1 0xA0 SHL SUB DUP7 AND SWAP5 DUP13 DUP4 PUSH2 0x33F3 JUMP JUMPDEST SUB SWAP1 LOG2 PUSH2 0x3172 JUMP JUMPDEST PUSH1 0x1 SWAP2 POP ADD SLOAD PUSH2 0x3218 DUP10 PUSH2 0x3554 JUMP JUMPDEST GT ISZERO CODESIZE PUSH2 0x30D8 JUMP JUMPDEST PUSH1 0x1 PUSH1 0x1 PUSH1 0xA0 SHL SUB SWAP2 DUP3 AND DUP11 MSTORE PUSH1 0x3 PUSH1 0x20 MSTORE PUSH1 0x40 DUP11 KECCAK256 SLOAD PUSH1 0x10 SHR SWAP1 SWAP2 AND SWAP7 SWAP1 SWAP5 POP PUSH2 0x318F JUMP JUMPDEST POP SWAP4 SWAP3 PUSH2 0x32B8 SWAP3 SWAP7 SWAP2 SWAP8 POP PUSH32 0x8AF2C013A5A55C6D3AD5423522FE76C6F2EB831B5E23318276B3C678CB457FC9 SWAP6 POP DUP1 PUSH1 0x64 DUP7 DIV GT PUSH2 0x32BD JUMPI JUMPDEST POP PUSH1 0x40 MLOAD PUSH1 0x1 PUSH1 0x1 PUSH1 0xA0 SHL SUB SWAP1 SWAP4 AND SWAP6 SWAP3 SWAP4 DUP5 SWAP4 PUSH1 0x64 SWAP1 SWAP2 DIV SWAP2 DUP3 SWAP2 DUP3 SWAP2 PUSH12 0x30E68B6D6E0ACC828633631 PUSH1 0x25 SHL SWAP2 SWAP1 SWAP2 DIV SWAP1 DUP7 PUSH2 0x2E39 JUMP JUMPDEST SUB SWAP1 LOG2 JUMP JUMPDEST PUSH2 0x3021 PUSH2 0x32CD SWAP2 PUSH1 0x64 DUP8 DIV PUSH2 0x2C9F JUMP JUMPDEST PUSH1 0x8 SSTORE CODESIZE PUSH2 0x327F JUMP JUMPDEST POP PUSH1 0x1 PUSH1 0x1 PUSH1 0xA0 SHL SUB DUP2 AND ISZERO ISZERO PUSH2 0x307F JUMP JUMPDEST POP PUSH1 0x20 DUP3 RETURNDATASIZE PUSH1 0x20 GT PUSH2 0x3314 JUMPI JUMPDEST DUP2 PUSH2 0x3302 PUSH1 0x20 SWAP4 DUP4 PUSH2 0x2B71 JUMP JUMPDEST DUP2 ADD SUB SLT PUSH2 0x896 JUMPI PUSH2 0x2FAF SWAP2 MLOAD PUSH2 0x2FA5 JUMP JUMPDEST RETURNDATASIZE SWAP2 POP PUSH2 0x32F5 JUMP JUMPDEST PUSH2 0x3328 SWAP1 SWAP7 SWAP2 SWAP7 PUSH2 0x2B5E JUMP JUMPDEST SWAP5 CODESIZE PUSH2 0x2F73 JUMP JUMPDEST PUSH1 0x40 MLOAD RETURNDATASIZE DUP10 DUP3 RETURNDATACOPY RETURNDATASIZE SWAP1 REVERT JUMPDEST SWAP1 SWAP4 POP PUSH1 0x20 DUP2 RETURNDATASIZE PUSH1 0x20 GT PUSH2 0x3366 JUMPI JUMPDEST DUP2 PUSH2 0x3356 PUSH1 0x20 SWAP4 DUP4 PUSH2 0x2B71 JUMP JUMPDEST DUP2 ADD SUB SLT PUSH2 0x7F2 JUMPI MLOAD SWAP3 CODESIZE PUSH2 0x2F3D JUMP JUMPDEST RETURNDATASIZE SWAP2 POP PUSH2 0x3349 JUMP JUMPDEST PUSH1 0x20 DUP2 RETURNDATASIZE PUSH1 0x20 GT PUSH2 0x33A3 JUMPI JUMPDEST DUP2 PUSH2 0x3387 PUSH1 0x20 SWAP4 DUP4 PUSH2 0x2B71 JUMP JUMPDEST DUP2 ADD SUB SLT PUSH2 0x339F JUMPI PUSH2 0x3398 SWAP1 PUSH2 0x2CC2 JUMP JUMPDEST POP CODESIZE PUSH2 0x2EFF JUMP JUMPDEST DUP6 DUP1 REVERT JUMPDEST RETURNDATASIZE SWAP2 POP PUSH2 0x337A JUMP JUMPDEST PUSH4 0x4E487B71 PUSH1 0xE0 SHL DUP6 MSTORE PUSH1 0x12 PUSH1 0x4 MSTORE PUSH1 0x24 DUP6 REVERT JUMPDEST SWAP1 SWAP4 POP PUSH1 0x20 DUP2 RETURNDATASIZE PUSH1 0x20 GT PUSH2 0x33EB JUMPI JUMPDEST DUP2 PUSH2 0x33DB PUSH1 0x20 SWAP4 DUP4 PUSH2 0x2B71 JUMP JUMPDEST DUP2 ADD SUB SLT PUSH2 0x845 JUMPI MLOAD SWAP3 CODESIZE PUSH2 0x2E93 JUMP JUMPDEST RETURNDATASIZE SWAP2 POP PUSH2 0x33CE JUMP JUMPDEST PUSH1 0x20 SWAP1 SWAP4 SWAP3 SWAP2 SWAP4 PUSH1 0xFF PUSH1 0x40 DUP3 ADD SWAP6 AND DUP2 MSTORE ADD MSTORE JUMP JUMPDEST SWAP1 PUSH1 0xFF AND PUSH1 0x1 DUP2 EQ PUSH2 0x3539 JUMPI PUSH1 0x2 DUP2 EQ PUSH2 0x351E JUMPI PUSH1 0x3 DUP2 EQ PUSH2 0x3503 JUMPI PUSH1 0x4 SWAP1 DUP2 DUP2 EQ PUSH2 0x34EC JUMPI PUSH1 0x5 DUP2 EQ PUSH2 0x34CF JUMPI PUSH1 0x6 DUP2 EQ PUSH2 0x34CF JUMPI PUSH1 0x7 DUP2 EQ PUSH2 0x34B2 JUMPI PUSH1 0x8 DUP2 EQ PUSH2 0x34B2 JUMPI PUSH1 0x9 DUP2 EQ PUSH2 0x3495 JUMPI PUSH1 0xA EQ PUSH2 0x3464 JUMPI POP POP PUSH1 0x0 SWAP1 JUMP JUMPDEST DUP2 PUSH1 0x1 SHL SWAP2 DUP1 DUP4 DIV PUSH1 0x2 EQ SWAP1 ISZERO OR ISZERO PUSH2 0x3480 JUMPI POP PUSH2 0x3E8 SWAP1 DIV SWAP1 JUMP JUMPDEST PUSH1 0x11 SWAP1 PUSH4 0x4E487B71 PUSH1 0xE0 SHL PUSH1 0x0 MSTORE MSTORE PUSH1 0x24 PUSH1 0x0 REVERT JUMPDEST POP DUP2 PUSH1 0x1 SHL SWAP2 DUP1 DUP4 DIV PUSH1 0x2 EQ SWAP1 ISZERO OR ISZERO PUSH2 0x3480 JUMPI POP PUSH2 0x3E8 SWAP1 DIV SWAP1 JUMP JUMPDEST POP PUSH1 0x3 DUP3 MUL SWAP2 DUP1 DUP4 DIV PUSH1 0x3 EQ SWAP1 ISZERO OR ISZERO PUSH2 0x3480 JUMPI POP PUSH2 0x3E8 SWAP1 DIV SWAP1 JUMP JUMPDEST POP PUSH1 0x5 DUP3 MUL SWAP2 DUP1 DUP4 DIV PUSH1 0x5 EQ SWAP1 ISZERO OR ISZERO PUSH2 0x3480 JUMPI POP PUSH2 0x3E8 SWAP1 DIV SWAP1 JUMP JUMPDEST POP DUP2 DUP1 DIV PUSH1 0x1 EQ DUP3 ISZERO OR ISZERO PUSH2 0x3480 JUMPI POP PUSH1 0x64 SWAP1 DIV SWAP1 JUMP JUMPDEST POP DUP1 PUSH1 0x1 SHL SWAP1 DUP1 DUP3 DIV PUSH1 0x2 EQ SWAP1 ISZERO OR ISZERO PUSH2 0x2CAC JUMPI PUSH1 0x64 SWAP1 DIV SWAP1 JUMP JUMPDEST POP PUSH1 0x5 DUP2 MUL SWAP1 DUP1 DUP3 DIV PUSH1 0x5 EQ SWAP1 ISZERO OR ISZERO PUSH2 0x2CAC JUMPI PUSH1 0x64 SWAP1 DIV SWAP1 JUMP JUMPDEST POP PUSH1 0x14 DUP2 MUL SWAP1 DUP1 DUP3 DIV PUSH1 0x14 EQ SWAP1 ISZERO OR ISZERO PUSH2 0x2CAC JUMPI PUSH1 0x64 SWAP1 DIV SWAP1 JUMP JUMPDEST PUSH1 0xFF PUSH1 0x4 SWAP2 AND GT ISZERO PUSH2 0x3565 JUMPI PUSH1 0x5 SWAP1 JUMP JUMPDEST PUSH1 0x2 SWAP1 JUMP JUMPDEST PUSH1 0x1 PUSH1 0x1 PUSH1 0x40 SHL SUB DUP2 GT PUSH2 0xEC0 JUMPI PUSH1 0x5 SHL PUSH1 0x20 ADD SWAP1 JUMP JUMPDEST DUP1 MLOAD DUP3 LT ISZERO PUSH2 0x2B0E JUMPI PUSH1 0x20 SWAP2 PUSH1 0x5 SHL ADD ADD SWAP1 JUMP JUMPDEST DUP2 DUP1 PUSH2 0x37AC JUMPI JUMPDEST PUSH2 0x37A5 JUMPI DUP2 ISZERO SWAP2 DUP3 DUP1 PUSH2 0x3780 JUMPI JUMPDEST PUSH2 0x3778 JUMPI PUSH1 0x5 SLOAD SWAP3 PUSH1 0x1 DUP1 DUP6 ADD DUP1 SWAP6 GT PUSH2 0x2CAC JUMPI PUSH2 0x35C7 DUP6 PUSH2 0x356A JUMP JUMPDEST SWAP1 PUSH2 0x35E2 PUSH1 0x40 SWAP7 PUSH2 0x35DA DUP9 MLOAD SWAP5 DUP6 PUSH2 0x2B71 JUMP JUMPDEST DUP1 DUP5 MSTORE PUSH2 0x356A JUMP JUMPDEST SWAP3 PUSH1 0x20 SWAP3 DUP4 DUP2 ADD SWAP5 PUSH1 0x1F NOT ADD CALLDATASIZE DUP7 CALLDATACOPY PUSH1 0x0 DUP1 DUP8 ISZERO PUSH2 0x3759 JUMPI PUSH1 0x1 PUSH1 0x1 PUSH1 0xA0 SHL SUB DUP10 DUP2 AND DUP4 MSTORE PUSH1 0x3 DUP1 DUP9 MSTORE DUP12 DUP5 KECCAK256 ADD SLOAD AND SWAP7 JUMPDEST PUSH1 0x1 PUSH1 0x1 PUSH1 0xA0 SHL SUB SWAP8 DUP9 AND DUP1 PUSH2 0x3745 JUMPI JUMPDEST POP POP JUMPDEST DUP2 DUP2 LT PUSH2 0x36A3 JUMPI POP POP POP DUP1 PUSH2 0x3688 JUMPI JUMPDEST PUSH2 0x367E JUMPI POP DUP3 PUSH2 0x3661 JUMPI JUMPDEST POP POP PUSH2 0x365A JUMPI DUP2 MLOAD PUSH4 0xC5BB5BCD PUSH1 0xE0 SHL DUP2 MSTORE PUSH1 0x4 SWAP1 REVERT JUMPDEST SWAP2 PUSH1 0x0 SWAP2 POP JUMP JUMPDEST DUP2 PUSH1 0x3 SWAP3 SWAP4 POP DUP5 AND PUSH1 0x0 MSTORE MSTORE PUSH1 0x4 DUP4 PUSH1 0x0 KECCAK256 ADD SLOAD AND ISZERO CODESIZE DUP1 PUSH2 0x3643 JUMP JUMPDEST SWAP6 SWAP5 POP POP POP POP SWAP2 SWAP1 JUMP JUMPDEST POP DUP3 DUP6 AND PUSH1 0x0 MSTORE PUSH1 0x3 DUP3 MSTORE DUP3 PUSH1 0x3 DUP8 PUSH1 0x0 KECCAK256 ADD SLOAD AND ISZERO PUSH2 0x3638 JUMP JUMPDEST DUP7 PUSH2 0x36B7 PUSH2 0x36B0 DUP4 PUSH2 0x2CEA JUMP JUMPDEST SWAP3 DUP6 PUSH2 0x3581 JUMP JUMPDEST MLOAD AND DUP1 PUSH1 0x0 MSTORE PUSH1 0x3 DUP1 DUP9 MSTORE DUP12 PUSH1 0x0 KECCAK256 SWAP2 DUP10 DUP3 DUP5 ADD SLOAD AND DUP1 ISZERO PUSH2 0x3732 JUMPI DUP11 PUSH1 0x4 DUP1 SWAP6 ADD SLOAD AND ISZERO PUSH2 0x371E JUMPI SWAP1 DUP11 SWAP4 SWAP3 SWAP2 PUSH2 0x36F8 PUSH2 0x36F1 DUP9 PUSH2 0x2CEA JUMP JUMPDEST SWAP8 DUP10 PUSH2 0x3581 JUMP JUMPDEST MSTORE PUSH1 0x0 MSTORE DUP9 MSTORE DUP12 PUSH1 0x0 KECCAK256 ADD SLOAD AND PUSH2 0x3718 PUSH2 0x3711 DUP5 PUSH2 0x2CEA JUMP JUMPDEST SWAP4 DUP6 PUSH2 0x3581 JUMP JUMPDEST MSTORE PUSH2 0x3628 JUMP JUMPDEST POP SWAP12 POP POP POP POP POP POP POP POP POP POP POP POP SWAP1 PUSH1 0x0 SWAP1 JUMP JUMPDEST POP SWAP11 POP POP POP POP POP POP POP SWAP6 SWAP5 POP POP POP POP SWAP2 SWAP1 JUMP JUMPDEST SWAP1 SWAP3 POP DUP6 SWAP3 DUP5 MLOAD ISZERO PUSH2 0x2B0E JUMPI MSTORE CODESIZE DUP1 PUSH2 0x3625 JUMP JUMPDEST PUSH1 0x1 PUSH1 0x1 PUSH1 0xA0 SHL SUB DUP10 DUP2 AND DUP4 MSTORE PUSH1 0x3 DUP8 MSTORE DUP11 DUP4 KECCAK256 PUSH1 0x4 ADD SLOAD AND SWAP7 PUSH2 0x3614 JUMP JUMPDEST POP SWAP2 PUSH1 0x0 SWAP2 POP JUMP JUMPDEST POP PUSH1 0x1 PUSH1 0x1 PUSH1 0xA0 SHL SUB DUP3 DUP2 AND PUSH1 0x0 SWAP1 DUP2 MSTORE PUSH1 0x3 PUSH1 0x20 MSTORE PUSH1 0x40 SWAP1 KECCAK256 PUSH1 0x4 ADD SLOAD AND ISZERO PUSH2 0x35AA JUMP JUMPDEST SWAP2 PUSH1 0x1 SWAP2 POP JUMP JUMPDEST POP PUSH1 0x1 DUP1 PUSH1 0xA0 SHL SUB DUP1 DUP3 AND PUSH1 0x0 MSTORE PUSH1 0x3 PUSH1 0x20 MSTORE PUSH1 0x3 PUSH1 0x40 PUSH1 0x0 KECCAK256 ADD SLOAD AND ISZERO PUSH2 0x359C JUMP JUMPDEST PUSH1 0xFF SWAP2 PUSH1 0xA DUP4 DUP2 SLOAD AND PUSH2 0x3AF8 JUMPI PUSH1 0x6 SWAP1 DUP2 SLOAD SWAP5 DUP6 ISZERO PUSH2 0x3ABF JUMPI PUSH1 0x0 DUP1 DUP5 SSTORE PUSH1 0x46 DUP8 MUL DUP8 DUP2 DIV PUSH1 0x46 SUB PUSH2 0x3AAB JUMPI PUSH1 0x64 SWAP1 DIV SWAP4 PUSH2 0x380A DUP6 DUP10 PUSH2 0x2C9F JUMP JUMPDEST SWAP6 PUSH2 0x381A PUSH1 0x9 SWAP2 DUP9 DUP4 SSTORE DUP10 PUSH2 0x2D5A JUMP JUMPDEST SWAP3 PUSH1 0x4 SWAP5 DUP6 SLOAD DUP1 DUP7 GT PUSH2 0x3AA3 JUMPI JUMPDEST POP DUP2 SWAP10 DUP1 JUMPDEST DUP7 DUP2 LT PUSH2 0x3A0F JUMPI POP DUP11 ISZERO PUSH2 0x39C4 JUMPI JUMPDEST DUP6 DUP2 LT PUSH2 0x3883 JUMPI POP POP POP POP POP POP POP SWAP2 PUSH1 0x80 SWAP4 SWAP2 PUSH1 0x0 DUP1 MLOAD PUSH1 0x20 PUSH2 0x3CEA DUP4 CODECOPY DUP2 MLOAD SWAP2 MSTORE SWAP6 SWAP4 PUSH1 0x1 PUSH1 0xFF NOT DUP3 SLOAD AND OR SWAP1 SSTORE PUSH1 0x40 MLOAD SWAP4 DUP5 MSTORE PUSH1 0x20 DUP5 ADD MSTORE PUSH1 0x40 DUP4 ADD MSTORE PUSH1 0x60 DUP3 ADD MSTORE LOG1 JUMP JUMPDEST DUP11 DUP9 DUP11 PUSH2 0x388F DUP5 PUSH2 0x2AF3 JUMP JUMPDEST SWAP1 SLOAD SWAP1 PUSH1 0x3 SWAP2 PUSH1 0x1 DUP1 PUSH1 0xA0 SHL SUB SWAP2 DUP4 SHL SHR AND DUP1 DUP9 MSTORE PUSH1 0x20 SWAP1 DUP3 DUP3 MSTORE PUSH1 0x40 SWAP4 DUP5 DUP11 KECCAK256 SWAP6 DUP13 DUP13 DUP13 DUP10 SLOAD SWAP3 DUP14 PUSH1 0x8 SWAP5 DUP6 SHR AND ISZERO PUSH2 0x39AF JUMPI PUSH1 0x5 DUP12 ADD SLOAD SWAP1 DUP12 ADD SLOAD DUP1 DUP3 LT ISZERO PUSH2 0x39A7 JUMPI POP SWAP11 JUMPDEST PUSH1 0x7 SWAP11 DUP12 ADD SLOAD DUP1 DUP14 GT ISZERO PUSH2 0x399F JUMPI PUSH2 0x38EF SWAP1 DUP14 PUSH2 0x2C9F JUMP JUMPDEST SWAP6 JUMPDEST DUP7 ISZERO PUSH2 0x3989 JUMPI SWAP2 PUSH2 0x390B DUP12 SWAP3 PUSH2 0x18EA DUP10 PUSH2 0x3933 SWAP8 SWAP7 PUSH2 0x2E06 JUMP JUMPDEST SWAP5 DUP9 DUP3 MSTORE DUP11 DUP11 MSTORE DUP3 DUP3 KECCAK256 ADD PUSH2 0x3921 DUP7 DUP3 SLOAD PUSH2 0x2D5A JUMP JUMPDEST SWAP1 SSTORE DUP8 DUP2 MSTORE DUP10 DUP10 MSTORE KECCAK256 ADD SWAP2 DUP3 SLOAD PUSH2 0x2D5A JUMP JUMPDEST SWAP1 SSTORE DUP1 DUP3 MUL SWAP2 DUP3 DIV SUB PUSH2 0x3975 JUMPI SWAP1 PUSH2 0x3970 SWAP8 SWAP7 SWAP6 SWAP5 SWAP4 SWAP3 SWAP2 DUP2 DUP12 MSTORE DUP4 DUP4 MSTORE PUSH2 0x3962 PUSH1 0x11 DUP7 DUP14 KECCAK256 ADD SWAP2 DUP3 SLOAD PUSH2 0x2D5A JUMP JUMPDEST SWAP1 SSTORE DUP10 MSTORE MSTORE DUP7 KECCAK256 ADD SSTORE PUSH2 0x2CEA JUMP JUMPDEST PUSH2 0x383C JUMP JUMPDEST POP PUSH4 0x4E487B71 PUSH1 0xE0 SHL DUP10 MSTORE PUSH1 0x11 DUP14 MSTORE PUSH1 0x24 DUP10 REVERT JUMPDEST POP POP POP POP POP POP POP POP POP POP POP POP POP PUSH2 0x3970 SWAP1 PUSH2 0x2CEA JUMP JUMPDEST POP DUP2 SWAP6 PUSH2 0x38F1 JUMP JUMPDEST SWAP1 POP SWAP11 PUSH2 0x38D7 JUMP JUMPDEST POP POP POP POP POP POP POP POP POP POP POP POP PUSH2 0x3970 SWAP1 PUSH2 0x2CEA JUMP JUMPDEST POP POP SWAP6 PUSH1 0x80 SWAP9 POP DUP7 SWAP6 POP PUSH1 0x0 DUP1 MLOAD PUSH1 0x20 PUSH2 0x3CEA DUP4 CODECOPY DUP2 MLOAD SWAP2 MSTORE SWAP10 SWAP8 SWAP2 SWAP5 POP PUSH2 0x39F1 SWAP4 POP PUSH2 0x3021 SWAP3 POP PUSH2 0x2D5A JUMP JUMPDEST PUSH1 0x8 SSTORE SSTORE PUSH1 0x40 MLOAD SWAP2 DUP3 MSTORE DUP1 PUSH1 0x20 DUP4 ADD MSTORE DUP1 PUSH1 0x40 DUP4 ADD MSTORE PUSH1 0x60 DUP3 ADD MSTORE LOG1 JUMP JUMPDEST PUSH2 0x3A18 DUP2 PUSH2 0x2AF3 JUMP JUMPDEST SWAP1 SLOAD PUSH1 0x3 SWAP2 DUP3 SHL SHR PUSH1 0x1 PUSH1 0x1 PUSH1 0xA0 SHL SUB AND DUP6 MSTORE PUSH1 0x20 MSTORE PUSH1 0x40 DUP5 KECCAK256 DUP1 SLOAD PUSH1 0x8 SHR DUP5 AND ISZERO PUSH2 0x3A99 JUMPI PUSH1 0x7 PUSH1 0x5 DUP3 ADD SLOAD DUP9 DUP4 ADD SLOAD DUP1 DUP3 LT PUSH1 0x0 EQ PUSH2 0x3A91 JUMPI POP SWAP2 JUMPDEST ADD SLOAD SWAP1 DUP2 DUP2 GT PUSH2 0x3A71 JUMPI JUMPDEST POP POP PUSH2 0x3A6C SWAP1 PUSH2 0x2CEA JUMP JUMPDEST PUSH2 0x382D JUMP JUMPDEST SWAP13 PUSH2 0x3A83 PUSH2 0x3A89 SWAP3 PUSH2 0x3A6C SWAP5 SWAP16 PUSH2 0x2C9F JUMP JUMPDEST SWAP1 PUSH2 0x2D5A JUMP JUMPDEST SWAP12 SWAP1 CODESIZE PUSH2 0x3A61 JUMP JUMPDEST SWAP1 POP SWAP2 PUSH2 0x3A56 JUMP JUMPDEST POP PUSH2 0x3A6C SWAP1 PUSH2 0x2CEA JUMP JUMPDEST SWAP5 POP CODESIZE PUSH2 0x3828 JUMP JUMPDEST PUSH4 0x4E487B71 PUSH1 0xE0 SHL DUP3 MSTORE PUSH1 0x11 PUSH1 0x4 MSTORE PUSH1 0x24 DUP3 REVERT JUMPDEST PUSH1 0x40 MLOAD PUSH3 0x461BCD PUSH1 0xE5 SHL DUP2 MSTORE PUSH1 0x20 PUSH1 0x4 DUP3 ADD MSTORE PUSH1 0x11 PUSH1 0x24 DUP3 ADD MSTORE PUSH17 0x115B5C1D1E48189A5B985C9E481C1BDBDB PUSH1 0x7A SHL PUSH1 0x44 DUP3 ADD MSTORE PUSH1 0x64 SWAP1 REVERT JUMPDEST PUSH1 0x40 MLOAD PUSH3 0xC94879 PUSH1 0xE4 SHL DUP2 MSTORE PUSH1 0x4 SWAP1 REVERT JUMPDEST PUSH1 0x2 SLOAD PUSH1 0x1 PUSH1 0x1 PUSH1 0xA0 SHL SUB AND SWAP1 DUP2 ISZERO PUSH2 0x3B85 JUMPI PUSH1 0x20 SWAP1 PUSH1 0x24 PUSH1 0x40 MLOAD DUP1 SWAP5 DUP2 SWAP4 PUSH4 0x47CD5191 PUSH1 0xE0 SHL DUP4 MSTORE PUSH1 0x4 DUP4 ADD MSTORE GAS STATICCALL SWAP1 DUP2 ISZERO PUSH2 0x3B79 JUMPI PUSH1 0x0 SWAP2 PUSH2 0x3B4B JUMPI POP SWAP1 JUMP JUMPDEST SWAP1 PUSH1 0x20 DUP3 RETURNDATASIZE DUP3 GT PUSH2 0x3B71 JUMPI JUMPDEST DUP2 PUSH2 0x3B64 PUSH1 0x20 SWAP4 DUP4 PUSH2 0x2B71 JUMP JUMPDEST DUP2 ADD SUB SLT PUSH2 0x28D JUMPI POP MLOAD SWAP1 JUMP JUMPDEST RETURNDATASIZE SWAP2 POP PUSH2 0x3B57 JUMP JUMPDEST PUSH1 0x40 MLOAD RETURNDATASIZE PUSH1 0x0 DUP3 RETURNDATACOPY RETURNDATASIZE SWAP1 REVERT JUMPDEST POP POP PUSH1 0x0 SWAP1 JUMP JUMPDEST PUSH1 0x2 SLOAD PUSH1 0x1 PUSH1 0x1 PUSH1 0xA0 SHL SUB AND SWAP1 DUP2 ISZERO PUSH2 0x3B85 JUMPI PUSH1 0x20 SWAP1 PUSH1 0x24 PUSH1 0x40 MLOAD DUP1 SWAP5 DUP2 SWAP4 PUSH4 0x75B1F0E1 PUSH1 0xE1 SHL DUP4 MSTORE PUSH1 0x4 DUP4 ADD MSTORE GAS STATICCALL SWAP1 DUP2 ISZERO PUSH2 0x3B79 JUMPI PUSH1 0x0 SWAP2 PUSH2 0x3B4B JUMPI POP SWAP1 JUMP JUMPDEST PUSH1 0x2 SLOAD PUSH1 0x1 PUSH1 0x1 PUSH1 0xA0 SHL SUB AND SWAP1 DUP2 ISZERO PUSH2 0x3B85 JUMPI PUSH1 0x20 SWAP1 PUSH1 0x24 PUSH1 0x40 MLOAD DUP1 SWAP5 DUP2 SWAP4 PUSH4 0x1D613961 PUSH1 0xE1 SHL DUP4 MSTORE PUSH1 0x4 DUP4 ADD MSTORE GAS STATICCALL SWAP1 DUP2 ISZERO PUSH2 0x3B79 JUMPI PUSH1 0x0 SWAP2 PUSH2 0x3B4B JUMPI POP SWAP1 JUMP JUMPDEST PUSH1 0x2 SLOAD PUSH1 0x1 PUSH1 0x1 PUSH1 0xA0 SHL SUB SWAP1 DUP2 AND SWAP2 DUP3 ISZERO PUSH2 0x3CBB JUMPI AND PUSH1 0x24 PUSH1 0x0 DUP3 DUP2 MSTORE PUSH1 0x20 PUSH1 0x3 DUP2 MSTORE DUP1 PUSH1 0xF PUSH1 0x40 DUP5 KECCAK256 ADD SLOAD SWAP6 PUSH1 0x40 MLOAD SWAP5 DUP6 DUP1 SWAP3 PUSH4 0x47CD5191 PUSH1 0xE0 SHL DUP3 MSTORE PUSH1 0x1 PUSH1 0x4 DUP4 ADD MSTORE GAS STATICCALL SWAP3 DUP4 ISZERO PUSH2 0x7F6 JUMPI DUP3 SWAP4 PUSH2 0x3C8B JUMPI JUMPDEST POP PUSH1 0xFF SWAP2 PUSH1 0x3 PUSH1 0x40 SWAP3 DUP6 SWAP7 DUP4 MSTORE MSTORE KECCAK256 SLOAD PUSH1 0x8 SHR AND SWAP1 DUP2 PUSH2 0x3C83 JUMPI POP SWAP3 JUMP JUMPDEST SWAP1 POP DUP3 LT ISZERO SWAP3 JUMP JUMPDEST SWAP1 DUP1 SWAP4 POP DUP2 DUP2 RETURNDATASIZE DUP4 GT PUSH2 0x3CB4 JUMPI JUMPDEST PUSH2 0x3CA3 DUP2 DUP4 PUSH2 0x2B71 JUMP JUMPDEST DUP2 ADD SUB SLT PUSH2 0x801 JUMPI MLOAD SWAP2 PUSH1 0xFF PUSH2 0x3C65 JUMP JUMPDEST POP RETURNDATASIZE PUSH2 0x3C99 JUMP JUMPDEST POP POP POP PUSH1 0x0 SWAP1 PUSH1 0x0 SWAP1 PUSH1 0x0 SWAP1 JUMP INVALID DUP12 0xE0 SMOD SWAP13 MSTORE8 AND MSIZE EQ SGT PREVRANDAO 0xCD 0x1F 0xD0 LOG4 CALLCODE DUP5 NOT 0x49 PUSH32 0x9722A3DAAFE3B4186F6B6457E0A0EA5705200C9FFD36DC735FEF1592C3234BB7 0xE3 GT 0xFC SHL EXP PREVRANDAO 0x4F PUSH4 0x70D0620E 0xAE SWAP12 PUSH24 0x9B17422D0DF92223018B32B4D1FA46E071723D6817E2486D STOP EXTCODESIZE 0xEC 0xC5 PUSH0 STOP LOG2 PUSH5 0x6970667358 0x22 SLT KECCAK256 CALLDATALOAD PUSH27 0x517A60DCFCA0554F998BD663CFFDE7B69B1FA0EF9F269CD17F4A18 SGT 0xDE 0xE2 PUSH5 0x736F6C6343 STOP ADDMOD EQ STOP CALLER "},"methodIdentifiers":{"ADMIN_ALLOC()":"be648bdb","BINARY_ALLOC()":"44e374d5","BTC_POOL_RATE()":"92446e30","INCOME_LIMIT()":"aa393757","LEVEL_ALLOC()":"77537844","PACKAGE_PRICE()":"039ccc26","activate()":"0f15f4c0","adminPool()":"b86a1fb2","allUsers(uint256)":"a2bdedf4","binaryPool()":"7f1b4064","boardEntryCount(address)":"f00b0093","boardHandler()":"c9d484cf","canEnterBoard(address)":"9499a351","canRebirth(address)":"e51cb530","creditBoardReward(address,uint256,uint256)":"f0b7b9dc","distributeBinaryIncome(uint256,uint256)":"2d641f08","distributePowerLeg(uint256,uint256)":"8a8f0429","enterBoardPool()":"e4093a66","getAllUsersCount()":"38abfc41","getBoardCurrentIndex(uint256)":"3ac272c2","getBoardMatrixInfo(uint256,uint256)":"d4a90286","getBoardPrice(uint256)":"47cd5191","getBoardQueueLength(uint256)":"eb63e1c2","getBtcPoolInfo(address)":"03c3ecb7","getCurrentBinaryPairs(address)":"f24c536a","getMvtContractBalance()":"ce8292f5","getMvtPrice()":"68ddb2b5","getPoolBalances()":"52375bb1","getProfile(address)":"0f53a470","getUserBoardStats(address)":"fb72ca35","getUserInfo(address)":"6386c1c7","mvaultToken()":"1f6259d5","owner()":"8da5cb5b","rebirth(address,bool)":"94915dd0","register(address,address,bool)":"aa33f5d5","renounceOwnership()":"715018a6","reservePool()":"0266f044","sellMvt(uint256)":"634f627e","setBoardHandler(address)":"e3ba9bda","setMvaultToken(address)":"1ce5e894","setProfile(string,string,string,string)":"55509c8f","totalBoardRewardsEarned(address)":"2335821b","totalUsers()":"bff1f9e1","transferOwnership(address)":"f2fde38b","usdtToken()":"a98ad46c","users(address)":"a87430ba","withdrawAdminPool(address,uint256)":"2808bc8d","withdrawBtcPool(uint256)":"b58e0278","withdrawReservePool(address,uint256)":"ec50324a","withdrawUsdt(uint256)":"d3635a02"}}}}}