{"contracts/MLMContract.sol":{"MLMContract":{"abi":[{"inputs":[{"internalType":"address","name":"_paymentToken","type":"address"},{"internalType":"uint8","name":"_tokenDecimals","type":"uint8"},{"internalType":"address","name":"_feeRecipient","type":"address"},{"internalType":"address","name":"_adminBinaryWallet","type":"address"}],"stateMutability":"nonpayable","type":"constructor"},{"inputs":[],"name":"EnforcedPause","type":"error"},{"inputs":[],"name":"ExpectedPause","type":"error"},{"inputs":[{"internalType":"address","name":"owner","type":"address"}],"name":"OwnableInvalidOwner","type":"error"},{"inputs":[{"internalType":"address","name":"account","type":"address"}],"name":"OwnableUnauthorizedAccount","type":"error"},{"inputs":[],"name":"ReentrancyGuardReentrantCall","type":"error"},{"inputs":[{"internalType":"address","name":"token","type":"address"}],"name":"SafeERC20FailedOperation","type":"error"},{"anonymous":false,"inputs":[{"indexed":true,"internalType":"address","name":"oldWallet","type":"address"},{"indexed":true,"internalType":"address","name":"newWallet","type":"address"}],"name":"AdminBinaryWalletUpdated","type":"event"},{"anonymous":false,"inputs":[{"indexed":false,"internalType":"uint256","name":"batchNumber","type":"uint256"},{"indexed":false,"internalType":"uint256","name":"processedCount","type":"uint256"}],"name":"BinaryBatchProcessed","type":"event"},{"anonymous":false,"inputs":[{"indexed":false,"internalType":"uint256","name":"oldSize","type":"uint256"},{"indexed":false,"internalType":"uint256","name":"newSize","type":"uint256"}],"name":"BinaryBatchSizeUpdated","type":"event"},{"anonymous":false,"inputs":[{"indexed":true,"internalType":"address","name":"user","type":"address"},{"indexed":false,"internalType":"uint256","name":"flushedAmount","type":"uint256"}],"name":"BinaryFlushed","type":"event"},{"anonymous":false,"inputs":[{"indexed":true,"internalType":"address","name":"user","type":"address"},{"indexed":false,"internalType":"uint256","name":"amount","type":"uint256"}],"name":"BinaryIncomeAllocated","type":"event"},{"anonymous":false,"inputs":[{"indexed":true,"internalType":"address","name":"user","type":"address"},{"indexed":false,"internalType":"uint256","name":"amount","type":"uint256"}],"name":"BinaryIncomeClaimed","type":"event"},{"anonymous":false,"inputs":[{"indexed":true,"internalType":"address","name":"processor","type":"address"},{"indexed":false,"internalType":"bool","name":"status","type":"bool"}],"name":"BinaryProcessorUpdated","type":"event"},{"anonymous":false,"inputs":[{"indexed":true,"internalType":"address","name":"oldHandler","type":"address"},{"indexed":true,"internalType":"address","name":"newHandler","type":"address"}],"name":"BoardHandlerUpdated","type":"event"},{"anonymous":false,"inputs":[{"indexed":true,"internalType":"address","name":"user","type":"address"},{"indexed":false,"internalType":"uint256","name":"amount","type":"uint256"}],"name":"BtcPoolCredited","type":"event"},{"anonymous":false,"inputs":[{"indexed":true,"internalType":"address","name":"to","type":"address"},{"indexed":false,"internalType":"uint256","name":"amount","type":"uint256"}],"name":"ContractFundsWithdrawn","type":"event"},{"anonymous":false,"inputs":[{"indexed":false,"internalType":"enum MLMContract.Package","name":"pkg","type":"uint8"},{"indexed":false,"internalType":"uint256","name":"oldCap","type":"uint256"},{"indexed":false,"internalType":"uint256","name":"newCap","type":"uint256"}],"name":"DailyCappingUpdated","type":"event"},{"anonymous":false,"inputs":[{"indexed":true,"internalType":"address","name":"recipient","type":"address"},{"indexed":true,"internalType":"address","name":"from","type":"address"},{"indexed":false,"internalType":"uint256","name":"amount","type":"uint256"}],"name":"DirectIncomeDistributed","type":"event"},{"anonymous":false,"inputs":[{"indexed":true,"internalType":"address","name":"token","type":"address"},{"indexed":true,"internalType":"address","name":"to","type":"address"},{"indexed":false,"internalType":"uint256","name":"amount","type":"uint256"}],"name":"EmergencyTokenRecovery","type":"event"},{"anonymous":false,"inputs":[{"indexed":true,"internalType":"address","name":"oldRecipient","type":"address"},{"indexed":true,"internalType":"address","name":"newRecipient","type":"address"}],"name":"FeeRecipientUpdated","type":"event"},{"anonymous":false,"inputs":[{"indexed":true,"internalType":"address","name":"user","type":"address"},{"indexed":false,"internalType":"uint256","name":"userId","type":"uint256"},{"indexed":false,"internalType":"enum MLMContract.Package","name":"pkg","type":"uint8"},{"indexed":true,"internalType":"address","name":"sponsor","type":"address"}],"name":"FreeAccountActivated","type":"event"},{"anonymous":false,"inputs":[{"indexed":true,"internalType":"address","name":"user","type":"address"},{"indexed":false,"internalType":"uint256","name":"flushedAmount","type":"uint256"}],"name":"GracePeriodExpired","type":"event"},{"anonymous":false,"inputs":[{"indexed":true,"internalType":"address","name":"user","type":"address"},{"indexed":false,"internalType":"uint256","name":"startTime","type":"uint256"}],"name":"GracePeriodStarted","type":"event"},{"anonymous":false,"inputs":[{"indexed":true,"internalType":"address","name":"oldToken","type":"address"},{"indexed":true,"internalType":"address","name":"newToken","type":"address"}],"name":"MTokenUpdated","type":"event"},{"anonymous":false,"inputs":[{"indexed":true,"internalType":"address","name":"recipient","type":"address"},{"indexed":true,"internalType":"address","name":"from","type":"address"},{"indexed":false,"internalType":"uint256","name":"amount","type":"uint256"},{"indexed":false,"internalType":"uint256","name":"level","type":"uint256"}],"name":"MatchingOverrideDistributed","type":"event"},{"anonymous":false,"inputs":[{"indexed":false,"internalType":"enum MLMContract.Package","name":"pkg","type":"uint8"},{"indexed":false,"internalType":"uint256","name":"oldLimit","type":"uint256"},{"indexed":false,"internalType":"uint256","name":"newLimit","type":"uint256"}],"name":"MaxIncomeLimitUpdated","type":"event"},{"anonymous":false,"inputs":[{"indexed":true,"internalType":"address","name":"previousOwner","type":"address"},{"indexed":true,"internalType":"address","name":"newOwner","type":"address"}],"name":"OwnershipTransferred","type":"event"},{"anonymous":false,"inputs":[{"indexed":true,"internalType":"address","name":"user","type":"address"},{"indexed":false,"internalType":"enum MLMContract.Package","name":"pkg","type":"uint8"},{"indexed":false,"internalType":"uint256","name":"amountPaid","type":"uint256"}],"name":"PackageActivated","type":"event"},{"anonymous":false,"inputs":[{"indexed":false,"internalType":"enum MLMContract.Package","name":"pkg","type":"uint8"},{"indexed":false,"internalType":"uint256","name":"oldPrice","type":"uint256"},{"indexed":false,"internalType":"uint256","name":"newPrice","type":"uint256"}],"name":"PackagePriceUpdated","type":"event"},{"anonymous":false,"inputs":[{"indexed":true,"internalType":"address","name":"user","type":"address"},{"indexed":false,"internalType":"enum MLMContract.Package","name":"oldPkg","type":"uint8"},{"indexed":false,"internalType":"enum MLMContract.Package","name":"newPkg","type":"uint8"},{"indexed":false,"internalType":"uint256","name":"amountPaid","type":"uint256"}],"name":"PackageUpgraded","type":"event"},{"anonymous":false,"inputs":[{"indexed":false,"internalType":"address","name":"account","type":"address"}],"name":"Paused","type":"event"},{"anonymous":false,"inputs":[{"indexed":true,"internalType":"address","name":"oldToken","type":"address"},{"indexed":true,"internalType":"address","name":"newToken","type":"address"}],"name":"PaymentTokenUpdated","type":"event"},{"anonymous":false,"inputs":[{"indexed":true,"internalType":"address","name":"oldAddr","type":"address"},{"indexed":true,"internalType":"address","name":"newAddr","type":"address"}],"name":"ProductWalletUpdated","type":"event"},{"anonymous":false,"inputs":[{"indexed":true,"internalType":"address","name":"user","type":"address"}],"name":"ProfileUpdated","type":"event"},{"anonymous":false,"inputs":[{"indexed":true,"internalType":"address","name":"user","type":"address"},{"indexed":false,"internalType":"enum MLMContract.Package","name":"pkg","type":"uint8"},{"indexed":false,"internalType":"uint256","name":"amountPaid","type":"uint256"}],"name":"Reactivated","type":"event"},{"anonymous":false,"inputs":[{"indexed":true,"internalType":"address","name":"user","type":"address"},{"indexed":false,"internalType":"uint256","name":"amount","type":"uint256"}],"name":"TempWalletClaimed","type":"event"},{"anonymous":false,"inputs":[{"indexed":false,"internalType":"address","name":"account","type":"address"}],"name":"Unpaused","type":"event"},{"anonymous":false,"inputs":[{"indexed":true,"internalType":"address","name":"user","type":"address"},{"indexed":false,"internalType":"uint256","name":"userId","type":"uint256"},{"indexed":true,"internalType":"address","name":"sponsor","type":"address"},{"indexed":true,"internalType":"address","name":"binaryParent","type":"address"},{"indexed":false,"internalType":"enum MLMContract.Side","name":"side","type":"uint8"}],"name":"UserRegistered","type":"event"},{"anonymous":false,"inputs":[{"indexed":true,"internalType":"address","name":"user","type":"address"},{"indexed":false,"internalType":"uint256","name":"netAmount","type":"uint256"},{"indexed":false,"internalType":"uint256","name":"fee","type":"uint256"}],"name":"Withdrawal","type":"event"},{"anonymous":false,"inputs":[{"indexed":false,"internalType":"uint256","name":"oldFee","type":"uint256"},{"indexed":false,"internalType":"uint256","name":"newFee","type":"uint256"}],"name":"WithdrawalFeeUpdated","type":"event"},{"anonymous":false,"inputs":[{"indexed":true,"internalType":"address","name":"recipient","type":"address"},{"indexed":true,"internalType":"address","name":"from","type":"address"},{"indexed":false,"internalType":"uint256","name":"amount","type":"uint256"},{"indexed":false,"internalType":"uint256","name":"level","type":"uint256"}],"name":"WithdrawalMatchDistributed","type":"event"},{"anonymous":false,"inputs":[{"indexed":false,"internalType":"uint256","name":"oldRate","type":"uint256"},{"indexed":false,"internalType":"uint256","name":"newRate","type":"uint256"}],"name":"WithdrawalUsdtRateUpdated","type":"event"},{"inputs":[],"name":"BASIS_POINTS","outputs":[{"internalType":"uint256","name":"","type":"uint256"}],"stateMutability":"view","type":"function"},{"inputs":[],"name":"BTC_POOL_RATE","outputs":[{"internalType":"uint256","name":"","type":"uint256"}],"stateMutability":"view","type":"function"},{"inputs":[],"name":"GRACE_PERIOD_DURATION","outputs":[{"internalType":"uint256","name":"","type":"uint256"}],"stateMutability":"view","type":"function"},{"inputs":[],"name":"INCOME_SPLIT_RATE","outputs":[{"internalType":"uint256","name":"","type":"uint256"}],"stateMutability":"view","type":"function"},{"inputs":[],"name":"MATCHING_OVERRIDE_RATE","outputs":[{"internalType":"uint256","name":"","type":"uint256"}],"stateMutability":"view","type":"function"},{"inputs":[],"name":"MAX_USER_ID","outputs":[{"internalType":"uint256","name":"","type":"uint256"}],"stateMutability":"view","type":"function"},{"inputs":[],"name":"MIN_USER_ID","outputs":[{"internalType":"uint256","name":"","type":"uint256"}],"stateMutability":"view","type":"function"},{"inputs":[],"name":"PRODUCT_WALLET_RATE","outputs":[{"internalType":"uint256","name":"","type":"uint256"}],"stateMutability":"view","type":"function"},{"inputs":[],"name":"WITHDRAWAL_MATCH_POOL_RATE","outputs":[{"internalType":"uint256","name":"","type":"uint256"}],"stateMutability":"view","type":"function"},{"inputs":[{"internalType":"enum MLMContract.Package","name":"_pkg","type":"uint8"}],"name":"activatePackage","outputs":[],"stateMutability":"nonpayable","type":"function"},{"inputs":[{"internalType":"address","name":"_user","type":"address"},{"internalType":"uint256","name":"_sponsorId","type":"uint256"},{"internalType":"uint256","name":"_binaryParentId","type":"uint256"},{"internalType":"bool","name":"_placeLeft","type":"bool"},{"internalType":"enum MLMContract.Package","name":"_pkg","type":"uint8"}],"name":"adminActivateUser","outputs":[],"stateMutability":"nonpayable","type":"function"},{"inputs":[],"name":"adminBinaryWallet","outputs":[{"internalType":"address","name":"","type":"address"}],"stateMutability":"view","type":"function"},{"inputs":[{"internalType":"uint256","name":"","type":"uint256"}],"name":"allUsers","outputs":[{"internalType":"address","name":"","type":"address"}],"stateMutability":"view","type":"function"},{"inputs":[{"internalType":"uint256","name":"_batchNumber","type":"uint256"}],"name":"autoDistributeBinaryIncome","outputs":[],"stateMutability":"nonpayable","type":"function"},{"inputs":[{"internalType":"address[]","name":"_users","type":"address[]"}],"name":"batchFlushGracePeriods","outputs":[],"stateMutability":"nonpayable","type":"function"},{"inputs":[],"name":"binaryBatchSize","outputs":[{"internalType":"uint256","name":"","type":"uint256"}],"stateMutability":"view","type":"function"},{"inputs":[{"internalType":"address","name":"","type":"address"}],"name":"boardEntryCount","outputs":[{"internalType":"uint256","name":"","type":"uint256"}],"stateMutability":"view","type":"function"},{"inputs":[],"name":"boardHandler","outputs":[{"internalType":"contract IBoardMatrixHandler","name":"","type":"address"}],"stateMutability":"view","type":"function"},{"inputs":[{"internalType":"address","name":"","type":"address"}],"name":"btcPoolBalance","outputs":[{"internalType":"uint256","name":"","type":"uint256"}],"stateMutability":"view","type":"function"},{"inputs":[],"name":"claimBinaryIncome","outputs":[],"stateMutability":"nonpayable","type":"function"},{"inputs":[{"internalType":"uint256","name":"","type":"uint256"}],"name":"dailyCapping","outputs":[{"internalType":"uint256","name":"","type":"uint256"}],"stateMutability":"view","type":"function"},{"inputs":[{"internalType":"uint256","name":"","type":"uint256"}],"name":"directRates","outputs":[{"internalType":"uint256","name":"","type":"uint256"}],"stateMutability":"view","type":"function"},{"inputs":[{"internalType":"address","name":"","type":"address"},{"internalType":"uint256","name":"","type":"uint256"}],"name":"directReferrals","outputs":[{"internalType":"address","name":"","type":"address"}],"stateMutability":"view","type":"function"},{"inputs":[],"name":"enterBoardPool","outputs":[],"stateMutability":"nonpayable","type":"function"},{"inputs":[],"name":"feeRecipient","outputs":[{"internalType":"address","name":"","type":"address"}],"stateMutability":"view","type":"function"},{"inputs":[{"internalType":"address","name":"_user","type":"address"}],"name":"flushGracePeriod","outputs":[],"stateMutability":"nonpayable","type":"function"},{"inputs":[{"internalType":"uint256","name":"_userId","type":"uint256"}],"name":"getAddressByUserId","outputs":[{"internalType":"address","name":"","type":"address"}],"stateMutability":"view","type":"function"},{"inputs":[{"internalType":"address","name":"_user","type":"address"}],"name":"getBinaryInfo","outputs":[{"internalType":"uint256","name":"leftBusiness","type":"uint256"},{"internalType":"uint256","name":"rightBusiness","type":"uint256"},{"internalType":"uint256","name":"carryLeft","type":"uint256"},{"internalType":"uint256","name":"carryRight","type":"uint256"},{"internalType":"uint256","name":"todayBinaryIncome","type":"uint256"},{"internalType":"uint256","name":"dailyCap","type":"uint256"},{"internalType":"uint256","name":"claimableBinaryIncome","type":"uint256"},{"internalType":"uint256","name":"binaryDepth","type":"uint256"}],"stateMutability":"view","type":"function"},{"inputs":[{"internalType":"address","name":"_user","type":"address"}],"name":"getBinarySlabInfo","outputs":[{"internalType":"uint256[4]","name":"carryLeftSlabs","type":"uint256[4]"},{"internalType":"uint256[4]","name":"carryRightSlabs","type":"uint256[4]"},{"internalType":"uint256[4]","name":"matchableSlabs","type":"uint256[4]"},{"internalType":"uint256[4]","name":"potentialIncomeSlabs","type":"uint256[4]"},{"internalType":"uint256[4]","name":"rates","type":"uint256[4]"}],"stateMutability":"view","type":"function"},{"inputs":[{"internalType":"uint256","name":"_boardLevel","type":"uint256"}],"name":"getBoardCurrentIndex","outputs":[{"internalType":"uint256","name":"","type":"uint256"}],"stateMutability":"view","type":"function"},{"inputs":[{"internalType":"uint256","name":"_boardLevel","type":"uint256"},{"internalType":"uint256","name":"_index","type":"uint256"}],"name":"getBoardMatrixInfo","outputs":[{"internalType":"address","name":"owner","type":"address"},{"internalType":"uint256","name":"filledCount","type":"uint256"},{"internalType":"bool","name":"completed","type":"bool"}],"stateMutability":"view","type":"function"},{"inputs":[{"internalType":"uint256","name":"_boardLevel","type":"uint256"}],"name":"getBoardPrice","outputs":[{"internalType":"uint256","name":"","type":"uint256"}],"stateMutability":"view","type":"function"},{"inputs":[{"internalType":"uint256","name":"_boardLevel","type":"uint256"}],"name":"getBoardQueueLength","outputs":[{"internalType":"uint256","name":"","type":"uint256"}],"stateMutability":"view","type":"function"},{"inputs":[{"internalType":"address","name":"_user","type":"address"}],"name":"getBtcPoolBalance","outputs":[{"internalType":"uint256","name":"","type":"uint256"}],"stateMutability":"view","type":"function"},{"inputs":[],"name":"getContractBalance","outputs":[{"internalType":"uint256","name":"","type":"uint256"}],"stateMutability":"view","type":"function"},{"inputs":[{"internalType":"address","name":"_user","type":"address"}],"name":"getDirectReferrals","outputs":[{"internalType":"address[]","name":"","type":"address[]"}],"stateMutability":"view","type":"function"},{"inputs":[{"internalType":"address","name":"_user","type":"address"},{"internalType":"uint256","name":"_offset","type":"uint256"},{"internalType":"uint256","name":"_limit","type":"uint256"}],"name":"getDirectReferralsPaginated","outputs":[{"internalType":"address[]","name":"referrals","type":"address[]"},{"internalType":"uint256","name":"total","type":"uint256"}],"stateMutability":"view","type":"function"},{"inputs":[{"internalType":"address","name":"_user","type":"address"}],"name":"getIncomeInfo","outputs":[{"internalType":"uint256","name":"totalDirectIncome","type":"uint256"},{"internalType":"uint256","name":"totalBinaryIncome","type":"uint256"},{"internalType":"uint256","name":"totalMatchingOverrideIncome","type":"uint256"},{"internalType":"uint256","name":"totalWithdrawalMatchIncome","type":"uint256"},{"internalType":"uint256","name":"totalEarnings","type":"uint256"},{"internalType":"uint256","name":"totalWithdrawn","type":"uint256"},{"internalType":"uint256","name":"maxIncome","type":"uint256"}],"stateMutability":"view","type":"function"},{"inputs":[{"internalType":"enum MLMContract.Package","name":"_pkg","type":"uint8"}],"name":"getMaxIncomeLimit","outputs":[{"internalType":"uint256","name":"","type":"uint256"}],"stateMutability":"view","type":"function"},{"inputs":[{"internalType":"enum MLMContract.Package","name":"_pkg","type":"uint8"}],"name":"getPackagePrice","outputs":[{"internalType":"uint256","name":"","type":"uint256"}],"stateMutability":"view","type":"function"},{"inputs":[{"internalType":"address","name":"_user","type":"address"}],"name":"getProfile","outputs":[{"internalType":"string","name":"displayName","type":"string"},{"internalType":"string","name":"email","type":"string"},{"internalType":"string","name":"phone","type":"string"},{"internalType":"string","name":"country","type":"string"},{"internalType":"bool","name":"profileSet","type":"bool"}],"stateMutability":"view","type":"function"},{"inputs":[],"name":"getTotalBatches","outputs":[{"internalType":"uint256","name":"","type":"uint256"}],"stateMutability":"view","type":"function"},{"inputs":[],"name":"getTotalUsers","outputs":[{"internalType":"uint256","name":"","type":"uint256"}],"stateMutability":"view","type":"function"},{"inputs":[{"internalType":"uint256","name":"_index","type":"uint256"}],"name":"getUserByIndex","outputs":[{"internalType":"address","name":"","type":"address"}],"stateMutability":"view","type":"function"},{"inputs":[{"internalType":"address","name":"_user","type":"address"}],"name":"getUserIdByAddress","outputs":[{"internalType":"uint256","name":"","type":"uint256"}],"stateMutability":"view","type":"function"},{"inputs":[{"internalType":"address","name":"_user","type":"address"}],"name":"getUserInfo","outputs":[{"internalType":"uint256","name":"userId","type":"uint256"},{"internalType":"address","name":"sponsor","type":"address"},{"internalType":"address","name":"binaryParent","type":"address"},{"internalType":"address","name":"leftChild","type":"address"},{"internalType":"address","name":"rightChild","type":"address"},{"internalType":"enum MLMContract.Side","name":"placementSide","type":"uint8"},{"internalType":"enum MLMContract.Package","name":"userPackage","type":"uint8"},{"internalType":"enum MLMContract.Status","name":"status","type":"uint8"},{"internalType":"uint256","name":"walletBalance","type":"uint256"},{"internalType":"uint256","name":"tempWalletBalance","type":"uint256"},{"internalType":"uint256","name":"totalEarnings","type":"uint256"},{"internalType":"uint256","name":"directReferralCount","type":"uint256"},{"internalType":"uint256","name":"joinedAt","type":"uint256"}],"stateMutability":"view","type":"function"},{"inputs":[{"internalType":"address","name":"_user","type":"address"}],"name":"getUserTransactionCount","outputs":[{"internalType":"uint256","name":"","type":"uint256"}],"stateMutability":"view","type":"function"},{"inputs":[{"internalType":"address","name":"_user","type":"address"},{"internalType":"uint256","name":"_offset","type":"uint256"},{"internalType":"uint256","name":"_limit","type":"uint256"}],"name":"getUserTransactionsPaginated","outputs":[{"internalType":"enum MLMContract.TxType[]","name":"txTypes","type":"uint8[]"},{"internalType":"uint256[]","name":"amounts","type":"uint256[]"},{"internalType":"uint256[]","name":"timestamps","type":"uint256[]"},{"internalType":"address[]","name":"relatedUsers","type":"address[]"},{"internalType":"uint8[]","name":"extraDatas","type":"uint8[]"},{"internalType":"uint256","name":"total","type":"uint256"}],"stateMutability":"view","type":"function"},{"inputs":[{"internalType":"address","name":"","type":"address"}],"name":"isBinaryProcessor","outputs":[{"internalType":"bool","name":"","type":"bool"}],"stateMutability":"view","type":"function"},{"inputs":[{"internalType":"address","name":"","type":"address"}],"name":"isFreeAccount","outputs":[{"internalType":"bool","name":"","type":"bool"}],"stateMutability":"view","type":"function"},{"inputs":[{"internalType":"address","name":"","type":"address"}],"name":"isRegistered","outputs":[{"internalType":"bool","name":"","type":"bool"}],"stateMutability":"view","type":"function"},{"inputs":[{"internalType":"address","name":"_user","type":"address"},{"internalType":"uint256","name":"_price","type":"uint256"},{"internalType":"uint256","name":"_boardLevel","type":"uint256"}],"name":"logBoardEntry","outputs":[],"stateMutability":"nonpayable","type":"function"},{"inputs":[{"internalType":"address","name":"_user","type":"address"},{"internalType":"uint256","name":"_reward","type":"uint256"},{"internalType":"uint256","name":"_boardLevel","type":"uint256"}],"name":"logBoardReward","outputs":[],"stateMutability":"nonpayable","type":"function"},{"inputs":[],"name":"mToken","outputs":[{"internalType":"contract IERC20","name":"","type":"address"}],"stateMutability":"view","type":"function"},{"inputs":[{"internalType":"uint256","name":"","type":"uint256"}],"name":"matchingOverrideMaxLevels","outputs":[{"internalType":"uint256","name":"","type":"uint256"}],"stateMutability":"view","type":"function"},{"inputs":[{"internalType":"uint256","name":"","type":"uint256"}],"name":"maxIncomeLimit","outputs":[{"internalType":"uint256","name":"","type":"uint256"}],"stateMutability":"view","type":"function"},{"inputs":[],"name":"owner","outputs":[{"internalType":"address","name":"","type":"address"}],"stateMutability":"view","type":"function"},{"inputs":[{"internalType":"uint256","name":"","type":"uint256"}],"name":"packagePrices","outputs":[{"internalType":"uint256","name":"","type":"uint256"}],"stateMutability":"view","type":"function"},{"inputs":[],"name":"pause","outputs":[],"stateMutability":"nonpayable","type":"function"},{"inputs":[],"name":"paused","outputs":[{"internalType":"bool","name":"","type":"bool"}],"stateMutability":"view","type":"function"},{"inputs":[],"name":"paymentToken","outputs":[{"internalType":"contract IERC20","name":"","type":"address"}],"stateMutability":"view","type":"function"},{"inputs":[],"name":"productWallet","outputs":[{"internalType":"address","name":"","type":"address"}],"stateMutability":"view","type":"function"},{"inputs":[{"internalType":"enum MLMContract.Package","name":"_pkg","type":"uint8"}],"name":"reactivate","outputs":[],"stateMutability":"nonpayable","type":"function"},{"inputs":[{"internalType":"address","name":"_token","type":"address"},{"internalType":"address","name":"_to","type":"address"},{"internalType":"uint256","name":"_amount","type":"uint256"}],"name":"recoverToken","outputs":[],"stateMutability":"nonpayable","type":"function"},{"inputs":[{"internalType":"uint256","name":"_sponsorId","type":"uint256"},{"internalType":"uint256","name":"_binaryParentId","type":"uint256"},{"internalType":"bool","name":"_placeLeft","type":"bool"}],"name":"register","outputs":[],"stateMutability":"nonpayable","type":"function"},{"inputs":[],"name":"renounceOwnership","outputs":[],"stateMutability":"nonpayable","type":"function"},{"inputs":[],"name":"repurchase","outputs":[],"stateMutability":"nonpayable","type":"function"},{"inputs":[{"internalType":"address","name":"_wallet","type":"address"}],"name":"setAdminBinaryWallet","outputs":[],"stateMutability":"nonpayable","type":"function"},{"inputs":[{"internalType":"uint256","name":"_size","type":"uint256"}],"name":"setBinaryBatchSize","outputs":[],"stateMutability":"nonpayable","type":"function"},{"inputs":[{"internalType":"address","name":"_processor","type":"address"},{"internalType":"bool","name":"_status","type":"bool"}],"name":"setBinaryProcessor","outputs":[],"stateMutability":"nonpayable","type":"function"},{"inputs":[{"internalType":"address","name":"_handler","type":"address"}],"name":"setBoardHandler","outputs":[],"stateMutability":"nonpayable","type":"function"},{"inputs":[{"internalType":"enum MLMContract.Package","name":"_pkg","type":"uint8"},{"internalType":"uint256","name":"_cap","type":"uint256"}],"name":"setDailyCapping","outputs":[],"stateMutability":"nonpayable","type":"function"},{"inputs":[{"internalType":"address","name":"_newRecipient","type":"address"}],"name":"setFeeRecipient","outputs":[],"stateMutability":"nonpayable","type":"function"},{"inputs":[{"internalType":"address","name":"_token","type":"address"}],"name":"setMToken","outputs":[],"stateMutability":"nonpayable","type":"function"},{"inputs":[{"internalType":"enum MLMContract.Package","name":"_pkg","type":"uint8"},{"internalType":"uint256","name":"_limit","type":"uint256"}],"name":"setMaxIncomeLimit","outputs":[],"stateMutability":"nonpayable","type":"function"},{"inputs":[{"internalType":"enum MLMContract.Package","name":"_pkg","type":"uint8"},{"internalType":"uint256","name":"_price","type":"uint256"}],"name":"setPackagePrice","outputs":[],"stateMutability":"nonpayable","type":"function"},{"inputs":[{"internalType":"address","name":"_wallet","type":"address"}],"name":"setProductWallet","outputs":[],"stateMutability":"nonpayable","type":"function"},{"inputs":[{"internalType":"string","name":"_displayName","type":"string"},{"internalType":"string","name":"_email","type":"string"},{"internalType":"string","name":"_phone","type":"string"},{"internalType":"string","name":"_country","type":"string"}],"name":"setProfile","outputs":[],"stateMutability":"nonpayable","type":"function"},{"inputs":[{"internalType":"uint256","name":"_feeBasisPoints","type":"uint256"}],"name":"setWithdrawalFee","outputs":[],"stateMutability":"nonpayable","type":"function"},{"inputs":[{"internalType":"uint256","name":"_rateBasisPoints","type":"uint256"}],"name":"setWithdrawalUsdtRate","outputs":[],"stateMutability":"nonpayable","type":"function"},{"inputs":[{"internalType":"uint256","name":"","type":"uint256"}],"name":"slabRates","outputs":[{"internalType":"uint256","name":"","type":"uint256"}],"stateMutability":"view","type":"function"},{"inputs":[],"name":"tokenDecimals","outputs":[{"internalType":"uint8","name":"","type":"uint8"}],"stateMutability":"view","type":"function"},{"inputs":[],"name":"totalBinaryFlushed","outputs":[{"internalType":"uint256","name":"","type":"uint256"}],"stateMutability":"view","type":"function"},{"inputs":[{"internalType":"address","name":"newOwner","type":"address"}],"name":"transferOwnership","outputs":[],"stateMutability":"nonpayable","type":"function"},{"inputs":[],"name":"unpause","outputs":[],"stateMutability":"nonpayable","type":"function"},{"inputs":[{"internalType":"address","name":"_token","type":"address"},{"internalType":"uint8","name":"_decimals","type":"uint8"}],"name":"updatePaymentToken","outputs":[],"stateMutability":"nonpayable","type":"function"},{"inputs":[{"internalType":"uint256","name":"","type":"uint256"}],"name":"userIdTaken","outputs":[{"internalType":"bool","name":"","type":"bool"}],"stateMutability":"view","type":"function"},{"inputs":[{"internalType":"uint256","name":"","type":"uint256"}],"name":"userIdToAddress","outputs":[{"internalType":"address","name":"","type":"address"}],"stateMutability":"view","type":"function"},{"inputs":[{"internalType":"address","name":"","type":"address"}],"name":"users","outputs":[{"internalType":"uint256","name":"userId","type":"uint256"},{"internalType":"address","name":"sponsor","type":"address"},{"internalType":"address","name":"binaryParent","type":"address"},{"internalType":"address","name":"leftChild","type":"address"},{"internalType":"address","name":"rightChild","type":"address"},{"internalType":"enum MLMContract.Side","name":"placementSide","type":"uint8"},{"internalType":"enum MLMContract.Package","name":"userPackage","type":"uint8"},{"internalType":"enum MLMContract.Status","name":"status","type":"uint8"},{"internalType":"uint256","name":"walletBalance","type":"uint256"},{"internalType":"uint256","name":"tempWalletBalance","type":"uint256"},{"internalType":"uint256","name":"totalDirectIncome","type":"uint256"},{"internalType":"uint256","name":"totalBinaryIncome","type":"uint256"},{"internalType":"uint256","name":"totalMatchingOverrideIncome","type":"uint256"},{"internalType":"uint256","name":"totalWithdrawalMatchIncome","type":"uint256"},{"internalType":"uint256","name":"totalEarnings","type":"uint256"},{"internalType":"uint256","name":"leftBusiness","type":"uint256"},{"internalType":"uint256","name":"rightBusiness","type":"uint256"},{"internalType":"uint256","name":"carryLeft","type":"uint256"},{"internalType":"uint256","name":"carryRight","type":"uint256"},{"internalType":"uint256","name":"todayBinaryIncome","type":"uint256"},{"internalType":"uint256","name":"lastBinaryResetDay","type":"uint256"},{"internalType":"uint256","name":"directReferralCount","type":"uint256"},{"internalType":"uint256","name":"gracePeriodStart","type":"uint256"},{"internalType":"uint256","name":"joinedAt","type":"uint256"},{"internalType":"uint256","name":"totalWithdrawn","type":"uint256"},{"internalType":"uint256","name":"claimableBinaryIncome","type":"uint256"},{"internalType":"uint256","name":"binaryDepth","type":"uint256"},{"internalType":"string","name":"displayName","type":"string"},{"internalType":"string","name":"email","type":"string"},{"internalType":"string","name":"phone","type":"string"},{"internalType":"string","name":"country","type":"string"},{"internalType":"bool","name":"profileSet","type":"bool"}],"stateMutability":"view","type":"function"},{"inputs":[{"internalType":"uint256","name":"_amount","type":"uint256"}],"name":"withdraw","outputs":[],"stateMutability":"nonpayable","type":"function"},{"inputs":[{"internalType":"address","name":"_to","type":"address"},{"internalType":"uint256","name":"_amount","type":"uint256"}],"name":"withdrawContractFunds","outputs":[],"stateMutability":"nonpayable","type":"function"},{"inputs":[],"name":"withdrawalFee","outputs":[{"internalType":"uint256","name":"","type":"uint256"}],"stateMutability":"view","type":"function"},{"inputs":[{"internalType":"uint256","name":"","type":"uint256"}],"name":"withdrawalMatchMaxLevels","outputs":[{"internalType":"uint256","name":"","type":"uint256"}],"stateMutability":"view","type":"function"},{"inputs":[],"name":"withdrawalUsdtRate","outputs":[{"internalType":"uint256","name":"","type":"uint256"}],"stateMutability":"view","type":"function"}],"evm":{"bytecode":{"linkReferences":{},"object":"6080346200057857601f620063e038819003918201601f19168301916001600160401b03831184841017620004fd5780849260809460405283398101031262000578576200004d816200059d565b9060208101519060ff8216820362000578576200007b606062000073604084016200059d565b92016200059d565b9233156200055f5760008054336001600160a01b0319821681178355916001600160a01b03909116907f8be0079c531659141344cd1fd0a4f28419497f9722a3daafe3b4186f6b6457e09080a360017f9b779b17422d0df92223018b32b4d1fa46e071723d6817e2486d003becc55f00556127106006556032600e55620001016200057d565b600081526101f460208201526103e860408201526105dc60608201526107d060808201526109c460a0820152610bb860c082015260005b60078110620005455750506200014d6200057d565b60008152600160208201526003604082015260066060820152600a6080820152600f60a0820152601460c082015260005b600781106200052c575050620001936200057d565b6000815260016020820152600360408201526005606082015260096080820152600c60a0820152600f60c082015260005b60078110620005135750506040516001600160401b036080820190811190821117620004fd5760808101604052610bb881526107d060208201526103e860408201526101f4606082015260005b60048110620004e75750506001600160a01b0316908115620004bd576001600160a01b031692831562000493576001600160a01b03169081156200046957600180546001600160a01b03199081169290921790556002805460ff60a01b191660a085901b60ff60a01b16179055600380548216851790556004805482169094178455601580549091169190911790556000600555604d60ff821611620003eb5760ff16600a0a90600060175581603202603281048303620003eb57806018558260c80260c88104840362000454578060195561025884810290810485036200043f5780601a556104b09085820291820486036200042a5781601b55610960928684029384048703620004155783601c556112c0948786029586048803620004005785601d556000602555602655602755602855602955602a55602b556000602c558160fa0260fa81048303620003eb57602d55816103e8026103e881048303620003eb57602e5581610bb802610bb881048303620003eb57602f556117708281029081048303620003eb57603055612ee08281029081048303620003eb57603155615dc09180830292830403620003d65750603255604051615e2d9081620005b38239f35b601190634e487b7160e01b6000525260246000fd5b601182634e487b7160e01b6000525260246000fd5b601187634e487b7160e01b6000525260246000fd5b601186634e487b7160e01b6000525260246000fd5b601185634e487b7160e01b6000525260246000fd5b601184634e487b7160e01b6000525260246000fd5b601183634e487b7160e01b6000525260246000fd5b60405162461bcd60e51b8152602060048201526002602482015261494160f01b6044820152606490fd5b60405162461bcd60e51b815260206004820152600260248201526124a360f11b6044820152606490fd5b60405162461bcd60e51b8152602060048201526002602482015261125560f21b6044820152606490fd5b6001906020835193019281604101550162000211565b634e487b7160e01b600052604160045260246000fd5b600190602060ff84511693019281603a015501620001c4565b600190602060ff8451169301928160330155016200017e565b600190602061ffff84511693019281601e01550162000138565b604051631e4fbdf760e01b815260006004820152602490fd5b600080fd5b6040519060e082016001600160401b03811183821017620004fd57604052565b51906001600160a01b0382168203620005785756fe610300604052600436101561001357600080fd5b60008060805280803560e01c908163012685f4146149be5781630327ef49146148f557816305ad3935146148955781630b6a9539146148625781630d57a79c146148365781630f53a47014614774578163179bd5c8146147485781631915d956146146b75781631cdc545c146146355781631d64e593146146155781632bbf1a30146144455781632c2896b3146144045781632e1888b8146143895781632e1a7d4d14613db85781632eee563e146139475781633013ce291461391c57816331e1f29b1461380b578163385399f9146138c45781633ac272c21461386d5781633b97e856146138475781633d6bacf31461380b5781633f4ba83a146137935781634286064e146137675781634526b4aa14613747578163463cffe61461370657816346904840146136db57816347cd5191146136565781634b695586146135ca57816355509c8f14612fda578163556415d914612fbb57816357f0140a14612c495781635a1faeb914612c1d5781635c975abb14612bf65781636207f522146127f2578163624a893d146127d25781636386c1c7146126ca57816369e94f4d146126535781636aa6c0ce1461240b5781636d0364d7146121295781636e0881da146123ec5781636f9fb98a1461235c5781637115bba7146118cb578163715018a6146123105781637feef9d6146122735781638225757b1461220a5781638456cb59146121a157816385f8f11b146121755781638bc7e8c4146121555781638d7b5690146121295781638da5cb5b1461210057816392167de21461207557816392446e30146118cb5781639726b9f214611dc85781639a688a9914611d515781639be572f614611d31578163a2bdedf414611d08578163a7229fd914611c7f578163a87430ba1461195c578163ac1e5025146118d0578163ac6c264e146118cb578163b169520114611895578163b33dd0c914611869578163b882c4d8146117f2578163bbc18f6f146117d2578163befbe97d14611725578163c24be7fb14611428578163c3b6f939146113fd578163c3c5a547146113bc578163c9d484cf14611391578163ce0b21221461123c578163d117de0314611211578163d24af2b81461119f578163d2c8e0e514611103578163d4a902861461103a578163d58c617214610db0578163d8f3384014610d74578163d9c842fd14610d3c578163d9f9f63f14610c11578163e1f1c4a714610bf2578163e3ba9bda14610b7b578163e4093a66146108e0578163e561dddc146108bd578163e63619a514610890578163e74b981b1461081b578163eb63e1c214610786578163ecdc59071461071c578163ece2bc231461066a578163ef2c5c501461064a578163f00b009314610611578163f2fde38b1461059657508063fc3c8a0c1461056d578063fc4a36f614610551578063fdc65d6e1461049e5763ff5d32fe1461042f57600080fd5b3461049b57602036600319011261049b57600435600b5481101561047157610458602091614b53565b905460405160039290921b1c6001600160a01b03168152f35b60405162461bcd60e51b815260206004820152600260248201526127a160f11b6044820152606490fd5b80fd5b503461049b576104ad36614bec565b906104b6614e14565b60078110158061053d5760018210158061052e575b6104d490615161565b61051a5790816105147f36152e7515aada41257500317963ea57c35904a845e67c595f4e110377a08f209360170192808454945560405193849384615d18565b0390a180f35b634e487b7160e01b83526021600452602483fd5b505060805160068211156104cb565b634e487b7160e01b84526021600452602484fd5b503461049b578060031936011261049b57602060405160648152f35b503461049b578060031936011261049b576004546040516001600160a01b039091168152602090f35b90503461060d57602036600319011261060d576105b1614a9d565b906105ba614e14565b6001600160a01b039182169182156105f45781546001600160a01b03198116841783551690600080516020615d988339815191529080a380f35b604051631e4fbdf760e01b815260048101859052602490fd5b5080fd5b823461049b57602036600319011261049b576020906040906001600160a01b03610639614a9d565b168152601383522054604051908152f35b823461049b578060031936011261049b57602060405164e8d4a50fff8152f35b823461049b57602036600319011261049b576001600160a01b0361068c614a9d565b168152600760205260408120600c81015490600d81015490600e810154600f82015460188301549060ff600485015460a81c1660078110156107085761010097506025015492601f601e86015495015495604051978852602088015260408701526060860152608085015260a084015260c083015260e0820152f35b634e487b7160e01b88526021600452602488fd5b823461049b5761078361072e36614ab8565b909160018060a01b0390610747826014541633146157a2565b168452600c60205260ff60408520916040519361076385614ce4565b6008855260208501524260408501528560608501521660808301526151d2565b80f35b823461049b576020918260031936011261060d576014546040516375b1f0e160e11b8152600480359082015291908490839060249082906001600160a01b03165afa92831561080f57926107df575b5050604051908152f35b9091508282813d8311610808575b6107f78183614d4b565b8101031261049b57505182806107d5565b503d6107ed565b604051903d90823e3d90fd5b823461049b57602036600319011261049b57610835614a9d565b61083d614e14565b6001600160a01b0390811690610854821515615ce7565b600380546001600160a01b031981168417909155167faaebcf1bfa00580e41d966056b48521fa9f202645c86d4ddf28113e617c1b1d38380a380f35b823461049b57602036600319011261049b57600435600781101561060d5760209060170154604051908152f35b823461049b578060031936011261049b5760206108d8615d35565b604051908152f35b905034610abf576080518060031936011261049b57506108fe615369565b610906614f83565b336080515260206008815261092360ff6040608051205416615130565b336080515260078152600160ff6004604060805120015460b01c1661094781614c60565b148015610b4b575b610958906157a2565b6014546001600160a01b03919082168015610b215781602491604051928380926347cd519160e01b8252600160048301525afa908115610ab25760805191610af0575b50336080515260128252806040608051205410610ac55790610a2c913360805152601282526040608051206109d1828254614fa4565b90553360805152601382526040608051206109ec8154614f74565b90553360805152600c82526040608051209060405192610a0b84614ce4565b600884528301524260408301526080516060830152600160808301526151d2565b6014541690813b15610abf576040519163686a38bd60e01b8352336004840152600160248401528260448160805180945af18015610ab257610a7f575b826001600080516020615dd88339815191525580f35b9091506001600160401b038211610a9e57506040526080513880610a69565b634e487b7160e01b81526041600452602490fd5b6040513d608051823e3d90fd5b60805180fd5b60405162461bcd60e51b815260048101839052600360248201526204942560ec1b6044820152606490fd5b90508181813d8311610b1a575b610b078183614d4b565b81010312610b1657513861099b565b8380fd5b503d610afd565b60405162461bcd60e51b8152600481018390526002602482015261084960f31b6044820152606490fd5b50336080515260078152610958600260ff6004604060805120015460b01c16610b7381614c60565b14905061094f565b34610abf576020366003190112610abf57610b94614a9d565b610b9c614e14565b6001600160a01b03908116610bb2811515615ce7565b601480546001600160a01b03198116831790915560805192167f8e4ac8019922eea64e9103a076c60b36ec30c71c863a376d6557ab9f6734c4848380a380f35b34610abf576080518060031936011261049b5760206040516127108152f35b34610abf57602080600319360112610abf57610c2b614a9d565b610c33614e14565b60018060a01b0316806080515260088252610c5660ff6040608051205416615130565b8060805152600782526040608051209160048301805490600260ff8360b01c16610c7f81614c60565b03610d1257601b8501546202a3008101809111610cfa57421115610cd0576006600080516020615db883398151915294950191825492608051905560ff60b01b19169055604051908152a260805180f35b60405162461bcd60e51b8152600481018490526002602482015261474560f01b6044820152606490fd5b634e487b7160e01b6080515260116004526024608051fd5b60405162461bcd60e51b81526004810184905260026024820152614e4760f01b6044820152606490fd5b34610abf57610d6a610d56610d5036614ab8565b91615ab1565b604051928392604084526040840190614b16565b9060208301520390f35b34610abf576020366003190112610abf576001600160a01b03610d95614a9d565b1660805152600c602052602060406080512054604051908152f35b34610abf576080518060031936011261049b57610dcb615369565b610dd3614f83565b3360805152602060088152610df060ff6040608051205416615130565b336080515260078152604060805120906004820190815460ff8160b01c16610e1781614c60565b8015908115611026575b5015610ffc5760a81c60ff166007811015610fe45760018110610fba57601701549160018060a01b0393610e5d848660015416309033906152fc565b6018600160b01b60ff60b01b198454161791828455608051918183600b8194015582600682015582601b8201550155339052600c83526080519060ff604083209160a81c16916007831015610fa3575091610ee560ff92869460405191610ec383614ce4565b60805183528688840152426040840152608051606084015260808301526151d2565b5460a81c1691610ef86040518094614c80565b8201527f0f71a293b26be95a1c2120e73a1712c62b20f254ae47eff7f6e799402984e6ab60403392a261177091828202928284041482151715610cfa57610f47612710610f6d94048093614fa4565b816004541680151580610f9a575b610f85575b505050610f678133615399565b336154c4565b6001600080516020615dd88339815191525560805180f35b610f92926001541661527b565b828080610f5a565b50811515610f55565b634e487b7160e01b90526021600452608051602490fd5b60405162461bcd60e51b815260048101839052600260248201526104e560f41b6044820152606490fd5b634e487b7160e01b6080515260216004526024608051fd5b60405162461bcd60e51b81526004810183905260026024820152614d4960f01b6044820152606490fd5b6002915061103381614c60565b1485610e21565b34610abf576040366003190112610abf57601454604051636a54814360e11b8152600480359082015260248035908201526001600160a01b03916060908290604490829086165afa8015610ab25760805191829083926110ae575b5060609360405193168352602083015215156040820152f35b925050506060813d82116110fb575b816110ca60609383614d4b565b81010312610abf578051918083168303610abf57604060208301519201518015158103610abf579092916060611095565b3d91506110bd565b34610abf57602080600319360112610abf576001600160a01b039081611127614a9d565b1660805152600a81526040608051209160405180938491848254918281520191608051526080519385852094905b8683831061118357859061116b82870383614d4b565b61117f604051928284938452830190614b16565b0390f35b8654821685526001968701968996509401939190910190611155565b34610abf5761120b6111b036614ab8565b909160018060a01b03906111c9826014541633146157a2565b1660805152600c60205260ff60406080512091604051936111e985614ce4565b60098552602085015242604085015260805160608501521660808301526151d2565b60805180f35b34610abf576080518060031936011261049b576015546040516001600160a01b039091168152602090f35b34610abf57602080600319360112610abf57600435906001600160401b0390818311610abf5736602384011215610abf578260040135918211610abf57602492600590368585841b83010111610abf57611294614e14565b6080515b8481106112a55760805180f35b80831b82018601356001600160a01b0381169190829003610abf578160805152600885526080519160ff928360408220541615611385576040906007885220600481019360028554918260b01c166112fc81614c60565b0361137857601b820154906202a300820180921161136157611352958992421115611357576006600080516020615db8833981519152940191825492608051905560ff60b01b19169055604051908152a2614f74565b611298565b5050505050614f74565b8a634e487b7160e01b608051526011600452608051fd5b5050506113529150614f74565b50506113529150614f74565b34610abf576080518060031936011261049b576014546040516001600160a01b039091168152602090f35b34610abf576020366003190112610abf576001600160a01b036113dd614a9d565b16608051526008602052602060ff60406080512054166040519015158152f35b34610abf576080518060031936011261049b576002546040516001600160a01b039091168152602090f35b34610abf576060366003190112610abf576024359060443590811515820361049b5750611453614f83565b33608051526020916008835261147260ff604060805120541615614e40565b608051600b5461165d575050506080518091815b61148e614fb1565b91826080515260108152608051604081209060ff1991600183825416179055600f8352604081209060018060a01b031991338382541617905533905260078352604060805120858155600181019660018060a01b038091169788848254161790556002820198169788838254161790556004810161150c8682614ed3565b805460ff60b01b1916905542601c8201556080518815801592918a91819061165157505260078552608051601f604082200154906001820180921161163a5750601f90915b01556115e7575b50846115ac575b33608051526008825260016040608051209182541617905561158033614f1a565b60405192835261158f82614c60565b820152600080516020615d7883398151915260403392a460805180f35b8460805152600a82526115c433604060805120614f57565b846080515260078252601a604060805120016115e08154614f74565b905561155f565b6115f084614c60565b6001840361161a578660805152600783526003604060805120019033908254161790555b86611558565b866080515260078352600460406080512001903390825416179055611614565b634e487b7160e01b90526011600452608051602490fd5b9050601f915091611551565b6004359052600f83526080519160018060a01b0391826040852054168094811515908161170a575b506116909150614e71565b806116c157508291505b156116b0576116a890615104565b916001611486565b6116b9906150d3565b916002611486565b60805152600f845260805191604083205416809281151590816116ef575b506116ea9150614ea2565b61169a565b905052600884526116ea60ff604060805120541683916116df565b9050526008855261169060ff60406080512054168591611685565b34610abf576020366003190112610abf576001600160a01b03611746614a9d565b16608051526007602052608051604081206007810154906008810154906009810154600a820154600b8301549160ff6004601d86015495015460a81c1660078110156117bb5760e09750602c015494604051968752602087015260408601526060850152608084015260a083015260c0820152f35b634e487b7160e01b88526021600452608051602490fd5b34610abf576080518060031936011261049b5760206040516202a3008152f35b34610abf576020366003190112610abf5761180b614a9d565b611813614e14565b6001600160a01b03908116611829811515615ce7565b600280546001600160a01b03198116831790915560805192167ffa56beaa7224e963963fc4c47c38a66d9813310693d7bb15814ea8e39b3351848380a380f35b34610abf576020366003190112610abf576004356007811015610abf57602090603a0154604051908152f35b34610abf576020366003190112610abf5760043560805152600f602052602060018060a01b036040608051205416604051908152f35b614c8d565b34610abf576020366003190112610abf576004356118ec614e14565b6107d081116119325760407f72aa1ef4707dfa7defd1468e6ffc70bf9517ce19e3afad93fcf4be42f2d494f591600554908060055582519182526020820152a160805180f35b60405162461bcd60e51b815260206004820152600260248201526108c960f31b6044820152606490fd5b34610abf576020366003190112610abf576001600160a01b0361197d614a9d565b60808051919092169052600760208181529151604090206101c081905280546102c052600181015460028201546001600160a01b039081166102805260038301548116610180526004830154600584015460068501549585015460088601546009870154600a880154600b890154600c8a0154600d8b0154600e8c0154600f8d015460188e01546102e05260198e015461016052601a8e015461012052601b8e015461024052601c8e015461026052601d8e015460e052601e8e01546101a052601f8e01546101e0529e909d919c929b939a949995989697969195919460ff949293921691611a6c9101614d6e565b61022052611a7f60216101c05101614d6e565b61014052611a9260226101c05101614d6e565b60a052611aa460236101c05101614d6e565b6102a0528260246101c0510154166101005260405180610200526102c0519052602061020051015261028051604061020051015261018051606061020051015260018060a01b0381166080610200510152818160a01c16611b0481614c60565b60a0610200510152611b2160c06102005101838360a81c16614c80565b60b01c16611b2e81614c60565b60e06102005101526101006102005101526101206102005101526101406102005101526101606102005101526101806102005101526101a06102005101526101c06102005101526101e0610200510152610200805101526102206102005101526102406102005101526102e05161026061020051015261016051610280610200510152610120516102a0610200510152610240516102c0610200510152610260516102e061020051015260e0516103006102005101526101a0516103206102005101526101e051610340610200510152611c66611c50611c3b611c2561040080610360610200510152610200510161022051614bac565b6102005161038081830391015261014051614bac565b610200516103a081830391015260a051614bac565b610200516103c08183039101526102a051614bac565b6101005115156103e06102005101526102005180910390f35b34610abf576060366003190112610abf57611c98614a9d565b6001600160a01b036024358181169390929084840361049b57507f238062e33e7062c4aeccb2acac43aecc0b1a1ca891a5bc84a689f2272cb39a4391611cfb602092604435928391611ce8614e14565b611cf3891515615ce7565b16958661527b565b604051908152a360805180f35b34610abf576020366003190112610abf57600435600b54811015610abf57610458602091614b53565b34610abf576080518060031936011261049b576020600b54604051908152f35b34610abf576020366003190112610abf57611d6a614a9d565b611d72614e14565b6001600160a01b03908116611d88811515615ce7565b600480546001600160a01b03198116831790915560805192167f21f871938092b6a1ed13c23a49ad1a6fa6867d23d64fa2091bc0aaa90846e7c38380a380f35b34610abf57602080600319360112610abf57600435906007821015610abf57611def615369565b611df7614f83565b336080515260088152611e1260ff6040608051205416615130565b336080515260078152604060805120916004830192835460ff8160b01c16611e3981614c60565b60028114908115612063575b50156120395760ff90611e5b6001851015615161565b60a81c166007811015610fe457821061200f57816017015492839160018060a01b0395611e90848860015416309033906152fc565b600260ff825460b01c16611ea381614c60565b14611f82575b906018916080516006830155611ebf8682615192565b600160b01b60ff60b01b19825416179055608051918183600b8194015582601b8201550155339052600c8152611f2660406080512060405190611f0182614ce4565b600282528484830152426040830152608051606083015260ff861660808301526151d2565b611f336040518094614c80565b8201527f0bd98106504d2095c105d0f8fd19c12fb6c359200dcce844743a92dc040cb7b360403392a261177091828202928284041482151715610cfa57610f47612710610f6d94048093614fa4565b9250601b810154906202a3008201809211610cfa5785936018924211611fec57600682015460058301611fb6828254614ef7565b90556040519081527fc0a2b7349514b2ee49057e2265dcf10bd91be42a7f6a1144164df1f0e303a8eb853392a25b909150611ea9565b6006820154604051908152600080516020615db8833981519152853392a2611fe4565b60405162461bcd60e51b815260048101849052600260248201526110d160f21b6044820152606490fd5b60405162461bcd60e51b8152600481018590526002602482015261414160f01b6044820152606490fd5b905061206e81614c60565b1586611e45565b34610abf5761208336614bec565b61208b614e14565b600782101580610fe4576001831015806120f1575b6120a990615161565b610fe457816120e87fbc78cc5de16267f0116f5ef65ec3328f2f432bca5e0f8b61e96b880e826d84dd93602c0192808454945560405193849384615d18565b0390a160805180f35b505060805160068311156120a0565b34610abf576080518060031936011261049b57546040516001600160a01b039091168152602090f35b34610abf576020366003190112610abf576004356007811015610abf57602090602c0154604051908152f35b34610abf576080518060031936011261049b576020600554604051908152f35b34610abf576020366003190112610abf576004356007811015610abf5760209060330154604051908152f35b34610abf576080518060031936011261049b576121bc614e14565b6121c4614f83565b608051805460ff60a01b1916600160a01b1790556040513381527f62e78cea01bee320cd4e420270b5ea74000d11b0c9f74754ebdbfc544b05a25890602090a160805180f35b34610abf576020366003190112610abf57608080516004359052600f6020525160409020546001600160a01b0316801561224957602090604051908152f35b60405162461bcd60e51b81526020600482015260026024820152612aa360f11b6044820152606490fd5b34610abf576020366003190112610abf5760043561228f614e14565b80151580612304575b156122da5760407f885769bb3a0a33e49dc7c402b45290f14135af0d201b7b78370457632240fbb191600e549080600e5582519182526020820152a160805180f35b60405162461bcd60e51b8152602060048201526002602482015261425360f01b6044820152606490fd5b506101f4811115612298565b34610abf576080518060031936011261049b575061232c614e14565b80546001600160a01b0319811682556001600160a01b0316600080516020615d988339815191528280a360805180f35b34610abf576080518060031936011261049b57506001546040516370a0823160e01b815230600482015290602090829060249082906001600160a01b03165afa908115610ab257608051916123b7575b602082604051908152f35b90506020813d82116123e4575b816123d160209383614d4b565b8101031261060d576020915051826123ac565b3d91506123c4565b34610abf576080518060031936011261049b576020604051610fa08152f35b34610abf5760209081600319360112610abf576004356007811015610abf57612432615369565b61243a614f83565b33608051526008835261245560ff6040608051205416615130565b60805192600182101580612648575b61246d90615161565b3360805152600781526080516040812094610fa35750600484019260ff845460a81c166007811015610fe45783111561261e57826017015493601860018060a01b03966124c2878960015416309033906152fc565b60ff835460a81c16926124d58782615192565b805460ff60b01b1916600160b01b179055608051600b820181905560068201819055601b820181905591018190556007821015610fa35750849291908061258b5750612558903360805152600c83526040608051206040519161253783614ce4565b8083528585840152426040840152606083015260ff861660808301526151d2565b610ef86040518094614c80565b61177091828202928284041482151715610cfa57610f47612710610f6d94048093614fa4565b939190506125ed92503360805152600c81526125d8604060805120604051906125b382614ce4565b600182528784830152426040830152608051606083015260ff851660808301526151d2565b6125e56040518095614c80565b830190614c80565b8160408201527f6dc34d0522e29b7d7beda15504a00195317702b99a528054d4be53e1ea331b6d60603392a2612565565b60405162461bcd60e51b81526004810183905260026024820152610aa960f31b6044820152606490fd5b506006821115612464565b34610abf576020366003190112610abf5761266c614a9d565b612674614e14565b6001600160a01b0390811661268a811515615ce7565b601580546001600160a01b03198116831790915560805192167fcb9bcd5e87ec5de7c4b31036687bd221c8e20f2ecf6fce472ac73a211f2a3cdc8380a380f35b34610abf576020366003190112610abf576001600160a01b036126eb614a9d565b166080515260076020526101a060406080512080549060018060a01b036001820154169060018060a01b0360028201541660018060a01b03600383015416600483015460ff600585015491600686015493600b87015495601c601a890154980154986040519a8b5260208b015260408a0152606089015260018060a01b038116608089015261277e828260a01c16614c60565b818160a01c1660a089015261279b60c08901838360a81c16614c80565b6127a9828260b01c16614c60565b60b01c1660e0870152610100860152610120850152610140840152610160830152610180820152f35b34610abf576080518060031936011261049b576020600654604051908152f35b34610abf5760a0366003190112610abf5761280b614a9d565b606435151560643503610abf5760076084351015610abf5761282b614e14565b612833614f83565b6128476001600160a01b0382161515615ce7565b608080516001600160a01b0383169052600860205251604090205461286f9060ff1615614e40565b6001608435101580612be9575b61288590615161565b600b5415612bbf57608080516024359052600f6020525160408120546001600160a01b0316919082908115159081612ba3575b506128c39150614e71565b6080516044359081612b53575050815b60643515612b42576128e490615104565b9060015b6128f0614fb1565b608080518290526010602090815281516040808220805460ff19166001908117909155600f845281832080546001600160a01b03199081166001600160a01b038b811691821790935590945260079094529351208481559283018054821689179055600283018054909116918716919091179055909390600481016129758482614ed3565b61298160843582615192565b805460ff60b01b1916600160b01b17905542601c820155608080516001600160a01b038416905260076020525160408120601f01549060018201821161163a57507f92c194e247c6d4e26ac54d4f751a001bb786b7fd20039047255e4b5327aec9f4949260409492601f60018a94019101556129fc83614c60565b60018303612b0957608080516001600160a01b038381169091526007602052905186902060030180546001600160a01b0319169186169190911790555b8160805152600a602052612a51848660805120614f57565b81608051526007602052601a856080512001612a6d8154614f74565b905560018060a01b03841660805152600860205284608051818120600160ff19825416179055600960205220600160ff19825416179055612aad84614f1a565b845192878452612abc81614c60565b60208401526001600160a01b039081169290841690600080516020615d78833981519152908690a48151938452612af860208501608435614c80565b6001600160a01b031692a360805180f35b608080516001600160a01b038381169091526007602052905186902060040180546001600160a01b031916918616919091179055612a39565b612b4b906150d3565b9060026128e8565b52600f60205260805160408120546001600160a01b03169081908115159081612b87575b50612b829150614ea2565b6128d3565b9050526008602052612b8260ff60406080512054168291612b77565b90505260086020526128c360ff604060805120541683916128b8565b60405162461bcd60e51b8152602060048201526002602482015261525560f01b6044820152606490fd5b506006608435111561287c565b34610abf576080518060031936011261049b5760ff6020915460a01c166040519015158152f35b34610abf576020366003190112610abf576004356007811015610abf57602090601e0154604051908152f35b34610abf5760c0602081526020600319360112610abf57600435903360805152600d8151526080519060ff9182604082205416908115612fa7575b5015612f7d57612c92614f83565b8215612f53576000198301838111610cfa57600e90612cb382548092615268565b93600b549182861015612f2957612cca9086614ef7565b91808311612f21575b50919060805194925b818410612d19577f9acb94cd9b9c8b1248d0dc0aa654d4303685379499519790474807198a3290436040888888835192835251820152a160805180f35b90919294612d2686614b53565b90549060039160018060a01b0391831b1c16908160805152600787515260406080512084600482015460b01c16612d5c81614c60565b60018114159081612f0c575b50612eff57608051918283918490601085019060148601905b60048410612e1d57505050508315612e0e5792601e837f64e8dd16146649f6743856bb8723dcd7edd0bb0e9b5352620ae83a477aea328393612e069896612dd08d612e009a9801918254614fa4565b9055612de1600f8301918254614fa4565b905501612def828254614ef7565b9055604051908152895190a2614f74565b95614f74565b929190612cdc565b505050505094612e0690614f74565b909192949396612e2d8685614b9c565b905490831b1c612e3d8785614b9c565b905490841b1c1115612ee957612e538685614b9c565b905490831b1c905b8115612edc5781612ece612ed493612e88612e0094612710612e818d6041015485615268565b0490614ef7565b9b612ebc612e968c8b614b9c565b612ea5858354838d1b1c614fa4565b825460001960039390931b92831b1916911b179055565b612ec9612e968c8a614b9c565b614ef7565b96614ef7565b929190612d81565b979495612ed49150614f74565b612ef38684614b9c565b905490831b1c90612e5b565b50505094612e0690614f74565b60029150612f1981614c60565b14158b612d68565b915086612cd3565b60405162461bcd60e51b8152855160048201526002602482015261424560f01b6044820152606490fd5b60405162461bcd60e51b8152905160048201526002602482015261042360f41b6044820152606490fd5b60405162461bcd60e51b8152905160048201526002602482015261415560f01b6044820152606490fd5b546001600160a01b03163314905084612c84565b34610abf576080518060031936011261049b5760206040516117708152f35b34610abf576080366003190112610abf576004356001600160401b038111610abf5761300a903690600401614c33565b906024356001600160401b038111610abf5761302a903690600401614c33565b9092906044356001600160401b038111610abf5761304c903690600401614c33565b90916064356001600160401b038111610abf5761306d903690600401614c33565b9690943360805152600860205261308c60ff6040608051205416615130565b80156135a057608080513390526007602052516040812097906001600160401b038311613589575081906130c360208a0154614caa565b601f8111613532575b5060805190601f83116001146134c157608051926134b6575b50508160011b916000199060031b1c19161760208701555b6001600160401b0382116132fb57819061311a6021880154614caa565b601f811161345c575b5060805190601f83116001146133eb57608051926133e0575b50508160011b916000199060031b1c19161760218501555b60228401916001600160401b0382116132fb5781906131738454614caa565b601f8111613389575b5060805190601f831160011461331e5760805192613313575b50508160011b916000199060031b1c19161790555b60238201906001600160401b0384116132fb576131c78254614caa565b601f81116132b0575b5060805190601f8511600114613246579380916024956080519261323b575b50508160011b916000199060031b1c19161790555b01805460ff19166001179055608051337fbe4ec58a792f909e102ee3d745d0c3b34a4d437a54d903c4db098d31c556422f8280a280f35b0135905085806131ef565b828252608051602081209290601f198716905b8181106132985750916001939187602498941061327e575b505050811b019055613204565b0135600019600384901b60f8161c19169055858080613271565b91936020600181928787013581550195019201613259565b826080515260805160208120601f870160051c810192602088106132f1575b601f0160051c01915b8281106132e65750506131d0565b8181556001016132d8565b90925082906132cf565b634e487b7160e01b6080515260416004526024608051fd5b013590508680613195565b848252608051602081209350909190601f198516905b8181106133715750908460019594939210613357575b505050811b0190556131aa565b0135600019600384901b60f8161c1916905586808061334a565b91936020600181928787013581550195019201613334565b909150836080515260805160208120601f850160051c810192602086106133d6575b90601f86959493920160051c01915b8281106133c857505061317c565b8181558594506001016133ba565b90925082906133ab565b01359050878061313c565b602188018252608051602081209350909190601f198516905b818110613444575090846001959493921061342a575b505050811b016021850155613154565b0135600019600384901b60f8161c1916905587808061341a565b91936020600181928787013581550195019201613404565b909150602187016080515260805160208120601f850160051c810192602086106134ac575b90601f86959493920160051c01915b82811061349e575050613123565b818155859450600101613490565b9092508290613481565b0135905089806130e5565b909150601f1983169160208a0181526080519260208420935b81811061351a5750908460019594939210613500575b505050811b0160208701556130fd565b0135600019600384901b60f8161c191690558980806134f0565b919360206001819287870135815501950192016134da565b909150602089016080515260805160208120601f850160051c810160208610613582575b9085949392915b601f840160051c82018110613574575050506130cc565b82815586955060010161355d565b5080613556565b634e487b7160e01b90526041600452608051602490fd5b60405162461bcd60e51b8152602060048201526002602482015261222760f11b6044820152606490fd5b34610abf576020366003190112610abf576004356135e6614e14565b612710811161362c5760407fdefb0223a84c18f8f7c10046a8600d298578166098e58c49022547d7a50da35b91600654908060065582519182526020820152a160805180f35b60405162461bcd60e51b8152602060048201526002602482015261524560f01b6044820152606490fd5b34610abf57602080600319360112610abf576014546040516347cd519160e01b81526004803590820152908290829060249082906001600160a01b03165afa908115610ab257608051916136ae575b50604051908152f35b90508181813d83116136d4575b6136c58183614d4b565b81010312610abf5751826136a5565b503d6136bb565b34610abf576080518060031936011261049b576003546040516001600160a01b039091168152602090f35b34610abf576020366003190112610abf576001600160a01b03613727614a9d565b16608051526009602052602060ff60406080512054166040519015158152f35b34610abf576080518060031936011261049b576020600e54604051908152f35b34610abf576020366003190112610abf576004356007811015610abf5760209060250154604051908152f35b34610abf576080518060031936011261049b576137ae614e14565b6080515460ff8160a01c16156137f95760ff60a01b1916608051557f5db9ee0a495bf2e6ff9c91a7834c1ba4fdd244a5e8aa4e537bd38aeae4b073aa6020604051338152a160805180f35b604051638dfc202b60e01b8152600490fd5b34610abf576020366003190112610abf576001600160a01b0361382c614a9d565b16608051526012602052602060406080512054604051908152f35b34610abf576080518060031936011261049b57602060ff60025460a01c16604051908152f35b34610abf57602080600319360112610abf57601454604051631d61396160e11b81526004803590820152908290829060249082906001600160a01b03165afa908115610ab257608051916136ae5750604051908152f35b34610abf576020366003190112610abf576001600160a01b036138e5614a9d565b168060805152600860205261390260ff6040608051205416615130565b608051526007602052602060406080512054604051908152f35b34610abf576080518060031936011261049b576001546040516001600160a01b039091168152602090f35b34610abf576080518060031936011261049b57613962615369565b61396a614f83565b3360805152600860205261398660ff6040608051205416615130565b3360805152600760205260406080512060048101546139c060ff8260b01c166139ae81614c60565b60018114908115613da4575b506157a2565b601e8201908154908115613d7a5760ff906201518042046019860181815410613d6a575b505060a81c166007811015610fe457602501549260805192601882019081548681809811613d57575b50508415613d2d57839460805194818111613d0b575b505084613ab1949596613a3a926080519055614ef7565b905560088101613a4b858254614ef7565b9055613a5784336158a0565b3360805152600c602052608051601f60408220920154905060ff8111600014613d05575060ff905b60ff60405192613a8e84614ce4565b6005845286602085015242604085015260805160608501521660808301526151d2565b6040518281527fd4379f0df0229cb2fed1f6f1c33e4a164dcf7652a8ff79efd7f4f66bcc1b375660203392a280613c99575b5060808051339052600760205251604090206001908101546001600160a01b03165b6001600160a01b038116151580613c8e575b15610f6d57608080516001600160a01b038316905260076020525160409020600481015460b081901c60ff16613b4c81614c60565b60018114908115613c7a575b50613b7d575b50600101546001600160a01b031691613b779150614f74565b90613b05565b600760ff8260a81c161015610fe45760ff9060a81c1660330154831115613ba5575b81613b5e565b6064918483810204831485151715610cfa57612710613b779386020480613bce575b5050613b9f565b613bd881836158a0565b60098301613be7828254614ef7565b905560018060a01b03821660805152600c602052613c3560406080512060405190613c1182614ce4565b6006825283602083015242604083015233606083015260ff881660808301526151d2565b604080519182526020820186905233926001600160a01b0316917f45948fc51bbcac6c3b663a1adcc0697660bbaeddd6eab9240451a0efcf7ad7539190a38480613bc7565b60029150613c8781614c60565b1486613b58565b506014821115613b17565b613ca581601654614ef7565b6016556040518181527fd5fe7fa76ce91683ea1b2f2ba3429885feeb202704aa35a0552e110e4eb6b26b60203392a26015546001600160a01b039190821680613cf0575b5050613ae3565b613cfd926001541661527b565b818080613ce9565b90613a7f565b9096613a3a929650613ab19550613d23888993614fa4565b9550969591613a23565b60405162461bcd60e51b8152602060048201526002602482015261444360f01b6044820152606490fd5b613d62929650614fa4565b938587613a0d565b60805160188801555585806139e4565b60405162461bcd60e51b81526020600482015260026024820152614e4360f01b6044820152606490fd5b60029150613db181614c60565b14846139ba565b34610abf576020366003190112610abf57600435613dd4615369565b613ddc614f83565b33608051526007602052604060805120613e0b600160ff600484015460b01c16613e0581614c60565b146157a2565b60058101805483811061435e5783156143345760ff60025460a01c16604d8111610cfa57600a0a80600a0290600a820403610cfa57801561431c5784066142f25783613e5691614fa4565b90556103e882026103e71983820401610cfa5760805192600554806142d3575b5083613e93613e9892613e93612710860491612710870490614fa4565b614fa4565b91612710613ea860065485615268565b0490613eb48285614fa4565b91806142b5575b5081614266575b601d915084614243575b93929301613edb848254614ef7565b905533608051526012602052604060805120613efc61271083048254614ef7565b9055604051612710820481527f2b1d2104e84dd4dabb0cca024171f783ab1e1c9dc1af9d60a2361596653a99c460203392a26080805133905260076020525160408120600190810154919490916001600160a01b03165b6001600160a01b038116151580614238575b156141165760018060a01b03811660805152600760205260406080512090600482015460ff8160b01c16613f9881614c60565b60018114908115614102575b50613fc9575b5050600101546001600160a01b031691613fc390614f74565b91613f53565b600760ff8260a81c161015610fe4578060ff869260a81c16603a0154821115613ff3575b50613faa565b9060ff6140039260a81c166157d3565b80614010575b8490613fed565b61401f61271091828804615268565b0490811515806140eb575b1561400957614059828099614043613fc39695856158a0565b600a8501614052838254614ef7565b9055614ef7565b9760018060a01b03821660805152600c6020526140a66040608051206040519061408282614ce4565b6007825283602083015242604083015233606083015260ff891660808301526151d2565b604080519182526020820187905233926001600160a01b0316917ffa90ff469705543002392f8f4d59d717c4d5c6b6c7832f347dc47e1f75855b939190a39087614009565b5061271086046140fb838a614ef7565b111561402a565b6002915061410f81614c60565b1489613fa4565b50836141ef843360805152600c6020526141616040608051206040519061413c82614ce4565b60038252866020830152426040830152608051606083015260805160808301526151d2565b3360805152600c6020526141aa6040608051206040519061418182614ce4565b600a825261271084046020830152426040830152608051606083015260805160808301526151d2565b3360805152600c602052604060805120612710604051926141ca84614ce4565b600b8452046020830152426040830152608051606083015260805160808301526151d2565b60405191825260208201527fdf273cb619d95419a9cd0ec88123a0538c85064229baa6363788f743fff90deb60403392a26001600080516020615dd88339815191525560805180f35b50600f831115613f65565b6001546003546142619187916001600160a01b03908116911661527b565b613ecc565b6002546001600160a01b0316801561428b57601d9261428691339061527b565b613ec2565b60405162461bcd60e51b8152602060048201526002602482015261135560f21b6044820152606490fd5b6001546142cd919033906001600160a01b031661527b565b85613ebb565b613e939450906127106142e9613e989383615268565b04945090613e76565b60405162461bcd60e51b8152602060048201526002602482015261414d60f01b6044820152606490fd5b634e487b7160e01b6080515260126004526024608051fd5b60405162461bcd60e51b8152602060048201526002602482015261041360f41b6044820152606490fd5b60405162461bcd60e51b815260206004820152600360248201526224a11960e91b6044820152606490fd5b34610abf576040366003190112610abf576143a2614a9d565b7f41310093e80507e3fb2fafc7628a627f835448a93096f490e3e207749295f48260206024356143d0614e14565b6001600160a01b03848116946143f7918391906143ee881515615ce7565b6001541661527b565b604051908152a260805180f35b34610abf576020366003190112610abf576001600160a01b03614425614a9d565b1660805152600d602052602060ff60406080512054166040519015158152f35b34610abf576020366003190112610abf5761445e614a9d565b608060405161446c81614d15565b369037608060405161447d81614d15565b3690376040519061448d82614d15565b60803683376040519061449f82614d15565b608036833760806040516144b281614d15565b36903760018060a01b031660805152600760205260406080512090601082019260146144dd85615a10565b9301936144e985615a10565b60405195909190608087016001600160401b038111888210176132fb57604052610bb887526107d060208801526103e860408801526101f460608801526080515b60048110614580576102808761457e8a6145738a6145688b61455d8c614553604051809a614c0b565b6080890190614c0b565b610100870190614c0b565b610180850190614c0b565b610200830190614c0b565bf35b8061458e6145fc9285614b9c565b90549061459b8386614b9c565b905460039391841b1c91831b1c1015614601576145b88286614b9c565b9054911b1c5b6145c88288615a43565b526127106145eb6145d98389615a43565b516145e4848d615a43565b5190615268565b046145f68289615a43565b52614f74565b61452a565b61460b8285614b9c565b9054911b1c6145be565b34610abf576080518060031936011261049b576020601654604051908152f35b34610abf5761464336614bec565b61464b614e14565b600782101580610fe4576001831015806146a8575b61466990615161565b610fe457816120e87ffd97dc847c39542ae663c77ed6c5fe5d200d0a308aac833f926e9c3f8f32453f9360250192808454945560405193849384615d18565b50506080516006831115614660565b34610abf576040366003190112610abf576146d0614a9d565b60243590811515809203610abf5760207f9742298dc6801916d04d1f05c6a0cc0405b25bad99060bbbc1c82a9f474ab0149161470a614e14565b6001600160a01b03169261471f841515615ce7565b8360805152600d825260406080512060ff1981541660ff8316179055604051908152a260805180f35b34610abf576020366003190112610abf576004356007811015610abf5760209060170154604051908152f35b34610abf576020366003190112610abf576001600160a01b03614795614a9d565b1660805152600760205261480060406080512060ff60248201541661482a6147bf60208401614d6e565b9261481c6147cf60218301614d6e565b9161480e6147eb60236147e460228501614d6e565b9301614d6e565b9360405198899860a08a5260a08a0190614bac565b9088820360208a0152614bac565b908682036040880152614bac565b908482036060860152614bac565b90151560808301520390f35b34610abf576020366003190112610abf576004356004811015610abf5760209060410154604051908152f35b34610abf576020366003190112610abf57600435608051526010602052602060ff60406080512054166040519015158152f35b34610abf576040366003190112610abf576148ae614a9d565b608080516001600160a01b039283169052600a6020525160408120805460243593929084101561049b57506020926148e591614b84565b9190546040519260031b1c168152f35b34610abf576040366003190112610abf5761490e614a9d565b6024359060ff82168203610abf57614924614e14565b6001600160a01b0390811690811561499457600180546001600160a01b0319811684179091556002805460ff60a01b191660a09590951b60ff60a01b169490941790935560805192167f5efdfedf5aef119c431263f0656093045dffdf44b3d8f1b0f158dc295c3a0f8e8380a380f35b60405162461bcd60e51b8152602060048201526002602482015261125560f21b6044820152606490fd5b3461049b576149d56149cf36614ab8565b91615b5f565b949190926040519460c086019060c08752845180925260e08701916020809601906080515b818110614a7c5750505091614a1d82614a39959489614a2b9503888b0152614ae2565b908782036040890152614ae2565b908582036060870152614b16565b83810360808501528180845192838152019301916080515b828110614a65578580868960a08301520390f35b835160ff1685529381019392810192600101614a51565b909193845190600c821015610fe457908152870193870191906001016149fa565b600435906001600160a01b0382168203614ab357565b600080fd5b6060906003190112614ab3576004356001600160a01b0381168103614ab357906024359060443590565b90815180825260208080930193019160005b828110614b02575050505090565b835185529381019392810192600101614af4565b90815180825260208080930193019160005b828110614b36575050505090565b83516001600160a01b031685529381019392810192600101614b28565b600b54811015614b6e57600b60005260206000200190600090565b634e487b7160e01b600052603260045260246000fd5b8054821015614b6e5760005260206000200190600090565b6004821015614b6e570190600090565b919082519283825260005b848110614bd8575050826000602080949584010152601f8019910116010190565b602081830181015184830182015201614bb7565b6040906003190112614ab3576004356007811015614ab3579060243590565b6000915b60048310614c1c57505050565b600190825181526020809101920192019190614c0f565b9181601f84011215614ab3578235916001600160401b038311614ab35760208381860195010111614ab357565b60031115614c6a57565b634e487b7160e01b600052602160045260246000fd5b906007821015614c6a5752565b34614ab3576000366003190112614ab35760206040516103e88152f35b90600182811c92168015614cda575b6020831014614cc457565b634e487b7160e01b600052602260045260246000fd5b91607f1691614cb9565b60a081019081106001600160401b03821117614cff57604052565b634e487b7160e01b600052604160045260246000fd5b608081019081106001600160401b03821117614cff57604052565b602081019081106001600160401b03821117614cff57604052565b601f909101601f19168101906001600160401b03821190821017614cff57604052565b9060405191826000825492614d8284614caa565b908184526001948581169081600014614df15750600114614dae575b5050614dac92500383614d4b565b565b9093915060005260209081600020936000915b818310614dd9575050614dac93508201013880614d9e565b85548884018501529485019487945091830191614dc1565b915050614dac94506020925060ff191682840152151560051b8201013880614d9e565b6000546001600160a01b03163303614e2857565b60405163118cdaa760e01b8152336004820152602490fd5b15614e4757565b60405162461bcd60e51b815260206004820152600260248201526120a960f11b6044820152606490fd5b15614e7857565b60405162461bcd60e51b8152602060048201526002602482015261495360f01b6044820152606490fd5b15614ea957565b60405162461bcd60e51b815260206004820152600260248201526124a160f11b6044820152606490fd5b90614edd81614c60565b815460ff60a01b191660a09190911b60ff60a01b16179055565b91908201809211614f0457565b634e487b7160e01b600052601160045260246000fd5b600b54600160401b811015614cff57806001614f399201600b55614b53565b819291549060031b9160018060a01b03809116831b921b1916179055565b8054600160401b811015614cff57614f3991600182018155614b84565b6000198114614f045760010190565b60ff60005460a01c16614f9257565b60405163d93c066560e01b8152600490fd5b91908203918211614f0457565b600080606033811b600180805b614fcb575b505050505090565b949091929394156150b6575b506000601191614fe78354614f74565b92838155600b54906040948551602093848201924284524489840152898b840152607483015260949081830152815260c0810181811060018060401b038211176150a2579064e8d4a50c189291885251902006906103e8820180921161509057506150529097614f74565b9360328511615068575050908194939294614fbe565b60649250519062461bcd60e51b825260048201526002602482015261494760f01b6044820152fd5b634e487b7160e01b8552600452602484fd5b634e487b7160e01b87526041600452602487fd5b80600052601060205260ff60406000205416614fd7579380614fc3565b5b6001600160a01b03818116600090815260076020526040902060040154169081156150ff57506150d4565b905090565b5b6001600160a01b03818116600090815260076020526040902060030154169081156150ff5750615105565b1561513757565b60405162461bcd60e51b8152602060048201526002602482015261272960f11b6044820152606490fd5b1561516857565b60405162461bcd60e51b8152602060048201526002602482015261049560f41b6044820152606490fd5b906007811015614c6a57815460ff60a81b191660a89190911b60ff60a81b16179055565b8054821015614b6e5760005260206000209060021b0190600090565b8054600160401b811015614cff576151ef916001820181556151b6565b61525257815190600c821015614c6a5760039160ff801983541691161781556020830151600182015560408301516002820155019060018060a01b03606082015116825491608060ff60a01b91015160a01b169160018060a81b03191617179055565b634e487b7160e01b600052600060045260246000fd5b81810292918115918404141715614f0457565b60405163a9059cbb60e01b60009081526001600160a01b039384166004526024949094529260209060448180855af16001600051148116156152dc575b83604052156152c657505050565b635274afe760e01b835216600482015260249150fd5b60018115166152f257813b15153d1516166152b8565b833d6000823e3d90fd5b6040516323b872dd60e01b60009081526001600160a01b03938416600452938316602452604494909452909160209060648180855af1600160005114811615615353575b836040526000606052156152c657505050565b60018115166152f257813b15153d151616615340565b600080516020615dd883398151915260028154146153875760029055565b604051633ee5aeb560e01b8152600490fd5b6001600160a01b03908116600081815260076020526040808220600101549294929093169283156154bd5783825280822092600484015460ff8160b01c166153e081614c60565b600181141590816154a8575b5061549f5760a81c60ff16600781101561053d576127109161541291601e015490615268565b049081156154975761549060209360077f86583c8be3288ec633d5a10afa75407d4c785bff5edd40840c42e48d0efdcfbb9661544e868a6158a0565b0161545a858254614ef7565b9055868152600c855282812083519161547283614ce4565b600483528587840152428584015289606084015260808301526151d2565b51908152a3565b505050505050565b50505050505050565b600291506154b581614c60565b1415386153ec565b5050505050565b919060005b60018060a01b038094169384600052600790602090828252600291604091838360002001541694851561570a576154ff90614f74565b97601490818a116156fe578660005285835260ff600480866000200154928260b094851c169361552e85614c60565b888460018097149283156156d7575b505050615554575b505050505050505050926154c9565b60005287855285600020015460a01c169061556e82614c60565b811494600086156156d25750885b88600052878552615595600c8760002001918254614ef7565b90556155a082614c60565b811490600082156156cd5750885b886000528785526155c7600d8760002001918254614ef7565b90556155d281614c60565b600086156156c85750885b886000528785526155f6600e8760002001918254614ef7565b905561560181614c60565b600082156156c35750885b88600052878552615625600f8760002001918254614ef7565b90556156308b615715565b96909661563e575b80615545565b61564782614c60565b1561568657505050615669929161567994601092876000525260002001614b9c565b612ea58583548360031b1c614ef7565b3880808080808080615638565b615694909594929395614c60565b6156a3575b5050505050615679565b6156b99461566994876000525260002001614b9c565b3880808080615699565b61560c565b6155dd565b6155ae565b61557c565b909192508c6000528b8952848a6000200154901c166156f581614c60565b1488843861553d565b50505050505050509050565b505050505050509050565b6001908181101580615797575b61579157600481101580615786575b61578057600781101580615775575b61576f57600a8110159081615763575b5061575e5750600090600090565b600391565b60149150111538615750565b50600291565b506009811115615740565b50908190565b506006811115615731565b50600091565b506003811115615722565b156157a957565b60405162461bcd60e51b81526020600482015260026024820152614e4160f01b6044820152606490fd5b6007811015614c6a57600181036157f85750600110156157f3575b600090565b606490565b6002810361580e5750600310156157f357600090565b60038103615837575060048111156158315760051461582c57600090565b603290565b50606490565b6004810361585657506005811115615831576009101561582c57600090565b600581036158745750600481111561583157600c106157ee57603290565b600614615882575b50600090565b600581111561589957600f101561582c573861587c565b506101f490565b9060018060a01b0382166000526007602052604060002081156159695760ff600482015460a81c166007811015614c6a57602c0154926000600b830194855490818111615958575b5050801561594c57808411615919575050906005615915920161590c828254614ef7565b90558254614ef7565b9055565b8293614dac956005615946949501615932848254614ef7565b905561593f838254614ef7565b9055614fa4565b9161596e565b5090614dac935061596e565b6159629250614fa4565b38806158e8565b505050565b9060ff600291600484019081546001848260b01c1661598c81614c60565b146159ba575b50505460b01c166159a281614c60565b146159ab575050565b60066159159101918254614ef7565b60b084901b1916600160b11b17825542601b86018190556040519081526001600160a01b03909116907f2bb92f1150248e7f78a267b3904ebd95f62a5225d70dcc813fb6906c3a646e9890602090a23880615992565b60405191906000835b60048210615a2d57505050614dac82614d15565b6001602081928554815201930191019091615a19565b906004811015614b6e5760051b0190565b6001600160401b038111614cff5760051b60200190565b90615a7582615a54565b615a826040519182614d4b565b8281528092615a93601f1991615a54565b0190602036910137565b8051821015614b6e5760209160051b010190565b929060018060a01b0380600095168552600a6020526040852080549485841015615b4257615adf9084614ef7565b83868211615b3a575b615af191614fa4565b92615afb84615a6b565b965b848110615b0b575050505050565b8084615b23615b1d615b359486614ef7565b86614b84565b90549060031b1c166145f6828b615a9d565b615afd565b869150615ae8565b50505050909160405190615b5582614d30565b8082523681379190565b6001600160a01b03166000908152600c60205260409081902080549493909185841015615c885750615b919083614ef7565b82858211615c80575b615ba391614fa4565b91615bad83615a6b565b94615bb784615a6b565b94615bc185615a6b565b94615bcb81615a6b565b94615bd582615a6b565b9460005b838110615be65750505050565b6000198601868111614f0457615c09615c0f91615c038486614ef7565b90614fa4565b846151b6565b50908b615c218260ff85541692615a9d565b600c821015614c6a57615c7b9360ff92600392528d615c4585600184015492615a9d565b526002810154615c55858f615a9d565b5201546001600160a01b038116615c6c848d615a9d565b5260a01c166145f6828a615a9d565b615bd9565b859150615b9a565b925050508051615c9781614d30565b60008152815193615ca785614d30565b60008552825193615cb785614d30565b60008552835193615cc785614d30565b600085525192615cd684614d30565b600084526000368137959493929190565b15615cee57565b60405162461bcd60e51b815260206004820152600260248201526124ab60f11b6044820152606490fd5b604091949392615d2c826060810197614c80565b60208201520152565b600b54801561587c57615d4b600e548092614ef7565b6000198101908111614f04578115615d61570490565b634e487b7160e01b600052601260045260246000fdfee22a39f862558eb01c2a26eb38c7d884b499221d9a5989f637529bd3e77fd6798be0079c531659141344cd1fd0a4f28419497f9722a3daafe3b4186f6b6457e04769bc30c3e6f90ecfef0f6e4760f65f2cc4ae6c67493463e3c9caf3d2f863e99b779b17422d0df92223018b32b4d1fa46e071723d6817e2486d003becc55f00a2646970667358221220e1c061096c3c04ae35dbe59a03bdb61d5a852f65424b64df2e4b45627340475464736f6c63430008140033","opcodes":"PUSH1 0x80 CALLVALUE PUSH3 0x578 JUMPI PUSH1 0x1F PUSH3 0x63E0 CODESIZE DUP2 SWAP1 SUB SWAP2 DUP3 ADD PUSH1 0x1F NOT AND DUP4 ADD SWAP2 PUSH1 0x1 PUSH1 0x1 PUSH1 0x40 SHL SUB DUP4 GT DUP5 DUP5 LT OR PUSH3 0x4FD JUMPI DUP1 DUP5 SWAP3 PUSH1 0x80 SWAP5 PUSH1 0x40 MSTORE DUP4 CODECOPY DUP2 ADD SUB SLT PUSH3 0x578 JUMPI PUSH3 0x4D DUP2 PUSH3 0x59D JUMP JUMPDEST SWAP1 PUSH1 0x20 DUP2 ADD MLOAD SWAP1 PUSH1 0xFF DUP3 AND DUP3 SUB PUSH3 0x578 JUMPI PUSH3 0x7B PUSH1 0x60 PUSH3 0x73 PUSH1 0x40 DUP5 ADD PUSH3 0x59D JUMP JUMPDEST SWAP3 ADD PUSH3 0x59D JUMP JUMPDEST SWAP3 CALLER ISZERO PUSH3 0x55F JUMPI PUSH1 0x0 DUP1 SLOAD CALLER PUSH1 0x1 PUSH1 0x1 PUSH1 0xA0 SHL SUB NOT DUP3 AND DUP2 OR DUP4 SSTORE SWAP2 PUSH1 0x1 PUSH1 0x1 PUSH1 0xA0 SHL SUB SWAP1 SWAP2 AND SWAP1 PUSH32 0x8BE0079C531659141344CD1FD0A4F28419497F9722A3DAAFE3B4186F6B6457E0 SWAP1 DUP1 LOG3 PUSH1 0x1 PUSH32 0x9B779B17422D0DF92223018B32B4D1FA46E071723D6817E2486D003BECC55F00 SSTORE PUSH2 0x2710 PUSH1 0x6 SSTORE PUSH1 0x32 PUSH1 0xE SSTORE PUSH3 0x101 PUSH3 0x57D JUMP JUMPDEST PUSH1 0x0 DUP2 MSTORE PUSH2 0x1F4 PUSH1 0x20 DUP3 ADD MSTORE PUSH2 0x3E8 PUSH1 0x40 DUP3 ADD MSTORE PUSH2 0x5DC PUSH1 0x60 DUP3 ADD MSTORE PUSH2 0x7D0 PUSH1 0x80 DUP3 ADD MSTORE PUSH2 0x9C4 PUSH1 0xA0 DUP3 ADD MSTORE PUSH2 0xBB8 PUSH1 0xC0 DUP3 ADD MSTORE PUSH1 0x0 JUMPDEST PUSH1 0x7 DUP2 LT PUSH3 0x545 JUMPI POP POP PUSH3 0x14D PUSH3 0x57D JUMP JUMPDEST PUSH1 0x0 DUP2 MSTORE PUSH1 0x1 PUSH1 0x20 DUP3 ADD MSTORE PUSH1 0x3 PUSH1 0x40 DUP3 ADD MSTORE PUSH1 0x6 PUSH1 0x60 DUP3 ADD MSTORE PUSH1 0xA PUSH1 0x80 DUP3 ADD MSTORE PUSH1 0xF PUSH1 0xA0 DUP3 ADD MSTORE PUSH1 0x14 PUSH1 0xC0 DUP3 ADD MSTORE PUSH1 0x0 JUMPDEST PUSH1 0x7 DUP2 LT PUSH3 0x52C JUMPI POP POP PUSH3 0x193 PUSH3 0x57D JUMP JUMPDEST PUSH1 0x0 DUP2 MSTORE PUSH1 0x1 PUSH1 0x20 DUP3 ADD MSTORE PUSH1 0x3 PUSH1 0x40 DUP3 ADD MSTORE PUSH1 0x5 PUSH1 0x60 DUP3 ADD MSTORE PUSH1 0x9 PUSH1 0x80 DUP3 ADD MSTORE PUSH1 0xC PUSH1 0xA0 DUP3 ADD MSTORE PUSH1 0xF PUSH1 0xC0 DUP3 ADD MSTORE PUSH1 0x0 JUMPDEST PUSH1 0x7 DUP2 LT PUSH3 0x513 JUMPI POP POP PUSH1 0x40 MLOAD PUSH1 0x1 PUSH1 0x1 PUSH1 0x40 SHL SUB PUSH1 0x80 DUP3 ADD SWAP1 DUP2 GT SWAP1 DUP3 GT OR PUSH3 0x4FD JUMPI PUSH1 0x80 DUP2 ADD PUSH1 0x40 MSTORE PUSH2 0xBB8 DUP2 MSTORE PUSH2 0x7D0 PUSH1 0x20 DUP3 ADD MSTORE PUSH2 0x3E8 PUSH1 0x40 DUP3 ADD MSTORE PUSH2 0x1F4 PUSH1 0x60 DUP3 ADD MSTORE PUSH1 0x0 JUMPDEST PUSH1 0x4 DUP2 LT PUSH3 0x4E7 JUMPI POP POP PUSH1 0x1 PUSH1 0x1 PUSH1 0xA0 SHL SUB AND SWAP1 DUP2 ISZERO PUSH3 0x4BD JUMPI PUSH1 0x1 PUSH1 0x1 PUSH1 0xA0 SHL SUB AND SWAP3 DUP4 ISZERO PUSH3 0x493 JUMPI PUSH1 0x1 PUSH1 0x1 PUSH1 0xA0 SHL SUB AND SWAP1 DUP2 ISZERO PUSH3 0x469 JUMPI PUSH1 0x1 DUP1 SLOAD PUSH1 0x1 PUSH1 0x1 PUSH1 0xA0 SHL SUB NOT SWAP1 DUP2 AND SWAP3 SWAP1 SWAP3 OR SWAP1 SSTORE PUSH1 0x2 DUP1 SLOAD PUSH1 0xFF PUSH1 0xA0 SHL NOT AND PUSH1 0xA0 DUP6 SWAP1 SHL PUSH1 0xFF PUSH1 0xA0 SHL AND OR SWAP1 SSTORE PUSH1 0x3 DUP1 SLOAD DUP3 AND DUP6 OR SWAP1 SSTORE PUSH1 0x4 DUP1 SLOAD DUP3 AND SWAP1 SWAP5 OR DUP5 SSTORE PUSH1 0x15 DUP1 SLOAD SWAP1 SWAP2 AND SWAP2 SWAP1 SWAP2 OR SWAP1 SSTORE PUSH1 0x0 PUSH1 0x5 SSTORE PUSH1 0x4D PUSH1 0xFF DUP3 AND GT PUSH3 0x3EB JUMPI PUSH1 0xFF AND PUSH1 0xA EXP SWAP1 PUSH1 0x0 PUSH1 0x17 SSTORE DUP2 PUSH1 0x32 MUL PUSH1 0x32 DUP2 DIV DUP4 SUB PUSH3 0x3EB JUMPI DUP1 PUSH1 0x18 SSTORE DUP3 PUSH1 0xC8 MUL PUSH1 0xC8 DUP2 DIV DUP5 SUB PUSH3 0x454 JUMPI DUP1 PUSH1 0x19 SSTORE PUSH2 0x258 DUP5 DUP2 MUL SWAP1 DUP2 DIV DUP6 SUB PUSH3 0x43F JUMPI DUP1 PUSH1 0x1A SSTORE PUSH2 0x4B0 SWAP1 DUP6 DUP3 MUL SWAP2 DUP3 DIV DUP7 SUB PUSH3 0x42A JUMPI DUP2 PUSH1 0x1B SSTORE PUSH2 0x960 SWAP3 DUP7 DUP5 MUL SWAP4 DUP5 DIV DUP8 SUB PUSH3 0x415 JUMPI DUP4 PUSH1 0x1C SSTORE PUSH2 0x12C0 SWAP5 DUP8 DUP7 MUL SWAP6 DUP7 DIV DUP9 SUB PUSH3 0x400 JUMPI DUP6 PUSH1 0x1D SSTORE PUSH1 0x0 PUSH1 0x25 SSTORE PUSH1 0x26 SSTORE PUSH1 0x27 SSTORE PUSH1 0x28 SSTORE PUSH1 0x29 SSTORE PUSH1 0x2A SSTORE PUSH1 0x2B SSTORE PUSH1 0x0 PUSH1 0x2C SSTORE DUP2 PUSH1 0xFA MUL PUSH1 0xFA DUP2 DIV DUP4 SUB PUSH3 0x3EB JUMPI PUSH1 0x2D SSTORE DUP2 PUSH2 0x3E8 MUL PUSH2 0x3E8 DUP2 DIV DUP4 SUB PUSH3 0x3EB JUMPI PUSH1 0x2E SSTORE DUP2 PUSH2 0xBB8 MUL PUSH2 0xBB8 DUP2 DIV DUP4 SUB PUSH3 0x3EB JUMPI PUSH1 0x2F SSTORE PUSH2 0x1770 DUP3 DUP2 MUL SWAP1 DUP2 DIV DUP4 SUB PUSH3 0x3EB JUMPI PUSH1 0x30 SSTORE PUSH2 0x2EE0 DUP3 DUP2 MUL SWAP1 DUP2 DIV DUP4 SUB PUSH3 0x3EB JUMPI PUSH1 0x31 SSTORE PUSH2 0x5DC0 SWAP2 DUP1 DUP4 MUL SWAP3 DUP4 DIV SUB PUSH3 0x3D6 JUMPI POP PUSH1 0x32 SSTORE PUSH1 0x40 MLOAD PUSH2 0x5E2D SWAP1 DUP2 PUSH3 0x5B3 DUP3 CODECOPY RETURN JUMPDEST PUSH1 0x11 SWAP1 PUSH4 0x4E487B71 PUSH1 0xE0 SHL PUSH1 0x0 MSTORE MSTORE PUSH1 0x24 PUSH1 0x0 REVERT JUMPDEST PUSH1 0x11 DUP3 PUSH4 0x4E487B71 PUSH1 0xE0 SHL PUSH1 0x0 MSTORE MSTORE PUSH1 0x24 PUSH1 0x0 REVERT JUMPDEST PUSH1 0x11 DUP8 PUSH4 0x4E487B71 PUSH1 0xE0 SHL PUSH1 0x0 MSTORE MSTORE PUSH1 0x24 PUSH1 0x0 REVERT JUMPDEST PUSH1 0x11 DUP7 PUSH4 0x4E487B71 PUSH1 0xE0 SHL PUSH1 0x0 MSTORE MSTORE PUSH1 0x24 PUSH1 0x0 REVERT JUMPDEST PUSH1 0x11 DUP6 PUSH4 0x4E487B71 PUSH1 0xE0 SHL PUSH1 0x0 MSTORE MSTORE PUSH1 0x24 PUSH1 0x0 REVERT JUMPDEST PUSH1 0x11 DUP5 PUSH4 0x4E487B71 PUSH1 0xE0 SHL PUSH1 0x0 MSTORE MSTORE PUSH1 0x24 PUSH1 0x0 REVERT JUMPDEST PUSH1 0x11 DUP4 PUSH4 0x4E487B71 PUSH1 0xE0 SHL PUSH1 0x0 MSTORE MSTORE PUSH1 0x24 PUSH1 0x0 REVERT JUMPDEST PUSH1 0x40 MLOAD PUSH3 0x461BCD PUSH1 0xE5 SHL DUP2 MSTORE PUSH1 0x20 PUSH1 0x4 DUP3 ADD MSTORE PUSH1 0x2 PUSH1 0x24 DUP3 ADD MSTORE PUSH2 0x4941 PUSH1 0xF0 SHL PUSH1 0x44 DUP3 ADD MSTORE PUSH1 0x64 SWAP1 REVERT JUMPDEST PUSH1 0x40 MLOAD PUSH3 0x461BCD PUSH1 0xE5 SHL DUP2 MSTORE PUSH1 0x20 PUSH1 0x4 DUP3 ADD MSTORE PUSH1 0x2 PUSH1 0x24 DUP3 ADD MSTORE PUSH2 0x24A3 PUSH1 0xF1 SHL PUSH1 0x44 DUP3 ADD MSTORE PUSH1 0x64 SWAP1 REVERT JUMPDEST PUSH1 0x40 MLOAD PUSH3 0x461BCD PUSH1 0xE5 SHL DUP2 MSTORE PUSH1 0x20 PUSH1 0x4 DUP3 ADD MSTORE PUSH1 0x2 PUSH1 0x24 DUP3 ADD MSTORE PUSH2 0x1255 PUSH1 0xF2 SHL PUSH1 0x44 DUP3 ADD MSTORE PUSH1 0x64 SWAP1 REVERT JUMPDEST PUSH1 0x1 SWAP1 PUSH1 0x20 DUP4 MLOAD SWAP4 ADD SWAP3 DUP2 PUSH1 0x41 ADD SSTORE ADD PUSH3 0x211 JUMP JUMPDEST PUSH4 0x4E487B71 PUSH1 0xE0 SHL PUSH1 0x0 MSTORE PUSH1 0x41 PUSH1 0x4 MSTORE PUSH1 0x24 PUSH1 0x0 REVERT JUMPDEST PUSH1 0x1 SWAP1 PUSH1 0x20 PUSH1 0xFF DUP5 MLOAD AND SWAP4 ADD SWAP3 DUP2 PUSH1 0x3A ADD SSTORE ADD PUSH3 0x1C4 JUMP JUMPDEST PUSH1 0x1 SWAP1 PUSH1 0x20 PUSH1 0xFF DUP5 MLOAD AND SWAP4 ADD SWAP3 DUP2 PUSH1 0x33 ADD SSTORE ADD PUSH3 0x17E JUMP JUMPDEST PUSH1 0x1 SWAP1 PUSH1 0x20 PUSH2 0xFFFF DUP5 MLOAD AND SWAP4 ADD SWAP3 DUP2 PUSH1 0x1E ADD SSTORE ADD PUSH3 0x138 JUMP JUMPDEST PUSH1 0x40 MLOAD PUSH4 0x1E4FBDF7 PUSH1 0xE0 SHL DUP2 MSTORE PUSH1 0x0 PUSH1 0x4 DUP3 ADD MSTORE PUSH1 0x24 SWAP1 REVERT JUMPDEST PUSH1 0x0 DUP1 REVERT JUMPDEST PUSH1 0x40 MLOAD SWAP1 PUSH1 0xE0 DUP3 ADD PUSH1 0x1 PUSH1 0x1 PUSH1 0x40 SHL SUB DUP2 GT DUP4 DUP3 LT OR PUSH3 0x4FD JUMPI PUSH1 0x40 MSTORE JUMP JUMPDEST MLOAD SWAP1 PUSH1 0x1 PUSH1 0x1 PUSH1 0xA0 SHL SUB DUP3 AND DUP3 SUB PUSH3 0x578 JUMPI JUMP INVALID PUSH2 0x300 PUSH1 0x40 MSTORE PUSH1 0x4 CALLDATASIZE LT ISZERO PUSH2 0x13 JUMPI PUSH1 0x0 DUP1 REVERT JUMPDEST PUSH1 0x0 DUP1 PUSH1 0x80 MSTORE DUP1 DUP1 CALLDATALOAD PUSH1 0xE0 SHR SWAP1 DUP2 PUSH4 0x12685F4 EQ PUSH2 0x49BE JUMPI DUP2 PUSH4 0x327EF49 EQ PUSH2 0x48F5 JUMPI DUP2 PUSH4 0x5AD3935 EQ PUSH2 0x4895 JUMPI DUP2 PUSH4 0xB6A9539 EQ PUSH2 0x4862 JUMPI DUP2 PUSH4 0xD57A79C EQ PUSH2 0x4836 JUMPI DUP2 PUSH4 0xF53A470 EQ PUSH2 0x4774 JUMPI DUP2 PUSH4 0x179BD5C8 EQ PUSH2 0x4748 JUMPI DUP2 PUSH4 0x1915D956 EQ PUSH2 0x46B7 JUMPI DUP2 PUSH4 0x1CDC545C EQ PUSH2 0x4635 JUMPI DUP2 PUSH4 0x1D64E593 EQ PUSH2 0x4615 JUMPI DUP2 PUSH4 0x2BBF1A30 EQ PUSH2 0x4445 JUMPI DUP2 PUSH4 0x2C2896B3 EQ PUSH2 0x4404 JUMPI DUP2 PUSH4 0x2E1888B8 EQ PUSH2 0x4389 JUMPI DUP2 PUSH4 0x2E1A7D4D EQ PUSH2 0x3DB8 JUMPI DUP2 PUSH4 0x2EEE563E EQ PUSH2 0x3947 JUMPI DUP2 PUSH4 0x3013CE29 EQ PUSH2 0x391C JUMPI DUP2 PUSH4 0x31E1F29B EQ PUSH2 0x380B JUMPI DUP2 PUSH4 0x385399F9 EQ PUSH2 0x38C4 JUMPI DUP2 PUSH4 0x3AC272C2 EQ PUSH2 0x386D JUMPI DUP2 PUSH4 0x3B97E856 EQ PUSH2 0x3847 JUMPI DUP2 PUSH4 0x3D6BACF3 EQ PUSH2 0x380B JUMPI DUP2 PUSH4 0x3F4BA83A EQ PUSH2 0x3793 JUMPI DUP2 PUSH4 0x4286064E EQ PUSH2 0x3767 JUMPI DUP2 PUSH4 0x4526B4AA EQ PUSH2 0x3747 JUMPI DUP2 PUSH4 0x463CFFE6 EQ PUSH2 0x3706 JUMPI DUP2 PUSH4 0x46904840 EQ PUSH2 0x36DB JUMPI DUP2 PUSH4 0x47CD5191 EQ PUSH2 0x3656 JUMPI DUP2 PUSH4 0x4B695586 EQ PUSH2 0x35CA JUMPI DUP2 PUSH4 0x55509C8F EQ PUSH2 0x2FDA JUMPI DUP2 PUSH4 0x556415D9 EQ PUSH2 0x2FBB JUMPI DUP2 PUSH4 0x57F0140A EQ PUSH2 0x2C49 JUMPI DUP2 PUSH4 0x5A1FAEB9 EQ PUSH2 0x2C1D JUMPI DUP2 PUSH4 0x5C975ABB EQ PUSH2 0x2BF6 JUMPI DUP2 PUSH4 0x6207F522 EQ PUSH2 0x27F2 JUMPI DUP2 PUSH4 0x624A893D EQ PUSH2 0x27D2 JUMPI DUP2 PUSH4 0x6386C1C7 EQ PUSH2 0x26CA JUMPI DUP2 PUSH4 0x69E94F4D EQ PUSH2 0x2653 JUMPI DUP2 PUSH4 0x6AA6C0CE EQ PUSH2 0x240B JUMPI DUP2 PUSH4 0x6D0364D7 EQ PUSH2 0x2129 JUMPI DUP2 PUSH4 0x6E0881DA EQ PUSH2 0x23EC JUMPI DUP2 PUSH4 0x6F9FB98A EQ PUSH2 0x235C JUMPI DUP2 PUSH4 0x7115BBA7 EQ PUSH2 0x18CB JUMPI DUP2 PUSH4 0x715018A6 EQ PUSH2 0x2310 JUMPI DUP2 PUSH4 0x7FEEF9D6 EQ PUSH2 0x2273 JUMPI DUP2 PUSH4 0x8225757B EQ PUSH2 0x220A JUMPI DUP2 PUSH4 0x8456CB59 EQ PUSH2 0x21A1 JUMPI DUP2 PUSH4 0x85F8F11B EQ PUSH2 0x2175 JUMPI DUP2 PUSH4 0x8BC7E8C4 EQ PUSH2 0x2155 JUMPI DUP2 PUSH4 0x8D7B5690 EQ PUSH2 0x2129 JUMPI DUP2 PUSH4 0x8DA5CB5B EQ PUSH2 0x2100 JUMPI DUP2 PUSH4 0x92167DE2 EQ PUSH2 0x2075 JUMPI DUP2 PUSH4 0x92446E30 EQ PUSH2 0x18CB JUMPI DUP2 PUSH4 0x9726B9F2 EQ PUSH2 0x1DC8 JUMPI DUP2 PUSH4 0x9A688A99 EQ PUSH2 0x1D51 JUMPI DUP2 PUSH4 0x9BE572F6 EQ PUSH2 0x1D31 JUMPI DUP2 PUSH4 0xA2BDEDF4 EQ PUSH2 0x1D08 JUMPI DUP2 PUSH4 0xA7229FD9 EQ PUSH2 0x1C7F JUMPI DUP2 PUSH4 0xA87430BA EQ PUSH2 0x195C JUMPI DUP2 PUSH4 0xAC1E5025 EQ PUSH2 0x18D0 JUMPI DUP2 PUSH4 0xAC6C264E EQ PUSH2 0x18CB JUMPI DUP2 PUSH4 0xB1695201 EQ PUSH2 0x1895 JUMPI DUP2 PUSH4 0xB33DD0C9 EQ PUSH2 0x1869 JUMPI DUP2 PUSH4 0xB882C4D8 EQ PUSH2 0x17F2 JUMPI DUP2 PUSH4 0xBBC18F6F EQ PUSH2 0x17D2 JUMPI DUP2 PUSH4 0xBEFBE97D EQ PUSH2 0x1725 JUMPI DUP2 PUSH4 0xC24BE7FB EQ PUSH2 0x1428 JUMPI DUP2 PUSH4 0xC3B6F939 EQ PUSH2 0x13FD JUMPI DUP2 PUSH4 0xC3C5A547 EQ PUSH2 0x13BC JUMPI DUP2 PUSH4 0xC9D484CF EQ PUSH2 0x1391 JUMPI DUP2 PUSH4 0xCE0B2122 EQ PUSH2 0x123C JUMPI DUP2 PUSH4 0xD117DE03 EQ PUSH2 0x1211 JUMPI DUP2 PUSH4 0xD24AF2B8 EQ PUSH2 0x119F JUMPI DUP2 PUSH4 0xD2C8E0E5 EQ PUSH2 0x1103 JUMPI DUP2 PUSH4 0xD4A90286 EQ PUSH2 0x103A JUMPI DUP2 PUSH4 0xD58C6172 EQ PUSH2 0xDB0 JUMPI DUP2 PUSH4 0xD8F33840 EQ PUSH2 0xD74 JUMPI DUP2 PUSH4 0xD9C842FD EQ PUSH2 0xD3C JUMPI DUP2 PUSH4 0xD9F9F63F EQ PUSH2 0xC11 JUMPI DUP2 PUSH4 0xE1F1C4A7 EQ PUSH2 0xBF2 JUMPI DUP2 PUSH4 0xE3BA9BDA EQ PUSH2 0xB7B JUMPI DUP2 PUSH4 0xE4093A66 EQ PUSH2 0x8E0 JUMPI DUP2 PUSH4 0xE561DDDC EQ PUSH2 0x8BD JUMPI DUP2 PUSH4 0xE63619A5 EQ PUSH2 0x890 JUMPI DUP2 PUSH4 0xE74B981B EQ PUSH2 0x81B JUMPI DUP2 PUSH4 0xEB63E1C2 EQ PUSH2 0x786 JUMPI DUP2 PUSH4 0xECDC5907 EQ PUSH2 0x71C JUMPI DUP2 PUSH4 0xECE2BC23 EQ PUSH2 0x66A JUMPI DUP2 PUSH4 0xEF2C5C50 EQ PUSH2 0x64A JUMPI DUP2 PUSH4 0xF00B0093 EQ PUSH2 0x611 JUMPI DUP2 PUSH4 0xF2FDE38B EQ PUSH2 0x596 JUMPI POP DUP1 PUSH4 0xFC3C8A0C EQ PUSH2 0x56D JUMPI DUP1 PUSH4 0xFC4A36F6 EQ PUSH2 0x551 JUMPI DUP1 PUSH4 0xFDC65D6E EQ PUSH2 0x49E JUMPI PUSH4 0xFF5D32FE EQ PUSH2 0x42F JUMPI PUSH1 0x0 DUP1 REVERT JUMPDEST CALLVALUE PUSH2 0x49B JUMPI PUSH1 0x20 CALLDATASIZE PUSH1 0x3 NOT ADD SLT PUSH2 0x49B JUMPI PUSH1 0x4 CALLDATALOAD PUSH1 0xB SLOAD DUP2 LT ISZERO PUSH2 0x471 JUMPI PUSH2 0x458 PUSH1 0x20 SWAP2 PUSH2 0x4B53 JUMP JUMPDEST SWAP1 SLOAD PUSH1 0x40 MLOAD PUSH1 0x3 SWAP3 SWAP1 SWAP3 SHL SHR PUSH1 0x1 PUSH1 0x1 PUSH1 0xA0 SHL SUB AND DUP2 MSTORE RETURN JUMPDEST PUSH1 0x40 MLOAD PUSH3 0x461BCD PUSH1 0xE5 SHL DUP2 MSTORE PUSH1 0x20 PUSH1 0x4 DUP3 ADD MSTORE PUSH1 0x2 PUSH1 0x24 DUP3 ADD MSTORE PUSH2 0x27A1 PUSH1 0xF1 SHL PUSH1 0x44 DUP3 ADD MSTORE PUSH1 0x64 SWAP1 REVERT JUMPDEST DUP1 REVERT JUMPDEST POP CALLVALUE PUSH2 0x49B JUMPI PUSH2 0x4AD CALLDATASIZE PUSH2 0x4BEC JUMP JUMPDEST SWAP1 PUSH2 0x4B6 PUSH2 0x4E14 JUMP JUMPDEST PUSH1 0x7 DUP2 LT ISZERO DUP1 PUSH2 0x53D JUMPI PUSH1 0x1 DUP3 LT ISZERO DUP1 PUSH2 0x52E JUMPI JUMPDEST PUSH2 0x4D4 SWAP1 PUSH2 0x5161 JUMP JUMPDEST PUSH2 0x51A JUMPI SWAP1 DUP2 PUSH2 0x514 PUSH32 0x36152E7515AADA41257500317963EA57C35904A845E67C595F4E110377A08F20 SWAP4 PUSH1 0x17 ADD SWAP3 DUP1 DUP5 SLOAD SWAP5 SSTORE PUSH1 0x40 MLOAD SWAP4 DUP5 SWAP4 DUP5 PUSH2 0x5D18 JUMP JUMPDEST SUB SWAP1 LOG1 DUP1 RETURN JUMPDEST PUSH4 0x4E487B71 PUSH1 0xE0 SHL DUP4 MSTORE PUSH1 0x21 PUSH1 0x4 MSTORE PUSH1 0x24 DUP4 REVERT JUMPDEST POP POP PUSH1 0x80 MLOAD PUSH1 0x6 DUP3 GT ISZERO PUSH2 0x4CB JUMP JUMPDEST PUSH4 0x4E487B71 PUSH1 0xE0 SHL DUP5 MSTORE PUSH1 0x21 PUSH1 0x4 MSTORE PUSH1 0x24 DUP5 REVERT JUMPDEST POP CALLVALUE PUSH2 0x49B JUMPI DUP1 PUSH1 0x3 NOT CALLDATASIZE ADD SLT PUSH2 0x49B JUMPI PUSH1 0x20 PUSH1 0x40 MLOAD PUSH1 0x64 DUP2 MSTORE RETURN JUMPDEST POP CALLVALUE PUSH2 0x49B JUMPI DUP1 PUSH1 0x3 NOT CALLDATASIZE ADD SLT PUSH2 0x49B JUMPI PUSH1 0x4 SLOAD PUSH1 0x40 MLOAD PUSH1 0x1 PUSH1 0x1 PUSH1 0xA0 SHL SUB SWAP1 SWAP2 AND DUP2 MSTORE PUSH1 0x20 SWAP1 RETURN JUMPDEST SWAP1 POP CALLVALUE PUSH2 0x60D JUMPI PUSH1 0x20 CALLDATASIZE PUSH1 0x3 NOT ADD SLT PUSH2 0x60D JUMPI PUSH2 0x5B1 PUSH2 0x4A9D JUMP JUMPDEST SWAP1 PUSH2 0x5BA PUSH2 0x4E14 JUMP JUMPDEST PUSH1 0x1 PUSH1 0x1 PUSH1 0xA0 SHL SUB SWAP2 DUP3 AND SWAP2 DUP3 ISZERO PUSH2 0x5F4 JUMPI DUP2 SLOAD PUSH1 0x1 PUSH1 0x1 PUSH1 0xA0 SHL SUB NOT DUP2 AND DUP5 OR DUP4 SSTORE AND SWAP1 PUSH1 0x0 DUP1 MLOAD PUSH1 0x20 PUSH2 0x5D98 DUP4 CODECOPY DUP2 MLOAD SWAP2 MSTORE SWAP1 DUP1 LOG3 DUP1 RETURN JUMPDEST PUSH1 0x40 MLOAD PUSH4 0x1E4FBDF7 PUSH1 0xE0 SHL DUP2 MSTORE PUSH1 0x4 DUP2 ADD DUP6 SWAP1 MSTORE PUSH1 0x24 SWAP1 REVERT JUMPDEST POP DUP1 REVERT JUMPDEST DUP3 CALLVALUE PUSH2 0x49B JUMPI PUSH1 0x20 CALLDATASIZE PUSH1 0x3 NOT ADD SLT PUSH2 0x49B JUMPI PUSH1 0x20 SWAP1 PUSH1 0x40 SWAP1 PUSH1 0x1 PUSH1 0x1 PUSH1 0xA0 SHL SUB PUSH2 0x639 PUSH2 0x4A9D JUMP JUMPDEST AND DUP2 MSTORE PUSH1 0x13 DUP4 MSTORE KECCAK256 SLOAD PUSH1 0x40 MLOAD SWAP1 DUP2 MSTORE RETURN JUMPDEST DUP3 CALLVALUE PUSH2 0x49B JUMPI DUP1 PUSH1 0x3 NOT CALLDATASIZE ADD SLT PUSH2 0x49B JUMPI PUSH1 0x20 PUSH1 0x40 MLOAD PUSH5 0xE8D4A50FFF DUP2 MSTORE RETURN JUMPDEST DUP3 CALLVALUE PUSH2 0x49B JUMPI PUSH1 0x20 CALLDATASIZE PUSH1 0x3 NOT ADD SLT PUSH2 0x49B JUMPI PUSH1 0x1 PUSH1 0x1 PUSH1 0xA0 SHL SUB PUSH2 0x68C PUSH2 0x4A9D JUMP JUMPDEST AND DUP2 MSTORE PUSH1 0x7 PUSH1 0x20 MSTORE PUSH1 0x40 DUP2 KECCAK256 PUSH1 0xC DUP2 ADD SLOAD SWAP1 PUSH1 0xD DUP2 ADD SLOAD SWAP1 PUSH1 0xE DUP2 ADD SLOAD PUSH1 0xF DUP3 ADD SLOAD PUSH1 0x18 DUP4 ADD SLOAD SWAP1 PUSH1 0xFF PUSH1 0x4 DUP6 ADD SLOAD PUSH1 0xA8 SHR AND PUSH1 0x7 DUP2 LT ISZERO PUSH2 0x708 JUMPI PUSH2 0x100 SWAP8 POP PUSH1 0x25 ADD SLOAD SWAP3 PUSH1 0x1F PUSH1 0x1E DUP7 ADD SLOAD SWAP6 ADD SLOAD SWAP6 PUSH1 0x40 MLOAD SWAP8 DUP9 MSTORE PUSH1 0x20 DUP9 ADD MSTORE PUSH1 0x40 DUP8 ADD MSTORE PUSH1 0x60 DUP7 ADD MSTORE PUSH1 0x80 DUP6 ADD MSTORE PUSH1 0xA0 DUP5 ADD MSTORE PUSH1 0xC0 DUP4 ADD MSTORE PUSH1 0xE0 DUP3 ADD MSTORE RETURN JUMPDEST PUSH4 0x4E487B71 PUSH1 0xE0 SHL DUP9 MSTORE PUSH1 0x21 PUSH1 0x4 MSTORE PUSH1 0x24 DUP9 REVERT JUMPDEST DUP3 CALLVALUE PUSH2 0x49B JUMPI PUSH2 0x783 PUSH2 0x72E CALLDATASIZE PUSH2 0x4AB8 JUMP JUMPDEST SWAP1 SWAP2 PUSH1 0x1 DUP1 PUSH1 0xA0 SHL SUB SWAP1 PUSH2 0x747 DUP3 PUSH1 0x14 SLOAD AND CALLER EQ PUSH2 0x57A2 JUMP JUMPDEST AND DUP5 MSTORE PUSH1 0xC PUSH1 0x20 MSTORE PUSH1 0xFF PUSH1 0x40 DUP6 KECCAK256 SWAP2 PUSH1 0x40 MLOAD SWAP4 PUSH2 0x763 DUP6 PUSH2 0x4CE4 JUMP JUMPDEST PUSH1 0x8 DUP6 MSTORE PUSH1 0x20 DUP6 ADD MSTORE TIMESTAMP PUSH1 0x40 DUP6 ADD MSTORE DUP6 PUSH1 0x60 DUP6 ADD MSTORE AND PUSH1 0x80 DUP4 ADD MSTORE PUSH2 0x51D2 JUMP JUMPDEST DUP1 RETURN JUMPDEST DUP3 CALLVALUE PUSH2 0x49B JUMPI PUSH1 0x20 SWAP2 DUP3 PUSH1 0x3 NOT CALLDATASIZE ADD SLT PUSH2 0x60D JUMPI PUSH1 0x14 SLOAD PUSH1 0x40 MLOAD PUSH4 0x75B1F0E1 PUSH1 0xE1 SHL DUP2 MSTORE PUSH1 0x4 DUP1 CALLDATALOAD SWAP1 DUP3 ADD MSTORE SWAP2 SWAP1 DUP5 SWAP1 DUP4 SWAP1 PUSH1 0x24 SWAP1 DUP3 SWAP1 PUSH1 0x1 PUSH1 0x1 PUSH1 0xA0 SHL SUB AND GAS STATICCALL SWAP3 DUP4 ISZERO PUSH2 0x80F JUMPI SWAP3 PUSH2 0x7DF JUMPI JUMPDEST POP POP PUSH1 0x40 MLOAD SWAP1 DUP2 MSTORE RETURN JUMPDEST SWAP1 SWAP2 POP DUP3 DUP3 DUP2 RETURNDATASIZE DUP4 GT PUSH2 0x808 JUMPI JUMPDEST PUSH2 0x7F7 DUP2 DUP4 PUSH2 0x4D4B JUMP JUMPDEST DUP2 ADD SUB SLT PUSH2 0x49B JUMPI POP MLOAD DUP3 DUP1 PUSH2 0x7D5 JUMP JUMPDEST POP RETURNDATASIZE PUSH2 0x7ED JUMP JUMPDEST PUSH1 0x40 MLOAD SWAP1 RETURNDATASIZE SWAP1 DUP3 RETURNDATACOPY RETURNDATASIZE SWAP1 REVERT JUMPDEST DUP3 CALLVALUE PUSH2 0x49B JUMPI PUSH1 0x20 CALLDATASIZE PUSH1 0x3 NOT ADD SLT PUSH2 0x49B JUMPI PUSH2 0x835 PUSH2 0x4A9D JUMP JUMPDEST PUSH2 0x83D PUSH2 0x4E14 JUMP JUMPDEST PUSH1 0x1 PUSH1 0x1 PUSH1 0xA0 SHL SUB SWAP1 DUP2 AND SWAP1 PUSH2 0x854 DUP3 ISZERO ISZERO PUSH2 0x5CE7 JUMP JUMPDEST PUSH1 0x3 DUP1 SLOAD PUSH1 0x1 PUSH1 0x1 PUSH1 0xA0 SHL SUB NOT DUP2 AND DUP5 OR SWAP1 SWAP2 SSTORE AND PUSH32 0xAAEBCF1BFA00580E41D966056B48521FA9F202645C86D4DDF28113E617C1B1D3 DUP4 DUP1 LOG3 DUP1 RETURN JUMPDEST DUP3 CALLVALUE PUSH2 0x49B JUMPI PUSH1 0x20 CALLDATASIZE PUSH1 0x3 NOT ADD SLT PUSH2 0x49B JUMPI PUSH1 0x4 CALLDATALOAD PUSH1 0x7 DUP2 LT ISZERO PUSH2 0x60D JUMPI PUSH1 0x20 SWAP1 PUSH1 0x17 ADD SLOAD PUSH1 0x40 MLOAD SWAP1 DUP2 MSTORE RETURN JUMPDEST DUP3 CALLVALUE PUSH2 0x49B JUMPI DUP1 PUSH1 0x3 NOT CALLDATASIZE ADD SLT PUSH2 0x49B JUMPI PUSH1 0x20 PUSH2 0x8D8 PUSH2 0x5D35 JUMP JUMPDEST PUSH1 0x40 MLOAD SWAP1 DUP2 MSTORE RETURN JUMPDEST SWAP1 POP CALLVALUE PUSH2 0xABF JUMPI PUSH1 0x80 MLOAD DUP1 PUSH1 0x3 NOT CALLDATASIZE ADD SLT PUSH2 0x49B JUMPI POP PUSH2 0x8FE PUSH2 0x5369 JUMP JUMPDEST PUSH2 0x906 PUSH2 0x4F83 JUMP JUMPDEST CALLER PUSH1 0x80 MLOAD MSTORE PUSH1 0x20 PUSH1 0x8 DUP2 MSTORE PUSH2 0x923 PUSH1 0xFF PUSH1 0x40 PUSH1 0x80 MLOAD KECCAK256 SLOAD AND PUSH2 0x5130 JUMP JUMPDEST CALLER PUSH1 0x80 MLOAD MSTORE PUSH1 0x7 DUP2 MSTORE PUSH1 0x1 PUSH1 0xFF PUSH1 0x4 PUSH1 0x40 PUSH1 0x80 MLOAD KECCAK256 ADD SLOAD PUSH1 0xB0 SHR AND PUSH2 0x947 DUP2 PUSH2 0x4C60 JUMP JUMPDEST EQ DUP1 ISZERO PUSH2 0xB4B JUMPI JUMPDEST PUSH2 0x958 SWAP1 PUSH2 0x57A2 JUMP JUMPDEST PUSH1 0x14 SLOAD PUSH1 0x1 PUSH1 0x1 PUSH1 0xA0 SHL SUB SWAP2 SWAP1 DUP3 AND DUP1 ISZERO PUSH2 0xB21 JUMPI DUP2 PUSH1 0x24 SWAP2 PUSH1 0x40 MLOAD SWAP3 DUP4 DUP1 SWAP3 PUSH4 0x47CD5191 PUSH1 0xE0 SHL DUP3 MSTORE PUSH1 0x1 PUSH1 0x4 DUP4 ADD MSTORE GAS STATICCALL SWAP1 DUP2 ISZERO PUSH2 0xAB2 JUMPI PUSH1 0x80 MLOAD SWAP2 PUSH2 0xAF0 JUMPI JUMPDEST POP CALLER PUSH1 0x80 MLOAD MSTORE PUSH1 0x12 DUP3 MSTORE DUP1 PUSH1 0x40 PUSH1 0x80 MLOAD KECCAK256 SLOAD LT PUSH2 0xAC5 JUMPI SWAP1 PUSH2 0xA2C SWAP2 CALLER PUSH1 0x80 MLOAD MSTORE PUSH1 0x12 DUP3 MSTORE PUSH1 0x40 PUSH1 0x80 MLOAD KECCAK256 PUSH2 0x9D1 DUP3 DUP3 SLOAD PUSH2 0x4FA4 JUMP JUMPDEST SWAP1 SSTORE CALLER PUSH1 0x80 MLOAD MSTORE PUSH1 0x13 DUP3 MSTORE PUSH1 0x40 PUSH1 0x80 MLOAD KECCAK256 PUSH2 0x9EC DUP2 SLOAD PUSH2 0x4F74 JUMP JUMPDEST SWAP1 SSTORE CALLER PUSH1 0x80 MLOAD MSTORE PUSH1 0xC DUP3 MSTORE PUSH1 0x40 PUSH1 0x80 MLOAD KECCAK256 SWAP1 PUSH1 0x40 MLOAD SWAP3 PUSH2 0xA0B DUP5 PUSH2 0x4CE4 JUMP JUMPDEST PUSH1 0x8 DUP5 MSTORE DUP4 ADD MSTORE TIMESTAMP PUSH1 0x40 DUP4 ADD MSTORE PUSH1 0x80 MLOAD PUSH1 0x60 DUP4 ADD MSTORE PUSH1 0x1 PUSH1 0x80 DUP4 ADD MSTORE PUSH2 0x51D2 JUMP JUMPDEST PUSH1 0x14 SLOAD AND SWAP1 DUP2 EXTCODESIZE ISZERO PUSH2 0xABF JUMPI PUSH1 0x40 MLOAD SWAP2 PUSH4 0x686A38BD PUSH1 0xE0 SHL DUP4 MSTORE CALLER PUSH1 0x4 DUP5 ADD MSTORE PUSH1 0x1 PUSH1 0x24 DUP5 ADD MSTORE DUP3 PUSH1 0x44 DUP2 PUSH1 0x80 MLOAD DUP1 SWAP5 GAS CALL DUP1 ISZERO PUSH2 0xAB2 JUMPI PUSH2 0xA7F JUMPI JUMPDEST DUP3 PUSH1 0x1 PUSH1 0x0 DUP1 MLOAD PUSH1 0x20 PUSH2 0x5DD8 DUP4 CODECOPY DUP2 MLOAD SWAP2 MSTORE SSTORE DUP1 RETURN JUMPDEST SWAP1 SWAP2 POP PUSH1 0x1 PUSH1 0x1 PUSH1 0x40 SHL SUB DUP3 GT PUSH2 0xA9E JUMPI POP PUSH1 0x40 MSTORE PUSH1 0x80 MLOAD CODESIZE DUP1 PUSH2 0xA69 JUMP JUMPDEST PUSH4 0x4E487B71 PUSH1 0xE0 SHL DUP2 MSTORE PUSH1 0x41 PUSH1 0x4 MSTORE PUSH1 0x24 SWAP1 REVERT JUMPDEST PUSH1 0x40 MLOAD RETURNDATASIZE PUSH1 0x80 MLOAD DUP3 RETURNDATACOPY RETURNDATASIZE SWAP1 REVERT JUMPDEST PUSH1 0x80 MLOAD DUP1 REVERT JUMPDEST PUSH1 0x40 MLOAD PUSH3 0x461BCD PUSH1 0xE5 SHL DUP2 MSTORE PUSH1 0x4 DUP2 ADD DUP4 SWAP1 MSTORE PUSH1 0x3 PUSH1 0x24 DUP3 ADD MSTORE PUSH3 0x49425 PUSH1 0xEC SHL PUSH1 0x44 DUP3 ADD MSTORE PUSH1 0x64 SWAP1 REVERT JUMPDEST SWAP1 POP DUP2 DUP2 DUP2 RETURNDATASIZE DUP4 GT PUSH2 0xB1A JUMPI JUMPDEST PUSH2 0xB07 DUP2 DUP4 PUSH2 0x4D4B JUMP JUMPDEST DUP2 ADD SUB SLT PUSH2 0xB16 JUMPI MLOAD CODESIZE PUSH2 0x99B JUMP JUMPDEST DUP4 DUP1 REVERT JUMPDEST POP RETURNDATASIZE PUSH2 0xAFD JUMP JUMPDEST PUSH1 0x40 MLOAD PUSH3 0x461BCD PUSH1 0xE5 SHL DUP2 MSTORE PUSH1 0x4 DUP2 ADD DUP4 SWAP1 MSTORE PUSH1 0x2 PUSH1 0x24 DUP3 ADD MSTORE PUSH2 0x849 PUSH1 0xF3 SHL PUSH1 0x44 DUP3 ADD MSTORE PUSH1 0x64 SWAP1 REVERT JUMPDEST POP CALLER PUSH1 0x80 MLOAD MSTORE PUSH1 0x7 DUP2 MSTORE PUSH2 0x958 PUSH1 0x2 PUSH1 0xFF PUSH1 0x4 PUSH1 0x40 PUSH1 0x80 MLOAD KECCAK256 ADD SLOAD PUSH1 0xB0 SHR AND PUSH2 0xB73 DUP2 PUSH2 0x4C60 JUMP JUMPDEST EQ SWAP1 POP PUSH2 0x94F JUMP JUMPDEST CALLVALUE PUSH2 0xABF JUMPI PUSH1 0x20 CALLDATASIZE PUSH1 0x3 NOT ADD SLT PUSH2 0xABF JUMPI PUSH2 0xB94 PUSH2 0x4A9D JUMP JUMPDEST PUSH2 0xB9C PUSH2 0x4E14 JUMP JUMPDEST PUSH1 0x1 PUSH1 0x1 PUSH1 0xA0 SHL SUB SWAP1 DUP2 AND PUSH2 0xBB2 DUP2 ISZERO ISZERO PUSH2 0x5CE7 JUMP JUMPDEST PUSH1 0x14 DUP1 SLOAD PUSH1 0x1 PUSH1 0x1 PUSH1 0xA0 SHL SUB NOT DUP2 AND DUP4 OR SWAP1 SWAP2 SSTORE PUSH1 0x80 MLOAD SWAP3 AND PUSH32 0x8E4AC8019922EEA64E9103A076C60B36EC30C71C863A376D6557AB9F6734C484 DUP4 DUP1 LOG3 DUP1 RETURN JUMPDEST CALLVALUE PUSH2 0xABF JUMPI PUSH1 0x80 MLOAD DUP1 PUSH1 0x3 NOT CALLDATASIZE ADD SLT PUSH2 0x49B JUMPI PUSH1 0x20 PUSH1 0x40 MLOAD PUSH2 0x2710 DUP2 MSTORE RETURN JUMPDEST CALLVALUE PUSH2 0xABF JUMPI PUSH1 0x20 DUP1 PUSH1 0x3 NOT CALLDATASIZE ADD SLT PUSH2 0xABF JUMPI PUSH2 0xC2B PUSH2 0x4A9D JUMP JUMPDEST PUSH2 0xC33 PUSH2 0x4E14 JUMP JUMPDEST PUSH1 0x1 DUP1 PUSH1 0xA0 SHL SUB AND DUP1 PUSH1 0x80 MLOAD MSTORE PUSH1 0x8 DUP3 MSTORE PUSH2 0xC56 PUSH1 0xFF PUSH1 0x40 PUSH1 0x80 MLOAD KECCAK256 SLOAD AND PUSH2 0x5130 JUMP JUMPDEST DUP1 PUSH1 0x80 MLOAD MSTORE PUSH1 0x7 DUP3 MSTORE PUSH1 0x40 PUSH1 0x80 MLOAD KECCAK256 SWAP2 PUSH1 0x4 DUP4 ADD DUP1 SLOAD SWAP1 PUSH1 0x2 PUSH1 0xFF DUP4 PUSH1 0xB0 SHR AND PUSH2 0xC7F DUP2 PUSH2 0x4C60 JUMP JUMPDEST SUB PUSH2 0xD12 JUMPI PUSH1 0x1B DUP6 ADD SLOAD PUSH3 0x2A300 DUP2 ADD DUP1 SWAP2 GT PUSH2 0xCFA JUMPI TIMESTAMP GT ISZERO PUSH2 0xCD0 JUMPI PUSH1 0x6 PUSH1 0x0 DUP1 MLOAD PUSH1 0x20 PUSH2 0x5DB8 DUP4 CODECOPY DUP2 MLOAD SWAP2 MSTORE SWAP5 SWAP6 ADD SWAP2 DUP3 SLOAD SWAP3 PUSH1 0x80 MLOAD SWAP1 SSTORE PUSH1 0xFF PUSH1 0xB0 SHL NOT AND SWAP1 SSTORE PUSH1 0x40 MLOAD SWAP1 DUP2 MSTORE LOG2 PUSH1 0x80 MLOAD DUP1 RETURN JUMPDEST PUSH1 0x40 MLOAD PUSH3 0x461BCD PUSH1 0xE5 SHL DUP2 MSTORE PUSH1 0x4 DUP2 ADD DUP5 SWAP1 MSTORE PUSH1 0x2 PUSH1 0x24 DUP3 ADD MSTORE PUSH2 0x4745 PUSH1 0xF0 SHL PUSH1 0x44 DUP3 ADD MSTORE PUSH1 0x64 SWAP1 REVERT JUMPDEST PUSH4 0x4E487B71 PUSH1 0xE0 SHL PUSH1 0x80 MLOAD MSTORE PUSH1 0x11 PUSH1 0x4 MSTORE PUSH1 0x24 PUSH1 0x80 MLOAD REVERT JUMPDEST PUSH1 0x40 MLOAD PUSH3 0x461BCD PUSH1 0xE5 SHL DUP2 MSTORE PUSH1 0x4 DUP2 ADD DUP5 SWAP1 MSTORE PUSH1 0x2 PUSH1 0x24 DUP3 ADD MSTORE PUSH2 0x4E47 PUSH1 0xF0 SHL PUSH1 0x44 DUP3 ADD MSTORE PUSH1 0x64 SWAP1 REVERT JUMPDEST CALLVALUE PUSH2 0xABF JUMPI PUSH2 0xD6A PUSH2 0xD56 PUSH2 0xD50 CALLDATASIZE PUSH2 0x4AB8 JUMP JUMPDEST SWAP2 PUSH2 0x5AB1 JUMP JUMPDEST PUSH1 0x40 MLOAD SWAP3 DUP4 SWAP3 PUSH1 0x40 DUP5 MSTORE PUSH1 0x40 DUP5 ADD SWAP1 PUSH2 0x4B16 JUMP JUMPDEST SWAP1 PUSH1 0x20 DUP4 ADD MSTORE SUB SWAP1 RETURN JUMPDEST CALLVALUE PUSH2 0xABF JUMPI PUSH1 0x20 CALLDATASIZE PUSH1 0x3 NOT ADD SLT PUSH2 0xABF JUMPI PUSH1 0x1 PUSH1 0x1 PUSH1 0xA0 SHL SUB PUSH2 0xD95 PUSH2 0x4A9D JUMP JUMPDEST AND PUSH1 0x80 MLOAD MSTORE PUSH1 0xC PUSH1 0x20 MSTORE PUSH1 0x20 PUSH1 0x40 PUSH1 0x80 MLOAD KECCAK256 SLOAD PUSH1 0x40 MLOAD SWAP1 DUP2 MSTORE RETURN JUMPDEST CALLVALUE PUSH2 0xABF JUMPI PUSH1 0x80 MLOAD DUP1 PUSH1 0x3 NOT CALLDATASIZE ADD SLT PUSH2 0x49B JUMPI PUSH2 0xDCB PUSH2 0x5369 JUMP JUMPDEST PUSH2 0xDD3 PUSH2 0x4F83 JUMP JUMPDEST CALLER PUSH1 0x80 MLOAD MSTORE PUSH1 0x20 PUSH1 0x8 DUP2 MSTORE PUSH2 0xDF0 PUSH1 0xFF PUSH1 0x40 PUSH1 0x80 MLOAD KECCAK256 SLOAD AND PUSH2 0x5130 JUMP JUMPDEST CALLER PUSH1 0x80 MLOAD MSTORE PUSH1 0x7 DUP2 MSTORE PUSH1 0x40 PUSH1 0x80 MLOAD KECCAK256 SWAP1 PUSH1 0x4 DUP3 ADD SWAP1 DUP2 SLOAD PUSH1 0xFF DUP2 PUSH1 0xB0 SHR AND PUSH2 0xE17 DUP2 PUSH2 0x4C60 JUMP JUMPDEST DUP1 ISZERO SWAP1 DUP2 ISZERO PUSH2 0x1026 JUMPI JUMPDEST POP ISZERO PUSH2 0xFFC JUMPI PUSH1 0xA8 SHR PUSH1 0xFF AND PUSH1 0x7 DUP2 LT ISZERO PUSH2 0xFE4 JUMPI PUSH1 0x1 DUP2 LT PUSH2 0xFBA JUMPI PUSH1 0x17 ADD SLOAD SWAP2 PUSH1 0x1 DUP1 PUSH1 0xA0 SHL SUB SWAP4 PUSH2 0xE5D DUP5 DUP7 PUSH1 0x1 SLOAD AND ADDRESS SWAP1 CALLER SWAP1 PUSH2 0x52FC JUMP JUMPDEST PUSH1 0x18 PUSH1 0x1 PUSH1 0xB0 SHL PUSH1 0xFF PUSH1 0xB0 SHL NOT DUP5 SLOAD AND OR SWAP2 DUP3 DUP5 SSTORE PUSH1 0x80 MLOAD SWAP2 DUP2 DUP4 PUSH1 0xB DUP2 SWAP5 ADD SSTORE DUP3 PUSH1 0x6 DUP3 ADD SSTORE DUP3 PUSH1 0x1B DUP3 ADD SSTORE ADD SSTORE CALLER SWAP1 MSTORE PUSH1 0xC DUP4 MSTORE PUSH1 0x80 MLOAD SWAP1 PUSH1 0xFF PUSH1 0x40 DUP4 KECCAK256 SWAP2 PUSH1 0xA8 SHR AND SWAP2 PUSH1 0x7 DUP4 LT ISZERO PUSH2 0xFA3 JUMPI POP SWAP2 PUSH2 0xEE5 PUSH1 0xFF SWAP3 DUP7 SWAP5 PUSH1 0x40 MLOAD SWAP2 PUSH2 0xEC3 DUP4 PUSH2 0x4CE4 JUMP JUMPDEST PUSH1 0x80 MLOAD DUP4 MSTORE DUP7 DUP9 DUP5 ADD MSTORE TIMESTAMP PUSH1 0x40 DUP5 ADD MSTORE PUSH1 0x80 MLOAD PUSH1 0x60 DUP5 ADD MSTORE PUSH1 0x80 DUP4 ADD MSTORE PUSH2 0x51D2 JUMP JUMPDEST SLOAD PUSH1 0xA8 SHR AND SWAP2 PUSH2 0xEF8 PUSH1 0x40 MLOAD DUP1 SWAP5 PUSH2 0x4C80 JUMP JUMPDEST DUP3 ADD MSTORE PUSH32 0xF71A293B26BE95A1C2120E73A1712C62B20F254AE47EFF7F6E799402984E6AB PUSH1 0x40 CALLER SWAP3 LOG2 PUSH2 0x1770 SWAP2 DUP3 DUP3 MUL SWAP3 DUP3 DUP5 DIV EQ DUP3 ISZERO OR ISZERO PUSH2 0xCFA JUMPI PUSH2 0xF47 PUSH2 0x2710 PUSH2 0xF6D SWAP5 DIV DUP1 SWAP4 PUSH2 0x4FA4 JUMP JUMPDEST DUP2 PUSH1 0x4 SLOAD AND DUP1 ISZERO ISZERO DUP1 PUSH2 0xF9A JUMPI JUMPDEST PUSH2 0xF85 JUMPI JUMPDEST POP POP POP PUSH2 0xF67 DUP2 CALLER PUSH2 0x5399 JUMP JUMPDEST CALLER PUSH2 0x54C4 JUMP JUMPDEST PUSH1 0x1 PUSH1 0x0 DUP1 MLOAD PUSH1 0x20 PUSH2 0x5DD8 DUP4 CODECOPY DUP2 MLOAD SWAP2 MSTORE SSTORE PUSH1 0x80 MLOAD DUP1 RETURN JUMPDEST PUSH2 0xF92 SWAP3 PUSH1 0x1 SLOAD AND PUSH2 0x527B JUMP JUMPDEST DUP3 DUP1 DUP1 PUSH2 0xF5A JUMP JUMPDEST POP DUP2 ISZERO ISZERO PUSH2 0xF55 JUMP JUMPDEST PUSH4 0x4E487B71 PUSH1 0xE0 SHL SWAP1 MSTORE PUSH1 0x21 PUSH1 0x4 MSTORE PUSH1 0x80 MLOAD PUSH1 0x24 SWAP1 REVERT JUMPDEST PUSH1 0x40 MLOAD PUSH3 0x461BCD PUSH1 0xE5 SHL DUP2 MSTORE PUSH1 0x4 DUP2 ADD DUP4 SWAP1 MSTORE PUSH1 0x2 PUSH1 0x24 DUP3 ADD MSTORE PUSH2 0x4E5 PUSH1 0xF4 SHL PUSH1 0x44 DUP3 ADD MSTORE PUSH1 0x64 SWAP1 REVERT JUMPDEST PUSH4 0x4E487B71 PUSH1 0xE0 SHL PUSH1 0x80 MLOAD MSTORE PUSH1 0x21 PUSH1 0x4 MSTORE PUSH1 0x24 PUSH1 0x80 MLOAD REVERT JUMPDEST PUSH1 0x40 MLOAD PUSH3 0x461BCD PUSH1 0xE5 SHL DUP2 MSTORE PUSH1 0x4 DUP2 ADD DUP4 SWAP1 MSTORE PUSH1 0x2 PUSH1 0x24 DUP3 ADD MSTORE PUSH2 0x4D49 PUSH1 0xF0 SHL PUSH1 0x44 DUP3 ADD MSTORE PUSH1 0x64 SWAP1 REVERT JUMPDEST PUSH1 0x2 SWAP2 POP PUSH2 0x1033 DUP2 PUSH2 0x4C60 JUMP JUMPDEST EQ DUP6 PUSH2 0xE21 JUMP JUMPDEST CALLVALUE PUSH2 0xABF JUMPI PUSH1 0x40 CALLDATASIZE PUSH1 0x3 NOT ADD SLT PUSH2 0xABF JUMPI PUSH1 0x14 SLOAD PUSH1 0x40 MLOAD PUSH4 0x6A548143 PUSH1 0xE1 SHL DUP2 MSTORE PUSH1 0x4 DUP1 CALLDATALOAD SWAP1 DUP3 ADD MSTORE PUSH1 0x24 DUP1 CALLDATALOAD SWAP1 DUP3 ADD MSTORE PUSH1 0x1 PUSH1 0x1 PUSH1 0xA0 SHL SUB SWAP2 PUSH1 0x60 SWAP1 DUP3 SWAP1 PUSH1 0x44 SWAP1 DUP3 SWAP1 DUP7 AND GAS STATICCALL DUP1 ISZERO PUSH2 0xAB2 JUMPI PUSH1 0x80 MLOAD SWAP2 DUP3 SWAP1 DUP4 SWAP3 PUSH2 0x10AE JUMPI JUMPDEST POP PUSH1 0x60 SWAP4 PUSH1 0x40 MLOAD SWAP4 AND DUP4 MSTORE PUSH1 0x20 DUP4 ADD MSTORE ISZERO ISZERO PUSH1 0x40 DUP3 ADD MSTORE RETURN JUMPDEST SWAP3 POP POP POP PUSH1 0x60 DUP2 RETURNDATASIZE DUP3 GT PUSH2 0x10FB JUMPI JUMPDEST DUP2 PUSH2 0x10CA PUSH1 0x60 SWAP4 DUP4 PUSH2 0x4D4B JUMP JUMPDEST DUP2 ADD SUB SLT PUSH2 0xABF JUMPI DUP1 MLOAD SWAP2 DUP1 DUP4 AND DUP4 SUB PUSH2 0xABF JUMPI PUSH1 0x40 PUSH1 0x20 DUP4 ADD MLOAD SWAP3 ADD MLOAD DUP1 ISZERO ISZERO DUP2 SUB PUSH2 0xABF JUMPI SWAP1 SWAP3 SWAP2 PUSH1 0x60 PUSH2 0x1095 JUMP JUMPDEST RETURNDATASIZE SWAP2 POP PUSH2 0x10BD JUMP JUMPDEST CALLVALUE PUSH2 0xABF JUMPI PUSH1 0x20 DUP1 PUSH1 0x3 NOT CALLDATASIZE ADD SLT PUSH2 0xABF JUMPI PUSH1 0x1 PUSH1 0x1 PUSH1 0xA0 SHL SUB SWAP1 DUP2 PUSH2 0x1127 PUSH2 0x4A9D JUMP JUMPDEST AND PUSH1 0x80 MLOAD MSTORE PUSH1 0xA DUP2 MSTORE PUSH1 0x40 PUSH1 0x80 MLOAD KECCAK256 SWAP2 PUSH1 0x40 MLOAD DUP1 SWAP4 DUP5 SWAP2 DUP5 DUP3 SLOAD SWAP2 DUP3 DUP2 MSTORE ADD SWAP2 PUSH1 0x80 MLOAD MSTORE PUSH1 0x80 MLOAD SWAP4 DUP6 DUP6 KECCAK256 SWAP5 SWAP1 JUMPDEST DUP7 DUP4 DUP4 LT PUSH2 0x1183 JUMPI DUP6 SWAP1 PUSH2 0x116B DUP3 DUP8 SUB DUP4 PUSH2 0x4D4B JUMP JUMPDEST PUSH2 0x117F PUSH1 0x40 MLOAD SWAP3 DUP3 DUP5 SWAP4 DUP5 MSTORE DUP4 ADD SWAP1 PUSH2 0x4B16 JUMP JUMPDEST SUB SWAP1 RETURN JUMPDEST DUP7 SLOAD DUP3 AND DUP6 MSTORE PUSH1 0x1 SWAP7 DUP8 ADD SWAP7 DUP10 SWAP7 POP SWAP5 ADD SWAP4 SWAP2 SWAP1 SWAP2 ADD SWAP1 PUSH2 0x1155 JUMP JUMPDEST CALLVALUE PUSH2 0xABF JUMPI PUSH2 0x120B PUSH2 0x11B0 CALLDATASIZE PUSH2 0x4AB8 JUMP JUMPDEST SWAP1 SWAP2 PUSH1 0x1 DUP1 PUSH1 0xA0 SHL SUB SWAP1 PUSH2 0x11C9 DUP3 PUSH1 0x14 SLOAD AND CALLER EQ PUSH2 0x57A2 JUMP JUMPDEST AND PUSH1 0x80 MLOAD MSTORE PUSH1 0xC PUSH1 0x20 MSTORE PUSH1 0xFF PUSH1 0x40 PUSH1 0x80 MLOAD KECCAK256 SWAP2 PUSH1 0x40 MLOAD SWAP4 PUSH2 0x11E9 DUP6 PUSH2 0x4CE4 JUMP JUMPDEST PUSH1 0x9 DUP6 MSTORE PUSH1 0x20 DUP6 ADD MSTORE TIMESTAMP PUSH1 0x40 DUP6 ADD MSTORE PUSH1 0x80 MLOAD PUSH1 0x60 DUP6 ADD MSTORE AND PUSH1 0x80 DUP4 ADD MSTORE PUSH2 0x51D2 JUMP JUMPDEST PUSH1 0x80 MLOAD DUP1 RETURN JUMPDEST CALLVALUE PUSH2 0xABF JUMPI PUSH1 0x80 MLOAD DUP1 PUSH1 0x3 NOT CALLDATASIZE ADD SLT PUSH2 0x49B JUMPI PUSH1 0x15 SLOAD PUSH1 0x40 MLOAD PUSH1 0x1 PUSH1 0x1 PUSH1 0xA0 SHL SUB SWAP1 SWAP2 AND DUP2 MSTORE PUSH1 0x20 SWAP1 RETURN JUMPDEST CALLVALUE PUSH2 0xABF JUMPI PUSH1 0x20 DUP1 PUSH1 0x3 NOT CALLDATASIZE ADD SLT PUSH2 0xABF JUMPI PUSH1 0x4 CALLDATALOAD SWAP1 PUSH1 0x1 PUSH1 0x1 PUSH1 0x40 SHL SUB SWAP1 DUP2 DUP4 GT PUSH2 0xABF JUMPI CALLDATASIZE PUSH1 0x23 DUP5 ADD SLT ISZERO PUSH2 0xABF JUMPI DUP3 PUSH1 0x4 ADD CALLDATALOAD SWAP2 DUP3 GT PUSH2 0xABF JUMPI PUSH1 0x24 SWAP3 PUSH1 0x5 SWAP1 CALLDATASIZE DUP6 DUP6 DUP5 SHL DUP4 ADD ADD GT PUSH2 0xABF JUMPI PUSH2 0x1294 PUSH2 0x4E14 JUMP JUMPDEST PUSH1 0x80 MLOAD JUMPDEST DUP5 DUP2 LT PUSH2 0x12A5 JUMPI PUSH1 0x80 MLOAD DUP1 RETURN JUMPDEST DUP1 DUP4 SHL DUP3 ADD DUP7 ADD CALLDATALOAD PUSH1 0x1 PUSH1 0x1 PUSH1 0xA0 SHL SUB DUP2 AND SWAP2 SWAP1 DUP3 SWAP1 SUB PUSH2 0xABF JUMPI DUP2 PUSH1 0x80 MLOAD MSTORE PUSH1 0x8 DUP6 MSTORE PUSH1 0x80 MLOAD SWAP2 PUSH1 0xFF SWAP3 DUP4 PUSH1 0x40 DUP3 KECCAK256 SLOAD AND ISZERO PUSH2 0x1385 JUMPI PUSH1 0x40 SWAP1 PUSH1 0x7 DUP9 MSTORE KECCAK256 PUSH1 0x4 DUP2 ADD SWAP4 PUSH1 0x2 DUP6 SLOAD SWAP2 DUP3 PUSH1 0xB0 SHR AND PUSH2 0x12FC DUP2 PUSH2 0x4C60 JUMP JUMPDEST SUB PUSH2 0x1378 JUMPI PUSH1 0x1B DUP3 ADD SLOAD SWAP1 PUSH3 0x2A300 DUP3 ADD DUP1 SWAP3 GT PUSH2 0x1361 JUMPI PUSH2 0x1352 SWAP6 DUP10 SWAP3 TIMESTAMP GT ISZERO PUSH2 0x1357 JUMPI PUSH1 0x6 PUSH1 0x0 DUP1 MLOAD PUSH1 0x20 PUSH2 0x5DB8 DUP4 CODECOPY DUP2 MLOAD SWAP2 MSTORE SWAP5 ADD SWAP2 DUP3 SLOAD SWAP3 PUSH1 0x80 MLOAD SWAP1 SSTORE PUSH1 0xFF PUSH1 0xB0 SHL NOT AND SWAP1 SSTORE PUSH1 0x40 MLOAD SWAP1 DUP2 MSTORE LOG2 PUSH2 0x4F74 JUMP JUMPDEST PUSH2 0x1298 JUMP JUMPDEST POP POP POP POP POP PUSH2 0x4F74 JUMP JUMPDEST DUP11 PUSH4 0x4E487B71 PUSH1 0xE0 SHL PUSH1 0x80 MLOAD MSTORE PUSH1 0x11 PUSH1 0x4 MSTORE PUSH1 0x80 MLOAD REVERT JUMPDEST POP POP POP PUSH2 0x1352 SWAP2 POP PUSH2 0x4F74 JUMP JUMPDEST POP POP PUSH2 0x1352 SWAP2 POP PUSH2 0x4F74 JUMP JUMPDEST CALLVALUE PUSH2 0xABF JUMPI PUSH1 0x80 MLOAD DUP1 PUSH1 0x3 NOT CALLDATASIZE ADD SLT PUSH2 0x49B JUMPI PUSH1 0x14 SLOAD PUSH1 0x40 MLOAD PUSH1 0x1 PUSH1 0x1 PUSH1 0xA0 SHL SUB SWAP1 SWAP2 AND DUP2 MSTORE PUSH1 0x20 SWAP1 RETURN JUMPDEST CALLVALUE PUSH2 0xABF JUMPI PUSH1 0x20 CALLDATASIZE PUSH1 0x3 NOT ADD SLT PUSH2 0xABF JUMPI PUSH1 0x1 PUSH1 0x1 PUSH1 0xA0 SHL SUB PUSH2 0x13DD PUSH2 0x4A9D JUMP JUMPDEST AND PUSH1 0x80 MLOAD MSTORE PUSH1 0x8 PUSH1 0x20 MSTORE PUSH1 0x20 PUSH1 0xFF PUSH1 0x40 PUSH1 0x80 MLOAD KECCAK256 SLOAD AND PUSH1 0x40 MLOAD SWAP1 ISZERO ISZERO DUP2 MSTORE RETURN JUMPDEST CALLVALUE PUSH2 0xABF JUMPI PUSH1 0x80 MLOAD DUP1 PUSH1 0x3 NOT CALLDATASIZE ADD SLT PUSH2 0x49B JUMPI PUSH1 0x2 SLOAD PUSH1 0x40 MLOAD PUSH1 0x1 PUSH1 0x1 PUSH1 0xA0 SHL SUB SWAP1 SWAP2 AND DUP2 MSTORE PUSH1 0x20 SWAP1 RETURN JUMPDEST CALLVALUE PUSH2 0xABF JUMPI PUSH1 0x60 CALLDATASIZE PUSH1 0x3 NOT ADD SLT PUSH2 0xABF JUMPI PUSH1 0x24 CALLDATALOAD SWAP1 PUSH1 0x44 CALLDATALOAD SWAP1 DUP2 ISZERO ISZERO DUP3 SUB PUSH2 0x49B JUMPI POP PUSH2 0x1453 PUSH2 0x4F83 JUMP JUMPDEST CALLER PUSH1 0x80 MLOAD MSTORE PUSH1 0x20 SWAP2 PUSH1 0x8 DUP4 MSTORE PUSH2 0x1472 PUSH1 0xFF PUSH1 0x40 PUSH1 0x80 MLOAD KECCAK256 SLOAD AND ISZERO PUSH2 0x4E40 JUMP JUMPDEST PUSH1 0x80 MLOAD PUSH1 0xB SLOAD PUSH2 0x165D JUMPI POP POP POP PUSH1 0x80 MLOAD DUP1 SWAP2 DUP2 JUMPDEST PUSH2 0x148E PUSH2 0x4FB1 JUMP JUMPDEST SWAP2 DUP3 PUSH1 0x80 MLOAD MSTORE PUSH1 0x10 DUP2 MSTORE PUSH1 0x80 MLOAD PUSH1 0x40 DUP2 KECCAK256 SWAP1 PUSH1 0xFF NOT SWAP2 PUSH1 0x1 DUP4 DUP3 SLOAD AND OR SWAP1 SSTORE PUSH1 0xF DUP4 MSTORE PUSH1 0x40 DUP2 KECCAK256 SWAP1 PUSH1 0x1 DUP1 PUSH1 0xA0 SHL SUB NOT SWAP2 CALLER DUP4 DUP3 SLOAD AND OR SWAP1 SSTORE CALLER SWAP1 MSTORE PUSH1 0x7 DUP4 MSTORE PUSH1 0x40 PUSH1 0x80 MLOAD KECCAK256 DUP6 DUP2 SSTORE PUSH1 0x1 DUP2 ADD SWAP7 PUSH1 0x1 DUP1 PUSH1 0xA0 SHL SUB DUP1 SWAP2 AND SWAP8 DUP9 DUP5 DUP3 SLOAD AND OR SWAP1 SSTORE PUSH1 0x2 DUP3 ADD SWAP9 AND SWAP8 DUP9 DUP4 DUP3 SLOAD AND OR SWAP1 SSTORE PUSH1 0x4 DUP2 ADD PUSH2 0x150C DUP7 DUP3 PUSH2 0x4ED3 JUMP JUMPDEST DUP1 SLOAD PUSH1 0xFF PUSH1 0xB0 SHL NOT AND SWAP1 SSTORE TIMESTAMP PUSH1 0x1C DUP3 ADD SSTORE PUSH1 0x80 MLOAD DUP9 ISZERO DUP1 ISZERO SWAP3 SWAP2 DUP11 SWAP2 DUP2 SWAP1 PUSH2 0x1651 JUMPI POP MSTORE PUSH1 0x7 DUP6 MSTORE PUSH1 0x80 MLOAD PUSH1 0x1F PUSH1 0x40 DUP3 KECCAK256 ADD SLOAD SWAP1 PUSH1 0x1 DUP3 ADD DUP1 SWAP3 GT PUSH2 0x163A JUMPI POP PUSH1 0x1F SWAP1 SWAP2 JUMPDEST ADD SSTORE PUSH2 0x15E7 JUMPI JUMPDEST POP DUP5 PUSH2 0x15AC JUMPI JUMPDEST CALLER PUSH1 0x80 MLOAD MSTORE PUSH1 0x8 DUP3 MSTORE PUSH1 0x1 PUSH1 0x40 PUSH1 0x80 MLOAD KECCAK256 SWAP2 DUP3 SLOAD AND OR SWAP1 SSTORE PUSH2 0x1580 CALLER PUSH2 0x4F1A JUMP JUMPDEST PUSH1 0x40 MLOAD SWAP3 DUP4 MSTORE PUSH2 0x158F DUP3 PUSH2 0x4C60 JUMP JUMPDEST DUP3 ADD MSTORE PUSH1 0x0 DUP1 MLOAD PUSH1 0x20 PUSH2 0x5D78 DUP4 CODECOPY DUP2 MLOAD SWAP2 MSTORE PUSH1 0x40 CALLER SWAP3 LOG4 PUSH1 0x80 MLOAD DUP1 RETURN JUMPDEST DUP5 PUSH1 0x80 MLOAD MSTORE PUSH1 0xA DUP3 MSTORE PUSH2 0x15C4 CALLER PUSH1 0x40 PUSH1 0x80 MLOAD KECCAK256 PUSH2 0x4F57 JUMP JUMPDEST DUP5 PUSH1 0x80 MLOAD MSTORE PUSH1 0x7 DUP3 MSTORE PUSH1 0x1A PUSH1 0x40 PUSH1 0x80 MLOAD KECCAK256 ADD PUSH2 0x15E0 DUP2 SLOAD PUSH2 0x4F74 JUMP JUMPDEST SWAP1 SSTORE PUSH2 0x155F JUMP JUMPDEST PUSH2 0x15F0 DUP5 PUSH2 0x4C60 JUMP JUMPDEST PUSH1 0x1 DUP5 SUB PUSH2 0x161A JUMPI DUP7 PUSH1 0x80 MLOAD MSTORE PUSH1 0x7 DUP4 MSTORE PUSH1 0x3 PUSH1 0x40 PUSH1 0x80 MLOAD KECCAK256 ADD SWAP1 CALLER SWAP1 DUP3 SLOAD AND OR SWAP1 SSTORE JUMPDEST DUP7 PUSH2 0x1558 JUMP JUMPDEST DUP7 PUSH1 0x80 MLOAD MSTORE PUSH1 0x7 DUP4 MSTORE PUSH1 0x4 PUSH1 0x40 PUSH1 0x80 MLOAD KECCAK256 ADD SWAP1 CALLER SWAP1 DUP3 SLOAD AND OR SWAP1 SSTORE PUSH2 0x1614 JUMP JUMPDEST PUSH4 0x4E487B71 PUSH1 0xE0 SHL SWAP1 MSTORE PUSH1 0x11 PUSH1 0x4 MSTORE PUSH1 0x80 MLOAD PUSH1 0x24 SWAP1 REVERT JUMPDEST SWAP1 POP PUSH1 0x1F SWAP2 POP SWAP2 PUSH2 0x1551 JUMP JUMPDEST PUSH1 0x4 CALLDATALOAD SWAP1 MSTORE PUSH1 0xF DUP4 MSTORE PUSH1 0x80 MLOAD SWAP2 PUSH1 0x1 DUP1 PUSH1 0xA0 SHL SUB SWAP2 DUP3 PUSH1 0x40 DUP6 KECCAK256 SLOAD AND DUP1 SWAP5 DUP2 ISZERO ISZERO SWAP1 DUP2 PUSH2 0x170A JUMPI JUMPDEST POP PUSH2 0x1690 SWAP2 POP PUSH2 0x4E71 JUMP JUMPDEST DUP1 PUSH2 0x16C1 JUMPI POP DUP3 SWAP2 POP JUMPDEST ISZERO PUSH2 0x16B0 JUMPI PUSH2 0x16A8 SWAP1 PUSH2 0x5104 JUMP JUMPDEST SWAP2 PUSH1 0x1 PUSH2 0x1486 JUMP JUMPDEST PUSH2 0x16B9 SWAP1 PUSH2 0x50D3 JUMP JUMPDEST SWAP2 PUSH1 0x2 PUSH2 0x1486 JUMP JUMPDEST PUSH1 0x80 MLOAD MSTORE PUSH1 0xF DUP5 MSTORE PUSH1 0x80 MLOAD SWAP2 PUSH1 0x40 DUP4 KECCAK256 SLOAD AND DUP1 SWAP3 DUP2 ISZERO ISZERO SWAP1 DUP2 PUSH2 0x16EF JUMPI JUMPDEST POP PUSH2 0x16EA SWAP2 POP PUSH2 0x4EA2 JUMP JUMPDEST PUSH2 0x169A JUMP JUMPDEST SWAP1 POP MSTORE PUSH1 0x8 DUP5 MSTORE PUSH2 0x16EA PUSH1 0xFF PUSH1 0x40 PUSH1 0x80 MLOAD KECCAK256 SLOAD AND DUP4 SWAP2 PUSH2 0x16DF JUMP JUMPDEST SWAP1 POP MSTORE PUSH1 0x8 DUP6 MSTORE PUSH2 0x1690 PUSH1 0xFF PUSH1 0x40 PUSH1 0x80 MLOAD KECCAK256 SLOAD AND DUP6 SWAP2 PUSH2 0x1685 JUMP JUMPDEST CALLVALUE PUSH2 0xABF JUMPI PUSH1 0x20 CALLDATASIZE PUSH1 0x3 NOT ADD SLT PUSH2 0xABF JUMPI PUSH1 0x1 PUSH1 0x1 PUSH1 0xA0 SHL SUB PUSH2 0x1746 PUSH2 0x4A9D JUMP JUMPDEST AND PUSH1 0x80 MLOAD MSTORE PUSH1 0x7 PUSH1 0x20 MSTORE PUSH1 0x80 MLOAD PUSH1 0x40 DUP2 KECCAK256 PUSH1 0x7 DUP2 ADD SLOAD SWAP1 PUSH1 0x8 DUP2 ADD SLOAD SWAP1 PUSH1 0x9 DUP2 ADD SLOAD PUSH1 0xA DUP3 ADD SLOAD PUSH1 0xB DUP4 ADD SLOAD SWAP2 PUSH1 0xFF PUSH1 0x4 PUSH1 0x1D DUP7 ADD SLOAD SWAP6 ADD SLOAD PUSH1 0xA8 SHR AND PUSH1 0x7 DUP2 LT ISZERO PUSH2 0x17BB JUMPI PUSH1 0xE0 SWAP8 POP PUSH1 0x2C ADD SLOAD SWAP5 PUSH1 0x40 MLOAD SWAP7 DUP8 MSTORE PUSH1 0x20 DUP8 ADD MSTORE PUSH1 0x40 DUP7 ADD MSTORE PUSH1 0x60 DUP6 ADD MSTORE PUSH1 0x80 DUP5 ADD MSTORE PUSH1 0xA0 DUP4 ADD MSTORE PUSH1 0xC0 DUP3 ADD MSTORE RETURN JUMPDEST PUSH4 0x4E487B71 PUSH1 0xE0 SHL DUP9 MSTORE PUSH1 0x21 PUSH1 0x4 MSTORE PUSH1 0x80 MLOAD PUSH1 0x24 SWAP1 REVERT JUMPDEST CALLVALUE PUSH2 0xABF JUMPI PUSH1 0x80 MLOAD DUP1 PUSH1 0x3 NOT CALLDATASIZE ADD SLT PUSH2 0x49B JUMPI PUSH1 0x20 PUSH1 0x40 MLOAD PUSH3 0x2A300 DUP2 MSTORE RETURN JUMPDEST CALLVALUE PUSH2 0xABF JUMPI PUSH1 0x20 CALLDATASIZE PUSH1 0x3 NOT ADD SLT PUSH2 0xABF JUMPI PUSH2 0x180B PUSH2 0x4A9D JUMP JUMPDEST PUSH2 0x1813 PUSH2 0x4E14 JUMP JUMPDEST PUSH1 0x1 PUSH1 0x1 PUSH1 0xA0 SHL SUB SWAP1 DUP2 AND PUSH2 0x1829 DUP2 ISZERO ISZERO PUSH2 0x5CE7 JUMP JUMPDEST PUSH1 0x2 DUP1 SLOAD PUSH1 0x1 PUSH1 0x1 PUSH1 0xA0 SHL SUB NOT DUP2 AND DUP4 OR SWAP1 SWAP2 SSTORE PUSH1 0x80 MLOAD SWAP3 AND PUSH32 0xFA56BEAA7224E963963FC4C47C38A66D9813310693D7BB15814EA8E39B335184 DUP4 DUP1 LOG3 DUP1 RETURN JUMPDEST CALLVALUE PUSH2 0xABF JUMPI PUSH1 0x20 CALLDATASIZE PUSH1 0x3 NOT ADD SLT PUSH2 0xABF JUMPI PUSH1 0x4 CALLDATALOAD PUSH1 0x7 DUP2 LT ISZERO PUSH2 0xABF JUMPI PUSH1 0x20 SWAP1 PUSH1 0x3A ADD SLOAD PUSH1 0x40 MLOAD SWAP1 DUP2 MSTORE RETURN JUMPDEST CALLVALUE PUSH2 0xABF JUMPI PUSH1 0x20 CALLDATASIZE PUSH1 0x3 NOT ADD SLT PUSH2 0xABF JUMPI PUSH1 0x4 CALLDATALOAD PUSH1 0x80 MLOAD MSTORE PUSH1 0xF PUSH1 0x20 MSTORE PUSH1 0x20 PUSH1 0x1 DUP1 PUSH1 0xA0 SHL SUB PUSH1 0x40 PUSH1 0x80 MLOAD KECCAK256 SLOAD AND PUSH1 0x40 MLOAD SWAP1 DUP2 MSTORE RETURN JUMPDEST PUSH2 0x4C8D JUMP JUMPDEST CALLVALUE PUSH2 0xABF JUMPI PUSH1 0x20 CALLDATASIZE PUSH1 0x3 NOT ADD SLT PUSH2 0xABF JUMPI PUSH1 0x4 CALLDATALOAD PUSH2 0x18EC PUSH2 0x4E14 JUMP JUMPDEST PUSH2 0x7D0 DUP2 GT PUSH2 0x1932 JUMPI PUSH1 0x40 PUSH32 0x72AA1EF4707DFA7DEFD1468E6FFC70BF9517CE19E3AFAD93FCF4BE42F2D494F5 SWAP2 PUSH1 0x5 SLOAD SWAP1 DUP1 PUSH1 0x5 SSTORE DUP3 MLOAD SWAP2 DUP3 MSTORE PUSH1 0x20 DUP3 ADD MSTORE LOG1 PUSH1 0x80 MLOAD DUP1 RETURN JUMPDEST PUSH1 0x40 MLOAD PUSH3 0x461BCD PUSH1 0xE5 SHL DUP2 MSTORE PUSH1 0x20 PUSH1 0x4 DUP3 ADD MSTORE PUSH1 0x2 PUSH1 0x24 DUP3 ADD MSTORE PUSH2 0x8C9 PUSH1 0xF3 SHL PUSH1 0x44 DUP3 ADD MSTORE PUSH1 0x64 SWAP1 REVERT JUMPDEST CALLVALUE PUSH2 0xABF JUMPI PUSH1 0x20 CALLDATASIZE PUSH1 0x3 NOT ADD SLT PUSH2 0xABF JUMPI PUSH1 0x1 PUSH1 0x1 PUSH1 0xA0 SHL SUB PUSH2 0x197D PUSH2 0x4A9D JUMP JUMPDEST PUSH1 0x80 DUP1 MLOAD SWAP2 SWAP1 SWAP3 AND SWAP1 MSTORE PUSH1 0x7 PUSH1 0x20 DUP2 DUP2 MSTORE SWAP2 MLOAD PUSH1 0x40 SWAP1 KECCAK256 PUSH2 0x1C0 DUP2 SWAP1 MSTORE DUP1 SLOAD PUSH2 0x2C0 MSTORE PUSH1 0x1 DUP2 ADD SLOAD PUSH1 0x2 DUP3 ADD SLOAD PUSH1 0x1 PUSH1 0x1 PUSH1 0xA0 SHL SUB SWAP1 DUP2 AND PUSH2 0x280 MSTORE PUSH1 0x3 DUP4 ADD SLOAD DUP2 AND PUSH2 0x180 MSTORE PUSH1 0x4 DUP4 ADD SLOAD PUSH1 0x5 DUP5 ADD SLOAD PUSH1 0x6 DUP6 ADD SLOAD SWAP6 DUP6 ADD SLOAD PUSH1 0x8 DUP7 ADD SLOAD PUSH1 0x9 DUP8 ADD SLOAD PUSH1 0xA DUP9 ADD SLOAD PUSH1 0xB DUP10 ADD SLOAD PUSH1 0xC DUP11 ADD SLOAD PUSH1 0xD DUP12 ADD SLOAD PUSH1 0xE DUP13 ADD SLOAD PUSH1 0xF DUP14 ADD SLOAD PUSH1 0x18 DUP15 ADD SLOAD PUSH2 0x2E0 MSTORE PUSH1 0x19 DUP15 ADD SLOAD PUSH2 0x160 MSTORE PUSH1 0x1A DUP15 ADD SLOAD PUSH2 0x120 MSTORE PUSH1 0x1B DUP15 ADD SLOAD PUSH2 0x240 MSTORE PUSH1 0x1C DUP15 ADD SLOAD PUSH2 0x260 MSTORE PUSH1 0x1D DUP15 ADD SLOAD PUSH1 0xE0 MSTORE PUSH1 0x1E DUP15 ADD SLOAD PUSH2 0x1A0 MSTORE PUSH1 0x1F DUP15 ADD SLOAD PUSH2 0x1E0 MSTORE SWAP15 SWAP1 SWAP14 SWAP2 SWAP13 SWAP3 SWAP12 SWAP4 SWAP11 SWAP5 SWAP10 SWAP6 SWAP9 SWAP7 SWAP8 SWAP7 SWAP2 SWAP6 SWAP2 SWAP5 PUSH1 0xFF SWAP5 SWAP3 SWAP4 SWAP3 AND SWAP2 PUSH2 0x1A6C SWAP2 ADD PUSH2 0x4D6E JUMP JUMPDEST PUSH2 0x220 MSTORE PUSH2 0x1A7F PUSH1 0x21 PUSH2 0x1C0 MLOAD ADD PUSH2 0x4D6E JUMP JUMPDEST PUSH2 0x140 MSTORE PUSH2 0x1A92 PUSH1 0x22 PUSH2 0x1C0 MLOAD ADD PUSH2 0x4D6E JUMP JUMPDEST PUSH1 0xA0 MSTORE PUSH2 0x1AA4 PUSH1 0x23 PUSH2 0x1C0 MLOAD ADD PUSH2 0x4D6E JUMP JUMPDEST PUSH2 0x2A0 MSTORE DUP3 PUSH1 0x24 PUSH2 0x1C0 MLOAD ADD SLOAD AND PUSH2 0x100 MSTORE PUSH1 0x40 MLOAD DUP1 PUSH2 0x200 MSTORE PUSH2 0x2C0 MLOAD SWAP1 MSTORE PUSH1 0x20 PUSH2 0x200 MLOAD ADD MSTORE PUSH2 0x280 MLOAD PUSH1 0x40 PUSH2 0x200 MLOAD ADD MSTORE PUSH2 0x180 MLOAD PUSH1 0x60 PUSH2 0x200 MLOAD ADD MSTORE PUSH1 0x1 DUP1 PUSH1 0xA0 SHL SUB DUP2 AND PUSH1 0x80 PUSH2 0x200 MLOAD ADD MSTORE DUP2 DUP2 PUSH1 0xA0 SHR AND PUSH2 0x1B04 DUP2 PUSH2 0x4C60 JUMP JUMPDEST PUSH1 0xA0 PUSH2 0x200 MLOAD ADD MSTORE PUSH2 0x1B21 PUSH1 0xC0 PUSH2 0x200 MLOAD ADD DUP4 DUP4 PUSH1 0xA8 SHR AND PUSH2 0x4C80 JUMP JUMPDEST PUSH1 0xB0 SHR AND PUSH2 0x1B2E DUP2 PUSH2 0x4C60 JUMP JUMPDEST PUSH1 0xE0 PUSH2 0x200 MLOAD ADD MSTORE PUSH2 0x100 PUSH2 0x200 MLOAD ADD MSTORE PUSH2 0x120 PUSH2 0x200 MLOAD ADD MSTORE PUSH2 0x140 PUSH2 0x200 MLOAD ADD MSTORE PUSH2 0x160 PUSH2 0x200 MLOAD ADD MSTORE PUSH2 0x180 PUSH2 0x200 MLOAD ADD MSTORE PUSH2 0x1A0 PUSH2 0x200 MLOAD ADD MSTORE PUSH2 0x1C0 PUSH2 0x200 MLOAD ADD MSTORE PUSH2 0x1E0 PUSH2 0x200 MLOAD ADD MSTORE PUSH2 0x200 DUP1 MLOAD ADD MSTORE PUSH2 0x220 PUSH2 0x200 MLOAD ADD MSTORE PUSH2 0x240 PUSH2 0x200 MLOAD ADD MSTORE PUSH2 0x2E0 MLOAD PUSH2 0x260 PUSH2 0x200 MLOAD ADD MSTORE PUSH2 0x160 MLOAD PUSH2 0x280 PUSH2 0x200 MLOAD ADD MSTORE PUSH2 0x120 MLOAD PUSH2 0x2A0 PUSH2 0x200 MLOAD ADD MSTORE PUSH2 0x240 MLOAD PUSH2 0x2C0 PUSH2 0x200 MLOAD ADD MSTORE PUSH2 0x260 MLOAD PUSH2 0x2E0 PUSH2 0x200 MLOAD ADD MSTORE PUSH1 0xE0 MLOAD PUSH2 0x300 PUSH2 0x200 MLOAD ADD MSTORE PUSH2 0x1A0 MLOAD PUSH2 0x320 PUSH2 0x200 MLOAD ADD MSTORE PUSH2 0x1E0 MLOAD PUSH2 0x340 PUSH2 0x200 MLOAD ADD MSTORE PUSH2 0x1C66 PUSH2 0x1C50 PUSH2 0x1C3B PUSH2 0x1C25 PUSH2 0x400 DUP1 PUSH2 0x360 PUSH2 0x200 MLOAD ADD MSTORE PUSH2 0x200 MLOAD ADD PUSH2 0x220 MLOAD PUSH2 0x4BAC JUMP JUMPDEST PUSH2 0x200 MLOAD PUSH2 0x380 DUP2 DUP4 SUB SWAP2 ADD MSTORE PUSH2 0x140 MLOAD PUSH2 0x4BAC JUMP JUMPDEST PUSH2 0x200 MLOAD PUSH2 0x3A0 DUP2 DUP4 SUB SWAP2 ADD MSTORE PUSH1 0xA0 MLOAD PUSH2 0x4BAC JUMP JUMPDEST PUSH2 0x200 MLOAD PUSH2 0x3C0 DUP2 DUP4 SUB SWAP2 ADD MSTORE PUSH2 0x2A0 MLOAD PUSH2 0x4BAC JUMP JUMPDEST PUSH2 0x100 MLOAD ISZERO ISZERO PUSH2 0x3E0 PUSH2 0x200 MLOAD ADD MSTORE PUSH2 0x200 MLOAD DUP1 SWAP2 SUB SWAP1 RETURN JUMPDEST CALLVALUE PUSH2 0xABF JUMPI PUSH1 0x60 CALLDATASIZE PUSH1 0x3 NOT ADD SLT PUSH2 0xABF JUMPI PUSH2 0x1C98 PUSH2 0x4A9D JUMP JUMPDEST PUSH1 0x1 PUSH1 0x1 PUSH1 0xA0 SHL SUB PUSH1 0x24 CALLDATALOAD DUP2 DUP2 AND SWAP4 SWAP1 SWAP3 SWAP1 DUP5 DUP5 SUB PUSH2 0x49B JUMPI POP PUSH32 0x238062E33E7062C4AECCB2ACAC43AECC0B1A1CA891A5BC84A689F2272CB39A43 SWAP2 PUSH2 0x1CFB PUSH1 0x20 SWAP3 PUSH1 0x44 CALLDATALOAD SWAP3 DUP4 SWAP2 PUSH2 0x1CE8 PUSH2 0x4E14 JUMP JUMPDEST PUSH2 0x1CF3 DUP10 ISZERO ISZERO PUSH2 0x5CE7 JUMP JUMPDEST AND SWAP6 DUP7 PUSH2 0x527B JUMP JUMPDEST PUSH1 0x40 MLOAD SWAP1 DUP2 MSTORE LOG3 PUSH1 0x80 MLOAD DUP1 RETURN JUMPDEST CALLVALUE PUSH2 0xABF JUMPI PUSH1 0x20 CALLDATASIZE PUSH1 0x3 NOT ADD SLT PUSH2 0xABF JUMPI PUSH1 0x4 CALLDATALOAD PUSH1 0xB SLOAD DUP2 LT ISZERO PUSH2 0xABF JUMPI PUSH2 0x458 PUSH1 0x20 SWAP2 PUSH2 0x4B53 JUMP JUMPDEST CALLVALUE PUSH2 0xABF JUMPI PUSH1 0x80 MLOAD DUP1 PUSH1 0x3 NOT CALLDATASIZE ADD SLT PUSH2 0x49B JUMPI PUSH1 0x20 PUSH1 0xB SLOAD PUSH1 0x40 MLOAD SWAP1 DUP2 MSTORE RETURN JUMPDEST CALLVALUE PUSH2 0xABF JUMPI PUSH1 0x20 CALLDATASIZE PUSH1 0x3 NOT ADD SLT PUSH2 0xABF JUMPI PUSH2 0x1D6A PUSH2 0x4A9D JUMP JUMPDEST PUSH2 0x1D72 PUSH2 0x4E14 JUMP JUMPDEST PUSH1 0x1 PUSH1 0x1 PUSH1 0xA0 SHL SUB SWAP1 DUP2 AND PUSH2 0x1D88 DUP2 ISZERO ISZERO PUSH2 0x5CE7 JUMP JUMPDEST PUSH1 0x4 DUP1 SLOAD PUSH1 0x1 PUSH1 0x1 PUSH1 0xA0 SHL SUB NOT DUP2 AND DUP4 OR SWAP1 SWAP2 SSTORE PUSH1 0x80 MLOAD SWAP3 AND PUSH32 0x21F871938092B6A1ED13C23A49AD1A6FA6867D23D64FA2091BC0AAA90846E7C3 DUP4 DUP1 LOG3 DUP1 RETURN JUMPDEST CALLVALUE PUSH2 0xABF JUMPI PUSH1 0x20 DUP1 PUSH1 0x3 NOT CALLDATASIZE ADD SLT PUSH2 0xABF JUMPI PUSH1 0x4 CALLDATALOAD SWAP1 PUSH1 0x7 DUP3 LT ISZERO PUSH2 0xABF JUMPI PUSH2 0x1DEF PUSH2 0x5369 JUMP JUMPDEST PUSH2 0x1DF7 PUSH2 0x4F83 JUMP JUMPDEST CALLER PUSH1 0x80 MLOAD MSTORE PUSH1 0x8 DUP2 MSTORE PUSH2 0x1E12 PUSH1 0xFF PUSH1 0x40 PUSH1 0x80 MLOAD KECCAK256 SLOAD AND PUSH2 0x5130 JUMP JUMPDEST CALLER PUSH1 0x80 MLOAD MSTORE PUSH1 0x7 DUP2 MSTORE PUSH1 0x40 PUSH1 0x80 MLOAD KECCAK256 SWAP2 PUSH1 0x4 DUP4 ADD SWAP3 DUP4 SLOAD PUSH1 0xFF DUP2 PUSH1 0xB0 SHR AND PUSH2 0x1E39 DUP2 PUSH2 0x4C60 JUMP JUMPDEST PUSH1 0x2 DUP2 EQ SWAP1 DUP2 ISZERO PUSH2 0x2063 JUMPI JUMPDEST POP ISZERO PUSH2 0x2039 JUMPI PUSH1 0xFF SWAP1 PUSH2 0x1E5B PUSH1 0x1 DUP6 LT ISZERO PUSH2 0x5161 JUMP JUMPDEST PUSH1 0xA8 SHR AND PUSH1 0x7 DUP2 LT ISZERO PUSH2 0xFE4 JUMPI DUP3 LT PUSH2 0x200F JUMPI DUP2 PUSH1 0x17 ADD SLOAD SWAP3 DUP4 SWAP2 PUSH1 0x1 DUP1 PUSH1 0xA0 SHL SUB SWAP6 PUSH2 0x1E90 DUP5 DUP9 PUSH1 0x1 SLOAD AND ADDRESS SWAP1 CALLER SWAP1 PUSH2 0x52FC JUMP JUMPDEST PUSH1 0x2 PUSH1 0xFF DUP3 SLOAD PUSH1 0xB0 SHR AND PUSH2 0x1EA3 DUP2 PUSH2 0x4C60 JUMP JUMPDEST EQ PUSH2 0x1F82 JUMPI JUMPDEST SWAP1 PUSH1 0x18 SWAP2 PUSH1 0x80 MLOAD PUSH1 0x6 DUP4 ADD SSTORE PUSH2 0x1EBF DUP7 DUP3 PUSH2 0x5192 JUMP JUMPDEST PUSH1 0x1 PUSH1 0xB0 SHL PUSH1 0xFF PUSH1 0xB0 SHL NOT DUP3 SLOAD AND OR SWAP1 SSTORE PUSH1 0x80 MLOAD SWAP2 DUP2 DUP4 PUSH1 0xB DUP2 SWAP5 ADD SSTORE DUP3 PUSH1 0x1B DUP3 ADD SSTORE ADD SSTORE CALLER SWAP1 MSTORE PUSH1 0xC DUP2 MSTORE PUSH2 0x1F26 PUSH1 0x40 PUSH1 0x80 MLOAD KECCAK256 PUSH1 0x40 MLOAD SWAP1 PUSH2 0x1F01 DUP3 PUSH2 0x4CE4 JUMP JUMPDEST PUSH1 0x2 DUP3 MSTORE DUP5 DUP5 DUP4 ADD MSTORE TIMESTAMP PUSH1 0x40 DUP4 ADD MSTORE PUSH1 0x80 MLOAD PUSH1 0x60 DUP4 ADD MSTORE PUSH1 0xFF DUP7 AND PUSH1 0x80 DUP4 ADD MSTORE PUSH2 0x51D2 JUMP JUMPDEST PUSH2 0x1F33 PUSH1 0x40 MLOAD DUP1 SWAP5 PUSH2 0x4C80 JUMP JUMPDEST DUP3 ADD MSTORE PUSH32 0xBD98106504D2095C105D0F8FD19C12FB6C359200DCCE844743A92DC040CB7B3 PUSH1 0x40 CALLER SWAP3 LOG2 PUSH2 0x1770 SWAP2 DUP3 DUP3 MUL SWAP3 DUP3 DUP5 DIV EQ DUP3 ISZERO OR ISZERO PUSH2 0xCFA JUMPI PUSH2 0xF47 PUSH2 0x2710 PUSH2 0xF6D SWAP5 DIV DUP1 SWAP4 PUSH2 0x4FA4 JUMP JUMPDEST SWAP3 POP PUSH1 0x1B DUP2 ADD SLOAD SWAP1 PUSH3 0x2A300 DUP3 ADD DUP1 SWAP3 GT PUSH2 0xCFA JUMPI DUP6 SWAP4 PUSH1 0x18 SWAP3 TIMESTAMP GT PUSH2 0x1FEC JUMPI PUSH1 0x6 DUP3 ADD SLOAD PUSH1 0x5 DUP4 ADD PUSH2 0x1FB6 DUP3 DUP3 SLOAD PUSH2 0x4EF7 JUMP JUMPDEST SWAP1 SSTORE PUSH1 0x40 MLOAD SWAP1 DUP2 MSTORE PUSH32 0xC0A2B7349514B2EE49057E2265DCF10BD91BE42A7F6A1144164DF1F0E303A8EB DUP6 CALLER SWAP3 LOG2 JUMPDEST SWAP1 SWAP2 POP PUSH2 0x1EA9 JUMP JUMPDEST PUSH1 0x6 DUP3 ADD SLOAD PUSH1 0x40 MLOAD SWAP1 DUP2 MSTORE PUSH1 0x0 DUP1 MLOAD PUSH1 0x20 PUSH2 0x5DB8 DUP4 CODECOPY DUP2 MLOAD SWAP2 MSTORE DUP6 CALLER SWAP3 LOG2 PUSH2 0x1FE4 JUMP JUMPDEST PUSH1 0x40 MLOAD PUSH3 0x461BCD PUSH1 0xE5 SHL DUP2 MSTORE PUSH1 0x4 DUP2 ADD DUP5 SWAP1 MSTORE PUSH1 0x2 PUSH1 0x24 DUP3 ADD MSTORE PUSH2 0x10D1 PUSH1 0xF2 SHL PUSH1 0x44 DUP3 ADD MSTORE PUSH1 0x64 SWAP1 REVERT JUMPDEST PUSH1 0x40 MLOAD PUSH3 0x461BCD PUSH1 0xE5 SHL DUP2 MSTORE PUSH1 0x4 DUP2 ADD DUP6 SWAP1 MSTORE PUSH1 0x2 PUSH1 0x24 DUP3 ADD MSTORE PUSH2 0x4141 PUSH1 0xF0 SHL PUSH1 0x44 DUP3 ADD MSTORE PUSH1 0x64 SWAP1 REVERT JUMPDEST SWAP1 POP PUSH2 0x206E DUP2 PUSH2 0x4C60 JUMP JUMPDEST ISZERO DUP7 PUSH2 0x1E45 JUMP JUMPDEST CALLVALUE PUSH2 0xABF JUMPI PUSH2 0x2083 CALLDATASIZE PUSH2 0x4BEC JUMP JUMPDEST PUSH2 0x208B PUSH2 0x4E14 JUMP JUMPDEST PUSH1 0x7 DUP3 LT ISZERO DUP1 PUSH2 0xFE4 JUMPI PUSH1 0x1 DUP4 LT ISZERO DUP1 PUSH2 0x20F1 JUMPI JUMPDEST PUSH2 0x20A9 SWAP1 PUSH2 0x5161 JUMP JUMPDEST PUSH2 0xFE4 JUMPI DUP2 PUSH2 0x20E8 PUSH32 0xBC78CC5DE16267F0116F5EF65EC3328F2F432BCA5E0F8B61E96B880E826D84DD SWAP4 PUSH1 0x2C ADD SWAP3 DUP1 DUP5 SLOAD SWAP5 SSTORE PUSH1 0x40 MLOAD SWAP4 DUP5 SWAP4 DUP5 PUSH2 0x5D18 JUMP JUMPDEST SUB SWAP1 LOG1 PUSH1 0x80 MLOAD DUP1 RETURN JUMPDEST POP POP PUSH1 0x80 MLOAD PUSH1 0x6 DUP4 GT ISZERO PUSH2 0x20A0 JUMP JUMPDEST CALLVALUE PUSH2 0xABF JUMPI PUSH1 0x80 MLOAD DUP1 PUSH1 0x3 NOT CALLDATASIZE ADD SLT PUSH2 0x49B JUMPI SLOAD PUSH1 0x40 MLOAD PUSH1 0x1 PUSH1 0x1 PUSH1 0xA0 SHL SUB SWAP1 SWAP2 AND DUP2 MSTORE PUSH1 0x20 SWAP1 RETURN JUMPDEST CALLVALUE PUSH2 0xABF JUMPI PUSH1 0x20 CALLDATASIZE PUSH1 0x3 NOT ADD SLT PUSH2 0xABF JUMPI PUSH1 0x4 CALLDATALOAD PUSH1 0x7 DUP2 LT ISZERO PUSH2 0xABF JUMPI PUSH1 0x20 SWAP1 PUSH1 0x2C ADD SLOAD PUSH1 0x40 MLOAD SWAP1 DUP2 MSTORE RETURN JUMPDEST CALLVALUE PUSH2 0xABF JUMPI PUSH1 0x80 MLOAD DUP1 PUSH1 0x3 NOT CALLDATASIZE ADD SLT PUSH2 0x49B JUMPI PUSH1 0x20 PUSH1 0x5 SLOAD PUSH1 0x40 MLOAD SWAP1 DUP2 MSTORE RETURN JUMPDEST CALLVALUE PUSH2 0xABF JUMPI PUSH1 0x20 CALLDATASIZE PUSH1 0x3 NOT ADD SLT PUSH2 0xABF JUMPI PUSH1 0x4 CALLDATALOAD PUSH1 0x7 DUP2 LT ISZERO PUSH2 0xABF JUMPI PUSH1 0x20 SWAP1 PUSH1 0x33 ADD SLOAD PUSH1 0x40 MLOAD SWAP1 DUP2 MSTORE RETURN JUMPDEST CALLVALUE PUSH2 0xABF JUMPI PUSH1 0x80 MLOAD DUP1 PUSH1 0x3 NOT CALLDATASIZE ADD SLT PUSH2 0x49B JUMPI PUSH2 0x21BC PUSH2 0x4E14 JUMP JUMPDEST PUSH2 0x21C4 PUSH2 0x4F83 JUMP JUMPDEST PUSH1 0x80 MLOAD DUP1 SLOAD PUSH1 0xFF PUSH1 0xA0 SHL NOT AND PUSH1 0x1 PUSH1 0xA0 SHL OR SWAP1 SSTORE PUSH1 0x40 MLOAD CALLER DUP2 MSTORE PUSH32 0x62E78CEA01BEE320CD4E420270B5EA74000D11B0C9F74754EBDBFC544B05A258 SWAP1 PUSH1 0x20 SWAP1 LOG1 PUSH1 0x80 MLOAD DUP1 RETURN JUMPDEST CALLVALUE PUSH2 0xABF JUMPI PUSH1 0x20 CALLDATASIZE PUSH1 0x3 NOT ADD SLT PUSH2 0xABF JUMPI PUSH1 0x80 DUP1 MLOAD PUSH1 0x4 CALLDATALOAD SWAP1 MSTORE PUSH1 0xF PUSH1 0x20 MSTORE MLOAD PUSH1 0x40 SWAP1 KECCAK256 SLOAD PUSH1 0x1 PUSH1 0x1 PUSH1 0xA0 SHL SUB AND DUP1 ISZERO PUSH2 0x2249 JUMPI PUSH1 0x20 SWAP1 PUSH1 0x40 MLOAD SWAP1 DUP2 MSTORE RETURN JUMPDEST PUSH1 0x40 MLOAD PUSH3 0x461BCD PUSH1 0xE5 SHL DUP2 MSTORE PUSH1 0x20 PUSH1 0x4 DUP3 ADD MSTORE PUSH1 0x2 PUSH1 0x24 DUP3 ADD MSTORE PUSH2 0x2AA3 PUSH1 0xF1 SHL PUSH1 0x44 DUP3 ADD MSTORE PUSH1 0x64 SWAP1 REVERT JUMPDEST CALLVALUE PUSH2 0xABF JUMPI PUSH1 0x20 CALLDATASIZE PUSH1 0x3 NOT ADD SLT PUSH2 0xABF JUMPI PUSH1 0x4 CALLDATALOAD PUSH2 0x228F PUSH2 0x4E14 JUMP JUMPDEST DUP1 ISZERO ISZERO DUP1 PUSH2 0x2304 JUMPI JUMPDEST ISZERO PUSH2 0x22DA JUMPI PUSH1 0x40 PUSH32 0x885769BB3A0A33E49DC7C402B45290F14135AF0D201B7B78370457632240FBB1 SWAP2 PUSH1 0xE SLOAD SWAP1 DUP1 PUSH1 0xE SSTORE DUP3 MLOAD SWAP2 DUP3 MSTORE PUSH1 0x20 DUP3 ADD MSTORE LOG1 PUSH1 0x80 MLOAD DUP1 RETURN JUMPDEST PUSH1 0x40 MLOAD PUSH3 0x461BCD PUSH1 0xE5 SHL DUP2 MSTORE PUSH1 0x20 PUSH1 0x4 DUP3 ADD MSTORE PUSH1 0x2 PUSH1 0x24 DUP3 ADD MSTORE PUSH2 0x4253 PUSH1 0xF0 SHL PUSH1 0x44 DUP3 ADD MSTORE PUSH1 0x64 SWAP1 REVERT JUMPDEST POP PUSH2 0x1F4 DUP2 GT ISZERO PUSH2 0x2298 JUMP JUMPDEST CALLVALUE PUSH2 0xABF JUMPI PUSH1 0x80 MLOAD DUP1 PUSH1 0x3 NOT CALLDATASIZE ADD SLT PUSH2 0x49B JUMPI POP PUSH2 0x232C PUSH2 0x4E14 JUMP JUMPDEST DUP1 SLOAD PUSH1 0x1 PUSH1 0x1 PUSH1 0xA0 SHL SUB NOT DUP2 AND DUP3 SSTORE PUSH1 0x1 PUSH1 0x1 PUSH1 0xA0 SHL SUB AND PUSH1 0x0 DUP1 MLOAD PUSH1 0x20 PUSH2 0x5D98 DUP4 CODECOPY DUP2 MLOAD SWAP2 MSTORE DUP3 DUP1 LOG3 PUSH1 0x80 MLOAD DUP1 RETURN JUMPDEST CALLVALUE PUSH2 0xABF JUMPI PUSH1 0x80 MLOAD DUP1 PUSH1 0x3 NOT CALLDATASIZE ADD SLT PUSH2 0x49B JUMPI POP PUSH1 0x1 SLOAD PUSH1 0x40 MLOAD PUSH4 0x70A08231 PUSH1 0xE0 SHL DUP2 MSTORE ADDRESS PUSH1 0x4 DUP3 ADD MSTORE SWAP1 PUSH1 0x20 SWAP1 DUP3 SWAP1 PUSH1 0x24 SWAP1 DUP3 SWAP1 PUSH1 0x1 PUSH1 0x1 PUSH1 0xA0 SHL SUB AND GAS STATICCALL SWAP1 DUP2 ISZERO PUSH2 0xAB2 JUMPI PUSH1 0x80 MLOAD SWAP2 PUSH2 0x23B7 JUMPI JUMPDEST PUSH1 0x20 DUP3 PUSH1 0x40 MLOAD SWAP1 DUP2 MSTORE RETURN JUMPDEST SWAP1 POP PUSH1 0x20 DUP2 RETURNDATASIZE DUP3 GT PUSH2 0x23E4 JUMPI JUMPDEST DUP2 PUSH2 0x23D1 PUSH1 0x20 SWAP4 DUP4 PUSH2 0x4D4B JUMP JUMPDEST DUP2 ADD SUB SLT PUSH2 0x60D JUMPI PUSH1 0x20 SWAP2 POP MLOAD DUP3 PUSH2 0x23AC JUMP JUMPDEST RETURNDATASIZE SWAP2 POP PUSH2 0x23C4 JUMP JUMPDEST CALLVALUE PUSH2 0xABF JUMPI PUSH1 0x80 MLOAD DUP1 PUSH1 0x3 NOT CALLDATASIZE ADD SLT PUSH2 0x49B JUMPI PUSH1 0x20 PUSH1 0x40 MLOAD PUSH2 0xFA0 DUP2 MSTORE RETURN JUMPDEST CALLVALUE PUSH2 0xABF JUMPI PUSH1 0x20 SWAP1 DUP2 PUSH1 0x3 NOT CALLDATASIZE ADD SLT PUSH2 0xABF JUMPI PUSH1 0x4 CALLDATALOAD PUSH1 0x7 DUP2 LT ISZERO PUSH2 0xABF JUMPI PUSH2 0x2432 PUSH2 0x5369 JUMP JUMPDEST PUSH2 0x243A PUSH2 0x4F83 JUMP JUMPDEST CALLER PUSH1 0x80 MLOAD MSTORE PUSH1 0x8 DUP4 MSTORE PUSH2 0x2455 PUSH1 0xFF PUSH1 0x40 PUSH1 0x80 MLOAD KECCAK256 SLOAD AND PUSH2 0x5130 JUMP JUMPDEST PUSH1 0x80 MLOAD SWAP3 PUSH1 0x1 DUP3 LT ISZERO DUP1 PUSH2 0x2648 JUMPI JUMPDEST PUSH2 0x246D SWAP1 PUSH2 0x5161 JUMP JUMPDEST CALLER PUSH1 0x80 MLOAD MSTORE PUSH1 0x7 DUP2 MSTORE PUSH1 0x80 MLOAD PUSH1 0x40 DUP2 KECCAK256 SWAP5 PUSH2 0xFA3 JUMPI POP PUSH1 0x4 DUP5 ADD SWAP3 PUSH1 0xFF DUP5 SLOAD PUSH1 0xA8 SHR AND PUSH1 0x7 DUP2 LT ISZERO PUSH2 0xFE4 JUMPI DUP4 GT ISZERO PUSH2 0x261E JUMPI DUP3 PUSH1 0x17 ADD SLOAD SWAP4 PUSH1 0x18 PUSH1 0x1 DUP1 PUSH1 0xA0 SHL SUB SWAP7 PUSH2 0x24C2 DUP8 DUP10 PUSH1 0x1 SLOAD AND ADDRESS SWAP1 CALLER SWAP1 PUSH2 0x52FC JUMP JUMPDEST PUSH1 0xFF DUP4 SLOAD PUSH1 0xA8 SHR AND SWAP3 PUSH2 0x24D5 DUP8 DUP3 PUSH2 0x5192 JUMP JUMPDEST DUP1 SLOAD PUSH1 0xFF PUSH1 0xB0 SHL NOT AND PUSH1 0x1 PUSH1 0xB0 SHL OR SWAP1 SSTORE PUSH1 0x80 MLOAD PUSH1 0xB DUP3 ADD DUP2 SWAP1 SSTORE PUSH1 0x6 DUP3 ADD DUP2 SWAP1 SSTORE PUSH1 0x1B DUP3 ADD DUP2 SWAP1 SSTORE SWAP2 ADD DUP2 SWAP1 SSTORE PUSH1 0x7 DUP3 LT ISZERO PUSH2 0xFA3 JUMPI POP DUP5 SWAP3 SWAP2 SWAP1 DUP1 PUSH2 0x258B JUMPI POP PUSH2 0x2558 SWAP1 CALLER PUSH1 0x80 MLOAD MSTORE PUSH1 0xC DUP4 MSTORE PUSH1 0x40 PUSH1 0x80 MLOAD KECCAK256 PUSH1 0x40 MLOAD SWAP2 PUSH2 0x2537 DUP4 PUSH2 0x4CE4 JUMP JUMPDEST DUP1 DUP4 MSTORE DUP6 DUP6 DUP5 ADD MSTORE TIMESTAMP PUSH1 0x40 DUP5 ADD MSTORE PUSH1 0x60 DUP4 ADD MSTORE PUSH1 0xFF DUP7 AND PUSH1 0x80 DUP4 ADD MSTORE PUSH2 0x51D2 JUMP JUMPDEST PUSH2 0xEF8 PUSH1 0x40 MLOAD DUP1 SWAP5 PUSH2 0x4C80 JUMP JUMPDEST PUSH2 0x1770 SWAP2 DUP3 DUP3 MUL SWAP3 DUP3 DUP5 DIV EQ DUP3 ISZERO OR ISZERO PUSH2 0xCFA JUMPI PUSH2 0xF47 PUSH2 0x2710 PUSH2 0xF6D SWAP5 DIV DUP1 SWAP4 PUSH2 0x4FA4 JUMP JUMPDEST SWAP4 SWAP2 SWAP1 POP PUSH2 0x25ED SWAP3 POP CALLER PUSH1 0x80 MLOAD MSTORE PUSH1 0xC DUP2 MSTORE PUSH2 0x25D8 PUSH1 0x40 PUSH1 0x80 MLOAD KECCAK256 PUSH1 0x40 MLOAD SWAP1 PUSH2 0x25B3 DUP3 PUSH2 0x4CE4 JUMP JUMPDEST PUSH1 0x1 DUP3 MSTORE DUP8 DUP5 DUP4 ADD MSTORE TIMESTAMP PUSH1 0x40 DUP4 ADD MSTORE PUSH1 0x80 MLOAD PUSH1 0x60 DUP4 ADD MSTORE PUSH1 0xFF DUP6 AND PUSH1 0x80 DUP4 ADD MSTORE PUSH2 0x51D2 JUMP JUMPDEST PUSH2 0x25E5 PUSH1 0x40 MLOAD DUP1 SWAP6 PUSH2 0x4C80 JUMP JUMPDEST DUP4 ADD SWAP1 PUSH2 0x4C80 JUMP JUMPDEST DUP2 PUSH1 0x40 DUP3 ADD MSTORE PUSH32 0x6DC34D0522E29B7D7BEDA15504A00195317702B99A528054D4BE53E1EA331B6D PUSH1 0x60 CALLER SWAP3 LOG2 PUSH2 0x2565 JUMP JUMPDEST PUSH1 0x40 MLOAD PUSH3 0x461BCD PUSH1 0xE5 SHL DUP2 MSTORE PUSH1 0x4 DUP2 ADD DUP4 SWAP1 MSTORE PUSH1 0x2 PUSH1 0x24 DUP3 ADD MSTORE PUSH2 0xAA9 PUSH1 0xF3 SHL PUSH1 0x44 DUP3 ADD MSTORE PUSH1 0x64 SWAP1 REVERT JUMPDEST POP PUSH1 0x6 DUP3 GT ISZERO PUSH2 0x2464 JUMP JUMPDEST CALLVALUE PUSH2 0xABF JUMPI PUSH1 0x20 CALLDATASIZE PUSH1 0x3 NOT ADD SLT PUSH2 0xABF JUMPI PUSH2 0x266C PUSH2 0x4A9D JUMP JUMPDEST PUSH2 0x2674 PUSH2 0x4E14 JUMP JUMPDEST PUSH1 0x1 PUSH1 0x1 PUSH1 0xA0 SHL SUB SWAP1 DUP2 AND PUSH2 0x268A DUP2 ISZERO ISZERO PUSH2 0x5CE7 JUMP JUMPDEST PUSH1 0x15 DUP1 SLOAD PUSH1 0x1 PUSH1 0x1 PUSH1 0xA0 SHL SUB NOT DUP2 AND DUP4 OR SWAP1 SWAP2 SSTORE PUSH1 0x80 MLOAD SWAP3 AND PUSH32 0xCB9BCD5E87EC5DE7C4B31036687BD221C8E20F2ECF6FCE472AC73A211F2A3CDC DUP4 DUP1 LOG3 DUP1 RETURN JUMPDEST CALLVALUE PUSH2 0xABF JUMPI PUSH1 0x20 CALLDATASIZE PUSH1 0x3 NOT ADD SLT PUSH2 0xABF JUMPI PUSH1 0x1 PUSH1 0x1 PUSH1 0xA0 SHL SUB PUSH2 0x26EB PUSH2 0x4A9D JUMP JUMPDEST AND PUSH1 0x80 MLOAD MSTORE PUSH1 0x7 PUSH1 0x20 MSTORE PUSH2 0x1A0 PUSH1 0x40 PUSH1 0x80 MLOAD KECCAK256 DUP1 SLOAD SWAP1 PUSH1 0x1 DUP1 PUSH1 0xA0 SHL SUB PUSH1 0x1 DUP3 ADD SLOAD AND SWAP1 PUSH1 0x1 DUP1 PUSH1 0xA0 SHL SUB PUSH1 0x2 DUP3 ADD SLOAD AND PUSH1 0x1 DUP1 PUSH1 0xA0 SHL SUB PUSH1 0x3 DUP4 ADD SLOAD AND PUSH1 0x4 DUP4 ADD SLOAD PUSH1 0xFF PUSH1 0x5 DUP6 ADD SLOAD SWAP2 PUSH1 0x6 DUP7 ADD SLOAD SWAP4 PUSH1 0xB DUP8 ADD SLOAD SWAP6 PUSH1 0x1C PUSH1 0x1A DUP10 ADD SLOAD SWAP9 ADD SLOAD SWAP9 PUSH1 0x40 MLOAD SWAP11 DUP12 MSTORE PUSH1 0x20 DUP12 ADD MSTORE PUSH1 0x40 DUP11 ADD MSTORE PUSH1 0x60 DUP10 ADD MSTORE PUSH1 0x1 DUP1 PUSH1 0xA0 SHL SUB DUP2 AND PUSH1 0x80 DUP10 ADD MSTORE PUSH2 0x277E DUP3 DUP3 PUSH1 0xA0 SHR AND PUSH2 0x4C60 JUMP JUMPDEST DUP2 DUP2 PUSH1 0xA0 SHR AND PUSH1 0xA0 DUP10 ADD MSTORE PUSH2 0x279B PUSH1 0xC0 DUP10 ADD DUP4 DUP4 PUSH1 0xA8 SHR AND PUSH2 0x4C80 JUMP JUMPDEST PUSH2 0x27A9 DUP3 DUP3 PUSH1 0xB0 SHR AND PUSH2 0x4C60 JUMP JUMPDEST PUSH1 0xB0 SHR AND PUSH1 0xE0 DUP8 ADD MSTORE PUSH2 0x100 DUP7 ADD MSTORE PUSH2 0x120 DUP6 ADD MSTORE PUSH2 0x140 DUP5 ADD MSTORE PUSH2 0x160 DUP4 ADD MSTORE PUSH2 0x180 DUP3 ADD MSTORE RETURN JUMPDEST CALLVALUE PUSH2 0xABF JUMPI PUSH1 0x80 MLOAD DUP1 PUSH1 0x3 NOT CALLDATASIZE ADD SLT PUSH2 0x49B JUMPI PUSH1 0x20 PUSH1 0x6 SLOAD PUSH1 0x40 MLOAD SWAP1 DUP2 MSTORE RETURN JUMPDEST CALLVALUE PUSH2 0xABF JUMPI PUSH1 0xA0 CALLDATASIZE PUSH1 0x3 NOT ADD SLT PUSH2 0xABF JUMPI PUSH2 0x280B PUSH2 0x4A9D JUMP JUMPDEST PUSH1 0x64 CALLDATALOAD ISZERO ISZERO PUSH1 0x64 CALLDATALOAD SUB PUSH2 0xABF JUMPI PUSH1 0x7 PUSH1 0x84 CALLDATALOAD LT ISZERO PUSH2 0xABF JUMPI PUSH2 0x282B PUSH2 0x4E14 JUMP JUMPDEST PUSH2 0x2833 PUSH2 0x4F83 JUMP JUMPDEST PUSH2 0x2847 PUSH1 0x1 PUSH1 0x1 PUSH1 0xA0 SHL SUB DUP3 AND ISZERO ISZERO PUSH2 0x5CE7 JUMP JUMPDEST PUSH1 0x80 DUP1 MLOAD PUSH1 0x1 PUSH1 0x1 PUSH1 0xA0 SHL SUB DUP4 AND SWAP1 MSTORE PUSH1 0x8 PUSH1 0x20 MSTORE MLOAD PUSH1 0x40 SWAP1 KECCAK256 SLOAD PUSH2 0x286F SWAP1 PUSH1 0xFF AND ISZERO PUSH2 0x4E40 JUMP JUMPDEST PUSH1 0x1 PUSH1 0x84 CALLDATALOAD LT ISZERO DUP1 PUSH2 0x2BE9 JUMPI JUMPDEST PUSH2 0x2885 SWAP1 PUSH2 0x5161 JUMP JUMPDEST PUSH1 0xB SLOAD ISZERO PUSH2 0x2BBF JUMPI PUSH1 0x80 DUP1 MLOAD PUSH1 0x24 CALLDATALOAD SWAP1 MSTORE PUSH1 0xF PUSH1 0x20 MSTORE MLOAD PUSH1 0x40 DUP2 KECCAK256 SLOAD PUSH1 0x1 PUSH1 0x1 PUSH1 0xA0 SHL SUB AND SWAP2 SWAP1 DUP3 SWAP1 DUP2 ISZERO ISZERO SWAP1 DUP2 PUSH2 0x2BA3 JUMPI JUMPDEST POP PUSH2 0x28C3 SWAP2 POP PUSH2 0x4E71 JUMP JUMPDEST PUSH1 0x80 MLOAD PUSH1 0x44 CALLDATALOAD SWAP1 DUP2 PUSH2 0x2B53 JUMPI POP POP DUP2 JUMPDEST PUSH1 0x64 CALLDATALOAD ISZERO PUSH2 0x2B42 JUMPI PUSH2 0x28E4 SWAP1 PUSH2 0x5104 JUMP JUMPDEST SWAP1 PUSH1 0x1 JUMPDEST PUSH2 0x28F0 PUSH2 0x4FB1 JUMP JUMPDEST PUSH1 0x80 DUP1 MLOAD DUP3 SWAP1 MSTORE PUSH1 0x10 PUSH1 0x20 SWAP1 DUP2 MSTORE DUP2 MLOAD PUSH1 0x40 DUP1 DUP3 KECCAK256 DUP1 SLOAD PUSH1 0xFF NOT AND PUSH1 0x1 SWAP1 DUP2 OR SWAP1 SWAP2 SSTORE PUSH1 0xF DUP5 MSTORE DUP2 DUP4 KECCAK256 DUP1 SLOAD PUSH1 0x1 PUSH1 0x1 PUSH1 0xA0 SHL SUB NOT SWAP1 DUP2 AND PUSH1 0x1 PUSH1 0x1 PUSH1 0xA0 SHL SUB DUP12 DUP2 AND SWAP2 DUP3 OR SWAP1 SWAP4 SSTORE SWAP1 SWAP5 MSTORE PUSH1 0x7 SWAP1 SWAP5 MSTORE SWAP4 MLOAD KECCAK256 DUP5 DUP2 SSTORE SWAP3 DUP4 ADD DUP1 SLOAD DUP3 AND DUP10 OR SWAP1 SSTORE PUSH1 0x2 DUP4 ADD DUP1 SLOAD SWAP1 SWAP2 AND SWAP2 DUP8 AND SWAP2 SWAP1 SWAP2 OR SWAP1 SSTORE SWAP1 SWAP4 SWAP1 PUSH1 0x4 DUP2 ADD PUSH2 0x2975 DUP5 DUP3 PUSH2 0x4ED3 JUMP JUMPDEST PUSH2 0x2981 PUSH1 0x84 CALLDATALOAD DUP3 PUSH2 0x5192 JUMP JUMPDEST DUP1 SLOAD PUSH1 0xFF PUSH1 0xB0 SHL NOT AND PUSH1 0x1 PUSH1 0xB0 SHL OR SWAP1 SSTORE TIMESTAMP PUSH1 0x1C DUP3 ADD SSTORE PUSH1 0x80 DUP1 MLOAD PUSH1 0x1 PUSH1 0x1 PUSH1 0xA0 SHL SUB DUP5 AND SWAP1 MSTORE PUSH1 0x7 PUSH1 0x20 MSTORE MLOAD PUSH1 0x40 DUP2 KECCAK256 PUSH1 0x1F ADD SLOAD SWAP1 PUSH1 0x1 DUP3 ADD DUP3 GT PUSH2 0x163A JUMPI POP PUSH32 0x92C194E247C6D4E26AC54D4F751A001BB786B7FD20039047255E4B5327AEC9F4 SWAP5 SWAP3 PUSH1 0x40 SWAP5 SWAP3 PUSH1 0x1F PUSH1 0x1 DUP11 SWAP5 ADD SWAP2 ADD SSTORE PUSH2 0x29FC DUP4 PUSH2 0x4C60 JUMP JUMPDEST PUSH1 0x1 DUP4 SUB PUSH2 0x2B09 JUMPI PUSH1 0x80 DUP1 MLOAD PUSH1 0x1 PUSH1 0x1 PUSH1 0xA0 SHL SUB DUP4 DUP2 AND SWAP1 SWAP2 MSTORE PUSH1 0x7 PUSH1 0x20 MSTORE SWAP1 MLOAD DUP7 SWAP1 KECCAK256 PUSH1 0x3 ADD DUP1 SLOAD PUSH1 0x1 PUSH1 0x1 PUSH1 0xA0 SHL SUB NOT AND SWAP2 DUP7 AND SWAP2 SWAP1 SWAP2 OR SWAP1 SSTORE JUMPDEST DUP2 PUSH1 0x80 MLOAD MSTORE PUSH1 0xA PUSH1 0x20 MSTORE PUSH2 0x2A51 DUP5 DUP7 PUSH1 0x80 MLOAD KECCAK256 PUSH2 0x4F57 JUMP JUMPDEST DUP2 PUSH1 0x80 MLOAD MSTORE PUSH1 0x7 PUSH1 0x20 MSTORE PUSH1 0x1A DUP6 PUSH1 0x80 MLOAD KECCAK256 ADD PUSH2 0x2A6D DUP2 SLOAD PUSH2 0x4F74 JUMP JUMPDEST SWAP1 SSTORE PUSH1 0x1 DUP1 PUSH1 0xA0 SHL SUB DUP5 AND PUSH1 0x80 MLOAD MSTORE PUSH1 0x8 PUSH1 0x20 MSTORE DUP5 PUSH1 0x80 MLOAD DUP2 DUP2 KECCAK256 PUSH1 0x1 PUSH1 0xFF NOT DUP3 SLOAD AND OR SWAP1 SSTORE PUSH1 0x9 PUSH1 0x20 MSTORE KECCAK256 PUSH1 0x1 PUSH1 0xFF NOT DUP3 SLOAD AND OR SWAP1 SSTORE PUSH2 0x2AAD DUP5 PUSH2 0x4F1A JUMP JUMPDEST DUP5 MLOAD SWAP3 DUP8 DUP5 MSTORE PUSH2 0x2ABC DUP2 PUSH2 0x4C60 JUMP JUMPDEST PUSH1 0x20 DUP5 ADD MSTORE PUSH1 0x1 PUSH1 0x1 PUSH1 0xA0 SHL SUB SWAP1 DUP2 AND SWAP3 SWAP1 DUP5 AND SWAP1 PUSH1 0x0 DUP1 MLOAD PUSH1 0x20 PUSH2 0x5D78 DUP4 CODECOPY DUP2 MLOAD SWAP2 MSTORE SWAP1 DUP7 SWAP1 LOG4 DUP2 MLOAD SWAP4 DUP5 MSTORE PUSH2 0x2AF8 PUSH1 0x20 DUP6 ADD PUSH1 0x84 CALLDATALOAD PUSH2 0x4C80 JUMP JUMPDEST PUSH1 0x1 PUSH1 0x1 PUSH1 0xA0 SHL SUB AND SWAP3 LOG3 PUSH1 0x80 MLOAD DUP1 RETURN JUMPDEST PUSH1 0x80 DUP1 MLOAD PUSH1 0x1 PUSH1 0x1 PUSH1 0xA0 SHL SUB DUP4 DUP2 AND SWAP1 SWAP2 MSTORE PUSH1 0x7 PUSH1 0x20 MSTORE SWAP1 MLOAD DUP7 SWAP1 KECCAK256 PUSH1 0x4 ADD DUP1 SLOAD PUSH1 0x1 PUSH1 0x1 PUSH1 0xA0 SHL SUB NOT AND SWAP2 DUP7 AND SWAP2 SWAP1 SWAP2 OR SWAP1 SSTORE PUSH2 0x2A39 JUMP JUMPDEST PUSH2 0x2B4B SWAP1 PUSH2 0x50D3 JUMP JUMPDEST SWAP1 PUSH1 0x2 PUSH2 0x28E8 JUMP JUMPDEST MSTORE PUSH1 0xF PUSH1 0x20 MSTORE PUSH1 0x80 MLOAD PUSH1 0x40 DUP2 KECCAK256 SLOAD PUSH1 0x1 PUSH1 0x1 PUSH1 0xA0 SHL SUB AND SWAP1 DUP2 SWAP1 DUP2 ISZERO ISZERO SWAP1 DUP2 PUSH2 0x2B87 JUMPI JUMPDEST POP PUSH2 0x2B82 SWAP2 POP PUSH2 0x4EA2 JUMP JUMPDEST PUSH2 0x28D3 JUMP JUMPDEST SWAP1 POP MSTORE PUSH1 0x8 PUSH1 0x20 MSTORE PUSH2 0x2B82 PUSH1 0xFF PUSH1 0x40 PUSH1 0x80 MLOAD KECCAK256 SLOAD AND DUP3 SWAP2 PUSH2 0x2B77 JUMP JUMPDEST SWAP1 POP MSTORE PUSH1 0x8 PUSH1 0x20 MSTORE PUSH2 0x28C3 PUSH1 0xFF PUSH1 0x40 PUSH1 0x80 MLOAD KECCAK256 SLOAD AND DUP4 SWAP2 PUSH2 0x28B8 JUMP JUMPDEST PUSH1 0x40 MLOAD PUSH3 0x461BCD PUSH1 0xE5 SHL DUP2 MSTORE PUSH1 0x20 PUSH1 0x4 DUP3 ADD MSTORE PUSH1 0x2 PUSH1 0x24 DUP3 ADD MSTORE PUSH2 0x5255 PUSH1 0xF0 SHL PUSH1 0x44 DUP3 ADD MSTORE PUSH1 0x64 SWAP1 REVERT JUMPDEST POP PUSH1 0x6 PUSH1 0x84 CALLDATALOAD GT ISZERO PUSH2 0x287C JUMP JUMPDEST CALLVALUE PUSH2 0xABF JUMPI PUSH1 0x80 MLOAD DUP1 PUSH1 0x3 NOT CALLDATASIZE ADD SLT PUSH2 0x49B JUMPI PUSH1 0xFF PUSH1 0x20 SWAP2 SLOAD PUSH1 0xA0 SHR AND PUSH1 0x40 MLOAD SWAP1 ISZERO ISZERO DUP2 MSTORE RETURN JUMPDEST CALLVALUE PUSH2 0xABF JUMPI PUSH1 0x20 CALLDATASIZE PUSH1 0x3 NOT ADD SLT PUSH2 0xABF JUMPI PUSH1 0x4 CALLDATALOAD PUSH1 0x7 DUP2 LT ISZERO PUSH2 0xABF JUMPI PUSH1 0x20 SWAP1 PUSH1 0x1E ADD SLOAD PUSH1 0x40 MLOAD SWAP1 DUP2 MSTORE RETURN JUMPDEST CALLVALUE PUSH2 0xABF JUMPI PUSH1 0xC0 PUSH1 0x20 DUP2 MSTORE PUSH1 0x20 PUSH1 0x3 NOT CALLDATASIZE ADD SLT PUSH2 0xABF JUMPI PUSH1 0x4 CALLDATALOAD SWAP1 CALLER PUSH1 0x80 MLOAD MSTORE PUSH1 0xD DUP2 MLOAD MSTORE PUSH1 0x80 MLOAD SWAP1 PUSH1 0xFF SWAP2 DUP3 PUSH1 0x40 DUP3 KECCAK256 SLOAD AND SWAP1 DUP2 ISZERO PUSH2 0x2FA7 JUMPI JUMPDEST POP ISZERO PUSH2 0x2F7D JUMPI PUSH2 0x2C92 PUSH2 0x4F83 JUMP JUMPDEST DUP3 ISZERO PUSH2 0x2F53 JUMPI PUSH1 0x0 NOT DUP4 ADD DUP4 DUP2 GT PUSH2 0xCFA JUMPI PUSH1 0xE SWAP1 PUSH2 0x2CB3 DUP3 SLOAD DUP1 SWAP3 PUSH2 0x5268 JUMP JUMPDEST SWAP4 PUSH1 0xB SLOAD SWAP2 DUP3 DUP7 LT ISZERO PUSH2 0x2F29 JUMPI PUSH2 0x2CCA SWAP1 DUP7 PUSH2 0x4EF7 JUMP JUMPDEST SWAP2 DUP1 DUP4 GT PUSH2 0x2F21 JUMPI JUMPDEST POP SWAP2 SWAP1 PUSH1 0x80 MLOAD SWAP5 SWAP3 JUMPDEST DUP2 DUP5 LT PUSH2 0x2D19 JUMPI PUSH32 0x9ACB94CD9B9C8B1248D0DC0AA654D4303685379499519790474807198A329043 PUSH1 0x40 DUP9 DUP9 DUP9 DUP4 MLOAD SWAP3 DUP4 MSTORE MLOAD DUP3 ADD MSTORE LOG1 PUSH1 0x80 MLOAD DUP1 RETURN JUMPDEST SWAP1 SWAP2 SWAP3 SWAP5 PUSH2 0x2D26 DUP7 PUSH2 0x4B53 JUMP JUMPDEST SWAP1 SLOAD SWAP1 PUSH1 0x3 SWAP2 PUSH1 0x1 DUP1 PUSH1 0xA0 SHL SUB SWAP2 DUP4 SHL SHR AND SWAP1 DUP2 PUSH1 0x80 MLOAD MSTORE PUSH1 0x7 DUP8 MLOAD MSTORE PUSH1 0x40 PUSH1 0x80 MLOAD KECCAK256 DUP5 PUSH1 0x4 DUP3 ADD SLOAD PUSH1 0xB0 SHR AND PUSH2 0x2D5C DUP2 PUSH2 0x4C60 JUMP JUMPDEST PUSH1 0x1 DUP2 EQ ISZERO SWAP1 DUP2 PUSH2 0x2F0C JUMPI JUMPDEST POP PUSH2 0x2EFF JUMPI PUSH1 0x80 MLOAD SWAP2 DUP3 DUP4 SWAP2 DUP5 SWAP1 PUSH1 0x10 DUP6 ADD SWAP1 PUSH1 0x14 DUP7 ADD SWAP1 JUMPDEST PUSH1 0x4 DUP5 LT PUSH2 0x2E1D JUMPI POP POP POP POP DUP4 ISZERO PUSH2 0x2E0E JUMPI SWAP3 PUSH1 0x1E DUP4 PUSH32 0x64E8DD16146649F6743856BB8723DCD7EDD0BB0E9B5352620AE83A477AEA3283 SWAP4 PUSH2 0x2E06 SWAP9 SWAP7 PUSH2 0x2DD0 DUP14 PUSH2 0x2E00 SWAP11 SWAP9 ADD SWAP2 DUP3 SLOAD PUSH2 0x4FA4 JUMP JUMPDEST SWAP1 SSTORE PUSH2 0x2DE1 PUSH1 0xF DUP4 ADD SWAP2 DUP3 SLOAD PUSH2 0x4FA4 JUMP JUMPDEST SWAP1 SSTORE ADD PUSH2 0x2DEF DUP3 DUP3 SLOAD PUSH2 0x4EF7 JUMP JUMPDEST SWAP1 SSTORE PUSH1 0x40 MLOAD SWAP1 DUP2 MSTORE DUP10 MLOAD SWAP1 LOG2 PUSH2 0x4F74 JUMP JUMPDEST SWAP6 PUSH2 0x4F74 JUMP JUMPDEST SWAP3 SWAP2 SWAP1 PUSH2 0x2CDC JUMP JUMPDEST POP POP POP POP POP SWAP5 PUSH2 0x2E06 SWAP1 PUSH2 0x4F74 JUMP JUMPDEST SWAP1 SWAP2 SWAP3 SWAP5 SWAP4 SWAP7 PUSH2 0x2E2D DUP7 DUP6 PUSH2 0x4B9C JUMP JUMPDEST SWAP1 SLOAD SWAP1 DUP4 SHL SHR PUSH2 0x2E3D DUP8 DUP6 PUSH2 0x4B9C JUMP JUMPDEST SWAP1 SLOAD SWAP1 DUP5 SHL SHR GT ISZERO PUSH2 0x2EE9 JUMPI PUSH2 0x2E53 DUP7 DUP6 PUSH2 0x4B9C JUMP JUMPDEST SWAP1 SLOAD SWAP1 DUP4 SHL SHR SWAP1 JUMPDEST DUP2 ISZERO PUSH2 0x2EDC JUMPI DUP2 PUSH2 0x2ECE PUSH2 0x2ED4 SWAP4 PUSH2 0x2E88 PUSH2 0x2E00 SWAP5 PUSH2 0x2710 PUSH2 0x2E81 DUP14 PUSH1 0x41 ADD SLOAD DUP6 PUSH2 0x5268 JUMP JUMPDEST DIV SWAP1 PUSH2 0x4EF7 JUMP JUMPDEST SWAP12 PUSH2 0x2EBC PUSH2 0x2E96 DUP13 DUP12 PUSH2 0x4B9C JUMP JUMPDEST PUSH2 0x2EA5 DUP6 DUP4 SLOAD DUP4 DUP14 SHL SHR PUSH2 0x4FA4 JUMP JUMPDEST DUP3 SLOAD PUSH1 0x0 NOT PUSH1 0x3 SWAP4 SWAP1 SWAP4 SHL SWAP3 DUP4 SHL NOT AND SWAP2 SHL OR SWAP1 SSTORE JUMP JUMPDEST PUSH2 0x2EC9 PUSH2 0x2E96 DUP13 DUP11 PUSH2 0x4B9C JUMP JUMPDEST PUSH2 0x4EF7 JUMP JUMPDEST SWAP7 PUSH2 0x4EF7 JUMP JUMPDEST SWAP3 SWAP2 SWAP1 PUSH2 0x2D81 JUMP JUMPDEST SWAP8 SWAP5 SWAP6 PUSH2 0x2ED4 SWAP2 POP PUSH2 0x4F74 JUMP JUMPDEST PUSH2 0x2EF3 DUP7 DUP5 PUSH2 0x4B9C JUMP JUMPDEST SWAP1 SLOAD SWAP1 DUP4 SHL SHR SWAP1 PUSH2 0x2E5B JUMP JUMPDEST POP POP POP SWAP5 PUSH2 0x2E06 SWAP1 PUSH2 0x4F74 JUMP JUMPDEST PUSH1 0x2 SWAP2 POP PUSH2 0x2F19 DUP2 PUSH2 0x4C60 JUMP JUMPDEST EQ ISZERO DUP12 PUSH2 0x2D68 JUMP JUMPDEST SWAP2 POP DUP7 PUSH2 0x2CD3 JUMP JUMPDEST PUSH1 0x40 MLOAD PUSH3 0x461BCD PUSH1 0xE5 SHL DUP2 MSTORE DUP6 MLOAD PUSH1 0x4 DUP3 ADD MSTORE PUSH1 0x2 PUSH1 0x24 DUP3 ADD MSTORE PUSH2 0x4245 PUSH1 0xF0 SHL PUSH1 0x44 DUP3 ADD MSTORE PUSH1 0x64 SWAP1 REVERT JUMPDEST PUSH1 0x40 MLOAD PUSH3 0x461BCD PUSH1 0xE5 SHL DUP2 MSTORE SWAP1 MLOAD PUSH1 0x4 DUP3 ADD MSTORE PUSH1 0x2 PUSH1 0x24 DUP3 ADD MSTORE PUSH2 0x423 PUSH1 0xF4 SHL PUSH1 0x44 DUP3 ADD MSTORE PUSH1 0x64 SWAP1 REVERT JUMPDEST PUSH1 0x40 MLOAD PUSH3 0x461BCD PUSH1 0xE5 SHL DUP2 MSTORE SWAP1 MLOAD PUSH1 0x4 DUP3 ADD MSTORE PUSH1 0x2 PUSH1 0x24 DUP3 ADD MSTORE PUSH2 0x4155 PUSH1 0xF0 SHL PUSH1 0x44 DUP3 ADD MSTORE PUSH1 0x64 SWAP1 REVERT JUMPDEST SLOAD PUSH1 0x1 PUSH1 0x1 PUSH1 0xA0 SHL SUB AND CALLER EQ SWAP1 POP DUP5 PUSH2 0x2C84 JUMP JUMPDEST CALLVALUE PUSH2 0xABF JUMPI PUSH1 0x80 MLOAD DUP1 PUSH1 0x3 NOT CALLDATASIZE ADD SLT PUSH2 0x49B JUMPI PUSH1 0x20 PUSH1 0x40 MLOAD PUSH2 0x1770 DUP2 MSTORE RETURN JUMPDEST CALLVALUE PUSH2 0xABF JUMPI PUSH1 0x80 CALLDATASIZE PUSH1 0x3 NOT ADD SLT PUSH2 0xABF JUMPI PUSH1 0x4 CALLDATALOAD PUSH1 0x1 PUSH1 0x1 PUSH1 0x40 SHL SUB DUP2 GT PUSH2 0xABF JUMPI PUSH2 0x300A SWAP1 CALLDATASIZE SWAP1 PUSH1 0x4 ADD PUSH2 0x4C33 JUMP JUMPDEST SWAP1 PUSH1 0x24 CALLDATALOAD PUSH1 0x1 PUSH1 0x1 PUSH1 0x40 SHL SUB DUP2 GT PUSH2 0xABF JUMPI PUSH2 0x302A SWAP1 CALLDATASIZE SWAP1 PUSH1 0x4 ADD PUSH2 0x4C33 JUMP JUMPDEST SWAP1 SWAP3 SWAP1 PUSH1 0x44 CALLDATALOAD PUSH1 0x1 PUSH1 0x1 PUSH1 0x40 SHL SUB DUP2 GT PUSH2 0xABF JUMPI PUSH2 0x304C SWAP1 CALLDATASIZE SWAP1 PUSH1 0x4 ADD PUSH2 0x4C33 JUMP JUMPDEST SWAP1 SWAP2 PUSH1 0x64 CALLDATALOAD PUSH1 0x1 PUSH1 0x1 PUSH1 0x40 SHL SUB DUP2 GT PUSH2 0xABF JUMPI PUSH2 0x306D SWAP1 CALLDATASIZE SWAP1 PUSH1 0x4 ADD PUSH2 0x4C33 JUMP JUMPDEST SWAP7 SWAP1 SWAP5 CALLER PUSH1 0x80 MLOAD MSTORE PUSH1 0x8 PUSH1 0x20 MSTORE PUSH2 0x308C PUSH1 0xFF PUSH1 0x40 PUSH1 0x80 MLOAD KECCAK256 SLOAD AND PUSH2 0x5130 JUMP JUMPDEST DUP1 ISZERO PUSH2 0x35A0 JUMPI PUSH1 0x80 DUP1 MLOAD CALLER SWAP1 MSTORE PUSH1 0x7 PUSH1 0x20 MSTORE MLOAD PUSH1 0x40 DUP2 KECCAK256 SWAP8 SWAP1 PUSH1 0x1 PUSH1 0x1 PUSH1 0x40 SHL SUB DUP4 GT PUSH2 0x3589 JUMPI POP DUP2 SWAP1 PUSH2 0x30C3 PUSH1 0x20 DUP11 ADD SLOAD PUSH2 0x4CAA JUMP JUMPDEST PUSH1 0x1F DUP2 GT PUSH2 0x3532 JUMPI JUMPDEST POP PUSH1 0x80 MLOAD SWAP1 PUSH1 0x1F DUP4 GT PUSH1 0x1 EQ PUSH2 0x34C1 JUMPI PUSH1 0x80 MLOAD SWAP3 PUSH2 0x34B6 JUMPI JUMPDEST POP POP DUP2 PUSH1 0x1 SHL SWAP2 PUSH1 0x0 NOT SWAP1 PUSH1 0x3 SHL SHR NOT AND OR PUSH1 0x20 DUP8 ADD SSTORE JUMPDEST PUSH1 0x1 PUSH1 0x1 PUSH1 0x40 SHL SUB DUP3 GT PUSH2 0x32FB JUMPI DUP2 SWAP1 PUSH2 0x311A PUSH1 0x21 DUP9 ADD SLOAD PUSH2 0x4CAA JUMP JUMPDEST PUSH1 0x1F DUP2 GT PUSH2 0x345C JUMPI JUMPDEST POP PUSH1 0x80 MLOAD SWAP1 PUSH1 0x1F DUP4 GT PUSH1 0x1 EQ PUSH2 0x33EB JUMPI PUSH1 0x80 MLOAD SWAP3 PUSH2 0x33E0 JUMPI JUMPDEST POP POP DUP2 PUSH1 0x1 SHL SWAP2 PUSH1 0x0 NOT SWAP1 PUSH1 0x3 SHL SHR NOT AND OR PUSH1 0x21 DUP6 ADD SSTORE JUMPDEST PUSH1 0x22 DUP5 ADD SWAP2 PUSH1 0x1 PUSH1 0x1 PUSH1 0x40 SHL SUB DUP3 GT PUSH2 0x32FB JUMPI DUP2 SWAP1 PUSH2 0x3173 DUP5 SLOAD PUSH2 0x4CAA JUMP JUMPDEST PUSH1 0x1F DUP2 GT PUSH2 0x3389 JUMPI JUMPDEST POP PUSH1 0x80 MLOAD SWAP1 PUSH1 0x1F DUP4 GT PUSH1 0x1 EQ PUSH2 0x331E JUMPI PUSH1 0x80 MLOAD SWAP3 PUSH2 0x3313 JUMPI JUMPDEST POP POP DUP2 PUSH1 0x1 SHL SWAP2 PUSH1 0x0 NOT SWAP1 PUSH1 0x3 SHL SHR NOT AND OR SWAP1 SSTORE JUMPDEST PUSH1 0x23 DUP3 ADD SWAP1 PUSH1 0x1 PUSH1 0x1 PUSH1 0x40 SHL SUB DUP5 GT PUSH2 0x32FB JUMPI PUSH2 0x31C7 DUP3 SLOAD PUSH2 0x4CAA JUMP JUMPDEST PUSH1 0x1F DUP2 GT PUSH2 0x32B0 JUMPI JUMPDEST POP PUSH1 0x80 MLOAD SWAP1 PUSH1 0x1F DUP6 GT PUSH1 0x1 EQ PUSH2 0x3246 JUMPI SWAP4 DUP1 SWAP2 PUSH1 0x24 SWAP6 PUSH1 0x80 MLOAD SWAP3 PUSH2 0x323B JUMPI JUMPDEST POP POP DUP2 PUSH1 0x1 SHL SWAP2 PUSH1 0x0 NOT SWAP1 PUSH1 0x3 SHL SHR NOT AND OR SWAP1 SSTORE JUMPDEST ADD DUP1 SLOAD PUSH1 0xFF NOT AND PUSH1 0x1 OR SWAP1 SSTORE PUSH1 0x80 MLOAD CALLER PUSH32 0xBE4EC58A792F909E102EE3D745D0C3B34A4D437A54D903C4DB098D31C556422F DUP3 DUP1 LOG2 DUP1 RETURN JUMPDEST ADD CALLDATALOAD SWAP1 POP DUP6 DUP1 PUSH2 0x31EF JUMP JUMPDEST DUP3 DUP3 MSTORE PUSH1 0x80 MLOAD PUSH1 0x20 DUP2 KECCAK256 SWAP3 SWAP1 PUSH1 0x1F NOT DUP8 AND SWAP1 JUMPDEST DUP2 DUP2 LT PUSH2 0x3298 JUMPI POP SWAP2 PUSH1 0x1 SWAP4 SWAP2 DUP8 PUSH1 0x24 SWAP9 SWAP5 LT PUSH2 0x327E JUMPI JUMPDEST POP POP POP DUP2 SHL ADD SWAP1 SSTORE PUSH2 0x3204 JUMP JUMPDEST ADD CALLDATALOAD PUSH1 0x0 NOT PUSH1 0x3 DUP5 SWAP1 SHL PUSH1 0xF8 AND SHR NOT AND SWAP1 SSTORE DUP6 DUP1 DUP1 PUSH2 0x3271 JUMP JUMPDEST SWAP2 SWAP4 PUSH1 0x20 PUSH1 0x1 DUP2 SWAP3 DUP8 DUP8 ADD CALLDATALOAD DUP2 SSTORE ADD SWAP6 ADD SWAP3 ADD PUSH2 0x3259 JUMP JUMPDEST DUP3 PUSH1 0x80 MLOAD MSTORE PUSH1 0x80 MLOAD PUSH1 0x20 DUP2 KECCAK256 PUSH1 0x1F DUP8 ADD PUSH1 0x5 SHR DUP2 ADD SWAP3 PUSH1 0x20 DUP9 LT PUSH2 0x32F1 JUMPI JUMPDEST PUSH1 0x1F ADD PUSH1 0x5 SHR ADD SWAP2 JUMPDEST DUP3 DUP2 LT PUSH2 0x32E6 JUMPI POP POP PUSH2 0x31D0 JUMP JUMPDEST DUP2 DUP2 SSTORE PUSH1 0x1 ADD PUSH2 0x32D8 JUMP JUMPDEST SWAP1 SWAP3 POP DUP3 SWAP1 PUSH2 0x32CF JUMP JUMPDEST PUSH4 0x4E487B71 PUSH1 0xE0 SHL PUSH1 0x80 MLOAD MSTORE PUSH1 0x41 PUSH1 0x4 MSTORE PUSH1 0x24 PUSH1 0x80 MLOAD REVERT JUMPDEST ADD CALLDATALOAD SWAP1 POP DUP7 DUP1 PUSH2 0x3195 JUMP JUMPDEST DUP5 DUP3 MSTORE PUSH1 0x80 MLOAD PUSH1 0x20 DUP2 KECCAK256 SWAP4 POP SWAP1 SWAP2 SWAP1 PUSH1 0x1F NOT DUP6 AND SWAP1 JUMPDEST DUP2 DUP2 LT PUSH2 0x3371 JUMPI POP SWAP1 DUP5 PUSH1 0x1 SWAP6 SWAP5 SWAP4 SWAP3 LT PUSH2 0x3357 JUMPI JUMPDEST POP POP POP DUP2 SHL ADD SWAP1 SSTORE PUSH2 0x31AA JUMP JUMPDEST ADD CALLDATALOAD PUSH1 0x0 NOT PUSH1 0x3 DUP5 SWAP1 SHL PUSH1 0xF8 AND SHR NOT AND SWAP1 SSTORE DUP7 DUP1 DUP1 PUSH2 0x334A JUMP JUMPDEST SWAP2 SWAP4 PUSH1 0x20 PUSH1 0x1 DUP2 SWAP3 DUP8 DUP8 ADD CALLDATALOAD DUP2 SSTORE ADD SWAP6 ADD SWAP3 ADD PUSH2 0x3334 JUMP JUMPDEST SWAP1 SWAP2 POP DUP4 PUSH1 0x80 MLOAD MSTORE PUSH1 0x80 MLOAD PUSH1 0x20 DUP2 KECCAK256 PUSH1 0x1F DUP6 ADD PUSH1 0x5 SHR DUP2 ADD SWAP3 PUSH1 0x20 DUP7 LT PUSH2 0x33D6 JUMPI JUMPDEST SWAP1 PUSH1 0x1F DUP7 SWAP6 SWAP5 SWAP4 SWAP3 ADD PUSH1 0x5 SHR ADD SWAP2 JUMPDEST DUP3 DUP2 LT PUSH2 0x33C8 JUMPI POP POP PUSH2 0x317C JUMP JUMPDEST DUP2 DUP2 SSTORE DUP6 SWAP5 POP PUSH1 0x1 ADD PUSH2 0x33BA JUMP JUMPDEST SWAP1 SWAP3 POP DUP3 SWAP1 PUSH2 0x33AB JUMP JUMPDEST ADD CALLDATALOAD SWAP1 POP DUP8 DUP1 PUSH2 0x313C JUMP JUMPDEST PUSH1 0x21 DUP9 ADD DUP3 MSTORE PUSH1 0x80 MLOAD PUSH1 0x20 DUP2 KECCAK256 SWAP4 POP SWAP1 SWAP2 SWAP1 PUSH1 0x1F NOT DUP6 AND SWAP1 JUMPDEST DUP2 DUP2 LT PUSH2 0x3444 JUMPI POP SWAP1 DUP5 PUSH1 0x1 SWAP6 SWAP5 SWAP4 SWAP3 LT PUSH2 0x342A JUMPI JUMPDEST POP POP POP DUP2 SHL ADD PUSH1 0x21 DUP6 ADD SSTORE PUSH2 0x3154 JUMP JUMPDEST ADD CALLDATALOAD PUSH1 0x0 NOT PUSH1 0x3 DUP5 SWAP1 SHL PUSH1 0xF8 AND SHR NOT AND SWAP1 SSTORE DUP8 DUP1 DUP1 PUSH2 0x341A JUMP JUMPDEST SWAP2 SWAP4 PUSH1 0x20 PUSH1 0x1 DUP2 SWAP3 DUP8 DUP8 ADD CALLDATALOAD DUP2 SSTORE ADD SWAP6 ADD SWAP3 ADD PUSH2 0x3404 JUMP JUMPDEST SWAP1 SWAP2 POP PUSH1 0x21 DUP8 ADD PUSH1 0x80 MLOAD MSTORE PUSH1 0x80 MLOAD PUSH1 0x20 DUP2 KECCAK256 PUSH1 0x1F DUP6 ADD PUSH1 0x5 SHR DUP2 ADD SWAP3 PUSH1 0x20 DUP7 LT PUSH2 0x34AC JUMPI JUMPDEST SWAP1 PUSH1 0x1F DUP7 SWAP6 SWAP5 SWAP4 SWAP3 ADD PUSH1 0x5 SHR ADD SWAP2 JUMPDEST DUP3 DUP2 LT PUSH2 0x349E JUMPI POP POP PUSH2 0x3123 JUMP JUMPDEST DUP2 DUP2 SSTORE DUP6 SWAP5 POP PUSH1 0x1 ADD PUSH2 0x3490 JUMP JUMPDEST SWAP1 SWAP3 POP DUP3 SWAP1 PUSH2 0x3481 JUMP JUMPDEST ADD CALLDATALOAD SWAP1 POP DUP10 DUP1 PUSH2 0x30E5 JUMP JUMPDEST SWAP1 SWAP2 POP PUSH1 0x1F NOT DUP4 AND SWAP2 PUSH1 0x20 DUP11 ADD DUP2 MSTORE PUSH1 0x80 MLOAD SWAP3 PUSH1 0x20 DUP5 KECCAK256 SWAP4 JUMPDEST DUP2 DUP2 LT PUSH2 0x351A JUMPI POP SWAP1 DUP5 PUSH1 0x1 SWAP6 SWAP5 SWAP4 SWAP3 LT PUSH2 0x3500 JUMPI JUMPDEST POP POP POP DUP2 SHL ADD PUSH1 0x20 DUP8 ADD SSTORE PUSH2 0x30FD JUMP JUMPDEST ADD CALLDATALOAD PUSH1 0x0 NOT PUSH1 0x3 DUP5 SWAP1 SHL PUSH1 0xF8 AND SHR NOT AND SWAP1 SSTORE DUP10 DUP1 DUP1 PUSH2 0x34F0 JUMP JUMPDEST SWAP2 SWAP4 PUSH1 0x20 PUSH1 0x1 DUP2 SWAP3 DUP8 DUP8 ADD CALLDATALOAD DUP2 SSTORE ADD SWAP6 ADD SWAP3 ADD PUSH2 0x34DA JUMP JUMPDEST SWAP1 SWAP2 POP PUSH1 0x20 DUP10 ADD PUSH1 0x80 MLOAD MSTORE PUSH1 0x80 MLOAD PUSH1 0x20 DUP2 KECCAK256 PUSH1 0x1F DUP6 ADD PUSH1 0x5 SHR DUP2 ADD PUSH1 0x20 DUP7 LT PUSH2 0x3582 JUMPI JUMPDEST SWAP1 DUP6 SWAP5 SWAP4 SWAP3 SWAP2 JUMPDEST PUSH1 0x1F DUP5 ADD PUSH1 0x5 SHR DUP3 ADD DUP2 LT PUSH2 0x3574 JUMPI POP POP POP PUSH2 0x30CC JUMP JUMPDEST DUP3 DUP2 SSTORE DUP7 SWAP6 POP PUSH1 0x1 ADD PUSH2 0x355D JUMP JUMPDEST POP DUP1 PUSH2 0x3556 JUMP JUMPDEST PUSH4 0x4E487B71 PUSH1 0xE0 SHL SWAP1 MSTORE PUSH1 0x41 PUSH1 0x4 MSTORE PUSH1 0x80 MLOAD PUSH1 0x24 SWAP1 REVERT JUMPDEST PUSH1 0x40 MLOAD PUSH3 0x461BCD PUSH1 0xE5 SHL DUP2 MSTORE PUSH1 0x20 PUSH1 0x4 DUP3 ADD MSTORE PUSH1 0x2 PUSH1 0x24 DUP3 ADD MSTORE PUSH2 0x2227 PUSH1 0xF1 SHL PUSH1 0x44 DUP3 ADD MSTORE PUSH1 0x64 SWAP1 REVERT JUMPDEST CALLVALUE PUSH2 0xABF JUMPI PUSH1 0x20 CALLDATASIZE PUSH1 0x3 NOT ADD SLT PUSH2 0xABF JUMPI PUSH1 0x4 CALLDATALOAD PUSH2 0x35E6 PUSH2 0x4E14 JUMP JUMPDEST PUSH2 0x2710 DUP2 GT PUSH2 0x362C JUMPI PUSH1 0x40 PUSH32 0xDEFB0223A84C18F8F7C10046A8600D298578166098E58C49022547D7A50DA35B SWAP2 PUSH1 0x6 SLOAD SWAP1 DUP1 PUSH1 0x6 SSTORE DUP3 MLOAD SWAP2 DUP3 MSTORE PUSH1 0x20 DUP3 ADD MSTORE LOG1 PUSH1 0x80 MLOAD DUP1 RETURN JUMPDEST PUSH1 0x40 MLOAD PUSH3 0x461BCD PUSH1 0xE5 SHL DUP2 MSTORE PUSH1 0x20 PUSH1 0x4 DUP3 ADD MSTORE PUSH1 0x2 PUSH1 0x24 DUP3 ADD MSTORE PUSH2 0x5245 PUSH1 0xF0 SHL PUSH1 0x44 DUP3 ADD MSTORE PUSH1 0x64 SWAP1 REVERT JUMPDEST CALLVALUE PUSH2 0xABF JUMPI PUSH1 0x20 DUP1 PUSH1 0x3 NOT CALLDATASIZE ADD SLT PUSH2 0xABF JUMPI PUSH1 0x14 SLOAD PUSH1 0x40 MLOAD PUSH4 0x47CD5191 PUSH1 0xE0 SHL DUP2 MSTORE PUSH1 0x4 DUP1 CALLDATALOAD SWAP1 DUP3 ADD MSTORE SWAP1 DUP3 SWAP1 DUP3 SWAP1 PUSH1 0x24 SWAP1 DUP3 SWAP1 PUSH1 0x1 PUSH1 0x1 PUSH1 0xA0 SHL SUB AND GAS STATICCALL SWAP1 DUP2 ISZERO PUSH2 0xAB2 JUMPI PUSH1 0x80 MLOAD SWAP2 PUSH2 0x36AE JUMPI JUMPDEST POP PUSH1 0x40 MLOAD SWAP1 DUP2 MSTORE RETURN JUMPDEST SWAP1 POP DUP2 DUP2 DUP2 RETURNDATASIZE DUP4 GT PUSH2 0x36D4 JUMPI JUMPDEST PUSH2 0x36C5 DUP2 DUP4 PUSH2 0x4D4B JUMP JUMPDEST DUP2 ADD SUB SLT PUSH2 0xABF JUMPI MLOAD DUP3 PUSH2 0x36A5 JUMP JUMPDEST POP RETURNDATASIZE PUSH2 0x36BB JUMP JUMPDEST CALLVALUE PUSH2 0xABF JUMPI PUSH1 0x80 MLOAD DUP1 PUSH1 0x3 NOT CALLDATASIZE ADD SLT PUSH2 0x49B JUMPI PUSH1 0x3 SLOAD PUSH1 0x40 MLOAD PUSH1 0x1 PUSH1 0x1 PUSH1 0xA0 SHL SUB SWAP1 SWAP2 AND DUP2 MSTORE PUSH1 0x20 SWAP1 RETURN JUMPDEST CALLVALUE PUSH2 0xABF JUMPI PUSH1 0x20 CALLDATASIZE PUSH1 0x3 NOT ADD SLT PUSH2 0xABF JUMPI PUSH1 0x1 PUSH1 0x1 PUSH1 0xA0 SHL SUB PUSH2 0x3727 PUSH2 0x4A9D JUMP JUMPDEST AND PUSH1 0x80 MLOAD MSTORE PUSH1 0x9 PUSH1 0x20 MSTORE PUSH1 0x20 PUSH1 0xFF PUSH1 0x40 PUSH1 0x80 MLOAD KECCAK256 SLOAD AND PUSH1 0x40 MLOAD SWAP1 ISZERO ISZERO DUP2 MSTORE RETURN JUMPDEST CALLVALUE PUSH2 0xABF JUMPI PUSH1 0x80 MLOAD DUP1 PUSH1 0x3 NOT CALLDATASIZE ADD SLT PUSH2 0x49B JUMPI PUSH1 0x20 PUSH1 0xE SLOAD PUSH1 0x40 MLOAD SWAP1 DUP2 MSTORE RETURN JUMPDEST CALLVALUE PUSH2 0xABF JUMPI PUSH1 0x20 CALLDATASIZE PUSH1 0x3 NOT ADD SLT PUSH2 0xABF JUMPI PUSH1 0x4 CALLDATALOAD PUSH1 0x7 DUP2 LT ISZERO PUSH2 0xABF JUMPI PUSH1 0x20 SWAP1 PUSH1 0x25 ADD SLOAD PUSH1 0x40 MLOAD SWAP1 DUP2 MSTORE RETURN JUMPDEST CALLVALUE PUSH2 0xABF JUMPI PUSH1 0x80 MLOAD DUP1 PUSH1 0x3 NOT CALLDATASIZE ADD SLT PUSH2 0x49B JUMPI PUSH2 0x37AE PUSH2 0x4E14 JUMP JUMPDEST PUSH1 0x80 MLOAD SLOAD PUSH1 0xFF DUP2 PUSH1 0xA0 SHR AND ISZERO PUSH2 0x37F9 JUMPI PUSH1 0xFF PUSH1 0xA0 SHL NOT AND PUSH1 0x80 MLOAD SSTORE PUSH32 0x5DB9EE0A495BF2E6FF9C91A7834C1BA4FDD244A5E8AA4E537BD38AEAE4B073AA PUSH1 0x20 PUSH1 0x40 MLOAD CALLER DUP2 MSTORE LOG1 PUSH1 0x80 MLOAD DUP1 RETURN JUMPDEST PUSH1 0x40 MLOAD PUSH4 0x8DFC202B PUSH1 0xE0 SHL DUP2 MSTORE PUSH1 0x4 SWAP1 REVERT JUMPDEST CALLVALUE PUSH2 0xABF JUMPI PUSH1 0x20 CALLDATASIZE PUSH1 0x3 NOT ADD SLT PUSH2 0xABF JUMPI PUSH1 0x1 PUSH1 0x1 PUSH1 0xA0 SHL SUB PUSH2 0x382C PUSH2 0x4A9D JUMP JUMPDEST AND PUSH1 0x80 MLOAD MSTORE PUSH1 0x12 PUSH1 0x20 MSTORE PUSH1 0x20 PUSH1 0x40 PUSH1 0x80 MLOAD KECCAK256 SLOAD PUSH1 0x40 MLOAD SWAP1 DUP2 MSTORE RETURN JUMPDEST CALLVALUE PUSH2 0xABF JUMPI PUSH1 0x80 MLOAD DUP1 PUSH1 0x3 NOT CALLDATASIZE ADD SLT PUSH2 0x49B JUMPI PUSH1 0x20 PUSH1 0xFF PUSH1 0x2 SLOAD PUSH1 0xA0 SHR AND PUSH1 0x40 MLOAD SWAP1 DUP2 MSTORE RETURN JUMPDEST CALLVALUE PUSH2 0xABF JUMPI PUSH1 0x20 DUP1 PUSH1 0x3 NOT CALLDATASIZE ADD SLT PUSH2 0xABF JUMPI PUSH1 0x14 SLOAD PUSH1 0x40 MLOAD PUSH4 0x1D613961 PUSH1 0xE1 SHL DUP2 MSTORE PUSH1 0x4 DUP1 CALLDATALOAD SWAP1 DUP3 ADD MSTORE SWAP1 DUP3 SWAP1 DUP3 SWAP1 PUSH1 0x24 SWAP1 DUP3 SWAP1 PUSH1 0x1 PUSH1 0x1 PUSH1 0xA0 SHL SUB AND GAS STATICCALL SWAP1 DUP2 ISZERO PUSH2 0xAB2 JUMPI PUSH1 0x80 MLOAD SWAP2 PUSH2 0x36AE JUMPI POP PUSH1 0x40 MLOAD SWAP1 DUP2 MSTORE RETURN JUMPDEST CALLVALUE PUSH2 0xABF JUMPI PUSH1 0x20 CALLDATASIZE PUSH1 0x3 NOT ADD SLT PUSH2 0xABF JUMPI PUSH1 0x1 PUSH1 0x1 PUSH1 0xA0 SHL SUB PUSH2 0x38E5 PUSH2 0x4A9D JUMP JUMPDEST AND DUP1 PUSH1 0x80 MLOAD MSTORE PUSH1 0x8 PUSH1 0x20 MSTORE PUSH2 0x3902 PUSH1 0xFF PUSH1 0x40 PUSH1 0x80 MLOAD KECCAK256 SLOAD AND PUSH2 0x5130 JUMP JUMPDEST PUSH1 0x80 MLOAD MSTORE PUSH1 0x7 PUSH1 0x20 MSTORE PUSH1 0x20 PUSH1 0x40 PUSH1 0x80 MLOAD KECCAK256 SLOAD PUSH1 0x40 MLOAD SWAP1 DUP2 MSTORE RETURN JUMPDEST CALLVALUE PUSH2 0xABF JUMPI PUSH1 0x80 MLOAD DUP1 PUSH1 0x3 NOT CALLDATASIZE ADD SLT PUSH2 0x49B JUMPI PUSH1 0x1 SLOAD PUSH1 0x40 MLOAD PUSH1 0x1 PUSH1 0x1 PUSH1 0xA0 SHL SUB SWAP1 SWAP2 AND DUP2 MSTORE PUSH1 0x20 SWAP1 RETURN JUMPDEST CALLVALUE PUSH2 0xABF JUMPI PUSH1 0x80 MLOAD DUP1 PUSH1 0x3 NOT CALLDATASIZE ADD SLT PUSH2 0x49B JUMPI PUSH2 0x3962 PUSH2 0x5369 JUMP JUMPDEST PUSH2 0x396A PUSH2 0x4F83 JUMP JUMPDEST CALLER PUSH1 0x80 MLOAD MSTORE PUSH1 0x8 PUSH1 0x20 MSTORE PUSH2 0x3986 PUSH1 0xFF PUSH1 0x40 PUSH1 0x80 MLOAD KECCAK256 SLOAD AND PUSH2 0x5130 JUMP JUMPDEST CALLER PUSH1 0x80 MLOAD MSTORE PUSH1 0x7 PUSH1 0x20 MSTORE PUSH1 0x40 PUSH1 0x80 MLOAD KECCAK256 PUSH1 0x4 DUP2 ADD SLOAD PUSH2 0x39C0 PUSH1 0xFF DUP3 PUSH1 0xB0 SHR AND PUSH2 0x39AE DUP2 PUSH2 0x4C60 JUMP JUMPDEST PUSH1 0x1 DUP2 EQ SWAP1 DUP2 ISZERO PUSH2 0x3DA4 JUMPI JUMPDEST POP PUSH2 0x57A2 JUMP JUMPDEST PUSH1 0x1E DUP3 ADD SWAP1 DUP2 SLOAD SWAP1 DUP2 ISZERO PUSH2 0x3D7A JUMPI PUSH1 0xFF SWAP1 PUSH3 0x15180 TIMESTAMP DIV PUSH1 0x19 DUP7 ADD DUP2 DUP2 SLOAD LT PUSH2 0x3D6A JUMPI JUMPDEST POP POP PUSH1 0xA8 SHR AND PUSH1 0x7 DUP2 LT ISZERO PUSH2 0xFE4 JUMPI PUSH1 0x25 ADD SLOAD SWAP3 PUSH1 0x80 MLOAD SWAP3 PUSH1 0x18 DUP3 ADD SWAP1 DUP2 SLOAD DUP7 DUP2 DUP1 SWAP9 GT PUSH2 0x3D57 JUMPI JUMPDEST POP POP DUP5 ISZERO PUSH2 0x3D2D JUMPI DUP4 SWAP5 PUSH1 0x80 MLOAD SWAP5 DUP2 DUP2 GT PUSH2 0x3D0B JUMPI JUMPDEST POP POP DUP5 PUSH2 0x3AB1 SWAP5 SWAP6 SWAP7 PUSH2 0x3A3A SWAP3 PUSH1 0x80 MLOAD SWAP1 SSTORE PUSH2 0x4EF7 JUMP JUMPDEST SWAP1 SSTORE PUSH1 0x8 DUP2 ADD PUSH2 0x3A4B DUP6 DUP3 SLOAD PUSH2 0x4EF7 JUMP JUMPDEST SWAP1 SSTORE PUSH2 0x3A57 DUP5 CALLER PUSH2 0x58A0 JUMP JUMPDEST CALLER PUSH1 0x80 MLOAD MSTORE PUSH1 0xC PUSH1 0x20 MSTORE PUSH1 0x80 MLOAD PUSH1 0x1F PUSH1 0x40 DUP3 KECCAK256 SWAP3 ADD SLOAD SWAP1 POP PUSH1 0xFF DUP2 GT PUSH1 0x0 EQ PUSH2 0x3D05 JUMPI POP PUSH1 0xFF SWAP1 JUMPDEST PUSH1 0xFF PUSH1 0x40 MLOAD SWAP3 PUSH2 0x3A8E DUP5 PUSH2 0x4CE4 JUMP JUMPDEST PUSH1 0x5 DUP5 MSTORE DUP7 PUSH1 0x20 DUP6 ADD MSTORE TIMESTAMP PUSH1 0x40 DUP6 ADD MSTORE PUSH1 0x80 MLOAD PUSH1 0x60 DUP6 ADD MSTORE AND PUSH1 0x80 DUP4 ADD MSTORE PUSH2 0x51D2 JUMP JUMPDEST PUSH1 0x40 MLOAD DUP3 DUP2 MSTORE PUSH32 0xD4379F0DF0229CB2FED1F6F1C33E4A164DCF7652A8FF79EFD7F4F66BCC1B3756 PUSH1 0x20 CALLER SWAP3 LOG2 DUP1 PUSH2 0x3C99 JUMPI JUMPDEST POP PUSH1 0x80 DUP1 MLOAD CALLER SWAP1 MSTORE PUSH1 0x7 PUSH1 0x20 MSTORE MLOAD PUSH1 0x40 SWAP1 KECCAK256 PUSH1 0x1 SWAP1 DUP2 ADD SLOAD PUSH1 0x1 PUSH1 0x1 PUSH1 0xA0 SHL SUB AND JUMPDEST PUSH1 0x1 PUSH1 0x1 PUSH1 0xA0 SHL SUB DUP2 AND ISZERO ISZERO DUP1 PUSH2 0x3C8E JUMPI JUMPDEST ISZERO PUSH2 0xF6D JUMPI PUSH1 0x80 DUP1 MLOAD PUSH1 0x1 PUSH1 0x1 PUSH1 0xA0 SHL SUB DUP4 AND SWAP1 MSTORE PUSH1 0x7 PUSH1 0x20 MSTORE MLOAD PUSH1 0x40 SWAP1 KECCAK256 PUSH1 0x4 DUP2 ADD SLOAD PUSH1 0xB0 DUP2 SWAP1 SHR PUSH1 0xFF AND PUSH2 0x3B4C DUP2 PUSH2 0x4C60 JUMP JUMPDEST PUSH1 0x1 DUP2 EQ SWAP1 DUP2 ISZERO PUSH2 0x3C7A JUMPI JUMPDEST POP PUSH2 0x3B7D JUMPI JUMPDEST POP PUSH1 0x1 ADD SLOAD PUSH1 0x1 PUSH1 0x1 PUSH1 0xA0 SHL SUB AND SWAP2 PUSH2 0x3B77 SWAP2 POP PUSH2 0x4F74 JUMP JUMPDEST SWAP1 PUSH2 0x3B05 JUMP JUMPDEST PUSH1 0x7 PUSH1 0xFF DUP3 PUSH1 0xA8 SHR AND LT ISZERO PUSH2 0xFE4 JUMPI PUSH1 0xFF SWAP1 PUSH1 0xA8 SHR AND PUSH1 0x33 ADD SLOAD DUP4 GT ISZERO PUSH2 0x3BA5 JUMPI JUMPDEST DUP2 PUSH2 0x3B5E JUMP JUMPDEST PUSH1 0x64 SWAP2 DUP5 DUP4 DUP2 MUL DIV DUP4 EQ DUP6 ISZERO OR ISZERO PUSH2 0xCFA JUMPI PUSH2 0x2710 PUSH2 0x3B77 SWAP4 DUP7 MUL DIV DUP1 PUSH2 0x3BCE JUMPI JUMPDEST POP POP PUSH2 0x3B9F JUMP JUMPDEST PUSH2 0x3BD8 DUP2 DUP4 PUSH2 0x58A0 JUMP JUMPDEST PUSH1 0x9 DUP4 ADD PUSH2 0x3BE7 DUP3 DUP3 SLOAD PUSH2 0x4EF7 JUMP JUMPDEST SWAP1 SSTORE PUSH1 0x1 DUP1 PUSH1 0xA0 SHL SUB DUP3 AND PUSH1 0x80 MLOAD MSTORE PUSH1 0xC PUSH1 0x20 MSTORE PUSH2 0x3C35 PUSH1 0x40 PUSH1 0x80 MLOAD KECCAK256 PUSH1 0x40 MLOAD SWAP1 PUSH2 0x3C11 DUP3 PUSH2 0x4CE4 JUMP JUMPDEST PUSH1 0x6 DUP3 MSTORE DUP4 PUSH1 0x20 DUP4 ADD MSTORE TIMESTAMP PUSH1 0x40 DUP4 ADD MSTORE CALLER PUSH1 0x60 DUP4 ADD MSTORE PUSH1 0xFF DUP9 AND PUSH1 0x80 DUP4 ADD MSTORE PUSH2 0x51D2 JUMP JUMPDEST PUSH1 0x40 DUP1 MLOAD SWAP2 DUP3 MSTORE PUSH1 0x20 DUP3 ADD DUP7 SWAP1 MSTORE CALLER SWAP3 PUSH1 0x1 PUSH1 0x1 PUSH1 0xA0 SHL SUB AND SWAP2 PUSH32 0x45948FC51BBCAC6C3B663A1ADCC0697660BBAEDDD6EAB9240451A0EFCF7AD753 SWAP2 SWAP1 LOG3 DUP5 DUP1 PUSH2 0x3BC7 JUMP JUMPDEST PUSH1 0x2 SWAP2 POP PUSH2 0x3C87 DUP2 PUSH2 0x4C60 JUMP JUMPDEST EQ DUP7 PUSH2 0x3B58 JUMP JUMPDEST POP PUSH1 0x14 DUP3 GT ISZERO PUSH2 0x3B17 JUMP JUMPDEST PUSH2 0x3CA5 DUP2 PUSH1 0x16 SLOAD PUSH2 0x4EF7 JUMP JUMPDEST PUSH1 0x16 SSTORE PUSH1 0x40 MLOAD DUP2 DUP2 MSTORE PUSH32 0xD5FE7FA76CE91683EA1B2F2BA3429885FEEB202704AA35A0552E110E4EB6B26B PUSH1 0x20 CALLER SWAP3 LOG2 PUSH1 0x15 SLOAD PUSH1 0x1 PUSH1 0x1 PUSH1 0xA0 SHL SUB SWAP2 SWAP1 DUP3 AND DUP1 PUSH2 0x3CF0 JUMPI JUMPDEST POP POP PUSH2 0x3AE3 JUMP JUMPDEST PUSH2 0x3CFD SWAP3 PUSH1 0x1 SLOAD AND PUSH2 0x527B JUMP JUMPDEST DUP2 DUP1 DUP1 PUSH2 0x3CE9 JUMP JUMPDEST SWAP1 PUSH2 0x3A7F JUMP JUMPDEST SWAP1 SWAP7 PUSH2 0x3A3A SWAP3 SWAP7 POP PUSH2 0x3AB1 SWAP6 POP PUSH2 0x3D23 DUP9 DUP10 SWAP4 PUSH2 0x4FA4 JUMP JUMPDEST SWAP6 POP SWAP7 SWAP6 SWAP2 PUSH2 0x3A23 JUMP JUMPDEST PUSH1 0x40 MLOAD PUSH3 0x461BCD PUSH1 0xE5 SHL DUP2 MSTORE PUSH1 0x20 PUSH1 0x4 DUP3 ADD MSTORE PUSH1 0x2 PUSH1 0x24 DUP3 ADD MSTORE PUSH2 0x4443 PUSH1 0xF0 SHL PUSH1 0x44 DUP3 ADD MSTORE PUSH1 0x64 SWAP1 REVERT JUMPDEST PUSH2 0x3D62 SWAP3 SWAP7 POP PUSH2 0x4FA4 JUMP JUMPDEST SWAP4 DUP6 DUP8 PUSH2 0x3A0D JUMP JUMPDEST PUSH1 0x80 MLOAD PUSH1 0x18 DUP9 ADD SSTORE SSTORE DUP6 DUP1 PUSH2 0x39E4 JUMP JUMPDEST PUSH1 0x40 MLOAD PUSH3 0x461BCD PUSH1 0xE5 SHL DUP2 MSTORE PUSH1 0x20 PUSH1 0x4 DUP3 ADD MSTORE PUSH1 0x2 PUSH1 0x24 DUP3 ADD MSTORE PUSH2 0x4E43 PUSH1 0xF0 SHL PUSH1 0x44 DUP3 ADD MSTORE PUSH1 0x64 SWAP1 REVERT JUMPDEST PUSH1 0x2 SWAP2 POP PUSH2 0x3DB1 DUP2 PUSH2 0x4C60 JUMP JUMPDEST EQ DUP5 PUSH2 0x39BA JUMP JUMPDEST CALLVALUE PUSH2 0xABF JUMPI PUSH1 0x20 CALLDATASIZE PUSH1 0x3 NOT ADD SLT PUSH2 0xABF JUMPI PUSH1 0x4 CALLDATALOAD PUSH2 0x3DD4 PUSH2 0x5369 JUMP JUMPDEST PUSH2 0x3DDC PUSH2 0x4F83 JUMP JUMPDEST CALLER PUSH1 0x80 MLOAD MSTORE PUSH1 0x7 PUSH1 0x20 MSTORE PUSH1 0x40 PUSH1 0x80 MLOAD KECCAK256 PUSH2 0x3E0B PUSH1 0x1 PUSH1 0xFF PUSH1 0x4 DUP5 ADD SLOAD PUSH1 0xB0 SHR AND PUSH2 0x3E05 DUP2 PUSH2 0x4C60 JUMP JUMPDEST EQ PUSH2 0x57A2 JUMP JUMPDEST PUSH1 0x5 DUP2 ADD DUP1 SLOAD DUP4 DUP2 LT PUSH2 0x435E JUMPI DUP4 ISZERO PUSH2 0x4334 JUMPI PUSH1 0xFF PUSH1 0x2 SLOAD PUSH1 0xA0 SHR AND PUSH1 0x4D DUP2 GT PUSH2 0xCFA JUMPI PUSH1 0xA EXP DUP1 PUSH1 0xA MUL SWAP1 PUSH1 0xA DUP3 DIV SUB PUSH2 0xCFA JUMPI DUP1 ISZERO PUSH2 0x431C JUMPI DUP5 MOD PUSH2 0x42F2 JUMPI DUP4 PUSH2 0x3E56 SWAP2 PUSH2 0x4FA4 JUMP JUMPDEST SWAP1 SSTORE PUSH2 0x3E8 DUP3 MUL PUSH2 0x3E7 NOT DUP4 DUP3 DIV ADD PUSH2 0xCFA JUMPI PUSH1 0x80 MLOAD SWAP3 PUSH1 0x5 SLOAD DUP1 PUSH2 0x42D3 JUMPI JUMPDEST POP DUP4 PUSH2 0x3E93 PUSH2 0x3E98 SWAP3 PUSH2 0x3E93 PUSH2 0x2710 DUP7 DIV SWAP2 PUSH2 0x2710 DUP8 DIV SWAP1 PUSH2 0x4FA4 JUMP JUMPDEST PUSH2 0x4FA4 JUMP JUMPDEST SWAP2 PUSH2 0x2710 PUSH2 0x3EA8 PUSH1 0x6 SLOAD DUP6 PUSH2 0x5268 JUMP JUMPDEST DIV SWAP1 PUSH2 0x3EB4 DUP3 DUP6 PUSH2 0x4FA4 JUMP JUMPDEST SWAP2 DUP1 PUSH2 0x42B5 JUMPI JUMPDEST POP DUP2 PUSH2 0x4266 JUMPI JUMPDEST PUSH1 0x1D SWAP2 POP DUP5 PUSH2 0x4243 JUMPI JUMPDEST SWAP4 SWAP3 SWAP4 ADD PUSH2 0x3EDB DUP5 DUP3 SLOAD PUSH2 0x4EF7 JUMP JUMPDEST SWAP1 SSTORE CALLER PUSH1 0x80 MLOAD MSTORE PUSH1 0x12 PUSH1 0x20 MSTORE PUSH1 0x40 PUSH1 0x80 MLOAD KECCAK256 PUSH2 0x3EFC PUSH2 0x2710 DUP4 DIV DUP3 SLOAD PUSH2 0x4EF7 JUMP JUMPDEST SWAP1 SSTORE PUSH1 0x40 MLOAD PUSH2 0x2710 DUP3 DIV DUP2 MSTORE PUSH32 0x2B1D2104E84DD4DABB0CCA024171F783AB1E1C9DC1AF9D60A2361596653A99C4 PUSH1 0x20 CALLER SWAP3 LOG2 PUSH1 0x80 DUP1 MLOAD CALLER SWAP1 MSTORE PUSH1 0x7 PUSH1 0x20 MSTORE MLOAD PUSH1 0x40 DUP2 KECCAK256 PUSH1 0x1 SWAP1 DUP2 ADD SLOAD SWAP2 SWAP5 SWAP1 SWAP2 PUSH1 0x1 PUSH1 0x1 PUSH1 0xA0 SHL SUB AND JUMPDEST PUSH1 0x1 PUSH1 0x1 PUSH1 0xA0 SHL SUB DUP2 AND ISZERO ISZERO DUP1 PUSH2 0x4238 JUMPI JUMPDEST ISZERO PUSH2 0x4116 JUMPI PUSH1 0x1 DUP1 PUSH1 0xA0 SHL SUB DUP2 AND PUSH1 0x80 MLOAD MSTORE PUSH1 0x7 PUSH1 0x20 MSTORE PUSH1 0x40 PUSH1 0x80 MLOAD KECCAK256 SWAP1 PUSH1 0x4 DUP3 ADD SLOAD PUSH1 0xFF DUP2 PUSH1 0xB0 SHR AND PUSH2 0x3F98 DUP2 PUSH2 0x4C60 JUMP JUMPDEST PUSH1 0x1 DUP2 EQ SWAP1 DUP2 ISZERO PUSH2 0x4102 JUMPI JUMPDEST POP PUSH2 0x3FC9 JUMPI JUMPDEST POP POP PUSH1 0x1 ADD SLOAD PUSH1 0x1 PUSH1 0x1 PUSH1 0xA0 SHL SUB AND SWAP2 PUSH2 0x3FC3 SWAP1 PUSH2 0x4F74 JUMP JUMPDEST SWAP2 PUSH2 0x3F53 JUMP JUMPDEST PUSH1 0x7 PUSH1 0xFF DUP3 PUSH1 0xA8 SHR AND LT ISZERO PUSH2 0xFE4 JUMPI DUP1 PUSH1 0xFF DUP7 SWAP3 PUSH1 0xA8 SHR AND PUSH1 0x3A ADD SLOAD DUP3 GT ISZERO PUSH2 0x3FF3 JUMPI JUMPDEST POP PUSH2 0x3FAA JUMP JUMPDEST SWAP1 PUSH1 0xFF PUSH2 0x4003 SWAP3 PUSH1 0xA8 SHR AND PUSH2 0x57D3 JUMP JUMPDEST DUP1 PUSH2 0x4010 JUMPI JUMPDEST DUP5 SWAP1 PUSH2 0x3FED JUMP JUMPDEST PUSH2 0x401F PUSH2 0x2710 SWAP2 DUP3 DUP9 DIV PUSH2 0x5268 JUMP JUMPDEST DIV SWAP1 DUP2 ISZERO ISZERO DUP1 PUSH2 0x40EB JUMPI JUMPDEST ISZERO PUSH2 0x4009 JUMPI PUSH2 0x4059 DUP3 DUP1 SWAP10 PUSH2 0x4043 PUSH2 0x3FC3 SWAP7 SWAP6 DUP6 PUSH2 0x58A0 JUMP JUMPDEST PUSH1 0xA DUP6 ADD PUSH2 0x4052 DUP4 DUP3 SLOAD PUSH2 0x4EF7 JUMP JUMPDEST SWAP1 SSTORE PUSH2 0x4EF7 JUMP JUMPDEST SWAP8 PUSH1 0x1 DUP1 PUSH1 0xA0 SHL SUB DUP3 AND PUSH1 0x80 MLOAD MSTORE PUSH1 0xC PUSH1 0x20 MSTORE PUSH2 0x40A6 PUSH1 0x40 PUSH1 0x80 MLOAD KECCAK256 PUSH1 0x40 MLOAD SWAP1 PUSH2 0x4082 DUP3 PUSH2 0x4CE4 JUMP JUMPDEST PUSH1 0x7 DUP3 MSTORE DUP4 PUSH1 0x20 DUP4 ADD MSTORE TIMESTAMP PUSH1 0x40 DUP4 ADD MSTORE CALLER PUSH1 0x60 DUP4 ADD MSTORE PUSH1 0xFF DUP10 AND PUSH1 0x80 DUP4 ADD MSTORE PUSH2 0x51D2 JUMP JUMPDEST PUSH1 0x40 DUP1 MLOAD SWAP2 DUP3 MSTORE PUSH1 0x20 DUP3 ADD DUP8 SWAP1 MSTORE CALLER SWAP3 PUSH1 0x1 PUSH1 0x1 PUSH1 0xA0 SHL SUB AND SWAP2 PUSH32 0xFA90FF469705543002392F8F4D59D717C4D5C6B6C7832F347DC47E1F75855B93 SWAP2 SWAP1 LOG3 SWAP1 DUP8 PUSH2 0x4009 JUMP JUMPDEST POP PUSH2 0x2710 DUP7 DIV PUSH2 0x40FB DUP4 DUP11 PUSH2 0x4EF7 JUMP JUMPDEST GT ISZERO PUSH2 0x402A JUMP JUMPDEST PUSH1 0x2 SWAP2 POP PUSH2 0x410F DUP2 PUSH2 0x4C60 JUMP JUMPDEST EQ DUP10 PUSH2 0x3FA4 JUMP JUMPDEST POP DUP4 PUSH2 0x41EF DUP5 CALLER PUSH1 0x80 MLOAD MSTORE PUSH1 0xC PUSH1 0x20 MSTORE PUSH2 0x4161 PUSH1 0x40 PUSH1 0x80 MLOAD KECCAK256 PUSH1 0x40 MLOAD SWAP1 PUSH2 0x413C DUP3 PUSH2 0x4CE4 JUMP JUMPDEST PUSH1 0x3 DUP3 MSTORE DUP7 PUSH1 0x20 DUP4 ADD MSTORE TIMESTAMP PUSH1 0x40 DUP4 ADD MSTORE PUSH1 0x80 MLOAD PUSH1 0x60 DUP4 ADD MSTORE PUSH1 0x80 MLOAD PUSH1 0x80 DUP4 ADD MSTORE PUSH2 0x51D2 JUMP JUMPDEST CALLER PUSH1 0x80 MLOAD MSTORE PUSH1 0xC PUSH1 0x20 MSTORE PUSH2 0x41AA PUSH1 0x40 PUSH1 0x80 MLOAD KECCAK256 PUSH1 0x40 MLOAD SWAP1 PUSH2 0x4181 DUP3 PUSH2 0x4CE4 JUMP JUMPDEST PUSH1 0xA DUP3 MSTORE PUSH2 0x2710 DUP5 DIV PUSH1 0x20 DUP4 ADD MSTORE TIMESTAMP PUSH1 0x40 DUP4 ADD MSTORE PUSH1 0x80 MLOAD PUSH1 0x60 DUP4 ADD MSTORE PUSH1 0x80 MLOAD PUSH1 0x80 DUP4 ADD MSTORE PUSH2 0x51D2 JUMP JUMPDEST CALLER PUSH1 0x80 MLOAD MSTORE PUSH1 0xC PUSH1 0x20 MSTORE PUSH1 0x40 PUSH1 0x80 MLOAD KECCAK256 PUSH2 0x2710 PUSH1 0x40 MLOAD SWAP3 PUSH2 0x41CA DUP5 PUSH2 0x4CE4 JUMP JUMPDEST PUSH1 0xB DUP5 MSTORE DIV PUSH1 0x20 DUP4 ADD MSTORE TIMESTAMP PUSH1 0x40 DUP4 ADD MSTORE PUSH1 0x80 MLOAD PUSH1 0x60 DUP4 ADD MSTORE PUSH1 0x80 MLOAD PUSH1 0x80 DUP4 ADD MSTORE PUSH2 0x51D2 JUMP JUMPDEST PUSH1 0x40 MLOAD SWAP2 DUP3 MSTORE PUSH1 0x20 DUP3 ADD MSTORE PUSH32 0xDF273CB619D95419A9CD0EC88123A0538C85064229BAA6363788F743FFF90DEB PUSH1 0x40 CALLER SWAP3 LOG2 PUSH1 0x1 PUSH1 0x0 DUP1 MLOAD PUSH1 0x20 PUSH2 0x5DD8 DUP4 CODECOPY DUP2 MLOAD SWAP2 MSTORE SSTORE PUSH1 0x80 MLOAD DUP1 RETURN JUMPDEST POP PUSH1 0xF DUP4 GT ISZERO PUSH2 0x3F65 JUMP JUMPDEST PUSH1 0x1 SLOAD PUSH1 0x3 SLOAD PUSH2 0x4261 SWAP2 DUP8 SWAP2 PUSH1 0x1 PUSH1 0x1 PUSH1 0xA0 SHL SUB SWAP1 DUP2 AND SWAP2 AND PUSH2 0x527B JUMP JUMPDEST PUSH2 0x3ECC JUMP JUMPDEST PUSH1 0x2 SLOAD PUSH1 0x1 PUSH1 0x1 PUSH1 0xA0 SHL SUB AND DUP1 ISZERO PUSH2 0x428B JUMPI PUSH1 0x1D SWAP3 PUSH2 0x4286 SWAP2 CALLER SWAP1 PUSH2 0x527B JUMP JUMPDEST PUSH2 0x3EC2 JUMP JUMPDEST PUSH1 0x40 MLOAD PUSH3 0x461BCD PUSH1 0xE5 SHL DUP2 MSTORE PUSH1 0x20 PUSH1 0x4 DUP3 ADD MSTORE PUSH1 0x2 PUSH1 0x24 DUP3 ADD MSTORE PUSH2 0x1355 PUSH1 0xF2 SHL PUSH1 0x44 DUP3 ADD MSTORE PUSH1 0x64 SWAP1 REVERT JUMPDEST PUSH1 0x1 SLOAD PUSH2 0x42CD SWAP2 SWAP1 CALLER SWAP1 PUSH1 0x1 PUSH1 0x1 PUSH1 0xA0 SHL SUB AND PUSH2 0x527B JUMP JUMPDEST DUP6 PUSH2 0x3EBB JUMP JUMPDEST PUSH2 0x3E93 SWAP5 POP SWAP1 PUSH2 0x2710 PUSH2 0x42E9 PUSH2 0x3E98 SWAP4 DUP4 PUSH2 0x5268 JUMP JUMPDEST DIV SWAP5 POP SWAP1 PUSH2 0x3E76 JUMP JUMPDEST PUSH1 0x40 MLOAD PUSH3 0x461BCD PUSH1 0xE5 SHL DUP2 MSTORE PUSH1 0x20 PUSH1 0x4 DUP3 ADD MSTORE PUSH1 0x2 PUSH1 0x24 DUP3 ADD MSTORE PUSH2 0x414D PUSH1 0xF0 SHL PUSH1 0x44 DUP3 ADD MSTORE PUSH1 0x64 SWAP1 REVERT JUMPDEST PUSH4 0x4E487B71 PUSH1 0xE0 SHL PUSH1 0x80 MLOAD MSTORE PUSH1 0x12 PUSH1 0x4 MSTORE PUSH1 0x24 PUSH1 0x80 MLOAD REVERT JUMPDEST PUSH1 0x40 MLOAD PUSH3 0x461BCD PUSH1 0xE5 SHL DUP2 MSTORE PUSH1 0x20 PUSH1 0x4 DUP3 ADD MSTORE PUSH1 0x2 PUSH1 0x24 DUP3 ADD MSTORE PUSH2 0x413 PUSH1 0xF4 SHL PUSH1 0x44 DUP3 ADD MSTORE PUSH1 0x64 SWAP1 REVERT JUMPDEST PUSH1 0x40 MLOAD PUSH3 0x461BCD PUSH1 0xE5 SHL DUP2 MSTORE PUSH1 0x20 PUSH1 0x4 DUP3 ADD MSTORE PUSH1 0x3 PUSH1 0x24 DUP3 ADD MSTORE PUSH3 0x24A119 PUSH1 0xE9 SHL PUSH1 0x44 DUP3 ADD MSTORE PUSH1 0x64 SWAP1 REVERT JUMPDEST CALLVALUE PUSH2 0xABF JUMPI PUSH1 0x40 CALLDATASIZE PUSH1 0x3 NOT ADD SLT PUSH2 0xABF JUMPI PUSH2 0x43A2 PUSH2 0x4A9D JUMP JUMPDEST PUSH32 0x41310093E80507E3FB2FAFC7628A627F835448A93096F490E3E207749295F482 PUSH1 0x20 PUSH1 0x24 CALLDATALOAD PUSH2 0x43D0 PUSH2 0x4E14 JUMP JUMPDEST PUSH1 0x1 PUSH1 0x1 PUSH1 0xA0 SHL SUB DUP5 DUP2 AND SWAP5 PUSH2 0x43F7 SWAP2 DUP4 SWAP2 SWAP1 PUSH2 0x43EE DUP9 ISZERO ISZERO PUSH2 0x5CE7 JUMP JUMPDEST PUSH1 0x1 SLOAD AND PUSH2 0x527B JUMP JUMPDEST PUSH1 0x40 MLOAD SWAP1 DUP2 MSTORE LOG2 PUSH1 0x80 MLOAD DUP1 RETURN JUMPDEST CALLVALUE PUSH2 0xABF JUMPI PUSH1 0x20 CALLDATASIZE PUSH1 0x3 NOT ADD SLT PUSH2 0xABF JUMPI PUSH1 0x1 PUSH1 0x1 PUSH1 0xA0 SHL SUB PUSH2 0x4425 PUSH2 0x4A9D JUMP JUMPDEST AND PUSH1 0x80 MLOAD MSTORE PUSH1 0xD PUSH1 0x20 MSTORE PUSH1 0x20 PUSH1 0xFF PUSH1 0x40 PUSH1 0x80 MLOAD KECCAK256 SLOAD AND PUSH1 0x40 MLOAD SWAP1 ISZERO ISZERO DUP2 MSTORE RETURN JUMPDEST CALLVALUE PUSH2 0xABF JUMPI PUSH1 0x20 CALLDATASIZE PUSH1 0x3 NOT ADD SLT PUSH2 0xABF JUMPI PUSH2 0x445E PUSH2 0x4A9D JUMP JUMPDEST PUSH1 0x80 PUSH1 0x40 MLOAD PUSH2 0x446C DUP2 PUSH2 0x4D15 JUMP JUMPDEST CALLDATASIZE SWAP1 CALLDATACOPY PUSH1 0x80 PUSH1 0x40 MLOAD PUSH2 0x447D DUP2 PUSH2 0x4D15 JUMP JUMPDEST CALLDATASIZE SWAP1 CALLDATACOPY PUSH1 0x40 MLOAD SWAP1 PUSH2 0x448D DUP3 PUSH2 0x4D15 JUMP JUMPDEST PUSH1 0x80 CALLDATASIZE DUP4 CALLDATACOPY PUSH1 0x40 MLOAD SWAP1 PUSH2 0x449F DUP3 PUSH2 0x4D15 JUMP JUMPDEST PUSH1 0x80 CALLDATASIZE DUP4 CALLDATACOPY PUSH1 0x80 PUSH1 0x40 MLOAD PUSH2 0x44B2 DUP2 PUSH2 0x4D15 JUMP JUMPDEST CALLDATASIZE SWAP1 CALLDATACOPY PUSH1 0x1 DUP1 PUSH1 0xA0 SHL SUB AND PUSH1 0x80 MLOAD MSTORE PUSH1 0x7 PUSH1 0x20 MSTORE PUSH1 0x40 PUSH1 0x80 MLOAD KECCAK256 SWAP1 PUSH1 0x10 DUP3 ADD SWAP3 PUSH1 0x14 PUSH2 0x44DD DUP6 PUSH2 0x5A10 JUMP JUMPDEST SWAP4 ADD SWAP4 PUSH2 0x44E9 DUP6 PUSH2 0x5A10 JUMP JUMPDEST PUSH1 0x40 MLOAD SWAP6 SWAP1 SWAP2 SWAP1 PUSH1 0x80 DUP8 ADD PUSH1 0x1 PUSH1 0x1 PUSH1 0x40 SHL SUB DUP2 GT DUP9 DUP3 LT OR PUSH2 0x32FB JUMPI PUSH1 0x40 MSTORE PUSH2 0xBB8 DUP8 MSTORE PUSH2 0x7D0 PUSH1 0x20 DUP9 ADD MSTORE PUSH2 0x3E8 PUSH1 0x40 DUP9 ADD MSTORE PUSH2 0x1F4 PUSH1 0x60 DUP9 ADD MSTORE PUSH1 0x80 MLOAD JUMPDEST PUSH1 0x4 DUP2 LT PUSH2 0x4580 JUMPI PUSH2 0x280 DUP8 PUSH2 0x457E DUP11 PUSH2 0x4573 DUP11 PUSH2 0x4568 DUP12 PUSH2 0x455D DUP13 PUSH2 0x4553 PUSH1 0x40 MLOAD DUP1 SWAP11 PUSH2 0x4C0B JUMP JUMPDEST PUSH1 0x80 DUP10 ADD SWAP1 PUSH2 0x4C0B JUMP JUMPDEST PUSH2 0x100 DUP8 ADD SWAP1 PUSH2 0x4C0B JUMP JUMPDEST PUSH2 0x180 DUP6 ADD SWAP1 PUSH2 0x4C0B JUMP JUMPDEST PUSH2 0x200 DUP4 ADD SWAP1 PUSH2 0x4C0B JUMP JUMPDEST RETURN JUMPDEST DUP1 PUSH2 0x458E PUSH2 0x45FC SWAP3 DUP6 PUSH2 0x4B9C JUMP JUMPDEST SWAP1 SLOAD SWAP1 PUSH2 0x459B DUP4 DUP7 PUSH2 0x4B9C JUMP JUMPDEST SWAP1 SLOAD PUSH1 0x3 SWAP4 SWAP2 DUP5 SHL SHR SWAP2 DUP4 SHL SHR LT ISZERO PUSH2 0x4601 JUMPI PUSH2 0x45B8 DUP3 DUP7 PUSH2 0x4B9C JUMP JUMPDEST SWAP1 SLOAD SWAP2 SHL SHR JUMPDEST PUSH2 0x45C8 DUP3 DUP9 PUSH2 0x5A43 JUMP JUMPDEST MSTORE PUSH2 0x2710 PUSH2 0x45EB PUSH2 0x45D9 DUP4 DUP10 PUSH2 0x5A43 JUMP JUMPDEST MLOAD PUSH2 0x45E4 DUP5 DUP14 PUSH2 0x5A43 JUMP JUMPDEST MLOAD SWAP1 PUSH2 0x5268 JUMP JUMPDEST DIV PUSH2 0x45F6 DUP3 DUP10 PUSH2 0x5A43 JUMP JUMPDEST MSTORE PUSH2 0x4F74 JUMP JUMPDEST PUSH2 0x452A JUMP JUMPDEST PUSH2 0x460B DUP3 DUP6 PUSH2 0x4B9C JUMP JUMPDEST SWAP1 SLOAD SWAP2 SHL SHR PUSH2 0x45BE JUMP JUMPDEST CALLVALUE PUSH2 0xABF JUMPI PUSH1 0x80 MLOAD DUP1 PUSH1 0x3 NOT CALLDATASIZE ADD SLT PUSH2 0x49B JUMPI PUSH1 0x20 PUSH1 0x16 SLOAD PUSH1 0x40 MLOAD SWAP1 DUP2 MSTORE RETURN JUMPDEST CALLVALUE PUSH2 0xABF JUMPI PUSH2 0x4643 CALLDATASIZE PUSH2 0x4BEC JUMP JUMPDEST PUSH2 0x464B PUSH2 0x4E14 JUMP JUMPDEST PUSH1 0x7 DUP3 LT ISZERO DUP1 PUSH2 0xFE4 JUMPI PUSH1 0x1 DUP4 LT ISZERO DUP1 PUSH2 0x46A8 JUMPI JUMPDEST PUSH2 0x4669 SWAP1 PUSH2 0x5161 JUMP JUMPDEST PUSH2 0xFE4 JUMPI DUP2 PUSH2 0x20E8 PUSH32 0xFD97DC847C39542AE663C77ED6C5FE5D200D0A308AAC833F926E9C3F8F32453F SWAP4 PUSH1 0x25 ADD SWAP3 DUP1 DUP5 SLOAD SWAP5 SSTORE PUSH1 0x40 MLOAD SWAP4 DUP5 SWAP4 DUP5 PUSH2 0x5D18 JUMP JUMPDEST POP POP PUSH1 0x80 MLOAD PUSH1 0x6 DUP4 GT ISZERO PUSH2 0x4660 JUMP JUMPDEST CALLVALUE PUSH2 0xABF JUMPI PUSH1 0x40 CALLDATASIZE PUSH1 0x3 NOT ADD SLT PUSH2 0xABF JUMPI PUSH2 0x46D0 PUSH2 0x4A9D JUMP JUMPDEST PUSH1 0x24 CALLDATALOAD SWAP1 DUP2 ISZERO ISZERO DUP1 SWAP3 SUB PUSH2 0xABF JUMPI PUSH1 0x20 PUSH32 0x9742298DC6801916D04D1F05C6A0CC0405B25BAD99060BBBC1C82A9F474AB014 SWAP2 PUSH2 0x470A PUSH2 0x4E14 JUMP JUMPDEST PUSH1 0x1 PUSH1 0x1 PUSH1 0xA0 SHL SUB AND SWAP3 PUSH2 0x471F DUP5 ISZERO ISZERO PUSH2 0x5CE7 JUMP JUMPDEST DUP4 PUSH1 0x80 MLOAD MSTORE PUSH1 0xD DUP3 MSTORE PUSH1 0x40 PUSH1 0x80 MLOAD KECCAK256 PUSH1 0xFF NOT DUP2 SLOAD AND PUSH1 0xFF DUP4 AND OR SWAP1 SSTORE PUSH1 0x40 MLOAD SWAP1 DUP2 MSTORE LOG2 PUSH1 0x80 MLOAD DUP1 RETURN JUMPDEST CALLVALUE PUSH2 0xABF JUMPI PUSH1 0x20 CALLDATASIZE PUSH1 0x3 NOT ADD SLT PUSH2 0xABF JUMPI PUSH1 0x4 CALLDATALOAD PUSH1 0x7 DUP2 LT ISZERO PUSH2 0xABF JUMPI PUSH1 0x20 SWAP1 PUSH1 0x17 ADD SLOAD PUSH1 0x40 MLOAD SWAP1 DUP2 MSTORE RETURN JUMPDEST CALLVALUE PUSH2 0xABF JUMPI PUSH1 0x20 CALLDATASIZE PUSH1 0x3 NOT ADD SLT PUSH2 0xABF JUMPI PUSH1 0x1 PUSH1 0x1 PUSH1 0xA0 SHL SUB PUSH2 0x4795 PUSH2 0x4A9D JUMP JUMPDEST AND PUSH1 0x80 MLOAD MSTORE PUSH1 0x7 PUSH1 0x20 MSTORE PUSH2 0x4800 PUSH1 0x40 PUSH1 0x80 MLOAD KECCAK256 PUSH1 0xFF PUSH1 0x24 DUP3 ADD SLOAD AND PUSH2 0x482A PUSH2 0x47BF PUSH1 0x20 DUP5 ADD PUSH2 0x4D6E JUMP JUMPDEST SWAP3 PUSH2 0x481C PUSH2 0x47CF PUSH1 0x21 DUP4 ADD PUSH2 0x4D6E JUMP JUMPDEST SWAP2 PUSH2 0x480E PUSH2 0x47EB PUSH1 0x23 PUSH2 0x47E4 PUSH1 0x22 DUP6 ADD PUSH2 0x4D6E JUMP JUMPDEST SWAP4 ADD PUSH2 0x4D6E JUMP JUMPDEST SWAP4 PUSH1 0x40 MLOAD SWAP9 DUP10 SWAP9 PUSH1 0xA0 DUP11 MSTORE PUSH1 0xA0 DUP11 ADD SWAP1 PUSH2 0x4BAC JUMP JUMPDEST SWAP1 DUP9 DUP3 SUB PUSH1 0x20 DUP11 ADD MSTORE PUSH2 0x4BAC JUMP JUMPDEST SWAP1 DUP7 DUP3 SUB PUSH1 0x40 DUP9 ADD MSTORE PUSH2 0x4BAC JUMP JUMPDEST SWAP1 DUP5 DUP3 SUB PUSH1 0x60 DUP7 ADD MSTORE PUSH2 0x4BAC JUMP JUMPDEST SWAP1 ISZERO ISZERO PUSH1 0x80 DUP4 ADD MSTORE SUB SWAP1 RETURN JUMPDEST CALLVALUE PUSH2 0xABF JUMPI PUSH1 0x20 CALLDATASIZE PUSH1 0x3 NOT ADD SLT PUSH2 0xABF JUMPI PUSH1 0x4 CALLDATALOAD PUSH1 0x4 DUP2 LT ISZERO PUSH2 0xABF JUMPI PUSH1 0x20 SWAP1 PUSH1 0x41 ADD SLOAD PUSH1 0x40 MLOAD SWAP1 DUP2 MSTORE RETURN JUMPDEST CALLVALUE PUSH2 0xABF JUMPI PUSH1 0x20 CALLDATASIZE PUSH1 0x3 NOT ADD SLT PUSH2 0xABF JUMPI PUSH1 0x4 CALLDATALOAD PUSH1 0x80 MLOAD MSTORE PUSH1 0x10 PUSH1 0x20 MSTORE PUSH1 0x20 PUSH1 0xFF PUSH1 0x40 PUSH1 0x80 MLOAD KECCAK256 SLOAD AND PUSH1 0x40 MLOAD SWAP1 ISZERO ISZERO DUP2 MSTORE RETURN JUMPDEST CALLVALUE PUSH2 0xABF JUMPI PUSH1 0x40 CALLDATASIZE PUSH1 0x3 NOT ADD SLT PUSH2 0xABF JUMPI PUSH2 0x48AE PUSH2 0x4A9D JUMP JUMPDEST PUSH1 0x80 DUP1 MLOAD PUSH1 0x1 PUSH1 0x1 PUSH1 0xA0 SHL SUB SWAP3 DUP4 AND SWAP1 MSTORE PUSH1 0xA PUSH1 0x20 MSTORE MLOAD PUSH1 0x40 DUP2 KECCAK256 DUP1 SLOAD PUSH1 0x24 CALLDATALOAD SWAP4 SWAP3 SWAP1 DUP5 LT ISZERO PUSH2 0x49B JUMPI POP PUSH1 0x20 SWAP3 PUSH2 0x48E5 SWAP2 PUSH2 0x4B84 JUMP JUMPDEST SWAP2 SWAP1 SLOAD PUSH1 0x40 MLOAD SWAP3 PUSH1 0x3 SHL SHR AND DUP2 MSTORE RETURN JUMPDEST CALLVALUE PUSH2 0xABF JUMPI PUSH1 0x40 CALLDATASIZE PUSH1 0x3 NOT ADD SLT PUSH2 0xABF JUMPI PUSH2 0x490E PUSH2 0x4A9D JUMP JUMPDEST PUSH1 0x24 CALLDATALOAD SWAP1 PUSH1 0xFF DUP3 AND DUP3 SUB PUSH2 0xABF JUMPI PUSH2 0x4924 PUSH2 0x4E14 JUMP JUMPDEST PUSH1 0x1 PUSH1 0x1 PUSH1 0xA0 SHL SUB SWAP1 DUP2 AND SWAP1 DUP2 ISZERO PUSH2 0x4994 JUMPI PUSH1 0x1 DUP1 SLOAD PUSH1 0x1 PUSH1 0x1 PUSH1 0xA0 SHL SUB NOT DUP2 AND DUP5 OR SWAP1 SWAP2 SSTORE PUSH1 0x2 DUP1 SLOAD PUSH1 0xFF PUSH1 0xA0 SHL NOT AND PUSH1 0xA0 SWAP6 SWAP1 SWAP6 SHL PUSH1 0xFF PUSH1 0xA0 SHL AND SWAP5 SWAP1 SWAP5 OR SWAP1 SWAP4 SSTORE PUSH1 0x80 MLOAD SWAP3 AND PUSH32 0x5EFDFEDF5AEF119C431263F0656093045DFFDF44B3D8F1B0F158DC295C3A0F8E DUP4 DUP1 LOG3 DUP1 RETURN JUMPDEST PUSH1 0x40 MLOAD PUSH3 0x461BCD PUSH1 0xE5 SHL DUP2 MSTORE PUSH1 0x20 PUSH1 0x4 DUP3 ADD MSTORE PUSH1 0x2 PUSH1 0x24 DUP3 ADD MSTORE PUSH2 0x1255 PUSH1 0xF2 SHL PUSH1 0x44 DUP3 ADD MSTORE PUSH1 0x64 SWAP1 REVERT JUMPDEST CALLVALUE PUSH2 0x49B JUMPI PUSH2 0x49D5 PUSH2 0x49CF CALLDATASIZE PUSH2 0x4AB8 JUMP JUMPDEST SWAP2 PUSH2 0x5B5F JUMP JUMPDEST SWAP5 SWAP2 SWAP1 SWAP3 PUSH1 0x40 MLOAD SWAP5 PUSH1 0xC0 DUP7 ADD SWAP1 PUSH1 0xC0 DUP8 MSTORE DUP5 MLOAD DUP1 SWAP3 MSTORE PUSH1 0xE0 DUP8 ADD SWAP2 PUSH1 0x20 DUP1 SWAP7 ADD SWAP1 PUSH1 0x80 MLOAD JUMPDEST DUP2 DUP2 LT PUSH2 0x4A7C JUMPI POP POP POP SWAP2 PUSH2 0x4A1D DUP3 PUSH2 0x4A39 SWAP6 SWAP5 DUP10 PUSH2 0x4A2B SWAP6 SUB DUP9 DUP12 ADD MSTORE PUSH2 0x4AE2 JUMP JUMPDEST SWAP1 DUP8 DUP3 SUB PUSH1 0x40 DUP10 ADD MSTORE PUSH2 0x4AE2 JUMP JUMPDEST SWAP1 DUP6 DUP3 SUB PUSH1 0x60 DUP8 ADD MSTORE PUSH2 0x4B16 JUMP JUMPDEST DUP4 DUP2 SUB PUSH1 0x80 DUP6 ADD MSTORE DUP2 DUP1 DUP5 MLOAD SWAP3 DUP4 DUP2 MSTORE ADD SWAP4 ADD SWAP2 PUSH1 0x80 MLOAD JUMPDEST DUP3 DUP2 LT PUSH2 0x4A65 JUMPI DUP6 DUP1 DUP7 DUP10 PUSH1 0xA0 DUP4 ADD MSTORE SUB SWAP1 RETURN JUMPDEST DUP4 MLOAD PUSH1 0xFF AND DUP6 MSTORE SWAP4 DUP2 ADD SWAP4 SWAP3 DUP2 ADD SWAP3 PUSH1 0x1 ADD PUSH2 0x4A51 JUMP JUMPDEST SWAP1 SWAP2 SWAP4 DUP5 MLOAD SWAP1 PUSH1 0xC DUP3 LT ISZERO PUSH2 0xFE4 JUMPI SWAP1 DUP2 MSTORE DUP8 ADD SWAP4 DUP8 ADD SWAP2 SWAP1 PUSH1 0x1 ADD PUSH2 0x49FA JUMP JUMPDEST PUSH1 0x4 CALLDATALOAD SWAP1 PUSH1 0x1 PUSH1 0x1 PUSH1 0xA0 SHL SUB DUP3 AND DUP3 SUB PUSH2 0x4AB3 JUMPI JUMP JUMPDEST PUSH1 0x0 DUP1 REVERT JUMPDEST PUSH1 0x60 SWAP1 PUSH1 0x3 NOT ADD SLT PUSH2 0x4AB3 JUMPI PUSH1 0x4 CALLDATALOAD PUSH1 0x1 PUSH1 0x1 PUSH1 0xA0 SHL SUB DUP2 AND DUP2 SUB PUSH2 0x4AB3 JUMPI SWAP1 PUSH1 0x24 CALLDATALOAD SWAP1 PUSH1 0x44 CALLDATALOAD SWAP1 JUMP JUMPDEST SWAP1 DUP2 MLOAD DUP1 DUP3 MSTORE PUSH1 0x20 DUP1 DUP1 SWAP4 ADD SWAP4 ADD SWAP2 PUSH1 0x0 JUMPDEST DUP3 DUP2 LT PUSH2 0x4B02 JUMPI POP POP POP POP SWAP1 JUMP JUMPDEST DUP4 MLOAD DUP6 MSTORE SWAP4 DUP2 ADD SWAP4 SWAP3 DUP2 ADD SWAP3 PUSH1 0x1 ADD PUSH2 0x4AF4 JUMP JUMPDEST SWAP1 DUP2 MLOAD DUP1 DUP3 MSTORE PUSH1 0x20 DUP1 DUP1 SWAP4 ADD SWAP4 ADD SWAP2 PUSH1 0x0 JUMPDEST DUP3 DUP2 LT PUSH2 0x4B36 JUMPI POP POP POP POP SWAP1 JUMP JUMPDEST DUP4 MLOAD PUSH1 0x1 PUSH1 0x1 PUSH1 0xA0 SHL SUB AND DUP6 MSTORE SWAP4 DUP2 ADD SWAP4 SWAP3 DUP2 ADD SWAP3 PUSH1 0x1 ADD PUSH2 0x4B28 JUMP JUMPDEST PUSH1 0xB SLOAD DUP2 LT ISZERO PUSH2 0x4B6E JUMPI PUSH1 0xB PUSH1 0x0 MSTORE PUSH1 0x20 PUSH1 0x0 KECCAK256 ADD SWAP1 PUSH1 0x0 SWAP1 JUMP JUMPDEST PUSH4 0x4E487B71 PUSH1 0xE0 SHL PUSH1 0x0 MSTORE PUSH1 0x32 PUSH1 0x4 MSTORE PUSH1 0x24 PUSH1 0x0 REVERT JUMPDEST DUP1 SLOAD DUP3 LT ISZERO PUSH2 0x4B6E JUMPI PUSH1 0x0 MSTORE PUSH1 0x20 PUSH1 0x0 KECCAK256 ADD SWAP1 PUSH1 0x0 SWAP1 JUMP JUMPDEST PUSH1 0x4 DUP3 LT ISZERO PUSH2 0x4B6E JUMPI ADD SWAP1 PUSH1 0x0 SWAP1 JUMP JUMPDEST SWAP2 SWAP1 DUP3 MLOAD SWAP3 DUP4 DUP3 MSTORE PUSH1 0x0 JUMPDEST DUP5 DUP2 LT PUSH2 0x4BD8 JUMPI POP POP DUP3 PUSH1 0x0 PUSH1 0x20 DUP1 SWAP5 SWAP6 DUP5 ADD ADD MSTORE PUSH1 0x1F DUP1 NOT SWAP2 ADD AND ADD ADD SWAP1 JUMP JUMPDEST PUSH1 0x20 DUP2 DUP4 ADD DUP2 ADD MLOAD DUP5 DUP4 ADD DUP3 ADD MSTORE ADD PUSH2 0x4BB7 JUMP JUMPDEST PUSH1 0x40 SWAP1 PUSH1 0x3 NOT ADD SLT PUSH2 0x4AB3 JUMPI PUSH1 0x4 CALLDATALOAD PUSH1 0x7 DUP2 LT ISZERO PUSH2 0x4AB3 JUMPI SWAP1 PUSH1 0x24 CALLDATALOAD SWAP1 JUMP JUMPDEST PUSH1 0x0 SWAP2 JUMPDEST PUSH1 0x4 DUP4 LT PUSH2 0x4C1C JUMPI POP POP POP JUMP JUMPDEST PUSH1 0x1 SWAP1 DUP3 MLOAD DUP2 MSTORE PUSH1 0x20 DUP1 SWAP2 ADD SWAP3 ADD SWAP3 ADD SWAP2 SWAP1 PUSH2 0x4C0F JUMP JUMPDEST SWAP2 DUP2 PUSH1 0x1F DUP5 ADD SLT ISZERO PUSH2 0x4AB3 JUMPI DUP3 CALLDATALOAD SWAP2 PUSH1 0x1 PUSH1 0x1 PUSH1 0x40 SHL SUB DUP4 GT PUSH2 0x4AB3 JUMPI PUSH1 0x20 DUP4 DUP2 DUP7 ADD SWAP6 ADD ADD GT PUSH2 0x4AB3 JUMPI JUMP JUMPDEST PUSH1 0x3 GT ISZERO PUSH2 0x4C6A JUMPI JUMP JUMPDEST PUSH4 0x4E487B71 PUSH1 0xE0 SHL PUSH1 0x0 MSTORE PUSH1 0x21 PUSH1 0x4 MSTORE PUSH1 0x24 PUSH1 0x0 REVERT JUMPDEST SWAP1 PUSH1 0x7 DUP3 LT ISZERO PUSH2 0x4C6A JUMPI MSTORE JUMP JUMPDEST CALLVALUE PUSH2 0x4AB3 JUMPI PUSH1 0x0 CALLDATASIZE PUSH1 0x3 NOT ADD SLT PUSH2 0x4AB3 JUMPI PUSH1 0x20 PUSH1 0x40 MLOAD PUSH2 0x3E8 DUP2 MSTORE RETURN JUMPDEST SWAP1 PUSH1 0x1 DUP3 DUP2 SHR SWAP3 AND DUP1 ISZERO PUSH2 0x4CDA JUMPI JUMPDEST PUSH1 0x20 DUP4 LT EQ PUSH2 0x4CC4 JUMPI JUMP JUMPDEST PUSH4 0x4E487B71 PUSH1 0xE0 SHL PUSH1 0x0 MSTORE PUSH1 0x22 PUSH1 0x4 MSTORE PUSH1 0x24 PUSH1 0x0 REVERT JUMPDEST SWAP2 PUSH1 0x7F AND SWAP2 PUSH2 0x4CB9 JUMP JUMPDEST PUSH1 0xA0 DUP2 ADD SWAP1 DUP2 LT PUSH1 0x1 PUSH1 0x1 PUSH1 0x40 SHL SUB DUP3 GT OR PUSH2 0x4CFF JUMPI PUSH1 0x40 MSTORE JUMP JUMPDEST PUSH4 0x4E487B71 PUSH1 0xE0 SHL PUSH1 0x0 MSTORE PUSH1 0x41 PUSH1 0x4 MSTORE PUSH1 0x24 PUSH1 0x0 REVERT JUMPDEST PUSH1 0x80 DUP2 ADD SWAP1 DUP2 LT PUSH1 0x1 PUSH1 0x1 PUSH1 0x40 SHL SUB DUP3 GT OR PUSH2 0x4CFF JUMPI PUSH1 0x40 MSTORE JUMP JUMPDEST PUSH1 0x20 DUP2 ADD SWAP1 DUP2 LT PUSH1 0x1 PUSH1 0x1 PUSH1 0x40 SHL SUB DUP3 GT OR PUSH2 0x4CFF JUMPI PUSH1 0x40 MSTORE JUMP JUMPDEST PUSH1 0x1F SWAP1 SWAP2 ADD PUSH1 0x1F NOT AND DUP2 ADD SWAP1 PUSH1 0x1 PUSH1 0x1 PUSH1 0x40 SHL SUB DUP3 GT SWAP1 DUP3 LT OR PUSH2 0x4CFF JUMPI PUSH1 0x40 MSTORE JUMP JUMPDEST SWAP1 PUSH1 0x40 MLOAD SWAP2 DUP3 PUSH1 0x0 DUP3 SLOAD SWAP3 PUSH2 0x4D82 DUP5 PUSH2 0x4CAA JUMP JUMPDEST SWAP1 DUP2 DUP5 MSTORE PUSH1 0x1 SWAP5 DUP6 DUP2 AND SWAP1 DUP2 PUSH1 0x0 EQ PUSH2 0x4DF1 JUMPI POP PUSH1 0x1 EQ PUSH2 0x4DAE JUMPI JUMPDEST POP POP PUSH2 0x4DAC SWAP3 POP SUB DUP4 PUSH2 0x4D4B JUMP JUMPDEST JUMP JUMPDEST SWAP1 SWAP4 SWAP2 POP PUSH1 0x0 MSTORE PUSH1 0x20 SWAP1 DUP2 PUSH1 0x0 KECCAK256 SWAP4 PUSH1 0x0 SWAP2 JUMPDEST DUP2 DUP4 LT PUSH2 0x4DD9 JUMPI POP POP PUSH2 0x4DAC SWAP4 POP DUP3 ADD ADD CODESIZE DUP1 PUSH2 0x4D9E JUMP JUMPDEST DUP6 SLOAD DUP9 DUP5 ADD DUP6 ADD MSTORE SWAP5 DUP6 ADD SWAP5 DUP8 SWAP5 POP SWAP2 DUP4 ADD SWAP2 PUSH2 0x4DC1 JUMP JUMPDEST SWAP2 POP POP PUSH2 0x4DAC SWAP5 POP PUSH1 0x20 SWAP3 POP PUSH1 0xFF NOT AND DUP3 DUP5 ADD MSTORE ISZERO ISZERO PUSH1 0x5 SHL DUP3 ADD ADD CODESIZE DUP1 PUSH2 0x4D9E JUMP JUMPDEST PUSH1 0x0 SLOAD PUSH1 0x1 PUSH1 0x1 PUSH1 0xA0 SHL SUB AND CALLER SUB PUSH2 0x4E28 JUMPI JUMP JUMPDEST PUSH1 0x40 MLOAD PUSH4 0x118CDAA7 PUSH1 0xE0 SHL DUP2 MSTORE CALLER PUSH1 0x4 DUP3 ADD MSTORE PUSH1 0x24 SWAP1 REVERT JUMPDEST ISZERO PUSH2 0x4E47 JUMPI JUMP JUMPDEST PUSH1 0x40 MLOAD PUSH3 0x461BCD PUSH1 0xE5 SHL DUP2 MSTORE PUSH1 0x20 PUSH1 0x4 DUP3 ADD MSTORE PUSH1 0x2 PUSH1 0x24 DUP3 ADD MSTORE PUSH2 0x20A9 PUSH1 0xF1 SHL PUSH1 0x44 DUP3 ADD MSTORE PUSH1 0x64 SWAP1 REVERT JUMPDEST ISZERO PUSH2 0x4E78 JUMPI JUMP JUMPDEST PUSH1 0x40 MLOAD PUSH3 0x461BCD PUSH1 0xE5 SHL DUP2 MSTORE PUSH1 0x20 PUSH1 0x4 DUP3 ADD MSTORE PUSH1 0x2 PUSH1 0x24 DUP3 ADD MSTORE PUSH2 0x4953 PUSH1 0xF0 SHL PUSH1 0x44 DUP3 ADD MSTORE PUSH1 0x64 SWAP1 REVERT JUMPDEST ISZERO PUSH2 0x4EA9 JUMPI JUMP JUMPDEST PUSH1 0x40 MLOAD PUSH3 0x461BCD PUSH1 0xE5 SHL DUP2 MSTORE PUSH1 0x20 PUSH1 0x4 DUP3 ADD MSTORE PUSH1 0x2 PUSH1 0x24 DUP3 ADD MSTORE PUSH2 0x24A1 PUSH1 0xF1 SHL PUSH1 0x44 DUP3 ADD MSTORE PUSH1 0x64 SWAP1 REVERT JUMPDEST SWAP1 PUSH2 0x4EDD DUP2 PUSH2 0x4C60 JUMP JUMPDEST DUP2 SLOAD PUSH1 0xFF PUSH1 0xA0 SHL NOT AND PUSH1 0xA0 SWAP2 SWAP1 SWAP2 SHL PUSH1 0xFF PUSH1 0xA0 SHL AND OR SWAP1 SSTORE JUMP JUMPDEST SWAP2 SWAP1 DUP3 ADD DUP1 SWAP3 GT PUSH2 0x4F04 JUMPI JUMP JUMPDEST PUSH4 0x4E487B71 PUSH1 0xE0 SHL PUSH1 0x0 MSTORE PUSH1 0x11 PUSH1 0x4 MSTORE PUSH1 0x24 PUSH1 0x0 REVERT JUMPDEST PUSH1 0xB SLOAD PUSH1 0x1 PUSH1 0x40 SHL DUP2 LT ISZERO PUSH2 0x4CFF JUMPI DUP1 PUSH1 0x1 PUSH2 0x4F39 SWAP3 ADD PUSH1 0xB SSTORE PUSH2 0x4B53 JUMP JUMPDEST DUP2 SWAP3 SWAP2 SLOAD SWAP1 PUSH1 0x3 SHL SWAP2 PUSH1 0x1 DUP1 PUSH1 0xA0 SHL SUB DUP1 SWAP2 AND DUP4 SHL SWAP3 SHL NOT AND OR SWAP1 SSTORE JUMP JUMPDEST DUP1 SLOAD PUSH1 0x1 PUSH1 0x40 SHL DUP2 LT ISZERO PUSH2 0x4CFF JUMPI PUSH2 0x4F39 SWAP2 PUSH1 0x1 DUP3 ADD DUP2 SSTORE PUSH2 0x4B84 JUMP JUMPDEST PUSH1 0x0 NOT DUP2 EQ PUSH2 0x4F04 JUMPI PUSH1 0x1 ADD SWAP1 JUMP JUMPDEST PUSH1 0xFF PUSH1 0x0 SLOAD PUSH1 0xA0 SHR AND PUSH2 0x4F92 JUMPI JUMP JUMPDEST PUSH1 0x40 MLOAD PUSH4 0xD93C0665 PUSH1 0xE0 SHL DUP2 MSTORE PUSH1 0x4 SWAP1 REVERT JUMPDEST SWAP2 SWAP1 DUP3 SUB SWAP2 DUP3 GT PUSH2 0x4F04 JUMPI JUMP JUMPDEST PUSH1 0x0 DUP1 PUSH1 0x60 CALLER DUP2 SHL PUSH1 0x1 DUP1 DUP1 JUMPDEST PUSH2 0x4FCB JUMPI JUMPDEST POP POP POP POP POP SWAP1 JUMP JUMPDEST SWAP5 SWAP1 SWAP2 SWAP3 SWAP4 SWAP5 ISZERO PUSH2 0x50B6 JUMPI JUMPDEST POP PUSH1 0x0 PUSH1 0x11 SWAP2 PUSH2 0x4FE7 DUP4 SLOAD PUSH2 0x4F74 JUMP JUMPDEST SWAP3 DUP4 DUP2 SSTORE PUSH1 0xB SLOAD SWAP1 PUSH1 0x40 SWAP5 DUP6 MLOAD PUSH1 0x20 SWAP4 DUP5 DUP3 ADD SWAP3 TIMESTAMP DUP5 MSTORE PREVRANDAO DUP10 DUP5 ADD MSTORE DUP10 DUP12 DUP5 ADD MSTORE PUSH1 0x74 DUP4 ADD MSTORE PUSH1 0x94 SWAP1 DUP2 DUP4 ADD MSTORE DUP2 MSTORE PUSH1 0xC0 DUP2 ADD DUP2 DUP2 LT PUSH1 0x1 DUP1 PUSH1 0x40 SHL SUB DUP3 GT OR PUSH2 0x50A2 JUMPI SWAP1 PUSH5 0xE8D4A50C18 SWAP3 SWAP2 DUP9 MSTORE MLOAD SWAP1 KECCAK256 MOD SWAP1 PUSH2 0x3E8 DUP3 ADD DUP1 SWAP3 GT PUSH2 0x5090 JUMPI POP PUSH2 0x5052 SWAP1 SWAP8 PUSH2 0x4F74 JUMP JUMPDEST SWAP4 PUSH1 0x32 DUP6 GT PUSH2 0x5068 JUMPI POP POP SWAP1 DUP2 SWAP5 SWAP4 SWAP3 SWAP5 PUSH2 0x4FBE JUMP JUMPDEST PUSH1 0x64 SWAP3 POP MLOAD SWAP1 PUSH3 0x461BCD PUSH1 0xE5 SHL DUP3 MSTORE PUSH1 0x4 DUP3 ADD MSTORE PUSH1 0x2 PUSH1 0x24 DUP3 ADD MSTORE PUSH2 0x4947 PUSH1 0xF0 SHL PUSH1 0x44 DUP3 ADD MSTORE REVERT JUMPDEST PUSH4 0x4E487B71 PUSH1 0xE0 SHL DUP6 MSTORE PUSH1 0x4 MSTORE PUSH1 0x24 DUP5 REVERT JUMPDEST PUSH4 0x4E487B71 PUSH1 0xE0 SHL DUP8 MSTORE PUSH1 0x41 PUSH1 0x4 MSTORE PUSH1 0x24 DUP8 REVERT JUMPDEST DUP1 PUSH1 0x0 MSTORE PUSH1 0x10 PUSH1 0x20 MSTORE PUSH1 0xFF PUSH1 0x40 PUSH1 0x0 KECCAK256 SLOAD AND PUSH2 0x4FD7 JUMPI SWAP4 DUP1 PUSH2 0x4FC3 JUMP JUMPDEST JUMPDEST PUSH1 0x1 PUSH1 0x1 PUSH1 0xA0 SHL SUB DUP2 DUP2 AND PUSH1 0x0 SWAP1 DUP2 MSTORE PUSH1 0x7 PUSH1 0x20 MSTORE PUSH1 0x40 SWAP1 KECCAK256 PUSH1 0x4 ADD SLOAD AND SWAP1 DUP2 ISZERO PUSH2 0x50FF JUMPI POP PUSH2 0x50D4 JUMP JUMPDEST SWAP1 POP SWAP1 JUMP JUMPDEST JUMPDEST PUSH1 0x1 PUSH1 0x1 PUSH1 0xA0 SHL SUB DUP2 DUP2 AND PUSH1 0x0 SWAP1 DUP2 MSTORE PUSH1 0x7 PUSH1 0x20 MSTORE PUSH1 0x40 SWAP1 KECCAK256 PUSH1 0x3 ADD SLOAD AND SWAP1 DUP2 ISZERO PUSH2 0x50FF JUMPI POP PUSH2 0x5105 JUMP JUMPDEST ISZERO PUSH2 0x5137 JUMPI JUMP JUMPDEST PUSH1 0x40 MLOAD PUSH3 0x461BCD PUSH1 0xE5 SHL DUP2 MSTORE PUSH1 0x20 PUSH1 0x4 DUP3 ADD MSTORE PUSH1 0x2 PUSH1 0x24 DUP3 ADD MSTORE PUSH2 0x2729 PUSH1 0xF1 SHL PUSH1 0x44 DUP3 ADD MSTORE PUSH1 0x64 SWAP1 REVERT JUMPDEST ISZERO PUSH2 0x5168 JUMPI JUMP JUMPDEST PUSH1 0x40 MLOAD PUSH3 0x461BCD PUSH1 0xE5 SHL DUP2 MSTORE PUSH1 0x20 PUSH1 0x4 DUP3 ADD MSTORE PUSH1 0x2 PUSH1 0x24 DUP3 ADD MSTORE PUSH2 0x495 PUSH1 0xF4 SHL PUSH1 0x44 DUP3 ADD MSTORE PUSH1 0x64 SWAP1 REVERT JUMPDEST SWAP1 PUSH1 0x7 DUP2 LT ISZERO PUSH2 0x4C6A JUMPI DUP2 SLOAD PUSH1 0xFF PUSH1 0xA8 SHL NOT AND PUSH1 0xA8 SWAP2 SWAP1 SWAP2 SHL PUSH1 0xFF PUSH1 0xA8 SHL AND OR SWAP1 SSTORE JUMP JUMPDEST DUP1 SLOAD DUP3 LT ISZERO PUSH2 0x4B6E JUMPI PUSH1 0x0 MSTORE PUSH1 0x20 PUSH1 0x0 KECCAK256 SWAP1 PUSH1 0x2 SHL ADD SWAP1 PUSH1 0x0 SWAP1 JUMP JUMPDEST DUP1 SLOAD PUSH1 0x1 PUSH1 0x40 SHL DUP2 LT ISZERO PUSH2 0x4CFF JUMPI PUSH2 0x51EF SWAP2 PUSH1 0x1 DUP3 ADD DUP2 SSTORE PUSH2 0x51B6 JUMP JUMPDEST PUSH2 0x5252 JUMPI DUP2 MLOAD SWAP1 PUSH1 0xC DUP3 LT ISZERO PUSH2 0x4C6A JUMPI PUSH1 0x3 SWAP2 PUSH1 0xFF DUP1 NOT DUP4 SLOAD AND SWAP2 AND OR DUP2 SSTORE PUSH1 0x20 DUP4 ADD MLOAD PUSH1 0x1 DUP3 ADD SSTORE PUSH1 0x40 DUP4 ADD MLOAD PUSH1 0x2 DUP3 ADD SSTORE ADD SWAP1 PUSH1 0x1 DUP1 PUSH1 0xA0 SHL SUB PUSH1 0x60 DUP3 ADD MLOAD AND DUP3 SLOAD SWAP2 PUSH1 0x80 PUSH1 0xFF PUSH1 0xA0 SHL SWAP2 ADD MLOAD PUSH1 0xA0 SHL AND SWAP2 PUSH1 0x1 DUP1 PUSH1 0xA8 SHL SUB NOT AND OR OR SWAP1 SSTORE JUMP JUMPDEST PUSH4 0x4E487B71 PUSH1 0xE0 SHL PUSH1 0x0 MSTORE PUSH1 0x0 PUSH1 0x4 MSTORE PUSH1 0x24 PUSH1 0x0 REVERT JUMPDEST DUP2 DUP2 MUL SWAP3 SWAP2 DUP2 ISZERO SWAP2 DUP5 DIV EQ OR ISZERO PUSH2 0x4F04 JUMPI JUMP JUMPDEST PUSH1 0x40 MLOAD PUSH4 0xA9059CBB PUSH1 0xE0 SHL PUSH1 0x0 SWAP1 DUP2 MSTORE PUSH1 0x1 PUSH1 0x1 PUSH1 0xA0 SHL SUB SWAP4 DUP5 AND PUSH1 0x4 MSTORE PUSH1 0x24 SWAP5 SWAP1 SWAP5 MSTORE SWAP3 PUSH1 0x20 SWAP1 PUSH1 0x44 DUP2 DUP1 DUP6 GAS CALL PUSH1 0x1 PUSH1 0x0 MLOAD EQ DUP2 AND ISZERO PUSH2 0x52DC JUMPI JUMPDEST DUP4 PUSH1 0x40 MSTORE ISZERO PUSH2 0x52C6 JUMPI POP POP POP JUMP JUMPDEST PUSH4 0x5274AFE7 PUSH1 0xE0 SHL DUP4 MSTORE AND PUSH1 0x4 DUP3 ADD MSTORE PUSH1 0x24 SWAP2 POP REVERT JUMPDEST PUSH1 0x1 DUP2 ISZERO AND PUSH2 0x52F2 JUMPI DUP2 EXTCODESIZE ISZERO ISZERO RETURNDATASIZE ISZERO AND AND PUSH2 0x52B8 JUMP JUMPDEST DUP4 RETURNDATASIZE PUSH1 0x0 DUP3 RETURNDATACOPY RETURNDATASIZE SWAP1 REVERT JUMPDEST PUSH1 0x40 MLOAD PUSH4 0x23B872DD PUSH1 0xE0 SHL PUSH1 0x0 SWAP1 DUP2 MSTORE PUSH1 0x1 PUSH1 0x1 PUSH1 0xA0 SHL SUB SWAP4 DUP5 AND PUSH1 0x4 MSTORE SWAP4 DUP4 AND PUSH1 0x24 MSTORE PUSH1 0x44 SWAP5 SWAP1 SWAP5 MSTORE SWAP1 SWAP2 PUSH1 0x20 SWAP1 PUSH1 0x64 DUP2 DUP1 DUP6 GAS CALL PUSH1 0x1 PUSH1 0x0 MLOAD EQ DUP2 AND ISZERO PUSH2 0x5353 JUMPI JUMPDEST DUP4 PUSH1 0x40 MSTORE PUSH1 0x0 PUSH1 0x60 MSTORE ISZERO PUSH2 0x52C6 JUMPI POP POP POP JUMP JUMPDEST PUSH1 0x1 DUP2 ISZERO AND PUSH2 0x52F2 JUMPI DUP2 EXTCODESIZE ISZERO ISZERO RETURNDATASIZE ISZERO AND AND PUSH2 0x5340 JUMP JUMPDEST PUSH1 0x0 DUP1 MLOAD PUSH1 0x20 PUSH2 0x5DD8 DUP4 CODECOPY DUP2 MLOAD SWAP2 MSTORE PUSH1 0x2 DUP2 SLOAD EQ PUSH2 0x5387 JUMPI PUSH1 0x2 SWAP1 SSTORE JUMP JUMPDEST PUSH1 0x40 MLOAD PUSH4 0x3EE5AEB5 PUSH1 0xE0 SHL DUP2 MSTORE PUSH1 0x4 SWAP1 REVERT JUMPDEST PUSH1 0x1 PUSH1 0x1 PUSH1 0xA0 SHL SUB SWAP1 DUP2 AND PUSH1 0x0 DUP2 DUP2 MSTORE PUSH1 0x7 PUSH1 0x20 MSTORE PUSH1 0x40 DUP1 DUP3 KECCAK256 PUSH1 0x1 ADD SLOAD SWAP3 SWAP5 SWAP3 SWAP1 SWAP4 AND SWAP3 DUP4 ISZERO PUSH2 0x54BD JUMPI DUP4 DUP3 MSTORE DUP1 DUP3 KECCAK256 SWAP3 PUSH1 0x4 DUP5 ADD SLOAD PUSH1 0xFF DUP2 PUSH1 0xB0 SHR AND PUSH2 0x53E0 DUP2 PUSH2 0x4C60 JUMP JUMPDEST PUSH1 0x1 DUP2 EQ ISZERO SWAP1 DUP2 PUSH2 0x54A8 JUMPI JUMPDEST POP PUSH2 0x549F JUMPI PUSH1 0xA8 SHR PUSH1 0xFF AND PUSH1 0x7 DUP2 LT ISZERO PUSH2 0x53D JUMPI PUSH2 0x2710 SWAP2 PUSH2 0x5412 SWAP2 PUSH1 0x1E ADD SLOAD SWAP1 PUSH2 0x5268 JUMP JUMPDEST DIV SWAP1 DUP2 ISZERO PUSH2 0x5497 JUMPI PUSH2 0x5490 PUSH1 0x20 SWAP4 PUSH1 0x7 PUSH32 0x86583C8BE3288EC633D5A10AFA75407D4C785BFF5EDD40840C42E48D0EFDCFBB SWAP7 PUSH2 0x544E DUP7 DUP11 PUSH2 0x58A0 JUMP JUMPDEST ADD PUSH2 0x545A DUP6 DUP3 SLOAD PUSH2 0x4EF7 JUMP JUMPDEST SWAP1 SSTORE DUP7 DUP2 MSTORE PUSH1 0xC DUP6 MSTORE DUP3 DUP2 KECCAK256 DUP4 MLOAD SWAP2 PUSH2 0x5472 DUP4 PUSH2 0x4CE4 JUMP JUMPDEST PUSH1 0x4 DUP4 MSTORE DUP6 DUP8 DUP5 ADD MSTORE TIMESTAMP DUP6 DUP5 ADD MSTORE DUP10 PUSH1 0x60 DUP5 ADD MSTORE PUSH1 0x80 DUP4 ADD MSTORE PUSH2 0x51D2 JUMP JUMPDEST MLOAD SWAP1 DUP2 MSTORE LOG3 JUMP JUMPDEST POP POP POP POP POP POP JUMP JUMPDEST POP POP POP POP POP POP POP JUMP JUMPDEST PUSH1 0x2 SWAP2 POP PUSH2 0x54B5 DUP2 PUSH2 0x4C60 JUMP JUMPDEST EQ ISZERO CODESIZE PUSH2 0x53EC JUMP JUMPDEST POP POP POP POP POP JUMP JUMPDEST SWAP2 SWAP1 PUSH1 0x0 JUMPDEST PUSH1 0x1 DUP1 PUSH1 0xA0 SHL SUB DUP1 SWAP5 AND SWAP4 DUP5 PUSH1 0x0 MSTORE PUSH1 0x7 SWAP1 PUSH1 0x20 SWAP1 DUP3 DUP3 MSTORE PUSH1 0x2 SWAP2 PUSH1 0x40 SWAP2 DUP4 DUP4 PUSH1 0x0 KECCAK256 ADD SLOAD AND SWAP5 DUP6 ISZERO PUSH2 0x570A JUMPI PUSH2 0x54FF SWAP1 PUSH2 0x4F74 JUMP JUMPDEST SWAP8 PUSH1 0x14 SWAP1 DUP2 DUP11 GT PUSH2 0x56FE JUMPI DUP7 PUSH1 0x0 MSTORE DUP6 DUP4 MSTORE PUSH1 0xFF PUSH1 0x4 DUP1 DUP7 PUSH1 0x0 KECCAK256 ADD SLOAD SWAP3 DUP3 PUSH1 0xB0 SWAP5 DUP6 SHR AND SWAP4 PUSH2 0x552E DUP6 PUSH2 0x4C60 JUMP JUMPDEST DUP9 DUP5 PUSH1 0x1 DUP1 SWAP8 EQ SWAP3 DUP4 ISZERO PUSH2 0x56D7 JUMPI JUMPDEST POP POP POP PUSH2 0x5554 JUMPI JUMPDEST POP POP POP POP POP POP POP POP POP SWAP3 PUSH2 0x54C9 JUMP JUMPDEST PUSH1 0x0 MSTORE DUP8 DUP6 MSTORE DUP6 PUSH1 0x0 KECCAK256 ADD SLOAD PUSH1 0xA0 SHR AND SWAP1 PUSH2 0x556E DUP3 PUSH2 0x4C60 JUMP JUMPDEST DUP2 EQ SWAP5 PUSH1 0x0 DUP7 ISZERO PUSH2 0x56D2 JUMPI POP DUP9 JUMPDEST DUP9 PUSH1 0x0 MSTORE DUP8 DUP6 MSTORE PUSH2 0x5595 PUSH1 0xC DUP8 PUSH1 0x0 KECCAK256 ADD SWAP2 DUP3 SLOAD PUSH2 0x4EF7 JUMP JUMPDEST SWAP1 SSTORE PUSH2 0x55A0 DUP3 PUSH2 0x4C60 JUMP JUMPDEST DUP2 EQ SWAP1 PUSH1 0x0 DUP3 ISZERO PUSH2 0x56CD JUMPI POP DUP9 JUMPDEST DUP9 PUSH1 0x0 MSTORE DUP8 DUP6 MSTORE PUSH2 0x55C7 PUSH1 0xD DUP8 PUSH1 0x0 KECCAK256 ADD SWAP2 DUP3 SLOAD PUSH2 0x4EF7 JUMP JUMPDEST SWAP1 SSTORE PUSH2 0x55D2 DUP2 PUSH2 0x4C60 JUMP JUMPDEST PUSH1 0x0 DUP7 ISZERO PUSH2 0x56C8 JUMPI POP DUP9 JUMPDEST DUP9 PUSH1 0x0 MSTORE DUP8 DUP6 MSTORE PUSH2 0x55F6 PUSH1 0xE DUP8 PUSH1 0x0 KECCAK256 ADD SWAP2 DUP3 SLOAD PUSH2 0x4EF7 JUMP JUMPDEST SWAP1 SSTORE PUSH2 0x5601 DUP2 PUSH2 0x4C60 JUMP JUMPDEST PUSH1 0x0 DUP3 ISZERO PUSH2 0x56C3 JUMPI POP DUP9 JUMPDEST DUP9 PUSH1 0x0 MSTORE DUP8 DUP6 MSTORE PUSH2 0x5625 PUSH1 0xF DUP8 PUSH1 0x0 KECCAK256 ADD SWAP2 DUP3 SLOAD PUSH2 0x4EF7 JUMP JUMPDEST SWAP1 SSTORE PUSH2 0x5630 DUP12 PUSH2 0x5715 JUMP JUMPDEST SWAP7 SWAP1 SWAP7 PUSH2 0x563E JUMPI JUMPDEST DUP1 PUSH2 0x5545 JUMP JUMPDEST PUSH2 0x5647 DUP3 PUSH2 0x4C60 JUMP JUMPDEST ISZERO PUSH2 0x5686 JUMPI POP POP POP PUSH2 0x5669 SWAP3 SWAP2 PUSH2 0x5679 SWAP5 PUSH1 0x10 SWAP3 DUP8 PUSH1 0x0 MSTORE MSTORE PUSH1 0x0 KECCAK256 ADD PUSH2 0x4B9C JUMP JUMPDEST PUSH2 0x2EA5 DUP6 DUP4 SLOAD DUP4 PUSH1 0x3 SHL SHR PUSH2 0x4EF7 JUMP JUMPDEST CODESIZE DUP1 DUP1 DUP1 DUP1 DUP1 DUP1 DUP1 PUSH2 0x5638 JUMP JUMPDEST PUSH2 0x5694 SWAP1 SWAP6 SWAP5 SWAP3 SWAP4 SWAP6 PUSH2 0x4C60 JUMP JUMPDEST PUSH2 0x56A3 JUMPI JUMPDEST POP POP POP POP POP PUSH2 0x5679 JUMP JUMPDEST PUSH2 0x56B9 SWAP5 PUSH2 0x5669 SWAP5 DUP8 PUSH1 0x0 MSTORE MSTORE PUSH1 0x0 KECCAK256 ADD PUSH2 0x4B9C JUMP JUMPDEST CODESIZE DUP1 DUP1 DUP1 DUP1 PUSH2 0x5699 JUMP JUMPDEST PUSH2 0x560C JUMP JUMPDEST PUSH2 0x55DD JUMP JUMPDEST PUSH2 0x55AE JUMP JUMPDEST PUSH2 0x557C JUMP JUMPDEST SWAP1 SWAP2 SWAP3 POP DUP13 PUSH1 0x0 MSTORE DUP12 DUP10 MSTORE DUP5 DUP11 PUSH1 0x0 KECCAK256 ADD SLOAD SWAP1 SHR AND PUSH2 0x56F5 DUP2 PUSH2 0x4C60 JUMP JUMPDEST EQ DUP9 DUP5 CODESIZE PUSH2 0x553D JUMP JUMPDEST POP POP POP POP POP POP POP POP SWAP1 POP JUMP JUMPDEST POP POP POP POP POP POP POP SWAP1 POP JUMP JUMPDEST PUSH1 0x1 SWAP1 DUP2 DUP2 LT ISZERO DUP1 PUSH2 0x5797 JUMPI JUMPDEST PUSH2 0x5791 JUMPI PUSH1 0x4 DUP2 LT ISZERO DUP1 PUSH2 0x5786 JUMPI JUMPDEST PUSH2 0x5780 JUMPI PUSH1 0x7 DUP2 LT ISZERO DUP1 PUSH2 0x5775 JUMPI JUMPDEST PUSH2 0x576F JUMPI PUSH1 0xA DUP2 LT ISZERO SWAP1 DUP2 PUSH2 0x5763 JUMPI JUMPDEST POP PUSH2 0x575E JUMPI POP PUSH1 0x0 SWAP1 PUSH1 0x0 SWAP1 JUMP JUMPDEST PUSH1 0x3 SWAP2 JUMP JUMPDEST PUSH1 0x14 SWAP2 POP GT ISZERO CODESIZE PUSH2 0x5750 JUMP JUMPDEST POP PUSH1 0x2 SWAP2 JUMP JUMPDEST POP PUSH1 0x9 DUP2 GT ISZERO PUSH2 0x5740 JUMP JUMPDEST POP SWAP1 DUP2 SWAP1 JUMP JUMPDEST POP PUSH1 0x6 DUP2 GT ISZERO PUSH2 0x5731 JUMP JUMPDEST POP PUSH1 0x0 SWAP2 JUMP JUMPDEST POP PUSH1 0x3 DUP2 GT ISZERO PUSH2 0x5722 JUMP JUMPDEST ISZERO PUSH2 0x57A9 JUMPI JUMP JUMPDEST PUSH1 0x40 MLOAD PUSH3 0x461BCD PUSH1 0xE5 SHL DUP2 MSTORE PUSH1 0x20 PUSH1 0x4 DUP3 ADD MSTORE PUSH1 0x2 PUSH1 0x24 DUP3 ADD MSTORE PUSH2 0x4E41 PUSH1 0xF0 SHL PUSH1 0x44 DUP3 ADD MSTORE PUSH1 0x64 SWAP1 REVERT JUMPDEST PUSH1 0x7 DUP2 LT ISZERO PUSH2 0x4C6A JUMPI PUSH1 0x1 DUP2 SUB PUSH2 0x57F8 JUMPI POP PUSH1 0x1 LT ISZERO PUSH2 0x57F3 JUMPI JUMPDEST PUSH1 0x0 SWAP1 JUMP JUMPDEST PUSH1 0x64 SWAP1 JUMP JUMPDEST PUSH1 0x2 DUP2 SUB PUSH2 0x580E JUMPI POP PUSH1 0x3 LT ISZERO PUSH2 0x57F3 JUMPI PUSH1 0x0 SWAP1 JUMP JUMPDEST PUSH1 0x3 DUP2 SUB PUSH2 0x5837 JUMPI POP PUSH1 0x4 DUP2 GT ISZERO PUSH2 0x5831 JUMPI PUSH1 0x5 EQ PUSH2 0x582C JUMPI PUSH1 0x0 SWAP1 JUMP JUMPDEST PUSH1 0x32 SWAP1 JUMP JUMPDEST POP PUSH1 0x64 SWAP1 JUMP JUMPDEST PUSH1 0x4 DUP2 SUB PUSH2 0x5856 JUMPI POP PUSH1 0x5 DUP2 GT ISZERO PUSH2 0x5831 JUMPI PUSH1 0x9 LT ISZERO PUSH2 0x582C JUMPI PUSH1 0x0 SWAP1 JUMP JUMPDEST PUSH1 0x5 DUP2 SUB PUSH2 0x5874 JUMPI POP PUSH1 0x4 DUP2 GT ISZERO PUSH2 0x5831 JUMPI PUSH1 0xC LT PUSH2 0x57EE JUMPI PUSH1 0x32 SWAP1 JUMP JUMPDEST PUSH1 0x6 EQ PUSH2 0x5882 JUMPI JUMPDEST POP PUSH1 0x0 SWAP1 JUMP JUMPDEST PUSH1 0x5 DUP2 GT ISZERO PUSH2 0x5899 JUMPI PUSH1 0xF LT ISZERO PUSH2 0x582C JUMPI CODESIZE PUSH2 0x587C JUMP JUMPDEST POP PUSH2 0x1F4 SWAP1 JUMP JUMPDEST SWAP1 PUSH1 0x1 DUP1 PUSH1 0xA0 SHL SUB DUP3 AND PUSH1 0x0 MSTORE PUSH1 0x7 PUSH1 0x20 MSTORE PUSH1 0x40 PUSH1 0x0 KECCAK256 DUP2 ISZERO PUSH2 0x5969 JUMPI PUSH1 0xFF PUSH1 0x4 DUP3 ADD SLOAD PUSH1 0xA8 SHR AND PUSH1 0x7 DUP2 LT ISZERO PUSH2 0x4C6A JUMPI PUSH1 0x2C ADD SLOAD SWAP3 PUSH1 0x0 PUSH1 0xB DUP4 ADD SWAP5 DUP6 SLOAD SWAP1 DUP2 DUP2 GT PUSH2 0x5958 JUMPI JUMPDEST POP POP DUP1 ISZERO PUSH2 0x594C JUMPI DUP1 DUP5 GT PUSH2 0x5919 JUMPI POP POP SWAP1 PUSH1 0x5 PUSH2 0x5915 SWAP3 ADD PUSH2 0x590C DUP3 DUP3 SLOAD PUSH2 0x4EF7 JUMP JUMPDEST SWAP1 SSTORE DUP3 SLOAD PUSH2 0x4EF7 JUMP JUMPDEST SWAP1 SSTORE JUMP JUMPDEST DUP3 SWAP4 PUSH2 0x4DAC SWAP6 PUSH1 0x5 PUSH2 0x5946 SWAP5 SWAP6 ADD PUSH2 0x5932 DUP5 DUP3 SLOAD PUSH2 0x4EF7 JUMP JUMPDEST SWAP1 SSTORE PUSH2 0x593F DUP4 DUP3 SLOAD PUSH2 0x4EF7 JUMP JUMPDEST SWAP1 SSTORE PUSH2 0x4FA4 JUMP JUMPDEST SWAP2 PUSH2 0x596E JUMP JUMPDEST POP SWAP1 PUSH2 0x4DAC SWAP4 POP PUSH2 0x596E JUMP JUMPDEST PUSH2 0x5962 SWAP3 POP PUSH2 0x4FA4 JUMP JUMPDEST CODESIZE DUP1 PUSH2 0x58E8 JUMP JUMPDEST POP POP POP JUMP JUMPDEST SWAP1 PUSH1 0xFF PUSH1 0x2 SWAP2 PUSH1 0x4 DUP5 ADD SWAP1 DUP2 SLOAD PUSH1 0x1 DUP5 DUP3 PUSH1 0xB0 SHR AND PUSH2 0x598C DUP2 PUSH2 0x4C60 JUMP JUMPDEST EQ PUSH2 0x59BA JUMPI JUMPDEST POP POP SLOAD PUSH1 0xB0 SHR AND PUSH2 0x59A2 DUP2 PUSH2 0x4C60 JUMP JUMPDEST EQ PUSH2 0x59AB JUMPI POP POP JUMP JUMPDEST PUSH1 0x6 PUSH2 0x5915 SWAP2 ADD SWAP2 DUP3 SLOAD PUSH2 0x4EF7 JUMP JUMPDEST PUSH1 0xB0 DUP5 SWAP1 SHL NOT AND PUSH1 0x1 PUSH1 0xB1 SHL OR DUP3 SSTORE TIMESTAMP PUSH1 0x1B DUP7 ADD DUP2 SWAP1 SSTORE PUSH1 0x40 MLOAD SWAP1 DUP2 MSTORE PUSH1 0x1 PUSH1 0x1 PUSH1 0xA0 SHL SUB SWAP1 SWAP2 AND SWAP1 PUSH32 0x2BB92F1150248E7F78A267B3904EBD95F62A5225D70DCC813FB6906C3A646E98 SWAP1 PUSH1 0x20 SWAP1 LOG2 CODESIZE DUP1 PUSH2 0x5992 JUMP JUMPDEST PUSH1 0x40 MLOAD SWAP2 SWAP1 PUSH1 0x0 DUP4 JUMPDEST PUSH1 0x4 DUP3 LT PUSH2 0x5A2D JUMPI POP POP POP PUSH2 0x4DAC DUP3 PUSH2 0x4D15 JUMP JUMPDEST PUSH1 0x1 PUSH1 0x20 DUP2 SWAP3 DUP6 SLOAD DUP2 MSTORE ADD SWAP4 ADD SWAP2 ADD SWAP1 SWAP2 PUSH2 0x5A19 JUMP JUMPDEST SWAP1 PUSH1 0x4 DUP2 LT ISZERO PUSH2 0x4B6E JUMPI PUSH1 0x5 SHL ADD SWAP1 JUMP JUMPDEST PUSH1 0x1 PUSH1 0x1 PUSH1 0x40 SHL SUB DUP2 GT PUSH2 0x4CFF JUMPI PUSH1 0x5 SHL PUSH1 0x20 ADD SWAP1 JUMP JUMPDEST SWAP1 PUSH2 0x5A75 DUP3 PUSH2 0x5A54 JUMP JUMPDEST PUSH2 0x5A82 PUSH1 0x40 MLOAD SWAP2 DUP3 PUSH2 0x4D4B JUMP JUMPDEST DUP3 DUP2 MSTORE DUP1 SWAP3 PUSH2 0x5A93 PUSH1 0x1F NOT SWAP2 PUSH2 0x5A54 JUMP JUMPDEST ADD SWAP1 PUSH1 0x20 CALLDATASIZE SWAP2 ADD CALLDATACOPY JUMP JUMPDEST DUP1 MLOAD DUP3 LT ISZERO PUSH2 0x4B6E JUMPI PUSH1 0x20 SWAP2 PUSH1 0x5 SHL ADD ADD SWAP1 JUMP JUMPDEST SWAP3 SWAP1 PUSH1 0x1 DUP1 PUSH1 0xA0 SHL SUB DUP1 PUSH1 0x0 SWAP6 AND DUP6 MSTORE PUSH1 0xA PUSH1 0x20 MSTORE PUSH1 0x40 DUP6 KECCAK256 DUP1 SLOAD SWAP5 DUP6 DUP5 LT ISZERO PUSH2 0x5B42 JUMPI PUSH2 0x5ADF SWAP1 DUP5 PUSH2 0x4EF7 JUMP JUMPDEST DUP4 DUP7 DUP3 GT PUSH2 0x5B3A JUMPI JUMPDEST PUSH2 0x5AF1 SWAP2 PUSH2 0x4FA4 JUMP JUMPDEST SWAP3 PUSH2 0x5AFB DUP5 PUSH2 0x5A6B JUMP JUMPDEST SWAP7 JUMPDEST DUP5 DUP2 LT PUSH2 0x5B0B JUMPI POP POP POP POP POP JUMP JUMPDEST DUP1 DUP5 PUSH2 0x5B23 PUSH2 0x5B1D PUSH2 0x5B35 SWAP5 DUP7 PUSH2 0x4EF7 JUMP JUMPDEST DUP7 PUSH2 0x4B84 JUMP JUMPDEST SWAP1 SLOAD SWAP1 PUSH1 0x3 SHL SHR AND PUSH2 0x45F6 DUP3 DUP12 PUSH2 0x5A9D JUMP JUMPDEST PUSH2 0x5AFD JUMP JUMPDEST DUP7 SWAP2 POP PUSH2 0x5AE8 JUMP JUMPDEST POP POP POP POP SWAP1 SWAP2 PUSH1 0x40 MLOAD SWAP1 PUSH2 0x5B55 DUP3 PUSH2 0x4D30 JUMP JUMPDEST DUP1 DUP3 MSTORE CALLDATASIZE DUP2 CALLDATACOPY SWAP2 SWAP1 JUMP JUMPDEST PUSH1 0x1 PUSH1 0x1 PUSH1 0xA0 SHL SUB AND PUSH1 0x0 SWAP1 DUP2 MSTORE PUSH1 0xC PUSH1 0x20 MSTORE PUSH1 0x40 SWAP1 DUP2 SWAP1 KECCAK256 DUP1 SLOAD SWAP5 SWAP4 SWAP1 SWAP2 DUP6 DUP5 LT ISZERO PUSH2 0x5C88 JUMPI POP PUSH2 0x5B91 SWAP1 DUP4 PUSH2 0x4EF7 JUMP JUMPDEST DUP3 DUP6 DUP3 GT PUSH2 0x5C80 JUMPI JUMPDEST PUSH2 0x5BA3 SWAP2 PUSH2 0x4FA4 JUMP JUMPDEST SWAP2 PUSH2 0x5BAD DUP4 PUSH2 0x5A6B JUMP JUMPDEST SWAP5 PUSH2 0x5BB7 DUP5 PUSH2 0x5A6B JUMP JUMPDEST SWAP5 PUSH2 0x5BC1 DUP6 PUSH2 0x5A6B JUMP JUMPDEST SWAP5 PUSH2 0x5BCB DUP2 PUSH2 0x5A6B JUMP JUMPDEST SWAP5 PUSH2 0x5BD5 DUP3 PUSH2 0x5A6B JUMP JUMPDEST SWAP5 PUSH1 0x0 JUMPDEST DUP4 DUP2 LT PUSH2 0x5BE6 JUMPI POP POP POP POP JUMP JUMPDEST PUSH1 0x0 NOT DUP7 ADD DUP7 DUP2 GT PUSH2 0x4F04 JUMPI PUSH2 0x5C09 PUSH2 0x5C0F SWAP2 PUSH2 0x5C03 DUP5 DUP7 PUSH2 0x4EF7 JUMP JUMPDEST SWAP1 PUSH2 0x4FA4 JUMP JUMPDEST DUP5 PUSH2 0x51B6 JUMP JUMPDEST POP SWAP1 DUP12 PUSH2 0x5C21 DUP3 PUSH1 0xFF DUP6 SLOAD AND SWAP3 PUSH2 0x5A9D JUMP JUMPDEST PUSH1 0xC DUP3 LT ISZERO PUSH2 0x4C6A JUMPI PUSH2 0x5C7B SWAP4 PUSH1 0xFF SWAP3 PUSH1 0x3 SWAP3 MSTORE DUP14 PUSH2 0x5C45 DUP6 PUSH1 0x1 DUP5 ADD SLOAD SWAP3 PUSH2 0x5A9D JUMP JUMPDEST MSTORE PUSH1 0x2 DUP2 ADD SLOAD PUSH2 0x5C55 DUP6 DUP16 PUSH2 0x5A9D JUMP JUMPDEST MSTORE ADD SLOAD PUSH1 0x1 PUSH1 0x1 PUSH1 0xA0 SHL SUB DUP2 AND PUSH2 0x5C6C DUP5 DUP14 PUSH2 0x5A9D JUMP JUMPDEST MSTORE PUSH1 0xA0 SHR AND PUSH2 0x45F6 DUP3 DUP11 PUSH2 0x5A9D JUMP JUMPDEST PUSH2 0x5BD9 JUMP JUMPDEST DUP6 SWAP2 POP PUSH2 0x5B9A JUMP JUMPDEST SWAP3 POP POP POP DUP1 MLOAD PUSH2 0x5C97 DUP2 PUSH2 0x4D30 JUMP JUMPDEST PUSH1 0x0 DUP2 MSTORE DUP2 MLOAD SWAP4 PUSH2 0x5CA7 DUP6 PUSH2 0x4D30 JUMP JUMPDEST PUSH1 0x0 DUP6 MSTORE DUP3 MLOAD SWAP4 PUSH2 0x5CB7 DUP6 PUSH2 0x4D30 JUMP JUMPDEST PUSH1 0x0 DUP6 MSTORE DUP4 MLOAD SWAP4 PUSH2 0x5CC7 DUP6 PUSH2 0x4D30 JUMP JUMPDEST PUSH1 0x0 DUP6 MSTORE MLOAD SWAP3 PUSH2 0x5CD6 DUP5 PUSH2 0x4D30 JUMP JUMPDEST PUSH1 0x0 DUP5 MSTORE PUSH1 0x0 CALLDATASIZE DUP2 CALLDATACOPY SWAP6 SWAP5 SWAP4 SWAP3 SWAP2 SWAP1 JUMP JUMPDEST ISZERO PUSH2 0x5CEE JUMPI JUMP JUMPDEST PUSH1 0x40 MLOAD PUSH3 0x461BCD PUSH1 0xE5 SHL DUP2 MSTORE PUSH1 0x20 PUSH1 0x4 DUP3 ADD MSTORE PUSH1 0x2 PUSH1 0x24 DUP3 ADD MSTORE PUSH2 0x24AB PUSH1 0xF1 SHL PUSH1 0x44 DUP3 ADD MSTORE PUSH1 0x64 SWAP1 REVERT JUMPDEST PUSH1 0x40 SWAP2 SWAP5 SWAP4 SWAP3 PUSH2 0x5D2C DUP3 PUSH1 0x60 DUP2 ADD SWAP8 PUSH2 0x4C80 JUMP JUMPDEST PUSH1 0x20 DUP3 ADD MSTORE ADD MSTORE JUMP JUMPDEST PUSH1 0xB SLOAD DUP1 ISZERO PUSH2 0x587C JUMPI PUSH2 0x5D4B PUSH1 0xE SLOAD DUP1 SWAP3 PUSH2 0x4EF7 JUMP JUMPDEST PUSH1 0x0 NOT DUP2 ADD SWAP1 DUP2 GT PUSH2 0x4F04 JUMPI DUP2 ISZERO PUSH2 0x5D61 JUMPI DIV SWAP1 JUMP JUMPDEST PUSH4 0x4E487B71 PUSH1 0xE0 SHL PUSH1 0x0 MSTORE PUSH1 0x12 PUSH1 0x4 MSTORE PUSH1 0x24 PUSH1 0x0 REVERT INVALID 0xE2 0x2A CODECOPY 0xF8 PUSH3 0x558EB0 SHR 0x2A 0x26 0xEB CODESIZE 0xC7 0xD8 DUP5 0xB4 SWAP10 0x22 SAR SWAP11 MSIZE DUP10 0xF6 CALLDATACOPY MSTORE SWAP12 0xD3 0xE7 PUSH32 0xD6798BE0079C531659141344CD1FD0A4F28419497F9722A3DAAFE3B4186F6B64 JUMPI 0xE0 SELFBALANCE PUSH10 0xBC30C3E6F90ECFEF0F6E SELFBALANCE PUSH1 0xF6 PUSH0 0x2C 0xC4 0xAE PUSH13 0x67493463E3C9CAF3D2F863E99B PUSH24 0x9B17422D0DF92223018B32B4D1FA46E071723D6817E2486D STOP EXTCODESIZE 0xEC 0xC5 PUSH0 STOP LOG2 PUSH5 0x6970667358 0x22 SLT KECCAK256 0xE1 0xC0 PUSH2 0x96C EXTCODECOPY DIV 0xAE CALLDATALOAD 0xDB 0xE5 SWAP11 SUB 0xBD 0xB6 SAR GAS DUP6 0x2F PUSH6 0x424B64DF2E4B GASLIMIT PUSH3 0x734047 SLOAD PUSH5 0x736F6C6343 STOP ADDMOD EQ STOP CALLER "},"methodIdentifiers":{"BASIS_POINTS()":"e1f1c4a7","BTC_POOL_RATE()":"92446e30","GRACE_PERIOD_DURATION()":"bbc18f6f","INCOME_SPLIT_RATE()":"556415d9","MATCHING_OVERRIDE_RATE()":"fc4a36f6","MAX_USER_ID()":"ef2c5c50","MIN_USER_ID()":"ac6c264e","PRODUCT_WALLET_RATE()":"6e0881da","WITHDRAWAL_MATCH_POOL_RATE()":"7115bba7","activatePackage(uint8)":"6aa6c0ce","adminActivateUser(address,uint256,uint256,bool,uint8)":"6207f522","adminBinaryWallet()":"d117de03","allUsers(uint256)":"a2bdedf4","autoDistributeBinaryIncome(uint256)":"57f0140a","batchFlushGracePeriods(address[])":"ce0b2122","binaryBatchSize()":"4526b4aa","boardEntryCount(address)":"f00b0093","boardHandler()":"c9d484cf","btcPoolBalance(address)":"31e1f29b","claimBinaryIncome()":"2eee563e","dailyCapping(uint256)":"4286064e","directRates(uint256)":"5a1faeb9","directReferrals(address,uint256)":"05ad3935","enterBoardPool()":"e4093a66","feeRecipient()":"46904840","flushGracePeriod(address)":"d9f9f63f","getAddressByUserId(uint256)":"8225757b","getBinaryInfo(address)":"ece2bc23","getBinarySlabInfo(address)":"2bbf1a30","getBoardCurrentIndex(uint256)":"3ac272c2","getBoardMatrixInfo(uint256,uint256)":"d4a90286","getBoardPrice(uint256)":"47cd5191","getBoardQueueLength(uint256)":"eb63e1c2","getBtcPoolBalance(address)":"3d6bacf3","getContractBalance()":"6f9fb98a","getDirectReferrals(address)":"d2c8e0e5","getDirectReferralsPaginated(address,uint256,uint256)":"d9c842fd","getIncomeInfo(address)":"befbe97d","getMaxIncomeLimit(uint8)":"6d0364d7","getPackagePrice(uint8)":"e63619a5","getProfile(address)":"0f53a470","getTotalBatches()":"e561dddc","getTotalUsers()":"9be572f6","getUserByIndex(uint256)":"ff5d32fe","getUserIdByAddress(address)":"385399f9","getUserInfo(address)":"6386c1c7","getUserTransactionCount(address)":"d8f33840","getUserTransactionsPaginated(address,uint256,uint256)":"012685f4","isBinaryProcessor(address)":"2c2896b3","isFreeAccount(address)":"463cffe6","isRegistered(address)":"c3c5a547","logBoardEntry(address,uint256,uint256)":"ecdc5907","logBoardReward(address,uint256,uint256)":"d24af2b8","mToken()":"c3b6f939","matchingOverrideMaxLevels(uint256)":"85f8f11b","maxIncomeLimit(uint256)":"8d7b5690","owner()":"8da5cb5b","packagePrices(uint256)":"179bd5c8","pause()":"8456cb59","paused()":"5c975abb","paymentToken()":"3013ce29","productWallet()":"fc3c8a0c","reactivate(uint8)":"9726b9f2","recoverToken(address,address,uint256)":"a7229fd9","register(uint256,uint256,bool)":"c24be7fb","renounceOwnership()":"715018a6","repurchase()":"d58c6172","setAdminBinaryWallet(address)":"69e94f4d","setBinaryBatchSize(uint256)":"7feef9d6","setBinaryProcessor(address,bool)":"1915d956","setBoardHandler(address)":"e3ba9bda","setDailyCapping(uint8,uint256)":"1cdc545c","setFeeRecipient(address)":"e74b981b","setMToken(address)":"b882c4d8","setMaxIncomeLimit(uint8,uint256)":"92167de2","setPackagePrice(uint8,uint256)":"fdc65d6e","setProductWallet(address)":"9a688a99","setProfile(string,string,string,string)":"55509c8f","setWithdrawalFee(uint256)":"ac1e5025","setWithdrawalUsdtRate(uint256)":"4b695586","slabRates(uint256)":"0d57a79c","tokenDecimals()":"3b97e856","totalBinaryFlushed()":"1d64e593","transferOwnership(address)":"f2fde38b","unpause()":"3f4ba83a","updatePaymentToken(address,uint8)":"0327ef49","userIdTaken(uint256)":"0b6a9539","userIdToAddress(uint256)":"b1695201","users(address)":"a87430ba","withdraw(uint256)":"2e1a7d4d","withdrawContractFunds(address,uint256)":"2e1888b8","withdrawalFee()":"8bc7e8c4","withdrawalMatchMaxLevels(uint256)":"b33dd0c9","withdrawalUsdtRate()":"624a893d"}}}}}