{"contracts/MvaultContract.sol":{"MvaultContract":{"abi":[{"inputs":[{"internalType":"address","name":"_usdt","type":"address"},{"internalType":"address","name":"_mvaultToken","type":"address"}],"stateMutability":"nonpayable","type":"constructor"},{"inputs":[],"name":"AlreadyActive","type":"error"},{"inputs":[],"name":"AlreadyRegistered","type":"error"},{"inputs":[],"name":"BinaryAlreadyDistributed","type":"error"},{"inputs":[],"name":"BinaryNotDistributed","type":"error"},{"inputs":[],"name":"BoardHandlerNotSet","type":"error"},{"inputs":[],"name":"InsufficientBtcPool","type":"error"},{"inputs":[],"name":"InsufficientBtcPoolForBoard","type":"error"},{"inputs":[],"name":"InsufficientRebirthPool","type":"error"},{"inputs":[],"name":"InsufficientUsdtBalance","type":"error"},{"inputs":[],"name":"InsufficientVirtualBalance","type":"error"},{"inputs":[],"name":"InvalidSponsor","type":"error"},{"inputs":[],"name":"NoOpenBinarySlot","type":"error"},{"inputs":[],"name":"NotRegistered","type":"error"},{"inputs":[{"internalType":"address","name":"owner","type":"address"}],"name":"OwnableInvalidOwner","type":"error"},{"inputs":[{"internalType":"address","name":"account","type":"address"}],"name":"OwnableUnauthorizedAccount","type":"error"},{"inputs":[],"name":"PositionTaken","type":"error"},{"inputs":[],"name":"ReentrancyGuardReentrantCall","type":"error"},{"inputs":[],"name":"TransferFailed","type":"error"},{"inputs":[],"name":"ZeroAddress","type":"error"},{"inputs":[],"name":"ZeroAmount","type":"error"},{"anonymous":false,"inputs":[{"indexed":true,"internalType":"address","name":"user","type":"address"},{"indexed":false,"internalType":"uint256","name":"mvtMinted","type":"uint256"},{"indexed":false,"internalType":"uint256","name":"grossMvt","type":"uint256"},{"indexed":false,"internalType":"uint256","name":"levelAmt","type":"uint256"},{"indexed":false,"internalType":"uint256","name":"binaryAmt","type":"uint256"},{"indexed":false,"internalType":"uint256","name":"adminAmt","type":"uint256"}],"name":"Activated","type":"event"},{"anonymous":false,"inputs":[{"indexed":true,"internalType":"address","name":"to","type":"address"},{"indexed":false,"internalType":"uint256","name":"amount","type":"uint256"}],"name":"AdminWithdraw","type":"event"},{"anonymous":false,"inputs":[{"indexed":false,"internalType":"uint256","name":"totalPool","type":"uint256"},{"indexed":false,"internalType":"uint256","name":"binary70","type":"uint256"},{"indexed":false,"internalType":"uint256","name":"powerLeg30","type":"uint256"},{"indexed":false,"internalType":"uint256","name":"totalPairs","type":"uint256"}],"name":"BinaryIncomeDistributed","type":"event"},{"anonymous":false,"inputs":[{"indexed":true,"internalType":"address","name":"user","type":"address"},{"indexed":false,"internalType":"uint256","name":"newPairs","type":"uint256"},{"indexed":false,"internalType":"uint256","name":"amount","type":"uint256"}],"name":"BinaryIncomePaid","type":"event"},{"anonymous":false,"inputs":[{"indexed":true,"internalType":"address","name":"user","type":"address"},{"indexed":false,"internalType":"uint256","name":"boardLevel","type":"uint256"},{"indexed":false,"internalType":"uint256","name":"usdtDeducted","type":"uint256"}],"name":"BoardEntered","type":"event"},{"anonymous":false,"inputs":[{"indexed":true,"internalType":"address","name":"newHandler","type":"address"}],"name":"BoardHandlerUpdated","type":"event"},{"anonymous":false,"inputs":[{"indexed":true,"internalType":"address","name":"user","type":"address"},{"indexed":false,"internalType":"uint256","name":"usdtAmount","type":"uint256"},{"indexed":false,"internalType":"uint256","name":"boardLevel","type":"uint256"}],"name":"BoardRewardCredited","type":"event"},{"anonymous":false,"inputs":[{"indexed":true,"internalType":"address","name":"user","type":"address"},{"indexed":false,"internalType":"uint256","name":"amount","type":"uint256"}],"name":"BtcPoolCredited","type":"event"},{"anonymous":false,"inputs":[{"indexed":true,"internalType":"address","name":"user","type":"address"},{"indexed":false,"internalType":"uint256","name":"amount","type":"uint256"}],"name":"BtcPoolWithdrawn","type":"event"},{"anonymous":false,"inputs":[{"indexed":true,"internalType":"address","name":"to","type":"address"},{"indexed":true,"internalType":"address","name":"from","type":"address"},{"indexed":false,"internalType":"uint8","name":"level","type":"uint8"},{"indexed":false,"internalType":"uint256","name":"amount","type":"uint256"}],"name":"LevelIncomePaid","type":"event"},{"anonymous":false,"inputs":[{"indexed":true,"internalType":"address","name":"upline","type":"address"},{"indexed":false,"internalType":"uint8","name":"level","type":"uint8"},{"indexed":false,"internalType":"uint256","name":"amount","type":"uint256"}],"name":"LevelIncomeSkipped","type":"event"},{"anonymous":false,"inputs":[{"indexed":false,"internalType":"address","name":"newToken","type":"address"}],"name":"MvaultTokenUpdated","type":"event"},{"anonymous":false,"inputs":[{"indexed":true,"internalType":"address","name":"user","type":"address"},{"indexed":false,"internalType":"uint256","name":"mvtAmount","type":"uint256"},{"indexed":false,"internalType":"uint256","name":"usdtNet","type":"uint256"},{"indexed":false,"internalType":"uint256","name":"usdtToBtcPool","type":"uint256"},{"indexed":false,"internalType":"uint256","name":"usdtToIncome","type":"uint256"},{"indexed":false,"internalType":"uint256","name":"usdtToRebirth","type":"uint256"}],"name":"MvtSold","type":"event"},{"anonymous":false,"inputs":[{"indexed":true,"internalType":"address","name":"previousOwner","type":"address"},{"indexed":true,"internalType":"address","name":"newOwner","type":"address"}],"name":"OwnershipTransferred","type":"event"},{"anonymous":false,"inputs":[{"indexed":false,"internalType":"uint256","name":"totalPowerLeg30","type":"uint256"},{"indexed":false,"internalType":"uint256","name":"totalPowerLegs","type":"uint256"}],"name":"PowerLegDistributed","type":"event"},{"anonymous":false,"inputs":[{"indexed":true,"internalType":"address","name":"user","type":"address"},{"indexed":false,"internalType":"uint256","name":"powerLegPoints","type":"uint256"},{"indexed":false,"internalType":"uint256","name":"amount","type":"uint256"}],"name":"PowerLegIncomePaid","type":"event"},{"anonymous":false,"inputs":[{"indexed":true,"internalType":"address","name":"user","type":"address"}],"name":"ProfileUpdated","type":"event"},{"anonymous":false,"inputs":[{"indexed":true,"internalType":"address","name":"mainAccount","type":"address"},{"indexed":true,"internalType":"address","name":"subAccount","type":"address"},{"indexed":false,"internalType":"uint256","name":"rebirthIndex","type":"uint256"}],"name":"Reborn","type":"event"},{"anonymous":false,"inputs":[{"indexed":true,"internalType":"address","name":"user","type":"address"},{"indexed":true,"internalType":"address","name":"sponsor","type":"address"},{"indexed":true,"internalType":"address","name":"binaryParent","type":"address"},{"indexed":false,"internalType":"bool","name":"placeLeft","type":"bool"}],"name":"Registered","type":"event"},{"anonymous":false,"inputs":[{"indexed":true,"internalType":"address","name":"to","type":"address"},{"indexed":false,"internalType":"uint256","name":"amount","type":"uint256"}],"name":"ReserveWithdraw","type":"event"},{"anonymous":false,"inputs":[{"indexed":true,"internalType":"address","name":"to","type":"address"},{"indexed":true,"internalType":"address","name":"from","type":"address"},{"indexed":false,"internalType":"uint8","name":"level","type":"uint8"},{"indexed":false,"internalType":"uint256","name":"usdtAmount","type":"uint256"}],"name":"StakeLevelIncomePaid","type":"event"},{"anonymous":false,"inputs":[{"indexed":true,"internalType":"address","name":"user","type":"address"},{"indexed":false,"internalType":"uint256","name":"stakeIndex","type":"uint256"},{"indexed":false,"internalType":"uint256","name":"usdtAmount","type":"uint256"},{"indexed":false,"internalType":"uint256","name":"mvtMinted","type":"uint256"},{"indexed":false,"internalType":"bool","name":"isLocked","type":"bool"}],"name":"Staked","type":"event"},{"anonymous":false,"inputs":[{"indexed":true,"internalType":"address","name":"user","type":"address"},{"indexed":false,"internalType":"uint256","name":"stakeIndex","type":"uint256"},{"indexed":false,"internalType":"uint256","name":"mvtReturned","type":"uint256"},{"indexed":false,"internalType":"uint256","name":"usdtReceived","type":"uint256"}],"name":"Unstaked","type":"event"},{"anonymous":false,"inputs":[{"indexed":true,"internalType":"address","name":"user","type":"address"},{"indexed":false,"internalType":"uint256","name":"amount","type":"uint256"}],"name":"UsdtWithdrawn","type":"event"},{"inputs":[],"name":"ADMIN_ALLOC","outputs":[{"internalType":"uint256","name":"","type":"uint256"}],"stateMutability":"view","type":"function"},{"inputs":[],"name":"BINARY_ALLOC","outputs":[{"internalType":"uint256","name":"","type":"uint256"}],"stateMutability":"view","type":"function"},{"inputs":[],"name":"BTC_POOL_RATE","outputs":[{"internalType":"uint256","name":"","type":"uint256"}],"stateMutability":"view","type":"function"},{"inputs":[],"name":"INCOME_LIMIT","outputs":[{"internalType":"uint256","name":"","type":"uint256"}],"stateMutability":"view","type":"function"},{"inputs":[],"name":"LEVEL_ALLOC","outputs":[{"internalType":"uint256","name":"","type":"uint256"}],"stateMutability":"view","type":"function"},{"inputs":[],"name":"MIN_STAKE_USDT","outputs":[{"internalType":"uint256","name":"","type":"uint256"}],"stateMutability":"view","type":"function"},{"inputs":[],"name":"PACKAGE_PRICE","outputs":[{"internalType":"uint256","name":"","type":"uint256"}],"stateMutability":"view","type":"function"},{"inputs":[],"name":"activate","outputs":[],"stateMutability":"nonpayable","type":"function"},{"inputs":[],"name":"adminPool","outputs":[{"internalType":"uint256","name":"","type":"uint256"}],"stateMutability":"view","type":"function"},{"inputs":[{"internalType":"uint256","name":"","type":"uint256"}],"name":"allUsers","outputs":[{"internalType":"address","name":"","type":"address"}],"stateMutability":"view","type":"function"},{"inputs":[],"name":"binaryPool","outputs":[{"internalType":"uint256","name":"","type":"uint256"}],"stateMutability":"view","type":"function"},{"inputs":[{"internalType":"address","name":"","type":"address"}],"name":"boardEntryCount","outputs":[{"internalType":"uint256","name":"","type":"uint256"}],"stateMutability":"view","type":"function"},{"inputs":[],"name":"boardHandler","outputs":[{"internalType":"contract IMvaultBoardMatrix","name":"","type":"address"}],"stateMutability":"view","type":"function"},{"inputs":[{"internalType":"address","name":"_user","type":"address"}],"name":"canEnterBoard","outputs":[{"internalType":"bool","name":"eligible","type":"bool"},{"internalType":"uint256","name":"btcBalance","type":"uint256"},{"internalType":"uint256","name":"boardPrice","type":"uint256"}],"stateMutability":"view","type":"function"},{"inputs":[{"internalType":"address","name":"user","type":"address"}],"name":"canRebirth","outputs":[{"internalType":"bool","name":"eligible","type":"bool"},{"internalType":"uint256","name":"poolBalance","type":"uint256"}],"stateMutability":"view","type":"function"},{"inputs":[{"internalType":"address","name":"_user","type":"address"},{"internalType":"uint256","name":"_usdtAmount","type":"uint256"},{"internalType":"uint256","name":"_boardLevel","type":"uint256"}],"name":"creditBoardReward","outputs":[],"stateMutability":"nonpayable","type":"function"},{"inputs":[{"internalType":"uint256","name":"offset","type":"uint256"},{"internalType":"uint256","name":"limit","type":"uint256"}],"name":"distributeBinaryIncome","outputs":[],"stateMutability":"nonpayable","type":"function"},{"inputs":[{"internalType":"uint256","name":"offset","type":"uint256"},{"internalType":"uint256","name":"limit","type":"uint256"}],"name":"distributePowerLeg","outputs":[],"stateMutability":"nonpayable","type":"function"},{"inputs":[],"name":"enterBoardPool","outputs":[],"stateMutability":"nonpayable","type":"function"},{"inputs":[{"internalType":"address","name":"user","type":"address"}],"name":"getActiveStakes","outputs":[{"internalType":"uint256[]","name":"indices","type":"uint256[]"},{"internalType":"uint256[]","name":"mvtAmounts","type":"uint256[]"},{"internalType":"uint256[]","name":"usdtInvested","type":"uint256[]"},{"internalType":"uint256[]","name":"stakedAts","type":"uint256[]"},{"internalType":"bool[]","name":"isLocked","type":"bool[]"}],"stateMutability":"view","type":"function"},{"inputs":[],"name":"getAllUsersCount","outputs":[{"internalType":"uint256","name":"","type":"uint256"}],"stateMutability":"view","type":"function"},{"inputs":[{"internalType":"uint256","name":"_level","type":"uint256"}],"name":"getBoardCurrentIndex","outputs":[{"internalType":"uint256","name":"","type":"uint256"}],"stateMutability":"view","type":"function"},{"inputs":[{"internalType":"uint256","name":"_level","type":"uint256"},{"internalType":"uint256","name":"_index","type":"uint256"}],"name":"getBoardMatrixInfo","outputs":[{"internalType":"address","name":"owner","type":"address"},{"internalType":"uint256","name":"filledCount","type":"uint256"},{"internalType":"bool","name":"completed","type":"bool"}],"stateMutability":"view","type":"function"},{"inputs":[{"internalType":"uint256","name":"_level","type":"uint256"}],"name":"getBoardPrice","outputs":[{"internalType":"uint256","name":"","type":"uint256"}],"stateMutability":"view","type":"function"},{"inputs":[{"internalType":"uint256","name":"_level","type":"uint256"}],"name":"getBoardQueueLength","outputs":[{"internalType":"uint256","name":"","type":"uint256"}],"stateMutability":"view","type":"function"},{"inputs":[{"internalType":"address","name":"u","type":"address"}],"name":"getBtcPoolInfo","outputs":[{"internalType":"uint256","name":"btcPoolBalance","type":"uint256"},{"internalType":"uint256","name":"totalBtcEarned","type":"uint256"}],"stateMutability":"view","type":"function"},{"inputs":[{"internalType":"address","name":"u","type":"address"}],"name":"getCurrentBinaryPairs","outputs":[{"internalType":"uint256","name":"currentPairs","type":"uint256"},{"internalType":"uint256","name":"newPairs","type":"uint256"}],"stateMutability":"view","type":"function"},{"inputs":[],"name":"getMvtContractBalance","outputs":[{"internalType":"uint256","name":"","type":"uint256"}],"stateMutability":"view","type":"function"},{"inputs":[],"name":"getMvtPrice","outputs":[{"internalType":"uint256","name":"buyPrice","type":"uint256"},{"internalType":"uint256","name":"sellPrice","type":"uint256"}],"stateMutability":"view","type":"function"},{"inputs":[],"name":"getPoolBalances","outputs":[{"internalType":"uint256","name":"binary","type":"uint256"},{"internalType":"uint256","name":"reserve","type":"uint256"},{"internalType":"uint256","name":"admin","type":"uint256"}],"stateMutability":"view","type":"function"},{"inputs":[{"internalType":"address","name":"_user","type":"address"}],"name":"getProfile","outputs":[{"internalType":"string","name":"displayName","type":"string"},{"internalType":"string","name":"email","type":"string"},{"internalType":"string","name":"phone","type":"string"},{"internalType":"string","name":"country","type":"string"},{"internalType":"bool","name":"profileSet","type":"bool"}],"stateMutability":"view","type":"function"},{"inputs":[{"internalType":"address","name":"user","type":"address"},{"internalType":"uint256","name":"index","type":"uint256"}],"name":"getStake","outputs":[{"internalType":"uint256","name":"mvtAmount","type":"uint256"},{"internalType":"uint256","name":"usdtInvested","type":"uint256"},{"internalType":"uint256","name":"stakedAt","type":"uint256"},{"internalType":"bool","name":"isLocked","type":"bool"},{"internalType":"bool","name":"active","type":"bool"}],"stateMutability":"view","type":"function"},{"inputs":[{"internalType":"address","name":"user","type":"address"}],"name":"getStakeCount","outputs":[{"internalType":"uint256","name":"","type":"uint256"}],"stateMutability":"view","type":"function"},{"inputs":[{"internalType":"address","name":"_user","type":"address"}],"name":"getUserBoardStats","outputs":[{"internalType":"uint256","name":"entries","type":"uint256"},{"internalType":"uint256","name":"totalRewards","type":"uint256"}],"stateMutability":"view","type":"function"},{"inputs":[{"internalType":"address","name":"u","type":"address"}],"name":"getUserInfo","outputs":[{"internalType":"bool","name":"isRegistered","type":"bool"},{"internalType":"bool","name":"isActive","type":"bool"},{"internalType":"address","name":"sponsor","type":"address"},{"internalType":"uint256","name":"directCount","type":"uint256"},{"internalType":"address","name":"binaryParent","type":"address"},{"internalType":"bool","name":"placedLeft","type":"bool"},{"internalType":"address","name":"leftChild","type":"address"},{"internalType":"address","name":"rightChild","type":"address"},{"internalType":"uint256","name":"leftSubUsers","type":"uint256"},{"internalType":"uint256","name":"rightSubUsers","type":"uint256"},{"internalType":"uint256","name":"mvtBalance","type":"uint256"},{"internalType":"uint256","name":"totalReceived","type":"uint256"},{"internalType":"uint256","name":"totalSold","type":"uint256"},{"internalType":"uint256","name":"incomeLimit","type":"uint256"},{"internalType":"uint256","name":"usdtBalance","type":"uint256"},{"internalType":"uint256","name":"rebirthPool","type":"uint256"},{"internalType":"uint256","name":"btcPoolBalance","type":"uint256"},{"internalType":"uint256","name":"powerLegPoints","type":"uint256"},{"internalType":"uint256","name":"matchedPairs","type":"uint256"},{"internalType":"address","name":"mainAccount","type":"address"},{"internalType":"uint256","name":"rebirthCount","type":"uint256"},{"internalType":"uint256","name":"joinedAt","type":"uint256"}],"stateMutability":"view","type":"function"},{"inputs":[],"name":"mvaultToken","outputs":[{"internalType":"contract IMvaultToken","name":"","type":"address"}],"stateMutability":"view","type":"function"},{"inputs":[],"name":"owner","outputs":[{"internalType":"address","name":"","type":"address"}],"stateMutability":"view","type":"function"},{"inputs":[{"internalType":"address","name":"subAccount","type":"address"},{"internalType":"bool","name":"placeLeft","type":"bool"}],"name":"rebirth","outputs":[],"stateMutability":"nonpayable","type":"function"},{"inputs":[{"internalType":"address","name":"sponsor","type":"address"},{"internalType":"address","name":"binaryParent","type":"address"},{"internalType":"bool","name":"placeLeft","type":"bool"}],"name":"register","outputs":[],"stateMutability":"nonpayable","type":"function"},{"inputs":[],"name":"renounceOwnership","outputs":[],"stateMutability":"nonpayable","type":"function"},{"inputs":[],"name":"reservePool","outputs":[{"internalType":"uint256","name":"","type":"uint256"}],"stateMutability":"view","type":"function"},{"inputs":[{"internalType":"uint256","name":"amount","type":"uint256"}],"name":"sellMvt","outputs":[],"stateMutability":"nonpayable","type":"function"},{"inputs":[{"internalType":"address","name":"_boardHandler","type":"address"}],"name":"setBoardHandler","outputs":[],"stateMutability":"nonpayable","type":"function"},{"inputs":[{"internalType":"address","name":"_mvaultToken","type":"address"}],"name":"setMvaultToken","outputs":[],"stateMutability":"nonpayable","type":"function"},{"inputs":[{"internalType":"string","name":"_displayName","type":"string"},{"internalType":"string","name":"_email","type":"string"},{"internalType":"string","name":"_phone","type":"string"},{"internalType":"string","name":"_country","type":"string"}],"name":"setProfile","outputs":[],"stateMutability":"nonpayable","type":"function"},{"inputs":[{"internalType":"uint256","name":"usdtAmount","type":"uint256"},{"internalType":"bool","name":"isLocked","type":"bool"}],"name":"stake","outputs":[],"stateMutability":"nonpayable","type":"function"},{"inputs":[{"internalType":"address","name":"","type":"address"}],"name":"totalBoardRewardsEarned","outputs":[{"internalType":"uint256","name":"","type":"uint256"}],"stateMutability":"view","type":"function"},{"inputs":[],"name":"totalUsers","outputs":[{"internalType":"uint256","name":"","type":"uint256"}],"stateMutability":"view","type":"function"},{"inputs":[{"internalType":"address","name":"newOwner","type":"address"}],"name":"transferOwnership","outputs":[],"stateMutability":"nonpayable","type":"function"},{"inputs":[{"internalType":"uint256","name":"stakeIndex","type":"uint256"}],"name":"unstake","outputs":[],"stateMutability":"nonpayable","type":"function"},{"inputs":[],"name":"usdtToken","outputs":[{"internalType":"contract IERC20","name":"","type":"address"}],"stateMutability":"view","type":"function"},{"inputs":[{"internalType":"address","name":"","type":"address"}],"name":"users","outputs":[{"internalType":"bool","name":"isRegistered","type":"bool"},{"internalType":"bool","name":"isActive","type":"bool"},{"internalType":"address","name":"sponsor","type":"address"},{"internalType":"uint256","name":"directCount","type":"uint256"},{"internalType":"address","name":"binaryParent","type":"address"},{"internalType":"bool","name":"placedLeft","type":"bool"},{"internalType":"address","name":"leftChild","type":"address"},{"internalType":"address","name":"rightChild","type":"address"},{"internalType":"uint256","name":"leftSubUsers","type":"uint256"},{"internalType":"uint256","name":"rightSubUsers","type":"uint256"},{"internalType":"uint256","name":"matchedPairs","type":"uint256"},{"internalType":"uint256","name":"mvtBalance","type":"uint256"},{"internalType":"uint256","name":"totalReceived","type":"uint256"},{"internalType":"uint256","name":"totalSold","type":"uint256"},{"internalType":"uint256","name":"incomeLimit","type":"uint256"},{"internalType":"uint256","name":"usdtBalance","type":"uint256"},{"internalType":"uint256","name":"rebirthPool","type":"uint256"},{"internalType":"uint256","name":"totalUsdtEarned","type":"uint256"},{"internalType":"uint256","name":"btcPoolBalance","type":"uint256"},{"internalType":"uint256","name":"totalBtcEarned","type":"uint256"},{"internalType":"uint256","name":"powerLegPoints","type":"uint256"},{"internalType":"address","name":"mainAccount","type":"address"},{"internalType":"uint256","name":"rebirthCount","type":"uint256"},{"internalType":"uint256","name":"joinedAt","type":"uint256"},{"internalType":"string","name":"displayName","type":"string"},{"internalType":"string","name":"email","type":"string"},{"internalType":"string","name":"phone","type":"string"},{"internalType":"string","name":"country","type":"string"},{"internalType":"bool","name":"profileSet","type":"bool"}],"stateMutability":"view","type":"function"},{"inputs":[{"internalType":"address","name":"to","type":"address"},{"internalType":"uint256","name":"amount","type":"uint256"}],"name":"withdrawAdminPool","outputs":[],"stateMutability":"nonpayable","type":"function"},{"inputs":[{"internalType":"uint256","name":"amount","type":"uint256"}],"name":"withdrawBtcPool","outputs":[],"stateMutability":"nonpayable","type":"function"},{"inputs":[{"internalType":"address","name":"to","type":"address"},{"internalType":"uint256","name":"amount","type":"uint256"}],"name":"withdrawReservePool","outputs":[],"stateMutability":"nonpayable","type":"function"},{"inputs":[{"internalType":"uint256","name":"amount","type":"uint256"}],"name":"withdrawUsdt","outputs":[],"stateMutability":"nonpayable","type":"function"}],"evm":{"bytecode":{"linkReferences":{},"object":"60a0346200017c57601f62004fb738819003918201601f19168301916001600160401b03831184841017620001815780849260409485528339810103126200017c576200005a6020620000528362000197565b920162000197565b90331562000163576000549160018060a01b03199233848216176000556040519060018060a01b03938491823391167f8be0079c531659141344cd1fd0a4f28419497f9722a3daafe3b4186f6b6457e0600080a360017f9b779b17422d0df92223018b32b4d1fa46e071723d6817e2486d003becc55f005516908115801562000158575b62000149575060805216906001541617600155604051614e0a9081620001ad823960805181818161074e01528181610a9d01528181610db001528181610f060152818161115a015281816118db0152818161257201528181612edf0152818161388c0152613eba0152f35b63d92e233d60e01b8152600490fd5b5083831615620000de565b604051631e4fbdf760e01b815260006004820152602490fd5b600080fd5b634e487b7160e01b600052604160045260246000fd5b51906001600160a01b03821682036200017c5756fe61032080604052600436101561001457600080fd5b600090813560e01c9081630266f0441461398857508063039ccc261461396457806303c3ecb71461391e5780630f15f4c0146138225780630f53a470146137625780631747e0b0146135025780631ce5e894146134905780631f6259d5146134675780632335821b1461342e5780632808bc8d1461336a5780632d641f081461332d5780632e17de7814612e0a57806338abfc4114612dec5780633ac272c214612dcd57806344e374d514610d2257806347cd519114612dae57806352375bb114612d8057806355509c8f14612800578063634f627e146124ec5780636386c1c71461232157806368ddb2b514612249578063715018a6146122015780637753784414610d225780637f1b4064146121e35780638431fdd7146121bf5780638a8f042914611f7a5780638da5cb5b14611f5357806392446e3014611f3757806394915dd014611c585780639499a35114611c1f578063a2bdedf414611bdb578063a87430ba1461190a578063a98ad46c146118c5578063aa33f5d514611553578063aa3937571461152f578063abe50f1914610e75578063b58e027814610d45578063b86a1fb214610d27578063be648bdb14610d22578063bff1f9e114610d04578063c9d484cf14610cdb578063ce8292f514610c47578063cf57ee6914610c0e578063cfd4766314610b7f578063d3635a0214610a32578063d4a9028614610960578063e3ba9bda146108f6578063e4093a6614610690578063e51cb53014610642578063eb63e1c21461061b578063ec50324a1461051c578063f00b0093146104e3578063f0b7b9dc146103c1578063f24c536a14610348578063f2fde38b146102d25763fb72ca351461028a57600080fd5b346102cf5760203660031901126102cf576040906001600160a01b036102ae6139a4565b168152600b602052818082205491600c602052205482519182526020820152f35b80fd5b50346102cf5760203660031901126102cf576102ec6139a4565b6102f4613c14565b6001600160a01b0390811690811561032f576000548260018060a01b031982161760005516600080516020614d55833981519152600080a380f35b604051631e4fbdf760e01b815260048101849052602490fd5b50346102cf5760203660031901126102cf576040906001600160a01b0361036d6139a4565b1681526003602052818120906007600583015460068401548082106000146103b95750925b0154808311156103b3576103a7915082613c79565b82519182526020820152f35b506103a7565b905092610392565b50346102cf5760603660031901126102cf576103db6139a4565b602435906103e7613cd3565b6002546001600160a01b039190821633036104aa577f2393acb59b41dd645f68fe97bab0deba2a21b99efc69761e9b2762f11bbbe79d91604091169261042e841515613d03565b610439811515613d03565b8385526003602052600c82862001610452828254613d34565b90558385526003602052600e8286200161046d828254613d34565b9055838552600c602052818520610485828254613d34565b905581519081526044356020820152a26001600080516020614d958339815191525580f35b60405162461bcd60e51b81526020600482015260116024820152702737ba103137b0b932103430b7323632b960791b6044820152606490fd5b50346102cf5760203660031901126102cf576020906040906001600160a01b0361050b6139a4565b168152600b83522054604051908152f35b50346102cf5760403660031901126102cf576105366139a4565b60243590610542613c14565b6001600160a01b0316908115610609576007548181106105cd578161058a7f0529afc4538720fe0b3eadc40486369ab962002d72fead1387b300c66073e7bf93602093613c79565b60075583855260038252600860408620016105a6828254613d34565b905583855260038252600960408620016105c1828254613d34565b9055604051908152a280f35b60405162461bcd60e51b8152602060048201526014602482015273115e18d959591cc81c995cd95c9d99481c1bdbdb60621b6044820152606490fd5b60405163d92e233d60e01b8152600490fd5b50346102cf5760203660031901126102cf57602061063a600435614be5565b604051908152f35b50346102cf5760203660031901126102cf57604090600d9082906001600160a01b0361066c6139a4565b168152600360205220015481519068070c1cc73b00c8000081101582526020820152f35b50346102cf57806003193601126102cf576106a9613cd3565b6002546001600160a01b039081169081156108e457602490338452602092600384528360408620916106e160ff845460081c16613c40565b6040516347cd519160e01b81526001600482015294859182905afa9283156108925785936108af575b50600f01805483811061089d578361072191613c79565b905561074883838360025416604051938492839263a9059cbb60e01b845260048401613ca9565b038188867f0000000000000000000000000000000000000000000000000000000000000000165af1908115610892578591610859575b5015610847578390338252600b84526040822061079b8154613cc4565b905560025416803b156108435781809160446040518094819363686a38bd60e01b8352336004840152600160248401525af1801561083857610820575b505060405191600183528201527f4e755dd64e53a9f7a5882e2e32eb64718c2273de11e017bd47129b9fe2716d7c60403392a26001600080516020614d958339815191525580f35b61082990613b38565b6108345782386107d8565b8280fd5b6040513d84823e3d90fd5b5080fd5b6040516312171d8360e31b8152600490fd5b90508381813d831161088b575b6108708183613b4b565b810103126108875761088190613c9c565b3861077e565b8480fd5b503d610866565b6040513d87823e3d90fd5b604051630856d68760e11b8152600490fd5b9092508381813d83116108dd575b6108c78183613b4b565b810103126108d8575191600f61070a565b600080fd5b503d6108bd565b60405163632100f760e11b8152600490fd5b50346102cf5760203660031901126102cf576109106139a4565b610918613c14565b6001600160a01b0316801561060957600280546001600160a01b031916821790557f49424f87d81e4374ee3e8d1cf7b880966981a3cf6a7ac1d7a66c13d91756fccc8280a280f35b50346102cf5761096f36613a2e565b90606060018060a01b039260448460025416936040519485938492636a54814360e11b8452600484015260248301525afa908115610a27578392849185936109cc575b506060945060405193168352602083015215156040820152f35b93509150506060823d8211610a1f575b816109e960609383613b4b565b810103126108345781518181168103610a1b5760609350610a11604060208501519401613c9c565b90929091386109b2565b8380fd5b3d91506109dc565b6040513d85823e3d90fd5b50346102cf576020806003193601126108435760043590610a51613cd3565b8115610b6d5733835260038152600c60408420018054838110610b5b5783610a7891613c79565b905560405163a9059cbb60e01b8152818180610a98863360048401613ca9565b0381877f00000000000000000000000000000000000000000000000000000000000000006001600160a01b03165af1908115610b50578491610b1b575b5015610847577fbdd3f02d2a57fb53c1156f98470b61cb60712d485c27c36a49b1263dabcde201906040519283523392a26001600080516020614d958339815191525580f35b90508181813d8311610b49575b610b328183613b4b565b81010312610a1b57610b4390613c9c565b38610ad5565b503d610b28565b6040513d86823e3d90fd5b60405163b55c1bad60e01b8152600490fd5b604051631f2a200560e01b8152600490fd5b50346102cf5760403660031901126102cf57610bd060a0916040610ba16139a4565b9160243592600180871b0316808252600d602052610bc3838320548510614b26565b8152600d60205220614b0a565b5060ff8154916001810154906003600282015491015491604051948552602085015260408401528181161515606084015260081c1615156080820152f35b50346102cf5760203660031901126102cf576020906040906001600160a01b03610c366139a4565b168152600d83522054604051908152f35b50346102cf57806003193601126102cf576001546040516370a0823160e01b81523060048201529190602090839060249082906001600160a01b03165afa908115610ccf5790610c9d575b602090604051908152f35b506020813d8211610cc7575b81610cb660209383613b4b565b810103126108d85760209051610c92565b3d9150610ca9565b604051903d90823e3d90fd5b50346102cf57806003193601126102cf576002546040516001600160a01b039091168152602090f35b50346102cf57806003193601126102cf576020600554604051908152f35b613a44565b50346102cf57806003193601126102cf576020600854604051908152f35b50346102cf576020806003193601126108435760043590610d64613cd3565b8115610b6d5733835260038152600f60408420018054838110610e635783610d8b91613c79565b905560405163a9059cbb60e01b8152818180610dab863360048401613ca9565b0381877f00000000000000000000000000000000000000000000000000000000000000006001600160a01b03165af1908115610b50578491610e2e575b5015610847577f12701e4764b73009ab9826933c421483e4280410091fcc760515e0fa99fa766b906040519283523392a26001600080516020614d958339815191525580f35b90508181813d8311610e5c575b610e458183613b4b565b81010312610a1b57610e5690613c9c565b38610de8565b503d610e3b565b604051636dae861760e11b8152600490fd5b50346102cf5760403660031901126102cf57610e8f613aa3565b90610e98613cd3565b6802b5e3af16b1880000600435106114f6573381526003602052610ec260ff604083205416614a79565b338152600360205260ff604082205460081c16156114c1576040516323b872dd60e01b815233600480830191909152306024830152356044820152602081606481857f00000000000000000000000000000000000000000000000000000000000000006001600160a01b03165af18015610838578290611486575b610f479150614ab6565b60405190610f5482613b1d565b600a8252600260208301526001604083015260016060830152600160808301523381526003602052604081205460018060a01b039060101c168182915b60ff831660058110156110e9576064610fb960ff610faf848a614af9565b5116600435613de0565b049081156110c2576001600160a01b03831661100b5750610fdc90600854613d34565b6008555b6001600160a01b0390811684526003602052604084205460101c169161100590614333565b91610f91565b6001600160a01b0383168652600360205260408620805460081c60ff1661104257505061103a90600854613d34565b600855610fe0565b61105e9194600c849201611057838254613d34565b9055613d34565b9260ff60018201116110ae577fc8c0cc32a736135fa3c2a3c467849cd282797396bc67d2d5326f7e161e601c1d604051806110a633956001808060a01b038916960183614344565b0390a3610fe0565b634e487b7160e01b86526011600452602486fd5b50506001600160a01b0390811684526003602052604084205460101c169161100590614333565b848784600f600435026004358104600f146004351517156114725790611116606461112593049182613c79565b8061145d575b50600435613c79565b60015460405163095ea7b360e01b815290602090829081906111559086906001600160a01b031660048401613ca9565b0381877f00000000000000000000000000000000000000000000000000000000000000006001600160a01b03165af18015610b5057611424575b506001546040516370a0823160e01b81523060048201529184916001600160a01b0316602084602481845afa938415610a275783946113ed575b50803b1561083457604051634e538d9360e11b815291839183918290849082906111f7903060048401613ca9565b03925af18015610838576113d9575b50506001546040516370a0823160e01b81523060048201529190602090839060249082906001600160a01b03165afa8015610b505784906113a5575b61124c9250613c79565b90811561137057338352600d60205260408320918254926040519061127082613b1d565b8282526004356020830152426040830152831515606083015260016080830152600160401b85101561135c57846112ac91600182018155614b0a565b611348576003908251815560208301516001820155604083015160028201550190606081015115159060ff61ff0060808554930151151560081b1692169061ffff19161717905560405192835260043560208401526040830152151560608201527f830141583677d950fe61a27b93001edff66b597c666b2c90f5fb6e79a4befd0e60803392a26001600080516020614d958339815191525580f35b634e487b7160e01b86526004869052602486fd5b634e487b7160e01b86526041600452602486fd5b60405162461bcd60e51b815260206004820152600d60248201526c139bc8135595081b5a5b9d1959609a1b6044820152606490fd5b506020823d6020116113d1575b816113bf60209383613b4b565b810103126108d85761124c9151611242565b3d91506113b2565b6113e290613b38565b610834578284611206565b925092506020823d60201161141c575b8161140a60209383613b4b565b810103126108d85784915192866111c9565b3d91506113fd565b6020813d602011611455575b8161143d60209383613b4b565b81010312610a1b5761144e90613c9c565b508361118f565b3d9150611430565b61146990600854613d34565b6008558461111c565b634e487b7160e01b84526011600452602484fd5b506020813d6020116114b9575b816114a060209383613b4b565b81010312610843576114b4610f4791613c9c565b610f3d565b3d9150611493565b60405162461bcd60e51b815260206004820152600d60248201526c139bdd081858dd1a5d985d1959609a1b6044820152606490fd5b60405162461bcd60e51b815260206004820152601160248201527042656c6f7720243530206d696e696d756d60781b6044820152606490fd5b50346102cf57806003193601126102cf5760206040516815245655b1025800008152f35b50346102cf5760603660031901126102cf5761156d6139a4565b6024356001600160a01b03811690036108d8576044351515604435036108d857338252600360205260ff6040832054166118b35760055461169a57336000908152600360205260409020805461ff01600160b01b03191660011781556002810180546001600160a81b03191690556012810180546001600160a01b031916905542601490910155600454600160401b811015611684578060016116139201600455613ab2565b81546001600160a01b0360039290921b91821b19163390911b17905560055461163b90613cc4565b6005555b604051604435151581526001600160a01b03602435811692169033907f34ff37874d7443037a85c6f390fe14f2ae3e8767355de0e63891ad4367c2753990602090a480f35b634e487b7160e01b600052604160045260246000fd5b6001600160a01b0381168083526003602052604083205460ff16156118a1576024356001600160a01b0316151580611880575b1561187a576024355b60443580611857575b611822576044351580611834575b61182257336000908152600360205260409020805461ff01600160b01b031916601085901b62010000600160b01b03161760011781556002810180546001600160a81b0319166001600160a01b03909316928317604435151560a01b60ff60a01b161790556012810180546001600160a01b031990811690915542601490920191909155600454909190600160401b811015611684578060016117939201600455613ab2565b81546001600160a01b0360039290921b91821b19163390911b1790556005546117bb90613cc4565b600555604435156118065784526003602052600360408520019033908254161790555b82526003602052600160408320016117f68154613cc4565b905561180133613d41565b61163f565b84526003602052600460408520019033908254161790556117de565b60405163d5dd5c3d60e01b8152600490fd5b506001600160a01b038181168552600360205260408520600401541615156116ed565b506001600160a01b038181168552600360208190526040862001541615156116df565b816116d6565b506024356001600160a01b031683526003602052604083205460ff166116cd565b604051632f212e0d60e11b8152600490fd5b604051630ea075bf60e21b8152600490fd5b50346102cf57806003193601126102cf576040517f00000000000000000000000000000000000000000000000000000000000000006001600160a01b03168152602090f35b50346102cf5760203660031901126102cf576040906001600160a01b0361192f6139a4565b16815260036020522080610140528080808080808080808080806119f16015600f600e600d600c600b600a600960086007600660058d549d60018101546101c05260028101546102c05260018060a01b0360038201541660a052600460018060a01b03910154169e01549e01549e01549e01549e01549e01549e01549e01549e01549e01549e01549e601081015460e05260118101546101805260018060a01b036012820154166101a052601381015461020052601481015460c05201613b6e565b61030052611a0460166101405101613b6e565b61024052611a1760176101405101613b6e565b61028052611a2a60186101405101613b6e565b6101005260ff60196101405101541661026052604051806101205260ff82161515905260ff8160081c161515602061012051015260018060a01b039060101c1660406101205101526101c051606061012051015260018060a01b036102c05116608061012051015260ff6102c05160a01c16151560a061012051015260a05160c061012051015260e0610120510152610100610120510152610120805101526101406101205101526101606101205101526101806101205101526101a06101205101526101c06101205101526101e061012051015261020061012051015261022061012051015261024061012051015260e051610260610120510152610180516102806101205101526101a0516102a0610120510152610200516102c061012051015260c0516102e0610120510152611bc2611bac611b96611b806103a0806103006101205101526101205101610300516139ba565b61012051610320818303910152610240516139ba565b61012051610340818303910152610280516139ba565b61012051610360818303910152610100516139ba565b6102605115156103806101205101526101205180910390f35b50346102cf5760203660031901126102cf57600435906004548210156102cf576020611c0683613ab2565b905460405160039290921b1c6001600160a01b03168152f35b50346102cf5760203660031901126102cf576060611c43611c3e6139a4565b614c69565b90604051921515835260208301526040820152f35b50346102cf5760403660031901126102cf57611c726139a4565b611c7a613aa3565b90611c83613cd3565b6001600160a01b0381811692908315610609573385526003926020938085526040872091825491611cb960ff8460081c16613c40565b600d840180549068070c1cc73b00c80000808310611f25578a8c52838a5260ff60408d205416611ee05768070c1cc73b00c7ffff198301928311611ecc57808310611ec157611d09908093613c79565b9055600c8501611d1a828254613d34565b9055611d2b600e8601918254613d34565b90556815245655b102580000600b850155611d4c858460101c1696336144e6565b60008a8152838a5260409020805461ff01600160b01b03191662010000600160b01b039096169590951760011785556002850180546001600160a81b03191692881692831782151560a01b60ff60a01b161790556012850180546001600160a01b0319908116331790915542601490960195909555600454909790949091600160401b861015611684577f30016ed357540281a6cff6143637e72b48e105d85d15df66b0aaffbd23790240986013988c611e0f896001611e5d9b01600455613ab2565b9092835491891b92831b921b1916179055611e2b600554613cc4565b60055515611ea8578b52828952898360408d2001918254161790555b80611e8a575b5050611e5881613d41565b613e37565b0191611e698354613cc4565b8093556040519283523392a36001600080516020614d958339815191525580f35b8952865260016040892001611e9f8154613cc4565b90553880611e4d565b8b5282895289600460408d200191825416179055611e47565b50611d098280613c79565b634e487b7160e01b8c52601160045260248cfd5b60405162461bcd60e51b8152600481018b9052601e60248201527f5375622d6163636f756e7420616c7265616479207265676973746572656400006044820152606490fd5b6040516307db32bd60e31b8152600490fd5b50346102cf57806003193601126102cf576020604051600a8152f35b50346102cf57806003193601126102cf57546040516001600160a01b039091168152602090f35b50346102cf57611f8936613a2e565b611f91613c14565b611f99613cd3565b60ff600a5416156121ad57611fae9082613d34565b6004548082116121a5575b508290825b81811061216557506009908154938315158061215c575b1561214457805b8281106120815750908592915b81811061204357837f7f4a5b69bea14a6fc05326671a02e90d4a88855c83a18529c260057b1bf61a856040888884885560ff19600a5416600a5582519182526020820152a16001600080516020614d958339815191525580f35b6120789192935061205381613ab2565b9054600391821b1c6001600160a01b0316885260205260408720601101879055613cc4565b90859291611fe9565b80868861209061213294613ab2565b9054600391821b1c6001600160a01b031680835260208281526040842060110154919492908a8c8415612137577fb05abf391bcc5d117d31727729f0da5b0e3eb5f91a478372995efa128696c406966120f6604097926120f1888a95613de0565b613df3565b9489825280855260088383200161210e878254613d34565b905589825284522001612122838254613d34565b90558351928352820152a2613cc4565b611fdc565b5050505050505050613cc4565b61215085600854613d34565b60085590859291611fe9565b50841515611fd5565b9161219a6121a09161217685613ab2565b9054600391821b1c6001600160a01b03168852602052604087206011015490613d34565b92613cc4565b611fbe565b905038611fb9565b60405163418826bf60e11b8152600490fd5b50346102cf57806003193601126102cf5760206040516802b5e3af16b18800008152f35b50346102cf57806003193601126102cf576020600654604051908152f35b50346102cf57806003193601126102cf5761221a613c14565b600080546001600160a01b0319811682556001600160a01b0316600080516020614d558339815191528280a380f35b50346102cf57806003193601126102cf57600154604051623144bd60e31b81526001600160a01b039091169160208083600481875afa9283156108385782936122f0575b5080600494604051958680926310f4cba760e21b82525afa918215610ccf57916122c0575b604080945051928352820152f35b80915083813d83116122e9575b6122d78183613b4b565b810103126108d85760409251906122b2565b503d6122cd565b9392508084813d831161231a575b6123088183613b4b565b810103126108d857925191928061228d565b503d6122fe565b50346102cf5760203660031901126102cf576040906001600160a01b036123466139a4565b168152600360205220808080808080808080808080805460018201546101e0526002820154608052601460076011600f600d600c600b600a60096008600660058d600360018060a01b03910154169d600460018060a01b03910154169e01549e01549e01549e01549e01549e01549e01549e01549e01549e01549e01549e60018060a01b036012820154166102a05260138101546102e052015461016052604051806102205260ff82161515905260ff8160081c161515602061022051015260018060a01b039060101c1660406102205101526101e051606061022051015260018060a01b0360805116608061022051015260ff60805160a01c16151560a061022051015260c061022051015260e06102205101526101006102205101526101206102205101526101406102205101526101606102205101526101806102205101526101a06102205101526101c06102205101526101e0610220510152610200610220510152610220805101526102406102205101526102a0516102606102205101526102e051610280610220510152610160516102a06102205101526102c061022051f35b50346102cf57602080600319360112610843576004359061250b613cd3565b8115610b6d5733835260038152604083209060ff825460081c16156127ee576008820180548481106127dc578461254191613c79565b9055600a8201612552848254613d34565b90556040516370a0823160e01b8082523060048301526001600160a01b037f00000000000000000000000000000000000000000000000000000000000000008116929187918584602481885afa938415610a275783946127a9575b5060015416803b15610834578280916024604051809681936372424d9960e11b83528d60048401525af192831561279c57869361277f575b505060246040518095819382523060048301525afa8015612774578690612745575b6126119250613c79565b91600a8302838104600a14841517156110ae577f8f7262d5a031d4d671e1fdb0cddcd26d37185226f9e82f2f18877141ac1963eb939291612659606461271a93048095613c79565b92600f8201612669868254613d34565b90556010820161267a868254613d34565b90557f2b1d2104e84dd4dabb0cca024171f783ab1e1c9dc1af9d60a2361596653a99c4604051918683523392a2600b81018054918883156127385750600d908386111561273257835b80936126ea826126d3818b613c79565b97600c86016126e3838254613d34565b9055613c79565b90556126fb600e8301918254613d34565b90555b0161270a838254613d34565b9055604051948594339886613e13565b0390a26001600080516020614d958339815191525580f35b856126c3565b91509150600d84926126fe565b508282813d831161276d575b61275b8183613b4b565b810103126108d8576126119151612607565b503d612751565b6040513d88823e3d90fd5b61278b91929350613b38565b61279857839087386125e5565b8680fd5b50604051903d90823e3d90fd5b86809295508194503d83116127d5575b6127c38183613b4b565b810103126108d85787915192386125ad565b503d6127b9565b60405163208975e760e21b8152600490fd5b60405163aba4733960e01b8152600490fd5b50346102cf5760803660031901126102cf576004356001600160401b03811161084357612831903690600401613a76565b91906024356001600160401b03811161083457612852903690600401613a76565b6044356001600160401b03811161088757612871903690600401613a76565b90916064356001600160401b03811161279857612892903690600401613a76565b94909733885260036020526128ad60ff60408a205416614a79565b338852600360205260408820966001600160401b038211612d6c5781906128d760158a0154613ae3565b601f8111612d1c575b508990601f8311600114612cb0578a92612ca5575b50508160011b916000199060031b1c19161760158701555b6001600160401b038211612c9157819061292a6016880154613ae3565b601f8111612c3e575b508790601f8311600114612bd2578892612bc7575b50508160011b916000199060031b1c19161760168501555b60178401916001600160401b03821161135c57819061297f8454613ae3565b601f8111612b77575b508690601f8311600114612b11578792612b06575b50508160011b916000199060031b1c19161790555b60188201906001600160401b038111612af2576129cf8254613ae3565b601f8111612aad575b5083601f8211600114612a46578190859660199692612a3b575b50508160011b916000199060031b1c19161790555b01805460ff19166001179055337fbe4ec58a792f909e102ee3d745d0c3b34a4d437a54d903c4db098d31c556422f8280a280f35b0135905038806129f2565b8285526020852090601f198316865b818110612a955750968392916001946019989910612a7b575b505050811b019055612a07565b0135600019600384901b60f8161c19169055388080612a6e565b9192602060018192868c013581550194019201612a55565b82855260208520601f830160051c81019160208410612ae8575b601f0160051c01905b818110612add57506129d8565b858155600101612ad0565b9091508190612ac7565b634e487b7160e01b84526041600452602484fd5b01359050388061299d565b84885260208820925090601f198416885b818110612b5f5750908460019594939210612b45575b505050811b0190556129b2565b0135600019600384901b60f8161c19169055388080612b38565b91936020600181928787013581550195019201612b22565b90915083875260208720601f840160051c81019160208510612bbd575b90601f859493920160051c01905b818110612baf5750612988565b888155849350600101612ba2565b9091508190612b94565b013590503880612948565b60168801895260208920925090601f198416895b818110612c265750908460019594939210612c0c575b505050811b016016850155612960565b0135600019600384901b60f8161c19169055388080612bfc565b91936020600181928787013581550195019201612be6565b90915060168701885260208820601f840160051c81019160208510612c87575b90601f859493920160051c01905b818110612c795750612933565b898155849350600101612c6c565b9091508190612c5e565b634e487b7160e01b87526041600452602487fd5b0135905038806128f5565b60158a018b5260208b20925090601f1984168b5b818110612d045750908460019594939210612cea575b505050811b01601587015561290d565b0135600019600384901b60f8161c19169055388080612cda565b91936020600181928787013581550195019201612cc4565b909150601589018a5260208a20601f840160051c810160208510612d65575b90849392915b601f830160051c82018110612d575750506128e0565b8c8155859450600101612d41565b5080612d3b565b634e487b7160e01b89526041600452602489fd5b50346102cf57806003193601126102cf5760065460075490612daa60085460405193849384613a60565b0390f35b50346102cf5760203660031901126102cf57602061063a600435614b62565b50346102cf5760203660031901126102cf57602061063a600435614c27565b50346102cf57806003193601126102cf576020600454604051908152f35b50346102cf5760203660031901126102cf57612e24613cd3565b338152600d602052612e3d604082205460043510614b26565b338152600d602052612e5460043560408320614b0a565b50600381019081549160ff8360081c16156132f55761ff0019831690555490819060ff1661317657600582028281046005148315171561147257338452600360205260408420546064909104906001600160a01b039060101c811680151580613162575b6130d0575b5050505b6040516370a0823160e01b8082523060048301526001600160a01b037f00000000000000000000000000000000000000000000000000000000000000008116939192918691602084602481895afa938415610a2757839461309c575b5060015416803b15610834576024839260405194859384926372424d9960e11b845260048401525af1801561277457613089575b50604051918252306004830152602082602481865afa8015610892578590613055575b612f7e9250613c79565b9081612faa575b5061271a600080516020614db583398151915291604051918291339560043584613a60565b6020604051809263a9059cbb60e01b8252818781612fcc883360048401613ca9565b03925af1908115610b50578491613002575b50600080516020614db583398151915291612ffb61271a92614ab6565b9150612f85565b90506020813d60201161304d575b8161301d60209383613b4b565b81010312610a1b57600080516020614db583398151915291612ffb61304461271a93613c9c565b92505091612fde565b3d9150613010565b506020823d602011613081575b8161306f60209383613b4b565b810103126108d857612f7e9151612f74565b3d9150613062565b61309590959195613b38565b9338612f51565b9093506020813d6020116130c8575b816130b860209383613b4b565b8101031261083457519238612f1d565b3d91506130ab565b826020916130fa9360015416908860405180968195829463a9059cbb60e01b845260048401613ca9565b03925af1908115610892578591613128575b50613119575b8080612ebd565b61312291613c79565b38613112565b90506020813d60201161315a575b8161314360209383613b4b565b810103126108875761315490613c9c565b3861310c565b3d9150613136565b5080865260ff604087205460081c16612eb8565b916040519161318483613b1d565b60058352600260208401526001604084015260016060840152600160808401523382526003602052604082205460018060a01b039060101c169082915b60ff831660058110156132ea576131e760ff6131df60649389614af9565b511684613de0565b048015613205576001600160a01b0382161515806132c8575b613231575b506001600160a01b0390811684526003602052604084205460101c169161322b90614333565b916131c1565b60015460405163a9059cbb60e01b81529060209082906001600160a01b0316818981613261888a60048401613ca9565b03925af190811561277457869161328a575b5015613205576132839196613c79565b9438613205565b90506020813d6020116132c0575b816132a560209383613b4b565b810103126132bc576132b690613c9c565b38613273565b8580fd5b3d9150613298565b506001600160a01b03821685526003602052604085205460081c60ff16613200565b505092505091612ec1565b60405162461bcd60e51b815260206004820152601060248201526f105b1c9958591e481d5b9cdd185ad95960821b6044820152606490fd5b50346102cf5761335561333f36613a2e565b90613348613c14565b613350613cd3565b614720565b6001600080516020614d958339815191525580f35b50346102cf5760403660031901126102cf576133846139a4565b60243590613390613c14565b6001600160a01b0316908115610609576008548181106133f457816133d87fba443e8671971c36cdeb74f87321041daff421230cbc5e36cb835269ed1d8b7e93602093613c79565b60085583855260038252600860408620016105a6828254613d34565b60405162461bcd60e51b8152602060048201526012602482015271115e18d959591cc818591b5a5b881c1bdbdb60721b6044820152606490fd5b50346102cf5760203660031901126102cf576020906040906001600160a01b036134566139a4565b168152600c83522054604051908152f35b50346102cf57806003193601126102cf576001546040516001600160a01b039091168152602090f35b50346102cf5760203660031901126102cf576134aa6139a4565b6134b2613c14565b6001600160a01b0316801561060957600180546001600160a01b031916821790556040519081527ffa7bd61554593f4e69cdffd255d3fe947352b02c7d3ec68059384934e4cfd47c90602090a180f35b50346102cf5760208060031936011261084357906001600160a01b036135266139a4565b1690818152600d908184526040812054928190825b858110613711575061354c82614d22565b9461355683614d22565b61355f84614d22565b9161356985614d22565b9361358c613576876144bb565b966135846040519889613b4b565b8088526144bb565b868b019890601f1901368a378791885b84811061363157505050505087926135e960a09899936135db6135f7946135ce6040519d8d8f9e8f90815201906139fa565b8c8103888e0152906139fa565b908a820360408c01526139fa565b9088820360608a01526139fa565b92868403608088015251928381520193925b82811061361857505050500390f35b8351151585528695509381019392810192600101613609565b888d8b899f9c9b9d9e8b819a9b8784528885528c6136528860408720614b0a565b509460ff968760038098015460081c16613686575b50505050505050505061367990613cc4565b9b95949a9997989b61359c565b938c97936136fe9997938b9e969b6136bd8f8f6136799f6040898d946136f49f9b936136b6958995525220614b0a565b50966144d2565b526136ca878554926144d2565b526136da866001850154926144d2565b526136ea856002840154926144d2565b52015416926144d2565b9015159052613cc4565b9390508a38808f8b8a918f8f8e91613667565b818493959697945285845260ff600361372d8360408720614b0a565b50015460081c1661374d575b61374290613cc4565b95949391929561353b565b9361375a61374291613cc4565b949050613739565b50346102cf5760203660031901126102cf576137ec906040906001600160a01b0361378b6139a4565b16815260036020522060ff6019820154166138166137ab60158401613b6e565b926138086137bb60168301613b6e565b916137fa6137d760186137d060178501613b6e565b9301613b6e565b9360405198899860a08a5260a08a01906139ba565b9088820360208a01526139ba565b9086820360408801526139ba565b9084820360608601526139ba565b90151560808301520390f35b50346102cf57806003193601126102cf5761383b613cd3565b3381526003602052604081205460ff8116156127ee5760081c60ff1661390c576040516323b872dd60e01b815233600482015230602482015268070c1cc73b00c800006044820152602081606481857f00000000000000000000000000000000000000000000000000000000000000006001600160a01b03165af19081156108385782916138d3575b50156108475761335533613e37565b90506020813d8211613904575b816138ed60209383613b4b565b81010312610843576138fe90613c9c565b386138c4565b3d91506138e0565b604051637cdf305160e11b8152600490fd5b50346102cf5760203660031901126102cf5760409081906001600160a01b036139456139a4565b1681526003602052206010600f82015491015482519182526020820152f35b50346102cf57806003193601126102cf57602060405168070c1cc73b00c800008152f35b9050346108435781600319360112610843576020906007548152f35b600435906001600160a01b03821682036108d857565b919082519283825260005b8481106139e6575050826000602080949584010152601f8019910116010190565b6020818301810151848301820152016139c5565b90815180825260208080930193019160005b828110613a1a575050505090565b835185529381019392810192600101613a0c565b60409060031901126108d8576004359060243590565b346108d85760003660031901126108d8576020604051601e8152f35b6040919493926060820195825260208201520152565b9181601f840112156108d8578235916001600160401b0383116108d857602083818601950101116108d857565b6024359081151582036108d857565b600454811015613acd57600460005260206000200190600090565b634e487b7160e01b600052603260045260246000fd5b90600182811c92168015613b13575b6020831014613afd57565b634e487b7160e01b600052602260045260246000fd5b91607f1691613af2565b60a081019081106001600160401b0382111761168457604052565b6001600160401b03811161168457604052565b601f909101601f19168101906001600160401b0382119082101761168457604052565b9060405191826000825492613b8284613ae3565b908184526001948581169081600014613bf15750600114613bae575b5050613bac92500383613b4b565b565b9093915060005260209081600020936000915b818310613bd9575050613bac93508201013880613b9e565b85548884018501529485019487945091830191613bc1565b915050613bac94506020925060ff191682840152151560051b8201013880613b9e565b6000546001600160a01b03163303613c2857565b60405163118cdaa760e01b8152336004820152602490fd5b15613c4757565b60405162461bcd60e51b815260206004820152600a6024820152694e6f742061637469766560b01b6044820152606490fd5b91908203918211613c8657565b634e487b7160e01b600052601160045260246000fd5b519081151582036108d857565b6001600160a01b039091168152602081019190915260400190565b6000198114613c865760010190565b600080516020614d958339815191526002815414613cf15760029055565b604051633ee5aeb560e01b8152600490fd5b15613d0a57565b60405162461bcd60e51b81526020600482015260026024820152615a4160f01b6044820152606490fd5b91908201809211613c8657565b60018060a01b039182600092168252600391602092808452600291604091838383200154958787169560ff96898860a09a8b1c16915b16908115613dd35715613db657808552838352600586862001613d9a8154613cc4565b90555b8452828252858585200154898089838c1c169216613d77565b808552838352600686862001613dcc8154613cc4565b9055613d9d565b5050975050505050505050565b81810292918115918404141715613c8657565b8115613dfd570490565b634e487b7160e01b600052601260045260246000fd5b9192608093969594919660a084019784526020840152604083015260608201520152565b6001805460408051623144bd60e31b81526004956001600160a01b03938416959094929160209060009082818b818c5afa9081156143295782916142fc575b5080156142e9576b030e68b6d6e0acc82863363160251b049784519063095ea7b360e01b82528a82015268070c1cc73b00c80000908160248201528381604481868c7f0000000000000000000000000000000000000000000000000000000000000000165af18015614255576142b5575b50868654168551906370a0823160e01b92838352308d8401528583602481855afa9283156142ab57859361427c575b50813b1561088757849060448e838b519586948593634e538d9360e11b8552309085015260248401525af180156142725761425f575b50838b60248a8a54169489519586938492835230908301525afa8015614255578390614226575b613f7d9250613c79565b94601e8902898104601e148a151715614213576064900499509697959680888b80613fa8818c613c79565b90613fb291613c79565b90613fbc91613c79565b8c60065490613fca91613d34565b600655613fd7908d613d34565b95600896875490613fe791613d34565b875516988984526003938486528781209061ff00198254166101001791828155600b016815245655b102580000905582601092831c1695819785965b614092575b505050505050505096806140709381938a7f8af2c013a5a55c6d3ad5423522fe76c6f2eb831b5e23318276b3c678cb457fc9999a9b8411614075575b50505195869586613e13565b0390a2565b6140826140899185613c79565b8254613d34565b90553880614064565b909192939495969760ff90600a828a16111580614208575b15614201578a918f918f6140c08f918d90614359565b9182156141e057908a6140d4848f94613d34565b9e16958694858b528989528d838c20918254841c1691826141ca575b505015614180577fb16479bdac5b7099d9236d6fc6be3b30ff54188f4fd961686e1e1dc7ecb8803793929161415991868c528a8a52818c2001614134858254613d34565b9055858b528989526009818c200161414d858254613d34565b90555192839283614344565b0390a35b835281815285614174868c862054871c1698614333565b96959493929190614023565b7f117ca0cd821ecb7eadfea2d6927a67853908bdc351a386235215f5ab6071bfed9495508392506141b56141c2948254613d34565b9055519182918d83614344565b0390a261415d565b015490506141d7846144a5565b11158d386140f0565b9c935050505086915016835281815285614174868c862054871c1698614333565b9850614028565b50868a1615156140aa565b634e487b7160e01b835260118b52602483fd5b508382813d831161424e575b61423c8183613b4b565b810103126108d857613f7d9151613f73565b503d614232565b86513d85823e3d90fd5b61426b90939193613b38565b9138613f4c565b87513d86823e3d90fd5b9092508581813d83116142a4575b6142948183613b4b565b8101031261088757519138613f16565b503d61428a565b88513d87823e3d90fd5b8381813d83116142e2575b6142ca8183613b4b565b81010312610834576142db90613c9c565b5038613ee7565b503d6142c0565b634e487b7160e01b825260128a52602482fd5b90508281813d8311614322575b6143138183613b4b565b81010312610843575138613e76565b503d614309565b85513d84823e3d90fd5b60ff1660ff8114613c865760010190565b6020909392919360ff60408201951681520152565b9060ff166001811461448a576002811461446f57600381146144545760049081811461443d576005811461442057600681146144205760078114614403576008811461440357600981146143e657600a146143b5575050600090565b8160011b91808304600214901517156143d157506103e8900490565b601190634e487b7160e01b6000525260246000fd5b508160011b91808304600214901517156143d157506103e8900490565b506003820291808304600314901517156143d157506103e8900490565b506005820291808304600514901517156143d157506103e8900490565b50818004600114821517156143d157506064900490565b508060011b9080820460021490151715613c86576064900490565b50600581029080820460051490151715613c86576064900490565b50601481029080820460141490151715613c86576064900490565b60ff6004911611156144b657600590565b600290565b6001600160401b0381116116845760051b60200190565b8051821015613acd5760209160051b010190565b81806146fd575b6146f65781159182806146d1575b6146c957600554926001808501809511613c8657614518856144bb565b9061453360409661452b88519485613b4b565b8084526144bb565b9260209283810194601f190136863760008087156146aa576001600160a01b03898116835260038088528b8420015416965b6001600160a01b0397881680614696575b50505b8181106145f457505050806145d9575b6145cf5750826145b2575b50506145ab57815163c5bb5bcd60e01b8152600490fd5b9160009150565b816003929350841660005252600483600020015416153880614594565b9594505050509190565b50828516600052600382528260038760002001541615614589565b8661460861460183613cc4565b92856144d2565b51168060005260038088528b600020918982840154168015614683578a600480950154161561466f57908a93929161464961464288613cc4565b97896144d2565b5260005288528b60002001541661466961466284613cc4565b93856144d2565b52614579565b509b50505050505050505050505090600090565b509a505050505050509594505050509190565b9092508592845115613acd57523880614576565b6001600160a01b038981168352600387528a8320600401541696614565565b509160009150565b506001600160a01b0382811660009081526003602052604090206004015416156144fb565b9160019150565b5060018060a01b03808216600052600360205260036040600020015416156144ed565b60ff600a9080825416614a68576006918254948515614a2f57600093848155604687028781046046036110ae57606490049361475c8589613c79565b9561476c60099488865589613d34565b926004918254808611614a27575b508099805b86811061499357508a15614940575b8581106147d557505050505050509160809391600080516020614d758339815191529593600160ff19825416179055604051938452602084015260408301526060820152a1565b8a888a876147e285613ab2565b90549060039160018060a01b0391831b1c16948588528c602092808452604096878b2092835496600897881c161561492d5760058401548d850154808210156149255750945b6007948501548087111561491d576148409087613c79565b985b891561490857906120f18a61485693613de0565b968a8d52838752898d200161486c888254613d34565b9055898c52828652888c2001614883878254613d34565b905580870290878204036148f55791879593917fbee8f46206dc051d674f6ca1e618efe407d83b27ffbe3540b916edfd34e428e19795936148d660118c9b8f6148f09f9e81528589522001918254613d34565b9055888c528352858b2001558351928352820152a2613cc4565b61478e565b634e487b7160e01b8b5260118d5260248bfd5b5050505050505050505050506148f090613cc4565b508c98614842565b905094614828565b505050505050505050506148f090613cc4565b5096905060809850869550614975935061496d9250600080516020614d7583398151915299979150613d34565b600854613d34565b600855556040519182528060208301528060408301526060820152a1565b61499c81613ab2565b9054600391821b1c6001600160a01b0316845260205260408320805460081c871615614a1d576007600582015486830154808210600014614a155750915b0154908181116149f5575b50506149f090613cc4565b61477f565b9c614a07614a0d926149f0949f613c79565b90613d34565b9b90386149e5565b9050916149da565b506149f090613cc4565b94503861477a565b60405162461bcd60e51b8152602060048201526011602482015270115b5c1d1e48189a5b985c9e481c1bdbdb607a1b6044820152606490fd5b60405162c9487960e41b8152600490fd5b15614a8057565b60405162461bcd60e51b815260206004820152600e60248201526d139bdd081c9959da5cdd195c995960921b6044820152606490fd5b15614abd57565b60405162461bcd60e51b81526020600482015260146024820152731554d115081d1c985b9cd9995c8819985a5b195960621b6044820152606490fd5b906005811015613acd5760051b0190565b8054821015613acd5760005260206000209060021b0190600090565b15614b2d57565b60405162461bcd60e51b815260206004820152600d60248201526c092dcecc2d8d2c840d2dcc8caf609b1b6044820152606490fd5b6002546001600160a01b0316908115614bde576020906024604051809481936347cd519160e01b835260048301525afa908115614bd257600091614ba4575090565b906020823d8211614bca575b81614bbd60209383613b4b565b810103126102cf57505190565b3d9150614bb0565b6040513d6000823e3d90fd5b5050600090565b6002546001600160a01b0316908115614bde576020906024604051809481936375b1f0e160e11b835260048301525afa908115614bd257600091614ba4575090565b6002546001600160a01b0316908115614bde57602090602460405180948193631d61396160e11b835260048301525afa908115614bd257600091614ba4575090565b6002546001600160a01b03908116918215614d1457166024600082815260206003815280600f60408420015495604051948580926347cd519160e01b8252600160048301525afa928315610838578293614ce4575b5060ff9160036040928596835252205460081c169081614cdc575092565b905082101592565b9080935081813d8311614d0d575b614cfc8183613b4b565b8101031261084357519160ff614cbe565b503d614cf2565b505050600090600090600090565b90614d2c826144bb565b614d396040519182613b4b565b8281528092614d4a601f19916144bb565b019060203691013756fe8be0079c531659141344cd1fd0a4f28419497f9722a3daafe3b4186f6b6457e0a0ea5705200c9ffd36dc735fef1592c3234bb7e311fc1b0a444f6370d0620eae9b779b17422d0df92223018b32b4d1fa46e071723d6817e2486d003becc55f00204fccf0d92ed8d48f204adb39b2e81e92bad0dedb93f5716ca9478cfb57de00a264697066735822122091f47afc6894f6d1255b7ca583405d67debb1541278d2e00b7a201da421f888c64736f6c63430008140033","opcodes":"PUSH1 0xA0 CALLVALUE PUSH3 0x17C JUMPI PUSH1 0x1F PUSH3 0x4FB7 CODESIZE DUP2 SWAP1 SUB SWAP2 DUP3 ADD PUSH1 0x1F NOT AND DUP4 ADD SWAP2 PUSH1 0x1 PUSH1 0x1 PUSH1 0x40 SHL SUB DUP4 GT DUP5 DUP5 LT OR PUSH3 0x181 JUMPI DUP1 DUP5 SWAP3 PUSH1 0x40 SWAP5 DUP6 MSTORE DUP4 CODECOPY DUP2 ADD SUB SLT PUSH3 0x17C JUMPI PUSH3 0x5A PUSH1 0x20 PUSH3 0x52 DUP4 PUSH3 0x197 JUMP JUMPDEST SWAP3 ADD PUSH3 0x197 JUMP JUMPDEST SWAP1 CALLER ISZERO PUSH3 0x163 JUMPI PUSH1 0x0 SLOAD SWAP2 PUSH1 0x1 DUP1 PUSH1 0xA0 SHL SUB NOT SWAP3 CALLER DUP5 DUP3 AND OR PUSH1 0x0 SSTORE PUSH1 0x40 MLOAD SWAP1 PUSH1 0x1 DUP1 PUSH1 0xA0 SHL SUB SWAP4 DUP5 SWAP2 DUP3 CALLER SWAP2 AND PUSH32 0x8BE0079C531659141344CD1FD0A4F28419497F9722A3DAAFE3B4186F6B6457E0 PUSH1 0x0 DUP1 LOG3 PUSH1 0x1 PUSH32 0x9B779B17422D0DF92223018B32B4D1FA46E071723D6817E2486D003BECC55F00 SSTORE AND SWAP1 DUP2 ISZERO DUP1 ISZERO PUSH3 0x158 JUMPI JUMPDEST PUSH3 0x149 JUMPI POP PUSH1 0x80 MSTORE AND SWAP1 PUSH1 0x1 SLOAD AND OR PUSH1 0x1 SSTORE PUSH1 0x40 MLOAD PUSH2 0x4E0A SWAP1 DUP2 PUSH3 0x1AD DUP3 CODECOPY PUSH1 0x80 MLOAD DUP2 DUP2 DUP2 PUSH2 0x74E ADD MSTORE DUP2 DUP2 PUSH2 0xA9D ADD MSTORE DUP2 DUP2 PUSH2 0xDB0 ADD MSTORE DUP2 DUP2 PUSH2 0xF06 ADD MSTORE DUP2 DUP2 PUSH2 0x115A ADD MSTORE DUP2 DUP2 PUSH2 0x18DB ADD MSTORE DUP2 DUP2 PUSH2 0x2572 ADD MSTORE DUP2 DUP2 PUSH2 0x2EDF ADD MSTORE DUP2 DUP2 PUSH2 0x388C ADD MSTORE PUSH2 0x3EBA ADD MSTORE RETURN JUMPDEST PUSH4 0xD92E233D PUSH1 0xE0 SHL DUP2 MSTORE PUSH1 0x4 SWAP1 REVERT JUMPDEST POP DUP4 DUP4 AND ISZERO PUSH3 0xDE JUMP JUMPDEST PUSH1 0x40 MLOAD PUSH4 0x1E4FBDF7 PUSH1 0xE0 SHL DUP2 MSTORE PUSH1 0x0 PUSH1 0x4 DUP3 ADD MSTORE PUSH1 0x24 SWAP1 REVERT JUMPDEST PUSH1 0x0 DUP1 REVERT JUMPDEST PUSH4 0x4E487B71 PUSH1 0xE0 SHL PUSH1 0x0 MSTORE PUSH1 0x41 PUSH1 0x4 MSTORE PUSH1 0x24 PUSH1 0x0 REVERT JUMPDEST MLOAD SWAP1 PUSH1 0x1 PUSH1 0x1 PUSH1 0xA0 SHL SUB DUP3 AND DUP3 SUB PUSH3 0x17C JUMPI JUMP INVALID PUSH2 0x320 DUP1 PUSH1 0x40 MSTORE PUSH1 0x4 CALLDATASIZE LT ISZERO PUSH2 0x14 JUMPI PUSH1 0x0 DUP1 REVERT JUMPDEST PUSH1 0x0 SWAP1 DUP2 CALLDATALOAD PUSH1 0xE0 SHR SWAP1 DUP2 PUSH4 0x266F044 EQ PUSH2 0x3988 JUMPI POP DUP1 PUSH4 0x39CCC26 EQ PUSH2 0x3964 JUMPI DUP1 PUSH4 0x3C3ECB7 EQ PUSH2 0x391E JUMPI DUP1 PUSH4 0xF15F4C0 EQ PUSH2 0x3822 JUMPI DUP1 PUSH4 0xF53A470 EQ PUSH2 0x3762 JUMPI DUP1 PUSH4 0x1747E0B0 EQ PUSH2 0x3502 JUMPI DUP1 PUSH4 0x1CE5E894 EQ PUSH2 0x3490 JUMPI DUP1 PUSH4 0x1F6259D5 EQ PUSH2 0x3467 JUMPI DUP1 PUSH4 0x2335821B EQ PUSH2 0x342E JUMPI DUP1 PUSH4 0x2808BC8D EQ PUSH2 0x336A JUMPI DUP1 PUSH4 0x2D641F08 EQ PUSH2 0x332D JUMPI DUP1 PUSH4 0x2E17DE78 EQ PUSH2 0x2E0A JUMPI DUP1 PUSH4 0x38ABFC41 EQ PUSH2 0x2DEC JUMPI DUP1 PUSH4 0x3AC272C2 EQ PUSH2 0x2DCD JUMPI DUP1 PUSH4 0x44E374D5 EQ PUSH2 0xD22 JUMPI DUP1 PUSH4 0x47CD5191 EQ PUSH2 0x2DAE JUMPI DUP1 PUSH4 0x52375BB1 EQ PUSH2 0x2D80 JUMPI DUP1 PUSH4 0x55509C8F EQ PUSH2 0x2800 JUMPI DUP1 PUSH4 0x634F627E EQ PUSH2 0x24EC JUMPI DUP1 PUSH4 0x6386C1C7 EQ PUSH2 0x2321 JUMPI DUP1 PUSH4 0x68DDB2B5 EQ PUSH2 0x2249 JUMPI DUP1 PUSH4 0x715018A6 EQ PUSH2 0x2201 JUMPI DUP1 PUSH4 0x77537844 EQ PUSH2 0xD22 JUMPI DUP1 PUSH4 0x7F1B4064 EQ PUSH2 0x21E3 JUMPI DUP1 PUSH4 0x8431FDD7 EQ PUSH2 0x21BF JUMPI DUP1 PUSH4 0x8A8F0429 EQ PUSH2 0x1F7A JUMPI DUP1 PUSH4 0x8DA5CB5B EQ PUSH2 0x1F53 JUMPI DUP1 PUSH4 0x92446E30 EQ PUSH2 0x1F37 JUMPI DUP1 PUSH4 0x94915DD0 EQ PUSH2 0x1C58 JUMPI DUP1 PUSH4 0x9499A351 EQ PUSH2 0x1C1F JUMPI DUP1 PUSH4 0xA2BDEDF4 EQ PUSH2 0x1BDB JUMPI DUP1 PUSH4 0xA87430BA EQ PUSH2 0x190A JUMPI DUP1 PUSH4 0xA98AD46C EQ PUSH2 0x18C5 JUMPI DUP1 PUSH4 0xAA33F5D5 EQ PUSH2 0x1553 JUMPI DUP1 PUSH4 0xAA393757 EQ PUSH2 0x152F JUMPI DUP1 PUSH4 0xABE50F19 EQ PUSH2 0xE75 JUMPI DUP1 PUSH4 0xB58E0278 EQ PUSH2 0xD45 JUMPI DUP1 PUSH4 0xB86A1FB2 EQ PUSH2 0xD27 JUMPI DUP1 PUSH4 0xBE648BDB EQ PUSH2 0xD22 JUMPI DUP1 PUSH4 0xBFF1F9E1 EQ PUSH2 0xD04 JUMPI DUP1 PUSH4 0xC9D484CF EQ PUSH2 0xCDB JUMPI DUP1 PUSH4 0xCE8292F5 EQ PUSH2 0xC47 JUMPI DUP1 PUSH4 0xCF57EE69 EQ PUSH2 0xC0E JUMPI DUP1 PUSH4 0xCFD47663 EQ PUSH2 0xB7F JUMPI DUP1 PUSH4 0xD3635A02 EQ PUSH2 0xA32 JUMPI DUP1 PUSH4 0xD4A90286 EQ PUSH2 0x960 JUMPI DUP1 PUSH4 0xE3BA9BDA EQ PUSH2 0x8F6 JUMPI DUP1 PUSH4 0xE4093A66 EQ PUSH2 0x690 JUMPI DUP1 PUSH4 0xE51CB530 EQ PUSH2 0x642 JUMPI DUP1 PUSH4 0xEB63E1C2 EQ PUSH2 0x61B JUMPI DUP1 PUSH4 0xEC50324A EQ PUSH2 0x51C JUMPI DUP1 PUSH4 0xF00B0093 EQ PUSH2 0x4E3 JUMPI DUP1 PUSH4 0xF0B7B9DC EQ PUSH2 0x3C1 JUMPI DUP1 PUSH4 0xF24C536A EQ PUSH2 0x348 JUMPI DUP1 PUSH4 0xF2FDE38B EQ PUSH2 0x2D2 JUMPI PUSH4 0xFB72CA35 EQ PUSH2 0x28A JUMPI PUSH1 0x0 DUP1 REVERT JUMPDEST CALLVALUE PUSH2 0x2CF JUMPI PUSH1 0x20 CALLDATASIZE PUSH1 0x3 NOT ADD SLT PUSH2 0x2CF JUMPI PUSH1 0x40 SWAP1 PUSH1 0x1 PUSH1 0x1 PUSH1 0xA0 SHL SUB PUSH2 0x2AE PUSH2 0x39A4 JUMP JUMPDEST AND DUP2 MSTORE PUSH1 0xB PUSH1 0x20 MSTORE DUP2 DUP1 DUP3 KECCAK256 SLOAD SWAP2 PUSH1 0xC PUSH1 0x20 MSTORE KECCAK256 SLOAD DUP3 MLOAD SWAP2 DUP3 MSTORE PUSH1 0x20 DUP3 ADD MSTORE RETURN JUMPDEST DUP1 REVERT JUMPDEST POP CALLVALUE PUSH2 0x2CF JUMPI PUSH1 0x20 CALLDATASIZE PUSH1 0x3 NOT ADD SLT PUSH2 0x2CF JUMPI PUSH2 0x2EC PUSH2 0x39A4 JUMP JUMPDEST PUSH2 0x2F4 PUSH2 0x3C14 JUMP JUMPDEST PUSH1 0x1 PUSH1 0x1 PUSH1 0xA0 SHL SUB SWAP1 DUP2 AND SWAP1 DUP2 ISZERO PUSH2 0x32F JUMPI PUSH1 0x0 SLOAD DUP3 PUSH1 0x1 DUP1 PUSH1 0xA0 SHL SUB NOT DUP3 AND OR PUSH1 0x0 SSTORE AND PUSH1 0x0 DUP1 MLOAD PUSH1 0x20 PUSH2 0x4D55 DUP4 CODECOPY DUP2 MLOAD SWAP2 MSTORE PUSH1 0x0 DUP1 LOG3 DUP1 RETURN JUMPDEST PUSH1 0x40 MLOAD PUSH4 0x1E4FBDF7 PUSH1 0xE0 SHL DUP2 MSTORE PUSH1 0x4 DUP2 ADD DUP5 SWAP1 MSTORE PUSH1 0x24 SWAP1 REVERT JUMPDEST POP CALLVALUE PUSH2 0x2CF JUMPI PUSH1 0x20 CALLDATASIZE PUSH1 0x3 NOT ADD SLT PUSH2 0x2CF JUMPI PUSH1 0x40 SWAP1 PUSH1 0x1 PUSH1 0x1 PUSH1 0xA0 SHL SUB PUSH2 0x36D PUSH2 0x39A4 JUMP JUMPDEST AND DUP2 MSTORE PUSH1 0x3 PUSH1 0x20 MSTORE DUP2 DUP2 KECCAK256 SWAP1 PUSH1 0x7 PUSH1 0x5 DUP4 ADD SLOAD PUSH1 0x6 DUP5 ADD SLOAD DUP1 DUP3 LT PUSH1 0x0 EQ PUSH2 0x3B9 JUMPI POP SWAP3 JUMPDEST ADD SLOAD DUP1 DUP4 GT ISZERO PUSH2 0x3B3 JUMPI PUSH2 0x3A7 SWAP2 POP DUP3 PUSH2 0x3C79 JUMP JUMPDEST DUP3 MLOAD SWAP2 DUP3 MSTORE PUSH1 0x20 DUP3 ADD MSTORE RETURN JUMPDEST POP PUSH2 0x3A7 JUMP JUMPDEST SWAP1 POP SWAP3 PUSH2 0x392 JUMP JUMPDEST POP CALLVALUE PUSH2 0x2CF JUMPI PUSH1 0x60 CALLDATASIZE PUSH1 0x3 NOT ADD SLT PUSH2 0x2CF JUMPI PUSH2 0x3DB PUSH2 0x39A4 JUMP JUMPDEST PUSH1 0x24 CALLDATALOAD SWAP1 PUSH2 0x3E7 PUSH2 0x3CD3 JUMP JUMPDEST PUSH1 0x2 SLOAD PUSH1 0x1 PUSH1 0x1 PUSH1 0xA0 SHL SUB SWAP2 SWAP1 DUP3 AND CALLER SUB PUSH2 0x4AA JUMPI PUSH32 0x2393ACB59B41DD645F68FE97BAB0DEBA2A21B99EFC69761E9B2762F11BBBE79D SWAP2 PUSH1 0x40 SWAP2 AND SWAP3 PUSH2 0x42E DUP5 ISZERO ISZERO PUSH2 0x3D03 JUMP JUMPDEST PUSH2 0x439 DUP2 ISZERO ISZERO PUSH2 0x3D03 JUMP JUMPDEST DUP4 DUP6 MSTORE PUSH1 0x3 PUSH1 0x20 MSTORE PUSH1 0xC DUP3 DUP7 KECCAK256 ADD PUSH2 0x452 DUP3 DUP3 SLOAD PUSH2 0x3D34 JUMP JUMPDEST SWAP1 SSTORE DUP4 DUP6 MSTORE PUSH1 0x3 PUSH1 0x20 MSTORE PUSH1 0xE DUP3 DUP7 KECCAK256 ADD PUSH2 0x46D DUP3 DUP3 SLOAD PUSH2 0x3D34 JUMP JUMPDEST SWAP1 SSTORE DUP4 DUP6 MSTORE PUSH1 0xC PUSH1 0x20 MSTORE DUP2 DUP6 KECCAK256 PUSH2 0x485 DUP3 DUP3 SLOAD PUSH2 0x3D34 JUMP JUMPDEST SWAP1 SSTORE DUP2 MLOAD SWAP1 DUP2 MSTORE PUSH1 0x44 CALLDATALOAD PUSH1 0x20 DUP3 ADD MSTORE LOG2 PUSH1 0x1 PUSH1 0x0 DUP1 MLOAD PUSH1 0x20 PUSH2 0x4D95 DUP4 CODECOPY DUP2 MLOAD SWAP2 MSTORE SSTORE DUP1 RETURN JUMPDEST PUSH1 0x40 MLOAD PUSH3 0x461BCD PUSH1 0xE5 SHL DUP2 MSTORE PUSH1 0x20 PUSH1 0x4 DUP3 ADD MSTORE PUSH1 0x11 PUSH1 0x24 DUP3 ADD MSTORE PUSH17 0x2737BA103137B0B932103430B7323632B9 PUSH1 0x79 SHL PUSH1 0x44 DUP3 ADD MSTORE PUSH1 0x64 SWAP1 REVERT JUMPDEST POP CALLVALUE PUSH2 0x2CF JUMPI PUSH1 0x20 CALLDATASIZE PUSH1 0x3 NOT ADD SLT PUSH2 0x2CF JUMPI PUSH1 0x20 SWAP1 PUSH1 0x40 SWAP1 PUSH1 0x1 PUSH1 0x1 PUSH1 0xA0 SHL SUB PUSH2 0x50B PUSH2 0x39A4 JUMP JUMPDEST AND DUP2 MSTORE PUSH1 0xB DUP4 MSTORE KECCAK256 SLOAD PUSH1 0x40 MLOAD SWAP1 DUP2 MSTORE RETURN JUMPDEST POP CALLVALUE PUSH2 0x2CF JUMPI PUSH1 0x40 CALLDATASIZE PUSH1 0x3 NOT ADD SLT PUSH2 0x2CF JUMPI PUSH2 0x536 PUSH2 0x39A4 JUMP JUMPDEST PUSH1 0x24 CALLDATALOAD SWAP1 PUSH2 0x542 PUSH2 0x3C14 JUMP JUMPDEST PUSH1 0x1 PUSH1 0x1 PUSH1 0xA0 SHL SUB AND SWAP1 DUP2 ISZERO PUSH2 0x609 JUMPI PUSH1 0x7 SLOAD DUP2 DUP2 LT PUSH2 0x5CD JUMPI DUP2 PUSH2 0x58A PUSH32 0x529AFC4538720FE0B3EADC40486369AB962002D72FEAD1387B300C66073E7BF SWAP4 PUSH1 0x20 SWAP4 PUSH2 0x3C79 JUMP JUMPDEST PUSH1 0x7 SSTORE DUP4 DUP6 MSTORE PUSH1 0x3 DUP3 MSTORE PUSH1 0x8 PUSH1 0x40 DUP7 KECCAK256 ADD PUSH2 0x5A6 DUP3 DUP3 SLOAD PUSH2 0x3D34 JUMP JUMPDEST SWAP1 SSTORE DUP4 DUP6 MSTORE PUSH1 0x3 DUP3 MSTORE PUSH1 0x9 PUSH1 0x40 DUP7 KECCAK256 ADD PUSH2 0x5C1 DUP3 DUP3 SLOAD PUSH2 0x3D34 JUMP JUMPDEST SWAP1 SSTORE PUSH1 0x40 MLOAD SWAP1 DUP2 MSTORE LOG2 DUP1 RETURN JUMPDEST PUSH1 0x40 MLOAD PUSH3 0x461BCD PUSH1 0xE5 SHL DUP2 MSTORE PUSH1 0x20 PUSH1 0x4 DUP3 ADD MSTORE PUSH1 0x14 PUSH1 0x24 DUP3 ADD MSTORE PUSH20 0x115E18D959591CC81C995CD95C9D99481C1BDBDB PUSH1 0x62 SHL PUSH1 0x44 DUP3 ADD MSTORE PUSH1 0x64 SWAP1 REVERT JUMPDEST PUSH1 0x40 MLOAD PUSH4 0xD92E233D PUSH1 0xE0 SHL DUP2 MSTORE PUSH1 0x4 SWAP1 REVERT JUMPDEST POP CALLVALUE PUSH2 0x2CF JUMPI PUSH1 0x20 CALLDATASIZE PUSH1 0x3 NOT ADD SLT PUSH2 0x2CF JUMPI PUSH1 0x20 PUSH2 0x63A PUSH1 0x4 CALLDATALOAD PUSH2 0x4BE5 JUMP JUMPDEST PUSH1 0x40 MLOAD SWAP1 DUP2 MSTORE RETURN JUMPDEST POP CALLVALUE PUSH2 0x2CF JUMPI PUSH1 0x20 CALLDATASIZE PUSH1 0x3 NOT ADD SLT PUSH2 0x2CF JUMPI PUSH1 0x40 SWAP1 PUSH1 0xD SWAP1 DUP3 SWAP1 PUSH1 0x1 PUSH1 0x1 PUSH1 0xA0 SHL SUB PUSH2 0x66C PUSH2 0x39A4 JUMP JUMPDEST AND DUP2 MSTORE PUSH1 0x3 PUSH1 0x20 MSTORE KECCAK256 ADD SLOAD DUP2 MLOAD SWAP1 PUSH9 0x70C1CC73B00C80000 DUP2 LT ISZERO DUP3 MSTORE PUSH1 0x20 DUP3 ADD MSTORE RETURN JUMPDEST POP CALLVALUE PUSH2 0x2CF JUMPI DUP1 PUSH1 0x3 NOT CALLDATASIZE ADD SLT PUSH2 0x2CF JUMPI PUSH2 0x6A9 PUSH2 0x3CD3 JUMP JUMPDEST PUSH1 0x2 SLOAD PUSH1 0x1 PUSH1 0x1 PUSH1 0xA0 SHL SUB SWAP1 DUP2 AND SWAP1 DUP2 ISZERO PUSH2 0x8E4 JUMPI PUSH1 0x24 SWAP1 CALLER DUP5 MSTORE PUSH1 0x20 SWAP3 PUSH1 0x3 DUP5 MSTORE DUP4 PUSH1 0x40 DUP7 KECCAK256 SWAP2 PUSH2 0x6E1 PUSH1 0xFF DUP5 SLOAD PUSH1 0x8 SHR AND PUSH2 0x3C40 JUMP JUMPDEST PUSH1 0x40 MLOAD PUSH4 0x47CD5191 PUSH1 0xE0 SHL DUP2 MSTORE PUSH1 0x1 PUSH1 0x4 DUP3 ADD MSTORE SWAP5 DUP6 SWAP2 DUP3 SWAP1 GAS STATICCALL SWAP3 DUP4 ISZERO PUSH2 0x892 JUMPI DUP6 SWAP4 PUSH2 0x8AF JUMPI JUMPDEST POP PUSH1 0xF ADD DUP1 SLOAD DUP4 DUP2 LT PUSH2 0x89D JUMPI DUP4 PUSH2 0x721 SWAP2 PUSH2 0x3C79 JUMP JUMPDEST SWAP1 SSTORE PUSH2 0x748 DUP4 DUP4 DUP4 PUSH1 0x2 SLOAD AND PUSH1 0x40 MLOAD SWAP4 DUP5 SWAP3 DUP4 SWAP3 PUSH4 0xA9059CBB PUSH1 0xE0 SHL DUP5 MSTORE PUSH1 0x4 DUP5 ADD PUSH2 0x3CA9 JUMP JUMPDEST SUB DUP2 DUP9 DUP7 PUSH32 0x0 AND GAS CALL SWAP1 DUP2 ISZERO PUSH2 0x892 JUMPI DUP6 SWAP2 PUSH2 0x859 JUMPI JUMPDEST POP ISZERO PUSH2 0x847 JUMPI DUP4 SWAP1 CALLER DUP3 MSTORE PUSH1 0xB DUP5 MSTORE PUSH1 0x40 DUP3 KECCAK256 PUSH2 0x79B DUP2 SLOAD PUSH2 0x3CC4 JUMP JUMPDEST SWAP1 SSTORE PUSH1 0x2 SLOAD AND DUP1 EXTCODESIZE ISZERO PUSH2 0x843 JUMPI DUP2 DUP1 SWAP2 PUSH1 0x44 PUSH1 0x40 MLOAD DUP1 SWAP5 DUP2 SWAP4 PUSH4 0x686A38BD PUSH1 0xE0 SHL DUP4 MSTORE CALLER PUSH1 0x4 DUP5 ADD MSTORE PUSH1 0x1 PUSH1 0x24 DUP5 ADD MSTORE GAS CALL DUP1 ISZERO PUSH2 0x838 JUMPI PUSH2 0x820 JUMPI JUMPDEST POP POP PUSH1 0x40 MLOAD SWAP2 PUSH1 0x1 DUP4 MSTORE DUP3 ADD MSTORE PUSH32 0x4E755DD64E53A9F7A5882E2E32EB64718C2273DE11E017BD47129B9FE2716D7C PUSH1 0x40 CALLER SWAP3 LOG2 PUSH1 0x1 PUSH1 0x0 DUP1 MLOAD PUSH1 0x20 PUSH2 0x4D95 DUP4 CODECOPY DUP2 MLOAD SWAP2 MSTORE SSTORE DUP1 RETURN JUMPDEST PUSH2 0x829 SWAP1 PUSH2 0x3B38 JUMP JUMPDEST PUSH2 0x834 JUMPI DUP3 CODESIZE PUSH2 0x7D8 JUMP JUMPDEST DUP3 DUP1 REVERT JUMPDEST PUSH1 0x40 MLOAD RETURNDATASIZE DUP5 DUP3 RETURNDATACOPY RETURNDATASIZE SWAP1 REVERT JUMPDEST POP DUP1 REVERT JUMPDEST PUSH1 0x40 MLOAD PUSH4 0x12171D83 PUSH1 0xE3 SHL DUP2 MSTORE PUSH1 0x4 SWAP1 REVERT JUMPDEST SWAP1 POP DUP4 DUP2 DUP2 RETURNDATASIZE DUP4 GT PUSH2 0x88B JUMPI JUMPDEST PUSH2 0x870 DUP2 DUP4 PUSH2 0x3B4B JUMP JUMPDEST DUP2 ADD SUB SLT PUSH2 0x887 JUMPI PUSH2 0x881 SWAP1 PUSH2 0x3C9C JUMP JUMPDEST CODESIZE PUSH2 0x77E JUMP JUMPDEST DUP5 DUP1 REVERT JUMPDEST POP RETURNDATASIZE PUSH2 0x866 JUMP JUMPDEST PUSH1 0x40 MLOAD RETURNDATASIZE DUP8 DUP3 RETURNDATACOPY RETURNDATASIZE SWAP1 REVERT JUMPDEST PUSH1 0x40 MLOAD PUSH4 0x856D687 PUSH1 0xE1 SHL DUP2 MSTORE PUSH1 0x4 SWAP1 REVERT JUMPDEST SWAP1 SWAP3 POP DUP4 DUP2 DUP2 RETURNDATASIZE DUP4 GT PUSH2 0x8DD JUMPI JUMPDEST PUSH2 0x8C7 DUP2 DUP4 PUSH2 0x3B4B JUMP JUMPDEST DUP2 ADD SUB SLT PUSH2 0x8D8 JUMPI MLOAD SWAP2 PUSH1 0xF PUSH2 0x70A JUMP JUMPDEST PUSH1 0x0 DUP1 REVERT JUMPDEST POP RETURNDATASIZE PUSH2 0x8BD JUMP JUMPDEST PUSH1 0x40 MLOAD PUSH4 0x632100F7 PUSH1 0xE1 SHL DUP2 MSTORE PUSH1 0x4 SWAP1 REVERT JUMPDEST POP CALLVALUE PUSH2 0x2CF JUMPI PUSH1 0x20 CALLDATASIZE PUSH1 0x3 NOT ADD SLT PUSH2 0x2CF JUMPI PUSH2 0x910 PUSH2 0x39A4 JUMP JUMPDEST PUSH2 0x918 PUSH2 0x3C14 JUMP JUMPDEST PUSH1 0x1 PUSH1 0x1 PUSH1 0xA0 SHL SUB AND DUP1 ISZERO PUSH2 0x609 JUMPI PUSH1 0x2 DUP1 SLOAD PUSH1 0x1 PUSH1 0x1 PUSH1 0xA0 SHL SUB NOT AND DUP3 OR SWAP1 SSTORE PUSH32 0x49424F87D81E4374EE3E8D1CF7B880966981A3CF6A7AC1D7A66C13D91756FCCC DUP3 DUP1 LOG2 DUP1 RETURN JUMPDEST POP CALLVALUE PUSH2 0x2CF JUMPI PUSH2 0x96F CALLDATASIZE PUSH2 0x3A2E JUMP JUMPDEST SWAP1 PUSH1 0x60 PUSH1 0x1 DUP1 PUSH1 0xA0 SHL SUB SWAP3 PUSH1 0x44 DUP5 PUSH1 0x2 SLOAD AND SWAP4 PUSH1 0x40 MLOAD SWAP5 DUP6 SWAP4 DUP5 SWAP3 PUSH4 0x6A548143 PUSH1 0xE1 SHL DUP5 MSTORE PUSH1 0x4 DUP5 ADD MSTORE PUSH1 0x24 DUP4 ADD MSTORE GAS STATICCALL SWAP1 DUP2 ISZERO PUSH2 0xA27 JUMPI DUP4 SWAP3 DUP5 SWAP2 DUP6 SWAP4 PUSH2 0x9CC JUMPI JUMPDEST POP PUSH1 0x60 SWAP5 POP PUSH1 0x40 MLOAD SWAP4 AND DUP4 MSTORE PUSH1 0x20 DUP4 ADD MSTORE ISZERO ISZERO PUSH1 0x40 DUP3 ADD MSTORE RETURN JUMPDEST SWAP4 POP SWAP2 POP POP PUSH1 0x60 DUP3 RETURNDATASIZE DUP3 GT PUSH2 0xA1F JUMPI JUMPDEST DUP2 PUSH2 0x9E9 PUSH1 0x60 SWAP4 DUP4 PUSH2 0x3B4B JUMP JUMPDEST DUP2 ADD SUB SLT PUSH2 0x834 JUMPI DUP2 MLOAD DUP2 DUP2 AND DUP2 SUB PUSH2 0xA1B JUMPI PUSH1 0x60 SWAP4 POP PUSH2 0xA11 PUSH1 0x40 PUSH1 0x20 DUP6 ADD MLOAD SWAP5 ADD PUSH2 0x3C9C JUMP JUMPDEST SWAP1 SWAP3 SWAP1 SWAP2 CODESIZE PUSH2 0x9B2 JUMP JUMPDEST DUP4 DUP1 REVERT JUMPDEST RETURNDATASIZE SWAP2 POP PUSH2 0x9DC JUMP JUMPDEST PUSH1 0x40 MLOAD RETURNDATASIZE DUP6 DUP3 RETURNDATACOPY RETURNDATASIZE SWAP1 REVERT JUMPDEST POP CALLVALUE PUSH2 0x2CF JUMPI PUSH1 0x20 DUP1 PUSH1 0x3 NOT CALLDATASIZE ADD SLT PUSH2 0x843 JUMPI PUSH1 0x4 CALLDATALOAD SWAP1 PUSH2 0xA51 PUSH2 0x3CD3 JUMP JUMPDEST DUP2 ISZERO PUSH2 0xB6D JUMPI CALLER DUP4 MSTORE PUSH1 0x3 DUP2 MSTORE PUSH1 0xC PUSH1 0x40 DUP5 KECCAK256 ADD DUP1 SLOAD DUP4 DUP2 LT PUSH2 0xB5B JUMPI DUP4 PUSH2 0xA78 SWAP2 PUSH2 0x3C79 JUMP JUMPDEST SWAP1 SSTORE PUSH1 0x40 MLOAD PUSH4 0xA9059CBB PUSH1 0xE0 SHL DUP2 MSTORE DUP2 DUP2 DUP1 PUSH2 0xA98 DUP7 CALLER PUSH1 0x4 DUP5 ADD PUSH2 0x3CA9 JUMP JUMPDEST SUB DUP2 DUP8 PUSH32 0x0 PUSH1 0x1 PUSH1 0x1 PUSH1 0xA0 SHL SUB AND GAS CALL SWAP1 DUP2 ISZERO PUSH2 0xB50 JUMPI DUP5 SWAP2 PUSH2 0xB1B JUMPI JUMPDEST POP ISZERO PUSH2 0x847 JUMPI PUSH32 0xBDD3F02D2A57FB53C1156F98470B61CB60712D485C27C36A49B1263DABCDE201 SWAP1 PUSH1 0x40 MLOAD SWAP3 DUP4 MSTORE CALLER SWAP3 LOG2 PUSH1 0x1 PUSH1 0x0 DUP1 MLOAD PUSH1 0x20 PUSH2 0x4D95 DUP4 CODECOPY DUP2 MLOAD SWAP2 MSTORE SSTORE DUP1 RETURN JUMPDEST SWAP1 POP DUP2 DUP2 DUP2 RETURNDATASIZE DUP4 GT PUSH2 0xB49 JUMPI JUMPDEST PUSH2 0xB32 DUP2 DUP4 PUSH2 0x3B4B JUMP JUMPDEST DUP2 ADD SUB SLT PUSH2 0xA1B JUMPI PUSH2 0xB43 SWAP1 PUSH2 0x3C9C JUMP JUMPDEST CODESIZE PUSH2 0xAD5 JUMP JUMPDEST POP RETURNDATASIZE PUSH2 0xB28 JUMP JUMPDEST PUSH1 0x40 MLOAD RETURNDATASIZE DUP7 DUP3 RETURNDATACOPY RETURNDATASIZE SWAP1 REVERT JUMPDEST PUSH1 0x40 MLOAD PUSH4 0xB55C1BAD PUSH1 0xE0 SHL DUP2 MSTORE PUSH1 0x4 SWAP1 REVERT JUMPDEST PUSH1 0x40 MLOAD PUSH4 0x1F2A2005 PUSH1 0xE0 SHL DUP2 MSTORE PUSH1 0x4 SWAP1 REVERT JUMPDEST POP CALLVALUE PUSH2 0x2CF JUMPI PUSH1 0x40 CALLDATASIZE PUSH1 0x3 NOT ADD SLT PUSH2 0x2CF JUMPI PUSH2 0xBD0 PUSH1 0xA0 SWAP2 PUSH1 0x40 PUSH2 0xBA1 PUSH2 0x39A4 JUMP JUMPDEST SWAP2 PUSH1 0x24 CALLDATALOAD SWAP3 PUSH1 0x1 DUP1 DUP8 SHL SUB AND DUP1 DUP3 MSTORE PUSH1 0xD PUSH1 0x20 MSTORE PUSH2 0xBC3 DUP4 DUP4 KECCAK256 SLOAD DUP6 LT PUSH2 0x4B26 JUMP JUMPDEST DUP2 MSTORE PUSH1 0xD PUSH1 0x20 MSTORE KECCAK256 PUSH2 0x4B0A JUMP JUMPDEST POP PUSH1 0xFF DUP2 SLOAD SWAP2 PUSH1 0x1 DUP2 ADD SLOAD SWAP1 PUSH1 0x3 PUSH1 0x2 DUP3 ADD SLOAD SWAP2 ADD SLOAD SWAP2 PUSH1 0x40 MLOAD SWAP5 DUP6 MSTORE PUSH1 0x20 DUP6 ADD MSTORE PUSH1 0x40 DUP5 ADD MSTORE DUP2 DUP2 AND ISZERO ISZERO PUSH1 0x60 DUP5 ADD MSTORE PUSH1 0x8 SHR AND ISZERO ISZERO PUSH1 0x80 DUP3 ADD MSTORE RETURN JUMPDEST POP CALLVALUE PUSH2 0x2CF JUMPI PUSH1 0x20 CALLDATASIZE PUSH1 0x3 NOT ADD SLT PUSH2 0x2CF JUMPI PUSH1 0x20 SWAP1 PUSH1 0x40 SWAP1 PUSH1 0x1 PUSH1 0x1 PUSH1 0xA0 SHL SUB PUSH2 0xC36 PUSH2 0x39A4 JUMP JUMPDEST AND DUP2 MSTORE PUSH1 0xD DUP4 MSTORE KECCAK256 SLOAD PUSH1 0x40 MLOAD SWAP1 DUP2 MSTORE RETURN JUMPDEST POP CALLVALUE PUSH2 0x2CF JUMPI DUP1 PUSH1 0x3 NOT CALLDATASIZE ADD SLT PUSH2 0x2CF JUMPI PUSH1 0x1 SLOAD PUSH1 0x40 MLOAD PUSH4 0x70A08231 PUSH1 0xE0 SHL DUP2 MSTORE ADDRESS PUSH1 0x4 DUP3 ADD MSTORE SWAP2 SWAP1 PUSH1 0x20 SWAP1 DUP4 SWAP1 PUSH1 0x24 SWAP1 DUP3 SWAP1 PUSH1 0x1 PUSH1 0x1 PUSH1 0xA0 SHL SUB AND GAS STATICCALL SWAP1 DUP2 ISZERO PUSH2 0xCCF JUMPI SWAP1 PUSH2 0xC9D JUMPI JUMPDEST PUSH1 0x20 SWAP1 PUSH1 0x40 MLOAD SWAP1 DUP2 MSTORE RETURN JUMPDEST POP PUSH1 0x20 DUP2 RETURNDATASIZE DUP3 GT PUSH2 0xCC7 JUMPI JUMPDEST DUP2 PUSH2 0xCB6 PUSH1 0x20 SWAP4 DUP4 PUSH2 0x3B4B JUMP JUMPDEST DUP2 ADD SUB SLT PUSH2 0x8D8 JUMPI PUSH1 0x20 SWAP1 MLOAD PUSH2 0xC92 JUMP JUMPDEST RETURNDATASIZE SWAP2 POP PUSH2 0xCA9 JUMP JUMPDEST PUSH1 0x40 MLOAD SWAP1 RETURNDATASIZE SWAP1 DUP3 RETURNDATACOPY RETURNDATASIZE SWAP1 REVERT JUMPDEST POP CALLVALUE PUSH2 0x2CF JUMPI DUP1 PUSH1 0x3 NOT CALLDATASIZE ADD SLT PUSH2 0x2CF JUMPI PUSH1 0x2 SLOAD PUSH1 0x40 MLOAD PUSH1 0x1 PUSH1 0x1 PUSH1 0xA0 SHL SUB SWAP1 SWAP2 AND DUP2 MSTORE PUSH1 0x20 SWAP1 RETURN JUMPDEST POP CALLVALUE PUSH2 0x2CF JUMPI DUP1 PUSH1 0x3 NOT CALLDATASIZE ADD SLT PUSH2 0x2CF JUMPI PUSH1 0x20 PUSH1 0x5 SLOAD PUSH1 0x40 MLOAD SWAP1 DUP2 MSTORE RETURN JUMPDEST PUSH2 0x3A44 JUMP JUMPDEST POP CALLVALUE PUSH2 0x2CF JUMPI DUP1 PUSH1 0x3 NOT CALLDATASIZE ADD SLT PUSH2 0x2CF JUMPI PUSH1 0x20 PUSH1 0x8 SLOAD PUSH1 0x40 MLOAD SWAP1 DUP2 MSTORE RETURN JUMPDEST POP CALLVALUE PUSH2 0x2CF JUMPI PUSH1 0x20 DUP1 PUSH1 0x3 NOT CALLDATASIZE ADD SLT PUSH2 0x843 JUMPI PUSH1 0x4 CALLDATALOAD SWAP1 PUSH2 0xD64 PUSH2 0x3CD3 JUMP JUMPDEST DUP2 ISZERO PUSH2 0xB6D JUMPI CALLER DUP4 MSTORE PUSH1 0x3 DUP2 MSTORE PUSH1 0xF PUSH1 0x40 DUP5 KECCAK256 ADD DUP1 SLOAD DUP4 DUP2 LT PUSH2 0xE63 JUMPI DUP4 PUSH2 0xD8B SWAP2 PUSH2 0x3C79 JUMP JUMPDEST SWAP1 SSTORE PUSH1 0x40 MLOAD PUSH4 0xA9059CBB PUSH1 0xE0 SHL DUP2 MSTORE DUP2 DUP2 DUP1 PUSH2 0xDAB DUP7 CALLER PUSH1 0x4 DUP5 ADD PUSH2 0x3CA9 JUMP JUMPDEST SUB DUP2 DUP8 PUSH32 0x0 PUSH1 0x1 PUSH1 0x1 PUSH1 0xA0 SHL SUB AND GAS CALL SWAP1 DUP2 ISZERO PUSH2 0xB50 JUMPI DUP5 SWAP2 PUSH2 0xE2E JUMPI JUMPDEST POP ISZERO PUSH2 0x847 JUMPI PUSH32 0x12701E4764B73009AB9826933C421483E4280410091FCC760515E0FA99FA766B SWAP1 PUSH1 0x40 MLOAD SWAP3 DUP4 MSTORE CALLER SWAP3 LOG2 PUSH1 0x1 PUSH1 0x0 DUP1 MLOAD PUSH1 0x20 PUSH2 0x4D95 DUP4 CODECOPY DUP2 MLOAD SWAP2 MSTORE SSTORE DUP1 RETURN JUMPDEST SWAP1 POP DUP2 DUP2 DUP2 RETURNDATASIZE DUP4 GT PUSH2 0xE5C JUMPI JUMPDEST PUSH2 0xE45 DUP2 DUP4 PUSH2 0x3B4B JUMP JUMPDEST DUP2 ADD SUB SLT PUSH2 0xA1B JUMPI PUSH2 0xE56 SWAP1 PUSH2 0x3C9C JUMP JUMPDEST CODESIZE PUSH2 0xDE8 JUMP JUMPDEST POP RETURNDATASIZE PUSH2 0xE3B JUMP JUMPDEST PUSH1 0x40 MLOAD PUSH4 0x6DAE8617 PUSH1 0xE1 SHL DUP2 MSTORE PUSH1 0x4 SWAP1 REVERT JUMPDEST POP CALLVALUE PUSH2 0x2CF JUMPI PUSH1 0x40 CALLDATASIZE PUSH1 0x3 NOT ADD SLT PUSH2 0x2CF JUMPI PUSH2 0xE8F PUSH2 0x3AA3 JUMP JUMPDEST SWAP1 PUSH2 0xE98 PUSH2 0x3CD3 JUMP JUMPDEST PUSH9 0x2B5E3AF16B1880000 PUSH1 0x4 CALLDATALOAD LT PUSH2 0x14F6 JUMPI CALLER DUP2 MSTORE PUSH1 0x3 PUSH1 0x20 MSTORE PUSH2 0xEC2 PUSH1 0xFF PUSH1 0x40 DUP4 KECCAK256 SLOAD AND PUSH2 0x4A79 JUMP JUMPDEST CALLER DUP2 MSTORE PUSH1 0x3 PUSH1 0x20 MSTORE PUSH1 0xFF PUSH1 0x40 DUP3 KECCAK256 SLOAD PUSH1 0x8 SHR AND ISZERO PUSH2 0x14C1 JUMPI PUSH1 0x40 MLOAD PUSH4 0x23B872DD PUSH1 0xE0 SHL DUP2 MSTORE CALLER PUSH1 0x4 DUP1 DUP4 ADD SWAP2 SWAP1 SWAP2 MSTORE ADDRESS PUSH1 0x24 DUP4 ADD MSTORE CALLDATALOAD PUSH1 0x44 DUP3 ADD MSTORE PUSH1 0x20 DUP2 PUSH1 0x64 DUP2 DUP6 PUSH32 0x0 PUSH1 0x1 PUSH1 0x1 PUSH1 0xA0 SHL SUB AND GAS CALL DUP1 ISZERO PUSH2 0x838 JUMPI DUP3 SWAP1 PUSH2 0x1486 JUMPI JUMPDEST PUSH2 0xF47 SWAP2 POP PUSH2 0x4AB6 JUMP JUMPDEST PUSH1 0x40 MLOAD SWAP1 PUSH2 0xF54 DUP3 PUSH2 0x3B1D JUMP JUMPDEST PUSH1 0xA DUP3 MSTORE PUSH1 0x2 PUSH1 0x20 DUP4 ADD MSTORE PUSH1 0x1 PUSH1 0x40 DUP4 ADD MSTORE PUSH1 0x1 PUSH1 0x60 DUP4 ADD MSTORE PUSH1 0x1 PUSH1 0x80 DUP4 ADD MSTORE CALLER DUP2 MSTORE PUSH1 0x3 PUSH1 0x20 MSTORE PUSH1 0x40 DUP2 KECCAK256 SLOAD PUSH1 0x1 DUP1 PUSH1 0xA0 SHL SUB SWAP1 PUSH1 0x10 SHR AND DUP2 DUP3 SWAP2 JUMPDEST PUSH1 0xFF DUP4 AND PUSH1 0x5 DUP2 LT ISZERO PUSH2 0x10E9 JUMPI PUSH1 0x64 PUSH2 0xFB9 PUSH1 0xFF PUSH2 0xFAF DUP5 DUP11 PUSH2 0x4AF9 JUMP JUMPDEST MLOAD AND PUSH1 0x4 CALLDATALOAD PUSH2 0x3DE0 JUMP JUMPDEST DIV SWAP1 DUP2 ISZERO PUSH2 0x10C2 JUMPI PUSH1 0x1 PUSH1 0x1 PUSH1 0xA0 SHL SUB DUP4 AND PUSH2 0x100B JUMPI POP PUSH2 0xFDC SWAP1 PUSH1 0x8 SLOAD PUSH2 0x3D34 JUMP JUMPDEST PUSH1 0x8 SSTORE JUMPDEST PUSH1 0x1 PUSH1 0x1 PUSH1 0xA0 SHL SUB SWAP1 DUP2 AND DUP5 MSTORE PUSH1 0x3 PUSH1 0x20 MSTORE PUSH1 0x40 DUP5 KECCAK256 SLOAD PUSH1 0x10 SHR AND SWAP2 PUSH2 0x1005 SWAP1 PUSH2 0x4333 JUMP JUMPDEST SWAP2 PUSH2 0xF91 JUMP JUMPDEST PUSH1 0x1 PUSH1 0x1 PUSH1 0xA0 SHL SUB DUP4 AND DUP7 MSTORE PUSH1 0x3 PUSH1 0x20 MSTORE PUSH1 0x40 DUP7 KECCAK256 DUP1 SLOAD PUSH1 0x8 SHR PUSH1 0xFF AND PUSH2 0x1042 JUMPI POP POP PUSH2 0x103A SWAP1 PUSH1 0x8 SLOAD PUSH2 0x3D34 JUMP JUMPDEST PUSH1 0x8 SSTORE PUSH2 0xFE0 JUMP JUMPDEST PUSH2 0x105E SWAP2 SWAP5 PUSH1 0xC DUP5 SWAP3 ADD PUSH2 0x1057 DUP4 DUP3 SLOAD PUSH2 0x3D34 JUMP JUMPDEST SWAP1 SSTORE PUSH2 0x3D34 JUMP JUMPDEST SWAP3 PUSH1 0xFF PUSH1 0x1 DUP3 ADD GT PUSH2 0x10AE JUMPI PUSH32 0xC8C0CC32A736135FA3C2A3C467849CD282797396BC67D2D5326F7E161E601C1D PUSH1 0x40 MLOAD DUP1 PUSH2 0x10A6 CALLER SWAP6 PUSH1 0x1 DUP1 DUP1 PUSH1 0xA0 SHL SUB DUP10 AND SWAP7 ADD DUP4 PUSH2 0x4344 JUMP JUMPDEST SUB SWAP1 LOG3 PUSH2 0xFE0 JUMP JUMPDEST PUSH4 0x4E487B71 PUSH1 0xE0 SHL DUP7 MSTORE PUSH1 0x11 PUSH1 0x4 MSTORE PUSH1 0x24 DUP7 REVERT JUMPDEST POP POP PUSH1 0x1 PUSH1 0x1 PUSH1 0xA0 SHL SUB SWAP1 DUP2 AND DUP5 MSTORE PUSH1 0x3 PUSH1 0x20 MSTORE PUSH1 0x40 DUP5 KECCAK256 SLOAD PUSH1 0x10 SHR AND SWAP2 PUSH2 0x1005 SWAP1 PUSH2 0x4333 JUMP JUMPDEST DUP5 DUP8 DUP5 PUSH1 0xF PUSH1 0x4 CALLDATALOAD MUL PUSH1 0x4 CALLDATALOAD DUP2 DIV PUSH1 0xF EQ PUSH1 0x4 CALLDATALOAD ISZERO OR ISZERO PUSH2 0x1472 JUMPI SWAP1 PUSH2 0x1116 PUSH1 0x64 PUSH2 0x1125 SWAP4 DIV SWAP2 DUP3 PUSH2 0x3C79 JUMP JUMPDEST DUP1 PUSH2 0x145D JUMPI JUMPDEST POP PUSH1 0x4 CALLDATALOAD PUSH2 0x3C79 JUMP JUMPDEST PUSH1 0x1 SLOAD PUSH1 0x40 MLOAD PUSH4 0x95EA7B3 PUSH1 0xE0 SHL DUP2 MSTORE SWAP1 PUSH1 0x20 SWAP1 DUP3 SWAP1 DUP2 SWAP1 PUSH2 0x1155 SWAP1 DUP7 SWAP1 PUSH1 0x1 PUSH1 0x1 PUSH1 0xA0 SHL SUB AND PUSH1 0x4 DUP5 ADD PUSH2 0x3CA9 JUMP JUMPDEST SUB DUP2 DUP8 PUSH32 0x0 PUSH1 0x1 PUSH1 0x1 PUSH1 0xA0 SHL SUB AND GAS CALL DUP1 ISZERO PUSH2 0xB50 JUMPI PUSH2 0x1424 JUMPI JUMPDEST POP PUSH1 0x1 SLOAD PUSH1 0x40 MLOAD PUSH4 0x70A08231 PUSH1 0xE0 SHL DUP2 MSTORE ADDRESS PUSH1 0x4 DUP3 ADD MSTORE SWAP2 DUP5 SWAP2 PUSH1 0x1 PUSH1 0x1 PUSH1 0xA0 SHL SUB AND PUSH1 0x20 DUP5 PUSH1 0x24 DUP2 DUP5 GAS STATICCALL SWAP4 DUP5 ISZERO PUSH2 0xA27 JUMPI DUP4 SWAP5 PUSH2 0x13ED JUMPI JUMPDEST POP DUP1 EXTCODESIZE ISZERO PUSH2 0x834 JUMPI PUSH1 0x40 MLOAD PUSH4 0x4E538D93 PUSH1 0xE1 SHL DUP2 MSTORE SWAP2 DUP4 SWAP2 DUP4 SWAP2 DUP3 SWAP1 DUP5 SWAP1 DUP3 SWAP1 PUSH2 0x11F7 SWAP1 ADDRESS PUSH1 0x4 DUP5 ADD PUSH2 0x3CA9 JUMP JUMPDEST SUB SWAP3 GAS CALL DUP1 ISZERO PUSH2 0x838 JUMPI PUSH2 0x13D9 JUMPI JUMPDEST POP POP PUSH1 0x1 SLOAD PUSH1 0x40 MLOAD PUSH4 0x70A08231 PUSH1 0xE0 SHL DUP2 MSTORE ADDRESS PUSH1 0x4 DUP3 ADD MSTORE SWAP2 SWAP1 PUSH1 0x20 SWAP1 DUP4 SWAP1 PUSH1 0x24 SWAP1 DUP3 SWAP1 PUSH1 0x1 PUSH1 0x1 PUSH1 0xA0 SHL SUB AND GAS STATICCALL DUP1 ISZERO PUSH2 0xB50 JUMPI DUP5 SWAP1 PUSH2 0x13A5 JUMPI JUMPDEST PUSH2 0x124C SWAP3 POP PUSH2 0x3C79 JUMP JUMPDEST SWAP1 DUP2 ISZERO PUSH2 0x1370 JUMPI CALLER DUP4 MSTORE PUSH1 0xD PUSH1 0x20 MSTORE PUSH1 0x40 DUP4 KECCAK256 SWAP2 DUP3 SLOAD SWAP3 PUSH1 0x40 MLOAD SWAP1 PUSH2 0x1270 DUP3 PUSH2 0x3B1D JUMP JUMPDEST DUP3 DUP3 MSTORE PUSH1 0x4 CALLDATALOAD PUSH1 0x20 DUP4 ADD MSTORE TIMESTAMP PUSH1 0x40 DUP4 ADD MSTORE DUP4 ISZERO ISZERO PUSH1 0x60 DUP4 ADD MSTORE PUSH1 0x1 PUSH1 0x80 DUP4 ADD MSTORE PUSH1 0x1 PUSH1 0x40 SHL DUP6 LT ISZERO PUSH2 0x135C JUMPI DUP5 PUSH2 0x12AC SWAP2 PUSH1 0x1 DUP3 ADD DUP2 SSTORE PUSH2 0x4B0A JUMP JUMPDEST PUSH2 0x1348 JUMPI PUSH1 0x3 SWAP1 DUP3 MLOAD DUP2 SSTORE PUSH1 0x20 DUP4 ADD MLOAD PUSH1 0x1 DUP3 ADD SSTORE PUSH1 0x40 DUP4 ADD MLOAD PUSH1 0x2 DUP3 ADD SSTORE ADD SWAP1 PUSH1 0x60 DUP2 ADD MLOAD ISZERO ISZERO SWAP1 PUSH1 0xFF PUSH2 0xFF00 PUSH1 0x80 DUP6 SLOAD SWAP4 ADD MLOAD ISZERO ISZERO PUSH1 0x8 SHL AND SWAP3 AND SWAP1 PUSH2 0xFFFF NOT AND OR OR SWAP1 SSTORE PUSH1 0x40 MLOAD SWAP3 DUP4 MSTORE PUSH1 0x4 CALLDATALOAD PUSH1 0x20 DUP5 ADD MSTORE PUSH1 0x40 DUP4 ADD MSTORE ISZERO ISZERO PUSH1 0x60 DUP3 ADD MSTORE PUSH32 0x830141583677D950FE61A27B93001EDFF66B597C666B2C90F5FB6E79A4BEFD0E PUSH1 0x80 CALLER SWAP3 LOG2 PUSH1 0x1 PUSH1 0x0 DUP1 MLOAD PUSH1 0x20 PUSH2 0x4D95 DUP4 CODECOPY DUP2 MLOAD SWAP2 MSTORE SSTORE DUP1 RETURN JUMPDEST PUSH4 0x4E487B71 PUSH1 0xE0 SHL DUP7 MSTORE PUSH1 0x4 DUP7 SWAP1 MSTORE PUSH1 0x24 DUP7 REVERT JUMPDEST PUSH4 0x4E487B71 PUSH1 0xE0 SHL DUP7 MSTORE PUSH1 0x41 PUSH1 0x4 MSTORE PUSH1 0x24 DUP7 REVERT JUMPDEST PUSH1 0x40 MLOAD PUSH3 0x461BCD PUSH1 0xE5 SHL DUP2 MSTORE PUSH1 0x20 PUSH1 0x4 DUP3 ADD MSTORE PUSH1 0xD PUSH1 0x24 DUP3 ADD MSTORE PUSH13 0x139BC8135595081B5A5B9D1959 PUSH1 0x9A SHL PUSH1 0x44 DUP3 ADD MSTORE PUSH1 0x64 SWAP1 REVERT JUMPDEST POP PUSH1 0x20 DUP3 RETURNDATASIZE PUSH1 0x20 GT PUSH2 0x13D1 JUMPI JUMPDEST DUP2 PUSH2 0x13BF PUSH1 0x20 SWAP4 DUP4 PUSH2 0x3B4B JUMP JUMPDEST DUP2 ADD SUB SLT PUSH2 0x8D8 JUMPI PUSH2 0x124C SWAP2 MLOAD PUSH2 0x1242 JUMP JUMPDEST RETURNDATASIZE SWAP2 POP PUSH2 0x13B2 JUMP JUMPDEST PUSH2 0x13E2 SWAP1 PUSH2 0x3B38 JUMP JUMPDEST PUSH2 0x834 JUMPI DUP3 DUP5 PUSH2 0x1206 JUMP JUMPDEST SWAP3 POP SWAP3 POP PUSH1 0x20 DUP3 RETURNDATASIZE PUSH1 0x20 GT PUSH2 0x141C JUMPI JUMPDEST DUP2 PUSH2 0x140A PUSH1 0x20 SWAP4 DUP4 PUSH2 0x3B4B JUMP JUMPDEST DUP2 ADD SUB SLT PUSH2 0x8D8 JUMPI DUP5 SWAP2 MLOAD SWAP3 DUP7 PUSH2 0x11C9 JUMP JUMPDEST RETURNDATASIZE SWAP2 POP PUSH2 0x13FD JUMP JUMPDEST PUSH1 0x20 DUP2 RETURNDATASIZE PUSH1 0x20 GT PUSH2 0x1455 JUMPI JUMPDEST DUP2 PUSH2 0x143D PUSH1 0x20 SWAP4 DUP4 PUSH2 0x3B4B JUMP JUMPDEST DUP2 ADD SUB SLT PUSH2 0xA1B JUMPI PUSH2 0x144E SWAP1 PUSH2 0x3C9C JUMP JUMPDEST POP DUP4 PUSH2 0x118F JUMP JUMPDEST RETURNDATASIZE SWAP2 POP PUSH2 0x1430 JUMP JUMPDEST PUSH2 0x1469 SWAP1 PUSH1 0x8 SLOAD PUSH2 0x3D34 JUMP JUMPDEST PUSH1 0x8 SSTORE DUP5 PUSH2 0x111C JUMP JUMPDEST PUSH4 0x4E487B71 PUSH1 0xE0 SHL DUP5 MSTORE PUSH1 0x11 PUSH1 0x4 MSTORE PUSH1 0x24 DUP5 REVERT JUMPDEST POP PUSH1 0x20 DUP2 RETURNDATASIZE PUSH1 0x20 GT PUSH2 0x14B9 JUMPI JUMPDEST DUP2 PUSH2 0x14A0 PUSH1 0x20 SWAP4 DUP4 PUSH2 0x3B4B JUMP JUMPDEST DUP2 ADD SUB SLT PUSH2 0x843 JUMPI PUSH2 0x14B4 PUSH2 0xF47 SWAP2 PUSH2 0x3C9C JUMP JUMPDEST PUSH2 0xF3D JUMP JUMPDEST RETURNDATASIZE SWAP2 POP PUSH2 0x1493 JUMP JUMPDEST PUSH1 0x40 MLOAD PUSH3 0x461BCD PUSH1 0xE5 SHL DUP2 MSTORE PUSH1 0x20 PUSH1 0x4 DUP3 ADD MSTORE PUSH1 0xD PUSH1 0x24 DUP3 ADD MSTORE PUSH13 0x139BDD081858DD1A5D985D1959 PUSH1 0x9A SHL PUSH1 0x44 DUP3 ADD MSTORE PUSH1 0x64 SWAP1 REVERT JUMPDEST PUSH1 0x40 MLOAD PUSH3 0x461BCD PUSH1 0xE5 SHL DUP2 MSTORE PUSH1 0x20 PUSH1 0x4 DUP3 ADD MSTORE PUSH1 0x11 PUSH1 0x24 DUP3 ADD MSTORE PUSH17 0x42656C6F7720243530206D696E696D756D PUSH1 0x78 SHL PUSH1 0x44 DUP3 ADD MSTORE PUSH1 0x64 SWAP1 REVERT JUMPDEST POP CALLVALUE PUSH2 0x2CF JUMPI DUP1 PUSH1 0x3 NOT CALLDATASIZE ADD SLT PUSH2 0x2CF JUMPI PUSH1 0x20 PUSH1 0x40 MLOAD PUSH9 0x15245655B102580000 DUP2 MSTORE RETURN JUMPDEST POP CALLVALUE PUSH2 0x2CF JUMPI PUSH1 0x60 CALLDATASIZE PUSH1 0x3 NOT ADD SLT PUSH2 0x2CF JUMPI PUSH2 0x156D PUSH2 0x39A4 JUMP JUMPDEST PUSH1 0x24 CALLDATALOAD PUSH1 0x1 PUSH1 0x1 PUSH1 0xA0 SHL SUB DUP2 AND SWAP1 SUB PUSH2 0x8D8 JUMPI PUSH1 0x44 CALLDATALOAD ISZERO ISZERO PUSH1 0x44 CALLDATALOAD SUB PUSH2 0x8D8 JUMPI CALLER DUP3 MSTORE PUSH1 0x3 PUSH1 0x20 MSTORE PUSH1 0xFF PUSH1 0x40 DUP4 KECCAK256 SLOAD AND PUSH2 0x18B3 JUMPI PUSH1 0x5 SLOAD PUSH2 0x169A JUMPI CALLER PUSH1 0x0 SWAP1 DUP2 MSTORE PUSH1 0x3 PUSH1 0x20 MSTORE PUSH1 0x40 SWAP1 KECCAK256 DUP1 SLOAD PUSH2 0xFF01 PUSH1 0x1 PUSH1 0xB0 SHL SUB NOT AND PUSH1 0x1 OR DUP2 SSTORE PUSH1 0x2 DUP2 ADD DUP1 SLOAD PUSH1 0x1 PUSH1 0x1 PUSH1 0xA8 SHL SUB NOT AND SWAP1 SSTORE PUSH1 0x12 DUP2 ADD DUP1 SLOAD PUSH1 0x1 PUSH1 0x1 PUSH1 0xA0 SHL SUB NOT AND SWAP1 SSTORE TIMESTAMP PUSH1 0x14 SWAP1 SWAP2 ADD SSTORE PUSH1 0x4 SLOAD PUSH1 0x1 PUSH1 0x40 SHL DUP2 LT ISZERO PUSH2 0x1684 JUMPI DUP1 PUSH1 0x1 PUSH2 0x1613 SWAP3 ADD PUSH1 0x4 SSTORE PUSH2 0x3AB2 JUMP JUMPDEST DUP2 SLOAD PUSH1 0x1 PUSH1 0x1 PUSH1 0xA0 SHL SUB PUSH1 0x3 SWAP3 SWAP1 SWAP3 SHL SWAP2 DUP3 SHL NOT AND CALLER SWAP1 SWAP2 SHL OR SWAP1 SSTORE PUSH1 0x5 SLOAD PUSH2 0x163B SWAP1 PUSH2 0x3CC4 JUMP JUMPDEST PUSH1 0x5 SSTORE JUMPDEST PUSH1 0x40 MLOAD PUSH1 0x44 CALLDATALOAD ISZERO ISZERO DUP2 MSTORE PUSH1 0x1 PUSH1 0x1 PUSH1 0xA0 SHL SUB PUSH1 0x24 CALLDATALOAD DUP2 AND SWAP3 AND SWAP1 CALLER SWAP1 PUSH32 0x34FF37874D7443037A85C6F390FE14F2AE3E8767355DE0E63891AD4367C27539 SWAP1 PUSH1 0x20 SWAP1 LOG4 DUP1 RETURN JUMPDEST PUSH4 0x4E487B71 PUSH1 0xE0 SHL PUSH1 0x0 MSTORE PUSH1 0x41 PUSH1 0x4 MSTORE PUSH1 0x24 PUSH1 0x0 REVERT JUMPDEST PUSH1 0x1 PUSH1 0x1 PUSH1 0xA0 SHL SUB DUP2 AND DUP1 DUP4 MSTORE PUSH1 0x3 PUSH1 0x20 MSTORE PUSH1 0x40 DUP4 KECCAK256 SLOAD PUSH1 0xFF AND ISZERO PUSH2 0x18A1 JUMPI PUSH1 0x24 CALLDATALOAD PUSH1 0x1 PUSH1 0x1 PUSH1 0xA0 SHL SUB AND ISZERO ISZERO DUP1 PUSH2 0x1880 JUMPI JUMPDEST ISZERO PUSH2 0x187A JUMPI PUSH1 0x24 CALLDATALOAD JUMPDEST PUSH1 0x44 CALLDATALOAD DUP1 PUSH2 0x1857 JUMPI JUMPDEST PUSH2 0x1822 JUMPI PUSH1 0x44 CALLDATALOAD ISZERO DUP1 PUSH2 0x1834 JUMPI JUMPDEST PUSH2 0x1822 JUMPI CALLER PUSH1 0x0 SWAP1 DUP2 MSTORE PUSH1 0x3 PUSH1 0x20 MSTORE PUSH1 0x40 SWAP1 KECCAK256 DUP1 SLOAD PUSH2 0xFF01 PUSH1 0x1 PUSH1 0xB0 SHL SUB NOT AND PUSH1 0x10 DUP6 SWAP1 SHL PUSH3 0x10000 PUSH1 0x1 PUSH1 0xB0 SHL SUB AND OR PUSH1 0x1 OR DUP2 SSTORE PUSH1 0x2 DUP2 ADD DUP1 SLOAD PUSH1 0x1 PUSH1 0x1 PUSH1 0xA8 SHL SUB NOT AND PUSH1 0x1 PUSH1 0x1 PUSH1 0xA0 SHL SUB SWAP1 SWAP4 AND SWAP3 DUP4 OR PUSH1 0x44 CALLDATALOAD ISZERO ISZERO PUSH1 0xA0 SHL PUSH1 0xFF PUSH1 0xA0 SHL AND OR SWAP1 SSTORE PUSH1 0x12 DUP2 ADD DUP1 SLOAD PUSH1 0x1 PUSH1 0x1 PUSH1 0xA0 SHL SUB NOT SWAP1 DUP2 AND SWAP1 SWAP2 SSTORE TIMESTAMP PUSH1 0x14 SWAP1 SWAP3 ADD SWAP2 SWAP1 SWAP2 SSTORE PUSH1 0x4 SLOAD SWAP1 SWAP2 SWAP1 PUSH1 0x1 PUSH1 0x40 SHL DUP2 LT ISZERO PUSH2 0x1684 JUMPI DUP1 PUSH1 0x1 PUSH2 0x1793 SWAP3 ADD PUSH1 0x4 SSTORE PUSH2 0x3AB2 JUMP JUMPDEST DUP2 SLOAD PUSH1 0x1 PUSH1 0x1 PUSH1 0xA0 SHL SUB PUSH1 0x3 SWAP3 SWAP1 SWAP3 SHL SWAP2 DUP3 SHL NOT AND CALLER SWAP1 SWAP2 SHL OR SWAP1 SSTORE PUSH1 0x5 SLOAD PUSH2 0x17BB SWAP1 PUSH2 0x3CC4 JUMP JUMPDEST PUSH1 0x5 SSTORE PUSH1 0x44 CALLDATALOAD ISZERO PUSH2 0x1806 JUMPI DUP5 MSTORE PUSH1 0x3 PUSH1 0x20 MSTORE PUSH1 0x3 PUSH1 0x40 DUP6 KECCAK256 ADD SWAP1 CALLER SWAP1 DUP3 SLOAD AND OR SWAP1 SSTORE JUMPDEST DUP3 MSTORE PUSH1 0x3 PUSH1 0x20 MSTORE PUSH1 0x1 PUSH1 0x40 DUP4 KECCAK256 ADD PUSH2 0x17F6 DUP2 SLOAD PUSH2 0x3CC4 JUMP JUMPDEST SWAP1 SSTORE PUSH2 0x1801 CALLER PUSH2 0x3D41 JUMP JUMPDEST PUSH2 0x163F JUMP JUMPDEST DUP5 MSTORE PUSH1 0x3 PUSH1 0x20 MSTORE PUSH1 0x4 PUSH1 0x40 DUP6 KECCAK256 ADD SWAP1 CALLER SWAP1 DUP3 SLOAD AND OR SWAP1 SSTORE PUSH2 0x17DE JUMP JUMPDEST PUSH1 0x40 MLOAD PUSH4 0xD5DD5C3D PUSH1 0xE0 SHL DUP2 MSTORE PUSH1 0x4 SWAP1 REVERT JUMPDEST POP PUSH1 0x1 PUSH1 0x1 PUSH1 0xA0 SHL SUB DUP2 DUP2 AND DUP6 MSTORE PUSH1 0x3 PUSH1 0x20 MSTORE PUSH1 0x40 DUP6 KECCAK256 PUSH1 0x4 ADD SLOAD AND ISZERO ISZERO PUSH2 0x16ED JUMP JUMPDEST POP PUSH1 0x1 PUSH1 0x1 PUSH1 0xA0 SHL SUB DUP2 DUP2 AND DUP6 MSTORE PUSH1 0x3 PUSH1 0x20 DUP2 SWAP1 MSTORE PUSH1 0x40 DUP7 KECCAK256 ADD SLOAD AND ISZERO ISZERO PUSH2 0x16DF JUMP JUMPDEST DUP2 PUSH2 0x16D6 JUMP JUMPDEST POP PUSH1 0x24 CALLDATALOAD PUSH1 0x1 PUSH1 0x1 PUSH1 0xA0 SHL SUB AND DUP4 MSTORE PUSH1 0x3 PUSH1 0x20 MSTORE PUSH1 0x40 DUP4 KECCAK256 SLOAD PUSH1 0xFF AND PUSH2 0x16CD JUMP JUMPDEST PUSH1 0x40 MLOAD PUSH4 0x2F212E0D PUSH1 0xE1 SHL DUP2 MSTORE PUSH1 0x4 SWAP1 REVERT JUMPDEST PUSH1 0x40 MLOAD PUSH4 0xEA075BF PUSH1 0xE2 SHL DUP2 MSTORE PUSH1 0x4 SWAP1 REVERT JUMPDEST POP CALLVALUE PUSH2 0x2CF JUMPI DUP1 PUSH1 0x3 NOT CALLDATASIZE ADD SLT PUSH2 0x2CF JUMPI PUSH1 0x40 MLOAD PUSH32 0x0 PUSH1 0x1 PUSH1 0x1 PUSH1 0xA0 SHL SUB AND DUP2 MSTORE PUSH1 0x20 SWAP1 RETURN JUMPDEST POP CALLVALUE PUSH2 0x2CF JUMPI PUSH1 0x20 CALLDATASIZE PUSH1 0x3 NOT ADD SLT PUSH2 0x2CF JUMPI PUSH1 0x40 SWAP1 PUSH1 0x1 PUSH1 0x1 PUSH1 0xA0 SHL SUB PUSH2 0x192F PUSH2 0x39A4 JUMP JUMPDEST AND DUP2 MSTORE PUSH1 0x3 PUSH1 0x20 MSTORE KECCAK256 DUP1 PUSH2 0x140 MSTORE DUP1 DUP1 DUP1 DUP1 DUP1 DUP1 DUP1 DUP1 DUP1 DUP1 DUP1 DUP1 PUSH2 0x19F1 PUSH1 0x15 PUSH1 0xF PUSH1 0xE PUSH1 0xD PUSH1 0xC PUSH1 0xB PUSH1 0xA PUSH1 0x9 PUSH1 0x8 PUSH1 0x7 PUSH1 0x6 PUSH1 0x5 DUP14 SLOAD SWAP14 PUSH1 0x1 DUP2 ADD SLOAD PUSH2 0x1C0 MSTORE PUSH1 0x2 DUP2 ADD SLOAD PUSH2 0x2C0 MSTORE PUSH1 0x1 DUP1 PUSH1 0xA0 SHL SUB PUSH1 0x3 DUP3 ADD SLOAD AND PUSH1 0xA0 MSTORE PUSH1 0x4 PUSH1 0x1 DUP1 PUSH1 0xA0 SHL SUB SWAP2 ADD SLOAD AND SWAP15 ADD SLOAD SWAP15 ADD SLOAD SWAP15 ADD SLOAD SWAP15 ADD SLOAD SWAP15 ADD SLOAD SWAP15 ADD SLOAD SWAP15 ADD SLOAD SWAP15 ADD SLOAD SWAP15 ADD SLOAD SWAP15 ADD SLOAD SWAP15 ADD SLOAD SWAP15 PUSH1 0x10 DUP2 ADD SLOAD PUSH1 0xE0 MSTORE PUSH1 0x11 DUP2 ADD SLOAD PUSH2 0x180 MSTORE PUSH1 0x1 DUP1 PUSH1 0xA0 SHL SUB PUSH1 0x12 DUP3 ADD SLOAD AND PUSH2 0x1A0 MSTORE PUSH1 0x13 DUP2 ADD SLOAD PUSH2 0x200 MSTORE PUSH1 0x14 DUP2 ADD SLOAD PUSH1 0xC0 MSTORE ADD PUSH2 0x3B6E JUMP JUMPDEST PUSH2 0x300 MSTORE PUSH2 0x1A04 PUSH1 0x16 PUSH2 0x140 MLOAD ADD PUSH2 0x3B6E JUMP JUMPDEST PUSH2 0x240 MSTORE PUSH2 0x1A17 PUSH1 0x17 PUSH2 0x140 MLOAD ADD PUSH2 0x3B6E JUMP JUMPDEST PUSH2 0x280 MSTORE PUSH2 0x1A2A PUSH1 0x18 PUSH2 0x140 MLOAD ADD PUSH2 0x3B6E JUMP JUMPDEST PUSH2 0x100 MSTORE PUSH1 0xFF PUSH1 0x19 PUSH2 0x140 MLOAD ADD SLOAD AND PUSH2 0x260 MSTORE PUSH1 0x40 MLOAD DUP1 PUSH2 0x120 MSTORE PUSH1 0xFF DUP3 AND ISZERO ISZERO SWAP1 MSTORE PUSH1 0xFF DUP2 PUSH1 0x8 SHR AND ISZERO ISZERO PUSH1 0x20 PUSH2 0x120 MLOAD ADD MSTORE PUSH1 0x1 DUP1 PUSH1 0xA0 SHL SUB SWAP1 PUSH1 0x10 SHR AND PUSH1 0x40 PUSH2 0x120 MLOAD ADD MSTORE PUSH2 0x1C0 MLOAD PUSH1 0x60 PUSH2 0x120 MLOAD ADD MSTORE PUSH1 0x1 DUP1 PUSH1 0xA0 SHL SUB PUSH2 0x2C0 MLOAD AND PUSH1 0x80 PUSH2 0x120 MLOAD ADD MSTORE PUSH1 0xFF PUSH2 0x2C0 MLOAD PUSH1 0xA0 SHR AND ISZERO ISZERO PUSH1 0xA0 PUSH2 0x120 MLOAD ADD MSTORE PUSH1 0xA0 MLOAD PUSH1 0xC0 PUSH2 0x120 MLOAD ADD MSTORE PUSH1 0xE0 PUSH2 0x120 MLOAD ADD MSTORE PUSH2 0x100 PUSH2 0x120 MLOAD ADD MSTORE PUSH2 0x120 DUP1 MLOAD ADD MSTORE PUSH2 0x140 PUSH2 0x120 MLOAD ADD MSTORE PUSH2 0x160 PUSH2 0x120 MLOAD ADD MSTORE PUSH2 0x180 PUSH2 0x120 MLOAD ADD MSTORE PUSH2 0x1A0 PUSH2 0x120 MLOAD ADD MSTORE PUSH2 0x1C0 PUSH2 0x120 MLOAD ADD MSTORE PUSH2 0x1E0 PUSH2 0x120 MLOAD ADD MSTORE PUSH2 0x200 PUSH2 0x120 MLOAD ADD MSTORE PUSH2 0x220 PUSH2 0x120 MLOAD ADD MSTORE PUSH2 0x240 PUSH2 0x120 MLOAD ADD MSTORE PUSH1 0xE0 MLOAD PUSH2 0x260 PUSH2 0x120 MLOAD ADD MSTORE PUSH2 0x180 MLOAD PUSH2 0x280 PUSH2 0x120 MLOAD ADD MSTORE PUSH2 0x1A0 MLOAD PUSH2 0x2A0 PUSH2 0x120 MLOAD ADD MSTORE PUSH2 0x200 MLOAD PUSH2 0x2C0 PUSH2 0x120 MLOAD ADD MSTORE PUSH1 0xC0 MLOAD PUSH2 0x2E0 PUSH2 0x120 MLOAD ADD MSTORE PUSH2 0x1BC2 PUSH2 0x1BAC PUSH2 0x1B96 PUSH2 0x1B80 PUSH2 0x3A0 DUP1 PUSH2 0x300 PUSH2 0x120 MLOAD ADD MSTORE PUSH2 0x120 MLOAD ADD PUSH2 0x300 MLOAD PUSH2 0x39BA JUMP JUMPDEST PUSH2 0x120 MLOAD PUSH2 0x320 DUP2 DUP4 SUB SWAP2 ADD MSTORE PUSH2 0x240 MLOAD PUSH2 0x39BA JUMP JUMPDEST PUSH2 0x120 MLOAD PUSH2 0x340 DUP2 DUP4 SUB SWAP2 ADD MSTORE PUSH2 0x280 MLOAD PUSH2 0x39BA JUMP JUMPDEST PUSH2 0x120 MLOAD PUSH2 0x360 DUP2 DUP4 SUB SWAP2 ADD MSTORE PUSH2 0x100 MLOAD PUSH2 0x39BA JUMP JUMPDEST PUSH2 0x260 MLOAD ISZERO ISZERO PUSH2 0x380 PUSH2 0x120 MLOAD ADD MSTORE PUSH2 0x120 MLOAD DUP1 SWAP2 SUB SWAP1 RETURN JUMPDEST POP CALLVALUE PUSH2 0x2CF JUMPI PUSH1 0x20 CALLDATASIZE PUSH1 0x3 NOT ADD SLT PUSH2 0x2CF JUMPI PUSH1 0x4 CALLDATALOAD SWAP1 PUSH1 0x4 SLOAD DUP3 LT ISZERO PUSH2 0x2CF JUMPI PUSH1 0x20 PUSH2 0x1C06 DUP4 PUSH2 0x3AB2 JUMP JUMPDEST SWAP1 SLOAD PUSH1 0x40 MLOAD PUSH1 0x3 SWAP3 SWAP1 SWAP3 SHL SHR PUSH1 0x1 PUSH1 0x1 PUSH1 0xA0 SHL SUB AND DUP2 MSTORE RETURN JUMPDEST POP CALLVALUE PUSH2 0x2CF JUMPI PUSH1 0x20 CALLDATASIZE PUSH1 0x3 NOT ADD SLT PUSH2 0x2CF JUMPI PUSH1 0x60 PUSH2 0x1C43 PUSH2 0x1C3E PUSH2 0x39A4 JUMP JUMPDEST PUSH2 0x4C69 JUMP JUMPDEST SWAP1 PUSH1 0x40 MLOAD SWAP3 ISZERO ISZERO DUP4 MSTORE PUSH1 0x20 DUP4 ADD MSTORE PUSH1 0x40 DUP3 ADD MSTORE RETURN JUMPDEST POP CALLVALUE PUSH2 0x2CF JUMPI PUSH1 0x40 CALLDATASIZE PUSH1 0x3 NOT ADD SLT PUSH2 0x2CF JUMPI PUSH2 0x1C72 PUSH2 0x39A4 JUMP JUMPDEST PUSH2 0x1C7A PUSH2 0x3AA3 JUMP JUMPDEST SWAP1 PUSH2 0x1C83 PUSH2 0x3CD3 JUMP JUMPDEST PUSH1 0x1 PUSH1 0x1 PUSH1 0xA0 SHL SUB DUP2 DUP2 AND SWAP3 SWAP1 DUP4 ISZERO PUSH2 0x609 JUMPI CALLER DUP6 MSTORE PUSH1 0x3 SWAP3 PUSH1 0x20 SWAP4 DUP1 DUP6 MSTORE PUSH1 0x40 DUP8 KECCAK256 SWAP2 DUP3 SLOAD SWAP2 PUSH2 0x1CB9 PUSH1 0xFF DUP5 PUSH1 0x8 SHR AND PUSH2 0x3C40 JUMP JUMPDEST PUSH1 0xD DUP5 ADD DUP1 SLOAD SWAP1 PUSH9 0x70C1CC73B00C80000 DUP1 DUP4 LT PUSH2 0x1F25 JUMPI DUP11 DUP13 MSTORE DUP4 DUP11 MSTORE PUSH1 0xFF PUSH1 0x40 DUP14 KECCAK256 SLOAD AND PUSH2 0x1EE0 JUMPI PUSH9 0x70C1CC73B00C7FFFF NOT DUP4 ADD SWAP3 DUP4 GT PUSH2 0x1ECC JUMPI DUP1 DUP4 LT PUSH2 0x1EC1 JUMPI PUSH2 0x1D09 SWAP1 DUP1 SWAP4 PUSH2 0x3C79 JUMP JUMPDEST SWAP1 SSTORE PUSH1 0xC DUP6 ADD PUSH2 0x1D1A DUP3 DUP3 SLOAD PUSH2 0x3D34 JUMP JUMPDEST SWAP1 SSTORE PUSH2 0x1D2B PUSH1 0xE DUP7 ADD SWAP2 DUP3 SLOAD PUSH2 0x3D34 JUMP JUMPDEST SWAP1 SSTORE PUSH9 0x15245655B102580000 PUSH1 0xB DUP6 ADD SSTORE PUSH2 0x1D4C DUP6 DUP5 PUSH1 0x10 SHR AND SWAP7 CALLER PUSH2 0x44E6 JUMP JUMPDEST PUSH1 0x0 DUP11 DUP2 MSTORE DUP4 DUP11 MSTORE PUSH1 0x40 SWAP1 KECCAK256 DUP1 SLOAD PUSH2 0xFF01 PUSH1 0x1 PUSH1 0xB0 SHL SUB NOT AND PUSH3 0x10000 PUSH1 0x1 PUSH1 0xB0 SHL SUB SWAP1 SWAP7 AND SWAP6 SWAP1 SWAP6 OR PUSH1 0x1 OR DUP6 SSTORE PUSH1 0x2 DUP6 ADD DUP1 SLOAD PUSH1 0x1 PUSH1 0x1 PUSH1 0xA8 SHL SUB NOT AND SWAP3 DUP9 AND SWAP3 DUP4 OR DUP3 ISZERO ISZERO PUSH1 0xA0 SHL PUSH1 0xFF PUSH1 0xA0 SHL AND OR SWAP1 SSTORE PUSH1 0x12 DUP6 ADD DUP1 SLOAD PUSH1 0x1 PUSH1 0x1 PUSH1 0xA0 SHL SUB NOT SWAP1 DUP2 AND CALLER OR SWAP1 SWAP2 SSTORE TIMESTAMP PUSH1 0x14 SWAP1 SWAP7 ADD SWAP6 SWAP1 SWAP6 SSTORE PUSH1 0x4 SLOAD SWAP1 SWAP8 SWAP1 SWAP5 SWAP1 SWAP2 PUSH1 0x1 PUSH1 0x40 SHL DUP7 LT ISZERO PUSH2 0x1684 JUMPI PUSH32 0x30016ED357540281A6CFF6143637E72B48E105D85D15DF66B0AAFFBD23790240 SWAP9 PUSH1 0x13 SWAP9 DUP13 PUSH2 0x1E0F DUP10 PUSH1 0x1 PUSH2 0x1E5D SWAP12 ADD PUSH1 0x4 SSTORE PUSH2 0x3AB2 JUMP JUMPDEST SWAP1 SWAP3 DUP4 SLOAD SWAP2 DUP10 SHL SWAP3 DUP4 SHL SWAP3 SHL NOT AND OR SWAP1 SSTORE PUSH2 0x1E2B PUSH1 0x5 SLOAD PUSH2 0x3CC4 JUMP JUMPDEST PUSH1 0x5 SSTORE ISZERO PUSH2 0x1EA8 JUMPI DUP12 MSTORE DUP3 DUP10 MSTORE DUP10 DUP4 PUSH1 0x40 DUP14 KECCAK256 ADD SWAP2 DUP3 SLOAD AND OR SWAP1 SSTORE JUMPDEST DUP1 PUSH2 0x1E8A JUMPI JUMPDEST POP POP PUSH2 0x1E58 DUP2 PUSH2 0x3D41 JUMP JUMPDEST PUSH2 0x3E37 JUMP JUMPDEST ADD SWAP2 PUSH2 0x1E69 DUP4 SLOAD PUSH2 0x3CC4 JUMP JUMPDEST DUP1 SWAP4 SSTORE PUSH1 0x40 MLOAD SWAP3 DUP4 MSTORE CALLER SWAP3 LOG3 PUSH1 0x1 PUSH1 0x0 DUP1 MLOAD PUSH1 0x20 PUSH2 0x4D95 DUP4 CODECOPY DUP2 MLOAD SWAP2 MSTORE SSTORE DUP1 RETURN JUMPDEST DUP10 MSTORE DUP7 MSTORE PUSH1 0x1 PUSH1 0x40 DUP10 KECCAK256 ADD PUSH2 0x1E9F DUP2 SLOAD PUSH2 0x3CC4 JUMP JUMPDEST SWAP1 SSTORE CODESIZE DUP1 PUSH2 0x1E4D JUMP JUMPDEST DUP12 MSTORE DUP3 DUP10 MSTORE DUP10 PUSH1 0x4 PUSH1 0x40 DUP14 KECCAK256 ADD SWAP2 DUP3 SLOAD AND OR SWAP1 SSTORE PUSH2 0x1E47 JUMP JUMPDEST POP PUSH2 0x1D09 DUP3 DUP1 PUSH2 0x3C79 JUMP JUMPDEST PUSH4 0x4E487B71 PUSH1 0xE0 SHL DUP13 MSTORE PUSH1 0x11 PUSH1 0x4 MSTORE PUSH1 0x24 DUP13 REVERT JUMPDEST PUSH1 0x40 MLOAD PUSH3 0x461BCD PUSH1 0xE5 SHL DUP2 MSTORE PUSH1 0x4 DUP2 ADD DUP12 SWAP1 MSTORE PUSH1 0x1E PUSH1 0x24 DUP3 ADD MSTORE PUSH32 0x5375622D6163636F756E7420616C726561647920726567697374657265640000 PUSH1 0x44 DUP3 ADD MSTORE PUSH1 0x64 SWAP1 REVERT JUMPDEST PUSH1 0x40 MLOAD PUSH4 0x7DB32BD PUSH1 0xE3 SHL DUP2 MSTORE PUSH1 0x4 SWAP1 REVERT JUMPDEST POP CALLVALUE PUSH2 0x2CF JUMPI DUP1 PUSH1 0x3 NOT CALLDATASIZE ADD SLT PUSH2 0x2CF JUMPI PUSH1 0x20 PUSH1 0x40 MLOAD PUSH1 0xA DUP2 MSTORE RETURN JUMPDEST POP CALLVALUE PUSH2 0x2CF JUMPI DUP1 PUSH1 0x3 NOT CALLDATASIZE ADD SLT PUSH2 0x2CF JUMPI SLOAD PUSH1 0x40 MLOAD PUSH1 0x1 PUSH1 0x1 PUSH1 0xA0 SHL SUB SWAP1 SWAP2 AND DUP2 MSTORE PUSH1 0x20 SWAP1 RETURN JUMPDEST POP CALLVALUE PUSH2 0x2CF JUMPI PUSH2 0x1F89 CALLDATASIZE PUSH2 0x3A2E JUMP JUMPDEST PUSH2 0x1F91 PUSH2 0x3C14 JUMP JUMPDEST PUSH2 0x1F99 PUSH2 0x3CD3 JUMP JUMPDEST PUSH1 0xFF PUSH1 0xA SLOAD AND ISZERO PUSH2 0x21AD JUMPI PUSH2 0x1FAE SWAP1 DUP3 PUSH2 0x3D34 JUMP JUMPDEST PUSH1 0x4 SLOAD DUP1 DUP3 GT PUSH2 0x21A5 JUMPI JUMPDEST POP DUP3 SWAP1 DUP3 JUMPDEST DUP2 DUP2 LT PUSH2 0x2165 JUMPI POP PUSH1 0x9 SWAP1 DUP2 SLOAD SWAP4 DUP4 ISZERO ISZERO DUP1 PUSH2 0x215C JUMPI JUMPDEST ISZERO PUSH2 0x2144 JUMPI DUP1 JUMPDEST DUP3 DUP2 LT PUSH2 0x2081 JUMPI POP SWAP1 DUP6 SWAP3 SWAP2 JUMPDEST DUP2 DUP2 LT PUSH2 0x2043 JUMPI DUP4 PUSH32 0x7F4A5B69BEA14A6FC05326671A02E90D4A88855C83A18529C260057B1BF61A85 PUSH1 0x40 DUP9 DUP9 DUP5 DUP9 SSTORE PUSH1 0xFF NOT PUSH1 0xA SLOAD AND PUSH1 0xA SSTORE DUP3 MLOAD SWAP2 DUP3 MSTORE PUSH1 0x20 DUP3 ADD MSTORE LOG1 PUSH1 0x1 PUSH1 0x0 DUP1 MLOAD PUSH1 0x20 PUSH2 0x4D95 DUP4 CODECOPY DUP2 MLOAD SWAP2 MSTORE SSTORE DUP1 RETURN JUMPDEST PUSH2 0x2078 SWAP2 SWAP3 SWAP4 POP PUSH2 0x2053 DUP2 PUSH2 0x3AB2 JUMP JUMPDEST SWAP1 SLOAD PUSH1 0x3 SWAP2 DUP3 SHL SHR PUSH1 0x1 PUSH1 0x1 PUSH1 0xA0 SHL SUB AND DUP9 MSTORE PUSH1 0x20 MSTORE PUSH1 0x40 DUP8 KECCAK256 PUSH1 0x11 ADD DUP8 SWAP1 SSTORE PUSH2 0x3CC4 JUMP JUMPDEST SWAP1 DUP6 SWAP3 SWAP2 PUSH2 0x1FE9 JUMP JUMPDEST DUP1 DUP7 DUP9 PUSH2 0x2090 PUSH2 0x2132 SWAP5 PUSH2 0x3AB2 JUMP JUMPDEST SWAP1 SLOAD PUSH1 0x3 SWAP2 DUP3 SHL SHR PUSH1 0x1 PUSH1 0x1 PUSH1 0xA0 SHL SUB AND DUP1 DUP4 MSTORE PUSH1 0x20 DUP3 DUP2 MSTORE PUSH1 0x40 DUP5 KECCAK256 PUSH1 0x11 ADD SLOAD SWAP2 SWAP5 SWAP3 SWAP1 DUP11 DUP13 DUP5 ISZERO PUSH2 0x2137 JUMPI PUSH32 0xB05ABF391BCC5D117D31727729F0DA5B0E3EB5F91A478372995EFA128696C406 SWAP7 PUSH2 0x20F6 PUSH1 0x40 SWAP8 SWAP3 PUSH2 0x20F1 DUP9 DUP11 SWAP6 PUSH2 0x3DE0 JUMP JUMPDEST PUSH2 0x3DF3 JUMP JUMPDEST SWAP5 DUP10 DUP3 MSTORE DUP1 DUP6 MSTORE PUSH1 0x8 DUP4 DUP4 KECCAK256 ADD PUSH2 0x210E DUP8 DUP3 SLOAD PUSH2 0x3D34 JUMP JUMPDEST SWAP1 SSTORE DUP10 DUP3 MSTORE DUP5 MSTORE KECCAK256 ADD PUSH2 0x2122 DUP4 DUP3 SLOAD PUSH2 0x3D34 JUMP JUMPDEST SWAP1 SSTORE DUP4 MLOAD SWAP3 DUP4 MSTORE DUP3 ADD MSTORE LOG2 PUSH2 0x3CC4 JUMP JUMPDEST PUSH2 0x1FDC JUMP JUMPDEST POP POP POP POP POP POP POP POP PUSH2 0x3CC4 JUMP JUMPDEST PUSH2 0x2150 DUP6 PUSH1 0x8 SLOAD PUSH2 0x3D34 JUMP JUMPDEST PUSH1 0x8 SSTORE SWAP1 DUP6 SWAP3 SWAP2 PUSH2 0x1FE9 JUMP JUMPDEST POP DUP5 ISZERO ISZERO PUSH2 0x1FD5 JUMP JUMPDEST SWAP2 PUSH2 0x219A PUSH2 0x21A0 SWAP2 PUSH2 0x2176 DUP6 PUSH2 0x3AB2 JUMP JUMPDEST SWAP1 SLOAD PUSH1 0x3 SWAP2 DUP3 SHL SHR PUSH1 0x1 PUSH1 0x1 PUSH1 0xA0 SHL SUB AND DUP9 MSTORE PUSH1 0x20 MSTORE PUSH1 0x40 DUP8 KECCAK256 PUSH1 0x11 ADD SLOAD SWAP1 PUSH2 0x3D34 JUMP JUMPDEST SWAP3 PUSH2 0x3CC4 JUMP JUMPDEST PUSH2 0x1FBE JUMP JUMPDEST SWAP1 POP CODESIZE PUSH2 0x1FB9 JUMP JUMPDEST PUSH1 0x40 MLOAD PUSH4 0x418826BF PUSH1 0xE1 SHL DUP2 MSTORE PUSH1 0x4 SWAP1 REVERT JUMPDEST POP CALLVALUE PUSH2 0x2CF JUMPI DUP1 PUSH1 0x3 NOT CALLDATASIZE ADD SLT PUSH2 0x2CF JUMPI PUSH1 0x20 PUSH1 0x40 MLOAD PUSH9 0x2B5E3AF16B1880000 DUP2 MSTORE RETURN JUMPDEST POP CALLVALUE PUSH2 0x2CF JUMPI DUP1 PUSH1 0x3 NOT CALLDATASIZE ADD SLT PUSH2 0x2CF JUMPI PUSH1 0x20 PUSH1 0x6 SLOAD PUSH1 0x40 MLOAD SWAP1 DUP2 MSTORE RETURN JUMPDEST POP CALLVALUE PUSH2 0x2CF JUMPI DUP1 PUSH1 0x3 NOT CALLDATASIZE ADD SLT PUSH2 0x2CF JUMPI PUSH2 0x221A PUSH2 0x3C14 JUMP JUMPDEST PUSH1 0x0 DUP1 SLOAD PUSH1 0x1 PUSH1 0x1 PUSH1 0xA0 SHL SUB NOT DUP2 AND DUP3 SSTORE PUSH1 0x1 PUSH1 0x1 PUSH1 0xA0 SHL SUB AND PUSH1 0x0 DUP1 MLOAD PUSH1 0x20 PUSH2 0x4D55 DUP4 CODECOPY DUP2 MLOAD SWAP2 MSTORE DUP3 DUP1 LOG3 DUP1 RETURN JUMPDEST POP CALLVALUE PUSH2 0x2CF JUMPI DUP1 PUSH1 0x3 NOT CALLDATASIZE ADD SLT PUSH2 0x2CF JUMPI PUSH1 0x1 SLOAD PUSH1 0x40 MLOAD PUSH3 0x3144BD PUSH1 0xE3 SHL DUP2 MSTORE PUSH1 0x1 PUSH1 0x1 PUSH1 0xA0 SHL SUB SWAP1 SWAP2 AND SWAP2 PUSH1 0x20 DUP1 DUP4 PUSH1 0x4 DUP2 DUP8 GAS STATICCALL SWAP3 DUP4 ISZERO PUSH2 0x838 JUMPI DUP3 SWAP4 PUSH2 0x22F0 JUMPI JUMPDEST POP DUP1 PUSH1 0x4 SWAP5 PUSH1 0x40 MLOAD SWAP6 DUP7 DUP1 SWAP3 PUSH4 0x10F4CBA7 PUSH1 0xE2 SHL DUP3 MSTORE GAS STATICCALL SWAP2 DUP3 ISZERO PUSH2 0xCCF JUMPI SWAP2 PUSH2 0x22C0 JUMPI JUMPDEST PUSH1 0x40 DUP1 SWAP5 POP MLOAD SWAP3 DUP4 MSTORE DUP3 ADD MSTORE RETURN JUMPDEST DUP1 SWAP2 POP DUP4 DUP2 RETURNDATASIZE DUP4 GT PUSH2 0x22E9 JUMPI JUMPDEST PUSH2 0x22D7 DUP2 DUP4 PUSH2 0x3B4B JUMP JUMPDEST DUP2 ADD SUB SLT PUSH2 0x8D8 JUMPI PUSH1 0x40 SWAP3 MLOAD SWAP1 PUSH2 0x22B2 JUMP JUMPDEST POP RETURNDATASIZE PUSH2 0x22CD JUMP JUMPDEST SWAP4 SWAP3 POP DUP1 DUP5 DUP2 RETURNDATASIZE DUP4 GT PUSH2 0x231A JUMPI JUMPDEST PUSH2 0x2308 DUP2 DUP4 PUSH2 0x3B4B JUMP JUMPDEST DUP2 ADD SUB SLT PUSH2 0x8D8 JUMPI SWAP3 MLOAD SWAP2 SWAP3 DUP1 PUSH2 0x228D JUMP JUMPDEST POP RETURNDATASIZE PUSH2 0x22FE JUMP JUMPDEST POP CALLVALUE PUSH2 0x2CF JUMPI PUSH1 0x20 CALLDATASIZE PUSH1 0x3 NOT ADD SLT PUSH2 0x2CF JUMPI PUSH1 0x40 SWAP1 PUSH1 0x1 PUSH1 0x1 PUSH1 0xA0 SHL SUB PUSH2 0x2346 PUSH2 0x39A4 JUMP JUMPDEST AND DUP2 MSTORE PUSH1 0x3 PUSH1 0x20 MSTORE KECCAK256 DUP1 DUP1 DUP1 DUP1 DUP1 DUP1 DUP1 DUP1 DUP1 DUP1 DUP1 DUP1 DUP1 SLOAD PUSH1 0x1 DUP3 ADD SLOAD PUSH2 0x1E0 MSTORE PUSH1 0x2 DUP3 ADD SLOAD PUSH1 0x80 MSTORE PUSH1 0x14 PUSH1 0x7 PUSH1 0x11 PUSH1 0xF PUSH1 0xD PUSH1 0xC PUSH1 0xB PUSH1 0xA PUSH1 0x9 PUSH1 0x8 PUSH1 0x6 PUSH1 0x5 DUP14 PUSH1 0x3 PUSH1 0x1 DUP1 PUSH1 0xA0 SHL SUB SWAP2 ADD SLOAD AND SWAP14 PUSH1 0x4 PUSH1 0x1 DUP1 PUSH1 0xA0 SHL SUB SWAP2 ADD SLOAD AND SWAP15 ADD SLOAD SWAP15 ADD SLOAD SWAP15 ADD SLOAD SWAP15 ADD SLOAD SWAP15 ADD SLOAD SWAP15 ADD SLOAD SWAP15 ADD SLOAD SWAP15 ADD SLOAD SWAP15 ADD SLOAD SWAP15 ADD SLOAD SWAP15 ADD SLOAD SWAP15 PUSH1 0x1 DUP1 PUSH1 0xA0 SHL SUB PUSH1 0x12 DUP3 ADD SLOAD AND PUSH2 0x2A0 MSTORE PUSH1 0x13 DUP2 ADD SLOAD PUSH2 0x2E0 MSTORE ADD SLOAD PUSH2 0x160 MSTORE PUSH1 0x40 MLOAD DUP1 PUSH2 0x220 MSTORE PUSH1 0xFF DUP3 AND ISZERO ISZERO SWAP1 MSTORE PUSH1 0xFF DUP2 PUSH1 0x8 SHR AND ISZERO ISZERO PUSH1 0x20 PUSH2 0x220 MLOAD ADD MSTORE PUSH1 0x1 DUP1 PUSH1 0xA0 SHL SUB SWAP1 PUSH1 0x10 SHR AND PUSH1 0x40 PUSH2 0x220 MLOAD ADD MSTORE PUSH2 0x1E0 MLOAD PUSH1 0x60 PUSH2 0x220 MLOAD ADD MSTORE PUSH1 0x1 DUP1 PUSH1 0xA0 SHL SUB PUSH1 0x80 MLOAD AND PUSH1 0x80 PUSH2 0x220 MLOAD ADD MSTORE PUSH1 0xFF PUSH1 0x80 MLOAD PUSH1 0xA0 SHR AND ISZERO ISZERO PUSH1 0xA0 PUSH2 0x220 MLOAD ADD MSTORE PUSH1 0xC0 PUSH2 0x220 MLOAD ADD MSTORE PUSH1 0xE0 PUSH2 0x220 MLOAD ADD MSTORE PUSH2 0x100 PUSH2 0x220 MLOAD ADD MSTORE PUSH2 0x120 PUSH2 0x220 MLOAD ADD MSTORE PUSH2 0x140 PUSH2 0x220 MLOAD ADD MSTORE PUSH2 0x160 PUSH2 0x220 MLOAD ADD MSTORE PUSH2 0x180 PUSH2 0x220 MLOAD ADD MSTORE PUSH2 0x1A0 PUSH2 0x220 MLOAD ADD MSTORE PUSH2 0x1C0 PUSH2 0x220 MLOAD ADD MSTORE PUSH2 0x1E0 PUSH2 0x220 MLOAD ADD MSTORE PUSH2 0x200 PUSH2 0x220 MLOAD ADD MSTORE PUSH2 0x220 DUP1 MLOAD ADD MSTORE PUSH2 0x240 PUSH2 0x220 MLOAD ADD MSTORE PUSH2 0x2A0 MLOAD PUSH2 0x260 PUSH2 0x220 MLOAD ADD MSTORE PUSH2 0x2E0 MLOAD PUSH2 0x280 PUSH2 0x220 MLOAD ADD MSTORE PUSH2 0x160 MLOAD PUSH2 0x2A0 PUSH2 0x220 MLOAD ADD MSTORE PUSH2 0x2C0 PUSH2 0x220 MLOAD RETURN JUMPDEST POP CALLVALUE PUSH2 0x2CF JUMPI PUSH1 0x20 DUP1 PUSH1 0x3 NOT CALLDATASIZE ADD SLT PUSH2 0x843 JUMPI PUSH1 0x4 CALLDATALOAD SWAP1 PUSH2 0x250B PUSH2 0x3CD3 JUMP JUMPDEST DUP2 ISZERO PUSH2 0xB6D JUMPI CALLER DUP4 MSTORE PUSH1 0x3 DUP2 MSTORE PUSH1 0x40 DUP4 KECCAK256 SWAP1 PUSH1 0xFF DUP3 SLOAD PUSH1 0x8 SHR AND ISZERO PUSH2 0x27EE JUMPI PUSH1 0x8 DUP3 ADD DUP1 SLOAD DUP5 DUP2 LT PUSH2 0x27DC JUMPI DUP5 PUSH2 0x2541 SWAP2 PUSH2 0x3C79 JUMP JUMPDEST SWAP1 SSTORE PUSH1 0xA DUP3 ADD PUSH2 0x2552 DUP5 DUP3 SLOAD PUSH2 0x3D34 JUMP JUMPDEST SWAP1 SSTORE PUSH1 0x40 MLOAD PUSH4 0x70A08231 PUSH1 0xE0 SHL DUP1 DUP3 MSTORE ADDRESS PUSH1 0x4 DUP4 ADD MSTORE PUSH1 0x1 PUSH1 0x1 PUSH1 0xA0 SHL SUB PUSH32 0x0 DUP2 AND SWAP3 SWAP2 DUP8 SWAP2 DUP6 DUP5 PUSH1 0x24 DUP2 DUP9 GAS STATICCALL SWAP4 DUP5 ISZERO PUSH2 0xA27 JUMPI DUP4 SWAP5 PUSH2 0x27A9 JUMPI JUMPDEST POP PUSH1 0x1 SLOAD AND DUP1 EXTCODESIZE ISZERO PUSH2 0x834 JUMPI DUP3 DUP1 SWAP2 PUSH1 0x24 PUSH1 0x40 MLOAD DUP1 SWAP7 DUP2 SWAP4 PUSH4 0x72424D99 PUSH1 0xE1 SHL DUP4 MSTORE DUP14 PUSH1 0x4 DUP5 ADD MSTORE GAS CALL SWAP3 DUP4 ISZERO PUSH2 0x279C JUMPI DUP7 SWAP4 PUSH2 0x277F JUMPI JUMPDEST POP POP PUSH1 0x24 PUSH1 0x40 MLOAD DUP1 SWAP6 DUP2 SWAP4 DUP3 MSTORE ADDRESS PUSH1 0x4 DUP4 ADD MSTORE GAS STATICCALL DUP1 ISZERO PUSH2 0x2774 JUMPI DUP7 SWAP1 PUSH2 0x2745 JUMPI JUMPDEST PUSH2 0x2611 SWAP3 POP PUSH2 0x3C79 JUMP JUMPDEST SWAP2 PUSH1 0xA DUP4 MUL DUP4 DUP2 DIV PUSH1 0xA EQ DUP5 ISZERO OR ISZERO PUSH2 0x10AE JUMPI PUSH32 0x8F7262D5A031D4D671E1FDB0CDDCD26D37185226F9E82F2F18877141AC1963EB SWAP4 SWAP3 SWAP2 PUSH2 0x2659 PUSH1 0x64 PUSH2 0x271A SWAP4 DIV DUP1 SWAP6 PUSH2 0x3C79 JUMP JUMPDEST SWAP3 PUSH1 0xF DUP3 ADD PUSH2 0x2669 DUP7 DUP3 SLOAD PUSH2 0x3D34 JUMP JUMPDEST SWAP1 SSTORE PUSH1 0x10 DUP3 ADD PUSH2 0x267A DUP7 DUP3 SLOAD PUSH2 0x3D34 JUMP JUMPDEST SWAP1 SSTORE PUSH32 0x2B1D2104E84DD4DABB0CCA024171F783AB1E1C9DC1AF9D60A2361596653A99C4 PUSH1 0x40 MLOAD SWAP2 DUP7 DUP4 MSTORE CALLER SWAP3 LOG2 PUSH1 0xB DUP2 ADD DUP1 SLOAD SWAP2 DUP9 DUP4 ISZERO PUSH2 0x2738 JUMPI POP PUSH1 0xD SWAP1 DUP4 DUP7 GT ISZERO PUSH2 0x2732 JUMPI DUP4 JUMPDEST DUP1 SWAP4 PUSH2 0x26EA DUP3 PUSH2 0x26D3 DUP2 DUP12 PUSH2 0x3C79 JUMP JUMPDEST SWAP8 PUSH1 0xC DUP7 ADD PUSH2 0x26E3 DUP4 DUP3 SLOAD PUSH2 0x3D34 JUMP JUMPDEST SWAP1 SSTORE PUSH2 0x3C79 JUMP JUMPDEST SWAP1 SSTORE PUSH2 0x26FB PUSH1 0xE DUP4 ADD SWAP2 DUP3 SLOAD PUSH2 0x3D34 JUMP JUMPDEST SWAP1 SSTORE JUMPDEST ADD PUSH2 0x270A DUP4 DUP3 SLOAD PUSH2 0x3D34 JUMP JUMPDEST SWAP1 SSTORE PUSH1 0x40 MLOAD SWAP5 DUP6 SWAP5 CALLER SWAP9 DUP7 PUSH2 0x3E13 JUMP JUMPDEST SUB SWAP1 LOG2 PUSH1 0x1 PUSH1 0x0 DUP1 MLOAD PUSH1 0x20 PUSH2 0x4D95 DUP4 CODECOPY DUP2 MLOAD SWAP2 MSTORE SSTORE DUP1 RETURN JUMPDEST DUP6 PUSH2 0x26C3 JUMP JUMPDEST SWAP2 POP SWAP2 POP PUSH1 0xD DUP5 SWAP3 PUSH2 0x26FE JUMP JUMPDEST POP DUP3 DUP3 DUP2 RETURNDATASIZE DUP4 GT PUSH2 0x276D JUMPI JUMPDEST PUSH2 0x275B DUP2 DUP4 PUSH2 0x3B4B JUMP JUMPDEST DUP2 ADD SUB SLT PUSH2 0x8D8 JUMPI PUSH2 0x2611 SWAP2 MLOAD PUSH2 0x2607 JUMP JUMPDEST POP RETURNDATASIZE PUSH2 0x2751 JUMP JUMPDEST PUSH1 0x40 MLOAD RETURNDATASIZE DUP9 DUP3 RETURNDATACOPY RETURNDATASIZE SWAP1 REVERT JUMPDEST PUSH2 0x278B SWAP2 SWAP3 SWAP4 POP PUSH2 0x3B38 JUMP JUMPDEST PUSH2 0x2798 JUMPI DUP4 SWAP1 DUP8 CODESIZE PUSH2 0x25E5 JUMP JUMPDEST DUP7 DUP1 REVERT JUMPDEST POP PUSH1 0x40 MLOAD SWAP1 RETURNDATASIZE SWAP1 DUP3 RETURNDATACOPY RETURNDATASIZE SWAP1 REVERT JUMPDEST DUP7 DUP1 SWAP3 SWAP6 POP DUP2 SWAP5 POP RETURNDATASIZE DUP4 GT PUSH2 0x27D5 JUMPI JUMPDEST PUSH2 0x27C3 DUP2 DUP4 PUSH2 0x3B4B JUMP JUMPDEST DUP2 ADD SUB SLT PUSH2 0x8D8 JUMPI DUP8 SWAP2 MLOAD SWAP3 CODESIZE PUSH2 0x25AD JUMP JUMPDEST POP RETURNDATASIZE PUSH2 0x27B9 JUMP JUMPDEST PUSH1 0x40 MLOAD PUSH4 0x208975E7 PUSH1 0xE2 SHL DUP2 MSTORE PUSH1 0x4 SWAP1 REVERT JUMPDEST PUSH1 0x40 MLOAD PUSH4 0xABA47339 PUSH1 0xE0 SHL DUP2 MSTORE PUSH1 0x4 SWAP1 REVERT JUMPDEST POP CALLVALUE PUSH2 0x2CF JUMPI PUSH1 0x80 CALLDATASIZE PUSH1 0x3 NOT ADD SLT PUSH2 0x2CF JUMPI PUSH1 0x4 CALLDATALOAD PUSH1 0x1 PUSH1 0x1 PUSH1 0x40 SHL SUB DUP2 GT PUSH2 0x843 JUMPI PUSH2 0x2831 SWAP1 CALLDATASIZE SWAP1 PUSH1 0x4 ADD PUSH2 0x3A76 JUMP JUMPDEST SWAP2 SWAP1 PUSH1 0x24 CALLDATALOAD PUSH1 0x1 PUSH1 0x1 PUSH1 0x40 SHL SUB DUP2 GT PUSH2 0x834 JUMPI PUSH2 0x2852 SWAP1 CALLDATASIZE SWAP1 PUSH1 0x4 ADD PUSH2 0x3A76 JUMP JUMPDEST PUSH1 0x44 CALLDATALOAD PUSH1 0x1 PUSH1 0x1 PUSH1 0x40 SHL SUB DUP2 GT PUSH2 0x887 JUMPI PUSH2 0x2871 SWAP1 CALLDATASIZE SWAP1 PUSH1 0x4 ADD PUSH2 0x3A76 JUMP JUMPDEST SWAP1 SWAP2 PUSH1 0x64 CALLDATALOAD PUSH1 0x1 PUSH1 0x1 PUSH1 0x40 SHL SUB DUP2 GT PUSH2 0x2798 JUMPI PUSH2 0x2892 SWAP1 CALLDATASIZE SWAP1 PUSH1 0x4 ADD PUSH2 0x3A76 JUMP JUMPDEST SWAP5 SWAP1 SWAP8 CALLER DUP9 MSTORE PUSH1 0x3 PUSH1 0x20 MSTORE PUSH2 0x28AD PUSH1 0xFF PUSH1 0x40 DUP11 KECCAK256 SLOAD AND PUSH2 0x4A79 JUMP JUMPDEST CALLER DUP9 MSTORE PUSH1 0x3 PUSH1 0x20 MSTORE PUSH1 0x40 DUP9 KECCAK256 SWAP7 PUSH1 0x1 PUSH1 0x1 PUSH1 0x40 SHL SUB DUP3 GT PUSH2 0x2D6C JUMPI DUP2 SWAP1 PUSH2 0x28D7 PUSH1 0x15 DUP11 ADD SLOAD PUSH2 0x3AE3 JUMP JUMPDEST PUSH1 0x1F DUP2 GT PUSH2 0x2D1C JUMPI JUMPDEST POP DUP10 SWAP1 PUSH1 0x1F DUP4 GT PUSH1 0x1 EQ PUSH2 0x2CB0 JUMPI DUP11 SWAP3 PUSH2 0x2CA5 JUMPI JUMPDEST POP POP DUP2 PUSH1 0x1 SHL SWAP2 PUSH1 0x0 NOT SWAP1 PUSH1 0x3 SHL SHR NOT AND OR PUSH1 0x15 DUP8 ADD SSTORE JUMPDEST PUSH1 0x1 PUSH1 0x1 PUSH1 0x40 SHL SUB DUP3 GT PUSH2 0x2C91 JUMPI DUP2 SWAP1 PUSH2 0x292A PUSH1 0x16 DUP9 ADD SLOAD PUSH2 0x3AE3 JUMP JUMPDEST PUSH1 0x1F DUP2 GT PUSH2 0x2C3E JUMPI JUMPDEST POP DUP8 SWAP1 PUSH1 0x1F DUP4 GT PUSH1 0x1 EQ PUSH2 0x2BD2 JUMPI DUP9 SWAP3 PUSH2 0x2BC7 JUMPI JUMPDEST POP POP DUP2 PUSH1 0x1 SHL SWAP2 PUSH1 0x0 NOT SWAP1 PUSH1 0x3 SHL SHR NOT AND OR PUSH1 0x16 DUP6 ADD SSTORE JUMPDEST PUSH1 0x17 DUP5 ADD SWAP2 PUSH1 0x1 PUSH1 0x1 PUSH1 0x40 SHL SUB DUP3 GT PUSH2 0x135C JUMPI DUP2 SWAP1 PUSH2 0x297F DUP5 SLOAD PUSH2 0x3AE3 JUMP JUMPDEST PUSH1 0x1F DUP2 GT PUSH2 0x2B77 JUMPI JUMPDEST POP DUP7 SWAP1 PUSH1 0x1F DUP4 GT PUSH1 0x1 EQ PUSH2 0x2B11 JUMPI DUP8 SWAP3 PUSH2 0x2B06 JUMPI JUMPDEST POP POP DUP2 PUSH1 0x1 SHL SWAP2 PUSH1 0x0 NOT SWAP1 PUSH1 0x3 SHL SHR NOT AND OR SWAP1 SSTORE JUMPDEST PUSH1 0x18 DUP3 ADD SWAP1 PUSH1 0x1 PUSH1 0x1 PUSH1 0x40 SHL SUB DUP2 GT PUSH2 0x2AF2 JUMPI PUSH2 0x29CF DUP3 SLOAD PUSH2 0x3AE3 JUMP JUMPDEST PUSH1 0x1F DUP2 GT PUSH2 0x2AAD JUMPI JUMPDEST POP DUP4 PUSH1 0x1F DUP3 GT PUSH1 0x1 EQ PUSH2 0x2A46 JUMPI DUP2 SWAP1 DUP6 SWAP7 PUSH1 0x19 SWAP7 SWAP3 PUSH2 0x2A3B JUMPI JUMPDEST POP POP DUP2 PUSH1 0x1 SHL SWAP2 PUSH1 0x0 NOT SWAP1 PUSH1 0x3 SHL SHR NOT AND OR SWAP1 SSTORE JUMPDEST ADD DUP1 SLOAD PUSH1 0xFF NOT AND PUSH1 0x1 OR SWAP1 SSTORE CALLER PUSH32 0xBE4EC58A792F909E102EE3D745D0C3B34A4D437A54D903C4DB098D31C556422F DUP3 DUP1 LOG2 DUP1 RETURN JUMPDEST ADD CALLDATALOAD SWAP1 POP CODESIZE DUP1 PUSH2 0x29F2 JUMP JUMPDEST DUP3 DUP6 MSTORE PUSH1 0x20 DUP6 KECCAK256 SWAP1 PUSH1 0x1F NOT DUP4 AND DUP7 JUMPDEST DUP2 DUP2 LT PUSH2 0x2A95 JUMPI POP SWAP7 DUP4 SWAP3 SWAP2 PUSH1 0x1 SWAP5 PUSH1 0x19 SWAP9 SWAP10 LT PUSH2 0x2A7B JUMPI JUMPDEST POP POP POP DUP2 SHL ADD SWAP1 SSTORE PUSH2 0x2A07 JUMP JUMPDEST ADD CALLDATALOAD PUSH1 0x0 NOT PUSH1 0x3 DUP5 SWAP1 SHL PUSH1 0xF8 AND SHR NOT AND SWAP1 SSTORE CODESIZE DUP1 DUP1 PUSH2 0x2A6E JUMP JUMPDEST SWAP2 SWAP3 PUSH1 0x20 PUSH1 0x1 DUP2 SWAP3 DUP7 DUP13 ADD CALLDATALOAD DUP2 SSTORE ADD SWAP5 ADD SWAP3 ADD PUSH2 0x2A55 JUMP JUMPDEST DUP3 DUP6 MSTORE PUSH1 0x20 DUP6 KECCAK256 PUSH1 0x1F DUP4 ADD PUSH1 0x5 SHR DUP2 ADD SWAP2 PUSH1 0x20 DUP5 LT PUSH2 0x2AE8 JUMPI JUMPDEST PUSH1 0x1F ADD PUSH1 0x5 SHR ADD SWAP1 JUMPDEST DUP2 DUP2 LT PUSH2 0x2ADD JUMPI POP PUSH2 0x29D8 JUMP JUMPDEST DUP6 DUP2 SSTORE PUSH1 0x1 ADD PUSH2 0x2AD0 JUMP JUMPDEST SWAP1 SWAP2 POP DUP2 SWAP1 PUSH2 0x2AC7 JUMP JUMPDEST PUSH4 0x4E487B71 PUSH1 0xE0 SHL DUP5 MSTORE PUSH1 0x41 PUSH1 0x4 MSTORE PUSH1 0x24 DUP5 REVERT JUMPDEST ADD CALLDATALOAD SWAP1 POP CODESIZE DUP1 PUSH2 0x299D JUMP JUMPDEST DUP5 DUP9 MSTORE PUSH1 0x20 DUP9 KECCAK256 SWAP3 POP SWAP1 PUSH1 0x1F NOT DUP5 AND DUP9 JUMPDEST DUP2 DUP2 LT PUSH2 0x2B5F JUMPI POP SWAP1 DUP5 PUSH1 0x1 SWAP6 SWAP5 SWAP4 SWAP3 LT PUSH2 0x2B45 JUMPI JUMPDEST POP POP POP DUP2 SHL ADD SWAP1 SSTORE PUSH2 0x29B2 JUMP JUMPDEST ADD CALLDATALOAD PUSH1 0x0 NOT PUSH1 0x3 DUP5 SWAP1 SHL PUSH1 0xF8 AND SHR NOT AND SWAP1 SSTORE CODESIZE DUP1 DUP1 PUSH2 0x2B38 JUMP JUMPDEST SWAP2 SWAP4 PUSH1 0x20 PUSH1 0x1 DUP2 SWAP3 DUP8 DUP8 ADD CALLDATALOAD DUP2 SSTORE ADD SWAP6 ADD SWAP3 ADD PUSH2 0x2B22 JUMP JUMPDEST SWAP1 SWAP2 POP DUP4 DUP8 MSTORE PUSH1 0x20 DUP8 KECCAK256 PUSH1 0x1F DUP5 ADD PUSH1 0x5 SHR DUP2 ADD SWAP2 PUSH1 0x20 DUP6 LT PUSH2 0x2BBD JUMPI JUMPDEST SWAP1 PUSH1 0x1F DUP6 SWAP5 SWAP4 SWAP3 ADD PUSH1 0x5 SHR ADD SWAP1 JUMPDEST DUP2 DUP2 LT PUSH2 0x2BAF JUMPI POP PUSH2 0x2988 JUMP JUMPDEST DUP9 DUP2 SSTORE DUP5 SWAP4 POP PUSH1 0x1 ADD PUSH2 0x2BA2 JUMP JUMPDEST SWAP1 SWAP2 POP DUP2 SWAP1 PUSH2 0x2B94 JUMP JUMPDEST ADD CALLDATALOAD SWAP1 POP CODESIZE DUP1 PUSH2 0x2948 JUMP JUMPDEST PUSH1 0x16 DUP9 ADD DUP10 MSTORE PUSH1 0x20 DUP10 KECCAK256 SWAP3 POP SWAP1 PUSH1 0x1F NOT DUP5 AND DUP10 JUMPDEST DUP2 DUP2 LT PUSH2 0x2C26 JUMPI POP SWAP1 DUP5 PUSH1 0x1 SWAP6 SWAP5 SWAP4 SWAP3 LT PUSH2 0x2C0C JUMPI JUMPDEST POP POP POP DUP2 SHL ADD PUSH1 0x16 DUP6 ADD SSTORE PUSH2 0x2960 JUMP JUMPDEST ADD CALLDATALOAD PUSH1 0x0 NOT PUSH1 0x3 DUP5 SWAP1 SHL PUSH1 0xF8 AND SHR NOT AND SWAP1 SSTORE CODESIZE DUP1 DUP1 PUSH2 0x2BFC JUMP JUMPDEST SWAP2 SWAP4 PUSH1 0x20 PUSH1 0x1 DUP2 SWAP3 DUP8 DUP8 ADD CALLDATALOAD DUP2 SSTORE ADD SWAP6 ADD SWAP3 ADD PUSH2 0x2BE6 JUMP JUMPDEST SWAP1 SWAP2 POP PUSH1 0x16 DUP8 ADD DUP9 MSTORE PUSH1 0x20 DUP9 KECCAK256 PUSH1 0x1F DUP5 ADD PUSH1 0x5 SHR DUP2 ADD SWAP2 PUSH1 0x20 DUP6 LT PUSH2 0x2C87 JUMPI JUMPDEST SWAP1 PUSH1 0x1F DUP6 SWAP5 SWAP4 SWAP3 ADD PUSH1 0x5 SHR ADD SWAP1 JUMPDEST DUP2 DUP2 LT PUSH2 0x2C79 JUMPI POP PUSH2 0x2933 JUMP JUMPDEST DUP10 DUP2 SSTORE DUP5 SWAP4 POP PUSH1 0x1 ADD PUSH2 0x2C6C JUMP JUMPDEST SWAP1 SWAP2 POP DUP2 SWAP1 PUSH2 0x2C5E JUMP JUMPDEST PUSH4 0x4E487B71 PUSH1 0xE0 SHL DUP8 MSTORE PUSH1 0x41 PUSH1 0x4 MSTORE PUSH1 0x24 DUP8 REVERT JUMPDEST ADD CALLDATALOAD SWAP1 POP CODESIZE DUP1 PUSH2 0x28F5 JUMP JUMPDEST PUSH1 0x15 DUP11 ADD DUP12 MSTORE PUSH1 0x20 DUP12 KECCAK256 SWAP3 POP SWAP1 PUSH1 0x1F NOT DUP5 AND DUP12 JUMPDEST DUP2 DUP2 LT PUSH2 0x2D04 JUMPI POP SWAP1 DUP5 PUSH1 0x1 SWAP6 SWAP5 SWAP4 SWAP3 LT PUSH2 0x2CEA JUMPI JUMPDEST POP POP POP DUP2 SHL ADD PUSH1 0x15 DUP8 ADD SSTORE PUSH2 0x290D JUMP JUMPDEST ADD CALLDATALOAD PUSH1 0x0 NOT PUSH1 0x3 DUP5 SWAP1 SHL PUSH1 0xF8 AND SHR NOT AND SWAP1 SSTORE CODESIZE DUP1 DUP1 PUSH2 0x2CDA JUMP JUMPDEST SWAP2 SWAP4 PUSH1 0x20 PUSH1 0x1 DUP2 SWAP3 DUP8 DUP8 ADD CALLDATALOAD DUP2 SSTORE ADD SWAP6 ADD SWAP3 ADD PUSH2 0x2CC4 JUMP JUMPDEST SWAP1 SWAP2 POP PUSH1 0x15 DUP10 ADD DUP11 MSTORE PUSH1 0x20 DUP11 KECCAK256 PUSH1 0x1F DUP5 ADD PUSH1 0x5 SHR DUP2 ADD PUSH1 0x20 DUP6 LT PUSH2 0x2D65 JUMPI JUMPDEST SWAP1 DUP5 SWAP4 SWAP3 SWAP2 JUMPDEST PUSH1 0x1F DUP4 ADD PUSH1 0x5 SHR DUP3 ADD DUP2 LT PUSH2 0x2D57 JUMPI POP POP PUSH2 0x28E0 JUMP JUMPDEST DUP13 DUP2 SSTORE DUP6 SWAP5 POP PUSH1 0x1 ADD PUSH2 0x2D41 JUMP JUMPDEST POP DUP1 PUSH2 0x2D3B JUMP JUMPDEST PUSH4 0x4E487B71 PUSH1 0xE0 SHL DUP10 MSTORE PUSH1 0x41 PUSH1 0x4 MSTORE PUSH1 0x24 DUP10 REVERT JUMPDEST POP CALLVALUE PUSH2 0x2CF JUMPI DUP1 PUSH1 0x3 NOT CALLDATASIZE ADD SLT PUSH2 0x2CF JUMPI PUSH1 0x6 SLOAD PUSH1 0x7 SLOAD SWAP1 PUSH2 0x2DAA PUSH1 0x8 SLOAD PUSH1 0x40 MLOAD SWAP4 DUP5 SWAP4 DUP5 PUSH2 0x3A60 JUMP JUMPDEST SUB SWAP1 RETURN JUMPDEST POP CALLVALUE PUSH2 0x2CF JUMPI PUSH1 0x20 CALLDATASIZE PUSH1 0x3 NOT ADD SLT PUSH2 0x2CF JUMPI PUSH1 0x20 PUSH2 0x63A PUSH1 0x4 CALLDATALOAD PUSH2 0x4B62 JUMP JUMPDEST POP CALLVALUE PUSH2 0x2CF JUMPI PUSH1 0x20 CALLDATASIZE PUSH1 0x3 NOT ADD SLT PUSH2 0x2CF JUMPI PUSH1 0x20 PUSH2 0x63A PUSH1 0x4 CALLDATALOAD PUSH2 0x4C27 JUMP JUMPDEST POP CALLVALUE PUSH2 0x2CF JUMPI DUP1 PUSH1 0x3 NOT CALLDATASIZE ADD SLT PUSH2 0x2CF JUMPI PUSH1 0x20 PUSH1 0x4 SLOAD PUSH1 0x40 MLOAD SWAP1 DUP2 MSTORE RETURN JUMPDEST POP CALLVALUE PUSH2 0x2CF JUMPI PUSH1 0x20 CALLDATASIZE PUSH1 0x3 NOT ADD SLT PUSH2 0x2CF JUMPI PUSH2 0x2E24 PUSH2 0x3CD3 JUMP JUMPDEST CALLER DUP2 MSTORE PUSH1 0xD PUSH1 0x20 MSTORE PUSH2 0x2E3D PUSH1 0x40 DUP3 KECCAK256 SLOAD PUSH1 0x4 CALLDATALOAD LT PUSH2 0x4B26 JUMP JUMPDEST CALLER DUP2 MSTORE PUSH1 0xD PUSH1 0x20 MSTORE PUSH2 0x2E54 PUSH1 0x4 CALLDATALOAD PUSH1 0x40 DUP4 KECCAK256 PUSH2 0x4B0A JUMP JUMPDEST POP PUSH1 0x3 DUP2 ADD SWAP1 DUP2 SLOAD SWAP2 PUSH1 0xFF DUP4 PUSH1 0x8 SHR AND ISZERO PUSH2 0x32F5 JUMPI PUSH2 0xFF00 NOT DUP4 AND SWAP1 SSTORE SLOAD SWAP1 DUP2 SWAP1 PUSH1 0xFF AND PUSH2 0x3176 JUMPI PUSH1 0x5 DUP3 MUL DUP3 DUP2 DIV PUSH1 0x5 EQ DUP4 ISZERO OR ISZERO PUSH2 0x1472 JUMPI CALLER DUP5 MSTORE PUSH1 0x3 PUSH1 0x20 MSTORE PUSH1 0x40 DUP5 KECCAK256 SLOAD PUSH1 0x64 SWAP1 SWAP2 DIV SWAP1 PUSH1 0x1 PUSH1 0x1 PUSH1 0xA0 SHL SUB SWAP1 PUSH1 0x10 SHR DUP2 AND DUP1 ISZERO ISZERO DUP1 PUSH2 0x3162 JUMPI JUMPDEST PUSH2 0x30D0 JUMPI JUMPDEST POP POP POP JUMPDEST PUSH1 0x40 MLOAD PUSH4 0x70A08231 PUSH1 0xE0 SHL DUP1 DUP3 MSTORE ADDRESS PUSH1 0x4 DUP4 ADD MSTORE PUSH1 0x1 PUSH1 0x1 PUSH1 0xA0 SHL SUB PUSH32 0x0 DUP2 AND SWAP4 SWAP2 SWAP3 SWAP2 DUP7 SWAP2 PUSH1 0x20 DUP5 PUSH1 0x24 DUP2 DUP10 GAS STATICCALL SWAP4 DUP5 ISZERO PUSH2 0xA27 JUMPI DUP4 SWAP5 PUSH2 0x309C JUMPI JUMPDEST POP PUSH1 0x1 SLOAD AND DUP1 EXTCODESIZE ISZERO PUSH2 0x834 JUMPI PUSH1 0x24 DUP4 SWAP3 PUSH1 0x40 MLOAD SWAP5 DUP6 SWAP4 DUP5 SWAP3 PUSH4 0x72424D99 PUSH1 0xE1 SHL DUP5 MSTORE PUSH1 0x4 DUP5 ADD MSTORE GAS CALL DUP1 ISZERO PUSH2 0x2774 JUMPI PUSH2 0x3089 JUMPI JUMPDEST POP PUSH1 0x40 MLOAD SWAP2 DUP3 MSTORE ADDRESS PUSH1 0x4 DUP4 ADD MSTORE PUSH1 0x20 DUP3 PUSH1 0x24 DUP2 DUP7 GAS STATICCALL DUP1 ISZERO PUSH2 0x892 JUMPI DUP6 SWAP1 PUSH2 0x3055 JUMPI JUMPDEST PUSH2 0x2F7E SWAP3 POP PUSH2 0x3C79 JUMP JUMPDEST SWAP1 DUP2 PUSH2 0x2FAA JUMPI JUMPDEST POP PUSH2 0x271A PUSH1 0x0 DUP1 MLOAD PUSH1 0x20 PUSH2 0x4DB5 DUP4 CODECOPY DUP2 MLOAD SWAP2 MSTORE SWAP2 PUSH1 0x40 MLOAD SWAP2 DUP3 SWAP2 CALLER SWAP6 PUSH1 0x4 CALLDATALOAD DUP5 PUSH2 0x3A60 JUMP JUMPDEST PUSH1 0x20 PUSH1 0x40 MLOAD DUP1 SWAP3 PUSH4 0xA9059CBB PUSH1 0xE0 SHL DUP3 MSTORE DUP2 DUP8 DUP2 PUSH2 0x2FCC DUP9 CALLER PUSH1 0x4 DUP5 ADD PUSH2 0x3CA9 JUMP JUMPDEST SUB SWAP3 GAS CALL SWAP1 DUP2 ISZERO PUSH2 0xB50 JUMPI DUP5 SWAP2 PUSH2 0x3002 JUMPI JUMPDEST POP PUSH1 0x0 DUP1 MLOAD PUSH1 0x20 PUSH2 0x4DB5 DUP4 CODECOPY DUP2 MLOAD SWAP2 MSTORE SWAP2 PUSH2 0x2FFB PUSH2 0x271A SWAP3 PUSH2 0x4AB6 JUMP JUMPDEST SWAP2 POP PUSH2 0x2F85 JUMP JUMPDEST SWAP1 POP PUSH1 0x20 DUP2 RETURNDATASIZE PUSH1 0x20 GT PUSH2 0x304D JUMPI JUMPDEST DUP2 PUSH2 0x301D PUSH1 0x20 SWAP4 DUP4 PUSH2 0x3B4B JUMP JUMPDEST DUP2 ADD SUB SLT PUSH2 0xA1B JUMPI PUSH1 0x0 DUP1 MLOAD PUSH1 0x20 PUSH2 0x4DB5 DUP4 CODECOPY DUP2 MLOAD SWAP2 MSTORE SWAP2 PUSH2 0x2FFB PUSH2 0x3044 PUSH2 0x271A SWAP4 PUSH2 0x3C9C JUMP JUMPDEST SWAP3 POP POP SWAP2 PUSH2 0x2FDE JUMP JUMPDEST RETURNDATASIZE SWAP2 POP PUSH2 0x3010 JUMP JUMPDEST POP PUSH1 0x20 DUP3 RETURNDATASIZE PUSH1 0x20 GT PUSH2 0x3081 JUMPI JUMPDEST DUP2 PUSH2 0x306F PUSH1 0x20 SWAP4 DUP4 PUSH2 0x3B4B JUMP JUMPDEST DUP2 ADD SUB SLT PUSH2 0x8D8 JUMPI PUSH2 0x2F7E SWAP2 MLOAD PUSH2 0x2F74 JUMP JUMPDEST RETURNDATASIZE SWAP2 POP PUSH2 0x3062 JUMP JUMPDEST PUSH2 0x3095 SWAP1 SWAP6 SWAP2 SWAP6 PUSH2 0x3B38 JUMP JUMPDEST SWAP4 CODESIZE PUSH2 0x2F51 JUMP JUMPDEST SWAP1 SWAP4 POP PUSH1 0x20 DUP2 RETURNDATASIZE PUSH1 0x20 GT PUSH2 0x30C8 JUMPI JUMPDEST DUP2 PUSH2 0x30B8 PUSH1 0x20 SWAP4 DUP4 PUSH2 0x3B4B JUMP JUMPDEST DUP2 ADD SUB SLT PUSH2 0x834 JUMPI MLOAD SWAP3 CODESIZE PUSH2 0x2F1D JUMP JUMPDEST RETURNDATASIZE SWAP2 POP PUSH2 0x30AB JUMP JUMPDEST DUP3 PUSH1 0x20 SWAP2 PUSH2 0x30FA SWAP4 PUSH1 0x1 SLOAD AND SWAP1 DUP9 PUSH1 0x40 MLOAD DUP1 SWAP7 DUP2 SWAP6 DUP3 SWAP5 PUSH4 0xA9059CBB PUSH1 0xE0 SHL DUP5 MSTORE PUSH1 0x4 DUP5 ADD PUSH2 0x3CA9 JUMP JUMPDEST SUB SWAP3 GAS CALL SWAP1 DUP2 ISZERO PUSH2 0x892 JUMPI DUP6 SWAP2 PUSH2 0x3128 JUMPI JUMPDEST POP PUSH2 0x3119 JUMPI JUMPDEST DUP1 DUP1 PUSH2 0x2EBD JUMP JUMPDEST PUSH2 0x3122 SWAP2 PUSH2 0x3C79 JUMP JUMPDEST CODESIZE PUSH2 0x3112 JUMP JUMPDEST SWAP1 POP PUSH1 0x20 DUP2 RETURNDATASIZE PUSH1 0x20 GT PUSH2 0x315A JUMPI JUMPDEST DUP2 PUSH2 0x3143 PUSH1 0x20 SWAP4 DUP4 PUSH2 0x3B4B JUMP JUMPDEST DUP2 ADD SUB SLT PUSH2 0x887 JUMPI PUSH2 0x3154 SWAP1 PUSH2 0x3C9C JUMP JUMPDEST CODESIZE PUSH2 0x310C JUMP JUMPDEST RETURNDATASIZE SWAP2 POP PUSH2 0x3136 JUMP JUMPDEST POP DUP1 DUP7 MSTORE PUSH1 0xFF PUSH1 0x40 DUP8 KECCAK256 SLOAD PUSH1 0x8 SHR AND PUSH2 0x2EB8 JUMP JUMPDEST SWAP2 PUSH1 0x40 MLOAD SWAP2 PUSH2 0x3184 DUP4 PUSH2 0x3B1D JUMP JUMPDEST PUSH1 0x5 DUP4 MSTORE PUSH1 0x2 PUSH1 0x20 DUP5 ADD MSTORE PUSH1 0x1 PUSH1 0x40 DUP5 ADD MSTORE PUSH1 0x1 PUSH1 0x60 DUP5 ADD MSTORE PUSH1 0x1 PUSH1 0x80 DUP5 ADD MSTORE CALLER DUP3 MSTORE PUSH1 0x3 PUSH1 0x20 MSTORE PUSH1 0x40 DUP3 KECCAK256 SLOAD PUSH1 0x1 DUP1 PUSH1 0xA0 SHL SUB SWAP1 PUSH1 0x10 SHR AND SWAP1 DUP3 SWAP2 JUMPDEST PUSH1 0xFF DUP4 AND PUSH1 0x5 DUP2 LT ISZERO PUSH2 0x32EA JUMPI PUSH2 0x31E7 PUSH1 0xFF PUSH2 0x31DF PUSH1 0x64 SWAP4 DUP10 PUSH2 0x4AF9 JUMP JUMPDEST MLOAD AND DUP5 PUSH2 0x3DE0 JUMP JUMPDEST DIV DUP1 ISZERO PUSH2 0x3205 JUMPI PUSH1 0x1 PUSH1 0x1 PUSH1 0xA0 SHL SUB DUP3 AND ISZERO ISZERO DUP1 PUSH2 0x32C8 JUMPI JUMPDEST PUSH2 0x3231 JUMPI JUMPDEST POP PUSH1 0x1 PUSH1 0x1 PUSH1 0xA0 SHL SUB SWAP1 DUP2 AND DUP5 MSTORE PUSH1 0x3 PUSH1 0x20 MSTORE PUSH1 0x40 DUP5 KECCAK256 SLOAD PUSH1 0x10 SHR AND SWAP2 PUSH2 0x322B SWAP1 PUSH2 0x4333 JUMP JUMPDEST SWAP2 PUSH2 0x31C1 JUMP JUMPDEST PUSH1 0x1 SLOAD PUSH1 0x40 MLOAD PUSH4 0xA9059CBB PUSH1 0xE0 SHL DUP2 MSTORE SWAP1 PUSH1 0x20 SWAP1 DUP3 SWAP1 PUSH1 0x1 PUSH1 0x1 PUSH1 0xA0 SHL SUB AND DUP2 DUP10 DUP2 PUSH2 0x3261 DUP9 DUP11 PUSH1 0x4 DUP5 ADD PUSH2 0x3CA9 JUMP JUMPDEST SUB SWAP3 GAS CALL SWAP1 DUP2 ISZERO PUSH2 0x2774 JUMPI DUP7 SWAP2 PUSH2 0x328A JUMPI JUMPDEST POP ISZERO PUSH2 0x3205 JUMPI PUSH2 0x3283 SWAP2 SWAP7 PUSH2 0x3C79 JUMP JUMPDEST SWAP5 CODESIZE PUSH2 0x3205 JUMP JUMPDEST SWAP1 POP PUSH1 0x20 DUP2 RETURNDATASIZE PUSH1 0x20 GT PUSH2 0x32C0 JUMPI JUMPDEST DUP2 PUSH2 0x32A5 PUSH1 0x20 SWAP4 DUP4 PUSH2 0x3B4B JUMP JUMPDEST DUP2 ADD SUB SLT PUSH2 0x32BC JUMPI PUSH2 0x32B6 SWAP1 PUSH2 0x3C9C JUMP JUMPDEST CODESIZE PUSH2 0x3273 JUMP JUMPDEST DUP6 DUP1 REVERT JUMPDEST RETURNDATASIZE SWAP2 POP PUSH2 0x3298 JUMP JUMPDEST POP PUSH1 0x1 PUSH1 0x1 PUSH1 0xA0 SHL SUB DUP3 AND DUP6 MSTORE PUSH1 0x3 PUSH1 0x20 MSTORE PUSH1 0x40 DUP6 KECCAK256 SLOAD PUSH1 0x8 SHR PUSH1 0xFF AND PUSH2 0x3200 JUMP JUMPDEST POP POP SWAP3 POP POP SWAP2 PUSH2 0x2EC1 JUMP JUMPDEST PUSH1 0x40 MLOAD PUSH3 0x461BCD PUSH1 0xE5 SHL DUP2 MSTORE PUSH1 0x20 PUSH1 0x4 DUP3 ADD MSTORE PUSH1 0x10 PUSH1 0x24 DUP3 ADD MSTORE PUSH16 0x105B1C9958591E481D5B9CDD185AD959 PUSH1 0x82 SHL PUSH1 0x44 DUP3 ADD MSTORE PUSH1 0x64 SWAP1 REVERT JUMPDEST POP CALLVALUE PUSH2 0x2CF JUMPI PUSH2 0x3355 PUSH2 0x333F CALLDATASIZE PUSH2 0x3A2E JUMP JUMPDEST SWAP1 PUSH2 0x3348 PUSH2 0x3C14 JUMP JUMPDEST PUSH2 0x3350 PUSH2 0x3CD3 JUMP JUMPDEST PUSH2 0x4720 JUMP JUMPDEST PUSH1 0x1 PUSH1 0x0 DUP1 MLOAD PUSH1 0x20 PUSH2 0x4D95 DUP4 CODECOPY DUP2 MLOAD SWAP2 MSTORE SSTORE DUP1 RETURN JUMPDEST POP CALLVALUE PUSH2 0x2CF JUMPI PUSH1 0x40 CALLDATASIZE PUSH1 0x3 NOT ADD SLT PUSH2 0x2CF JUMPI PUSH2 0x3384 PUSH2 0x39A4 JUMP JUMPDEST PUSH1 0x24 CALLDATALOAD SWAP1 PUSH2 0x3390 PUSH2 0x3C14 JUMP JUMPDEST PUSH1 0x1 PUSH1 0x1 PUSH1 0xA0 SHL SUB AND SWAP1 DUP2 ISZERO PUSH2 0x609 JUMPI PUSH1 0x8 SLOAD DUP2 DUP2 LT PUSH2 0x33F4 JUMPI DUP2 PUSH2 0x33D8 PUSH32 0xBA443E8671971C36CDEB74F87321041DAFF421230CBC5E36CB835269ED1D8B7E SWAP4 PUSH1 0x20 SWAP4 PUSH2 0x3C79 JUMP JUMPDEST PUSH1 0x8 SSTORE DUP4 DUP6 MSTORE PUSH1 0x3 DUP3 MSTORE PUSH1 0x8 PUSH1 0x40 DUP7 KECCAK256 ADD PUSH2 0x5A6 DUP3 DUP3 SLOAD PUSH2 0x3D34 JUMP JUMPDEST PUSH1 0x40 MLOAD PUSH3 0x461BCD PUSH1 0xE5 SHL DUP2 MSTORE PUSH1 0x20 PUSH1 0x4 DUP3 ADD MSTORE PUSH1 0x12 PUSH1 0x24 DUP3 ADD MSTORE PUSH18 0x115E18D959591CC818591B5A5B881C1BDBDB PUSH1 0x72 SHL PUSH1 0x44 DUP3 ADD MSTORE PUSH1 0x64 SWAP1 REVERT JUMPDEST POP CALLVALUE PUSH2 0x2CF JUMPI PUSH1 0x20 CALLDATASIZE PUSH1 0x3 NOT ADD SLT PUSH2 0x2CF JUMPI PUSH1 0x20 SWAP1 PUSH1 0x40 SWAP1 PUSH1 0x1 PUSH1 0x1 PUSH1 0xA0 SHL SUB PUSH2 0x3456 PUSH2 0x39A4 JUMP JUMPDEST AND DUP2 MSTORE PUSH1 0xC DUP4 MSTORE KECCAK256 SLOAD PUSH1 0x40 MLOAD SWAP1 DUP2 MSTORE RETURN JUMPDEST POP CALLVALUE PUSH2 0x2CF JUMPI DUP1 PUSH1 0x3 NOT CALLDATASIZE ADD SLT PUSH2 0x2CF JUMPI PUSH1 0x1 SLOAD PUSH1 0x40 MLOAD PUSH1 0x1 PUSH1 0x1 PUSH1 0xA0 SHL SUB SWAP1 SWAP2 AND DUP2 MSTORE PUSH1 0x20 SWAP1 RETURN JUMPDEST POP CALLVALUE PUSH2 0x2CF JUMPI PUSH1 0x20 CALLDATASIZE PUSH1 0x3 NOT ADD SLT PUSH2 0x2CF JUMPI PUSH2 0x34AA PUSH2 0x39A4 JUMP JUMPDEST PUSH2 0x34B2 PUSH2 0x3C14 JUMP JUMPDEST PUSH1 0x1 PUSH1 0x1 PUSH1 0xA0 SHL SUB AND DUP1 ISZERO PUSH2 0x609 JUMPI PUSH1 0x1 DUP1 SLOAD PUSH1 0x1 PUSH1 0x1 PUSH1 0xA0 SHL SUB NOT AND DUP3 OR SWAP1 SSTORE PUSH1 0x40 MLOAD SWAP1 DUP2 MSTORE PUSH32 0xFA7BD61554593F4E69CDFFD255D3FE947352B02C7D3EC68059384934E4CFD47C SWAP1 PUSH1 0x20 SWAP1 LOG1 DUP1 RETURN JUMPDEST POP CALLVALUE PUSH2 0x2CF JUMPI PUSH1 0x20 DUP1 PUSH1 0x3 NOT CALLDATASIZE ADD SLT PUSH2 0x843 JUMPI SWAP1 PUSH1 0x1 PUSH1 0x1 PUSH1 0xA0 SHL SUB PUSH2 0x3526 PUSH2 0x39A4 JUMP JUMPDEST AND SWAP1 DUP2 DUP2 MSTORE PUSH1 0xD SWAP1 DUP2 DUP5 MSTORE PUSH1 0x40 DUP2 KECCAK256 SLOAD SWAP3 DUP2 SWAP1 DUP3 JUMPDEST DUP6 DUP2 LT PUSH2 0x3711 JUMPI POP PUSH2 0x354C DUP3 PUSH2 0x4D22 JUMP JUMPDEST SWAP5 PUSH2 0x3556 DUP4 PUSH2 0x4D22 JUMP JUMPDEST PUSH2 0x355F DUP5 PUSH2 0x4D22 JUMP JUMPDEST SWAP2 PUSH2 0x3569 DUP6 PUSH2 0x4D22 JUMP JUMPDEST SWAP4 PUSH2 0x358C PUSH2 0x3576 DUP8 PUSH2 0x44BB JUMP JUMPDEST SWAP7 PUSH2 0x3584 PUSH1 0x40 MLOAD SWAP9 DUP10 PUSH2 0x3B4B JUMP JUMPDEST DUP1 DUP9 MSTORE PUSH2 0x44BB JUMP JUMPDEST DUP7 DUP12 ADD SWAP9 SWAP1 PUSH1 0x1F NOT ADD CALLDATASIZE DUP11 CALLDATACOPY DUP8 SWAP2 DUP9 JUMPDEST DUP5 DUP2 LT PUSH2 0x3631 JUMPI POP POP POP POP POP DUP8 SWAP3 PUSH2 0x35E9 PUSH1 0xA0 SWAP9 SWAP10 SWAP4 PUSH2 0x35DB PUSH2 0x35F7 SWAP5 PUSH2 0x35CE PUSH1 0x40 MLOAD SWAP14 DUP14 DUP16 SWAP15 DUP16 SWAP1 DUP2 MSTORE ADD SWAP1 PUSH2 0x39FA JUMP JUMPDEST DUP13 DUP2 SUB DUP9 DUP15 ADD MSTORE SWAP1 PUSH2 0x39FA JUMP JUMPDEST SWAP1 DUP11 DUP3 SUB PUSH1 0x40 DUP13 ADD MSTORE PUSH2 0x39FA JUMP JUMPDEST SWAP1 DUP9 DUP3 SUB PUSH1 0x60 DUP11 ADD MSTORE PUSH2 0x39FA JUMP JUMPDEST SWAP3 DUP7 DUP5 SUB PUSH1 0x80 DUP9 ADD MSTORE MLOAD SWAP3 DUP4 DUP2 MSTORE ADD SWAP4 SWAP3 JUMPDEST DUP3 DUP2 LT PUSH2 0x3618 JUMPI POP POP POP POP SUB SWAP1 RETURN JUMPDEST DUP4 MLOAD ISZERO ISZERO DUP6 MSTORE DUP7 SWAP6 POP SWAP4 DUP2 ADD SWAP4 SWAP3 DUP2 ADD SWAP3 PUSH1 0x1 ADD PUSH2 0x3609 JUMP JUMPDEST DUP9 DUP14 DUP12 DUP10 SWAP16 SWAP13 SWAP12 SWAP14 SWAP15 DUP12 DUP2 SWAP11 SWAP12 DUP8 DUP5 MSTORE DUP9 DUP6 MSTORE DUP13 PUSH2 0x3652 DUP9 PUSH1 0x40 DUP8 KECCAK256 PUSH2 0x4B0A JUMP JUMPDEST POP SWAP5 PUSH1 0xFF SWAP7 DUP8 PUSH1 0x3 DUP1 SWAP9 ADD SLOAD PUSH1 0x8 SHR AND PUSH2 0x3686 JUMPI JUMPDEST POP POP POP POP POP POP POP POP POP PUSH2 0x3679 SWAP1 PUSH2 0x3CC4 JUMP JUMPDEST SWAP12 SWAP6 SWAP5 SWAP11 SWAP10 SWAP8 SWAP9 SWAP12 PUSH2 0x359C JUMP JUMPDEST SWAP4 DUP13 SWAP8 SWAP4 PUSH2 0x36FE SWAP10 SWAP8 SWAP4 DUP12 SWAP15 SWAP7 SWAP12 PUSH2 0x36BD DUP16 DUP16 PUSH2 0x3679 SWAP16 PUSH1 0x40 DUP10 DUP14 SWAP5 PUSH2 0x36F4 SWAP16 SWAP12 SWAP4 PUSH2 0x36B6 SWAP6 DUP10 SWAP6 MSTORE MSTORE KECCAK256 PUSH2 0x4B0A JUMP JUMPDEST POP SWAP7 PUSH2 0x44D2 JUMP JUMPDEST MSTORE PUSH2 0x36CA DUP8 DUP6 SLOAD SWAP3 PUSH2 0x44D2 JUMP JUMPDEST MSTORE PUSH2 0x36DA DUP7 PUSH1 0x1 DUP6 ADD SLOAD SWAP3 PUSH2 0x44D2 JUMP JUMPDEST MSTORE PUSH2 0x36EA DUP6 PUSH1 0x2 DUP5 ADD SLOAD SWAP3 PUSH2 0x44D2 JUMP JUMPDEST MSTORE ADD SLOAD AND SWAP3 PUSH2 0x44D2 JUMP JUMPDEST SWAP1 ISZERO ISZERO SWAP1 MSTORE PUSH2 0x3CC4 JUMP JUMPDEST SWAP4 SWAP1 POP DUP11 CODESIZE DUP1 DUP16 DUP12 DUP11 SWAP2 DUP16 DUP16 DUP15 SWAP2 PUSH2 0x3667 JUMP JUMPDEST DUP2 DUP5 SWAP4 SWAP6 SWAP7 SWAP8 SWAP5 MSTORE DUP6 DUP5 MSTORE PUSH1 0xFF PUSH1 0x3 PUSH2 0x372D DUP4 PUSH1 0x40 DUP8 KECCAK256 PUSH2 0x4B0A JUMP JUMPDEST POP ADD SLOAD PUSH1 0x8 SHR AND PUSH2 0x374D JUMPI JUMPDEST PUSH2 0x3742 SWAP1 PUSH2 0x3CC4 JUMP JUMPDEST SWAP6 SWAP5 SWAP4 SWAP2 SWAP3 SWAP6 PUSH2 0x353B JUMP JUMPDEST SWAP4 PUSH2 0x375A PUSH2 0x3742 SWAP2 PUSH2 0x3CC4 JUMP JUMPDEST SWAP5 SWAP1 POP PUSH2 0x3739 JUMP JUMPDEST POP CALLVALUE PUSH2 0x2CF JUMPI PUSH1 0x20 CALLDATASIZE PUSH1 0x3 NOT ADD SLT PUSH2 0x2CF JUMPI PUSH2 0x37EC SWAP1 PUSH1 0x40 SWAP1 PUSH1 0x1 PUSH1 0x1 PUSH1 0xA0 SHL SUB PUSH2 0x378B PUSH2 0x39A4 JUMP JUMPDEST AND DUP2 MSTORE PUSH1 0x3 PUSH1 0x20 MSTORE KECCAK256 PUSH1 0xFF PUSH1 0x19 DUP3 ADD SLOAD AND PUSH2 0x3816 PUSH2 0x37AB PUSH1 0x15 DUP5 ADD PUSH2 0x3B6E JUMP JUMPDEST SWAP3 PUSH2 0x3808 PUSH2 0x37BB PUSH1 0x16 DUP4 ADD PUSH2 0x3B6E JUMP JUMPDEST SWAP2 PUSH2 0x37FA PUSH2 0x37D7 PUSH1 0x18 PUSH2 0x37D0 PUSH1 0x17 DUP6 ADD PUSH2 0x3B6E JUMP JUMPDEST SWAP4 ADD PUSH2 0x3B6E JUMP JUMPDEST SWAP4 PUSH1 0x40 MLOAD SWAP9 DUP10 SWAP9 PUSH1 0xA0 DUP11 MSTORE PUSH1 0xA0 DUP11 ADD SWAP1 PUSH2 0x39BA JUMP JUMPDEST SWAP1 DUP9 DUP3 SUB PUSH1 0x20 DUP11 ADD MSTORE PUSH2 0x39BA JUMP JUMPDEST SWAP1 DUP7 DUP3 SUB PUSH1 0x40 DUP9 ADD MSTORE PUSH2 0x39BA JUMP JUMPDEST SWAP1 DUP5 DUP3 SUB PUSH1 0x60 DUP7 ADD MSTORE PUSH2 0x39BA JUMP JUMPDEST SWAP1 ISZERO ISZERO PUSH1 0x80 DUP4 ADD MSTORE SUB SWAP1 RETURN JUMPDEST POP CALLVALUE PUSH2 0x2CF JUMPI DUP1 PUSH1 0x3 NOT CALLDATASIZE ADD SLT PUSH2 0x2CF JUMPI PUSH2 0x383B PUSH2 0x3CD3 JUMP JUMPDEST CALLER DUP2 MSTORE PUSH1 0x3 PUSH1 0x20 MSTORE PUSH1 0x40 DUP2 KECCAK256 SLOAD PUSH1 0xFF DUP2 AND ISZERO PUSH2 0x27EE JUMPI PUSH1 0x8 SHR PUSH1 0xFF AND PUSH2 0x390C JUMPI PUSH1 0x40 MLOAD PUSH4 0x23B872DD PUSH1 0xE0 SHL DUP2 MSTORE CALLER PUSH1 0x4 DUP3 ADD MSTORE ADDRESS PUSH1 0x24 DUP3 ADD MSTORE PUSH9 0x70C1CC73B00C80000 PUSH1 0x44 DUP3 ADD MSTORE PUSH1 0x20 DUP2 PUSH1 0x64 DUP2 DUP6 PUSH32 0x0 PUSH1 0x1 PUSH1 0x1 PUSH1 0xA0 SHL SUB AND GAS CALL SWAP1 DUP2 ISZERO PUSH2 0x838 JUMPI DUP3 SWAP2 PUSH2 0x38D3 JUMPI JUMPDEST POP ISZERO PUSH2 0x847 JUMPI PUSH2 0x3355 CALLER PUSH2 0x3E37 JUMP JUMPDEST SWAP1 POP PUSH1 0x20 DUP2 RETURNDATASIZE DUP3 GT PUSH2 0x3904 JUMPI JUMPDEST DUP2 PUSH2 0x38ED PUSH1 0x20 SWAP4 DUP4 PUSH2 0x3B4B JUMP JUMPDEST DUP2 ADD SUB SLT PUSH2 0x843 JUMPI PUSH2 0x38FE SWAP1 PUSH2 0x3C9C JUMP JUMPDEST CODESIZE PUSH2 0x38C4 JUMP JUMPDEST RETURNDATASIZE SWAP2 POP PUSH2 0x38E0 JUMP JUMPDEST PUSH1 0x40 MLOAD PUSH4 0x7CDF3051 PUSH1 0xE1 SHL DUP2 MSTORE PUSH1 0x4 SWAP1 REVERT JUMPDEST POP CALLVALUE PUSH2 0x2CF JUMPI PUSH1 0x20 CALLDATASIZE PUSH1 0x3 NOT ADD SLT PUSH2 0x2CF JUMPI PUSH1 0x40 SWAP1 DUP2 SWAP1 PUSH1 0x1 PUSH1 0x1 PUSH1 0xA0 SHL SUB PUSH2 0x3945 PUSH2 0x39A4 JUMP JUMPDEST AND DUP2 MSTORE PUSH1 0x3 PUSH1 0x20 MSTORE KECCAK256 PUSH1 0x10 PUSH1 0xF DUP3 ADD SLOAD SWAP2 ADD SLOAD DUP3 MLOAD SWAP2 DUP3 MSTORE PUSH1 0x20 DUP3 ADD MSTORE RETURN JUMPDEST POP CALLVALUE PUSH2 0x2CF JUMPI DUP1 PUSH1 0x3 NOT CALLDATASIZE ADD SLT PUSH2 0x2CF JUMPI PUSH1 0x20 PUSH1 0x40 MLOAD PUSH9 0x70C1CC73B00C80000 DUP2 MSTORE RETURN JUMPDEST SWAP1 POP CALLVALUE PUSH2 0x843 JUMPI DUP2 PUSH1 0x3 NOT CALLDATASIZE ADD SLT PUSH2 0x843 JUMPI PUSH1 0x20 SWAP1 PUSH1 0x7 SLOAD DUP2 MSTORE RETURN JUMPDEST PUSH1 0x4 CALLDATALOAD SWAP1 PUSH1 0x1 PUSH1 0x1 PUSH1 0xA0 SHL SUB DUP3 AND DUP3 SUB PUSH2 0x8D8 JUMPI JUMP JUMPDEST SWAP2 SWAP1 DUP3 MLOAD SWAP3 DUP4 DUP3 MSTORE PUSH1 0x0 JUMPDEST DUP5 DUP2 LT PUSH2 0x39E6 JUMPI POP POP DUP3 PUSH1 0x0 PUSH1 0x20 DUP1 SWAP5 SWAP6 DUP5 ADD ADD MSTORE PUSH1 0x1F DUP1 NOT SWAP2 ADD AND ADD ADD SWAP1 JUMP JUMPDEST PUSH1 0x20 DUP2 DUP4 ADD DUP2 ADD MLOAD DUP5 DUP4 ADD DUP3 ADD MSTORE ADD PUSH2 0x39C5 JUMP JUMPDEST SWAP1 DUP2 MLOAD DUP1 DUP3 MSTORE PUSH1 0x20 DUP1 DUP1 SWAP4 ADD SWAP4 ADD SWAP2 PUSH1 0x0 JUMPDEST DUP3 DUP2 LT PUSH2 0x3A1A JUMPI POP POP POP POP SWAP1 JUMP JUMPDEST DUP4 MLOAD DUP6 MSTORE SWAP4 DUP2 ADD SWAP4 SWAP3 DUP2 ADD SWAP3 PUSH1 0x1 ADD PUSH2 0x3A0C JUMP JUMPDEST PUSH1 0x40 SWAP1 PUSH1 0x3 NOT ADD SLT PUSH2 0x8D8 JUMPI PUSH1 0x4 CALLDATALOAD SWAP1 PUSH1 0x24 CALLDATALOAD SWAP1 JUMP JUMPDEST CALLVALUE PUSH2 0x8D8 JUMPI PUSH1 0x0 CALLDATASIZE PUSH1 0x3 NOT ADD SLT PUSH2 0x8D8 JUMPI PUSH1 0x20 PUSH1 0x40 MLOAD PUSH1 0x1E DUP2 MSTORE RETURN JUMPDEST PUSH1 0x40 SWAP2 SWAP5 SWAP4 SWAP3 PUSH1 0x60 DUP3 ADD SWAP6 DUP3 MSTORE PUSH1 0x20 DUP3 ADD MSTORE ADD MSTORE JUMP JUMPDEST SWAP2 DUP2 PUSH1 0x1F DUP5 ADD SLT ISZERO PUSH2 0x8D8 JUMPI DUP3 CALLDATALOAD SWAP2 PUSH1 0x1 PUSH1 0x1 PUSH1 0x40 SHL SUB DUP4 GT PUSH2 0x8D8 JUMPI PUSH1 0x20 DUP4 DUP2 DUP7 ADD SWAP6 ADD ADD GT PUSH2 0x8D8 JUMPI JUMP JUMPDEST PUSH1 0x24 CALLDATALOAD SWAP1 DUP2 ISZERO ISZERO DUP3 SUB PUSH2 0x8D8 JUMPI JUMP JUMPDEST PUSH1 0x4 SLOAD DUP2 LT ISZERO PUSH2 0x3ACD JUMPI PUSH1 0x4 PUSH1 0x0 MSTORE PUSH1 0x20 PUSH1 0x0 KECCAK256 ADD SWAP1 PUSH1 0x0 SWAP1 JUMP JUMPDEST PUSH4 0x4E487B71 PUSH1 0xE0 SHL PUSH1 0x0 MSTORE PUSH1 0x32 PUSH1 0x4 MSTORE PUSH1 0x24 PUSH1 0x0 REVERT JUMPDEST SWAP1 PUSH1 0x1 DUP3 DUP2 SHR SWAP3 AND DUP1 ISZERO PUSH2 0x3B13 JUMPI JUMPDEST PUSH1 0x20 DUP4 LT EQ PUSH2 0x3AFD JUMPI JUMP JUMPDEST PUSH4 0x4E487B71 PUSH1 0xE0 SHL PUSH1 0x0 MSTORE PUSH1 0x22 PUSH1 0x4 MSTORE PUSH1 0x24 PUSH1 0x0 REVERT JUMPDEST SWAP2 PUSH1 0x7F AND SWAP2 PUSH2 0x3AF2 JUMP JUMPDEST PUSH1 0xA0 DUP2 ADD SWAP1 DUP2 LT PUSH1 0x1 PUSH1 0x1 PUSH1 0x40 SHL SUB DUP3 GT OR PUSH2 0x1684 JUMPI PUSH1 0x40 MSTORE JUMP JUMPDEST PUSH1 0x1 PUSH1 0x1 PUSH1 0x40 SHL SUB DUP2 GT PUSH2 0x1684 JUMPI PUSH1 0x40 MSTORE JUMP JUMPDEST PUSH1 0x1F SWAP1 SWAP2 ADD PUSH1 0x1F NOT AND DUP2 ADD SWAP1 PUSH1 0x1 PUSH1 0x1 PUSH1 0x40 SHL SUB DUP3 GT SWAP1 DUP3 LT OR PUSH2 0x1684 JUMPI PUSH1 0x40 MSTORE JUMP JUMPDEST SWAP1 PUSH1 0x40 MLOAD SWAP2 DUP3 PUSH1 0x0 DUP3 SLOAD SWAP3 PUSH2 0x3B82 DUP5 PUSH2 0x3AE3 JUMP JUMPDEST SWAP1 DUP2 DUP5 MSTORE PUSH1 0x1 SWAP5 DUP6 DUP2 AND SWAP1 DUP2 PUSH1 0x0 EQ PUSH2 0x3BF1 JUMPI POP PUSH1 0x1 EQ PUSH2 0x3BAE JUMPI JUMPDEST POP POP PUSH2 0x3BAC SWAP3 POP SUB DUP4 PUSH2 0x3B4B JUMP JUMPDEST JUMP JUMPDEST SWAP1 SWAP4 SWAP2 POP PUSH1 0x0 MSTORE PUSH1 0x20 SWAP1 DUP2 PUSH1 0x0 KECCAK256 SWAP4 PUSH1 0x0 SWAP2 JUMPDEST DUP2 DUP4 LT PUSH2 0x3BD9 JUMPI POP POP PUSH2 0x3BAC SWAP4 POP DUP3 ADD ADD CODESIZE DUP1 PUSH2 0x3B9E JUMP JUMPDEST DUP6 SLOAD DUP9 DUP5 ADD DUP6 ADD MSTORE SWAP5 DUP6 ADD SWAP5 DUP8 SWAP5 POP SWAP2 DUP4 ADD SWAP2 PUSH2 0x3BC1 JUMP JUMPDEST SWAP2 POP POP PUSH2 0x3BAC SWAP5 POP PUSH1 0x20 SWAP3 POP PUSH1 0xFF NOT AND DUP3 DUP5 ADD MSTORE ISZERO ISZERO PUSH1 0x5 SHL DUP3 ADD ADD CODESIZE DUP1 PUSH2 0x3B9E JUMP JUMPDEST PUSH1 0x0 SLOAD PUSH1 0x1 PUSH1 0x1 PUSH1 0xA0 SHL SUB AND CALLER SUB PUSH2 0x3C28 JUMPI JUMP JUMPDEST PUSH1 0x40 MLOAD PUSH4 0x118CDAA7 PUSH1 0xE0 SHL DUP2 MSTORE CALLER PUSH1 0x4 DUP3 ADD MSTORE PUSH1 0x24 SWAP1 REVERT JUMPDEST ISZERO PUSH2 0x3C47 JUMPI JUMP JUMPDEST PUSH1 0x40 MLOAD PUSH3 0x461BCD PUSH1 0xE5 SHL DUP2 MSTORE PUSH1 0x20 PUSH1 0x4 DUP3 ADD MSTORE PUSH1 0xA PUSH1 0x24 DUP3 ADD MSTORE PUSH10 0x4E6F7420616374697665 PUSH1 0xB0 SHL PUSH1 0x44 DUP3 ADD MSTORE PUSH1 0x64 SWAP1 REVERT JUMPDEST SWAP2 SWAP1 DUP3 SUB SWAP2 DUP3 GT PUSH2 0x3C86 JUMPI JUMP JUMPDEST PUSH4 0x4E487B71 PUSH1 0xE0 SHL PUSH1 0x0 MSTORE PUSH1 0x11 PUSH1 0x4 MSTORE PUSH1 0x24 PUSH1 0x0 REVERT JUMPDEST MLOAD SWAP1 DUP2 ISZERO ISZERO DUP3 SUB PUSH2 0x8D8 JUMPI JUMP JUMPDEST PUSH1 0x1 PUSH1 0x1 PUSH1 0xA0 SHL SUB SWAP1 SWAP2 AND DUP2 MSTORE PUSH1 0x20 DUP2 ADD SWAP2 SWAP1 SWAP2 MSTORE PUSH1 0x40 ADD SWAP1 JUMP JUMPDEST PUSH1 0x0 NOT DUP2 EQ PUSH2 0x3C86 JUMPI PUSH1 0x1 ADD SWAP1 JUMP JUMPDEST PUSH1 0x0 DUP1 MLOAD PUSH1 0x20 PUSH2 0x4D95 DUP4 CODECOPY DUP2 MLOAD SWAP2 MSTORE PUSH1 0x2 DUP2 SLOAD EQ PUSH2 0x3CF1 JUMPI PUSH1 0x2 SWAP1 SSTORE JUMP JUMPDEST PUSH1 0x40 MLOAD PUSH4 0x3EE5AEB5 PUSH1 0xE0 SHL DUP2 MSTORE PUSH1 0x4 SWAP1 REVERT JUMPDEST ISZERO PUSH2 0x3D0A JUMPI JUMP JUMPDEST PUSH1 0x40 MLOAD PUSH3 0x461BCD PUSH1 0xE5 SHL DUP2 MSTORE PUSH1 0x20 PUSH1 0x4 DUP3 ADD MSTORE PUSH1 0x2 PUSH1 0x24 DUP3 ADD MSTORE PUSH2 0x5A41 PUSH1 0xF0 SHL PUSH1 0x44 DUP3 ADD MSTORE PUSH1 0x64 SWAP1 REVERT JUMPDEST SWAP2 SWAP1 DUP3 ADD DUP1 SWAP3 GT PUSH2 0x3C86 JUMPI JUMP JUMPDEST PUSH1 0x1 DUP1 PUSH1 0xA0 SHL SUB SWAP2 DUP3 PUSH1 0x0 SWAP3 AND DUP3 MSTORE PUSH1 0x3 SWAP2 PUSH1 0x20 SWAP3 DUP1 DUP5 MSTORE PUSH1 0x2 SWAP2 PUSH1 0x40 SWAP2 DUP4 DUP4 DUP4 KECCAK256 ADD SLOAD SWAP6 DUP8 DUP8 AND SWAP6 PUSH1 0xFF SWAP7 DUP10 DUP9 PUSH1 0xA0 SWAP11 DUP12 SHR AND SWAP2 JUMPDEST AND SWAP1 DUP2 ISZERO PUSH2 0x3DD3 JUMPI ISZERO PUSH2 0x3DB6 JUMPI DUP1 DUP6 MSTORE DUP4 DUP4 MSTORE PUSH1 0x5 DUP7 DUP7 KECCAK256 ADD PUSH2 0x3D9A DUP2 SLOAD PUSH2 0x3CC4 JUMP JUMPDEST SWAP1 SSTORE JUMPDEST DUP5 MSTORE DUP3 DUP3 MSTORE DUP6 DUP6 DUP6 KECCAK256 ADD SLOAD DUP10 DUP1 DUP10 DUP4 DUP13 SHR AND SWAP3 AND PUSH2 0x3D77 JUMP JUMPDEST DUP1 DUP6 MSTORE DUP4 DUP4 MSTORE PUSH1 0x6 DUP7 DUP7 KECCAK256 ADD PUSH2 0x3DCC DUP2 SLOAD PUSH2 0x3CC4 JUMP JUMPDEST SWAP1 SSTORE PUSH2 0x3D9D JUMP JUMPDEST POP POP SWAP8 POP POP POP POP POP POP POP POP JUMP JUMPDEST DUP2 DUP2 MUL SWAP3 SWAP2 DUP2 ISZERO SWAP2 DUP5 DIV EQ OR ISZERO PUSH2 0x3C86 JUMPI JUMP JUMPDEST DUP2 ISZERO PUSH2 0x3DFD JUMPI DIV SWAP1 JUMP JUMPDEST PUSH4 0x4E487B71 PUSH1 0xE0 SHL PUSH1 0x0 MSTORE PUSH1 0x12 PUSH1 0x4 MSTORE PUSH1 0x24 PUSH1 0x0 REVERT JUMPDEST SWAP2 SWAP3 PUSH1 0x80 SWAP4 SWAP7 SWAP6 SWAP5 SWAP2 SWAP7 PUSH1 0xA0 DUP5 ADD SWAP8 DUP5 MSTORE PUSH1 0x20 DUP5 ADD MSTORE PUSH1 0x40 DUP4 ADD MSTORE PUSH1 0x60 DUP3 ADD MSTORE ADD MSTORE JUMP JUMPDEST PUSH1 0x1 DUP1 SLOAD PUSH1 0x40 DUP1 MLOAD PUSH3 0x3144BD PUSH1 0xE3 SHL DUP2 MSTORE PUSH1 0x4 SWAP6 PUSH1 0x1 PUSH1 0x1 PUSH1 0xA0 SHL SUB SWAP4 DUP5 AND SWAP6 SWAP1 SWAP5 SWAP3 SWAP2 PUSH1 0x20 SWAP1 PUSH1 0x0 SWAP1 DUP3 DUP2 DUP12 DUP2 DUP13 GAS STATICCALL SWAP1 DUP2 ISZERO PUSH2 0x4329 JUMPI DUP3 SWAP2 PUSH2 0x42FC JUMPI JUMPDEST POP DUP1 ISZERO PUSH2 0x42E9 JUMPI PUSH12 0x30E68B6D6E0ACC828633631 PUSH1 0x25 SHL DIV SWAP8 DUP5 MLOAD SWAP1 PUSH4 0x95EA7B3 PUSH1 0xE0 SHL DUP3 MSTORE DUP11 DUP3 ADD MSTORE PUSH9 0x70C1CC73B00C80000 SWAP1 DUP2 PUSH1 0x24 DUP3 ADD MSTORE DUP4 DUP2 PUSH1 0x44 DUP2 DUP7 DUP13 PUSH32 0x0 AND GAS CALL DUP1 ISZERO PUSH2 0x4255 JUMPI PUSH2 0x42B5 JUMPI JUMPDEST POP DUP7 DUP7 SLOAD AND DUP6 MLOAD SWAP1 PUSH4 0x70A08231 PUSH1 0xE0 SHL SWAP3 DUP4 DUP4 MSTORE ADDRESS DUP14 DUP5 ADD MSTORE DUP6 DUP4 PUSH1 0x24 DUP2 DUP6 GAS STATICCALL SWAP3 DUP4 ISZERO PUSH2 0x42AB JUMPI DUP6 SWAP4 PUSH2 0x427C JUMPI JUMPDEST POP DUP2 EXTCODESIZE ISZERO PUSH2 0x887 JUMPI DUP5 SWAP1 PUSH1 0x44 DUP15 DUP4 DUP12 MLOAD SWAP6 DUP7 SWAP5 DUP6 SWAP4 PUSH4 0x4E538D93 PUSH1 0xE1 SHL DUP6 MSTORE ADDRESS SWAP1 DUP6 ADD MSTORE PUSH1 0x24 DUP5 ADD MSTORE GAS CALL DUP1 ISZERO PUSH2 0x4272 JUMPI PUSH2 0x425F JUMPI JUMPDEST POP DUP4 DUP12 PUSH1 0x24 DUP11 DUP11 SLOAD AND SWAP5 DUP10 MLOAD SWAP6 DUP7 SWAP4 DUP5 SWAP3 DUP4 MSTORE ADDRESS SWAP1 DUP4 ADD MSTORE GAS STATICCALL DUP1 ISZERO PUSH2 0x4255 JUMPI DUP4 SWAP1 PUSH2 0x4226 JUMPI JUMPDEST PUSH2 0x3F7D SWAP3 POP PUSH2 0x3C79 JUMP JUMPDEST SWAP5 PUSH1 0x1E DUP10 MUL DUP10 DUP2 DIV PUSH1 0x1E EQ DUP11 ISZERO OR ISZERO PUSH2 0x4213 JUMPI PUSH1 0x64 SWAP1 DIV SWAP10 POP SWAP7 SWAP8 SWAP6 SWAP7 DUP1 DUP9 DUP12 DUP1 PUSH2 0x3FA8 DUP2 DUP13 PUSH2 0x3C79 JUMP JUMPDEST SWAP1 PUSH2 0x3FB2 SWAP2 PUSH2 0x3C79 JUMP JUMPDEST SWAP1 PUSH2 0x3FBC SWAP2 PUSH2 0x3C79 JUMP JUMPDEST DUP13 PUSH1 0x6 SLOAD SWAP1 PUSH2 0x3FCA SWAP2 PUSH2 0x3D34 JUMP JUMPDEST PUSH1 0x6 SSTORE PUSH2 0x3FD7 SWAP1 DUP14 PUSH2 0x3D34 JUMP JUMPDEST SWAP6 PUSH1 0x8 SWAP7 DUP8 SLOAD SWAP1 PUSH2 0x3FE7 SWAP2 PUSH2 0x3D34 JUMP JUMPDEST DUP8 SSTORE AND SWAP9 DUP10 DUP5 MSTORE PUSH1 0x3 SWAP4 DUP5 DUP7 MSTORE DUP8 DUP2 KECCAK256 SWAP1 PUSH2 0xFF00 NOT DUP3 SLOAD AND PUSH2 0x100 OR SWAP2 DUP3 DUP2 SSTORE PUSH1 0xB ADD PUSH9 0x15245655B102580000 SWAP1 SSTORE DUP3 PUSH1 0x10 SWAP3 DUP4 SHR AND SWAP6 DUP2 SWAP8 DUP6 SWAP7 JUMPDEST PUSH2 0x4092 JUMPI JUMPDEST POP POP POP POP POP POP POP POP SWAP7 DUP1 PUSH2 0x4070 SWAP4 DUP2 SWAP4 DUP11 PUSH32 0x8AF2C013A5A55C6D3AD5423522FE76C6F2EB831B5E23318276B3C678CB457FC9 SWAP10 SWAP11 SWAP12 DUP5 GT PUSH2 0x4075 JUMPI JUMPDEST POP POP MLOAD SWAP6 DUP7 SWAP6 DUP7 PUSH2 0x3E13 JUMP JUMPDEST SUB SWAP1 LOG2 JUMP JUMPDEST PUSH2 0x4082 PUSH2 0x4089 SWAP2 DUP6 PUSH2 0x3C79 JUMP JUMPDEST DUP3 SLOAD PUSH2 0x3D34 JUMP JUMPDEST SWAP1 SSTORE CODESIZE DUP1 PUSH2 0x4064 JUMP JUMPDEST SWAP1 SWAP2 SWAP3 SWAP4 SWAP5 SWAP6 SWAP7 SWAP8 PUSH1 0xFF SWAP1 PUSH1 0xA DUP3 DUP11 AND GT ISZERO DUP1 PUSH2 0x4208 JUMPI JUMPDEST ISZERO PUSH2 0x4201 JUMPI DUP11 SWAP2 DUP16 SWAP2 DUP16 PUSH2 0x40C0 DUP16 SWAP2 DUP14 SWAP1 PUSH2 0x4359 JUMP JUMPDEST SWAP2 DUP3 ISZERO PUSH2 0x41E0 JUMPI SWAP1 DUP11 PUSH2 0x40D4 DUP5 DUP16 SWAP5 PUSH2 0x3D34 JUMP JUMPDEST SWAP15 AND SWAP6 DUP7 SWAP5 DUP6 DUP12 MSTORE DUP10 DUP10 MSTORE DUP14 DUP4 DUP13 KECCAK256 SWAP2 DUP3 SLOAD DUP5 SHR AND SWAP2 DUP3 PUSH2 0x41CA JUMPI JUMPDEST POP POP ISZERO PUSH2 0x4180 JUMPI PUSH32 0xB16479BDAC5B7099D9236D6FC6BE3B30FF54188F4FD961686E1E1DC7ECB88037 SWAP4 SWAP3 SWAP2 PUSH2 0x4159 SWAP2 DUP7 DUP13 MSTORE DUP11 DUP11 MSTORE DUP2 DUP13 KECCAK256 ADD PUSH2 0x4134 DUP6 DUP3 SLOAD PUSH2 0x3D34 JUMP JUMPDEST SWAP1 SSTORE DUP6 DUP12 MSTORE DUP10 DUP10 MSTORE PUSH1 0x9 DUP2 DUP13 KECCAK256 ADD PUSH2 0x414D DUP6 DUP3 SLOAD PUSH2 0x3D34 JUMP JUMPDEST SWAP1 SSTORE MLOAD SWAP3 DUP4 SWAP3 DUP4 PUSH2 0x4344 JUMP JUMPDEST SUB SWAP1 LOG3 JUMPDEST DUP4 MSTORE DUP2 DUP2 MSTORE DUP6 PUSH2 0x4174 DUP7 DUP13 DUP7 KECCAK256 SLOAD DUP8 SHR AND SWAP9 PUSH2 0x4333 JUMP JUMPDEST SWAP7 SWAP6 SWAP5 SWAP4 SWAP3 SWAP2 SWAP1 PUSH2 0x4023 JUMP JUMPDEST PUSH32 0x117CA0CD821ECB7EADFEA2D6927A67853908BDC351A386235215F5AB6071BFED SWAP5 SWAP6 POP DUP4 SWAP3 POP PUSH2 0x41B5 PUSH2 0x41C2 SWAP5 DUP3 SLOAD PUSH2 0x3D34 JUMP JUMPDEST SWAP1 SSTORE MLOAD SWAP2 DUP3 SWAP2 DUP14 DUP4 PUSH2 0x4344 JUMP JUMPDEST SUB SWAP1 LOG2 PUSH2 0x415D JUMP JUMPDEST ADD SLOAD SWAP1 POP PUSH2 0x41D7 DUP5 PUSH2 0x44A5 JUMP JUMPDEST GT ISZERO DUP14 CODESIZE PUSH2 0x40F0 JUMP JUMPDEST SWAP13 SWAP4 POP POP POP POP DUP7 SWAP2 POP AND DUP4 MSTORE DUP2 DUP2 MSTORE DUP6 PUSH2 0x4174 DUP7 DUP13 DUP7 KECCAK256 SLOAD DUP8 SHR AND SWAP9 PUSH2 0x4333 JUMP JUMPDEST SWAP9 POP PUSH2 0x4028 JUMP JUMPDEST POP DUP7 DUP11 AND ISZERO ISZERO PUSH2 0x40AA JUMP JUMPDEST PUSH4 0x4E487B71 PUSH1 0xE0 SHL DUP4 MSTORE PUSH1 0x11 DUP12 MSTORE PUSH1 0x24 DUP4 REVERT JUMPDEST POP DUP4 DUP3 DUP2 RETURNDATASIZE DUP4 GT PUSH2 0x424E JUMPI JUMPDEST PUSH2 0x423C DUP2 DUP4 PUSH2 0x3B4B JUMP JUMPDEST DUP2 ADD SUB SLT PUSH2 0x8D8 JUMPI PUSH2 0x3F7D SWAP2 MLOAD PUSH2 0x3F73 JUMP JUMPDEST POP RETURNDATASIZE PUSH2 0x4232 JUMP JUMPDEST DUP7 MLOAD RETURNDATASIZE DUP6 DUP3 RETURNDATACOPY RETURNDATASIZE SWAP1 REVERT JUMPDEST PUSH2 0x426B SWAP1 SWAP4 SWAP2 SWAP4 PUSH2 0x3B38 JUMP JUMPDEST SWAP2 CODESIZE PUSH2 0x3F4C JUMP JUMPDEST DUP8 MLOAD RETURNDATASIZE DUP7 DUP3 RETURNDATACOPY RETURNDATASIZE SWAP1 REVERT JUMPDEST SWAP1 SWAP3 POP DUP6 DUP2 DUP2 RETURNDATASIZE DUP4 GT PUSH2 0x42A4 JUMPI JUMPDEST PUSH2 0x4294 DUP2 DUP4 PUSH2 0x3B4B JUMP JUMPDEST DUP2 ADD SUB SLT PUSH2 0x887 JUMPI MLOAD SWAP2 CODESIZE PUSH2 0x3F16 JUMP JUMPDEST POP RETURNDATASIZE PUSH2 0x428A JUMP JUMPDEST DUP9 MLOAD RETURNDATASIZE DUP8 DUP3 RETURNDATACOPY RETURNDATASIZE SWAP1 REVERT JUMPDEST DUP4 DUP2 DUP2 RETURNDATASIZE DUP4 GT PUSH2 0x42E2 JUMPI JUMPDEST PUSH2 0x42CA DUP2 DUP4 PUSH2 0x3B4B JUMP JUMPDEST DUP2 ADD SUB SLT PUSH2 0x834 JUMPI PUSH2 0x42DB SWAP1 PUSH2 0x3C9C JUMP JUMPDEST POP CODESIZE PUSH2 0x3EE7 JUMP JUMPDEST POP RETURNDATASIZE PUSH2 0x42C0 JUMP JUMPDEST PUSH4 0x4E487B71 PUSH1 0xE0 SHL DUP3 MSTORE PUSH1 0x12 DUP11 MSTORE PUSH1 0x24 DUP3 REVERT JUMPDEST SWAP1 POP DUP3 DUP2 DUP2 RETURNDATASIZE DUP4 GT PUSH2 0x4322 JUMPI JUMPDEST PUSH2 0x4313 DUP2 DUP4 PUSH2 0x3B4B JUMP JUMPDEST DUP2 ADD SUB SLT PUSH2 0x843 JUMPI MLOAD CODESIZE PUSH2 0x3E76 JUMP JUMPDEST POP RETURNDATASIZE PUSH2 0x4309 JUMP JUMPDEST DUP6 MLOAD RETURNDATASIZE DUP5 DUP3 RETURNDATACOPY RETURNDATASIZE SWAP1 REVERT JUMPDEST PUSH1 0xFF AND PUSH1 0xFF DUP2 EQ PUSH2 0x3C86 JUMPI PUSH1 0x1 ADD SWAP1 JUMP JUMPDEST PUSH1 0x20 SWAP1 SWAP4 SWAP3 SWAP2 SWAP4 PUSH1 0xFF PUSH1 0x40 DUP3 ADD SWAP6 AND DUP2 MSTORE ADD MSTORE JUMP JUMPDEST SWAP1 PUSH1 0xFF AND PUSH1 0x1 DUP2 EQ PUSH2 0x448A JUMPI PUSH1 0x2 DUP2 EQ PUSH2 0x446F JUMPI PUSH1 0x3 DUP2 EQ PUSH2 0x4454 JUMPI PUSH1 0x4 SWAP1 DUP2 DUP2 EQ PUSH2 0x443D JUMPI PUSH1 0x5 DUP2 EQ PUSH2 0x4420 JUMPI PUSH1 0x6 DUP2 EQ PUSH2 0x4420 JUMPI PUSH1 0x7 DUP2 EQ PUSH2 0x4403 JUMPI PUSH1 0x8 DUP2 EQ PUSH2 0x4403 JUMPI PUSH1 0x9 DUP2 EQ PUSH2 0x43E6 JUMPI PUSH1 0xA EQ PUSH2 0x43B5 JUMPI POP POP PUSH1 0x0 SWAP1 JUMP JUMPDEST DUP2 PUSH1 0x1 SHL SWAP2 DUP1 DUP4 DIV PUSH1 0x2 EQ SWAP1 ISZERO OR ISZERO PUSH2 0x43D1 JUMPI POP PUSH2 0x3E8 SWAP1 DIV SWAP1 JUMP JUMPDEST PUSH1 0x11 SWAP1 PUSH4 0x4E487B71 PUSH1 0xE0 SHL PUSH1 0x0 MSTORE MSTORE PUSH1 0x24 PUSH1 0x0 REVERT JUMPDEST POP DUP2 PUSH1 0x1 SHL SWAP2 DUP1 DUP4 DIV PUSH1 0x2 EQ SWAP1 ISZERO OR ISZERO PUSH2 0x43D1 JUMPI POP PUSH2 0x3E8 SWAP1 DIV SWAP1 JUMP JUMPDEST POP PUSH1 0x3 DUP3 MUL SWAP2 DUP1 DUP4 DIV PUSH1 0x3 EQ SWAP1 ISZERO OR ISZERO PUSH2 0x43D1 JUMPI POP PUSH2 0x3E8 SWAP1 DIV SWAP1 JUMP JUMPDEST POP PUSH1 0x5 DUP3 MUL SWAP2 DUP1 DUP4 DIV PUSH1 0x5 EQ SWAP1 ISZERO OR ISZERO PUSH2 0x43D1 JUMPI POP PUSH2 0x3E8 SWAP1 DIV SWAP1 JUMP JUMPDEST POP DUP2 DUP1 DIV PUSH1 0x1 EQ DUP3 ISZERO OR ISZERO PUSH2 0x43D1 JUMPI POP PUSH1 0x64 SWAP1 DIV SWAP1 JUMP JUMPDEST POP DUP1 PUSH1 0x1 SHL SWAP1 DUP1 DUP3 DIV PUSH1 0x2 EQ SWAP1 ISZERO OR ISZERO PUSH2 0x3C86 JUMPI PUSH1 0x64 SWAP1 DIV SWAP1 JUMP JUMPDEST POP PUSH1 0x5 DUP2 MUL SWAP1 DUP1 DUP3 DIV PUSH1 0x5 EQ SWAP1 ISZERO OR ISZERO PUSH2 0x3C86 JUMPI PUSH1 0x64 SWAP1 DIV SWAP1 JUMP JUMPDEST POP PUSH1 0x14 DUP2 MUL SWAP1 DUP1 DUP3 DIV PUSH1 0x14 EQ SWAP1 ISZERO OR ISZERO PUSH2 0x3C86 JUMPI PUSH1 0x64 SWAP1 DIV SWAP1 JUMP JUMPDEST PUSH1 0xFF PUSH1 0x4 SWAP2 AND GT ISZERO PUSH2 0x44B6 JUMPI PUSH1 0x5 SWAP1 JUMP JUMPDEST PUSH1 0x2 SWAP1 JUMP JUMPDEST PUSH1 0x1 PUSH1 0x1 PUSH1 0x40 SHL SUB DUP2 GT PUSH2 0x1684 JUMPI PUSH1 0x5 SHL PUSH1 0x20 ADD SWAP1 JUMP JUMPDEST DUP1 MLOAD DUP3 LT ISZERO PUSH2 0x3ACD JUMPI PUSH1 0x20 SWAP2 PUSH1 0x5 SHL ADD ADD SWAP1 JUMP JUMPDEST DUP2 DUP1 PUSH2 0x46FD JUMPI JUMPDEST PUSH2 0x46F6 JUMPI DUP2 ISZERO SWAP2 DUP3 DUP1 PUSH2 0x46D1 JUMPI JUMPDEST PUSH2 0x46C9 JUMPI PUSH1 0x5 SLOAD SWAP3 PUSH1 0x1 DUP1 DUP6 ADD DUP1 SWAP6 GT PUSH2 0x3C86 JUMPI PUSH2 0x4518 DUP6 PUSH2 0x44BB JUMP JUMPDEST SWAP1 PUSH2 0x4533 PUSH1 0x40 SWAP7 PUSH2 0x452B DUP9 MLOAD SWAP5 DUP6 PUSH2 0x3B4B JUMP JUMPDEST DUP1 DUP5 MSTORE PUSH2 0x44BB JUMP JUMPDEST SWAP3 PUSH1 0x20 SWAP3 DUP4 DUP2 ADD SWAP5 PUSH1 0x1F NOT ADD CALLDATASIZE DUP7 CALLDATACOPY PUSH1 0x0 DUP1 DUP8 ISZERO PUSH2 0x46AA JUMPI PUSH1 0x1 PUSH1 0x1 PUSH1 0xA0 SHL SUB DUP10 DUP2 AND DUP4 MSTORE PUSH1 0x3 DUP1 DUP9 MSTORE DUP12 DUP5 KECCAK256 ADD SLOAD AND SWAP7 JUMPDEST PUSH1 0x1 PUSH1 0x1 PUSH1 0xA0 SHL SUB SWAP8 DUP9 AND DUP1 PUSH2 0x4696 JUMPI JUMPDEST POP POP JUMPDEST DUP2 DUP2 LT PUSH2 0x45F4 JUMPI POP POP POP DUP1 PUSH2 0x45D9 JUMPI JUMPDEST PUSH2 0x45CF JUMPI POP DUP3 PUSH2 0x45B2 JUMPI JUMPDEST POP POP PUSH2 0x45AB JUMPI DUP2 MLOAD PUSH4 0xC5BB5BCD PUSH1 0xE0 SHL DUP2 MSTORE PUSH1 0x4 SWAP1 REVERT JUMPDEST SWAP2 PUSH1 0x0 SWAP2 POP JUMP JUMPDEST DUP2 PUSH1 0x3 SWAP3 SWAP4 POP DUP5 AND PUSH1 0x0 MSTORE MSTORE PUSH1 0x4 DUP4 PUSH1 0x0 KECCAK256 ADD SLOAD AND ISZERO CODESIZE DUP1 PUSH2 0x4594 JUMP JUMPDEST SWAP6 SWAP5 POP POP POP POP SWAP2 SWAP1 JUMP JUMPDEST POP DUP3 DUP6 AND PUSH1 0x0 MSTORE PUSH1 0x3 DUP3 MSTORE DUP3 PUSH1 0x3 DUP8 PUSH1 0x0 KECCAK256 ADD SLOAD AND ISZERO PUSH2 0x4589 JUMP JUMPDEST DUP7 PUSH2 0x4608 PUSH2 0x4601 DUP4 PUSH2 0x3CC4 JUMP JUMPDEST SWAP3 DUP6 PUSH2 0x44D2 JUMP JUMPDEST MLOAD AND DUP1 PUSH1 0x0 MSTORE PUSH1 0x3 DUP1 DUP9 MSTORE DUP12 PUSH1 0x0 KECCAK256 SWAP2 DUP10 DUP3 DUP5 ADD SLOAD AND DUP1 ISZERO PUSH2 0x4683 JUMPI DUP11 PUSH1 0x4 DUP1 SWAP6 ADD SLOAD AND ISZERO PUSH2 0x466F JUMPI SWAP1 DUP11 SWAP4 SWAP3 SWAP2 PUSH2 0x4649 PUSH2 0x4642 DUP9 PUSH2 0x3CC4 JUMP JUMPDEST SWAP8 DUP10 PUSH2 0x44D2 JUMP JUMPDEST MSTORE PUSH1 0x0 MSTORE DUP9 MSTORE DUP12 PUSH1 0x0 KECCAK256 ADD SLOAD AND PUSH2 0x4669 PUSH2 0x4662 DUP5 PUSH2 0x3CC4 JUMP JUMPDEST SWAP4 DUP6 PUSH2 0x44D2 JUMP JUMPDEST MSTORE PUSH2 0x4579 JUMP JUMPDEST POP SWAP12 POP POP POP POP POP POP POP POP POP POP POP POP SWAP1 PUSH1 0x0 SWAP1 JUMP JUMPDEST POP SWAP11 POP POP POP POP POP POP POP SWAP6 SWAP5 POP POP POP POP SWAP2 SWAP1 JUMP JUMPDEST SWAP1 SWAP3 POP DUP6 SWAP3 DUP5 MLOAD ISZERO PUSH2 0x3ACD JUMPI MSTORE CODESIZE DUP1 PUSH2 0x4576 JUMP JUMPDEST PUSH1 0x1 PUSH1 0x1 PUSH1 0xA0 SHL SUB DUP10 DUP2 AND DUP4 MSTORE PUSH1 0x3 DUP8 MSTORE DUP11 DUP4 KECCAK256 PUSH1 0x4 ADD SLOAD AND SWAP7 PUSH2 0x4565 JUMP JUMPDEST POP SWAP2 PUSH1 0x0 SWAP2 POP JUMP JUMPDEST POP PUSH1 0x1 PUSH1 0x1 PUSH1 0xA0 SHL SUB DUP3 DUP2 AND PUSH1 0x0 SWAP1 DUP2 MSTORE PUSH1 0x3 PUSH1 0x20 MSTORE PUSH1 0x40 SWAP1 KECCAK256 PUSH1 0x4 ADD SLOAD AND ISZERO PUSH2 0x44FB JUMP JUMPDEST SWAP2 PUSH1 0x1 SWAP2 POP JUMP JUMPDEST POP PUSH1 0x1 DUP1 PUSH1 0xA0 SHL SUB DUP1 DUP3 AND PUSH1 0x0 MSTORE PUSH1 0x3 PUSH1 0x20 MSTORE PUSH1 0x3 PUSH1 0x40 PUSH1 0x0 KECCAK256 ADD SLOAD AND ISZERO PUSH2 0x44ED JUMP JUMPDEST PUSH1 0xFF PUSH1 0xA SWAP1 DUP1 DUP3 SLOAD AND PUSH2 0x4A68 JUMPI PUSH1 0x6 SWAP2 DUP3 SLOAD SWAP5 DUP6 ISZERO PUSH2 0x4A2F JUMPI PUSH1 0x0 SWAP4 DUP5 DUP2 SSTORE PUSH1 0x46 DUP8 MUL DUP8 DUP2 DIV PUSH1 0x46 SUB PUSH2 0x10AE JUMPI PUSH1 0x64 SWAP1 DIV SWAP4 PUSH2 0x475C DUP6 DUP10 PUSH2 0x3C79 JUMP JUMPDEST SWAP6 PUSH2 0x476C PUSH1 0x9 SWAP5 DUP9 DUP7 SSTORE DUP10 PUSH2 0x3D34 JUMP JUMPDEST SWAP3 PUSH1 0x4 SWAP2 DUP3 SLOAD DUP1 DUP7 GT PUSH2 0x4A27 JUMPI JUMPDEST POP DUP1 SWAP10 DUP1 JUMPDEST DUP7 DUP2 LT PUSH2 0x4993 JUMPI POP DUP11 ISZERO PUSH2 0x4940 JUMPI JUMPDEST DUP6 DUP2 LT PUSH2 0x47D5 JUMPI POP POP POP POP POP POP POP SWAP2 PUSH1 0x80 SWAP4 SWAP2 PUSH1 0x0 DUP1 MLOAD PUSH1 0x20 PUSH2 0x4D75 DUP4 CODECOPY DUP2 MLOAD SWAP2 MSTORE SWAP6 SWAP4 PUSH1 0x1 PUSH1 0xFF NOT DUP3 SLOAD AND OR SWAP1 SSTORE PUSH1 0x40 MLOAD SWAP4 DUP5 MSTORE PUSH1 0x20 DUP5 ADD MSTORE PUSH1 0x40 DUP4 ADD MSTORE PUSH1 0x60 DUP3 ADD MSTORE LOG1 JUMP JUMPDEST DUP11 DUP9 DUP11 DUP8 PUSH2 0x47E2 DUP6 PUSH2 0x3AB2 JUMP JUMPDEST SWAP1 SLOAD SWAP1 PUSH1 0x3 SWAP2 PUSH1 0x1 DUP1 PUSH1 0xA0 SHL SUB SWAP2 DUP4 SHL SHR AND SWAP5 DUP6 DUP9 MSTORE DUP13 PUSH1 0x20 SWAP3 DUP1 DUP5 MSTORE PUSH1 0x40 SWAP7 DUP8 DUP12 KECCAK256 SWAP3 DUP4 SLOAD SWAP7 PUSH1 0x8 SWAP8 DUP9 SHR AND ISZERO PUSH2 0x492D JUMPI PUSH1 0x5 DUP5 ADD SLOAD DUP14 DUP6 ADD SLOAD DUP1 DUP3 LT ISZERO PUSH2 0x4925 JUMPI POP SWAP5 JUMPDEST PUSH1 0x7 SWAP5 DUP6 ADD SLOAD DUP1 DUP8 GT ISZERO PUSH2 0x491D JUMPI PUSH2 0x4840 SWAP1 DUP8 PUSH2 0x3C79 JUMP JUMPDEST SWAP9 JUMPDEST DUP10 ISZERO PUSH2 0x4908 JUMPI SWAP1 PUSH2 0x20F1 DUP11 PUSH2 0x4856 SWAP4 PUSH2 0x3DE0 JUMP JUMPDEST SWAP7 DUP11 DUP14 MSTORE DUP4 DUP8 MSTORE DUP10 DUP14 KECCAK256 ADD PUSH2 0x486C DUP9 DUP3 SLOAD PUSH2 0x3D34 JUMP JUMPDEST SWAP1 SSTORE DUP10 DUP13 MSTORE DUP3 DUP7 MSTORE DUP9 DUP13 KECCAK256 ADD PUSH2 0x4883 DUP8 DUP3 SLOAD PUSH2 0x3D34 JUMP JUMPDEST SWAP1 SSTORE DUP1 DUP8 MUL SWAP1 DUP8 DUP3 DIV SUB PUSH2 0x48F5 JUMPI SWAP2 DUP8 SWAP6 SWAP4 SWAP2 PUSH32 0xBEE8F46206DC051D674F6CA1E618EFE407D83B27FFBE3540B916EDFD34E428E1 SWAP8 SWAP6 SWAP4 PUSH2 0x48D6 PUSH1 0x11 DUP13 SWAP12 DUP16 PUSH2 0x48F0 SWAP16 SWAP15 DUP2 MSTORE DUP6 DUP10 MSTORE KECCAK256 ADD SWAP2 DUP3 SLOAD PUSH2 0x3D34 JUMP JUMPDEST SWAP1 SSTORE DUP9 DUP13 MSTORE DUP4 MSTORE DUP6 DUP12 KECCAK256 ADD SSTORE DUP4 MLOAD SWAP3 DUP4 MSTORE DUP3 ADD MSTORE LOG2 PUSH2 0x3CC4 JUMP JUMPDEST PUSH2 0x478E JUMP JUMPDEST PUSH4 0x4E487B71 PUSH1 0xE0 SHL DUP12 MSTORE PUSH1 0x11 DUP14 MSTORE PUSH1 0x24 DUP12 REVERT JUMPDEST POP POP POP POP POP POP POP POP POP POP POP POP PUSH2 0x48F0 SWAP1 PUSH2 0x3CC4 JUMP JUMPDEST POP DUP13 SWAP9 PUSH2 0x4842 JUMP JUMPDEST SWAP1 POP SWAP5 PUSH2 0x4828 JUMP JUMPDEST POP POP POP POP POP POP POP POP POP POP PUSH2 0x48F0 SWAP1 PUSH2 0x3CC4 JUMP JUMPDEST POP SWAP7 SWAP1 POP PUSH1 0x80 SWAP9 POP DUP7 SWAP6 POP PUSH2 0x4975 SWAP4 POP PUSH2 0x496D SWAP3 POP PUSH1 0x0 DUP1 MLOAD PUSH1 0x20 PUSH2 0x4D75 DUP4 CODECOPY DUP2 MLOAD SWAP2 MSTORE SWAP10 SWAP8 SWAP2 POP PUSH2 0x3D34 JUMP JUMPDEST PUSH1 0x8 SLOAD PUSH2 0x3D34 JUMP JUMPDEST PUSH1 0x8 SSTORE SSTORE PUSH1 0x40 MLOAD SWAP2 DUP3 MSTORE DUP1 PUSH1 0x20 DUP4 ADD MSTORE DUP1 PUSH1 0x40 DUP4 ADD MSTORE PUSH1 0x60 DUP3 ADD MSTORE LOG1 JUMP JUMPDEST PUSH2 0x499C DUP2 PUSH2 0x3AB2 JUMP JUMPDEST SWAP1 SLOAD PUSH1 0x3 SWAP2 DUP3 SHL SHR PUSH1 0x1 PUSH1 0x1 PUSH1 0xA0 SHL SUB AND DUP5 MSTORE PUSH1 0x20 MSTORE PUSH1 0x40 DUP4 KECCAK256 DUP1 SLOAD PUSH1 0x8 SHR DUP8 AND ISZERO PUSH2 0x4A1D JUMPI PUSH1 0x7 PUSH1 0x5 DUP3 ADD SLOAD DUP7 DUP4 ADD SLOAD DUP1 DUP3 LT PUSH1 0x0 EQ PUSH2 0x4A15 JUMPI POP SWAP2 JUMPDEST ADD SLOAD SWAP1 DUP2 DUP2 GT PUSH2 0x49F5 JUMPI JUMPDEST POP POP PUSH2 0x49F0 SWAP1 PUSH2 0x3CC4 JUMP JUMPDEST PUSH2 0x477F JUMP JUMPDEST SWAP13 PUSH2 0x4A07 PUSH2 0x4A0D SWAP3 PUSH2 0x49F0 SWAP5 SWAP16 PUSH2 0x3C79 JUMP JUMPDEST SWAP1 PUSH2 0x3D34 JUMP JUMPDEST SWAP12 SWAP1 CODESIZE PUSH2 0x49E5 JUMP JUMPDEST SWAP1 POP SWAP2 PUSH2 0x49DA JUMP JUMPDEST POP PUSH2 0x49F0 SWAP1 PUSH2 0x3CC4 JUMP JUMPDEST SWAP5 POP CODESIZE PUSH2 0x477A JUMP JUMPDEST PUSH1 0x40 MLOAD PUSH3 0x461BCD PUSH1 0xE5 SHL DUP2 MSTORE PUSH1 0x20 PUSH1 0x4 DUP3 ADD MSTORE PUSH1 0x11 PUSH1 0x24 DUP3 ADD MSTORE PUSH17 0x115B5C1D1E48189A5B985C9E481C1BDBDB PUSH1 0x7A SHL PUSH1 0x44 DUP3 ADD MSTORE PUSH1 0x64 SWAP1 REVERT JUMPDEST PUSH1 0x40 MLOAD PUSH3 0xC94879 PUSH1 0xE4 SHL DUP2 MSTORE PUSH1 0x4 SWAP1 REVERT JUMPDEST ISZERO PUSH2 0x4A80 JUMPI JUMP JUMPDEST PUSH1 0x40 MLOAD PUSH3 0x461BCD PUSH1 0xE5 SHL DUP2 MSTORE PUSH1 0x20 PUSH1 0x4 DUP3 ADD MSTORE PUSH1 0xE PUSH1 0x24 DUP3 ADD MSTORE PUSH14 0x139BDD081C9959DA5CDD195C9959 PUSH1 0x92 SHL PUSH1 0x44 DUP3 ADD MSTORE PUSH1 0x64 SWAP1 REVERT JUMPDEST ISZERO PUSH2 0x4ABD JUMPI JUMP JUMPDEST PUSH1 0x40 MLOAD PUSH3 0x461BCD PUSH1 0xE5 SHL DUP2 MSTORE PUSH1 0x20 PUSH1 0x4 DUP3 ADD MSTORE PUSH1 0x14 PUSH1 0x24 DUP3 ADD MSTORE PUSH20 0x1554D115081D1C985B9CD9995C8819985A5B1959 PUSH1 0x62 SHL PUSH1 0x44 DUP3 ADD MSTORE PUSH1 0x64 SWAP1 REVERT JUMPDEST SWAP1 PUSH1 0x5 DUP2 LT ISZERO PUSH2 0x3ACD JUMPI PUSH1 0x5 SHL ADD SWAP1 JUMP JUMPDEST DUP1 SLOAD DUP3 LT ISZERO PUSH2 0x3ACD JUMPI PUSH1 0x0 MSTORE PUSH1 0x20 PUSH1 0x0 KECCAK256 SWAP1 PUSH1 0x2 SHL ADD SWAP1 PUSH1 0x0 SWAP1 JUMP JUMPDEST ISZERO PUSH2 0x4B2D JUMPI JUMP JUMPDEST PUSH1 0x40 MLOAD PUSH3 0x461BCD PUSH1 0xE5 SHL DUP2 MSTORE PUSH1 0x20 PUSH1 0x4 DUP3 ADD MSTORE PUSH1 0xD PUSH1 0x24 DUP3 ADD MSTORE PUSH13 0x92DCECC2D8D2C840D2DCC8CAF PUSH1 0x9B SHL PUSH1 0x44 DUP3 ADD MSTORE PUSH1 0x64 SWAP1 REVERT JUMPDEST PUSH1 0x2 SLOAD PUSH1 0x1 PUSH1 0x1 PUSH1 0xA0 SHL SUB AND SWAP1 DUP2 ISZERO PUSH2 0x4BDE JUMPI PUSH1 0x20 SWAP1 PUSH1 0x24 PUSH1 0x40 MLOAD DUP1 SWAP5 DUP2 SWAP4 PUSH4 0x47CD5191 PUSH1 0xE0 SHL DUP4 MSTORE PUSH1 0x4 DUP4 ADD MSTORE GAS STATICCALL SWAP1 DUP2 ISZERO PUSH2 0x4BD2 JUMPI PUSH1 0x0 SWAP2 PUSH2 0x4BA4 JUMPI POP SWAP1 JUMP JUMPDEST SWAP1 PUSH1 0x20 DUP3 RETURNDATASIZE DUP3 GT PUSH2 0x4BCA JUMPI JUMPDEST DUP2 PUSH2 0x4BBD PUSH1 0x20 SWAP4 DUP4 PUSH2 0x3B4B JUMP JUMPDEST DUP2 ADD SUB SLT PUSH2 0x2CF JUMPI POP MLOAD SWAP1 JUMP JUMPDEST RETURNDATASIZE SWAP2 POP PUSH2 0x4BB0 JUMP JUMPDEST PUSH1 0x40 MLOAD RETURNDATASIZE PUSH1 0x0 DUP3 RETURNDATACOPY RETURNDATASIZE SWAP1 REVERT JUMPDEST POP POP PUSH1 0x0 SWAP1 JUMP JUMPDEST PUSH1 0x2 SLOAD PUSH1 0x1 PUSH1 0x1 PUSH1 0xA0 SHL SUB AND SWAP1 DUP2 ISZERO PUSH2 0x4BDE JUMPI PUSH1 0x20 SWAP1 PUSH1 0x24 PUSH1 0x40 MLOAD DUP1 SWAP5 DUP2 SWAP4 PUSH4 0x75B1F0E1 PUSH1 0xE1 SHL DUP4 MSTORE PUSH1 0x4 DUP4 ADD MSTORE GAS STATICCALL SWAP1 DUP2 ISZERO PUSH2 0x4BD2 JUMPI PUSH1 0x0 SWAP2 PUSH2 0x4BA4 JUMPI POP SWAP1 JUMP JUMPDEST PUSH1 0x2 SLOAD PUSH1 0x1 PUSH1 0x1 PUSH1 0xA0 SHL SUB AND SWAP1 DUP2 ISZERO PUSH2 0x4BDE JUMPI PUSH1 0x20 SWAP1 PUSH1 0x24 PUSH1 0x40 MLOAD DUP1 SWAP5 DUP2 SWAP4 PUSH4 0x1D613961 PUSH1 0xE1 SHL DUP4 MSTORE PUSH1 0x4 DUP4 ADD MSTORE GAS STATICCALL SWAP1 DUP2 ISZERO PUSH2 0x4BD2 JUMPI PUSH1 0x0 SWAP2 PUSH2 0x4BA4 JUMPI POP SWAP1 JUMP JUMPDEST PUSH1 0x2 SLOAD PUSH1 0x1 PUSH1 0x1 PUSH1 0xA0 SHL SUB SWAP1 DUP2 AND SWAP2 DUP3 ISZERO PUSH2 0x4D14 JUMPI AND PUSH1 0x24 PUSH1 0x0 DUP3 DUP2 MSTORE PUSH1 0x20 PUSH1 0x3 DUP2 MSTORE DUP1 PUSH1 0xF PUSH1 0x40 DUP5 KECCAK256 ADD SLOAD SWAP6 PUSH1 0x40 MLOAD SWAP5 DUP6 DUP1 SWAP3 PUSH4 0x47CD5191 PUSH1 0xE0 SHL DUP3 MSTORE PUSH1 0x1 PUSH1 0x4 DUP4 ADD MSTORE GAS STATICCALL SWAP3 DUP4 ISZERO PUSH2 0x838 JUMPI DUP3 SWAP4 PUSH2 0x4CE4 JUMPI JUMPDEST POP PUSH1 0xFF SWAP2 PUSH1 0x3 PUSH1 0x40 SWAP3 DUP6 SWAP7 DUP4 MSTORE MSTORE KECCAK256 SLOAD PUSH1 0x8 SHR AND SWAP1 DUP2 PUSH2 0x4CDC JUMPI POP SWAP3 JUMP JUMPDEST SWAP1 POP DUP3 LT ISZERO SWAP3 JUMP JUMPDEST SWAP1 DUP1 SWAP4 POP DUP2 DUP2 RETURNDATASIZE DUP4 GT PUSH2 0x4D0D JUMPI JUMPDEST PUSH2 0x4CFC DUP2 DUP4 PUSH2 0x3B4B JUMP JUMPDEST DUP2 ADD SUB SLT PUSH2 0x843 JUMPI MLOAD SWAP2 PUSH1 0xFF PUSH2 0x4CBE JUMP JUMPDEST POP RETURNDATASIZE PUSH2 0x4CF2 JUMP JUMPDEST POP POP POP PUSH1 0x0 SWAP1 PUSH1 0x0 SWAP1 PUSH1 0x0 SWAP1 JUMP JUMPDEST SWAP1 PUSH2 0x4D2C DUP3 PUSH2 0x44BB JUMP JUMPDEST PUSH2 0x4D39 PUSH1 0x40 MLOAD SWAP2 DUP3 PUSH2 0x3B4B JUMP JUMPDEST DUP3 DUP2 MSTORE DUP1 SWAP3 PUSH2 0x4D4A PUSH1 0x1F NOT SWAP2 PUSH2 0x44BB JUMP JUMPDEST ADD SWAP1 PUSH1 0x20 CALLDATASIZE SWAP2 ADD CALLDATACOPY JUMP INVALID DUP12 0xE0 SMOD SWAP13 MSTORE8 AND MSIZE EQ SGT PREVRANDAO 0xCD 0x1F 0xD0 LOG4 CALLCODE DUP5 NOT 0x49 PUSH32 0x9722A3DAAFE3B4186F6B6457E0A0EA5705200C9FFD36DC735FEF1592C3234BB7 0xE3 GT 0xFC SHL EXP PREVRANDAO 0x4F PUSH4 0x70D0620E 0xAE SWAP12 PUSH24 0x9B17422D0DF92223018B32B4D1FA46E071723D6817E2486D STOP EXTCODESIZE 0xEC 0xC5 PUSH0 STOP KECCAK256 0x4F 0xCC CREATE 0xD9 0x2E 0xD8 0xD4 DUP16 KECCAK256 0x4A 0xDB CODECOPY 0xB2 0xE8 0x1E SWAP3 0xBA 0xD0 0xDE 0xDB SWAP4 CREATE2 PUSH18 0x6CA9478CFB57DE00A2646970667358221220 SWAP2 DELEGATECALL PUSH27 0xFC6894F6D1255B7CA583405D67DEBB1541278D2E00B7A201DA421F DUP9 DUP13 PUSH5 0x736F6C6343 STOP ADDMOD EQ STOP CALLER "},"methodIdentifiers":{"ADMIN_ALLOC()":"be648bdb","BINARY_ALLOC()":"44e374d5","BTC_POOL_RATE()":"92446e30","INCOME_LIMIT()":"aa393757","LEVEL_ALLOC()":"77537844","MIN_STAKE_USDT()":"8431fdd7","PACKAGE_PRICE()":"039ccc26","activate()":"0f15f4c0","adminPool()":"b86a1fb2","allUsers(uint256)":"a2bdedf4","binaryPool()":"7f1b4064","boardEntryCount(address)":"f00b0093","boardHandler()":"c9d484cf","canEnterBoard(address)":"9499a351","canRebirth(address)":"e51cb530","creditBoardReward(address,uint256,uint256)":"f0b7b9dc","distributeBinaryIncome(uint256,uint256)":"2d641f08","distributePowerLeg(uint256,uint256)":"8a8f0429","enterBoardPool()":"e4093a66","getActiveStakes(address)":"1747e0b0","getAllUsersCount()":"38abfc41","getBoardCurrentIndex(uint256)":"3ac272c2","getBoardMatrixInfo(uint256,uint256)":"d4a90286","getBoardPrice(uint256)":"47cd5191","getBoardQueueLength(uint256)":"eb63e1c2","getBtcPoolInfo(address)":"03c3ecb7","getCurrentBinaryPairs(address)":"f24c536a","getMvtContractBalance()":"ce8292f5","getMvtPrice()":"68ddb2b5","getPoolBalances()":"52375bb1","getProfile(address)":"0f53a470","getStake(address,uint256)":"cfd47663","getStakeCount(address)":"cf57ee69","getUserBoardStats(address)":"fb72ca35","getUserInfo(address)":"6386c1c7","mvaultToken()":"1f6259d5","owner()":"8da5cb5b","rebirth(address,bool)":"94915dd0","register(address,address,bool)":"aa33f5d5","renounceOwnership()":"715018a6","reservePool()":"0266f044","sellMvt(uint256)":"634f627e","setBoardHandler(address)":"e3ba9bda","setMvaultToken(address)":"1ce5e894","setProfile(string,string,string,string)":"55509c8f","stake(uint256,bool)":"abe50f19","totalBoardRewardsEarned(address)":"2335821b","totalUsers()":"bff1f9e1","transferOwnership(address)":"f2fde38b","unstake(uint256)":"2e17de78","usdtToken()":"a98ad46c","users(address)":"a87430ba","withdrawAdminPool(address,uint256)":"2808bc8d","withdrawBtcPool(uint256)":"b58e0278","withdrawReservePool(address,uint256)":"ec50324a","withdrawUsdt(uint256)":"d3635a02"}}}}}