{"contracts/BoardMatrixHandler.sol":{"BoardMatrixHandler":{"abi":[{"inputs":[{"internalType":"address","name":"_paymentToken","type":"address"},{"internalType":"uint8","name":"_tokenDecimals","type":"uint8"}],"stateMutability":"nonpayable","type":"constructor"},{"inputs":[{"internalType":"address","name":"owner","type":"address"}],"name":"OwnableInvalidOwner","type":"error"},{"inputs":[{"internalType":"address","name":"account","type":"address"}],"name":"OwnableUnauthorizedAccount","type":"error"},{"inputs":[{"internalType":"address","name":"token","type":"address"}],"name":"SafeERC20FailedOperation","type":"error"},{"anonymous":false,"inputs":[{"indexed":true,"internalType":"address","name":"owner","type":"address"},{"indexed":true,"internalType":"uint256","name":"boardLevel","type":"uint256"},{"indexed":false,"internalType":"uint256","name":"reward","type":"uint256"},{"indexed":false,"internalType":"uint256","name":"liquidity","type":"uint256"}],"name":"BoardCompleted","type":"event"},{"anonymous":false,"inputs":[{"indexed":true,"internalType":"address","name":"user","type":"address"},{"indexed":true,"internalType":"uint256","name":"boardLevel","type":"uint256"},{"indexed":false,"internalType":"uint256","name":"matrixIndex","type":"uint256"}],"name":"BoardEntered","type":"event"},{"anonymous":false,"inputs":[{"indexed":true,"internalType":"address","name":"previousOwner","type":"address"},{"indexed":true,"internalType":"address","name":"newOwner","type":"address"}],"name":"OwnershipTransferred","type":"event"},{"inputs":[],"name":"BASIS_POINTS","outputs":[{"internalType":"uint256","name":"","type":"uint256"}],"stateMutability":"view","type":"function"},{"inputs":[],"name":"BOARD_10_LIQUIDITY_RATE_BP","outputs":[{"internalType":"uint256","name":"","type":"uint256"}],"stateMutability":"view","type":"function"},{"inputs":[],"name":"BOARD_10_REWARD_RATE_BP","outputs":[{"internalType":"uint256","name":"","type":"uint256"}],"stateMutability":"view","type":"function"},{"inputs":[],"name":"BOARD_10_SYSTEM_RATE_BP","outputs":[{"internalType":"uint256","name":"","type":"uint256"}],"stateMutability":"view","type":"function"},{"inputs":[],"name":"BOARD_LIQUIDITY_RATE_BP","outputs":[{"internalType":"uint256","name":"","type":"uint256"}],"stateMutability":"view","type":"function"},{"inputs":[],"name":"BOARD_MEMBERS_REQUIRED","outputs":[{"internalType":"uint256","name":"","type":"uint256"}],"stateMutability":"view","type":"function"},{"inputs":[],"name":"BOARD_NEXT_POOL_RATE_BP","outputs":[{"internalType":"uint256","name":"","type":"uint256"}],"stateMutability":"view","type":"function"},{"inputs":[],"name":"BOARD_REWARD_RATE_BP","outputs":[{"internalType":"uint256","name":"","type":"uint256"}],"stateMutability":"view","type":"function"},{"inputs":[],"name":"TOTAL_BOARDS","outputs":[{"internalType":"uint256","name":"","type":"uint256"}],"stateMutability":"view","type":"function"},{"inputs":[{"internalType":"uint256","name":"","type":"uint256"}],"name":"boardCurrentIndex","outputs":[{"internalType":"uint256","name":"","type":"uint256"}],"stateMutability":"view","type":"function"},{"inputs":[{"internalType":"uint256","name":"","type":"uint256"}],"name":"boardPrices","outputs":[{"internalType":"uint256","name":"","type":"uint256"}],"stateMutability":"view","type":"function"},{"inputs":[],"name":"btcRewardToken","outputs":[{"internalType":"contract IERC20","name":"","type":"address"}],"stateMutability":"view","type":"function"},{"inputs":[],"name":"coinLiquidityAddress","outputs":[{"internalType":"address","name":"","type":"address"}],"stateMutability":"view","type":"function"},{"inputs":[{"internalType":"address","name":"_user","type":"address"},{"internalType":"uint256","name":"_boardLevel","type":"uint256"}],"name":"enterBoard","outputs":[],"stateMutability":"nonpayable","type":"function"},{"inputs":[{"internalType":"uint256","name":"_boardLevel","type":"uint256"}],"name":"getBoardCurrentIndex","outputs":[{"internalType":"uint256","name":"","type":"uint256"}],"stateMutability":"view","type":"function"},{"inputs":[{"internalType":"uint256","name":"_boardLevel","type":"uint256"},{"internalType":"uint256","name":"_index","type":"uint256"}],"name":"getBoardMatrixInfo","outputs":[{"internalType":"address","name":"owner","type":"address"},{"internalType":"uint256","name":"filledCount","type":"uint256"},{"internalType":"bool","name":"completed","type":"bool"}],"stateMutability":"view","type":"function"},{"inputs":[{"internalType":"uint256","name":"_boardLevel","type":"uint256"}],"name":"getBoardPrice","outputs":[{"internalType":"uint256","name":"","type":"uint256"}],"stateMutability":"view","type":"function"},{"inputs":[{"internalType":"uint256","name":"_boardLevel","type":"uint256"}],"name":"getBoardQueueLength","outputs":[{"internalType":"uint256","name":"","type":"uint256"}],"stateMutability":"view","type":"function"},{"inputs":[],"name":"mlmContract","outputs":[{"internalType":"address","name":"","type":"address"}],"stateMutability":"view","type":"function"},{"inputs":[],"name":"owner","outputs":[{"internalType":"address","name":"","type":"address"}],"stateMutability":"view","type":"function"},{"inputs":[],"name":"paymentToken","outputs":[{"internalType":"contract IERC20","name":"","type":"address"}],"stateMutability":"view","type":"function"},{"inputs":[{"internalType":"address","name":"_token","type":"address"},{"internalType":"address","name":"_to","type":"address"},{"internalType":"uint256","name":"_amount","type":"uint256"}],"name":"recoverToken","outputs":[],"stateMutability":"nonpayable","type":"function"},{"inputs":[],"name":"renounceOwnership","outputs":[],"stateMutability":"nonpayable","type":"function"},{"inputs":[{"internalType":"uint256","name":"_boardLevel","type":"uint256"},{"internalType":"uint256","name":"_price","type":"uint256"}],"name":"setBoardPrice","outputs":[],"stateMutability":"nonpayable","type":"function"},{"inputs":[{"internalType":"address","name":"_token","type":"address"}],"name":"setBtcRewardToken","outputs":[],"stateMutability":"nonpayable","type":"function"},{"inputs":[{"internalType":"address","name":"_addr","type":"address"}],"name":"setCoinLiquidityAddress","outputs":[],"stateMutability":"nonpayable","type":"function"},{"inputs":[{"internalType":"address","name":"_mlm","type":"address"}],"name":"setMLMContract","outputs":[],"stateMutability":"nonpayable","type":"function"},{"inputs":[{"internalType":"address","name":"_addr","type":"address"}],"name":"setSystemAddress","outputs":[],"stateMutability":"nonpayable","type":"function"},{"inputs":[],"name":"systemAddress","outputs":[{"internalType":"address","name":"","type":"address"}],"stateMutability":"view","type":"function"},{"inputs":[{"internalType":"address","name":"newOwner","type":"address"}],"name":"transferOwnership","outputs":[],"stateMutability":"nonpayable","type":"function"}],"evm":{"bytecode":{"linkReferences":{},"object":"608034620001e857601f6200127638819003918201601f19168301916001600160401b03831184841017620001ed578084926040948552833981010312620001e85780516001600160a01b039182821691829003620001e8576020015160ff8116809103620001e8573315620001cf57600091825460018060a01b03199033828216178555604051953391167f8be0079c531659141344cd1fd0a4f28419497f9722a3daafe3b4186f6b6457e08680a3600e541617600e55604d8111620001bb57600a0a9081603202603281048303620001bb5760049081558260b40260b481048403620001a8576005556102888381029081048403620001a85760065561091d8381029081048403620001a8576007556120ce8381029081048403620001a8576008556176198381029081048403620001a8576009556201a9278381029081048403620001a857600a556205fa8d8381029081048403620001a857600b55621585fb8381029081048403620001a857600c55624d7bee928084029384040362000195575050600d556110729081620002048239f35b634e487b7160e01b825260119052602490fd5b634e487b7160e01b835260118252602483fd5b634e487b7160e01b82526011600452602482fd5b604051631e4fbdf760e01b815260006004820152602490fd5b600080fd5b634e487b7160e01b600052604160045260246000fdfe6080604081815260048036101561001557600080fd5b600092833560e01c90816304841337146107c55750806306210197146107855780632389e78a1461075a57806329d7f9eb146106cd5780633013ce29146106a457806339ae9efd1461067b5780633ac272c21461065457806347cd5191146105f45780634e759962146105d857806353dafcbb146105af57806361dba5f314610443578063686a38bd146105335780636f8760fe146104f3578063715018a6146104995780637d4cf0b8146103ad5780638919d5e9146104705780638da5cb5b146104485780639898fcd314610443578063a5c3406114610426578063a7229fd9146103ce578063b0ac4626146103b2578063b2418af8146103ad578063ce87026314610361578063d3ba4f9614610321578063d3e848f1146102f8578063d4a9028614610265578063e1f1c4a714610244578063eb63e1c21461021d578063f2fde38b146101975763f3b36bf81461016d57600080fd5b346101935760203660031901126101935760209282913581526002845220549051908152f35b8280fd5b5034610193576020366003190112610193576101b16107f1565b906101ba61087f565b6001600160a01b0391821692831561020757505082546001600160a01b0319811683178455167f8be0079c531659141344cd1fd0a4f28419497f9722a3daafe3b4186f6b6457e08380a380f35b51631e4fbdf760e01b8152908101849052602490fd5b50346101935760203660031901126101935760209282913581526001845220549051908152f35b505034610261578160031936011261026157602090516127108152f35b5080fd5b5082346102f5576102753661082f565b928183526001602052848320548410156102cd576060856102a0868287878152600160205220610957565b509060018060a01b038254169160ff60026001830154920154169082519384526020840152151590820152f35b606490602086519162461bcd60e51b8352820152600260248201526127a160f11b6044820152fd5b80fd5b50503461026157816003193601126102615760115490516001600160a01b039091168152602090f35b83346102f55760203660031901126102f55761033b6107f1565b61034361087f565b60018060a01b03166001600160601b0360a01b601054161760105580f35b83346102f55760203660031901126102f55761037b6107f1565b61038361087f565b6001600160a01b03166103978115156108ab565b6001600160601b0360a01b601254161760125580f35b610862565b50503461026157816003193601126102615760209051600a8152f35b83346102f55760603660031901126102f5576103e86107f1565b6001600160a01b0360243581811692918382036104225761041561041f9461040e61087f565b15156108ab565b6044359216610f9b565b80f35b8480fd5b505034610261578160031936011261026157602090516107d08152f35b610845565b505034610261578160031936011261026157905490516001600160a01b039091168152602090f35b505034610261578160031936011261026157600f5490516001600160a01b039091168152602090f35b83346102f557806003193601126102f5576104b261087f565b80546001600160a01b03198116825581906001600160a01b03167f8be0079c531659141344cd1fd0a4f28419497f9722a3daafe3b4186f6b6457e08280a380f35b83346102f55760203660031901126102f55761050d6107f1565b61051561087f565b60018060a01b03166001600160601b0360a01b600f541617600f5580f35b503461019357816003193601126101935761054c6107f1565b601254909290336001600160a01b03918216149081156105a2575b501561057a578361041f60243585610a2f565b906020606492519162461bcd60e51b835282015260026024820152614e4160f01b6044820152fd5b9050845416331438610567565b50503461026157816003193601126102615760125490516001600160a01b039091168152602090f35b50503461026157816003193601126102615760209051600c8152f35b5091346102f55760203660031901126102f557823590600182101580610649575b61061e906108dc565b600b8210156106365760208383600301549051908152f35b634e487b7160e01b815260328452602490fd5b50600a821115610615565b50346101935760203660031901126101935760209282913581526002845220549051908152f35b50503461026157816003193601126102615760105490516001600160a01b039091168152602090f35b505034610261578160031936011261026157600e5490516001600160a01b039091168152602090f35b509034610193576106dd3661082f565b9290916106e861087f565b60018310158061074f575b6106fc906108dc565b83156107275750600b82101561071457506003015580f35b634e487b7160e01b845260329052602483fd5b906020606492519162461bcd60e51b83528201526002602482015261050360f41b6044820152fd5b50600a8311156106f3565b50346101935760203660031901126101935735600b8110156101935760209250600301549051908152f35b83346102f55760203660031901126102f55761079f6107f1565b6107a761087f565b60018060a01b03166001600160601b0360a01b601154161760115580f35b8490346102615781600319360112610261578061222e60209252f35b60009103126107ec57565b600080fd5b600435906001600160a01b03821682036107ec57565b600b8110156108195760030190600090565b634e487b7160e01b600052603260045260246000fd5b60409060031901126107ec576004359060243590565b346107ec5760003660031901126107ec576020604051610fa08152f35b346107ec5760003660031901126107ec5760206040516102718152f35b6000546001600160a01b0316330361089357565b60405163118cdaa760e01b8152336004820152602490fd5b156108b257565b60405162461bcd60e51b815260206004820152600260248201526124ab60f11b6044820152606490fd5b156108e357565b60405162461bcd60e51b8152602060048201526002602482015261109360f21b6044820152606490fd5b67ffffffffffffffff811161092157604052565b634e487b7160e01b600052604160045260246000fd5b604051906060820182811067ffffffffffffffff82111761092157604052565b8054821015610819576000526003602060002091020190600090565b8054680100000000000000008110156109215761099591600182018155610957565b6109d757600260409160018060a01b038451166001600160601b0360a01b8254161781556020840151600182015501910151151560ff80198354169116179055565b634e487b7160e01b600052600060045260246000fd5b6000198101919082116109fc57565b634e487b7160e01b600052601160045260246000fd5b60001981146109fc5760010190565b90600182018092116109fc57565b90610a6f610a47826000526001602052604060002090565b610a4f610937565b6001600160a01b0385168152906000602083015260006040830152610973565b80610a8d610a87826000526001602052604060002090565b546109ed565b60405181815290936001600160a01b0316907f4e755dd64e53a9f7a5882e2e32eb64718c2273de11e017bd47129b9fe2716d7c90602090a3610ad9816000526002602052604060002090565b54918210610ae5575050565b610b0282610afd836000526001602052604060002090565b610957565b5091600c60018401610b148154610a12565b8091551015610b2257505050565b82610b46610b6892610b416002610b6d9701600160ff19825416179055565b610a21565b610b5a846000526002602052604060002090565b55546001600160a01b031690565b610bed565b565b90600c820291808304600c14901517156109fc57565b9061222e918281029281840414901517156109fc57565b90610271918281029281840414901517156109fc57565b90610fa0918281029281840414901517156109fc57565b906107d0918281029281840414901517156109fc57565b6040513d6000823e3d90fd5b610c0b610c06610bfc84610807565b90549060031b1c90565b610b6f565b91600a811015610e2157610c35610c27610c2f610c2786610bb3565b612710900490565b94610bca565b600f549093906001600160a01b03908116828582610e10575b50506010546001600160a01b0316905085828216610df3575b505060125481166001600160a01b031680610cb7575b50604080519283526020830195909552610b6d94610cb19392839286169160008051602061101d83398151915291a3610a21565b90610a2f565b80939291933b156107ec57604051631a495e5760e31b81526001600160a01b0386166004820152602481018390526044810184905260009182908290606490829084905af18015610dd757610de0575b50601254610d2b90610d1f906001600160a01b031681565b6001600160a01b031690565b610d3f610bfc610d3a86610a21565b610807565b90610d4985610a21565b91813b15610ddc5760405163ecdc590760e01b81526001600160a01b038916600482015260248101919091526044810192909252909291908390606490829084905af18015610dd757610b6d96610cb195859460008051602061101d83398151915293610dbe575b5093509650509192610c7d565b80610dcb610dd19261090d565b806107e1565b38610db1565b610be1565b8380fd5b80610dcb610ded9261090d565b38610d07565b600e54610e0992906001600160a01b0316610f9b565b3885610c67565b610e1992610f9b565b388285610c4e565b9190610e2f610c2783610b85565b91610e48610c27610e42610c2784610b9c565b92610b9c565b600f5490926001600160a01b039290918316858382610f8a575b50506011546001600160a01b0316905090838216610f6d575b50506010546001600160a01b031683838216610f50575b505060125482166001600160a01b031680610ed4575b50604080519485526020850193909352169160008051602061101d83398151915291819081015b0390a3565b92833b156107ec57604051631a495e5760e31b81526001600160a01b03831660048201526024810186905260448101879052936000908590606490829084905af1908115610dd75760008051602061101d83398151915294610ecf92610f3d575b509350610ea8565b80610dcb610f4a9261090d565b38610f35565b600e54610f6692906001600160a01b0316610f9b565b3883610e92565b600e54610f8392906001600160a01b0316610f9b565b3880610e7b565b610f9392610f9b565b388583610e62565b60405163a9059cbb60e01b60009081526001600160a01b039384166004526024949094529260209060448180855af1600160005114811615610ffc575b8360405215610fe657505050565b635274afe760e01b835216600482015260249150fd5b600181151661101257813b15153d151616610fd8565b833d6000823e3d90fdfec9dfd5046e5f1be95c560d1b85295f8afd28d0102c20e0b4112b88bd328ca433a2646970667358221220241f6cce199926b7109921e6af80e7bed208dd670e59456bde494685fc187f0f64736f6c63430008140033","opcodes":"PUSH1 0x80 CALLVALUE PUSH3 0x1E8 JUMPI PUSH1 0x1F PUSH3 0x1276 CODESIZE DUP2 SWAP1 SUB SWAP2 DUP3 ADD PUSH1 0x1F NOT AND DUP4 ADD SWAP2 PUSH1 0x1 PUSH1 0x1 PUSH1 0x40 SHL SUB DUP4 GT DUP5 DUP5 LT OR PUSH3 0x1ED JUMPI DUP1 DUP5 SWAP3 PUSH1 0x40 SWAP5 DUP6 MSTORE DUP4 CODECOPY DUP2 ADD SUB SLT PUSH3 0x1E8 JUMPI DUP1 MLOAD PUSH1 0x1 PUSH1 0x1 PUSH1 0xA0 SHL SUB SWAP2 DUP3 DUP3 AND SWAP2 DUP3 SWAP1 SUB PUSH3 0x1E8 JUMPI PUSH1 0x20 ADD MLOAD PUSH1 0xFF DUP2 AND DUP1 SWAP2 SUB PUSH3 0x1E8 JUMPI CALLER ISZERO PUSH3 0x1CF JUMPI PUSH1 0x0 SWAP2 DUP3 SLOAD PUSH1 0x1 DUP1 PUSH1 0xA0 SHL SUB NOT SWAP1 CALLER DUP3 DUP3 AND OR DUP6 SSTORE PUSH1 0x40 MLOAD SWAP6 CALLER SWAP2 AND PUSH32 0x8BE0079C531659141344CD1FD0A4F28419497F9722A3DAAFE3B4186F6B6457E0 DUP7 DUP1 LOG3 PUSH1 0xE SLOAD AND OR PUSH1 0xE SSTORE PUSH1 0x4D DUP2 GT PUSH3 0x1BB JUMPI PUSH1 0xA EXP SWAP1 DUP2 PUSH1 0x32 MUL PUSH1 0x32 DUP2 DIV DUP4 SUB PUSH3 0x1BB JUMPI PUSH1 0x4 SWAP1 DUP2 SSTORE DUP3 PUSH1 0xB4 MUL PUSH1 0xB4 DUP2 DIV DUP5 SUB PUSH3 0x1A8 JUMPI PUSH1 0x5 SSTORE PUSH2 0x288 DUP4 DUP2 MUL SWAP1 DUP2 DIV DUP5 SUB PUSH3 0x1A8 JUMPI PUSH1 0x6 SSTORE PUSH2 0x91D DUP4 DUP2 MUL SWAP1 DUP2 DIV DUP5 SUB PUSH3 0x1A8 JUMPI PUSH1 0x7 SSTORE PUSH2 0x20CE DUP4 DUP2 MUL SWAP1 DUP2 DIV DUP5 SUB PUSH3 0x1A8 JUMPI PUSH1 0x8 SSTORE PUSH2 0x7619 DUP4 DUP2 MUL SWAP1 DUP2 DIV DUP5 SUB PUSH3 0x1A8 JUMPI PUSH1 0x9 SSTORE PUSH3 0x1A927 DUP4 DUP2 MUL SWAP1 DUP2 DIV DUP5 SUB PUSH3 0x1A8 JUMPI PUSH1 0xA SSTORE PUSH3 0x5FA8D DUP4 DUP2 MUL SWAP1 DUP2 DIV DUP5 SUB PUSH3 0x1A8 JUMPI PUSH1 0xB SSTORE PUSH3 0x1585FB DUP4 DUP2 MUL SWAP1 DUP2 DIV DUP5 SUB PUSH3 0x1A8 JUMPI PUSH1 0xC SSTORE PUSH3 0x4D7BEE SWAP3 DUP1 DUP5 MUL SWAP4 DUP5 DIV SUB PUSH3 0x195 JUMPI POP POP PUSH1 0xD SSTORE PUSH2 0x1072 SWAP1 DUP2 PUSH3 0x204 DUP3 CODECOPY RETURN JUMPDEST PUSH4 0x4E487B71 PUSH1 0xE0 SHL DUP3 MSTORE PUSH1 0x11 SWAP1 MSTORE PUSH1 0x24 SWAP1 REVERT JUMPDEST PUSH4 0x4E487B71 PUSH1 0xE0 SHL DUP4 MSTORE PUSH1 0x11 DUP3 MSTORE PUSH1 0x24 DUP4 REVERT JUMPDEST PUSH4 0x4E487B71 PUSH1 0xE0 SHL DUP3 MSTORE PUSH1 0x11 PUSH1 0x4 MSTORE PUSH1 0x24 DUP3 REVERT JUMPDEST PUSH1 0x40 MLOAD PUSH4 0x1E4FBDF7 PUSH1 0xE0 SHL DUP2 MSTORE PUSH1 0x0 PUSH1 0x4 DUP3 ADD MSTORE PUSH1 0x24 SWAP1 REVERT JUMPDEST PUSH1 0x0 DUP1 REVERT JUMPDEST PUSH4 0x4E487B71 PUSH1 0xE0 SHL PUSH1 0x0 MSTORE PUSH1 0x41 PUSH1 0x4 MSTORE PUSH1 0x24 PUSH1 0x0 REVERT INVALID PUSH1 0x80 PUSH1 0x40 DUP2 DUP2 MSTORE PUSH1 0x4 DUP1 CALLDATASIZE LT ISZERO PUSH2 0x15 JUMPI PUSH1 0x0 DUP1 REVERT JUMPDEST PUSH1 0x0 SWAP3 DUP4 CALLDATALOAD PUSH1 0xE0 SHR SWAP1 DUP2 PUSH4 0x4841337 EQ PUSH2 0x7C5 JUMPI POP DUP1 PUSH4 0x6210197 EQ PUSH2 0x785 JUMPI DUP1 PUSH4 0x2389E78A EQ PUSH2 0x75A JUMPI DUP1 PUSH4 0x29D7F9EB EQ PUSH2 0x6CD JUMPI DUP1 PUSH4 0x3013CE29 EQ PUSH2 0x6A4 JUMPI DUP1 PUSH4 0x39AE9EFD EQ PUSH2 0x67B JUMPI DUP1 PUSH4 0x3AC272C2 EQ PUSH2 0x654 JUMPI DUP1 PUSH4 0x47CD5191 EQ PUSH2 0x5F4 JUMPI DUP1 PUSH4 0x4E759962 EQ PUSH2 0x5D8 JUMPI DUP1 PUSH4 0x53DAFCBB EQ PUSH2 0x5AF JUMPI DUP1 PUSH4 0x61DBA5F3 EQ PUSH2 0x443 JUMPI DUP1 PUSH4 0x686A38BD EQ PUSH2 0x533 JUMPI DUP1 PUSH4 0x6F8760FE EQ PUSH2 0x4F3 JUMPI DUP1 PUSH4 0x715018A6 EQ PUSH2 0x499 JUMPI DUP1 PUSH4 0x7D4CF0B8 EQ PUSH2 0x3AD JUMPI DUP1 PUSH4 0x8919D5E9 EQ PUSH2 0x470 JUMPI DUP1 PUSH4 0x8DA5CB5B EQ PUSH2 0x448 JUMPI DUP1 PUSH4 0x9898FCD3 EQ PUSH2 0x443 JUMPI DUP1 PUSH4 0xA5C34061 EQ PUSH2 0x426 JUMPI DUP1 PUSH4 0xA7229FD9 EQ PUSH2 0x3CE JUMPI DUP1 PUSH4 0xB0AC4626 EQ PUSH2 0x3B2 JUMPI DUP1 PUSH4 0xB2418AF8 EQ PUSH2 0x3AD JUMPI DUP1 PUSH4 0xCE870263 EQ PUSH2 0x361 JUMPI DUP1 PUSH4 0xD3BA4F96 EQ PUSH2 0x321 JUMPI DUP1 PUSH4 0xD3E848F1 EQ PUSH2 0x2F8 JUMPI DUP1 PUSH4 0xD4A90286 EQ PUSH2 0x265 JUMPI DUP1 PUSH4 0xE1F1C4A7 EQ PUSH2 0x244 JUMPI DUP1 PUSH4 0xEB63E1C2 EQ PUSH2 0x21D JUMPI DUP1 PUSH4 0xF2FDE38B EQ PUSH2 0x197 JUMPI PUSH4 0xF3B36BF8 EQ PUSH2 0x16D JUMPI PUSH1 0x0 DUP1 REVERT JUMPDEST CALLVALUE PUSH2 0x193 JUMPI PUSH1 0x20 CALLDATASIZE PUSH1 0x3 NOT ADD SLT PUSH2 0x193 JUMPI PUSH1 0x20 SWAP3 DUP3 SWAP2 CALLDATALOAD DUP2 MSTORE PUSH1 0x2 DUP5 MSTORE KECCAK256 SLOAD SWAP1 MLOAD SWAP1 DUP2 MSTORE RETURN JUMPDEST DUP3 DUP1 REVERT JUMPDEST POP CALLVALUE PUSH2 0x193 JUMPI PUSH1 0x20 CALLDATASIZE PUSH1 0x3 NOT ADD SLT PUSH2 0x193 JUMPI PUSH2 0x1B1 PUSH2 0x7F1 JUMP JUMPDEST SWAP1 PUSH2 0x1BA PUSH2 0x87F JUMP JUMPDEST PUSH1 0x1 PUSH1 0x1 PUSH1 0xA0 SHL SUB SWAP2 DUP3 AND SWAP3 DUP4 ISZERO PUSH2 0x207 JUMPI POP POP DUP3 SLOAD PUSH1 0x1 PUSH1 0x1 PUSH1 0xA0 SHL SUB NOT DUP2 AND DUP4 OR DUP5 SSTORE AND PUSH32 0x8BE0079C531659141344CD1FD0A4F28419497F9722A3DAAFE3B4186F6B6457E0 DUP4 DUP1 LOG3 DUP1 RETURN JUMPDEST MLOAD PUSH4 0x1E4FBDF7 PUSH1 0xE0 SHL DUP2 MSTORE SWAP1 DUP2 ADD DUP5 SWAP1 MSTORE PUSH1 0x24 SWAP1 REVERT JUMPDEST POP CALLVALUE PUSH2 0x193 JUMPI PUSH1 0x20 CALLDATASIZE PUSH1 0x3 NOT ADD SLT PUSH2 0x193 JUMPI PUSH1 0x20 SWAP3 DUP3 SWAP2 CALLDATALOAD DUP2 MSTORE PUSH1 0x1 DUP5 MSTORE KECCAK256 SLOAD SWAP1 MLOAD SWAP1 DUP2 MSTORE RETURN JUMPDEST POP POP CALLVALUE PUSH2 0x261 JUMPI DUP2 PUSH1 0x3 NOT CALLDATASIZE ADD SLT PUSH2 0x261 JUMPI PUSH1 0x20 SWAP1 MLOAD PUSH2 0x2710 DUP2 MSTORE RETURN JUMPDEST POP DUP1 REVERT JUMPDEST POP DUP3 CALLVALUE PUSH2 0x2F5 JUMPI PUSH2 0x275 CALLDATASIZE PUSH2 0x82F JUMP JUMPDEST SWAP3 DUP2 DUP4 MSTORE PUSH1 0x1 PUSH1 0x20 MSTORE DUP5 DUP4 KECCAK256 SLOAD DUP5 LT ISZERO PUSH2 0x2CD JUMPI PUSH1 0x60 DUP6 PUSH2 0x2A0 DUP7 DUP3 DUP8 DUP8 DUP2 MSTORE PUSH1 0x1 PUSH1 0x20 MSTORE KECCAK256 PUSH2 0x957 JUMP JUMPDEST POP SWAP1 PUSH1 0x1 DUP1 PUSH1 0xA0 SHL SUB DUP3 SLOAD AND SWAP2 PUSH1 0xFF PUSH1 0x2 PUSH1 0x1 DUP4 ADD SLOAD SWAP3 ADD SLOAD AND SWAP1 DUP3 MLOAD SWAP4 DUP5 MSTORE PUSH1 0x20 DUP5 ADD MSTORE ISZERO ISZERO SWAP1 DUP3 ADD MSTORE RETURN JUMPDEST PUSH1 0x64 SWAP1 PUSH1 0x20 DUP7 MLOAD SWAP2 PUSH3 0x461BCD PUSH1 0xE5 SHL DUP4 MSTORE DUP3 ADD MSTORE PUSH1 0x2 PUSH1 0x24 DUP3 ADD MSTORE PUSH2 0x27A1 PUSH1 0xF1 SHL PUSH1 0x44 DUP3 ADD MSTORE REVERT JUMPDEST DUP1 REVERT JUMPDEST POP POP CALLVALUE PUSH2 0x261 JUMPI DUP2 PUSH1 0x3 NOT CALLDATASIZE ADD SLT PUSH2 0x261 JUMPI PUSH1 0x11 SLOAD SWAP1 MLOAD PUSH1 0x1 PUSH1 0x1 PUSH1 0xA0 SHL SUB SWAP1 SWAP2 AND DUP2 MSTORE PUSH1 0x20 SWAP1 RETURN JUMPDEST DUP4 CALLVALUE PUSH2 0x2F5 JUMPI PUSH1 0x20 CALLDATASIZE PUSH1 0x3 NOT ADD SLT PUSH2 0x2F5 JUMPI PUSH2 0x33B PUSH2 0x7F1 JUMP JUMPDEST PUSH2 0x343 PUSH2 0x87F JUMP JUMPDEST PUSH1 0x1 DUP1 PUSH1 0xA0 SHL SUB AND PUSH1 0x1 PUSH1 0x1 PUSH1 0x60 SHL SUB PUSH1 0xA0 SHL PUSH1 0x10 SLOAD AND OR PUSH1 0x10 SSTORE DUP1 RETURN JUMPDEST DUP4 CALLVALUE PUSH2 0x2F5 JUMPI PUSH1 0x20 CALLDATASIZE PUSH1 0x3 NOT ADD SLT PUSH2 0x2F5 JUMPI PUSH2 0x37B PUSH2 0x7F1 JUMP JUMPDEST PUSH2 0x383 PUSH2 0x87F JUMP JUMPDEST PUSH1 0x1 PUSH1 0x1 PUSH1 0xA0 SHL SUB AND PUSH2 0x397 DUP2 ISZERO ISZERO PUSH2 0x8AB JUMP JUMPDEST PUSH1 0x1 PUSH1 0x1 PUSH1 0x60 SHL SUB PUSH1 0xA0 SHL PUSH1 0x12 SLOAD AND OR PUSH1 0x12 SSTORE DUP1 RETURN JUMPDEST PUSH2 0x862 JUMP JUMPDEST POP POP CALLVALUE PUSH2 0x261 JUMPI DUP2 PUSH1 0x3 NOT CALLDATASIZE ADD SLT PUSH2 0x261 JUMPI PUSH1 0x20 SWAP1 MLOAD PUSH1 0xA DUP2 MSTORE RETURN JUMPDEST DUP4 CALLVALUE PUSH2 0x2F5 JUMPI PUSH1 0x60 CALLDATASIZE PUSH1 0x3 NOT ADD SLT PUSH2 0x2F5 JUMPI PUSH2 0x3E8 PUSH2 0x7F1 JUMP JUMPDEST PUSH1 0x1 PUSH1 0x1 PUSH1 0xA0 SHL SUB PUSH1 0x24 CALLDATALOAD DUP2 DUP2 AND SWAP3 SWAP2 DUP4 DUP3 SUB PUSH2 0x422 JUMPI PUSH2 0x415 PUSH2 0x41F SWAP5 PUSH2 0x40E PUSH2 0x87F JUMP JUMPDEST ISZERO ISZERO PUSH2 0x8AB JUMP JUMPDEST PUSH1 0x44 CALLDATALOAD SWAP3 AND PUSH2 0xF9B JUMP JUMPDEST DUP1 RETURN JUMPDEST DUP5 DUP1 REVERT JUMPDEST POP POP CALLVALUE PUSH2 0x261 JUMPI DUP2 PUSH1 0x3 NOT CALLDATASIZE ADD SLT PUSH2 0x261 JUMPI PUSH1 0x20 SWAP1 MLOAD PUSH2 0x7D0 DUP2 MSTORE RETURN JUMPDEST PUSH2 0x845 JUMP JUMPDEST POP POP CALLVALUE PUSH2 0x261 JUMPI DUP2 PUSH1 0x3 NOT CALLDATASIZE ADD SLT PUSH2 0x261 JUMPI SWAP1 SLOAD SWAP1 MLOAD PUSH1 0x1 PUSH1 0x1 PUSH1 0xA0 SHL SUB SWAP1 SWAP2 AND DUP2 MSTORE PUSH1 0x20 SWAP1 RETURN JUMPDEST POP POP CALLVALUE PUSH2 0x261 JUMPI DUP2 PUSH1 0x3 NOT CALLDATASIZE ADD SLT PUSH2 0x261 JUMPI PUSH1 0xF SLOAD SWAP1 MLOAD PUSH1 0x1 PUSH1 0x1 PUSH1 0xA0 SHL SUB SWAP1 SWAP2 AND DUP2 MSTORE PUSH1 0x20 SWAP1 RETURN JUMPDEST DUP4 CALLVALUE PUSH2 0x2F5 JUMPI DUP1 PUSH1 0x3 NOT CALLDATASIZE ADD SLT PUSH2 0x2F5 JUMPI PUSH2 0x4B2 PUSH2 0x87F JUMP JUMPDEST DUP1 SLOAD PUSH1 0x1 PUSH1 0x1 PUSH1 0xA0 SHL SUB NOT DUP2 AND DUP3 SSTORE DUP2 SWAP1 PUSH1 0x1 PUSH1 0x1 PUSH1 0xA0 SHL SUB AND PUSH32 0x8BE0079C531659141344CD1FD0A4F28419497F9722A3DAAFE3B4186F6B6457E0 DUP3 DUP1 LOG3 DUP1 RETURN JUMPDEST DUP4 CALLVALUE PUSH2 0x2F5 JUMPI PUSH1 0x20 CALLDATASIZE PUSH1 0x3 NOT ADD SLT PUSH2 0x2F5 JUMPI PUSH2 0x50D PUSH2 0x7F1 JUMP JUMPDEST PUSH2 0x515 PUSH2 0x87F JUMP JUMPDEST PUSH1 0x1 DUP1 PUSH1 0xA0 SHL SUB AND PUSH1 0x1 PUSH1 0x1 PUSH1 0x60 SHL SUB PUSH1 0xA0 SHL PUSH1 0xF SLOAD AND OR PUSH1 0xF SSTORE DUP1 RETURN JUMPDEST POP CALLVALUE PUSH2 0x193 JUMPI DUP2 PUSH1 0x3 NOT CALLDATASIZE ADD SLT PUSH2 0x193 JUMPI PUSH2 0x54C PUSH2 0x7F1 JUMP JUMPDEST PUSH1 0x12 SLOAD SWAP1 SWAP3 SWAP1 CALLER PUSH1 0x1 PUSH1 0x1 PUSH1 0xA0 SHL SUB SWAP2 DUP3 AND EQ SWAP1 DUP2 ISZERO PUSH2 0x5A2 JUMPI JUMPDEST POP ISZERO PUSH2 0x57A JUMPI DUP4 PUSH2 0x41F PUSH1 0x24 CALLDATALOAD DUP6 PUSH2 0xA2F JUMP JUMPDEST SWAP1 PUSH1 0x20 PUSH1 0x64 SWAP3 MLOAD SWAP2 PUSH3 0x461BCD PUSH1 0xE5 SHL DUP4 MSTORE DUP3 ADD MSTORE PUSH1 0x2 PUSH1 0x24 DUP3 ADD MSTORE PUSH2 0x4E41 PUSH1 0xF0 SHL PUSH1 0x44 DUP3 ADD MSTORE REVERT JUMPDEST SWAP1 POP DUP5 SLOAD AND CALLER EQ CODESIZE PUSH2 0x567 JUMP JUMPDEST POP POP CALLVALUE PUSH2 0x261 JUMPI DUP2 PUSH1 0x3 NOT CALLDATASIZE ADD SLT PUSH2 0x261 JUMPI PUSH1 0x12 SLOAD SWAP1 MLOAD PUSH1 0x1 PUSH1 0x1 PUSH1 0xA0 SHL SUB SWAP1 SWAP2 AND DUP2 MSTORE PUSH1 0x20 SWAP1 RETURN JUMPDEST POP POP CALLVALUE PUSH2 0x261 JUMPI DUP2 PUSH1 0x3 NOT CALLDATASIZE ADD SLT PUSH2 0x261 JUMPI PUSH1 0x20 SWAP1 MLOAD PUSH1 0xC DUP2 MSTORE RETURN JUMPDEST POP SWAP2 CALLVALUE PUSH2 0x2F5 JUMPI PUSH1 0x20 CALLDATASIZE PUSH1 0x3 NOT ADD SLT PUSH2 0x2F5 JUMPI DUP3 CALLDATALOAD SWAP1 PUSH1 0x1 DUP3 LT ISZERO DUP1 PUSH2 0x649 JUMPI JUMPDEST PUSH2 0x61E SWAP1 PUSH2 0x8DC JUMP JUMPDEST PUSH1 0xB DUP3 LT ISZERO PUSH2 0x636 JUMPI PUSH1 0x20 DUP4 DUP4 PUSH1 0x3 ADD SLOAD SWAP1 MLOAD SWAP1 DUP2 MSTORE RETURN JUMPDEST PUSH4 0x4E487B71 PUSH1 0xE0 SHL DUP2 MSTORE PUSH1 0x32 DUP5 MSTORE PUSH1 0x24 SWAP1 REVERT JUMPDEST POP PUSH1 0xA DUP3 GT ISZERO PUSH2 0x615 JUMP JUMPDEST POP CALLVALUE PUSH2 0x193 JUMPI PUSH1 0x20 CALLDATASIZE PUSH1 0x3 NOT ADD SLT PUSH2 0x193 JUMPI PUSH1 0x20 SWAP3 DUP3 SWAP2 CALLDATALOAD DUP2 MSTORE PUSH1 0x2 DUP5 MSTORE KECCAK256 SLOAD SWAP1 MLOAD SWAP1 DUP2 MSTORE RETURN JUMPDEST POP POP CALLVALUE PUSH2 0x261 JUMPI DUP2 PUSH1 0x3 NOT CALLDATASIZE ADD SLT PUSH2 0x261 JUMPI PUSH1 0x10 SLOAD SWAP1 MLOAD PUSH1 0x1 PUSH1 0x1 PUSH1 0xA0 SHL SUB SWAP1 SWAP2 AND DUP2 MSTORE PUSH1 0x20 SWAP1 RETURN JUMPDEST POP POP CALLVALUE PUSH2 0x261 JUMPI DUP2 PUSH1 0x3 NOT CALLDATASIZE ADD SLT PUSH2 0x261 JUMPI PUSH1 0xE SLOAD SWAP1 MLOAD PUSH1 0x1 PUSH1 0x1 PUSH1 0xA0 SHL SUB SWAP1 SWAP2 AND DUP2 MSTORE PUSH1 0x20 SWAP1 RETURN JUMPDEST POP SWAP1 CALLVALUE PUSH2 0x193 JUMPI PUSH2 0x6DD CALLDATASIZE PUSH2 0x82F JUMP JUMPDEST SWAP3 SWAP1 SWAP2 PUSH2 0x6E8 PUSH2 0x87F JUMP JUMPDEST PUSH1 0x1 DUP4 LT ISZERO DUP1 PUSH2 0x74F JUMPI JUMPDEST PUSH2 0x6FC SWAP1 PUSH2 0x8DC JUMP JUMPDEST DUP4 ISZERO PUSH2 0x727 JUMPI POP PUSH1 0xB DUP3 LT ISZERO PUSH2 0x714 JUMPI POP PUSH1 0x3 ADD SSTORE DUP1 RETURN JUMPDEST PUSH4 0x4E487B71 PUSH1 0xE0 SHL DUP5 MSTORE PUSH1 0x32 SWAP1 MSTORE PUSH1 0x24 DUP4 REVERT JUMPDEST SWAP1 PUSH1 0x20 PUSH1 0x64 SWAP3 MLOAD SWAP2 PUSH3 0x461BCD PUSH1 0xE5 SHL DUP4 MSTORE DUP3 ADD MSTORE PUSH1 0x2 PUSH1 0x24 DUP3 ADD MSTORE PUSH2 0x503 PUSH1 0xF4 SHL PUSH1 0x44 DUP3 ADD MSTORE REVERT JUMPDEST POP PUSH1 0xA DUP4 GT ISZERO PUSH2 0x6F3 JUMP JUMPDEST POP CALLVALUE PUSH2 0x193 JUMPI PUSH1 0x20 CALLDATASIZE PUSH1 0x3 NOT ADD SLT PUSH2 0x193 JUMPI CALLDATALOAD PUSH1 0xB DUP2 LT ISZERO PUSH2 0x193 JUMPI PUSH1 0x20 SWAP3 POP PUSH1 0x3 ADD SLOAD SWAP1 MLOAD SWAP1 DUP2 MSTORE RETURN JUMPDEST DUP4 CALLVALUE PUSH2 0x2F5 JUMPI PUSH1 0x20 CALLDATASIZE PUSH1 0x3 NOT ADD SLT PUSH2 0x2F5 JUMPI PUSH2 0x79F PUSH2 0x7F1 JUMP JUMPDEST PUSH2 0x7A7 PUSH2 0x87F JUMP JUMPDEST PUSH1 0x1 DUP1 PUSH1 0xA0 SHL SUB AND PUSH1 0x1 PUSH1 0x1 PUSH1 0x60 SHL SUB PUSH1 0xA0 SHL PUSH1 0x11 SLOAD AND OR PUSH1 0x11 SSTORE DUP1 RETURN JUMPDEST DUP5 SWAP1 CALLVALUE PUSH2 0x261 JUMPI DUP2 PUSH1 0x3 NOT CALLDATASIZE ADD SLT PUSH2 0x261 JUMPI DUP1 PUSH2 0x222E PUSH1 0x20 SWAP3 MSTORE RETURN JUMPDEST PUSH1 0x0 SWAP2 SUB SLT PUSH2 0x7EC JUMPI JUMP JUMPDEST PUSH1 0x0 DUP1 REVERT JUMPDEST PUSH1 0x4 CALLDATALOAD SWAP1 PUSH1 0x1 PUSH1 0x1 PUSH1 0xA0 SHL SUB DUP3 AND DUP3 SUB PUSH2 0x7EC JUMPI JUMP JUMPDEST PUSH1 0xB DUP2 LT ISZERO PUSH2 0x819 JUMPI PUSH1 0x3 ADD SWAP1 PUSH1 0x0 SWAP1 JUMP JUMPDEST PUSH4 0x4E487B71 PUSH1 0xE0 SHL PUSH1 0x0 MSTORE PUSH1 0x32 PUSH1 0x4 MSTORE PUSH1 0x24 PUSH1 0x0 REVERT JUMPDEST PUSH1 0x40 SWAP1 PUSH1 0x3 NOT ADD SLT PUSH2 0x7EC JUMPI PUSH1 0x4 CALLDATALOAD SWAP1 PUSH1 0x24 CALLDATALOAD SWAP1 JUMP JUMPDEST CALLVALUE PUSH2 0x7EC JUMPI PUSH1 0x0 CALLDATASIZE PUSH1 0x3 NOT ADD SLT PUSH2 0x7EC JUMPI PUSH1 0x20 PUSH1 0x40 MLOAD PUSH2 0xFA0 DUP2 MSTORE RETURN JUMPDEST CALLVALUE PUSH2 0x7EC JUMPI PUSH1 0x0 CALLDATASIZE PUSH1 0x3 NOT ADD SLT PUSH2 0x7EC JUMPI PUSH1 0x20 PUSH1 0x40 MLOAD PUSH2 0x271 DUP2 MSTORE RETURN JUMPDEST PUSH1 0x0 SLOAD PUSH1 0x1 PUSH1 0x1 PUSH1 0xA0 SHL SUB AND CALLER SUB PUSH2 0x893 JUMPI JUMP JUMPDEST PUSH1 0x40 MLOAD PUSH4 0x118CDAA7 PUSH1 0xE0 SHL DUP2 MSTORE CALLER PUSH1 0x4 DUP3 ADD MSTORE PUSH1 0x24 SWAP1 REVERT JUMPDEST ISZERO PUSH2 0x8B2 JUMPI JUMP JUMPDEST PUSH1 0x40 MLOAD PUSH3 0x461BCD PUSH1 0xE5 SHL DUP2 MSTORE PUSH1 0x20 PUSH1 0x4 DUP3 ADD MSTORE PUSH1 0x2 PUSH1 0x24 DUP3 ADD MSTORE PUSH2 0x24AB PUSH1 0xF1 SHL PUSH1 0x44 DUP3 ADD MSTORE PUSH1 0x64 SWAP1 REVERT JUMPDEST ISZERO PUSH2 0x8E3 JUMPI JUMP JUMPDEST PUSH1 0x40 MLOAD PUSH3 0x461BCD PUSH1 0xE5 SHL DUP2 MSTORE PUSH1 0x20 PUSH1 0x4 DUP3 ADD MSTORE PUSH1 0x2 PUSH1 0x24 DUP3 ADD MSTORE PUSH2 0x1093 PUSH1 0xF2 SHL PUSH1 0x44 DUP3 ADD MSTORE PUSH1 0x64 SWAP1 REVERT JUMPDEST PUSH8 0xFFFFFFFFFFFFFFFF DUP2 GT PUSH2 0x921 JUMPI PUSH1 0x40 MSTORE JUMP JUMPDEST PUSH4 0x4E487B71 PUSH1 0xE0 SHL PUSH1 0x0 MSTORE PUSH1 0x41 PUSH1 0x4 MSTORE PUSH1 0x24 PUSH1 0x0 REVERT JUMPDEST PUSH1 0x40 MLOAD SWAP1 PUSH1 0x60 DUP3 ADD DUP3 DUP2 LT PUSH8 0xFFFFFFFFFFFFFFFF DUP3 GT OR PUSH2 0x921 JUMPI PUSH1 0x40 MSTORE JUMP JUMPDEST DUP1 SLOAD DUP3 LT ISZERO PUSH2 0x819 JUMPI PUSH1 0x0 MSTORE PUSH1 0x3 PUSH1 0x20 PUSH1 0x0 KECCAK256 SWAP2 MUL ADD SWAP1 PUSH1 0x0 SWAP1 JUMP JUMPDEST DUP1 SLOAD PUSH9 0x10000000000000000 DUP2 LT ISZERO PUSH2 0x921 JUMPI PUSH2 0x995 SWAP2 PUSH1 0x1 DUP3 ADD DUP2 SSTORE PUSH2 0x957 JUMP JUMPDEST PUSH2 0x9D7 JUMPI PUSH1 0x2 PUSH1 0x40 SWAP2 PUSH1 0x1 DUP1 PUSH1 0xA0 SHL SUB DUP5 MLOAD AND PUSH1 0x1 PUSH1 0x1 PUSH1 0x60 SHL SUB PUSH1 0xA0 SHL DUP3 SLOAD AND OR DUP2 SSTORE PUSH1 0x20 DUP5 ADD MLOAD PUSH1 0x1 DUP3 ADD SSTORE ADD SWAP2 ADD MLOAD ISZERO ISZERO PUSH1 0xFF DUP1 NOT DUP4 SLOAD AND SWAP2 AND OR SWAP1 SSTORE JUMP JUMPDEST PUSH4 0x4E487B71 PUSH1 0xE0 SHL PUSH1 0x0 MSTORE PUSH1 0x0 PUSH1 0x4 MSTORE PUSH1 0x24 PUSH1 0x0 REVERT JUMPDEST PUSH1 0x0 NOT DUP2 ADD SWAP2 SWAP1 DUP3 GT PUSH2 0x9FC JUMPI JUMP JUMPDEST PUSH4 0x4E487B71 PUSH1 0xE0 SHL PUSH1 0x0 MSTORE PUSH1 0x11 PUSH1 0x4 MSTORE PUSH1 0x24 PUSH1 0x0 REVERT JUMPDEST PUSH1 0x0 NOT DUP2 EQ PUSH2 0x9FC JUMPI PUSH1 0x1 ADD SWAP1 JUMP JUMPDEST SWAP1 PUSH1 0x1 DUP3 ADD DUP1 SWAP3 GT PUSH2 0x9FC JUMPI JUMP JUMPDEST SWAP1 PUSH2 0xA6F PUSH2 0xA47 DUP3 PUSH1 0x0 MSTORE PUSH1 0x1 PUSH1 0x20 MSTORE PUSH1 0x40 PUSH1 0x0 KECCAK256 SWAP1 JUMP JUMPDEST PUSH2 0xA4F PUSH2 0x937 JUMP JUMPDEST PUSH1 0x1 PUSH1 0x1 PUSH1 0xA0 SHL SUB DUP6 AND DUP2 MSTORE SWAP1 PUSH1 0x0 PUSH1 0x20 DUP4 ADD MSTORE PUSH1 0x0 PUSH1 0x40 DUP4 ADD MSTORE PUSH2 0x973 JUMP JUMPDEST DUP1 PUSH2 0xA8D PUSH2 0xA87 DUP3 PUSH1 0x0 MSTORE PUSH1 0x1 PUSH1 0x20 MSTORE PUSH1 0x40 PUSH1 0x0 KECCAK256 SWAP1 JUMP JUMPDEST SLOAD PUSH2 0x9ED JUMP JUMPDEST PUSH1 0x40 MLOAD DUP2 DUP2 MSTORE SWAP1 SWAP4 PUSH1 0x1 PUSH1 0x1 PUSH1 0xA0 SHL SUB AND SWAP1 PUSH32 0x4E755DD64E53A9F7A5882E2E32EB64718C2273DE11E017BD47129B9FE2716D7C SWAP1 PUSH1 0x20 SWAP1 LOG3 PUSH2 0xAD9 DUP2 PUSH1 0x0 MSTORE PUSH1 0x2 PUSH1 0x20 MSTORE PUSH1 0x40 PUSH1 0x0 KECCAK256 SWAP1 JUMP JUMPDEST SLOAD SWAP2 DUP3 LT PUSH2 0xAE5 JUMPI POP POP JUMP JUMPDEST PUSH2 0xB02 DUP3 PUSH2 0xAFD DUP4 PUSH1 0x0 MSTORE PUSH1 0x1 PUSH1 0x20 MSTORE PUSH1 0x40 PUSH1 0x0 KECCAK256 SWAP1 JUMP JUMPDEST PUSH2 0x957 JUMP JUMPDEST POP SWAP2 PUSH1 0xC PUSH1 0x1 DUP5 ADD PUSH2 0xB14 DUP2 SLOAD PUSH2 0xA12 JUMP JUMPDEST DUP1 SWAP2 SSTORE LT ISZERO PUSH2 0xB22 JUMPI POP POP POP JUMP JUMPDEST DUP3 PUSH2 0xB46 PUSH2 0xB68 SWAP3 PUSH2 0xB41 PUSH1 0x2 PUSH2 0xB6D SWAP8 ADD PUSH1 0x1 PUSH1 0xFF NOT DUP3 SLOAD AND OR SWAP1 SSTORE JUMP JUMPDEST PUSH2 0xA21 JUMP JUMPDEST PUSH2 0xB5A DUP5 PUSH1 0x0 MSTORE PUSH1 0x2 PUSH1 0x20 MSTORE PUSH1 0x40 PUSH1 0x0 KECCAK256 SWAP1 JUMP JUMPDEST SSTORE SLOAD PUSH1 0x1 PUSH1 0x1 PUSH1 0xA0 SHL SUB AND SWAP1 JUMP JUMPDEST PUSH2 0xBED JUMP JUMPDEST JUMP JUMPDEST SWAP1 PUSH1 0xC DUP3 MUL SWAP2 DUP1 DUP4 DIV PUSH1 0xC EQ SWAP1 ISZERO OR ISZERO PUSH2 0x9FC JUMPI JUMP JUMPDEST SWAP1 PUSH2 0x222E SWAP2 DUP3 DUP2 MUL SWAP3 DUP2 DUP5 DIV EQ SWAP1 ISZERO OR ISZERO PUSH2 0x9FC JUMPI JUMP JUMPDEST SWAP1 PUSH2 0x271 SWAP2 DUP3 DUP2 MUL SWAP3 DUP2 DUP5 DIV EQ SWAP1 ISZERO OR ISZERO PUSH2 0x9FC JUMPI JUMP JUMPDEST SWAP1 PUSH2 0xFA0 SWAP2 DUP3 DUP2 MUL SWAP3 DUP2 DUP5 DIV EQ SWAP1 ISZERO OR ISZERO PUSH2 0x9FC JUMPI JUMP JUMPDEST SWAP1 PUSH2 0x7D0 SWAP2 DUP3 DUP2 MUL SWAP3 DUP2 DUP5 DIV EQ SWAP1 ISZERO OR ISZERO PUSH2 0x9FC JUMPI JUMP JUMPDEST PUSH1 0x40 MLOAD RETURNDATASIZE PUSH1 0x0 DUP3 RETURNDATACOPY RETURNDATASIZE SWAP1 REVERT JUMPDEST PUSH2 0xC0B PUSH2 0xC06 PUSH2 0xBFC DUP5 PUSH2 0x807 JUMP JUMPDEST SWAP1 SLOAD SWAP1 PUSH1 0x3 SHL SHR SWAP1 JUMP JUMPDEST PUSH2 0xB6F JUMP JUMPDEST SWAP2 PUSH1 0xA DUP2 LT ISZERO PUSH2 0xE21 JUMPI PUSH2 0xC35 PUSH2 0xC27 PUSH2 0xC2F PUSH2 0xC27 DUP7 PUSH2 0xBB3 JUMP JUMPDEST PUSH2 0x2710 SWAP1 DIV SWAP1 JUMP JUMPDEST SWAP5 PUSH2 0xBCA JUMP JUMPDEST PUSH1 0xF SLOAD SWAP1 SWAP4 SWAP1 PUSH1 0x1 PUSH1 0x1 PUSH1 0xA0 SHL SUB SWAP1 DUP2 AND DUP3 DUP6 DUP3 PUSH2 0xE10 JUMPI JUMPDEST POP POP PUSH1 0x10 SLOAD PUSH1 0x1 PUSH1 0x1 PUSH1 0xA0 SHL SUB AND SWAP1 POP DUP6 DUP3 DUP3 AND PUSH2 0xDF3 JUMPI JUMPDEST POP POP PUSH1 0x12 SLOAD DUP2 AND PUSH1 0x1 PUSH1 0x1 PUSH1 0xA0 SHL SUB AND DUP1 PUSH2 0xCB7 JUMPI JUMPDEST POP PUSH1 0x40 DUP1 MLOAD SWAP3 DUP4 MSTORE PUSH1 0x20 DUP4 ADD SWAP6 SWAP1 SWAP6 MSTORE PUSH2 0xB6D SWAP5 PUSH2 0xCB1 SWAP4 SWAP3 DUP4 SWAP3 DUP7 AND SWAP2 PUSH1 0x0 DUP1 MLOAD PUSH1 0x20 PUSH2 0x101D DUP4 CODECOPY DUP2 MLOAD SWAP2 MSTORE SWAP2 LOG3 PUSH2 0xA21 JUMP JUMPDEST SWAP1 PUSH2 0xA2F JUMP JUMPDEST DUP1 SWAP4 SWAP3 SWAP2 SWAP4 EXTCODESIZE ISZERO PUSH2 0x7EC JUMPI PUSH1 0x40 MLOAD PUSH4 0x1A495E57 PUSH1 0xE3 SHL DUP2 MSTORE PUSH1 0x1 PUSH1 0x1 PUSH1 0xA0 SHL SUB DUP7 AND PUSH1 0x4 DUP3 ADD MSTORE PUSH1 0x24 DUP2 ADD DUP4 SWAP1 MSTORE PUSH1 0x44 DUP2 ADD DUP5 SWAP1 MSTORE PUSH1 0x0 SWAP2 DUP3 SWAP1 DUP3 SWAP1 PUSH1 0x64 SWAP1 DUP3 SWAP1 DUP5 SWAP1 GAS CALL DUP1 ISZERO PUSH2 0xDD7 JUMPI PUSH2 0xDE0 JUMPI JUMPDEST POP PUSH1 0x12 SLOAD PUSH2 0xD2B SWAP1 PUSH2 0xD1F SWAP1 PUSH1 0x1 PUSH1 0x1 PUSH1 0xA0 SHL SUB AND DUP2 JUMP JUMPDEST PUSH1 0x1 PUSH1 0x1 PUSH1 0xA0 SHL SUB AND SWAP1 JUMP JUMPDEST PUSH2 0xD3F PUSH2 0xBFC PUSH2 0xD3A DUP7 PUSH2 0xA21 JUMP JUMPDEST PUSH2 0x807 JUMP JUMPDEST SWAP1 PUSH2 0xD49 DUP6 PUSH2 0xA21 JUMP JUMPDEST SWAP2 DUP2 EXTCODESIZE ISZERO PUSH2 0xDDC JUMPI PUSH1 0x40 MLOAD PUSH4 0xECDC5907 PUSH1 0xE0 SHL DUP2 MSTORE PUSH1 0x1 PUSH1 0x1 PUSH1 0xA0 SHL SUB DUP10 AND PUSH1 0x4 DUP3 ADD MSTORE PUSH1 0x24 DUP2 ADD SWAP2 SWAP1 SWAP2 MSTORE PUSH1 0x44 DUP2 ADD SWAP3 SWAP1 SWAP3 MSTORE SWAP1 SWAP3 SWAP2 SWAP1 DUP4 SWAP1 PUSH1 0x64 SWAP1 DUP3 SWAP1 DUP5 SWAP1 GAS CALL DUP1 ISZERO PUSH2 0xDD7 JUMPI PUSH2 0xB6D SWAP7 PUSH2 0xCB1 SWAP6 DUP6 SWAP5 PUSH1 0x0 DUP1 MLOAD PUSH1 0x20 PUSH2 0x101D DUP4 CODECOPY DUP2 MLOAD SWAP2 MSTORE SWAP4 PUSH2 0xDBE JUMPI JUMPDEST POP SWAP4 POP SWAP7 POP POP SWAP2 SWAP3 PUSH2 0xC7D JUMP JUMPDEST DUP1 PUSH2 0xDCB PUSH2 0xDD1 SWAP3 PUSH2 0x90D JUMP JUMPDEST DUP1 PUSH2 0x7E1 JUMP JUMPDEST CODESIZE PUSH2 0xDB1 JUMP JUMPDEST PUSH2 0xBE1 JUMP JUMPDEST DUP4 DUP1 REVERT JUMPDEST DUP1 PUSH2 0xDCB PUSH2 0xDED SWAP3 PUSH2 0x90D JUMP JUMPDEST CODESIZE PUSH2 0xD07 JUMP JUMPDEST PUSH1 0xE SLOAD PUSH2 0xE09 SWAP3 SWAP1 PUSH1 0x1 PUSH1 0x1 PUSH1 0xA0 SHL SUB AND PUSH2 0xF9B JUMP JUMPDEST CODESIZE DUP6 PUSH2 0xC67 JUMP JUMPDEST PUSH2 0xE19 SWAP3 PUSH2 0xF9B JUMP JUMPDEST CODESIZE DUP3 DUP6 PUSH2 0xC4E JUMP JUMPDEST SWAP2 SWAP1 PUSH2 0xE2F PUSH2 0xC27 DUP4 PUSH2 0xB85 JUMP JUMPDEST SWAP2 PUSH2 0xE48 PUSH2 0xC27 PUSH2 0xE42 PUSH2 0xC27 DUP5 PUSH2 0xB9C JUMP JUMPDEST SWAP3 PUSH2 0xB9C JUMP JUMPDEST PUSH1 0xF SLOAD SWAP1 SWAP3 PUSH1 0x1 PUSH1 0x1 PUSH1 0xA0 SHL SUB SWAP3 SWAP1 SWAP2 DUP4 AND DUP6 DUP4 DUP3 PUSH2 0xF8A JUMPI JUMPDEST POP POP PUSH1 0x11 SLOAD PUSH1 0x1 PUSH1 0x1 PUSH1 0xA0 SHL SUB AND SWAP1 POP SWAP1 DUP4 DUP3 AND PUSH2 0xF6D JUMPI JUMPDEST POP POP PUSH1 0x10 SLOAD PUSH1 0x1 PUSH1 0x1 PUSH1 0xA0 SHL SUB AND DUP4 DUP4 DUP3 AND PUSH2 0xF50 JUMPI JUMPDEST POP POP PUSH1 0x12 SLOAD DUP3 AND PUSH1 0x1 PUSH1 0x1 PUSH1 0xA0 SHL SUB AND DUP1 PUSH2 0xED4 JUMPI JUMPDEST POP PUSH1 0x40 DUP1 MLOAD SWAP5 DUP6 MSTORE PUSH1 0x20 DUP6 ADD SWAP4 SWAP1 SWAP4 MSTORE AND SWAP2 PUSH1 0x0 DUP1 MLOAD PUSH1 0x20 PUSH2 0x101D DUP4 CODECOPY DUP2 MLOAD SWAP2 MSTORE SWAP2 DUP2 SWAP1 DUP2 ADD JUMPDEST SUB SWAP1 LOG3 JUMP JUMPDEST SWAP3 DUP4 EXTCODESIZE ISZERO PUSH2 0x7EC JUMPI PUSH1 0x40 MLOAD PUSH4 0x1A495E57 PUSH1 0xE3 SHL DUP2 MSTORE PUSH1 0x1 PUSH1 0x1 PUSH1 0xA0 SHL SUB DUP4 AND PUSH1 0x4 DUP3 ADD MSTORE PUSH1 0x24 DUP2 ADD DUP7 SWAP1 MSTORE PUSH1 0x44 DUP2 ADD DUP8 SWAP1 MSTORE SWAP4 PUSH1 0x0 SWAP1 DUP6 SWAP1 PUSH1 0x64 SWAP1 DUP3 SWAP1 DUP5 SWAP1 GAS CALL SWAP1 DUP2 ISZERO PUSH2 0xDD7 JUMPI PUSH1 0x0 DUP1 MLOAD PUSH1 0x20 PUSH2 0x101D DUP4 CODECOPY DUP2 MLOAD SWAP2 MSTORE SWAP5 PUSH2 0xECF SWAP3 PUSH2 0xF3D JUMPI JUMPDEST POP SWAP4 POP PUSH2 0xEA8 JUMP JUMPDEST DUP1 PUSH2 0xDCB PUSH2 0xF4A SWAP3 PUSH2 0x90D JUMP JUMPDEST CODESIZE PUSH2 0xF35 JUMP JUMPDEST PUSH1 0xE SLOAD PUSH2 0xF66 SWAP3 SWAP1 PUSH1 0x1 PUSH1 0x1 PUSH1 0xA0 SHL SUB AND PUSH2 0xF9B JUMP JUMPDEST CODESIZE DUP4 PUSH2 0xE92 JUMP JUMPDEST PUSH1 0xE SLOAD PUSH2 0xF83 SWAP3 SWAP1 PUSH1 0x1 PUSH1 0x1 PUSH1 0xA0 SHL SUB AND PUSH2 0xF9B JUMP JUMPDEST CODESIZE DUP1 PUSH2 0xE7B JUMP JUMPDEST PUSH2 0xF93 SWAP3 PUSH2 0xF9B JUMP JUMPDEST CODESIZE DUP6 DUP4 PUSH2 0xE62 JUMP JUMPDEST PUSH1 0x40 MLOAD PUSH4 0xA9059CBB PUSH1 0xE0 SHL PUSH1 0x0 SWAP1 DUP2 MSTORE PUSH1 0x1 PUSH1 0x1 PUSH1 0xA0 SHL SUB SWAP4 DUP5 AND PUSH1 0x4 MSTORE PUSH1 0x24 SWAP5 SWAP1 SWAP5 MSTORE SWAP3 PUSH1 0x20 SWAP1 PUSH1 0x44 DUP2 DUP1 DUP6 GAS CALL PUSH1 0x1 PUSH1 0x0 MLOAD EQ DUP2 AND ISZERO PUSH2 0xFFC JUMPI JUMPDEST DUP4 PUSH1 0x40 MSTORE ISZERO PUSH2 0xFE6 JUMPI POP POP POP JUMP JUMPDEST PUSH4 0x5274AFE7 PUSH1 0xE0 SHL DUP4 MSTORE AND PUSH1 0x4 DUP3 ADD MSTORE PUSH1 0x24 SWAP2 POP REVERT JUMPDEST PUSH1 0x1 DUP2 ISZERO AND PUSH2 0x1012 JUMPI DUP2 EXTCODESIZE ISZERO ISZERO RETURNDATASIZE ISZERO AND AND PUSH2 0xFD8 JUMP JUMPDEST DUP4 RETURNDATASIZE PUSH1 0x0 DUP3 RETURNDATACOPY RETURNDATASIZE SWAP1 REVERT INVALID 0xC9 0xDF 0xD5 DIV PUSH15 0x5F1BE95C560D1B85295F8AFD28D010 0x2C KECCAK256 0xE0 0xB4 GT 0x2B DUP9 0xBD ORIGIN DUP13 LOG4 CALLER LOG2 PUSH5 0x6970667358 0x22 SLT KECCAK256 0x24 0x1F PUSH13 0xCE199926B7109921E6AF80E7BE 0xD2 ADDMOD 0xDD PUSH8 0xE59456BDE494685 0xFC XOR PUSH32 0xF64736F6C634300081400330000000000000000000000000000000000000000 "},"methodIdentifiers":{"BASIS_POINTS()":"e1f1c4a7","BOARD_10_LIQUIDITY_RATE_BP()":"7d4cf0b8","BOARD_10_REWARD_RATE_BP()":"04841337","BOARD_10_SYSTEM_RATE_BP()":"b2418af8","BOARD_LIQUIDITY_RATE_BP()":"a5c34061","BOARD_MEMBERS_REQUIRED()":"4e759962","BOARD_NEXT_POOL_RATE_BP()":"9898fcd3","BOARD_REWARD_RATE_BP()":"61dba5f3","TOTAL_BOARDS()":"b0ac4626","boardCurrentIndex(uint256)":"f3b36bf8","boardPrices(uint256)":"2389e78a","btcRewardToken()":"8919d5e9","coinLiquidityAddress()":"39ae9efd","enterBoard(address,uint256)":"686a38bd","getBoardCurrentIndex(uint256)":"3ac272c2","getBoardMatrixInfo(uint256,uint256)":"d4a90286","getBoardPrice(uint256)":"47cd5191","getBoardQueueLength(uint256)":"eb63e1c2","mlmContract()":"53dafcbb","owner()":"8da5cb5b","paymentToken()":"3013ce29","recoverToken(address,address,uint256)":"a7229fd9","renounceOwnership()":"715018a6","setBoardPrice(uint256,uint256)":"29d7f9eb","setBtcRewardToken(address)":"6f8760fe","setCoinLiquidityAddress(address)":"d3ba4f96","setMLMContract(address)":"ce870263","setSystemAddress(address)":"06210197","systemAddress()":"d3e848f1","transferOwnership(address)":"f2fde38b"}}}}}