{"contracts/MLMContract.sol":{"MLMContract":{"abi":[{"inputs":[{"internalType":"address","name":"_paymentToken","type":"address"},{"internalType":"uint8","name":"_tokenDecimals","type":"uint8"},{"internalType":"address","name":"_feeRecipient","type":"address"},{"internalType":"address","name":"_adminBinaryWallet","type":"address"}],"stateMutability":"nonpayable","type":"constructor"},{"inputs":[],"name":"EnforcedPause","type":"error"},{"inputs":[],"name":"ExpectedPause","type":"error"},{"inputs":[{"internalType":"address","name":"owner","type":"address"}],"name":"OwnableInvalidOwner","type":"error"},{"inputs":[{"internalType":"address","name":"account","type":"address"}],"name":"OwnableUnauthorizedAccount","type":"error"},{"inputs":[],"name":"ReentrancyGuardReentrantCall","type":"error"},{"inputs":[{"internalType":"address","name":"token","type":"address"}],"name":"SafeERC20FailedOperation","type":"error"},{"anonymous":false,"inputs":[{"indexed":true,"internalType":"address","name":"oldWallet","type":"address"},{"indexed":true,"internalType":"address","name":"newWallet","type":"address"}],"name":"AdminBinaryWalletUpdated","type":"event"},{"anonymous":false,"inputs":[{"indexed":false,"internalType":"uint256","name":"batchNumber","type":"uint256"},{"indexed":false,"internalType":"uint256","name":"processedCount","type":"uint256"}],"name":"BinaryBatchProcessed","type":"event"},{"anonymous":false,"inputs":[{"indexed":false,"internalType":"uint256","name":"oldSize","type":"uint256"},{"indexed":false,"internalType":"uint256","name":"newSize","type":"uint256"}],"name":"BinaryBatchSizeUpdated","type":"event"},{"anonymous":false,"inputs":[{"indexed":true,"internalType":"address","name":"user","type":"address"},{"indexed":false,"internalType":"uint256","name":"flushedAmount","type":"uint256"}],"name":"BinaryFlushed","type":"event"},{"anonymous":false,"inputs":[{"indexed":true,"internalType":"address","name":"user","type":"address"},{"indexed":false,"internalType":"uint256","name":"amount","type":"uint256"}],"name":"BinaryIncomeAllocated","type":"event"},{"anonymous":false,"inputs":[{"indexed":true,"internalType":"address","name":"user","type":"address"},{"indexed":false,"internalType":"uint256","name":"amount","type":"uint256"}],"name":"BinaryIncomeClaimed","type":"event"},{"anonymous":false,"inputs":[{"indexed":true,"internalType":"address","name":"processor","type":"address"},{"indexed":false,"internalType":"bool","name":"status","type":"bool"}],"name":"BinaryProcessorUpdated","type":"event"},{"anonymous":false,"inputs":[{"indexed":true,"internalType":"address","name":"owner","type":"address"},{"indexed":true,"internalType":"uint256","name":"boardLevel","type":"uint256"},{"indexed":false,"internalType":"uint256","name":"reward","type":"uint256"},{"indexed":false,"internalType":"uint256","name":"liquidity","type":"uint256"}],"name":"BoardCompleted","type":"event"},{"anonymous":false,"inputs":[{"indexed":true,"internalType":"address","name":"user","type":"address"},{"indexed":true,"internalType":"uint256","name":"boardLevel","type":"uint256"},{"indexed":false,"internalType":"uint256","name":"matrixIndex","type":"uint256"}],"name":"BoardEntered","type":"event"},{"anonymous":false,"inputs":[{"indexed":true,"internalType":"address","name":"user","type":"address"},{"indexed":false,"internalType":"uint256","name":"amount","type":"uint256"}],"name":"BtcPoolCredited","type":"event"},{"anonymous":false,"inputs":[{"indexed":true,"internalType":"address","name":"oldAddr","type":"address"},{"indexed":true,"internalType":"address","name":"newAddr","type":"address"}],"name":"CoinLiquidityAddressUpdated","type":"event"},{"anonymous":false,"inputs":[{"indexed":true,"internalType":"address","name":"to","type":"address"},{"indexed":false,"internalType":"uint256","name":"amount","type":"uint256"}],"name":"ContractFundsWithdrawn","type":"event"},{"anonymous":false,"inputs":[{"indexed":false,"internalType":"enum MLMContract.Package","name":"pkg","type":"uint8"},{"indexed":false,"internalType":"uint256","name":"oldCap","type":"uint256"},{"indexed":false,"internalType":"uint256","name":"newCap","type":"uint256"}],"name":"DailyCappingUpdated","type":"event"},{"anonymous":false,"inputs":[{"indexed":true,"internalType":"address","name":"recipient","type":"address"},{"indexed":true,"internalType":"address","name":"from","type":"address"},{"indexed":false,"internalType":"uint256","name":"amount","type":"uint256"}],"name":"DirectIncomeDistributed","type":"event"},{"anonymous":false,"inputs":[{"indexed":true,"internalType":"address","name":"token","type":"address"},{"indexed":true,"internalType":"address","name":"to","type":"address"},{"indexed":false,"internalType":"uint256","name":"amount","type":"uint256"}],"name":"EmergencyTokenRecovery","type":"event"},{"anonymous":false,"inputs":[{"indexed":true,"internalType":"address","name":"oldRecipient","type":"address"},{"indexed":true,"internalType":"address","name":"newRecipient","type":"address"}],"name":"FeeRecipientUpdated","type":"event"},{"anonymous":false,"inputs":[{"indexed":true,"internalType":"address","name":"user","type":"address"},{"indexed":false,"internalType":"uint256","name":"userId","type":"uint256"},{"indexed":false,"internalType":"enum MLMContract.Package","name":"pkg","type":"uint8"},{"indexed":true,"internalType":"address","name":"sponsor","type":"address"}],"name":"FreeAccountActivated","type":"event"},{"anonymous":false,"inputs":[{"indexed":true,"internalType":"address","name":"user","type":"address"},{"indexed":false,"internalType":"uint256","name":"flushedAmount","type":"uint256"}],"name":"GracePeriodExpired","type":"event"},{"anonymous":false,"inputs":[{"indexed":true,"internalType":"address","name":"user","type":"address"},{"indexed":false,"internalType":"uint256","name":"startTime","type":"uint256"}],"name":"GracePeriodStarted","type":"event"},{"anonymous":false,"inputs":[{"indexed":true,"internalType":"address","name":"oldToken","type":"address"},{"indexed":true,"internalType":"address","name":"newToken","type":"address"}],"name":"MTokenUpdated","type":"event"},{"anonymous":false,"inputs":[{"indexed":true,"internalType":"address","name":"recipient","type":"address"},{"indexed":true,"internalType":"address","name":"from","type":"address"},{"indexed":false,"internalType":"uint256","name":"amount","type":"uint256"},{"indexed":false,"internalType":"uint256","name":"level","type":"uint256"}],"name":"MatchingOverrideDistributed","type":"event"},{"anonymous":false,"inputs":[{"indexed":false,"internalType":"enum MLMContract.Package","name":"pkg","type":"uint8"},{"indexed":false,"internalType":"uint256","name":"oldLimit","type":"uint256"},{"indexed":false,"internalType":"uint256","name":"newLimit","type":"uint256"}],"name":"MaxIncomeLimitUpdated","type":"event"},{"anonymous":false,"inputs":[{"indexed":true,"internalType":"address","name":"previousOwner","type":"address"},{"indexed":true,"internalType":"address","name":"newOwner","type":"address"}],"name":"OwnershipTransferred","type":"event"},{"anonymous":false,"inputs":[{"indexed":true,"internalType":"address","name":"user","type":"address"},{"indexed":false,"internalType":"enum MLMContract.Package","name":"pkg","type":"uint8"},{"indexed":false,"internalType":"uint256","name":"amountPaid","type":"uint256"}],"name":"PackageActivated","type":"event"},{"anonymous":false,"inputs":[{"indexed":false,"internalType":"enum MLMContract.Package","name":"pkg","type":"uint8"},{"indexed":false,"internalType":"uint256","name":"oldPrice","type":"uint256"},{"indexed":false,"internalType":"uint256","name":"newPrice","type":"uint256"}],"name":"PackagePriceUpdated","type":"event"},{"anonymous":false,"inputs":[{"indexed":true,"internalType":"address","name":"user","type":"address"},{"indexed":false,"internalType":"enum MLMContract.Package","name":"oldPkg","type":"uint8"},{"indexed":false,"internalType":"enum MLMContract.Package","name":"newPkg","type":"uint8"},{"indexed":false,"internalType":"uint256","name":"amountPaid","type":"uint256"}],"name":"PackageUpgraded","type":"event"},{"anonymous":false,"inputs":[{"indexed":false,"internalType":"address","name":"account","type":"address"}],"name":"Paused","type":"event"},{"anonymous":false,"inputs":[{"indexed":true,"internalType":"address","name":"oldToken","type":"address"},{"indexed":true,"internalType":"address","name":"newToken","type":"address"}],"name":"PaymentTokenUpdated","type":"event"},{"anonymous":false,"inputs":[{"indexed":true,"internalType":"address","name":"oldAddr","type":"address"},{"indexed":true,"internalType":"address","name":"newAddr","type":"address"}],"name":"ProductWalletUpdated","type":"event"},{"anonymous":false,"inputs":[{"indexed":true,"internalType":"address","name":"user","type":"address"}],"name":"ProfileUpdated","type":"event"},{"anonymous":false,"inputs":[{"indexed":true,"internalType":"address","name":"user","type":"address"},{"indexed":false,"internalType":"enum MLMContract.Package","name":"pkg","type":"uint8"},{"indexed":false,"internalType":"uint256","name":"amountPaid","type":"uint256"}],"name":"Reactivated","type":"event"},{"anonymous":false,"inputs":[{"indexed":true,"internalType":"address","name":"oldAddr","type":"address"},{"indexed":true,"internalType":"address","name":"newAddr","type":"address"}],"name":"SystemAddressUpdated","type":"event"},{"anonymous":false,"inputs":[{"indexed":true,"internalType":"address","name":"user","type":"address"},{"indexed":false,"internalType":"uint256","name":"amount","type":"uint256"}],"name":"TempWalletClaimed","type":"event"},{"anonymous":false,"inputs":[{"indexed":false,"internalType":"address","name":"account","type":"address"}],"name":"Unpaused","type":"event"},{"anonymous":false,"inputs":[{"indexed":true,"internalType":"address","name":"user","type":"address"},{"indexed":false,"internalType":"uint256","name":"userId","type":"uint256"},{"indexed":true,"internalType":"address","name":"sponsor","type":"address"},{"indexed":true,"internalType":"address","name":"binaryParent","type":"address"},{"indexed":false,"internalType":"enum MLMContract.Side","name":"side","type":"uint8"}],"name":"UserRegistered","type":"event"},{"anonymous":false,"inputs":[{"indexed":true,"internalType":"address","name":"user","type":"address"},{"indexed":false,"internalType":"uint256","name":"netAmount","type":"uint256"},{"indexed":false,"internalType":"uint256","name":"fee","type":"uint256"}],"name":"Withdrawal","type":"event"},{"anonymous":false,"inputs":[{"indexed":false,"internalType":"uint256","name":"oldFee","type":"uint256"},{"indexed":false,"internalType":"uint256","name":"newFee","type":"uint256"}],"name":"WithdrawalFeeUpdated","type":"event"},{"anonymous":false,"inputs":[{"indexed":true,"internalType":"address","name":"recipient","type":"address"},{"indexed":true,"internalType":"address","name":"from","type":"address"},{"indexed":false,"internalType":"uint256","name":"amount","type":"uint256"},{"indexed":false,"internalType":"uint256","name":"level","type":"uint256"}],"name":"WithdrawalMatchDistributed","type":"event"},{"anonymous":false,"inputs":[{"indexed":false,"internalType":"uint256","name":"oldRate","type":"uint256"},{"indexed":false,"internalType":"uint256","name":"newRate","type":"uint256"}],"name":"WithdrawalUsdtRateUpdated","type":"event"},{"inputs":[],"name":"BASIS_POINTS","outputs":[{"internalType":"uint256","name":"","type":"uint256"}],"stateMutability":"view","type":"function"},{"inputs":[],"name":"BINARY_RATE","outputs":[{"internalType":"uint256","name":"","type":"uint256"}],"stateMutability":"view","type":"function"},{"inputs":[],"name":"BOARD_10_LIQUIDITY_RATE_BP","outputs":[{"internalType":"uint256","name":"","type":"uint256"}],"stateMutability":"view","type":"function"},{"inputs":[],"name":"BOARD_10_REWARD_RATE_BP","outputs":[{"internalType":"uint256","name":"","type":"uint256"}],"stateMutability":"view","type":"function"},{"inputs":[],"name":"BOARD_10_SYSTEM_RATE_BP","outputs":[{"internalType":"uint256","name":"","type":"uint256"}],"stateMutability":"view","type":"function"},{"inputs":[],"name":"BOARD_LIQUIDITY_RATE_BP","outputs":[{"internalType":"uint256","name":"","type":"uint256"}],"stateMutability":"view","type":"function"},{"inputs":[],"name":"BOARD_MEMBERS_REQUIRED","outputs":[{"internalType":"uint256","name":"","type":"uint256"}],"stateMutability":"view","type":"function"},{"inputs":[],"name":"BOARD_NEXT_POOL_RATE_BP","outputs":[{"internalType":"uint256","name":"","type":"uint256"}],"stateMutability":"view","type":"function"},{"inputs":[],"name":"BOARD_REWARD_RATE_BP","outputs":[{"internalType":"uint256","name":"","type":"uint256"}],"stateMutability":"view","type":"function"},{"inputs":[],"name":"BTC_POOL_RATE","outputs":[{"internalType":"uint256","name":"","type":"uint256"}],"stateMutability":"view","type":"function"},{"inputs":[],"name":"GRACE_PERIOD_DURATION","outputs":[{"internalType":"uint256","name":"","type":"uint256"}],"stateMutability":"view","type":"function"},{"inputs":[],"name":"INCOME_SPLIT_RATE","outputs":[{"internalType":"uint256","name":"","type":"uint256"}],"stateMutability":"view","type":"function"},{"inputs":[],"name":"MATCHING_OVERRIDE_RATE","outputs":[{"internalType":"uint256","name":"","type":"uint256"}],"stateMutability":"view","type":"function"},{"inputs":[],"name":"MAX_USER_ID","outputs":[{"internalType":"uint256","name":"","type":"uint256"}],"stateMutability":"view","type":"function"},{"inputs":[],"name":"MIN_USER_ID","outputs":[{"internalType":"uint256","name":"","type":"uint256"}],"stateMutability":"view","type":"function"},{"inputs":[],"name":"PRODUCT_WALLET_RATE","outputs":[{"internalType":"uint256","name":"","type":"uint256"}],"stateMutability":"view","type":"function"},{"inputs":[],"name":"TOTAL_BOARDS","outputs":[{"internalType":"uint256","name":"","type":"uint256"}],"stateMutability":"view","type":"function"},{"inputs":[],"name":"WITHDRAWAL_MATCH_POOL_RATE","outputs":[{"internalType":"uint256","name":"","type":"uint256"}],"stateMutability":"view","type":"function"},{"inputs":[{"internalType":"enum MLMContract.Package","name":"_pkg","type":"uint8"}],"name":"activatePackage","outputs":[],"stateMutability":"nonpayable","type":"function"},{"inputs":[{"internalType":"address","name":"_user","type":"address"},{"internalType":"uint256","name":"_sponsorId","type":"uint256"},{"internalType":"uint256","name":"_binaryParentId","type":"uint256"},{"internalType":"bool","name":"_placeLeft","type":"bool"},{"internalType":"enum MLMContract.Package","name":"_pkg","type":"uint8"}],"name":"adminActivateUser","outputs":[],"stateMutability":"nonpayable","type":"function"},{"inputs":[],"name":"adminBinaryWallet","outputs":[{"internalType":"address","name":"","type":"address"}],"stateMutability":"view","type":"function"},{"inputs":[{"internalType":"uint256","name":"","type":"uint256"}],"name":"allUsers","outputs":[{"internalType":"address","name":"","type":"address"}],"stateMutability":"view","type":"function"},{"inputs":[{"internalType":"uint256","name":"_batchNumber","type":"uint256"}],"name":"autoDistributeBinaryIncome","outputs":[],"stateMutability":"nonpayable","type":"function"},{"inputs":[{"internalType":"address[]","name":"_users","type":"address[]"}],"name":"batchFlushGracePeriods","outputs":[],"stateMutability":"nonpayable","type":"function"},{"inputs":[],"name":"binaryBatchSize","outputs":[{"internalType":"uint256","name":"","type":"uint256"}],"stateMutability":"view","type":"function"},{"inputs":[{"internalType":"uint256","name":"","type":"uint256"}],"name":"boardCurrentIndex","outputs":[{"internalType":"uint256","name":"","type":"uint256"}],"stateMutability":"view","type":"function"},{"inputs":[{"internalType":"address","name":"","type":"address"}],"name":"boardEntryCount","outputs":[{"internalType":"uint256","name":"","type":"uint256"}],"stateMutability":"view","type":"function"},{"inputs":[{"internalType":"uint256","name":"","type":"uint256"}],"name":"boardPrices","outputs":[{"internalType":"uint256","name":"","type":"uint256"}],"stateMutability":"view","type":"function"},{"inputs":[{"internalType":"address","name":"","type":"address"}],"name":"btcPoolBalance","outputs":[{"internalType":"uint256","name":"","type":"uint256"}],"stateMutability":"view","type":"function"},{"inputs":[],"name":"btcRewardToken","outputs":[{"internalType":"contract IERC20","name":"","type":"address"}],"stateMutability":"view","type":"function"},{"inputs":[],"name":"claimBinaryIncome","outputs":[],"stateMutability":"nonpayable","type":"function"},{"inputs":[],"name":"coinLiquidityAddress","outputs":[{"internalType":"address","name":"","type":"address"}],"stateMutability":"view","type":"function"},{"inputs":[{"internalType":"uint256","name":"","type":"uint256"}],"name":"dailyCapping","outputs":[{"internalType":"uint256","name":"","type":"uint256"}],"stateMutability":"view","type":"function"},{"inputs":[{"internalType":"uint256","name":"","type":"uint256"}],"name":"directRates","outputs":[{"internalType":"uint256","name":"","type":"uint256"}],"stateMutability":"view","type":"function"},{"inputs":[{"internalType":"address","name":"","type":"address"},{"internalType":"uint256","name":"","type":"uint256"}],"name":"directReferrals","outputs":[{"internalType":"address","name":"","type":"address"}],"stateMutability":"view","type":"function"},{"inputs":[],"name":"enterBoardPool","outputs":[],"stateMutability":"nonpayable","type":"function"},{"inputs":[],"name":"feeRecipient","outputs":[{"internalType":"address","name":"","type":"address"}],"stateMutability":"view","type":"function"},{"inputs":[{"internalType":"address","name":"_user","type":"address"}],"name":"flushGracePeriod","outputs":[],"stateMutability":"nonpayable","type":"function"},{"inputs":[{"internalType":"uint256","name":"_userId","type":"uint256"}],"name":"getAddressByUserId","outputs":[{"internalType":"address","name":"","type":"address"}],"stateMutability":"view","type":"function"},{"inputs":[{"internalType":"address","name":"_user","type":"address"}],"name":"getBinaryInfo","outputs":[{"internalType":"uint256","name":"leftBusiness","type":"uint256"},{"internalType":"uint256","name":"rightBusiness","type":"uint256"},{"internalType":"uint256","name":"carryLeft","type":"uint256"},{"internalType":"uint256","name":"carryRight","type":"uint256"},{"internalType":"uint256","name":"todayBinaryIncome","type":"uint256"},{"internalType":"uint256","name":"dailyCap","type":"uint256"},{"internalType":"uint256","name":"claimableBinaryIncome","type":"uint256"},{"internalType":"uint256","name":"binaryDepth","type":"uint256"}],"stateMutability":"view","type":"function"},{"inputs":[{"internalType":"uint256","name":"_boardLevel","type":"uint256"}],"name":"getBoardCurrentIndex","outputs":[{"internalType":"uint256","name":"","type":"uint256"}],"stateMutability":"view","type":"function"},{"inputs":[{"internalType":"uint256","name":"_boardLevel","type":"uint256"},{"internalType":"uint256","name":"_index","type":"uint256"}],"name":"getBoardMatrixInfo","outputs":[{"internalType":"address","name":"owner","type":"address"},{"internalType":"uint256","name":"filledCount","type":"uint256"},{"internalType":"bool","name":"completed","type":"bool"}],"stateMutability":"view","type":"function"},{"inputs":[{"internalType":"uint256","name":"_boardLevel","type":"uint256"}],"name":"getBoardPrice","outputs":[{"internalType":"uint256","name":"","type":"uint256"}],"stateMutability":"view","type":"function"},{"inputs":[{"internalType":"uint256","name":"_boardLevel","type":"uint256"}],"name":"getBoardQueueLength","outputs":[{"internalType":"uint256","name":"","type":"uint256"}],"stateMutability":"view","type":"function"},{"inputs":[{"internalType":"address","name":"_user","type":"address"}],"name":"getBtcPoolBalance","outputs":[{"internalType":"uint256","name":"","type":"uint256"}],"stateMutability":"view","type":"function"},{"inputs":[],"name":"getContractBalance","outputs":[{"internalType":"uint256","name":"","type":"uint256"}],"stateMutability":"view","type":"function"},{"inputs":[{"internalType":"address","name":"_user","type":"address"}],"name":"getDirectReferrals","outputs":[{"internalType":"address[]","name":"","type":"address[]"}],"stateMutability":"view","type":"function"},{"inputs":[{"internalType":"address","name":"_user","type":"address"},{"internalType":"uint256","name":"_offset","type":"uint256"},{"internalType":"uint256","name":"_limit","type":"uint256"}],"name":"getDirectReferralsPaginated","outputs":[{"internalType":"address[]","name":"referrals","type":"address[]"},{"internalType":"uint256","name":"total","type":"uint256"}],"stateMutability":"view","type":"function"},{"inputs":[{"internalType":"address","name":"_user","type":"address"}],"name":"getIncomeInfo","outputs":[{"internalType":"uint256","name":"totalDirectIncome","type":"uint256"},{"internalType":"uint256","name":"totalBinaryIncome","type":"uint256"},{"internalType":"uint256","name":"totalMatchingOverrideIncome","type":"uint256"},{"internalType":"uint256","name":"totalWithdrawalMatchIncome","type":"uint256"},{"internalType":"uint256","name":"totalEarnings","type":"uint256"},{"internalType":"uint256","name":"totalWithdrawn","type":"uint256"},{"internalType":"uint256","name":"maxIncome","type":"uint256"}],"stateMutability":"view","type":"function"},{"inputs":[{"internalType":"enum MLMContract.Package","name":"_pkg","type":"uint8"}],"name":"getMaxIncomeLimit","outputs":[{"internalType":"uint256","name":"","type":"uint256"}],"stateMutability":"view","type":"function"},{"inputs":[{"internalType":"enum MLMContract.Package","name":"_pkg","type":"uint8"}],"name":"getPackagePrice","outputs":[{"internalType":"uint256","name":"","type":"uint256"}],"stateMutability":"view","type":"function"},{"inputs":[{"internalType":"address","name":"_user","type":"address"}],"name":"getProfile","outputs":[{"internalType":"string","name":"displayName","type":"string"},{"internalType":"string","name":"email","type":"string"},{"internalType":"string","name":"phone","type":"string"},{"internalType":"string","name":"country","type":"string"},{"internalType":"bool","name":"profileSet","type":"bool"}],"stateMutability":"view","type":"function"},{"inputs":[],"name":"getTotalBatches","outputs":[{"internalType":"uint256","name":"","type":"uint256"}],"stateMutability":"view","type":"function"},{"inputs":[],"name":"getTotalUsers","outputs":[{"internalType":"uint256","name":"","type":"uint256"}],"stateMutability":"view","type":"function"},{"inputs":[{"internalType":"uint256","name":"_index","type":"uint256"}],"name":"getUserByIndex","outputs":[{"internalType":"address","name":"","type":"address"}],"stateMutability":"view","type":"function"},{"inputs":[{"internalType":"address","name":"_user","type":"address"}],"name":"getUserIdByAddress","outputs":[{"internalType":"uint256","name":"","type":"uint256"}],"stateMutability":"view","type":"function"},{"inputs":[{"internalType":"address","name":"_user","type":"address"}],"name":"getUserInfo","outputs":[{"internalType":"uint256","name":"userId","type":"uint256"},{"internalType":"address","name":"sponsor","type":"address"},{"internalType":"address","name":"binaryParent","type":"address"},{"internalType":"address","name":"leftChild","type":"address"},{"internalType":"address","name":"rightChild","type":"address"},{"internalType":"enum MLMContract.Side","name":"placementSide","type":"uint8"},{"internalType":"enum MLMContract.Package","name":"userPackage","type":"uint8"},{"internalType":"enum MLMContract.Status","name":"status","type":"uint8"},{"internalType":"uint256","name":"walletBalance","type":"uint256"},{"internalType":"uint256","name":"tempWalletBalance","type":"uint256"},{"internalType":"uint256","name":"totalEarnings","type":"uint256"},{"internalType":"uint256","name":"directReferralCount","type":"uint256"},{"internalType":"uint256","name":"joinedAt","type":"uint256"}],"stateMutability":"view","type":"function"},{"inputs":[{"internalType":"address","name":"_user","type":"address"}],"name":"getUserTransactionCount","outputs":[{"internalType":"uint256","name":"","type":"uint256"}],"stateMutability":"view","type":"function"},{"inputs":[{"internalType":"address","name":"_user","type":"address"},{"internalType":"uint256","name":"_offset","type":"uint256"},{"internalType":"uint256","name":"_limit","type":"uint256"}],"name":"getUserTransactionsPaginated","outputs":[{"internalType":"enum MLMContract.TxType[]","name":"txTypes","type":"uint8[]"},{"internalType":"uint256[]","name":"amounts","type":"uint256[]"},{"internalType":"uint256[]","name":"timestamps","type":"uint256[]"},{"internalType":"address[]","name":"relatedUsers","type":"address[]"},{"internalType":"uint8[]","name":"extraDatas","type":"uint8[]"},{"internalType":"uint256","name":"total","type":"uint256"}],"stateMutability":"view","type":"function"},{"inputs":[{"internalType":"address","name":"","type":"address"}],"name":"isBinaryProcessor","outputs":[{"internalType":"bool","name":"","type":"bool"}],"stateMutability":"view","type":"function"},{"inputs":[{"internalType":"address","name":"","type":"address"}],"name":"isFreeAccount","outputs":[{"internalType":"bool","name":"","type":"bool"}],"stateMutability":"view","type":"function"},{"inputs":[{"internalType":"address","name":"","type":"address"}],"name":"isRegistered","outputs":[{"internalType":"bool","name":"","type":"bool"}],"stateMutability":"view","type":"function"},{"inputs":[],"name":"mToken","outputs":[{"internalType":"contract IERC20","name":"","type":"address"}],"stateMutability":"view","type":"function"},{"inputs":[{"internalType":"uint256","name":"","type":"uint256"}],"name":"matchingOverrideMaxLevels","outputs":[{"internalType":"uint256","name":"","type":"uint256"}],"stateMutability":"view","type":"function"},{"inputs":[{"internalType":"uint256","name":"","type":"uint256"}],"name":"maxIncomeLimit","outputs":[{"internalType":"uint256","name":"","type":"uint256"}],"stateMutability":"view","type":"function"},{"inputs":[],"name":"owner","outputs":[{"internalType":"address","name":"","type":"address"}],"stateMutability":"view","type":"function"},{"inputs":[{"internalType":"uint256","name":"","type":"uint256"}],"name":"packagePrices","outputs":[{"internalType":"uint256","name":"","type":"uint256"}],"stateMutability":"view","type":"function"},{"inputs":[],"name":"pause","outputs":[],"stateMutability":"nonpayable","type":"function"},{"inputs":[],"name":"paused","outputs":[{"internalType":"bool","name":"","type":"bool"}],"stateMutability":"view","type":"function"},{"inputs":[],"name":"paymentToken","outputs":[{"internalType":"contract IERC20","name":"","type":"address"}],"stateMutability":"view","type":"function"},{"inputs":[],"name":"productWallet","outputs":[{"internalType":"address","name":"","type":"address"}],"stateMutability":"view","type":"function"},{"inputs":[{"internalType":"enum MLMContract.Package","name":"_pkg","type":"uint8"}],"name":"reactivate","outputs":[],"stateMutability":"nonpayable","type":"function"},{"inputs":[{"internalType":"address","name":"_token","type":"address"},{"internalType":"address","name":"_to","type":"address"},{"internalType":"uint256","name":"_amount","type":"uint256"}],"name":"recoverToken","outputs":[],"stateMutability":"nonpayable","type":"function"},{"inputs":[{"internalType":"uint256","name":"_sponsorId","type":"uint256"},{"internalType":"uint256","name":"_binaryParentId","type":"uint256"},{"internalType":"bool","name":"_placeLeft","type":"bool"}],"name":"register","outputs":[],"stateMutability":"nonpayable","type":"function"},{"inputs":[],"name":"renounceOwnership","outputs":[],"stateMutability":"nonpayable","type":"function"},{"inputs":[],"name":"repurchase","outputs":[],"stateMutability":"nonpayable","type":"function"},{"inputs":[{"internalType":"address","name":"_wallet","type":"address"}],"name":"setAdminBinaryWallet","outputs":[],"stateMutability":"nonpayable","type":"function"},{"inputs":[{"internalType":"uint256","name":"_size","type":"uint256"}],"name":"setBinaryBatchSize","outputs":[],"stateMutability":"nonpayable","type":"function"},{"inputs":[{"internalType":"address","name":"_processor","type":"address"},{"internalType":"bool","name":"_status","type":"bool"}],"name":"setBinaryProcessor","outputs":[],"stateMutability":"nonpayable","type":"function"},{"inputs":[{"internalType":"uint256","name":"_boardLevel","type":"uint256"},{"internalType":"uint256","name":"_price","type":"uint256"}],"name":"setBoardPrice","outputs":[],"stateMutability":"nonpayable","type":"function"},{"inputs":[{"internalType":"address","name":"_token","type":"address"}],"name":"setBtcRewardToken","outputs":[],"stateMutability":"nonpayable","type":"function"},{"inputs":[{"internalType":"address","name":"_addr","type":"address"}],"name":"setCoinLiquidityAddress","outputs":[],"stateMutability":"nonpayable","type":"function"},{"inputs":[{"internalType":"enum MLMContract.Package","name":"_pkg","type":"uint8"},{"internalType":"uint256","name":"_cap","type":"uint256"}],"name":"setDailyCapping","outputs":[],"stateMutability":"nonpayable","type":"function"},{"inputs":[{"internalType":"address","name":"_newRecipient","type":"address"}],"name":"setFeeRecipient","outputs":[],"stateMutability":"nonpayable","type":"function"},{"inputs":[{"internalType":"address","name":"_token","type":"address"}],"name":"setMToken","outputs":[],"stateMutability":"nonpayable","type":"function"},{"inputs":[{"internalType":"enum MLMContract.Package","name":"_pkg","type":"uint8"},{"internalType":"uint256","name":"_limit","type":"uint256"}],"name":"setMaxIncomeLimit","outputs":[],"stateMutability":"nonpayable","type":"function"},{"inputs":[{"internalType":"enum MLMContract.Package","name":"_pkg","type":"uint8"},{"internalType":"uint256","name":"_price","type":"uint256"}],"name":"setPackagePrice","outputs":[],"stateMutability":"nonpayable","type":"function"},{"inputs":[{"internalType":"address","name":"_wallet","type":"address"}],"name":"setProductWallet","outputs":[],"stateMutability":"nonpayable","type":"function"},{"inputs":[{"internalType":"string","name":"_displayName","type":"string"},{"internalType":"string","name":"_email","type":"string"},{"internalType":"string","name":"_phone","type":"string"},{"internalType":"string","name":"_country","type":"string"}],"name":"setProfile","outputs":[],"stateMutability":"nonpayable","type":"function"},{"inputs":[{"internalType":"address","name":"_addr","type":"address"}],"name":"setSystemAddress","outputs":[],"stateMutability":"nonpayable","type":"function"},{"inputs":[{"internalType":"uint256","name":"_feeBasisPoints","type":"uint256"}],"name":"setWithdrawalFee","outputs":[],"stateMutability":"nonpayable","type":"function"},{"inputs":[{"internalType":"uint256","name":"_rateBasisPoints","type":"uint256"}],"name":"setWithdrawalUsdtRate","outputs":[],"stateMutability":"nonpayable","type":"function"},{"inputs":[],"name":"systemAddress","outputs":[{"internalType":"address","name":"","type":"address"}],"stateMutability":"view","type":"function"},{"inputs":[],"name":"tokenDecimals","outputs":[{"internalType":"uint8","name":"","type":"uint8"}],"stateMutability":"view","type":"function"},{"inputs":[],"name":"totalBinaryFlushed","outputs":[{"internalType":"uint256","name":"","type":"uint256"}],"stateMutability":"view","type":"function"},{"inputs":[{"internalType":"address","name":"newOwner","type":"address"}],"name":"transferOwnership","outputs":[],"stateMutability":"nonpayable","type":"function"},{"inputs":[],"name":"unpause","outputs":[],"stateMutability":"nonpayable","type":"function"},{"inputs":[{"internalType":"address","name":"_token","type":"address"},{"internalType":"uint8","name":"_decimals","type":"uint8"}],"name":"updatePaymentToken","outputs":[],"stateMutability":"nonpayable","type":"function"},{"inputs":[{"internalType":"uint256","name":"","type":"uint256"}],"name":"userIdTaken","outputs":[{"internalType":"bool","name":"","type":"bool"}],"stateMutability":"view","type":"function"},{"inputs":[{"internalType":"uint256","name":"","type":"uint256"}],"name":"userIdToAddress","outputs":[{"internalType":"address","name":"","type":"address"}],"stateMutability":"view","type":"function"},{"inputs":[{"internalType":"address","name":"","type":"address"}],"name":"users","outputs":[{"internalType":"uint256","name":"userId","type":"uint256"},{"internalType":"address","name":"sponsor","type":"address"},{"internalType":"address","name":"binaryParent","type":"address"},{"internalType":"address","name":"leftChild","type":"address"},{"internalType":"address","name":"rightChild","type":"address"},{"internalType":"enum MLMContract.Side","name":"placementSide","type":"uint8"},{"internalType":"enum MLMContract.Package","name":"userPackage","type":"uint8"},{"internalType":"enum MLMContract.Status","name":"status","type":"uint8"},{"internalType":"uint256","name":"walletBalance","type":"uint256"},{"internalType":"uint256","name":"tempWalletBalance","type":"uint256"},{"internalType":"uint256","name":"totalDirectIncome","type":"uint256"},{"internalType":"uint256","name":"totalBinaryIncome","type":"uint256"},{"internalType":"uint256","name":"totalMatchingOverrideIncome","type":"uint256"},{"internalType":"uint256","name":"totalWithdrawalMatchIncome","type":"uint256"},{"internalType":"uint256","name":"totalEarnings","type":"uint256"},{"internalType":"uint256","name":"leftBusiness","type":"uint256"},{"internalType":"uint256","name":"rightBusiness","type":"uint256"},{"internalType":"uint256","name":"carryLeft","type":"uint256"},{"internalType":"uint256","name":"carryRight","type":"uint256"},{"internalType":"uint256","name":"todayBinaryIncome","type":"uint256"},{"internalType":"uint256","name":"lastBinaryResetDay","type":"uint256"},{"internalType":"uint256","name":"directReferralCount","type":"uint256"},{"internalType":"uint256","name":"gracePeriodStart","type":"uint256"},{"internalType":"uint256","name":"joinedAt","type":"uint256"},{"internalType":"uint256","name":"totalWithdrawn","type":"uint256"},{"internalType":"uint256","name":"claimableBinaryIncome","type":"uint256"},{"internalType":"uint256","name":"binaryDepth","type":"uint256"},{"internalType":"string","name":"displayName","type":"string"},{"internalType":"string","name":"email","type":"string"},{"internalType":"string","name":"phone","type":"string"},{"internalType":"string","name":"country","type":"string"},{"internalType":"bool","name":"profileSet","type":"bool"}],"stateMutability":"view","type":"function"},{"inputs":[{"internalType":"uint256","name":"_amount","type":"uint256"}],"name":"withdraw","outputs":[],"stateMutability":"nonpayable","type":"function"},{"inputs":[{"internalType":"address","name":"_to","type":"address"},{"internalType":"uint256","name":"_amount","type":"uint256"}],"name":"withdrawContractFunds","outputs":[],"stateMutability":"nonpayable","type":"function"},{"inputs":[],"name":"withdrawalFee","outputs":[{"internalType":"uint256","name":"","type":"uint256"}],"stateMutability":"view","type":"function"},{"inputs":[{"internalType":"uint256","name":"","type":"uint256"}],"name":"withdrawalMatchMaxLevels","outputs":[{"internalType":"uint256","name":"","type":"uint256"}],"stateMutability":"view","type":"function"},{"inputs":[],"name":"withdrawalUsdtRate","outputs":[{"internalType":"uint256","name":"","type":"uint256"}],"stateMutability":"view","type":"function"}],"evm":{"bytecode":{"linkReferences":{},"object":"608034620005bb57601f6200662838819003918201601f19168301916001600160401b03831184841017620005c057808492608094604052833981010312620005bb576200004d81620005f6565b90602081015160ff81168103620005bb576200007a60606200007260408501620005f6565b9301620005f6565b923315620005a25760008054336001600160a01b0319821681178355916001600160a01b03909116907f8be0079c531659141344cd1fd0a4f28419497f9722a3daafe3b4186f6b6457e09080a360017f9b779b17422d0df92223018b32b4d1fa46e071723d6817e2486d003becc55f00556127106006556032600e5562000100620005d6565b600081526103e860208201526105dc60408201526107d060608201526109c46080820152610bb860a082015260005b600681106200058857505062000144620005d6565b600081526003602082015260066040820152600a6060820152600f6080820152601460a082015260005b600681106200056f57505062000183620005d6565b60008152600360208201526005604082015260096060820152600c6080820152600f60a082015260005b60068110620005565750506001600160a01b03169182156200051c576001600160a01b0316928315620004d7576001600160a01b03169182156200049357600180546001600160a01b03199081169290921790556002805460ff60a01b191660a084901b60ff60a01b161790556003805482168517905560048054821690941784556024805490911690921782556000600555604d60ff8216116200047f5760ff16600a0a9160006026558260c80260c8810484036200041b578060275561025884810290810485036200046b57806028556104b08581029081048603620004575780602955610960918683029283048703620004435782602a556112c09387850294850488036200042f5784602b5560006032556033556034556035556036556037556000603855826103e8026103e8810484036200041b5760395582610bb802610bb8810484036200041b57603a5561177083810290810484036200041b57603b55612ee083810290810484036200041b57603c55615dc083810290810484036200041b57603d55826032026032810484036200041b576016558260b40260b4810484036200041b5760175561028883810290810484036200041b5760185561091d83810290810484036200041b576019556120ce83810290810484036200041b57601a5561761983810290810484036200041b57601b556201a92783810290810484036200041b57601c556205fa8d83810290810484036200041b57601d55621585fb83810290810484036200041b57601e55624d7bee9280840293840403620004085782601f5560405161601c90816200060c8239f35b601190634e487b7160e01b600052526000fd5b50601190634e487b7160e01b600052526000fd5b86601187634e487b7160e01b600052526000fd5b85601186634e487b7160e01b600052526000fd5b84601185634e487b7160e01b600052526000fd5b83601184634e487b7160e01b600052526000fd5b50634e487b7160e01b600090815260118352fd5b606460405162461bcd60e51b815260206004820152602060248201527f4d4c4d3a20496e76616c69642061646d696e2062696e6172792077616c6c65746044820152fd5b60405162461bcd60e51b815260206004820152601a60248201527f4d4c4d3a20496e76616c69642066656520726563697069656e740000000000006044820152606490fd5b60405162461bcd60e51b815260206004820152601260248201527126a6269d1024b73b30b634b2103a37b5b2b760711b6044820152606490fd5b600190602060ff845116930192816044015501620001ad565b600190602060ff84511693019281603e0155016200016e565b600190602061ffff84511693019281602c0155016200012f565b604051631e4fbdf760e01b815260006004820152602490fd5b600080fd5b634e487b7160e01b600052604160045260246000fd5b6040519060c082016001600160401b03811183821017620005c057604052565b51906001600160a01b0382168203620005bb5756fe6102c0604052600436101561001357600080fd5b6000803560e01c8063012685f4146146f25780630327ef491461461c57806304841337146145ff57806305ad3935146145a4578063062101971461452e5780630b6a9539146144ff5780630f53a4701461443f578063179bd5c8146108495780631915d956146143b55780631cdc545c146143315780631d64e593146143135780632389e78a146142e657806329d7f9eb146142475780632a1a5b1b1461422a5780632c2896b3146141eb5780632e1888b8146141725780632e1a7d4d14613b235780632eee563e146136975780633013ce291461366e57806331e1f29b14613599578063385399f91461361f57806339ae9efd146135f65780633ac272c2146105ea5780633b97e856146135d25780633d6bacf3146135995780633f4ba83a146135285780634286064e146134fb5780634526b4aa146134dd578063463cffe61461349e578063469048401461347557806347cd5191146134145780634b695586146133765780634e7599621461335a57806355509c8f14612d73578063556415d914612d5657806357f0140a14612a5a5780635a1faeb914612a2d5780635c975abb14612a0857806361dba5f314611bba5780636207f522146126ab578063624a893d1461268d5780636386c1c71461259f57806369e94f4d146125295780636aa6c0ce146122bf5780636d0364d714611f5a5780636e0881da14611bba5780636f8760fe146122735780636f9fb98a146121dd5780637115bba71461169e578063715018a6146121835780637d4cf0b81461164a5780637feef9d6146120d55780638225757b1461205c5780638456cb5914611ffb57806385f8f11b14611fce5780638919d5e914611fa55780638bc7e8c414611f875780638d7b569014611f5a5780638da5cb5b14611f3357806392167de214611eaf57806392446e301461169e5780639726b9f214611bbf5780639898fcd314611bba5780639a688a9914611b445780639be572f614611b26578063a2bdedf414611afb578063a5c3406114611ade578063a7229fd914611a5b578063a87430ba1461173c578063ac1e5025146116a3578063ac6c264e1461169e578063b0ac462614611682578063b16952011461164f578063b2418af81461164a578063b33dd0c91461161d578063b882c4d8146115a7578063bbc18f6f14611589578063befbe97d146114f7578063c24be7fb1461123a578063c3b6f93914611211578063c3c5a547146111d2578063ce0b212214611070578063d117de0314611047578063d2c8e0e514610fb4578063d3ba4f9614610f3e578063d3e848f114610f15578063d4a9028614610eab578063d58c617214610c28578063d8f3384014610bef578063d9c842fd14610bb6578063d9f9f63f14610a50578063e1f1c4a714610a33578063e4093a661461089d578063e561dddc1461087a578063e63619a514610849578063e74b981b146107d3578063eb63e1c2146107a9578063ece2bc23146106f7578063ef2c5c50146106d7578063f00b00931461069f578063f2fde38b14610614578063f3b36bf8146105ea578063fc3c8a0c146105c1578063fc4a36f6146105a5578063fdc65d6e146104f35763ff5d32fe146104ac57600080fd5b346104f05760203660031901126104f05760206104d76004356104d2600b548210615d04565b614894565b905460405160039290921b1c6001600160a01b03168152f35b80fd5b50346104f05761050236614939565b9061050b614b7e565b60068110158061059157600182101580610583575b61052990614f52565b61056f5790816105697f36152e7515aada41257500317963ea57c35904a845e67c595f4e110377a08f209360260192808454945560405193849384615f67565b0390a180f35b634e487b7160e01b83526021600452602483fd5b508390506005821115610520565b634e487b7160e01b84526021600452602484fd5b50346104f057806003193601126104f057602060405160648152f35b50346104f057806003193601126104f0576004546040516001600160a01b039091168152602090f35b50346104f05760203660031901126104f05760406020916004358152601483522054604051908152f35b50346104f05760203660031901126104f05761062e6147e3565b610636614b7e565b6001600160a01b0390811690811561068657600054826001600160601b0360a01b821617600055167f8be0079c531659141344cd1fd0a4f28419497f9722a3daafe3b4186f6b6457e0600080a380f35b604051631e4fbdf760e01b815260048101849052602490fd5b50346104f05760203660031901126104f0576020906040906001600160a01b036106c76147e3565b1681528280522054604051908152f35b50346104f057806003193601126104f057602060405164e8d4a50fff8152f35b50346104f05760203660031901126104f0576001600160a01b036107196147e3565b168152600760205260408120600c81015490600d81015490600e810154600f82015460108301549060ff600485015460a81c16600681101561079557610100975060320154926017601686015495015495604051978852602088015260408701526060860152608085015260a084015260c083015260e0820152f35b634e487b7160e01b88526021600452602488fd5b50346104f05760203660031901126104f05760406020916004358152601383522054604051908152f35b50346104f05760203660031901126104f0576107ed6147e3565b6107f5614b7e565b6001600160a01b039081169061080c821515615f24565b600354826001600160601b0360a01b821617600355167faaebcf1bfa00580e41d966056b48521fa9f202645c86d4ddf28113e617c1b1d38380a380f35b50346104f05760203660031901126104f05760043560068110156108765760209060260154604051908152f35b5080fd5b50346104f057806003193601126104f0576020610895615f84565b604051908152f35b50346104f057806003193601126104f0576108b6615211565b6108be614d4c565b336000526020600881526108d960ff60406000205416614f10565b3360005260078152600160ff60046040600020015460b01c166108fb816149ca565b148015610a05575b61090c906154ee565b601654336000526012825280604060002054106109b557906109959133600052601282526040600020610940828254614d7c565b90553360005281805260406000206109588154614d3d565b905533600052600c82526040600020906040519261097584614a6b565b600884528301524260408301526000606083015260016080830152615001565b6109a0600133615664565b6001600080516020615fc78339815191525580f35b60405162461bcd60e51b815260048101839052602260248201527f4d4c4d3a20496e73756666696369656e742042544320706f6f6c2062616c616e604482015261636560f01b6064820152608490fd5b50336000526007815261090c600260ff60046040600020015460b01c16610a2b816149ca565b149050610903565b50346104f057806003193601126104f05760206040516127108152f35b50346104f057602090816003193601126104f057610a6c6147e3565b610a74614b7e565b6001600160a01b0316808252600883526040822054610a959060ff16614f10565b80825260078352604082209260048401805490600260ff8360b01c16610aba816149ca565b03610b715760138601546202a3008101809111610b5d57421115610b185760067f4769bc30c3e6f90ecfef0f6e4760f65f2cc4ae6c67493463e3c9caf3d2f863e99495960191868354935560ff60b01b19169055604051908152a280f35b60405162461bcd60e51b815260048101849052601d60248201527f4d4c4d3a20477261636520706572696f64206e6f7420657870697265640000006044820152606490fd5b634e487b7160e01b86526011600452602486fd5b60405162461bcd60e51b815260048101849052601860248201527f4d4c4d3a204e6f7420696e20677261636520706572696f6400000000000000006044820152606490fd5b50346104f057610be5610bd1610bcb366147f9565b91615c50565b604051928392604084526040840190614857565b9060208301520390f35b50346104f05760203660031901126104f0576020906040906001600160a01b03610c176147e3565b168152600c83522054604051908152f35b50346104f057806003193601126104f057610c41615211565b610c49614d4c565b33815260209060088252610c6360ff604083205416614f10565b3381526007825260408120916004830190815460ff8160b01c16610c86816149ca565b8015908115610e97575b5015610e5a5760a81c60ff1660068110156105915760018110610e1557602601549160018060a01b0394610ccc848760015416309033906151a4565b846010600160b01b60ff60b01b19855416179283855582600b8201558260068201558260138201550155338552600c835260ff604086209160a81c16906006821015610e015791610d4660ff92869460405191610d2883614a6b565b89835286888401524260408401528960608401526080830152615001565b5460a81c1691610d5960405180946149ea565b8201527f0f71a293b26be95a1c2120e73a1712c62b20f254ae47eff7f6e799402984e6ab60403392a261177092838202938285041482151715610ded57610da96127106109a09495048093614d7c565b816004541680151580610de4575b610dcf575b505050610dc98133615241565b3361536c565b610ddc9260015416615123565b388080610dbc565b50811515610db7565b634e487b7160e01b83526011600452602483fd5b634e487b7160e01b86526021600452602486fd5b60405162461bcd60e51b815260048101839052601d60248201527f4d4c4d3a204e6f207061636b61676520746f20726570757263686173650000006044820152606490fd5b60405162461bcd60e51b81526004810183905260156024820152744d4c4d3a204d75737420626520696e61637469766560581b6044820152606490fd5b60029150610ea4816149ca565b1438610c90565b50346104f057610ee76060916040610ec23661496a565b92908082526013602052610eda838320548510615d04565b81526013602052206155e3565b5060018060a01b038154169060ff600260018301549201541690604051928352602083015215156040820152f35b50346104f057806003193601126104f0576022546040516001600160a01b039091168152602090f35b50346104f05760203660031901126104f057610f586147e3565b610f60614b7e565b6001600160a01b0390811690610f77821515615f24565b602154826001600160601b0360a01b821617602155167fa7c779d548c89203218d67c4edad36548c004c80be74e26b2cbb667625b2ee1b8380a380f35b50346104f057602080600319360112610876576001600160a01b039182610fd96147e3565b168152600a8252604081209260405193848592858354928381520192855285852094905b8683831061102b57859061101382870383614ab7565b611027604051928284938452830190614857565b0390f35b8654821685526001968701968996509401939190910190610ffd565b50346104f057806003193601126104f0576024546040516001600160a01b039091168152602090f35b50346104f05760208060031936011261087657600435906001600160401b03908183116111ce57366023840112156111ce5782600401359182116111ce576024926005368585831b840101116111ca576110c8614b7e565b855b8481106110d5578680f35b80821b83018601356001600160a01b038116908190036111c6578088526008855260ff8060408a205416156111bb576007865260408920906004820160028154928360b01c16611124816149ca565b036111ae5760138301546202a300810180911161119b5791889161118c969594934211156111915760067f4769bc30c3e6f90ecfef0f6e4760f65f2cc4ae6c67493463e3c9caf3d2f863e99401918d8354935560ff60b01b19169055604051908152a2614d3d565b6110ca565b5050505050614d3d565b634e487b7160e01b8c5260116004528a8cfd5b5050505061118c90614d3d565b505061118c90614d3d565b8780fd5b8580fd5b8380fd5b50346104f05760203660031901126104f05760209060ff906040906001600160a01b036111fd6147e3565b168152600884522054166040519015158152f35b50346104f057806003193601126104f0576002546040516001600160a01b039091168152602090f35b50346104f05760603660031901126104f05760443560243581151582036114f257611263614d4c565b3383526020916008835261127e60ff60408620541615614baa565b600b54611447575050818291835b611294614d89565b91828652601081526040862060ff1990600182825416179055600f8252604087206001600160601b0360a01b9033828254161790553388526007835260408820858155600181019660018060a01b038091169788848254161790556002820198169788838254161790556004810161130c8682614c8e565b805460ff60b01b1916905542601482015587158015919061143e57888a5260078552601760408b2001546001810180911161142a57601790915b01556113df575b50846113ac575b338752600882526001604088209182541617905561137133614ce3565b604051928352611380826149ca565b8201527fe22a39f862558eb01c2a26eb38c7d884b499221d9a5989f637529bd3e77fd67960403392a480f35b848752600a82526113c03360408920614d20565b84875260078252601260408820016113d88154614d3d565b9055611354565b6113e8846149ca565b6001840361140e5786885260078352600360408920019033908254161790555b3861134d565b8688526007835260046040892001903390825416179055611408565b634e487b7160e01b8b52601160045260248bfd5b60178a91611346565b6004358452600f835260408420546001600160a01b0390811692831515806114dd575b61147390614bf6565b806114a457505081905b156114935761148b90614ee4565b91600161128c565b61149c90614eb3565b91600261128c565b8552600f845260408520541690811515806114c8575b6114c390614c42565b61147d565b5081855260088452604085205460ff166114ba565b5083865260088552604086205460ff1661146a565b600080fd5b50346104f05760203660031901126104f0576001600160a01b036115196147e3565b1681526007602052604081206007810154906008810154906009810154600a820154600b8301549160ff6004601586015495015460a81c1660068110156107955760e097506038015494604051968752602087015260408601526060850152608084015260a083015260c0820152f35b50346104f057806003193601126104f05760206040516202a3008152f35b50346104f05760203660031901126104f0576115c16147e3565b6115c9614b7e565b6001600160a01b03908116906115e0821515615f24565b600254826001600160601b0360a01b821617600255167ffa56beaa7224e963963fc4c47c38a66d9813310693d7bb15814ea8e39b3351848380a380f35b50346104f05760203660031901126104f05760043560068110156108765760209060440154604051908152f35b614a14565b50346104f05760203660031901126104f0576020906004358152600f8252604060018060a01b0391205416604051908152f35b50346104f057806003193601126104f0576020604051600a8152f35b6149f7565b50346104f05760203660031901126104f0576004356116c0614b7e565b6107d081116117035760407f72aa1ef4707dfa7defd1468e6ffc70bf9517ce19e3afad93fcf4be42f2d494f591600554908060055582519182526020820152a180f35b60405162461bcd60e51b815260206004820152601160248201527009a989a74408ccaca40e8dede40d0d2ced607b1b6044820152606490fd5b50346104f05760203660031901126104f057600f600e600d600c600b600a600960086007600660ff60056004611849604060189f60018060a01b0361177f6147e3565b16815287602052209e8f9e8f9e8f9e8f9e8f9e8f9e8f9e8f9e8f9e8f9e8f9d8e9d8e80610120528054610280526001808060a01b03910154169e60018060a01b0360028201541660e05260018060a01b036003820154166102605201549e01549f01549f01549f01549f01549f01549f01549f01549f01549f01549f01549f60108101546101e05260118101546101a0526012810154610180526013810154608052601481015460a052601581015460c05260168101546102405260178101546101405201614ad8565b6102205261185c60196101205101614ad8565b6101005261186f601a6101205101614ad8565b6101c052611882601b6101205101614ad8565b6102a05282601c61012051015416610160526040518061020052610280519052602061020051015260e051604061020051015261026051606061020051015260018060a01b0381166080610200510152818160a01c166118e1816149ca565b60a06102005101526118fe60c06102005101838360a81c166149ea565b60b01c1661190b816149ca565b60e06102005101526101006102005101526101206102005101526101406102005101526101606102005101526101806102005101526101a06102005101526101c06102005101526101e0610200510152610200805101526102206102005101526102406102005101526101e0516102606102005101526101a051610280610200510152610180516102a06102005101526080516102c061020051015260a0516102e061020051015260c0516103006102005101526102405161032061020051015261014051610340610200510152611a42611a2c611a16611a00610400806103606102005101526102005101610220516148f9565b61020051610380818303910152610100516148f9565b610200516103a08183039101526101c0516148f9565b610200516103c08183039101526102a0516148f9565b6101605115156103e06102005101526102005180910390f35b50346104f05760603660031901126104f057611a756147e3565b6024356001600160a01b03818116928383036114f2577f238062e33e7062c4aeccb2acac43aecc0b1a1ca891a5bc84a689f2272cb39a4391611ad4602092604435928391611ac1614b7e565b611acc891515615f24565b169586615123565b604051908152a380f35b50346104f057806003193601126104f05760206040516107d08152f35b50346104f05760203660031901126104f05760043590600b548210156104f05760206104d783614894565b50346104f057806003193601126104f0576020600b54604051908152f35b50346104f05760203660031901126104f057611b5e6147e3565b611b66614b7e565b6001600160a01b0390811690611b7d821515615f24565b600454826001600160601b0360a01b821617600455167f21f871938092b6a1ed13c23a49ad1a6fa6867d23d64fa2091bc0aaa90846e7c38380a380f35b6149ad565b50346104f057602090816003193601126104f0576004359060068210156104f057611be8615211565b611bf0614d4c565b33815260088352611c0760ff604083205416614f10565b3381526007835260408120916004830192835460ff8160b01c16611c2a816149ca565b60028114908115611e9d575b5015611e625760ff90611c4c6001851015614f52565b60a81c166006811015610591578210611e2557829394826026015493849260018060a01b0397611c84858a60015416309033906151a4565b600260ff825460b01c16611c97816149ca565b14611d6d575b90601091836006830155611cb18782614f95565b805460ff60b01b1916600160b01b179055600b8101839055601381018390550155338552600c815260408086209051611d1091611ced82614a6b565b60028252848483015242604083015287606083015260ff86166080830152615001565b611d1d60405180946149ea565b8201527f0bd98106504d2095c105d0f8fd19c12fb6c359200dcce844743a92dc040cb7b360403392a261177092838202938285041482151715610ded57610da96127106109a09495048093614d7c565b915091925060138201546202a3008101809111611e115785939287926010924211611ddc57600682015460058301611da6828254614cd6565b90556040519081527fc0a2b7349514b2ee49057e2265dcf10bd91be42a7f6a1144164df1f0e303a8eb863392a25b909150611c9d565b60068201546040519081527f4769bc30c3e6f90ecfef0f6e4760f65f2cc4ae6c67493463e3c9caf3d2f863e9863392a2611dd4565b634e487b7160e01b87526011600452602487fd5b60405162461bcd60e51b81526004810186905260156024820152744d4c4d3a2043616e6e6f7420646f776e677261646560581b6044820152606490fd5b60405162461bcd60e51b81526004810187905260136024820152724d4c4d3a20416c72656164792061637469766560681b6044820152606490fd5b9050611ea8816149ca565b1538611c36565b50346104f057611ebe36614939565b90611ec7614b7e565b60068110158061059157600182101580611f25575b611ee590614f52565b61056f5790816105697fbc78cc5de16267f0116f5ef65ec3328f2f432bca5e0f8b61e96b880e826d84dd9360380192808454945560405193849384615f67565b508390506005821115611edc565b50346104f057806003193601126104f057546040516001600160a01b039091168152602090f35b50346104f05760203660031901126104f05760043560068110156108765760209060380154604051908152f35b50346104f057806003193601126104f0576020600554604051908152f35b50346104f057806003193601126104f0576023546040516001600160a01b039091168152602090f35b50346104f05760203660031901126104f057600435600681101561087657602090603e0154604051908152f35b50346104f057806003193601126104f057612014614b7e565b61201c614d4c565b805460ff60a01b1916600160a01b1781556040513381527f62e78cea01bee320cd4e420270b5ea74000d11b0c9f74754ebdbfc544b05a25890602090a180f35b50346104f05760203660031901126104f0576004358152600f60205260409020546001600160a01b0316801561209757602090604051908152f35b60405162461bcd60e51b81526020600482015260166024820152751353134e88155cd95c881251081b9bdd08199bdd5b9960521b6044820152606490fd5b50346104f05760203660031901126104f0576004356120f2614b7e565b80151580612177575b1561213a5760407f885769bb3a0a33e49dc7c402b45290f14135af0d201b7b78370457632240fbb191600e549080600e5582519182526020820152a180f35b60405162461bcd60e51b815260206004820152601560248201527404d4c4d3a2042617463682073697a6520312d35303605c1b6044820152606490fd5b506101f48111156120fb565b50346104f057806003193601126104f05761219c614b7e565b600080546001600160a01b0319811682556001600160a01b03167f8be0079c531659141344cd1fd0a4f28419497f9722a3daafe3b4186f6b6457e08280a380f35b50346104f057806003193601126104f0576001546040516370a0823160e01b815230600482015290602090829060249082906001600160a01b03165afa908115612268578291612233575b602082604051908152f35b90506020813d8211612260575b8161224d60209383614ab7565b8101031261087657602091505138612228565b3d9150612240565b6040513d84823e3d90fd5b50346104f05760203660031901126104f05761228d6147e3565b612295614b7e565b6001600160a01b03166122a9811515615f24565b6001600160601b0360a01b602354161760235580f35b50346104f057602090816003193601126104f057600435916006831015610876576122e8615211565b6122f0614d4c565b3382526008815261230760ff604084205416614f10565b8192600181101580612519575b61231d90614f52565b33835260078252604083209361056f57600484019160ff835460a81c1660068110156124b5578211156124c95781602601549284601060018060a01b039761236d878a60015416309033906151a4565b60ff845460a81c16936123808782614f95565b600160b01b60ff60b01b1982541617905582600b820155826006820155826013820155015560068110156124b5578391908061242a5750338552600c81526123f660408620604051906123d282614a6b565b6000825284848301524260408301526000606083015260ff86166080830152615001565b610d5960405180946149ea565b61177092838202938285041482151715610ded57610da96127106109a09495048093614d7c565b92906124849250338652600c815261246f604087206040519061244c82614a6b565b60018252878483015242604083015288606083015260ff85166080830152615001565b61247c60405180956149ea565b8301906149ea565b8160408201527f6dc34d0522e29b7d7beda15504a00195317702b99a528054d4be53e1ea331b6d60603392a2612403565b634e487b7160e01b85526021600452602485fd5b6084906040519062461bcd60e51b82526004820152602360248201527f4d4c4d3a204d757374207570677261646520746f20686967686572207061636b60448201526261676560e81b6064820152fd5b5091925082916005811115612314565b50346104f05760203660031901126104f0576125436147e3565b61254b614b7e565b6001600160a01b0390811690612562821515615f24565b602454826001600160601b0360a01b821617602455167fcb9bcd5e87ec5de7c4b31036687bd221c8e20f2ecf6fce472ac73a211f2a3cdc8380a380f35b50346104f05760203660031901126104f0576101a0906001600160a01b0390604090826125ca6147e3565b16815260076020522090815491816001820154169180600283015416908060038401541690600484015461265f60ff8260a01c169160ff8160b01c1692600588015494600689015496600b8a015498601460128c01549b01549b60206040519e8f908152015260408d015260608c0152821660808b015261264a816149ca565b60a08a015260ff60c08a019160a81c166149ea565b612668816149ca565b60e0870152610100860152610120850152610140840152610160830152610180820152f35b50346104f057806003193601126104f0576020600654604051908152f35b50346104f05760a03660031901126104f0576126c56147e3565b9060443591606435908115158203612a045760843560068110156111ce576126eb614b7e565b6126f3614d4c565b6001600160a01b038281169261270a841515615f24565b8386526020916008835261272560ff60408920541615614baa565b60019182851015806129f9575b61273b90614f52565b600b54156129c0578798602498969798358752600f855282604088205416988991821515806129ab575b61276e90614bf6565b80612971575081905b1561295e5761278590614ee4565b938881945b60176040612796614d89565b9b8c9384825260108c528282209760ff1998888a825416179055600f8d52838320966001600160601b0360a01b978189825416179055835260078d528383209586558786019087825416179055600285019a16998a86825416179055600484016128008a82614c8e565b61280a8d82614f95565b805460ff60b01b1916600160b01b17905542601485015589815260078b522001548381019190821061294a576040999661290f8f978f96978f96987f92c194e247c6d4e26ac54d4f751a001bb786b7fd20039047255e4b5327aec9f49f9d9a8f96908e9b6129309f8e6007917fe22a39f862558eb01c2a26eb38c7d884b499221d9a5989f637529bd3e77fd6799c60178d9701556128a78b6149ca565b8a8703612934578452528a600384842001918254161790555b8a8152600a8d526128d385838320614d20565b8a815260078d526012828220016128ea8154614d3d565b905589815260088d52818120838582541617905560098d522091825416179055614ce3565b8151908a825261291e816149ca565b87820152a484519384528301906149ea565ba380f35b8452528a600484842001918254161790556128c0565b634e487b7160e01b8e52601160045260248efd5b61296790614eb3565b938860029461278a565b8852600f8652836040892054169081151580612996575b61299190614c42565b612777565b5081895260088752604089205460ff16612988565b5082895260088752604089205460ff16612765565b60405162461bcd60e51b815260048101859052601160248201527026a6269d102737903937b7ba103ab9b2b960791b6044820152606490fd5b506005851115612732565b8280fd5b50346104f057806003193601126104f05760ff6020915460a01c166040519015158152f35b50346104f05760203660031901126104f057600435600681101561087657602090602c0154604051908152f35b50346104f0576020806003193601126108765760043590338352600d815260ff90816040852054168015612d43575b15612d0957612a96614d4c565b8215612cc5576000198301838111612cb157600e92612ab784548093615110565b93600b549283861015612c6c57612ace9086614cd6565b92808411612c64575b5091908694925b828410612b1857877f9acb94cd9b9c8b1248d0dc0aa654d4303685379499519790474807198a32904360408989898351928352820152a180f35b90919294612b2586614894565b905460039190911b1c6001600160a01b03168089526007865260408920600481015460b01c8516612b55816149ca565b60018114159081612c4f575b50612c435783810190815491600f8201908154808510600014612c3c5784915b8215612c2b57612710612ba0612b9a60178801546154ba565b85615110565b04958615612c1957947f64e8dd16146649f6743856bb8723dcd7edd0bb0e9b5352620ae83a477aea328394612bef858f9695601695612be8612c119e9c98612c0b9e9c614d7c565b9055614d7c565b905501612bfd828254614cd6565b9055604051908152a2614d3d565b95614d3d565b929190612ade565b505050505050505094612c1190614d3d565b5050505050505094612c1190614d3d565b8091612b81565b505094612c1190614d3d565b60029150612c5c816149ca565b141538612b61565b925038612ad7565b60405162461bcd60e51b815260048101869052601e60248201527f4d4c4d3a204261746368206578636565647320746f74616c20757365727300006044820152606490fd5b634e487b7160e01b85526011600452602485fd5b6064906040519062461bcd60e51b82526004820152601d60248201527f4d4c4d3a204261746368206e756d626572206d757374206265203e20300000006044820152fd5b6064906040519062461bcd60e51b8252600482015260136024820152721353134e88139bdd08185d5d1a1bdc9a5e9959606a1b6044820152fd5b5083546001600160a01b03163314612a89565b50346104f057806003193601126104f05760206040516117708152f35b50346104f05760803660031901126104f0576004356001600160401b03811161087657612da4903690600401614980565b91906024356001600160401b038111612a0457612dc5903690600401614980565b6044356001600160401b03811161335657612de4903690600401614980565b90916064356001600160401b03811161335257612e05903690600401614980565b9490973388526008602052612e2060ff60408a205416614f10565b801561330d57338852600760205260408820966001600160401b0382116132f9578190612e5060188a0154614a31565b601f81116132a9575b508990601f831160011461323d578a92613232575b50508160011b916000199060031b1c19161760188701555b6001600160401b03821161321e578190612ea36019880154614a31565b601f81116131cb575b508790601f831160011461315f578892613154575b50508160011b916000199060031b1c19161760198501555b601a8401916001600160401b038211613140578190612ef88454614a31565b601f81116130f0575b508690601f831160011461308a57879261307f575b50508160011b916000199060031b1c19161790555b601b8201906001600160401b03811161306b57612f488254614a31565b601f8111613026575b5083601f8211600114612fbf5781908596601c9692612fb4575b50508160011b916000199060031b1c19161790555b01805460ff19166001179055337fbe4ec58a792f909e102ee3d745d0c3b34a4d437a54d903c4db098d31c556422f8280a280f35b013590503880612f6b565b8285526020852090601f198316865b81811061300e575096839291600194601c989910612ff4575b505050811b019055612f80565b0135600019600384901b60f8161c19169055388080612fe7565b9192602060018192868c013581550194019201612fce565b82855260208520601f830160051c81019160208410613061575b601f0160051c01905b8181106130565750612f51565b858155600101613049565b9091508190613040565b634e487b7160e01b84526041600452602484fd5b013590503880612f16565b84885260208820925090601f198416885b8181106130d857509084600195949392106130be575b505050811b019055612f2b565b0135600019600384901b60f8161c191690553880806130b1565b9193602060018192878701358155019501920161309b565b90915083875260208720601f840160051c81019160208510613136575b90601f859493920160051c01905b8181106131285750612f01565b88815584935060010161311b565b909150819061310d565b634e487b7160e01b86526041600452602486fd5b013590503880612ec1565b60198801895260208920925090601f198416895b8181106131b35750908460019594939210613199575b505050811b016019850155612ed9565b0135600019600384901b60f8161c19169055388080613189565b91936020600181928787013581550195019201613173565b90915060198701885260208820601f840160051c81019160208510613214575b90601f859493920160051c01905b8181106132065750612eac565b8981558493506001016131f9565b90915081906131eb565b634e487b7160e01b87526041600452602487fd5b013590503880612e6e565b60188a018b5260208b20925090601f1984168b5b8181106132915750908460019594939210613277575b505050811b016018870155612e86565b0135600019600384901b60f8161c19169055388080613267565b91936020600181928787013581550195019201613251565b909150601889018a5260208a20601f840160051c8101602085106132f2575b90849392915b601f830160051c820181106132e4575050612e59565b8c81558594506001016132ce565b50806132c8565b634e487b7160e01b89526041600452602489fd5b60405162461bcd60e51b815260206004820152601a60248201527f4d4c4d3a20446973706c6179206e616d652072657175697265640000000000006044820152606490fd5b8680fd5b8480fd5b50346104f057806003193601126104f0576020604051600c8152f35b50346104f05760203660031901126104f057600435613393614b7e565b61271081116133d65760407fdefb0223a84c18f8f7c10046a8600d298578166098e58c49022547d7a50da35b91600654908060065582519182526020820152a180f35b60405162461bcd60e51b81526020600482015260166024820152754d4c4d3a20526174652065786365656473203130302560501b6044820152606490fd5b50346104f05760203660031901126104f0576004359060018210158061346a575b61343e90615d50565b600b8210156134565760208260150154604051908152f35b634e487b7160e01b81526032600452602490fd5b50600a821115613435565b50346104f057806003193601126104f0576003546040516001600160a01b039091168152602090f35b50346104f05760203660031901126104f05760209060ff906040906001600160a01b036134c96147e3565b168152600984522054166040519015158152f35b50346104f057806003193601126104f0576020600e54604051908152f35b50346104f05760203660031901126104f05760043560068110156108765760209060320154604051908152f35b50346104f057806003193601126104f057613541614b7e565b805460ff8160a01c16156135875760ff60a01b191681556040513381527f5db9ee0a495bf2e6ff9c91a7834c1ba4fdd244a5e8aa4e537bd38aeae4b073aa90602090a180f35b604051638dfc202b60e01b8152600490fd5b50346104f05760203660031901126104f0576020906040906001600160a01b036135c16147e3565b168152601283522054604051908152f35b50346104f057806003193601126104f057602060ff60025460a01c16604051908152f35b50346104f057806003193601126104f0576021546040516001600160a01b039091168152602090f35b50346104f05760203660031901126104f0576020906040906001600160a01b036136476147e3565b168082526008845261365e60ff8484205416614f10565b8152600783522054604051908152f35b50346104f057806003193601126104f0576001546040516001600160a01b039091168152602090f35b50346104f057806003193601126104f0576136b0615211565b6136b8614d4c565b33815260086020526136d060ff604083205416614f10565b338152600760205260408120600481015461370660ff8260b01c166136f4816149ca565b60018114908115613b0f575b506154ee565b6016820154908115613ad25760ff906201518042046011850181815410613ac4575b505060a81c16600681101561059157603201546010830154849391818111613ab0575b508315613a725782938593818111613a50575b505090613774846137e593876016850155614cd6565b601082015560088101613788858254614cd6565b90556137948433615a8f565b338552600c60205260176040862091015460ff8111600014613a4a575060ff905b60ff604051926137c484614a6b565b60058452866020850152426040850152876060850152166080830152615001565b6040518281527fd4379f0df0229cb2fed1f6f1c33e4a164dcf7652a8ff79efd7f4f66bcc1b375660203392a2806139de575b503382526007602052604082206001908101549091906001600160a01b03165b6001600160a01b0381161515806139d3575b156139bd576001600160a01b0381168452600760205260408420600481015490919060b081901c60ff1661387c816149ca565b600181149081156139a9575b506138ad575b5050600101546001600160a01b0316916138a790614d3d565b91613837565b600660ff8260a81c161015610e015760ff9060a81c16603e01548411156138d5575b8061388e565b60648381810204811484151715610b5d57906127106138a7939285020480613900575b5050906138cf565b61390a8183615a8f565b60098301613919828254614cd6565b90556001600160a01b0382168752600c602052604080882090516139649161394082614a6b565b6006825283602083015242604083015233606083015260ff89166080830152615001565b604080519182526020820187905233926001600160a01b0316917f45948fc51bbcac6c3b663a1adcc0697660bbaeddd6eab9240451a0efcf7ad7539190a338806138f8565b600291506139b6816149ca565b1438613888565b836001600080516020615fc78339815191525580f35b506014831115613849565b6139ea81602554614cd6565b6025556040518181527fd5fe7fa76ce91683ea1b2f2ba3429885feeb202704aa35a0552e110e4eb6b26b60203392a26024546001600160a01b039190821680613a35575b5050613817565b613a429260015416615123565b388080613a2e565b906137b5565b8195506137e593929450613a6961377492968792614d7c565b9492935061375e565b60405162461bcd60e51b81526020600482015260166024820152751353134e8811185a5b1e4818d85c081c995858da195960521b6044820152606490fd5b81945090613abd91614d7c565b923861374b565b866010870155553880613728565b60405162461bcd60e51b81526020600482015260156024820152744d4c4d3a204e6f7468696e6720746f20636c61696d60581b6044820152606490fd5b60029150613b1c816149ca565b1438613700565b50346104f05760203660031901126104f05760043590613b41615211565b613b49614d4c565b33815260076020526040812090613b75600160ff600485015460b01c16613b6f816149ca565b146154ee565b60058201805484811061412d5784156140e85760ff60025460a01c16604d81116140d457600a0a80600a0290600a8204036140d45780156140c057850661406f5784613bc091614d7c565b90556103e883026103e7198482040161405b5781936005548061403c575b5084613bfb613c0092613bfb612710860491612710870490614d7c565b614d7c565b92612710613c1060065486615110565b0490613c1c8286614d7c565b918061401e575b5081613fbe575b6015915085613f9b575b9493919401613c44828254614cd6565b9055338252601260205260408220613c6161271086048254614cd6565b9055604051612710850481527f2b1d2104e84dd4dabb0cca024171f783ab1e1c9dc1af9d60a2361596653a99c460203392a2338252600760205260018060a01b036001604084200154169360019183955b6001600160a01b038116151580613f90575b15613e88576001600160a01b0381168552600760205260408520600481015490919060b081901c60ff16613cf7816149ca565b60018114908115613e74575b50613d28575b5050600101546001600160a01b031692613d2290614d3d565b92613cb2565b600660ff8260a81c161015613e60578060ff879260a81c1660440154821115613d52575b50613d09565b9060ff613d629260a81c1661552c565b80613d6f575b8590613d4c565b613d7e61271091828704615110565b049081151580613e49575b15613d6857613db882809a613da2613d22969585615a8f565b600a8501613db1838254614cd6565b9055614cd6565b6001600160a01b0382168852600c60205260408089209051919a91613e0491613de082614a6b565b6007825283602083015242604083015233606083015260ff8a166080830152615001565b604080519182526020820188905233926001600160a01b0316917ffa90ff469705543002392f8f4d59d717c4d5c6b6c7832f347dc47e1f75855b939190a39038613d68565b506127108504613e59838b614cd6565b1115613d89565b634e487b7160e01b87526021600452602487fd5b60029150613e81816149ca565b1438613d03565b5084613f4a8593338552600c602052613ecc6040862060405190613eab82614a6b565b60038252866020830152426040830152876060830152876080830152615001565b338552600c602052613f0d6040862060405190613ee882614a6b565b600a825261271084046020830152426040830152876060830152876080830152615001565b338552600c6020526040852061271060405192613f2984614a6b565b600b8452046020830152426040830152856060830152856080830152615001565b60405191825260208201527fdf273cb619d95419a9cd0ec88123a0538c85064229baa6363788f743fff90deb60403392a26001600080516020615fc78339815191525580f35b50600f841115613cc4565b600154600354613fb99188916001600160a01b039081169116615123565b613c34565b6002546001600160a01b03168015613fe357601592613fde913390615123565b613c2a565b60405162461bcd60e51b81526020600482015260136024820152721353134e8813551bdad95b881b9bdd081cd95d606a1b6044820152606490fd5b600154614036919033906001600160a01b0316615123565b38613c23565b613bfb955090612710614052613c009383615110565b04955090613bde565b634e487b7160e01b82526011600452602482fd5b60405162461bcd60e51b8152602060048201526024808201527f4d4c4d3a20416d6f756e74206d7573742062652061206d756c7469706c65206f6044820152630662031360e41b6064820152608490fd5b634e487b7160e01b84526012600452602484fd5b634e487b7160e01b84526011600452602484fd5b60405162461bcd60e51b815260206004820152601760248201527f4d4c4d3a20416d6f756e74206d757374206265203e20300000000000000000006044820152606490fd5b60405162461bcd60e51b815260206004820152601960248201527f4d4c4d3a20496e73756666696369656e742062616c616e6365000000000000006044820152606490fd5b50346104f05760403660031901126104f05761418c6147e3565b7f41310093e80507e3fb2fafc7628a627f835448a93096f490e3e207749295f48260206024356141ba614b7e565b6001600160a01b03848116946141e1918391906141d8881515615f24565b60015416615123565b604051908152a280f35b50346104f05760203660031901126104f05760209060ff906040906001600160a01b036142166147e3565b168152600d84522054166040519015158152f35b50346104f057806003193601126104f0576020604051610bb88152f35b50346104f0576142563661496a565b9061425f614b7e565b6001811015806142db575b61427390615d50565b811561429d57600b811015614289576015015580f35b634e487b7160e01b83526032600452602483fd5b60405162461bcd60e51b815260206004820152601660248201527504d4c4d3a205072696365206d757374206265203e20360541b6044820152606490fd5b50600a81111561426a565b50346104f05760203660031901126104f057600435600b8110156108765760209060150154604051908152f35b50346104f057806003193601126104f0576020602554604051908152f35b50346104f05761434036614939565b90614349614b7e565b600681101580610591576001821015806143a7575b61436790614f52565b61056f5790816105697ffd97dc847c39542ae663c77ed6c5fe5d200d0a308aac833f926e9c3f8f32453f9360320192808454945560405193849384615f67565b50839050600582111561435e565b50346104f05760403660031901126104f0576143cf6147e3565b60243590811515908183036111ce577f9742298dc6801916d04d1f05c6a0cc0405b25bad99060bbbc1c82a9f474ab014916141e160209261440e614b7e565b6001600160a01b031694614423861515615f24565b858752600d8452604087209060ff801983541691151516179055565b50346104f05760203660031901126104f0576144c9906040906001600160a01b036144686147e3565b16815260076020522060ff601c820154166144f361448860188401614ad8565b926144e561449860198301614ad8565b916144d76144b4601b6144ad601a8501614ad8565b9301614ad8565b9360405198899860a08a5260a08a01906148f9565b9088820360208a01526148f9565b9086820360408801526148f9565b9084820360608601526148f9565b90151560808301520390f35b50346104f05760203660031901126104f05760ff60406020926004358152601084522054166040519015158152f35b50346104f05760203660031901126104f0576145486147e3565b614550614b7e565b6001600160a01b0390811690614567821515615f24565b602254826001600160601b0360a01b821617602255167f991bd8bbc522c9c0ad23403e84b3f6169d20804c463d315126d1b208670417408380a380f35b50346104f05760403660031901126104f0576145be6147e3565b6001600160a01b039081168252600a60205260408220805460243593908410156104f057506020926145ef916148e1565b9190546040519260031b1c168152f35b50346104f057806003193601126104f057602060405161222e8152f35b50346104f05760403660031901126104f0576146366147e3565b6024359060ff82168203612a045761464c614b7e565b6001600160a01b039081169182156146b857600180546001600160a01b0319811685179091556002805460ff60a01b191660a09390931b60ff60a01b1692909217909155167f5efdfedf5aef119c431263f0656093045dffdf44b3d8f1b0f158dc295c3a0f8e8380a380f35b60405162461bcd60e51b815260206004820152601260248201527126a6269d1024b73b30b634b2103a37b5b2b760711b6044820152606490fd5b50346104f05761470a614704366147f9565b91615d9c565b959260409592919495519560c087019060c08852845180925260e0880191602080960190875b8181106147b057505050916147538261476f95948a6147619503888c0152614823565b9088820360408a0152614823565b908682036060880152614857565b9084820360808601528080855193848152019401925b828110614799578580868960a08301520390f35b835160ff1685529381019392810192600101614785565b9091938451600c8110156147cf57815287019387019190600101614730565b634e487b7160e01b8a52602160045260248afd5b600435906001600160a01b03821682036114f257565b60609060031901126114f2576004356001600160a01b03811681036114f257906024359060443590565b90815180825260208080930193019160005b828110614843575050505090565b835185529381019392810192600101614835565b90815180825260208080930193019160005b828110614877575050505090565b83516001600160a01b031685529381019392810192600101614869565b600b548110156148cb57600b6000527f0175b7a638427703f0dbe7bb9bbf987a2551717b34e79f33b5b1008d1fa01db90190600090565b634e487b7160e01b600052603260045260246000fd5b80548210156148cb5760005260206000200190600090565b919082519283825260005b848110614925575050826000602080949584010152601f8019910116010190565b602081830181015184830182015201614904565b60409060031901126114f25760043560068110156114f2579060243590565b600b8110156148cb5760150190600090565b60409060031901126114f2576004359060243590565b9181601f840112156114f2578235916001600160401b0383116114f257602083818601950101116114f257565b346114f25760003660031901126114f2576020604051610fa08152f35b600311156149d457565b634e487b7160e01b600052602160045260246000fd5b9060068210156149d45752565b346114f25760003660031901126114f25760206040516103e88152f35b346114f25760003660031901126114f25760206040516102718152f35b90600182811c92168015614a61575b6020831014614a4b57565b634e487b7160e01b600052602260045260246000fd5b91607f1691614a40565b60a081019081106001600160401b03821117614a8657604052565b634e487b7160e01b600052604160045260246000fd5b602081019081106001600160401b03821117614a8657604052565b90601f801991011681019081106001600160401b03821117614a8657604052565b9060405191826000825492614aec84614a31565b908184526001948581169081600014614b5b5750600114614b18575b5050614b1692500383614ab7565b565b9093915060005260209081600020936000915b818310614b43575050614b1693508201013880614b08565b85548884018501529485019487945091830191614b2b565b915050614b1694506020925060ff191682840152151560051b8201013880614b08565b6000546001600160a01b03163303614b9257565b60405163118cdaa760e01b8152336004820152602490fd5b15614bb157565b60405162461bcd60e51b815260206004820152601760248201527f4d4c4d3a20416c726561647920726567697374657265640000000000000000006044820152606490fd5b15614bfd57565b60405162461bcd60e51b815260206004820152601760248201527f4d4c4d3a20496e76616c69642073706f6e736f722049440000000000000000006044820152606490fd5b15614c4957565b60405162461bcd60e51b815260206004820152601d60248201527f4d4c4d3a20496e76616c69642062696e61727920706172656e742049440000006044820152606490fd5b90614c98816149ca565b815460ff60a01b191660a09190911b60ff60a01b16179055565b9060018201809211614cc057565b634e487b7160e01b600052601160045260246000fd5b91908201809211614cc057565b600b54600160401b811015614a8657806001614d029201600b55614894565b819291549060031b9160018060a01b03809116831b921b1916179055565b8054600160401b811015614a8657614d02916001820181556148e1565b6000198114614cc05760010190565b60ff60005460a01c16614d5b57565b60405163d93c066560e01b8152600490fd5b600019810191908211614cc057565b91908203918211614cc057565b600080606033811b600180805b614da3575b505050505090565b94909192939415614e96575b506000601191614dbf8354614d3d565b92838155600b54906040948551602093848201924284524489840152898b840152607483015260949081830152815260c081018181106001600160401b0382111761321e579064e8d4a50c189291885251902006906103e88201809211614e845750614e2b9097614d3d565b9360328511614e41575050908194939294614d96565b60649250519062461bcd60e51b82526004820152601960248201527f4d4c4d3a2049442067656e65726174696f6e206661696c6564000000000000006044820152fd5b634e487b7160e01b8552600452602484fd5b80600052601060205260ff60406000205416614daf579380614d9b565b5b6001600160a01b0381811660009081526007602052604090206004015416908115614edf5750614eb4565b905090565b5b6001600160a01b0381811660009081526007602052604090206003015416908115614edf5750614ee5565b15614f1757565b60405162461bcd60e51b81526020600482015260136024820152721353134e88139bdd081c9959da5cdd195c9959606a1b6044820152606490fd5b15614f5957565b60405162461bcd60e51b81526020600482015260146024820152734d4c4d3a20496e76616c6964207061636b61676560601b6044820152606490fd5b9060068110156149d457815460ff60a81b191660a89190911b60ff60a81b16179055565b60405190606082018281106001600160401b03821117614a8657604052565b60405190614b1682614a6b565b80548210156148cb5760005260206000209060021b0190600090565b8054600160401b811015614a865761501e91600182018155614fe5565b61508857815190600c8210156149d45760039160ff801983541691161781556020830151600182015560408301516002820155019060018060a01b03606082015116825491608060ff60a01b91015160a01b16916affffffffffffffffffffff60a81b1617179055565b634e487b7160e01b600052600060045260246000fd5b90600c820291808304600c1490151715614cc057565b9061222e91828102928184041490151715614cc057565b9061027191828102928184041490151715614cc057565b90610fa091828102928184041490151715614cc057565b906107d091828102928184041490151715614cc057565b81810292918115918404141715614cc057565b60405163a9059cbb60e01b60009081526001600160a01b039384166004526024949094529260209060448180855af1600160005114811615615184575b836040521561516e57505050565b635274afe760e01b835216600482015260249150fd5b600181151661519a57813b15153d151616615160565b833d6000823e3d90fd5b6040516323b872dd60e01b60009081526001600160a01b03938416600452938316602452604494909452909160209060648180855af16001600051148116156151fb575b8360405260006060521561516e57505050565b600181151661519a57813b15153d1516166151e8565b600080516020615fc7833981519152600281541461522f5760029055565b604051633ee5aeb560e01b8152600490fd5b6001600160a01b03908116600081815260076020526040808220600101549294929093169283156153655783825280822092600484015460ff8160b01c16615288816149ca565b60018114159081615350575b506153475760a81c60ff16600681101561059157612710916152ba91602c015490615110565b0490811561533f5761533860209360077f86583c8be3288ec633d5a10afa75407d4c785bff5edd40840c42e48d0efdcfbb966152f6868a615a8f565b01615302858254614cd6565b9055868152600c855282812083519161531a83614a6b565b60048352858784015242858401528960608401526080830152615001565b51908152a3565b505050505050565b50505050505050565b6002915061535d816149ca565b141538615294565b5050505050565b60018060a01b03809116906000908282526007916020928084526002604093818585200154169586156154b05786845260ff6004808787200154928260b094851c16936153b8856149ca565b8584600180971492831561548b575b5050506153dd575b50505050505050505061536c565b8652848852868620015460a01c16906153f5826149ca565b810361543b575050600e93858352818152600c84842001615417888254614cd6565b905585835252200161542a838254614cd6565b90555b3880808080808080806153cf565b615444816149ca565b14615453575b5050505061542d565b600f93858352818152600d8484200161546d888254614cd6565b9055858352522001615480838254614cd6565b90553880808061544a565b909192508c8a52888c52848b8b200154901c166154a7816149ca565b148584386153c7565b5050505050505050565b60058111156154e757600a8111156154e057600f10156154da576101f490565b6103e890565b506107d090565b50610bb890565b156154f557565b60405162461bcd60e51b815260206004820152600f60248201526e4d4c4d3a204e6f742061637469766560881b6044820152606490fd5b60068110156149d4576001810361555157506003101561554c575b600090565b606490565b6002810361557a575060048111156155745760051461556f57600090565b603290565b50606490565b6003810361559957506005811115615574576009101561556f57600090565b600481036155b75750600481111561557457600c1061554757603290565b6005146155c5575b50600090565b60058111156155dc57600f101561556f57386155bf565b506101f490565b80548210156148cb576000526003602060002091020190600090565b8054600160401b811015614a865761561c916001820181556155e3565b6150885760026040614b169360018060a01b038151166001600160601b0360a01b855416178455602081015160018501550151151591019060ff801983541691151516179055565b906156a461567c826000526013602052604060002090565b615684614fb9565b6001600160a01b03851681529060006020830152600060408301526155ff565b806156c26156bc826000526013602052604060002090565b54614d6d565b60405181815290936001600160a01b0316907f4e755dd64e53a9f7a5882e2e32eb64718c2273de11e017bd47129b9fe2716d7c90602090a361570e816000526014602052604060002090565b5491821061571a575050565b61573782615732836000526013602052604060002090565b6155e3565b5091600c600184016157498154614d3d565b8091551015615758575b505050565b8261577c61579e926157776002614b169701600160ff19825416179055565b614cb2565b615790846000526014602052604060002090565b55546001600160a01b031690565b6157bc6157b76157ad84614958565b90549060031b1c90565b61509e565b600a8310156159465782614b1693827fc9dfd5046e5f1be95c560d1b85295f8afd28d0102c20e0b4112b88bd328ca43361580f615801615809615801615912986150e2565b612710900490565b936150f9565b6023546001600160a01b03908116848982615935575b50506021546001600160a01b0316905082828216615918575b50506001600160a01b0388166000908152600c6020526040902061589090615864614fd8565b6009815290602082018790524260408301526000606083015260ff88166080830152615001565b615001565b604080519485526020850192909252871692a36001600160a01b0383166000908152600c60205260409020615777906158d36157ad6158ce85614cb2565b614958565b9061588b6158e96158e386614cb2565b60ff1690565b6158f1614fd8565b600881529360208501524260408501526000606085015260ff166080840152565b90615664565b60015461592e92906001600160a01b0316615123565b388261583e565b61593e92615123565b388489615825565b806159746158017fc9dfd5046e5f1be95c560d1b85295f8afd28d0102c20e0b4112b88bd328ca433936150b4565b92615a3f61599061580161598a615801866150cb565b946150cb565b6023546001600160a01b0394908516878582615a7e575b50506022546001600160a01b0316905090858216615a61575b50506021546001600160a01b031681858216615a44575b50506001600160a01b0383166000908152600c60205260409020615a24906159fd614fd8565b6009815290602082018990524260408301526000606083015260ff8a166080830152615001565b60405193849316958360209093929193604081019481520152565b0390a3565b600154615a5a92906001600160a01b0316615123565b38816159d7565b600154615a7792906001600160a01b0316615123565b38806159c0565b615a8792615123565b3887856159a7565b9060018060a01b0382166000526007602052604060002081156157535760ff600482015460a81c1660068110156149d45760380154926000600b830194855490818111615b40575b50508015615b3457808411615b08575050906005615b049201615afb828254614cd6565b90558254614cd6565b9055565b8293614b16956005615b2e949501615b21848254614cd6565b9055612be8838254614cd6565b91615b51565b5090614b169350615b51565b615b4a9250614d7c565b3880615ad7565b9060ff600291600484019081546001848260b01c16615b6f816149ca565b14615b9d575b50505460b01c16615b85816149ca565b14615b8e575050565b6006615b049101918254614cd6565b60b084901b1916600160b11b17825542601386018190556040519081526001600160a01b03909116907f2bb92f1150248e7f78a267b3904ebd95f62a5225d70dcc813fb6906c3a646e9890602090a23880615b75565b6001600160401b038111614a865760051b60200190565b90615c1482615bf3565b615c216040519182614ab7565b8281528092615c32601f1991615bf3565b0190602036910137565b80518210156148cb5760209160051b010190565b929060018060a01b0380600095168552600a6020526040852080549485841015615ce757615c7e9084614cd6565b83868211615cdf575b615c9091614d7c565b92615c9a84615c0a565b965b848110615caa575050505050565b8084615cc2615cbc615cda9486614cd6565b866148e1565b90549060031b1c16615cd4828b615c3c565b52614d3d565b615c9c565b869150615c87565b50505050909160405190615cfa82614a9c565b8082523681379190565b15615d0b57565b60405162461bcd60e51b815260206004820152601860248201527f4d4c4d3a20496e646578206f7574206f6620626f756e647300000000000000006044820152606490fd5b15615d5757565b60405162461bcd60e51b815260206004820152601860248201527f4d4c4d3a20496e76616c696420626f617264206c6576656c00000000000000006044820152606490fd5b6001600160a01b03166000908152600c60205260409081902080549493909185841015615ec55750615dce9083614cd6565b82858211615ebd575b615de091614d7c565b91615dea83615c0a565b94615df484615c0a565b94615dfe85615c0a565b94615e0881615c0a565b94615e1282615c0a565b9460005b838110615e235750505050565b6000198601868111614cc057615e46615e4c91615e408486614cd6565b90614d7c565b84614fe5565b50908b615e5e8260ff85541692615c3c565b600c8210156149d457615eb89360ff92600392528d615e8285600184015492615c3c565b526002810154615e92858f615c3c565b5201546001600160a01b038116615ea9848d615c3c565b5260a01c16615cd4828a615c3c565b615e16565b859150615dd7565b925050508051615ed481614a9c565b60008152815193615ee485614a9c565b60008552825193615ef485614a9c565b60008552835193615f0485614a9c565b600085525192615f1384614a9c565b600084526000368137959493929190565b15615f2b57565b60405162461bcd60e51b81526020600482015260146024820152734d4c4d3a20496e76616c6964206164647265737360601b6044820152606490fd5b604091949392615f7b8260608101976149ea565b60208201520152565b600b5480156155bf57615f9a600e548092614cd6565b6000198101908111614cc0578115615fb0570490565b634e487b7160e01b600052601260045260246000fdfe9b779b17422d0df92223018b32b4d1fa46e071723d6817e2486d003becc55f00a2646970667358221220d75c78b557106eda8f7e6b91c80e44ba2ac6ccd5383adc3905fde68ce8548a2464736f6c63430008140033","opcodes":"PUSH1 0x80 CALLVALUE PUSH3 0x5BB JUMPI PUSH1 0x1F PUSH3 0x6628 CODESIZE DUP2 SWAP1 SUB SWAP2 DUP3 ADD PUSH1 0x1F NOT AND DUP4 ADD SWAP2 PUSH1 0x1 PUSH1 0x1 PUSH1 0x40 SHL SUB DUP4 GT DUP5 DUP5 LT OR PUSH3 0x5C0 JUMPI DUP1 DUP5 SWAP3 PUSH1 0x80 SWAP5 PUSH1 0x40 MSTORE DUP4 CODECOPY DUP2 ADD SUB SLT PUSH3 0x5BB JUMPI PUSH3 0x4D DUP2 PUSH3 0x5F6 JUMP JUMPDEST SWAP1 PUSH1 0x20 DUP2 ADD MLOAD PUSH1 0xFF DUP2 AND DUP2 SUB PUSH3 0x5BB JUMPI PUSH3 0x7A PUSH1 0x60 PUSH3 0x72 PUSH1 0x40 DUP6 ADD PUSH3 0x5F6 JUMP JUMPDEST SWAP4 ADD PUSH3 0x5F6 JUMP JUMPDEST SWAP3 CALLER ISZERO PUSH3 0x5A2 JUMPI PUSH1 0x0 DUP1 SLOAD CALLER PUSH1 0x1 PUSH1 0x1 PUSH1 0xA0 SHL SUB NOT DUP3 AND DUP2 OR DUP4 SSTORE SWAP2 PUSH1 0x1 PUSH1 0x1 PUSH1 0xA0 SHL SUB SWAP1 SWAP2 AND SWAP1 PUSH32 0x8BE0079C531659141344CD1FD0A4F28419497F9722A3DAAFE3B4186F6B6457E0 SWAP1 DUP1 LOG3 PUSH1 0x1 PUSH32 0x9B779B17422D0DF92223018B32B4D1FA46E071723D6817E2486D003BECC55F00 SSTORE PUSH2 0x2710 PUSH1 0x6 SSTORE PUSH1 0x32 PUSH1 0xE SSTORE PUSH3 0x100 PUSH3 0x5D6 JUMP JUMPDEST PUSH1 0x0 DUP2 MSTORE PUSH2 0x3E8 PUSH1 0x20 DUP3 ADD MSTORE PUSH2 0x5DC PUSH1 0x40 DUP3 ADD MSTORE PUSH2 0x7D0 PUSH1 0x60 DUP3 ADD MSTORE PUSH2 0x9C4 PUSH1 0x80 DUP3 ADD MSTORE PUSH2 0xBB8 PUSH1 0xA0 DUP3 ADD MSTORE PUSH1 0x0 JUMPDEST PUSH1 0x6 DUP2 LT PUSH3 0x588 JUMPI POP POP PUSH3 0x144 PUSH3 0x5D6 JUMP JUMPDEST PUSH1 0x0 DUP2 MSTORE PUSH1 0x3 PUSH1 0x20 DUP3 ADD MSTORE PUSH1 0x6 PUSH1 0x40 DUP3 ADD MSTORE PUSH1 0xA PUSH1 0x60 DUP3 ADD MSTORE PUSH1 0xF PUSH1 0x80 DUP3 ADD MSTORE PUSH1 0x14 PUSH1 0xA0 DUP3 ADD MSTORE PUSH1 0x0 JUMPDEST PUSH1 0x6 DUP2 LT PUSH3 0x56F JUMPI POP POP PUSH3 0x183 PUSH3 0x5D6 JUMP JUMPDEST PUSH1 0x0 DUP2 MSTORE PUSH1 0x3 PUSH1 0x20 DUP3 ADD MSTORE PUSH1 0x5 PUSH1 0x40 DUP3 ADD MSTORE PUSH1 0x9 PUSH1 0x60 DUP3 ADD MSTORE PUSH1 0xC PUSH1 0x80 DUP3 ADD MSTORE PUSH1 0xF PUSH1 0xA0 DUP3 ADD MSTORE PUSH1 0x0 JUMPDEST PUSH1 0x6 DUP2 LT PUSH3 0x556 JUMPI POP POP PUSH1 0x1 PUSH1 0x1 PUSH1 0xA0 SHL SUB AND SWAP2 DUP3 ISZERO PUSH3 0x51C JUMPI PUSH1 0x1 PUSH1 0x1 PUSH1 0xA0 SHL SUB AND SWAP3 DUP4 ISZERO PUSH3 0x4D7 JUMPI PUSH1 0x1 PUSH1 0x1 PUSH1 0xA0 SHL SUB AND SWAP2 DUP3 ISZERO PUSH3 0x493 JUMPI PUSH1 0x1 DUP1 SLOAD PUSH1 0x1 PUSH1 0x1 PUSH1 0xA0 SHL SUB NOT SWAP1 DUP2 AND SWAP3 SWAP1 SWAP3 OR SWAP1 SSTORE PUSH1 0x2 DUP1 SLOAD PUSH1 0xFF PUSH1 0xA0 SHL NOT AND PUSH1 0xA0 DUP5 SWAP1 SHL PUSH1 0xFF PUSH1 0xA0 SHL AND OR SWAP1 SSTORE PUSH1 0x3 DUP1 SLOAD DUP3 AND DUP6 OR SWAP1 SSTORE PUSH1 0x4 DUP1 SLOAD DUP3 AND SWAP1 SWAP5 OR DUP5 SSTORE PUSH1 0x24 DUP1 SLOAD SWAP1 SWAP2 AND SWAP1 SWAP3 OR DUP3 SSTORE PUSH1 0x0 PUSH1 0x5 SSTORE PUSH1 0x4D PUSH1 0xFF DUP3 AND GT PUSH3 0x47F JUMPI PUSH1 0xFF AND PUSH1 0xA EXP SWAP2 PUSH1 0x0 PUSH1 0x26 SSTORE DUP3 PUSH1 0xC8 MUL PUSH1 0xC8 DUP2 DIV DUP5 SUB PUSH3 0x41B JUMPI DUP1 PUSH1 0x27 SSTORE PUSH2 0x258 DUP5 DUP2 MUL SWAP1 DUP2 DIV DUP6 SUB PUSH3 0x46B JUMPI DUP1 PUSH1 0x28 SSTORE PUSH2 0x4B0 DUP6 DUP2 MUL SWAP1 DUP2 DIV DUP7 SUB PUSH3 0x457 JUMPI DUP1 PUSH1 0x29 SSTORE PUSH2 0x960 SWAP2 DUP7 DUP4 MUL SWAP3 DUP4 DIV DUP8 SUB PUSH3 0x443 JUMPI DUP3 PUSH1 0x2A SSTORE PUSH2 0x12C0 SWAP4 DUP8 DUP6 MUL SWAP5 DUP6 DIV DUP9 SUB PUSH3 0x42F JUMPI DUP5 PUSH1 0x2B SSTORE PUSH1 0x0 PUSH1 0x32 SSTORE PUSH1 0x33 SSTORE PUSH1 0x34 SSTORE PUSH1 0x35 SSTORE PUSH1 0x36 SSTORE PUSH1 0x37 SSTORE PUSH1 0x0 PUSH1 0x38 SSTORE DUP3 PUSH2 0x3E8 MUL PUSH2 0x3E8 DUP2 DIV DUP5 SUB PUSH3 0x41B JUMPI PUSH1 0x39 SSTORE DUP3 PUSH2 0xBB8 MUL PUSH2 0xBB8 DUP2 DIV DUP5 SUB PUSH3 0x41B JUMPI PUSH1 0x3A SSTORE PUSH2 0x1770 DUP4 DUP2 MUL SWAP1 DUP2 DIV DUP5 SUB PUSH3 0x41B JUMPI PUSH1 0x3B SSTORE PUSH2 0x2EE0 DUP4 DUP2 MUL SWAP1 DUP2 DIV DUP5 SUB PUSH3 0x41B JUMPI PUSH1 0x3C SSTORE PUSH2 0x5DC0 DUP4 DUP2 MUL SWAP1 DUP2 DIV DUP5 SUB PUSH3 0x41B JUMPI PUSH1 0x3D SSTORE DUP3 PUSH1 0x32 MUL PUSH1 0x32 DUP2 DIV DUP5 SUB PUSH3 0x41B JUMPI PUSH1 0x16 SSTORE DUP3 PUSH1 0xB4 MUL PUSH1 0xB4 DUP2 DIV DUP5 SUB PUSH3 0x41B JUMPI PUSH1 0x17 SSTORE PUSH2 0x288 DUP4 DUP2 MUL SWAP1 DUP2 DIV DUP5 SUB PUSH3 0x41B JUMPI PUSH1 0x18 SSTORE PUSH2 0x91D DUP4 DUP2 MUL SWAP1 DUP2 DIV DUP5 SUB PUSH3 0x41B JUMPI PUSH1 0x19 SSTORE PUSH2 0x20CE DUP4 DUP2 MUL SWAP1 DUP2 DIV DUP5 SUB PUSH3 0x41B JUMPI PUSH1 0x1A SSTORE PUSH2 0x7619 DUP4 DUP2 MUL SWAP1 DUP2 DIV DUP5 SUB PUSH3 0x41B JUMPI PUSH1 0x1B SSTORE PUSH3 0x1A927 DUP4 DUP2 MUL SWAP1 DUP2 DIV DUP5 SUB PUSH3 0x41B JUMPI PUSH1 0x1C SSTORE PUSH3 0x5FA8D DUP4 DUP2 MUL SWAP1 DUP2 DIV DUP5 SUB PUSH3 0x41B JUMPI PUSH1 0x1D SSTORE PUSH3 0x1585FB DUP4 DUP2 MUL SWAP1 DUP2 DIV DUP5 SUB PUSH3 0x41B JUMPI PUSH1 0x1E SSTORE PUSH3 0x4D7BEE SWAP3 DUP1 DUP5 MUL SWAP4 DUP5 DIV SUB PUSH3 0x408 JUMPI DUP3 PUSH1 0x1F SSTORE PUSH1 0x40 MLOAD PUSH2 0x601C SWAP1 DUP2 PUSH3 0x60C DUP3 CODECOPY RETURN JUMPDEST PUSH1 0x11 SWAP1 PUSH4 0x4E487B71 PUSH1 0xE0 SHL PUSH1 0x0 MSTORE MSTORE PUSH1 0x0 REVERT JUMPDEST POP PUSH1 0x11 SWAP1 PUSH4 0x4E487B71 PUSH1 0xE0 SHL PUSH1 0x0 MSTORE MSTORE PUSH1 0x0 REVERT JUMPDEST DUP7 PUSH1 0x11 DUP8 PUSH4 0x4E487B71 PUSH1 0xE0 SHL PUSH1 0x0 MSTORE MSTORE PUSH1 0x0 REVERT JUMPDEST DUP6 PUSH1 0x11 DUP7 PUSH4 0x4E487B71 PUSH1 0xE0 SHL PUSH1 0x0 MSTORE MSTORE PUSH1 0x0 REVERT JUMPDEST DUP5 PUSH1 0x11 DUP6 PUSH4 0x4E487B71 PUSH1 0xE0 SHL PUSH1 0x0 MSTORE MSTORE PUSH1 0x0 REVERT JUMPDEST DUP4 PUSH1 0x11 DUP5 PUSH4 0x4E487B71 PUSH1 0xE0 SHL PUSH1 0x0 MSTORE MSTORE PUSH1 0x0 REVERT JUMPDEST POP PUSH4 0x4E487B71 PUSH1 0xE0 SHL PUSH1 0x0 SWAP1 DUP2 MSTORE PUSH1 0x11 DUP4 MSTORE REVERT JUMPDEST PUSH1 0x64 PUSH1 0x40 MLOAD PUSH3 0x461BCD PUSH1 0xE5 SHL DUP2 MSTORE PUSH1 0x20 PUSH1 0x4 DUP3 ADD MSTORE PUSH1 0x20 PUSH1 0x24 DUP3 ADD MSTORE PUSH32 0x4D4C4D3A20496E76616C69642061646D696E2062696E6172792077616C6C6574 PUSH1 0x44 DUP3 ADD MSTORE REVERT JUMPDEST PUSH1 0x40 MLOAD PUSH3 0x461BCD PUSH1 0xE5 SHL DUP2 MSTORE PUSH1 0x20 PUSH1 0x4 DUP3 ADD MSTORE PUSH1 0x1A PUSH1 0x24 DUP3 ADD MSTORE PUSH32 0x4D4C4D3A20496E76616C69642066656520726563697069656E74000000000000 PUSH1 0x44 DUP3 ADD MSTORE PUSH1 0x64 SWAP1 REVERT JUMPDEST PUSH1 0x40 MLOAD PUSH3 0x461BCD PUSH1 0xE5 SHL DUP2 MSTORE PUSH1 0x20 PUSH1 0x4 DUP3 ADD MSTORE PUSH1 0x12 PUSH1 0x24 DUP3 ADD MSTORE PUSH18 0x26A6269D1024B73B30B634B2103A37B5B2B7 PUSH1 0x71 SHL PUSH1 0x44 DUP3 ADD MSTORE PUSH1 0x64 SWAP1 REVERT JUMPDEST PUSH1 0x1 SWAP1 PUSH1 0x20 PUSH1 0xFF DUP5 MLOAD AND SWAP4 ADD SWAP3 DUP2 PUSH1 0x44 ADD SSTORE ADD PUSH3 0x1AD JUMP JUMPDEST PUSH1 0x1 SWAP1 PUSH1 0x20 PUSH1 0xFF DUP5 MLOAD AND SWAP4 ADD SWAP3 DUP2 PUSH1 0x3E ADD SSTORE ADD PUSH3 0x16E JUMP JUMPDEST PUSH1 0x1 SWAP1 PUSH1 0x20 PUSH2 0xFFFF DUP5 MLOAD AND SWAP4 ADD SWAP3 DUP2 PUSH1 0x2C ADD SSTORE ADD PUSH3 0x12F JUMP JUMPDEST PUSH1 0x40 MLOAD PUSH4 0x1E4FBDF7 PUSH1 0xE0 SHL DUP2 MSTORE PUSH1 0x0 PUSH1 0x4 DUP3 ADD MSTORE PUSH1 0x24 SWAP1 REVERT JUMPDEST PUSH1 0x0 DUP1 REVERT JUMPDEST PUSH4 0x4E487B71 PUSH1 0xE0 SHL PUSH1 0x0 MSTORE PUSH1 0x41 PUSH1 0x4 MSTORE PUSH1 0x24 PUSH1 0x0 REVERT JUMPDEST PUSH1 0x40 MLOAD SWAP1 PUSH1 0xC0 DUP3 ADD PUSH1 0x1 PUSH1 0x1 PUSH1 0x40 SHL SUB DUP2 GT DUP4 DUP3 LT OR PUSH3 0x5C0 JUMPI PUSH1 0x40 MSTORE JUMP JUMPDEST MLOAD SWAP1 PUSH1 0x1 PUSH1 0x1 PUSH1 0xA0 SHL SUB DUP3 AND DUP3 SUB PUSH3 0x5BB JUMPI JUMP INVALID PUSH2 0x2C0 PUSH1 0x40 MSTORE PUSH1 0x4 CALLDATASIZE LT ISZERO PUSH2 0x13 JUMPI PUSH1 0x0 DUP1 REVERT JUMPDEST PUSH1 0x0 DUP1 CALLDATALOAD PUSH1 0xE0 SHR DUP1 PUSH4 0x12685F4 EQ PUSH2 0x46F2 JUMPI DUP1 PUSH4 0x327EF49 EQ PUSH2 0x461C JUMPI DUP1 PUSH4 0x4841337 EQ PUSH2 0x45FF JUMPI DUP1 PUSH4 0x5AD3935 EQ PUSH2 0x45A4 JUMPI DUP1 PUSH4 0x6210197 EQ PUSH2 0x452E JUMPI DUP1 PUSH4 0xB6A9539 EQ PUSH2 0x44FF JUMPI DUP1 PUSH4 0xF53A470 EQ PUSH2 0x443F JUMPI DUP1 PUSH4 0x179BD5C8 EQ PUSH2 0x849 JUMPI DUP1 PUSH4 0x1915D956 EQ PUSH2 0x43B5 JUMPI DUP1 PUSH4 0x1CDC545C EQ PUSH2 0x4331 JUMPI DUP1 PUSH4 0x1D64E593 EQ PUSH2 0x4313 JUMPI DUP1 PUSH4 0x2389E78A EQ PUSH2 0x42E6 JUMPI DUP1 PUSH4 0x29D7F9EB EQ PUSH2 0x4247 JUMPI DUP1 PUSH4 0x2A1A5B1B EQ PUSH2 0x422A JUMPI DUP1 PUSH4 0x2C2896B3 EQ PUSH2 0x41EB JUMPI DUP1 PUSH4 0x2E1888B8 EQ PUSH2 0x4172 JUMPI DUP1 PUSH4 0x2E1A7D4D EQ PUSH2 0x3B23 JUMPI DUP1 PUSH4 0x2EEE563E EQ PUSH2 0x3697 JUMPI DUP1 PUSH4 0x3013CE29 EQ PUSH2 0x366E JUMPI DUP1 PUSH4 0x31E1F29B EQ PUSH2 0x3599 JUMPI DUP1 PUSH4 0x385399F9 EQ PUSH2 0x361F JUMPI DUP1 PUSH4 0x39AE9EFD EQ PUSH2 0x35F6 JUMPI DUP1 PUSH4 0x3AC272C2 EQ PUSH2 0x5EA JUMPI DUP1 PUSH4 0x3B97E856 EQ PUSH2 0x35D2 JUMPI DUP1 PUSH4 0x3D6BACF3 EQ PUSH2 0x3599 JUMPI DUP1 PUSH4 0x3F4BA83A EQ PUSH2 0x3528 JUMPI DUP1 PUSH4 0x4286064E EQ PUSH2 0x34FB JUMPI DUP1 PUSH4 0x4526B4AA EQ PUSH2 0x34DD JUMPI DUP1 PUSH4 0x463CFFE6 EQ PUSH2 0x349E JUMPI DUP1 PUSH4 0x46904840 EQ PUSH2 0x3475 JUMPI DUP1 PUSH4 0x47CD5191 EQ PUSH2 0x3414 JUMPI DUP1 PUSH4 0x4B695586 EQ PUSH2 0x3376 JUMPI DUP1 PUSH4 0x4E759962 EQ PUSH2 0x335A JUMPI DUP1 PUSH4 0x55509C8F EQ PUSH2 0x2D73 JUMPI DUP1 PUSH4 0x556415D9 EQ PUSH2 0x2D56 JUMPI DUP1 PUSH4 0x57F0140A EQ PUSH2 0x2A5A JUMPI DUP1 PUSH4 0x5A1FAEB9 EQ PUSH2 0x2A2D JUMPI DUP1 PUSH4 0x5C975ABB EQ PUSH2 0x2A08 JUMPI DUP1 PUSH4 0x61DBA5F3 EQ PUSH2 0x1BBA JUMPI DUP1 PUSH4 0x6207F522 EQ PUSH2 0x26AB JUMPI DUP1 PUSH4 0x624A893D EQ PUSH2 0x268D JUMPI DUP1 PUSH4 0x6386C1C7 EQ PUSH2 0x259F JUMPI DUP1 PUSH4 0x69E94F4D EQ PUSH2 0x2529 JUMPI DUP1 PUSH4 0x6AA6C0CE EQ PUSH2 0x22BF JUMPI DUP1 PUSH4 0x6D0364D7 EQ PUSH2 0x1F5A JUMPI DUP1 PUSH4 0x6E0881DA EQ PUSH2 0x1BBA JUMPI DUP1 PUSH4 0x6F8760FE EQ PUSH2 0x2273 JUMPI DUP1 PUSH4 0x6F9FB98A EQ PUSH2 0x21DD JUMPI DUP1 PUSH4 0x7115BBA7 EQ PUSH2 0x169E JUMPI DUP1 PUSH4 0x715018A6 EQ PUSH2 0x2183 JUMPI DUP1 PUSH4 0x7D4CF0B8 EQ PUSH2 0x164A JUMPI DUP1 PUSH4 0x7FEEF9D6 EQ PUSH2 0x20D5 JUMPI DUP1 PUSH4 0x8225757B EQ PUSH2 0x205C JUMPI DUP1 PUSH4 0x8456CB59 EQ PUSH2 0x1FFB JUMPI DUP1 PUSH4 0x85F8F11B EQ PUSH2 0x1FCE JUMPI DUP1 PUSH4 0x8919D5E9 EQ PUSH2 0x1FA5 JUMPI DUP1 PUSH4 0x8BC7E8C4 EQ PUSH2 0x1F87 JUMPI DUP1 PUSH4 0x8D7B5690 EQ PUSH2 0x1F5A JUMPI DUP1 PUSH4 0x8DA5CB5B EQ PUSH2 0x1F33 JUMPI DUP1 PUSH4 0x92167DE2 EQ PUSH2 0x1EAF JUMPI DUP1 PUSH4 0x92446E30 EQ PUSH2 0x169E JUMPI DUP1 PUSH4 0x9726B9F2 EQ PUSH2 0x1BBF JUMPI DUP1 PUSH4 0x9898FCD3 EQ PUSH2 0x1BBA JUMPI DUP1 PUSH4 0x9A688A99 EQ PUSH2 0x1B44 JUMPI DUP1 PUSH4 0x9BE572F6 EQ PUSH2 0x1B26 JUMPI DUP1 PUSH4 0xA2BDEDF4 EQ PUSH2 0x1AFB JUMPI DUP1 PUSH4 0xA5C34061 EQ PUSH2 0x1ADE JUMPI DUP1 PUSH4 0xA7229FD9 EQ PUSH2 0x1A5B JUMPI DUP1 PUSH4 0xA87430BA EQ PUSH2 0x173C JUMPI DUP1 PUSH4 0xAC1E5025 EQ PUSH2 0x16A3 JUMPI DUP1 PUSH4 0xAC6C264E EQ PUSH2 0x169E JUMPI DUP1 PUSH4 0xB0AC4626 EQ PUSH2 0x1682 JUMPI DUP1 PUSH4 0xB1695201 EQ PUSH2 0x164F JUMPI DUP1 PUSH4 0xB2418AF8 EQ PUSH2 0x164A JUMPI DUP1 PUSH4 0xB33DD0C9 EQ PUSH2 0x161D JUMPI DUP1 PUSH4 0xB882C4D8 EQ PUSH2 0x15A7 JUMPI DUP1 PUSH4 0xBBC18F6F EQ PUSH2 0x1589 JUMPI DUP1 PUSH4 0xBEFBE97D EQ PUSH2 0x14F7 JUMPI DUP1 PUSH4 0xC24BE7FB EQ PUSH2 0x123A JUMPI DUP1 PUSH4 0xC3B6F939 EQ PUSH2 0x1211 JUMPI DUP1 PUSH4 0xC3C5A547 EQ PUSH2 0x11D2 JUMPI DUP1 PUSH4 0xCE0B2122 EQ PUSH2 0x1070 JUMPI DUP1 PUSH4 0xD117DE03 EQ PUSH2 0x1047 JUMPI DUP1 PUSH4 0xD2C8E0E5 EQ PUSH2 0xFB4 JUMPI DUP1 PUSH4 0xD3BA4F96 EQ PUSH2 0xF3E JUMPI DUP1 PUSH4 0xD3E848F1 EQ PUSH2 0xF15 JUMPI DUP1 PUSH4 0xD4A90286 EQ PUSH2 0xEAB JUMPI DUP1 PUSH4 0xD58C6172 EQ PUSH2 0xC28 JUMPI DUP1 PUSH4 0xD8F33840 EQ PUSH2 0xBEF JUMPI DUP1 PUSH4 0xD9C842FD EQ PUSH2 0xBB6 JUMPI DUP1 PUSH4 0xD9F9F63F EQ PUSH2 0xA50 JUMPI DUP1 PUSH4 0xE1F1C4A7 EQ PUSH2 0xA33 JUMPI DUP1 PUSH4 0xE4093A66 EQ PUSH2 0x89D JUMPI DUP1 PUSH4 0xE561DDDC EQ PUSH2 0x87A JUMPI DUP1 PUSH4 0xE63619A5 EQ PUSH2 0x849 JUMPI DUP1 PUSH4 0xE74B981B EQ PUSH2 0x7D3 JUMPI DUP1 PUSH4 0xEB63E1C2 EQ PUSH2 0x7A9 JUMPI DUP1 PUSH4 0xECE2BC23 EQ PUSH2 0x6F7 JUMPI DUP1 PUSH4 0xEF2C5C50 EQ PUSH2 0x6D7 JUMPI DUP1 PUSH4 0xF00B0093 EQ PUSH2 0x69F JUMPI DUP1 PUSH4 0xF2FDE38B EQ PUSH2 0x614 JUMPI DUP1 PUSH4 0xF3B36BF8 EQ PUSH2 0x5EA JUMPI DUP1 PUSH4 0xFC3C8A0C EQ PUSH2 0x5C1 JUMPI DUP1 PUSH4 0xFC4A36F6 EQ PUSH2 0x5A5 JUMPI DUP1 PUSH4 0xFDC65D6E EQ PUSH2 0x4F3 JUMPI PUSH4 0xFF5D32FE EQ PUSH2 0x4AC JUMPI PUSH1 0x0 DUP1 REVERT JUMPDEST CALLVALUE PUSH2 0x4F0 JUMPI PUSH1 0x20 CALLDATASIZE PUSH1 0x3 NOT ADD SLT PUSH2 0x4F0 JUMPI PUSH1 0x20 PUSH2 0x4D7 PUSH1 0x4 CALLDATALOAD PUSH2 0x4D2 PUSH1 0xB SLOAD DUP3 LT PUSH2 0x5D04 JUMP JUMPDEST PUSH2 0x4894 JUMP JUMPDEST SWAP1 SLOAD PUSH1 0x40 MLOAD PUSH1 0x3 SWAP3 SWAP1 SWAP3 SHL SHR PUSH1 0x1 PUSH1 0x1 PUSH1 0xA0 SHL SUB AND DUP2 MSTORE RETURN JUMPDEST DUP1 REVERT JUMPDEST POP CALLVALUE PUSH2 0x4F0 JUMPI PUSH2 0x502 CALLDATASIZE PUSH2 0x4939 JUMP JUMPDEST SWAP1 PUSH2 0x50B PUSH2 0x4B7E JUMP JUMPDEST PUSH1 0x6 DUP2 LT ISZERO DUP1 PUSH2 0x591 JUMPI PUSH1 0x1 DUP3 LT ISZERO DUP1 PUSH2 0x583 JUMPI JUMPDEST PUSH2 0x529 SWAP1 PUSH2 0x4F52 JUMP JUMPDEST PUSH2 0x56F JUMPI SWAP1 DUP2 PUSH2 0x569 PUSH32 0x36152E7515AADA41257500317963EA57C35904A845E67C595F4E110377A08F20 SWAP4 PUSH1 0x26 ADD SWAP3 DUP1 DUP5 SLOAD SWAP5 SSTORE PUSH1 0x40 MLOAD SWAP4 DUP5 SWAP4 DUP5 PUSH2 0x5F67 JUMP JUMPDEST SUB SWAP1 LOG1 DUP1 RETURN JUMPDEST PUSH4 0x4E487B71 PUSH1 0xE0 SHL DUP4 MSTORE PUSH1 0x21 PUSH1 0x4 MSTORE PUSH1 0x24 DUP4 REVERT JUMPDEST POP DUP4 SWAP1 POP PUSH1 0x5 DUP3 GT ISZERO PUSH2 0x520 JUMP JUMPDEST PUSH4 0x4E487B71 PUSH1 0xE0 SHL DUP5 MSTORE PUSH1 0x21 PUSH1 0x4 MSTORE PUSH1 0x24 DUP5 REVERT JUMPDEST POP CALLVALUE PUSH2 0x4F0 JUMPI DUP1 PUSH1 0x3 NOT CALLDATASIZE ADD SLT PUSH2 0x4F0 JUMPI PUSH1 0x20 PUSH1 0x40 MLOAD PUSH1 0x64 DUP2 MSTORE RETURN JUMPDEST POP CALLVALUE PUSH2 0x4F0 JUMPI DUP1 PUSH1 0x3 NOT CALLDATASIZE ADD SLT PUSH2 0x4F0 JUMPI PUSH1 0x4 SLOAD PUSH1 0x40 MLOAD PUSH1 0x1 PUSH1 0x1 PUSH1 0xA0 SHL SUB SWAP1 SWAP2 AND DUP2 MSTORE PUSH1 0x20 SWAP1 RETURN JUMPDEST POP CALLVALUE PUSH2 0x4F0 JUMPI PUSH1 0x20 CALLDATASIZE PUSH1 0x3 NOT ADD SLT PUSH2 0x4F0 JUMPI PUSH1 0x40 PUSH1 0x20 SWAP2 PUSH1 0x4 CALLDATALOAD DUP2 MSTORE PUSH1 0x14 DUP4 MSTORE KECCAK256 SLOAD PUSH1 0x40 MLOAD SWAP1 DUP2 MSTORE RETURN JUMPDEST POP CALLVALUE PUSH2 0x4F0 JUMPI PUSH1 0x20 CALLDATASIZE PUSH1 0x3 NOT ADD SLT PUSH2 0x4F0 JUMPI PUSH2 0x62E PUSH2 0x47E3 JUMP JUMPDEST PUSH2 0x636 PUSH2 0x4B7E JUMP JUMPDEST PUSH1 0x1 PUSH1 0x1 PUSH1 0xA0 SHL SUB SWAP1 DUP2 AND SWAP1 DUP2 ISZERO PUSH2 0x686 JUMPI PUSH1 0x0 SLOAD DUP3 PUSH1 0x1 PUSH1 0x1 PUSH1 0x60 SHL SUB PUSH1 0xA0 SHL DUP3 AND OR PUSH1 0x0 SSTORE AND PUSH32 0x8BE0079C531659141344CD1FD0A4F28419497F9722A3DAAFE3B4186F6B6457E0 PUSH1 0x0 DUP1 LOG3 DUP1 RETURN JUMPDEST PUSH1 0x40 MLOAD PUSH4 0x1E4FBDF7 PUSH1 0xE0 SHL DUP2 MSTORE PUSH1 0x4 DUP2 ADD DUP5 SWAP1 MSTORE PUSH1 0x24 SWAP1 REVERT JUMPDEST POP CALLVALUE PUSH2 0x4F0 JUMPI PUSH1 0x20 CALLDATASIZE PUSH1 0x3 NOT ADD SLT PUSH2 0x4F0 JUMPI PUSH1 0x20 SWAP1 PUSH1 0x40 SWAP1 PUSH1 0x1 PUSH1 0x1 PUSH1 0xA0 SHL SUB PUSH2 0x6C7 PUSH2 0x47E3 JUMP JUMPDEST AND DUP2 MSTORE DUP3 DUP1 MSTORE KECCAK256 SLOAD PUSH1 0x40 MLOAD SWAP1 DUP2 MSTORE RETURN JUMPDEST POP CALLVALUE PUSH2 0x4F0 JUMPI DUP1 PUSH1 0x3 NOT CALLDATASIZE ADD SLT PUSH2 0x4F0 JUMPI PUSH1 0x20 PUSH1 0x40 MLOAD PUSH5 0xE8D4A50FFF DUP2 MSTORE RETURN JUMPDEST POP CALLVALUE PUSH2 0x4F0 JUMPI PUSH1 0x20 CALLDATASIZE PUSH1 0x3 NOT ADD SLT PUSH2 0x4F0 JUMPI PUSH1 0x1 PUSH1 0x1 PUSH1 0xA0 SHL SUB PUSH2 0x719 PUSH2 0x47E3 JUMP JUMPDEST AND DUP2 MSTORE PUSH1 0x7 PUSH1 0x20 MSTORE PUSH1 0x40 DUP2 KECCAK256 PUSH1 0xC DUP2 ADD SLOAD SWAP1 PUSH1 0xD DUP2 ADD SLOAD SWAP1 PUSH1 0xE DUP2 ADD SLOAD PUSH1 0xF DUP3 ADD SLOAD PUSH1 0x10 DUP4 ADD SLOAD SWAP1 PUSH1 0xFF PUSH1 0x4 DUP6 ADD SLOAD PUSH1 0xA8 SHR AND PUSH1 0x6 DUP2 LT ISZERO PUSH2 0x795 JUMPI PUSH2 0x100 SWAP8 POP PUSH1 0x32 ADD SLOAD SWAP3 PUSH1 0x17 PUSH1 0x16 DUP7 ADD SLOAD SWAP6 ADD SLOAD SWAP6 PUSH1 0x40 MLOAD SWAP8 DUP9 MSTORE PUSH1 0x20 DUP9 ADD MSTORE PUSH1 0x40 DUP8 ADD MSTORE PUSH1 0x60 DUP7 ADD MSTORE PUSH1 0x80 DUP6 ADD MSTORE PUSH1 0xA0 DUP5 ADD MSTORE PUSH1 0xC0 DUP4 ADD MSTORE PUSH1 0xE0 DUP3 ADD MSTORE RETURN JUMPDEST PUSH4 0x4E487B71 PUSH1 0xE0 SHL DUP9 MSTORE PUSH1 0x21 PUSH1 0x4 MSTORE PUSH1 0x24 DUP9 REVERT JUMPDEST POP CALLVALUE PUSH2 0x4F0 JUMPI PUSH1 0x20 CALLDATASIZE PUSH1 0x3 NOT ADD SLT PUSH2 0x4F0 JUMPI PUSH1 0x40 PUSH1 0x20 SWAP2 PUSH1 0x4 CALLDATALOAD DUP2 MSTORE PUSH1 0x13 DUP4 MSTORE KECCAK256 SLOAD PUSH1 0x40 MLOAD SWAP1 DUP2 MSTORE RETURN JUMPDEST POP CALLVALUE PUSH2 0x4F0 JUMPI PUSH1 0x20 CALLDATASIZE PUSH1 0x3 NOT ADD SLT PUSH2 0x4F0 JUMPI PUSH2 0x7ED PUSH2 0x47E3 JUMP JUMPDEST PUSH2 0x7F5 PUSH2 0x4B7E JUMP JUMPDEST PUSH1 0x1 PUSH1 0x1 PUSH1 0xA0 SHL SUB SWAP1 DUP2 AND SWAP1 PUSH2 0x80C DUP3 ISZERO ISZERO PUSH2 0x5F24 JUMP JUMPDEST PUSH1 0x3 SLOAD DUP3 PUSH1 0x1 PUSH1 0x1 PUSH1 0x60 SHL SUB PUSH1 0xA0 SHL DUP3 AND OR PUSH1 0x3 SSTORE AND PUSH32 0xAAEBCF1BFA00580E41D966056B48521FA9F202645C86D4DDF28113E617C1B1D3 DUP4 DUP1 LOG3 DUP1 RETURN JUMPDEST POP CALLVALUE PUSH2 0x4F0 JUMPI PUSH1 0x20 CALLDATASIZE PUSH1 0x3 NOT ADD SLT PUSH2 0x4F0 JUMPI PUSH1 0x4 CALLDATALOAD PUSH1 0x6 DUP2 LT ISZERO PUSH2 0x876 JUMPI PUSH1 0x20 SWAP1 PUSH1 0x26 ADD SLOAD PUSH1 0x40 MLOAD SWAP1 DUP2 MSTORE RETURN JUMPDEST POP DUP1 REVERT JUMPDEST POP CALLVALUE PUSH2 0x4F0 JUMPI DUP1 PUSH1 0x3 NOT CALLDATASIZE ADD SLT PUSH2 0x4F0 JUMPI PUSH1 0x20 PUSH2 0x895 PUSH2 0x5F84 JUMP JUMPDEST PUSH1 0x40 MLOAD SWAP1 DUP2 MSTORE RETURN JUMPDEST POP CALLVALUE PUSH2 0x4F0 JUMPI DUP1 PUSH1 0x3 NOT CALLDATASIZE ADD SLT PUSH2 0x4F0 JUMPI PUSH2 0x8B6 PUSH2 0x5211 JUMP JUMPDEST PUSH2 0x8BE PUSH2 0x4D4C JUMP JUMPDEST CALLER PUSH1 0x0 MSTORE PUSH1 0x20 PUSH1 0x8 DUP2 MSTORE PUSH2 0x8D9 PUSH1 0xFF PUSH1 0x40 PUSH1 0x0 KECCAK256 SLOAD AND PUSH2 0x4F10 JUMP JUMPDEST CALLER PUSH1 0x0 MSTORE PUSH1 0x7 DUP2 MSTORE PUSH1 0x1 PUSH1 0xFF PUSH1 0x4 PUSH1 0x40 PUSH1 0x0 KECCAK256 ADD SLOAD PUSH1 0xB0 SHR AND PUSH2 0x8FB DUP2 PUSH2 0x49CA JUMP JUMPDEST EQ DUP1 ISZERO PUSH2 0xA05 JUMPI JUMPDEST PUSH2 0x90C SWAP1 PUSH2 0x54EE JUMP JUMPDEST PUSH1 0x16 SLOAD CALLER PUSH1 0x0 MSTORE PUSH1 0x12 DUP3 MSTORE DUP1 PUSH1 0x40 PUSH1 0x0 KECCAK256 SLOAD LT PUSH2 0x9B5 JUMPI SWAP1 PUSH2 0x995 SWAP2 CALLER PUSH1 0x0 MSTORE PUSH1 0x12 DUP3 MSTORE PUSH1 0x40 PUSH1 0x0 KECCAK256 PUSH2 0x940 DUP3 DUP3 SLOAD PUSH2 0x4D7C JUMP JUMPDEST SWAP1 SSTORE CALLER PUSH1 0x0 MSTORE DUP2 DUP1 MSTORE PUSH1 0x40 PUSH1 0x0 KECCAK256 PUSH2 0x958 DUP2 SLOAD PUSH2 0x4D3D JUMP JUMPDEST SWAP1 SSTORE CALLER PUSH1 0x0 MSTORE PUSH1 0xC DUP3 MSTORE PUSH1 0x40 PUSH1 0x0 KECCAK256 SWAP1 PUSH1 0x40 MLOAD SWAP3 PUSH2 0x975 DUP5 PUSH2 0x4A6B JUMP JUMPDEST PUSH1 0x8 DUP5 MSTORE DUP4 ADD MSTORE TIMESTAMP PUSH1 0x40 DUP4 ADD MSTORE PUSH1 0x0 PUSH1 0x60 DUP4 ADD MSTORE PUSH1 0x1 PUSH1 0x80 DUP4 ADD MSTORE PUSH2 0x5001 JUMP JUMPDEST PUSH2 0x9A0 PUSH1 0x1 CALLER PUSH2 0x5664 JUMP JUMPDEST PUSH1 0x1 PUSH1 0x0 DUP1 MLOAD PUSH1 0x20 PUSH2 0x5FC7 DUP4 CODECOPY DUP2 MLOAD SWAP2 MSTORE SSTORE DUP1 RETURN JUMPDEST PUSH1 0x40 MLOAD PUSH3 0x461BCD PUSH1 0xE5 SHL DUP2 MSTORE PUSH1 0x4 DUP2 ADD DUP4 SWAP1 MSTORE PUSH1 0x22 PUSH1 0x24 DUP3 ADD MSTORE PUSH32 0x4D4C4D3A20496E73756666696369656E742042544320706F6F6C2062616C616E PUSH1 0x44 DUP3 ADD MSTORE PUSH2 0x6365 PUSH1 0xF0 SHL PUSH1 0x64 DUP3 ADD MSTORE PUSH1 0x84 SWAP1 REVERT JUMPDEST POP CALLER PUSH1 0x0 MSTORE PUSH1 0x7 DUP2 MSTORE PUSH2 0x90C PUSH1 0x2 PUSH1 0xFF PUSH1 0x4 PUSH1 0x40 PUSH1 0x0 KECCAK256 ADD SLOAD PUSH1 0xB0 SHR AND PUSH2 0xA2B DUP2 PUSH2 0x49CA JUMP JUMPDEST EQ SWAP1 POP PUSH2 0x903 JUMP JUMPDEST POP CALLVALUE PUSH2 0x4F0 JUMPI DUP1 PUSH1 0x3 NOT CALLDATASIZE ADD SLT PUSH2 0x4F0 JUMPI PUSH1 0x20 PUSH1 0x40 MLOAD PUSH2 0x2710 DUP2 MSTORE RETURN JUMPDEST POP CALLVALUE PUSH2 0x4F0 JUMPI PUSH1 0x20 SWAP1 DUP2 PUSH1 0x3 NOT CALLDATASIZE ADD SLT PUSH2 0x4F0 JUMPI PUSH2 0xA6C PUSH2 0x47E3 JUMP JUMPDEST PUSH2 0xA74 PUSH2 0x4B7E JUMP JUMPDEST PUSH1 0x1 PUSH1 0x1 PUSH1 0xA0 SHL SUB AND DUP1 DUP3 MSTORE PUSH1 0x8 DUP4 MSTORE PUSH1 0x40 DUP3 KECCAK256 SLOAD PUSH2 0xA95 SWAP1 PUSH1 0xFF AND PUSH2 0x4F10 JUMP JUMPDEST DUP1 DUP3 MSTORE PUSH1 0x7 DUP4 MSTORE PUSH1 0x40 DUP3 KECCAK256 SWAP3 PUSH1 0x4 DUP5 ADD DUP1 SLOAD SWAP1 PUSH1 0x2 PUSH1 0xFF DUP4 PUSH1 0xB0 SHR AND PUSH2 0xABA DUP2 PUSH2 0x49CA JUMP JUMPDEST SUB PUSH2 0xB71 JUMPI PUSH1 0x13 DUP7 ADD SLOAD PUSH3 0x2A300 DUP2 ADD DUP1 SWAP2 GT PUSH2 0xB5D JUMPI TIMESTAMP GT ISZERO PUSH2 0xB18 JUMPI PUSH1 0x6 PUSH32 0x4769BC30C3E6F90ECFEF0F6E4760F65F2CC4AE6C67493463E3C9CAF3D2F863E9 SWAP5 SWAP6 SWAP7 ADD SWAP2 DUP7 DUP4 SLOAD SWAP4 SSTORE PUSH1 0xFF PUSH1 0xB0 SHL NOT AND SWAP1 SSTORE PUSH1 0x40 MLOAD SWAP1 DUP2 MSTORE LOG2 DUP1 RETURN JUMPDEST PUSH1 0x40 MLOAD PUSH3 0x461BCD PUSH1 0xE5 SHL DUP2 MSTORE PUSH1 0x4 DUP2 ADD DUP5 SWAP1 MSTORE PUSH1 0x1D PUSH1 0x24 DUP3 ADD MSTORE PUSH32 0x4D4C4D3A20477261636520706572696F64206E6F742065787069726564000000 PUSH1 0x44 DUP3 ADD MSTORE PUSH1 0x64 SWAP1 REVERT JUMPDEST PUSH4 0x4E487B71 PUSH1 0xE0 SHL DUP7 MSTORE PUSH1 0x11 PUSH1 0x4 MSTORE PUSH1 0x24 DUP7 REVERT JUMPDEST PUSH1 0x40 MLOAD PUSH3 0x461BCD PUSH1 0xE5 SHL DUP2 MSTORE PUSH1 0x4 DUP2 ADD DUP5 SWAP1 MSTORE PUSH1 0x18 PUSH1 0x24 DUP3 ADD MSTORE PUSH32 0x4D4C4D3A204E6F7420696E20677261636520706572696F640000000000000000 PUSH1 0x44 DUP3 ADD MSTORE PUSH1 0x64 SWAP1 REVERT JUMPDEST POP CALLVALUE PUSH2 0x4F0 JUMPI PUSH2 0xBE5 PUSH2 0xBD1 PUSH2 0xBCB CALLDATASIZE PUSH2 0x47F9 JUMP JUMPDEST SWAP2 PUSH2 0x5C50 JUMP JUMPDEST PUSH1 0x40 MLOAD SWAP3 DUP4 SWAP3 PUSH1 0x40 DUP5 MSTORE PUSH1 0x40 DUP5 ADD SWAP1 PUSH2 0x4857 JUMP JUMPDEST SWAP1 PUSH1 0x20 DUP4 ADD MSTORE SUB SWAP1 RETURN JUMPDEST POP CALLVALUE PUSH2 0x4F0 JUMPI PUSH1 0x20 CALLDATASIZE PUSH1 0x3 NOT ADD SLT PUSH2 0x4F0 JUMPI PUSH1 0x20 SWAP1 PUSH1 0x40 SWAP1 PUSH1 0x1 PUSH1 0x1 PUSH1 0xA0 SHL SUB PUSH2 0xC17 PUSH2 0x47E3 JUMP JUMPDEST AND DUP2 MSTORE PUSH1 0xC DUP4 MSTORE KECCAK256 SLOAD PUSH1 0x40 MLOAD SWAP1 DUP2 MSTORE RETURN JUMPDEST POP CALLVALUE PUSH2 0x4F0 JUMPI DUP1 PUSH1 0x3 NOT CALLDATASIZE ADD SLT PUSH2 0x4F0 JUMPI PUSH2 0xC41 PUSH2 0x5211 JUMP JUMPDEST PUSH2 0xC49 PUSH2 0x4D4C JUMP JUMPDEST CALLER DUP2 MSTORE PUSH1 0x20 SWAP1 PUSH1 0x8 DUP3 MSTORE PUSH2 0xC63 PUSH1 0xFF PUSH1 0x40 DUP4 KECCAK256 SLOAD AND PUSH2 0x4F10 JUMP JUMPDEST CALLER DUP2 MSTORE PUSH1 0x7 DUP3 MSTORE PUSH1 0x40 DUP2 KECCAK256 SWAP2 PUSH1 0x4 DUP4 ADD SWAP1 DUP2 SLOAD PUSH1 0xFF DUP2 PUSH1 0xB0 SHR AND PUSH2 0xC86 DUP2 PUSH2 0x49CA JUMP JUMPDEST DUP1 ISZERO SWAP1 DUP2 ISZERO PUSH2 0xE97 JUMPI JUMPDEST POP ISZERO PUSH2 0xE5A JUMPI PUSH1 0xA8 SHR PUSH1 0xFF AND PUSH1 0x6 DUP2 LT ISZERO PUSH2 0x591 JUMPI PUSH1 0x1 DUP2 LT PUSH2 0xE15 JUMPI PUSH1 0x26 ADD SLOAD SWAP2 PUSH1 0x1 DUP1 PUSH1 0xA0 SHL SUB SWAP5 PUSH2 0xCCC DUP5 DUP8 PUSH1 0x1 SLOAD AND ADDRESS SWAP1 CALLER SWAP1 PUSH2 0x51A4 JUMP JUMPDEST DUP5 PUSH1 0x10 PUSH1 0x1 PUSH1 0xB0 SHL PUSH1 0xFF PUSH1 0xB0 SHL NOT DUP6 SLOAD AND OR SWAP3 DUP4 DUP6 SSTORE DUP3 PUSH1 0xB DUP3 ADD SSTORE DUP3 PUSH1 0x6 DUP3 ADD SSTORE DUP3 PUSH1 0x13 DUP3 ADD SSTORE ADD SSTORE CALLER DUP6 MSTORE PUSH1 0xC DUP4 MSTORE PUSH1 0xFF PUSH1 0x40 DUP7 KECCAK256 SWAP2 PUSH1 0xA8 SHR AND SWAP1 PUSH1 0x6 DUP3 LT ISZERO PUSH2 0xE01 JUMPI SWAP2 PUSH2 0xD46 PUSH1 0xFF SWAP3 DUP7 SWAP5 PUSH1 0x40 MLOAD SWAP2 PUSH2 0xD28 DUP4 PUSH2 0x4A6B JUMP JUMPDEST DUP10 DUP4 MSTORE DUP7 DUP9 DUP5 ADD MSTORE TIMESTAMP PUSH1 0x40 DUP5 ADD MSTORE DUP10 PUSH1 0x60 DUP5 ADD MSTORE PUSH1 0x80 DUP4 ADD MSTORE PUSH2 0x5001 JUMP JUMPDEST SLOAD PUSH1 0xA8 SHR AND SWAP2 PUSH2 0xD59 PUSH1 0x40 MLOAD DUP1 SWAP5 PUSH2 0x49EA JUMP JUMPDEST DUP3 ADD MSTORE PUSH32 0xF71A293B26BE95A1C2120E73A1712C62B20F254AE47EFF7F6E799402984E6AB PUSH1 0x40 CALLER SWAP3 LOG2 PUSH2 0x1770 SWAP3 DUP4 DUP3 MUL SWAP4 DUP3 DUP6 DIV EQ DUP3 ISZERO OR ISZERO PUSH2 0xDED JUMPI PUSH2 0xDA9 PUSH2 0x2710 PUSH2 0x9A0 SWAP5 SWAP6 DIV DUP1 SWAP4 PUSH2 0x4D7C JUMP JUMPDEST DUP2 PUSH1 0x4 SLOAD AND DUP1 ISZERO ISZERO DUP1 PUSH2 0xDE4 JUMPI JUMPDEST PUSH2 0xDCF JUMPI JUMPDEST POP POP POP PUSH2 0xDC9 DUP2 CALLER PUSH2 0x5241 JUMP JUMPDEST CALLER PUSH2 0x536C JUMP JUMPDEST PUSH2 0xDDC SWAP3 PUSH1 0x1 SLOAD AND PUSH2 0x5123 JUMP JUMPDEST CODESIZE DUP1 DUP1 PUSH2 0xDBC JUMP JUMPDEST POP DUP2 ISZERO ISZERO PUSH2 0xDB7 JUMP JUMPDEST PUSH4 0x4E487B71 PUSH1 0xE0 SHL DUP4 MSTORE PUSH1 0x11 PUSH1 0x4 MSTORE PUSH1 0x24 DUP4 REVERT JUMPDEST PUSH4 0x4E487B71 PUSH1 0xE0 SHL DUP7 MSTORE PUSH1 0x21 PUSH1 0x4 MSTORE PUSH1 0x24 DUP7 REVERT JUMPDEST PUSH1 0x40 MLOAD PUSH3 0x461BCD PUSH1 0xE5 SHL DUP2 MSTORE PUSH1 0x4 DUP2 ADD DUP4 SWAP1 MSTORE PUSH1 0x1D PUSH1 0x24 DUP3 ADD MSTORE PUSH32 0x4D4C4D3A204E6F207061636B61676520746F2072657075726368617365000000 PUSH1 0x44 DUP3 ADD MSTORE PUSH1 0x64 SWAP1 REVERT JUMPDEST PUSH1 0x40 MLOAD PUSH3 0x461BCD PUSH1 0xE5 SHL DUP2 MSTORE PUSH1 0x4 DUP2 ADD DUP4 SWAP1 MSTORE PUSH1 0x15 PUSH1 0x24 DUP3 ADD MSTORE PUSH21 0x4D4C4D3A204D75737420626520696E616374697665 PUSH1 0x58 SHL PUSH1 0x44 DUP3 ADD MSTORE PUSH1 0x64 SWAP1 REVERT JUMPDEST PUSH1 0x2 SWAP2 POP PUSH2 0xEA4 DUP2 PUSH2 0x49CA JUMP JUMPDEST EQ CODESIZE PUSH2 0xC90 JUMP JUMPDEST POP CALLVALUE PUSH2 0x4F0 JUMPI PUSH2 0xEE7 PUSH1 0x60 SWAP2 PUSH1 0x40 PUSH2 0xEC2 CALLDATASIZE PUSH2 0x496A JUMP JUMPDEST SWAP3 SWAP1 DUP1 DUP3 MSTORE PUSH1 0x13 PUSH1 0x20 MSTORE PUSH2 0xEDA DUP4 DUP4 KECCAK256 SLOAD DUP6 LT PUSH2 0x5D04 JUMP JUMPDEST DUP2 MSTORE PUSH1 0x13 PUSH1 0x20 MSTORE KECCAK256 PUSH2 0x55E3 JUMP JUMPDEST POP PUSH1 0x1 DUP1 PUSH1 0xA0 SHL SUB DUP2 SLOAD AND SWAP1 PUSH1 0xFF PUSH1 0x2 PUSH1 0x1 DUP4 ADD SLOAD SWAP3 ADD SLOAD AND SWAP1 PUSH1 0x40 MLOAD SWAP3 DUP4 MSTORE PUSH1 0x20 DUP4 ADD MSTORE ISZERO ISZERO PUSH1 0x40 DUP3 ADD MSTORE RETURN JUMPDEST POP CALLVALUE PUSH2 0x4F0 JUMPI DUP1 PUSH1 0x3 NOT CALLDATASIZE ADD SLT PUSH2 0x4F0 JUMPI PUSH1 0x22 SLOAD PUSH1 0x40 MLOAD PUSH1 0x1 PUSH1 0x1 PUSH1 0xA0 SHL SUB SWAP1 SWAP2 AND DUP2 MSTORE PUSH1 0x20 SWAP1 RETURN JUMPDEST POP CALLVALUE PUSH2 0x4F0 JUMPI PUSH1 0x20 CALLDATASIZE PUSH1 0x3 NOT ADD SLT PUSH2 0x4F0 JUMPI PUSH2 0xF58 PUSH2 0x47E3 JUMP JUMPDEST PUSH2 0xF60 PUSH2 0x4B7E JUMP JUMPDEST PUSH1 0x1 PUSH1 0x1 PUSH1 0xA0 SHL SUB SWAP1 DUP2 AND SWAP1 PUSH2 0xF77 DUP3 ISZERO ISZERO PUSH2 0x5F24 JUMP JUMPDEST PUSH1 0x21 SLOAD DUP3 PUSH1 0x1 PUSH1 0x1 PUSH1 0x60 SHL SUB PUSH1 0xA0 SHL DUP3 AND OR PUSH1 0x21 SSTORE AND PUSH32 0xA7C779D548C89203218D67C4EDAD36548C004C80BE74E26B2CBB667625B2EE1B DUP4 DUP1 LOG3 DUP1 RETURN JUMPDEST POP CALLVALUE PUSH2 0x4F0 JUMPI PUSH1 0x20 DUP1 PUSH1 0x3 NOT CALLDATASIZE ADD SLT PUSH2 0x876 JUMPI PUSH1 0x1 PUSH1 0x1 PUSH1 0xA0 SHL SUB SWAP2 DUP3 PUSH2 0xFD9 PUSH2 0x47E3 JUMP JUMPDEST AND DUP2 MSTORE PUSH1 0xA DUP3 MSTORE PUSH1 0x40 DUP2 KECCAK256 SWAP3 PUSH1 0x40 MLOAD SWAP4 DUP5 DUP6 SWAP3 DUP6 DUP4 SLOAD SWAP3 DUP4 DUP2 MSTORE ADD SWAP3 DUP6 MSTORE DUP6 DUP6 KECCAK256 SWAP5 SWAP1 JUMPDEST DUP7 DUP4 DUP4 LT PUSH2 0x102B JUMPI DUP6 SWAP1 PUSH2 0x1013 DUP3 DUP8 SUB DUP4 PUSH2 0x4AB7 JUMP JUMPDEST PUSH2 0x1027 PUSH1 0x40 MLOAD SWAP3 DUP3 DUP5 SWAP4 DUP5 MSTORE DUP4 ADD SWAP1 PUSH2 0x4857 JUMP JUMPDEST SUB SWAP1 RETURN JUMPDEST DUP7 SLOAD DUP3 AND DUP6 MSTORE PUSH1 0x1 SWAP7 DUP8 ADD SWAP7 DUP10 SWAP7 POP SWAP5 ADD SWAP4 SWAP2 SWAP1 SWAP2 ADD SWAP1 PUSH2 0xFFD JUMP JUMPDEST POP CALLVALUE PUSH2 0x4F0 JUMPI DUP1 PUSH1 0x3 NOT CALLDATASIZE ADD SLT PUSH2 0x4F0 JUMPI PUSH1 0x24 SLOAD PUSH1 0x40 MLOAD PUSH1 0x1 PUSH1 0x1 PUSH1 0xA0 SHL SUB SWAP1 SWAP2 AND DUP2 MSTORE PUSH1 0x20 SWAP1 RETURN JUMPDEST POP CALLVALUE PUSH2 0x4F0 JUMPI PUSH1 0x20 DUP1 PUSH1 0x3 NOT CALLDATASIZE ADD SLT PUSH2 0x876 JUMPI PUSH1 0x4 CALLDATALOAD SWAP1 PUSH1 0x1 PUSH1 0x1 PUSH1 0x40 SHL SUB SWAP1 DUP2 DUP4 GT PUSH2 0x11CE JUMPI CALLDATASIZE PUSH1 0x23 DUP5 ADD SLT ISZERO PUSH2 0x11CE JUMPI DUP3 PUSH1 0x4 ADD CALLDATALOAD SWAP2 DUP3 GT PUSH2 0x11CE JUMPI PUSH1 0x24 SWAP3 PUSH1 0x5 CALLDATASIZE DUP6 DUP6 DUP4 SHL DUP5 ADD ADD GT PUSH2 0x11CA JUMPI PUSH2 0x10C8 PUSH2 0x4B7E JUMP JUMPDEST DUP6 JUMPDEST DUP5 DUP2 LT PUSH2 0x10D5 JUMPI DUP7 DUP1 RETURN JUMPDEST DUP1 DUP3 SHL DUP4 ADD DUP7 ADD CALLDATALOAD PUSH1 0x1 PUSH1 0x1 PUSH1 0xA0 SHL SUB DUP2 AND SWAP1 DUP2 SWAP1 SUB PUSH2 0x11C6 JUMPI DUP1 DUP9 MSTORE PUSH1 0x8 DUP6 MSTORE PUSH1 0xFF DUP1 PUSH1 0x40 DUP11 KECCAK256 SLOAD AND ISZERO PUSH2 0x11BB JUMPI PUSH1 0x7 DUP7 MSTORE PUSH1 0x40 DUP10 KECCAK256 SWAP1 PUSH1 0x4 DUP3 ADD PUSH1 0x2 DUP2 SLOAD SWAP3 DUP4 PUSH1 0xB0 SHR AND PUSH2 0x1124 DUP2 PUSH2 0x49CA JUMP JUMPDEST SUB PUSH2 0x11AE JUMPI PUSH1 0x13 DUP4 ADD SLOAD PUSH3 0x2A300 DUP2 ADD DUP1 SWAP2 GT PUSH2 0x119B JUMPI SWAP2 DUP9 SWAP2 PUSH2 0x118C SWAP7 SWAP6 SWAP5 SWAP4 TIMESTAMP GT ISZERO PUSH2 0x1191 JUMPI PUSH1 0x6 PUSH32 0x4769BC30C3E6F90ECFEF0F6E4760F65F2CC4AE6C67493463E3C9CAF3D2F863E9 SWAP5 ADD SWAP2 DUP14 DUP4 SLOAD SWAP4 SSTORE PUSH1 0xFF PUSH1 0xB0 SHL NOT AND SWAP1 SSTORE PUSH1 0x40 MLOAD SWAP1 DUP2 MSTORE LOG2 PUSH2 0x4D3D JUMP JUMPDEST PUSH2 0x10CA JUMP JUMPDEST POP POP POP POP POP PUSH2 0x4D3D JUMP JUMPDEST PUSH4 0x4E487B71 PUSH1 0xE0 SHL DUP13 MSTORE PUSH1 0x11 PUSH1 0x4 MSTORE DUP11 DUP13 REVERT JUMPDEST POP POP POP POP PUSH2 0x118C SWAP1 PUSH2 0x4D3D JUMP JUMPDEST POP POP PUSH2 0x118C SWAP1 PUSH2 0x4D3D JUMP JUMPDEST DUP8 DUP1 REVERT JUMPDEST DUP6 DUP1 REVERT JUMPDEST DUP4 DUP1 REVERT JUMPDEST POP CALLVALUE PUSH2 0x4F0 JUMPI PUSH1 0x20 CALLDATASIZE PUSH1 0x3 NOT ADD SLT PUSH2 0x4F0 JUMPI PUSH1 0x20 SWAP1 PUSH1 0xFF SWAP1 PUSH1 0x40 SWAP1 PUSH1 0x1 PUSH1 0x1 PUSH1 0xA0 SHL SUB PUSH2 0x11FD PUSH2 0x47E3 JUMP JUMPDEST AND DUP2 MSTORE PUSH1 0x8 DUP5 MSTORE KECCAK256 SLOAD AND PUSH1 0x40 MLOAD SWAP1 ISZERO ISZERO DUP2 MSTORE RETURN JUMPDEST POP CALLVALUE PUSH2 0x4F0 JUMPI DUP1 PUSH1 0x3 NOT CALLDATASIZE ADD SLT PUSH2 0x4F0 JUMPI PUSH1 0x2 SLOAD PUSH1 0x40 MLOAD PUSH1 0x1 PUSH1 0x1 PUSH1 0xA0 SHL SUB SWAP1 SWAP2 AND DUP2 MSTORE PUSH1 0x20 SWAP1 RETURN JUMPDEST POP CALLVALUE PUSH2 0x4F0 JUMPI PUSH1 0x60 CALLDATASIZE PUSH1 0x3 NOT ADD SLT PUSH2 0x4F0 JUMPI PUSH1 0x44 CALLDATALOAD PUSH1 0x24 CALLDATALOAD DUP2 ISZERO ISZERO DUP3 SUB PUSH2 0x14F2 JUMPI PUSH2 0x1263 PUSH2 0x4D4C JUMP JUMPDEST CALLER DUP4 MSTORE PUSH1 0x20 SWAP2 PUSH1 0x8 DUP4 MSTORE PUSH2 0x127E PUSH1 0xFF PUSH1 0x40 DUP7 KECCAK256 SLOAD AND ISZERO PUSH2 0x4BAA JUMP JUMPDEST PUSH1 0xB SLOAD PUSH2 0x1447 JUMPI POP POP DUP2 DUP3 SWAP2 DUP4 JUMPDEST PUSH2 0x1294 PUSH2 0x4D89 JUMP JUMPDEST SWAP2 DUP3 DUP7 MSTORE PUSH1 0x10 DUP2 MSTORE PUSH1 0x40 DUP7 KECCAK256 PUSH1 0xFF NOT SWAP1 PUSH1 0x1 DUP3 DUP3 SLOAD AND OR SWAP1 SSTORE PUSH1 0xF DUP3 MSTORE PUSH1 0x40 DUP8 KECCAK256 PUSH1 0x1 PUSH1 0x1 PUSH1 0x60 SHL SUB PUSH1 0xA0 SHL SWAP1 CALLER DUP3 DUP3 SLOAD AND OR SWAP1 SSTORE CALLER DUP9 MSTORE PUSH1 0x7 DUP4 MSTORE PUSH1 0x40 DUP9 KECCAK256 DUP6 DUP2 SSTORE PUSH1 0x1 DUP2 ADD SWAP7 PUSH1 0x1 DUP1 PUSH1 0xA0 SHL SUB DUP1 SWAP2 AND SWAP8 DUP9 DUP5 DUP3 SLOAD AND OR SWAP1 SSTORE PUSH1 0x2 DUP3 ADD SWAP9 AND SWAP8 DUP9 DUP4 DUP3 SLOAD AND OR SWAP1 SSTORE PUSH1 0x4 DUP2 ADD PUSH2 0x130C DUP7 DUP3 PUSH2 0x4C8E JUMP JUMPDEST DUP1 SLOAD PUSH1 0xFF PUSH1 0xB0 SHL NOT AND SWAP1 SSTORE TIMESTAMP PUSH1 0x14 DUP3 ADD SSTORE DUP8 ISZERO DUP1 ISZERO SWAP2 SWAP1 PUSH2 0x143E JUMPI DUP9 DUP11 MSTORE PUSH1 0x7 DUP6 MSTORE PUSH1 0x17 PUSH1 0x40 DUP12 KECCAK256 ADD SLOAD PUSH1 0x1 DUP2 ADD DUP1 SWAP2 GT PUSH2 0x142A JUMPI PUSH1 0x17 SWAP1 SWAP2 JUMPDEST ADD SSTORE PUSH2 0x13DF JUMPI JUMPDEST POP DUP5 PUSH2 0x13AC JUMPI JUMPDEST CALLER DUP8 MSTORE PUSH1 0x8 DUP3 MSTORE PUSH1 0x1 PUSH1 0x40 DUP9 KECCAK256 SWAP2 DUP3 SLOAD AND OR SWAP1 SSTORE PUSH2 0x1371 CALLER PUSH2 0x4CE3 JUMP JUMPDEST PUSH1 0x40 MLOAD SWAP3 DUP4 MSTORE PUSH2 0x1380 DUP3 PUSH2 0x49CA JUMP JUMPDEST DUP3 ADD MSTORE PUSH32 0xE22A39F862558EB01C2A26EB38C7D884B499221D9A5989F637529BD3E77FD679 PUSH1 0x40 CALLER SWAP3 LOG4 DUP1 RETURN JUMPDEST DUP5 DUP8 MSTORE PUSH1 0xA DUP3 MSTORE PUSH2 0x13C0 CALLER PUSH1 0x40 DUP10 KECCAK256 PUSH2 0x4D20 JUMP JUMPDEST DUP5 DUP8 MSTORE PUSH1 0x7 DUP3 MSTORE PUSH1 0x12 PUSH1 0x40 DUP9 KECCAK256 ADD PUSH2 0x13D8 DUP2 SLOAD PUSH2 0x4D3D JUMP JUMPDEST SWAP1 SSTORE PUSH2 0x1354 JUMP JUMPDEST PUSH2 0x13E8 DUP5 PUSH2 0x49CA JUMP JUMPDEST PUSH1 0x1 DUP5 SUB PUSH2 0x140E JUMPI DUP7 DUP9 MSTORE PUSH1 0x7 DUP4 MSTORE PUSH1 0x3 PUSH1 0x40 DUP10 KECCAK256 ADD SWAP1 CALLER SWAP1 DUP3 SLOAD AND OR SWAP1 SSTORE JUMPDEST CODESIZE PUSH2 0x134D JUMP JUMPDEST DUP7 DUP9 MSTORE PUSH1 0x7 DUP4 MSTORE PUSH1 0x4 PUSH1 0x40 DUP10 KECCAK256 ADD SWAP1 CALLER SWAP1 DUP3 SLOAD AND OR SWAP1 SSTORE PUSH2 0x1408 JUMP JUMPDEST PUSH4 0x4E487B71 PUSH1 0xE0 SHL DUP12 MSTORE PUSH1 0x11 PUSH1 0x4 MSTORE PUSH1 0x24 DUP12 REVERT JUMPDEST PUSH1 0x17 DUP11 SWAP2 PUSH2 0x1346 JUMP JUMPDEST PUSH1 0x4 CALLDATALOAD DUP5 MSTORE PUSH1 0xF DUP4 MSTORE PUSH1 0x40 DUP5 KECCAK256 SLOAD PUSH1 0x1 PUSH1 0x1 PUSH1 0xA0 SHL SUB SWAP1 DUP2 AND SWAP3 DUP4 ISZERO ISZERO DUP1 PUSH2 0x14DD JUMPI JUMPDEST PUSH2 0x1473 SWAP1 PUSH2 0x4BF6 JUMP JUMPDEST DUP1 PUSH2 0x14A4 JUMPI POP POP DUP2 SWAP1 JUMPDEST ISZERO PUSH2 0x1493 JUMPI PUSH2 0x148B SWAP1 PUSH2 0x4EE4 JUMP JUMPDEST SWAP2 PUSH1 0x1 PUSH2 0x128C JUMP JUMPDEST PUSH2 0x149C SWAP1 PUSH2 0x4EB3 JUMP JUMPDEST SWAP2 PUSH1 0x2 PUSH2 0x128C JUMP JUMPDEST DUP6 MSTORE PUSH1 0xF DUP5 MSTORE PUSH1 0x40 DUP6 KECCAK256 SLOAD AND SWAP1 DUP2 ISZERO ISZERO DUP1 PUSH2 0x14C8 JUMPI JUMPDEST PUSH2 0x14C3 SWAP1 PUSH2 0x4C42 JUMP JUMPDEST PUSH2 0x147D JUMP JUMPDEST POP DUP2 DUP6 MSTORE PUSH1 0x8 DUP5 MSTORE PUSH1 0x40 DUP6 KECCAK256 SLOAD PUSH1 0xFF AND PUSH2 0x14BA JUMP JUMPDEST POP DUP4 DUP7 MSTORE PUSH1 0x8 DUP6 MSTORE PUSH1 0x40 DUP7 KECCAK256 SLOAD PUSH1 0xFF AND PUSH2 0x146A JUMP JUMPDEST PUSH1 0x0 DUP1 REVERT JUMPDEST POP CALLVALUE PUSH2 0x4F0 JUMPI PUSH1 0x20 CALLDATASIZE PUSH1 0x3 NOT ADD SLT PUSH2 0x4F0 JUMPI PUSH1 0x1 PUSH1 0x1 PUSH1 0xA0 SHL SUB PUSH2 0x1519 PUSH2 0x47E3 JUMP JUMPDEST AND DUP2 MSTORE PUSH1 0x7 PUSH1 0x20 MSTORE PUSH1 0x40 DUP2 KECCAK256 PUSH1 0x7 DUP2 ADD SLOAD SWAP1 PUSH1 0x8 DUP2 ADD SLOAD SWAP1 PUSH1 0x9 DUP2 ADD SLOAD PUSH1 0xA DUP3 ADD SLOAD PUSH1 0xB DUP4 ADD SLOAD SWAP2 PUSH1 0xFF PUSH1 0x4 PUSH1 0x15 DUP7 ADD SLOAD SWAP6 ADD SLOAD PUSH1 0xA8 SHR AND PUSH1 0x6 DUP2 LT ISZERO PUSH2 0x795 JUMPI PUSH1 0xE0 SWAP8 POP PUSH1 0x38 ADD SLOAD SWAP5 PUSH1 0x40 MLOAD SWAP7 DUP8 MSTORE PUSH1 0x20 DUP8 ADD MSTORE PUSH1 0x40 DUP7 ADD MSTORE PUSH1 0x60 DUP6 ADD MSTORE PUSH1 0x80 DUP5 ADD MSTORE PUSH1 0xA0 DUP4 ADD MSTORE PUSH1 0xC0 DUP3 ADD MSTORE RETURN JUMPDEST POP CALLVALUE PUSH2 0x4F0 JUMPI DUP1 PUSH1 0x3 NOT CALLDATASIZE ADD SLT PUSH2 0x4F0 JUMPI PUSH1 0x20 PUSH1 0x40 MLOAD PUSH3 0x2A300 DUP2 MSTORE RETURN JUMPDEST POP CALLVALUE PUSH2 0x4F0 JUMPI PUSH1 0x20 CALLDATASIZE PUSH1 0x3 NOT ADD SLT PUSH2 0x4F0 JUMPI PUSH2 0x15C1 PUSH2 0x47E3 JUMP JUMPDEST PUSH2 0x15C9 PUSH2 0x4B7E JUMP JUMPDEST PUSH1 0x1 PUSH1 0x1 PUSH1 0xA0 SHL SUB SWAP1 DUP2 AND SWAP1 PUSH2 0x15E0 DUP3 ISZERO ISZERO PUSH2 0x5F24 JUMP JUMPDEST PUSH1 0x2 SLOAD DUP3 PUSH1 0x1 PUSH1 0x1 PUSH1 0x60 SHL SUB PUSH1 0xA0 SHL DUP3 AND OR PUSH1 0x2 SSTORE AND PUSH32 0xFA56BEAA7224E963963FC4C47C38A66D9813310693D7BB15814EA8E39B335184 DUP4 DUP1 LOG3 DUP1 RETURN JUMPDEST POP CALLVALUE PUSH2 0x4F0 JUMPI PUSH1 0x20 CALLDATASIZE PUSH1 0x3 NOT ADD SLT PUSH2 0x4F0 JUMPI PUSH1 0x4 CALLDATALOAD PUSH1 0x6 DUP2 LT ISZERO PUSH2 0x876 JUMPI PUSH1 0x20 SWAP1 PUSH1 0x44 ADD SLOAD PUSH1 0x40 MLOAD SWAP1 DUP2 MSTORE RETURN JUMPDEST PUSH2 0x4A14 JUMP JUMPDEST POP CALLVALUE PUSH2 0x4F0 JUMPI PUSH1 0x20 CALLDATASIZE PUSH1 0x3 NOT ADD SLT PUSH2 0x4F0 JUMPI PUSH1 0x20 SWAP1 PUSH1 0x4 CALLDATALOAD DUP2 MSTORE PUSH1 0xF DUP3 MSTORE PUSH1 0x40 PUSH1 0x1 DUP1 PUSH1 0xA0 SHL SUB SWAP2 KECCAK256 SLOAD AND PUSH1 0x40 MLOAD SWAP1 DUP2 MSTORE RETURN JUMPDEST POP CALLVALUE PUSH2 0x4F0 JUMPI DUP1 PUSH1 0x3 NOT CALLDATASIZE ADD SLT PUSH2 0x4F0 JUMPI PUSH1 0x20 PUSH1 0x40 MLOAD PUSH1 0xA DUP2 MSTORE RETURN JUMPDEST PUSH2 0x49F7 JUMP JUMPDEST POP CALLVALUE PUSH2 0x4F0 JUMPI PUSH1 0x20 CALLDATASIZE PUSH1 0x3 NOT ADD SLT PUSH2 0x4F0 JUMPI PUSH1 0x4 CALLDATALOAD PUSH2 0x16C0 PUSH2 0x4B7E JUMP JUMPDEST PUSH2 0x7D0 DUP2 GT PUSH2 0x1703 JUMPI PUSH1 0x40 PUSH32 0x72AA1EF4707DFA7DEFD1468E6FFC70BF9517CE19E3AFAD93FCF4BE42F2D494F5 SWAP2 PUSH1 0x5 SLOAD SWAP1 DUP1 PUSH1 0x5 SSTORE DUP3 MLOAD SWAP2 DUP3 MSTORE PUSH1 0x20 DUP3 ADD MSTORE LOG1 DUP1 RETURN JUMPDEST PUSH1 0x40 MLOAD PUSH3 0x461BCD PUSH1 0xE5 SHL DUP2 MSTORE PUSH1 0x20 PUSH1 0x4 DUP3 ADD MSTORE PUSH1 0x11 PUSH1 0x24 DUP3 ADD MSTORE PUSH17 0x9A989A74408CCACA40E8DEDE40D0D2CED PUSH1 0x7B SHL PUSH1 0x44 DUP3 ADD MSTORE PUSH1 0x64 SWAP1 REVERT JUMPDEST POP CALLVALUE PUSH2 0x4F0 JUMPI PUSH1 0x20 CALLDATASIZE PUSH1 0x3 NOT ADD SLT PUSH2 0x4F0 JUMPI PUSH1 0xF PUSH1 0xE PUSH1 0xD PUSH1 0xC PUSH1 0xB PUSH1 0xA PUSH1 0x9 PUSH1 0x8 PUSH1 0x7 PUSH1 0x6 PUSH1 0xFF PUSH1 0x5 PUSH1 0x4 PUSH2 0x1849 PUSH1 0x40 PUSH1 0x18 SWAP16 PUSH1 0x1 DUP1 PUSH1 0xA0 SHL SUB PUSH2 0x177F PUSH2 0x47E3 JUMP JUMPDEST AND DUP2 MSTORE DUP8 PUSH1 0x20 MSTORE KECCAK256 SWAP15 DUP16 SWAP15 DUP16 SWAP15 DUP16 SWAP15 DUP16 SWAP15 DUP16 SWAP15 DUP16 SWAP15 DUP16 SWAP15 DUP16 SWAP15 DUP16 SWAP15 DUP16 SWAP15 DUP16 SWAP14 DUP15 SWAP14 DUP15 DUP1 PUSH2 0x120 MSTORE DUP1 SLOAD PUSH2 0x280 MSTORE PUSH1 0x1 DUP1 DUP1 PUSH1 0xA0 SHL SUB SWAP2 ADD SLOAD AND SWAP15 PUSH1 0x1 DUP1 PUSH1 0xA0 SHL SUB PUSH1 0x2 DUP3 ADD SLOAD AND PUSH1 0xE0 MSTORE PUSH1 0x1 DUP1 PUSH1 0xA0 SHL SUB PUSH1 0x3 DUP3 ADD SLOAD AND PUSH2 0x260 MSTORE ADD SLOAD SWAP15 ADD SLOAD SWAP16 ADD SLOAD SWAP16 ADD SLOAD SWAP16 ADD SLOAD SWAP16 ADD SLOAD SWAP16 ADD SLOAD SWAP16 ADD SLOAD SWAP16 ADD SLOAD SWAP16 ADD SLOAD SWAP16 ADD SLOAD SWAP16 ADD SLOAD SWAP16 PUSH1 0x10 DUP2 ADD SLOAD PUSH2 0x1E0 MSTORE PUSH1 0x11 DUP2 ADD SLOAD PUSH2 0x1A0 MSTORE PUSH1 0x12 DUP2 ADD SLOAD PUSH2 0x180 MSTORE PUSH1 0x13 DUP2 ADD SLOAD PUSH1 0x80 MSTORE PUSH1 0x14 DUP2 ADD SLOAD PUSH1 0xA0 MSTORE PUSH1 0x15 DUP2 ADD SLOAD PUSH1 0xC0 MSTORE PUSH1 0x16 DUP2 ADD SLOAD PUSH2 0x240 MSTORE PUSH1 0x17 DUP2 ADD SLOAD PUSH2 0x140 MSTORE ADD PUSH2 0x4AD8 JUMP JUMPDEST PUSH2 0x220 MSTORE PUSH2 0x185C PUSH1 0x19 PUSH2 0x120 MLOAD ADD PUSH2 0x4AD8 JUMP JUMPDEST PUSH2 0x100 MSTORE PUSH2 0x186F PUSH1 0x1A PUSH2 0x120 MLOAD ADD PUSH2 0x4AD8 JUMP JUMPDEST PUSH2 0x1C0 MSTORE PUSH2 0x1882 PUSH1 0x1B PUSH2 0x120 MLOAD ADD PUSH2 0x4AD8 JUMP JUMPDEST PUSH2 0x2A0 MSTORE DUP3 PUSH1 0x1C PUSH2 0x120 MLOAD ADD SLOAD AND PUSH2 0x160 MSTORE PUSH1 0x40 MLOAD DUP1 PUSH2 0x200 MSTORE PUSH2 0x280 MLOAD SWAP1 MSTORE PUSH1 0x20 PUSH2 0x200 MLOAD ADD MSTORE PUSH1 0xE0 MLOAD PUSH1 0x40 PUSH2 0x200 MLOAD ADD MSTORE PUSH2 0x260 MLOAD PUSH1 0x60 PUSH2 0x200 MLOAD ADD MSTORE PUSH1 0x1 DUP1 PUSH1 0xA0 SHL SUB DUP2 AND PUSH1 0x80 PUSH2 0x200 MLOAD ADD MSTORE DUP2 DUP2 PUSH1 0xA0 SHR AND PUSH2 0x18E1 DUP2 PUSH2 0x49CA JUMP JUMPDEST PUSH1 0xA0 PUSH2 0x200 MLOAD ADD MSTORE PUSH2 0x18FE PUSH1 0xC0 PUSH2 0x200 MLOAD ADD DUP4 DUP4 PUSH1 0xA8 SHR AND PUSH2 0x49EA JUMP JUMPDEST PUSH1 0xB0 SHR AND PUSH2 0x190B DUP2 PUSH2 0x49CA JUMP JUMPDEST PUSH1 0xE0 PUSH2 0x200 MLOAD ADD MSTORE PUSH2 0x100 PUSH2 0x200 MLOAD ADD MSTORE PUSH2 0x120 PUSH2 0x200 MLOAD ADD MSTORE PUSH2 0x140 PUSH2 0x200 MLOAD ADD MSTORE PUSH2 0x160 PUSH2 0x200 MLOAD ADD MSTORE PUSH2 0x180 PUSH2 0x200 MLOAD ADD MSTORE PUSH2 0x1A0 PUSH2 0x200 MLOAD ADD MSTORE PUSH2 0x1C0 PUSH2 0x200 MLOAD ADD MSTORE PUSH2 0x1E0 PUSH2 0x200 MLOAD ADD MSTORE PUSH2 0x200 DUP1 MLOAD ADD MSTORE PUSH2 0x220 PUSH2 0x200 MLOAD ADD MSTORE PUSH2 0x240 PUSH2 0x200 MLOAD ADD MSTORE PUSH2 0x1E0 MLOAD PUSH2 0x260 PUSH2 0x200 MLOAD ADD MSTORE PUSH2 0x1A0 MLOAD PUSH2 0x280 PUSH2 0x200 MLOAD ADD MSTORE PUSH2 0x180 MLOAD PUSH2 0x2A0 PUSH2 0x200 MLOAD ADD MSTORE PUSH1 0x80 MLOAD PUSH2 0x2C0 PUSH2 0x200 MLOAD ADD MSTORE PUSH1 0xA0 MLOAD PUSH2 0x2E0 PUSH2 0x200 MLOAD ADD MSTORE PUSH1 0xC0 MLOAD PUSH2 0x300 PUSH2 0x200 MLOAD ADD MSTORE PUSH2 0x240 MLOAD PUSH2 0x320 PUSH2 0x200 MLOAD ADD MSTORE PUSH2 0x140 MLOAD PUSH2 0x340 PUSH2 0x200 MLOAD ADD MSTORE PUSH2 0x1A42 PUSH2 0x1A2C PUSH2 0x1A16 PUSH2 0x1A00 PUSH2 0x400 DUP1 PUSH2 0x360 PUSH2 0x200 MLOAD ADD MSTORE PUSH2 0x200 MLOAD ADD PUSH2 0x220 MLOAD PUSH2 0x48F9 JUMP JUMPDEST PUSH2 0x200 MLOAD PUSH2 0x380 DUP2 DUP4 SUB SWAP2 ADD MSTORE PUSH2 0x100 MLOAD PUSH2 0x48F9 JUMP JUMPDEST PUSH2 0x200 MLOAD PUSH2 0x3A0 DUP2 DUP4 SUB SWAP2 ADD MSTORE PUSH2 0x1C0 MLOAD PUSH2 0x48F9 JUMP JUMPDEST PUSH2 0x200 MLOAD PUSH2 0x3C0 DUP2 DUP4 SUB SWAP2 ADD MSTORE PUSH2 0x2A0 MLOAD PUSH2 0x48F9 JUMP JUMPDEST PUSH2 0x160 MLOAD ISZERO ISZERO PUSH2 0x3E0 PUSH2 0x200 MLOAD ADD MSTORE PUSH2 0x200 MLOAD DUP1 SWAP2 SUB SWAP1 RETURN JUMPDEST POP CALLVALUE PUSH2 0x4F0 JUMPI PUSH1 0x60 CALLDATASIZE PUSH1 0x3 NOT ADD SLT PUSH2 0x4F0 JUMPI PUSH2 0x1A75 PUSH2 0x47E3 JUMP JUMPDEST PUSH1 0x24 CALLDATALOAD PUSH1 0x1 PUSH1 0x1 PUSH1 0xA0 SHL SUB DUP2 DUP2 AND SWAP3 DUP4 DUP4 SUB PUSH2 0x14F2 JUMPI PUSH32 0x238062E33E7062C4AECCB2ACAC43AECC0B1A1CA891A5BC84A689F2272CB39A43 SWAP2 PUSH2 0x1AD4 PUSH1 0x20 SWAP3 PUSH1 0x44 CALLDATALOAD SWAP3 DUP4 SWAP2 PUSH2 0x1AC1 PUSH2 0x4B7E JUMP JUMPDEST PUSH2 0x1ACC DUP10 ISZERO ISZERO PUSH2 0x5F24 JUMP JUMPDEST AND SWAP6 DUP7 PUSH2 0x5123 JUMP JUMPDEST PUSH1 0x40 MLOAD SWAP1 DUP2 MSTORE LOG3 DUP1 RETURN JUMPDEST POP CALLVALUE PUSH2 0x4F0 JUMPI DUP1 PUSH1 0x3 NOT CALLDATASIZE ADD SLT PUSH2 0x4F0 JUMPI PUSH1 0x20 PUSH1 0x40 MLOAD PUSH2 0x7D0 DUP2 MSTORE RETURN JUMPDEST POP CALLVALUE PUSH2 0x4F0 JUMPI PUSH1 0x20 CALLDATASIZE PUSH1 0x3 NOT ADD SLT PUSH2 0x4F0 JUMPI PUSH1 0x4 CALLDATALOAD SWAP1 PUSH1 0xB SLOAD DUP3 LT ISZERO PUSH2 0x4F0 JUMPI PUSH1 0x20 PUSH2 0x4D7 DUP4 PUSH2 0x4894 JUMP JUMPDEST POP CALLVALUE PUSH2 0x4F0 JUMPI DUP1 PUSH1 0x3 NOT CALLDATASIZE ADD SLT PUSH2 0x4F0 JUMPI PUSH1 0x20 PUSH1 0xB SLOAD PUSH1 0x40 MLOAD SWAP1 DUP2 MSTORE RETURN JUMPDEST POP CALLVALUE PUSH2 0x4F0 JUMPI PUSH1 0x20 CALLDATASIZE PUSH1 0x3 NOT ADD SLT PUSH2 0x4F0 JUMPI PUSH2 0x1B5E PUSH2 0x47E3 JUMP JUMPDEST PUSH2 0x1B66 PUSH2 0x4B7E JUMP JUMPDEST PUSH1 0x1 PUSH1 0x1 PUSH1 0xA0 SHL SUB SWAP1 DUP2 AND SWAP1 PUSH2 0x1B7D DUP3 ISZERO ISZERO PUSH2 0x5F24 JUMP JUMPDEST PUSH1 0x4 SLOAD DUP3 PUSH1 0x1 PUSH1 0x1 PUSH1 0x60 SHL SUB PUSH1 0xA0 SHL DUP3 AND OR PUSH1 0x4 SSTORE AND PUSH32 0x21F871938092B6A1ED13C23A49AD1A6FA6867D23D64FA2091BC0AAA90846E7C3 DUP4 DUP1 LOG3 DUP1 RETURN JUMPDEST PUSH2 0x49AD JUMP JUMPDEST POP CALLVALUE PUSH2 0x4F0 JUMPI PUSH1 0x20 SWAP1 DUP2 PUSH1 0x3 NOT CALLDATASIZE ADD SLT PUSH2 0x4F0 JUMPI PUSH1 0x4 CALLDATALOAD SWAP1 PUSH1 0x6 DUP3 LT ISZERO PUSH2 0x4F0 JUMPI PUSH2 0x1BE8 PUSH2 0x5211 JUMP JUMPDEST PUSH2 0x1BF0 PUSH2 0x4D4C JUMP JUMPDEST CALLER DUP2 MSTORE PUSH1 0x8 DUP4 MSTORE PUSH2 0x1C07 PUSH1 0xFF PUSH1 0x40 DUP4 KECCAK256 SLOAD AND PUSH2 0x4F10 JUMP JUMPDEST CALLER DUP2 MSTORE PUSH1 0x7 DUP4 MSTORE PUSH1 0x40 DUP2 KECCAK256 SWAP2 PUSH1 0x4 DUP4 ADD SWAP3 DUP4 SLOAD PUSH1 0xFF DUP2 PUSH1 0xB0 SHR AND PUSH2 0x1C2A DUP2 PUSH2 0x49CA JUMP JUMPDEST PUSH1 0x2 DUP2 EQ SWAP1 DUP2 ISZERO PUSH2 0x1E9D JUMPI JUMPDEST POP ISZERO PUSH2 0x1E62 JUMPI PUSH1 0xFF SWAP1 PUSH2 0x1C4C PUSH1 0x1 DUP6 LT ISZERO PUSH2 0x4F52 JUMP JUMPDEST PUSH1 0xA8 SHR AND PUSH1 0x6 DUP2 LT ISZERO PUSH2 0x591 JUMPI DUP3 LT PUSH2 0x1E25 JUMPI DUP3 SWAP4 SWAP5 DUP3 PUSH1 0x26 ADD SLOAD SWAP4 DUP5 SWAP3 PUSH1 0x1 DUP1 PUSH1 0xA0 SHL SUB SWAP8 PUSH2 0x1C84 DUP6 DUP11 PUSH1 0x1 SLOAD AND ADDRESS SWAP1 CALLER SWAP1 PUSH2 0x51A4 JUMP JUMPDEST PUSH1 0x2 PUSH1 0xFF DUP3 SLOAD PUSH1 0xB0 SHR AND PUSH2 0x1C97 DUP2 PUSH2 0x49CA JUMP JUMPDEST EQ PUSH2 0x1D6D JUMPI JUMPDEST SWAP1 PUSH1 0x10 SWAP2 DUP4 PUSH1 0x6 DUP4 ADD SSTORE PUSH2 0x1CB1 DUP8 DUP3 PUSH2 0x4F95 JUMP JUMPDEST DUP1 SLOAD PUSH1 0xFF PUSH1 0xB0 SHL NOT AND PUSH1 0x1 PUSH1 0xB0 SHL OR SWAP1 SSTORE PUSH1 0xB DUP2 ADD DUP4 SWAP1 SSTORE PUSH1 0x13 DUP2 ADD DUP4 SWAP1 SSTORE ADD SSTORE CALLER DUP6 MSTORE PUSH1 0xC DUP2 MSTORE PUSH1 0x40 DUP1 DUP7 KECCAK256 SWAP1 MLOAD PUSH2 0x1D10 SWAP2 PUSH2 0x1CED DUP3 PUSH2 0x4A6B JUMP JUMPDEST PUSH1 0x2 DUP3 MSTORE DUP5 DUP5 DUP4 ADD MSTORE TIMESTAMP PUSH1 0x40 DUP4 ADD MSTORE DUP8 PUSH1 0x60 DUP4 ADD MSTORE PUSH1 0xFF DUP7 AND PUSH1 0x80 DUP4 ADD MSTORE PUSH2 0x5001 JUMP JUMPDEST PUSH2 0x1D1D PUSH1 0x40 MLOAD DUP1 SWAP5 PUSH2 0x49EA JUMP JUMPDEST DUP3 ADD MSTORE PUSH32 0xBD98106504D2095C105D0F8FD19C12FB6C359200DCCE844743A92DC040CB7B3 PUSH1 0x40 CALLER SWAP3 LOG2 PUSH2 0x1770 SWAP3 DUP4 DUP3 MUL SWAP4 DUP3 DUP6 DIV EQ DUP3 ISZERO OR ISZERO PUSH2 0xDED JUMPI PUSH2 0xDA9 PUSH2 0x2710 PUSH2 0x9A0 SWAP5 SWAP6 DIV DUP1 SWAP4 PUSH2 0x4D7C JUMP JUMPDEST SWAP2 POP SWAP2 SWAP3 POP PUSH1 0x13 DUP3 ADD SLOAD PUSH3 0x2A300 DUP2 ADD DUP1 SWAP2 GT PUSH2 0x1E11 JUMPI DUP6 SWAP4 SWAP3 DUP8 SWAP3 PUSH1 0x10 SWAP3 TIMESTAMP GT PUSH2 0x1DDC JUMPI PUSH1 0x6 DUP3 ADD SLOAD PUSH1 0x5 DUP4 ADD PUSH2 0x1DA6 DUP3 DUP3 SLOAD PUSH2 0x4CD6 JUMP JUMPDEST SWAP1 SSTORE PUSH1 0x40 MLOAD SWAP1 DUP2 MSTORE PUSH32 0xC0A2B7349514B2EE49057E2265DCF10BD91BE42A7F6A1144164DF1F0E303A8EB DUP7 CALLER SWAP3 LOG2 JUMPDEST SWAP1 SWAP2 POP PUSH2 0x1C9D JUMP JUMPDEST PUSH1 0x6 DUP3 ADD SLOAD PUSH1 0x40 MLOAD SWAP1 DUP2 MSTORE PUSH32 0x4769BC30C3E6F90ECFEF0F6E4760F65F2CC4AE6C67493463E3C9CAF3D2F863E9 DUP7 CALLER SWAP3 LOG2 PUSH2 0x1DD4 JUMP JUMPDEST PUSH4 0x4E487B71 PUSH1 0xE0 SHL DUP8 MSTORE PUSH1 0x11 PUSH1 0x4 MSTORE PUSH1 0x24 DUP8 REVERT JUMPDEST PUSH1 0x40 MLOAD PUSH3 0x461BCD PUSH1 0xE5 SHL DUP2 MSTORE PUSH1 0x4 DUP2 ADD DUP7 SWAP1 MSTORE PUSH1 0x15 PUSH1 0x24 DUP3 ADD MSTORE PUSH21 0x4D4C4D3A2043616E6E6F7420646F776E6772616465 PUSH1 0x58 SHL PUSH1 0x44 DUP3 ADD MSTORE PUSH1 0x64 SWAP1 REVERT JUMPDEST PUSH1 0x40 MLOAD PUSH3 0x461BCD PUSH1 0xE5 SHL DUP2 MSTORE PUSH1 0x4 DUP2 ADD DUP8 SWAP1 MSTORE PUSH1 0x13 PUSH1 0x24 DUP3 ADD MSTORE PUSH19 0x4D4C4D3A20416C726561647920616374697665 PUSH1 0x68 SHL PUSH1 0x44 DUP3 ADD MSTORE PUSH1 0x64 SWAP1 REVERT JUMPDEST SWAP1 POP PUSH2 0x1EA8 DUP2 PUSH2 0x49CA JUMP JUMPDEST ISZERO CODESIZE PUSH2 0x1C36 JUMP JUMPDEST POP CALLVALUE PUSH2 0x4F0 JUMPI PUSH2 0x1EBE CALLDATASIZE PUSH2 0x4939 JUMP JUMPDEST SWAP1 PUSH2 0x1EC7 PUSH2 0x4B7E JUMP JUMPDEST PUSH1 0x6 DUP2 LT ISZERO DUP1 PUSH2 0x591 JUMPI PUSH1 0x1 DUP3 LT ISZERO DUP1 PUSH2 0x1F25 JUMPI JUMPDEST PUSH2 0x1EE5 SWAP1 PUSH2 0x4F52 JUMP JUMPDEST PUSH2 0x56F JUMPI SWAP1 DUP2 PUSH2 0x569 PUSH32 0xBC78CC5DE16267F0116F5EF65EC3328F2F432BCA5E0F8B61E96B880E826D84DD SWAP4 PUSH1 0x38 ADD SWAP3 DUP1 DUP5 SLOAD SWAP5 SSTORE PUSH1 0x40 MLOAD SWAP4 DUP5 SWAP4 DUP5 PUSH2 0x5F67 JUMP JUMPDEST POP DUP4 SWAP1 POP PUSH1 0x5 DUP3 GT ISZERO PUSH2 0x1EDC JUMP JUMPDEST POP CALLVALUE PUSH2 0x4F0 JUMPI DUP1 PUSH1 0x3 NOT CALLDATASIZE ADD SLT PUSH2 0x4F0 JUMPI SLOAD PUSH1 0x40 MLOAD PUSH1 0x1 PUSH1 0x1 PUSH1 0xA0 SHL SUB SWAP1 SWAP2 AND DUP2 MSTORE PUSH1 0x20 SWAP1 RETURN JUMPDEST POP CALLVALUE PUSH2 0x4F0 JUMPI PUSH1 0x20 CALLDATASIZE PUSH1 0x3 NOT ADD SLT PUSH2 0x4F0 JUMPI PUSH1 0x4 CALLDATALOAD PUSH1 0x6 DUP2 LT ISZERO PUSH2 0x876 JUMPI PUSH1 0x20 SWAP1 PUSH1 0x38 ADD SLOAD PUSH1 0x40 MLOAD SWAP1 DUP2 MSTORE RETURN JUMPDEST POP CALLVALUE PUSH2 0x4F0 JUMPI DUP1 PUSH1 0x3 NOT CALLDATASIZE ADD SLT PUSH2 0x4F0 JUMPI PUSH1 0x20 PUSH1 0x5 SLOAD PUSH1 0x40 MLOAD SWAP1 DUP2 MSTORE RETURN JUMPDEST POP CALLVALUE PUSH2 0x4F0 JUMPI DUP1 PUSH1 0x3 NOT CALLDATASIZE ADD SLT PUSH2 0x4F0 JUMPI PUSH1 0x23 SLOAD PUSH1 0x40 MLOAD PUSH1 0x1 PUSH1 0x1 PUSH1 0xA0 SHL SUB SWAP1 SWAP2 AND DUP2 MSTORE PUSH1 0x20 SWAP1 RETURN JUMPDEST POP CALLVALUE PUSH2 0x4F0 JUMPI PUSH1 0x20 CALLDATASIZE PUSH1 0x3 NOT ADD SLT PUSH2 0x4F0 JUMPI PUSH1 0x4 CALLDATALOAD PUSH1 0x6 DUP2 LT ISZERO PUSH2 0x876 JUMPI PUSH1 0x20 SWAP1 PUSH1 0x3E ADD SLOAD PUSH1 0x40 MLOAD SWAP1 DUP2 MSTORE RETURN JUMPDEST POP CALLVALUE PUSH2 0x4F0 JUMPI DUP1 PUSH1 0x3 NOT CALLDATASIZE ADD SLT PUSH2 0x4F0 JUMPI PUSH2 0x2014 PUSH2 0x4B7E JUMP JUMPDEST PUSH2 0x201C PUSH2 0x4D4C JUMP JUMPDEST DUP1 SLOAD PUSH1 0xFF PUSH1 0xA0 SHL NOT AND PUSH1 0x1 PUSH1 0xA0 SHL OR DUP2 SSTORE PUSH1 0x40 MLOAD CALLER DUP2 MSTORE PUSH32 0x62E78CEA01BEE320CD4E420270B5EA74000D11B0C9F74754EBDBFC544B05A258 SWAP1 PUSH1 0x20 SWAP1 LOG1 DUP1 RETURN JUMPDEST POP CALLVALUE PUSH2 0x4F0 JUMPI PUSH1 0x20 CALLDATASIZE PUSH1 0x3 NOT ADD SLT PUSH2 0x4F0 JUMPI PUSH1 0x4 CALLDATALOAD DUP2 MSTORE PUSH1 0xF PUSH1 0x20 MSTORE PUSH1 0x40 SWAP1 KECCAK256 SLOAD PUSH1 0x1 PUSH1 0x1 PUSH1 0xA0 SHL SUB AND DUP1 ISZERO PUSH2 0x2097 JUMPI PUSH1 0x20 SWAP1 PUSH1 0x40 MLOAD SWAP1 DUP2 MSTORE RETURN JUMPDEST PUSH1 0x40 MLOAD PUSH3 0x461BCD PUSH1 0xE5 SHL DUP2 MSTORE PUSH1 0x20 PUSH1 0x4 DUP3 ADD MSTORE PUSH1 0x16 PUSH1 0x24 DUP3 ADD MSTORE PUSH22 0x1353134E88155CD95C881251081B9BDD08199BDD5B99 PUSH1 0x52 SHL PUSH1 0x44 DUP3 ADD MSTORE PUSH1 0x64 SWAP1 REVERT JUMPDEST POP CALLVALUE PUSH2 0x4F0 JUMPI PUSH1 0x20 CALLDATASIZE PUSH1 0x3 NOT ADD SLT PUSH2 0x4F0 JUMPI PUSH1 0x4 CALLDATALOAD PUSH2 0x20F2 PUSH2 0x4B7E JUMP JUMPDEST DUP1 ISZERO ISZERO DUP1 PUSH2 0x2177 JUMPI JUMPDEST ISZERO PUSH2 0x213A JUMPI PUSH1 0x40 PUSH32 0x885769BB3A0A33E49DC7C402B45290F14135AF0D201B7B78370457632240FBB1 SWAP2 PUSH1 0xE SLOAD SWAP1 DUP1 PUSH1 0xE SSTORE DUP3 MLOAD SWAP2 DUP3 MSTORE PUSH1 0x20 DUP3 ADD MSTORE LOG1 DUP1 RETURN JUMPDEST PUSH1 0x40 MLOAD PUSH3 0x461BCD PUSH1 0xE5 SHL DUP2 MSTORE PUSH1 0x20 PUSH1 0x4 DUP3 ADD MSTORE PUSH1 0x15 PUSH1 0x24 DUP3 ADD MSTORE PUSH21 0x4D4C4D3A2042617463682073697A6520312D35303 PUSH1 0x5C SHL PUSH1 0x44 DUP3 ADD MSTORE PUSH1 0x64 SWAP1 REVERT JUMPDEST POP PUSH2 0x1F4 DUP2 GT ISZERO PUSH2 0x20FB JUMP JUMPDEST POP CALLVALUE PUSH2 0x4F0 JUMPI DUP1 PUSH1 0x3 NOT CALLDATASIZE ADD SLT PUSH2 0x4F0 JUMPI PUSH2 0x219C PUSH2 0x4B7E JUMP JUMPDEST PUSH1 0x0 DUP1 SLOAD PUSH1 0x1 PUSH1 0x1 PUSH1 0xA0 SHL SUB NOT DUP2 AND DUP3 SSTORE PUSH1 0x1 PUSH1 0x1 PUSH1 0xA0 SHL SUB AND PUSH32 0x8BE0079C531659141344CD1FD0A4F28419497F9722A3DAAFE3B4186F6B6457E0 DUP3 DUP1 LOG3 DUP1 RETURN JUMPDEST POP CALLVALUE PUSH2 0x4F0 JUMPI DUP1 PUSH1 0x3 NOT CALLDATASIZE ADD SLT PUSH2 0x4F0 JUMPI PUSH1 0x1 SLOAD PUSH1 0x40 MLOAD PUSH4 0x70A08231 PUSH1 0xE0 SHL DUP2 MSTORE ADDRESS PUSH1 0x4 DUP3 ADD MSTORE SWAP1 PUSH1 0x20 SWAP1 DUP3 SWAP1 PUSH1 0x24 SWAP1 DUP3 SWAP1 PUSH1 0x1 PUSH1 0x1 PUSH1 0xA0 SHL SUB AND GAS STATICCALL SWAP1 DUP2 ISZERO PUSH2 0x2268 JUMPI DUP3 SWAP2 PUSH2 0x2233 JUMPI JUMPDEST PUSH1 0x20 DUP3 PUSH1 0x40 MLOAD SWAP1 DUP2 MSTORE RETURN JUMPDEST SWAP1 POP PUSH1 0x20 DUP2 RETURNDATASIZE DUP3 GT PUSH2 0x2260 JUMPI JUMPDEST DUP2 PUSH2 0x224D PUSH1 0x20 SWAP4 DUP4 PUSH2 0x4AB7 JUMP JUMPDEST DUP2 ADD SUB SLT PUSH2 0x876 JUMPI PUSH1 0x20 SWAP2 POP MLOAD CODESIZE PUSH2 0x2228 JUMP JUMPDEST RETURNDATASIZE SWAP2 POP PUSH2 0x2240 JUMP JUMPDEST PUSH1 0x40 MLOAD RETURNDATASIZE DUP5 DUP3 RETURNDATACOPY RETURNDATASIZE SWAP1 REVERT JUMPDEST POP CALLVALUE PUSH2 0x4F0 JUMPI PUSH1 0x20 CALLDATASIZE PUSH1 0x3 NOT ADD SLT PUSH2 0x4F0 JUMPI PUSH2 0x228D PUSH2 0x47E3 JUMP JUMPDEST PUSH2 0x2295 PUSH2 0x4B7E JUMP JUMPDEST PUSH1 0x1 PUSH1 0x1 PUSH1 0xA0 SHL SUB AND PUSH2 0x22A9 DUP2 ISZERO ISZERO PUSH2 0x5F24 JUMP JUMPDEST PUSH1 0x1 PUSH1 0x1 PUSH1 0x60 SHL SUB PUSH1 0xA0 SHL PUSH1 0x23 SLOAD AND OR PUSH1 0x23 SSTORE DUP1 RETURN JUMPDEST POP CALLVALUE PUSH2 0x4F0 JUMPI PUSH1 0x20 SWAP1 DUP2 PUSH1 0x3 NOT CALLDATASIZE ADD SLT PUSH2 0x4F0 JUMPI PUSH1 0x4 CALLDATALOAD SWAP2 PUSH1 0x6 DUP4 LT ISZERO PUSH2 0x876 JUMPI PUSH2 0x22E8 PUSH2 0x5211 JUMP JUMPDEST PUSH2 0x22F0 PUSH2 0x4D4C JUMP JUMPDEST CALLER DUP3 MSTORE PUSH1 0x8 DUP2 MSTORE PUSH2 0x2307 PUSH1 0xFF PUSH1 0x40 DUP5 KECCAK256 SLOAD AND PUSH2 0x4F10 JUMP JUMPDEST DUP2 SWAP3 PUSH1 0x1 DUP2 LT ISZERO DUP1 PUSH2 0x2519 JUMPI JUMPDEST PUSH2 0x231D SWAP1 PUSH2 0x4F52 JUMP JUMPDEST CALLER DUP4 MSTORE PUSH1 0x7 DUP3 MSTORE PUSH1 0x40 DUP4 KECCAK256 SWAP4 PUSH2 0x56F JUMPI PUSH1 0x4 DUP5 ADD SWAP2 PUSH1 0xFF DUP4 SLOAD PUSH1 0xA8 SHR AND PUSH1 0x6 DUP2 LT ISZERO PUSH2 0x24B5 JUMPI DUP3 GT ISZERO PUSH2 0x24C9 JUMPI DUP2 PUSH1 0x26 ADD SLOAD SWAP3 DUP5 PUSH1 0x10 PUSH1 0x1 DUP1 PUSH1 0xA0 SHL SUB SWAP8 PUSH2 0x236D DUP8 DUP11 PUSH1 0x1 SLOAD AND ADDRESS SWAP1 CALLER SWAP1 PUSH2 0x51A4 JUMP JUMPDEST PUSH1 0xFF DUP5 SLOAD PUSH1 0xA8 SHR AND SWAP4 PUSH2 0x2380 DUP8 DUP3 PUSH2 0x4F95 JUMP JUMPDEST PUSH1 0x1 PUSH1 0xB0 SHL PUSH1 0xFF PUSH1 0xB0 SHL NOT DUP3 SLOAD AND OR SWAP1 SSTORE DUP3 PUSH1 0xB DUP3 ADD SSTORE DUP3 PUSH1 0x6 DUP3 ADD SSTORE DUP3 PUSH1 0x13 DUP3 ADD SSTORE ADD SSTORE PUSH1 0x6 DUP2 LT ISZERO PUSH2 0x24B5 JUMPI DUP4 SWAP2 SWAP1 DUP1 PUSH2 0x242A JUMPI POP CALLER DUP6 MSTORE PUSH1 0xC DUP2 MSTORE PUSH2 0x23F6 PUSH1 0x40 DUP7 KECCAK256 PUSH1 0x40 MLOAD SWAP1 PUSH2 0x23D2 DUP3 PUSH2 0x4A6B JUMP JUMPDEST PUSH1 0x0 DUP3 MSTORE DUP5 DUP5 DUP4 ADD MSTORE TIMESTAMP PUSH1 0x40 DUP4 ADD MSTORE PUSH1 0x0 PUSH1 0x60 DUP4 ADD MSTORE PUSH1 0xFF DUP7 AND PUSH1 0x80 DUP4 ADD MSTORE PUSH2 0x5001 JUMP JUMPDEST PUSH2 0xD59 PUSH1 0x40 MLOAD DUP1 SWAP5 PUSH2 0x49EA JUMP JUMPDEST PUSH2 0x1770 SWAP3 DUP4 DUP3 MUL SWAP4 DUP3 DUP6 DIV EQ DUP3 ISZERO OR ISZERO PUSH2 0xDED JUMPI PUSH2 0xDA9 PUSH2 0x2710 PUSH2 0x9A0 SWAP5 SWAP6 DIV DUP1 SWAP4 PUSH2 0x4D7C JUMP JUMPDEST SWAP3 SWAP1 PUSH2 0x2484 SWAP3 POP CALLER DUP7 MSTORE PUSH1 0xC DUP2 MSTORE PUSH2 0x246F PUSH1 0x40 DUP8 KECCAK256 PUSH1 0x40 MLOAD SWAP1 PUSH2 0x244C DUP3 PUSH2 0x4A6B JUMP JUMPDEST PUSH1 0x1 DUP3 MSTORE DUP8 DUP5 DUP4 ADD MSTORE TIMESTAMP PUSH1 0x40 DUP4 ADD MSTORE DUP9 PUSH1 0x60 DUP4 ADD MSTORE PUSH1 0xFF DUP6 AND PUSH1 0x80 DUP4 ADD MSTORE PUSH2 0x5001 JUMP JUMPDEST PUSH2 0x247C PUSH1 0x40 MLOAD DUP1 SWAP6 PUSH2 0x49EA JUMP JUMPDEST DUP4 ADD SWAP1 PUSH2 0x49EA JUMP JUMPDEST DUP2 PUSH1 0x40 DUP3 ADD MSTORE PUSH32 0x6DC34D0522E29B7D7BEDA15504A00195317702B99A528054D4BE53E1EA331B6D PUSH1 0x60 CALLER SWAP3 LOG2 PUSH2 0x2403 JUMP JUMPDEST PUSH4 0x4E487B71 PUSH1 0xE0 SHL DUP6 MSTORE PUSH1 0x21 PUSH1 0x4 MSTORE PUSH1 0x24 DUP6 REVERT JUMPDEST PUSH1 0x84 SWAP1 PUSH1 0x40 MLOAD SWAP1 PUSH3 0x461BCD PUSH1 0xE5 SHL DUP3 MSTORE PUSH1 0x4 DUP3 ADD MSTORE PUSH1 0x23 PUSH1 0x24 DUP3 ADD MSTORE PUSH32 0x4D4C4D3A204D757374207570677261646520746F20686967686572207061636B PUSH1 0x44 DUP3 ADD MSTORE PUSH3 0x616765 PUSH1 0xE8 SHL PUSH1 0x64 DUP3 ADD MSTORE REVERT JUMPDEST POP SWAP2 SWAP3 POP DUP3 SWAP2 PUSH1 0x5 DUP2 GT ISZERO PUSH2 0x2314 JUMP JUMPDEST POP CALLVALUE PUSH2 0x4F0 JUMPI PUSH1 0x20 CALLDATASIZE PUSH1 0x3 NOT ADD SLT PUSH2 0x4F0 JUMPI PUSH2 0x2543 PUSH2 0x47E3 JUMP JUMPDEST PUSH2 0x254B PUSH2 0x4B7E JUMP JUMPDEST PUSH1 0x1 PUSH1 0x1 PUSH1 0xA0 SHL SUB SWAP1 DUP2 AND SWAP1 PUSH2 0x2562 DUP3 ISZERO ISZERO PUSH2 0x5F24 JUMP JUMPDEST PUSH1 0x24 SLOAD DUP3 PUSH1 0x1 PUSH1 0x1 PUSH1 0x60 SHL SUB PUSH1 0xA0 SHL DUP3 AND OR PUSH1 0x24 SSTORE AND PUSH32 0xCB9BCD5E87EC5DE7C4B31036687BD221C8E20F2ECF6FCE472AC73A211F2A3CDC DUP4 DUP1 LOG3 DUP1 RETURN JUMPDEST POP CALLVALUE PUSH2 0x4F0 JUMPI PUSH1 0x20 CALLDATASIZE PUSH1 0x3 NOT ADD SLT PUSH2 0x4F0 JUMPI PUSH2 0x1A0 SWAP1 PUSH1 0x1 PUSH1 0x1 PUSH1 0xA0 SHL SUB SWAP1 PUSH1 0x40 SWAP1 DUP3 PUSH2 0x25CA PUSH2 0x47E3 JUMP JUMPDEST AND DUP2 MSTORE PUSH1 0x7 PUSH1 0x20 MSTORE KECCAK256 SWAP1 DUP2 SLOAD SWAP2 DUP2 PUSH1 0x1 DUP3 ADD SLOAD AND SWAP2 DUP1 PUSH1 0x2 DUP4 ADD SLOAD AND SWAP1 DUP1 PUSH1 0x3 DUP5 ADD SLOAD AND SWAP1 PUSH1 0x4 DUP5 ADD SLOAD PUSH2 0x265F PUSH1 0xFF DUP3 PUSH1 0xA0 SHR AND SWAP2 PUSH1 0xFF DUP2 PUSH1 0xB0 SHR AND SWAP3 PUSH1 0x5 DUP9 ADD SLOAD SWAP5 PUSH1 0x6 DUP10 ADD SLOAD SWAP7 PUSH1 0xB DUP11 ADD SLOAD SWAP9 PUSH1 0x14 PUSH1 0x12 DUP13 ADD SLOAD SWAP12 ADD SLOAD SWAP12 PUSH1 0x20 PUSH1 0x40 MLOAD SWAP15 DUP16 SWAP1 DUP2 MSTORE ADD MSTORE PUSH1 0x40 DUP14 ADD MSTORE PUSH1 0x60 DUP13 ADD MSTORE DUP3 AND PUSH1 0x80 DUP12 ADD MSTORE PUSH2 0x264A DUP2 PUSH2 0x49CA JUMP JUMPDEST PUSH1 0xA0 DUP11 ADD MSTORE PUSH1 0xFF PUSH1 0xC0 DUP11 ADD SWAP2 PUSH1 0xA8 SHR AND PUSH2 0x49EA JUMP JUMPDEST PUSH2 0x2668 DUP2 PUSH2 0x49CA JUMP JUMPDEST PUSH1 0xE0 DUP8 ADD MSTORE PUSH2 0x100 DUP7 ADD MSTORE PUSH2 0x120 DUP6 ADD MSTORE PUSH2 0x140 DUP5 ADD MSTORE PUSH2 0x160 DUP4 ADD MSTORE PUSH2 0x180 DUP3 ADD MSTORE RETURN JUMPDEST POP CALLVALUE PUSH2 0x4F0 JUMPI DUP1 PUSH1 0x3 NOT CALLDATASIZE ADD SLT PUSH2 0x4F0 JUMPI PUSH1 0x20 PUSH1 0x6 SLOAD PUSH1 0x40 MLOAD SWAP1 DUP2 MSTORE RETURN JUMPDEST POP CALLVALUE PUSH2 0x4F0 JUMPI PUSH1 0xA0 CALLDATASIZE PUSH1 0x3 NOT ADD SLT PUSH2 0x4F0 JUMPI PUSH2 0x26C5 PUSH2 0x47E3 JUMP JUMPDEST SWAP1 PUSH1 0x44 CALLDATALOAD SWAP2 PUSH1 0x64 CALLDATALOAD SWAP1 DUP2 ISZERO ISZERO DUP3 SUB PUSH2 0x2A04 JUMPI PUSH1 0x84 CALLDATALOAD PUSH1 0x6 DUP2 LT ISZERO PUSH2 0x11CE JUMPI PUSH2 0x26EB PUSH2 0x4B7E JUMP JUMPDEST PUSH2 0x26F3 PUSH2 0x4D4C JUMP JUMPDEST PUSH1 0x1 PUSH1 0x1 PUSH1 0xA0 SHL SUB DUP3 DUP2 AND SWAP3 PUSH2 0x270A DUP5 ISZERO ISZERO PUSH2 0x5F24 JUMP JUMPDEST DUP4 DUP7 MSTORE PUSH1 0x20 SWAP2 PUSH1 0x8 DUP4 MSTORE PUSH2 0x2725 PUSH1 0xFF PUSH1 0x40 DUP10 KECCAK256 SLOAD AND ISZERO PUSH2 0x4BAA JUMP JUMPDEST PUSH1 0x1 SWAP2 DUP3 DUP6 LT ISZERO DUP1 PUSH2 0x29F9 JUMPI JUMPDEST PUSH2 0x273B SWAP1 PUSH2 0x4F52 JUMP JUMPDEST PUSH1 0xB SLOAD ISZERO PUSH2 0x29C0 JUMPI DUP8 SWAP9 PUSH1 0x24 SWAP9 SWAP7 SWAP8 SWAP9 CALLDATALOAD DUP8 MSTORE PUSH1 0xF DUP6 MSTORE DUP3 PUSH1 0x40 DUP9 KECCAK256 SLOAD AND SWAP9 DUP10 SWAP2 DUP3 ISZERO ISZERO DUP1 PUSH2 0x29AB JUMPI JUMPDEST PUSH2 0x276E SWAP1 PUSH2 0x4BF6 JUMP JUMPDEST DUP1 PUSH2 0x2971 JUMPI POP DUP2 SWAP1 JUMPDEST ISZERO PUSH2 0x295E JUMPI PUSH2 0x2785 SWAP1 PUSH2 0x4EE4 JUMP JUMPDEST SWAP4 DUP9 DUP2 SWAP5 JUMPDEST PUSH1 0x17 PUSH1 0x40 PUSH2 0x2796 PUSH2 0x4D89 JUMP JUMPDEST SWAP12 DUP13 SWAP4 DUP5 DUP3 MSTORE PUSH1 0x10 DUP13 MSTORE DUP3 DUP3 KECCAK256 SWAP8 PUSH1 0xFF NOT SWAP9 DUP9 DUP11 DUP3 SLOAD AND OR SWAP1 SSTORE PUSH1 0xF DUP14 MSTORE DUP4 DUP4 KECCAK256 SWAP7 PUSH1 0x1 PUSH1 0x1 PUSH1 0x60 SHL SUB PUSH1 0xA0 SHL SWAP8 DUP2 DUP10 DUP3 SLOAD AND OR SWAP1 SSTORE DUP4 MSTORE PUSH1 0x7 DUP14 MSTORE DUP4 DUP4 KECCAK256 SWAP6 DUP7 SSTORE DUP8 DUP7 ADD SWAP1 DUP8 DUP3 SLOAD AND OR SWAP1 SSTORE PUSH1 0x2 DUP6 ADD SWAP11 AND SWAP10 DUP11 DUP7 DUP3 SLOAD AND OR SWAP1 SSTORE PUSH1 0x4 DUP5 ADD PUSH2 0x2800 DUP11 DUP3 PUSH2 0x4C8E JUMP JUMPDEST PUSH2 0x280A DUP14 DUP3 PUSH2 0x4F95 JUMP JUMPDEST DUP1 SLOAD PUSH1 0xFF PUSH1 0xB0 SHL NOT AND PUSH1 0x1 PUSH1 0xB0 SHL OR SWAP1 SSTORE TIMESTAMP PUSH1 0x14 DUP6 ADD SSTORE DUP10 DUP2 MSTORE PUSH1 0x7 DUP12 MSTORE KECCAK256 ADD SLOAD DUP4 DUP2 ADD SWAP2 SWAP1 DUP3 LT PUSH2 0x294A JUMPI PUSH1 0x40 SWAP10 SWAP7 PUSH2 0x290F DUP16 SWAP8 DUP16 SWAP7 SWAP8 DUP16 SWAP7 SWAP9 PUSH32 0x92C194E247C6D4E26AC54D4F751A001BB786B7FD20039047255E4B5327AEC9F4 SWAP16 SWAP14 SWAP11 DUP16 SWAP7 SWAP1 DUP15 SWAP12 PUSH2 0x2930 SWAP16 DUP15 PUSH1 0x7 SWAP2 PUSH32 0xE22A39F862558EB01C2A26EB38C7D884B499221D9A5989F637529BD3E77FD679 SWAP13 PUSH1 0x17 DUP14 SWAP8 ADD SSTORE PUSH2 0x28A7 DUP12 PUSH2 0x49CA JUMP JUMPDEST DUP11 DUP8 SUB PUSH2 0x2934 JUMPI DUP5 MSTORE MSTORE DUP11 PUSH1 0x3 DUP5 DUP5 KECCAK256 ADD SWAP2 DUP3 SLOAD AND OR SWAP1 SSTORE JUMPDEST DUP11 DUP2 MSTORE PUSH1 0xA DUP14 MSTORE PUSH2 0x28D3 DUP6 DUP4 DUP4 KECCAK256 PUSH2 0x4D20 JUMP JUMPDEST DUP11 DUP2 MSTORE PUSH1 0x7 DUP14 MSTORE PUSH1 0x12 DUP3 DUP3 KECCAK256 ADD PUSH2 0x28EA DUP2 SLOAD PUSH2 0x4D3D JUMP JUMPDEST SWAP1 SSTORE DUP10 DUP2 MSTORE PUSH1 0x8 DUP14 MSTORE DUP2 DUP2 KECCAK256 DUP4 DUP6 DUP3 SLOAD AND OR SWAP1 SSTORE PUSH1 0x9 DUP14 MSTORE KECCAK256 SWAP2 DUP3 SLOAD AND OR SWAP1 SSTORE PUSH2 0x4CE3 JUMP JUMPDEST DUP2 MLOAD SWAP1 DUP11 DUP3 MSTORE PUSH2 0x291E DUP2 PUSH2 0x49CA JUMP JUMPDEST DUP8 DUP3 ADD MSTORE LOG4 DUP5 MLOAD SWAP4 DUP5 MSTORE DUP4 ADD SWAP1 PUSH2 0x49EA JUMP JUMPDEST LOG3 DUP1 RETURN JUMPDEST DUP5 MSTORE MSTORE DUP11 PUSH1 0x4 DUP5 DUP5 KECCAK256 ADD SWAP2 DUP3 SLOAD AND OR SWAP1 SSTORE PUSH2 0x28C0 JUMP JUMPDEST PUSH4 0x4E487B71 PUSH1 0xE0 SHL DUP15 MSTORE PUSH1 0x11 PUSH1 0x4 MSTORE PUSH1 0x24 DUP15 REVERT JUMPDEST PUSH2 0x2967 SWAP1 PUSH2 0x4EB3 JUMP JUMPDEST SWAP4 DUP9 PUSH1 0x2 SWAP5 PUSH2 0x278A JUMP JUMPDEST DUP9 MSTORE PUSH1 0xF DUP7 MSTORE DUP4 PUSH1 0x40 DUP10 KECCAK256 SLOAD AND SWAP1 DUP2 ISZERO ISZERO DUP1 PUSH2 0x2996 JUMPI JUMPDEST PUSH2 0x2991 SWAP1 PUSH2 0x4C42 JUMP JUMPDEST PUSH2 0x2777 JUMP JUMPDEST POP DUP2 DUP10 MSTORE PUSH1 0x8 DUP8 MSTORE PUSH1 0x40 DUP10 KECCAK256 SLOAD PUSH1 0xFF AND PUSH2 0x2988 JUMP JUMPDEST POP DUP3 DUP10 MSTORE PUSH1 0x8 DUP8 MSTORE PUSH1 0x40 DUP10 KECCAK256 SLOAD PUSH1 0xFF AND PUSH2 0x2765 JUMP JUMPDEST PUSH1 0x40 MLOAD PUSH3 0x461BCD PUSH1 0xE5 SHL DUP2 MSTORE PUSH1 0x4 DUP2 ADD DUP6 SWAP1 MSTORE PUSH1 0x11 PUSH1 0x24 DUP3 ADD MSTORE PUSH17 0x26A6269D102737903937B7BA103AB9B2B9 PUSH1 0x79 SHL PUSH1 0x44 DUP3 ADD MSTORE PUSH1 0x64 SWAP1 REVERT JUMPDEST POP PUSH1 0x5 DUP6 GT ISZERO PUSH2 0x2732 JUMP JUMPDEST DUP3 DUP1 REVERT JUMPDEST POP CALLVALUE PUSH2 0x4F0 JUMPI DUP1 PUSH1 0x3 NOT CALLDATASIZE ADD SLT PUSH2 0x4F0 JUMPI PUSH1 0xFF PUSH1 0x20 SWAP2 SLOAD PUSH1 0xA0 SHR AND PUSH1 0x40 MLOAD SWAP1 ISZERO ISZERO DUP2 MSTORE RETURN JUMPDEST POP CALLVALUE PUSH2 0x4F0 JUMPI PUSH1 0x20 CALLDATASIZE PUSH1 0x3 NOT ADD SLT PUSH2 0x4F0 JUMPI PUSH1 0x4 CALLDATALOAD PUSH1 0x6 DUP2 LT ISZERO PUSH2 0x876 JUMPI PUSH1 0x20 SWAP1 PUSH1 0x2C ADD SLOAD PUSH1 0x40 MLOAD SWAP1 DUP2 MSTORE RETURN JUMPDEST POP CALLVALUE PUSH2 0x4F0 JUMPI PUSH1 0x20 DUP1 PUSH1 0x3 NOT CALLDATASIZE ADD SLT PUSH2 0x876 JUMPI PUSH1 0x4 CALLDATALOAD SWAP1 CALLER DUP4 MSTORE PUSH1 0xD DUP2 MSTORE PUSH1 0xFF SWAP1 DUP2 PUSH1 0x40 DUP6 KECCAK256 SLOAD AND DUP1 ISZERO PUSH2 0x2D43 JUMPI JUMPDEST ISZERO PUSH2 0x2D09 JUMPI PUSH2 0x2A96 PUSH2 0x4D4C JUMP JUMPDEST DUP3 ISZERO PUSH2 0x2CC5 JUMPI PUSH1 0x0 NOT DUP4 ADD DUP4 DUP2 GT PUSH2 0x2CB1 JUMPI PUSH1 0xE SWAP3 PUSH2 0x2AB7 DUP5 SLOAD DUP1 SWAP4 PUSH2 0x5110 JUMP JUMPDEST SWAP4 PUSH1 0xB SLOAD SWAP3 DUP4 DUP7 LT ISZERO PUSH2 0x2C6C JUMPI PUSH2 0x2ACE SWAP1 DUP7 PUSH2 0x4CD6 JUMP JUMPDEST SWAP3 DUP1 DUP5 GT PUSH2 0x2C64 JUMPI JUMPDEST POP SWAP2 SWAP1 DUP7 SWAP5 SWAP3 JUMPDEST DUP3 DUP5 LT PUSH2 0x2B18 JUMPI DUP8 PUSH32 0x9ACB94CD9B9C8B1248D0DC0AA654D4303685379499519790474807198A329043 PUSH1 0x40 DUP10 DUP10 DUP10 DUP4 MLOAD SWAP3 DUP4 MSTORE DUP3 ADD MSTORE LOG1 DUP1 RETURN JUMPDEST SWAP1 SWAP2 SWAP3 SWAP5 PUSH2 0x2B25 DUP7 PUSH2 0x4894 JUMP JUMPDEST SWAP1 SLOAD PUSH1 0x3 SWAP2 SWAP1 SWAP2 SHL SHR PUSH1 0x1 PUSH1 0x1 PUSH1 0xA0 SHL SUB AND DUP1 DUP10 MSTORE PUSH1 0x7 DUP7 MSTORE PUSH1 0x40 DUP10 KECCAK256 PUSH1 0x4 DUP2 ADD SLOAD PUSH1 0xB0 SHR DUP6 AND PUSH2 0x2B55 DUP2 PUSH2 0x49CA JUMP JUMPDEST PUSH1 0x1 DUP2 EQ ISZERO SWAP1 DUP2 PUSH2 0x2C4F JUMPI JUMPDEST POP PUSH2 0x2C43 JUMPI DUP4 DUP2 ADD SWAP1 DUP2 SLOAD SWAP2 PUSH1 0xF DUP3 ADD SWAP1 DUP2 SLOAD DUP1 DUP6 LT PUSH1 0x0 EQ PUSH2 0x2C3C JUMPI DUP5 SWAP2 JUMPDEST DUP3 ISZERO PUSH2 0x2C2B JUMPI PUSH2 0x2710 PUSH2 0x2BA0 PUSH2 0x2B9A PUSH1 0x17 DUP9 ADD SLOAD PUSH2 0x54BA JUMP JUMPDEST DUP6 PUSH2 0x5110 JUMP JUMPDEST DIV SWAP6 DUP7 ISZERO PUSH2 0x2C19 JUMPI SWAP5 PUSH32 0x64E8DD16146649F6743856BB8723DCD7EDD0BB0E9B5352620AE83A477AEA3283 SWAP5 PUSH2 0x2BEF DUP6 DUP16 SWAP7 SWAP6 PUSH1 0x16 SWAP6 PUSH2 0x2BE8 PUSH2 0x2C11 SWAP15 SWAP13 SWAP9 PUSH2 0x2C0B SWAP15 SWAP13 PUSH2 0x4D7C JUMP JUMPDEST SWAP1 SSTORE PUSH2 0x4D7C JUMP JUMPDEST SWAP1 SSTORE ADD PUSH2 0x2BFD DUP3 DUP3 SLOAD PUSH2 0x4CD6 JUMP JUMPDEST SWAP1 SSTORE PUSH1 0x40 MLOAD SWAP1 DUP2 MSTORE LOG2 PUSH2 0x4D3D JUMP JUMPDEST SWAP6 PUSH2 0x4D3D JUMP JUMPDEST SWAP3 SWAP2 SWAP1 PUSH2 0x2ADE JUMP JUMPDEST POP POP POP POP POP POP POP POP SWAP5 PUSH2 0x2C11 SWAP1 PUSH2 0x4D3D JUMP JUMPDEST POP POP POP POP POP POP POP SWAP5 PUSH2 0x2C11 SWAP1 PUSH2 0x4D3D JUMP JUMPDEST DUP1 SWAP2 PUSH2 0x2B81 JUMP JUMPDEST POP POP SWAP5 PUSH2 0x2C11 SWAP1 PUSH2 0x4D3D JUMP JUMPDEST PUSH1 0x2 SWAP2 POP PUSH2 0x2C5C DUP2 PUSH2 0x49CA JUMP JUMPDEST EQ ISZERO CODESIZE PUSH2 0x2B61 JUMP JUMPDEST SWAP3 POP CODESIZE PUSH2 0x2AD7 JUMP JUMPDEST PUSH1 0x40 MLOAD PUSH3 0x461BCD PUSH1 0xE5 SHL DUP2 MSTORE PUSH1 0x4 DUP2 ADD DUP7 SWAP1 MSTORE PUSH1 0x1E PUSH1 0x24 DUP3 ADD MSTORE PUSH32 0x4D4C4D3A204261746368206578636565647320746F74616C2075736572730000 PUSH1 0x44 DUP3 ADD MSTORE PUSH1 0x64 SWAP1 REVERT JUMPDEST PUSH4 0x4E487B71 PUSH1 0xE0 SHL DUP6 MSTORE PUSH1 0x11 PUSH1 0x4 MSTORE PUSH1 0x24 DUP6 REVERT JUMPDEST PUSH1 0x64 SWAP1 PUSH1 0x40 MLOAD SWAP1 PUSH3 0x461BCD PUSH1 0xE5 SHL DUP3 MSTORE PUSH1 0x4 DUP3 ADD MSTORE PUSH1 0x1D PUSH1 0x24 DUP3 ADD MSTORE PUSH32 0x4D4C4D3A204261746368206E756D626572206D757374206265203E2030000000 PUSH1 0x44 DUP3 ADD MSTORE REVERT JUMPDEST PUSH1 0x64 SWAP1 PUSH1 0x40 MLOAD SWAP1 PUSH3 0x461BCD PUSH1 0xE5 SHL DUP3 MSTORE PUSH1 0x4 DUP3 ADD MSTORE PUSH1 0x13 PUSH1 0x24 DUP3 ADD MSTORE PUSH19 0x1353134E88139BDD08185D5D1A1BDC9A5E9959 PUSH1 0x6A SHL PUSH1 0x44 DUP3 ADD MSTORE REVERT JUMPDEST POP DUP4 SLOAD PUSH1 0x1 PUSH1 0x1 PUSH1 0xA0 SHL SUB AND CALLER EQ PUSH2 0x2A89 JUMP JUMPDEST POP CALLVALUE PUSH2 0x4F0 JUMPI DUP1 PUSH1 0x3 NOT CALLDATASIZE ADD SLT PUSH2 0x4F0 JUMPI PUSH1 0x20 PUSH1 0x40 MLOAD PUSH2 0x1770 DUP2 MSTORE RETURN JUMPDEST POP CALLVALUE PUSH2 0x4F0 JUMPI PUSH1 0x80 CALLDATASIZE PUSH1 0x3 NOT ADD SLT PUSH2 0x4F0 JUMPI PUSH1 0x4 CALLDATALOAD PUSH1 0x1 PUSH1 0x1 PUSH1 0x40 SHL SUB DUP2 GT PUSH2 0x876 JUMPI PUSH2 0x2DA4 SWAP1 CALLDATASIZE SWAP1 PUSH1 0x4 ADD PUSH2 0x4980 JUMP JUMPDEST SWAP2 SWAP1 PUSH1 0x24 CALLDATALOAD PUSH1 0x1 PUSH1 0x1 PUSH1 0x40 SHL SUB DUP2 GT PUSH2 0x2A04 JUMPI PUSH2 0x2DC5 SWAP1 CALLDATASIZE SWAP1 PUSH1 0x4 ADD PUSH2 0x4980 JUMP JUMPDEST PUSH1 0x44 CALLDATALOAD PUSH1 0x1 PUSH1 0x1 PUSH1 0x40 SHL SUB DUP2 GT PUSH2 0x3356 JUMPI PUSH2 0x2DE4 SWAP1 CALLDATASIZE SWAP1 PUSH1 0x4 ADD PUSH2 0x4980 JUMP JUMPDEST SWAP1 SWAP2 PUSH1 0x64 CALLDATALOAD PUSH1 0x1 PUSH1 0x1 PUSH1 0x40 SHL SUB DUP2 GT PUSH2 0x3352 JUMPI PUSH2 0x2E05 SWAP1 CALLDATASIZE SWAP1 PUSH1 0x4 ADD PUSH2 0x4980 JUMP JUMPDEST SWAP5 SWAP1 SWAP8 CALLER DUP9 MSTORE PUSH1 0x8 PUSH1 0x20 MSTORE PUSH2 0x2E20 PUSH1 0xFF PUSH1 0x40 DUP11 KECCAK256 SLOAD AND PUSH2 0x4F10 JUMP JUMPDEST DUP1 ISZERO PUSH2 0x330D JUMPI CALLER DUP9 MSTORE PUSH1 0x7 PUSH1 0x20 MSTORE PUSH1 0x40 DUP9 KECCAK256 SWAP7 PUSH1 0x1 PUSH1 0x1 PUSH1 0x40 SHL SUB DUP3 GT PUSH2 0x32F9 JUMPI DUP2 SWAP1 PUSH2 0x2E50 PUSH1 0x18 DUP11 ADD SLOAD PUSH2 0x4A31 JUMP JUMPDEST PUSH1 0x1F DUP2 GT PUSH2 0x32A9 JUMPI JUMPDEST POP DUP10 SWAP1 PUSH1 0x1F DUP4 GT PUSH1 0x1 EQ PUSH2 0x323D JUMPI DUP11 SWAP3 PUSH2 0x3232 JUMPI JUMPDEST POP POP DUP2 PUSH1 0x1 SHL SWAP2 PUSH1 0x0 NOT SWAP1 PUSH1 0x3 SHL SHR NOT AND OR PUSH1 0x18 DUP8 ADD SSTORE JUMPDEST PUSH1 0x1 PUSH1 0x1 PUSH1 0x40 SHL SUB DUP3 GT PUSH2 0x321E JUMPI DUP2 SWAP1 PUSH2 0x2EA3 PUSH1 0x19 DUP9 ADD SLOAD PUSH2 0x4A31 JUMP JUMPDEST PUSH1 0x1F DUP2 GT PUSH2 0x31CB JUMPI JUMPDEST POP DUP8 SWAP1 PUSH1 0x1F DUP4 GT PUSH1 0x1 EQ PUSH2 0x315F JUMPI DUP9 SWAP3 PUSH2 0x3154 JUMPI JUMPDEST POP POP DUP2 PUSH1 0x1 SHL SWAP2 PUSH1 0x0 NOT SWAP1 PUSH1 0x3 SHL SHR NOT AND OR PUSH1 0x19 DUP6 ADD SSTORE JUMPDEST PUSH1 0x1A DUP5 ADD SWAP2 PUSH1 0x1 PUSH1 0x1 PUSH1 0x40 SHL SUB DUP3 GT PUSH2 0x3140 JUMPI DUP2 SWAP1 PUSH2 0x2EF8 DUP5 SLOAD PUSH2 0x4A31 JUMP JUMPDEST PUSH1 0x1F DUP2 GT PUSH2 0x30F0 JUMPI JUMPDEST POP DUP7 SWAP1 PUSH1 0x1F DUP4 GT PUSH1 0x1 EQ PUSH2 0x308A JUMPI DUP8 SWAP3 PUSH2 0x307F JUMPI JUMPDEST POP POP DUP2 PUSH1 0x1 SHL SWAP2 PUSH1 0x0 NOT SWAP1 PUSH1 0x3 SHL SHR NOT AND OR SWAP1 SSTORE JUMPDEST PUSH1 0x1B DUP3 ADD SWAP1 PUSH1 0x1 PUSH1 0x1 PUSH1 0x40 SHL SUB DUP2 GT PUSH2 0x306B JUMPI PUSH2 0x2F48 DUP3 SLOAD PUSH2 0x4A31 JUMP JUMPDEST PUSH1 0x1F DUP2 GT PUSH2 0x3026 JUMPI JUMPDEST POP DUP4 PUSH1 0x1F DUP3 GT PUSH1 0x1 EQ PUSH2 0x2FBF JUMPI DUP2 SWAP1 DUP6 SWAP7 PUSH1 0x1C SWAP7 SWAP3 PUSH2 0x2FB4 JUMPI JUMPDEST POP POP DUP2 PUSH1 0x1 SHL SWAP2 PUSH1 0x0 NOT SWAP1 PUSH1 0x3 SHL SHR NOT AND OR SWAP1 SSTORE JUMPDEST ADD DUP1 SLOAD PUSH1 0xFF NOT AND PUSH1 0x1 OR SWAP1 SSTORE CALLER PUSH32 0xBE4EC58A792F909E102EE3D745D0C3B34A4D437A54D903C4DB098D31C556422F DUP3 DUP1 LOG2 DUP1 RETURN JUMPDEST ADD CALLDATALOAD SWAP1 POP CODESIZE DUP1 PUSH2 0x2F6B JUMP JUMPDEST DUP3 DUP6 MSTORE PUSH1 0x20 DUP6 KECCAK256 SWAP1 PUSH1 0x1F NOT DUP4 AND DUP7 JUMPDEST DUP2 DUP2 LT PUSH2 0x300E JUMPI POP SWAP7 DUP4 SWAP3 SWAP2 PUSH1 0x1 SWAP5 PUSH1 0x1C SWAP9 SWAP10 LT PUSH2 0x2FF4 JUMPI JUMPDEST POP POP POP DUP2 SHL ADD SWAP1 SSTORE PUSH2 0x2F80 JUMP JUMPDEST ADD CALLDATALOAD PUSH1 0x0 NOT PUSH1 0x3 DUP5 SWAP1 SHL PUSH1 0xF8 AND SHR NOT AND SWAP1 SSTORE CODESIZE DUP1 DUP1 PUSH2 0x2FE7 JUMP JUMPDEST SWAP2 SWAP3 PUSH1 0x20 PUSH1 0x1 DUP2 SWAP3 DUP7 DUP13 ADD CALLDATALOAD DUP2 SSTORE ADD SWAP5 ADD SWAP3 ADD PUSH2 0x2FCE JUMP JUMPDEST DUP3 DUP6 MSTORE PUSH1 0x20 DUP6 KECCAK256 PUSH1 0x1F DUP4 ADD PUSH1 0x5 SHR DUP2 ADD SWAP2 PUSH1 0x20 DUP5 LT PUSH2 0x3061 JUMPI JUMPDEST PUSH1 0x1F ADD PUSH1 0x5 SHR ADD SWAP1 JUMPDEST DUP2 DUP2 LT PUSH2 0x3056 JUMPI POP PUSH2 0x2F51 JUMP JUMPDEST DUP6 DUP2 SSTORE PUSH1 0x1 ADD PUSH2 0x3049 JUMP JUMPDEST SWAP1 SWAP2 POP DUP2 SWAP1 PUSH2 0x3040 JUMP JUMPDEST PUSH4 0x4E487B71 PUSH1 0xE0 SHL DUP5 MSTORE PUSH1 0x41 PUSH1 0x4 MSTORE PUSH1 0x24 DUP5 REVERT JUMPDEST ADD CALLDATALOAD SWAP1 POP CODESIZE DUP1 PUSH2 0x2F16 JUMP JUMPDEST DUP5 DUP9 MSTORE PUSH1 0x20 DUP9 KECCAK256 SWAP3 POP SWAP1 PUSH1 0x1F NOT DUP5 AND DUP9 JUMPDEST DUP2 DUP2 LT PUSH2 0x30D8 JUMPI POP SWAP1 DUP5 PUSH1 0x1 SWAP6 SWAP5 SWAP4 SWAP3 LT PUSH2 0x30BE JUMPI JUMPDEST POP POP POP DUP2 SHL ADD SWAP1 SSTORE PUSH2 0x2F2B JUMP JUMPDEST ADD CALLDATALOAD PUSH1 0x0 NOT PUSH1 0x3 DUP5 SWAP1 SHL PUSH1 0xF8 AND SHR NOT AND SWAP1 SSTORE CODESIZE DUP1 DUP1 PUSH2 0x30B1 JUMP JUMPDEST SWAP2 SWAP4 PUSH1 0x20 PUSH1 0x1 DUP2 SWAP3 DUP8 DUP8 ADD CALLDATALOAD DUP2 SSTORE ADD SWAP6 ADD SWAP3 ADD PUSH2 0x309B JUMP JUMPDEST SWAP1 SWAP2 POP DUP4 DUP8 MSTORE PUSH1 0x20 DUP8 KECCAK256 PUSH1 0x1F DUP5 ADD PUSH1 0x5 SHR DUP2 ADD SWAP2 PUSH1 0x20 DUP6 LT PUSH2 0x3136 JUMPI JUMPDEST SWAP1 PUSH1 0x1F DUP6 SWAP5 SWAP4 SWAP3 ADD PUSH1 0x5 SHR ADD SWAP1 JUMPDEST DUP2 DUP2 LT PUSH2 0x3128 JUMPI POP PUSH2 0x2F01 JUMP JUMPDEST DUP9 DUP2 SSTORE DUP5 SWAP4 POP PUSH1 0x1 ADD PUSH2 0x311B JUMP JUMPDEST SWAP1 SWAP2 POP DUP2 SWAP1 PUSH2 0x310D JUMP JUMPDEST PUSH4 0x4E487B71 PUSH1 0xE0 SHL DUP7 MSTORE PUSH1 0x41 PUSH1 0x4 MSTORE PUSH1 0x24 DUP7 REVERT JUMPDEST ADD CALLDATALOAD SWAP1 POP CODESIZE DUP1 PUSH2 0x2EC1 JUMP JUMPDEST PUSH1 0x19 DUP9 ADD DUP10 MSTORE PUSH1 0x20 DUP10 KECCAK256 SWAP3 POP SWAP1 PUSH1 0x1F NOT DUP5 AND DUP10 JUMPDEST DUP2 DUP2 LT PUSH2 0x31B3 JUMPI POP SWAP1 DUP5 PUSH1 0x1 SWAP6 SWAP5 SWAP4 SWAP3 LT PUSH2 0x3199 JUMPI JUMPDEST POP POP POP DUP2 SHL ADD PUSH1 0x19 DUP6 ADD SSTORE PUSH2 0x2ED9 JUMP JUMPDEST ADD CALLDATALOAD PUSH1 0x0 NOT PUSH1 0x3 DUP5 SWAP1 SHL PUSH1 0xF8 AND SHR NOT AND SWAP1 SSTORE CODESIZE DUP1 DUP1 PUSH2 0x3189 JUMP JUMPDEST SWAP2 SWAP4 PUSH1 0x20 PUSH1 0x1 DUP2 SWAP3 DUP8 DUP8 ADD CALLDATALOAD DUP2 SSTORE ADD SWAP6 ADD SWAP3 ADD PUSH2 0x3173 JUMP JUMPDEST SWAP1 SWAP2 POP PUSH1 0x19 DUP8 ADD DUP9 MSTORE PUSH1 0x20 DUP9 KECCAK256 PUSH1 0x1F DUP5 ADD PUSH1 0x5 SHR DUP2 ADD SWAP2 PUSH1 0x20 DUP6 LT PUSH2 0x3214 JUMPI JUMPDEST SWAP1 PUSH1 0x1F DUP6 SWAP5 SWAP4 SWAP3 ADD PUSH1 0x5 SHR ADD SWAP1 JUMPDEST DUP2 DUP2 LT PUSH2 0x3206 JUMPI POP PUSH2 0x2EAC JUMP JUMPDEST DUP10 DUP2 SSTORE DUP5 SWAP4 POP PUSH1 0x1 ADD PUSH2 0x31F9 JUMP JUMPDEST SWAP1 SWAP2 POP DUP2 SWAP1 PUSH2 0x31EB JUMP JUMPDEST PUSH4 0x4E487B71 PUSH1 0xE0 SHL DUP8 MSTORE PUSH1 0x41 PUSH1 0x4 MSTORE PUSH1 0x24 DUP8 REVERT JUMPDEST ADD CALLDATALOAD SWAP1 POP CODESIZE DUP1 PUSH2 0x2E6E JUMP JUMPDEST PUSH1 0x18 DUP11 ADD DUP12 MSTORE PUSH1 0x20 DUP12 KECCAK256 SWAP3 POP SWAP1 PUSH1 0x1F NOT DUP5 AND DUP12 JUMPDEST DUP2 DUP2 LT PUSH2 0x3291 JUMPI POP SWAP1 DUP5 PUSH1 0x1 SWAP6 SWAP5 SWAP4 SWAP3 LT PUSH2 0x3277 JUMPI JUMPDEST POP POP POP DUP2 SHL ADD PUSH1 0x18 DUP8 ADD SSTORE PUSH2 0x2E86 JUMP JUMPDEST ADD CALLDATALOAD PUSH1 0x0 NOT PUSH1 0x3 DUP5 SWAP1 SHL PUSH1 0xF8 AND SHR NOT AND SWAP1 SSTORE CODESIZE DUP1 DUP1 PUSH2 0x3267 JUMP JUMPDEST SWAP2 SWAP4 PUSH1 0x20 PUSH1 0x1 DUP2 SWAP3 DUP8 DUP8 ADD CALLDATALOAD DUP2 SSTORE ADD SWAP6 ADD SWAP3 ADD PUSH2 0x3251 JUMP JUMPDEST SWAP1 SWAP2 POP PUSH1 0x18 DUP10 ADD DUP11 MSTORE PUSH1 0x20 DUP11 KECCAK256 PUSH1 0x1F DUP5 ADD PUSH1 0x5 SHR DUP2 ADD PUSH1 0x20 DUP6 LT PUSH2 0x32F2 JUMPI JUMPDEST SWAP1 DUP5 SWAP4 SWAP3 SWAP2 JUMPDEST PUSH1 0x1F DUP4 ADD PUSH1 0x5 SHR DUP3 ADD DUP2 LT PUSH2 0x32E4 JUMPI POP POP PUSH2 0x2E59 JUMP JUMPDEST DUP13 DUP2 SSTORE DUP6 SWAP5 POP PUSH1 0x1 ADD PUSH2 0x32CE JUMP JUMPDEST POP DUP1 PUSH2 0x32C8 JUMP JUMPDEST PUSH4 0x4E487B71 PUSH1 0xE0 SHL DUP10 MSTORE PUSH1 0x41 PUSH1 0x4 MSTORE PUSH1 0x24 DUP10 REVERT JUMPDEST PUSH1 0x40 MLOAD PUSH3 0x461BCD PUSH1 0xE5 SHL DUP2 MSTORE PUSH1 0x20 PUSH1 0x4 DUP3 ADD MSTORE PUSH1 0x1A PUSH1 0x24 DUP3 ADD MSTORE PUSH32 0x4D4C4D3A20446973706C6179206E616D65207265717569726564000000000000 PUSH1 0x44 DUP3 ADD MSTORE PUSH1 0x64 SWAP1 REVERT JUMPDEST DUP7 DUP1 REVERT JUMPDEST DUP5 DUP1 REVERT JUMPDEST POP CALLVALUE PUSH2 0x4F0 JUMPI DUP1 PUSH1 0x3 NOT CALLDATASIZE ADD SLT PUSH2 0x4F0 JUMPI PUSH1 0x20 PUSH1 0x40 MLOAD PUSH1 0xC DUP2 MSTORE RETURN JUMPDEST POP CALLVALUE PUSH2 0x4F0 JUMPI PUSH1 0x20 CALLDATASIZE PUSH1 0x3 NOT ADD SLT PUSH2 0x4F0 JUMPI PUSH1 0x4 CALLDATALOAD PUSH2 0x3393 PUSH2 0x4B7E JUMP JUMPDEST PUSH2 0x2710 DUP2 GT PUSH2 0x33D6 JUMPI PUSH1 0x40 PUSH32 0xDEFB0223A84C18F8F7C10046A8600D298578166098E58C49022547D7A50DA35B SWAP2 PUSH1 0x6 SLOAD SWAP1 DUP1 PUSH1 0x6 SSTORE DUP3 MLOAD SWAP2 DUP3 MSTORE PUSH1 0x20 DUP3 ADD MSTORE LOG1 DUP1 RETURN JUMPDEST PUSH1 0x40 MLOAD PUSH3 0x461BCD PUSH1 0xE5 SHL DUP2 MSTORE PUSH1 0x20 PUSH1 0x4 DUP3 ADD MSTORE PUSH1 0x16 PUSH1 0x24 DUP3 ADD MSTORE PUSH22 0x4D4C4D3A205261746520657863656564732031303025 PUSH1 0x50 SHL PUSH1 0x44 DUP3 ADD MSTORE PUSH1 0x64 SWAP1 REVERT JUMPDEST POP CALLVALUE PUSH2 0x4F0 JUMPI PUSH1 0x20 CALLDATASIZE PUSH1 0x3 NOT ADD SLT PUSH2 0x4F0 JUMPI PUSH1 0x4 CALLDATALOAD SWAP1 PUSH1 0x1 DUP3 LT ISZERO DUP1 PUSH2 0x346A JUMPI JUMPDEST PUSH2 0x343E SWAP1 PUSH2 0x5D50 JUMP JUMPDEST PUSH1 0xB DUP3 LT ISZERO PUSH2 0x3456 JUMPI PUSH1 0x20 DUP3 PUSH1 0x15 ADD SLOAD PUSH1 0x40 MLOAD SWAP1 DUP2 MSTORE RETURN JUMPDEST PUSH4 0x4E487B71 PUSH1 0xE0 SHL DUP2 MSTORE PUSH1 0x32 PUSH1 0x4 MSTORE PUSH1 0x24 SWAP1 REVERT JUMPDEST POP PUSH1 0xA DUP3 GT ISZERO PUSH2 0x3435 JUMP JUMPDEST POP CALLVALUE PUSH2 0x4F0 JUMPI DUP1 PUSH1 0x3 NOT CALLDATASIZE ADD SLT PUSH2 0x4F0 JUMPI PUSH1 0x3 SLOAD PUSH1 0x40 MLOAD PUSH1 0x1 PUSH1 0x1 PUSH1 0xA0 SHL SUB SWAP1 SWAP2 AND DUP2 MSTORE PUSH1 0x20 SWAP1 RETURN JUMPDEST POP CALLVALUE PUSH2 0x4F0 JUMPI PUSH1 0x20 CALLDATASIZE PUSH1 0x3 NOT ADD SLT PUSH2 0x4F0 JUMPI PUSH1 0x20 SWAP1 PUSH1 0xFF SWAP1 PUSH1 0x40 SWAP1 PUSH1 0x1 PUSH1 0x1 PUSH1 0xA0 SHL SUB PUSH2 0x34C9 PUSH2 0x47E3 JUMP JUMPDEST AND DUP2 MSTORE PUSH1 0x9 DUP5 MSTORE KECCAK256 SLOAD AND PUSH1 0x40 MLOAD SWAP1 ISZERO ISZERO DUP2 MSTORE RETURN JUMPDEST POP CALLVALUE PUSH2 0x4F0 JUMPI DUP1 PUSH1 0x3 NOT CALLDATASIZE ADD SLT PUSH2 0x4F0 JUMPI PUSH1 0x20 PUSH1 0xE SLOAD PUSH1 0x40 MLOAD SWAP1 DUP2 MSTORE RETURN JUMPDEST POP CALLVALUE PUSH2 0x4F0 JUMPI PUSH1 0x20 CALLDATASIZE PUSH1 0x3 NOT ADD SLT PUSH2 0x4F0 JUMPI PUSH1 0x4 CALLDATALOAD PUSH1 0x6 DUP2 LT ISZERO PUSH2 0x876 JUMPI PUSH1 0x20 SWAP1 PUSH1 0x32 ADD SLOAD PUSH1 0x40 MLOAD SWAP1 DUP2 MSTORE RETURN JUMPDEST POP CALLVALUE PUSH2 0x4F0 JUMPI DUP1 PUSH1 0x3 NOT CALLDATASIZE ADD SLT PUSH2 0x4F0 JUMPI PUSH2 0x3541 PUSH2 0x4B7E JUMP JUMPDEST DUP1 SLOAD PUSH1 0xFF DUP2 PUSH1 0xA0 SHR AND ISZERO PUSH2 0x3587 JUMPI PUSH1 0xFF PUSH1 0xA0 SHL NOT AND DUP2 SSTORE PUSH1 0x40 MLOAD CALLER DUP2 MSTORE PUSH32 0x5DB9EE0A495BF2E6FF9C91A7834C1BA4FDD244A5E8AA4E537BD38AEAE4B073AA SWAP1 PUSH1 0x20 SWAP1 LOG1 DUP1 RETURN JUMPDEST PUSH1 0x40 MLOAD PUSH4 0x8DFC202B PUSH1 0xE0 SHL DUP2 MSTORE PUSH1 0x4 SWAP1 REVERT JUMPDEST POP CALLVALUE PUSH2 0x4F0 JUMPI PUSH1 0x20 CALLDATASIZE PUSH1 0x3 NOT ADD SLT PUSH2 0x4F0 JUMPI PUSH1 0x20 SWAP1 PUSH1 0x40 SWAP1 PUSH1 0x1 PUSH1 0x1 PUSH1 0xA0 SHL SUB PUSH2 0x35C1 PUSH2 0x47E3 JUMP JUMPDEST AND DUP2 MSTORE PUSH1 0x12 DUP4 MSTORE KECCAK256 SLOAD PUSH1 0x40 MLOAD SWAP1 DUP2 MSTORE RETURN JUMPDEST POP CALLVALUE PUSH2 0x4F0 JUMPI DUP1 PUSH1 0x3 NOT CALLDATASIZE ADD SLT PUSH2 0x4F0 JUMPI PUSH1 0x20 PUSH1 0xFF PUSH1 0x2 SLOAD PUSH1 0xA0 SHR AND PUSH1 0x40 MLOAD SWAP1 DUP2 MSTORE RETURN JUMPDEST POP CALLVALUE PUSH2 0x4F0 JUMPI DUP1 PUSH1 0x3 NOT CALLDATASIZE ADD SLT PUSH2 0x4F0 JUMPI PUSH1 0x21 SLOAD PUSH1 0x40 MLOAD PUSH1 0x1 PUSH1 0x1 PUSH1 0xA0 SHL SUB SWAP1 SWAP2 AND DUP2 MSTORE PUSH1 0x20 SWAP1 RETURN JUMPDEST POP CALLVALUE PUSH2 0x4F0 JUMPI PUSH1 0x20 CALLDATASIZE PUSH1 0x3 NOT ADD SLT PUSH2 0x4F0 JUMPI PUSH1 0x20 SWAP1 PUSH1 0x40 SWAP1 PUSH1 0x1 PUSH1 0x1 PUSH1 0xA0 SHL SUB PUSH2 0x3647 PUSH2 0x47E3 JUMP JUMPDEST AND DUP1 DUP3 MSTORE PUSH1 0x8 DUP5 MSTORE PUSH2 0x365E PUSH1 0xFF DUP5 DUP5 KECCAK256 SLOAD AND PUSH2 0x4F10 JUMP JUMPDEST DUP2 MSTORE PUSH1 0x7 DUP4 MSTORE KECCAK256 SLOAD PUSH1 0x40 MLOAD SWAP1 DUP2 MSTORE RETURN JUMPDEST POP CALLVALUE PUSH2 0x4F0 JUMPI DUP1 PUSH1 0x3 NOT CALLDATASIZE ADD SLT PUSH2 0x4F0 JUMPI PUSH1 0x1 SLOAD PUSH1 0x40 MLOAD PUSH1 0x1 PUSH1 0x1 PUSH1 0xA0 SHL SUB SWAP1 SWAP2 AND DUP2 MSTORE PUSH1 0x20 SWAP1 RETURN JUMPDEST POP CALLVALUE PUSH2 0x4F0 JUMPI DUP1 PUSH1 0x3 NOT CALLDATASIZE ADD SLT PUSH2 0x4F0 JUMPI PUSH2 0x36B0 PUSH2 0x5211 JUMP JUMPDEST PUSH2 0x36B8 PUSH2 0x4D4C JUMP JUMPDEST CALLER DUP2 MSTORE PUSH1 0x8 PUSH1 0x20 MSTORE PUSH2 0x36D0 PUSH1 0xFF PUSH1 0x40 DUP4 KECCAK256 SLOAD AND PUSH2 0x4F10 JUMP JUMPDEST CALLER DUP2 MSTORE PUSH1 0x7 PUSH1 0x20 MSTORE PUSH1 0x40 DUP2 KECCAK256 PUSH1 0x4 DUP2 ADD SLOAD PUSH2 0x3706 PUSH1 0xFF DUP3 PUSH1 0xB0 SHR AND PUSH2 0x36F4 DUP2 PUSH2 0x49CA JUMP JUMPDEST PUSH1 0x1 DUP2 EQ SWAP1 DUP2 ISZERO PUSH2 0x3B0F JUMPI JUMPDEST POP PUSH2 0x54EE JUMP JUMPDEST PUSH1 0x16 DUP3 ADD SLOAD SWAP1 DUP2 ISZERO PUSH2 0x3AD2 JUMPI PUSH1 0xFF SWAP1 PUSH3 0x15180 TIMESTAMP DIV PUSH1 0x11 DUP6 ADD DUP2 DUP2 SLOAD LT PUSH2 0x3AC4 JUMPI JUMPDEST POP POP PUSH1 0xA8 SHR AND PUSH1 0x6 DUP2 LT ISZERO PUSH2 0x591 JUMPI PUSH1 0x32 ADD SLOAD PUSH1 0x10 DUP4 ADD SLOAD DUP5 SWAP4 SWAP2 DUP2 DUP2 GT PUSH2 0x3AB0 JUMPI JUMPDEST POP DUP4 ISZERO PUSH2 0x3A72 JUMPI DUP3 SWAP4 DUP6 SWAP4 DUP2 DUP2 GT PUSH2 0x3A50 JUMPI JUMPDEST POP POP SWAP1 PUSH2 0x3774 DUP5 PUSH2 0x37E5 SWAP4 DUP8 PUSH1 0x16 DUP6 ADD SSTORE PUSH2 0x4CD6 JUMP JUMPDEST PUSH1 0x10 DUP3 ADD SSTORE PUSH1 0x8 DUP2 ADD PUSH2 0x3788 DUP6 DUP3 SLOAD PUSH2 0x4CD6 JUMP JUMPDEST SWAP1 SSTORE PUSH2 0x3794 DUP5 CALLER PUSH2 0x5A8F JUMP JUMPDEST CALLER DUP6 MSTORE PUSH1 0xC PUSH1 0x20 MSTORE PUSH1 0x17 PUSH1 0x40 DUP7 KECCAK256 SWAP2 ADD SLOAD PUSH1 0xFF DUP2 GT PUSH1 0x0 EQ PUSH2 0x3A4A JUMPI POP PUSH1 0xFF SWAP1 JUMPDEST PUSH1 0xFF PUSH1 0x40 MLOAD SWAP3 PUSH2 0x37C4 DUP5 PUSH2 0x4A6B JUMP JUMPDEST PUSH1 0x5 DUP5 MSTORE DUP7 PUSH1 0x20 DUP6 ADD MSTORE TIMESTAMP PUSH1 0x40 DUP6 ADD MSTORE DUP8 PUSH1 0x60 DUP6 ADD MSTORE AND PUSH1 0x80 DUP4 ADD MSTORE PUSH2 0x5001 JUMP JUMPDEST PUSH1 0x40 MLOAD DUP3 DUP2 MSTORE PUSH32 0xD4379F0DF0229CB2FED1F6F1C33E4A164DCF7652A8FF79EFD7F4F66BCC1B3756 PUSH1 0x20 CALLER SWAP3 LOG2 DUP1 PUSH2 0x39DE JUMPI JUMPDEST POP CALLER DUP3 MSTORE PUSH1 0x7 PUSH1 0x20 MSTORE PUSH1 0x40 DUP3 KECCAK256 PUSH1 0x1 SWAP1 DUP2 ADD SLOAD SWAP1 SWAP2 SWAP1 PUSH1 0x1 PUSH1 0x1 PUSH1 0xA0 SHL SUB AND JUMPDEST PUSH1 0x1 PUSH1 0x1 PUSH1 0xA0 SHL SUB DUP2 AND ISZERO ISZERO DUP1 PUSH2 0x39D3 JUMPI JUMPDEST ISZERO PUSH2 0x39BD JUMPI PUSH1 0x1 PUSH1 0x1 PUSH1 0xA0 SHL SUB DUP2 AND DUP5 MSTORE PUSH1 0x7 PUSH1 0x20 MSTORE PUSH1 0x40 DUP5 KECCAK256 PUSH1 0x4 DUP2 ADD SLOAD SWAP1 SWAP2 SWAP1 PUSH1 0xB0 DUP2 SWAP1 SHR PUSH1 0xFF AND PUSH2 0x387C DUP2 PUSH2 0x49CA JUMP JUMPDEST PUSH1 0x1 DUP2 EQ SWAP1 DUP2 ISZERO PUSH2 0x39A9 JUMPI JUMPDEST POP PUSH2 0x38AD JUMPI JUMPDEST POP POP PUSH1 0x1 ADD SLOAD PUSH1 0x1 PUSH1 0x1 PUSH1 0xA0 SHL SUB AND SWAP2 PUSH2 0x38A7 SWAP1 PUSH2 0x4D3D JUMP JUMPDEST SWAP2 PUSH2 0x3837 JUMP JUMPDEST PUSH1 0x6 PUSH1 0xFF DUP3 PUSH1 0xA8 SHR AND LT ISZERO PUSH2 0xE01 JUMPI PUSH1 0xFF SWAP1 PUSH1 0xA8 SHR AND PUSH1 0x3E ADD SLOAD DUP5 GT ISZERO PUSH2 0x38D5 JUMPI JUMPDEST DUP1 PUSH2 0x388E JUMP JUMPDEST PUSH1 0x64 DUP4 DUP2 DUP2 MUL DIV DUP2 EQ DUP5 ISZERO OR ISZERO PUSH2 0xB5D JUMPI SWAP1 PUSH2 0x2710 PUSH2 0x38A7 SWAP4 SWAP3 DUP6 MUL DIV DUP1 PUSH2 0x3900 JUMPI JUMPDEST POP POP SWAP1 PUSH2 0x38CF JUMP JUMPDEST PUSH2 0x390A DUP2 DUP4 PUSH2 0x5A8F JUMP JUMPDEST PUSH1 0x9 DUP4 ADD PUSH2 0x3919 DUP3 DUP3 SLOAD PUSH2 0x4CD6 JUMP JUMPDEST SWAP1 SSTORE PUSH1 0x1 PUSH1 0x1 PUSH1 0xA0 SHL SUB DUP3 AND DUP8 MSTORE PUSH1 0xC PUSH1 0x20 MSTORE PUSH1 0x40 DUP1 DUP9 KECCAK256 SWAP1 MLOAD PUSH2 0x3964 SWAP2 PUSH2 0x3940 DUP3 PUSH2 0x4A6B JUMP JUMPDEST PUSH1 0x6 DUP3 MSTORE DUP4 PUSH1 0x20 DUP4 ADD MSTORE TIMESTAMP PUSH1 0x40 DUP4 ADD MSTORE CALLER PUSH1 0x60 DUP4 ADD MSTORE PUSH1 0xFF DUP10 AND PUSH1 0x80 DUP4 ADD MSTORE PUSH2 0x5001 JUMP JUMPDEST PUSH1 0x40 DUP1 MLOAD SWAP2 DUP3 MSTORE PUSH1 0x20 DUP3 ADD DUP8 SWAP1 MSTORE CALLER SWAP3 PUSH1 0x1 PUSH1 0x1 PUSH1 0xA0 SHL SUB AND SWAP2 PUSH32 0x45948FC51BBCAC6C3B663A1ADCC0697660BBAEDDD6EAB9240451A0EFCF7AD753 SWAP2 SWAP1 LOG3 CODESIZE DUP1 PUSH2 0x38F8 JUMP JUMPDEST PUSH1 0x2 SWAP2 POP PUSH2 0x39B6 DUP2 PUSH2 0x49CA JUMP JUMPDEST EQ CODESIZE PUSH2 0x3888 JUMP JUMPDEST DUP4 PUSH1 0x1 PUSH1 0x0 DUP1 MLOAD PUSH1 0x20 PUSH2 0x5FC7 DUP4 CODECOPY DUP2 MLOAD SWAP2 MSTORE SSTORE DUP1 RETURN JUMPDEST POP PUSH1 0x14 DUP4 GT ISZERO PUSH2 0x3849 JUMP JUMPDEST PUSH2 0x39EA DUP2 PUSH1 0x25 SLOAD PUSH2 0x4CD6 JUMP JUMPDEST PUSH1 0x25 SSTORE PUSH1 0x40 MLOAD DUP2 DUP2 MSTORE PUSH32 0xD5FE7FA76CE91683EA1B2F2BA3429885FEEB202704AA35A0552E110E4EB6B26B PUSH1 0x20 CALLER SWAP3 LOG2 PUSH1 0x24 SLOAD PUSH1 0x1 PUSH1 0x1 PUSH1 0xA0 SHL SUB SWAP2 SWAP1 DUP3 AND DUP1 PUSH2 0x3A35 JUMPI JUMPDEST POP POP PUSH2 0x3817 JUMP JUMPDEST PUSH2 0x3A42 SWAP3 PUSH1 0x1 SLOAD AND PUSH2 0x5123 JUMP JUMPDEST CODESIZE DUP1 DUP1 PUSH2 0x3A2E JUMP JUMPDEST SWAP1 PUSH2 0x37B5 JUMP JUMPDEST DUP2 SWAP6 POP PUSH2 0x37E5 SWAP4 SWAP3 SWAP5 POP PUSH2 0x3A69 PUSH2 0x3774 SWAP3 SWAP7 DUP8 SWAP3 PUSH2 0x4D7C JUMP JUMPDEST SWAP5 SWAP3 SWAP4 POP PUSH2 0x375E JUMP JUMPDEST PUSH1 0x40 MLOAD PUSH3 0x461BCD PUSH1 0xE5 SHL DUP2 MSTORE PUSH1 0x20 PUSH1 0x4 DUP3 ADD MSTORE PUSH1 0x16 PUSH1 0x24 DUP3 ADD MSTORE PUSH22 0x1353134E8811185A5B1E4818D85C081C995858DA1959 PUSH1 0x52 SHL PUSH1 0x44 DUP3 ADD MSTORE PUSH1 0x64 SWAP1 REVERT JUMPDEST DUP2 SWAP5 POP SWAP1 PUSH2 0x3ABD SWAP2 PUSH2 0x4D7C JUMP JUMPDEST SWAP3 CODESIZE PUSH2 0x374B JUMP JUMPDEST DUP7 PUSH1 0x10 DUP8 ADD SSTORE SSTORE CODESIZE DUP1 PUSH2 0x3728 JUMP JUMPDEST PUSH1 0x40 MLOAD PUSH3 0x461BCD PUSH1 0xE5 SHL DUP2 MSTORE PUSH1 0x20 PUSH1 0x4 DUP3 ADD MSTORE PUSH1 0x15 PUSH1 0x24 DUP3 ADD MSTORE PUSH21 0x4D4C4D3A204E6F7468696E6720746F20636C61696D PUSH1 0x58 SHL PUSH1 0x44 DUP3 ADD MSTORE PUSH1 0x64 SWAP1 REVERT JUMPDEST PUSH1 0x2 SWAP2 POP PUSH2 0x3B1C DUP2 PUSH2 0x49CA JUMP JUMPDEST EQ CODESIZE PUSH2 0x3700 JUMP JUMPDEST POP CALLVALUE PUSH2 0x4F0 JUMPI PUSH1 0x20 CALLDATASIZE PUSH1 0x3 NOT ADD SLT PUSH2 0x4F0 JUMPI PUSH1 0x4 CALLDATALOAD SWAP1 PUSH2 0x3B41 PUSH2 0x5211 JUMP JUMPDEST PUSH2 0x3B49 PUSH2 0x4D4C JUMP JUMPDEST CALLER DUP2 MSTORE PUSH1 0x7 PUSH1 0x20 MSTORE PUSH1 0x40 DUP2 KECCAK256 SWAP1 PUSH2 0x3B75 PUSH1 0x1 PUSH1 0xFF PUSH1 0x4 DUP6 ADD SLOAD PUSH1 0xB0 SHR AND PUSH2 0x3B6F DUP2 PUSH2 0x49CA JUMP JUMPDEST EQ PUSH2 0x54EE JUMP JUMPDEST PUSH1 0x5 DUP3 ADD DUP1 SLOAD DUP5 DUP2 LT PUSH2 0x412D JUMPI DUP5 ISZERO PUSH2 0x40E8 JUMPI PUSH1 0xFF PUSH1 0x2 SLOAD PUSH1 0xA0 SHR AND PUSH1 0x4D DUP2 GT PUSH2 0x40D4 JUMPI PUSH1 0xA EXP DUP1 PUSH1 0xA MUL SWAP1 PUSH1 0xA DUP3 DIV SUB PUSH2 0x40D4 JUMPI DUP1 ISZERO PUSH2 0x40C0 JUMPI DUP6 MOD PUSH2 0x406F JUMPI DUP5 PUSH2 0x3BC0 SWAP2 PUSH2 0x4D7C JUMP JUMPDEST SWAP1 SSTORE PUSH2 0x3E8 DUP4 MUL PUSH2 0x3E7 NOT DUP5 DUP3 DIV ADD PUSH2 0x405B JUMPI DUP2 SWAP4 PUSH1 0x5 SLOAD DUP1 PUSH2 0x403C JUMPI JUMPDEST POP DUP5 PUSH2 0x3BFB PUSH2 0x3C00 SWAP3 PUSH2 0x3BFB PUSH2 0x2710 DUP7 DIV SWAP2 PUSH2 0x2710 DUP8 DIV SWAP1 PUSH2 0x4D7C JUMP JUMPDEST PUSH2 0x4D7C JUMP JUMPDEST SWAP3 PUSH2 0x2710 PUSH2 0x3C10 PUSH1 0x6 SLOAD DUP7 PUSH2 0x5110 JUMP JUMPDEST DIV SWAP1 PUSH2 0x3C1C DUP3 DUP7 PUSH2 0x4D7C JUMP JUMPDEST SWAP2 DUP1 PUSH2 0x401E JUMPI JUMPDEST POP DUP2 PUSH2 0x3FBE JUMPI JUMPDEST PUSH1 0x15 SWAP2 POP DUP6 PUSH2 0x3F9B JUMPI JUMPDEST SWAP5 SWAP4 SWAP2 SWAP5 ADD PUSH2 0x3C44 DUP3 DUP3 SLOAD PUSH2 0x4CD6 JUMP JUMPDEST SWAP1 SSTORE CALLER DUP3 MSTORE PUSH1 0x12 PUSH1 0x20 MSTORE PUSH1 0x40 DUP3 KECCAK256 PUSH2 0x3C61 PUSH2 0x2710 DUP7 DIV DUP3 SLOAD PUSH2 0x4CD6 JUMP JUMPDEST SWAP1 SSTORE PUSH1 0x40 MLOAD PUSH2 0x2710 DUP6 DIV DUP2 MSTORE PUSH32 0x2B1D2104E84DD4DABB0CCA024171F783AB1E1C9DC1AF9D60A2361596653A99C4 PUSH1 0x20 CALLER SWAP3 LOG2 CALLER DUP3 MSTORE PUSH1 0x7 PUSH1 0x20 MSTORE PUSH1 0x1 DUP1 PUSH1 0xA0 SHL SUB PUSH1 0x1 PUSH1 0x40 DUP5 KECCAK256 ADD SLOAD AND SWAP4 PUSH1 0x1 SWAP2 DUP4 SWAP6 JUMPDEST PUSH1 0x1 PUSH1 0x1 PUSH1 0xA0 SHL SUB DUP2 AND ISZERO ISZERO DUP1 PUSH2 0x3F90 JUMPI JUMPDEST ISZERO PUSH2 0x3E88 JUMPI PUSH1 0x1 PUSH1 0x1 PUSH1 0xA0 SHL SUB DUP2 AND DUP6 MSTORE PUSH1 0x7 PUSH1 0x20 MSTORE PUSH1 0x40 DUP6 KECCAK256 PUSH1 0x4 DUP2 ADD SLOAD SWAP1 SWAP2 SWAP1 PUSH1 0xB0 DUP2 SWAP1 SHR PUSH1 0xFF AND PUSH2 0x3CF7 DUP2 PUSH2 0x49CA JUMP JUMPDEST PUSH1 0x1 DUP2 EQ SWAP1 DUP2 ISZERO PUSH2 0x3E74 JUMPI JUMPDEST POP PUSH2 0x3D28 JUMPI JUMPDEST POP POP PUSH1 0x1 ADD SLOAD PUSH1 0x1 PUSH1 0x1 PUSH1 0xA0 SHL SUB AND SWAP3 PUSH2 0x3D22 SWAP1 PUSH2 0x4D3D JUMP JUMPDEST SWAP3 PUSH2 0x3CB2 JUMP JUMPDEST PUSH1 0x6 PUSH1 0xFF DUP3 PUSH1 0xA8 SHR AND LT ISZERO PUSH2 0x3E60 JUMPI DUP1 PUSH1 0xFF DUP8 SWAP3 PUSH1 0xA8 SHR AND PUSH1 0x44 ADD SLOAD DUP3 GT ISZERO PUSH2 0x3D52 JUMPI JUMPDEST POP PUSH2 0x3D09 JUMP JUMPDEST SWAP1 PUSH1 0xFF PUSH2 0x3D62 SWAP3 PUSH1 0xA8 SHR AND PUSH2 0x552C JUMP JUMPDEST DUP1 PUSH2 0x3D6F JUMPI JUMPDEST DUP6 SWAP1 PUSH2 0x3D4C JUMP JUMPDEST PUSH2 0x3D7E PUSH2 0x2710 SWAP2 DUP3 DUP8 DIV PUSH2 0x5110 JUMP JUMPDEST DIV SWAP1 DUP2 ISZERO ISZERO DUP1 PUSH2 0x3E49 JUMPI JUMPDEST ISZERO PUSH2 0x3D68 JUMPI PUSH2 0x3DB8 DUP3 DUP1 SWAP11 PUSH2 0x3DA2 PUSH2 0x3D22 SWAP7 SWAP6 DUP6 PUSH2 0x5A8F JUMP JUMPDEST PUSH1 0xA DUP6 ADD PUSH2 0x3DB1 DUP4 DUP3 SLOAD PUSH2 0x4CD6 JUMP JUMPDEST SWAP1 SSTORE PUSH2 0x4CD6 JUMP JUMPDEST PUSH1 0x1 PUSH1 0x1 PUSH1 0xA0 SHL SUB DUP3 AND DUP9 MSTORE PUSH1 0xC PUSH1 0x20 MSTORE PUSH1 0x40 DUP1 DUP10 KECCAK256 SWAP1 MLOAD SWAP2 SWAP11 SWAP2 PUSH2 0x3E04 SWAP2 PUSH2 0x3DE0 DUP3 PUSH2 0x4A6B JUMP JUMPDEST PUSH1 0x7 DUP3 MSTORE DUP4 PUSH1 0x20 DUP4 ADD MSTORE TIMESTAMP PUSH1 0x40 DUP4 ADD MSTORE CALLER PUSH1 0x60 DUP4 ADD MSTORE PUSH1 0xFF DUP11 AND PUSH1 0x80 DUP4 ADD MSTORE PUSH2 0x5001 JUMP JUMPDEST PUSH1 0x40 DUP1 MLOAD SWAP2 DUP3 MSTORE PUSH1 0x20 DUP3 ADD DUP9 SWAP1 MSTORE CALLER SWAP3 PUSH1 0x1 PUSH1 0x1 PUSH1 0xA0 SHL SUB AND SWAP2 PUSH32 0xFA90FF469705543002392F8F4D59D717C4D5C6B6C7832F347DC47E1F75855B93 SWAP2 SWAP1 LOG3 SWAP1 CODESIZE PUSH2 0x3D68 JUMP JUMPDEST POP PUSH2 0x2710 DUP6 DIV PUSH2 0x3E59 DUP4 DUP12 PUSH2 0x4CD6 JUMP JUMPDEST GT ISZERO PUSH2 0x3D89 JUMP JUMPDEST PUSH4 0x4E487B71 PUSH1 0xE0 SHL DUP8 MSTORE PUSH1 0x21 PUSH1 0x4 MSTORE PUSH1 0x24 DUP8 REVERT JUMPDEST PUSH1 0x2 SWAP2 POP PUSH2 0x3E81 DUP2 PUSH2 0x49CA JUMP JUMPDEST EQ CODESIZE PUSH2 0x3D03 JUMP JUMPDEST POP DUP5 PUSH2 0x3F4A DUP6 SWAP4 CALLER DUP6 MSTORE PUSH1 0xC PUSH1 0x20 MSTORE PUSH2 0x3ECC PUSH1 0x40 DUP7 KECCAK256 PUSH1 0x40 MLOAD SWAP1 PUSH2 0x3EAB DUP3 PUSH2 0x4A6B JUMP JUMPDEST PUSH1 0x3 DUP3 MSTORE DUP7 PUSH1 0x20 DUP4 ADD MSTORE TIMESTAMP PUSH1 0x40 DUP4 ADD MSTORE DUP8 PUSH1 0x60 DUP4 ADD MSTORE DUP8 PUSH1 0x80 DUP4 ADD MSTORE PUSH2 0x5001 JUMP JUMPDEST CALLER DUP6 MSTORE PUSH1 0xC PUSH1 0x20 MSTORE PUSH2 0x3F0D PUSH1 0x40 DUP7 KECCAK256 PUSH1 0x40 MLOAD SWAP1 PUSH2 0x3EE8 DUP3 PUSH2 0x4A6B JUMP JUMPDEST PUSH1 0xA DUP3 MSTORE PUSH2 0x2710 DUP5 DIV PUSH1 0x20 DUP4 ADD MSTORE TIMESTAMP PUSH1 0x40 DUP4 ADD MSTORE DUP8 PUSH1 0x60 DUP4 ADD MSTORE DUP8 PUSH1 0x80 DUP4 ADD MSTORE PUSH2 0x5001 JUMP JUMPDEST CALLER DUP6 MSTORE PUSH1 0xC PUSH1 0x20 MSTORE PUSH1 0x40 DUP6 KECCAK256 PUSH2 0x2710 PUSH1 0x40 MLOAD SWAP3 PUSH2 0x3F29 DUP5 PUSH2 0x4A6B JUMP JUMPDEST PUSH1 0xB DUP5 MSTORE DIV PUSH1 0x20 DUP4 ADD MSTORE TIMESTAMP PUSH1 0x40 DUP4 ADD MSTORE DUP6 PUSH1 0x60 DUP4 ADD MSTORE DUP6 PUSH1 0x80 DUP4 ADD MSTORE PUSH2 0x5001 JUMP JUMPDEST PUSH1 0x40 MLOAD SWAP2 DUP3 MSTORE PUSH1 0x20 DUP3 ADD MSTORE PUSH32 0xDF273CB619D95419A9CD0EC88123A0538C85064229BAA6363788F743FFF90DEB PUSH1 0x40 CALLER SWAP3 LOG2 PUSH1 0x1 PUSH1 0x0 DUP1 MLOAD PUSH1 0x20 PUSH2 0x5FC7 DUP4 CODECOPY DUP2 MLOAD SWAP2 MSTORE SSTORE DUP1 RETURN JUMPDEST POP PUSH1 0xF DUP5 GT ISZERO PUSH2 0x3CC4 JUMP JUMPDEST PUSH1 0x1 SLOAD PUSH1 0x3 SLOAD PUSH2 0x3FB9 SWAP2 DUP9 SWAP2 PUSH1 0x1 PUSH1 0x1 PUSH1 0xA0 SHL SUB SWAP1 DUP2 AND SWAP2 AND PUSH2 0x5123 JUMP JUMPDEST PUSH2 0x3C34 JUMP JUMPDEST PUSH1 0x2 SLOAD PUSH1 0x1 PUSH1 0x1 PUSH1 0xA0 SHL SUB AND DUP1 ISZERO PUSH2 0x3FE3 JUMPI PUSH1 0x15 SWAP3 PUSH2 0x3FDE SWAP2 CALLER SWAP1 PUSH2 0x5123 JUMP JUMPDEST PUSH2 0x3C2A JUMP JUMPDEST PUSH1 0x40 MLOAD PUSH3 0x461BCD PUSH1 0xE5 SHL DUP2 MSTORE PUSH1 0x20 PUSH1 0x4 DUP3 ADD MSTORE PUSH1 0x13 PUSH1 0x24 DUP3 ADD MSTORE PUSH19 0x1353134E8813551BDAD95B881B9BDD081CD95D PUSH1 0x6A SHL PUSH1 0x44 DUP3 ADD MSTORE PUSH1 0x64 SWAP1 REVERT JUMPDEST PUSH1 0x1 SLOAD PUSH2 0x4036 SWAP2 SWAP1 CALLER SWAP1 PUSH1 0x1 PUSH1 0x1 PUSH1 0xA0 SHL SUB AND PUSH2 0x5123 JUMP JUMPDEST CODESIZE PUSH2 0x3C23 JUMP JUMPDEST PUSH2 0x3BFB SWAP6 POP SWAP1 PUSH2 0x2710 PUSH2 0x4052 PUSH2 0x3C00 SWAP4 DUP4 PUSH2 0x5110 JUMP JUMPDEST DIV SWAP6 POP SWAP1 PUSH2 0x3BDE JUMP JUMPDEST PUSH4 0x4E487B71 PUSH1 0xE0 SHL DUP3 MSTORE PUSH1 0x11 PUSH1 0x4 MSTORE PUSH1 0x24 DUP3 REVERT JUMPDEST PUSH1 0x40 MLOAD PUSH3 0x461BCD PUSH1 0xE5 SHL DUP2 MSTORE PUSH1 0x20 PUSH1 0x4 DUP3 ADD MSTORE PUSH1 0x24 DUP1 DUP3 ADD MSTORE PUSH32 0x4D4C4D3A20416D6F756E74206D7573742062652061206D756C7469706C65206F PUSH1 0x44 DUP3 ADD MSTORE PUSH4 0x6620313 PUSH1 0xE4 SHL PUSH1 0x64 DUP3 ADD MSTORE PUSH1 0x84 SWAP1 REVERT JUMPDEST PUSH4 0x4E487B71 PUSH1 0xE0 SHL DUP5 MSTORE PUSH1 0x12 PUSH1 0x4 MSTORE PUSH1 0x24 DUP5 REVERT JUMPDEST PUSH4 0x4E487B71 PUSH1 0xE0 SHL DUP5 MSTORE PUSH1 0x11 PUSH1 0x4 MSTORE PUSH1 0x24 DUP5 REVERT JUMPDEST PUSH1 0x40 MLOAD PUSH3 0x461BCD PUSH1 0xE5 SHL DUP2 MSTORE PUSH1 0x20 PUSH1 0x4 DUP3 ADD MSTORE PUSH1 0x17 PUSH1 0x24 DUP3 ADD MSTORE PUSH32 0x4D4C4D3A20416D6F756E74206D757374206265203E2030000000000000000000 PUSH1 0x44 DUP3 ADD MSTORE PUSH1 0x64 SWAP1 REVERT JUMPDEST PUSH1 0x40 MLOAD PUSH3 0x461BCD PUSH1 0xE5 SHL DUP2 MSTORE PUSH1 0x20 PUSH1 0x4 DUP3 ADD MSTORE PUSH1 0x19 PUSH1 0x24 DUP3 ADD MSTORE PUSH32 0x4D4C4D3A20496E73756666696369656E742062616C616E636500000000000000 PUSH1 0x44 DUP3 ADD MSTORE PUSH1 0x64 SWAP1 REVERT JUMPDEST POP CALLVALUE PUSH2 0x4F0 JUMPI PUSH1 0x40 CALLDATASIZE PUSH1 0x3 NOT ADD SLT PUSH2 0x4F0 JUMPI PUSH2 0x418C PUSH2 0x47E3 JUMP JUMPDEST PUSH32 0x41310093E80507E3FB2FAFC7628A627F835448A93096F490E3E207749295F482 PUSH1 0x20 PUSH1 0x24 CALLDATALOAD PUSH2 0x41BA PUSH2 0x4B7E JUMP JUMPDEST PUSH1 0x1 PUSH1 0x1 PUSH1 0xA0 SHL SUB DUP5 DUP2 AND SWAP5 PUSH2 0x41E1 SWAP2 DUP4 SWAP2 SWAP1 PUSH2 0x41D8 DUP9 ISZERO ISZERO PUSH2 0x5F24 JUMP JUMPDEST PUSH1 0x1 SLOAD AND PUSH2 0x5123 JUMP JUMPDEST PUSH1 0x40 MLOAD SWAP1 DUP2 MSTORE LOG2 DUP1 RETURN JUMPDEST POP CALLVALUE PUSH2 0x4F0 JUMPI PUSH1 0x20 CALLDATASIZE PUSH1 0x3 NOT ADD SLT PUSH2 0x4F0 JUMPI PUSH1 0x20 SWAP1 PUSH1 0xFF SWAP1 PUSH1 0x40 SWAP1 PUSH1 0x1 PUSH1 0x1 PUSH1 0xA0 SHL SUB PUSH2 0x4216 PUSH2 0x47E3 JUMP JUMPDEST AND DUP2 MSTORE PUSH1 0xD DUP5 MSTORE KECCAK256 SLOAD AND PUSH1 0x40 MLOAD SWAP1 ISZERO ISZERO DUP2 MSTORE RETURN JUMPDEST POP CALLVALUE PUSH2 0x4F0 JUMPI DUP1 PUSH1 0x3 NOT CALLDATASIZE ADD SLT PUSH2 0x4F0 JUMPI PUSH1 0x20 PUSH1 0x40 MLOAD PUSH2 0xBB8 DUP2 MSTORE RETURN JUMPDEST POP CALLVALUE PUSH2 0x4F0 JUMPI PUSH2 0x4256 CALLDATASIZE PUSH2 0x496A JUMP JUMPDEST SWAP1 PUSH2 0x425F PUSH2 0x4B7E JUMP JUMPDEST PUSH1 0x1 DUP2 LT ISZERO DUP1 PUSH2 0x42DB JUMPI JUMPDEST PUSH2 0x4273 SWAP1 PUSH2 0x5D50 JUMP JUMPDEST DUP2 ISZERO PUSH2 0x429D JUMPI PUSH1 0xB DUP2 LT ISZERO PUSH2 0x4289 JUMPI PUSH1 0x15 ADD SSTORE DUP1 RETURN JUMPDEST PUSH4 0x4E487B71 PUSH1 0xE0 SHL DUP4 MSTORE PUSH1 0x32 PUSH1 0x4 MSTORE PUSH1 0x24 DUP4 REVERT JUMPDEST PUSH1 0x40 MLOAD PUSH3 0x461BCD PUSH1 0xE5 SHL DUP2 MSTORE PUSH1 0x20 PUSH1 0x4 DUP3 ADD MSTORE PUSH1 0x16 PUSH1 0x24 DUP3 ADD MSTORE PUSH22 0x4D4C4D3A205072696365206D757374206265203E203 PUSH1 0x54 SHL PUSH1 0x44 DUP3 ADD MSTORE PUSH1 0x64 SWAP1 REVERT JUMPDEST POP PUSH1 0xA DUP2 GT ISZERO PUSH2 0x426A JUMP JUMPDEST POP CALLVALUE PUSH2 0x4F0 JUMPI PUSH1 0x20 CALLDATASIZE PUSH1 0x3 NOT ADD SLT PUSH2 0x4F0 JUMPI PUSH1 0x4 CALLDATALOAD PUSH1 0xB DUP2 LT ISZERO PUSH2 0x876 JUMPI PUSH1 0x20 SWAP1 PUSH1 0x15 ADD SLOAD PUSH1 0x40 MLOAD SWAP1 DUP2 MSTORE RETURN JUMPDEST POP CALLVALUE PUSH2 0x4F0 JUMPI DUP1 PUSH1 0x3 NOT CALLDATASIZE ADD SLT PUSH2 0x4F0 JUMPI PUSH1 0x20 PUSH1 0x25 SLOAD PUSH1 0x40 MLOAD SWAP1 DUP2 MSTORE RETURN JUMPDEST POP CALLVALUE PUSH2 0x4F0 JUMPI PUSH2 0x4340 CALLDATASIZE PUSH2 0x4939 JUMP JUMPDEST SWAP1 PUSH2 0x4349 PUSH2 0x4B7E JUMP JUMPDEST PUSH1 0x6 DUP2 LT ISZERO DUP1 PUSH2 0x591 JUMPI PUSH1 0x1 DUP3 LT ISZERO DUP1 PUSH2 0x43A7 JUMPI JUMPDEST PUSH2 0x4367 SWAP1 PUSH2 0x4F52 JUMP JUMPDEST PUSH2 0x56F JUMPI SWAP1 DUP2 PUSH2 0x569 PUSH32 0xFD97DC847C39542AE663C77ED6C5FE5D200D0A308AAC833F926E9C3F8F32453F SWAP4 PUSH1 0x32 ADD SWAP3 DUP1 DUP5 SLOAD SWAP5 SSTORE PUSH1 0x40 MLOAD SWAP4 DUP5 SWAP4 DUP5 PUSH2 0x5F67 JUMP JUMPDEST POP DUP4 SWAP1 POP PUSH1 0x5 DUP3 GT ISZERO PUSH2 0x435E JUMP JUMPDEST POP CALLVALUE PUSH2 0x4F0 JUMPI PUSH1 0x40 CALLDATASIZE PUSH1 0x3 NOT ADD SLT PUSH2 0x4F0 JUMPI PUSH2 0x43CF PUSH2 0x47E3 JUMP JUMPDEST PUSH1 0x24 CALLDATALOAD SWAP1 DUP2 ISZERO ISZERO SWAP1 DUP2 DUP4 SUB PUSH2 0x11CE JUMPI PUSH32 0x9742298DC6801916D04D1F05C6A0CC0405B25BAD99060BBBC1C82A9F474AB014 SWAP2 PUSH2 0x41E1 PUSH1 0x20 SWAP3 PUSH2 0x440E PUSH2 0x4B7E JUMP JUMPDEST PUSH1 0x1 PUSH1 0x1 PUSH1 0xA0 SHL SUB AND SWAP5 PUSH2 0x4423 DUP7 ISZERO ISZERO PUSH2 0x5F24 JUMP JUMPDEST DUP6 DUP8 MSTORE PUSH1 0xD DUP5 MSTORE PUSH1 0x40 DUP8 KECCAK256 SWAP1 PUSH1 0xFF DUP1 NOT DUP4 SLOAD AND SWAP2 ISZERO ISZERO AND OR SWAP1 SSTORE JUMP JUMPDEST POP CALLVALUE PUSH2 0x4F0 JUMPI PUSH1 0x20 CALLDATASIZE PUSH1 0x3 NOT ADD SLT PUSH2 0x4F0 JUMPI PUSH2 0x44C9 SWAP1 PUSH1 0x40 SWAP1 PUSH1 0x1 PUSH1 0x1 PUSH1 0xA0 SHL SUB PUSH2 0x4468 PUSH2 0x47E3 JUMP JUMPDEST AND DUP2 MSTORE PUSH1 0x7 PUSH1 0x20 MSTORE KECCAK256 PUSH1 0xFF PUSH1 0x1C DUP3 ADD SLOAD AND PUSH2 0x44F3 PUSH2 0x4488 PUSH1 0x18 DUP5 ADD PUSH2 0x4AD8 JUMP JUMPDEST SWAP3 PUSH2 0x44E5 PUSH2 0x4498 PUSH1 0x19 DUP4 ADD PUSH2 0x4AD8 JUMP JUMPDEST SWAP2 PUSH2 0x44D7 PUSH2 0x44B4 PUSH1 0x1B PUSH2 0x44AD PUSH1 0x1A DUP6 ADD PUSH2 0x4AD8 JUMP JUMPDEST SWAP4 ADD PUSH2 0x4AD8 JUMP JUMPDEST SWAP4 PUSH1 0x40 MLOAD SWAP9 DUP10 SWAP9 PUSH1 0xA0 DUP11 MSTORE PUSH1 0xA0 DUP11 ADD SWAP1 PUSH2 0x48F9 JUMP JUMPDEST SWAP1 DUP9 DUP3 SUB PUSH1 0x20 DUP11 ADD MSTORE PUSH2 0x48F9 JUMP JUMPDEST SWAP1 DUP7 DUP3 SUB PUSH1 0x40 DUP9 ADD MSTORE PUSH2 0x48F9 JUMP JUMPDEST SWAP1 DUP5 DUP3 SUB PUSH1 0x60 DUP7 ADD MSTORE PUSH2 0x48F9 JUMP JUMPDEST SWAP1 ISZERO ISZERO PUSH1 0x80 DUP4 ADD MSTORE SUB SWAP1 RETURN JUMPDEST POP CALLVALUE PUSH2 0x4F0 JUMPI PUSH1 0x20 CALLDATASIZE PUSH1 0x3 NOT ADD SLT PUSH2 0x4F0 JUMPI PUSH1 0xFF PUSH1 0x40 PUSH1 0x20 SWAP3 PUSH1 0x4 CALLDATALOAD DUP2 MSTORE PUSH1 0x10 DUP5 MSTORE KECCAK256 SLOAD AND PUSH1 0x40 MLOAD SWAP1 ISZERO ISZERO DUP2 MSTORE RETURN JUMPDEST POP CALLVALUE PUSH2 0x4F0 JUMPI PUSH1 0x20 CALLDATASIZE PUSH1 0x3 NOT ADD SLT PUSH2 0x4F0 JUMPI PUSH2 0x4548 PUSH2 0x47E3 JUMP JUMPDEST PUSH2 0x4550 PUSH2 0x4B7E JUMP JUMPDEST PUSH1 0x1 PUSH1 0x1 PUSH1 0xA0 SHL SUB SWAP1 DUP2 AND SWAP1 PUSH2 0x4567 DUP3 ISZERO ISZERO PUSH2 0x5F24 JUMP JUMPDEST PUSH1 0x22 SLOAD DUP3 PUSH1 0x1 PUSH1 0x1 PUSH1 0x60 SHL SUB PUSH1 0xA0 SHL DUP3 AND OR PUSH1 0x22 SSTORE AND PUSH32 0x991BD8BBC522C9C0AD23403E84B3F6169D20804C463D315126D1B20867041740 DUP4 DUP1 LOG3 DUP1 RETURN JUMPDEST POP CALLVALUE PUSH2 0x4F0 JUMPI PUSH1 0x40 CALLDATASIZE PUSH1 0x3 NOT ADD SLT PUSH2 0x4F0 JUMPI PUSH2 0x45BE PUSH2 0x47E3 JUMP JUMPDEST PUSH1 0x1 PUSH1 0x1 PUSH1 0xA0 SHL SUB SWAP1 DUP2 AND DUP3 MSTORE PUSH1 0xA PUSH1 0x20 MSTORE PUSH1 0x40 DUP3 KECCAK256 DUP1 SLOAD PUSH1 0x24 CALLDATALOAD SWAP4 SWAP1 DUP5 LT ISZERO PUSH2 0x4F0 JUMPI POP PUSH1 0x20 SWAP3 PUSH2 0x45EF SWAP2 PUSH2 0x48E1 JUMP JUMPDEST SWAP2 SWAP1 SLOAD PUSH1 0x40 MLOAD SWAP3 PUSH1 0x3 SHL SHR AND DUP2 MSTORE RETURN JUMPDEST POP CALLVALUE PUSH2 0x4F0 JUMPI DUP1 PUSH1 0x3 NOT CALLDATASIZE ADD SLT PUSH2 0x4F0 JUMPI PUSH1 0x20 PUSH1 0x40 MLOAD PUSH2 0x222E DUP2 MSTORE RETURN JUMPDEST POP CALLVALUE PUSH2 0x4F0 JUMPI PUSH1 0x40 CALLDATASIZE PUSH1 0x3 NOT ADD SLT PUSH2 0x4F0 JUMPI PUSH2 0x4636 PUSH2 0x47E3 JUMP JUMPDEST PUSH1 0x24 CALLDATALOAD SWAP1 PUSH1 0xFF DUP3 AND DUP3 SUB PUSH2 0x2A04 JUMPI PUSH2 0x464C PUSH2 0x4B7E JUMP JUMPDEST PUSH1 0x1 PUSH1 0x1 PUSH1 0xA0 SHL SUB SWAP1 DUP2 AND SWAP2 DUP3 ISZERO PUSH2 0x46B8 JUMPI PUSH1 0x1 DUP1 SLOAD PUSH1 0x1 PUSH1 0x1 PUSH1 0xA0 SHL SUB NOT DUP2 AND DUP6 OR SWAP1 SWAP2 SSTORE PUSH1 0x2 DUP1 SLOAD PUSH1 0xFF PUSH1 0xA0 SHL NOT AND PUSH1 0xA0 SWAP4 SWAP1 SWAP4 SHL PUSH1 0xFF PUSH1 0xA0 SHL AND SWAP3 SWAP1 SWAP3 OR SWAP1 SWAP2 SSTORE AND PUSH32 0x5EFDFEDF5AEF119C431263F0656093045DFFDF44B3D8F1B0F158DC295C3A0F8E DUP4 DUP1 LOG3 DUP1 RETURN JUMPDEST PUSH1 0x40 MLOAD PUSH3 0x461BCD PUSH1 0xE5 SHL DUP2 MSTORE PUSH1 0x20 PUSH1 0x4 DUP3 ADD MSTORE PUSH1 0x12 PUSH1 0x24 DUP3 ADD MSTORE PUSH18 0x26A6269D1024B73B30B634B2103A37B5B2B7 PUSH1 0x71 SHL PUSH1 0x44 DUP3 ADD MSTORE PUSH1 0x64 SWAP1 REVERT JUMPDEST POP CALLVALUE PUSH2 0x4F0 JUMPI PUSH2 0x470A PUSH2 0x4704 CALLDATASIZE PUSH2 0x47F9 JUMP JUMPDEST SWAP2 PUSH2 0x5D9C JUMP JUMPDEST SWAP6 SWAP3 PUSH1 0x40 SWAP6 SWAP3 SWAP2 SWAP5 SWAP6 MLOAD SWAP6 PUSH1 0xC0 DUP8 ADD SWAP1 PUSH1 0xC0 DUP9 MSTORE DUP5 MLOAD DUP1 SWAP3 MSTORE PUSH1 0xE0 DUP9 ADD SWAP2 PUSH1 0x20 DUP1 SWAP7 ADD SWAP1 DUP8 JUMPDEST DUP2 DUP2 LT PUSH2 0x47B0 JUMPI POP POP POP SWAP2 PUSH2 0x4753 DUP3 PUSH2 0x476F SWAP6 SWAP5 DUP11 PUSH2 0x4761 SWAP6 SUB DUP9 DUP13 ADD MSTORE PUSH2 0x4823 JUMP JUMPDEST SWAP1 DUP9 DUP3 SUB PUSH1 0x40 DUP11 ADD MSTORE PUSH2 0x4823 JUMP JUMPDEST SWAP1 DUP7 DUP3 SUB PUSH1 0x60 DUP9 ADD MSTORE PUSH2 0x4857 JUMP JUMPDEST SWAP1 DUP5 DUP3 SUB PUSH1 0x80 DUP7 ADD MSTORE DUP1 DUP1 DUP6 MLOAD SWAP4 DUP5 DUP2 MSTORE ADD SWAP5 ADD SWAP3 JUMPDEST DUP3 DUP2 LT PUSH2 0x4799 JUMPI DUP6 DUP1 DUP7 DUP10 PUSH1 0xA0 DUP4 ADD MSTORE SUB SWAP1 RETURN JUMPDEST DUP4 MLOAD PUSH1 0xFF AND DUP6 MSTORE SWAP4 DUP2 ADD SWAP4 SWAP3 DUP2 ADD SWAP3 PUSH1 0x1 ADD PUSH2 0x4785 JUMP JUMPDEST SWAP1 SWAP2 SWAP4 DUP5 MLOAD PUSH1 0xC DUP2 LT ISZERO PUSH2 0x47CF JUMPI DUP2 MSTORE DUP8 ADD SWAP4 DUP8 ADD SWAP2 SWAP1 PUSH1 0x1 ADD PUSH2 0x4730 JUMP JUMPDEST PUSH4 0x4E487B71 PUSH1 0xE0 SHL DUP11 MSTORE PUSH1 0x21 PUSH1 0x4 MSTORE PUSH1 0x24 DUP11 REVERT JUMPDEST PUSH1 0x4 CALLDATALOAD SWAP1 PUSH1 0x1 PUSH1 0x1 PUSH1 0xA0 SHL SUB DUP3 AND DUP3 SUB PUSH2 0x14F2 JUMPI JUMP JUMPDEST PUSH1 0x60 SWAP1 PUSH1 0x3 NOT ADD SLT PUSH2 0x14F2 JUMPI PUSH1 0x4 CALLDATALOAD PUSH1 0x1 PUSH1 0x1 PUSH1 0xA0 SHL SUB DUP2 AND DUP2 SUB PUSH2 0x14F2 JUMPI SWAP1 PUSH1 0x24 CALLDATALOAD SWAP1 PUSH1 0x44 CALLDATALOAD SWAP1 JUMP JUMPDEST SWAP1 DUP2 MLOAD DUP1 DUP3 MSTORE PUSH1 0x20 DUP1 DUP1 SWAP4 ADD SWAP4 ADD SWAP2 PUSH1 0x0 JUMPDEST DUP3 DUP2 LT PUSH2 0x4843 JUMPI POP POP POP POP SWAP1 JUMP JUMPDEST DUP4 MLOAD DUP6 MSTORE SWAP4 DUP2 ADD SWAP4 SWAP3 DUP2 ADD SWAP3 PUSH1 0x1 ADD PUSH2 0x4835 JUMP JUMPDEST SWAP1 DUP2 MLOAD DUP1 DUP3 MSTORE PUSH1 0x20 DUP1 DUP1 SWAP4 ADD SWAP4 ADD SWAP2 PUSH1 0x0 JUMPDEST DUP3 DUP2 LT PUSH2 0x4877 JUMPI POP POP POP POP SWAP1 JUMP JUMPDEST DUP4 MLOAD PUSH1 0x1 PUSH1 0x1 PUSH1 0xA0 SHL SUB AND DUP6 MSTORE SWAP4 DUP2 ADD SWAP4 SWAP3 DUP2 ADD SWAP3 PUSH1 0x1 ADD PUSH2 0x4869 JUMP JUMPDEST PUSH1 0xB SLOAD DUP2 LT ISZERO PUSH2 0x48CB JUMPI PUSH1 0xB PUSH1 0x0 MSTORE PUSH32 0x175B7A638427703F0DBE7BB9BBF987A2551717B34E79F33B5B1008D1FA01DB9 ADD SWAP1 PUSH1 0x0 SWAP1 JUMP JUMPDEST PUSH4 0x4E487B71 PUSH1 0xE0 SHL PUSH1 0x0 MSTORE PUSH1 0x32 PUSH1 0x4 MSTORE PUSH1 0x24 PUSH1 0x0 REVERT JUMPDEST DUP1 SLOAD DUP3 LT ISZERO PUSH2 0x48CB JUMPI PUSH1 0x0 MSTORE PUSH1 0x20 PUSH1 0x0 KECCAK256 ADD SWAP1 PUSH1 0x0 SWAP1 JUMP JUMPDEST SWAP2 SWAP1 DUP3 MLOAD SWAP3 DUP4 DUP3 MSTORE PUSH1 0x0 JUMPDEST DUP5 DUP2 LT PUSH2 0x4925 JUMPI POP POP DUP3 PUSH1 0x0 PUSH1 0x20 DUP1 SWAP5 SWAP6 DUP5 ADD ADD MSTORE PUSH1 0x1F DUP1 NOT SWAP2 ADD AND ADD ADD SWAP1 JUMP JUMPDEST PUSH1 0x20 DUP2 DUP4 ADD DUP2 ADD MLOAD DUP5 DUP4 ADD DUP3 ADD MSTORE ADD PUSH2 0x4904 JUMP JUMPDEST PUSH1 0x40 SWAP1 PUSH1 0x3 NOT ADD SLT PUSH2 0x14F2 JUMPI PUSH1 0x4 CALLDATALOAD PUSH1 0x6 DUP2 LT ISZERO PUSH2 0x14F2 JUMPI SWAP1 PUSH1 0x24 CALLDATALOAD SWAP1 JUMP JUMPDEST PUSH1 0xB DUP2 LT ISZERO PUSH2 0x48CB JUMPI PUSH1 0x15 ADD SWAP1 PUSH1 0x0 SWAP1 JUMP JUMPDEST PUSH1 0x40 SWAP1 PUSH1 0x3 NOT ADD SLT PUSH2 0x14F2 JUMPI PUSH1 0x4 CALLDATALOAD SWAP1 PUSH1 0x24 CALLDATALOAD SWAP1 JUMP JUMPDEST SWAP2 DUP2 PUSH1 0x1F DUP5 ADD SLT ISZERO PUSH2 0x14F2 JUMPI DUP3 CALLDATALOAD SWAP2 PUSH1 0x1 PUSH1 0x1 PUSH1 0x40 SHL SUB DUP4 GT PUSH2 0x14F2 JUMPI PUSH1 0x20 DUP4 DUP2 DUP7 ADD SWAP6 ADD ADD GT PUSH2 0x14F2 JUMPI JUMP JUMPDEST CALLVALUE PUSH2 0x14F2 JUMPI PUSH1 0x0 CALLDATASIZE PUSH1 0x3 NOT ADD SLT PUSH2 0x14F2 JUMPI PUSH1 0x20 PUSH1 0x40 MLOAD PUSH2 0xFA0 DUP2 MSTORE RETURN JUMPDEST PUSH1 0x3 GT ISZERO PUSH2 0x49D4 JUMPI JUMP JUMPDEST PUSH4 0x4E487B71 PUSH1 0xE0 SHL PUSH1 0x0 MSTORE PUSH1 0x21 PUSH1 0x4 MSTORE PUSH1 0x24 PUSH1 0x0 REVERT JUMPDEST SWAP1 PUSH1 0x6 DUP3 LT ISZERO PUSH2 0x49D4 JUMPI MSTORE JUMP JUMPDEST CALLVALUE PUSH2 0x14F2 JUMPI PUSH1 0x0 CALLDATASIZE PUSH1 0x3 NOT ADD SLT PUSH2 0x14F2 JUMPI PUSH1 0x20 PUSH1 0x40 MLOAD PUSH2 0x3E8 DUP2 MSTORE RETURN JUMPDEST CALLVALUE PUSH2 0x14F2 JUMPI PUSH1 0x0 CALLDATASIZE PUSH1 0x3 NOT ADD SLT PUSH2 0x14F2 JUMPI PUSH1 0x20 PUSH1 0x40 MLOAD PUSH2 0x271 DUP2 MSTORE RETURN JUMPDEST SWAP1 PUSH1 0x1 DUP3 DUP2 SHR SWAP3 AND DUP1 ISZERO PUSH2 0x4A61 JUMPI JUMPDEST PUSH1 0x20 DUP4 LT EQ PUSH2 0x4A4B JUMPI JUMP JUMPDEST PUSH4 0x4E487B71 PUSH1 0xE0 SHL PUSH1 0x0 MSTORE PUSH1 0x22 PUSH1 0x4 MSTORE PUSH1 0x24 PUSH1 0x0 REVERT JUMPDEST SWAP2 PUSH1 0x7F AND SWAP2 PUSH2 0x4A40 JUMP JUMPDEST PUSH1 0xA0 DUP2 ADD SWAP1 DUP2 LT PUSH1 0x1 PUSH1 0x1 PUSH1 0x40 SHL SUB DUP3 GT OR PUSH2 0x4A86 JUMPI PUSH1 0x40 MSTORE JUMP JUMPDEST PUSH4 0x4E487B71 PUSH1 0xE0 SHL PUSH1 0x0 MSTORE PUSH1 0x41 PUSH1 0x4 MSTORE PUSH1 0x24 PUSH1 0x0 REVERT JUMPDEST PUSH1 0x20 DUP2 ADD SWAP1 DUP2 LT PUSH1 0x1 PUSH1 0x1 PUSH1 0x40 SHL SUB DUP3 GT OR PUSH2 0x4A86 JUMPI PUSH1 0x40 MSTORE JUMP JUMPDEST SWAP1 PUSH1 0x1F DUP1 NOT SWAP2 ADD AND DUP2 ADD SWAP1 DUP2 LT PUSH1 0x1 PUSH1 0x1 PUSH1 0x40 SHL SUB DUP3 GT OR PUSH2 0x4A86 JUMPI PUSH1 0x40 MSTORE JUMP JUMPDEST SWAP1 PUSH1 0x40 MLOAD SWAP2 DUP3 PUSH1 0x0 DUP3 SLOAD SWAP3 PUSH2 0x4AEC DUP5 PUSH2 0x4A31 JUMP JUMPDEST SWAP1 DUP2 DUP5 MSTORE PUSH1 0x1 SWAP5 DUP6 DUP2 AND SWAP1 DUP2 PUSH1 0x0 EQ PUSH2 0x4B5B JUMPI POP PUSH1 0x1 EQ PUSH2 0x4B18 JUMPI JUMPDEST POP POP PUSH2 0x4B16 SWAP3 POP SUB DUP4 PUSH2 0x4AB7 JUMP JUMPDEST JUMP JUMPDEST SWAP1 SWAP4 SWAP2 POP PUSH1 0x0 MSTORE PUSH1 0x20 SWAP1 DUP2 PUSH1 0x0 KECCAK256 SWAP4 PUSH1 0x0 SWAP2 JUMPDEST DUP2 DUP4 LT PUSH2 0x4B43 JUMPI POP POP PUSH2 0x4B16 SWAP4 POP DUP3 ADD ADD CODESIZE DUP1 PUSH2 0x4B08 JUMP JUMPDEST DUP6 SLOAD DUP9 DUP5 ADD DUP6 ADD MSTORE SWAP5 DUP6 ADD SWAP5 DUP8 SWAP5 POP SWAP2 DUP4 ADD SWAP2 PUSH2 0x4B2B JUMP JUMPDEST SWAP2 POP POP PUSH2 0x4B16 SWAP5 POP PUSH1 0x20 SWAP3 POP PUSH1 0xFF NOT AND DUP3 DUP5 ADD MSTORE ISZERO ISZERO PUSH1 0x5 SHL DUP3 ADD ADD CODESIZE DUP1 PUSH2 0x4B08 JUMP JUMPDEST PUSH1 0x0 SLOAD PUSH1 0x1 PUSH1 0x1 PUSH1 0xA0 SHL SUB AND CALLER SUB PUSH2 0x4B92 JUMPI JUMP JUMPDEST PUSH1 0x40 MLOAD PUSH4 0x118CDAA7 PUSH1 0xE0 SHL DUP2 MSTORE CALLER PUSH1 0x4 DUP3 ADD MSTORE PUSH1 0x24 SWAP1 REVERT JUMPDEST ISZERO PUSH2 0x4BB1 JUMPI JUMP JUMPDEST PUSH1 0x40 MLOAD PUSH3 0x461BCD PUSH1 0xE5 SHL DUP2 MSTORE PUSH1 0x20 PUSH1 0x4 DUP3 ADD MSTORE PUSH1 0x17 PUSH1 0x24 DUP3 ADD MSTORE PUSH32 0x4D4C4D3A20416C72656164792072656769737465726564000000000000000000 PUSH1 0x44 DUP3 ADD MSTORE PUSH1 0x64 SWAP1 REVERT JUMPDEST ISZERO PUSH2 0x4BFD JUMPI JUMP JUMPDEST PUSH1 0x40 MLOAD PUSH3 0x461BCD PUSH1 0xE5 SHL DUP2 MSTORE PUSH1 0x20 PUSH1 0x4 DUP3 ADD MSTORE PUSH1 0x17 PUSH1 0x24 DUP3 ADD MSTORE PUSH32 0x4D4C4D3A20496E76616C69642073706F6E736F72204944000000000000000000 PUSH1 0x44 DUP3 ADD MSTORE PUSH1 0x64 SWAP1 REVERT JUMPDEST ISZERO PUSH2 0x4C49 JUMPI JUMP JUMPDEST PUSH1 0x40 MLOAD PUSH3 0x461BCD PUSH1 0xE5 SHL DUP2 MSTORE PUSH1 0x20 PUSH1 0x4 DUP3 ADD MSTORE PUSH1 0x1D PUSH1 0x24 DUP3 ADD MSTORE PUSH32 0x4D4C4D3A20496E76616C69642062696E61727920706172656E74204944000000 PUSH1 0x44 DUP3 ADD MSTORE PUSH1 0x64 SWAP1 REVERT JUMPDEST SWAP1 PUSH2 0x4C98 DUP2 PUSH2 0x49CA JUMP JUMPDEST DUP2 SLOAD PUSH1 0xFF PUSH1 0xA0 SHL NOT AND PUSH1 0xA0 SWAP2 SWAP1 SWAP2 SHL PUSH1 0xFF PUSH1 0xA0 SHL AND OR SWAP1 SSTORE JUMP JUMPDEST SWAP1 PUSH1 0x1 DUP3 ADD DUP1 SWAP3 GT PUSH2 0x4CC0 JUMPI JUMP JUMPDEST PUSH4 0x4E487B71 PUSH1 0xE0 SHL PUSH1 0x0 MSTORE PUSH1 0x11 PUSH1 0x4 MSTORE PUSH1 0x24 PUSH1 0x0 REVERT JUMPDEST SWAP2 SWAP1 DUP3 ADD DUP1 SWAP3 GT PUSH2 0x4CC0 JUMPI JUMP JUMPDEST PUSH1 0xB SLOAD PUSH1 0x1 PUSH1 0x40 SHL DUP2 LT ISZERO PUSH2 0x4A86 JUMPI DUP1 PUSH1 0x1 PUSH2 0x4D02 SWAP3 ADD PUSH1 0xB SSTORE PUSH2 0x4894 JUMP JUMPDEST DUP2 SWAP3 SWAP2 SLOAD SWAP1 PUSH1 0x3 SHL SWAP2 PUSH1 0x1 DUP1 PUSH1 0xA0 SHL SUB DUP1 SWAP2 AND DUP4 SHL SWAP3 SHL NOT AND OR SWAP1 SSTORE JUMP JUMPDEST DUP1 SLOAD PUSH1 0x1 PUSH1 0x40 SHL DUP2 LT ISZERO PUSH2 0x4A86 JUMPI PUSH2 0x4D02 SWAP2 PUSH1 0x1 DUP3 ADD DUP2 SSTORE PUSH2 0x48E1 JUMP JUMPDEST PUSH1 0x0 NOT DUP2 EQ PUSH2 0x4CC0 JUMPI PUSH1 0x1 ADD SWAP1 JUMP JUMPDEST PUSH1 0xFF PUSH1 0x0 SLOAD PUSH1 0xA0 SHR AND PUSH2 0x4D5B JUMPI JUMP JUMPDEST PUSH1 0x40 MLOAD PUSH4 0xD93C0665 PUSH1 0xE0 SHL DUP2 MSTORE PUSH1 0x4 SWAP1 REVERT JUMPDEST PUSH1 0x0 NOT DUP2 ADD SWAP2 SWAP1 DUP3 GT PUSH2 0x4CC0 JUMPI JUMP JUMPDEST SWAP2 SWAP1 DUP3 SUB SWAP2 DUP3 GT PUSH2 0x4CC0 JUMPI JUMP JUMPDEST PUSH1 0x0 DUP1 PUSH1 0x60 CALLER DUP2 SHL PUSH1 0x1 DUP1 DUP1 JUMPDEST PUSH2 0x4DA3 JUMPI JUMPDEST POP POP POP POP POP SWAP1 JUMP JUMPDEST SWAP5 SWAP1 SWAP2 SWAP3 SWAP4 SWAP5 ISZERO PUSH2 0x4E96 JUMPI JUMPDEST POP PUSH1 0x0 PUSH1 0x11 SWAP2 PUSH2 0x4DBF DUP4 SLOAD PUSH2 0x4D3D JUMP JUMPDEST SWAP3 DUP4 DUP2 SSTORE PUSH1 0xB SLOAD SWAP1 PUSH1 0x40 SWAP5 DUP6 MLOAD PUSH1 0x20 SWAP4 DUP5 DUP3 ADD SWAP3 TIMESTAMP DUP5 MSTORE PREVRANDAO DUP10 DUP5 ADD MSTORE DUP10 DUP12 DUP5 ADD MSTORE PUSH1 0x74 DUP4 ADD MSTORE PUSH1 0x94 SWAP1 DUP2 DUP4 ADD MSTORE DUP2 MSTORE PUSH1 0xC0 DUP2 ADD DUP2 DUP2 LT PUSH1 0x1 PUSH1 0x1 PUSH1 0x40 SHL SUB DUP3 GT OR PUSH2 0x321E JUMPI SWAP1 PUSH5 0xE8D4A50C18 SWAP3 SWAP2 DUP9 MSTORE MLOAD SWAP1 KECCAK256 MOD SWAP1 PUSH2 0x3E8 DUP3 ADD DUP1 SWAP3 GT PUSH2 0x4E84 JUMPI POP PUSH2 0x4E2B SWAP1 SWAP8 PUSH2 0x4D3D JUMP JUMPDEST SWAP4 PUSH1 0x32 DUP6 GT PUSH2 0x4E41 JUMPI POP POP SWAP1 DUP2 SWAP5 SWAP4 SWAP3 SWAP5 PUSH2 0x4D96 JUMP JUMPDEST PUSH1 0x64 SWAP3 POP MLOAD SWAP1 PUSH3 0x461BCD PUSH1 0xE5 SHL DUP3 MSTORE PUSH1 0x4 DUP3 ADD MSTORE PUSH1 0x19 PUSH1 0x24 DUP3 ADD MSTORE PUSH32 0x4D4C4D3A2049442067656E65726174696F6E206661696C656400000000000000 PUSH1 0x44 DUP3 ADD MSTORE REVERT JUMPDEST PUSH4 0x4E487B71 PUSH1 0xE0 SHL DUP6 MSTORE PUSH1 0x4 MSTORE PUSH1 0x24 DUP5 REVERT JUMPDEST DUP1 PUSH1 0x0 MSTORE PUSH1 0x10 PUSH1 0x20 MSTORE PUSH1 0xFF PUSH1 0x40 PUSH1 0x0 KECCAK256 SLOAD AND PUSH2 0x4DAF JUMPI SWAP4 DUP1 PUSH2 0x4D9B JUMP JUMPDEST JUMPDEST PUSH1 0x1 PUSH1 0x1 PUSH1 0xA0 SHL SUB DUP2 DUP2 AND PUSH1 0x0 SWAP1 DUP2 MSTORE PUSH1 0x7 PUSH1 0x20 MSTORE PUSH1 0x40 SWAP1 KECCAK256 PUSH1 0x4 ADD SLOAD AND SWAP1 DUP2 ISZERO PUSH2 0x4EDF JUMPI POP PUSH2 0x4EB4 JUMP JUMPDEST SWAP1 POP SWAP1 JUMP JUMPDEST JUMPDEST PUSH1 0x1 PUSH1 0x1 PUSH1 0xA0 SHL SUB DUP2 DUP2 AND PUSH1 0x0 SWAP1 DUP2 MSTORE PUSH1 0x7 PUSH1 0x20 MSTORE PUSH1 0x40 SWAP1 KECCAK256 PUSH1 0x3 ADD SLOAD AND SWAP1 DUP2 ISZERO PUSH2 0x4EDF JUMPI POP PUSH2 0x4EE5 JUMP JUMPDEST ISZERO PUSH2 0x4F17 JUMPI JUMP JUMPDEST PUSH1 0x40 MLOAD PUSH3 0x461BCD PUSH1 0xE5 SHL DUP2 MSTORE PUSH1 0x20 PUSH1 0x4 DUP3 ADD MSTORE PUSH1 0x13 PUSH1 0x24 DUP3 ADD MSTORE PUSH19 0x1353134E88139BDD081C9959DA5CDD195C9959 PUSH1 0x6A SHL PUSH1 0x44 DUP3 ADD MSTORE PUSH1 0x64 SWAP1 REVERT JUMPDEST ISZERO PUSH2 0x4F59 JUMPI JUMP JUMPDEST PUSH1 0x40 MLOAD PUSH3 0x461BCD PUSH1 0xE5 SHL DUP2 MSTORE PUSH1 0x20 PUSH1 0x4 DUP3 ADD MSTORE PUSH1 0x14 PUSH1 0x24 DUP3 ADD MSTORE PUSH20 0x4D4C4D3A20496E76616C6964207061636B616765 PUSH1 0x60 SHL PUSH1 0x44 DUP3 ADD MSTORE PUSH1 0x64 SWAP1 REVERT JUMPDEST SWAP1 PUSH1 0x6 DUP2 LT ISZERO PUSH2 0x49D4 JUMPI DUP2 SLOAD PUSH1 0xFF PUSH1 0xA8 SHL NOT AND PUSH1 0xA8 SWAP2 SWAP1 SWAP2 SHL PUSH1 0xFF PUSH1 0xA8 SHL AND OR SWAP1 SSTORE JUMP JUMPDEST PUSH1 0x40 MLOAD SWAP1 PUSH1 0x60 DUP3 ADD DUP3 DUP2 LT PUSH1 0x1 PUSH1 0x1 PUSH1 0x40 SHL SUB DUP3 GT OR PUSH2 0x4A86 JUMPI PUSH1 0x40 MSTORE JUMP JUMPDEST PUSH1 0x40 MLOAD SWAP1 PUSH2 0x4B16 DUP3 PUSH2 0x4A6B JUMP JUMPDEST DUP1 SLOAD DUP3 LT ISZERO PUSH2 0x48CB JUMPI PUSH1 0x0 MSTORE PUSH1 0x20 PUSH1 0x0 KECCAK256 SWAP1 PUSH1 0x2 SHL ADD SWAP1 PUSH1 0x0 SWAP1 JUMP JUMPDEST DUP1 SLOAD PUSH1 0x1 PUSH1 0x40 SHL DUP2 LT ISZERO PUSH2 0x4A86 JUMPI PUSH2 0x501E SWAP2 PUSH1 0x1 DUP3 ADD DUP2 SSTORE PUSH2 0x4FE5 JUMP JUMPDEST PUSH2 0x5088 JUMPI DUP2 MLOAD SWAP1 PUSH1 0xC DUP3 LT ISZERO PUSH2 0x49D4 JUMPI PUSH1 0x3 SWAP2 PUSH1 0xFF DUP1 NOT DUP4 SLOAD AND SWAP2 AND OR DUP2 SSTORE PUSH1 0x20 DUP4 ADD MLOAD PUSH1 0x1 DUP3 ADD SSTORE PUSH1 0x40 DUP4 ADD MLOAD PUSH1 0x2 DUP3 ADD SSTORE ADD SWAP1 PUSH1 0x1 DUP1 PUSH1 0xA0 SHL SUB PUSH1 0x60 DUP3 ADD MLOAD AND DUP3 SLOAD SWAP2 PUSH1 0x80 PUSH1 0xFF PUSH1 0xA0 SHL SWAP2 ADD MLOAD PUSH1 0xA0 SHL AND SWAP2 PUSH11 0xFFFFFFFFFFFFFFFFFFFFFF PUSH1 0xA8 SHL AND OR OR SWAP1 SSTORE JUMP JUMPDEST PUSH4 0x4E487B71 PUSH1 0xE0 SHL PUSH1 0x0 MSTORE PUSH1 0x0 PUSH1 0x4 MSTORE PUSH1 0x24 PUSH1 0x0 REVERT JUMPDEST SWAP1 PUSH1 0xC DUP3 MUL SWAP2 DUP1 DUP4 DIV PUSH1 0xC EQ SWAP1 ISZERO OR ISZERO PUSH2 0x4CC0 JUMPI JUMP JUMPDEST SWAP1 PUSH2 0x222E SWAP2 DUP3 DUP2 MUL SWAP3 DUP2 DUP5 DIV EQ SWAP1 ISZERO OR ISZERO PUSH2 0x4CC0 JUMPI JUMP JUMPDEST SWAP1 PUSH2 0x271 SWAP2 DUP3 DUP2 MUL SWAP3 DUP2 DUP5 DIV EQ SWAP1 ISZERO OR ISZERO PUSH2 0x4CC0 JUMPI JUMP JUMPDEST SWAP1 PUSH2 0xFA0 SWAP2 DUP3 DUP2 MUL SWAP3 DUP2 DUP5 DIV EQ SWAP1 ISZERO OR ISZERO PUSH2 0x4CC0 JUMPI JUMP JUMPDEST SWAP1 PUSH2 0x7D0 SWAP2 DUP3 DUP2 MUL SWAP3 DUP2 DUP5 DIV EQ SWAP1 ISZERO OR ISZERO PUSH2 0x4CC0 JUMPI JUMP JUMPDEST DUP2 DUP2 MUL SWAP3 SWAP2 DUP2 ISZERO SWAP2 DUP5 DIV EQ OR ISZERO PUSH2 0x4CC0 JUMPI JUMP JUMPDEST PUSH1 0x40 MLOAD PUSH4 0xA9059CBB PUSH1 0xE0 SHL PUSH1 0x0 SWAP1 DUP2 MSTORE PUSH1 0x1 PUSH1 0x1 PUSH1 0xA0 SHL SUB SWAP4 DUP5 AND PUSH1 0x4 MSTORE PUSH1 0x24 SWAP5 SWAP1 SWAP5 MSTORE SWAP3 PUSH1 0x20 SWAP1 PUSH1 0x44 DUP2 DUP1 DUP6 GAS CALL PUSH1 0x1 PUSH1 0x0 MLOAD EQ DUP2 AND ISZERO PUSH2 0x5184 JUMPI JUMPDEST DUP4 PUSH1 0x40 MSTORE ISZERO PUSH2 0x516E JUMPI POP POP POP JUMP JUMPDEST PUSH4 0x5274AFE7 PUSH1 0xE0 SHL DUP4 MSTORE AND PUSH1 0x4 DUP3 ADD MSTORE PUSH1 0x24 SWAP2 POP REVERT JUMPDEST PUSH1 0x1 DUP2 ISZERO AND PUSH2 0x519A JUMPI DUP2 EXTCODESIZE ISZERO ISZERO RETURNDATASIZE ISZERO AND AND PUSH2 0x5160 JUMP JUMPDEST DUP4 RETURNDATASIZE PUSH1 0x0 DUP3 RETURNDATACOPY RETURNDATASIZE SWAP1 REVERT JUMPDEST PUSH1 0x40 MLOAD PUSH4 0x23B872DD PUSH1 0xE0 SHL PUSH1 0x0 SWAP1 DUP2 MSTORE PUSH1 0x1 PUSH1 0x1 PUSH1 0xA0 SHL SUB SWAP4 DUP5 AND PUSH1 0x4 MSTORE SWAP4 DUP4 AND PUSH1 0x24 MSTORE PUSH1 0x44 SWAP5 SWAP1 SWAP5 MSTORE SWAP1 SWAP2 PUSH1 0x20 SWAP1 PUSH1 0x64 DUP2 DUP1 DUP6 GAS CALL PUSH1 0x1 PUSH1 0x0 MLOAD EQ DUP2 AND ISZERO PUSH2 0x51FB JUMPI JUMPDEST DUP4 PUSH1 0x40 MSTORE PUSH1 0x0 PUSH1 0x60 MSTORE ISZERO PUSH2 0x516E JUMPI POP POP POP JUMP JUMPDEST PUSH1 0x1 DUP2 ISZERO AND PUSH2 0x519A JUMPI DUP2 EXTCODESIZE ISZERO ISZERO RETURNDATASIZE ISZERO AND AND PUSH2 0x51E8 JUMP JUMPDEST PUSH1 0x0 DUP1 MLOAD PUSH1 0x20 PUSH2 0x5FC7 DUP4 CODECOPY DUP2 MLOAD SWAP2 MSTORE PUSH1 0x2 DUP2 SLOAD EQ PUSH2 0x522F JUMPI PUSH1 0x2 SWAP1 SSTORE JUMP JUMPDEST PUSH1 0x40 MLOAD PUSH4 0x3EE5AEB5 PUSH1 0xE0 SHL DUP2 MSTORE PUSH1 0x4 SWAP1 REVERT JUMPDEST PUSH1 0x1 PUSH1 0x1 PUSH1 0xA0 SHL SUB SWAP1 DUP2 AND PUSH1 0x0 DUP2 DUP2 MSTORE PUSH1 0x7 PUSH1 0x20 MSTORE PUSH1 0x40 DUP1 DUP3 KECCAK256 PUSH1 0x1 ADD SLOAD SWAP3 SWAP5 SWAP3 SWAP1 SWAP4 AND SWAP3 DUP4 ISZERO PUSH2 0x5365 JUMPI DUP4 DUP3 MSTORE DUP1 DUP3 KECCAK256 SWAP3 PUSH1 0x4 DUP5 ADD SLOAD PUSH1 0xFF DUP2 PUSH1 0xB0 SHR AND PUSH2 0x5288 DUP2 PUSH2 0x49CA JUMP JUMPDEST PUSH1 0x1 DUP2 EQ ISZERO SWAP1 DUP2 PUSH2 0x5350 JUMPI JUMPDEST POP PUSH2 0x5347 JUMPI PUSH1 0xA8 SHR PUSH1 0xFF AND PUSH1 0x6 DUP2 LT ISZERO PUSH2 0x591 JUMPI PUSH2 0x2710 SWAP2 PUSH2 0x52BA SWAP2 PUSH1 0x2C ADD SLOAD SWAP1 PUSH2 0x5110 JUMP JUMPDEST DIV SWAP1 DUP2 ISZERO PUSH2 0x533F JUMPI PUSH2 0x5338 PUSH1 0x20 SWAP4 PUSH1 0x7 PUSH32 0x86583C8BE3288EC633D5A10AFA75407D4C785BFF5EDD40840C42E48D0EFDCFBB SWAP7 PUSH2 0x52F6 DUP7 DUP11 PUSH2 0x5A8F JUMP JUMPDEST ADD PUSH2 0x5302 DUP6 DUP3 SLOAD PUSH2 0x4CD6 JUMP JUMPDEST SWAP1 SSTORE DUP7 DUP2 MSTORE PUSH1 0xC DUP6 MSTORE DUP3 DUP2 KECCAK256 DUP4 MLOAD SWAP2 PUSH2 0x531A DUP4 PUSH2 0x4A6B JUMP JUMPDEST PUSH1 0x4 DUP4 MSTORE DUP6 DUP8 DUP5 ADD MSTORE TIMESTAMP DUP6 DUP5 ADD MSTORE DUP10 PUSH1 0x60 DUP5 ADD MSTORE PUSH1 0x80 DUP4 ADD MSTORE PUSH2 0x5001 JUMP JUMPDEST MLOAD SWAP1 DUP2 MSTORE LOG3 JUMP JUMPDEST POP POP POP POP POP POP JUMP JUMPDEST POP POP POP POP POP POP POP JUMP JUMPDEST PUSH1 0x2 SWAP2 POP PUSH2 0x535D DUP2 PUSH2 0x49CA JUMP JUMPDEST EQ ISZERO CODESIZE PUSH2 0x5294 JUMP JUMPDEST POP POP POP POP POP JUMP JUMPDEST PUSH1 0x1 DUP1 PUSH1 0xA0 SHL SUB DUP1 SWAP2 AND SWAP1 PUSH1 0x0 SWAP1 DUP3 DUP3 MSTORE PUSH1 0x7 SWAP2 PUSH1 0x20 SWAP3 DUP1 DUP5 MSTORE PUSH1 0x2 PUSH1 0x40 SWAP4 DUP2 DUP6 DUP6 KECCAK256 ADD SLOAD AND SWAP6 DUP7 ISZERO PUSH2 0x54B0 JUMPI DUP7 DUP5 MSTORE PUSH1 0xFF PUSH1 0x4 DUP1 DUP8 DUP8 KECCAK256 ADD SLOAD SWAP3 DUP3 PUSH1 0xB0 SWAP5 DUP6 SHR AND SWAP4 PUSH2 0x53B8 DUP6 PUSH2 0x49CA JUMP JUMPDEST DUP6 DUP5 PUSH1 0x1 DUP1 SWAP8 EQ SWAP3 DUP4 ISZERO PUSH2 0x548B JUMPI JUMPDEST POP POP POP PUSH2 0x53DD JUMPI JUMPDEST POP POP POP POP POP POP POP POP POP PUSH2 0x536C JUMP JUMPDEST DUP7 MSTORE DUP5 DUP9 MSTORE DUP7 DUP7 KECCAK256 ADD SLOAD PUSH1 0xA0 SHR AND SWAP1 PUSH2 0x53F5 DUP3 PUSH2 0x49CA JUMP JUMPDEST DUP2 SUB PUSH2 0x543B JUMPI POP POP PUSH1 0xE SWAP4 DUP6 DUP4 MSTORE DUP2 DUP2 MSTORE PUSH1 0xC DUP5 DUP5 KECCAK256 ADD PUSH2 0x5417 DUP9 DUP3 SLOAD PUSH2 0x4CD6 JUMP JUMPDEST SWAP1 SSTORE DUP6 DUP4 MSTORE MSTORE KECCAK256 ADD PUSH2 0x542A DUP4 DUP3 SLOAD PUSH2 0x4CD6 JUMP JUMPDEST SWAP1 SSTORE JUMPDEST CODESIZE DUP1 DUP1 DUP1 DUP1 DUP1 DUP1 DUP1 DUP1 PUSH2 0x53CF JUMP JUMPDEST PUSH2 0x5444 DUP2 PUSH2 0x49CA JUMP JUMPDEST EQ PUSH2 0x5453 JUMPI JUMPDEST POP POP POP POP PUSH2 0x542D JUMP JUMPDEST PUSH1 0xF SWAP4 DUP6 DUP4 MSTORE DUP2 DUP2 MSTORE PUSH1 0xD DUP5 DUP5 KECCAK256 ADD PUSH2 0x546D DUP9 DUP3 SLOAD PUSH2 0x4CD6 JUMP JUMPDEST SWAP1 SSTORE DUP6 DUP4 MSTORE MSTORE KECCAK256 ADD PUSH2 0x5480 DUP4 DUP3 SLOAD PUSH2 0x4CD6 JUMP JUMPDEST SWAP1 SSTORE CODESIZE DUP1 DUP1 DUP1 PUSH2 0x544A JUMP JUMPDEST SWAP1 SWAP2 SWAP3 POP DUP13 DUP11 MSTORE DUP9 DUP13 MSTORE DUP5 DUP12 DUP12 KECCAK256 ADD SLOAD SWAP1 SHR AND PUSH2 0x54A7 DUP2 PUSH2 0x49CA JUMP JUMPDEST EQ DUP6 DUP5 CODESIZE PUSH2 0x53C7 JUMP JUMPDEST POP POP POP POP POP POP POP POP JUMP JUMPDEST PUSH1 0x5 DUP2 GT ISZERO PUSH2 0x54E7 JUMPI PUSH1 0xA DUP2 GT ISZERO PUSH2 0x54E0 JUMPI PUSH1 0xF LT ISZERO PUSH2 0x54DA JUMPI PUSH2 0x1F4 SWAP1 JUMP JUMPDEST PUSH2 0x3E8 SWAP1 JUMP JUMPDEST POP PUSH2 0x7D0 SWAP1 JUMP JUMPDEST POP PUSH2 0xBB8 SWAP1 JUMP JUMPDEST ISZERO PUSH2 0x54F5 JUMPI JUMP JUMPDEST PUSH1 0x40 MLOAD PUSH3 0x461BCD PUSH1 0xE5 SHL DUP2 MSTORE PUSH1 0x20 PUSH1 0x4 DUP3 ADD MSTORE PUSH1 0xF PUSH1 0x24 DUP3 ADD MSTORE PUSH15 0x4D4C4D3A204E6F7420616374697665 PUSH1 0x88 SHL PUSH1 0x44 DUP3 ADD MSTORE PUSH1 0x64 SWAP1 REVERT JUMPDEST PUSH1 0x6 DUP2 LT ISZERO PUSH2 0x49D4 JUMPI PUSH1 0x1 DUP2 SUB PUSH2 0x5551 JUMPI POP PUSH1 0x3 LT ISZERO PUSH2 0x554C JUMPI JUMPDEST PUSH1 0x0 SWAP1 JUMP JUMPDEST PUSH1 0x64 SWAP1 JUMP JUMPDEST PUSH1 0x2 DUP2 SUB PUSH2 0x557A JUMPI POP PUSH1 0x4 DUP2 GT ISZERO PUSH2 0x5574 JUMPI PUSH1 0x5 EQ PUSH2 0x556F JUMPI PUSH1 0x0 SWAP1 JUMP JUMPDEST PUSH1 0x32 SWAP1 JUMP JUMPDEST POP PUSH1 0x64 SWAP1 JUMP JUMPDEST PUSH1 0x3 DUP2 SUB PUSH2 0x5599 JUMPI POP PUSH1 0x5 DUP2 GT ISZERO PUSH2 0x5574 JUMPI PUSH1 0x9 LT ISZERO PUSH2 0x556F JUMPI PUSH1 0x0 SWAP1 JUMP JUMPDEST PUSH1 0x4 DUP2 SUB PUSH2 0x55B7 JUMPI POP PUSH1 0x4 DUP2 GT ISZERO PUSH2 0x5574 JUMPI PUSH1 0xC LT PUSH2 0x5547 JUMPI PUSH1 0x32 SWAP1 JUMP JUMPDEST PUSH1 0x5 EQ PUSH2 0x55C5 JUMPI JUMPDEST POP PUSH1 0x0 SWAP1 JUMP JUMPDEST PUSH1 0x5 DUP2 GT ISZERO PUSH2 0x55DC JUMPI PUSH1 0xF LT ISZERO PUSH2 0x556F JUMPI CODESIZE PUSH2 0x55BF JUMP JUMPDEST POP PUSH2 0x1F4 SWAP1 JUMP JUMPDEST DUP1 SLOAD DUP3 LT ISZERO PUSH2 0x48CB JUMPI PUSH1 0x0 MSTORE PUSH1 0x3 PUSH1 0x20 PUSH1 0x0 KECCAK256 SWAP2 MUL ADD SWAP1 PUSH1 0x0 SWAP1 JUMP JUMPDEST DUP1 SLOAD PUSH1 0x1 PUSH1 0x40 SHL DUP2 LT ISZERO PUSH2 0x4A86 JUMPI PUSH2 0x561C SWAP2 PUSH1 0x1 DUP3 ADD DUP2 SSTORE PUSH2 0x55E3 JUMP JUMPDEST PUSH2 0x5088 JUMPI PUSH1 0x2 PUSH1 0x40 PUSH2 0x4B16 SWAP4 PUSH1 0x1 DUP1 PUSH1 0xA0 SHL SUB DUP2 MLOAD AND PUSH1 0x1 PUSH1 0x1 PUSH1 0x60 SHL SUB PUSH1 0xA0 SHL DUP6 SLOAD AND OR DUP5 SSTORE PUSH1 0x20 DUP2 ADD MLOAD PUSH1 0x1 DUP6 ADD SSTORE ADD MLOAD ISZERO ISZERO SWAP2 ADD SWAP1 PUSH1 0xFF DUP1 NOT DUP4 SLOAD AND SWAP2 ISZERO ISZERO AND OR SWAP1 SSTORE JUMP JUMPDEST SWAP1 PUSH2 0x56A4 PUSH2 0x567C DUP3 PUSH1 0x0 MSTORE PUSH1 0x13 PUSH1 0x20 MSTORE PUSH1 0x40 PUSH1 0x0 KECCAK256 SWAP1 JUMP JUMPDEST PUSH2 0x5684 PUSH2 0x4FB9 JUMP JUMPDEST PUSH1 0x1 PUSH1 0x1 PUSH1 0xA0 SHL SUB DUP6 AND DUP2 MSTORE SWAP1 PUSH1 0x0 PUSH1 0x20 DUP4 ADD MSTORE PUSH1 0x0 PUSH1 0x40 DUP4 ADD MSTORE PUSH2 0x55FF JUMP JUMPDEST DUP1 PUSH2 0x56C2 PUSH2 0x56BC DUP3 PUSH1 0x0 MSTORE PUSH1 0x13 PUSH1 0x20 MSTORE PUSH1 0x40 PUSH1 0x0 KECCAK256 SWAP1 JUMP JUMPDEST SLOAD PUSH2 0x4D6D JUMP JUMPDEST PUSH1 0x40 MLOAD DUP2 DUP2 MSTORE SWAP1 SWAP4 PUSH1 0x1 PUSH1 0x1 PUSH1 0xA0 SHL SUB AND SWAP1 PUSH32 0x4E755DD64E53A9F7A5882E2E32EB64718C2273DE11E017BD47129B9FE2716D7C SWAP1 PUSH1 0x20 SWAP1 LOG3 PUSH2 0x570E DUP2 PUSH1 0x0 MSTORE PUSH1 0x14 PUSH1 0x20 MSTORE PUSH1 0x40 PUSH1 0x0 KECCAK256 SWAP1 JUMP JUMPDEST SLOAD SWAP2 DUP3 LT PUSH2 0x571A JUMPI POP POP JUMP JUMPDEST PUSH2 0x5737 DUP3 PUSH2 0x5732 DUP4 PUSH1 0x0 MSTORE PUSH1 0x13 PUSH1 0x20 MSTORE PUSH1 0x40 PUSH1 0x0 KECCAK256 SWAP1 JUMP JUMPDEST PUSH2 0x55E3 JUMP JUMPDEST POP SWAP2 PUSH1 0xC PUSH1 0x1 DUP5 ADD PUSH2 0x5749 DUP2 SLOAD PUSH2 0x4D3D JUMP JUMPDEST DUP1 SWAP2 SSTORE LT ISZERO PUSH2 0x5758 JUMPI JUMPDEST POP POP POP JUMP JUMPDEST DUP3 PUSH2 0x577C PUSH2 0x579E SWAP3 PUSH2 0x5777 PUSH1 0x2 PUSH2 0x4B16 SWAP8 ADD PUSH1 0x1 PUSH1 0xFF NOT DUP3 SLOAD AND OR SWAP1 SSTORE JUMP JUMPDEST PUSH2 0x4CB2 JUMP JUMPDEST PUSH2 0x5790 DUP5 PUSH1 0x0 MSTORE PUSH1 0x14 PUSH1 0x20 MSTORE PUSH1 0x40 PUSH1 0x0 KECCAK256 SWAP1 JUMP JUMPDEST SSTORE SLOAD PUSH1 0x1 PUSH1 0x1 PUSH1 0xA0 SHL SUB AND SWAP1 JUMP JUMPDEST PUSH2 0x57BC PUSH2 0x57B7 PUSH2 0x57AD DUP5 PUSH2 0x4958 JUMP JUMPDEST SWAP1 SLOAD SWAP1 PUSH1 0x3 SHL SHR SWAP1 JUMP JUMPDEST PUSH2 0x509E JUMP JUMPDEST PUSH1 0xA DUP4 LT ISZERO PUSH2 0x5946 JUMPI DUP3 PUSH2 0x4B16 SWAP4 DUP3 PUSH32 0xC9DFD5046E5F1BE95C560D1B85295F8AFD28D0102C20E0B4112B88BD328CA433 PUSH2 0x580F PUSH2 0x5801 PUSH2 0x5809 PUSH2 0x5801 PUSH2 0x5912 SWAP9 PUSH2 0x50E2 JUMP JUMPDEST PUSH2 0x2710 SWAP1 DIV SWAP1 JUMP JUMPDEST SWAP4 PUSH2 0x50F9 JUMP JUMPDEST PUSH1 0x23 SLOAD PUSH1 0x1 PUSH1 0x1 PUSH1 0xA0 SHL SUB SWAP1 DUP2 AND DUP5 DUP10 DUP3 PUSH2 0x5935 JUMPI JUMPDEST POP POP PUSH1 0x21 SLOAD PUSH1 0x1 PUSH1 0x1 PUSH1 0xA0 SHL SUB AND SWAP1 POP DUP3 DUP3 DUP3 AND PUSH2 0x5918 JUMPI JUMPDEST POP POP PUSH1 0x1 PUSH1 0x1 PUSH1 0xA0 SHL SUB DUP9 AND PUSH1 0x0 SWAP1 DUP2 MSTORE PUSH1 0xC PUSH1 0x20 MSTORE PUSH1 0x40 SWAP1 KECCAK256 PUSH2 0x5890 SWAP1 PUSH2 0x5864 PUSH2 0x4FD8 JUMP JUMPDEST PUSH1 0x9 DUP2 MSTORE SWAP1 PUSH1 0x20 DUP3 ADD DUP8 SWAP1 MSTORE TIMESTAMP PUSH1 0x40 DUP4 ADD MSTORE PUSH1 0x0 PUSH1 0x60 DUP4 ADD MSTORE PUSH1 0xFF DUP9 AND PUSH1 0x80 DUP4 ADD MSTORE PUSH2 0x5001 JUMP JUMPDEST PUSH2 0x5001 JUMP JUMPDEST PUSH1 0x40 DUP1 MLOAD SWAP5 DUP6 MSTORE PUSH1 0x20 DUP6 ADD SWAP3 SWAP1 SWAP3 MSTORE DUP8 AND SWAP3 LOG3 PUSH1 0x1 PUSH1 0x1 PUSH1 0xA0 SHL SUB DUP4 AND PUSH1 0x0 SWAP1 DUP2 MSTORE PUSH1 0xC PUSH1 0x20 MSTORE PUSH1 0x40 SWAP1 KECCAK256 PUSH2 0x5777 SWAP1 PUSH2 0x58D3 PUSH2 0x57AD PUSH2 0x58CE DUP6 PUSH2 0x4CB2 JUMP JUMPDEST PUSH2 0x4958 JUMP JUMPDEST SWAP1 PUSH2 0x588B PUSH2 0x58E9 PUSH2 0x58E3 DUP7 PUSH2 0x4CB2 JUMP JUMPDEST PUSH1 0xFF AND SWAP1 JUMP JUMPDEST PUSH2 0x58F1 PUSH2 0x4FD8 JUMP JUMPDEST PUSH1 0x8 DUP2 MSTORE SWAP4 PUSH1 0x20 DUP6 ADD MSTORE TIMESTAMP PUSH1 0x40 DUP6 ADD MSTORE PUSH1 0x0 PUSH1 0x60 DUP6 ADD MSTORE PUSH1 0xFF AND PUSH1 0x80 DUP5 ADD MSTORE JUMP JUMPDEST SWAP1 PUSH2 0x5664 JUMP JUMPDEST PUSH1 0x1 SLOAD PUSH2 0x592E SWAP3 SWAP1 PUSH1 0x1 PUSH1 0x1 PUSH1 0xA0 SHL SUB AND PUSH2 0x5123 JUMP JUMPDEST CODESIZE DUP3 PUSH2 0x583E JUMP JUMPDEST PUSH2 0x593E SWAP3 PUSH2 0x5123 JUMP JUMPDEST CODESIZE DUP5 DUP10 PUSH2 0x5825 JUMP JUMPDEST DUP1 PUSH2 0x5974 PUSH2 0x5801 PUSH32 0xC9DFD5046E5F1BE95C560D1B85295F8AFD28D0102C20E0B4112B88BD328CA433 SWAP4 PUSH2 0x50B4 JUMP JUMPDEST SWAP3 PUSH2 0x5A3F PUSH2 0x5990 PUSH2 0x5801 PUSH2 0x598A PUSH2 0x5801 DUP7 PUSH2 0x50CB JUMP JUMPDEST SWAP5 PUSH2 0x50CB JUMP JUMPDEST PUSH1 0x23 SLOAD PUSH1 0x1 PUSH1 0x1 PUSH1 0xA0 SHL SUB SWAP5 SWAP1 DUP6 AND DUP8 DUP6 DUP3 PUSH2 0x5A7E JUMPI JUMPDEST POP POP PUSH1 0x22 SLOAD PUSH1 0x1 PUSH1 0x1 PUSH1 0xA0 SHL SUB AND SWAP1 POP SWAP1 DUP6 DUP3 AND PUSH2 0x5A61 JUMPI JUMPDEST POP POP PUSH1 0x21 SLOAD PUSH1 0x1 PUSH1 0x1 PUSH1 0xA0 SHL SUB AND DUP2 DUP6 DUP3 AND PUSH2 0x5A44 JUMPI JUMPDEST POP POP PUSH1 0x1 PUSH1 0x1 PUSH1 0xA0 SHL SUB DUP4 AND PUSH1 0x0 SWAP1 DUP2 MSTORE PUSH1 0xC PUSH1 0x20 MSTORE PUSH1 0x40 SWAP1 KECCAK256 PUSH2 0x5A24 SWAP1 PUSH2 0x59FD PUSH2 0x4FD8 JUMP JUMPDEST PUSH1 0x9 DUP2 MSTORE SWAP1 PUSH1 0x20 DUP3 ADD DUP10 SWAP1 MSTORE TIMESTAMP PUSH1 0x40 DUP4 ADD MSTORE PUSH1 0x0 PUSH1 0x60 DUP4 ADD MSTORE PUSH1 0xFF DUP11 AND PUSH1 0x80 DUP4 ADD MSTORE PUSH2 0x5001 JUMP JUMPDEST PUSH1 0x40 MLOAD SWAP4 DUP5 SWAP4 AND SWAP6 DUP4 PUSH1 0x20 SWAP1 SWAP4 SWAP3 SWAP2 SWAP4 PUSH1 0x40 DUP2 ADD SWAP5 DUP2 MSTORE ADD MSTORE JUMP JUMPDEST SUB SWAP1 LOG3 JUMP JUMPDEST PUSH1 0x1 SLOAD PUSH2 0x5A5A SWAP3 SWAP1 PUSH1 0x1 PUSH1 0x1 PUSH1 0xA0 SHL SUB AND PUSH2 0x5123 JUMP JUMPDEST CODESIZE DUP2 PUSH2 0x59D7 JUMP JUMPDEST PUSH1 0x1 SLOAD PUSH2 0x5A77 SWAP3 SWAP1 PUSH1 0x1 PUSH1 0x1 PUSH1 0xA0 SHL SUB AND PUSH2 0x5123 JUMP JUMPDEST CODESIZE DUP1 PUSH2 0x59C0 JUMP JUMPDEST PUSH2 0x5A87 SWAP3 PUSH2 0x5123 JUMP JUMPDEST CODESIZE DUP8 DUP6 PUSH2 0x59A7 JUMP JUMPDEST SWAP1 PUSH1 0x1 DUP1 PUSH1 0xA0 SHL SUB DUP3 AND PUSH1 0x0 MSTORE PUSH1 0x7 PUSH1 0x20 MSTORE PUSH1 0x40 PUSH1 0x0 KECCAK256 DUP2 ISZERO PUSH2 0x5753 JUMPI PUSH1 0xFF PUSH1 0x4 DUP3 ADD SLOAD PUSH1 0xA8 SHR AND PUSH1 0x6 DUP2 LT ISZERO PUSH2 0x49D4 JUMPI PUSH1 0x38 ADD SLOAD SWAP3 PUSH1 0x0 PUSH1 0xB DUP4 ADD SWAP5 DUP6 SLOAD SWAP1 DUP2 DUP2 GT PUSH2 0x5B40 JUMPI JUMPDEST POP POP DUP1 ISZERO PUSH2 0x5B34 JUMPI DUP1 DUP5 GT PUSH2 0x5B08 JUMPI POP POP SWAP1 PUSH1 0x5 PUSH2 0x5B04 SWAP3 ADD PUSH2 0x5AFB DUP3 DUP3 SLOAD PUSH2 0x4CD6 JUMP JUMPDEST SWAP1 SSTORE DUP3 SLOAD PUSH2 0x4CD6 JUMP JUMPDEST SWAP1 SSTORE JUMP JUMPDEST DUP3 SWAP4 PUSH2 0x4B16 SWAP6 PUSH1 0x5 PUSH2 0x5B2E SWAP5 SWAP6 ADD PUSH2 0x5B21 DUP5 DUP3 SLOAD PUSH2 0x4CD6 JUMP JUMPDEST SWAP1 SSTORE PUSH2 0x2BE8 DUP4 DUP3 SLOAD PUSH2 0x4CD6 JUMP JUMPDEST SWAP2 PUSH2 0x5B51 JUMP JUMPDEST POP SWAP1 PUSH2 0x4B16 SWAP4 POP PUSH2 0x5B51 JUMP JUMPDEST PUSH2 0x5B4A SWAP3 POP PUSH2 0x4D7C JUMP JUMPDEST CODESIZE DUP1 PUSH2 0x5AD7 JUMP JUMPDEST SWAP1 PUSH1 0xFF PUSH1 0x2 SWAP2 PUSH1 0x4 DUP5 ADD SWAP1 DUP2 SLOAD PUSH1 0x1 DUP5 DUP3 PUSH1 0xB0 SHR AND PUSH2 0x5B6F DUP2 PUSH2 0x49CA JUMP JUMPDEST EQ PUSH2 0x5B9D JUMPI JUMPDEST POP POP SLOAD PUSH1 0xB0 SHR AND PUSH2 0x5B85 DUP2 PUSH2 0x49CA JUMP JUMPDEST EQ PUSH2 0x5B8E JUMPI POP POP JUMP JUMPDEST PUSH1 0x6 PUSH2 0x5B04 SWAP2 ADD SWAP2 DUP3 SLOAD PUSH2 0x4CD6 JUMP JUMPDEST PUSH1 0xB0 DUP5 SWAP1 SHL NOT AND PUSH1 0x1 PUSH1 0xB1 SHL OR DUP3 SSTORE TIMESTAMP PUSH1 0x13 DUP7 ADD DUP2 SWAP1 SSTORE PUSH1 0x40 MLOAD SWAP1 DUP2 MSTORE PUSH1 0x1 PUSH1 0x1 PUSH1 0xA0 SHL SUB SWAP1 SWAP2 AND SWAP1 PUSH32 0x2BB92F1150248E7F78A267B3904EBD95F62A5225D70DCC813FB6906C3A646E98 SWAP1 PUSH1 0x20 SWAP1 LOG2 CODESIZE DUP1 PUSH2 0x5B75 JUMP JUMPDEST PUSH1 0x1 PUSH1 0x1 PUSH1 0x40 SHL SUB DUP2 GT PUSH2 0x4A86 JUMPI PUSH1 0x5 SHL PUSH1 0x20 ADD SWAP1 JUMP JUMPDEST SWAP1 PUSH2 0x5C14 DUP3 PUSH2 0x5BF3 JUMP JUMPDEST PUSH2 0x5C21 PUSH1 0x40 MLOAD SWAP2 DUP3 PUSH2 0x4AB7 JUMP JUMPDEST DUP3 DUP2 MSTORE DUP1 SWAP3 PUSH2 0x5C32 PUSH1 0x1F NOT SWAP2 PUSH2 0x5BF3 JUMP JUMPDEST ADD SWAP1 PUSH1 0x20 CALLDATASIZE SWAP2 ADD CALLDATACOPY JUMP JUMPDEST DUP1 MLOAD DUP3 LT ISZERO PUSH2 0x48CB JUMPI PUSH1 0x20 SWAP2 PUSH1 0x5 SHL ADD ADD SWAP1 JUMP JUMPDEST SWAP3 SWAP1 PUSH1 0x1 DUP1 PUSH1 0xA0 SHL SUB DUP1 PUSH1 0x0 SWAP6 AND DUP6 MSTORE PUSH1 0xA PUSH1 0x20 MSTORE PUSH1 0x40 DUP6 KECCAK256 DUP1 SLOAD SWAP5 DUP6 DUP5 LT ISZERO PUSH2 0x5CE7 JUMPI PUSH2 0x5C7E SWAP1 DUP5 PUSH2 0x4CD6 JUMP JUMPDEST DUP4 DUP7 DUP3 GT PUSH2 0x5CDF JUMPI JUMPDEST PUSH2 0x5C90 SWAP2 PUSH2 0x4D7C JUMP JUMPDEST SWAP3 PUSH2 0x5C9A DUP5 PUSH2 0x5C0A JUMP JUMPDEST SWAP7 JUMPDEST DUP5 DUP2 LT PUSH2 0x5CAA JUMPI POP POP POP POP POP JUMP JUMPDEST DUP1 DUP5 PUSH2 0x5CC2 PUSH2 0x5CBC PUSH2 0x5CDA SWAP5 DUP7 PUSH2 0x4CD6 JUMP JUMPDEST DUP7 PUSH2 0x48E1 JUMP JUMPDEST SWAP1 SLOAD SWAP1 PUSH1 0x3 SHL SHR AND PUSH2 0x5CD4 DUP3 DUP12 PUSH2 0x5C3C JUMP JUMPDEST MSTORE PUSH2 0x4D3D JUMP JUMPDEST PUSH2 0x5C9C JUMP JUMPDEST DUP7 SWAP2 POP PUSH2 0x5C87 JUMP JUMPDEST POP POP POP POP SWAP1 SWAP2 PUSH1 0x40 MLOAD SWAP1 PUSH2 0x5CFA DUP3 PUSH2 0x4A9C JUMP JUMPDEST DUP1 DUP3 MSTORE CALLDATASIZE DUP2 CALLDATACOPY SWAP2 SWAP1 JUMP JUMPDEST ISZERO PUSH2 0x5D0B JUMPI JUMP JUMPDEST PUSH1 0x40 MLOAD PUSH3 0x461BCD PUSH1 0xE5 SHL DUP2 MSTORE PUSH1 0x20 PUSH1 0x4 DUP3 ADD MSTORE PUSH1 0x18 PUSH1 0x24 DUP3 ADD MSTORE PUSH32 0x4D4C4D3A20496E646578206F7574206F6620626F756E64730000000000000000 PUSH1 0x44 DUP3 ADD MSTORE PUSH1 0x64 SWAP1 REVERT JUMPDEST ISZERO PUSH2 0x5D57 JUMPI JUMP JUMPDEST PUSH1 0x40 MLOAD PUSH3 0x461BCD PUSH1 0xE5 SHL DUP2 MSTORE PUSH1 0x20 PUSH1 0x4 DUP3 ADD MSTORE PUSH1 0x18 PUSH1 0x24 DUP3 ADD MSTORE PUSH32 0x4D4C4D3A20496E76616C696420626F617264206C6576656C0000000000000000 PUSH1 0x44 DUP3 ADD MSTORE PUSH1 0x64 SWAP1 REVERT JUMPDEST PUSH1 0x1 PUSH1 0x1 PUSH1 0xA0 SHL SUB AND PUSH1 0x0 SWAP1 DUP2 MSTORE PUSH1 0xC PUSH1 0x20 MSTORE PUSH1 0x40 SWAP1 DUP2 SWAP1 KECCAK256 DUP1 SLOAD SWAP5 SWAP4 SWAP1 SWAP2 DUP6 DUP5 LT ISZERO PUSH2 0x5EC5 JUMPI POP PUSH2 0x5DCE SWAP1 DUP4 PUSH2 0x4CD6 JUMP JUMPDEST DUP3 DUP6 DUP3 GT PUSH2 0x5EBD JUMPI JUMPDEST PUSH2 0x5DE0 SWAP2 PUSH2 0x4D7C JUMP JUMPDEST SWAP2 PUSH2 0x5DEA DUP4 PUSH2 0x5C0A JUMP JUMPDEST SWAP5 PUSH2 0x5DF4 DUP5 PUSH2 0x5C0A JUMP JUMPDEST SWAP5 PUSH2 0x5DFE DUP6 PUSH2 0x5C0A JUMP JUMPDEST SWAP5 PUSH2 0x5E08 DUP2 PUSH2 0x5C0A JUMP JUMPDEST SWAP5 PUSH2 0x5E12 DUP3 PUSH2 0x5C0A JUMP JUMPDEST SWAP5 PUSH1 0x0 JUMPDEST DUP4 DUP2 LT PUSH2 0x5E23 JUMPI POP POP POP POP JUMP JUMPDEST PUSH1 0x0 NOT DUP7 ADD DUP7 DUP2 GT PUSH2 0x4CC0 JUMPI PUSH2 0x5E46 PUSH2 0x5E4C SWAP2 PUSH2 0x5E40 DUP5 DUP7 PUSH2 0x4CD6 JUMP JUMPDEST SWAP1 PUSH2 0x4D7C JUMP JUMPDEST DUP5 PUSH2 0x4FE5 JUMP JUMPDEST POP SWAP1 DUP12 PUSH2 0x5E5E DUP3 PUSH1 0xFF DUP6 SLOAD AND SWAP3 PUSH2 0x5C3C JUMP JUMPDEST PUSH1 0xC DUP3 LT ISZERO PUSH2 0x49D4 JUMPI PUSH2 0x5EB8 SWAP4 PUSH1 0xFF SWAP3 PUSH1 0x3 SWAP3 MSTORE DUP14 PUSH2 0x5E82 DUP6 PUSH1 0x1 DUP5 ADD SLOAD SWAP3 PUSH2 0x5C3C JUMP JUMPDEST MSTORE PUSH1 0x2 DUP2 ADD SLOAD PUSH2 0x5E92 DUP6 DUP16 PUSH2 0x5C3C JUMP JUMPDEST MSTORE ADD SLOAD PUSH1 0x1 PUSH1 0x1 PUSH1 0xA0 SHL SUB DUP2 AND PUSH2 0x5EA9 DUP5 DUP14 PUSH2 0x5C3C JUMP JUMPDEST MSTORE PUSH1 0xA0 SHR AND PUSH2 0x5CD4 DUP3 DUP11 PUSH2 0x5C3C JUMP JUMPDEST PUSH2 0x5E16 JUMP JUMPDEST DUP6 SWAP2 POP PUSH2 0x5DD7 JUMP JUMPDEST SWAP3 POP POP POP DUP1 MLOAD PUSH2 0x5ED4 DUP2 PUSH2 0x4A9C JUMP JUMPDEST PUSH1 0x0 DUP2 MSTORE DUP2 MLOAD SWAP4 PUSH2 0x5EE4 DUP6 PUSH2 0x4A9C JUMP JUMPDEST PUSH1 0x0 DUP6 MSTORE DUP3 MLOAD SWAP4 PUSH2 0x5EF4 DUP6 PUSH2 0x4A9C JUMP JUMPDEST PUSH1 0x0 DUP6 MSTORE DUP4 MLOAD SWAP4 PUSH2 0x5F04 DUP6 PUSH2 0x4A9C JUMP JUMPDEST PUSH1 0x0 DUP6 MSTORE MLOAD SWAP3 PUSH2 0x5F13 DUP5 PUSH2 0x4A9C JUMP JUMPDEST PUSH1 0x0 DUP5 MSTORE PUSH1 0x0 CALLDATASIZE DUP2 CALLDATACOPY SWAP6 SWAP5 SWAP4 SWAP3 SWAP2 SWAP1 JUMP JUMPDEST ISZERO PUSH2 0x5F2B JUMPI JUMP JUMPDEST PUSH1 0x40 MLOAD PUSH3 0x461BCD PUSH1 0xE5 SHL DUP2 MSTORE PUSH1 0x20 PUSH1 0x4 DUP3 ADD MSTORE PUSH1 0x14 PUSH1 0x24 DUP3 ADD MSTORE PUSH20 0x4D4C4D3A20496E76616C69642061646472657373 PUSH1 0x60 SHL PUSH1 0x44 DUP3 ADD MSTORE PUSH1 0x64 SWAP1 REVERT JUMPDEST PUSH1 0x40 SWAP2 SWAP5 SWAP4 SWAP3 PUSH2 0x5F7B DUP3 PUSH1 0x60 DUP2 ADD SWAP8 PUSH2 0x49EA JUMP JUMPDEST PUSH1 0x20 DUP3 ADD MSTORE ADD MSTORE JUMP JUMPDEST PUSH1 0xB SLOAD DUP1 ISZERO PUSH2 0x55BF JUMPI PUSH2 0x5F9A PUSH1 0xE SLOAD DUP1 SWAP3 PUSH2 0x4CD6 JUMP JUMPDEST PUSH1 0x0 NOT DUP2 ADD SWAP1 DUP2 GT PUSH2 0x4CC0 JUMPI DUP2 ISZERO PUSH2 0x5FB0 JUMPI DIV SWAP1 JUMP JUMPDEST PUSH4 0x4E487B71 PUSH1 0xE0 SHL PUSH1 0x0 MSTORE PUSH1 0x12 PUSH1 0x4 MSTORE PUSH1 0x24 PUSH1 0x0 REVERT INVALID SWAP12 PUSH24 0x9B17422D0DF92223018B32B4D1FA46E071723D6817E2486D STOP EXTCODESIZE 0xEC 0xC5 PUSH0 STOP LOG2 PUSH5 0x6970667358 0x22 SLT KECCAK256 0xD7 0x5C PUSH25 0xB557106EDA8F7E6B91C80E44BA2AC6CCD5383ADC3905FDE68C 0xE8 SLOAD DUP11 0x24 PUSH5 0x736F6C6343 STOP ADDMOD EQ STOP CALLER "},"methodIdentifiers":{"BASIS_POINTS()":"e1f1c4a7","BINARY_RATE()":"2a1a5b1b","BOARD_10_LIQUIDITY_RATE_BP()":"7d4cf0b8","BOARD_10_REWARD_RATE_BP()":"04841337","BOARD_10_SYSTEM_RATE_BP()":"b2418af8","BOARD_LIQUIDITY_RATE_BP()":"a5c34061","BOARD_MEMBERS_REQUIRED()":"4e759962","BOARD_NEXT_POOL_RATE_BP()":"9898fcd3","BOARD_REWARD_RATE_BP()":"61dba5f3","BTC_POOL_RATE()":"92446e30","GRACE_PERIOD_DURATION()":"bbc18f6f","INCOME_SPLIT_RATE()":"556415d9","MATCHING_OVERRIDE_RATE()":"fc4a36f6","MAX_USER_ID()":"ef2c5c50","MIN_USER_ID()":"ac6c264e","PRODUCT_WALLET_RATE()":"6e0881da","TOTAL_BOARDS()":"b0ac4626","WITHDRAWAL_MATCH_POOL_RATE()":"7115bba7","activatePackage(uint8)":"6aa6c0ce","adminActivateUser(address,uint256,uint256,bool,uint8)":"6207f522","adminBinaryWallet()":"d117de03","allUsers(uint256)":"a2bdedf4","autoDistributeBinaryIncome(uint256)":"57f0140a","batchFlushGracePeriods(address[])":"ce0b2122","binaryBatchSize()":"4526b4aa","boardCurrentIndex(uint256)":"f3b36bf8","boardEntryCount(address)":"f00b0093","boardPrices(uint256)":"2389e78a","btcPoolBalance(address)":"31e1f29b","btcRewardToken()":"8919d5e9","claimBinaryIncome()":"2eee563e","coinLiquidityAddress()":"39ae9efd","dailyCapping(uint256)":"4286064e","directRates(uint256)":"5a1faeb9","directReferrals(address,uint256)":"05ad3935","enterBoardPool()":"e4093a66","feeRecipient()":"46904840","flushGracePeriod(address)":"d9f9f63f","getAddressByUserId(uint256)":"8225757b","getBinaryInfo(address)":"ece2bc23","getBoardCurrentIndex(uint256)":"3ac272c2","getBoardMatrixInfo(uint256,uint256)":"d4a90286","getBoardPrice(uint256)":"47cd5191","getBoardQueueLength(uint256)":"eb63e1c2","getBtcPoolBalance(address)":"3d6bacf3","getContractBalance()":"6f9fb98a","getDirectReferrals(address)":"d2c8e0e5","getDirectReferralsPaginated(address,uint256,uint256)":"d9c842fd","getIncomeInfo(address)":"befbe97d","getMaxIncomeLimit(uint8)":"6d0364d7","getPackagePrice(uint8)":"e63619a5","getProfile(address)":"0f53a470","getTotalBatches()":"e561dddc","getTotalUsers()":"9be572f6","getUserByIndex(uint256)":"ff5d32fe","getUserIdByAddress(address)":"385399f9","getUserInfo(address)":"6386c1c7","getUserTransactionCount(address)":"d8f33840","getUserTransactionsPaginated(address,uint256,uint256)":"012685f4","isBinaryProcessor(address)":"2c2896b3","isFreeAccount(address)":"463cffe6","isRegistered(address)":"c3c5a547","mToken()":"c3b6f939","matchingOverrideMaxLevels(uint256)":"85f8f11b","maxIncomeLimit(uint256)":"8d7b5690","owner()":"8da5cb5b","packagePrices(uint256)":"179bd5c8","pause()":"8456cb59","paused()":"5c975abb","paymentToken()":"3013ce29","productWallet()":"fc3c8a0c","reactivate(uint8)":"9726b9f2","recoverToken(address,address,uint256)":"a7229fd9","register(uint256,uint256,bool)":"c24be7fb","renounceOwnership()":"715018a6","repurchase()":"d58c6172","setAdminBinaryWallet(address)":"69e94f4d","setBinaryBatchSize(uint256)":"7feef9d6","setBinaryProcessor(address,bool)":"1915d956","setBoardPrice(uint256,uint256)":"29d7f9eb","setBtcRewardToken(address)":"6f8760fe","setCoinLiquidityAddress(address)":"d3ba4f96","setDailyCapping(uint8,uint256)":"1cdc545c","setFeeRecipient(address)":"e74b981b","setMToken(address)":"b882c4d8","setMaxIncomeLimit(uint8,uint256)":"92167de2","setPackagePrice(uint8,uint256)":"fdc65d6e","setProductWallet(address)":"9a688a99","setProfile(string,string,string,string)":"55509c8f","setSystemAddress(address)":"06210197","setWithdrawalFee(uint256)":"ac1e5025","setWithdrawalUsdtRate(uint256)":"4b695586","systemAddress()":"d3e848f1","tokenDecimals()":"3b97e856","totalBinaryFlushed()":"1d64e593","transferOwnership(address)":"f2fde38b","unpause()":"3f4ba83a","updatePaymentToken(address,uint8)":"0327ef49","userIdTaken(uint256)":"0b6a9539","userIdToAddress(uint256)":"b1695201","users(address)":"a87430ba","withdraw(uint256)":"2e1a7d4d","withdrawContractFunds(address,uint256)":"2e1888b8","withdrawalFee()":"8bc7e8c4","withdrawalMatchMaxLevels(uint256)":"b33dd0c9","withdrawalUsdtRate()":"624a893d"}}}}}