{
  "_format": "hh-sol-artifact-1",
  "contractName": "MvaultBoardMatrix",
  "sourceName": "contracts/MvaultBoardMatrix.sol",
  "abi": [
    {
      "inputs": [
        {
          "internalType": "address",
          "name": "_usdt",
          "type": "address"
        }
      ],
      "stateMutability": "nonpayable",
      "type": "constructor"
    },
    {
      "inputs": [
        {
          "internalType": "address",
          "name": "owner",
          "type": "address"
        }
      ],
      "name": "OwnableInvalidOwner",
      "type": "error"
    },
    {
      "inputs": [
        {
          "internalType": "address",
          "name": "account",
          "type": "address"
        }
      ],
      "name": "OwnableUnauthorizedAccount",
      "type": "error"
    },
    {
      "inputs": [],
      "name": "ReentrancyGuardReentrantCall",
      "type": "error"
    },
    {
      "inputs": [
        {
          "internalType": "address",
          "name": "token",
          "type": "address"
        }
      ],
      "name": "SafeERC20FailedOperation",
      "type": "error"
    },
    {
      "anonymous": false,
      "inputs": [
        {
          "indexed": true,
          "internalType": "address",
          "name": "owner",
          "type": "address"
        },
        {
          "indexed": true,
          "internalType": "uint256",
          "name": "boardLevel",
          "type": "uint256"
        },
        {
          "indexed": false,
          "internalType": "uint256",
          "name": "reward",
          "type": "uint256"
        },
        {
          "indexed": false,
          "internalType": "uint256",
          "name": "liquidity",
          "type": "uint256"
        }
      ],
      "name": "BoardCompleted",
      "type": "event"
    },
    {
      "anonymous": false,
      "inputs": [
        {
          "indexed": true,
          "internalType": "address",
          "name": "user",
          "type": "address"
        },
        {
          "indexed": true,
          "internalType": "uint256",
          "name": "boardLevel",
          "type": "uint256"
        },
        {
          "indexed": false,
          "internalType": "uint256",
          "name": "matrixIndex",
          "type": "uint256"
        }
      ],
      "name": "BoardEntered",
      "type": "event"
    },
    {
      "anonymous": false,
      "inputs": [
        {
          "indexed": true,
          "internalType": "address",
          "name": "mvaultContract",
          "type": "address"
        }
      ],
      "name": "BoardHandlerSet",
      "type": "event"
    },
    {
      "anonymous": false,
      "inputs": [
        {
          "indexed": true,
          "internalType": "address",
          "name": "addr",
          "type": "address"
        }
      ],
      "name": "LiquidityAddressSet",
      "type": "event"
    },
    {
      "anonymous": false,
      "inputs": [
        {
          "indexed": true,
          "internalType": "address",
          "name": "previousOwner",
          "type": "address"
        },
        {
          "indexed": true,
          "internalType": "address",
          "name": "newOwner",
          "type": "address"
        }
      ],
      "name": "OwnershipTransferred",
      "type": "event"
    },
    {
      "anonymous": false,
      "inputs": [
        {
          "indexed": true,
          "internalType": "address",
          "name": "addr",
          "type": "address"
        }
      ],
      "name": "SystemAddressSet",
      "type": "event"
    },
    {
      "inputs": [],
      "name": "BASIS_POINTS",
      "outputs": [
        {
          "internalType": "uint256",
          "name": "",
          "type": "uint256"
        }
      ],
      "stateMutability": "view",
      "type": "function"
    },
    {
      "inputs": [],
      "name": "BOARD_10_LIQUIDITY_RATE_BP",
      "outputs": [
        {
          "internalType": "uint256",
          "name": "",
          "type": "uint256"
        }
      ],
      "stateMutability": "view",
      "type": "function"
    },
    {
      "inputs": [],
      "name": "BOARD_10_REWARD_RATE_BP",
      "outputs": [
        {
          "internalType": "uint256",
          "name": "",
          "type": "uint256"
        }
      ],
      "stateMutability": "view",
      "type": "function"
    },
    {
      "inputs": [],
      "name": "BOARD_10_SYSTEM_RATE_BP",
      "outputs": [
        {
          "internalType": "uint256",
          "name": "",
          "type": "uint256"
        }
      ],
      "stateMutability": "view",
      "type": "function"
    },
    {
      "inputs": [],
      "name": "BOARD_LIQUIDITY_RATE_BP",
      "outputs": [
        {
          "internalType": "uint256",
          "name": "",
          "type": "uint256"
        }
      ],
      "stateMutability": "view",
      "type": "function"
    },
    {
      "inputs": [],
      "name": "BOARD_MEMBERS_REQUIRED",
      "outputs": [
        {
          "internalType": "uint256",
          "name": "",
          "type": "uint256"
        }
      ],
      "stateMutability": "view",
      "type": "function"
    },
    {
      "inputs": [],
      "name": "BOARD_NEXT_POOL_RATE_BP",
      "outputs": [
        {
          "internalType": "uint256",
          "name": "",
          "type": "uint256"
        }
      ],
      "stateMutability": "view",
      "type": "function"
    },
    {
      "inputs": [],
      "name": "BOARD_POOL_MEMBERS",
      "outputs": [
        {
          "internalType": "uint256",
          "name": "",
          "type": "uint256"
        }
      ],
      "stateMutability": "view",
      "type": "function"
    },
    {
      "inputs": [],
      "name": "BOARD_REWARD_RATE_BP",
      "outputs": [
        {
          "internalType": "uint256",
          "name": "",
          "type": "uint256"
        }
      ],
      "stateMutability": "view",
      "type": "function"
    },
    {
      "inputs": [],
      "name": "TOTAL_BOARDS",
      "outputs": [
        {
          "internalType": "uint256",
          "name": "",
          "type": "uint256"
        }
      ],
      "stateMutability": "view",
      "type": "function"
    },
    {
      "inputs": [
        {
          "internalType": "uint256",
          "name": "",
          "type": "uint256"
        }
      ],
      "name": "boardCurrentIndex",
      "outputs": [
        {
          "internalType": "uint256",
          "name": "",
          "type": "uint256"
        }
      ],
      "stateMutability": "view",
      "type": "function"
    },
    {
      "inputs": [
        {
          "internalType": "address",
          "name": "",
          "type": "address"
        }
      ],
      "name": "boardEntryCount",
      "outputs": [
        {
          "internalType": "uint256",
          "name": "",
          "type": "uint256"
        }
      ],
      "stateMutability": "view",
      "type": "function"
    },
    {
      "inputs": [
        {
          "internalType": "uint256",
          "name": "",
          "type": "uint256"
        }
      ],
      "name": "boardPrices",
      "outputs": [
        {
          "internalType": "uint256",
          "name": "",
          "type": "uint256"
        }
      ],
      "stateMutability": "view",
      "type": "function"
    },
    {
      "inputs": [
        {
          "internalType": "address",
          "name": "_user",
          "type": "address"
        },
        {
          "internalType": "uint256",
          "name": "_boardLevel",
          "type": "uint256"
        }
      ],
      "name": "enterBoard",
      "outputs": [],
      "stateMutability": "nonpayable",
      "type": "function"
    },
    {
      "inputs": [
        {
          "internalType": "uint256",
          "name": "_level",
          "type": "uint256"
        }
      ],
      "name": "getBoardCurrentIndex",
      "outputs": [
        {
          "internalType": "uint256",
          "name": "",
          "type": "uint256"
        }
      ],
      "stateMutability": "view",
      "type": "function"
    },
    {
      "inputs": [
        {
          "internalType": "uint256",
          "name": "_level",
          "type": "uint256"
        },
        {
          "internalType": "uint256",
          "name": "_index",
          "type": "uint256"
        }
      ],
      "name": "getBoardMatrixInfo",
      "outputs": [
        {
          "internalType": "address",
          "name": "owner",
          "type": "address"
        },
        {
          "internalType": "uint256",
          "name": "filledCount",
          "type": "uint256"
        },
        {
          "internalType": "bool",
          "name": "completed",
          "type": "bool"
        }
      ],
      "stateMutability": "view",
      "type": "function"
    },
    {
      "inputs": [
        {
          "internalType": "uint256",
          "name": "_level",
          "type": "uint256"
        }
      ],
      "name": "getBoardPrice",
      "outputs": [
        {
          "internalType": "uint256",
          "name": "",
          "type": "uint256"
        }
      ],
      "stateMutability": "view",
      "type": "function"
    },
    {
      "inputs": [
        {
          "internalType": "uint256",
          "name": "_level",
          "type": "uint256"
        }
      ],
      "name": "getBoardQueueLength",
      "outputs": [
        {
          "internalType": "uint256",
          "name": "",
          "type": "uint256"
        }
      ],
      "stateMutability": "view",
      "type": "function"
    },
    {
      "inputs": [
        {
          "internalType": "address",
          "name": "_user",
          "type": "address"
        }
      ],
      "name": "getUserBoardStats",
      "outputs": [
        {
          "internalType": "uint256",
          "name": "totalEntries",
          "type": "uint256"
        },
        {
          "internalType": "uint256",
          "name": "totalRewards",
          "type": "uint256"
        }
      ],
      "stateMutability": "view",
      "type": "function"
    },
    {
      "inputs": [],
      "name": "liquidityAddress",
      "outputs": [
        {
          "internalType": "address",
          "name": "",
          "type": "address"
        }
      ],
      "stateMutability": "view",
      "type": "function"
    },
    {
      "inputs": [],
      "name": "mvaultContract",
      "outputs": [
        {
          "internalType": "address",
          "name": "",
          "type": "address"
        }
      ],
      "stateMutability": "view",
      "type": "function"
    },
    {
      "inputs": [],
      "name": "owner",
      "outputs": [
        {
          "internalType": "address",
          "name": "",
          "type": "address"
        }
      ],
      "stateMutability": "view",
      "type": "function"
    },
    {
      "inputs": [
        {
          "internalType": "address",
          "name": "_token",
          "type": "address"
        },
        {
          "internalType": "address",
          "name": "_to",
          "type": "address"
        },
        {
          "internalType": "uint256",
          "name": "_amount",
          "type": "uint256"
        }
      ],
      "name": "recoverToken",
      "outputs": [],
      "stateMutability": "nonpayable",
      "type": "function"
    },
    {
      "inputs": [],
      "name": "renounceOwnership",
      "outputs": [],
      "stateMutability": "nonpayable",
      "type": "function"
    },
    {
      "inputs": [
        {
          "internalType": "uint256",
          "name": "_level",
          "type": "uint256"
        },
        {
          "internalType": "uint256",
          "name": "_price",
          "type": "uint256"
        }
      ],
      "name": "setBoardPrice",
      "outputs": [],
      "stateMutability": "nonpayable",
      "type": "function"
    },
    {
      "inputs": [
        {
          "internalType": "address",
          "name": "_addr",
          "type": "address"
        }
      ],
      "name": "setLiquidityAddress",
      "outputs": [],
      "stateMutability": "nonpayable",
      "type": "function"
    },
    {
      "inputs": [
        {
          "internalType": "address",
          "name": "_mvault",
          "type": "address"
        }
      ],
      "name": "setMvaultContract",
      "outputs": [],
      "stateMutability": "nonpayable",
      "type": "function"
    },
    {
      "inputs": [
        {
          "internalType": "address",
          "name": "_addr",
          "type": "address"
        }
      ],
      "name": "setSystemAddress",
      "outputs": [],
      "stateMutability": "nonpayable",
      "type": "function"
    },
    {
      "inputs": [],
      "name": "systemAddress",
      "outputs": [
        {
          "internalType": "address",
          "name": "",
          "type": "address"
        }
      ],
      "stateMutability": "view",
      "type": "function"
    },
    {
      "inputs": [
        {
          "internalType": "address",
          "name": "",
          "type": "address"
        }
      ],
      "name": "totalBoardRewardsEarned",
      "outputs": [
        {
          "internalType": "uint256",
          "name": "",
          "type": "uint256"
        }
      ],
      "stateMutability": "view",
      "type": "function"
    },
    {
      "inputs": [
        {
          "internalType": "address",
          "name": "newOwner",
          "type": "address"
        }
      ],
      "name": "transferOwnership",
      "outputs": [],
      "stateMutability": "nonpayable",
      "type": "function"
    },
    {
      "inputs": [],
      "name": "usdtToken",
      "outputs": [
        {
          "internalType": "contract IERC20",
          "name": "",
          "type": "address"
        }
      ],
      "stateMutability": "view",
      "type": "function"
    }
  ],
  "bytecode": "0x60a0346101c957601f6112c938819003918201601f19168301916001600160401b038311848410176101ce578084926020946040528339810103126101c957516001600160a01b03808216918290036101c95733156101b0576000543360018060a01b0319821617600055604051913391167f8be0079c531659141344cd1fd0a4f28419497f9722a3daafe3b4186f6b6457e0600080a360017f9b779b17422d0df92223018b32b4d1fa46e071723d6817e2486d003becc55f0055811561018957506080526802b5e3af16b18800006006556809c2007651b2500000600755682320ce76bfb5200000600855687e78e1033c7a5400006009556901c741a9797d32780000600a55690666ef28a6b370c40000600b5569170c2c8c1643843c0000600c556952f8a8b2575eda140000600d556a012ab256fb3350130c0000600e556a04334ed2bb8586aaf80000600f556040516110e490816101e582396080518181816103dc01528181610d7301528181610e5601528181610e9001528181610f8a01526110360152f35b62461bcd60e51b81526020600482015260026024820152615a4160f01b6044820152606490fd5b604051631e4fbdf760e01b815260006004820152602490fd5b600080fd5b634e487b7160e01b600052604160045260246000fdfe60806040908082526004908136101561001757600080fd5b600090813560e01c90816304841337146108ba57508063062101971461084b5780632335821b146108145780632389e78a146107e757806329d7f9eb1461075a5780633221c93f146107315780633ac272c2146101c957806347cd5191146106d05780634b7fede0146106b45780634e75996214610698578063525fa81f1461062957806361dba5f314610480578063686a38bd1461058d578063715018a6146105455780637d4cf0b8146103a657806382b20202146104d65780638da5cb5b146104ae578063912a6a3a146104855780639898fcd314610480578063a5c3406114610463578063a7229fd91461040b578063a98ad46c146103c7578063b0ac4626146103ab578063b2418af8146103a6578063d3e848f11461037d578063d4a90286146102ee578063e1f1c4a7146102d1578063eb63e1c2146102a8578063f00b00931461026c578063f2fde38b146101f6578063f3b36bf8146101c95763fb72ca351461018557600080fd5b346101c65760203660031901126101c65782906001600160a01b036101a86108d6565b16815260036020528181205492602052205482519182526020820152f35b80fd5b509190346101f25760203660031901126101f25760209282913581526002845220549051908152f35b8280fd5b509190346101f25760203660031901126101f2576102126108d6565b9061021b610979565b6001600160a01b0391821692831561025657505082546001600160a01b03198116831784551660008051602061108f8339815191528380a380f35b51631e4fbdf760e01b8152908101849052602490fd5b5082346102a45760203660031901126102a45760209181906001600160a01b036102946108d6565b1681526003845220549051908152f35b5080fd5b509190346101f25760203660031901126101f25760209282913581526001845220549051908152f35b5082346102a457816003193601126102a457602090516127108152f35b50346101c6576102fd36610919565b9281835260016020528483205484101561035557606085610328868287878152600160205220610a3c565b509060018060a01b038254169160ff60026001830154920154169082519384526020840152151590820152f35b606490602086519162461bcd60e51b8352820152600260248201526127a160f11b6044820152fd5b5082346102a457816003193601126102a45760125490516001600160a01b039091168152602090f35b61094c565b5082346102a457816003193601126102a45760209051600a8152f35b5082346102a457816003193601126102a457517f00000000000000000000000000000000000000000000000000000000000000006001600160a01b03168152602090f35b50346101c65760603660031901126101c6576104256108d6565b6001600160a01b03602435818116929183820361045f5761045261045c9461044b610979565b15156109a5565b6044359216610ec4565b80f35b8480fd5b5082346102a457816003193601126102a457602090516107d08152f35b61092f565b5082346102a457816003193601126102a45760105490516001600160a01b039091168152602090f35b5082346102a457816003193601126102a457905490516001600160a01b039091168152602090f35b50346101c65760203660031901126101c6576104f06108d6565b6104f8610979565b6001600160a01b031661050c8115156109a5565b601080546001600160a01b031916821790557fbb7f7a4723348c574d05b1ac3745e0e61d0f9dd743edb6fb146c91b28dded54a8280a280f35b50346101c657806003193601126101c65761055e610979565b80546001600160a01b03198116825581906001600160a01b031660008051602061108f8339815191528280a380f35b5090346102a457826003193601126102a4576105a76108d6565b6010546024359290336001600160a01b039182161490811561061c575b50156105f457509061045c916001821015806105e9575b6105e4906109d6565b610b0c565b50600a8211156105db565b606490602086519162461bcd60e51b835282015260026024820152614e4160f01b6044820152fd5b90508454163314386105c4565b50346101c65760203660031901126101c6576106436108d6565b61064b610979565b6001600160a01b031661065f8115156109a5565b601180546001600160a01b031916821790557fab7b7de49b58c7a7fe6b06ca3d3f8bb2abb971d7f68001e7309ef98fe2d855398280a280f35b5082346102a457816003193601126102a45760209051600c8152f35b5082346102a457816003193601126102a4576020905160098152f35b508290346101c65760203660031901126101c657823590600182101580610726575b6106fb906109d6565b600b8210156107135760208383600501549051908152f35b634e487b7160e01b815260328452602490fd5b50600a8211156106f2565b5082346102a457816003193601126102a45760115490516001600160a01b039091168152602090f35b5091346101f25761076a36610919565b929091610775610979565b6001831015806107dc575b610789906109d6565b83156107b45750600b8210156107a157506005015580f35b634e487b7160e01b845260329052602483fd5b906020606492519162461bcd60e51b83528201526002602482015261050360f41b6044820152fd5b50600a831115610780565b509190346101f25760203660031901126101f25735600b8110156101f25760209250600501549051908152f35b509190346101f25760203660031901126101f25760209282916001600160a01b0361083d6108d6565b168252845220549051908152f35b50346101c65760203660031901126101c6576108656108d6565b61086d610979565b6001600160a01b03166108818115156109a5565b601280546001600160a01b031916821790557fd585f32d2260b0cd69a1e4fc82ffedfebdacbc10727ee026264133ba6d20f8e78280a280f35b9050346102a457816003193601126102a4578061222e60209252f35b600435906001600160a01b03821682036108ec57565b600080fd5b600b8110156109035760050190600090565b634e487b7160e01b600052603260045260246000fd5b60409060031901126108ec576004359060243590565b346108ec5760003660031901126108ec576020604051610fa08152f35b346108ec5760003660031901126108ec5760206040516102718152f35b6000526001602052604060002090565b6000546001600160a01b0316330361098d57565b60405163118cdaa760e01b8152336004820152602490fd5b156109ac57565b60405162461bcd60e51b81526020600482015260026024820152615a4160f01b6044820152606490fd5b156109dd57565b60405162461bcd60e51b8152602060048201526002602482015261109360f21b6044820152606490fd5b60405190606082016001600160401b03811183821017610a2657604052565b634e487b7160e01b600052604160045260246000fd5b8054821015610903576000526003602060002091020190600090565b8054600160401b811015610a2657610a7591600182018155610a3c565b610ab457600260409160018060a01b0384511660018060a01b03198254161781556020840151600182015501910151151560ff80198354169116179055565b634e487b7160e01b600052600060045260246000fd5b600019810191908211610ad957565b634e487b7160e01b600052601160045260246000fd5b6000198114610ad95760010190565b9060018201809211610ad957565b90610b41610b1982610969565b610b21610a07565b6001600160a01b0385168152906000602083015260006040830152610a58565b80610b54610b4e82610969565b54610aca565b6001600160a01b0384166000908152600360205260409020909390610b798154610aef565b90556040518481526001600160a01b0391909116907f4e755dd64e53a9f7a5882e2e32eb64718c2273de11e017bd47129b9fe2716d7c90602090a3610bc8816000526002602052604060002090565b54918210610bd4575050565b610be682610be183610969565b610a3c565b5091600c60018401610bf88154610aef565b8091551015610c07575b505050565b82610c2b610c4d92610c266002610c529701600160ff19825416179055565b610afe565b610c3f846000526002602052604060002090565b55546001600160a01b031690565b610cc6565b565b90600982029180830460091490151715610ad957565b9061222e91828102928184041490151715610ad957565b9061027191828102928184041490151715610ad957565b90610fa091828102928184041490151715610ad957565b906107d091828102928184041490151715610ad957565b610ce4610cdf610cd5846108f1565b90549060031b1c90565b610c54565b600a831015610da75782610c52938260008051602061106f833981519152610d25610d17610d1f610d17610d6798610c98565b612710900490565b93610caf565b610d30848489610f45565b6011546001600160a01b039081168281151580610d9e575b610d6d575b5050604080519485526020850192909252871692a3610afe565b90610b0c565b610d97917f0000000000000000000000000000000000000000000000000000000000000000610ec4565b3882610d4d565b50801515610d48565b80610dc3610d1760008051602061106f83398151915293610c6a565b92610e4b610ddf610d17610dd9610d1786610c81565b94610c81565b610dea878785610f45565b6012546001600160a01b03166001600160a01b0394818616151580610ebb575b610e8a575b50506011546001600160a01b031681858216151580610e81575b610e50575b505060405193849316958360209093929193604081019481520152565b0390a3565b610e7a917f0000000000000000000000000000000000000000000000000000000000000000610ec4565b3881610e2e565b50801515610e29565b610eb4917f0000000000000000000000000000000000000000000000000000000000000000610ec4565b3880610e0f565b50801515610e0a565b60405163a9059cbb60e01b60009081526001600160a01b039384166004526024949094529260209060448180855af1600160005114811615610f25575b8360405215610f0f57505050565b635274afe760e01b835216600482015260249150fd5b6001811516610f3b57813b15153d151616610f01565b833d6000823e3d90fd5b908015610c025760018060a01b038083169060009382855260046020526040852080549085820180921161105a575560105482161561102a5750610fae8382601054167f0000000000000000000000000000000000000000000000000000000000000000610ec4565b60105416803b1561102657839291836064926040519788958694633c2dee7760e21b86526004860152602485015260448401525af1801561101957610ff1575050565b6001600160401b0382116110055750604052565b634e487b7160e01b81526041600452602490fd5b50604051903d90823e3d90fd5b8380fd5b9293505050610c5292507f0000000000000000000000000000000000000000000000000000000000000000610ec4565b634e487b7160e01b87526011600452602487fdfec9dfd5046e5f1be95c560d1b85295f8afd28d0102c20e0b4112b88bd328ca4338be0079c531659141344cd1fd0a4f28419497f9722a3daafe3b4186f6b6457e0a264697066735822122095d0d7a042ef78643ce691d4669a07f047b3c775a749de2c7537c6fe8d07645364736f6c63430008140033",
  "linkReferences": {},
  "deployedLinkReferences": {}
}