{
  "_format": "hh-sol-artifact-1",
  "contractName": "MvaultToken",
  "sourceName": "contracts/MvaultToken.sol",
  "abi": [
    {
      "inputs": [
        {
          "internalType": "address",
          "name": "_usdt",
          "type": "address"
        }
      ],
      "stateMutability": "nonpayable",
      "type": "constructor"
    },
    {
      "inputs": [
        {
          "internalType": "address",
          "name": "spender",
          "type": "address"
        },
        {
          "internalType": "uint256",
          "name": "allowance",
          "type": "uint256"
        },
        {
          "internalType": "uint256",
          "name": "needed",
          "type": "uint256"
        }
      ],
      "name": "ERC20InsufficientAllowance",
      "type": "error"
    },
    {
      "inputs": [
        {
          "internalType": "address",
          "name": "sender",
          "type": "address"
        },
        {
          "internalType": "uint256",
          "name": "balance",
          "type": "uint256"
        },
        {
          "internalType": "uint256",
          "name": "needed",
          "type": "uint256"
        }
      ],
      "name": "ERC20InsufficientBalance",
      "type": "error"
    },
    {
      "inputs": [
        {
          "internalType": "address",
          "name": "approver",
          "type": "address"
        }
      ],
      "name": "ERC20InvalidApprover",
      "type": "error"
    },
    {
      "inputs": [
        {
          "internalType": "address",
          "name": "receiver",
          "type": "address"
        }
      ],
      "name": "ERC20InvalidReceiver",
      "type": "error"
    },
    {
      "inputs": [
        {
          "internalType": "address",
          "name": "sender",
          "type": "address"
        }
      ],
      "name": "ERC20InvalidSender",
      "type": "error"
    },
    {
      "inputs": [
        {
          "internalType": "address",
          "name": "spender",
          "type": "address"
        }
      ],
      "name": "ERC20InvalidSpender",
      "type": "error"
    },
    {
      "inputs": [],
      "name": "InsufficientBalance",
      "type": "error"
    },
    {
      "inputs": [],
      "name": "InsufficientLiquidity",
      "type": "error"
    },
    {
      "inputs": [],
      "name": "OnlyMvault",
      "type": "error"
    },
    {
      "inputs": [
        {
          "internalType": "address",
          "name": "owner",
          "type": "address"
        }
      ],
      "name": "OwnableInvalidOwner",
      "type": "error"
    },
    {
      "inputs": [
        {
          "internalType": "address",
          "name": "account",
          "type": "address"
        }
      ],
      "name": "OwnableUnauthorizedAccount",
      "type": "error"
    },
    {
      "inputs": [],
      "name": "ReentrancyGuardReentrantCall",
      "type": "error"
    },
    {
      "inputs": [],
      "name": "TransferFailed",
      "type": "error"
    },
    {
      "inputs": [],
      "name": "ZeroAddress",
      "type": "error"
    },
    {
      "inputs": [],
      "name": "ZeroAmount",
      "type": "error"
    },
    {
      "anonymous": false,
      "inputs": [
        {
          "indexed": true,
          "internalType": "address",
          "name": "owner",
          "type": "address"
        },
        {
          "indexed": true,
          "internalType": "address",
          "name": "spender",
          "type": "address"
        },
        {
          "indexed": false,
          "internalType": "uint256",
          "name": "value",
          "type": "uint256"
        }
      ],
      "name": "Approval",
      "type": "event"
    },
    {
      "anonymous": false,
      "inputs": [
        {
          "indexed": true,
          "internalType": "address",
          "name": "oldContract",
          "type": "address"
        },
        {
          "indexed": true,
          "internalType": "address",
          "name": "newContract",
          "type": "address"
        }
      ],
      "name": "MvaultContractUpdated",
      "type": "event"
    },
    {
      "anonymous": false,
      "inputs": [
        {
          "indexed": true,
          "internalType": "address",
          "name": "previousOwner",
          "type": "address"
        },
        {
          "indexed": true,
          "internalType": "address",
          "name": "newOwner",
          "type": "address"
        }
      ],
      "name": "OwnershipTransferred",
      "type": "event"
    },
    {
      "anonymous": false,
      "inputs": [
        {
          "indexed": false,
          "internalType": "uint256",
          "name": "newBuyPrice",
          "type": "uint256"
        },
        {
          "indexed": false,
          "internalType": "uint256",
          "name": "newSellPrice",
          "type": "uint256"
        }
      ],
      "name": "PriceUpdated",
      "type": "event"
    },
    {
      "anonymous": false,
      "inputs": [
        {
          "indexed": true,
          "internalType": "address",
          "name": "from",
          "type": "address"
        },
        {
          "indexed": false,
          "internalType": "uint256",
          "name": "mvtAmount",
          "type": "uint256"
        },
        {
          "indexed": false,
          "internalType": "uint256",
          "name": "usdtAmount",
          "type": "uint256"
        }
      ],
      "name": "TokensBurned",
      "type": "event"
    },
    {
      "anonymous": false,
      "inputs": [
        {
          "indexed": true,
          "internalType": "address",
          "name": "to",
          "type": "address"
        },
        {
          "indexed": false,
          "internalType": "uint256",
          "name": "usdtAmount",
          "type": "uint256"
        },
        {
          "indexed": false,
          "internalType": "uint256",
          "name": "mvtAmount",
          "type": "uint256"
        }
      ],
      "name": "TokensMinted",
      "type": "event"
    },
    {
      "anonymous": false,
      "inputs": [
        {
          "indexed": true,
          "internalType": "address",
          "name": "from",
          "type": "address"
        },
        {
          "indexed": true,
          "internalType": "address",
          "name": "to",
          "type": "address"
        },
        {
          "indexed": false,
          "internalType": "uint256",
          "name": "value",
          "type": "uint256"
        }
      ],
      "name": "Transfer",
      "type": "event"
    },
    {
      "inputs": [],
      "name": "INITIAL_PRICE",
      "outputs": [
        {
          "internalType": "uint256",
          "name": "",
          "type": "uint256"
        }
      ],
      "stateMutability": "view",
      "type": "function"
    },
    {
      "inputs": [],
      "name": "MINT_PERCENTAGE",
      "outputs": [
        {
          "internalType": "uint256",
          "name": "",
          "type": "uint256"
        }
      ],
      "stateMutability": "view",
      "type": "function"
    },
    {
      "inputs": [],
      "name": "SELL_PERCENTAGE",
      "outputs": [
        {
          "internalType": "uint256",
          "name": "",
          "type": "uint256"
        }
      ],
      "stateMutability": "view",
      "type": "function"
    },
    {
      "inputs": [
        {
          "internalType": "address",
          "name": "_to",
          "type": "address"
        },
        {
          "internalType": "uint256",
          "name": "_usdtAmount",
          "type": "uint256"
        }
      ],
      "name": "addLiquidityAndMint",
      "outputs": [],
      "stateMutability": "nonpayable",
      "type": "function"
    },
    {
      "inputs": [
        {
          "internalType": "address",
          "name": "owner",
          "type": "address"
        },
        {
          "internalType": "address",
          "name": "spender",
          "type": "address"
        }
      ],
      "name": "allowance",
      "outputs": [
        {
          "internalType": "uint256",
          "name": "",
          "type": "uint256"
        }
      ],
      "stateMutability": "view",
      "type": "function"
    },
    {
      "inputs": [
        {
          "internalType": "address",
          "name": "spender",
          "type": "address"
        },
        {
          "internalType": "uint256",
          "name": "value",
          "type": "uint256"
        }
      ],
      "name": "approve",
      "outputs": [
        {
          "internalType": "bool",
          "name": "",
          "type": "bool"
        }
      ],
      "stateMutability": "nonpayable",
      "type": "function"
    },
    {
      "inputs": [
        {
          "internalType": "address",
          "name": "account",
          "type": "address"
        }
      ],
      "name": "balanceOf",
      "outputs": [
        {
          "internalType": "uint256",
          "name": "",
          "type": "uint256"
        }
      ],
      "stateMutability": "view",
      "type": "function"
    },
    {
      "inputs": [],
      "name": "decimals",
      "outputs": [
        {
          "internalType": "uint8",
          "name": "",
          "type": "uint8"
        }
      ],
      "stateMutability": "pure",
      "type": "function"
    },
    {
      "inputs": [],
      "name": "getBuyPrice",
      "outputs": [
        {
          "internalType": "uint256",
          "name": "",
          "type": "uint256"
        }
      ],
      "stateMutability": "view",
      "type": "function"
    },
    {
      "inputs": [
        {
          "internalType": "address",
          "name": "user",
          "type": "address"
        },
        {
          "internalType": "uint256",
          "name": "count",
          "type": "uint256"
        }
      ],
      "name": "getRecentTransfers",
      "outputs": [
        {
          "internalType": "uint256[]",
          "name": "usdtAmounts",
          "type": "uint256[]"
        },
        {
          "internalType": "uint256[]",
          "name": "mvtAmounts",
          "type": "uint256[]"
        },
        {
          "internalType": "uint256[]",
          "name": "timestamps",
          "type": "uint256[]"
        },
        {
          "internalType": "uint8[]",
          "name": "types",
          "type": "uint8[]"
        }
      ],
      "stateMutability": "view",
      "type": "function"
    },
    {
      "inputs": [],
      "name": "getSellPrice",
      "outputs": [
        {
          "internalType": "uint256",
          "name": "",
          "type": "uint256"
        }
      ],
      "stateMutability": "view",
      "type": "function"
    },
    {
      "inputs": [],
      "name": "getTotalAvailableTokens",
      "outputs": [
        {
          "internalType": "uint256",
          "name": "",
          "type": "uint256"
        }
      ],
      "stateMutability": "view",
      "type": "function"
    },
    {
      "inputs": [
        {
          "internalType": "address",
          "name": "user",
          "type": "address"
        }
      ],
      "name": "getTotalBurnedByUser",
      "outputs": [
        {
          "internalType": "uint256",
          "name": "",
          "type": "uint256"
        }
      ],
      "stateMutability": "view",
      "type": "function"
    },
    {
      "inputs": [],
      "name": "getTotalBurnedTokens",
      "outputs": [
        {
          "internalType": "uint256",
          "name": "",
          "type": "uint256"
        }
      ],
      "stateMutability": "view",
      "type": "function"
    },
    {
      "inputs": [],
      "name": "getTotalLiquidity",
      "outputs": [
        {
          "internalType": "uint256",
          "name": "",
          "type": "uint256"
        }
      ],
      "stateMutability": "view",
      "type": "function"
    },
    {
      "inputs": [],
      "name": "getTotalMintedTokens",
      "outputs": [
        {
          "internalType": "uint256",
          "name": "",
          "type": "uint256"
        }
      ],
      "stateMutability": "view",
      "type": "function"
    },
    {
      "inputs": [
        {
          "internalType": "address",
          "name": "user",
          "type": "address"
        }
      ],
      "name": "getTotalReceivedByUser",
      "outputs": [
        {
          "internalType": "uint256",
          "name": "",
          "type": "uint256"
        }
      ],
      "stateMutability": "view",
      "type": "function"
    },
    {
      "inputs": [
        {
          "internalType": "address",
          "name": "user",
          "type": "address"
        }
      ],
      "name": "getUserTransferCount",
      "outputs": [
        {
          "internalType": "uint256",
          "name": "",
          "type": "uint256"
        }
      ],
      "stateMutability": "view",
      "type": "function"
    },
    {
      "inputs": [
        {
          "internalType": "address",
          "name": "user",
          "type": "address"
        },
        {
          "internalType": "uint256",
          "name": "start",
          "type": "uint256"
        },
        {
          "internalType": "uint256",
          "name": "limit",
          "type": "uint256"
        }
      ],
      "name": "getUserTransferHistory",
      "outputs": [
        {
          "internalType": "uint256[]",
          "name": "usdtAmounts",
          "type": "uint256[]"
        },
        {
          "internalType": "uint256[]",
          "name": "mvtAmounts",
          "type": "uint256[]"
        },
        {
          "internalType": "uint256[]",
          "name": "timestamps",
          "type": "uint256[]"
        },
        {
          "internalType": "uint8[]",
          "name": "types",
          "type": "uint8[]"
        }
      ],
      "stateMutability": "view",
      "type": "function"
    },
    {
      "inputs": [],
      "name": "mvaultContract",
      "outputs": [
        {
          "internalType": "address",
          "name": "",
          "type": "address"
        }
      ],
      "stateMutability": "view",
      "type": "function"
    },
    {
      "inputs": [],
      "name": "name",
      "outputs": [
        {
          "internalType": "string",
          "name": "",
          "type": "string"
        }
      ],
      "stateMutability": "view",
      "type": "function"
    },
    {
      "inputs": [],
      "name": "owner",
      "outputs": [
        {
          "internalType": "address",
          "name": "",
          "type": "address"
        }
      ],
      "stateMutability": "view",
      "type": "function"
    },
    {
      "inputs": [],
      "name": "renounceOwnership",
      "outputs": [],
      "stateMutability": "nonpayable",
      "type": "function"
    },
    {
      "inputs": [
        {
          "internalType": "uint256",
          "name": "_amount",
          "type": "uint256"
        }
      ],
      "name": "sell",
      "outputs": [],
      "stateMutability": "nonpayable",
      "type": "function"
    },
    {
      "inputs": [
        {
          "internalType": "address",
          "name": "_contract",
          "type": "address"
        }
      ],
      "name": "setMvaultContract",
      "outputs": [],
      "stateMutability": "nonpayable",
      "type": "function"
    },
    {
      "inputs": [],
      "name": "symbol",
      "outputs": [
        {
          "internalType": "string",
          "name": "",
          "type": "string"
        }
      ],
      "stateMutability": "view",
      "type": "function"
    },
    {
      "inputs": [],
      "name": "totalBurned",
      "outputs": [
        {
          "internalType": "uint256",
          "name": "",
          "type": "uint256"
        }
      ],
      "stateMutability": "view",
      "type": "function"
    },
    {
      "inputs": [
        {
          "internalType": "address",
          "name": "",
          "type": "address"
        }
      ],
      "name": "totalBurnedByUser",
      "outputs": [
        {
          "internalType": "uint256",
          "name": "",
          "type": "uint256"
        }
      ],
      "stateMutability": "view",
      "type": "function"
    },
    {
      "inputs": [],
      "name": "totalLiquidity",
      "outputs": [
        {
          "internalType": "uint256",
          "name": "",
          "type": "uint256"
        }
      ],
      "stateMutability": "view",
      "type": "function"
    },
    {
      "inputs": [],
      "name": "totalMinted",
      "outputs": [
        {
          "internalType": "uint256",
          "name": "",
          "type": "uint256"
        }
      ],
      "stateMutability": "view",
      "type": "function"
    },
    {
      "inputs": [
        {
          "internalType": "address",
          "name": "",
          "type": "address"
        }
      ],
      "name": "totalReceivedByUser",
      "outputs": [
        {
          "internalType": "uint256",
          "name": "",
          "type": "uint256"
        }
      ],
      "stateMutability": "view",
      "type": "function"
    },
    {
      "inputs": [],
      "name": "totalSupply",
      "outputs": [
        {
          "internalType": "uint256",
          "name": "",
          "type": "uint256"
        }
      ],
      "stateMutability": "view",
      "type": "function"
    },
    {
      "inputs": [
        {
          "internalType": "address",
          "name": "to",
          "type": "address"
        },
        {
          "internalType": "uint256",
          "name": "value",
          "type": "uint256"
        }
      ],
      "name": "transfer",
      "outputs": [
        {
          "internalType": "bool",
          "name": "",
          "type": "bool"
        }
      ],
      "stateMutability": "nonpayable",
      "type": "function"
    },
    {
      "inputs": [
        {
          "internalType": "address",
          "name": "from",
          "type": "address"
        },
        {
          "internalType": "address",
          "name": "to",
          "type": "address"
        },
        {
          "internalType": "uint256",
          "name": "value",
          "type": "uint256"
        }
      ],
      "name": "transferFrom",
      "outputs": [
        {
          "internalType": "bool",
          "name": "",
          "type": "bool"
        }
      ],
      "stateMutability": "nonpayable",
      "type": "function"
    },
    {
      "inputs": [
        {
          "internalType": "address",
          "name": "newOwner",
          "type": "address"
        }
      ],
      "name": "transferOwnership",
      "outputs": [],
      "stateMutability": "nonpayable",
      "type": "function"
    },
    {
      "inputs": [],
      "name": "usdtToken",
      "outputs": [
        {
          "internalType": "contract IERC20",
          "name": "",
          "type": "address"
        }
      ],
      "stateMutability": "view",
      "type": "function"
    },
    {
      "inputs": [
        {
          "internalType": "address",
          "name": "to",
          "type": "address"
        },
        {
          "internalType": "uint256",
          "name": "amount",
          "type": "uint256"
        }
      ],
      "name": "withdrawUSDT",
      "outputs": [],
      "stateMutability": "nonpayable",
      "type": "function"
    }
  ],
  "bytecode": "0x60a034620003fa57601f90601f196001600160401b0362001b29388190038581018416850183811186821017620002fe57859282916040528339602094859181010312620003fa57516001600160a01b038082169490929091859003620003fa576200006a620003ff565b91600c83526b26bb30bab63a102a37b5b2b760a11b818401526200008d620003ff565b966003918289526213559560ea1b818a01528451848111620002fe5783546001968782811c92168015620003ef575b84831014620003d957818584931162000383575b508390858311600114620003205760009262000314575b505060001982861b1c191690861b1783555b8851938411620002fe5760049687548681811c91168015620002f3575b83821014620002de5783811162000293575b5081928511600114620002295750508293949596976000936200021d575b505082841b92600019911b1c19161783555b3315620002055760058054336001600160a01b03198216811790925560405193167f8be0079c531659141344cd1fd0a4f28419497f9722a3daafe3b4186f6b6457e0600080a37f9b779b17422d0df92223018b32b4d1fa46e071723d6817e2486d003becc55f00558215620001f957826080526040516117099081620004208239608051818181610380015281816105a6015281816106dd0152610d650152f35b63d92e233d60e01b8152fd5b604051631e4fbdf760e01b8152600081850152602490fd5b01519150388062000146565b60008881528281209186169a919493925b8b82106200027b57505084869798999a1062000260575b50505050811b01835562000158565b01519060f884600019921b161c191690553880808062000251565b8088859782949686015181550196019301906200023a565b88600052826000208480880160051c820192858910620002d4575b0160051c019087905b828110620002c757505062000128565b60008155018790620002b7565b92508192620002ae565b602289634e487b7160e01b6000525260246000fd5b90607f169062000116565b634e487b7160e01b600052604160045260246000fd5b015190503880620000e7565b908a8994169187600052856000209260005b878282106200036c575050841162000353575b505050811b018355620000f9565b015160001983881b60f8161c1916905538808062000345565b8385015186558c9790950194938401930162000332565b90915085600052836000208580850160051c820192868610620003cf575b918a91869594930160051c01915b828110620003bf575050620000d0565b600081558594508a9101620003af565b92508192620003a1565b634e487b7160e01b600052602260045260246000fd5b91607f1691620000bc565b600080fd5b60408051919082016001600160401b03811183821017620002fe5760405256fe6040608081526004908136101561001557600080fd5b600091823560e01c908163018a25e814610f9f57816301c46b3914610b9757816306fdde0314610ec8578163085fb1f914610e9e578163095ea7b314610df45781631481794e14610d0057816315770f9214610bdf57816318160ddd14610b9c57816323b872dd14610c1a5781632af0e2511461053a578163313ce56714610bfe57816334e8c1a41461055957816335c7e92514610bdf57816343d32e9c14610bbb578163528cc11314610b9c5781635e25ebcc146106065781635ff74b9114610b9757816370a0823114610b60578163715018a614610b12578163723d916714610ada5781637c5e279514610ab757816382b2020214610a365781638a672bfe146109f95781638da5cb5b146109d0578163912a6a3a146109a757816395d89b41146108c15781639ca71b261461065d578163a2309ff81461063e578163a605928614610606578163a9059cbb146105d5578163a98ad46c14610591578163d36689a814610559578163d89135cd1461053a578163dd62ed3e146104f1578163e4849b3214610257578163f2fde38b146101db575063f67a769c146101ba57600080fd5b346101d757816003193601126101d7576020906008549051908152f35b5080fd5b905034610253576020366003190112610253576101f6611026565b906101ff6110fa565b6001600160a01b0391821692831561023d575050600580546001600160a01b031981168417909155166000805160206116748339815191528380a380f35b51631e4fbdf760e01b8152908101849052602490fd5b8280fd5b8383346101d75760208060031936011261025357833561027561135d565b80156104e1573384528382528083852054106104d1576102936113f5565b80820290828204036104be57670de0b6b3a7640000900480600754106104ae576102bf8260095461126a565b600955338552600b83528385206102d783825461126a565b90556102e58160075461138d565b600755338552600c835261031a84862085519061030182611126565b83825284868301524287830152600260608301526112f7565b3315610497573385528483528385205482811061047557829033875286855203848620558160025403600255848451838152600080516020611694833981519152853392a3835163a9059cbb60e01b815283818061037b85338c840161139a565b0381897f00000000000000000000000000000000000000000000000000000000000000006001600160a01b03165af190811561046b57869161043e575b501561042e576000805160206116548339815191529495508351918252828201527fccbea4088a3b7ae9ca2d15fab9a9742a4075b4d7247768a1eecea917565aba00833392a26104066113b5565b9061040f6113f5565b908351928352820152a160016000805160206116b48339815191525580f35b83516312171d8360e31b81528690fd5b61045e9150843d8611610464575b6104568183611172565b81019061128d565b876103b8565b503d61044c565b85513d88823e3d90fd5b845163391434e360e21b815290819061049390859033848c0161124c565b0390fd5b8351634b637e8f60e11b8152808701869052602490fd5b835163bb55fd2760e01b81528690fd5b634e487b7160e01b855260118652602485fd5b8251631e9acf1760e31b81528590fd5b8251631f2a200560e01b81528590fd5b5050346101d757806003193601126101d7578060209261050f611026565b61051761103c565b6001600160a01b0391821683526001865283832091168252845220549051908152f35b5050346101d757816003193601126101d7576020906009549051908152f35b5050346101d75760203660031901126101d75760209181906001600160a01b03610581611026565b168152600a845220549051908152f35b5050346101d757816003193601126101d757517f00000000000000000000000000000000000000000000000000000000000000006001600160a01b03168152602090f35b5050346101d757806003193601126101d7576020906105ff6105f5611026565b6024359033611195565b5160018152f35b5050346101d75760203660031901126101d75760209181906001600160a01b0361062e611026565b168152600b845220549051908152f35b5050346101d757816003193601126101d7576020906008549051908152f35b8383346101d757806003193601126101d757610677611026565b6006546001600160a01b039160243591831633036108b157829061069961135d565b169182156108a157811561089157908492916106b36113b5565b908551906323b872dd60e01b825233898301523060248301528360448301528160648160209889947f0000000000000000000000000000000000000000000000000000000000000000165af190811561088757879161086a575b501561085a5761071f8260075461126a565b600755670de0b6b3a76400008202670de0b6b3a763ffff19838204016108475790610749916112a5565b605a810290808204605a1490151715610834576000805160206116548339815191529596507f2e8ac5177a616f2aec08c3048f5021e4e9743ece034e8d83ba5caf76688bb4759160648692046107a18160085461126a565b600855848952600a86528289206107b982825461126a565b9055848952600c86526107ec838a208451906107d482611126565b848252838983015242868301528b60608301526112f7565b6107f88160025461126a565b6002558489528886528289208181540190558489600080516020611694833981519152888651858152a3825191825285820152a26104066113b5565b634e487b7160e01b865260118752602486fd5b634e487b7160e01b875260118852602487fd5b84516312171d8360e31b81528790fd5b6108819150853d8711610464576104568183611172565b8861070d565b86513d89823e3d90fd5b8351631f2a200560e01b81528690fd5b835163d92e233d60e01b81528690fd5b83516372be3bcf60e11b81528690fd5b8383346101d757816003193601126101d757805191809380549160019083821c9282851694851561099d575b602095868610811461098a57858952908115610966575060011461092b575b610927878761091d828c0383611172565b5191829182610fdd565b0390f35b9080949750528583205b82841061095357505050826109279461091d9282010194868061090c565b8054868501880152928601928101610935565b60ff19168887015250505050151560051b830101925061091d82610927868061090c565b634e487b7160e01b845260228352602484fd5b93607f16936108ed565b5050346101d757816003193601126101d75760065490516001600160a01b039091168152602090f35b5050346101d757816003193601126101d75760055490516001600160a01b039091168152602090f35b5050346101d75760603660031901126101d75761092790610a28610a1b611026565b6044359060243590611483565b919492935194859485611086565b90503461025357602036600319011261025357610a51611026565b90610a5a6110fa565b6001600160a01b03918216928315610aaa575050600680546001600160a01b031981168417909155167f145033fa341d099593009e367b7da8f2c34749f310a5125cef34f20ee08914b08380a380f35b5163d92e233d60e01b8152fd5b5050346101d757816003193601126101d7576020905167016345785d8a00008152f35b5050346101d75760203660031901126101d75760209181906001600160a01b03610b02611026565b168152600c845220549051908152f35b8334610b5d5780600319360112610b5d57610b2b6110fa565b600580546001600160a01b0319811690915581906001600160a01b03166000805160206116748339815191528280a380f35b80fd5b5050346101d75760203660031901126101d75760209181906001600160a01b03610b88611026565b16815280845220549051908152f35b610fbc565b5050346101d757816003193601126101d7576020906002549051908152f35b5050346101d757816003193601126101d757602090610bd86113f5565b9051908152f35b5050346101d757816003193601126101d7576020906007549051908152f35b5050346101d757816003193601126101d7576020905160128152f35b90508234610b5d576060366003190112610b5d57610c36611026565b610c3e61103c565b916044359360018060a01b038316808352600160205286832033845260205286832054916000198310610c7a575b6020886105ff898989611195565b868310610ce2578115610ccb573315610cb4575082526001602090815286832033845281529186902090859003905582906105ff87610c6c565b8751634a1406b160e11b8152908101849052602490fd5b875163e602df0560e01b8152908101849052602490fd5b9050610493868851938493637dc7a0d960e11b85523390850161124c565b91905034610253578060031936011261025357610d1b611026565b60243590610d276110fa565b6001600160a01b039080821615610de4578215610dd45791602091610d619387865180968195829463a9059cbb60e01b84528b840161139a565b03927f0000000000000000000000000000000000000000000000000000000000000000165af1908115610dca578491610dac575b5015610d9f578280f35b516312171d8360e31b8152fd5b610dc4915060203d8111610464576104568183611172565b38610d95565b82513d86823e3d90fd5b50505051631f2a200560e01b8152fd5b5050505163d92e233d60e01b8152fd5b905034610253578160031936011261025357610e0e611026565b602435903315610e87576001600160a01b0316918215610e7057508083602095338152600187528181208582528752205582519081527f8c5be1e5ebec7d5bd14f71427d1e84f3dd0314c0f7b2291e5b200ac8c7c3b925843392a35160018152f35b8351634a1406b160e11b8152908101859052602490fd5b835163e602df0560e01b8152808401869052602490fd5b5050346101d757806003193601126101d75761092790610a28610ebf611026565b602435906115ad565b91905034610253578260031936011261025357805191836003549060019082821c928281168015610f95575b6020958686108214610f825750848852908115610f605750600114610f25575b610927868661091d828b0383611172565b929550600383528583205b828410610f4d57505050826109279461091d928201019438610f14565b8054868501880152928601928101610f30565b60ff191687860152505050151560051b830101925061091d8261092738610f14565b634e487b7160e01b845260229052602483fd5b93607f1693610ef4565b5050346101d757816003193601126101d757602090610bd86113b5565b34610fd8576000366003190112610fd8576020604051605a8152f35b600080fd5b6020808252825181830181905290939260005b82811061101257505060409293506000838284010152601f8019910116010190565b818101860151848201604001528501610ff0565b600435906001600160a01b0382168203610fd857565b602435906001600160a01b0382168203610fd857565b90815180825260208080930193019160005b828110611072575050505090565b835185529381019392810192600101611064565b91926110af6110a06110bd93608086526080860190611052565b60209585820387870152611052565b908382036040850152611052565b90606081830391015281808451928381520193019160005b8281106110e3575050505090565b835160ff16855293810193928101926001016110d5565b6005546001600160a01b0316330361110e57565b60405163118cdaa760e01b8152336004820152602490fd5b608081019081106001600160401b0382111761114157604052565b634e487b7160e01b600052604160045260246000fd5b602081019081106001600160401b0382111761114157604052565b601f909101601f19168101906001600160401b0382119082101761114157604052565b916001600160a01b03808416928315611233571692831561121a57600090838252816020526040822054908382106111fd57509160408282600080516020611694833981519152958760209652828652038282205586815220818154019055604051908152a3565b6104938460405193849363391434e360e21b85526004850161124c565b60405163ec442f0560e01b815260006004820152602490fd5b604051634b637e8f60e11b815260006004820152602490fd5b604091949392606082019560018060a01b0316825260208201520152565b9190820180921161127757565b634e487b7160e01b600052601160045260246000fd5b90816020910312610fd857518015158103610fd85790565b81156112af570490565b634e487b7160e01b600052601260045260246000fd5b80548210156112e15760005260206000209060021b0190600090565b634e487b7160e01b600052603260045260246000fd5b8054600160401b81101561114157611314916001820181556112c5565b611347576060600360ff92845181556020850151600182015560408501516002820155019201511660ff19825416179055565b634e487b7160e01b600052600060045260246000fd5b6000805160206116b4833981519152600281541461137b5760029055565b604051633ee5aeb560e01b8152600490fd5b9190820391821161127757565b6001600160a01b039091168152602081019190915260400190565b60025480156113e85760075490670de0b6b3a764000091828102928184041490151715611277576113e5916112a5565b90565b5067016345785d8a000090565b6113fd6113b5565b605a810290808204605a1490151715611277576064900490565b6001600160401b0381116111415760051b60200190565b9061143882611417565b6114456040519182611172565b8281528092611456601f1991611417565b0190602036910137565b60001981146112775760010190565b80518210156112e15760209160051b010190565b6001600160a01b03166000908152600c60205260408120926114a5908361126a565b83548082116115a5575b83101561155857826114c09161138d565b936114ca8561142e565b946114d48161142e565b946114de8261142e565b946114e88361142e565b945b8381106114f75750505050565b8060ff600361151261150c611553958761126a565b876112c5565b50805461151f858f61146f565b52600181015461152f858e61146f565b52600281015461153f858d61146f565b5201541661154d828961146f565b52611460565b6114ea565b509150506040519061156982611157565b8082526040519261157984611157565b8184526040519261158984611157565b8284526040519261159984611157565b80845236813793929190565b9050806114af565b6001600160a01b03166000908152600c6020526040812080549390929091908415611641578481111561163657506115e5848061138d565b916115ef8561142e565b946115f98161142e565b946116038261142e565b9461160d8361142e565b945b83811061161c5750505050565b8060ff600361151261150c611631958761126a565b61160f565b6115e590809561138d565b5091509150604051906115698261115756fe945c1c4e99aa89f648fbfe3df471b916f719e16d960fcec0737d4d56bd6968388be0079c531659141344cd1fd0a4f28419497f9722a3daafe3b4186f6b6457e0ddf252ad1be2c89b69c2b068fc378daa952ba7f163c4a11628f55a4df523b3ef9b779b17422d0df92223018b32b4d1fa46e071723d6817e2486d003becc55f00a2646970667358221220275220ea3761a90931a427c7ff7c05b208faeb641ce5312df2797c875d9c131c64736f6c63430008140033",
  "linkReferences": {},
  "deployedLinkReferences": {}
}