{
  "_format": "hh-sol-artifact-1",
  "contractName": "BoardMatrixHandler",
  "sourceName": "contracts/BoardMatrixHandler.sol",
  "abi": [
    {
      "inputs": [
        {
          "internalType": "address",
          "name": "_paymentToken",
          "type": "address"
        },
        {
          "internalType": "uint8",
          "name": "_tokenDecimals",
          "type": "uint8"
        }
      ],
      "stateMutability": "nonpayable",
      "type": "constructor"
    },
    {
      "inputs": [
        {
          "internalType": "address",
          "name": "owner",
          "type": "address"
        }
      ],
      "name": "OwnableInvalidOwner",
      "type": "error"
    },
    {
      "inputs": [
        {
          "internalType": "address",
          "name": "account",
          "type": "address"
        }
      ],
      "name": "OwnableUnauthorizedAccount",
      "type": "error"
    },
    {
      "inputs": [
        {
          "internalType": "address",
          "name": "token",
          "type": "address"
        }
      ],
      "name": "SafeERC20FailedOperation",
      "type": "error"
    },
    {
      "anonymous": false,
      "inputs": [
        {
          "indexed": true,
          "internalType": "address",
          "name": "owner",
          "type": "address"
        },
        {
          "indexed": true,
          "internalType": "uint256",
          "name": "boardLevel",
          "type": "uint256"
        },
        {
          "indexed": false,
          "internalType": "uint256",
          "name": "reward",
          "type": "uint256"
        },
        {
          "indexed": false,
          "internalType": "uint256",
          "name": "liquidity",
          "type": "uint256"
        }
      ],
      "name": "BoardCompleted",
      "type": "event"
    },
    {
      "anonymous": false,
      "inputs": [
        {
          "indexed": true,
          "internalType": "address",
          "name": "user",
          "type": "address"
        },
        {
          "indexed": true,
          "internalType": "uint256",
          "name": "boardLevel",
          "type": "uint256"
        },
        {
          "indexed": false,
          "internalType": "uint256",
          "name": "matrixIndex",
          "type": "uint256"
        }
      ],
      "name": "BoardEntered",
      "type": "event"
    },
    {
      "anonymous": false,
      "inputs": [
        {
          "indexed": true,
          "internalType": "address",
          "name": "previousOwner",
          "type": "address"
        },
        {
          "indexed": true,
          "internalType": "address",
          "name": "newOwner",
          "type": "address"
        }
      ],
      "name": "OwnershipTransferred",
      "type": "event"
    },
    {
      "inputs": [],
      "name": "BASIS_POINTS",
      "outputs": [
        {
          "internalType": "uint256",
          "name": "",
          "type": "uint256"
        }
      ],
      "stateMutability": "view",
      "type": "function"
    },
    {
      "inputs": [],
      "name": "BOARD_10_LIQUIDITY_RATE_BP",
      "outputs": [
        {
          "internalType": "uint256",
          "name": "",
          "type": "uint256"
        }
      ],
      "stateMutability": "view",
      "type": "function"
    },
    {
      "inputs": [],
      "name": "BOARD_10_REWARD_RATE_BP",
      "outputs": [
        {
          "internalType": "uint256",
          "name": "",
          "type": "uint256"
        }
      ],
      "stateMutability": "view",
      "type": "function"
    },
    {
      "inputs": [],
      "name": "BOARD_10_SYSTEM_RATE_BP",
      "outputs": [
        {
          "internalType": "uint256",
          "name": "",
          "type": "uint256"
        }
      ],
      "stateMutability": "view",
      "type": "function"
    },
    {
      "inputs": [],
      "name": "BOARD_LIQUIDITY_RATE_BP",
      "outputs": [
        {
          "internalType": "uint256",
          "name": "",
          "type": "uint256"
        }
      ],
      "stateMutability": "view",
      "type": "function"
    },
    {
      "inputs": [],
      "name": "BOARD_MEMBERS_REQUIRED",
      "outputs": [
        {
          "internalType": "uint256",
          "name": "",
          "type": "uint256"
        }
      ],
      "stateMutability": "view",
      "type": "function"
    },
    {
      "inputs": [],
      "name": "BOARD_NEXT_POOL_RATE_BP",
      "outputs": [
        {
          "internalType": "uint256",
          "name": "",
          "type": "uint256"
        }
      ],
      "stateMutability": "view",
      "type": "function"
    },
    {
      "inputs": [],
      "name": "BOARD_REWARD_RATE_BP",
      "outputs": [
        {
          "internalType": "uint256",
          "name": "",
          "type": "uint256"
        }
      ],
      "stateMutability": "view",
      "type": "function"
    },
    {
      "inputs": [],
      "name": "TOTAL_BOARDS",
      "outputs": [
        {
          "internalType": "uint256",
          "name": "",
          "type": "uint256"
        }
      ],
      "stateMutability": "view",
      "type": "function"
    },
    {
      "inputs": [
        {
          "internalType": "uint256",
          "name": "",
          "type": "uint256"
        }
      ],
      "name": "boardCurrentIndex",
      "outputs": [
        {
          "internalType": "uint256",
          "name": "",
          "type": "uint256"
        }
      ],
      "stateMutability": "view",
      "type": "function"
    },
    {
      "inputs": [
        {
          "internalType": "uint256",
          "name": "",
          "type": "uint256"
        }
      ],
      "name": "boardPrices",
      "outputs": [
        {
          "internalType": "uint256",
          "name": "",
          "type": "uint256"
        }
      ],
      "stateMutability": "view",
      "type": "function"
    },
    {
      "inputs": [],
      "name": "btcRewardToken",
      "outputs": [
        {
          "internalType": "contract IERC20",
          "name": "",
          "type": "address"
        }
      ],
      "stateMutability": "view",
      "type": "function"
    },
    {
      "inputs": [],
      "name": "coinLiquidityAddress",
      "outputs": [
        {
          "internalType": "address",
          "name": "",
          "type": "address"
        }
      ],
      "stateMutability": "view",
      "type": "function"
    },
    {
      "inputs": [
        {
          "internalType": "address",
          "name": "_user",
          "type": "address"
        },
        {
          "internalType": "uint256",
          "name": "_boardLevel",
          "type": "uint256"
        }
      ],
      "name": "enterBoard",
      "outputs": [],
      "stateMutability": "nonpayable",
      "type": "function"
    },
    {
      "inputs": [
        {
          "internalType": "uint256",
          "name": "_boardLevel",
          "type": "uint256"
        }
      ],
      "name": "getBoardCurrentIndex",
      "outputs": [
        {
          "internalType": "uint256",
          "name": "",
          "type": "uint256"
        }
      ],
      "stateMutability": "view",
      "type": "function"
    },
    {
      "inputs": [
        {
          "internalType": "uint256",
          "name": "_boardLevel",
          "type": "uint256"
        },
        {
          "internalType": "uint256",
          "name": "_index",
          "type": "uint256"
        }
      ],
      "name": "getBoardMatrixInfo",
      "outputs": [
        {
          "internalType": "address",
          "name": "owner",
          "type": "address"
        },
        {
          "internalType": "uint256",
          "name": "filledCount",
          "type": "uint256"
        },
        {
          "internalType": "bool",
          "name": "completed",
          "type": "bool"
        }
      ],
      "stateMutability": "view",
      "type": "function"
    },
    {
      "inputs": [
        {
          "internalType": "uint256",
          "name": "_boardLevel",
          "type": "uint256"
        }
      ],
      "name": "getBoardPrice",
      "outputs": [
        {
          "internalType": "uint256",
          "name": "",
          "type": "uint256"
        }
      ],
      "stateMutability": "view",
      "type": "function"
    },
    {
      "inputs": [
        {
          "internalType": "uint256",
          "name": "_boardLevel",
          "type": "uint256"
        }
      ],
      "name": "getBoardQueueLength",
      "outputs": [
        {
          "internalType": "uint256",
          "name": "",
          "type": "uint256"
        }
      ],
      "stateMutability": "view",
      "type": "function"
    },
    {
      "inputs": [],
      "name": "mlmContract",
      "outputs": [
        {
          "internalType": "address",
          "name": "",
          "type": "address"
        }
      ],
      "stateMutability": "view",
      "type": "function"
    },
    {
      "inputs": [],
      "name": "owner",
      "outputs": [
        {
          "internalType": "address",
          "name": "",
          "type": "address"
        }
      ],
      "stateMutability": "view",
      "type": "function"
    },
    {
      "inputs": [],
      "name": "paymentToken",
      "outputs": [
        {
          "internalType": "contract IERC20",
          "name": "",
          "type": "address"
        }
      ],
      "stateMutability": "view",
      "type": "function"
    },
    {
      "inputs": [
        {
          "internalType": "address",
          "name": "_token",
          "type": "address"
        },
        {
          "internalType": "address",
          "name": "_to",
          "type": "address"
        },
        {
          "internalType": "uint256",
          "name": "_amount",
          "type": "uint256"
        }
      ],
      "name": "recoverToken",
      "outputs": [],
      "stateMutability": "nonpayable",
      "type": "function"
    },
    {
      "inputs": [],
      "name": "renounceOwnership",
      "outputs": [],
      "stateMutability": "nonpayable",
      "type": "function"
    },
    {
      "inputs": [
        {
          "internalType": "uint256",
          "name": "_boardLevel",
          "type": "uint256"
        },
        {
          "internalType": "uint256",
          "name": "_price",
          "type": "uint256"
        }
      ],
      "name": "setBoardPrice",
      "outputs": [],
      "stateMutability": "nonpayable",
      "type": "function"
    },
    {
      "inputs": [
        {
          "internalType": "address",
          "name": "_token",
          "type": "address"
        }
      ],
      "name": "setBtcRewardToken",
      "outputs": [],
      "stateMutability": "nonpayable",
      "type": "function"
    },
    {
      "inputs": [
        {
          "internalType": "address",
          "name": "_addr",
          "type": "address"
        }
      ],
      "name": "setCoinLiquidityAddress",
      "outputs": [],
      "stateMutability": "nonpayable",
      "type": "function"
    },
    {
      "inputs": [
        {
          "internalType": "address",
          "name": "_mlm",
          "type": "address"
        }
      ],
      "name": "setMLMContract",
      "outputs": [],
      "stateMutability": "nonpayable",
      "type": "function"
    },
    {
      "inputs": [
        {
          "internalType": "address",
          "name": "_addr",
          "type": "address"
        }
      ],
      "name": "setSystemAddress",
      "outputs": [],
      "stateMutability": "nonpayable",
      "type": "function"
    },
    {
      "inputs": [],
      "name": "systemAddress",
      "outputs": [
        {
          "internalType": "address",
          "name": "",
          "type": "address"
        }
      ],
      "stateMutability": "view",
      "type": "function"
    },
    {
      "inputs": [
        {
          "internalType": "address",
          "name": "newOwner",
          "type": "address"
        }
      ],
      "name": "transferOwnership",
      "outputs": [],
      "stateMutability": "nonpayable",
      "type": "function"
    }
  ],
  "bytecode": "0x608034620001e857601f6200127638819003918201601f19168301916001600160401b03831184841017620001ed578084926040948552833981010312620001e85780516001600160a01b039182821691829003620001e8576020015160ff8116809103620001e8573315620001cf57600091825460018060a01b03199033828216178555604051953391167f8be0079c531659141344cd1fd0a4f28419497f9722a3daafe3b4186f6b6457e08680a3600e541617600e55604d8111620001bb57600a0a9081603202603281048303620001bb5760049081558260b40260b481048403620001a8576005556102888381029081048403620001a85760065561091d8381029081048403620001a8576007556120ce8381029081048403620001a8576008556176198381029081048403620001a8576009556201a9278381029081048403620001a857600a556205fa8d8381029081048403620001a857600b55621585fb8381029081048403620001a857600c55624d7bee928084029384040362000195575050600d556110729081620002048239f35b634e487b7160e01b825260119052602490fd5b634e487b7160e01b835260118252602483fd5b634e487b7160e01b82526011600452602482fd5b604051631e4fbdf760e01b815260006004820152602490fd5b600080fd5b634e487b7160e01b600052604160045260246000fdfe6080604081815260048036101561001557600080fd5b600092833560e01c90816304841337146107c55750806306210197146107855780632389e78a1461075a57806329d7f9eb146106cd5780633013ce29146106a457806339ae9efd1461067b5780633ac272c21461065457806347cd5191146105f45780634e759962146105d857806353dafcbb146105af57806361dba5f314610443578063686a38bd146105335780636f8760fe146104f3578063715018a6146104995780637d4cf0b8146103ad5780638919d5e9146104705780638da5cb5b146104485780639898fcd314610443578063a5c3406114610426578063a7229fd9146103ce578063b0ac4626146103b2578063b2418af8146103ad578063ce87026314610361578063d3ba4f9614610321578063d3e848f1146102f8578063d4a9028614610265578063e1f1c4a714610244578063eb63e1c21461021d578063f2fde38b146101975763f3b36bf81461016d57600080fd5b346101935760203660031901126101935760209282913581526002845220549051908152f35b8280fd5b5034610193576020366003190112610193576101b16107f1565b906101ba61087f565b6001600160a01b0391821692831561020757505082546001600160a01b0319811683178455167f8be0079c531659141344cd1fd0a4f28419497f9722a3daafe3b4186f6b6457e08380a380f35b51631e4fbdf760e01b8152908101849052602490fd5b50346101935760203660031901126101935760209282913581526001845220549051908152f35b505034610261578160031936011261026157602090516127108152f35b5080fd5b5082346102f5576102753661082f565b928183526001602052848320548410156102cd576060856102a0868287878152600160205220610957565b509060018060a01b038254169160ff60026001830154920154169082519384526020840152151590820152f35b606490602086519162461bcd60e51b8352820152600260248201526127a160f11b6044820152fd5b80fd5b50503461026157816003193601126102615760115490516001600160a01b039091168152602090f35b83346102f55760203660031901126102f55761033b6107f1565b61034361087f565b60018060a01b03166001600160601b0360a01b601054161760105580f35b83346102f55760203660031901126102f55761037b6107f1565b61038361087f565b6001600160a01b03166103978115156108ab565b6001600160601b0360a01b601254161760125580f35b610862565b50503461026157816003193601126102615760209051600a8152f35b83346102f55760603660031901126102f5576103e86107f1565b6001600160a01b0360243581811692918382036104225761041561041f9461040e61087f565b15156108ab565b6044359216610f9b565b80f35b8480fd5b505034610261578160031936011261026157602090516107d08152f35b610845565b505034610261578160031936011261026157905490516001600160a01b039091168152602090f35b505034610261578160031936011261026157600f5490516001600160a01b039091168152602090f35b83346102f557806003193601126102f5576104b261087f565b80546001600160a01b03198116825581906001600160a01b03167f8be0079c531659141344cd1fd0a4f28419497f9722a3daafe3b4186f6b6457e08280a380f35b83346102f55760203660031901126102f55761050d6107f1565b61051561087f565b60018060a01b03166001600160601b0360a01b600f541617600f5580f35b503461019357816003193601126101935761054c6107f1565b601254909290336001600160a01b03918216149081156105a2575b501561057a578361041f60243585610a2f565b906020606492519162461bcd60e51b835282015260026024820152614e4160f01b6044820152fd5b9050845416331438610567565b50503461026157816003193601126102615760125490516001600160a01b039091168152602090f35b50503461026157816003193601126102615760209051600c8152f35b5091346102f55760203660031901126102f557823590600182101580610649575b61061e906108dc565b600b8210156106365760208383600301549051908152f35b634e487b7160e01b815260328452602490fd5b50600a821115610615565b50346101935760203660031901126101935760209282913581526002845220549051908152f35b50503461026157816003193601126102615760105490516001600160a01b039091168152602090f35b505034610261578160031936011261026157600e5490516001600160a01b039091168152602090f35b509034610193576106dd3661082f565b9290916106e861087f565b60018310158061074f575b6106fc906108dc565b83156107275750600b82101561071457506003015580f35b634e487b7160e01b845260329052602483fd5b906020606492519162461bcd60e51b83528201526002602482015261050360f41b6044820152fd5b50600a8311156106f3565b50346101935760203660031901126101935735600b8110156101935760209250600301549051908152f35b83346102f55760203660031901126102f55761079f6107f1565b6107a761087f565b60018060a01b03166001600160601b0360a01b601154161760115580f35b8490346102615781600319360112610261578061222e60209252f35b60009103126107ec57565b600080fd5b600435906001600160a01b03821682036107ec57565b600b8110156108195760030190600090565b634e487b7160e01b600052603260045260246000fd5b60409060031901126107ec576004359060243590565b346107ec5760003660031901126107ec576020604051610fa08152f35b346107ec5760003660031901126107ec5760206040516102718152f35b6000546001600160a01b0316330361089357565b60405163118cdaa760e01b8152336004820152602490fd5b156108b257565b60405162461bcd60e51b815260206004820152600260248201526124ab60f11b6044820152606490fd5b156108e357565b60405162461bcd60e51b8152602060048201526002602482015261109360f21b6044820152606490fd5b67ffffffffffffffff811161092157604052565b634e487b7160e01b600052604160045260246000fd5b604051906060820182811067ffffffffffffffff82111761092157604052565b8054821015610819576000526003602060002091020190600090565b8054680100000000000000008110156109215761099591600182018155610957565b6109d757600260409160018060a01b038451166001600160601b0360a01b8254161781556020840151600182015501910151151560ff80198354169116179055565b634e487b7160e01b600052600060045260246000fd5b6000198101919082116109fc57565b634e487b7160e01b600052601160045260246000fd5b60001981146109fc5760010190565b90600182018092116109fc57565b90610a6f610a47826000526001602052604060002090565b610a4f610937565b6001600160a01b0385168152906000602083015260006040830152610973565b80610a8d610a87826000526001602052604060002090565b546109ed565b60405181815290936001600160a01b0316907f4e755dd64e53a9f7a5882e2e32eb64718c2273de11e017bd47129b9fe2716d7c90602090a3610ad9816000526002602052604060002090565b54918210610ae5575050565b610b0282610afd836000526001602052604060002090565b610957565b5091600c60018401610b148154610a12565b8091551015610b2257505050565b82610b46610b6892610b416002610b6d9701600160ff19825416179055565b610a21565b610b5a846000526002602052604060002090565b55546001600160a01b031690565b610bed565b565b90600c820291808304600c14901517156109fc57565b9061222e918281029281840414901517156109fc57565b90610271918281029281840414901517156109fc57565b90610fa0918281029281840414901517156109fc57565b906107d0918281029281840414901517156109fc57565b6040513d6000823e3d90fd5b610c0b610c06610bfc84610807565b90549060031b1c90565b610b6f565b91600a811015610e2157610c35610c27610c2f610c2786610bb3565b612710900490565b94610bca565b600f549093906001600160a01b03908116828582610e10575b50506010546001600160a01b0316905085828216610df3575b505060125481166001600160a01b031680610cb7575b50604080519283526020830195909552610b6d94610cb19392839286169160008051602061101d83398151915291a3610a21565b90610a2f565b80939291933b156107ec57604051631a495e5760e31b81526001600160a01b0386166004820152602481018390526044810184905260009182908290606490829084905af18015610dd757610de0575b50601254610d2b90610d1f906001600160a01b031681565b6001600160a01b031690565b610d3f610bfc610d3a86610a21565b610807565b90610d4985610a21565b91813b15610ddc5760405163ecdc590760e01b81526001600160a01b038916600482015260248101919091526044810192909252909291908390606490829084905af18015610dd757610b6d96610cb195859460008051602061101d83398151915293610dbe575b5093509650509192610c7d565b80610dcb610dd19261090d565b806107e1565b38610db1565b610be1565b8380fd5b80610dcb610ded9261090d565b38610d07565b600e54610e0992906001600160a01b0316610f9b565b3885610c67565b610e1992610f9b565b388285610c4e565b9190610e2f610c2783610b85565b91610e48610c27610e42610c2784610b9c565b92610b9c565b600f5490926001600160a01b039290918316858382610f8a575b50506011546001600160a01b0316905090838216610f6d575b50506010546001600160a01b031683838216610f50575b505060125482166001600160a01b031680610ed4575b50604080519485526020850193909352169160008051602061101d83398151915291819081015b0390a3565b92833b156107ec57604051631a495e5760e31b81526001600160a01b03831660048201526024810186905260448101879052936000908590606490829084905af1908115610dd75760008051602061101d83398151915294610ecf92610f3d575b509350610ea8565b80610dcb610f4a9261090d565b38610f35565b600e54610f6692906001600160a01b0316610f9b565b3883610e92565b600e54610f8392906001600160a01b0316610f9b565b3880610e7b565b610f9392610f9b565b388583610e62565b60405163a9059cbb60e01b60009081526001600160a01b039384166004526024949094529260209060448180855af1600160005114811615610ffc575b8360405215610fe657505050565b635274afe760e01b835216600482015260249150fd5b600181151661101257813b15153d151616610fd8565b833d6000823e3d90fdfec9dfd5046e5f1be95c560d1b85295f8afd28d0102c20e0b4112b88bd328ca433a2646970667358221220241f6cce199926b7109921e6af80e7bed208dd670e59456bde494685fc187f0f64736f6c63430008140033",
  "linkReferences": {},
  "deployedLinkReferences": {}
}