{
  "_format": "hh-sol-artifact-1",
  "contractName": "BoardMatrixHandler",
  "sourceName": "contracts/BoardMatrixHandler.sol",
  "abi": [
    {
      "inputs": [
        {
          "internalType": "address",
          "name": "_paymentToken",
          "type": "address"
        },
        {
          "internalType": "uint8",
          "name": "_tokenDecimals",
          "type": "uint8"
        }
      ],
      "stateMutability": "nonpayable",
      "type": "constructor"
    },
    {
      "inputs": [
        {
          "internalType": "address",
          "name": "owner",
          "type": "address"
        }
      ],
      "name": "OwnableInvalidOwner",
      "type": "error"
    },
    {
      "inputs": [
        {
          "internalType": "address",
          "name": "account",
          "type": "address"
        }
      ],
      "name": "OwnableUnauthorizedAccount",
      "type": "error"
    },
    {
      "inputs": [],
      "name": "ReentrancyGuardReentrantCall",
      "type": "error"
    },
    {
      "inputs": [
        {
          "internalType": "address",
          "name": "token",
          "type": "address"
        }
      ],
      "name": "SafeERC20FailedOperation",
      "type": "error"
    },
    {
      "anonymous": false,
      "inputs": [
        {
          "indexed": true,
          "internalType": "address",
          "name": "to",
          "type": "address"
        },
        {
          "indexed": false,
          "internalType": "uint256",
          "name": "amount",
          "type": "uint256"
        }
      ],
      "name": "AdminWithdrawn",
      "type": "event"
    },
    {
      "anonymous": false,
      "inputs": [
        {
          "indexed": true,
          "internalType": "address",
          "name": "owner",
          "type": "address"
        },
        {
          "indexed": true,
          "internalType": "uint256",
          "name": "boardLevel",
          "type": "uint256"
        },
        {
          "indexed": false,
          "internalType": "uint256",
          "name": "reward",
          "type": "uint256"
        },
        {
          "indexed": false,
          "internalType": "uint256",
          "name": "liquidity",
          "type": "uint256"
        }
      ],
      "name": "BoardCompleted",
      "type": "event"
    },
    {
      "anonymous": false,
      "inputs": [
        {
          "indexed": true,
          "internalType": "address",
          "name": "user",
          "type": "address"
        },
        {
          "indexed": true,
          "internalType": "uint256",
          "name": "boardLevel",
          "type": "uint256"
        },
        {
          "indexed": false,
          "internalType": "uint256",
          "name": "matrixIndex",
          "type": "uint256"
        }
      ],
      "name": "BoardEntered",
      "type": "event"
    },
    {
      "anonymous": false,
      "inputs": [
        {
          "indexed": true,
          "internalType": "address",
          "name": "user",
          "type": "address"
        },
        {
          "indexed": false,
          "internalType": "uint256",
          "name": "amount",
          "type": "uint256"
        }
      ],
      "name": "Deposited",
      "type": "event"
    },
    {
      "anonymous": false,
      "inputs": [
        {
          "indexed": true,
          "internalType": "address",
          "name": "previousOwner",
          "type": "address"
        },
        {
          "indexed": true,
          "internalType": "address",
          "name": "newOwner",
          "type": "address"
        }
      ],
      "name": "OwnershipTransferred",
      "type": "event"
    },
    {
      "anonymous": false,
      "inputs": [
        {
          "indexed": true,
          "internalType": "address",
          "name": "user",
          "type": "address"
        },
        {
          "indexed": false,
          "internalType": "uint256",
          "name": "usdtAmount",
          "type": "uint256"
        },
        {
          "indexed": false,
          "internalType": "uint256",
          "name": "btcbAmount",
          "type": "uint256"
        }
      ],
      "name": "SwappedToBTC",
      "type": "event"
    },
    {
      "anonymous": false,
      "inputs": [
        {
          "indexed": true,
          "internalType": "address",
          "name": "user",
          "type": "address"
        },
        {
          "indexed": false,
          "internalType": "uint256",
          "name": "amount",
          "type": "uint256"
        },
        {
          "indexed": false,
          "internalType": "uint256",
          "name": "boardLevel",
          "type": "uint256"
        }
      ],
      "name": "VirtualRewardCredited",
      "type": "event"
    },
    {
      "inputs": [],
      "name": "BASIS_POINTS",
      "outputs": [
        {
          "internalType": "uint256",
          "name": "",
          "type": "uint256"
        }
      ],
      "stateMutability": "view",
      "type": "function"
    },
    {
      "inputs": [],
      "name": "BOARD_10_LIQUIDITY_RATE_BP",
      "outputs": [
        {
          "internalType": "uint256",
          "name": "",
          "type": "uint256"
        }
      ],
      "stateMutability": "view",
      "type": "function"
    },
    {
      "inputs": [],
      "name": "BOARD_10_REWARD_RATE_BP",
      "outputs": [
        {
          "internalType": "uint256",
          "name": "",
          "type": "uint256"
        }
      ],
      "stateMutability": "view",
      "type": "function"
    },
    {
      "inputs": [],
      "name": "BOARD_10_SYSTEM_RATE_BP",
      "outputs": [
        {
          "internalType": "uint256",
          "name": "",
          "type": "uint256"
        }
      ],
      "stateMutability": "view",
      "type": "function"
    },
    {
      "inputs": [],
      "name": "BOARD_LEVEL2_MEMBERS",
      "outputs": [
        {
          "internalType": "uint256",
          "name": "",
          "type": "uint256"
        }
      ],
      "stateMutability": "view",
      "type": "function"
    },
    {
      "inputs": [],
      "name": "BOARD_LIQUIDITY_RATE_BP",
      "outputs": [
        {
          "internalType": "uint256",
          "name": "",
          "type": "uint256"
        }
      ],
      "stateMutability": "view",
      "type": "function"
    },
    {
      "inputs": [],
      "name": "BOARD_MEMBERS_REQUIRED",
      "outputs": [
        {
          "internalType": "uint256",
          "name": "",
          "type": "uint256"
        }
      ],
      "stateMutability": "view",
      "type": "function"
    },
    {
      "inputs": [],
      "name": "BOARD_NEXT_POOL_RATE_BP",
      "outputs": [
        {
          "internalType": "uint256",
          "name": "",
          "type": "uint256"
        }
      ],
      "stateMutability": "view",
      "type": "function"
    },
    {
      "inputs": [],
      "name": "BOARD_REWARD_RATE_BP",
      "outputs": [
        {
          "internalType": "uint256",
          "name": "",
          "type": "uint256"
        }
      ],
      "stateMutability": "view",
      "type": "function"
    },
    {
      "inputs": [],
      "name": "DEFAULT_SLIPPAGE_BP",
      "outputs": [
        {
          "internalType": "uint256",
          "name": "",
          "type": "uint256"
        }
      ],
      "stateMutability": "view",
      "type": "function"
    },
    {
      "inputs": [],
      "name": "TOTAL_BOARDS",
      "outputs": [
        {
          "internalType": "uint256",
          "name": "",
          "type": "uint256"
        }
      ],
      "stateMutability": "view",
      "type": "function"
    },
    {
      "inputs": [
        {
          "internalType": "address",
          "name": "_to",
          "type": "address"
        },
        {
          "internalType": "uint256",
          "name": "_amount",
          "type": "uint256"
        }
      ],
      "name": "adminWithdrawDeposits",
      "outputs": [],
      "stateMutability": "nonpayable",
      "type": "function"
    },
    {
      "inputs": [
        {
          "internalType": "uint256",
          "name": "",
          "type": "uint256"
        }
      ],
      "name": "boardCurrentIndex",
      "outputs": [
        {
          "internalType": "uint256",
          "name": "",
          "type": "uint256"
        }
      ],
      "stateMutability": "view",
      "type": "function"
    },
    {
      "inputs": [
        {
          "internalType": "uint256",
          "name": "",
          "type": "uint256"
        }
      ],
      "name": "boardPrices",
      "outputs": [
        {
          "internalType": "uint256",
          "name": "",
          "type": "uint256"
        }
      ],
      "stateMutability": "view",
      "type": "function"
    },
    {
      "inputs": [],
      "name": "btcRewardToken",
      "outputs": [
        {
          "internalType": "contract IERC20",
          "name": "",
          "type": "address"
        }
      ],
      "stateMutability": "view",
      "type": "function"
    },
    {
      "inputs": [],
      "name": "btcbToken",
      "outputs": [
        {
          "internalType": "address",
          "name": "",
          "type": "address"
        }
      ],
      "stateMutability": "view",
      "type": "function"
    },
    {
      "inputs": [
        {
          "internalType": "uint256",
          "name": "_amount",
          "type": "uint256"
        },
        {
          "internalType": "uint256",
          "name": "_minBtcbOut",
          "type": "uint256"
        }
      ],
      "name": "claimAndSwapToBTC",
      "outputs": [],
      "stateMutability": "nonpayable",
      "type": "function"
    },
    {
      "inputs": [],
      "name": "coinLiquidityAddress",
      "outputs": [
        {
          "internalType": "address",
          "name": "",
          "type": "address"
        }
      ],
      "stateMutability": "view",
      "type": "function"
    },
    {
      "inputs": [
        {
          "internalType": "uint256",
          "name": "_amount",
          "type": "uint256"
        }
      ],
      "name": "deposit",
      "outputs": [],
      "stateMutability": "nonpayable",
      "type": "function"
    },
    {
      "inputs": [
        {
          "internalType": "address",
          "name": "",
          "type": "address"
        },
        {
          "internalType": "uint256",
          "name": "",
          "type": "uint256"
        }
      ],
      "name": "depositAmounts",
      "outputs": [
        {
          "internalType": "uint256",
          "name": "",
          "type": "uint256"
        }
      ],
      "stateMutability": "view",
      "type": "function"
    },
    {
      "inputs": [
        {
          "internalType": "address",
          "name": "",
          "type": "address"
        }
      ],
      "name": "depositBalance",
      "outputs": [
        {
          "internalType": "uint256",
          "name": "",
          "type": "uint256"
        }
      ],
      "stateMutability": "view",
      "type": "function"
    },
    {
      "inputs": [
        {
          "internalType": "address",
          "name": "",
          "type": "address"
        },
        {
          "internalType": "uint256",
          "name": "",
          "type": "uint256"
        }
      ],
      "name": "depositTimestamps",
      "outputs": [
        {
          "internalType": "uint256",
          "name": "",
          "type": "uint256"
        }
      ],
      "stateMutability": "view",
      "type": "function"
    },
    {
      "inputs": [
        {
          "internalType": "address",
          "name": "_user",
          "type": "address"
        },
        {
          "internalType": "uint256",
          "name": "_boardLevel",
          "type": "uint256"
        }
      ],
      "name": "enterBoard",
      "outputs": [],
      "stateMutability": "nonpayable",
      "type": "function"
    },
    {
      "inputs": [
        {
          "internalType": "uint256",
          "name": "_boardLevel",
          "type": "uint256"
        }
      ],
      "name": "getBoardCurrentIndex",
      "outputs": [
        {
          "internalType": "uint256",
          "name": "",
          "type": "uint256"
        }
      ],
      "stateMutability": "view",
      "type": "function"
    },
    {
      "inputs": [
        {
          "internalType": "uint256",
          "name": "_boardLevel",
          "type": "uint256"
        },
        {
          "internalType": "uint256",
          "name": "_index",
          "type": "uint256"
        }
      ],
      "name": "getBoardMatrixInfo",
      "outputs": [
        {
          "internalType": "address",
          "name": "owner",
          "type": "address"
        },
        {
          "internalType": "uint256",
          "name": "filledCount",
          "type": "uint256"
        },
        {
          "internalType": "bool",
          "name": "completed",
          "type": "bool"
        }
      ],
      "stateMutability": "view",
      "type": "function"
    },
    {
      "inputs": [
        {
          "internalType": "uint256",
          "name": "_boardLevel",
          "type": "uint256"
        }
      ],
      "name": "getBoardPrice",
      "outputs": [
        {
          "internalType": "uint256",
          "name": "",
          "type": "uint256"
        }
      ],
      "stateMutability": "view",
      "type": "function"
    },
    {
      "inputs": [
        {
          "internalType": "uint256",
          "name": "_boardLevel",
          "type": "uint256"
        }
      ],
      "name": "getBoardQueueLength",
      "outputs": [
        {
          "internalType": "uint256",
          "name": "",
          "type": "uint256"
        }
      ],
      "stateMutability": "view",
      "type": "function"
    },
    {
      "inputs": [
        {
          "internalType": "address",
          "name": "_user",
          "type": "address"
        }
      ],
      "name": "getDepositBalance",
      "outputs": [
        {
          "internalType": "uint256",
          "name": "",
          "type": "uint256"
        }
      ],
      "stateMutability": "view",
      "type": "function"
    },
    {
      "inputs": [
        {
          "internalType": "address",
          "name": "_user",
          "type": "address"
        }
      ],
      "name": "getDepositHistory",
      "outputs": [
        {
          "internalType": "uint256[]",
          "name": "amounts",
          "type": "uint256[]"
        },
        {
          "internalType": "uint256[]",
          "name": "timestamps",
          "type": "uint256[]"
        }
      ],
      "stateMutability": "view",
      "type": "function"
    },
    {
      "inputs": [
        {
          "internalType": "uint256",
          "name": "_usdtAmount",
          "type": "uint256"
        }
      ],
      "name": "getSwapEstimate",
      "outputs": [
        {
          "internalType": "uint256",
          "name": "btcbAmount",
          "type": "uint256"
        }
      ],
      "stateMutability": "view",
      "type": "function"
    },
    {
      "inputs": [
        {
          "internalType": "address",
          "name": "_user",
          "type": "address"
        }
      ],
      "name": "getTotalSwappedToBTC",
      "outputs": [
        {
          "internalType": "uint256",
          "name": "",
          "type": "uint256"
        }
      ],
      "stateMutability": "view",
      "type": "function"
    },
    {
      "inputs": [
        {
          "internalType": "address",
          "name": "_user",
          "type": "address"
        }
      ],
      "name": "getVirtualRewardBalance",
      "outputs": [
        {
          "internalType": "uint256",
          "name": "balance",
          "type": "uint256"
        },
        {
          "internalType": "uint256",
          "name": "totalEarned",
          "type": "uint256"
        }
      ],
      "stateMutability": "view",
      "type": "function"
    },
    {
      "inputs": [],
      "name": "mlmContract",
      "outputs": [
        {
          "internalType": "address",
          "name": "",
          "type": "address"
        }
      ],
      "stateMutability": "view",
      "type": "function"
    },
    {
      "inputs": [],
      "name": "owner",
      "outputs": [
        {
          "internalType": "address",
          "name": "",
          "type": "address"
        }
      ],
      "stateMutability": "view",
      "type": "function"
    },
    {
      "inputs": [],
      "name": "pancakeRouter",
      "outputs": [
        {
          "internalType": "contract IPancakeRouter",
          "name": "",
          "type": "address"
        }
      ],
      "stateMutability": "view",
      "type": "function"
    },
    {
      "inputs": [],
      "name": "paymentToken",
      "outputs": [
        {
          "internalType": "contract IERC20",
          "name": "",
          "type": "address"
        }
      ],
      "stateMutability": "view",
      "type": "function"
    },
    {
      "inputs": [
        {
          "internalType": "address",
          "name": "_token",
          "type": "address"
        },
        {
          "internalType": "address",
          "name": "_to",
          "type": "address"
        },
        {
          "internalType": "uint256",
          "name": "_amount",
          "type": "uint256"
        }
      ],
      "name": "recoverToken",
      "outputs": [],
      "stateMutability": "nonpayable",
      "type": "function"
    },
    {
      "inputs": [],
      "name": "renounceOwnership",
      "outputs": [],
      "stateMutability": "nonpayable",
      "type": "function"
    },
    {
      "inputs": [
        {
          "internalType": "uint256",
          "name": "_boardLevel",
          "type": "uint256"
        },
        {
          "internalType": "uint256",
          "name": "_price",
          "type": "uint256"
        }
      ],
      "name": "setBoardPrice",
      "outputs": [],
      "stateMutability": "nonpayable",
      "type": "function"
    },
    {
      "inputs": [
        {
          "internalType": "address",
          "name": "_token",
          "type": "address"
        }
      ],
      "name": "setBtcRewardToken",
      "outputs": [],
      "stateMutability": "nonpayable",
      "type": "function"
    },
    {
      "inputs": [
        {
          "internalType": "address",
          "name": "_token",
          "type": "address"
        }
      ],
      "name": "setBtcbToken",
      "outputs": [],
      "stateMutability": "nonpayable",
      "type": "function"
    },
    {
      "inputs": [
        {
          "internalType": "address",
          "name": "_addr",
          "type": "address"
        }
      ],
      "name": "setCoinLiquidityAddress",
      "outputs": [],
      "stateMutability": "nonpayable",
      "type": "function"
    },
    {
      "inputs": [
        {
          "internalType": "address",
          "name": "_mlm",
          "type": "address"
        }
      ],
      "name": "setMLMContract",
      "outputs": [],
      "stateMutability": "nonpayable",
      "type": "function"
    },
    {
      "inputs": [
        {
          "internalType": "address",
          "name": "_router",
          "type": "address"
        }
      ],
      "name": "setPancakeRouter",
      "outputs": [],
      "stateMutability": "nonpayable",
      "type": "function"
    },
    {
      "inputs": [
        {
          "internalType": "address",
          "name": "_addr",
          "type": "address"
        }
      ],
      "name": "setSystemAddress",
      "outputs": [],
      "stateMutability": "nonpayable",
      "type": "function"
    },
    {
      "inputs": [],
      "name": "systemAddress",
      "outputs": [
        {
          "internalType": "address",
          "name": "",
          "type": "address"
        }
      ],
      "stateMutability": "view",
      "type": "function"
    },
    {
      "inputs": [
        {
          "internalType": "address",
          "name": "",
          "type": "address"
        }
      ],
      "name": "totalSwappedToBTC",
      "outputs": [
        {
          "internalType": "uint256",
          "name": "",
          "type": "uint256"
        }
      ],
      "stateMutability": "view",
      "type": "function"
    },
    {
      "inputs": [
        {
          "internalType": "address",
          "name": "",
          "type": "address"
        }
      ],
      "name": "totalVirtualRewards",
      "outputs": [
        {
          "internalType": "uint256",
          "name": "",
          "type": "uint256"
        }
      ],
      "stateMutability": "view",
      "type": "function"
    },
    {
      "inputs": [
        {
          "internalType": "address",
          "name": "newOwner",
          "type": "address"
        }
      ],
      "name": "transferOwnership",
      "outputs": [],
      "stateMutability": "nonpayable",
      "type": "function"
    },
    {
      "inputs": [
        {
          "internalType": "address",
          "name": "",
          "type": "address"
        }
      ],
      "name": "virtualRewardBalance",
      "outputs": [
        {
          "internalType": "uint256",
          "name": "",
          "type": "uint256"
        }
      ],
      "stateMutability": "view",
      "type": "function"
    }
  ],
  "bytecode": "0x608034620001f757601f62001f5738819003918201601f19168301916001600160401b03831184841017620001fc578084926040948552833981010312620001f75780516001600160a01b039182821691829003620001f7576020015160ff8116809103620001f7573315620001de57600091825460018060a01b03199033828216178555604051953391167f8be0079c531659141344cd1fd0a4f28419497f9722a3daafe3b4186f6b6457e08680a360017f9b779b17422d0df92223018b32b4d1fa46e071723d6817e2486d003becc55f00556014541617601455604d8111620001ca57600a0a9081603202603281048303620001ca576007558160b40260b481048303620001ca576008556102888281029081048303620001ca5760095561091d8281029081048303620001ca57600a556120ce8281029081048303620001ca57600b556176198281029081048303620001ca57600c556201a9278281029081048303620001ca57600d556205fa8d8281029081048303620001ca57600e55621585fb8281029081048303620001ca57600f55624d7bee9180830292830403620001b65750601055611d449081620002138239f35b634e487b7160e01b81526011600452602490fd5b634e487b7160e01b82526011600452602482fd5b604051631e4fbdf760e01b815260006004820152602490fd5b600080fd5b634e487b7160e01b600052604160045260246000fdfe60806040908082526004918236101561001757600080fd5b600092833560e01c92836304841337146111445750826306210197146110ff57826321a6816a14610c1d5782632389e78a146110d257826329d7f9eb146110455782632bdbe56d146110295782632dbe620314610fdc5782633013ce2914610fb357826339ae9efd14610f8a5782633ac272c21461029c57826342369fc314610f5257826347cd519114610ef257826349dca24f14610ebb5782634e75996214610e9f57826353dafcbb14610e765782635a33c3da14610e0657826361dba5f3146108b9578263686a38bd14610d885782636f8760fe14610d43578263715018a614610cfb578263727462e514610cb3578263732bdc5314610c97578263792ba2f214610c555782637d4cf0b81461077a57826386f7d53014610c1d5782638919d5e914610bf4578263898278dc14610b9e5782638da5cb5b14610b76578263956501bb1461033f57826396e03328146108be5782639898fcd3146108b9578263a5ad058614610810578263a5c34061146107f3578263a7229fd91461079b578263b0ac46261461077f578263b2418af81461077a578263b6b55f251461064f578263c21ebd0714610626578263c319f5bc14610534578263ce870263146104e7578263d3ba4f96146104a2578263d3e848f114610479578263d4a90286146103ea578263de9a7e19146103c1578263e1f1c4a7146103a4578263eb63e1c21461037b578263ed05ae781461033f578263f2fde38b146102c9578263f3b36bf81461029c57505063f8316c901461024d57600080fd5b346102995760203660031901126102995761026661117c565b61026e6112ab565b6001600160a01b03166102828115156112d7565b601680546001600160a01b03191691909117905580f35b80fd5b909150346102c55760203660031901126102c55760209282913581526002845220549051908152f35b8280fd5b909150346102c55760203660031901126102c5576102e561117c565b906102ee6112ab565b6001600160a01b0391821692831561032957505082546001600160a01b031981168317845516600080516020611ccf8339815191528380a380f35b51631e4fbdf760e01b8152908101849052602490fd5b8382346103775760203660031901126103775760209181906001600160a01b0361036761117c565b1681526011845220549051908152f35b5080fd5b909150346102c55760203660031901126102c55760209282913581526001845220549051908152f35b838234610377578160031936011261037757602090516127108152f35b838234610377578160031936011261037757601a5490516001600160a01b039091168152602090f35b8334610299576103f9366111ba565b92818352600160205284832054841015610451576060856104248682878781526001602052206113af565b509060018060a01b038254169160ff60026001830154920154169082519384526020840152151590820152f35b606490602086519162461bcd60e51b8352820152600260248201526127a160f11b6044820152fd5b83823461037757816003193601126103775760185490516001600160a01b039091168152602090f35b8334610299576020366003190112610299576104bc61117c565b6104c46112ab565b601780546001600160a01b0319166001600160a01b039290921691909117905580f35b83346102995760203660031901126102995761050161117c565b6105096112ab565b6001600160a01b031661051d8115156112d7565b601980546001600160a01b03191691909117905580f35b909150346102c557826020366003190112610299576016546105ce926001600160a01b0391821690610567821515611a5c565b82601a5416610577811515611a99565b86519361058385611362565b60028552873660208701376014541661059b85611ad4565b526105a584611ae1565b52855180958194829363d06ca61f60e01b84528035908401528860248401526044830190611b6c565b03915afa90811561061a57906105ef9184602095926105f7575b5050611ae1565b519051908152f35b61061392503d8091833e61060b818361137d565b810190611af1565b38806105e8565b505051903d90823e3d90fd5b83823461037757816003193601126103775760165490516001600160a01b039091168152602090f35b9150346102c557602090816003193601126107765782359261066f611ba9565b61067a841515611bd9565b60145482516323b872dd60e01b8752338352306024526044869052916001600160a01b0390911690848760648180865af16001885114811615610757575b838552876060521561074457505050907f2da466a7b24304f47e87fa2e1e5a81b9831ce54fec19055ce277ca2f39ba42c491338552601182528085206106ff85825461147f565b90553385526012825261071484828720611c0a565b338552601382526107288186204290611c0a565b519283523392a26001600080516020611cef8339815191525580f35b635274afe760e01b835282015260249150fd5b600181151661076d57823b15153d1516166106b8565b833d89823e3d90fd5b8380fd5b61127e565b83823461037757816003193601126103775760209051600a8152f35b8334610299576060366003190112610299576107b561117c565b6001600160a01b0360243581811692918382036107ef576107e26107ec946107db6112ab565b15156112d7565b60443592166119db565b80f35b8480fd5b838234610377578160031936011261037757602090516107d08152f35b9150346102c557806003193601126102c55761082a61117c565b90602435916108376112ab565b6001600160a01b038181169485156108915750916108898480936020956108807fca1cf43de312865665f595e88f569f9d5246690c07df26e86aba01147e6d1314981515611bd9565b601454166119db565b51908152a280f35b606490602085519162461bcd60e51b835282015260026024820152615a4160f01b6044820152fd5b611238565b9150346102c5576108ce366111ba565b6108d9929192611ba9565b8215610b455733855260209060038252838387205410610b03576016546001600160a01b03959061090d9087161515611a5c565b61091c86601a54161515611a99565b33875260038352838720805490868203918211610af0575586838760145416604489601654168851948593849263095ea7b360e01b8452888401528b60248401525af18015610ae657610aab575b5083519561097787611362565b60028752843685890137806014541661098f88611ad4565b5280601a541661099e88611ae1565b52601654169061012c4201804211610a9857888094939288926109e689519b8c97889687956338ed173960e01b8752860152602485015260a0604485015260a4840190611b6c565b90336064840152608483015203925af1938415610a8e577fb59929a0ceeda5fc5dc7c15f3c2b20a06d67071cdecb9466f1470df5f4bd7bf79394610a52918791610a74575b50610a3581611ae1565b5133885260058452610a4b85892091825461147f565b9055611ae1565b519082519485528401523392a26001600080516020611cef8339815191525580f35b610a8891503d8089833e61060b818361137d565b38610a2b565b82513d87823e3d90fd5b634e487b7160e01b895260118252602489fd5b8381813d8311610adf575b610ac0818361137d565b81010312610adb575180151503610ad7573861096a565b8680fd5b8780fd5b503d610ab6565b85513d8a823e3d90fd5b634e487b7160e01b895260118352602489fd5b825162461bcd60e51b8152808601839052601c60248201527b496e73756666696369656e74207669727475616c2062616c616e636560201b6044820152606490fd5b815162461bcd60e51b8152602081860152600b60248201526a16995c9bc8185b5bdd5b9d60aa1b6044820152606490fd5b838234610377578160031936011261037757905490516001600160a01b039091168152602090f35b838234610377578060031936011261037757610bb861117c565b6001600160a01b031682526012602052808220805460243593908410156102995750602092610be691611255565b91905490519160031b1c8152f35b83823461037757816003193601126103775760155490516001600160a01b039091168152602090f35b8382346103775760203660031901126103775760209181906001600160a01b03610c4561117c565b1681526005845220549051908152f35b83346102995760203660031901126102995782906001600160a01b03610c7961117c565b16815260036020528181205492602052205482519182526020820152f35b8382346103775781600319360112610377576020905160c88152f35b838234610377578060031936011261037757610ccd61117c565b6001600160a01b031682526013602052808220805460243593908410156102995750602092610be691611255565b8334610299578060031936011261029957610d146112ab565b80546001600160a01b03198116825581906001600160a01b0316600080516020611ccf8339815191528280a380f35b833461029957602036600319011261029957610d5d61117c565b610d656112ab565b601580546001600160a01b0319166001600160a01b039290921691909117905580f35b909150346102c557816003193601126102c557610da361117c565b601954909290336001600160a01b0391821614908115610df9575b5015610dd157836107ec6024358561148c565b906020606492519162461bcd60e51b835282015260026024820152614e4160f01b6044820152fd5b9050845416331438610dbe565b838234610377576020366003190112610377576001600160a01b03610e2961117c565b1682526012602052610e72610e51610e4b838086209560136020522094611c3f565b93611c3f565b610e648351948486958652850190611204565b908382036020850152611204565b0390f35b83823461037757816003193601126103775760195490516001600160a01b039091168152602090f35b83823461037757816003193601126103775760209051600c8152f35b909150346102c55760203660031901126102c55760209282916001600160a01b03610ee461117c565b168252845220549051908152f35b90833461029957602036600319011261029957823590600182101580610f47575b610f1c90611308565b600b821015610f345760208383600601549051908152f35b634e487b7160e01b815260328452602490fd5b50600a821115610f13565b8382346103775760203660031901126103775760209181906001600160a01b03610f7a61117c565b1681526003845220549051908152f35b83823461037757816003193601126103775760175490516001600160a01b039091168152602090f35b83823461037757816003193601126103775760145490516001600160a01b039091168152602090f35b833461029957602036600319011261029957610ff661117c565b610ffe6112ab565b6001600160a01b03166110128115156112d7565b601a80546001600160a01b03191691909117905580f35b8382346103775781600319360112610377576020905160098152f35b9150346102c557611055366111ba565b9290916110606112ab565b6001831015806110c7575b61107490611308565b831561109f5750600b82101561108c57506006015580f35b634e487b7160e01b845260329052602483fd5b906020606492519162461bcd60e51b83528201526002602482015261050360f41b6044820152fd5b50600a83111561106b565b909150346102c55760203660031901126102c55735600b8110156102c55760209250600601549051908152f35b83346102995760203660031901126102995761111961117c565b6111216112ab565b601880546001600160a01b0319166001600160a01b039290921691909117905580f35b8490346103775781600319360112610377578061222e60209252f35b600091031261116b57565b600080fd5b6001600160a01b031690565b600435906001600160a01b038216820361116b57565b600b8110156111a45760060190600090565b634e487b7160e01b600052603260045260246000fd5b604090600319011261116b576004359060243590565b6001600160a01b0316600090815260036020526040902090565b6001600160a01b0316600090815260046020526040902090565b90815180825260208080930193019160005b828110611224575050505090565b835185529381019392810192600101611216565b3461116b57600036600319011261116b576020604051610fa08152f35b80548210156111a45760005260206000200190600090565b908152602081019190915260400190565b3461116b57600036600319011261116b5760206040516102718152f35b6000526001602052604060002090565b6000546001600160a01b031633036112bf57565b60405163118cdaa760e01b8152336004820152602490fd5b156112de57565b60405162461bcd60e51b815260206004820152600260248201526124ab60f11b6044820152606490fd5b1561130f57565b60405162461bcd60e51b8152602060048201526002602482015261109360f21b6044820152606490fd5b6001600160401b03811161134c57604052565b634e487b7160e01b600052604160045260246000fd5b606081019081106001600160401b0382111761134c57604052565b601f909101601f19168101906001600160401b0382119082101761134c57604052565b604051906113ad82611362565b565b80548210156111a4576000526003602060002091020190600090565b8054600160401b81101561134c576113e8916001820181556113af565b61142757600260409160018060a01b0384511660018060a01b03198254161781556020840151600182015501910151151560ff80198354169116179055565b634e487b7160e01b600052600060045260246000fd5b60001981019190821161144c57565b634e487b7160e01b600052601160045260246000fd5b600019811461144c5760010190565b906001820180921161144c57565b9190820180921161144c57565b906114c16114998261129b565b6114a16113a0565b6001600160a01b03851681529060006020830152600060408301526113cb565b806114d46114ce8261129b565b5461143d565b60405181815290936001600160a01b0316907f4e755dd64e53a9f7a5882e2e32eb64718c2273de11e017bd47129b9fe2716d7c90602090a3611520816000526002602052604060002090565b5491821061152c575050565b61153e826115398361129b565b6113af565b5091600c600184016115508154611462565b809155101561155e57505050565b8261158261159d9261157d60026113ad9701600160ff19825416179055565b611471565b611596846000526002602052604060002090565b5554611170565b61163e565b9060098202918083046009149015171561144c57565b9061222e9182810292818404149015171561144c57565b906102719182810292818404149015171561144c57565b90610fa09182810292818404149015171561144c57565b906107d09182810292818404149015171561144c57565b604091949392606082019560018060a01b0316825260208201520152565b6040513d6000823e3d90fd5b61165c61165761164d84611192565b90549060031b1c90565b6115a2565b91600a81101561186a57611686611678611680611678866115e6565b612710900490565b946115fd565b92611690836111d0565b61169b82825461147f565b90556116a6836111ea565b6116b182825461147f565b90556040516001600160a01b0384811692918390600080516020611caf83398151915290806116e188878361126d565b0390a26116ef601754611170565b8682821661184f575b5050611705601954611170565b1680611744575b50918091600080516020611c8f8339815191526113ad9661173e956117366040519283928361126d565b0390a3611471565b9061148c565b80939291933b1561116b57604051631a495e5760e31b8152600091829082908183816117758a8c8e60048501611614565b03925af180156118375761183c575b5061179b611796611796601954611170565b611170565b6117af61164d6117aa86611471565b611192565b906117b985611471565b91813b156107765760405163ecdc590760e01b81529493928592918391859183916117e8918d60048501611614565b03925af18015611837576113ad9661173e958594600080516020611c8f8339815191529361181e575b509350965050919261170c565b8061182b61183192611339565b80611160565b38611811565b611632565b8061182b61184992611339565b38611784565b6118639161185e601454611170565b6119db565b38866116f8565b9190611878611678836115b8565b61189061167861188a611678866115cf565b946115cf565b9061189a836111d0565b6118a582825461147f565b90556118b0836111ea565b6118bb82825461147f565b905560018060a01b038084169485600080516020611caf833981519152604051806118e78b888361126d565b0390a26118f5601854611170565b908282166119c5575b505061190b601754611170565b838282166119af575b5050611921601954611170565b168061194e575b50600080516020611c8f83398151915292506119496040519283928361126d565b0390a3565b803b1561116b5785600091838361197c9760405198899586948593631a495e5760e31b855260048501611614565b03925af192831561183757600080516020611c8f8339815191529315611928578061182b6119a992611339565b38611928565b6119be9161185e601454611170565b3883611914565b6119d49161185e601454611170565b38806118fe565b60405163a9059cbb60e01b60009081526001600160a01b039384166004526024949094529260209060448180855af1600160005114811615611a3c575b8360405215611a2657505050565b635274afe760e01b835216600482015260249150fd5b6001811516611a5257813b15153d151616611a18565b833d6000823e3d90fd5b15611a6357565b60405162461bcd60e51b815260206004820152600e60248201526d149bdd5d195c881b9bdd081cd95d60921b6044820152606490fd5b15611aa057565b60405162461bcd60e51b815260206004820152600c60248201526b109510d0881b9bdd081cd95d60a21b6044820152606490fd5b8051156111a45760200190565b8051600110156111a45760400190565b90602090818382031261116b5782516001600160401b039384821161116b570181601f8201121561116b57805193841161134c578360051b9060405194611b3a8584018761137d565b8552838086019282010192831161116b578301905b828210611b5d575050505090565b81518152908301908301611b4f565b90815180825260208080930193019160005b828110611b8c575050505090565b83516001600160a01b031685529381019392810192600101611b7e565b600080516020611cef8339815191526002815414611bc75760029055565b604051633ee5aeb560e01b8152600490fd5b15611be057565b60405162461bcd60e51b8152602060048201526002602482015261041360f41b6044820152606490fd5b8054600160401b81101561134c57611c2791600182018155611255565b819291549060031b91821b91600019901b1916179055565b9060405191828154918282526020928383019160005283600020936000905b828210611c74575050506113ad9250038361137d565b855484526001958601958895509381019390910190611c5e56fec9dfd5046e5f1be95c560d1b85295f8afd28d0102c20e0b4112b88bd328ca433480cf80c78df84f9ad0c3da7cb64f6ae3656d3aed9cfc42064d865cdcdbc2b248be0079c531659141344cd1fd0a4f28419497f9722a3daafe3b4186f6b6457e09b779b17422d0df92223018b32b4d1fa46e071723d6817e2486d003becc55f00a2646970667358221220451633888687fac3fa1b6e28139dc3fd3b8c4af6f153e882f70b89a8a432b2f264736f6c63430008140033",
  "linkReferences": {},
  "deployedLinkReferences": {}
}