{
  "_format": "hh-sol-artifact-1",
  "contractName": "BoardMatrixHandler",
  "sourceName": "contracts/BoardMatrixHandler.sol",
  "abi": [
    {
      "inputs": [
        {
          "internalType": "address",
          "name": "_paymentToken",
          "type": "address"
        },
        {
          "internalType": "uint8",
          "name": "_tokenDecimals",
          "type": "uint8"
        }
      ],
      "stateMutability": "nonpayable",
      "type": "constructor"
    },
    {
      "inputs": [
        {
          "internalType": "address",
          "name": "owner",
          "type": "address"
        }
      ],
      "name": "OwnableInvalidOwner",
      "type": "error"
    },
    {
      "inputs": [
        {
          "internalType": "address",
          "name": "account",
          "type": "address"
        }
      ],
      "name": "OwnableUnauthorizedAccount",
      "type": "error"
    },
    {
      "inputs": [
        {
          "internalType": "address",
          "name": "token",
          "type": "address"
        }
      ],
      "name": "SafeERC20FailedOperation",
      "type": "error"
    },
    {
      "anonymous": false,
      "inputs": [
        {
          "indexed": true,
          "internalType": "address",
          "name": "owner",
          "type": "address"
        },
        {
          "indexed": true,
          "internalType": "uint256",
          "name": "boardLevel",
          "type": "uint256"
        },
        {
          "indexed": false,
          "internalType": "uint256",
          "name": "reward",
          "type": "uint256"
        },
        {
          "indexed": false,
          "internalType": "uint256",
          "name": "liquidity",
          "type": "uint256"
        }
      ],
      "name": "BoardCompleted",
      "type": "event"
    },
    {
      "anonymous": false,
      "inputs": [
        {
          "indexed": true,
          "internalType": "address",
          "name": "user",
          "type": "address"
        },
        {
          "indexed": true,
          "internalType": "uint256",
          "name": "boardLevel",
          "type": "uint256"
        },
        {
          "indexed": false,
          "internalType": "uint256",
          "name": "matrixIndex",
          "type": "uint256"
        }
      ],
      "name": "BoardEntered",
      "type": "event"
    },
    {
      "anonymous": false,
      "inputs": [
        {
          "indexed": true,
          "internalType": "address",
          "name": "previousOwner",
          "type": "address"
        },
        {
          "indexed": true,
          "internalType": "address",
          "name": "newOwner",
          "type": "address"
        }
      ],
      "name": "OwnershipTransferred",
      "type": "event"
    },
    {
      "inputs": [],
      "name": "BASIS_POINTS",
      "outputs": [
        {
          "internalType": "uint256",
          "name": "",
          "type": "uint256"
        }
      ],
      "stateMutability": "view",
      "type": "function"
    },
    {
      "inputs": [],
      "name": "BOARD_10_LIQUIDITY_RATE_BP",
      "outputs": [
        {
          "internalType": "uint256",
          "name": "",
          "type": "uint256"
        }
      ],
      "stateMutability": "view",
      "type": "function"
    },
    {
      "inputs": [],
      "name": "BOARD_10_REWARD_RATE_BP",
      "outputs": [
        {
          "internalType": "uint256",
          "name": "",
          "type": "uint256"
        }
      ],
      "stateMutability": "view",
      "type": "function"
    },
    {
      "inputs": [],
      "name": "BOARD_10_SYSTEM_RATE_BP",
      "outputs": [
        {
          "internalType": "uint256",
          "name": "",
          "type": "uint256"
        }
      ],
      "stateMutability": "view",
      "type": "function"
    },
    {
      "inputs": [],
      "name": "BOARD_LIQUIDITY_RATE_BP",
      "outputs": [
        {
          "internalType": "uint256",
          "name": "",
          "type": "uint256"
        }
      ],
      "stateMutability": "view",
      "type": "function"
    },
    {
      "inputs": [],
      "name": "BOARD_MEMBERS_REQUIRED",
      "outputs": [
        {
          "internalType": "uint256",
          "name": "",
          "type": "uint256"
        }
      ],
      "stateMutability": "view",
      "type": "function"
    },
    {
      "inputs": [],
      "name": "BOARD_NEXT_POOL_RATE_BP",
      "outputs": [
        {
          "internalType": "uint256",
          "name": "",
          "type": "uint256"
        }
      ],
      "stateMutability": "view",
      "type": "function"
    },
    {
      "inputs": [],
      "name": "BOARD_REWARD_RATE_BP",
      "outputs": [
        {
          "internalType": "uint256",
          "name": "",
          "type": "uint256"
        }
      ],
      "stateMutability": "view",
      "type": "function"
    },
    {
      "inputs": [],
      "name": "TOTAL_BOARDS",
      "outputs": [
        {
          "internalType": "uint256",
          "name": "",
          "type": "uint256"
        }
      ],
      "stateMutability": "view",
      "type": "function"
    },
    {
      "inputs": [
        {
          "internalType": "uint256",
          "name": "",
          "type": "uint256"
        }
      ],
      "name": "boardCurrentIndex",
      "outputs": [
        {
          "internalType": "uint256",
          "name": "",
          "type": "uint256"
        }
      ],
      "stateMutability": "view",
      "type": "function"
    },
    {
      "inputs": [
        {
          "internalType": "uint256",
          "name": "",
          "type": "uint256"
        }
      ],
      "name": "boardPrices",
      "outputs": [
        {
          "internalType": "uint256",
          "name": "",
          "type": "uint256"
        }
      ],
      "stateMutability": "view",
      "type": "function"
    },
    {
      "inputs": [],
      "name": "btcRewardToken",
      "outputs": [
        {
          "internalType": "contract IERC20",
          "name": "",
          "type": "address"
        }
      ],
      "stateMutability": "view",
      "type": "function"
    },
    {
      "inputs": [],
      "name": "coinLiquidityAddress",
      "outputs": [
        {
          "internalType": "address",
          "name": "",
          "type": "address"
        }
      ],
      "stateMutability": "view",
      "type": "function"
    },
    {
      "inputs": [
        {
          "internalType": "address",
          "name": "_user",
          "type": "address"
        },
        {
          "internalType": "uint256",
          "name": "_boardLevel",
          "type": "uint256"
        }
      ],
      "name": "enterBoard",
      "outputs": [],
      "stateMutability": "nonpayable",
      "type": "function"
    },
    {
      "inputs": [
        {
          "internalType": "uint256",
          "name": "_boardLevel",
          "type": "uint256"
        }
      ],
      "name": "getBoardCurrentIndex",
      "outputs": [
        {
          "internalType": "uint256",
          "name": "",
          "type": "uint256"
        }
      ],
      "stateMutability": "view",
      "type": "function"
    },
    {
      "inputs": [
        {
          "internalType": "uint256",
          "name": "_boardLevel",
          "type": "uint256"
        },
        {
          "internalType": "uint256",
          "name": "_index",
          "type": "uint256"
        }
      ],
      "name": "getBoardMatrixInfo",
      "outputs": [
        {
          "internalType": "address",
          "name": "owner",
          "type": "address"
        },
        {
          "internalType": "uint256",
          "name": "filledCount",
          "type": "uint256"
        },
        {
          "internalType": "bool",
          "name": "completed",
          "type": "bool"
        }
      ],
      "stateMutability": "view",
      "type": "function"
    },
    {
      "inputs": [
        {
          "internalType": "uint256",
          "name": "_boardLevel",
          "type": "uint256"
        }
      ],
      "name": "getBoardPrice",
      "outputs": [
        {
          "internalType": "uint256",
          "name": "",
          "type": "uint256"
        }
      ],
      "stateMutability": "view",
      "type": "function"
    },
    {
      "inputs": [
        {
          "internalType": "uint256",
          "name": "_boardLevel",
          "type": "uint256"
        }
      ],
      "name": "getBoardQueueLength",
      "outputs": [
        {
          "internalType": "uint256",
          "name": "",
          "type": "uint256"
        }
      ],
      "stateMutability": "view",
      "type": "function"
    },
    {
      "inputs": [],
      "name": "mlmContract",
      "outputs": [
        {
          "internalType": "address",
          "name": "",
          "type": "address"
        }
      ],
      "stateMutability": "view",
      "type": "function"
    },
    {
      "inputs": [],
      "name": "owner",
      "outputs": [
        {
          "internalType": "address",
          "name": "",
          "type": "address"
        }
      ],
      "stateMutability": "view",
      "type": "function"
    },
    {
      "inputs": [],
      "name": "paymentToken",
      "outputs": [
        {
          "internalType": "contract IERC20",
          "name": "",
          "type": "address"
        }
      ],
      "stateMutability": "view",
      "type": "function"
    },
    {
      "inputs": [
        {
          "internalType": "address",
          "name": "_token",
          "type": "address"
        },
        {
          "internalType": "address",
          "name": "_to",
          "type": "address"
        },
        {
          "internalType": "uint256",
          "name": "_amount",
          "type": "uint256"
        }
      ],
      "name": "recoverToken",
      "outputs": [],
      "stateMutability": "nonpayable",
      "type": "function"
    },
    {
      "inputs": [],
      "name": "renounceOwnership",
      "outputs": [],
      "stateMutability": "nonpayable",
      "type": "function"
    },
    {
      "inputs": [
        {
          "internalType": "uint256",
          "name": "_boardLevel",
          "type": "uint256"
        },
        {
          "internalType": "uint256",
          "name": "_price",
          "type": "uint256"
        }
      ],
      "name": "setBoardPrice",
      "outputs": [],
      "stateMutability": "nonpayable",
      "type": "function"
    },
    {
      "inputs": [
        {
          "internalType": "address",
          "name": "_token",
          "type": "address"
        }
      ],
      "name": "setBtcRewardToken",
      "outputs": [],
      "stateMutability": "nonpayable",
      "type": "function"
    },
    {
      "inputs": [
        {
          "internalType": "address",
          "name": "_addr",
          "type": "address"
        }
      ],
      "name": "setCoinLiquidityAddress",
      "outputs": [],
      "stateMutability": "nonpayable",
      "type": "function"
    },
    {
      "inputs": [
        {
          "internalType": "address",
          "name": "_mlm",
          "type": "address"
        }
      ],
      "name": "setMLMContract",
      "outputs": [],
      "stateMutability": "nonpayable",
      "type": "function"
    },
    {
      "inputs": [
        {
          "internalType": "address",
          "name": "_addr",
          "type": "address"
        }
      ],
      "name": "setSystemAddress",
      "outputs": [],
      "stateMutability": "nonpayable",
      "type": "function"
    },
    {
      "inputs": [],
      "name": "systemAddress",
      "outputs": [
        {
          "internalType": "address",
          "name": "",
          "type": "address"
        }
      ],
      "stateMutability": "view",
      "type": "function"
    },
    {
      "inputs": [
        {
          "internalType": "address",
          "name": "newOwner",
          "type": "address"
        }
      ],
      "name": "transferOwnership",
      "outputs": [],
      "stateMutability": "nonpayable",
      "type": "function"
    }
  ],
  "bytecode": "0x608034620001e857601f6200124038819003918201601f19168301916001600160401b03831184841017620001ed578084926040948552833981010312620001e85780516001600160a01b039182821691829003620001e8576020015160ff8116809103620001e8573315620001cf57600091825460018060a01b03199033828216178555604051953391167f8be0079c531659141344cd1fd0a4f28419497f9722a3daafe3b4186f6b6457e08680a3600e541617600e55604d8111620001bb57600a0a9081603202603281048303620001bb5760049081558260b40260b481048403620001a8576005556102888381029081048403620001a85760065561091d8381029081048403620001a8576007556120ce8381029081048403620001a8576008556176198381029081048403620001a8576009556201a9278381029081048403620001a857600a556205fa8d8381029081048403620001a857600b55621585fb8381029081048403620001a857600c55624d7bee928084029384040362000195575050600d5561103c9081620002048239f35b634e487b7160e01b825260119052602490fd5b634e487b7160e01b835260118252602483fd5b634e487b7160e01b82526011600452602482fd5b604051631e4fbdf760e01b815260006004820152602490fd5b600080fd5b634e487b7160e01b600052604160045260246000fdfe6080604081815260048036101561001557600080fd5b600092833560e01c90816304841337146107b157508063062101971461076c5780632389e78a1461074157806329d7f9eb146106b45780633013ce291461068b57806339ae9efd146106625780633ac272c21461063b57806347cd5191146105db5780634e759962146105bf57806353dafcbb1461059657806361dba5f314610437578063686a38bd1461051a5780636f8760fe146104d5578063715018a61461048d5780637d4cf0b8146103a15780638919d5e9146104645780638da5cb5b1461043c5780639898fcd314610437578063a5c340611461041a578063a7229fd9146103c2578063b0ac4626146103a6578063b2418af8146103a1578063ce87026314610354578063d3ba4f961461030f578063d3e848f1146102e6578063d4a9028614610253578063e1f1c4a714610232578063eb63e1c21461020b578063f2fde38b146101975763f3b36bf81461016d57600080fd5b346101935760203660031901126101935760209282913581526002845220549051908152f35b8280fd5b5034610193576020366003190112610193576101b16107e9565b906101ba610887565b6001600160a01b039182169283156101f557505082546001600160a01b031981168317845516600080516020610fe78339815191528380a380f35b51631e4fbdf760e01b8152908101849052602490fd5b50346101935760203660031901126101935760209282913581526001845220549051908152f35b50503461024f578160031936011261024f57602090516127108152f35b5080fd5b5082346102e35761026336610827565b928183526001602052848320548410156102bb5760608561028e86828787815260016020522061095d565b509060018060a01b038254169160ff60026001830154920154169082519384526020840152151590820152f35b606490602086519162461bcd60e51b8352820152600260248201526127a160f11b6044820152fd5b80fd5b50503461024f578160031936011261024f5760115490516001600160a01b039091168152602090f35b83346102e35760203660031901126102e3576103296107e9565b610331610887565b601080546001600160a01b0319166001600160a01b039290921691909117905580f35b83346102e35760203660031901126102e35761036e6107e9565b610376610887565b6001600160a01b031661038a8115156108b3565b601280546001600160a01b03191691909117905580f35b61085a565b50503461024f578160031936011261024f5760209051600a8152f35b83346102e35760603660031901126102e3576103dc6107e9565b6001600160a01b0360243581811692918382036104165761040961041394610402610887565b15156108b3565b6044359216610f45565b80f35b8480fd5b50503461024f578160031936011261024f57602090516107d08152f35b61083d565b50503461024f578160031936011261024f57905490516001600160a01b039091168152602090f35b50503461024f578160031936011261024f57600f5490516001600160a01b039091168152602090f35b83346102e357806003193601126102e3576104a6610887565b80546001600160a01b03198116825581906001600160a01b0316600080516020610fe78339815191528280a380f35b83346102e35760203660031901126102e3576104ef6107e9565b6104f7610887565b600f80546001600160a01b0319166001600160a01b039290921691909117905580f35b50346101935781600319360112610193576105336107e9565b601254909290336001600160a01b0391821614908115610589575b5015610561578361041360243585610a2d565b906020606492519162461bcd60e51b835282015260026024820152614e4160f01b6044820152fd5b905084541633143861054e565b50503461024f578160031936011261024f5760125490516001600160a01b039091168152602090f35b50503461024f578160031936011261024f5760209051600c8152f35b5091346102e35760203660031901126102e357823590600182101580610630575b610605906108e4565b600b82101561061d5760208383600301549051908152f35b634e487b7160e01b815260328452602490fd5b50600a8211156105fc565b50346101935760203660031901126101935760209282913581526002845220549051908152f35b50503461024f578160031936011261024f5760105490516001600160a01b039091168152602090f35b50503461024f578160031936011261024f57600e5490516001600160a01b039091168152602090f35b509034610193576106c436610827565b9290916106cf610887565b600183101580610736575b6106e3906108e4565b831561070e5750600b8210156106fb57506003015580f35b634e487b7160e01b845260329052602483fd5b906020606492519162461bcd60e51b83528201526002602482015261050360f41b6044820152fd5b50600a8311156106da565b50346101935760203660031901126101935735600b8110156101935760209250600301549051908152f35b83346102e35760203660031901126102e3576107866107e9565b61078e610887565b601180546001600160a01b0319166001600160a01b039290921691909117905580f35b84903461024f578160031936011261024f578061222e60209252f35b60009103126107d857565b600080fd5b6001600160a01b031690565b600435906001600160a01b03821682036107d857565b600b8110156108115760030190600090565b634e487b7160e01b600052603260045260246000fd5b60409060031901126107d8576004359060243590565b346107d85760003660031901126107d8576020604051610fa08152f35b346107d85760003660031901126107d85760206040516102718152f35b6000526001602052604060002090565b6000546001600160a01b0316330361089b57565b60405163118cdaa760e01b8152336004820152602490fd5b156108ba57565b60405162461bcd60e51b815260206004820152600260248201526124ab60f11b6044820152606490fd5b156108eb57565b60405162461bcd60e51b8152602060048201526002602482015261109360f21b6044820152606490fd5b6001600160401b03811161092857604052565b634e487b7160e01b600052604160045260246000fd5b60405190606082016001600160401b0381118382101761092857604052565b8054821015610811576000526003602060002091020190600090565b8054600160401b811015610928576109969160018201815561095d565b6109d557600260409160018060a01b0384511660018060a01b03198254161781556020840151600182015501910151151560ff80198354169116179055565b634e487b7160e01b600052600060045260246000fd5b6000198101919082116109fa57565b634e487b7160e01b600052601160045260246000fd5b60001981146109fa5760010190565b90600182018092116109fa57565b90610a62610a3a82610877565b610a4261093e565b6001600160a01b0385168152906000602083015260006040830152610979565b80610a75610a6f82610877565b546109eb565b60405181815290936001600160a01b0316907f4e755dd64e53a9f7a5882e2e32eb64718c2273de11e017bd47129b9fe2716d7c90602090a3610ac1816000526002602052604060002090565b54918210610acd575050565b610adf82610ada83610877565b61095d565b5091600c60018401610af18154610a10565b8091551015610aff57505050565b82610b23610b3e92610b1e6002610b439701600160ff19825416179055565b610a1f565b610b37846000526002602052604060002090565b55546107dd565b610be1565b565b90600c820291808304600c14901517156109fa57565b9061222e918281029281840414901517156109fa57565b90610271918281029281840414901517156109fa57565b90610fa0918281029281840414901517156109fa57565b906107d0918281029281840414901517156109fa57565b604091949392606082019560018060a01b0316825260208201520152565b6040513d6000823e3d90fd5b610bff610bfa610bf0846107ff565b90549060031b1c90565b610b45565b91600a811015610de957610c29610c1b610c23610c1b86610b89565b612710900490565b94610ba0565b92610c35600f546107dd565b6001600160a01b03908285828416610dd8575b505050610c566010546107dd565b85828216610dbd575b505080610c6d6012546107dd565b1680610cae575b50604080519283526020830195909552610b4394610ca893928392861691600080516020610fc783398151915291a3610a1f565b90610a2d565b80939291933b156107d857604051631a495e5760e31b815260009182908290818381610cdf8a8a8e60048501610bb7565b03925af18015610da157610daa575b50610d05610d00610d006012546107dd565b6107dd565b610d19610bf0610d1486610a1f565b6107ff565b90610d2385610a1f565b91813b15610da65760405163ecdc590760e01b8152949392859291839185918391610d52918d60048501610bb7565b03925af18015610da157610b4396610ca8958594600080516020610fc783398151915293610d88575b5093509650509192610c74565b80610d95610d9b92610915565b806107cd565b38610d7b565b610bd5565b8380fd5b80610d95610db792610915565b38610cee565b610dd191610dcc600e546107dd565b610f45565b3885610c5f565b610de192610f45565b388285610c48565b9190610df7610c1b83610b5b565b91610e10610c1b610e0a610c1b84610b72565b92610b72565b91610e1c600f546107dd565b6001600160a01b0392908583858316610f34575b505050610e3e6011546107dd565b90838216610f1e575b5050610e546010546107dd565b83838216610f08575b505081610e6b6012546107dd565b1680610e9e575b506040805194855260208501939093521691600080516020610fc783398151915291819081015b0390a3565b92833b156107d85760006040518095631a495e5760e31b8252818381610ec98c8c8a60048501610bb7565b03925af1908115610da157600080516020610fc783398151915294610e9992610ef5575b509350610e72565b80610d95610f0292610915565b38610eed565b610f1791610dcc600e546107dd565b3883610e5d565b610f2d91610dcc600e546107dd565b3880610e47565b610f3d92610f45565b388583610e30565b60405163a9059cbb60e01b60009081526001600160a01b039384166004526024949094529260209060448180855af1600160005114811615610fa6575b8360405215610f9057505050565b635274afe760e01b835216600482015260249150fd5b6001811516610fbc57813b15153d151616610f82565b833d6000823e3d90fdfec9dfd5046e5f1be95c560d1b85295f8afd28d0102c20e0b4112b88bd328ca4338be0079c531659141344cd1fd0a4f28419497f9722a3daafe3b4186f6b6457e0a26469706673582212203b8660b546c13acdd288a2c5e156bd8b36696edae5b74229c683ff561ea37f3864736f6c63430008140033",
  "linkReferences": {},
  "deployedLinkReferences": {}
}