{
  "_format": "hh-sol-artifact-1",
  "contractName": "BoardMatrixHandler",
  "sourceName": "contracts/BoardMatrixHandler.sol",
  "abi": [
    {
      "inputs": [
        {
          "internalType": "address",
          "name": "_paymentToken",
          "type": "address"
        },
        {
          "internalType": "uint8",
          "name": "_tokenDecimals",
          "type": "uint8"
        }
      ],
      "stateMutability": "nonpayable",
      "type": "constructor"
    },
    {
      "inputs": [
        {
          "internalType": "address",
          "name": "owner",
          "type": "address"
        }
      ],
      "name": "OwnableInvalidOwner",
      "type": "error"
    },
    {
      "inputs": [
        {
          "internalType": "address",
          "name": "account",
          "type": "address"
        }
      ],
      "name": "OwnableUnauthorizedAccount",
      "type": "error"
    },
    {
      "inputs": [
        {
          "internalType": "address",
          "name": "token",
          "type": "address"
        }
      ],
      "name": "SafeERC20FailedOperation",
      "type": "error"
    },
    {
      "anonymous": false,
      "inputs": [
        {
          "indexed": true,
          "internalType": "address",
          "name": "owner",
          "type": "address"
        },
        {
          "indexed": true,
          "internalType": "uint256",
          "name": "boardLevel",
          "type": "uint256"
        },
        {
          "indexed": false,
          "internalType": "uint256",
          "name": "reward",
          "type": "uint256"
        },
        {
          "indexed": false,
          "internalType": "uint256",
          "name": "liquidity",
          "type": "uint256"
        }
      ],
      "name": "BoardCompleted",
      "type": "event"
    },
    {
      "anonymous": false,
      "inputs": [
        {
          "indexed": true,
          "internalType": "address",
          "name": "user",
          "type": "address"
        },
        {
          "indexed": true,
          "internalType": "uint256",
          "name": "boardLevel",
          "type": "uint256"
        },
        {
          "indexed": false,
          "internalType": "uint256",
          "name": "matrixIndex",
          "type": "uint256"
        }
      ],
      "name": "BoardEntered",
      "type": "event"
    },
    {
      "anonymous": false,
      "inputs": [
        {
          "indexed": true,
          "internalType": "address",
          "name": "previousOwner",
          "type": "address"
        },
        {
          "indexed": true,
          "internalType": "address",
          "name": "newOwner",
          "type": "address"
        }
      ],
      "name": "OwnershipTransferred",
      "type": "event"
    },
    {
      "inputs": [],
      "name": "BASIS_POINTS",
      "outputs": [
        {
          "internalType": "uint256",
          "name": "",
          "type": "uint256"
        }
      ],
      "stateMutability": "view",
      "type": "function"
    },
    {
      "inputs": [],
      "name": "BOARD_10_LIQUIDITY_RATE_BP",
      "outputs": [
        {
          "internalType": "uint256",
          "name": "",
          "type": "uint256"
        }
      ],
      "stateMutability": "view",
      "type": "function"
    },
    {
      "inputs": [],
      "name": "BOARD_10_REWARD_RATE_BP",
      "outputs": [
        {
          "internalType": "uint256",
          "name": "",
          "type": "uint256"
        }
      ],
      "stateMutability": "view",
      "type": "function"
    },
    {
      "inputs": [],
      "name": "BOARD_10_SYSTEM_RATE_BP",
      "outputs": [
        {
          "internalType": "uint256",
          "name": "",
          "type": "uint256"
        }
      ],
      "stateMutability": "view",
      "type": "function"
    },
    {
      "inputs": [],
      "name": "BOARD_LIQUIDITY_RATE_BP",
      "outputs": [
        {
          "internalType": "uint256",
          "name": "",
          "type": "uint256"
        }
      ],
      "stateMutability": "view",
      "type": "function"
    },
    {
      "inputs": [],
      "name": "BOARD_MEMBERS_REQUIRED",
      "outputs": [
        {
          "internalType": "uint256",
          "name": "",
          "type": "uint256"
        }
      ],
      "stateMutability": "view",
      "type": "function"
    },
    {
      "inputs": [],
      "name": "BOARD_NEXT_POOL_RATE_BP",
      "outputs": [
        {
          "internalType": "uint256",
          "name": "",
          "type": "uint256"
        }
      ],
      "stateMutability": "view",
      "type": "function"
    },
    {
      "inputs": [],
      "name": "BOARD_REWARD_MEMBERS",
      "outputs": [
        {
          "internalType": "uint256",
          "name": "",
          "type": "uint256"
        }
      ],
      "stateMutability": "view",
      "type": "function"
    },
    {
      "inputs": [],
      "name": "BOARD_REWARD_RATE_BP",
      "outputs": [
        {
          "internalType": "uint256",
          "name": "",
          "type": "uint256"
        }
      ],
      "stateMutability": "view",
      "type": "function"
    },
    {
      "inputs": [],
      "name": "TOTAL_BOARDS",
      "outputs": [
        {
          "internalType": "uint256",
          "name": "",
          "type": "uint256"
        }
      ],
      "stateMutability": "view",
      "type": "function"
    },
    {
      "inputs": [
        {
          "internalType": "uint256",
          "name": "",
          "type": "uint256"
        }
      ],
      "name": "boardCurrentIndex",
      "outputs": [
        {
          "internalType": "uint256",
          "name": "",
          "type": "uint256"
        }
      ],
      "stateMutability": "view",
      "type": "function"
    },
    {
      "inputs": [
        {
          "internalType": "uint256",
          "name": "",
          "type": "uint256"
        }
      ],
      "name": "boardPrices",
      "outputs": [
        {
          "internalType": "uint256",
          "name": "",
          "type": "uint256"
        }
      ],
      "stateMutability": "view",
      "type": "function"
    },
    {
      "inputs": [],
      "name": "btcRewardToken",
      "outputs": [
        {
          "internalType": "contract IERC20",
          "name": "",
          "type": "address"
        }
      ],
      "stateMutability": "view",
      "type": "function"
    },
    {
      "inputs": [],
      "name": "coinLiquidityAddress",
      "outputs": [
        {
          "internalType": "address",
          "name": "",
          "type": "address"
        }
      ],
      "stateMutability": "view",
      "type": "function"
    },
    {
      "inputs": [
        {
          "internalType": "address",
          "name": "_user",
          "type": "address"
        },
        {
          "internalType": "uint256",
          "name": "_boardLevel",
          "type": "uint256"
        }
      ],
      "name": "enterBoard",
      "outputs": [],
      "stateMutability": "nonpayable",
      "type": "function"
    },
    {
      "inputs": [
        {
          "internalType": "uint256",
          "name": "_boardLevel",
          "type": "uint256"
        }
      ],
      "name": "getBoardCurrentIndex",
      "outputs": [
        {
          "internalType": "uint256",
          "name": "",
          "type": "uint256"
        }
      ],
      "stateMutability": "view",
      "type": "function"
    },
    {
      "inputs": [
        {
          "internalType": "uint256",
          "name": "_boardLevel",
          "type": "uint256"
        },
        {
          "internalType": "uint256",
          "name": "_index",
          "type": "uint256"
        }
      ],
      "name": "getBoardMatrixInfo",
      "outputs": [
        {
          "internalType": "address",
          "name": "owner",
          "type": "address"
        },
        {
          "internalType": "uint256",
          "name": "filledCount",
          "type": "uint256"
        },
        {
          "internalType": "bool",
          "name": "completed",
          "type": "bool"
        }
      ],
      "stateMutability": "view",
      "type": "function"
    },
    {
      "inputs": [
        {
          "internalType": "uint256",
          "name": "_boardLevel",
          "type": "uint256"
        }
      ],
      "name": "getBoardPrice",
      "outputs": [
        {
          "internalType": "uint256",
          "name": "",
          "type": "uint256"
        }
      ],
      "stateMutability": "view",
      "type": "function"
    },
    {
      "inputs": [
        {
          "internalType": "uint256",
          "name": "_boardLevel",
          "type": "uint256"
        }
      ],
      "name": "getBoardQueueLength",
      "outputs": [
        {
          "internalType": "uint256",
          "name": "",
          "type": "uint256"
        }
      ],
      "stateMutability": "view",
      "type": "function"
    },
    {
      "inputs": [],
      "name": "mlmContract",
      "outputs": [
        {
          "internalType": "address",
          "name": "",
          "type": "address"
        }
      ],
      "stateMutability": "view",
      "type": "function"
    },
    {
      "inputs": [],
      "name": "owner",
      "outputs": [
        {
          "internalType": "address",
          "name": "",
          "type": "address"
        }
      ],
      "stateMutability": "view",
      "type": "function"
    },
    {
      "inputs": [],
      "name": "paymentToken",
      "outputs": [
        {
          "internalType": "contract IERC20",
          "name": "",
          "type": "address"
        }
      ],
      "stateMutability": "view",
      "type": "function"
    },
    {
      "inputs": [
        {
          "internalType": "address",
          "name": "_token",
          "type": "address"
        },
        {
          "internalType": "address",
          "name": "_to",
          "type": "address"
        },
        {
          "internalType": "uint256",
          "name": "_amount",
          "type": "uint256"
        }
      ],
      "name": "recoverToken",
      "outputs": [],
      "stateMutability": "nonpayable",
      "type": "function"
    },
    {
      "inputs": [],
      "name": "renounceOwnership",
      "outputs": [],
      "stateMutability": "nonpayable",
      "type": "function"
    },
    {
      "inputs": [
        {
          "internalType": "uint256",
          "name": "_boardLevel",
          "type": "uint256"
        },
        {
          "internalType": "uint256",
          "name": "_price",
          "type": "uint256"
        }
      ],
      "name": "setBoardPrice",
      "outputs": [],
      "stateMutability": "nonpayable",
      "type": "function"
    },
    {
      "inputs": [
        {
          "internalType": "address",
          "name": "_token",
          "type": "address"
        }
      ],
      "name": "setBtcRewardToken",
      "outputs": [],
      "stateMutability": "nonpayable",
      "type": "function"
    },
    {
      "inputs": [
        {
          "internalType": "address",
          "name": "_addr",
          "type": "address"
        }
      ],
      "name": "setCoinLiquidityAddress",
      "outputs": [],
      "stateMutability": "nonpayable",
      "type": "function"
    },
    {
      "inputs": [
        {
          "internalType": "address",
          "name": "_mlm",
          "type": "address"
        }
      ],
      "name": "setMLMContract",
      "outputs": [],
      "stateMutability": "nonpayable",
      "type": "function"
    },
    {
      "inputs": [
        {
          "internalType": "address",
          "name": "_addr",
          "type": "address"
        }
      ],
      "name": "setSystemAddress",
      "outputs": [],
      "stateMutability": "nonpayable",
      "type": "function"
    },
    {
      "inputs": [],
      "name": "systemAddress",
      "outputs": [
        {
          "internalType": "address",
          "name": "",
          "type": "address"
        }
      ],
      "stateMutability": "view",
      "type": "function"
    },
    {
      "inputs": [
        {
          "internalType": "address",
          "name": "newOwner",
          "type": "address"
        }
      ],
      "name": "transferOwnership",
      "outputs": [],
      "stateMutability": "nonpayable",
      "type": "function"
    }
  ],
  "bytecode": "0x608034620001e857601f6200126738819003918201601f19168301916001600160401b03831184841017620001ed578084926040948552833981010312620001e85780516001600160a01b039182821691829003620001e8576020015160ff8116809103620001e8573315620001cf57600091825460018060a01b03199033828216178555604051953391167f8be0079c531659141344cd1fd0a4f28419497f9722a3daafe3b4186f6b6457e08680a3600e541617600e55604d8111620001bb57600a0a9081603202603281048303620001bb5760049081558260b40260b481048403620001a8576005556102888381029081048403620001a85760065561091d8381029081048403620001a8576007556120ce8381029081048403620001a8576008556176198381029081048403620001a8576009556201a9278381029081048403620001a857600a556205fa8d8381029081048403620001a857600b55621585fb8381029081048403620001a857600c55624d7bee928084029384040362000195575050600d556110639081620002048239f35b634e487b7160e01b825260119052602490fd5b634e487b7160e01b835260118252602483fd5b634e487b7160e01b82526011600452602482fd5b604051631e4fbdf760e01b815260006004820152602490fd5b600080fd5b634e487b7160e01b600052604160045260246000fdfe6080604081815260048036101561001557600080fd5b600092833560e01c90816304841337146107d85750806306210197146107935780632389e78a1461076857806329d7f9eb146106db5780633013ce29146106b257806339ae9efd146106895780633ac272c21461066257806347cd5191146106025780634e759962146105e657806353dafcbb146105bd57806361dba5f314610442578063686a38bd146105415780636f8760fe146104fc578063715018a6146104b45780637d4cf0b8146103ac5780638919d5e91461048b5780638da5cb5b14610463578063946adaef146104475780639898fcd314610442578063a5c3406114610425578063a7229fd9146103cd578063b0ac4626146103b1578063b2418af8146103ac578063ce8702631461035f578063d3ba4f961461031a578063d3e848f1146102f1578063d4a902861461025e578063e1f1c4a71461023d578063eb63e1c214610216578063f2fde38b146101a25763f3b36bf81461017857600080fd5b3461019e57602036600319011261019e5760209282913581526002845220549051908152f35b8280fd5b503461019e57602036600319011261019e576101bc610810565b906101c56108ae565b6001600160a01b0391821692831561020057505082546001600160a01b03198116831784551660008051602061100e8339815191528380a380f35b51631e4fbdf760e01b8152908101849052602490fd5b503461019e57602036600319011261019e5760209282913581526001845220549051908152f35b50503461025a578160031936011261025a57602090516127108152f35b5080fd5b5082346102ee5761026e3661084e565b928183526001602052848320548410156102c657606085610299868287878152600160205220610984565b509060018060a01b038254169160ff60026001830154920154169082519384526020840152151590820152f35b606490602086519162461bcd60e51b8352820152600260248201526127a160f11b6044820152fd5b80fd5b50503461025a578160031936011261025a5760115490516001600160a01b039091168152602090f35b83346102ee5760203660031901126102ee57610334610810565b61033c6108ae565b601080546001600160a01b0319166001600160a01b039290921691909117905580f35b83346102ee5760203660031901126102ee57610379610810565b6103816108ae565b6001600160a01b03166103958115156108da565b601280546001600160a01b03191691909117905580f35b610881565b50503461025a578160031936011261025a5760209051600a8152f35b83346102ee5760603660031901126102ee576103e7610810565b6001600160a01b0360243581811692918382036104215761041461041e9461040d6108ae565b15156108da565b6044359216610f6c565b80f35b8480fd5b50503461025a578160031936011261025a57602090516107d08152f35b610864565b50503461025a578160031936011261025a576020905160098152f35b50503461025a578160031936011261025a57905490516001600160a01b039091168152602090f35b50503461025a578160031936011261025a57600f5490516001600160a01b039091168152602090f35b83346102ee57806003193601126102ee576104cd6108ae565b80546001600160a01b03198116825581906001600160a01b031660008051602061100e8339815191528280a380f35b83346102ee5760203660031901126102ee57610516610810565b61051e6108ae565b600f80546001600160a01b0319166001600160a01b039290921691909117905580f35b503461019e578160031936011261019e5761055a610810565b601254909290336001600160a01b03918216149081156105b0575b5015610588578361041e60243585610a54565b906020606492519162461bcd60e51b835282015260026024820152614e4160f01b6044820152fd5b9050845416331438610575565b50503461025a578160031936011261025a5760125490516001600160a01b039091168152602090f35b50503461025a578160031936011261025a5760209051600c8152f35b5091346102ee5760203660031901126102ee57823590600182101580610657575b61062c9061090b565b600b8210156106445760208383600301549051908152f35b634e487b7160e01b815260328452602490fd5b50600a821115610623565b503461019e57602036600319011261019e5760209282913581526002845220549051908152f35b50503461025a578160031936011261025a5760105490516001600160a01b039091168152602090f35b50503461025a578160031936011261025a57600e5490516001600160a01b039091168152602090f35b50903461019e576106eb3661084e565b9290916106f66108ae565b60018310158061075d575b61070a9061090b565b83156107355750600b82101561072257506003015580f35b634e487b7160e01b845260329052602483fd5b906020606492519162461bcd60e51b83528201526002602482015261050360f41b6044820152fd5b50600a831115610701565b503461019e57602036600319011261019e5735600b81101561019e5760209250600301549051908152f35b83346102ee5760203660031901126102ee576107ad610810565b6107b56108ae565b601180546001600160a01b0319166001600160a01b039290921691909117905580f35b84903461025a578160031936011261025a578061222e60209252f35b60009103126107ff57565b600080fd5b6001600160a01b031690565b600435906001600160a01b03821682036107ff57565b600b8110156108385760030190600090565b634e487b7160e01b600052603260045260246000fd5b60409060031901126107ff576004359060243590565b346107ff5760003660031901126107ff576020604051610fa08152f35b346107ff5760003660031901126107ff5760206040516102718152f35b6000526001602052604060002090565b6000546001600160a01b031633036108c257565b60405163118cdaa760e01b8152336004820152602490fd5b156108e157565b60405162461bcd60e51b815260206004820152600260248201526124ab60f11b6044820152606490fd5b1561091257565b60405162461bcd60e51b8152602060048201526002602482015261109360f21b6044820152606490fd5b6001600160401b03811161094f57604052565b634e487b7160e01b600052604160045260246000fd5b60405190606082016001600160401b0381118382101761094f57604052565b8054821015610838576000526003602060002091020190600090565b8054600160401b81101561094f576109bd91600182018155610984565b6109fc57600260409160018060a01b0384511660018060a01b03198254161781556020840151600182015501910151151560ff80198354169116179055565b634e487b7160e01b600052600060045260246000fd5b600019810191908211610a2157565b634e487b7160e01b600052601160045260246000fd5b6000198114610a215760010190565b9060018201809211610a2157565b90610a89610a618261089e565b610a69610965565b6001600160a01b03851681529060006020830152600060408301526109a0565b80610a9c610a968261089e565b54610a12565b60405181815290936001600160a01b0316907f4e755dd64e53a9f7a5882e2e32eb64718c2273de11e017bd47129b9fe2716d7c90602090a3610ae8816000526002602052604060002090565b54918210610af4575050565b610b0682610b018361089e565b610984565b5091600c60018401610b188154610a37565b8091551015610b2657505050565b82610b4a610b6592610b456002610b6a9701600160ff19825416179055565b610a46565b610b5e846000526002602052604060002090565b5554610804565b610c08565b565b90600982029180830460091490151715610a2157565b9061222e91828102928184041490151715610a2157565b9061027191828102928184041490151715610a2157565b90610fa091828102928184041490151715610a2157565b906107d091828102928184041490151715610a2157565b604091949392606082019560018060a01b0316825260208201520152565b6040513d6000823e3d90fd5b610c26610c21610c1784610826565b90549060031b1c90565b610b6c565b91600a811015610e1057610c50610c42610c4a610c4286610bb0565b612710900490565b94610bc7565b92610c5c600f54610804565b6001600160a01b03908285828416610dff575b505050610c7d601054610804565b85828216610de4575b505080610c94601254610804565b1680610cd5575b50604080519283526020830195909552610b6a94610ccf93928392861691600080516020610fee83398151915291a3610a46565b90610a54565b80939291933b156107ff57604051631a495e5760e31b815260009182908290818381610d068a8a8e60048501610bde565b03925af18015610dc857610dd1575b50610d2c610d27610d27601254610804565b610804565b610d40610c17610d3b86610a46565b610826565b90610d4a85610a46565b91813b15610dcd5760405163ecdc590760e01b8152949392859291839185918391610d79918d60048501610bde565b03925af18015610dc857610b6a96610ccf958594600080516020610fee83398151915293610daf575b5093509650509192610c9b565b80610dbc610dc29261093c565b806107f4565b38610da2565b610bfc565b8380fd5b80610dbc610dde9261093c565b38610d15565b610df891610df3600e54610804565b610f6c565b3885610c86565b610e0892610f6c565b388285610c6f565b9190610e1e610c4283610b82565b91610e37610c42610e31610c4284610b99565b92610b99565b91610e43600f54610804565b6001600160a01b0392908583858316610f5b575b505050610e65601154610804565b90838216610f45575b5050610e7b601054610804565b83838216610f2f575b505081610e92601254610804565b1680610ec5575b506040805194855260208501939093521691600080516020610fee83398151915291819081015b0390a3565b92833b156107ff5760006040518095631a495e5760e31b8252818381610ef08c8c8a60048501610bde565b03925af1908115610dc857600080516020610fee83398151915294610ec092610f1c575b509350610e99565b80610dbc610f299261093c565b38610f14565b610f3e91610df3600e54610804565b3883610e84565b610f5491610df3600e54610804565b3880610e6e565b610f6492610f6c565b388583610e57565b60405163a9059cbb60e01b60009081526001600160a01b039384166004526024949094529260209060448180855af1600160005114811615610fcd575b8360405215610fb757505050565b635274afe760e01b835216600482015260249150fd5b6001811516610fe357813b15153d151616610fa9565b833d6000823e3d90fdfec9dfd5046e5f1be95c560d1b85295f8afd28d0102c20e0b4112b88bd328ca4338be0079c531659141344cd1fd0a4f28419497f9722a3daafe3b4186f6b6457e0a2646970667358221220634770a8c3d0cfa01270a31de518858f9265276d59c699c8c702485d2efd737764736f6c63430008140033",
  "linkReferences": {},
  "deployedLinkReferences": {}
}