{
  "_format": "hh-sol-artifact-1",
  "contractName": "BoardMatrixHandler",
  "sourceName": "contracts/BoardMatrixHandler.sol",
  "abi": [
    {
      "inputs": [
        {
          "internalType": "address",
          "name": "_paymentToken",
          "type": "address"
        },
        {
          "internalType": "uint8",
          "name": "_tokenDecimals",
          "type": "uint8"
        }
      ],
      "stateMutability": "nonpayable",
      "type": "constructor"
    },
    {
      "inputs": [
        {
          "internalType": "address",
          "name": "owner",
          "type": "address"
        }
      ],
      "name": "OwnableInvalidOwner",
      "type": "error"
    },
    {
      "inputs": [
        {
          "internalType": "address",
          "name": "account",
          "type": "address"
        }
      ],
      "name": "OwnableUnauthorizedAccount",
      "type": "error"
    },
    {
      "inputs": [],
      "name": "ReentrancyGuardReentrantCall",
      "type": "error"
    },
    {
      "inputs": [
        {
          "internalType": "address",
          "name": "token",
          "type": "address"
        }
      ],
      "name": "SafeERC20FailedOperation",
      "type": "error"
    },
    {
      "anonymous": false,
      "inputs": [
        {
          "indexed": true,
          "internalType": "address",
          "name": "owner",
          "type": "address"
        },
        {
          "indexed": true,
          "internalType": "uint256",
          "name": "boardLevel",
          "type": "uint256"
        },
        {
          "indexed": false,
          "internalType": "uint256",
          "name": "reward",
          "type": "uint256"
        },
        {
          "indexed": false,
          "internalType": "uint256",
          "name": "liquidity",
          "type": "uint256"
        }
      ],
      "name": "BoardCompleted",
      "type": "event"
    },
    {
      "anonymous": false,
      "inputs": [
        {
          "indexed": true,
          "internalType": "address",
          "name": "user",
          "type": "address"
        },
        {
          "indexed": true,
          "internalType": "uint256",
          "name": "boardLevel",
          "type": "uint256"
        },
        {
          "indexed": false,
          "internalType": "uint256",
          "name": "matrixIndex",
          "type": "uint256"
        }
      ],
      "name": "BoardEntered",
      "type": "event"
    },
    {
      "anonymous": false,
      "inputs": [
        {
          "indexed": true,
          "internalType": "address",
          "name": "previousOwner",
          "type": "address"
        },
        {
          "indexed": true,
          "internalType": "address",
          "name": "newOwner",
          "type": "address"
        }
      ],
      "name": "OwnershipTransferred",
      "type": "event"
    },
    {
      "anonymous": false,
      "inputs": [
        {
          "indexed": true,
          "internalType": "address",
          "name": "user",
          "type": "address"
        },
        {
          "indexed": false,
          "internalType": "uint256",
          "name": "usdtAmount",
          "type": "uint256"
        },
        {
          "indexed": false,
          "internalType": "uint256",
          "name": "btcbAmount",
          "type": "uint256"
        }
      ],
      "name": "SwappedToBTC",
      "type": "event"
    },
    {
      "anonymous": false,
      "inputs": [
        {
          "indexed": true,
          "internalType": "address",
          "name": "user",
          "type": "address"
        },
        {
          "indexed": false,
          "internalType": "uint256",
          "name": "amount",
          "type": "uint256"
        },
        {
          "indexed": false,
          "internalType": "uint256",
          "name": "boardLevel",
          "type": "uint256"
        }
      ],
      "name": "VirtualRewardCredited",
      "type": "event"
    },
    {
      "inputs": [],
      "name": "BASIS_POINTS",
      "outputs": [
        {
          "internalType": "uint256",
          "name": "",
          "type": "uint256"
        }
      ],
      "stateMutability": "view",
      "type": "function"
    },
    {
      "inputs": [],
      "name": "BOARD_10_LIQUIDITY_RATE_BP",
      "outputs": [
        {
          "internalType": "uint256",
          "name": "",
          "type": "uint256"
        }
      ],
      "stateMutability": "view",
      "type": "function"
    },
    {
      "inputs": [],
      "name": "BOARD_10_REWARD_RATE_BP",
      "outputs": [
        {
          "internalType": "uint256",
          "name": "",
          "type": "uint256"
        }
      ],
      "stateMutability": "view",
      "type": "function"
    },
    {
      "inputs": [],
      "name": "BOARD_10_SYSTEM_RATE_BP",
      "outputs": [
        {
          "internalType": "uint256",
          "name": "",
          "type": "uint256"
        }
      ],
      "stateMutability": "view",
      "type": "function"
    },
    {
      "inputs": [],
      "name": "BOARD_LEVEL2_MEMBERS",
      "outputs": [
        {
          "internalType": "uint256",
          "name": "",
          "type": "uint256"
        }
      ],
      "stateMutability": "view",
      "type": "function"
    },
    {
      "inputs": [],
      "name": "BOARD_LIQUIDITY_RATE_BP",
      "outputs": [
        {
          "internalType": "uint256",
          "name": "",
          "type": "uint256"
        }
      ],
      "stateMutability": "view",
      "type": "function"
    },
    {
      "inputs": [],
      "name": "BOARD_MEMBERS_REQUIRED",
      "outputs": [
        {
          "internalType": "uint256",
          "name": "",
          "type": "uint256"
        }
      ],
      "stateMutability": "view",
      "type": "function"
    },
    {
      "inputs": [],
      "name": "BOARD_NEXT_POOL_RATE_BP",
      "outputs": [
        {
          "internalType": "uint256",
          "name": "",
          "type": "uint256"
        }
      ],
      "stateMutability": "view",
      "type": "function"
    },
    {
      "inputs": [],
      "name": "BOARD_REWARD_RATE_BP",
      "outputs": [
        {
          "internalType": "uint256",
          "name": "",
          "type": "uint256"
        }
      ],
      "stateMutability": "view",
      "type": "function"
    },
    {
      "inputs": [],
      "name": "DEFAULT_SLIPPAGE_BP",
      "outputs": [
        {
          "internalType": "uint256",
          "name": "",
          "type": "uint256"
        }
      ],
      "stateMutability": "view",
      "type": "function"
    },
    {
      "inputs": [],
      "name": "TOTAL_BOARDS",
      "outputs": [
        {
          "internalType": "uint256",
          "name": "",
          "type": "uint256"
        }
      ],
      "stateMutability": "view",
      "type": "function"
    },
    {
      "inputs": [
        {
          "internalType": "uint256",
          "name": "",
          "type": "uint256"
        }
      ],
      "name": "boardCurrentIndex",
      "outputs": [
        {
          "internalType": "uint256",
          "name": "",
          "type": "uint256"
        }
      ],
      "stateMutability": "view",
      "type": "function"
    },
    {
      "inputs": [
        {
          "internalType": "uint256",
          "name": "",
          "type": "uint256"
        }
      ],
      "name": "boardPrices",
      "outputs": [
        {
          "internalType": "uint256",
          "name": "",
          "type": "uint256"
        }
      ],
      "stateMutability": "view",
      "type": "function"
    },
    {
      "inputs": [],
      "name": "btcRewardToken",
      "outputs": [
        {
          "internalType": "contract IERC20",
          "name": "",
          "type": "address"
        }
      ],
      "stateMutability": "view",
      "type": "function"
    },
    {
      "inputs": [],
      "name": "btcbToken",
      "outputs": [
        {
          "internalType": "address",
          "name": "",
          "type": "address"
        }
      ],
      "stateMutability": "view",
      "type": "function"
    },
    {
      "inputs": [
        {
          "internalType": "uint256",
          "name": "_amount",
          "type": "uint256"
        },
        {
          "internalType": "uint256",
          "name": "_minBtcbOut",
          "type": "uint256"
        }
      ],
      "name": "claimAndSwapToBTC",
      "outputs": [],
      "stateMutability": "nonpayable",
      "type": "function"
    },
    {
      "inputs": [],
      "name": "coinLiquidityAddress",
      "outputs": [
        {
          "internalType": "address",
          "name": "",
          "type": "address"
        }
      ],
      "stateMutability": "view",
      "type": "function"
    },
    {
      "inputs": [
        {
          "internalType": "address",
          "name": "_user",
          "type": "address"
        },
        {
          "internalType": "uint256",
          "name": "_boardLevel",
          "type": "uint256"
        }
      ],
      "name": "enterBoard",
      "outputs": [],
      "stateMutability": "nonpayable",
      "type": "function"
    },
    {
      "inputs": [
        {
          "internalType": "uint256",
          "name": "_boardLevel",
          "type": "uint256"
        }
      ],
      "name": "getBoardCurrentIndex",
      "outputs": [
        {
          "internalType": "uint256",
          "name": "",
          "type": "uint256"
        }
      ],
      "stateMutability": "view",
      "type": "function"
    },
    {
      "inputs": [
        {
          "internalType": "uint256",
          "name": "_boardLevel",
          "type": "uint256"
        },
        {
          "internalType": "uint256",
          "name": "_index",
          "type": "uint256"
        }
      ],
      "name": "getBoardMatrixInfo",
      "outputs": [
        {
          "internalType": "address",
          "name": "owner",
          "type": "address"
        },
        {
          "internalType": "uint256",
          "name": "filledCount",
          "type": "uint256"
        },
        {
          "internalType": "bool",
          "name": "completed",
          "type": "bool"
        }
      ],
      "stateMutability": "view",
      "type": "function"
    },
    {
      "inputs": [
        {
          "internalType": "uint256",
          "name": "_boardLevel",
          "type": "uint256"
        }
      ],
      "name": "getBoardPrice",
      "outputs": [
        {
          "internalType": "uint256",
          "name": "",
          "type": "uint256"
        }
      ],
      "stateMutability": "view",
      "type": "function"
    },
    {
      "inputs": [
        {
          "internalType": "uint256",
          "name": "_boardLevel",
          "type": "uint256"
        }
      ],
      "name": "getBoardQueueLength",
      "outputs": [
        {
          "internalType": "uint256",
          "name": "",
          "type": "uint256"
        }
      ],
      "stateMutability": "view",
      "type": "function"
    },
    {
      "inputs": [
        {
          "internalType": "uint256",
          "name": "_usdtAmount",
          "type": "uint256"
        }
      ],
      "name": "getSwapEstimate",
      "outputs": [
        {
          "internalType": "uint256",
          "name": "btcbAmount",
          "type": "uint256"
        }
      ],
      "stateMutability": "view",
      "type": "function"
    },
    {
      "inputs": [
        {
          "internalType": "address",
          "name": "_user",
          "type": "address"
        }
      ],
      "name": "getTotalSwappedToBTC",
      "outputs": [
        {
          "internalType": "uint256",
          "name": "",
          "type": "uint256"
        }
      ],
      "stateMutability": "view",
      "type": "function"
    },
    {
      "inputs": [
        {
          "internalType": "address",
          "name": "_user",
          "type": "address"
        }
      ],
      "name": "getVirtualRewardBalance",
      "outputs": [
        {
          "internalType": "uint256",
          "name": "balance",
          "type": "uint256"
        },
        {
          "internalType": "uint256",
          "name": "totalEarned",
          "type": "uint256"
        }
      ],
      "stateMutability": "view",
      "type": "function"
    },
    {
      "inputs": [],
      "name": "mlmContract",
      "outputs": [
        {
          "internalType": "address",
          "name": "",
          "type": "address"
        }
      ],
      "stateMutability": "view",
      "type": "function"
    },
    {
      "inputs": [],
      "name": "owner",
      "outputs": [
        {
          "internalType": "address",
          "name": "",
          "type": "address"
        }
      ],
      "stateMutability": "view",
      "type": "function"
    },
    {
      "inputs": [],
      "name": "pancakeRouter",
      "outputs": [
        {
          "internalType": "contract IPancakeRouter",
          "name": "",
          "type": "address"
        }
      ],
      "stateMutability": "view",
      "type": "function"
    },
    {
      "inputs": [],
      "name": "paymentToken",
      "outputs": [
        {
          "internalType": "contract IERC20",
          "name": "",
          "type": "address"
        }
      ],
      "stateMutability": "view",
      "type": "function"
    },
    {
      "inputs": [
        {
          "internalType": "address",
          "name": "_token",
          "type": "address"
        },
        {
          "internalType": "address",
          "name": "_to",
          "type": "address"
        },
        {
          "internalType": "uint256",
          "name": "_amount",
          "type": "uint256"
        }
      ],
      "name": "recoverToken",
      "outputs": [],
      "stateMutability": "nonpayable",
      "type": "function"
    },
    {
      "inputs": [],
      "name": "renounceOwnership",
      "outputs": [],
      "stateMutability": "nonpayable",
      "type": "function"
    },
    {
      "inputs": [
        {
          "internalType": "uint256",
          "name": "_boardLevel",
          "type": "uint256"
        },
        {
          "internalType": "uint256",
          "name": "_price",
          "type": "uint256"
        }
      ],
      "name": "setBoardPrice",
      "outputs": [],
      "stateMutability": "nonpayable",
      "type": "function"
    },
    {
      "inputs": [
        {
          "internalType": "address",
          "name": "_token",
          "type": "address"
        }
      ],
      "name": "setBtcRewardToken",
      "outputs": [],
      "stateMutability": "nonpayable",
      "type": "function"
    },
    {
      "inputs": [
        {
          "internalType": "address",
          "name": "_token",
          "type": "address"
        }
      ],
      "name": "setBtcbToken",
      "outputs": [],
      "stateMutability": "nonpayable",
      "type": "function"
    },
    {
      "inputs": [
        {
          "internalType": "address",
          "name": "_addr",
          "type": "address"
        }
      ],
      "name": "setCoinLiquidityAddress",
      "outputs": [],
      "stateMutability": "nonpayable",
      "type": "function"
    },
    {
      "inputs": [
        {
          "internalType": "address",
          "name": "_mlm",
          "type": "address"
        }
      ],
      "name": "setMLMContract",
      "outputs": [],
      "stateMutability": "nonpayable",
      "type": "function"
    },
    {
      "inputs": [
        {
          "internalType": "address",
          "name": "_router",
          "type": "address"
        }
      ],
      "name": "setPancakeRouter",
      "outputs": [],
      "stateMutability": "nonpayable",
      "type": "function"
    },
    {
      "inputs": [
        {
          "internalType": "address",
          "name": "_addr",
          "type": "address"
        }
      ],
      "name": "setSystemAddress",
      "outputs": [],
      "stateMutability": "nonpayable",
      "type": "function"
    },
    {
      "inputs": [],
      "name": "systemAddress",
      "outputs": [
        {
          "internalType": "address",
          "name": "",
          "type": "address"
        }
      ],
      "stateMutability": "view",
      "type": "function"
    },
    {
      "inputs": [
        {
          "internalType": "address",
          "name": "",
          "type": "address"
        }
      ],
      "name": "totalSwappedToBTC",
      "outputs": [
        {
          "internalType": "uint256",
          "name": "",
          "type": "uint256"
        }
      ],
      "stateMutability": "view",
      "type": "function"
    },
    {
      "inputs": [
        {
          "internalType": "address",
          "name": "",
          "type": "address"
        }
      ],
      "name": "totalVirtualRewards",
      "outputs": [
        {
          "internalType": "uint256",
          "name": "",
          "type": "uint256"
        }
      ],
      "stateMutability": "view",
      "type": "function"
    },
    {
      "inputs": [
        {
          "internalType": "address",
          "name": "newOwner",
          "type": "address"
        }
      ],
      "name": "transferOwnership",
      "outputs": [],
      "stateMutability": "nonpayable",
      "type": "function"
    },
    {
      "inputs": [
        {
          "internalType": "address",
          "name": "",
          "type": "address"
        }
      ],
      "name": "virtualRewardBalance",
      "outputs": [
        {
          "internalType": "uint256",
          "name": "",
          "type": "uint256"
        }
      ],
      "stateMutability": "view",
      "type": "function"
    }
  ],
  "bytecode": "0x6080346200020c57601f62001adc38819003918201601f19168301916001600160401b03831184841017620002115780849260409485528339810103126200020c5780516001600160a01b0391828216918290036200020c576020015160ff81168091036200020c573315620001f35760009081549260018060a01b03199333858216178455604051953391167f8be0079c531659141344cd1fd0a4f28419497f9722a3daafe3b4186f6b6457e08580a360017f9b779b17422d0df92223018b32b4d1fa46e071723d6817e2486d003becc55f0055601193845416178355604d8111620001e057600a0a9182603202603281048403620001cc576007558260b40260b481048403620001cc576008556102888381029081048403620001cc5760095561091d8381029081048403620001cc57600a556120ce8381029081048403620001cc57600b556176198381029081048403620001cc57600c556201a9278381029081048403620001cc57600d556205fa8d8381029081048403620001cc57600e55621585fb8381029081048403620001cc57600f55624d7bee9280840293840403620001b95750506010556118b49081620002288239f35b634e487b7160e01b825260045260249150fd5b634e487b7160e01b83526004829052602483fd5b50602491634e487b7160e01b8252600452fd5b604051631e4fbdf760e01b815260006004820152602490fd5b600080fd5b634e487b7160e01b600052604160045260246000fdfe60806040908082526004918236101561001757600080fd5b600092833560e01c9283630484133714610e01575082630621019714610dbc57826321a6816a146109925782632389e78a14610d8f57826329d7f9eb14610d025782632bdbe56d14610ce65782632dbe620314610c995782633013ce2914610c7057826339ae9efd14610c475782633ac272c21461024f57826342369fc314610c0f57826347cd519114610baf57826349dca24f14610b785782634e75996214610b5c57826353dafcbb14610b3357826361dba5f314610660578263686a38bd14610ab55782636f8760fe14610a70578263715018a614610a28578263732bdc5314610a0c578263792ba2f2146109ca5782637d4cf0b8146105ca57826386f7d530146109925782638919d5e9146109695782638da5cb5b1461094157826396e03328146106655782639898fcd314610660578263a5c3406114610643578263a7229fd9146105eb578263b0ac4626146105cf578263b2418af8146105ca578263c21ebd07146105a1578263c319f5bc146104af578263ce87026314610462578263d3ba4f961461041d578263d3e848f1146103f4578263d4a9028614610365578263de9a7e191461033c578263e1f1c4a71461031b578263eb63e1c2146102f2578263f2fde38b1461027c578263f3b36bf81461024f57505063f8316c901461020057600080fd5b3461024c57602036600319011261024c57610219610e39565b610221610f1c565b6001600160a01b0316610235811515610f48565b601380546001600160a01b03191691909117905580f35b80fd5b909150346102785760203660031901126102785760209282913581526002845220549051908152f35b8280fd5b9091503461027857602036600319011261027857610298610e39565b906102a1610f1c565b6001600160a01b039182169283156102dc57505082546001600160a01b03198116831784551660008051602061185f8339815191528380a380f35b51631e4fbdf760e01b8152908101849052602490fd5b909150346102785760203660031901126102785760209282913581526001845220549051908152f35b838234610338578160031936011261033857602090516127108152f35b5080fd5b83823461033857816003193601126103385760175490516001600160a01b039091168152602090f35b833461024c5761037436610e77565b928183526001602052848320548410156103cc5760608561039f868287878152600160205220611020565b509060018060a01b038254169160ff60026001830154920154169082519384526020840152151590820152f35b606490602086519162461bcd60e51b8352820152600260248201526127a160f11b6044820152fd5b83823461033857816003193601126103385760155490516001600160a01b039091168152602090f35b833461024c57602036600319011261024c57610437610e39565b61043f610f1c565b601480546001600160a01b0319166001600160a01b039290921691909117905580f35b833461024c57602036600319011261024c5761047c610e39565b610484610f1c565b6001600160a01b0316610498811515610f48565b601680546001600160a01b03191691909117905580f35b909150346102785782602036600319011261024c57601354610549926001600160a01b03918216906104e28215156116d1565b82601754166104f281151561170e565b8651936104fe85610fd3565b60028552873660208701376011541661051685611749565b5261052084611756565b52855180958194829363d06ca61f60e01b845280359084015288602484015260448301906117e1565b03915afa908115610595579061056a918460209592610572575b5050611756565b519051908152f35b61058e92503d8091833e6105868183610fee565b810190611766565b3880610563565b505051903d90823e3d90fd5b83823461033857816003193601126103385760135490516001600160a01b039091168152602090f35b610eef565b83823461033857816003193601126103385760209051600a8152f35b833461024c57606036600319011261024c57610605610e39565b6001600160a01b03602435818116929183820361063f5761063261063c9461062b610f1c565b1515610f48565b6044359216611650565b80f35b8480fd5b838234610338578160031936011261033857602090516107d08152f35b610ec1565b909150346102785761067636610e77565b7f9b779b17422d0df92223018b32b4d1fa46e071723d6817e2486d003becc55f009260028454146109335760028455821561090257338652602091600383528386882054106108c1576013546001600160a01b0392906106d990841615156116d1565b6106e88360175416151561170e565b338852600384528688208054908682039182116108ae575587848460115416604486601354168b51948593849263095ea7b360e01b8452888401528b60248401525af180156108a457610869575b5086519261074384610fd3565b60028452873686860137806011541661075b85611749565b52806017541661076a85611756565b52601354169061012c420180421161085657898094939288926107b28c51988997889687956338ed173960e01b8752860152602485015260a0604485015260a48401906117e1565b90336064840152608483015203925af190811561084c5791610821600196927fb59929a0ceeda5fc5dc7c15f3c2b20a06d67071cdecb9466f1470df5f4bd7bf7948991610832575b5061080481611756565b51338a526005845261081a858b209182546110f0565b9055611756565b519082519485528401523392a25580f35b61084691503d808b833e6105868183610fee565b386107fa565b85513d88823e3d90fd5b634e487b7160e01b8a526011825260248afd5b8481813d831161089d575b61087e8183610fee565b810103126108995751801515036108955738610736565b8780fd5b8880fd5b503d610874565b88513d8b823e3d90fd5b634e487b7160e01b8a526011835260248afd5b5060649185519162461bcd60e51b8352820152601c60248201527b496e73756666696369656e74207669727475616c2062616c616e636560201b6044820152fd5b606490602086519162461bcd60e51b8352820152600b60248201526a16995c9bc8185b5bdd5b9d60aa1b6044820152fd5b8451633ee5aeb560e01b8152fd5b838234610338578160031936011261033857905490516001600160a01b039091168152602090f35b83823461033857816003193601126103385760125490516001600160a01b039091168152602090f35b8382346103385760203660031901126103385760209181906001600160a01b036109ba610e39565b1681526005845220549051908152f35b833461024c57602036600319011261024c5782906001600160a01b036109ee610e39565b16815260036020528181205492602052205482519182526020820152f35b8382346103385781600319360112610338576020905160c88152f35b833461024c578060031936011261024c57610a41610f1c565b80546001600160a01b03198116825581906001600160a01b031660008051602061185f8339815191528280a380f35b833461024c57602036600319011261024c57610a8a610e39565b610a92610f1c565b601280546001600160a01b0319166001600160a01b039290921691909117905580f35b90915034610278578160031936011261027857610ad0610e39565b601654909290336001600160a01b0391821614908115610b26575b5015610afe578361063c602435856110fd565b906020606492519162461bcd60e51b835282015260026024820152614e4160f01b6044820152fd5b9050845416331438610aeb565b83823461033857816003193601126103385760165490516001600160a01b039091168152602090f35b83823461033857816003193601126103385760209051600c8152f35b909150346102785760203660031901126102785760209282916001600160a01b03610ba1610e39565b168252845220549051908152f35b90833461024c57602036600319011261024c57823590600182101580610c04575b610bd990610f79565b600b821015610bf15760208383600601549051908152f35b634e487b7160e01b815260328452602490fd5b50600a821115610bd0565b8382346103385760203660031901126103385760209181906001600160a01b03610c37610e39565b1681526003845220549051908152f35b83823461033857816003193601126103385760145490516001600160a01b039091168152602090f35b83823461033857816003193601126103385760115490516001600160a01b039091168152602090f35b833461024c57602036600319011261024c57610cb3610e39565b610cbb610f1c565b6001600160a01b0316610ccf811515610f48565b601780546001600160a01b03191691909117905580f35b8382346103385781600319360112610338576020905160098152f35b91503461027857610d1236610e77565b929091610d1d610f1c565b600183101580610d84575b610d3190610f79565b8315610d5c5750600b821015610d4957506006015580f35b634e487b7160e01b845260329052602483fd5b906020606492519162461bcd60e51b83528201526002602482015261050360f41b6044820152fd5b50600a831115610d28565b909150346102785760203660031901126102785735600b8110156102785760209250600601549051908152f35b833461024c57602036600319011261024c57610dd6610e39565b610dde610f1c565b601580546001600160a01b0319166001600160a01b039290921691909117905580f35b8490346103385781600319360112610338578061222e60209252f35b6000910312610e2857565b600080fd5b6001600160a01b031690565b600435906001600160a01b0382168203610e2857565b600b811015610e615760060190600090565b634e487b7160e01b600052603260045260246000fd5b6040906003190112610e28576004359060243590565b6001600160a01b0316600090815260036020526040902090565b6001600160a01b0316600090815260046020526040902090565b34610e28576000366003190112610e28576020604051610fa08152f35b908152602081019190915260400190565b34610e28576000366003190112610e285760206040516102718152f35b6000526001602052604060002090565b6000546001600160a01b03163303610f3057565b60405163118cdaa760e01b8152336004820152602490fd5b15610f4f57565b60405162461bcd60e51b815260206004820152600260248201526124ab60f11b6044820152606490fd5b15610f8057565b60405162461bcd60e51b8152602060048201526002602482015261109360f21b6044820152606490fd5b6001600160401b038111610fbd57604052565b634e487b7160e01b600052604160045260246000fd5b606081019081106001600160401b03821117610fbd57604052565b601f909101601f19168101906001600160401b03821190821017610fbd57604052565b6040519061101e82610fd3565b565b8054821015610e61576000526003602060002091020190600090565b8054600160401b811015610fbd5761105991600182018155611020565b61109857600260409160018060a01b0384511660018060a01b03198254161781556020840151600182015501910151151560ff80198354169116179055565b634e487b7160e01b600052600060045260246000fd5b6000198101919082116110bd57565b634e487b7160e01b600052601160045260246000fd5b60001981146110bd5760010190565b90600182018092116110bd57565b919082018092116110bd57565b9061113261110a82610f0c565b611112611011565b6001600160a01b038516815290600060208301526000604083015261103c565b8061114561113f82610f0c565b546110ae565b60405181815290936001600160a01b0316907f4e755dd64e53a9f7a5882e2e32eb64718c2273de11e017bd47129b9fe2716d7c90602090a3611191816000526002602052604060002090565b5491821061119d575050565b6111af826111aa83610f0c565b611020565b5091600c600184016111c181546110d3565b80915510156111cf57505050565b826111f361120e926111ee600261101e9701600160ff19825416179055565b6110e2565b611207846000526002602052604060002090565b5554610e2d565b6112af565b906009820291808304600914901517156110bd57565b9061222e918281029281840414901517156110bd57565b90610271918281029281840414901517156110bd57565b90610fa0918281029281840414901517156110bd57565b906107d0918281029281840414901517156110bd57565b604091949392606082019560018060a01b0316825260208201520152565b6040513d6000823e3d90fd5b6112cd6112c86112be84610e4f565b90549060031b1c90565b611213565b91600a8110156114df576112f76112e96112f16112e986611257565b612710900490565b9461126e565b9261130183610e8d565b61130c8282546110f0565b905561131783610ea7565b6113228282546110f0565b90556040516001600160a01b038481169291839060008051602061183f8339815191529080611352888783610ede565b0390a2611360601454610e2d565b868282166114c4575b5050611376601654610e2d565b16806113b5575b5091809160008051602061181f83398151915261101e966113af956113a760405192839283610ede565b0390a36110e2565b906110fd565b80939291933b15610e2857604051631a495e5760e31b8152600091829082908183816113e68a8c8e60048501611285565b03925af180156114a8576114b1575b5061140c611407611407601654610e2d565b610e2d565b6114206112be61141b866110e2565b610e4f565b9061142a856110e2565b91813b156114ad5760405163ecdc590760e01b8152949392859291839185918391611459918d60048501611285565b03925af180156114a85761101e966113af95859460008051602061181f8339815191529361148f575b509350965050919261137d565b8061149c6114a292610faa565b80610e1d565b38611482565b6112a3565b8380fd5b8061149c6114be92610faa565b386113f5565b6114d8916114d3601154610e2d565b611650565b3886611369565b91906114ed6112e983611229565b6115056112e96114ff6112e986611240565b94611240565b9061150f83610e8d565b61151a8282546110f0565b905561152583610ea7565b6115308282546110f0565b905560018060a01b03808416948560008051602061183f8339815191526040518061155c8b8883610ede565b0390a261156a601554610e2d565b9082821661163a575b5050611580601454610e2d565b83828216611624575b5050611596601654610e2d565b16806115c3575b5060008051602061181f83398151915292506115be60405192839283610ede565b0390a3565b803b15610e28578560009183836115f19760405198899586948593631a495e5760e31b855260048501611285565b03925af19283156114a85760008051602061181f833981519152931561159d578061149c61161e92610faa565b3861159d565b611633916114d3601154610e2d565b3883611589565b611649916114d3601154610e2d565b3880611573565b60405163a9059cbb60e01b60009081526001600160a01b039384166004526024949094529260209060448180855af16001600051148116156116b1575b836040521561169b57505050565b635274afe760e01b835216600482015260249150fd5b60018115166116c757813b15153d15161661168d565b833d6000823e3d90fd5b156116d857565b60405162461bcd60e51b815260206004820152600e60248201526d149bdd5d195c881b9bdd081cd95d60921b6044820152606490fd5b1561171557565b60405162461bcd60e51b815260206004820152600c60248201526b109510d0881b9bdd081cd95d60a21b6044820152606490fd5b805115610e615760200190565b805160011015610e615760400190565b906020908183820312610e285782516001600160401b0393848211610e28570181601f82011215610e28578051938411610fbd578360051b90604051946117af85840187610fee565b85528380860192820101928311610e28578301905b8282106117d2575050505090565b815181529083019083016117c4565b90815180825260208080930193019160005b828110611801575050505090565b83516001600160a01b0316855293810193928101926001016117f356fec9dfd5046e5f1be95c560d1b85295f8afd28d0102c20e0b4112b88bd328ca433480cf80c78df84f9ad0c3da7cb64f6ae3656d3aed9cfc42064d865cdcdbc2b248be0079c531659141344cd1fd0a4f28419497f9722a3daafe3b4186f6b6457e0a264697066735822122049a324fc047209a7d52b97192e871f4d58fb87c8aa420d7681e6bd4ce687c16364736f6c63430008140033",
  "linkReferences": {},
  "deployedLinkReferences": {}
}