{
  "_format": "hh-sol-artifact-1",
  "contractName": "MvaultContract",
  "sourceName": "contracts/MvaultContract.sol",
  "abi": [
    {
      "inputs": [
        {
          "internalType": "address",
          "name": "_usdt",
          "type": "address"
        },
        {
          "internalType": "address",
          "name": "_mvaultToken",
          "type": "address"
        }
      ],
      "stateMutability": "nonpayable",
      "type": "constructor"
    },
    {
      "inputs": [],
      "name": "AlreadyActive",
      "type": "error"
    },
    {
      "inputs": [],
      "name": "AlreadyRegistered",
      "type": "error"
    },
    {
      "inputs": [],
      "name": "BinaryAlreadyDistributed",
      "type": "error"
    },
    {
      "inputs": [],
      "name": "BinaryNotDistributed",
      "type": "error"
    },
    {
      "inputs": [],
      "name": "InsufficientBtcPool",
      "type": "error"
    },
    {
      "inputs": [],
      "name": "InsufficientRebirthPool",
      "type": "error"
    },
    {
      "inputs": [],
      "name": "InsufficientUsdtBalance",
      "type": "error"
    },
    {
      "inputs": [],
      "name": "InsufficientVirtualBalance",
      "type": "error"
    },
    {
      "inputs": [],
      "name": "InvalidSponsor",
      "type": "error"
    },
    {
      "inputs": [],
      "name": "NoOpenBinarySlot",
      "type": "error"
    },
    {
      "inputs": [],
      "name": "NotRegistered",
      "type": "error"
    },
    {
      "inputs": [
        {
          "internalType": "address",
          "name": "owner",
          "type": "address"
        }
      ],
      "name": "OwnableInvalidOwner",
      "type": "error"
    },
    {
      "inputs": [
        {
          "internalType": "address",
          "name": "account",
          "type": "address"
        }
      ],
      "name": "OwnableUnauthorizedAccount",
      "type": "error"
    },
    {
      "inputs": [],
      "name": "PositionTaken",
      "type": "error"
    },
    {
      "inputs": [],
      "name": "ReentrancyGuardReentrantCall",
      "type": "error"
    },
    {
      "inputs": [],
      "name": "TransferFailed",
      "type": "error"
    },
    {
      "inputs": [],
      "name": "ZeroAddress",
      "type": "error"
    },
    {
      "inputs": [],
      "name": "ZeroAmount",
      "type": "error"
    },
    {
      "anonymous": false,
      "inputs": [
        {
          "indexed": true,
          "internalType": "address",
          "name": "user",
          "type": "address"
        },
        {
          "indexed": false,
          "internalType": "uint256",
          "name": "mvtMinted",
          "type": "uint256"
        },
        {
          "indexed": false,
          "internalType": "uint256",
          "name": "grossMvt",
          "type": "uint256"
        },
        {
          "indexed": false,
          "internalType": "uint256",
          "name": "levelAmt",
          "type": "uint256"
        },
        {
          "indexed": false,
          "internalType": "uint256",
          "name": "binaryAmt",
          "type": "uint256"
        },
        {
          "indexed": false,
          "internalType": "uint256",
          "name": "reserveAmt",
          "type": "uint256"
        }
      ],
      "name": "Activated",
      "type": "event"
    },
    {
      "anonymous": false,
      "inputs": [
        {
          "indexed": true,
          "internalType": "address",
          "name": "to",
          "type": "address"
        },
        {
          "indexed": false,
          "internalType": "uint256",
          "name": "amount",
          "type": "uint256"
        }
      ],
      "name": "AdminWithdraw",
      "type": "event"
    },
    {
      "anonymous": false,
      "inputs": [
        {
          "indexed": false,
          "internalType": "uint256",
          "name": "totalPool",
          "type": "uint256"
        },
        {
          "indexed": false,
          "internalType": "uint256",
          "name": "binary70",
          "type": "uint256"
        },
        {
          "indexed": false,
          "internalType": "uint256",
          "name": "powerLeg30",
          "type": "uint256"
        },
        {
          "indexed": false,
          "internalType": "uint256",
          "name": "totalPairs",
          "type": "uint256"
        }
      ],
      "name": "BinaryIncomeDistributed",
      "type": "event"
    },
    {
      "anonymous": false,
      "inputs": [
        {
          "indexed": true,
          "internalType": "address",
          "name": "user",
          "type": "address"
        },
        {
          "indexed": false,
          "internalType": "uint256",
          "name": "amount",
          "type": "uint256"
        }
      ],
      "name": "BtcPoolCredited",
      "type": "event"
    },
    {
      "anonymous": false,
      "inputs": [
        {
          "indexed": true,
          "internalType": "address",
          "name": "user",
          "type": "address"
        },
        {
          "indexed": false,
          "internalType": "uint256",
          "name": "amount",
          "type": "uint256"
        }
      ],
      "name": "BtcPoolWithdrawn",
      "type": "event"
    },
    {
      "anonymous": false,
      "inputs": [
        {
          "indexed": true,
          "internalType": "address",
          "name": "to",
          "type": "address"
        },
        {
          "indexed": true,
          "internalType": "address",
          "name": "from",
          "type": "address"
        },
        {
          "indexed": false,
          "internalType": "uint8",
          "name": "level",
          "type": "uint8"
        },
        {
          "indexed": false,
          "internalType": "uint256",
          "name": "amount",
          "type": "uint256"
        }
      ],
      "name": "LevelIncomePaid",
      "type": "event"
    },
    {
      "anonymous": false,
      "inputs": [
        {
          "indexed": true,
          "internalType": "address",
          "name": "upline",
          "type": "address"
        },
        {
          "indexed": false,
          "internalType": "uint8",
          "name": "level",
          "type": "uint8"
        },
        {
          "indexed": false,
          "internalType": "uint256",
          "name": "amount",
          "type": "uint256"
        }
      ],
      "name": "LevelIncomeSkipped",
      "type": "event"
    },
    {
      "anonymous": false,
      "inputs": [
        {
          "indexed": false,
          "internalType": "address",
          "name": "newToken",
          "type": "address"
        }
      ],
      "name": "MvaultTokenUpdated",
      "type": "event"
    },
    {
      "anonymous": false,
      "inputs": [
        {
          "indexed": true,
          "internalType": "address",
          "name": "user",
          "type": "address"
        },
        {
          "indexed": false,
          "internalType": "uint256",
          "name": "mvtAmount",
          "type": "uint256"
        },
        {
          "indexed": false,
          "internalType": "uint256",
          "name": "usdtNet",
          "type": "uint256"
        },
        {
          "indexed": false,
          "internalType": "uint256",
          "name": "usdtToBtcPool",
          "type": "uint256"
        },
        {
          "indexed": false,
          "internalType": "uint256",
          "name": "usdtToIncome",
          "type": "uint256"
        },
        {
          "indexed": false,
          "internalType": "uint256",
          "name": "usdtToRebirth",
          "type": "uint256"
        }
      ],
      "name": "MvtSold",
      "type": "event"
    },
    {
      "anonymous": false,
      "inputs": [
        {
          "indexed": true,
          "internalType": "address",
          "name": "previousOwner",
          "type": "address"
        },
        {
          "indexed": true,
          "internalType": "address",
          "name": "newOwner",
          "type": "address"
        }
      ],
      "name": "OwnershipTransferred",
      "type": "event"
    },
    {
      "anonymous": false,
      "inputs": [
        {
          "indexed": false,
          "internalType": "uint256",
          "name": "totalPowerLeg30",
          "type": "uint256"
        },
        {
          "indexed": false,
          "internalType": "uint256",
          "name": "totalPowerLegs",
          "type": "uint256"
        }
      ],
      "name": "PowerLegDistributed",
      "type": "event"
    },
    {
      "anonymous": false,
      "inputs": [
        {
          "indexed": true,
          "internalType": "address",
          "name": "user",
          "type": "address"
        }
      ],
      "name": "ProfileUpdated",
      "type": "event"
    },
    {
      "anonymous": false,
      "inputs": [
        {
          "indexed": true,
          "internalType": "address",
          "name": "mainAccount",
          "type": "address"
        },
        {
          "indexed": true,
          "internalType": "address",
          "name": "subAccount",
          "type": "address"
        },
        {
          "indexed": false,
          "internalType": "uint256",
          "name": "rebirthIndex",
          "type": "uint256"
        }
      ],
      "name": "Reborn",
      "type": "event"
    },
    {
      "anonymous": false,
      "inputs": [
        {
          "indexed": true,
          "internalType": "address",
          "name": "user",
          "type": "address"
        },
        {
          "indexed": true,
          "internalType": "address",
          "name": "sponsor",
          "type": "address"
        },
        {
          "indexed": true,
          "internalType": "address",
          "name": "binaryParent",
          "type": "address"
        },
        {
          "indexed": false,
          "internalType": "bool",
          "name": "placeLeft",
          "type": "bool"
        }
      ],
      "name": "Registered",
      "type": "event"
    },
    {
      "anonymous": false,
      "inputs": [
        {
          "indexed": true,
          "internalType": "address",
          "name": "to",
          "type": "address"
        },
        {
          "indexed": false,
          "internalType": "uint256",
          "name": "amount",
          "type": "uint256"
        }
      ],
      "name": "ReserveWithdraw",
      "type": "event"
    },
    {
      "anonymous": false,
      "inputs": [
        {
          "indexed": true,
          "internalType": "address",
          "name": "user",
          "type": "address"
        },
        {
          "indexed": false,
          "internalType": "uint256",
          "name": "amount",
          "type": "uint256"
        }
      ],
      "name": "UsdtWithdrawn",
      "type": "event"
    },
    {
      "inputs": [],
      "name": "BINARY_ALLOC",
      "outputs": [
        {
          "internalType": "uint256",
          "name": "",
          "type": "uint256"
        }
      ],
      "stateMutability": "view",
      "type": "function"
    },
    {
      "inputs": [],
      "name": "BTC_POOL_RATE",
      "outputs": [
        {
          "internalType": "uint256",
          "name": "",
          "type": "uint256"
        }
      ],
      "stateMutability": "view",
      "type": "function"
    },
    {
      "inputs": [],
      "name": "INCOME_LIMIT",
      "outputs": [
        {
          "internalType": "uint256",
          "name": "",
          "type": "uint256"
        }
      ],
      "stateMutability": "view",
      "type": "function"
    },
    {
      "inputs": [],
      "name": "LEVEL_ALLOC",
      "outputs": [
        {
          "internalType": "uint256",
          "name": "",
          "type": "uint256"
        }
      ],
      "stateMutability": "view",
      "type": "function"
    },
    {
      "inputs": [],
      "name": "PACKAGE_PRICE",
      "outputs": [
        {
          "internalType": "uint256",
          "name": "",
          "type": "uint256"
        }
      ],
      "stateMutability": "view",
      "type": "function"
    },
    {
      "inputs": [],
      "name": "activate",
      "outputs": [],
      "stateMutability": "nonpayable",
      "type": "function"
    },
    {
      "inputs": [],
      "name": "adminPool",
      "outputs": [
        {
          "internalType": "uint256",
          "name": "",
          "type": "uint256"
        }
      ],
      "stateMutability": "view",
      "type": "function"
    },
    {
      "inputs": [
        {
          "internalType": "uint256",
          "name": "",
          "type": "uint256"
        }
      ],
      "name": "allUsers",
      "outputs": [
        {
          "internalType": "address",
          "name": "",
          "type": "address"
        }
      ],
      "stateMutability": "view",
      "type": "function"
    },
    {
      "inputs": [],
      "name": "binaryPool",
      "outputs": [
        {
          "internalType": "uint256",
          "name": "",
          "type": "uint256"
        }
      ],
      "stateMutability": "view",
      "type": "function"
    },
    {
      "inputs": [
        {
          "internalType": "address",
          "name": "user",
          "type": "address"
        }
      ],
      "name": "canRebirth",
      "outputs": [
        {
          "internalType": "bool",
          "name": "eligible",
          "type": "bool"
        },
        {
          "internalType": "uint256",
          "name": "poolBalance",
          "type": "uint256"
        }
      ],
      "stateMutability": "view",
      "type": "function"
    },
    {
      "inputs": [
        {
          "internalType": "uint256",
          "name": "offset",
          "type": "uint256"
        },
        {
          "internalType": "uint256",
          "name": "limit",
          "type": "uint256"
        }
      ],
      "name": "distributeBinaryIncome",
      "outputs": [],
      "stateMutability": "nonpayable",
      "type": "function"
    },
    {
      "inputs": [
        {
          "internalType": "uint256",
          "name": "offset",
          "type": "uint256"
        },
        {
          "internalType": "uint256",
          "name": "limit",
          "type": "uint256"
        }
      ],
      "name": "distributePowerLeg",
      "outputs": [],
      "stateMutability": "nonpayable",
      "type": "function"
    },
    {
      "inputs": [],
      "name": "getAllUsersCount",
      "outputs": [
        {
          "internalType": "uint256",
          "name": "",
          "type": "uint256"
        }
      ],
      "stateMutability": "view",
      "type": "function"
    },
    {
      "inputs": [
        {
          "internalType": "address",
          "name": "u",
          "type": "address"
        }
      ],
      "name": "getBtcPoolInfo",
      "outputs": [
        {
          "internalType": "uint256",
          "name": "btcPoolBalance",
          "type": "uint256"
        },
        {
          "internalType": "uint256",
          "name": "totalBtcEarned",
          "type": "uint256"
        }
      ],
      "stateMutability": "view",
      "type": "function"
    },
    {
      "inputs": [
        {
          "internalType": "address",
          "name": "u",
          "type": "address"
        }
      ],
      "name": "getCurrentBinaryPairs",
      "outputs": [
        {
          "internalType": "uint256",
          "name": "currentPairs",
          "type": "uint256"
        },
        {
          "internalType": "uint256",
          "name": "newPairs",
          "type": "uint256"
        }
      ],
      "stateMutability": "view",
      "type": "function"
    },
    {
      "inputs": [],
      "name": "getMvtContractBalance",
      "outputs": [
        {
          "internalType": "uint256",
          "name": "",
          "type": "uint256"
        }
      ],
      "stateMutability": "view",
      "type": "function"
    },
    {
      "inputs": [],
      "name": "getMvtPrice",
      "outputs": [
        {
          "internalType": "uint256",
          "name": "buyPrice",
          "type": "uint256"
        },
        {
          "internalType": "uint256",
          "name": "sellPrice",
          "type": "uint256"
        }
      ],
      "stateMutability": "view",
      "type": "function"
    },
    {
      "inputs": [],
      "name": "getPoolBalances",
      "outputs": [
        {
          "internalType": "uint256",
          "name": "binary",
          "type": "uint256"
        },
        {
          "internalType": "uint256",
          "name": "reserve",
          "type": "uint256"
        },
        {
          "internalType": "uint256",
          "name": "admin",
          "type": "uint256"
        }
      ],
      "stateMutability": "view",
      "type": "function"
    },
    {
      "inputs": [
        {
          "internalType": "address",
          "name": "_user",
          "type": "address"
        }
      ],
      "name": "getProfile",
      "outputs": [
        {
          "internalType": "string",
          "name": "displayName",
          "type": "string"
        },
        {
          "internalType": "string",
          "name": "email",
          "type": "string"
        },
        {
          "internalType": "string",
          "name": "phone",
          "type": "string"
        },
        {
          "internalType": "string",
          "name": "country",
          "type": "string"
        },
        {
          "internalType": "bool",
          "name": "profileSet",
          "type": "bool"
        }
      ],
      "stateMutability": "view",
      "type": "function"
    },
    {
      "inputs": [
        {
          "internalType": "address",
          "name": "u",
          "type": "address"
        }
      ],
      "name": "getUserInfo",
      "outputs": [
        {
          "internalType": "bool",
          "name": "isRegistered",
          "type": "bool"
        },
        {
          "internalType": "bool",
          "name": "isActive",
          "type": "bool"
        },
        {
          "internalType": "address",
          "name": "sponsor",
          "type": "address"
        },
        {
          "internalType": "uint256",
          "name": "directCount",
          "type": "uint256"
        },
        {
          "internalType": "address",
          "name": "binaryParent",
          "type": "address"
        },
        {
          "internalType": "bool",
          "name": "placedLeft",
          "type": "bool"
        },
        {
          "internalType": "address",
          "name": "leftChild",
          "type": "address"
        },
        {
          "internalType": "address",
          "name": "rightChild",
          "type": "address"
        },
        {
          "internalType": "uint256",
          "name": "leftSubUsers",
          "type": "uint256"
        },
        {
          "internalType": "uint256",
          "name": "rightSubUsers",
          "type": "uint256"
        },
        {
          "internalType": "uint256",
          "name": "mvtBalance",
          "type": "uint256"
        },
        {
          "internalType": "uint256",
          "name": "totalReceived",
          "type": "uint256"
        },
        {
          "internalType": "uint256",
          "name": "totalSold",
          "type": "uint256"
        },
        {
          "internalType": "uint256",
          "name": "incomeLimit",
          "type": "uint256"
        },
        {
          "internalType": "uint256",
          "name": "usdtBalance",
          "type": "uint256"
        },
        {
          "internalType": "uint256",
          "name": "rebirthPool",
          "type": "uint256"
        },
        {
          "internalType": "uint256",
          "name": "btcPoolBalance",
          "type": "uint256"
        },
        {
          "internalType": "uint256",
          "name": "powerLegPoints",
          "type": "uint256"
        },
        {
          "internalType": "uint256",
          "name": "matchedPairs",
          "type": "uint256"
        },
        {
          "internalType": "address",
          "name": "mainAccount",
          "type": "address"
        },
        {
          "internalType": "uint256",
          "name": "rebirthCount",
          "type": "uint256"
        },
        {
          "internalType": "uint256",
          "name": "joinedAt",
          "type": "uint256"
        }
      ],
      "stateMutability": "view",
      "type": "function"
    },
    {
      "inputs": [],
      "name": "mvaultToken",
      "outputs": [
        {
          "internalType": "contract IMvaultToken",
          "name": "",
          "type": "address"
        }
      ],
      "stateMutability": "view",
      "type": "function"
    },
    {
      "inputs": [],
      "name": "owner",
      "outputs": [
        {
          "internalType": "address",
          "name": "",
          "type": "address"
        }
      ],
      "stateMutability": "view",
      "type": "function"
    },
    {
      "inputs": [
        {
          "internalType": "address",
          "name": "subAccount",
          "type": "address"
        },
        {
          "internalType": "bool",
          "name": "placeLeft",
          "type": "bool"
        }
      ],
      "name": "rebirth",
      "outputs": [],
      "stateMutability": "nonpayable",
      "type": "function"
    },
    {
      "inputs": [
        {
          "internalType": "address",
          "name": "sponsor",
          "type": "address"
        },
        {
          "internalType": "address",
          "name": "binaryParent",
          "type": "address"
        },
        {
          "internalType": "bool",
          "name": "placeLeft",
          "type": "bool"
        }
      ],
      "name": "register",
      "outputs": [],
      "stateMutability": "nonpayable",
      "type": "function"
    },
    {
      "inputs": [],
      "name": "renounceOwnership",
      "outputs": [],
      "stateMutability": "nonpayable",
      "type": "function"
    },
    {
      "inputs": [],
      "name": "reservePool",
      "outputs": [
        {
          "internalType": "uint256",
          "name": "",
          "type": "uint256"
        }
      ],
      "stateMutability": "view",
      "type": "function"
    },
    {
      "inputs": [
        {
          "internalType": "uint256",
          "name": "amount",
          "type": "uint256"
        }
      ],
      "name": "sellMvt",
      "outputs": [],
      "stateMutability": "nonpayable",
      "type": "function"
    },
    {
      "inputs": [
        {
          "internalType": "address",
          "name": "_mvaultToken",
          "type": "address"
        }
      ],
      "name": "setMvaultToken",
      "outputs": [],
      "stateMutability": "nonpayable",
      "type": "function"
    },
    {
      "inputs": [
        {
          "internalType": "string",
          "name": "_displayName",
          "type": "string"
        },
        {
          "internalType": "string",
          "name": "_email",
          "type": "string"
        },
        {
          "internalType": "string",
          "name": "_phone",
          "type": "string"
        },
        {
          "internalType": "string",
          "name": "_country",
          "type": "string"
        }
      ],
      "name": "setProfile",
      "outputs": [],
      "stateMutability": "nonpayable",
      "type": "function"
    },
    {
      "inputs": [],
      "name": "totalUsers",
      "outputs": [
        {
          "internalType": "uint256",
          "name": "",
          "type": "uint256"
        }
      ],
      "stateMutability": "view",
      "type": "function"
    },
    {
      "inputs": [
        {
          "internalType": "address",
          "name": "newOwner",
          "type": "address"
        }
      ],
      "name": "transferOwnership",
      "outputs": [],
      "stateMutability": "nonpayable",
      "type": "function"
    },
    {
      "inputs": [],
      "name": "usdtToken",
      "outputs": [
        {
          "internalType": "contract IERC20",
          "name": "",
          "type": "address"
        }
      ],
      "stateMutability": "view",
      "type": "function"
    },
    {
      "inputs": [
        {
          "internalType": "address",
          "name": "",
          "type": "address"
        }
      ],
      "name": "users",
      "outputs": [
        {
          "internalType": "bool",
          "name": "isRegistered",
          "type": "bool"
        },
        {
          "internalType": "bool",
          "name": "isActive",
          "type": "bool"
        },
        {
          "internalType": "address",
          "name": "sponsor",
          "type": "address"
        },
        {
          "internalType": "uint256",
          "name": "directCount",
          "type": "uint256"
        },
        {
          "internalType": "address",
          "name": "binaryParent",
          "type": "address"
        },
        {
          "internalType": "bool",
          "name": "placedLeft",
          "type": "bool"
        },
        {
          "internalType": "address",
          "name": "leftChild",
          "type": "address"
        },
        {
          "internalType": "address",
          "name": "rightChild",
          "type": "address"
        },
        {
          "internalType": "uint256",
          "name": "leftSubUsers",
          "type": "uint256"
        },
        {
          "internalType": "uint256",
          "name": "rightSubUsers",
          "type": "uint256"
        },
        {
          "internalType": "uint256",
          "name": "matchedPairs",
          "type": "uint256"
        },
        {
          "internalType": "uint256",
          "name": "mvtBalance",
          "type": "uint256"
        },
        {
          "internalType": "uint256",
          "name": "totalReceived",
          "type": "uint256"
        },
        {
          "internalType": "uint256",
          "name": "totalSold",
          "type": "uint256"
        },
        {
          "internalType": "uint256",
          "name": "incomeLimit",
          "type": "uint256"
        },
        {
          "internalType": "uint256",
          "name": "usdtBalance",
          "type": "uint256"
        },
        {
          "internalType": "uint256",
          "name": "rebirthPool",
          "type": "uint256"
        },
        {
          "internalType": "uint256",
          "name": "totalUsdtEarned",
          "type": "uint256"
        },
        {
          "internalType": "uint256",
          "name": "btcPoolBalance",
          "type": "uint256"
        },
        {
          "internalType": "uint256",
          "name": "totalBtcEarned",
          "type": "uint256"
        },
        {
          "internalType": "uint256",
          "name": "powerLegPoints",
          "type": "uint256"
        },
        {
          "internalType": "address",
          "name": "mainAccount",
          "type": "address"
        },
        {
          "internalType": "uint256",
          "name": "rebirthCount",
          "type": "uint256"
        },
        {
          "internalType": "uint256",
          "name": "joinedAt",
          "type": "uint256"
        },
        {
          "internalType": "string",
          "name": "displayName",
          "type": "string"
        },
        {
          "internalType": "string",
          "name": "email",
          "type": "string"
        },
        {
          "internalType": "string",
          "name": "phone",
          "type": "string"
        },
        {
          "internalType": "string",
          "name": "country",
          "type": "string"
        },
        {
          "internalType": "bool",
          "name": "profileSet",
          "type": "bool"
        }
      ],
      "stateMutability": "view",
      "type": "function"
    },
    {
      "inputs": [
        {
          "internalType": "address",
          "name": "to",
          "type": "address"
        },
        {
          "internalType": "uint256",
          "name": "amount",
          "type": "uint256"
        }
      ],
      "name": "withdrawAdminPool",
      "outputs": [],
      "stateMutability": "nonpayable",
      "type": "function"
    },
    {
      "inputs": [
        {
          "internalType": "uint256",
          "name": "amount",
          "type": "uint256"
        }
      ],
      "name": "withdrawBtcPool",
      "outputs": [],
      "stateMutability": "nonpayable",
      "type": "function"
    },
    {
      "inputs": [
        {
          "internalType": "address",
          "name": "to",
          "type": "address"
        },
        {
          "internalType": "uint256",
          "name": "amount",
          "type": "uint256"
        }
      ],
      "name": "withdrawReservePool",
      "outputs": [],
      "stateMutability": "nonpayable",
      "type": "function"
    },
    {
      "inputs": [
        {
          "internalType": "uint256",
          "name": "amount",
          "type": "uint256"
        }
      ],
      "name": "withdrawUsdt",
      "outputs": [],
      "stateMutability": "nonpayable",
      "type": "function"
    }
  ],
  "bytecode": "0x60a0346200016057601f6200368038819003918201601f19168301916001600160401b038311848410176200016557808492604094855283398101031262000160576200005a602062000052836200017b565b92016200017b565b90331562000147576000549160018060a01b03199233848216176000556040519060018060a01b03938491823391167f8be0079c531659141344cd1fd0a4f28419497f9722a3daafe3b4186f6b6457e0600080a360017f9b779b17422d0df92223018b32b4d1fa46e071723d6817e2486d003becc55f00551690811580156200013c575b6200012d5750608052169060015416176001556040516134ef90816200019182396080518181816104620152818161069201528181610aef0152818161175e015281816122f001526127fc0152f35b63d92e233d60e01b8152600490fd5b5083831615620000de565b604051631e4fbdf760e01b815260006004820152602490fd5b600080fd5b634e487b7160e01b600052604160045260246000fd5b51906001600160a01b0382168203620001605756fe61032080604052600436101561001457600080fd5b600090813560e01c9081630266f044146123d157508063039ccc26146123ad57806303c3ecb7146123675780630f15f4c0146122865780630f53a470146121c65780631ce5e894146121545780631f6259d51461212b5780632808bc8d146120675780632d641f081461202a57806338abfc411461200c57806344e374d514611ff057806352375bb114611fc157806355509c8f146119ee578063634f627e146116d85780636386c1c71461151057806368ddb2b51461142d578063715018a6146113e557806377537844146113c95780637f1b4064146113ab5780638a8f04291461118d5780638da5cb5b1461116657806392446e301461114a57806394915dd014610e37578063a2bdedf414610df3578063a87430ba14610b1e578063a98ad46c14610ad9578063aa33f5d514610763578063aa3937571461073f578063b58e027814610627578063b86a1fb214610609578063bff1f9e1146105eb578063ce8292f514610552578063d3635a02146103f7578063e51cb530146103a9578063ec50324a146102aa578063f24c536a146102315763f2fde38b146101b957600080fd5b3461022e57602036600319011261022e576101d26123ed565b6101da6125cd565b6001600160a01b03908116908115610215576000548260018060a01b03198216176000551660008051602061345a833981519152600080a380f35b604051631e4fbdf760e01b815260048101849052602490fd5b80fd5b503461022e57602036600319011261022e576040906001600160a01b036102566123ed565b1681526002602052818120906007600583015460068401548082106000146102a25750925b01548083111561029c57610290915082612752565b82519182526020820152f35b50610290565b90509261027b565b503461022e57604036600319011261022e576102c46123ed565b602435906102d06125cd565b6001600160a01b03169081156103975760065481811061035b57816103187f0529afc4538720fe0b3eadc40486369ab962002d72fead1387b300c66073e7bf93602093612752565b600655838552600282526008604086200161033482825461275f565b9055838552600282526009604086200161034f82825461275f565b9055604051908152a280f35b60405162461bcd60e51b8152602060048201526014602482015273115e18d959591cc81c995cd95c9d99481c1bdbdb60621b6044820152606490fd5b60405163d92e233d60e01b8152600490fd5b503461022e57602036600319011261022e57604090600d9082906001600160a01b036103d36123ed565b168152600260205220015481519068070c1cc73b00c8000081101582526020820152f35b503461022e5760208060031936011261054e57600435906104166126d4565b811561053c5733835260028152600c6040842001805483811061052a578361043d91612752565b905560405163a9059cbb60e01b815281818061045d863360048401612737565b0381877f00000000000000000000000000000000000000000000000000000000000000006001600160a01b03165af190811561051f5784916104f2575b50156104e0577fbdd3f02d2a57fb53c1156f98470b61cb60712d485c27c36a49b1263dabcde201906040519283523392a2600160008051602061349a8339815191525580f35b6040516312171d8360e31b8152600490fd5b6105129150823d8411610518575b61050a8183612504565b8101906126bc565b3861049a565b503d610500565b6040513d86823e3d90fd5b60405163b55c1bad60e01b8152600490fd5b604051631f2a200560e01b8152600490fd5b5080fd5b503461022e578060031936011261022e576001546040516370a0823160e01b81523060048201529190602090839060249082906001600160a01b03165afa9081156105df57906105a8575b602090604051908152f35b506020813d82116105d7575b816105c160209383612504565b810103126105d2576020905161059d565b600080fd5b3d91506105b4565b604051903d90823e3d90fd5b503461022e578060031936011261022e576020600454604051908152f35b503461022e578060031936011261022e576020600754604051908152f35b503461022e5760208060031936011261054e57600435906106466126d4565b811561053c5733835260028152600f6040842001805483811061072d578361066d91612752565b905560405163a9059cbb60e01b815281818061068d863360048401612737565b0381877f00000000000000000000000000000000000000000000000000000000000000006001600160a01b03165af190811561051f578491610710575b50156104e0577f12701e4764b73009ab9826933c421483e4280410091fcc760515e0fa99fa766b906040519283523392a2600160008051602061349a8339815191525580f35b6107279150823d84116105185761050a8183612504565b386106ca565b604051636dae861760e11b8152600490fd5b503461022e578060031936011261022e5760206040516815245655b1025800008152f35b503461022e57606036600319011261022e5761077d6123ed565b6024356001600160a01b03811690036105d2576044351515604435036105d257338252600260205260ff604083205416610ac7576004546108ac57336000908152600260208190526040909120805461ff01600160b01b031916600117815590810180546001600160a81b03191690556012810180546001600160a01b031916905542601490910155600354600160401b811015610896578060016108259201600355612486565b81546001600160a01b0360039290921b91821b19163390911b17905560045461084d906125f9565b6004555b604051604435151581526001600160a01b03602435811692169033907f34ff37874d7443037a85c6f390fe14f2ae3e8767355de0e63891ad4367c2753990602090a480f35b634e487b7160e01b600052604160045260246000fd5b6001600160a01b0381168083526002602052604083205460ff1615610ab5576024356001600160a01b0316151580610a94575b15610a8e576024355b60443580610a6b575b610a36576044351580610a48575b610a3657336000908152600260208190526040909120805461ff01600160b01b031916601086901b62010000600160b01b031617600117815590810180546001600160a81b0319166001600160a01b03909316928317604435151560a01b60ff60a01b161790556012810180546001600160a01b031990811690915542601490920191909155600354909190600160401b811015610896578060016109a79201600355612486565b81546001600160a01b0360039290921b91821b19163390911b1790556004546109cf906125f9565b60045560443515610a1a5784526002602052600360408520019033908254161790555b8252600260205260016040832001610a0a81546125f9565b9055610a153361261e565b610851565b84526002602052600460408520019033908254161790556109f2565b60405163d5dd5c3d60e01b8152600490fd5b506001600160a01b038181168552600260205260408520600401541615156108ff565b506001600160a01b038181168552600260205260408520600301541615156108f1565b816108e8565b506024356001600160a01b031683526002602052604083205460ff166108df565b604051632f212e0d60e11b8152600490fd5b604051630ea075bf60e21b8152600490fd5b503461022e578060031936011261022e576040517f00000000000000000000000000000000000000000000000000000000000000006001600160a01b03168152602090f35b503461022e57602036600319011261022e576040906001600160a01b03610b436123ed565b168152600260205220806101c052808080808080808080808080610c076015600f600e600d600c600b600a600960086007600660058d549d60018101546102805260028101546101205260018060a01b036003820154166101a052600460018060a01b03910154169e01549e01549e01549e01549e01549e01549e01549e01549e01549e01549e01549e60108101546102405260118101546101805260018060a01b0360128201541660a05260138101546102205260148101546101405201612527565b61030052610c1a60166101c05101612527565b6101e052610c2d60176101c05101612527565b61026052610c4060186101c05101612527565b6102e05260ff60196101c05101541661010052604051806102005260ff82161515905260ff8160081c161515602061020051015260018060a01b039060101c16604061020051015261028051606061020051015260018060a01b036101205116608061020051015260ff6101205160a01c16151560a06102005101526101a05160c061020051015260e06102005101526101006102005101526101206102005101526101406102005101526101606102005101526101806102005101526101a06102005101526101c06102005101526101e061020051015261020080510152610220610200510152610240610200510152610240516102606102005101526101805161028061020051015260a0516102a0610200510152610220516102c0610200510152610140516102e0610200510152610dda610dc4610dae610d986103a080610300610200510152610200510161030051612403565b610200516103208183039101526101e051612403565b6102005161034081830391015261026051612403565b610200516103608183039101526102e051612403565b6101005115156103806102005101526102005180910390f35b503461022e57602036600319011261022e576004359060035482101561022e576020610e1e83612486565b905460405160039290921b1c6001600160a01b03168152f35b503461022e57604036600319011261022e57610e516123ed565b6024359081151582036105d257610e666126d4565b6001600160a01b038181169290831561039757338552600292602093808552604087209182549160ff8360081c161561111857600d840180549068070c1cc73b00c80000808310611106578a8c52838a5260ff60408d2054166110c15768070c1cc73b00c7ffff1983019283116110ad578083106110a257610ee9908093612752565b9055600c8501610efa82825461275f565b9055610f0b600e860191825461275f565b90556815245655b102580000600b850155610f2c858460101c169633612ede565b60008a8152838a5260409020805461ff01600160b01b03191662010000600160b01b0390961695909517600117855584830180546001600160a81b03191692881692831782151560a01b60ff60a01b161790556012850180546001600160a01b0319908116331790915542601490960195909555600354909790949091600160401b861015610896577f30016ed357540281a6cff6143637e72b48e105d85d15df66b0aaffbd23790240986013988c610fee89600161103e9b01600355612486565b909283549160031b92831b921b191617905561100b6004546125f9565b60045515611089578b5282895289600360408d2001918254161790555b8061106b575b50506110398161261e565b612790565b019161104a83546125f9565b8093556040519283523392a3600160008051602061349a8339815191525580f35b895286526001604089200161108081546125f9565b9055388061102e565b8b5282895289600460408d200191825416179055611028565b50610ee98280612752565b634e487b7160e01b8c52601160045260248cfd5b60405162461bcd60e51b8152600481018b9052601e60248201527f5375622d6163636f756e7420616c7265616479207265676973746572656400006044820152606490fd5b6040516307db32bd60e31b8152600490fd5b60405162461bcd60e51b815260048101889052600a6024820152694e6f742061637469766560b01b6044820152606490fd5b503461022e578060031936011261022e576020604051600a8152f35b503461022e578060031936011261022e57546040516001600160a01b039091168152602090f35b503461022e5761119c36612443565b6111a46125cd565b6111ac6126d4565b60099060ff82541615611399576111c3908361275f565b9060038054808411611391575b508492845b818110611351575060089182549585151580611348575b1561132f57805b83811061129a575090879392915b82811061125a57847f7f4a5b69bea14a6fc05326671a02e90d4a88855c83a18529c260057b1bf61a8560408a8a8a858a5560ff19815416905582519182526020820152a1600160008051602061349a8339815191525580f35b611290919293945061126b81612486565b905490841b1c6001600160a01b031689526002602052604089206011018990556125f9565b9087939291611201565b80896112a861131d93612486565b905490861b1c6001600160a01b0316808252600260208181526040842060110154919290918a908e908e8115611322576112e76112ec92604094612704565b612717565b95838152858552200161130085825461275f565b90558d52526113168860408d200191825461275f565b90556125f9565b6111f3565b50505050505050506125f9565b61133b8760075461275f565b6007559087939291611201565b508615156111ec565b9361138661138c9161136287612486565b905490861b1c6001600160a01b03168952600260205260408920601101549061275f565b946125f9565b6111d5565b9250386111d0565b60405163418826bf60e11b8152600490fd5b503461022e578060031936011261022e576020600554604051908152f35b503461022e578060031936011261022e57602060405160288152f35b503461022e578060031936011261022e576113fe6125cd565b600080546001600160a01b0319811682556001600160a01b031660008051602061345a8339815191528280a380f35b503461022e578060031936011261022e57600154604051623144bd60e31b81526001600160a01b039091169160208083600481875afa9283156115055782936114d4575b5080600494604051958680926310f4cba760e21b82525afa9182156105df57916114a4575b604080945051928352820152f35b80915083813d83116114cd575b6114bb8183612504565b810103126105d2576040925190611496565b503d6114b1565b9392508084813d83116114fe575b6114ec8183612504565b810103126105d2579251919280611471565b503d6114e2565b6040513d84823e3d90fd5b503461022e57602036600319011261022e576040906001600160a01b036115356123ed565b168152600260205220808080808080808080808080805460018201546102a05260028201546102c052601460076011600f600d600c600b600a60096008600660058d600360018060a01b03910154169d600460018060a01b03910154169e01549e01549e01549e01549e01549e01549e01549e01549e01549e01549e01549e60018060a01b0360128201541660e052601381015460c0520154608052604051806101605260ff82161515905260ff8160081c161515602061016051015260018060a01b039060101c1660406101605101526102a051606061016051015260018060a01b036102c05116608061016051015260ff6102c05160a01c16151560a061016051015260c061016051015260e0610160510152610100610160510152610120610160510152610140610160510152610160805101526101806101605101526101a06101605101526101c06101605101526101e061016051015261020061016051015261022061016051015261024061016051015260e05161026061016051015260c0516102806101605101526080516102a06101605101526102c061016051f35b503461022e5760208060031936011261054e57600435906116f76126d4565b811561053c5733835260028152604083209060ff825460081c16156119dc576008820180548481106119ca578461172d91612752565b9055600a820161173e84825461275f565b90556040516370a0823160e01b8082523060048301526001600160a01b037f0000000000000000000000000000000000000000000000000000000000000000811692919087908584602481885afa93841561150557829461199b575b5060015416803b1561054e5781906024604051809481936372424d9960e11b83528c60048401525af180156119905761197d575b50839060246040518095819382523060048301525afa8015611972578690611943575b6117fb9250612752565b91600a8302838104600a148415171561192f577f8f7262d5a031d4d671e1fdb0cddcd26d37185226f9e82f2f18877141ac1963eb939291611843606461190493048095612752565b92600f820161185386825461275f565b90556010820161186486825461275f565b90557f2b1d2104e84dd4dabb0cca024171f783ab1e1c9dc1af9d60a2361596653a99c4604051918683523392a2600b81018054918883156119225750600d908386111561191c57835b80936118d4826118bd818b612752565b97600c86016118cd83825461275f565b9055612752565b90556118e5600e830191825461275f565b90555b016118f483825461275f565b905560405194859433988661276c565b0390a2600160008051602061349a8339815191525580f35b856118ad565b91509150600d84926118e8565b634e487b7160e01b86526011600452602486fd5b508282813d831161196b575b6119598183612504565b810103126105d2576117fb91516117f1565b503d61194f565b6040513d88823e3d90fd5b966119898592986124f1565b96906117ce565b6040513d8a823e3d90fd5b9093508581813d83116119c3575b6119b38183612504565b8101031261054e5751923861179a565b503d6119a9565b60405163208975e760e21b8152600490fd5b60405163aba4733960e01b8152600490fd5b503461022e57608036600319011261022e576004356001600160401b03811161054e57611a1f903690600401612459565b91906024356001600160401b038111611fbd57611a40903690600401612459565b6044356001600160401b038111611fb957611a5f903690600401612459565b90916064356001600160401b038111611fb557611a80903690600401612459565b949097338852600260205260ff60408920541615611f7f57338852600260205260408820966001600160401b038211611f6b578190611ac260158a01546124b7565b601f8111611f1b575b508990601f8311600114611eaf578a92611ea4575b50508160011b916000199060031b1c19161760158701555b6001600160401b038211611e90578190611b1560168801546124b7565b601f8111611e3d575b508790601f8311600114611dd1578892611dc6575b50508160011b916000199060031b1c19161760168501555b60178401916001600160401b038211611db2578190611b6a84546124b7565b601f8111611d62575b508690601f8311600114611cfc578792611cf1575b50508160011b916000199060031b1c19161790555b60188201906001600160401b038111611cdd57611bba82546124b7565b601f8111611c98575b5083601f8211600114611c31578190859660199692611c26575b50508160011b916000199060031b1c19161790555b01805460ff19166001179055337fbe4ec58a792f909e102ee3d745d0c3b34a4d437a54d903c4db098d31c556422f8280a280f35b013590503880611bdd565b8285526020852090601f198316865b818110611c805750968392916001946019989910611c66575b505050811b019055611bf2565b0135600019600384901b60f8161c19169055388080611c59565b9192602060018192868c013581550194019201611c40565b82855260208520601f830160051c81019160208410611cd3575b601f0160051c01905b818110611cc85750611bc3565b858155600101611cbb565b9091508190611cb2565b634e487b7160e01b84526041600452602484fd5b013590503880611b88565b84885260208820925090601f198416885b818110611d4a5750908460019594939210611d30575b505050811b019055611b9d565b0135600019600384901b60f8161c19169055388080611d23565b91936020600181928787013581550195019201611d0d565b90915083875260208720601f840160051c81019160208510611da8575b90601f859493920160051c01905b818110611d9a5750611b73565b888155849350600101611d8d565b9091508190611d7f565b634e487b7160e01b86526041600452602486fd5b013590503880611b33565b60168801895260208920925090601f198416895b818110611e255750908460019594939210611e0b575b505050811b016016850155611b4b565b0135600019600384901b60f8161c19169055388080611dfb565b91936020600181928787013581550195019201611de5565b90915060168701885260208820601f840160051c81019160208510611e86575b90601f859493920160051c01905b818110611e785750611b1e565b898155849350600101611e6b565b9091508190611e5d565b634e487b7160e01b87526041600452602487fd5b013590503880611ae0565b60158a018b5260208b20925090601f1984168b5b818110611f035750908460019594939210611ee9575b505050811b016015870155611af8565b0135600019600384901b60f8161c19169055388080611ed9565b91936020600181928787013581550195019201611ec3565b909150601589018a5260208a20601f840160051c810160208510611f64575b90849392915b601f830160051c82018110611f56575050611acb565b8c8155859450600101611f40565b5080611f3a565b634e487b7160e01b89526041600452602489fd5b60405162461bcd60e51b815260206004820152600e60248201526d139bdd081c9959da5cdd195c995960921b6044820152606490fd5b8680fd5b8480fd5b8280fd5b503461022e578060031936011261022e5760606005546006546007549060405192835260208301526040820152f35b503461022e578060031936011261022e576020604051601e8152f35b503461022e578060031936011261022e576020600354604051908152f35b503461022e5761205261203c36612443565b906120456125cd565b61204d6126d4565b61313b565b600160008051602061349a8339815191525580f35b503461022e57604036600319011261022e576120816123ed565b6024359061208d6125cd565b6001600160a01b0316908115610397576007548181106120f157816120d57fba443e8671971c36cdeb74f87321041daff421230cbc5e36cb835269ed1d8b7e93602093612752565b600755838552600282526008604086200161033482825461275f565b60405162461bcd60e51b8152602060048201526012602482015271115e18d959591cc818591b5a5b881c1bdbdb60721b6044820152606490fd5b503461022e578060031936011261022e576001546040516001600160a01b039091168152602090f35b503461022e57602036600319011261022e5761216e6123ed565b6121766125cd565b6001600160a01b0316801561039757600180546001600160a01b031916821790556040519081527ffa7bd61554593f4e69cdffd255d3fe947352b02c7d3ec68059384934e4cfd47c90602090a180f35b503461022e57602036600319011261022e57612250906040906001600160a01b036121ef6123ed565b16815260026020522060ff60198201541661227a61220f60158401612527565b9261226c61221f60168301612527565b9161225e61223b601861223460178501612527565b9301612527565b9360405198899860a08a5260a08a0190612403565b9088820360208a0152612403565b908682036040880152612403565b908482036060860152612403565b90151560808301520390f35b503461022e578060031936011261022e5761229f6126d4565b3381526002602052604081205460ff8116156119dc5760081c60ff16612355576040516323b872dd60e01b815233600482015230602482015268070c1cc73b00c800006044820152602081606481857f00000000000000000000000000000000000000000000000000000000000000006001600160a01b03165af1908115611505578291612337575b50156104e05761205233612790565b61234f915060203d81116105185761050a8183612504565b38612328565b604051637cdf305160e11b8152600490fd5b503461022e57602036600319011261022e5760409081906001600160a01b0361238e6123ed565b1681526002602052206010600f82015491015482519182526020820152f35b503461022e578060031936011261022e57602060405168070c1cc73b00c800008152f35b90503461054e578160031936011261054e576020906006548152f35b600435906001600160a01b03821682036105d257565b919082519283825260005b84811061242f575050826000602080949584010152601f8019910116010190565b60208183018101518483018201520161240e565b60409060031901126105d2576004359060243590565b9181601f840112156105d2578235916001600160401b0383116105d257602083818601950101116105d257565b6003548110156124a157600360005260206000200190600090565b634e487b7160e01b600052603260045260246000fd5b90600182811c921680156124e7575b60208310146124d157565b634e487b7160e01b600052602260045260246000fd5b91607f16916124c6565b6001600160401b03811161089657604052565b601f909101601f19168101906001600160401b0382119082101761089657604052565b906040519182600082549261253b846124b7565b9081845260019485811690816000146125aa5750600114612567575b505061256592500383612504565b565b9093915060005260209081600020936000915b81831061259257505061256593508201013880612557565b8554888401850152948501948794509183019161257a565b91505061256594506020925060ff191682840152151560051b8201013880612557565b6000546001600160a01b031633036125e157565b60405163118cdaa760e01b8152336004820152602490fd5b60001981146126085760010190565b634e487b7160e01b600052601160045260246000fd5b6001600160a01b039081166000908152600260208181526040808420830154949560a09560ff959293919080881c871690899081165b169081156126b057156126935780845285835260058585200161267781546125f9565b90555b8352848252848484200154888088838b1c169216612654565b8084528583526006858520016126a981546125f9565b905561267a565b50509650505050505050565b908160209103126105d2575180151581036105d25790565b60008051602061349a83398151915260028154146126f25760029055565b604051633ee5aeb560e01b8152600490fd5b8181029291811591840414171561260857565b8115612721570490565b634e487b7160e01b600052601260045260246000fd5b6001600160a01b039091168152602081019190915260400190565b9190820391821161260857565b9190820180921161260857565b9192608093969594919660a084019784526020840152604083015260608201520152565b600154604051623144bd60e31b81529260009290916001600160a01b0316602085600481845afa94851561051f578495612d00575b508415612cec5760405163095ea7b360e01b8152600481019190915268070c1cc73b00c800006024820181905290602081604481887f00000000000000000000000000000000000000000000000000000000000000006001600160a01b03165af18015612c7057612ccd575b506001546040516370a0823160e01b8082523060048301529290916001600160a01b031690602083602481855afa928315612cc2578793612c8e575b50813b15611fb5578691604483926040519485938492634e538d9360e11b845230600485015260248401525af1801561197257612c7b575b50600154604051928352306004840152602090839060249082906001600160a01b03165afa8015612c70578590612c3c575b6128e19250612752565b936b030e68b6d6e0acc82863363160251b8190048015936028828102939284041485171561192f576b030e68b6d6e0acc82863363160251b829004601e8181029691870414171561192f576129566064860461295160648604856b030e68b6d6e0acc82863363160251b04612752565b612752565b946129666064820460055461275f565b6005556129758660065461275f565b6006556001600160a01b038581168852600260205260408820805461ff001916610100178082556815245655b102580000600b9092019190915560019789969092909160101c165b600f60ff8a16111580612c2a575b15612b97576129ec896b030e68b6d6e0acc82863363160251b889004612d4d565b968715612b7157876129fd9161275f565b9660018060a01b0382168b5260026020528960408c2060ff815460081c169081612b5a575b5015612b0357506001600160a01b0382168b52600260205260408b206008018054612a4e90839061275f565b90556001600160a01b0382168b52600260205260408b206009018054612a7590839061275f565b90556040516001600160a01b03808b1692908416917fb16479bdac5b7099d9236d6fc6be3b30ff54188f4fd961686e1e1dc7ecb88037918190612ab9908f83612d38565b0390a35b6001600160a01b039081168a52600260205260408a205460101c16975b60ff809116908114612aef57600101976129bd565b634e487b7160e01b8a52601160045260248afd5b90612b527f117ca0cd821ecb7eadfea2d6927a67853908bdc351a386235215f5ab6071bfed916007612b3682825461275f565b90556040516001600160a01b0386169490928392909183612d38565b0390a2612abd565b600191500154612b6982612e80565b111538612a22565b6001600160a01b039182168b52600260205260408b205460101c90911698909650612ada565b5091975091977f8af2c013a5a55c6d3ad5423522fe76c6f2eb831b5e23318276b3c678cb457fc9965092612c0593606496958088850411612c0a575b506040516001600160a01b0390961698959687968190049304916b030e68b6d6e0acc82863363160251b04908661276c565b0390a2565b612c19612c2191898604612752565b60075461275f565b60075538612bd3565b506001600160a01b03811615156129cb565b506020823d602011612c68575b81612c5660209383612504565b810103126105d2576128e191516128d7565b3d9150612c49565b6040513d87823e3d90fd5b612c87909591956124f1565b93386128a5565b9092506020813d602011612cba575b81612caa60209383612504565b81010312611fb55751913861286d565b3d9150612c9d565b6040513d89823e3d90fd5b612ce59060203d6020116105185761050a8183612504565b5038612831565b634e487b7160e01b84526012600452602484fd5b9094506020813d602011612d30575b81612d1c60209383612504565b81010312612d2c575193386127c5565b8380fd5b3d9150612d0f565b6020909392919360ff60408201951681520152565b9060ff1660018114612e655760028114612e4a5760038114612e2f57600490818114612e135760058114612df75760068114612de05760078114612de05760088110159081612dd4575b50612da3575050600090565b600582029180830460051490151715612dbf57506103e8900490565b601190634e487b7160e01b6000525260246000fd5b600f9150111538612d97565b5081800460011482151715612dbf57506064900490565b508160011b9180830460021490151715612dbf57506064900490565b50600382029180830460031490151715612dbf57506064900490565b508060021b9080820460041490151715612608576064900490565b50600581029080820460051490151715612608576064900490565b50601481029080820460141490151715612608576064900490565b60ff166001811115612ead576004811115612ea75760071015612ea257600a90565b600590565b50600290565b50600090565b6001600160401b0381116108965760051b60200190565b80518210156124a15760209160051b010190565b90918280613116575b61310e5782159182806130e9575b612fa65760049384549360018086018096116130d457612f1486612eb3565b90612f2f604097612f2789519485612504565b808452612eb3565b9260209283810194601f190136863760008087156130b6576001600160a01b038981168352600287528b83206003015416965b6001600160a01b039788168061308d575b50505b818110612ff05750505080612fd5575b612fca575082612fae575b5050612fa65750505163c5bb5bcd60e01b8152fd5b925060009150565b8160029293508416600052528484600020015416153880612f91565b939650929450505050565b50828516600052600282528260038860002001541615612f86565b86613004612ffd836125f9565b9285612eca565b5116806000526002908188528c6000208960038201541690811561307a578f01548a16156130675761303f613038866125f9565b9587612eca565b526000528652868c8c60002001541661306161305a846125f9565b9385612eca565b52612f76565b509c5060009b5050505050505050505050565b50909d50959b5050505050505050505050565b90925085928451156130a157523880612f73565b60328e634e487b7160e01b6000525260246000fd5b6001600160a01b038981168352600287528b83208d01541696612f62565b601187634e487b7160e01b6000525260246000fd5b506001600160a01b038181166000908152600260205260409020600401541615612ef5565b915090600190565b506001600160a01b038281166000908152600260205260409020600301541615612ee7565b60ff60098181541661344857600590815494851561340f576000938484556046870287810460460361192f5760649004936131768589612752565b956131866008948886558961275f565b9360038054808711613407575b508299805b87811061337457508a15613329575b8681106131ee5750505050505050916080939160008051602061347a8339815191529593600160ff19825416179055604051938452602084015260408301526060820152a1565b8a86868b8b6131fc86612486565b60018060a01b03915490891b1c16808a52600292896020938585528c604097888220998a54851c16156133155789015460068a01548082101561330d5750995b6007998a0154808c111561330557613254908c612752565b945b85156132f057916132708a926112e7886132989796612704565b948782528989528282200161328686825461275f565b9055868152888852200191825461275f565b9055600a808202918204036132dc5790849392916132c960116132d79a9998978e858152878752200191825461275f565b90558a5252872001556125f9565b6131a7565b634e487b7160e01b8b52601160045260248bfd5b5050505050505050505050506132d7906125f9565b508194613256565b90509961323c565b50505050505050505050506132d7906125f9565b5050935094608097508594506133569250612c1991509560008051602061347a833981519152989661275f565b600755556040519182528060208301528060408301526060820152a1565b61337d81612486565b905490841b1c6001600160a01b031685526002602052604085208054851c8816156133fd5760078782015460068301548082106000146133f55750915b0154908181116133d5575b50506133d0906125f9565b613198565b9c6133e76133ed926133d0949f612752565b9061275f565b9b90386133c5565b9050916133ba565b506133d0906125f9565b955038613193565b60405162461bcd60e51b8152602060048201526011602482015270115b5c1d1e48189a5b985c9e481c1bdbdb607a1b6044820152606490fd5b60405162c9487960e41b8152600490fdfe8be0079c531659141344cd1fd0a4f28419497f9722a3daafe3b4186f6b6457e0a0ea5705200c9ffd36dc735fef1592c3234bb7e311fc1b0a444f6370d0620eae9b779b17422d0df92223018b32b4d1fa46e071723d6817e2486d003becc55f00a264697066735822122056e9ed2f26f9d25aec7a4cab5ec5ece44dee158becbb7c34448853d36499201f64736f6c63430008140033",
  "linkReferences": {},
  "deployedLinkReferences": {}
}