{
  "_format": "hh-sol-artifact-1",
  "contractName": "MvaultContract",
  "sourceName": "contracts/MvaultContract.sol",
  "abi": [
    {
      "inputs": [
        {
          "internalType": "address",
          "name": "_usdt",
          "type": "address"
        },
        {
          "internalType": "address",
          "name": "_mvaultToken",
          "type": "address"
        }
      ],
      "stateMutability": "nonpayable",
      "type": "constructor"
    },
    {
      "inputs": [],
      "name": "AlreadyActive",
      "type": "error"
    },
    {
      "inputs": [],
      "name": "AlreadyRegistered",
      "type": "error"
    },
    {
      "inputs": [],
      "name": "BinaryAlreadyDistributed",
      "type": "error"
    },
    {
      "inputs": [],
      "name": "BinaryNotDistributed",
      "type": "error"
    },
    {
      "inputs": [],
      "name": "BoardHandlerNotSet",
      "type": "error"
    },
    {
      "inputs": [],
      "name": "InsufficientBtcPool",
      "type": "error"
    },
    {
      "inputs": [],
      "name": "InsufficientBtcPoolForBoard",
      "type": "error"
    },
    {
      "inputs": [],
      "name": "InsufficientRebirthPool",
      "type": "error"
    },
    {
      "inputs": [],
      "name": "InsufficientUsdtBalance",
      "type": "error"
    },
    {
      "inputs": [],
      "name": "InsufficientVirtualBalance",
      "type": "error"
    },
    {
      "inputs": [],
      "name": "InvalidSponsor",
      "type": "error"
    },
    {
      "inputs": [],
      "name": "NoOpenBinarySlot",
      "type": "error"
    },
    {
      "inputs": [],
      "name": "NotRegistered",
      "type": "error"
    },
    {
      "inputs": [
        {
          "internalType": "address",
          "name": "owner",
          "type": "address"
        }
      ],
      "name": "OwnableInvalidOwner",
      "type": "error"
    },
    {
      "inputs": [
        {
          "internalType": "address",
          "name": "account",
          "type": "address"
        }
      ],
      "name": "OwnableUnauthorizedAccount",
      "type": "error"
    },
    {
      "inputs": [],
      "name": "PositionTaken",
      "type": "error"
    },
    {
      "inputs": [],
      "name": "ReentrancyGuardReentrantCall",
      "type": "error"
    },
    {
      "inputs": [],
      "name": "TransferFailed",
      "type": "error"
    },
    {
      "inputs": [],
      "name": "ZeroAddress",
      "type": "error"
    },
    {
      "inputs": [],
      "name": "ZeroAmount",
      "type": "error"
    },
    {
      "anonymous": false,
      "inputs": [
        {
          "indexed": true,
          "internalType": "address",
          "name": "user",
          "type": "address"
        },
        {
          "indexed": false,
          "internalType": "uint256",
          "name": "mvtMinted",
          "type": "uint256"
        },
        {
          "indexed": false,
          "internalType": "uint256",
          "name": "grossMvt",
          "type": "uint256"
        },
        {
          "indexed": false,
          "internalType": "uint256",
          "name": "levelAmt",
          "type": "uint256"
        },
        {
          "indexed": false,
          "internalType": "uint256",
          "name": "binaryAmt",
          "type": "uint256"
        },
        {
          "indexed": false,
          "internalType": "uint256",
          "name": "adminAmt",
          "type": "uint256"
        }
      ],
      "name": "Activated",
      "type": "event"
    },
    {
      "anonymous": false,
      "inputs": [
        {
          "indexed": true,
          "internalType": "address",
          "name": "to",
          "type": "address"
        },
        {
          "indexed": false,
          "internalType": "uint256",
          "name": "amount",
          "type": "uint256"
        }
      ],
      "name": "AdminWithdraw",
      "type": "event"
    },
    {
      "anonymous": false,
      "inputs": [
        {
          "indexed": false,
          "internalType": "uint256",
          "name": "totalPool",
          "type": "uint256"
        },
        {
          "indexed": false,
          "internalType": "uint256",
          "name": "binary70",
          "type": "uint256"
        },
        {
          "indexed": false,
          "internalType": "uint256",
          "name": "powerLeg30",
          "type": "uint256"
        },
        {
          "indexed": false,
          "internalType": "uint256",
          "name": "totalPairs",
          "type": "uint256"
        }
      ],
      "name": "BinaryIncomeDistributed",
      "type": "event"
    },
    {
      "anonymous": false,
      "inputs": [
        {
          "indexed": true,
          "internalType": "address",
          "name": "user",
          "type": "address"
        },
        {
          "indexed": false,
          "internalType": "uint256",
          "name": "newPairs",
          "type": "uint256"
        },
        {
          "indexed": false,
          "internalType": "uint256",
          "name": "amount",
          "type": "uint256"
        }
      ],
      "name": "BinaryIncomePaid",
      "type": "event"
    },
    {
      "anonymous": false,
      "inputs": [
        {
          "indexed": true,
          "internalType": "address",
          "name": "user",
          "type": "address"
        },
        {
          "indexed": false,
          "internalType": "uint256",
          "name": "boardLevel",
          "type": "uint256"
        },
        {
          "indexed": false,
          "internalType": "uint256",
          "name": "usdtDeducted",
          "type": "uint256"
        }
      ],
      "name": "BoardEntered",
      "type": "event"
    },
    {
      "anonymous": false,
      "inputs": [
        {
          "indexed": true,
          "internalType": "address",
          "name": "newHandler",
          "type": "address"
        }
      ],
      "name": "BoardHandlerUpdated",
      "type": "event"
    },
    {
      "anonymous": false,
      "inputs": [
        {
          "indexed": true,
          "internalType": "address",
          "name": "user",
          "type": "address"
        },
        {
          "indexed": false,
          "internalType": "uint256",
          "name": "usdtAmount",
          "type": "uint256"
        },
        {
          "indexed": false,
          "internalType": "uint256",
          "name": "boardLevel",
          "type": "uint256"
        }
      ],
      "name": "BoardRewardCredited",
      "type": "event"
    },
    {
      "anonymous": false,
      "inputs": [
        {
          "indexed": true,
          "internalType": "address",
          "name": "user",
          "type": "address"
        },
        {
          "indexed": false,
          "internalType": "uint256",
          "name": "amount",
          "type": "uint256"
        }
      ],
      "name": "BtcPoolCredited",
      "type": "event"
    },
    {
      "anonymous": false,
      "inputs": [
        {
          "indexed": true,
          "internalType": "address",
          "name": "user",
          "type": "address"
        },
        {
          "indexed": false,
          "internalType": "uint256",
          "name": "amount",
          "type": "uint256"
        }
      ],
      "name": "BtcPoolWithdrawn",
      "type": "event"
    },
    {
      "anonymous": false,
      "inputs": [
        {
          "indexed": true,
          "internalType": "address",
          "name": "user",
          "type": "address"
        },
        {
          "indexed": false,
          "internalType": "uint256",
          "name": "stakeIndex",
          "type": "uint256"
        },
        {
          "indexed": false,
          "internalType": "uint256",
          "name": "lockedSince",
          "type": "uint256"
        }
      ],
      "name": "ConvertedToLocked",
      "type": "event"
    },
    {
      "anonymous": false,
      "inputs": [
        {
          "indexed": true,
          "internalType": "address",
          "name": "to",
          "type": "address"
        },
        {
          "indexed": true,
          "internalType": "address",
          "name": "from",
          "type": "address"
        },
        {
          "indexed": false,
          "internalType": "uint8",
          "name": "level",
          "type": "uint8"
        },
        {
          "indexed": false,
          "internalType": "uint256",
          "name": "amount",
          "type": "uint256"
        }
      ],
      "name": "LevelIncomePaid",
      "type": "event"
    },
    {
      "anonymous": false,
      "inputs": [
        {
          "indexed": true,
          "internalType": "address",
          "name": "upline",
          "type": "address"
        },
        {
          "indexed": false,
          "internalType": "uint8",
          "name": "level",
          "type": "uint8"
        },
        {
          "indexed": false,
          "internalType": "uint256",
          "name": "amount",
          "type": "uint256"
        }
      ],
      "name": "LevelIncomeSkipped",
      "type": "event"
    },
    {
      "anonymous": false,
      "inputs": [
        {
          "indexed": false,
          "internalType": "address",
          "name": "newToken",
          "type": "address"
        }
      ],
      "name": "MvaultTokenUpdated",
      "type": "event"
    },
    {
      "anonymous": false,
      "inputs": [
        {
          "indexed": true,
          "internalType": "address",
          "name": "user",
          "type": "address"
        },
        {
          "indexed": false,
          "internalType": "uint256",
          "name": "mvtAmount",
          "type": "uint256"
        },
        {
          "indexed": false,
          "internalType": "uint256",
          "name": "usdtNet",
          "type": "uint256"
        },
        {
          "indexed": false,
          "internalType": "uint256",
          "name": "usdtToBtcPool",
          "type": "uint256"
        },
        {
          "indexed": false,
          "internalType": "uint256",
          "name": "usdtToIncome",
          "type": "uint256"
        },
        {
          "indexed": false,
          "internalType": "uint256",
          "name": "usdtToRebirth",
          "type": "uint256"
        }
      ],
      "name": "MvtSold",
      "type": "event"
    },
    {
      "anonymous": false,
      "inputs": [
        {
          "indexed": true,
          "internalType": "address",
          "name": "previousOwner",
          "type": "address"
        },
        {
          "indexed": true,
          "internalType": "address",
          "name": "newOwner",
          "type": "address"
        }
      ],
      "name": "OwnershipTransferred",
      "type": "event"
    },
    {
      "anonymous": false,
      "inputs": [
        {
          "indexed": false,
          "internalType": "uint256",
          "name": "totalPowerLeg30",
          "type": "uint256"
        },
        {
          "indexed": false,
          "internalType": "uint256",
          "name": "totalPowerLegs",
          "type": "uint256"
        }
      ],
      "name": "PowerLegDistributed",
      "type": "event"
    },
    {
      "anonymous": false,
      "inputs": [
        {
          "indexed": true,
          "internalType": "address",
          "name": "user",
          "type": "address"
        },
        {
          "indexed": false,
          "internalType": "uint256",
          "name": "powerLegPoints",
          "type": "uint256"
        },
        {
          "indexed": false,
          "internalType": "uint256",
          "name": "amount",
          "type": "uint256"
        }
      ],
      "name": "PowerLegIncomePaid",
      "type": "event"
    },
    {
      "anonymous": false,
      "inputs": [
        {
          "indexed": true,
          "internalType": "address",
          "name": "user",
          "type": "address"
        }
      ],
      "name": "ProfileUpdated",
      "type": "event"
    },
    {
      "anonymous": false,
      "inputs": [
        {
          "indexed": true,
          "internalType": "address",
          "name": "mainAccount",
          "type": "address"
        },
        {
          "indexed": true,
          "internalType": "address",
          "name": "subAccount",
          "type": "address"
        },
        {
          "indexed": false,
          "internalType": "uint256",
          "name": "rebirthIndex",
          "type": "uint256"
        }
      ],
      "name": "Reborn",
      "type": "event"
    },
    {
      "anonymous": false,
      "inputs": [
        {
          "indexed": true,
          "internalType": "address",
          "name": "user",
          "type": "address"
        },
        {
          "indexed": true,
          "internalType": "address",
          "name": "sponsor",
          "type": "address"
        },
        {
          "indexed": true,
          "internalType": "address",
          "name": "binaryParent",
          "type": "address"
        },
        {
          "indexed": false,
          "internalType": "bool",
          "name": "placeLeft",
          "type": "bool"
        }
      ],
      "name": "Registered",
      "type": "event"
    },
    {
      "anonymous": false,
      "inputs": [
        {
          "indexed": true,
          "internalType": "address",
          "name": "to",
          "type": "address"
        },
        {
          "indexed": false,
          "internalType": "uint256",
          "name": "amount",
          "type": "uint256"
        }
      ],
      "name": "ReserveWithdraw",
      "type": "event"
    },
    {
      "anonymous": false,
      "inputs": [
        {
          "indexed": true,
          "internalType": "address",
          "name": "to",
          "type": "address"
        },
        {
          "indexed": true,
          "internalType": "address",
          "name": "from",
          "type": "address"
        },
        {
          "indexed": false,
          "internalType": "uint8",
          "name": "level",
          "type": "uint8"
        },
        {
          "indexed": false,
          "internalType": "uint256",
          "name": "usdtAmount",
          "type": "uint256"
        }
      ],
      "name": "StakeLevelIncomePaid",
      "type": "event"
    },
    {
      "anonymous": false,
      "inputs": [
        {
          "indexed": true,
          "internalType": "address",
          "name": "user",
          "type": "address"
        },
        {
          "indexed": false,
          "internalType": "uint256",
          "name": "stakeIndex",
          "type": "uint256"
        },
        {
          "indexed": false,
          "internalType": "uint256",
          "name": "usdtAmount",
          "type": "uint256"
        },
        {
          "indexed": false,
          "internalType": "uint256",
          "name": "mvtMinted",
          "type": "uint256"
        },
        {
          "indexed": false,
          "internalType": "bool",
          "name": "isLocked",
          "type": "bool"
        }
      ],
      "name": "Staked",
      "type": "event"
    },
    {
      "anonymous": false,
      "inputs": [
        {
          "indexed": true,
          "internalType": "address",
          "name": "user",
          "type": "address"
        },
        {
          "indexed": false,
          "internalType": "uint256",
          "name": "stakeIndex",
          "type": "uint256"
        },
        {
          "indexed": false,
          "internalType": "uint256",
          "name": "mvtReturned",
          "type": "uint256"
        },
        {
          "indexed": false,
          "internalType": "uint256",
          "name": "usdtReceived",
          "type": "uint256"
        },
        {
          "indexed": false,
          "internalType": "uint256",
          "name": "adminCapCut",
          "type": "uint256"
        }
      ],
      "name": "Unstaked",
      "type": "event"
    },
    {
      "anonymous": false,
      "inputs": [
        {
          "indexed": true,
          "internalType": "address",
          "name": "user",
          "type": "address"
        },
        {
          "indexed": false,
          "internalType": "uint256",
          "name": "amount",
          "type": "uint256"
        }
      ],
      "name": "UsdtWithdrawn",
      "type": "event"
    },
    {
      "inputs": [],
      "name": "ADMIN_ALLOC",
      "outputs": [
        {
          "internalType": "uint256",
          "name": "",
          "type": "uint256"
        }
      ],
      "stateMutability": "view",
      "type": "function"
    },
    {
      "inputs": [],
      "name": "BINARY_ALLOC",
      "outputs": [
        {
          "internalType": "uint256",
          "name": "",
          "type": "uint256"
        }
      ],
      "stateMutability": "view",
      "type": "function"
    },
    {
      "inputs": [],
      "name": "BTC_POOL_RATE",
      "outputs": [
        {
          "internalType": "uint256",
          "name": "",
          "type": "uint256"
        }
      ],
      "stateMutability": "view",
      "type": "function"
    },
    {
      "inputs": [],
      "name": "FLEX_CAP_MULT",
      "outputs": [
        {
          "internalType": "uint256",
          "name": "",
          "type": "uint256"
        }
      ],
      "stateMutability": "view",
      "type": "function"
    },
    {
      "inputs": [],
      "name": "INCOME_LIMIT",
      "outputs": [
        {
          "internalType": "uint256",
          "name": "",
          "type": "uint256"
        }
      ],
      "stateMutability": "view",
      "type": "function"
    },
    {
      "inputs": [],
      "name": "LEVEL_ALLOC",
      "outputs": [
        {
          "internalType": "uint256",
          "name": "",
          "type": "uint256"
        }
      ],
      "stateMutability": "view",
      "type": "function"
    },
    {
      "inputs": [],
      "name": "LOCK_DURATION",
      "outputs": [
        {
          "internalType": "uint256",
          "name": "",
          "type": "uint256"
        }
      ],
      "stateMutability": "view",
      "type": "function"
    },
    {
      "inputs": [],
      "name": "MIN_STAKE_USDT",
      "outputs": [
        {
          "internalType": "uint256",
          "name": "",
          "type": "uint256"
        }
      ],
      "stateMutability": "view",
      "type": "function"
    },
    {
      "inputs": [],
      "name": "PACKAGE_PRICE",
      "outputs": [
        {
          "internalType": "uint256",
          "name": "",
          "type": "uint256"
        }
      ],
      "stateMutability": "view",
      "type": "function"
    },
    {
      "inputs": [],
      "name": "activate",
      "outputs": [],
      "stateMutability": "nonpayable",
      "type": "function"
    },
    {
      "inputs": [],
      "name": "adminPool",
      "outputs": [
        {
          "internalType": "uint256",
          "name": "",
          "type": "uint256"
        }
      ],
      "stateMutability": "view",
      "type": "function"
    },
    {
      "inputs": [
        {
          "internalType": "uint256",
          "name": "",
          "type": "uint256"
        }
      ],
      "name": "allUsers",
      "outputs": [
        {
          "internalType": "address",
          "name": "",
          "type": "address"
        }
      ],
      "stateMutability": "view",
      "type": "function"
    },
    {
      "inputs": [],
      "name": "binaryPool",
      "outputs": [
        {
          "internalType": "uint256",
          "name": "",
          "type": "uint256"
        }
      ],
      "stateMutability": "view",
      "type": "function"
    },
    {
      "inputs": [
        {
          "internalType": "address",
          "name": "",
          "type": "address"
        }
      ],
      "name": "boardEntryCount",
      "outputs": [
        {
          "internalType": "uint256",
          "name": "",
          "type": "uint256"
        }
      ],
      "stateMutability": "view",
      "type": "function"
    },
    {
      "inputs": [],
      "name": "boardHandler",
      "outputs": [
        {
          "internalType": "contract IMvaultBoardMatrix",
          "name": "",
          "type": "address"
        }
      ],
      "stateMutability": "view",
      "type": "function"
    },
    {
      "inputs": [
        {
          "internalType": "address",
          "name": "_user",
          "type": "address"
        }
      ],
      "name": "canEnterBoard",
      "outputs": [
        {
          "internalType": "bool",
          "name": "eligible",
          "type": "bool"
        },
        {
          "internalType": "uint256",
          "name": "btcBalance",
          "type": "uint256"
        },
        {
          "internalType": "uint256",
          "name": "boardPrice",
          "type": "uint256"
        }
      ],
      "stateMutability": "view",
      "type": "function"
    },
    {
      "inputs": [
        {
          "internalType": "address",
          "name": "user",
          "type": "address"
        }
      ],
      "name": "canRebirth",
      "outputs": [
        {
          "internalType": "bool",
          "name": "eligible",
          "type": "bool"
        },
        {
          "internalType": "uint256",
          "name": "poolBalance",
          "type": "uint256"
        }
      ],
      "stateMutability": "view",
      "type": "function"
    },
    {
      "inputs": [
        {
          "internalType": "uint256",
          "name": "stakeIndex",
          "type": "uint256"
        }
      ],
      "name": "convertToLocked",
      "outputs": [],
      "stateMutability": "nonpayable",
      "type": "function"
    },
    {
      "inputs": [
        {
          "internalType": "address",
          "name": "_user",
          "type": "address"
        },
        {
          "internalType": "uint256",
          "name": "_usdtAmount",
          "type": "uint256"
        },
        {
          "internalType": "uint256",
          "name": "_boardLevel",
          "type": "uint256"
        }
      ],
      "name": "creditBoardReward",
      "outputs": [],
      "stateMutability": "nonpayable",
      "type": "function"
    },
    {
      "inputs": [
        {
          "internalType": "uint256",
          "name": "offset",
          "type": "uint256"
        },
        {
          "internalType": "uint256",
          "name": "limit",
          "type": "uint256"
        }
      ],
      "name": "distributeBinaryIncome",
      "outputs": [],
      "stateMutability": "nonpayable",
      "type": "function"
    },
    {
      "inputs": [
        {
          "internalType": "uint256",
          "name": "offset",
          "type": "uint256"
        },
        {
          "internalType": "uint256",
          "name": "limit",
          "type": "uint256"
        }
      ],
      "name": "distributePowerLeg",
      "outputs": [],
      "stateMutability": "nonpayable",
      "type": "function"
    },
    {
      "inputs": [],
      "name": "enterBoardPool",
      "outputs": [],
      "stateMutability": "nonpayable",
      "type": "function"
    },
    {
      "inputs": [
        {
          "internalType": "address",
          "name": "user",
          "type": "address"
        }
      ],
      "name": "getActiveStakes",
      "outputs": [
        {
          "internalType": "uint256[]",
          "name": "indices",
          "type": "uint256[]"
        },
        {
          "internalType": "uint256[]",
          "name": "mvtAmounts",
          "type": "uint256[]"
        },
        {
          "internalType": "uint256[]",
          "name": "usdtInvestedArr",
          "type": "uint256[]"
        },
        {
          "internalType": "uint256[]",
          "name": "stakedAts",
          "type": "uint256[]"
        },
        {
          "internalType": "uint256[]",
          "name": "lockedSinces",
          "type": "uint256[]"
        }
      ],
      "stateMutability": "view",
      "type": "function"
    },
    {
      "inputs": [],
      "name": "getAllUsersCount",
      "outputs": [
        {
          "internalType": "uint256",
          "name": "",
          "type": "uint256"
        }
      ],
      "stateMutability": "view",
      "type": "function"
    },
    {
      "inputs": [
        {
          "internalType": "uint256",
          "name": "_level",
          "type": "uint256"
        }
      ],
      "name": "getBoardCurrentIndex",
      "outputs": [
        {
          "internalType": "uint256",
          "name": "",
          "type": "uint256"
        }
      ],
      "stateMutability": "view",
      "type": "function"
    },
    {
      "inputs": [
        {
          "internalType": "uint256",
          "name": "_level",
          "type": "uint256"
        },
        {
          "internalType": "uint256",
          "name": "_index",
          "type": "uint256"
        }
      ],
      "name": "getBoardMatrixInfo",
      "outputs": [
        {
          "internalType": "address",
          "name": "owner",
          "type": "address"
        },
        {
          "internalType": "uint256",
          "name": "filledCount",
          "type": "uint256"
        },
        {
          "internalType": "bool",
          "name": "completed",
          "type": "bool"
        }
      ],
      "stateMutability": "view",
      "type": "function"
    },
    {
      "inputs": [
        {
          "internalType": "uint256",
          "name": "_level",
          "type": "uint256"
        }
      ],
      "name": "getBoardPrice",
      "outputs": [
        {
          "internalType": "uint256",
          "name": "",
          "type": "uint256"
        }
      ],
      "stateMutability": "view",
      "type": "function"
    },
    {
      "inputs": [
        {
          "internalType": "uint256",
          "name": "_level",
          "type": "uint256"
        }
      ],
      "name": "getBoardQueueLength",
      "outputs": [
        {
          "internalType": "uint256",
          "name": "",
          "type": "uint256"
        }
      ],
      "stateMutability": "view",
      "type": "function"
    },
    {
      "inputs": [
        {
          "internalType": "address",
          "name": "u",
          "type": "address"
        }
      ],
      "name": "getBtcPoolInfo",
      "outputs": [
        {
          "internalType": "uint256",
          "name": "btcPoolBalance",
          "type": "uint256"
        },
        {
          "internalType": "uint256",
          "name": "totalBtcEarned",
          "type": "uint256"
        }
      ],
      "stateMutability": "view",
      "type": "function"
    },
    {
      "inputs": [
        {
          "internalType": "address",
          "name": "u",
          "type": "address"
        }
      ],
      "name": "getCurrentBinaryPairs",
      "outputs": [
        {
          "internalType": "uint256",
          "name": "currentPairs",
          "type": "uint256"
        },
        {
          "internalType": "uint256",
          "name": "newPairs",
          "type": "uint256"
        }
      ],
      "stateMutability": "view",
      "type": "function"
    },
    {
      "inputs": [],
      "name": "getLockDuration",
      "outputs": [
        {
          "internalType": "uint256",
          "name": "",
          "type": "uint256"
        }
      ],
      "stateMutability": "pure",
      "type": "function"
    },
    {
      "inputs": [],
      "name": "getMvtContractBalance",
      "outputs": [
        {
          "internalType": "uint256",
          "name": "",
          "type": "uint256"
        }
      ],
      "stateMutability": "view",
      "type": "function"
    },
    {
      "inputs": [],
      "name": "getMvtPrice",
      "outputs": [
        {
          "internalType": "uint256",
          "name": "buyPrice",
          "type": "uint256"
        },
        {
          "internalType": "uint256",
          "name": "sellPrice",
          "type": "uint256"
        }
      ],
      "stateMutability": "view",
      "type": "function"
    },
    {
      "inputs": [],
      "name": "getPoolBalances",
      "outputs": [
        {
          "internalType": "uint256",
          "name": "binary",
          "type": "uint256"
        },
        {
          "internalType": "uint256",
          "name": "reserve",
          "type": "uint256"
        },
        {
          "internalType": "uint256",
          "name": "admin",
          "type": "uint256"
        }
      ],
      "stateMutability": "view",
      "type": "function"
    },
    {
      "inputs": [
        {
          "internalType": "address",
          "name": "_user",
          "type": "address"
        }
      ],
      "name": "getProfile",
      "outputs": [
        {
          "internalType": "string",
          "name": "displayName",
          "type": "string"
        },
        {
          "internalType": "string",
          "name": "email",
          "type": "string"
        },
        {
          "internalType": "string",
          "name": "phone",
          "type": "string"
        },
        {
          "internalType": "string",
          "name": "country",
          "type": "string"
        },
        {
          "internalType": "bool",
          "name": "profileSet",
          "type": "bool"
        }
      ],
      "stateMutability": "view",
      "type": "function"
    },
    {
      "inputs": [
        {
          "internalType": "address",
          "name": "user",
          "type": "address"
        },
        {
          "internalType": "uint256",
          "name": "index",
          "type": "uint256"
        }
      ],
      "name": "getStake",
      "outputs": [
        {
          "internalType": "uint256",
          "name": "mvtAmount",
          "type": "uint256"
        },
        {
          "internalType": "uint256",
          "name": "usdtInvested",
          "type": "uint256"
        },
        {
          "internalType": "uint256",
          "name": "stakedAt",
          "type": "uint256"
        },
        {
          "internalType": "uint256",
          "name": "lockedSince",
          "type": "uint256"
        },
        {
          "internalType": "bool",
          "name": "active",
          "type": "bool"
        }
      ],
      "stateMutability": "view",
      "type": "function"
    },
    {
      "inputs": [
        {
          "internalType": "address",
          "name": "user",
          "type": "address"
        }
      ],
      "name": "getStakeCount",
      "outputs": [
        {
          "internalType": "uint256",
          "name": "",
          "type": "uint256"
        }
      ],
      "stateMutability": "view",
      "type": "function"
    },
    {
      "inputs": [
        {
          "internalType": "address",
          "name": "_user",
          "type": "address"
        }
      ],
      "name": "getUserBoardStats",
      "outputs": [
        {
          "internalType": "uint256",
          "name": "entries",
          "type": "uint256"
        },
        {
          "internalType": "uint256",
          "name": "totalRewards",
          "type": "uint256"
        }
      ],
      "stateMutability": "view",
      "type": "function"
    },
    {
      "inputs": [
        {
          "internalType": "address",
          "name": "u",
          "type": "address"
        }
      ],
      "name": "getUserInfo",
      "outputs": [
        {
          "internalType": "bool",
          "name": "isRegistered",
          "type": "bool"
        },
        {
          "internalType": "bool",
          "name": "isActive",
          "type": "bool"
        },
        {
          "internalType": "address",
          "name": "sponsor",
          "type": "address"
        },
        {
          "internalType": "uint256",
          "name": "directCount",
          "type": "uint256"
        },
        {
          "internalType": "address",
          "name": "binaryParent",
          "type": "address"
        },
        {
          "internalType": "bool",
          "name": "placedLeft",
          "type": "bool"
        },
        {
          "internalType": "address",
          "name": "leftChild",
          "type": "address"
        },
        {
          "internalType": "address",
          "name": "rightChild",
          "type": "address"
        },
        {
          "internalType": "uint256",
          "name": "leftSubUsers",
          "type": "uint256"
        },
        {
          "internalType": "uint256",
          "name": "rightSubUsers",
          "type": "uint256"
        },
        {
          "internalType": "uint256",
          "name": "mvtBalance",
          "type": "uint256"
        },
        {
          "internalType": "uint256",
          "name": "totalReceived",
          "type": "uint256"
        },
        {
          "internalType": "uint256",
          "name": "totalSold",
          "type": "uint256"
        },
        {
          "internalType": "uint256",
          "name": "incomeLimit",
          "type": "uint256"
        },
        {
          "internalType": "uint256",
          "name": "usdtBalance",
          "type": "uint256"
        },
        {
          "internalType": "uint256",
          "name": "rebirthPool",
          "type": "uint256"
        },
        {
          "internalType": "uint256",
          "name": "btcPoolBalance",
          "type": "uint256"
        },
        {
          "internalType": "uint256",
          "name": "powerLegPoints",
          "type": "uint256"
        },
        {
          "internalType": "uint256",
          "name": "matchedPairs",
          "type": "uint256"
        },
        {
          "internalType": "address",
          "name": "mainAccount",
          "type": "address"
        },
        {
          "internalType": "uint256",
          "name": "rebirthCount",
          "type": "uint256"
        },
        {
          "internalType": "uint256",
          "name": "joinedAt",
          "type": "uint256"
        }
      ],
      "stateMutability": "view",
      "type": "function"
    },
    {
      "inputs": [],
      "name": "mvaultToken",
      "outputs": [
        {
          "internalType": "contract IMvaultToken",
          "name": "",
          "type": "address"
        }
      ],
      "stateMutability": "view",
      "type": "function"
    },
    {
      "inputs": [],
      "name": "owner",
      "outputs": [
        {
          "internalType": "address",
          "name": "",
          "type": "address"
        }
      ],
      "stateMutability": "view",
      "type": "function"
    },
    {
      "inputs": [
        {
          "internalType": "address",
          "name": "subAccount",
          "type": "address"
        },
        {
          "internalType": "bool",
          "name": "placeLeft",
          "type": "bool"
        }
      ],
      "name": "rebirth",
      "outputs": [],
      "stateMutability": "nonpayable",
      "type": "function"
    },
    {
      "inputs": [
        {
          "internalType": "address",
          "name": "sponsor",
          "type": "address"
        },
        {
          "internalType": "address",
          "name": "binaryParent",
          "type": "address"
        },
        {
          "internalType": "bool",
          "name": "placeLeft",
          "type": "bool"
        }
      ],
      "name": "register",
      "outputs": [],
      "stateMutability": "nonpayable",
      "type": "function"
    },
    {
      "inputs": [],
      "name": "renounceOwnership",
      "outputs": [],
      "stateMutability": "nonpayable",
      "type": "function"
    },
    {
      "inputs": [],
      "name": "reservePool",
      "outputs": [
        {
          "internalType": "uint256",
          "name": "",
          "type": "uint256"
        }
      ],
      "stateMutability": "view",
      "type": "function"
    },
    {
      "inputs": [
        {
          "internalType": "uint256",
          "name": "amount",
          "type": "uint256"
        }
      ],
      "name": "sellMvt",
      "outputs": [],
      "stateMutability": "nonpayable",
      "type": "function"
    },
    {
      "inputs": [
        {
          "internalType": "address",
          "name": "_boardHandler",
          "type": "address"
        }
      ],
      "name": "setBoardHandler",
      "outputs": [],
      "stateMutability": "nonpayable",
      "type": "function"
    },
    {
      "inputs": [
        {
          "internalType": "address",
          "name": "_mvaultToken",
          "type": "address"
        }
      ],
      "name": "setMvaultToken",
      "outputs": [],
      "stateMutability": "nonpayable",
      "type": "function"
    },
    {
      "inputs": [
        {
          "internalType": "string",
          "name": "_displayName",
          "type": "string"
        },
        {
          "internalType": "string",
          "name": "_email",
          "type": "string"
        },
        {
          "internalType": "string",
          "name": "_phone",
          "type": "string"
        },
        {
          "internalType": "string",
          "name": "_country",
          "type": "string"
        }
      ],
      "name": "setProfile",
      "outputs": [],
      "stateMutability": "nonpayable",
      "type": "function"
    },
    {
      "inputs": [
        {
          "internalType": "uint256",
          "name": "usdtAmount",
          "type": "uint256"
        },
        {
          "internalType": "bool",
          "name": "isLocked",
          "type": "bool"
        }
      ],
      "name": "stake",
      "outputs": [],
      "stateMutability": "nonpayable",
      "type": "function"
    },
    {
      "inputs": [
        {
          "internalType": "address",
          "name": "",
          "type": "address"
        }
      ],
      "name": "totalBoardRewardsEarned",
      "outputs": [
        {
          "internalType": "uint256",
          "name": "",
          "type": "uint256"
        }
      ],
      "stateMutability": "view",
      "type": "function"
    },
    {
      "inputs": [],
      "name": "totalUsers",
      "outputs": [
        {
          "internalType": "uint256",
          "name": "",
          "type": "uint256"
        }
      ],
      "stateMutability": "view",
      "type": "function"
    },
    {
      "inputs": [
        {
          "internalType": "address",
          "name": "newOwner",
          "type": "address"
        }
      ],
      "name": "transferOwnership",
      "outputs": [],
      "stateMutability": "nonpayable",
      "type": "function"
    },
    {
      "inputs": [
        {
          "internalType": "uint256",
          "name": "stakeIndex",
          "type": "uint256"
        }
      ],
      "name": "unstake",
      "outputs": [],
      "stateMutability": "nonpayable",
      "type": "function"
    },
    {
      "inputs": [],
      "name": "usdtToken",
      "outputs": [
        {
          "internalType": "contract IERC20",
          "name": "",
          "type": "address"
        }
      ],
      "stateMutability": "view",
      "type": "function"
    },
    {
      "inputs": [
        {
          "internalType": "address",
          "name": "",
          "type": "address"
        }
      ],
      "name": "users",
      "outputs": [
        {
          "internalType": "bool",
          "name": "isRegistered",
          "type": "bool"
        },
        {
          "internalType": "bool",
          "name": "isActive",
          "type": "bool"
        },
        {
          "internalType": "address",
          "name": "sponsor",
          "type": "address"
        },
        {
          "internalType": "uint256",
          "name": "directCount",
          "type": "uint256"
        },
        {
          "internalType": "address",
          "name": "binaryParent",
          "type": "address"
        },
        {
          "internalType": "bool",
          "name": "placedLeft",
          "type": "bool"
        },
        {
          "internalType": "address",
          "name": "leftChild",
          "type": "address"
        },
        {
          "internalType": "address",
          "name": "rightChild",
          "type": "address"
        },
        {
          "internalType": "uint256",
          "name": "leftSubUsers",
          "type": "uint256"
        },
        {
          "internalType": "uint256",
          "name": "rightSubUsers",
          "type": "uint256"
        },
        {
          "internalType": "uint256",
          "name": "matchedPairs",
          "type": "uint256"
        },
        {
          "internalType": "uint256",
          "name": "mvtBalance",
          "type": "uint256"
        },
        {
          "internalType": "uint256",
          "name": "totalReceived",
          "type": "uint256"
        },
        {
          "internalType": "uint256",
          "name": "totalSold",
          "type": "uint256"
        },
        {
          "internalType": "uint256",
          "name": "incomeLimit",
          "type": "uint256"
        },
        {
          "internalType": "uint256",
          "name": "usdtBalance",
          "type": "uint256"
        },
        {
          "internalType": "uint256",
          "name": "rebirthPool",
          "type": "uint256"
        },
        {
          "internalType": "uint256",
          "name": "totalUsdtEarned",
          "type": "uint256"
        },
        {
          "internalType": "uint256",
          "name": "btcPoolBalance",
          "type": "uint256"
        },
        {
          "internalType": "uint256",
          "name": "totalBtcEarned",
          "type": "uint256"
        },
        {
          "internalType": "uint256",
          "name": "powerLegPoints",
          "type": "uint256"
        },
        {
          "internalType": "address",
          "name": "mainAccount",
          "type": "address"
        },
        {
          "internalType": "uint256",
          "name": "rebirthCount",
          "type": "uint256"
        },
        {
          "internalType": "uint256",
          "name": "joinedAt",
          "type": "uint256"
        },
        {
          "internalType": "string",
          "name": "displayName",
          "type": "string"
        },
        {
          "internalType": "string",
          "name": "email",
          "type": "string"
        },
        {
          "internalType": "string",
          "name": "phone",
          "type": "string"
        },
        {
          "internalType": "string",
          "name": "country",
          "type": "string"
        },
        {
          "internalType": "bool",
          "name": "profileSet",
          "type": "bool"
        }
      ],
      "stateMutability": "view",
      "type": "function"
    },
    {
      "inputs": [
        {
          "internalType": "address",
          "name": "to",
          "type": "address"
        },
        {
          "internalType": "uint256",
          "name": "amount",
          "type": "uint256"
        }
      ],
      "name": "withdrawAdminPool",
      "outputs": [],
      "stateMutability": "nonpayable",
      "type": "function"
    },
    {
      "inputs": [
        {
          "internalType": "uint256",
          "name": "amount",
          "type": "uint256"
        }
      ],
      "name": "withdrawBtcPool",
      "outputs": [],
      "stateMutability": "nonpayable",
      "type": "function"
    },
    {
      "inputs": [
        {
          "internalType": "address",
          "name": "to",
          "type": "address"
        },
        {
          "internalType": "uint256",
          "name": "amount",
          "type": "uint256"
        }
      ],
      "name": "withdrawReservePool",
      "outputs": [],
      "stateMutability": "nonpayable",
      "type": "function"
    },
    {
      "inputs": [
        {
          "internalType": "uint256",
          "name": "amount",
          "type": "uint256"
        }
      ],
      "name": "withdrawUsdt",
      "outputs": [],
      "stateMutability": "nonpayable",
      "type": "function"
    }
  ],
  "bytecode": "0x60a0346200017c57601f620051d638819003918201601f19168301916001600160401b03831184841017620001815780849260409485528339810103126200017c576200005a6020620000528362000197565b920162000197565b90331562000163576000549160018060a01b03199233848216176000556040519060018060a01b03938491823391167f8be0079c531659141344cd1fd0a4f28419497f9722a3daafe3b4186f6b6457e0600080a360017f9b779b17422d0df92223018b32b4d1fa46e071723d6817e2486d003becc55f005516908115801562000158575b620001495750608052169060015416176001556040516150299081620001ad823960805181818161077a01528181610ae801528181610df801528181610f4d015281816111cc0152818161194b015281816125e20152818161306f01528181613a5901526140710152f35b63d92e233d60e01b8152600490fd5b5083831615620000de565b604051631e4fbdf760e01b815260006004820152602490fd5b600080fd5b634e487b7160e01b600052604160045260246000fd5b51906001600160a01b03821682036200017c5756fe61032080604052600436101561001457600080fd5b600090813560e01c9081630266f04414613b5557508063039ccc2614613b3157806303c3ecb714613aeb5780630f15f4c0146139ef5780630f53a4701461392f5780631747e0b0146137505780631ce5e894146136de5780631f6259d5146136b55780632335821b1461367c5780632808bc8d146135b85780632d641f081461357b5780632e17de7814612f7457806338abfc4114612f565780633ac272c214612f375780633ccb13d314612f1b57806344e374d514610d6a57806347cd519114612efc578063485d38341461098c5780634b3f0d4514612e3357806352375bb114612e0457806355509c8f14612884578063634f627e1461255c5780636386c1c71461239357806368ddb2b5146122bb578063715018a6146122735780637753784414610d6a5780637f1b4064146122555780638431fdd7146122315780638a8f042914611fec5780638da5cb5b14611fc557806392446e3014611fa957806394915dd014611cca5780639499a35114611c91578063a2bdedf414611c4d578063a87430ba1461197a578063a98ad46c14611935578063aa33f5d5146115c3578063aa3937571461159f578063abe50f1914610ebd578063b58e027814610d8d578063b86a1fb214610d6f578063be648bdb14610d6a578063bff1f9e114610d4c578063c9d484cf14610d23578063ce8292f514610c8f578063cf57ee6914610c56578063cfd4766314610bca578063d3635a0214610a7d578063d4a90286146109ab578063e239c4001461098c578063e3ba9bda14610922578063e4093a66146106bc578063e51cb5301461066e578063eb63e1c214610647578063ec50324a14610548578063f00b00931461050f578063f0b7b9dc146103ed578063f24c536a14610374578063f2fde38b146102fe5763fb72ca35146102b657600080fd5b346102fb5760203660031901126102fb576040906001600160a01b036102da613b71565b168152600b602052818082205491600c602052205482519182526020820152f35b80fd5b50346102fb5760203660031901126102fb57610318613b71565b610320613dcb565b6001600160a01b0390811690811561035b576000548260018060a01b031982161760005516600080516020614f74833981519152600080a380f35b604051631e4fbdf760e01b815260048101849052602490fd5b50346102fb5760203660031901126102fb576040906001600160a01b03610399613b71565b1681526003602052818120906007600583015460068401548082106000146103e55750925b0154808311156103df576103d3915082613e30565b82519182526020820152f35b506103d3565b9050926103be565b50346102fb5760603660031901126102fb57610407613b71565b60243590610413613e8a565b6002546001600160a01b039190821633036104d6577f2393acb59b41dd645f68fe97bab0deba2a21b99efc69761e9b2762f11bbbe79d91604091169261045a841515613eba565b610465811515613eba565b8385526003602052600c8286200161047e828254613eeb565b90558385526003602052600e82862001610499828254613eeb565b9055838552600c6020528185206104b1828254613eeb565b905581519081526044356020820152a26001600080516020614fd48339815191525580f35b60405162461bcd60e51b81526020600482015260116024820152702737ba103137b0b932103430b7323632b960791b6044820152606490fd5b50346102fb5760203660031901126102fb576020906040906001600160a01b03610537613b71565b168152600b83522054604051908152f35b50346102fb5760403660031901126102fb57610562613b71565b6024359061056e613dcb565b6001600160a01b0316908115610635576007548181106105f957816105b67f0529afc4538720fe0b3eadc40486369ab962002d72fead1387b300c66073e7bf93602093613e30565b60075583855260038252600860408620016105d2828254613eeb565b905583855260038252600960408620016105ed828254613eeb565b9055604051908152a280f35b60405162461bcd60e51b8152602060048201526014602482015273115e18d959591cc81c995cd95c9d99481c1bdbdb60621b6044820152606490fd5b60405163d92e233d60e01b8152600490fd5b50346102fb5760203660031901126102fb576020610666600435614e04565b604051908152f35b50346102fb5760203660031901126102fb57604090600d9082906001600160a01b03610698613b71565b168152600360205220015481519068070c1cc73b00c8000081101582526020820152f35b50346102fb57806003193601126102fb576106d5613e8a565b6002546001600160a01b03908116908115610910576024903384526020926003845283604086209161070d60ff845460081c16613df7565b6040516347cd519160e01b81526001600482015294859182905afa9283156108be5785936108db575b50600f0180548381106108c9578361074d91613e30565b905561077483838360025416604051938492839263a9059cbb60e01b845260048401613e60565b038188867f0000000000000000000000000000000000000000000000000000000000000000165af19081156108be578591610885575b5015610873578390338252600b8452604082206107c78154613e7b565b905560025416803b1561086f5781809160446040518094819363686a38bd60e01b8352336004840152600160248401525af180156108645761084c575b505060405191600183528201527f4e755dd64e53a9f7a5882e2e32eb64718c2273de11e017bd47129b9fe2716d7c60403392a26001600080516020614fd48339815191525580f35b61085590613cef565b610860578238610804565b8280fd5b6040513d84823e3d90fd5b5080fd5b6040516312171d8360e31b8152600490fd5b90508381813d83116108b7575b61089c8183613d02565b810103126108b3576108ad90613e53565b386107aa565b8480fd5b503d610892565b6040513d87823e3d90fd5b604051630856d68760e11b8152600490fd5b9092508381813d8311610909575b6108f38183613d02565b81010312610904575191600f610736565b600080fd5b503d6108e9565b60405163632100f760e11b8152600490fd5b50346102fb5760203660031901126102fb5761093c613b71565b610944613dcb565b6001600160a01b0316801561063557600280546001600160a01b031916821790557f49424f87d81e4374ee3e8d1cf7b880966981a3cf6a7ac1d7a66c13d91756fccc8280a280f35b50346102fb57806003193601126102fb57602060405163018b82008152f35b50346102fb576109ba36613bfb565b90606060018060a01b039260448460025416936040519485938492636a54814360e11b8452600484015260248301525afa908115610a7257839284918593610a17575b506060945060405193168352602083015215156040820152f35b93509150506060823d8211610a6a575b81610a3460609383613d02565b810103126108605781518181168103610a665760609350610a5c604060208501519401613e53565b90929091386109fd565b8380fd5b3d9150610a27565b6040513d85823e3d90fd5b50346102fb5760208060031936011261086f5760043590610a9c613e8a565b8115610bb85733835260038152600c60408420018054838110610ba65783610ac391613e30565b905560405163a9059cbb60e01b8152818180610ae3863360048401613e60565b0381877f00000000000000000000000000000000000000000000000000000000000000006001600160a01b03165af1908115610b9b578491610b66575b5015610873577fbdd3f02d2a57fb53c1156f98470b61cb60712d485c27c36a49b1263dabcde201906040519283523392a26001600080516020614fd48339815191525580f35b90508181813d8311610b94575b610b7d8183613d02565b81010312610a6657610b8e90613e53565b38610b20565b503d610b73565b6040513d86823e3d90fd5b60405163b55c1bad60e01b8152600490fd5b604051631f2a200560e01b8152600490fd5b50346102fb5760403660031901126102fb57610c1b60a0916040610bec613b71565b9160243592600180871b0316808252600d602052610c0e838320548510614d06565b8152600d60205220614cea565b50805490600181015490600281015460ff60046003840154930154169260405194855260208501526040840152606083015215156080820152f35b50346102fb5760203660031901126102fb576020906040906001600160a01b03610c7e613b71565b168152600d83522054604051908152f35b50346102fb57806003193601126102fb576001546040516370a0823160e01b81523060048201529190602090839060249082906001600160a01b03165afa908115610d175790610ce5575b602090604051908152f35b506020813d8211610d0f575b81610cfe60209383613d02565b810103126109045760209051610cda565b3d9150610cf1565b604051903d90823e3d90fd5b50346102fb57806003193601126102fb576002546040516001600160a01b039091168152602090f35b50346102fb57806003193601126102fb576020600554604051908152f35b613c11565b50346102fb57806003193601126102fb576020600854604051908152f35b50346102fb5760208060031936011261086f5760043590610dac613e8a565b8115610bb85733835260038152600f60408420018054838110610eab5783610dd391613e30565b905560405163a9059cbb60e01b8152818180610df3863360048401613e60565b0381877f00000000000000000000000000000000000000000000000000000000000000006001600160a01b03165af1908115610b9b578491610e76575b5015610873577f12701e4764b73009ab9826933c421483e4280410091fcc760515e0fa99fa766b906040519283523392a26001600080516020614fd48339815191525580f35b90508181813d8311610ea4575b610e8d8183613d02565b81010312610a6657610e9e90613e53565b38610e30565b503d610e83565b604051636dae861760e11b8152600490fd5b50346102fb5760403660031901126102fb57610ed7613c5a565b610edf613e8a565b6802b5e3af16b188000060043510611566573382526003602052610f0960ff604084205416614c59565b338252600360205260ff604083205460081c1615611531576040516323b872dd60e01b815233600480830191909152306024830152356044820152602081606481867f00000000000000000000000000000000000000000000000000000000000000006001600160a01b03165af18015610a725783906114f6575b610f8e9150614c96565b60405191610f9b83613cd4565b600a8352600260208401526001604084015260016060840152600160808401523381526003602052604081205460018060a01b039060101c16819382915b600560ff8416101561115a57606461100260ff610ff881871686614cd9565b5116600435613f97565b04801561111c576001600160a01b0382161580156110f9575b1561105b5761102c90600854613eeb565b6008555b6001600160a01b0390811684526003602052604084205460101c1691611055906144ea565b91610fd9565b958661108a9160018060a01b03841687526003602052600c6040882001611083838254613eeb565b9055613eeb565b9560ff600181861601116110e55760405133916001600160a01b038416917fc8c0cc32a736135fa3c2a3c467849cd282797396bc67d2d5326f7e161e601c1d9181906110dd9060ff8a16600101836144fb565b0390a3611030565b634e487b7160e01b85526011600452602485fd5b506001600160a01b03821685526003602052604085205460081c60ff161561101b565b50916001600160a01b03831680611138575b50611055906144ea565b84526003602052604084205460101c6001600160a01b0316925061105561112e565b50505091600f600435026004358104600f146004351517156114e25790611188606461119793049182613e30565b806114cd575b50600435613e30565b60015460405163095ea7b360e01b815290602090829081906111c79086906001600160a01b031660048401613e60565b0381877f00000000000000000000000000000000000000000000000000000000000000006001600160a01b03165af18015610b9b57611494575b506001546040516370a0823160e01b8082523060048301529290918591906001600160a01b0316602084602481845afa938415610a7257839461145d575b50803b1561086057604051634e538d9360e11b8152918391839182908490829061126d903060048401613e60565b03925af1801561086457611449575b5050600154604051928352306004840152602090839060249082906001600160a01b03165afa8015610b9b578490611415575b6112b99250613e30565b9081156113e057338352600d602052604083208054929082156113d95742905b604051916112e683613cd4565b8383526004356020840152426040840152606083015260016080830152600160401b8510156113c5578461131f91600182018155614cea565b6113b15760046080918351815560208401516001820155604084015160028201556060840151600382015501910151151560ff8019835416911617905560405192835260043560208401526040830152151560608201527f830141583677d950fe61a27b93001edff66b597c666b2c90f5fb6e79a4befd0e60803392a26001600080516020614fd48339815191525580f35b634e487b7160e01b86526004869052602486fd5b634e487b7160e01b86526041600452602486fd5b84906112d9565b60405162461bcd60e51b815260206004820152600d60248201526c139bc8135595081b5a5b9d1959609a1b6044820152606490fd5b506020823d602011611441575b8161142f60209383613d02565b81010312610904576112b991516112af565b3d9150611422565b61145290613cef565b610a6657833861127c565b925092506020823d60201161148c575b8161147a60209383613d02565b8101031261090457859151923861123f565b3d915061146d565b6020813d6020116114c5575b816114ad60209383613d02565b81010312610a66576114be90613e53565b5038611201565b3d91506114a0565b6114d990600854613eeb565b6008553861118e565b634e487b7160e01b84526011600452602484fd5b506020813d602011611529575b8161151060209383613d02565b8101031261086057611524610f8e91613e53565b610f84565b3d9150611503565b60405162461bcd60e51b815260206004820152600d60248201526c139bdd081858dd1a5d985d1959609a1b6044820152606490fd5b60405162461bcd60e51b815260206004820152601160248201527042656c6f7720243530206d696e696d756d60781b6044820152606490fd5b50346102fb57806003193601126102fb5760206040516815245655b1025800008152f35b50346102fb5760603660031901126102fb576115dd613b71565b6024356001600160a01b03811690036109045760443515156044350361090457338252600360205260ff6040832054166119235760055461170a57336000908152600360205260409020805461ff01600160b01b03191660011781556002810180546001600160a81b03191690556012810180546001600160a01b031916905542601490910155600454600160401b8110156116f4578060016116839201600455613c69565b81546001600160a01b0360039290921b91821b19163390911b1790556005546116ab90613e7b565b6005555b604051604435151581526001600160a01b03602435811692169033907f34ff37874d7443037a85c6f390fe14f2ae3e8767355de0e63891ad4367c2753990602090a480f35b634e487b7160e01b600052604160045260246000fd5b6001600160a01b0381168083526003602052604083205460ff1615611911576024356001600160a01b03161515806118f0575b156118ea576024355b604435806118c7575b6118925760443515806118a4575b61189257336000908152600360205260409020805461ff01600160b01b031916601085901b62010000600160b01b03161760011781556002810180546001600160a81b0319166001600160a01b03909316928317604435151560a01b60ff60a01b161790556012810180546001600160a01b031990811690915542601490920191909155600454909190600160401b8110156116f4578060016118039201600455613c69565b81546001600160a01b0360039290921b91821b19163390911b17905560055461182b90613e7b565b600555604435156118765784526003602052600360408520019033908254161790555b82526003602052600160408320016118668154613e7b565b905561187133613ef8565b6116af565b845260036020526004604085200190339082541617905561184e565b60405163d5dd5c3d60e01b8152600490fd5b506001600160a01b0381811685526003602052604085206004015416151561175d565b506001600160a01b0381811685526003602081905260408620015416151561174f565b81611746565b506024356001600160a01b031683526003602052604083205460ff1661173d565b604051632f212e0d60e11b8152600490fd5b604051630ea075bf60e21b8152600490fd5b50346102fb57806003193601126102fb576040517f00000000000000000000000000000000000000000000000000000000000000006001600160a01b03168152602090f35b50346102fb5760203660031901126102fb576040906001600160a01b0361199f613b71565b1681526003602052208061028052808080808080808080808080611a636015600f600e600d600c600b600a600960086007600660058d549d60018101546101e05260028101546101005260018060a01b0360038201541661030052600460018060a01b03910154169e01549e01549e01549e01549e01549e01549e01549e01549e01549e01549e01549e601081015461024052601181015460a05260018060a01b036012820154166101a05260138101546102605260148101546102205201613d25565b6102c052611a7660166102805101613d25565b6101c052611a8960176102805101613d25565b608052611a9b60186102805101613d25565b6101205260ff6019610280510154166102e052604051806101805260ff82161515905260ff8160081c161515602061018051015260018060a01b039060101c1660406101805101526101e051606061018051015260018060a01b036101005116608061018051015260ff6101005160a01c16151560a06101805101526103005160c061018051015260e0610180510152610100610180510152610120610180510152610140610180510152610160610180510152610180805101526101a06101805101526101c06101805101526101e06101805101526102006101805101526102206101805101526102406101805101526102405161026061018051015260a0516102806101805101526101a0516102a0610180510152610260516102c0610180510152610220516102e0610180510152611c34611c1e611c09611bf36103a08061030061018051015261018051016102c051613b87565b610180516103208183039101526101c051613b87565b61018051610340818303910152608051613b87565b6101805161036081830391015261012051613b87565b6102e05115156103806101805101526101805180910390f35b50346102fb5760203660031901126102fb57600435906004548210156102fb576020611c7883613c69565b905460405160039290921b1c6001600160a01b03168152f35b50346102fb5760203660031901126102fb576060611cb5611cb0613b71565b614e88565b90604051921515835260208301526040820152f35b50346102fb5760403660031901126102fb57611ce4613b71565b611cec613c5a565b90611cf5613e8a565b6001600160a01b0381811692908315610635573385526003926020938085526040872091825491611d2b60ff8460081c16613df7565b600d840180549068070c1cc73b00c80000808310611f97578a8c52838a5260ff60408d205416611f525768070c1cc73b00c7ffff198301928311611f3e57808310611f3357611d7b908093613e30565b9055600c8501611d8c828254613eeb565b9055611d9d600e8601918254613eeb565b90556815245655b102580000600b850155611dbe858460101c16963361469d565b60008a8152838a5260409020805461ff01600160b01b03191662010000600160b01b039096169590951760011785556002850180546001600160a81b03191692881692831782151560a01b60ff60a01b161790556012850180546001600160a01b0319908116331790915542601490960195909555600454909790949091600160401b8610156116f4577f30016ed357540281a6cff6143637e72b48e105d85d15df66b0aaffbd23790240986013988c611e81896001611ecf9b01600455613c69565b9092835491891b92831b921b1916179055611e9d600554613e7b565b60055515611f1a578b52828952898360408d2001918254161790555b80611efc575b5050611eca81613ef8565b613fee565b0191611edb8354613e7b565b8093556040519283523392a36001600080516020614fd48339815191525580f35b8952865260016040892001611f118154613e7b565b90553880611ebf565b8b5282895289600460408d200191825416179055611eb9565b50611d7b8280613e30565b634e487b7160e01b8c52601160045260248cfd5b60405162461bcd60e51b8152600481018b9052601e60248201527f5375622d6163636f756e7420616c7265616479207265676973746572656400006044820152606490fd5b6040516307db32bd60e31b8152600490fd5b50346102fb57806003193601126102fb576020604051600a8152f35b50346102fb57806003193601126102fb57546040516001600160a01b039091168152602090f35b50346102fb57611ffb36613bfb565b612003613dcb565b61200b613e8a565b60ff600a54161561221f576120209082613eeb565b600454808211612217575b508290825b8181106121d75750600990815493831515806121ce575b156121b657805b8281106120f35750908592915b8181106120b557837f7f4a5b69bea14a6fc05326671a02e90d4a88855c83a18529c260057b1bf61a856040888884885560ff19600a5416600a5582519182526020820152a16001600080516020614fd48339815191525580f35b6120ea919293506120c581613c69565b9054600391821b1c6001600160a01b0316885260205260408720601101879055613e7b565b9085929161205b565b8086886121026121a494613c69565b9054600391821b1c6001600160a01b031680835260208281526040842060110154919492908a8c84156121a9577fb05abf391bcc5d117d31727729f0da5b0e3eb5f91a478372995efa128696c4069661216860409792612163888a95613f97565b613faa565b94898252808552600883832001612180878254613eeb565b905589825284522001612194838254613eeb565b90558351928352820152a2613e7b565b61204e565b5050505050505050613e7b565b6121c285600854613eeb565b6008559085929161205b565b50841515612047565b9161220c612212916121e885613c69565b9054600391821b1c6001600160a01b03168852602052604087206011015490613eeb565b92613e7b565b612030565b90503861202b565b60405163418826bf60e11b8152600490fd5b50346102fb57806003193601126102fb5760206040516802b5e3af16b18800008152f35b50346102fb57806003193601126102fb576020600654604051908152f35b50346102fb57806003193601126102fb5761228c613dcb565b600080546001600160a01b0319811682556001600160a01b0316600080516020614f748339815191528280a380f35b50346102fb57806003193601126102fb57600154604051623144bd60e31b81526001600160a01b039091169160208083600481875afa928315610864578293612362575b5080600494604051958680926310f4cba760e21b82525afa918215610d175791612332575b604080945051928352820152f35b80915083813d831161235b575b6123498183613d02565b81010312610904576040925190612324565b503d61233f565b9392508084813d831161238c575b61237a8183613d02565b810103126109045792519192806122ff565b503d612370565b50346102fb5760203660031901126102fb576040906001600160a01b036123b8613b71565b1681526003602052208080808080808080808080808054600182015461014052600282015460c052601460076011600f600d600c600b600a60096008600660058d600360018060a01b03910154169d600460018060a01b03910154169e01549e01549e01549e01549e01549e01549e01549e01549e01549e01549e01549e60018060a01b0360128201541661020052601381015460e05201546102a052604051806101605260ff82161515905260ff8160081c161515602061016051015260018060a01b039060101c16604061016051015261014051606061016051015260018060a01b0360c05116608061016051015260ff60c05160a01c16151560a061016051015260c061016051015260e0610160510152610100610160510152610120610160510152610140610160510152610160805101526101806101605101526101a06101605101526101c06101605101526101e06101605101526102006101605101526102206101605101526102406101605101526102005161026061016051015260e0516102806101605101526102a0516102a06101605101526102c061016051f35b50346102fb5760208060031936011261086f576004359061257b613e8a565b8115610bb85733835260038152604083209060ff825460081c16156128725760088201805484811061286057846125b191613e30565b9055600a82016125c2848254613eeb565b90556040516370a0823160e01b8082523060048301526001600160a01b037f00000000000000000000000000000000000000000000000000000000000000008116929187918584602481885afa938415610a7257839461282d575b5060015416803b15610860578280916024604051809681936372424d9960e11b83528d60048401525af1928315612820578693612803575b505060246040518095819382523060048301525afa80156127f85786906127c9575b6126819250613e30565b91600a8302838104600a14841517156127b5577f8f7262d5a031d4d671e1fdb0cddcd26d37185226f9e82f2f18877141ac1963eb9392916126c9606461278a93048095613e30565b92600f82016126d9868254613eeb565b9055601082016126ea868254613eeb565b90557f2b1d2104e84dd4dabb0cca024171f783ab1e1c9dc1af9d60a2361596653a99c4604051918683523392a2600b81018054918883156127a85750600d90838611156127a257835b809361275a82612743818b613e30565b97600c8601612753838254613eeb565b9055613e30565b905561276b600e8301918254613eeb565b90555b0161277a838254613eeb565b9055604051948594339886613fca565b0390a26001600080516020614fd48339815191525580f35b85612733565b91509150600d849261276e565b634e487b7160e01b86526011600452602486fd5b508282813d83116127f1575b6127df8183613d02565b81010312610904576126819151612677565b503d6127d5565b6040513d88823e3d90fd5b61280f91929350613cef565b61281c5783908738612655565b8680fd5b50604051903d90823e3d90fd5b86809295508194503d8311612859575b6128478183613d02565b8101031261090457879151923861261d565b503d61283d565b60405163208975e760e21b8152600490fd5b60405163aba4733960e01b8152600490fd5b50346102fb5760803660031901126102fb576004356001600160401b03811161086f576128b5903690600401613c2d565b91906024356001600160401b038111610860576128d6903690600401613c2d565b6044356001600160401b0381116108b3576128f5903690600401613c2d565b90916064356001600160401b03811161281c57612916903690600401613c2d565b949097338852600360205261293160ff60408a205416614c59565b338852600360205260408820966001600160401b038211612df057819061295b60158a0154613c9a565b601f8111612da0575b508990601f8311600114612d34578a92612d29575b50508160011b916000199060031b1c19161760158701555b6001600160401b038211612d155781906129ae6016880154613c9a565b601f8111612cc2575b508790601f8311600114612c56578892612c4b575b50508160011b916000199060031b1c19161760168501555b60178401916001600160401b0382116113c5578190612a038454613c9a565b601f8111612bfb575b508690601f8311600114612b95578792612b8a575b50508160011b916000199060031b1c19161790555b60188201906001600160401b038111612b7657612a538254613c9a565b601f8111612b31575b5083601f8211600114612aca578190859660199692612abf575b50508160011b916000199060031b1c19161790555b01805460ff19166001179055337fbe4ec58a792f909e102ee3d745d0c3b34a4d437a54d903c4db098d31c556422f8280a280f35b013590503880612a76565b8285526020852090601f198316865b818110612b195750968392916001946019989910612aff575b505050811b019055612a8b565b0135600019600384901b60f8161c19169055388080612af2565b9192602060018192868c013581550194019201612ad9565b82855260208520601f830160051c81019160208410612b6c575b601f0160051c01905b818110612b615750612a5c565b858155600101612b54565b9091508190612b4b565b634e487b7160e01b84526041600452602484fd5b013590503880612a21565b84885260208820925090601f198416885b818110612be35750908460019594939210612bc9575b505050811b019055612a36565b0135600019600384901b60f8161c19169055388080612bbc565b91936020600181928787013581550195019201612ba6565b90915083875260208720601f840160051c81019160208510612c41575b90601f859493920160051c01905b818110612c335750612a0c565b888155849350600101612c26565b9091508190612c18565b0135905038806129cc565b60168801895260208920925090601f198416895b818110612caa5750908460019594939210612c90575b505050811b0160168501556129e4565b0135600019600384901b60f8161c19169055388080612c80565b91936020600181928787013581550195019201612c6a565b90915060168701885260208820601f840160051c81019160208510612d0b575b90601f859493920160051c01905b818110612cfd57506129b7565b898155849350600101612cf0565b9091508190612ce2565b634e487b7160e01b87526041600452602487fd5b013590503880612979565b60158a018b5260208b20925090601f1984168b5b818110612d885750908460019594939210612d6e575b505050811b016015870155612991565b0135600019600384901b60f8161c19169055388080612d5e565b91936020600181928787013581550195019201612d48565b909150601589018a5260208a20601f840160051c810160208510612de9575b90849392915b601f830160051c82018110612ddb575050612964565b8c8155859450600101612dc5565b5080612dbf565b634e487b7160e01b89526041600452602489fd5b50346102fb57806003193601126102fb5760606006546007546008549060405192835260208301526040820152f35b50346102fb5760203660031901126102fb57600435338252600d602052612e5f60408320548210614d06565b338252600d6020526003612e768260408520614cea565b50612e8760ff600483015416614d42565b018054612ec6574290556040519081524260208201527f68733b6f87b2a7c87d5bcf8c0a0950f2985cc261d9ab6defddca8d7bd05eba4360403392a280f35b60405162461bcd60e51b815260206004820152600e60248201526d105b1c9958591e481b1bd8dad95960921b6044820152606490fd5b50346102fb5760203660031901126102fb576020610666600435614d81565b50346102fb57806003193601126102fb57602060405160028152f35b50346102fb5760203660031901126102fb576020610666600435614e46565b50346102fb57806003193601126102fb576020600454604051908152f35b50346102fb5760203660031901126102fb57612f8e613e8a565b338152600d602052612fa7604082205460043510614d06565b338152600d602052612fbe60043560408320614cea565b5060048101805490612fd260ff8316614d42565b600383015491821592831561350d575b5060ff1916905560018254920154908160011b91808304600214901517156114e2578291811561334b5760058402848104600514851517156127b557338652600360205260408620546064909104906001600160a01b039060101c811680151580613337575b6132a3575b5050505b6040516370a0823160e01b8082523060048301526001600160a01b037f000000000000000000000000000000000000000000000000000000000000000081169591929188916020846024818b5afa938415610a7257839461326f575b5060015416803b15610860576024839260405194859384926372424d9960e11b845260048401525af1801561326457613251575b50604051918252306004830152602082602481885afa8015613246578790613212575b61310e9250613e30565b90859280613209575b6131e7575b5080613148575b600080516020614f94833981519152925061278a6040519283923396600435856148d7565b6020604051809463a9059cbb60e01b825281888161316a873360048401613e60565b03925af19283156108be57859361319a575b50613195600080516020614f9483398151915293614c96565b613123565b92506020833d6020116131df575b816131b560209383613d02565b810103126108b3576131956131d8600080516020614f9483398151915294613e53565b935061317c565b3d91506131a8565b8092506131f391613e30565b9061320082600854613eeb565b6008553861311c565b50808211613117565b506020823d60201161323e575b8161322c60209383613d02565b810103126109045761310e9151613104565b3d915061321f565b6040513d89823e3d90fd5b61325d90979197613cef565b95386130e1565b6040513d8a823e3d90fd5b9093506020813d60201161329b575b8161328b60209383613d02565b81010312610860575192386130ad565b3d915061327e565b826020916132cd9360015416908a60405180968195829463a9059cbb60e01b845260048401613e60565b03925af19081156132465787916132fd575b506132ec575b808061304d565b6132f69193613e30565b91386132e5565b90506020813d60201161332f575b8161331860209383613d02565b8101031261281c5761332990613e53565b386132df565b3d915061330b565b5080885260ff604089205460081c16613048565b9260409492945161335b81613cd4565b60058152600260208201526001604082015260016060820152600160808201523384526003602052604084205460018060a01b039060101c169284935b600560ff861610156135005760646133bf60ff6133b781891687614cd9565b511686613f97565b0480156134c2576001600160a01b0382161515806134a0575b613409575b506001600160a01b0390811686526003602052604086205460101c1693613403906144ea565b93613398565b60015460405163a9059cbb60e01b81529060209082906001600160a01b0316818b81613439888a60048401613e60565b03925af1908115613264578891613462575b50156133dd5761345b9198613e30565b96386133dd565b90506020813d602011613498575b8161347d60209383613d02565b810103126134945761348e90613e53565b3861344b565b8780fd5b3d9150613470565b506001600160a01b03821687526003602052604087205460081c60ff166133d8565b50936001600160a01b038516806134de575b50613403906144ea565b86526003602052604086205460101c6001600160a01b031694506134036134d4565b5092505092939193613051565b63018b820081018091116127b55742106135275738612fe2565b60405162461bcd60e51b815260206004820152602660248201527f5374696c6c206c6f636b65643a2031302d6d6f6e746820706572696f64206e6f6044820152653a1037bb32b960d11b6064820152608490fd5b50346102fb576135a361358d36613bfb565b90613596613dcb565b61359e613e8a565b6148f3565b6001600080516020614fd48339815191525580f35b50346102fb5760403660031901126102fb576135d2613b71565b602435906135de613dcb565b6001600160a01b03169081156106355760085481811061364257816136267fba443e8671971c36cdeb74f87321041daff421230cbc5e36cb835269ed1d8b7e93602093613e30565b60085583855260038252600860408620016105d2828254613eeb565b60405162461bcd60e51b8152602060048201526012602482015271115e18d959591cc818591b5a5b881c1bdbdb60721b6044820152606490fd5b50346102fb5760203660031901126102fb576020906040906001600160a01b036136a4613b71565b168152600c83522054604051908152f35b50346102fb57806003193601126102fb576001546040516001600160a01b039091168152602090f35b50346102fb5760203660031901126102fb576136f8613b71565b613700613dcb565b6001600160a01b0316801561063557600180546001600160a01b031916821790556040519081527ffa7bd61554593f4e69cdffd255d3fe947352b02c7d3ec68059384934e4cfd47c90602090a180f35b50346102fb5760208060031936011261086f576001600160a01b03613773613b71565b16808352600d8083526040842054928492855b8581106138ec575061379784614f41565b946137a185614f41565b916137ab86614f41565b946137be6137b888614f41565b97614f41565b988091815b85811061382f57506137f48a61382b8d61381d8d61380f8e6138018f8f6040519a8b9a60a08c5260a08c0190613bc7565b918a8303908b0152613bc7565b908782036040890152613bc7565b908582036060870152613bc7565b908382036080850152613bc7565b0390f35b8b8b8b8b8a8c8a60ff600461384d8a60408e8e878252885220614cea565b5001541661386b575b5050505050505061386690613e7b565b6137c3565b946138dd96946138d7948c97948a6138a1819f8f8f9e6138669f8260409160039c869e61389a96525220614cea565b5096614689565b526138ae86855492614689565b526138be85600185015492614689565b526138ce84600284015492614689565b52015492614689565b52613e7b565b9390508b8b8b8b8a8c8a613856565b81875283835260ff60046139038360408b20614cea565b5001541661391a575b61391590613e7b565b613786565b9361392761391591613e7b565b94905061390c565b50346102fb5760203660031901126102fb576139b9906040906001600160a01b03613958613b71565b16815260036020522060ff6019820154166139e361397860158401613d25565b926139d561398860168301613d25565b916139c76139a4601861399d60178501613d25565b9301613d25565b9360405198899860a08a5260a08a0190613b87565b9088820360208a0152613b87565b908682036040880152613b87565b908482036060860152613b87565b90151560808301520390f35b50346102fb57806003193601126102fb57613a08613e8a565b3381526003602052604081205460ff8116156128725760081c60ff16613ad9576040516323b872dd60e01b815233600482015230602482015268070c1cc73b00c800006044820152602081606481857f00000000000000000000000000000000000000000000000000000000000000006001600160a01b03165af1908115610864578291613aa0575b5015610873576135a333613fee565b90506020813d8211613ad1575b81613aba60209383613d02565b8101031261086f57613acb90613e53565b38613a91565b3d9150613aad565b604051637cdf305160e11b8152600490fd5b50346102fb5760203660031901126102fb5760409081906001600160a01b03613b12613b71565b1681526003602052206010600f82015491015482519182526020820152f35b50346102fb57806003193601126102fb57602060405168070c1cc73b00c800008152f35b90503461086f578160031936011261086f576020906007548152f35b600435906001600160a01b038216820361090457565b919082519283825260005b848110613bb3575050826000602080949584010152601f8019910116010190565b602081830181015184830182015201613b92565b90815180825260208080930193019160005b828110613be7575050505090565b835185529381019392810192600101613bd9565b6040906003190112610904576004359060243590565b34610904576000366003190112610904576020604051601e8152f35b9181601f84011215610904578235916001600160401b038311610904576020838186019501011161090457565b60243590811515820361090457565b600454811015613c8457600460005260206000200190600090565b634e487b7160e01b600052603260045260246000fd5b90600182811c92168015613cca575b6020831014613cb457565b634e487b7160e01b600052602260045260246000fd5b91607f1691613ca9565b60a081019081106001600160401b038211176116f457604052565b6001600160401b0381116116f457604052565b601f909101601f19168101906001600160401b038211908210176116f457604052565b9060405191826000825492613d3984613c9a565b908184526001948581169081600014613da85750600114613d65575b5050613d6392500383613d02565b565b9093915060005260209081600020936000915b818310613d90575050613d6393508201013880613d55565b85548884018501529485019487945091830191613d78565b915050613d6394506020925060ff191682840152151560051b8201013880613d55565b6000546001600160a01b03163303613ddf57565b60405163118cdaa760e01b8152336004820152602490fd5b15613dfe57565b60405162461bcd60e51b815260206004820152600a6024820152694e6f742061637469766560b01b6044820152606490fd5b91908203918211613e3d57565b634e487b7160e01b600052601160045260246000fd5b5190811515820361090457565b6001600160a01b039091168152602081019190915260400190565b6000198114613e3d5760010190565b600080516020614fd48339815191526002815414613ea85760029055565b604051633ee5aeb560e01b8152600490fd5b15613ec157565b60405162461bcd60e51b81526020600482015260026024820152615a4160f01b6044820152606490fd5b91908201809211613e3d57565b60018060a01b039182600092168252600391602092808452600291604091838383200154958787169560ff96898860a09a8b1c16915b16908115613f8a5715613f6d57808552838352600586862001613f518154613e7b565b90555b8452828252858585200154898089838c1c169216613f2e565b808552838352600686862001613f838154613e7b565b9055613f54565b5050975050505050505050565b81810292918115918404141715613e3d57565b8115613fb4570490565b634e487b7160e01b600052601260045260246000fd5b9192608093969594919660a084019784526020840152604083015260608201520152565b6001805460408051623144bd60e31b81526004956001600160a01b03938416959094929160209060009082818b818c5afa9081156144e05782916144b3575b5080156144a0576b030e68b6d6e0acc82863363160251b049784519063095ea7b360e01b82528a82015268070c1cc73b00c80000908160248201528381604481868c7f0000000000000000000000000000000000000000000000000000000000000000165af1801561440c5761446c575b50868654168551906370a0823160e01b92838352308d8401528583602481855afa928315614462578593614433575b50813b156108b357849060448e838b519586948593634e538d9360e11b8552309085015260248401525af1801561442957614416575b50838b60248a8a54169489519586938492835230908301525afa801561440c5783906143dd575b6141349250613e30565b94601e8902898104601e148a1517156143ca576064900499509697959680888b8061415f818c613e30565b9061416991613e30565b9061417391613e30565b8c6006549061418191613eeb565b60065561418e908d613eeb565b9560089687549061419e91613eeb565b875516988984526003938486528781209061ff00198254166101001791828155600b016815245655b102580000905582601092831c1695819785965b614249575b505050505050505096806142279381938a7f8af2c013a5a55c6d3ad5423522fe76c6f2eb831b5e23318276b3c678cb457fc9999a9b841161422c575b50505195869586613fca565b0390a2565b6142396142409185613e30565b8254613eeb565b9055388061421b565b909192939495969760ff90600a828a161115806143bf575b156143b8578a918f918f6142778f918d90614510565b91821561439757908a61428b848f94613eeb565b9e16958694858b528989528d838c20918254841c169182614381575b505015614337577fb16479bdac5b7099d9236d6fc6be3b30ff54188f4fd961686e1e1dc7ecb8803793929161431091868c528a8a52818c20016142eb858254613eeb565b9055858b528989526009818c2001614304858254613eeb565b905551928392836144fb565b0390a35b83528181528561432b868c862054871c16986144ea565b969594939291906141da565b7f117ca0cd821ecb7eadfea2d6927a67853908bdc351a386235215f5ab6071bfed94955083925061436c614379948254613eeb565b9055519182918d836144fb565b0390a2614314565b0154905061438e8461465c565b11158d386142a7565b9c93505050508691501683528181528561432b868c862054871c16986144ea565b98506141df565b50868a161515614261565b634e487b7160e01b835260118b52602483fd5b508382813d8311614405575b6143f38183613d02565b8101031261090457614134915161412a565b503d6143e9565b86513d85823e3d90fd5b61442290939193613cef565b9138614103565b87513d86823e3d90fd5b9092508581813d831161445b575b61444b8183613d02565b810103126108b3575191386140cd565b503d614441565b88513d87823e3d90fd5b8381813d8311614499575b6144818183613d02565b810103126108605761449290613e53565b503861409e565b503d614477565b634e487b7160e01b825260128a52602482fd5b90508281813d83116144d9575b6144ca8183613d02565b8101031261086f57513861402d565b503d6144c0565b85513d84823e3d90fd5b60ff1660ff8114613e3d5760010190565b6020909392919360ff60408201951681520152565b9060ff16600181146146415760028114614626576003811461460b576004908181146145f457600581146145d757600681146145d757600781146145ba57600881146145ba576009811461459d57600a1461456c575050600090565b8160011b918083046002149015171561458857506103e8900490565b601190634e487b7160e01b6000525260246000fd5b508160011b918083046002149015171561458857506103e8900490565b5060038202918083046003149015171561458857506103e8900490565b5060058202918083046005149015171561458857506103e8900490565b508180046001148215171561458857506064900490565b508060011b9080820460021490151715613e3d576064900490565b50600581029080820460051490151715613e3d576064900490565b50601481029080820460141490151715613e3d576064900490565b60ff60049116111561466d57600590565b600290565b6001600160401b0381116116f45760051b60200190565b8051821015613c845760209160051b010190565b81806148b4575b6148ad578115918280614888575b61488057600554926001808501809511613e3d576146cf85614672565b906146ea6040966146e288519485613d02565b808452614672565b9260209283810194601f19013686376000808715614861576001600160a01b03898116835260038088528b8420015416965b6001600160a01b039788168061484d575b50505b8181106147ab5750505080614790575b614786575082614769575b505061476257815163c5bb5bcd60e01b8152600490fd5b9160009150565b81600392935084166000525260048360002001541615388061474b565b9594505050509190565b50828516600052600382528260038760002001541615614740565b866147bf6147b883613e7b565b9285614689565b51168060005260038088528b60002091898284015416801561483a578a600480950154161561482657908a9392916148006147f988613e7b565b9789614689565b5260005288528b60002001541661482061481984613e7b565b9385614689565b52614730565b509b50505050505050505050505090600090565b509a505050505050509594505050509190565b9092508592845115613c845752388061472d565b6001600160a01b038981168352600387528a832060040154169661471c565b509160009150565b506001600160a01b0382811660009081526003602052604090206004015416156146b2565b9160019150565b5060018060a01b03808216600052600360205260036040600020015416156146a4565b9094939260609260808301968352602083015260408201520152565b919060ff90600a9382855416614c48576006948554928315614c0f5760009687815560468502858104604603614bfb5760649004956149328787613e30565b986149426009948b865587613eeb565b926004918254808611614bf3575b508097805b868110614b5f57508815614b10575b8581106149a4575050505050505090600080516020614fb4833981519152949561499f92600160ff19825416179055604051948594856148d7565b0390a1565b84888c6149b084613c69565b9390549360039460018060a01b0391861b1c16938487528d8c602092808452604096878b2092835496600897881c1615614afd5760058401548d85015480821015614af55750945b60079485015480871115614aed57614a109087613e30565b985b8915614ad857906121638a614a2693613f97565b968a8d52838752898d2001614a3c888254613eeb565b9055898c52828652888c2001614a53878254613eeb565b90558087029087820403614ac55791879593917fbee8f46206dc051d674f6ca1e618efe407d83b27ffbe3540b916edfd34e428e1979593614aa660118c9b8f614ac09f9e81528589522001918254613eeb565b9055888c528352858b2001558351928352820152a2613e7b565b614964565b634e487b7160e01b8b5260118d5260248bfd5b505050505050505050505050614ac090613e7b565b508c98614a12565b9050946149f8565b50505050505050505050614ac090613e7b565b50965050505050829150614b41614b39600080516020614fb48339815191529798608097613eeb565b600854613eeb565b600855556040519182528060208301528060408301526060820152a1565b614b6881613c69565b9054600391821b1c6001600160a01b0316845260205260408320805460081c871615614be9576007600582015486830154808210600014614be15750915b015490818111614bc1575b5050614bbc90613e7b565b614955565b9a614bd3614bd992614bbc949d613e30565b90613eeb565b999038614bb1565b905091614ba6565b50614bbc90613e7b565b945038614950565b634e487b7160e01b89526011600452602489fd5b60405162461bcd60e51b8152602060048201526011602482015270115b5c1d1e48189a5b985c9e481c1bdbdb607a1b6044820152606490fd5b60405162c9487960e41b8152600490fd5b15614c6057565b60405162461bcd60e51b815260206004820152600e60248201526d139bdd081c9959da5cdd195c995960921b6044820152606490fd5b15614c9d57565b60405162461bcd60e51b81526020600482015260146024820152731554d115081d1c985b9cd9995c8819985a5b195960621b6044820152606490fd5b906005811015613c845760051b0190565b8054821015613c84576000526005602060002091020190600090565b15614d0d57565b60405162461bcd60e51b815260206004820152600d60248201526c092dcecc2d8d2c840d2dcc8caf609b1b6044820152606490fd5b15614d4957565b60405162461bcd60e51b815260206004820152601060248201526f105b1c9958591e481d5b9cdd185ad95960821b6044820152606490fd5b6002546001600160a01b0316908115614dfd576020906024604051809481936347cd519160e01b835260048301525afa908115614df157600091614dc3575090565b906020823d8211614de9575b81614ddc60209383613d02565b810103126102fb57505190565b3d9150614dcf565b6040513d6000823e3d90fd5b5050600090565b6002546001600160a01b0316908115614dfd576020906024604051809481936375b1f0e160e11b835260048301525afa908115614df157600091614dc3575090565b6002546001600160a01b0316908115614dfd57602090602460405180948193631d61396160e11b835260048301525afa908115614df157600091614dc3575090565b6002546001600160a01b03908116918215614f3357166024600082815260206003815280600f60408420015495604051948580926347cd519160e01b8252600160048301525afa928315610864578293614f03575b5060ff9160036040928596835252205460081c169081614efb575092565b905082101592565b9080935081813d8311614f2c575b614f1b8183613d02565b8101031261086f57519160ff614edd565b503d614f11565b505050600090600090600090565b90614f4b82614672565b614f586040519182613d02565b8281528092614f69601f1991614672565b019060203691013756fe8be0079c531659141344cd1fd0a4f28419497f9722a3daafe3b4186f6b6457e0dcfd2b4017d03f7e541021db793b2f9b31e4acdee005f789e52853c390e3e962a0ea5705200c9ffd36dc735fef1592c3234bb7e311fc1b0a444f6370d0620eae9b779b17422d0df92223018b32b4d1fa46e071723d6817e2486d003becc55f00a2646970667358221220288692d8f5500c73491719dca513844071215a95c93ccff5538afdd0ca8b028464736f6c63430008140033",
  "linkReferences": {},
  "deployedLinkReferences": {}
}