{
  "_format": "hh-sol-artifact-1",
  "contractName": "MvaultContract",
  "sourceName": "contracts/MvaultContract.sol",
  "abi": [
    {
      "inputs": [
        {
          "internalType": "address",
          "name": "_usdt",
          "type": "address"
        },
        {
          "internalType": "address",
          "name": "_mvaultToken",
          "type": "address"
        }
      ],
      "stateMutability": "nonpayable",
      "type": "constructor"
    },
    {
      "inputs": [],
      "name": "AlreadyActive",
      "type": "error"
    },
    {
      "inputs": [],
      "name": "AlreadyRegistered",
      "type": "error"
    },
    {
      "inputs": [],
      "name": "BinaryAlreadyDistributed",
      "type": "error"
    },
    {
      "inputs": [],
      "name": "BinaryNotDistributed",
      "type": "error"
    },
    {
      "inputs": [],
      "name": "BoardHandlerNotSet",
      "type": "error"
    },
    {
      "inputs": [],
      "name": "InsufficientBtcPool",
      "type": "error"
    },
    {
      "inputs": [],
      "name": "InsufficientBtcPoolForBoard",
      "type": "error"
    },
    {
      "inputs": [],
      "name": "InsufficientRebirthPool",
      "type": "error"
    },
    {
      "inputs": [],
      "name": "InsufficientUsdtBalance",
      "type": "error"
    },
    {
      "inputs": [],
      "name": "InsufficientVirtualBalance",
      "type": "error"
    },
    {
      "inputs": [],
      "name": "InvalidSponsor",
      "type": "error"
    },
    {
      "inputs": [],
      "name": "NoOpenBinarySlot",
      "type": "error"
    },
    {
      "inputs": [],
      "name": "NotRegistered",
      "type": "error"
    },
    {
      "inputs": [
        {
          "internalType": "address",
          "name": "owner",
          "type": "address"
        }
      ],
      "name": "OwnableInvalidOwner",
      "type": "error"
    },
    {
      "inputs": [
        {
          "internalType": "address",
          "name": "account",
          "type": "address"
        }
      ],
      "name": "OwnableUnauthorizedAccount",
      "type": "error"
    },
    {
      "inputs": [],
      "name": "PositionTaken",
      "type": "error"
    },
    {
      "inputs": [],
      "name": "ReentrancyGuardReentrantCall",
      "type": "error"
    },
    {
      "inputs": [],
      "name": "TransferFailed",
      "type": "error"
    },
    {
      "inputs": [],
      "name": "ZeroAddress",
      "type": "error"
    },
    {
      "inputs": [],
      "name": "ZeroAmount",
      "type": "error"
    },
    {
      "anonymous": false,
      "inputs": [
        {
          "indexed": true,
          "internalType": "address",
          "name": "user",
          "type": "address"
        },
        {
          "indexed": false,
          "internalType": "uint256",
          "name": "mvtMinted",
          "type": "uint256"
        },
        {
          "indexed": false,
          "internalType": "uint256",
          "name": "grossMvt",
          "type": "uint256"
        },
        {
          "indexed": false,
          "internalType": "uint256",
          "name": "levelAmt",
          "type": "uint256"
        },
        {
          "indexed": false,
          "internalType": "uint256",
          "name": "binaryAmt",
          "type": "uint256"
        },
        {
          "indexed": false,
          "internalType": "uint256",
          "name": "adminAmt",
          "type": "uint256"
        }
      ],
      "name": "Activated",
      "type": "event"
    },
    {
      "anonymous": false,
      "inputs": [
        {
          "indexed": true,
          "internalType": "address",
          "name": "to",
          "type": "address"
        },
        {
          "indexed": false,
          "internalType": "uint256",
          "name": "amount",
          "type": "uint256"
        }
      ],
      "name": "AdminWithdraw",
      "type": "event"
    },
    {
      "anonymous": false,
      "inputs": [
        {
          "indexed": false,
          "internalType": "uint256",
          "name": "totalPool",
          "type": "uint256"
        },
        {
          "indexed": false,
          "internalType": "uint256",
          "name": "binary70",
          "type": "uint256"
        },
        {
          "indexed": false,
          "internalType": "uint256",
          "name": "powerLeg30",
          "type": "uint256"
        },
        {
          "indexed": false,
          "internalType": "uint256",
          "name": "totalPairs",
          "type": "uint256"
        }
      ],
      "name": "BinaryIncomeDistributed",
      "type": "event"
    },
    {
      "anonymous": false,
      "inputs": [
        {
          "indexed": true,
          "internalType": "address",
          "name": "user",
          "type": "address"
        },
        {
          "indexed": false,
          "internalType": "uint256",
          "name": "boardLevel",
          "type": "uint256"
        },
        {
          "indexed": false,
          "internalType": "uint256",
          "name": "usdtDeducted",
          "type": "uint256"
        }
      ],
      "name": "BoardEntered",
      "type": "event"
    },
    {
      "anonymous": false,
      "inputs": [
        {
          "indexed": true,
          "internalType": "address",
          "name": "newHandler",
          "type": "address"
        }
      ],
      "name": "BoardHandlerUpdated",
      "type": "event"
    },
    {
      "anonymous": false,
      "inputs": [
        {
          "indexed": true,
          "internalType": "address",
          "name": "user",
          "type": "address"
        },
        {
          "indexed": false,
          "internalType": "uint256",
          "name": "usdtAmount",
          "type": "uint256"
        },
        {
          "indexed": false,
          "internalType": "uint256",
          "name": "boardLevel",
          "type": "uint256"
        }
      ],
      "name": "BoardRewardCredited",
      "type": "event"
    },
    {
      "anonymous": false,
      "inputs": [
        {
          "indexed": true,
          "internalType": "address",
          "name": "user",
          "type": "address"
        },
        {
          "indexed": false,
          "internalType": "uint256",
          "name": "amount",
          "type": "uint256"
        }
      ],
      "name": "BtcPoolCredited",
      "type": "event"
    },
    {
      "anonymous": false,
      "inputs": [
        {
          "indexed": true,
          "internalType": "address",
          "name": "user",
          "type": "address"
        },
        {
          "indexed": false,
          "internalType": "uint256",
          "name": "amount",
          "type": "uint256"
        }
      ],
      "name": "BtcPoolWithdrawn",
      "type": "event"
    },
    {
      "anonymous": false,
      "inputs": [
        {
          "indexed": true,
          "internalType": "address",
          "name": "to",
          "type": "address"
        },
        {
          "indexed": true,
          "internalType": "address",
          "name": "from",
          "type": "address"
        },
        {
          "indexed": false,
          "internalType": "uint8",
          "name": "level",
          "type": "uint8"
        },
        {
          "indexed": false,
          "internalType": "uint256",
          "name": "amount",
          "type": "uint256"
        }
      ],
      "name": "LevelIncomePaid",
      "type": "event"
    },
    {
      "anonymous": false,
      "inputs": [
        {
          "indexed": true,
          "internalType": "address",
          "name": "upline",
          "type": "address"
        },
        {
          "indexed": false,
          "internalType": "uint8",
          "name": "level",
          "type": "uint8"
        },
        {
          "indexed": false,
          "internalType": "uint256",
          "name": "amount",
          "type": "uint256"
        }
      ],
      "name": "LevelIncomeSkipped",
      "type": "event"
    },
    {
      "anonymous": false,
      "inputs": [
        {
          "indexed": false,
          "internalType": "address",
          "name": "newToken",
          "type": "address"
        }
      ],
      "name": "MvaultTokenUpdated",
      "type": "event"
    },
    {
      "anonymous": false,
      "inputs": [
        {
          "indexed": true,
          "internalType": "address",
          "name": "user",
          "type": "address"
        },
        {
          "indexed": false,
          "internalType": "uint256",
          "name": "mvtAmount",
          "type": "uint256"
        },
        {
          "indexed": false,
          "internalType": "uint256",
          "name": "usdtNet",
          "type": "uint256"
        },
        {
          "indexed": false,
          "internalType": "uint256",
          "name": "usdtToBtcPool",
          "type": "uint256"
        },
        {
          "indexed": false,
          "internalType": "uint256",
          "name": "usdtToIncome",
          "type": "uint256"
        },
        {
          "indexed": false,
          "internalType": "uint256",
          "name": "usdtToRebirth",
          "type": "uint256"
        }
      ],
      "name": "MvtSold",
      "type": "event"
    },
    {
      "anonymous": false,
      "inputs": [
        {
          "indexed": true,
          "internalType": "address",
          "name": "previousOwner",
          "type": "address"
        },
        {
          "indexed": true,
          "internalType": "address",
          "name": "newOwner",
          "type": "address"
        }
      ],
      "name": "OwnershipTransferred",
      "type": "event"
    },
    {
      "anonymous": false,
      "inputs": [
        {
          "indexed": false,
          "internalType": "uint256",
          "name": "totalPowerLeg30",
          "type": "uint256"
        },
        {
          "indexed": false,
          "internalType": "uint256",
          "name": "totalPowerLegs",
          "type": "uint256"
        }
      ],
      "name": "PowerLegDistributed",
      "type": "event"
    },
    {
      "anonymous": false,
      "inputs": [
        {
          "indexed": true,
          "internalType": "address",
          "name": "user",
          "type": "address"
        }
      ],
      "name": "ProfileUpdated",
      "type": "event"
    },
    {
      "anonymous": false,
      "inputs": [
        {
          "indexed": true,
          "internalType": "address",
          "name": "mainAccount",
          "type": "address"
        },
        {
          "indexed": true,
          "internalType": "address",
          "name": "subAccount",
          "type": "address"
        },
        {
          "indexed": false,
          "internalType": "uint256",
          "name": "rebirthIndex",
          "type": "uint256"
        }
      ],
      "name": "Reborn",
      "type": "event"
    },
    {
      "anonymous": false,
      "inputs": [
        {
          "indexed": true,
          "internalType": "address",
          "name": "user",
          "type": "address"
        },
        {
          "indexed": true,
          "internalType": "address",
          "name": "sponsor",
          "type": "address"
        },
        {
          "indexed": true,
          "internalType": "address",
          "name": "binaryParent",
          "type": "address"
        },
        {
          "indexed": false,
          "internalType": "bool",
          "name": "placeLeft",
          "type": "bool"
        }
      ],
      "name": "Registered",
      "type": "event"
    },
    {
      "anonymous": false,
      "inputs": [
        {
          "indexed": true,
          "internalType": "address",
          "name": "to",
          "type": "address"
        },
        {
          "indexed": false,
          "internalType": "uint256",
          "name": "amount",
          "type": "uint256"
        }
      ],
      "name": "ReserveWithdraw",
      "type": "event"
    },
    {
      "anonymous": false,
      "inputs": [
        {
          "indexed": true,
          "internalType": "address",
          "name": "user",
          "type": "address"
        },
        {
          "indexed": false,
          "internalType": "uint256",
          "name": "amount",
          "type": "uint256"
        }
      ],
      "name": "UsdtWithdrawn",
      "type": "event"
    },
    {
      "inputs": [],
      "name": "ADMIN_ALLOC",
      "outputs": [
        {
          "internalType": "uint256",
          "name": "",
          "type": "uint256"
        }
      ],
      "stateMutability": "view",
      "type": "function"
    },
    {
      "inputs": [],
      "name": "BINARY_ALLOC",
      "outputs": [
        {
          "internalType": "uint256",
          "name": "",
          "type": "uint256"
        }
      ],
      "stateMutability": "view",
      "type": "function"
    },
    {
      "inputs": [],
      "name": "BTC_POOL_RATE",
      "outputs": [
        {
          "internalType": "uint256",
          "name": "",
          "type": "uint256"
        }
      ],
      "stateMutability": "view",
      "type": "function"
    },
    {
      "inputs": [],
      "name": "INCOME_LIMIT",
      "outputs": [
        {
          "internalType": "uint256",
          "name": "",
          "type": "uint256"
        }
      ],
      "stateMutability": "view",
      "type": "function"
    },
    {
      "inputs": [],
      "name": "LEVEL_ALLOC",
      "outputs": [
        {
          "internalType": "uint256",
          "name": "",
          "type": "uint256"
        }
      ],
      "stateMutability": "view",
      "type": "function"
    },
    {
      "inputs": [],
      "name": "PACKAGE_PRICE",
      "outputs": [
        {
          "internalType": "uint256",
          "name": "",
          "type": "uint256"
        }
      ],
      "stateMutability": "view",
      "type": "function"
    },
    {
      "inputs": [],
      "name": "activate",
      "outputs": [],
      "stateMutability": "nonpayable",
      "type": "function"
    },
    {
      "inputs": [],
      "name": "adminPool",
      "outputs": [
        {
          "internalType": "uint256",
          "name": "",
          "type": "uint256"
        }
      ],
      "stateMutability": "view",
      "type": "function"
    },
    {
      "inputs": [
        {
          "internalType": "uint256",
          "name": "",
          "type": "uint256"
        }
      ],
      "name": "allUsers",
      "outputs": [
        {
          "internalType": "address",
          "name": "",
          "type": "address"
        }
      ],
      "stateMutability": "view",
      "type": "function"
    },
    {
      "inputs": [],
      "name": "binaryPool",
      "outputs": [
        {
          "internalType": "uint256",
          "name": "",
          "type": "uint256"
        }
      ],
      "stateMutability": "view",
      "type": "function"
    },
    {
      "inputs": [
        {
          "internalType": "address",
          "name": "",
          "type": "address"
        }
      ],
      "name": "boardEntryCount",
      "outputs": [
        {
          "internalType": "uint256",
          "name": "",
          "type": "uint256"
        }
      ],
      "stateMutability": "view",
      "type": "function"
    },
    {
      "inputs": [],
      "name": "boardHandler",
      "outputs": [
        {
          "internalType": "contract IMvaultBoardMatrix",
          "name": "",
          "type": "address"
        }
      ],
      "stateMutability": "view",
      "type": "function"
    },
    {
      "inputs": [
        {
          "internalType": "address",
          "name": "_user",
          "type": "address"
        }
      ],
      "name": "canEnterBoard",
      "outputs": [
        {
          "internalType": "bool",
          "name": "eligible",
          "type": "bool"
        },
        {
          "internalType": "uint256",
          "name": "btcBalance",
          "type": "uint256"
        },
        {
          "internalType": "uint256",
          "name": "boardPrice",
          "type": "uint256"
        }
      ],
      "stateMutability": "view",
      "type": "function"
    },
    {
      "inputs": [
        {
          "internalType": "address",
          "name": "user",
          "type": "address"
        }
      ],
      "name": "canRebirth",
      "outputs": [
        {
          "internalType": "bool",
          "name": "eligible",
          "type": "bool"
        },
        {
          "internalType": "uint256",
          "name": "poolBalance",
          "type": "uint256"
        }
      ],
      "stateMutability": "view",
      "type": "function"
    },
    {
      "inputs": [
        {
          "internalType": "address",
          "name": "_user",
          "type": "address"
        },
        {
          "internalType": "uint256",
          "name": "_usdtAmount",
          "type": "uint256"
        },
        {
          "internalType": "uint256",
          "name": "_boardLevel",
          "type": "uint256"
        }
      ],
      "name": "creditBoardReward",
      "outputs": [],
      "stateMutability": "nonpayable",
      "type": "function"
    },
    {
      "inputs": [
        {
          "internalType": "uint256",
          "name": "offset",
          "type": "uint256"
        },
        {
          "internalType": "uint256",
          "name": "limit",
          "type": "uint256"
        }
      ],
      "name": "distributeBinaryIncome",
      "outputs": [],
      "stateMutability": "nonpayable",
      "type": "function"
    },
    {
      "inputs": [
        {
          "internalType": "uint256",
          "name": "offset",
          "type": "uint256"
        },
        {
          "internalType": "uint256",
          "name": "limit",
          "type": "uint256"
        }
      ],
      "name": "distributePowerLeg",
      "outputs": [],
      "stateMutability": "nonpayable",
      "type": "function"
    },
    {
      "inputs": [],
      "name": "enterBoardPool",
      "outputs": [],
      "stateMutability": "nonpayable",
      "type": "function"
    },
    {
      "inputs": [],
      "name": "getAllUsersCount",
      "outputs": [
        {
          "internalType": "uint256",
          "name": "",
          "type": "uint256"
        }
      ],
      "stateMutability": "view",
      "type": "function"
    },
    {
      "inputs": [
        {
          "internalType": "uint256",
          "name": "_level",
          "type": "uint256"
        }
      ],
      "name": "getBoardCurrentIndex",
      "outputs": [
        {
          "internalType": "uint256",
          "name": "",
          "type": "uint256"
        }
      ],
      "stateMutability": "view",
      "type": "function"
    },
    {
      "inputs": [
        {
          "internalType": "uint256",
          "name": "_level",
          "type": "uint256"
        },
        {
          "internalType": "uint256",
          "name": "_index",
          "type": "uint256"
        }
      ],
      "name": "getBoardMatrixInfo",
      "outputs": [
        {
          "internalType": "address",
          "name": "owner",
          "type": "address"
        },
        {
          "internalType": "uint256",
          "name": "filledCount",
          "type": "uint256"
        },
        {
          "internalType": "bool",
          "name": "completed",
          "type": "bool"
        }
      ],
      "stateMutability": "view",
      "type": "function"
    },
    {
      "inputs": [
        {
          "internalType": "uint256",
          "name": "_level",
          "type": "uint256"
        }
      ],
      "name": "getBoardPrice",
      "outputs": [
        {
          "internalType": "uint256",
          "name": "",
          "type": "uint256"
        }
      ],
      "stateMutability": "view",
      "type": "function"
    },
    {
      "inputs": [
        {
          "internalType": "uint256",
          "name": "_level",
          "type": "uint256"
        }
      ],
      "name": "getBoardQueueLength",
      "outputs": [
        {
          "internalType": "uint256",
          "name": "",
          "type": "uint256"
        }
      ],
      "stateMutability": "view",
      "type": "function"
    },
    {
      "inputs": [
        {
          "internalType": "address",
          "name": "u",
          "type": "address"
        }
      ],
      "name": "getBtcPoolInfo",
      "outputs": [
        {
          "internalType": "uint256",
          "name": "btcPoolBalance",
          "type": "uint256"
        },
        {
          "internalType": "uint256",
          "name": "totalBtcEarned",
          "type": "uint256"
        }
      ],
      "stateMutability": "view",
      "type": "function"
    },
    {
      "inputs": [
        {
          "internalType": "address",
          "name": "u",
          "type": "address"
        }
      ],
      "name": "getCurrentBinaryPairs",
      "outputs": [
        {
          "internalType": "uint256",
          "name": "currentPairs",
          "type": "uint256"
        },
        {
          "internalType": "uint256",
          "name": "newPairs",
          "type": "uint256"
        }
      ],
      "stateMutability": "view",
      "type": "function"
    },
    {
      "inputs": [],
      "name": "getMvtContractBalance",
      "outputs": [
        {
          "internalType": "uint256",
          "name": "",
          "type": "uint256"
        }
      ],
      "stateMutability": "view",
      "type": "function"
    },
    {
      "inputs": [],
      "name": "getMvtPrice",
      "outputs": [
        {
          "internalType": "uint256",
          "name": "buyPrice",
          "type": "uint256"
        },
        {
          "internalType": "uint256",
          "name": "sellPrice",
          "type": "uint256"
        }
      ],
      "stateMutability": "view",
      "type": "function"
    },
    {
      "inputs": [],
      "name": "getPoolBalances",
      "outputs": [
        {
          "internalType": "uint256",
          "name": "binary",
          "type": "uint256"
        },
        {
          "internalType": "uint256",
          "name": "reserve",
          "type": "uint256"
        },
        {
          "internalType": "uint256",
          "name": "admin",
          "type": "uint256"
        }
      ],
      "stateMutability": "view",
      "type": "function"
    },
    {
      "inputs": [
        {
          "internalType": "address",
          "name": "_user",
          "type": "address"
        }
      ],
      "name": "getProfile",
      "outputs": [
        {
          "internalType": "string",
          "name": "displayName",
          "type": "string"
        },
        {
          "internalType": "string",
          "name": "email",
          "type": "string"
        },
        {
          "internalType": "string",
          "name": "phone",
          "type": "string"
        },
        {
          "internalType": "string",
          "name": "country",
          "type": "string"
        },
        {
          "internalType": "bool",
          "name": "profileSet",
          "type": "bool"
        }
      ],
      "stateMutability": "view",
      "type": "function"
    },
    {
      "inputs": [
        {
          "internalType": "address",
          "name": "_user",
          "type": "address"
        }
      ],
      "name": "getUserBoardStats",
      "outputs": [
        {
          "internalType": "uint256",
          "name": "entries",
          "type": "uint256"
        },
        {
          "internalType": "uint256",
          "name": "totalRewards",
          "type": "uint256"
        }
      ],
      "stateMutability": "view",
      "type": "function"
    },
    {
      "inputs": [
        {
          "internalType": "address",
          "name": "u",
          "type": "address"
        }
      ],
      "name": "getUserInfo",
      "outputs": [
        {
          "internalType": "bool",
          "name": "isRegistered",
          "type": "bool"
        },
        {
          "internalType": "bool",
          "name": "isActive",
          "type": "bool"
        },
        {
          "internalType": "address",
          "name": "sponsor",
          "type": "address"
        },
        {
          "internalType": "uint256",
          "name": "directCount",
          "type": "uint256"
        },
        {
          "internalType": "address",
          "name": "binaryParent",
          "type": "address"
        },
        {
          "internalType": "bool",
          "name": "placedLeft",
          "type": "bool"
        },
        {
          "internalType": "address",
          "name": "leftChild",
          "type": "address"
        },
        {
          "internalType": "address",
          "name": "rightChild",
          "type": "address"
        },
        {
          "internalType": "uint256",
          "name": "leftSubUsers",
          "type": "uint256"
        },
        {
          "internalType": "uint256",
          "name": "rightSubUsers",
          "type": "uint256"
        },
        {
          "internalType": "uint256",
          "name": "mvtBalance",
          "type": "uint256"
        },
        {
          "internalType": "uint256",
          "name": "totalReceived",
          "type": "uint256"
        },
        {
          "internalType": "uint256",
          "name": "totalSold",
          "type": "uint256"
        },
        {
          "internalType": "uint256",
          "name": "incomeLimit",
          "type": "uint256"
        },
        {
          "internalType": "uint256",
          "name": "usdtBalance",
          "type": "uint256"
        },
        {
          "internalType": "uint256",
          "name": "rebirthPool",
          "type": "uint256"
        },
        {
          "internalType": "uint256",
          "name": "btcPoolBalance",
          "type": "uint256"
        },
        {
          "internalType": "uint256",
          "name": "powerLegPoints",
          "type": "uint256"
        },
        {
          "internalType": "uint256",
          "name": "matchedPairs",
          "type": "uint256"
        },
        {
          "internalType": "address",
          "name": "mainAccount",
          "type": "address"
        },
        {
          "internalType": "uint256",
          "name": "rebirthCount",
          "type": "uint256"
        },
        {
          "internalType": "uint256",
          "name": "joinedAt",
          "type": "uint256"
        }
      ],
      "stateMutability": "view",
      "type": "function"
    },
    {
      "inputs": [],
      "name": "mvaultToken",
      "outputs": [
        {
          "internalType": "contract IMvaultToken",
          "name": "",
          "type": "address"
        }
      ],
      "stateMutability": "view",
      "type": "function"
    },
    {
      "inputs": [],
      "name": "owner",
      "outputs": [
        {
          "internalType": "address",
          "name": "",
          "type": "address"
        }
      ],
      "stateMutability": "view",
      "type": "function"
    },
    {
      "inputs": [
        {
          "internalType": "address",
          "name": "subAccount",
          "type": "address"
        },
        {
          "internalType": "bool",
          "name": "placeLeft",
          "type": "bool"
        }
      ],
      "name": "rebirth",
      "outputs": [],
      "stateMutability": "nonpayable",
      "type": "function"
    },
    {
      "inputs": [
        {
          "internalType": "address",
          "name": "sponsor",
          "type": "address"
        },
        {
          "internalType": "address",
          "name": "binaryParent",
          "type": "address"
        },
        {
          "internalType": "bool",
          "name": "placeLeft",
          "type": "bool"
        }
      ],
      "name": "register",
      "outputs": [],
      "stateMutability": "nonpayable",
      "type": "function"
    },
    {
      "inputs": [],
      "name": "renounceOwnership",
      "outputs": [],
      "stateMutability": "nonpayable",
      "type": "function"
    },
    {
      "inputs": [],
      "name": "reservePool",
      "outputs": [
        {
          "internalType": "uint256",
          "name": "",
          "type": "uint256"
        }
      ],
      "stateMutability": "view",
      "type": "function"
    },
    {
      "inputs": [
        {
          "internalType": "uint256",
          "name": "amount",
          "type": "uint256"
        }
      ],
      "name": "sellMvt",
      "outputs": [],
      "stateMutability": "nonpayable",
      "type": "function"
    },
    {
      "inputs": [
        {
          "internalType": "address",
          "name": "_boardHandler",
          "type": "address"
        }
      ],
      "name": "setBoardHandler",
      "outputs": [],
      "stateMutability": "nonpayable",
      "type": "function"
    },
    {
      "inputs": [
        {
          "internalType": "address",
          "name": "_mvaultToken",
          "type": "address"
        }
      ],
      "name": "setMvaultToken",
      "outputs": [],
      "stateMutability": "nonpayable",
      "type": "function"
    },
    {
      "inputs": [
        {
          "internalType": "string",
          "name": "_displayName",
          "type": "string"
        },
        {
          "internalType": "string",
          "name": "_email",
          "type": "string"
        },
        {
          "internalType": "string",
          "name": "_phone",
          "type": "string"
        },
        {
          "internalType": "string",
          "name": "_country",
          "type": "string"
        }
      ],
      "name": "setProfile",
      "outputs": [],
      "stateMutability": "nonpayable",
      "type": "function"
    },
    {
      "inputs": [
        {
          "internalType": "address",
          "name": "",
          "type": "address"
        }
      ],
      "name": "totalBoardRewardsEarned",
      "outputs": [
        {
          "internalType": "uint256",
          "name": "",
          "type": "uint256"
        }
      ],
      "stateMutability": "view",
      "type": "function"
    },
    {
      "inputs": [],
      "name": "totalUsers",
      "outputs": [
        {
          "internalType": "uint256",
          "name": "",
          "type": "uint256"
        }
      ],
      "stateMutability": "view",
      "type": "function"
    },
    {
      "inputs": [
        {
          "internalType": "address",
          "name": "newOwner",
          "type": "address"
        }
      ],
      "name": "transferOwnership",
      "outputs": [],
      "stateMutability": "nonpayable",
      "type": "function"
    },
    {
      "inputs": [],
      "name": "usdtToken",
      "outputs": [
        {
          "internalType": "contract IERC20",
          "name": "",
          "type": "address"
        }
      ],
      "stateMutability": "view",
      "type": "function"
    },
    {
      "inputs": [
        {
          "internalType": "address",
          "name": "",
          "type": "address"
        }
      ],
      "name": "users",
      "outputs": [
        {
          "internalType": "bool",
          "name": "isRegistered",
          "type": "bool"
        },
        {
          "internalType": "bool",
          "name": "isActive",
          "type": "bool"
        },
        {
          "internalType": "address",
          "name": "sponsor",
          "type": "address"
        },
        {
          "internalType": "uint256",
          "name": "directCount",
          "type": "uint256"
        },
        {
          "internalType": "address",
          "name": "binaryParent",
          "type": "address"
        },
        {
          "internalType": "bool",
          "name": "placedLeft",
          "type": "bool"
        },
        {
          "internalType": "address",
          "name": "leftChild",
          "type": "address"
        },
        {
          "internalType": "address",
          "name": "rightChild",
          "type": "address"
        },
        {
          "internalType": "uint256",
          "name": "leftSubUsers",
          "type": "uint256"
        },
        {
          "internalType": "uint256",
          "name": "rightSubUsers",
          "type": "uint256"
        },
        {
          "internalType": "uint256",
          "name": "matchedPairs",
          "type": "uint256"
        },
        {
          "internalType": "uint256",
          "name": "mvtBalance",
          "type": "uint256"
        },
        {
          "internalType": "uint256",
          "name": "totalReceived",
          "type": "uint256"
        },
        {
          "internalType": "uint256",
          "name": "totalSold",
          "type": "uint256"
        },
        {
          "internalType": "uint256",
          "name": "incomeLimit",
          "type": "uint256"
        },
        {
          "internalType": "uint256",
          "name": "usdtBalance",
          "type": "uint256"
        },
        {
          "internalType": "uint256",
          "name": "rebirthPool",
          "type": "uint256"
        },
        {
          "internalType": "uint256",
          "name": "totalUsdtEarned",
          "type": "uint256"
        },
        {
          "internalType": "uint256",
          "name": "btcPoolBalance",
          "type": "uint256"
        },
        {
          "internalType": "uint256",
          "name": "totalBtcEarned",
          "type": "uint256"
        },
        {
          "internalType": "uint256",
          "name": "powerLegPoints",
          "type": "uint256"
        },
        {
          "internalType": "address",
          "name": "mainAccount",
          "type": "address"
        },
        {
          "internalType": "uint256",
          "name": "rebirthCount",
          "type": "uint256"
        },
        {
          "internalType": "uint256",
          "name": "joinedAt",
          "type": "uint256"
        },
        {
          "internalType": "string",
          "name": "displayName",
          "type": "string"
        },
        {
          "internalType": "string",
          "name": "email",
          "type": "string"
        },
        {
          "internalType": "string",
          "name": "phone",
          "type": "string"
        },
        {
          "internalType": "string",
          "name": "country",
          "type": "string"
        },
        {
          "internalType": "bool",
          "name": "profileSet",
          "type": "bool"
        }
      ],
      "stateMutability": "view",
      "type": "function"
    },
    {
      "inputs": [
        {
          "internalType": "address",
          "name": "to",
          "type": "address"
        },
        {
          "internalType": "uint256",
          "name": "amount",
          "type": "uint256"
        }
      ],
      "name": "withdrawAdminPool",
      "outputs": [],
      "stateMutability": "nonpayable",
      "type": "function"
    },
    {
      "inputs": [
        {
          "internalType": "uint256",
          "name": "amount",
          "type": "uint256"
        }
      ],
      "name": "withdrawBtcPool",
      "outputs": [],
      "stateMutability": "nonpayable",
      "type": "function"
    },
    {
      "inputs": [
        {
          "internalType": "address",
          "name": "to",
          "type": "address"
        },
        {
          "internalType": "uint256",
          "name": "amount",
          "type": "uint256"
        }
      ],
      "name": "withdrawReservePool",
      "outputs": [],
      "stateMutability": "nonpayable",
      "type": "function"
    },
    {
      "inputs": [
        {
          "internalType": "uint256",
          "name": "amount",
          "type": "uint256"
        }
      ],
      "name": "withdrawUsdt",
      "outputs": [],
      "stateMutability": "nonpayable",
      "type": "function"
    }
  ],
  "bytecode": "0x60a0346200016757601f62003ef738819003918201601f19168301916001600160401b038311848410176200016c57808492604094855283398101031262000167576200005a6020620000528362000182565b920162000182565b9033156200014e576000549160018060a01b03199233848216176000556040519060018060a01b03938491823391167f8be0079c531659141344cd1fd0a4f28419497f9722a3daafe3b4186f6b6457e0600080a360017f9b779b17422d0df92223018b32b4d1fa46e071723d6817e2486d003becc55f005516908115801562000143575b62000134575060805216906001541617600155604051613d5f908162000198823960805181818161070c01528181610a5b01528181610ca60152818161111701528181611d41015281816129260152612eca0152f35b63d92e233d60e01b8152600490fd5b5083831615620000de565b604051631e4fbdf760e01b815260006004820152602490fd5b600080fd5b634e487b7160e01b600052604160045260246000fd5b51906001600160a01b0382168203620001675756fe61032080604052600436101561001457600080fd5b600090813560e01c9081630266f04414612a2257508063039ccc26146129fe57806303c3ecb7146129b85780630f15f4c0146128bc5780630f53a470146127fc5780631ce5e8941461278a5780631f6259d5146127615780632335821b146127285780632808bc8d146126645780632d641f081461262757806338abfc41146126095780633ac272c2146125ea57806344e374d514610c1857806347cd5191146125cb57806352375bb11461259c57806355509c8f14611fd1578063634f627e14611cbb5780636386c1c714611aed57806368ddb2b514611a15578063715018a6146119cd5780637753784414610c185780637f1b4064146119af5780638a8f04291461179e5780638da5cb5b1461177757806392446e301461175b57806394915dd0146114785780639499a3511461143f578063a2bdedf4146113fb578063a87430ba14611146578063a98ad46c14611101578063aa33f5d514610d8f578063aa39375714610d6b578063b58e027814610c3b578063b86a1fb214610c1d578063be648bdb14610c18578063bff1f9e114610bfa578063c9d484cf14610bd1578063ce8292f514610b3d578063d3635a02146109f0578063d4a902861461091e578063e3ba9bda146108b4578063e4093a661461064e578063e51cb53014610600578063eb63e1c2146105d9578063ec50324a146104da578063f00b0093146104a1578063f0b7b9dc1461037f578063f24c536a14610306578063f2fde38b146102905763fb72ca351461024857600080fd5b3461028d57602036600319011261028d576040906001600160a01b0361026c612a3e565b168152600b602052818082205491600c602052205482519182526020820152f35b80fd5b503461028d57602036600319011261028d576102aa612a3e565b6102b2612c3a565b6001600160a01b039081169081156102ed576000548260018060a01b031982161760005516600080516020613cca833981519152600080a380f35b604051631e4fbdf760e01b815260048101849052602490fd5b503461028d57602036600319011261028d576040906001600160a01b0361032b612a3e565b1681526003602052818120906007600583015460068401548082106000146103775750925b01548083111561037157610365915082612c9f565b82519182526020820152f35b50610365565b905092610350565b503461028d57606036600319011261028d57610399612a3e565b602435906103a5612cf9565b6002546001600160a01b03919082163303610468577f2393acb59b41dd645f68fe97bab0deba2a21b99efc69761e9b2762f11bbbe79d9160409116926103ec841515612d29565b6103f7811515612d29565b8385526003602052600c82862001610410828254612d5a565b90558385526003602052600e8286200161042b828254612d5a565b9055838552600c602052818520610443828254612d5a565b905581519081526044356020820152a26001600080516020613d0a8339815191525580f35b60405162461bcd60e51b81526020600482015260116024820152702737ba103137b0b932103430b7323632b960791b6044820152606490fd5b503461028d57602036600319011261028d576020906040906001600160a01b036104c9612a3e565b168152600b83522054604051908152f35b503461028d57604036600319011261028d576104f4612a3e565b60243590610500612c3a565b6001600160a01b03169081156105c75760075481811061058b57816105487f0529afc4538720fe0b3eadc40486369ab962002d72fead1387b300c66073e7bf93602093612c9f565b6007558385526003825260086040862001610564828254612d5a565b9055838552600382526009604086200161057f828254612d5a565b9055604051908152a280f35b60405162461bcd60e51b8152602060048201526014602482015273115e18d959591cc81c995cd95c9d99481c1bdbdb60621b6044820152606490fd5b60405163d92e233d60e01b8152600490fd5b503461028d57602036600319011261028d5760206105f8600435613b8c565b604051908152f35b503461028d57602036600319011261028d57604090600d9082906001600160a01b0361062a612a3e565b168152600360205220015481519068070c1cc73b00c8000081101582526020820152f35b503461028d578060031936011261028d57610667612cf9565b6002546001600160a01b039081169081156108a2576024903384526020926003845283604086209161069f60ff845460081c16612c66565b6040516347cd519160e01b81526001600482015294859182905afa92831561085057859361086d575b50600f01805483811061085b57836106df91612c9f565b905561070683838360025416604051938492839263a9059cbb60e01b845260048401612ccf565b038188867f0000000000000000000000000000000000000000000000000000000000000000165af1908115610850578591610817575b5015610805578390338252600b8452604082206107598154612cea565b905560025416803b156108015781809160446040518094819363686a38bd60e01b8352336004840152600160248401525af180156107f6576107de575b505060405191600183528201527f4e755dd64e53a9f7a5882e2e32eb64718c2273de11e017bd47129b9fe2716d7c60403392a26001600080516020613d0a8339815191525580f35b6107e790612b5e565b6107f2578238610796565b8280fd5b6040513d84823e3d90fd5b5080fd5b6040516312171d8360e31b8152600490fd5b90508381813d8311610849575b61082e8183612b71565b810103126108455761083f90612cc2565b3861073c565b8480fd5b503d610824565b6040513d87823e3d90fd5b604051630856d68760e11b8152600490fd5b9092508381813d831161089b575b6108858183612b71565b81010312610896575191600f6106c8565b600080fd5b503d61087b565b60405163632100f760e11b8152600490fd5b503461028d57602036600319011261028d576108ce612a3e565b6108d6612c3a565b6001600160a01b031680156105c757600280546001600160a01b031916821790557f49424f87d81e4374ee3e8d1cf7b880966981a3cf6a7ac1d7a66c13d91756fccc8280a280f35b503461028d5761092d36612a94565b90606060018060a01b039260448460025416936040519485938492636a54814360e11b8452600484015260248301525afa9081156109e55783928491859361098a575b506060945060405193168352602083015215156040820152f35b93509150506060823d82116109dd575b816109a760609383612b71565b810103126107f257815181811681036109d957606093506109cf604060208501519401612cc2565b9092909138610970565b8380fd5b3d915061099a565b6040513d85823e3d90fd5b503461028d576020806003193601126108015760043590610a0f612cf9565b8115610b2b5733835260038152600c60408420018054838110610b195783610a3691612c9f565b905560405163a9059cbb60e01b8152818180610a56863360048401612ccf565b0381877f00000000000000000000000000000000000000000000000000000000000000006001600160a01b03165af1908115610b0e578491610ad9575b5015610805577fbdd3f02d2a57fb53c1156f98470b61cb60712d485c27c36a49b1263dabcde201906040519283523392a26001600080516020613d0a8339815191525580f35b90508181813d8311610b07575b610af08183612b71565b810103126109d957610b0190612cc2565b38610a93565b503d610ae6565b6040513d86823e3d90fd5b60405163b55c1bad60e01b8152600490fd5b604051631f2a200560e01b8152600490fd5b503461028d578060031936011261028d576001546040516370a0823160e01b81523060048201529190602090839060249082906001600160a01b03165afa908115610bc55790610b93575b602090604051908152f35b506020813d8211610bbd575b81610bac60209383612b71565b810103126108965760209051610b88565b3d9150610b9f565b604051903d90823e3d90fd5b503461028d578060031936011261028d576002546040516001600160a01b039091168152602090f35b503461028d578060031936011261028d576020600554604051908152f35b612aaa565b503461028d578060031936011261028d576020600854604051908152f35b503461028d576020806003193601126108015760043590610c5a612cf9565b8115610b2b5733835260038152600f60408420018054838110610d595783610c8191612c9f565b905560405163a9059cbb60e01b8152818180610ca1863360048401612ccf565b0381877f00000000000000000000000000000000000000000000000000000000000000006001600160a01b03165af1908115610b0e578491610d24575b5015610805577f12701e4764b73009ab9826933c421483e4280410091fcc760515e0fa99fa766b906040519283523392a26001600080516020613d0a8339815191525580f35b90508181813d8311610d52575b610d3b8183612b71565b810103126109d957610d4c90612cc2565b38610cde565b503d610d31565b604051636dae861760e11b8152600490fd5b503461028d578060031936011261028d5760206040516815245655b1025800008152f35b503461028d57606036600319011261028d57610da9612a3e565b6024356001600160a01b03811690036108965760443515156044350361089657338252600360205260ff6040832054166110ef57600554610ed657336000908152600360205260409020805461ff01600160b01b03191660011781556002810180546001600160a81b03191690556012810180546001600160a01b031916905542601490910155600454600160401b811015610ec057806001610e4f9201600455612af3565b81546001600160a01b0360039290921b91821b19163390911b179055600554610e7790612cea565b6005555b604051604435151581526001600160a01b03602435811692169033907f34ff37874d7443037a85c6f390fe14f2ae3e8767355de0e63891ad4367c2753990602090a480f35b634e487b7160e01b600052604160045260246000fd5b6001600160a01b0381168083526003602052604083205460ff16156110dd576024356001600160a01b03161515806110bc575b156110b6576024355b60443580611093575b61105e576044351580611070575b61105e57336000908152600360205260409020805461ff01600160b01b031916601085901b62010000600160b01b03161760011781556002810180546001600160a81b0319166001600160a01b03909316928317604435151560a01b60ff60a01b161790556012810180546001600160a01b031990811690915542601490920191909155600454909190600160401b811015610ec057806001610fcf9201600455612af3565b81546001600160a01b0360039290921b91821b19163390911b179055600554610ff790612cea565b600555604435156110425784526003602052600360408520019033908254161790555b82526003602052600160408320016110328154612cea565b905561103d33612d67565b610e7b565b845260036020526004604085200190339082541617905561101a565b60405163d5dd5c3d60e01b8152600490fd5b506001600160a01b03818116855260036020526040852060040154161515610f29565b506001600160a01b03818116855260036020819052604086200154161515610f1b565b81610f12565b506024356001600160a01b031683526003602052604083205460ff16610f09565b604051632f212e0d60e11b8152600490fd5b604051630ea075bf60e21b8152600490fd5b503461028d578060031936011261028d576040517f00000000000000000000000000000000000000000000000000000000000000006001600160a01b03168152602090f35b503461028d57602036600319011261028d576040906001600160a01b0361116b612a3e565b168152600360205220806102e05280808080808080808080808061122e6015600f600e600d600c600b600a600960086007600660058d549d600181015460e05260028101546101805260018060a01b036003820154166102c052600460018060a01b03910154169e01549e01549e01549e01549e01549e01549e01549e01549e01549e01549e01549e60108101546101a05260118101546101c05260018060a01b0360128201541660a05260138101546102405260148101546101405201612b94565b6102805261124160166102e05101612b94565b6101605261125460176102e05101612b94565b6102005261126760186102e05101612b94565b6101e05260ff60196102e051015416610220526040518060805260ff82161515905260ff8160081c1615156020608051015260018060a01b039060101c166040608051015260e0516060608051015260018060a01b03610180511660808051015260ff6101805160a01c16151560a060805101526102c05160c0608051015260e06080510152610100608051015261012060805101526101406080510152610160608051015261018060805101526101a060805101526101c060805101526101e060805101526102006080510152610220608051015261024060805101526101a05161026060805101526101c051610280608051015260a0516102a06080510152610240516102c06080510152610140516102e060805101526113e46113cf6113ba6113a56103a08061030060805101526080510161028051612a54565b60805161032081830391015261016051612a54565b60805161034081830391015261020051612a54565b6080516103608183039101526101e051612a54565b610220511515610380608051015260805180910390f35b503461028d57602036600319011261028d576004359060045482101561028d57602061142683612af3565b905460405160039290921b1c6001600160a01b03168152f35b503461028d57602036600319011261028d57606061146361145e612a3e565b613c10565b90604051921515835260208301526040820152f35b503461028d57604036600319011261028d57611492612a3e565b602435908115158203610896576114a7612cf9565b6001600160a01b03818116929083156105c75733855260039260209380855260408720918254916114dd60ff8460081c16612c66565b600d840180549068070c1cc73b00c80000808310611749578a8c52838a5260ff60408d2054166117045768070c1cc73b00c7ffff1983019283116116f0578083106116e55761152d908093612c9f565b9055600c850161153e828254612d5a565b905561154f600e8601918254612d5a565b90556815245655b102580000600b850155611570858460101c169633613595565b60008a8152838a5260409020805461ff01600160b01b03191662010000600160b01b039096169590951760011785556002850180546001600160a81b03191692881692831782151560a01b60ff60a01b161790556012850180546001600160a01b0319908116331790915542601490960195909555600454909790949091600160401b861015610ec0577f30016ed357540281a6cff6143637e72b48e105d85d15df66b0aaffbd23790240986013988c6116338960016116819b01600455612af3565b9092835491891b92831b921b191617905561164f600554612cea565b600555156116cc578b52828952898360408d2001918254161790555b806116ae575b505061167c81612d67565b612e5d565b019161168d8354612cea565b8093556040519283523392a36001600080516020613d0a8339815191525580f35b89528652600160408920016116c38154612cea565b90553880611671565b8b5282895289600460408d20019182541617905561166b565b5061152d8280612c9f565b634e487b7160e01b8c52601160045260248cfd5b60405162461bcd60e51b8152600481018b9052601e60248201527f5375622d6163636f756e7420616c7265616479207265676973746572656400006044820152606490fd5b6040516307db32bd60e31b8152600490fd5b503461028d578060031936011261028d576020604051600a8152f35b503461028d578060031936011261028d57546040516001600160a01b039091168152602090f35b503461028d576117ad36612a94565b6117b5612c3a565b6117bd612cf9565b60ff600a54161561199d576117d29082612d5a565b600454808211611995575b508290825b81811061195557506009908154938315158061194c575b1561193457805b8281106118a55750908592915b81811061186757837f7f4a5b69bea14a6fc05326671a02e90d4a88855c83a18529c260057b1bf61a856040888884885560ff19600a5416600a5582519182526020820152a16001600080516020613d0a8339815191525580f35b61189c9192935061187781612af3565b9054600391821b1c6001600160a01b0316885260205260408720601101879055612cea565b9085929161180d565b806118b261192592612af3565b9054600391821b1c6001600160a01b0316808a52602082815260408b206011015491929189811561192a576118ea6118ef928d612e06565b612e19565b92808c52828252600860408d2001611908858254612d5a565b90558b525261191e8660408b2001918254612d5a565b9055612cea565b611800565b5050505050612cea565b61194085600854612d5a565b6008559085929161180d565b508415156117f9565b9161198a6119909161196685612af3565b9054600391821b1c6001600160a01b03168852602052604087206011015490612d5a565b92612cea565b6117e2565b9050386117dd565b60405163418826bf60e11b8152600490fd5b503461028d578060031936011261028d576020600654604051908152f35b503461028d578060031936011261028d576119e6612c3a565b600080546001600160a01b0319811682556001600160a01b0316600080516020613cca8339815191528280a380f35b503461028d578060031936011261028d57600154604051623144bd60e31b81526001600160a01b039091169160208083600481875afa9283156107f6578293611abc575b5080600494604051958680926310f4cba760e21b82525afa918215610bc55791611a8c575b604080945051928352820152f35b80915083813d8311611ab5575b611aa38183612b71565b81010312610896576040925190611a7e565b503d611a99565b9392508084813d8311611ae6575b611ad48183612b71565b81010312610896579251919280611a59565b503d611aca565b503461028d57602036600319011261028d576040906001600160a01b03611b12612a3e565b1681526003602052208080808080808080808080808054600182015461010052600282015461026052601460076011600f600d600c600b600a60096008600660058d600360018060a01b03910154169d600460018060a01b03910154169e01549e01549e01549e01549e01549e01549e01549e01549e01549e01549e01549e60018060a01b036012820154166102a052601381015460c052015461012052604051806103005260ff82161515905260ff8160081c161515602061030051015260018060a01b039060101c16604061030051015261010051606061030051015260018060a01b036102605116608061030051015260ff6102605160a01c16151560a061030051015260c061030051015260e06103005101526101006103005101526101206103005101526101406103005101526101606103005101526101806103005101526101a06103005101526101c06103005101526101e06103005101526102006103005101526102206103005101526102406103005101526102a05161026061030051015260c051610280610300510152610120516102a06103005101526102c061030051f35b503461028d576020806003193601126108015760043590611cda612cf9565b8115610b2b5733835260038152604083209060ff825460081c1615611fbf57600882018054848110611fad5784611d1091612c9f565b9055600a8201611d21848254612d5a565b90556040516370a0823160e01b8082523060048301526001600160a01b037f0000000000000000000000000000000000000000000000000000000000000000811692919087908584602481885afa9384156107f6578294611f7e575b5060015416803b156108015781906024604051809481936372424d9960e11b83528c60048401525af18015611f7357611f60575b50839060246040518095819382523060048301525afa8015611f55578690611f26575b611dde9250612c9f565b91600a8302838104600a1484151715611f12577f8f7262d5a031d4d671e1fdb0cddcd26d37185226f9e82f2f18877141ac1963eb939291611e266064611ee793048095612c9f565b92600f8201611e36868254612d5a565b905560108201611e47868254612d5a565b90557f2b1d2104e84dd4dabb0cca024171f783ab1e1c9dc1af9d60a2361596653a99c4604051918683523392a2600b8101805491888315611f055750600d9083861115611eff57835b8093611eb782611ea0818b612c9f565b97600c8601611eb0838254612d5a565b9055612c9f565b9055611ec8600e8301918254612d5a565b90555b01611ed7838254612d5a565b9055604051948594339886612e39565b0390a26001600080516020613d0a8339815191525580f35b85611e90565b91509150600d8492611ecb565b634e487b7160e01b86526011600452602486fd5b508282813d8311611f4e575b611f3c8183612b71565b8101031261089657611dde9151611dd4565b503d611f32565b6040513d88823e3d90fd5b96611f6c859298612b5e565b9690611db1565b6040513d8a823e3d90fd5b9093508581813d8311611fa6575b611f968183612b71565b8101031261080157519238611d7d565b503d611f8c565b60405163208975e760e21b8152600490fd5b60405163aba4733960e01b8152600490fd5b503461028d57608036600319011261028d576004356001600160401b03811161080157612002903690600401612ac6565b91906024356001600160401b0381116107f257612023903690600401612ac6565b6044356001600160401b03811161084557612042903690600401612ac6565b90916064356001600160401b03811161259857612063903690600401612ac6565b949097338852600360205260ff6040892054161561256257338852600360205260408820966001600160401b03821161254e5781906120a560158a0154612b24565b601f81116124fe575b508990601f8311600114612492578a92612487575b50508160011b916000199060031b1c19161760158701555b6001600160401b0382116124735781906120f86016880154612b24565b601f8111612420575b508790601f83116001146123b45788926123a9575b50508160011b916000199060031b1c19161760168501555b60178401916001600160401b03821161239557819061214d8454612b24565b601f8111612345575b508690601f83116001146122df5787926122d4575b50508160011b916000199060031b1c19161790555b60188201906001600160401b0381116122c05761219d8254612b24565b601f811161227b575b5083601f8211600114612214578190859660199692612209575b50508160011b916000199060031b1c19161790555b01805460ff19166001179055337fbe4ec58a792f909e102ee3d745d0c3b34a4d437a54d903c4db098d31c556422f8280a280f35b0135905038806121c0565b8285526020852090601f198316865b8181106122635750968392916001946019989910612249575b505050811b0190556121d5565b0135600019600384901b60f8161c1916905538808061223c565b9192602060018192868c013581550194019201612223565b82855260208520601f830160051c810191602084106122b6575b601f0160051c01905b8181106122ab57506121a6565b85815560010161229e565b9091508190612295565b634e487b7160e01b84526041600452602484fd5b01359050388061216b565b84885260208820925090601f198416885b81811061232d5750908460019594939210612313575b505050811b019055612180565b0135600019600384901b60f8161c19169055388080612306565b919360206001819287870135815501950192016122f0565b90915083875260208720601f840160051c8101916020851061238b575b90601f859493920160051c01905b81811061237d5750612156565b888155849350600101612370565b9091508190612362565b634e487b7160e01b86526041600452602486fd5b013590503880612116565b60168801895260208920925090601f198416895b81811061240857509084600195949392106123ee575b505050811b01601685015561212e565b0135600019600384901b60f8161c191690553880806123de565b919360206001819287870135815501950192016123c8565b90915060168701885260208820601f840160051c81019160208510612469575b90601f859493920160051c01905b81811061245b5750612101565b89815584935060010161244e565b9091508190612440565b634e487b7160e01b87526041600452602487fd5b0135905038806120c3565b60158a018b5260208b20925090601f1984168b5b8181106124e657509084600195949392106124cc575b505050811b0160158701556120db565b0135600019600384901b60f8161c191690553880806124bc565b919360206001819287870135815501950192016124a6565b909150601589018a5260208a20601f840160051c810160208510612547575b90849392915b601f830160051c820181106125395750506120ae565b8c8155859450600101612523565b508061251d565b634e487b7160e01b89526041600452602489fd5b60405162461bcd60e51b815260206004820152600e60248201526d139bdd081c9959da5cdd195c995960921b6044820152606490fd5b8680fd5b503461028d578060031936011261028d5760606006546007546008549060405192835260208301526040820152f35b503461028d57602036600319011261028d5760206105f8600435613b09565b503461028d57602036600319011261028d5760206105f8600435613bce565b503461028d578060031936011261028d576020600454604051908152f35b503461028d5761264f61263936612a94565b90612642612c3a565b61264a612cf9565b6137cf565b6001600080516020613d0a8339815191525580f35b503461028d57604036600319011261028d5761267e612a3e565b6024359061268a612c3a565b6001600160a01b03169081156105c7576008548181106126ee57816126d27fba443e8671971c36cdeb74f87321041daff421230cbc5e36cb835269ed1d8b7e93602093612c9f565b6008558385526003825260086040862001610564828254612d5a565b60405162461bcd60e51b8152602060048201526012602482015271115e18d959591cc818591b5a5b881c1bdbdb60721b6044820152606490fd5b503461028d57602036600319011261028d576020906040906001600160a01b03612750612a3e565b168152600c83522054604051908152f35b503461028d578060031936011261028d576001546040516001600160a01b039091168152602090f35b503461028d57602036600319011261028d576127a4612a3e565b6127ac612c3a565b6001600160a01b031680156105c757600180546001600160a01b031916821790556040519081527ffa7bd61554593f4e69cdffd255d3fe947352b02c7d3ec68059384934e4cfd47c90602090a180f35b503461028d57602036600319011261028d57612886906040906001600160a01b03612825612a3e565b16815260036020522060ff6019820154166128b061284560158401612b94565b926128a261285560168301612b94565b91612894612871601861286a60178501612b94565b9301612b94565b9360405198899860a08a5260a08a0190612a54565b9088820360208a0152612a54565b908682036040880152612a54565b908482036060860152612a54565b90151560808301520390f35b503461028d578060031936011261028d576128d5612cf9565b3381526003602052604081205460ff811615611fbf5760081c60ff166129a6576040516323b872dd60e01b815233600482015230602482015268070c1cc73b00c800006044820152602081606481857f00000000000000000000000000000000000000000000000000000000000000006001600160a01b03165af19081156107f657829161296d575b50156108055761264f33612e5d565b90506020813d821161299e575b8161298760209383612b71565b810103126108015761299890612cc2565b3861295e565b3d915061297a565b604051637cdf305160e11b8152600490fd5b503461028d57602036600319011261028d5760409081906001600160a01b036129df612a3e565b1681526003602052206010600f82015491015482519182526020820152f35b503461028d578060031936011261028d57602060405168070c1cc73b00c800008152f35b9050346108015781600319360112610801576020906007548152f35b600435906001600160a01b038216820361089657565b919082519283825260005b848110612a80575050826000602080949584010152601f8019910116010190565b602081830181015184830182015201612a5f565b6040906003190112610896576004359060243590565b34610896576000366003190112610896576020604051601e8152f35b9181601f84011215610896578235916001600160401b038311610896576020838186019501011161089657565b600454811015612b0e57600460005260206000200190600090565b634e487b7160e01b600052603260045260246000fd5b90600182811c92168015612b54575b6020831014612b3e57565b634e487b7160e01b600052602260045260246000fd5b91607f1691612b33565b6001600160401b038111610ec057604052565b601f909101601f19168101906001600160401b03821190821017610ec057604052565b9060405191826000825492612ba884612b24565b908184526001948581169081600014612c175750600114612bd4575b5050612bd292500383612b71565b565b9093915060005260209081600020936000915b818310612bff575050612bd293508201013880612bc4565b85548884018501529485019487945091830191612be7565b915050612bd294506020925060ff191682840152151560051b8201013880612bc4565b6000546001600160a01b03163303612c4e57565b60405163118cdaa760e01b8152336004820152602490fd5b15612c6d57565b60405162461bcd60e51b815260206004820152600a6024820152694e6f742061637469766560b01b6044820152606490fd5b91908203918211612cac57565b634e487b7160e01b600052601160045260246000fd5b5190811515820361089657565b6001600160a01b039091168152602081019190915260400190565b6000198114612cac5760010190565b600080516020613d0a8339815191526002815414612d175760029055565b604051633ee5aeb560e01b8152600490fd5b15612d3057565b60405162461bcd60e51b81526020600482015260026024820152615a4160f01b6044820152606490fd5b91908201809211612cac57565b60018060a01b039182600092168252600391602092808452600291604091838383200154958787169560ff96898860a09a8b1c16915b16908115612df95715612ddc57808552838352600586862001612dc08154612cea565b90555b8452828252858585200154898089838c1c169216612d9d565b808552838352600686862001612df28154612cea565b9055612dc3565b5050975050505050505050565b81810292918115918404141715612cac57565b8115612e23570490565b634e487b7160e01b600052601260045260246000fd5b9192608093969594919660a084019784526020840152604083015260608201520152565b600154604051623144bd60e31b8152600093909290916001600160a01b0316602084600481845afa9384156108505785946133bf575b5083156133ab5760405163095ea7b360e01b8152600481019190915268070c1cc73b00c800006024820181905290602081604481897f00000000000000000000000000000000000000000000000000000000000000006001600160a01b03165af18015611f555761336e575b506001546040516370a0823160e01b8082523060048301529290918791906001600160a01b0316602084602481845afa9384156109e557839461333a575b50803b156107f257604483926040519485938492634e538d9360e11b845230600485015260248401525af1801561332f5761331c575b50600154604051928352306004840152602090839060249082906001600160a01b03165afa8015611f555786906132e8575b612faf9250612c9f565b92601e6b030e68b6d6e0acc82863363160251b82900481810292918184041490151715611f1257613029613021613006606485046130018181816b030e68b6d6e0acc82863363160251b899004612c9f565b612c9f565b61301560648604600654612d5a565b60065560648504612d5a565b600854612d5a565b6008556001600160a01b038381168752600360205260408720805461ff001916610100178082556815245655b102580000600b9092019190915560019588949092909160101c165b600a60ff88161115806132d6575b15613246576130a0876b030e68b6d6e0acc82863363160251b869004613408565b94851561322057856130b191612d5a565b6001600160a01b0382168a52600360205260408a20805491969160081c60ff169081613209575b50156131b9576001600160a01b0382168a52600360205260408a206008018054613103908390612d5a565b90556001600160a01b0382168a52600360205260408a20600901805461312a908390612d5a565b90556040516001600160a01b0388811692908416917fb16479bdac5b7099d9236d6fc6be3b30ff54188f4fd961686e1e1dc7ecb8803791819061316e908d836133f3565b0390a35b6001600160a01b0390811689526003602052604089205460101c16955b60ff9081808216146131a5571660010195613071565b634e487b7160e01b8a52601160045260248afd5b6131c581600854612d5a565b6008557f117ca0cd821ecb7eadfea2d6927a67853908bdc351a386235215f5ab6071bfed6040518061320160018060a01b038616948c836133f3565b0390a2613172565b60019150015461321889613554565b1115386130d8565b6001600160a01b039182168a52600360205260408a205460101c9091169690945061318f565b5093926132b892969197507f8af2c013a5a55c6d3ad5423522fe76c6f2eb831b5e23318276b3c678cb457fc995508060648604116132bd575b506040516001600160a01b039093169592938493606490910491829182916b030e68b6d6e0acc82863363160251b919091049086612e39565b0390a2565b6130216132cd9160648704612c9f565b6008553861327f565b506001600160a01b038116151561307f565b506020823d602011613314575b8161330260209383612b71565b8101031261089657612faf9151612fa5565b3d91506132f5565b61332890969196612b5e565b9438612f73565b6040513d89823e3d90fd5b9093506020813d602011613366575b8161335660209383612b71565b810103126107f257519238612f3d565b3d9150613349565b6020813d6020116133a3575b8161338760209383612b71565b8101031261339f5761339890612cc2565b5038612eff565b8580fd5b3d915061337a565b634e487b7160e01b85526012600452602485fd5b9093506020813d6020116133eb575b816133db60209383612b71565b8101031261084557519238612e93565b3d91506133ce565b6020909392919360ff60408201951681520152565b9060ff1660018114613539576002811461351e5760038114613503576004908181146134ec57600581146134cf57600681146134cf57600781146134b257600881146134b2576009811461349557600a14613464575050600090565b8160011b918083046002149015171561348057506103e8900490565b601190634e487b7160e01b6000525260246000fd5b508160011b918083046002149015171561348057506103e8900490565b5060038202918083046003149015171561348057506103e8900490565b5060058202918083046005149015171561348057506103e8900490565b508180046001148215171561348057506064900490565b508060011b9080820460021490151715612cac576064900490565b50600581029080820460051490151715612cac576064900490565b50601481029080820460141490151715612cac576064900490565b60ff60049116111561356557600590565b600290565b6001600160401b038111610ec05760051b60200190565b8051821015612b0e5760209160051b010190565b81806137ac575b6137a5578115918280613780575b61377857600554926001808501809511612cac576135c78561356a565b906135e26040966135da88519485612b71565b80845261356a565b9260209283810194601f19013686376000808715613759576001600160a01b03898116835260038088528b8420015416965b6001600160a01b0397881680613745575b50505b8181106136a35750505080613688575b61367e575082613661575b505061365a57815163c5bb5bcd60e01b8152600490fd5b9160009150565b816003929350841660005252600483600020015416153880613643565b9594505050509190565b50828516600052600382528260038760002001541615613638565b866136b76136b083612cea565b9285613581565b51168060005260038088528b600020918982840154168015613732578a600480950154161561371e57908a9392916136f86136f188612cea565b9789613581565b5260005288528b60002001541661371861371184612cea565b9385613581565b52613628565b509b50505050505050505050505090600090565b509a505050505050509594505050509190565b9092508592845115612b0e57523880613625565b6001600160a01b038981168352600387528a8320600401541696613614565b509160009150565b506001600160a01b0382811660009081526003602052604090206004015416156135aa565b9160019150565b5060018060a01b038082166000526003602052600360406000200154161561359c565b60ff91600a83815416613af8576006908154948515613abf57600080845560468702878104604603613aab57606490049361380a8589612c9f565b9561381a60099188835589612d5a565b926004948554808611613aa3575b508199805b868110613a0f57508a156139c4575b85811061388357505050505050509160809391600080516020613cea8339815191529593600160ff19825416179055604051938452602084015260408301526060820152a1565b8a888a61388f84612af3565b90549060039160018060a01b0391831b1c16808852602090828252604093848a20958c8c8c8954928d600894851c16156139af5760058b0154908b0154808210156139a757509a5b60079a8b0154808d111561399f576138ef908d612c9f565b955b8615613989579161390b8b926118ea896139339796612e06565b948882528a8a5282822001613921868254612d5a565b90558781528989522001918254612d5a565b905580820291820403613975579061397097969594939291818b528383526139626011868d2001918254612d5a565b905589525286200155612cea565b61383c565b50634e487b7160e01b895260118d52602489fd5b5050505050505050505050505061397090612cea565b5081956138f1565b90509a6138d7565b50505050505050505050505061397090612cea565b50509560809850869550600080516020613cea83398151915299979194506139f193506130219250612d5a565b600855556040519182528060208301528060408301526060820152a1565b613a1881612af3565b9054600391821b1c6001600160a01b0316855260205260408420805460081c841615613a99576007600582015488830154808210600014613a915750915b015490818111613a71575b5050613a6c90612cea565b61382d565b9c613a83613a8992613a6c949f612c9f565b90612d5a565b9b9038613a61565b905091613a56565b50613a6c90612cea565b945038613828565b634e487b7160e01b82526011600452602482fd5b60405162461bcd60e51b8152602060048201526011602482015270115b5c1d1e48189a5b985c9e481c1bdbdb607a1b6044820152606490fd5b60405162c9487960e41b8152600490fd5b6002546001600160a01b0316908115613b85576020906024604051809481936347cd519160e01b835260048301525afa908115613b7957600091613b4b575090565b906020823d8211613b71575b81613b6460209383612b71565b8101031261028d57505190565b3d9150613b57565b6040513d6000823e3d90fd5b5050600090565b6002546001600160a01b0316908115613b85576020906024604051809481936375b1f0e160e11b835260048301525afa908115613b7957600091613b4b575090565b6002546001600160a01b0316908115613b8557602090602460405180948193631d61396160e11b835260048301525afa908115613b7957600091613b4b575090565b6002546001600160a01b03908116918215613cbb57166024600082815260206003815280600f60408420015495604051948580926347cd519160e01b8252600160048301525afa9283156107f6578293613c8b575b5060ff9160036040928596835252205460081c169081613c83575092565b905082101592565b9080935081813d8311613cb4575b613ca38183612b71565b8101031261080157519160ff613c65565b503d613c99565b50505060009060009060009056fe8be0079c531659141344cd1fd0a4f28419497f9722a3daafe3b4186f6b6457e0a0ea5705200c9ffd36dc735fef1592c3234bb7e311fc1b0a444f6370d0620eae9b779b17422d0df92223018b32b4d1fa46e071723d6817e2486d003becc55f00a2646970667358221220357a517a60dcfca0554f998bd663cffde7b69b1fa0ef9f269cd17f4a1813dee264736f6c63430008140033",
  "linkReferences": {},
  "deployedLinkReferences": {}
}