{
  "_format": "hh-sol-artifact-1",
  "contractName": "MvaultContract",
  "sourceName": "contracts/MvaultContract.sol",
  "abi": [
    {
      "inputs": [
        {
          "internalType": "address",
          "name": "_usdt",
          "type": "address"
        },
        {
          "internalType": "address",
          "name": "_mvaultToken",
          "type": "address"
        }
      ],
      "stateMutability": "nonpayable",
      "type": "constructor"
    },
    {
      "inputs": [],
      "name": "AlreadyActive",
      "type": "error"
    },
    {
      "inputs": [],
      "name": "AlreadyRegistered",
      "type": "error"
    },
    {
      "inputs": [],
      "name": "BinaryAlreadyDistributed",
      "type": "error"
    },
    {
      "inputs": [],
      "name": "BinaryNotDistributed",
      "type": "error"
    },
    {
      "inputs": [],
      "name": "BoardHandlerNotSet",
      "type": "error"
    },
    {
      "inputs": [],
      "name": "InsufficientBtcPool",
      "type": "error"
    },
    {
      "inputs": [],
      "name": "InsufficientBtcPoolForBoard",
      "type": "error"
    },
    {
      "inputs": [],
      "name": "InsufficientRebirthPool",
      "type": "error"
    },
    {
      "inputs": [],
      "name": "InsufficientUsdtBalance",
      "type": "error"
    },
    {
      "inputs": [],
      "name": "InsufficientVirtualBalance",
      "type": "error"
    },
    {
      "inputs": [],
      "name": "InvalidSponsor",
      "type": "error"
    },
    {
      "inputs": [],
      "name": "NoOpenBinarySlot",
      "type": "error"
    },
    {
      "inputs": [],
      "name": "NotRegistered",
      "type": "error"
    },
    {
      "inputs": [
        {
          "internalType": "address",
          "name": "owner",
          "type": "address"
        }
      ],
      "name": "OwnableInvalidOwner",
      "type": "error"
    },
    {
      "inputs": [
        {
          "internalType": "address",
          "name": "account",
          "type": "address"
        }
      ],
      "name": "OwnableUnauthorizedAccount",
      "type": "error"
    },
    {
      "inputs": [],
      "name": "PositionTaken",
      "type": "error"
    },
    {
      "inputs": [],
      "name": "ReentrancyGuardReentrantCall",
      "type": "error"
    },
    {
      "inputs": [],
      "name": "TransferFailed",
      "type": "error"
    },
    {
      "inputs": [],
      "name": "ZeroAddress",
      "type": "error"
    },
    {
      "inputs": [],
      "name": "ZeroAmount",
      "type": "error"
    },
    {
      "anonymous": false,
      "inputs": [
        {
          "indexed": true,
          "internalType": "address",
          "name": "user",
          "type": "address"
        },
        {
          "indexed": false,
          "internalType": "uint256",
          "name": "mvtMinted",
          "type": "uint256"
        },
        {
          "indexed": false,
          "internalType": "uint256",
          "name": "grossMvt",
          "type": "uint256"
        },
        {
          "indexed": false,
          "internalType": "uint256",
          "name": "levelAmt",
          "type": "uint256"
        },
        {
          "indexed": false,
          "internalType": "uint256",
          "name": "binaryAmt",
          "type": "uint256"
        },
        {
          "indexed": false,
          "internalType": "uint256",
          "name": "adminAmt",
          "type": "uint256"
        }
      ],
      "name": "Activated",
      "type": "event"
    },
    {
      "anonymous": false,
      "inputs": [
        {
          "indexed": true,
          "internalType": "address",
          "name": "to",
          "type": "address"
        },
        {
          "indexed": false,
          "internalType": "uint256",
          "name": "amount",
          "type": "uint256"
        }
      ],
      "name": "AdminWithdraw",
      "type": "event"
    },
    {
      "anonymous": false,
      "inputs": [
        {
          "indexed": false,
          "internalType": "uint256",
          "name": "totalPool",
          "type": "uint256"
        },
        {
          "indexed": false,
          "internalType": "uint256",
          "name": "binary70",
          "type": "uint256"
        },
        {
          "indexed": false,
          "internalType": "uint256",
          "name": "powerLeg30",
          "type": "uint256"
        },
        {
          "indexed": false,
          "internalType": "uint256",
          "name": "totalPairs",
          "type": "uint256"
        }
      ],
      "name": "BinaryIncomeDistributed",
      "type": "event"
    },
    {
      "anonymous": false,
      "inputs": [
        {
          "indexed": true,
          "internalType": "address",
          "name": "user",
          "type": "address"
        },
        {
          "indexed": false,
          "internalType": "uint256",
          "name": "newPairs",
          "type": "uint256"
        },
        {
          "indexed": false,
          "internalType": "uint256",
          "name": "amount",
          "type": "uint256"
        }
      ],
      "name": "BinaryIncomePaid",
      "type": "event"
    },
    {
      "anonymous": false,
      "inputs": [
        {
          "indexed": true,
          "internalType": "address",
          "name": "user",
          "type": "address"
        },
        {
          "indexed": false,
          "internalType": "uint256",
          "name": "boardLevel",
          "type": "uint256"
        },
        {
          "indexed": false,
          "internalType": "uint256",
          "name": "usdtDeducted",
          "type": "uint256"
        }
      ],
      "name": "BoardEntered",
      "type": "event"
    },
    {
      "anonymous": false,
      "inputs": [
        {
          "indexed": true,
          "internalType": "address",
          "name": "newHandler",
          "type": "address"
        }
      ],
      "name": "BoardHandlerUpdated",
      "type": "event"
    },
    {
      "anonymous": false,
      "inputs": [
        {
          "indexed": true,
          "internalType": "address",
          "name": "user",
          "type": "address"
        },
        {
          "indexed": false,
          "internalType": "uint256",
          "name": "usdtAmount",
          "type": "uint256"
        },
        {
          "indexed": false,
          "internalType": "uint256",
          "name": "boardLevel",
          "type": "uint256"
        }
      ],
      "name": "BoardRewardCredited",
      "type": "event"
    },
    {
      "anonymous": false,
      "inputs": [
        {
          "indexed": true,
          "internalType": "address",
          "name": "user",
          "type": "address"
        },
        {
          "indexed": false,
          "internalType": "uint256",
          "name": "amount",
          "type": "uint256"
        }
      ],
      "name": "BtcPoolCredited",
      "type": "event"
    },
    {
      "anonymous": false,
      "inputs": [
        {
          "indexed": true,
          "internalType": "address",
          "name": "user",
          "type": "address"
        },
        {
          "indexed": false,
          "internalType": "uint256",
          "name": "amount",
          "type": "uint256"
        }
      ],
      "name": "BtcPoolWithdrawn",
      "type": "event"
    },
    {
      "anonymous": false,
      "inputs": [
        {
          "indexed": true,
          "internalType": "address",
          "name": "user",
          "type": "address"
        },
        {
          "indexed": false,
          "internalType": "uint256",
          "name": "stakeIndex",
          "type": "uint256"
        },
        {
          "indexed": false,
          "internalType": "uint256",
          "name": "lockedSince",
          "type": "uint256"
        }
      ],
      "name": "ConvertedToLocked",
      "type": "event"
    },
    {
      "anonymous": false,
      "inputs": [
        {
          "indexed": true,
          "internalType": "address",
          "name": "to",
          "type": "address"
        },
        {
          "indexed": true,
          "internalType": "address",
          "name": "from",
          "type": "address"
        },
        {
          "indexed": false,
          "internalType": "uint8",
          "name": "level",
          "type": "uint8"
        },
        {
          "indexed": false,
          "internalType": "uint256",
          "name": "amount",
          "type": "uint256"
        }
      ],
      "name": "LevelIncomePaid",
      "type": "event"
    },
    {
      "anonymous": false,
      "inputs": [
        {
          "indexed": true,
          "internalType": "address",
          "name": "upline",
          "type": "address"
        },
        {
          "indexed": false,
          "internalType": "uint8",
          "name": "level",
          "type": "uint8"
        },
        {
          "indexed": false,
          "internalType": "uint256",
          "name": "amount",
          "type": "uint256"
        }
      ],
      "name": "LevelIncomeSkipped",
      "type": "event"
    },
    {
      "anonymous": false,
      "inputs": [
        {
          "indexed": false,
          "internalType": "address",
          "name": "newToken",
          "type": "address"
        }
      ],
      "name": "MvaultTokenUpdated",
      "type": "event"
    },
    {
      "anonymous": false,
      "inputs": [
        {
          "indexed": true,
          "internalType": "address",
          "name": "user",
          "type": "address"
        },
        {
          "indexed": false,
          "internalType": "uint256",
          "name": "mvtAmount",
          "type": "uint256"
        },
        {
          "indexed": false,
          "internalType": "uint256",
          "name": "usdtNet",
          "type": "uint256"
        },
        {
          "indexed": false,
          "internalType": "uint256",
          "name": "usdtToBtcPool",
          "type": "uint256"
        },
        {
          "indexed": false,
          "internalType": "uint256",
          "name": "usdtToIncome",
          "type": "uint256"
        },
        {
          "indexed": false,
          "internalType": "uint256",
          "name": "usdtToRebirth",
          "type": "uint256"
        }
      ],
      "name": "MvtSold",
      "type": "event"
    },
    {
      "anonymous": false,
      "inputs": [
        {
          "indexed": true,
          "internalType": "address",
          "name": "previousOwner",
          "type": "address"
        },
        {
          "indexed": true,
          "internalType": "address",
          "name": "newOwner",
          "type": "address"
        }
      ],
      "name": "OwnershipTransferred",
      "type": "event"
    },
    {
      "anonymous": false,
      "inputs": [
        {
          "indexed": false,
          "internalType": "uint256",
          "name": "totalPowerLeg30",
          "type": "uint256"
        },
        {
          "indexed": false,
          "internalType": "uint256",
          "name": "totalPowerLegs",
          "type": "uint256"
        }
      ],
      "name": "PowerLegDistributed",
      "type": "event"
    },
    {
      "anonymous": false,
      "inputs": [
        {
          "indexed": true,
          "internalType": "address",
          "name": "user",
          "type": "address"
        },
        {
          "indexed": false,
          "internalType": "uint256",
          "name": "powerLegPoints",
          "type": "uint256"
        },
        {
          "indexed": false,
          "internalType": "uint256",
          "name": "amount",
          "type": "uint256"
        }
      ],
      "name": "PowerLegIncomePaid",
      "type": "event"
    },
    {
      "anonymous": false,
      "inputs": [
        {
          "indexed": true,
          "internalType": "address",
          "name": "user",
          "type": "address"
        }
      ],
      "name": "ProfileUpdated",
      "type": "event"
    },
    {
      "anonymous": false,
      "inputs": [
        {
          "indexed": true,
          "internalType": "address",
          "name": "mainAccount",
          "type": "address"
        },
        {
          "indexed": true,
          "internalType": "address",
          "name": "subAccount",
          "type": "address"
        },
        {
          "indexed": false,
          "internalType": "uint256",
          "name": "rebirthIndex",
          "type": "uint256"
        }
      ],
      "name": "Reborn",
      "type": "event"
    },
    {
      "anonymous": false,
      "inputs": [
        {
          "indexed": true,
          "internalType": "address",
          "name": "user",
          "type": "address"
        },
        {
          "indexed": true,
          "internalType": "address",
          "name": "sponsor",
          "type": "address"
        },
        {
          "indexed": true,
          "internalType": "address",
          "name": "binaryParent",
          "type": "address"
        },
        {
          "indexed": false,
          "internalType": "bool",
          "name": "placeLeft",
          "type": "bool"
        }
      ],
      "name": "Registered",
      "type": "event"
    },
    {
      "anonymous": false,
      "inputs": [
        {
          "indexed": true,
          "internalType": "address",
          "name": "payer",
          "type": "address"
        },
        {
          "indexed": true,
          "internalType": "address",
          "name": "newUser",
          "type": "address"
        },
        {
          "indexed": true,
          "internalType": "address",
          "name": "sponsor",
          "type": "address"
        },
        {
          "indexed": false,
          "internalType": "bool",
          "name": "placeLeft",
          "type": "bool"
        }
      ],
      "name": "RegisteredAndActivatedFor",
      "type": "event"
    },
    {
      "anonymous": false,
      "inputs": [
        {
          "indexed": true,
          "internalType": "address",
          "name": "to",
          "type": "address"
        },
        {
          "indexed": false,
          "internalType": "uint256",
          "name": "amount",
          "type": "uint256"
        }
      ],
      "name": "ReserveWithdraw",
      "type": "event"
    },
    {
      "anonymous": false,
      "inputs": [
        {
          "indexed": true,
          "internalType": "address",
          "name": "to",
          "type": "address"
        },
        {
          "indexed": true,
          "internalType": "address",
          "name": "from",
          "type": "address"
        },
        {
          "indexed": false,
          "internalType": "uint8",
          "name": "level",
          "type": "uint8"
        },
        {
          "indexed": false,
          "internalType": "uint256",
          "name": "mvtAmount",
          "type": "uint256"
        }
      ],
      "name": "StakeLevelIncomePaid",
      "type": "event"
    },
    {
      "anonymous": false,
      "inputs": [
        {
          "indexed": true,
          "internalType": "address",
          "name": "user",
          "type": "address"
        },
        {
          "indexed": false,
          "internalType": "uint256",
          "name": "stakeIndex",
          "type": "uint256"
        },
        {
          "indexed": false,
          "internalType": "uint256",
          "name": "usdtAmount",
          "type": "uint256"
        },
        {
          "indexed": false,
          "internalType": "uint256",
          "name": "mvtMinted",
          "type": "uint256"
        },
        {
          "indexed": false,
          "internalType": "bool",
          "name": "isLocked",
          "type": "bool"
        }
      ],
      "name": "Staked",
      "type": "event"
    },
    {
      "anonymous": false,
      "inputs": [
        {
          "indexed": true,
          "internalType": "address",
          "name": "user",
          "type": "address"
        },
        {
          "indexed": false,
          "internalType": "uint256",
          "name": "stakeIndex",
          "type": "uint256"
        },
        {
          "indexed": false,
          "internalType": "uint256",
          "name": "mvtReturned",
          "type": "uint256"
        },
        {
          "indexed": false,
          "internalType": "uint256",
          "name": "usdtReceived",
          "type": "uint256"
        },
        {
          "indexed": false,
          "internalType": "uint256",
          "name": "adminCapCut",
          "type": "uint256"
        }
      ],
      "name": "Unstaked",
      "type": "event"
    },
    {
      "anonymous": false,
      "inputs": [
        {
          "indexed": true,
          "internalType": "address",
          "name": "user",
          "type": "address"
        },
        {
          "indexed": false,
          "internalType": "uint256",
          "name": "amount",
          "type": "uint256"
        }
      ],
      "name": "UsdtWithdrawn",
      "type": "event"
    },
    {
      "inputs": [],
      "name": "ADMIN_ALLOC",
      "outputs": [
        {
          "internalType": "uint256",
          "name": "",
          "type": "uint256"
        }
      ],
      "stateMutability": "view",
      "type": "function"
    },
    {
      "inputs": [],
      "name": "BINARY_ALLOC",
      "outputs": [
        {
          "internalType": "uint256",
          "name": "",
          "type": "uint256"
        }
      ],
      "stateMutability": "view",
      "type": "function"
    },
    {
      "inputs": [],
      "name": "BTC_POOL_RATE",
      "outputs": [
        {
          "internalType": "uint256",
          "name": "",
          "type": "uint256"
        }
      ],
      "stateMutability": "view",
      "type": "function"
    },
    {
      "inputs": [],
      "name": "FLEX_CAP_MULT",
      "outputs": [
        {
          "internalType": "uint256",
          "name": "",
          "type": "uint256"
        }
      ],
      "stateMutability": "view",
      "type": "function"
    },
    {
      "inputs": [],
      "name": "INCOME_LIMIT",
      "outputs": [
        {
          "internalType": "uint256",
          "name": "",
          "type": "uint256"
        }
      ],
      "stateMutability": "view",
      "type": "function"
    },
    {
      "inputs": [],
      "name": "LEVEL_ALLOC",
      "outputs": [
        {
          "internalType": "uint256",
          "name": "",
          "type": "uint256"
        }
      ],
      "stateMutability": "view",
      "type": "function"
    },
    {
      "inputs": [],
      "name": "LOCK_DURATION",
      "outputs": [
        {
          "internalType": "uint256",
          "name": "",
          "type": "uint256"
        }
      ],
      "stateMutability": "view",
      "type": "function"
    },
    {
      "inputs": [],
      "name": "MIN_STAKE_USDT",
      "outputs": [
        {
          "internalType": "uint256",
          "name": "",
          "type": "uint256"
        }
      ],
      "stateMutability": "view",
      "type": "function"
    },
    {
      "inputs": [],
      "name": "PACKAGE_PRICE",
      "outputs": [
        {
          "internalType": "uint256",
          "name": "",
          "type": "uint256"
        }
      ],
      "stateMutability": "view",
      "type": "function"
    },
    {
      "inputs": [],
      "name": "activate",
      "outputs": [],
      "stateMutability": "nonpayable",
      "type": "function"
    },
    {
      "inputs": [],
      "name": "activateFromBalance",
      "outputs": [],
      "stateMutability": "nonpayable",
      "type": "function"
    },
    {
      "inputs": [],
      "name": "adminPool",
      "outputs": [
        {
          "internalType": "uint256",
          "name": "",
          "type": "uint256"
        }
      ],
      "stateMutability": "view",
      "type": "function"
    },
    {
      "inputs": [
        {
          "internalType": "uint256",
          "name": "",
          "type": "uint256"
        }
      ],
      "name": "allUsers",
      "outputs": [
        {
          "internalType": "address",
          "name": "",
          "type": "address"
        }
      ],
      "stateMutability": "view",
      "type": "function"
    },
    {
      "inputs": [],
      "name": "binaryPool",
      "outputs": [
        {
          "internalType": "uint256",
          "name": "",
          "type": "uint256"
        }
      ],
      "stateMutability": "view",
      "type": "function"
    },
    {
      "inputs": [
        {
          "internalType": "address",
          "name": "",
          "type": "address"
        }
      ],
      "name": "boardEntryCount",
      "outputs": [
        {
          "internalType": "uint256",
          "name": "",
          "type": "uint256"
        }
      ],
      "stateMutability": "view",
      "type": "function"
    },
    {
      "inputs": [],
      "name": "boardHandler",
      "outputs": [
        {
          "internalType": "contract IMvaultBoardMatrix",
          "name": "",
          "type": "address"
        }
      ],
      "stateMutability": "view",
      "type": "function"
    },
    {
      "inputs": [
        {
          "internalType": "address",
          "name": "_user",
          "type": "address"
        }
      ],
      "name": "canEnterBoard",
      "outputs": [
        {
          "internalType": "bool",
          "name": "eligible",
          "type": "bool"
        },
        {
          "internalType": "uint256",
          "name": "btcBalance",
          "type": "uint256"
        },
        {
          "internalType": "uint256",
          "name": "boardPrice",
          "type": "uint256"
        }
      ],
      "stateMutability": "view",
      "type": "function"
    },
    {
      "inputs": [
        {
          "internalType": "address",
          "name": "user",
          "type": "address"
        }
      ],
      "name": "canRebirth",
      "outputs": [
        {
          "internalType": "bool",
          "name": "eligible",
          "type": "bool"
        },
        {
          "internalType": "uint256",
          "name": "poolBalance",
          "type": "uint256"
        }
      ],
      "stateMutability": "view",
      "type": "function"
    },
    {
      "inputs": [
        {
          "internalType": "uint256",
          "name": "stakeIndex",
          "type": "uint256"
        }
      ],
      "name": "convertToLocked",
      "outputs": [],
      "stateMutability": "nonpayable",
      "type": "function"
    },
    {
      "inputs": [
        {
          "internalType": "address",
          "name": "_user",
          "type": "address"
        },
        {
          "internalType": "uint256",
          "name": "_usdtAmount",
          "type": "uint256"
        },
        {
          "internalType": "uint256",
          "name": "_boardLevel",
          "type": "uint256"
        }
      ],
      "name": "creditBoardReward",
      "outputs": [],
      "stateMutability": "nonpayable",
      "type": "function"
    },
    {
      "inputs": [
        {
          "internalType": "uint256",
          "name": "offset",
          "type": "uint256"
        },
        {
          "internalType": "uint256",
          "name": "limit",
          "type": "uint256"
        }
      ],
      "name": "distributeBinaryIncome",
      "outputs": [],
      "stateMutability": "nonpayable",
      "type": "function"
    },
    {
      "inputs": [
        {
          "internalType": "uint256",
          "name": "offset",
          "type": "uint256"
        },
        {
          "internalType": "uint256",
          "name": "limit",
          "type": "uint256"
        }
      ],
      "name": "distributePowerLeg",
      "outputs": [],
      "stateMutability": "nonpayable",
      "type": "function"
    },
    {
      "inputs": [],
      "name": "enterBoardPool",
      "outputs": [],
      "stateMutability": "nonpayable",
      "type": "function"
    },
    {
      "inputs": [
        {
          "internalType": "address",
          "name": "user",
          "type": "address"
        }
      ],
      "name": "getActiveStakes",
      "outputs": [
        {
          "internalType": "uint256[]",
          "name": "indices",
          "type": "uint256[]"
        },
        {
          "internalType": "uint256[]",
          "name": "mvtAmounts",
          "type": "uint256[]"
        },
        {
          "internalType": "uint256[]",
          "name": "usdtInvestedArr",
          "type": "uint256[]"
        },
        {
          "internalType": "uint256[]",
          "name": "stakedAts",
          "type": "uint256[]"
        },
        {
          "internalType": "uint256[]",
          "name": "lockedSinces",
          "type": "uint256[]"
        }
      ],
      "stateMutability": "view",
      "type": "function"
    },
    {
      "inputs": [],
      "name": "getAllUsersCount",
      "outputs": [
        {
          "internalType": "uint256",
          "name": "",
          "type": "uint256"
        }
      ],
      "stateMutability": "view",
      "type": "function"
    },
    {
      "inputs": [
        {
          "internalType": "uint256",
          "name": "_level",
          "type": "uint256"
        }
      ],
      "name": "getBoardCurrentIndex",
      "outputs": [
        {
          "internalType": "uint256",
          "name": "",
          "type": "uint256"
        }
      ],
      "stateMutability": "view",
      "type": "function"
    },
    {
      "inputs": [
        {
          "internalType": "uint256",
          "name": "_level",
          "type": "uint256"
        },
        {
          "internalType": "uint256",
          "name": "_index",
          "type": "uint256"
        }
      ],
      "name": "getBoardMatrixInfo",
      "outputs": [
        {
          "internalType": "address",
          "name": "owner",
          "type": "address"
        },
        {
          "internalType": "uint256",
          "name": "filledCount",
          "type": "uint256"
        },
        {
          "internalType": "bool",
          "name": "completed",
          "type": "bool"
        }
      ],
      "stateMutability": "view",
      "type": "function"
    },
    {
      "inputs": [
        {
          "internalType": "uint256",
          "name": "_level",
          "type": "uint256"
        }
      ],
      "name": "getBoardPrice",
      "outputs": [
        {
          "internalType": "uint256",
          "name": "",
          "type": "uint256"
        }
      ],
      "stateMutability": "view",
      "type": "function"
    },
    {
      "inputs": [
        {
          "internalType": "uint256",
          "name": "_level",
          "type": "uint256"
        }
      ],
      "name": "getBoardQueueLength",
      "outputs": [
        {
          "internalType": "uint256",
          "name": "",
          "type": "uint256"
        }
      ],
      "stateMutability": "view",
      "type": "function"
    },
    {
      "inputs": [
        {
          "internalType": "address",
          "name": "u",
          "type": "address"
        }
      ],
      "name": "getBtcPoolInfo",
      "outputs": [
        {
          "internalType": "uint256",
          "name": "btcPoolBalance",
          "type": "uint256"
        },
        {
          "internalType": "uint256",
          "name": "totalBtcEarned",
          "type": "uint256"
        }
      ],
      "stateMutability": "view",
      "type": "function"
    },
    {
      "inputs": [
        {
          "internalType": "address",
          "name": "u",
          "type": "address"
        }
      ],
      "name": "getCurrentBinaryPairs",
      "outputs": [
        {
          "internalType": "uint256",
          "name": "currentPairs",
          "type": "uint256"
        },
        {
          "internalType": "uint256",
          "name": "newPairs",
          "type": "uint256"
        }
      ],
      "stateMutability": "view",
      "type": "function"
    },
    {
      "inputs": [],
      "name": "getLockDuration",
      "outputs": [
        {
          "internalType": "uint256",
          "name": "",
          "type": "uint256"
        }
      ],
      "stateMutability": "pure",
      "type": "function"
    },
    {
      "inputs": [],
      "name": "getMvtContractBalance",
      "outputs": [
        {
          "internalType": "uint256",
          "name": "",
          "type": "uint256"
        }
      ],
      "stateMutability": "view",
      "type": "function"
    },
    {
      "inputs": [],
      "name": "getMvtPrice",
      "outputs": [
        {
          "internalType": "uint256",
          "name": "buyPrice",
          "type": "uint256"
        },
        {
          "internalType": "uint256",
          "name": "sellPrice",
          "type": "uint256"
        }
      ],
      "stateMutability": "view",
      "type": "function"
    },
    {
      "inputs": [],
      "name": "getPoolBalances",
      "outputs": [
        {
          "internalType": "uint256",
          "name": "binary",
          "type": "uint256"
        },
        {
          "internalType": "uint256",
          "name": "reserve",
          "type": "uint256"
        },
        {
          "internalType": "uint256",
          "name": "admin",
          "type": "uint256"
        }
      ],
      "stateMutability": "view",
      "type": "function"
    },
    {
      "inputs": [
        {
          "internalType": "address",
          "name": "_user",
          "type": "address"
        }
      ],
      "name": "getProfile",
      "outputs": [
        {
          "internalType": "string",
          "name": "displayName",
          "type": "string"
        },
        {
          "internalType": "string",
          "name": "email",
          "type": "string"
        },
        {
          "internalType": "string",
          "name": "phone",
          "type": "string"
        },
        {
          "internalType": "string",
          "name": "country",
          "type": "string"
        },
        {
          "internalType": "bool",
          "name": "profileSet",
          "type": "bool"
        }
      ],
      "stateMutability": "view",
      "type": "function"
    },
    {
      "inputs": [
        {
          "internalType": "address",
          "name": "user",
          "type": "address"
        },
        {
          "internalType": "uint256",
          "name": "index",
          "type": "uint256"
        }
      ],
      "name": "getStake",
      "outputs": [
        {
          "internalType": "uint256",
          "name": "mvtAmount",
          "type": "uint256"
        },
        {
          "internalType": "uint256",
          "name": "usdtInvested",
          "type": "uint256"
        },
        {
          "internalType": "uint256",
          "name": "stakedAt",
          "type": "uint256"
        },
        {
          "internalType": "uint256",
          "name": "lockedSince",
          "type": "uint256"
        },
        {
          "internalType": "bool",
          "name": "active",
          "type": "bool"
        }
      ],
      "stateMutability": "view",
      "type": "function"
    },
    {
      "inputs": [
        {
          "internalType": "address",
          "name": "user",
          "type": "address"
        }
      ],
      "name": "getStakeCount",
      "outputs": [
        {
          "internalType": "uint256",
          "name": "",
          "type": "uint256"
        }
      ],
      "stateMutability": "view",
      "type": "function"
    },
    {
      "inputs": [
        {
          "internalType": "address",
          "name": "user",
          "type": "address"
        },
        {
          "internalType": "uint256",
          "name": "offset",
          "type": "uint256"
        },
        {
          "internalType": "uint256",
          "name": "limit",
          "type": "uint256"
        }
      ],
      "name": "getTransactions",
      "outputs": [
        {
          "components": [
            {
              "internalType": "uint8",
              "name": "txType",
              "type": "uint8"
            },
            {
              "internalType": "uint32",
              "name": "ts",
              "type": "uint32"
            },
            {
              "internalType": "uint256",
              "name": "amount",
              "type": "uint256"
            },
            {
              "internalType": "uint8",
              "name": "level",
              "type": "uint8"
            },
            {
              "internalType": "address",
              "name": "addr",
              "type": "address"
            }
          ],
          "internalType": "struct MvaultContract.TxRecord[]",
          "name": "records",
          "type": "tuple[]"
        },
        {
          "internalType": "uint256",
          "name": "total",
          "type": "uint256"
        }
      ],
      "stateMutability": "view",
      "type": "function"
    },
    {
      "inputs": [
        {
          "internalType": "address",
          "name": "_user",
          "type": "address"
        }
      ],
      "name": "getUserBoardStats",
      "outputs": [
        {
          "internalType": "uint256",
          "name": "entries",
          "type": "uint256"
        },
        {
          "internalType": "uint256",
          "name": "totalRewards",
          "type": "uint256"
        }
      ],
      "stateMutability": "view",
      "type": "function"
    },
    {
      "inputs": [
        {
          "internalType": "address",
          "name": "u",
          "type": "address"
        }
      ],
      "name": "getUserInfo",
      "outputs": [
        {
          "internalType": "bool",
          "name": "isRegistered",
          "type": "bool"
        },
        {
          "internalType": "bool",
          "name": "isActive",
          "type": "bool"
        },
        {
          "internalType": "address",
          "name": "sponsor",
          "type": "address"
        },
        {
          "internalType": "uint256",
          "name": "directCount",
          "type": "uint256"
        },
        {
          "internalType": "address",
          "name": "binaryParent",
          "type": "address"
        },
        {
          "internalType": "bool",
          "name": "placedLeft",
          "type": "bool"
        },
        {
          "internalType": "address",
          "name": "leftChild",
          "type": "address"
        },
        {
          "internalType": "address",
          "name": "rightChild",
          "type": "address"
        },
        {
          "internalType": "uint256",
          "name": "leftSubUsers",
          "type": "uint256"
        },
        {
          "internalType": "uint256",
          "name": "rightSubUsers",
          "type": "uint256"
        },
        {
          "internalType": "uint256",
          "name": "mvtBalance",
          "type": "uint256"
        },
        {
          "internalType": "uint256",
          "name": "totalReceived",
          "type": "uint256"
        },
        {
          "internalType": "uint256",
          "name": "totalSold",
          "type": "uint256"
        },
        {
          "internalType": "uint256",
          "name": "incomeLimit",
          "type": "uint256"
        },
        {
          "internalType": "uint256",
          "name": "usdtBalance",
          "type": "uint256"
        },
        {
          "internalType": "uint256",
          "name": "rebirthPool",
          "type": "uint256"
        },
        {
          "internalType": "uint256",
          "name": "btcPoolBalance",
          "type": "uint256"
        },
        {
          "internalType": "uint256",
          "name": "powerLegPoints",
          "type": "uint256"
        },
        {
          "internalType": "uint256",
          "name": "matchedPairs",
          "type": "uint256"
        },
        {
          "internalType": "address",
          "name": "mainAccount",
          "type": "address"
        },
        {
          "internalType": "uint256",
          "name": "rebirthCount",
          "type": "uint256"
        },
        {
          "internalType": "uint256",
          "name": "joinedAt",
          "type": "uint256"
        }
      ],
      "stateMutability": "view",
      "type": "function"
    },
    {
      "inputs": [],
      "name": "mvaultToken",
      "outputs": [
        {
          "internalType": "contract IMvaultToken",
          "name": "",
          "type": "address"
        }
      ],
      "stateMutability": "view",
      "type": "function"
    },
    {
      "inputs": [],
      "name": "owner",
      "outputs": [
        {
          "internalType": "address",
          "name": "",
          "type": "address"
        }
      ],
      "stateMutability": "view",
      "type": "function"
    },
    {
      "inputs": [
        {
          "internalType": "address",
          "name": "subAccount",
          "type": "address"
        },
        {
          "internalType": "bool",
          "name": "placeLeft",
          "type": "bool"
        }
      ],
      "name": "rebirth",
      "outputs": [],
      "stateMutability": "nonpayable",
      "type": "function"
    },
    {
      "inputs": [
        {
          "internalType": "address",
          "name": "sponsor",
          "type": "address"
        },
        {
          "internalType": "address",
          "name": "binaryParent",
          "type": "address"
        },
        {
          "internalType": "bool",
          "name": "placeLeft",
          "type": "bool"
        }
      ],
      "name": "register",
      "outputs": [],
      "stateMutability": "nonpayable",
      "type": "function"
    },
    {
      "inputs": [
        {
          "internalType": "address",
          "name": "newUser",
          "type": "address"
        },
        {
          "internalType": "address",
          "name": "binaryParent",
          "type": "address"
        },
        {
          "internalType": "bool",
          "name": "placeLeft",
          "type": "bool"
        }
      ],
      "name": "registerAndActivateFor",
      "outputs": [],
      "stateMutability": "nonpayable",
      "type": "function"
    },
    {
      "inputs": [],
      "name": "renounceOwnership",
      "outputs": [],
      "stateMutability": "nonpayable",
      "type": "function"
    },
    {
      "inputs": [],
      "name": "reservePool",
      "outputs": [
        {
          "internalType": "uint256",
          "name": "",
          "type": "uint256"
        }
      ],
      "stateMutability": "view",
      "type": "function"
    },
    {
      "inputs": [
        {
          "internalType": "uint256",
          "name": "amount",
          "type": "uint256"
        }
      ],
      "name": "sellMvt",
      "outputs": [],
      "stateMutability": "nonpayable",
      "type": "function"
    },
    {
      "inputs": [
        {
          "internalType": "address",
          "name": "_boardHandler",
          "type": "address"
        }
      ],
      "name": "setBoardHandler",
      "outputs": [],
      "stateMutability": "nonpayable",
      "type": "function"
    },
    {
      "inputs": [
        {
          "internalType": "address",
          "name": "_mvaultToken",
          "type": "address"
        }
      ],
      "name": "setMvaultToken",
      "outputs": [],
      "stateMutability": "nonpayable",
      "type": "function"
    },
    {
      "inputs": [
        {
          "internalType": "string",
          "name": "_displayName",
          "type": "string"
        },
        {
          "internalType": "string",
          "name": "_email",
          "type": "string"
        },
        {
          "internalType": "string",
          "name": "_phone",
          "type": "string"
        },
        {
          "internalType": "string",
          "name": "_country",
          "type": "string"
        }
      ],
      "name": "setProfile",
      "outputs": [],
      "stateMutability": "nonpayable",
      "type": "function"
    },
    {
      "inputs": [
        {
          "internalType": "uint256",
          "name": "usdtAmount",
          "type": "uint256"
        },
        {
          "internalType": "bool",
          "name": "isLocked",
          "type": "bool"
        }
      ],
      "name": "stake",
      "outputs": [],
      "stateMutability": "nonpayable",
      "type": "function"
    },
    {
      "inputs": [
        {
          "internalType": "address",
          "name": "",
          "type": "address"
        }
      ],
      "name": "totalBoardRewardsEarned",
      "outputs": [
        {
          "internalType": "uint256",
          "name": "",
          "type": "uint256"
        }
      ],
      "stateMutability": "view",
      "type": "function"
    },
    {
      "inputs": [],
      "name": "totalUsers",
      "outputs": [
        {
          "internalType": "uint256",
          "name": "",
          "type": "uint256"
        }
      ],
      "stateMutability": "view",
      "type": "function"
    },
    {
      "inputs": [
        {
          "internalType": "address",
          "name": "newOwner",
          "type": "address"
        }
      ],
      "name": "transferOwnership",
      "outputs": [],
      "stateMutability": "nonpayable",
      "type": "function"
    },
    {
      "inputs": [
        {
          "internalType": "uint256",
          "name": "stakeIndex",
          "type": "uint256"
        }
      ],
      "name": "unstake",
      "outputs": [],
      "stateMutability": "nonpayable",
      "type": "function"
    },
    {
      "inputs": [],
      "name": "usdtToken",
      "outputs": [
        {
          "internalType": "contract IERC20",
          "name": "",
          "type": "address"
        }
      ],
      "stateMutability": "view",
      "type": "function"
    },
    {
      "inputs": [
        {
          "internalType": "address",
          "name": "",
          "type": "address"
        }
      ],
      "name": "users",
      "outputs": [
        {
          "internalType": "bool",
          "name": "isRegistered",
          "type": "bool"
        },
        {
          "internalType": "bool",
          "name": "isActive",
          "type": "bool"
        },
        {
          "internalType": "address",
          "name": "sponsor",
          "type": "address"
        },
        {
          "internalType": "uint256",
          "name": "directCount",
          "type": "uint256"
        },
        {
          "internalType": "address",
          "name": "binaryParent",
          "type": "address"
        },
        {
          "internalType": "bool",
          "name": "placedLeft",
          "type": "bool"
        },
        {
          "internalType": "address",
          "name": "leftChild",
          "type": "address"
        },
        {
          "internalType": "address",
          "name": "rightChild",
          "type": "address"
        },
        {
          "internalType": "uint256",
          "name": "leftSubUsers",
          "type": "uint256"
        },
        {
          "internalType": "uint256",
          "name": "rightSubUsers",
          "type": "uint256"
        },
        {
          "internalType": "uint256",
          "name": "matchedPairs",
          "type": "uint256"
        },
        {
          "internalType": "uint256",
          "name": "mvtBalance",
          "type": "uint256"
        },
        {
          "internalType": "uint256",
          "name": "totalReceived",
          "type": "uint256"
        },
        {
          "internalType": "uint256",
          "name": "totalSold",
          "type": "uint256"
        },
        {
          "internalType": "uint256",
          "name": "incomeLimit",
          "type": "uint256"
        },
        {
          "internalType": "uint256",
          "name": "usdtBalance",
          "type": "uint256"
        },
        {
          "internalType": "uint256",
          "name": "rebirthPool",
          "type": "uint256"
        },
        {
          "internalType": "uint256",
          "name": "totalUsdtEarned",
          "type": "uint256"
        },
        {
          "internalType": "uint256",
          "name": "btcPoolBalance",
          "type": "uint256"
        },
        {
          "internalType": "uint256",
          "name": "totalBtcEarned",
          "type": "uint256"
        },
        {
          "internalType": "uint256",
          "name": "powerLegPoints",
          "type": "uint256"
        },
        {
          "internalType": "address",
          "name": "mainAccount",
          "type": "address"
        },
        {
          "internalType": "uint256",
          "name": "rebirthCount",
          "type": "uint256"
        },
        {
          "internalType": "uint256",
          "name": "joinedAt",
          "type": "uint256"
        },
        {
          "internalType": "string",
          "name": "displayName",
          "type": "string"
        },
        {
          "internalType": "string",
          "name": "email",
          "type": "string"
        },
        {
          "internalType": "string",
          "name": "phone",
          "type": "string"
        },
        {
          "internalType": "string",
          "name": "country",
          "type": "string"
        },
        {
          "internalType": "bool",
          "name": "profileSet",
          "type": "bool"
        }
      ],
      "stateMutability": "view",
      "type": "function"
    },
    {
      "inputs": [
        {
          "internalType": "address",
          "name": "to",
          "type": "address"
        },
        {
          "internalType": "uint256",
          "name": "amount",
          "type": "uint256"
        }
      ],
      "name": "withdrawAdminPool",
      "outputs": [],
      "stateMutability": "nonpayable",
      "type": "function"
    },
    {
      "inputs": [
        {
          "internalType": "uint256",
          "name": "amount",
          "type": "uint256"
        }
      ],
      "name": "withdrawBtcPool",
      "outputs": [],
      "stateMutability": "nonpayable",
      "type": "function"
    },
    {
      "inputs": [
        {
          "internalType": "address",
          "name": "to",
          "type": "address"
        },
        {
          "internalType": "uint256",
          "name": "amount",
          "type": "uint256"
        }
      ],
      "name": "withdrawReservePool",
      "outputs": [],
      "stateMutability": "nonpayable",
      "type": "function"
    },
    {
      "inputs": [
        {
          "internalType": "uint256",
          "name": "amount",
          "type": "uint256"
        }
      ],
      "name": "withdrawUsdt",
      "outputs": [],
      "stateMutability": "nonpayable",
      "type": "function"
    }
  ],
  "bytecode": "0x60a0346200018357601f620061c038819003918201601f19168301916001600160401b038311848410176200018857808492604094855283398101031262000183576200005a602062000052836200019e565b92016200019e565b9033156200016a576000549160018060a01b03199233848216176000556040519060018060a01b03938491823391167f8be0079c531659141344cd1fd0a4f28419497f9722a3daafe3b4186f6b6457e0600080a360017f9b779b17422d0df92223018b32b4d1fa46e071723d6817e2486d003becc55f00551690811580156200015f575b6200015057506080521690600154161760015560405161600c9081620001b482396080518181816109410152818161103901528181611383015281816115240152818161159901528181611ee301528181612da90152818161394a015281816139db015281816143a90152614bb10152f35b63d92e233d60e01b8152600490fd5b5083831615620000de565b604051631e4fbdf760e01b815260006004820152602490fd5b600080fd5b634e487b7160e01b600052604160045260246000fd5b51906001600160a01b0382168203620001835756fe61032080604052600436101561001457600080fd5b600090813560e01c9081630266f0441461449357508063039ccc261461446f57806303c3ecb7146144295780630f15f4c01461433f5780630f53a4701461427f5780631747e0b0146140a05780631ce5e8941461402e5780631f6259d5146140055780632335821b14613fcc5780632808bc8d14613f085780632d641f0814613ee05780632e17de781461384d57806338abfc411461382f5780633ac272c2146138105780633ccb13d3146137f457806344e374d5146112f557806347cd5191146137d5578063485d383414610c115780634b3f0d451461370c57806352375bb1146136dd57806355509c8f14613159578063634f627e14612d1f5780636386c1c714612b5157806368ddb2b514612a79578063715018a614612a315780637435f4211461299357806377537844146112f55780637f1b4064146129755780638431fdd7146129515780638a8f0429146126335780638da5cb5b1461260c57806392446e30146125f057806394915dd0146122605780639499a35114612227578063a2bdedf4146121e3578063a87430ba14611f12578063a98ad46c14611ecd578063aa33f5d514611cd5578063aa39375714611cb1578063abe50f1914611494578063b58e027814611318578063b86a1fb2146112fa578063be648bdb146112f5578063bff1f9e1146112d7578063c9d484cf146112ae578063ce8292f51461121a578063cf57ee69146111e1578063cfd4766314611155578063d3635a0214610fce578063d4a9028614610efc578063e0e0101114610c30578063e239c40014610c11578063e3ba9bda14610ba7578063e4093a6614610885578063e51cb53014610837578063e77631941461076a578063eb63e1c214610743578063ec50324a14610644578063f00b00931461060b578063f0b7b9dc1461040e578063f24c536a14610395578063f2fde38b1461031f5763fb72ca35146102d757600080fd5b3461031c57602036600319011261031c576040906001600160a01b036102fb6144af565b168152600b602052818082205491600c602052205482519182526020820152f35b80fd5b503461031c57602036600319011261031c576103396144af565b610341614758565b6001600160a01b0390811690811561037c576000548260018060a01b031982161760005516600080516020615f57833981519152600080a380f35b604051631e4fbdf760e01b815260048101849052602490fd5b503461031c57602036600319011261031c576040906001600160a01b036103ba6144af565b1681526003602052818120906007600583015460068401548082106000146104065750925b015480831115610400576103f49150826147bd565b82519182526020820152f35b506103f4565b9050926103df565b503461031c5761041d366145ae565b91610426614817565b6002546001600160a01b039190821633036105d257169061044882151561494e565b61045381151561494e565b81845260209160038352600c604086200161046f83825461497f565b905580855260038352600e604086200161048a83825461497f565b9055808552600c8352604085206104a283825461497f565b9055807f2393acb59b41dd645f68fe97bab0deba2a21b99efc69761e9b2762f11bbbe79d604080518581528787820152a2600052600e8252604060002091604051906104ed82614661565b600b825281019163ffffffff421683526040820190815260ff60608301951685526080820193600085528054600160401b8110156105bc5761053491600182018155614847565b9190916105a65760ff9384600294511664ffffffff0084549282881985161786555160081b169164ffffffffff19161717825551600182015501925116825491610100600160a81b03905160081b169160018060a81b031916171790556001600080516020615fb78339815191525580f35b634e487b7160e01b600052600060045260246000fd5b634e487b7160e01b600052604160045260246000fd5b60405162461bcd60e51b81526020600482015260116024820152702737ba103137b0b932103430b7323632b960791b6044820152606490fd5b503461031c57602036600319011261031c576020906040906001600160a01b036106336144af565b168152600b83522054604051908152f35b503461031c57604036600319011261031c5761065e6144af565b6024359061066a614758565b6001600160a01b0316908115610731576007548181106106f557816106b27f0529afc4538720fe0b3eadc40486369ab962002d72fead1387b300c66073e7bf936020936147bd565b60075583855260038252600860408620016106ce82825461497f565b905583855260038252600960408620016106e982825461497f565b9055604051908152a280f35b60405162461bcd60e51b8152602060048201526014602482015273115e18d959591cc81c995cd95c9d99481c1bdbdb60621b6044820152606490fd5b60405163d92e233d60e01b8152600490fd5b503461031c57602036600319011261031c576020610762600435615c30565b604051908152f35b503461031c578060031936011261031c57610783614817565b338152600360205260408120805460ff8116156108255760081c60ff1661081357600c0180549068070c1cc73b00c8000082106108015768070c1cc73b00c7ffff1982019182116107ed57556107d833614b49565b6001600080516020615fb78339815191525580f35b634e487b7160e01b83526011600452602483fd5b60405163b55c1bad60e01b8152600490fd5b604051637cdf305160e11b8152600490fd5b60405163aba4733960e01b8152600490fd5b503461031c57602036600319011261031c57604090600d9082906001600160a01b036108616144af565b168152600360205220015481519068070c1cc73b00c8000081101582526020820152f35b503461031c578060031936011261031c5761089e614817565b6002546001600160a01b03908116908115610b955733835260206003815260408420916108d160ff845460081c16614784565b604051926347cd519160e01b845282846024816001988960048301525afa938415610b43578694610b60575b50600f018054848110610b4e5784610914916147bd565b905561093b82848360025416604051938492839263a9059cbb60e01b8452600484016147ed565b038189867f0000000000000000000000000000000000000000000000000000000000000000165af1908115610b43578691610b0a575b5015610af8578490338252600b83526040822061098e8154614808565b905560025416803b15610af45781809160446040518094819363686a38bd60e01b83523360048401528a60248401525af18015610ae957610ad1575b505060405183815282828201527f4e755dd64e53a9f7a5882e2e32eb64718c2273de11e017bd47129b9fe2716d7c60403392a233600052600e815260406000209060405190610a1882614661565b600a825281019063ffffffff421682526040810193845260608101938585526080820193600085528054600160401b8110156105bc57610a5c918882018155614847565b9190916105a65791518154935164ffffffffff1990941660ff91821617600894851b64ffffffff00161782559151868201559351600294909401805493516001600160a81b0319909416949091169390931791901b610100600160a81b0316179055600080516020615fb78339815191525580f35b610ada9061467c565b610ae55783386109ca565b8380fd5b6040513d84823e3d90fd5b5080fd5b6040516312171d8360e31b8152600490fd5b90508281813d8311610b3c575b610b21818361468f565b81010312610b3857610b32906147e0565b38610971565b8580fd5b503d610b17565b6040513d88823e3d90fd5b604051630856d68760e11b8152600490fd5b9093508281813d8311610b8e575b610b78818361468f565b81010312610b89575192600f6108fd565b600080fd5b503d610b6e565b60405163632100f760e11b8152600490fd5b503461031c57602036600319011261031c57610bc16144af565b610bc9614758565b6001600160a01b0316801561073157600280546001600160a01b031916821790557f49424f87d81e4374ee3e8d1cf7b880966981a3cf6a7ac1d7a66c13d91756fccc8280a280f35b503461031c578060031936011261031c57602060405163018b82008152f35b503461031c57606036600319011261031c57610c4a6144af565b90610c536144c5565b610c5b6145e7565b92610c64614817565b6001600160a01b0393818516918215610ec557338314610e855733855260039160209483865260ff604088205416156108255733875283865260ff604088205460081c1615610e4c5784875283865260ff604088205416610e3a5733875283865268070c1cc73b00c80000600c6040892001541061080157818882168015159081610e23575b5015610e1857610cf99161542a565b979093338852808752600c604089200198895468070c1cc73b00c7ffff198101908111610e0457610d9f969798999a55610d358188338861498c565b15610de057858216895280885260408920810180546001600160a01b031916881790555b338952875260016040892001610d6f8154614808565b9055610d7a83614a53565b60405191151594858352169085600080516020615f37833981519152883393a4614b49565b6040519081527ff3d8729e7995a6170800155589c309c92998449c63bab10c98f61f9aa007db7d33933392a46001600080516020615fb78339815191525580f35b85821689528088526040892060040180546001600160a01b03191688179055610d59565b634e487b7160e01b8a52601160045260248afd5b610cf991503361542a565b91505087528386528160ff60408920541638610cea565b604051630ea075bf60e21b8152600490fd5b60405162461bcd60e51b815260048101879052601160248201527043616c6c6572206e6f742061637469766560781b6044820152606490fd5b60405162461bcd60e51b815260206004820152601860248201527721b0b73737ba103932b3b4b9ba32b9103cb7bab939b2b63360411b6044820152606490fd5b60405162461bcd60e51b815260206004820152600f60248201526e496e76616c6964206164647265737360881b6044820152606490fd5b503461031c57610f0b3661454f565b90606060018060a01b039260448460025416936040519485938492636a54814360e11b8452600484015260248301525afa908115610fc357839284918593610f68575b506060945060405193168352602083015215156040820152f35b93509150506060823d8211610fbb575b81610f856060938361468f565b81010312610fb75781518181168103610ae55760609350610fad6040602085015194016147e0565b9092909138610f4e565b8280fd5b3d9150610f78565b6040513d85823e3d90fd5b503461031c57602080600319360112610af45760043590610fed614817565b81156111435733835260038152600c604084200180548381106108015783611014916147bd565b905560405163a9059cbb60e01b81528181806110348633600484016147ed565b0381877f00000000000000000000000000000000000000000000000000000000000000006001600160a01b03165af1908115611138578491611103575b5015610af8576040518281527fbdd3f02d2a57fb53c1156f98470b61cb60712d485c27c36a49b1263dabcde201823392a233600052600e8152604060002090604051906110bd82614661565b6007825281019063ffffffff42168252604081019384526060810193600085526080820193600085528054600160401b8110156105bc5761053491600182018155614847565b90508181813d8311611131575b61111a818361468f565b81010312610ae55761112b906147e0565b38611071565b503d611110565b6040513d86823e3d90fd5b604051631f2a200560e01b8152600490fd5b503461031c57604036600319011261031c576111a660a09160406111776144af565b9160243592600180871b0316808252600d602052611199838320548510615b32565b8152600d60205220615b16565b50805490600181015490600281015460ff60046003840154930154169260405194855260208501526040840152606083015215156080820152f35b503461031c57602036600319011261031c576020906040906001600160a01b036112096144af565b168152600d83522054604051908152f35b503461031c578060031936011261031c576001546040516370a0823160e01b81523060048201529190602090839060249082906001600160a01b03165afa9081156112a25790611270575b602090604051908152f35b506020813d821161129a575b816112896020938361468f565b81010312610b895760209051611265565b3d915061127c565b604051903d90823e3d90fd5b503461031c578060031936011261031c576002546040516001600160a01b039091168152602090f35b503461031c578060031936011261031c576020600554604051908152f35b614565565b503461031c578060031936011261031c576020600854604051908152f35b503461031c57602080600319360112610af45760043590611337614817565b81156111435733835260038152600f60408420018054838110611482578361135e916147bd565b905560405163a9059cbb60e01b815281818061137e8633600484016147ed565b0381877f00000000000000000000000000000000000000000000000000000000000000006001600160a01b03165af190811561113857849161144d575b5015610af8576040518281527f12701e4764b73009ab9826933c421483e4280410091fcc760515e0fa99fa766b823392a233600052600e81526040600020906040519061140782614661565b6008825281019063ffffffff42168252604081019384526060810193600085526080820193600085528054600160401b8110156105bc5761053491600182018155614847565b90508181813d831161147b575b611464818361468f565b81010312610ae557611475906147e0565b386113bb565b503d61145a565b604051636dae861760e11b8152600490fd5b503461031c57604036600319011261031c576114ae6145d8565b6114b6614817565b6802b5e3af16b188000060043510611c785733825260036020526114e060ff604084205416615ab6565b338252600360205260ff604083205460081c1615611c43576040516323b872dd60e01b815233600480830191909152306024830152356044820152602081606481867f00000000000000000000000000000000000000000000000000000000000000006001600160a01b03165af1908115610fc3578391611c09575b5015611bcd5760015460405163095ea7b360e01b815290602090829081906115949060048035916001600160a01b03169084016147ed565b0381867f00000000000000000000000000000000000000000000000000000000000000006001600160a01b03165af18015610fc357611b94575b506001546040516370a0823160e01b8082523060048301529184906001600160a01b0316602083602481845afa928315610ae9578293611b5d575b50803b15610af457816040518092634e538d9360e11b825281838161163460043530600484016147ed565b03925af18015610ae957611b49575b5050600154604051928352306004840152602090839060249082906001600160a01b03165afa8015611138578490611b15575b61168092506147bd565b918215611ae05760405161169381614661565b600a8152600260208201526001604082015260016060820152600160808201523382526003602052604082205460018060a01b039060101c16938290839284935b600560ff8616101561185957605a6116fb60ff6116f381891686615af3565b511685614af2565b04908115611819576001600160a01b0389161580156117f6575b1561175257906117249161497f565b965b6001600160a01b0390811686526003602052604086205460101c169361174b9061526a565b93966116d4565b979093846117aa9160018060a01b03841689526003602052600860408a200161177c83825461497f565b90556001600160a01b038416895260036020526040892060090180546117a390849061497f565b905561497f565b936117b486615b04565b7fc8c0cc32a736135fa3c2a3c467849cd282797396bc67d2d5326f7e161e601c1d604051806117ee339560018060a01b038816958361527b565b0390a3611726565b506001600160a01b03891687526003602052604087205460081c60ff1615611715565b979490506001600160a01b03851680611837575b5061174b9061526a565b86526003602052604086205460101c6001600160a01b0316945061174b61182d565b905085935060058202828104600503611acc579161189a6118a092605a6118a59695049461189261188a838861497f565b60085461497f565b60085561497f565b906147bd565b6147bd565b8015611a9257338352600d602052604083209182549181600014611a8b5742935b604051946118d386614661565b8286526004356020870152426040870152606086015260016080860152600160401b841015611a77578361190c91600182018155615b16565b611a63576004608091865181556020870151600182015560408701516002820155606087015160038201550194015115159360ff199460ff86835416911617905560405192835260043560208401526040830152151560608201527f830141583677d950fe61a27b93001edff66b597c666b2c90f5fb6e79a4befd0e60803392a233600052600e60205260406000206040516119a781614661565b600c8152602081019063ffffffff42168252604081019360043585526060820194600086526080830194600086528054600160401b8110156105bc576119f291600182018155614847565b9290926105a65760ff9464ffffffff00866002965116918286549485161786555160081b169164ffffffffff19161717825551600182015501925116825491610100600160a81b03905160081b169160018060a81b031916171790556001600080516020615fb78339815191525580f35b634e487b7160e01b86526004869052602486fd5b634e487b7160e01b86526041600452602486fd5b84936118c6565b60405162461bcd60e51b81526020600482015260126024820152714e6f20746f6b656e7320746f207374616b6560701b6044820152606490fd5b634e487b7160e01b86526011600452602486fd5b60405162461bcd60e51b815260206004820152600d60248201526c139bc8135595081b5a5b9d1959609a1b6044820152606490fd5b506020823d602011611b41575b81611b2f6020938361468f565b81010312610b89576116809151611676565b3d9150611b22565b611b529061467c565b610ae5578338611643565b915091506020813d602011611b8c575b81611b7a6020938361468f565b81010312610b89578490519138611609565b3d9150611b6d565b6020813d602011611bc5575b81611bad6020938361468f565b81010312610fb757611bbe906147e0565b50386115ce565b3d9150611ba0565b60405162461bcd60e51b81526020600482015260146024820152731554d115081d1c985b9cd9995c8819985a5b195960621b6044820152606490fd5b90506020813d602011611c3b575b81611c246020938361468f565b81010312610fb757611c35906147e0565b3861155c565b3d9150611c17565b60405162461bcd60e51b815260206004820152600d60248201526c139bdd081858dd1a5d985d1959609a1b6044820152606490fd5b60405162461bcd60e51b815260206004820152601160248201527042656c6f7720243530206d696e696d756d60781b6044820152606490fd5b503461031c578060031936011261031c5760206040516815245655b1025800008152f35b503461031c57606036600319011261031c57611cef6144af565b611cf76144c5565b611cff6145e7565b338452600360209281845260ff604087205416610e3a57600554611dda5733600090815282855260409020805461ff01600160b01b03191660011781556002810180546001600160a81b03191690556012810180546001600160a01b03191690554260149091015560045491600160401b8310156105bc57611d96836001600080516020615f3783398151915295016004556145f6565b81929154911b9033821b9160018060a01b03901b1916179055611dba600554614808565b6005555b60405192151583526001600160a01b039081169416923392a480f35b6001600160a01b03858116808852838652604088205491939160ff1615611ebb5783600080516020615f378339815191529484168015159081611ea7575b5015611e9d57611e28868561542a565b611e3481838c3361498c565b15611e7b5716885281865260408820820180546001600160a01b031916331790555b8752845260016040872001611e6b8154614808565b9055611e7633614a53565b611dbe565b1688528186526040882060040180546001600160a01b03191633179055611e56565b611e28868961542a565b8a5250828752604089205460ff1638611e18565b604051632f212e0d60e11b8152600490fd5b503461031c578060031936011261031c576040517f00000000000000000000000000000000000000000000000000000000000000006001600160a01b03168152602090f35b503461031c57602036600319011261031c576040906001600160a01b03611f376144af565b168152600360205220806101e052808080808080808080808080611ffa6015600f600e600d600c600b600a600960086007600660058d549d60018101546102a05260028101546102e05260018060a01b0360038201541660a052600460018060a01b03910154169e01549e01549e01549e01549e01549e01549e01549e01549e01549e01549e01549e601081015461024052601181015460e05260018060a01b036012820154166102005260138101546102805260148101546101c052016146b2565b6102205261200d60166101e051016146b2565b6101205261202060176101e051016146b2565b6101805261203360186101e051016146b2565b6102605260ff60196101e05101541660c052604051806101605260ff82161515905260ff8160081c161515602061016051015260018060a01b039060101c1660406101605101526102a051606061016051015260018060a01b036102e05116608061016051015260ff6102e05160a01c16151560a061016051015260a05160c061016051015260e0610160510152610100610160510152610120610160510152610140610160510152610160805101526101806101605101526101a06101605101526101c06101605101526101e06101605101526102006101605101526102206101605101526102406101605101526102405161026061016051015260e051610280610160510152610200516102a0610160510152610280516102c06101605101526101c0516102e06101605101526121cb6121b561219f6121896103a0806103006101605101526101605101610220516144db565b61016051610320818303910152610120516144db565b61016051610340818303910152610180516144db565b61016051610360818303910152610260516144db565b60c05115156103806101605101526101605180910390f35b503461031c57602036600319011261031c576004359060045482101561031c57602061220e836145f6565b905460405160039290921b1c6001600160a01b03168152f35b503461031c57602036600319011261031c57606061224b6122466144af565b615cb4565b90604051921515835260208301526040820152f35b503461031c57604036600319011261031c5761227a6144af565b6122826145d8565b61228a614817565b6001600160a01b03821615610731573383526003602052604083208054916122b760ff8460081c16614784565b600d820180549068070c1cc73b00c800008083106125de576001600160a01b03871688526003602052604088205460ff166125995768070c1cc73b00c7ffff198301928311612585576123529392919080831061257a576123199080936147bd565b9055600c840161232a82825461497f565b905561233b600e850191825461497f565b90556815245655b102580000600b8401553361542a565b6001600160a01b038581166000908152600360205260409020805461ff01600160b01b03191662010000600160b01b0387161760011781556002810180546001600160a81b0319169285169290921783151560a01b60ff60a01b16179091556012810180546001600160a01b0319163317905542601490910155600454939190600160401b8510156105bc576123f0856001601397016004556145f6565b81546001600160a01b0389811660039390931b92831b921b191617905560055461241990614808565b60055515612547576001600160a01b03908116865260036020819052604087200180546001600160a01b0319169186169190911790555b60101c6001600160a01b031680612527575b5061246c83614a53565b61247583614b49565b016124808154614808565b908190556040519081526001600160a01b0382169033907f30016ed357540281a6cff6143637e72b48e105d85d15df66b0aaffbd2379024090602090a333600052600e6020526040600020906040516124d881614661565b60098152602081019063ffffffff421682526040810160008152606082019460008652608083019460018060a01b031685528054600160401b8110156105bc5761053491600182018155614847565b845260036020526001604085200161253f8154614808565b905538612462565b6001600160a01b03908116865260036020526040862060040180546001600160a01b031916918616919091179055612450565b5061231982806147bd565b634e487b7160e01b88526011600452602488fd5b60405162461bcd60e51b815260206004820152601e60248201527f5375622d6163636f756e7420616c7265616479207265676973746572656400006044820152606490fd5b6040516307db32bd60e31b8152600490fd5b503461031c578060031936011261031c576020604051600a8152f35b503461031c578060031936011261031c57546040516001600160a01b039091168152602090f35b503461031c576126423661454f565b9061264b614758565b612653614817565b60ff9182600a54161561293f5761266a908261497f565b90600454808311612937575b508391815b8181106128f75750600991825494841515806128ee575b156128d5574263ffffffff169087835b85811061274957509493929150505b81811061270b57837f7f4a5b69bea14a6fc05326671a02e90d4a88855c83a18529c260057b1bf61a856040888884885560ff19600a5416600a5582519182526020820152a16001600080516020615fb78339815191525580f35b6127409192935061271b816145f6565b9054600391821b1c6001600160a01b0316885260205260408720601101879055614808565b908592916126b1565b612752816145f6565b9054600391821b1c6001600160a01b031680845260208281526040852060110154909291908a8c8e83156128c457927fb05abf391bcc5d117d31727729f0da5b0e3eb5f91a478372995efa128696c4069260406127ba81946127b5858a99614af2565b614b05565b9a868152888a526008988c6127d58b8585200191825461497f565b90558782528a5220016127e98a825461497f565b905581519081528887820152a2600052600e825260406000206040519261280f84614661565b600484528301878152604084019586526060840193600085526080810192600084528054600160401b8110156105bc57612850906001928382018155614847565b9190916105a65791518154935164ffffffffff19909416908a161792851b64ffffffff00169290921782559551958101959095559151600294909401805492516001600160a81b03199093169486169490941791901b610100600160a81b0316179091556128bd90614808565b88906126a2565b505050505050506128bd9150614808565b506128e28560085461497f565b600855908592916126b1565b50851515612692565b9261292c61293291612908866145f6565b9054600391821b1c6001600160a01b0316895260205260408820601101549061497f565b93614808565b61267b565b915038612676565b60405163418826bf60e11b8152600490fd5b503461031c578060031936011261031c5760206040516802b5e3af16b18800008152f35b503461031c578060031936011261031c576020600654604051908152f35b503461031c576129ab6129a5366145ae565b91615d6d565b90604051916040830191604084528051809352606094858501936020809301915b8181106129e0575050508380955001520390f35b8251805160ff90811688528186015163ffffffff1686890152604080830151908901528982015116898801526080908101516001600160a01b03169087015260a090950194918301916001016129cc565b503461031c578060031936011261031c57612a4a614758565b600080546001600160a01b0319811682556001600160a01b0316600080516020615f578339815191528280a380f35b503461031c578060031936011261031c57600154604051623144bd60e31b81526001600160a01b039091169160208083600481875afa928315610ae9578293612b20575b5080600494604051958680926310f4cba760e21b82525afa9182156112a25791612af0575b604080945051928352820152f35b80915083813d8311612b19575b612b07818361468f565b81010312610b89576040925190612ae2565b503d612afd565b9392508084813d8311612b4a575b612b38818361468f565b81010312610b89579251919280612abd565b503d612b2e565b503461031c57602036600319011261031c576040906001600160a01b03612b766144af565b1681526003602052208080808080808080808080808054600182015461014052600282015461010052601460076011600f600d600c600b600a60096008600660058d600360018060a01b03910154169d600460018060a01b03910154169e01549e01549e01549e01549e01549e01549e01549e01549e01549e01549e01549e60018060a01b036012820154166101a05260138101546102c0520154608052604051806103005260ff82161515905260ff8160081c161515602061030051015260018060a01b039060101c16604061030051015261014051606061030051015260018060a01b036101005116608061030051015260ff6101005160a01c16151560a061030051015260c061030051015260e06103005101526101006103005101526101206103005101526101406103005101526101606103005101526101806103005101526101a06103005101526101c06103005101526101e06103005101526102006103005101526102206103005101526102406103005101526101a0516102606103005101526102c0516102806103005101526080516102a06103005101526102c061030051f35b503461031c57602036600319011261031c57612d39614817565b600435156111435733815260036020526040812060ff815460081c161561082557600881018054600435811061314757612d7690600435906147bd565b9055600a8101612d89600435825461497f565b90556040516370a0823160e01b8082523060048301526001600160a01b037f000000000000000000000000000000000000000000000000000000000000000081169291908590602084602481885afa938415610ae9578294613110575b5060015416803b15610af4578180916024604051809481936372424d9960e11b835260043560048401525af18015610ae9576130f8575b505060209060246040518095819382523060048301525afa80156111385784906130c4575b612e4c92506147bd565b600a810290808204600a14811517156130b057612e6d9060648304906147bd565b91600f8101612e8060648404825461497f565b905560108101612e9460648404825461497f565b90556040516064830481527f2b1d2104e84dd4dabb0cca024171f783ab1e1c9dc1af9d60a2361596653a99c460203392a233600052600e60205260406000209060405191612ee183614661565b600683524263ffffffff16602084015260648404604084015260006060840181905260808401528054600160401b8110156105bc57612f2591600182018155614847565b6105a65782518154602085015164ffffffffff1990911660ff92831617600891821b64ffffffff001617835560408501516001840155606085015160029390930180546080909601516001600160a81b031990961693909216929092179390911b610100600160a81b031692909217909155600b8101547f8f7262d5a031d4d671e1fdb0cddcd26d37185226f9e82f2f18877141ac1963eb918582156130a457508185111561309b57600d82915b82612ff981612fe2818b6147bd565b96600c8501612ff283825461497f565b90556147bd565b600b83015561300d600e830191825461497f565b90555b0161301c83825461497f565b905561303660405192839260643397048860043586614b25565b0390a233600052600e602052604060002060405161305381614661565b60058152602081019063ffffffff42168252604081019384526060810193600085526080820193600085528054600160401b8110156105bc5761053491600182018155614847565b600d8591612fd3565b909150600d8592613010565b634e487b7160e01b84526011600452602484fd5b506020823d6020116130f0575b816130de6020938361468f565b81010312610b8957612e4c9151612e42565b3d91506130d1565b6131019061467c565b61310c578438612e1d565b8480fd5b915092506020813d60201161313f575b8161312d6020938361468f565b81010312610b89578590519238612de6565b3d9150613120565b60405163208975e760e21b8152600490fd5b503461031c57608036600319011261031c576004356001600160401b038111610af45761318a903690600401614581565b91906024356001600160401b038111610fb7576131ab903690600401614581565b6044356001600160401b03811161310c576131ca903690600401614581565b90916064356001600160401b0381116136d9576131eb903690600401614581565b949097338852600360205261320660ff60408a205416615ab6565b338852600360205260408820966001600160401b0382116136c557819061323060158a0154614627565b601f8111613675575b508990601f8311600114613609578a926135fe575b50508160011b916000199060031b1c19161760158701555b6001600160401b0382116135ea5781906132836016880154614627565b601f8111613597575b508790601f831160011461352b578892613520575b50508160011b916000199060031b1c19161760168501555b60178401916001600160401b038211611a775781906132d88454614627565b601f81116134d0575b508690601f831160011461346a57879261345f575b50508160011b916000199060031b1c19161790555b60188201906001600160401b03811161344b576133288254614627565b601f8111613406575b5083601f821160011461339f578190859660199692613394575b50508160011b916000199060031b1c19161790555b01805460ff19166001179055337fbe4ec58a792f909e102ee3d745d0c3b34a4d437a54d903c4db098d31c556422f8280a280f35b01359050388061334b565b8285526020852090601f198316865b8181106133ee57509683929160019460199899106133d4575b505050811b019055613360565b0135600019600384901b60f8161c191690553880806133c7565b9192602060018192868c0135815501940192016133ae565b82855260208520601f830160051c81019160208410613441575b601f0160051c01905b8181106134365750613331565b858155600101613429565b9091508190613420565b634e487b7160e01b84526041600452602484fd5b0135905038806132f6565b84885260208820925090601f198416885b8181106134b8575090846001959493921061349e575b505050811b01905561330b565b0135600019600384901b60f8161c19169055388080613491565b9193602060018192878701358155019501920161347b565b90915083875260208720601f840160051c81019160208510613516575b90601f859493920160051c01905b81811061350857506132e1565b8881558493506001016134fb565b90915081906134ed565b0135905038806132a1565b60168801895260208920925090601f198416895b81811061357f5750908460019594939210613565575b505050811b0160168501556132b9565b0135600019600384901b60f8161c19169055388080613555565b9193602060018192878701358155019501920161353f565b90915060168701885260208820601f840160051c810191602085106135e0575b90601f859493920160051c01905b8181106135d2575061328c565b8981558493506001016135c5565b90915081906135b7565b634e487b7160e01b87526041600452602487fd5b01359050388061324e565b60158a018b5260208b20925090601f1984168b5b81811061365d5750908460019594939210613643575b505050811b016015870155613266565b0135600019600384901b60f8161c19169055388080613633565b9193602060018192878701358155019501920161361d565b909150601589018a5260208a20601f840160051c8101602085106136be575b90849392915b601f830160051c820181106136b0575050613239565b8c815585945060010161369a565b5080613694565b634e487b7160e01b89526041600452602489fd5b8680fd5b503461031c578060031936011261031c5760606006546007546008549060405192835260208301526040820152f35b503461031c57602036600319011261031c57600435338252600d60205261373860408320548210615b32565b338252600d602052600361374f8260408520615b16565b5061376060ff600483015416615b6e565b01805461379f574290556040519081524260208201527f68733b6f87b2a7c87d5bcf8c0a0950f2985cc261d9ab6defddca8d7bd05eba4360403392a280f35b60405162461bcd60e51b815260206004820152600e60248201526d105b1c9958591e481b1bd8dad95960921b6044820152606490fd5b503461031c57602036600319011261031c576020610762600435615bad565b503461031c578060031936011261031c57602060405160028152f35b503461031c57602036600319011261031c576020610762600435615c72565b503461031c578060031936011261031c576020600454604051908152f35b503461031c57602036600319011261031c57613867614817565b338152600d602052613880604082205460043510615b32565b338152600d60205261389760043560408320615b16565b5060048101908154916138ac60ff8416615b6e565b6003820154928315938415613e72575b5060ff1916905560018154910154918260011b92808404600214901517156130b057818115613ce4576005830283810460051484151715611acc573386526003602052604086205460101c6001600160a01b0316906064900481151580613cd0575b80613cc7575b613b95575b50505b6040516370a0823160e01b81523060048201529085906020836024817f00000000000000000000000000000000000000000000000000000000000000006001600160a01b03165afa928315610ae9578293613b61575b506001546001600160a01b0316803b15610fb7576024839260405194859384926372424d9960e11b845260048401525af18015610b4357613b4e575b506040516370a0823160e01b8152306004820152906020826024817f00000000000000000000000000000000000000000000000000000000000000006001600160a01b03165afa8015610b43578690613b1a575b613a1c92506147bd565b92849180613b11575b613adc575b50613a56600080516020615f778339815191529184613abb575b60405191829186339660043585615664565b0390a233600052600e6020526040600020604051613a7381614661565b600d8152602081019063ffffffff42168252604081019384526060810193600085526080820193600085528054600160401b8110156105bc5761053491600182018155614847565b3386526003602052600c6040872001613ad586825461497f565b9055613a44565b92600080516020615f778339815191529150613afb84613a56926147bd565b613b078160085461497f565b6008559150613a2a565b50808411613a25565b506020823d602011613b46575b81613b346020938361468f565b81010312610b8957613a1c9151613a12565b3d9150613b27565b613b5a9095919561467c565b93386139be565b9092506020813d602011613b8d575b81613b7d6020938361468f565b81010312610af457519138613982565b3d9150613b70565b909181613bcd91848952600860408a2001613bb183825461497f565b90558489526003602052600960408a2001612ff283825461497f565b918652600e6020526040862060405191613be683614661565b6001835263ffffffff42166020840152604083015260016060830152336080830152805490600160401b821015613cb35790613c2791600182018155614847565b613c9f5781518154602084015164ffffffffff1990911660ff92831617600891821b64ffffffff001617835560408401516001840155606084015160029390930180546080909501516001600160a81b031990951693909216929092179290911b610100600160a81b03169190911790553880613929565b634e487b7160e01b87526004879052602487fd5b634e487b7160e01b88526041600452602488fd5b50801515613924565b5081875260ff604088205460081c1661391e565b6040519491939192613cf586614661565b60058652600260208701526001604087015260016060870152600160808701523384526003602052604084205460018060a01b039060101c169284935b600560ff86161015613e66576064613d5160ff6116f38189168c615af3565b048015613e28576001600160a01b038216151580613e06575b613d9b575b506001600160a01b0390811686526003602052604086205460101c1693613d959061526a565b93613d32565b93613ded85613e009260018060a01b0385168a526003602052600860408b2001613dc683825461497f565b90556001600160a01b0385168a52600360205260408a206009018054612ff290849061497f565b943390613df988615b04565b9084614863565b38613d6f565b506001600160a01b03821687526003602052604087205460081c60ff16613d6a565b50936001600160a01b03851680613e44575b50613d959061526a565b86526003602052604086205460101c6001600160a01b03169450613d95613e3a565b5094925092945061392c565b63018b82008101809111611acc574210613e8c57386138bc565b60405162461bcd60e51b815260206004820152602660248201527f5374696c6c206c6f636b65643a2031302d6d6f6e746820706572696f64206e6f6044820152653a1037bb32b960d11b6064820152608490fd5b503461031c576107d8613ef23661454f565b90613efb614758565b613f03614817565b615680565b503461031c57604036600319011261031c57613f226144af565b60243590613f2e614758565b6001600160a01b031690811561073157600854818110613f925781613f767fba443e8671971c36cdeb74f87321041daff421230cbc5e36cb835269ed1d8b7e936020936147bd565b60085583855260038252600860408620016106ce82825461497f565b60405162461bcd60e51b8152602060048201526012602482015271115e18d959591cc818591b5a5b881c1bdbdb60721b6044820152606490fd5b503461031c57602036600319011261031c576020906040906001600160a01b03613ff46144af565b168152600c83522054604051908152f35b503461031c578060031936011261031c576001546040516001600160a01b039091168152602090f35b503461031c57602036600319011261031c576140486144af565b614050614758565b6001600160a01b0316801561073157600180546001600160a01b031916821790556040519081527ffa7bd61554593f4e69cdffd255d3fe947352b02c7d3ec68059384934e4cfd47c90602090a180f35b503461031c57602080600319360112610af4576001600160a01b036140c36144af565b16808352600d8083526040842054928492855b85811061423c57506140e784615f04565b946140f185615f04565b916140fb86615f04565b9461410e61410888615f04565b97615f04565b988091815b85811061417f57506141448a61417b8d61416d8d61415f8e6141518f8f6040519a8b9a60a08c5260a08c019061451b565b918a8303908b015261451b565b90878203604089015261451b565b90858203606087015261451b565b90838203608085015261451b565b0390f35b8b8b8b8b8a8c8a60ff600461419d8a60408e8e878252885220615b16565b500154166141bb575b505050505050506141b690614808565b614113565b9461422d9694614227948c97948a6141f1819f8f8f9e6141b69f8260409160039c869e6141ea96525220615b16565b5096615416565b526141fe86855492615416565b5261420e85600185015492615416565b5261421e84600284015492615416565b52015492615416565b52614808565b9390508b8b8b8b8a8c8a6141a6565b81875283835260ff60046142538360408b20615b16565b5001541661426a575b61426590614808565b6140d6565b9361427761426591614808565b94905061425c565b503461031c57602036600319011261031c57614309906040906001600160a01b036142a86144af565b16815260036020522060ff6019820154166143336142c8601584016146b2565b926143256142d8601683016146b2565b916143176142f460186142ed601785016146b2565b93016146b2565b9360405198899860a08a5260a08a01906144db565b9088820360208a01526144db565b9086820360408801526144db565b9084820360608601526144db565b90151560808301520390f35b503461031c578060031936011261031c57614358614817565b3381526003602052604081205460ff8116156108255760081c60ff16610813576040516323b872dd60e01b815233600482015230602482015268070c1cc73b00c800006044820152602081606481857f00000000000000000000000000000000000000000000000000000000000000006001600160a01b03165af1908115610ae95782916143f0575b5015610af8576107d833614b49565b90506020813d8211614421575b8161440a6020938361468f565b81010312610af45761441b906147e0565b386143e1565b3d91506143fd565b503461031c57602036600319011261031c5760409081906001600160a01b036144506144af565b1681526003602052206010600f82015491015482519182526020820152f35b503461031c578060031936011261031c57602060405168070c1cc73b00c800008152f35b905034610af45781600319360112610af4576020906007548152f35b600435906001600160a01b0382168203610b8957565b602435906001600160a01b0382168203610b8957565b919082519283825260005b848110614507575050826000602080949584010152601f8019910116010190565b6020818301810151848301820152016144e6565b90815180825260208080930193019160005b82811061453b575050505090565b83518552938101939281019260010161452d565b6040906003190112610b89576004359060243590565b34610b89576000366003190112610b89576020604051601e8152f35b9181601f84011215610b89578235916001600160401b038311610b895760208381860195010111610b8957565b6060906003190112610b89576004356001600160a01b0381168103610b8957906024359060443590565b602435908115158203610b8957565b604435908115158203610b8957565b60045481101561461157600460005260206000200190600090565b634e487b7160e01b600052603260045260246000fd5b90600182811c92168015614657575b602083101461464157565b634e487b7160e01b600052602260045260246000fd5b91607f1691614636565b60a081019081106001600160401b038211176105bc57604052565b6001600160401b0381116105bc57604052565b601f909101601f19168101906001600160401b038211908210176105bc57604052565b90604051918260008254926146c684614627565b90818452600194858116908160001461473557506001146146f2575b50506146f09250038361468f565b565b9093915060005260209081600020936000915b81831061471d5750506146f0935082010138806146e2565b85548884018501529485019487945091830191614705565b9150506146f094506020925060ff191682840152151560051b82010138806146e2565b6000546001600160a01b0316330361476c57565b60405163118cdaa760e01b8152336004820152602490fd5b1561478b57565b60405162461bcd60e51b815260206004820152600a6024820152694e6f742061637469766560b01b6044820152606490fd5b919082039182116147ca57565b634e487b7160e01b600052601160045260246000fd5b51908115158203610b8957565b6001600160a01b039091168152602081019190915260400190565b60001981146147ca5760010190565b600080516020615fb783398151915260028154146148355760029055565b604051633ee5aeb560e01b8152600490fd5b8054821015614611576000526003602060002091020190600090565b9092919260018060a01b0380600093168352600e602052604083206040519061488b82614661565b60018252602082019263ffffffff421684526040830194855260ff60608401981688526080830196168652805490600160401b821015611a7757906148d591600182018155614847565b94909461493a5750518354915164ffffffffff1990921660ff91821617600892831b64ffffffff00161784559151600184015593516002909201805493516001600160a81b031990941692909116919091179190921b610100600160a81b0316179055565b634e487b7160e01b81526004819052602490fd5b1561495557565b60405162461bcd60e51b81526020600482015260026024820152615a4160f01b6044820152606490fd5b919082018092116147ca57565b6001600160a01b039081166000818152600360205260409020805461ff01600160b01b03191660109490941b62010000600160b01b03169390931760011783556002830180546001600160a81b0319169483169490941794151560a01b60ff60a01b16949094179092556012810180546001600160a01b031916905542601490910155600454909190600160401b8110156105bc57806001614a3192016004556145f6565b909283549160031b92831b921b1916179055614a4e600554614808565b600555565b60018060a01b039182600092168252600391602092808452600291604091838383200154958787169560ff96898860a09a8b1c16915b16908115614ae55715614ac857808552838352600586862001614aac8154614808565b90555b8452828252858585200154898089838c1c169216614a89565b808552838352600686862001614ade8154614808565b9055614aaf565b5050975050505050505050565b818102929181159184041417156147ca57565b8115614b0f570490565b634e487b7160e01b600052601260045260246000fd5b9192608093969594919660a084019784526020840152604083015260608201520152565b600154604051623144bd60e31b815291926000916001600160a01b0316602084600481845afa938415610fc3578394615236575b5083156152225760405163095ea7b360e01b8152600481019190915268070c1cc73b00c800006024820152602081604481867f00000000000000000000000000000000000000000000000000000000000000006001600160a01b03165af18015610fc3576151e9575b506001546040516370a0823160e01b808252306004830152916001600160a01b0316602082602481845afa9182156151aa5785926151b5575b50803b1561310c57848091604460405180948193634e538d9360e11b835230600484015268070c1cc73b00c8000060248401525af180156151aa57615197575b50600154604051928352306004840152602090839060249082906001600160a01b03165afa8015611138578490615163575b614c9b92506147bd565b93601e6b030e68b6d6e0acc82863363160251b859004818102959181870414901517156130b057614d0861188a614ced606488046118a08181816b030e68b6d6e0acc82863363160251b8990046147bd565b614cfc6064890460065461497f565b6006556064880461497f565b6008556001600160a01b038281168552600360205260408520805461ff001916610100178082556815245655b102580000600b90920191909155949687956001959260109190911c165b600a60ff8716111580615151575b15614fec57614d81866b030e68b6d6e0acc82863363160251b869004615290565b988915614fc45789614d929161497f565b9860018060a01b03821688526003602052858760408a2060ff815460081c169081614fad575b5015614e8257614e579260018060a01b0385168b526003602052600860408c2001614de482825461497f565b90556001600160a01b0385168b52600360205260408b206009018054614e0b90839061497f565b90556040516001600160a01b0384811691908716907fb16479bdac5b7099d9236d6fc6be3b30ff54188f4fd961686e1e1dc7ecb880379080614e4e86888361527b565b0390a384614863565b6001600160a01b0390811687526003602052604087205460101c1694614e7c9061526a565b94614d52565b5050614e908160085461497f565b6008556040516001600160a01b038316907f117ca0cd821ecb7eadfea2d6927a67853908bdc351a386235215f5ab6071bfed9080614ecf858c8361527b565b0390a260018060a01b038216600052600e602052604060002060405191614ef583614661565b600283524263ffffffff166020840152604083015260ff88166060830152600060808301528054600160401b8110156105bc57614f3791600182018155614847565b6105a65781518154602084015164ffffffffff1990911660ff92831617600891821b64ffffffff001617835560408401516001840155606084015160029390930180546080909501516001600160a81b031990951693909216929092179290911b610100600160a81b0316919091179055614e57565b600191500154614fbc826153dc565b111538614db8565b6001600160a01b0391821688526003602052604088205490995060101c1694614e7c9061526a565b509295919450957f8af2c013a5a55c6d3ad5423522fe76c6f2eb831b5e23318276b3c678cb457fc99350806064830411615138575b506040516001600160a01b038616949092839261505d92606490910491829182916b030e68b6d6e0acc82863363160251b919091049086614b25565b0390a260018060a01b0316600052600e60205260406000206040519061508282614661565b600082526020820163ffffffff42168152604083019268070c1cc73b00c8000084526060810193600085526080820193600085528054600160401b8110156105bc576150d391600182018155614847565b9190916105a65791518154935164ffffffffff1990941660ff91821617600894851b64ffffffff0016178255915160018201559351600294909401805493516001600160a81b0319909416949091169390931791901b610100600160a81b0316179055565b61188a61514891606484046147bd565b60085538615021565b506001600160a01b0381161515614d60565b506020823d60201161518f575b8161517d6020938361468f565b81010312610b8957614c9b9151614c91565b3d9150615170565b6151a39094919461467c565b9238614c5f565b6040513d87823e3d90fd5b9091506020813d6020116151e1575b816151d16020938361468f565b8101031261310c57519038614c1f565b3d91506151c4565b6020813d60201161521a575b816152026020938361468f565b81010312610fb757615213906147e0565b5038614be6565b3d91506151f5565b634e487b7160e01b83526012600452602483fd5b9093506020813d602011615262575b816152526020938361468f565b81010312610fb757519238614b7d565b3d9150615245565b60ff1660ff81146147ca5760010190565b6020909392919360ff60408201951681520152565b9060ff16600181146153c157600281146153a6576003811461538b5760049081811461537457600581146153575760068114615357576007811461533a576008811461533a576009811461531d57600a146152ec575050600090565b8160011b918083046002149015171561530857506103e8900490565b601190634e487b7160e01b6000525260246000fd5b508160011b918083046002149015171561530857506103e8900490565b5060038202918083046003149015171561530857506103e8900490565b5060058202918083046005149015171561530857506103e8900490565b508180046001148215171561530857506064900490565b508060011b90808204600214901517156147ca576064900490565b506005810290808204600514901517156147ca576064900490565b506014810290808204601414901517156147ca576064900490565b60ff16600181146153f957600410156153f457600590565b600290565b50600090565b6001600160401b0381116105bc5760051b60200190565b80518210156146115760209160051b010190565b8180615641575b61563a578115918280615615575b61560d576005549260018085018095116147ca5761545c856153ff565b9061547760409661546f8851948561468f565b8084526153ff565b9260209283810194601f190136863760008087156155ee576001600160a01b03898116835260038088528b8420015416965b6001600160a01b03978816806155da575b50505b818110615538575050508061551d575b6155135750826154f6575b50506154ef57815163c5bb5bcd60e01b8152600490fd5b9160009150565b8160039293508416600052526004836000200154161538806154d8565b9594505050509190565b508285166000526003825282600387600020015416156154cd565b8661554c61554583614808565b9285615416565b51168060005260038088528b6000209189828401541680156155c7578a60048095015416156155b357908a93929161558d61558688614808565b9789615416565b5260005288528b6000200154166155ad6155a684614808565b9385615416565b526154bd565b509b50505050505050505050505090600090565b509a505050505050509594505050509190565b9092508592845115614611575238806154ba565b6001600160a01b038981168352600387528a83206004015416966154a9565b509160009150565b506001600160a01b03828116600090815260036020526040902060040154161561543f565b9160019150565b5060018060a01b0380821660005260036020526003604060002001541615615431565b9094939260609260808301968352602083015260408201520152565b919060ff90600a82815416615aa5576006908154928315615a6c57600090818455604685028581046046036107ed5760649004956156be87876147bd565b946156ce6009938785558b61497f565b916004948554808511615a64575b50809b805b8581106159cf57508c156159845793944263ffffffff16945b86811061573b5750505050505050509461573691600080516020615f978339815191529596600160ff1982541617905560405194859485615664565b0390a1565b82848f8e8c9161574a866145f6565b9290549260039360018060a01b0391851b1c16908187526020928484528c6040968b888b209283549a60089b8c1c161561596f57600584015490840154808210156159675750935b6007938401548086111561595f576157aa90866147bd565b955b8615615949578a916127b5886157c193614af2565b9b8781528989528c6157d98d8484200191825461497f565b905587815289895220016157ee8b825461497f565b9055808402908482040361593357927fbee8f46206dc051d674f6ca1e618efe407d83b27ffbe3540b916edfd34e428e1928892838f88978882528b8b5261583c60118484200191825461497f565b90558781528a8a5220015581519081528986820152a28852600e81528288209083519261586884614661565b83528201928b84528201948552606082019488865260808301938985528254600160401b81101561591f576158a4906001948582018155614847565b94909461590c57518454915164ffffffffff19909216908c161790861b64ffffffff001617835551908201559251600293909301805491516001600160a81b031990921693881693909317911b610100600160a81b031617905561590790614808565b6156fa565b8f8b80602492634e487b7160e01b825252fd5b8f8b6041602492634e487b7160e01b835252fd5b50508f8b6011602492634e487b7160e01b835252fd5b5050505050505050505050505061590790614808565b508b956157ac565b905093615792565b50505050505050505050505061590790614808565b5096915050600080516020615f978339815191529899508594506159b192935061188a915060809761497f565b600855556040519182528060208301528060408301526060820152a1565b6159d8816145f6565b9054600391821b1c6001600160a01b0316845260205260408320805460081c851615615a5a576007600582015487830154808210600014615a525750915b015490818111615a31575b5050615a2c90614808565b6156e1565b9e615a2c929f615a4a92615a44916147bd565b9061497f565b9d9038615a21565b905091615a16565b50615a2c90614808565b9350386156dc565b60405162461bcd60e51b8152602060048201526011602482015270115b5c1d1e48189a5b985c9e481c1bdbdb607a1b6044820152606490fd5b60405162c9487960e41b8152600490fd5b15615abd57565b60405162461bcd60e51b815260206004820152600e60248201526d139bdd081c9959da5cdd195c995960921b6044820152606490fd5b9060058110156146115760051b0190565b60ff60019116019060ff82116147ca57565b8054821015614611576000526005602060002091020190600090565b15615b3957565b60405162461bcd60e51b815260206004820152600d60248201526c092dcecc2d8d2c840d2dcc8caf609b1b6044820152606490fd5b15615b7557565b60405162461bcd60e51b815260206004820152601060248201526f105b1c9958591e481d5b9cdd185ad95960821b6044820152606490fd5b6002546001600160a01b0316908115615c29576020906024604051809481936347cd519160e01b835260048301525afa908115615c1d57600091615bef575090565b906020823d8211615c15575b81615c086020938361468f565b8101031261031c57505190565b3d9150615bfb565b6040513d6000823e3d90fd5b5050600090565b6002546001600160a01b0316908115615c29576020906024604051809481936375b1f0e160e11b835260048301525afa908115615c1d57600091615bef575090565b6002546001600160a01b0316908115615c2957602090602460405180948193631d61396160e11b835260048301525afa908115615c1d57600091615bef575090565b6002546001600160a01b03908116918215615d5f57166024600082815260206003815280600f60408420015495604051948580926347cd519160e01b8252600160048301525afa928315610ae9578293615d2f575b5060ff9160036040928596835252205460081c169081615d27575092565b905082101592565b9080935081813d8311615d58575b615d47818361468f565b81010312610af457519160ff615d09565b503d615d3d565b505050600090600090600090565b929060018060a01b0380600095168552602090600e82526040908187209283549687158015615efa575b615ebe57615da586896147bd565b80821015615eb65750935b615db9856153ff565b95615dc68551978861468f565b858752601f19615dd5876153ff565b01838b5b828110615e84575050508699805b878110615df957505050505050505050565b6000198b018b81116107ed5790615e20615e1a826118a087615e7f966147bd565b86614847565b5087895191615e2e83614661565b8054600260ff92838316865263ffffffff600893841c168c8701528d600182015490870152015491821660608501521c166080820152615e6e828c615416565b52615e79818b615416565b50614808565b615de7565b8751615e8f81614661565b8d81528d838201528d898201528d60608201528d608082015282828c010152018490615dd9565b905093615db0565b5082519697959695945085019250506001600160401b03821184831017615ee6575281529190565b634e487b7160e01b83526041600452602483fd5b5087861015615d97565b90615f0e826153ff565b615f1b604051918261468f565b8281528092615f2c601f19916153ff565b019060203691013756fe34ff37874d7443037a85c6f390fe14f2ae3e8767355de0e63891ad4367c275398be0079c531659141344cd1fd0a4f28419497f9722a3daafe3b4186f6b6457e0dcfd2b4017d03f7e541021db793b2f9b31e4acdee005f789e52853c390e3e962a0ea5705200c9ffd36dc735fef1592c3234bb7e311fc1b0a444f6370d0620eae9b779b17422d0df92223018b32b4d1fa46e071723d6817e2486d003becc55f00a2646970667358221220c0ac69040fe97fa5cf8ed2ec367863b05ee401ae76e60277f9c57471d125367164736f6c63430008140033",
  "linkReferences": {},
  "deployedLinkReferences": {}
}