{
  "_format": "hh-sol-artifact-1",
  "contractName": "MvaultContract",
  "sourceName": "contracts/MvaultContract.sol",
  "abi": [
    {
      "inputs": [
        {
          "internalType": "address",
          "name": "_usdt",
          "type": "address"
        },
        {
          "internalType": "address",
          "name": "_mvaultToken",
          "type": "address"
        }
      ],
      "stateMutability": "nonpayable",
      "type": "constructor"
    },
    {
      "inputs": [],
      "name": "AlreadyActive",
      "type": "error"
    },
    {
      "inputs": [],
      "name": "AlreadyRegistered",
      "type": "error"
    },
    {
      "inputs": [],
      "name": "BinaryAlreadyDistributed",
      "type": "error"
    },
    {
      "inputs": [],
      "name": "BinaryNotDistributed",
      "type": "error"
    },
    {
      "inputs": [],
      "name": "BoardHandlerNotSet",
      "type": "error"
    },
    {
      "inputs": [],
      "name": "InsufficientBtcPool",
      "type": "error"
    },
    {
      "inputs": [],
      "name": "InsufficientBtcPoolForBoard",
      "type": "error"
    },
    {
      "inputs": [],
      "name": "InsufficientRebirthPool",
      "type": "error"
    },
    {
      "inputs": [],
      "name": "InsufficientUsdtBalance",
      "type": "error"
    },
    {
      "inputs": [],
      "name": "InsufficientVirtualBalance",
      "type": "error"
    },
    {
      "inputs": [],
      "name": "InvalidSponsor",
      "type": "error"
    },
    {
      "inputs": [],
      "name": "NoOpenBinarySlot",
      "type": "error"
    },
    {
      "inputs": [],
      "name": "NotRegistered",
      "type": "error"
    },
    {
      "inputs": [
        {
          "internalType": "address",
          "name": "owner",
          "type": "address"
        }
      ],
      "name": "OwnableInvalidOwner",
      "type": "error"
    },
    {
      "inputs": [
        {
          "internalType": "address",
          "name": "account",
          "type": "address"
        }
      ],
      "name": "OwnableUnauthorizedAccount",
      "type": "error"
    },
    {
      "inputs": [],
      "name": "PositionTaken",
      "type": "error"
    },
    {
      "inputs": [],
      "name": "ReentrancyGuardReentrantCall",
      "type": "error"
    },
    {
      "inputs": [],
      "name": "TransferFailed",
      "type": "error"
    },
    {
      "inputs": [],
      "name": "ZeroAddress",
      "type": "error"
    },
    {
      "inputs": [],
      "name": "ZeroAmount",
      "type": "error"
    },
    {
      "anonymous": false,
      "inputs": [
        {
          "indexed": true,
          "internalType": "address",
          "name": "user",
          "type": "address"
        },
        {
          "indexed": false,
          "internalType": "uint256",
          "name": "mvtMinted",
          "type": "uint256"
        },
        {
          "indexed": false,
          "internalType": "uint256",
          "name": "grossMvt",
          "type": "uint256"
        },
        {
          "indexed": false,
          "internalType": "uint256",
          "name": "levelAmt",
          "type": "uint256"
        },
        {
          "indexed": false,
          "internalType": "uint256",
          "name": "binaryAmt",
          "type": "uint256"
        },
        {
          "indexed": false,
          "internalType": "uint256",
          "name": "adminAmt",
          "type": "uint256"
        }
      ],
      "name": "Activated",
      "type": "event"
    },
    {
      "anonymous": false,
      "inputs": [
        {
          "indexed": true,
          "internalType": "address",
          "name": "to",
          "type": "address"
        },
        {
          "indexed": false,
          "internalType": "uint256",
          "name": "amount",
          "type": "uint256"
        }
      ],
      "name": "AdminWithdraw",
      "type": "event"
    },
    {
      "anonymous": false,
      "inputs": [
        {
          "indexed": false,
          "internalType": "uint256",
          "name": "totalPool",
          "type": "uint256"
        },
        {
          "indexed": false,
          "internalType": "uint256",
          "name": "binary70",
          "type": "uint256"
        },
        {
          "indexed": false,
          "internalType": "uint256",
          "name": "powerLeg30",
          "type": "uint256"
        },
        {
          "indexed": false,
          "internalType": "uint256",
          "name": "totalPairs",
          "type": "uint256"
        }
      ],
      "name": "BinaryIncomeDistributed",
      "type": "event"
    },
    {
      "anonymous": false,
      "inputs": [
        {
          "indexed": true,
          "internalType": "address",
          "name": "user",
          "type": "address"
        },
        {
          "indexed": false,
          "internalType": "uint256",
          "name": "newPairs",
          "type": "uint256"
        },
        {
          "indexed": false,
          "internalType": "uint256",
          "name": "amount",
          "type": "uint256"
        }
      ],
      "name": "BinaryIncomePaid",
      "type": "event"
    },
    {
      "anonymous": false,
      "inputs": [
        {
          "indexed": true,
          "internalType": "address",
          "name": "user",
          "type": "address"
        },
        {
          "indexed": false,
          "internalType": "uint256",
          "name": "boardLevel",
          "type": "uint256"
        },
        {
          "indexed": false,
          "internalType": "uint256",
          "name": "usdtDeducted",
          "type": "uint256"
        }
      ],
      "name": "BoardEntered",
      "type": "event"
    },
    {
      "anonymous": false,
      "inputs": [
        {
          "indexed": true,
          "internalType": "address",
          "name": "newHandler",
          "type": "address"
        }
      ],
      "name": "BoardHandlerUpdated",
      "type": "event"
    },
    {
      "anonymous": false,
      "inputs": [
        {
          "indexed": true,
          "internalType": "address",
          "name": "user",
          "type": "address"
        },
        {
          "indexed": false,
          "internalType": "uint256",
          "name": "usdtAmount",
          "type": "uint256"
        },
        {
          "indexed": false,
          "internalType": "uint256",
          "name": "boardLevel",
          "type": "uint256"
        }
      ],
      "name": "BoardRewardCredited",
      "type": "event"
    },
    {
      "anonymous": false,
      "inputs": [
        {
          "indexed": true,
          "internalType": "address",
          "name": "user",
          "type": "address"
        },
        {
          "indexed": false,
          "internalType": "uint256",
          "name": "amount",
          "type": "uint256"
        }
      ],
      "name": "BtcPoolCredited",
      "type": "event"
    },
    {
      "anonymous": false,
      "inputs": [
        {
          "indexed": true,
          "internalType": "address",
          "name": "user",
          "type": "address"
        },
        {
          "indexed": false,
          "internalType": "uint256",
          "name": "amount",
          "type": "uint256"
        }
      ],
      "name": "BtcPoolWithdrawn",
      "type": "event"
    },
    {
      "anonymous": false,
      "inputs": [
        {
          "indexed": true,
          "internalType": "address",
          "name": "user",
          "type": "address"
        },
        {
          "indexed": false,
          "internalType": "uint256",
          "name": "stakeIndex",
          "type": "uint256"
        },
        {
          "indexed": false,
          "internalType": "uint256",
          "name": "lockedSince",
          "type": "uint256"
        }
      ],
      "name": "ConvertedToLocked",
      "type": "event"
    },
    {
      "anonymous": false,
      "inputs": [
        {
          "indexed": true,
          "internalType": "address",
          "name": "to",
          "type": "address"
        },
        {
          "indexed": true,
          "internalType": "address",
          "name": "from",
          "type": "address"
        },
        {
          "indexed": false,
          "internalType": "uint8",
          "name": "level",
          "type": "uint8"
        },
        {
          "indexed": false,
          "internalType": "uint256",
          "name": "amount",
          "type": "uint256"
        }
      ],
      "name": "LevelIncomePaid",
      "type": "event"
    },
    {
      "anonymous": false,
      "inputs": [
        {
          "indexed": true,
          "internalType": "address",
          "name": "upline",
          "type": "address"
        },
        {
          "indexed": false,
          "internalType": "uint8",
          "name": "level",
          "type": "uint8"
        },
        {
          "indexed": false,
          "internalType": "uint256",
          "name": "amount",
          "type": "uint256"
        }
      ],
      "name": "LevelIncomeSkipped",
      "type": "event"
    },
    {
      "anonymous": false,
      "inputs": [
        {
          "indexed": false,
          "internalType": "address",
          "name": "newToken",
          "type": "address"
        }
      ],
      "name": "MvaultTokenUpdated",
      "type": "event"
    },
    {
      "anonymous": false,
      "inputs": [
        {
          "indexed": true,
          "internalType": "address",
          "name": "user",
          "type": "address"
        },
        {
          "indexed": false,
          "internalType": "uint256",
          "name": "mvtAmount",
          "type": "uint256"
        },
        {
          "indexed": false,
          "internalType": "uint256",
          "name": "usdtNet",
          "type": "uint256"
        },
        {
          "indexed": false,
          "internalType": "uint256",
          "name": "usdtToBtcPool",
          "type": "uint256"
        },
        {
          "indexed": false,
          "internalType": "uint256",
          "name": "usdtToIncome",
          "type": "uint256"
        },
        {
          "indexed": false,
          "internalType": "uint256",
          "name": "usdtToRebirth",
          "type": "uint256"
        }
      ],
      "name": "MvtSold",
      "type": "event"
    },
    {
      "anonymous": false,
      "inputs": [
        {
          "indexed": true,
          "internalType": "address",
          "name": "previousOwner",
          "type": "address"
        },
        {
          "indexed": true,
          "internalType": "address",
          "name": "newOwner",
          "type": "address"
        }
      ],
      "name": "OwnershipTransferred",
      "type": "event"
    },
    {
      "anonymous": false,
      "inputs": [
        {
          "indexed": false,
          "internalType": "uint256",
          "name": "totalPowerLeg30",
          "type": "uint256"
        },
        {
          "indexed": false,
          "internalType": "uint256",
          "name": "totalPowerLegs",
          "type": "uint256"
        }
      ],
      "name": "PowerLegDistributed",
      "type": "event"
    },
    {
      "anonymous": false,
      "inputs": [
        {
          "indexed": true,
          "internalType": "address",
          "name": "user",
          "type": "address"
        },
        {
          "indexed": false,
          "internalType": "uint256",
          "name": "powerLegPoints",
          "type": "uint256"
        },
        {
          "indexed": false,
          "internalType": "uint256",
          "name": "amount",
          "type": "uint256"
        }
      ],
      "name": "PowerLegIncomePaid",
      "type": "event"
    },
    {
      "anonymous": false,
      "inputs": [
        {
          "indexed": true,
          "internalType": "address",
          "name": "user",
          "type": "address"
        }
      ],
      "name": "ProfileUpdated",
      "type": "event"
    },
    {
      "anonymous": false,
      "inputs": [
        {
          "indexed": true,
          "internalType": "address",
          "name": "mainAccount",
          "type": "address"
        },
        {
          "indexed": true,
          "internalType": "address",
          "name": "subAccount",
          "type": "address"
        },
        {
          "indexed": false,
          "internalType": "uint256",
          "name": "rebirthIndex",
          "type": "uint256"
        }
      ],
      "name": "Reborn",
      "type": "event"
    },
    {
      "anonymous": false,
      "inputs": [
        {
          "indexed": true,
          "internalType": "address",
          "name": "user",
          "type": "address"
        },
        {
          "indexed": true,
          "internalType": "address",
          "name": "sponsor",
          "type": "address"
        },
        {
          "indexed": true,
          "internalType": "address",
          "name": "binaryParent",
          "type": "address"
        },
        {
          "indexed": false,
          "internalType": "bool",
          "name": "placeLeft",
          "type": "bool"
        }
      ],
      "name": "Registered",
      "type": "event"
    },
    {
      "anonymous": false,
      "inputs": [
        {
          "indexed": true,
          "internalType": "address",
          "name": "payer",
          "type": "address"
        },
        {
          "indexed": true,
          "internalType": "address",
          "name": "newUser",
          "type": "address"
        },
        {
          "indexed": true,
          "internalType": "address",
          "name": "sponsor",
          "type": "address"
        },
        {
          "indexed": false,
          "internalType": "bool",
          "name": "placeLeft",
          "type": "bool"
        }
      ],
      "name": "RegisteredAndActivatedFor",
      "type": "event"
    },
    {
      "anonymous": false,
      "inputs": [
        {
          "indexed": true,
          "internalType": "address",
          "name": "to",
          "type": "address"
        },
        {
          "indexed": false,
          "internalType": "uint256",
          "name": "amount",
          "type": "uint256"
        }
      ],
      "name": "ReserveWithdraw",
      "type": "event"
    },
    {
      "anonymous": false,
      "inputs": [
        {
          "indexed": true,
          "internalType": "address",
          "name": "to",
          "type": "address"
        },
        {
          "indexed": true,
          "internalType": "address",
          "name": "from",
          "type": "address"
        },
        {
          "indexed": false,
          "internalType": "uint8",
          "name": "level",
          "type": "uint8"
        },
        {
          "indexed": false,
          "internalType": "uint256",
          "name": "usdtAmount",
          "type": "uint256"
        }
      ],
      "name": "StakeLevelIncomePaid",
      "type": "event"
    },
    {
      "anonymous": false,
      "inputs": [
        {
          "indexed": true,
          "internalType": "address",
          "name": "user",
          "type": "address"
        },
        {
          "indexed": false,
          "internalType": "uint256",
          "name": "stakeIndex",
          "type": "uint256"
        },
        {
          "indexed": false,
          "internalType": "uint256",
          "name": "usdtAmount",
          "type": "uint256"
        },
        {
          "indexed": false,
          "internalType": "uint256",
          "name": "mvtMinted",
          "type": "uint256"
        },
        {
          "indexed": false,
          "internalType": "bool",
          "name": "isLocked",
          "type": "bool"
        }
      ],
      "name": "Staked",
      "type": "event"
    },
    {
      "anonymous": false,
      "inputs": [
        {
          "indexed": true,
          "internalType": "address",
          "name": "user",
          "type": "address"
        },
        {
          "indexed": false,
          "internalType": "uint256",
          "name": "stakeIndex",
          "type": "uint256"
        },
        {
          "indexed": false,
          "internalType": "uint256",
          "name": "mvtReturned",
          "type": "uint256"
        },
        {
          "indexed": false,
          "internalType": "uint256",
          "name": "usdtReceived",
          "type": "uint256"
        },
        {
          "indexed": false,
          "internalType": "uint256",
          "name": "adminCapCut",
          "type": "uint256"
        }
      ],
      "name": "Unstaked",
      "type": "event"
    },
    {
      "anonymous": false,
      "inputs": [
        {
          "indexed": true,
          "internalType": "address",
          "name": "user",
          "type": "address"
        },
        {
          "indexed": false,
          "internalType": "uint256",
          "name": "amount",
          "type": "uint256"
        }
      ],
      "name": "UsdtWithdrawn",
      "type": "event"
    },
    {
      "inputs": [],
      "name": "ADMIN_ALLOC",
      "outputs": [
        {
          "internalType": "uint256",
          "name": "",
          "type": "uint256"
        }
      ],
      "stateMutability": "view",
      "type": "function"
    },
    {
      "inputs": [],
      "name": "BINARY_ALLOC",
      "outputs": [
        {
          "internalType": "uint256",
          "name": "",
          "type": "uint256"
        }
      ],
      "stateMutability": "view",
      "type": "function"
    },
    {
      "inputs": [],
      "name": "BTC_POOL_RATE",
      "outputs": [
        {
          "internalType": "uint256",
          "name": "",
          "type": "uint256"
        }
      ],
      "stateMutability": "view",
      "type": "function"
    },
    {
      "inputs": [],
      "name": "FLEX_CAP_MULT",
      "outputs": [
        {
          "internalType": "uint256",
          "name": "",
          "type": "uint256"
        }
      ],
      "stateMutability": "view",
      "type": "function"
    },
    {
      "inputs": [],
      "name": "INCOME_LIMIT",
      "outputs": [
        {
          "internalType": "uint256",
          "name": "",
          "type": "uint256"
        }
      ],
      "stateMutability": "view",
      "type": "function"
    },
    {
      "inputs": [],
      "name": "LEVEL_ALLOC",
      "outputs": [
        {
          "internalType": "uint256",
          "name": "",
          "type": "uint256"
        }
      ],
      "stateMutability": "view",
      "type": "function"
    },
    {
      "inputs": [],
      "name": "LOCK_DURATION",
      "outputs": [
        {
          "internalType": "uint256",
          "name": "",
          "type": "uint256"
        }
      ],
      "stateMutability": "view",
      "type": "function"
    },
    {
      "inputs": [],
      "name": "MIN_STAKE_USDT",
      "outputs": [
        {
          "internalType": "uint256",
          "name": "",
          "type": "uint256"
        }
      ],
      "stateMutability": "view",
      "type": "function"
    },
    {
      "inputs": [],
      "name": "PACKAGE_PRICE",
      "outputs": [
        {
          "internalType": "uint256",
          "name": "",
          "type": "uint256"
        }
      ],
      "stateMutability": "view",
      "type": "function"
    },
    {
      "inputs": [],
      "name": "activate",
      "outputs": [],
      "stateMutability": "nonpayable",
      "type": "function"
    },
    {
      "inputs": [],
      "name": "adminPool",
      "outputs": [
        {
          "internalType": "uint256",
          "name": "",
          "type": "uint256"
        }
      ],
      "stateMutability": "view",
      "type": "function"
    },
    {
      "inputs": [
        {
          "internalType": "uint256",
          "name": "",
          "type": "uint256"
        }
      ],
      "name": "allUsers",
      "outputs": [
        {
          "internalType": "address",
          "name": "",
          "type": "address"
        }
      ],
      "stateMutability": "view",
      "type": "function"
    },
    {
      "inputs": [],
      "name": "binaryPool",
      "outputs": [
        {
          "internalType": "uint256",
          "name": "",
          "type": "uint256"
        }
      ],
      "stateMutability": "view",
      "type": "function"
    },
    {
      "inputs": [
        {
          "internalType": "address",
          "name": "",
          "type": "address"
        }
      ],
      "name": "boardEntryCount",
      "outputs": [
        {
          "internalType": "uint256",
          "name": "",
          "type": "uint256"
        }
      ],
      "stateMutability": "view",
      "type": "function"
    },
    {
      "inputs": [],
      "name": "boardHandler",
      "outputs": [
        {
          "internalType": "contract IMvaultBoardMatrix",
          "name": "",
          "type": "address"
        }
      ],
      "stateMutability": "view",
      "type": "function"
    },
    {
      "inputs": [
        {
          "internalType": "address",
          "name": "_user",
          "type": "address"
        }
      ],
      "name": "canEnterBoard",
      "outputs": [
        {
          "internalType": "bool",
          "name": "eligible",
          "type": "bool"
        },
        {
          "internalType": "uint256",
          "name": "btcBalance",
          "type": "uint256"
        },
        {
          "internalType": "uint256",
          "name": "boardPrice",
          "type": "uint256"
        }
      ],
      "stateMutability": "view",
      "type": "function"
    },
    {
      "inputs": [
        {
          "internalType": "address",
          "name": "user",
          "type": "address"
        }
      ],
      "name": "canRebirth",
      "outputs": [
        {
          "internalType": "bool",
          "name": "eligible",
          "type": "bool"
        },
        {
          "internalType": "uint256",
          "name": "poolBalance",
          "type": "uint256"
        }
      ],
      "stateMutability": "view",
      "type": "function"
    },
    {
      "inputs": [
        {
          "internalType": "uint256",
          "name": "stakeIndex",
          "type": "uint256"
        }
      ],
      "name": "convertToLocked",
      "outputs": [],
      "stateMutability": "nonpayable",
      "type": "function"
    },
    {
      "inputs": [
        {
          "internalType": "address",
          "name": "_user",
          "type": "address"
        },
        {
          "internalType": "uint256",
          "name": "_usdtAmount",
          "type": "uint256"
        },
        {
          "internalType": "uint256",
          "name": "_boardLevel",
          "type": "uint256"
        }
      ],
      "name": "creditBoardReward",
      "outputs": [],
      "stateMutability": "nonpayable",
      "type": "function"
    },
    {
      "inputs": [
        {
          "internalType": "uint256",
          "name": "offset",
          "type": "uint256"
        },
        {
          "internalType": "uint256",
          "name": "limit",
          "type": "uint256"
        }
      ],
      "name": "distributeBinaryIncome",
      "outputs": [],
      "stateMutability": "nonpayable",
      "type": "function"
    },
    {
      "inputs": [
        {
          "internalType": "uint256",
          "name": "offset",
          "type": "uint256"
        },
        {
          "internalType": "uint256",
          "name": "limit",
          "type": "uint256"
        }
      ],
      "name": "distributePowerLeg",
      "outputs": [],
      "stateMutability": "nonpayable",
      "type": "function"
    },
    {
      "inputs": [],
      "name": "enterBoardPool",
      "outputs": [],
      "stateMutability": "nonpayable",
      "type": "function"
    },
    {
      "inputs": [
        {
          "internalType": "address",
          "name": "user",
          "type": "address"
        }
      ],
      "name": "getActiveStakes",
      "outputs": [
        {
          "internalType": "uint256[]",
          "name": "indices",
          "type": "uint256[]"
        },
        {
          "internalType": "uint256[]",
          "name": "mvtAmounts",
          "type": "uint256[]"
        },
        {
          "internalType": "uint256[]",
          "name": "usdtInvestedArr",
          "type": "uint256[]"
        },
        {
          "internalType": "uint256[]",
          "name": "stakedAts",
          "type": "uint256[]"
        },
        {
          "internalType": "uint256[]",
          "name": "lockedSinces",
          "type": "uint256[]"
        }
      ],
      "stateMutability": "view",
      "type": "function"
    },
    {
      "inputs": [],
      "name": "getAllUsersCount",
      "outputs": [
        {
          "internalType": "uint256",
          "name": "",
          "type": "uint256"
        }
      ],
      "stateMutability": "view",
      "type": "function"
    },
    {
      "inputs": [
        {
          "internalType": "uint256",
          "name": "_level",
          "type": "uint256"
        }
      ],
      "name": "getBoardCurrentIndex",
      "outputs": [
        {
          "internalType": "uint256",
          "name": "",
          "type": "uint256"
        }
      ],
      "stateMutability": "view",
      "type": "function"
    },
    {
      "inputs": [
        {
          "internalType": "uint256",
          "name": "_level",
          "type": "uint256"
        },
        {
          "internalType": "uint256",
          "name": "_index",
          "type": "uint256"
        }
      ],
      "name": "getBoardMatrixInfo",
      "outputs": [
        {
          "internalType": "address",
          "name": "owner",
          "type": "address"
        },
        {
          "internalType": "uint256",
          "name": "filledCount",
          "type": "uint256"
        },
        {
          "internalType": "bool",
          "name": "completed",
          "type": "bool"
        }
      ],
      "stateMutability": "view",
      "type": "function"
    },
    {
      "inputs": [
        {
          "internalType": "uint256",
          "name": "_level",
          "type": "uint256"
        }
      ],
      "name": "getBoardPrice",
      "outputs": [
        {
          "internalType": "uint256",
          "name": "",
          "type": "uint256"
        }
      ],
      "stateMutability": "view",
      "type": "function"
    },
    {
      "inputs": [
        {
          "internalType": "uint256",
          "name": "_level",
          "type": "uint256"
        }
      ],
      "name": "getBoardQueueLength",
      "outputs": [
        {
          "internalType": "uint256",
          "name": "",
          "type": "uint256"
        }
      ],
      "stateMutability": "view",
      "type": "function"
    },
    {
      "inputs": [
        {
          "internalType": "address",
          "name": "u",
          "type": "address"
        }
      ],
      "name": "getBtcPoolInfo",
      "outputs": [
        {
          "internalType": "uint256",
          "name": "btcPoolBalance",
          "type": "uint256"
        },
        {
          "internalType": "uint256",
          "name": "totalBtcEarned",
          "type": "uint256"
        }
      ],
      "stateMutability": "view",
      "type": "function"
    },
    {
      "inputs": [
        {
          "internalType": "address",
          "name": "u",
          "type": "address"
        }
      ],
      "name": "getCurrentBinaryPairs",
      "outputs": [
        {
          "internalType": "uint256",
          "name": "currentPairs",
          "type": "uint256"
        },
        {
          "internalType": "uint256",
          "name": "newPairs",
          "type": "uint256"
        }
      ],
      "stateMutability": "view",
      "type": "function"
    },
    {
      "inputs": [],
      "name": "getLockDuration",
      "outputs": [
        {
          "internalType": "uint256",
          "name": "",
          "type": "uint256"
        }
      ],
      "stateMutability": "pure",
      "type": "function"
    },
    {
      "inputs": [],
      "name": "getMvtContractBalance",
      "outputs": [
        {
          "internalType": "uint256",
          "name": "",
          "type": "uint256"
        }
      ],
      "stateMutability": "view",
      "type": "function"
    },
    {
      "inputs": [],
      "name": "getMvtPrice",
      "outputs": [
        {
          "internalType": "uint256",
          "name": "buyPrice",
          "type": "uint256"
        },
        {
          "internalType": "uint256",
          "name": "sellPrice",
          "type": "uint256"
        }
      ],
      "stateMutability": "view",
      "type": "function"
    },
    {
      "inputs": [],
      "name": "getPoolBalances",
      "outputs": [
        {
          "internalType": "uint256",
          "name": "binary",
          "type": "uint256"
        },
        {
          "internalType": "uint256",
          "name": "reserve",
          "type": "uint256"
        },
        {
          "internalType": "uint256",
          "name": "admin",
          "type": "uint256"
        }
      ],
      "stateMutability": "view",
      "type": "function"
    },
    {
      "inputs": [
        {
          "internalType": "address",
          "name": "_user",
          "type": "address"
        }
      ],
      "name": "getProfile",
      "outputs": [
        {
          "internalType": "string",
          "name": "displayName",
          "type": "string"
        },
        {
          "internalType": "string",
          "name": "email",
          "type": "string"
        },
        {
          "internalType": "string",
          "name": "phone",
          "type": "string"
        },
        {
          "internalType": "string",
          "name": "country",
          "type": "string"
        },
        {
          "internalType": "bool",
          "name": "profileSet",
          "type": "bool"
        }
      ],
      "stateMutability": "view",
      "type": "function"
    },
    {
      "inputs": [
        {
          "internalType": "address",
          "name": "user",
          "type": "address"
        },
        {
          "internalType": "uint256",
          "name": "index",
          "type": "uint256"
        }
      ],
      "name": "getStake",
      "outputs": [
        {
          "internalType": "uint256",
          "name": "mvtAmount",
          "type": "uint256"
        },
        {
          "internalType": "uint256",
          "name": "usdtInvested",
          "type": "uint256"
        },
        {
          "internalType": "uint256",
          "name": "stakedAt",
          "type": "uint256"
        },
        {
          "internalType": "uint256",
          "name": "lockedSince",
          "type": "uint256"
        },
        {
          "internalType": "bool",
          "name": "active",
          "type": "bool"
        }
      ],
      "stateMutability": "view",
      "type": "function"
    },
    {
      "inputs": [
        {
          "internalType": "address",
          "name": "user",
          "type": "address"
        }
      ],
      "name": "getStakeCount",
      "outputs": [
        {
          "internalType": "uint256",
          "name": "",
          "type": "uint256"
        }
      ],
      "stateMutability": "view",
      "type": "function"
    },
    {
      "inputs": [
        {
          "internalType": "address",
          "name": "_user",
          "type": "address"
        }
      ],
      "name": "getUserBoardStats",
      "outputs": [
        {
          "internalType": "uint256",
          "name": "entries",
          "type": "uint256"
        },
        {
          "internalType": "uint256",
          "name": "totalRewards",
          "type": "uint256"
        }
      ],
      "stateMutability": "view",
      "type": "function"
    },
    {
      "inputs": [
        {
          "internalType": "address",
          "name": "u",
          "type": "address"
        }
      ],
      "name": "getUserInfo",
      "outputs": [
        {
          "internalType": "bool",
          "name": "isRegistered",
          "type": "bool"
        },
        {
          "internalType": "bool",
          "name": "isActive",
          "type": "bool"
        },
        {
          "internalType": "address",
          "name": "sponsor",
          "type": "address"
        },
        {
          "internalType": "uint256",
          "name": "directCount",
          "type": "uint256"
        },
        {
          "internalType": "address",
          "name": "binaryParent",
          "type": "address"
        },
        {
          "internalType": "bool",
          "name": "placedLeft",
          "type": "bool"
        },
        {
          "internalType": "address",
          "name": "leftChild",
          "type": "address"
        },
        {
          "internalType": "address",
          "name": "rightChild",
          "type": "address"
        },
        {
          "internalType": "uint256",
          "name": "leftSubUsers",
          "type": "uint256"
        },
        {
          "internalType": "uint256",
          "name": "rightSubUsers",
          "type": "uint256"
        },
        {
          "internalType": "uint256",
          "name": "mvtBalance",
          "type": "uint256"
        },
        {
          "internalType": "uint256",
          "name": "totalReceived",
          "type": "uint256"
        },
        {
          "internalType": "uint256",
          "name": "totalSold",
          "type": "uint256"
        },
        {
          "internalType": "uint256",
          "name": "incomeLimit",
          "type": "uint256"
        },
        {
          "internalType": "uint256",
          "name": "usdtBalance",
          "type": "uint256"
        },
        {
          "internalType": "uint256",
          "name": "rebirthPool",
          "type": "uint256"
        },
        {
          "internalType": "uint256",
          "name": "btcPoolBalance",
          "type": "uint256"
        },
        {
          "internalType": "uint256",
          "name": "powerLegPoints",
          "type": "uint256"
        },
        {
          "internalType": "uint256",
          "name": "matchedPairs",
          "type": "uint256"
        },
        {
          "internalType": "address",
          "name": "mainAccount",
          "type": "address"
        },
        {
          "internalType": "uint256",
          "name": "rebirthCount",
          "type": "uint256"
        },
        {
          "internalType": "uint256",
          "name": "joinedAt",
          "type": "uint256"
        }
      ],
      "stateMutability": "view",
      "type": "function"
    },
    {
      "inputs": [],
      "name": "mvaultToken",
      "outputs": [
        {
          "internalType": "contract IMvaultToken",
          "name": "",
          "type": "address"
        }
      ],
      "stateMutability": "view",
      "type": "function"
    },
    {
      "inputs": [],
      "name": "owner",
      "outputs": [
        {
          "internalType": "address",
          "name": "",
          "type": "address"
        }
      ],
      "stateMutability": "view",
      "type": "function"
    },
    {
      "inputs": [
        {
          "internalType": "address",
          "name": "subAccount",
          "type": "address"
        },
        {
          "internalType": "bool",
          "name": "placeLeft",
          "type": "bool"
        }
      ],
      "name": "rebirth",
      "outputs": [],
      "stateMutability": "nonpayable",
      "type": "function"
    },
    {
      "inputs": [
        {
          "internalType": "address",
          "name": "sponsor",
          "type": "address"
        },
        {
          "internalType": "address",
          "name": "binaryParent",
          "type": "address"
        },
        {
          "internalType": "bool",
          "name": "placeLeft",
          "type": "bool"
        }
      ],
      "name": "register",
      "outputs": [],
      "stateMutability": "nonpayable",
      "type": "function"
    },
    {
      "inputs": [
        {
          "internalType": "address",
          "name": "newUser",
          "type": "address"
        },
        {
          "internalType": "address",
          "name": "binaryParent",
          "type": "address"
        },
        {
          "internalType": "bool",
          "name": "placeLeft",
          "type": "bool"
        }
      ],
      "name": "registerAndActivateFor",
      "outputs": [],
      "stateMutability": "nonpayable",
      "type": "function"
    },
    {
      "inputs": [],
      "name": "renounceOwnership",
      "outputs": [],
      "stateMutability": "nonpayable",
      "type": "function"
    },
    {
      "inputs": [],
      "name": "reservePool",
      "outputs": [
        {
          "internalType": "uint256",
          "name": "",
          "type": "uint256"
        }
      ],
      "stateMutability": "view",
      "type": "function"
    },
    {
      "inputs": [
        {
          "internalType": "uint256",
          "name": "amount",
          "type": "uint256"
        }
      ],
      "name": "sellMvt",
      "outputs": [],
      "stateMutability": "nonpayable",
      "type": "function"
    },
    {
      "inputs": [
        {
          "internalType": "address",
          "name": "_boardHandler",
          "type": "address"
        }
      ],
      "name": "setBoardHandler",
      "outputs": [],
      "stateMutability": "nonpayable",
      "type": "function"
    },
    {
      "inputs": [
        {
          "internalType": "address",
          "name": "_mvaultToken",
          "type": "address"
        }
      ],
      "name": "setMvaultToken",
      "outputs": [],
      "stateMutability": "nonpayable",
      "type": "function"
    },
    {
      "inputs": [
        {
          "internalType": "string",
          "name": "_displayName",
          "type": "string"
        },
        {
          "internalType": "string",
          "name": "_email",
          "type": "string"
        },
        {
          "internalType": "string",
          "name": "_phone",
          "type": "string"
        },
        {
          "internalType": "string",
          "name": "_country",
          "type": "string"
        }
      ],
      "name": "setProfile",
      "outputs": [],
      "stateMutability": "nonpayable",
      "type": "function"
    },
    {
      "inputs": [
        {
          "internalType": "uint256",
          "name": "usdtAmount",
          "type": "uint256"
        },
        {
          "internalType": "bool",
          "name": "isLocked",
          "type": "bool"
        }
      ],
      "name": "stake",
      "outputs": [],
      "stateMutability": "nonpayable",
      "type": "function"
    },
    {
      "inputs": [
        {
          "internalType": "address",
          "name": "",
          "type": "address"
        }
      ],
      "name": "totalBoardRewardsEarned",
      "outputs": [
        {
          "internalType": "uint256",
          "name": "",
          "type": "uint256"
        }
      ],
      "stateMutability": "view",
      "type": "function"
    },
    {
      "inputs": [],
      "name": "totalUsers",
      "outputs": [
        {
          "internalType": "uint256",
          "name": "",
          "type": "uint256"
        }
      ],
      "stateMutability": "view",
      "type": "function"
    },
    {
      "inputs": [
        {
          "internalType": "address",
          "name": "newOwner",
          "type": "address"
        }
      ],
      "name": "transferOwnership",
      "outputs": [],
      "stateMutability": "nonpayable",
      "type": "function"
    },
    {
      "inputs": [
        {
          "internalType": "uint256",
          "name": "stakeIndex",
          "type": "uint256"
        }
      ],
      "name": "unstake",
      "outputs": [],
      "stateMutability": "nonpayable",
      "type": "function"
    },
    {
      "inputs": [],
      "name": "usdtToken",
      "outputs": [
        {
          "internalType": "contract IERC20",
          "name": "",
          "type": "address"
        }
      ],
      "stateMutability": "view",
      "type": "function"
    },
    {
      "inputs": [
        {
          "internalType": "address",
          "name": "",
          "type": "address"
        }
      ],
      "name": "users",
      "outputs": [
        {
          "internalType": "bool",
          "name": "isRegistered",
          "type": "bool"
        },
        {
          "internalType": "bool",
          "name": "isActive",
          "type": "bool"
        },
        {
          "internalType": "address",
          "name": "sponsor",
          "type": "address"
        },
        {
          "internalType": "uint256",
          "name": "directCount",
          "type": "uint256"
        },
        {
          "internalType": "address",
          "name": "binaryParent",
          "type": "address"
        },
        {
          "internalType": "bool",
          "name": "placedLeft",
          "type": "bool"
        },
        {
          "internalType": "address",
          "name": "leftChild",
          "type": "address"
        },
        {
          "internalType": "address",
          "name": "rightChild",
          "type": "address"
        },
        {
          "internalType": "uint256",
          "name": "leftSubUsers",
          "type": "uint256"
        },
        {
          "internalType": "uint256",
          "name": "rightSubUsers",
          "type": "uint256"
        },
        {
          "internalType": "uint256",
          "name": "matchedPairs",
          "type": "uint256"
        },
        {
          "internalType": "uint256",
          "name": "mvtBalance",
          "type": "uint256"
        },
        {
          "internalType": "uint256",
          "name": "totalReceived",
          "type": "uint256"
        },
        {
          "internalType": "uint256",
          "name": "totalSold",
          "type": "uint256"
        },
        {
          "internalType": "uint256",
          "name": "incomeLimit",
          "type": "uint256"
        },
        {
          "internalType": "uint256",
          "name": "usdtBalance",
          "type": "uint256"
        },
        {
          "internalType": "uint256",
          "name": "rebirthPool",
          "type": "uint256"
        },
        {
          "internalType": "uint256",
          "name": "totalUsdtEarned",
          "type": "uint256"
        },
        {
          "internalType": "uint256",
          "name": "btcPoolBalance",
          "type": "uint256"
        },
        {
          "internalType": "uint256",
          "name": "totalBtcEarned",
          "type": "uint256"
        },
        {
          "internalType": "uint256",
          "name": "powerLegPoints",
          "type": "uint256"
        },
        {
          "internalType": "address",
          "name": "mainAccount",
          "type": "address"
        },
        {
          "internalType": "uint256",
          "name": "rebirthCount",
          "type": "uint256"
        },
        {
          "internalType": "uint256",
          "name": "joinedAt",
          "type": "uint256"
        },
        {
          "internalType": "string",
          "name": "displayName",
          "type": "string"
        },
        {
          "internalType": "string",
          "name": "email",
          "type": "string"
        },
        {
          "internalType": "string",
          "name": "phone",
          "type": "string"
        },
        {
          "internalType": "string",
          "name": "country",
          "type": "string"
        },
        {
          "internalType": "bool",
          "name": "profileSet",
          "type": "bool"
        }
      ],
      "stateMutability": "view",
      "type": "function"
    },
    {
      "inputs": [
        {
          "internalType": "address",
          "name": "to",
          "type": "address"
        },
        {
          "internalType": "uint256",
          "name": "amount",
          "type": "uint256"
        }
      ],
      "name": "withdrawAdminPool",
      "outputs": [],
      "stateMutability": "nonpayable",
      "type": "function"
    },
    {
      "inputs": [
        {
          "internalType": "uint256",
          "name": "amount",
          "type": "uint256"
        }
      ],
      "name": "withdrawBtcPool",
      "outputs": [],
      "stateMutability": "nonpayable",
      "type": "function"
    },
    {
      "inputs": [
        {
          "internalType": "address",
          "name": "to",
          "type": "address"
        },
        {
          "internalType": "uint256",
          "name": "amount",
          "type": "uint256"
        }
      ],
      "name": "withdrawReservePool",
      "outputs": [],
      "stateMutability": "nonpayable",
      "type": "function"
    },
    {
      "inputs": [
        {
          "internalType": "uint256",
          "name": "amount",
          "type": "uint256"
        }
      ],
      "name": "withdrawUsdt",
      "outputs": [],
      "stateMutability": "nonpayable",
      "type": "function"
    }
  ],
  "bytecode": "0x60a0346200017c57601f620054c238819003918201601f19168301916001600160401b03831184841017620001815780849260409485528339810103126200017c576200005a6020620000528362000197565b920162000197565b90331562000163576000549160018060a01b03199233848216176000556040519060018060a01b03938491823391167f8be0079c531659141344cd1fd0a4f28419497f9722a3daafe3b4186f6b6457e0600080a360017f9b779b17422d0df92223018b32b4d1fa46e071723d6817e2486d003becc55f005516908115801562000158575b620001495750608052169060015416176001556040516153159081620001ad823960805181818161078501528181610e2e0152818161112c015281816112810152818161150001528181611b5c015281816127d40152818161324f01528181613c39015261433d0152f35b63d92e233d60e01b8152600490fd5b5083831615620000de565b604051631e4fbdf760e01b815260006004820152602490fd5b600080fd5b634e487b7160e01b600052604160045260246000fd5b51906001600160a01b03821682036200017c5756fe61032080604052600436101561001457600080fd5b600090813560e01c9081630266f04414613d3557508063039ccc2614613d1157806303c3ecb714613ccb5780630f15f4c014613bcf5780630f53a47014613b0f5780631747e0b0146139305780631ce5e894146138be5780631f6259d5146138955780632335821b1461385c5780632808bc8d146137985780632d641f081461375b5780632e17de781461315457806338abfc41146131365780633ac272c2146131175780633ccb13d3146130fb57806344e374d51461109e57806347cd5191146130dc578063485d3834146109975780634b3f0d451461301357806352375bb114612fe457806355509c8f14612a64578063634f627e1461274e5780636386c1c71461258057806368ddb2b5146124a8578063715018a614612460578063775378441461109e5780637f1b4064146124425780638431fdd71461241e5780638a8f0429146121d95780638da5cb5b146121b257806392446e301461219657806394915dd014611eb75780639499a35114611e7e578063a2bdedf414611e3a578063a87430ba14611b8b578063a98ad46c14611b46578063aa33f5d5146118f7578063aa393757146118d3578063abe50f19146111f1578063b58e0278146110c1578063b86a1fb2146110a3578063be648bdb1461109e578063bff1f9e114611080578063c9d484cf14611057578063ce8292f514610fc3578063cf57ee6914610f8a578063cfd4766314610efe578063d3635a0214610dc3578063d4a9028614610cf1578063e0e01011146109b6578063e239c40014610997578063e3ba9bda1461092d578063e4093a66146106c7578063e51cb53014610679578063eb63e1c214610652578063ec50324a14610553578063f00b00931461051a578063f0b7b9dc146103f8578063f24c536a1461037f578063f2fde38b146103095763fb72ca35146102c157600080fd5b34610306576020366003190112610306576040906001600160a01b036102e5613d51565b168152600b602052818082205491600c602052205482519182526020820152f35b80fd5b503461030657602036600319011261030657610323613d51565b61032b613fd0565b6001600160a01b03908116908115610366576000548260018060a01b031982161760005516600080516020615260833981519152600080a380f35b604051631e4fbdf760e01b815260048101849052602490fd5b5034610306576020366003190112610306576040906001600160a01b036103a4613d51565b1681526003602052818120906007600583015460068401548082106000146103f05750925b0154808311156103ea576103de915082614035565b82519182526020820152f35b506103de565b9050926103c9565b503461030657606036600319011261030657610412613d51565b6024359061041e61408f565b6002546001600160a01b039190821633036104e1577f2393acb59b41dd645f68fe97bab0deba2a21b99efc69761e9b2762f11bbbe79d9160409116926104658415156140bf565b6104708115156140bf565b8385526003602052600c828620016104898282546140f0565b90558385526003602052600e828620016104a48282546140f0565b9055838552600c6020528185206104bc8282546140f0565b905581519081526044356020820152a260016000805160206152c08339815191525580f35b60405162461bcd60e51b81526020600482015260116024820152702737ba103137b0b932103430b7323632b960791b6044820152606490fd5b5034610306576020366003190112610306576020906040906001600160a01b03610542613d51565b168152600b83522054604051908152f35b50346103065760403660031901126103065761056d613d51565b60243590610579613fd0565b6001600160a01b03169081156106405760075481811061060457816105c17f0529afc4538720fe0b3eadc40486369ab962002d72fead1387b300c66073e7bf93602093614035565b60075583855260038252600860408620016105dd8282546140f0565b905583855260038252600960408620016105f88282546140f0565b9055604051908152a280f35b60405162461bcd60e51b8152602060048201526014602482015273115e18d959591cc81c995cd95c9d99481c1bdbdb60621b6044820152606490fd5b60405163d92e233d60e01b8152600490fd5b50346103065760203660031901126103065760206106716004356150d0565b604051908152f35b503461030657602036600319011261030657604090600d9082906001600160a01b036106a3613d51565b168152600360205220015481519068070c1cc73b00c8000081101582526020820152f35b50346103065780600319360112610306576106e061408f565b6002546001600160a01b0390811690811561091b576024903384526020926003845283604086209161071860ff845460081c16613ffc565b6040516347cd519160e01b81526001600482015294859182905afa9283156108c95785936108e6575b50600f0180548381106108d4578361075891614035565b905561077f83838360025416604051938492839263a9059cbb60e01b845260048401614065565b038188867f0000000000000000000000000000000000000000000000000000000000000000165af19081156108c9578591610890575b501561087e578390338252600b8452604082206107d28154614080565b905560025416803b1561087a5781809160446040518094819363686a38bd60e01b8352336004840152600160248401525af1801561086f57610857575b505060405191600183528201527f4e755dd64e53a9f7a5882e2e32eb64718c2273de11e017bd47129b9fe2716d7c60403392a260016000805160206152c08339815191525580f35b61086090613ef4565b61086b57823861080f565b8280fd5b6040513d84823e3d90fd5b5080fd5b6040516312171d8360e31b8152600490fd5b90508381813d83116108c2575b6108a78183613f07565b810103126108be576108b890614058565b386107b5565b8480fd5b503d61089d565b6040513d87823e3d90fd5b604051630856d68760e11b8152600490fd5b9092508381813d8311610914575b6108fe8183613f07565b8101031261090f575191600f610741565b600080fd5b503d6108f4565b60405163632100f760e11b8152600490fd5b503461030657602036600319011261030657610947613d51565b61094f613fd0565b6001600160a01b0316801561064057600280546001600160a01b031916821790557f49424f87d81e4374ee3e8d1cf7b880966981a3cf6a7ac1d7a66c13d91756fccc8280a280f35b5034610306578060031936011261030657602060405163018b82008152f35b5034610306576060366003190112610306576109d0613d51565b906109d9613d67565b6109e1613e5f565b926109ea61408f565b6001600160a01b03818116918215610cba57338314610c7a5733855260039160209483865260ff60408820541615610c685733875283865260ff604088205460081c1615610c2f5784875283865260ff604088205416610c1d5733875283865268070c1cc73b00c80000600c60408920015410610c0b578181168015159081610bf7575b5015610bef57905b8780610bd6575b610baa5787159384159480610bbc575b610baa57338852808752600c604089200198895468070c1cc73b00c7ffff198101908111610b9657610b31969798999a55610aca818533886140fd565b15610b7257828216895280885260408920810180546001600160a01b031916881790555b338952875260016040892001610b048154614080565b9055610b0f836141c4565b60405191858352169085600080516020615240833981519152883393a46142ba565b6040519081527ff3d8729e7995a6170800155589c309c92998449c63bab10c98f61f9aa007db7d33933392a460016000805160206152c08339815191525580f35b82821689528088526040892060040180546001600160a01b03191688179055610aee565b634e487b7160e01b8a52601160045260248afd5b60405163d5dd5c3d60e01b8152600490fd5b50818316885280875281600460408a200154161515610a8d565b5080821687528386528084604089200154161515610a7d565b503390610a76565b885250838652604087205460ff1638610a6e565b60405163b55c1bad60e01b8152600490fd5b604051630ea075bf60e21b8152600490fd5b60405162461bcd60e51b815260048101879052601160248201527043616c6c6572206e6f742061637469766560781b6044820152606490fd5b60405163aba4733960e01b8152600490fd5b60405162461bcd60e51b815260206004820152601860248201527721b0b73737ba103932b3b4b9ba32b9103cb7bab939b2b63360411b6044820152606490fd5b60405162461bcd60e51b815260206004820152600f60248201526e496e76616c6964206164647265737360881b6044820152606490fd5b503461030657610d0036613df1565b90606060018060a01b039260448460025416936040519485938492636a54814360e11b8452600484015260248301525afa908115610db857839284918593610d5d575b506060945060405193168352602083015215156040820152f35b93509150506060823d8211610db0575b81610d7a60609383613f07565b8101031261086b5781518181168103610dac5760609350610da2604060208501519401614058565b9092909138610d43565b8380fd5b3d9150610d6d565b6040513d85823e3d90fd5b50346103065760208060031936011261087a5760043590610de261408f565b8115610eec5733835260038152600c60408420018054838110610c0b5783610e0991614035565b905560405163a9059cbb60e01b8152818180610e29863360048401614065565b0381877f00000000000000000000000000000000000000000000000000000000000000006001600160a01b03165af1908115610ee1578491610eac575b501561087e577fbdd3f02d2a57fb53c1156f98470b61cb60712d485c27c36a49b1263dabcde201906040519283523392a260016000805160206152c08339815191525580f35b90508181813d8311610eda575b610ec38183613f07565b81010312610dac57610ed490614058565b38610e66565b503d610eb9565b6040513d86823e3d90fd5b604051631f2a200560e01b8152600490fd5b503461030657604036600319011261030657610f4f60a0916040610f20613d51565b9160243592600180871b0316808252600d602052610f42838320548510614fd2565b8152600d60205220614fb6565b50805490600181015490600281015460ff60046003840154930154169260405194855260208501526040840152606083015215156080820152f35b5034610306576020366003190112610306576020906040906001600160a01b03610fb2613d51565b168152600d83522054604051908152f35b50346103065780600319360112610306576001546040516370a0823160e01b81523060048201529190602090839060249082906001600160a01b03165afa90811561104b5790611019575b602090604051908152f35b506020813d8211611043575b8161103260209383613f07565b8101031261090f576020905161100e565b3d9150611025565b604051903d90823e3d90fd5b50346103065780600319360112610306576002546040516001600160a01b039091168152602090f35b50346103065780600319360112610306576020600554604051908152f35b613e07565b50346103065780600319360112610306576020600854604051908152f35b50346103065760208060031936011261087a57600435906110e061408f565b8115610eec5733835260038152600f604084200180548381106111df578361110791614035565b905560405163a9059cbb60e01b8152818180611127863360048401614065565b0381877f00000000000000000000000000000000000000000000000000000000000000006001600160a01b03165af1908115610ee15784916111aa575b501561087e577f12701e4764b73009ab9826933c421483e4280410091fcc760515e0fa99fa766b906040519283523392a260016000805160206152c08339815191525580f35b90508181813d83116111d8575b6111c18183613f07565b81010312610dac576111d290614058565b38611164565b503d6111b7565b604051636dae861760e11b8152600490fd5b50346103065760403660031901126103065761120b613e50565b61121361408f565b6802b5e3af16b18800006004351061189a57338252600360205261123d60ff604084205416614f25565b338252600360205260ff604083205460081c1615611865576040516323b872dd60e01b815233600480830191909152306024830152356044820152602081606481867f00000000000000000000000000000000000000000000000000000000000000006001600160a01b03165af18015610db857839061182a575b6112c29150614f62565b604051916112cf83613ed9565b600a8352600260208401526001604084015260016060840152600160808401523381526003602052604081205460018060a01b039060101c16819382915b600560ff8416101561148e57606461133660ff61132c81871686614fa5565b5116600435614263565b048015611450576001600160a01b03821615801561142d575b1561138f57611360906008546140f0565b6008555b6001600160a01b0390811684526003602052604084205460101c1691611389906147b6565b9161130d565b95866113be9160018060a01b03841687526003602052600c60408820016113b78382546140f0565b90556140f0565b9560ff600181861601116114195760405133916001600160a01b038416917fc8c0cc32a736135fa3c2a3c467849cd282797396bc67d2d5326f7e161e601c1d9181906114119060ff8a16600101836147c7565b0390a3611364565b634e487b7160e01b85526011600452602485fd5b506001600160a01b03821685526003602052604085205460081c60ff161561134f565b50916001600160a01b0383168061146c575b50611389906147b6565b84526003602052604084205460101c6001600160a01b03169250611389611462565b50505091600f600435026004358104600f1460043515171561181657906114bc60646114cb93049182614035565b80611801575b50600435614035565b60015460405163095ea7b360e01b815290602090829081906114fb9086906001600160a01b031660048401614065565b0381877f00000000000000000000000000000000000000000000000000000000000000006001600160a01b03165af18015610ee1576117c8575b506001546040516370a0823160e01b8082523060048301529290918591906001600160a01b0316602084602481845afa938415610db8578394611791575b50803b1561086b57604051634e538d9360e11b815291839183918290849082906115a1903060048401614065565b03925af1801561086f5761177d575b5050600154604051928352306004840152602090839060249082906001600160a01b03165afa8015610ee1578490611749575b6115ed9250614035565b90811561171457338352600d6020526040832080549290821561170d5742905b6040519161161a83613ed9565b8383526004356020840152426040840152606083015260016080830152600160401b8510156116f9578461165391600182018155614fb6565b6116e55760046080918351815560208401516001820155604084015160028201556060840151600382015501910151151560ff8019835416911617905560405192835260043560208401526040830152151560608201527f830141583677d950fe61a27b93001edff66b597c666b2c90f5fb6e79a4befd0e60803392a260016000805160206152c08339815191525580f35b634e487b7160e01b86526004869052602486fd5b634e487b7160e01b86526041600452602486fd5b849061160d565b60405162461bcd60e51b815260206004820152600d60248201526c139bc8135595081b5a5b9d1959609a1b6044820152606490fd5b506020823d602011611775575b8161176360209383613f07565b8101031261090f576115ed91516115e3565b3d9150611756565b61178690613ef4565b610dac5783386115b0565b925092506020823d6020116117c0575b816117ae60209383613f07565b8101031261090f578591519238611573565b3d91506117a1565b6020813d6020116117f9575b816117e160209383613f07565b81010312610dac576117f290614058565b5038611535565b3d91506117d4565b61180d906008546140f0565b600855386114c2565b634e487b7160e01b84526011600452602484fd5b506020813d60201161185d575b8161184460209383613f07565b8101031261086b576118586112c291614058565b6112b8565b3d9150611837565b60405162461bcd60e51b815260206004820152600d60248201526c139bdd081858dd1a5d985d1959609a1b6044820152606490fd5b60405162461bcd60e51b815260206004820152601160248201527042656c6f7720243530206d696e696d756d60781b6044820152606490fd5b503461030657806003193601126103065760206040516815245655b1025800008152f35b503461030657606036600319011261030657611911613d51565b611919613d67565b611921613e5f565b338452600360209281845260ff604087205416610c1d57600554611a125733600090815282855260409020805461ff01600160b01b03191660011781556002810180546001600160a81b03191690556012810180546001600160a01b03191690554260149091015560045491600160401b8310156119fc576119b88360016000805160206152408339815191529501600455613e6e565b81929154911b9033821b9160018060a01b03901b19161790556119dc600554614080565b6005555b60405192151583526001600160a01b039081169416923392a480f35b634e487b7160e01b600052604160045260246000fd5b6001600160a01b03858116808852838652604088205491939160ff1615611b34578383168015159081611b20575b5015611b195782935b8580611b00575b610baa57851580611ae6575b610baa5784611a7c87600080516020615240833981519152978b336140fd565b8615611ac45716885281865260408820820180546001600160a01b031916331790555b8752845260016040872001611ab48154614080565b9055611abf336141c4565b6119e0565b1688528186526040882060040180546001600160a01b03191633179055611a9f565b50808516895282875280600460408b200154161515611a5c565b508085168952828752808360408b200154161515611a50565b8693611a49565b895250818652604088205460ff1638611a40565b604051632f212e0d60e11b8152600490fd5b50346103065780600319360112610306576040517f00000000000000000000000000000000000000000000000000000000000000006001600160a01b03168152602090f35b5034610306576020366003190112610306576040906001600160a01b03611bb0613d51565b1681526003602052208060c052808080808080808080808080611c736015600f600e600d600c600b600a600960086007600660058d549d600181015461024052600281015460805260018060a01b0360038201541661020052600460018060a01b03910154169e01549e01549e01549e01549e01549e01549e01549e01549e01549e01549e01549e60108101546101005260118101546101405260018060a01b036012820154166101605260138101546103005260148101546101a05201613f2a565b60a052611c84601660c05101613f2a565b61012052611c96601760c05101613f2a565b61022052611ca8601860c05101613f2a565b6102805260ff601960c0510154166101e0526040518060e05260ff82161515905260ff8160081c161515602060e051015260018060a01b039060101c16604060e051015261024051606060e051015260018060a01b0360805116608060e051015260ff60805160a01c16151560a060e05101526102005160c060e051015260e08051015261010060e051015261012060e051015261014060e051015261016060e051015261018060e05101526101a060e05101526101c060e05101526101e060e051015261020060e051015261022060e051015261024060e05101526101005161026060e05101526101405161028060e0510152610160516102a060e0510152610300516102c060e05101526101a0516102e060e0510152611e23611e0e611df9611de46103a08061030060e051015260e0510160a051613d7d565b60e05161032081830391015261012051613d7d565b60e05161034081830391015261022051613d7d565b60e05161036081830391015261028051613d7d565b6101e051151561038060e051015260e05180910390f35b50346103065760203660031901126103065760043590600454821015610306576020611e6583613e6e565b905460405160039290921b1c6001600160a01b03168152f35b5034610306576020366003190112610306576060611ea2611e9d613d51565b615154565b90604051921515835260208301526040820152f35b503461030657604036600319011261030657611ed1613d51565b611ed9613e50565b90611ee261408f565b6001600160a01b0381811692908315610640573385526003926020938085526040872091825491611f1860ff8460081c16613ffc565b600d840180549068070c1cc73b00c80000808310612184578a8c52838a5260ff60408d20541661213f5768070c1cc73b00c7ffff19830192831161212b5780831061212057611f68908093614035565b9055600c8501611f798282546140f0565b9055611f8a600e86019182546140f0565b90556815245655b102580000600b850155611fab858460101c169633614969565b60008a8152838a5260409020805461ff01600160b01b03191662010000600160b01b039096169590951760011785556002850180546001600160a81b03191692881692831782151560a01b60ff60a01b161790556012850180546001600160a01b0319908116331790915542601490960195909555600454909790949091600160401b8610156119fc577f30016ed357540281a6cff6143637e72b48e105d85d15df66b0aaffbd23790240986013988c61206e8960016120bc9b01600455613e6e565b9092835491891b92831b921b191617905561208a600554614080565b60055515612107578b52828952898360408d2001918254161790555b806120e9575b50506120b7816141c4565b6142ba565b01916120c88354614080565b8093556040519283523392a360016000805160206152c08339815191525580f35b89528652600160408920016120fe8154614080565b905538806120ac565b8b5282895289600460408d2001918254161790556120a6565b50611f688280614035565b634e487b7160e01b8c52601160045260248cfd5b60405162461bcd60e51b8152600481018b9052601e60248201527f5375622d6163636f756e7420616c7265616479207265676973746572656400006044820152606490fd5b6040516307db32bd60e31b8152600490fd5b50346103065780600319360112610306576020604051600a8152f35b5034610306578060031936011261030657546040516001600160a01b039091168152602090f35b5034610306576121e836613df1565b6121f0613fd0565b6121f861408f565b60ff600a54161561240c5761220d90826140f0565b600454808211612404575b508290825b8181106123c45750600990815493831515806123bb575b156123a357805b8281106122e05750908592915b8181106122a257837f7f4a5b69bea14a6fc05326671a02e90d4a88855c83a18529c260057b1bf61a856040888884885560ff19600a5416600a5582519182526020820152a160016000805160206152c08339815191525580f35b6122d7919293506122b281613e6e565b9054600391821b1c6001600160a01b0316885260205260408720601101879055614080565b90859291612248565b8086886122ef61239194613e6e565b9054600391821b1c6001600160a01b031680835260208281526040842060110154919492908a8c8415612396577fb05abf391bcc5d117d31727729f0da5b0e3eb5f91a478372995efa128696c4069661235560409792612350888a95614263565b614276565b9489825280855260088383200161236d8782546140f0565b9055898252845220016123818382546140f0565b90558351928352820152a2614080565b61223b565b5050505050505050614080565b6123af856008546140f0565b60085590859291612248565b50841515612234565b916123f96123ff916123d585613e6e565b9054600391821b1c6001600160a01b031688526020526040872060110154906140f0565b92614080565b61221d565b905038612218565b60405163418826bf60e11b8152600490fd5b503461030657806003193601126103065760206040516802b5e3af16b18800008152f35b50346103065780600319360112610306576020600654604051908152f35b5034610306578060031936011261030657612479613fd0565b600080546001600160a01b0319811682556001600160a01b03166000805160206152608339815191528280a380f35b5034610306578060031936011261030657600154604051623144bd60e31b81526001600160a01b039091169160208083600481875afa92831561086f57829361254f575b5080600494604051958680926310f4cba760e21b82525afa91821561104b579161251f575b604080945051928352820152f35b80915083813d8311612548575b6125368183613f07565b8101031261090f576040925190612511565b503d61252c565b9392508084813d8311612579575b6125678183613f07565b8101031261090f5792519192806124ec565b503d61255d565b5034610306576020366003190112610306576040906001600160a01b036125a5613d51565b168152600360205220808080808080808080808080805460018201546102605260028201546101c052601460076011600f600d600c600b600a60096008600660058d600360018060a01b03910154169d600460018060a01b03910154169e01549e01549e01549e01549e01549e01549e01549e01549e01549e01549e01549e60018060a01b036012820154166102e05260138101546102c05201546102a052604051806101805260ff82161515905260ff8160081c161515602061018051015260018060a01b039060101c16604061018051015261026051606061018051015260018060a01b036101c05116608061018051015260ff6101c05160a01c16151560a061018051015260c061018051015260e0610180510152610100610180510152610120610180510152610140610180510152610160610180510152610180805101526101a06101805101526101c06101805101526101e06101805101526102006101805101526102206101805101526102406101805101526102e0516102606101805101526102c0516102806101805101526102a0516102a06101805101526102c061018051f35b50346103065760208060031936011261087a576004359061276d61408f565b8115610eec5733835260038152604083209060ff825460081c1615610c6857600882018054848110612a5257846127a391614035565b9055600a82016127b48482546140f0565b90556040516370a0823160e01b8082523060048301526001600160a01b037f00000000000000000000000000000000000000000000000000000000000000008116929187918584602481885afa938415610db8578394612a1f575b5060015416803b1561086b578280916024604051809681936372424d9960e11b83528d60048401525af1928315612a125786936129f5575b505060246040518095819382523060048301525afa80156129ea5786906129bb575b6128739250614035565b91600a8302838104600a14841517156129a7577f8f7262d5a031d4d671e1fdb0cddcd26d37185226f9e82f2f18877141ac1963eb9392916128bb606461297c93048095614035565b92600f82016128cb8682546140f0565b9055601082016128dc8682546140f0565b90557f2b1d2104e84dd4dabb0cca024171f783ab1e1c9dc1af9d60a2361596653a99c4604051918683523392a2600b810180549188831561299a5750600d908386111561299457835b809361294c82612935818b614035565b97600c86016129458382546140f0565b9055614035565b905561295d600e83019182546140f0565b90555b0161296c8382546140f0565b9055604051948594339886614296565b0390a260016000805160206152c08339815191525580f35b85612925565b91509150600d8492612960565b634e487b7160e01b86526011600452602486fd5b508282813d83116129e3575b6129d18183613f07565b8101031261090f576128739151612869565b503d6129c7565b6040513d88823e3d90fd5b612a0191929350613ef4565b612a0e5783908738612847565b8680fd5b50604051903d90823e3d90fd5b86809295508194503d8311612a4b575b612a398183613f07565b8101031261090f57879151923861280f565b503d612a2f565b60405163208975e760e21b8152600490fd5b5034610306576080366003190112610306576004356001600160401b03811161087a57612a95903690600401613e23565b91906024356001600160401b03811161086b57612ab6903690600401613e23565b6044356001600160401b0381116108be57612ad5903690600401613e23565b90916064356001600160401b038111612a0e57612af6903690600401613e23565b9490973388526003602052612b1160ff60408a205416614f25565b338852600360205260408820966001600160401b038211612fd0578190612b3b60158a0154613e9f565b601f8111612f80575b508990601f8311600114612f14578a92612f09575b50508160011b916000199060031b1c19161760158701555b6001600160401b038211612ef5578190612b8e6016880154613e9f565b601f8111612ea2575b508790601f8311600114612e36578892612e2b575b50508160011b916000199060031b1c19161760168501555b60178401916001600160401b0382116116f9578190612be38454613e9f565b601f8111612ddb575b508690601f8311600114612d75578792612d6a575b50508160011b916000199060031b1c19161790555b60188201906001600160401b038111612d5657612c338254613e9f565b601f8111612d11575b5083601f8211600114612caa578190859660199692612c9f575b50508160011b916000199060031b1c19161790555b01805460ff19166001179055337fbe4ec58a792f909e102ee3d745d0c3b34a4d437a54d903c4db098d31c556422f8280a280f35b013590503880612c56565b8285526020852090601f198316865b818110612cf95750968392916001946019989910612cdf575b505050811b019055612c6b565b0135600019600384901b60f8161c19169055388080612cd2565b9192602060018192868c013581550194019201612cb9565b82855260208520601f830160051c81019160208410612d4c575b601f0160051c01905b818110612d415750612c3c565b858155600101612d34565b9091508190612d2b565b634e487b7160e01b84526041600452602484fd5b013590503880612c01565b84885260208820925090601f198416885b818110612dc35750908460019594939210612da9575b505050811b019055612c16565b0135600019600384901b60f8161c19169055388080612d9c565b91936020600181928787013581550195019201612d86565b90915083875260208720601f840160051c81019160208510612e21575b90601f859493920160051c01905b818110612e135750612bec565b888155849350600101612e06565b9091508190612df8565b013590503880612bac565b60168801895260208920925090601f198416895b818110612e8a5750908460019594939210612e70575b505050811b016016850155612bc4565b0135600019600384901b60f8161c19169055388080612e60565b91936020600181928787013581550195019201612e4a565b90915060168701885260208820601f840160051c81019160208510612eeb575b90601f859493920160051c01905b818110612edd5750612b97565b898155849350600101612ed0565b9091508190612ec2565b634e487b7160e01b87526041600452602487fd5b013590503880612b59565b60158a018b5260208b20925090601f1984168b5b818110612f685750908460019594939210612f4e575b505050811b016015870155612b71565b0135600019600384901b60f8161c19169055388080612f3e565b91936020600181928787013581550195019201612f28565b909150601589018a5260208a20601f840160051c810160208510612fc9575b90849392915b601f830160051c82018110612fbb575050612b44565b8c8155859450600101612fa5565b5080612f9f565b634e487b7160e01b89526041600452602489fd5b503461030657806003193601126103065760606006546007546008549060405192835260208301526040820152f35b503461030657602036600319011261030657600435338252600d60205261303f60408320548210614fd2565b338252600d60205260036130568260408520614fb6565b5061306760ff60048301541661500e565b0180546130a6574290556040519081524260208201527f68733b6f87b2a7c87d5bcf8c0a0950f2985cc261d9ab6defddca8d7bd05eba4360403392a280f35b60405162461bcd60e51b815260206004820152600e60248201526d105b1c9958591e481b1bd8dad95960921b6044820152606490fd5b503461030657602036600319011261030657602061067160043561504d565b5034610306578060031936011261030657602060405160028152f35b5034610306576020366003190112610306576020610671600435615112565b50346103065780600319360112610306576020600454604051908152f35b50346103065760203660031901126103065761316e61408f565b338152600d602052613187604082205460043510614fd2565b338152600d60205261319e60043560408320614fb6565b50600481018054906131b260ff831661500e565b60038301549182159283156136ed575b5060ff1916905560018254920154908160011b9180830460021490151715611816578291811561352b5760058402848104600514851517156129a757338652600360205260408620546064909104906001600160a01b039060101c811680151580613517575b613483575b5050505b6040516370a0823160e01b8082523060048301526001600160a01b037f000000000000000000000000000000000000000000000000000000000000000081169591929188916020846024818b5afa938415610db857839461344f575b5060015416803b1561086b576024839260405194859384926372424d9960e11b845260048401525af1801561344457613431575b50604051918252306004830152602082602481885afa80156134265787906133f2575b6132ee9250614035565b908592806133e9575b6133c7575b5080613328575b600080516020615280833981519152925061297c604051928392339660043585614ba3565b6020604051809463a9059cbb60e01b825281888161334a873360048401614065565b03925af19283156108c957859361337a575b5061337560008051602061528083398151915293614f62565b613303565b92506020833d6020116133bf575b8161339560209383613f07565b810103126108be576133756133b860008051602061528083398151915294614058565b935061335c565b3d9150613388565b8092506133d391614035565b906133e0826008546140f0565b600855386132fc565b508082116132f7565b506020823d60201161341e575b8161340c60209383613f07565b8101031261090f576132ee91516132e4565b3d91506133ff565b6040513d89823e3d90fd5b61343d90979197613ef4565b95386132c1565b6040513d8a823e3d90fd5b9093506020813d60201161347b575b8161346b60209383613f07565b8101031261086b5751923861328d565b3d915061345e565b826020916134ad9360015416908a60405180968195829463a9059cbb60e01b845260048401614065565b03925af19081156134265787916134dd575b506134cc575b808061322d565b6134d69193614035565b91386134c5565b90506020813d60201161350f575b816134f860209383613f07565b81010312612a0e5761350990614058565b386134bf565b3d91506134eb565b5080885260ff604089205460081c16613228565b9260409492945161353b81613ed9565b60058152600260208201526001604082015260016060820152600160808201523384526003602052604084205460018060a01b039060101c169284935b600560ff861610156136e057606461359f60ff61359781891687614fa5565b511686614263565b0480156136a2576001600160a01b038216151580613680575b6135e9575b506001600160a01b0390811686526003602052604086205460101c16936135e3906147b6565b93613578565b60015460405163a9059cbb60e01b81529060209082906001600160a01b0316818b81613619888a60048401614065565b03925af1908115613444578891613642575b50156135bd5761363b9198614035565b96386135bd565b90506020813d602011613678575b8161365d60209383613f07565b810103126136745761366e90614058565b3861362b565b8780fd5b3d9150613650565b506001600160a01b03821687526003602052604087205460081c60ff166135b8565b50936001600160a01b038516806136be575b506135e3906147b6565b86526003602052604086205460101c6001600160a01b031694506135e36136b4565b5092505092939193613231565b63018b820081018091116129a757421061370757386131c2565b60405162461bcd60e51b815260206004820152602660248201527f5374696c6c206c6f636b65643a2031302d6d6f6e746820706572696f64206e6f6044820152653a1037bb32b960d11b6064820152608490fd5b50346103065761378361376d36613df1565b90613776613fd0565b61377e61408f565b614bbf565b60016000805160206152c08339815191525580f35b5034610306576040366003190112610306576137b2613d51565b602435906137be613fd0565b6001600160a01b03169081156106405760085481811061382257816138067fba443e8671971c36cdeb74f87321041daff421230cbc5e36cb835269ed1d8b7e93602093614035565b60085583855260038252600860408620016105dd8282546140f0565b60405162461bcd60e51b8152602060048201526012602482015271115e18d959591cc818591b5a5b881c1bdbdb60721b6044820152606490fd5b5034610306576020366003190112610306576020906040906001600160a01b03613884613d51565b168152600c83522054604051908152f35b50346103065780600319360112610306576001546040516001600160a01b039091168152602090f35b5034610306576020366003190112610306576138d8613d51565b6138e0613fd0565b6001600160a01b0316801561064057600180546001600160a01b031916821790556040519081527ffa7bd61554593f4e69cdffd255d3fe947352b02c7d3ec68059384934e4cfd47c90602090a180f35b50346103065760208060031936011261087a576001600160a01b03613953613d51565b16808352600d8083526040842054928492855b858110613acc57506139778461520d565b946139818561520d565b9161398b8661520d565b9461399e6139988861520d565b9761520d565b988091815b858110613a0f57506139d48a613a0b8d6139fd8d6139ef8e6139e18f8f6040519a8b9a60a08c5260a08c0190613dbd565b918a8303908b0152613dbd565b908782036040890152613dbd565b908582036060870152613dbd565b908382036080850152613dbd565b0390f35b8b8b8b8b8a8c8a60ff6004613a2d8a60408e8e878252885220614fb6565b50015416613a4b575b50505050505050613a4690614080565b6139a3565b94613abd9694613ab7948c97948a613a81819f8f8f9e613a469f8260409160039c869e613a7a96525220614fb6565b5096614955565b52613a8e86855492614955565b52613a9e85600185015492614955565b52613aae84600284015492614955565b52015492614955565b52614080565b9390508b8b8b8b8a8c8a613a36565b81875283835260ff6004613ae38360408b20614fb6565b50015416613afa575b613af590614080565b613966565b93613b07613af591614080565b949050613aec565b503461030657602036600319011261030657613b99906040906001600160a01b03613b38613d51565b16815260036020522060ff601982015416613bc3613b5860158401613f2a565b92613bb5613b6860168301613f2a565b91613ba7613b846018613b7d60178501613f2a565b9301613f2a565b9360405198899860a08a5260a08a0190613d7d565b9088820360208a0152613d7d565b908682036040880152613d7d565b908482036060860152613d7d565b90151560808301520390f35b5034610306578060031936011261030657613be861408f565b3381526003602052604081205460ff811615610c685760081c60ff16613cb9576040516323b872dd60e01b815233600482015230602482015268070c1cc73b00c800006044820152602081606481857f00000000000000000000000000000000000000000000000000000000000000006001600160a01b03165af190811561086f578291613c80575b501561087e57613783336142ba565b90506020813d8211613cb1575b81613c9a60209383613f07565b8101031261087a57613cab90614058565b38613c71565b3d9150613c8d565b604051637cdf305160e11b8152600490fd5b50346103065760203660031901126103065760409081906001600160a01b03613cf2613d51565b1681526003602052206010600f82015491015482519182526020820152f35b5034610306578060031936011261030657602060405168070c1cc73b00c800008152f35b90503461087a578160031936011261087a576020906007548152f35b600435906001600160a01b038216820361090f57565b602435906001600160a01b038216820361090f57565b919082519283825260005b848110613da9575050826000602080949584010152601f8019910116010190565b602081830181015184830182015201613d88565b90815180825260208080930193019160005b828110613ddd575050505090565b835185529381019392810192600101613dcf565b604090600319011261090f576004359060243590565b3461090f57600036600319011261090f576020604051601e8152f35b9181601f8401121561090f578235916001600160401b03831161090f576020838186019501011161090f57565b60243590811515820361090f57565b60443590811515820361090f57565b600454811015613e8957600460005260206000200190600090565b634e487b7160e01b600052603260045260246000fd5b90600182811c92168015613ecf575b6020831014613eb957565b634e487b7160e01b600052602260045260246000fd5b91607f1691613eae565b60a081019081106001600160401b038211176119fc57604052565b6001600160401b0381116119fc57604052565b601f909101601f19168101906001600160401b038211908210176119fc57604052565b9060405191826000825492613f3e84613e9f565b908184526001948581169081600014613fad5750600114613f6a575b5050613f6892500383613f07565b565b9093915060005260209081600020936000915b818310613f95575050613f6893508201013880613f5a565b85548884018501529485019487945091830191613f7d565b915050613f6894506020925060ff191682840152151560051b8201013880613f5a565b6000546001600160a01b03163303613fe457565b60405163118cdaa760e01b8152336004820152602490fd5b1561400357565b60405162461bcd60e51b815260206004820152600a6024820152694e6f742061637469766560b01b6044820152606490fd5b9190820391821161404257565b634e487b7160e01b600052601160045260246000fd5b5190811515820361090f57565b6001600160a01b039091168152602081019190915260400190565b60001981146140425760010190565b6000805160206152c083398151915260028154146140ad5760029055565b604051633ee5aeb560e01b8152600490fd5b156140c657565b60405162461bcd60e51b81526020600482015260026024820152615a4160f01b6044820152606490fd5b9190820180921161404257565b6001600160a01b039081166000818152600360205260409020805461ff01600160b01b03191660109490941b62010000600160b01b03169390931760011783556002830180546001600160a81b0319169483169490941794151560a01b60ff60a01b16949094179092556012810180546001600160a01b031916905542601490910155600454909190600160401b8110156119fc578060016141a29201600455613e6e565b909283549160031b92831b921b19161790556141bf600554614080565b600555565b60018060a01b039182600092168252600391602092808452600291604091838383200154958787169560ff96898860a09a8b1c16915b1690811561425657156142395780855283835260058686200161421d8154614080565b90555b8452828252858585200154898089838c1c1692166141fa565b80855283835260068686200161424f8154614080565b9055614220565b5050975050505050505050565b8181029291811591840414171561404257565b8115614280570490565b634e487b7160e01b600052601260045260246000fd5b9192608093969594919660a084019784526020840152604083015260608201520152565b6001805460408051623144bd60e31b81526004956001600160a01b03938416959094929160209060009082818b818c5afa9081156147ac57829161477f575b50801561476c576b030e68b6d6e0acc82863363160251b049784519063095ea7b360e01b82528a82015268070c1cc73b00c80000908160248201528381604481868c7f0000000000000000000000000000000000000000000000000000000000000000165af180156146d857614738575b50868654168551906370a0823160e01b92838352308d8401528583602481855afa92831561472e5785936146ff575b50813b156108be57849060448e838b519586948593634e538d9360e11b8552309085015260248401525af180156146f5576146e2575b50838b60248a8a54169489519586938492835230908301525afa80156146d85783906146a9575b6144009250614035565b94601e8902898104601e148a151715614696576064900499509697959680888b8061442b818c614035565b9061443591614035565b9061443f91614035565b8c6006549061444d916140f0565b60065561445a908d6140f0565b9560089687549061446a916140f0565b875516988984526003938486528781209061ff00198254166101001791828155600b016815245655b102580000905582601092831c1695819785965b614515575b505050505050505096806144f39381938a7f8af2c013a5a55c6d3ad5423522fe76c6f2eb831b5e23318276b3c678cb457fc9999a9b84116144f8575b50505195869586614296565b0390a2565b61450561450c9185614035565b82546140f0565b905538806144e7565b909192939495969760ff90600a828a1611158061468b575b15614684578a918f918f6145438f918d906147dc565b91821561466357908a614557848f946140f0565b9e16958694858b528989528d838c20918254841c16918261464d575b505015614603577fb16479bdac5b7099d9236d6fc6be3b30ff54188f4fd961686e1e1dc7ecb880379392916145dc91868c528a8a52818c20016145b78582546140f0565b9055858b528989526009818c20016145d08582546140f0565b905551928392836147c7565b0390a35b8352818152856145f7868c862054871c16986147b6565b969594939291906144a6565b7f117ca0cd821ecb7eadfea2d6927a67853908bdc351a386235215f5ab6071bfed9495508392506146386146459482546140f0565b9055519182918d836147c7565b0390a26145e0565b0154905061465a84614928565b11158d38614573565b9c9350505050869150168352818152856145f7868c862054871c16986147b6565b98506144ab565b50868a16151561452d565b634e487b7160e01b835260118b52602483fd5b508382813d83116146d1575b6146bf8183613f07565b8101031261090f5761440091516143f6565b503d6146b5565b86513d85823e3d90fd5b6146ee90939193613ef4565b91386143cf565b87513d86823e3d90fd5b9092508581813d8311614727575b6147178183613f07565b810103126108be57519138614399565b503d61470d565b88513d87823e3d90fd5b8381813d8311614765575b61474d8183613f07565b8101031261086b5761475e90614058565b503861436a565b503d614743565b634e487b7160e01b825260128a52602482fd5b90508281813d83116147a5575b6147968183613f07565b8101031261087a5751386142f9565b503d61478c565b85513d84823e3d90fd5b60ff1660ff81146140425760010190565b6020909392919360ff60408201951681520152565b9060ff166001811461490d57600281146148f257600381146148d7576004908181146148c057600581146148a357600681146148a357600781146148865760088114614886576009811461486957600a14614838575050600090565b8160011b918083046002149015171561485457506103e8900490565b601190634e487b7160e01b6000525260246000fd5b508160011b918083046002149015171561485457506103e8900490565b5060038202918083046003149015171561485457506103e8900490565b5060058202918083046005149015171561485457506103e8900490565b508180046001148215171561485457506064900490565b508060011b9080820460021490151715614042576064900490565b50600581029080820460051490151715614042576064900490565b50601481029080820460141490151715614042576064900490565b60ff60049116111561493957600590565b600290565b6001600160401b0381116119fc5760051b60200190565b8051821015613e895760209160051b010190565b8180614b80575b614b79578115918280614b54575b614b4c576005549260018085018095116140425761499b8561493e565b906149b66040966149ae88519485613f07565b80845261493e565b9260209283810194601f19013686376000808715614b2d576001600160a01b03898116835260038088528b8420015416965b6001600160a01b0397881680614b19575b50505b818110614a775750505080614a5c575b614a52575082614a35575b5050614a2e57815163c5bb5bcd60e01b8152600490fd5b9160009150565b816003929350841660005252600483600020015416153880614a17565b9594505050509190565b50828516600052600382528260038760002001541615614a0c565b86614a8b614a8483614080565b9285614955565b51168060005260038088528b600020918982840154168015614b06578a6004809501541615614af257908a939291614acc614ac588614080565b9789614955565b5260005288528b600020015416614aec614ae584614080565b9385614955565b526149fc565b509b50505050505050505050505090600090565b509a505050505050509594505050509190565b9092508592845115613e89575238806149f9565b6001600160a01b038981168352600387528a83206004015416966149e8565b509160009150565b506001600160a01b03828116600090815260036020526040902060040154161561497e565b9160019150565b5060018060a01b0380821660005260036020526003604060002001541615614970565b9094939260609260808301968352602083015260408201520152565b919060ff90600a9382855416614f14576006948554928315614edb5760009687815560468502858104604603614ec7576064900495614bfe8787614035565b98614c0e6009948b8655876140f0565b926004918254808611614ebf575b508097805b868110614e2b57508815614ddc575b858110614c705750505050505050906000805160206152a08339815191529495614c6b92600160ff1982541617905560405194859485614ba3565b0390a1565b84888c614c7c84613e6e565b9390549360039460018060a01b0391861b1c16938487528d8c602092808452604096878b2092835496600897881c1615614dc95760058401548d85015480821015614dc15750945b60079485015480871115614db957614cdc9087614035565b985b8915614da457906123508a614cf293614263565b968a8d52838752898d2001614d088882546140f0565b9055898c52828652888c2001614d1f8782546140f0565b90558087029087820403614d915791879593917fbee8f46206dc051d674f6ca1e618efe407d83b27ffbe3540b916edfd34e428e1979593614d7260118c9b8f614d8c9f9e815285895220019182546140f0565b9055888c528352858b2001558351928352820152a2614080565b614c30565b634e487b7160e01b8b5260118d5260248bfd5b505050505050505050505050614d8c90614080565b508c98614cde565b905094614cc4565b50505050505050505050614d8c90614080565b50965050505050829150614e0d614e056000805160206152a083398151915297986080976140f0565b6008546140f0565b600855556040519182528060208301528060408301526060820152a1565b614e3481613e6e565b9054600391821b1c6001600160a01b0316845260205260408320805460081c871615614eb5576007600582015486830154808210600014614ead5750915b015490818111614e8d575b5050614e8890614080565b614c21565b9a614e9f614ea592614e88949d614035565b906140f0565b999038614e7d565b905091614e72565b50614e8890614080565b945038614c1c565b634e487b7160e01b89526011600452602489fd5b60405162461bcd60e51b8152602060048201526011602482015270115b5c1d1e48189a5b985c9e481c1bdbdb607a1b6044820152606490fd5b60405162c9487960e41b8152600490fd5b15614f2c57565b60405162461bcd60e51b815260206004820152600e60248201526d139bdd081c9959da5cdd195c995960921b6044820152606490fd5b15614f6957565b60405162461bcd60e51b81526020600482015260146024820152731554d115081d1c985b9cd9995c8819985a5b195960621b6044820152606490fd5b906005811015613e895760051b0190565b8054821015613e89576000526005602060002091020190600090565b15614fd957565b60405162461bcd60e51b815260206004820152600d60248201526c092dcecc2d8d2c840d2dcc8caf609b1b6044820152606490fd5b1561501557565b60405162461bcd60e51b815260206004820152601060248201526f105b1c9958591e481d5b9cdd185ad95960821b6044820152606490fd5b6002546001600160a01b03169081156150c9576020906024604051809481936347cd519160e01b835260048301525afa9081156150bd5760009161508f575090565b906020823d82116150b5575b816150a860209383613f07565b8101031261030657505190565b3d915061509b565b6040513d6000823e3d90fd5b5050600090565b6002546001600160a01b03169081156150c9576020906024604051809481936375b1f0e160e11b835260048301525afa9081156150bd5760009161508f575090565b6002546001600160a01b03169081156150c957602090602460405180948193631d61396160e11b835260048301525afa9081156150bd5760009161508f575090565b6002546001600160a01b039081169182156151ff57166024600082815260206003815280600f60408420015495604051948580926347cd519160e01b8252600160048301525afa92831561086f5782936151cf575b5060ff9160036040928596835252205460081c1690816151c7575092565b905082101592565b9080935081813d83116151f8575b6151e78183613f07565b8101031261087a57519160ff6151a9565b503d6151dd565b505050600090600090600090565b906152178261493e565b6152246040519182613f07565b8281528092615235601f199161493e565b019060203691013756fe34ff37874d7443037a85c6f390fe14f2ae3e8767355de0e63891ad4367c275398be0079c531659141344cd1fd0a4f28419497f9722a3daafe3b4186f6b6457e0dcfd2b4017d03f7e541021db793b2f9b31e4acdee005f789e52853c390e3e962a0ea5705200c9ffd36dc735fef1592c3234bb7e311fc1b0a444f6370d0620eae9b779b17422d0df92223018b32b4d1fa46e071723d6817e2486d003becc55f00a264697066735822122036caf745e32a639b57bd5f1fdf6d0ca5b0ee65ea7281533eb18dc773adb22adf64736f6c63430008140033",
  "linkReferences": {},
  "deployedLinkReferences": {}
}