{
  "_format": "hh-sol-artifact-1",
  "contractName": "MvaultContract",
  "sourceName": "contracts/MvaultContract.sol",
  "abi": [
    {
      "inputs": [
        {
          "internalType": "address",
          "name": "_usdt",
          "type": "address"
        },
        {
          "internalType": "address",
          "name": "_mvaultToken",
          "type": "address"
        }
      ],
      "stateMutability": "nonpayable",
      "type": "constructor"
    },
    {
      "inputs": [],
      "name": "AlreadyActive",
      "type": "error"
    },
    {
      "inputs": [],
      "name": "AlreadyRegistered",
      "type": "error"
    },
    {
      "inputs": [],
      "name": "BinaryAlreadyDistributed",
      "type": "error"
    },
    {
      "inputs": [],
      "name": "BinaryNotDistributed",
      "type": "error"
    },
    {
      "inputs": [],
      "name": "InsufficientBtcPool",
      "type": "error"
    },
    {
      "inputs": [],
      "name": "InsufficientRebirthPool",
      "type": "error"
    },
    {
      "inputs": [],
      "name": "InsufficientUsdtBalance",
      "type": "error"
    },
    {
      "inputs": [],
      "name": "InsufficientVirtualBalance",
      "type": "error"
    },
    {
      "inputs": [],
      "name": "InvalidSponsor",
      "type": "error"
    },
    {
      "inputs": [],
      "name": "NoOpenBinarySlot",
      "type": "error"
    },
    {
      "inputs": [],
      "name": "NotRegistered",
      "type": "error"
    },
    {
      "inputs": [
        {
          "internalType": "address",
          "name": "owner",
          "type": "address"
        }
      ],
      "name": "OwnableInvalidOwner",
      "type": "error"
    },
    {
      "inputs": [
        {
          "internalType": "address",
          "name": "account",
          "type": "address"
        }
      ],
      "name": "OwnableUnauthorizedAccount",
      "type": "error"
    },
    {
      "inputs": [],
      "name": "PositionTaken",
      "type": "error"
    },
    {
      "inputs": [],
      "name": "ReentrancyGuardReentrantCall",
      "type": "error"
    },
    {
      "inputs": [],
      "name": "TransferFailed",
      "type": "error"
    },
    {
      "inputs": [],
      "name": "ZeroAddress",
      "type": "error"
    },
    {
      "inputs": [],
      "name": "ZeroAmount",
      "type": "error"
    },
    {
      "anonymous": false,
      "inputs": [
        {
          "indexed": true,
          "internalType": "address",
          "name": "user",
          "type": "address"
        },
        {
          "indexed": false,
          "internalType": "uint256",
          "name": "mvtMinted",
          "type": "uint256"
        },
        {
          "indexed": false,
          "internalType": "uint256",
          "name": "grossMvt",
          "type": "uint256"
        },
        {
          "indexed": false,
          "internalType": "uint256",
          "name": "levelAmt",
          "type": "uint256"
        },
        {
          "indexed": false,
          "internalType": "uint256",
          "name": "binaryAmt",
          "type": "uint256"
        },
        {
          "indexed": false,
          "internalType": "uint256",
          "name": "adminAmt",
          "type": "uint256"
        }
      ],
      "name": "Activated",
      "type": "event"
    },
    {
      "anonymous": false,
      "inputs": [
        {
          "indexed": true,
          "internalType": "address",
          "name": "to",
          "type": "address"
        },
        {
          "indexed": false,
          "internalType": "uint256",
          "name": "amount",
          "type": "uint256"
        }
      ],
      "name": "AdminWithdraw",
      "type": "event"
    },
    {
      "anonymous": false,
      "inputs": [
        {
          "indexed": false,
          "internalType": "uint256",
          "name": "totalPool",
          "type": "uint256"
        },
        {
          "indexed": false,
          "internalType": "uint256",
          "name": "binary70",
          "type": "uint256"
        },
        {
          "indexed": false,
          "internalType": "uint256",
          "name": "powerLeg30",
          "type": "uint256"
        },
        {
          "indexed": false,
          "internalType": "uint256",
          "name": "totalPairs",
          "type": "uint256"
        }
      ],
      "name": "BinaryIncomeDistributed",
      "type": "event"
    },
    {
      "anonymous": false,
      "inputs": [
        {
          "indexed": true,
          "internalType": "address",
          "name": "user",
          "type": "address"
        },
        {
          "indexed": false,
          "internalType": "uint256",
          "name": "amount",
          "type": "uint256"
        }
      ],
      "name": "BtcPoolCredited",
      "type": "event"
    },
    {
      "anonymous": false,
      "inputs": [
        {
          "indexed": true,
          "internalType": "address",
          "name": "user",
          "type": "address"
        },
        {
          "indexed": false,
          "internalType": "uint256",
          "name": "amount",
          "type": "uint256"
        }
      ],
      "name": "BtcPoolWithdrawn",
      "type": "event"
    },
    {
      "anonymous": false,
      "inputs": [
        {
          "indexed": true,
          "internalType": "address",
          "name": "to",
          "type": "address"
        },
        {
          "indexed": true,
          "internalType": "address",
          "name": "from",
          "type": "address"
        },
        {
          "indexed": false,
          "internalType": "uint8",
          "name": "level",
          "type": "uint8"
        },
        {
          "indexed": false,
          "internalType": "uint256",
          "name": "amount",
          "type": "uint256"
        }
      ],
      "name": "LevelIncomePaid",
      "type": "event"
    },
    {
      "anonymous": false,
      "inputs": [
        {
          "indexed": true,
          "internalType": "address",
          "name": "upline",
          "type": "address"
        },
        {
          "indexed": false,
          "internalType": "uint8",
          "name": "level",
          "type": "uint8"
        },
        {
          "indexed": false,
          "internalType": "uint256",
          "name": "amount",
          "type": "uint256"
        }
      ],
      "name": "LevelIncomeSkipped",
      "type": "event"
    },
    {
      "anonymous": false,
      "inputs": [
        {
          "indexed": false,
          "internalType": "address",
          "name": "newToken",
          "type": "address"
        }
      ],
      "name": "MvaultTokenUpdated",
      "type": "event"
    },
    {
      "anonymous": false,
      "inputs": [
        {
          "indexed": true,
          "internalType": "address",
          "name": "user",
          "type": "address"
        },
        {
          "indexed": false,
          "internalType": "uint256",
          "name": "mvtAmount",
          "type": "uint256"
        },
        {
          "indexed": false,
          "internalType": "uint256",
          "name": "usdtNet",
          "type": "uint256"
        },
        {
          "indexed": false,
          "internalType": "uint256",
          "name": "usdtToBtcPool",
          "type": "uint256"
        },
        {
          "indexed": false,
          "internalType": "uint256",
          "name": "usdtToIncome",
          "type": "uint256"
        },
        {
          "indexed": false,
          "internalType": "uint256",
          "name": "usdtToRebirth",
          "type": "uint256"
        }
      ],
      "name": "MvtSold",
      "type": "event"
    },
    {
      "anonymous": false,
      "inputs": [
        {
          "indexed": true,
          "internalType": "address",
          "name": "previousOwner",
          "type": "address"
        },
        {
          "indexed": true,
          "internalType": "address",
          "name": "newOwner",
          "type": "address"
        }
      ],
      "name": "OwnershipTransferred",
      "type": "event"
    },
    {
      "anonymous": false,
      "inputs": [
        {
          "indexed": false,
          "internalType": "uint256",
          "name": "totalPowerLeg30",
          "type": "uint256"
        },
        {
          "indexed": false,
          "internalType": "uint256",
          "name": "totalPowerLegs",
          "type": "uint256"
        }
      ],
      "name": "PowerLegDistributed",
      "type": "event"
    },
    {
      "anonymous": false,
      "inputs": [
        {
          "indexed": true,
          "internalType": "address",
          "name": "user",
          "type": "address"
        }
      ],
      "name": "ProfileUpdated",
      "type": "event"
    },
    {
      "anonymous": false,
      "inputs": [
        {
          "indexed": true,
          "internalType": "address",
          "name": "mainAccount",
          "type": "address"
        },
        {
          "indexed": true,
          "internalType": "address",
          "name": "subAccount",
          "type": "address"
        },
        {
          "indexed": false,
          "internalType": "uint256",
          "name": "rebirthIndex",
          "type": "uint256"
        }
      ],
      "name": "Reborn",
      "type": "event"
    },
    {
      "anonymous": false,
      "inputs": [
        {
          "indexed": true,
          "internalType": "address",
          "name": "user",
          "type": "address"
        },
        {
          "indexed": true,
          "internalType": "address",
          "name": "sponsor",
          "type": "address"
        },
        {
          "indexed": true,
          "internalType": "address",
          "name": "binaryParent",
          "type": "address"
        },
        {
          "indexed": false,
          "internalType": "bool",
          "name": "placeLeft",
          "type": "bool"
        }
      ],
      "name": "Registered",
      "type": "event"
    },
    {
      "anonymous": false,
      "inputs": [
        {
          "indexed": true,
          "internalType": "address",
          "name": "to",
          "type": "address"
        },
        {
          "indexed": false,
          "internalType": "uint256",
          "name": "amount",
          "type": "uint256"
        }
      ],
      "name": "ReserveWithdraw",
      "type": "event"
    },
    {
      "anonymous": false,
      "inputs": [
        {
          "indexed": true,
          "internalType": "address",
          "name": "user",
          "type": "address"
        },
        {
          "indexed": false,
          "internalType": "uint256",
          "name": "amount",
          "type": "uint256"
        }
      ],
      "name": "UsdtWithdrawn",
      "type": "event"
    },
    {
      "inputs": [],
      "name": "ADMIN_ALLOC",
      "outputs": [
        {
          "internalType": "uint256",
          "name": "",
          "type": "uint256"
        }
      ],
      "stateMutability": "view",
      "type": "function"
    },
    {
      "inputs": [],
      "name": "BINARY_ALLOC",
      "outputs": [
        {
          "internalType": "uint256",
          "name": "",
          "type": "uint256"
        }
      ],
      "stateMutability": "view",
      "type": "function"
    },
    {
      "inputs": [],
      "name": "BTC_POOL_RATE",
      "outputs": [
        {
          "internalType": "uint256",
          "name": "",
          "type": "uint256"
        }
      ],
      "stateMutability": "view",
      "type": "function"
    },
    {
      "inputs": [],
      "name": "INCOME_LIMIT",
      "outputs": [
        {
          "internalType": "uint256",
          "name": "",
          "type": "uint256"
        }
      ],
      "stateMutability": "view",
      "type": "function"
    },
    {
      "inputs": [],
      "name": "LEVEL_ALLOC",
      "outputs": [
        {
          "internalType": "uint256",
          "name": "",
          "type": "uint256"
        }
      ],
      "stateMutability": "view",
      "type": "function"
    },
    {
      "inputs": [],
      "name": "PACKAGE_PRICE",
      "outputs": [
        {
          "internalType": "uint256",
          "name": "",
          "type": "uint256"
        }
      ],
      "stateMutability": "view",
      "type": "function"
    },
    {
      "inputs": [],
      "name": "activate",
      "outputs": [],
      "stateMutability": "nonpayable",
      "type": "function"
    },
    {
      "inputs": [],
      "name": "adminPool",
      "outputs": [
        {
          "internalType": "uint256",
          "name": "",
          "type": "uint256"
        }
      ],
      "stateMutability": "view",
      "type": "function"
    },
    {
      "inputs": [
        {
          "internalType": "uint256",
          "name": "",
          "type": "uint256"
        }
      ],
      "name": "allUsers",
      "outputs": [
        {
          "internalType": "address",
          "name": "",
          "type": "address"
        }
      ],
      "stateMutability": "view",
      "type": "function"
    },
    {
      "inputs": [],
      "name": "binaryPool",
      "outputs": [
        {
          "internalType": "uint256",
          "name": "",
          "type": "uint256"
        }
      ],
      "stateMutability": "view",
      "type": "function"
    },
    {
      "inputs": [
        {
          "internalType": "address",
          "name": "user",
          "type": "address"
        }
      ],
      "name": "canRebirth",
      "outputs": [
        {
          "internalType": "bool",
          "name": "eligible",
          "type": "bool"
        },
        {
          "internalType": "uint256",
          "name": "poolBalance",
          "type": "uint256"
        }
      ],
      "stateMutability": "view",
      "type": "function"
    },
    {
      "inputs": [
        {
          "internalType": "uint256",
          "name": "offset",
          "type": "uint256"
        },
        {
          "internalType": "uint256",
          "name": "limit",
          "type": "uint256"
        }
      ],
      "name": "distributeBinaryIncome",
      "outputs": [],
      "stateMutability": "nonpayable",
      "type": "function"
    },
    {
      "inputs": [
        {
          "internalType": "uint256",
          "name": "offset",
          "type": "uint256"
        },
        {
          "internalType": "uint256",
          "name": "limit",
          "type": "uint256"
        }
      ],
      "name": "distributePowerLeg",
      "outputs": [],
      "stateMutability": "nonpayable",
      "type": "function"
    },
    {
      "inputs": [],
      "name": "getAllUsersCount",
      "outputs": [
        {
          "internalType": "uint256",
          "name": "",
          "type": "uint256"
        }
      ],
      "stateMutability": "view",
      "type": "function"
    },
    {
      "inputs": [
        {
          "internalType": "address",
          "name": "u",
          "type": "address"
        }
      ],
      "name": "getBtcPoolInfo",
      "outputs": [
        {
          "internalType": "uint256",
          "name": "btcPoolBalance",
          "type": "uint256"
        },
        {
          "internalType": "uint256",
          "name": "totalBtcEarned",
          "type": "uint256"
        }
      ],
      "stateMutability": "view",
      "type": "function"
    },
    {
      "inputs": [
        {
          "internalType": "address",
          "name": "u",
          "type": "address"
        }
      ],
      "name": "getCurrentBinaryPairs",
      "outputs": [
        {
          "internalType": "uint256",
          "name": "currentPairs",
          "type": "uint256"
        },
        {
          "internalType": "uint256",
          "name": "newPairs",
          "type": "uint256"
        }
      ],
      "stateMutability": "view",
      "type": "function"
    },
    {
      "inputs": [],
      "name": "getMvtContractBalance",
      "outputs": [
        {
          "internalType": "uint256",
          "name": "",
          "type": "uint256"
        }
      ],
      "stateMutability": "view",
      "type": "function"
    },
    {
      "inputs": [],
      "name": "getMvtPrice",
      "outputs": [
        {
          "internalType": "uint256",
          "name": "buyPrice",
          "type": "uint256"
        },
        {
          "internalType": "uint256",
          "name": "sellPrice",
          "type": "uint256"
        }
      ],
      "stateMutability": "view",
      "type": "function"
    },
    {
      "inputs": [],
      "name": "getPoolBalances",
      "outputs": [
        {
          "internalType": "uint256",
          "name": "binary",
          "type": "uint256"
        },
        {
          "internalType": "uint256",
          "name": "reserve",
          "type": "uint256"
        },
        {
          "internalType": "uint256",
          "name": "admin",
          "type": "uint256"
        }
      ],
      "stateMutability": "view",
      "type": "function"
    },
    {
      "inputs": [
        {
          "internalType": "address",
          "name": "_user",
          "type": "address"
        }
      ],
      "name": "getProfile",
      "outputs": [
        {
          "internalType": "string",
          "name": "displayName",
          "type": "string"
        },
        {
          "internalType": "string",
          "name": "email",
          "type": "string"
        },
        {
          "internalType": "string",
          "name": "phone",
          "type": "string"
        },
        {
          "internalType": "string",
          "name": "country",
          "type": "string"
        },
        {
          "internalType": "bool",
          "name": "profileSet",
          "type": "bool"
        }
      ],
      "stateMutability": "view",
      "type": "function"
    },
    {
      "inputs": [
        {
          "internalType": "address",
          "name": "u",
          "type": "address"
        }
      ],
      "name": "getUserInfo",
      "outputs": [
        {
          "internalType": "bool",
          "name": "isRegistered",
          "type": "bool"
        },
        {
          "internalType": "bool",
          "name": "isActive",
          "type": "bool"
        },
        {
          "internalType": "address",
          "name": "sponsor",
          "type": "address"
        },
        {
          "internalType": "uint256",
          "name": "directCount",
          "type": "uint256"
        },
        {
          "internalType": "address",
          "name": "binaryParent",
          "type": "address"
        },
        {
          "internalType": "bool",
          "name": "placedLeft",
          "type": "bool"
        },
        {
          "internalType": "address",
          "name": "leftChild",
          "type": "address"
        },
        {
          "internalType": "address",
          "name": "rightChild",
          "type": "address"
        },
        {
          "internalType": "uint256",
          "name": "leftSubUsers",
          "type": "uint256"
        },
        {
          "internalType": "uint256",
          "name": "rightSubUsers",
          "type": "uint256"
        },
        {
          "internalType": "uint256",
          "name": "mvtBalance",
          "type": "uint256"
        },
        {
          "internalType": "uint256",
          "name": "totalReceived",
          "type": "uint256"
        },
        {
          "internalType": "uint256",
          "name": "totalSold",
          "type": "uint256"
        },
        {
          "internalType": "uint256",
          "name": "incomeLimit",
          "type": "uint256"
        },
        {
          "internalType": "uint256",
          "name": "usdtBalance",
          "type": "uint256"
        },
        {
          "internalType": "uint256",
          "name": "rebirthPool",
          "type": "uint256"
        },
        {
          "internalType": "uint256",
          "name": "btcPoolBalance",
          "type": "uint256"
        },
        {
          "internalType": "uint256",
          "name": "powerLegPoints",
          "type": "uint256"
        },
        {
          "internalType": "uint256",
          "name": "matchedPairs",
          "type": "uint256"
        },
        {
          "internalType": "address",
          "name": "mainAccount",
          "type": "address"
        },
        {
          "internalType": "uint256",
          "name": "rebirthCount",
          "type": "uint256"
        },
        {
          "internalType": "uint256",
          "name": "joinedAt",
          "type": "uint256"
        }
      ],
      "stateMutability": "view",
      "type": "function"
    },
    {
      "inputs": [],
      "name": "mvaultToken",
      "outputs": [
        {
          "internalType": "contract IMvaultToken",
          "name": "",
          "type": "address"
        }
      ],
      "stateMutability": "view",
      "type": "function"
    },
    {
      "inputs": [],
      "name": "owner",
      "outputs": [
        {
          "internalType": "address",
          "name": "",
          "type": "address"
        }
      ],
      "stateMutability": "view",
      "type": "function"
    },
    {
      "inputs": [
        {
          "internalType": "address",
          "name": "subAccount",
          "type": "address"
        },
        {
          "internalType": "bool",
          "name": "placeLeft",
          "type": "bool"
        }
      ],
      "name": "rebirth",
      "outputs": [],
      "stateMutability": "nonpayable",
      "type": "function"
    },
    {
      "inputs": [
        {
          "internalType": "address",
          "name": "sponsor",
          "type": "address"
        },
        {
          "internalType": "address",
          "name": "binaryParent",
          "type": "address"
        },
        {
          "internalType": "bool",
          "name": "placeLeft",
          "type": "bool"
        }
      ],
      "name": "register",
      "outputs": [],
      "stateMutability": "nonpayable",
      "type": "function"
    },
    {
      "inputs": [],
      "name": "renounceOwnership",
      "outputs": [],
      "stateMutability": "nonpayable",
      "type": "function"
    },
    {
      "inputs": [],
      "name": "reservePool",
      "outputs": [
        {
          "internalType": "uint256",
          "name": "",
          "type": "uint256"
        }
      ],
      "stateMutability": "view",
      "type": "function"
    },
    {
      "inputs": [
        {
          "internalType": "uint256",
          "name": "amount",
          "type": "uint256"
        }
      ],
      "name": "sellMvt",
      "outputs": [],
      "stateMutability": "nonpayable",
      "type": "function"
    },
    {
      "inputs": [
        {
          "internalType": "address",
          "name": "_mvaultToken",
          "type": "address"
        }
      ],
      "name": "setMvaultToken",
      "outputs": [],
      "stateMutability": "nonpayable",
      "type": "function"
    },
    {
      "inputs": [
        {
          "internalType": "string",
          "name": "_displayName",
          "type": "string"
        },
        {
          "internalType": "string",
          "name": "_email",
          "type": "string"
        },
        {
          "internalType": "string",
          "name": "_phone",
          "type": "string"
        },
        {
          "internalType": "string",
          "name": "_country",
          "type": "string"
        }
      ],
      "name": "setProfile",
      "outputs": [],
      "stateMutability": "nonpayable",
      "type": "function"
    },
    {
      "inputs": [],
      "name": "totalUsers",
      "outputs": [
        {
          "internalType": "uint256",
          "name": "",
          "type": "uint256"
        }
      ],
      "stateMutability": "view",
      "type": "function"
    },
    {
      "inputs": [
        {
          "internalType": "address",
          "name": "newOwner",
          "type": "address"
        }
      ],
      "name": "transferOwnership",
      "outputs": [],
      "stateMutability": "nonpayable",
      "type": "function"
    },
    {
      "inputs": [],
      "name": "usdtToken",
      "outputs": [
        {
          "internalType": "contract IERC20",
          "name": "",
          "type": "address"
        }
      ],
      "stateMutability": "view",
      "type": "function"
    },
    {
      "inputs": [
        {
          "internalType": "address",
          "name": "",
          "type": "address"
        }
      ],
      "name": "users",
      "outputs": [
        {
          "internalType": "bool",
          "name": "isRegistered",
          "type": "bool"
        },
        {
          "internalType": "bool",
          "name": "isActive",
          "type": "bool"
        },
        {
          "internalType": "address",
          "name": "sponsor",
          "type": "address"
        },
        {
          "internalType": "uint256",
          "name": "directCount",
          "type": "uint256"
        },
        {
          "internalType": "address",
          "name": "binaryParent",
          "type": "address"
        },
        {
          "internalType": "bool",
          "name": "placedLeft",
          "type": "bool"
        },
        {
          "internalType": "address",
          "name": "leftChild",
          "type": "address"
        },
        {
          "internalType": "address",
          "name": "rightChild",
          "type": "address"
        },
        {
          "internalType": "uint256",
          "name": "leftSubUsers",
          "type": "uint256"
        },
        {
          "internalType": "uint256",
          "name": "rightSubUsers",
          "type": "uint256"
        },
        {
          "internalType": "uint256",
          "name": "matchedPairs",
          "type": "uint256"
        },
        {
          "internalType": "uint256",
          "name": "mvtBalance",
          "type": "uint256"
        },
        {
          "internalType": "uint256",
          "name": "totalReceived",
          "type": "uint256"
        },
        {
          "internalType": "uint256",
          "name": "totalSold",
          "type": "uint256"
        },
        {
          "internalType": "uint256",
          "name": "incomeLimit",
          "type": "uint256"
        },
        {
          "internalType": "uint256",
          "name": "usdtBalance",
          "type": "uint256"
        },
        {
          "internalType": "uint256",
          "name": "rebirthPool",
          "type": "uint256"
        },
        {
          "internalType": "uint256",
          "name": "totalUsdtEarned",
          "type": "uint256"
        },
        {
          "internalType": "uint256",
          "name": "btcPoolBalance",
          "type": "uint256"
        },
        {
          "internalType": "uint256",
          "name": "totalBtcEarned",
          "type": "uint256"
        },
        {
          "internalType": "uint256",
          "name": "powerLegPoints",
          "type": "uint256"
        },
        {
          "internalType": "address",
          "name": "mainAccount",
          "type": "address"
        },
        {
          "internalType": "uint256",
          "name": "rebirthCount",
          "type": "uint256"
        },
        {
          "internalType": "uint256",
          "name": "joinedAt",
          "type": "uint256"
        },
        {
          "internalType": "string",
          "name": "displayName",
          "type": "string"
        },
        {
          "internalType": "string",
          "name": "email",
          "type": "string"
        },
        {
          "internalType": "string",
          "name": "phone",
          "type": "string"
        },
        {
          "internalType": "string",
          "name": "country",
          "type": "string"
        },
        {
          "internalType": "bool",
          "name": "profileSet",
          "type": "bool"
        }
      ],
      "stateMutability": "view",
      "type": "function"
    },
    {
      "inputs": [
        {
          "internalType": "address",
          "name": "to",
          "type": "address"
        },
        {
          "internalType": "uint256",
          "name": "amount",
          "type": "uint256"
        }
      ],
      "name": "withdrawAdminPool",
      "outputs": [],
      "stateMutability": "nonpayable",
      "type": "function"
    },
    {
      "inputs": [
        {
          "internalType": "uint256",
          "name": "amount",
          "type": "uint256"
        }
      ],
      "name": "withdrawBtcPool",
      "outputs": [],
      "stateMutability": "nonpayable",
      "type": "function"
    },
    {
      "inputs": [
        {
          "internalType": "address",
          "name": "to",
          "type": "address"
        },
        {
          "internalType": "uint256",
          "name": "amount",
          "type": "uint256"
        }
      ],
      "name": "withdrawReservePool",
      "outputs": [],
      "stateMutability": "nonpayable",
      "type": "function"
    },
    {
      "inputs": [
        {
          "internalType": "uint256",
          "name": "amount",
          "type": "uint256"
        }
      ],
      "name": "withdrawUsdt",
      "outputs": [],
      "stateMutability": "nonpayable",
      "type": "function"
    }
  ],
  "bytecode": "0x60a0346200016057601f6200365238819003918201601f19168301916001600160401b038311848410176200016557808492604094855283398101031262000160576200005a602062000052836200017b565b92016200017b565b90331562000147576000549160018060a01b03199233848216176000556040519060018060a01b03938491823391167f8be0079c531659141344cd1fd0a4f28419497f9722a3daafe3b4186f6b6457e0600080a360017f9b779b17422d0df92223018b32b4d1fa46e071723d6817e2486d003becc55f00551690811580156200013c575b6200012d5750608052169060015416176001556040516134c1908162000191823960805181818161046d015281816106a201528181610aff0152818161174e015281816122c401526127ed0152f35b63d92e233d60e01b8152600490fd5b5083831615620000de565b604051631e4fbdf760e01b815260006004820152602490fd5b600080fd5b634e487b7160e01b600052604160045260246000fd5b51906001600160a01b0382168203620001605756fe61032080604052600436101561001457600080fd5b600090813560e01c9081630266f044146123a557508063039ccc261461238157806303c3ecb71461233b5780630f15f4c01461225a5780630f53a4701461219a5780631ce5e894146121285780631f6259d5146120ff5780632808bc8d1461203b5780632d641f0814611ffe57806338abfc4114611fe057806344e374d51461061457806352375bb114611fb157806355509c8f146119de578063634f627e146116c85780636386c1c7146114fa57806368ddb2b514611417578063715018a6146113cf57806377537844146106145780637f1b4064146113b15780638a8f0429146111935780638da5cb5b1461116c57806392446e301461115057806394915dd014610e3d578063a2bdedf414610df9578063a87430ba14610b2e578063a98ad46c14610ae9578063aa33f5d514610773578063aa3937571461074f578063b58e027814610637578063b86a1fb214610619578063be648bdb14610614578063bff1f9e1146105f6578063ce8292f51461055d578063d3635a0214610402578063e51cb530146103b4578063ec50324a146102b5578063f24c536a1461023c5763f2fde38b146101c457600080fd5b34610239576020366003190112610239576101dd6123c1565b6101e56125bd565b6001600160a01b03908116908115610220576000548260018060a01b03198216176000551660008051602061342c833981519152600080a380f35b604051631e4fbdf760e01b815260048101849052602490fd5b80fd5b5034610239576020366003190112610239576040906001600160a01b036102616123c1565b1681526002602052818120906007600583015460068401548082106000146102ad5750925b0154808311156102a75761029b915082612742565b82519182526020820152f35b5061029b565b905092610286565b5034610239576040366003190112610239576102cf6123c1565b602435906102db6125bd565b6001600160a01b03169081156103a25760065481811061036657816103237f0529afc4538720fe0b3eadc40486369ab962002d72fead1387b300c66073e7bf93602093612742565b600655838552600282526008604086200161033f82825461274f565b9055838552600282526009604086200161035a82825461274f565b9055604051908152a280f35b60405162461bcd60e51b8152602060048201526014602482015273115e18d959591cc81c995cd95c9d99481c1bdbdb60621b6044820152606490fd5b60405163d92e233d60e01b8152600490fd5b503461023957602036600319011261023957604090600d9082906001600160a01b036103de6123c1565b168152600260205220015481519068070c1cc73b00c8000081101582526020820152f35b50346102395760208060031936011261055957600435906104216126c4565b81156105475733835260028152600c60408420018054838110610535578361044891612742565b905560405163a9059cbb60e01b8152818180610468863360048401612727565b0381877f00000000000000000000000000000000000000000000000000000000000000006001600160a01b03165af190811561052a5784916104fd575b50156104eb577fbdd3f02d2a57fb53c1156f98470b61cb60712d485c27c36a49b1263dabcde201906040519283523392a2600160008051602061346c8339815191525580f35b6040516312171d8360e31b8152600490fd5b61051d9150823d8411610523575b61051581836124f4565b8101906126ac565b386104a5565b503d61050b565b6040513d86823e3d90fd5b60405163b55c1bad60e01b8152600490fd5b604051631f2a200560e01b8152600490fd5b5080fd5b50346102395780600319360112610239576001546040516370a0823160e01b81523060048201529190602090839060249082906001600160a01b03165afa9081156105ea57906105b3575b602090604051908152f35b506020813d82116105e2575b816105cc602093836124f4565b810103126105dd57602090516105a8565b600080fd5b3d91506105bf565b604051903d90823e3d90fd5b50346102395780600319360112610239576020600454604051908152f35b61242d565b50346102395780600319360112610239576020600754604051908152f35b50346102395760208060031936011261055957600435906106566126c4565b81156105475733835260028152600f6040842001805483811061073d578361067d91612742565b905560405163a9059cbb60e01b815281818061069d863360048401612727565b0381877f00000000000000000000000000000000000000000000000000000000000000006001600160a01b03165af190811561052a578491610720575b50156104eb577f12701e4764b73009ab9826933c421483e4280410091fcc760515e0fa99fa766b906040519283523392a2600160008051602061346c8339815191525580f35b6107379150823d84116105235761051581836124f4565b386106da565b604051636dae861760e11b8152600490fd5b503461023957806003193601126102395760206040516815245655b1025800008152f35b50346102395760603660031901126102395761078d6123c1565b6024356001600160a01b03811690036105dd576044351515604435036105dd57338252600260205260ff604083205416610ad7576004546108bc57336000908152600260208190526040909120805461ff01600160b01b031916600117815590810180546001600160a81b03191690556012810180546001600160a01b031916905542601490910155600354600160401b8110156108a6578060016108359201600355612476565b81546001600160a01b0360039290921b91821b19163390911b17905560045461085d906125e9565b6004555b604051604435151581526001600160a01b03602435811692169033907f34ff37874d7443037a85c6f390fe14f2ae3e8767355de0e63891ad4367c2753990602090a480f35b634e487b7160e01b600052604160045260246000fd5b6001600160a01b0381168083526002602052604083205460ff1615610ac5576024356001600160a01b0316151580610aa4575b15610a9e576024355b60443580610a7b575b610a46576044351580610a58575b610a4657336000908152600260208190526040909120805461ff01600160b01b031916601086901b62010000600160b01b031617600117815590810180546001600160a81b0319166001600160a01b03909316928317604435151560a01b60ff60a01b161790556012810180546001600160a01b031990811690915542601490920191909155600354909190600160401b8110156108a6578060016109b79201600355612476565b81546001600160a01b0360039290921b91821b19163390911b1790556004546109df906125e9565b60045560443515610a2a5784526002602052600360408520019033908254161790555b8252600260205260016040832001610a1a81546125e9565b9055610a253361260e565b610861565b8452600260205260046040852001903390825416179055610a02565b60405163d5dd5c3d60e01b8152600490fd5b506001600160a01b0381811685526002602052604085206004015416151561090f565b506001600160a01b03818116855260026020526040852060030154161515610901565b816108f8565b506024356001600160a01b031683526002602052604083205460ff166108ef565b604051632f212e0d60e11b8152600490fd5b604051630ea075bf60e21b8152600490fd5b50346102395780600319360112610239576040517f00000000000000000000000000000000000000000000000000000000000000006001600160a01b03168152602090f35b5034610239576020366003190112610239576040906001600160a01b03610b536123c1565b1681526002602052208060e052808080808080808080808080610c156015600f600e600d600c600b600a600960086007600660058d549d600181015461030052600281015460a05260018060a01b0360038201541661014052600460018060a01b03910154169e01549e01549e01549e01549e01549e01549e01549e01549e01549e01549e01549e60108101546102005260118101546102c05260018060a01b036012820154166102805260138101546101c052601481015460c05201612517565b61012052610c27601660e05101612517565b61024052610c39601760e05101612517565b608052610c4a601860e05101612517565b6101e05260ff601960e0510154166101a052604051806102205260ff82161515905260ff8160081c161515602061022051015260018060a01b039060101c16604061022051015261030051606061022051015260018060a01b0360a05116608061022051015260ff60a05160a01c16151560a06102205101526101405160c061022051015260e06102205101526101006102205101526101206102205101526101406102205101526101606102205101526101806102205101526101a06102205101526101c06102205101526101e061022051015261020061022051015261022080510152610240610220510152610200516102606102205101526102c051610280610220510152610280516102a06102205101526101c0516102c061022051015260c0516102e0610220510152610de0610dca610db5610d9f6103a0806103006102205101526102205101610120516123d7565b61022051610320818303910152610240516123d7565b610220516103408183039101526080516123d7565b610220516103608183039101526101e0516123d7565b6101a05115156103806102205101526102205180910390f35b50346102395760203660031901126102395760043590600354821015610239576020610e2483612476565b905460405160039290921b1c6001600160a01b03168152f35b503461023957604036600319011261023957610e576123c1565b6024359081151582036105dd57610e6c6126c4565b6001600160a01b03818116929083156103a257338552600292602093808552604087209182549160ff8360081c161561111e57600d840180549068070c1cc73b00c8000080831061110c578a8c52838a5260ff60408d2054166110c75768070c1cc73b00c7ffff1983019283116110b3578083106110a857610eef908093612742565b9055600c8501610f0082825461274f565b9055610f11600e860191825461274f565b90556815245655b102580000600b850155610f32858460101c169633612eb0565b60008a8152838a5260409020805461ff01600160b01b03191662010000600160b01b0390961695909517600117855584830180546001600160a81b03191692881692831782151560a01b60ff60a01b161790556012850180546001600160a01b0319908116331790915542601490960195909555600354909790949091600160401b8610156108a6577f30016ed357540281a6cff6143637e72b48e105d85d15df66b0aaffbd23790240986013988c610ff48960016110449b01600355612476565b909283549160031b92831b921b19161790556110116004546125e9565b6004551561108f578b5282895289600360408d2001918254161790555b80611071575b505061103f8161260e565b612780565b019161105083546125e9565b8093556040519283523392a3600160008051602061346c8339815191525580f35b895286526001604089200161108681546125e9565b90553880611034565b8b5282895289600460408d20019182541617905561102e565b50610eef8280612742565b634e487b7160e01b8c52601160045260248cfd5b60405162461bcd60e51b8152600481018b9052601e60248201527f5375622d6163636f756e7420616c7265616479207265676973746572656400006044820152606490fd5b6040516307db32bd60e31b8152600490fd5b60405162461bcd60e51b815260048101889052600a6024820152694e6f742061637469766560b01b6044820152606490fd5b50346102395780600319360112610239576020604051600a8152f35b5034610239578060031936011261023957546040516001600160a01b039091168152602090f35b5034610239576111a236612417565b6111aa6125bd565b6111b26126c4565b60099060ff8254161561139f576111c9908361274f565b9060038054808411611397575b508492845b81811061135757506008918254958515158061134e575b1561133557805b8381106112a0575090879392915b82811061126057847f7f4a5b69bea14a6fc05326671a02e90d4a88855c83a18529c260057b1bf61a8560408a8a8a858a5560ff19815416905582519182526020820152a1600160008051602061346c8339815191525580f35b611296919293945061127181612476565b905490841b1c6001600160a01b031689526002602052604089206011018990556125e9565b9087939291611207565b80896112ae61132393612476565b905490861b1c6001600160a01b0316808252600260208181526040842060110154919290918a908e908e8115611328576112ed6112f2926040946126f4565b612707565b95838152858552200161130685825461274f565b90558d525261131c8860408d200191825461274f565b90556125e9565b6111f9565b50505050505050506125e9565b6113418760075461274f565b6007559087939291611207565b508615156111f2565b9361138c6113929161136887612476565b905490861b1c6001600160a01b03168952600260205260408920601101549061274f565b946125e9565b6111db565b9250386111d6565b60405163418826bf60e11b8152600490fd5b50346102395780600319360112610239576020600554604051908152f35b50346102395780600319360112610239576113e86125bd565b600080546001600160a01b0319811682556001600160a01b031660008051602061342c8339815191528280a380f35b5034610239578060031936011261023957600154604051623144bd60e31b81526001600160a01b039091169160208083600481875afa9283156114ef5782936114be575b5080600494604051958680926310f4cba760e21b82525afa9182156105ea579161148e575b604080945051928352820152f35b80915083813d83116114b7575b6114a581836124f4565b810103126105dd576040925190611480565b503d61149b565b9392508084813d83116114e8575b6114d681836124f4565b810103126105dd57925191928061145b565b503d6114cc565b6040513d84823e3d90fd5b5034610239576020366003190112610239576040906001600160a01b0361151f6123c1565b168152600260205220808080808080808080808080805460018201546101805260028201546102e052601460076011600f600d600c600b600a60096008600660058d600360018060a01b03910154169d600460018060a01b03910154169e01549e01549e01549e01549e01549e01549e01549e01549e01549e01549e01549e60018060a01b036012820154166101605260138101546102a052015461026052604051806101005260ff82161515905260ff8160081c161515602061010051015260018060a01b039060101c16604061010051015261018051606061010051015260018060a01b036102e05116608061010051015260ff6102e05160a01c16151560a061010051015260c061010051015260e0610100510152610100805101526101206101005101526101406101005101526101606101005101526101806101005101526101a06101005101526101c06101005101526101e0610100510152610200610100510152610220610100510152610240610100510152610160516102606101005101526102a051610280610100510152610260516102a06101005101526102c061010051f35b50346102395760208060031936011261055957600435906116e76126c4565b81156105475733835260028152604083209060ff825460081c16156119cc576008820180548481106119ba578461171d91612742565b9055600a820161172e84825461274f565b90556040516370a0823160e01b8082523060048301526001600160a01b037f0000000000000000000000000000000000000000000000000000000000000000811692919087908584602481885afa9384156114ef57829461198b575b5060015416803b156105595781906024604051809481936372424d9960e11b83528c60048401525af180156119805761196d575b50839060246040518095819382523060048301525afa8015611962578690611933575b6117eb9250612742565b91600a8302838104600a148415171561191f577f8f7262d5a031d4d671e1fdb0cddcd26d37185226f9e82f2f18877141ac1963eb93929161183360646118f493048095612742565b92600f820161184386825461274f565b90556010820161185486825461274f565b90557f2b1d2104e84dd4dabb0cca024171f783ab1e1c9dc1af9d60a2361596653a99c4604051918683523392a2600b81018054918883156119125750600d908386111561190c57835b80936118c4826118ad818b612742565b97600c86016118bd83825461274f565b9055612742565b90556118d5600e830191825461274f565b90555b016118e483825461274f565b905560405194859433988661275c565b0390a2600160008051602061346c8339815191525580f35b8561189d565b91509150600d84926118d8565b634e487b7160e01b86526011600452602486fd5b508282813d831161195b575b61194981836124f4565b810103126105dd576117eb91516117e1565b503d61193f565b6040513d88823e3d90fd5b966119798592986124e1565b96906117be565b6040513d8a823e3d90fd5b9093508581813d83116119b3575b6119a381836124f4565b810103126105595751923861178a565b503d611999565b60405163208975e760e21b8152600490fd5b60405163aba4733960e01b8152600490fd5b5034610239576080366003190112610239576004356001600160401b03811161055957611a0f903690600401612449565b91906024356001600160401b038111611fad57611a30903690600401612449565b6044356001600160401b038111611fa957611a4f903690600401612449565b90916064356001600160401b038111611fa557611a70903690600401612449565b949097338852600260205260ff60408920541615611f6f57338852600260205260408820966001600160401b038211611f5b578190611ab260158a01546124a7565b601f8111611f0b575b508990601f8311600114611e9f578a92611e94575b50508160011b916000199060031b1c19161760158701555b6001600160401b038211611e80578190611b0560168801546124a7565b601f8111611e2d575b508790601f8311600114611dc1578892611db6575b50508160011b916000199060031b1c19161760168501555b60178401916001600160401b038211611da2578190611b5a84546124a7565b601f8111611d52575b508690601f8311600114611cec578792611ce1575b50508160011b916000199060031b1c19161790555b60188201906001600160401b038111611ccd57611baa82546124a7565b601f8111611c88575b5083601f8211600114611c21578190859660199692611c16575b50508160011b916000199060031b1c19161790555b01805460ff19166001179055337fbe4ec58a792f909e102ee3d745d0c3b34a4d437a54d903c4db098d31c556422f8280a280f35b013590503880611bcd565b8285526020852090601f198316865b818110611c705750968392916001946019989910611c56575b505050811b019055611be2565b0135600019600384901b60f8161c19169055388080611c49565b9192602060018192868c013581550194019201611c30565b82855260208520601f830160051c81019160208410611cc3575b601f0160051c01905b818110611cb85750611bb3565b858155600101611cab565b9091508190611ca2565b634e487b7160e01b84526041600452602484fd5b013590503880611b78565b84885260208820925090601f198416885b818110611d3a5750908460019594939210611d20575b505050811b019055611b8d565b0135600019600384901b60f8161c19169055388080611d13565b91936020600181928787013581550195019201611cfd565b90915083875260208720601f840160051c81019160208510611d98575b90601f859493920160051c01905b818110611d8a5750611b63565b888155849350600101611d7d565b9091508190611d6f565b634e487b7160e01b86526041600452602486fd5b013590503880611b23565b60168801895260208920925090601f198416895b818110611e155750908460019594939210611dfb575b505050811b016016850155611b3b565b0135600019600384901b60f8161c19169055388080611deb565b91936020600181928787013581550195019201611dd5565b90915060168701885260208820601f840160051c81019160208510611e76575b90601f859493920160051c01905b818110611e685750611b0e565b898155849350600101611e5b565b9091508190611e4d565b634e487b7160e01b87526041600452602487fd5b013590503880611ad0565b60158a018b5260208b20925090601f1984168b5b818110611ef35750908460019594939210611ed9575b505050811b016015870155611ae8565b0135600019600384901b60f8161c19169055388080611ec9565b91936020600181928787013581550195019201611eb3565b909150601589018a5260208a20601f840160051c810160208510611f54575b90849392915b601f830160051c82018110611f46575050611abb565b8c8155859450600101611f30565b5080611f2a565b634e487b7160e01b89526041600452602489fd5b60405162461bcd60e51b815260206004820152600e60248201526d139bdd081c9959da5cdd195c995960921b6044820152606490fd5b8680fd5b8480fd5b8280fd5b503461023957806003193601126102395760606005546006546007549060405192835260208301526040820152f35b50346102395780600319360112610239576020600354604051908152f35b50346102395761202661201036612417565b906120196125bd565b6120216126c4565b61310d565b600160008051602061346c8339815191525580f35b5034610239576040366003190112610239576120556123c1565b602435906120616125bd565b6001600160a01b03169081156103a2576007548181106120c557816120a97fba443e8671971c36cdeb74f87321041daff421230cbc5e36cb835269ed1d8b7e93602093612742565b600755838552600282526008604086200161033f82825461274f565b60405162461bcd60e51b8152602060048201526012602482015271115e18d959591cc818591b5a5b881c1bdbdb60721b6044820152606490fd5b50346102395780600319360112610239576001546040516001600160a01b039091168152602090f35b5034610239576020366003190112610239576121426123c1565b61214a6125bd565b6001600160a01b031680156103a257600180546001600160a01b031916821790556040519081527ffa7bd61554593f4e69cdffd255d3fe947352b02c7d3ec68059384934e4cfd47c90602090a180f35b503461023957602036600319011261023957612224906040906001600160a01b036121c36123c1565b16815260026020522060ff60198201541661224e6121e360158401612517565b926122406121f360168301612517565b9161223261220f601861220860178501612517565b9301612517565b9360405198899860a08a5260a08a01906123d7565b9088820360208a01526123d7565b9086820360408801526123d7565b9084820360608601526123d7565b90151560808301520390f35b50346102395780600319360112610239576122736126c4565b3381526002602052604081205460ff8116156119cc5760081c60ff16612329576040516323b872dd60e01b815233600482015230602482015268070c1cc73b00c800006044820152602081606481857f00000000000000000000000000000000000000000000000000000000000000006001600160a01b03165af19081156114ef57829161230b575b50156104eb5761202633612780565b612323915060203d81116105235761051581836124f4565b386122fc565b604051637cdf305160e11b8152600490fd5b50346102395760203660031901126102395760409081906001600160a01b036123626123c1565b1681526002602052206010600f82015491015482519182526020820152f35b5034610239578060031936011261023957602060405168070c1cc73b00c800008152f35b9050346105595781600319360112610559576020906006548152f35b600435906001600160a01b03821682036105dd57565b919082519283825260005b848110612403575050826000602080949584010152601f8019910116010190565b6020818301810151848301820152016123e2565b60409060031901126105dd576004359060243590565b346105dd5760003660031901126105dd576020604051601e8152f35b9181601f840112156105dd578235916001600160401b0383116105dd57602083818601950101116105dd57565b60035481101561249157600360005260206000200190600090565b634e487b7160e01b600052603260045260246000fd5b90600182811c921680156124d7575b60208310146124c157565b634e487b7160e01b600052602260045260246000fd5b91607f16916124b6565b6001600160401b0381116108a657604052565b601f909101601f19168101906001600160401b038211908210176108a657604052565b906040519182600082549261252b846124a7565b90818452600194858116908160001461259a5750600114612557575b5050612555925003836124f4565b565b9093915060005260209081600020936000915b81831061258257505061255593508201013880612547565b8554888401850152948501948794509183019161256a565b91505061255594506020925060ff191682840152151560051b8201013880612547565b6000546001600160a01b031633036125d157565b60405163118cdaa760e01b8152336004820152602490fd5b60001981146125f85760010190565b634e487b7160e01b600052601160045260246000fd5b6001600160a01b039081166000908152600260208181526040808420830154949560a09560ff959293919080881c871690899081165b169081156126a057156126835780845285835260058585200161266781546125e9565b90555b8352848252848484200154888088838b1c169216612644565b80845285835260068585200161269981546125e9565b905561266a565b50509650505050505050565b908160209103126105dd575180151581036105dd5790565b60008051602061346c83398151915260028154146126e25760029055565b604051633ee5aeb560e01b8152600490fd5b818102929181159184041417156125f857565b8115612711570490565b634e487b7160e01b600052601260045260246000fd5b6001600160a01b039091168152602081019190915260400190565b919082039182116125f857565b919082018092116125f857565b9192608093969594919660a084019784526020840152604083015260608201520152565b600154604051623144bd60e31b8152600093909290916001600160a01b0316602084600481845afa938415612d03578594612ccf575b508315612cbb5760405163095ea7b360e01b8152600481019190915268070c1cc73b00c800006024820181905290602081604481897f00000000000000000000000000000000000000000000000000000000000000006001600160a01b03165af1801561196257612c9c575b506001546040516370a0823160e01b8082523060048301529290918791906001600160a01b0316602084602481845afa938415612c91578394612c5d575b50803b15611fad57604483926040519485938492634e538d9360e11b845230600485015260248401525af18015612c5257612c3f575b50600154604051928352306004840152602090839060249082906001600160a01b03165afa8015611962578690612c0b575b6128d29250612742565b92601e6b030e68b6d6e0acc82863363160251b8290048181029291818404149015171561191f5761294c612944612929606485046129248181816b030e68b6d6e0acc82863363160251b899004612742565b612742565b6129386064860460055461274f565b6005556064850461274f565b60075461274f565b6007556001600160a01b038381168752600260205260408720805461ff001916610100178082556815245655b102580000600b9092019190915560019588949092909160101c165b600a60ff8816111580612bf9575b15612b69576129c3876b030e68b6d6e0acc82863363160251b869004612d23565b948515612b4357856129d49161274f565b6001600160a01b0382168a52600260205260408a20805491969160081c60ff169081612b2c575b5015612adc576001600160a01b0382168a52600260205260408a206008018054612a2690839061274f565b90556001600160a01b0382168a52600260205260408a206009018054612a4d90839061274f565b90556040516001600160a01b0388811692908416917fb16479bdac5b7099d9236d6fc6be3b30ff54188f4fd961686e1e1dc7ecb88037918190612a91908d83612d0e565b0390a35b6001600160a01b0390811689526002602052604089205460101c16955b60ff908180821614612ac8571660010195612994565b634e487b7160e01b8a52601160045260248afd5b612ae88160075461274f565b6007557f117ca0cd821ecb7eadfea2d6927a67853908bdc351a386235215f5ab6071bfed60405180612b2460018060a01b038616948c83612d0e565b0390a2612a95565b600191500154612b3b89612e6f565b1115386129fb565b6001600160a01b039182168a52600260205260408a205460101c90911696909450612ab2565b509392612bdb92969197507f8af2c013a5a55c6d3ad5423522fe76c6f2eb831b5e23318276b3c678cb457fc99550806064860411612be0575b506040516001600160a01b039093169592938493606490910491829182916b030e68b6d6e0acc82863363160251b91909104908661275c565b0390a2565b612944612bf09160648704612742565b60075538612ba2565b506001600160a01b03811615156129a2565b506020823d602011612c37575b81612c25602093836124f4565b810103126105dd576128d291516128c8565b3d9150612c18565b612c4b909691966124e1565b9438612896565b6040513d89823e3d90fd5b9093506020813d602011612c89575b81612c79602093836124f4565b81010312611fad57519238612860565b3d9150612c6c565b6040513d85823e3d90fd5b612cb49060203d6020116105235761051581836124f4565b5038612822565b634e487b7160e01b85526012600452602485fd5b9093506020813d602011612cfb575b81612ceb602093836124f4565b81010312611fa9575192386127b6565b3d9150612cde565b6040513d87823e3d90fd5b6020909392919360ff60408201951681520152565b9060ff1660018114612e545760028114612e395760038114612e1e57600490818114612e075760058114612dea5760068114612dea5760078114612dcd5760088114612dcd5760098114612db057600a14612d7f575050600090565b8160011b9180830460021490151715612d9b57506103e8900490565b601190634e487b7160e01b6000525260246000fd5b508160011b9180830460021490151715612d9b57506103e8900490565b50600382029180830460031490151715612d9b57506103e8900490565b50600582029180830460051490151715612d9b57506103e8900490565b5081800460011482151715612d9b57506064900490565b508060011b90808204600214901517156125f8576064900490565b506005810290808204600514901517156125f8576064900490565b506014810290808204601414901517156125f8576064900490565b60ff600491161115612e8057600590565b600290565b6001600160401b0381116108a65760051b60200190565b80518210156124915760209160051b010190565b909182806130e8575b6130e05782159182806130bb575b612f785760049384549360018086018096116130a657612ee686612e85565b90612f01604097612ef9895194856124f4565b808452612e85565b9260209283810194601f19013686376000808715613088576001600160a01b038981168352600287528b83206003015416965b6001600160a01b039788168061305f575b50505b818110612fc25750505080612fa7575b612f9c575082612f80575b5050612f785750505163c5bb5bcd60e01b8152fd5b925060009150565b8160029293508416600052528484600020015416153880612f63565b939650929450505050565b50828516600052600282528260038860002001541615612f58565b86612fd6612fcf836125e9565b9285612e9c565b5116806000526002908188528c6000208960038201541690811561304c578f01548a16156130395761301161300a866125e9565b9587612e9c565b526000528652868c8c60002001541661303361302c846125e9565b9385612e9c565b52612f48565b509c5060009b5050505050505050505050565b50909d50959b5050505050505050505050565b909250859284511561307357523880612f45565b60328e634e487b7160e01b6000525260246000fd5b6001600160a01b038981168352600287528b83208d01541696612f34565b601187634e487b7160e01b6000525260246000fd5b506001600160a01b038181166000908152600260205260409020600401541615612ec7565b915090600190565b506001600160a01b038281166000908152600260205260409020600301541615612eb9565b60ff60098181541661341a5760059081549485156133e1576000938484556046870287810460460361191f5760649004936131488589612742565b956131586008948886558961274f565b93600380548087116133d9575b508299805b87811061334657508a156132fb575b8681106131c05750505050505050916080939160008051602061344c8339815191529593600160ff19825416179055604051938452602084015260408301526060820152a1565b8a86868b8b6131ce86612476565b60018060a01b03915490891b1c16808a52600292896020938585528c604097888220998a54851c16156132e75789015460068a0154808210156132df5750995b6007998a0154808c11156132d757613226908c612742565b945b85156132c257916132428a926112ed8861326a97966126f4565b948782528989528282200161325886825461274f565b9055868152888852200191825461274f565b9055600a808202918204036132ae57908493929161329b60116132a99a9998978e858152878752200191825461274f565b90558a5252872001556125e9565b613179565b634e487b7160e01b8b52601160045260248bfd5b5050505050505050505050506132a9906125e9565b508194613228565b90509961320e565b50505050505050505050506132a9906125e9565b505093509460809750859450613328925061294491509560008051602061344c833981519152989661274f565b600755556040519182528060208301528060408301526060820152a1565b61334f81612476565b905490841b1c6001600160a01b031685526002602052604085208054851c8816156133cf5760078782015460068301548082106000146133c75750915b0154908181116133a7575b50506133a2906125e9565b61316a565b9c6133b96133bf926133a2949f612742565b9061274f565b9b9038613397565b90509161338c565b506133a2906125e9565b955038613165565b60405162461bcd60e51b8152602060048201526011602482015270115b5c1d1e48189a5b985c9e481c1bdbdb607a1b6044820152606490fd5b60405162c9487960e41b8152600490fdfe8be0079c531659141344cd1fd0a4f28419497f9722a3daafe3b4186f6b6457e0a0ea5705200c9ffd36dc735fef1592c3234bb7e311fc1b0a444f6370d0620eae9b779b17422d0df92223018b32b4d1fa46e071723d6817e2486d003becc55f00a2646970667358221220725c7b0a33ff4b56d637df9d187b88caa58aeacf9905bf185ba3b4d240d30b7864736f6c63430008140033",
  "linkReferences": {},
  "deployedLinkReferences": {}
}