{
  "_format": "hh-sol-artifact-1",
  "contractName": "MvaultContract",
  "sourceName": "contracts/MvaultContract.sol",
  "abi": [
    {
      "inputs": [
        {
          "internalType": "address",
          "name": "_usdt",
          "type": "address"
        },
        {
          "internalType": "address",
          "name": "_mvaultToken",
          "type": "address"
        }
      ],
      "stateMutability": "nonpayable",
      "type": "constructor"
    },
    {
      "inputs": [],
      "name": "AlreadyActive",
      "type": "error"
    },
    {
      "inputs": [],
      "name": "AlreadyRegistered",
      "type": "error"
    },
    {
      "inputs": [],
      "name": "BinaryAlreadyDistributed",
      "type": "error"
    },
    {
      "inputs": [],
      "name": "BinaryNotDistributed",
      "type": "error"
    },
    {
      "inputs": [],
      "name": "BoardHandlerNotSet",
      "type": "error"
    },
    {
      "inputs": [],
      "name": "InsufficientBtcPool",
      "type": "error"
    },
    {
      "inputs": [],
      "name": "InsufficientBtcPoolForBoard",
      "type": "error"
    },
    {
      "inputs": [],
      "name": "InsufficientRebirthPool",
      "type": "error"
    },
    {
      "inputs": [],
      "name": "InsufficientUsdtBalance",
      "type": "error"
    },
    {
      "inputs": [],
      "name": "InsufficientVirtualBalance",
      "type": "error"
    },
    {
      "inputs": [],
      "name": "InvalidSponsor",
      "type": "error"
    },
    {
      "inputs": [],
      "name": "NoOpenBinarySlot",
      "type": "error"
    },
    {
      "inputs": [],
      "name": "NotRegistered",
      "type": "error"
    },
    {
      "inputs": [
        {
          "internalType": "address",
          "name": "owner",
          "type": "address"
        }
      ],
      "name": "OwnableInvalidOwner",
      "type": "error"
    },
    {
      "inputs": [
        {
          "internalType": "address",
          "name": "account",
          "type": "address"
        }
      ],
      "name": "OwnableUnauthorizedAccount",
      "type": "error"
    },
    {
      "inputs": [],
      "name": "PositionTaken",
      "type": "error"
    },
    {
      "inputs": [],
      "name": "ReentrancyGuardReentrantCall",
      "type": "error"
    },
    {
      "inputs": [],
      "name": "TransferFailed",
      "type": "error"
    },
    {
      "inputs": [],
      "name": "ZeroAddress",
      "type": "error"
    },
    {
      "inputs": [],
      "name": "ZeroAmount",
      "type": "error"
    },
    {
      "anonymous": false,
      "inputs": [
        {
          "indexed": true,
          "internalType": "address",
          "name": "user",
          "type": "address"
        },
        {
          "indexed": false,
          "internalType": "uint256",
          "name": "mvtMinted",
          "type": "uint256"
        },
        {
          "indexed": false,
          "internalType": "uint256",
          "name": "grossMvt",
          "type": "uint256"
        },
        {
          "indexed": false,
          "internalType": "uint256",
          "name": "levelAmt",
          "type": "uint256"
        },
        {
          "indexed": false,
          "internalType": "uint256",
          "name": "binaryAmt",
          "type": "uint256"
        },
        {
          "indexed": false,
          "internalType": "uint256",
          "name": "adminAmt",
          "type": "uint256"
        }
      ],
      "name": "Activated",
      "type": "event"
    },
    {
      "anonymous": false,
      "inputs": [
        {
          "indexed": true,
          "internalType": "address",
          "name": "to",
          "type": "address"
        },
        {
          "indexed": false,
          "internalType": "uint256",
          "name": "amount",
          "type": "uint256"
        }
      ],
      "name": "AdminWithdraw",
      "type": "event"
    },
    {
      "anonymous": false,
      "inputs": [
        {
          "indexed": false,
          "internalType": "uint256",
          "name": "totalPool",
          "type": "uint256"
        },
        {
          "indexed": false,
          "internalType": "uint256",
          "name": "binary70",
          "type": "uint256"
        },
        {
          "indexed": false,
          "internalType": "uint256",
          "name": "powerLeg30",
          "type": "uint256"
        },
        {
          "indexed": false,
          "internalType": "uint256",
          "name": "totalPairs",
          "type": "uint256"
        }
      ],
      "name": "BinaryIncomeDistributed",
      "type": "event"
    },
    {
      "anonymous": false,
      "inputs": [
        {
          "indexed": true,
          "internalType": "address",
          "name": "user",
          "type": "address"
        },
        {
          "indexed": false,
          "internalType": "uint256",
          "name": "newPairs",
          "type": "uint256"
        },
        {
          "indexed": false,
          "internalType": "uint256",
          "name": "amount",
          "type": "uint256"
        }
      ],
      "name": "BinaryIncomePaid",
      "type": "event"
    },
    {
      "anonymous": false,
      "inputs": [
        {
          "indexed": true,
          "internalType": "address",
          "name": "user",
          "type": "address"
        },
        {
          "indexed": false,
          "internalType": "uint256",
          "name": "boardLevel",
          "type": "uint256"
        },
        {
          "indexed": false,
          "internalType": "uint256",
          "name": "usdtDeducted",
          "type": "uint256"
        }
      ],
      "name": "BoardEntered",
      "type": "event"
    },
    {
      "anonymous": false,
      "inputs": [
        {
          "indexed": true,
          "internalType": "address",
          "name": "newHandler",
          "type": "address"
        }
      ],
      "name": "BoardHandlerUpdated",
      "type": "event"
    },
    {
      "anonymous": false,
      "inputs": [
        {
          "indexed": true,
          "internalType": "address",
          "name": "user",
          "type": "address"
        },
        {
          "indexed": false,
          "internalType": "uint256",
          "name": "usdtAmount",
          "type": "uint256"
        },
        {
          "indexed": false,
          "internalType": "uint256",
          "name": "boardLevel",
          "type": "uint256"
        }
      ],
      "name": "BoardRewardCredited",
      "type": "event"
    },
    {
      "anonymous": false,
      "inputs": [
        {
          "indexed": true,
          "internalType": "address",
          "name": "user",
          "type": "address"
        },
        {
          "indexed": false,
          "internalType": "uint256",
          "name": "amount",
          "type": "uint256"
        }
      ],
      "name": "BtcPoolCredited",
      "type": "event"
    },
    {
      "anonymous": false,
      "inputs": [
        {
          "indexed": true,
          "internalType": "address",
          "name": "user",
          "type": "address"
        },
        {
          "indexed": false,
          "internalType": "uint256",
          "name": "amount",
          "type": "uint256"
        }
      ],
      "name": "BtcPoolWithdrawn",
      "type": "event"
    },
    {
      "anonymous": false,
      "inputs": [
        {
          "indexed": true,
          "internalType": "address",
          "name": "to",
          "type": "address"
        },
        {
          "indexed": true,
          "internalType": "address",
          "name": "from",
          "type": "address"
        },
        {
          "indexed": false,
          "internalType": "uint8",
          "name": "level",
          "type": "uint8"
        },
        {
          "indexed": false,
          "internalType": "uint256",
          "name": "amount",
          "type": "uint256"
        }
      ],
      "name": "LevelIncomePaid",
      "type": "event"
    },
    {
      "anonymous": false,
      "inputs": [
        {
          "indexed": true,
          "internalType": "address",
          "name": "upline",
          "type": "address"
        },
        {
          "indexed": false,
          "internalType": "uint8",
          "name": "level",
          "type": "uint8"
        },
        {
          "indexed": false,
          "internalType": "uint256",
          "name": "amount",
          "type": "uint256"
        }
      ],
      "name": "LevelIncomeSkipped",
      "type": "event"
    },
    {
      "anonymous": false,
      "inputs": [
        {
          "indexed": false,
          "internalType": "address",
          "name": "newToken",
          "type": "address"
        }
      ],
      "name": "MvaultTokenUpdated",
      "type": "event"
    },
    {
      "anonymous": false,
      "inputs": [
        {
          "indexed": true,
          "internalType": "address",
          "name": "user",
          "type": "address"
        },
        {
          "indexed": false,
          "internalType": "uint256",
          "name": "mvtAmount",
          "type": "uint256"
        },
        {
          "indexed": false,
          "internalType": "uint256",
          "name": "usdtNet",
          "type": "uint256"
        },
        {
          "indexed": false,
          "internalType": "uint256",
          "name": "usdtToBtcPool",
          "type": "uint256"
        },
        {
          "indexed": false,
          "internalType": "uint256",
          "name": "usdtToIncome",
          "type": "uint256"
        },
        {
          "indexed": false,
          "internalType": "uint256",
          "name": "usdtToRebirth",
          "type": "uint256"
        }
      ],
      "name": "MvtSold",
      "type": "event"
    },
    {
      "anonymous": false,
      "inputs": [
        {
          "indexed": true,
          "internalType": "address",
          "name": "previousOwner",
          "type": "address"
        },
        {
          "indexed": true,
          "internalType": "address",
          "name": "newOwner",
          "type": "address"
        }
      ],
      "name": "OwnershipTransferred",
      "type": "event"
    },
    {
      "anonymous": false,
      "inputs": [
        {
          "indexed": false,
          "internalType": "uint256",
          "name": "totalPowerLeg30",
          "type": "uint256"
        },
        {
          "indexed": false,
          "internalType": "uint256",
          "name": "totalPowerLegs",
          "type": "uint256"
        }
      ],
      "name": "PowerLegDistributed",
      "type": "event"
    },
    {
      "anonymous": false,
      "inputs": [
        {
          "indexed": true,
          "internalType": "address",
          "name": "user",
          "type": "address"
        },
        {
          "indexed": false,
          "internalType": "uint256",
          "name": "powerLegPoints",
          "type": "uint256"
        },
        {
          "indexed": false,
          "internalType": "uint256",
          "name": "amount",
          "type": "uint256"
        }
      ],
      "name": "PowerLegIncomePaid",
      "type": "event"
    },
    {
      "anonymous": false,
      "inputs": [
        {
          "indexed": true,
          "internalType": "address",
          "name": "user",
          "type": "address"
        }
      ],
      "name": "ProfileUpdated",
      "type": "event"
    },
    {
      "anonymous": false,
      "inputs": [
        {
          "indexed": true,
          "internalType": "address",
          "name": "mainAccount",
          "type": "address"
        },
        {
          "indexed": true,
          "internalType": "address",
          "name": "subAccount",
          "type": "address"
        },
        {
          "indexed": false,
          "internalType": "uint256",
          "name": "rebirthIndex",
          "type": "uint256"
        }
      ],
      "name": "Reborn",
      "type": "event"
    },
    {
      "anonymous": false,
      "inputs": [
        {
          "indexed": true,
          "internalType": "address",
          "name": "user",
          "type": "address"
        },
        {
          "indexed": true,
          "internalType": "address",
          "name": "sponsor",
          "type": "address"
        },
        {
          "indexed": true,
          "internalType": "address",
          "name": "binaryParent",
          "type": "address"
        },
        {
          "indexed": false,
          "internalType": "bool",
          "name": "placeLeft",
          "type": "bool"
        }
      ],
      "name": "Registered",
      "type": "event"
    },
    {
      "anonymous": false,
      "inputs": [
        {
          "indexed": true,
          "internalType": "address",
          "name": "to",
          "type": "address"
        },
        {
          "indexed": false,
          "internalType": "uint256",
          "name": "amount",
          "type": "uint256"
        }
      ],
      "name": "ReserveWithdraw",
      "type": "event"
    },
    {
      "anonymous": false,
      "inputs": [
        {
          "indexed": true,
          "internalType": "address",
          "name": "user",
          "type": "address"
        },
        {
          "indexed": false,
          "internalType": "uint256",
          "name": "amount",
          "type": "uint256"
        }
      ],
      "name": "UsdtWithdrawn",
      "type": "event"
    },
    {
      "inputs": [],
      "name": "ADMIN_ALLOC",
      "outputs": [
        {
          "internalType": "uint256",
          "name": "",
          "type": "uint256"
        }
      ],
      "stateMutability": "view",
      "type": "function"
    },
    {
      "inputs": [],
      "name": "BINARY_ALLOC",
      "outputs": [
        {
          "internalType": "uint256",
          "name": "",
          "type": "uint256"
        }
      ],
      "stateMutability": "view",
      "type": "function"
    },
    {
      "inputs": [],
      "name": "BTC_POOL_RATE",
      "outputs": [
        {
          "internalType": "uint256",
          "name": "",
          "type": "uint256"
        }
      ],
      "stateMutability": "view",
      "type": "function"
    },
    {
      "inputs": [],
      "name": "INCOME_LIMIT",
      "outputs": [
        {
          "internalType": "uint256",
          "name": "",
          "type": "uint256"
        }
      ],
      "stateMutability": "view",
      "type": "function"
    },
    {
      "inputs": [],
      "name": "LEVEL_ALLOC",
      "outputs": [
        {
          "internalType": "uint256",
          "name": "",
          "type": "uint256"
        }
      ],
      "stateMutability": "view",
      "type": "function"
    },
    {
      "inputs": [],
      "name": "PACKAGE_PRICE",
      "outputs": [
        {
          "internalType": "uint256",
          "name": "",
          "type": "uint256"
        }
      ],
      "stateMutability": "view",
      "type": "function"
    },
    {
      "inputs": [],
      "name": "activate",
      "outputs": [],
      "stateMutability": "nonpayable",
      "type": "function"
    },
    {
      "inputs": [],
      "name": "adminPool",
      "outputs": [
        {
          "internalType": "uint256",
          "name": "",
          "type": "uint256"
        }
      ],
      "stateMutability": "view",
      "type": "function"
    },
    {
      "inputs": [
        {
          "internalType": "uint256",
          "name": "",
          "type": "uint256"
        }
      ],
      "name": "allUsers",
      "outputs": [
        {
          "internalType": "address",
          "name": "",
          "type": "address"
        }
      ],
      "stateMutability": "view",
      "type": "function"
    },
    {
      "inputs": [],
      "name": "binaryPool",
      "outputs": [
        {
          "internalType": "uint256",
          "name": "",
          "type": "uint256"
        }
      ],
      "stateMutability": "view",
      "type": "function"
    },
    {
      "inputs": [
        {
          "internalType": "address",
          "name": "",
          "type": "address"
        }
      ],
      "name": "boardEntryCount",
      "outputs": [
        {
          "internalType": "uint256",
          "name": "",
          "type": "uint256"
        }
      ],
      "stateMutability": "view",
      "type": "function"
    },
    {
      "inputs": [],
      "name": "boardHandler",
      "outputs": [
        {
          "internalType": "contract IMvaultBoardMatrix",
          "name": "",
          "type": "address"
        }
      ],
      "stateMutability": "view",
      "type": "function"
    },
    {
      "inputs": [
        {
          "internalType": "address",
          "name": "_user",
          "type": "address"
        }
      ],
      "name": "canEnterBoard",
      "outputs": [
        {
          "internalType": "bool",
          "name": "eligible",
          "type": "bool"
        },
        {
          "internalType": "uint256",
          "name": "btcBalance",
          "type": "uint256"
        },
        {
          "internalType": "uint256",
          "name": "boardPrice",
          "type": "uint256"
        }
      ],
      "stateMutability": "view",
      "type": "function"
    },
    {
      "inputs": [
        {
          "internalType": "address",
          "name": "user",
          "type": "address"
        }
      ],
      "name": "canRebirth",
      "outputs": [
        {
          "internalType": "bool",
          "name": "eligible",
          "type": "bool"
        },
        {
          "internalType": "uint256",
          "name": "poolBalance",
          "type": "uint256"
        }
      ],
      "stateMutability": "view",
      "type": "function"
    },
    {
      "inputs": [
        {
          "internalType": "address",
          "name": "_user",
          "type": "address"
        },
        {
          "internalType": "uint256",
          "name": "_usdtAmount",
          "type": "uint256"
        },
        {
          "internalType": "uint256",
          "name": "_boardLevel",
          "type": "uint256"
        }
      ],
      "name": "creditBoardReward",
      "outputs": [],
      "stateMutability": "nonpayable",
      "type": "function"
    },
    {
      "inputs": [
        {
          "internalType": "uint256",
          "name": "offset",
          "type": "uint256"
        },
        {
          "internalType": "uint256",
          "name": "limit",
          "type": "uint256"
        }
      ],
      "name": "distributeBinaryIncome",
      "outputs": [],
      "stateMutability": "nonpayable",
      "type": "function"
    },
    {
      "inputs": [
        {
          "internalType": "uint256",
          "name": "offset",
          "type": "uint256"
        },
        {
          "internalType": "uint256",
          "name": "limit",
          "type": "uint256"
        }
      ],
      "name": "distributePowerLeg",
      "outputs": [],
      "stateMutability": "nonpayable",
      "type": "function"
    },
    {
      "inputs": [],
      "name": "enterBoardPool",
      "outputs": [],
      "stateMutability": "nonpayable",
      "type": "function"
    },
    {
      "inputs": [],
      "name": "getAllUsersCount",
      "outputs": [
        {
          "internalType": "uint256",
          "name": "",
          "type": "uint256"
        }
      ],
      "stateMutability": "view",
      "type": "function"
    },
    {
      "inputs": [
        {
          "internalType": "uint256",
          "name": "_level",
          "type": "uint256"
        }
      ],
      "name": "getBoardCurrentIndex",
      "outputs": [
        {
          "internalType": "uint256",
          "name": "",
          "type": "uint256"
        }
      ],
      "stateMutability": "view",
      "type": "function"
    },
    {
      "inputs": [
        {
          "internalType": "uint256",
          "name": "_level",
          "type": "uint256"
        },
        {
          "internalType": "uint256",
          "name": "_index",
          "type": "uint256"
        }
      ],
      "name": "getBoardMatrixInfo",
      "outputs": [
        {
          "internalType": "address",
          "name": "owner",
          "type": "address"
        },
        {
          "internalType": "uint256",
          "name": "filledCount",
          "type": "uint256"
        },
        {
          "internalType": "bool",
          "name": "completed",
          "type": "bool"
        }
      ],
      "stateMutability": "view",
      "type": "function"
    },
    {
      "inputs": [
        {
          "internalType": "uint256",
          "name": "_level",
          "type": "uint256"
        }
      ],
      "name": "getBoardPrice",
      "outputs": [
        {
          "internalType": "uint256",
          "name": "",
          "type": "uint256"
        }
      ],
      "stateMutability": "view",
      "type": "function"
    },
    {
      "inputs": [
        {
          "internalType": "uint256",
          "name": "_level",
          "type": "uint256"
        }
      ],
      "name": "getBoardQueueLength",
      "outputs": [
        {
          "internalType": "uint256",
          "name": "",
          "type": "uint256"
        }
      ],
      "stateMutability": "view",
      "type": "function"
    },
    {
      "inputs": [
        {
          "internalType": "address",
          "name": "u",
          "type": "address"
        }
      ],
      "name": "getBtcPoolInfo",
      "outputs": [
        {
          "internalType": "uint256",
          "name": "btcPoolBalance",
          "type": "uint256"
        },
        {
          "internalType": "uint256",
          "name": "totalBtcEarned",
          "type": "uint256"
        }
      ],
      "stateMutability": "view",
      "type": "function"
    },
    {
      "inputs": [
        {
          "internalType": "address",
          "name": "u",
          "type": "address"
        }
      ],
      "name": "getCurrentBinaryPairs",
      "outputs": [
        {
          "internalType": "uint256",
          "name": "currentPairs",
          "type": "uint256"
        },
        {
          "internalType": "uint256",
          "name": "newPairs",
          "type": "uint256"
        }
      ],
      "stateMutability": "view",
      "type": "function"
    },
    {
      "inputs": [],
      "name": "getMvtContractBalance",
      "outputs": [
        {
          "internalType": "uint256",
          "name": "",
          "type": "uint256"
        }
      ],
      "stateMutability": "view",
      "type": "function"
    },
    {
      "inputs": [],
      "name": "getMvtPrice",
      "outputs": [
        {
          "internalType": "uint256",
          "name": "buyPrice",
          "type": "uint256"
        },
        {
          "internalType": "uint256",
          "name": "sellPrice",
          "type": "uint256"
        }
      ],
      "stateMutability": "view",
      "type": "function"
    },
    {
      "inputs": [],
      "name": "getPoolBalances",
      "outputs": [
        {
          "internalType": "uint256",
          "name": "binary",
          "type": "uint256"
        },
        {
          "internalType": "uint256",
          "name": "reserve",
          "type": "uint256"
        },
        {
          "internalType": "uint256",
          "name": "admin",
          "type": "uint256"
        }
      ],
      "stateMutability": "view",
      "type": "function"
    },
    {
      "inputs": [
        {
          "internalType": "address",
          "name": "_user",
          "type": "address"
        }
      ],
      "name": "getProfile",
      "outputs": [
        {
          "internalType": "string",
          "name": "displayName",
          "type": "string"
        },
        {
          "internalType": "string",
          "name": "email",
          "type": "string"
        },
        {
          "internalType": "string",
          "name": "phone",
          "type": "string"
        },
        {
          "internalType": "string",
          "name": "country",
          "type": "string"
        },
        {
          "internalType": "bool",
          "name": "profileSet",
          "type": "bool"
        }
      ],
      "stateMutability": "view",
      "type": "function"
    },
    {
      "inputs": [
        {
          "internalType": "address",
          "name": "_user",
          "type": "address"
        }
      ],
      "name": "getUserBoardStats",
      "outputs": [
        {
          "internalType": "uint256",
          "name": "entries",
          "type": "uint256"
        },
        {
          "internalType": "uint256",
          "name": "totalRewards",
          "type": "uint256"
        }
      ],
      "stateMutability": "view",
      "type": "function"
    },
    {
      "inputs": [
        {
          "internalType": "address",
          "name": "u",
          "type": "address"
        }
      ],
      "name": "getUserInfo",
      "outputs": [
        {
          "internalType": "bool",
          "name": "isRegistered",
          "type": "bool"
        },
        {
          "internalType": "bool",
          "name": "isActive",
          "type": "bool"
        },
        {
          "internalType": "address",
          "name": "sponsor",
          "type": "address"
        },
        {
          "internalType": "uint256",
          "name": "directCount",
          "type": "uint256"
        },
        {
          "internalType": "address",
          "name": "binaryParent",
          "type": "address"
        },
        {
          "internalType": "bool",
          "name": "placedLeft",
          "type": "bool"
        },
        {
          "internalType": "address",
          "name": "leftChild",
          "type": "address"
        },
        {
          "internalType": "address",
          "name": "rightChild",
          "type": "address"
        },
        {
          "internalType": "uint256",
          "name": "leftSubUsers",
          "type": "uint256"
        },
        {
          "internalType": "uint256",
          "name": "rightSubUsers",
          "type": "uint256"
        },
        {
          "internalType": "uint256",
          "name": "mvtBalance",
          "type": "uint256"
        },
        {
          "internalType": "uint256",
          "name": "totalReceived",
          "type": "uint256"
        },
        {
          "internalType": "uint256",
          "name": "totalSold",
          "type": "uint256"
        },
        {
          "internalType": "uint256",
          "name": "incomeLimit",
          "type": "uint256"
        },
        {
          "internalType": "uint256",
          "name": "usdtBalance",
          "type": "uint256"
        },
        {
          "internalType": "uint256",
          "name": "rebirthPool",
          "type": "uint256"
        },
        {
          "internalType": "uint256",
          "name": "btcPoolBalance",
          "type": "uint256"
        },
        {
          "internalType": "uint256",
          "name": "powerLegPoints",
          "type": "uint256"
        },
        {
          "internalType": "uint256",
          "name": "matchedPairs",
          "type": "uint256"
        },
        {
          "internalType": "address",
          "name": "mainAccount",
          "type": "address"
        },
        {
          "internalType": "uint256",
          "name": "rebirthCount",
          "type": "uint256"
        },
        {
          "internalType": "uint256",
          "name": "joinedAt",
          "type": "uint256"
        }
      ],
      "stateMutability": "view",
      "type": "function"
    },
    {
      "inputs": [],
      "name": "mvaultToken",
      "outputs": [
        {
          "internalType": "contract IMvaultToken",
          "name": "",
          "type": "address"
        }
      ],
      "stateMutability": "view",
      "type": "function"
    },
    {
      "inputs": [],
      "name": "owner",
      "outputs": [
        {
          "internalType": "address",
          "name": "",
          "type": "address"
        }
      ],
      "stateMutability": "view",
      "type": "function"
    },
    {
      "inputs": [
        {
          "internalType": "address",
          "name": "subAccount",
          "type": "address"
        },
        {
          "internalType": "bool",
          "name": "placeLeft",
          "type": "bool"
        }
      ],
      "name": "rebirth",
      "outputs": [],
      "stateMutability": "nonpayable",
      "type": "function"
    },
    {
      "inputs": [
        {
          "internalType": "address",
          "name": "sponsor",
          "type": "address"
        },
        {
          "internalType": "address",
          "name": "binaryParent",
          "type": "address"
        },
        {
          "internalType": "bool",
          "name": "placeLeft",
          "type": "bool"
        }
      ],
      "name": "register",
      "outputs": [],
      "stateMutability": "nonpayable",
      "type": "function"
    },
    {
      "inputs": [],
      "name": "renounceOwnership",
      "outputs": [],
      "stateMutability": "nonpayable",
      "type": "function"
    },
    {
      "inputs": [],
      "name": "reservePool",
      "outputs": [
        {
          "internalType": "uint256",
          "name": "",
          "type": "uint256"
        }
      ],
      "stateMutability": "view",
      "type": "function"
    },
    {
      "inputs": [
        {
          "internalType": "uint256",
          "name": "amount",
          "type": "uint256"
        }
      ],
      "name": "sellMvt",
      "outputs": [],
      "stateMutability": "nonpayable",
      "type": "function"
    },
    {
      "inputs": [
        {
          "internalType": "address",
          "name": "_boardHandler",
          "type": "address"
        }
      ],
      "name": "setBoardHandler",
      "outputs": [],
      "stateMutability": "nonpayable",
      "type": "function"
    },
    {
      "inputs": [
        {
          "internalType": "address",
          "name": "_mvaultToken",
          "type": "address"
        }
      ],
      "name": "setMvaultToken",
      "outputs": [],
      "stateMutability": "nonpayable",
      "type": "function"
    },
    {
      "inputs": [
        {
          "internalType": "string",
          "name": "_displayName",
          "type": "string"
        },
        {
          "internalType": "string",
          "name": "_email",
          "type": "string"
        },
        {
          "internalType": "string",
          "name": "_phone",
          "type": "string"
        },
        {
          "internalType": "string",
          "name": "_country",
          "type": "string"
        }
      ],
      "name": "setProfile",
      "outputs": [],
      "stateMutability": "nonpayable",
      "type": "function"
    },
    {
      "inputs": [
        {
          "internalType": "address",
          "name": "",
          "type": "address"
        }
      ],
      "name": "totalBoardRewardsEarned",
      "outputs": [
        {
          "internalType": "uint256",
          "name": "",
          "type": "uint256"
        }
      ],
      "stateMutability": "view",
      "type": "function"
    },
    {
      "inputs": [],
      "name": "totalUsers",
      "outputs": [
        {
          "internalType": "uint256",
          "name": "",
          "type": "uint256"
        }
      ],
      "stateMutability": "view",
      "type": "function"
    },
    {
      "inputs": [
        {
          "internalType": "address",
          "name": "newOwner",
          "type": "address"
        }
      ],
      "name": "transferOwnership",
      "outputs": [],
      "stateMutability": "nonpayable",
      "type": "function"
    },
    {
      "inputs": [],
      "name": "usdtToken",
      "outputs": [
        {
          "internalType": "contract IERC20",
          "name": "",
          "type": "address"
        }
      ],
      "stateMutability": "view",
      "type": "function"
    },
    {
      "inputs": [
        {
          "internalType": "address",
          "name": "",
          "type": "address"
        }
      ],
      "name": "users",
      "outputs": [
        {
          "internalType": "bool",
          "name": "isRegistered",
          "type": "bool"
        },
        {
          "internalType": "bool",
          "name": "isActive",
          "type": "bool"
        },
        {
          "internalType": "address",
          "name": "sponsor",
          "type": "address"
        },
        {
          "internalType": "uint256",
          "name": "directCount",
          "type": "uint256"
        },
        {
          "internalType": "address",
          "name": "binaryParent",
          "type": "address"
        },
        {
          "internalType": "bool",
          "name": "placedLeft",
          "type": "bool"
        },
        {
          "internalType": "address",
          "name": "leftChild",
          "type": "address"
        },
        {
          "internalType": "address",
          "name": "rightChild",
          "type": "address"
        },
        {
          "internalType": "uint256",
          "name": "leftSubUsers",
          "type": "uint256"
        },
        {
          "internalType": "uint256",
          "name": "rightSubUsers",
          "type": "uint256"
        },
        {
          "internalType": "uint256",
          "name": "matchedPairs",
          "type": "uint256"
        },
        {
          "internalType": "uint256",
          "name": "mvtBalance",
          "type": "uint256"
        },
        {
          "internalType": "uint256",
          "name": "totalReceived",
          "type": "uint256"
        },
        {
          "internalType": "uint256",
          "name": "totalSold",
          "type": "uint256"
        },
        {
          "internalType": "uint256",
          "name": "incomeLimit",
          "type": "uint256"
        },
        {
          "internalType": "uint256",
          "name": "usdtBalance",
          "type": "uint256"
        },
        {
          "internalType": "uint256",
          "name": "rebirthPool",
          "type": "uint256"
        },
        {
          "internalType": "uint256",
          "name": "totalUsdtEarned",
          "type": "uint256"
        },
        {
          "internalType": "uint256",
          "name": "btcPoolBalance",
          "type": "uint256"
        },
        {
          "internalType": "uint256",
          "name": "totalBtcEarned",
          "type": "uint256"
        },
        {
          "internalType": "uint256",
          "name": "powerLegPoints",
          "type": "uint256"
        },
        {
          "internalType": "address",
          "name": "mainAccount",
          "type": "address"
        },
        {
          "internalType": "uint256",
          "name": "rebirthCount",
          "type": "uint256"
        },
        {
          "internalType": "uint256",
          "name": "joinedAt",
          "type": "uint256"
        },
        {
          "internalType": "string",
          "name": "displayName",
          "type": "string"
        },
        {
          "internalType": "string",
          "name": "email",
          "type": "string"
        },
        {
          "internalType": "string",
          "name": "phone",
          "type": "string"
        },
        {
          "internalType": "string",
          "name": "country",
          "type": "string"
        },
        {
          "internalType": "bool",
          "name": "profileSet",
          "type": "bool"
        }
      ],
      "stateMutability": "view",
      "type": "function"
    },
    {
      "inputs": [
        {
          "internalType": "address",
          "name": "to",
          "type": "address"
        },
        {
          "internalType": "uint256",
          "name": "amount",
          "type": "uint256"
        }
      ],
      "name": "withdrawAdminPool",
      "outputs": [],
      "stateMutability": "nonpayable",
      "type": "function"
    },
    {
      "inputs": [
        {
          "internalType": "uint256",
          "name": "amount",
          "type": "uint256"
        }
      ],
      "name": "withdrawBtcPool",
      "outputs": [],
      "stateMutability": "nonpayable",
      "type": "function"
    },
    {
      "inputs": [
        {
          "internalType": "address",
          "name": "to",
          "type": "address"
        },
        {
          "internalType": "uint256",
          "name": "amount",
          "type": "uint256"
        }
      ],
      "name": "withdrawReservePool",
      "outputs": [],
      "stateMutability": "nonpayable",
      "type": "function"
    },
    {
      "inputs": [
        {
          "internalType": "uint256",
          "name": "amount",
          "type": "uint256"
        }
      ],
      "name": "withdrawUsdt",
      "outputs": [],
      "stateMutability": "nonpayable",
      "type": "function"
    }
  ],
  "bytecode": "0x60a0346200016757601f62003f3e38819003918201601f19168301916001600160401b038311848410176200016c57808492604094855283398101031262000167576200005a6020620000528362000182565b920162000182565b9033156200014e576000549160018060a01b03199233848216176000556040519060018060a01b03938491823391167f8be0079c531659141344cd1fd0a4f28419497f9722a3daafe3b4186f6b6457e0600080a360017f9b779b17422d0df92223018b32b4d1fa46e071723d6817e2486d003becc55f005516908115801562000143575b62000134575060805216906001541617600155604051613da6908162000198823960805181818161070c01528181610a5b01528181610ca60152818161111701528181611d71015281816129560152612efa0152f35b63d92e233d60e01b8152600490fd5b5083831615620000de565b604051631e4fbdf760e01b815260006004820152602490fd5b600080fd5b634e487b7160e01b600052604160045260246000fd5b51906001600160a01b0382168203620001675756fe61032080604052600436101561001457600080fd5b600090813560e01c9081630266f04414612a5257508063039ccc2614612a2e57806303c3ecb7146129e85780630f15f4c0146128ec5780630f53a4701461282c5780631ce5e894146127ba5780631f6259d5146127915780632335821b146127585780632808bc8d146126945780632d641f081461265757806338abfc41146126395780633ac272c21461261a57806344e374d514610c1857806347cd5191146125fb57806352375bb1146125cc57806355509c8f14612001578063634f627e14611ceb5780636386c1c714611b1e57806368ddb2b514611a46578063715018a6146119fe5780637753784414610c185780637f1b4064146119e05780638a8f04291461179b5780638da5cb5b1461177457806392446e301461175857806394915dd0146114755780639499a3511461143c578063a2bdedf4146113f8578063a87430ba14611146578063a98ad46c14611101578063aa33f5d514610d8f578063aa39375714610d6b578063b58e027814610c3b578063b86a1fb214610c1d578063be648bdb14610c18578063bff1f9e114610bfa578063c9d484cf14610bd1578063ce8292f514610b3d578063d3635a02146109f0578063d4a902861461091e578063e3ba9bda146108b4578063e4093a661461064e578063e51cb53014610600578063eb63e1c2146105d9578063ec50324a146104da578063f00b0093146104a1578063f0b7b9dc1461037f578063f24c536a14610306578063f2fde38b146102905763fb72ca351461024857600080fd5b3461028d57602036600319011261028d576040906001600160a01b0361026c612a6e565b168152600b602052818082205491600c602052205482519182526020820152f35b80fd5b503461028d57602036600319011261028d576102aa612a6e565b6102b2612c6a565b6001600160a01b039081169081156102ed576000548260018060a01b031982161760005516600080516020613d11833981519152600080a380f35b604051631e4fbdf760e01b815260048101849052602490fd5b503461028d57602036600319011261028d576040906001600160a01b0361032b612a6e565b1681526003602052818120906007600583015460068401548082106000146103775750925b01548083111561037157610365915082612ccf565b82519182526020820152f35b50610365565b905092610350565b503461028d57606036600319011261028d57610399612a6e565b602435906103a5612d29565b6002546001600160a01b03919082163303610468577f2393acb59b41dd645f68fe97bab0deba2a21b99efc69761e9b2762f11bbbe79d9160409116926103ec841515612d59565b6103f7811515612d59565b8385526003602052600c82862001610410828254612d8a565b90558385526003602052600e8286200161042b828254612d8a565b9055838552600c602052818520610443828254612d8a565b905581519081526044356020820152a26001600080516020613d518339815191525580f35b60405162461bcd60e51b81526020600482015260116024820152702737ba103137b0b932103430b7323632b960791b6044820152606490fd5b503461028d57602036600319011261028d576020906040906001600160a01b036104c9612a6e565b168152600b83522054604051908152f35b503461028d57604036600319011261028d576104f4612a6e565b60243590610500612c6a565b6001600160a01b03169081156105c75760075481811061058b57816105487f0529afc4538720fe0b3eadc40486369ab962002d72fead1387b300c66073e7bf93602093612ccf565b6007558385526003825260086040862001610564828254612d8a565b9055838552600382526009604086200161057f828254612d8a565b9055604051908152a280f35b60405162461bcd60e51b8152602060048201526014602482015273115e18d959591cc81c995cd95c9d99481c1bdbdb60621b6044820152606490fd5b60405163d92e233d60e01b8152600490fd5b503461028d57602036600319011261028d5760206105f8600435613bd3565b604051908152f35b503461028d57602036600319011261028d57604090600d9082906001600160a01b0361062a612a6e565b168152600360205220015481519068070c1cc73b00c8000081101582526020820152f35b503461028d578060031936011261028d57610667612d29565b6002546001600160a01b039081169081156108a2576024903384526020926003845283604086209161069f60ff845460081c16612c96565b6040516347cd519160e01b81526001600482015294859182905afa92831561085057859361086d575b50600f01805483811061085b57836106df91612ccf565b905561070683838360025416604051938492839263a9059cbb60e01b845260048401612cff565b038188867f0000000000000000000000000000000000000000000000000000000000000000165af1908115610850578591610817575b5015610805578390338252600b8452604082206107598154612d1a565b905560025416803b156108015781809160446040518094819363686a38bd60e01b8352336004840152600160248401525af180156107f6576107de575b505060405191600183528201527f4e755dd64e53a9f7a5882e2e32eb64718c2273de11e017bd47129b9fe2716d7c60403392a26001600080516020613d518339815191525580f35b6107e790612b8e565b6107f2578238610796565b8280fd5b6040513d84823e3d90fd5b5080fd5b6040516312171d8360e31b8152600490fd5b90508381813d8311610849575b61082e8183612ba1565b810103126108455761083f90612cf2565b3861073c565b8480fd5b503d610824565b6040513d87823e3d90fd5b604051630856d68760e11b8152600490fd5b9092508381813d831161089b575b6108858183612ba1565b81010312610896575191600f6106c8565b600080fd5b503d61087b565b60405163632100f760e11b8152600490fd5b503461028d57602036600319011261028d576108ce612a6e565b6108d6612c6a565b6001600160a01b031680156105c757600280546001600160a01b031916821790557f49424f87d81e4374ee3e8d1cf7b880966981a3cf6a7ac1d7a66c13d91756fccc8280a280f35b503461028d5761092d36612ac4565b90606060018060a01b039260448460025416936040519485938492636a54814360e11b8452600484015260248301525afa9081156109e55783928491859361098a575b506060945060405193168352602083015215156040820152f35b93509150506060823d82116109dd575b816109a760609383612ba1565b810103126107f257815181811681036109d957606093506109cf604060208501519401612cf2565b9092909138610970565b8380fd5b3d915061099a565b6040513d85823e3d90fd5b503461028d576020806003193601126108015760043590610a0f612d29565b8115610b2b5733835260038152600c60408420018054838110610b195783610a3691612ccf565b905560405163a9059cbb60e01b8152818180610a56863360048401612cff565b0381877f00000000000000000000000000000000000000000000000000000000000000006001600160a01b03165af1908115610b0e578491610ad9575b5015610805577fbdd3f02d2a57fb53c1156f98470b61cb60712d485c27c36a49b1263dabcde201906040519283523392a26001600080516020613d518339815191525580f35b90508181813d8311610b07575b610af08183612ba1565b810103126109d957610b0190612cf2565b38610a93565b503d610ae6565b6040513d86823e3d90fd5b60405163b55c1bad60e01b8152600490fd5b604051631f2a200560e01b8152600490fd5b503461028d578060031936011261028d576001546040516370a0823160e01b81523060048201529190602090839060249082906001600160a01b03165afa908115610bc55790610b93575b602090604051908152f35b506020813d8211610bbd575b81610bac60209383612ba1565b810103126108965760209051610b88565b3d9150610b9f565b604051903d90823e3d90fd5b503461028d578060031936011261028d576002546040516001600160a01b039091168152602090f35b503461028d578060031936011261028d576020600554604051908152f35b612ada565b503461028d578060031936011261028d576020600854604051908152f35b503461028d576020806003193601126108015760043590610c5a612d29565b8115610b2b5733835260038152600f60408420018054838110610d595783610c8191612ccf565b905560405163a9059cbb60e01b8152818180610ca1863360048401612cff565b0381877f00000000000000000000000000000000000000000000000000000000000000006001600160a01b03165af1908115610b0e578491610d24575b5015610805577f12701e4764b73009ab9826933c421483e4280410091fcc760515e0fa99fa766b906040519283523392a26001600080516020613d518339815191525580f35b90508181813d8311610d52575b610d3b8183612ba1565b810103126109d957610d4c90612cf2565b38610cde565b503d610d31565b604051636dae861760e11b8152600490fd5b503461028d578060031936011261028d5760206040516815245655b1025800008152f35b503461028d57606036600319011261028d57610da9612a6e565b6024356001600160a01b03811690036108965760443515156044350361089657338252600360205260ff6040832054166110ef57600554610ed657336000908152600360205260409020805461ff01600160b01b03191660011781556002810180546001600160a81b03191690556012810180546001600160a01b031916905542601490910155600454600160401b811015610ec057806001610e4f9201600455612b23565b81546001600160a01b0360039290921b91821b19163390911b179055600554610e7790612d1a565b6005555b604051604435151581526001600160a01b03602435811692169033907f34ff37874d7443037a85c6f390fe14f2ae3e8767355de0e63891ad4367c2753990602090a480f35b634e487b7160e01b600052604160045260246000fd5b6001600160a01b0381168083526003602052604083205460ff16156110dd576024356001600160a01b03161515806110bc575b156110b6576024355b60443580611093575b61105e576044351580611070575b61105e57336000908152600360205260409020805461ff01600160b01b031916601085901b62010000600160b01b03161760011781556002810180546001600160a81b0319166001600160a01b03909316928317604435151560a01b60ff60a01b161790556012810180546001600160a01b031990811690915542601490920191909155600454909190600160401b811015610ec057806001610fcf9201600455612b23565b81546001600160a01b0360039290921b91821b19163390911b179055600554610ff790612d1a565b600555604435156110425784526003602052600360408520019033908254161790555b82526003602052600160408320016110328154612d1a565b905561103d33612d97565b610e7b565b845260036020526004604085200190339082541617905561101a565b60405163d5dd5c3d60e01b8152600490fd5b506001600160a01b03818116855260036020526040852060040154161515610f29565b506001600160a01b03818116855260036020819052604086200154161515610f1b565b81610f12565b506024356001600160a01b031683526003602052604083205460ff16610f09565b604051632f212e0d60e11b8152600490fd5b604051630ea075bf60e21b8152600490fd5b503461028d578060031936011261028d576040517f00000000000000000000000000000000000000000000000000000000000000006001600160a01b03168152602090f35b503461028d57602036600319011261028d576040906001600160a01b0361116b612a6e565b1681526003602052208060a05280808080808080808080808061122e6015600f600e600d600c600b600a600960086007600660058d549d60018101546102605260028101546101e05260018060a01b0360038201541661016052600460018060a01b03910154169e01549e01549e01549e01549e01549e01549e01549e01549e01549e01549e01549e60108101546102205260118101546102c05260018060a01b036012820154166101c052601381015460c05260148101546101805201612bc4565b61020052611240601660a05101612bc4565b61030052611252601760a05101612bc4565b61028052611264601860a05101612bc4565b6101005260ff601960a0510154166102a0526040518060e05260ff82161515905260ff8160081c161515602060e051015260018060a01b039060101c16604060e051015261026051606060e051015260018060a01b036101e05116608060e051015260ff6101e05160a01c16151560a060e05101526101605160c060e051015260e08051015261010060e051015261012060e051015261014060e051015261016060e051015261018060e05101526101a060e05101526101c060e05101526101e060e051015261020060e051015261022060e051015261024060e05101526102205161026060e05101526102c05161028060e05101526101c0516102a060e051015260c0516102c060e0510152610180516102e060e05101526113e16113cc6113b76113a26103a08061030060e051015260e0510161020051612a84565b60e05161032081830391015261030051612a84565b60e05161034081830391015261028051612a84565b60e05161036081830391015261010051612a84565b6102a051151561038060e051015260e05180910390f35b503461028d57602036600319011261028d576004359060045482101561028d57602061142383612b23565b905460405160039290921b1c6001600160a01b03168152f35b503461028d57602036600319011261028d57606061146061145b612a6e565b613c57565b90604051921515835260208301526040820152f35b503461028d57604036600319011261028d5761148f612a6e565b602435908115158203610896576114a4612d29565b6001600160a01b03818116929083156105c75733855260039260209380855260408720918254916114da60ff8460081c16612c96565b600d840180549068070c1cc73b00c80000808310611746578a8c52838a5260ff60408d2054166117015768070c1cc73b00c7ffff1983019283116116ed578083106116e25761152a908093612ccf565b9055600c850161153b828254612d8a565b905561154c600e8601918254612d8a565b90556815245655b102580000600b85015561156d858460101c1696336135c5565b60008a8152838a5260409020805461ff01600160b01b03191662010000600160b01b039096169590951760011785556002850180546001600160a81b03191692881692831782151560a01b60ff60a01b161790556012850180546001600160a01b0319908116331790915542601490960195909555600454909790949091600160401b861015610ec0577f30016ed357540281a6cff6143637e72b48e105d85d15df66b0aaffbd23790240986013988c61163089600161167e9b01600455612b23565b9092835491891b92831b921b191617905561164c600554612d1a565b600555156116c9578b52828952898360408d2001918254161790555b806116ab575b505061167981612d97565b612e8d565b019161168a8354612d1a565b8093556040519283523392a36001600080516020613d518339815191525580f35b89528652600160408920016116c08154612d1a565b9055388061166e565b8b5282895289600460408d200191825416179055611668565b5061152a8280612ccf565b634e487b7160e01b8c52601160045260248cfd5b60405162461bcd60e51b8152600481018b9052601e60248201527f5375622d6163636f756e7420616c7265616479207265676973746572656400006044820152606490fd5b6040516307db32bd60e31b8152600490fd5b503461028d578060031936011261028d576020604051600a8152f35b503461028d578060031936011261028d57546040516001600160a01b039091168152602090f35b503461028d576117aa36612ac4565b6117b2612c6a565b6117ba612d29565b60ff600a5416156119ce576117cf9082612d8a565b6004548082116119c6575b508290825b81811061198657506009908154938315158061197d575b1561196557805b8281106118a25750908592915b81811061186457837f7f4a5b69bea14a6fc05326671a02e90d4a88855c83a18529c260057b1bf61a856040888884885560ff19600a5416600a5582519182526020820152a16001600080516020613d518339815191525580f35b6118999192935061187481612b23565b9054600391821b1c6001600160a01b0316885260205260408720601101879055612d1a565b9085929161180a565b8086886118b161195394612b23565b9054600391821b1c6001600160a01b031680835260208281526040842060110154919492908a8c8415611958577fb05abf391bcc5d117d31727729f0da5b0e3eb5f91a478372995efa128696c4069661191760409792611912888a95612e36565b612e49565b9489825280855260088383200161192f878254612d8a565b905589825284522001611943838254612d8a565b90558351928352820152a2612d1a565b6117fd565b5050505050505050612d1a565b61197185600854612d8a565b6008559085929161180a565b508415156117f6565b916119bb6119c19161199785612b23565b9054600391821b1c6001600160a01b03168852602052604087206011015490612d8a565b92612d1a565b6117df565b9050386117da565b60405163418826bf60e11b8152600490fd5b503461028d578060031936011261028d576020600654604051908152f35b503461028d578060031936011261028d57611a17612c6a565b600080546001600160a01b0319811682556001600160a01b0316600080516020613d118339815191528280a380f35b503461028d578060031936011261028d57600154604051623144bd60e31b81526001600160a01b039091169160208083600481875afa9283156107f6578293611aed575b5080600494604051958680926310f4cba760e21b82525afa918215610bc55791611abd575b604080945051928352820152f35b80915083813d8311611ae6575b611ad48183612ba1565b81010312610896576040925190611aaf565b503d611aca565b9392508084813d8311611b17575b611b058183612ba1565b81010312610896579251919280611a8a565b503d611afb565b503461028d57602036600319011261028d576040906001600160a01b03611b43612a6e565b16815260036020522080808080808080808080808080546001820154610240526002820154608052601460076011600f600d600c600b600a60096008600660058d600360018060a01b03910154169d600460018060a01b03910154169e01549e01549e01549e01549e01549e01549e01549e01549e01549e01549e01549e60018060a01b036012820154166101405260138101546101205201546101a052604051806102e05260ff82161515905260ff8160081c16151560206102e051015260018060a01b039060101c1660406102e05101526102405160606102e051015260018060a01b036080511660806102e051015260ff60805160a01c16151560a06102e051015260c06102e051015260e06102e05101526101006102e05101526101206102e05101526101406102e05101526101606102e05101526101806102e05101526101a06102e05101526101c06102e05101526101e06102e05101526102006102e05101526102206102e05101526102406102e0510152610140516102606102e0510152610120516102806102e05101526101a0516102a06102e05101526102c06102e051f35b503461028d576020806003193601126108015760043590611d0a612d29565b8115610b2b5733835260038152604083209060ff825460081c1615611fef57600882018054848110611fdd5784611d4091612ccf565b9055600a8201611d51848254612d8a565b90556040516370a0823160e01b8082523060048301526001600160a01b037f0000000000000000000000000000000000000000000000000000000000000000811692919087908584602481885afa9384156107f6578294611fae575b5060015416803b156108015781906024604051809481936372424d9960e11b83528c60048401525af18015611fa357611f90575b50839060246040518095819382523060048301525afa8015611f85578690611f56575b611e0e9250612ccf565b91600a8302838104600a1484151715611f42577f8f7262d5a031d4d671e1fdb0cddcd26d37185226f9e82f2f18877141ac1963eb939291611e566064611f1793048095612ccf565b92600f8201611e66868254612d8a565b905560108201611e77868254612d8a565b90557f2b1d2104e84dd4dabb0cca024171f783ab1e1c9dc1af9d60a2361596653a99c4604051918683523392a2600b8101805491888315611f355750600d9083861115611f2f57835b8093611ee782611ed0818b612ccf565b97600c8601611ee0838254612d8a565b9055612ccf565b9055611ef8600e8301918254612d8a565b90555b01611f07838254612d8a565b9055604051948594339886612e69565b0390a26001600080516020613d518339815191525580f35b85611ec0565b91509150600d8492611efb565b634e487b7160e01b86526011600452602486fd5b508282813d8311611f7e575b611f6c8183612ba1565b8101031261089657611e0e9151611e04565b503d611f62565b6040513d88823e3d90fd5b96611f9c859298612b8e565b9690611de1565b6040513d8a823e3d90fd5b9093508581813d8311611fd6575b611fc68183612ba1565b8101031261080157519238611dad565b503d611fbc565b60405163208975e760e21b8152600490fd5b60405163aba4733960e01b8152600490fd5b503461028d57608036600319011261028d576004356001600160401b03811161080157612032903690600401612af6565b91906024356001600160401b0381116107f257612053903690600401612af6565b6044356001600160401b03811161084557612072903690600401612af6565b90916064356001600160401b0381116125c857612093903690600401612af6565b949097338852600360205260ff6040892054161561259257338852600360205260408820966001600160401b03821161257e5781906120d560158a0154612b54565b601f811161252e575b508990601f83116001146124c2578a926124b7575b50508160011b916000199060031b1c19161760158701555b6001600160401b0382116124a35781906121286016880154612b54565b601f8111612450575b508790601f83116001146123e45788926123d9575b50508160011b916000199060031b1c19161760168501555b60178401916001600160401b0382116123c557819061217d8454612b54565b601f8111612375575b508690601f831160011461230f578792612304575b50508160011b916000199060031b1c19161790555b60188201906001600160401b0381116122f0576121cd8254612b54565b601f81116122ab575b5083601f8211600114612244578190859660199692612239575b50508160011b916000199060031b1c19161790555b01805460ff19166001179055337fbe4ec58a792f909e102ee3d745d0c3b34a4d437a54d903c4db098d31c556422f8280a280f35b0135905038806121f0565b8285526020852090601f198316865b8181106122935750968392916001946019989910612279575b505050811b019055612205565b0135600019600384901b60f8161c1916905538808061226c565b9192602060018192868c013581550194019201612253565b82855260208520601f830160051c810191602084106122e6575b601f0160051c01905b8181106122db57506121d6565b8581556001016122ce565b90915081906122c5565b634e487b7160e01b84526041600452602484fd5b01359050388061219b565b84885260208820925090601f198416885b81811061235d5750908460019594939210612343575b505050811b0190556121b0565b0135600019600384901b60f8161c19169055388080612336565b91936020600181928787013581550195019201612320565b90915083875260208720601f840160051c810191602085106123bb575b90601f859493920160051c01905b8181106123ad5750612186565b8881558493506001016123a0565b9091508190612392565b634e487b7160e01b86526041600452602486fd5b013590503880612146565b60168801895260208920925090601f198416895b818110612438575090846001959493921061241e575b505050811b01601685015561215e565b0135600019600384901b60f8161c1916905538808061240e565b919360206001819287870135815501950192016123f8565b90915060168701885260208820601f840160051c81019160208510612499575b90601f859493920160051c01905b81811061248b5750612131565b89815584935060010161247e565b9091508190612470565b634e487b7160e01b87526041600452602487fd5b0135905038806120f3565b60158a018b5260208b20925090601f1984168b5b81811061251657509084600195949392106124fc575b505050811b01601587015561210b565b0135600019600384901b60f8161c191690553880806124ec565b919360206001819287870135815501950192016124d6565b909150601589018a5260208a20601f840160051c810160208510612577575b90849392915b601f830160051c820181106125695750506120de565b8c8155859450600101612553565b508061254d565b634e487b7160e01b89526041600452602489fd5b60405162461bcd60e51b815260206004820152600e60248201526d139bdd081c9959da5cdd195c995960921b6044820152606490fd5b8680fd5b503461028d578060031936011261028d5760606006546007546008549060405192835260208301526040820152f35b503461028d57602036600319011261028d5760206105f8600435613b50565b503461028d57602036600319011261028d5760206105f8600435613c15565b503461028d578060031936011261028d576020600454604051908152f35b503461028d5761267f61266936612ac4565b90612672612c6a565b61267a612d29565b6137ff565b6001600080516020613d518339815191525580f35b503461028d57604036600319011261028d576126ae612a6e565b602435906126ba612c6a565b6001600160a01b03169081156105c75760085481811061271e57816127027fba443e8671971c36cdeb74f87321041daff421230cbc5e36cb835269ed1d8b7e93602093612ccf565b6008558385526003825260086040862001610564828254612d8a565b60405162461bcd60e51b8152602060048201526012602482015271115e18d959591cc818591b5a5b881c1bdbdb60721b6044820152606490fd5b503461028d57602036600319011261028d576020906040906001600160a01b03612780612a6e565b168152600c83522054604051908152f35b503461028d578060031936011261028d576001546040516001600160a01b039091168152602090f35b503461028d57602036600319011261028d576127d4612a6e565b6127dc612c6a565b6001600160a01b031680156105c757600180546001600160a01b031916821790556040519081527ffa7bd61554593f4e69cdffd255d3fe947352b02c7d3ec68059384934e4cfd47c90602090a180f35b503461028d57602036600319011261028d576128b6906040906001600160a01b03612855612a6e565b16815260036020522060ff6019820154166128e061287560158401612bc4565b926128d261288560168301612bc4565b916128c46128a1601861289a60178501612bc4565b9301612bc4565b9360405198899860a08a5260a08a0190612a84565b9088820360208a0152612a84565b908682036040880152612a84565b908482036060860152612a84565b90151560808301520390f35b503461028d578060031936011261028d57612905612d29565b3381526003602052604081205460ff811615611fef5760081c60ff166129d6576040516323b872dd60e01b815233600482015230602482015268070c1cc73b00c800006044820152602081606481857f00000000000000000000000000000000000000000000000000000000000000006001600160a01b03165af19081156107f657829161299d575b50156108055761267f33612e8d565b90506020813d82116129ce575b816129b760209383612ba1565b81010312610801576129c890612cf2565b3861298e565b3d91506129aa565b604051637cdf305160e11b8152600490fd5b503461028d57602036600319011261028d5760409081906001600160a01b03612a0f612a6e565b1681526003602052206010600f82015491015482519182526020820152f35b503461028d578060031936011261028d57602060405168070c1cc73b00c800008152f35b9050346108015781600319360112610801576020906007548152f35b600435906001600160a01b038216820361089657565b919082519283825260005b848110612ab0575050826000602080949584010152601f8019910116010190565b602081830181015184830182015201612a8f565b6040906003190112610896576004359060243590565b34610896576000366003190112610896576020604051601e8152f35b9181601f84011215610896578235916001600160401b038311610896576020838186019501011161089657565b600454811015612b3e57600460005260206000200190600090565b634e487b7160e01b600052603260045260246000fd5b90600182811c92168015612b84575b6020831014612b6e57565b634e487b7160e01b600052602260045260246000fd5b91607f1691612b63565b6001600160401b038111610ec057604052565b601f909101601f19168101906001600160401b03821190821017610ec057604052565b9060405191826000825492612bd884612b54565b908184526001948581169081600014612c475750600114612c04575b5050612c0292500383612ba1565b565b9093915060005260209081600020936000915b818310612c2f575050612c0293508201013880612bf4565b85548884018501529485019487945091830191612c17565b915050612c0294506020925060ff191682840152151560051b8201013880612bf4565b6000546001600160a01b03163303612c7e57565b60405163118cdaa760e01b8152336004820152602490fd5b15612c9d57565b60405162461bcd60e51b815260206004820152600a6024820152694e6f742061637469766560b01b6044820152606490fd5b91908203918211612cdc57565b634e487b7160e01b600052601160045260246000fd5b5190811515820361089657565b6001600160a01b039091168152602081019190915260400190565b6000198114612cdc5760010190565b600080516020613d518339815191526002815414612d475760029055565b604051633ee5aeb560e01b8152600490fd5b15612d6057565b60405162461bcd60e51b81526020600482015260026024820152615a4160f01b6044820152606490fd5b91908201809211612cdc57565b60018060a01b039182600092168252600391602092808452600291604091838383200154958787169560ff96898860a09a8b1c16915b16908115612e295715612e0c57808552838352600586862001612df08154612d1a565b90555b8452828252858585200154898089838c1c169216612dcd565b808552838352600686862001612e228154612d1a565b9055612df3565b5050975050505050505050565b81810292918115918404141715612cdc57565b8115612e53570490565b634e487b7160e01b600052601260045260246000fd5b9192608093969594919660a084019784526020840152604083015260608201520152565b600154604051623144bd60e31b8152600093909290916001600160a01b0316602084600481845afa9384156108505785946133ef575b5083156133db5760405163095ea7b360e01b8152600481019190915268070c1cc73b00c800006024820181905290602081604481897f00000000000000000000000000000000000000000000000000000000000000006001600160a01b03165af18015611f855761339e575b506001546040516370a0823160e01b8082523060048301529290918791906001600160a01b0316602084602481845afa9384156109e557839461336a575b50803b156107f257604483926040519485938492634e538d9360e11b845230600485015260248401525af1801561335f5761334c575b50600154604051928352306004840152602090839060249082906001600160a01b03165afa8015611f85578690613318575b612fdf9250612ccf565b92601e6b030e68b6d6e0acc82863363160251b82900481810292918184041490151715611f4257613059613051613036606485046130318181816b030e68b6d6e0acc82863363160251b899004612ccf565b612ccf565b61304560648604600654612d8a565b60065560648504612d8a565b600854612d8a565b6008556001600160a01b038381168752600360205260408720805461ff001916610100178082556815245655b102580000600b9092019190915560019588949092909160101c165b600a60ff8816111580613306575b15613276576130d0876b030e68b6d6e0acc82863363160251b869004613438565b94851561325057856130e191612d8a565b6001600160a01b0382168a52600360205260408a20805491969160081c60ff169081613239575b50156131e9576001600160a01b0382168a52600360205260408a206008018054613133908390612d8a565b90556001600160a01b0382168a52600360205260408a20600901805461315a908390612d8a565b90556040516001600160a01b0388811692908416917fb16479bdac5b7099d9236d6fc6be3b30ff54188f4fd961686e1e1dc7ecb8803791819061319e908d83613423565b0390a35b6001600160a01b0390811689526003602052604089205460101c16955b60ff9081808216146131d55716600101956130a1565b634e487b7160e01b8a52601160045260248afd5b6131f581600854612d8a565b6008557f117ca0cd821ecb7eadfea2d6927a67853908bdc351a386235215f5ab6071bfed6040518061323160018060a01b038616948c83613423565b0390a26131a2565b60019150015461324889613584565b111538613108565b6001600160a01b039182168a52600360205260408a205460101c909116969094506131bf565b5093926132e892969197507f8af2c013a5a55c6d3ad5423522fe76c6f2eb831b5e23318276b3c678cb457fc995508060648604116132ed575b506040516001600160a01b039093169592938493606490910491829182916b030e68b6d6e0acc82863363160251b919091049086612e69565b0390a2565b6130516132fd9160648704612ccf565b600855386132af565b506001600160a01b03811615156130af565b506020823d602011613344575b8161333260209383612ba1565b8101031261089657612fdf9151612fd5565b3d9150613325565b61335890969196612b8e565b9438612fa3565b6040513d89823e3d90fd5b9093506020813d602011613396575b8161338660209383612ba1565b810103126107f257519238612f6d565b3d9150613379565b6020813d6020116133d3575b816133b760209383612ba1565b810103126133cf576133c890612cf2565b5038612f2f565b8580fd5b3d91506133aa565b634e487b7160e01b85526012600452602485fd5b9093506020813d60201161341b575b8161340b60209383612ba1565b8101031261084557519238612ec3565b3d91506133fe565b6020909392919360ff60408201951681520152565b9060ff1660018114613569576002811461354e57600381146135335760049081811461351c57600581146134ff57600681146134ff57600781146134e257600881146134e257600981146134c557600a14613494575050600090565b8160011b91808304600214901517156134b057506103e8900490565b601190634e487b7160e01b6000525260246000fd5b508160011b91808304600214901517156134b057506103e8900490565b506003820291808304600314901517156134b057506103e8900490565b506005820291808304600514901517156134b057506103e8900490565b50818004600114821517156134b057506064900490565b508060011b9080820460021490151715612cdc576064900490565b50600581029080820460051490151715612cdc576064900490565b50601481029080820460141490151715612cdc576064900490565b60ff60049116111561359557600590565b600290565b6001600160401b038111610ec05760051b60200190565b8051821015612b3e5760209160051b010190565b81806137dc575b6137d55781159182806137b0575b6137a857600554926001808501809511612cdc576135f78561359a565b9061361260409661360a88519485612ba1565b80845261359a565b9260209283810194601f19013686376000808715613789576001600160a01b03898116835260038088528b8420015416965b6001600160a01b0397881680613775575b50505b8181106136d357505050806136b8575b6136ae575082613691575b505061368a57815163c5bb5bcd60e01b8152600490fd5b9160009150565b816003929350841660005252600483600020015416153880613673565b9594505050509190565b50828516600052600382528260038760002001541615613668565b866136e76136e083612d1a565b92856135b1565b51168060005260038088528b600020918982840154168015613762578a600480950154161561374e57908a93929161372861372188612d1a565b97896135b1565b5260005288528b60002001541661374861374184612d1a565b93856135b1565b52613658565b509b50505050505050505050505090600090565b509a505050505050509594505050509190565b9092508592845115612b3e57523880613655565b6001600160a01b038981168352600387528a8320600401541696613644565b509160009150565b506001600160a01b0382811660009081526003602052604090206004015416156135da565b9160019150565b5060018060a01b03808216600052600360205260036040600020015416156135cc565b60ff600a9080825416613b3f576006918254948515613b065760009384815560468702878104604603611f4257606490049361383b8589612ccf565b9561384b60099488865589612d8a565b926004918254808611613afe575b508099805b868110613a6a57508a15613a1f575b8581106138b457505050505050509160809391600080516020613d318339815191529593600160ff19825416179055604051938452602084015260408301526060820152a1565b8a888a876138c185612b23565b90549060039160018060a01b0391831b1c16948588528c602092808452604096878b2092835496600897881c1615613a0c5760058401548d85015480821015613a045750945b600794850154808711156139fc5761391f9087612ccf565b985b89156139e757906119128a61393593612e36565b968a8d52838752898d200161394b888254612d8a565b9055898c52828652888c2001613962878254612d8a565b905580870290878204036139d45791879593917fbee8f46206dc051d674f6ca1e618efe407d83b27ffbe3540b916edfd34e428e19795936139b560118c9b8f6139cf9f9e81528589522001918254612d8a565b9055888c528352858b2001558351928352820152a2612d1a565b61386d565b634e487b7160e01b8b5260118d5260248bfd5b5050505050505050505050506139cf90612d1a565b508c98613921565b905094613907565b505050505050505050506139cf90612d1a565b5096905060809850869550613a4c93506130519250600080516020613d3183398151915299979150612d8a565b600855556040519182528060208301528060408301526060820152a1565b613a7381612b23565b9054600391821b1c6001600160a01b0316845260205260408320805460081c871615613af4576007600582015486830154808210600014613aec5750915b015490818111613acc575b5050613ac790612d1a565b61385e565b9c613ade613ae492613ac7949f612ccf565b90612d8a565b9b9038613abc565b905091613ab1565b50613ac790612d1a565b945038613859565b60405162461bcd60e51b8152602060048201526011602482015270115b5c1d1e48189a5b985c9e481c1bdbdb607a1b6044820152606490fd5b60405162c9487960e41b8152600490fd5b6002546001600160a01b0316908115613bcc576020906024604051809481936347cd519160e01b835260048301525afa908115613bc057600091613b92575090565b906020823d8211613bb8575b81613bab60209383612ba1565b8101031261028d57505190565b3d9150613b9e565b6040513d6000823e3d90fd5b5050600090565b6002546001600160a01b0316908115613bcc576020906024604051809481936375b1f0e160e11b835260048301525afa908115613bc057600091613b92575090565b6002546001600160a01b0316908115613bcc57602090602460405180948193631d61396160e11b835260048301525afa908115613bc057600091613b92575090565b6002546001600160a01b03908116918215613d0257166024600082815260206003815280600f60408420015495604051948580926347cd519160e01b8252600160048301525afa9283156107f6578293613cd2575b5060ff9160036040928596835252205460081c169081613cca575092565b905082101592565b9080935081813d8311613cfb575b613cea8183612ba1565b8101031261080157519160ff613cac565b503d613ce0565b50505060009060009060009056fe8be0079c531659141344cd1fd0a4f28419497f9722a3daafe3b4186f6b6457e0a0ea5705200c9ffd36dc735fef1592c3234bb7e311fc1b0a444f6370d0620eae9b779b17422d0df92223018b32b4d1fa46e071723d6817e2486d003becc55f00a26469706673582212207e5e62798b2434e62d44a26bb62ee2849dbb87812905a5be9f9ac12b1a3b364164736f6c63430008140033",
  "linkReferences": {},
  "deployedLinkReferences": {}
}