{
  "_format": "hh-sol-artifact-1",
  "contractName": "MvaultContract",
  "sourceName": "contracts/MvaultContract.sol",
  "abi": [
    {
      "inputs": [
        {
          "internalType": "address",
          "name": "_usdt",
          "type": "address"
        },
        {
          "internalType": "address",
          "name": "_mvaultToken",
          "type": "address"
        }
      ],
      "stateMutability": "nonpayable",
      "type": "constructor"
    },
    {
      "inputs": [],
      "name": "AlreadyActive",
      "type": "error"
    },
    {
      "inputs": [],
      "name": "AlreadyRegistered",
      "type": "error"
    },
    {
      "inputs": [],
      "name": "BinaryAlreadyDistributed",
      "type": "error"
    },
    {
      "inputs": [],
      "name": "BinaryNotDistributed",
      "type": "error"
    },
    {
      "inputs": [],
      "name": "InsufficientBtcPool",
      "type": "error"
    },
    {
      "inputs": [],
      "name": "InsufficientRebirthPool",
      "type": "error"
    },
    {
      "inputs": [],
      "name": "InsufficientUsdtBalance",
      "type": "error"
    },
    {
      "inputs": [],
      "name": "InsufficientVirtualBalance",
      "type": "error"
    },
    {
      "inputs": [],
      "name": "InvalidSponsor",
      "type": "error"
    },
    {
      "inputs": [],
      "name": "NoOpenBinarySlot",
      "type": "error"
    },
    {
      "inputs": [],
      "name": "NotRegistered",
      "type": "error"
    },
    {
      "inputs": [
        {
          "internalType": "address",
          "name": "owner",
          "type": "address"
        }
      ],
      "name": "OwnableInvalidOwner",
      "type": "error"
    },
    {
      "inputs": [
        {
          "internalType": "address",
          "name": "account",
          "type": "address"
        }
      ],
      "name": "OwnableUnauthorizedAccount",
      "type": "error"
    },
    {
      "inputs": [],
      "name": "PositionTaken",
      "type": "error"
    },
    {
      "inputs": [],
      "name": "ReentrancyGuardReentrantCall",
      "type": "error"
    },
    {
      "inputs": [],
      "name": "TransferFailed",
      "type": "error"
    },
    {
      "inputs": [],
      "name": "ZeroAddress",
      "type": "error"
    },
    {
      "inputs": [],
      "name": "ZeroAmount",
      "type": "error"
    },
    {
      "anonymous": false,
      "inputs": [
        {
          "indexed": true,
          "internalType": "address",
          "name": "user",
          "type": "address"
        },
        {
          "indexed": false,
          "internalType": "uint256",
          "name": "mvtMinted",
          "type": "uint256"
        },
        {
          "indexed": false,
          "internalType": "uint256",
          "name": "grossMvt",
          "type": "uint256"
        },
        {
          "indexed": false,
          "internalType": "uint256",
          "name": "levelAmt",
          "type": "uint256"
        },
        {
          "indexed": false,
          "internalType": "uint256",
          "name": "binaryAmt",
          "type": "uint256"
        },
        {
          "indexed": false,
          "internalType": "uint256",
          "name": "reserveAmt",
          "type": "uint256"
        }
      ],
      "name": "Activated",
      "type": "event"
    },
    {
      "anonymous": false,
      "inputs": [
        {
          "indexed": true,
          "internalType": "address",
          "name": "to",
          "type": "address"
        },
        {
          "indexed": false,
          "internalType": "uint256",
          "name": "amount",
          "type": "uint256"
        }
      ],
      "name": "AdminWithdraw",
      "type": "event"
    },
    {
      "anonymous": false,
      "inputs": [
        {
          "indexed": false,
          "internalType": "uint256",
          "name": "totalPool",
          "type": "uint256"
        },
        {
          "indexed": false,
          "internalType": "uint256",
          "name": "binary70",
          "type": "uint256"
        },
        {
          "indexed": false,
          "internalType": "uint256",
          "name": "powerLeg30",
          "type": "uint256"
        },
        {
          "indexed": false,
          "internalType": "uint256",
          "name": "totalPairs",
          "type": "uint256"
        }
      ],
      "name": "BinaryIncomeDistributed",
      "type": "event"
    },
    {
      "anonymous": false,
      "inputs": [
        {
          "indexed": true,
          "internalType": "address",
          "name": "user",
          "type": "address"
        },
        {
          "indexed": false,
          "internalType": "uint256",
          "name": "amount",
          "type": "uint256"
        }
      ],
      "name": "BtcPoolCredited",
      "type": "event"
    },
    {
      "anonymous": false,
      "inputs": [
        {
          "indexed": true,
          "internalType": "address",
          "name": "user",
          "type": "address"
        },
        {
          "indexed": false,
          "internalType": "uint256",
          "name": "amount",
          "type": "uint256"
        }
      ],
      "name": "BtcPoolWithdrawn",
      "type": "event"
    },
    {
      "anonymous": false,
      "inputs": [
        {
          "indexed": true,
          "internalType": "address",
          "name": "to",
          "type": "address"
        },
        {
          "indexed": true,
          "internalType": "address",
          "name": "from",
          "type": "address"
        },
        {
          "indexed": false,
          "internalType": "uint8",
          "name": "level",
          "type": "uint8"
        },
        {
          "indexed": false,
          "internalType": "uint256",
          "name": "amount",
          "type": "uint256"
        }
      ],
      "name": "LevelIncomePaid",
      "type": "event"
    },
    {
      "anonymous": false,
      "inputs": [
        {
          "indexed": true,
          "internalType": "address",
          "name": "upline",
          "type": "address"
        },
        {
          "indexed": false,
          "internalType": "uint8",
          "name": "level",
          "type": "uint8"
        },
        {
          "indexed": false,
          "internalType": "uint256",
          "name": "amount",
          "type": "uint256"
        }
      ],
      "name": "LevelIncomeSkipped",
      "type": "event"
    },
    {
      "anonymous": false,
      "inputs": [
        {
          "indexed": false,
          "internalType": "address",
          "name": "newToken",
          "type": "address"
        }
      ],
      "name": "MvaultTokenUpdated",
      "type": "event"
    },
    {
      "anonymous": false,
      "inputs": [
        {
          "indexed": true,
          "internalType": "address",
          "name": "user",
          "type": "address"
        },
        {
          "indexed": false,
          "internalType": "uint256",
          "name": "mvtAmount",
          "type": "uint256"
        },
        {
          "indexed": false,
          "internalType": "uint256",
          "name": "usdtNet",
          "type": "uint256"
        },
        {
          "indexed": false,
          "internalType": "uint256",
          "name": "usdtToBtcPool",
          "type": "uint256"
        },
        {
          "indexed": false,
          "internalType": "uint256",
          "name": "usdtToIncome",
          "type": "uint256"
        },
        {
          "indexed": false,
          "internalType": "uint256",
          "name": "usdtToRebirth",
          "type": "uint256"
        }
      ],
      "name": "MvtSold",
      "type": "event"
    },
    {
      "anonymous": false,
      "inputs": [
        {
          "indexed": true,
          "internalType": "address",
          "name": "previousOwner",
          "type": "address"
        },
        {
          "indexed": true,
          "internalType": "address",
          "name": "newOwner",
          "type": "address"
        }
      ],
      "name": "OwnershipTransferred",
      "type": "event"
    },
    {
      "anonymous": false,
      "inputs": [
        {
          "indexed": false,
          "internalType": "uint256",
          "name": "totalPowerLeg30",
          "type": "uint256"
        },
        {
          "indexed": false,
          "internalType": "uint256",
          "name": "totalPowerLegs",
          "type": "uint256"
        }
      ],
      "name": "PowerLegDistributed",
      "type": "event"
    },
    {
      "anonymous": false,
      "inputs": [
        {
          "indexed": true,
          "internalType": "address",
          "name": "mainAccount",
          "type": "address"
        },
        {
          "indexed": true,
          "internalType": "address",
          "name": "subAccount",
          "type": "address"
        },
        {
          "indexed": false,
          "internalType": "uint256",
          "name": "rebirthIndex",
          "type": "uint256"
        }
      ],
      "name": "Reborn",
      "type": "event"
    },
    {
      "anonymous": false,
      "inputs": [
        {
          "indexed": true,
          "internalType": "address",
          "name": "user",
          "type": "address"
        },
        {
          "indexed": true,
          "internalType": "address",
          "name": "sponsor",
          "type": "address"
        },
        {
          "indexed": true,
          "internalType": "address",
          "name": "binaryParent",
          "type": "address"
        },
        {
          "indexed": false,
          "internalType": "bool",
          "name": "placeLeft",
          "type": "bool"
        }
      ],
      "name": "Registered",
      "type": "event"
    },
    {
      "anonymous": false,
      "inputs": [
        {
          "indexed": true,
          "internalType": "address",
          "name": "to",
          "type": "address"
        },
        {
          "indexed": false,
          "internalType": "uint256",
          "name": "amount",
          "type": "uint256"
        }
      ],
      "name": "ReserveWithdraw",
      "type": "event"
    },
    {
      "anonymous": false,
      "inputs": [
        {
          "indexed": true,
          "internalType": "address",
          "name": "user",
          "type": "address"
        },
        {
          "indexed": false,
          "internalType": "uint256",
          "name": "amount",
          "type": "uint256"
        }
      ],
      "name": "UsdtWithdrawn",
      "type": "event"
    },
    {
      "inputs": [],
      "name": "BINARY_ALLOC",
      "outputs": [
        {
          "internalType": "uint256",
          "name": "",
          "type": "uint256"
        }
      ],
      "stateMutability": "view",
      "type": "function"
    },
    {
      "inputs": [],
      "name": "BTC_POOL_RATE",
      "outputs": [
        {
          "internalType": "uint256",
          "name": "",
          "type": "uint256"
        }
      ],
      "stateMutability": "view",
      "type": "function"
    },
    {
      "inputs": [],
      "name": "INCOME_LIMIT",
      "outputs": [
        {
          "internalType": "uint256",
          "name": "",
          "type": "uint256"
        }
      ],
      "stateMutability": "view",
      "type": "function"
    },
    {
      "inputs": [],
      "name": "LEVEL_ALLOC",
      "outputs": [
        {
          "internalType": "uint256",
          "name": "",
          "type": "uint256"
        }
      ],
      "stateMutability": "view",
      "type": "function"
    },
    {
      "inputs": [],
      "name": "PACKAGE_PRICE",
      "outputs": [
        {
          "internalType": "uint256",
          "name": "",
          "type": "uint256"
        }
      ],
      "stateMutability": "view",
      "type": "function"
    },
    {
      "inputs": [],
      "name": "activate",
      "outputs": [],
      "stateMutability": "nonpayable",
      "type": "function"
    },
    {
      "inputs": [],
      "name": "adminPool",
      "outputs": [
        {
          "internalType": "uint256",
          "name": "",
          "type": "uint256"
        }
      ],
      "stateMutability": "view",
      "type": "function"
    },
    {
      "inputs": [
        {
          "internalType": "uint256",
          "name": "",
          "type": "uint256"
        }
      ],
      "name": "allUsers",
      "outputs": [
        {
          "internalType": "address",
          "name": "",
          "type": "address"
        }
      ],
      "stateMutability": "view",
      "type": "function"
    },
    {
      "inputs": [],
      "name": "binaryPool",
      "outputs": [
        {
          "internalType": "uint256",
          "name": "",
          "type": "uint256"
        }
      ],
      "stateMutability": "view",
      "type": "function"
    },
    {
      "inputs": [
        {
          "internalType": "address",
          "name": "user",
          "type": "address"
        }
      ],
      "name": "canRebirth",
      "outputs": [
        {
          "internalType": "bool",
          "name": "eligible",
          "type": "bool"
        },
        {
          "internalType": "uint256",
          "name": "poolBalance",
          "type": "uint256"
        }
      ],
      "stateMutability": "view",
      "type": "function"
    },
    {
      "inputs": [
        {
          "internalType": "uint256",
          "name": "offset",
          "type": "uint256"
        },
        {
          "internalType": "uint256",
          "name": "limit",
          "type": "uint256"
        }
      ],
      "name": "distributeBinaryIncome",
      "outputs": [],
      "stateMutability": "nonpayable",
      "type": "function"
    },
    {
      "inputs": [
        {
          "internalType": "uint256",
          "name": "offset",
          "type": "uint256"
        },
        {
          "internalType": "uint256",
          "name": "limit",
          "type": "uint256"
        }
      ],
      "name": "distributePowerLeg",
      "outputs": [],
      "stateMutability": "nonpayable",
      "type": "function"
    },
    {
      "inputs": [],
      "name": "getAllUsersCount",
      "outputs": [
        {
          "internalType": "uint256",
          "name": "",
          "type": "uint256"
        }
      ],
      "stateMutability": "view",
      "type": "function"
    },
    {
      "inputs": [
        {
          "internalType": "address",
          "name": "u",
          "type": "address"
        }
      ],
      "name": "getBtcPoolInfo",
      "outputs": [
        {
          "internalType": "uint256",
          "name": "btcPoolBalance",
          "type": "uint256"
        },
        {
          "internalType": "uint256",
          "name": "totalBtcEarned",
          "type": "uint256"
        }
      ],
      "stateMutability": "view",
      "type": "function"
    },
    {
      "inputs": [
        {
          "internalType": "address",
          "name": "u",
          "type": "address"
        }
      ],
      "name": "getCurrentBinaryPairs",
      "outputs": [
        {
          "internalType": "uint256",
          "name": "currentPairs",
          "type": "uint256"
        },
        {
          "internalType": "uint256",
          "name": "newPairs",
          "type": "uint256"
        }
      ],
      "stateMutability": "view",
      "type": "function"
    },
    {
      "inputs": [],
      "name": "getMvtContractBalance",
      "outputs": [
        {
          "internalType": "uint256",
          "name": "",
          "type": "uint256"
        }
      ],
      "stateMutability": "view",
      "type": "function"
    },
    {
      "inputs": [],
      "name": "getMvtPrice",
      "outputs": [
        {
          "internalType": "uint256",
          "name": "buyPrice",
          "type": "uint256"
        },
        {
          "internalType": "uint256",
          "name": "sellPrice",
          "type": "uint256"
        }
      ],
      "stateMutability": "view",
      "type": "function"
    },
    {
      "inputs": [],
      "name": "getPoolBalances",
      "outputs": [
        {
          "internalType": "uint256",
          "name": "binary",
          "type": "uint256"
        },
        {
          "internalType": "uint256",
          "name": "reserve",
          "type": "uint256"
        },
        {
          "internalType": "uint256",
          "name": "admin",
          "type": "uint256"
        }
      ],
      "stateMutability": "view",
      "type": "function"
    },
    {
      "inputs": [
        {
          "internalType": "address",
          "name": "u",
          "type": "address"
        }
      ],
      "name": "getUserInfo",
      "outputs": [
        {
          "internalType": "bool",
          "name": "isRegistered",
          "type": "bool"
        },
        {
          "internalType": "bool",
          "name": "isActive",
          "type": "bool"
        },
        {
          "internalType": "address",
          "name": "sponsor",
          "type": "address"
        },
        {
          "internalType": "uint256",
          "name": "directCount",
          "type": "uint256"
        },
        {
          "internalType": "address",
          "name": "binaryParent",
          "type": "address"
        },
        {
          "internalType": "bool",
          "name": "placedLeft",
          "type": "bool"
        },
        {
          "internalType": "address",
          "name": "leftChild",
          "type": "address"
        },
        {
          "internalType": "address",
          "name": "rightChild",
          "type": "address"
        },
        {
          "internalType": "uint256",
          "name": "leftSubUsers",
          "type": "uint256"
        },
        {
          "internalType": "uint256",
          "name": "rightSubUsers",
          "type": "uint256"
        },
        {
          "internalType": "uint256",
          "name": "mvtBalance",
          "type": "uint256"
        },
        {
          "internalType": "uint256",
          "name": "totalReceived",
          "type": "uint256"
        },
        {
          "internalType": "uint256",
          "name": "totalSold",
          "type": "uint256"
        },
        {
          "internalType": "uint256",
          "name": "incomeLimit",
          "type": "uint256"
        },
        {
          "internalType": "uint256",
          "name": "usdtBalance",
          "type": "uint256"
        },
        {
          "internalType": "uint256",
          "name": "rebirthPool",
          "type": "uint256"
        },
        {
          "internalType": "uint256",
          "name": "btcPoolBalance",
          "type": "uint256"
        },
        {
          "internalType": "uint256",
          "name": "powerLegPoints",
          "type": "uint256"
        },
        {
          "internalType": "uint256",
          "name": "matchedPairs",
          "type": "uint256"
        },
        {
          "internalType": "address",
          "name": "mainAccount",
          "type": "address"
        },
        {
          "internalType": "uint256",
          "name": "rebirthCount",
          "type": "uint256"
        },
        {
          "internalType": "uint256",
          "name": "joinedAt",
          "type": "uint256"
        }
      ],
      "stateMutability": "view",
      "type": "function"
    },
    {
      "inputs": [],
      "name": "mvaultToken",
      "outputs": [
        {
          "internalType": "contract IMvaultToken",
          "name": "",
          "type": "address"
        }
      ],
      "stateMutability": "view",
      "type": "function"
    },
    {
      "inputs": [],
      "name": "owner",
      "outputs": [
        {
          "internalType": "address",
          "name": "",
          "type": "address"
        }
      ],
      "stateMutability": "view",
      "type": "function"
    },
    {
      "inputs": [
        {
          "internalType": "address",
          "name": "subAccount",
          "type": "address"
        },
        {
          "internalType": "bool",
          "name": "placeLeft",
          "type": "bool"
        }
      ],
      "name": "rebirth",
      "outputs": [],
      "stateMutability": "nonpayable",
      "type": "function"
    },
    {
      "inputs": [
        {
          "internalType": "address",
          "name": "sponsor",
          "type": "address"
        },
        {
          "internalType": "address",
          "name": "binaryParent",
          "type": "address"
        },
        {
          "internalType": "bool",
          "name": "placeLeft",
          "type": "bool"
        }
      ],
      "name": "register",
      "outputs": [],
      "stateMutability": "nonpayable",
      "type": "function"
    },
    {
      "inputs": [],
      "name": "renounceOwnership",
      "outputs": [],
      "stateMutability": "nonpayable",
      "type": "function"
    },
    {
      "inputs": [],
      "name": "reservePool",
      "outputs": [
        {
          "internalType": "uint256",
          "name": "",
          "type": "uint256"
        }
      ],
      "stateMutability": "view",
      "type": "function"
    },
    {
      "inputs": [
        {
          "internalType": "uint256",
          "name": "amount",
          "type": "uint256"
        }
      ],
      "name": "sellMvt",
      "outputs": [],
      "stateMutability": "nonpayable",
      "type": "function"
    },
    {
      "inputs": [
        {
          "internalType": "address",
          "name": "_mvaultToken",
          "type": "address"
        }
      ],
      "name": "setMvaultToken",
      "outputs": [],
      "stateMutability": "nonpayable",
      "type": "function"
    },
    {
      "inputs": [],
      "name": "totalUsers",
      "outputs": [
        {
          "internalType": "uint256",
          "name": "",
          "type": "uint256"
        }
      ],
      "stateMutability": "view",
      "type": "function"
    },
    {
      "inputs": [
        {
          "internalType": "address",
          "name": "newOwner",
          "type": "address"
        }
      ],
      "name": "transferOwnership",
      "outputs": [],
      "stateMutability": "nonpayable",
      "type": "function"
    },
    {
      "inputs": [],
      "name": "usdtToken",
      "outputs": [
        {
          "internalType": "contract IERC20",
          "name": "",
          "type": "address"
        }
      ],
      "stateMutability": "view",
      "type": "function"
    },
    {
      "inputs": [
        {
          "internalType": "address",
          "name": "",
          "type": "address"
        }
      ],
      "name": "users",
      "outputs": [
        {
          "internalType": "bool",
          "name": "isRegistered",
          "type": "bool"
        },
        {
          "internalType": "bool",
          "name": "isActive",
          "type": "bool"
        },
        {
          "internalType": "address",
          "name": "sponsor",
          "type": "address"
        },
        {
          "internalType": "uint256",
          "name": "directCount",
          "type": "uint256"
        },
        {
          "internalType": "address",
          "name": "binaryParent",
          "type": "address"
        },
        {
          "internalType": "bool",
          "name": "placedLeft",
          "type": "bool"
        },
        {
          "internalType": "address",
          "name": "leftChild",
          "type": "address"
        },
        {
          "internalType": "address",
          "name": "rightChild",
          "type": "address"
        },
        {
          "internalType": "uint256",
          "name": "leftSubUsers",
          "type": "uint256"
        },
        {
          "internalType": "uint256",
          "name": "rightSubUsers",
          "type": "uint256"
        },
        {
          "internalType": "uint256",
          "name": "matchedPairs",
          "type": "uint256"
        },
        {
          "internalType": "uint256",
          "name": "mvtBalance",
          "type": "uint256"
        },
        {
          "internalType": "uint256",
          "name": "totalReceived",
          "type": "uint256"
        },
        {
          "internalType": "uint256",
          "name": "totalSold",
          "type": "uint256"
        },
        {
          "internalType": "uint256",
          "name": "incomeLimit",
          "type": "uint256"
        },
        {
          "internalType": "uint256",
          "name": "usdtBalance",
          "type": "uint256"
        },
        {
          "internalType": "uint256",
          "name": "rebirthPool",
          "type": "uint256"
        },
        {
          "internalType": "uint256",
          "name": "totalUsdtEarned",
          "type": "uint256"
        },
        {
          "internalType": "uint256",
          "name": "btcPoolBalance",
          "type": "uint256"
        },
        {
          "internalType": "uint256",
          "name": "totalBtcEarned",
          "type": "uint256"
        },
        {
          "internalType": "uint256",
          "name": "powerLegPoints",
          "type": "uint256"
        },
        {
          "internalType": "address",
          "name": "mainAccount",
          "type": "address"
        },
        {
          "internalType": "uint256",
          "name": "rebirthCount",
          "type": "uint256"
        },
        {
          "internalType": "uint256",
          "name": "joinedAt",
          "type": "uint256"
        }
      ],
      "stateMutability": "view",
      "type": "function"
    },
    {
      "inputs": [
        {
          "internalType": "address",
          "name": "to",
          "type": "address"
        },
        {
          "internalType": "uint256",
          "name": "amount",
          "type": "uint256"
        }
      ],
      "name": "withdrawAdminPool",
      "outputs": [],
      "stateMutability": "nonpayable",
      "type": "function"
    },
    {
      "inputs": [
        {
          "internalType": "uint256",
          "name": "amount",
          "type": "uint256"
        }
      ],
      "name": "withdrawBtcPool",
      "outputs": [],
      "stateMutability": "nonpayable",
      "type": "function"
    },
    {
      "inputs": [
        {
          "internalType": "address",
          "name": "to",
          "type": "address"
        },
        {
          "internalType": "uint256",
          "name": "amount",
          "type": "uint256"
        }
      ],
      "name": "withdrawReservePool",
      "outputs": [],
      "stateMutability": "nonpayable",
      "type": "function"
    },
    {
      "inputs": [
        {
          "internalType": "uint256",
          "name": "amount",
          "type": "uint256"
        }
      ],
      "name": "withdrawUsdt",
      "outputs": [],
      "stateMutability": "nonpayable",
      "type": "function"
    }
  ],
  "bytecode": "0x60a0346200016057601f62002ddb38819003918201601f19168301916001600160401b038311848410176200016557808492604094855283398101031262000160576200005a602062000052836200017b565b92016200017b565b90331562000147576000549160018060a01b03199233848216176000556040519060018060a01b03938491823391167f8be0079c531659141344cd1fd0a4f28419497f9722a3daafe3b4186f6b6457e0600080a360017f9b779b17422d0df92223018b32b4d1fa46e071723d6817e2486d003becc55f00551690811580156200013c575b6200012d575060805216906001541617600155604051612c4a908162000191823960805181818161044d0152818161067501528181610a720152818161162c01528181611b3c0152611f1f0152f35b63d92e233d60e01b8152600490fd5b5083831615620000de565b604051631e4fbdf760e01b815260006004820152602490fd5b600080fd5b634e487b7160e01b600052604160045260246000fd5b51906001600160a01b0382168203620001605756fe6102608060405260048036101561001557600080fd5b600091823560e01c9081630266f04414611c2b57508063039ccc2614611c0757806303c3ecb714611bc15780630f15f4c014611ad35780631ce5e89414611a5f5780631f6259d514611a365780632808bc8d146119715780632d641f081461193457806338abfc411461191657806344e374d5146118fa57806352375bb1146118cb578063634f627e146115a75780636386c1c7146113de57806368ddb2b5146112ff578063715018a6146112b7578063775378441461129b5780637f1b40641461127d5780638a8f04291461105e5780638da5cb5b1461103757806392446e301461101b57806394915dd014610cde578063a2bdedf414610c9c578063a87430ba14610aa1578063a98ad46c14610a5c578063aa33f5d514610746578063aa39375714610722578063b58e02781461060c578063b86a1fb2146105ee578063bff1f9e1146105d1578063ce8292f514610537578063d3635a02146103e4578063e51cb53014610396578063ec50324a14610299578063f24c536a1461021d5763f2fde38b146101a457600080fd5b34610219576020366003190112610219576101bd611c47565b6101c5611ca4565b6001600160a01b0390811691821561020157506000548260018060a01b031982161760005516600080516020612bb5833981519152600080a380f35b604051631e4fbdf760e01b8152908101849052602490fd5b5080fd5b8234610296576020366003190112610296576040906001600160a01b03610242611c47565b16815260026020528181209060076005830154600684015480821060001461028e5750925b0154808311156102885761027c915082611e75565b82519182526020820152f35b5061027c565b905092610267565b80fd5b5034610219576040366003190112610219576102b3611c47565b602435906102bf611ca4565b6001600160a01b0316918215610387576006549082821061034c5750816103097f0529afc4538720fe0b3eadc40486369ab962002d72fead1387b300c66073e7bf93602093611e75565b6006558385526002825260086040862001610325828254611e82565b90558385526002825260096040862001610340828254611e82565b9055604051908152a280f35b60649060206040519162461bcd60e51b83528201526014602482015273115e18d959591cc81c995cd95c9d99481c1bdbdb60621b6044820152fd5b60405163d92e233d60e01b8152fd5b823461029657602036600319011261029657604090600d9082906001600160a01b036103c0611c47565b168152600260205220015481519068070c1cc73b00c8000081101582526020820152f35b50346102195760208060031936011261053357813591610402611df7565b82156105245733845260028252600c60408520018054848110610513578461042991611e75565b905560405163a9059cbb60e01b81528281806104488733878401611e5a565b0381887f00000000000000000000000000000000000000000000000000000000000000006001600160a01b03165af19081156105085785916104db575b50156104cc57507fbdd3f02d2a57fb53c1156f98470b61cb60712d485c27c36a49b1263dabcde201906040519283523392a26001600080516020612bf58339815191525580f35b6040516312171d8360e31b8152fd5b6104fb9150833d8511610501575b6104f38183611dbc565b810190611ddf565b38610485565b503d6104e9565b6040513d87823e3d90fd5b60405163b55c1bad60e01b81528390fd5b604051631f2a200560e01b8152fd5b8280fd5b5090346102965780600319360112610296576001546040516370a0823160e01b81523093810193909352602090839060249082906001600160a01b03165afa9081156105c5579061058e575b602090604051908152f35b506020813d82116105bd575b816105a760209383611dbc565b810103126105b85760209051610583565b600080fd5b3d915061059a565b604051903d90823e3d90fd5b503461021957816003193601126102195760209054604051908152f35b82346102965780600319360112610296576020600754604051908152f35b5034610219576020806003193601126105335781359161062a611df7565b82156105245733845260028252600f60408520018054848110610711578461065191611e75565b905560405163a9059cbb60e01b81528281806106708733878401611e5a565b0381887f00000000000000000000000000000000000000000000000000000000000000006001600160a01b03165af19081156105085785916106f4575b50156104cc57507f12701e4764b73009ab9826933c421483e4280410091fcc760515e0fa99fa766b906040519283523392a26001600080516020612bf58339815191525580f35b61070b9150833d8511610501576104f38183611dbc565b386106ad565b604051636dae861760e11b81528390fd5b823461029657806003193601126102965760206040516815245655b1025800008152f35b503461021957606036600319011261021957610760611c47565b6024356001600160a01b038181169391928484036105b8576044359283158015948581036105b85733895260029160209783895260ff60408c205416610a4b57845461086557505033600090815282885260409020805461ff01600160b01b031916600117815591820180546001600160a81b0319169055506012810180546001600160a01b031916905542601490910155600354600160401b8110156108505790610823826001600080516020612b9583398151915296959401600355611c73565b81549060031b908533831b921b191617905561083f8154611cd0565b90555b60405193845216923392a480f35b604182634e487b7160e01b6000525260246000fd5b868695939b9a99989796168a5283885260ff60408b20541615610a3a5788151580610a26575b15610a1e57905b8a80610a04575b6109f357806109da575b6109ca5733600090815283885260409020805461ff01600160b01b031916601086901b62010000600160b01b031617600117815580840180546001600160a81b03191692871692831760a089901b60ff60a01b161790556012810180546001600160a01b0319908116909155426014909201919091556003549a909290600160401b8c10156108505761094f8c6001600080516020612b958339815191529a9b9c9d9e01600355611c73565b81549060031b908933831b921b191617905561096b8254611cd0565b8255156109b157508952818752600360408a20019033908254161790555b82821688528552600160408820016109a18154611cd0565b90556109ac33611cf5565b610842565b908a5282885260408a2001903390825416179055610989565b5060405163d5dd5c3d60e01b8152fd5b508481168952828752848260408b2001541615156108a3565b60405163d5dd5c3d60e01b81528390fd5b508582168a5283885285600360408c200154161515610899565b508390610892565b50888a5283885260ff60408b20541661088b565b604051632f212e0d60e11b81528390fd5b604051630ea075bf60e21b81528590fd5b82346102965780600319360112610296576040517f00000000000000000000000000000000000000000000000000000000000000006001600160a01b03168152602090f35b509034610296576020366003190112610296576040906001600160a01b03610ac7611c47565b16815260026020522080808080808080808080809b8161014052816014600f600e600d600c600b600a600960086007600660058c549c600181015460c05260028101546101805260018060a01b036003820154169e60018060a01b03910154169e01549e01549e01549e01549e01549e01549e01549e01549e01549e01549e01549e60108101546102005260118101546102405260018060a01b0360128201541660e05260138101546101a052015461010052604051806102205260ff82161515905260ff8160081c161515602061022051015260018060a01b039060101c16604061022051015260c051606061022051015260018060a01b036101805116608061022051015260ff6101805160a01c16151560a061022051015260c061022051015260e06102205101526101006102205101526101206102205101526101406102205101526101606102205101526101806102205101526101a06102205101526101c06102205101526101e061022051015261020061022051015261022080510152610240610220510152610200516102606102205101526102405161028061022051015260e0516102a06102205101526101a0516102c0610220510152610100516102e061022051015261030061022051f35b5034610219576020366003190112610219573590600354821015610296576020610cc583611c73565b905460405160039290921b1c6001600160a01b03168152f35b503461021957604036600319011261021957610cf8611c47565b906024359182151583036105b857610d0e611df7565b6001600160a01b0381811693909190841561100a57338652600290602094828652604088209485549160ff8360081c1615610fd957600d870180549068070c1cc73b00c80000808310610fc8578b8d52878b5260408d205460ff16610f845768070c1cc73b00c7ffff198301928311610f7157808310610f6657610d93908093611e75565b9055600c8801610da4828254611e82565b9055610db5600e8901918254611e82565b90556815245655b102580000600b880155610dd6828460101c169433612619565b60008b8152878b5260409020805461ff01600160b01b03191662010000600160b01b0390961695909517600117855584870180546001600160a81b03191692851692831782151560a01b60ff60a01b161790556012850180546001600160a01b031990811633179091554260149096019590955560035491939091600160401b811015610f5157610eee969360139996937f30016ed357540281a6cff6143637e72b48e105d85d15df66b0aaffbd237902409b999693610e9d8f9460018101600355611c73565b819291549060031b9186831b921b1916179055610eba8254611cd0565b825515610f395750508b5282895289600360408d2001918254161790555b80610f1b575b5050610ee981611cf5565b611eb3565b0191610efa8354611cd0565b8093556040519283523392a36001600080516020612bf58339815191525580f35b8952865260016040892001610f308154611cd0565b90553880610ede565b90918d52848b5260408d200191825416179055610ed8565b604184634e487b7160e01b6000525260246000fd5b50610d938280611e75565b634e487b7160e01b8d526011845260248dfd5b60405162461bcd60e51b81528085018c9052601e60248201527f5375622d6163636f756e7420616c7265616479207265676973746572656400006044820152606490fd5b6040516307db32bd60e31b81528490fd5b60405162461bcd60e51b8152908101889052600a6024820152694e6f742061637469766560b01b6044820152606490fd5b60405163d92e233d60e01b81528490fd5b82346102965780600319360112610296576020604051600a8152f35b8234610296578060031936011261029657546040516001600160a01b039091168152602090f35b50346102195761106d36611c5d565b611078929192611ca4565b611080611df7565b60099160ff8354161561126e57506110989083611e82565b9060038054808411611266575b508492845b81811061122657506008918254958515158061121d575b1561120457805b83811061116f575090879392915b82811061112f57847f7f4a5b69bea14a6fc05326671a02e90d4a88855c83a18529c260057b1bf61a8560408a8a8a858a5560ff19815416905582519182526020820152a16001600080516020612bf58339815191525580f35b611165919293945061114081611c73565b905490841b1c6001600160a01b03168952600260205260408920601101899055611cd0565b90879392916110d6565b808961117d6111f293611c73565b905490861b1c6001600160a01b0316808252600260208181526040842060110154919290918a908e908e81156111f7576111bc6111c192604094611e27565b611e3a565b9583815285855220016111d5858254611e82565b90558d52526111eb8860408d2001918254611e82565b9055611cd0565b6110c8565b5050505050505050611cd0565b61121087600754611e82565b60075590879392916110d6565b508615156110c1565b9361125b6112619161123787611c73565b905490861b1c6001600160a01b031689526002602052604089206011015490611e82565b94611cd0565b6110aa565b9250386110a5565b60405163418826bf60e11b8152fd5b82346102965780600319360112610296576020600554604051908152f35b8234610296578060031936011261029657602060405160288152f35b82346102965780600319360112610296576112d0611ca4565b600080546001600160a01b0319811682556001600160a01b0316600080516020612bb58339815191528280a380f35b509034610296578060031936011261029657600154604051623144bd60e31b815291906020906001600160a01b031681848681845afa9384156113d35783946113a4575b508190604051958680926310f4cba760e21b82525afa9182156105c55791611374575b604080945051928352820152f35b80915083813d831161139d575b61138b8183611dbc565b810103126105b8576040925190611366565b503d611381565b9093508181813d83116113cc575b6113bc8183611dbc565b810103126105b857519281611343565b503d6113b2565b6040513d85823e3d90fd5b509034610296576020366003190112610296576040906001600160a01b03611404611c47565b16815260026020522080808080808080808080809b81601460076011600f600d600c600b600a60096008600660058c549c600181015461012052600281015460a05260018060a01b036003820154169e60018060a01b03910154169e01549e01549e01549e01549e01549e01549e01549e01549e01549e01549e01549e60018060a01b036012820154166101c0526013810154608052015461016052604051806101e05260ff82161515905260ff8160081c16151560206101e051015260018060a01b039060101c1660406101e05101526101205160606101e051015260018060a01b0360a0511660806101e051015260ff60a05160a01c16151560a06101e051015260c06101e051015260e06101e05101526101006101e05101526101206101e05101526101406101e05101526101606101e05101526101806101e05101526101a06101e05101526101c06101e05101526101e0805101526102006101e05101526102206101e05101526102406101e05101526101c0516102606101e05101526080516102806101e0510152610160516102a06101e05101526102c06101e051f35b50903461029657602080600319360112610219578235906115c6611df7565b81156118ba5733835260028152604083209060ff825460081c16156118a95760088201805484811061189857846115fc91611e75565b9055600a820161160d848254611e82565b90556040516370a0823160e01b80825230878301526001600160a01b037f000000000000000000000000000000000000000000000000000000000000000081169291908483602481875afa92831561185a578893611869575b5060015416803b1561186557878760248b8360405195869485936372424d9960e11b85528401525af1801561185a57611847575b5083906024604051809581938252308c8301525afa801561183c57869061180d575b6116c69250611e75565b91600a8302838104600a14841517156117fa577f8f7262d5a031d4d671e1fdb0cddcd26d37185226f9e82f2f18877141ac1963eb93929161170e60646117cf93048095611e75565b92600f820161171e868254611e82565b90556010820161172f868254611e82565b90557f2b1d2104e84dd4dabb0cca024171f783ab1e1c9dc1af9d60a2361596653a99c4604051918683523392a2600b81018054918883156117ed5750600d90838611156117e757835b809361179f82611788818b611e75565b97600c8601611798838254611e82565b9055611e75565b90556117b0600e8301918254611e82565b90555b016117bf838254611e82565b9055604051948594339886611e8f565b0390a26001600080516020612bf58339815191525580f35b85611778565b91509150600d84926117b3565b634e487b7160e01b865260118752602486fd5b508282813d8311611835575b6118238183611dbc565b810103126105b8576116c691516116bc565b503d611819565b6040513d88823e3d90fd5b96611853859298611d93565b969061169a565b6040513d8a823e3d90fd5b8780fd5b9092508481813d8311611891575b6118818183611dbc565b8101031261186557519138611666565b503d611877565b60405163208975e760e21b81528790fd5b60405163aba4733960e01b81528590fd5b604051631f2a200560e01b81528490fd5b823461029657806003193601126102965760606005546006546007549060405192835260208301526040820152f35b82346102965780600319360112610296576020604051601e8152f35b82346102965780600319360112610296576020600354604051908152f35b82346102965761195c61194636611c5d565b9061194f611ca4565b611957611df7565b612876565b6001600080516020612bf58339815191525580f35b50346102195760403660031901126102195761198b611c47565b60243590611997611ca4565b6001600160a01b031691821561038757600754908282106119fd5750816119e17fba443e8671971c36cdeb74f87321041daff421230cbc5e36cb835269ed1d8b7e93602093611e75565b6007558385526002825260086040862001610325828254611e82565b60649060206040519162461bcd60e51b83528201526012602482015271115e18d959591cc818591b5a5b881c1bdbdb60721b6044820152fd5b82346102965780600319360112610296576001546040516001600160a01b039091168152602090f35b503461021957602036600319011261021957611a79611c47565b611a81611ca4565b6001600160a01b03169081156103875750600180546001600160a01b031916821790556040519081527ffa7bd61554593f4e69cdffd255d3fe947352b02c7d3ec68059384934e4cfd47c90602090a180f35b5034610219578160031936011261021957611aec611df7565b3382526002602052604082205460ff811615611bb15760081c60ff16611ba2576040516323b872dd60e01b8152338282015230602482015268070c1cc73b00c800006044820152602081606481867f00000000000000000000000000000000000000000000000000000000000000006001600160a01b03165af19081156113d3578391611b84575b50156104cc575061195c33611eb3565b611b9c915060203d8111610501576104f38183611dbc565b38611b74565b604051637cdf305160e11b8152fd5b5060405163aba4733960e01b8152fd5b82346102965760203660031901126102965760409081906001600160a01b03611be8611c47565b1681526002602052206010600f82015491015482519182526020820152f35b8234610296578060031936011261029657602060405168070c1cc73b00c800008152f35b8390346102195781600319360112610219576020906006548152f35b600435906001600160a01b03821682036105b857565b60409060031901126105b8576004359060243590565b600354811015611c8e57600360005260206000200190600090565b634e487b7160e01b600052603260045260246000fd5b6000546001600160a01b03163303611cb857565b60405163118cdaa760e01b8152336004820152602490fd5b6000198114611cdf5760010190565b634e487b7160e01b600052601160045260246000fd5b6001600160a01b039081166000908152600260208181526040808420830154949560a09560ff959293919080881c871690899081165b16908115611d875715611d6a57808452858352600585852001611d4e8154611cd0565b90555b8352848252848484200154888088838b1c169216611d2b565b808452858352600685852001611d808154611cd0565b9055611d51565b50509650505050505050565b6001600160401b038111611da657604052565b634e487b7160e01b600052604160045260246000fd5b601f909101601f19168101906001600160401b03821190821017611da657604052565b908160209103126105b8575180151581036105b85790565b600080516020612bf58339815191526002815414611e155760029055565b604051633ee5aeb560e01b8152600490fd5b81810292918115918404141715611cdf57565b8115611e44570490565b634e487b7160e01b600052601260045260246000fd5b6001600160a01b039091168152602081019190915260400190565b91908203918211611cdf57565b91908201809211611cdf57565b9192608093969594919660a084019784526020840152604083015260608201520152565b600154604051623144bd60e31b81529260009290916001600160a01b0316602085600481845afa948515612468578495612430575b50841561241c5760405163095ea7b360e01b8152600481019190915268070c1cc73b00c800006024820181905290602081604481887f00000000000000000000000000000000000000000000000000000000000000006001600160a01b03165af18015610508576123fd575b506001546040516370a0823160e01b8082523060048301529290916001600160a01b031690602083602481855afa9283156123f25787936123be575b50813b156123ba578691604483926040519485938492634e538d9360e11b845230600485015260248401525af1801561183c576123a7575b50600154604051928352306004840152602090839060249082906001600160a01b03165afa8015610508578590612373575b6120049250611e75565b936b030e68b6d6e0acc82863363160251b8190048015936028828102939284041485171561235f576b030e68b6d6e0acc82863363160251b829004601e8181029691870414171561235f576120796064860461207460648604856b030e68b6d6e0acc82863363160251b04611e75565b611e75565b9461208960648204600554611e82565b60055561209886600654611e82565b6006556001600160a01b038581168852600260205260408820805461ff001916610100178082556815245655b102580000600b9092019190915560019789969092909160101c165b600f60ff8a1611158061234d575b156122ba5761210f896b030e68b6d6e0acc82863363160251b889004612488565b968715612294578761212091611e82565b9660018060a01b0382168b5260026020528960408c2060ff815460081c16908161227d575b501561222657506001600160a01b0382168b52600260205260408b206008018054612171908390611e82565b90556001600160a01b0382168b52600260205260408b206009018054612198908390611e82565b90556040516001600160a01b03808b1692908416917fb16479bdac5b7099d9236d6fc6be3b30ff54188f4fd961686e1e1dc7ecb880379181906121dc908f83612473565b0390a35b6001600160a01b039081168a52600260205260408a205460101c16975b60ff80911690811461221257600101976120e0565b634e487b7160e01b8a52601160045260248afd5b906122757f117ca0cd821ecb7eadfea2d6927a67853908bdc351a386235215f5ab6071bfed916007612259828254611e82565b90556040516001600160a01b0386169490928392909183612473565b0390a26121e0565b60019150015461228c826125bb565b111538612145565b6001600160a01b039182168b52600260205260408b205460101c909116989096506121fd565b5091975091977f8af2c013a5a55c6d3ad5423522fe76c6f2eb831b5e23318276b3c678cb457fc99650926123289360649695808885041161232d575b506040516001600160a01b0390961698959687968190049304916b030e68b6d6e0acc82863363160251b049086611e8f565b0390a2565b61233c61234491898604611e75565b600754611e82565b600755386122f6565b506001600160a01b03811615156120ee565b634e487b7160e01b86526011600452602486fd5b506020823d60201161239f575b8161238d60209383611dbc565b810103126105b8576120049151611ffa565b3d9150612380565b6123b390959195611d93565b9338611fc8565b8680fd5b9092506020813d6020116123ea575b816123da60209383611dbc565b810103126123ba57519138611f90565b3d91506123cd565b6040513d89823e3d90fd5b6124159060203d602011610501576104f38183611dbc565b5038611f54565b634e487b7160e01b84526012600452602484fd5b9094506020813d602011612460575b8161244c60209383611dbc565b8101031261245c57519338611ee8565b8380fd5b3d915061243f565b6040513d86823e3d90fd5b6020909392919360ff60408201951681520152565b9060ff16600181146125a05760028114612585576003811461256a5760049081811461254e5760058114612532576006811461251b576007811461251b576008811015908161250f575b506124de575050600090565b6005820291808304600514901517156124fa57506103e8900490565b601190634e487b7160e01b6000525260246000fd5b600f91501115386124d2565b50818004600114821517156124fa57506064900490565b508160011b91808304600214901517156124fa57506064900490565b506003820291808304600314901517156124fa57506064900490565b508060021b9080820460041490151715611cdf576064900490565b50600581029080820460051490151715611cdf576064900490565b50601481029080820460141490151715611cdf576064900490565b60ff1660018111156125e85760048111156125e257600710156125dd57600a90565b600590565b50600290565b50600090565b6001600160401b038111611da65760051b60200190565b8051821015611c8e5760209160051b010190565b90918280612851575b612849578215918280612824575b6126e157600493845493600180860180961161280f5761264f866125ee565b9061266a60409761266289519485611dbc565b8084526125ee565b9260209283810194601f190136863760008087156127f1576001600160a01b038981168352600287528b83206003015416965b6001600160a01b03978816806127c8575b50505b81811061272b5750505080612710575b6127055750826126e9575b50506126e15750505163c5bb5bcd60e01b8152fd5b925060009150565b81600292935084166000525284846000200154161538806126cc565b939650929450505050565b508285166000526002825282600388600020015416156126c1565b8661273f61273883611cd0565b9285612605565b5116806000526002908188528c600020896003820154169081156127b5578f01548a16156127a25761277a61277386611cd0565b9587612605565b526000528652868c8c60002001541661279c61279584611cd0565b9385612605565b526126b1565b509c5060009b5050505050505050505050565b50909d50959b5050505050505050505050565b90925085928451156127dc575238806126ae565b60328e634e487b7160e01b6000525260246000fd5b6001600160a01b038981168352600287528b83208d0154169661269d565b601187634e487b7160e01b6000525260246000fd5b506001600160a01b038181166000908152600260205260409020600401541615612630565b915090600190565b506001600160a01b038281166000908152600260205260409020600301541615612622565b60ff600981815416612b83576005908154948515612b4a576000938484556046870287810460460361235f5760649004936128b18589611e75565b956128c160089488865589611e82565b9360038054808711612b42575b508299805b878110612aaf57508a15612a64575b86811061292957505050505050509160809391600080516020612bd58339815191529593600160ff19825416179055604051938452602084015260408301526060820152a1565b8a86868b8b61293786611c73565b60018060a01b03915490891b1c16808a52600292896020938585528c604097888220998a54851c1615612a505789015460068a015480821015612a485750995b6007998a0154808c1115612a405761298f908c611e75565b945b8515612a2b57916129ab8a926111bc886129d39796611e27565b94878252898952828220016129c1868254611e82565b90558681528888522001918254611e82565b9055600a80820291820403612a17579084939291612a046011612a129a9998978e8581528787522001918254611e82565b90558a525287200155611cd0565b6128e2565b634e487b7160e01b8b52601160045260248bfd5b505050505050505050505050612a1290611cd0565b508194612991565b905099612977565b5050505050505050505050612a1290611cd0565b505093509460809750859450612a91925061233c915095600080516020612bd58339815191529896611e82565b600755556040519182528060208301528060408301526060820152a1565b612ab881611c73565b905490841b1c6001600160a01b031685526002602052604085208054851c881615612b38576007878201546006830154808210600014612b305750915b015490818111612b10575b5050612b0b90611cd0565b6128d3565b9c612b22612b2892612b0b949f611e75565b90611e82565b9b9038612b00565b905091612af5565b50612b0b90611cd0565b9550386128ce565b60405162461bcd60e51b8152602060048201526011602482015270115b5c1d1e48189a5b985c9e481c1bdbdb607a1b6044820152606490fd5b60405162c9487960e41b8152600490fdfe34ff37874d7443037a85c6f390fe14f2ae3e8767355de0e63891ad4367c275398be0079c531659141344cd1fd0a4f28419497f9722a3daafe3b4186f6b6457e0a0ea5705200c9ffd36dc735fef1592c3234bb7e311fc1b0a444f6370d0620eae9b779b17422d0df92223018b32b4d1fa46e071723d6817e2486d003becc55f00a264697066735822122032a71cddd00438749e5445ca10420edd2ccae34db6e98b18d2d38cfc744b55f864736f6c63430008140033",
  "linkReferences": {},
  "deployedLinkReferences": {}
}