{
  "_format": "hh-sol-artifact-1",
  "contractName": "MvaultContract",
  "sourceName": "contracts/MvaultContract.sol",
  "abi": [
    {
      "inputs": [
        {
          "internalType": "address",
          "name": "_usdt",
          "type": "address"
        },
        {
          "internalType": "address",
          "name": "_mvaultToken",
          "type": "address"
        }
      ],
      "stateMutability": "nonpayable",
      "type": "constructor"
    },
    {
      "inputs": [],
      "name": "AlreadyActive",
      "type": "error"
    },
    {
      "inputs": [],
      "name": "AlreadyRegistered",
      "type": "error"
    },
    {
      "inputs": [],
      "name": "BinaryAlreadyDistributed",
      "type": "error"
    },
    {
      "inputs": [],
      "name": "BinaryNotDistributed",
      "type": "error"
    },
    {
      "inputs": [],
      "name": "BoardHandlerNotSet",
      "type": "error"
    },
    {
      "inputs": [],
      "name": "InsufficientBtcPool",
      "type": "error"
    },
    {
      "inputs": [],
      "name": "InsufficientBtcPoolForBoard",
      "type": "error"
    },
    {
      "inputs": [],
      "name": "InsufficientRebirthPool",
      "type": "error"
    },
    {
      "inputs": [],
      "name": "InsufficientUsdtBalance",
      "type": "error"
    },
    {
      "inputs": [],
      "name": "InsufficientVirtualBalance",
      "type": "error"
    },
    {
      "inputs": [],
      "name": "InvalidSponsor",
      "type": "error"
    },
    {
      "inputs": [],
      "name": "NoOpenBinarySlot",
      "type": "error"
    },
    {
      "inputs": [],
      "name": "NotRegistered",
      "type": "error"
    },
    {
      "inputs": [
        {
          "internalType": "address",
          "name": "owner",
          "type": "address"
        }
      ],
      "name": "OwnableInvalidOwner",
      "type": "error"
    },
    {
      "inputs": [
        {
          "internalType": "address",
          "name": "account",
          "type": "address"
        }
      ],
      "name": "OwnableUnauthorizedAccount",
      "type": "error"
    },
    {
      "inputs": [],
      "name": "PositionTaken",
      "type": "error"
    },
    {
      "inputs": [],
      "name": "ReentrancyGuardReentrantCall",
      "type": "error"
    },
    {
      "inputs": [],
      "name": "TransferFailed",
      "type": "error"
    },
    {
      "inputs": [],
      "name": "ZeroAddress",
      "type": "error"
    },
    {
      "inputs": [],
      "name": "ZeroAmount",
      "type": "error"
    },
    {
      "anonymous": false,
      "inputs": [
        {
          "indexed": true,
          "internalType": "address",
          "name": "user",
          "type": "address"
        },
        {
          "indexed": false,
          "internalType": "uint256",
          "name": "mvtMinted",
          "type": "uint256"
        },
        {
          "indexed": false,
          "internalType": "uint256",
          "name": "grossMvt",
          "type": "uint256"
        },
        {
          "indexed": false,
          "internalType": "uint256",
          "name": "levelAmt",
          "type": "uint256"
        },
        {
          "indexed": false,
          "internalType": "uint256",
          "name": "binaryAmt",
          "type": "uint256"
        },
        {
          "indexed": false,
          "internalType": "uint256",
          "name": "adminAmt",
          "type": "uint256"
        }
      ],
      "name": "Activated",
      "type": "event"
    },
    {
      "anonymous": false,
      "inputs": [
        {
          "indexed": true,
          "internalType": "address",
          "name": "to",
          "type": "address"
        },
        {
          "indexed": false,
          "internalType": "uint256",
          "name": "amount",
          "type": "uint256"
        }
      ],
      "name": "AdminWithdraw",
      "type": "event"
    },
    {
      "anonymous": false,
      "inputs": [
        {
          "indexed": false,
          "internalType": "uint256",
          "name": "totalPool",
          "type": "uint256"
        },
        {
          "indexed": false,
          "internalType": "uint256",
          "name": "binary70",
          "type": "uint256"
        },
        {
          "indexed": false,
          "internalType": "uint256",
          "name": "powerLeg30",
          "type": "uint256"
        },
        {
          "indexed": false,
          "internalType": "uint256",
          "name": "totalPairs",
          "type": "uint256"
        }
      ],
      "name": "BinaryIncomeDistributed",
      "type": "event"
    },
    {
      "anonymous": false,
      "inputs": [
        {
          "indexed": true,
          "internalType": "address",
          "name": "user",
          "type": "address"
        },
        {
          "indexed": false,
          "internalType": "uint256",
          "name": "newPairs",
          "type": "uint256"
        },
        {
          "indexed": false,
          "internalType": "uint256",
          "name": "amount",
          "type": "uint256"
        }
      ],
      "name": "BinaryIncomePaid",
      "type": "event"
    },
    {
      "anonymous": false,
      "inputs": [
        {
          "indexed": true,
          "internalType": "address",
          "name": "user",
          "type": "address"
        },
        {
          "indexed": false,
          "internalType": "uint256",
          "name": "boardLevel",
          "type": "uint256"
        },
        {
          "indexed": false,
          "internalType": "uint256",
          "name": "usdtDeducted",
          "type": "uint256"
        }
      ],
      "name": "BoardEntered",
      "type": "event"
    },
    {
      "anonymous": false,
      "inputs": [
        {
          "indexed": true,
          "internalType": "address",
          "name": "newHandler",
          "type": "address"
        }
      ],
      "name": "BoardHandlerUpdated",
      "type": "event"
    },
    {
      "anonymous": false,
      "inputs": [
        {
          "indexed": true,
          "internalType": "address",
          "name": "user",
          "type": "address"
        },
        {
          "indexed": false,
          "internalType": "uint256",
          "name": "usdtAmount",
          "type": "uint256"
        },
        {
          "indexed": false,
          "internalType": "uint256",
          "name": "boardLevel",
          "type": "uint256"
        }
      ],
      "name": "BoardRewardCredited",
      "type": "event"
    },
    {
      "anonymous": false,
      "inputs": [
        {
          "indexed": true,
          "internalType": "address",
          "name": "user",
          "type": "address"
        },
        {
          "indexed": false,
          "internalType": "uint256",
          "name": "amount",
          "type": "uint256"
        }
      ],
      "name": "BtcPoolCredited",
      "type": "event"
    },
    {
      "anonymous": false,
      "inputs": [
        {
          "indexed": true,
          "internalType": "address",
          "name": "user",
          "type": "address"
        },
        {
          "indexed": false,
          "internalType": "uint256",
          "name": "amount",
          "type": "uint256"
        }
      ],
      "name": "BtcPoolWithdrawn",
      "type": "event"
    },
    {
      "anonymous": false,
      "inputs": [
        {
          "indexed": true,
          "internalType": "address",
          "name": "to",
          "type": "address"
        },
        {
          "indexed": true,
          "internalType": "address",
          "name": "from",
          "type": "address"
        },
        {
          "indexed": false,
          "internalType": "uint8",
          "name": "level",
          "type": "uint8"
        },
        {
          "indexed": false,
          "internalType": "uint256",
          "name": "amount",
          "type": "uint256"
        }
      ],
      "name": "LevelIncomePaid",
      "type": "event"
    },
    {
      "anonymous": false,
      "inputs": [
        {
          "indexed": true,
          "internalType": "address",
          "name": "upline",
          "type": "address"
        },
        {
          "indexed": false,
          "internalType": "uint8",
          "name": "level",
          "type": "uint8"
        },
        {
          "indexed": false,
          "internalType": "uint256",
          "name": "amount",
          "type": "uint256"
        }
      ],
      "name": "LevelIncomeSkipped",
      "type": "event"
    },
    {
      "anonymous": false,
      "inputs": [
        {
          "indexed": false,
          "internalType": "address",
          "name": "newToken",
          "type": "address"
        }
      ],
      "name": "MvaultTokenUpdated",
      "type": "event"
    },
    {
      "anonymous": false,
      "inputs": [
        {
          "indexed": true,
          "internalType": "address",
          "name": "user",
          "type": "address"
        },
        {
          "indexed": false,
          "internalType": "uint256",
          "name": "mvtAmount",
          "type": "uint256"
        },
        {
          "indexed": false,
          "internalType": "uint256",
          "name": "usdtNet",
          "type": "uint256"
        },
        {
          "indexed": false,
          "internalType": "uint256",
          "name": "usdtToBtcPool",
          "type": "uint256"
        },
        {
          "indexed": false,
          "internalType": "uint256",
          "name": "usdtToIncome",
          "type": "uint256"
        },
        {
          "indexed": false,
          "internalType": "uint256",
          "name": "usdtToRebirth",
          "type": "uint256"
        }
      ],
      "name": "MvtSold",
      "type": "event"
    },
    {
      "anonymous": false,
      "inputs": [
        {
          "indexed": true,
          "internalType": "address",
          "name": "previousOwner",
          "type": "address"
        },
        {
          "indexed": true,
          "internalType": "address",
          "name": "newOwner",
          "type": "address"
        }
      ],
      "name": "OwnershipTransferred",
      "type": "event"
    },
    {
      "anonymous": false,
      "inputs": [
        {
          "indexed": false,
          "internalType": "uint256",
          "name": "totalPowerLeg30",
          "type": "uint256"
        },
        {
          "indexed": false,
          "internalType": "uint256",
          "name": "totalPowerLegs",
          "type": "uint256"
        }
      ],
      "name": "PowerLegDistributed",
      "type": "event"
    },
    {
      "anonymous": false,
      "inputs": [
        {
          "indexed": true,
          "internalType": "address",
          "name": "user",
          "type": "address"
        },
        {
          "indexed": false,
          "internalType": "uint256",
          "name": "powerLegPoints",
          "type": "uint256"
        },
        {
          "indexed": false,
          "internalType": "uint256",
          "name": "amount",
          "type": "uint256"
        }
      ],
      "name": "PowerLegIncomePaid",
      "type": "event"
    },
    {
      "anonymous": false,
      "inputs": [
        {
          "indexed": true,
          "internalType": "address",
          "name": "user",
          "type": "address"
        }
      ],
      "name": "ProfileUpdated",
      "type": "event"
    },
    {
      "anonymous": false,
      "inputs": [
        {
          "indexed": true,
          "internalType": "address",
          "name": "mainAccount",
          "type": "address"
        },
        {
          "indexed": true,
          "internalType": "address",
          "name": "subAccount",
          "type": "address"
        },
        {
          "indexed": false,
          "internalType": "uint256",
          "name": "rebirthIndex",
          "type": "uint256"
        }
      ],
      "name": "Reborn",
      "type": "event"
    },
    {
      "anonymous": false,
      "inputs": [
        {
          "indexed": true,
          "internalType": "address",
          "name": "user",
          "type": "address"
        },
        {
          "indexed": true,
          "internalType": "address",
          "name": "sponsor",
          "type": "address"
        },
        {
          "indexed": true,
          "internalType": "address",
          "name": "binaryParent",
          "type": "address"
        },
        {
          "indexed": false,
          "internalType": "bool",
          "name": "placeLeft",
          "type": "bool"
        }
      ],
      "name": "Registered",
      "type": "event"
    },
    {
      "anonymous": false,
      "inputs": [
        {
          "indexed": true,
          "internalType": "address",
          "name": "to",
          "type": "address"
        },
        {
          "indexed": false,
          "internalType": "uint256",
          "name": "amount",
          "type": "uint256"
        }
      ],
      "name": "ReserveWithdraw",
      "type": "event"
    },
    {
      "anonymous": false,
      "inputs": [
        {
          "indexed": true,
          "internalType": "address",
          "name": "to",
          "type": "address"
        },
        {
          "indexed": true,
          "internalType": "address",
          "name": "from",
          "type": "address"
        },
        {
          "indexed": false,
          "internalType": "uint8",
          "name": "level",
          "type": "uint8"
        },
        {
          "indexed": false,
          "internalType": "uint256",
          "name": "usdtAmount",
          "type": "uint256"
        }
      ],
      "name": "StakeLevelIncomePaid",
      "type": "event"
    },
    {
      "anonymous": false,
      "inputs": [
        {
          "indexed": true,
          "internalType": "address",
          "name": "user",
          "type": "address"
        },
        {
          "indexed": false,
          "internalType": "uint256",
          "name": "stakeIndex",
          "type": "uint256"
        },
        {
          "indexed": false,
          "internalType": "uint256",
          "name": "usdtAmount",
          "type": "uint256"
        },
        {
          "indexed": false,
          "internalType": "uint256",
          "name": "mvtMinted",
          "type": "uint256"
        },
        {
          "indexed": false,
          "internalType": "bool",
          "name": "isLocked",
          "type": "bool"
        }
      ],
      "name": "Staked",
      "type": "event"
    },
    {
      "anonymous": false,
      "inputs": [
        {
          "indexed": true,
          "internalType": "address",
          "name": "user",
          "type": "address"
        },
        {
          "indexed": false,
          "internalType": "uint256",
          "name": "stakeIndex",
          "type": "uint256"
        },
        {
          "indexed": false,
          "internalType": "uint256",
          "name": "mvtReturned",
          "type": "uint256"
        },
        {
          "indexed": false,
          "internalType": "uint256",
          "name": "usdtReceived",
          "type": "uint256"
        }
      ],
      "name": "Unstaked",
      "type": "event"
    },
    {
      "anonymous": false,
      "inputs": [
        {
          "indexed": true,
          "internalType": "address",
          "name": "user",
          "type": "address"
        },
        {
          "indexed": false,
          "internalType": "uint256",
          "name": "amount",
          "type": "uint256"
        }
      ],
      "name": "UsdtWithdrawn",
      "type": "event"
    },
    {
      "inputs": [],
      "name": "ADMIN_ALLOC",
      "outputs": [
        {
          "internalType": "uint256",
          "name": "",
          "type": "uint256"
        }
      ],
      "stateMutability": "view",
      "type": "function"
    },
    {
      "inputs": [],
      "name": "BINARY_ALLOC",
      "outputs": [
        {
          "internalType": "uint256",
          "name": "",
          "type": "uint256"
        }
      ],
      "stateMutability": "view",
      "type": "function"
    },
    {
      "inputs": [],
      "name": "BTC_POOL_RATE",
      "outputs": [
        {
          "internalType": "uint256",
          "name": "",
          "type": "uint256"
        }
      ],
      "stateMutability": "view",
      "type": "function"
    },
    {
      "inputs": [],
      "name": "INCOME_LIMIT",
      "outputs": [
        {
          "internalType": "uint256",
          "name": "",
          "type": "uint256"
        }
      ],
      "stateMutability": "view",
      "type": "function"
    },
    {
      "inputs": [],
      "name": "LEVEL_ALLOC",
      "outputs": [
        {
          "internalType": "uint256",
          "name": "",
          "type": "uint256"
        }
      ],
      "stateMutability": "view",
      "type": "function"
    },
    {
      "inputs": [],
      "name": "MIN_STAKE_USDT",
      "outputs": [
        {
          "internalType": "uint256",
          "name": "",
          "type": "uint256"
        }
      ],
      "stateMutability": "view",
      "type": "function"
    },
    {
      "inputs": [],
      "name": "PACKAGE_PRICE",
      "outputs": [
        {
          "internalType": "uint256",
          "name": "",
          "type": "uint256"
        }
      ],
      "stateMutability": "view",
      "type": "function"
    },
    {
      "inputs": [],
      "name": "activate",
      "outputs": [],
      "stateMutability": "nonpayable",
      "type": "function"
    },
    {
      "inputs": [],
      "name": "adminPool",
      "outputs": [
        {
          "internalType": "uint256",
          "name": "",
          "type": "uint256"
        }
      ],
      "stateMutability": "view",
      "type": "function"
    },
    {
      "inputs": [
        {
          "internalType": "uint256",
          "name": "",
          "type": "uint256"
        }
      ],
      "name": "allUsers",
      "outputs": [
        {
          "internalType": "address",
          "name": "",
          "type": "address"
        }
      ],
      "stateMutability": "view",
      "type": "function"
    },
    {
      "inputs": [],
      "name": "binaryPool",
      "outputs": [
        {
          "internalType": "uint256",
          "name": "",
          "type": "uint256"
        }
      ],
      "stateMutability": "view",
      "type": "function"
    },
    {
      "inputs": [
        {
          "internalType": "address",
          "name": "",
          "type": "address"
        }
      ],
      "name": "boardEntryCount",
      "outputs": [
        {
          "internalType": "uint256",
          "name": "",
          "type": "uint256"
        }
      ],
      "stateMutability": "view",
      "type": "function"
    },
    {
      "inputs": [],
      "name": "boardHandler",
      "outputs": [
        {
          "internalType": "contract IMvaultBoardMatrix",
          "name": "",
          "type": "address"
        }
      ],
      "stateMutability": "view",
      "type": "function"
    },
    {
      "inputs": [
        {
          "internalType": "address",
          "name": "_user",
          "type": "address"
        }
      ],
      "name": "canEnterBoard",
      "outputs": [
        {
          "internalType": "bool",
          "name": "eligible",
          "type": "bool"
        },
        {
          "internalType": "uint256",
          "name": "btcBalance",
          "type": "uint256"
        },
        {
          "internalType": "uint256",
          "name": "boardPrice",
          "type": "uint256"
        }
      ],
      "stateMutability": "view",
      "type": "function"
    },
    {
      "inputs": [
        {
          "internalType": "address",
          "name": "user",
          "type": "address"
        }
      ],
      "name": "canRebirth",
      "outputs": [
        {
          "internalType": "bool",
          "name": "eligible",
          "type": "bool"
        },
        {
          "internalType": "uint256",
          "name": "poolBalance",
          "type": "uint256"
        }
      ],
      "stateMutability": "view",
      "type": "function"
    },
    {
      "inputs": [
        {
          "internalType": "address",
          "name": "_user",
          "type": "address"
        },
        {
          "internalType": "uint256",
          "name": "_usdtAmount",
          "type": "uint256"
        },
        {
          "internalType": "uint256",
          "name": "_boardLevel",
          "type": "uint256"
        }
      ],
      "name": "creditBoardReward",
      "outputs": [],
      "stateMutability": "nonpayable",
      "type": "function"
    },
    {
      "inputs": [
        {
          "internalType": "uint256",
          "name": "offset",
          "type": "uint256"
        },
        {
          "internalType": "uint256",
          "name": "limit",
          "type": "uint256"
        }
      ],
      "name": "distributeBinaryIncome",
      "outputs": [],
      "stateMutability": "nonpayable",
      "type": "function"
    },
    {
      "inputs": [
        {
          "internalType": "uint256",
          "name": "offset",
          "type": "uint256"
        },
        {
          "internalType": "uint256",
          "name": "limit",
          "type": "uint256"
        }
      ],
      "name": "distributePowerLeg",
      "outputs": [],
      "stateMutability": "nonpayable",
      "type": "function"
    },
    {
      "inputs": [],
      "name": "enterBoardPool",
      "outputs": [],
      "stateMutability": "nonpayable",
      "type": "function"
    },
    {
      "inputs": [
        {
          "internalType": "address",
          "name": "user",
          "type": "address"
        }
      ],
      "name": "getActiveStakes",
      "outputs": [
        {
          "internalType": "uint256[]",
          "name": "indices",
          "type": "uint256[]"
        },
        {
          "internalType": "uint256[]",
          "name": "mvtAmounts",
          "type": "uint256[]"
        },
        {
          "internalType": "uint256[]",
          "name": "usdtInvested",
          "type": "uint256[]"
        },
        {
          "internalType": "uint256[]",
          "name": "stakedAts",
          "type": "uint256[]"
        },
        {
          "internalType": "bool[]",
          "name": "isLocked",
          "type": "bool[]"
        }
      ],
      "stateMutability": "view",
      "type": "function"
    },
    {
      "inputs": [],
      "name": "getAllUsersCount",
      "outputs": [
        {
          "internalType": "uint256",
          "name": "",
          "type": "uint256"
        }
      ],
      "stateMutability": "view",
      "type": "function"
    },
    {
      "inputs": [
        {
          "internalType": "uint256",
          "name": "_level",
          "type": "uint256"
        }
      ],
      "name": "getBoardCurrentIndex",
      "outputs": [
        {
          "internalType": "uint256",
          "name": "",
          "type": "uint256"
        }
      ],
      "stateMutability": "view",
      "type": "function"
    },
    {
      "inputs": [
        {
          "internalType": "uint256",
          "name": "_level",
          "type": "uint256"
        },
        {
          "internalType": "uint256",
          "name": "_index",
          "type": "uint256"
        }
      ],
      "name": "getBoardMatrixInfo",
      "outputs": [
        {
          "internalType": "address",
          "name": "owner",
          "type": "address"
        },
        {
          "internalType": "uint256",
          "name": "filledCount",
          "type": "uint256"
        },
        {
          "internalType": "bool",
          "name": "completed",
          "type": "bool"
        }
      ],
      "stateMutability": "view",
      "type": "function"
    },
    {
      "inputs": [
        {
          "internalType": "uint256",
          "name": "_level",
          "type": "uint256"
        }
      ],
      "name": "getBoardPrice",
      "outputs": [
        {
          "internalType": "uint256",
          "name": "",
          "type": "uint256"
        }
      ],
      "stateMutability": "view",
      "type": "function"
    },
    {
      "inputs": [
        {
          "internalType": "uint256",
          "name": "_level",
          "type": "uint256"
        }
      ],
      "name": "getBoardQueueLength",
      "outputs": [
        {
          "internalType": "uint256",
          "name": "",
          "type": "uint256"
        }
      ],
      "stateMutability": "view",
      "type": "function"
    },
    {
      "inputs": [
        {
          "internalType": "address",
          "name": "u",
          "type": "address"
        }
      ],
      "name": "getBtcPoolInfo",
      "outputs": [
        {
          "internalType": "uint256",
          "name": "btcPoolBalance",
          "type": "uint256"
        },
        {
          "internalType": "uint256",
          "name": "totalBtcEarned",
          "type": "uint256"
        }
      ],
      "stateMutability": "view",
      "type": "function"
    },
    {
      "inputs": [
        {
          "internalType": "address",
          "name": "u",
          "type": "address"
        }
      ],
      "name": "getCurrentBinaryPairs",
      "outputs": [
        {
          "internalType": "uint256",
          "name": "currentPairs",
          "type": "uint256"
        },
        {
          "internalType": "uint256",
          "name": "newPairs",
          "type": "uint256"
        }
      ],
      "stateMutability": "view",
      "type": "function"
    },
    {
      "inputs": [],
      "name": "getMvtContractBalance",
      "outputs": [
        {
          "internalType": "uint256",
          "name": "",
          "type": "uint256"
        }
      ],
      "stateMutability": "view",
      "type": "function"
    },
    {
      "inputs": [],
      "name": "getMvtPrice",
      "outputs": [
        {
          "internalType": "uint256",
          "name": "buyPrice",
          "type": "uint256"
        },
        {
          "internalType": "uint256",
          "name": "sellPrice",
          "type": "uint256"
        }
      ],
      "stateMutability": "view",
      "type": "function"
    },
    {
      "inputs": [],
      "name": "getPoolBalances",
      "outputs": [
        {
          "internalType": "uint256",
          "name": "binary",
          "type": "uint256"
        },
        {
          "internalType": "uint256",
          "name": "reserve",
          "type": "uint256"
        },
        {
          "internalType": "uint256",
          "name": "admin",
          "type": "uint256"
        }
      ],
      "stateMutability": "view",
      "type": "function"
    },
    {
      "inputs": [
        {
          "internalType": "address",
          "name": "_user",
          "type": "address"
        }
      ],
      "name": "getProfile",
      "outputs": [
        {
          "internalType": "string",
          "name": "displayName",
          "type": "string"
        },
        {
          "internalType": "string",
          "name": "email",
          "type": "string"
        },
        {
          "internalType": "string",
          "name": "phone",
          "type": "string"
        },
        {
          "internalType": "string",
          "name": "country",
          "type": "string"
        },
        {
          "internalType": "bool",
          "name": "profileSet",
          "type": "bool"
        }
      ],
      "stateMutability": "view",
      "type": "function"
    },
    {
      "inputs": [
        {
          "internalType": "address",
          "name": "user",
          "type": "address"
        },
        {
          "internalType": "uint256",
          "name": "index",
          "type": "uint256"
        }
      ],
      "name": "getStake",
      "outputs": [
        {
          "internalType": "uint256",
          "name": "mvtAmount",
          "type": "uint256"
        },
        {
          "internalType": "uint256",
          "name": "usdtInvested",
          "type": "uint256"
        },
        {
          "internalType": "uint256",
          "name": "stakedAt",
          "type": "uint256"
        },
        {
          "internalType": "bool",
          "name": "isLocked",
          "type": "bool"
        },
        {
          "internalType": "bool",
          "name": "active",
          "type": "bool"
        }
      ],
      "stateMutability": "view",
      "type": "function"
    },
    {
      "inputs": [
        {
          "internalType": "address",
          "name": "user",
          "type": "address"
        }
      ],
      "name": "getStakeCount",
      "outputs": [
        {
          "internalType": "uint256",
          "name": "",
          "type": "uint256"
        }
      ],
      "stateMutability": "view",
      "type": "function"
    },
    {
      "inputs": [
        {
          "internalType": "address",
          "name": "_user",
          "type": "address"
        }
      ],
      "name": "getUserBoardStats",
      "outputs": [
        {
          "internalType": "uint256",
          "name": "entries",
          "type": "uint256"
        },
        {
          "internalType": "uint256",
          "name": "totalRewards",
          "type": "uint256"
        }
      ],
      "stateMutability": "view",
      "type": "function"
    },
    {
      "inputs": [
        {
          "internalType": "address",
          "name": "u",
          "type": "address"
        }
      ],
      "name": "getUserInfo",
      "outputs": [
        {
          "internalType": "bool",
          "name": "isRegistered",
          "type": "bool"
        },
        {
          "internalType": "bool",
          "name": "isActive",
          "type": "bool"
        },
        {
          "internalType": "address",
          "name": "sponsor",
          "type": "address"
        },
        {
          "internalType": "uint256",
          "name": "directCount",
          "type": "uint256"
        },
        {
          "internalType": "address",
          "name": "binaryParent",
          "type": "address"
        },
        {
          "internalType": "bool",
          "name": "placedLeft",
          "type": "bool"
        },
        {
          "internalType": "address",
          "name": "leftChild",
          "type": "address"
        },
        {
          "internalType": "address",
          "name": "rightChild",
          "type": "address"
        },
        {
          "internalType": "uint256",
          "name": "leftSubUsers",
          "type": "uint256"
        },
        {
          "internalType": "uint256",
          "name": "rightSubUsers",
          "type": "uint256"
        },
        {
          "internalType": "uint256",
          "name": "mvtBalance",
          "type": "uint256"
        },
        {
          "internalType": "uint256",
          "name": "totalReceived",
          "type": "uint256"
        },
        {
          "internalType": "uint256",
          "name": "totalSold",
          "type": "uint256"
        },
        {
          "internalType": "uint256",
          "name": "incomeLimit",
          "type": "uint256"
        },
        {
          "internalType": "uint256",
          "name": "usdtBalance",
          "type": "uint256"
        },
        {
          "internalType": "uint256",
          "name": "rebirthPool",
          "type": "uint256"
        },
        {
          "internalType": "uint256",
          "name": "btcPoolBalance",
          "type": "uint256"
        },
        {
          "internalType": "uint256",
          "name": "powerLegPoints",
          "type": "uint256"
        },
        {
          "internalType": "uint256",
          "name": "matchedPairs",
          "type": "uint256"
        },
        {
          "internalType": "address",
          "name": "mainAccount",
          "type": "address"
        },
        {
          "internalType": "uint256",
          "name": "rebirthCount",
          "type": "uint256"
        },
        {
          "internalType": "uint256",
          "name": "joinedAt",
          "type": "uint256"
        }
      ],
      "stateMutability": "view",
      "type": "function"
    },
    {
      "inputs": [],
      "name": "mvaultToken",
      "outputs": [
        {
          "internalType": "contract IMvaultToken",
          "name": "",
          "type": "address"
        }
      ],
      "stateMutability": "view",
      "type": "function"
    },
    {
      "inputs": [],
      "name": "owner",
      "outputs": [
        {
          "internalType": "address",
          "name": "",
          "type": "address"
        }
      ],
      "stateMutability": "view",
      "type": "function"
    },
    {
      "inputs": [
        {
          "internalType": "address",
          "name": "subAccount",
          "type": "address"
        },
        {
          "internalType": "bool",
          "name": "placeLeft",
          "type": "bool"
        }
      ],
      "name": "rebirth",
      "outputs": [],
      "stateMutability": "nonpayable",
      "type": "function"
    },
    {
      "inputs": [
        {
          "internalType": "address",
          "name": "sponsor",
          "type": "address"
        },
        {
          "internalType": "address",
          "name": "binaryParent",
          "type": "address"
        },
        {
          "internalType": "bool",
          "name": "placeLeft",
          "type": "bool"
        }
      ],
      "name": "register",
      "outputs": [],
      "stateMutability": "nonpayable",
      "type": "function"
    },
    {
      "inputs": [],
      "name": "renounceOwnership",
      "outputs": [],
      "stateMutability": "nonpayable",
      "type": "function"
    },
    {
      "inputs": [],
      "name": "reservePool",
      "outputs": [
        {
          "internalType": "uint256",
          "name": "",
          "type": "uint256"
        }
      ],
      "stateMutability": "view",
      "type": "function"
    },
    {
      "inputs": [
        {
          "internalType": "uint256",
          "name": "amount",
          "type": "uint256"
        }
      ],
      "name": "sellMvt",
      "outputs": [],
      "stateMutability": "nonpayable",
      "type": "function"
    },
    {
      "inputs": [
        {
          "internalType": "address",
          "name": "_boardHandler",
          "type": "address"
        }
      ],
      "name": "setBoardHandler",
      "outputs": [],
      "stateMutability": "nonpayable",
      "type": "function"
    },
    {
      "inputs": [
        {
          "internalType": "address",
          "name": "_mvaultToken",
          "type": "address"
        }
      ],
      "name": "setMvaultToken",
      "outputs": [],
      "stateMutability": "nonpayable",
      "type": "function"
    },
    {
      "inputs": [
        {
          "internalType": "string",
          "name": "_displayName",
          "type": "string"
        },
        {
          "internalType": "string",
          "name": "_email",
          "type": "string"
        },
        {
          "internalType": "string",
          "name": "_phone",
          "type": "string"
        },
        {
          "internalType": "string",
          "name": "_country",
          "type": "string"
        }
      ],
      "name": "setProfile",
      "outputs": [],
      "stateMutability": "nonpayable",
      "type": "function"
    },
    {
      "inputs": [
        {
          "internalType": "uint256",
          "name": "usdtAmount",
          "type": "uint256"
        },
        {
          "internalType": "bool",
          "name": "isLocked",
          "type": "bool"
        }
      ],
      "name": "stake",
      "outputs": [],
      "stateMutability": "nonpayable",
      "type": "function"
    },
    {
      "inputs": [
        {
          "internalType": "address",
          "name": "",
          "type": "address"
        }
      ],
      "name": "totalBoardRewardsEarned",
      "outputs": [
        {
          "internalType": "uint256",
          "name": "",
          "type": "uint256"
        }
      ],
      "stateMutability": "view",
      "type": "function"
    },
    {
      "inputs": [],
      "name": "totalUsers",
      "outputs": [
        {
          "internalType": "uint256",
          "name": "",
          "type": "uint256"
        }
      ],
      "stateMutability": "view",
      "type": "function"
    },
    {
      "inputs": [
        {
          "internalType": "address",
          "name": "newOwner",
          "type": "address"
        }
      ],
      "name": "transferOwnership",
      "outputs": [],
      "stateMutability": "nonpayable",
      "type": "function"
    },
    {
      "inputs": [
        {
          "internalType": "uint256",
          "name": "stakeIndex",
          "type": "uint256"
        }
      ],
      "name": "unstake",
      "outputs": [],
      "stateMutability": "nonpayable",
      "type": "function"
    },
    {
      "inputs": [],
      "name": "usdtToken",
      "outputs": [
        {
          "internalType": "contract IERC20",
          "name": "",
          "type": "address"
        }
      ],
      "stateMutability": "view",
      "type": "function"
    },
    {
      "inputs": [
        {
          "internalType": "address",
          "name": "",
          "type": "address"
        }
      ],
      "name": "users",
      "outputs": [
        {
          "internalType": "bool",
          "name": "isRegistered",
          "type": "bool"
        },
        {
          "internalType": "bool",
          "name": "isActive",
          "type": "bool"
        },
        {
          "internalType": "address",
          "name": "sponsor",
          "type": "address"
        },
        {
          "internalType": "uint256",
          "name": "directCount",
          "type": "uint256"
        },
        {
          "internalType": "address",
          "name": "binaryParent",
          "type": "address"
        },
        {
          "internalType": "bool",
          "name": "placedLeft",
          "type": "bool"
        },
        {
          "internalType": "address",
          "name": "leftChild",
          "type": "address"
        },
        {
          "internalType": "address",
          "name": "rightChild",
          "type": "address"
        },
        {
          "internalType": "uint256",
          "name": "leftSubUsers",
          "type": "uint256"
        },
        {
          "internalType": "uint256",
          "name": "rightSubUsers",
          "type": "uint256"
        },
        {
          "internalType": "uint256",
          "name": "matchedPairs",
          "type": "uint256"
        },
        {
          "internalType": "uint256",
          "name": "mvtBalance",
          "type": "uint256"
        },
        {
          "internalType": "uint256",
          "name": "totalReceived",
          "type": "uint256"
        },
        {
          "internalType": "uint256",
          "name": "totalSold",
          "type": "uint256"
        },
        {
          "internalType": "uint256",
          "name": "incomeLimit",
          "type": "uint256"
        },
        {
          "internalType": "uint256",
          "name": "usdtBalance",
          "type": "uint256"
        },
        {
          "internalType": "uint256",
          "name": "rebirthPool",
          "type": "uint256"
        },
        {
          "internalType": "uint256",
          "name": "totalUsdtEarned",
          "type": "uint256"
        },
        {
          "internalType": "uint256",
          "name": "btcPoolBalance",
          "type": "uint256"
        },
        {
          "internalType": "uint256",
          "name": "totalBtcEarned",
          "type": "uint256"
        },
        {
          "internalType": "uint256",
          "name": "powerLegPoints",
          "type": "uint256"
        },
        {
          "internalType": "address",
          "name": "mainAccount",
          "type": "address"
        },
        {
          "internalType": "uint256",
          "name": "rebirthCount",
          "type": "uint256"
        },
        {
          "internalType": "uint256",
          "name": "joinedAt",
          "type": "uint256"
        },
        {
          "internalType": "string",
          "name": "displayName",
          "type": "string"
        },
        {
          "internalType": "string",
          "name": "email",
          "type": "string"
        },
        {
          "internalType": "string",
          "name": "phone",
          "type": "string"
        },
        {
          "internalType": "string",
          "name": "country",
          "type": "string"
        },
        {
          "internalType": "bool",
          "name": "profileSet",
          "type": "bool"
        }
      ],
      "stateMutability": "view",
      "type": "function"
    },
    {
      "inputs": [
        {
          "internalType": "address",
          "name": "to",
          "type": "address"
        },
        {
          "internalType": "uint256",
          "name": "amount",
          "type": "uint256"
        }
      ],
      "name": "withdrawAdminPool",
      "outputs": [],
      "stateMutability": "nonpayable",
      "type": "function"
    },
    {
      "inputs": [
        {
          "internalType": "uint256",
          "name": "amount",
          "type": "uint256"
        }
      ],
      "name": "withdrawBtcPool",
      "outputs": [],
      "stateMutability": "nonpayable",
      "type": "function"
    },
    {
      "inputs": [
        {
          "internalType": "address",
          "name": "to",
          "type": "address"
        },
        {
          "internalType": "uint256",
          "name": "amount",
          "type": "uint256"
        }
      ],
      "name": "withdrawReservePool",
      "outputs": [],
      "stateMutability": "nonpayable",
      "type": "function"
    },
    {
      "inputs": [
        {
          "internalType": "uint256",
          "name": "amount",
          "type": "uint256"
        }
      ],
      "name": "withdrawUsdt",
      "outputs": [],
      "stateMutability": "nonpayable",
      "type": "function"
    }
  ],
  "bytecode": "0x60a0346200017c57601f62004fb738819003918201601f19168301916001600160401b03831184841017620001815780849260409485528339810103126200017c576200005a6020620000528362000197565b920162000197565b90331562000163576000549160018060a01b03199233848216176000556040519060018060a01b03938491823391167f8be0079c531659141344cd1fd0a4f28419497f9722a3daafe3b4186f6b6457e0600080a360017f9b779b17422d0df92223018b32b4d1fa46e071723d6817e2486d003becc55f005516908115801562000158575b62000149575060805216906001541617600155604051614e0a9081620001ad823960805181818161074e01528181610a9d01528181610db001528181610f060152818161115a015281816118db0152818161257201528181612edf0152818161388c0152613eba0152f35b63d92e233d60e01b8152600490fd5b5083831615620000de565b604051631e4fbdf760e01b815260006004820152602490fd5b600080fd5b634e487b7160e01b600052604160045260246000fd5b51906001600160a01b03821682036200017c5756fe61032080604052600436101561001457600080fd5b600090813560e01c9081630266f0441461398857508063039ccc261461396457806303c3ecb71461391e5780630f15f4c0146138225780630f53a470146137625780631747e0b0146135025780631ce5e894146134905780631f6259d5146134675780632335821b1461342e5780632808bc8d1461336a5780632d641f081461332d5780632e17de7814612e0a57806338abfc4114612dec5780633ac272c214612dcd57806344e374d514610d2257806347cd519114612dae57806352375bb114612d8057806355509c8f14612800578063634f627e146124ec5780636386c1c71461232157806368ddb2b514612249578063715018a6146122015780637753784414610d225780637f1b4064146121e35780638431fdd7146121bf5780638a8f042914611f7a5780638da5cb5b14611f5357806392446e3014611f3757806394915dd014611c585780639499a35114611c1f578063a2bdedf414611bdb578063a87430ba1461190a578063a98ad46c146118c5578063aa33f5d514611553578063aa3937571461152f578063abe50f1914610e75578063b58e027814610d45578063b86a1fb214610d27578063be648bdb14610d22578063bff1f9e114610d04578063c9d484cf14610cdb578063ce8292f514610c47578063cf57ee6914610c0e578063cfd4766314610b7f578063d3635a0214610a32578063d4a9028614610960578063e3ba9bda146108f6578063e4093a6614610690578063e51cb53014610642578063eb63e1c21461061b578063ec50324a1461051c578063f00b0093146104e3578063f0b7b9dc146103c1578063f24c536a14610348578063f2fde38b146102d25763fb72ca351461028a57600080fd5b346102cf5760203660031901126102cf576040906001600160a01b036102ae6139a4565b168152600b602052818082205491600c602052205482519182526020820152f35b80fd5b50346102cf5760203660031901126102cf576102ec6139a4565b6102f4613c14565b6001600160a01b0390811690811561032f576000548260018060a01b031982161760005516600080516020614d55833981519152600080a380f35b604051631e4fbdf760e01b815260048101849052602490fd5b50346102cf5760203660031901126102cf576040906001600160a01b0361036d6139a4565b1681526003602052818120906007600583015460068401548082106000146103b95750925b0154808311156103b3576103a7915082613c79565b82519182526020820152f35b506103a7565b905092610392565b50346102cf5760603660031901126102cf576103db6139a4565b602435906103e7613cd3565b6002546001600160a01b039190821633036104aa577f2393acb59b41dd645f68fe97bab0deba2a21b99efc69761e9b2762f11bbbe79d91604091169261042e841515613d03565b610439811515613d03565b8385526003602052600c82862001610452828254613d34565b90558385526003602052600e8286200161046d828254613d34565b9055838552600c602052818520610485828254613d34565b905581519081526044356020820152a26001600080516020614d958339815191525580f35b60405162461bcd60e51b81526020600482015260116024820152702737ba103137b0b932103430b7323632b960791b6044820152606490fd5b50346102cf5760203660031901126102cf576020906040906001600160a01b0361050b6139a4565b168152600b83522054604051908152f35b50346102cf5760403660031901126102cf576105366139a4565b60243590610542613c14565b6001600160a01b0316908115610609576007548181106105cd578161058a7f0529afc4538720fe0b3eadc40486369ab962002d72fead1387b300c66073e7bf93602093613c79565b60075583855260038252600860408620016105a6828254613d34565b905583855260038252600960408620016105c1828254613d34565b9055604051908152a280f35b60405162461bcd60e51b8152602060048201526014602482015273115e18d959591cc81c995cd95c9d99481c1bdbdb60621b6044820152606490fd5b60405163d92e233d60e01b8152600490fd5b50346102cf5760203660031901126102cf57602061063a600435614be5565b604051908152f35b50346102cf5760203660031901126102cf57604090600d9082906001600160a01b0361066c6139a4565b168152600360205220015481519068070c1cc73b00c8000081101582526020820152f35b50346102cf57806003193601126102cf576106a9613cd3565b6002546001600160a01b039081169081156108e457602490338452602092600384528360408620916106e160ff845460081c16613c40565b6040516347cd519160e01b81526001600482015294859182905afa9283156108925785936108af575b50600f01805483811061089d578361072191613c79565b905561074883838360025416604051938492839263a9059cbb60e01b845260048401613ca9565b038188867f0000000000000000000000000000000000000000000000000000000000000000165af1908115610892578591610859575b5015610847578390338252600b84526040822061079b8154613cc4565b905560025416803b156108435781809160446040518094819363686a38bd60e01b8352336004840152600160248401525af1801561083857610820575b505060405191600183528201527f4e755dd64e53a9f7a5882e2e32eb64718c2273de11e017bd47129b9fe2716d7c60403392a26001600080516020614d958339815191525580f35b61082990613b38565b6108345782386107d8565b8280fd5b6040513d84823e3d90fd5b5080fd5b6040516312171d8360e31b8152600490fd5b90508381813d831161088b575b6108708183613b4b565b810103126108875761088190613c9c565b3861077e565b8480fd5b503d610866565b6040513d87823e3d90fd5b604051630856d68760e11b8152600490fd5b9092508381813d83116108dd575b6108c78183613b4b565b810103126108d8575191600f61070a565b600080fd5b503d6108bd565b60405163632100f760e11b8152600490fd5b50346102cf5760203660031901126102cf576109106139a4565b610918613c14565b6001600160a01b0316801561060957600280546001600160a01b031916821790557f49424f87d81e4374ee3e8d1cf7b880966981a3cf6a7ac1d7a66c13d91756fccc8280a280f35b50346102cf5761096f36613a2e565b90606060018060a01b039260448460025416936040519485938492636a54814360e11b8452600484015260248301525afa908115610a27578392849185936109cc575b506060945060405193168352602083015215156040820152f35b93509150506060823d8211610a1f575b816109e960609383613b4b565b810103126108345781518181168103610a1b5760609350610a11604060208501519401613c9c565b90929091386109b2565b8380fd5b3d91506109dc565b6040513d85823e3d90fd5b50346102cf576020806003193601126108435760043590610a51613cd3565b8115610b6d5733835260038152600c60408420018054838110610b5b5783610a7891613c79565b905560405163a9059cbb60e01b8152818180610a98863360048401613ca9565b0381877f00000000000000000000000000000000000000000000000000000000000000006001600160a01b03165af1908115610b50578491610b1b575b5015610847577fbdd3f02d2a57fb53c1156f98470b61cb60712d485c27c36a49b1263dabcde201906040519283523392a26001600080516020614d958339815191525580f35b90508181813d8311610b49575b610b328183613b4b565b81010312610a1b57610b4390613c9c565b38610ad5565b503d610b28565b6040513d86823e3d90fd5b60405163b55c1bad60e01b8152600490fd5b604051631f2a200560e01b8152600490fd5b50346102cf5760403660031901126102cf57610bd060a0916040610ba16139a4565b9160243592600180871b0316808252600d602052610bc3838320548510614b26565b8152600d60205220614b0a565b5060ff8154916001810154906003600282015491015491604051948552602085015260408401528181161515606084015260081c1615156080820152f35b50346102cf5760203660031901126102cf576020906040906001600160a01b03610c366139a4565b168152600d83522054604051908152f35b50346102cf57806003193601126102cf576001546040516370a0823160e01b81523060048201529190602090839060249082906001600160a01b03165afa908115610ccf5790610c9d575b602090604051908152f35b506020813d8211610cc7575b81610cb660209383613b4b565b810103126108d85760209051610c92565b3d9150610ca9565b604051903d90823e3d90fd5b50346102cf57806003193601126102cf576002546040516001600160a01b039091168152602090f35b50346102cf57806003193601126102cf576020600554604051908152f35b613a44565b50346102cf57806003193601126102cf576020600854604051908152f35b50346102cf576020806003193601126108435760043590610d64613cd3565b8115610b6d5733835260038152600f60408420018054838110610e635783610d8b91613c79565b905560405163a9059cbb60e01b8152818180610dab863360048401613ca9565b0381877f00000000000000000000000000000000000000000000000000000000000000006001600160a01b03165af1908115610b50578491610e2e575b5015610847577f12701e4764b73009ab9826933c421483e4280410091fcc760515e0fa99fa766b906040519283523392a26001600080516020614d958339815191525580f35b90508181813d8311610e5c575b610e458183613b4b565b81010312610a1b57610e5690613c9c565b38610de8565b503d610e3b565b604051636dae861760e11b8152600490fd5b50346102cf5760403660031901126102cf57610e8f613aa3565b90610e98613cd3565b6802b5e3af16b1880000600435106114f6573381526003602052610ec260ff604083205416614a79565b338152600360205260ff604082205460081c16156114c1576040516323b872dd60e01b815233600480830191909152306024830152356044820152602081606481857f00000000000000000000000000000000000000000000000000000000000000006001600160a01b03165af18015610838578290611486575b610f479150614ab6565b60405190610f5482613b1d565b600a8252600260208301526001604083015260016060830152600160808301523381526003602052604081205460018060a01b039060101c168182915b60ff831660058110156110e9576064610fb960ff610faf848a614af9565b5116600435613de0565b049081156110c2576001600160a01b03831661100b5750610fdc90600854613d34565b6008555b6001600160a01b0390811684526003602052604084205460101c169161100590614333565b91610f91565b6001600160a01b0383168652600360205260408620805460081c60ff1661104257505061103a90600854613d34565b600855610fe0565b61105e9194600c849201611057838254613d34565b9055613d34565b9260ff60018201116110ae577fc8c0cc32a736135fa3c2a3c467849cd282797396bc67d2d5326f7e161e601c1d604051806110a633956001808060a01b038916960183614344565b0390a3610fe0565b634e487b7160e01b86526011600452602486fd5b50506001600160a01b0390811684526003602052604084205460101c169161100590614333565b848784600f600435026004358104600f146004351517156114725790611116606461112593049182613c79565b8061145d575b50600435613c79565b60015460405163095ea7b360e01b815290602090829081906111559086906001600160a01b031660048401613ca9565b0381877f00000000000000000000000000000000000000000000000000000000000000006001600160a01b03165af18015610b5057611424575b506001546040516370a0823160e01b81523060048201529184916001600160a01b0316602084602481845afa938415610a275783946113ed575b50803b1561083457604051634e538d9360e11b815291839183918290849082906111f7903060048401613ca9565b03925af18015610838576113d9575b50506001546040516370a0823160e01b81523060048201529190602090839060249082906001600160a01b03165afa8015610b505784906113a5575b61124c9250613c79565b90811561137057338352600d60205260408320918254926040519061127082613b1d565b8282526004356020830152426040830152831515606083015260016080830152600160401b85101561135c57846112ac91600182018155614b0a565b611348576003908251815560208301516001820155604083015160028201550190606081015115159060ff61ff0060808554930151151560081b1692169061ffff19161717905560405192835260043560208401526040830152151560608201527f830141583677d950fe61a27b93001edff66b597c666b2c90f5fb6e79a4befd0e60803392a26001600080516020614d958339815191525580f35b634e487b7160e01b86526004869052602486fd5b634e487b7160e01b86526041600452602486fd5b60405162461bcd60e51b815260206004820152600d60248201526c139bc8135595081b5a5b9d1959609a1b6044820152606490fd5b506020823d6020116113d1575b816113bf60209383613b4b565b810103126108d85761124c9151611242565b3d91506113b2565b6113e290613b38565b610834578284611206565b925092506020823d60201161141c575b8161140a60209383613b4b565b810103126108d85784915192866111c9565b3d91506113fd565b6020813d602011611455575b8161143d60209383613b4b565b81010312610a1b5761144e90613c9c565b508361118f565b3d9150611430565b61146990600854613d34565b6008558461111c565b634e487b7160e01b84526011600452602484fd5b506020813d6020116114b9575b816114a060209383613b4b565b81010312610843576114b4610f4791613c9c565b610f3d565b3d9150611493565b60405162461bcd60e51b815260206004820152600d60248201526c139bdd081858dd1a5d985d1959609a1b6044820152606490fd5b60405162461bcd60e51b815260206004820152601160248201527042656c6f7720243530206d696e696d756d60781b6044820152606490fd5b50346102cf57806003193601126102cf5760206040516815245655b1025800008152f35b50346102cf5760603660031901126102cf5761156d6139a4565b6024356001600160a01b03811690036108d8576044351515604435036108d857338252600360205260ff6040832054166118b35760055461169a57336000908152600360205260409020805461ff01600160b01b03191660011781556002810180546001600160a81b03191690556012810180546001600160a01b031916905542601490910155600454600160401b811015611684578060016116139201600455613ab2565b81546001600160a01b0360039290921b91821b19163390911b17905560055461163b90613cc4565b6005555b604051604435151581526001600160a01b03602435811692169033907f34ff37874d7443037a85c6f390fe14f2ae3e8767355de0e63891ad4367c2753990602090a480f35b634e487b7160e01b600052604160045260246000fd5b6001600160a01b0381168083526003602052604083205460ff16156118a1576024356001600160a01b0316151580611880575b1561187a576024355b60443580611857575b611822576044351580611834575b61182257336000908152600360205260409020805461ff01600160b01b031916601085901b62010000600160b01b03161760011781556002810180546001600160a81b0319166001600160a01b03909316928317604435151560a01b60ff60a01b161790556012810180546001600160a01b031990811690915542601490920191909155600454909190600160401b811015611684578060016117939201600455613ab2565b81546001600160a01b0360039290921b91821b19163390911b1790556005546117bb90613cc4565b600555604435156118065784526003602052600360408520019033908254161790555b82526003602052600160408320016117f68154613cc4565b905561180133613d41565b61163f565b84526003602052600460408520019033908254161790556117de565b60405163d5dd5c3d60e01b8152600490fd5b506001600160a01b038181168552600360205260408520600401541615156116ed565b506001600160a01b038181168552600360208190526040862001541615156116df565b816116d6565b506024356001600160a01b031683526003602052604083205460ff166116cd565b604051632f212e0d60e11b8152600490fd5b604051630ea075bf60e21b8152600490fd5b50346102cf57806003193601126102cf576040517f00000000000000000000000000000000000000000000000000000000000000006001600160a01b03168152602090f35b50346102cf5760203660031901126102cf576040906001600160a01b0361192f6139a4565b16815260036020522080610140528080808080808080808080806119f16015600f600e600d600c600b600a600960086007600660058d549d60018101546101c05260028101546102c05260018060a01b0360038201541660a052600460018060a01b03910154169e01549e01549e01549e01549e01549e01549e01549e01549e01549e01549e01549e601081015460e05260118101546101805260018060a01b036012820154166101a052601381015461020052601481015460c05201613b6e565b61030052611a0460166101405101613b6e565b61024052611a1760176101405101613b6e565b61028052611a2a60186101405101613b6e565b6101005260ff60196101405101541661026052604051806101205260ff82161515905260ff8160081c161515602061012051015260018060a01b039060101c1660406101205101526101c051606061012051015260018060a01b036102c05116608061012051015260ff6102c05160a01c16151560a061012051015260a05160c061012051015260e0610120510152610100610120510152610120805101526101406101205101526101606101205101526101806101205101526101a06101205101526101c06101205101526101e061012051015261020061012051015261022061012051015261024061012051015260e051610260610120510152610180516102806101205101526101a0516102a0610120510152610200516102c061012051015260c0516102e0610120510152611bc2611bac611b96611b806103a0806103006101205101526101205101610300516139ba565b61012051610320818303910152610240516139ba565b61012051610340818303910152610280516139ba565b61012051610360818303910152610100516139ba565b6102605115156103806101205101526101205180910390f35b50346102cf5760203660031901126102cf57600435906004548210156102cf576020611c0683613ab2565b905460405160039290921b1c6001600160a01b03168152f35b50346102cf5760203660031901126102cf576060611c43611c3e6139a4565b614c69565b90604051921515835260208301526040820152f35b50346102cf5760403660031901126102cf57611c726139a4565b611c7a613aa3565b90611c83613cd3565b6001600160a01b0381811692908315610609573385526003926020938085526040872091825491611cb960ff8460081c16613c40565b600d840180549068070c1cc73b00c80000808310611f25578a8c52838a5260ff60408d205416611ee05768070c1cc73b00c7ffff198301928311611ecc57808310611ec157611d09908093613c79565b9055600c8501611d1a828254613d34565b9055611d2b600e8601918254613d34565b90556815245655b102580000600b850155611d4c858460101c1696336144e6565b60008a8152838a5260409020805461ff01600160b01b03191662010000600160b01b039096169590951760011785556002850180546001600160a81b03191692881692831782151560a01b60ff60a01b161790556012850180546001600160a01b0319908116331790915542601490960195909555600454909790949091600160401b861015611684577f30016ed357540281a6cff6143637e72b48e105d85d15df66b0aaffbd23790240986013988c611e0f896001611e5d9b01600455613ab2565b9092835491891b92831b921b1916179055611e2b600554613cc4565b60055515611ea8578b52828952898360408d2001918254161790555b80611e8a575b5050611e5881613d41565b613e37565b0191611e698354613cc4565b8093556040519283523392a36001600080516020614d958339815191525580f35b8952865260016040892001611e9f8154613cc4565b90553880611e4d565b8b5282895289600460408d200191825416179055611e47565b50611d098280613c79565b634e487b7160e01b8c52601160045260248cfd5b60405162461bcd60e51b8152600481018b9052601e60248201527f5375622d6163636f756e7420616c7265616479207265676973746572656400006044820152606490fd5b6040516307db32bd60e31b8152600490fd5b50346102cf57806003193601126102cf576020604051600a8152f35b50346102cf57806003193601126102cf57546040516001600160a01b039091168152602090f35b50346102cf57611f8936613a2e565b611f91613c14565b611f99613cd3565b60ff600a5416156121ad57611fae9082613d34565b6004548082116121a5575b508290825b81811061216557506009908154938315158061215c575b1561214457805b8281106120815750908592915b81811061204357837f7f4a5b69bea14a6fc05326671a02e90d4a88855c83a18529c260057b1bf61a856040888884885560ff19600a5416600a5582519182526020820152a16001600080516020614d958339815191525580f35b6120789192935061205381613ab2565b9054600391821b1c6001600160a01b0316885260205260408720601101879055613cc4565b90859291611fe9565b80868861209061213294613ab2565b9054600391821b1c6001600160a01b031680835260208281526040842060110154919492908a8c8415612137577fb05abf391bcc5d117d31727729f0da5b0e3eb5f91a478372995efa128696c406966120f6604097926120f1888a95613de0565b613df3565b9489825280855260088383200161210e878254613d34565b905589825284522001612122838254613d34565b90558351928352820152a2613cc4565b611fdc565b5050505050505050613cc4565b61215085600854613d34565b60085590859291611fe9565b50841515611fd5565b9161219a6121a09161217685613ab2565b9054600391821b1c6001600160a01b03168852602052604087206011015490613d34565b92613cc4565b611fbe565b905038611fb9565b60405163418826bf60e11b8152600490fd5b50346102cf57806003193601126102cf5760206040516802b5e3af16b18800008152f35b50346102cf57806003193601126102cf576020600654604051908152f35b50346102cf57806003193601126102cf5761221a613c14565b600080546001600160a01b0319811682556001600160a01b0316600080516020614d558339815191528280a380f35b50346102cf57806003193601126102cf57600154604051623144bd60e31b81526001600160a01b039091169160208083600481875afa9283156108385782936122f0575b5080600494604051958680926310f4cba760e21b82525afa918215610ccf57916122c0575b604080945051928352820152f35b80915083813d83116122e9575b6122d78183613b4b565b810103126108d85760409251906122b2565b503d6122cd565b9392508084813d831161231a575b6123088183613b4b565b810103126108d857925191928061228d565b503d6122fe565b50346102cf5760203660031901126102cf576040906001600160a01b036123466139a4565b168152600360205220808080808080808080808080805460018201546101e0526002820154608052601460076011600f600d600c600b600a60096008600660058d600360018060a01b03910154169d600460018060a01b03910154169e01549e01549e01549e01549e01549e01549e01549e01549e01549e01549e01549e60018060a01b036012820154166102a05260138101546102e052015461016052604051806102205260ff82161515905260ff8160081c161515602061022051015260018060a01b039060101c1660406102205101526101e051606061022051015260018060a01b0360805116608061022051015260ff60805160a01c16151560a061022051015260c061022051015260e06102205101526101006102205101526101206102205101526101406102205101526101606102205101526101806102205101526101a06102205101526101c06102205101526101e0610220510152610200610220510152610220805101526102406102205101526102a0516102606102205101526102e051610280610220510152610160516102a06102205101526102c061022051f35b50346102cf57602080600319360112610843576004359061250b613cd3565b8115610b6d5733835260038152604083209060ff825460081c16156127ee576008820180548481106127dc578461254191613c79565b9055600a8201612552848254613d34565b90556040516370a0823160e01b8082523060048301526001600160a01b037f00000000000000000000000000000000000000000000000000000000000000008116929187918584602481885afa938415610a275783946127a9575b5060015416803b15610834578280916024604051809681936372424d9960e11b83528d60048401525af192831561279c57869361277f575b505060246040518095819382523060048301525afa8015612774578690612745575b6126119250613c79565b91600a8302838104600a14841517156110ae577f8f7262d5a031d4d671e1fdb0cddcd26d37185226f9e82f2f18877141ac1963eb939291612659606461271a93048095613c79565b92600f8201612669868254613d34565b90556010820161267a868254613d34565b90557f2b1d2104e84dd4dabb0cca024171f783ab1e1c9dc1af9d60a2361596653a99c4604051918683523392a2600b81018054918883156127385750600d908386111561273257835b80936126ea826126d3818b613c79565b97600c86016126e3838254613d34565b9055613c79565b90556126fb600e8301918254613d34565b90555b0161270a838254613d34565b9055604051948594339886613e13565b0390a26001600080516020614d958339815191525580f35b856126c3565b91509150600d84926126fe565b508282813d831161276d575b61275b8183613b4b565b810103126108d8576126119151612607565b503d612751565b6040513d88823e3d90fd5b61278b91929350613b38565b61279857839087386125e5565b8680fd5b50604051903d90823e3d90fd5b86809295508194503d83116127d5575b6127c38183613b4b565b810103126108d85787915192386125ad565b503d6127b9565b60405163208975e760e21b8152600490fd5b60405163aba4733960e01b8152600490fd5b50346102cf5760803660031901126102cf576004356001600160401b03811161084357612831903690600401613a76565b91906024356001600160401b03811161083457612852903690600401613a76565b6044356001600160401b03811161088757612871903690600401613a76565b90916064356001600160401b03811161279857612892903690600401613a76565b94909733885260036020526128ad60ff60408a205416614a79565b338852600360205260408820966001600160401b038211612d6c5781906128d760158a0154613ae3565b601f8111612d1c575b508990601f8311600114612cb0578a92612ca5575b50508160011b916000199060031b1c19161760158701555b6001600160401b038211612c9157819061292a6016880154613ae3565b601f8111612c3e575b508790601f8311600114612bd2578892612bc7575b50508160011b916000199060031b1c19161760168501555b60178401916001600160401b03821161135c57819061297f8454613ae3565b601f8111612b77575b508690601f8311600114612b11578792612b06575b50508160011b916000199060031b1c19161790555b60188201906001600160401b038111612af2576129cf8254613ae3565b601f8111612aad575b5083601f8211600114612a46578190859660199692612a3b575b50508160011b916000199060031b1c19161790555b01805460ff19166001179055337fbe4ec58a792f909e102ee3d745d0c3b34a4d437a54d903c4db098d31c556422f8280a280f35b0135905038806129f2565b8285526020852090601f198316865b818110612a955750968392916001946019989910612a7b575b505050811b019055612a07565b0135600019600384901b60f8161c19169055388080612a6e565b9192602060018192868c013581550194019201612a55565b82855260208520601f830160051c81019160208410612ae8575b601f0160051c01905b818110612add57506129d8565b858155600101612ad0565b9091508190612ac7565b634e487b7160e01b84526041600452602484fd5b01359050388061299d565b84885260208820925090601f198416885b818110612b5f5750908460019594939210612b45575b505050811b0190556129b2565b0135600019600384901b60f8161c19169055388080612b38565b91936020600181928787013581550195019201612b22565b90915083875260208720601f840160051c81019160208510612bbd575b90601f859493920160051c01905b818110612baf5750612988565b888155849350600101612ba2565b9091508190612b94565b013590503880612948565b60168801895260208920925090601f198416895b818110612c265750908460019594939210612c0c575b505050811b016016850155612960565b0135600019600384901b60f8161c19169055388080612bfc565b91936020600181928787013581550195019201612be6565b90915060168701885260208820601f840160051c81019160208510612c87575b90601f859493920160051c01905b818110612c795750612933565b898155849350600101612c6c565b9091508190612c5e565b634e487b7160e01b87526041600452602487fd5b0135905038806128f5565b60158a018b5260208b20925090601f1984168b5b818110612d045750908460019594939210612cea575b505050811b01601587015561290d565b0135600019600384901b60f8161c19169055388080612cda565b91936020600181928787013581550195019201612cc4565b909150601589018a5260208a20601f840160051c810160208510612d65575b90849392915b601f830160051c82018110612d575750506128e0565b8c8155859450600101612d41565b5080612d3b565b634e487b7160e01b89526041600452602489fd5b50346102cf57806003193601126102cf5760065460075490612daa60085460405193849384613a60565b0390f35b50346102cf5760203660031901126102cf57602061063a600435614b62565b50346102cf5760203660031901126102cf57602061063a600435614c27565b50346102cf57806003193601126102cf576020600454604051908152f35b50346102cf5760203660031901126102cf57612e24613cd3565b338152600d602052612e3d604082205460043510614b26565b338152600d602052612e5460043560408320614b0a565b50600381019081549160ff8360081c16156132f55761ff0019831690555490819060ff1661317657600582028281046005148315171561147257338452600360205260408420546064909104906001600160a01b039060101c811680151580613162575b6130d0575b5050505b6040516370a0823160e01b8082523060048301526001600160a01b037f00000000000000000000000000000000000000000000000000000000000000008116939192918691602084602481895afa938415610a2757839461309c575b5060015416803b15610834576024839260405194859384926372424d9960e11b845260048401525af1801561277457613089575b50604051918252306004830152602082602481865afa8015610892578590613055575b612f7e9250613c79565b9081612faa575b5061271a600080516020614db583398151915291604051918291339560043584613a60565b6020604051809263a9059cbb60e01b8252818781612fcc883360048401613ca9565b03925af1908115610b50578491613002575b50600080516020614db583398151915291612ffb61271a92614ab6565b9150612f85565b90506020813d60201161304d575b8161301d60209383613b4b565b81010312610a1b57600080516020614db583398151915291612ffb61304461271a93613c9c565b92505091612fde565b3d9150613010565b506020823d602011613081575b8161306f60209383613b4b565b810103126108d857612f7e9151612f74565b3d9150613062565b61309590959195613b38565b9338612f51565b9093506020813d6020116130c8575b816130b860209383613b4b565b8101031261083457519238612f1d565b3d91506130ab565b826020916130fa9360015416908860405180968195829463a9059cbb60e01b845260048401613ca9565b03925af1908115610892578591613128575b50613119575b8080612ebd565b61312291613c79565b38613112565b90506020813d60201161315a575b8161314360209383613b4b565b810103126108875761315490613c9c565b3861310c565b3d9150613136565b5080865260ff604087205460081c16612eb8565b916040519161318483613b1d565b60058352600260208401526001604084015260016060840152600160808401523382526003602052604082205460018060a01b039060101c169082915b60ff831660058110156132ea576131e760ff6131df60649389614af9565b511684613de0565b048015613205576001600160a01b0382161515806132c8575b613231575b506001600160a01b0390811684526003602052604084205460101c169161322b90614333565b916131c1565b60015460405163a9059cbb60e01b81529060209082906001600160a01b0316818981613261888a60048401613ca9565b03925af190811561277457869161328a575b5015613205576132839196613c79565b9438613205565b90506020813d6020116132c0575b816132a560209383613b4b565b810103126132bc576132b690613c9c565b38613273565b8580fd5b3d9150613298565b506001600160a01b03821685526003602052604085205460081c60ff16613200565b505092505091612ec1565b60405162461bcd60e51b815260206004820152601060248201526f105b1c9958591e481d5b9cdd185ad95960821b6044820152606490fd5b50346102cf5761335561333f36613a2e565b90613348613c14565b613350613cd3565b614720565b6001600080516020614d958339815191525580f35b50346102cf5760403660031901126102cf576133846139a4565b60243590613390613c14565b6001600160a01b0316908115610609576008548181106133f457816133d87fba443e8671971c36cdeb74f87321041daff421230cbc5e36cb835269ed1d8b7e93602093613c79565b60085583855260038252600860408620016105a6828254613d34565b60405162461bcd60e51b8152602060048201526012602482015271115e18d959591cc818591b5a5b881c1bdbdb60721b6044820152606490fd5b50346102cf5760203660031901126102cf576020906040906001600160a01b036134566139a4565b168152600c83522054604051908152f35b50346102cf57806003193601126102cf576001546040516001600160a01b039091168152602090f35b50346102cf5760203660031901126102cf576134aa6139a4565b6134b2613c14565b6001600160a01b0316801561060957600180546001600160a01b031916821790556040519081527ffa7bd61554593f4e69cdffd255d3fe947352b02c7d3ec68059384934e4cfd47c90602090a180f35b50346102cf5760208060031936011261084357906001600160a01b036135266139a4565b1690818152600d908184526040812054928190825b858110613711575061354c82614d22565b9461355683614d22565b61355f84614d22565b9161356985614d22565b9361358c613576876144bb565b966135846040519889613b4b565b8088526144bb565b868b019890601f1901368a378791885b84811061363157505050505087926135e960a09899936135db6135f7946135ce6040519d8d8f9e8f90815201906139fa565b8c8103888e0152906139fa565b908a820360408c01526139fa565b9088820360608a01526139fa565b92868403608088015251928381520193925b82811061361857505050500390f35b8351151585528695509381019392810192600101613609565b888d8b899f9c9b9d9e8b819a9b8784528885528c6136528860408720614b0a565b509460ff968760038098015460081c16613686575b50505050505050505061367990613cc4565b9b95949a9997989b61359c565b938c97936136fe9997938b9e969b6136bd8f8f6136799f6040898d946136f49f9b936136b6958995525220614b0a565b50966144d2565b526136ca878554926144d2565b526136da866001850154926144d2565b526136ea856002840154926144d2565b52015416926144d2565b9015159052613cc4565b9390508a38808f8b8a918f8f8e91613667565b818493959697945285845260ff600361372d8360408720614b0a565b50015460081c1661374d575b61374290613cc4565b95949391929561353b565b9361375a61374291613cc4565b949050613739565b50346102cf5760203660031901126102cf576137ec906040906001600160a01b0361378b6139a4565b16815260036020522060ff6019820154166138166137ab60158401613b6e565b926138086137bb60168301613b6e565b916137fa6137d760186137d060178501613b6e565b9301613b6e565b9360405198899860a08a5260a08a01906139ba565b9088820360208a01526139ba565b9086820360408801526139ba565b9084820360608601526139ba565b90151560808301520390f35b50346102cf57806003193601126102cf5761383b613cd3565b3381526003602052604081205460ff8116156127ee5760081c60ff1661390c576040516323b872dd60e01b815233600482015230602482015268070c1cc73b00c800006044820152602081606481857f00000000000000000000000000000000000000000000000000000000000000006001600160a01b03165af19081156108385782916138d3575b50156108475761335533613e37565b90506020813d8211613904575b816138ed60209383613b4b565b81010312610843576138fe90613c9c565b386138c4565b3d91506138e0565b604051637cdf305160e11b8152600490fd5b50346102cf5760203660031901126102cf5760409081906001600160a01b036139456139a4565b1681526003602052206010600f82015491015482519182526020820152f35b50346102cf57806003193601126102cf57602060405168070c1cc73b00c800008152f35b9050346108435781600319360112610843576020906007548152f35b600435906001600160a01b03821682036108d857565b919082519283825260005b8481106139e6575050826000602080949584010152601f8019910116010190565b6020818301810151848301820152016139c5565b90815180825260208080930193019160005b828110613a1a575050505090565b835185529381019392810192600101613a0c565b60409060031901126108d8576004359060243590565b346108d85760003660031901126108d8576020604051601e8152f35b6040919493926060820195825260208201520152565b9181601f840112156108d8578235916001600160401b0383116108d857602083818601950101116108d857565b6024359081151582036108d857565b600454811015613acd57600460005260206000200190600090565b634e487b7160e01b600052603260045260246000fd5b90600182811c92168015613b13575b6020831014613afd57565b634e487b7160e01b600052602260045260246000fd5b91607f1691613af2565b60a081019081106001600160401b0382111761168457604052565b6001600160401b03811161168457604052565b601f909101601f19168101906001600160401b0382119082101761168457604052565b9060405191826000825492613b8284613ae3565b908184526001948581169081600014613bf15750600114613bae575b5050613bac92500383613b4b565b565b9093915060005260209081600020936000915b818310613bd9575050613bac93508201013880613b9e565b85548884018501529485019487945091830191613bc1565b915050613bac94506020925060ff191682840152151560051b8201013880613b9e565b6000546001600160a01b03163303613c2857565b60405163118cdaa760e01b8152336004820152602490fd5b15613c4757565b60405162461bcd60e51b815260206004820152600a6024820152694e6f742061637469766560b01b6044820152606490fd5b91908203918211613c8657565b634e487b7160e01b600052601160045260246000fd5b519081151582036108d857565b6001600160a01b039091168152602081019190915260400190565b6000198114613c865760010190565b600080516020614d958339815191526002815414613cf15760029055565b604051633ee5aeb560e01b8152600490fd5b15613d0a57565b60405162461bcd60e51b81526020600482015260026024820152615a4160f01b6044820152606490fd5b91908201809211613c8657565b60018060a01b039182600092168252600391602092808452600291604091838383200154958787169560ff96898860a09a8b1c16915b16908115613dd35715613db657808552838352600586862001613d9a8154613cc4565b90555b8452828252858585200154898089838c1c169216613d77565b808552838352600686862001613dcc8154613cc4565b9055613d9d565b5050975050505050505050565b81810292918115918404141715613c8657565b8115613dfd570490565b634e487b7160e01b600052601260045260246000fd5b9192608093969594919660a084019784526020840152604083015260608201520152565b6001805460408051623144bd60e31b81526004956001600160a01b03938416959094929160209060009082818b818c5afa9081156143295782916142fc575b5080156142e9576b030e68b6d6e0acc82863363160251b049784519063095ea7b360e01b82528a82015268070c1cc73b00c80000908160248201528381604481868c7f0000000000000000000000000000000000000000000000000000000000000000165af18015614255576142b5575b50868654168551906370a0823160e01b92838352308d8401528583602481855afa9283156142ab57859361427c575b50813b1561088757849060448e838b519586948593634e538d9360e11b8552309085015260248401525af180156142725761425f575b50838b60248a8a54169489519586938492835230908301525afa8015614255578390614226575b613f7d9250613c79565b94601e8902898104601e148a151715614213576064900499509697959680888b80613fa8818c613c79565b90613fb291613c79565b90613fbc91613c79565b8c60065490613fca91613d34565b600655613fd7908d613d34565b95600896875490613fe791613d34565b875516988984526003938486528781209061ff00198254166101001791828155600b016815245655b102580000905582601092831c1695819785965b614092575b505050505050505096806140709381938a7f8af2c013a5a55c6d3ad5423522fe76c6f2eb831b5e23318276b3c678cb457fc9999a9b8411614075575b50505195869586613e13565b0390a2565b6140826140899185613c79565b8254613d34565b90553880614064565b909192939495969760ff90600a828a16111580614208575b15614201578a918f918f6140c08f918d90614359565b9182156141e057908a6140d4848f94613d34565b9e16958694858b528989528d838c20918254841c1691826141ca575b505015614180577fb16479bdac5b7099d9236d6fc6be3b30ff54188f4fd961686e1e1dc7ecb8803793929161415991868c528a8a52818c2001614134858254613d34565b9055858b528989526009818c200161414d858254613d34565b90555192839283614344565b0390a35b835281815285614174868c862054871c1698614333565b96959493929190614023565b7f117ca0cd821ecb7eadfea2d6927a67853908bdc351a386235215f5ab6071bfed9495508392506141b56141c2948254613d34565b9055519182918d83614344565b0390a261415d565b015490506141d7846144a5565b11158d386140f0565b9c935050505086915016835281815285614174868c862054871c1698614333565b9850614028565b50868a1615156140aa565b634e487b7160e01b835260118b52602483fd5b508382813d831161424e575b61423c8183613b4b565b810103126108d857613f7d9151613f73565b503d614232565b86513d85823e3d90fd5b61426b90939193613b38565b9138613f4c565b87513d86823e3d90fd5b9092508581813d83116142a4575b6142948183613b4b565b8101031261088757519138613f16565b503d61428a565b88513d87823e3d90fd5b8381813d83116142e2575b6142ca8183613b4b565b81010312610834576142db90613c9c565b5038613ee7565b503d6142c0565b634e487b7160e01b825260128a52602482fd5b90508281813d8311614322575b6143138183613b4b565b81010312610843575138613e76565b503d614309565b85513d84823e3d90fd5b60ff1660ff8114613c865760010190565b6020909392919360ff60408201951681520152565b9060ff166001811461448a576002811461446f57600381146144545760049081811461443d576005811461442057600681146144205760078114614403576008811461440357600981146143e657600a146143b5575050600090565b8160011b91808304600214901517156143d157506103e8900490565b601190634e487b7160e01b6000525260246000fd5b508160011b91808304600214901517156143d157506103e8900490565b506003820291808304600314901517156143d157506103e8900490565b506005820291808304600514901517156143d157506103e8900490565b50818004600114821517156143d157506064900490565b508060011b9080820460021490151715613c86576064900490565b50600581029080820460051490151715613c86576064900490565b50601481029080820460141490151715613c86576064900490565b60ff6004911611156144b657600590565b600290565b6001600160401b0381116116845760051b60200190565b8051821015613acd5760209160051b010190565b81806146fd575b6146f65781159182806146d1575b6146c957600554926001808501809511613c8657614518856144bb565b9061453360409661452b88519485613b4b565b8084526144bb565b9260209283810194601f190136863760008087156146aa576001600160a01b03898116835260038088528b8420015416965b6001600160a01b0397881680614696575b50505b8181106145f457505050806145d9575b6145cf5750826145b2575b50506145ab57815163c5bb5bcd60e01b8152600490fd5b9160009150565b816003929350841660005252600483600020015416153880614594565b9594505050509190565b50828516600052600382528260038760002001541615614589565b8661460861460183613cc4565b92856144d2565b51168060005260038088528b600020918982840154168015614683578a600480950154161561466f57908a93929161464961464288613cc4565b97896144d2565b5260005288528b60002001541661466961466284613cc4565b93856144d2565b52614579565b509b50505050505050505050505090600090565b509a505050505050509594505050509190565b9092508592845115613acd57523880614576565b6001600160a01b038981168352600387528a8320600401541696614565565b509160009150565b506001600160a01b0382811660009081526003602052604090206004015416156144fb565b9160019150565b5060018060a01b03808216600052600360205260036040600020015416156144ed565b60ff600a9080825416614a68576006918254948515614a2f57600093848155604687028781046046036110ae57606490049361475c8589613c79565b9561476c60099488865589613d34565b926004918254808611614a27575b508099805b86811061499357508a15614940575b8581106147d557505050505050509160809391600080516020614d758339815191529593600160ff19825416179055604051938452602084015260408301526060820152a1565b8a888a876147e285613ab2565b90549060039160018060a01b0391831b1c16948588528c602092808452604096878b2092835496600897881c161561492d5760058401548d850154808210156149255750945b6007948501548087111561491d576148409087613c79565b985b891561490857906120f18a61485693613de0565b968a8d52838752898d200161486c888254613d34565b9055898c52828652888c2001614883878254613d34565b905580870290878204036148f55791879593917fbee8f46206dc051d674f6ca1e618efe407d83b27ffbe3540b916edfd34e428e19795936148d660118c9b8f6148f09f9e81528589522001918254613d34565b9055888c528352858b2001558351928352820152a2613cc4565b61478e565b634e487b7160e01b8b5260118d5260248bfd5b5050505050505050505050506148f090613cc4565b508c98614842565b905094614828565b505050505050505050506148f090613cc4565b5096905060809850869550614975935061496d9250600080516020614d7583398151915299979150613d34565b600854613d34565b600855556040519182528060208301528060408301526060820152a1565b61499c81613ab2565b9054600391821b1c6001600160a01b0316845260205260408320805460081c871615614a1d576007600582015486830154808210600014614a155750915b0154908181116149f5575b50506149f090613cc4565b61477f565b9c614a07614a0d926149f0949f613c79565b90613d34565b9b90386149e5565b9050916149da565b506149f090613cc4565b94503861477a565b60405162461bcd60e51b8152602060048201526011602482015270115b5c1d1e48189a5b985c9e481c1bdbdb607a1b6044820152606490fd5b60405162c9487960e41b8152600490fd5b15614a8057565b60405162461bcd60e51b815260206004820152600e60248201526d139bdd081c9959da5cdd195c995960921b6044820152606490fd5b15614abd57565b60405162461bcd60e51b81526020600482015260146024820152731554d115081d1c985b9cd9995c8819985a5b195960621b6044820152606490fd5b906005811015613acd5760051b0190565b8054821015613acd5760005260206000209060021b0190600090565b15614b2d57565b60405162461bcd60e51b815260206004820152600d60248201526c092dcecc2d8d2c840d2dcc8caf609b1b6044820152606490fd5b6002546001600160a01b0316908115614bde576020906024604051809481936347cd519160e01b835260048301525afa908115614bd257600091614ba4575090565b906020823d8211614bca575b81614bbd60209383613b4b565b810103126102cf57505190565b3d9150614bb0565b6040513d6000823e3d90fd5b5050600090565b6002546001600160a01b0316908115614bde576020906024604051809481936375b1f0e160e11b835260048301525afa908115614bd257600091614ba4575090565b6002546001600160a01b0316908115614bde57602090602460405180948193631d61396160e11b835260048301525afa908115614bd257600091614ba4575090565b6002546001600160a01b03908116918215614d1457166024600082815260206003815280600f60408420015495604051948580926347cd519160e01b8252600160048301525afa928315610838578293614ce4575b5060ff9160036040928596835252205460081c169081614cdc575092565b905082101592565b9080935081813d8311614d0d575b614cfc8183613b4b565b8101031261084357519160ff614cbe565b503d614cf2565b505050600090600090600090565b90614d2c826144bb565b614d396040519182613b4b565b8281528092614d4a601f19916144bb565b019060203691013756fe8be0079c531659141344cd1fd0a4f28419497f9722a3daafe3b4186f6b6457e0a0ea5705200c9ffd36dc735fef1592c3234bb7e311fc1b0a444f6370d0620eae9b779b17422d0df92223018b32b4d1fa46e071723d6817e2486d003becc55f00204fccf0d92ed8d48f204adb39b2e81e92bad0dedb93f5716ca9478cfb57de00a264697066735822122091f47afc6894f6d1255b7ca583405d67debb1541278d2e00b7a201da421f888c64736f6c63430008140033",
  "linkReferences": {},
  "deployedLinkReferences": {}
}