{
  "_format": "hh-sol-artifact-1",
  "contractName": "MLMContract",
  "sourceName": "contracts/MLMContract.sol",
  "abi": [
    {
      "inputs": [
        {
          "internalType": "address",
          "name": "_paymentToken",
          "type": "address"
        },
        {
          "internalType": "uint8",
          "name": "_tokenDecimals",
          "type": "uint8"
        },
        {
          "internalType": "address",
          "name": "_feeRecipient",
          "type": "address"
        },
        {
          "internalType": "address",
          "name": "_adminBinaryWallet",
          "type": "address"
        }
      ],
      "stateMutability": "nonpayable",
      "type": "constructor"
    },
    {
      "inputs": [],
      "name": "EnforcedPause",
      "type": "error"
    },
    {
      "inputs": [],
      "name": "ExpectedPause",
      "type": "error"
    },
    {
      "inputs": [
        {
          "internalType": "address",
          "name": "owner",
          "type": "address"
        }
      ],
      "name": "OwnableInvalidOwner",
      "type": "error"
    },
    {
      "inputs": [
        {
          "internalType": "address",
          "name": "account",
          "type": "address"
        }
      ],
      "name": "OwnableUnauthorizedAccount",
      "type": "error"
    },
    {
      "inputs": [],
      "name": "ReentrancyGuardReentrantCall",
      "type": "error"
    },
    {
      "inputs": [
        {
          "internalType": "address",
          "name": "token",
          "type": "address"
        }
      ],
      "name": "SafeERC20FailedOperation",
      "type": "error"
    },
    {
      "anonymous": false,
      "inputs": [
        {
          "indexed": true,
          "internalType": "address",
          "name": "oldWallet",
          "type": "address"
        },
        {
          "indexed": true,
          "internalType": "address",
          "name": "newWallet",
          "type": "address"
        }
      ],
      "name": "AdminBinaryWalletUpdated",
      "type": "event"
    },
    {
      "anonymous": false,
      "inputs": [
        {
          "indexed": false,
          "internalType": "uint256",
          "name": "batchNumber",
          "type": "uint256"
        },
        {
          "indexed": false,
          "internalType": "uint256",
          "name": "processedCount",
          "type": "uint256"
        }
      ],
      "name": "BinaryBatchProcessed",
      "type": "event"
    },
    {
      "anonymous": false,
      "inputs": [
        {
          "indexed": false,
          "internalType": "uint256",
          "name": "oldSize",
          "type": "uint256"
        },
        {
          "indexed": false,
          "internalType": "uint256",
          "name": "newSize",
          "type": "uint256"
        }
      ],
      "name": "BinaryBatchSizeUpdated",
      "type": "event"
    },
    {
      "anonymous": false,
      "inputs": [
        {
          "indexed": true,
          "internalType": "address",
          "name": "user",
          "type": "address"
        },
        {
          "indexed": false,
          "internalType": "uint256",
          "name": "flushedAmount",
          "type": "uint256"
        }
      ],
      "name": "BinaryFlushed",
      "type": "event"
    },
    {
      "anonymous": false,
      "inputs": [
        {
          "indexed": true,
          "internalType": "address",
          "name": "user",
          "type": "address"
        },
        {
          "indexed": false,
          "internalType": "uint256",
          "name": "amount",
          "type": "uint256"
        }
      ],
      "name": "BinaryIncomeAllocated",
      "type": "event"
    },
    {
      "anonymous": false,
      "inputs": [
        {
          "indexed": true,
          "internalType": "address",
          "name": "user",
          "type": "address"
        },
        {
          "indexed": false,
          "internalType": "uint256",
          "name": "amount",
          "type": "uint256"
        }
      ],
      "name": "BinaryIncomeClaimed",
      "type": "event"
    },
    {
      "anonymous": false,
      "inputs": [
        {
          "indexed": true,
          "internalType": "address",
          "name": "processor",
          "type": "address"
        },
        {
          "indexed": false,
          "internalType": "bool",
          "name": "status",
          "type": "bool"
        }
      ],
      "name": "BinaryProcessorUpdated",
      "type": "event"
    },
    {
      "anonymous": false,
      "inputs": [
        {
          "indexed": true,
          "internalType": "address",
          "name": "oldHandler",
          "type": "address"
        },
        {
          "indexed": true,
          "internalType": "address",
          "name": "newHandler",
          "type": "address"
        }
      ],
      "name": "BoardHandlerUpdated",
      "type": "event"
    },
    {
      "anonymous": false,
      "inputs": [
        {
          "indexed": true,
          "internalType": "address",
          "name": "user",
          "type": "address"
        },
        {
          "indexed": false,
          "internalType": "uint256",
          "name": "amount",
          "type": "uint256"
        }
      ],
      "name": "BtcPoolCredited",
      "type": "event"
    },
    {
      "anonymous": false,
      "inputs": [
        {
          "indexed": true,
          "internalType": "address",
          "name": "to",
          "type": "address"
        },
        {
          "indexed": false,
          "internalType": "uint256",
          "name": "amount",
          "type": "uint256"
        }
      ],
      "name": "ContractFundsWithdrawn",
      "type": "event"
    },
    {
      "anonymous": false,
      "inputs": [
        {
          "indexed": false,
          "internalType": "enum MLMContract.Package",
          "name": "pkg",
          "type": "uint8"
        },
        {
          "indexed": false,
          "internalType": "uint256",
          "name": "oldCap",
          "type": "uint256"
        },
        {
          "indexed": false,
          "internalType": "uint256",
          "name": "newCap",
          "type": "uint256"
        }
      ],
      "name": "DailyCappingUpdated",
      "type": "event"
    },
    {
      "anonymous": false,
      "inputs": [
        {
          "indexed": true,
          "internalType": "address",
          "name": "recipient",
          "type": "address"
        },
        {
          "indexed": true,
          "internalType": "address",
          "name": "from",
          "type": "address"
        },
        {
          "indexed": false,
          "internalType": "uint256",
          "name": "amount",
          "type": "uint256"
        }
      ],
      "name": "DirectIncomeDistributed",
      "type": "event"
    },
    {
      "anonymous": false,
      "inputs": [
        {
          "indexed": true,
          "internalType": "address",
          "name": "token",
          "type": "address"
        },
        {
          "indexed": true,
          "internalType": "address",
          "name": "to",
          "type": "address"
        },
        {
          "indexed": false,
          "internalType": "uint256",
          "name": "amount",
          "type": "uint256"
        }
      ],
      "name": "EmergencyTokenRecovery",
      "type": "event"
    },
    {
      "anonymous": false,
      "inputs": [
        {
          "indexed": true,
          "internalType": "address",
          "name": "oldRecipient",
          "type": "address"
        },
        {
          "indexed": true,
          "internalType": "address",
          "name": "newRecipient",
          "type": "address"
        }
      ],
      "name": "FeeRecipientUpdated",
      "type": "event"
    },
    {
      "anonymous": false,
      "inputs": [
        {
          "indexed": true,
          "internalType": "address",
          "name": "user",
          "type": "address"
        },
        {
          "indexed": false,
          "internalType": "uint256",
          "name": "userId",
          "type": "uint256"
        },
        {
          "indexed": false,
          "internalType": "enum MLMContract.Package",
          "name": "pkg",
          "type": "uint8"
        },
        {
          "indexed": true,
          "internalType": "address",
          "name": "sponsor",
          "type": "address"
        }
      ],
      "name": "FreeAccountActivated",
      "type": "event"
    },
    {
      "anonymous": false,
      "inputs": [
        {
          "indexed": true,
          "internalType": "address",
          "name": "user",
          "type": "address"
        },
        {
          "indexed": false,
          "internalType": "uint256",
          "name": "flushedAmount",
          "type": "uint256"
        }
      ],
      "name": "GracePeriodExpired",
      "type": "event"
    },
    {
      "anonymous": false,
      "inputs": [
        {
          "indexed": true,
          "internalType": "address",
          "name": "user",
          "type": "address"
        },
        {
          "indexed": false,
          "internalType": "uint256",
          "name": "startTime",
          "type": "uint256"
        }
      ],
      "name": "GracePeriodStarted",
      "type": "event"
    },
    {
      "anonymous": false,
      "inputs": [
        {
          "indexed": true,
          "internalType": "address",
          "name": "oldToken",
          "type": "address"
        },
        {
          "indexed": true,
          "internalType": "address",
          "name": "newToken",
          "type": "address"
        }
      ],
      "name": "MTokenUpdated",
      "type": "event"
    },
    {
      "anonymous": false,
      "inputs": [
        {
          "indexed": true,
          "internalType": "address",
          "name": "recipient",
          "type": "address"
        },
        {
          "indexed": true,
          "internalType": "address",
          "name": "from",
          "type": "address"
        },
        {
          "indexed": false,
          "internalType": "uint256",
          "name": "amount",
          "type": "uint256"
        },
        {
          "indexed": false,
          "internalType": "uint256",
          "name": "level",
          "type": "uint256"
        }
      ],
      "name": "MatchingOverrideDistributed",
      "type": "event"
    },
    {
      "anonymous": false,
      "inputs": [
        {
          "indexed": false,
          "internalType": "enum MLMContract.Package",
          "name": "pkg",
          "type": "uint8"
        },
        {
          "indexed": false,
          "internalType": "uint256",
          "name": "oldLimit",
          "type": "uint256"
        },
        {
          "indexed": false,
          "internalType": "uint256",
          "name": "newLimit",
          "type": "uint256"
        }
      ],
      "name": "MaxIncomeLimitUpdated",
      "type": "event"
    },
    {
      "anonymous": false,
      "inputs": [
        {
          "indexed": true,
          "internalType": "address",
          "name": "previousOwner",
          "type": "address"
        },
        {
          "indexed": true,
          "internalType": "address",
          "name": "newOwner",
          "type": "address"
        }
      ],
      "name": "OwnershipTransferred",
      "type": "event"
    },
    {
      "anonymous": false,
      "inputs": [
        {
          "indexed": true,
          "internalType": "address",
          "name": "user",
          "type": "address"
        },
        {
          "indexed": false,
          "internalType": "enum MLMContract.Package",
          "name": "pkg",
          "type": "uint8"
        },
        {
          "indexed": false,
          "internalType": "uint256",
          "name": "amountPaid",
          "type": "uint256"
        }
      ],
      "name": "PackageActivated",
      "type": "event"
    },
    {
      "anonymous": false,
      "inputs": [
        {
          "indexed": false,
          "internalType": "enum MLMContract.Package",
          "name": "pkg",
          "type": "uint8"
        },
        {
          "indexed": false,
          "internalType": "uint256",
          "name": "oldPrice",
          "type": "uint256"
        },
        {
          "indexed": false,
          "internalType": "uint256",
          "name": "newPrice",
          "type": "uint256"
        }
      ],
      "name": "PackagePriceUpdated",
      "type": "event"
    },
    {
      "anonymous": false,
      "inputs": [
        {
          "indexed": true,
          "internalType": "address",
          "name": "user",
          "type": "address"
        },
        {
          "indexed": false,
          "internalType": "enum MLMContract.Package",
          "name": "oldPkg",
          "type": "uint8"
        },
        {
          "indexed": false,
          "internalType": "enum MLMContract.Package",
          "name": "newPkg",
          "type": "uint8"
        },
        {
          "indexed": false,
          "internalType": "uint256",
          "name": "amountPaid",
          "type": "uint256"
        }
      ],
      "name": "PackageUpgraded",
      "type": "event"
    },
    {
      "anonymous": false,
      "inputs": [
        {
          "indexed": false,
          "internalType": "address",
          "name": "account",
          "type": "address"
        }
      ],
      "name": "Paused",
      "type": "event"
    },
    {
      "anonymous": false,
      "inputs": [
        {
          "indexed": true,
          "internalType": "address",
          "name": "oldToken",
          "type": "address"
        },
        {
          "indexed": true,
          "internalType": "address",
          "name": "newToken",
          "type": "address"
        }
      ],
      "name": "PaymentTokenUpdated",
      "type": "event"
    },
    {
      "anonymous": false,
      "inputs": [
        {
          "indexed": true,
          "internalType": "address",
          "name": "oldAddr",
          "type": "address"
        },
        {
          "indexed": true,
          "internalType": "address",
          "name": "newAddr",
          "type": "address"
        }
      ],
      "name": "ProductWalletUpdated",
      "type": "event"
    },
    {
      "anonymous": false,
      "inputs": [
        {
          "indexed": true,
          "internalType": "address",
          "name": "user",
          "type": "address"
        }
      ],
      "name": "ProfileUpdated",
      "type": "event"
    },
    {
      "anonymous": false,
      "inputs": [
        {
          "indexed": true,
          "internalType": "address",
          "name": "user",
          "type": "address"
        },
        {
          "indexed": false,
          "internalType": "enum MLMContract.Package",
          "name": "pkg",
          "type": "uint8"
        },
        {
          "indexed": false,
          "internalType": "uint256",
          "name": "amountPaid",
          "type": "uint256"
        }
      ],
      "name": "Reactivated",
      "type": "event"
    },
    {
      "anonymous": false,
      "inputs": [
        {
          "indexed": true,
          "internalType": "address",
          "name": "user",
          "type": "address"
        },
        {
          "indexed": false,
          "internalType": "uint256",
          "name": "amount",
          "type": "uint256"
        }
      ],
      "name": "TempWalletClaimed",
      "type": "event"
    },
    {
      "anonymous": false,
      "inputs": [
        {
          "indexed": false,
          "internalType": "address",
          "name": "account",
          "type": "address"
        }
      ],
      "name": "Unpaused",
      "type": "event"
    },
    {
      "anonymous": false,
      "inputs": [
        {
          "indexed": true,
          "internalType": "address",
          "name": "user",
          "type": "address"
        },
        {
          "indexed": false,
          "internalType": "uint256",
          "name": "userId",
          "type": "uint256"
        },
        {
          "indexed": true,
          "internalType": "address",
          "name": "sponsor",
          "type": "address"
        },
        {
          "indexed": true,
          "internalType": "address",
          "name": "binaryParent",
          "type": "address"
        },
        {
          "indexed": false,
          "internalType": "enum MLMContract.Side",
          "name": "side",
          "type": "uint8"
        }
      ],
      "name": "UserRegistered",
      "type": "event"
    },
    {
      "anonymous": false,
      "inputs": [
        {
          "indexed": true,
          "internalType": "address",
          "name": "user",
          "type": "address"
        },
        {
          "indexed": false,
          "internalType": "uint256",
          "name": "netAmount",
          "type": "uint256"
        },
        {
          "indexed": false,
          "internalType": "uint256",
          "name": "fee",
          "type": "uint256"
        }
      ],
      "name": "Withdrawal",
      "type": "event"
    },
    {
      "anonymous": false,
      "inputs": [
        {
          "indexed": false,
          "internalType": "uint256",
          "name": "oldFee",
          "type": "uint256"
        },
        {
          "indexed": false,
          "internalType": "uint256",
          "name": "newFee",
          "type": "uint256"
        }
      ],
      "name": "WithdrawalFeeUpdated",
      "type": "event"
    },
    {
      "anonymous": false,
      "inputs": [
        {
          "indexed": true,
          "internalType": "address",
          "name": "recipient",
          "type": "address"
        },
        {
          "indexed": true,
          "internalType": "address",
          "name": "from",
          "type": "address"
        },
        {
          "indexed": false,
          "internalType": "uint256",
          "name": "amount",
          "type": "uint256"
        },
        {
          "indexed": false,
          "internalType": "uint256",
          "name": "level",
          "type": "uint256"
        }
      ],
      "name": "WithdrawalMatchDistributed",
      "type": "event"
    },
    {
      "anonymous": false,
      "inputs": [
        {
          "indexed": false,
          "internalType": "uint256",
          "name": "oldRate",
          "type": "uint256"
        },
        {
          "indexed": false,
          "internalType": "uint256",
          "name": "newRate",
          "type": "uint256"
        }
      ],
      "name": "WithdrawalUsdtRateUpdated",
      "type": "event"
    },
    {
      "inputs": [],
      "name": "BASIS_POINTS",
      "outputs": [
        {
          "internalType": "uint256",
          "name": "",
          "type": "uint256"
        }
      ],
      "stateMutability": "view",
      "type": "function"
    },
    {
      "inputs": [],
      "name": "BTC_POOL_RATE",
      "outputs": [
        {
          "internalType": "uint256",
          "name": "",
          "type": "uint256"
        }
      ],
      "stateMutability": "view",
      "type": "function"
    },
    {
      "inputs": [],
      "name": "GRACE_PERIOD_DURATION",
      "outputs": [
        {
          "internalType": "uint256",
          "name": "",
          "type": "uint256"
        }
      ],
      "stateMutability": "view",
      "type": "function"
    },
    {
      "inputs": [],
      "name": "INCOME_SPLIT_RATE",
      "outputs": [
        {
          "internalType": "uint256",
          "name": "",
          "type": "uint256"
        }
      ],
      "stateMutability": "view",
      "type": "function"
    },
    {
      "inputs": [],
      "name": "MATCHING_OVERRIDE_RATE",
      "outputs": [
        {
          "internalType": "uint256",
          "name": "",
          "type": "uint256"
        }
      ],
      "stateMutability": "view",
      "type": "function"
    },
    {
      "inputs": [],
      "name": "MAX_USER_ID",
      "outputs": [
        {
          "internalType": "uint256",
          "name": "",
          "type": "uint256"
        }
      ],
      "stateMutability": "view",
      "type": "function"
    },
    {
      "inputs": [],
      "name": "MIN_USER_ID",
      "outputs": [
        {
          "internalType": "uint256",
          "name": "",
          "type": "uint256"
        }
      ],
      "stateMutability": "view",
      "type": "function"
    },
    {
      "inputs": [],
      "name": "PRODUCT_WALLET_RATE",
      "outputs": [
        {
          "internalType": "uint256",
          "name": "",
          "type": "uint256"
        }
      ],
      "stateMutability": "view",
      "type": "function"
    },
    {
      "inputs": [],
      "name": "WITHDRAWAL_MATCH_POOL_RATE",
      "outputs": [
        {
          "internalType": "uint256",
          "name": "",
          "type": "uint256"
        }
      ],
      "stateMutability": "view",
      "type": "function"
    },
    {
      "inputs": [
        {
          "internalType": "enum MLMContract.Package",
          "name": "_pkg",
          "type": "uint8"
        }
      ],
      "name": "activatePackage",
      "outputs": [],
      "stateMutability": "nonpayable",
      "type": "function"
    },
    {
      "inputs": [
        {
          "internalType": "address",
          "name": "_user",
          "type": "address"
        },
        {
          "internalType": "uint256",
          "name": "_sponsorId",
          "type": "uint256"
        },
        {
          "internalType": "uint256",
          "name": "_binaryParentId",
          "type": "uint256"
        },
        {
          "internalType": "bool",
          "name": "_placeLeft",
          "type": "bool"
        },
        {
          "internalType": "enum MLMContract.Package",
          "name": "_pkg",
          "type": "uint8"
        }
      ],
      "name": "adminActivateUser",
      "outputs": [],
      "stateMutability": "nonpayable",
      "type": "function"
    },
    {
      "inputs": [],
      "name": "adminBinaryWallet",
      "outputs": [
        {
          "internalType": "address",
          "name": "",
          "type": "address"
        }
      ],
      "stateMutability": "view",
      "type": "function"
    },
    {
      "inputs": [
        {
          "internalType": "uint256",
          "name": "",
          "type": "uint256"
        }
      ],
      "name": "allUsers",
      "outputs": [
        {
          "internalType": "address",
          "name": "",
          "type": "address"
        }
      ],
      "stateMutability": "view",
      "type": "function"
    },
    {
      "inputs": [
        {
          "internalType": "uint256",
          "name": "_batchNumber",
          "type": "uint256"
        }
      ],
      "name": "autoDistributeBinaryIncome",
      "outputs": [],
      "stateMutability": "nonpayable",
      "type": "function"
    },
    {
      "inputs": [
        {
          "internalType": "address[]",
          "name": "_users",
          "type": "address[]"
        }
      ],
      "name": "batchFlushGracePeriods",
      "outputs": [],
      "stateMutability": "nonpayable",
      "type": "function"
    },
    {
      "inputs": [],
      "name": "binaryBatchSize",
      "outputs": [
        {
          "internalType": "uint256",
          "name": "",
          "type": "uint256"
        }
      ],
      "stateMutability": "view",
      "type": "function"
    },
    {
      "inputs": [
        {
          "internalType": "address",
          "name": "",
          "type": "address"
        }
      ],
      "name": "boardEntryCount",
      "outputs": [
        {
          "internalType": "uint256",
          "name": "",
          "type": "uint256"
        }
      ],
      "stateMutability": "view",
      "type": "function"
    },
    {
      "inputs": [],
      "name": "boardHandler",
      "outputs": [
        {
          "internalType": "contract IBoardMatrixHandler",
          "name": "",
          "type": "address"
        }
      ],
      "stateMutability": "view",
      "type": "function"
    },
    {
      "inputs": [
        {
          "internalType": "address",
          "name": "",
          "type": "address"
        }
      ],
      "name": "btcPoolBalance",
      "outputs": [
        {
          "internalType": "uint256",
          "name": "",
          "type": "uint256"
        }
      ],
      "stateMutability": "view",
      "type": "function"
    },
    {
      "inputs": [],
      "name": "claimBinaryIncome",
      "outputs": [],
      "stateMutability": "nonpayable",
      "type": "function"
    },
    {
      "inputs": [
        {
          "internalType": "uint256",
          "name": "",
          "type": "uint256"
        }
      ],
      "name": "dailyCapping",
      "outputs": [
        {
          "internalType": "uint256",
          "name": "",
          "type": "uint256"
        }
      ],
      "stateMutability": "view",
      "type": "function"
    },
    {
      "inputs": [
        {
          "internalType": "uint256",
          "name": "",
          "type": "uint256"
        }
      ],
      "name": "directRates",
      "outputs": [
        {
          "internalType": "uint256",
          "name": "",
          "type": "uint256"
        }
      ],
      "stateMutability": "view",
      "type": "function"
    },
    {
      "inputs": [
        {
          "internalType": "address",
          "name": "",
          "type": "address"
        },
        {
          "internalType": "uint256",
          "name": "",
          "type": "uint256"
        }
      ],
      "name": "directReferrals",
      "outputs": [
        {
          "internalType": "address",
          "name": "",
          "type": "address"
        }
      ],
      "stateMutability": "view",
      "type": "function"
    },
    {
      "inputs": [],
      "name": "enterBoardPool",
      "outputs": [],
      "stateMutability": "nonpayable",
      "type": "function"
    },
    {
      "inputs": [],
      "name": "feeRecipient",
      "outputs": [
        {
          "internalType": "address",
          "name": "",
          "type": "address"
        }
      ],
      "stateMutability": "view",
      "type": "function"
    },
    {
      "inputs": [
        {
          "internalType": "address",
          "name": "_user",
          "type": "address"
        }
      ],
      "name": "flushGracePeriod",
      "outputs": [],
      "stateMutability": "nonpayable",
      "type": "function"
    },
    {
      "inputs": [
        {
          "internalType": "uint256",
          "name": "_userId",
          "type": "uint256"
        }
      ],
      "name": "getAddressByUserId",
      "outputs": [
        {
          "internalType": "address",
          "name": "",
          "type": "address"
        }
      ],
      "stateMutability": "view",
      "type": "function"
    },
    {
      "inputs": [
        {
          "internalType": "address",
          "name": "_user",
          "type": "address"
        }
      ],
      "name": "getBinaryInfo",
      "outputs": [
        {
          "internalType": "uint256",
          "name": "leftBusiness",
          "type": "uint256"
        },
        {
          "internalType": "uint256",
          "name": "rightBusiness",
          "type": "uint256"
        },
        {
          "internalType": "uint256",
          "name": "carryLeft",
          "type": "uint256"
        },
        {
          "internalType": "uint256",
          "name": "carryRight",
          "type": "uint256"
        },
        {
          "internalType": "uint256",
          "name": "todayBinaryIncome",
          "type": "uint256"
        },
        {
          "internalType": "uint256",
          "name": "dailyCap",
          "type": "uint256"
        },
        {
          "internalType": "uint256",
          "name": "claimableBinaryIncome",
          "type": "uint256"
        },
        {
          "internalType": "uint256",
          "name": "binaryDepth",
          "type": "uint256"
        }
      ],
      "stateMutability": "view",
      "type": "function"
    },
    {
      "inputs": [
        {
          "internalType": "address",
          "name": "_user",
          "type": "address"
        }
      ],
      "name": "getBinarySlabInfo",
      "outputs": [
        {
          "internalType": "uint256[4]",
          "name": "carryLeftSlabs",
          "type": "uint256[4]"
        },
        {
          "internalType": "uint256[4]",
          "name": "carryRightSlabs",
          "type": "uint256[4]"
        },
        {
          "internalType": "uint256[4]",
          "name": "matchableSlabs",
          "type": "uint256[4]"
        },
        {
          "internalType": "uint256[4]",
          "name": "potentialIncomeSlabs",
          "type": "uint256[4]"
        },
        {
          "internalType": "uint256[4]",
          "name": "rates",
          "type": "uint256[4]"
        }
      ],
      "stateMutability": "view",
      "type": "function"
    },
    {
      "inputs": [
        {
          "internalType": "uint256",
          "name": "_boardLevel",
          "type": "uint256"
        }
      ],
      "name": "getBoardCurrentIndex",
      "outputs": [
        {
          "internalType": "uint256",
          "name": "",
          "type": "uint256"
        }
      ],
      "stateMutability": "view",
      "type": "function"
    },
    {
      "inputs": [
        {
          "internalType": "uint256",
          "name": "_boardLevel",
          "type": "uint256"
        },
        {
          "internalType": "uint256",
          "name": "_index",
          "type": "uint256"
        }
      ],
      "name": "getBoardMatrixInfo",
      "outputs": [
        {
          "internalType": "address",
          "name": "owner",
          "type": "address"
        },
        {
          "internalType": "uint256",
          "name": "filledCount",
          "type": "uint256"
        },
        {
          "internalType": "bool",
          "name": "completed",
          "type": "bool"
        }
      ],
      "stateMutability": "view",
      "type": "function"
    },
    {
      "inputs": [
        {
          "internalType": "uint256",
          "name": "_boardLevel",
          "type": "uint256"
        }
      ],
      "name": "getBoardPrice",
      "outputs": [
        {
          "internalType": "uint256",
          "name": "",
          "type": "uint256"
        }
      ],
      "stateMutability": "view",
      "type": "function"
    },
    {
      "inputs": [
        {
          "internalType": "uint256",
          "name": "_boardLevel",
          "type": "uint256"
        }
      ],
      "name": "getBoardQueueLength",
      "outputs": [
        {
          "internalType": "uint256",
          "name": "",
          "type": "uint256"
        }
      ],
      "stateMutability": "view",
      "type": "function"
    },
    {
      "inputs": [
        {
          "internalType": "address",
          "name": "_user",
          "type": "address"
        }
      ],
      "name": "getBtcPoolBalance",
      "outputs": [
        {
          "internalType": "uint256",
          "name": "",
          "type": "uint256"
        }
      ],
      "stateMutability": "view",
      "type": "function"
    },
    {
      "inputs": [],
      "name": "getContractBalance",
      "outputs": [
        {
          "internalType": "uint256",
          "name": "",
          "type": "uint256"
        }
      ],
      "stateMutability": "view",
      "type": "function"
    },
    {
      "inputs": [
        {
          "internalType": "address",
          "name": "_user",
          "type": "address"
        }
      ],
      "name": "getDirectReferrals",
      "outputs": [
        {
          "internalType": "address[]",
          "name": "",
          "type": "address[]"
        }
      ],
      "stateMutability": "view",
      "type": "function"
    },
    {
      "inputs": [
        {
          "internalType": "address",
          "name": "_user",
          "type": "address"
        },
        {
          "internalType": "uint256",
          "name": "_offset",
          "type": "uint256"
        },
        {
          "internalType": "uint256",
          "name": "_limit",
          "type": "uint256"
        }
      ],
      "name": "getDirectReferralsPaginated",
      "outputs": [
        {
          "internalType": "address[]",
          "name": "referrals",
          "type": "address[]"
        },
        {
          "internalType": "uint256",
          "name": "total",
          "type": "uint256"
        }
      ],
      "stateMutability": "view",
      "type": "function"
    },
    {
      "inputs": [
        {
          "internalType": "address",
          "name": "_user",
          "type": "address"
        }
      ],
      "name": "getIncomeInfo",
      "outputs": [
        {
          "internalType": "uint256",
          "name": "totalDirectIncome",
          "type": "uint256"
        },
        {
          "internalType": "uint256",
          "name": "totalBinaryIncome",
          "type": "uint256"
        },
        {
          "internalType": "uint256",
          "name": "totalMatchingOverrideIncome",
          "type": "uint256"
        },
        {
          "internalType": "uint256",
          "name": "totalWithdrawalMatchIncome",
          "type": "uint256"
        },
        {
          "internalType": "uint256",
          "name": "totalEarnings",
          "type": "uint256"
        },
        {
          "internalType": "uint256",
          "name": "totalWithdrawn",
          "type": "uint256"
        },
        {
          "internalType": "uint256",
          "name": "maxIncome",
          "type": "uint256"
        }
      ],
      "stateMutability": "view",
      "type": "function"
    },
    {
      "inputs": [
        {
          "internalType": "enum MLMContract.Package",
          "name": "_pkg",
          "type": "uint8"
        }
      ],
      "name": "getMaxIncomeLimit",
      "outputs": [
        {
          "internalType": "uint256",
          "name": "",
          "type": "uint256"
        }
      ],
      "stateMutability": "view",
      "type": "function"
    },
    {
      "inputs": [
        {
          "internalType": "enum MLMContract.Package",
          "name": "_pkg",
          "type": "uint8"
        }
      ],
      "name": "getPackagePrice",
      "outputs": [
        {
          "internalType": "uint256",
          "name": "",
          "type": "uint256"
        }
      ],
      "stateMutability": "view",
      "type": "function"
    },
    {
      "inputs": [
        {
          "internalType": "address",
          "name": "_user",
          "type": "address"
        }
      ],
      "name": "getProfile",
      "outputs": [
        {
          "internalType": "string",
          "name": "displayName",
          "type": "string"
        },
        {
          "internalType": "string",
          "name": "email",
          "type": "string"
        },
        {
          "internalType": "string",
          "name": "phone",
          "type": "string"
        },
        {
          "internalType": "string",
          "name": "country",
          "type": "string"
        },
        {
          "internalType": "bool",
          "name": "profileSet",
          "type": "bool"
        }
      ],
      "stateMutability": "view",
      "type": "function"
    },
    {
      "inputs": [],
      "name": "getTotalBatches",
      "outputs": [
        {
          "internalType": "uint256",
          "name": "",
          "type": "uint256"
        }
      ],
      "stateMutability": "view",
      "type": "function"
    },
    {
      "inputs": [],
      "name": "getTotalUsers",
      "outputs": [
        {
          "internalType": "uint256",
          "name": "",
          "type": "uint256"
        }
      ],
      "stateMutability": "view",
      "type": "function"
    },
    {
      "inputs": [
        {
          "internalType": "uint256",
          "name": "_index",
          "type": "uint256"
        }
      ],
      "name": "getUserByIndex",
      "outputs": [
        {
          "internalType": "address",
          "name": "",
          "type": "address"
        }
      ],
      "stateMutability": "view",
      "type": "function"
    },
    {
      "inputs": [
        {
          "internalType": "address",
          "name": "_user",
          "type": "address"
        }
      ],
      "name": "getUserIdByAddress",
      "outputs": [
        {
          "internalType": "uint256",
          "name": "",
          "type": "uint256"
        }
      ],
      "stateMutability": "view",
      "type": "function"
    },
    {
      "inputs": [
        {
          "internalType": "address",
          "name": "_user",
          "type": "address"
        }
      ],
      "name": "getUserInfo",
      "outputs": [
        {
          "internalType": "uint256",
          "name": "userId",
          "type": "uint256"
        },
        {
          "internalType": "address",
          "name": "sponsor",
          "type": "address"
        },
        {
          "internalType": "address",
          "name": "binaryParent",
          "type": "address"
        },
        {
          "internalType": "address",
          "name": "leftChild",
          "type": "address"
        },
        {
          "internalType": "address",
          "name": "rightChild",
          "type": "address"
        },
        {
          "internalType": "enum MLMContract.Side",
          "name": "placementSide",
          "type": "uint8"
        },
        {
          "internalType": "enum MLMContract.Package",
          "name": "userPackage",
          "type": "uint8"
        },
        {
          "internalType": "enum MLMContract.Status",
          "name": "status",
          "type": "uint8"
        },
        {
          "internalType": "uint256",
          "name": "walletBalance",
          "type": "uint256"
        },
        {
          "internalType": "uint256",
          "name": "tempWalletBalance",
          "type": "uint256"
        },
        {
          "internalType": "uint256",
          "name": "totalEarnings",
          "type": "uint256"
        },
        {
          "internalType": "uint256",
          "name": "directReferralCount",
          "type": "uint256"
        },
        {
          "internalType": "uint256",
          "name": "joinedAt",
          "type": "uint256"
        }
      ],
      "stateMutability": "view",
      "type": "function"
    },
    {
      "inputs": [
        {
          "internalType": "address",
          "name": "_user",
          "type": "address"
        }
      ],
      "name": "getUserTransactionCount",
      "outputs": [
        {
          "internalType": "uint256",
          "name": "",
          "type": "uint256"
        }
      ],
      "stateMutability": "view",
      "type": "function"
    },
    {
      "inputs": [
        {
          "internalType": "address",
          "name": "_user",
          "type": "address"
        },
        {
          "internalType": "uint256",
          "name": "_offset",
          "type": "uint256"
        },
        {
          "internalType": "uint256",
          "name": "_limit",
          "type": "uint256"
        }
      ],
      "name": "getUserTransactionsPaginated",
      "outputs": [
        {
          "internalType": "enum MLMContract.TxType[]",
          "name": "txTypes",
          "type": "uint8[]"
        },
        {
          "internalType": "uint256[]",
          "name": "amounts",
          "type": "uint256[]"
        },
        {
          "internalType": "uint256[]",
          "name": "timestamps",
          "type": "uint256[]"
        },
        {
          "internalType": "address[]",
          "name": "relatedUsers",
          "type": "address[]"
        },
        {
          "internalType": "uint8[]",
          "name": "extraDatas",
          "type": "uint8[]"
        },
        {
          "internalType": "uint256",
          "name": "total",
          "type": "uint256"
        }
      ],
      "stateMutability": "view",
      "type": "function"
    },
    {
      "inputs": [
        {
          "internalType": "address",
          "name": "",
          "type": "address"
        }
      ],
      "name": "isBinaryProcessor",
      "outputs": [
        {
          "internalType": "bool",
          "name": "",
          "type": "bool"
        }
      ],
      "stateMutability": "view",
      "type": "function"
    },
    {
      "inputs": [
        {
          "internalType": "address",
          "name": "",
          "type": "address"
        }
      ],
      "name": "isFreeAccount",
      "outputs": [
        {
          "internalType": "bool",
          "name": "",
          "type": "bool"
        }
      ],
      "stateMutability": "view",
      "type": "function"
    },
    {
      "inputs": [
        {
          "internalType": "address",
          "name": "",
          "type": "address"
        }
      ],
      "name": "isRegistered",
      "outputs": [
        {
          "internalType": "bool",
          "name": "",
          "type": "bool"
        }
      ],
      "stateMutability": "view",
      "type": "function"
    },
    {
      "inputs": [
        {
          "internalType": "address",
          "name": "_user",
          "type": "address"
        },
        {
          "internalType": "uint256",
          "name": "_price",
          "type": "uint256"
        },
        {
          "internalType": "uint256",
          "name": "_boardLevel",
          "type": "uint256"
        }
      ],
      "name": "logBoardEntry",
      "outputs": [],
      "stateMutability": "nonpayable",
      "type": "function"
    },
    {
      "inputs": [
        {
          "internalType": "address",
          "name": "_user",
          "type": "address"
        },
        {
          "internalType": "uint256",
          "name": "_reward",
          "type": "uint256"
        },
        {
          "internalType": "uint256",
          "name": "_boardLevel",
          "type": "uint256"
        }
      ],
      "name": "logBoardReward",
      "outputs": [],
      "stateMutability": "nonpayable",
      "type": "function"
    },
    {
      "inputs": [],
      "name": "mToken",
      "outputs": [
        {
          "internalType": "contract IERC20",
          "name": "",
          "type": "address"
        }
      ],
      "stateMutability": "view",
      "type": "function"
    },
    {
      "inputs": [
        {
          "internalType": "uint256",
          "name": "",
          "type": "uint256"
        }
      ],
      "name": "matchingOverrideMaxLevels",
      "outputs": [
        {
          "internalType": "uint256",
          "name": "",
          "type": "uint256"
        }
      ],
      "stateMutability": "view",
      "type": "function"
    },
    {
      "inputs": [
        {
          "internalType": "uint256",
          "name": "",
          "type": "uint256"
        }
      ],
      "name": "maxIncomeLimit",
      "outputs": [
        {
          "internalType": "uint256",
          "name": "",
          "type": "uint256"
        }
      ],
      "stateMutability": "view",
      "type": "function"
    },
    {
      "inputs": [],
      "name": "owner",
      "outputs": [
        {
          "internalType": "address",
          "name": "",
          "type": "address"
        }
      ],
      "stateMutability": "view",
      "type": "function"
    },
    {
      "inputs": [
        {
          "internalType": "uint256",
          "name": "",
          "type": "uint256"
        }
      ],
      "name": "packagePrices",
      "outputs": [
        {
          "internalType": "uint256",
          "name": "",
          "type": "uint256"
        }
      ],
      "stateMutability": "view",
      "type": "function"
    },
    {
      "inputs": [],
      "name": "pause",
      "outputs": [],
      "stateMutability": "nonpayable",
      "type": "function"
    },
    {
      "inputs": [],
      "name": "paused",
      "outputs": [
        {
          "internalType": "bool",
          "name": "",
          "type": "bool"
        }
      ],
      "stateMutability": "view",
      "type": "function"
    },
    {
      "inputs": [],
      "name": "paymentToken",
      "outputs": [
        {
          "internalType": "contract IERC20",
          "name": "",
          "type": "address"
        }
      ],
      "stateMutability": "view",
      "type": "function"
    },
    {
      "inputs": [],
      "name": "productWallet",
      "outputs": [
        {
          "internalType": "address",
          "name": "",
          "type": "address"
        }
      ],
      "stateMutability": "view",
      "type": "function"
    },
    {
      "inputs": [
        {
          "internalType": "enum MLMContract.Package",
          "name": "_pkg",
          "type": "uint8"
        }
      ],
      "name": "reactivate",
      "outputs": [],
      "stateMutability": "nonpayable",
      "type": "function"
    },
    {
      "inputs": [
        {
          "internalType": "address",
          "name": "_token",
          "type": "address"
        },
        {
          "internalType": "address",
          "name": "_to",
          "type": "address"
        },
        {
          "internalType": "uint256",
          "name": "_amount",
          "type": "uint256"
        }
      ],
      "name": "recoverToken",
      "outputs": [],
      "stateMutability": "nonpayable",
      "type": "function"
    },
    {
      "inputs": [
        {
          "internalType": "uint256",
          "name": "_sponsorId",
          "type": "uint256"
        },
        {
          "internalType": "uint256",
          "name": "_binaryParentId",
          "type": "uint256"
        },
        {
          "internalType": "bool",
          "name": "_placeLeft",
          "type": "bool"
        }
      ],
      "name": "register",
      "outputs": [],
      "stateMutability": "nonpayable",
      "type": "function"
    },
    {
      "inputs": [],
      "name": "renounceOwnership",
      "outputs": [],
      "stateMutability": "nonpayable",
      "type": "function"
    },
    {
      "inputs": [],
      "name": "repurchase",
      "outputs": [],
      "stateMutability": "nonpayable",
      "type": "function"
    },
    {
      "inputs": [
        {
          "internalType": "address",
          "name": "_wallet",
          "type": "address"
        }
      ],
      "name": "setAdminBinaryWallet",
      "outputs": [],
      "stateMutability": "nonpayable",
      "type": "function"
    },
    {
      "inputs": [
        {
          "internalType": "uint256",
          "name": "_size",
          "type": "uint256"
        }
      ],
      "name": "setBinaryBatchSize",
      "outputs": [],
      "stateMutability": "nonpayable",
      "type": "function"
    },
    {
      "inputs": [
        {
          "internalType": "address",
          "name": "_processor",
          "type": "address"
        },
        {
          "internalType": "bool",
          "name": "_status",
          "type": "bool"
        }
      ],
      "name": "setBinaryProcessor",
      "outputs": [],
      "stateMutability": "nonpayable",
      "type": "function"
    },
    {
      "inputs": [
        {
          "internalType": "address",
          "name": "_handler",
          "type": "address"
        }
      ],
      "name": "setBoardHandler",
      "outputs": [],
      "stateMutability": "nonpayable",
      "type": "function"
    },
    {
      "inputs": [
        {
          "internalType": "enum MLMContract.Package",
          "name": "_pkg",
          "type": "uint8"
        },
        {
          "internalType": "uint256",
          "name": "_cap",
          "type": "uint256"
        }
      ],
      "name": "setDailyCapping",
      "outputs": [],
      "stateMutability": "nonpayable",
      "type": "function"
    },
    {
      "inputs": [
        {
          "internalType": "address",
          "name": "_newRecipient",
          "type": "address"
        }
      ],
      "name": "setFeeRecipient",
      "outputs": [],
      "stateMutability": "nonpayable",
      "type": "function"
    },
    {
      "inputs": [
        {
          "internalType": "address",
          "name": "_token",
          "type": "address"
        }
      ],
      "name": "setMToken",
      "outputs": [],
      "stateMutability": "nonpayable",
      "type": "function"
    },
    {
      "inputs": [
        {
          "internalType": "enum MLMContract.Package",
          "name": "_pkg",
          "type": "uint8"
        },
        {
          "internalType": "uint256",
          "name": "_limit",
          "type": "uint256"
        }
      ],
      "name": "setMaxIncomeLimit",
      "outputs": [],
      "stateMutability": "nonpayable",
      "type": "function"
    },
    {
      "inputs": [
        {
          "internalType": "enum MLMContract.Package",
          "name": "_pkg",
          "type": "uint8"
        },
        {
          "internalType": "uint256",
          "name": "_price",
          "type": "uint256"
        }
      ],
      "name": "setPackagePrice",
      "outputs": [],
      "stateMutability": "nonpayable",
      "type": "function"
    },
    {
      "inputs": [
        {
          "internalType": "address",
          "name": "_wallet",
          "type": "address"
        }
      ],
      "name": "setProductWallet",
      "outputs": [],
      "stateMutability": "nonpayable",
      "type": "function"
    },
    {
      "inputs": [
        {
          "internalType": "string",
          "name": "_displayName",
          "type": "string"
        },
        {
          "internalType": "string",
          "name": "_email",
          "type": "string"
        },
        {
          "internalType": "string",
          "name": "_phone",
          "type": "string"
        },
        {
          "internalType": "string",
          "name": "_country",
          "type": "string"
        }
      ],
      "name": "setProfile",
      "outputs": [],
      "stateMutability": "nonpayable",
      "type": "function"
    },
    {
      "inputs": [
        {
          "internalType": "uint256",
          "name": "_feeBasisPoints",
          "type": "uint256"
        }
      ],
      "name": "setWithdrawalFee",
      "outputs": [],
      "stateMutability": "nonpayable",
      "type": "function"
    },
    {
      "inputs": [
        {
          "internalType": "uint256",
          "name": "_rateBasisPoints",
          "type": "uint256"
        }
      ],
      "name": "setWithdrawalUsdtRate",
      "outputs": [],
      "stateMutability": "nonpayable",
      "type": "function"
    },
    {
      "inputs": [
        {
          "internalType": "uint256",
          "name": "",
          "type": "uint256"
        }
      ],
      "name": "slabRates",
      "outputs": [
        {
          "internalType": "uint256",
          "name": "",
          "type": "uint256"
        }
      ],
      "stateMutability": "view",
      "type": "function"
    },
    {
      "inputs": [],
      "name": "tokenDecimals",
      "outputs": [
        {
          "internalType": "uint8",
          "name": "",
          "type": "uint8"
        }
      ],
      "stateMutability": "view",
      "type": "function"
    },
    {
      "inputs": [],
      "name": "totalBinaryFlushed",
      "outputs": [
        {
          "internalType": "uint256",
          "name": "",
          "type": "uint256"
        }
      ],
      "stateMutability": "view",
      "type": "function"
    },
    {
      "inputs": [
        {
          "internalType": "address",
          "name": "newOwner",
          "type": "address"
        }
      ],
      "name": "transferOwnership",
      "outputs": [],
      "stateMutability": "nonpayable",
      "type": "function"
    },
    {
      "inputs": [],
      "name": "unpause",
      "outputs": [],
      "stateMutability": "nonpayable",
      "type": "function"
    },
    {
      "inputs": [
        {
          "internalType": "address",
          "name": "_token",
          "type": "address"
        },
        {
          "internalType": "uint8",
          "name": "_decimals",
          "type": "uint8"
        }
      ],
      "name": "updatePaymentToken",
      "outputs": [],
      "stateMutability": "nonpayable",
      "type": "function"
    },
    {
      "inputs": [
        {
          "internalType": "uint256",
          "name": "",
          "type": "uint256"
        }
      ],
      "name": "userIdTaken",
      "outputs": [
        {
          "internalType": "bool",
          "name": "",
          "type": "bool"
        }
      ],
      "stateMutability": "view",
      "type": "function"
    },
    {
      "inputs": [
        {
          "internalType": "uint256",
          "name": "",
          "type": "uint256"
        }
      ],
      "name": "userIdToAddress",
      "outputs": [
        {
          "internalType": "address",
          "name": "",
          "type": "address"
        }
      ],
      "stateMutability": "view",
      "type": "function"
    },
    {
      "inputs": [
        {
          "internalType": "address",
          "name": "",
          "type": "address"
        }
      ],
      "name": "users",
      "outputs": [
        {
          "internalType": "uint256",
          "name": "userId",
          "type": "uint256"
        },
        {
          "internalType": "address",
          "name": "sponsor",
          "type": "address"
        },
        {
          "internalType": "address",
          "name": "binaryParent",
          "type": "address"
        },
        {
          "internalType": "address",
          "name": "leftChild",
          "type": "address"
        },
        {
          "internalType": "address",
          "name": "rightChild",
          "type": "address"
        },
        {
          "internalType": "enum MLMContract.Side",
          "name": "placementSide",
          "type": "uint8"
        },
        {
          "internalType": "enum MLMContract.Package",
          "name": "userPackage",
          "type": "uint8"
        },
        {
          "internalType": "enum MLMContract.Status",
          "name": "status",
          "type": "uint8"
        },
        {
          "internalType": "uint256",
          "name": "walletBalance",
          "type": "uint256"
        },
        {
          "internalType": "uint256",
          "name": "tempWalletBalance",
          "type": "uint256"
        },
        {
          "internalType": "uint256",
          "name": "totalDirectIncome",
          "type": "uint256"
        },
        {
          "internalType": "uint256",
          "name": "totalBinaryIncome",
          "type": "uint256"
        },
        {
          "internalType": "uint256",
          "name": "totalMatchingOverrideIncome",
          "type": "uint256"
        },
        {
          "internalType": "uint256",
          "name": "totalWithdrawalMatchIncome",
          "type": "uint256"
        },
        {
          "internalType": "uint256",
          "name": "totalEarnings",
          "type": "uint256"
        },
        {
          "internalType": "uint256",
          "name": "leftBusiness",
          "type": "uint256"
        },
        {
          "internalType": "uint256",
          "name": "rightBusiness",
          "type": "uint256"
        },
        {
          "internalType": "uint256",
          "name": "carryLeft",
          "type": "uint256"
        },
        {
          "internalType": "uint256",
          "name": "carryRight",
          "type": "uint256"
        },
        {
          "internalType": "uint256",
          "name": "todayBinaryIncome",
          "type": "uint256"
        },
        {
          "internalType": "uint256",
          "name": "lastBinaryResetDay",
          "type": "uint256"
        },
        {
          "internalType": "uint256",
          "name": "directReferralCount",
          "type": "uint256"
        },
        {
          "internalType": "uint256",
          "name": "gracePeriodStart",
          "type": "uint256"
        },
        {
          "internalType": "uint256",
          "name": "joinedAt",
          "type": "uint256"
        },
        {
          "internalType": "uint256",
          "name": "totalWithdrawn",
          "type": "uint256"
        },
        {
          "internalType": "uint256",
          "name": "claimableBinaryIncome",
          "type": "uint256"
        },
        {
          "internalType": "uint256",
          "name": "binaryDepth",
          "type": "uint256"
        },
        {
          "internalType": "string",
          "name": "displayName",
          "type": "string"
        },
        {
          "internalType": "string",
          "name": "email",
          "type": "string"
        },
        {
          "internalType": "string",
          "name": "phone",
          "type": "string"
        },
        {
          "internalType": "string",
          "name": "country",
          "type": "string"
        },
        {
          "internalType": "bool",
          "name": "profileSet",
          "type": "bool"
        }
      ],
      "stateMutability": "view",
      "type": "function"
    },
    {
      "inputs": [
        {
          "internalType": "uint256",
          "name": "_amount",
          "type": "uint256"
        }
      ],
      "name": "withdraw",
      "outputs": [],
      "stateMutability": "nonpayable",
      "type": "function"
    },
    {
      "inputs": [
        {
          "internalType": "address",
          "name": "_to",
          "type": "address"
        },
        {
          "internalType": "uint256",
          "name": "_amount",
          "type": "uint256"
        }
      ],
      "name": "withdrawContractFunds",
      "outputs": [],
      "stateMutability": "nonpayable",
      "type": "function"
    },
    {
      "inputs": [],
      "name": "withdrawalFee",
      "outputs": [
        {
          "internalType": "uint256",
          "name": "",
          "type": "uint256"
        }
      ],
      "stateMutability": "view",
      "type": "function"
    },
    {
      "inputs": [
        {
          "internalType": "uint256",
          "name": "",
          "type": "uint256"
        }
      ],
      "name": "withdrawalMatchMaxLevels",
      "outputs": [
        {
          "internalType": "uint256",
          "name": "",
          "type": "uint256"
        }
      ],
      "stateMutability": "view",
      "type": "function"
    },
    {
      "inputs": [],
      "name": "withdrawalUsdtRate",
      "outputs": [
        {
          "internalType": "uint256",
          "name": "",
          "type": "uint256"
        }
      ],
      "stateMutability": "view",
      "type": "function"
    }
  ],
  "bytecode": "0x6080346200057857601f620063e038819003918201601f19168301916001600160401b03831184841017620004fd5780849260809460405283398101031262000578576200004d816200059d565b9060208101519060ff8216820362000578576200007b606062000073604084016200059d565b92016200059d565b9233156200055f5760008054336001600160a01b0319821681178355916001600160a01b03909116907f8be0079c531659141344cd1fd0a4f28419497f9722a3daafe3b4186f6b6457e09080a360017f9b779b17422d0df92223018b32b4d1fa46e071723d6817e2486d003becc55f00556127106006556032600e55620001016200057d565b600081526101f460208201526103e860408201526105dc60608201526107d060808201526109c460a0820152610bb860c082015260005b60078110620005455750506200014d6200057d565b60008152600160208201526003604082015260066060820152600a6080820152600f60a0820152601460c082015260005b600781106200052c575050620001936200057d565b6000815260016020820152600360408201526005606082015260096080820152600c60a0820152600f60c082015260005b60078110620005135750506040516001600160401b036080820190811190821117620004fd5760808101604052610bb881526107d060208201526103e860408201526101f4606082015260005b60048110620004e75750506001600160a01b0316908115620004bd576001600160a01b031692831562000493576001600160a01b03169081156200046957600180546001600160a01b03199081169290921790556002805460ff60a01b191660a085901b60ff60a01b16179055600380548216851790556004805482169094178455601580549091169190911790556000600555604d60ff821611620003eb5760ff16600a0a90600060175581603202603281048303620003eb57806018558260c80260c88104840362000454578060195561025884810290810485036200043f5780601a556104b09085820291820486036200042a5781601b55610960928684029384048703620004155783601c556112c0948786029586048803620004005785601d556000602555602655602755602855602955602a55602b556000602c558160fa0260fa81048303620003eb57602d55816103e8026103e881048303620003eb57602e5581610bb802610bb881048303620003eb57602f556117708281029081048303620003eb57603055612ee08281029081048303620003eb57603155615dc09180830292830403620003d65750603255604051615e2d9081620005b38239f35b601190634e487b7160e01b6000525260246000fd5b601182634e487b7160e01b6000525260246000fd5b601187634e487b7160e01b6000525260246000fd5b601186634e487b7160e01b6000525260246000fd5b601185634e487b7160e01b6000525260246000fd5b601184634e487b7160e01b6000525260246000fd5b601183634e487b7160e01b6000525260246000fd5b60405162461bcd60e51b8152602060048201526002602482015261494160f01b6044820152606490fd5b60405162461bcd60e51b815260206004820152600260248201526124a360f11b6044820152606490fd5b60405162461bcd60e51b8152602060048201526002602482015261125560f21b6044820152606490fd5b6001906020835193019281604101550162000211565b634e487b7160e01b600052604160045260246000fd5b600190602060ff84511693019281603a015501620001c4565b600190602060ff8451169301928160330155016200017e565b600190602061ffff84511693019281601e01550162000138565b604051631e4fbdf760e01b815260006004820152602490fd5b600080fd5b6040519060e082016001600160401b03811183821017620004fd57604052565b51906001600160a01b0382168203620005785756fe610300604052600436101561001357600080fd5b60008060805280803560e01c908163012685f4146149be5781630327ef49146148f557816305ad3935146148955781630b6a9539146148625781630d57a79c146148365781630f53a47014614774578163179bd5c8146147485781631915d956146146b75781631cdc545c146146355781631d64e593146146155781632bbf1a30146144455781632c2896b3146144045781632e1888b8146143895781632e1a7d4d14613db85781632eee563e146139475781633013ce291461391c57816331e1f29b1461380b578163385399f9146138c45781633ac272c21461386d5781633b97e856146138475781633d6bacf31461380b5781633f4ba83a146137935781634286064e146137675781634526b4aa14613747578163463cffe61461370657816346904840146136db57816347cd5191146136565781634b695586146135ca57816355509c8f14612fda578163556415d914612fbb57816357f0140a14612c495781635a1faeb914612c1d5781635c975abb14612bf65781636207f522146127f2578163624a893d146127d25781636386c1c7146126ca57816369e94f4d146126535781636aa6c0ce1461240b5781636d0364d7146121295781636e0881da146123ec5781636f9fb98a1461235c5781637115bba7146118cb578163715018a6146123105781637feef9d6146122735781638225757b1461220a5781638456cb59146121a157816385f8f11b146121755781638bc7e8c4146121555781638d7b5690146121295781638da5cb5b1461210057816392167de21461207557816392446e30146118cb5781639726b9f214611dc85781639a688a9914611d515781639be572f614611d31578163a2bdedf414611d08578163a7229fd914611c7f578163a87430ba1461195c578163ac1e5025146118d0578163ac6c264e146118cb578163b169520114611895578163b33dd0c914611869578163b882c4d8146117f2578163bbc18f6f146117d2578163befbe97d14611725578163c24be7fb14611428578163c3b6f939146113fd578163c3c5a547146113bc578163c9d484cf14611391578163ce0b21221461123c578163d117de0314611211578163d24af2b81461119f578163d2c8e0e514611103578163d4a902861461103a578163d58c617214610db0578163d8f3384014610d74578163d9c842fd14610d3c578163d9f9f63f14610c11578163e1f1c4a714610bf2578163e3ba9bda14610b7b578163e4093a66146108e0578163e561dddc146108bd578163e63619a514610890578163e74b981b1461081b578163eb63e1c214610786578163ecdc59071461071c578163ece2bc231461066a578163ef2c5c501461064a578163f00b009314610611578163f2fde38b1461059657508063fc3c8a0c1461056d578063fc4a36f614610551578063fdc65d6e1461049e5763ff5d32fe1461042f57600080fd5b3461049b57602036600319011261049b57600435600b5481101561047157610458602091614b53565b905460405160039290921b1c6001600160a01b03168152f35b60405162461bcd60e51b815260206004820152600260248201526127a160f11b6044820152606490fd5b80fd5b503461049b576104ad36614bec565b906104b6614e14565b60078110158061053d5760018210158061052e575b6104d490615161565b61051a5790816105147f36152e7515aada41257500317963ea57c35904a845e67c595f4e110377a08f209360170192808454945560405193849384615d18565b0390a180f35b634e487b7160e01b83526021600452602483fd5b505060805160068211156104cb565b634e487b7160e01b84526021600452602484fd5b503461049b578060031936011261049b57602060405160648152f35b503461049b578060031936011261049b576004546040516001600160a01b039091168152602090f35b90503461060d57602036600319011261060d576105b1614a9d565b906105ba614e14565b6001600160a01b039182169182156105f45781546001600160a01b03198116841783551690600080516020615d988339815191529080a380f35b604051631e4fbdf760e01b815260048101859052602490fd5b5080fd5b823461049b57602036600319011261049b576020906040906001600160a01b03610639614a9d565b168152601383522054604051908152f35b823461049b578060031936011261049b57602060405164e8d4a50fff8152f35b823461049b57602036600319011261049b576001600160a01b0361068c614a9d565b168152600760205260408120600c81015490600d81015490600e810154600f82015460188301549060ff600485015460a81c1660078110156107085761010097506025015492601f601e86015495015495604051978852602088015260408701526060860152608085015260a084015260c083015260e0820152f35b634e487b7160e01b88526021600452602488fd5b823461049b5761078361072e36614ab8565b909160018060a01b0390610747826014541633146157a2565b168452600c60205260ff60408520916040519361076385614ce4565b6008855260208501524260408501528560608501521660808301526151d2565b80f35b823461049b576020918260031936011261060d576014546040516375b1f0e160e11b8152600480359082015291908490839060249082906001600160a01b03165afa92831561080f57926107df575b5050604051908152f35b9091508282813d8311610808575b6107f78183614d4b565b8101031261049b57505182806107d5565b503d6107ed565b604051903d90823e3d90fd5b823461049b57602036600319011261049b57610835614a9d565b61083d614e14565b6001600160a01b0390811690610854821515615ce7565b600380546001600160a01b031981168417909155167faaebcf1bfa00580e41d966056b48521fa9f202645c86d4ddf28113e617c1b1d38380a380f35b823461049b57602036600319011261049b57600435600781101561060d5760209060170154604051908152f35b823461049b578060031936011261049b5760206108d8615d35565b604051908152f35b905034610abf576080518060031936011261049b57506108fe615369565b610906614f83565b336080515260206008815261092360ff6040608051205416615130565b336080515260078152600160ff6004604060805120015460b01c1661094781614c60565b148015610b4b575b610958906157a2565b6014546001600160a01b03919082168015610b215781602491604051928380926347cd519160e01b8252600160048301525afa908115610ab25760805191610af0575b50336080515260128252806040608051205410610ac55790610a2c913360805152601282526040608051206109d1828254614fa4565b90553360805152601382526040608051206109ec8154614f74565b90553360805152600c82526040608051209060405192610a0b84614ce4565b600884528301524260408301526080516060830152600160808301526151d2565b6014541690813b15610abf576040519163686a38bd60e01b8352336004840152600160248401528260448160805180945af18015610ab257610a7f575b826001600080516020615dd88339815191525580f35b9091506001600160401b038211610a9e57506040526080513880610a69565b634e487b7160e01b81526041600452602490fd5b6040513d608051823e3d90fd5b60805180fd5b60405162461bcd60e51b815260048101839052600360248201526204942560ec1b6044820152606490fd5b90508181813d8311610b1a575b610b078183614d4b565b81010312610b1657513861099b565b8380fd5b503d610afd565b60405162461bcd60e51b8152600481018390526002602482015261084960f31b6044820152606490fd5b50336080515260078152610958600260ff6004604060805120015460b01c16610b7381614c60565b14905061094f565b34610abf576020366003190112610abf57610b94614a9d565b610b9c614e14565b6001600160a01b03908116610bb2811515615ce7565b601480546001600160a01b03198116831790915560805192167f8e4ac8019922eea64e9103a076c60b36ec30c71c863a376d6557ab9f6734c4848380a380f35b34610abf576080518060031936011261049b5760206040516127108152f35b34610abf57602080600319360112610abf57610c2b614a9d565b610c33614e14565b60018060a01b0316806080515260088252610c5660ff6040608051205416615130565b8060805152600782526040608051209160048301805490600260ff8360b01c16610c7f81614c60565b03610d1257601b8501546202a3008101809111610cfa57421115610cd0576006600080516020615db883398151915294950191825492608051905560ff60b01b19169055604051908152a260805180f35b60405162461bcd60e51b8152600481018490526002602482015261474560f01b6044820152606490fd5b634e487b7160e01b6080515260116004526024608051fd5b60405162461bcd60e51b81526004810184905260026024820152614e4760f01b6044820152606490fd5b34610abf57610d6a610d56610d5036614ab8565b91615ab1565b604051928392604084526040840190614b16565b9060208301520390f35b34610abf576020366003190112610abf576001600160a01b03610d95614a9d565b1660805152600c602052602060406080512054604051908152f35b34610abf576080518060031936011261049b57610dcb615369565b610dd3614f83565b3360805152602060088152610df060ff6040608051205416615130565b336080515260078152604060805120906004820190815460ff8160b01c16610e1781614c60565b8015908115611026575b5015610ffc5760a81c60ff166007811015610fe45760018110610fba57601701549160018060a01b0393610e5d848660015416309033906152fc565b6018600160b01b60ff60b01b198454161791828455608051918183600b8194015582600682015582601b8201550155339052600c83526080519060ff604083209160a81c16916007831015610fa3575091610ee560ff92869460405191610ec383614ce4565b60805183528688840152426040840152608051606084015260808301526151d2565b5460a81c1691610ef86040518094614c80565b8201527f0f71a293b26be95a1c2120e73a1712c62b20f254ae47eff7f6e799402984e6ab60403392a261177091828202928284041482151715610cfa57610f47612710610f6d94048093614fa4565b816004541680151580610f9a575b610f85575b505050610f678133615399565b336154c4565b6001600080516020615dd88339815191525560805180f35b610f92926001541661527b565b828080610f5a565b50811515610f55565b634e487b7160e01b90526021600452608051602490fd5b60405162461bcd60e51b815260048101839052600260248201526104e560f41b6044820152606490fd5b634e487b7160e01b6080515260216004526024608051fd5b60405162461bcd60e51b81526004810183905260026024820152614d4960f01b6044820152606490fd5b6002915061103381614c60565b1485610e21565b34610abf576040366003190112610abf57601454604051636a54814360e11b8152600480359082015260248035908201526001600160a01b03916060908290604490829086165afa8015610ab25760805191829083926110ae575b5060609360405193168352602083015215156040820152f35b925050506060813d82116110fb575b816110ca60609383614d4b565b81010312610abf578051918083168303610abf57604060208301519201518015158103610abf579092916060611095565b3d91506110bd565b34610abf57602080600319360112610abf576001600160a01b039081611127614a9d565b1660805152600a81526040608051209160405180938491848254918281520191608051526080519385852094905b8683831061118357859061116b82870383614d4b565b61117f604051928284938452830190614b16565b0390f35b8654821685526001968701968996509401939190910190611155565b34610abf5761120b6111b036614ab8565b909160018060a01b03906111c9826014541633146157a2565b1660805152600c60205260ff60406080512091604051936111e985614ce4565b60098552602085015242604085015260805160608501521660808301526151d2565b60805180f35b34610abf576080518060031936011261049b576015546040516001600160a01b039091168152602090f35b34610abf57602080600319360112610abf57600435906001600160401b0390818311610abf5736602384011215610abf578260040135918211610abf57602492600590368585841b83010111610abf57611294614e14565b6080515b8481106112a55760805180f35b80831b82018601356001600160a01b0381169190829003610abf578160805152600885526080519160ff928360408220541615611385576040906007885220600481019360028554918260b01c166112fc81614c60565b0361137857601b820154906202a300820180921161136157611352958992421115611357576006600080516020615db8833981519152940191825492608051905560ff60b01b19169055604051908152a2614f74565b611298565b5050505050614f74565b8a634e487b7160e01b608051526011600452608051fd5b5050506113529150614f74565b50506113529150614f74565b34610abf576080518060031936011261049b576014546040516001600160a01b039091168152602090f35b34610abf576020366003190112610abf576001600160a01b036113dd614a9d565b16608051526008602052602060ff60406080512054166040519015158152f35b34610abf576080518060031936011261049b576002546040516001600160a01b039091168152602090f35b34610abf576060366003190112610abf576024359060443590811515820361049b5750611453614f83565b33608051526020916008835261147260ff604060805120541615614e40565b608051600b5461165d575050506080518091815b61148e614fb1565b91826080515260108152608051604081209060ff1991600183825416179055600f8352604081209060018060a01b031991338382541617905533905260078352604060805120858155600181019660018060a01b038091169788848254161790556002820198169788838254161790556004810161150c8682614ed3565b805460ff60b01b1916905542601c8201556080518815801592918a91819061165157505260078552608051601f604082200154906001820180921161163a5750601f90915b01556115e7575b50846115ac575b33608051526008825260016040608051209182541617905561158033614f1a565b60405192835261158f82614c60565b820152600080516020615d7883398151915260403392a460805180f35b8460805152600a82526115c433604060805120614f57565b846080515260078252601a604060805120016115e08154614f74565b905561155f565b6115f084614c60565b6001840361161a578660805152600783526003604060805120019033908254161790555b86611558565b866080515260078352600460406080512001903390825416179055611614565b634e487b7160e01b90526011600452608051602490fd5b9050601f915091611551565b6004359052600f83526080519160018060a01b0391826040852054168094811515908161170a575b506116909150614e71565b806116c157508291505b156116b0576116a890615104565b916001611486565b6116b9906150d3565b916002611486565b60805152600f845260805191604083205416809281151590816116ef575b506116ea9150614ea2565b61169a565b905052600884526116ea60ff604060805120541683916116df565b9050526008855261169060ff60406080512054168591611685565b34610abf576020366003190112610abf576001600160a01b03611746614a9d565b16608051526007602052608051604081206007810154906008810154906009810154600a820154600b8301549160ff6004601d86015495015460a81c1660078110156117bb5760e09750602c015494604051968752602087015260408601526060850152608084015260a083015260c0820152f35b634e487b7160e01b88526021600452608051602490fd5b34610abf576080518060031936011261049b5760206040516202a3008152f35b34610abf576020366003190112610abf5761180b614a9d565b611813614e14565b6001600160a01b03908116611829811515615ce7565b600280546001600160a01b03198116831790915560805192167ffa56beaa7224e963963fc4c47c38a66d9813310693d7bb15814ea8e39b3351848380a380f35b34610abf576020366003190112610abf576004356007811015610abf57602090603a0154604051908152f35b34610abf576020366003190112610abf5760043560805152600f602052602060018060a01b036040608051205416604051908152f35b614c8d565b34610abf576020366003190112610abf576004356118ec614e14565b6107d081116119325760407f72aa1ef4707dfa7defd1468e6ffc70bf9517ce19e3afad93fcf4be42f2d494f591600554908060055582519182526020820152a160805180f35b60405162461bcd60e51b815260206004820152600260248201526108c960f31b6044820152606490fd5b34610abf576020366003190112610abf576001600160a01b0361197d614a9d565b60808051919092169052600760208181529151604090206101c081905280546102c052600181015460028201546001600160a01b039081166102805260038301548116610180526004830154600584015460068501549585015460088601546009870154600a880154600b890154600c8a0154600d8b0154600e8c0154600f8d015460188e01546102e05260198e015461016052601a8e015461012052601b8e015461024052601c8e015461026052601d8e015460e052601e8e01546101a052601f8e01546101e0529e909d919c929b939a949995989697969195919460ff949293921691611a6c9101614d6e565b61022052611a7f60216101c05101614d6e565b61014052611a9260226101c05101614d6e565b60a052611aa460236101c05101614d6e565b6102a0528260246101c0510154166101005260405180610200526102c0519052602061020051015261028051604061020051015261018051606061020051015260018060a01b0381166080610200510152818160a01c16611b0481614c60565b60a0610200510152611b2160c06102005101838360a81c16614c80565b60b01c16611b2e81614c60565b60e06102005101526101006102005101526101206102005101526101406102005101526101606102005101526101806102005101526101a06102005101526101c06102005101526101e0610200510152610200805101526102206102005101526102406102005101526102e05161026061020051015261016051610280610200510152610120516102a0610200510152610240516102c0610200510152610260516102e061020051015260e0516103006102005101526101a0516103206102005101526101e051610340610200510152611c66611c50611c3b611c2561040080610360610200510152610200510161022051614bac565b6102005161038081830391015261014051614bac565b610200516103a081830391015260a051614bac565b610200516103c08183039101526102a051614bac565b6101005115156103e06102005101526102005180910390f35b34610abf576060366003190112610abf57611c98614a9d565b6001600160a01b036024358181169390929084840361049b57507f238062e33e7062c4aeccb2acac43aecc0b1a1ca891a5bc84a689f2272cb39a4391611cfb602092604435928391611ce8614e14565b611cf3891515615ce7565b16958661527b565b604051908152a360805180f35b34610abf576020366003190112610abf57600435600b54811015610abf57610458602091614b53565b34610abf576080518060031936011261049b576020600b54604051908152f35b34610abf576020366003190112610abf57611d6a614a9d565b611d72614e14565b6001600160a01b03908116611d88811515615ce7565b600480546001600160a01b03198116831790915560805192167f21f871938092b6a1ed13c23a49ad1a6fa6867d23d64fa2091bc0aaa90846e7c38380a380f35b34610abf57602080600319360112610abf57600435906007821015610abf57611def615369565b611df7614f83565b336080515260088152611e1260ff6040608051205416615130565b336080515260078152604060805120916004830192835460ff8160b01c16611e3981614c60565b60028114908115612063575b50156120395760ff90611e5b6001851015615161565b60a81c166007811015610fe457821061200f57816017015492839160018060a01b0395611e90848860015416309033906152fc565b600260ff825460b01c16611ea381614c60565b14611f82575b906018916080516006830155611ebf8682615192565b600160b01b60ff60b01b19825416179055608051918183600b8194015582601b8201550155339052600c8152611f2660406080512060405190611f0182614ce4565b600282528484830152426040830152608051606083015260ff861660808301526151d2565b611f336040518094614c80565b8201527f0bd98106504d2095c105d0f8fd19c12fb6c359200dcce844743a92dc040cb7b360403392a261177091828202928284041482151715610cfa57610f47612710610f6d94048093614fa4565b9250601b810154906202a3008201809211610cfa5785936018924211611fec57600682015460058301611fb6828254614ef7565b90556040519081527fc0a2b7349514b2ee49057e2265dcf10bd91be42a7f6a1144164df1f0e303a8eb853392a25b909150611ea9565b6006820154604051908152600080516020615db8833981519152853392a2611fe4565b60405162461bcd60e51b815260048101849052600260248201526110d160f21b6044820152606490fd5b60405162461bcd60e51b8152600481018590526002602482015261414160f01b6044820152606490fd5b905061206e81614c60565b1586611e45565b34610abf5761208336614bec565b61208b614e14565b600782101580610fe4576001831015806120f1575b6120a990615161565b610fe457816120e87fbc78cc5de16267f0116f5ef65ec3328f2f432bca5e0f8b61e96b880e826d84dd93602c0192808454945560405193849384615d18565b0390a160805180f35b505060805160068311156120a0565b34610abf576080518060031936011261049b57546040516001600160a01b039091168152602090f35b34610abf576020366003190112610abf576004356007811015610abf57602090602c0154604051908152f35b34610abf576080518060031936011261049b576020600554604051908152f35b34610abf576020366003190112610abf576004356007811015610abf5760209060330154604051908152f35b34610abf576080518060031936011261049b576121bc614e14565b6121c4614f83565b608051805460ff60a01b1916600160a01b1790556040513381527f62e78cea01bee320cd4e420270b5ea74000d11b0c9f74754ebdbfc544b05a25890602090a160805180f35b34610abf576020366003190112610abf57608080516004359052600f6020525160409020546001600160a01b0316801561224957602090604051908152f35b60405162461bcd60e51b81526020600482015260026024820152612aa360f11b6044820152606490fd5b34610abf576020366003190112610abf5760043561228f614e14565b80151580612304575b156122da5760407f885769bb3a0a33e49dc7c402b45290f14135af0d201b7b78370457632240fbb191600e549080600e5582519182526020820152a160805180f35b60405162461bcd60e51b8152602060048201526002602482015261425360f01b6044820152606490fd5b506101f4811115612298565b34610abf576080518060031936011261049b575061232c614e14565b80546001600160a01b0319811682556001600160a01b0316600080516020615d988339815191528280a360805180f35b34610abf576080518060031936011261049b57506001546040516370a0823160e01b815230600482015290602090829060249082906001600160a01b03165afa908115610ab257608051916123b7575b602082604051908152f35b90506020813d82116123e4575b816123d160209383614d4b565b8101031261060d576020915051826123ac565b3d91506123c4565b34610abf576080518060031936011261049b576020604051610fa08152f35b34610abf5760209081600319360112610abf576004356007811015610abf57612432615369565b61243a614f83565b33608051526008835261245560ff6040608051205416615130565b60805192600182101580612648575b61246d90615161565b3360805152600781526080516040812094610fa35750600484019260ff845460a81c166007811015610fe45783111561261e57826017015493601860018060a01b03966124c2878960015416309033906152fc565b60ff835460a81c16926124d58782615192565b805460ff60b01b1916600160b01b179055608051600b820181905560068201819055601b820181905591018190556007821015610fa35750849291908061258b5750612558903360805152600c83526040608051206040519161253783614ce4565b8083528585840152426040840152606083015260ff861660808301526151d2565b610ef86040518094614c80565b61177091828202928284041482151715610cfa57610f47612710610f6d94048093614fa4565b939190506125ed92503360805152600c81526125d8604060805120604051906125b382614ce4565b600182528784830152426040830152608051606083015260ff851660808301526151d2565b6125e56040518095614c80565b830190614c80565b8160408201527f6dc34d0522e29b7d7beda15504a00195317702b99a528054d4be53e1ea331b6d60603392a2612565565b60405162461bcd60e51b81526004810183905260026024820152610aa960f31b6044820152606490fd5b506006821115612464565b34610abf576020366003190112610abf5761266c614a9d565b612674614e14565b6001600160a01b0390811661268a811515615ce7565b601580546001600160a01b03198116831790915560805192167fcb9bcd5e87ec5de7c4b31036687bd221c8e20f2ecf6fce472ac73a211f2a3cdc8380a380f35b34610abf576020366003190112610abf576001600160a01b036126eb614a9d565b166080515260076020526101a060406080512080549060018060a01b036001820154169060018060a01b0360028201541660018060a01b03600383015416600483015460ff600585015491600686015493600b87015495601c601a890154980154986040519a8b5260208b015260408a0152606089015260018060a01b038116608089015261277e828260a01c16614c60565b818160a01c1660a089015261279b60c08901838360a81c16614c80565b6127a9828260b01c16614c60565b60b01c1660e0870152610100860152610120850152610140840152610160830152610180820152f35b34610abf576080518060031936011261049b576020600654604051908152f35b34610abf5760a0366003190112610abf5761280b614a9d565b606435151560643503610abf5760076084351015610abf5761282b614e14565b612833614f83565b6128476001600160a01b0382161515615ce7565b608080516001600160a01b0383169052600860205251604090205461286f9060ff1615614e40565b6001608435101580612be9575b61288590615161565b600b5415612bbf57608080516024359052600f6020525160408120546001600160a01b0316919082908115159081612ba3575b506128c39150614e71565b6080516044359081612b53575050815b60643515612b42576128e490615104565b9060015b6128f0614fb1565b608080518290526010602090815281516040808220805460ff19166001908117909155600f845281832080546001600160a01b03199081166001600160a01b038b811691821790935590945260079094529351208481559283018054821689179055600283018054909116918716919091179055909390600481016129758482614ed3565b61298160843582615192565b805460ff60b01b1916600160b01b17905542601c820155608080516001600160a01b038416905260076020525160408120601f01549060018201821161163a57507f92c194e247c6d4e26ac54d4f751a001bb786b7fd20039047255e4b5327aec9f4949260409492601f60018a94019101556129fc83614c60565b60018303612b0957608080516001600160a01b038381169091526007602052905186902060030180546001600160a01b0319169186169190911790555b8160805152600a602052612a51848660805120614f57565b81608051526007602052601a856080512001612a6d8154614f74565b905560018060a01b03841660805152600860205284608051818120600160ff19825416179055600960205220600160ff19825416179055612aad84614f1a565b845192878452612abc81614c60565b60208401526001600160a01b039081169290841690600080516020615d78833981519152908690a48151938452612af860208501608435614c80565b6001600160a01b031692a360805180f35b608080516001600160a01b038381169091526007602052905186902060040180546001600160a01b031916918616919091179055612a39565b612b4b906150d3565b9060026128e8565b52600f60205260805160408120546001600160a01b03169081908115159081612b87575b50612b829150614ea2565b6128d3565b9050526008602052612b8260ff60406080512054168291612b77565b90505260086020526128c360ff604060805120541683916128b8565b60405162461bcd60e51b8152602060048201526002602482015261525560f01b6044820152606490fd5b506006608435111561287c565b34610abf576080518060031936011261049b5760ff6020915460a01c166040519015158152f35b34610abf576020366003190112610abf576004356007811015610abf57602090601e0154604051908152f35b34610abf5760c0602081526020600319360112610abf57600435903360805152600d8151526080519060ff9182604082205416908115612fa7575b5015612f7d57612c92614f83565b8215612f53576000198301838111610cfa57600e90612cb382548092615268565b93600b549182861015612f2957612cca9086614ef7565b91808311612f21575b50919060805194925b818410612d19577f9acb94cd9b9c8b1248d0dc0aa654d4303685379499519790474807198a3290436040888888835192835251820152a160805180f35b90919294612d2686614b53565b90549060039160018060a01b0391831b1c16908160805152600787515260406080512084600482015460b01c16612d5c81614c60565b60018114159081612f0c575b50612eff57608051918283918490601085019060148601905b60048410612e1d57505050508315612e0e5792601e837f64e8dd16146649f6743856bb8723dcd7edd0bb0e9b5352620ae83a477aea328393612e069896612dd08d612e009a9801918254614fa4565b9055612de1600f8301918254614fa4565b905501612def828254614ef7565b9055604051908152895190a2614f74565b95614f74565b929190612cdc565b505050505094612e0690614f74565b909192949396612e2d8685614b9c565b905490831b1c612e3d8785614b9c565b905490841b1c1115612ee957612e538685614b9c565b905490831b1c905b8115612edc5781612ece612ed493612e88612e0094612710612e818d6041015485615268565b0490614ef7565b9b612ebc612e968c8b614b9c565b612ea5858354838d1b1c614fa4565b825460001960039390931b92831b1916911b179055565b612ec9612e968c8a614b9c565b614ef7565b96614ef7565b929190612d81565b979495612ed49150614f74565b612ef38684614b9c565b905490831b1c90612e5b565b50505094612e0690614f74565b60029150612f1981614c60565b14158b612d68565b915086612cd3565b60405162461bcd60e51b8152855160048201526002602482015261424560f01b6044820152606490fd5b60405162461bcd60e51b8152905160048201526002602482015261042360f41b6044820152606490fd5b60405162461bcd60e51b8152905160048201526002602482015261415560f01b6044820152606490fd5b546001600160a01b03163314905084612c84565b34610abf576080518060031936011261049b5760206040516117708152f35b34610abf576080366003190112610abf576004356001600160401b038111610abf5761300a903690600401614c33565b906024356001600160401b038111610abf5761302a903690600401614c33565b9092906044356001600160401b038111610abf5761304c903690600401614c33565b90916064356001600160401b038111610abf5761306d903690600401614c33565b9690943360805152600860205261308c60ff6040608051205416615130565b80156135a057608080513390526007602052516040812097906001600160401b038311613589575081906130c360208a0154614caa565b601f8111613532575b5060805190601f83116001146134c157608051926134b6575b50508160011b916000199060031b1c19161760208701555b6001600160401b0382116132fb57819061311a6021880154614caa565b601f811161345c575b5060805190601f83116001146133eb57608051926133e0575b50508160011b916000199060031b1c19161760218501555b60228401916001600160401b0382116132fb5781906131738454614caa565b601f8111613389575b5060805190601f831160011461331e5760805192613313575b50508160011b916000199060031b1c19161790555b60238201906001600160401b0384116132fb576131c78254614caa565b601f81116132b0575b5060805190601f8511600114613246579380916024956080519261323b575b50508160011b916000199060031b1c19161790555b01805460ff19166001179055608051337fbe4ec58a792f909e102ee3d745d0c3b34a4d437a54d903c4db098d31c556422f8280a280f35b0135905085806131ef565b828252608051602081209290601f198716905b8181106132985750916001939187602498941061327e575b505050811b019055613204565b0135600019600384901b60f8161c19169055858080613271565b91936020600181928787013581550195019201613259565b826080515260805160208120601f870160051c810192602088106132f1575b601f0160051c01915b8281106132e65750506131d0565b8181556001016132d8565b90925082906132cf565b634e487b7160e01b6080515260416004526024608051fd5b013590508680613195565b848252608051602081209350909190601f198516905b8181106133715750908460019594939210613357575b505050811b0190556131aa565b0135600019600384901b60f8161c1916905586808061334a565b91936020600181928787013581550195019201613334565b909150836080515260805160208120601f850160051c810192602086106133d6575b90601f86959493920160051c01915b8281106133c857505061317c565b8181558594506001016133ba565b90925082906133ab565b01359050878061313c565b602188018252608051602081209350909190601f198516905b818110613444575090846001959493921061342a575b505050811b016021850155613154565b0135600019600384901b60f8161c1916905587808061341a565b91936020600181928787013581550195019201613404565b909150602187016080515260805160208120601f850160051c810192602086106134ac575b90601f86959493920160051c01915b82811061349e575050613123565b818155859450600101613490565b9092508290613481565b0135905089806130e5565b909150601f1983169160208a0181526080519260208420935b81811061351a5750908460019594939210613500575b505050811b0160208701556130fd565b0135600019600384901b60f8161c191690558980806134f0565b919360206001819287870135815501950192016134da565b909150602089016080515260805160208120601f850160051c810160208610613582575b9085949392915b601f840160051c82018110613574575050506130cc565b82815586955060010161355d565b5080613556565b634e487b7160e01b90526041600452608051602490fd5b60405162461bcd60e51b8152602060048201526002602482015261222760f11b6044820152606490fd5b34610abf576020366003190112610abf576004356135e6614e14565b612710811161362c5760407fdefb0223a84c18f8f7c10046a8600d298578166098e58c49022547d7a50da35b91600654908060065582519182526020820152a160805180f35b60405162461bcd60e51b8152602060048201526002602482015261524560f01b6044820152606490fd5b34610abf57602080600319360112610abf576014546040516347cd519160e01b81526004803590820152908290829060249082906001600160a01b03165afa908115610ab257608051916136ae575b50604051908152f35b90508181813d83116136d4575b6136c58183614d4b565b81010312610abf5751826136a5565b503d6136bb565b34610abf576080518060031936011261049b576003546040516001600160a01b039091168152602090f35b34610abf576020366003190112610abf576001600160a01b03613727614a9d565b16608051526009602052602060ff60406080512054166040519015158152f35b34610abf576080518060031936011261049b576020600e54604051908152f35b34610abf576020366003190112610abf576004356007811015610abf5760209060250154604051908152f35b34610abf576080518060031936011261049b576137ae614e14565b6080515460ff8160a01c16156137f95760ff60a01b1916608051557f5db9ee0a495bf2e6ff9c91a7834c1ba4fdd244a5e8aa4e537bd38aeae4b073aa6020604051338152a160805180f35b604051638dfc202b60e01b8152600490fd5b34610abf576020366003190112610abf576001600160a01b0361382c614a9d565b16608051526012602052602060406080512054604051908152f35b34610abf576080518060031936011261049b57602060ff60025460a01c16604051908152f35b34610abf57602080600319360112610abf57601454604051631d61396160e11b81526004803590820152908290829060249082906001600160a01b03165afa908115610ab257608051916136ae5750604051908152f35b34610abf576020366003190112610abf576001600160a01b036138e5614a9d565b168060805152600860205261390260ff6040608051205416615130565b608051526007602052602060406080512054604051908152f35b34610abf576080518060031936011261049b576001546040516001600160a01b039091168152602090f35b34610abf576080518060031936011261049b57613962615369565b61396a614f83565b3360805152600860205261398660ff6040608051205416615130565b3360805152600760205260406080512060048101546139c060ff8260b01c166139ae81614c60565b60018114908115613da4575b506157a2565b601e8201908154908115613d7a5760ff906201518042046019860181815410613d6a575b505060a81c166007811015610fe457602501549260805192601882019081548681809811613d57575b50508415613d2d57839460805194818111613d0b575b505084613ab1949596613a3a926080519055614ef7565b905560088101613a4b858254614ef7565b9055613a5784336158a0565b3360805152600c602052608051601f60408220920154905060ff8111600014613d05575060ff905b60ff60405192613a8e84614ce4565b6005845286602085015242604085015260805160608501521660808301526151d2565b6040518281527fd4379f0df0229cb2fed1f6f1c33e4a164dcf7652a8ff79efd7f4f66bcc1b375660203392a280613c99575b5060808051339052600760205251604090206001908101546001600160a01b03165b6001600160a01b038116151580613c8e575b15610f6d57608080516001600160a01b038316905260076020525160409020600481015460b081901c60ff16613b4c81614c60565b60018114908115613c7a575b50613b7d575b50600101546001600160a01b031691613b779150614f74565b90613b05565b600760ff8260a81c161015610fe45760ff9060a81c1660330154831115613ba5575b81613b5e565b6064918483810204831485151715610cfa57612710613b779386020480613bce575b5050613b9f565b613bd881836158a0565b60098301613be7828254614ef7565b905560018060a01b03821660805152600c602052613c3560406080512060405190613c1182614ce4565b6006825283602083015242604083015233606083015260ff881660808301526151d2565b604080519182526020820186905233926001600160a01b0316917f45948fc51bbcac6c3b663a1adcc0697660bbaeddd6eab9240451a0efcf7ad7539190a38480613bc7565b60029150613c8781614c60565b1486613b58565b506014821115613b17565b613ca581601654614ef7565b6016556040518181527fd5fe7fa76ce91683ea1b2f2ba3429885feeb202704aa35a0552e110e4eb6b26b60203392a26015546001600160a01b039190821680613cf0575b5050613ae3565b613cfd926001541661527b565b818080613ce9565b90613a7f565b9096613a3a929650613ab19550613d23888993614fa4565b9550969591613a23565b60405162461bcd60e51b8152602060048201526002602482015261444360f01b6044820152606490fd5b613d62929650614fa4565b938587613a0d565b60805160188801555585806139e4565b60405162461bcd60e51b81526020600482015260026024820152614e4360f01b6044820152606490fd5b60029150613db181614c60565b14846139ba565b34610abf576020366003190112610abf57600435613dd4615369565b613ddc614f83565b33608051526007602052604060805120613e0b600160ff600484015460b01c16613e0581614c60565b146157a2565b60058101805483811061435e5783156143345760ff60025460a01c16604d8111610cfa57600a0a80600a0290600a820403610cfa57801561431c5784066142f25783613e5691614fa4565b90556103e882026103e71983820401610cfa5760805192600554806142d3575b5083613e93613e9892613e93612710860491612710870490614fa4565b614fa4565b91612710613ea860065485615268565b0490613eb48285614fa4565b91806142b5575b5081614266575b601d915084614243575b93929301613edb848254614ef7565b905533608051526012602052604060805120613efc61271083048254614ef7565b9055604051612710820481527f2b1d2104e84dd4dabb0cca024171f783ab1e1c9dc1af9d60a2361596653a99c460203392a26080805133905260076020525160408120600190810154919490916001600160a01b03165b6001600160a01b038116151580614238575b156141165760018060a01b03811660805152600760205260406080512090600482015460ff8160b01c16613f9881614c60565b60018114908115614102575b50613fc9575b5050600101546001600160a01b031691613fc390614f74565b91613f53565b600760ff8260a81c161015610fe4578060ff869260a81c16603a0154821115613ff3575b50613faa565b9060ff6140039260a81c166157d3565b80614010575b8490613fed565b61401f61271091828804615268565b0490811515806140eb575b1561400957614059828099614043613fc39695856158a0565b600a8501614052838254614ef7565b9055614ef7565b9760018060a01b03821660805152600c6020526140a66040608051206040519061408282614ce4565b6007825283602083015242604083015233606083015260ff891660808301526151d2565b604080519182526020820187905233926001600160a01b0316917ffa90ff469705543002392f8f4d59d717c4d5c6b6c7832f347dc47e1f75855b939190a39087614009565b5061271086046140fb838a614ef7565b111561402a565b6002915061410f81614c60565b1489613fa4565b50836141ef843360805152600c6020526141616040608051206040519061413c82614ce4565b60038252866020830152426040830152608051606083015260805160808301526151d2565b3360805152600c6020526141aa6040608051206040519061418182614ce4565b600a825261271084046020830152426040830152608051606083015260805160808301526151d2565b3360805152600c602052604060805120612710604051926141ca84614ce4565b600b8452046020830152426040830152608051606083015260805160808301526151d2565b60405191825260208201527fdf273cb619d95419a9cd0ec88123a0538c85064229baa6363788f743fff90deb60403392a26001600080516020615dd88339815191525560805180f35b50600f831115613f65565b6001546003546142619187916001600160a01b03908116911661527b565b613ecc565b6002546001600160a01b0316801561428b57601d9261428691339061527b565b613ec2565b60405162461bcd60e51b8152602060048201526002602482015261135560f21b6044820152606490fd5b6001546142cd919033906001600160a01b031661527b565b85613ebb565b613e939450906127106142e9613e989383615268565b04945090613e76565b60405162461bcd60e51b8152602060048201526002602482015261414d60f01b6044820152606490fd5b634e487b7160e01b6080515260126004526024608051fd5b60405162461bcd60e51b8152602060048201526002602482015261041360f41b6044820152606490fd5b60405162461bcd60e51b815260206004820152600360248201526224a11960e91b6044820152606490fd5b34610abf576040366003190112610abf576143a2614a9d565b7f41310093e80507e3fb2fafc7628a627f835448a93096f490e3e207749295f48260206024356143d0614e14565b6001600160a01b03848116946143f7918391906143ee881515615ce7565b6001541661527b565b604051908152a260805180f35b34610abf576020366003190112610abf576001600160a01b03614425614a9d565b1660805152600d602052602060ff60406080512054166040519015158152f35b34610abf576020366003190112610abf5761445e614a9d565b608060405161446c81614d15565b369037608060405161447d81614d15565b3690376040519061448d82614d15565b60803683376040519061449f82614d15565b608036833760806040516144b281614d15565b36903760018060a01b031660805152600760205260406080512090601082019260146144dd85615a10565b9301936144e985615a10565b60405195909190608087016001600160401b038111888210176132fb57604052610bb887526107d060208801526103e860408801526101f460608801526080515b60048110614580576102808761457e8a6145738a6145688b61455d8c614553604051809a614c0b565b6080890190614c0b565b610100870190614c0b565b610180850190614c0b565b610200830190614c0b565bf35b8061458e6145fc9285614b9c565b90549061459b8386614b9c565b905460039391841b1c91831b1c1015614601576145b88286614b9c565b9054911b1c5b6145c88288615a43565b526127106145eb6145d98389615a43565b516145e4848d615a43565b5190615268565b046145f68289615a43565b52614f74565b61452a565b61460b8285614b9c565b9054911b1c6145be565b34610abf576080518060031936011261049b576020601654604051908152f35b34610abf5761464336614bec565b61464b614e14565b600782101580610fe4576001831015806146a8575b61466990615161565b610fe457816120e87ffd97dc847c39542ae663c77ed6c5fe5d200d0a308aac833f926e9c3f8f32453f9360250192808454945560405193849384615d18565b50506080516006831115614660565b34610abf576040366003190112610abf576146d0614a9d565b60243590811515809203610abf5760207f9742298dc6801916d04d1f05c6a0cc0405b25bad99060bbbc1c82a9f474ab0149161470a614e14565b6001600160a01b03169261471f841515615ce7565b8360805152600d825260406080512060ff1981541660ff8316179055604051908152a260805180f35b34610abf576020366003190112610abf576004356007811015610abf5760209060170154604051908152f35b34610abf576020366003190112610abf576001600160a01b03614795614a9d565b1660805152600760205261480060406080512060ff60248201541661482a6147bf60208401614d6e565b9261481c6147cf60218301614d6e565b9161480e6147eb60236147e460228501614d6e565b9301614d6e565b9360405198899860a08a5260a08a0190614bac565b9088820360208a0152614bac565b908682036040880152614bac565b908482036060860152614bac565b90151560808301520390f35b34610abf576020366003190112610abf576004356004811015610abf5760209060410154604051908152f35b34610abf576020366003190112610abf57600435608051526010602052602060ff60406080512054166040519015158152f35b34610abf576040366003190112610abf576148ae614a9d565b608080516001600160a01b039283169052600a6020525160408120805460243593929084101561049b57506020926148e591614b84565b9190546040519260031b1c168152f35b34610abf576040366003190112610abf5761490e614a9d565b6024359060ff82168203610abf57614924614e14565b6001600160a01b0390811690811561499457600180546001600160a01b0319811684179091556002805460ff60a01b191660a09590951b60ff60a01b169490941790935560805192167f5efdfedf5aef119c431263f0656093045dffdf44b3d8f1b0f158dc295c3a0f8e8380a380f35b60405162461bcd60e51b8152602060048201526002602482015261125560f21b6044820152606490fd5b3461049b576149d56149cf36614ab8565b91615b5f565b949190926040519460c086019060c08752845180925260e08701916020809601906080515b818110614a7c5750505091614a1d82614a39959489614a2b9503888b0152614ae2565b908782036040890152614ae2565b908582036060870152614b16565b83810360808501528180845192838152019301916080515b828110614a65578580868960a08301520390f35b835160ff1685529381019392810192600101614a51565b909193845190600c821015610fe457908152870193870191906001016149fa565b600435906001600160a01b0382168203614ab357565b600080fd5b6060906003190112614ab3576004356001600160a01b0381168103614ab357906024359060443590565b90815180825260208080930193019160005b828110614b02575050505090565b835185529381019392810192600101614af4565b90815180825260208080930193019160005b828110614b36575050505090565b83516001600160a01b031685529381019392810192600101614b28565b600b54811015614b6e57600b60005260206000200190600090565b634e487b7160e01b600052603260045260246000fd5b8054821015614b6e5760005260206000200190600090565b6004821015614b6e570190600090565b919082519283825260005b848110614bd8575050826000602080949584010152601f8019910116010190565b602081830181015184830182015201614bb7565b6040906003190112614ab3576004356007811015614ab3579060243590565b6000915b60048310614c1c57505050565b600190825181526020809101920192019190614c0f565b9181601f84011215614ab3578235916001600160401b038311614ab35760208381860195010111614ab357565b60031115614c6a57565b634e487b7160e01b600052602160045260246000fd5b906007821015614c6a5752565b34614ab3576000366003190112614ab35760206040516103e88152f35b90600182811c92168015614cda575b6020831014614cc457565b634e487b7160e01b600052602260045260246000fd5b91607f1691614cb9565b60a081019081106001600160401b03821117614cff57604052565b634e487b7160e01b600052604160045260246000fd5b608081019081106001600160401b03821117614cff57604052565b602081019081106001600160401b03821117614cff57604052565b601f909101601f19168101906001600160401b03821190821017614cff57604052565b9060405191826000825492614d8284614caa565b908184526001948581169081600014614df15750600114614dae575b5050614dac92500383614d4b565b565b9093915060005260209081600020936000915b818310614dd9575050614dac93508201013880614d9e565b85548884018501529485019487945091830191614dc1565b915050614dac94506020925060ff191682840152151560051b8201013880614d9e565b6000546001600160a01b03163303614e2857565b60405163118cdaa760e01b8152336004820152602490fd5b15614e4757565b60405162461bcd60e51b815260206004820152600260248201526120a960f11b6044820152606490fd5b15614e7857565b60405162461bcd60e51b8152602060048201526002602482015261495360f01b6044820152606490fd5b15614ea957565b60405162461bcd60e51b815260206004820152600260248201526124a160f11b6044820152606490fd5b90614edd81614c60565b815460ff60a01b191660a09190911b60ff60a01b16179055565b91908201809211614f0457565b634e487b7160e01b600052601160045260246000fd5b600b54600160401b811015614cff57806001614f399201600b55614b53565b819291549060031b9160018060a01b03809116831b921b1916179055565b8054600160401b811015614cff57614f3991600182018155614b84565b6000198114614f045760010190565b60ff60005460a01c16614f9257565b60405163d93c066560e01b8152600490fd5b91908203918211614f0457565b600080606033811b600180805b614fcb575b505050505090565b949091929394156150b6575b506000601191614fe78354614f74565b92838155600b54906040948551602093848201924284524489840152898b840152607483015260949081830152815260c0810181811060018060401b038211176150a2579064e8d4a50c189291885251902006906103e8820180921161509057506150529097614f74565b9360328511615068575050908194939294614fbe565b60649250519062461bcd60e51b825260048201526002602482015261494760f01b6044820152fd5b634e487b7160e01b8552600452602484fd5b634e487b7160e01b87526041600452602487fd5b80600052601060205260ff60406000205416614fd7579380614fc3565b5b6001600160a01b03818116600090815260076020526040902060040154169081156150ff57506150d4565b905090565b5b6001600160a01b03818116600090815260076020526040902060030154169081156150ff5750615105565b1561513757565b60405162461bcd60e51b8152602060048201526002602482015261272960f11b6044820152606490fd5b1561516857565b60405162461bcd60e51b8152602060048201526002602482015261049560f41b6044820152606490fd5b906007811015614c6a57815460ff60a81b191660a89190911b60ff60a81b16179055565b8054821015614b6e5760005260206000209060021b0190600090565b8054600160401b811015614cff576151ef916001820181556151b6565b61525257815190600c821015614c6a5760039160ff801983541691161781556020830151600182015560408301516002820155019060018060a01b03606082015116825491608060ff60a01b91015160a01b169160018060a81b03191617179055565b634e487b7160e01b600052600060045260246000fd5b81810292918115918404141715614f0457565b60405163a9059cbb60e01b60009081526001600160a01b039384166004526024949094529260209060448180855af16001600051148116156152dc575b83604052156152c657505050565b635274afe760e01b835216600482015260249150fd5b60018115166152f257813b15153d1516166152b8565b833d6000823e3d90fd5b6040516323b872dd60e01b60009081526001600160a01b03938416600452938316602452604494909452909160209060648180855af1600160005114811615615353575b836040526000606052156152c657505050565b60018115166152f257813b15153d151616615340565b600080516020615dd883398151915260028154146153875760029055565b604051633ee5aeb560e01b8152600490fd5b6001600160a01b03908116600081815260076020526040808220600101549294929093169283156154bd5783825280822092600484015460ff8160b01c166153e081614c60565b600181141590816154a8575b5061549f5760a81c60ff16600781101561053d576127109161541291601e015490615268565b049081156154975761549060209360077f86583c8be3288ec633d5a10afa75407d4c785bff5edd40840c42e48d0efdcfbb9661544e868a6158a0565b0161545a858254614ef7565b9055868152600c855282812083519161547283614ce4565b600483528587840152428584015289606084015260808301526151d2565b51908152a3565b505050505050565b50505050505050565b600291506154b581614c60565b1415386153ec565b5050505050565b919060005b60018060a01b038094169384600052600790602090828252600291604091838360002001541694851561570a576154ff90614f74565b97601490818a116156fe578660005285835260ff600480866000200154928260b094851c169361552e85614c60565b888460018097149283156156d7575b505050615554575b505050505050505050926154c9565b60005287855285600020015460a01c169061556e82614c60565b811494600086156156d25750885b88600052878552615595600c8760002001918254614ef7565b90556155a082614c60565b811490600082156156cd5750885b886000528785526155c7600d8760002001918254614ef7565b90556155d281614c60565b600086156156c85750885b886000528785526155f6600e8760002001918254614ef7565b905561560181614c60565b600082156156c35750885b88600052878552615625600f8760002001918254614ef7565b90556156308b615715565b96909661563e575b80615545565b61564782614c60565b1561568657505050615669929161567994601092876000525260002001614b9c565b612ea58583548360031b1c614ef7565b3880808080808080615638565b615694909594929395614c60565b6156a3575b5050505050615679565b6156b99461566994876000525260002001614b9c565b3880808080615699565b61560c565b6155dd565b6155ae565b61557c565b909192508c6000528b8952848a6000200154901c166156f581614c60565b1488843861553d565b50505050505050509050565b505050505050509050565b6001908181101580615797575b61579157600481101580615786575b61578057600781101580615775575b61576f57600a8110159081615763575b5061575e5750600090600090565b600391565b60149150111538615750565b50600291565b506009811115615740565b50908190565b506006811115615731565b50600091565b506003811115615722565b156157a957565b60405162461bcd60e51b81526020600482015260026024820152614e4160f01b6044820152606490fd5b6007811015614c6a57600181036157f85750600110156157f3575b600090565b606490565b6002810361580e5750600310156157f357600090565b60038103615837575060048111156158315760051461582c57600090565b603290565b50606490565b6004810361585657506005811115615831576009101561582c57600090565b600581036158745750600481111561583157600c106157ee57603290565b600614615882575b50600090565b600581111561589957600f101561582c573861587c565b506101f490565b9060018060a01b0382166000526007602052604060002081156159695760ff600482015460a81c166007811015614c6a57602c0154926000600b830194855490818111615958575b5050801561594c57808411615919575050906005615915920161590c828254614ef7565b90558254614ef7565b9055565b8293614dac956005615946949501615932848254614ef7565b905561593f838254614ef7565b9055614fa4565b9161596e565b5090614dac935061596e565b6159629250614fa4565b38806158e8565b505050565b9060ff600291600484019081546001848260b01c1661598c81614c60565b146159ba575b50505460b01c166159a281614c60565b146159ab575050565b60066159159101918254614ef7565b60b084901b1916600160b11b17825542601b86018190556040519081526001600160a01b03909116907f2bb92f1150248e7f78a267b3904ebd95f62a5225d70dcc813fb6906c3a646e9890602090a23880615992565b60405191906000835b60048210615a2d57505050614dac82614d15565b6001602081928554815201930191019091615a19565b906004811015614b6e5760051b0190565b6001600160401b038111614cff5760051b60200190565b90615a7582615a54565b615a826040519182614d4b565b8281528092615a93601f1991615a54565b0190602036910137565b8051821015614b6e5760209160051b010190565b929060018060a01b0380600095168552600a6020526040852080549485841015615b4257615adf9084614ef7565b83868211615b3a575b615af191614fa4565b92615afb84615a6b565b965b848110615b0b575050505050565b8084615b23615b1d615b359486614ef7565b86614b84565b90549060031b1c166145f6828b615a9d565b615afd565b869150615ae8565b50505050909160405190615b5582614d30565b8082523681379190565b6001600160a01b03166000908152600c60205260409081902080549493909185841015615c885750615b919083614ef7565b82858211615c80575b615ba391614fa4565b91615bad83615a6b565b94615bb784615a6b565b94615bc185615a6b565b94615bcb81615a6b565b94615bd582615a6b565b9460005b838110615be65750505050565b6000198601868111614f0457615c09615c0f91615c038486614ef7565b90614fa4565b846151b6565b50908b615c218260ff85541692615a9d565b600c821015614c6a57615c7b9360ff92600392528d615c4585600184015492615a9d565b526002810154615c55858f615a9d565b5201546001600160a01b038116615c6c848d615a9d565b5260a01c166145f6828a615a9d565b615bd9565b859150615b9a565b925050508051615c9781614d30565b60008152815193615ca785614d30565b60008552825193615cb785614d30565b60008552835193615cc785614d30565b600085525192615cd684614d30565b600084526000368137959493929190565b15615cee57565b60405162461bcd60e51b815260206004820152600260248201526124ab60f11b6044820152606490fd5b604091949392615d2c826060810197614c80565b60208201520152565b600b54801561587c57615d4b600e548092614ef7565b6000198101908111614f04578115615d61570490565b634e487b7160e01b600052601260045260246000fdfee22a39f862558eb01c2a26eb38c7d884b499221d9a5989f637529bd3e77fd6798be0079c531659141344cd1fd0a4f28419497f9722a3daafe3b4186f6b6457e04769bc30c3e6f90ecfef0f6e4760f65f2cc4ae6c67493463e3c9caf3d2f863e99b779b17422d0df92223018b32b4d1fa46e071723d6817e2486d003becc55f00a2646970667358221220e1c061096c3c04ae35dbe59a03bdb61d5a852f65424b64df2e4b45627340475464736f6c63430008140033",
  "linkReferences": {},
  "deployedLinkReferences": {}
}