{
  "_format": "hh-sol-artifact-1",
  "contractName": "MLMContract",
  "sourceName": "contracts/MLMContract.sol",
  "abi": [
    {
      "inputs": [
        {
          "internalType": "address",
          "name": "_paymentToken",
          "type": "address"
        },
        {
          "internalType": "uint8",
          "name": "_tokenDecimals",
          "type": "uint8"
        },
        {
          "internalType": "address",
          "name": "_feeRecipient",
          "type": "address"
        },
        {
          "internalType": "address",
          "name": "_adminBinaryWallet",
          "type": "address"
        }
      ],
      "stateMutability": "nonpayable",
      "type": "constructor"
    },
    {
      "inputs": [],
      "name": "EnforcedPause",
      "type": "error"
    },
    {
      "inputs": [],
      "name": "ExpectedPause",
      "type": "error"
    },
    {
      "inputs": [
        {
          "internalType": "address",
          "name": "owner",
          "type": "address"
        }
      ],
      "name": "OwnableInvalidOwner",
      "type": "error"
    },
    {
      "inputs": [
        {
          "internalType": "address",
          "name": "account",
          "type": "address"
        }
      ],
      "name": "OwnableUnauthorizedAccount",
      "type": "error"
    },
    {
      "inputs": [],
      "name": "ReentrancyGuardReentrantCall",
      "type": "error"
    },
    {
      "inputs": [
        {
          "internalType": "address",
          "name": "token",
          "type": "address"
        }
      ],
      "name": "SafeERC20FailedOperation",
      "type": "error"
    },
    {
      "anonymous": false,
      "inputs": [
        {
          "indexed": true,
          "internalType": "address",
          "name": "oldWallet",
          "type": "address"
        },
        {
          "indexed": true,
          "internalType": "address",
          "name": "newWallet",
          "type": "address"
        }
      ],
      "name": "AdminBinaryWalletUpdated",
      "type": "event"
    },
    {
      "anonymous": false,
      "inputs": [
        {
          "indexed": false,
          "internalType": "uint256",
          "name": "batchNumber",
          "type": "uint256"
        },
        {
          "indexed": false,
          "internalType": "uint256",
          "name": "processedCount",
          "type": "uint256"
        }
      ],
      "name": "BinaryBatchProcessed",
      "type": "event"
    },
    {
      "anonymous": false,
      "inputs": [
        {
          "indexed": false,
          "internalType": "uint256",
          "name": "oldSize",
          "type": "uint256"
        },
        {
          "indexed": false,
          "internalType": "uint256",
          "name": "newSize",
          "type": "uint256"
        }
      ],
      "name": "BinaryBatchSizeUpdated",
      "type": "event"
    },
    {
      "anonymous": false,
      "inputs": [
        {
          "indexed": true,
          "internalType": "address",
          "name": "user",
          "type": "address"
        },
        {
          "indexed": false,
          "internalType": "uint256",
          "name": "flushedAmount",
          "type": "uint256"
        }
      ],
      "name": "BinaryFlushed",
      "type": "event"
    },
    {
      "anonymous": false,
      "inputs": [
        {
          "indexed": true,
          "internalType": "address",
          "name": "user",
          "type": "address"
        },
        {
          "indexed": false,
          "internalType": "uint256",
          "name": "amount",
          "type": "uint256"
        }
      ],
      "name": "BinaryIncomeAllocated",
      "type": "event"
    },
    {
      "anonymous": false,
      "inputs": [
        {
          "indexed": true,
          "internalType": "address",
          "name": "user",
          "type": "address"
        },
        {
          "indexed": false,
          "internalType": "uint256",
          "name": "amount",
          "type": "uint256"
        }
      ],
      "name": "BinaryIncomeClaimed",
      "type": "event"
    },
    {
      "anonymous": false,
      "inputs": [
        {
          "indexed": true,
          "internalType": "address",
          "name": "processor",
          "type": "address"
        },
        {
          "indexed": false,
          "internalType": "bool",
          "name": "status",
          "type": "bool"
        }
      ],
      "name": "BinaryProcessorUpdated",
      "type": "event"
    },
    {
      "anonymous": false,
      "inputs": [
        {
          "indexed": true,
          "internalType": "address",
          "name": "oldHandler",
          "type": "address"
        },
        {
          "indexed": true,
          "internalType": "address",
          "name": "newHandler",
          "type": "address"
        }
      ],
      "name": "BoardHandlerUpdated",
      "type": "event"
    },
    {
      "anonymous": false,
      "inputs": [
        {
          "indexed": true,
          "internalType": "address",
          "name": "user",
          "type": "address"
        },
        {
          "indexed": false,
          "internalType": "uint256",
          "name": "amount",
          "type": "uint256"
        }
      ],
      "name": "BtcPoolCredited",
      "type": "event"
    },
    {
      "anonymous": false,
      "inputs": [
        {
          "indexed": true,
          "internalType": "address",
          "name": "to",
          "type": "address"
        },
        {
          "indexed": false,
          "internalType": "uint256",
          "name": "amount",
          "type": "uint256"
        }
      ],
      "name": "ContractFundsWithdrawn",
      "type": "event"
    },
    {
      "anonymous": false,
      "inputs": [
        {
          "indexed": false,
          "internalType": "enum MLMContract.Package",
          "name": "pkg",
          "type": "uint8"
        },
        {
          "indexed": false,
          "internalType": "uint256",
          "name": "oldCap",
          "type": "uint256"
        },
        {
          "indexed": false,
          "internalType": "uint256",
          "name": "newCap",
          "type": "uint256"
        }
      ],
      "name": "DailyCappingUpdated",
      "type": "event"
    },
    {
      "anonymous": false,
      "inputs": [
        {
          "indexed": true,
          "internalType": "address",
          "name": "recipient",
          "type": "address"
        },
        {
          "indexed": true,
          "internalType": "address",
          "name": "from",
          "type": "address"
        },
        {
          "indexed": false,
          "internalType": "uint256",
          "name": "amount",
          "type": "uint256"
        }
      ],
      "name": "DirectIncomeDistributed",
      "type": "event"
    },
    {
      "anonymous": false,
      "inputs": [
        {
          "indexed": true,
          "internalType": "address",
          "name": "token",
          "type": "address"
        },
        {
          "indexed": true,
          "internalType": "address",
          "name": "to",
          "type": "address"
        },
        {
          "indexed": false,
          "internalType": "uint256",
          "name": "amount",
          "type": "uint256"
        }
      ],
      "name": "EmergencyTokenRecovery",
      "type": "event"
    },
    {
      "anonymous": false,
      "inputs": [
        {
          "indexed": true,
          "internalType": "address",
          "name": "oldRecipient",
          "type": "address"
        },
        {
          "indexed": true,
          "internalType": "address",
          "name": "newRecipient",
          "type": "address"
        }
      ],
      "name": "FeeRecipientUpdated",
      "type": "event"
    },
    {
      "anonymous": false,
      "inputs": [
        {
          "indexed": true,
          "internalType": "address",
          "name": "user",
          "type": "address"
        },
        {
          "indexed": false,
          "internalType": "uint256",
          "name": "userId",
          "type": "uint256"
        },
        {
          "indexed": false,
          "internalType": "enum MLMContract.Package",
          "name": "pkg",
          "type": "uint8"
        },
        {
          "indexed": true,
          "internalType": "address",
          "name": "sponsor",
          "type": "address"
        }
      ],
      "name": "FreeAccountActivated",
      "type": "event"
    },
    {
      "anonymous": false,
      "inputs": [
        {
          "indexed": true,
          "internalType": "address",
          "name": "user",
          "type": "address"
        },
        {
          "indexed": false,
          "internalType": "uint256",
          "name": "flushedAmount",
          "type": "uint256"
        }
      ],
      "name": "GracePeriodExpired",
      "type": "event"
    },
    {
      "anonymous": false,
      "inputs": [
        {
          "indexed": true,
          "internalType": "address",
          "name": "user",
          "type": "address"
        },
        {
          "indexed": false,
          "internalType": "uint256",
          "name": "startTime",
          "type": "uint256"
        }
      ],
      "name": "GracePeriodStarted",
      "type": "event"
    },
    {
      "anonymous": false,
      "inputs": [
        {
          "indexed": true,
          "internalType": "address",
          "name": "oldToken",
          "type": "address"
        },
        {
          "indexed": true,
          "internalType": "address",
          "name": "newToken",
          "type": "address"
        }
      ],
      "name": "MTokenUpdated",
      "type": "event"
    },
    {
      "anonymous": false,
      "inputs": [
        {
          "indexed": true,
          "internalType": "address",
          "name": "recipient",
          "type": "address"
        },
        {
          "indexed": true,
          "internalType": "address",
          "name": "from",
          "type": "address"
        },
        {
          "indexed": false,
          "internalType": "uint256",
          "name": "amount",
          "type": "uint256"
        },
        {
          "indexed": false,
          "internalType": "uint256",
          "name": "level",
          "type": "uint256"
        }
      ],
      "name": "MatchingOverrideDistributed",
      "type": "event"
    },
    {
      "anonymous": false,
      "inputs": [
        {
          "indexed": false,
          "internalType": "enum MLMContract.Package",
          "name": "pkg",
          "type": "uint8"
        },
        {
          "indexed": false,
          "internalType": "uint256",
          "name": "oldLimit",
          "type": "uint256"
        },
        {
          "indexed": false,
          "internalType": "uint256",
          "name": "newLimit",
          "type": "uint256"
        }
      ],
      "name": "MaxIncomeLimitUpdated",
      "type": "event"
    },
    {
      "anonymous": false,
      "inputs": [
        {
          "indexed": true,
          "internalType": "address",
          "name": "previousOwner",
          "type": "address"
        },
        {
          "indexed": true,
          "internalType": "address",
          "name": "newOwner",
          "type": "address"
        }
      ],
      "name": "OwnershipTransferred",
      "type": "event"
    },
    {
      "anonymous": false,
      "inputs": [
        {
          "indexed": true,
          "internalType": "address",
          "name": "user",
          "type": "address"
        },
        {
          "indexed": false,
          "internalType": "enum MLMContract.Package",
          "name": "pkg",
          "type": "uint8"
        },
        {
          "indexed": false,
          "internalType": "uint256",
          "name": "amountPaid",
          "type": "uint256"
        }
      ],
      "name": "PackageActivated",
      "type": "event"
    },
    {
      "anonymous": false,
      "inputs": [
        {
          "indexed": false,
          "internalType": "enum MLMContract.Package",
          "name": "pkg",
          "type": "uint8"
        },
        {
          "indexed": false,
          "internalType": "uint256",
          "name": "oldPrice",
          "type": "uint256"
        },
        {
          "indexed": false,
          "internalType": "uint256",
          "name": "newPrice",
          "type": "uint256"
        }
      ],
      "name": "PackagePriceUpdated",
      "type": "event"
    },
    {
      "anonymous": false,
      "inputs": [
        {
          "indexed": true,
          "internalType": "address",
          "name": "user",
          "type": "address"
        },
        {
          "indexed": false,
          "internalType": "enum MLMContract.Package",
          "name": "oldPkg",
          "type": "uint8"
        },
        {
          "indexed": false,
          "internalType": "enum MLMContract.Package",
          "name": "newPkg",
          "type": "uint8"
        },
        {
          "indexed": false,
          "internalType": "uint256",
          "name": "amountPaid",
          "type": "uint256"
        }
      ],
      "name": "PackageUpgraded",
      "type": "event"
    },
    {
      "anonymous": false,
      "inputs": [
        {
          "indexed": false,
          "internalType": "address",
          "name": "account",
          "type": "address"
        }
      ],
      "name": "Paused",
      "type": "event"
    },
    {
      "anonymous": false,
      "inputs": [
        {
          "indexed": true,
          "internalType": "address",
          "name": "oldToken",
          "type": "address"
        },
        {
          "indexed": true,
          "internalType": "address",
          "name": "newToken",
          "type": "address"
        }
      ],
      "name": "PaymentTokenUpdated",
      "type": "event"
    },
    {
      "anonymous": false,
      "inputs": [
        {
          "indexed": true,
          "internalType": "address",
          "name": "oldAddr",
          "type": "address"
        },
        {
          "indexed": true,
          "internalType": "address",
          "name": "newAddr",
          "type": "address"
        }
      ],
      "name": "ProductWalletUpdated",
      "type": "event"
    },
    {
      "anonymous": false,
      "inputs": [
        {
          "indexed": true,
          "internalType": "address",
          "name": "user",
          "type": "address"
        }
      ],
      "name": "ProfileUpdated",
      "type": "event"
    },
    {
      "anonymous": false,
      "inputs": [
        {
          "indexed": true,
          "internalType": "address",
          "name": "user",
          "type": "address"
        },
        {
          "indexed": false,
          "internalType": "enum MLMContract.Package",
          "name": "pkg",
          "type": "uint8"
        },
        {
          "indexed": false,
          "internalType": "uint256",
          "name": "amountPaid",
          "type": "uint256"
        }
      ],
      "name": "Reactivated",
      "type": "event"
    },
    {
      "anonymous": false,
      "inputs": [
        {
          "indexed": true,
          "internalType": "address",
          "name": "user",
          "type": "address"
        },
        {
          "indexed": false,
          "internalType": "uint256",
          "name": "amount",
          "type": "uint256"
        }
      ],
      "name": "TempWalletClaimed",
      "type": "event"
    },
    {
      "anonymous": false,
      "inputs": [
        {
          "indexed": false,
          "internalType": "address",
          "name": "account",
          "type": "address"
        }
      ],
      "name": "Unpaused",
      "type": "event"
    },
    {
      "anonymous": false,
      "inputs": [
        {
          "indexed": true,
          "internalType": "address",
          "name": "user",
          "type": "address"
        },
        {
          "indexed": false,
          "internalType": "uint256",
          "name": "userId",
          "type": "uint256"
        },
        {
          "indexed": true,
          "internalType": "address",
          "name": "sponsor",
          "type": "address"
        },
        {
          "indexed": true,
          "internalType": "address",
          "name": "binaryParent",
          "type": "address"
        },
        {
          "indexed": false,
          "internalType": "enum MLMContract.Side",
          "name": "side",
          "type": "uint8"
        }
      ],
      "name": "UserRegistered",
      "type": "event"
    },
    {
      "anonymous": false,
      "inputs": [
        {
          "indexed": true,
          "internalType": "address",
          "name": "user",
          "type": "address"
        },
        {
          "indexed": false,
          "internalType": "uint256",
          "name": "netAmount",
          "type": "uint256"
        },
        {
          "indexed": false,
          "internalType": "uint256",
          "name": "fee",
          "type": "uint256"
        }
      ],
      "name": "Withdrawal",
      "type": "event"
    },
    {
      "anonymous": false,
      "inputs": [
        {
          "indexed": false,
          "internalType": "uint256",
          "name": "oldFee",
          "type": "uint256"
        },
        {
          "indexed": false,
          "internalType": "uint256",
          "name": "newFee",
          "type": "uint256"
        }
      ],
      "name": "WithdrawalFeeUpdated",
      "type": "event"
    },
    {
      "anonymous": false,
      "inputs": [
        {
          "indexed": true,
          "internalType": "address",
          "name": "recipient",
          "type": "address"
        },
        {
          "indexed": true,
          "internalType": "address",
          "name": "from",
          "type": "address"
        },
        {
          "indexed": false,
          "internalType": "uint256",
          "name": "amount",
          "type": "uint256"
        },
        {
          "indexed": false,
          "internalType": "uint256",
          "name": "level",
          "type": "uint256"
        }
      ],
      "name": "WithdrawalMatchDistributed",
      "type": "event"
    },
    {
      "anonymous": false,
      "inputs": [
        {
          "indexed": false,
          "internalType": "uint256",
          "name": "oldRate",
          "type": "uint256"
        },
        {
          "indexed": false,
          "internalType": "uint256",
          "name": "newRate",
          "type": "uint256"
        }
      ],
      "name": "WithdrawalUsdtRateUpdated",
      "type": "event"
    },
    {
      "inputs": [],
      "name": "BASIS_POINTS",
      "outputs": [
        {
          "internalType": "uint256",
          "name": "",
          "type": "uint256"
        }
      ],
      "stateMutability": "view",
      "type": "function"
    },
    {
      "inputs": [],
      "name": "BTC_POOL_RATE",
      "outputs": [
        {
          "internalType": "uint256",
          "name": "",
          "type": "uint256"
        }
      ],
      "stateMutability": "view",
      "type": "function"
    },
    {
      "inputs": [],
      "name": "GRACE_PERIOD_DURATION",
      "outputs": [
        {
          "internalType": "uint256",
          "name": "",
          "type": "uint256"
        }
      ],
      "stateMutability": "view",
      "type": "function"
    },
    {
      "inputs": [],
      "name": "INCOME_SPLIT_RATE",
      "outputs": [
        {
          "internalType": "uint256",
          "name": "",
          "type": "uint256"
        }
      ],
      "stateMutability": "view",
      "type": "function"
    },
    {
      "inputs": [],
      "name": "MATCHING_OVERRIDE_RATE",
      "outputs": [
        {
          "internalType": "uint256",
          "name": "",
          "type": "uint256"
        }
      ],
      "stateMutability": "view",
      "type": "function"
    },
    {
      "inputs": [],
      "name": "MAX_USER_ID",
      "outputs": [
        {
          "internalType": "uint256",
          "name": "",
          "type": "uint256"
        }
      ],
      "stateMutability": "view",
      "type": "function"
    },
    {
      "inputs": [],
      "name": "MIN_USER_ID",
      "outputs": [
        {
          "internalType": "uint256",
          "name": "",
          "type": "uint256"
        }
      ],
      "stateMutability": "view",
      "type": "function"
    },
    {
      "inputs": [],
      "name": "PRODUCT_WALLET_RATE",
      "outputs": [
        {
          "internalType": "uint256",
          "name": "",
          "type": "uint256"
        }
      ],
      "stateMutability": "view",
      "type": "function"
    },
    {
      "inputs": [],
      "name": "WITHDRAWAL_MATCH_POOL_RATE",
      "outputs": [
        {
          "internalType": "uint256",
          "name": "",
          "type": "uint256"
        }
      ],
      "stateMutability": "view",
      "type": "function"
    },
    {
      "inputs": [
        {
          "internalType": "enum MLMContract.Package",
          "name": "_pkg",
          "type": "uint8"
        }
      ],
      "name": "activatePackage",
      "outputs": [],
      "stateMutability": "nonpayable",
      "type": "function"
    },
    {
      "inputs": [
        {
          "internalType": "address",
          "name": "_user",
          "type": "address"
        },
        {
          "internalType": "uint256",
          "name": "_sponsorId",
          "type": "uint256"
        },
        {
          "internalType": "uint256",
          "name": "_binaryParentId",
          "type": "uint256"
        },
        {
          "internalType": "bool",
          "name": "_placeLeft",
          "type": "bool"
        },
        {
          "internalType": "enum MLMContract.Package",
          "name": "_pkg",
          "type": "uint8"
        }
      ],
      "name": "adminActivateUser",
      "outputs": [],
      "stateMutability": "nonpayable",
      "type": "function"
    },
    {
      "inputs": [],
      "name": "adminBinaryWallet",
      "outputs": [
        {
          "internalType": "address",
          "name": "",
          "type": "address"
        }
      ],
      "stateMutability": "view",
      "type": "function"
    },
    {
      "inputs": [
        {
          "internalType": "uint256",
          "name": "",
          "type": "uint256"
        }
      ],
      "name": "allUsers",
      "outputs": [
        {
          "internalType": "address",
          "name": "",
          "type": "address"
        }
      ],
      "stateMutability": "view",
      "type": "function"
    },
    {
      "inputs": [
        {
          "internalType": "uint256",
          "name": "_batchNumber",
          "type": "uint256"
        }
      ],
      "name": "autoDistributeBinaryIncome",
      "outputs": [],
      "stateMutability": "nonpayable",
      "type": "function"
    },
    {
      "inputs": [
        {
          "internalType": "address[]",
          "name": "_users",
          "type": "address[]"
        }
      ],
      "name": "batchFlushGracePeriods",
      "outputs": [],
      "stateMutability": "nonpayable",
      "type": "function"
    },
    {
      "inputs": [],
      "name": "binaryBatchSize",
      "outputs": [
        {
          "internalType": "uint256",
          "name": "",
          "type": "uint256"
        }
      ],
      "stateMutability": "view",
      "type": "function"
    },
    {
      "inputs": [
        {
          "internalType": "address",
          "name": "",
          "type": "address"
        }
      ],
      "name": "boardEntryCount",
      "outputs": [
        {
          "internalType": "uint256",
          "name": "",
          "type": "uint256"
        }
      ],
      "stateMutability": "view",
      "type": "function"
    },
    {
      "inputs": [],
      "name": "boardHandler",
      "outputs": [
        {
          "internalType": "contract IBoardMatrixHandler",
          "name": "",
          "type": "address"
        }
      ],
      "stateMutability": "view",
      "type": "function"
    },
    {
      "inputs": [
        {
          "internalType": "address",
          "name": "",
          "type": "address"
        }
      ],
      "name": "btcPoolBalance",
      "outputs": [
        {
          "internalType": "uint256",
          "name": "",
          "type": "uint256"
        }
      ],
      "stateMutability": "view",
      "type": "function"
    },
    {
      "inputs": [],
      "name": "claimBinaryIncome",
      "outputs": [],
      "stateMutability": "nonpayable",
      "type": "function"
    },
    {
      "inputs": [
        {
          "internalType": "uint256",
          "name": "",
          "type": "uint256"
        }
      ],
      "name": "dailyCapping",
      "outputs": [
        {
          "internalType": "uint256",
          "name": "",
          "type": "uint256"
        }
      ],
      "stateMutability": "view",
      "type": "function"
    },
    {
      "inputs": [
        {
          "internalType": "uint256",
          "name": "",
          "type": "uint256"
        }
      ],
      "name": "directRates",
      "outputs": [
        {
          "internalType": "uint256",
          "name": "",
          "type": "uint256"
        }
      ],
      "stateMutability": "view",
      "type": "function"
    },
    {
      "inputs": [
        {
          "internalType": "address",
          "name": "",
          "type": "address"
        },
        {
          "internalType": "uint256",
          "name": "",
          "type": "uint256"
        }
      ],
      "name": "directReferrals",
      "outputs": [
        {
          "internalType": "address",
          "name": "",
          "type": "address"
        }
      ],
      "stateMutability": "view",
      "type": "function"
    },
    {
      "inputs": [],
      "name": "enterBoardPool",
      "outputs": [],
      "stateMutability": "nonpayable",
      "type": "function"
    },
    {
      "inputs": [],
      "name": "feeRecipient",
      "outputs": [
        {
          "internalType": "address",
          "name": "",
          "type": "address"
        }
      ],
      "stateMutability": "view",
      "type": "function"
    },
    {
      "inputs": [
        {
          "internalType": "address",
          "name": "_user",
          "type": "address"
        }
      ],
      "name": "flushGracePeriod",
      "outputs": [],
      "stateMutability": "nonpayable",
      "type": "function"
    },
    {
      "inputs": [
        {
          "internalType": "uint256",
          "name": "_userId",
          "type": "uint256"
        }
      ],
      "name": "getAddressByUserId",
      "outputs": [
        {
          "internalType": "address",
          "name": "",
          "type": "address"
        }
      ],
      "stateMutability": "view",
      "type": "function"
    },
    {
      "inputs": [
        {
          "internalType": "address",
          "name": "_user",
          "type": "address"
        }
      ],
      "name": "getBinaryInfo",
      "outputs": [
        {
          "internalType": "uint256",
          "name": "leftBusiness",
          "type": "uint256"
        },
        {
          "internalType": "uint256",
          "name": "rightBusiness",
          "type": "uint256"
        },
        {
          "internalType": "uint256",
          "name": "carryLeft",
          "type": "uint256"
        },
        {
          "internalType": "uint256",
          "name": "carryRight",
          "type": "uint256"
        },
        {
          "internalType": "uint256",
          "name": "todayBinaryIncome",
          "type": "uint256"
        },
        {
          "internalType": "uint256",
          "name": "dailyCap",
          "type": "uint256"
        },
        {
          "internalType": "uint256",
          "name": "claimableBinaryIncome",
          "type": "uint256"
        },
        {
          "internalType": "uint256",
          "name": "binaryDepth",
          "type": "uint256"
        }
      ],
      "stateMutability": "view",
      "type": "function"
    },
    {
      "inputs": [
        {
          "internalType": "address",
          "name": "_user",
          "type": "address"
        }
      ],
      "name": "getBinarySlabInfo",
      "outputs": [
        {
          "internalType": "uint256[4]",
          "name": "carryLeftSlabs",
          "type": "uint256[4]"
        },
        {
          "internalType": "uint256[4]",
          "name": "carryRightSlabs",
          "type": "uint256[4]"
        },
        {
          "internalType": "uint256[4]",
          "name": "matchableSlabs",
          "type": "uint256[4]"
        },
        {
          "internalType": "uint256[4]",
          "name": "potentialIncomeSlabs",
          "type": "uint256[4]"
        },
        {
          "internalType": "uint256[4]",
          "name": "rates",
          "type": "uint256[4]"
        }
      ],
      "stateMutability": "view",
      "type": "function"
    },
    {
      "inputs": [
        {
          "internalType": "uint256",
          "name": "_boardLevel",
          "type": "uint256"
        }
      ],
      "name": "getBoardCurrentIndex",
      "outputs": [
        {
          "internalType": "uint256",
          "name": "",
          "type": "uint256"
        }
      ],
      "stateMutability": "view",
      "type": "function"
    },
    {
      "inputs": [
        {
          "internalType": "uint256",
          "name": "_boardLevel",
          "type": "uint256"
        },
        {
          "internalType": "uint256",
          "name": "_index",
          "type": "uint256"
        }
      ],
      "name": "getBoardMatrixInfo",
      "outputs": [
        {
          "internalType": "address",
          "name": "owner",
          "type": "address"
        },
        {
          "internalType": "uint256",
          "name": "filledCount",
          "type": "uint256"
        },
        {
          "internalType": "bool",
          "name": "completed",
          "type": "bool"
        }
      ],
      "stateMutability": "view",
      "type": "function"
    },
    {
      "inputs": [
        {
          "internalType": "uint256",
          "name": "_boardLevel",
          "type": "uint256"
        }
      ],
      "name": "getBoardPrice",
      "outputs": [
        {
          "internalType": "uint256",
          "name": "",
          "type": "uint256"
        }
      ],
      "stateMutability": "view",
      "type": "function"
    },
    {
      "inputs": [
        {
          "internalType": "uint256",
          "name": "_boardLevel",
          "type": "uint256"
        }
      ],
      "name": "getBoardQueueLength",
      "outputs": [
        {
          "internalType": "uint256",
          "name": "",
          "type": "uint256"
        }
      ],
      "stateMutability": "view",
      "type": "function"
    },
    {
      "inputs": [
        {
          "internalType": "address",
          "name": "_user",
          "type": "address"
        }
      ],
      "name": "getBtcPoolBalance",
      "outputs": [
        {
          "internalType": "uint256",
          "name": "",
          "type": "uint256"
        }
      ],
      "stateMutability": "view",
      "type": "function"
    },
    {
      "inputs": [],
      "name": "getContractBalance",
      "outputs": [
        {
          "internalType": "uint256",
          "name": "",
          "type": "uint256"
        }
      ],
      "stateMutability": "view",
      "type": "function"
    },
    {
      "inputs": [
        {
          "internalType": "address",
          "name": "_user",
          "type": "address"
        }
      ],
      "name": "getDirectReferrals",
      "outputs": [
        {
          "internalType": "address[]",
          "name": "",
          "type": "address[]"
        }
      ],
      "stateMutability": "view",
      "type": "function"
    },
    {
      "inputs": [
        {
          "internalType": "address",
          "name": "_user",
          "type": "address"
        },
        {
          "internalType": "uint256",
          "name": "_offset",
          "type": "uint256"
        },
        {
          "internalType": "uint256",
          "name": "_limit",
          "type": "uint256"
        }
      ],
      "name": "getDirectReferralsPaginated",
      "outputs": [
        {
          "internalType": "address[]",
          "name": "referrals",
          "type": "address[]"
        },
        {
          "internalType": "uint256",
          "name": "total",
          "type": "uint256"
        }
      ],
      "stateMutability": "view",
      "type": "function"
    },
    {
      "inputs": [
        {
          "internalType": "address",
          "name": "_user",
          "type": "address"
        }
      ],
      "name": "getIncomeInfo",
      "outputs": [
        {
          "internalType": "uint256",
          "name": "totalDirectIncome",
          "type": "uint256"
        },
        {
          "internalType": "uint256",
          "name": "totalBinaryIncome",
          "type": "uint256"
        },
        {
          "internalType": "uint256",
          "name": "totalMatchingOverrideIncome",
          "type": "uint256"
        },
        {
          "internalType": "uint256",
          "name": "totalWithdrawalMatchIncome",
          "type": "uint256"
        },
        {
          "internalType": "uint256",
          "name": "totalEarnings",
          "type": "uint256"
        },
        {
          "internalType": "uint256",
          "name": "totalWithdrawn",
          "type": "uint256"
        },
        {
          "internalType": "uint256",
          "name": "maxIncome",
          "type": "uint256"
        }
      ],
      "stateMutability": "view",
      "type": "function"
    },
    {
      "inputs": [
        {
          "internalType": "enum MLMContract.Package",
          "name": "_pkg",
          "type": "uint8"
        }
      ],
      "name": "getMaxIncomeLimit",
      "outputs": [
        {
          "internalType": "uint256",
          "name": "",
          "type": "uint256"
        }
      ],
      "stateMutability": "view",
      "type": "function"
    },
    {
      "inputs": [
        {
          "internalType": "enum MLMContract.Package",
          "name": "_pkg",
          "type": "uint8"
        }
      ],
      "name": "getPackagePrice",
      "outputs": [
        {
          "internalType": "uint256",
          "name": "",
          "type": "uint256"
        }
      ],
      "stateMutability": "view",
      "type": "function"
    },
    {
      "inputs": [
        {
          "internalType": "address",
          "name": "_user",
          "type": "address"
        }
      ],
      "name": "getProfile",
      "outputs": [
        {
          "internalType": "string",
          "name": "displayName",
          "type": "string"
        },
        {
          "internalType": "string",
          "name": "email",
          "type": "string"
        },
        {
          "internalType": "string",
          "name": "phone",
          "type": "string"
        },
        {
          "internalType": "string",
          "name": "country",
          "type": "string"
        },
        {
          "internalType": "bool",
          "name": "profileSet",
          "type": "bool"
        }
      ],
      "stateMutability": "view",
      "type": "function"
    },
    {
      "inputs": [],
      "name": "getTotalBatches",
      "outputs": [
        {
          "internalType": "uint256",
          "name": "",
          "type": "uint256"
        }
      ],
      "stateMutability": "view",
      "type": "function"
    },
    {
      "inputs": [],
      "name": "getTotalUsers",
      "outputs": [
        {
          "internalType": "uint256",
          "name": "",
          "type": "uint256"
        }
      ],
      "stateMutability": "view",
      "type": "function"
    },
    {
      "inputs": [
        {
          "internalType": "uint256",
          "name": "_index",
          "type": "uint256"
        }
      ],
      "name": "getUserByIndex",
      "outputs": [
        {
          "internalType": "address",
          "name": "",
          "type": "address"
        }
      ],
      "stateMutability": "view",
      "type": "function"
    },
    {
      "inputs": [
        {
          "internalType": "address",
          "name": "_user",
          "type": "address"
        }
      ],
      "name": "getUserIdByAddress",
      "outputs": [
        {
          "internalType": "uint256",
          "name": "",
          "type": "uint256"
        }
      ],
      "stateMutability": "view",
      "type": "function"
    },
    {
      "inputs": [
        {
          "internalType": "address",
          "name": "_user",
          "type": "address"
        }
      ],
      "name": "getUserInfo",
      "outputs": [
        {
          "internalType": "uint256",
          "name": "userId",
          "type": "uint256"
        },
        {
          "internalType": "address",
          "name": "sponsor",
          "type": "address"
        },
        {
          "internalType": "address",
          "name": "binaryParent",
          "type": "address"
        },
        {
          "internalType": "address",
          "name": "leftChild",
          "type": "address"
        },
        {
          "internalType": "address",
          "name": "rightChild",
          "type": "address"
        },
        {
          "internalType": "enum MLMContract.Side",
          "name": "placementSide",
          "type": "uint8"
        },
        {
          "internalType": "enum MLMContract.Package",
          "name": "userPackage",
          "type": "uint8"
        },
        {
          "internalType": "enum MLMContract.Status",
          "name": "status",
          "type": "uint8"
        },
        {
          "internalType": "uint256",
          "name": "walletBalance",
          "type": "uint256"
        },
        {
          "internalType": "uint256",
          "name": "tempWalletBalance",
          "type": "uint256"
        },
        {
          "internalType": "uint256",
          "name": "totalEarnings",
          "type": "uint256"
        },
        {
          "internalType": "uint256",
          "name": "directReferralCount",
          "type": "uint256"
        },
        {
          "internalType": "uint256",
          "name": "joinedAt",
          "type": "uint256"
        }
      ],
      "stateMutability": "view",
      "type": "function"
    },
    {
      "inputs": [
        {
          "internalType": "address",
          "name": "_user",
          "type": "address"
        }
      ],
      "name": "getUserTransactionCount",
      "outputs": [
        {
          "internalType": "uint256",
          "name": "",
          "type": "uint256"
        }
      ],
      "stateMutability": "view",
      "type": "function"
    },
    {
      "inputs": [
        {
          "internalType": "address",
          "name": "_user",
          "type": "address"
        },
        {
          "internalType": "uint256",
          "name": "_offset",
          "type": "uint256"
        },
        {
          "internalType": "uint256",
          "name": "_limit",
          "type": "uint256"
        }
      ],
      "name": "getUserTransactionsPaginated",
      "outputs": [
        {
          "internalType": "enum MLMContract.TxType[]",
          "name": "txTypes",
          "type": "uint8[]"
        },
        {
          "internalType": "uint256[]",
          "name": "amounts",
          "type": "uint256[]"
        },
        {
          "internalType": "uint256[]",
          "name": "timestamps",
          "type": "uint256[]"
        },
        {
          "internalType": "address[]",
          "name": "relatedUsers",
          "type": "address[]"
        },
        {
          "internalType": "uint8[]",
          "name": "extraDatas",
          "type": "uint8[]"
        },
        {
          "internalType": "uint256",
          "name": "total",
          "type": "uint256"
        }
      ],
      "stateMutability": "view",
      "type": "function"
    },
    {
      "inputs": [
        {
          "internalType": "address",
          "name": "",
          "type": "address"
        }
      ],
      "name": "isBinaryProcessor",
      "outputs": [
        {
          "internalType": "bool",
          "name": "",
          "type": "bool"
        }
      ],
      "stateMutability": "view",
      "type": "function"
    },
    {
      "inputs": [
        {
          "internalType": "address",
          "name": "",
          "type": "address"
        }
      ],
      "name": "isFreeAccount",
      "outputs": [
        {
          "internalType": "bool",
          "name": "",
          "type": "bool"
        }
      ],
      "stateMutability": "view",
      "type": "function"
    },
    {
      "inputs": [
        {
          "internalType": "address",
          "name": "",
          "type": "address"
        }
      ],
      "name": "isRegistered",
      "outputs": [
        {
          "internalType": "bool",
          "name": "",
          "type": "bool"
        }
      ],
      "stateMutability": "view",
      "type": "function"
    },
    {
      "inputs": [
        {
          "internalType": "address",
          "name": "_user",
          "type": "address"
        },
        {
          "internalType": "uint256",
          "name": "_price",
          "type": "uint256"
        },
        {
          "internalType": "uint256",
          "name": "_boardLevel",
          "type": "uint256"
        }
      ],
      "name": "logBoardEntry",
      "outputs": [],
      "stateMutability": "nonpayable",
      "type": "function"
    },
    {
      "inputs": [
        {
          "internalType": "address",
          "name": "_user",
          "type": "address"
        },
        {
          "internalType": "uint256",
          "name": "_reward",
          "type": "uint256"
        },
        {
          "internalType": "uint256",
          "name": "_boardLevel",
          "type": "uint256"
        }
      ],
      "name": "logBoardReward",
      "outputs": [],
      "stateMutability": "nonpayable",
      "type": "function"
    },
    {
      "inputs": [],
      "name": "mToken",
      "outputs": [
        {
          "internalType": "contract IERC20",
          "name": "",
          "type": "address"
        }
      ],
      "stateMutability": "view",
      "type": "function"
    },
    {
      "inputs": [
        {
          "internalType": "uint256",
          "name": "",
          "type": "uint256"
        }
      ],
      "name": "matchingOverrideMaxLevels",
      "outputs": [
        {
          "internalType": "uint256",
          "name": "",
          "type": "uint256"
        }
      ],
      "stateMutability": "view",
      "type": "function"
    },
    {
      "inputs": [
        {
          "internalType": "uint256",
          "name": "",
          "type": "uint256"
        }
      ],
      "name": "maxIncomeLimit",
      "outputs": [
        {
          "internalType": "uint256",
          "name": "",
          "type": "uint256"
        }
      ],
      "stateMutability": "view",
      "type": "function"
    },
    {
      "inputs": [],
      "name": "owner",
      "outputs": [
        {
          "internalType": "address",
          "name": "",
          "type": "address"
        }
      ],
      "stateMutability": "view",
      "type": "function"
    },
    {
      "inputs": [
        {
          "internalType": "uint256",
          "name": "",
          "type": "uint256"
        }
      ],
      "name": "packagePrices",
      "outputs": [
        {
          "internalType": "uint256",
          "name": "",
          "type": "uint256"
        }
      ],
      "stateMutability": "view",
      "type": "function"
    },
    {
      "inputs": [],
      "name": "pause",
      "outputs": [],
      "stateMutability": "nonpayable",
      "type": "function"
    },
    {
      "inputs": [],
      "name": "paused",
      "outputs": [
        {
          "internalType": "bool",
          "name": "",
          "type": "bool"
        }
      ],
      "stateMutability": "view",
      "type": "function"
    },
    {
      "inputs": [],
      "name": "paymentToken",
      "outputs": [
        {
          "internalType": "contract IERC20",
          "name": "",
          "type": "address"
        }
      ],
      "stateMutability": "view",
      "type": "function"
    },
    {
      "inputs": [],
      "name": "productWallet",
      "outputs": [
        {
          "internalType": "address",
          "name": "",
          "type": "address"
        }
      ],
      "stateMutability": "view",
      "type": "function"
    },
    {
      "inputs": [
        {
          "internalType": "enum MLMContract.Package",
          "name": "_pkg",
          "type": "uint8"
        }
      ],
      "name": "reactivate",
      "outputs": [],
      "stateMutability": "nonpayable",
      "type": "function"
    },
    {
      "inputs": [
        {
          "internalType": "address",
          "name": "_token",
          "type": "address"
        },
        {
          "internalType": "address",
          "name": "_to",
          "type": "address"
        },
        {
          "internalType": "uint256",
          "name": "_amount",
          "type": "uint256"
        }
      ],
      "name": "recoverToken",
      "outputs": [],
      "stateMutability": "nonpayable",
      "type": "function"
    },
    {
      "inputs": [
        {
          "internalType": "uint256",
          "name": "_sponsorId",
          "type": "uint256"
        },
        {
          "internalType": "uint256",
          "name": "_binaryParentId",
          "type": "uint256"
        },
        {
          "internalType": "bool",
          "name": "_placeLeft",
          "type": "bool"
        }
      ],
      "name": "register",
      "outputs": [],
      "stateMutability": "nonpayable",
      "type": "function"
    },
    {
      "inputs": [],
      "name": "renounceOwnership",
      "outputs": [],
      "stateMutability": "nonpayable",
      "type": "function"
    },
    {
      "inputs": [],
      "name": "repurchase",
      "outputs": [],
      "stateMutability": "nonpayable",
      "type": "function"
    },
    {
      "inputs": [
        {
          "internalType": "address",
          "name": "_wallet",
          "type": "address"
        }
      ],
      "name": "setAdminBinaryWallet",
      "outputs": [],
      "stateMutability": "nonpayable",
      "type": "function"
    },
    {
      "inputs": [
        {
          "internalType": "uint256",
          "name": "_size",
          "type": "uint256"
        }
      ],
      "name": "setBinaryBatchSize",
      "outputs": [],
      "stateMutability": "nonpayable",
      "type": "function"
    },
    {
      "inputs": [
        {
          "internalType": "address",
          "name": "_processor",
          "type": "address"
        },
        {
          "internalType": "bool",
          "name": "_status",
          "type": "bool"
        }
      ],
      "name": "setBinaryProcessor",
      "outputs": [],
      "stateMutability": "nonpayable",
      "type": "function"
    },
    {
      "inputs": [
        {
          "internalType": "address",
          "name": "_handler",
          "type": "address"
        }
      ],
      "name": "setBoardHandler",
      "outputs": [],
      "stateMutability": "nonpayable",
      "type": "function"
    },
    {
      "inputs": [
        {
          "internalType": "enum MLMContract.Package",
          "name": "_pkg",
          "type": "uint8"
        },
        {
          "internalType": "uint256",
          "name": "_cap",
          "type": "uint256"
        }
      ],
      "name": "setDailyCapping",
      "outputs": [],
      "stateMutability": "nonpayable",
      "type": "function"
    },
    {
      "inputs": [
        {
          "internalType": "address",
          "name": "_newRecipient",
          "type": "address"
        }
      ],
      "name": "setFeeRecipient",
      "outputs": [],
      "stateMutability": "nonpayable",
      "type": "function"
    },
    {
      "inputs": [
        {
          "internalType": "address",
          "name": "_token",
          "type": "address"
        }
      ],
      "name": "setMToken",
      "outputs": [],
      "stateMutability": "nonpayable",
      "type": "function"
    },
    {
      "inputs": [
        {
          "internalType": "enum MLMContract.Package",
          "name": "_pkg",
          "type": "uint8"
        },
        {
          "internalType": "uint256",
          "name": "_limit",
          "type": "uint256"
        }
      ],
      "name": "setMaxIncomeLimit",
      "outputs": [],
      "stateMutability": "nonpayable",
      "type": "function"
    },
    {
      "inputs": [
        {
          "internalType": "enum MLMContract.Package",
          "name": "_pkg",
          "type": "uint8"
        },
        {
          "internalType": "uint256",
          "name": "_price",
          "type": "uint256"
        }
      ],
      "name": "setPackagePrice",
      "outputs": [],
      "stateMutability": "nonpayable",
      "type": "function"
    },
    {
      "inputs": [
        {
          "internalType": "address",
          "name": "_wallet",
          "type": "address"
        }
      ],
      "name": "setProductWallet",
      "outputs": [],
      "stateMutability": "nonpayable",
      "type": "function"
    },
    {
      "inputs": [
        {
          "internalType": "string",
          "name": "_displayName",
          "type": "string"
        },
        {
          "internalType": "string",
          "name": "_email",
          "type": "string"
        },
        {
          "internalType": "string",
          "name": "_phone",
          "type": "string"
        },
        {
          "internalType": "string",
          "name": "_country",
          "type": "string"
        }
      ],
      "name": "setProfile",
      "outputs": [],
      "stateMutability": "nonpayable",
      "type": "function"
    },
    {
      "inputs": [
        {
          "internalType": "uint256",
          "name": "_feeBasisPoints",
          "type": "uint256"
        }
      ],
      "name": "setWithdrawalFee",
      "outputs": [],
      "stateMutability": "nonpayable",
      "type": "function"
    },
    {
      "inputs": [
        {
          "internalType": "uint256",
          "name": "_rateBasisPoints",
          "type": "uint256"
        }
      ],
      "name": "setWithdrawalUsdtRate",
      "outputs": [],
      "stateMutability": "nonpayable",
      "type": "function"
    },
    {
      "inputs": [
        {
          "internalType": "uint256",
          "name": "",
          "type": "uint256"
        }
      ],
      "name": "slabRates",
      "outputs": [
        {
          "internalType": "uint256",
          "name": "",
          "type": "uint256"
        }
      ],
      "stateMutability": "view",
      "type": "function"
    },
    {
      "inputs": [],
      "name": "tokenDecimals",
      "outputs": [
        {
          "internalType": "uint8",
          "name": "",
          "type": "uint8"
        }
      ],
      "stateMutability": "view",
      "type": "function"
    },
    {
      "inputs": [],
      "name": "totalBinaryFlushed",
      "outputs": [
        {
          "internalType": "uint256",
          "name": "",
          "type": "uint256"
        }
      ],
      "stateMutability": "view",
      "type": "function"
    },
    {
      "inputs": [
        {
          "internalType": "address",
          "name": "newOwner",
          "type": "address"
        }
      ],
      "name": "transferOwnership",
      "outputs": [],
      "stateMutability": "nonpayable",
      "type": "function"
    },
    {
      "inputs": [],
      "name": "unpause",
      "outputs": [],
      "stateMutability": "nonpayable",
      "type": "function"
    },
    {
      "inputs": [
        {
          "internalType": "address",
          "name": "_token",
          "type": "address"
        },
        {
          "internalType": "uint8",
          "name": "_decimals",
          "type": "uint8"
        }
      ],
      "name": "updatePaymentToken",
      "outputs": [],
      "stateMutability": "nonpayable",
      "type": "function"
    },
    {
      "inputs": [
        {
          "internalType": "uint256",
          "name": "",
          "type": "uint256"
        }
      ],
      "name": "userIdTaken",
      "outputs": [
        {
          "internalType": "bool",
          "name": "",
          "type": "bool"
        }
      ],
      "stateMutability": "view",
      "type": "function"
    },
    {
      "inputs": [
        {
          "internalType": "uint256",
          "name": "",
          "type": "uint256"
        }
      ],
      "name": "userIdToAddress",
      "outputs": [
        {
          "internalType": "address",
          "name": "",
          "type": "address"
        }
      ],
      "stateMutability": "view",
      "type": "function"
    },
    {
      "inputs": [
        {
          "internalType": "address",
          "name": "",
          "type": "address"
        }
      ],
      "name": "users",
      "outputs": [
        {
          "internalType": "uint256",
          "name": "userId",
          "type": "uint256"
        },
        {
          "internalType": "address",
          "name": "sponsor",
          "type": "address"
        },
        {
          "internalType": "address",
          "name": "binaryParent",
          "type": "address"
        },
        {
          "internalType": "address",
          "name": "leftChild",
          "type": "address"
        },
        {
          "internalType": "address",
          "name": "rightChild",
          "type": "address"
        },
        {
          "internalType": "enum MLMContract.Side",
          "name": "placementSide",
          "type": "uint8"
        },
        {
          "internalType": "enum MLMContract.Package",
          "name": "userPackage",
          "type": "uint8"
        },
        {
          "internalType": "enum MLMContract.Status",
          "name": "status",
          "type": "uint8"
        },
        {
          "internalType": "uint256",
          "name": "walletBalance",
          "type": "uint256"
        },
        {
          "internalType": "uint256",
          "name": "tempWalletBalance",
          "type": "uint256"
        },
        {
          "internalType": "uint256",
          "name": "totalDirectIncome",
          "type": "uint256"
        },
        {
          "internalType": "uint256",
          "name": "totalBinaryIncome",
          "type": "uint256"
        },
        {
          "internalType": "uint256",
          "name": "totalMatchingOverrideIncome",
          "type": "uint256"
        },
        {
          "internalType": "uint256",
          "name": "totalWithdrawalMatchIncome",
          "type": "uint256"
        },
        {
          "internalType": "uint256",
          "name": "totalEarnings",
          "type": "uint256"
        },
        {
          "internalType": "uint256",
          "name": "leftBusiness",
          "type": "uint256"
        },
        {
          "internalType": "uint256",
          "name": "rightBusiness",
          "type": "uint256"
        },
        {
          "internalType": "uint256",
          "name": "carryLeft",
          "type": "uint256"
        },
        {
          "internalType": "uint256",
          "name": "carryRight",
          "type": "uint256"
        },
        {
          "internalType": "uint256",
          "name": "todayBinaryIncome",
          "type": "uint256"
        },
        {
          "internalType": "uint256",
          "name": "lastBinaryResetDay",
          "type": "uint256"
        },
        {
          "internalType": "uint256",
          "name": "directReferralCount",
          "type": "uint256"
        },
        {
          "internalType": "uint256",
          "name": "gracePeriodStart",
          "type": "uint256"
        },
        {
          "internalType": "uint256",
          "name": "joinedAt",
          "type": "uint256"
        },
        {
          "internalType": "uint256",
          "name": "totalWithdrawn",
          "type": "uint256"
        },
        {
          "internalType": "uint256",
          "name": "claimableBinaryIncome",
          "type": "uint256"
        },
        {
          "internalType": "uint256",
          "name": "binaryDepth",
          "type": "uint256"
        },
        {
          "internalType": "string",
          "name": "displayName",
          "type": "string"
        },
        {
          "internalType": "string",
          "name": "email",
          "type": "string"
        },
        {
          "internalType": "string",
          "name": "phone",
          "type": "string"
        },
        {
          "internalType": "string",
          "name": "country",
          "type": "string"
        },
        {
          "internalType": "bool",
          "name": "profileSet",
          "type": "bool"
        }
      ],
      "stateMutability": "view",
      "type": "function"
    },
    {
      "inputs": [
        {
          "internalType": "uint256",
          "name": "_amount",
          "type": "uint256"
        }
      ],
      "name": "withdraw",
      "outputs": [],
      "stateMutability": "nonpayable",
      "type": "function"
    },
    {
      "inputs": [
        {
          "internalType": "address",
          "name": "_to",
          "type": "address"
        },
        {
          "internalType": "uint256",
          "name": "_amount",
          "type": "uint256"
        }
      ],
      "name": "withdrawContractFunds",
      "outputs": [],
      "stateMutability": "nonpayable",
      "type": "function"
    },
    {
      "inputs": [],
      "name": "withdrawalFee",
      "outputs": [
        {
          "internalType": "uint256",
          "name": "",
          "type": "uint256"
        }
      ],
      "stateMutability": "view",
      "type": "function"
    },
    {
      "inputs": [
        {
          "internalType": "uint256",
          "name": "",
          "type": "uint256"
        }
      ],
      "name": "withdrawalMatchMaxLevels",
      "outputs": [
        {
          "internalType": "uint256",
          "name": "",
          "type": "uint256"
        }
      ],
      "stateMutability": "view",
      "type": "function"
    },
    {
      "inputs": [],
      "name": "withdrawalUsdtRate",
      "outputs": [
        {
          "internalType": "uint256",
          "name": "",
          "type": "uint256"
        }
      ],
      "stateMutability": "view",
      "type": "function"
    }
  ],
  "bytecode": "0x6080346200057857601f620064eb38819003918201601f19168301916001600160401b03831184841017620004fd5780849260809460405283398101031262000578576200004d816200059d565b9060208101519060ff8216820362000578576200007b606062000073604084016200059d565b92016200059d565b9233156200055f5760008054336001600160a01b0319821681178355916001600160a01b03909116907f8be0079c531659141344cd1fd0a4f28419497f9722a3daafe3b4186f6b6457e09080a360017f9b779b17422d0df92223018b32b4d1fa46e071723d6817e2486d003becc55f00556127106006556032600e55620001016200057d565b600081526101f460208201526103e860408201526105dc60608201526107d060808201526109c460a0820152610bb860c082015260005b60078110620005455750506200014d6200057d565b60008152600160208201526003604082015260066060820152600a6080820152600f60a0820152601460c082015260005b600781106200052c575050620001936200057d565b6000815260016020820152600360408201526005606082015260096080820152600c60a0820152600f60c082015260005b60078110620005135750506040516001600160401b036080820190811190821117620004fd5760808101604052610bb881526107d060208201526103e860408201526101f4606082015260005b60048110620004e75750506001600160a01b0316908115620004bd576001600160a01b031692831562000493576001600160a01b03169081156200046957600180546001600160a01b03199081169290921790556002805460ff60a01b191660a085901b60ff60a01b16179055600380548216851790556004805482169094178455601580549091169190911790556000600555604d60ff821611620003eb5760ff16600a0a90600060175581603202603281048303620003eb57806018558260c80260c88104840362000454578060195561025884810290810485036200043f5780601a556104b09085820291820486036200042a5781601b55610960928684029384048703620004155783601c556112c0948786029586048803620004005785601d556000602555602655602755602855602955602a55602b556000602c558160fa0260fa81048303620003eb57602d55816103e8026103e881048303620003eb57602e5581610bb802610bb881048303620003eb57602f556117708281029081048303620003eb57603055612ee08281029081048303620003eb57603155615dc09180830292830403620003d65750603255604051615f389081620005b38239f35b601190634e487b7160e01b6000525260246000fd5b601182634e487b7160e01b6000525260246000fd5b601187634e487b7160e01b6000525260246000fd5b601186634e487b7160e01b6000525260246000fd5b601185634e487b7160e01b6000525260246000fd5b601184634e487b7160e01b6000525260246000fd5b601183634e487b7160e01b6000525260246000fd5b60405162461bcd60e51b8152602060048201526002602482015261494160f01b6044820152606490fd5b60405162461bcd60e51b815260206004820152600260248201526124a360f11b6044820152606490fd5b60405162461bcd60e51b8152602060048201526002602482015261125560f21b6044820152606490fd5b6001906020835193019281604101550162000211565b634e487b7160e01b600052604160045260246000fd5b600190602060ff84511693019281603a015501620001c4565b600190602060ff8451169301928160330155016200017e565b600190602061ffff84511693019281601e01550162000138565b604051631e4fbdf760e01b815260006004820152602490fd5b600080fd5b6040519060e082016001600160401b03811183821017620004fd57604052565b51906001600160a01b0382168203620005785756fe610300604052600436101561001357600080fd5b6000806101605280803560e01c908163012685f414614aca5781630327ef4914614a0057816305ad39351461499f5781630b6a95391461496a5781630d57a79c1461493e5781630f53a4701461487a578163179bd5c81461484e5781631915d956146147ba5781631cdc545c146147375781631d64e593146147165781632bbf1a30146145465781632c2896b3146145035781632e1888b8146144875781632e1a7d4d14613e9d5781632eee563e14613a1c5781633013ce29146139f057816331e1f29b146138d7578163385399f9146139945781633ac272c21461393c5781633b97e856146139155781633d6bacf3146138d75781633f4ba83a1461385b5781634286064e1461382f5781634526b4aa1461380e578163463cffe6146137cb578163469048401461379f57816347cd5191146137195781634b6955861461368c57816355509c8f14613081578163556415d91461306157816357f0140a14612ce75781635a1faeb914612cbb5781635c975abb14612c935781636207f5221461287e578163624a893d1461285d5781636386c1c71461275357816369e94f4d146126db5781636aa6c0ce146124885781636d0364d71461219b5781636e0881da146124685781636f9fb98a146123d65781637115bba714611931578163715018a6146123885781637feef9d6146122ea5781638225757b146122805781638456cb591461221457816385f8f11b146121e85781638bc7e8c4146121c75781638d7b56901461219b5781638da5cb5b1461217157816392167de2146120e457816392446e30146119315781639726b9f214611e2f5781639a688a9914611db75781639be572f614611d96578163a2bdedf414611d6d578163a7229fd914611ce3578163a87430ba146119c3578163ac1e502514611936578163ac6c264e14611931578163b1695201146118f9578163b33dd0c9146118cd578163b882c4d814611855578163bbc18f6f14611834578163befbe97d14611784578163c24be7fb1461146d578163c3b6f93914611441578163c3c5a547146113fe578163c9d484cf146113d2578163ce0b212214611276578163d117de031461124a578163d24af2b8146111d4578163d2c8e0e514611134578163d4a902861461106a578163d58c617214610dd3578163d8f3384014610d95578163d9c842fd14610d5d578163d9f9f63f14610c2a578163e1f1c4a714610c0a578163e3ba9bda14610b92578163e4093a66146108e2578163e561dddc146108bf578163e63619a514610892578163e74b981b1461081d578163eb63e1c214610788578163ecdc59071461071e578163ece2bc231461066c578163ef2c5c501461064c578163f00b009314610613578163f2fde38b1461059857508063fc3c8a0c1461056f578063fc4a36f614610553578063fdc65d6e1461049f5763ff5d32fe1461043057600080fd5b3461049c57602036600319011261049c57600435600b5481101561047257610459602091614c61565b905460405160039290921b1c6001600160a01b03168152f35b60405162461bcd60e51b815260206004820152600260248201526127a160f11b6044820152606490fd5b80fd5b503461049c576104ae36614cfa565b906104b7614f22565b60078110158061053f5760018210158061052f575b6104d59061526f565b61051b5790816105157f36152e7515aada41257500317963ea57c35904a845e67c595f4e110377a08f209360170192808454945560405193849384615e23565b0390a180f35b634e487b7160e01b83526021600452602483fd5b50506101605160068211156104cc565b634e487b7160e01b84526021600452602484fd5b503461049c578060031936011261049c57602060405160648152f35b503461049c578060031936011261049c576004546040516001600160a01b039091168152602090f35b90503461060f57602036600319011261060f576105b3614bab565b906105bc614f22565b6001600160a01b039182169182156105f65781546001600160a01b03198116841783551690600080516020615ea38339815191529080a380f35b604051631e4fbdf760e01b815260048101859052602490fd5b5080fd5b823461049c57602036600319011261049c576020906040906001600160a01b0361063b614bab565b168152601383522054604051908152f35b823461049c578060031936011261049c57602060405164e8d4a50fff8152f35b823461049c57602036600319011261049c576001600160a01b0361068e614bab565b168152600760205260408120600c81015490600d81015490600e810154600f82015460188301549060ff600485015460a81c16600781101561070a5761010097506025015492601f601e86015495015495604051978852602088015260408701526060860152608085015260a084015260c083015260e0820152f35b634e487b7160e01b88526021600452602488fd5b823461049c5761078561073036614bc6565b909160018060a01b0390610749826014541633146158b0565b168452600c60205260ff60408520916040519361076585614df2565b6008855260208501524260408501528560608501521660808301526152e0565b80f35b823461049c576020918260031936011261060f576014546040516375b1f0e160e11b8152600480359082015291908490839060249082906001600160a01b03165afa92831561081157926107e1575b5050604051908152f35b9091508282813d831161080a575b6107f98183614e59565b8101031261049c57505182806107d7565b503d6107ef565b604051903d90823e3d90fd5b823461049c57602036600319011261049c57610837614bab565b61083f614f22565b6001600160a01b0390811690610856821515615df2565b600380546001600160a01b031981168417909155167faaebcf1bfa00580e41d966056b48521fa9f202645c86d4ddf28113e617c1b1d38380a380f35b823461049c57602036600319011261049c57600435600781101561060f5760209060170154604051908152f35b823461049c578060031936011261049c5760206108da615e40565b604051908152f35b905034610ad357610160518060031936011261049c5750610901615477565b610909615091565b33610160515260206008815261092860ff60406101605120541661523e565b33610160515260078152600160ff600460406101605120015460b01c1661094e81614d6e565b148015610b60575b61095f906158b0565b6014546001600160a01b03919082168015610b365781602491604051928380926347cd519160e01b8252600160048301525afa908115610ac5576101605191610b05575b503361016051526012825280604061016051205410610ada5790610a3d9133610160515260128252604061016051206109dd8282546150b2565b905533610160515260138252604061016051206109fa8154615082565b9055336101605152600c8252604061016051209060405192610a1b84614df2565b60088452830152426040830152610160516060830152600160808301526152e0565b6014541690813b15610ad3576040519163686a38bd60e01b835233600484015260016024840152826044816101605180945af18015610ac557610a91575b826001600080516020615ee38339815191525580f35b9091506001600160401b038211610ab15750604052610160513880610a7b565b634e487b7160e01b81526041600452602490fd5b6040513d61016051823e3d90fd5b6101605180fd5b60405162461bcd60e51b815260048101839052600360248201526204942560ec1b6044820152606490fd5b90508181813d8311610b2f575b610b1c8183614e59565b81010312610b2b5751386109a3565b8380fd5b503d610b12565b60405162461bcd60e51b8152600481018390526002602482015261084960f31b6044820152606490fd5b503361016051526007815261095f600260ff600460406101605120015460b01c16610b8a81614d6e565b149050610956565b34610ad3576020366003190112610ad357610bab614bab565b610bb3614f22565b6001600160a01b03908116610bc9811515615df2565b601480546001600160a01b0319811683179091556101605192167f8e4ac8019922eea64e9103a076c60b36ec30c71c863a376d6557ab9f6734c4848380a380f35b34610ad357610160518060031936011261049c5760206040516127108152f35b34610ad357602080600319360112610ad357610c44614bab565b610c4c614f22565b60018060a01b031680610160515260088252610c7160ff60406101605120541661523e565b80610160515260078252604061016051209160048301805490600260ff8360b01c16610c9c81614d6e565b03610d3357601b8501546202a3008101809111610d1957421115610cef576006600080516020615ec38339815191529495019182549261016051905560ff60b01b19169055604051908152a26101605180f35b60405162461bcd60e51b8152600481018490526002602482015261474560f01b6044820152606490fd5b634e487b7160e01b61016051526011600452602461016051fd5b60405162461bcd60e51b81526004810184905260026024820152614e4760f01b6044820152606490fd5b34610ad357610d8b610d77610d7136614bc6565b91615bbc565b604051928392604084526040840190614c24565b9060208301520390f35b34610ad3576020366003190112610ad3576001600160a01b03610db6614bab565b166101605152600c60205260206040610160512054604051908152f35b34610ad357610160518060031936011261049c57610def615477565b610df7615091565b336101605152602060088152610e1660ff60406101605120541661523e565b3361016051526007815260406101605120906004820190815460ff8160b01c16610e3f81614d6e565b8015908115611056575b501561102c5760a81c60ff1660078110156110125760018110610fe857601701549160018060a01b0393610e858486600154163090339061540a565b6018600160b01b60ff60b01b19845416179182845561016051918183600b8194015582600682015582601b8201550155339052600c8352610160519060ff604083209160a81c16916007831015610fd0575091610f1160ff92869460405191610eed83614df2565b610160518352868884015242604084015261016051606084015260808301526152e0565b5460a81c1691610f246040518094614d8e565b8201527f0f71a293b26be95a1c2120e73a1712c62b20f254ae47eff7f6e799402984e6ab60403392a261177091828202928284041482151715610d1957610f73612710610f99940480936150b2565b816004541680151580610fc7575b610fb2575b505050610f9381336154a7565b336155d2565b6001600080516020615ee3833981519152556101605180f35b610fbf9260015416615389565b828080610f86565b50811515610f81565b634e487b7160e01b9052602160045261016051602490fd5b60405162461bcd60e51b815260048101839052600260248201526104e560f41b6044820152606490fd5b634e487b7160e01b61016051526021600452602461016051fd5b60405162461bcd60e51b81526004810183905260026024820152614d4960f01b6044820152606490fd5b6002915061106381614d6e565b1485610e49565b34610ad3576040366003190112610ad357601454604051636a54814360e11b8152600480359082015260248035908201526001600160a01b03916060908290604490829086165afa8015610ac5576101605191829083926110df575b5060609360405193168352602083015215156040820152f35b925050506060813d821161112c575b816110fb60609383614e59565b81010312610ad3578051918083168303610ad357604060208301519201518015158103610ad35790929160606110c6565b3d91506110ee565b34610ad357602080600319360112610ad3576001600160a01b039081611158614bab565b166101605152600a81526040610160512091604051809384918482549182815201916101605152610160519385852094905b868383106111b85785906111a082870383614e59565b6111b4604051928284938452830190614c24565b0390f35b865482168552600196870196899650940193919091019061118a565b34610ad3576112436111e536614bc6565b909160018060a01b03906111fe826014541633146158b0565b166101605152600c60205260ff60406101605120916040519361122085614df2565b6009855260208501524260408501526101605160608501521660808301526152e0565b6101605180f35b34610ad357610160518060031936011261049c576015546040516001600160a01b039091168152602090f35b34610ad357602080600319360112610ad357600435906001600160401b0390818311610ad35736602384011215610ad3578260040135918211610ad357602492600590368585841b83010111610ad3576112ce614f22565b610160515b8481106112e1576101605180f35b80831b82018601356001600160a01b0381169190829003610ad35781610160515260088552610160519160ff9283604082205416156113c6576040906007885220600481019360028554918260b01c1661133a81614d6e565b036113b957601b820154906202a30082018092116113a057611391958992421115611396576006600080516020615ec383398151915294019182549261016051905560ff60b01b19169055604051908152a2615082565b6112d3565b5050505050615082565b8a634e487b7160e01b6101605152601160045261016051fd5b5050506113919150615082565b50506113919150615082565b34610ad357610160518060031936011261049c576014546040516001600160a01b039091168152602090f35b34610ad3576020366003190112610ad3576001600160a01b0361141f614bab565b1661016051526008602052602060ff6040610160512054166040519015158152f35b34610ad357610160518060031936011261049c576002546040516001600160a01b039091168152602090f35b34610ad3576060366003190112610ad3576024359060443590811515820361049c5750611498615091565b336101605152602091600883526114b960ff60406101605120541615614f4e565b61016051600b546116b757505050610160518091815b6114d76150bf565b918261016051526010815261016051604081209060ff1991600183825416179055600f8352604081209060018060a01b03199133838254161790553390526007835260406101605120858155600181019660018060a01b03809116978884825416179055600282019816978883825416179055600481016115588682614fe1565b805460ff60b01b1916905542601c820155610160518815801592918a9181906116ab5750526007855261016051601f60408220015490600182018092116116935750601f90915b015561163c575b50846115fd575b33610160515260088252600160406101605120918254161790556115d033615028565b6040519283526115df82614d6e565b820152600080516020615e8383398151915260403392a46101605180f35b846101605152600a82526116173360406101605120615065565b84610160515260078252601a60406101605120016116358154615082565b90556115ad565b61164584614d6e565b600184036116715786610160515260078352600360406101605120019033908254161790555b866115a6565b866101605152600783526004604061016051200190339082541617905561166b565b634e487b7160e01b9052601160045261016051602490fd5b9050601f91509161159f565b6004359052600f8352610160519160018060a01b03918260408520541680948115159081611768575b506116eb9150614f7f565b8061171c57508291505b1561170b5761170390615212565b9160016114cf565b611714906151e1565b9160026114cf565b6101605152600f845261016051916040832054168092811515908161174c575b506117479150614fb0565b6116f5565b9050526008845261174760ff604061016051205416839161173c565b905052600885526116eb60ff60406101605120541685916116e0565b34610ad3576020366003190112610ad3576001600160a01b036117a5614bab565b166101605152600760205261016051604081206007810154906008810154906009810154600a820154600b8301549160ff6004601d86015495015460a81c16600781101561181c5760e09750602c015494604051968752602087015260408601526060850152608084015260a083015260c0820152f35b634e487b7160e01b8852602160045261016051602490fd5b34610ad357610160518060031936011261049c5760206040516202a3008152f35b34610ad3576020366003190112610ad35761186e614bab565b611876614f22565b6001600160a01b0390811661188c811515615df2565b600280546001600160a01b0319811683179091556101605192167ffa56beaa7224e963963fc4c47c38a66d9813310693d7bb15814ea8e39b3351848380a380f35b34610ad3576020366003190112610ad3576004356007811015610ad357602090603a0154604051908152f35b34610ad3576020366003190112610ad3576004356101605152600f602052602060018060a01b03604061016051205416604051908152f35b614d9b565b34610ad3576020366003190112610ad357600435611952614f22565b6107d081116119995760407f72aa1ef4707dfa7defd1468e6ffc70bf9517ce19e3afad93fcf4be42f2d494f591600554908060055582519182526020820152a16101605180f35b60405162461bcd60e51b815260206004820152600260248201526108c960f31b6044820152606490fd5b34610ad3576020366003190112610ad3576001600160a01b036119e4614bab565b610160805191909216905260076020818152915160409020610200819052805461014052600181015460028201546001600160a01b039081166102e05260038301548116610240526004830154600584015460068501549585015460088601546009870154600a880154600b890154600c8a0154600d8b0154600e8c0154600f8d015460188e01546102805260198e01546102c052601a8e015460c052601b8e015461026052601c8e01546101a052601d8e015460e052601e8e01546102a052601f8e0154610180529e909d919c929b939a949995989697969195919460ff949293921691611ad39101614e7c565b61012052611ae660216102005101614e7c565b608052611af860226102005101614e7c565b60a052611b0a60236102005101614e7c565b6101e0528260246102005101541661022052604051806101c05261014051905260206101c05101526102e05160406101c05101526102405160606101c051015260018060a01b03811660806101c0510152818160a01c16611b6a81614d6e565b60a06101c0510152611b8760c06101c05101838360a81c16614d8e565b60b01c16611b9481614d6e565b60e06101c05101526101006101c05101526101206101c05101526101406101c05101526101606101c05101526101806101c05101526101a06101c05101526101c0805101526101e06101c05101526102006101c05101526102206101c05101526102406101c0510152610280516102606101c05101526102c0516102806101c051015260c0516102a06101c0510152610260516102c06101c05101526101a0516102e06101c051015260e0516103006101c05101526102a0516103206101c0510152610180516103406101c0510152611cca611cb4611c9f611c8a610400806103606101c05101526101c0510161012051614cba565b6101c051610380818303910152608051614cba565b6101c0516103a081830391015260a051614cba565b6101c0516103c08183039101526101e051614cba565b6102205115156103e06101c05101526101c05180910390f35b34610ad3576060366003190112610ad357611cfc614bab565b6001600160a01b036024358181169390929084840361049c57507f238062e33e7062c4aeccb2acac43aecc0b1a1ca891a5bc84a689f2272cb39a4391611d5f602092604435928391611d4c614f22565b611d57891515615df2565b169586615389565b604051908152a36101605180f35b34610ad3576020366003190112610ad357600435600b54811015610ad357610459602091614c61565b34610ad357610160518060031936011261049c576020600b54604051908152f35b34610ad3576020366003190112610ad357611dd0614bab565b611dd8614f22565b6001600160a01b03908116611dee811515615df2565b600480546001600160a01b0319811683179091556101605192167f21f871938092b6a1ed13c23a49ad1a6fa6867d23d64fa2091bc0aaa90846e7c38380a380f35b34610ad357602080600319360112610ad357600435906007821015610ad357611e56615477565b611e5e615091565b33610160515260088152611e7b60ff60406101605120541661523e565b3361016051526007815260406101605120916004830192835460ff8160b01c16611ea481614d6e565b600281149081156120d2575b50156120a85760ff90611ec6600185101561526f565b60a81c16600781101561101257821061207e57816017015492839160018060a01b0395611efb8488600154163090339061540a565b600260ff825460b01c16611f0e81614d6e565b14611ff1575b90601891610160516006830155611f2b86826152a0565b600160b01b60ff60b01b1982541617905561016051918183600b8194015582601b8201550155339052600c8152611f956040610160512060405190611f6f82614df2565b60028252848483015242604083015261016051606083015260ff861660808301526152e0565b611fa26040518094614d8e565b8201527f0bd98106504d2095c105d0f8fd19c12fb6c359200dcce844743a92dc040cb7b360403392a261177091828202928284041482151715610d1957610f73612710610f99940480936150b2565b9250601b810154906202a3008201809211610d19578593601892421161205b57600682015460058301612025828254615005565b90556040519081527fc0a2b7349514b2ee49057e2265dcf10bd91be42a7f6a1144164df1f0e303a8eb853392a25b909150611f14565b6006820154604051908152600080516020615ec3833981519152853392a2612053565b60405162461bcd60e51b815260048101849052600260248201526110d160f21b6044820152606490fd5b60405162461bcd60e51b8152600481018590526002602482015261414160f01b6044820152606490fd5b90506120dd81614d6e565b1586611eb0565b34610ad3576120f236614cfa565b6120fa614f22565b60078210158061101257600183101580612161575b6121189061526f565b61101257816121577fbc78cc5de16267f0116f5ef65ec3328f2f432bca5e0f8b61e96b880e826d84dd93602c0192808454945560405193849384615e23565b0390a16101605180f35b505061016051600683111561210f565b34610ad357610160518060031936011261049c57546040516001600160a01b039091168152602090f35b34610ad3576020366003190112610ad3576004356007811015610ad357602090602c0154604051908152f35b34610ad357610160518060031936011261049c576020600554604051908152f35b34610ad3576020366003190112610ad3576004356007811015610ad35760209060330154604051908152f35b34610ad357610160518060031936011261049c57612230614f22565b612238615091565b61016051805460ff60a01b1916600160a01b1790556040513381527f62e78cea01bee320cd4e420270b5ea74000d11b0c9f74754ebdbfc544b05a25890602090a16101605180f35b34610ad3576020366003190112610ad35761016080516004359052600f6020525160409020546001600160a01b031680156122c057602090604051908152f35b60405162461bcd60e51b81526020600482015260026024820152612aa360f11b6044820152606490fd5b34610ad3576020366003190112610ad357600435612306614f22565b8015158061237c575b156123525760407f885769bb3a0a33e49dc7c402b45290f14135af0d201b7b78370457632240fbb191600e549080600e5582519182526020820152a16101605180f35b60405162461bcd60e51b8152602060048201526002602482015261425360f01b6044820152606490fd5b506101f481111561230f565b34610ad357610160518060031936011261049c57506123a5614f22565b80546001600160a01b0319811682556001600160a01b0316600080516020615ea38339815191528280a36101605180f35b34610ad357610160518060031936011261049c57506001546040516370a0823160e01b815230600482015290602090829060249082906001600160a01b03165afa908115610ac5576101605191612433575b602082604051908152f35b90506020813d8211612460575b8161244d60209383614e59565b8101031261060f57602091505182612428565b3d9150612440565b34610ad357610160518060031936011261049c576020604051610fa08152f35b34610ad35760209081600319360112610ad3576004356007811015610ad3576124af615477565b6124b7615091565b336101605152600883526124d460ff60406101605120541661523e565b61016051926001821015806126d0575b6124ed9061526f565b33610160515260078152610160516040812094610fd05750600484019260ff845460a81c166007811015611012578311156126a657826017015493601860018060a01b03966125448789600154163090339061540a565b60ff835460a81c169261255787826152a0565b805460ff60b01b1916600160b01b17905561016051600b820181905560068201819055601b820181905591018190556007821015610fd05750849291908061261057506125dd90336101605152600c835260406101605120604051916125bc83614df2565b8083528585840152426040840152606083015260ff861660808301526152e0565b610f246040518094614d8e565b61177091828202928284041482151715610d1957610f73612710610f99940480936150b2565b939190506126759250336101605152600c8152612660604061016051206040519061263a82614df2565b60018252878483015242604083015261016051606083015260ff851660808301526152e0565b61266d6040518095614d8e565b830190614d8e565b8160408201527f6dc34d0522e29b7d7beda15504a00195317702b99a528054d4be53e1ea331b6d60603392a26125ea565b60405162461bcd60e51b81526004810183905260026024820152610aa960f31b6044820152606490fd5b5060068211156124e4565b34610ad3576020366003190112610ad3576126f4614bab565b6126fc614f22565b6001600160a01b03908116612712811515615df2565b601580546001600160a01b0319811683179091556101605192167fcb9bcd5e87ec5de7c4b31036687bd221c8e20f2ecf6fce472ac73a211f2a3cdc8380a380f35b34610ad3576020366003190112610ad3576001600160a01b03612774614bab565b16610160515260076020526101a06040610160512080549060018060a01b036001820154169060018060a01b0360028201541660018060a01b03600383015416600483015460ff600585015491600686015493600b87015495601c601a890154980154986040519a8b5260208b015260408a0152606089015260018060a01b0381166080890152612809828260a01c16614d6e565b818160a01c1660a089015261282660c08901838360a81c16614d8e565b612834828260b01c16614d6e565b60b01c1660e0870152610100860152610120850152610140840152610160830152610180820152f35b34610ad357610160518060031936011261049c576020600654604051908152f35b34610ad35760a0366003190112610ad357612897614bab565b606435151560643503610ad35760076084351015610ad3576128b7614f22565b6128bf615091565b6128d36001600160a01b0382161515615df2565b61016080516001600160a01b038316905260086020525160409020546128fc9060ff1615614f4e565b6001608435101580612c86575b6129129061526f565b600b5415612c5c5761016080516024359052600f6020525160408120546001600160a01b0316919082908115159081612c3f575b506129519150614f7f565b610160516044359081612bed575050815b60643515612bdc5761297390615212565b9060015b61297f6150bf565b61016080518290526010602090815281516040808220805460ff19166001908117909155600f845281832080546001600160a01b03199081166001600160a01b038b81169182179093559094526007909452935120848155928301805482168917905560028301805490911691871691909117905590939060048101612a058482614fe1565b612a11608435826152a0565b805460ff60b01b1916600160b01b17905542601c82015561016080516001600160a01b038416905260076020525160408120601f01549060018201821161169357507f92c194e247c6d4e26ac54d4f751a001bb786b7fd20039047255e4b5327aec9f4949260409492601f60018a9401910155612a8d83614d6e565b60018303612ba25761016080516001600160a01b038381169091526007602052905186902060030180546001600160a01b0319169186169190911790555b816101605152600a602052612ae584866101605120615065565b8161016051526007602052601a85610160512001612b038154615082565b905560018060a01b038416610160515260086020528461016051818120600160ff19825416179055600960205220600160ff19825416179055612b4584615028565b845192878452612b5481614d6e565b60208401526001600160a01b039081169290841690600080516020615e83833981519152908690a48151938452612b9060208501608435614d8e565b6001600160a01b031692a36101605180f35b61016080516001600160a01b038381169091526007602052905186902060040180546001600160a01b031916918616919091179055612acb565b612be5906151e1565b906002612977565b52600f6020526101605160408120546001600160a01b03169081908115159081612c22575b50612c1d9150614fb0565b612962565b9050526008602052612c1d60ff6040610160512054168291612c12565b905052600860205261295160ff6040610160512054168391612946565b60405162461bcd60e51b8152602060048201526002602482015261525560f01b6044820152606490fd5b5060066084351115612909565b34610ad357610160518060031936011261049c5760ff6020915460a01c166040519015158152f35b34610ad3576020366003190112610ad3576004356007811015610ad357602090601e0154604051908152f35b34610ad357610100602081526020600319360112610ad35760043590336101605152600d815152610160519060ff918260408220541690811561304d575b501561302357612d33615091565b8215612ff9576000198301838111610d1957600e90612d5482548092615376565b93600b549182861015612fcf57612d6b9086615005565b91808311612fc7575b5091906101605194925b818410612dbc577f9acb94cd9b9c8b1248d0dc0aa654d4303685379499519790474807198a3290436040888888835192835251820152a16101605180f35b90919294612dc986614c61565b90549060039160018060a01b0391831b1c169081610160515260078751526040610160512084600482015460b01c16612e0181614d6e565b60018114159081612fb2575b50612fa55761016051918283918490601085019060148601905b60048410612ec357505050508315612eb45792601e837f64e8dd16146649f6743856bb8723dcd7edd0bb0e9b5352620ae83a477aea328393612eac9896612e768d612ea69a98019182546150b2565b9055612e87600f83019182546150b2565b905501612e95828254615005565b9055604051908152895190a2615082565b95615082565b929190612d7e565b505050505094612eac90615082565b909192949396612ed38685614caa565b905490831b1c612ee38785614caa565b905490841b1c1115612f8f57612ef98685614caa565b905490831b1c905b8115612f825781612f74612f7a93612f2e612ea694612710612f278d6041015485615376565b0490615005565b9b612f62612f3c8c8b614caa565b612f4b858354838d1b1c6150b2565b825460001960039390931b92831b1916911b179055565b612f6f612f3c8c8a614caa565b615005565b96615005565b929190612e27565b979495612f7a9150615082565b612f998684614caa565b905490831b1c90612f01565b50505094612eac90615082565b60029150612fbf81614d6e565b14158b612e0d565b915086612d74565b60405162461bcd60e51b8152855160048201526002602482015261424560f01b6044820152606490fd5b60405162461bcd60e51b8152905160048201526002602482015261042360f41b6044820152606490fd5b60405162461bcd60e51b8152905160048201526002602482015261415560f01b6044820152606490fd5b546001600160a01b03163314905084612d25565b34610ad357610160518060031936011261049c5760206040516117708152f35b34610ad3576080366003190112610ad3576004356001600160401b038111610ad3576130b1903690600401614d41565b906024356001600160401b038111610ad3576130d1903690600401614d41565b9092906044356001600160401b038111610ad3576130f3903690600401614d41565b90916064356001600160401b038111610ad357613114903690600401614d41565b969094336101605152600860205261313560ff60406101605120541661523e565b80156136625761016080513390526007602052516040812097906001600160401b03831161364a5750819061316d60208a0154614db8565b601f81116135f1575b506101605190601f831160011461357f576101605192613574575b50508160011b916000199060031b1c19161760208701555b6001600160401b0382116133b15781906131c66021880154614db8565b601f8111613518575b506101605190601f83116001146134a657610160519261349b575b50508160011b916000199060031b1c19161760218501555b60228401916001600160401b0382116133b15781906132218454614db8565b601f8111613442575b506101605190601f83116001146133d65761016051926133cb575b50508160011b916000199060031b1c19161790555b60238201906001600160401b0384116133b1576132778254614db8565b601f8111613364575b506101605190601f85116001146132f95793809160249561016051926132ee575b50508160011b916000199060031b1c19161790555b01805460ff1916600117905561016051337fbe4ec58a792f909e102ee3d745d0c3b34a4d437a54d903c4db098d31c556422f8280a280f35b0135905085806132a1565b82825261016051602081209290601f198716905b81811061334c57509160019391876024989410613332575b505050811b0190556132b6565b0135600019600384901b60f8161c19169055858080613325565b9193602060018192878701358155019501920161330d565b8261016051526101605160208120601f870160051c810192602088106133a7575b601f0160051c01915b82811061339c575050613280565b81815560010161338e565b9092508290613385565b634e487b7160e01b61016051526041600452602461016051fd5b013590508680613245565b84825261016051602081209350909190601f198516905b81811061342a5750908460019594939210613410575b505050811b01905561325a565b0135600019600384901b60f8161c19169055868080613403565b919360206001819287870135815501950192016133ed565b9091508361016051526101605160208120601f850160051c81019260208610613491575b90601f86959493920160051c01915b82811061348357505061322a565b818155859450600101613475565b9092508290613466565b0135905087806131ea565b60218801825261016051602081209350909190601f198516905b81811061350057509084600195949392106134e6575b505050811b016021850155613202565b0135600019600384901b60f8161c191690558780806134d6565b919360206001819287870135815501950192016134c0565b9091506021870161016051526101605160208120601f850160051c8101926020861061356a575b90601f86959493920160051c01915b82811061355c5750506131cf565b81815585945060010161354e565b909250829061353f565b013590508980613191565b909150601f1983169160208a018152610160519260208420935b8181106135d957509084600195949392106135bf575b505050811b0160208701556131a9565b0135600019600384901b60f8161c191690558980806135af565b91936020600181928787013581550195019201613599565b9091506020890161016051526101605160208120601f850160051c810160208610613643575b9085949392915b601f840160051c8201811061363557505050613176565b82815586955060010161361e565b5080613617565b634e487b7160e01b9052604160045261016051602490fd5b60405162461bcd60e51b8152602060048201526002602482015261222760f11b6044820152606490fd5b34610ad3576020366003190112610ad3576004356136a8614f22565b61271081116136ef5760407fdefb0223a84c18f8f7c10046a8600d298578166098e58c49022547d7a50da35b91600654908060065582519182526020820152a16101605180f35b60405162461bcd60e51b8152602060048201526002602482015261524560f01b6044820152606490fd5b34610ad357602080600319360112610ad3576014546040516347cd519160e01b81526004803590820152908290829060249082906001600160a01b03165afa908115610ac5576101605191613772575b50604051908152f35b90508181813d8311613798575b6137898183614e59565b81010312610ad3575182613769565b503d61377f565b34610ad357610160518060031936011261049c576003546040516001600160a01b039091168152602090f35b34610ad3576020366003190112610ad3576001600160a01b036137ec614bab565b1661016051526009602052602060ff6040610160512054166040519015158152f35b34610ad357610160518060031936011261049c576020600e54604051908152f35b34610ad3576020366003190112610ad3576004356007811015610ad35760209060250154604051908152f35b34610ad357610160518060031936011261049c57613877614f22565b610160515460ff8160a01c16156138c55760ff60a01b191661016051557f5db9ee0a495bf2e6ff9c91a7834c1ba4fdd244a5e8aa4e537bd38aeae4b073aa6020604051338152a16101605180f35b604051638dfc202b60e01b8152600490fd5b34610ad3576020366003190112610ad3576001600160a01b036138f8614bab565b166101605152601260205260206040610160512054604051908152f35b34610ad357610160518060031936011261049c57602060ff60025460a01c16604051908152f35b34610ad357602080600319360112610ad357601454604051631d61396160e11b81526004803590820152908290829060249082906001600160a01b03165afa908115610ac55761016051916137725750604051908152f35b34610ad3576020366003190112610ad3576001600160a01b036139b5614bab565b1680610160515260086020526139d460ff60406101605120541661523e565b6101605152600760205260206040610160512054604051908152f35b34610ad357610160518060031936011261049c576001546040516001600160a01b039091168152602090f35b34610ad357610160518060031936011261049c57613a38615477565b613a40615091565b3361016051526008602052613a5e60ff60406101605120541661523e565b3361016051526007602052604061016051206004810154613a9a60ff8260b01c16613a8881614d6e565b60018114908115613e89575b506158b0565b601e8201908154908115613e5f5760ff906201518042046019860181815410613e4e575b505060a81c1660078110156110125760250154926101605192601882019081548681809811613e3b575b50508415613e115783946101605194818111613def575b505084613b91949596613b1792610160519055615005565b905560088101613b28858254615005565b9055613b3484336159ab565b336101605152600c60205261016051601f60408220920154905060ff8111600014613de9575060ff905b60ff60405192613b6d84614df2565b600584528660208501524260408501526101605160608501521660808301526152e0565b6040518281527fd4379f0df0229cb2fed1f6f1c33e4a164dcf7652a8ff79efd7f4f66bcc1b375660203392a280613d7d575b506101608051339052600760205251604090206001908101546001600160a01b03165b6001600160a01b038116151580613d72575b15610f995761016080516001600160a01b038316905260076020525160409020600481015460b081901c60ff16613c2e81614d6e565b60018114908115613d5e575b50613c5f575b50600101546001600160a01b031691613c599150615082565b90613be6565b600760ff8260a81c1610156110125760ff9060a81c1660330154831115613c87575b81613c40565b6064918483810204831485151715610d1957612710613c599386020480613cb0575b5050613c81565b613cba81836159ab565b60098301613cc9828254615005565b905560018060a01b0382166101605152600c602052613d196040610160512060405190613cf582614df2565b6006825283602083015242604083015233606083015260ff881660808301526152e0565b604080519182526020820186905233926001600160a01b0316917f45948fc51bbcac6c3b663a1adcc0697660bbaeddd6eab9240451a0efcf7ad7539190a38480613ca9565b60029150613d6b81614d6e565b1486613c3a565b506014821115613bf8565b613d8981601654615005565b6016556040518181527fd5fe7fa76ce91683ea1b2f2ba3429885feeb202704aa35a0552e110e4eb6b26b60203392a26015546001600160a01b039190821680613dd4575b5050613bc3565b613de19260015416615389565b818080613dcd565b90613b5e565b9096613b17929650613b919550613e078889936150b2565b9550969591613aff565b60405162461bcd60e51b8152602060048201526002602482015261444360f01b6044820152606490fd5b613e469296506150b2565b938587613ae8565b610160516018880155558580613abe565b60405162461bcd60e51b81526020600482015260026024820152614e4360f01b6044820152606490fd5b60029150613e9681614d6e565b1484613a94565b34610ad3576020366003190112610ad357600435613eb9615477565b613ec1615091565b336101605152600760205260406101605120613ef2600160ff600484015460b01c16613eec81614d6e565b146158b0565b60058101805483811061445c5783156144325760ff60025460a01c16604d8111610d1957600a0a80600a0290600a820403610d195780156144185784066143ee5783613f3d916150b2565b90556103e882026103e71983820401610d19576101605192600554806143cf575b5083613f7b613f8092613f7b6127108604916127108704906150b2565b6150b2565b91612710613f9060065485615376565b0490613f9c82856150b2565b91806143b1575b5081614362575b601d91508461433f575b93929301613fc3848254615005565b9055336101605152601260205260406101605120613fe661271083048254615005565b9055604051612710820481527f2b1d2104e84dd4dabb0cca024171f783ab1e1c9dc1af9d60a2361596653a99c460203392a2610160805133905260076020525160408120600190810154919490916001600160a01b03165b6001600160a01b038116151580614334575b156142055760018060a01b038116610160515260076020526040610160512090600482015460ff8160b01c1661408581614d6e565b600181149081156141f1575b506140b6575b5050600101546001600160a01b0316916140b090615082565b9161403e565b600760ff8260a81c161015611012578060ff869260a81c16603a01548211156140e0575b50614097565b9060ff6140f09260a81c166158e1565b806140fd575b84906140da565b61410c61271091828804615376565b0490811515806141da575b156140f6576141468280996141306140b09695856159ab565b600a850161413f838254615005565b9055615005565b9760018060a01b0382166101605152600c602052614195604061016051206040519061417182614df2565b6007825283602083015242604083015233606083015260ff891660808301526152e0565b604080519182526020820187905233926001600160a01b0316917ffa90ff469705543002392f8f4d59d717c4d5c6b6c7832f347dc47e1f75855b939190a390876140f6565b5061271086046141ea838a615005565b1115614117565b600291506141fe81614d6e565b1489614091565b50836142ea84336101605152600c602052614254604061016051206040519061422d82614df2565b600382528660208301524260408301526101605160608301526101605160808301526152e0565b336101605152600c6020526142a1604061016051206040519061427682614df2565b600a8252612710840460208301524260408301526101605160608301526101605160808301526152e0565b336101605152600c60205260406101605120612710604051926142c384614df2565b600b84520460208301524260408301526101605160608301526101605160808301526152e0565b60405191825260208201527fdf273cb619d95419a9cd0ec88123a0538c85064229baa6363788f743fff90deb60403392a26001600080516020615ee3833981519152556101605180f35b50600f831115614050565b60015460035461435d9187916001600160a01b039081169116615389565b613fb4565b6002546001600160a01b0316801561438757601d92614382913390615389565b613faa565b60405162461bcd60e51b8152602060048201526002602482015261135560f21b6044820152606490fd5b6001546143c9919033906001600160a01b0316615389565b85613fa3565b613f7b9450906127106143e5613f809383615376565b04945090613f5e565b60405162461bcd60e51b8152602060048201526002602482015261414d60f01b6044820152606490fd5b634e487b7160e01b61016051526012600452602461016051fd5b60405162461bcd60e51b8152602060048201526002602482015261041360f41b6044820152606490fd5b60405162461bcd60e51b815260206004820152600360248201526224a11960e91b6044820152606490fd5b34610ad3576040366003190112610ad3576144a0614bab565b7f41310093e80507e3fb2fafc7628a627f835448a93096f490e3e207749295f48260206024356144ce614f22565b6001600160a01b03848116946144f5918391906144ec881515615df2565b60015416615389565b604051908152a26101605180f35b34610ad3576020366003190112610ad3576001600160a01b03614524614bab565b166101605152600d602052602060ff6040610160512054166040519015158152f35b34610ad3576020366003190112610ad35761455f614bab565b6040519061456c82614e23565b608080923690378160405161458081614e23565b3690376040519061459082614e23565b82368337604051906145a182614e23565b83368337836040516145b281614e23565b36903760018060a01b03166101605152600760205260406101605120916010830160146145de82615b1b565b9401946145ea86615b1b565b604051969092908288016001600160401b038111898210176133b157604052610bb888526107d060208901526103e860408901526101f46060890152610160515b60048110614680576102808861467e8b6146738b6146688c61465d8d8d614655604051809b614d19565b890190614d19565b610100870190614d19565b610180850190614d19565b610200830190614d19565bf35b8061468e6146fd9285614caa565b90549061469b8386614caa565b905460039391841b1c91831b1c1015614702576146b88286614caa565b9054911b1c5b6146c88289615b4e565b526127106146ec8b6146e5846146de818d615b4e565b5192615b4e565b5190615376565b046146f7828a615b4e565b52615082565b61462b565b61470c8285614caa565b9054911b1c6146be565b34610ad357610160518060031936011261049c576020601654604051908152f35b34610ad35761474536614cfa565b61474d614f22565b600782101580611012576001831015806147aa575b61476b9061526f565b61101257816121577ffd97dc847c39542ae663c77ed6c5fe5d200d0a308aac833f926e9c3f8f32453f9360250192808454945560405193849384615e23565b5050610160516006831115614762565b34610ad3576040366003190112610ad3576147d3614bab565b60243590811515809203610ad35760207f9742298dc6801916d04d1f05c6a0cc0405b25bad99060bbbc1c82a9f474ab0149161480d614f22565b6001600160a01b031692614822841515615df2565b836101605152600d82526040610160512060ff1981541660ff8316179055604051908152a26101605180f35b34610ad3576020366003190112610ad3576004356007811015610ad35760209060170154604051908152f35b34610ad3576020366003190112610ad3576001600160a01b0361489b614bab565b16610160515260076020526149086040610160512060ff6024820154166149326148c760208401614e7c565b926149246148d760218301614e7c565b916149166148f360236148ec60228501614e7c565b9301614e7c565b9360405198899860a08a5260a08a0190614cba565b9088820360208a0152614cba565b908682036040880152614cba565b908482036060860152614cba565b90151560808301520390f35b34610ad3576020366003190112610ad3576004356004811015610ad35760209060410154604051908152f35b34610ad3576020366003190112610ad35760043561016051526010602052602060ff6040610160512054166040519015158152f35b34610ad3576040366003190112610ad3576149b8614bab565b61016080516001600160a01b039283169052600a6020525160408120805460243593929084101561049c57506020926149f091614c92565b9190546040519260031b1c168152f35b34610ad3576040366003190112610ad357614a19614bab565b6024359060ff82168203610ad357614a2f614f22565b6001600160a01b03908116908115614aa057600180546001600160a01b0319811684179091556002805460ff60a01b191660a09590951b60ff60a01b16949094179093556101605192167f5efdfedf5aef119c431263f0656093045dffdf44b3d8f1b0f158dc295c3a0f8e8380a380f35b60405162461bcd60e51b8152602060048201526002602482015261125560f21b6044820152606490fd5b3461049c57614ae1614adb36614bc6565b91615c6a565b949190926040519460c086019060c08752845180925260e0870191602080960190610160515b818110614b8a5750505091614b2a82614b46959489614b389503888b0152614bf0565b908782036040890152614bf0565b908582036060870152614c24565b8381036080850152818084519283815201930191610160515b828110614b73578580868960a08301520390f35b835160ff1685529381019392810192600101614b5f565b909193845190600c8210156110125790815287019387019190600101614b07565b600435906001600160a01b0382168203614bc157565b600080fd5b6060906003190112614bc1576004356001600160a01b0381168103614bc157906024359060443590565b90815180825260208080930193019160005b828110614c10575050505090565b835185529381019392810192600101614c02565b90815180825260208080930193019160005b828110614c44575050505090565b83516001600160a01b031685529381019392810192600101614c36565b600b54811015614c7c57600b60005260206000200190600090565b634e487b7160e01b600052603260045260246000fd5b8054821015614c7c5760005260206000200190600090565b6004821015614c7c570190600090565b919082519283825260005b848110614ce6575050826000602080949584010152601f8019910116010190565b602081830181015184830182015201614cc5565b6040906003190112614bc1576004356007811015614bc1579060243590565b6000915b60048310614d2a57505050565b600190825181526020809101920192019190614d1d565b9181601f84011215614bc1578235916001600160401b038311614bc15760208381860195010111614bc157565b60031115614d7857565b634e487b7160e01b600052602160045260246000fd5b906007821015614d785752565b34614bc1576000366003190112614bc15760206040516103e88152f35b90600182811c92168015614de8575b6020831014614dd257565b634e487b7160e01b600052602260045260246000fd5b91607f1691614dc7565b60a081019081106001600160401b03821117614e0d57604052565b634e487b7160e01b600052604160045260246000fd5b608081019081106001600160401b03821117614e0d57604052565b602081019081106001600160401b03821117614e0d57604052565b601f909101601f19168101906001600160401b03821190821017614e0d57604052565b9060405191826000825492614e9084614db8565b908184526001948581169081600014614eff5750600114614ebc575b5050614eba92500383614e59565b565b9093915060005260209081600020936000915b818310614ee7575050614eba93508201013880614eac565b85548884018501529485019487945091830191614ecf565b915050614eba94506020925060ff191682840152151560051b8201013880614eac565b6000546001600160a01b03163303614f3657565b60405163118cdaa760e01b8152336004820152602490fd5b15614f5557565b60405162461bcd60e51b815260206004820152600260248201526120a960f11b6044820152606490fd5b15614f8657565b60405162461bcd60e51b8152602060048201526002602482015261495360f01b6044820152606490fd5b15614fb757565b60405162461bcd60e51b815260206004820152600260248201526124a160f11b6044820152606490fd5b90614feb81614d6e565b815460ff60a01b191660a09190911b60ff60a01b16179055565b9190820180921161501257565b634e487b7160e01b600052601160045260246000fd5b600b54600160401b811015614e0d578060016150479201600b55614c61565b819291549060031b9160018060a01b03809116831b921b1916179055565b8054600160401b811015614e0d5761504791600182018155614c92565b60001981146150125760010190565b60ff60005460a01c166150a057565b60405163d93c066560e01b8152600490fd5b9190820391821161501257565b600080606033811b600180805b6150d9575b505050505090565b949091929394156151c4575b5060006011916150f58354615082565b92838155600b54906040948551602093848201924284524489840152898b840152607483015260949081830152815260c0810181811060018060401b038211176151b0579064e8d4a50c189291885251902006906103e8820180921161519e57506151609097615082565b93603285116151765750509081949392946150cc565b60649250519062461bcd60e51b825260048201526002602482015261494760f01b6044820152fd5b634e487b7160e01b8552600452602484fd5b634e487b7160e01b87526041600452602487fd5b80600052601060205260ff604060002054166150e55793806150d1565b5b6001600160a01b038181166000908152600760205260409020600401541690811561520d57506151e2565b905090565b5b6001600160a01b038181166000908152600760205260409020600301541690811561520d5750615213565b1561524557565b60405162461bcd60e51b8152602060048201526002602482015261272960f11b6044820152606490fd5b1561527657565b60405162461bcd60e51b8152602060048201526002602482015261049560f41b6044820152606490fd5b906007811015614d7857815460ff60a81b191660a89190911b60ff60a81b16179055565b8054821015614c7c5760005260206000209060021b0190600090565b8054600160401b811015614e0d576152fd916001820181556152c4565b61536057815190600c821015614d785760039160ff801983541691161781556020830151600182015560408301516002820155019060018060a01b03606082015116825491608060ff60a01b91015160a01b169160018060a81b03191617179055565b634e487b7160e01b600052600060045260246000fd5b8181029291811591840414171561501257565b60405163a9059cbb60e01b60009081526001600160a01b039384166004526024949094529260209060448180855af16001600051148116156153ea575b83604052156153d457505050565b635274afe760e01b835216600482015260249150fd5b600181151661540057813b15153d1516166153c6565b833d6000823e3d90fd5b6040516323b872dd60e01b60009081526001600160a01b03938416600452938316602452604494909452909160209060648180855af1600160005114811615615461575b836040526000606052156153d457505050565b600181151661540057813b15153d15161661544e565b600080516020615ee383398151915260028154146154955760029055565b604051633ee5aeb560e01b8152600490fd5b6001600160a01b03908116600081815260076020526040808220600101549294929093169283156155cb5783825280822092600484015460ff8160b01c166154ee81614d6e565b600181141590816155b6575b506155ad5760a81c60ff16600781101561053f576127109161552091601e015490615376565b049081156155a55761559e60209360077f86583c8be3288ec633d5a10afa75407d4c785bff5edd40840c42e48d0efdcfbb9661555c868a6159ab565b01615568858254615005565b9055868152600c855282812083519161558083614df2565b600483528587840152428584015289606084015260808301526152e0565b51908152a3565b505050505050565b50505050505050565b600291506155c381614d6e565b1415386154fa565b5050505050565b919060005b60018060a01b03809416938460005260079060209082825260029160409183836000200154169485156158185761560d90615082565b97601490818a1161580c578660005285835260ff600480866000200154928260b094851c169361563c85614d6e565b888460018097149283156157e5575b505050615662575b505050505050505050926155d7565b60005287855285600020015460a01c169061567c82614d6e565b811494600086156157e05750885b886000528785526156a3600c8760002001918254615005565b90556156ae82614d6e565b811490600082156157db5750885b886000528785526156d5600d8760002001918254615005565b90556156e081614d6e565b600086156157d65750885b88600052878552615704600e8760002001918254615005565b905561570f81614d6e565b600082156157d15750885b88600052878552615733600f8760002001918254615005565b905561573e8b615823565b96909661574c575b80615653565b61575582614d6e565b1561579457505050615777929161578794601092876000525260002001614caa565b612f4b8583548360031b1c615005565b3880808080808080615746565b6157a2909594929395614d6e565b6157b1575b5050505050615787565b6157c79461577794876000525260002001614caa565b38808080806157a7565b61571a565b6156eb565b6156bc565b61568a565b909192508c6000528b8952848a6000200154901c1661580381614d6e565b1488843861564b565b50505050505050509050565b505050505050509050565b60019081811015806158a5575b61589f57600481101580615894575b61588e57600781101580615883575b61587d57600a8110159081615871575b5061586c5750600090600090565b600391565b6014915011153861585e565b50600291565b50600981111561584e565b50908190565b50600681111561583f565b50600091565b506003811115615830565b156158b757565b60405162461bcd60e51b81526020600482015260026024820152614e4160f01b6044820152606490fd5b6007811015614d785760018103615907575060011015615901575b600090565b6103e890565b6002810361591d57506003101561590157600090565b60038103615948575060048111156159415760051461593b57600090565b6101f490565b506103e890565b6004810361596757506005811115615941576009101561593b57600090565b600581036159865750600481111561594157600c106158fc576101f490565b600614615994575b50600090565b600581111561594157600f101561593b573861598e565b9060018060a01b038216600052600760205260406000208115615a745760ff600482015460a81c166007811015614d7857602c0154926000600b830194855490818111615a63575b50508015615a5757808411615a24575050906005615a209201615a17828254615005565b90558254615005565b9055565b8293614eba956005615a51949501615a3d848254615005565b9055615a4a838254615005565b90556150b2565b91615a79565b5090614eba9350615a79565b615a6d92506150b2565b38806159f3565b505050565b9060ff600291600484019081546001848260b01c16615a9781614d6e565b14615ac5575b50505460b01c16615aad81614d6e565b14615ab6575050565b6006615a209101918254615005565b60b084901b1916600160b11b17825542601b86018190556040519081526001600160a01b03909116907f2bb92f1150248e7f78a267b3904ebd95f62a5225d70dcc813fb6906c3a646e9890602090a23880615a9d565b60405191906000835b60048210615b3857505050614eba82614e23565b6001602081928554815201930191019091615b24565b906004811015614c7c5760051b0190565b6001600160401b038111614e0d5760051b60200190565b90615b8082615b5f565b615b8d6040519182614e59565b8281528092615b9e601f1991615b5f565b0190602036910137565b8051821015614c7c5760209160051b010190565b929060018060a01b0380600095168552600a6020526040852080549485841015615c4d57615bea9084615005565b83868211615c45575b615bfc916150b2565b92615c0684615b76565b965b848110615c16575050505050565b8084615c2e615c28615c409486615005565b86614c92565b90549060031b1c166146f7828b615ba8565b615c08565b869150615bf3565b50505050909160405190615c6082614e3e565b8082523681379190565b6001600160a01b03166000908152600c60205260409081902080549493909185841015615d935750615c9c9083615005565b82858211615d8b575b615cae916150b2565b91615cb883615b76565b94615cc284615b76565b94615ccc85615b76565b94615cd681615b76565b94615ce082615b76565b9460005b838110615cf15750505050565b600019860186811161501257615d14615d1a91615d0e8486615005565b906150b2565b846152c4565b50908b615d2c8260ff85541692615ba8565b600c821015614d7857615d869360ff92600392528d615d5085600184015492615ba8565b526002810154615d60858f615ba8565b5201546001600160a01b038116615d77848d615ba8565b5260a01c166146f7828a615ba8565b615ce4565b859150615ca5565b925050508051615da281614e3e565b60008152815193615db285614e3e565b60008552825193615dc285614e3e565b60008552835193615dd285614e3e565b600085525192615de184614e3e565b600084526000368137959493929190565b15615df957565b60405162461bcd60e51b815260206004820152600260248201526124ab60f11b6044820152606490fd5b604091949392615e37826060810197614d8e565b60208201520152565b600b54801561598e57615e56600e548092615005565b6000198101908111615012578115615e6c570490565b634e487b7160e01b600052601260045260246000fdfee22a39f862558eb01c2a26eb38c7d884b499221d9a5989f637529bd3e77fd6798be0079c531659141344cd1fd0a4f28419497f9722a3daafe3b4186f6b6457e04769bc30c3e6f90ecfef0f6e4760f65f2cc4ae6c67493463e3c9caf3d2f863e99b779b17422d0df92223018b32b4d1fa46e071723d6817e2486d003becc55f00a264697066735822122095574151a3e9e31e115af0e3e4a7e53730c7c99d86c0eb09c853598db8d90cb464736f6c63430008140033",
  "linkReferences": {},
  "deployedLinkReferences": {}
}