{
  "_format": "hh-sol-artifact-1",
  "contractName": "MLMContract",
  "sourceName": "contracts/MLMContract.sol",
  "abi": [
    {
      "inputs": [
        {
          "internalType": "address",
          "name": "_paymentToken",
          "type": "address"
        },
        {
          "internalType": "uint8",
          "name": "_tokenDecimals",
          "type": "uint8"
        },
        {
          "internalType": "address",
          "name": "_feeRecipient",
          "type": "address"
        },
        {
          "internalType": "address",
          "name": "_adminBinaryWallet",
          "type": "address"
        }
      ],
      "stateMutability": "nonpayable",
      "type": "constructor"
    },
    {
      "inputs": [],
      "name": "EnforcedPause",
      "type": "error"
    },
    {
      "inputs": [],
      "name": "ExpectedPause",
      "type": "error"
    },
    {
      "inputs": [
        {
          "internalType": "address",
          "name": "owner",
          "type": "address"
        }
      ],
      "name": "OwnableInvalidOwner",
      "type": "error"
    },
    {
      "inputs": [
        {
          "internalType": "address",
          "name": "account",
          "type": "address"
        }
      ],
      "name": "OwnableUnauthorizedAccount",
      "type": "error"
    },
    {
      "inputs": [],
      "name": "ReentrancyGuardReentrantCall",
      "type": "error"
    },
    {
      "inputs": [
        {
          "internalType": "address",
          "name": "token",
          "type": "address"
        }
      ],
      "name": "SafeERC20FailedOperation",
      "type": "error"
    },
    {
      "anonymous": false,
      "inputs": [
        {
          "indexed": true,
          "internalType": "address",
          "name": "oldWallet",
          "type": "address"
        },
        {
          "indexed": true,
          "internalType": "address",
          "name": "newWallet",
          "type": "address"
        }
      ],
      "name": "AdminBinaryWalletUpdated",
      "type": "event"
    },
    {
      "anonymous": false,
      "inputs": [
        {
          "indexed": false,
          "internalType": "uint256",
          "name": "batchNumber",
          "type": "uint256"
        },
        {
          "indexed": false,
          "internalType": "uint256",
          "name": "processedCount",
          "type": "uint256"
        }
      ],
      "name": "BinaryBatchProcessed",
      "type": "event"
    },
    {
      "anonymous": false,
      "inputs": [
        {
          "indexed": false,
          "internalType": "uint256",
          "name": "oldSize",
          "type": "uint256"
        },
        {
          "indexed": false,
          "internalType": "uint256",
          "name": "newSize",
          "type": "uint256"
        }
      ],
      "name": "BinaryBatchSizeUpdated",
      "type": "event"
    },
    {
      "anonymous": false,
      "inputs": [
        {
          "indexed": true,
          "internalType": "address",
          "name": "user",
          "type": "address"
        },
        {
          "indexed": false,
          "internalType": "uint256",
          "name": "flushedAmount",
          "type": "uint256"
        }
      ],
      "name": "BinaryFlushed",
      "type": "event"
    },
    {
      "anonymous": false,
      "inputs": [
        {
          "indexed": true,
          "internalType": "address",
          "name": "user",
          "type": "address"
        },
        {
          "indexed": false,
          "internalType": "uint256",
          "name": "amount",
          "type": "uint256"
        }
      ],
      "name": "BinaryIncomeAllocated",
      "type": "event"
    },
    {
      "anonymous": false,
      "inputs": [
        {
          "indexed": true,
          "internalType": "address",
          "name": "user",
          "type": "address"
        },
        {
          "indexed": false,
          "internalType": "uint256",
          "name": "amount",
          "type": "uint256"
        }
      ],
      "name": "BinaryIncomeClaimed",
      "type": "event"
    },
    {
      "anonymous": false,
      "inputs": [
        {
          "indexed": true,
          "internalType": "address",
          "name": "processor",
          "type": "address"
        },
        {
          "indexed": false,
          "internalType": "bool",
          "name": "status",
          "type": "bool"
        }
      ],
      "name": "BinaryProcessorUpdated",
      "type": "event"
    },
    {
      "anonymous": false,
      "inputs": [
        {
          "indexed": true,
          "internalType": "address",
          "name": "owner",
          "type": "address"
        },
        {
          "indexed": true,
          "internalType": "uint256",
          "name": "boardLevel",
          "type": "uint256"
        },
        {
          "indexed": false,
          "internalType": "uint256",
          "name": "reward",
          "type": "uint256"
        },
        {
          "indexed": false,
          "internalType": "uint256",
          "name": "liquidity",
          "type": "uint256"
        }
      ],
      "name": "BoardCompleted",
      "type": "event"
    },
    {
      "anonymous": false,
      "inputs": [
        {
          "indexed": true,
          "internalType": "address",
          "name": "user",
          "type": "address"
        },
        {
          "indexed": true,
          "internalType": "uint256",
          "name": "boardLevel",
          "type": "uint256"
        },
        {
          "indexed": false,
          "internalType": "uint256",
          "name": "matrixIndex",
          "type": "uint256"
        }
      ],
      "name": "BoardEntered",
      "type": "event"
    },
    {
      "anonymous": false,
      "inputs": [
        {
          "indexed": true,
          "internalType": "address",
          "name": "user",
          "type": "address"
        },
        {
          "indexed": false,
          "internalType": "uint256",
          "name": "amount",
          "type": "uint256"
        }
      ],
      "name": "BtcPoolCredited",
      "type": "event"
    },
    {
      "anonymous": false,
      "inputs": [
        {
          "indexed": true,
          "internalType": "address",
          "name": "oldAddr",
          "type": "address"
        },
        {
          "indexed": true,
          "internalType": "address",
          "name": "newAddr",
          "type": "address"
        }
      ],
      "name": "CoinLiquidityAddressUpdated",
      "type": "event"
    },
    {
      "anonymous": false,
      "inputs": [
        {
          "indexed": true,
          "internalType": "address",
          "name": "to",
          "type": "address"
        },
        {
          "indexed": false,
          "internalType": "uint256",
          "name": "amount",
          "type": "uint256"
        }
      ],
      "name": "ContractFundsWithdrawn",
      "type": "event"
    },
    {
      "anonymous": false,
      "inputs": [
        {
          "indexed": false,
          "internalType": "enum MLMContract.Package",
          "name": "pkg",
          "type": "uint8"
        },
        {
          "indexed": false,
          "internalType": "uint256",
          "name": "oldCap",
          "type": "uint256"
        },
        {
          "indexed": false,
          "internalType": "uint256",
          "name": "newCap",
          "type": "uint256"
        }
      ],
      "name": "DailyCappingUpdated",
      "type": "event"
    },
    {
      "anonymous": false,
      "inputs": [
        {
          "indexed": true,
          "internalType": "address",
          "name": "recipient",
          "type": "address"
        },
        {
          "indexed": true,
          "internalType": "address",
          "name": "from",
          "type": "address"
        },
        {
          "indexed": false,
          "internalType": "uint256",
          "name": "amount",
          "type": "uint256"
        }
      ],
      "name": "DirectIncomeDistributed",
      "type": "event"
    },
    {
      "anonymous": false,
      "inputs": [
        {
          "indexed": true,
          "internalType": "address",
          "name": "token",
          "type": "address"
        },
        {
          "indexed": true,
          "internalType": "address",
          "name": "to",
          "type": "address"
        },
        {
          "indexed": false,
          "internalType": "uint256",
          "name": "amount",
          "type": "uint256"
        }
      ],
      "name": "EmergencyTokenRecovery",
      "type": "event"
    },
    {
      "anonymous": false,
      "inputs": [
        {
          "indexed": true,
          "internalType": "address",
          "name": "oldRecipient",
          "type": "address"
        },
        {
          "indexed": true,
          "internalType": "address",
          "name": "newRecipient",
          "type": "address"
        }
      ],
      "name": "FeeRecipientUpdated",
      "type": "event"
    },
    {
      "anonymous": false,
      "inputs": [
        {
          "indexed": true,
          "internalType": "address",
          "name": "user",
          "type": "address"
        },
        {
          "indexed": false,
          "internalType": "uint256",
          "name": "userId",
          "type": "uint256"
        },
        {
          "indexed": false,
          "internalType": "enum MLMContract.Package",
          "name": "pkg",
          "type": "uint8"
        },
        {
          "indexed": true,
          "internalType": "address",
          "name": "sponsor",
          "type": "address"
        }
      ],
      "name": "FreeAccountActivated",
      "type": "event"
    },
    {
      "anonymous": false,
      "inputs": [
        {
          "indexed": true,
          "internalType": "address",
          "name": "user",
          "type": "address"
        },
        {
          "indexed": false,
          "internalType": "uint256",
          "name": "flushedAmount",
          "type": "uint256"
        }
      ],
      "name": "GracePeriodExpired",
      "type": "event"
    },
    {
      "anonymous": false,
      "inputs": [
        {
          "indexed": true,
          "internalType": "address",
          "name": "user",
          "type": "address"
        },
        {
          "indexed": false,
          "internalType": "uint256",
          "name": "startTime",
          "type": "uint256"
        }
      ],
      "name": "GracePeriodStarted",
      "type": "event"
    },
    {
      "anonymous": false,
      "inputs": [
        {
          "indexed": true,
          "internalType": "address",
          "name": "oldToken",
          "type": "address"
        },
        {
          "indexed": true,
          "internalType": "address",
          "name": "newToken",
          "type": "address"
        }
      ],
      "name": "MTokenUpdated",
      "type": "event"
    },
    {
      "anonymous": false,
      "inputs": [
        {
          "indexed": true,
          "internalType": "address",
          "name": "recipient",
          "type": "address"
        },
        {
          "indexed": true,
          "internalType": "address",
          "name": "from",
          "type": "address"
        },
        {
          "indexed": false,
          "internalType": "uint256",
          "name": "amount",
          "type": "uint256"
        },
        {
          "indexed": false,
          "internalType": "uint256",
          "name": "level",
          "type": "uint256"
        }
      ],
      "name": "MatchingOverrideDistributed",
      "type": "event"
    },
    {
      "anonymous": false,
      "inputs": [
        {
          "indexed": false,
          "internalType": "enum MLMContract.Package",
          "name": "pkg",
          "type": "uint8"
        },
        {
          "indexed": false,
          "internalType": "uint256",
          "name": "oldLimit",
          "type": "uint256"
        },
        {
          "indexed": false,
          "internalType": "uint256",
          "name": "newLimit",
          "type": "uint256"
        }
      ],
      "name": "MaxIncomeLimitUpdated",
      "type": "event"
    },
    {
      "anonymous": false,
      "inputs": [
        {
          "indexed": true,
          "internalType": "address",
          "name": "previousOwner",
          "type": "address"
        },
        {
          "indexed": true,
          "internalType": "address",
          "name": "newOwner",
          "type": "address"
        }
      ],
      "name": "OwnershipTransferred",
      "type": "event"
    },
    {
      "anonymous": false,
      "inputs": [
        {
          "indexed": true,
          "internalType": "address",
          "name": "user",
          "type": "address"
        },
        {
          "indexed": false,
          "internalType": "enum MLMContract.Package",
          "name": "pkg",
          "type": "uint8"
        },
        {
          "indexed": false,
          "internalType": "uint256",
          "name": "amountPaid",
          "type": "uint256"
        }
      ],
      "name": "PackageActivated",
      "type": "event"
    },
    {
      "anonymous": false,
      "inputs": [
        {
          "indexed": false,
          "internalType": "enum MLMContract.Package",
          "name": "pkg",
          "type": "uint8"
        },
        {
          "indexed": false,
          "internalType": "uint256",
          "name": "oldPrice",
          "type": "uint256"
        },
        {
          "indexed": false,
          "internalType": "uint256",
          "name": "newPrice",
          "type": "uint256"
        }
      ],
      "name": "PackagePriceUpdated",
      "type": "event"
    },
    {
      "anonymous": false,
      "inputs": [
        {
          "indexed": true,
          "internalType": "address",
          "name": "user",
          "type": "address"
        },
        {
          "indexed": false,
          "internalType": "enum MLMContract.Package",
          "name": "oldPkg",
          "type": "uint8"
        },
        {
          "indexed": false,
          "internalType": "enum MLMContract.Package",
          "name": "newPkg",
          "type": "uint8"
        },
        {
          "indexed": false,
          "internalType": "uint256",
          "name": "amountPaid",
          "type": "uint256"
        }
      ],
      "name": "PackageUpgraded",
      "type": "event"
    },
    {
      "anonymous": false,
      "inputs": [
        {
          "indexed": false,
          "internalType": "address",
          "name": "account",
          "type": "address"
        }
      ],
      "name": "Paused",
      "type": "event"
    },
    {
      "anonymous": false,
      "inputs": [
        {
          "indexed": true,
          "internalType": "address",
          "name": "oldToken",
          "type": "address"
        },
        {
          "indexed": true,
          "internalType": "address",
          "name": "newToken",
          "type": "address"
        }
      ],
      "name": "PaymentTokenUpdated",
      "type": "event"
    },
    {
      "anonymous": false,
      "inputs": [
        {
          "indexed": true,
          "internalType": "address",
          "name": "oldAddr",
          "type": "address"
        },
        {
          "indexed": true,
          "internalType": "address",
          "name": "newAddr",
          "type": "address"
        }
      ],
      "name": "ProductWalletUpdated",
      "type": "event"
    },
    {
      "anonymous": false,
      "inputs": [
        {
          "indexed": true,
          "internalType": "address",
          "name": "user",
          "type": "address"
        }
      ],
      "name": "ProfileUpdated",
      "type": "event"
    },
    {
      "anonymous": false,
      "inputs": [
        {
          "indexed": true,
          "internalType": "address",
          "name": "user",
          "type": "address"
        },
        {
          "indexed": false,
          "internalType": "enum MLMContract.Package",
          "name": "pkg",
          "type": "uint8"
        },
        {
          "indexed": false,
          "internalType": "uint256",
          "name": "amountPaid",
          "type": "uint256"
        }
      ],
      "name": "Reactivated",
      "type": "event"
    },
    {
      "anonymous": false,
      "inputs": [
        {
          "indexed": true,
          "internalType": "address",
          "name": "oldAddr",
          "type": "address"
        },
        {
          "indexed": true,
          "internalType": "address",
          "name": "newAddr",
          "type": "address"
        }
      ],
      "name": "SystemAddressUpdated",
      "type": "event"
    },
    {
      "anonymous": false,
      "inputs": [
        {
          "indexed": true,
          "internalType": "address",
          "name": "user",
          "type": "address"
        },
        {
          "indexed": false,
          "internalType": "uint256",
          "name": "amount",
          "type": "uint256"
        }
      ],
      "name": "TempWalletClaimed",
      "type": "event"
    },
    {
      "anonymous": false,
      "inputs": [
        {
          "indexed": false,
          "internalType": "address",
          "name": "account",
          "type": "address"
        }
      ],
      "name": "Unpaused",
      "type": "event"
    },
    {
      "anonymous": false,
      "inputs": [
        {
          "indexed": true,
          "internalType": "address",
          "name": "user",
          "type": "address"
        },
        {
          "indexed": false,
          "internalType": "uint256",
          "name": "userId",
          "type": "uint256"
        },
        {
          "indexed": true,
          "internalType": "address",
          "name": "sponsor",
          "type": "address"
        },
        {
          "indexed": true,
          "internalType": "address",
          "name": "binaryParent",
          "type": "address"
        },
        {
          "indexed": false,
          "internalType": "enum MLMContract.Side",
          "name": "side",
          "type": "uint8"
        }
      ],
      "name": "UserRegistered",
      "type": "event"
    },
    {
      "anonymous": false,
      "inputs": [
        {
          "indexed": true,
          "internalType": "address",
          "name": "user",
          "type": "address"
        },
        {
          "indexed": false,
          "internalType": "uint256",
          "name": "netAmount",
          "type": "uint256"
        },
        {
          "indexed": false,
          "internalType": "uint256",
          "name": "fee",
          "type": "uint256"
        }
      ],
      "name": "Withdrawal",
      "type": "event"
    },
    {
      "anonymous": false,
      "inputs": [
        {
          "indexed": false,
          "internalType": "uint256",
          "name": "oldFee",
          "type": "uint256"
        },
        {
          "indexed": false,
          "internalType": "uint256",
          "name": "newFee",
          "type": "uint256"
        }
      ],
      "name": "WithdrawalFeeUpdated",
      "type": "event"
    },
    {
      "anonymous": false,
      "inputs": [
        {
          "indexed": true,
          "internalType": "address",
          "name": "recipient",
          "type": "address"
        },
        {
          "indexed": true,
          "internalType": "address",
          "name": "from",
          "type": "address"
        },
        {
          "indexed": false,
          "internalType": "uint256",
          "name": "amount",
          "type": "uint256"
        },
        {
          "indexed": false,
          "internalType": "uint256",
          "name": "level",
          "type": "uint256"
        }
      ],
      "name": "WithdrawalMatchDistributed",
      "type": "event"
    },
    {
      "anonymous": false,
      "inputs": [
        {
          "indexed": false,
          "internalType": "uint256",
          "name": "oldRate",
          "type": "uint256"
        },
        {
          "indexed": false,
          "internalType": "uint256",
          "name": "newRate",
          "type": "uint256"
        }
      ],
      "name": "WithdrawalUsdtRateUpdated",
      "type": "event"
    },
    {
      "inputs": [],
      "name": "BASIS_POINTS",
      "outputs": [
        {
          "internalType": "uint256",
          "name": "",
          "type": "uint256"
        }
      ],
      "stateMutability": "view",
      "type": "function"
    },
    {
      "inputs": [],
      "name": "BINARY_RATE",
      "outputs": [
        {
          "internalType": "uint256",
          "name": "",
          "type": "uint256"
        }
      ],
      "stateMutability": "view",
      "type": "function"
    },
    {
      "inputs": [],
      "name": "BOARD_10_LIQUIDITY_RATE_BP",
      "outputs": [
        {
          "internalType": "uint256",
          "name": "",
          "type": "uint256"
        }
      ],
      "stateMutability": "view",
      "type": "function"
    },
    {
      "inputs": [],
      "name": "BOARD_10_REWARD_RATE_BP",
      "outputs": [
        {
          "internalType": "uint256",
          "name": "",
          "type": "uint256"
        }
      ],
      "stateMutability": "view",
      "type": "function"
    },
    {
      "inputs": [],
      "name": "BOARD_10_SYSTEM_RATE_BP",
      "outputs": [
        {
          "internalType": "uint256",
          "name": "",
          "type": "uint256"
        }
      ],
      "stateMutability": "view",
      "type": "function"
    },
    {
      "inputs": [],
      "name": "BOARD_LIQUIDITY_RATE_BP",
      "outputs": [
        {
          "internalType": "uint256",
          "name": "",
          "type": "uint256"
        }
      ],
      "stateMutability": "view",
      "type": "function"
    },
    {
      "inputs": [],
      "name": "BOARD_MEMBERS_REQUIRED",
      "outputs": [
        {
          "internalType": "uint256",
          "name": "",
          "type": "uint256"
        }
      ],
      "stateMutability": "view",
      "type": "function"
    },
    {
      "inputs": [],
      "name": "BOARD_NEXT_POOL_RATE_BP",
      "outputs": [
        {
          "internalType": "uint256",
          "name": "",
          "type": "uint256"
        }
      ],
      "stateMutability": "view",
      "type": "function"
    },
    {
      "inputs": [],
      "name": "BOARD_REWARD_RATE_BP",
      "outputs": [
        {
          "internalType": "uint256",
          "name": "",
          "type": "uint256"
        }
      ],
      "stateMutability": "view",
      "type": "function"
    },
    {
      "inputs": [],
      "name": "BTC_POOL_RATE",
      "outputs": [
        {
          "internalType": "uint256",
          "name": "",
          "type": "uint256"
        }
      ],
      "stateMutability": "view",
      "type": "function"
    },
    {
      "inputs": [],
      "name": "GRACE_PERIOD_DURATION",
      "outputs": [
        {
          "internalType": "uint256",
          "name": "",
          "type": "uint256"
        }
      ],
      "stateMutability": "view",
      "type": "function"
    },
    {
      "inputs": [],
      "name": "INCOME_SPLIT_RATE",
      "outputs": [
        {
          "internalType": "uint256",
          "name": "",
          "type": "uint256"
        }
      ],
      "stateMutability": "view",
      "type": "function"
    },
    {
      "inputs": [],
      "name": "MATCHING_OVERRIDE_RATE",
      "outputs": [
        {
          "internalType": "uint256",
          "name": "",
          "type": "uint256"
        }
      ],
      "stateMutability": "view",
      "type": "function"
    },
    {
      "inputs": [],
      "name": "MAX_USER_ID",
      "outputs": [
        {
          "internalType": "uint256",
          "name": "",
          "type": "uint256"
        }
      ],
      "stateMutability": "view",
      "type": "function"
    },
    {
      "inputs": [],
      "name": "MIN_USER_ID",
      "outputs": [
        {
          "internalType": "uint256",
          "name": "",
          "type": "uint256"
        }
      ],
      "stateMutability": "view",
      "type": "function"
    },
    {
      "inputs": [],
      "name": "PRODUCT_WALLET_RATE",
      "outputs": [
        {
          "internalType": "uint256",
          "name": "",
          "type": "uint256"
        }
      ],
      "stateMutability": "view",
      "type": "function"
    },
    {
      "inputs": [],
      "name": "TOTAL_BOARDS",
      "outputs": [
        {
          "internalType": "uint256",
          "name": "",
          "type": "uint256"
        }
      ],
      "stateMutability": "view",
      "type": "function"
    },
    {
      "inputs": [],
      "name": "WITHDRAWAL_MATCH_POOL_RATE",
      "outputs": [
        {
          "internalType": "uint256",
          "name": "",
          "type": "uint256"
        }
      ],
      "stateMutability": "view",
      "type": "function"
    },
    {
      "inputs": [
        {
          "internalType": "enum MLMContract.Package",
          "name": "_pkg",
          "type": "uint8"
        }
      ],
      "name": "activatePackage",
      "outputs": [],
      "stateMutability": "nonpayable",
      "type": "function"
    },
    {
      "inputs": [
        {
          "internalType": "address",
          "name": "_user",
          "type": "address"
        },
        {
          "internalType": "uint256",
          "name": "_sponsorId",
          "type": "uint256"
        },
        {
          "internalType": "uint256",
          "name": "_binaryParentId",
          "type": "uint256"
        },
        {
          "internalType": "bool",
          "name": "_placeLeft",
          "type": "bool"
        },
        {
          "internalType": "enum MLMContract.Package",
          "name": "_pkg",
          "type": "uint8"
        }
      ],
      "name": "adminActivateUser",
      "outputs": [],
      "stateMutability": "nonpayable",
      "type": "function"
    },
    {
      "inputs": [],
      "name": "adminBinaryWallet",
      "outputs": [
        {
          "internalType": "address",
          "name": "",
          "type": "address"
        }
      ],
      "stateMutability": "view",
      "type": "function"
    },
    {
      "inputs": [
        {
          "internalType": "uint256",
          "name": "",
          "type": "uint256"
        }
      ],
      "name": "allUsers",
      "outputs": [
        {
          "internalType": "address",
          "name": "",
          "type": "address"
        }
      ],
      "stateMutability": "view",
      "type": "function"
    },
    {
      "inputs": [
        {
          "internalType": "uint256",
          "name": "_batchNumber",
          "type": "uint256"
        }
      ],
      "name": "autoDistributeBinaryIncome",
      "outputs": [],
      "stateMutability": "nonpayable",
      "type": "function"
    },
    {
      "inputs": [
        {
          "internalType": "address[]",
          "name": "_users",
          "type": "address[]"
        }
      ],
      "name": "batchFlushGracePeriods",
      "outputs": [],
      "stateMutability": "nonpayable",
      "type": "function"
    },
    {
      "inputs": [],
      "name": "binaryBatchSize",
      "outputs": [
        {
          "internalType": "uint256",
          "name": "",
          "type": "uint256"
        }
      ],
      "stateMutability": "view",
      "type": "function"
    },
    {
      "inputs": [
        {
          "internalType": "uint256",
          "name": "",
          "type": "uint256"
        }
      ],
      "name": "boardCurrentIndex",
      "outputs": [
        {
          "internalType": "uint256",
          "name": "",
          "type": "uint256"
        }
      ],
      "stateMutability": "view",
      "type": "function"
    },
    {
      "inputs": [
        {
          "internalType": "address",
          "name": "",
          "type": "address"
        }
      ],
      "name": "boardEntryCount",
      "outputs": [
        {
          "internalType": "uint256",
          "name": "",
          "type": "uint256"
        }
      ],
      "stateMutability": "view",
      "type": "function"
    },
    {
      "inputs": [
        {
          "internalType": "uint256",
          "name": "",
          "type": "uint256"
        }
      ],
      "name": "boardPrices",
      "outputs": [
        {
          "internalType": "uint256",
          "name": "",
          "type": "uint256"
        }
      ],
      "stateMutability": "view",
      "type": "function"
    },
    {
      "inputs": [
        {
          "internalType": "address",
          "name": "",
          "type": "address"
        }
      ],
      "name": "btcPoolBalance",
      "outputs": [
        {
          "internalType": "uint256",
          "name": "",
          "type": "uint256"
        }
      ],
      "stateMutability": "view",
      "type": "function"
    },
    {
      "inputs": [],
      "name": "btcRewardToken",
      "outputs": [
        {
          "internalType": "contract IERC20",
          "name": "",
          "type": "address"
        }
      ],
      "stateMutability": "view",
      "type": "function"
    },
    {
      "inputs": [],
      "name": "claimBinaryIncome",
      "outputs": [],
      "stateMutability": "nonpayable",
      "type": "function"
    },
    {
      "inputs": [],
      "name": "coinLiquidityAddress",
      "outputs": [
        {
          "internalType": "address",
          "name": "",
          "type": "address"
        }
      ],
      "stateMutability": "view",
      "type": "function"
    },
    {
      "inputs": [
        {
          "internalType": "uint256",
          "name": "",
          "type": "uint256"
        }
      ],
      "name": "dailyCapping",
      "outputs": [
        {
          "internalType": "uint256",
          "name": "",
          "type": "uint256"
        }
      ],
      "stateMutability": "view",
      "type": "function"
    },
    {
      "inputs": [
        {
          "internalType": "uint256",
          "name": "",
          "type": "uint256"
        }
      ],
      "name": "directRates",
      "outputs": [
        {
          "internalType": "uint256",
          "name": "",
          "type": "uint256"
        }
      ],
      "stateMutability": "view",
      "type": "function"
    },
    {
      "inputs": [
        {
          "internalType": "address",
          "name": "",
          "type": "address"
        },
        {
          "internalType": "uint256",
          "name": "",
          "type": "uint256"
        }
      ],
      "name": "directReferrals",
      "outputs": [
        {
          "internalType": "address",
          "name": "",
          "type": "address"
        }
      ],
      "stateMutability": "view",
      "type": "function"
    },
    {
      "inputs": [],
      "name": "enterBoardPool",
      "outputs": [],
      "stateMutability": "nonpayable",
      "type": "function"
    },
    {
      "inputs": [],
      "name": "feeRecipient",
      "outputs": [
        {
          "internalType": "address",
          "name": "",
          "type": "address"
        }
      ],
      "stateMutability": "view",
      "type": "function"
    },
    {
      "inputs": [
        {
          "internalType": "address",
          "name": "_user",
          "type": "address"
        }
      ],
      "name": "flushGracePeriod",
      "outputs": [],
      "stateMutability": "nonpayable",
      "type": "function"
    },
    {
      "inputs": [
        {
          "internalType": "uint256",
          "name": "_userId",
          "type": "uint256"
        }
      ],
      "name": "getAddressByUserId",
      "outputs": [
        {
          "internalType": "address",
          "name": "",
          "type": "address"
        }
      ],
      "stateMutability": "view",
      "type": "function"
    },
    {
      "inputs": [
        {
          "internalType": "address",
          "name": "_user",
          "type": "address"
        }
      ],
      "name": "getBinaryInfo",
      "outputs": [
        {
          "internalType": "uint256",
          "name": "leftBusiness",
          "type": "uint256"
        },
        {
          "internalType": "uint256",
          "name": "rightBusiness",
          "type": "uint256"
        },
        {
          "internalType": "uint256",
          "name": "carryLeft",
          "type": "uint256"
        },
        {
          "internalType": "uint256",
          "name": "carryRight",
          "type": "uint256"
        },
        {
          "internalType": "uint256",
          "name": "todayBinaryIncome",
          "type": "uint256"
        },
        {
          "internalType": "uint256",
          "name": "dailyCap",
          "type": "uint256"
        },
        {
          "internalType": "uint256",
          "name": "claimableBinaryIncome",
          "type": "uint256"
        },
        {
          "internalType": "uint256",
          "name": "binaryDepth",
          "type": "uint256"
        }
      ],
      "stateMutability": "view",
      "type": "function"
    },
    {
      "inputs": [
        {
          "internalType": "uint256",
          "name": "_boardLevel",
          "type": "uint256"
        }
      ],
      "name": "getBoardCurrentIndex",
      "outputs": [
        {
          "internalType": "uint256",
          "name": "",
          "type": "uint256"
        }
      ],
      "stateMutability": "view",
      "type": "function"
    },
    {
      "inputs": [
        {
          "internalType": "uint256",
          "name": "_boardLevel",
          "type": "uint256"
        },
        {
          "internalType": "uint256",
          "name": "_index",
          "type": "uint256"
        }
      ],
      "name": "getBoardMatrixInfo",
      "outputs": [
        {
          "internalType": "address",
          "name": "owner",
          "type": "address"
        },
        {
          "internalType": "uint256",
          "name": "filledCount",
          "type": "uint256"
        },
        {
          "internalType": "bool",
          "name": "completed",
          "type": "bool"
        }
      ],
      "stateMutability": "view",
      "type": "function"
    },
    {
      "inputs": [
        {
          "internalType": "uint256",
          "name": "_boardLevel",
          "type": "uint256"
        }
      ],
      "name": "getBoardPrice",
      "outputs": [
        {
          "internalType": "uint256",
          "name": "",
          "type": "uint256"
        }
      ],
      "stateMutability": "view",
      "type": "function"
    },
    {
      "inputs": [
        {
          "internalType": "uint256",
          "name": "_boardLevel",
          "type": "uint256"
        }
      ],
      "name": "getBoardQueueLength",
      "outputs": [
        {
          "internalType": "uint256",
          "name": "",
          "type": "uint256"
        }
      ],
      "stateMutability": "view",
      "type": "function"
    },
    {
      "inputs": [
        {
          "internalType": "address",
          "name": "_user",
          "type": "address"
        }
      ],
      "name": "getBtcPoolBalance",
      "outputs": [
        {
          "internalType": "uint256",
          "name": "",
          "type": "uint256"
        }
      ],
      "stateMutability": "view",
      "type": "function"
    },
    {
      "inputs": [],
      "name": "getContractBalance",
      "outputs": [
        {
          "internalType": "uint256",
          "name": "",
          "type": "uint256"
        }
      ],
      "stateMutability": "view",
      "type": "function"
    },
    {
      "inputs": [
        {
          "internalType": "address",
          "name": "_user",
          "type": "address"
        }
      ],
      "name": "getDirectReferrals",
      "outputs": [
        {
          "internalType": "address[]",
          "name": "",
          "type": "address[]"
        }
      ],
      "stateMutability": "view",
      "type": "function"
    },
    {
      "inputs": [
        {
          "internalType": "address",
          "name": "_user",
          "type": "address"
        },
        {
          "internalType": "uint256",
          "name": "_offset",
          "type": "uint256"
        },
        {
          "internalType": "uint256",
          "name": "_limit",
          "type": "uint256"
        }
      ],
      "name": "getDirectReferralsPaginated",
      "outputs": [
        {
          "internalType": "address[]",
          "name": "referrals",
          "type": "address[]"
        },
        {
          "internalType": "uint256",
          "name": "total",
          "type": "uint256"
        }
      ],
      "stateMutability": "view",
      "type": "function"
    },
    {
      "inputs": [
        {
          "internalType": "address",
          "name": "_user",
          "type": "address"
        }
      ],
      "name": "getIncomeInfo",
      "outputs": [
        {
          "internalType": "uint256",
          "name": "totalDirectIncome",
          "type": "uint256"
        },
        {
          "internalType": "uint256",
          "name": "totalBinaryIncome",
          "type": "uint256"
        },
        {
          "internalType": "uint256",
          "name": "totalMatchingOverrideIncome",
          "type": "uint256"
        },
        {
          "internalType": "uint256",
          "name": "totalWithdrawalMatchIncome",
          "type": "uint256"
        },
        {
          "internalType": "uint256",
          "name": "totalEarnings",
          "type": "uint256"
        },
        {
          "internalType": "uint256",
          "name": "totalWithdrawn",
          "type": "uint256"
        },
        {
          "internalType": "uint256",
          "name": "maxIncome",
          "type": "uint256"
        }
      ],
      "stateMutability": "view",
      "type": "function"
    },
    {
      "inputs": [
        {
          "internalType": "enum MLMContract.Package",
          "name": "_pkg",
          "type": "uint8"
        }
      ],
      "name": "getMaxIncomeLimit",
      "outputs": [
        {
          "internalType": "uint256",
          "name": "",
          "type": "uint256"
        }
      ],
      "stateMutability": "view",
      "type": "function"
    },
    {
      "inputs": [
        {
          "internalType": "enum MLMContract.Package",
          "name": "_pkg",
          "type": "uint8"
        }
      ],
      "name": "getPackagePrice",
      "outputs": [
        {
          "internalType": "uint256",
          "name": "",
          "type": "uint256"
        }
      ],
      "stateMutability": "view",
      "type": "function"
    },
    {
      "inputs": [
        {
          "internalType": "address",
          "name": "_user",
          "type": "address"
        }
      ],
      "name": "getProfile",
      "outputs": [
        {
          "internalType": "string",
          "name": "displayName",
          "type": "string"
        },
        {
          "internalType": "string",
          "name": "email",
          "type": "string"
        },
        {
          "internalType": "string",
          "name": "phone",
          "type": "string"
        },
        {
          "internalType": "string",
          "name": "country",
          "type": "string"
        },
        {
          "internalType": "bool",
          "name": "profileSet",
          "type": "bool"
        }
      ],
      "stateMutability": "view",
      "type": "function"
    },
    {
      "inputs": [],
      "name": "getTotalBatches",
      "outputs": [
        {
          "internalType": "uint256",
          "name": "",
          "type": "uint256"
        }
      ],
      "stateMutability": "view",
      "type": "function"
    },
    {
      "inputs": [],
      "name": "getTotalUsers",
      "outputs": [
        {
          "internalType": "uint256",
          "name": "",
          "type": "uint256"
        }
      ],
      "stateMutability": "view",
      "type": "function"
    },
    {
      "inputs": [
        {
          "internalType": "uint256",
          "name": "_index",
          "type": "uint256"
        }
      ],
      "name": "getUserByIndex",
      "outputs": [
        {
          "internalType": "address",
          "name": "",
          "type": "address"
        }
      ],
      "stateMutability": "view",
      "type": "function"
    },
    {
      "inputs": [
        {
          "internalType": "address",
          "name": "_user",
          "type": "address"
        }
      ],
      "name": "getUserIdByAddress",
      "outputs": [
        {
          "internalType": "uint256",
          "name": "",
          "type": "uint256"
        }
      ],
      "stateMutability": "view",
      "type": "function"
    },
    {
      "inputs": [
        {
          "internalType": "address",
          "name": "_user",
          "type": "address"
        }
      ],
      "name": "getUserInfo",
      "outputs": [
        {
          "internalType": "uint256",
          "name": "userId",
          "type": "uint256"
        },
        {
          "internalType": "address",
          "name": "sponsor",
          "type": "address"
        },
        {
          "internalType": "address",
          "name": "binaryParent",
          "type": "address"
        },
        {
          "internalType": "address",
          "name": "leftChild",
          "type": "address"
        },
        {
          "internalType": "address",
          "name": "rightChild",
          "type": "address"
        },
        {
          "internalType": "enum MLMContract.Side",
          "name": "placementSide",
          "type": "uint8"
        },
        {
          "internalType": "enum MLMContract.Package",
          "name": "userPackage",
          "type": "uint8"
        },
        {
          "internalType": "enum MLMContract.Status",
          "name": "status",
          "type": "uint8"
        },
        {
          "internalType": "uint256",
          "name": "walletBalance",
          "type": "uint256"
        },
        {
          "internalType": "uint256",
          "name": "tempWalletBalance",
          "type": "uint256"
        },
        {
          "internalType": "uint256",
          "name": "totalEarnings",
          "type": "uint256"
        },
        {
          "internalType": "uint256",
          "name": "directReferralCount",
          "type": "uint256"
        },
        {
          "internalType": "uint256",
          "name": "joinedAt",
          "type": "uint256"
        }
      ],
      "stateMutability": "view",
      "type": "function"
    },
    {
      "inputs": [
        {
          "internalType": "address",
          "name": "_user",
          "type": "address"
        }
      ],
      "name": "getUserTransactionCount",
      "outputs": [
        {
          "internalType": "uint256",
          "name": "",
          "type": "uint256"
        }
      ],
      "stateMutability": "view",
      "type": "function"
    },
    {
      "inputs": [
        {
          "internalType": "address",
          "name": "_user",
          "type": "address"
        },
        {
          "internalType": "uint256",
          "name": "_offset",
          "type": "uint256"
        },
        {
          "internalType": "uint256",
          "name": "_limit",
          "type": "uint256"
        }
      ],
      "name": "getUserTransactionsPaginated",
      "outputs": [
        {
          "internalType": "enum MLMContract.TxType[]",
          "name": "txTypes",
          "type": "uint8[]"
        },
        {
          "internalType": "uint256[]",
          "name": "amounts",
          "type": "uint256[]"
        },
        {
          "internalType": "uint256[]",
          "name": "timestamps",
          "type": "uint256[]"
        },
        {
          "internalType": "address[]",
          "name": "relatedUsers",
          "type": "address[]"
        },
        {
          "internalType": "uint8[]",
          "name": "extraDatas",
          "type": "uint8[]"
        },
        {
          "internalType": "uint256",
          "name": "total",
          "type": "uint256"
        }
      ],
      "stateMutability": "view",
      "type": "function"
    },
    {
      "inputs": [
        {
          "internalType": "address",
          "name": "",
          "type": "address"
        }
      ],
      "name": "isBinaryProcessor",
      "outputs": [
        {
          "internalType": "bool",
          "name": "",
          "type": "bool"
        }
      ],
      "stateMutability": "view",
      "type": "function"
    },
    {
      "inputs": [
        {
          "internalType": "address",
          "name": "",
          "type": "address"
        }
      ],
      "name": "isFreeAccount",
      "outputs": [
        {
          "internalType": "bool",
          "name": "",
          "type": "bool"
        }
      ],
      "stateMutability": "view",
      "type": "function"
    },
    {
      "inputs": [
        {
          "internalType": "address",
          "name": "",
          "type": "address"
        }
      ],
      "name": "isRegistered",
      "outputs": [
        {
          "internalType": "bool",
          "name": "",
          "type": "bool"
        }
      ],
      "stateMutability": "view",
      "type": "function"
    },
    {
      "inputs": [],
      "name": "mToken",
      "outputs": [
        {
          "internalType": "contract IERC20",
          "name": "",
          "type": "address"
        }
      ],
      "stateMutability": "view",
      "type": "function"
    },
    {
      "inputs": [
        {
          "internalType": "uint256",
          "name": "",
          "type": "uint256"
        }
      ],
      "name": "matchingOverrideMaxLevels",
      "outputs": [
        {
          "internalType": "uint256",
          "name": "",
          "type": "uint256"
        }
      ],
      "stateMutability": "view",
      "type": "function"
    },
    {
      "inputs": [
        {
          "internalType": "uint256",
          "name": "",
          "type": "uint256"
        }
      ],
      "name": "maxIncomeLimit",
      "outputs": [
        {
          "internalType": "uint256",
          "name": "",
          "type": "uint256"
        }
      ],
      "stateMutability": "view",
      "type": "function"
    },
    {
      "inputs": [],
      "name": "owner",
      "outputs": [
        {
          "internalType": "address",
          "name": "",
          "type": "address"
        }
      ],
      "stateMutability": "view",
      "type": "function"
    },
    {
      "inputs": [
        {
          "internalType": "uint256",
          "name": "",
          "type": "uint256"
        }
      ],
      "name": "packagePrices",
      "outputs": [
        {
          "internalType": "uint256",
          "name": "",
          "type": "uint256"
        }
      ],
      "stateMutability": "view",
      "type": "function"
    },
    {
      "inputs": [],
      "name": "pause",
      "outputs": [],
      "stateMutability": "nonpayable",
      "type": "function"
    },
    {
      "inputs": [],
      "name": "paused",
      "outputs": [
        {
          "internalType": "bool",
          "name": "",
          "type": "bool"
        }
      ],
      "stateMutability": "view",
      "type": "function"
    },
    {
      "inputs": [],
      "name": "paymentToken",
      "outputs": [
        {
          "internalType": "contract IERC20",
          "name": "",
          "type": "address"
        }
      ],
      "stateMutability": "view",
      "type": "function"
    },
    {
      "inputs": [],
      "name": "productWallet",
      "outputs": [
        {
          "internalType": "address",
          "name": "",
          "type": "address"
        }
      ],
      "stateMutability": "view",
      "type": "function"
    },
    {
      "inputs": [
        {
          "internalType": "enum MLMContract.Package",
          "name": "_pkg",
          "type": "uint8"
        }
      ],
      "name": "reactivate",
      "outputs": [],
      "stateMutability": "nonpayable",
      "type": "function"
    },
    {
      "inputs": [
        {
          "internalType": "address",
          "name": "_token",
          "type": "address"
        },
        {
          "internalType": "address",
          "name": "_to",
          "type": "address"
        },
        {
          "internalType": "uint256",
          "name": "_amount",
          "type": "uint256"
        }
      ],
      "name": "recoverToken",
      "outputs": [],
      "stateMutability": "nonpayable",
      "type": "function"
    },
    {
      "inputs": [
        {
          "internalType": "uint256",
          "name": "_sponsorId",
          "type": "uint256"
        },
        {
          "internalType": "uint256",
          "name": "_binaryParentId",
          "type": "uint256"
        },
        {
          "internalType": "bool",
          "name": "_placeLeft",
          "type": "bool"
        }
      ],
      "name": "register",
      "outputs": [],
      "stateMutability": "nonpayable",
      "type": "function"
    },
    {
      "inputs": [],
      "name": "renounceOwnership",
      "outputs": [],
      "stateMutability": "nonpayable",
      "type": "function"
    },
    {
      "inputs": [],
      "name": "repurchase",
      "outputs": [],
      "stateMutability": "nonpayable",
      "type": "function"
    },
    {
      "inputs": [
        {
          "internalType": "address",
          "name": "_wallet",
          "type": "address"
        }
      ],
      "name": "setAdminBinaryWallet",
      "outputs": [],
      "stateMutability": "nonpayable",
      "type": "function"
    },
    {
      "inputs": [
        {
          "internalType": "uint256",
          "name": "_size",
          "type": "uint256"
        }
      ],
      "name": "setBinaryBatchSize",
      "outputs": [],
      "stateMutability": "nonpayable",
      "type": "function"
    },
    {
      "inputs": [
        {
          "internalType": "address",
          "name": "_processor",
          "type": "address"
        },
        {
          "internalType": "bool",
          "name": "_status",
          "type": "bool"
        }
      ],
      "name": "setBinaryProcessor",
      "outputs": [],
      "stateMutability": "nonpayable",
      "type": "function"
    },
    {
      "inputs": [
        {
          "internalType": "uint256",
          "name": "_boardLevel",
          "type": "uint256"
        },
        {
          "internalType": "uint256",
          "name": "_price",
          "type": "uint256"
        }
      ],
      "name": "setBoardPrice",
      "outputs": [],
      "stateMutability": "nonpayable",
      "type": "function"
    },
    {
      "inputs": [
        {
          "internalType": "address",
          "name": "_token",
          "type": "address"
        }
      ],
      "name": "setBtcRewardToken",
      "outputs": [],
      "stateMutability": "nonpayable",
      "type": "function"
    },
    {
      "inputs": [
        {
          "internalType": "address",
          "name": "_addr",
          "type": "address"
        }
      ],
      "name": "setCoinLiquidityAddress",
      "outputs": [],
      "stateMutability": "nonpayable",
      "type": "function"
    },
    {
      "inputs": [
        {
          "internalType": "enum MLMContract.Package",
          "name": "_pkg",
          "type": "uint8"
        },
        {
          "internalType": "uint256",
          "name": "_cap",
          "type": "uint256"
        }
      ],
      "name": "setDailyCapping",
      "outputs": [],
      "stateMutability": "nonpayable",
      "type": "function"
    },
    {
      "inputs": [
        {
          "internalType": "address",
          "name": "_newRecipient",
          "type": "address"
        }
      ],
      "name": "setFeeRecipient",
      "outputs": [],
      "stateMutability": "nonpayable",
      "type": "function"
    },
    {
      "inputs": [
        {
          "internalType": "address",
          "name": "_token",
          "type": "address"
        }
      ],
      "name": "setMToken",
      "outputs": [],
      "stateMutability": "nonpayable",
      "type": "function"
    },
    {
      "inputs": [
        {
          "internalType": "enum MLMContract.Package",
          "name": "_pkg",
          "type": "uint8"
        },
        {
          "internalType": "uint256",
          "name": "_limit",
          "type": "uint256"
        }
      ],
      "name": "setMaxIncomeLimit",
      "outputs": [],
      "stateMutability": "nonpayable",
      "type": "function"
    },
    {
      "inputs": [
        {
          "internalType": "enum MLMContract.Package",
          "name": "_pkg",
          "type": "uint8"
        },
        {
          "internalType": "uint256",
          "name": "_price",
          "type": "uint256"
        }
      ],
      "name": "setPackagePrice",
      "outputs": [],
      "stateMutability": "nonpayable",
      "type": "function"
    },
    {
      "inputs": [
        {
          "internalType": "address",
          "name": "_wallet",
          "type": "address"
        }
      ],
      "name": "setProductWallet",
      "outputs": [],
      "stateMutability": "nonpayable",
      "type": "function"
    },
    {
      "inputs": [
        {
          "internalType": "string",
          "name": "_displayName",
          "type": "string"
        },
        {
          "internalType": "string",
          "name": "_email",
          "type": "string"
        },
        {
          "internalType": "string",
          "name": "_phone",
          "type": "string"
        },
        {
          "internalType": "string",
          "name": "_country",
          "type": "string"
        }
      ],
      "name": "setProfile",
      "outputs": [],
      "stateMutability": "nonpayable",
      "type": "function"
    },
    {
      "inputs": [
        {
          "internalType": "address",
          "name": "_addr",
          "type": "address"
        }
      ],
      "name": "setSystemAddress",
      "outputs": [],
      "stateMutability": "nonpayable",
      "type": "function"
    },
    {
      "inputs": [
        {
          "internalType": "uint256",
          "name": "_feeBasisPoints",
          "type": "uint256"
        }
      ],
      "name": "setWithdrawalFee",
      "outputs": [],
      "stateMutability": "nonpayable",
      "type": "function"
    },
    {
      "inputs": [
        {
          "internalType": "uint256",
          "name": "_rateBasisPoints",
          "type": "uint256"
        }
      ],
      "name": "setWithdrawalUsdtRate",
      "outputs": [],
      "stateMutability": "nonpayable",
      "type": "function"
    },
    {
      "inputs": [],
      "name": "systemAddress",
      "outputs": [
        {
          "internalType": "address",
          "name": "",
          "type": "address"
        }
      ],
      "stateMutability": "view",
      "type": "function"
    },
    {
      "inputs": [],
      "name": "tokenDecimals",
      "outputs": [
        {
          "internalType": "uint8",
          "name": "",
          "type": "uint8"
        }
      ],
      "stateMutability": "view",
      "type": "function"
    },
    {
      "inputs": [],
      "name": "totalBinaryFlushed",
      "outputs": [
        {
          "internalType": "uint256",
          "name": "",
          "type": "uint256"
        }
      ],
      "stateMutability": "view",
      "type": "function"
    },
    {
      "inputs": [
        {
          "internalType": "address",
          "name": "newOwner",
          "type": "address"
        }
      ],
      "name": "transferOwnership",
      "outputs": [],
      "stateMutability": "nonpayable",
      "type": "function"
    },
    {
      "inputs": [],
      "name": "unpause",
      "outputs": [],
      "stateMutability": "nonpayable",
      "type": "function"
    },
    {
      "inputs": [
        {
          "internalType": "address",
          "name": "_token",
          "type": "address"
        },
        {
          "internalType": "uint8",
          "name": "_decimals",
          "type": "uint8"
        }
      ],
      "name": "updatePaymentToken",
      "outputs": [],
      "stateMutability": "nonpayable",
      "type": "function"
    },
    {
      "inputs": [
        {
          "internalType": "uint256",
          "name": "",
          "type": "uint256"
        }
      ],
      "name": "userIdTaken",
      "outputs": [
        {
          "internalType": "bool",
          "name": "",
          "type": "bool"
        }
      ],
      "stateMutability": "view",
      "type": "function"
    },
    {
      "inputs": [
        {
          "internalType": "uint256",
          "name": "",
          "type": "uint256"
        }
      ],
      "name": "userIdToAddress",
      "outputs": [
        {
          "internalType": "address",
          "name": "",
          "type": "address"
        }
      ],
      "stateMutability": "view",
      "type": "function"
    },
    {
      "inputs": [
        {
          "internalType": "address",
          "name": "",
          "type": "address"
        }
      ],
      "name": "users",
      "outputs": [
        {
          "internalType": "uint256",
          "name": "userId",
          "type": "uint256"
        },
        {
          "internalType": "address",
          "name": "sponsor",
          "type": "address"
        },
        {
          "internalType": "address",
          "name": "binaryParent",
          "type": "address"
        },
        {
          "internalType": "address",
          "name": "leftChild",
          "type": "address"
        },
        {
          "internalType": "address",
          "name": "rightChild",
          "type": "address"
        },
        {
          "internalType": "enum MLMContract.Side",
          "name": "placementSide",
          "type": "uint8"
        },
        {
          "internalType": "enum MLMContract.Package",
          "name": "userPackage",
          "type": "uint8"
        },
        {
          "internalType": "enum MLMContract.Status",
          "name": "status",
          "type": "uint8"
        },
        {
          "internalType": "uint256",
          "name": "walletBalance",
          "type": "uint256"
        },
        {
          "internalType": "uint256",
          "name": "tempWalletBalance",
          "type": "uint256"
        },
        {
          "internalType": "uint256",
          "name": "totalDirectIncome",
          "type": "uint256"
        },
        {
          "internalType": "uint256",
          "name": "totalBinaryIncome",
          "type": "uint256"
        },
        {
          "internalType": "uint256",
          "name": "totalMatchingOverrideIncome",
          "type": "uint256"
        },
        {
          "internalType": "uint256",
          "name": "totalWithdrawalMatchIncome",
          "type": "uint256"
        },
        {
          "internalType": "uint256",
          "name": "totalEarnings",
          "type": "uint256"
        },
        {
          "internalType": "uint256",
          "name": "leftBusiness",
          "type": "uint256"
        },
        {
          "internalType": "uint256",
          "name": "rightBusiness",
          "type": "uint256"
        },
        {
          "internalType": "uint256",
          "name": "carryLeft",
          "type": "uint256"
        },
        {
          "internalType": "uint256",
          "name": "carryRight",
          "type": "uint256"
        },
        {
          "internalType": "uint256",
          "name": "todayBinaryIncome",
          "type": "uint256"
        },
        {
          "internalType": "uint256",
          "name": "lastBinaryResetDay",
          "type": "uint256"
        },
        {
          "internalType": "uint256",
          "name": "directReferralCount",
          "type": "uint256"
        },
        {
          "internalType": "uint256",
          "name": "gracePeriodStart",
          "type": "uint256"
        },
        {
          "internalType": "uint256",
          "name": "joinedAt",
          "type": "uint256"
        },
        {
          "internalType": "uint256",
          "name": "totalWithdrawn",
          "type": "uint256"
        },
        {
          "internalType": "uint256",
          "name": "claimableBinaryIncome",
          "type": "uint256"
        },
        {
          "internalType": "uint256",
          "name": "binaryDepth",
          "type": "uint256"
        },
        {
          "internalType": "string",
          "name": "displayName",
          "type": "string"
        },
        {
          "internalType": "string",
          "name": "email",
          "type": "string"
        },
        {
          "internalType": "string",
          "name": "phone",
          "type": "string"
        },
        {
          "internalType": "string",
          "name": "country",
          "type": "string"
        },
        {
          "internalType": "bool",
          "name": "profileSet",
          "type": "bool"
        }
      ],
      "stateMutability": "view",
      "type": "function"
    },
    {
      "inputs": [
        {
          "internalType": "uint256",
          "name": "_amount",
          "type": "uint256"
        }
      ],
      "name": "withdraw",
      "outputs": [],
      "stateMutability": "nonpayable",
      "type": "function"
    },
    {
      "inputs": [
        {
          "internalType": "address",
          "name": "_to",
          "type": "address"
        },
        {
          "internalType": "uint256",
          "name": "_amount",
          "type": "uint256"
        }
      ],
      "name": "withdrawContractFunds",
      "outputs": [],
      "stateMutability": "nonpayable",
      "type": "function"
    },
    {
      "inputs": [],
      "name": "withdrawalFee",
      "outputs": [
        {
          "internalType": "uint256",
          "name": "",
          "type": "uint256"
        }
      ],
      "stateMutability": "view",
      "type": "function"
    },
    {
      "inputs": [
        {
          "internalType": "uint256",
          "name": "",
          "type": "uint256"
        }
      ],
      "name": "withdrawalMatchMaxLevels",
      "outputs": [
        {
          "internalType": "uint256",
          "name": "",
          "type": "uint256"
        }
      ],
      "stateMutability": "view",
      "type": "function"
    },
    {
      "inputs": [],
      "name": "withdrawalUsdtRate",
      "outputs": [
        {
          "internalType": "uint256",
          "name": "",
          "type": "uint256"
        }
      ],
      "stateMutability": "view",
      "type": "function"
    }
  ],
  "bytecode": "0x608034620005bb57601f6200658038819003918201601f19168301916001600160401b03831184841017620005c057808492608094604052833981010312620005bb576200004d81620005f6565b90602081015160ff81168103620005bb576200007a60606200007260408501620005f6565b9301620005f6565b923315620005a25760008054336001600160a01b0319821681178355916001600160a01b03909116907f8be0079c531659141344cd1fd0a4f28419497f9722a3daafe3b4186f6b6457e09080a360017f9b779b17422d0df92223018b32b4d1fa46e071723d6817e2486d003becc55f00556127106006556032600e5562000100620005d6565b600081526103e860208201526105dc60408201526107d060608201526109c46080820152610bb860a082015260005b600681106200058857505062000144620005d6565b600081526003602082015260066040820152600a6060820152600f6080820152601460a082015260005b600681106200056f57505062000183620005d6565b60008152600360208201526005604082015260096060820152600c6080820152600f60a082015260005b60068110620005565750506001600160a01b03169182156200051c576001600160a01b0316928315620004d7576001600160a01b03169182156200049357600180546001600160a01b03199081169290921790556002805460ff60a01b191660a084901b60ff60a01b161790556003805482168517905560048054821690941784556024805490911690921782556000600555604d60ff8216116200047f5760ff16600a0a9160006026558260c80260c8810484036200041b578060275561025884810290810485036200046b57806028556104b08581029081048603620004575780602955610960918683029283048703620004435782602a556112c09387850294850488036200042f5784602b5560006032556033556034556035556036556037556000603855826103e8026103e8810484036200041b5760395582610bb802610bb8810484036200041b57603a5561177083810290810484036200041b57603b55612ee083810290810484036200041b57603c55615dc083810290810484036200041b57603d55826032026032810484036200041b576016558260b40260b4810484036200041b5760175561028883810290810484036200041b5760185561091d83810290810484036200041b576019556120ce83810290810484036200041b57601a5561761983810290810484036200041b57601b556201a92783810290810484036200041b57601c556205fa8d83810290810484036200041b57601d55621585fb83810290810484036200041b57601e55624d7bee9280840293840403620004085782601f55604051615f7490816200060c8239f35b601190634e487b7160e01b600052526000fd5b50601190634e487b7160e01b600052526000fd5b86601187634e487b7160e01b600052526000fd5b85601186634e487b7160e01b600052526000fd5b84601185634e487b7160e01b600052526000fd5b83601184634e487b7160e01b600052526000fd5b50634e487b7160e01b600090815260118352fd5b606460405162461bcd60e51b815260206004820152602060248201527f4d4c4d3a20496e76616c69642061646d696e2062696e6172792077616c6c65746044820152fd5b60405162461bcd60e51b815260206004820152601a60248201527f4d4c4d3a20496e76616c69642066656520726563697069656e740000000000006044820152606490fd5b60405162461bcd60e51b815260206004820152601260248201527126a6269d1024b73b30b634b2103a37b5b2b760711b6044820152606490fd5b600190602060ff845116930192816044015501620001ad565b600190602060ff84511693019281603e0155016200016e565b600190602061ffff84511693019281602c0155016200012f565b604051631e4fbdf760e01b815260006004820152602490fd5b600080fd5b634e487b7160e01b600052604160045260246000fd5b6040519060c082016001600160401b03811183821017620005c057604052565b51906001600160a01b0382168203620005bb5756fe6102c0604052600436101561001357600080fd5b6000803560e01c8063012685f4146146545780630327ef491461457e578063048413371461456157806305ad39351461450657806306210197146144915780630b6a9539146144625780630f53a470146143a2578063179bd5c8146108335780631915d956146143185780631cdc545c146142945780631d64e593146142765780632389e78a1461424957806329d7f9eb146141aa5780632a1a5b1b1461418d5780632c2896b31461414e5780632e1888b8146140d55780632e1a7d4d14613a905780632eee563e146136045780633013ce29146135db57806331e1f29b14613506578063385399f91461358c57806339ae9efd146135635780633ac272c2146105ea5780633b97e8561461353f5780633d6bacf3146135065780633f4ba83a146134955780634286064e146134685780634526b4aa1461344a578063463cffe61461340b57806346904840146133e257806347cd5191146133815780634b695586146132e35780634e759962146132c757806355509c8f14612ce3578063556415d914612cc657806357f0140a146129ca5780635a1faeb91461299d5780635c975abb1461297857806361dba5f314611b635780636207f52214612630578063624a893d146126125780636386c1c71461252457806369e94f4d146124af5780636aa6c0ce146122455780636d0364d714611ef15780636e0881da14611b635780636f8760fe146121f85780636f9fb98a146121625780637115bba714611648578063715018a61461211a5780637d4cf0b8146115f45780637feef9d61461206c5780638225757b14611ff35780638456cb5914611f9257806385f8f11b14611f655780638919d5e914611f3c5780638bc7e8c414611f1e5780638d7b569014611ef15780638da5cb5b14611eca57806392167de214611e4657806392446e30146116485780639726b9f214611b685780639898fcd314611b635780639a688a9914611aee5780639be572f614611ad0578063a2bdedf414611aa5578063a5c3406114611a88578063a7229fd914611a05578063a87430ba146116e6578063ac1e50251461164d578063ac6c264e14611648578063b0ac46261461162c578063b1695201146115f9578063b2418af8146115f4578063b33dd0c9146115c7578063b882c4d814611552578063bbc18f6f14611534578063befbe97d146114a2578063c24be7fb146111fa578063c3b6f939146111d1578063c3c5a54714611192578063ce0b212214611042578063d117de0314611019578063d2c8e0e514610f86578063d3ba4f9614610f11578063d3e848f114610ee8578063d4a9028614610e7e578063d58c617214610bfb578063d8f3384014610bc2578063d9c842fd14610b89578063d9f9f63f14610a3a578063e1f1c4a714610a1d578063e4093a6614610887578063e561dddc14610864578063e63619a514610833578063e74b981b146107be578063eb63e1c214610794578063ece2bc23146106e2578063ef2c5c50146106c2578063f00b00931461068a578063f2fde38b14610614578063f3b36bf8146105ea578063fc3c8a0c146105c1578063fc4a36f6146105a5578063fdc65d6e146104f35763ff5d32fe146104ac57600080fd5b346104f05760203660031901126104f05760206104d76004356104d2600b548210615be6565b61481c565b905460405160039290921b1c6001600160a01b03168152f35b80fd5b50346104f057610502366148b5565b9061050b614afc565b60068110158061059157600182101580610583575b61052990614ebf565b61056f5790816105697f36152e7515aada41257500317963ea57c35904a845e67c595f4e110377a08f209360260192808454945560405193849384615e3f565b0390a180f35b634e487b7160e01b83526021600452602483fd5b508390506005821115610520565b634e487b7160e01b84526021600452602484fd5b50346104f057806003193601126104f057602060405160648152f35b50346104f057806003193601126104f0576004546040516001600160a01b039091168152602090f35b50346104f05760203660031901126104f05760406020916004358152601483522054604051908152f35b50346104f05760203660031901126104f05761062e614751565b610636614afc565b6001600160a01b03908116908115610671576000548260018060a01b031982161760005516600080516020615edf833981519152600080a380f35b604051631e4fbdf760e01b815260048101849052602490fd5b50346104f05760203660031901126104f0576020906040906001600160a01b036106b2614751565b1681528280522054604051908152f35b50346104f057806003193601126104f057602060405164e8d4a50fff8152f35b50346104f05760203660031901126104f0576001600160a01b03610704614751565b168152600760205260408120600c81015490600d81015490600e810154600f82015460108301549060ff600485015460a81c16600681101561078057610100975060320154926017601686015495015495604051978852602088015260408701526060860152608085015260a084015260c083015260e0820152f35b634e487b7160e01b88526021600452602488fd5b50346104f05760203660031901126104f05760406020916004358152601383522054604051908152f35b50346104f05760203660031901126104f0576107d8614751565b6107e0614afc565b6001600160a01b03908116906107f7821515615dfc565b600380546001600160a01b031981168417909155167faaebcf1bfa00580e41d966056b48521fa9f202645c86d4ddf28113e617c1b1d38380a380f35b50346104f05760203660031901126104f05760043560068110156108605760209060260154604051908152f35b5080fd5b50346104f057806003193601126104f057602061087f615e5c565b604051908152f35b50346104f057806003193601126104f0576108a0615177565b6108a8614cbe565b336000526020600881526108c360ff60406000205416614e7d565b3360005260078152600160ff60046040600020015460b01c166108e581614946565b1480156109ef575b6108f690615454565b6016543360005260128252806040600020541061099f579061097f913360005260128252604060002061092a828254614cee565b90553360005281805260406000206109428154614caf565b905533600052600c82526040600020906040519261095f846149e7565b600884528301524260408301526000606083015260016080830152614f6e565b61098a6001336155c7565b6001600080516020615f1f8339815191525580f35b60405162461bcd60e51b815260048101839052602260248201527f4d4c4d3a20496e73756666696369656e742042544320706f6f6c2062616c616e604482015261636560f01b6064820152608490fd5b5033600052600781526108f6600260ff60046040600020015460b01c16610a1581614946565b1490506108ed565b50346104f057806003193601126104f05760206040516127108152f35b50346104f057602090816003193601126104f057610a56614751565b610a5e614afc565b6001600160a01b0316808252600883526040822054610a7f9060ff16614e7d565b80825260078352604082209260048401805490600260ff8360b01c16610aa481614946565b03610b495760138601546202a3008101809111610b3557421115610af0576006600080516020615eff8339815191529495960191868354935560ff60b01b19169055604051908152a280f35b60405162461bcd60e51b815260048101849052601d60248201527f4d4c4d3a20477261636520706572696f64206e6f7420657870697265640000006044820152606490fd5b634e487b7160e01b86526011600452602486fd5b60405162461bcd60e51b81526004810184905260186024820152771353134e88139bdd081a5b8819dc9858d9481c195c9a5bd960421b6044820152606490fd5b50346104f057610bb8610ba4610b9e36614767565b91615b32565b6040519283926040845260408401906147c5565b9060208301520390f35b50346104f05760203660031901126104f0576020906040906001600160a01b03610bea614751565b168152600c83522054604051908152f35b50346104f057806003193601126104f057610c14615177565b610c1c614cbe565b33815260209060088252610c3660ff604083205416614e7d565b3381526007825260408120916004830190815460ff8160b01c16610c5981614946565b8015908115610e6a575b5015610e2d5760a81c60ff1660068110156105915760018110610de857602601549160018060a01b0394610c9f8487600154163090339061510a565b846010600160b01b60ff60b01b19855416179283855582600b8201558260068201558260138201550155338552600c835260ff604086209160a81c16906006821015610dd45791610d1960ff92869460405191610cfb836149e7565b89835286888401524260408401528960608401526080830152614f6e565b5460a81c1691610d2c6040518094614966565b8201527f0f71a293b26be95a1c2120e73a1712c62b20f254ae47eff7f6e799402984e6ab60403392a261177092838202938285041482151715610dc057610d7c61271061098a9495048093614cee565b816004541680151580610db7575b610da2575b505050610d9c81336151a7565b336152d2565b610daf9260015416615089565b388080610d8f565b50811515610d8a565b634e487b7160e01b83526011600452602483fd5b634e487b7160e01b86526021600452602486fd5b60405162461bcd60e51b815260048101839052601d60248201527f4d4c4d3a204e6f207061636b61676520746f20726570757263686173650000006044820152606490fd5b60405162461bcd60e51b81526004810183905260156024820152744d4c4d3a204d75737420626520696e61637469766560581b6044820152606490fd5b60029150610e7781614946565b1438610c63565b50346104f057610eba6060916040610e95366148e6565b92908082526013602052610ead838320548510615be6565b8152601360205220615549565b5060018060a01b038154169060ff600260018301549201541690604051928352602083015215156040820152f35b50346104f057806003193601126104f0576022546040516001600160a01b039091168152602090f35b50346104f05760203660031901126104f057610f2b614751565b610f33614afc565b6001600160a01b0390811690610f4a821515615dfc565b602180546001600160a01b031981168417909155167fa7c779d548c89203218d67c4edad36548c004c80be74e26b2cbb667625b2ee1b8380a380f35b50346104f057602080600319360112610860576001600160a01b039182610fab614751565b168152600a8252604081209260405193848592858354928381520192855285852094905b86838310610ffd578590610fe582870383614a33565b610ff96040519282849384528301906147c5565b0390f35b8654821685526001968701968996509401939190910190610fcf565b50346104f057806003193601126104f0576024546040516001600160a01b039091168152602090f35b50346104f05760208060031936011261086057600435906001600160401b039081831161118e573660238401121561118e57826004013591821161118e576024926005368585831b8401011161118a5761109a614afc565b855b8481106110a7578680f35b80821b83018601356001600160a01b03811690819003611186578088526008855260ff8060408a2054161561117b576007865260408920906004820160028154928360b01c166110f681614946565b0361116e5760138301546202a300810180911161115b5791889161114c96959493421115611151576006600080516020615eff8339815191529401918d8354935560ff60b01b19169055604051908152a2614caf565b61109c565b5050505050614caf565b634e487b7160e01b8c5260116004528a8cfd5b5050505061114c90614caf565b505061114c90614caf565b8780fd5b8580fd5b8380fd5b50346104f05760203660031901126104f05760209060ff906040906001600160a01b036111bd614751565b168152600884522054166040519015158152f35b50346104f057806003193601126104f0576002546040516001600160a01b039091168152602090f35b50346104f05760603660031901126104f057604435602435811515820361149d57611223614cbe565b3383526020916008835261123e60ff60408620541615614b28565b600b546113f2575050818291835b611254614cfb565b91828652601081526040862060ff1990600182825416179055600f82526040872060018060a01b03199033828254161790553388526007835260408820858155600181019660018060a01b03809116978884825416179055600282019816978883825416179055600481016112c98682614c00565b805460ff60b01b191690554260148201558715801591906113e957888a5260078552601760408b200154600181018091116113d557601790915b015561138a575b5084611357575b338752600882526001604088209182541617905561132e33614c55565b60405192835261133d82614946565b820152600080516020615ebf83398151915260403392a480f35b848752600a825261136b3360408920614c92565b84875260078252601260408820016113838154614caf565b9055611311565b61139384614946565b600184036113b95786885260078352600360408920019033908254161790555b3861130a565b86885260078352600460408920019033908254161790556113b3565b634e487b7160e01b8b52601160045260248bfd5b60178a91611303565b6004358452600f835260408420546001600160a01b039081169283151580611488575b61141e90614b6e565b8061144f57505081905b1561143e5761143690614e51565b91600161124c565b61144790614e20565b91600261124c565b8552600f84526040852054169081151580611473575b61146e90614bb4565b611428565b5081855260088452604085205460ff16611465565b5083865260088552604086205460ff16611415565b600080fd5b50346104f05760203660031901126104f0576001600160a01b036114c4614751565b1681526007602052604081206007810154906008810154906009810154600a820154600b8301549160ff6004601586015495015460a81c1660068110156107805760e097506038015494604051968752602087015260408601526060850152608084015260a083015260c0820152f35b50346104f057806003193601126104f05760206040516202a3008152f35b50346104f05760203660031901126104f05761156c614751565b611574614afc565b6001600160a01b039081169061158b821515615dfc565b600280546001600160a01b031981168417909155167ffa56beaa7224e963963fc4c47c38a66d9813310693d7bb15814ea8e39b3351848380a380f35b50346104f05760203660031901126104f05760043560068110156108605760209060440154604051908152f35b614990565b50346104f05760203660031901126104f0576020906004358152600f8252604060018060a01b0391205416604051908152f35b50346104f057806003193601126104f0576020604051600a8152f35b614973565b50346104f05760203660031901126104f05760043561166a614afc565b6107d081116116ad5760407f72aa1ef4707dfa7defd1468e6ffc70bf9517ce19e3afad93fcf4be42f2d494f591600554908060055582519182526020820152a180f35b60405162461bcd60e51b815260206004820152601160248201527009a989a74408ccaca40e8dede40d0d2ced607b1b6044820152606490fd5b50346104f05760203660031901126104f057600f600e600d600c600b600a600960086007600660ff600560046117f3604060189f60018060a01b03611729614751565b16815287602052209e8f9e8f9e8f9e8f9e8f9e8f9e8f9e8f9e8f9e8f9e8f9d8e9d8e80610120528054610280526001808060a01b03910154169e60018060a01b0360028201541660e05260018060a01b036003820154166102605201549e01549f01549f01549f01549f01549f01549f01549f01549f01549f01549f01549f60108101546101e05260118101546101a0526012810154610180526013810154608052601481015460a052601581015460c05260168101546102405260178101546101405201614a56565b6102205261180660196101205101614a56565b61010052611819601a6101205101614a56565b6101c05261182c601b6101205101614a56565b6102a05282601c61012051015416610160526040518061020052610280519052602061020051015260e051604061020051015261026051606061020051015260018060a01b0381166080610200510152818160a01c1661188b81614946565b60a06102005101526118a860c06102005101838360a81c16614966565b60b01c166118b581614946565b60e06102005101526101006102005101526101206102005101526101406102005101526101606102005101526101806102005101526101a06102005101526101c06102005101526101e0610200510152610200805101526102206102005101526102406102005101526101e0516102606102005101526101a051610280610200510152610180516102a06102005101526080516102c061020051015260a0516102e061020051015260c05161030061020051015261024051610320610200510152610140516103406102005101526119ec6119d66119c06119aa61040080610360610200510152610200510161022051614875565b6102005161038081830391015261010051614875565b610200516103a08183039101526101c051614875565b610200516103c08183039101526102a051614875565b6101605115156103e06102005101526102005180910390f35b50346104f05760603660031901126104f057611a1f614751565b6024356001600160a01b038181169283830361149d577f238062e33e7062c4aeccb2acac43aecc0b1a1ca891a5bc84a689f2272cb39a4391611a7e602092604435928391611a6b614afc565b611a76891515615dfc565b169586615089565b604051908152a380f35b50346104f057806003193601126104f05760206040516107d08152f35b50346104f05760203660031901126104f05760043590600b548210156104f05760206104d78361481c565b50346104f057806003193601126104f0576020600b54604051908152f35b50346104f05760203660031901126104f057611b08614751565b611b10614afc565b6001600160a01b0390811690611b27821515615dfc565b600480546001600160a01b031981168417909155167f21f871938092b6a1ed13c23a49ad1a6fa6867d23d64fa2091bc0aaa90846e7c38380a380f35b614929565b50346104f057602090816003193601126104f0576004359060068210156104f057611b91615177565b611b99614cbe565b33815260088352611bb060ff604083205416614e7d565b3381526007835260408120916004830192835460ff8160b01c16611bd381614946565b60028114908115611e34575b5015611df95760ff90611bf56001851015614ebf565b60a81c166006811015610591578210611dbc57829394826026015493849260018060a01b0397611c2d858a600154163090339061510a565b600260ff825460b01c16611c4081614946565b14611d16575b90601091836006830155611c5a8782614f02565b805460ff60b01b1916600160b01b179055600b8101839055601381018390550155338552600c815260408086209051611cb991611c96826149e7565b60028252848483015242604083015287606083015260ff86166080830152614f6e565b611cc66040518094614966565b8201527f0bd98106504d2095c105d0f8fd19c12fb6c359200dcce844743a92dc040cb7b360403392a261177092838202938285041482151715610dc057610d7c61271061098a9495048093614cee565b915091925060138201546202a3008101809111611da85785939287926010924211611d8557600682015460058301611d4f828254614c48565b90556040519081527fc0a2b7349514b2ee49057e2265dcf10bd91be42a7f6a1144164df1f0e303a8eb863392a25b909150611c46565b6006820154604051908152600080516020615eff833981519152863392a2611d7d565b634e487b7160e01b87526011600452602487fd5b60405162461bcd60e51b81526004810186905260156024820152744d4c4d3a2043616e6e6f7420646f776e677261646560581b6044820152606490fd5b60405162461bcd60e51b81526004810187905260136024820152724d4c4d3a20416c72656164792061637469766560681b6044820152606490fd5b9050611e3f81614946565b1538611bdf565b50346104f057611e55366148b5565b90611e5e614afc565b60068110158061059157600182101580611ebc575b611e7c90614ebf565b61056f5790816105697fbc78cc5de16267f0116f5ef65ec3328f2f432bca5e0f8b61e96b880e826d84dd9360380192808454945560405193849384615e3f565b508390506005821115611e73565b50346104f057806003193601126104f057546040516001600160a01b039091168152602090f35b50346104f05760203660031901126104f05760043560068110156108605760209060380154604051908152f35b50346104f057806003193601126104f0576020600554604051908152f35b50346104f057806003193601126104f0576023546040516001600160a01b039091168152602090f35b50346104f05760203660031901126104f057600435600681101561086057602090603e0154604051908152f35b50346104f057806003193601126104f057611fab614afc565b611fb3614cbe565b805460ff60a01b1916600160a01b1781556040513381527f62e78cea01bee320cd4e420270b5ea74000d11b0c9f74754ebdbfc544b05a25890602090a180f35b50346104f05760203660031901126104f0576004358152600f60205260409020546001600160a01b0316801561202e57602090604051908152f35b60405162461bcd60e51b81526020600482015260166024820152751353134e88155cd95c881251081b9bdd08199bdd5b9960521b6044820152606490fd5b50346104f05760203660031901126104f057600435612089614afc565b8015158061210e575b156120d15760407f885769bb3a0a33e49dc7c402b45290f14135af0d201b7b78370457632240fbb191600e549080600e5582519182526020820152a180f35b60405162461bcd60e51b815260206004820152601560248201527404d4c4d3a2042617463682073697a6520312d35303605c1b6044820152606490fd5b506101f4811115612092565b50346104f057806003193601126104f057612133614afc565b600080546001600160a01b0319811682556001600160a01b0316600080516020615edf8339815191528280a380f35b50346104f057806003193601126104f0576001546040516370a0823160e01b815230600482015290602090829060249082906001600160a01b03165afa9081156121ed5782916121b8575b602082604051908152f35b90506020813d82116121e5575b816121d260209383614a33565b81010312610860576020915051386121ad565b3d91506121c5565b6040513d84823e3d90fd5b50346104f05760203660031901126104f057612212614751565b61221a614afc565b6001600160a01b031661222e811515615dfc565b602380546001600160a01b03191691909117905580f35b50346104f057602090816003193601126104f0576004359160068310156108605761226e615177565b612276614cbe565b3382526008815261228d60ff604084205416614e7d565b819260018110158061249f575b6122a390614ebf565b33835260078252604083209361056f57600484019160ff835460a81c16600681101561243b5782111561244f5781602601549284601060018060a01b03976122f3878a600154163090339061510a565b60ff845460a81c16936123068782614f02565b600160b01b60ff60b01b1982541617905582600b8201558260068201558260138201550155600681101561243b57839190806123b05750338552600c815261237c6040862060405190612358826149e7565b6000825284848301524260408301526000606083015260ff86166080830152614f6e565b610d2c6040518094614966565b61177092838202938285041482151715610dc057610d7c61271061098a9495048093614cee565b929061240a9250338652600c81526123f560408720604051906123d2826149e7565b60018252878483015242604083015288606083015260ff85166080830152614f6e565b6124026040518095614966565b830190614966565b8160408201527f6dc34d0522e29b7d7beda15504a00195317702b99a528054d4be53e1ea331b6d60603392a2612389565b634e487b7160e01b85526021600452602485fd5b6084906040519062461bcd60e51b82526004820152602360248201527f4d4c4d3a204d757374207570677261646520746f20686967686572207061636b60448201526261676560e81b6064820152fd5b509192508291600581111561229a565b50346104f05760203660031901126104f0576124c9614751565b6124d1614afc565b6001600160a01b03908116906124e8821515615dfc565b602480546001600160a01b031981168417909155167fcb9bcd5e87ec5de7c4b31036687bd221c8e20f2ecf6fce472ac73a211f2a3cdc8380a380f35b50346104f05760203660031901126104f0576101a0906001600160a01b03906040908261254f614751565b1681526007602052209081549181600182015416918060028301541690806003840154169060048401546125e460ff8260a01c169160ff8160b01c1692600588015494600689015496600b8a015498601460128c01549b01549b60206040519e8f908152015260408d015260608c0152821660808b01526125cf81614946565b60a08a015260ff60c08a019160a81c16614966565b6125ed81614946565b60e0870152610100860152610120850152610140840152610160830152610180820152f35b50346104f057806003193601126104f0576020600654604051908152f35b50346104f05760a03660031901126104f05761264a614751565b906044359160643590811515820361297457608435600681101561118e57612670614afc565b612678614cbe565b6001600160a01b038281169261268f841515615dfc565b838652602091600883526126aa60ff60408920541615614b28565b6001918285101580612969575b6126c090614ebf565b600b5415612930578798602498969798358752600f8552826040882054169889918215158061291b575b6126f390614b6e565b806128e1575081905b156128ce5761270a90614e51565b938881945b6017604061271b614cfb565b9b8c9384825260108c528282209760ff1998888a825416179055600f8d528383209660018060a01b0319978189825416179055835260078d528383209586558786019087825416179055600285019a16998a86825416179055600484016127828a82614c00565b61278c8d82614f02565b805460ff60b01b1916600160b01b17905542601485015589815260078b52200154838101919082106128ba576040999661287f8f978f96978f96987f92c194e247c6d4e26ac54d4f751a001bb786b7fd20039047255e4b5327aec9f49f9d9a8f96908e9b6128a09f8e600791600080516020615ebf8339815191529c60178d9701556128178b614946565b8a87036128a4578452528a600384842001918254161790555b8a8152600a8d5261284385838320614c92565b8a815260078d5260128282200161285a8154614caf565b905589815260088d52818120838582541617905560098d522091825416179055614c55565b8151908a825261288e81614946565b87820152a48451938452830190614966565ba380f35b8452528a60048484200191825416179055612830565b634e487b7160e01b8e52601160045260248efd5b6128d790614e20565b938860029461270f565b8852600f8652836040892054169081151580612906575b61290190614bb4565b6126fc565b5081895260088752604089205460ff166128f8565b5082895260088752604089205460ff166126ea565b60405162461bcd60e51b815260048101859052601160248201527026a6269d102737903937b7ba103ab9b2b960791b6044820152606490fd5b5060058511156126b7565b8280fd5b50346104f057806003193601126104f05760ff6020915460a01c166040519015158152f35b50346104f05760203660031901126104f057600435600681101561086057602090602c0154604051908152f35b50346104f0576020806003193601126108605760043590338352600d815260ff90816040852054168015612cb3575b15612c7957612a06614cbe565b8215612c35576000198301838111612c2157600e92612a2784548093615076565b93600b549283861015612bdc57612a3e9086614c48565b92808411612bd4575b5091908694925b828410612a8857877f9acb94cd9b9c8b1248d0dc0aa654d4303685379499519790474807198a32904360408989898351928352820152a180f35b90919294612a958661481c565b905460039190911b1c6001600160a01b03168089526007865260408920600481015460b01c8516612ac581614946565b60018114159081612bbf575b50612bb35783810190815491600f8201908154808510600014612bac5784915b8215612b9b57612710612b10612b0a6017880154615420565b85615076565b04958615612b8957947f64e8dd16146649f6743856bb8723dcd7edd0bb0e9b5352620ae83a477aea328394612b5f858f9695601695612b58612b819e9c98612b7b9e9c614cee565b9055614cee565b905501612b6d828254614c48565b9055604051908152a2614caf565b95614caf565b929190612a4e565b505050505050505094612b8190614caf565b5050505050505094612b8190614caf565b8091612af1565b505094612b8190614caf565b60029150612bcc81614946565b141538612ad1565b925038612a47565b60405162461bcd60e51b815260048101869052601e60248201527f4d4c4d3a204261746368206578636565647320746f74616c20757365727300006044820152606490fd5b634e487b7160e01b85526011600452602485fd5b6064906040519062461bcd60e51b82526004820152601d60248201527f4d4c4d3a204261746368206e756d626572206d757374206265203e20300000006044820152fd5b6064906040519062461bcd60e51b8252600482015260136024820152721353134e88139bdd08185d5d1a1bdc9a5e9959606a1b6044820152fd5b5083546001600160a01b031633146129f9565b50346104f057806003193601126104f05760206040516117708152f35b50346104f05760803660031901126104f0576004356001600160401b03811161086057612d149036906004016148fc565b91906024356001600160401b03811161297457612d359036906004016148fc565b6044356001600160401b0381116132c357612d549036906004016148fc565b90916064356001600160401b0381116132bf57612d759036906004016148fc565b9490973388526008602052612d9060ff60408a205416614e7d565b801561327d57338852600760205260408820966001600160401b038211613269578190612dc060188a01546149ad565b601f8111613219575b508990601f83116001146131ad578a926131a2575b50508160011b916000199060031b1c19161760188701555b6001600160401b03821161318e578190612e1360198801546149ad565b601f811161313b575b508790601f83116001146130cf5788926130c4575b50508160011b916000199060031b1c19161760198501555b601a8401916001600160401b0382116130b0578190612e6884546149ad565b601f8111613060575b508690601f8311600114612ffa578792612fef575b50508160011b916000199060031b1c19161790555b601b8201906001600160401b038111612fdb57612eb882546149ad565b601f8111612f96575b5083601f8211600114612f2f5781908596601c9692612f24575b50508160011b916000199060031b1c19161790555b01805460ff19166001179055337fbe4ec58a792f909e102ee3d745d0c3b34a4d437a54d903c4db098d31c556422f8280a280f35b013590503880612edb565b8285526020852090601f198316865b818110612f7e575096839291600194601c989910612f64575b505050811b019055612ef0565b0135600019600384901b60f8161c19169055388080612f57565b9192602060018192868c013581550194019201612f3e565b82855260208520601f830160051c81019160208410612fd1575b601f0160051c01905b818110612fc65750612ec1565b858155600101612fb9565b9091508190612fb0565b634e487b7160e01b84526041600452602484fd5b013590503880612e86565b84885260208820925090601f198416885b818110613048575090846001959493921061302e575b505050811b019055612e9b565b0135600019600384901b60f8161c19169055388080613021565b9193602060018192878701358155019501920161300b565b90915083875260208720601f840160051c810191602085106130a6575b90601f859493920160051c01905b8181106130985750612e71565b88815584935060010161308b565b909150819061307d565b634e487b7160e01b86526041600452602486fd5b013590503880612e31565b60198801895260208920925090601f198416895b8181106131235750908460019594939210613109575b505050811b016019850155612e49565b0135600019600384901b60f8161c191690553880806130f9565b919360206001819287870135815501950192016130e3565b90915060198701885260208820601f840160051c81019160208510613184575b90601f859493920160051c01905b8181106131765750612e1c565b898155849350600101613169565b909150819061315b565b634e487b7160e01b87526041600452602487fd5b013590503880612dde565b60188a018b5260208b20925090601f1984168b5b81811061320157509084600195949392106131e7575b505050811b016018870155612df6565b0135600019600384901b60f8161c191690553880806131d7565b919360206001819287870135815501950192016131c1565b909150601889018a5260208a20601f840160051c810160208510613262575b90849392915b601f830160051c82018110613254575050612dc9565b8c815585945060010161323e565b5080613238565b634e487b7160e01b89526041600452602489fd5b60405162461bcd60e51b815260206004820152601a6024820152791353134e88111a5cdc1b185e481b985b59481c995c5d5a5c995960321b6044820152606490fd5b8680fd5b8480fd5b50346104f057806003193601126104f0576020604051600c8152f35b50346104f05760203660031901126104f057600435613300614afc565b61271081116133435760407fdefb0223a84c18f8f7c10046a8600d298578166098e58c49022547d7a50da35b91600654908060065582519182526020820152a180f35b60405162461bcd60e51b81526020600482015260166024820152754d4c4d3a20526174652065786365656473203130302560501b6044820152606490fd5b50346104f05760203660031901126104f057600435906001821015806133d7575b6133ab90615c2d565b600b8210156133c35760208260150154604051908152f35b634e487b7160e01b81526032600452602490fd5b50600a8211156133a2565b50346104f057806003193601126104f0576003546040516001600160a01b039091168152602090f35b50346104f05760203660031901126104f05760209060ff906040906001600160a01b03613436614751565b168152600984522054166040519015158152f35b50346104f057806003193601126104f0576020600e54604051908152f35b50346104f05760203660031901126104f05760043560068110156108605760209060320154604051908152f35b50346104f057806003193601126104f0576134ae614afc565b805460ff8160a01c16156134f45760ff60a01b191681556040513381527f5db9ee0a495bf2e6ff9c91a7834c1ba4fdd244a5e8aa4e537bd38aeae4b073aa90602090a180f35b604051638dfc202b60e01b8152600490fd5b50346104f05760203660031901126104f0576020906040906001600160a01b0361352e614751565b168152601283522054604051908152f35b50346104f057806003193601126104f057602060ff60025460a01c16604051908152f35b50346104f057806003193601126104f0576021546040516001600160a01b039091168152602090f35b50346104f05760203660031901126104f0576020906040906001600160a01b036135b4614751565b16808252600884526135cb60ff8484205416614e7d565b8152600783522054604051908152f35b50346104f057806003193601126104f0576001546040516001600160a01b039091168152602090f35b50346104f057806003193601126104f05761361d615177565b613625614cbe565b338152600860205261363d60ff604083205416614e7d565b338152600760205260408120600481015461367360ff8260b01c1661366181614946565b60018114908115613a7c575b50615454565b6016820154908115613a3f5760ff906201518042046011850181815410613a31575b505060a81c16600681101561059157603201546010830154849391818111613a1d575b5083156139df57829385938181116139bd575b5050906136e18461375293876016850155614c48565b6010820155600881016136f5858254614c48565b90556137018433615971565b338552600c60205260176040862091015460ff81116000146139b7575060ff905b60ff60405192613731846149e7565b60058452866020850152426040850152876060850152166080830152614f6e565b6040518281527fd4379f0df0229cb2fed1f6f1c33e4a164dcf7652a8ff79efd7f4f66bcc1b375660203392a28061394b575b503382526007602052604082206001908101549091906001600160a01b03165b6001600160a01b038116151580613940575b1561392a576001600160a01b0381168452600760205260408420600481015490919060b081901c60ff166137e981614946565b60018114908115613916575b5061381a575b5050600101546001600160a01b03169161381490614caf565b916137a4565b600660ff8260a81c161015610dd45760ff9060a81c16603e0154841115613842575b806137fb565b60648381810204811484151715610b35579061271061381493928502048061386d575b50509061383c565b6138778183615971565b60098301613886828254614c48565b90556001600160a01b0382168752600c602052604080882090516138d1916138ad826149e7565b6006825283602083015242604083015233606083015260ff89166080830152614f6e565b604080519182526020820187905233926001600160a01b0316917f45948fc51bbcac6c3b663a1adcc0697660bbaeddd6eab9240451a0efcf7ad7539190a33880613865565b6002915061392381614946565b14386137f5565b836001600080516020615f1f8339815191525580f35b5060148311156137b6565b61395781602554614c48565b6025556040518181527fd5fe7fa76ce91683ea1b2f2ba3429885feeb202704aa35a0552e110e4eb6b26b60203392a26024546001600160a01b0391908216806139a2575b5050613784565b6139af9260015416615089565b38808061399b565b90613722565b819550613752939294506139d66136e192968792614cee565b949293506136cb565b60405162461bcd60e51b81526020600482015260166024820152751353134e8811185a5b1e4818d85c081c995858da195960521b6044820152606490fd5b81945090613a2a91614cee565b92386136b8565b866010870155553880613695565b60405162461bcd60e51b81526020600482015260156024820152744d4c4d3a204e6f7468696e6720746f20636c61696d60581b6044820152606490fd5b60029150613a8981614946565b143861366d565b50346104f05760203660031901126104f05760043590613aae615177565b613ab6614cbe565b33815260076020526040812090613ae2600160ff600485015460b01c16613adc81614946565b14615454565b6005820180548481106140945784156140555760ff60025460a01c16604d811161404157600a0a80600a0290600a82040361404157801561402d578506613fdc5784613b2d91614cee565b90556103e883026103e71984820401613fc857819360055480613fa9575b5084613b68613b6d92613b68612710860491612710870490614cee565b614cee565b92612710613b7d60065486615076565b0490613b898286614cee565b9180613f8b575b5081613f2b575b6015915085613f08575b9493919401613bb1828254614c48565b9055338252601260205260408220613bce61271086048254614c48565b9055604051612710850481527f2b1d2104e84dd4dabb0cca024171f783ab1e1c9dc1af9d60a2361596653a99c460203392a2338252600760205260018060a01b036001604084200154169360019183955b6001600160a01b038116151580613efd575b15613df5576001600160a01b0381168552600760205260408520600481015490919060b081901c60ff16613c6481614946565b60018114908115613de1575b50613c95575b5050600101546001600160a01b031692613c8f90614caf565b92613c1f565b600660ff8260a81c161015613dcd578060ff879260a81c1660440154821115613cbf575b50613c76565b9060ff613ccf9260a81c16615492565b80613cdc575b8590613cb9565b613ceb61271091828704615076565b049081151580613db6575b15613cd557613d2582809a613d0f613c8f969585615971565b600a8501613d1e838254614c48565b9055614c48565b6001600160a01b0382168852600c60205260408089209051919a91613d7191613d4d826149e7565b6007825283602083015242604083015233606083015260ff8a166080830152614f6e565b604080519182526020820188905233926001600160a01b0316917ffa90ff469705543002392f8f4d59d717c4d5c6b6c7832f347dc47e1f75855b939190a39038613cd5565b506127108504613dc6838b614c48565b1115613cf6565b634e487b7160e01b87526021600452602487fd5b60029150613dee81614946565b1438613c70565b5084613eb78593338552600c602052613e396040862060405190613e18826149e7565b60038252866020830152426040830152876060830152876080830152614f6e565b338552600c602052613e7a6040862060405190613e55826149e7565b600a825261271084046020830152426040830152876060830152876080830152614f6e565b338552600c6020526040852061271060405192613e96846149e7565b600b8452046020830152426040830152856060830152856080830152614f6e565b60405191825260208201527fdf273cb619d95419a9cd0ec88123a0538c85064229baa6363788f743fff90deb60403392a26001600080516020615f1f8339815191525580f35b50600f841115613c31565b600154600354613f269188916001600160a01b039081169116615089565b613ba1565b6002546001600160a01b03168015613f5057601592613f4b913390615089565b613b97565b60405162461bcd60e51b81526020600482015260136024820152721353134e8813551bdad95b881b9bdd081cd95d606a1b6044820152606490fd5b600154613fa3919033906001600160a01b0316615089565b38613b90565b613b68955090612710613fbf613b6d9383615076565b04955090613b4b565b634e487b7160e01b82526011600452602482fd5b60405162461bcd60e51b8152602060048201526024808201527f4d4c4d3a20416d6f756e74206d7573742062652061206d756c7469706c65206f6044820152630662031360e41b6064820152608490fd5b634e487b7160e01b84526012600452602484fd5b634e487b7160e01b84526011600452602484fd5b60405162461bcd60e51b815260206004820152601760248201527604d4c4d3a20416d6f756e74206d757374206265203e203604c1b6044820152606490fd5b60405162461bcd60e51b81526020600482015260196024820152784d4c4d3a20496e73756666696369656e742062616c616e636560381b6044820152606490fd5b50346104f05760403660031901126104f0576140ef614751565b7f41310093e80507e3fb2fafc7628a627f835448a93096f490e3e207749295f482602060243561411d614afc565b6001600160a01b03848116946141449183919061413b881515615dfc565b60015416615089565b604051908152a280f35b50346104f05760203660031901126104f05760209060ff906040906001600160a01b03614179614751565b168152600d84522054166040519015158152f35b50346104f057806003193601126104f0576020604051610bb88152f35b50346104f0576141b9366148e6565b906141c2614afc565b60018110158061423e575b6141d690615c2d565b811561420057600b8110156141ec576015015580f35b634e487b7160e01b83526032600452602483fd5b60405162461bcd60e51b815260206004820152601660248201527504d4c4d3a205072696365206d757374206265203e20360541b6044820152606490fd5b50600a8111156141cd565b50346104f05760203660031901126104f057600435600b8110156108605760209060150154604051908152f35b50346104f057806003193601126104f0576020602554604051908152f35b50346104f0576142a3366148b5565b906142ac614afc565b6006811015806105915760018210158061430a575b6142ca90614ebf565b61056f5790816105697ffd97dc847c39542ae663c77ed6c5fe5d200d0a308aac833f926e9c3f8f32453f9360320192808454945560405193849384615e3f565b5083905060058211156142c1565b50346104f05760403660031901126104f057614332614751565b602435908115159081830361118e577f9742298dc6801916d04d1f05c6a0cc0405b25bad99060bbbc1c82a9f474ab01491614144602092614371614afc565b6001600160a01b031694614386861515615dfc565b858752600d8452604087209060ff801983541691151516179055565b50346104f05760203660031901126104f05761442c906040906001600160a01b036143cb614751565b16815260076020522060ff601c820154166144566143eb60188401614a56565b926144486143fb60198301614a56565b9161443a614417601b614410601a8501614a56565b9301614a56565b9360405198899860a08a5260a08a0190614875565b9088820360208a0152614875565b908682036040880152614875565b908482036060860152614875565b90151560808301520390f35b50346104f05760203660031901126104f05760ff60406020926004358152601084522054166040519015158152f35b50346104f05760203660031901126104f0576144ab614751565b6144b3614afc565b6001600160a01b03908116906144ca821515615dfc565b602280546001600160a01b031981168417909155167f991bd8bbc522c9c0ad23403e84b3f6169d20804c463d315126d1b208670417408380a380f35b50346104f05760403660031901126104f057614520614751565b6001600160a01b039081168252600a60205260408220805460243593908410156104f057506020926145519161484d565b9190546040519260031b1c168152f35b50346104f057806003193601126104f057602060405161222e8152f35b50346104f05760403660031901126104f057614598614751565b6024359060ff82168203612974576145ae614afc565b6001600160a01b0390811691821561461a57600180546001600160a01b0319811685179091556002805460ff60a01b191660a09390931b60ff60a01b1692909217909155167f5efdfedf5aef119c431263f0656093045dffdf44b3d8f1b0f158dc295c3a0f8e8380a380f35b60405162461bcd60e51b815260206004820152601260248201527126a6269d1024b73b30b634b2103a37b5b2b760711b6044820152606490fd5b50346104f05761466c61466636614767565b91615c74565b959260409592919495519560c087019060c08852845180925260e0880191602080960190875b81811061471257505050916146b5826146d195948a6146c39503888c0152614791565b9088820360408a0152614791565b9086820360608801526147c5565b9084820360808601528080855193848152019401925b8281106146fb578580868960a08301520390f35b835160ff16855293810193928101926001016146e7565b9091938451600c81101561473157815287019387019190600101614692565b634e487b7160e01b8a52602160045260248afd5b6001600160a01b031690565b600435906001600160a01b038216820361149d57565b606090600319011261149d576004356001600160a01b038116810361149d57906024359060443590565b90815180825260208080930193019160005b8281106147b1575050505090565b8351855293810193928101926001016147a3565b90815180825260208080930193019160005b8281106147e5575050505090565b83516001600160a01b0316855293810193928101926001016147d7565b6001600160a01b03166000908152600c6020526040902090565b600b5481101561483757600b60005260206000200190600090565b634e487b7160e01b600052603260045260246000fd5b80548210156148375760005260206000200190600090565b6000526013602052604060002090565b919082519283825260005b8481106148a1575050826000602080949584010152601f8019910116010190565b602081830181015184830182015201614880565b604090600319011261149d57600435600681101561149d579060243590565b600b8110156148375760150190600090565b604090600319011261149d576004359060243590565b9181601f8401121561149d578235916001600160401b03831161149d576020838186019501011161149d57565b3461149d57600036600319011261149d576020604051610fa08152f35b6003111561495057565b634e487b7160e01b600052602160045260246000fd5b9060068210156149505752565b3461149d57600036600319011261149d5760206040516103e88152f35b3461149d57600036600319011261149d5760206040516102718152f35b90600182811c921680156149dd575b60208310146149c757565b634e487b7160e01b600052602260045260246000fd5b91607f16916149bc565b60a081019081106001600160401b03821117614a0257604052565b634e487b7160e01b600052604160045260246000fd5b602081019081106001600160401b03821117614a0257604052565b601f909101601f19168101906001600160401b03821190821017614a0257604052565b9060405191826000825492614a6a846149ad565b908184526001948581169081600014614ad95750600114614a96575b5050614a9492500383614a33565b565b9093915060005260209081600020936000915b818310614ac1575050614a9493508201013880614a86565b85548884018501529485019487945091830191614aa9565b915050614a9494506020925060ff191682840152151560051b8201013880614a86565b6000546001600160a01b03163303614b1057565b60405163118cdaa760e01b8152336004820152602490fd5b15614b2f57565b60405162461bcd60e51b81526020600482015260176024820152761353134e88105b1c9958591e481c9959da5cdd195c9959604a1b6044820152606490fd5b15614b7557565b60405162461bcd60e51b81526020600482015260176024820152761353134e88125b9d985b1a59081cdc1bdb9cdbdc881251604a1b6044820152606490fd5b15614bbb57565b60405162461bcd60e51b815260206004820152601d60248201527f4d4c4d3a20496e76616c69642062696e61727920706172656e742049440000006044820152606490fd5b90614c0a81614946565b815460ff60a01b191660a09190911b60ff60a01b16179055565b9060018201809211614c3257565b634e487b7160e01b600052601160045260246000fd5b91908201809211614c3257565b600b54600160401b811015614a0257806001614c749201600b5561481c565b819291549060031b9160018060a01b03809116831b921b1916179055565b8054600160401b811015614a0257614c749160018201815561484d565b6000198114614c325760010190565b60ff60005460a01c16614ccd57565b60405163d93c066560e01b8152600490fd5b600019810191908211614c3257565b91908203918211614c3257565b600080606033811b600180805b614d15575b505050505090565b94909192939415614e03575b506000601191614d318354614caf565b92838155600b54906040948551602093848201924284524489840152898b840152607483015260949081830152815260c0810181811060018060401b0382111761318e579064e8d4a50c189291885251902006906103e88201809211614df15750614d9c9097614caf565b9360328511614db2575050908194939294614d08565b60649250519062461bcd60e51b8252600482015260196024820152781353134e8812510819d95b995c985d1a5bdb8819985a5b1959603a1b6044820152fd5b634e487b7160e01b8552600452602484fd5b80600052601060205260ff60406000205416614d21579380614d0d565b5b6001600160a01b0381811660009081526007602052604090206004015416908115614e4c5750614e21565b905090565b5b6001600160a01b0381811660009081526007602052604090206003015416908115614e4c5750614e52565b15614e8457565b60405162461bcd60e51b81526020600482015260136024820152721353134e88139bdd081c9959da5cdd195c9959606a1b6044820152606490fd5b15614ec657565b60405162461bcd60e51b81526020600482015260146024820152734d4c4d3a20496e76616c6964207061636b61676560601b6044820152606490fd5b90600681101561495057815460ff60a81b191660a89190911b60ff60a81b16179055565b60405190606082016001600160401b03811183821017614a0257604052565b60405190614a94826149e7565b80548210156148375760005260206000209060021b0190600090565b8054600160401b811015614a0257614f8b91600182018155614f52565b614fee57815190600c8210156149505760039160ff801983541691161781556020830151600182015560408301516002820155019060018060a01b03606082015116825491608060ff60a01b91015160a01b169160018060a81b03191617179055565b634e487b7160e01b600052600060045260246000fd5b90600c820291808304600c1490151715614c3257565b9061222e91828102928184041490151715614c3257565b9061027191828102928184041490151715614c3257565b90610fa091828102928184041490151715614c3257565b906107d091828102928184041490151715614c3257565b81810292918115918404141715614c3257565b60405163a9059cbb60e01b60009081526001600160a01b039384166004526024949094529260209060448180855af16001600051148116156150ea575b83604052156150d457505050565b635274afe760e01b835216600482015260249150fd5b600181151661510057813b15153d1516166150c6565b833d6000823e3d90fd5b6040516323b872dd60e01b60009081526001600160a01b03938416600452938316602452604494909452909160209060648180855af1600160005114811615615161575b836040526000606052156150d457505050565b600181151661510057813b15153d15161661514e565b600080516020615f1f83398151915260028154146151955760029055565b604051633ee5aeb560e01b8152600490fd5b6001600160a01b03908116600081815260076020526040808220600101549294929093169283156152cb5783825280822092600484015460ff8160b01c166151ee81614946565b600181141590816152b6575b506152ad5760a81c60ff166006811015610591576127109161522091602c015490615076565b049081156152a55761529e60209360077f86583c8be3288ec633d5a10afa75407d4c785bff5edd40840c42e48d0efdcfbb9661525c868a615971565b01615268858254614c48565b9055868152600c8552828120835191615280836149e7565b60048352858784015242858401528960608401526080830152614f6e565b51908152a3565b505050505050565b50505050505050565b600291506152c381614946565b1415386151fa565b5050505050565b60018060a01b03809116906000908282526007916020928084526002604093818585200154169586156154165786845260ff6004808787200154928260b094851c169361531e85614946565b858460018097149283156153f1575b505050615343575b5050505050505050506152d2565b8652848852868620015460a01c169061535b82614946565b81036153a1575050600e93858352818152600c8484200161537d888254614c48565b9055858352522001615390838254614c48565b90555b388080808080808080615335565b6153aa81614946565b146153b9575b50505050615393565b600f93858352818152600d848420016153d3888254614c48565b90558583525220016153e6838254614c48565b9055388080806153b0565b909192508c8a52888c52848b8b200154901c1661540d81614946565b1485843861532d565b5050505050505050565b600581111561544d57600a81111561544657600f1015615440576101f490565b6103e890565b506107d090565b50610bb890565b1561545b57565b60405162461bcd60e51b815260206004820152600f60248201526e4d4c4d3a204e6f742061637469766560881b6044820152606490fd5b600681101561495057600181036154b75750600310156154b2575b600090565b606490565b600281036154e0575060048111156154da576005146154d557600090565b603290565b50606490565b600381036154ff575060058111156154da57600910156154d557600090565b6004810361551d575060048111156154da57600c106154ad57603290565b60051461552b575b50600090565b600581111561554257600f10156154d55738615525565b506101f490565b8054821015614837576000526003602060002091020190600090565b8054600160401b811015614a025761558291600182018155615549565b614fee5760026040614a949360018060a01b0381511660018060a01b0319855416178455602081015160018501550151151591019060ff801983541691151516179055565b906155fc6155d482614865565b6155dc614f26565b6001600160a01b0385168152906000602083015260006040830152615565565b8061560f61560982614865565b54614cdf565b60405181815290936001600160a01b0316907f4e755dd64e53a9f7a5882e2e32eb64718c2273de11e017bd47129b9fe2716d7c90602090a361565b816000526014602052604060002090565b54918210615667575050565b6156798261567483614865565b615549565b5091600c6001840161568b8154614caf565b809155101561569a575b505050565b826156be6156d9926156b96002614a949701600160ff19825416179055565b614c24565b6156d2846000526014602052604060002090565b5554614745565b6156f76156f26156e8846148d4565b90549060031b1c90565b615004565b600a8310156158535782614a949382600080516020615e9f83398151915261573861572a61573261572a61582198615048565b612710900490565b9361505f565b615743602354614745565b6001600160a01b03908489828416615842575b505050615764602154614745565b82828216615827575b50506157af61577b89614802565b615783614f45565b6009815290602082018790524260408301526000606083015260ff88166080830152614f6e565b614f6e565b604080519485526020850192909252871692a36156b96157ce84614802565b6157e26156e86157dd85614c24565b6148d4565b906157aa6157f86157f286614c24565b60ff1690565b615800614f45565b600881529360208501524260408501526000606085015260ff166080840152565b906155c7565b61583b91615836600154614745565b615089565b388261576d565b61584b92615089565b388489615756565b8061586f61572a600080516020615e9f8339815191529361501a565b9261592f61588b61572a61588561572a86615031565b94615031565b615896602354614745565b6001600160a01b0394908785878316615960575b5050506158b8602254614745565b9085821661594a575b50506158ce602154614745565b81858216615934575b50506159146158e584614802565b6158ed614f45565b6009815290602082018990524260408301526000606083015260ff8a166080830152614f6e565b60405193849316958360209093929193604081019481520152565b0390a3565b61594391615836600154614745565b38816158d7565b61595991615836600154614745565b38806158c1565b61596992615089565b3887856158aa565b9060018060a01b0382166000526007602052604060002081156156955760ff600482015460a81c1660068110156149505760380154926000600b830194855490818111615a22575b50508015615a16578084116159ea5750509060056159e692016159dd828254614c48565b90558254614c48565b9055565b8293614a94956005615a10949501615a03848254614c48565b9055612b58838254614c48565b91615a33565b5090614a949350615a33565b615a2c9250614cee565b38806159b9565b9060ff600291600484019081546001848260b01c16615a5181614946565b14615a7f575b50505460b01c16615a6781614946565b14615a70575050565b60066159e69101918254614c48565b60b084901b1916600160b11b17825542601386018190556040519081526001600160a01b03909116907f2bb92f1150248e7f78a267b3904ebd95f62a5225d70dcc813fb6906c3a646e9890602090a23880615a57565b6001600160401b038111614a025760051b60200190565b90615af682615ad5565b615b036040519182614a33565b8281528092615b14601f1991615ad5565b0190602036910137565b80518210156148375760209160051b010190565b929060018060a01b0380600095168552600a6020526040852080549485841015615bc957615b609084614c48565b83868211615bc1575b615b7291614cee565b92615b7c84615aec565b965b848110615b8c575050505050565b8084615ba4615b9e615bbc9486614c48565b8661484d565b90549060031b1c16615bb6828b615b1e565b52614caf565b615b7e565b869150615b69565b50505050909160405190615bdc82614a18565b8082523681379190565b15615bed57565b60405162461bcd60e51b81526020600482015260186024820152774d4c4d3a20496e646578206f7574206f6620626f756e647360401b6044820152606490fd5b15615c3457565b60405162461bcd60e51b81526020600482015260186024820152771353134e88125b9d985b1a5908189bd85c99081b195d995b60421b6044820152606490fd5b6001600160a01b03166000908152600c60205260409081902080549493909185841015615d9d5750615ca69083614c48565b82858211615d95575b615cb891614cee565b91615cc283615aec565b94615ccc84615aec565b94615cd685615aec565b94615ce081615aec565b94615cea82615aec565b9460005b838110615cfb5750505050565b6000198601868111614c3257615d1e615d2491615d188486614c48565b90614cee565b84614f52565b50908b615d368260ff85541692615b1e565b600c82101561495057615d909360ff92600392528d615d5a85600184015492615b1e565b526002810154615d6a858f615b1e565b5201546001600160a01b038116615d81848d615b1e565b5260a01c16615bb6828a615b1e565b615cee565b859150615caf565b925050508051615dac81614a18565b60008152815193615dbc85614a18565b60008552825193615dcc85614a18565b60008552835193615ddc85614a18565b600085525192615deb84614a18565b600084526000368137959493929190565b15615e0357565b60405162461bcd60e51b81526020600482015260146024820152734d4c4d3a20496e76616c6964206164647265737360601b6044820152606490fd5b604091949392615e53826060810197614966565b60208201520152565b600b54801561552557615e72600e548092614c48565b6000198101908111614c32578115615e88570490565b634e487b7160e01b600052601260045260246000fdfec9dfd5046e5f1be95c560d1b85295f8afd28d0102c20e0b4112b88bd328ca433e22a39f862558eb01c2a26eb38c7d884b499221d9a5989f637529bd3e77fd6798be0079c531659141344cd1fd0a4f28419497f9722a3daafe3b4186f6b6457e04769bc30c3e6f90ecfef0f6e4760f65f2cc4ae6c67493463e3c9caf3d2f863e99b779b17422d0df92223018b32b4d1fa46e071723d6817e2486d003becc55f00a26469706673582212201fe6b52846e51a0b1e6200719e7df365414fb7040b7b21c546af90b8b8739fa764736f6c63430008140033",
  "linkReferences": {},
  "deployedLinkReferences": {}
}