{
  "_format": "hh-sol-artifact-1",
  "contractName": "MLMContract",
  "sourceName": "contracts/MLMContract.sol",
  "abi": [
    {
      "inputs": [
        {
          "internalType": "address",
          "name": "_paymentToken",
          "type": "address"
        },
        {
          "internalType": "uint8",
          "name": "_tokenDecimals",
          "type": "uint8"
        },
        {
          "internalType": "address",
          "name": "_feeRecipient",
          "type": "address"
        },
        {
          "internalType": "address",
          "name": "_adminBinaryWallet",
          "type": "address"
        }
      ],
      "stateMutability": "nonpayable",
      "type": "constructor"
    },
    {
      "inputs": [],
      "name": "EnforcedPause",
      "type": "error"
    },
    {
      "inputs": [],
      "name": "ExpectedPause",
      "type": "error"
    },
    {
      "inputs": [
        {
          "internalType": "address",
          "name": "owner",
          "type": "address"
        }
      ],
      "name": "OwnableInvalidOwner",
      "type": "error"
    },
    {
      "inputs": [
        {
          "internalType": "address",
          "name": "account",
          "type": "address"
        }
      ],
      "name": "OwnableUnauthorizedAccount",
      "type": "error"
    },
    {
      "inputs": [],
      "name": "ReentrancyGuardReentrantCall",
      "type": "error"
    },
    {
      "inputs": [
        {
          "internalType": "address",
          "name": "token",
          "type": "address"
        }
      ],
      "name": "SafeERC20FailedOperation",
      "type": "error"
    },
    {
      "anonymous": false,
      "inputs": [
        {
          "indexed": true,
          "internalType": "address",
          "name": "oldWallet",
          "type": "address"
        },
        {
          "indexed": true,
          "internalType": "address",
          "name": "newWallet",
          "type": "address"
        }
      ],
      "name": "AdminBinaryWalletUpdated",
      "type": "event"
    },
    {
      "anonymous": false,
      "inputs": [
        {
          "indexed": false,
          "internalType": "uint256",
          "name": "batchNumber",
          "type": "uint256"
        },
        {
          "indexed": false,
          "internalType": "uint256",
          "name": "processedCount",
          "type": "uint256"
        }
      ],
      "name": "BinaryBatchProcessed",
      "type": "event"
    },
    {
      "anonymous": false,
      "inputs": [
        {
          "indexed": false,
          "internalType": "uint256",
          "name": "oldSize",
          "type": "uint256"
        },
        {
          "indexed": false,
          "internalType": "uint256",
          "name": "newSize",
          "type": "uint256"
        }
      ],
      "name": "BinaryBatchSizeUpdated",
      "type": "event"
    },
    {
      "anonymous": false,
      "inputs": [
        {
          "indexed": true,
          "internalType": "address",
          "name": "user",
          "type": "address"
        },
        {
          "indexed": false,
          "internalType": "uint256",
          "name": "flushedAmount",
          "type": "uint256"
        }
      ],
      "name": "BinaryFlushed",
      "type": "event"
    },
    {
      "anonymous": false,
      "inputs": [
        {
          "indexed": true,
          "internalType": "address",
          "name": "user",
          "type": "address"
        },
        {
          "indexed": false,
          "internalType": "uint256",
          "name": "amount",
          "type": "uint256"
        }
      ],
      "name": "BinaryIncomeAllocated",
      "type": "event"
    },
    {
      "anonymous": false,
      "inputs": [
        {
          "indexed": true,
          "internalType": "address",
          "name": "user",
          "type": "address"
        },
        {
          "indexed": false,
          "internalType": "uint256",
          "name": "amount",
          "type": "uint256"
        }
      ],
      "name": "BinaryIncomeClaimed",
      "type": "event"
    },
    {
      "anonymous": false,
      "inputs": [
        {
          "indexed": true,
          "internalType": "address",
          "name": "processor",
          "type": "address"
        },
        {
          "indexed": false,
          "internalType": "bool",
          "name": "status",
          "type": "bool"
        }
      ],
      "name": "BinaryProcessorUpdated",
      "type": "event"
    },
    {
      "anonymous": false,
      "inputs": [
        {
          "indexed": true,
          "internalType": "address",
          "name": "oldHandler",
          "type": "address"
        },
        {
          "indexed": true,
          "internalType": "address",
          "name": "newHandler",
          "type": "address"
        }
      ],
      "name": "BoardHandlerUpdated",
      "type": "event"
    },
    {
      "anonymous": false,
      "inputs": [
        {
          "indexed": true,
          "internalType": "address",
          "name": "user",
          "type": "address"
        },
        {
          "indexed": false,
          "internalType": "uint256",
          "name": "amount",
          "type": "uint256"
        }
      ],
      "name": "BtcPoolCredited",
      "type": "event"
    },
    {
      "anonymous": false,
      "inputs": [
        {
          "indexed": true,
          "internalType": "address",
          "name": "to",
          "type": "address"
        },
        {
          "indexed": false,
          "internalType": "uint256",
          "name": "amount",
          "type": "uint256"
        }
      ],
      "name": "ContractFundsWithdrawn",
      "type": "event"
    },
    {
      "anonymous": false,
      "inputs": [
        {
          "indexed": false,
          "internalType": "enum MLMContract.Package",
          "name": "pkg",
          "type": "uint8"
        },
        {
          "indexed": false,
          "internalType": "uint256",
          "name": "oldCap",
          "type": "uint256"
        },
        {
          "indexed": false,
          "internalType": "uint256",
          "name": "newCap",
          "type": "uint256"
        }
      ],
      "name": "DailyCappingUpdated",
      "type": "event"
    },
    {
      "anonymous": false,
      "inputs": [
        {
          "indexed": true,
          "internalType": "address",
          "name": "to",
          "type": "address"
        },
        {
          "indexed": false,
          "internalType": "uint256",
          "name": "amount",
          "type": "uint256"
        }
      ],
      "name": "DepositWithdrawn",
      "type": "event"
    },
    {
      "anonymous": false,
      "inputs": [
        {
          "indexed": true,
          "internalType": "address",
          "name": "user",
          "type": "address"
        },
        {
          "indexed": false,
          "internalType": "uint256",
          "name": "amount",
          "type": "uint256"
        }
      ],
      "name": "Deposited",
      "type": "event"
    },
    {
      "anonymous": false,
      "inputs": [
        {
          "indexed": true,
          "internalType": "address",
          "name": "recipient",
          "type": "address"
        },
        {
          "indexed": true,
          "internalType": "address",
          "name": "from",
          "type": "address"
        },
        {
          "indexed": false,
          "internalType": "uint256",
          "name": "amount",
          "type": "uint256"
        }
      ],
      "name": "DirectIncomeDistributed",
      "type": "event"
    },
    {
      "anonymous": false,
      "inputs": [
        {
          "indexed": true,
          "internalType": "address",
          "name": "token",
          "type": "address"
        },
        {
          "indexed": true,
          "internalType": "address",
          "name": "to",
          "type": "address"
        },
        {
          "indexed": false,
          "internalType": "uint256",
          "name": "amount",
          "type": "uint256"
        }
      ],
      "name": "EmergencyTokenRecovery",
      "type": "event"
    },
    {
      "anonymous": false,
      "inputs": [
        {
          "indexed": true,
          "internalType": "address",
          "name": "oldRecipient",
          "type": "address"
        },
        {
          "indexed": true,
          "internalType": "address",
          "name": "newRecipient",
          "type": "address"
        }
      ],
      "name": "FeeRecipientUpdated",
      "type": "event"
    },
    {
      "anonymous": false,
      "inputs": [
        {
          "indexed": true,
          "internalType": "address",
          "name": "user",
          "type": "address"
        },
        {
          "indexed": false,
          "internalType": "uint256",
          "name": "userId",
          "type": "uint256"
        },
        {
          "indexed": false,
          "internalType": "enum MLMContract.Package",
          "name": "pkg",
          "type": "uint8"
        },
        {
          "indexed": true,
          "internalType": "address",
          "name": "sponsor",
          "type": "address"
        }
      ],
      "name": "FreeAccountActivated",
      "type": "event"
    },
    {
      "anonymous": false,
      "inputs": [
        {
          "indexed": true,
          "internalType": "address",
          "name": "user",
          "type": "address"
        },
        {
          "indexed": false,
          "internalType": "uint256",
          "name": "flushedAmount",
          "type": "uint256"
        }
      ],
      "name": "GracePeriodExpired",
      "type": "event"
    },
    {
      "anonymous": false,
      "inputs": [
        {
          "indexed": true,
          "internalType": "address",
          "name": "user",
          "type": "address"
        },
        {
          "indexed": false,
          "internalType": "uint256",
          "name": "startTime",
          "type": "uint256"
        }
      ],
      "name": "GracePeriodStarted",
      "type": "event"
    },
    {
      "anonymous": false,
      "inputs": [
        {
          "indexed": true,
          "internalType": "address",
          "name": "oldToken",
          "type": "address"
        },
        {
          "indexed": true,
          "internalType": "address",
          "name": "newToken",
          "type": "address"
        }
      ],
      "name": "MTokenUpdated",
      "type": "event"
    },
    {
      "anonymous": false,
      "inputs": [
        {
          "indexed": true,
          "internalType": "address",
          "name": "recipient",
          "type": "address"
        },
        {
          "indexed": true,
          "internalType": "address",
          "name": "from",
          "type": "address"
        },
        {
          "indexed": false,
          "internalType": "uint256",
          "name": "amount",
          "type": "uint256"
        },
        {
          "indexed": false,
          "internalType": "uint256",
          "name": "level",
          "type": "uint256"
        }
      ],
      "name": "MatchingOverrideDistributed",
      "type": "event"
    },
    {
      "anonymous": false,
      "inputs": [
        {
          "indexed": false,
          "internalType": "enum MLMContract.Package",
          "name": "pkg",
          "type": "uint8"
        },
        {
          "indexed": false,
          "internalType": "uint256",
          "name": "oldLimit",
          "type": "uint256"
        },
        {
          "indexed": false,
          "internalType": "uint256",
          "name": "newLimit",
          "type": "uint256"
        }
      ],
      "name": "MaxIncomeLimitUpdated",
      "type": "event"
    },
    {
      "anonymous": false,
      "inputs": [
        {
          "indexed": true,
          "internalType": "address",
          "name": "previousOwner",
          "type": "address"
        },
        {
          "indexed": true,
          "internalType": "address",
          "name": "newOwner",
          "type": "address"
        }
      ],
      "name": "OwnershipTransferred",
      "type": "event"
    },
    {
      "anonymous": false,
      "inputs": [
        {
          "indexed": true,
          "internalType": "address",
          "name": "user",
          "type": "address"
        },
        {
          "indexed": false,
          "internalType": "enum MLMContract.Package",
          "name": "pkg",
          "type": "uint8"
        },
        {
          "indexed": false,
          "internalType": "uint256",
          "name": "amountPaid",
          "type": "uint256"
        }
      ],
      "name": "PackageActivated",
      "type": "event"
    },
    {
      "anonymous": false,
      "inputs": [
        {
          "indexed": false,
          "internalType": "enum MLMContract.Package",
          "name": "pkg",
          "type": "uint8"
        },
        {
          "indexed": false,
          "internalType": "uint256",
          "name": "oldPrice",
          "type": "uint256"
        },
        {
          "indexed": false,
          "internalType": "uint256",
          "name": "newPrice",
          "type": "uint256"
        }
      ],
      "name": "PackagePriceUpdated",
      "type": "event"
    },
    {
      "anonymous": false,
      "inputs": [
        {
          "indexed": true,
          "internalType": "address",
          "name": "user",
          "type": "address"
        },
        {
          "indexed": false,
          "internalType": "enum MLMContract.Package",
          "name": "oldPkg",
          "type": "uint8"
        },
        {
          "indexed": false,
          "internalType": "enum MLMContract.Package",
          "name": "newPkg",
          "type": "uint8"
        },
        {
          "indexed": false,
          "internalType": "uint256",
          "name": "amountPaid",
          "type": "uint256"
        }
      ],
      "name": "PackageUpgraded",
      "type": "event"
    },
    {
      "anonymous": false,
      "inputs": [
        {
          "indexed": false,
          "internalType": "address",
          "name": "account",
          "type": "address"
        }
      ],
      "name": "Paused",
      "type": "event"
    },
    {
      "anonymous": false,
      "inputs": [
        {
          "indexed": true,
          "internalType": "address",
          "name": "oldToken",
          "type": "address"
        },
        {
          "indexed": true,
          "internalType": "address",
          "name": "newToken",
          "type": "address"
        }
      ],
      "name": "PaymentTokenUpdated",
      "type": "event"
    },
    {
      "anonymous": false,
      "inputs": [
        {
          "indexed": true,
          "internalType": "address",
          "name": "oldAddr",
          "type": "address"
        },
        {
          "indexed": true,
          "internalType": "address",
          "name": "newAddr",
          "type": "address"
        }
      ],
      "name": "ProductWalletUpdated",
      "type": "event"
    },
    {
      "anonymous": false,
      "inputs": [
        {
          "indexed": true,
          "internalType": "address",
          "name": "user",
          "type": "address"
        }
      ],
      "name": "ProfileUpdated",
      "type": "event"
    },
    {
      "anonymous": false,
      "inputs": [
        {
          "indexed": true,
          "internalType": "address",
          "name": "user",
          "type": "address"
        },
        {
          "indexed": false,
          "internalType": "enum MLMContract.Package",
          "name": "pkg",
          "type": "uint8"
        },
        {
          "indexed": false,
          "internalType": "uint256",
          "name": "amountPaid",
          "type": "uint256"
        }
      ],
      "name": "Reactivated",
      "type": "event"
    },
    {
      "anonymous": false,
      "inputs": [
        {
          "indexed": true,
          "internalType": "address",
          "name": "user",
          "type": "address"
        },
        {
          "indexed": false,
          "internalType": "uint256",
          "name": "amount",
          "type": "uint256"
        }
      ],
      "name": "TempWalletClaimed",
      "type": "event"
    },
    {
      "anonymous": false,
      "inputs": [
        {
          "indexed": false,
          "internalType": "address",
          "name": "account",
          "type": "address"
        }
      ],
      "name": "Unpaused",
      "type": "event"
    },
    {
      "anonymous": false,
      "inputs": [
        {
          "indexed": true,
          "internalType": "address",
          "name": "user",
          "type": "address"
        },
        {
          "indexed": false,
          "internalType": "uint256",
          "name": "userId",
          "type": "uint256"
        },
        {
          "indexed": true,
          "internalType": "address",
          "name": "sponsor",
          "type": "address"
        },
        {
          "indexed": true,
          "internalType": "address",
          "name": "binaryParent",
          "type": "address"
        },
        {
          "indexed": false,
          "internalType": "enum MLMContract.Side",
          "name": "side",
          "type": "uint8"
        }
      ],
      "name": "UserRegistered",
      "type": "event"
    },
    {
      "anonymous": false,
      "inputs": [
        {
          "indexed": true,
          "internalType": "address",
          "name": "user",
          "type": "address"
        },
        {
          "indexed": false,
          "internalType": "uint256",
          "name": "netAmount",
          "type": "uint256"
        },
        {
          "indexed": false,
          "internalType": "uint256",
          "name": "fee",
          "type": "uint256"
        }
      ],
      "name": "Withdrawal",
      "type": "event"
    },
    {
      "anonymous": false,
      "inputs": [
        {
          "indexed": false,
          "internalType": "uint256",
          "name": "oldFee",
          "type": "uint256"
        },
        {
          "indexed": false,
          "internalType": "uint256",
          "name": "newFee",
          "type": "uint256"
        }
      ],
      "name": "WithdrawalFeeUpdated",
      "type": "event"
    },
    {
      "anonymous": false,
      "inputs": [
        {
          "indexed": true,
          "internalType": "address",
          "name": "recipient",
          "type": "address"
        },
        {
          "indexed": true,
          "internalType": "address",
          "name": "from",
          "type": "address"
        },
        {
          "indexed": false,
          "internalType": "uint256",
          "name": "amount",
          "type": "uint256"
        },
        {
          "indexed": false,
          "internalType": "uint256",
          "name": "level",
          "type": "uint256"
        }
      ],
      "name": "WithdrawalMatchDistributed",
      "type": "event"
    },
    {
      "anonymous": false,
      "inputs": [
        {
          "indexed": false,
          "internalType": "uint256",
          "name": "oldRate",
          "type": "uint256"
        },
        {
          "indexed": false,
          "internalType": "uint256",
          "name": "newRate",
          "type": "uint256"
        }
      ],
      "name": "WithdrawalUsdtRateUpdated",
      "type": "event"
    },
    {
      "inputs": [],
      "name": "BASIS_POINTS",
      "outputs": [
        {
          "internalType": "uint256",
          "name": "",
          "type": "uint256"
        }
      ],
      "stateMutability": "view",
      "type": "function"
    },
    {
      "inputs": [],
      "name": "BTC_POOL_RATE",
      "outputs": [
        {
          "internalType": "uint256",
          "name": "",
          "type": "uint256"
        }
      ],
      "stateMutability": "view",
      "type": "function"
    },
    {
      "inputs": [],
      "name": "GRACE_PERIOD_DURATION",
      "outputs": [
        {
          "internalType": "uint256",
          "name": "",
          "type": "uint256"
        }
      ],
      "stateMutability": "view",
      "type": "function"
    },
    {
      "inputs": [],
      "name": "INCOME_SPLIT_RATE",
      "outputs": [
        {
          "internalType": "uint256",
          "name": "",
          "type": "uint256"
        }
      ],
      "stateMutability": "view",
      "type": "function"
    },
    {
      "inputs": [],
      "name": "MATCHING_OVERRIDE_RATE",
      "outputs": [
        {
          "internalType": "uint256",
          "name": "",
          "type": "uint256"
        }
      ],
      "stateMutability": "view",
      "type": "function"
    },
    {
      "inputs": [],
      "name": "MAX_USER_ID",
      "outputs": [
        {
          "internalType": "uint256",
          "name": "",
          "type": "uint256"
        }
      ],
      "stateMutability": "view",
      "type": "function"
    },
    {
      "inputs": [],
      "name": "MIN_USER_ID",
      "outputs": [
        {
          "internalType": "uint256",
          "name": "",
          "type": "uint256"
        }
      ],
      "stateMutability": "view",
      "type": "function"
    },
    {
      "inputs": [],
      "name": "PRODUCT_WALLET_RATE",
      "outputs": [
        {
          "internalType": "uint256",
          "name": "",
          "type": "uint256"
        }
      ],
      "stateMutability": "view",
      "type": "function"
    },
    {
      "inputs": [],
      "name": "WITHDRAWAL_MATCH_POOL_RATE",
      "outputs": [
        {
          "internalType": "uint256",
          "name": "",
          "type": "uint256"
        }
      ],
      "stateMutability": "view",
      "type": "function"
    },
    {
      "inputs": [
        {
          "internalType": "enum MLMContract.Package",
          "name": "_pkg",
          "type": "uint8"
        }
      ],
      "name": "activatePackage",
      "outputs": [],
      "stateMutability": "nonpayable",
      "type": "function"
    },
    {
      "inputs": [
        {
          "internalType": "address",
          "name": "_user",
          "type": "address"
        },
        {
          "internalType": "uint256",
          "name": "_sponsorId",
          "type": "uint256"
        },
        {
          "internalType": "uint256",
          "name": "_binaryParentId",
          "type": "uint256"
        },
        {
          "internalType": "bool",
          "name": "_placeLeft",
          "type": "bool"
        },
        {
          "internalType": "enum MLMContract.Package",
          "name": "_pkg",
          "type": "uint8"
        }
      ],
      "name": "adminActivateUser",
      "outputs": [],
      "stateMutability": "nonpayable",
      "type": "function"
    },
    {
      "inputs": [],
      "name": "adminBinaryWallet",
      "outputs": [
        {
          "internalType": "address",
          "name": "",
          "type": "address"
        }
      ],
      "stateMutability": "view",
      "type": "function"
    },
    {
      "inputs": [
        {
          "internalType": "address",
          "name": "_to",
          "type": "address"
        },
        {
          "internalType": "uint256",
          "name": "_amount",
          "type": "uint256"
        }
      ],
      "name": "adminWithdrawDeposits",
      "outputs": [],
      "stateMutability": "nonpayable",
      "type": "function"
    },
    {
      "inputs": [
        {
          "internalType": "uint256",
          "name": "",
          "type": "uint256"
        }
      ],
      "name": "allUsers",
      "outputs": [
        {
          "internalType": "address",
          "name": "",
          "type": "address"
        }
      ],
      "stateMutability": "view",
      "type": "function"
    },
    {
      "inputs": [
        {
          "internalType": "uint256",
          "name": "_batchNumber",
          "type": "uint256"
        }
      ],
      "name": "autoDistributeBinaryIncome",
      "outputs": [],
      "stateMutability": "nonpayable",
      "type": "function"
    },
    {
      "inputs": [
        {
          "internalType": "address[]",
          "name": "_users",
          "type": "address[]"
        }
      ],
      "name": "batchFlushGracePeriods",
      "outputs": [],
      "stateMutability": "nonpayable",
      "type": "function"
    },
    {
      "inputs": [],
      "name": "binaryBatchSize",
      "outputs": [
        {
          "internalType": "uint256",
          "name": "",
          "type": "uint256"
        }
      ],
      "stateMutability": "view",
      "type": "function"
    },
    {
      "inputs": [
        {
          "internalType": "address",
          "name": "",
          "type": "address"
        }
      ],
      "name": "boardEntryCount",
      "outputs": [
        {
          "internalType": "uint256",
          "name": "",
          "type": "uint256"
        }
      ],
      "stateMutability": "view",
      "type": "function"
    },
    {
      "inputs": [],
      "name": "boardHandler",
      "outputs": [
        {
          "internalType": "contract IBoardMatrixHandler",
          "name": "",
          "type": "address"
        }
      ],
      "stateMutability": "view",
      "type": "function"
    },
    {
      "inputs": [
        {
          "internalType": "address",
          "name": "",
          "type": "address"
        }
      ],
      "name": "btcPoolBalance",
      "outputs": [
        {
          "internalType": "uint256",
          "name": "",
          "type": "uint256"
        }
      ],
      "stateMutability": "view",
      "type": "function"
    },
    {
      "inputs": [],
      "name": "claimBinaryIncome",
      "outputs": [],
      "stateMutability": "nonpayable",
      "type": "function"
    },
    {
      "inputs": [
        {
          "internalType": "uint256",
          "name": "",
          "type": "uint256"
        }
      ],
      "name": "dailyCapping",
      "outputs": [
        {
          "internalType": "uint256",
          "name": "",
          "type": "uint256"
        }
      ],
      "stateMutability": "view",
      "type": "function"
    },
    {
      "inputs": [
        {
          "internalType": "uint256",
          "name": "_amount",
          "type": "uint256"
        }
      ],
      "name": "deposit",
      "outputs": [],
      "stateMutability": "nonpayable",
      "type": "function"
    },
    {
      "inputs": [
        {
          "internalType": "address",
          "name": "",
          "type": "address"
        }
      ],
      "name": "depositBalance",
      "outputs": [
        {
          "internalType": "uint256",
          "name": "",
          "type": "uint256"
        }
      ],
      "stateMutability": "view",
      "type": "function"
    },
    {
      "inputs": [
        {
          "internalType": "uint256",
          "name": "",
          "type": "uint256"
        }
      ],
      "name": "directRates",
      "outputs": [
        {
          "internalType": "uint256",
          "name": "",
          "type": "uint256"
        }
      ],
      "stateMutability": "view",
      "type": "function"
    },
    {
      "inputs": [
        {
          "internalType": "address",
          "name": "",
          "type": "address"
        },
        {
          "internalType": "uint256",
          "name": "",
          "type": "uint256"
        }
      ],
      "name": "directReferrals",
      "outputs": [
        {
          "internalType": "address",
          "name": "",
          "type": "address"
        }
      ],
      "stateMutability": "view",
      "type": "function"
    },
    {
      "inputs": [],
      "name": "enterBoardPool",
      "outputs": [],
      "stateMutability": "nonpayable",
      "type": "function"
    },
    {
      "inputs": [],
      "name": "feeRecipient",
      "outputs": [
        {
          "internalType": "address",
          "name": "",
          "type": "address"
        }
      ],
      "stateMutability": "view",
      "type": "function"
    },
    {
      "inputs": [
        {
          "internalType": "address",
          "name": "_user",
          "type": "address"
        }
      ],
      "name": "flushGracePeriod",
      "outputs": [],
      "stateMutability": "nonpayable",
      "type": "function"
    },
    {
      "inputs": [
        {
          "internalType": "uint256",
          "name": "_userId",
          "type": "uint256"
        }
      ],
      "name": "getAddressByUserId",
      "outputs": [
        {
          "internalType": "address",
          "name": "",
          "type": "address"
        }
      ],
      "stateMutability": "view",
      "type": "function"
    },
    {
      "inputs": [
        {
          "internalType": "address",
          "name": "_user",
          "type": "address"
        }
      ],
      "name": "getBinaryInfo",
      "outputs": [
        {
          "internalType": "uint256",
          "name": "leftBusiness",
          "type": "uint256"
        },
        {
          "internalType": "uint256",
          "name": "rightBusiness",
          "type": "uint256"
        },
        {
          "internalType": "uint256",
          "name": "carryLeft",
          "type": "uint256"
        },
        {
          "internalType": "uint256",
          "name": "carryRight",
          "type": "uint256"
        },
        {
          "internalType": "uint256",
          "name": "todayBinaryIncome",
          "type": "uint256"
        },
        {
          "internalType": "uint256",
          "name": "dailyCap",
          "type": "uint256"
        },
        {
          "internalType": "uint256",
          "name": "claimableBinaryIncome",
          "type": "uint256"
        },
        {
          "internalType": "uint256",
          "name": "binaryDepth",
          "type": "uint256"
        }
      ],
      "stateMutability": "view",
      "type": "function"
    },
    {
      "inputs": [
        {
          "internalType": "address",
          "name": "_user",
          "type": "address"
        }
      ],
      "name": "getBinarySlabInfo",
      "outputs": [
        {
          "internalType": "uint256[4]",
          "name": "carryLeftSlabs",
          "type": "uint256[4]"
        },
        {
          "internalType": "uint256[4]",
          "name": "carryRightSlabs",
          "type": "uint256[4]"
        },
        {
          "internalType": "uint256[4]",
          "name": "matchableSlabs",
          "type": "uint256[4]"
        },
        {
          "internalType": "uint256[4]",
          "name": "potentialIncomeSlabs",
          "type": "uint256[4]"
        },
        {
          "internalType": "uint256[4]",
          "name": "rates",
          "type": "uint256[4]"
        }
      ],
      "stateMutability": "view",
      "type": "function"
    },
    {
      "inputs": [
        {
          "internalType": "uint256",
          "name": "_boardLevel",
          "type": "uint256"
        }
      ],
      "name": "getBoardCurrentIndex",
      "outputs": [
        {
          "internalType": "uint256",
          "name": "",
          "type": "uint256"
        }
      ],
      "stateMutability": "view",
      "type": "function"
    },
    {
      "inputs": [
        {
          "internalType": "uint256",
          "name": "_boardLevel",
          "type": "uint256"
        },
        {
          "internalType": "uint256",
          "name": "_index",
          "type": "uint256"
        }
      ],
      "name": "getBoardMatrixInfo",
      "outputs": [
        {
          "internalType": "address",
          "name": "owner",
          "type": "address"
        },
        {
          "internalType": "uint256",
          "name": "filledCount",
          "type": "uint256"
        },
        {
          "internalType": "bool",
          "name": "completed",
          "type": "bool"
        }
      ],
      "stateMutability": "view",
      "type": "function"
    },
    {
      "inputs": [
        {
          "internalType": "uint256",
          "name": "_boardLevel",
          "type": "uint256"
        }
      ],
      "name": "getBoardPrice",
      "outputs": [
        {
          "internalType": "uint256",
          "name": "",
          "type": "uint256"
        }
      ],
      "stateMutability": "view",
      "type": "function"
    },
    {
      "inputs": [
        {
          "internalType": "uint256",
          "name": "_boardLevel",
          "type": "uint256"
        }
      ],
      "name": "getBoardQueueLength",
      "outputs": [
        {
          "internalType": "uint256",
          "name": "",
          "type": "uint256"
        }
      ],
      "stateMutability": "view",
      "type": "function"
    },
    {
      "inputs": [
        {
          "internalType": "address",
          "name": "_user",
          "type": "address"
        }
      ],
      "name": "getBtcPoolBalance",
      "outputs": [
        {
          "internalType": "uint256",
          "name": "",
          "type": "uint256"
        }
      ],
      "stateMutability": "view",
      "type": "function"
    },
    {
      "inputs": [],
      "name": "getContractBalance",
      "outputs": [
        {
          "internalType": "uint256",
          "name": "",
          "type": "uint256"
        }
      ],
      "stateMutability": "view",
      "type": "function"
    },
    {
      "inputs": [
        {
          "internalType": "address",
          "name": "_user",
          "type": "address"
        }
      ],
      "name": "getDepositBalance",
      "outputs": [
        {
          "internalType": "uint256",
          "name": "",
          "type": "uint256"
        }
      ],
      "stateMutability": "view",
      "type": "function"
    },
    {
      "inputs": [
        {
          "internalType": "address",
          "name": "_user",
          "type": "address"
        }
      ],
      "name": "getDirectReferrals",
      "outputs": [
        {
          "internalType": "address[]",
          "name": "",
          "type": "address[]"
        }
      ],
      "stateMutability": "view",
      "type": "function"
    },
    {
      "inputs": [
        {
          "internalType": "address",
          "name": "_user",
          "type": "address"
        },
        {
          "internalType": "uint256",
          "name": "_offset",
          "type": "uint256"
        },
        {
          "internalType": "uint256",
          "name": "_limit",
          "type": "uint256"
        }
      ],
      "name": "getDirectReferralsPaginated",
      "outputs": [
        {
          "internalType": "address[]",
          "name": "referrals",
          "type": "address[]"
        },
        {
          "internalType": "uint256",
          "name": "total",
          "type": "uint256"
        }
      ],
      "stateMutability": "view",
      "type": "function"
    },
    {
      "inputs": [
        {
          "internalType": "address",
          "name": "_user",
          "type": "address"
        }
      ],
      "name": "getIncomeInfo",
      "outputs": [
        {
          "internalType": "uint256",
          "name": "totalDirectIncome",
          "type": "uint256"
        },
        {
          "internalType": "uint256",
          "name": "totalBinaryIncome",
          "type": "uint256"
        },
        {
          "internalType": "uint256",
          "name": "totalMatchingOverrideIncome",
          "type": "uint256"
        },
        {
          "internalType": "uint256",
          "name": "totalWithdrawalMatchIncome",
          "type": "uint256"
        },
        {
          "internalType": "uint256",
          "name": "totalEarnings",
          "type": "uint256"
        },
        {
          "internalType": "uint256",
          "name": "totalWithdrawn",
          "type": "uint256"
        },
        {
          "internalType": "uint256",
          "name": "maxIncome",
          "type": "uint256"
        }
      ],
      "stateMutability": "view",
      "type": "function"
    },
    {
      "inputs": [
        {
          "internalType": "enum MLMContract.Package",
          "name": "_pkg",
          "type": "uint8"
        }
      ],
      "name": "getMaxIncomeLimit",
      "outputs": [
        {
          "internalType": "uint256",
          "name": "",
          "type": "uint256"
        }
      ],
      "stateMutability": "view",
      "type": "function"
    },
    {
      "inputs": [
        {
          "internalType": "enum MLMContract.Package",
          "name": "_pkg",
          "type": "uint8"
        }
      ],
      "name": "getPackagePrice",
      "outputs": [
        {
          "internalType": "uint256",
          "name": "",
          "type": "uint256"
        }
      ],
      "stateMutability": "view",
      "type": "function"
    },
    {
      "inputs": [
        {
          "internalType": "address",
          "name": "_user",
          "type": "address"
        }
      ],
      "name": "getProfile",
      "outputs": [
        {
          "internalType": "string",
          "name": "displayName",
          "type": "string"
        },
        {
          "internalType": "string",
          "name": "email",
          "type": "string"
        },
        {
          "internalType": "string",
          "name": "phone",
          "type": "string"
        },
        {
          "internalType": "string",
          "name": "country",
          "type": "string"
        },
        {
          "internalType": "bool",
          "name": "profileSet",
          "type": "bool"
        }
      ],
      "stateMutability": "view",
      "type": "function"
    },
    {
      "inputs": [],
      "name": "getTotalBatches",
      "outputs": [
        {
          "internalType": "uint256",
          "name": "",
          "type": "uint256"
        }
      ],
      "stateMutability": "view",
      "type": "function"
    },
    {
      "inputs": [],
      "name": "getTotalUsers",
      "outputs": [
        {
          "internalType": "uint256",
          "name": "",
          "type": "uint256"
        }
      ],
      "stateMutability": "view",
      "type": "function"
    },
    {
      "inputs": [
        {
          "internalType": "uint256",
          "name": "_index",
          "type": "uint256"
        }
      ],
      "name": "getUserByIndex",
      "outputs": [
        {
          "internalType": "address",
          "name": "",
          "type": "address"
        }
      ],
      "stateMutability": "view",
      "type": "function"
    },
    {
      "inputs": [
        {
          "internalType": "address",
          "name": "_user",
          "type": "address"
        }
      ],
      "name": "getUserIdByAddress",
      "outputs": [
        {
          "internalType": "uint256",
          "name": "",
          "type": "uint256"
        }
      ],
      "stateMutability": "view",
      "type": "function"
    },
    {
      "inputs": [
        {
          "internalType": "address",
          "name": "_user",
          "type": "address"
        }
      ],
      "name": "getUserInfo",
      "outputs": [
        {
          "internalType": "uint256",
          "name": "userId",
          "type": "uint256"
        },
        {
          "internalType": "address",
          "name": "sponsor",
          "type": "address"
        },
        {
          "internalType": "address",
          "name": "binaryParent",
          "type": "address"
        },
        {
          "internalType": "address",
          "name": "leftChild",
          "type": "address"
        },
        {
          "internalType": "address",
          "name": "rightChild",
          "type": "address"
        },
        {
          "internalType": "enum MLMContract.Side",
          "name": "placementSide",
          "type": "uint8"
        },
        {
          "internalType": "enum MLMContract.Package",
          "name": "userPackage",
          "type": "uint8"
        },
        {
          "internalType": "enum MLMContract.Status",
          "name": "status",
          "type": "uint8"
        },
        {
          "internalType": "uint256",
          "name": "walletBalance",
          "type": "uint256"
        },
        {
          "internalType": "uint256",
          "name": "tempWalletBalance",
          "type": "uint256"
        },
        {
          "internalType": "uint256",
          "name": "totalEarnings",
          "type": "uint256"
        },
        {
          "internalType": "uint256",
          "name": "directReferralCount",
          "type": "uint256"
        },
        {
          "internalType": "uint256",
          "name": "joinedAt",
          "type": "uint256"
        }
      ],
      "stateMutability": "view",
      "type": "function"
    },
    {
      "inputs": [
        {
          "internalType": "address",
          "name": "_user",
          "type": "address"
        }
      ],
      "name": "getUserTransactionCount",
      "outputs": [
        {
          "internalType": "uint256",
          "name": "",
          "type": "uint256"
        }
      ],
      "stateMutability": "view",
      "type": "function"
    },
    {
      "inputs": [
        {
          "internalType": "address",
          "name": "_user",
          "type": "address"
        },
        {
          "internalType": "uint256",
          "name": "_offset",
          "type": "uint256"
        },
        {
          "internalType": "uint256",
          "name": "_limit",
          "type": "uint256"
        }
      ],
      "name": "getUserTransactionsPaginated",
      "outputs": [
        {
          "internalType": "enum MLMContract.TxType[]",
          "name": "txTypes",
          "type": "uint8[]"
        },
        {
          "internalType": "uint256[]",
          "name": "amounts",
          "type": "uint256[]"
        },
        {
          "internalType": "uint256[]",
          "name": "timestamps",
          "type": "uint256[]"
        },
        {
          "internalType": "address[]",
          "name": "relatedUsers",
          "type": "address[]"
        },
        {
          "internalType": "uint8[]",
          "name": "extraDatas",
          "type": "uint8[]"
        },
        {
          "internalType": "uint256",
          "name": "total",
          "type": "uint256"
        }
      ],
      "stateMutability": "view",
      "type": "function"
    },
    {
      "inputs": [
        {
          "internalType": "address",
          "name": "",
          "type": "address"
        }
      ],
      "name": "isBinaryProcessor",
      "outputs": [
        {
          "internalType": "bool",
          "name": "",
          "type": "bool"
        }
      ],
      "stateMutability": "view",
      "type": "function"
    },
    {
      "inputs": [
        {
          "internalType": "address",
          "name": "",
          "type": "address"
        }
      ],
      "name": "isFreeAccount",
      "outputs": [
        {
          "internalType": "bool",
          "name": "",
          "type": "bool"
        }
      ],
      "stateMutability": "view",
      "type": "function"
    },
    {
      "inputs": [
        {
          "internalType": "address",
          "name": "",
          "type": "address"
        }
      ],
      "name": "isRegistered",
      "outputs": [
        {
          "internalType": "bool",
          "name": "",
          "type": "bool"
        }
      ],
      "stateMutability": "view",
      "type": "function"
    },
    {
      "inputs": [
        {
          "internalType": "address",
          "name": "_user",
          "type": "address"
        },
        {
          "internalType": "uint256",
          "name": "_price",
          "type": "uint256"
        },
        {
          "internalType": "uint256",
          "name": "_boardLevel",
          "type": "uint256"
        }
      ],
      "name": "logBoardEntry",
      "outputs": [],
      "stateMutability": "nonpayable",
      "type": "function"
    },
    {
      "inputs": [
        {
          "internalType": "address",
          "name": "_user",
          "type": "address"
        },
        {
          "internalType": "uint256",
          "name": "_reward",
          "type": "uint256"
        },
        {
          "internalType": "uint256",
          "name": "_boardLevel",
          "type": "uint256"
        }
      ],
      "name": "logBoardReward",
      "outputs": [],
      "stateMutability": "nonpayable",
      "type": "function"
    },
    {
      "inputs": [],
      "name": "mToken",
      "outputs": [
        {
          "internalType": "contract IERC20",
          "name": "",
          "type": "address"
        }
      ],
      "stateMutability": "view",
      "type": "function"
    },
    {
      "inputs": [
        {
          "internalType": "uint256",
          "name": "",
          "type": "uint256"
        }
      ],
      "name": "matchingOverrideMaxLevels",
      "outputs": [
        {
          "internalType": "uint256",
          "name": "",
          "type": "uint256"
        }
      ],
      "stateMutability": "view",
      "type": "function"
    },
    {
      "inputs": [
        {
          "internalType": "uint256",
          "name": "",
          "type": "uint256"
        }
      ],
      "name": "maxIncomeLimit",
      "outputs": [
        {
          "internalType": "uint256",
          "name": "",
          "type": "uint256"
        }
      ],
      "stateMutability": "view",
      "type": "function"
    },
    {
      "inputs": [],
      "name": "owner",
      "outputs": [
        {
          "internalType": "address",
          "name": "",
          "type": "address"
        }
      ],
      "stateMutability": "view",
      "type": "function"
    },
    {
      "inputs": [
        {
          "internalType": "uint256",
          "name": "",
          "type": "uint256"
        }
      ],
      "name": "packagePrices",
      "outputs": [
        {
          "internalType": "uint256",
          "name": "",
          "type": "uint256"
        }
      ],
      "stateMutability": "view",
      "type": "function"
    },
    {
      "inputs": [],
      "name": "pause",
      "outputs": [],
      "stateMutability": "nonpayable",
      "type": "function"
    },
    {
      "inputs": [],
      "name": "paused",
      "outputs": [
        {
          "internalType": "bool",
          "name": "",
          "type": "bool"
        }
      ],
      "stateMutability": "view",
      "type": "function"
    },
    {
      "inputs": [],
      "name": "paymentToken",
      "outputs": [
        {
          "internalType": "contract IERC20",
          "name": "",
          "type": "address"
        }
      ],
      "stateMutability": "view",
      "type": "function"
    },
    {
      "inputs": [],
      "name": "productWallet",
      "outputs": [
        {
          "internalType": "address",
          "name": "",
          "type": "address"
        }
      ],
      "stateMutability": "view",
      "type": "function"
    },
    {
      "inputs": [
        {
          "internalType": "enum MLMContract.Package",
          "name": "_pkg",
          "type": "uint8"
        }
      ],
      "name": "reactivate",
      "outputs": [],
      "stateMutability": "nonpayable",
      "type": "function"
    },
    {
      "inputs": [
        {
          "internalType": "address",
          "name": "_token",
          "type": "address"
        },
        {
          "internalType": "address",
          "name": "_to",
          "type": "address"
        },
        {
          "internalType": "uint256",
          "name": "_amount",
          "type": "uint256"
        }
      ],
      "name": "recoverToken",
      "outputs": [],
      "stateMutability": "nonpayable",
      "type": "function"
    },
    {
      "inputs": [
        {
          "internalType": "uint256",
          "name": "_sponsorId",
          "type": "uint256"
        },
        {
          "internalType": "uint256",
          "name": "_binaryParentId",
          "type": "uint256"
        },
        {
          "internalType": "bool",
          "name": "_placeLeft",
          "type": "bool"
        }
      ],
      "name": "register",
      "outputs": [],
      "stateMutability": "nonpayable",
      "type": "function"
    },
    {
      "inputs": [],
      "name": "renounceOwnership",
      "outputs": [],
      "stateMutability": "nonpayable",
      "type": "function"
    },
    {
      "inputs": [],
      "name": "repurchase",
      "outputs": [],
      "stateMutability": "nonpayable",
      "type": "function"
    },
    {
      "inputs": [
        {
          "internalType": "address",
          "name": "_wallet",
          "type": "address"
        }
      ],
      "name": "setAdminBinaryWallet",
      "outputs": [],
      "stateMutability": "nonpayable",
      "type": "function"
    },
    {
      "inputs": [
        {
          "internalType": "uint256",
          "name": "_size",
          "type": "uint256"
        }
      ],
      "name": "setBinaryBatchSize",
      "outputs": [],
      "stateMutability": "nonpayable",
      "type": "function"
    },
    {
      "inputs": [
        {
          "internalType": "address",
          "name": "_processor",
          "type": "address"
        },
        {
          "internalType": "bool",
          "name": "_status",
          "type": "bool"
        }
      ],
      "name": "setBinaryProcessor",
      "outputs": [],
      "stateMutability": "nonpayable",
      "type": "function"
    },
    {
      "inputs": [
        {
          "internalType": "address",
          "name": "_handler",
          "type": "address"
        }
      ],
      "name": "setBoardHandler",
      "outputs": [],
      "stateMutability": "nonpayable",
      "type": "function"
    },
    {
      "inputs": [
        {
          "internalType": "enum MLMContract.Package",
          "name": "_pkg",
          "type": "uint8"
        },
        {
          "internalType": "uint256",
          "name": "_cap",
          "type": "uint256"
        }
      ],
      "name": "setDailyCapping",
      "outputs": [],
      "stateMutability": "nonpayable",
      "type": "function"
    },
    {
      "inputs": [
        {
          "internalType": "address",
          "name": "_newRecipient",
          "type": "address"
        }
      ],
      "name": "setFeeRecipient",
      "outputs": [],
      "stateMutability": "nonpayable",
      "type": "function"
    },
    {
      "inputs": [
        {
          "internalType": "address",
          "name": "_token",
          "type": "address"
        }
      ],
      "name": "setMToken",
      "outputs": [],
      "stateMutability": "nonpayable",
      "type": "function"
    },
    {
      "inputs": [
        {
          "internalType": "enum MLMContract.Package",
          "name": "_pkg",
          "type": "uint8"
        },
        {
          "internalType": "uint256",
          "name": "_limit",
          "type": "uint256"
        }
      ],
      "name": "setMaxIncomeLimit",
      "outputs": [],
      "stateMutability": "nonpayable",
      "type": "function"
    },
    {
      "inputs": [
        {
          "internalType": "enum MLMContract.Package",
          "name": "_pkg",
          "type": "uint8"
        },
        {
          "internalType": "uint256",
          "name": "_price",
          "type": "uint256"
        }
      ],
      "name": "setPackagePrice",
      "outputs": [],
      "stateMutability": "nonpayable",
      "type": "function"
    },
    {
      "inputs": [
        {
          "internalType": "address",
          "name": "_wallet",
          "type": "address"
        }
      ],
      "name": "setProductWallet",
      "outputs": [],
      "stateMutability": "nonpayable",
      "type": "function"
    },
    {
      "inputs": [
        {
          "internalType": "string",
          "name": "_displayName",
          "type": "string"
        },
        {
          "internalType": "string",
          "name": "_email",
          "type": "string"
        },
        {
          "internalType": "string",
          "name": "_phone",
          "type": "string"
        },
        {
          "internalType": "string",
          "name": "_country",
          "type": "string"
        }
      ],
      "name": "setProfile",
      "outputs": [],
      "stateMutability": "nonpayable",
      "type": "function"
    },
    {
      "inputs": [
        {
          "internalType": "uint256",
          "name": "_feeBasisPoints",
          "type": "uint256"
        }
      ],
      "name": "setWithdrawalFee",
      "outputs": [],
      "stateMutability": "nonpayable",
      "type": "function"
    },
    {
      "inputs": [
        {
          "internalType": "uint256",
          "name": "_rateBasisPoints",
          "type": "uint256"
        }
      ],
      "name": "setWithdrawalUsdtRate",
      "outputs": [],
      "stateMutability": "nonpayable",
      "type": "function"
    },
    {
      "inputs": [
        {
          "internalType": "uint256",
          "name": "",
          "type": "uint256"
        }
      ],
      "name": "slabRates",
      "outputs": [
        {
          "internalType": "uint256",
          "name": "",
          "type": "uint256"
        }
      ],
      "stateMutability": "view",
      "type": "function"
    },
    {
      "inputs": [],
      "name": "tokenDecimals",
      "outputs": [
        {
          "internalType": "uint8",
          "name": "",
          "type": "uint8"
        }
      ],
      "stateMutability": "view",
      "type": "function"
    },
    {
      "inputs": [],
      "name": "totalBinaryFlushed",
      "outputs": [
        {
          "internalType": "uint256",
          "name": "",
          "type": "uint256"
        }
      ],
      "stateMutability": "view",
      "type": "function"
    },
    {
      "inputs": [
        {
          "internalType": "address",
          "name": "newOwner",
          "type": "address"
        }
      ],
      "name": "transferOwnership",
      "outputs": [],
      "stateMutability": "nonpayable",
      "type": "function"
    },
    {
      "inputs": [],
      "name": "unpause",
      "outputs": [],
      "stateMutability": "nonpayable",
      "type": "function"
    },
    {
      "inputs": [
        {
          "internalType": "address",
          "name": "_token",
          "type": "address"
        },
        {
          "internalType": "uint8",
          "name": "_decimals",
          "type": "uint8"
        }
      ],
      "name": "updatePaymentToken",
      "outputs": [],
      "stateMutability": "nonpayable",
      "type": "function"
    },
    {
      "inputs": [
        {
          "internalType": "uint256",
          "name": "",
          "type": "uint256"
        }
      ],
      "name": "userIdTaken",
      "outputs": [
        {
          "internalType": "bool",
          "name": "",
          "type": "bool"
        }
      ],
      "stateMutability": "view",
      "type": "function"
    },
    {
      "inputs": [
        {
          "internalType": "uint256",
          "name": "",
          "type": "uint256"
        }
      ],
      "name": "userIdToAddress",
      "outputs": [
        {
          "internalType": "address",
          "name": "",
          "type": "address"
        }
      ],
      "stateMutability": "view",
      "type": "function"
    },
    {
      "inputs": [
        {
          "internalType": "address",
          "name": "",
          "type": "address"
        }
      ],
      "name": "users",
      "outputs": [
        {
          "internalType": "uint256",
          "name": "userId",
          "type": "uint256"
        },
        {
          "internalType": "address",
          "name": "sponsor",
          "type": "address"
        },
        {
          "internalType": "address",
          "name": "binaryParent",
          "type": "address"
        },
        {
          "internalType": "address",
          "name": "leftChild",
          "type": "address"
        },
        {
          "internalType": "address",
          "name": "rightChild",
          "type": "address"
        },
        {
          "internalType": "enum MLMContract.Side",
          "name": "placementSide",
          "type": "uint8"
        },
        {
          "internalType": "enum MLMContract.Package",
          "name": "userPackage",
          "type": "uint8"
        },
        {
          "internalType": "enum MLMContract.Status",
          "name": "status",
          "type": "uint8"
        },
        {
          "internalType": "uint256",
          "name": "walletBalance",
          "type": "uint256"
        },
        {
          "internalType": "uint256",
          "name": "tempWalletBalance",
          "type": "uint256"
        },
        {
          "internalType": "uint256",
          "name": "totalDirectIncome",
          "type": "uint256"
        },
        {
          "internalType": "uint256",
          "name": "totalBinaryIncome",
          "type": "uint256"
        },
        {
          "internalType": "uint256",
          "name": "totalMatchingOverrideIncome",
          "type": "uint256"
        },
        {
          "internalType": "uint256",
          "name": "totalWithdrawalMatchIncome",
          "type": "uint256"
        },
        {
          "internalType": "uint256",
          "name": "totalEarnings",
          "type": "uint256"
        },
        {
          "internalType": "uint256",
          "name": "leftBusiness",
          "type": "uint256"
        },
        {
          "internalType": "uint256",
          "name": "rightBusiness",
          "type": "uint256"
        },
        {
          "internalType": "uint256",
          "name": "carryLeft",
          "type": "uint256"
        },
        {
          "internalType": "uint256",
          "name": "carryRight",
          "type": "uint256"
        },
        {
          "internalType": "uint256",
          "name": "todayBinaryIncome",
          "type": "uint256"
        },
        {
          "internalType": "uint256",
          "name": "lastBinaryResetDay",
          "type": "uint256"
        },
        {
          "internalType": "uint256",
          "name": "directReferralCount",
          "type": "uint256"
        },
        {
          "internalType": "uint256",
          "name": "gracePeriodStart",
          "type": "uint256"
        },
        {
          "internalType": "uint256",
          "name": "joinedAt",
          "type": "uint256"
        },
        {
          "internalType": "uint256",
          "name": "totalWithdrawn",
          "type": "uint256"
        },
        {
          "internalType": "uint256",
          "name": "claimableBinaryIncome",
          "type": "uint256"
        },
        {
          "internalType": "uint256",
          "name": "binaryDepth",
          "type": "uint256"
        },
        {
          "internalType": "string",
          "name": "displayName",
          "type": "string"
        },
        {
          "internalType": "string",
          "name": "email",
          "type": "string"
        },
        {
          "internalType": "string",
          "name": "phone",
          "type": "string"
        },
        {
          "internalType": "string",
          "name": "country",
          "type": "string"
        },
        {
          "internalType": "bool",
          "name": "profileSet",
          "type": "bool"
        }
      ],
      "stateMutability": "view",
      "type": "function"
    },
    {
      "inputs": [
        {
          "internalType": "uint256",
          "name": "_amount",
          "type": "uint256"
        }
      ],
      "name": "withdraw",
      "outputs": [],
      "stateMutability": "nonpayable",
      "type": "function"
    },
    {
      "inputs": [
        {
          "internalType": "address",
          "name": "_to",
          "type": "address"
        },
        {
          "internalType": "uint256",
          "name": "_amount",
          "type": "uint256"
        }
      ],
      "name": "withdrawContractFunds",
      "outputs": [],
      "stateMutability": "nonpayable",
      "type": "function"
    },
    {
      "inputs": [],
      "name": "withdrawalFee",
      "outputs": [
        {
          "internalType": "uint256",
          "name": "",
          "type": "uint256"
        }
      ],
      "stateMutability": "view",
      "type": "function"
    },
    {
      "inputs": [
        {
          "internalType": "uint256",
          "name": "",
          "type": "uint256"
        }
      ],
      "name": "withdrawalMatchMaxLevels",
      "outputs": [
        {
          "internalType": "uint256",
          "name": "",
          "type": "uint256"
        }
      ],
      "stateMutability": "view",
      "type": "function"
    },
    {
      "inputs": [],
      "name": "withdrawalUsdtRate",
      "outputs": [
        {
          "internalType": "uint256",
          "name": "",
          "type": "uint256"
        }
      ],
      "stateMutability": "view",
      "type": "function"
    }
  ],
  "bytecode": "0x6080346200057857601f6200673838819003918201601f19168301916001600160401b03831184841017620004fd5780849260809460405283398101031262000578576200004d816200059d565b9060208101519060ff8216820362000578576200007b606062000073604084016200059d565b92016200059d565b9233156200055f5760008054336001600160a01b0319821681178355916001600160a01b03909116907f8be0079c531659141344cd1fd0a4f28419497f9722a3daafe3b4186f6b6457e09080a360017f9b779b17422d0df92223018b32b4d1fa46e071723d6817e2486d003becc55f00556127106006556032600e55620001016200057d565b600081526101f460208201526103e860408201526105dc60608201526107d060808201526109c460a0820152610bb860c082015260005b60078110620005455750506200014d6200057d565b60008152600160208201526003604082015260066060820152600a6080820152600f60a0820152601460c082015260005b600781106200052c575050620001936200057d565b6000815260016020820152600360408201526005606082015260096080820152600c60a0820152600f60c082015260005b60078110620005135750506040516001600160401b036080820190811190821117620004fd5760808101604052610bb881526107d060208201526103e860408201526101f4606082015260005b60048110620004e75750506001600160a01b0316908115620004bd576001600160a01b031692831562000493576001600160a01b03169081156200046957600180546001600160a01b03199081169290921790556002805460ff60a01b191660a085901b60ff60a01b16179055600380548216851790556004805482169094178455601680549091169190911790556000600555604d60ff821611620003eb5760ff16600a0a90600060185581603202603281048303620003eb57806019558260c80260c881048403620004545780601a5561025884810290810485036200043f5780601b556104b09085820291820486036200042a5781601c55610960928684029384048703620004155783601d556112c0948786029586048803620004005785601e556000602655602755602855602955602a55602b55602c556000602d558160fa0260fa81048303620003eb57602e55816103e8026103e881048303620003eb57602f5581610bb802610bb881048303620003eb576030556117708281029081048303620003eb57603155612ee08281029081048303620003eb57603255615dc09180830292830403620003d657506033556040516161859081620005b38239f35b601190634e487b7160e01b6000525260246000fd5b601182634e487b7160e01b6000525260246000fd5b601187634e487b7160e01b6000525260246000fd5b601186634e487b7160e01b6000525260246000fd5b601185634e487b7160e01b6000525260246000fd5b601184634e487b7160e01b6000525260246000fd5b601183634e487b7160e01b6000525260246000fd5b60405162461bcd60e51b8152602060048201526002602482015261494160f01b6044820152606490fd5b60405162461bcd60e51b815260206004820152600260248201526124a360f11b6044820152606490fd5b60405162461bcd60e51b8152602060048201526002602482015261125560f21b6044820152606490fd5b6001906020835193019281604201550162000211565b634e487b7160e01b600052604160045260246000fd5b600190602060ff84511693019281603b015501620001c4565b600190602060ff8451169301928160340155016200017e565b600190602061ffff84511693019281601f01550162000138565b604051631e4fbdf760e01b815260006004820152602490fd5b600080fd5b6040519060e082016001600160401b03811183821017620004fd57604052565b51906001600160a01b0382168203620005785756fe610300604052600436101561001357600080fd5b6000806102205280803560e01c908163012685f414614cc05781630327ef4914614bf657816305ad393514614b955781630b6a953914614b605781630d57a79c14614b345781630f53a47014614a70578163179bd5c814614a445781631915d956146149b05781631cdc545c1461492d5781631d64e5931461490c5781632bbf1a301461473c5781632c2896b3146146f95781632e1888b8146146945781632e1a7d4d146140cb5781632eee563e14613c4a5781633013ce2914613c1e57816331e1f29b14613b05578163385399f914613bc25781633ac272c214613b6a5781633b97e85614613b435781633d6bacf314613b055781633f4ba83a14613a895781634286064e14613a5d5781634526b4aa14613a3c578163463cffe6146139f957816346904840146139cd57816347cd5191146139475781634b695586146138ba57816355509c8f146132af578163556415d91461328f57816357f0140a14612f165781635a1faeb914612eea5781635c975abb14612ec25781636207f52214612aad578163624a893d14612a8c5781636386c1c71461299b57816369e94f4d146129235781636aa6c0ce146126d05781636d0364d7146123e35781636e0881da146126b05781636f9fb98a1461261e5781637115bba714611a8d578163715018a6146125d05781637feef9d6146125325781638225757b146124c85781638456cb591461245c57816385f8f11b146124305781638bc7e8c41461240f5781638d7b5690146123e35781638da5cb5b146123b957816392167de21461232c57816392446e3014611a8d578163956501bb146122ee5781639726b9f2146120395781639a688a9914611fc15781639be572f614611fa0578163a2bdedf414611f77578163a5ad058614611ecb578163a7229fd914611e41578163a87430ba14611b1f578163ac1e502514611a92578163ac6c264e14611a8d578163b169520114611a55578163b33dd0c914611a29578163b6b55f2514611932578163b882c4d8146118ba578163bbc18f6f14611899578163befbe97d146117e9578163c24be7fb146114d2578163c3b6f939146114a6578163c3c5a54714611463578163c9d484cf14611437578163ce0b2122146112db578163d117de03146112af578163d24af2b814611239578163d2c8e0e514611199578163d4a90286146110cf578163d58c617214610e38578163d8f3384014610dfa578163d9c842fd14610dc2578163d9f9f63f14610c8f578163e1f1c4a714610c6f578163e3ba9bda14610bf7578163e4093a6614610947578163e561dddc14610924578163e63619a5146108f7578163e74b981b14610882578163eb63e1c2146107ed578163ecdc590714610783578163ece2bc23146106d1578163ed05ae7814610698578163ef2c5c5014610678578163f00b00931461063f578163f2fde38b146105c457508063fc3c8a0c1461059b578063fc4a36f61461057f578063fdc65d6e146104cb5763ff5d32fe1461045c57600080fd5b346104c85760203660031901126104c857600435600b5481101561049e57610485602091614e57565b905460405160039290921b1c6001600160a01b03168152f35b60405162461bcd60e51b815260206004820152600260248201526127a160f11b6044820152606490fd5b80fd5b50346104c8576104da36614ef0565b906104e3615118565b60078110158061056b5760018210158061055b575b61050190615465565b6105475790816105417f36152e7515aada41257500317963ea57c35904a845e67c595f4e110377a08f209360180192808454945560405193849384616070565b0390a180f35b634e487b7160e01b83526021600452602483fd5b50506102205160068211156104f8565b634e487b7160e01b84526021600452602484fd5b50346104c857806003193601126104c857602060405160648152f35b50346104c857806003193601126104c8576004546040516001600160a01b039091168152602090f35b90503461063b57602036600319011261063b576105df614da1565b906105e8615118565b6001600160a01b039182169182156106225781546001600160a01b031981168417835516906000805160206160f08339815191529080a380f35b604051631e4fbdf760e01b815260048101859052602490fd5b5080fd5b82346104c85760203660031901126104c8576020906040906001600160a01b03610667614da1565b168152601383522054604051908152f35b82346104c857806003193601126104c857602060405164e8d4a50fff8152f35b82346104c85760203660031901126104c8576020906040906001600160a01b036106c0614da1565b168152601483522054604051908152f35b82346104c85760203660031901126104c8576001600160a01b036106f3614da1565b168152600760205260408120600c81015490600d81015490600e810154600f82015460188301549060ff600485015460a81c16600781101561076f5761010097506026015492601f601e86015495015495604051978852602088015260408701526060860152608085015260a084015260c083015260e0820152f35b634e487b7160e01b88526021600452602488fd5b82346104c8576107ea61079536614dbc565b909160018060a01b03906107ae82601554163314615aa6565b168452600c60205260ff6040852091604051936107ca85614fe8565b6008855260208501524260408501528560608501521660808301526154d6565b80f35b82346104c8576020918260031936011261063b576015546040516375b1f0e160e11b8152600480359082015291908490839060249082906001600160a01b03165afa9283156108765792610846575b5050604051908152f35b9091508282813d831161086f575b61085e818361504f565b810103126104c8575051828061083c565b503d610854565b604051903d90823e3d90fd5b82346104c85760203660031901126104c85761089c614da1565b6108a4615118565b6001600160a01b03908116906108bb82151561603f565b600380546001600160a01b031981168417909155167faaebcf1bfa00580e41d966056b48521fa9f202645c86d4ddf28113e617c1b1d38380a380f35b82346104c85760203660031901126104c857600435600781101561063b5760209060180154604051908152f35b82346104c857806003193601126104c857602061093f61608d565b604051908152f35b905034610b385761022051806003193601126104c8575061096661566d565b61096e615287565b33610220515260206008815261098d60ff604061022051205416615434565b33610220515260078152600160ff600460406102205120015460b01c166109b381614f64565b148015610bc5575b6109c490615aa6565b6015546001600160a01b03919082168015610b9b5781602491604051928380926347cd519160e01b8252600160048301525afa908115610b2a576102205191610b6a575b503361022051526012825280604061022051205410610b3f5790610aa2913361022051526012825260406102205120610a428282546152a8565b90553361022051526013825260406102205120610a5f8154615278565b9055336102205152600c8252604061022051209060405192610a8084614fe8565b60088452830152426040830152610220516060830152600160808301526154d6565b6015541690813b15610b38576040519163686a38bd60e01b835233600484015260016024840152826044816102205180945af18015610b2a57610af6575b8260016000805160206161308339815191525580f35b9091506001600160401b038211610b165750604052610220513880610ae0565b634e487b7160e01b81526041600452602490fd5b6040513d61022051823e3d90fd5b6102205180fd5b60405162461bcd60e51b815260048101839052600360248201526204942560ec1b6044820152606490fd5b90508181813d8311610b94575b610b81818361504f565b81010312610b90575138610a08565b8380fd5b503d610b77565b60405162461bcd60e51b8152600481018390526002602482015261084960f31b6044820152606490fd5b50336102205152600781526109c4600260ff600460406102205120015460b01c16610bef81614f64565b1490506109bb565b34610b38576020366003190112610b3857610c10614da1565b610c18615118565b6001600160a01b03908116610c2e81151561603f565b601580546001600160a01b0319811683179091556102205192167f8e4ac8019922eea64e9103a076c60b36ec30c71c863a376d6557ab9f6734c4848380a380f35b34610b385761022051806003193601126104c85760206040516127108152f35b34610b3857602080600319360112610b3857610ca9614da1565b610cb1615118565b60018060a01b031680610220515260088252610cd660ff604061022051205416615434565b80610220515260078252604061022051209160048301805490600260ff8360b01c16610d0181614f64565b03610d9857601b8501546202a3008101809111610d7e57421115610d545760066000805160206161108339815191529495019182549261022051905560ff60b01b19169055604051908152a26102205180f35b60405162461bcd60e51b8152600481018490526002602482015261474560f01b6044820152606490fd5b634e487b7160e01b61022051526011600452602461022051fd5b60405162461bcd60e51b81526004810184905260026024820152614e4760f01b6044820152606490fd5b34610b3857610df0610ddc610dd636614dbc565b91615de6565b604051928392604084526040840190614e1a565b9060208301520390f35b34610b38576020366003190112610b38576001600160a01b03610e1b614da1565b166102205152600c60205260206040610220512054604051908152f35b34610b385761022051806003193601126104c857610e5461566d565b610e5c615287565b336102205152602060088152610e7b60ff604061022051205416615434565b3361022051526007815260406102205120906004820190815460ff8160b01c16610ea481614f64565b80159081156110bb575b50156110915760a81c60ff166007811015611077576001811061104d57601801549160018060a01b0393610eea84866001541630903390615600565b6018600160b01b60ff60b01b19845416179182845561022051918183600b8194015582600682015582601b8201550155339052600c8352610220519060ff604083209160a81c16916007831015611035575091610f7660ff92869460405191610f5283614fe8565b610220518352868884015242604084015261022051606084015260808301526154d6565b5460a81c1691610f896040518094614f84565b8201527f0f71a293b26be95a1c2120e73a1712c62b20f254ae47eff7f6e799402984e6ab60403392a261177091828202928284041482151715610d7e57610fd8612710610ffe940480936152a8565b81600454168015158061102c575b611017575b505050610ff8813361569d565b336157c8565b6001600080516020616130833981519152556102205180f35b611024926001541661557f565b828080610feb565b50811515610fe6565b634e487b7160e01b9052602160045261022051602490fd5b60405162461bcd60e51b815260048101839052600260248201526104e560f41b6044820152606490fd5b634e487b7160e01b61022051526021600452602461022051fd5b60405162461bcd60e51b81526004810183905260026024820152614d4960f01b6044820152606490fd5b600291506110c881614f64565b1485610eae565b34610b38576040366003190112610b3857601554604051636a54814360e11b8152600480359082015260248035908201526001600160a01b03916060908290604490829086165afa8015610b2a57610220519182908392611144575b5060609360405193168352602083015215156040820152f35b925050506060813d8211611191575b816111606060938361504f565b81010312610b38578051918083168303610b3857604060208301519201518015158103610b3857909291606061112b565b3d9150611153565b34610b3857602080600319360112610b38576001600160a01b0390816111bd614da1565b166102205152600a81526040610220512091604051809384918482549182815201916102205152610220519385852094905b8683831061121d5785906112058287038361504f565b611219604051928284938452830190614e1a565b0390f35b86548216855260019687019689965094019391909101906111ef565b34610b38576112a861124a36614dbc565b909160018060a01b039061126382601554163314615aa6565b166102205152600c60205260ff60406102205120916040519361128585614fe8565b6009855260208501524260408501526102205160608501521660808301526154d6565b6102205180f35b34610b385761022051806003193601126104c8576016546040516001600160a01b039091168152602090f35b34610b3857602080600319360112610b3857600435906001600160401b0390818311610b385736602384011215610b38578260040135918211610b3857602492600590368585841b83010111610b3857611333615118565b610220515b848110611346576102205180f35b80831b82018601356001600160a01b0381169190829003610b385781610220515260088552610220519160ff92836040822054161561142b576040906007885220600481019360028554918260b01c1661139f81614f64565b0361141e57601b820154906202a3008201809211611405576113f69589924211156113fb57600660008051602061611083398151915294019182549261022051905560ff60b01b19169055604051908152a2615278565b611338565b5050505050615278565b8a634e487b7160e01b6102205152601160045261022051fd5b5050506113f69150615278565b50506113f69150615278565b34610b385761022051806003193601126104c8576015546040516001600160a01b039091168152602090f35b34610b38576020366003190112610b38576001600160a01b03611484614da1565b1661022051526008602052602060ff6040610220512054166040519015158152f35b34610b385761022051806003193601126104c8576002546040516001600160a01b039091168152602090f35b34610b38576060366003190112610b3857602435906044359081151582036104c857506114fd615287565b3361022051526020916008835261151e60ff60406102205120541615615144565b61022051600b5461171c57505050610220518091815b61153c6152b5565b918261022051526010815261022051604081209060ff1991600183825416179055600f8352604081209060018060a01b03199133838254161790553390526007835260406102205120858155600181019660018060a01b03809116978884825416179055600282019816978883825416179055600481016115bd86826151d7565b805460ff60b01b1916905542601c820155610220518815801592918a9181906117105750526007855261022051601f60408220015490600182018092116116f85750601f90915b01556116a1575b5084611662575b33610220515260088252600160406102205120918254161790556116353361521e565b60405192835261164482614f64565b8201526000805160206160d083398151915260403392a46102205180f35b846102205152600a825261167c336040610220512061525b565b84610220515260078252601a604061022051200161169a8154615278565b9055611612565b6116aa84614f64565b600184036116d65786610220515260078352600360406102205120019033908254161790555b8661160b565b86610220515260078352600460406102205120019033908254161790556116d0565b634e487b7160e01b9052601160045261022051602490fd5b9050601f915091611604565b6004359052600f8352610220519160018060a01b039182604085205416809481151590816117cd575b506117509150615175565b8061178157508291505b156117705761176890615408565b916001611534565b611779906153d7565b916002611534565b6102205152600f84526102205191604083205416809281151590816117b1575b506117ac91506151a6565b61175a565b905052600884526117ac60ff60406102205120541683916117a1565b9050526008855261175060ff6040610220512054168591611745565b34610b38576020366003190112610b38576001600160a01b0361180a614da1565b166102205152600760205261022051604081206007810154906008810154906009810154600a820154600b8301549160ff6004601d86015495015460a81c1660078110156118815760e09750602d015494604051968752602087015260408601526060850152608084015260a083015260c0820152f35b634e487b7160e01b8852602160045261022051602490fd5b34610b385761022051806003193601126104c85760206040516202a3008152f35b34610b38576020366003190112610b38576118d3614da1565b6118db615118565b6001600160a01b039081166118f181151561603f565b600280546001600160a01b0319811683179091556102205192167ffa56beaa7224e963963fc4c47c38a66d9813310693d7bb15814ea8e39b3351848380a380f35b34610b38576020366003190112610b385760043561194e61566d565b611956615287565b611961811515615ad7565b60015461197c908290309033906001600160a01b0316615600565b3361022051526014602052604061022051206119998282546151fb565b9055336102205152600c6020526119e460406102205120604051906119bd82614fe8565b600c82528360208301524260408301526102205160608301526102205160808301526154d6565b6040519081527f2da466a7b24304f47e87fa2e1e5a81b9831ce54fec19055ce277ca2f39ba42c460203392a26001600080516020616130833981519152556102205180f35b34610b38576020366003190112610b38576004356007811015610b3857602090603b0154604051908152f35b34610b38576020366003190112610b38576004356102205152600f602052602060018060a01b03604061022051205416604051908152f35b614f91565b34610b38576020366003190112610b3857600435611aae615118565b6107d08111611af55760407f72aa1ef4707dfa7defd1468e6ffc70bf9517ce19e3afad93fcf4be42f2d494f591600554908060055582519182526020820152a16102205180f35b60405162461bcd60e51b815260206004820152600260248201526108c960f31b6044820152606490fd5b34610b38576020366003190112610b38576001600160a01b03611b40614da1565b610220805191909216905260076020818152915160409020610100819052805461024052600181015460028201546001600160a01b039081166102a052600383015481166102c0526004830154600584015460068501549585015460088601546009870154600a880154600b890154600c8a0154600d8b0154600e8c0154600f8d015460188e01546102605260198e015461028052601a8e01546101a052601b8e0154608052601c8e015460c052601d8e015461016052601e8e015460e052601f8e01546102e0529e909d919c929b939a949995989697969195919460ff949293921691611c2e9101615072565b61012052611c4160216101005101615072565b61014052611c5460226101005101615072565b6101e052611c6760236101005101615072565b610200528260246101005101541661018052604051806101c05261024051905260206101c05101526102a05160406101c05101526102c05160606101c051015260018060a01b03811660806101c0510152818160a01c16611cc781614f64565b60a06101c0510152611ce460c06101c05101838360a81c16614f84565b60b01c16611cf181614f64565b60e06101c05101526101006101c05101526101206101c05101526101406101c05101526101606101c05101526101806101c05101526101a06101c05101526101c0805101526101e06101c05101526102006101c05101526102206101c05101526102406101c0510152610260516102606101c0510152610280516102806101c05101526101a0516102a06101c05101526080516102c06101c051015260c0516102e06101c0510152610160516103006101c051015260e0516103206101c05101526102e0516103406101c0510152611e28611e12611dfc611de6610400806103606101c05101526101c0510161012051614eb0565b6101c05161038081830391015261014051614eb0565b6101c0516103a08183039101526101e051614eb0565b6101c0516103c081830391015261020051614eb0565b6101805115156103e06101c05101526101c05180910390f35b34610b38576060366003190112610b3857611e5a614da1565b6001600160a01b03602435818116939092908484036104c857507f238062e33e7062c4aeccb2acac43aecc0b1a1ca891a5bc84a689f2272cb39a4391611ebd602092604435928391611eaa615118565b611eb589151561603f565b16958661557f565b604051908152a36102205180f35b34610b38576040366003190112610b3857611ee4614da1565b60243590611ef0615118565b6001600160a01b03818116928315611f4d57611f3f817f4482101800a5c2e900f4156e57e05e19ffd7b366cde579553d723fd3abb2180e94602094611f36831515615ad7565b6001541661557f565b604051908152a26102205180f35b60405162461bcd60e51b81526020600482015260026024820152615a4160f01b6044820152606490fd5b34610b38576020366003190112610b3857600435600b54811015610b3857610485602091614e57565b34610b385761022051806003193601126104c8576020600b54604051908152f35b34610b38576020366003190112610b3857611fda614da1565b611fe2615118565b6001600160a01b03908116611ff881151561603f565b600480546001600160a01b0319811683179091556102205192167f21f871938092b6a1ed13c23a49ad1a6fa6867d23d64fa2091bc0aaa90846e7c38380a380f35b34610b3857602080600319360112610b3857600435906007821015610b385761206061566d565b612068615287565b3361022051526008815261208560ff604061022051205416615434565b3361022051526007815260406102205120916004830192835460ff8160b01c166120ae81614f64565b600281149081156122dc575b50156122b25760ff906120d06001851015615465565b60a81c16600781101561107757821061228857816018015492839160018060a01b039561210584886001541630903390615600565b600260ff825460b01c1661211881614f64565b146121fb575b906018916102205160068301556121358682615496565b600160b01b60ff60b01b1982541617905561022051918183600b8194015582601b8201550155339052600c815261219f604061022051206040519061217982614fe8565b60028252848483015242604083015261022051606083015260ff861660808301526154d6565b6121ac6040518094614f84565b8201527f0bd98106504d2095c105d0f8fd19c12fb6c359200dcce844743a92dc040cb7b360403392a261177091828202928284041482151715610d7e57610fd8612710610ffe940480936152a8565b9250601b810154906202a3008201809211610d7e57859360189242116122655760068201546005830161222f8282546151fb565b90556040519081527fc0a2b7349514b2ee49057e2265dcf10bd91be42a7f6a1144164df1f0e303a8eb853392a25b90915061211e565b6006820154604051908152600080516020616110833981519152853392a261225d565b60405162461bcd60e51b815260048101849052600260248201526110d160f21b6044820152606490fd5b60405162461bcd60e51b8152600481018590526002602482015261414160f01b6044820152606490fd5b90506122e781614f64565b15866120ba565b34610b38576020366003190112610b38576001600160a01b0361230f614da1565b166102205152601460205260206040610220512054604051908152f35b34610b385761233a36614ef0565b612342615118565b600782101580611077576001831015806123a9575b61236090615465565b611077578161239f7fbc78cc5de16267f0116f5ef65ec3328f2f432bca5e0f8b61e96b880e826d84dd93602d0192808454945560405193849384616070565b0390a16102205180f35b5050610220516006831115612357565b34610b385761022051806003193601126104c857546040516001600160a01b039091168152602090f35b34610b38576020366003190112610b38576004356007811015610b3857602090602d0154604051908152f35b34610b385761022051806003193601126104c8576020600554604051908152f35b34610b38576020366003190112610b38576004356007811015610b385760209060340154604051908152f35b34610b385761022051806003193601126104c857612478615118565b612480615287565b61022051805460ff60a01b1916600160a01b1790556040513381527f62e78cea01bee320cd4e420270b5ea74000d11b0c9f74754ebdbfc544b05a25890602090a16102205180f35b34610b38576020366003190112610b385761022080516004359052600f6020525160409020546001600160a01b0316801561250857602090604051908152f35b60405162461bcd60e51b81526020600482015260026024820152612aa360f11b6044820152606490fd5b34610b38576020366003190112610b385760043561254e615118565b801515806125c4575b1561259a5760407f885769bb3a0a33e49dc7c402b45290f14135af0d201b7b78370457632240fbb191600e549080600e5582519182526020820152a16102205180f35b60405162461bcd60e51b8152602060048201526002602482015261425360f01b6044820152606490fd5b506101f4811115612557565b34610b385761022051806003193601126104c857506125ed615118565b80546001600160a01b0319811682556001600160a01b03166000805160206160f08339815191528280a36102205180f35b34610b385761022051806003193601126104c857506001546040516370a0823160e01b815230600482015290602090829060249082906001600160a01b03165afa908115610b2a57610220519161267b575b602082604051908152f35b90506020813d82116126a8575b816126956020938361504f565b8101031261063b57602091505182612670565b3d9150612688565b34610b385761022051806003193601126104c8576020604051610fa08152f35b34610b385760209081600319360112610b38576004356007811015610b38576126f761566d565b6126ff615287565b3361022051526008835261271c60ff604061022051205416615434565b6102205192600182101580612918575b61273590615465565b336102205152600781526102205160408120946110355750600484019260ff845460a81c166007811015611077578311156128ee57826018015493601860018060a01b039661278c87896001541630903390615600565b60ff835460a81c169261279f8782615496565b805460ff60b01b1916600160b01b17905561022051600b820181905560068201819055601b82018190559101819055600782101561103557508492919080612858575061282590336102205152600c8352604061022051206040519161280483614fe8565b8083528585840152426040840152606083015260ff861660808301526154d6565b610f896040518094614f84565b61177091828202928284041482151715610d7e57610fd8612710610ffe940480936152a8565b939190506128bd9250336102205152600c81526128a8604061022051206040519061288282614fe8565b60018252878483015242604083015261022051606083015260ff851660808301526154d6565b6128b56040518095614f84565b830190614f84565b8160408201527f6dc34d0522e29b7d7beda15504a00195317702b99a528054d4be53e1ea331b6d60603392a2612832565b60405162461bcd60e51b81526004810183905260026024820152610aa960f31b6044820152606490fd5b50600682111561272c565b34610b38576020366003190112610b385761293c614da1565b612944615118565b6001600160a01b0390811661295a81151561603f565b601680546001600160a01b0319811683179091556102205192167fcb9bcd5e87ec5de7c4b31036687bd221c8e20f2ecf6fce472ac73a211f2a3cdc8380a380f35b34610b38576020366003190112610b38576101a06001600160a01b03806129c0614da1565b166102205152600760205260406102205120908154918160018201541691806002830154169080600384015416906004840154612a5e60ff8260a01c169160ff8160b01c1692600588015494600689015496600b8a015498601c601a8c01549b01549b60206040519e8f908152015260408d015260608c0152821660808b0152612a4981614f64565b60a08a015260ff60c08a019160a81c16614f84565b612a6781614f64565b60e0870152610100860152610120850152610140840152610160830152610180820152f35b34610b385761022051806003193601126104c8576020600654604051908152f35b34610b385760a0366003190112610b3857612ac6614da1565b606435151560643503610b385760076084351015610b3857612ae6615118565b612aee615287565b612b026001600160a01b038216151561603f565b61022080516001600160a01b03831690526008602052516040902054612b2b9060ff1615615144565b6001608435101580612eb5575b612b4190615465565b600b5415612e8b5761022080516024359052600f6020525160408120546001600160a01b0316919082908115159081612e6e575b50612b809150615175565b610220516044359081612e1c575050815b60643515612e0b57612ba290615408565b9060015b612bae6152b5565b61022080518290526010602090815281516040808220805460ff19166001908117909155600f845281832080546001600160a01b03199081166001600160a01b038b81169182179093559094526007909452935120848155928301805482168917905560028301805490911691871691909117905590939060048101612c3484826151d7565b612c4060843582615496565b805460ff60b01b1916600160b01b17905542601c82015561022080516001600160a01b038416905260076020525160408120601f0154906001820182116116f857507f92c194e247c6d4e26ac54d4f751a001bb786b7fd20039047255e4b5327aec9f4949260409492601f60018a9401910155612cbc83614f64565b60018303612dd15761022080516001600160a01b038381169091526007602052905186902060030180546001600160a01b0319169186169190911790555b816102205152600a602052612d148486610220512061525b565b8161022051526007602052601a85610220512001612d328154615278565b905560018060a01b038416610220515260086020528461022051818120600160ff19825416179055600960205220600160ff19825416179055612d748461521e565b845192878452612d8381614f64565b60208401526001600160a01b0390811692908416906000805160206160d0833981519152908690a48151938452612dbf60208501608435614f84565b6001600160a01b031692a36102205180f35b61022080516001600160a01b038381169091526007602052905186902060040180546001600160a01b031916918616919091179055612cfa565b612e14906153d7565b906002612ba6565b52600f6020526102205160408120546001600160a01b03169081908115159081612e51575b50612e4c91506151a6565b612b91565b9050526008602052612e4c60ff6040610220512054168291612e41565b9050526008602052612b8060ff6040610220512054168391612b75565b60405162461bcd60e51b8152602060048201526002602482015261525560f01b6044820152606490fd5b5060066084351115612b38565b34610b385761022051806003193601126104c85760ff6020915460a01c166040519015158152f35b34610b38576020366003190112610b38576004356007811015610b3857602090601f0154604051908152f35b34610b385760a0602081526020600319360112610b385760043590336102205152600d815152610220519060ff918260408220541690811561327b575b501561325157612f61615287565b8215613227576000198301838111610d7e57600e90612f828254809261556c565b93600b5491828610156131fd57612f9990866151fb565b918083116131f5575b5091906102205194925b818410612fea577f9acb94cd9b9c8b1248d0dc0aa654d4303685379499519790474807198a3290436040888888835192835251820152a16102205180f35b90919294612ff786614e57565b90549060039160018060a01b0391831b1c169081610220515260078751526040610220512084600482015460b01c1661302f81614f64565b600181141590816131e0575b506131d35761022051918283918490601085019060148601905b600484106130f1575050505083156130e25792601e837f64e8dd16146649f6743856bb8723dcd7edd0bb0e9b5352620ae83a477aea3283936130da98966130a48d6130d49a98019182546152a8565b90556130b5600f83019182546152a8565b9055016130c38282546151fb565b9055604051908152895190a2615278565b95615278565b929190612fac565b5050505050946130da90615278565b9091929493966131018685614ea0565b905490831b1c6131118785614ea0565b905490841b1c11156131bd576131278685614ea0565b905490831b1c905b81156131b057816131a26131a89361315c6130d4946127106131558d604201548561556c565b04906151fb565b9b61319061316a8c8b614ea0565b613179858354838d1b1c6152a8565b825460001960039390931b92831b1916911b179055565b61319d61316a8c8a614ea0565b6151fb565b966151fb565b929190613055565b9794956131a89150615278565b6131c78684614ea0565b905490831b1c9061312f565b505050946130da90615278565b600291506131ed81614f64565b14158b61303b565b915086612fa2565b60405162461bcd60e51b8152855160048201526002602482015261424560f01b6044820152606490fd5b60405162461bcd60e51b8152905160048201526002602482015261042360f41b6044820152606490fd5b60405162461bcd60e51b8152905160048201526002602482015261415560f01b6044820152606490fd5b546001600160a01b03163314905084612f53565b34610b385761022051806003193601126104c85760206040516117708152f35b34610b38576080366003190112610b38576004356001600160401b038111610b38576132df903690600401614f37565b906024356001600160401b038111610b38576132ff903690600401614f37565b9092906044356001600160401b038111610b3857613321903690600401614f37565b90916064356001600160401b038111610b3857613342903690600401614f37565b969094336102205152600860205261336360ff604061022051205416615434565b80156138905761022080513390526007602052516040812097906001600160401b0383116138785750819061339b60208a0154614fae565b601f811161381f575b506102205190601f83116001146137ad5761022051926137a2575b50508160011b916000199060031b1c19161760208701555b6001600160401b0382116135df5781906133f46021880154614fae565b601f8111613746575b506102205190601f83116001146136d45761022051926136c9575b50508160011b916000199060031b1c19161760218501555b60228401916001600160401b0382116135df57819061344f8454614fae565b601f8111613670575b506102205190601f83116001146136045761022051926135f9575b50508160011b916000199060031b1c19161790555b60238201906001600160401b0384116135df576134a58254614fae565b601f8111613592575b506102205190601f851160011461352757938091602495610220519261351c575b50508160011b916000199060031b1c19161790555b01805460ff1916600117905561022051337fbe4ec58a792f909e102ee3d745d0c3b34a4d437a54d903c4db098d31c556422f8280a280f35b0135905085806134cf565b82825261022051602081209290601f198716905b81811061357a57509160019391876024989410613560575b505050811b0190556134e4565b0135600019600384901b60f8161c19169055858080613553565b9193602060018192878701358155019501920161353b565b8261022051526102205160208120601f870160051c810192602088106135d5575b601f0160051c01915b8281106135ca5750506134ae565b8181556001016135bc565b90925082906135b3565b634e487b7160e01b61022051526041600452602461022051fd5b013590508680613473565b84825261022051602081209350909190601f198516905b818110613658575090846001959493921061363e575b505050811b019055613488565b0135600019600384901b60f8161c19169055868080613631565b9193602060018192878701358155019501920161361b565b9091508361022051526102205160208120601f850160051c810192602086106136bf575b90601f86959493920160051c01915b8281106136b1575050613458565b8181558594506001016136a3565b9092508290613694565b013590508780613418565b60218801825261022051602081209350909190601f198516905b81811061372e5750908460019594939210613714575b505050811b016021850155613430565b0135600019600384901b60f8161c19169055878080613704565b919360206001819287870135815501950192016136ee565b9091506021870161022051526102205160208120601f850160051c81019260208610613798575b90601f86959493920160051c01915b82811061378a5750506133fd565b81815585945060010161377c565b909250829061376d565b0135905089806133bf565b909150601f1983169160208a018152610220519260208420935b81811061380757509084600195949392106137ed575b505050811b0160208701556133d7565b0135600019600384901b60f8161c191690558980806137dd565b919360206001819287870135815501950192016137c7565b9091506020890161022051526102205160208120601f850160051c810160208610613871575b9085949392915b601f840160051c82018110613863575050506133a4565b82815586955060010161384c565b5080613845565b634e487b7160e01b9052604160045261022051602490fd5b60405162461bcd60e51b8152602060048201526002602482015261222760f11b6044820152606490fd5b34610b38576020366003190112610b38576004356138d6615118565b612710811161391d5760407fdefb0223a84c18f8f7c10046a8600d298578166098e58c49022547d7a50da35b91600654908060065582519182526020820152a16102205180f35b60405162461bcd60e51b8152602060048201526002602482015261524560f01b6044820152606490fd5b34610b3857602080600319360112610b38576015546040516347cd519160e01b81526004803590820152908290829060249082906001600160a01b03165afa908115610b2a5761022051916139a0575b50604051908152f35b90508181813d83116139c6575b6139b7818361504f565b81010312610b38575182613997565b503d6139ad565b34610b385761022051806003193601126104c8576003546040516001600160a01b039091168152602090f35b34610b38576020366003190112610b38576001600160a01b03613a1a614da1565b1661022051526009602052602060ff6040610220512054166040519015158152f35b34610b385761022051806003193601126104c8576020600e54604051908152f35b34610b38576020366003190112610b38576004356007811015610b385760209060260154604051908152f35b34610b385761022051806003193601126104c857613aa5615118565b610220515460ff8160a01c1615613af35760ff60a01b191661022051557f5db9ee0a495bf2e6ff9c91a7834c1ba4fdd244a5e8aa4e537bd38aeae4b073aa6020604051338152a16102205180f35b604051638dfc202b60e01b8152600490fd5b34610b38576020366003190112610b38576001600160a01b03613b26614da1565b166102205152601260205260206040610220512054604051908152f35b34610b385761022051806003193601126104c857602060ff60025460a01c16604051908152f35b34610b3857602080600319360112610b3857601554604051631d61396160e11b81526004803590820152908290829060249082906001600160a01b03165afa908115610b2a5761022051916139a05750604051908152f35b34610b38576020366003190112610b38576001600160a01b03613be3614da1565b168061022051526008602052613c0260ff604061022051205416615434565b6102205152600760205260206040610220512054604051908152f35b34610b385761022051806003193601126104c8576001546040516001600160a01b039091168152602090f35b34610b385761022051806003193601126104c857613c6661566d565b613c6e615287565b3361022051526008602052613c8c60ff604061022051205416615434565b3361022051526007602052604061022051206004810154613cc860ff8260b01c16613cb681614f64565b600181149081156140b7575b50615aa6565b601e820190815490811561408d5760ff90620151804204601986018181541061407c575b505060a81c1660078110156110775760260154926102205192601882019081548681809811614069575b5050841561403f578394610220519481811161401d575b505084613dbf949596613d45926102205190556151fb565b905560088101613d568582546151fb565b9055613d628433615bd5565b336102205152600c60205261022051601f60408220920154905060ff8111600014614017575060ff905b60ff60405192613d9b84614fe8565b600584528660208501524260408501526102205160608501521660808301526154d6565b6040518281527fd4379f0df0229cb2fed1f6f1c33e4a164dcf7652a8ff79efd7f4f66bcc1b375660203392a280613fab575b506102208051339052600760205251604090206001908101546001600160a01b03165b6001600160a01b038116151580613fa0575b15610ffe5761022080516001600160a01b038316905260076020525160409020600481015460b081901c60ff16613e5c81614f64565b60018114908115613f8c575b50613e8d575b50600101546001600160a01b031691613e879150615278565b90613e14565b600760ff8260a81c1610156110775760ff9060a81c1660340154831115613eb5575b81613e6e565b6064918483810204831485151715610d7e57612710613e879386020480613ede575b5050613eaf565b613ee88183615bd5565b60098301613ef78282546151fb565b905560018060a01b0382166102205152600c602052613f476040610220512060405190613f2382614fe8565b6006825283602083015242604083015233606083015260ff881660808301526154d6565b604080519182526020820186905233926001600160a01b0316917f45948fc51bbcac6c3b663a1adcc0697660bbaeddd6eab9240451a0efcf7ad7539190a38480613ed7565b60029150613f9981614f64565b1486613e68565b506014821115613e26565b613fb7816017546151fb565b6017556040518181527fd5fe7fa76ce91683ea1b2f2ba3429885feeb202704aa35a0552e110e4eb6b26b60203392a26016546001600160a01b039190821680614002575b5050613df1565b61400f926001541661557f565b818080613ffb565b90613d8c565b9096613d45929650613dbf95506140358889936152a8565b9550969591613d2d565b60405162461bcd60e51b8152602060048201526002602482015261444360f01b6044820152606490fd5b6140749296506152a8565b938587613d16565b610220516018880155558580613cec565b60405162461bcd60e51b81526020600482015260026024820152614e4360f01b6044820152606490fd5b600291506140c481614f64565b1484613cc2565b34610b38576020366003190112610b38576004356140e761566d565b6140ef615287565b336102205152600760205260406102205120614120600160ff600484015460b01c1661411a81614f64565b14615aa6565b600581018054908382106146695783159161413b8315615ad7565b60ff60025460a01c16604d8111610d7e57600a0a80600a0290600a820403610d7e57801561464f5785066146255784614173916152a8565b90556103e89081840291848304141715610d7e57610220519260055480614606575b50836141b26141b7926141b26127108604916127108704906152a8565b6152a8565b916127106141c76006548561556c565b04906141d382856152a8565b91806145e8575b5081614599575b601d915084614576575b939293016141fa8482546151fb565b905533610220515260126020526040610220512061421d612710830482546151fb565b9055604051612710820481527f2b1d2104e84dd4dabb0cca024171f783ab1e1c9dc1af9d60a2361596653a99c460203392a2610220805133905260076020525160408120600190810154919490916001600160a01b03165b6001600160a01b03811615158061456b575b1561443c5760018060a01b038116610220515260076020526040610220512090600482015460ff8160b01c166142bc81614f64565b60018114908115614428575b506142ed575b5050600101546001600160a01b0316916142e790615278565b91614275565b600760ff8260a81c161015611077578060ff869260a81c16603b0154821115614317575b506142ce565b9060ff6143279260a81c16615b08565b80614334575b8490614311565b6143436127109182880461556c565b049081151580614411575b1561432d5761437d8280996143676142e7969585615bd5565b600a85016143768382546151fb565b90556151fb565b9760018060a01b0382166102205152600c6020526143cc60406102205120604051906143a882614fe8565b6007825283602083015242604083015233606083015260ff891660808301526154d6565b604080519182526020820187905233926001600160a01b0316917ffa90ff469705543002392f8f4d59d717c4d5c6b6c7832f347dc47e1f75855b939190a3908761432d565b506127108604614421838a6151fb565b111561434e565b6002915061443581614f64565b14896142c8565b508361452184336102205152600c60205261448b604061022051206040519061446482614fe8565b600382528660208301524260408301526102205160608301526102205160808301526154d6565b336102205152600c6020526144d860406102205120604051906144ad82614fe8565b600a8252612710840460208301524260408301526102205160608301526102205160808301526154d6565b336102205152600c60205260406102205120612710604051926144fa84614fe8565b600b84520460208301524260408301526102205160608301526102205160808301526154d6565b60405191825260208201527fdf273cb619d95419a9cd0ec88123a0538c85064229baa6363788f743fff90deb60403392a26001600080516020616130833981519152556102205180f35b50600f831115614287565b6001546003546145949187916001600160a01b03908116911661557f565b6141eb565b6002546001600160a01b031680156145be57601d926145b991339061557f565b6141e1565b60405162461bcd60e51b8152602060048201526002602482015261135560f21b6044820152606490fd5b600154614600919033906001600160a01b031661557f565b856141da565b6141b294509061271061461c6141b7938361556c565b04945090614195565b60405162461bcd60e51b8152602060048201526002602482015261414d60f01b6044820152606490fd5b634e487b7160e01b61022051526012600452602461022051fd5b60405162461bcd60e51b815260206004820152600360248201526224a11960e91b6044820152606490fd5b34610b38576040366003190112610b38576146ad614da1565b7f41310093e80507e3fb2fafc7628a627f835448a93096f490e3e207749295f48260206024356146db615118565b6001600160a01b0384811694611f3f91839190611f3688151561603f565b34610b38576020366003190112610b38576001600160a01b0361471a614da1565b166102205152600d602052602060ff6040610220512054166040519015158152f35b34610b38576020366003190112610b3857614755614da1565b6040519061476282615019565b608080923690378160405161477681615019565b3690376040519061478682615019565b823683376040519061479782615019565b83368337836040516147a881615019565b36903760018060a01b03166102205152600760205260406102205120916010830160146147d482615d45565b9401946147e086615d45565b604051969092908288016001600160401b038111898210176135df57604052610bb888526107d060208901526103e860408901526101f46060890152610220515b6004811061487657610280886148748b6148698b61485e8c6148538d8d61484b604051809b614f0f565b890190614f0f565b610100870190614f0f565b610180850190614f0f565b610200830190614f0f565bf35b806148846148f39285614ea0565b9054906148918386614ea0565b905460039391841b1c91831b1c10156148f8576148ae8286614ea0565b9054911b1c5b6148be8289615d78565b526127106148e28b6148db846148d4818d615d78565b5192615d78565b519061556c565b046148ed828a615d78565b52615278565b614821565b6149028285614ea0565b9054911b1c6148b4565b34610b385761022051806003193601126104c8576020601754604051908152f35b34610b385761493b36614ef0565b614943615118565b600782101580611077576001831015806149a0575b61496190615465565b611077578161239f7ffd97dc847c39542ae663c77ed6c5fe5d200d0a308aac833f926e9c3f8f32453f9360260192808454945560405193849384616070565b5050610220516006831115614958565b34610b38576040366003190112610b38576149c9614da1565b60243590811515809203610b385760207f9742298dc6801916d04d1f05c6a0cc0405b25bad99060bbbc1c82a9f474ab01491614a03615118565b6001600160a01b031692614a1884151561603f565b836102205152600d82526040610220512060ff1981541660ff8316179055604051908152a26102205180f35b34610b38576020366003190112610b38576004356007811015610b385760209060180154604051908152f35b34610b38576020366003190112610b38576001600160a01b03614a91614da1565b1661022051526007602052614afe6040610220512060ff602482015416614b28614abd60208401615072565b92614b1a614acd60218301615072565b91614b0c614ae96023614ae260228501615072565b9301615072565b9360405198899860a08a5260a08a0190614eb0565b9088820360208a0152614eb0565b908682036040880152614eb0565b908482036060860152614eb0565b90151560808301520390f35b34610b38576020366003190112610b38576004356004811015610b385760209060420154604051908152f35b34610b38576020366003190112610b385760043561022051526010602052602060ff6040610220512054166040519015158152f35b34610b38576040366003190112610b3857614bae614da1565b61022080516001600160a01b039283169052600a602052516040812080546024359392908410156104c85750602092614be691614e88565b9190546040519260031b1c168152f35b34610b38576040366003190112610b3857614c0f614da1565b6024359060ff82168203610b3857614c25615118565b6001600160a01b03908116908115614c9657600180546001600160a01b0319811684179091556002805460ff60a01b191660a09590951b60ff60a01b16949094179093556102205192167f5efdfedf5aef119c431263f0656093045dffdf44b3d8f1b0f158dc295c3a0f8e8380a380f35b60405162461bcd60e51b8152602060048201526002602482015261125560f21b6044820152606490fd5b346104c857614cd7614cd136614dbc565b91615e94565b949190926040519460c086019060c08752845180925260e0870191602080960190610220515b818110614d805750505091614d2082614d3c959489614d2e9503888b0152614de6565b908782036040890152614de6565b908582036060870152614e1a565b8381036080850152818084519283815201930191610220515b828110614d69578580868960a08301520390f35b835160ff1685529381019392810192600101614d55565b909193845190600d8210156110775790815287019387019190600101614cfd565b600435906001600160a01b0382168203614db757565b600080fd5b6060906003190112614db7576004356001600160a01b0381168103614db757906024359060443590565b90815180825260208080930193019160005b828110614e06575050505090565b835185529381019392810192600101614df8565b90815180825260208080930193019160005b828110614e3a575050505090565b83516001600160a01b031685529381019392810192600101614e2c565b600b54811015614e7257600b60005260206000200190600090565b634e487b7160e01b600052603260045260246000fd5b8054821015614e725760005260206000200190600090565b6004821015614e72570190600090565b919082519283825260005b848110614edc575050826000602080949584010152601f8019910116010190565b602081830181015184830182015201614ebb565b6040906003190112614db7576004356007811015614db7579060243590565b6000915b60048310614f2057505050565b600190825181526020809101920192019190614f13565b9181601f84011215614db7578235916001600160401b038311614db75760208381860195010111614db757565b60031115614f6e57565b634e487b7160e01b600052602160045260246000fd5b906007821015614f6e5752565b34614db7576000366003190112614db75760206040516103e88152f35b90600182811c92168015614fde575b6020831014614fc857565b634e487b7160e01b600052602260045260246000fd5b91607f1691614fbd565b60a081019081106001600160401b0382111761500357604052565b634e487b7160e01b600052604160045260246000fd5b608081019081106001600160401b0382111761500357604052565b602081019081106001600160401b0382111761500357604052565b601f909101601f19168101906001600160401b0382119082101761500357604052565b906040519182600082549261508684614fae565b9081845260019485811690816000146150f557506001146150b2575b50506150b09250038361504f565b565b9093915060005260209081600020936000915b8183106150dd5750506150b0935082010138806150a2565b855488840185015294850194879450918301916150c5565b9150506150b094506020925060ff191682840152151560051b82010138806150a2565b6000546001600160a01b0316330361512c57565b60405163118cdaa760e01b8152336004820152602490fd5b1561514b57565b60405162461bcd60e51b815260206004820152600260248201526120a960f11b6044820152606490fd5b1561517c57565b60405162461bcd60e51b8152602060048201526002602482015261495360f01b6044820152606490fd5b156151ad57565b60405162461bcd60e51b815260206004820152600260248201526124a160f11b6044820152606490fd5b906151e181614f64565b815460ff60a01b191660a09190911b60ff60a01b16179055565b9190820180921161520857565b634e487b7160e01b600052601160045260246000fd5b600b54600160401b8110156150035780600161523d9201600b55614e57565b819291549060031b9160018060a01b03809116831b921b1916179055565b8054600160401b8110156150035761523d91600182018155614e88565b60001981146152085760010190565b60ff60005460a01c1661529657565b60405163d93c066560e01b8152600490fd5b9190820391821161520857565b600080606033811b600180805b6152cf575b505050505090565b949091929394156153ba575b5060006011916152eb8354615278565b92838155600b54906040948551602093848201924284524489840152898b840152607483015260949081830152815260c0810181811060018060401b038211176153a6579064e8d4a50c189291885251902006906103e8820180921161539457506153569097615278565b936032851161536c5750509081949392946152c2565b60649250519062461bcd60e51b825260048201526002602482015261494760f01b6044820152fd5b634e487b7160e01b8552600452602484fd5b634e487b7160e01b87526041600452602487fd5b80600052601060205260ff604060002054166152db5793806152c7565b5b6001600160a01b038181166000908152600760205260409020600401541690811561540357506153d8565b905090565b5b6001600160a01b03818116600090815260076020526040902060030154169081156154035750615409565b1561543b57565b60405162461bcd60e51b8152602060048201526002602482015261272960f11b6044820152606490fd5b1561546c57565b60405162461bcd60e51b8152602060048201526002602482015261049560f41b6044820152606490fd5b906007811015614f6e57815460ff60a81b191660a89190911b60ff60a81b16179055565b8054821015614e725760005260206000209060021b0190600090565b8054600160401b811015615003576154f3916001820181556154ba565b61555657815190600d821015614f6e5760039160ff801983541691161781556020830151600182015560408301516002820155019060018060a01b03606082015116825491608060ff60a01b91015160a01b169160018060a81b03191617179055565b634e487b7160e01b600052600060045260246000fd5b8181029291811591840414171561520857565b60405163a9059cbb60e01b60009081526001600160a01b039384166004526024949094529260209060448180855af16001600051148116156155e0575b83604052156155ca57505050565b635274afe760e01b835216600482015260249150fd5b60018115166155f657813b15153d1516166155bc565b833d6000823e3d90fd5b6040516323b872dd60e01b60009081526001600160a01b03938416600452938316602452604494909452909160209060648180855af1600160005114811615615657575b836040526000606052156155ca57505050565b60018115166155f657813b15153d151616615644565b600080516020616130833981519152600281541461568b5760029055565b604051633ee5aeb560e01b8152600490fd5b6001600160a01b03908116600081815260076020526040808220600101549294929093169283156157c15783825280822092600484015460ff8160b01c166156e481614f64565b600181141590816157ac575b506157a35760a81c60ff16600781101561056b576127109161571691601f01549061556c565b0490811561579b5761579460209360077f86583c8be3288ec633d5a10afa75407d4c785bff5edd40840c42e48d0efdcfbb96615752868a615bd5565b0161575e8582546151fb565b9055868152600c855282812083519161577683614fe8565b600483528587840152428584015289606084015260808301526154d6565b51908152a3565b505050505050565b50505050505050565b600291506157b981614f64565b1415386156f0565b5050505050565b919060005b60018060a01b0380941693846000526007906020908282526002916040918383600020015416948515615a0e5761580390615278565b97601490818a11615a02578660005285835260ff600480866000200154928260b094851c169361583285614f64565b888460018097149283156159db575b505050615858575b505050505050505050926157cd565b60005287855285600020015460a01c169061587282614f64565b811494600086156159d65750885b88600052878552615899600c87600020019182546151fb565b90556158a482614f64565b811490600082156159d15750885b886000528785526158cb600d87600020019182546151fb565b90556158d681614f64565b600086156159cc5750885b886000528785526158fa600e87600020019182546151fb565b905561590581614f64565b600082156159c75750885b88600052878552615929600f87600020019182546151fb565b90556159348b615a19565b969096615942575b80615849565b61594b82614f64565b1561598a5750505061596d929161597d94601092876000525260002001614ea0565b6131798583548360031b1c6151fb565b388080808080808061593c565b615998909594929395614f64565b6159a7575b505050505061597d565b6159bd9461596d94876000525260002001614ea0565b388080808061599d565b615910565b6158e1565b6158b2565b615880565b909192508c6000528b8952848a6000200154901c166159f981614f64565b14888438615841565b50505050505050509050565b505050505050509050565b6001908181101580615a9b575b615a9557600481101580615a8a575b615a8457600781101580615a79575b615a7357600a8110159081615a67575b50615a625750600090600090565b600391565b60149150111538615a54565b50600291565b506009811115615a44565b50908190565b506006811115615a35565b50600091565b506003811115615a26565b15615aad57565b60405162461bcd60e51b81526020600482015260026024820152614e4160f01b6044820152606490fd5b15615ade57565b60405162461bcd60e51b8152602060048201526002602482015261041360f41b6044820152606490fd5b6007811015614f6e5760018103615b2d575060011015615b28575b600090565b606490565b60028103615b43575060031015615b2857600090565b60038103615b6c57506004811115615b6657600514615b6157600090565b603290565b50606490565b60048103615b8b57506005811115615b665760091015615b6157600090565b60058103615ba957506004811115615b6657600c10615b2357603290565b600614615bb7575b50600090565b6005811115615bce57600f1015615b615738615bb1565b506101f490565b9060018060a01b038216600052600760205260406000208115615c9e5760ff600482015460a81c166007811015614f6e57602d0154926000600b830194855490818111615c8d575b50508015615c8157808411615c4e575050906005615c4a9201615c418282546151fb565b905582546151fb565b9055565b82936150b0956005615c7b949501615c678482546151fb565b9055615c748382546151fb565b90556152a8565b91615ca3565b50906150b09350615ca3565b615c9792506152a8565b3880615c1d565b505050565b9060ff600291600484019081546001848260b01c16615cc181614f64565b14615cef575b50505460b01c16615cd781614f64565b14615ce0575050565b6006615c4a91019182546151fb565b60b084901b1916600160b11b17825542601b86018190556040519081526001600160a01b03909116907f2bb92f1150248e7f78a267b3904ebd95f62a5225d70dcc813fb6906c3a646e9890602090a23880615cc7565b60405191906000835b60048210615d62575050506150b082615019565b6001602081928554815201930191019091615d4e565b906004811015614e725760051b0190565b6001600160401b0381116150035760051b60200190565b90615daa82615d89565b615db7604051918261504f565b8281528092615dc8601f1991615d89565b0190602036910137565b8051821015614e725760209160051b010190565b929060018060a01b0380600095168552600a6020526040852080549485841015615e7757615e1490846151fb565b83868211615e6f575b615e26916152a8565b92615e3084615da0565b965b848110615e40575050505050565b8084615e58615e52615e6a94866151fb565b86614e88565b90549060031b1c166148ed828b615dd2565b615e32565b869150615e1d565b50505050909160405190615e8a82615034565b8082523681379190565b929160018060a01b039182600095168552600c60205260408086209283549182841015615fe25750615ec690836151fb565b82828211615fda575b615ed8916152a8565b94615ee286615da0565b96615eec87615da0565b96615ef681615da0565b96615f0082615da0565b96615f0a83615da0565b96845b848110615f1c57505050505050565b6000198801888111615fc657615f46615f408f92615f3a85876151fb565b906152a8565b856154ba565b5060ff91615f58848484541692615dd2565b600d821015615fb257918f8f90600393615fad97969552615f7e86600185015492615dd2565b52615f8e85600284015492615dd2565b520154868116615f9e848f615dd2565b5260a01c166148ed828c615dd2565b615f0d565b634e487b7160e01b8a52602160045260248afd5b634e487b7160e01b87526011600452602487fd5b829150615ecf565b9450509394915050815192615ff684615034565b81845282519461600586615034565b82865283519461601486615034565b83865284519461602386615034565b848652519361603185615034565b808552368137959493929190565b1561604657565b60405162461bcd60e51b815260206004820152600260248201526124ab60f11b6044820152606490fd5b604091949392616084826060810197614f84565b60208201520152565b600b548015615bb1576160a3600e5480926151fb565b60001981019081116152085781156160b9570490565b634e487b7160e01b600052601260045260246000fdfee22a39f862558eb01c2a26eb38c7d884b499221d9a5989f637529bd3e77fd6798be0079c531659141344cd1fd0a4f28419497f9722a3daafe3b4186f6b6457e04769bc30c3e6f90ecfef0f6e4760f65f2cc4ae6c67493463e3c9caf3d2f863e99b779b17422d0df92223018b32b4d1fa46e071723d6817e2486d003becc55f00a264697066735822122079c03bb583a381d1a5cd68b488cedfba92cbb441c30f19ec49c6bc16ddcc577664736f6c63430008140033",
  "linkReferences": {},
  "deployedLinkReferences": {}
}